{"abi":[{"inputs":[{"internalType":"contract IVault","name":"vault","type":"address"},{"internalType":"address","name":"_gyroConfigAddress","type":"address"}],"stateMutability":"nonpayable","type":"constructor","name":"constructor"},{"anonymous":false,"inputs":[{"indexed":true,"internalType":"address","name":"pool","type":"address"}],"name":"PoolCreated","type":"event"},{"inputs":[],"name":"BUFFER_PERIOD_DURATION","outputs":[{"internalType":"uint256","name":"","type":"uint256"}],"stateMutability":"view","type":"function"},{"inputs":[],"name":"PAUSE_WINDOW_DURATION","outputs":[{"internalType":"uint256","name":"","type":"uint256"}],"stateMutability":"view","type":"function"},{"inputs":[{"internalType":"string","name":"name","type":"string"},{"internalType":"string","name":"symbol","type":"string"},{"internalType":"contract IERC20[]","name":"tokens","type":"address[]"},{"components":[{"internalType":"int256","name":"alpha","type":"int256"},{"internalType":"int256","name":"beta","type":"int256"},{"internalType":"int256","name":"c","type":"int256"},{"internalType":"int256","name":"s","type":"int256"},{"internalType":"int256","name":"lambda","type":"int256"}],"internalType":"struct GyroECLPMath.Params","name":"eclpParams","type":"tuple"},{"components":[{"components":[{"internalType":"int256","name":"x","type":"int256"},{"internalType":"int256","name":"y","type":"int256"}],"internalType":"struct GyroECLPMath.Vector2","name":"tauAlpha","type":"tuple"},{"components":[{"internalType":"int256","name":"x","type":"int256"},{"internalType":"int256","name":"y","type":"int256"}],"internalType":"struct GyroECLPMath.Vector2","name":"tauBeta","type":"tuple"},{"internalType":"int256","name":"u","type":"int256"},{"internalType":"int256","name":"v","type":"int256"},{"internalType":"int256","name":"w","type":"int256"},{"internalType":"int256","name":"z","type":"int256"},{"internalType":"int256","name":"dSq","type":"int256"}],"internalType":"struct GyroECLPMath.DerivedParams","name":"derivedECLPParams","type":"tuple"},{"internalType":"address[]","name":"rateProviders","type":"address[]"},{"internalType":"uint256","name":"swapFeePercentage","type":"uint256"},{"internalType":"address","name":"owner","type":"address"},{"internalType":"address","name":"capManager","type":"address"},{"components":[{"internalType":"bool","name":"capEnabled","type":"bool"},{"internalType":"uint120","name":"perAddressCap","type":"uint120"},{"internalType":"uint128","name":"globalCap","type":"uint128"}],"internalType":"struct ICappedLiquidity.CapParams","name":"capParams","type":"tuple"},{"internalType":"address","name":"pauseManager","type":"address"},{"components":[{"internalType":"uint256","name":"pauseWindowDuration","type":"uint256"},{"internalType":"uint256","name":"bufferPeriodDuration","type":"uint256"}],"internalType":"struct ILocallyPausable.PauseParams","name":"pauseParams","type":"tuple"}],"name":"create","outputs":[{"internalType":"address","name":"","type":"address"}],"stateMutability":"nonpayable","type":"function"},{"inputs":[],"name":"getCreationCode","outputs":[{"internalType":"bytes","name":"","type":"bytes"}],"stateMutability":"view","type":"function"},{"inputs":[],"name":"getCreationCodeContracts","outputs":[{"internalType":"address","name":"contractA","type":"address"},{"internalType":"address","name":"contractB","type":"address"}],"stateMutability":"view","type":"function"},{"inputs":[],"name":"getPauseConfiguration","outputs":[{"internalType":"uint256","name":"pauseWindowDuration","type":"uint256"},{"internalType":"uint256","name":"bufferPeriodDuration","type":"uint256"}],"stateMutability":"view","type":"function"},{"inputs":[],"name":"getVault","outputs":[{"internalType":"contract IVault","name":"","type":"address"}],"stateMutability":"view","type":"function"},{"inputs":[],"name":"gyroConfigAddress","outputs":[{"internalType":"address","name":"","type":"address"}],"stateMutability":"view","type":"function"},{"inputs":[{"internalType":"address","name":"pool","type":"address"}],"name":"isPoolFromFactory","outputs":[{"internalType":"bool","name":"","type":"bool"}],"stateMutability":"view","type":"function"}],"bytecode":"6101606040523480156200001257600080fd5b506040516200727c3803806200727c83398101604081905262000035916200028a565b816040518060200162000048906200027c565b601f1982820381018352601f909101166040528051819060006002820460a081905280830360e081905281855290915083620000908162000139602090811b6200038f17901c565b60601b6001600160601b0319166080528285018051838252620000bf8262000139602090811b6200038f17901c565b6001600160601b0319606091821b811660c0529690935290529590951b90911661010052505050426276a700016101205250620001096001600160a01b038216151560696200018d565b620001216001600160a01b038316151560696200018d565b60601b6001600160601b0319166101405250620002de565b80517f602038038060206000396000f3fefefefefefefefefefefefefefefefefefefe808352600091602081018484f09084529150620001876001600160a01b03831615156101ac620001a2565b50919050565b816200019e576200019e81620001b3565b5050565b816200019e576200019e81620001c8565b620001c5816223aca960e91b6200021b565b50565b62461bcd60e51b6000908152602060045260076024526642414c23000030600a808404818106603090810160081b95839006959095019082900491820690940160101b939093010160c81b604452606490fd5b62461bcd60e51b600090815260206004526007602452600a808404818106603090810160081b958390069590950190829004918206850160101b01602363ffffff0060e086901c160160181b0190930160c81b60445260e882901c90606490fd5b616031806200124b83390190565b600080604083850312156200029d578182fd5b8251620002aa81620002c8565b6020840151909250620002bd81620002c8565b809150509250929050565b6001600160a01b0381168114620001c557600080fd5b60805160601c60a05160c05160601c60e0516101005160601c610120516101405160601c610ef9620003526000398061016f52806103385250806101dd528061020652508061026c5250806103e95250806101b4528061046552508061040a52508061019352806104415250610ef96000f3fe608060405234801561001057600080fd5b50600436106100925760003560e01c806345be0bd41161006657806345be0bd4146100f65780636634b7531461010b5780638d928af81461012b578063d146468614610133578063f680d9731461013b57610092565b8062c194db146100975780630bc7b4c4146100b5578063174481fa146100ca5780632da47c40146100e0575b600080fd5b61009f61014e565b6040516100ac9190610d85565b60405180910390f35b6100bd61016d565b6040516100ac9190610d4c565b6100d2610191565b6040516100ac929190610d60565b6100e86101d7565b6040516100ac929190610e5b565b6100fe610241565b6040516100ac9190610e52565b61011e610119366004610a28565b610248565b6040516100ac9190610d7a565b6100bd61026a565b6100fe61028e565b6100bd610149366004610a44565b610295565b6060610168604051806020016040528060008152506103e1565b905090565b7f000000000000000000000000000000000000000000000000000000000000000081565b7f00000000000000000000000000000000000000000000000000000000000000007f00000000000000000000000000000000000000000000000000000000000000009091565b600080427f000000000000000000000000000000000000000000000000000000000000000081101561023357807f000000000000000000000000000000000000000000000000000000000000000003925062278d00915061023c565b60009250600091505b509091565b6276a70081565b6001600160a01b03811660009081526020819052604090205460ff165b919050565b7f000000000000000000000000000000000000000000000000000000000000000090565b62278d0081565b6000806102a68e8e8e8b8b886104ba565b905060006040518061010001604052808381526020018d81526020018c81526020018b6000815181106102d557fe5b60200260200101516001600160a01b031681526020018b6001815181106102f857fe5b60200260200101516001600160a01b03168152602001886001600160a01b03168152602001878152602001866001600160a01b0316815250905061037c817f0000000000000000000000000000000000000000000000000000000000000000604051602001610368929190610d98565b604051602081830303815290604052610569565b9f9e505050505050505050505050505050565b80517f602038038060206000396000f3fefefefefefefefefefefefefefefefefefefe808352600091602081018484f090845291506103db6001600160a01b03831615156101ac6105c9565b50919050565b8051604080517f00000000000000000000000000000000000000000000000000000000000000007f0000000000000000000000000000000000000000000000000000000000000000818101858101848101602090810190965280855293957f00000000000000000000000000000000000000000000000000000000000000009592947f000000000000000000000000000000000000000000000000000000000000000094938801866000828a3c846000888301883c50602089810190898501016104ac8183866105db565b505050505050505050919050565b6104c26106a6565b6040518061012001604052806104d661026a565b6001600160a01b03168152602001888152602001878152602001866000815181106104fd57fe5b60200260200101516001600160a01b031681526020018660018151811061052057fe5b60200260200101516001600160a01b031681526020018581526020018360000151815260200183602001518152602001846001600160a01b031681525090509695505050505050565b60008061057583610619565b6001600160a01b038116600081815260208190526040808220805460ff191660011790555192935090917f83a48fbcfc991335314e74d0496aab6a1987e992ddc85dddbcc4d6dd6ef2e9fc9190a292915050565b816105d7576105d781610653565b5050565b5b602081106105fb578151835260209283019290910190601f19016105dc565b905182516020929092036101000a6000190180199091169116179052565b600080610625836103e1565b905060008151602083016000f090506001600160a01b03811661064c573d6000803e3d6000fd5b9392505050565b62461bcd60e51b6000908152602060045260076024526642414c23000030600a808404818106603090810160081b95839006959095019082900491820690940160101b939093010160c81b604452606490fd5b60405180610120016040528060006001600160a01b03168152602001606081526020016060815260200160006001600160a01b0316815260200160006001600160a01b0316815260200160008152602001600081526020016000815260200160006001600160a01b031681525090565b803561026581610eab565b600082601f830112610731578081fd5b8135602061074661074183610e8d565b610e69565b8281528181019085830183850287018401881015610762578586fd5b855b8581101561078957813561077781610eab565b84529284019290840190600101610764565b5090979650505050505050565b600082601f8301126107a6578081fd5b813560206107b661074183610e8d565b82815281810190858301838502870184018810156107d2578586fd5b855b858110156107895781356107e781610eab565b845292840192908401906001016107d4565b600082601f830112610809578081fd5b813567ffffffffffffffff81111561081d57fe5b610830601f8201601f1916602001610e69565b818152846020838601011115610844578283fd5b816020850160208301379081016020019190915292915050565b60006060828403121561086f578081fd5b6040516060810181811067ffffffffffffffff8211171561088c57fe5b604052905080823580151581146108a257600080fd5b815260208301356001600160781b03811681146108be57600080fd5b602082015260408301356001600160801b03811681146108dd57600080fd5b6040919091015292915050565b600061012082840312156108fc578081fd5b60405160e0810181811067ffffffffffffffff8211171561091957fe5b60405290508061092984846109e0565b815261093884604085016109e0565b60208201526080830135604082015260a0830135606082015260c0830135608082015260e083013560a082015261010083013560c08201525092915050565b600060a08284031215610988578081fd5b60405160a0810181811067ffffffffffffffff821117156109a557fe5b806040525080915082358152602083013560208201526040830135604082015260608301356060820152608083013560808201525092915050565b6000604082840312156109f1578081fd5b6040516040810181811067ffffffffffffffff82111715610a0e57fe5b604052823581526020928301359281019290925250919050565b600060208284031215610a39578081fd5b813561064c81610eab565b6000806000806000806000806000806000806103608d8f031215610a66578788fd5b67ffffffffffffffff8d351115610a7b578788fd5b610a888e8e358f016107f9565b9b5067ffffffffffffffff60208e01351115610aa2578788fd5b610ab28e60208f01358f016107f9565b9a5067ffffffffffffffff60408e01351115610acc578788fd5b610adc8e60408f01358f01610796565b9950610aeb8e60608f01610977565b9850610afb8e6101008f016108ea565b975067ffffffffffffffff6102208e01351115610b16578687fd5b610b278e6102208f01358f01610721565b96506102408d01359550610b3e6102608e01610716565b9450610b4d6102808e01610716565b9350610b5d8e6102a08f0161085e565b9250610b6c6103008e01610716565b9150610b7c8e6103208f016109e0565b90509295989b509295989b509295989b565b6001600160a01b03169052565b60008151808452815b81811015610bc057602081850181015186830182015201610ba4565b81811115610bd15782602083870101525b50601f01601f19169290920160200192915050565b8051151582526020808201516001600160781b0316908301526040908101516001600160801b0316910152565b610c1e828251610d3d565b6020810151610c306040840182610d3d565b5060408101516080830152606081015160a0830152608081015160c083015260a081015160e083015260c08101516101008301525050565b6000610120610c78848451610b8e565b6020830151816020860152610c8f82860182610b9b565b91505060408301518482036040860152610ca98282610b9b565b9150506060830151610cbe6060860182610b8e565b506080830151610cd16080860182610b8e565b5060a083015160a085015260c083015160c085015260e083015160e085015261010080840151610d0382870182610b8e565b5090949350505050565b80518252602081015160208301526040810151604083015260608101516060830152608081015160808301525050565b80518252602090810151910152565b6001600160a01b0391909116815260200190565b6001600160a01b0392831681529116602082015260400190565b901515815260200190565b60006020825261064c6020830184610b9b565b60006040825283516102c06040840152610db6610300840182610c68565b90506020850151610dca6060850182610d0d565b506040850151610dde610100850182610c13565b506060850151610df2610220850182610b8e565b506080850151610e06610240850182610b8e565b5060a0850151610e1a610260850182610b8e565b5060c0850151610e2e610280850182610be6565b5060e0850151610e426102e0850182610b8e565b50905061064c6020830184610b8e565b90815260200190565b918252602082015260400190565b60405181810167ffffffffffffffff81118282101715610e8557fe5b604052919050565b600067ffffffffffffffff821115610ea157fe5b5060209081020190565b6001600160a01b0381168114610ec057600080fd5b5056fea2646970667358221220181b22c323eedb479f52bb7784c5ba12210585439488beed8df348bd26270c1e64736f6c634300070600336104a06040527f6e71edae12b1b97f4d1f60370fef10105fa2faae0126114a169c64845d6126c9610120526706f05b59d3b20000610200819052610220526000610240523480156200005057600080fd5b506040516200603138038062006031833981016040819052620000739162000f68565b8160e001518260a001518360c0015184600001518060c001518160e001518260200151836040015184600001518280604051806040016040528060018152602001603160f81b81525085858a6101000151336001600160a01b031660001b806080818152505050806001600160a01b031660a0816001600160a01b031660601b815250505081600390805190602001906200011092919062000b65565b5080516200012690600490602084019062000b65565b505060058054601260ff1990911617905550815160209283012060c052805191012060e052507f8b73c3c69bb8fe3d512ecc4cf759cc79239f7b179b0ffacaa9a75d522b39400f61010052606090811b6001600160601b031916610140524294909401610160819052909201610180525050604080516002808252928101909152600091816020016020820280368337019050509050816060015181600081518110620001cf57fe5b60200260200101906001600160a01b031690816001600160a01b0316815250508160800151816001815181106200020257fe5b60200260200101906001600160a01b031690816001600160a01b0316815250506200023881620006a860201b62001a1e1760201c565b60a08201516200024890620006b8565b81516040516309b2760f60e01b81526000916001600160a01b0316906309b2760f906200027b9060029060040162001154565b602060405180830381600087803b1580156200029657600080fd5b505af1158015620002ab573d6000803e3d6000fd5b505050506040513d601f19601f82011682018060405250810190620002d1919062000f4f565b83516040805160028082526060820183529394506001600160a01b03909216926366a9c7d2928592879290602083019080368337019050506040518463ffffffff1660e01b81526004016200032993929190620010ba565b600060405180830381600087803b1580156200034457600080fd5b505af115801562000359573d6000803e3d6000fd5b5050506101a082905250606080840180516001600160601b031990831b81166101c052608086015190921b9091166101e05251620003979062000741565b610260526080830151620003ab9062000741565b61028052505060408051808201909152600e81526d1b9bdd08185d5d1a1bdc9a5e995960921b602082015290506001600160a01b0383166200040b5760405162461bcd60e51b815260040162000402919062001169565b60405180910390fd5b50600b80546001600160a01b0319166001600160a01b039384161790558051600a8054602084015160409094015160ff1990911692151592909217610100600160801b0319166101006001600160781b0390941693909302929092176001600160801b03908116600160801b91909216021790556200049090821615156069620007ef565b600c80546001600160a01b0319166001600160a01b03928316179055620004bd90821615156078620007ef565b620004d782602001516200080060201b62001a2c1760201c565b7ff468331437e1ec2fec64fc27f23a28b085a09e90f385338d4b58cb63860797776001604051620005099190620010af565b60405180910390a160208201516040808401519051636e70c2ef60e01b815273__GyroECLPMath__________________________92636e70c2ef9262000552926004016200119e565b60006040518083038186803b1580156200056b57600080fd5b505af415801562000580573d6000803e3d6000fd5b505050507f614fd1489cdee8181582fbbc1933d6870cd06c6f22d314b97a650ffa547c6ccd6001604051620005b69190620010af565b60405180910390a160208281015180518183015160408084015160608086015160809687015161032052610300526102e0919091526102c0929092526102a09290925281860151805180519086015182870151805197015194830151838501518488015160a086015160c0909601516104405261042095909552610400949094526103e0939093526103c0929092526103a093909352610380949094526103609390935261034052600d80546001600160a01b0319166001600160a01b03949094169390931790925580830151811b6001600160601b031990811661046052919092015190911b166104805262001296565b80620006b481620008eb565b5050565b620006cd64e8d4a5100082101560cb62000975565b620006e567016345785d8a000082111560ca62000975565b62000701816008546200098660201b62001b091790919060201c565b6008556040517fa9ba3ffe0b6c366b81232caab38605a0699ad5398d6cce76f91ee809e322dafc906200073690839062001236565b60405180910390a150565b600080826001600160a01b031663313ce5676040518163ffffffff1660e01b815260040160206040518083038186803b1580156200077e57600080fd5b505afa15801562000793573d6000803e3d6000fd5b505050506040513d601f19601f82011682018060405250810190620007b991906200107d565b60ff1690506000620007d8601283620009ac60201b62001b171760201c565b600a0a670de0b6b3a764000002925050505b919050565b81620006b457620006b481620009c4565b6200082f8160600151600013158015620008265750670de0b6b3a7640000826060015113155b610163620007ef565b6200085d8160400151600013158015620008265750670de0b6b3a764000082604001511315610163620007ef565b604080518082018252606083015181529082015160208201526000620008848280620009d6565b9050620008b4670de0b6b3a763fc188212801590620008ab5750670de0b6b3a76403e88213155b610164620007ef565b620008e68360800151600013158015620008dd57506a52b7d2dcc80cd2e4000000846080015113155b610168620007ef565b505050565b600281511015620008fc5762000972565b6000816000815181106200090c57fe5b602002602001015190506000600190505b8251811015620008e65760008382815181106200093657fe5b6020026020010151905062000967816001600160a01b0316846001600160a01b03161060656200097560201b60201c565b91506001016200091d565b50565b81620006b457620006b48162000a2d565b6000620009a58260568562000a8060201b62001b2d179092919060201c565b9392505050565b6000620009be83831115600162000975565b50900390565b62000972816223aca960e91b62000a95565b6000620009a5620009fe8360200151856020015162000af660201b62001b431790919060201c565b8351855162000a199162000af6602090811b62001b4317901c565b62000b3760201b62001b7f1790919060201c565b62461bcd60e51b6000908152602060045260076024526642414c23000030600a808404818106603090810160081b95839006959095019082900491820690940160101b939093010160c81b604452606490fd5b6001600160401b03811b1992909216911b1790565b62461bcd60e51b600090815260206004526007602452600a808404818106603090810160081b958390069590950190829004918206850160101b01602363ffffff0060e086901c160160181b0190930160c81b60445260e882901c90606490fd5b600082820283158062000b1257508284828162000b0f57fe5b05145b62000b255762000b256000600362000975565b670de0b6b3a764000090059392505050565b60008282018183121562000b4e5783811262000b53565b838112155b620009a557620009a560008062000975565b828054600181600116156101000203166002900490600052602060002090601f01602090048101928262000b9d576000855562000be8565b82601f1062000bb857805160ff191683800117855562000be8565b8280016001018555821562000be8579182015b8281111562000be857825182559160200191906001019062000bcb565b5062000bf692915062000bfa565b5090565b5b8082111562000bf6576000815560010162000bfb565b80516001600160a01b0381168114620007ea57600080fd5b600082601f83011262000c3a578081fd5b81516001600160401b0381111562000c4e57fe5b62000c63601f8201601f19166020016200123f565b81815284602083860101111562000c78578283fd5b62000c8b82602083016020870162001263565b949350505050565b60006060828403121562000ca5578081fd5b604051606081016001600160401b038111828210171562000cc257fe5b80604052508091508251801515811462000cdb57600080fd5b815260208301516001600160781b038116811462000cf857600080fd5b602082015260408301516001600160801b038116811462000d1857600080fd5b6040919091015292915050565b6000610120828403121562000d38578081fd5b60405160e081016001600160401b038111828210171562000d5557fe5b60405290508062000d67848462000f06565b815262000d78846040850162000f06565b60208201526080830151604082015260a0830151606082015260c0830151608082015260e083015160a082015261010083015160c08201525092915050565b600061012080838503121562000dcb578182fd5b62000dd6816200123f565b91505062000de48262000c11565b815260208201516001600160401b038082111562000e0157600080fd5b62000e0f8583860162000c29565b6020840152604084015191508082111562000e2957600080fd5b5062000e388482850162000c29565b60408301525062000e4c6060830162000c11565b606082015262000e5f6080830162000c11565b608082015260a082015160a082015260c082015160c082015260e082015160e082015261010062000e9281840162000c11565b9082015292915050565b600060a0828403121562000eae578081fd5b60405160a081016001600160401b038111828210171562000ecb57fe5b806040525080915082518152602083015160208201526040830151604082015260608301516060820152608083015160808201525092915050565b60006040828403121562000f18578081fd5b604080519081016001600160401b038111828210171562000f3557fe5b604052825181526020928301519281019290925250919050565b60006020828403121562000f61578081fd5b5051919050565b6000806040838503121562000f7b578081fd5b82516001600160401b038082111562000f92578283fd5b908401906102c0828703121562000fa7578283fd5b62000fb46101006200123f565b82518281111562000fc3578485fd5b62000fd18882860162000db7565b82525062000fe3876020850162000e9c565b602082015262000ff78760c0850162000d25565b60408201526200100b6101e0840162000c11565b60608201526200101f610200840162000c11565b608082015262001033610220840162000c11565b60a08201526200104887610240850162000c93565b60c08201526200105c6102a0840162000c11565b60e08201529350620010749150506020840162000c11565b90509250929050565b6000602082840312156200108f578081fd5b815160ff81168114620009a5578182fd5b80518252602090810151910152565b901515815260200190565b60006060820185835260206060818501528186518084526080860191508288019350845b81811015620011055784516001600160a01b031683529383019391830191600101620010de565b505084810360408601528551808252908201925081860190845b81811015620011465782516001600160a01b0316855293830193918301916001016200111f565b509298975050505050505050565b60208101600383106200116357fe5b91905290565b60006020825282518060208401526200118a81604085016020870162001263565b601f01601f19169190910160400192915050565b60006101c0820190508351825260208401516020830152604084015160408301526060840151606083015260808401516080830152620011e360a083018451620010a0565b6020830151620011f760e0840182620010a0565b5060408301516101208301526060830151610140830152608083015161016083015260a083015161018083015260c08301516101a08301529392505050565b90815260200190565b6040518181016001600160401b03811182821017156200125b57fe5b604052919050565b60005b838110156200128057818101518382015260200162001266565b8381111562001290576000848401525b50505050565b60805160a05160601c60c05160e05161010051610120516101405160601c61016051610180516101a0516101c05160601c6101e05160601c61020051610220516102405161026051610280516102a0516102c0516102e05161030051610320516103405161036051610380516103a0516103c0516103e0516104005161042051610440516104605160601c6104805160601c614bf06200144160003980610ad05280610bfa5280610c365280612a4f5280612a815280612bc9525080610b2b5280610b675280610fc4528061298252806129b45280612b7f5250806125975250806125bd5250806125e352508061260b52508061263052508061250452508061252952508061254c52508061257452508061243352508061245d5250806124875250806124b15250806124db525080612bec525080612ba252505080613bd5525080613bfc5250806113405280611387528061289952508061130052806113c7528061284d52508061082d525080611cf7525080611cd35250806111835250806117b1525080611e13525080611e55525080611e3452508061115f5250806110a45250614bf06000f3fe608060405234801561001057600080fd5b50600436106102bb5760003560e01c806374f3b0091161018257806395d89b41116100e9578063aaabadc5116100a2578063d505accf1161007c578063d505accf14610595578063d5c096c4146105a8578063dd62ed3e146105bb578063f89f27ed146105ce576102bb565b8063aaabadc51461057d578063abd13afe14610585578063c0ff1a151461058d576102bb565b806395d89b411461052c57806398d5fdca146105345780639b02cdde1461053c5780639d2c110c14610544578063a457c2d714610557578063a9059cbb1461056a576102bb565b80638456cb591161013b5780638456cb59146104e6578063851c1bb3146104ee578063876f303b1461050157806387ec681714610509578063893d20e81461051c5780638d928af814610524576102bb565b806374f3b0091461046e57806376e54a461461048f5780637be219a2146104a25780637ecebe00146104b85780638002df18146104cb578063828a7c34146104de576102bb565b80633aeae0d311610226578063623a2e75116101df578063623a2e751461042557806362ced0921461042d578063679aefce146104355780636d785a871461043d578063702ec0911461044557806370a082311461045b576102bb565b80633aeae0d3146103b05780633f4ba83a146103c557806344bbdb55146103cd5780634a6b0b15146103e257806355c67628146103fc5780636028bfd414610404576102bb565b806323b872dd1161027857806323b872dd14610352578063313ce567146103655780633644e5151461037a57806338e9922e1461038257806338fff2d014610395578063395093511461039d576102bb565b806306fdde03146102c0578063095ea7b3146102de5780630e608b30146102fe57806316c38b3c1461031357806318160ddd146103265780631c0de0511461033b575b600080fd5b6102c86105e3565b6040516102d59190614a03565b60405180910390f35b6102f16102ec3660046143fa565b610679565b6040516102d59190614996565b61031161030c3660046142d5565b610690565b005b610311610321366004614425565b610741565b61032e610755565b6040516102d591906149b9565b61034361075b565b6040516102d5939291906149a1565b6102f1610360366004614345565b610784565b61036d6107fa565b6040516102d59190614b4b565b61032e610803565b61031161039036600461470c565b610812565b61032e61082b565b6102f16103ab3660046143fa565b61084f565b6103b861088a565b6040516102d59190614a56565b6103116108d5565b6103d56109ca565b6040516102d5919061485a565b6103ea6109d9565b6040516102d5969594939291906149d9565b61032e610a34565b61041761041236600461443f565b610a41565b6040516102d5929190614b24565b61032e610a72565b6103d5610ace565b61032e610af2565b6103d5610b17565b61044d610b26565b6040516102d5929190614b3d565b61032e6104693660046142d5565b610ccb565b61048161047c36600461443f565b610cea565b6040516102d5929190614881565b61031161049d366004614596565b610d7a565b6104aa610ea1565b6040516102d5929190614ab6565b61032e6104c63660046142d5565b610ec1565b6103116104d93660046142d5565b610edc565b6103d5610fc2565b610311610fe6565b61032e6104fc36600461454b565b61109e565b61032e6110f7565b61041761051736600461443f565b611138565b6103d561115d565b6103d5611181565b6102c86111a5565b61032e611206565b61032e6112d1565b61032e610552366004614615565b6112d7565b6102f16105653660046143fa565b611676565b6102f16105783660046143fa565b6116b4565b6103d56116c1565b6103d56116cb565b61032e6116da565b6103116105a3366004614385565b611782565b6104816105b636600461443f565b6118f2565b61032e6105c936600461430d565b6119d7565b6105d6611a14565b6040516102d5919061486e565b60038054604080516020601f600260001961010060018816150201909516949094049384018190048102820181019092528281526060939092909183018282801561066f5780601f106106445761010080835404028352916020019161066f565b820191906000526020600020905b81548152906001019060200180831161065257829003601f168201915b5050505050905090565b6000610686338484611ba8565b5060015b92915050565b600b5460408051808201909152600e81526d1b9bdd08185d5d1a1bdc9a5e995960921b6020820152906001600160a01b031633146106ea5760405162461bcd60e51b81526004016106e19190614a03565b60405180910390fd5b50600b80546001600160a01b0319166001600160a01b0383161790556040517fb8fd9afc34c38fcd13b9a3b7646482eb1fddcefb40af2c70609972816eba32089061073690839061485a565b60405180910390a150565b610749611c0a565b61075281611c38565b50565b60025490565b6000806000610768611cb4565b159250610773611cd1565b915061077d611cf5565b9050909192565b60008061079185336119d7565b90506107b5336001600160a01b03871614806107ad5750838210155b61019e611d19565b6107c0858585611d27565b336001600160a01b038616148015906107db57506000198114155b156107ed576107ed8533858403611ba8565b60019150505b9392505050565b60055460ff1690565b600061080d611e0f565b905090565b61081a611c0a565b610822611ecd565b61075281611ee2565b7f000000000000000000000000000000000000000000000000000000000000000090565b3360008181526001602090815260408083206001600160a01b038716845290915281205490916106869185906108859086611f4b565b611ba8565b610892614194565b5060408051606081018252600a5460ff81161515825261010081046001600160781b03166020830152600160801b90046001600160801b03169181019190915290565b600c546040805180820190915260118152703737ba103830bab9b29036b0b730b3b2b960791b6020820152906001600160a01b031633146109945760405162461bcd60e51b81526004018080602001828103825283818151815260200191508051906020019080838360005b83811015610959578181015183820152602001610941565b50505050905090810190601f1680156109865780820380516001836020036101000a031916815260200191505b509250505060405180910390fd5b5061099f6000610749565b6040517f215385c8bfc731925ec8068d7baa50f6b6f34417cc7804f7273dc2c0b3db279090600090a1565b600d546001600160a01b031681565b600080600080600080600060085490506109f281611f5d565b96506109fd81611f69565b9550610a0881611f76565b9450610a1381611f83565b9350610a1e81611f90565b9250610a2981611f9d565b915050909192939495565b600061080d600854611f9d565b60006060610a5186516002611faa565b610a6689898989898989611fb76121256121a3565b97509795505050505050565b600080610a7d6116da565b90506000610a89610755565b9050600080610a9a600954856122b6565b50919350915060009050610ab882610ab2868661231f565b9061231f565b9050610ac48582612337565b9550505050505090565b7f000000000000000000000000000000000000000000000000000000000000000081565b600061080d610aff610755565b610b11610b0a6116da565b6002612391565b90612337565b600b546001600160a01b031681565b6000807f00000000000000000000000000000000000000000000000000000000000000006001600160a01b0316610b6557670de0b6b3a7640000610bf6565b7f00000000000000000000000000000000000000000000000000000000000000006001600160a01b031663679aefce6040518163ffffffff1660e01b815260040160206040518083038186803b158015610bbe57600080fd5b505afa158015610bd2573d6000803e3d6000fd5b505050506040513d601f19601f82011682018060405250810190610bf69190614724565b91507f00000000000000000000000000000000000000000000000000000000000000006001600160a01b0316610c3457670de0b6b3a7640000610cc5565b7f00000000000000000000000000000000000000000000000000000000000000006001600160a01b031663679aefce6040518163ffffffff1660e01b815260040160206040518083038186803b158015610c8d57600080fd5b505afa158015610ca1573d6000803e3d6000fd5b505050506040513d601f19601f82011682018060405250810190610cc59190614724565b90509091565b6001600160a01b0381166000908152602081905260409020545b919050565b60608088610d14610cf9611181565b6001600160a01b0316336001600160a01b03161460cd611d19565b610d29610d1f61082b565b82146101f4611d19565b610d32876123b5565b6000806000610d468d8d8d8d8d8d8d611fb7565b925092509250610d568c84612417565b610d5f82612125565b610d6881612125565b909c909b509950505050505050505050565b600b5460408051808201909152600e81526d1b9bdd08185d5d1a1bdc9a5e995960921b6020820152906001600160a01b03163314610dcb5760405162461bcd60e51b81526004016106e19190614a03565b50600a5460408051808201909152601081526f1c1bdbdb081a5cc81d5b98d85c1c195960821b60208201529060ff16610e175760405162461bcd60e51b81526004016106e19190614a03565b508051600a8054602084015160408086015160ff19909316941515949094176fffffffffffffffffffffffffffffff0019166101006001600160781b0390921691909102176001600160801b03908116600160801b919092160217815590517f2abf5970d7bc1a2b36eaae52dd2cc353edb0337c7284ef8a01973081b4e044249161073691614a8b565b610ea96141b4565b610eb16141e3565b610eb9612421565b915091509091565b6001600160a01b031660009081526006602052604090205490565b600c546040805180820190915260118152703737ba103830bab9b29036b0b730b3b2b960791b60208201526001600160a01b0390911690338214610f615760405162461bcd60e51b8152602060048201818152835160248401528351909283926044909101919085019080838360008315610959578181015183820152602001610941565b50600c80546001600160a01b0319166001600160a01b03848116918217909255604080519284168352602083019190915280517f1ffccd1fa96f4fb3415df8048a0fd107344e262d2d246c85105e2a3f8f3e81989281900390910190a15050565b7f000000000000000000000000000000000000000000000000000000000000000081565b600c546040805180820190915260118152703737ba103830bab9b29036b0b730b3b2b960791b6020820152906001600160a01b031633146110685760405162461bcd60e51b8152602060048201818152835160248401528351909283926044909101919085019080838360008315610959578181015183820152602001610941565b506110736001610749565b6040517f681eace576127d0553b224436a09801fb47d042942cbff59d7d4ff04d8fa03d790600090a1565b604080517f00000000000000000000000000000000000000000000000000000000000000006020808301919091526001600160e01b03198416828401528251602481840301815260449092019092528051910120919050565b600080611102610755565b905060008061111a6009546111156116da565b6122b6565b509193509150611130905081610ab2858561231f565b935050505090565b6000606061114886516002611faa565b610a66898989898989896126576127c66121a3565b7f000000000000000000000000000000000000000000000000000000000000000090565b7f000000000000000000000000000000000000000000000000000000000000000090565b60048054604080516020601f600260001961010060018816150201909516949094049384018190048102820181019092528281526060939092909183018282801561066f5780601f106106445761010080835404028352916020019161066f565b600080611211612828565b905060008061121e612421565b91509150600073__GyroECLPMath__________________________63d83ca8628585856040518463ffffffff1660e01b815260040161125f939291906148a6565b60206040518083038186803b15801561127757600080fd5b505af415801561128b573d6000803e3d6000fd5b505050506040513d601f19601f820116820180604052508101906112af9190614724565b90506112bd848285856128de565b94506112c88561297e565b94505050505090565b60095490565b60006112e1611ecd565b83608001516112f1610cf9611181565b6112fc610d1f61082b565b60007f00000000000000000000000000000000000000000000000000000000000000006001600160a01b031686602001516001600160a01b031614801561137857507f00000000000000000000000000000000000000000000000000000000000000006001600160a01b031686604001516001600160a01b0316145b1561138557506001611416565b7f00000000000000000000000000000000000000000000000000000000000000006001600160a01b031686602001516001600160a01b03161480156113ff57507f00000000000000000000000000000000000000000000000000000000000000006001600160a01b031686604001516001600160a01b0316145b1561140c57506000611416565b6114166079612b1e565b600061142182612b71565b9050600061142f8315612b71565b905061143b8783612c9e565b96506114478682612c9e565b95506000611456888886612caa565b9050600080611463612421565b9150915061146f61422c565b60008073__GyroECLPMath__________________________6378ace8578787876040518463ffffffff1660e01b81526004016114ad939291906148a6565b604080518083038186803b1580156114c457600080fd5b505af41580156114d8573d6000803e3d6000fd5b505050506040513d601f19601f820116820180604052508101906114fc9190614573565b6040805180820190915260029091028201815260208101919091529250600091506115249050565b8c51600181111561153157fe5b14156115dd57600061154f611544610a34565b60608f015190612d44565b905061157161156b828f60600151612d9990919063ffffffff16565b88612c9e565b60608e015260006115868e878b888888612daf565b90507f4e1d56f7310a8c32b2267f756b19ba65019b4890068ce114a25009abe54de5ba8684836040516115bb93929190614918565b60405180910390a16115cd8188612e52565b9a5050505050505050505061166e565b6115eb8c6060015186612c9e565b60608d015260006116008d868a878787612e5e565b90507f4e1d56f7310a8c32b2267f756b19ba65019b4890068ce114a25009abe54de5ba85838360405161163593929190614918565b60405180910390a16116478188612ea6565b905061166361165c611657610a34565b612eb2565b8290612ed8565b995050505050505050505b509392505050565b60008061168333856119d7565b905080831061169d5761169833856000611ba8565b6116aa565b6116aa3385858403611ba8565b5060019392505050565b6000610686338484611d27565b600061080d612f3e565b600c546001600160a01b031681565b6000806116e5612828565b90506000806116f2612421565b604051636c1e543160e11b8152919350915073__GyroECLPMath__________________________9063d83ca86290611732908690869086906004016148a6565b60206040518083038186803b15801561174a57600080fd5b505af415801561175e573d6000803e3d6000fd5b505050506040513d601f19601f820116820180604052508101906111309190614724565b6117908442111560d1611d19565b6001600160a01b0380881660008181526006602090815260408083205481517f00000000000000000000000000000000000000000000000000000000000000008185015280830195909552948b166060850152608084018a905260a0840185905260c08085018a90528151808603909101815260e0909401905282519201919091209061181c82612fb8565b9050600060018288888860405160008152602001604052604051808581526020018460ff1681526020018381526020018281526020019450505050506020604051602081039080840390855afa15801561187a573d6000803e3d6000fd5b5050604051601f19015191506118bc90506001600160a01b038216158015906118b457508b6001600160a01b0316826001600160a01b0316145b6101f8611d19565b6001600160a01b038b1660009081526006602052604090206001850190556118e58b8b8b611ba8565b5050505050505050505050565b60608088611901610cf9611181565b61190c610d1f61082b565b611914611ecd565b600061191e610755565b61198e5761192e8b8b8b88613004565b94509050611943620f424082101560cc611d19565b6119516000620f4240613194565b61196089620f42408303613194565b611969846127c6565b60408051600280825260608201835290916020830190803683370190505092506119c9565b611997886123b5565b6119a68b8b8b8b8b8b8b612657565b909550935090506119b78982613194565b6119c0846127c6565b6119c983612125565b505097509795505050505050565b60006119e1611181565b6001600160a01b0316826001600160a01b03161415611a03575060001961068a565b611a0d838361319e565b905061068a565b606061080d6131c9565b80611a2881613238565b5050565b611a588160600151600013158015611a505750670de0b6b3a7640000826060015113155b6101636132b1565b611a838160400151600013158015611a505750670de0b6b3a7640000826040015113156101636132b1565b604080518082018252606083015181529082015160208201526000611aa882806132bf565b9050611ad5670de0b6b3a763fc188212801590611acd5750670de0b6b3a76403e88213155b6101646132b1565b611b048360800151600013158015611afc57506a52b7d2dcc80cd2e4000000846080015113155b6101686132b1565b505050565b60006107f383836056611b2d565b6000611b27838311156001611d19565b50900390565b67ffffffffffffffff811b1992909216911b1790565b6000828202831580611b5d575082848281611b5a57fe5b05145b611b6d57611b6d60006003611d19565b670de0b6b3a764000090059392505050565b600082820181831215611b9457838112611b99565b838112155b6107f3576107f3600080611d19565b6001600160a01b03808416600081815260016020908152604080832094871680845294825291829020859055815185815291517f8c5be1e5ebec7d5bd14f71427d1e84f3dd0314c0f7b2291e5b200ac8c7c3b9259281900390910190a3505050565b6000611c216000356001600160e01b03191661109e565b9050610752611c3082336132f2565b610191611d19565b8015611c5857611c53611c49611cd1565b4210610193611d19565b611c6d565b611c6d611c63611cf5565b42106101a9611d19565b6007805482151560ff19909116811790915560408051918252517f9e3a5e37224532dea67b89face185703738a228a6e8a23dee546960180d3be649181900360200190a150565b6000611cbe611cf5565b42118061080d57505060075460ff161590565b7f000000000000000000000000000000000000000000000000000000000000000090565b7f000000000000000000000000000000000000000000000000000000000000000090565b81611a2857611a2881612b1e565b611d3e6001600160a01b0384161515610198611d19565b611d556001600160a01b0383161515610199611d19565b611d60838383611b04565b6001600160a01b038316600090815260208190526040902054611d8690826101a06133f4565b6001600160a01b038085166000908152602081905260408082209390935590841681522054611db59082611f4b565b6001600160a01b038084166000818152602081815260409182902094909455805185815290519193928716927fddf252ad1be2c89b69c2b068fc378daa952ba7f163c4a11628f55a4df523b3ef92918290030190a3505050565b60007f00000000000000000000000000000000000000000000000000000000000000007f00000000000000000000000000000000000000000000000000000000000000007f0000000000000000000000000000000000000000000000000000000000000000611e7c61340a565b3060405160200180868152602001858152602001848152602001838152602001826001600160a01b031681526020019550505050505060405160208183030381529060405280519060200120905090565b611ee0611ed8611cb4565b610192611d19565b565b611ef564e8d4a5100082101560cb611d19565b611f0b67016345785d8a000082111560ca611d19565b600854611f189082611b09565b6008556040517fa9ba3ffe0b6c366b81232caab38605a0699ad5398d6cce76f91ee809e322dafc906107369083906149b9565b60008282016107f38482101583611d19565b600061068a828261340e565b600061068a82601661340e565b600061068a82602c613435565b600061068a82604b61343f565b600061068a826055613447565b600061068a826056613451565b611a288183146067611d19565b6000606080600080611fc7612421565b91509150611fd3611cb4565b156120d857604051636c1e543160e11b815260009073__GyroECLPMath__________________________9063d83ca86290612016908d90879087906004016148a6565b60206040518083038186803b15801561202e57600080fd5b505af4158015612042573d6000803e3d6000fd5b505050506040513d601f19601f820116820180604052508101906120669190614724565b90506120718161345f565b61207b8a8861348c565b9096509450612094818761208d610755565b60006134d8565b60098190556040517fe1d39caf039c7dc6f364b1e29d1e67c4e330003a43f4991d50cf3e8840d95eac916120ca91849190614b3d565b60405180910390a1506120ee565b6120e2898761348c565b60001960095590955093505b6040805160028082526060820183528792879291906020830190803683370190505094509450945050509750975097945050505050565b61214c8160008151811061213557fe5b60200260200101516121476001612b71565b612337565b8160008151811061215957fe5b6020026020010181815250506121878160018151811061217557fe5b60200260200101516121476000612b71565b8160018151811061219457fe5b60200260200101818152505050565b333014612261576000306001600160a01b03166000366040516121c792919061484a565b6000604051808303816000865af19150503d8060008114612204576040519150601f19603f3d011682016040523d82523d6000602084013e612209565b606091505b50509050806000811461221857fe5b60046000803e6000516001600160e01b0319166343adbafb60e01b8114612243573d6000803e3d6000fd5b506020600460003e604060205260243d03602460403e601c3d016000f35b61226a866123b5565b6000806122808b8b8b8b8b8b8b8b63ffffffff16565b5091509150612292818463ffffffff16565b8051601f1982018390526343adbafb603f1983015260200260231982016044820181fd5b6000806000806000806000806122ca613530565b935093509350935083600014156122ef57600097508796509094509250612316915050565b6000806123068c8c6122ff610755565b89896136a2565b909a509850929650909450505050505b92959194509250565b6000828201838110156107f3576107f3600080611d19565b60008161234a5761234a60006004611d19565b826123575750600061068a565b670de0b6b3a76400008381029084828161236d57fe5b041461237f5761237f60006005611d19565b82818161238857fe5b04949350505050565b60008282026107f38415806123ae5750838583816123ab57fe5b04145b6003611d19565b6123dc816000815181106123c557fe5b60200260200101516123d76001612b71565b61373d565b816000815181106123e957fe5b6020026020010181815250506121878160018151811061240557fe5b60200260200101516123d76000612b71565b611a288282613776565b6124296141b4565b6124316141e3565b7f00000000000000000000000000000000000000000000000000000000000000006080808401919091527f00000000000000000000000000000000000000000000000000000000000000006060808501919091527f00000000000000000000000000000000000000000000000000000000000000006040808601919091527f00000000000000000000000000000000000000000000000000000000000000006020808701919091527f000000000000000000000000000000000000000000000000000000000000000086528451858201517f0000000000000000000000000000000000000000000000000000000000000000818401527f000000000000000000000000000000000000000000000000000000000000000090527f0000000000000000000000000000000000000000000000000000000000000000918101919091527f000000000000000000000000000000000000000000000000000000000000000090527f000000000000000000000000000000000000000000000000000000000000000060c08501527f000000000000000000000000000000000000000000000000000000000000000060a08501527f0000000000000000000000000000000000000000000000000000000000000000928401929092527f0000000000000000000000000000000000000000000000000000000000000000908301527f0000000000000000000000000000000000000000000000000000000000000000908201529091565b6000606080600080612667612421565b91509150600073__GyroECLPMath__________________________63d83ca8628b85856040518463ffffffff1660e01b81526004016126a8939291906148a6565b60206040518083038186803b1580156126c057600080fd5b505af41580156126d4573d6000803e3d6000fd5b505050506040513d601f19601f820116820180604052508101906126f89190614724565b90506127038161345f565b6000806127108c8a61382d565b600a54919350915060ff161561273a5761273a8261272d8f610ccb565b612735610755565b613867565b61274e8383612747610755565b60016134d8565b60098190556040517fe1d39caf039c7dc6f364b1e29d1e67c4e330003a43f4991d50cf3e8840d95eac9161278491869190614b3d565b60405180910390a16040805160028082526060820183528492849291906020830190803683370190505097509750975050505050509750975097945050505050565b6127ed816000815181106127d657fe5b60200260200101516127e86001612b71565b612ed8565b816000815181106127fa57fe5b6020026020010181815250506121878160018151811061281657fe5b60200260200101516127e86000612b71565b604080516002808252606080830184529260208301908036833701905050905061287b7f00000000000000000000000000000000000000000000000000000000000000006128766001612b71565b613979565b8160008151811061288857fe5b6020026020010181815250506128c27f00000000000000000000000000000000000000000000000000000000000000006128766000612b71565b816001815181106128cf57fe5b60200260200101818152505090565b600073__GyroECLPMath__________________________63c7fe78d086858561290689613a20565b6040518563ffffffff1660e01b815260040161292594939291906148d7565b60206040518083038186803b15801561293d57600080fd5b505af4158015612951573d6000803e3d6000fd5b505050506040513d601f19601f820116820180604052508101906129759190614724565b95945050505050565b60007f00000000000000000000000000000000000000000000000000000000000000006001600160a01b031615612a4d57612a4a7f00000000000000000000000000000000000000000000000000000000000000006001600160a01b031663679aefce6040518163ffffffff1660e01b815260040160206040518083038186803b158015612a0b57600080fd5b505afa158015612a1f573d6000803e3d6000fd5b505050506040513d601f19601f82011682018060405250810190612a439190614724565b839061373d565b91505b7f00000000000000000000000000000000000000000000000000000000000000006001600160a01b031615612b1a57612b177f00000000000000000000000000000000000000000000000000000000000000006001600160a01b031663679aefce6040518163ffffffff1660e01b815260040160206040518083038186803b158015612ad857600080fd5b505afa158015612aec573d6000803e3d6000fd5b505050506040513d601f19601f82011682018060405250810190612b109190614724565b8390612337565b91505b5090565b62461bcd60e51b6000908152602060045260076024526642414c23000030600a808404818106603090810160081b95839006959095019082900491820690940160101b939093010160c81b604452606490fd5b60008060008315612bc657507f000000000000000000000000000000000000000000000000000000000000000090507f0000000000000000000000000000000000000000000000000000000000000000612c0c565b507f000000000000000000000000000000000000000000000000000000000000000090507f00000000000000000000000000000000000000000000000000000000000000005b6001600160a01b038216156107f357612c96826001600160a01b031663679aefce6040518163ffffffff1660e01b815260040160206040518083038186803b158015612c5757600080fd5b505afa158015612c6b573d6000803e3d6000fd5b505050506040513d601f19601f82011682018060405250810190612c8f9190614724565b829061373d565b949350505050565b60006107f3838361373d565b60408051600280825260608083018452926020830190803683370190505090508115612d09578381600081518110612cde57fe5b6020026020010181815250508281600181518110612cf857fe5b6020026020010181815250506107f3565b8281600081518110612d1757fe5b6020026020010181815250508381600181518110612d3157fe5b6020026020010181815250509392505050565b6000828202831580612d5e575082848281612d5b57fe5b04145b612d6e57612d6e60006003611d19565b80612d7d57600091505061068a565b670de0b6b3a764000060001982015b0460010191505092915050565b600082821115611b2757611b2760006001611d19565b60608601516040516330ffa11b60e11b815260009173__GyroECLPMath__________________________916361ff423691612df7918a91908a908a908a908a90600401614948565b60206040518083038186803b158015612e0f57600080fd5b505af4158015612e23573d6000803e3d6000fd5b505050506040513d601f19601f82011682018060405250810190612e479190614724565b979650505050505050565b60006107f38383612337565b6060860151604051633b18ce7b60e21b815260009173__GyroECLPMath__________________________9163ec6339ec91612df7918a91908a908a908a908a90600401614948565b60006107f38383612ed8565b6000670de0b6b3a76400008210612eca57600061068a565b50670de0b6b3a76400000390565b600081612eeb57612eeb60006004611d19565b82612ef85750600061068a565b670de0b6b3a764000083810290848281612f0e57fe5b0414612f3257612f32670de0b6b3a7640000858381612f2957fe5b04146005611d19565b826001820381612d8c57fe5b6000612f48611181565b6001600160a01b031663aaabadc56040518163ffffffff1660e01b815260040160206040518083038186803b158015612f8057600080fd5b505afa158015612f94573d6000803e3d6000fd5b505050506040513d601f19601f8201168201806040525081019061080d91906142f1565b6000612fc2611e0f565b82604051602001808061190160f01b81525060020183815260200182815260200192505050604051602081830303815290604052805190602001209050919050565b60006060600061301384613a64565b905061302e600082600381111561302657fe5b1460ce611d19565b600061303985613a83565b905061304781516002611faa565b613050816123b5565b60008061305b612421565b91509150600073__GyroECLPMath__________________________63d83ca8628585856040518463ffffffff1660e01b815260040161309c939291906148a6565b60206040518083038186803b1580156130b457600080fd5b505af41580156130c8573d6000803e3d6000fd5b505050506040513d601f19601f820116820180604052508101906130ec9190614724565b90507faf65f1a72bf4f8bc48e8153858e1f7b307ce39c88361a677c0a79c2a1ae571ef8160405161311d91906149b9565b60405180910390a16000613133858386866128de565b9050600061317b613161838860008151811061314b57fe5b602002602001015161373d90919063ffffffff16565b8760018151811061316e57fe5b6020026020010151611f4b565b60099390935550909b939a509298505050505050505050565b611a288282613b37565b6001600160a01b03918216600090815260016020908152604080832093909416825291909152205490565b604080516002808252606080830184529260009291906020830190803683370190505090506131f86001613bcc565b8160008151811061320557fe5b60200260200101818152505061321b6000613bcc565b8160018151811061322857fe5b6020908102919091010152905090565b60028151101561324757610752565b60008160008151811061325657fe5b602002602001015190506000600190505b8251811015611b0457600083828151811061327e57fe5b602002602001015190506132a7816001600160a01b0316846001600160a01b0316106065611d19565b9150600101613267565b81611a2857611a2881613c20565b60006107f36132df83602001518560200151611b4390919063ffffffff16565b835185516132ec91611b43565b90611b7f565b600073ba1ba1ba1ba1ba1ba1ba1ba1ba1ba1ba1ba1ba1b61331161115d565b6001600160a01b03161415801561332c575061332c83613c30565b156133545761333961115d565b6001600160a01b0316336001600160a01b031614905061068a565b61335c612f3e565b6001600160a01b0316639be2a8848484306040518463ffffffff1660e01b815260040180848152602001836001600160a01b03168152602001826001600160a01b03168152602001935050505060206040518083038186803b1580156133c157600080fd5b505afa1580156133d5573d6000803e3d6000fd5b505050506040513d60208110156133eb57600080fd5b5051905061068a565b60006134038484111583611d19565b5050900390565b4690565b600082821c623fffff16621fffff81136134285780612c96565b623fffff19179392505050565b1c637fffffff1690565b1c6103ff1690565b1c60019081161490565b1c67ffffffffffffffff1690565b600080600080613471600954866122b6565b935093509350935061348584848484613c62565b5050505050565b60006060600061349b84613a64565b905060018160038111156134ab57fe5b14156134c5576134bb8585613c88565b90935091506134d0565b6134d0610150612b1e565b509250929050565b6000811561350a5760006134f6846134f08888612d44565b90612ed8565b9050613502868261231f565b915050612c96565b600061351a84610b11888861373d565b90506135268682612d99565b9695505050505050565b600d54600090819081908190613557906001600160a01b03163063045434c560e41b613cba565b600d54613575906001600160a01b03163063045434c560e41b613ce1565b600d546040516321f8a72160e01b81526001600160a01b03909116906321f8a721906135b5906c4759524f5f545245415355525960981b906004016149b9565b60206040518083038186803b1580156135cd57600080fd5b505afa1580156135e1573d6000803e3d6000fd5b505050506040513d601f19601f8201168201806040525081019061360591906142f1565b600d546040516321f8a72160e01b81526001600160a01b03909116906321f8a72190613644906b42414c5f545245415355525960a01b906004016149b9565b60206040518083038186803b15801561365c57600080fd5b505afa158015613670573d6000803e3d6000fd5b505050506040513d601f19601f8201168201806040525081019061369491906142f1565b935093509350935090919293565b6000808686116136b757506000905080613733565b60006136d7856136d16136ca8a8c612d99565b899061373d565b9061373d565b905060006136ef6136e8898b612d99565b879061373d565b905060006136fd8983612d99565b9050600061370b8483612337565b90506000613719888361373d565b905060006137278383612d99565b91975090955050505050505b9550959350505050565b600082820283158061375757508284828161375457fe5b04145b6137675761376760006003611d19565b670de0b6b3a764000081612388565b61378d6001600160a01b038316151561019b611d19565b61379982600083611b04565b6001600160a01b0382166000908152602081905260409020546137bf90826101a16133f4565b6001600160a01b0383166000908152602081905260409020556002546137e59082613d0f565b6002556040805182815290516000916001600160a01b038516917fddf252ad1be2c89b69c2b068fc378daa952ba7f163c4a11628f55a4df523b3ef9181900360200190a35050565b60006060600061383c84613a64565b9050600381600381111561384c57fe5b141561385c576134bb8585613d1d565b6134d0610136612b1e565b60408051606081018252600a5460ff81161515825261010081046001600160781b031660208301819052600160801b9091046001600160801b031692820192909252906138b4858561231f565b11156040518060400160405280601a81526020017f6f7665722061646472657373206c6971756964697479206361700000000000008152509061390a5760405162461bcd60e51b81526004016106e19190614a03565b5060408101516001600160801b0316613923858461231f565b11156040518060400160405280601981526020017f6f76657220676c6f62616c206c69717569646974792063617000000000000000815250906134855760405162461bcd60e51b81526004016106e19190614a03565b6000806000613986611181565b6001600160a01b031663b05f8e4861399c61082b565b876040518363ffffffff1660e01b81526004016139ba9291906149c2565b60806040518083038186803b1580156139d257600080fd5b505afa1580156139e6573d6000803e3d6000fd5b505050506040513d601f19601f82011682018060405250810190613a0a919061473c565b505081810194509092509050612975838561373d565b6000600160ff1b8210612b1a5760405162461bcd60e51b8152600401808060200182810382526028815260200180614b936028913960400191505060405180910390fd5b6000818060200190516020811015613a7b57600080fd5b505192915050565b6060818060200190516040811015613a9a57600080fd5b815160208301805160405192949293830192919084640100000000821115613ac157600080fd5b908301906020820185811115613ad657600080fd5b8251866020820283011164010000000082111715613af357600080fd5b82525081516020918201928201910280838360005b83811015613b20578181015183820152602001613b08565b505050509190910160405250929695505050505050565b613b4360008383611b04565b600254613b509082611f4b565b6002556001600160a01b038216600090815260208190526040902054613b769082611f4b565b6001600160a01b0383166000818152602081815260408083209490945583518581529351929391927fddf252ad1be2c89b69c2b068fc378daa952ba7f163c4a11628f55a4df523b3ef9281900390910190a35050565b600081613bf9577f000000000000000000000000000000000000000000000000000000000000000061068a565b507f0000000000000000000000000000000000000000000000000000000000000000919050565b610752816223aca960e91b613d42565b6000613c42631c74c91760e11b61109e565b82148061068a5750613c5a6350dd6ed960e01b61109e565b909114919050565b8315613c7257613c728285613194565b8215613c8257613c828184613194565b50505050565b600060606000613c9784613da3565b90506000613cad8683613ca8610755565b613dc5565b9196919550909350505050565b6000612c96847550524f544f434f4c5f535741505f4645455f5045524360501b8486613e4b565b6000612c96847f50524f544f434f4c5f4645455f4759524f5f504f5254494f4e000000000000008486613e4b565b60006107f3838360016133f4565b600060606000613d2c84613da3565b90506000613cad8683613d3d610755565b6140f8565b62461bcd60e51b600090815260206004526007602452600a808404818106603090810160081b958390069590950190829004918206850160101b01602363ffffff0060e086901c160160181b0190930160c81b60445260e882901c90606490fd5b6000818060200190516040811015613dba57600080fd5b506020015192915050565b6060835167ffffffffffffffff81118015613ddf57600080fd5b50604051908082528060200260200182016040528015613e09578160200160208202803683370190505b50905060005b845181101561166e57613e2c83610b118688858151811061314b57fe5b828281518110613e3857fe5b6020908102919091010152600101613e0f565b6040805160208082018690526001600160a01b03808516838501528351808403850181526060840180865281519184019190912063696eb37560e01b909152606484018190529351600094939189169263696eb3759260848082019391829003018186803b158015613ebc57600080fd5b505afa158015613ed0573d6000803e3d6000fd5b505050506040513d6020811015613ee657600080fd5b505115613f6657856001600160a01b031663bd02d0f5826040518263ffffffff1660e01b81526004018082815260200191505060206040518083038186803b158015613f3157600080fd5b505afa158015613f45573d6000803e3d6000fd5b505050506040513d6020811015613f5b57600080fd5b50519150612c969050565b6040805160208082018890528183018790528251808303840181526060830180855281519183019190912063696eb37560e01b9091526064830181905292516001600160a01b038a169263696eb375926084808301939192829003018186803b158015613fd257600080fd5b505afa158015613fe6573d6000803e3d6000fd5b505050506040513d6020811015613ffc57600080fd5b50511561407d57866001600160a01b031663bd02d0f5826040518263ffffffff1660e01b81526004018082815260200191505060206040518083038186803b15801561404757600080fd5b505afa15801561405b573d6000803e3d6000fd5b505050506040513d602081101561407157600080fd5b50519250612c96915050565b866001600160a01b031663bd02d0f5876040518263ffffffff1660e01b81526004018082815260200191505060206040518083038186803b1580156140c157600080fd5b505afa1580156140d5573d6000803e3d6000fd5b505050506040513d60208110156140eb57600080fd5b5051979650505050505050565b6060835167ffffffffffffffff8111801561411257600080fd5b5060405190808252806020026020018201604052801561413c578160200160208202803683370190505b50905060005b845181101561166e57614175836134f08688858151811061415f57fe5b6020026020010151612d4490919063ffffffff16565b82828151811061418157fe5b6020908102919091010152600101614142565b604080516060810182526000808252602082018190529181019190915290565b6040518060a0016040528060008152602001600081526020016000815260200160008152602001600081525090565b6040518060e001604052806141f661422c565b815260200161420361422c565b815260200160008152602001600081526020016000815260200160008152602001600081525090565b604051806040016040528060008152602001600081525090565b8035610ce581614b7d565b80358015158114610ce557600080fd5b600082601f830112614271578081fd5b813567ffffffffffffffff81111561428557fe5b614298601f8201601f1916602001614b59565b8181528460208386010111156142ac578283fd5b816020850160208301379081016020019190915292915050565b803560028110610ce557600080fd5b6000602082840312156142e6578081fd5b81356107f381614b7d565b600060208284031215614302578081fd5b81516107f381614b7d565b6000806040838503121561431f578081fd5b823561432a81614b7d565b9150602083013561433a81614b7d565b809150509250929050565b600080600060608486031215614359578081fd5b833561436481614b7d565b9250602084013561437481614b7d565b929592945050506040919091013590565b600080600080600080600060e0888a03121561439f578283fd5b87356143aa81614b7d565b965060208801356143ba81614b7d565b95506040880135945060608801359350608088013560ff811681146143dd578384fd5b9699959850939692959460a0840135945060c09093013592915050565b6000806040838503121561440c578182fd5b823561441781614b7d565b946020939093013593505050565b600060208284031215614436578081fd5b6107f382614251565b600080600080600080600060e0888a031215614459578081fd5b87359650602088013561446b81614b7d565b9550604088013561447b81614b7d565b9450606088013567ffffffffffffffff80821115614497578283fd5b818a0191508a601f8301126144aa578283fd5b8135818111156144b657fe5b602081026144c660208201614b59565b80838252602082019150602086018f60208589010111156144e5578788fd5b8796505b84871015614508578035835260019690960195602092830192016144e9565b50985050505060808a0135945060a08a0135935060c08a013591508082111561452f578283fd5b5061453c8a828b01614261565b91505092959891949750929550565b60006020828403121561455c578081fd5b81356001600160e01b0319811681146107f3578182fd5b60008060408385031215614585578182fd5b505080516020909101519092909150565b6000606082840312156145a7578081fd5b6040516060810181811067ffffffffffffffff821117156145c457fe5b6040526145d083614251565b815260208301356001600160781b03811681146145eb578283fd5b602082015260408301356001600160801b0381168114614609578283fd5b60408201529392505050565b600080600060608486031215614629578081fd5b833567ffffffffffffffff80821115614640578283fd5b8186019150610120808389031215614656578384fd5b61465f81614b59565b905061466a836142c6565b815261467860208401614246565b602082015261468960408401614246565b6040820152606083013560608201526080830135608082015260a083013560a08201526146b860c08401614246565b60c08201526146c960e08401614246565b60e082015261010080840135838111156146e1578586fd5b6146ed8a828701614261565b9183019190915250976020870135975060409096013595945050505050565b60006020828403121561471d578081fd5b5035919050565b600060208284031215614735578081fd5b5051919050565b60008060008060808587031215614751578182fd5b845193506020850151925060408501519150606085015161477181614b7d565b939692955090935050565b6000815180845260208085019450808401835b838110156147ab5781518752958201959082019060010161478f565b509495945050505050565b6147c182825161483b565b60208101516147d3604084018261483b565b5060408101516080830152606081015160a0830152608081015160c083015260a081015160e083015260c08101516101008301525050565b80518252602081015160208301526040810151604083015260608101516060830152608081015160808301525050565b80518252602090810151910152565b6000828483379101908152919050565b6001600160a01b0391909116815260200190565b6000602082526107f3602083018461477c565b600060408252614894604083018561477c565b8281036020840152612975818561477c565b60006101e08083526148ba8184018761477c565b9150506148ca602083018561480b565b612c9660c08301846147b6565b60006102008083526148eb8184018861477c565b9150506148fb602083018661480b565b61490860c08301856147b6565b826101e083015295945050505050565b60006080825261492b608083018661477c565b905061493a602083018561483b565b826060830152949350505050565b600061026080835261495c8184018a61477c565b915050866020830152851515604083015261497a606083018661480b565b6149886101008301856147b6565b612e4761022083018461483b565b901515815260200190565b92151583526020830191909152604082015260600190565b90815260200190565b9182526001600160a01b0316602082015260400190565b9586526020860194909452604085019290925260608401521515608083015260a082015260c00190565b6000602080835283518082850152825b81811015614a2f57858101830151858201604001528201614a13565b81811115614a405783604083870101525b50601f01601f1916929092016040019392505050565b8151151581526020808301516001600160781b0316908201526040918201516001600160801b03169181019190915260600190565b905460ff811615158252600881901c6001600160781b0316602083015260801c604082015260600190565b6101c08101614ac5828561480b565b614ad360a08301845161483b565b6020830151614ae560e084018261483b565b5060408301516101208301526060830151610140830152608083015161016083015260a083015161018083015260c08301516101a08301529392505050565b600083825260406020830152612c96604083018461477c565b918252602082015260400190565b60ff91909116815260200190565b60405181810167ffffffffffffffff81118282101715614b7557fe5b604052919050565b6001600160a01b038116811461075257600080fdfe53616665436173743a2076616c756520646f65736e27742066697420696e20616e20696e74323536a26469706673582212206cadf7048274a3e71b09cc3301f5e446650d2512bccea56174f895018ab3fa5a64736f6c63430007060033","bytecodeSha1":"2ff5d362c810febbe2bb5ee187248d60c9738de6","compiler":{"evm_version":"berlin","optimizer":{"enabled":true,"runs":200},"version":"0.7.6+commit.7338295f"},"contractName":"GyroECLPPoolFactory","language":"Solidity","natspec":{"kind":"dev","methods":{"create(string,string,address[],(int256,int256,int256,int256,int256),((int256,int256),(int256,int256),int256,int256,int256,int256,int256),address[],uint256,address,address,(bool,uint120,uint128),address,(uint256,uint256))":{"details":"Deploys a new `GyroECLPPool`."},"getCreationCode()":{"details":"Returns the creation code of the contract this factory creates."},"getCreationCodeContracts()":{"details":"Returns the two addresses where the creation code of the contract crated by this factory is stored."},"getPauseConfiguration()":{"details":"Returns the current `TemporarilyPausable` configuration that will be applied to Pools created by this factory. `pauseWindowDuration` will decrease over time until it reaches zero, at which point both it and `bufferPeriodDuration` will be zero forever, meaning deployed Pools will not be pausable."},"getVault()":{"details":"Returns the Vault's address."},"isPoolFromFactory(address)":{"details":"Returns true if `pool` was created by this factory."}},"version":1},"opcodes":"PUSH1 0x80 PUSH1 0x40 MSTORE CALLVALUE DUP1 ISZERO PUSH2 0x10 JUMPI PUSH1 0x0 DUP1 REVERT JUMPDEST POP PUSH1 0x4 CALLDATASIZE LT PUSH2 0x92 JUMPI PUSH1 0x0 CALLDATALOAD PUSH1 0xE0 SHR DUP1 PUSH4 0x45BE0BD4 GT PUSH2 0x66 JUMPI DUP1 PUSH4 0x45BE0BD4 EQ PUSH2 0xF6 JUMPI DUP1 PUSH4 0x6634B753 EQ PUSH2 0x10B JUMPI DUP1 PUSH4 0x8D928AF8 EQ PUSH2 0x12B JUMPI DUP1 PUSH4 0xD1464686 EQ PUSH2 0x133 JUMPI DUP1 PUSH4 0xF680D973 EQ PUSH2 0x13B JUMPI PUSH2 0x92 JUMP JUMPDEST DUP1 PUSH3 0xC194DB EQ PUSH2 0x97 JUMPI DUP1 PUSH4 0xBC7B4C4 EQ PUSH2 0xB5 JUMPI DUP1 PUSH4 0x174481FA EQ PUSH2 0xCA JUMPI DUP1 PUSH4 0x2DA47C40 EQ PUSH2 0xE0 JUMPI JUMPDEST PUSH1 0x0 DUP1 REVERT JUMPDEST PUSH2 0x9F PUSH2 0x14E JUMP JUMPDEST PUSH1 0x40 MLOAD PUSH2 0xAC SWAP2 SWAP1 PUSH2 0xD85 JUMP JUMPDEST PUSH1 0x40 MLOAD DUP1 SWAP2 SUB SWAP1 RETURN JUMPDEST PUSH2 0xBD PUSH2 0x16D JUMP JUMPDEST PUSH1 0x40 MLOAD PUSH2 0xAC SWAP2 SWAP1 PUSH2 0xD4C JUMP JUMPDEST PUSH2 0xD2 PUSH2 0x191 JUMP JUMPDEST PUSH1 0x40 MLOAD PUSH2 0xAC SWAP3 SWAP2 SWAP1 PUSH2 0xD60 JUMP JUMPDEST PUSH2 0xE8 PUSH2 0x1D7 JUMP JUMPDEST PUSH1 0x40 MLOAD PUSH2 0xAC SWAP3 SWAP2 SWAP1 PUSH2 0xE5B JUMP JUMPDEST PUSH2 0xFE PUSH2 0x241 JUMP JUMPDEST PUSH1 0x40 MLOAD PUSH2 0xAC SWAP2 SWAP1 PUSH2 0xE52 JUMP JUMPDEST PUSH2 0x11E PUSH2 0x119 CALLDATASIZE PUSH1 0x4 PUSH2 0xA28 JUMP JUMPDEST PUSH2 0x248 JUMP JUMPDEST PUSH1 0x40 MLOAD PUSH2 0xAC SWAP2 SWAP1 PUSH2 0xD7A JUMP JUMPDEST PUSH2 0xBD PUSH2 0x26A JUMP JUMPDEST PUSH2 0xFE PUSH2 0x28E JUMP JUMPDEST PUSH2 0xBD PUSH2 0x149 CALLDATASIZE PUSH1 0x4 PUSH2 0xA44 JUMP JUMPDEST PUSH2 0x295 JUMP JUMPDEST PUSH1 0x60 PUSH2 0x168 PUSH1 0x40 MLOAD DUP1 PUSH1 0x20 ADD PUSH1 0x40 MSTORE DUP1 PUSH1 0x0 DUP2 MSTORE POP PUSH2 0x3E1 JUMP JUMPDEST SWAP1 POP SWAP1 JUMP JUMPDEST PUSH32 0x0 DUP2 JUMP JUMPDEST PUSH32 0x0 PUSH32 0x0 SWAP1 SWAP2 JUMP JUMPDEST PUSH1 0x0 DUP1 TIMESTAMP PUSH32 0x0 DUP2 LT ISZERO PUSH2 0x233 JUMPI DUP1 PUSH32 0x0 SUB SWAP3 POP PUSH3 0x278D00 SWAP2 POP PUSH2 0x23C JUMP JUMPDEST PUSH1 0x0 SWAP3 POP PUSH1 0x0 SWAP2 POP JUMPDEST POP SWAP1 SWAP2 JUMP JUMPDEST PUSH3 0x76A700 DUP2 JUMP JUMPDEST PUSH1 0x1 PUSH1 0x1 PUSH1 0xA0 SHL SUB DUP2 AND PUSH1 0x0 SWAP1 DUP2 MSTORE PUSH1 0x20 DUP2 SWAP1 MSTORE PUSH1 0x40 SWAP1 KECCAK256 SLOAD PUSH1 0xFF AND JUMPDEST SWAP2 SWAP1 POP JUMP JUMPDEST PUSH32 0x0 SWAP1 JUMP JUMPDEST PUSH3 0x278D00 DUP2 JUMP JUMPDEST PUSH1 0x0 DUP1 PUSH2 0x2A6 DUP15 DUP15 DUP15 DUP12 DUP12 DUP9 PUSH2 0x4BA JUMP JUMPDEST SWAP1 POP PUSH1 0x0 PUSH1 0x40 MLOAD DUP1 PUSH2 0x100 ADD PUSH1 0x40 MSTORE DUP1 DUP4 DUP2 MSTORE PUSH1 0x20 ADD DUP14 DUP2 MSTORE PUSH1 0x20 ADD DUP13 DUP2 MSTORE PUSH1 0x20 ADD DUP12 PUSH1 0x0 DUP2 MLOAD DUP2 LT PUSH2 0x2D5 JUMPI INVALID JUMPDEST PUSH1 0x20 MUL PUSH1 0x20 ADD ADD MLOAD PUSH1 0x1 PUSH1 0x1 PUSH1 0xA0 SHL SUB AND DUP2 MSTORE PUSH1 0x20 ADD DUP12 PUSH1 0x1 DUP2 MLOAD DUP2 LT PUSH2 0x2F8 JUMPI INVALID JUMPDEST PUSH1 0x20 MUL PUSH1 0x20 ADD ADD MLOAD PUSH1 0x1 PUSH1 0x1 PUSH1 0xA0 SHL SUB AND DUP2 MSTORE PUSH1 0x20 ADD DUP9 PUSH1 0x1 PUSH1 0x1 PUSH1 0xA0 SHL SUB AND DUP2 MSTORE PUSH1 0x20 ADD DUP8 DUP2 MSTORE PUSH1 0x20 ADD DUP7 PUSH1 0x1 PUSH1 0x1 PUSH1 0xA0 SHL SUB AND DUP2 MSTORE POP SWAP1 POP PUSH2 0x37C DUP2 PUSH32 0x0 PUSH1 0x40 MLOAD PUSH1 0x20 ADD PUSH2 0x368 SWAP3 SWAP2 SWAP1 PUSH2 0xD98 JUMP JUMPDEST PUSH1 0x40 MLOAD PUSH1 0x20 DUP2 DUP4 SUB SUB DUP2 MSTORE SWAP1 PUSH1 0x40 MSTORE PUSH2 0x569 JUMP JUMPDEST SWAP16 SWAP15 POP POP POP POP POP POP POP POP POP POP POP POP POP POP POP JUMP JUMPDEST DUP1 MLOAD PUSH32 0x602038038060206000396000F3FEFEFEFEFEFEFEFEFEFEFEFEFEFEFEFEFEFEFE DUP1 DUP4 MSTORE PUSH1 0x0 SWAP2 PUSH1 0x20 DUP2 ADD DUP5 DUP5 CREATE SWAP1 DUP5 MSTORE SWAP2 POP PUSH2 0x3DB PUSH1 0x1 PUSH1 0x1 PUSH1 0xA0 SHL SUB DUP4 AND ISZERO ISZERO PUSH2 0x1AC PUSH2 0x5C9 JUMP JUMPDEST POP SWAP2 SWAP1 POP JUMP JUMPDEST DUP1 MLOAD PUSH1 0x40 DUP1 MLOAD PUSH32 0x0 PUSH32 0x0 DUP2 DUP2 ADD DUP6 DUP2 ADD DUP5 DUP2 ADD PUSH1 0x20 SWAP1 DUP2 ADD SWAP1 SWAP7 MSTORE DUP1 DUP6 MSTORE SWAP4 SWAP6 PUSH32 0x0 SWAP6 SWAP3 SWAP5 PUSH32 0x0 SWAP5 SWAP4 DUP9 ADD DUP7 PUSH1 0x0 DUP3 DUP11 EXTCODECOPY DUP5 PUSH1 0x0 DUP9 DUP4 ADD DUP9 EXTCODECOPY POP PUSH1 0x20 DUP10 DUP2 ADD SWAP1 DUP10 DUP6 ADD ADD PUSH2 0x4AC DUP2 DUP4 DUP7 PUSH2 0x5DB JUMP JUMPDEST POP POP POP POP POP POP POP POP POP SWAP2 SWAP1 POP JUMP JUMPDEST PUSH2 0x4C2 PUSH2 0x6A6 JUMP JUMPDEST PUSH1 0x40 MLOAD DUP1 PUSH2 0x120 ADD PUSH1 0x40 MSTORE DUP1 PUSH2 0x4D6 PUSH2 0x26A JUMP JUMPDEST PUSH1 0x1 PUSH1 0x1 PUSH1 0xA0 SHL SUB AND DUP2 MSTORE PUSH1 0x20 ADD DUP9 DUP2 MSTORE PUSH1 0x20 ADD DUP8 DUP2 MSTORE PUSH1 0x20 ADD DUP7 PUSH1 0x0 DUP2 MLOAD DUP2 LT PUSH2 0x4FD JUMPI INVALID JUMPDEST PUSH1 0x20 MUL PUSH1 0x20 ADD ADD MLOAD PUSH1 0x1 PUSH1 0x1 PUSH1 0xA0 SHL SUB AND DUP2 MSTORE PUSH1 0x20 ADD DUP7 PUSH1 0x1 DUP2 MLOAD DUP2 LT PUSH2 0x520 JUMPI INVALID JUMPDEST PUSH1 0x20 MUL PUSH1 0x20 ADD ADD MLOAD PUSH1 0x1 PUSH1 0x1 PUSH1 0xA0 SHL SUB AND DUP2 MSTORE PUSH1 0x20 ADD DUP6 DUP2 MSTORE PUSH1 0x20 ADD DUP4 PUSH1 0x0 ADD MLOAD DUP2 MSTORE PUSH1 0x20 ADD DUP4 PUSH1 0x20 ADD MLOAD DUP2 MSTORE PUSH1 0x20 ADD DUP5 PUSH1 0x1 PUSH1 0x1 PUSH1 0xA0 SHL SUB AND DUP2 MSTORE POP SWAP1 POP SWAP7 SWAP6 POP POP POP POP POP POP JUMP JUMPDEST PUSH1 0x0 DUP1 PUSH2 0x575 DUP4 PUSH2 0x619 JUMP JUMPDEST PUSH1 0x1 PUSH1 0x1 PUSH1 0xA0 SHL SUB DUP2 AND PUSH1 0x0 DUP2 DUP2 MSTORE PUSH1 0x20 DUP2 SWAP1 MSTORE PUSH1 0x40 DUP1 DUP3 KECCAK256 DUP1 SLOAD PUSH1 0xFF NOT AND PUSH1 0x1 OR SWAP1 SSTORE MLOAD SWAP3 SWAP4 POP SWAP1 SWAP2 PUSH32 0x83A48FBCFC991335314E74D0496AAB6A1987E992DDC85DDDBCC4D6DD6EF2E9FC SWAP2 SWAP1 LOG2 SWAP3 SWAP2 POP POP JUMP JUMPDEST DUP2 PUSH2 0x5D7 JUMPI PUSH2 0x5D7 DUP2 PUSH2 0x653 JUMP JUMPDEST POP POP JUMP JUMPDEST JUMPDEST PUSH1 0x20 DUP2 LT PUSH2 0x5FB JUMPI DUP2 MLOAD DUP4 MSTORE PUSH1 0x20 SWAP3 DUP4 ADD SWAP3 SWAP1 SWAP2 ADD SWAP1 PUSH1 0x1F NOT ADD PUSH2 0x5DC JUMP JUMPDEST SWAP1 MLOAD DUP3 MLOAD PUSH1 0x20 SWAP3 SWAP1 SWAP3 SUB PUSH2 0x100 EXP PUSH1 0x0 NOT ADD DUP1 NOT SWAP1 SWAP2 AND SWAP2 AND OR SWAP1 MSTORE JUMP JUMPDEST PUSH1 0x0 DUP1 PUSH2 0x625 DUP4 PUSH2 0x3E1 JUMP JUMPDEST SWAP1 POP PUSH1 0x0 DUP2 MLOAD PUSH1 0x20 DUP4 ADD PUSH1 0x0 CREATE SWAP1 POP PUSH1 0x1 PUSH1 0x1 PUSH1 0xA0 SHL SUB DUP2 AND PUSH2 0x64C JUMPI RETURNDATASIZE PUSH1 0x0 DUP1 RETURNDATACOPY RETURNDATASIZE PUSH1 0x0 REVERT JUMPDEST SWAP4 SWAP3 POP POP POP JUMP JUMPDEST PUSH3 0x461BCD PUSH1 0xE5 SHL PUSH1 0x0 SWAP1 DUP2 MSTORE PUSH1 0x20 PUSH1 0x4 MSTORE PUSH1 0x7 PUSH1 0x24 MSTORE PUSH7 0x42414C23000030 PUSH1 0xA DUP1 DUP5 DIV DUP2 DUP2 MOD PUSH1 0x30 SWAP1 DUP2 ADD PUSH1 0x8 SHL SWAP6 DUP4 SWAP1 MOD SWAP6 SWAP1 SWAP6 ADD SWAP1 DUP3 SWAP1 DIV SWAP2 DUP3 MOD SWAP1 SWAP5 ADD PUSH1 0x10 SHL SWAP4 SWAP1 SWAP4 ADD ADD PUSH1 0xC8 SHL PUSH1 0x44 MSTORE PUSH1 0x64 SWAP1 REVERT JUMPDEST PUSH1 0x40 MLOAD DUP1 PUSH2 0x120 ADD PUSH1 0x40 MSTORE DUP1 PUSH1 0x0 PUSH1 0x1 PUSH1 0x1 PUSH1 0xA0 SHL SUB AND DUP2 MSTORE PUSH1 0x20 ADD PUSH1 0x60 DUP2 MSTORE PUSH1 0x20 ADD PUSH1 0x60 DUP2 MSTORE PUSH1 0x20 ADD PUSH1 0x0 PUSH1 0x1 PUSH1 0x1 PUSH1 0xA0 SHL SUB AND DUP2 MSTORE PUSH1 0x20 ADD PUSH1 0x0 PUSH1 0x1 PUSH1 0x1 PUSH1 0xA0 SHL SUB AND DUP2 MSTORE PUSH1 0x20 ADD PUSH1 0x0 DUP2 MSTORE PUSH1 0x20 ADD PUSH1 0x0 DUP2 MSTORE PUSH1 0x20 ADD PUSH1 0x0 DUP2 MSTORE PUSH1 0x20 ADD PUSH1 0x0 PUSH1 0x1 PUSH1 0x1 PUSH1 0xA0 SHL SUB AND DUP2 MSTORE POP SWAP1 JUMP JUMPDEST DUP1 CALLDATALOAD PUSH2 0x265 DUP2 PUSH2 0xEAB JUMP JUMPDEST PUSH1 0x0 DUP3 PUSH1 0x1F DUP4 ADD SLT PUSH2 0x731 JUMPI DUP1 DUP2 REVERT JUMPDEST DUP2 CALLDATALOAD PUSH1 0x20 PUSH2 0x746 PUSH2 0x741 DUP4 PUSH2 0xE8D JUMP JUMPDEST PUSH2 0xE69 JUMP JUMPDEST DUP3 DUP2 MSTORE DUP2 DUP2 ADD SWAP1 DUP6 DUP4 ADD DUP4 DUP6 MUL DUP8 ADD DUP5 ADD DUP9 LT ISZERO PUSH2 0x762 JUMPI DUP6 DUP7 REVERT JUMPDEST DUP6 JUMPDEST DUP6 DUP2 LT ISZERO PUSH2 0x789 JUMPI DUP2 CALLDATALOAD PUSH2 0x777 DUP2 PUSH2 0xEAB JUMP JUMPDEST DUP5 MSTORE SWAP3 DUP5 ADD SWAP3 SWAP1 DUP5 ADD SWAP1 PUSH1 0x1 ADD PUSH2 0x764 JUMP JUMPDEST POP SWAP1 SWAP8 SWAP7 POP POP POP POP POP POP POP JUMP JUMPDEST PUSH1 0x0 DUP3 PUSH1 0x1F DUP4 ADD SLT PUSH2 0x7A6 JUMPI DUP1 DUP2 REVERT JUMPDEST DUP2 CALLDATALOAD PUSH1 0x20 PUSH2 0x7B6 PUSH2 0x741 DUP4 PUSH2 0xE8D JUMP JUMPDEST DUP3 DUP2 MSTORE DUP2 DUP2 ADD SWAP1 DUP6 DUP4 ADD DUP4 DUP6 MUL DUP8 ADD DUP5 ADD DUP9 LT ISZERO PUSH2 0x7D2 JUMPI DUP6 DUP7 REVERT JUMPDEST DUP6 JUMPDEST DUP6 DUP2 LT ISZERO PUSH2 0x789 JUMPI DUP2 CALLDATALOAD PUSH2 0x7E7 DUP2 PUSH2 0xEAB JUMP JUMPDEST DUP5 MSTORE SWAP3 DUP5 ADD SWAP3 SWAP1 DUP5 ADD SWAP1 PUSH1 0x1 ADD PUSH2 0x7D4 JUMP JUMPDEST PUSH1 0x0 DUP3 PUSH1 0x1F DUP4 ADD SLT PUSH2 0x809 JUMPI DUP1 DUP2 REVERT JUMPDEST DUP2 CALLDATALOAD PUSH8 0xFFFFFFFFFFFFFFFF DUP2 GT ISZERO PUSH2 0x81D JUMPI INVALID JUMPDEST PUSH2 0x830 PUSH1 0x1F DUP3 ADD PUSH1 0x1F NOT AND PUSH1 0x20 ADD PUSH2 0xE69 JUMP JUMPDEST DUP2 DUP2 MSTORE DUP5 PUSH1 0x20 DUP4 DUP7 ADD ADD GT ISZERO PUSH2 0x844 JUMPI DUP3 DUP4 REVERT JUMPDEST DUP2 PUSH1 0x20 DUP6 ADD PUSH1 0x20 DUP4 ADD CALLDATACOPY SWAP1 DUP2 ADD PUSH1 0x20 ADD SWAP2 SWAP1 SWAP2 MSTORE SWAP3 SWAP2 POP POP JUMP JUMPDEST PUSH1 0x0 PUSH1 0x60 DUP3 DUP5 SUB SLT ISZERO PUSH2 0x86F JUMPI DUP1 DUP2 REVERT JUMPDEST PUSH1 0x40 MLOAD PUSH1 0x60 DUP2 ADD DUP2 DUP2 LT PUSH8 0xFFFFFFFFFFFFFFFF DUP3 GT OR ISZERO PUSH2 0x88C JUMPI INVALID JUMPDEST PUSH1 0x40 MSTORE SWAP1 POP DUP1 DUP3 CALLDATALOAD DUP1 ISZERO ISZERO DUP2 EQ PUSH2 0x8A2 JUMPI PUSH1 0x0 DUP1 REVERT JUMPDEST DUP2 MSTORE PUSH1 0x20 DUP4 ADD CALLDATALOAD PUSH1 0x1 PUSH1 0x1 PUSH1 0x78 SHL SUB DUP2 AND DUP2 EQ PUSH2 0x8BE JUMPI PUSH1 0x0 DUP1 REVERT JUMPDEST PUSH1 0x20 DUP3 ADD MSTORE PUSH1 0x40 DUP4 ADD CALLDATALOAD PUSH1 0x1 PUSH1 0x1 PUSH1 0x80 SHL SUB DUP2 AND DUP2 EQ PUSH2 0x8DD JUMPI PUSH1 0x0 DUP1 REVERT JUMPDEST PUSH1 0x40 SWAP2 SWAP1 SWAP2 ADD MSTORE SWAP3 SWAP2 POP POP JUMP JUMPDEST PUSH1 0x0 PUSH2 0x120 DUP3 DUP5 SUB SLT ISZERO PUSH2 0x8FC JUMPI DUP1 DUP2 REVERT JUMPDEST PUSH1 0x40 MLOAD PUSH1 0xE0 DUP2 ADD DUP2 DUP2 LT PUSH8 0xFFFFFFFFFFFFFFFF DUP3 GT OR ISZERO PUSH2 0x919 JUMPI INVALID JUMPDEST PUSH1 0x40 MSTORE SWAP1 POP DUP1 PUSH2 0x929 DUP5 DUP5 PUSH2 0x9E0 JUMP JUMPDEST DUP2 MSTORE PUSH2 0x938 DUP5 PUSH1 0x40 DUP6 ADD PUSH2 0x9E0 JUMP JUMPDEST PUSH1 0x20 DUP3 ADD MSTORE PUSH1 0x80 DUP4 ADD CALLDATALOAD PUSH1 0x40 DUP3 ADD MSTORE PUSH1 0xA0 DUP4 ADD CALLDATALOAD PUSH1 0x60 DUP3 ADD MSTORE PUSH1 0xC0 DUP4 ADD CALLDATALOAD PUSH1 0x80 DUP3 ADD MSTORE PUSH1 0xE0 DUP4 ADD CALLDATALOAD PUSH1 0xA0 DUP3 ADD MSTORE PUSH2 0x100 DUP4 ADD CALLDATALOAD PUSH1 0xC0 DUP3 ADD MSTORE POP SWAP3 SWAP2 POP POP JUMP JUMPDEST PUSH1 0x0 PUSH1 0xA0 DUP3 DUP5 SUB SLT ISZERO PUSH2 0x988 JUMPI DUP1 DUP2 REVERT JUMPDEST PUSH1 0x40 MLOAD PUSH1 0xA0 DUP2 ADD DUP2 DUP2 LT PUSH8 0xFFFFFFFFFFFFFFFF DUP3 GT OR ISZERO PUSH2 0x9A5 JUMPI INVALID JUMPDEST DUP1 PUSH1 0x40 MSTORE POP DUP1 SWAP2 POP DUP3 CALLDATALOAD DUP2 MSTORE PUSH1 0x20 DUP4 ADD CALLDATALOAD PUSH1 0x20 DUP3 ADD MSTORE PUSH1 0x40 DUP4 ADD CALLDATALOAD PUSH1 0x40 DUP3 ADD MSTORE PUSH1 0x60 DUP4 ADD CALLDATALOAD PUSH1 0x60 DUP3 ADD MSTORE PUSH1 0x80 DUP4 ADD CALLDATALOAD PUSH1 0x80 DUP3 ADD MSTORE POP SWAP3 SWAP2 POP POP JUMP JUMPDEST PUSH1 0x0 PUSH1 0x40 DUP3 DUP5 SUB SLT ISZERO PUSH2 0x9F1 JUMPI DUP1 DUP2 REVERT JUMPDEST PUSH1 0x40 MLOAD PUSH1 0x40 DUP2 ADD DUP2 DUP2 LT PUSH8 0xFFFFFFFFFFFFFFFF DUP3 GT OR ISZERO PUSH2 0xA0E JUMPI INVALID JUMPDEST PUSH1 0x40 MSTORE DUP3 CALLDATALOAD DUP2 MSTORE PUSH1 0x20 SWAP3 DUP4 ADD CALLDATALOAD SWAP3 DUP2 ADD SWAP3 SWAP1 SWAP3 MSTORE POP SWAP2 SWAP1 POP JUMP JUMPDEST PUSH1 0x0 PUSH1 0x20 DUP3 DUP5 SUB SLT ISZERO PUSH2 0xA39 JUMPI DUP1 DUP2 REVERT JUMPDEST DUP2 CALLDATALOAD PUSH2 0x64C DUP2 PUSH2 0xEAB JUMP JUMPDEST PUSH1 0x0 DUP1 PUSH1 0x0 DUP1 PUSH1 0x0 DUP1 PUSH1 0x0 DUP1 PUSH1 0x0 DUP1 PUSH1 0x0 DUP1 PUSH2 0x360 DUP14 DUP16 SUB SLT ISZERO PUSH2 0xA66 JUMPI DUP8 DUP9 REVERT JUMPDEST PUSH8 0xFFFFFFFFFFFFFFFF DUP14 CALLDATALOAD GT ISZERO PUSH2 0xA7B JUMPI DUP8 DUP9 REVERT JUMPDEST PUSH2 0xA88 DUP15 DUP15 CALLDATALOAD DUP16 ADD PUSH2 0x7F9 JUMP JUMPDEST SWAP12 POP PUSH8 0xFFFFFFFFFFFFFFFF PUSH1 0x20 DUP15 ADD CALLDATALOAD GT ISZERO PUSH2 0xAA2 JUMPI DUP8 DUP9 REVERT JUMPDEST PUSH2 0xAB2 DUP15 PUSH1 0x20 DUP16 ADD CALLDATALOAD DUP16 ADD PUSH2 0x7F9 JUMP JUMPDEST SWAP11 POP PUSH8 0xFFFFFFFFFFFFFFFF PUSH1 0x40 DUP15 ADD CALLDATALOAD GT ISZERO PUSH2 0xACC JUMPI DUP8 DUP9 REVERT JUMPDEST PUSH2 0xADC DUP15 PUSH1 0x40 DUP16 ADD CALLDATALOAD DUP16 ADD PUSH2 0x796 JUMP JUMPDEST SWAP10 POP PUSH2 0xAEB DUP15 PUSH1 0x60 DUP16 ADD PUSH2 0x977 JUMP JUMPDEST SWAP9 POP PUSH2 0xAFB DUP15 PUSH2 0x100 DUP16 ADD PUSH2 0x8EA JUMP JUMPDEST SWAP8 POP PUSH8 0xFFFFFFFFFFFFFFFF PUSH2 0x220 DUP15 ADD CALLDATALOAD GT ISZERO PUSH2 0xB16 JUMPI DUP7 DUP8 REVERT JUMPDEST PUSH2 0xB27 DUP15 PUSH2 0x220 DUP16 ADD CALLDATALOAD DUP16 ADD PUSH2 0x721 JUMP JUMPDEST SWAP7 POP PUSH2 0x240 DUP14 ADD CALLDATALOAD SWAP6 POP PUSH2 0xB3E PUSH2 0x260 DUP15 ADD PUSH2 0x716 JUMP JUMPDEST SWAP5 POP PUSH2 0xB4D PUSH2 0x280 DUP15 ADD PUSH2 0x716 JUMP JUMPDEST SWAP4 POP PUSH2 0xB5D DUP15 PUSH2 0x2A0 DUP16 ADD PUSH2 0x85E JUMP JUMPDEST SWAP3 POP PUSH2 0xB6C PUSH2 0x300 DUP15 ADD PUSH2 0x716 JUMP JUMPDEST SWAP2 POP PUSH2 0xB7C DUP15 PUSH2 0x320 DUP16 ADD PUSH2 0x9E0 JUMP JUMPDEST SWAP1 POP SWAP3 SWAP6 SWAP9 SWAP12 POP SWAP3 SWAP6 SWAP9 SWAP12 POP SWAP3 SWAP6 SWAP9 SWAP12 JUMP JUMPDEST PUSH1 0x1 PUSH1 0x1 PUSH1 0xA0 SHL SUB AND SWAP1 MSTORE JUMP JUMPDEST PUSH1 0x0 DUP2 MLOAD DUP1 DUP5 MSTORE DUP2 JUMPDEST DUP2 DUP2 LT ISZERO PUSH2 0xBC0 JUMPI PUSH1 0x20 DUP2 DUP6 ADD DUP2 ADD MLOAD DUP7 DUP4 ADD DUP3 ADD MSTORE ADD PUSH2 0xBA4 JUMP JUMPDEST DUP2 DUP2 GT ISZERO PUSH2 0xBD1 JUMPI DUP3 PUSH1 0x20 DUP4 DUP8 ADD ADD MSTORE JUMPDEST POP PUSH1 0x1F ADD PUSH1 0x1F NOT AND SWAP3 SWAP1 SWAP3 ADD PUSH1 0x20 ADD SWAP3 SWAP2 POP POP JUMP JUMPDEST DUP1 MLOAD ISZERO ISZERO DUP3 MSTORE PUSH1 0x20 DUP1 DUP3 ADD MLOAD PUSH1 0x1 PUSH1 0x1 PUSH1 0x78 SHL SUB AND SWAP1 DUP4 ADD MSTORE PUSH1 0x40 SWAP1 DUP2 ADD MLOAD PUSH1 0x1 PUSH1 0x1 PUSH1 0x80 SHL SUB AND SWAP2 ADD MSTORE JUMP JUMPDEST PUSH2 0xC1E DUP3 DUP3 MLOAD PUSH2 0xD3D JUMP JUMPDEST PUSH1 0x20 DUP2 ADD MLOAD PUSH2 0xC30 PUSH1 0x40 DUP5 ADD DUP3 PUSH2 0xD3D JUMP JUMPDEST POP PUSH1 0x40 DUP2 ADD MLOAD PUSH1 0x80 DUP4 ADD MSTORE PUSH1 0x60 DUP2 ADD MLOAD PUSH1 0xA0 DUP4 ADD MSTORE PUSH1 0x80 DUP2 ADD MLOAD PUSH1 0xC0 DUP4 ADD MSTORE PUSH1 0xA0 DUP2 ADD MLOAD PUSH1 0xE0 DUP4 ADD MSTORE PUSH1 0xC0 DUP2 ADD MLOAD PUSH2 0x100 DUP4 ADD MSTORE POP POP JUMP JUMPDEST PUSH1 0x0 PUSH2 0x120 PUSH2 0xC78 DUP5 DUP5 MLOAD PUSH2 0xB8E JUMP JUMPDEST PUSH1 0x20 DUP4 ADD MLOAD DUP2 PUSH1 0x20 DUP7 ADD MSTORE PUSH2 0xC8F DUP3 DUP7 ADD DUP3 PUSH2 0xB9B JUMP JUMPDEST SWAP2 POP POP PUSH1 0x40 DUP4 ADD MLOAD DUP5 DUP3 SUB PUSH1 0x40 DUP7 ADD MSTORE PUSH2 0xCA9 DUP3 DUP3 PUSH2 0xB9B JUMP JUMPDEST SWAP2 POP POP PUSH1 0x60 DUP4 ADD MLOAD PUSH2 0xCBE PUSH1 0x60 DUP7 ADD DUP3 PUSH2 0xB8E JUMP JUMPDEST POP PUSH1 0x80 DUP4 ADD MLOAD PUSH2 0xCD1 PUSH1 0x80 DUP7 ADD DUP3 PUSH2 0xB8E JUMP JUMPDEST POP PUSH1 0xA0 DUP4 ADD MLOAD PUSH1 0xA0 DUP6 ADD MSTORE PUSH1 0xC0 DUP4 ADD MLOAD PUSH1 0xC0 DUP6 ADD MSTORE PUSH1 0xE0 DUP4 ADD MLOAD PUSH1 0xE0 DUP6 ADD MSTORE PUSH2 0x100 DUP1 DUP5 ADD MLOAD PUSH2 0xD03 DUP3 DUP8 ADD DUP3 PUSH2 0xB8E JUMP JUMPDEST POP SWAP1 SWAP5 SWAP4 POP POP POP POP JUMP JUMPDEST DUP1 MLOAD DUP3 MSTORE PUSH1 0x20 DUP2 ADD MLOAD PUSH1 0x20 DUP4 ADD MSTORE PUSH1 0x40 DUP2 ADD MLOAD PUSH1 0x40 DUP4 ADD MSTORE PUSH1 0x60 DUP2 ADD MLOAD PUSH1 0x60 DUP4 ADD MSTORE PUSH1 0x80 DUP2 ADD MLOAD PUSH1 0x80 DUP4 ADD MSTORE POP POP JUMP JUMPDEST DUP1 MLOAD DUP3 MSTORE PUSH1 0x20 SWAP1 DUP2 ADD MLOAD SWAP2 ADD MSTORE JUMP JUMPDEST PUSH1 0x1 PUSH1 0x1 PUSH1 0xA0 SHL SUB SWAP2 SWAP1 SWAP2 AND DUP2 MSTORE PUSH1 0x20 ADD SWAP1 JUMP JUMPDEST PUSH1 0x1 PUSH1 0x1 PUSH1 0xA0 SHL SUB SWAP3 DUP4 AND DUP2 MSTORE SWAP2 AND PUSH1 0x20 DUP3 ADD MSTORE PUSH1 0x40 ADD SWAP1 JUMP JUMPDEST SWAP1 ISZERO ISZERO DUP2 MSTORE PUSH1 0x20 ADD SWAP1 JUMP JUMPDEST PUSH1 0x0 PUSH1 0x20 DUP3 MSTORE PUSH2 0x64C PUSH1 0x20 DUP4 ADD DUP5 PUSH2 0xB9B JUMP JUMPDEST PUSH1 0x0 PUSH1 0x40 DUP3 MSTORE DUP4 MLOAD PUSH2 0x2C0 PUSH1 0x40 DUP5 ADD MSTORE PUSH2 0xDB6 PUSH2 0x300 DUP5 ADD DUP3 PUSH2 0xC68 JUMP JUMPDEST SWAP1 POP PUSH1 0x20 DUP6 ADD MLOAD PUSH2 0xDCA PUSH1 0x60 DUP6 ADD DUP3 PUSH2 0xD0D JUMP JUMPDEST POP PUSH1 0x40 DUP6 ADD MLOAD PUSH2 0xDDE PUSH2 0x100 DUP6 ADD DUP3 PUSH2 0xC13 JUMP JUMPDEST POP PUSH1 0x60 DUP6 ADD MLOAD PUSH2 0xDF2 PUSH2 0x220 DUP6 ADD DUP3 PUSH2 0xB8E JUMP JUMPDEST POP PUSH1 0x80 DUP6 ADD MLOAD PUSH2 0xE06 PUSH2 0x240 DUP6 ADD DUP3 PUSH2 0xB8E JUMP JUMPDEST POP PUSH1 0xA0 DUP6 ADD MLOAD PUSH2 0xE1A PUSH2 0x260 DUP6 ADD DUP3 PUSH2 0xB8E JUMP JUMPDEST POP PUSH1 0xC0 DUP6 ADD MLOAD PUSH2 0xE2E PUSH2 0x280 DUP6 ADD DUP3 PUSH2 0xBE6 JUMP JUMPDEST POP PUSH1 0xE0 DUP6 ADD MLOAD PUSH2 0xE42 PUSH2 0x2E0 DUP6 ADD DUP3 PUSH2 0xB8E JUMP JUMPDEST POP SWAP1 POP PUSH2 0x64C PUSH1 0x20 DUP4 ADD DUP5 PUSH2 0xB8E JUMP JUMPDEST SWAP1 DUP2 MSTORE PUSH1 0x20 ADD SWAP1 JUMP JUMPDEST SWAP2 DUP3 MSTORE PUSH1 0x20 DUP3 ADD MSTORE PUSH1 0x40 ADD SWAP1 JUMP JUMPDEST PUSH1 0x40 MLOAD DUP2 DUP2 ADD PUSH8 0xFFFFFFFFFFFFFFFF DUP2 GT DUP3 DUP3 LT OR ISZERO PUSH2 0xE85 JUMPI INVALID JUMPDEST PUSH1 0x40 MSTORE SWAP2 SWAP1 POP JUMP JUMPDEST PUSH1 0x0 PUSH8 0xFFFFFFFFFFFFFFFF DUP3 GT ISZERO PUSH2 0xEA1 JUMPI INVALID JUMPDEST POP PUSH1 0x20 SWAP1 DUP2 MUL ADD SWAP1 JUMP JUMPDEST PUSH1 0x1 PUSH1 0x1 PUSH1 0xA0 SHL SUB DUP2 AND DUP2 EQ PUSH2 0xEC0 JUMPI PUSH1 0x0 DUP1 REVERT JUMPDEST POP JUMP INVALID LOG2 PUSH5 0x6970667358 0x22 SLT KECCAK256 XOR SHL 0x22 0xC3 0x23 0xEE 0xDB SELFBALANCE SWAP16 MSTORE 0xBB PUSH24 0x84C5BA12210585439488BEED8DF348BD26270C1E64736F6C PUSH4 0x43000706 STOP CALLER ","sha1":"6f7c9b23d6ac7b06279cc11dd01633bb4deac447","source":"// SPDX-License-Identifier: LicenseRef-Gyro-1.0\n// for information on licensing please see the README in the GitHub repository <https://github.com/gyrostable/concentrated-lps>.\n\npragma solidity 0.7.6;\npragma experimental ABIEncoderV2;\n\nimport \"@balancer-labs/v2-vault/contracts/interfaces/IVault.sol\";\n\nimport \"@balancer-labs/v2-pool-utils/contracts/factories/BasePoolSplitCodeFactory.sol\";\nimport \"@balancer-labs/v2-pool-utils/contracts/factories/FactoryWidePauseWindow.sol\";\n\nimport \"../../interfaces/IGyroECLPPoolFactory.sol\";\nimport \"../../interfaces/ICappedLiquidity.sol\";\nimport \"./GyroECLPPool.sol\";\n\ncontract GyroECLPPoolFactory is IGyroECLPPoolFactory, BasePoolSplitCodeFactory, FactoryWidePauseWindow {\n    address public immutable gyroConfigAddress;\n\n    uint256 public constant PAUSE_WINDOW_DURATION = 90 days;\n    uint256 public constant BUFFER_PERIOD_DURATION = 30 days;\n\n    constructor(IVault vault, address _gyroConfigAddress) BasePoolSplitCodeFactory(vault, type(GyroECLPPool).creationCode) {\n        _grequire(_gyroConfigAddress != address(0), GyroErrors.ZERO_ADDRESS);\n        _grequire(address(vault) != address(0), GyroErrors.ZERO_ADDRESS);\n        gyroConfigAddress = _gyroConfigAddress;\n    }\n\n    /**\n     * @dev Deploys a new `GyroECLPPool`.\n     */\n    function create(\n        string memory name,\n        string memory symbol,\n        IERC20[] memory tokens,\n        GyroECLPMath.Params memory eclpParams,\n        GyroECLPMath.DerivedParams memory derivedECLPParams,\n        address[] memory rateProviders,\n        uint256 swapFeePercentage,\n        address owner,\n        address capManager,\n        ICappedLiquidity.CapParams memory capParams,\n        address pauseManager,\n        ILocallyPausable.PauseParams memory pauseParams\n    ) external override returns (address) {\n        ExtensibleWeightedPool2Tokens.NewPoolParams memory baseParams = _makePoolParams(name, symbol, tokens, swapFeePercentage, owner, pauseParams);\n\n        GyroECLPPool.GyroParams memory params = GyroECLPPool.GyroParams({\n            baseParams: baseParams,\n            eclpParams: eclpParams,\n            derivedEclpParams: derivedECLPParams,\n            rateProvider0: rateProviders[0],\n            rateProvider1: rateProviders[1],\n            capManager: capManager,\n            capParams: capParams,\n            pauseManager: pauseManager\n        });\n\n        return _create(abi.encode(params, gyroConfigAddress));\n    }\n\n    function _makePoolParams(\n        string memory name,\n        string memory symbol,\n        IERC20[] memory tokens,\n        uint256 swapFeePercentage,\n        address owner,\n        ILocallyPausable.PauseParams memory pauseParams\n    ) internal view returns (ExtensibleWeightedPool2Tokens.NewPoolParams memory) {\n        return\n            ExtensibleWeightedPool2Tokens.NewPoolParams({\n                vault: getVault(),\n                name: name,\n                symbol: symbol,\n                token0: tokens[0],\n                token1: tokens[1],\n                swapFeePercentage: swapFeePercentage,\n                pauseWindowDuration: pauseParams.pauseWindowDuration,\n                bufferPeriodDuration: pauseParams.bufferPeriodDuration,\n                owner: owner\n            });\n    }\n}\n","sourcePath":"contracts/eclp/GyroECLPPoolFactory.sol","type":"contract","deployment":{"address":"0xeFc86Ad52Fb6e1521E51a99b3638A8AEaFD228c1","chainid":"1101","blockHeight":5147327}}