{"abi":[{"inputs":[{"components":[{"components":[{"internalType":"contract IVault","name":"vault","type":"address"},{"internalType":"string","name":"name","type":"string"},{"internalType":"string","name":"symbol","type":"string"},{"internalType":"contract IERC20","name":"token0","type":"address"},{"internalType":"contract IERC20","name":"token1","type":"address"},{"internalType":"uint256","name":"swapFeePercentage","type":"uint256"},{"internalType":"uint256","name":"pauseWindowDuration","type":"uint256"},{"internalType":"uint256","name":"bufferPeriodDuration","type":"uint256"},{"internalType":"bool","name":"oracleEnabled","type":"bool"},{"internalType":"address","name":"owner","type":"address"}],"internalType":"struct ExtensibleWeightedPool2Tokens.NewPoolParams","name":"baseParams","type":"tuple"},{"components":[{"internalType":"int256","name":"alpha","type":"int256"},{"internalType":"int256","name":"beta","type":"int256"},{"internalType":"int256","name":"c","type":"int256"},{"internalType":"int256","name":"s","type":"int256"},{"internalType":"int256","name":"lambda","type":"int256"}],"internalType":"struct GyroCEMMMath.Params","name":"cemmParams","type":"tuple"},{"components":[{"components":[{"internalType":"int256","name":"x","type":"int256"},{"internalType":"int256","name":"y","type":"int256"}],"internalType":"struct GyroCEMMMath.Vector2","name":"tauAlpha","type":"tuple"},{"components":[{"internalType":"int256","name":"x","type":"int256"},{"internalType":"int256","name":"y","type":"int256"}],"internalType":"struct GyroCEMMMath.Vector2","name":"tauBeta","type":"tuple"},{"internalType":"int256","name":"u","type":"int256"},{"internalType":"int256","name":"v","type":"int256"},{"internalType":"int256","name":"w","type":"int256"},{"internalType":"int256","name":"z","type":"int256"},{"internalType":"int256","name":"dSq","type":"int256"}],"internalType":"struct GyroCEMMMath.DerivedParams","name":"derivedCemmParams","type":"tuple"}],"internalType":"struct GyroCEMMPool.GyroParams","name":"params","type":"tuple"},{"internalType":"address","name":"configAddress","type":"address"}],"stateMutability":"nonpayable","type":"constructor","name":"constructor"},{"anonymous":false,"inputs":[{"indexed":true,"internalType":"address","name":"owner","type":"address"},{"indexed":true,"internalType":"address","name":"spender","type":"address"},{"indexed":false,"internalType":"uint256","name":"value","type":"uint256"}],"name":"Approval","type":"event"},{"anonymous":false,"inputs":[{"indexed":false,"internalType":"bool","name":"derivedParamsValidated","type":"bool"}],"name":"CEMMDerivedParamsValidated","type":"event"},{"anonymous":false,"inputs":[{"indexed":false,"internalType":"bool","name":"paramsValidated","type":"bool"}],"name":"CEMMParamsValidated","type":"event"},{"anonymous":false,"inputs":[{"indexed":false,"internalType":"uint256","name":"invariantAfterJoin","type":"uint256"}],"name":"InvariantAterInitializeJoin","type":"event"},{"anonymous":false,"inputs":[{"indexed":false,"internalType":"uint256","name":"oldInvariant","type":"uint256"},{"indexed":false,"internalType":"uint256","name":"newInvariant","type":"uint256"}],"name":"InvariantOldAndNew","type":"event"},{"anonymous":false,"inputs":[{"indexed":false,"internalType":"bool","name":"enabled","type":"bool"}],"name":"OracleEnabledChanged","type":"event"},{"anonymous":false,"inputs":[{"indexed":false,"internalType":"uint256","name":"oracleUpdatedIndex","type":"uint256"}],"name":"OracleIndexUpdated","type":"event"},{"anonymous":false,"inputs":[{"indexed":false,"internalType":"bool","name":"paused","type":"bool"}],"name":"PausedStateChanged","type":"event"},{"anonymous":false,"inputs":[{"indexed":false,"internalType":"uint256","name":"swapFeePercentage","type":"uint256"}],"name":"SwapFeePercentageChanged","type":"event"},{"anonymous":false,"inputs":[{"indexed":false,"internalType":"uint256[]","name":"balances","type":"uint256[]"},{"components":[{"internalType":"int256","name":"x","type":"int256"},{"internalType":"int256","name":"y","type":"int256"}],"indexed":false,"internalType":"struct GyroCEMMMath.Vector2","name":"invariant","type":"tuple"},{"indexed":false,"internalType":"uint256","name":"amount","type":"uint256"}],"name":"SwapParams","type":"event"},{"anonymous":false,"inputs":[{"indexed":true,"internalType":"address","name":"from","type":"address"},{"indexed":true,"internalType":"address","name":"to","type":"address"},{"indexed":false,"internalType":"uint256","name":"value","type":"uint256"}],"name":"Transfer","type":"event"},{"inputs":[],"name":"DOMAIN_SEPARATOR","outputs":[{"internalType":"bytes32","name":"","type":"bytes32"}],"stateMutability":"view","type":"function"},{"inputs":[],"name":"_dSq","outputs":[{"internalType":"int256","name":"","type":"int256"}],"stateMutability":"view","type":"function"},{"inputs":[],"name":"_paramsAlpha","outputs":[{"internalType":"int256","name":"","type":"int256"}],"stateMutability":"view","type":"function"},{"inputs":[],"name":"_paramsBeta","outputs":[{"internalType":"int256","name":"","type":"int256"}],"stateMutability":"view","type":"function"},{"inputs":[],"name":"_paramsC","outputs":[{"internalType":"int256","name":"","type":"int256"}],"stateMutability":"view","type":"function"},{"inputs":[],"name":"_paramsLambda","outputs":[{"internalType":"int256","name":"","type":"int256"}],"stateMutability":"view","type":"function"},{"inputs":[],"name":"_paramsS","outputs":[{"internalType":"int256","name":"","type":"int256"}],"stateMutability":"view","type":"function"},{"inputs":[],"name":"_tauAlphaX","outputs":[{"internalType":"int256","name":"","type":"int256"}],"stateMutability":"view","type":"function"},{"inputs":[],"name":"_tauAlphaY","outputs":[{"internalType":"int256","name":"","type":"int256"}],"stateMutability":"view","type":"function"},{"inputs":[],"name":"_tauBetaX","outputs":[{"internalType":"int256","name":"","type":"int256"}],"stateMutability":"view","type":"function"},{"inputs":[],"name":"_tauBetaY","outputs":[{"internalType":"int256","name":"","type":"int256"}],"stateMutability":"view","type":"function"},{"inputs":[],"name":"_u","outputs":[{"internalType":"int256","name":"","type":"int256"}],"stateMutability":"view","type":"function"},{"inputs":[],"name":"_v","outputs":[{"internalType":"int256","name":"","type":"int256"}],"stateMutability":"view","type":"function"},{"inputs":[],"name":"_w","outputs":[{"internalType":"int256","name":"","type":"int256"}],"stateMutability":"view","type":"function"},{"inputs":[],"name":"_z","outputs":[{"internalType":"int256","name":"","type":"int256"}],"stateMutability":"view","type":"function"},{"inputs":[{"internalType":"address","name":"owner","type":"address"},{"internalType":"address","name":"spender","type":"address"}],"name":"allowance","outputs":[{"internalType":"uint256","name":"","type":"uint256"}],"stateMutability":"view","type":"function"},{"inputs":[{"internalType":"address","name":"spender","type":"address"},{"internalType":"uint256","name":"amount","type":"uint256"}],"name":"approve","outputs":[{"internalType":"bool","name":"","type":"bool"}],"stateMutability":"nonpayable","type":"function"},{"inputs":[{"internalType":"address","name":"account","type":"address"}],"name":"balanceOf","outputs":[{"internalType":"uint256","name":"","type":"uint256"}],"stateMutability":"view","type":"function"},{"inputs":[],"name":"decimals","outputs":[{"internalType":"uint8","name":"","type":"uint8"}],"stateMutability":"view","type":"function"},{"inputs":[{"internalType":"address","name":"spender","type":"address"},{"internalType":"uint256","name":"amount","type":"uint256"}],"name":"decreaseAllowance","outputs":[{"internalType":"bool","name":"","type":"bool"}],"stateMutability":"nonpayable","type":"function"},{"inputs":[{"internalType":"uint256","name":"startIndex","type":"uint256"},{"internalType":"uint256","name":"endIndex","type":"uint256"}],"name":"dirtyUninitializedOracleSamples","outputs":[],"stateMutability":"nonpayable","type":"function"},{"inputs":[],"name":"enableOracle","outputs":[],"stateMutability":"nonpayable","type":"function"},{"inputs":[{"internalType":"bytes4","name":"selector","type":"bytes4"}],"name":"getActionId","outputs":[{"internalType":"bytes32","name":"","type":"bytes32"}],"stateMutability":"view","type":"function"},{"inputs":[],"name":"getAuthorizer","outputs":[{"internalType":"contract IAuthorizer","name":"","type":"address"}],"stateMutability":"view","type":"function"},{"inputs":[],"name":"getCEMMParams","outputs":[{"components":[{"internalType":"int256","name":"alpha","type":"int256"},{"internalType":"int256","name":"beta","type":"int256"},{"internalType":"int256","name":"c","type":"int256"},{"internalType":"int256","name":"s","type":"int256"},{"internalType":"int256","name":"lambda","type":"int256"}],"internalType":"struct GyroCEMMMath.Params","name":"params","type":"tuple"},{"components":[{"components":[{"internalType":"int256","name":"x","type":"int256"},{"internalType":"int256","name":"y","type":"int256"}],"internalType":"struct GyroCEMMMath.Vector2","name":"tauAlpha","type":"tuple"},{"components":[{"internalType":"int256","name":"x","type":"int256"},{"internalType":"int256","name":"y","type":"int256"}],"internalType":"struct GyroCEMMMath.Vector2","name":"tauBeta","type":"tuple"},{"internalType":"int256","name":"u","type":"int256"},{"internalType":"int256","name":"v","type":"int256"},{"internalType":"int256","name":"w","type":"int256"},{"internalType":"int256","name":"z","type":"int256"},{"internalType":"int256","name":"dSq","type":"int256"}],"internalType":"struct GyroCEMMMath.DerivedParams","name":"d","type":"tuple"}],"stateMutability":"view","type":"function"},{"inputs":[],"name":"getInvariant","outputs":[{"internalType":"uint256","name":"","type":"uint256"}],"stateMutability":"view","type":"function"},{"inputs":[],"name":"getLargestSafeQueryWindow","outputs":[{"internalType":"uint256","name":"","type":"uint256"}],"stateMutability":"pure","type":"function"},{"inputs":[],"name":"getLastInvariant","outputs":[{"internalType":"uint256","name":"","type":"uint256"}],"stateMutability":"view","type":"function"},{"inputs":[{"internalType":"enum IPriceOracle.Variable","name":"variable","type":"uint8"}],"name":"getLatest","outputs":[{"internalType":"uint256","name":"","type":"uint256"}],"stateMutability":"view","type":"function"},{"inputs":[],"name":"getMiscData","outputs":[{"internalType":"int256","name":"logInvariant","type":"int256"},{"internalType":"int256","name":"logTotalSupply","type":"int256"},{"internalType":"uint256","name":"oracleSampleCreationTimestamp","type":"uint256"},{"internalType":"uint256","name":"oracleIndex","type":"uint256"},{"internalType":"bool","name":"oracleEnabled","type":"bool"},{"internalType":"uint256","name":"swapFeePercentage","type":"uint256"}],"stateMutability":"view","type":"function"},{"inputs":[],"name":"getNormalizedWeights","outputs":[{"internalType":"uint256[]","name":"","type":"uint256[]"}],"stateMutability":"view","type":"function"},{"inputs":[],"name":"getOwner","outputs":[{"internalType":"address","name":"","type":"address"}],"stateMutability":"view","type":"function"},{"inputs":[{"components":[{"internalType":"enum IPriceOracle.Variable","name":"variable","type":"uint8"},{"internalType":"uint256","name":"ago","type":"uint256"}],"internalType":"struct IPriceOracle.OracleAccumulatorQuery[]","name":"queries","type":"tuple[]"}],"name":"getPastAccumulators","outputs":[{"internalType":"int256[]","name":"results","type":"int256[]"}],"stateMutability":"view","type":"function"},{"inputs":[],"name":"getPausedState","outputs":[{"internalType":"bool","name":"paused","type":"bool"},{"internalType":"uint256","name":"pauseWindowEndTime","type":"uint256"},{"internalType":"uint256","name":"bufferPeriodEndTime","type":"uint256"}],"stateMutability":"view","type":"function"},{"inputs":[],"name":"getPoolId","outputs":[{"internalType":"bytes32","name":"","type":"bytes32"}],"stateMutability":"view","type":"function"},{"inputs":[],"name":"getRate","outputs":[{"internalType":"uint256","name":"","type":"uint256"}],"stateMutability":"view","type":"function"},{"inputs":[{"internalType":"uint256","name":"index","type":"uint256"}],"name":"getSample","outputs":[{"internalType":"int256","name":"logPairPrice","type":"int256"},{"internalType":"int256","name":"accLogPairPrice","type":"int256"},{"internalType":"int256","name":"logBptPrice","type":"int256"},{"internalType":"int256","name":"accLogBptPrice","type":"int256"},{"internalType":"int256","name":"logInvariant","type":"int256"},{"internalType":"int256","name":"accLogInvariant","type":"int256"},{"internalType":"uint256","name":"timestamp","type":"uint256"}],"stateMutability":"view","type":"function"},{"inputs":[],"name":"getSwapFeePercentage","outputs":[{"internalType":"uint256","name":"","type":"uint256"}],"stateMutability":"view","type":"function"},{"inputs":[{"components":[{"internalType":"enum IPriceOracle.Variable","name":"variable","type":"uint8"},{"internalType":"uint256","name":"secs","type":"uint256"},{"internalType":"uint256","name":"ago","type":"uint256"}],"internalType":"struct IPriceOracle.OracleAverageQuery[]","name":"queries","type":"tuple[]"}],"name":"getTimeWeightedAverage","outputs":[{"internalType":"uint256[]","name":"results","type":"uint256[]"}],"stateMutability":"view","type":"function"},{"inputs":[],"name":"getTotalSamples","outputs":[{"internalType":"uint256","name":"","type":"uint256"}],"stateMutability":"pure","type":"function"},{"inputs":[],"name":"getVault","outputs":[{"internalType":"contract IVault","name":"","type":"address"}],"stateMutability":"view","type":"function"},{"inputs":[],"name":"gyroConfig","outputs":[{"internalType":"contract IGyroConfig","name":"","type":"address"}],"stateMutability":"view","type":"function"},{"inputs":[{"internalType":"address","name":"spender","type":"address"},{"internalType":"uint256","name":"addedValue","type":"uint256"}],"name":"increaseAllowance","outputs":[{"internalType":"bool","name":"","type":"bool"}],"stateMutability":"nonpayable","type":"function"},{"inputs":[],"name":"name","outputs":[{"internalType":"string","name":"","type":"string"}],"stateMutability":"view","type":"function"},{"inputs":[{"internalType":"address","name":"owner","type":"address"}],"name":"nonces","outputs":[{"internalType":"uint256","name":"","type":"uint256"}],"stateMutability":"view","type":"function"},{"inputs":[{"internalType":"bytes32","name":"poolId","type":"bytes32"},{"internalType":"address","name":"sender","type":"address"},{"internalType":"address","name":"recipient","type":"address"},{"internalType":"uint256[]","name":"balances","type":"uint256[]"},{"internalType":"uint256","name":"lastChangeBlock","type":"uint256"},{"internalType":"uint256","name":"protocolSwapFeePercentage","type":"uint256"},{"internalType":"bytes","name":"userData","type":"bytes"}],"name":"onExitPool","outputs":[{"internalType":"uint256[]","name":"","type":"uint256[]"},{"internalType":"uint256[]","name":"","type":"uint256[]"}],"stateMutability":"nonpayable","type":"function"},{"inputs":[{"internalType":"bytes32","name":"poolId","type":"bytes32"},{"internalType":"address","name":"sender","type":"address"},{"internalType":"address","name":"recipient","type":"address"},{"internalType":"uint256[]","name":"balances","type":"uint256[]"},{"internalType":"uint256","name":"lastChangeBlock","type":"uint256"},{"internalType":"uint256","name":"protocolSwapFeePercentage","type":"uint256"},{"internalType":"bytes","name":"userData","type":"bytes"}],"name":"onJoinPool","outputs":[{"internalType":"uint256[]","name":"amountsIn","type":"uint256[]"},{"internalType":"uint256[]","name":"dueProtocolFeeAmounts","type":"uint256[]"}],"stateMutability":"nonpayable","type":"function"},{"inputs":[{"components":[{"internalType":"enum IVault.SwapKind","name":"kind","type":"uint8"},{"internalType":"contract IERC20","name":"tokenIn","type":"address"},{"internalType":"contract IERC20","name":"tokenOut","type":"address"},{"internalType":"uint256","name":"amount","type":"uint256"},{"internalType":"bytes32","name":"poolId","type":"bytes32"},{"internalType":"uint256","name":"lastChangeBlock","type":"uint256"},{"internalType":"address","name":"from","type":"address"},{"internalType":"address","name":"to","type":"address"},{"internalType":"bytes","name":"userData","type":"bytes"}],"internalType":"struct IPoolSwapStructs.SwapRequest","name":"request","type":"tuple"},{"internalType":"uint256","name":"balanceTokenIn","type":"uint256"},{"internalType":"uint256","name":"balanceTokenOut","type":"uint256"}],"name":"onSwap","outputs":[{"internalType":"uint256","name":"","type":"uint256"}],"stateMutability":"nonpayable","type":"function"},{"inputs":[{"internalType":"address","name":"owner","type":"address"},{"internalType":"address","name":"spender","type":"address"},{"internalType":"uint256","name":"value","type":"uint256"},{"internalType":"uint256","name":"deadline","type":"uint256"},{"internalType":"uint8","name":"v","type":"uint8"},{"internalType":"bytes32","name":"r","type":"bytes32"},{"internalType":"bytes32","name":"s","type":"bytes32"}],"name":"permit","outputs":[],"stateMutability":"nonpayable","type":"function"},{"inputs":[{"internalType":"bytes32","name":"poolId","type":"bytes32"},{"internalType":"address","name":"sender","type":"address"},{"internalType":"address","name":"recipient","type":"address"},{"internalType":"uint256[]","name":"balances","type":"uint256[]"},{"internalType":"uint256","name":"lastChangeBlock","type":"uint256"},{"internalType":"uint256","name":"protocolSwapFeePercentage","type":"uint256"},{"internalType":"bytes","name":"userData","type":"bytes"}],"name":"queryExit","outputs":[{"internalType":"uint256","name":"bptIn","type":"uint256"},{"internalType":"uint256[]","name":"amountsOut","type":"uint256[]"}],"stateMutability":"nonpayable","type":"function"},{"inputs":[{"internalType":"bytes32","name":"poolId","type":"bytes32"},{"internalType":"address","name":"sender","type":"address"},{"internalType":"address","name":"recipient","type":"address"},{"internalType":"uint256[]","name":"balances","type":"uint256[]"},{"internalType":"uint256","name":"lastChangeBlock","type":"uint256"},{"internalType":"uint256","name":"protocolSwapFeePercentage","type":"uint256"},{"internalType":"bytes","name":"userData","type":"bytes"}],"name":"queryJoin","outputs":[{"internalType":"uint256","name":"bptOut","type":"uint256"},{"internalType":"uint256[]","name":"amountsIn","type":"uint256[]"}],"stateMutability":"nonpayable","type":"function"},{"inputs":[{"internalType":"bool","name":"paused","type":"bool"}],"name":"setPaused","outputs":[],"stateMutability":"nonpayable","type":"function"},{"inputs":[{"internalType":"uint256","name":"swapFeePercentage","type":"uint256"}],"name":"setSwapFeePercentage","outputs":[],"stateMutability":"nonpayable","type":"function"},{"inputs":[],"name":"symbol","outputs":[{"internalType":"string","name":"","type":"string"}],"stateMutability":"view","type":"function"},{"inputs":[],"name":"totalSupply","outputs":[{"internalType":"uint256","name":"","type":"uint256"}],"stateMutability":"view","type":"function"},{"inputs":[{"internalType":"address","name":"recipient","type":"address"},{"internalType":"uint256","name":"amount","type":"uint256"}],"name":"transfer","outputs":[{"internalType":"bool","name":"","type":"bool"}],"stateMutability":"nonpayable","type":"function"},{"inputs":[{"internalType":"address","name":"sender","type":"address"},{"internalType":"address","name":"recipient","type":"address"},{"internalType":"uint256","name":"amount","type":"uint256"}],"name":"transferFrom","outputs":[{"internalType":"bool","name":"","type":"bool"}],"stateMutability":"nonpayable","type":"function"}],"bytecode":"6104606040527f6e71edae12b1b97f4d1f60370fef10105fa2faae0126114a169c64845d6126c9610120526706f05b59d3b20000610200819052610220526000610240523480156200005057600080fd5b50604051620066f4380380620066f4833981016040819052620000739162000c43565b815160c081015160e08201516020808401516040808601518651825180840190935260018352603160f81b838601526101208801513360805260601b6001600160601b03191660a05283519394919390928592839283918791620000de916003919085019062000987565b508051620000f490600490602084019062000987565b505060058054601260ff1990911617905550815160209283012060c052805191012060e052507f8b73c3c69bb8fe3d512ecc4cf759cc79239f7b179b0ffacaa9a75d522b39400f6101005260601b6001600160601b03191661014052506200016790506276a700831115610194620005e7565b6200017b62278d00821115610195620005e7565b42919091016101608190520161018052604080516002808252606082018352600092602083019080368337019050509050816060015181600081518110620001bf57fe5b60200260200101906001600160a01b031690816001600160a01b031681525050816080015181600181518110620001f257fe5b60200260200101906001600160a01b031690816001600160a01b0316815250506200022881620005fc60201b620018f91760201c565b610100820151620002399062000608565b60a0820151620002499062000664565b81516040516309b2760f60e01b81526000916001600160a01b0316906309b2760f906200027c9060029060040162000ee7565b602060405180830381600087803b1580156200029757600080fd5b505af1158015620002ac573d6000803e3d6000fd5b505050506040513d601f19601f82011682018060405250810190620002d2919062000c2a565b83516040805160028082526060820183529394506001600160a01b03909216926366a9c7d2928592879290602083019080368337019050506040518463ffffffff1660e01b81526004016200032a9392919062000e4d565b600060405180830381600087803b1580156200034557600080fd5b505af11580156200035a573d6000803e3d6000fd5b5050506101a082905250606080840180516001600160601b031990831b81166101c052608086015190921b9091166101e052516200039890620006e2565b610260526080830151620003ac90620006e2565b6102805250620003cc9150506001600160a01b0382161515607862000786565b60208201516040516307674ec360e11b815273__GyroCEMMMath__________________________91630ece9d869162000409919060040162000efc565b60006040518083038186803b1580156200042257600080fd5b505af415801562000437573d6000803e3d6000fd5b505050507f7672dc494ae4d55104e0fcc603d8525eff19778e0361319da5973bbff4a2966e60016040516200046d919062000e42565b60405180910390a16020820151604080840151905163b10bc2cd60e01b815273__GyroCEMMMath__________________________9263b10bc2cd92620004b69260040162000f0c565b60006040518083038186803b158015620004cf57600080fd5b505af4158015620004e4573d6000803e3d6000fd5b505050507f9aa4b7e51fc54c5631fff5119838cefd5af4e579d4f93d51a4f6b6cdbefd03b460016040516200051a919062000e42565b60405180910390a160208281015180518183015160408084015160608086015160809687015161032052610300526102e0919091526102c0929092526102a09290925294810151805180519085015182860151805196015193830151978301519483015160a084015160c0909401516104405261042093909352610400929092526103e0939093526103c0959095526103a052610380919091526103609290925261034091909152600b80546001600160a01b0319166001600160a01b0390921691909117905562000fad565b81620005f857620005f88162000797565b5050565b80620005f881620007ea565b62000624816009546200087760201b620019071790919060201c565b6009556040517f3e350b41e86a8e10f804ade6d35340d620be35569cc75ac943e8bb14ab80ead1906200065990839062000e42565b60405180910390a150565b6200067964e8d4a5100082101560cb620005e7565b6200069167016345785d8a000082111560ca620005e7565b620006ad816009546200089f60201b620019151790919060201c565b6009556040517fa9ba3ffe0b6c366b81232caab38605a0699ad5398d6cce76f91ee809e322dafc906200065990839062000f80565b600080826001600160a01b031663313ce5676040518163ffffffff1660e01b815260040160206040518083038186803b1580156200071f57600080fd5b505afa15801562000734573d6000803e3d6000fd5b505050506040513d601f19601f820116820180604052508101906200075a919062000dd9565b60ff169050600062000779601283620008be60201b620019231760201c565b600a0a925050505b919050565b81620005f857620005f881620008d6565b62461bcd60e51b6000908152602060045260076024526642414c23000030600a808404818106603090810160081b95839006959095019082900491820690940160101b939093010160c81b604452606490fd5b600281511015620007fb5762000874565b6000816000815181106200080b57fe5b602002602001015190506000600190505b8251811015620008715760008382815181106200083557fe5b6020026020010151905062000866816001600160a01b0316846001600160a01b0316106065620005e760201b60201c565b91506001016200081c565b50505b50565b60006200089682605585620008e860201b62001939179092919060201c565b90505b92915050565b600062000896826056856200091160201b62001960179092919060201c565b6000620008d0838311156001620005e7565b50900390565b62000874816223aca960e91b62000926565b60006001821b19841682846200090057600062000903565b60015b60ff16901b17949350505050565b6001600160401b03811b1992909216911b1790565b62461bcd60e51b600090815260206004526007602452600a808404818106603090810160081b958390069590950190829004918206850160101b01602363ffffff0060e086901c160160181b0190930160c81b60445260e882901c90606490fd5b828054600181600116156101000203166002900490600052602060002090601f016020900481019282620009bf576000855562000a0a565b82601f10620009da57805160ff191683800117855562000a0a565b8280016001018555821562000a0a579182015b8281111562000a0a578251825591602001919060010190620009ed565b5062000a1892915062000a1c565b5090565b5b8082111562000a18576000815560010162000a1d565b80516001600160a01b03811681146200078157600080fd5b805180151581146200078157600080fd5b600082601f83011262000a6d578081fd5b81516001600160401b0381111562000a8157fe5b602062000a97601f8301601f1916820162000f89565b828152858284870101111562000aab578384fd5b835b8381101562000aca57858101830151828201840152820162000aad565b8381111562000adb57848385840101525b5095945050505050565b6000610120828403121562000af8578081fd5b60405160e081016001600160401b038111828210171562000b1557fe5b60405290508062000b27848462000be1565b815262000b38846040850162000be1565b60208201526080830151604082015260a0830151606082015260c0830151608082015260e083015160a082015261010083015160c08201525092915050565b600060a0828403121562000b89578081fd5b60405160a081016001600160401b038111828210171562000ba657fe5b806040525080915082518152602083015160208201526040830151604082015260608301516060820152608083015160808201525092915050565b60006040828403121562000bf3578081fd5b604080519081016001600160401b038111828210171562000c1057fe5b604052825181526020928301519281019290925250919050565b60006020828403121562000c3c578081fd5b5051919050565b600080604080848603121562000c57578182fd5b83516001600160401b038082111562000c6e578384fd5b908501906101e0828803121562000c83578384fd5b825160608101818110838211171562000c9857fe5b845282518281111562000ca9578586fd5b8301610140818a0381131562000cbd578687fd5b62000cc88162000f89565b905062000cd58262000a33565b815260208201518481111562000ce9578788fd5b62000cf78b82850162000a5c565b602083015250858201518481111562000d0e578788fd5b62000d1c8b82850162000a5c565b878301525062000d2f6060830162000a33565b606082015262000d426080830162000a33565b608082015260a082015160a082015260c082015160c082015260e082015160e0820152610100935062000d7784830162000a4b565b84820152610120935062000d8d84830162000a33565b8185015282525062000da3886020850162000b77565b602082015262000db78860c0850162000ae5565b848201528095505050505062000dd06020840162000a33565b90509250929050565b60006020828403121562000deb578081fd5b815160ff8116811462000dfc578182fd5b9392505050565b80518252602081015160208301526040810151604083015260608101516060830152608081015160808301525050565b80518252602090810151910152565b901515815260200190565b60006060820185835260206060818501528186518084526080860191508288019350845b8181101562000e985784516001600160a01b03168352938301939183019160010162000e71565b505084810360408601528551808252908201925081860190845b8181101562000ed95782516001600160a01b03168552938301939183019160010162000eb2565b509298975050505050505050565b602081016003831062000ef657fe5b91905290565b60a0810162000899828462000e03565b6101c0810162000f1d828562000e03565b62000f2d60a08301845162000e33565b602083015162000f4160e084018262000e33565b5060408301516101208301526060830151610140830152608083015161016083015260a083015161018083015260c08301516101a08301529392505050565b90815260200190565b6040518181016001600160401b038111828210171562000fa557fe5b604052919050565b60805160a05160601c60c05160e05161010051610120516101405160601c61016051610180516101a0516101c05160601c6101e05160601c61020051610220516102405161026051610280516102a0516102c0516102e05161030051610320516103405161036051610380516103a0516103c0516103e0516104005161042051610440516155ac62001148600039806115b15280611e055250806118655280611e2b525080610e945280611e515250806115695280611e795250806109635280611e9e52508061081c5280611d72525080610e705280611d975250806118c65280611dba525080610bd05280611de2525080610bf45280611ca152508061158d5280611ccb525080610c925280611cf55250806107b55280611d1f52508061148a5280611d495250806127de5250806128055250508061355e52508061358552508061104c528061109352508061100c52806110d3525080610afa525080611ac4525080611aa0525080610f5a525080611602525080611f37525080611f79525080611f58525080610f36525080610ebc52506155ac6000f3fe608060405234801561001057600080fd5b50600436106103835760003560e01c806370a08231116101de578063aaabadc51161010f578063ce482387116100ad578063dd62ed3e1161007c578063dd62ed3e146106db578063ddb387c9146106ee578063f89f27ed146106f6578063ffd088eb146106fe57610383565b8063ce482387146106a5578063d505accf146106ad578063d5c096c4146106c0578063dc09f3aa146106d357610383565b8063bcc43692116100e9578063bcc4369214610685578063c0ff1a151461068d578063c2c3bd6a14610695578063c4fea7c91461069d57610383565b8063aaabadc514610662578063b10be7391461066a578063b48b5b401461067d57610383565b8063893d20e81161017c5780639b02cdde116101565780639b02cdde146106215780639d2c110c14610629578063a457c2d71461063c578063a9059cbb1461064f57610383565b8063893d20e8146106095780638d928af81461061157806395d89b411461061957610383565b80637ef355cd116101b85780637ef355cd146105d35780638143eb76146105db578063851c1bb3146105e357806387ec6817146105f657610383565b806370a082311461058c57806374f3b0091461059f5780637ecebe00146105c057610383565b80633644e515116102b857806358ecbcc31161025657806360d1507c1161023057806360d1507c1461053657806366e9ddf41461055c578063679aefce146105645780636b8432391461056c57610383565b806358ecbcc314610505578063591a137f1461050d5780636028bfd41461051557610383565b8063395093511161029257806339509351146104bb57806344bbdb55146104ce5780634a6b0b15146104e357806355c67628146104fd57610383565b80633644e5151461049857806338e9922e146104a057806338fff2d0146104b357610383565b80631dccd83011610325578063292c914a116102ff578063292c914a14610452578063313ce5671461045a57806331783e5e1461046f5780633331bc361461048557610383565b80631dccd830146104175780632024cf411461043757806323b872dd1461043f57610383565b806316c38b3c1161036157806316c38b3c146103db57806318160ddd146103f05780631c0de051146103f85780631d86bb991461040f57610383565b806306fdde0314610388578063095ea7b3146103a65780631469ed6c146103c6575b600080fd5b610390610706565b60405161039d9190615403565b60405180910390f35b6103b96103b4366004614b2f565b61079c565b60405161039d91906152fc565b6103ce6107b3565b60405161039d919061531f565b6103ee6103e9366004614dbf565b6107d7565b005b6103ce6107eb565b6104006107f1565b60405161039d93929190615307565b6103ce61081a565b61042a610425366004614cf3565b61083e565b60405161039d91906151cb565b6103ce610961565b6103b961044d366004614a7a565b610985565b6103ee6109fb565b610462610a2f565b60405161039d91906154eb565b610477610a38565b60405161039d929190615456565b6103ee610493366004615066565b610a58565b6103ce610ad0565b6103ee6104ae36600461504e565b610adf565b6103ce610af8565b6103b96104c9366004614b2f565b610b1c565b6104d6610b57565b60405161039d9190615173565b6104eb610b66565b60405161039d96959493929190615358565b6103ce610bc1565b6103ce610bce565b6103ce610bf2565b610528610523366004614ddf565b610c16565b60405161039d9291906154c4565b61054961054436600461504e565b610c47565b60405161039d9796959493929190615328565b6103ce610c90565b6103ce610cb4565b61057f61057a366004614c25565b610cd9565b60405161039d9190615187565b6103ce61059a366004614a0a565b610d8f565b6105b26105ad366004614ddf565b610dae565b60405161039d9291906151de565b6103ce6105ce366004614a0a565b610e53565b6103ce610e6e565b6103ce610e92565b6103ce6105f1366004614edb565b610eb6565b610528610604366004614ddf565b610f0f565b6104d6610f34565b6104d6610f58565b610390610f7c565b6103ce610fdd565b6103ce610637366004614f58565b610fe3565b6103b961064a366004614b2f565b611398565b6103b961065d366004614b2f565b6113d6565b6104d66113e3565b6103ce610678366004614f03565b6113ed565b6103ce611482565b6103ce611488565b6103ce6114ac565b6103ce611567565b6103ce61158b565b6103ce6115af565b6103ee6106bb366004614aba565b6115d3565b6105b26106ce366004614ddf565b611743565b6103ce611863565b6103ce6106e9366004614a42565b611887565b6103ce6118c4565b61042a6118e8565b6103ce6118f2565b60038054604080516020601f60026000196101006001881615020190951694909404938401819004810282018101909252828152606093909290918301828280156107925780601f1061076757610100808354040283529160200191610792565b820191906000526020600020905b81548152906001019060200180831161077557829003601f168201915b5050505050905090565b60006107a9338484611975565b5060015b92915050565b7f000000000000000000000000000000000000000000000000000000000000000081565b6107df6119d7565b6107e881611a05565b50565b60025490565b60008060006107fe611a81565b159250610809611a9e565b9150610813611ac2565b9050909192565b7f000000000000000000000000000000000000000000000000000000000000000081565b606081516001600160401b038111801561085757600080fd5b50604051908082528060200260200182016040528015610881578160200160208202803683370190505b509050600061088e611ae6565b905060005b835181101561095a5773__QueryProcessor________________________6379eaef8260088684815181106108c457fe5b6020026020010151856040518463ffffffff1660e01b81526004016108eb939291906153ca565b60206040518083038186803b15801561090357600080fd5b505af4158015610917573d6000803e3d6000fd5b505050506040513d601f19601f8201168201806040525081019061093b9190614f1d565b83828151811061094757fe5b6020908102919091010152600101610893565b5050919050565b7f000000000000000000000000000000000000000000000000000000000000000081565b6000806109928533611887565b90506109b6336001600160a01b03871614806109ae5750838210155b61019e611af3565b6109c1858585611b01565b336001600160a01b038616148015906109dc57506000198114155b156109ee576109ee8533858403611975565b60019150505b9392505050565b610a03611be9565b610a0b6119d7565b610a156001611bfc565b6000610a1f6107eb565b1115610a2d57610a2d611c47565b565b60055460ff1690565b610a40614868565b610a48614897565b610a50611c8f565b915091509091565b610a738183108015610a6c57506104008211155b6064611af3565b6000610a886001600080600080600080611ec5565b9050825b82811015610aca57600081815260086020526040902054610aac90611f27565b610ac25760008181526008602052604090208290555b600101610a8c565b50505050565b6000610ada611f33565b905090565b610ae76119d7565b610aef611be9565b6107e881611ff1565b7f000000000000000000000000000000000000000000000000000000000000000090565b3360008181526001602090815260408083206001600160a01b038716845290915281205490916107a9918590610b52908661205a565b611975565b600b546001600160a01b031681565b60008060008060008060006009549050610b7f8161206c565b9650610b8a81612078565b9550610b9581612085565b9450610ba081612092565b9350610bab8161209f565b9250610bb6816120ac565b915050909192939495565b6000610ada6009546120ac565b7f000000000000000000000000000000000000000000000000000000000000000081565b7f000000000000000000000000000000000000000000000000000000000000000081565b60006060610c26865160026120b9565b610c3b898989898989896120c66122416122bf565b97509795505050505050565b6000806000806000806000610c62610400891061013b611af3565b6000610c6d896123d2565b9050610c78816123e4565b959f949e50929c50909a509850965090945092505050565b7f000000000000000000000000000000000000000000000000000000000000000081565b6000610ada610cc16107eb565b610cd3610ccc6114ac565b6002612447565b9061246b565b606081516001600160401b0381118015610cf257600080fd5b50604051908082528060200260200182016040528015610d1c578160200160208202803683370190505b5090506000610d29611ae6565b9050610d336148e0565b60005b8451811015610d8757848181518110610d4b57fe5b60200260200101519150610d6882600001518484602001516124c5565b848281518110610d7457fe5b6020908102919091010152600101610d36565b505050919050565b6001600160a01b0381166000908152602081905260409020545b919050565b60608088610dd8610dbd610f58565b6001600160a01b0316336001600160a01b03161460cd611af3565b610ded610de3610af8565b82146101f4611af3565b610df68761255e565b6000806000610e0a8d8d8d8d8d8d8d6120c6565b925092509250610e1a8c846125c0565b610e2382612241565b610e2c81612241565b610e34611a81565b15610e4157610e41611c47565b909c909b509950505050505050505050565b6001600160a01b031660009081526006602052604090205490565b7f000000000000000000000000000000000000000000000000000000000000000081565b7f000000000000000000000000000000000000000000000000000000000000000081565b604080517f00000000000000000000000000000000000000000000000000000000000000006020808301919091526001600160e01b03198416828401528251602481840301815260449092019092528051910120919050565b60006060610f1f865160026120b9565b610c3b898989898989896125ca6127206122bf565b7f000000000000000000000000000000000000000000000000000000000000000090565b7f000000000000000000000000000000000000000000000000000000000000000090565b60048054604080516020601f60026000196101006001881615020190951694909404938401819004810282018101909252828152606093909290918301828280156107925780601f1061076757610100808354040283529160200191610792565b600a5490565b6000610fed611be9565b8360800151610ffd610dbd610f58565b611008610de3610af8565b60007f00000000000000000000000000000000000000000000000000000000000000006001600160a01b031686602001516001600160a01b031614801561108457507f00000000000000000000000000000000000000000000000000000000000000006001600160a01b031686604001516001600160a01b0316145b1561109157506001611122565b7f00000000000000000000000000000000000000000000000000000000000000006001600160a01b031686602001516001600160a01b031614801561110b57507f00000000000000000000000000000000000000000000000000000000000000006001600160a01b031686604001516001600160a01b0316145b1561111857506000611122565b6111226079612782565b600061112d826127d5565b9050600061113b83156127d5565b90506111478783612829565b96506111538682612829565b95506000611162888886612835565b905060008061116f611c8f565b9150915061117b6148f7565b60008073__GyroCEMMMath__________________________63eaf17aef8787876040518463ffffffff1660e01b81526004016111b99392919061520c565b604080518083038186803b1580156111d057600080fd5b505af41580156111e4573d6000803e3d6000fd5b505050506040513d601f19601f820116820180604052508101906112089190614f35565b91509150604051806040016040528082600202840181526020018381525092506112418e60a001518761123a856128cf565b888861292a565b50600090508c51600181111561125357fe5b14156112ff576000611271611266610bc1565b60608f015190612aa2565b905061129361128d828f60600151612af790919063ffffffff16565b88612829565b60608e015260006112a88e878b888888612b0d565b90507f4e1d56f7310a8c32b2267f756b19ba65019b4890068ce114a25009abe54de5ba8684836040516112dd9392919061527e565b60405180910390a16112ef8188612ba5565b9a50505050505050505050611390565b61130d8c6060015186612829565b60608d015260006113228d868a878787612bb1565b90507f4e1d56f7310a8c32b2267f756b19ba65019b4890068ce114a25009abe54de5ba8583836040516113579392919061527e565b60405180910390a16113698188612bf9565b905061138561137e611379610bc1565b612c05565b8290612c2b565b995050505050505050505b509392505050565b6000806113a53385611887565b90508083106113bf576113ba33856000611975565b6113cc565b6113cc3385858403611975565b5060019392505050565b60006107a9338484611b01565b6000610ada612c91565b600073__QueryProcessor________________________630397bee0600884611414611ae6565b6040518463ffffffff1660e01b815260040161143293929190615382565b60206040518083038186803b15801561144a57600080fd5b505af415801561145e573d6000803e3d6000fd5b505050506040513d601f19601f820116820180604052508101906107ad9190614f1d565b61040090565b7f000000000000000000000000000000000000000000000000000000000000000081565b6000806114b7610f58565b6001600160a01b031663f94d46686114cd610af8565b6040518263ffffffff1660e01b81526004016114e9919061531f565b60006040518083038186803b15801561150157600080fd5b505afa158015611515573d6000803e3d6000fd5b505050506040513d6000823e601f3d908101601f1916820160405261153d9190810190614b5a565b5091505061154a8161255e565b6000611554612d0b565b90506115608183612d7a565b9250505090565b7f000000000000000000000000000000000000000000000000000000000000000081565b7f000000000000000000000000000000000000000000000000000000000000000081565b7f000000000000000000000000000000000000000000000000000000000000000081565b6115e18442111560d1611af3565b6001600160a01b0380881660008181526006602090815260408083205481517f00000000000000000000000000000000000000000000000000000000000000008185015280830195909552948b166060850152608084018a905260a0840185905260c08085018a90528151808603909101815260e0909401905282519201919091209061166d82612dec565b9050600060018288888860405160008152602001604052604051808581526020018460ff1681526020018381526020018281526020019450505050506020604051602081039080840390855afa1580156116cb573d6000803e3d6000fd5b5050604051601f190151915061170d90506001600160a01b0382161580159061170557508b6001600160a01b0316826001600160a01b0316145b6101f8611af3565b6001600160a01b038b1660009081526006602052604090206001850190556117368b8b8b611975565b5050505050505050505050565b60608088611752610dbd610f58565b61175d610de3610af8565b611765611be9565b600061176f6107eb565b6117df5761177f8b8b8b88612e38565b94509050611794620f424082101560cc611af3565b6117a26000620f4240612f7d565b6117b189620f42408303612f7d565b6117ba84612720565b604080516002808252606082018352909160208301908036833701905050925061184d565b6117e88861255e565b61181b87896000815181106117f957fe5b60200260200101518a60018151811061180e57fe5b6020026020010151612f87565b61182a8b8b8b8b8b8b8b6125ca565b9095509350905061183b8982612f7d565b61184484612720565b61184d83612241565b611855611c47565b505097509795505050505050565b7f000000000000000000000000000000000000000000000000000000000000000081565b6000611891610f58565b6001600160a01b0316826001600160a01b031614156118b357506000196107ad565b6118bd8383612f8c565b90506107ad565b7f000000000000000000000000000000000000000000000000000000000000000081565b6060610ada612d0b565b6201de2090565b8061190381612fb7565b5050565b60006109f483836055611939565b60006109f483836056611960565b6000611933838311156001611af3565b50900390565b60006001821b198416828461194f576000611952565b60015b60ff16901b17949350505050565b6001600160401b03811b1992909216911b1790565b6001600160a01b03808416600081815260016020908152604080832094871680845294825291829020859055815185815291517f8c5be1e5ebec7d5bd14f71427d1e84f3dd0314c0f7b2291e5b200ac8c7c3b9259281900390910190a3505050565b60006119ee6000356001600160e01b031916610eb6565b90506107e86119fd8233613030565b610191611af3565b8015611a2557611a20611a16611a9e565b4210610193611af3565b611a3a565b611a3a611a30611ac2565b42106101a9611af3565b6007805482151560ff19909116811790915560408051918252517f9e3a5e37224532dea67b89face185703738a228a6e8a23dee546960180d3be649181900360200190a150565b6000611a8b611ac2565b421180610ada57505060075460ff161590565b7f000000000000000000000000000000000000000000000000000000000000000090565b7f000000000000000000000000000000000000000000000000000000000000000090565b6000610ada600954612092565b816119035761190381612782565b611b186001600160a01b0384161515610198611af3565b611b2f6001600160a01b0383161515610199611af3565b611b3a838383612f87565b6001600160a01b038316600090815260208190526040902054611b6090826101a0613132565b6001600160a01b038085166000908152602081905260408082209390935590841681522054611b8f908261205a565b6001600160a01b038084166000818152602081815260409182902094909455805185815290519193928716927fddf252ad1be2c89b69c2b068fc378daa952ba7f163c4a11628f55a4df523b3ef92918290030190a3505050565b610a2d611bf4611a81565b610192611af3565b600954611c099082611907565b6009556040517f3e350b41e86a8e10f804ade6d35340d620be35569cc75ac943e8bb14ab80ead190611c3c9083906152fc565b60405180910390a150565b600954611c538161209f565b156107e857611c6d611c66600a54613148565b8290613188565b9050611c89611c82611c7d6107eb565b613148565b8290613195565b60095550565b611c97614868565b611c9f614897565b7f00000000000000000000000000000000000000000000000000000000000000006080808401919091527f00000000000000000000000000000000000000000000000000000000000000006060808501919091527f00000000000000000000000000000000000000000000000000000000000000006040808601919091527f00000000000000000000000000000000000000000000000000000000000000006020808701919091527f000000000000000000000000000000000000000000000000000000000000000086528451858201517f0000000000000000000000000000000000000000000000000000000000000000818401527f000000000000000000000000000000000000000000000000000000000000000090527f0000000000000000000000000000000000000000000000000000000000000000918101919091527f000000000000000000000000000000000000000000000000000000000000000090527f000000000000000000000000000000000000000000000000000000000000000060c08501527f000000000000000000000000000000000000000000000000000000000000000060a08501527f0000000000000000000000000000000000000000000000000000000000000000928401929092527f0000000000000000000000000000000000000000000000000000000000000000908301527f0000000000000000000000000000000000000000000000000000000000000000908201529091565b6000611ed182826131a3565b611edc84601f6131a7565b611ee78660546131b8565b611ef288606a6131a7565b611efd8a609f6131b8565b611f088c60b56131a7565b611f138e60ea6131b8565b17171717171790505b979650505050505050565b60006107ad82826131c5565b60007f00000000000000000000000000000000000000000000000000000000000000007f00000000000000000000000000000000000000000000000000000000000000007f0000000000000000000000000000000000000000000000000000000000000000611fa06131cf565b3060405160200180868152602001858152602001848152602001838152602001826001600160a01b031681526020019550505050505060405160208183030381529060405280519060200120905090565b61200464e8d4a5100082101560cb611af3565b61201a67016345785d8a000082111560ca611af3565b6009546120279082611915565b6009556040517fa9ba3ffe0b6c366b81232caab38605a0699ad5398d6cce76f91ee809e322dafc90611c3c90839061531f565b60008282016109f48482101583611af3565b60006107ad82826131d3565b60006107ad8260166131d3565b60006107ad82602c6131c5565b60006107ad82604b6131fa565b60006107ad826055613202565b60006107ad82605661320c565b6119038183146067611af3565b60006060806000806120d6611c8f565b915091506120e2611a81565b156121f45760405163371c08f160e01b815260009073__GyroCEMMMath__________________________9063371c08f190612125908d908790879060040161520c565b60206040518083038186803b15801561213d57600080fd5b505af4158015612151573d6000803e3d6000fd5b505050506040513d601f19601f820116820180604052508101906121759190614f1d565b9050612184898b83868661292a565b61218d81613219565b6121978a88613246565b90965094506121b081876121a96107eb565b6000613292565b600a8190556040517fe1d39caf039c7dc6f364b1e29d1e67c4e330003a43f4991d50cf3e8840d95eac916121e6918491906154dd565b60405180910390a15061220a565b6121fe8987613246565b600019600a5590955093505b6040805160028082526060820183528792879291906020830190803683370190505094509450945050509750975097945050505050565b6122688160008151811061225157fe5b602002602001015161226360016127d5565b6132ea565b8160008151811061227557fe5b6020026020010181815250506122a38160018151811061229157fe5b602002602001015161226360006127d5565b816001815181106122b057fe5b60200260200101818152505050565b33301461237d576000306001600160a01b03166000366040516122e3929190615163565b6000604051808303816000865af19150503d8060008114612320576040519150601f19603f3d011682016040523d82523d6000602084013e612325565b606091505b50509050806000811461233457fe5b60046000803e6000516001600160e01b0319166343adbafb60e01b811461235f573d6000803e3d6000fd5b506020600460003e604060205260243d03602460403e601c3d016000f35b6123868661255e565b60008061239c8b8b8b8b8b8b8b8b63ffffffff16565b50915091506123ae818463ffffffff16565b8051601f1982018390526343adbafb603f1983015260200260231982016044820181fd5b60009081526008602052604090205490565b60008060008060008060006123f88861330a565b965061240388613317565b955061240e88613324565b945061241988613331565b93506124248861333e565b925061242f8861334b565b915061243a88611f27565b9050919395979092949650565b60008282026109f484158061246457508385838161246157fe5b04145b6003611af3565b60008161247e5761247e60006004611af3565b8261248b575060006107ad565b670de0b6b3a7640000838102908482816124a157fe5b04146124b3576124b360006005611af3565b8281816124bc57fe5b04949350505050565b6040516334171a8560e01b815260009073__QueryProcessor________________________906334171a8590612506906008908890889088906004016153a4565b60206040518083038186803b15801561251e57600080fd5b505af4158015612532573d6000803e3d6000fd5b505050506040513d601f19601f820116820180604052508101906125569190614f1d565b949350505050565b6125858160008151811061256e57fe5b602002602001015161258060016127d5565b612447565b8160008151811061259257fe5b6020026020010181815250506122a3816001815181106125ae57fe5b602002602001015161258060006127d5565b6119038282613358565b60006060806000806125da611c8f565b91509150600073__GyroCEMMMath__________________________63371c08f18b85856040518463ffffffff1660e01b815260040161261b9392919061520c565b60206040518083038186803b15801561263357600080fd5b505af4158015612647573d6000803e3d6000fd5b505050506040513d601f19601f8201168201806040525081019061266b9190614f1d565b905061267a898b83868661292a565b61268381613219565b6000806126908c8a61340f565b915091506126a883836126a16107eb565b6001613292565b600a8190556040517fe1d39caf039c7dc6f364b1e29d1e67c4e330003a43f4991d50cf3e8840d95eac916126de918691906154dd565b60405180910390a16040805160028082526060820183528492849291906020830190803683370190505097509750975050505050509750975097945050505050565b6127478160008151811061273057fe5b602002602001015161274260016127d5565b613449565b8160008151811061275457fe5b6020026020010181815250506122a38160018151811061277057fe5b602002602001015161274260006127d5565b62461bcd60e51b6000908152602060045260076024526642414c23000030600a808404818106603090810160081b95839006959095019082900491820690940160101b939093010160c81b604452606490fd5b600081612802577f00000000000000000000000000000000000000000000000000000000000000006107ad565b507f0000000000000000000000000000000000000000000000000000000000000000919050565b60006109f48383612447565b6040805160028082526060808301845292602083019080368337019050509050811561289457838160008151811061286957fe5b602002602001018181525050828160018151811061288357fe5b6020026020010181815250506109f4565b82816000815181106128a257fe5b60200260200101818152505083816001815181106128bc57fe5b6020026020010181815250509392505050565b600080821215612926576040805162461bcd60e51b815260206004820181905260248201527f53616665436173743a2076616c7565206d75737420626520706f736974697665604482015290519081900360640190fd5b5090565b6009546129368161209f565b801561294157508543115b15612a9a57600073__GyroCEMMMath__________________________63bce135aa87868661296e8a61347c565b6040518563ffffffff1660e01b815260040161298d949392919061523d565b60206040518083038186803b1580156129a557600080fd5b505af41580156129b9573d6000803e3d6000fd5b505050506040513d601f19601f820116820180604052508101906129dd9190614f1d565b905060006129ea826134c0565b90506000612a00876129fb86612078565b6134cb565b90506000612a0d85612092565b90506000612a1a86612085565b90506000612a3382848787612a2e8c61206c565b6134e2565b9050808314612a9357612a468782613539565b9650612a528742613547565b9650866009819055507f12ade7b7dd29c5e3df1e883f0a092467d851b06c52f3c4484a443d40b9cd660181604051612a8a919061531f565b60405180910390a15b5050505050505b505050505050565b6000828202831580612abc575082848281612ab957fe5b04145b612acc57612acc60006003611af3565b80612adb5760009150506107ad565b670de0b6b3a764000060001982015b0460010191505092915050565b6000828211156119335761193360006001611af3565b6060860151604051633773625f60e21b815260009173__GyroCEMMMath__________________________9163ddcd897c91612b55918a91908a908a908a908a906004016152ae565b60206040518083038186803b158015612b6d57600080fd5b505af4158015612b81573d6000803e3d6000fd5b505050506040513d601f19601f82011682018060405250810190611f1c9190614f1d565b60006109f483836132ea565b606086015160405163c8afb83560e01b815260009173__GyroCEMMMath__________________________9163c8afb83591612b55918a91908a908a908a908a906004016152ae565b60006109f48383613449565b6000670de0b6b3a76400008210612c1d5760006107ad565b50670de0b6b3a76400000390565b600081612c3e57612c3e60006004611af3565b82612c4b575060006107ad565b670de0b6b3a764000083810290848281612c6157fe5b0414612c8557612c85670de0b6b3a7640000858381612c7c57fe5b04146005611af3565b826001820381612aea57fe5b6000612c9b610f58565b6001600160a01b031663aaabadc56040518163ffffffff1660e01b815260040160206040518083038186803b158015612cd357600080fd5b505afa158015612ce7573d6000803e3d6000fd5b505050506040513d601f19601f82011682018060405250810190610ada9190614a26565b60408051600280825260608083018452926000929190602083019080368337019050509050612d3a6001613555565b81600081518110612d4757fe5b602002602001018181525050612d5d6000613555565b81600181518110612d6a57fe5b6020908102919091010152905090565b670de0b6b3a764000060005b8351811015612ddc57612dd2612dcb858381518110612da157fe5b6020026020010151858481518110612db557fe5b60200260200101516135a990919063ffffffff16565b83906135f8565b9150600101612d86565b506107ad60008211610137611af3565b6000612df6611f33565b82604051602001808061190160f01b81525060020183815260200182815260200192505050604051602081830303815290604052805190602001209050919050565b600060606000612e4784613621565b9050612e626000826003811115612e5a57fe5b1460ce611af3565b6000612e6d85613640565b9050612e7b815160026120b9565b612e848161255e565b600080612e8f611c8f565b91509150600073__GyroCEMMMath__________________________63371c08f18585856040518463ffffffff1660e01b8152600401612ed09392919061520c565b60206040518083038186803b158015612ee857600080fd5b505af4158015612efc573d6000803e3d6000fd5b505050506040513d601f19601f82011682018060405250810190612f209190614f1d565b90507faf65f1a72bf4f8bc48e8153858e1f7b307ce39c88361a677c0a79c2a1ae571ef81604051612f51919061531f565b60405180910390a16000612f66826002612447565b600a92909255509a92995091975050505050505050565b61190382826136f4565b505050565b6001600160a01b03918216600090815260016020908152604080832093909416825291909152205490565b600281511015612fc6576107e8565b600081600081518110612fd557fe5b602002602001015190506000600190505b8251811015612f87576000838281518110612ffd57fe5b60200260200101519050613026816001600160a01b0316846001600160a01b0316106065611af3565b9150600101612fe6565b600073ba1ba1ba1ba1ba1ba1ba1ba1ba1ba1ba1ba1ba1b61304f610f34565b6001600160a01b03161415801561306a575061306a83613789565b1561309257613077610f34565b6001600160a01b0316336001600160a01b03161490506107ad565b61309a612c91565b6001600160a01b0316639be2a8848484306040518463ffffffff1660e01b815260040180848152602001836001600160a01b03168152602001826001600160a01b03168152602001935050505060206040518083038186803b1580156130ff57600080fd5b505afa158015613113573d6000803e3d6000fd5b505050506040513d602081101561312957600080fd5b505190506107ad565b60006131418484111583611af3565b5050900390565b600080613154836137bb565b9050600080821361316d57652d79883d20008203613177565b652d79883d200082015b655af3107a40009005949350505050565b60006109f483838361381f565b60006109f48383601661381f565b1b90565b661fffffffffffff91909116901b90565b623fffff91909116901b90565b1c637fffffff1690565b4690565b600082821c623fffff16621fffff81136131ed5780612556565b623fffff19179392505050565b1c6103ff1690565b1c60019081161490565b1c6001600160401b031690565b60008060008061322b600a5486613836565b935093509350935061323f8484848461389f565b5050505050565b60006060600061325584613621565b9050600181600381111561326557fe5b141561327f5761327585856138bf565b909350915061328a565b61328a610150612782565b509250929050565b600081156132c45760006132b0846132aa8888612aa2565b90612c2b565b90506132bc86826138f1565b915050612556565b60006132d484610cd38888613909565b90506132e08682612af7565b9695505050505050565b60006132f98215156004611af3565b81838161330257fe5b049392505050565b60006107ad8260ea6131d3565b60006107ad8260b5613933565b60006107ad82609f6131d3565b60006107ad82606a613933565b60006107ad8260546131d3565b60006107ad82601f613933565b61336f6001600160a01b038316151561019b611af3565b61337b82600083612f87565b6001600160a01b0382166000908152602081905260409020546133a190826101a1613132565b6001600160a01b0383166000908152602081905260409020556002546133c79082613966565b6002556040805182815290516000916001600160a01b038516917fddf252ad1be2c89b69c2b068fc378daa952ba7f163c4a11628f55a4df523b3ef9181900360200190a35050565b60006060600061341e84613621565b9050600381600381111561342e57fe5b141561343e576132758585613974565b61328a610136612782565b60006134588215156004611af3565b82613465575060006107ad565b81600184038161347157fe5b0460010190506107ad565b6000600160ff1b82106129265760405162461bcd60e51b815260040180806020018281038252602881526020018061554f6028913960400191505060405180910390fd5b60006107ad82613148565b6000806134d784613148565b929092039392505050565b6000806134fe858585426134f58b6123d2565b93929190613999565b9050607842889003101580613513578661351c565b61351c876139f9565b600081815260086020526040902092909255509695505050505050565b60006109f48383604b613a06565b60006109f48383602c613a16565b600081613582577f00000000000000000000000000000000000000000000000000000000000000006107ad565b507f0000000000000000000000000000000000000000000000000000000000000000919050565b6000806135b68484613a28565b905060006135d06135c983612710613b29565b600161205a565b9050808210156135e5576000925050506107ad565b6135ef8282611923565b925050506107ad565b600082820261361284158061246457508385838161246157fe5b670de0b6b3a7640000816124bc565b600081806020019051602081101561363857600080fd5b505192915050565b606081806020019051604081101561365757600080fd5b81516020830180516040519294929383019291908464010000000082111561367e57600080fd5b90830190602082018581111561369357600080fd5b82518660208202830111640100000000821117156136b057600080fd5b82525081516020918201928201910280838360005b838110156136dd5781810151838201526020016136c5565b505050509190910160405250929695505050505050565b61370060008383612f87565b60025461370d908261205a565b6002556001600160a01b038216600090815260208190526040902054613733908261205a565b6001600160a01b0383166000818152602081815260408083209490945583518581529351929391927fddf252ad1be2c89b69c2b068fc378daa952ba7f163c4a11628f55a4df523b3ef9281900390910190a35050565b600061379b631c74c91760e11b610eb6565b8214806107ad57506137b36350dd6ed960e01b610eb6565b909114919050565b60006137cb600083136064611af3565b670c7d713b49da0000821380156137e95750670f43fc2c04ee000082125b1561380f57670de0b6b3a764000061380083613b6c565b8161380757fe5b059050610da9565b61381882613c8a565b9050610da9565b623fffff828116821b90821b198416179392505050565b60008060008060008060008061384a614029565b9350935093509350836000141561386f57600097508796509094509250613896915050565b6000806138868c8c61387f6107eb565b8989614298565b909a509850929650909450505050505b92959194509250565b83156138af576138af8285612f7d565b8215610aca57610aca8184612f7d565b6000606060006138ce84614333565b905060006138e486836138df6107eb565b614355565b9196919550909350505050565b6000828201838110156109f4576109f4600080611af3565b600082820283158061392357508284828161392057fe5b04145b6136125761361260006003611af3565b600082821c661fffffffffffff16660fffffffffffff81136139555780612556565b661fffffffffffff19179392505050565b60006109f483836001613132565b60006060600061398384614333565b905060006138e486836139946107eb565b6143f0565b6000806139a587611f27565b8303905060008187026139b789613317565b01905060008287026139c88a613331565b01905060008387026139d98b61334b565b0190506139eb89848a858b868c611ec5565b9a9950505050505050505050565b60006107ad82600161448b565b6103ff811b1992909216911b1790565b637fffffff811b1992909216911b1790565b600081613a3e5750670de0b6b3a76400006107ad565b82613a4b575060006107ad565b613a5c600160ff1b84106006611af3565b82613a82770bce5086492111aea88f4bb1ca6bcf584181ea8059f7653284106007611af3565b826000670c7d713b49da000083138015613aa35750670f43fc2c04ee000083125b15613ada576000613ab384613b6c565b9050670de0b6b3a764000080820784020583670de0b6b3a764000083050201915050613ae8565b81613ae484613c8a565b0290505b670de0b6b3a76400009005613b20680238fd42c5cf03ffff198212801590613b19575068070c1cc73b00c800008213155b6008611af3565b6132e081614493565b6000828202613b4384158061246457508385838161246157fe5b80613b525760009150506107ad565b670de0b6b3a76400006000198201046001019150506107ad565b670de0b6b3a7640000026000806a0c097ce7bc90715b34b9f160241b808401906ec097ce7bc90715b34b9f0fffffffff1985010281613ba757fe5b05905060006a0c097ce7bc90715b34b9f160241b82800205905081806a0c097ce7bc90715b34b9f160241b81840205915060038205016a0c097ce7bc90715b34b9f160241b82840205915060058205016a0c097ce7bc90715b34b9f160241b82840205915060078205016a0c097ce7bc90715b34b9f160241b82840205915060098205016a0c097ce7bc90715b34b9f160241b828402059150600b8205016a0c097ce7bc90715b34b9f160241b828402059150600d8205016a0c097ce7bc90715b34b9f160241b828402059150600f826002919005919091010295945050505050565b6000670de0b6b3a7640000821215613cc657613cbc826a0c097ce7bc90715b34b9f160241b81613cb657fe5b05613c8a565b6000039050610da9565b60007e1600ef3172e58d2e933ec884fde10064c63b5372d805e203c00000000000008312613d1757770195e54c5dd42177f53a27172fa9ec630262827000000000830592506806f05b59d3b2000000015b73011798004d755d3c8bc8e03204cf44619e0000008312613d4f576b1425982cf597cd205cef7380830592506803782dace9d9000000015b606492830292026e01855144814a7ff805980ff00840008312613d97576e01855144814a7ff805980ff008400068056bc75e2d63100000840205925068ad78ebc5ac62000000015b6b02df0ab5a80a22c61ab5a7008312613dd2576b02df0ab5a80a22c61ab5a70068056bc75e2d6310000084020592506856bc75e2d631000000015b693f1fce3da636ea5cf8508312613e0957693f1fce3da636ea5cf85068056bc75e2d631000008402059250682b5e3af16b18800000015b690127fa27722cc06cc5e28312613e4057690127fa27722cc06cc5e268056bc75e2d6310000084020592506815af1d78b58c400000015b68280e60114edb805d038312613e755768280e60114edb805d0368056bc75e2d631000008402059250680ad78ebc5ac6200000015b680ebc5fb417461211108312613ea057680ebc5fb4174612111068056bc75e2d631000009384020592015b6808f00f760a4b2db55d8312613ed5576808f00f760a4b2db55d68056bc75e2d6310000084020592506802b5e3af16b1880000015b6806f5f17757889379378312613f0a576806f5f177578893793768056bc75e2d63100000840205925068015af1d78b58c40000015b6806248f33704b2866038312613f3e576806248f33704b28660368056bc75e2d63100000840205925067ad78ebc5ac620000015b6805c548670b9510e7ac8312613f72576805c548670b9510e7ac68056bc75e2d6310000084020592506756bc75e2d6310000015b600068056bc75e2d63100000840168056bc75e2d631000008086030281613f9557fe5b059050600068056bc75e2d63100000828002059050818068056bc75e2d63100000818402059150600382050168056bc75e2d63100000828402059150600582050168056bc75e2d63100000828402059150600782050168056bc75e2d63100000828402059150600982050168056bc75e2d63100000828402059150600b820501600202606485820105979650505050505050565b600b5460405163bd02d0f560e01b81526000918291829182916001600160a01b039091169063bd02d0f59061407b907550524f544f434f4c5f535741505f4645455f5045524360501b9060040161531f565b60206040518083038186803b15801561409357600080fd5b505afa1580156140a7573d6000803e3d6000fd5b505050506040513d601f19601f820116820180604052508101906140cb9190614f1d565b600b5460405163bd02d0f560e01b81526001600160a01b039091169063bd02d0f59061411b907f50524f544f434f4c5f4645455f4759524f5f504f5254494f4e000000000000009060040161531f565b60206040518083038186803b15801561413357600080fd5b505afa158015614147573d6000803e3d6000fd5b505050506040513d601f19601f8201168201806040525081019061416b9190614f1d565b600b546040516321f8a72160e01b81526001600160a01b03909116906321f8a721906141ab906c4759524f5f545245415355525960981b9060040161531f565b60206040518083038186803b1580156141c357600080fd5b505afa1580156141d7573d6000803e3d6000fd5b505050506040513d601f19601f820116820180604052508101906141fb9190614a26565b600b546040516321f8a72160e01b81526001600160a01b03909116906321f8a7219061423a906b42414c5f545245415355525960a01b9060040161531f565b60206040518083038186803b15801561425257600080fd5b505afa158015614266573d6000803e3d6000fd5b505050506040513d601f19601f8201168201806040525081019061428a9190614a26565b935093509350935090919293565b6000808686116142ad57506000905080614329565b60006142cd856142c76142c08a8c612af7565b8990613909565b90613909565b905060006142e56142de898b612af7565b8790613909565b905060006142f38983612af7565b90506000614301848361246b565b9050600061430f8883613909565b9050600061431d8383612af7565b91975090955050505050505b9550959350505050565b600081806020019051604081101561434a57600080fd5b506020015192915050565b606083516001600160401b038111801561436e57600080fd5b50604051908082528060200260200182016040528015614398578160200160208202803683370190505b50905060005b8451811015611390576143d183610cd3868885815181106143bb57fe5b602002602001015161390990919063ffffffff16565b8282815181106143dd57fe5b602090810291909101015260010161439e565b606083516001600160401b038111801561440957600080fd5b50604051908082528060200260200182016040528015614433578160200160208202803683370190505b50905060005b84518110156113905761446c836132aa8688858151811061445657fe5b6020026020010151612aa290919063ffffffff16565b82828151811061447857fe5b6020908102919091010152600101614439565b016103ff1690565b60006144c2680238fd42c5cf03ffff1983121580156144bb575068070c1cc73b00c800008313155b6009611af3565b60008212156144ed576144d782600003614493565b6a0c097ce7bc90715b34b9f160241b8161380757fe5b60006806f05b59d3b2000000831261452d57506806f05b59d3b1ffffff1990910190770195e54c5dd42177f53a27172fa9ec630262827000000000614563565b6803782dace9d9000000831261455f57506803782dace9d8ffffff19909101906b1425982cf597cd205cef7380614563565b5060015b6064929092029168056bc75e2d6310000068ad78ebc5ac6200000084126145b35768ad78ebc5ac61ffffff199093019268056bc75e2d631000006e01855144814a7ff805980ff008400082020590505b6856bc75e2d63100000084126145ef576856bc75e2d630ffffff199093019268056bc75e2d631000006b02df0ab5a80a22c61ab5a70082020590505b682b5e3af16b18800000841261462957682b5e3af16b187fffff199093019268056bc75e2d63100000693f1fce3da636ea5cf85082020590505b6815af1d78b58c4000008412614663576815af1d78b58c3fffff199093019268056bc75e2d63100000690127fa27722cc06cc5e282020590505b680ad78ebc5ac6200000841261469c57680ad78ebc5ac61fffff199093019268056bc75e2d6310000068280e60114edb805d0382020590505b68056bc75e2d6310000084126146d55768056bc75e2d630fffff199093019268056bc75e2d63100000680ebc5fb4174612111082020590505b6802b5e3af16b1880000841261470e576802b5e3af16b187ffff199093019268056bc75e2d631000006808f00f760a4b2db55d82020590505b68015af1d78b58c4000084126147475768015af1d78b58c3ffff199093019268056bc75e2d631000006806f5f177578893793782020590505b68056bc75e2d631000008481019085906002908280020505918201919050600368056bc75e2d631000008783020505918201919050600468056bc75e2d631000008783020505918201919050600568056bc75e2d631000008783020505918201919050600668056bc75e2d631000008783020505918201919050600768056bc75e2d631000008783020505918201919050600868056bc75e2d631000008783020505918201919050600968056bc75e2d631000008783020505918201919050600a68056bc75e2d631000008783020505918201919050600b68056bc75e2d631000008783020505918201919050600c68056bc75e2d631000008783020505918201919050606468056bc75e2d63100000848402058502059695505050505050565b6040518060a0016040528060008152602001600081526020016000815260200160008152602001600081525090565b6040518060e001604052806148aa6148f7565b81526020016148b76148f7565b815260200160008152602001600081526020016000815260200160008152602001600081525090565b604080518082019091526000808252602082015290565b604051806040016040528060008152602001600081525090565b8035610da981615539565b600082601f83011261492c578081fd5b8151602061494161493c8361551c565b6154f9565b828152818101908583018385028701840188101561495d578586fd5b855b8581101561497b5781518452928401929084019060010161495f565b5090979650505050505050565b600082601f830112614998578081fd5b81356001600160401b038111156149ab57fe5b6149be601f8201601f19166020016154f9565b8181528460208386010111156149d2578283fd5b816020850160208301379081016020019190915292915050565b803560028110610da957600080fd5b803560038110610da957600080fd5b600060208284031215614a1b578081fd5b81356109f481615539565b600060208284031215614a37578081fd5b81516109f481615539565b60008060408385031215614a54578081fd5b8235614a5f81615539565b91506020830135614a6f81615539565b809150509250929050565b600080600060608486031215614a8e578081fd5b8335614a9981615539565b92506020840135614aa981615539565b929592945050506040919091013590565b600080600080600080600060e0888a031215614ad4578485fd5b8735614adf81615539565b96506020880135614aef81615539565b95506040880135945060608801359350608088013560ff81168114614b12578384fd5b9699959850939692959460a0840135945060c09093013592915050565b60008060408385031215614b41578182fd5b8235614b4c81615539565b946020939093013593505050565b600080600060608486031215614b6e578081fd5b83516001600160401b0380821115614b84578283fd5b818601915086601f830112614b97578283fd5b81516020614ba761493c8361551c565b82815281810190858301838502870184018c1015614bc3578788fd5b8796505b84871015614bee578051614bda81615539565b835260019690960195918301918301614bc7565b5091890151919750909350505080821115614c07578283fd5b50614c148682870161491c565b925050604084015190509250925092565b60006020808385031215614c37578182fd5b82356001600160401b0380821115614c4d578384fd5b818501915085601f830112614c60578384fd5b8135614c6e61493c8261551c565b818152848101908486016040808502870188018b1015614c8c578889fd5b8896505b84871015614ce45780828c031215614ca6578889fd5b80518181018181108882111715614cb957fe5b8252614cc4836149fb565b815282890135898201528452600196909601959287019290810190614c90565b50909998505050505050505050565b60006020808385031215614d05578182fd5b82356001600160401b0380821115614d1b578384fd5b818501915085601f830112614d2e578384fd5b8135614d3c61493c8261551c565b818152848101908486016060808502870188018b1015614d5a578889fd5b8896505b84871015614ce45780828c031215614d74578889fd5b604080518281018181108982111715614d8957fe5b8252614d94846149fb565b8152838a01358a82015281840135918101919091528452600196909601959287019290810190614d5e565b600060208284031215614dd0578081fd5b813580151581146109f4578182fd5b600080600080600080600060e0888a031215614df9578081fd5b87359650602080890135614e0c81615539565b96506040890135614e1c81615539565b955060608901356001600160401b0380821115614e37578384fd5b818b0191508b601f830112614e4a578384fd5b8135614e5861493c8261551c565b8082825285820191508585018f878886028801011115614e76578788fd5b8795505b83861015614e98578035835260019590950194918601918601614e7a565b509850505060808b0135955060a08b0135945060c08b0135925080831115614ebe578384fd5b5050614ecc8a828b01614988565b91505092959891949750929550565b600060208284031215614eec578081fd5b81356001600160e01b0319811681146109f4578182fd5b600060208284031215614f14578081fd5b6109f4826149fb565b600060208284031215614f2e578081fd5b5051919050565b60008060408385031215614f47578182fd5b505080516020909101519092909150565b600080600060608486031215614f6c578081fd5b83356001600160401b0380821115614f82578283fd5b8186019150610120808389031215614f98578384fd5b614fa1816154f9565b9050614fac836149ec565b8152614fba60208401614911565b6020820152614fcb60408401614911565b6040820152606083013560608201526080830135608082015260a083013560a0820152614ffa60c08401614911565b60c082015261500b60e08401614911565b60e08201526101008084013583811115615023578586fd5b61502f8a828701614988565b9183019190915250976020870135975060409096013595945050505050565b60006020828403121561505f578081fd5b5035919050565b60008060408385031215615078578182fd5b50508035926020909101359150565b6000815180845260208085019450808401835b838110156150b65781518752958201959082019060010161509a565b509495945050505050565b600381106150cb57fe5b9052565b6150da828251615154565b60208101516150ec6040840182615154565b5060408101516080830152606081015160a0830152608081015160c083015260a081015160e083015260c08101516101008301525050565b80518252602081015160208301526040810151604083015260608101516060830152608081015160808301525050565b80518252602090810151910152565b6000828483379101908152919050565b6001600160a01b0391909116815260200190565b6020808252825182820181905260009190848201906040850190845b818110156151bf578351835292840192918401916001016151a3565b50909695505050505050565b6000602082526109f46020830184615087565b6000604082526151f16040830185615087565b82810360208401526152038185615087565b95945050505050565b60006101e080835261522081840187615087565b9150506152306020830185615124565b61255660c08301846150cf565b600061020080835261525181840188615087565b9150506152616020830186615124565b61526e60c08301856150cf565b826101e083015295945050505050565b6000608082526152916080830186615087565b90506152a06020830185615154565b826060830152949350505050565b60006102608083526152c28184018a615087565b91505086602083015285151560408301526152e06060830186615124565b6152ee6101008301856150cf565b611f1c610220830184615154565b901515815260200190565b92151583526020830191909152604082015260600190565b90815260200190565b968752602087019590955260408601939093526060850191909152608084015260a083015260c082015260e00190565b9586526020860194909452604085019290925260608401521515608083015260a082015260c00190565b8381526060810161539660208301856150c1565b826040830152949350505050565b848152608081016153b860208301866150c1565b60408201939093526060015292915050565b600060a0820190508482526153e36020830185516150c1565b602084015160408381019190915290930151606082015260800152919050565b6000602080835283518082850152825b8181101561542f57858101830151858201604001528201615413565b818111156154405783604083870101525b50601f01601f1916929092016040019392505050565b6101c081016154658285615124565b61547360a083018451615154565b602083015161548560e0840182615154565b5060408301516101208301526060830151610140830152608083015161016083015260a083015161018083015260c08301516101a08301529392505050565b6000838252604060208301526125566040830184615087565b918252602082015260400190565b60ff91909116815260200190565b6040518181016001600160401b038111828210171561551457fe5b604052919050565b60006001600160401b0382111561552f57fe5b5060209081020190565b6001600160a01b03811681146107e857600080fdfe53616665436173743a2076616c756520646f65736e27742066697420696e20616e20696e74323536a26469706673582212202da7dab0e8ff524f194e04d873d4dd27a6dfa16ae1e136ee07c4656902fe8ce264736f6c63430007060033","bytecodeSha1":"21f7df608abff1bcc4dbfdeb39f3fe5ffb539213","compiler":{"evm_version":"berlin","optimizer":{"enabled":true,"runs":200},"version":"0.7.6+commit.7338295f"},"contractName":"GyroCEMMPool","deployedBytecode":"608060405234801561001057600080fd5b50600436106103835760003560e01c806370a08231116101de578063aaabadc51161010f578063ce482387116100ad578063dd62ed3e1161007c578063dd62ed3e146106db578063ddb387c9146106ee578063f89f27ed146106f6578063ffd088eb146106fe57610383565b8063ce482387146106a5578063d505accf146106ad578063d5c096c4146106c0578063dc09f3aa146106d357610383565b8063bcc43692116100e9578063bcc4369214610685578063c0ff1a151461068d578063c2c3bd6a14610695578063c4fea7c91461069d57610383565b8063aaabadc514610662578063b10be7391461066a578063b48b5b401461067d57610383565b8063893d20e81161017c5780639b02cdde116101565780639b02cdde146106215780639d2c110c14610629578063a457c2d71461063c578063a9059cbb1461064f57610383565b8063893d20e8146106095780638d928af81461061157806395d89b411461061957610383565b80637ef355cd116101b85780637ef355cd146105d35780638143eb76146105db578063851c1bb3146105e357806387ec6817146105f657610383565b806370a082311461058c57806374f3b0091461059f5780637ecebe00146105c057610383565b80633644e515116102b857806358ecbcc31161025657806360d1507c1161023057806360d1507c1461053657806366e9ddf41461055c578063679aefce146105645780636b8432391461056c57610383565b806358ecbcc314610505578063591a137f1461050d5780636028bfd41461051557610383565b8063395093511161029257806339509351146104bb57806344bbdb55146104ce5780634a6b0b15146104e357806355c67628146104fd57610383565b80633644e5151461049857806338e9922e146104a057806338fff2d0146104b357610383565b80631dccd83011610325578063292c914a116102ff578063292c914a14610452578063313ce5671461045a57806331783e5e1461046f5780633331bc361461048557610383565b80631dccd830146104175780632024cf411461043757806323b872dd1461043f57610383565b806316c38b3c1161036157806316c38b3c146103db57806318160ddd146103f05780631c0de051146103f85780631d86bb991461040f57610383565b806306fdde0314610388578063095ea7b3146103a65780631469ed6c146103c6575b600080fd5b610390610706565b60405161039d9190615403565b60405180910390f35b6103b96103b4366004614b2f565b61079c565b60405161039d91906152fc565b6103ce6107b3565b60405161039d919061531f565b6103ee6103e9366004614dbf565b6107d7565b005b6103ce6107eb565b6104006107f1565b60405161039d93929190615307565b6103ce61081a565b61042a610425366004614cf3565b61083e565b60405161039d91906151cb565b6103ce610961565b6103b961044d366004614a7a565b610985565b6103ee6109fb565b610462610a2f565b60405161039d91906154eb565b610477610a38565b60405161039d929190615456565b6103ee610493366004615066565b610a58565b6103ce610ad0565b6103ee6104ae36600461504e565b610adf565b6103ce610af8565b6103b96104c9366004614b2f565b610b1c565b6104d6610b57565b60405161039d9190615173565b6104eb610b66565b60405161039d96959493929190615358565b6103ce610bc1565b6103ce610bce565b6103ce610bf2565b610528610523366004614ddf565b610c16565b60405161039d9291906154c4565b61054961054436600461504e565b610c47565b60405161039d9796959493929190615328565b6103ce610c90565b6103ce610cb4565b61057f61057a366004614c25565b610cd9565b60405161039d9190615187565b6103ce61059a366004614a0a565b610d8f565b6105b26105ad366004614ddf565b610dae565b60405161039d9291906151de565b6103ce6105ce366004614a0a565b610e53565b6103ce610e6e565b6103ce610e92565b6103ce6105f1366004614edb565b610eb6565b610528610604366004614ddf565b610f0f565b6104d6610f34565b6104d6610f58565b610390610f7c565b6103ce610fdd565b6103ce610637366004614f58565b610fe3565b6103b961064a366004614b2f565b611398565b6103b961065d366004614b2f565b6113d6565b6104d66113e3565b6103ce610678366004614f03565b6113ed565b6103ce611482565b6103ce611488565b6103ce6114ac565b6103ce611567565b6103ce61158b565b6103ce6115af565b6103ee6106bb366004614aba565b6115d3565b6105b26106ce366004614ddf565b611743565b6103ce611863565b6103ce6106e9366004614a42565b611887565b6103ce6118c4565b61042a6118e8565b6103ce6118f2565b60038054604080516020601f60026000196101006001881615020190951694909404938401819004810282018101909252828152606093909290918301828280156107925780601f1061076757610100808354040283529160200191610792565b820191906000526020600020905b81548152906001019060200180831161077557829003601f168201915b5050505050905090565b60006107a9338484611975565b5060015b92915050565b7f000000000000000000000000000000000000000000000000000000000000000081565b6107df6119d7565b6107e881611a05565b50565b60025490565b60008060006107fe611a81565b159250610809611a9e565b9150610813611ac2565b9050909192565b7f000000000000000000000000000000000000000000000000000000000000000081565b606081516001600160401b038111801561085757600080fd5b50604051908082528060200260200182016040528015610881578160200160208202803683370190505b509050600061088e611ae6565b905060005b835181101561095a5773__$85f042f43089d976c21d0d184f206dc395$__6379eaef8260088684815181106108c457fe5b6020026020010151856040518463ffffffff1660e01b81526004016108eb939291906153ca565b60206040518083038186803b15801561090357600080fd5b505af4158015610917573d6000803e3d6000fd5b505050506040513d601f19601f8201168201806040525081019061093b9190614f1d565b83828151811061094757fe5b6020908102919091010152600101610893565b5050919050565b7f000000000000000000000000000000000000000000000000000000000000000081565b6000806109928533611887565b90506109b6336001600160a01b03871614806109ae5750838210155b61019e611af3565b6109c1858585611b01565b336001600160a01b038616148015906109dc57506000198114155b156109ee576109ee8533858403611975565b60019150505b9392505050565b610a03611be9565b610a0b6119d7565b610a156001611bfc565b6000610a1f6107eb565b1115610a2d57610a2d611c47565b565b60055460ff1690565b610a40614868565b610a48614897565b610a50611c8f565b915091509091565b610a738183108015610a6c57506104008211155b6064611af3565b6000610a886001600080600080600080611ec5565b9050825b82811015610aca57600081815260086020526040902054610aac90611f27565b610ac25760008181526008602052604090208290555b600101610a8c565b50505050565b6000610ada611f33565b905090565b610ae76119d7565b610aef611be9565b6107e881611ff1565b7f000000000000000000000000000000000000000000000000000000000000000090565b3360008181526001602090815260408083206001600160a01b038716845290915281205490916107a9918590610b52908661205a565b611975565b600b546001600160a01b031681565b60008060008060008060006009549050610b7f8161206c565b9650610b8a81612078565b9550610b9581612085565b9450610ba081612092565b9350610bab8161209f565b9250610bb6816120ac565b915050909192939495565b6000610ada6009546120ac565b7f000000000000000000000000000000000000000000000000000000000000000081565b7f000000000000000000000000000000000000000000000000000000000000000081565b60006060610c26865160026120b9565b610c3b898989898989896120c66122416122bf565b97509795505050505050565b6000806000806000806000610c62610400891061013b611af3565b6000610c6d896123d2565b9050610c78816123e4565b959f949e50929c50909a509850965090945092505050565b7f000000000000000000000000000000000000000000000000000000000000000081565b6000610ada610cc16107eb565b610cd3610ccc6114ac565b6002612447565b9061246b565b606081516001600160401b0381118015610cf257600080fd5b50604051908082528060200260200182016040528015610d1c578160200160208202803683370190505b5090506000610d29611ae6565b9050610d336148e0565b60005b8451811015610d8757848181518110610d4b57fe5b60200260200101519150610d6882600001518484602001516124c5565b848281518110610d7457fe5b6020908102919091010152600101610d36565b505050919050565b6001600160a01b0381166000908152602081905260409020545b919050565b60608088610dd8610dbd610f58565b6001600160a01b0316336001600160a01b03161460cd611af3565b610ded610de3610af8565b82146101f4611af3565b610df68761255e565b6000806000610e0a8d8d8d8d8d8d8d6120c6565b925092509250610e1a8c846125c0565b610e2382612241565b610e2c81612241565b610e34611a81565b15610e4157610e41611c47565b909c909b509950505050505050505050565b6001600160a01b031660009081526006602052604090205490565b7f000000000000000000000000000000000000000000000000000000000000000081565b7f000000000000000000000000000000000000000000000000000000000000000081565b604080517f00000000000000000000000000000000000000000000000000000000000000006020808301919091526001600160e01b03198416828401528251602481840301815260449092019092528051910120919050565b60006060610f1f865160026120b9565b610c3b898989898989896125ca6127206122bf565b7f000000000000000000000000000000000000000000000000000000000000000090565b7f000000000000000000000000000000000000000000000000000000000000000090565b60048054604080516020601f60026000196101006001881615020190951694909404938401819004810282018101909252828152606093909290918301828280156107925780601f1061076757610100808354040283529160200191610792565b600a5490565b6000610fed611be9565b8360800151610ffd610dbd610f58565b611008610de3610af8565b60007f00000000000000000000000000000000000000000000000000000000000000006001600160a01b031686602001516001600160a01b031614801561108457507f00000000000000000000000000000000000000000000000000000000000000006001600160a01b031686604001516001600160a01b0316145b1561109157506001611122565b7f00000000000000000000000000000000000000000000000000000000000000006001600160a01b031686602001516001600160a01b031614801561110b57507f00000000000000000000000000000000000000000000000000000000000000006001600160a01b031686604001516001600160a01b0316145b1561111857506000611122565b6111226079612782565b600061112d826127d5565b9050600061113b83156127d5565b90506111478783612829565b96506111538682612829565b95506000611162888886612835565b905060008061116f611c8f565b9150915061117b6148f7565b60008073__$f513c357a1ce90135ae8c146e239c700e8$__63eaf17aef8787876040518463ffffffff1660e01b81526004016111b99392919061520c565b604080518083038186803b1580156111d057600080fd5b505af41580156111e4573d6000803e3d6000fd5b505050506040513d601f19601f820116820180604052508101906112089190614f35565b91509150604051806040016040528082600202840181526020018381525092506112418e60a001518761123a856128cf565b888861292a565b50600090508c51600181111561125357fe5b14156112ff576000611271611266610bc1565b60608f015190612aa2565b905061129361128d828f60600151612af790919063ffffffff16565b88612829565b60608e015260006112a88e878b888888612b0d565b90507f4e1d56f7310a8c32b2267f756b19ba65019b4890068ce114a25009abe54de5ba8684836040516112dd9392919061527e565b60405180910390a16112ef8188612ba5565b9a50505050505050505050611390565b61130d8c6060015186612829565b60608d015260006113228d868a878787612bb1565b90507f4e1d56f7310a8c32b2267f756b19ba65019b4890068ce114a25009abe54de5ba8583836040516113579392919061527e565b60405180910390a16113698188612bf9565b905061138561137e611379610bc1565b612c05565b8290612c2b565b995050505050505050505b509392505050565b6000806113a53385611887565b90508083106113bf576113ba33856000611975565b6113cc565b6113cc3385858403611975565b5060019392505050565b60006107a9338484611b01565b6000610ada612c91565b600073__$85f042f43089d976c21d0d184f206dc395$__630397bee0600884611414611ae6565b6040518463ffffffff1660e01b815260040161143293929190615382565b60206040518083038186803b15801561144a57600080fd5b505af415801561145e573d6000803e3d6000fd5b505050506040513d601f19601f820116820180604052508101906107ad9190614f1d565b61040090565b7f000000000000000000000000000000000000000000000000000000000000000081565b6000806114b7610f58565b6001600160a01b031663f94d46686114cd610af8565b6040518263ffffffff1660e01b81526004016114e9919061531f565b60006040518083038186803b15801561150157600080fd5b505afa158015611515573d6000803e3d6000fd5b505050506040513d6000823e601f3d908101601f1916820160405261153d9190810190614b5a565b5091505061154a8161255e565b6000611554612d0b565b90506115608183612d7a565b9250505090565b7f000000000000000000000000000000000000000000000000000000000000000081565b7f000000000000000000000000000000000000000000000000000000000000000081565b7f000000000000000000000000000000000000000000000000000000000000000081565b6115e18442111560d1611af3565b6001600160a01b0380881660008181526006602090815260408083205481517f00000000000000000000000000000000000000000000000000000000000000008185015280830195909552948b166060850152608084018a905260a0840185905260c08085018a90528151808603909101815260e0909401905282519201919091209061166d82612dec565b9050600060018288888860405160008152602001604052604051808581526020018460ff1681526020018381526020018281526020019450505050506020604051602081039080840390855afa1580156116cb573d6000803e3d6000fd5b5050604051601f190151915061170d90506001600160a01b0382161580159061170557508b6001600160a01b0316826001600160a01b0316145b6101f8611af3565b6001600160a01b038b1660009081526006602052604090206001850190556117368b8b8b611975565b5050505050505050505050565b60608088611752610dbd610f58565b61175d610de3610af8565b611765611be9565b600061176f6107eb565b6117df5761177f8b8b8b88612e38565b94509050611794620f424082101560cc611af3565b6117a26000620f4240612f7d565b6117b189620f42408303612f7d565b6117ba84612720565b604080516002808252606082018352909160208301908036833701905050925061184d565b6117e88861255e565b61181b87896000815181106117f957fe5b60200260200101518a60018151811061180e57fe5b6020026020010151612f87565b61182a8b8b8b8b8b8b8b6125ca565b9095509350905061183b8982612f7d565b61184484612720565b61184d83612241565b611855611c47565b505097509795505050505050565b7f000000000000000000000000000000000000000000000000000000000000000081565b6000611891610f58565b6001600160a01b0316826001600160a01b031614156118b357506000196107ad565b6118bd8383612f8c565b90506107ad565b7f000000000000000000000000000000000000000000000000000000000000000081565b6060610ada612d0b565b6201de2090565b8061190381612fb7565b5050565b60006109f483836055611939565b60006109f483836056611960565b6000611933838311156001611af3565b50900390565b60006001821b198416828461194f576000611952565b60015b60ff16901b17949350505050565b6001600160401b03811b1992909216911b1790565b6001600160a01b03808416600081815260016020908152604080832094871680845294825291829020859055815185815291517f8c5be1e5ebec7d5bd14f71427d1e84f3dd0314c0f7b2291e5b200ac8c7c3b9259281900390910190a3505050565b60006119ee6000356001600160e01b031916610eb6565b90506107e86119fd8233613030565b610191611af3565b8015611a2557611a20611a16611a9e565b4210610193611af3565b611a3a565b611a3a611a30611ac2565b42106101a9611af3565b6007805482151560ff19909116811790915560408051918252517f9e3a5e37224532dea67b89face185703738a228a6e8a23dee546960180d3be649181900360200190a150565b6000611a8b611ac2565b421180610ada57505060075460ff161590565b7f000000000000000000000000000000000000000000000000000000000000000090565b7f000000000000000000000000000000000000000000000000000000000000000090565b6000610ada600954612092565b816119035761190381612782565b611b186001600160a01b0384161515610198611af3565b611b2f6001600160a01b0383161515610199611af3565b611b3a838383612f87565b6001600160a01b038316600090815260208190526040902054611b6090826101a0613132565b6001600160a01b038085166000908152602081905260408082209390935590841681522054611b8f908261205a565b6001600160a01b038084166000818152602081815260409182902094909455805185815290519193928716927fddf252ad1be2c89b69c2b068fc378daa952ba7f163c4a11628f55a4df523b3ef92918290030190a3505050565b610a2d611bf4611a81565b610192611af3565b600954611c099082611907565b6009556040517f3e350b41e86a8e10f804ade6d35340d620be35569cc75ac943e8bb14ab80ead190611c3c9083906152fc565b60405180910390a150565b600954611c538161209f565b156107e857611c6d611c66600a54613148565b8290613188565b9050611c89611c82611c7d6107eb565b613148565b8290613195565b60095550565b611c97614868565b611c9f614897565b7f00000000000000000000000000000000000000000000000000000000000000006080808401919091527f00000000000000000000000000000000000000000000000000000000000000006060808501919091527f00000000000000000000000000000000000000000000000000000000000000006040808601919091527f00000000000000000000000000000000000000000000000000000000000000006020808701919091527f000000000000000000000000000000000000000000000000000000000000000086528451858201517f0000000000000000000000000000000000000000000000000000000000000000818401527f000000000000000000000000000000000000000000000000000000000000000090527f0000000000000000000000000000000000000000000000000000000000000000918101919091527f000000000000000000000000000000000000000000000000000000000000000090527f000000000000000000000000000000000000000000000000000000000000000060c08501527f000000000000000000000000000000000000000000000000000000000000000060a08501527f0000000000000000000000000000000000000000000000000000000000000000928401929092527f0000000000000000000000000000000000000000000000000000000000000000908301527f0000000000000000000000000000000000000000000000000000000000000000908201529091565b6000611ed182826131a3565b611edc84601f6131a7565b611ee78660546131b8565b611ef288606a6131a7565b611efd8a609f6131b8565b611f088c60b56131a7565b611f138e60ea6131b8565b17171717171790505b979650505050505050565b60006107ad82826131c5565b60007f00000000000000000000000000000000000000000000000000000000000000007f00000000000000000000000000000000000000000000000000000000000000007f0000000000000000000000000000000000000000000000000000000000000000611fa06131cf565b3060405160200180868152602001858152602001848152602001838152602001826001600160a01b031681526020019550505050505060405160208183030381529060405280519060200120905090565b61200464e8d4a5100082101560cb611af3565b61201a67016345785d8a000082111560ca611af3565b6009546120279082611915565b6009556040517fa9ba3ffe0b6c366b81232caab38605a0699ad5398d6cce76f91ee809e322dafc90611c3c90839061531f565b60008282016109f48482101583611af3565b60006107ad82826131d3565b60006107ad8260166131d3565b60006107ad82602c6131c5565b60006107ad82604b6131fa565b60006107ad826055613202565b60006107ad82605661320c565b6119038183146067611af3565b60006060806000806120d6611c8f565b915091506120e2611a81565b156121f45760405163371c08f160e01b815260009073__$f513c357a1ce90135ae8c146e239c700e8$__9063371c08f190612125908d908790879060040161520c565b60206040518083038186803b15801561213d57600080fd5b505af4158015612151573d6000803e3d6000fd5b505050506040513d601f19601f820116820180604052508101906121759190614f1d565b9050612184898b83868661292a565b61218d81613219565b6121978a88613246565b90965094506121b081876121a96107eb565b6000613292565b600a8190556040517fe1d39caf039c7dc6f364b1e29d1e67c4e330003a43f4991d50cf3e8840d95eac916121e6918491906154dd565b60405180910390a15061220a565b6121fe8987613246565b600019600a5590955093505b6040805160028082526060820183528792879291906020830190803683370190505094509450945050509750975097945050505050565b6122688160008151811061225157fe5b602002602001015161226360016127d5565b6132ea565b8160008151811061227557fe5b6020026020010181815250506122a38160018151811061229157fe5b602002602001015161226360006127d5565b816001815181106122b057fe5b60200260200101818152505050565b33301461237d576000306001600160a01b03166000366040516122e3929190615163565b6000604051808303816000865af19150503d8060008114612320576040519150601f19603f3d011682016040523d82523d6000602084013e612325565b606091505b50509050806000811461233457fe5b60046000803e6000516001600160e01b0319166343adbafb60e01b811461235f573d6000803e3d6000fd5b506020600460003e604060205260243d03602460403e601c3d016000f35b6123868661255e565b60008061239c8b8b8b8b8b8b8b8b63ffffffff16565b50915091506123ae818463ffffffff16565b8051601f1982018390526343adbafb603f1983015260200260231982016044820181fd5b60009081526008602052604090205490565b60008060008060008060006123f88861330a565b965061240388613317565b955061240e88613324565b945061241988613331565b93506124248861333e565b925061242f8861334b565b915061243a88611f27565b9050919395979092949650565b60008282026109f484158061246457508385838161246157fe5b04145b6003611af3565b60008161247e5761247e60006004611af3565b8261248b575060006107ad565b670de0b6b3a7640000838102908482816124a157fe5b04146124b3576124b360006005611af3565b8281816124bc57fe5b04949350505050565b6040516334171a8560e01b815260009073__$85f042f43089d976c21d0d184f206dc395$__906334171a8590612506906008908890889088906004016153a4565b60206040518083038186803b15801561251e57600080fd5b505af4158015612532573d6000803e3d6000fd5b505050506040513d601f19601f820116820180604052508101906125569190614f1d565b949350505050565b6125858160008151811061256e57fe5b602002602001015161258060016127d5565b612447565b8160008151811061259257fe5b6020026020010181815250506122a3816001815181106125ae57fe5b602002602001015161258060006127d5565b6119038282613358565b60006060806000806125da611c8f565b91509150600073__$f513c357a1ce90135ae8c146e239c700e8$__63371c08f18b85856040518463ffffffff1660e01b815260040161261b9392919061520c565b60206040518083038186803b15801561263357600080fd5b505af4158015612647573d6000803e3d6000fd5b505050506040513d601f19601f8201168201806040525081019061266b9190614f1d565b905061267a898b83868661292a565b61268381613219565b6000806126908c8a61340f565b915091506126a883836126a16107eb565b6001613292565b600a8190556040517fe1d39caf039c7dc6f364b1e29d1e67c4e330003a43f4991d50cf3e8840d95eac916126de918691906154dd565b60405180910390a16040805160028082526060820183528492849291906020830190803683370190505097509750975050505050509750975097945050505050565b6127478160008151811061273057fe5b602002602001015161274260016127d5565b613449565b8160008151811061275457fe5b6020026020010181815250506122a38160018151811061277057fe5b602002602001015161274260006127d5565b62461bcd60e51b6000908152602060045260076024526642414c23000030600a808404818106603090810160081b95839006959095019082900491820690940160101b939093010160c81b604452606490fd5b600081612802577f00000000000000000000000000000000000000000000000000000000000000006107ad565b507f0000000000000000000000000000000000000000000000000000000000000000919050565b60006109f48383612447565b6040805160028082526060808301845292602083019080368337019050509050811561289457838160008151811061286957fe5b602002602001018181525050828160018151811061288357fe5b6020026020010181815250506109f4565b82816000815181106128a257fe5b60200260200101818152505083816001815181106128bc57fe5b6020026020010181815250509392505050565b600080821215612926576040805162461bcd60e51b815260206004820181905260248201527f53616665436173743a2076616c7565206d75737420626520706f736974697665604482015290519081900360640190fd5b5090565b6009546129368161209f565b801561294157508543115b15612a9a57600073__$f513c357a1ce90135ae8c146e239c700e8$__63bce135aa87868661296e8a61347c565b6040518563ffffffff1660e01b815260040161298d949392919061523d565b60206040518083038186803b1580156129a557600080fd5b505af41580156129b9573d6000803e3d6000fd5b505050506040513d601f19601f820116820180604052508101906129dd9190614f1d565b905060006129ea826134c0565b90506000612a00876129fb86612078565b6134cb565b90506000612a0d85612092565b90506000612a1a86612085565b90506000612a3382848787612a2e8c61206c565b6134e2565b9050808314612a9357612a468782613539565b9650612a528742613547565b9650866009819055507f12ade7b7dd29c5e3df1e883f0a092467d851b06c52f3c4484a443d40b9cd660181604051612a8a919061531f565b60405180910390a15b5050505050505b505050505050565b6000828202831580612abc575082848281612ab957fe5b04145b612acc57612acc60006003611af3565b80612adb5760009150506107ad565b670de0b6b3a764000060001982015b0460010191505092915050565b6000828211156119335761193360006001611af3565b6060860151604051633773625f60e21b815260009173__$f513c357a1ce90135ae8c146e239c700e8$__9163ddcd897c91612b55918a91908a908a908a908a906004016152ae565b60206040518083038186803b158015612b6d57600080fd5b505af4158015612b81573d6000803e3d6000fd5b505050506040513d601f19601f82011682018060405250810190611f1c9190614f1d565b60006109f483836132ea565b606086015160405163c8afb83560e01b815260009173__$f513c357a1ce90135ae8c146e239c700e8$__9163c8afb83591612b55918a91908a908a908a908a906004016152ae565b60006109f48383613449565b6000670de0b6b3a76400008210612c1d5760006107ad565b50670de0b6b3a76400000390565b600081612c3e57612c3e60006004611af3565b82612c4b575060006107ad565b670de0b6b3a764000083810290848281612c6157fe5b0414612c8557612c85670de0b6b3a7640000858381612c7c57fe5b04146005611af3565b826001820381612aea57fe5b6000612c9b610f58565b6001600160a01b031663aaabadc56040518163ffffffff1660e01b815260040160206040518083038186803b158015612cd357600080fd5b505afa158015612ce7573d6000803e3d6000fd5b505050506040513d601f19601f82011682018060405250810190610ada9190614a26565b60408051600280825260608083018452926000929190602083019080368337019050509050612d3a6001613555565b81600081518110612d4757fe5b602002602001018181525050612d5d6000613555565b81600181518110612d6a57fe5b6020908102919091010152905090565b670de0b6b3a764000060005b8351811015612ddc57612dd2612dcb858381518110612da157fe5b6020026020010151858481518110612db557fe5b60200260200101516135a990919063ffffffff16565b83906135f8565b9150600101612d86565b506107ad60008211610137611af3565b6000612df6611f33565b82604051602001808061190160f01b81525060020183815260200182815260200192505050604051602081830303815290604052805190602001209050919050565b600060606000612e4784613621565b9050612e626000826003811115612e5a57fe5b1460ce611af3565b6000612e6d85613640565b9050612e7b815160026120b9565b612e848161255e565b600080612e8f611c8f565b91509150600073__$f513c357a1ce90135ae8c146e239c700e8$__63371c08f18585856040518463ffffffff1660e01b8152600401612ed09392919061520c565b60206040518083038186803b158015612ee857600080fd5b505af4158015612efc573d6000803e3d6000fd5b505050506040513d601f19601f82011682018060405250810190612f209190614f1d565b90507faf65f1a72bf4f8bc48e8153858e1f7b307ce39c88361a677c0a79c2a1ae571ef81604051612f51919061531f565b60405180910390a16000612f66826002612447565b600a92909255509a92995091975050505050505050565b61190382826136f4565b505050565b6001600160a01b03918216600090815260016020908152604080832093909416825291909152205490565b600281511015612fc6576107e8565b600081600081518110612fd557fe5b602002602001015190506000600190505b8251811015612f87576000838281518110612ffd57fe5b60200260200101519050613026816001600160a01b0316846001600160a01b0316106065611af3565b9150600101612fe6565b600073ba1ba1ba1ba1ba1ba1ba1ba1ba1ba1ba1ba1ba1b61304f610f34565b6001600160a01b03161415801561306a575061306a83613789565b1561309257613077610f34565b6001600160a01b0316336001600160a01b03161490506107ad565b61309a612c91565b6001600160a01b0316639be2a8848484306040518463ffffffff1660e01b815260040180848152602001836001600160a01b03168152602001826001600160a01b03168152602001935050505060206040518083038186803b1580156130ff57600080fd5b505afa158015613113573d6000803e3d6000fd5b505050506040513d602081101561312957600080fd5b505190506107ad565b60006131418484111583611af3565b5050900390565b600080613154836137bb565b9050600080821361316d57652d79883d20008203613177565b652d79883d200082015b655af3107a40009005949350505050565b60006109f483838361381f565b60006109f48383601661381f565b1b90565b661fffffffffffff91909116901b90565b623fffff91909116901b90565b1c637fffffff1690565b4690565b600082821c623fffff16621fffff81136131ed5780612556565b623fffff19179392505050565b1c6103ff1690565b1c60019081161490565b1c6001600160401b031690565b60008060008061322b600a5486613836565b935093509350935061323f8484848461389f565b5050505050565b60006060600061325584613621565b9050600181600381111561326557fe5b141561327f5761327585856138bf565b909350915061328a565b61328a610150612782565b509250929050565b600081156132c45760006132b0846132aa8888612aa2565b90612c2b565b90506132bc86826138f1565b915050612556565b60006132d484610cd38888613909565b90506132e08682612af7565b9695505050505050565b60006132f98215156004611af3565b81838161330257fe5b049392505050565b60006107ad8260ea6131d3565b60006107ad8260b5613933565b60006107ad82609f6131d3565b60006107ad82606a613933565b60006107ad8260546131d3565b60006107ad82601f613933565b61336f6001600160a01b038316151561019b611af3565b61337b82600083612f87565b6001600160a01b0382166000908152602081905260409020546133a190826101a1613132565b6001600160a01b0383166000908152602081905260409020556002546133c79082613966565b6002556040805182815290516000916001600160a01b038516917fddf252ad1be2c89b69c2b068fc378daa952ba7f163c4a11628f55a4df523b3ef9181900360200190a35050565b60006060600061341e84613621565b9050600381600381111561342e57fe5b141561343e576132758585613974565b61328a610136612782565b60006134588215156004611af3565b82613465575060006107ad565b81600184038161347157fe5b0460010190506107ad565b6000600160ff1b82106129265760405162461bcd60e51b815260040180806020018281038252602881526020018061554f6028913960400191505060405180910390fd5b60006107ad82613148565b6000806134d784613148565b929092039392505050565b6000806134fe858585426134f58b6123d2565b93929190613999565b9050607842889003101580613513578661351c565b61351c876139f9565b600081815260086020526040902092909255509695505050505050565b60006109f48383604b613a06565b60006109f48383602c613a16565b600081613582577f00000000000000000000000000000000000000000000000000000000000000006107ad565b507f0000000000000000000000000000000000000000000000000000000000000000919050565b6000806135b68484613a28565b905060006135d06135c983612710613b29565b600161205a565b9050808210156135e5576000925050506107ad565b6135ef8282611923565b925050506107ad565b600082820261361284158061246457508385838161246157fe5b670de0b6b3a7640000816124bc565b600081806020019051602081101561363857600080fd5b505192915050565b606081806020019051604081101561365757600080fd5b81516020830180516040519294929383019291908464010000000082111561367e57600080fd5b90830190602082018581111561369357600080fd5b82518660208202830111640100000000821117156136b057600080fd5b82525081516020918201928201910280838360005b838110156136dd5781810151838201526020016136c5565b505050509190910160405250929695505050505050565b61370060008383612f87565b60025461370d908261205a565b6002556001600160a01b038216600090815260208190526040902054613733908261205a565b6001600160a01b0383166000818152602081815260408083209490945583518581529351929391927fddf252ad1be2c89b69c2b068fc378daa952ba7f163c4a11628f55a4df523b3ef9281900390910190a35050565b600061379b631c74c91760e11b610eb6565b8214806107ad57506137b36350dd6ed960e01b610eb6565b909114919050565b60006137cb600083136064611af3565b670c7d713b49da0000821380156137e95750670f43fc2c04ee000082125b1561380f57670de0b6b3a764000061380083613b6c565b8161380757fe5b059050610da9565b61381882613c8a565b9050610da9565b623fffff828116821b90821b198416179392505050565b60008060008060008060008061384a614029565b9350935093509350836000141561386f57600097508796509094509250613896915050565b6000806138868c8c61387f6107eb565b8989614298565b909a509850929650909450505050505b92959194509250565b83156138af576138af8285612f7d565b8215610aca57610aca8184612f7d565b6000606060006138ce84614333565b905060006138e486836138df6107eb565b614355565b9196919550909350505050565b6000828201838110156109f4576109f4600080611af3565b600082820283158061392357508284828161392057fe5b04145b6136125761361260006003611af3565b600082821c661fffffffffffff16660fffffffffffff81136139555780612556565b661fffffffffffff19179392505050565b60006109f483836001613132565b60006060600061398384614333565b905060006138e486836139946107eb565b6143f0565b6000806139a587611f27565b8303905060008187026139b789613317565b01905060008287026139c88a613331565b01905060008387026139d98b61334b565b0190506139eb89848a858b868c611ec5565b9a9950505050505050505050565b60006107ad82600161448b565b6103ff811b1992909216911b1790565b637fffffff811b1992909216911b1790565b600081613a3e5750670de0b6b3a76400006107ad565b82613a4b575060006107ad565b613a5c600160ff1b84106006611af3565b82613a82770bce5086492111aea88f4bb1ca6bcf584181ea8059f7653284106007611af3565b826000670c7d713b49da000083138015613aa35750670f43fc2c04ee000083125b15613ada576000613ab384613b6c565b9050670de0b6b3a764000080820784020583670de0b6b3a764000083050201915050613ae8565b81613ae484613c8a565b0290505b670de0b6b3a76400009005613b20680238fd42c5cf03ffff198212801590613b19575068070c1cc73b00c800008213155b6008611af3565b6132e081614493565b6000828202613b4384158061246457508385838161246157fe5b80613b525760009150506107ad565b670de0b6b3a76400006000198201046001019150506107ad565b670de0b6b3a7640000026000806a0c097ce7bc90715b34b9f160241b808401906ec097ce7bc90715b34b9f0fffffffff1985010281613ba757fe5b05905060006a0c097ce7bc90715b34b9f160241b82800205905081806a0c097ce7bc90715b34b9f160241b81840205915060038205016a0c097ce7bc90715b34b9f160241b82840205915060058205016a0c097ce7bc90715b34b9f160241b82840205915060078205016a0c097ce7bc90715b34b9f160241b82840205915060098205016a0c097ce7bc90715b34b9f160241b828402059150600b8205016a0c097ce7bc90715b34b9f160241b828402059150600d8205016a0c097ce7bc90715b34b9f160241b828402059150600f826002919005919091010295945050505050565b6000670de0b6b3a7640000821215613cc657613cbc826a0c097ce7bc90715b34b9f160241b81613cb657fe5b05613c8a565b6000039050610da9565b60007e1600ef3172e58d2e933ec884fde10064c63b5372d805e203c00000000000008312613d1757770195e54c5dd42177f53a27172fa9ec630262827000000000830592506806f05b59d3b2000000015b73011798004d755d3c8bc8e03204cf44619e0000008312613d4f576b1425982cf597cd205cef7380830592506803782dace9d9000000015b606492830292026e01855144814a7ff805980ff00840008312613d97576e01855144814a7ff805980ff008400068056bc75e2d63100000840205925068ad78ebc5ac62000000015b6b02df0ab5a80a22c61ab5a7008312613dd2576b02df0ab5a80a22c61ab5a70068056bc75e2d6310000084020592506856bc75e2d631000000015b693f1fce3da636ea5cf8508312613e0957693f1fce3da636ea5cf85068056bc75e2d631000008402059250682b5e3af16b18800000015b690127fa27722cc06cc5e28312613e4057690127fa27722cc06cc5e268056bc75e2d6310000084020592506815af1d78b58c400000015b68280e60114edb805d038312613e755768280e60114edb805d0368056bc75e2d631000008402059250680ad78ebc5ac6200000015b680ebc5fb417461211108312613ea057680ebc5fb4174612111068056bc75e2d631000009384020592015b6808f00f760a4b2db55d8312613ed5576808f00f760a4b2db55d68056bc75e2d6310000084020592506802b5e3af16b1880000015b6806f5f17757889379378312613f0a576806f5f177578893793768056bc75e2d63100000840205925068015af1d78b58c40000015b6806248f33704b2866038312613f3e576806248f33704b28660368056bc75e2d63100000840205925067ad78ebc5ac620000015b6805c548670b9510e7ac8312613f72576805c548670b9510e7ac68056bc75e2d6310000084020592506756bc75e2d6310000015b600068056bc75e2d63100000840168056bc75e2d631000008086030281613f9557fe5b059050600068056bc75e2d63100000828002059050818068056bc75e2d63100000818402059150600382050168056bc75e2d63100000828402059150600582050168056bc75e2d63100000828402059150600782050168056bc75e2d63100000828402059150600982050168056bc75e2d63100000828402059150600b820501600202606485820105979650505050505050565b600b5460405163bd02d0f560e01b81526000918291829182916001600160a01b039091169063bd02d0f59061407b907550524f544f434f4c5f535741505f4645455f5045524360501b9060040161531f565b60206040518083038186803b15801561409357600080fd5b505afa1580156140a7573d6000803e3d6000fd5b505050506040513d601f19601f820116820180604052508101906140cb9190614f1d565b600b5460405163bd02d0f560e01b81526001600160a01b039091169063bd02d0f59061411b907f50524f544f434f4c5f4645455f4759524f5f504f5254494f4e000000000000009060040161531f565b60206040518083038186803b15801561413357600080fd5b505afa158015614147573d6000803e3d6000fd5b505050506040513d601f19601f8201168201806040525081019061416b9190614f1d565b600b546040516321f8a72160e01b81526001600160a01b03909116906321f8a721906141ab906c4759524f5f545245415355525960981b9060040161531f565b60206040518083038186803b1580156141c357600080fd5b505afa1580156141d7573d6000803e3d6000fd5b505050506040513d601f19601f820116820180604052508101906141fb9190614a26565b600b546040516321f8a72160e01b81526001600160a01b03909116906321f8a7219061423a906b42414c5f545245415355525960a01b9060040161531f565b60206040518083038186803b15801561425257600080fd5b505afa158015614266573d6000803e3d6000fd5b505050506040513d601f19601f8201168201806040525081019061428a9190614a26565b935093509350935090919293565b6000808686116142ad57506000905080614329565b60006142cd856142c76142c08a8c612af7565b8990613909565b90613909565b905060006142e56142de898b612af7565b8790613909565b905060006142f38983612af7565b90506000614301848361246b565b9050600061430f8883613909565b9050600061431d8383612af7565b91975090955050505050505b9550959350505050565b600081806020019051604081101561434a57600080fd5b506020015192915050565b606083516001600160401b038111801561436e57600080fd5b50604051908082528060200260200182016040528015614398578160200160208202803683370190505b50905060005b8451811015611390576143d183610cd3868885815181106143bb57fe5b602002602001015161390990919063ffffffff16565b8282815181106143dd57fe5b602090810291909101015260010161439e565b606083516001600160401b038111801561440957600080fd5b50604051908082528060200260200182016040528015614433578160200160208202803683370190505b50905060005b84518110156113905761446c836132aa8688858151811061445657fe5b6020026020010151612aa290919063ffffffff16565b82828151811061447857fe5b6020908102919091010152600101614439565b016103ff1690565b60006144c2680238fd42c5cf03ffff1983121580156144bb575068070c1cc73b00c800008313155b6009611af3565b60008212156144ed576144d782600003614493565b6a0c097ce7bc90715b34b9f160241b8161380757fe5b60006806f05b59d3b2000000831261452d57506806f05b59d3b1ffffff1990910190770195e54c5dd42177f53a27172fa9ec630262827000000000614563565b6803782dace9d9000000831261455f57506803782dace9d8ffffff19909101906b1425982cf597cd205cef7380614563565b5060015b6064929092029168056bc75e2d6310000068ad78ebc5ac6200000084126145b35768ad78ebc5ac61ffffff199093019268056bc75e2d631000006e01855144814a7ff805980ff008400082020590505b6856bc75e2d63100000084126145ef576856bc75e2d630ffffff199093019268056bc75e2d631000006b02df0ab5a80a22c61ab5a70082020590505b682b5e3af16b18800000841261462957682b5e3af16b187fffff199093019268056bc75e2d63100000693f1fce3da636ea5cf85082020590505b6815af1d78b58c4000008412614663576815af1d78b58c3fffff199093019268056bc75e2d63100000690127fa27722cc06cc5e282020590505b680ad78ebc5ac6200000841261469c57680ad78ebc5ac61fffff199093019268056bc75e2d6310000068280e60114edb805d0382020590505b68056bc75e2d6310000084126146d55768056bc75e2d630fffff199093019268056bc75e2d63100000680ebc5fb4174612111082020590505b6802b5e3af16b1880000841261470e576802b5e3af16b187ffff199093019268056bc75e2d631000006808f00f760a4b2db55d82020590505b68015af1d78b58c4000084126147475768015af1d78b58c3ffff199093019268056bc75e2d631000006806f5f177578893793782020590505b68056bc75e2d631000008481019085906002908280020505918201919050600368056bc75e2d631000008783020505918201919050600468056bc75e2d631000008783020505918201919050600568056bc75e2d631000008783020505918201919050600668056bc75e2d631000008783020505918201919050600768056bc75e2d631000008783020505918201919050600868056bc75e2d631000008783020505918201919050600968056bc75e2d631000008783020505918201919050600a68056bc75e2d631000008783020505918201919050600b68056bc75e2d631000008783020505918201919050600c68056bc75e2d631000008783020505918201919050606468056bc75e2d63100000848402058502059695505050505050565b6040518060a0016040528060008152602001600081526020016000815260200160008152602001600081525090565b6040518060e001604052806148aa6148f7565b81526020016148b76148f7565b815260200160008152602001600081526020016000815260200160008152602001600081525090565b604080518082019091526000808252602082015290565b604051806040016040528060008152602001600081525090565b8035610da981615539565b600082601f83011261492c578081fd5b8151602061494161493c8361551c565b6154f9565b828152818101908583018385028701840188101561495d578586fd5b855b8581101561497b5781518452928401929084019060010161495f565b5090979650505050505050565b600082601f830112614998578081fd5b81356001600160401b038111156149ab57fe5b6149be601f8201601f19166020016154f9565b8181528460208386010111156149d2578283fd5b816020850160208301379081016020019190915292915050565b803560028110610da957600080fd5b803560038110610da957600080fd5b600060208284031215614a1b578081fd5b81356109f481615539565b600060208284031215614a37578081fd5b81516109f481615539565b60008060408385031215614a54578081fd5b8235614a5f81615539565b91506020830135614a6f81615539565b809150509250929050565b600080600060608486031215614a8e578081fd5b8335614a9981615539565b92506020840135614aa981615539565b929592945050506040919091013590565b600080600080600080600060e0888a031215614ad4578485fd5b8735614adf81615539565b96506020880135614aef81615539565b95506040880135945060608801359350608088013560ff81168114614b12578384fd5b9699959850939692959460a0840135945060c09093013592915050565b60008060408385031215614b41578182fd5b8235614b4c81615539565b946020939093013593505050565b600080600060608486031215614b6e578081fd5b83516001600160401b0380821115614b84578283fd5b818601915086601f830112614b97578283fd5b81516020614ba761493c8361551c565b82815281810190858301838502870184018c1015614bc3578788fd5b8796505b84871015614bee578051614bda81615539565b835260019690960195918301918301614bc7565b5091890151919750909350505080821115614c07578283fd5b50614c148682870161491c565b925050604084015190509250925092565b60006020808385031215614c37578182fd5b82356001600160401b0380821115614c4d578384fd5b818501915085601f830112614c60578384fd5b8135614c6e61493c8261551c565b818152848101908486016040808502870188018b1015614c8c578889fd5b8896505b84871015614ce45780828c031215614ca6578889fd5b80518181018181108882111715614cb957fe5b8252614cc4836149fb565b815282890135898201528452600196909601959287019290810190614c90565b50909998505050505050505050565b60006020808385031215614d05578182fd5b82356001600160401b0380821115614d1b578384fd5b818501915085601f830112614d2e578384fd5b8135614d3c61493c8261551c565b818152848101908486016060808502870188018b1015614d5a578889fd5b8896505b84871015614ce45780828c031215614d74578889fd5b604080518281018181108982111715614d8957fe5b8252614d94846149fb565b8152838a01358a82015281840135918101919091528452600196909601959287019290810190614d5e565b600060208284031215614dd0578081fd5b813580151581146109f4578182fd5b600080600080600080600060e0888a031215614df9578081fd5b87359650602080890135614e0c81615539565b96506040890135614e1c81615539565b955060608901356001600160401b0380821115614e37578384fd5b818b0191508b601f830112614e4a578384fd5b8135614e5861493c8261551c565b8082825285820191508585018f878886028801011115614e76578788fd5b8795505b83861015614e98578035835260019590950194918601918601614e7a565b509850505060808b0135955060a08b0135945060c08b0135925080831115614ebe578384fd5b5050614ecc8a828b01614988565b91505092959891949750929550565b600060208284031215614eec578081fd5b81356001600160e01b0319811681146109f4578182fd5b600060208284031215614f14578081fd5b6109f4826149fb565b600060208284031215614f2e578081fd5b5051919050565b60008060408385031215614f47578182fd5b505080516020909101519092909150565b600080600060608486031215614f6c578081fd5b83356001600160401b0380821115614f82578283fd5b8186019150610120808389031215614f98578384fd5b614fa1816154f9565b9050614fac836149ec565b8152614fba60208401614911565b6020820152614fcb60408401614911565b6040820152606083013560608201526080830135608082015260a083013560a0820152614ffa60c08401614911565b60c082015261500b60e08401614911565b60e08201526101008084013583811115615023578586fd5b61502f8a828701614988565b9183019190915250976020870135975060409096013595945050505050565b60006020828403121561505f578081fd5b5035919050565b60008060408385031215615078578182fd5b50508035926020909101359150565b6000815180845260208085019450808401835b838110156150b65781518752958201959082019060010161509a565b509495945050505050565b600381106150cb57fe5b9052565b6150da828251615154565b60208101516150ec6040840182615154565b5060408101516080830152606081015160a0830152608081015160c083015260a081015160e083015260c08101516101008301525050565b80518252602081015160208301526040810151604083015260608101516060830152608081015160808301525050565b80518252602090810151910152565b6000828483379101908152919050565b6001600160a01b0391909116815260200190565b6020808252825182820181905260009190848201906040850190845b818110156151bf578351835292840192918401916001016151a3565b50909695505050505050565b6000602082526109f46020830184615087565b6000604082526151f16040830185615087565b82810360208401526152038185615087565b95945050505050565b60006101e080835261522081840187615087565b9150506152306020830185615124565b61255660c08301846150cf565b600061020080835261525181840188615087565b9150506152616020830186615124565b61526e60c08301856150cf565b826101e083015295945050505050565b6000608082526152916080830186615087565b90506152a06020830185615154565b826060830152949350505050565b60006102608083526152c28184018a615087565b91505086602083015285151560408301526152e06060830186615124565b6152ee6101008301856150cf565b611f1c610220830184615154565b901515815260200190565b92151583526020830191909152604082015260600190565b90815260200190565b968752602087019590955260408601939093526060850191909152608084015260a083015260c082015260e00190565b9586526020860194909452604085019290925260608401521515608083015260a082015260c00190565b8381526060810161539660208301856150c1565b826040830152949350505050565b848152608081016153b860208301866150c1565b60408201939093526060015292915050565b600060a0820190508482526153e36020830185516150c1565b602084015160408381019190915290930151606082015260800152919050565b6000602080835283518082850152825b8181101561542f57858101830151858201604001528201615413565b818111156154405783604083870101525b50601f01601f1916929092016040019392505050565b6101c081016154658285615124565b61547360a083018451615154565b602083015161548560e0840182615154565b5060408301516101208301526060830151610140830152608083015161016083015260a083015161018083015260c08301516101a08301529392505050565b6000838252604060208301526125566040830184615087565b918252602082015260400190565b60ff91909116815260200190565b6040518181016001600160401b038111828210171561551457fe5b604052919050565b60006001600160401b0382111561552f57fe5b5060209081020190565b6001600160a01b03811681146107e857600080fdfe53616665436173743a2076616c756520646f65736e27742066697420696e20616e20696e74323536a26469706673582212202da7dab0e8ff524f194e04d873d4dd27a6dfa16ae1e136ee07c4656902fe8ce264736f6c63430007060033","language":"Solidity","natspec":{"kind":"dev","methods":{"DOMAIN_SEPARATOR()":{"details":"See {IERC20Permit-DOMAIN_SEPARATOR}."},"_paramsAlpha()":{"notice":"Parameters of the CEMM pool"},"allowance(address,address)":{"details":"Override to grant the Vault infinite allowance, causing for Pool Tokens to not require approval. This is sound as the Vault already provides authorization mechanisms when initiation token transfers, which this contract inherits."},"approve(address,uint256)":{"details":"See {IERC20-approve}. Requirements: - `spender` cannot be the zero address."},"balanceOf(address)":{"details":"See {IERC20-balanceOf}."},"decimals()":{"details":"Returns the number of decimals used to get its user representation. For example, if `decimals` equals `2`, a balance of `505` tokens should be displayed to a user as `5,05` (`505 / 10 ** 2`). Tokens usually opt for a value of 18, imitating the relationship between Ether and Wei. This is the value {ERC20} uses, unless {_setupDecimals} is called. NOTE: This information is only used for _display_ purposes: it in no way affects any of the arithmetic of the contract, including {IERC20-balanceOf} and {IERC20-transfer}."},"decreaseAllowance(address,uint256)":{"details":"Override to allow decreasing allowance by more than the current amount (setting it to zero)"},"dirtyUninitializedOracleSamples(uint256,uint256)":{"details":"Manually dirty oracle sample storage slots with dummy data, to reduce the gas cost of the future swaps that will initialize them. This function is only useful before the oracle has been fully initialized. `endIndex` is non-inclusive."},"enableOracle()":{"details":"Balancer Governance can always enable the Oracle, even if it was originally not enabled. This allows for Pools that unexpectedly drive much more volume and liquidity than expected to serve as Price Oracles. Note that the Oracle can only be enabled - it can never be disabled."},"getActionId(bytes4)":{"details":"Returns the action identifier associated with the external function described by `selector`."},"getInvariant()":{"details":"Returns the current value of the invariant."},"getLargestSafeQueryWindow()":{"details":"Returns largest time window that can be safely queried, where 'safely' means the Oracle is guaranteed to be able to produce a result and not revert. If a query has a non-zero `ago` value, then `secs + ago` (the oldest point in time) must be smaller than this value for 'safe' queries."},"getLatest(uint8)":{"details":"Returns latest sample of `variable`. Prices are represented as 18 decimal fixed point values."},"getPastAccumulators((uint8,uint256)[])":{"details":"Returns the accumulators corresponding to each of `queries`."},"getPausedState()":{"details":"Returns the current contract pause status, as well as the end times of the Pause Window and Buffer Period."},"getRate()":{"details":"This function returns the appreciation of one BPT relative to the underlying tokens. This starts at 1 when the pool is created and grows over time"},"getSample(uint256)":{"details":"Returns the raw data of the sample at `index`."},"getTimeWeightedAverage((uint8,uint256,uint256)[])":{"details":"Returns the time average weighted price corresponding to each of `queries`. Prices are represented as 18 decimal fixed point values."},"getTotalSamples()":{"details":"Returns the total number of samples."},"increaseAllowance(address,uint256)":{"details":"Atomically increases the allowance granted to `spender` by the caller. This is an alternative to {approve} that can be used as a mitigation for problems described in {IERC20-approve}. Emits an {Approval} event indicating the updated allowance. Requirements: - `spender` cannot be the zero address."},"name()":{"details":"Returns the name of the token."},"nonces(address)":{"details":"See {IERC20Permit-nonces}."},"onExitPool(bytes32,address,address,uint256[],uint256,uint256,bytes)":{"details":"Called by the Vault when a user calls `IVault.exitPool` to remove liquidity from this Pool. Returns how many tokens the Vault should deduct from the Pool's balances, as well as the amount of protocol fees the Pool owes to the Vault. The Vault will then take tokens from the Pool's balances and send them to `recipient`, as well as collect the reported amount in protocol fees, which the Pool should calculate based on `protocolSwapFeePercentage`. Protocol fees are charged on exit events to guarantee that users exiting the Pool have paid their share. `sender` is the account performing the exit (typically the pool shareholder), and `recipient` is the account to which the Vault will send the proceeds. `balances` contains the total token balances for each token the Pool registered in the Vault, in the same order that `IVault.getPoolTokens` would return. `lastChangeBlock` is the last block in which *any* of the Pool's registered tokens last changed its total balance. `userData` contains any pool-specific instructions needed to perform the calculations, such as the type of exit (e.g., proportional given an amount of pool shares, single-asset, multi-asset, etc.) Contracts implementing this function should check that the caller is indeed the Vault before performing any state-changing operations, such as burning pool shares."},"onJoinPool(bytes32,address,address,uint256[],uint256,uint256,bytes)":{"details":"Called by the Vault when a user calls `IVault.joinPool` to add liquidity to this Pool. Returns how many of each registered token the user should provide, as well as the amount of protocol fees the Pool owes to the Vault. The Vault will then take tokens from `sender` and add them to the Pool's balances, as well as collect the reported amount in protocol fees, which the pool should calculate based on `protocolSwapFeePercentage`. Protocol fees are reported and charged on join events so that the Pool is free of debt whenever new users join. `sender` is the account performing the join (from which tokens will be withdrawn), and `recipient` is the account designated to receive any benefits (typically pool shares). `balances` contains the total balances for each token the Pool registered in the Vault, in the same order that `IVault.getPoolTokens` would return. `lastChangeBlock` is the last block in which *any* of the Pool's registered tokens last changed its total balance. `userData` contains any pool-specific instructions needed to perform the calculations, such as the type of join (e.g., proportional given an amount of pool shares, single-asset, multi-asset, etc.) Contracts implementing this function should check that the caller is indeed the Vault before performing any state-changing operations, such as minting pool shares."},"onSwap((uint8,address,address,uint256,bytes32,uint256,address,address,bytes),uint256,uint256)":{"details":"Returns the current value of the invariant."},"permit(address,address,uint256,uint256,uint8,bytes32,bytes32)":{"details":"See {IERC20Permit-permit}."},"queryExit(bytes32,address,address,uint256[],uint256,uint256,bytes)":{"details":"Returns the amount of BPT that would be burned from `sender` if the `onExitPool` hook were called by the Vault with the same arguments, along with the number of tokens `recipient` would receive. This function is not meant to be called directly, but rather from a helper contract that fetches current Vault data, such as the protocol swap fee percentage and Pool balances. Like `IVault.queryBatchSwap`, this function is not view due to internal implementation details: the caller must explicitly use eth_call instead of eth_sendTransaction."},"queryJoin(bytes32,address,address,uint256[],uint256,uint256,bytes)":{"details":"Returns the amount of BPT that would be granted to `recipient` if the `onJoinPool` hook were called by the Vault with the same arguments, along with the number of tokens `sender` would have to supply. This function is not meant to be called directly, but rather from a helper contract that fetches current Vault data, such as the protocol swap fee percentage and Pool balances. Like `IVault.queryBatchSwap`, this function is not view due to internal implementation details: the caller must explicitly use eth_call instead of eth_sendTransaction."},"symbol()":{"details":"Returns the symbol of the token, usually a shorter version of the name."},"totalSupply()":{"details":"See {IERC20-totalSupply}."},"transfer(address,uint256)":{"details":"See {IERC20-transfer}. Requirements: - `recipient` cannot be the zero address. - the caller must have a balance of at least `amount`."},"transferFrom(address,address,uint256)":{"details":"Override to allow for 'infinite allowance' and let the token owner use `transferFrom` with no self-allowance"}},"version":1},"opcodes":"PUSH1 0x80 PUSH1 0x40 MSTORE CALLVALUE DUP1 ISZERO PUSH2 0x10 JUMPI PUSH1 0x0 DUP1 REVERT JUMPDEST POP PUSH1 0x4 CALLDATASIZE LT PUSH2 0x383 JUMPI PUSH1 0x0 CALLDATALOAD PUSH1 0xE0 SHR DUP1 PUSH4 0x70A08231 GT PUSH2 0x1DE JUMPI DUP1 PUSH4 0xAAABADC5 GT PUSH2 0x10F JUMPI DUP1 PUSH4 0xCE482387 GT PUSH2 0xAD JUMPI DUP1 PUSH4 0xDD62ED3E GT PUSH2 0x7C JUMPI DUP1 PUSH4 0xDD62ED3E EQ PUSH2 0x6DB JUMPI DUP1 PUSH4 0xDDB387C9 EQ PUSH2 0x6EE JUMPI DUP1 PUSH4 0xF89F27ED EQ PUSH2 0x6F6 JUMPI DUP1 PUSH4 0xFFD088EB EQ PUSH2 0x6FE JUMPI PUSH2 0x383 JUMP JUMPDEST DUP1 PUSH4 0xCE482387 EQ PUSH2 0x6A5 JUMPI DUP1 PUSH4 0xD505ACCF EQ PUSH2 0x6AD JUMPI DUP1 PUSH4 0xD5C096C4 EQ PUSH2 0x6C0 JUMPI DUP1 PUSH4 0xDC09F3AA EQ PUSH2 0x6D3 JUMPI PUSH2 0x383 JUMP JUMPDEST DUP1 PUSH4 0xBCC43692 GT PUSH2 0xE9 JUMPI DUP1 PUSH4 0xBCC43692 EQ PUSH2 0x685 JUMPI DUP1 PUSH4 0xC0FF1A15 EQ PUSH2 0x68D JUMPI DUP1 PUSH4 0xC2C3BD6A EQ PUSH2 0x695 JUMPI DUP1 PUSH4 0xC4FEA7C9 EQ PUSH2 0x69D JUMPI PUSH2 0x383 JUMP JUMPDEST DUP1 PUSH4 0xAAABADC5 EQ PUSH2 0x662 JUMPI DUP1 PUSH4 0xB10BE739 EQ PUSH2 0x66A JUMPI DUP1 PUSH4 0xB48B5B40 EQ PUSH2 0x67D JUMPI PUSH2 0x383 JUMP JUMPDEST DUP1 PUSH4 0x893D20E8 GT PUSH2 0x17C JUMPI DUP1 PUSH4 0x9B02CDDE GT PUSH2 0x156 JUMPI DUP1 PUSH4 0x9B02CDDE EQ PUSH2 0x621 JUMPI DUP1 PUSH4 0x9D2C110C EQ PUSH2 0x629 JUMPI DUP1 PUSH4 0xA457C2D7 EQ PUSH2 0x63C JUMPI DUP1 PUSH4 0xA9059CBB EQ PUSH2 0x64F JUMPI PUSH2 0x383 JUMP JUMPDEST DUP1 PUSH4 0x893D20E8 EQ PUSH2 0x609 JUMPI DUP1 PUSH4 0x8D928AF8 EQ PUSH2 0x611 JUMPI DUP1 PUSH4 0x95D89B41 EQ PUSH2 0x619 JUMPI PUSH2 0x383 JUMP JUMPDEST DUP1 PUSH4 0x7EF355CD GT PUSH2 0x1B8 JUMPI DUP1 PUSH4 0x7EF355CD EQ PUSH2 0x5D3 JUMPI DUP1 PUSH4 0x8143EB76 EQ PUSH2 0x5DB JUMPI DUP1 PUSH4 0x851C1BB3 EQ PUSH2 0x5E3 JUMPI DUP1 PUSH4 0x87EC6817 EQ PUSH2 0x5F6 JUMPI PUSH2 0x383 JUMP JUMPDEST DUP1 PUSH4 0x70A08231 EQ PUSH2 0x58C JUMPI DUP1 PUSH4 0x74F3B009 EQ PUSH2 0x59F JUMPI DUP1 PUSH4 0x7ECEBE00 EQ PUSH2 0x5C0 JUMPI PUSH2 0x383 JUMP JUMPDEST DUP1 PUSH4 0x3644E515 GT PUSH2 0x2B8 JUMPI DUP1 PUSH4 0x58ECBCC3 GT PUSH2 0x256 JUMPI DUP1 PUSH4 0x60D1507C GT PUSH2 0x230 JUMPI DUP1 PUSH4 0x60D1507C EQ PUSH2 0x536 JUMPI DUP1 PUSH4 0x66E9DDF4 EQ PUSH2 0x55C JUMPI DUP1 PUSH4 0x679AEFCE EQ PUSH2 0x564 JUMPI DUP1 PUSH4 0x6B843239 EQ PUSH2 0x56C JUMPI PUSH2 0x383 JUMP JUMPDEST DUP1 PUSH4 0x58ECBCC3 EQ PUSH2 0x505 JUMPI DUP1 PUSH4 0x591A137F EQ PUSH2 0x50D JUMPI DUP1 PUSH4 0x6028BFD4 EQ PUSH2 0x515 JUMPI PUSH2 0x383 JUMP JUMPDEST DUP1 PUSH4 0x39509351 GT PUSH2 0x292 JUMPI DUP1 PUSH4 0x39509351 EQ PUSH2 0x4BB JUMPI DUP1 PUSH4 0x44BBDB55 EQ PUSH2 0x4CE JUMPI DUP1 PUSH4 0x4A6B0B15 EQ PUSH2 0x4E3 JUMPI DUP1 PUSH4 0x55C67628 EQ PUSH2 0x4FD JUMPI PUSH2 0x383 JUMP JUMPDEST DUP1 PUSH4 0x3644E515 EQ PUSH2 0x498 JUMPI DUP1 PUSH4 0x38E9922E EQ PUSH2 0x4A0 JUMPI DUP1 PUSH4 0x38FFF2D0 EQ PUSH2 0x4B3 JUMPI PUSH2 0x383 JUMP JUMPDEST DUP1 PUSH4 0x1DCCD830 GT PUSH2 0x325 JUMPI DUP1 PUSH4 0x292C914A GT PUSH2 0x2FF JUMPI DUP1 PUSH4 0x292C914A EQ PUSH2 0x452 JUMPI DUP1 PUSH4 0x313CE567 EQ PUSH2 0x45A JUMPI DUP1 PUSH4 0x31783E5E EQ PUSH2 0x46F JUMPI DUP1 PUSH4 0x3331BC36 EQ PUSH2 0x485 JUMPI PUSH2 0x383 JUMP JUMPDEST DUP1 PUSH4 0x1DCCD830 EQ PUSH2 0x417 JUMPI DUP1 PUSH4 0x2024CF41 EQ PUSH2 0x437 JUMPI DUP1 PUSH4 0x23B872DD EQ PUSH2 0x43F JUMPI PUSH2 0x383 JUMP JUMPDEST DUP1 PUSH4 0x16C38B3C GT PUSH2 0x361 JUMPI DUP1 PUSH4 0x16C38B3C EQ PUSH2 0x3DB JUMPI DUP1 PUSH4 0x18160DDD EQ PUSH2 0x3F0 JUMPI DUP1 PUSH4 0x1C0DE051 EQ PUSH2 0x3F8 JUMPI DUP1 PUSH4 0x1D86BB99 EQ PUSH2 0x40F JUMPI PUSH2 0x383 JUMP JUMPDEST DUP1 PUSH4 0x6FDDE03 EQ PUSH2 0x388 JUMPI DUP1 PUSH4 0x95EA7B3 EQ PUSH2 0x3A6 JUMPI DUP1 PUSH4 0x1469ED6C EQ PUSH2 0x3C6 JUMPI JUMPDEST PUSH1 0x0 DUP1 REVERT JUMPDEST PUSH2 0x390 PUSH2 0x706 JUMP JUMPDEST PUSH1 0x40 MLOAD PUSH2 0x39D SWAP2 SWAP1 PUSH2 0x5403 JUMP JUMPDEST PUSH1 0x40 MLOAD DUP1 SWAP2 SUB SWAP1 RETURN JUMPDEST PUSH2 0x3B9 PUSH2 0x3B4 CALLDATASIZE PUSH1 0x4 PUSH2 0x4B2F JUMP JUMPDEST PUSH2 0x79C JUMP JUMPDEST PUSH1 0x40 MLOAD PUSH2 0x39D SWAP2 SWAP1 PUSH2 0x52FC JUMP JUMPDEST PUSH2 0x3CE PUSH2 0x7B3 JUMP JUMPDEST PUSH1 0x40 MLOAD PUSH2 0x39D SWAP2 SWAP1 PUSH2 0x531F JUMP JUMPDEST PUSH2 0x3EE PUSH2 0x3E9 CALLDATASIZE PUSH1 0x4 PUSH2 0x4DBF JUMP JUMPDEST PUSH2 0x7D7 JUMP JUMPDEST STOP JUMPDEST PUSH2 0x3CE PUSH2 0x7EB JUMP JUMPDEST PUSH2 0x400 PUSH2 0x7F1 JUMP JUMPDEST PUSH1 0x40 MLOAD PUSH2 0x39D SWAP4 SWAP3 SWAP2 SWAP1 PUSH2 0x5307 JUMP JUMPDEST PUSH2 0x3CE PUSH2 0x81A JUMP JUMPDEST PUSH2 0x42A PUSH2 0x425 CALLDATASIZE PUSH1 0x4 PUSH2 0x4CF3 JUMP JUMPDEST PUSH2 0x83E JUMP JUMPDEST PUSH1 0x40 MLOAD PUSH2 0x39D SWAP2 SWAP1 PUSH2 0x51CB JUMP JUMPDEST PUSH2 0x3CE PUSH2 0x961 JUMP JUMPDEST PUSH2 0x3B9 PUSH2 0x44D CALLDATASIZE PUSH1 0x4 PUSH2 0x4A7A JUMP JUMPDEST PUSH2 0x985 JUMP JUMPDEST PUSH2 0x3EE PUSH2 0x9FB JUMP JUMPDEST PUSH2 0x462 PUSH2 0xA2F JUMP JUMPDEST PUSH1 0x40 MLOAD PUSH2 0x39D SWAP2 SWAP1 PUSH2 0x54EB JUMP JUMPDEST PUSH2 0x477 PUSH2 0xA38 JUMP JUMPDEST PUSH1 0x40 MLOAD PUSH2 0x39D SWAP3 SWAP2 SWAP1 PUSH2 0x5456 JUMP JUMPDEST PUSH2 0x3EE PUSH2 0x493 CALLDATASIZE PUSH1 0x4 PUSH2 0x5066 JUMP JUMPDEST PUSH2 0xA58 JUMP JUMPDEST PUSH2 0x3CE PUSH2 0xAD0 JUMP JUMPDEST PUSH2 0x3EE PUSH2 0x4AE CALLDATASIZE PUSH1 0x4 PUSH2 0x504E JUMP JUMPDEST PUSH2 0xADF JUMP JUMPDEST PUSH2 0x3CE PUSH2 0xAF8 JUMP JUMPDEST PUSH2 0x3B9 PUSH2 0x4C9 CALLDATASIZE PUSH1 0x4 PUSH2 0x4B2F JUMP JUMPDEST PUSH2 0xB1C JUMP JUMPDEST PUSH2 0x4D6 PUSH2 0xB57 JUMP JUMPDEST PUSH1 0x40 MLOAD PUSH2 0x39D SWAP2 SWAP1 PUSH2 0x5173 JUMP JUMPDEST PUSH2 0x4EB PUSH2 0xB66 JUMP JUMPDEST PUSH1 0x40 MLOAD PUSH2 0x39D SWAP7 SWAP6 SWAP5 SWAP4 SWAP3 SWAP2 SWAP1 PUSH2 0x5358 JUMP JUMPDEST PUSH2 0x3CE PUSH2 0xBC1 JUMP JUMPDEST PUSH2 0x3CE PUSH2 0xBCE JUMP JUMPDEST PUSH2 0x3CE PUSH2 0xBF2 JUMP JUMPDEST PUSH2 0x528 PUSH2 0x523 CALLDATASIZE PUSH1 0x4 PUSH2 0x4DDF JUMP JUMPDEST PUSH2 0xC16 JUMP JUMPDEST PUSH1 0x40 MLOAD PUSH2 0x39D SWAP3 SWAP2 SWAP1 PUSH2 0x54C4 JUMP JUMPDEST PUSH2 0x549 PUSH2 0x544 CALLDATASIZE PUSH1 0x4 PUSH2 0x504E JUMP JUMPDEST PUSH2 0xC47 JUMP JUMPDEST PUSH1 0x40 MLOAD PUSH2 0x39D SWAP8 SWAP7 SWAP6 SWAP5 SWAP4 SWAP3 SWAP2 SWAP1 PUSH2 0x5328 JUMP JUMPDEST PUSH2 0x3CE PUSH2 0xC90 JUMP JUMPDEST PUSH2 0x3CE PUSH2 0xCB4 JUMP JUMPDEST PUSH2 0x57F PUSH2 0x57A CALLDATASIZE PUSH1 0x4 PUSH2 0x4C25 JUMP JUMPDEST PUSH2 0xCD9 JUMP JUMPDEST PUSH1 0x40 MLOAD PUSH2 0x39D SWAP2 SWAP1 PUSH2 0x5187 JUMP JUMPDEST PUSH2 0x3CE PUSH2 0x59A CALLDATASIZE PUSH1 0x4 PUSH2 0x4A0A JUMP JUMPDEST PUSH2 0xD8F JUMP JUMPDEST PUSH2 0x5B2 PUSH2 0x5AD CALLDATASIZE PUSH1 0x4 PUSH2 0x4DDF JUMP JUMPDEST PUSH2 0xDAE JUMP JUMPDEST PUSH1 0x40 MLOAD PUSH2 0x39D SWAP3 SWAP2 SWAP1 PUSH2 0x51DE JUMP JUMPDEST PUSH2 0x3CE PUSH2 0x5CE CALLDATASIZE PUSH1 0x4 PUSH2 0x4A0A JUMP JUMPDEST PUSH2 0xE53 JUMP JUMPDEST PUSH2 0x3CE PUSH2 0xE6E JUMP JUMPDEST PUSH2 0x3CE PUSH2 0xE92 JUMP JUMPDEST PUSH2 0x3CE PUSH2 0x5F1 CALLDATASIZE PUSH1 0x4 PUSH2 0x4EDB JUMP JUMPDEST PUSH2 0xEB6 JUMP JUMPDEST PUSH2 0x528 PUSH2 0x604 CALLDATASIZE PUSH1 0x4 PUSH2 0x4DDF JUMP JUMPDEST PUSH2 0xF0F JUMP JUMPDEST PUSH2 0x4D6 PUSH2 0xF34 JUMP JUMPDEST PUSH2 0x4D6 PUSH2 0xF58 JUMP JUMPDEST PUSH2 0x390 PUSH2 0xF7C JUMP JUMPDEST PUSH2 0x3CE PUSH2 0xFDD JUMP JUMPDEST PUSH2 0x3CE PUSH2 0x637 CALLDATASIZE PUSH1 0x4 PUSH2 0x4F58 JUMP JUMPDEST PUSH2 0xFE3 JUMP JUMPDEST PUSH2 0x3B9 PUSH2 0x64A CALLDATASIZE PUSH1 0x4 PUSH2 0x4B2F JUMP JUMPDEST PUSH2 0x1398 JUMP JUMPDEST PUSH2 0x3B9 PUSH2 0x65D CALLDATASIZE PUSH1 0x4 PUSH2 0x4B2F JUMP JUMPDEST PUSH2 0x13D6 JUMP JUMPDEST PUSH2 0x4D6 PUSH2 0x13E3 JUMP JUMPDEST PUSH2 0x3CE PUSH2 0x678 CALLDATASIZE PUSH1 0x4 PUSH2 0x4F03 JUMP JUMPDEST PUSH2 0x13ED JUMP JUMPDEST PUSH2 0x3CE PUSH2 0x1482 JUMP JUMPDEST PUSH2 0x3CE PUSH2 0x1488 JUMP JUMPDEST PUSH2 0x3CE PUSH2 0x14AC JUMP JUMPDEST PUSH2 0x3CE PUSH2 0x1567 JUMP JUMPDEST PUSH2 0x3CE PUSH2 0x158B JUMP JUMPDEST PUSH2 0x3CE PUSH2 0x15AF JUMP JUMPDEST PUSH2 0x3EE PUSH2 0x6BB CALLDATASIZE PUSH1 0x4 PUSH2 0x4ABA JUMP JUMPDEST PUSH2 0x15D3 JUMP JUMPDEST PUSH2 0x5B2 PUSH2 0x6CE CALLDATASIZE PUSH1 0x4 PUSH2 0x4DDF JUMP JUMPDEST PUSH2 0x1743 JUMP JUMPDEST PUSH2 0x3CE PUSH2 0x1863 JUMP JUMPDEST PUSH2 0x3CE PUSH2 0x6E9 CALLDATASIZE PUSH1 0x4 PUSH2 0x4A42 JUMP JUMPDEST PUSH2 0x1887 JUMP JUMPDEST PUSH2 0x3CE PUSH2 0x18C4 JUMP JUMPDEST PUSH2 0x42A PUSH2 0x18E8 JUMP JUMPDEST PUSH2 0x3CE PUSH2 0x18F2 JUMP JUMPDEST PUSH1 0x3 DUP1 SLOAD PUSH1 0x40 DUP1 MLOAD PUSH1 0x20 PUSH1 0x1F PUSH1 0x2 PUSH1 0x0 NOT PUSH2 0x100 PUSH1 0x1 DUP9 AND ISZERO MUL ADD SWAP1 SWAP6 AND SWAP5 SWAP1 SWAP5 DIV SWAP4 DUP5 ADD DUP2 SWAP1 DIV DUP2 MUL DUP3 ADD DUP2 ADD SWAP1 SWAP3 MSTORE DUP3 DUP2 MSTORE PUSH1 0x60 SWAP4 SWAP1 SWAP3 SWAP1 SWAP2 DUP4 ADD DUP3 DUP3 DUP1 ISZERO PUSH2 0x792 JUMPI DUP1 PUSH1 0x1F LT PUSH2 0x767 JUMPI PUSH2 0x100 DUP1 DUP4 SLOAD DIV MUL DUP4 MSTORE SWAP2 PUSH1 0x20 ADD SWAP2 PUSH2 0x792 JUMP JUMPDEST DUP3 ADD SWAP2 SWAP1 PUSH1 0x0 MSTORE PUSH1 0x20 PUSH1 0x0 KECCAK256 SWAP1 JUMPDEST DUP2 SLOAD DUP2 MSTORE SWAP1 PUSH1 0x1 ADD SWAP1 PUSH1 0x20 ADD DUP1 DUP4 GT PUSH2 0x775 JUMPI DUP3 SWAP1 SUB PUSH1 0x1F AND DUP3 ADD SWAP2 JUMPDEST POP POP POP POP POP SWAP1 POP SWAP1 JUMP JUMPDEST PUSH1 0x0 PUSH2 0x7A9 CALLER DUP5 DUP5 PUSH2 0x1975 JUMP JUMPDEST POP PUSH1 0x1 JUMPDEST SWAP3 SWAP2 POP POP JUMP JUMPDEST PUSH32 0x0 DUP2 JUMP JUMPDEST PUSH2 0x7DF PUSH2 0x19D7 JUMP JUMPDEST PUSH2 0x7E8 DUP2 PUSH2 0x1A05 JUMP JUMPDEST POP JUMP JUMPDEST PUSH1 0x2 SLOAD SWAP1 JUMP JUMPDEST PUSH1 0x0 DUP1 PUSH1 0x0 PUSH2 0x7FE PUSH2 0x1A81 JUMP JUMPDEST ISZERO SWAP3 POP PUSH2 0x809 PUSH2 0x1A9E JUMP JUMPDEST SWAP2 POP PUSH2 0x813 PUSH2 0x1AC2 JUMP JUMPDEST SWAP1 POP SWAP1 SWAP2 SWAP3 JUMP JUMPDEST PUSH32 0x0 DUP2 JUMP JUMPDEST PUSH1 0x60 DUP2 MLOAD PUSH1 0x1 PUSH1 0x1 PUSH1 0x40 SHL SUB DUP2 GT DUP1 ISZERO PUSH2 0x857 JUMPI PUSH1 0x0 DUP1 REVERT JUMPDEST POP PUSH1 0x40 MLOAD SWAP1 DUP1 DUP3 MSTORE DUP1 PUSH1 0x20 MUL PUSH1 0x20 ADD DUP3 ADD PUSH1 0x40 MSTORE DUP1 ISZERO PUSH2 0x881 JUMPI DUP2 PUSH1 0x20 ADD PUSH1 0x20 DUP3 MUL DUP1 CALLDATASIZE DUP4 CALLDATACOPY ADD SWAP1 POP JUMPDEST POP SWAP1 POP PUSH1 0x0 PUSH2 0x88E PUSH2 0x1AE6 JUMP JUMPDEST SWAP1 POP PUSH1 0x0 JUMPDEST DUP4 MLOAD DUP2 LT ISZERO PUSH2 0x95A JUMPI PUSH20 0x0 PUSH4 0x79EAEF82 PUSH1 0x8 DUP7 DUP5 DUP2 MLOAD DUP2 LT PUSH2 0x8C4 JUMPI INVALID JUMPDEST PUSH1 0x20 MUL PUSH1 0x20 ADD ADD MLOAD DUP6 PUSH1 0x40 MLOAD DUP5 PUSH4 0xFFFFFFFF AND PUSH1 0xE0 SHL DUP2 MSTORE PUSH1 0x4 ADD PUSH2 0x8EB SWAP4 SWAP3 SWAP2 SWAP1 PUSH2 0x53CA JUMP JUMPDEST PUSH1 0x20 PUSH1 0x40 MLOAD DUP1 DUP4 SUB DUP2 DUP7 DUP1 EXTCODESIZE ISZERO DUP1 ISZERO PUSH2 0x903 JUMPI PUSH1 0x0 DUP1 REVERT JUMPDEST POP GAS DELEGATECALL ISZERO DUP1 ISZERO PUSH2 0x917 JUMPI RETURNDATASIZE PUSH1 0x0 DUP1 RETURNDATACOPY RETURNDATASIZE PUSH1 0x0 REVERT JUMPDEST POP POP POP POP PUSH1 0x40 MLOAD RETURNDATASIZE PUSH1 0x1F NOT PUSH1 0x1F DUP3 ADD AND DUP3 ADD DUP1 PUSH1 0x40 MSTORE POP DUP2 ADD SWAP1 PUSH2 0x93B SWAP2 SWAP1 PUSH2 0x4F1D JUMP JUMPDEST DUP4 DUP3 DUP2 MLOAD DUP2 LT PUSH2 0x947 JUMPI INVALID JUMPDEST PUSH1 0x20 SWAP1 DUP2 MUL SWAP2 SWAP1 SWAP2 ADD ADD MSTORE PUSH1 0x1 ADD PUSH2 0x893 JUMP JUMPDEST POP POP SWAP2 SWAP1 POP JUMP JUMPDEST PUSH32 0x0 DUP2 JUMP JUMPDEST PUSH1 0x0 DUP1 PUSH2 0x992 DUP6 CALLER PUSH2 0x1887 JUMP JUMPDEST SWAP1 POP PUSH2 0x9B6 CALLER PUSH1 0x1 PUSH1 0x1 PUSH1 0xA0 SHL SUB DUP8 AND EQ DUP1 PUSH2 0x9AE JUMPI POP DUP4 DUP3 LT ISZERO JUMPDEST PUSH2 0x19E PUSH2 0x1AF3 JUMP JUMPDEST PUSH2 0x9C1 DUP6 DUP6 DUP6 PUSH2 0x1B01 JUMP JUMPDEST CALLER PUSH1 0x1 PUSH1 0x1 PUSH1 0xA0 SHL SUB DUP7 AND EQ DUP1 ISZERO SWAP1 PUSH2 0x9DC JUMPI POP PUSH1 0x0 NOT DUP2 EQ ISZERO JUMPDEST ISZERO PUSH2 0x9EE JUMPI PUSH2 0x9EE DUP6 CALLER DUP6 DUP5 SUB PUSH2 0x1975 JUMP JUMPDEST PUSH1 0x1 SWAP2 POP POP JUMPDEST SWAP4 SWAP3 POP POP POP JUMP JUMPDEST PUSH2 0xA03 PUSH2 0x1BE9 JUMP JUMPDEST PUSH2 0xA0B PUSH2 0x19D7 JUMP JUMPDEST PUSH2 0xA15 PUSH1 0x1 PUSH2 0x1BFC JUMP JUMPDEST PUSH1 0x0 PUSH2 0xA1F PUSH2 0x7EB JUMP JUMPDEST GT ISZERO PUSH2 0xA2D JUMPI PUSH2 0xA2D PUSH2 0x1C47 JUMP JUMPDEST JUMP JUMPDEST PUSH1 0x5 SLOAD PUSH1 0xFF AND SWAP1 JUMP JUMPDEST PUSH2 0xA40 PUSH2 0x4868 JUMP JUMPDEST PUSH2 0xA48 PUSH2 0x4897 JUMP JUMPDEST PUSH2 0xA50 PUSH2 0x1C8F JUMP JUMPDEST SWAP2 POP SWAP2 POP SWAP1 SWAP2 JUMP JUMPDEST PUSH2 0xA73 DUP2 DUP4 LT DUP1 ISZERO PUSH2 0xA6C JUMPI POP PUSH2 0x400 DUP3 GT ISZERO JUMPDEST PUSH1 0x64 PUSH2 0x1AF3 JUMP JUMPDEST PUSH1 0x0 PUSH2 0xA88 PUSH1 0x1 PUSH1 0x0 DUP1 PUSH1 0x0 DUP1 PUSH1 0x0 DUP1 PUSH2 0x1EC5 JUMP JUMPDEST SWAP1 POP DUP3 JUMPDEST DUP3 DUP2 LT ISZERO PUSH2 0xACA JUMPI PUSH1 0x0 DUP2 DUP2 MSTORE PUSH1 0x8 PUSH1 0x20 MSTORE PUSH1 0x40 SWAP1 KECCAK256 SLOAD PUSH2 0xAAC SWAP1 PUSH2 0x1F27 JUMP JUMPDEST PUSH2 0xAC2 JUMPI PUSH1 0x0 DUP2 DUP2 MSTORE PUSH1 0x8 PUSH1 0x20 MSTORE PUSH1 0x40 SWAP1 KECCAK256 DUP3 SWAP1 SSTORE JUMPDEST PUSH1 0x1 ADD PUSH2 0xA8C JUMP JUMPDEST POP POP POP POP JUMP JUMPDEST PUSH1 0x0 PUSH2 0xADA PUSH2 0x1F33 JUMP JUMPDEST SWAP1 POP SWAP1 JUMP JUMPDEST PUSH2 0xAE7 PUSH2 0x19D7 JUMP JUMPDEST PUSH2 0xAEF PUSH2 0x1BE9 JUMP JUMPDEST PUSH2 0x7E8 DUP2 PUSH2 0x1FF1 JUMP JUMPDEST PUSH32 0x0 SWAP1 JUMP JUMPDEST CALLER PUSH1 0x0 DUP2 DUP2 MSTORE PUSH1 0x1 PUSH1 0x20 SWAP1 DUP2 MSTORE PUSH1 0x40 DUP1 DUP4 KECCAK256 PUSH1 0x1 PUSH1 0x1 PUSH1 0xA0 SHL SUB DUP8 AND DUP5 MSTORE SWAP1 SWAP2 MSTORE DUP2 KECCAK256 SLOAD SWAP1 SWAP2 PUSH2 0x7A9 SWAP2 DUP6 SWAP1 PUSH2 0xB52 SWAP1 DUP7 PUSH2 0x205A JUMP JUMPDEST PUSH2 0x1975 JUMP JUMPDEST PUSH1 0xB SLOAD PUSH1 0x1 PUSH1 0x1 PUSH1 0xA0 SHL SUB AND DUP2 JUMP JUMPDEST PUSH1 0x0 DUP1 PUSH1 0x0 DUP1 PUSH1 0x0 DUP1 PUSH1 0x0 PUSH1 0x9 SLOAD SWAP1 POP PUSH2 0xB7F DUP2 PUSH2 0x206C JUMP JUMPDEST SWAP7 POP PUSH2 0xB8A DUP2 PUSH2 0x2078 JUMP JUMPDEST SWAP6 POP PUSH2 0xB95 DUP2 PUSH2 0x2085 JUMP JUMPDEST SWAP5 POP PUSH2 0xBA0 DUP2 PUSH2 0x2092 JUMP JUMPDEST SWAP4 POP PUSH2 0xBAB DUP2 PUSH2 0x209F JUMP JUMPDEST SWAP3 POP PUSH2 0xBB6 DUP2 PUSH2 0x20AC JUMP JUMPDEST SWAP2 POP POP SWAP1 SWAP2 SWAP3 SWAP4 SWAP5 SWAP6 JUMP JUMPDEST PUSH1 0x0 PUSH2 0xADA PUSH1 0x9 SLOAD PUSH2 0x20AC JUMP JUMPDEST PUSH32 0x0 DUP2 JUMP JUMPDEST PUSH32 0x0 DUP2 JUMP JUMPDEST PUSH1 0x0 PUSH1 0x60 PUSH2 0xC26 DUP7 MLOAD PUSH1 0x2 PUSH2 0x20B9 JUMP JUMPDEST PUSH2 0xC3B DUP10 DUP10 DUP10 DUP10 DUP10 DUP10 DUP10 PUSH2 0x20C6 PUSH2 0x2241 PUSH2 0x22BF JUMP JUMPDEST SWAP8 POP SWAP8 SWAP6 POP POP POP POP POP POP JUMP JUMPDEST PUSH1 0x0 DUP1 PUSH1 0x0 DUP1 PUSH1 0x0 DUP1 PUSH1 0x0 PUSH2 0xC62 PUSH2 0x400 DUP10 LT PUSH2 0x13B PUSH2 0x1AF3 JUMP JUMPDEST PUSH1 0x0 PUSH2 0xC6D DUP10 PUSH2 0x23D2 JUMP JUMPDEST SWAP1 POP PUSH2 0xC78 DUP2 PUSH2 0x23E4 JUMP JUMPDEST SWAP6 SWAP16 SWAP5 SWAP15 POP SWAP3 SWAP13 POP SWAP1 SWAP11 POP SWAP9 POP SWAP7 POP SWAP1 SWAP5 POP SWAP3 POP POP POP JUMP JUMPDEST PUSH32 0x0 DUP2 JUMP JUMPDEST PUSH1 0x0 PUSH2 0xADA PUSH2 0xCC1 PUSH2 0x7EB JUMP JUMPDEST PUSH2 0xCD3 PUSH2 0xCCC PUSH2 0x14AC JUMP JUMPDEST PUSH1 0x2 PUSH2 0x2447 JUMP JUMPDEST SWAP1 PUSH2 0x246B JUMP JUMPDEST PUSH1 0x60 DUP2 MLOAD PUSH1 0x1 PUSH1 0x1 PUSH1 0x40 SHL SUB DUP2 GT DUP1 ISZERO PUSH2 0xCF2 JUMPI PUSH1 0x0 DUP1 REVERT JUMPDEST POP PUSH1 0x40 MLOAD SWAP1 DUP1 DUP3 MSTORE DUP1 PUSH1 0x20 MUL PUSH1 0x20 ADD DUP3 ADD PUSH1 0x40 MSTORE DUP1 ISZERO PUSH2 0xD1C JUMPI DUP2 PUSH1 0x20 ADD PUSH1 0x20 DUP3 MUL DUP1 CALLDATASIZE DUP4 CALLDATACOPY ADD SWAP1 POP JUMPDEST POP SWAP1 POP PUSH1 0x0 PUSH2 0xD29 PUSH2 0x1AE6 JUMP JUMPDEST SWAP1 POP PUSH2 0xD33 PUSH2 0x48E0 JUMP JUMPDEST PUSH1 0x0 JUMPDEST DUP5 MLOAD DUP2 LT ISZERO PUSH2 0xD87 JUMPI DUP5 DUP2 DUP2 MLOAD DUP2 LT PUSH2 0xD4B JUMPI INVALID JUMPDEST PUSH1 0x20 MUL PUSH1 0x20 ADD ADD MLOAD SWAP2 POP PUSH2 0xD68 DUP3 PUSH1 0x0 ADD MLOAD DUP5 DUP5 PUSH1 0x20 ADD MLOAD PUSH2 0x24C5 JUMP JUMPDEST DUP5 DUP3 DUP2 MLOAD DUP2 LT PUSH2 0xD74 JUMPI INVALID JUMPDEST PUSH1 0x20 SWAP1 DUP2 MUL SWAP2 SWAP1 SWAP2 ADD ADD MSTORE PUSH1 0x1 ADD PUSH2 0xD36 JUMP JUMPDEST POP POP POP SWAP2 SWAP1 POP JUMP JUMPDEST PUSH1 0x1 PUSH1 0x1 PUSH1 0xA0 SHL SUB DUP2 AND PUSH1 0x0 SWAP1 DUP2 MSTORE PUSH1 0x20 DUP2 SWAP1 MSTORE PUSH1 0x40 SWAP1 KECCAK256 SLOAD JUMPDEST SWAP2 SWAP1 POP JUMP JUMPDEST PUSH1 0x60 DUP1 DUP9 PUSH2 0xDD8 PUSH2 0xDBD PUSH2 0xF58 JUMP JUMPDEST PUSH1 0x1 PUSH1 0x1 PUSH1 0xA0 SHL SUB AND CALLER PUSH1 0x1 PUSH1 0x1 PUSH1 0xA0 SHL SUB AND EQ PUSH1 0xCD PUSH2 0x1AF3 JUMP JUMPDEST PUSH2 0xDED PUSH2 0xDE3 PUSH2 0xAF8 JUMP JUMPDEST DUP3 EQ PUSH2 0x1F4 PUSH2 0x1AF3 JUMP JUMPDEST PUSH2 0xDF6 DUP8 PUSH2 0x255E JUMP JUMPDEST PUSH1 0x0 DUP1 PUSH1 0x0 PUSH2 0xE0A DUP14 DUP14 DUP14 DUP14 DUP14 DUP14 DUP14 PUSH2 0x20C6 JUMP JUMPDEST SWAP3 POP SWAP3 POP SWAP3 POP PUSH2 0xE1A DUP13 DUP5 PUSH2 0x25C0 JUMP JUMPDEST PUSH2 0xE23 DUP3 PUSH2 0x2241 JUMP JUMPDEST PUSH2 0xE2C DUP2 PUSH2 0x2241 JUMP JUMPDEST PUSH2 0xE34 PUSH2 0x1A81 JUMP JUMPDEST ISZERO PUSH2 0xE41 JUMPI PUSH2 0xE41 PUSH2 0x1C47 JUMP JUMPDEST SWAP1 SWAP13 SWAP1 SWAP12 POP SWAP10 POP POP POP POP POP POP POP POP POP POP JUMP JUMPDEST PUSH1 0x1 PUSH1 0x1 PUSH1 0xA0 SHL SUB AND PUSH1 0x0 SWAP1 DUP2 MSTORE PUSH1 0x6 PUSH1 0x20 MSTORE PUSH1 0x40 SWAP1 KECCAK256 SLOAD SWAP1 JUMP JUMPDEST PUSH32 0x0 DUP2 JUMP JUMPDEST PUSH32 0x0 DUP2 JUMP JUMPDEST PUSH1 0x40 DUP1 MLOAD PUSH32 0x0 PUSH1 0x20 DUP1 DUP4 ADD SWAP2 SWAP1 SWAP2 MSTORE PUSH1 0x1 PUSH1 0x1 PUSH1 0xE0 SHL SUB NOT DUP5 AND DUP3 DUP5 ADD MSTORE DUP3 MLOAD PUSH1 0x24 DUP2 DUP5 SUB ADD DUP2 MSTORE PUSH1 0x44 SWAP1 SWAP3 ADD SWAP1 SWAP3 MSTORE DUP1 MLOAD SWAP2 ADD KECCAK256 SWAP2 SWAP1 POP JUMP JUMPDEST PUSH1 0x0 PUSH1 0x60 PUSH2 0xF1F DUP7 MLOAD PUSH1 0x2 PUSH2 0x20B9 JUMP JUMPDEST PUSH2 0xC3B DUP10 DUP10 DUP10 DUP10 DUP10 DUP10 DUP10 PUSH2 0x25CA PUSH2 0x2720 PUSH2 0x22BF JUMP JUMPDEST PUSH32 0x0 SWAP1 JUMP JUMPDEST PUSH32 0x0 SWAP1 JUMP JUMPDEST PUSH1 0x4 DUP1 SLOAD PUSH1 0x40 DUP1 MLOAD PUSH1 0x20 PUSH1 0x1F PUSH1 0x2 PUSH1 0x0 NOT PUSH2 0x100 PUSH1 0x1 DUP9 AND ISZERO MUL ADD SWAP1 SWAP6 AND SWAP5 SWAP1 SWAP5 DIV SWAP4 DUP5 ADD DUP2 SWAP1 DIV DUP2 MUL DUP3 ADD DUP2 ADD SWAP1 SWAP3 MSTORE DUP3 DUP2 MSTORE PUSH1 0x60 SWAP4 SWAP1 SWAP3 SWAP1 SWAP2 DUP4 ADD DUP3 DUP3 DUP1 ISZERO PUSH2 0x792 JUMPI DUP1 PUSH1 0x1F LT PUSH2 0x767 JUMPI PUSH2 0x100 DUP1 DUP4 SLOAD DIV MUL DUP4 MSTORE SWAP2 PUSH1 0x20 ADD SWAP2 PUSH2 0x792 JUMP JUMPDEST PUSH1 0xA SLOAD SWAP1 JUMP JUMPDEST PUSH1 0x0 PUSH2 0xFED PUSH2 0x1BE9 JUMP JUMPDEST DUP4 PUSH1 0x80 ADD MLOAD PUSH2 0xFFD PUSH2 0xDBD PUSH2 0xF58 JUMP JUMPDEST PUSH2 0x1008 PUSH2 0xDE3 PUSH2 0xAF8 JUMP JUMPDEST PUSH1 0x0 PUSH32 0x0 PUSH1 0x1 PUSH1 0x1 PUSH1 0xA0 SHL SUB AND DUP7 PUSH1 0x20 ADD MLOAD PUSH1 0x1 PUSH1 0x1 PUSH1 0xA0 SHL SUB AND EQ DUP1 ISZERO PUSH2 0x1084 JUMPI POP PUSH32 0x0 PUSH1 0x1 PUSH1 0x1 PUSH1 0xA0 SHL SUB AND DUP7 PUSH1 0x40 ADD MLOAD PUSH1 0x1 PUSH1 0x1 PUSH1 0xA0 SHL SUB AND EQ JUMPDEST ISZERO PUSH2 0x1091 JUMPI POP PUSH1 0x1 PUSH2 0x1122 JUMP JUMPDEST PUSH32 0x0 PUSH1 0x1 PUSH1 0x1 PUSH1 0xA0 SHL SUB AND DUP7 PUSH1 0x20 ADD MLOAD PUSH1 0x1 PUSH1 0x1 PUSH1 0xA0 SHL SUB AND EQ DUP1 ISZERO PUSH2 0x110B JUMPI POP PUSH32 0x0 PUSH1 0x1 PUSH1 0x1 PUSH1 0xA0 SHL SUB AND DUP7 PUSH1 0x40 ADD MLOAD PUSH1 0x1 PUSH1 0x1 PUSH1 0xA0 SHL SUB AND EQ JUMPDEST ISZERO PUSH2 0x1118 JUMPI POP PUSH1 0x0 PUSH2 0x1122 JUMP JUMPDEST PUSH2 0x1122 PUSH1 0x79 PUSH2 0x2782 JUMP JUMPDEST PUSH1 0x0 PUSH2 0x112D DUP3 PUSH2 0x27D5 JUMP JUMPDEST SWAP1 POP PUSH1 0x0 PUSH2 0x113B DUP4 ISZERO PUSH2 0x27D5 JUMP JUMPDEST SWAP1 POP PUSH2 0x1147 DUP8 DUP4 PUSH2 0x2829 JUMP JUMPDEST SWAP7 POP PUSH2 0x1153 DUP7 DUP3 PUSH2 0x2829 JUMP JUMPDEST SWAP6 POP PUSH1 0x0 PUSH2 0x1162 DUP9 DUP9 DUP7 PUSH2 0x2835 JUMP JUMPDEST SWAP1 POP PUSH1 0x0 DUP1 PUSH2 0x116F PUSH2 0x1C8F JUMP JUMPDEST SWAP2 POP SWAP2 POP PUSH2 0x117B PUSH2 0x48F7 JUMP JUMPDEST PUSH1 0x0 DUP1 PUSH20 0x0 PUSH4 0xEAF17AEF DUP8 DUP8 DUP8 PUSH1 0x40 MLOAD DUP5 PUSH4 0xFFFFFFFF AND PUSH1 0xE0 SHL DUP2 MSTORE PUSH1 0x4 ADD PUSH2 0x11B9 SWAP4 SWAP3 SWAP2 SWAP1 PUSH2 0x520C JUMP JUMPDEST PUSH1 0x40 DUP1 MLOAD DUP1 DUP4 SUB DUP2 DUP7 DUP1 EXTCODESIZE ISZERO DUP1 ISZERO PUSH2 0x11D0 JUMPI PUSH1 0x0 DUP1 REVERT JUMPDEST POP GAS DELEGATECALL ISZERO DUP1 ISZERO PUSH2 0x11E4 JUMPI RETURNDATASIZE PUSH1 0x0 DUP1 RETURNDATACOPY RETURNDATASIZE PUSH1 0x0 REVERT JUMPDEST POP POP POP POP PUSH1 0x40 MLOAD RETURNDATASIZE PUSH1 0x1F NOT PUSH1 0x1F DUP3 ADD AND DUP3 ADD DUP1 PUSH1 0x40 MSTORE POP DUP2 ADD SWAP1 PUSH2 0x1208 SWAP2 SWAP1 PUSH2 0x4F35 JUMP JUMPDEST SWAP2 POP SWAP2 POP PUSH1 0x40 MLOAD DUP1 PUSH1 0x40 ADD PUSH1 0x40 MSTORE DUP1 DUP3 PUSH1 0x2 MUL DUP5 ADD DUP2 MSTORE PUSH1 0x20 ADD DUP4 DUP2 MSTORE POP SWAP3 POP PUSH2 0x1241 DUP15 PUSH1 0xA0 ADD MLOAD DUP8 PUSH2 0x123A DUP6 PUSH2 0x28CF JUMP JUMPDEST DUP9 DUP9 PUSH2 0x292A JUMP JUMPDEST POP PUSH1 0x0 SWAP1 POP DUP13 MLOAD PUSH1 0x1 DUP2 GT ISZERO PUSH2 0x1253 JUMPI INVALID JUMPDEST EQ ISZERO PUSH2 0x12FF JUMPI PUSH1 0x0 PUSH2 0x1271 PUSH2 0x1266 PUSH2 0xBC1 JUMP JUMPDEST PUSH1 0x60 DUP16 ADD MLOAD SWAP1 PUSH2 0x2AA2 JUMP JUMPDEST SWAP1 POP PUSH2 0x1293 PUSH2 0x128D DUP3 DUP16 PUSH1 0x60 ADD MLOAD PUSH2 0x2AF7 SWAP1 SWAP2 SWAP1 PUSH4 0xFFFFFFFF AND JUMP JUMPDEST DUP9 PUSH2 0x2829 JUMP JUMPDEST PUSH1 0x60 DUP15 ADD MSTORE PUSH1 0x0 PUSH2 0x12A8 DUP15 DUP8 DUP12 DUP9 DUP9 DUP9 PUSH2 0x2B0D JUMP JUMPDEST SWAP1 POP PUSH32 0x4E1D56F7310A8C32B2267F756B19BA65019B4890068CE114A25009ABE54DE5BA DUP7 DUP5 DUP4 PUSH1 0x40 MLOAD PUSH2 0x12DD SWAP4 SWAP3 SWAP2 SWAP1 PUSH2 0x527E JUMP JUMPDEST PUSH1 0x40 MLOAD DUP1 SWAP2 SUB SWAP1 LOG1 PUSH2 0x12EF DUP2 DUP9 PUSH2 0x2BA5 JUMP JUMPDEST SWAP11 POP POP POP POP POP POP POP POP POP POP PUSH2 0x1390 JUMP JUMPDEST PUSH2 0x130D DUP13 PUSH1 0x60 ADD MLOAD DUP7 PUSH2 0x2829 JUMP JUMPDEST PUSH1 0x60 DUP14 ADD MSTORE PUSH1 0x0 PUSH2 0x1322 DUP14 DUP7 DUP11 DUP8 DUP8 DUP8 PUSH2 0x2BB1 JUMP JUMPDEST SWAP1 POP PUSH32 0x4E1D56F7310A8C32B2267F756B19BA65019B4890068CE114A25009ABE54DE5BA DUP6 DUP4 DUP4 PUSH1 0x40 MLOAD PUSH2 0x1357 SWAP4 SWAP3 SWAP2 SWAP1 PUSH2 0x527E JUMP JUMPDEST PUSH1 0x40 MLOAD DUP1 SWAP2 SUB SWAP1 LOG1 PUSH2 0x1369 DUP2 DUP9 PUSH2 0x2BF9 JUMP JUMPDEST SWAP1 POP PUSH2 0x1385 PUSH2 0x137E PUSH2 0x1379 PUSH2 0xBC1 JUMP JUMPDEST PUSH2 0x2C05 JUMP JUMPDEST DUP3 SWAP1 PUSH2 0x2C2B JUMP JUMPDEST SWAP10 POP POP POP POP POP POP POP POP POP JUMPDEST POP SWAP4 SWAP3 POP POP POP JUMP JUMPDEST PUSH1 0x0 DUP1 PUSH2 0x13A5 CALLER DUP6 PUSH2 0x1887 JUMP JUMPDEST SWAP1 POP DUP1 DUP4 LT PUSH2 0x13BF JUMPI PUSH2 0x13BA CALLER DUP6 PUSH1 0x0 PUSH2 0x1975 JUMP JUMPDEST PUSH2 0x13CC JUMP JUMPDEST PUSH2 0x13CC CALLER DUP6 DUP6 DUP5 SUB PUSH2 0x1975 JUMP JUMPDEST POP PUSH1 0x1 SWAP4 SWAP3 POP POP POP JUMP JUMPDEST PUSH1 0x0 PUSH2 0x7A9 CALLER DUP5 DUP5 PUSH2 0x1B01 JUMP JUMPDEST PUSH1 0x0 PUSH2 0xADA PUSH2 0x2C91 JUMP JUMPDEST PUSH1 0x0 PUSH20 0x0 PUSH4 0x397BEE0 PUSH1 0x8 DUP5 PUSH2 0x1414 PUSH2 0x1AE6 JUMP JUMPDEST PUSH1 0x40 MLOAD DUP5 PUSH4 0xFFFFFFFF AND PUSH1 0xE0 SHL DUP2 MSTORE PUSH1 0x4 ADD PUSH2 0x1432 SWAP4 SWAP3 SWAP2 SWAP1 PUSH2 0x5382 JUMP JUMPDEST PUSH1 0x20 PUSH1 0x40 MLOAD DUP1 DUP4 SUB DUP2 DUP7 DUP1 EXTCODESIZE ISZERO DUP1 ISZERO PUSH2 0x144A JUMPI PUSH1 0x0 DUP1 REVERT JUMPDEST POP GAS DELEGATECALL ISZERO DUP1 ISZERO PUSH2 0x145E JUMPI RETURNDATASIZE PUSH1 0x0 DUP1 RETURNDATACOPY RETURNDATASIZE PUSH1 0x0 REVERT JUMPDEST POP POP POP POP PUSH1 0x40 MLOAD RETURNDATASIZE PUSH1 0x1F NOT PUSH1 0x1F DUP3 ADD AND DUP3 ADD DUP1 PUSH1 0x40 MSTORE POP DUP2 ADD SWAP1 PUSH2 0x7AD SWAP2 SWAP1 PUSH2 0x4F1D JUMP JUMPDEST PUSH2 0x400 SWAP1 JUMP JUMPDEST PUSH32 0x0 DUP2 JUMP JUMPDEST PUSH1 0x0 DUP1 PUSH2 0x14B7 PUSH2 0xF58 JUMP JUMPDEST PUSH1 0x1 PUSH1 0x1 PUSH1 0xA0 SHL SUB AND PUSH4 0xF94D4668 PUSH2 0x14CD PUSH2 0xAF8 JUMP JUMPDEST PUSH1 0x40 MLOAD DUP3 PUSH4 0xFFFFFFFF AND PUSH1 0xE0 SHL DUP2 MSTORE PUSH1 0x4 ADD PUSH2 0x14E9 SWAP2 SWAP1 PUSH2 0x531F JUMP JUMPDEST PUSH1 0x0 PUSH1 0x40 MLOAD DUP1 DUP4 SUB DUP2 DUP7 DUP1 EXTCODESIZE ISZERO DUP1 ISZERO PUSH2 0x1501 JUMPI PUSH1 0x0 DUP1 REVERT JUMPDEST POP GAS STATICCALL ISZERO DUP1 ISZERO PUSH2 0x1515 JUMPI RETURNDATASIZE PUSH1 0x0 DUP1 RETURNDATACOPY RETURNDATASIZE PUSH1 0x0 REVERT JUMPDEST POP POP POP POP PUSH1 0x40 MLOAD RETURNDATASIZE PUSH1 0x0 DUP3 RETURNDATACOPY PUSH1 0x1F RETURNDATASIZE SWAP1 DUP2 ADD PUSH1 0x1F NOT AND DUP3 ADD PUSH1 0x40 MSTORE PUSH2 0x153D SWAP2 SWAP1 DUP2 ADD SWAP1 PUSH2 0x4B5A JUMP JUMPDEST POP SWAP2 POP POP PUSH2 0x154A DUP2 PUSH2 0x255E JUMP JUMPDEST PUSH1 0x0 PUSH2 0x1554 PUSH2 0x2D0B JUMP JUMPDEST SWAP1 POP PUSH2 0x1560 DUP2 DUP4 PUSH2 0x2D7A JUMP JUMPDEST SWAP3 POP POP POP SWAP1 JUMP JUMPDEST PUSH32 0x0 DUP2 JUMP JUMPDEST PUSH32 0x0 DUP2 JUMP JUMPDEST PUSH32 0x0 DUP2 JUMP JUMPDEST PUSH2 0x15E1 DUP5 TIMESTAMP GT ISZERO PUSH1 0xD1 PUSH2 0x1AF3 JUMP JUMPDEST PUSH1 0x1 PUSH1 0x1 PUSH1 0xA0 SHL SUB DUP1 DUP9 AND PUSH1 0x0 DUP2 DUP2 MSTORE PUSH1 0x6 PUSH1 0x20 SWAP1 DUP2 MSTORE PUSH1 0x40 DUP1 DUP4 KECCAK256 SLOAD DUP2 MLOAD PUSH32 0x0 DUP2 DUP6 ADD MSTORE DUP1 DUP4 ADD SWAP6 SWAP1 SWAP6 MSTORE SWAP5 DUP12 AND PUSH1 0x60 DUP6 ADD MSTORE PUSH1 0x80 DUP5 ADD DUP11 SWAP1 MSTORE PUSH1 0xA0 DUP5 ADD DUP6 SWAP1 MSTORE PUSH1 0xC0 DUP1 DUP6 ADD DUP11 SWAP1 MSTORE DUP2 MLOAD DUP1 DUP7 SUB SWAP1 SWAP2 ADD DUP2 MSTORE PUSH1 0xE0 SWAP1 SWAP5 ADD SWAP1 MSTORE DUP3 MLOAD SWAP3 ADD SWAP2 SWAP1 SWAP2 KECCAK256 SWAP1 PUSH2 0x166D DUP3 PUSH2 0x2DEC JUMP JUMPDEST SWAP1 POP PUSH1 0x0 PUSH1 0x1 DUP3 DUP9 DUP9 DUP9 PUSH1 0x40 MLOAD PUSH1 0x0 DUP2 MSTORE PUSH1 0x20 ADD PUSH1 0x40 MSTORE PUSH1 0x40 MLOAD DUP1 DUP6 DUP2 MSTORE PUSH1 0x20 ADD DUP5 PUSH1 0xFF AND DUP2 MSTORE PUSH1 0x20 ADD DUP4 DUP2 MSTORE PUSH1 0x20 ADD DUP3 DUP2 MSTORE PUSH1 0x20 ADD SWAP5 POP POP POP POP POP PUSH1 0x20 PUSH1 0x40 MLOAD PUSH1 0x20 DUP2 SUB SWAP1 DUP1 DUP5 SUB SWAP1 DUP6 GAS STATICCALL ISZERO DUP1 ISZERO PUSH2 0x16CB JUMPI RETURNDATASIZE PUSH1 0x0 DUP1 RETURNDATACOPY RETURNDATASIZE PUSH1 0x0 REVERT JUMPDEST POP POP PUSH1 0x40 MLOAD PUSH1 0x1F NOT ADD MLOAD SWAP2 POP PUSH2 0x170D SWAP1 POP PUSH1 0x1 PUSH1 0x1 PUSH1 0xA0 SHL SUB DUP3 AND ISZERO DUP1 ISZERO SWAP1 PUSH2 0x1705 JUMPI POP DUP12 PUSH1 0x1 PUSH1 0x1 PUSH1 0xA0 SHL SUB AND DUP3 PUSH1 0x1 PUSH1 0x1 PUSH1 0xA0 SHL SUB AND EQ JUMPDEST PUSH2 0x1F8 PUSH2 0x1AF3 JUMP JUMPDEST PUSH1 0x1 PUSH1 0x1 PUSH1 0xA0 SHL SUB DUP12 AND PUSH1 0x0 SWAP1 DUP2 MSTORE PUSH1 0x6 PUSH1 0x20 MSTORE PUSH1 0x40 SWAP1 KECCAK256 PUSH1 0x1 DUP6 ADD SWAP1 SSTORE PUSH2 0x1736 DUP12 DUP12 DUP12 PUSH2 0x1975 JUMP JUMPDEST POP POP POP POP POP POP POP POP POP POP POP JUMP JUMPDEST PUSH1 0x60 DUP1 DUP9 PUSH2 0x1752 PUSH2 0xDBD PUSH2 0xF58 JUMP JUMPDEST PUSH2 0x175D PUSH2 0xDE3 PUSH2 0xAF8 JUMP JUMPDEST PUSH2 0x1765 PUSH2 0x1BE9 JUMP JUMPDEST PUSH1 0x0 PUSH2 0x176F PUSH2 0x7EB JUMP JUMPDEST PUSH2 0x17DF JUMPI PUSH2 0x177F DUP12 DUP12 DUP12 DUP9 PUSH2 0x2E38 JUMP JUMPDEST SWAP5 POP SWAP1 POP PUSH2 0x1794 PUSH3 0xF4240 DUP3 LT ISZERO PUSH1 0xCC PUSH2 0x1AF3 JUMP JUMPDEST PUSH2 0x17A2 PUSH1 0x0 PUSH3 0xF4240 PUSH2 0x2F7D JUMP JUMPDEST PUSH2 0x17B1 DUP10 PUSH3 0xF4240 DUP4 SUB PUSH2 0x2F7D JUMP JUMPDEST PUSH2 0x17BA DUP5 PUSH2 0x2720 JUMP JUMPDEST PUSH1 0x40 DUP1 MLOAD PUSH1 0x2 DUP1 DUP3 MSTORE PUSH1 0x60 DUP3 ADD DUP4 MSTORE SWAP1 SWAP2 PUSH1 0x20 DUP4 ADD SWAP1 DUP1 CALLDATASIZE DUP4 CALLDATACOPY ADD SWAP1 POP POP SWAP3 POP PUSH2 0x184D JUMP JUMPDEST PUSH2 0x17E8 DUP9 PUSH2 0x255E JUMP JUMPDEST PUSH2 0x181B DUP8 DUP10 PUSH1 0x0 DUP2 MLOAD DUP2 LT PUSH2 0x17F9 JUMPI INVALID JUMPDEST PUSH1 0x20 MUL PUSH1 0x20 ADD ADD MLOAD DUP11 PUSH1 0x1 DUP2 MLOAD DUP2 LT PUSH2 0x180E JUMPI INVALID JUMPDEST PUSH1 0x20 MUL PUSH1 0x20 ADD ADD MLOAD PUSH2 0x2F87 JUMP JUMPDEST PUSH2 0x182A DUP12 DUP12 DUP12 DUP12 DUP12 DUP12 DUP12 PUSH2 0x25CA JUMP JUMPDEST SWAP1 SWAP6 POP SWAP4 POP SWAP1 POP PUSH2 0x183B DUP10 DUP3 PUSH2 0x2F7D JUMP JUMPDEST PUSH2 0x1844 DUP5 PUSH2 0x2720 JUMP JUMPDEST PUSH2 0x184D DUP4 PUSH2 0x2241 JUMP JUMPDEST PUSH2 0x1855 PUSH2 0x1C47 JUMP JUMPDEST POP POP SWAP8 POP SWAP8 SWAP6 POP POP POP POP POP POP JUMP JUMPDEST PUSH32 0x0 DUP2 JUMP JUMPDEST PUSH1 0x0 PUSH2 0x1891 PUSH2 0xF58 JUMP JUMPDEST PUSH1 0x1 PUSH1 0x1 PUSH1 0xA0 SHL SUB AND DUP3 PUSH1 0x1 PUSH1 0x1 PUSH1 0xA0 SHL SUB AND EQ ISZERO PUSH2 0x18B3 JUMPI POP PUSH1 0x0 NOT PUSH2 0x7AD JUMP JUMPDEST PUSH2 0x18BD DUP4 DUP4 PUSH2 0x2F8C JUMP JUMPDEST SWAP1 POP PUSH2 0x7AD JUMP JUMPDEST PUSH32 0x0 DUP2 JUMP JUMPDEST PUSH1 0x60 PUSH2 0xADA PUSH2 0x2D0B JUMP JUMPDEST PUSH3 0x1DE20 SWAP1 JUMP JUMPDEST DUP1 PUSH2 0x1903 DUP2 PUSH2 0x2FB7 JUMP JUMPDEST POP POP JUMP JUMPDEST PUSH1 0x0 PUSH2 0x9F4 DUP4 DUP4 PUSH1 0x55 PUSH2 0x1939 JUMP JUMPDEST PUSH1 0x0 PUSH2 0x9F4 DUP4 DUP4 PUSH1 0x56 PUSH2 0x1960 JUMP JUMPDEST PUSH1 0x0 PUSH2 0x1933 DUP4 DUP4 GT ISZERO PUSH1 0x1 PUSH2 0x1AF3 JUMP JUMPDEST POP SWAP1 SUB SWAP1 JUMP JUMPDEST PUSH1 0x0 PUSH1 0x1 DUP3 SHL NOT DUP5 AND DUP3 DUP5 PUSH2 0x194F JUMPI PUSH1 0x0 PUSH2 0x1952 JUMP JUMPDEST PUSH1 0x1 JUMPDEST PUSH1 0xFF AND SWAP1 SHL OR SWAP5 SWAP4 POP POP POP POP JUMP JUMPDEST PUSH1 0x1 PUSH1 0x1 PUSH1 0x40 SHL SUB DUP2 SHL NOT SWAP3 SWAP1 SWAP3 AND SWAP2 SHL OR SWAP1 JUMP JUMPDEST PUSH1 0x1 PUSH1 0x1 PUSH1 0xA0 SHL SUB DUP1 DUP5 AND PUSH1 0x0 DUP2 DUP2 MSTORE PUSH1 0x1 PUSH1 0x20 SWAP1 DUP2 MSTORE PUSH1 0x40 DUP1 DUP4 KECCAK256 SWAP5 DUP8 AND DUP1 DUP5 MSTORE SWAP5 DUP3 MSTORE SWAP2 DUP3 SWAP1 KECCAK256 DUP6 SWAP1 SSTORE DUP2 MLOAD DUP6 DUP2 MSTORE SWAP2 MLOAD PUSH32 0x8C5BE1E5EBEC7D5BD14F71427D1E84F3DD0314C0F7B2291E5B200AC8C7C3B925 SWAP3 DUP2 SWAP1 SUB SWAP1 SWAP2 ADD SWAP1 LOG3 POP POP POP JUMP JUMPDEST PUSH1 0x0 PUSH2 0x19EE PUSH1 0x0 CALLDATALOAD PUSH1 0x1 PUSH1 0x1 PUSH1 0xE0 SHL SUB NOT AND PUSH2 0xEB6 JUMP JUMPDEST SWAP1 POP PUSH2 0x7E8 PUSH2 0x19FD DUP3 CALLER PUSH2 0x3030 JUMP JUMPDEST PUSH2 0x191 PUSH2 0x1AF3 JUMP JUMPDEST DUP1 ISZERO PUSH2 0x1A25 JUMPI PUSH2 0x1A20 PUSH2 0x1A16 PUSH2 0x1A9E JUMP JUMPDEST TIMESTAMP LT PUSH2 0x193 PUSH2 0x1AF3 JUMP JUMPDEST PUSH2 0x1A3A JUMP JUMPDEST PUSH2 0x1A3A PUSH2 0x1A30 PUSH2 0x1AC2 JUMP JUMPDEST TIMESTAMP LT PUSH2 0x1A9 PUSH2 0x1AF3 JUMP JUMPDEST PUSH1 0x7 DUP1 SLOAD DUP3 ISZERO ISZERO PUSH1 0xFF NOT SWAP1 SWAP2 AND DUP2 OR SWAP1 SWAP2 SSTORE PUSH1 0x40 DUP1 MLOAD SWAP2 DUP3 MSTORE MLOAD PUSH32 0x9E3A5E37224532DEA67B89FACE185703738A228A6E8A23DEE546960180D3BE64 SWAP2 DUP2 SWAP1 SUB PUSH1 0x20 ADD SWAP1 LOG1 POP JUMP JUMPDEST PUSH1 0x0 PUSH2 0x1A8B PUSH2 0x1AC2 JUMP JUMPDEST TIMESTAMP GT DUP1 PUSH2 0xADA JUMPI POP POP PUSH1 0x7 SLOAD PUSH1 0xFF AND ISZERO SWAP1 JUMP JUMPDEST PUSH32 0x0 SWAP1 JUMP JUMPDEST PUSH32 0x0 SWAP1 JUMP JUMPDEST PUSH1 0x0 PUSH2 0xADA PUSH1 0x9 SLOAD PUSH2 0x2092 JUMP JUMPDEST DUP2 PUSH2 0x1903 JUMPI PUSH2 0x1903 DUP2 PUSH2 0x2782 JUMP JUMPDEST PUSH2 0x1B18 PUSH1 0x1 PUSH1 0x1 PUSH1 0xA0 SHL SUB DUP5 AND ISZERO ISZERO PUSH2 0x198 PUSH2 0x1AF3 JUMP JUMPDEST PUSH2 0x1B2F PUSH1 0x1 PUSH1 0x1 PUSH1 0xA0 SHL SUB DUP4 AND ISZERO ISZERO PUSH2 0x199 PUSH2 0x1AF3 JUMP JUMPDEST PUSH2 0x1B3A DUP4 DUP4 DUP4 PUSH2 0x2F87 JUMP JUMPDEST PUSH1 0x1 PUSH1 0x1 PUSH1 0xA0 SHL SUB DUP4 AND PUSH1 0x0 SWAP1 DUP2 MSTORE PUSH1 0x20 DUP2 SWAP1 MSTORE PUSH1 0x40 SWAP1 KECCAK256 SLOAD PUSH2 0x1B60 SWAP1 DUP3 PUSH2 0x1A0 PUSH2 0x3132 JUMP JUMPDEST PUSH1 0x1 PUSH1 0x1 PUSH1 0xA0 SHL SUB DUP1 DUP6 AND PUSH1 0x0 SWAP1 DUP2 MSTORE PUSH1 0x20 DUP2 SWAP1 MSTORE PUSH1 0x40 DUP1 DUP3 KECCAK256 SWAP4 SWAP1 SWAP4 SSTORE SWAP1 DUP5 AND DUP2 MSTORE KECCAK256 SLOAD PUSH2 0x1B8F SWAP1 DUP3 PUSH2 0x205A JUMP JUMPDEST PUSH1 0x1 PUSH1 0x1 PUSH1 0xA0 SHL SUB DUP1 DUP5 AND PUSH1 0x0 DUP2 DUP2 MSTORE PUSH1 0x20 DUP2 DUP2 MSTORE PUSH1 0x40 SWAP2 DUP3 SWAP1 KECCAK256 SWAP5 SWAP1 SWAP5 SSTORE DUP1 MLOAD DUP6 DUP2 MSTORE SWAP1 MLOAD SWAP2 SWAP4 SWAP3 DUP8 AND SWAP3 PUSH32 0xDDF252AD1BE2C89B69C2B068FC378DAA952BA7F163C4A11628F55A4DF523B3EF SWAP3 SWAP2 DUP3 SWAP1 SUB ADD SWAP1 LOG3 POP POP POP JUMP JUMPDEST PUSH2 0xA2D PUSH2 0x1BF4 PUSH2 0x1A81 JUMP JUMPDEST PUSH2 0x192 PUSH2 0x1AF3 JUMP JUMPDEST PUSH1 0x9 SLOAD PUSH2 0x1C09 SWAP1 DUP3 PUSH2 0x1907 JUMP JUMPDEST PUSH1 0x9 SSTORE PUSH1 0x40 MLOAD PUSH32 0x3E350B41E86A8E10F804ADE6D35340D620BE35569CC75AC943E8BB14AB80EAD1 SWAP1 PUSH2 0x1C3C SWAP1 DUP4 SWAP1 PUSH2 0x52FC JUMP JUMPDEST PUSH1 0x40 MLOAD DUP1 SWAP2 SUB SWAP1 LOG1 POP JUMP JUMPDEST PUSH1 0x9 SLOAD PUSH2 0x1C53 DUP2 PUSH2 0x209F JUMP JUMPDEST ISZERO PUSH2 0x7E8 JUMPI PUSH2 0x1C6D PUSH2 0x1C66 PUSH1 0xA SLOAD PUSH2 0x3148 JUMP JUMPDEST DUP3 SWAP1 PUSH2 0x3188 JUMP JUMPDEST SWAP1 POP PUSH2 0x1C89 PUSH2 0x1C82 PUSH2 0x1C7D PUSH2 0x7EB JUMP JUMPDEST PUSH2 0x3148 JUMP JUMPDEST DUP3 SWAP1 PUSH2 0x3195 JUMP JUMPDEST PUSH1 0x9 SSTORE POP JUMP JUMPDEST PUSH2 0x1C97 PUSH2 0x4868 JUMP JUMPDEST PUSH2 0x1C9F PUSH2 0x4897 JUMP JUMPDEST PUSH32 0x0 PUSH1 0x80 DUP1 DUP5 ADD SWAP2 SWAP1 SWAP2 MSTORE PUSH32 0x0 PUSH1 0x60 DUP1 DUP6 ADD SWAP2 SWAP1 SWAP2 MSTORE PUSH32 0x0 PUSH1 0x40 DUP1 DUP7 ADD SWAP2 SWAP1 SWAP2 MSTORE PUSH32 0x0 PUSH1 0x20 DUP1 DUP8 ADD SWAP2 SWAP1 SWAP2 MSTORE PUSH32 0x0 DUP7 MSTORE DUP5 MLOAD DUP6 DUP3 ADD MLOAD PUSH32 0x0 DUP2 DUP5 ADD MSTORE PUSH32 0x0 SWAP1 MSTORE PUSH32 0x0 SWAP2 DUP2 ADD SWAP2 SWAP1 SWAP2 MSTORE PUSH32 0x0 SWAP1 MSTORE PUSH32 0x0 PUSH1 0xC0 DUP6 ADD MSTORE PUSH32 0x0 PUSH1 0xA0 DUP6 ADD MSTORE PUSH32 0x0 SWAP3 DUP5 ADD SWAP3 SWAP1 SWAP3 MSTORE PUSH32 0x0 SWAP1 DUP4 ADD MSTORE PUSH32 0x0 SWAP1 DUP3 ADD MSTORE SWAP1 SWAP2 JUMP JUMPDEST PUSH1 0x0 PUSH2 0x1ED1 DUP3 DUP3 PUSH2 0x31A3 JUMP JUMPDEST PUSH2 0x1EDC DUP5 PUSH1 0x1F PUSH2 0x31A7 JUMP JUMPDEST PUSH2 0x1EE7 DUP7 PUSH1 0x54 PUSH2 0x31B8 JUMP JUMPDEST PUSH2 0x1EF2 DUP9 PUSH1 0x6A PUSH2 0x31A7 JUMP JUMPDEST PUSH2 0x1EFD DUP11 PUSH1 0x9F PUSH2 0x31B8 JUMP JUMPDEST PUSH2 0x1F08 DUP13 PUSH1 0xB5 PUSH2 0x31A7 JUMP JUMPDEST PUSH2 0x1F13 DUP15 PUSH1 0xEA PUSH2 0x31B8 JUMP JUMPDEST OR OR OR OR OR OR SWAP1 POP JUMPDEST SWAP8 SWAP7 POP POP POP POP POP POP POP JUMP JUMPDEST PUSH1 0x0 PUSH2 0x7AD DUP3 DUP3 PUSH2 0x31C5 JUMP JUMPDEST PUSH1 0x0 PUSH32 0x0 PUSH32 0x0 PUSH32 0x0 PUSH2 0x1FA0 PUSH2 0x31CF JUMP JUMPDEST ADDRESS PUSH1 0x40 MLOAD PUSH1 0x20 ADD DUP1 DUP7 DUP2 MSTORE PUSH1 0x20 ADD DUP6 DUP2 MSTORE PUSH1 0x20 ADD DUP5 DUP2 MSTORE PUSH1 0x20 ADD DUP4 DUP2 MSTORE PUSH1 0x20 ADD DUP3 PUSH1 0x1 PUSH1 0x1 PUSH1 0xA0 SHL SUB AND DUP2 MSTORE PUSH1 0x20 ADD SWAP6 POP POP POP POP POP POP PUSH1 0x40 MLOAD PUSH1 0x20 DUP2 DUP4 SUB SUB DUP2 MSTORE SWAP1 PUSH1 0x40 MSTORE DUP1 MLOAD SWAP1 PUSH1 0x20 ADD KECCAK256 SWAP1 POP SWAP1 JUMP JUMPDEST PUSH2 0x2004 PUSH5 0xE8D4A51000 DUP3 LT ISZERO PUSH1 0xCB PUSH2 0x1AF3 JUMP JUMPDEST PUSH2 0x201A PUSH8 0x16345785D8A0000 DUP3 GT ISZERO PUSH1 0xCA PUSH2 0x1AF3 JUMP JUMPDEST PUSH1 0x9 SLOAD PUSH2 0x2027 SWAP1 DUP3 PUSH2 0x1915 JUMP JUMPDEST PUSH1 0x9 SSTORE PUSH1 0x40 MLOAD PUSH32 0xA9BA3FFE0B6C366B81232CAAB38605A0699AD5398D6CCE76F91EE809E322DAFC SWAP1 PUSH2 0x1C3C SWAP1 DUP4 SWAP1 PUSH2 0x531F JUMP JUMPDEST PUSH1 0x0 DUP3 DUP3 ADD PUSH2 0x9F4 DUP5 DUP3 LT ISZERO DUP4 PUSH2 0x1AF3 JUMP JUMPDEST PUSH1 0x0 PUSH2 0x7AD DUP3 DUP3 PUSH2 0x31D3 JUMP JUMPDEST PUSH1 0x0 PUSH2 0x7AD DUP3 PUSH1 0x16 PUSH2 0x31D3 JUMP JUMPDEST PUSH1 0x0 PUSH2 0x7AD DUP3 PUSH1 0x2C PUSH2 0x31C5 JUMP JUMPDEST PUSH1 0x0 PUSH2 0x7AD DUP3 PUSH1 0x4B PUSH2 0x31FA JUMP JUMPDEST PUSH1 0x0 PUSH2 0x7AD DUP3 PUSH1 0x55 PUSH2 0x3202 JUMP JUMPDEST PUSH1 0x0 PUSH2 0x7AD DUP3 PUSH1 0x56 PUSH2 0x320C JUMP JUMPDEST PUSH2 0x1903 DUP2 DUP4 EQ PUSH1 0x67 PUSH2 0x1AF3 JUMP JUMPDEST PUSH1 0x0 PUSH1 0x60 DUP1 PUSH1 0x0 DUP1 PUSH2 0x20D6 PUSH2 0x1C8F JUMP JUMPDEST SWAP2 POP SWAP2 POP PUSH2 0x20E2 PUSH2 0x1A81 JUMP JUMPDEST ISZERO PUSH2 0x21F4 JUMPI PUSH1 0x40 MLOAD PUSH4 0x371C08F1 PUSH1 0xE0 SHL DUP2 MSTORE PUSH1 0x0 SWAP1 PUSH20 0x0 SWAP1 PUSH4 0x371C08F1 SWAP1 PUSH2 0x2125 SWAP1 DUP14 SWAP1 DUP8 SWAP1 DUP8 SWAP1 PUSH1 0x4 ADD PUSH2 0x520C JUMP JUMPDEST PUSH1 0x20 PUSH1 0x40 MLOAD DUP1 DUP4 SUB DUP2 DUP7 DUP1 EXTCODESIZE ISZERO DUP1 ISZERO PUSH2 0x213D JUMPI PUSH1 0x0 DUP1 REVERT JUMPDEST POP GAS DELEGATECALL ISZERO DUP1 ISZERO PUSH2 0x2151 JUMPI RETURNDATASIZE PUSH1 0x0 DUP1 RETURNDATACOPY RETURNDATASIZE PUSH1 0x0 REVERT JUMPDEST POP POP POP POP PUSH1 0x40 MLOAD RETURNDATASIZE PUSH1 0x1F NOT PUSH1 0x1F DUP3 ADD AND DUP3 ADD DUP1 PUSH1 0x40 MSTORE POP DUP2 ADD SWAP1 PUSH2 0x2175 SWAP2 SWAP1 PUSH2 0x4F1D JUMP JUMPDEST SWAP1 POP PUSH2 0x2184 DUP10 DUP12 DUP4 DUP7 DUP7 PUSH2 0x292A JUMP JUMPDEST PUSH2 0x218D DUP2 PUSH2 0x3219 JUMP JUMPDEST PUSH2 0x2197 DUP11 DUP9 PUSH2 0x3246 JUMP JUMPDEST SWAP1 SWAP7 POP SWAP5 POP PUSH2 0x21B0 DUP2 DUP8 PUSH2 0x21A9 PUSH2 0x7EB JUMP JUMPDEST PUSH1 0x0 PUSH2 0x3292 JUMP JUMPDEST PUSH1 0xA DUP2 SWAP1 SSTORE PUSH1 0x40 MLOAD PUSH32 0xE1D39CAF039C7DC6F364B1E29D1E67C4E330003A43F4991D50CF3E8840D95EAC SWAP2 PUSH2 0x21E6 SWAP2 DUP5 SWAP2 SWAP1 PUSH2 0x54DD JUMP JUMPDEST PUSH1 0x40 MLOAD DUP1 SWAP2 SUB SWAP1 LOG1 POP PUSH2 0x220A JUMP JUMPDEST PUSH2 0x21FE DUP10 DUP8 PUSH2 0x3246 JUMP JUMPDEST PUSH1 0x0 NOT PUSH1 0xA SSTORE SWAP1 SWAP6 POP SWAP4 POP JUMPDEST PUSH1 0x40 DUP1 MLOAD PUSH1 0x2 DUP1 DUP3 MSTORE PUSH1 0x60 DUP3 ADD DUP4 MSTORE DUP8 SWAP3 DUP8 SWAP3 SWAP2 SWAP1 PUSH1 0x20 DUP4 ADD SWAP1 DUP1 CALLDATASIZE DUP4 CALLDATACOPY ADD SWAP1 POP POP SWAP5 POP SWAP5 POP SWAP5 POP POP POP SWAP8 POP SWAP8 POP SWAP8 SWAP5 POP POP POP POP POP JUMP JUMPDEST PUSH2 0x2268 DUP2 PUSH1 0x0 DUP2 MLOAD DUP2 LT PUSH2 0x2251 JUMPI INVALID JUMPDEST PUSH1 0x20 MUL PUSH1 0x20 ADD ADD MLOAD PUSH2 0x2263 PUSH1 0x1 PUSH2 0x27D5 JUMP JUMPDEST PUSH2 0x32EA JUMP JUMPDEST DUP2 PUSH1 0x0 DUP2 MLOAD DUP2 LT PUSH2 0x2275 JUMPI INVALID JUMPDEST PUSH1 0x20 MUL PUSH1 0x20 ADD ADD DUP2 DUP2 MSTORE POP POP PUSH2 0x22A3 DUP2 PUSH1 0x1 DUP2 MLOAD DUP2 LT PUSH2 0x2291 JUMPI INVALID JUMPDEST PUSH1 0x20 MUL PUSH1 0x20 ADD ADD MLOAD PUSH2 0x2263 PUSH1 0x0 PUSH2 0x27D5 JUMP JUMPDEST DUP2 PUSH1 0x1 DUP2 MLOAD DUP2 LT PUSH2 0x22B0 JUMPI INVALID JUMPDEST PUSH1 0x20 MUL PUSH1 0x20 ADD ADD DUP2 DUP2 MSTORE POP POP POP JUMP JUMPDEST CALLER ADDRESS EQ PUSH2 0x237D JUMPI PUSH1 0x0 ADDRESS PUSH1 0x1 PUSH1 0x1 PUSH1 0xA0 SHL SUB AND PUSH1 0x0 CALLDATASIZE PUSH1 0x40 MLOAD PUSH2 0x22E3 SWAP3 SWAP2 SWAP1 PUSH2 0x5163 JUMP JUMPDEST PUSH1 0x0 PUSH1 0x40 MLOAD DUP1 DUP4 SUB DUP2 PUSH1 0x0 DUP7 GAS CALL SWAP2 POP POP RETURNDATASIZE DUP1 PUSH1 0x0 DUP2 EQ PUSH2 0x2320 JUMPI PUSH1 0x40 MLOAD SWAP2 POP PUSH1 0x1F NOT PUSH1 0x3F RETURNDATASIZE ADD AND DUP3 ADD PUSH1 0x40 MSTORE RETURNDATASIZE DUP3 MSTORE RETURNDATASIZE PUSH1 0x0 PUSH1 0x20 DUP5 ADD RETURNDATACOPY PUSH2 0x2325 JUMP JUMPDEST PUSH1 0x60 SWAP2 POP JUMPDEST POP POP SWAP1 POP DUP1 PUSH1 0x0 DUP2 EQ PUSH2 0x2334 JUMPI INVALID JUMPDEST PUSH1 0x4 PUSH1 0x0 DUP1 RETURNDATACOPY PUSH1 0x0 MLOAD PUSH1 0x1 PUSH1 0x1 PUSH1 0xE0 SHL SUB NOT AND PUSH4 0x43ADBAFB PUSH1 0xE0 SHL DUP2 EQ PUSH2 0x235F JUMPI RETURNDATASIZE PUSH1 0x0 DUP1 RETURNDATACOPY RETURNDATASIZE PUSH1 0x0 REVERT JUMPDEST POP PUSH1 0x20 PUSH1 0x4 PUSH1 0x0 RETURNDATACOPY PUSH1 0x40 PUSH1 0x20 MSTORE PUSH1 0x24 RETURNDATASIZE SUB PUSH1 0x24 PUSH1 0x40 RETURNDATACOPY PUSH1 0x1C RETURNDATASIZE ADD PUSH1 0x0 RETURN JUMPDEST PUSH2 0x2386 DUP7 PUSH2 0x255E JUMP JUMPDEST PUSH1 0x0 DUP1 PUSH2 0x239C DUP12 DUP12 DUP12 DUP12 DUP12 DUP12 DUP12 DUP12 PUSH4 0xFFFFFFFF AND JUMP JUMPDEST POP SWAP2 POP SWAP2 POP PUSH2 0x23AE DUP2 DUP5 PUSH4 0xFFFFFFFF AND JUMP JUMPDEST DUP1 MLOAD PUSH1 0x1F NOT DUP3 ADD DUP4 SWAP1 MSTORE PUSH4 0x43ADBAFB PUSH1 0x3F NOT DUP4 ADD MSTORE PUSH1 0x20 MUL PUSH1 0x23 NOT DUP3 ADD PUSH1 0x44 DUP3 ADD DUP2 REVERT JUMPDEST PUSH1 0x0 SWAP1 DUP2 MSTORE PUSH1 0x8 PUSH1 0x20 MSTORE PUSH1 0x40 SWAP1 KECCAK256 SLOAD SWAP1 JUMP JUMPDEST PUSH1 0x0 DUP1 PUSH1 0x0 DUP1 PUSH1 0x0 DUP1 PUSH1 0x0 PUSH2 0x23F8 DUP9 PUSH2 0x330A JUMP JUMPDEST SWAP7 POP PUSH2 0x2403 DUP9 PUSH2 0x3317 JUMP JUMPDEST SWAP6 POP PUSH2 0x240E DUP9 PUSH2 0x3324 JUMP JUMPDEST SWAP5 POP PUSH2 0x2419 DUP9 PUSH2 0x3331 JUMP JUMPDEST SWAP4 POP PUSH2 0x2424 DUP9 PUSH2 0x333E JUMP JUMPDEST SWAP3 POP PUSH2 0x242F DUP9 PUSH2 0x334B JUMP JUMPDEST SWAP2 POP PUSH2 0x243A DUP9 PUSH2 0x1F27 JUMP JUMPDEST SWAP1 POP SWAP2 SWAP4 SWAP6 SWAP8 SWAP1 SWAP3 SWAP5 SWAP7 POP JUMP JUMPDEST PUSH1 0x0 DUP3 DUP3 MUL PUSH2 0x9F4 DUP5 ISZERO DUP1 PUSH2 0x2464 JUMPI POP DUP4 DUP6 DUP4 DUP2 PUSH2 0x2461 JUMPI INVALID JUMPDEST DIV EQ JUMPDEST PUSH1 0x3 PUSH2 0x1AF3 JUMP JUMPDEST PUSH1 0x0 DUP2 PUSH2 0x247E JUMPI PUSH2 0x247E PUSH1 0x0 PUSH1 0x4 PUSH2 0x1AF3 JUMP JUMPDEST DUP3 PUSH2 0x248B JUMPI POP PUSH1 0x0 PUSH2 0x7AD JUMP JUMPDEST PUSH8 0xDE0B6B3A7640000 DUP4 DUP2 MUL SWAP1 DUP5 DUP3 DUP2 PUSH2 0x24A1 JUMPI INVALID JUMPDEST DIV EQ PUSH2 0x24B3 JUMPI PUSH2 0x24B3 PUSH1 0x0 PUSH1 0x5 PUSH2 0x1AF3 JUMP JUMPDEST DUP3 DUP2 DUP2 PUSH2 0x24BC JUMPI INVALID JUMPDEST DIV SWAP5 SWAP4 POP POP POP POP JUMP JUMPDEST PUSH1 0x40 MLOAD PUSH4 0x34171A85 PUSH1 0xE0 SHL DUP2 MSTORE PUSH1 0x0 SWAP1 PUSH20 0x0 SWAP1 PUSH4 0x34171A85 SWAP1 PUSH2 0x2506 SWAP1 PUSH1 0x8 SWAP1 DUP9 SWAP1 DUP9 SWAP1 DUP9 SWAP1 PUSH1 0x4 ADD PUSH2 0x53A4 JUMP JUMPDEST PUSH1 0x20 PUSH1 0x40 MLOAD DUP1 DUP4 SUB DUP2 DUP7 DUP1 EXTCODESIZE ISZERO DUP1 ISZERO PUSH2 0x251E JUMPI PUSH1 0x0 DUP1 REVERT JUMPDEST POP GAS DELEGATECALL ISZERO DUP1 ISZERO PUSH2 0x2532 JUMPI RETURNDATASIZE PUSH1 0x0 DUP1 RETURNDATACOPY RETURNDATASIZE PUSH1 0x0 REVERT JUMPDEST POP POP POP POP PUSH1 0x40 MLOAD RETURNDATASIZE PUSH1 0x1F NOT PUSH1 0x1F DUP3 ADD AND DUP3 ADD DUP1 PUSH1 0x40 MSTORE POP DUP2 ADD SWAP1 PUSH2 0x2556 SWAP2 SWAP1 PUSH2 0x4F1D JUMP JUMPDEST SWAP5 SWAP4 POP POP POP POP JUMP JUMPDEST PUSH2 0x2585 DUP2 PUSH1 0x0 DUP2 MLOAD DUP2 LT PUSH2 0x256E JUMPI INVALID JUMPDEST PUSH1 0x20 MUL PUSH1 0x20 ADD ADD MLOAD PUSH2 0x2580 PUSH1 0x1 PUSH2 0x27D5 JUMP JUMPDEST PUSH2 0x2447 JUMP JUMPDEST DUP2 PUSH1 0x0 DUP2 MLOAD DUP2 LT PUSH2 0x2592 JUMPI INVALID JUMPDEST PUSH1 0x20 MUL PUSH1 0x20 ADD ADD DUP2 DUP2 MSTORE POP POP PUSH2 0x22A3 DUP2 PUSH1 0x1 DUP2 MLOAD DUP2 LT PUSH2 0x25AE JUMPI INVALID JUMPDEST PUSH1 0x20 MUL PUSH1 0x20 ADD ADD MLOAD PUSH2 0x2580 PUSH1 0x0 PUSH2 0x27D5 JUMP JUMPDEST PUSH2 0x1903 DUP3 DUP3 PUSH2 0x3358 JUMP JUMPDEST PUSH1 0x0 PUSH1 0x60 DUP1 PUSH1 0x0 DUP1 PUSH2 0x25DA PUSH2 0x1C8F JUMP JUMPDEST SWAP2 POP SWAP2 POP PUSH1 0x0 PUSH20 0x0 PUSH4 0x371C08F1 DUP12 DUP6 DUP6 PUSH1 0x40 MLOAD DUP5 PUSH4 0xFFFFFFFF AND PUSH1 0xE0 SHL DUP2 MSTORE PUSH1 0x4 ADD PUSH2 0x261B SWAP4 SWAP3 SWAP2 SWAP1 PUSH2 0x520C JUMP JUMPDEST PUSH1 0x20 PUSH1 0x40 MLOAD DUP1 DUP4 SUB DUP2 DUP7 DUP1 EXTCODESIZE ISZERO DUP1 ISZERO PUSH2 0x2633 JUMPI PUSH1 0x0 DUP1 REVERT JUMPDEST POP GAS DELEGATECALL ISZERO DUP1 ISZERO PUSH2 0x2647 JUMPI RETURNDATASIZE PUSH1 0x0 DUP1 RETURNDATACOPY RETURNDATASIZE PUSH1 0x0 REVERT JUMPDEST POP POP POP POP PUSH1 0x40 MLOAD RETURNDATASIZE PUSH1 0x1F NOT PUSH1 0x1F DUP3 ADD AND DUP3 ADD DUP1 PUSH1 0x40 MSTORE POP DUP2 ADD SWAP1 PUSH2 0x266B SWAP2 SWAP1 PUSH2 0x4F1D JUMP JUMPDEST SWAP1 POP PUSH2 0x267A DUP10 DUP12 DUP4 DUP7 DUP7 PUSH2 0x292A JUMP JUMPDEST PUSH2 0x2683 DUP2 PUSH2 0x3219 JUMP JUMPDEST PUSH1 0x0 DUP1 PUSH2 0x2690 DUP13 DUP11 PUSH2 0x340F JUMP JUMPDEST SWAP2 POP SWAP2 POP PUSH2 0x26A8 DUP4 DUP4 PUSH2 0x26A1 PUSH2 0x7EB JUMP JUMPDEST PUSH1 0x1 PUSH2 0x3292 JUMP JUMPDEST PUSH1 0xA DUP2 SWAP1 SSTORE PUSH1 0x40 MLOAD PUSH32 0xE1D39CAF039C7DC6F364B1E29D1E67C4E330003A43F4991D50CF3E8840D95EAC SWAP2 PUSH2 0x26DE SWAP2 DUP7 SWAP2 SWAP1 PUSH2 0x54DD JUMP JUMPDEST PUSH1 0x40 MLOAD DUP1 SWAP2 SUB SWAP1 LOG1 PUSH1 0x40 DUP1 MLOAD PUSH1 0x2 DUP1 DUP3 MSTORE PUSH1 0x60 DUP3 ADD DUP4 MSTORE DUP5 SWAP3 DUP5 SWAP3 SWAP2 SWAP1 PUSH1 0x20 DUP4 ADD SWAP1 DUP1 CALLDATASIZE DUP4 CALLDATACOPY ADD SWAP1 POP POP SWAP8 POP SWAP8 POP SWAP8 POP POP POP POP POP POP SWAP8 POP SWAP8 POP SWAP8 SWAP5 POP POP POP POP POP JUMP JUMPDEST PUSH2 0x2747 DUP2 PUSH1 0x0 DUP2 MLOAD DUP2 LT PUSH2 0x2730 JUMPI INVALID JUMPDEST PUSH1 0x20 MUL PUSH1 0x20 ADD ADD MLOAD PUSH2 0x2742 PUSH1 0x1 PUSH2 0x27D5 JUMP JUMPDEST PUSH2 0x3449 JUMP JUMPDEST DUP2 PUSH1 0x0 DUP2 MLOAD DUP2 LT PUSH2 0x2754 JUMPI INVALID JUMPDEST PUSH1 0x20 MUL PUSH1 0x20 ADD ADD DUP2 DUP2 MSTORE POP POP PUSH2 0x22A3 DUP2 PUSH1 0x1 DUP2 MLOAD DUP2 LT PUSH2 0x2770 JUMPI INVALID JUMPDEST PUSH1 0x20 MUL PUSH1 0x20 ADD ADD MLOAD PUSH2 0x2742 PUSH1 0x0 PUSH2 0x27D5 JUMP JUMPDEST PUSH3 0x461BCD PUSH1 0xE5 SHL PUSH1 0x0 SWAP1 DUP2 MSTORE PUSH1 0x20 PUSH1 0x4 MSTORE PUSH1 0x7 PUSH1 0x24 MSTORE PUSH7 0x42414C23000030 PUSH1 0xA DUP1 DUP5 DIV DUP2 DUP2 MOD PUSH1 0x30 SWAP1 DUP2 ADD PUSH1 0x8 SHL SWAP6 DUP4 SWAP1 MOD SWAP6 SWAP1 SWAP6 ADD SWAP1 DUP3 SWAP1 DIV SWAP2 DUP3 MOD SWAP1 SWAP5 ADD PUSH1 0x10 SHL SWAP4 SWAP1 SWAP4 ADD ADD PUSH1 0xC8 SHL PUSH1 0x44 MSTORE PUSH1 0x64 SWAP1 REVERT JUMPDEST PUSH1 0x0 DUP2 PUSH2 0x2802 JUMPI PUSH32 0x0 PUSH2 0x7AD JUMP JUMPDEST POP PUSH32 0x0 SWAP2 SWAP1 POP JUMP JUMPDEST PUSH1 0x0 PUSH2 0x9F4 DUP4 DUP4 PUSH2 0x2447 JUMP JUMPDEST PUSH1 0x40 DUP1 MLOAD PUSH1 0x2 DUP1 DUP3 MSTORE PUSH1 0x60 DUP1 DUP4 ADD DUP5 MSTORE SWAP3 PUSH1 0x20 DUP4 ADD SWAP1 DUP1 CALLDATASIZE DUP4 CALLDATACOPY ADD SWAP1 POP POP SWAP1 POP DUP2 ISZERO PUSH2 0x2894 JUMPI DUP4 DUP2 PUSH1 0x0 DUP2 MLOAD DUP2 LT PUSH2 0x2869 JUMPI INVALID JUMPDEST PUSH1 0x20 MUL PUSH1 0x20 ADD ADD DUP2 DUP2 MSTORE POP POP DUP3 DUP2 PUSH1 0x1 DUP2 MLOAD DUP2 LT PUSH2 0x2883 JUMPI INVALID JUMPDEST PUSH1 0x20 MUL PUSH1 0x20 ADD ADD DUP2 DUP2 MSTORE POP POP PUSH2 0x9F4 JUMP JUMPDEST DUP3 DUP2 PUSH1 0x0 DUP2 MLOAD DUP2 LT PUSH2 0x28A2 JUMPI INVALID JUMPDEST PUSH1 0x20 MUL PUSH1 0x20 ADD ADD DUP2 DUP2 MSTORE POP POP DUP4 DUP2 PUSH1 0x1 DUP2 MLOAD DUP2 LT PUSH2 0x28BC JUMPI INVALID JUMPDEST PUSH1 0x20 MUL PUSH1 0x20 ADD ADD DUP2 DUP2 MSTORE POP POP SWAP4 SWAP3 POP POP POP JUMP JUMPDEST PUSH1 0x0 DUP1 DUP3 SLT ISZERO PUSH2 0x2926 JUMPI PUSH1 0x40 DUP1 MLOAD PUSH3 0x461BCD PUSH1 0xE5 SHL DUP2 MSTORE PUSH1 0x20 PUSH1 0x4 DUP3 ADD DUP2 SWAP1 MSTORE PUSH1 0x24 DUP3 ADD MSTORE PUSH32 0x53616665436173743A2076616C7565206D75737420626520706F736974697665 PUSH1 0x44 DUP3 ADD MSTORE SWAP1 MLOAD SWAP1 DUP2 SWAP1 SUB PUSH1 0x64 ADD SWAP1 REVERT JUMPDEST POP SWAP1 JUMP JUMPDEST PUSH1 0x9 SLOAD PUSH2 0x2936 DUP2 PUSH2 0x209F JUMP JUMPDEST DUP1 ISZERO PUSH2 0x2941 JUMPI POP DUP6 NUMBER GT JUMPDEST ISZERO PUSH2 0x2A9A JUMPI PUSH1 0x0 PUSH20 0x0 PUSH4 0xBCE135AA DUP8 DUP7 DUP7 PUSH2 0x296E DUP11 PUSH2 0x347C JUMP JUMPDEST PUSH1 0x40 MLOAD DUP6 PUSH4 0xFFFFFFFF AND PUSH1 0xE0 SHL DUP2 MSTORE PUSH1 0x4 ADD PUSH2 0x298D SWAP5 SWAP4 SWAP3 SWAP2 SWAP1 PUSH2 0x523D JUMP JUMPDEST PUSH1 0x20 PUSH1 0x40 MLOAD DUP1 DUP4 SUB DUP2 DUP7 DUP1 EXTCODESIZE ISZERO DUP1 ISZERO PUSH2 0x29A5 JUMPI PUSH1 0x0 DUP1 REVERT JUMPDEST POP GAS DELEGATECALL ISZERO DUP1 ISZERO PUSH2 0x29B9 JUMPI RETURNDATASIZE PUSH1 0x0 DUP1 RETURNDATACOPY RETURNDATASIZE PUSH1 0x0 REVERT JUMPDEST POP POP POP POP PUSH1 0x40 MLOAD RETURNDATASIZE PUSH1 0x1F NOT PUSH1 0x1F DUP3 ADD AND DUP3 ADD DUP1 PUSH1 0x40 MSTORE POP DUP2 ADD SWAP1 PUSH2 0x29DD SWAP2 SWAP1 PUSH2 0x4F1D JUMP JUMPDEST SWAP1 POP PUSH1 0x0 PUSH2 0x29EA DUP3 PUSH2 0x34C0 JUMP JUMPDEST SWAP1 POP PUSH1 0x0 PUSH2 0x2A00 DUP8 PUSH2 0x29FB DUP7 PUSH2 0x2078 JUMP JUMPDEST PUSH2 0x34CB JUMP JUMPDEST SWAP1 POP PUSH1 0x0 PUSH2 0x2A0D DUP6 PUSH2 0x2092 JUMP JUMPDEST SWAP1 POP PUSH1 0x0 PUSH2 0x2A1A DUP7 PUSH2 0x2085 JUMP JUMPDEST SWAP1 POP PUSH1 0x0 PUSH2 0x2A33 DUP3 DUP5 DUP8 DUP8 PUSH2 0x2A2E DUP13 PUSH2 0x206C JUMP JUMPDEST PUSH2 0x34E2 JUMP JUMPDEST SWAP1 POP DUP1 DUP4 EQ PUSH2 0x2A93 JUMPI PUSH2 0x2A46 DUP8 DUP3 PUSH2 0x3539 JUMP JUMPDEST SWAP7 POP PUSH2 0x2A52 DUP8 TIMESTAMP PUSH2 0x3547 JUMP JUMPDEST SWAP7 POP DUP7 PUSH1 0x9 DUP2 SWAP1 SSTORE POP PUSH32 0x12ADE7B7DD29C5E3DF1E883F0A092467D851B06C52F3C4484A443D40B9CD6601 DUP2 PUSH1 0x40 MLOAD PUSH2 0x2A8A SWAP2 SWAP1 PUSH2 0x531F JUMP JUMPDEST PUSH1 0x40 MLOAD DUP1 SWAP2 SUB SWAP1 LOG1 JUMPDEST POP POP POP POP POP POP JUMPDEST POP POP POP POP POP POP JUMP JUMPDEST PUSH1 0x0 DUP3 DUP3 MUL DUP4 ISZERO DUP1 PUSH2 0x2ABC JUMPI POP DUP3 DUP5 DUP3 DUP2 PUSH2 0x2AB9 JUMPI INVALID JUMPDEST DIV EQ JUMPDEST PUSH2 0x2ACC JUMPI PUSH2 0x2ACC PUSH1 0x0 PUSH1 0x3 PUSH2 0x1AF3 JUMP JUMPDEST DUP1 PUSH2 0x2ADB JUMPI PUSH1 0x0 SWAP2 POP POP PUSH2 0x7AD JUMP JUMPDEST PUSH8 0xDE0B6B3A7640000 PUSH1 0x0 NOT DUP3 ADD JUMPDEST DIV PUSH1 0x1 ADD SWAP2 POP POP SWAP3 SWAP2 POP POP JUMP JUMPDEST PUSH1 0x0 DUP3 DUP3 GT ISZERO PUSH2 0x1933 JUMPI PUSH2 0x1933 PUSH1 0x0 PUSH1 0x1 PUSH2 0x1AF3 JUMP JUMPDEST PUSH1 0x60 DUP7 ADD MLOAD PUSH1 0x40 MLOAD PUSH4 0x3773625F PUSH1 0xE2 SHL DUP2 MSTORE PUSH1 0x0 SWAP2 PUSH20 0x0 SWAP2 PUSH4 0xDDCD897C SWAP2 PUSH2 0x2B55 SWAP2 DUP11 SWAP2 SWAP1 DUP11 SWAP1 DUP11 SWAP1 DUP11 SWAP1 DUP11 SWAP1 PUSH1 0x4 ADD PUSH2 0x52AE JUMP JUMPDEST PUSH1 0x20 PUSH1 0x40 MLOAD DUP1 DUP4 SUB DUP2 DUP7 DUP1 EXTCODESIZE ISZERO DUP1 ISZERO PUSH2 0x2B6D JUMPI PUSH1 0x0 DUP1 REVERT JUMPDEST POP GAS DELEGATECALL ISZERO DUP1 ISZERO PUSH2 0x2B81 JUMPI RETURNDATASIZE PUSH1 0x0 DUP1 RETURNDATACOPY RETURNDATASIZE PUSH1 0x0 REVERT JUMPDEST POP POP POP POP PUSH1 0x40 MLOAD RETURNDATASIZE PUSH1 0x1F NOT PUSH1 0x1F DUP3 ADD AND DUP3 ADD DUP1 PUSH1 0x40 MSTORE POP DUP2 ADD SWAP1 PUSH2 0x1F1C SWAP2 SWAP1 PUSH2 0x4F1D JUMP JUMPDEST PUSH1 0x0 PUSH2 0x9F4 DUP4 DUP4 PUSH2 0x32EA JUMP JUMPDEST PUSH1 0x60 DUP7 ADD MLOAD PUSH1 0x40 MLOAD PUSH4 0xC8AFB835 PUSH1 0xE0 SHL DUP2 MSTORE PUSH1 0x0 SWAP2 PUSH20 0x0 SWAP2 PUSH4 0xC8AFB835 SWAP2 PUSH2 0x2B55 SWAP2 DUP11 SWAP2 SWAP1 DUP11 SWAP1 DUP11 SWAP1 DUP11 SWAP1 DUP11 SWAP1 PUSH1 0x4 ADD PUSH2 0x52AE JUMP JUMPDEST PUSH1 0x0 PUSH2 0x9F4 DUP4 DUP4 PUSH2 0x3449 JUMP JUMPDEST PUSH1 0x0 PUSH8 0xDE0B6B3A7640000 DUP3 LT PUSH2 0x2C1D JUMPI PUSH1 0x0 PUSH2 0x7AD JUMP JUMPDEST POP PUSH8 0xDE0B6B3A7640000 SUB SWAP1 JUMP JUMPDEST PUSH1 0x0 DUP2 PUSH2 0x2C3E JUMPI PUSH2 0x2C3E PUSH1 0x0 PUSH1 0x4 PUSH2 0x1AF3 JUMP JUMPDEST DUP3 PUSH2 0x2C4B JUMPI POP PUSH1 0x0 PUSH2 0x7AD JUMP JUMPDEST PUSH8 0xDE0B6B3A7640000 DUP4 DUP2 MUL SWAP1 DUP5 DUP3 DUP2 PUSH2 0x2C61 JUMPI INVALID JUMPDEST DIV EQ PUSH2 0x2C85 JUMPI PUSH2 0x2C85 PUSH8 0xDE0B6B3A7640000 DUP6 DUP4 DUP2 PUSH2 0x2C7C JUMPI INVALID JUMPDEST DIV EQ PUSH1 0x5 PUSH2 0x1AF3 JUMP JUMPDEST DUP3 PUSH1 0x1 DUP3 SUB DUP2 PUSH2 0x2AEA JUMPI INVALID JUMPDEST PUSH1 0x0 PUSH2 0x2C9B PUSH2 0xF58 JUMP JUMPDEST PUSH1 0x1 PUSH1 0x1 PUSH1 0xA0 SHL SUB AND PUSH4 0xAAABADC5 PUSH1 0x40 MLOAD DUP2 PUSH4 0xFFFFFFFF AND PUSH1 0xE0 SHL DUP2 MSTORE PUSH1 0x4 ADD PUSH1 0x20 PUSH1 0x40 MLOAD DUP1 DUP4 SUB DUP2 DUP7 DUP1 EXTCODESIZE ISZERO DUP1 ISZERO PUSH2 0x2CD3 JUMPI PUSH1 0x0 DUP1 REVERT JUMPDEST POP GAS STATICCALL ISZERO DUP1 ISZERO PUSH2 0x2CE7 JUMPI RETURNDATASIZE PUSH1 0x0 DUP1 RETURNDATACOPY RETURNDATASIZE PUSH1 0x0 REVERT JUMPDEST POP POP POP POP PUSH1 0x40 MLOAD RETURNDATASIZE PUSH1 0x1F NOT PUSH1 0x1F DUP3 ADD AND DUP3 ADD DUP1 PUSH1 0x40 MSTORE POP DUP2 ADD SWAP1 PUSH2 0xADA SWAP2 SWAP1 PUSH2 0x4A26 JUMP JUMPDEST PUSH1 0x40 DUP1 MLOAD PUSH1 0x2 DUP1 DUP3 MSTORE PUSH1 0x60 DUP1 DUP4 ADD DUP5 MSTORE SWAP3 PUSH1 0x0 SWAP3 SWAP2 SWAP1 PUSH1 0x20 DUP4 ADD SWAP1 DUP1 CALLDATASIZE DUP4 CALLDATACOPY ADD SWAP1 POP POP SWAP1 POP PUSH2 0x2D3A PUSH1 0x1 PUSH2 0x3555 JUMP JUMPDEST DUP2 PUSH1 0x0 DUP2 MLOAD DUP2 LT PUSH2 0x2D47 JUMPI INVALID JUMPDEST PUSH1 0x20 MUL PUSH1 0x20 ADD ADD DUP2 DUP2 MSTORE POP POP PUSH2 0x2D5D PUSH1 0x0 PUSH2 0x3555 JUMP JUMPDEST DUP2 PUSH1 0x1 DUP2 MLOAD DUP2 LT PUSH2 0x2D6A JUMPI INVALID JUMPDEST PUSH1 0x20 SWAP1 DUP2 MUL SWAP2 SWAP1 SWAP2 ADD ADD MSTORE SWAP1 POP SWAP1 JUMP JUMPDEST PUSH8 0xDE0B6B3A7640000 PUSH1 0x0 JUMPDEST DUP4 MLOAD DUP2 LT ISZERO PUSH2 0x2DDC JUMPI PUSH2 0x2DD2 PUSH2 0x2DCB DUP6 DUP4 DUP2 MLOAD DUP2 LT PUSH2 0x2DA1 JUMPI INVALID JUMPDEST PUSH1 0x20 MUL PUSH1 0x20 ADD ADD MLOAD DUP6 DUP5 DUP2 MLOAD DUP2 LT PUSH2 0x2DB5 JUMPI INVALID JUMPDEST PUSH1 0x20 MUL PUSH1 0x20 ADD ADD MLOAD PUSH2 0x35A9 SWAP1 SWAP2 SWAP1 PUSH4 0xFFFFFFFF AND JUMP JUMPDEST DUP4 SWAP1 PUSH2 0x35F8 JUMP JUMPDEST SWAP2 POP PUSH1 0x1 ADD PUSH2 0x2D86 JUMP JUMPDEST POP PUSH2 0x7AD PUSH1 0x0 DUP3 GT PUSH2 0x137 PUSH2 0x1AF3 JUMP JUMPDEST PUSH1 0x0 PUSH2 0x2DF6 PUSH2 0x1F33 JUMP JUMPDEST DUP3 PUSH1 0x40 MLOAD PUSH1 0x20 ADD DUP1 DUP1 PUSH2 0x1901 PUSH1 0xF0 SHL DUP2 MSTORE POP PUSH1 0x2 ADD DUP4 DUP2 MSTORE PUSH1 0x20 ADD DUP3 DUP2 MSTORE PUSH1 0x20 ADD SWAP3 POP POP POP PUSH1 0x40 MLOAD PUSH1 0x20 DUP2 DUP4 SUB SUB DUP2 MSTORE SWAP1 PUSH1 0x40 MSTORE DUP1 MLOAD SWAP1 PUSH1 0x20 ADD KECCAK256 SWAP1 POP SWAP2 SWAP1 POP JUMP JUMPDEST PUSH1 0x0 PUSH1 0x60 PUSH1 0x0 PUSH2 0x2E47 DUP5 PUSH2 0x3621 JUMP JUMPDEST SWAP1 POP PUSH2 0x2E62 PUSH1 0x0 DUP3 PUSH1 0x3 DUP2 GT ISZERO PUSH2 0x2E5A JUMPI INVALID JUMPDEST EQ PUSH1 0xCE PUSH2 0x1AF3 JUMP JUMPDEST PUSH1 0x0 PUSH2 0x2E6D DUP6 PUSH2 0x3640 JUMP JUMPDEST SWAP1 POP PUSH2 0x2E7B DUP2 MLOAD PUSH1 0x2 PUSH2 0x20B9 JUMP JUMPDEST PUSH2 0x2E84 DUP2 PUSH2 0x255E JUMP JUMPDEST PUSH1 0x0 DUP1 PUSH2 0x2E8F PUSH2 0x1C8F JUMP JUMPDEST SWAP2 POP SWAP2 POP PUSH1 0x0 PUSH20 0x0 PUSH4 0x371C08F1 DUP6 DUP6 DUP6 PUSH1 0x40 MLOAD DUP5 PUSH4 0xFFFFFFFF AND PUSH1 0xE0 SHL DUP2 MSTORE PUSH1 0x4 ADD PUSH2 0x2ED0 SWAP4 SWAP3 SWAP2 SWAP1 PUSH2 0x520C JUMP JUMPDEST PUSH1 0x20 PUSH1 0x40 MLOAD DUP1 DUP4 SUB DUP2 DUP7 DUP1 EXTCODESIZE ISZERO DUP1 ISZERO PUSH2 0x2EE8 JUMPI PUSH1 0x0 DUP1 REVERT JUMPDEST POP GAS DELEGATECALL ISZERO DUP1 ISZERO PUSH2 0x2EFC JUMPI RETURNDATASIZE PUSH1 0x0 DUP1 RETURNDATACOPY RETURNDATASIZE PUSH1 0x0 REVERT JUMPDEST POP POP POP POP PUSH1 0x40 MLOAD RETURNDATASIZE PUSH1 0x1F NOT PUSH1 0x1F DUP3 ADD AND DUP3 ADD DUP1 PUSH1 0x40 MSTORE POP DUP2 ADD SWAP1 PUSH2 0x2F20 SWAP2 SWAP1 PUSH2 0x4F1D JUMP JUMPDEST SWAP1 POP PUSH32 0xAF65F1A72BF4F8BC48E8153858E1F7B307CE39C88361A677C0A79C2A1AE571EF DUP2 PUSH1 0x40 MLOAD PUSH2 0x2F51 SWAP2 SWAP1 PUSH2 0x531F JUMP JUMPDEST PUSH1 0x40 MLOAD DUP1 SWAP2 SUB SWAP1 LOG1 PUSH1 0x0 PUSH2 0x2F66 DUP3 PUSH1 0x2 PUSH2 0x2447 JUMP JUMPDEST PUSH1 0xA SWAP3 SWAP1 SWAP3 SSTORE POP SWAP11 SWAP3 SWAP10 POP SWAP2 SWAP8 POP POP POP POP POP POP POP POP JUMP JUMPDEST PUSH2 0x1903 DUP3 DUP3 PUSH2 0x36F4 JUMP JUMPDEST POP POP POP JUMP JUMPDEST PUSH1 0x1 PUSH1 0x1 PUSH1 0xA0 SHL SUB SWAP2 DUP3 AND PUSH1 0x0 SWAP1 DUP2 MSTORE PUSH1 0x1 PUSH1 0x20 SWAP1 DUP2 MSTORE PUSH1 0x40 DUP1 DUP4 KECCAK256 SWAP4 SWAP1 SWAP5 AND DUP3 MSTORE SWAP2 SWAP1 SWAP2 MSTORE KECCAK256 SLOAD SWAP1 JUMP JUMPDEST PUSH1 0x2 DUP2 MLOAD LT ISZERO PUSH2 0x2FC6 JUMPI PUSH2 0x7E8 JUMP JUMPDEST PUSH1 0x0 DUP2 PUSH1 0x0 DUP2 MLOAD DUP2 LT PUSH2 0x2FD5 JUMPI INVALID JUMPDEST PUSH1 0x20 MUL PUSH1 0x20 ADD ADD MLOAD SWAP1 POP PUSH1 0x0 PUSH1 0x1 SWAP1 POP JUMPDEST DUP3 MLOAD DUP2 LT ISZERO PUSH2 0x2F87 JUMPI PUSH1 0x0 DUP4 DUP3 DUP2 MLOAD DUP2 LT PUSH2 0x2FFD JUMPI INVALID JUMPDEST PUSH1 0x20 MUL PUSH1 0x20 ADD ADD MLOAD SWAP1 POP PUSH2 0x3026 DUP2 PUSH1 0x1 PUSH1 0x1 PUSH1 0xA0 SHL SUB AND DUP5 PUSH1 0x1 PUSH1 0x1 PUSH1 0xA0 SHL SUB AND LT PUSH1 0x65 PUSH2 0x1AF3 JUMP JUMPDEST SWAP2 POP PUSH1 0x1 ADD PUSH2 0x2FE6 JUMP JUMPDEST PUSH1 0x0 PUSH20 0xBA1BA1BA1BA1BA1BA1BA1BA1BA1BA1BA1BA1BA1B PUSH2 0x304F PUSH2 0xF34 JUMP JUMPDEST PUSH1 0x1 PUSH1 0x1 PUSH1 0xA0 SHL SUB AND EQ ISZERO DUP1 ISZERO PUSH2 0x306A JUMPI POP PUSH2 0x306A DUP4 PUSH2 0x3789 JUMP JUMPDEST ISZERO PUSH2 0x3092 JUMPI PUSH2 0x3077 PUSH2 0xF34 JUMP JUMPDEST PUSH1 0x1 PUSH1 0x1 PUSH1 0xA0 SHL SUB AND CALLER PUSH1 0x1 PUSH1 0x1 PUSH1 0xA0 SHL SUB AND EQ SWAP1 POP PUSH2 0x7AD JUMP JUMPDEST PUSH2 0x309A PUSH2 0x2C91 JUMP JUMPDEST PUSH1 0x1 PUSH1 0x1 PUSH1 0xA0 SHL SUB AND PUSH4 0x9BE2A884 DUP5 DUP5 ADDRESS PUSH1 0x40 MLOAD DUP5 PUSH4 0xFFFFFFFF AND PUSH1 0xE0 SHL DUP2 MSTORE PUSH1 0x4 ADD DUP1 DUP5 DUP2 MSTORE PUSH1 0x20 ADD DUP4 PUSH1 0x1 PUSH1 0x1 PUSH1 0xA0 SHL SUB AND DUP2 MSTORE PUSH1 0x20 ADD DUP3 PUSH1 0x1 PUSH1 0x1 PUSH1 0xA0 SHL SUB AND DUP2 MSTORE PUSH1 0x20 ADD SWAP4 POP POP POP POP PUSH1 0x20 PUSH1 0x40 MLOAD DUP1 DUP4 SUB DUP2 DUP7 DUP1 EXTCODESIZE ISZERO DUP1 ISZERO PUSH2 0x30FF JUMPI PUSH1 0x0 DUP1 REVERT JUMPDEST POP GAS STATICCALL ISZERO DUP1 ISZERO PUSH2 0x3113 JUMPI RETURNDATASIZE PUSH1 0x0 DUP1 RETURNDATACOPY RETURNDATASIZE PUSH1 0x0 REVERT JUMPDEST POP POP POP POP PUSH1 0x40 MLOAD RETURNDATASIZE PUSH1 0x20 DUP2 LT ISZERO PUSH2 0x3129 JUMPI PUSH1 0x0 DUP1 REVERT JUMPDEST POP MLOAD SWAP1 POP PUSH2 0x7AD JUMP JUMPDEST PUSH1 0x0 PUSH2 0x3141 DUP5 DUP5 GT ISZERO DUP4 PUSH2 0x1AF3 JUMP JUMPDEST POP POP SWAP1 SUB SWAP1 JUMP JUMPDEST PUSH1 0x0 DUP1 PUSH2 0x3154 DUP4 PUSH2 0x37BB JUMP JUMPDEST SWAP1 POP PUSH1 0x0 DUP1 DUP3 SGT PUSH2 0x316D JUMPI PUSH6 0x2D79883D2000 DUP3 SUB PUSH2 0x3177 JUMP JUMPDEST PUSH6 0x2D79883D2000 DUP3 ADD JUMPDEST PUSH6 0x5AF3107A4000 SWAP1 SDIV SWAP5 SWAP4 POP POP POP POP JUMP JUMPDEST PUSH1 0x0 PUSH2 0x9F4 DUP4 DUP4 DUP4 PUSH2 0x381F JUMP JUMPDEST PUSH1 0x0 PUSH2 0x9F4 DUP4 DUP4 PUSH1 0x16 PUSH2 0x381F JUMP JUMPDEST SHL SWAP1 JUMP JUMPDEST PUSH7 0x1FFFFFFFFFFFFF SWAP2 SWAP1 SWAP2 AND SWAP1 SHL SWAP1 JUMP JUMPDEST PUSH3 0x3FFFFF SWAP2 SWAP1 SWAP2 AND SWAP1 SHL SWAP1 JUMP JUMPDEST SHR PUSH4 0x7FFFFFFF AND SWAP1 JUMP JUMPDEST CHAINID SWAP1 JUMP JUMPDEST PUSH1 0x0 DUP3 DUP3 SHR PUSH3 0x3FFFFF AND PUSH3 0x1FFFFF DUP2 SGT PUSH2 0x31ED JUMPI DUP1 PUSH2 0x2556 JUMP JUMPDEST PUSH3 0x3FFFFF NOT OR SWAP4 SWAP3 POP POP POP JUMP JUMPDEST SHR PUSH2 0x3FF AND SWAP1 JUMP JUMPDEST SHR PUSH1 0x1 SWAP1 DUP2 AND EQ SWAP1 JUMP JUMPDEST SHR PUSH1 0x1 PUSH1 0x1 PUSH1 0x40 SHL SUB AND SWAP1 JUMP JUMPDEST PUSH1 0x0 DUP1 PUSH1 0x0 DUP1 PUSH2 0x322B PUSH1 0xA SLOAD DUP7 PUSH2 0x3836 JUMP JUMPDEST SWAP4 POP SWAP4 POP SWAP4 POP SWAP4 POP PUSH2 0x323F DUP5 DUP5 DUP5 DUP5 PUSH2 0x389F JUMP JUMPDEST POP POP POP POP POP JUMP JUMPDEST PUSH1 0x0 PUSH1 0x60 PUSH1 0x0 PUSH2 0x3255 DUP5 PUSH2 0x3621 JUMP JUMPDEST SWAP1 POP PUSH1 0x1 DUP2 PUSH1 0x3 DUP2 GT ISZERO PUSH2 0x3265 JUMPI INVALID JUMPDEST EQ ISZERO PUSH2 0x327F JUMPI PUSH2 0x3275 DUP6 DUP6 PUSH2 0x38BF JUMP JUMPDEST SWAP1 SWAP4 POP SWAP2 POP PUSH2 0x328A JUMP JUMPDEST PUSH2 0x328A PUSH2 0x150 PUSH2 0x2782 JUMP JUMPDEST POP SWAP3 POP SWAP3 SWAP1 POP JUMP JUMPDEST PUSH1 0x0 DUP2 ISZERO PUSH2 0x32C4 JUMPI PUSH1 0x0 PUSH2 0x32B0 DUP5 PUSH2 0x32AA DUP9 DUP9 PUSH2 0x2AA2 JUMP JUMPDEST SWAP1 PUSH2 0x2C2B JUMP JUMPDEST SWAP1 POP PUSH2 0x32BC DUP7 DUP3 PUSH2 0x38F1 JUMP JUMPDEST SWAP2 POP POP PUSH2 0x2556 JUMP JUMPDEST PUSH1 0x0 PUSH2 0x32D4 DUP5 PUSH2 0xCD3 DUP9 DUP9 PUSH2 0x3909 JUMP JUMPDEST SWAP1 POP PUSH2 0x32E0 DUP7 DUP3 PUSH2 0x2AF7 JUMP JUMPDEST SWAP7 SWAP6 POP POP POP POP POP POP JUMP JUMPDEST PUSH1 0x0 PUSH2 0x32F9 DUP3 ISZERO ISZERO PUSH1 0x4 PUSH2 0x1AF3 JUMP JUMPDEST DUP2 DUP4 DUP2 PUSH2 0x3302 JUMPI INVALID JUMPDEST DIV SWAP4 SWAP3 POP POP POP JUMP JUMPDEST PUSH1 0x0 PUSH2 0x7AD DUP3 PUSH1 0xEA PUSH2 0x31D3 JUMP JUMPDEST PUSH1 0x0 PUSH2 0x7AD DUP3 PUSH1 0xB5 PUSH2 0x3933 JUMP JUMPDEST PUSH1 0x0 PUSH2 0x7AD DUP3 PUSH1 0x9F PUSH2 0x31D3 JUMP JUMPDEST PUSH1 0x0 PUSH2 0x7AD DUP3 PUSH1 0x6A PUSH2 0x3933 JUMP JUMPDEST PUSH1 0x0 PUSH2 0x7AD DUP3 PUSH1 0x54 PUSH2 0x31D3 JUMP JUMPDEST PUSH1 0x0 PUSH2 0x7AD DUP3 PUSH1 0x1F PUSH2 0x3933 JUMP JUMPDEST PUSH2 0x336F PUSH1 0x1 PUSH1 0x1 PUSH1 0xA0 SHL SUB DUP4 AND ISZERO ISZERO PUSH2 0x19B PUSH2 0x1AF3 JUMP JUMPDEST PUSH2 0x337B DUP3 PUSH1 0x0 DUP4 PUSH2 0x2F87 JUMP JUMPDEST PUSH1 0x1 PUSH1 0x1 PUSH1 0xA0 SHL SUB DUP3 AND PUSH1 0x0 SWAP1 DUP2 MSTORE PUSH1 0x20 DUP2 SWAP1 MSTORE PUSH1 0x40 SWAP1 KECCAK256 SLOAD PUSH2 0x33A1 SWAP1 DUP3 PUSH2 0x1A1 PUSH2 0x3132 JUMP JUMPDEST PUSH1 0x1 PUSH1 0x1 PUSH1 0xA0 SHL SUB DUP4 AND PUSH1 0x0 SWAP1 DUP2 MSTORE PUSH1 0x20 DUP2 SWAP1 MSTORE PUSH1 0x40 SWAP1 KECCAK256 SSTORE PUSH1 0x2 SLOAD PUSH2 0x33C7 SWAP1 DUP3 PUSH2 0x3966 JUMP JUMPDEST PUSH1 0x2 SSTORE PUSH1 0x40 DUP1 MLOAD DUP3 DUP2 MSTORE SWAP1 MLOAD PUSH1 0x0 SWAP2 PUSH1 0x1 PUSH1 0x1 PUSH1 0xA0 SHL SUB DUP6 AND SWAP2 PUSH32 0xDDF252AD1BE2C89B69C2B068FC378DAA952BA7F163C4A11628F55A4DF523B3EF SWAP2 DUP2 SWAP1 SUB PUSH1 0x20 ADD SWAP1 LOG3 POP POP JUMP JUMPDEST PUSH1 0x0 PUSH1 0x60 PUSH1 0x0 PUSH2 0x341E DUP5 PUSH2 0x3621 JUMP JUMPDEST SWAP1 POP PUSH1 0x3 DUP2 PUSH1 0x3 DUP2 GT ISZERO PUSH2 0x342E JUMPI INVALID JUMPDEST EQ ISZERO PUSH2 0x343E JUMPI PUSH2 0x3275 DUP6 DUP6 PUSH2 0x3974 JUMP JUMPDEST PUSH2 0x328A PUSH2 0x136 PUSH2 0x2782 JUMP JUMPDEST PUSH1 0x0 PUSH2 0x3458 DUP3 ISZERO ISZERO PUSH1 0x4 PUSH2 0x1AF3 JUMP JUMPDEST DUP3 PUSH2 0x3465 JUMPI POP PUSH1 0x0 PUSH2 0x7AD JUMP JUMPDEST DUP2 PUSH1 0x1 DUP5 SUB DUP2 PUSH2 0x3471 JUMPI INVALID JUMPDEST DIV PUSH1 0x1 ADD SWAP1 POP PUSH2 0x7AD JUMP JUMPDEST PUSH1 0x0 PUSH1 0x1 PUSH1 0xFF SHL DUP3 LT PUSH2 0x2926 JUMPI PUSH1 0x40 MLOAD PUSH3 0x461BCD PUSH1 0xE5 SHL DUP2 MSTORE PUSH1 0x4 ADD DUP1 DUP1 PUSH1 0x20 ADD DUP3 DUP2 SUB DUP3 MSTORE PUSH1 0x28 DUP2 MSTORE PUSH1 0x20 ADD DUP1 PUSH2 0x554F PUSH1 0x28 SWAP2 CODECOPY PUSH1 0x40 ADD SWAP2 POP POP PUSH1 0x40 MLOAD DUP1 SWAP2 SUB SWAP1 REVERT JUMPDEST PUSH1 0x0 PUSH2 0x7AD DUP3 PUSH2 0x3148 JUMP JUMPDEST PUSH1 0x0 DUP1 PUSH2 0x34D7 DUP5 PUSH2 0x3148 JUMP JUMPDEST SWAP3 SWAP1 SWAP3 SUB SWAP4 SWAP3 POP POP POP JUMP JUMPDEST PUSH1 0x0 DUP1 PUSH2 0x34FE DUP6 DUP6 DUP6 TIMESTAMP PUSH2 0x34F5 DUP12 PUSH2 0x23D2 JUMP JUMPDEST SWAP4 SWAP3 SWAP2 SWAP1 PUSH2 0x3999 JUMP JUMPDEST SWAP1 POP PUSH1 0x78 TIMESTAMP DUP9 SWAP1 SUB LT ISZERO DUP1 PUSH2 0x3513 JUMPI DUP7 PUSH2 0x351C JUMP JUMPDEST PUSH2 0x351C DUP8 PUSH2 0x39F9 JUMP JUMPDEST PUSH1 0x0 DUP2 DUP2 MSTORE PUSH1 0x8 PUSH1 0x20 MSTORE PUSH1 0x40 SWAP1 KECCAK256 SWAP3 SWAP1 SWAP3 SSTORE POP SWAP7 SWAP6 POP POP POP POP POP POP JUMP JUMPDEST PUSH1 0x0 PUSH2 0x9F4 DUP4 DUP4 PUSH1 0x4B PUSH2 0x3A06 JUMP JUMPDEST PUSH1 0x0 PUSH2 0x9F4 DUP4 DUP4 PUSH1 0x2C PUSH2 0x3A16 JUMP JUMPDEST PUSH1 0x0 DUP2 PUSH2 0x3582 JUMPI PUSH32 0x0 PUSH2 0x7AD JUMP JUMPDEST POP PUSH32 0x0 SWAP2 SWAP1 POP JUMP JUMPDEST PUSH1 0x0 DUP1 PUSH2 0x35B6 DUP5 DUP5 PUSH2 0x3A28 JUMP JUMPDEST SWAP1 POP PUSH1 0x0 PUSH2 0x35D0 PUSH2 0x35C9 DUP4 PUSH2 0x2710 PUSH2 0x3B29 JUMP JUMPDEST PUSH1 0x1 PUSH2 0x205A JUMP JUMPDEST SWAP1 POP DUP1 DUP3 LT ISZERO PUSH2 0x35E5 JUMPI PUSH1 0x0 SWAP3 POP POP POP PUSH2 0x7AD JUMP JUMPDEST PUSH2 0x35EF DUP3 DUP3 PUSH2 0x1923 JUMP JUMPDEST SWAP3 POP POP POP PUSH2 0x7AD JUMP JUMPDEST PUSH1 0x0 DUP3 DUP3 MUL PUSH2 0x3612 DUP5 ISZERO DUP1 PUSH2 0x2464 JUMPI POP DUP4 DUP6 DUP4 DUP2 PUSH2 0x2461 JUMPI INVALID JUMPDEST PUSH8 0xDE0B6B3A7640000 DUP2 PUSH2 0x24BC JUMP JUMPDEST PUSH1 0x0 DUP2 DUP1 PUSH1 0x20 ADD SWAP1 MLOAD PUSH1 0x20 DUP2 LT ISZERO PUSH2 0x3638 JUMPI PUSH1 0x0 DUP1 REVERT JUMPDEST POP MLOAD SWAP3 SWAP2 POP POP JUMP JUMPDEST PUSH1 0x60 DUP2 DUP1 PUSH1 0x20 ADD SWAP1 MLOAD PUSH1 0x40 DUP2 LT ISZERO PUSH2 0x3657 JUMPI PUSH1 0x0 DUP1 REVERT JUMPDEST DUP2 MLOAD PUSH1 0x20 DUP4 ADD DUP1 MLOAD PUSH1 0x40 MLOAD SWAP3 SWAP5 SWAP3 SWAP4 DUP4 ADD SWAP3 SWAP2 SWAP1 DUP5 PUSH5 0x100000000 DUP3 GT ISZERO PUSH2 0x367E JUMPI PUSH1 0x0 DUP1 REVERT JUMPDEST SWAP1 DUP4 ADD SWAP1 PUSH1 0x20 DUP3 ADD DUP6 DUP2 GT ISZERO PUSH2 0x3693 JUMPI PUSH1 0x0 DUP1 REVERT JUMPDEST DUP3 MLOAD DUP7 PUSH1 0x20 DUP3 MUL DUP4 ADD GT PUSH5 0x100000000 DUP3 GT OR ISZERO PUSH2 0x36B0 JUMPI PUSH1 0x0 DUP1 REVERT JUMPDEST DUP3 MSTORE POP DUP2 MLOAD PUSH1 0x20 SWAP2 DUP3 ADD SWAP3 DUP3 ADD SWAP2 MUL DUP1 DUP4 DUP4 PUSH1 0x0 JUMPDEST DUP4 DUP2 LT ISZERO PUSH2 0x36DD JUMPI DUP2 DUP2 ADD MLOAD DUP4 DUP3 ADD MSTORE PUSH1 0x20 ADD PUSH2 0x36C5 JUMP JUMPDEST POP POP POP POP SWAP2 SWAP1 SWAP2 ADD PUSH1 0x40 MSTORE POP SWAP3 SWAP7 SWAP6 POP POP POP POP POP POP JUMP JUMPDEST PUSH2 0x3700 PUSH1 0x0 DUP4 DUP4 PUSH2 0x2F87 JUMP JUMPDEST PUSH1 0x2 SLOAD PUSH2 0x370D SWAP1 DUP3 PUSH2 0x205A JUMP JUMPDEST PUSH1 0x2 SSTORE PUSH1 0x1 PUSH1 0x1 PUSH1 0xA0 SHL SUB DUP3 AND PUSH1 0x0 SWAP1 DUP2 MSTORE PUSH1 0x20 DUP2 SWAP1 MSTORE PUSH1 0x40 SWAP1 KECCAK256 SLOAD PUSH2 0x3733 SWAP1 DUP3 PUSH2 0x205A JUMP JUMPDEST PUSH1 0x1 PUSH1 0x1 PUSH1 0xA0 SHL SUB DUP4 AND PUSH1 0x0 DUP2 DUP2 MSTORE PUSH1 0x20 DUP2 DUP2 MSTORE PUSH1 0x40 DUP1 DUP4 KECCAK256 SWAP5 SWAP1 SWAP5 SSTORE DUP4 MLOAD DUP6 DUP2 MSTORE SWAP4 MLOAD SWAP3 SWAP4 SWAP2 SWAP3 PUSH32 0xDDF252AD1BE2C89B69C2B068FC378DAA952BA7F163C4A11628F55A4DF523B3EF SWAP3 DUP2 SWAP1 SUB SWAP1 SWAP2 ADD SWAP1 LOG3 POP POP JUMP JUMPDEST PUSH1 0x0 PUSH2 0x379B PUSH4 0x1C74C917 PUSH1 0xE1 SHL PUSH2 0xEB6 JUMP JUMPDEST DUP3 EQ DUP1 PUSH2 0x7AD JUMPI POP PUSH2 0x37B3 PUSH4 0x50DD6ED9 PUSH1 0xE0 SHL PUSH2 0xEB6 JUMP JUMPDEST SWAP1 SWAP2 EQ SWAP2 SWAP1 POP JUMP JUMPDEST PUSH1 0x0 PUSH2 0x37CB PUSH1 0x0 DUP4 SGT PUSH1 0x64 PUSH2 0x1AF3 JUMP JUMPDEST PUSH8 0xC7D713B49DA0000 DUP3 SGT DUP1 ISZERO PUSH2 0x37E9 JUMPI POP PUSH8 0xF43FC2C04EE0000 DUP3 SLT JUMPDEST ISZERO PUSH2 0x380F JUMPI PUSH8 0xDE0B6B3A7640000 PUSH2 0x3800 DUP4 PUSH2 0x3B6C JUMP JUMPDEST DUP2 PUSH2 0x3807 JUMPI INVALID JUMPDEST SDIV SWAP1 POP PUSH2 0xDA9 JUMP JUMPDEST PUSH2 0x3818 DUP3 PUSH2 0x3C8A JUMP JUMPDEST SWAP1 POP PUSH2 0xDA9 JUMP JUMPDEST PUSH3 0x3FFFFF DUP3 DUP2 AND DUP3 SHL SWAP1 DUP3 SHL NOT DUP5 AND OR SWAP4 SWAP3 POP POP POP JUMP JUMPDEST PUSH1 0x0 DUP1 PUSH1 0x0 DUP1 PUSH1 0x0 DUP1 PUSH1 0x0 DUP1 PUSH2 0x384A PUSH2 0x4029 JUMP JUMPDEST SWAP4 POP SWAP4 POP SWAP4 POP SWAP4 POP DUP4 PUSH1 0x0 EQ ISZERO PUSH2 0x386F JUMPI PUSH1 0x0 SWAP8 POP DUP8 SWAP7 POP SWAP1 SWAP5 POP SWAP3 POP PUSH2 0x3896 SWAP2 POP POP JUMP JUMPDEST PUSH1 0x0 DUP1 PUSH2 0x3886 DUP13 DUP13 PUSH2 0x387F PUSH2 0x7EB JUMP JUMPDEST DUP10 DUP10 PUSH2 0x4298 JUMP JUMPDEST SWAP1 SWAP11 POP SWAP9 POP SWAP3 SWAP7 POP SWAP1 SWAP5 POP POP POP POP POP JUMPDEST SWAP3 SWAP6 SWAP2 SWAP5 POP SWAP3 POP JUMP JUMPDEST DUP4 ISZERO PUSH2 0x38AF JUMPI PUSH2 0x38AF DUP3 DUP6 PUSH2 0x2F7D JUMP JUMPDEST DUP3 ISZERO PUSH2 0xACA JUMPI PUSH2 0xACA DUP2 DUP5 PUSH2 0x2F7D JUMP JUMPDEST PUSH1 0x0 PUSH1 0x60 PUSH1 0x0 PUSH2 0x38CE DUP5 PUSH2 0x4333 JUMP JUMPDEST SWAP1 POP PUSH1 0x0 PUSH2 0x38E4 DUP7 DUP4 PUSH2 0x38DF PUSH2 0x7EB JUMP JUMPDEST PUSH2 0x4355 JUMP JUMPDEST SWAP2 SWAP7 SWAP2 SWAP6 POP SWAP1 SWAP4 POP POP POP POP JUMP JUMPDEST PUSH1 0x0 DUP3 DUP3 ADD DUP4 DUP2 LT ISZERO PUSH2 0x9F4 JUMPI PUSH2 0x9F4 PUSH1 0x0 DUP1 PUSH2 0x1AF3 JUMP JUMPDEST PUSH1 0x0 DUP3 DUP3 MUL DUP4 ISZERO DUP1 PUSH2 0x3923 JUMPI POP DUP3 DUP5 DUP3 DUP2 PUSH2 0x3920 JUMPI INVALID JUMPDEST DIV EQ JUMPDEST PUSH2 0x3612 JUMPI PUSH2 0x3612 PUSH1 0x0 PUSH1 0x3 PUSH2 0x1AF3 JUMP JUMPDEST PUSH1 0x0 DUP3 DUP3 SHR PUSH7 0x1FFFFFFFFFFFFF AND PUSH7 0xFFFFFFFFFFFFF DUP2 SGT PUSH2 0x3955 JUMPI DUP1 PUSH2 0x2556 JUMP JUMPDEST PUSH7 0x1FFFFFFFFFFFFF NOT OR SWAP4 SWAP3 POP POP POP JUMP JUMPDEST PUSH1 0x0 PUSH2 0x9F4 DUP4 DUP4 PUSH1 0x1 PUSH2 0x3132 JUMP JUMPDEST PUSH1 0x0 PUSH1 0x60 PUSH1 0x0 PUSH2 0x3983 DUP5 PUSH2 0x4333 JUMP JUMPDEST SWAP1 POP PUSH1 0x0 PUSH2 0x38E4 DUP7 DUP4 PUSH2 0x3994 PUSH2 0x7EB JUMP JUMPDEST PUSH2 0x43F0 JUMP JUMPDEST PUSH1 0x0 DUP1 PUSH2 0x39A5 DUP8 PUSH2 0x1F27 JUMP JUMPDEST DUP4 SUB SWAP1 POP PUSH1 0x0 DUP2 DUP8 MUL PUSH2 0x39B7 DUP10 PUSH2 0x3317 JUMP JUMPDEST ADD SWAP1 POP PUSH1 0x0 DUP3 DUP8 MUL PUSH2 0x39C8 DUP11 PUSH2 0x3331 JUMP JUMPDEST ADD SWAP1 POP PUSH1 0x0 DUP4 DUP8 MUL PUSH2 0x39D9 DUP12 PUSH2 0x334B JUMP JUMPDEST ADD SWAP1 POP PUSH2 0x39EB DUP10 DUP5 DUP11 DUP6 DUP12 DUP7 DUP13 PUSH2 0x1EC5 JUMP JUMPDEST SWAP11 SWAP10 POP POP POP POP POP POP POP POP POP POP JUMP JUMPDEST PUSH1 0x0 PUSH2 0x7AD DUP3 PUSH1 0x1 PUSH2 0x448B JUMP JUMPDEST PUSH2 0x3FF DUP2 SHL NOT SWAP3 SWAP1 SWAP3 AND SWAP2 SHL OR SWAP1 JUMP JUMPDEST PUSH4 0x7FFFFFFF DUP2 SHL NOT SWAP3 SWAP1 SWAP3 AND SWAP2 SHL OR SWAP1 JUMP JUMPDEST PUSH1 0x0 DUP2 PUSH2 0x3A3E JUMPI POP PUSH8 0xDE0B6B3A7640000 PUSH2 0x7AD JUMP JUMPDEST DUP3 PUSH2 0x3A4B JUMPI POP PUSH1 0x0 PUSH2 0x7AD JUMP JUMPDEST PUSH2 0x3A5C PUSH1 0x1 PUSH1 0xFF SHL DUP5 LT PUSH1 0x6 PUSH2 0x1AF3 JUMP JUMPDEST DUP3 PUSH2 0x3A82 PUSH24 0xBCE5086492111AEA88F4BB1CA6BCF584181EA8059F76532 DUP5 LT PUSH1 0x7 PUSH2 0x1AF3 JUMP JUMPDEST DUP3 PUSH1 0x0 PUSH8 0xC7D713B49DA0000 DUP4 SGT DUP1 ISZERO PUSH2 0x3AA3 JUMPI POP PUSH8 0xF43FC2C04EE0000 DUP4 SLT JUMPDEST ISZERO PUSH2 0x3ADA JUMPI PUSH1 0x0 PUSH2 0x3AB3 DUP5 PUSH2 0x3B6C JUMP JUMPDEST SWAP1 POP PUSH8 0xDE0B6B3A7640000 DUP1 DUP3 SMOD DUP5 MUL SDIV DUP4 PUSH8 0xDE0B6B3A7640000 DUP4 SDIV MUL ADD SWAP2 POP POP PUSH2 0x3AE8 JUMP JUMPDEST DUP2 PUSH2 0x3AE4 DUP5 PUSH2 0x3C8A JUMP JUMPDEST MUL SWAP1 POP JUMPDEST PUSH8 0xDE0B6B3A7640000 SWAP1 SDIV PUSH2 0x3B20 PUSH9 0x238FD42C5CF03FFFF NOT DUP3 SLT DUP1 ISZERO SWAP1 PUSH2 0x3B19 JUMPI POP PUSH9 0x70C1CC73B00C80000 DUP3 SGT ISZERO JUMPDEST PUSH1 0x8 PUSH2 0x1AF3 JUMP JUMPDEST PUSH2 0x32E0 DUP2 PUSH2 0x4493 JUMP JUMPDEST PUSH1 0x0 DUP3 DUP3 MUL PUSH2 0x3B43 DUP5 ISZERO DUP1 PUSH2 0x2464 JUMPI POP DUP4 DUP6 DUP4 DUP2 PUSH2 0x2461 JUMPI INVALID JUMPDEST DUP1 PUSH2 0x3B52 JUMPI PUSH1 0x0 SWAP2 POP POP PUSH2 0x7AD JUMP JUMPDEST PUSH8 0xDE0B6B3A7640000 PUSH1 0x0 NOT DUP3 ADD DIV PUSH1 0x1 ADD SWAP2 POP POP PUSH2 0x7AD JUMP JUMPDEST PUSH8 0xDE0B6B3A7640000 MUL PUSH1 0x0 DUP1 PUSH11 0xC097CE7BC90715B34B9F1 PUSH1 0x24 SHL DUP1 DUP5 ADD SWAP1 PUSH15 0xC097CE7BC90715B34B9F0FFFFFFFFF NOT DUP6 ADD MUL DUP2 PUSH2 0x3BA7 JUMPI INVALID JUMPDEST SDIV SWAP1 POP PUSH1 0x0 PUSH11 0xC097CE7BC90715B34B9F1 PUSH1 0x24 SHL DUP3 DUP1 MUL SDIV SWAP1 POP DUP2 DUP1 PUSH11 0xC097CE7BC90715B34B9F1 PUSH1 0x24 SHL DUP2 DUP5 MUL SDIV SWAP2 POP PUSH1 0x3 DUP3 SDIV ADD PUSH11 0xC097CE7BC90715B34B9F1 PUSH1 0x24 SHL DUP3 DUP5 MUL SDIV SWAP2 POP PUSH1 0x5 DUP3 SDIV ADD PUSH11 0xC097CE7BC90715B34B9F1 PUSH1 0x24 SHL DUP3 DUP5 MUL SDIV SWAP2 POP PUSH1 0x7 DUP3 SDIV ADD PUSH11 0xC097CE7BC90715B34B9F1 PUSH1 0x24 SHL DUP3 DUP5 MUL SDIV SWAP2 POP PUSH1 0x9 DUP3 SDIV ADD PUSH11 0xC097CE7BC90715B34B9F1 PUSH1 0x24 SHL DUP3 DUP5 MUL SDIV SWAP2 POP PUSH1 0xB DUP3 SDIV ADD PUSH11 0xC097CE7BC90715B34B9F1 PUSH1 0x24 SHL DUP3 DUP5 MUL SDIV SWAP2 POP PUSH1 0xD DUP3 SDIV ADD PUSH11 0xC097CE7BC90715B34B9F1 PUSH1 0x24 SHL DUP3 DUP5 MUL SDIV SWAP2 POP PUSH1 0xF DUP3 PUSH1 0x2 SWAP2 SWAP1 SDIV SWAP2 SWAP1 SWAP2 ADD MUL SWAP6 SWAP5 POP POP POP POP POP JUMP JUMPDEST PUSH1 0x0 PUSH8 0xDE0B6B3A7640000 DUP3 SLT ISZERO PUSH2 0x3CC6 JUMPI PUSH2 0x3CBC DUP3 PUSH11 0xC097CE7BC90715B34B9F1 PUSH1 0x24 SHL DUP2 PUSH2 0x3CB6 JUMPI INVALID JUMPDEST SDIV PUSH2 0x3C8A JUMP JUMPDEST PUSH1 0x0 SUB SWAP1 POP PUSH2 0xDA9 JUMP JUMPDEST PUSH1 0x0 PUSH31 0x1600EF3172E58D2E933EC884FDE10064C63B5372D805E203C0000000000000 DUP4 SLT PUSH2 0x3D17 JUMPI PUSH24 0x195E54C5DD42177F53A27172FA9EC630262827000000000 DUP4 SDIV SWAP3 POP PUSH9 0x6F05B59D3B2000000 ADD JUMPDEST PUSH20 0x11798004D755D3C8BC8E03204CF44619E000000 DUP4 SLT PUSH2 0x3D4F JUMPI PUSH12 0x1425982CF597CD205CEF7380 DUP4 SDIV SWAP3 POP PUSH9 0x3782DACE9D9000000 ADD JUMPDEST PUSH1 0x64 SWAP3 DUP4 MUL SWAP3 MUL PUSH15 0x1855144814A7FF805980FF0084000 DUP4 SLT PUSH2 0x3D97 JUMPI PUSH15 0x1855144814A7FF805980FF0084000 PUSH9 0x56BC75E2D63100000 DUP5 MUL SDIV SWAP3 POP PUSH9 0xAD78EBC5AC62000000 ADD JUMPDEST PUSH12 0x2DF0AB5A80A22C61AB5A700 DUP4 SLT PUSH2 0x3DD2 JUMPI PUSH12 0x2DF0AB5A80A22C61AB5A700 PUSH9 0x56BC75E2D63100000 DUP5 MUL SDIV SWAP3 POP PUSH9 0x56BC75E2D631000000 ADD JUMPDEST PUSH10 0x3F1FCE3DA636EA5CF850 DUP4 SLT PUSH2 0x3E09 JUMPI PUSH10 0x3F1FCE3DA636EA5CF850 PUSH9 0x56BC75E2D63100000 DUP5 MUL SDIV SWAP3 POP PUSH9 0x2B5E3AF16B18800000 ADD JUMPDEST PUSH10 0x127FA27722CC06CC5E2 DUP4 SLT PUSH2 0x3E40 JUMPI PUSH10 0x127FA27722CC06CC5E2 PUSH9 0x56BC75E2D63100000 DUP5 MUL SDIV SWAP3 POP PUSH9 0x15AF1D78B58C400000 ADD JUMPDEST PUSH9 0x280E60114EDB805D03 DUP4 SLT PUSH2 0x3E75 JUMPI PUSH9 0x280E60114EDB805D03 PUSH9 0x56BC75E2D63100000 DUP5 MUL SDIV SWAP3 POP PUSH9 0xAD78EBC5AC6200000 ADD JUMPDEST PUSH9 0xEBC5FB41746121110 DUP4 SLT PUSH2 0x3EA0 JUMPI PUSH9 0xEBC5FB41746121110 PUSH9 0x56BC75E2D63100000 SWAP4 DUP5 MUL SDIV SWAP3 ADD JUMPDEST PUSH9 0x8F00F760A4B2DB55D DUP4 SLT PUSH2 0x3ED5 JUMPI PUSH9 0x8F00F760A4B2DB55D PUSH9 0x56BC75E2D63100000 DUP5 MUL SDIV SWAP3 POP PUSH9 0x2B5E3AF16B1880000 ADD JUMPDEST PUSH9 0x6F5F1775788937937 DUP4 SLT PUSH2 0x3F0A JUMPI PUSH9 0x6F5F1775788937937 PUSH9 0x56BC75E2D63100000 DUP5 MUL SDIV SWAP3 POP PUSH9 0x15AF1D78B58C40000 ADD JUMPDEST PUSH9 0x6248F33704B286603 DUP4 SLT PUSH2 0x3F3E JUMPI PUSH9 0x6248F33704B286603 PUSH9 0x56BC75E2D63100000 DUP5 MUL SDIV SWAP3 POP PUSH8 0xAD78EBC5AC620000 ADD JUMPDEST PUSH9 0x5C548670B9510E7AC DUP4 SLT PUSH2 0x3F72 JUMPI PUSH9 0x5C548670B9510E7AC PUSH9 0x56BC75E2D63100000 DUP5 MUL SDIV SWAP3 POP PUSH8 0x56BC75E2D6310000 ADD JUMPDEST PUSH1 0x0 PUSH9 0x56BC75E2D63100000 DUP5 ADD PUSH9 0x56BC75E2D63100000 DUP1 DUP7 SUB MUL DUP2 PUSH2 0x3F95 JUMPI INVALID JUMPDEST SDIV SWAP1 POP PUSH1 0x0 PUSH9 0x56BC75E2D63100000 DUP3 DUP1 MUL SDIV SWAP1 POP DUP2 DUP1 PUSH9 0x56BC75E2D63100000 DUP2 DUP5 MUL SDIV SWAP2 POP PUSH1 0x3 DUP3 SDIV ADD PUSH9 0x56BC75E2D63100000 DUP3 DUP5 MUL SDIV SWAP2 POP PUSH1 0x5 DUP3 SDIV ADD PUSH9 0x56BC75E2D63100000 DUP3 DUP5 MUL SDIV SWAP2 POP PUSH1 0x7 DUP3 SDIV ADD PUSH9 0x56BC75E2D63100000 DUP3 DUP5 MUL SDIV SWAP2 POP PUSH1 0x9 DUP3 SDIV ADD PUSH9 0x56BC75E2D63100000 DUP3 DUP5 MUL SDIV SWAP2 POP PUSH1 0xB DUP3 SDIV ADD PUSH1 0x2 MUL PUSH1 0x64 DUP6 DUP3 ADD SDIV SWAP8 SWAP7 POP POP POP POP POP POP POP JUMP JUMPDEST PUSH1 0xB SLOAD PUSH1 0x40 MLOAD PUSH4 0xBD02D0F5 PUSH1 0xE0 SHL DUP2 MSTORE PUSH1 0x0 SWAP2 DUP3 SWAP2 DUP3 SWAP2 DUP3 SWAP2 PUSH1 0x1 PUSH1 0x1 PUSH1 0xA0 SHL SUB SWAP1 SWAP2 AND SWAP1 PUSH4 0xBD02D0F5 SWAP1 PUSH2 0x407B SWAP1 PUSH22 0x50524F544F434F4C5F535741505F4645455F50455243 PUSH1 0x50 SHL SWAP1 PUSH1 0x4 ADD PUSH2 0x531F JUMP JUMPDEST PUSH1 0x20 PUSH1 0x40 MLOAD DUP1 DUP4 SUB DUP2 DUP7 DUP1 EXTCODESIZE ISZERO DUP1 ISZERO PUSH2 0x4093 JUMPI PUSH1 0x0 DUP1 REVERT JUMPDEST POP GAS STATICCALL ISZERO DUP1 ISZERO PUSH2 0x40A7 JUMPI RETURNDATASIZE PUSH1 0x0 DUP1 RETURNDATACOPY RETURNDATASIZE PUSH1 0x0 REVERT JUMPDEST POP POP POP POP PUSH1 0x40 MLOAD RETURNDATASIZE PUSH1 0x1F NOT PUSH1 0x1F DUP3 ADD AND DUP3 ADD DUP1 PUSH1 0x40 MSTORE POP DUP2 ADD SWAP1 PUSH2 0x40CB SWAP2 SWAP1 PUSH2 0x4F1D JUMP JUMPDEST PUSH1 0xB SLOAD PUSH1 0x40 MLOAD PUSH4 0xBD02D0F5 PUSH1 0xE0 SHL DUP2 MSTORE PUSH1 0x1 PUSH1 0x1 PUSH1 0xA0 SHL SUB SWAP1 SWAP2 AND SWAP1 PUSH4 0xBD02D0F5 SWAP1 PUSH2 0x411B SWAP1 PUSH32 0x50524F544F434F4C5F4645455F4759524F5F504F5254494F4E00000000000000 SWAP1 PUSH1 0x4 ADD PUSH2 0x531F JUMP JUMPDEST PUSH1 0x20 PUSH1 0x40 MLOAD DUP1 DUP4 SUB DUP2 DUP7 DUP1 EXTCODESIZE ISZERO DUP1 ISZERO PUSH2 0x4133 JUMPI PUSH1 0x0 DUP1 REVERT JUMPDEST POP GAS STATICCALL ISZERO DUP1 ISZERO PUSH2 0x4147 JUMPI RETURNDATASIZE PUSH1 0x0 DUP1 RETURNDATACOPY RETURNDATASIZE PUSH1 0x0 REVERT JUMPDEST POP POP POP POP PUSH1 0x40 MLOAD RETURNDATASIZE PUSH1 0x1F NOT PUSH1 0x1F DUP3 ADD AND DUP3 ADD DUP1 PUSH1 0x40 MSTORE POP DUP2 ADD SWAP1 PUSH2 0x416B SWAP2 SWAP1 PUSH2 0x4F1D JUMP JUMPDEST PUSH1 0xB SLOAD PUSH1 0x40 MLOAD PUSH4 0x21F8A721 PUSH1 0xE0 SHL DUP2 MSTORE PUSH1 0x1 PUSH1 0x1 PUSH1 0xA0 SHL SUB SWAP1 SWAP2 AND SWAP1 PUSH4 0x21F8A721 SWAP1 PUSH2 0x41AB SWAP1 PUSH13 0x4759524F5F5452454153555259 PUSH1 0x98 SHL SWAP1 PUSH1 0x4 ADD PUSH2 0x531F JUMP JUMPDEST PUSH1 0x20 PUSH1 0x40 MLOAD DUP1 DUP4 SUB DUP2 DUP7 DUP1 EXTCODESIZE ISZERO DUP1 ISZERO PUSH2 0x41C3 JUMPI PUSH1 0x0 DUP1 REVERT JUMPDEST POP GAS STATICCALL ISZERO DUP1 ISZERO PUSH2 0x41D7 JUMPI RETURNDATASIZE PUSH1 0x0 DUP1 RETURNDATACOPY RETURNDATASIZE PUSH1 0x0 REVERT JUMPDEST POP POP POP POP PUSH1 0x40 MLOAD RETURNDATASIZE PUSH1 0x1F NOT PUSH1 0x1F DUP3 ADD AND DUP3 ADD DUP1 PUSH1 0x40 MSTORE POP DUP2 ADD SWAP1 PUSH2 0x41FB SWAP2 SWAP1 PUSH2 0x4A26 JUMP JUMPDEST PUSH1 0xB SLOAD PUSH1 0x40 MLOAD PUSH4 0x21F8A721 PUSH1 0xE0 SHL DUP2 MSTORE PUSH1 0x1 PUSH1 0x1 PUSH1 0xA0 SHL SUB SWAP1 SWAP2 AND SWAP1 PUSH4 0x21F8A721 SWAP1 PUSH2 0x423A SWAP1 PUSH12 0x42414C5F5452454153555259 PUSH1 0xA0 SHL SWAP1 PUSH1 0x4 ADD PUSH2 0x531F JUMP JUMPDEST PUSH1 0x20 PUSH1 0x40 MLOAD DUP1 DUP4 SUB DUP2 DUP7 DUP1 EXTCODESIZE ISZERO DUP1 ISZERO PUSH2 0x4252 JUMPI PUSH1 0x0 DUP1 REVERT JUMPDEST POP GAS STATICCALL ISZERO DUP1 ISZERO PUSH2 0x4266 JUMPI RETURNDATASIZE PUSH1 0x0 DUP1 RETURNDATACOPY RETURNDATASIZE PUSH1 0x0 REVERT JUMPDEST POP POP POP POP PUSH1 0x40 MLOAD RETURNDATASIZE PUSH1 0x1F NOT PUSH1 0x1F DUP3 ADD AND DUP3 ADD DUP1 PUSH1 0x40 MSTORE POP DUP2 ADD SWAP1 PUSH2 0x428A SWAP2 SWAP1 PUSH2 0x4A26 JUMP JUMPDEST SWAP4 POP SWAP4 POP SWAP4 POP SWAP4 POP SWAP1 SWAP2 SWAP3 SWAP4 JUMP JUMPDEST PUSH1 0x0 DUP1 DUP7 DUP7 GT PUSH2 0x42AD JUMPI POP PUSH1 0x0 SWAP1 POP DUP1 PUSH2 0x4329 JUMP JUMPDEST PUSH1 0x0 PUSH2 0x42CD DUP6 PUSH2 0x42C7 PUSH2 0x42C0 DUP11 DUP13 PUSH2 0x2AF7 JUMP JUMPDEST DUP10 SWAP1 PUSH2 0x3909 JUMP JUMPDEST SWAP1 PUSH2 0x3909 JUMP JUMPDEST SWAP1 POP PUSH1 0x0 PUSH2 0x42E5 PUSH2 0x42DE DUP10 DUP12 PUSH2 0x2AF7 JUMP JUMPDEST DUP8 SWAP1 PUSH2 0x3909 JUMP JUMPDEST SWAP1 POP PUSH1 0x0 PUSH2 0x42F3 DUP10 DUP4 PUSH2 0x2AF7 JUMP JUMPDEST SWAP1 POP PUSH1 0x0 PUSH2 0x4301 DUP5 DUP4 PUSH2 0x246B JUMP JUMPDEST SWAP1 POP PUSH1 0x0 PUSH2 0x430F DUP9 DUP4 PUSH2 0x3909 JUMP JUMPDEST SWAP1 POP PUSH1 0x0 PUSH2 0x431D DUP4 DUP4 PUSH2 0x2AF7 JUMP JUMPDEST SWAP2 SWAP8 POP SWAP1 SWAP6 POP POP POP POP POP POP JUMPDEST SWAP6 POP SWAP6 SWAP4 POP POP POP POP JUMP JUMPDEST PUSH1 0x0 DUP2 DUP1 PUSH1 0x20 ADD SWAP1 MLOAD PUSH1 0x40 DUP2 LT ISZERO PUSH2 0x434A JUMPI PUSH1 0x0 DUP1 REVERT JUMPDEST POP PUSH1 0x20 ADD MLOAD SWAP3 SWAP2 POP POP JUMP JUMPDEST PUSH1 0x60 DUP4 MLOAD PUSH1 0x1 PUSH1 0x1 PUSH1 0x40 SHL SUB DUP2 GT DUP1 ISZERO PUSH2 0x436E JUMPI PUSH1 0x0 DUP1 REVERT JUMPDEST POP PUSH1 0x40 MLOAD SWAP1 DUP1 DUP3 MSTORE DUP1 PUSH1 0x20 MUL PUSH1 0x20 ADD DUP3 ADD PUSH1 0x40 MSTORE DUP1 ISZERO PUSH2 0x4398 JUMPI DUP2 PUSH1 0x20 ADD PUSH1 0x20 DUP3 MUL DUP1 CALLDATASIZE DUP4 CALLDATACOPY ADD SWAP1 POP JUMPDEST POP SWAP1 POP PUSH1 0x0 JUMPDEST DUP5 MLOAD DUP2 LT ISZERO PUSH2 0x1390 JUMPI PUSH2 0x43D1 DUP4 PUSH2 0xCD3 DUP7 DUP9 DUP6 DUP2 MLOAD DUP2 LT PUSH2 0x43BB JUMPI INVALID JUMPDEST PUSH1 0x20 MUL PUSH1 0x20 ADD ADD MLOAD PUSH2 0x3909 SWAP1 SWAP2 SWAP1 PUSH4 0xFFFFFFFF AND JUMP JUMPDEST DUP3 DUP3 DUP2 MLOAD DUP2 LT PUSH2 0x43DD JUMPI INVALID JUMPDEST PUSH1 0x20 SWAP1 DUP2 MUL SWAP2 SWAP1 SWAP2 ADD ADD MSTORE PUSH1 0x1 ADD PUSH2 0x439E JUMP JUMPDEST PUSH1 0x60 DUP4 MLOAD PUSH1 0x1 PUSH1 0x1 PUSH1 0x40 SHL SUB DUP2 GT DUP1 ISZERO PUSH2 0x4409 JUMPI PUSH1 0x0 DUP1 REVERT JUMPDEST POP PUSH1 0x40 MLOAD SWAP1 DUP1 DUP3 MSTORE DUP1 PUSH1 0x20 MUL PUSH1 0x20 ADD DUP3 ADD PUSH1 0x40 MSTORE DUP1 ISZERO PUSH2 0x4433 JUMPI DUP2 PUSH1 0x20 ADD PUSH1 0x20 DUP3 MUL DUP1 CALLDATASIZE DUP4 CALLDATACOPY ADD SWAP1 POP JUMPDEST POP SWAP1 POP PUSH1 0x0 JUMPDEST DUP5 MLOAD DUP2 LT ISZERO PUSH2 0x1390 JUMPI PUSH2 0x446C DUP4 PUSH2 0x32AA DUP7 DUP9 DUP6 DUP2 MLOAD DUP2 LT PUSH2 0x4456 JUMPI INVALID JUMPDEST PUSH1 0x20 MUL PUSH1 0x20 ADD ADD MLOAD PUSH2 0x2AA2 SWAP1 SWAP2 SWAP1 PUSH4 0xFFFFFFFF AND JUMP JUMPDEST DUP3 DUP3 DUP2 MLOAD DUP2 LT PUSH2 0x4478 JUMPI INVALID JUMPDEST PUSH1 0x20 SWAP1 DUP2 MUL SWAP2 SWAP1 SWAP2 ADD ADD MSTORE PUSH1 0x1 ADD PUSH2 0x4439 JUMP JUMPDEST ADD PUSH2 0x3FF AND SWAP1 JUMP JUMPDEST PUSH1 0x0 PUSH2 0x44C2 PUSH9 0x238FD42C5CF03FFFF NOT DUP4 SLT ISZERO DUP1 ISZERO PUSH2 0x44BB JUMPI POP PUSH9 0x70C1CC73B00C80000 DUP4 SGT ISZERO JUMPDEST PUSH1 0x9 PUSH2 0x1AF3 JUMP JUMPDEST PUSH1 0x0 DUP3 SLT ISZERO PUSH2 0x44ED JUMPI PUSH2 0x44D7 DUP3 PUSH1 0x0 SUB PUSH2 0x4493 JUMP JUMPDEST PUSH11 0xC097CE7BC90715B34B9F1 PUSH1 0x24 SHL DUP2 PUSH2 0x3807 JUMPI INVALID JUMPDEST PUSH1 0x0 PUSH9 0x6F05B59D3B2000000 DUP4 SLT PUSH2 0x452D JUMPI POP PUSH9 0x6F05B59D3B1FFFFFF NOT SWAP1 SWAP2 ADD SWAP1 PUSH24 0x195E54C5DD42177F53A27172FA9EC630262827000000000 PUSH2 0x4563 JUMP JUMPDEST PUSH9 0x3782DACE9D9000000 DUP4 SLT PUSH2 0x455F JUMPI POP PUSH9 0x3782DACE9D8FFFFFF NOT SWAP1 SWAP2 ADD SWAP1 PUSH12 0x1425982CF597CD205CEF7380 PUSH2 0x4563 JUMP JUMPDEST POP PUSH1 0x1 JUMPDEST PUSH1 0x64 SWAP3 SWAP1 SWAP3 MUL SWAP2 PUSH9 0x56BC75E2D63100000 PUSH9 0xAD78EBC5AC62000000 DUP5 SLT PUSH2 0x45B3 JUMPI PUSH9 0xAD78EBC5AC61FFFFFF NOT SWAP1 SWAP4 ADD SWAP3 PUSH9 0x56BC75E2D63100000 PUSH15 0x1855144814A7FF805980FF0084000 DUP3 MUL SDIV SWAP1 POP JUMPDEST PUSH9 0x56BC75E2D631000000 DUP5 SLT PUSH2 0x45EF JUMPI PUSH9 0x56BC75E2D630FFFFFF NOT SWAP1 SWAP4 ADD SWAP3 PUSH9 0x56BC75E2D63100000 PUSH12 0x2DF0AB5A80A22C61AB5A700 DUP3 MUL SDIV SWAP1 POP JUMPDEST PUSH9 0x2B5E3AF16B18800000 DUP5 SLT PUSH2 0x4629 JUMPI PUSH9 0x2B5E3AF16B187FFFFF NOT SWAP1 SWAP4 ADD SWAP3 PUSH9 0x56BC75E2D63100000 PUSH10 0x3F1FCE3DA636EA5CF850 DUP3 MUL SDIV SWAP1 POP JUMPDEST PUSH9 0x15AF1D78B58C400000 DUP5 SLT PUSH2 0x4663 JUMPI PUSH9 0x15AF1D78B58C3FFFFF NOT SWAP1 SWAP4 ADD SWAP3 PUSH9 0x56BC75E2D63100000 PUSH10 0x127FA27722CC06CC5E2 DUP3 MUL SDIV SWAP1 POP JUMPDEST PUSH9 0xAD78EBC5AC6200000 DUP5 SLT PUSH2 0x469C JUMPI PUSH9 0xAD78EBC5AC61FFFFF NOT SWAP1 SWAP4 ADD SWAP3 PUSH9 0x56BC75E2D63100000 PUSH9 0x280E60114EDB805D03 DUP3 MUL SDIV SWAP1 POP JUMPDEST PUSH9 0x56BC75E2D63100000 DUP5 SLT PUSH2 0x46D5 JUMPI PUSH9 0x56BC75E2D630FFFFF NOT SWAP1 SWAP4 ADD SWAP3 PUSH9 0x56BC75E2D63100000 PUSH9 0xEBC5FB41746121110 DUP3 MUL SDIV SWAP1 POP JUMPDEST PUSH9 0x2B5E3AF16B1880000 DUP5 SLT PUSH2 0x470E JUMPI PUSH9 0x2B5E3AF16B187FFFF NOT SWAP1 SWAP4 ADD SWAP3 PUSH9 0x56BC75E2D63100000 PUSH9 0x8F00F760A4B2DB55D DUP3 MUL SDIV SWAP1 POP JUMPDEST PUSH9 0x15AF1D78B58C40000 DUP5 SLT PUSH2 0x4747 JUMPI PUSH9 0x15AF1D78B58C3FFFF NOT SWAP1 SWAP4 ADD SWAP3 PUSH9 0x56BC75E2D63100000 PUSH9 0x6F5F1775788937937 DUP3 MUL SDIV SWAP1 POP JUMPDEST PUSH9 0x56BC75E2D63100000 DUP5 DUP2 ADD SWAP1 DUP6 SWAP1 PUSH1 0x2 SWAP1 DUP3 DUP1 MUL SDIV SDIV SWAP2 DUP3 ADD SWAP2 SWAP1 POP PUSH1 0x3 PUSH9 0x56BC75E2D63100000 DUP8 DUP4 MUL SDIV SDIV SWAP2 DUP3 ADD SWAP2 SWAP1 POP PUSH1 0x4 PUSH9 0x56BC75E2D63100000 DUP8 DUP4 MUL SDIV SDIV SWAP2 DUP3 ADD SWAP2 SWAP1 POP PUSH1 0x5 PUSH9 0x56BC75E2D63100000 DUP8 DUP4 MUL SDIV SDIV SWAP2 DUP3 ADD SWAP2 SWAP1 POP PUSH1 0x6 PUSH9 0x56BC75E2D63100000 DUP8 DUP4 MUL SDIV SDIV SWAP2 DUP3 ADD SWAP2 SWAP1 POP PUSH1 0x7 PUSH9 0x56BC75E2D63100000 DUP8 DUP4 MUL SDIV SDIV SWAP2 DUP3 ADD SWAP2 SWAP1 POP PUSH1 0x8 PUSH9 0x56BC75E2D63100000 DUP8 DUP4 MUL SDIV SDIV SWAP2 DUP3 ADD SWAP2 SWAP1 POP PUSH1 0x9 PUSH9 0x56BC75E2D63100000 DUP8 DUP4 MUL SDIV SDIV SWAP2 DUP3 ADD SWAP2 SWAP1 POP PUSH1 0xA PUSH9 0x56BC75E2D63100000 DUP8 DUP4 MUL SDIV SDIV SWAP2 DUP3 ADD SWAP2 SWAP1 POP PUSH1 0xB PUSH9 0x56BC75E2D63100000 DUP8 DUP4 MUL SDIV SDIV SWAP2 DUP3 ADD SWAP2 SWAP1 POP PUSH1 0xC PUSH9 0x56BC75E2D63100000 DUP8 DUP4 MUL SDIV SDIV SWAP2 DUP3 ADD SWAP2 SWAP1 POP PUSH1 0x64 PUSH9 0x56BC75E2D63100000 DUP5 DUP5 MUL SDIV DUP6 MUL SDIV SWAP7 SWAP6 POP POP POP POP POP POP JUMP JUMPDEST PUSH1 0x40 MLOAD DUP1 PUSH1 0xA0 ADD PUSH1 0x40 MSTORE DUP1 PUSH1 0x0 DUP2 MSTORE PUSH1 0x20 ADD PUSH1 0x0 DUP2 MSTORE PUSH1 0x20 ADD PUSH1 0x0 DUP2 MSTORE PUSH1 0x20 ADD PUSH1 0x0 DUP2 MSTORE PUSH1 0x20 ADD PUSH1 0x0 DUP2 MSTORE POP SWAP1 JUMP JUMPDEST PUSH1 0x40 MLOAD DUP1 PUSH1 0xE0 ADD PUSH1 0x40 MSTORE DUP1 PUSH2 0x48AA PUSH2 0x48F7 JUMP JUMPDEST DUP2 MSTORE PUSH1 0x20 ADD PUSH2 0x48B7 PUSH2 0x48F7 JUMP JUMPDEST DUP2 MSTORE PUSH1 0x20 ADD PUSH1 0x0 DUP2 MSTORE PUSH1 0x20 ADD PUSH1 0x0 DUP2 MSTORE PUSH1 0x20 ADD PUSH1 0x0 DUP2 MSTORE PUSH1 0x20 ADD PUSH1 0x0 DUP2 MSTORE PUSH1 0x20 ADD PUSH1 0x0 DUP2 MSTORE POP SWAP1 JUMP JUMPDEST PUSH1 0x40 DUP1 MLOAD DUP1 DUP3 ADD SWAP1 SWAP2 MSTORE PUSH1 0x0 DUP1 DUP3 MSTORE PUSH1 0x20 DUP3 ADD MSTORE SWAP1 JUMP JUMPDEST PUSH1 0x40 MLOAD DUP1 PUSH1 0x40 ADD PUSH1 0x40 MSTORE DUP1 PUSH1 0x0 DUP2 MSTORE PUSH1 0x20 ADD PUSH1 0x0 DUP2 MSTORE POP SWAP1 JUMP JUMPDEST DUP1 CALLDATALOAD PUSH2 0xDA9 DUP2 PUSH2 0x5539 JUMP JUMPDEST PUSH1 0x0 DUP3 PUSH1 0x1F DUP4 ADD SLT PUSH2 0x492C JUMPI DUP1 DUP2 REVERT JUMPDEST DUP2 MLOAD PUSH1 0x20 PUSH2 0x4941 PUSH2 0x493C DUP4 PUSH2 0x551C JUMP JUMPDEST PUSH2 0x54F9 JUMP JUMPDEST DUP3 DUP2 MSTORE DUP2 DUP2 ADD SWAP1 DUP6 DUP4 ADD DUP4 DUP6 MUL DUP8 ADD DUP5 ADD DUP9 LT ISZERO PUSH2 0x495D JUMPI DUP6 DUP7 REVERT JUMPDEST DUP6 JUMPDEST DUP6 DUP2 LT ISZERO PUSH2 0x497B JUMPI DUP2 MLOAD DUP5 MSTORE SWAP3 DUP5 ADD SWAP3 SWAP1 DUP5 ADD SWAP1 PUSH1 0x1 ADD PUSH2 0x495F JUMP JUMPDEST POP SWAP1 SWAP8 SWAP7 POP POP POP POP POP POP POP JUMP JUMPDEST PUSH1 0x0 DUP3 PUSH1 0x1F DUP4 ADD SLT PUSH2 0x4998 JUMPI DUP1 DUP2 REVERT JUMPDEST DUP2 CALLDATALOAD PUSH1 0x1 PUSH1 0x1 PUSH1 0x40 SHL SUB DUP2 GT ISZERO PUSH2 0x49AB JUMPI INVALID JUMPDEST PUSH2 0x49BE PUSH1 0x1F DUP3 ADD PUSH1 0x1F NOT AND PUSH1 0x20 ADD PUSH2 0x54F9 JUMP JUMPDEST DUP2 DUP2 MSTORE DUP5 PUSH1 0x20 DUP4 DUP7 ADD ADD GT ISZERO PUSH2 0x49D2 JUMPI DUP3 DUP4 REVERT JUMPDEST DUP2 PUSH1 0x20 DUP6 ADD PUSH1 0x20 DUP4 ADD CALLDATACOPY SWAP1 DUP2 ADD PUSH1 0x20 ADD SWAP2 SWAP1 SWAP2 MSTORE SWAP3 SWAP2 POP POP JUMP JUMPDEST DUP1 CALLDATALOAD PUSH1 0x2 DUP2 LT PUSH2 0xDA9 JUMPI PUSH1 0x0 DUP1 REVERT JUMPDEST DUP1 CALLDATALOAD PUSH1 0x3 DUP2 LT PUSH2 0xDA9 JUMPI PUSH1 0x0 DUP1 REVERT JUMPDEST PUSH1 0x0 PUSH1 0x20 DUP3 DUP5 SUB SLT ISZERO PUSH2 0x4A1B JUMPI DUP1 DUP2 REVERT JUMPDEST DUP2 CALLDATALOAD PUSH2 0x9F4 DUP2 PUSH2 0x5539 JUMP JUMPDEST PUSH1 0x0 PUSH1 0x20 DUP3 DUP5 SUB SLT ISZERO PUSH2 0x4A37 JUMPI DUP1 DUP2 REVERT JUMPDEST DUP2 MLOAD PUSH2 0x9F4 DUP2 PUSH2 0x5539 JUMP JUMPDEST PUSH1 0x0 DUP1 PUSH1 0x40 DUP4 DUP6 SUB SLT ISZERO PUSH2 0x4A54 JUMPI DUP1 DUP2 REVERT JUMPDEST DUP3 CALLDATALOAD PUSH2 0x4A5F DUP2 PUSH2 0x5539 JUMP JUMPDEST SWAP2 POP PUSH1 0x20 DUP4 ADD CALLDATALOAD PUSH2 0x4A6F DUP2 PUSH2 0x5539 JUMP JUMPDEST DUP1 SWAP2 POP POP SWAP3 POP SWAP3 SWAP1 POP JUMP JUMPDEST PUSH1 0x0 DUP1 PUSH1 0x0 PUSH1 0x60 DUP5 DUP7 SUB SLT ISZERO PUSH2 0x4A8E JUMPI DUP1 DUP2 REVERT JUMPDEST DUP4 CALLDATALOAD PUSH2 0x4A99 DUP2 PUSH2 0x5539 JUMP JUMPDEST SWAP3 POP PUSH1 0x20 DUP5 ADD CALLDATALOAD PUSH2 0x4AA9 DUP2 PUSH2 0x5539 JUMP JUMPDEST SWAP3 SWAP6 SWAP3 SWAP5 POP POP POP PUSH1 0x40 SWAP2 SWAP1 SWAP2 ADD CALLDATALOAD SWAP1 JUMP JUMPDEST PUSH1 0x0 DUP1 PUSH1 0x0 DUP1 PUSH1 0x0 DUP1 PUSH1 0x0 PUSH1 0xE0 DUP9 DUP11 SUB SLT ISZERO PUSH2 0x4AD4 JUMPI DUP5 DUP6 REVERT JUMPDEST DUP8 CALLDATALOAD PUSH2 0x4ADF DUP2 PUSH2 0x5539 JUMP JUMPDEST SWAP7 POP PUSH1 0x20 DUP9 ADD CALLDATALOAD PUSH2 0x4AEF DUP2 PUSH2 0x5539 JUMP JUMPDEST SWAP6 POP PUSH1 0x40 DUP9 ADD CALLDATALOAD SWAP5 POP PUSH1 0x60 DUP9 ADD CALLDATALOAD SWAP4 POP PUSH1 0x80 DUP9 ADD CALLDATALOAD PUSH1 0xFF DUP2 AND DUP2 EQ PUSH2 0x4B12 JUMPI DUP4 DUP5 REVERT JUMPDEST SWAP7 SWAP10 SWAP6 SWAP9 POP SWAP4 SWAP7 SWAP3 SWAP6 SWAP5 PUSH1 0xA0 DUP5 ADD CALLDATALOAD SWAP5 POP PUSH1 0xC0 SWAP1 SWAP4 ADD CALLDATALOAD SWAP3 SWAP2 POP POP JUMP JUMPDEST PUSH1 0x0 DUP1 PUSH1 0x40 DUP4 DUP6 SUB SLT ISZERO PUSH2 0x4B41 JUMPI DUP2 DUP3 REVERT JUMPDEST DUP3 CALLDATALOAD PUSH2 0x4B4C DUP2 PUSH2 0x5539 JUMP JUMPDEST SWAP5 PUSH1 0x20 SWAP4 SWAP1 SWAP4 ADD CALLDATALOAD SWAP4 POP POP POP JUMP JUMPDEST PUSH1 0x0 DUP1 PUSH1 0x0 PUSH1 0x60 DUP5 DUP7 SUB SLT ISZERO PUSH2 0x4B6E JUMPI DUP1 DUP2 REVERT JUMPDEST DUP4 MLOAD PUSH1 0x1 PUSH1 0x1 PUSH1 0x40 SHL SUB DUP1 DUP3 GT ISZERO PUSH2 0x4B84 JUMPI DUP3 DUP4 REVERT JUMPDEST DUP2 DUP7 ADD SWAP2 POP DUP7 PUSH1 0x1F DUP4 ADD SLT PUSH2 0x4B97 JUMPI DUP3 DUP4 REVERT JUMPDEST DUP2 MLOAD PUSH1 0x20 PUSH2 0x4BA7 PUSH2 0x493C DUP4 PUSH2 0x551C JUMP JUMPDEST DUP3 DUP2 MSTORE DUP2 DUP2 ADD SWAP1 DUP6 DUP4 ADD DUP4 DUP6 MUL DUP8 ADD DUP5 ADD DUP13 LT ISZERO PUSH2 0x4BC3 JUMPI DUP8 DUP9 REVERT JUMPDEST DUP8 SWAP7 POP JUMPDEST DUP5 DUP8 LT ISZERO PUSH2 0x4BEE JUMPI DUP1 MLOAD PUSH2 0x4BDA DUP2 PUSH2 0x5539 JUMP JUMPDEST DUP4 MSTORE PUSH1 0x1 SWAP7 SWAP1 SWAP7 ADD SWAP6 SWAP2 DUP4 ADD SWAP2 DUP4 ADD PUSH2 0x4BC7 JUMP JUMPDEST POP SWAP2 DUP10 ADD MLOAD SWAP2 SWAP8 POP SWAP1 SWAP4 POP POP POP DUP1 DUP3 GT ISZERO PUSH2 0x4C07 JUMPI DUP3 DUP4 REVERT JUMPDEST POP PUSH2 0x4C14 DUP7 DUP3 DUP8 ADD PUSH2 0x491C JUMP JUMPDEST SWAP3 POP POP PUSH1 0x40 DUP5 ADD MLOAD SWAP1 POP SWAP3 POP SWAP3 POP SWAP3 JUMP JUMPDEST PUSH1 0x0 PUSH1 0x20 DUP1 DUP4 DUP6 SUB SLT ISZERO PUSH2 0x4C37 JUMPI DUP2 DUP3 REVERT JUMPDEST DUP3 CALLDATALOAD PUSH1 0x1 PUSH1 0x1 PUSH1 0x40 SHL SUB DUP1 DUP3 GT ISZERO PUSH2 0x4C4D JUMPI DUP4 DUP5 REVERT JUMPDEST DUP2 DUP6 ADD SWAP2 POP DUP6 PUSH1 0x1F DUP4 ADD SLT PUSH2 0x4C60 JUMPI DUP4 DUP5 REVERT JUMPDEST DUP2 CALLDATALOAD PUSH2 0x4C6E PUSH2 0x493C DUP3 PUSH2 0x551C JUMP JUMPDEST DUP2 DUP2 MSTORE DUP5 DUP2 ADD SWAP1 DUP5 DUP7 ADD PUSH1 0x40 DUP1 DUP6 MUL DUP8 ADD DUP9 ADD DUP12 LT ISZERO PUSH2 0x4C8C JUMPI DUP9 DUP10 REVERT JUMPDEST DUP9 SWAP7 POP JUMPDEST DUP5 DUP8 LT ISZERO PUSH2 0x4CE4 JUMPI DUP1 DUP3 DUP13 SUB SLT ISZERO PUSH2 0x4CA6 JUMPI DUP9 DUP10 REVERT JUMPDEST DUP1 MLOAD DUP2 DUP2 ADD DUP2 DUP2 LT DUP9 DUP3 GT OR ISZERO PUSH2 0x4CB9 JUMPI INVALID JUMPDEST DUP3 MSTORE PUSH2 0x4CC4 DUP4 PUSH2 0x49FB JUMP JUMPDEST DUP2 MSTORE DUP3 DUP10 ADD CALLDATALOAD DUP10 DUP3 ADD MSTORE DUP5 MSTORE PUSH1 0x1 SWAP7 SWAP1 SWAP7 ADD SWAP6 SWAP3 DUP8 ADD SWAP3 SWAP1 DUP2 ADD SWAP1 PUSH2 0x4C90 JUMP JUMPDEST POP SWAP1 SWAP10 SWAP9 POP POP POP POP POP POP POP POP POP JUMP JUMPDEST PUSH1 0x0 PUSH1 0x20 DUP1 DUP4 DUP6 SUB SLT ISZERO PUSH2 0x4D05 JUMPI DUP2 DUP3 REVERT JUMPDEST DUP3 CALLDATALOAD PUSH1 0x1 PUSH1 0x1 PUSH1 0x40 SHL SUB DUP1 DUP3 GT ISZERO PUSH2 0x4D1B JUMPI DUP4 DUP5 REVERT JUMPDEST DUP2 DUP6 ADD SWAP2 POP DUP6 PUSH1 0x1F DUP4 ADD SLT PUSH2 0x4D2E JUMPI DUP4 DUP5 REVERT JUMPDEST DUP2 CALLDATALOAD PUSH2 0x4D3C PUSH2 0x493C DUP3 PUSH2 0x551C JUMP JUMPDEST DUP2 DUP2 MSTORE DUP5 DUP2 ADD SWAP1 DUP5 DUP7 ADD PUSH1 0x60 DUP1 DUP6 MUL DUP8 ADD DUP9 ADD DUP12 LT ISZERO PUSH2 0x4D5A JUMPI DUP9 DUP10 REVERT JUMPDEST DUP9 SWAP7 POP JUMPDEST DUP5 DUP8 LT ISZERO PUSH2 0x4CE4 JUMPI DUP1 DUP3 DUP13 SUB SLT ISZERO PUSH2 0x4D74 JUMPI DUP9 DUP10 REVERT JUMPDEST PUSH1 0x40 DUP1 MLOAD DUP3 DUP2 ADD DUP2 DUP2 LT DUP10 DUP3 GT OR ISZERO PUSH2 0x4D89 JUMPI INVALID JUMPDEST DUP3 MSTORE PUSH2 0x4D94 DUP5 PUSH2 0x49FB JUMP JUMPDEST DUP2 MSTORE DUP4 DUP11 ADD CALLDATALOAD DUP11 DUP3 ADD MSTORE DUP2 DUP5 ADD CALLDATALOAD SWAP2 DUP2 ADD SWAP2 SWAP1 SWAP2 MSTORE DUP5 MSTORE PUSH1 0x1 SWAP7 SWAP1 SWAP7 ADD SWAP6 SWAP3 DUP8 ADD SWAP3 SWAP1 DUP2 ADD SWAP1 PUSH2 0x4D5E JUMP JUMPDEST PUSH1 0x0 PUSH1 0x20 DUP3 DUP5 SUB SLT ISZERO PUSH2 0x4DD0 JUMPI DUP1 DUP2 REVERT JUMPDEST DUP2 CALLDATALOAD DUP1 ISZERO ISZERO DUP2 EQ PUSH2 0x9F4 JUMPI DUP2 DUP3 REVERT JUMPDEST PUSH1 0x0 DUP1 PUSH1 0x0 DUP1 PUSH1 0x0 DUP1 PUSH1 0x0 PUSH1 0xE0 DUP9 DUP11 SUB SLT ISZERO PUSH2 0x4DF9 JUMPI DUP1 DUP2 REVERT JUMPDEST DUP8 CALLDATALOAD SWAP7 POP PUSH1 0x20 DUP1 DUP10 ADD CALLDATALOAD PUSH2 0x4E0C DUP2 PUSH2 0x5539 JUMP JUMPDEST SWAP7 POP PUSH1 0x40 DUP10 ADD CALLDATALOAD PUSH2 0x4E1C DUP2 PUSH2 0x5539 JUMP JUMPDEST SWAP6 POP PUSH1 0x60 DUP10 ADD CALLDATALOAD PUSH1 0x1 PUSH1 0x1 PUSH1 0x40 SHL SUB DUP1 DUP3 GT ISZERO PUSH2 0x4E37 JUMPI DUP4 DUP5 REVERT JUMPDEST DUP2 DUP12 ADD SWAP2 POP DUP12 PUSH1 0x1F DUP4 ADD SLT PUSH2 0x4E4A JUMPI DUP4 DUP5 REVERT JUMPDEST DUP2 CALLDATALOAD PUSH2 0x4E58 PUSH2 0x493C DUP3 PUSH2 0x551C JUMP JUMPDEST DUP1 DUP3 DUP3 MSTORE DUP6 DUP3 ADD SWAP2 POP DUP6 DUP6 ADD DUP16 DUP8 DUP9 DUP7 MUL DUP9 ADD ADD GT ISZERO PUSH2 0x4E76 JUMPI DUP8 DUP9 REVERT JUMPDEST DUP8 SWAP6 POP JUMPDEST DUP4 DUP7 LT ISZERO PUSH2 0x4E98 JUMPI DUP1 CALLDATALOAD DUP4 MSTORE PUSH1 0x1 SWAP6 SWAP1 SWAP6 ADD SWAP5 SWAP2 DUP7 ADD SWAP2 DUP7 ADD PUSH2 0x4E7A JUMP JUMPDEST POP SWAP9 POP POP POP PUSH1 0x80 DUP12 ADD CALLDATALOAD SWAP6 POP PUSH1 0xA0 DUP12 ADD CALLDATALOAD SWAP5 POP PUSH1 0xC0 DUP12 ADD CALLDATALOAD SWAP3 POP DUP1 DUP4 GT ISZERO PUSH2 0x4EBE JUMPI DUP4 DUP5 REVERT JUMPDEST POP POP PUSH2 0x4ECC DUP11 DUP3 DUP12 ADD PUSH2 0x4988 JUMP JUMPDEST SWAP2 POP POP SWAP3 SWAP6 SWAP9 SWAP2 SWAP5 SWAP8 POP SWAP3 SWAP6 POP JUMP JUMPDEST PUSH1 0x0 PUSH1 0x20 DUP3 DUP5 SUB SLT ISZERO PUSH2 0x4EEC JUMPI DUP1 DUP2 REVERT JUMPDEST DUP2 CALLDATALOAD PUSH1 0x1 PUSH1 0x1 PUSH1 0xE0 SHL SUB NOT DUP2 AND DUP2 EQ PUSH2 0x9F4 JUMPI DUP2 DUP3 REVERT JUMPDEST PUSH1 0x0 PUSH1 0x20 DUP3 DUP5 SUB SLT ISZERO PUSH2 0x4F14 JUMPI DUP1 DUP2 REVERT JUMPDEST PUSH2 0x9F4 DUP3 PUSH2 0x49FB JUMP JUMPDEST PUSH1 0x0 PUSH1 0x20 DUP3 DUP5 SUB SLT ISZERO PUSH2 0x4F2E JUMPI DUP1 DUP2 REVERT JUMPDEST POP MLOAD SWAP2 SWAP1 POP JUMP JUMPDEST PUSH1 0x0 DUP1 PUSH1 0x40 DUP4 DUP6 SUB SLT ISZERO PUSH2 0x4F47 JUMPI DUP2 DUP3 REVERT JUMPDEST POP POP DUP1 MLOAD PUSH1 0x20 SWAP1 SWAP2 ADD MLOAD SWAP1 SWAP3 SWAP1 SWAP2 POP JUMP JUMPDEST PUSH1 0x0 DUP1 PUSH1 0x0 PUSH1 0x60 DUP5 DUP7 SUB SLT ISZERO PUSH2 0x4F6C JUMPI DUP1 DUP2 REVERT JUMPDEST DUP4 CALLDATALOAD PUSH1 0x1 PUSH1 0x1 PUSH1 0x40 SHL SUB DUP1 DUP3 GT ISZERO PUSH2 0x4F82 JUMPI DUP3 DUP4 REVERT JUMPDEST DUP2 DUP7 ADD SWAP2 POP PUSH2 0x120 DUP1 DUP4 DUP10 SUB SLT ISZERO PUSH2 0x4F98 JUMPI DUP4 DUP5 REVERT JUMPDEST PUSH2 0x4FA1 DUP2 PUSH2 0x54F9 JUMP JUMPDEST SWAP1 POP PUSH2 0x4FAC DUP4 PUSH2 0x49EC JUMP JUMPDEST DUP2 MSTORE PUSH2 0x4FBA PUSH1 0x20 DUP5 ADD PUSH2 0x4911 JUMP JUMPDEST PUSH1 0x20 DUP3 ADD MSTORE PUSH2 0x4FCB PUSH1 0x40 DUP5 ADD PUSH2 0x4911 JUMP JUMPDEST PUSH1 0x40 DUP3 ADD MSTORE PUSH1 0x60 DUP4 ADD CALLDATALOAD PUSH1 0x60 DUP3 ADD MSTORE PUSH1 0x80 DUP4 ADD CALLDATALOAD PUSH1 0x80 DUP3 ADD MSTORE PUSH1 0xA0 DUP4 ADD CALLDATALOAD PUSH1 0xA0 DUP3 ADD MSTORE PUSH2 0x4FFA PUSH1 0xC0 DUP5 ADD PUSH2 0x4911 JUMP JUMPDEST PUSH1 0xC0 DUP3 ADD MSTORE PUSH2 0x500B PUSH1 0xE0 DUP5 ADD PUSH2 0x4911 JUMP JUMPDEST PUSH1 0xE0 DUP3 ADD MSTORE PUSH2 0x100 DUP1 DUP5 ADD CALLDATALOAD DUP4 DUP2 GT ISZERO PUSH2 0x5023 JUMPI DUP6 DUP7 REVERT JUMPDEST PUSH2 0x502F DUP11 DUP3 DUP8 ADD PUSH2 0x4988 JUMP JUMPDEST SWAP2 DUP4 ADD SWAP2 SWAP1 SWAP2 MSTORE POP SWAP8 PUSH1 0x20 DUP8 ADD CALLDATALOAD SWAP8 POP PUSH1 0x40 SWAP1 SWAP7 ADD CALLDATALOAD SWAP6 SWAP5 POP POP POP POP POP JUMP JUMPDEST PUSH1 0x0 PUSH1 0x20 DUP3 DUP5 SUB SLT ISZERO PUSH2 0x505F JUMPI DUP1 DUP2 REVERT JUMPDEST POP CALLDATALOAD SWAP2 SWAP1 POP JUMP JUMPDEST PUSH1 0x0 DUP1 PUSH1 0x40 DUP4 DUP6 SUB SLT ISZERO PUSH2 0x5078 JUMPI DUP2 DUP3 REVERT JUMPDEST POP POP DUP1 CALLDATALOAD SWAP3 PUSH1 0x20 SWAP1 SWAP2 ADD CALLDATALOAD SWAP2 POP JUMP JUMPDEST PUSH1 0x0 DUP2 MLOAD DUP1 DUP5 MSTORE PUSH1 0x20 DUP1 DUP6 ADD SWAP5 POP DUP1 DUP5 ADD DUP4 JUMPDEST DUP4 DUP2 LT ISZERO PUSH2 0x50B6 JUMPI DUP2 MLOAD DUP8 MSTORE SWAP6 DUP3 ADD SWAP6 SWAP1 DUP3 ADD SWAP1 PUSH1 0x1 ADD PUSH2 0x509A JUMP JUMPDEST POP SWAP5 SWAP6 SWAP5 POP POP POP POP POP JUMP JUMPDEST PUSH1 0x3 DUP2 LT PUSH2 0x50CB JUMPI INVALID JUMPDEST SWAP1 MSTORE JUMP JUMPDEST PUSH2 0x50DA DUP3 DUP3 MLOAD PUSH2 0x5154 JUMP JUMPDEST PUSH1 0x20 DUP2 ADD MLOAD PUSH2 0x50EC PUSH1 0x40 DUP5 ADD DUP3 PUSH2 0x5154 JUMP JUMPDEST POP PUSH1 0x40 DUP2 ADD MLOAD PUSH1 0x80 DUP4 ADD MSTORE PUSH1 0x60 DUP2 ADD MLOAD PUSH1 0xA0 DUP4 ADD MSTORE PUSH1 0x80 DUP2 ADD MLOAD PUSH1 0xC0 DUP4 ADD MSTORE PUSH1 0xA0 DUP2 ADD MLOAD PUSH1 0xE0 DUP4 ADD MSTORE PUSH1 0xC0 DUP2 ADD MLOAD PUSH2 0x100 DUP4 ADD MSTORE POP POP JUMP JUMPDEST DUP1 MLOAD DUP3 MSTORE PUSH1 0x20 DUP2 ADD MLOAD PUSH1 0x20 DUP4 ADD MSTORE PUSH1 0x40 DUP2 ADD MLOAD PUSH1 0x40 DUP4 ADD MSTORE PUSH1 0x60 DUP2 ADD MLOAD PUSH1 0x60 DUP4 ADD MSTORE PUSH1 0x80 DUP2 ADD MLOAD PUSH1 0x80 DUP4 ADD MSTORE POP POP JUMP JUMPDEST DUP1 MLOAD DUP3 MSTORE PUSH1 0x20 SWAP1 DUP2 ADD MLOAD SWAP2 ADD MSTORE JUMP JUMPDEST PUSH1 0x0 DUP3 DUP5 DUP4 CALLDATACOPY SWAP2 ADD SWAP1 DUP2 MSTORE SWAP2 SWAP1 POP JUMP JUMPDEST PUSH1 0x1 PUSH1 0x1 PUSH1 0xA0 SHL SUB SWAP2 SWAP1 SWAP2 AND DUP2 MSTORE PUSH1 0x20 ADD SWAP1 JUMP JUMPDEST PUSH1 0x20 DUP1 DUP3 MSTORE DUP3 MLOAD DUP3 DUP3 ADD DUP2 SWAP1 MSTORE PUSH1 0x0 SWAP2 SWAP1 DUP5 DUP3 ADD SWAP1 PUSH1 0x40 DUP6 ADD SWAP1 DUP5 JUMPDEST DUP2 DUP2 LT ISZERO PUSH2 0x51BF JUMPI DUP4 MLOAD DUP4 MSTORE SWAP3 DUP5 ADD SWAP3 SWAP2 DUP5 ADD SWAP2 PUSH1 0x1 ADD PUSH2 0x51A3 JUMP JUMPDEST POP SWAP1 SWAP7 SWAP6 POP POP POP POP POP POP JUMP JUMPDEST PUSH1 0x0 PUSH1 0x20 DUP3 MSTORE PUSH2 0x9F4 PUSH1 0x20 DUP4 ADD DUP5 PUSH2 0x5087 JUMP JUMPDEST PUSH1 0x0 PUSH1 0x40 DUP3 MSTORE PUSH2 0x51F1 PUSH1 0x40 DUP4 ADD DUP6 PUSH2 0x5087 JUMP JUMPDEST DUP3 DUP2 SUB PUSH1 0x20 DUP5 ADD MSTORE PUSH2 0x5203 DUP2 DUP6 PUSH2 0x5087 JUMP JUMPDEST SWAP6 SWAP5 POP POP POP POP POP JUMP JUMPDEST PUSH1 0x0 PUSH2 0x1E0 DUP1 DUP4 MSTORE PUSH2 0x5220 DUP2 DUP5 ADD DUP8 PUSH2 0x5087 JUMP JUMPDEST SWAP2 POP POP PUSH2 0x5230 PUSH1 0x20 DUP4 ADD DUP6 PUSH2 0x5124 JUMP JUMPDEST PUSH2 0x2556 PUSH1 0xC0 DUP4 ADD DUP5 PUSH2 0x50CF JUMP JUMPDEST PUSH1 0x0 PUSH2 0x200 DUP1 DUP4 MSTORE PUSH2 0x5251 DUP2 DUP5 ADD DUP9 PUSH2 0x5087 JUMP JUMPDEST SWAP2 POP POP PUSH2 0x5261 PUSH1 0x20 DUP4 ADD DUP7 PUSH2 0x5124 JUMP JUMPDEST PUSH2 0x526E PUSH1 0xC0 DUP4 ADD DUP6 PUSH2 0x50CF JUMP JUMPDEST DUP3 PUSH2 0x1E0 DUP4 ADD MSTORE SWAP6 SWAP5 POP POP POP POP POP JUMP JUMPDEST PUSH1 0x0 PUSH1 0x80 DUP3 MSTORE PUSH2 0x5291 PUSH1 0x80 DUP4 ADD DUP7 PUSH2 0x5087 JUMP JUMPDEST SWAP1 POP PUSH2 0x52A0 PUSH1 0x20 DUP4 ADD DUP6 PUSH2 0x5154 JUMP JUMPDEST DUP3 PUSH1 0x60 DUP4 ADD MSTORE SWAP5 SWAP4 POP POP POP POP JUMP JUMPDEST PUSH1 0x0 PUSH2 0x260 DUP1 DUP4 MSTORE PUSH2 0x52C2 DUP2 DUP5 ADD DUP11 PUSH2 0x5087 JUMP JUMPDEST SWAP2 POP POP DUP7 PUSH1 0x20 DUP4 ADD MSTORE DUP6 ISZERO ISZERO PUSH1 0x40 DUP4 ADD MSTORE PUSH2 0x52E0 PUSH1 0x60 DUP4 ADD DUP7 PUSH2 0x5124 JUMP JUMPDEST PUSH2 0x52EE PUSH2 0x100 DUP4 ADD DUP6 PUSH2 0x50CF JUMP JUMPDEST PUSH2 0x1F1C PUSH2 0x220 DUP4 ADD DUP5 PUSH2 0x5154 JUMP JUMPDEST SWAP1 ISZERO ISZERO DUP2 MSTORE PUSH1 0x20 ADD SWAP1 JUMP JUMPDEST SWAP3 ISZERO ISZERO DUP4 MSTORE PUSH1 0x20 DUP4 ADD SWAP2 SWAP1 SWAP2 MSTORE PUSH1 0x40 DUP3 ADD MSTORE PUSH1 0x60 ADD SWAP1 JUMP JUMPDEST SWAP1 DUP2 MSTORE PUSH1 0x20 ADD SWAP1 JUMP JUMPDEST SWAP7 DUP8 MSTORE PUSH1 0x20 DUP8 ADD SWAP6 SWAP1 SWAP6 MSTORE PUSH1 0x40 DUP7 ADD SWAP4 SWAP1 SWAP4 MSTORE PUSH1 0x60 DUP6 ADD SWAP2 SWAP1 SWAP2 MSTORE PUSH1 0x80 DUP5 ADD MSTORE PUSH1 0xA0 DUP4 ADD MSTORE PUSH1 0xC0 DUP3 ADD MSTORE PUSH1 0xE0 ADD SWAP1 JUMP JUMPDEST SWAP6 DUP7 MSTORE PUSH1 0x20 DUP7 ADD SWAP5 SWAP1 SWAP5 MSTORE PUSH1 0x40 DUP6 ADD SWAP3 SWAP1 SWAP3 MSTORE PUSH1 0x60 DUP5 ADD MSTORE ISZERO ISZERO PUSH1 0x80 DUP4 ADD MSTORE PUSH1 0xA0 DUP3 ADD MSTORE PUSH1 0xC0 ADD SWAP1 JUMP JUMPDEST DUP4 DUP2 MSTORE PUSH1 0x60 DUP2 ADD PUSH2 0x5396 PUSH1 0x20 DUP4 ADD DUP6 PUSH2 0x50C1 JUMP JUMPDEST DUP3 PUSH1 0x40 DUP4 ADD MSTORE SWAP5 SWAP4 POP POP POP POP JUMP JUMPDEST DUP5 DUP2 MSTORE PUSH1 0x80 DUP2 ADD PUSH2 0x53B8 PUSH1 0x20 DUP4 ADD DUP7 PUSH2 0x50C1 JUMP JUMPDEST PUSH1 0x40 DUP3 ADD SWAP4 SWAP1 SWAP4 MSTORE PUSH1 0x60 ADD MSTORE SWAP3 SWAP2 POP POP JUMP JUMPDEST PUSH1 0x0 PUSH1 0xA0 DUP3 ADD SWAP1 POP DUP5 DUP3 MSTORE PUSH2 0x53E3 PUSH1 0x20 DUP4 ADD DUP6 MLOAD PUSH2 0x50C1 JUMP JUMPDEST PUSH1 0x20 DUP5 ADD MLOAD PUSH1 0x40 DUP4 DUP2 ADD SWAP2 SWAP1 SWAP2 MSTORE SWAP1 SWAP4 ADD MLOAD PUSH1 0x60 DUP3 ADD MSTORE PUSH1 0x80 ADD MSTORE SWAP2 SWAP1 POP JUMP JUMPDEST PUSH1 0x0 PUSH1 0x20 DUP1 DUP4 MSTORE DUP4 MLOAD DUP1 DUP3 DUP6 ADD MSTORE DUP3 JUMPDEST DUP2 DUP2 LT ISZERO PUSH2 0x542F JUMPI DUP6 DUP2 ADD DUP4 ADD MLOAD DUP6 DUP3 ADD PUSH1 0x40 ADD MSTORE DUP3 ADD PUSH2 0x5413 JUMP JUMPDEST DUP2 DUP2 GT ISZERO PUSH2 0x5440 JUMPI DUP4 PUSH1 0x40 DUP4 DUP8 ADD ADD MSTORE JUMPDEST POP PUSH1 0x1F ADD PUSH1 0x1F NOT AND SWAP3 SWAP1 SWAP3 ADD PUSH1 0x40 ADD SWAP4 SWAP3 POP POP POP JUMP JUMPDEST PUSH2 0x1C0 DUP2 ADD PUSH2 0x5465 DUP3 DUP6 PUSH2 0x5124 JUMP JUMPDEST PUSH2 0x5473 PUSH1 0xA0 DUP4 ADD DUP5 MLOAD PUSH2 0x5154 JUMP JUMPDEST PUSH1 0x20 DUP4 ADD MLOAD PUSH2 0x5485 PUSH1 0xE0 DUP5 ADD DUP3 PUSH2 0x5154 JUMP JUMPDEST POP PUSH1 0x40 DUP4 ADD MLOAD PUSH2 0x120 DUP4 ADD MSTORE PUSH1 0x60 DUP4 ADD MLOAD PUSH2 0x140 DUP4 ADD MSTORE PUSH1 0x80 DUP4 ADD MLOAD PUSH2 0x160 DUP4 ADD MSTORE PUSH1 0xA0 DUP4 ADD MLOAD PUSH2 0x180 DUP4 ADD MSTORE PUSH1 0xC0 DUP4 ADD MLOAD PUSH2 0x1A0 DUP4 ADD MSTORE SWAP4 SWAP3 POP POP POP JUMP JUMPDEST PUSH1 0x0 DUP4 DUP3 MSTORE PUSH1 0x40 PUSH1 0x20 DUP4 ADD MSTORE PUSH2 0x2556 PUSH1 0x40 DUP4 ADD DUP5 PUSH2 0x5087 JUMP JUMPDEST SWAP2 DUP3 MSTORE PUSH1 0x20 DUP3 ADD MSTORE PUSH1 0x40 ADD SWAP1 JUMP JUMPDEST PUSH1 0xFF SWAP2 SWAP1 SWAP2 AND DUP2 MSTORE PUSH1 0x20 ADD SWAP1 JUMP JUMPDEST PUSH1 0x40 MLOAD DUP2 DUP2 ADD PUSH1 0x1 PUSH1 0x1 PUSH1 0x40 SHL SUB DUP2 GT DUP3 DUP3 LT OR ISZERO PUSH2 0x5514 JUMPI INVALID JUMPDEST PUSH1 0x40 MSTORE SWAP2 SWAP1 POP JUMP JUMPDEST PUSH1 0x0 PUSH1 0x1 PUSH1 0x1 PUSH1 0x40 SHL SUB DUP3 GT ISZERO PUSH2 0x552F JUMPI INVALID JUMPDEST POP PUSH1 0x20 SWAP1 DUP2 MUL ADD SWAP1 JUMP JUMPDEST PUSH1 0x1 PUSH1 0x1 PUSH1 0xA0 SHL SUB DUP2 AND DUP2 EQ PUSH2 0x7E8 JUMPI PUSH1 0x0 DUP1 REVERT INVALID MSTORE8 PUSH2 0x6665 NUMBER PUSH2 0x7374 GASPRICE KECCAK256 PUSH23 0x616C756520646F65736E27742066697420696E20616E20 PUSH10 0x6E74323536A264697066 PUSH20 0x582212202DA7DAB0E8FF524F194E04D873D4DD27 0xA6 0xDF LOG1 PUSH11 0xE1E136EE07C4656902FE8C 0xE2 PUSH5 0x736F6C6343 STOP SMOD MOD STOP CALLER ","sha1":"2a275dc91e5f1e83bd6c1a445802b2d9ca7fa4bf","source":"// SPDX-License-Identifier: GPL-3.0-or-later\n// This program is free software: you can redistribute it and/or modify\n// it under the terms of the GNU General Public License as published by\n// the Free Software Foundation, either version 3 of the License, or\n// (at your option) any later version.\n\n// This program is distributed in the hope that it will be useful,\n// but WITHOUT ANY WARRANTY; without even the implied warranty of\n// MERCHANTABILITY or FITNESS FOR A PARTICULAR PURPOSE.  See the\n// GNU General Public License for more details.\n\n// You should have received a copy of the GNU General Public License\n// along with this program.  If not, see <http://www.gnu.org/licenses/>.\n\npragma solidity 0.7.6;\npragma experimental ABIEncoderV2;\n\n// import \"@balancer-labs/v2-solidity-utils/contracts/math/FixedPoint.sol\";\nimport \"../../libraries/GyroFixedPoint.sol\";\n\nimport \"@balancer-labs/v2-pool-weighted/contracts/WeightedPoolUserDataHelpers.sol\";\nimport \"@balancer-labs/v2-pool-weighted/contracts/WeightedPool2TokensMiscData.sol\";\n\nimport \"../../libraries/GyroConfigKeys.sol\";\nimport \"../../libraries/GyroErrors.sol\";\nimport \"../../interfaces/IGyroConfig.sol\";\nimport \"../../libraries/GyroPoolMath.sol\";\n\nimport \"../ExtensibleWeightedPool2Tokens.sol\";\nimport \"./GyroCEMMMath.sol\";\nimport \"./GyroCEMMOracleMath.sol\";\n\ncontract GyroCEMMPool is ExtensibleWeightedPool2Tokens {\n    using GyroFixedPoint for uint256;\n    using WeightedPoolUserDataHelpers for bytes;\n    using WeightedPool2TokensMiscData for bytes32;\n    using SafeCast for int256;\n    using SafeCast for uint256;\n\n    uint256 private constant _MINIMUM_BPT = 1e6;\n\n    /// @notice Parameters of the CEMM pool\n    int256 public immutable _paramsAlpha;\n    int256 public immutable _paramsBeta;\n    int256 public immutable _paramsC;\n    int256 public immutable _paramsS;\n    int256 public immutable _paramsLambda;\n    int256 public immutable _tauAlphaX;\n    int256 public immutable _tauAlphaY;\n    int256 public immutable _tauBetaX;\n    int256 public immutable _tauBetaY;\n    int256 public immutable _u;\n    int256 public immutable _v;\n    int256 public immutable _w;\n    int256 public immutable _z;\n    int256 public immutable _dSq;\n\n    IGyroConfig public gyroConfig;\n\n    struct GyroParams {\n        NewPoolParams baseParams;\n        GyroCEMMMath.Params cemmParams;\n        GyroCEMMMath.DerivedParams derivedCemmParams;\n    }\n\n    event CEMMParamsValidated(bool paramsValidated);\n    event CEMMDerivedParamsValidated(bool derivedParamsValidated);\n\n    event InvariantAterInitializeJoin(uint256 invariantAfterJoin);\n    event InvariantOldAndNew(uint256 oldInvariant, uint256 newInvariant);\n\n    event SwapParams(uint256[] balances, GyroCEMMMath.Vector2 invariant, uint256 amount);\n\n    event OracleIndexUpdated(uint256 oracleUpdatedIndex);\n\n    constructor(GyroParams memory params, address configAddress) ExtensibleWeightedPool2Tokens(params.baseParams) {\n        _grequire(configAddress != address(0x0), GyroCEMMPoolErrors.ADDRESS_IS_ZERO_ADDRESS);\n\n        GyroCEMMMath.validateParams(params.cemmParams);\n        emit CEMMParamsValidated(true);\n\n        GyroCEMMMath.validateDerivedParamsLimits(params.cemmParams, params.derivedCemmParams);\n        emit CEMMDerivedParamsValidated(true);\n\n        (_paramsAlpha, _paramsBeta, _paramsC, _paramsS, _paramsLambda) = (\n            params.cemmParams.alpha,\n            params.cemmParams.beta,\n            params.cemmParams.c,\n            params.cemmParams.s,\n            params.cemmParams.lambda\n        );\n\n        (_tauAlphaX, _tauAlphaY, _tauBetaX, _tauBetaY, _u, _v, _w, _z, _dSq) = (\n            params.derivedCemmParams.tauAlpha.x,\n            params.derivedCemmParams.tauAlpha.y,\n            params.derivedCemmParams.tauBeta.x,\n            params.derivedCemmParams.tauBeta.y,\n            params.derivedCemmParams.u,\n            params.derivedCemmParams.v,\n            params.derivedCemmParams.w,\n            params.derivedCemmParams.z,\n            params.derivedCemmParams.dSq\n        );\n\n        gyroConfig = IGyroConfig(configAddress);\n    }\n\n    /** @dev reconstructs CEMM params structs from immutable arrays */\n    function reconstructCEMMParams() internal view returns (GyroCEMMMath.Params memory params, GyroCEMMMath.DerivedParams memory d) {\n        (params.alpha, params.beta, params.c, params.s, params.lambda) = (_paramsAlpha, _paramsBeta, _paramsC, _paramsS, _paramsLambda);\n        (d.tauAlpha.x, d.tauAlpha.y, d.tauBeta.x, d.tauBeta.y) = (_tauAlphaX, _tauAlphaY, _tauBetaX, _tauBetaY);\n        (d.u, d.v, d.w, d.z, d.dSq) = (_u, _v, _w, _z, _dSq);\n    }\n\n    function getCEMMParams() external view returns (GyroCEMMMath.Params memory params, GyroCEMMMath.DerivedParams memory d) {\n        return reconstructCEMMParams();\n    }\n\n    /**\n     * @dev Returns the current value of the invariant.\n     */\n    // TODO WIP killing this routine to pipe DerivedParams through differently.\n    //    function getInvariant() public view override returns (int256) {\n    //        (, uint256[] memory balances, ) = getVault().getPoolTokens(getPoolId());\n    //\n    //        // Since the Pool hooks always work with upscaled balances, we manually\n    //        // upscale here for consistency\n    //        _upscaleArray(balances);\n    //\n    //        return GyroCEMMMath.calculateInvariant(balances, cemmParams, derived);\n    //    }\n\n    // Swap Hooks\n\n    function onSwap(\n        SwapRequest memory request,\n        uint256 balanceTokenIn,\n        uint256 balanceTokenOut\n    ) public virtual override whenNotPaused onlyVault(request.poolId) returns (uint256) {\n        bool tokenInIsToken0;\n\n        if (request.tokenIn == _token0 && request.tokenOut == _token1) {\n            tokenInIsToken0 = true;\n        } else if (request.tokenIn == _token1 && request.tokenOut == _token0) {\n            tokenInIsToken0 = false;\n        } else {\n            _revert(GyroCEMMPoolErrors.TOKEN_IN_IS_NOT_TOKEN_0);\n        }\n\n        uint256 scalingFactorTokenIn = _scalingFactor(tokenInIsToken0);\n        uint256 scalingFactorTokenOut = _scalingFactor(!tokenInIsToken0);\n\n        // All token amounts are upscaled.\n        balanceTokenIn = _upscale(balanceTokenIn, scalingFactorTokenIn);\n        balanceTokenOut = _upscale(balanceTokenOut, scalingFactorTokenOut);\n\n        // We \"undo\" the pre-processing that the caller of onSwap() did: In contrast to other pools, we don't exploit\n        // symmetry here, and we identify the two tokens explicitly.\n        uint256[] memory balances = _balancesFromTokenInOut(balanceTokenIn, balanceTokenOut, tokenInIsToken0);\n\n        (GyroCEMMMath.Params memory cemmParams, GyroCEMMMath.DerivedParams memory derivedCEMMParams) = reconstructCEMMParams();\n        GyroCEMMMath.Vector2 memory invariant;\n        {\n            (int256 currentInvariant, int256 invErr) = GyroCEMMMath.calculateInvariantWithError(balances, cemmParams, derivedCEMMParams);\n            // invariant = overestimate in x-component, underestimate in y-component\n            // No overflow in `+` due to constraints to the different values enforced in GyroCEMMMath.\n            invariant = GyroCEMMMath.Vector2(currentInvariant + 2 * invErr, currentInvariant);\n\n            // Update price oracle with the pre-swap balances. Vs other pools, we need to do this after invariant is calculated\n            _updateOracle(request.lastChangeBlock, balances, currentInvariant.toUint256(), cemmParams, derivedCEMMParams);\n        }\n\n        if (request.kind == IVault.SwapKind.GIVEN_IN) {\n            // Fees are subtracted before scaling, to reduce the complexity of the rounding direction analysis.\n            // This is amount - fee amount, so we round up (favoring a higher fee amount).\n            uint256 feeAmount = request.amount.mulUp(getSwapFeePercentage());\n            request.amount = _upscale(request.amount.sub(feeAmount), scalingFactorTokenIn);\n\n            uint256 amountOut = _onSwapGivenIn(request, balances, tokenInIsToken0, cemmParams, derivedCEMMParams, invariant);\n\n            emit SwapParams(balances, invariant, amountOut);\n\n            // amountOut tokens are exiting the Pool, so we round down.\n            return _downscaleDown(amountOut, scalingFactorTokenOut);\n        } else {\n            request.amount = _upscale(request.amount, scalingFactorTokenOut);\n\n            uint256 amountIn = _onSwapGivenOut(request, balances, tokenInIsToken0, cemmParams, derivedCEMMParams, invariant);\n\n            emit SwapParams(balances, invariant, amountIn);\n\n            // amountIn tokens are entering the Pool, so we round up.\n            amountIn = _downscaleUp(amountIn, scalingFactorTokenIn);\n\n            // Fees are added after scaling happens, to reduce the complexity of the rounding direction analysis.\n            // This is amount + fee amount, so we round up (favoring a higher fee amount).\n            return amountIn.divUp(getSwapFeePercentage().complement());\n        }\n    }\n\n    function _onSwapGivenIn(\n        SwapRequest memory swapRequest,\n        uint256[] memory balances,\n        bool tokenInIsToken0,\n        GyroCEMMMath.Params memory cemmParams,\n        GyroCEMMMath.DerivedParams memory derivedCEMMParams,\n        GyroCEMMMath.Vector2 memory invariant\n    ) private pure returns (uint256) {\n        // Swaps are disabled while the contract is paused.\n        return GyroCEMMMath.calcOutGivenIn(balances, swapRequest.amount, tokenInIsToken0, cemmParams, derivedCEMMParams, invariant);\n    }\n\n    function _onSwapGivenOut(\n        SwapRequest memory swapRequest,\n        uint256[] memory balances,\n        bool tokenInIsToken0,\n        GyroCEMMMath.Params memory cemmParams,\n        GyroCEMMMath.DerivedParams memory derivedCEMMParams,\n        GyroCEMMMath.Vector2 memory invariant\n    ) private pure returns (uint256) {\n        // Swaps are disabled while the contract is paused.\n        return GyroCEMMMath.calcInGivenOut(balances, swapRequest.amount, tokenInIsToken0, cemmParams, derivedCEMMParams, invariant);\n    }\n\n    //Note: is public visibility ok for the following function?\n\n    /**\n     * @dev Called when the Pool is joined for the first time; that is, when the BPT total supply is zero.\n     *\n     * Returns the amount of BPT to mint, and the token amounts the Pool will receive in return.\n     *\n     * Minted BPT will be sent to `recipient`, except for _MINIMUM_BPT, which will be deducted from this amount and sent\n     * to the zero address instead. This will cause that BPT to remain forever locked there, preventing total BTP from\n     * ever dropping below that value, and ensuring `_onInitializePool` can only be called once in the entire Pool's\n     * lifetime.\n     *\n     * The tokens granted to the Pool will be transferred from `sender`. These amounts are considered upscaled and will\n     * be downscaled (rounding up) before being returned to the Vault.\n     */\n    function _onInitializePool(\n        bytes32,\n        address,\n        address,\n        bytes memory userData\n    ) internal override returns (uint256, uint256[] memory) {\n        BaseWeightedPool.JoinKind kind = userData.joinKind();\n        _require(kind == BaseWeightedPool.JoinKind.INIT, Errors.UNINITIALIZED);\n\n        uint256[] memory amountsIn = userData.initialAmountsIn();\n        InputHelpers.ensureInputLengthMatch(amountsIn.length, 2);\n        _upscaleArray(amountsIn);\n\n        (GyroCEMMMath.Params memory cemmParams, GyroCEMMMath.DerivedParams memory derivedCEMMParams) = reconstructCEMMParams();\n        uint256 invariantAfterJoin = GyroCEMMMath.calculateInvariant(amountsIn, cemmParams, derivedCEMMParams);\n\n        emit InvariantAterInitializeJoin(invariantAfterJoin);\n\n        // Set the initial BPT to the value of the invariant times the number of tokens. This makes BPT supply more\n        // consistent in Pools with similar compositions but different number of tokens.\n\n        uint256 bptAmountOut = Math.mul(invariantAfterJoin, 2);\n\n        _lastInvariant = invariantAfterJoin;\n\n        return (bptAmountOut, amountsIn);\n    }\n\n    /**\n     * @dev Called whenever the Pool is joined after the first initialization join (see `_onInitializePool`).\n     *\n     * Returns the amount of BPT to mint, the token amounts that the Pool will receive in return, and the number of\n     * tokens to pay in protocol swap fees.\n     *\n     * Implementations of this function might choose to mutate the `balances` array to save gas (e.g. when\n     * performing intermediate calculations, such as subtraction of due protocol fees). This can be done safely.\n     *\n     * Minted BPT will be sent to `recipient`.\n     *\n     * The tokens granted to the Pool will be transferred from `sender`. These amounts are considered upscaled and will\n     * be downscaled (rounding up) before being returned to the Vault.\n     *\n     * Due protocol swap fees will be taken from the Pool's balance in the Vault (see `IBasePool.onJoinPool`). These\n     * amounts are considered upscaled and will be downscaled (rounding down) before being returned to the Vault.\n     *\n     * protocolSwapFeePercentage argument is intentionally unused as protocol fees are handled in a different way\n     */\n    function _onJoinPool(\n        bytes32,\n        address,\n        address,\n        uint256[] memory balances,\n        uint256 lastChangeBlock,\n        uint256, //protocolSwapFeePercentage,\n        bytes memory userData\n    )\n        internal\n        override\n        returns (\n            uint256,\n            uint256[] memory,\n            uint256[] memory\n        )\n    {\n        // Due protocol swap fee amounts are computed by measuring the growth of the invariant between the previous join\n        // or exit event and now - the invariant's growth is due exclusively to swap fees. This avoids spending gas\n        // computing them on each individual swap\n        (GyroCEMMMath.Params memory cemmParams, GyroCEMMMath.DerivedParams memory derivedCEMMParams) = reconstructCEMMParams();\n        uint256 invariantBeforeAction = GyroCEMMMath.calculateInvariant(balances, cemmParams, derivedCEMMParams);\n\n        // Update price oracle with the pre-exit balances. Vs other pools, we need to do this after invariant is calculated\n        _updateOracle(lastChangeBlock, balances, invariantBeforeAction, cemmParams, derivedCEMMParams);\n\n        _distributeFees(invariantBeforeAction);\n\n        (uint256 bptAmountOut, uint256[] memory amountsIn) = _doJoin(balances, userData);\n\n        // Since we pay fees in BPT, they have not changed the invariant and 'invariantBeforeAction' is still consistent with\n        // 'balances'. Therefore, we can use a simplified method to update the invariant that does not require a full\n        // re-computation.\n        // Note: Should this be changed in the future, we also need to reduce the invariant proportionally by the total\n        // protocol fee factor.\n        _lastInvariant = GyroPoolMath.liquidityInvariantUpdate(invariantBeforeAction, bptAmountOut, totalSupply(), true);\n\n        emit InvariantOldAndNew(invariantBeforeAction, _lastInvariant);\n\n        // returns a new uint256[](2) b/c Balancer vault is expecting a fee array, but fees paid in BPT instead\n        return (bptAmountOut, amountsIn, new uint256[](2));\n    }\n\n    function _doJoin(uint256[] memory balances, bytes memory userData) internal view returns (uint256 bptAmountOut, uint256[] memory amountsIn) {\n        BaseWeightedPool.JoinKind kind = userData.joinKind();\n\n        // We do NOT currently support unbalanced update, i.e., EXACT_TOKENS_IN_FOR_BPT_OUT or TOKEN_IN_FOR_EXACT_BPT_OUT\n        if (kind == BaseWeightedPool.JoinKind.ALL_TOKENS_IN_FOR_EXACT_BPT_OUT) {\n            (bptAmountOut, amountsIn) = _joinAllTokensInForExactBPTOut(balances, userData);\n        } else {\n            _revert(Errors.UNHANDLED_JOIN_KIND);\n        }\n    }\n\n    function _joinAllTokensInForExactBPTOut(uint256[] memory balances, bytes memory userData)\n        internal\n        view\n        override\n        returns (uint256, uint256[] memory)\n    {\n        uint256 bptAmountOut = userData.allTokensInForExactBptOut();\n        // Note that there is no maximum amountsIn parameter: this is handled by `IVault.joinPool`.\n\n        uint256[] memory amountsIn = GyroPoolMath._calcAllTokensInGivenExactBptOut(balances, bptAmountOut, totalSupply());\n\n        return (bptAmountOut, amountsIn);\n    }\n\n    /**\n     * @dev Called whenever the Pool is exited.\n     *\n     * Returns the amount of BPT to burn, the token amounts for each Pool token that the Pool will grant in return, and\n     * the number of tokens to pay in protocol swap fees.\n     *\n     * Implementations of this function might choose to mutate the `balances` array to save gas (e.g. when\n     * performing intermediate calculations, such as subtraction of due protocol fees). This can be done safely.\n     *\n     * BPT will be burnt from `sender`.\n     *\n     * The Pool will grant tokens to `recipient`. These amounts are considered upscaled and will be downscaled\n     * (rounding down) before being returned to the Vault.\n     *\n     * Due protocol swap fees will be taken from the Pool's balance in the Vault (see `IBasePool.onExitPool`). These\n     * amounts are considered upscaled and will be downscaled (rounding down) before being returned to the Vault.\n     *\n     * protocolSwapFeePercentage argument is intentionally unused as protocol fees are handled in a different way\n     */\n    function _onExitPool(\n        bytes32,\n        address,\n        address,\n        uint256[] memory balances,\n        uint256 lastChangeBlock,\n        uint256, // protocolSwapFeePercentage,\n        bytes memory userData\n    )\n        internal\n        override\n        returns (\n            uint256 bptAmountIn,\n            uint256[] memory amountsOut,\n            uint256[] memory dueProtocolFeeAmounts\n        )\n    {\n        // Exits are not completely disabled while the contract is paused: proportional exits (exact BPT in for tokens\n        // out) remain functional.\n        (GyroCEMMMath.Params memory cemmParams, GyroCEMMMath.DerivedParams memory derivedCEMMParams) = reconstructCEMMParams();\n\n        // Note: If the contract is paused, swap protocol fee amounts are not charged and the oracle is not updated\n        // to avoid extra calculations and reduce the potential for errors.\n        if (_isNotPaused()) {\n            // Due protocol swap fee amounts are computed by measuring the growth of the invariant between the previous\n            // join or exit event and now - the invariant's growth is due exclusively to swap fees. This avoids\n            // spending gas calculating the fees on each individual swap.\n            uint256 invariantBeforeAction = GyroCEMMMath.calculateInvariant(balances, cemmParams, derivedCEMMParams);\n\n            // Update price oracle with the pre-exit balances. Vs other pools, we need to do this after invariant is calculated\n            _updateOracle(lastChangeBlock, balances, invariantBeforeAction, cemmParams, derivedCEMMParams);\n\n            _distributeFees(invariantBeforeAction);\n\n            (bptAmountIn, amountsOut) = _doExit(balances, userData);\n\n            // Since we pay fees in BPT, they have not changed the invariant and 'invariantBeforeAction' is still consistent with\n            // 'balances'. Therefore, we can use a simplified method to update the invariant that does not require a full\n            // re-computation.\n            // Note: Should this be changed in the future, we also need to reduce the invariant proportionally by the total\n            // protocol fee factor.\n            _lastInvariant = GyroPoolMath.liquidityInvariantUpdate(invariantBeforeAction, bptAmountIn, totalSupply(), false);\n\n            emit InvariantOldAndNew(invariantBeforeAction, _lastInvariant);\n        } else {\n            // Note: If the contract is paused, swap protocol fee amounts are not charged and the oracle is not updated\n            // to avoid extra calculations and reduce the potential for errors.\n            (bptAmountIn, amountsOut) = _doExit(balances, userData);\n\n            // Invalidate _lastInvariant. We do not compute the invariant to make sure the pool is not locking\n            // up b/c numerical limits might be violated. Instead, we set the invariant such that any following\n            // (non-paused) join/exit will ignore and recompute it. (see GyroPoolMath._calcProtocolFees())\n            _lastInvariant = type(uint256).max;\n        }\n\n        // returns a new uint256[](2) b/c Balancer vault is expecting a fee array, but fees paid in BPT instead\n        return (bptAmountIn, amountsOut, new uint256[](2));\n    }\n\n    function _doExit(uint256[] memory balances, bytes memory userData) internal view returns (uint256 bptAmountIn, uint256[] memory amountsOut) {\n        BaseWeightedPool.ExitKind kind = userData.exitKind();\n\n        // We do NOT support unbalanced exit at the moment, i.e., EXACT_BPT_IN_FOR_ONE_TOKEN_OUT or\n        // BPT_IN_FOR_EXACT_TOKENS_OUT.\n        if (kind == BaseWeightedPool.ExitKind.EXACT_BPT_IN_FOR_TOKENS_OUT) {\n            (bptAmountIn, amountsOut) = _exitExactBPTInForTokensOut(balances, userData);\n        } else {\n            _revert(Errors.UNHANDLED_EXIT_KIND);\n        }\n    }\n\n    function _exitExactBPTInForTokensOut(uint256[] memory balances, bytes memory userData)\n        internal\n        view\n        override\n        returns (uint256, uint256[] memory)\n    {\n        // This exit function is the only one that is not disabled if the contract is paused: it remains unrestricted\n        // in an attempt to provide users with a mechanism to retrieve their tokens in case of an emergency.\n        // This particular exit function is the only one that remains available because it is the simplest one, and\n        // therefore the one with the lowest likelihood of errors.\n\n        uint256 bptAmountIn = userData.exactBptInForTokensOut();\n        // Note that there is no minimum amountOut parameter: this is handled by `IVault.exitPool`.\n\n        uint256[] memory amountsOut = GyroPoolMath._calcTokensOutGivenExactBptIn(balances, bptAmountIn, totalSupply());\n        return (bptAmountIn, amountsOut);\n    }\n\n    // Helpers.\n\n    function _balancesFromTokenInOut(\n        uint256 balanceTokenIn,\n        uint256 balanceTokenOut,\n        bool tokenInIsToken0\n    ) internal pure returns (uint256[] memory balances) {\n        balances = new uint256[](2);\n        if (tokenInIsToken0) {\n            balances[0] = balanceTokenIn;\n            balances[1] = balanceTokenOut;\n        } else {\n            balances[0] = balanceTokenOut;\n            balances[1] = balanceTokenIn;\n        }\n    }\n\n    /**\n     * @dev Updates the Price Oracle based on the Pool's current state (balances, BPT supply and invariant). Must be\n     * called on *all* state-changing functions with the balances *before* the state change happens, and with\n     * `lastChangeBlock` as the number of the block in which any of the balances last changed.\n     */\n    function _updateOracle(\n        uint256 lastChangeBlock,\n        uint256[] memory balances,\n        uint256 invariant,\n        GyroCEMMMath.Params memory cemmParams,\n        GyroCEMMMath.DerivedParams memory derivedCEMMParams\n    ) internal {\n        bytes32 miscData = _miscData;\n        if (miscData.oracleEnabled() && block.number > lastChangeBlock) {\n            uint256 spotPrice = GyroCEMMMath.calculatePrice(balances, cemmParams, derivedCEMMParams, invariant.toInt256());\n\n            int256 logSpotPrice = GyroCEMMOracleMath._calcLogSpotPrice(spotPrice);\n\n            // // can optionally log BPT spot price using this code. Instead, we log L/S\n            // int256 logBPTPrice = GyroCEMMOracleMath._calcLogBPTPrice(\n            //     balances[0],\n            //     balances[1],\n            //     spotPrice,\n            //     miscData.logTotalSupply()\n            // );\n\n            int256 logInvariantDivSupply = GyroCEMMOracleMath._calcLogInvariantDivSupply(invariant, miscData.logTotalSupply());\n\n            uint256 oracleCurrentIndex = miscData.oracleIndex();\n            uint256 oracleCurrentSampleInitialTimestamp = miscData.oracleSampleCreationTimestamp();\n            uint256 oracleUpdatedIndex = _processPriceData(\n                oracleCurrentSampleInitialTimestamp,\n                oracleCurrentIndex,\n                logSpotPrice,\n                logInvariantDivSupply, // replaces logBPTPrice\n                miscData.logInvariant()\n            );\n\n            if (oracleCurrentIndex != oracleUpdatedIndex) {\n                // solhint-disable not-rely-on-time\n                miscData = miscData.setOracleIndex(oracleUpdatedIndex);\n                miscData = miscData.setOracleSampleCreationTimestamp(block.timestamp);\n                _miscData = miscData;\n\n                emit OracleIndexUpdated(oracleUpdatedIndex);\n            }\n        }\n    }\n\n    // Override unused inherited function\n    // this intentionally does not revert so that it will be bypassed on onJoinPool inherited from ExtensibleWeightedPool2Tokens\n    // the above overloading implementation of _updateOracle takes different arguments and processes the oracle update in a different place\n    // Note: this is identical to the handling in Gyro2CLPPool.sol\n    function _updateOracle(\n        uint256,\n        uint256,\n        uint256\n    ) internal pure override {\n        // Do nothing.\n    }\n\n    // Fee helpers. These are exactly the same as in the Gyro2CLPPool.\n    // TODO prob about time to make a base class.\n\n    /**\n     * Note: This function is identical to that used in Gyro2CLPPool.sol\n     * @dev Computes and distributes fees between the Balancer and the Gyro treasury\n     * The fees are computed and distributed in BPT rather than using the\n     * Balancer regular distribution mechanism which would pay these in underlying\n     */\n\n    function _distributeFees(uint256 invariantBeforeAction) internal {\n        // calculate Protocol fees in BPT\n        // lastInvariant is the invariant logged at the end of the last liquidity update\n        // protocol fees are calculated on swap fees earned between liquidity updates\n        (uint256 gyroFees, uint256 balancerFees, address gyroTreasury, address balTreasury) = _getDueProtocolFeeAmounts(\n            _lastInvariant,\n            invariantBeforeAction\n        );\n\n        // Pay fees in BPT\n        _payFeesBpt(gyroFees, balancerFees, gyroTreasury, balTreasury);\n    }\n\n    /**\n     * Note: This function is identical to that used in Gyro2CLPPool.sol\n     * @dev this function overrides inherited function to make sure it is never used\n     */\n    function _getDueProtocolFeeAmounts(\n        uint256[] memory, // balances,\n        uint256[] memory, // normalizedWeights,\n        uint256, // previousInvariant,\n        uint256, // currentInvariant,\n        uint256 // protocolSwapFeePercentage\n    ) internal pure override returns (uint256[] memory) {\n        revert(\"Not implemented\");\n    }\n\n    /**\n     * @dev\n     * Note: This function is identical to that used in Gyro2CLPPool.sol.\n     * Calculates protocol fee amounts in BPT terms.\n     * protocolSwapFeePercentage is not used here b/c we take parameters from GyroConfig instead.\n     * Returns: BPT due to Gyro, BPT due to Balancer, receiving address for Gyro fees, receiving address for Balancer\n     * fees.\n     */\n    function _getDueProtocolFeeAmounts(uint256 previousInvariant, uint256 currentInvariant)\n        internal\n        view\n        returns (\n            uint256,\n            uint256,\n            address,\n            address\n        )\n    {\n        (uint256 protocolSwapFeePerc, uint256 protocolFeeGyroPortion, address gyroTreasury, address balTreasury) = _getFeesMetadata();\n\n        // Early return if the protocol swap fee percentage is zero, saving gas.\n        if (protocolSwapFeePerc == 0) {\n            return (0, 0, gyroTreasury, balTreasury);\n        }\n\n        // Calculate fees in BPT\n        (uint256 gyroFees, uint256 balancerFees) = GyroPoolMath._calcProtocolFees(\n            previousInvariant,\n            currentInvariant,\n            totalSupply(),\n            protocolSwapFeePerc,\n            protocolFeeGyroPortion\n        );\n\n        return (gyroFees, balancerFees, gyroTreasury, balTreasury);\n    }\n\n    // Note: This function is identical to that used in Gyro2CLPPool.sol\n    function _payFeesBpt(\n        uint256 gyroFees,\n        uint256 balancerFees,\n        address gyroTreasury,\n        address balTreasury\n    ) internal {\n        // Pay fees in BPT to gyro treasury\n        if (gyroFees > 0) {\n            _mintPoolTokens(gyroTreasury, gyroFees);\n        }\n        // Pay fees in BPT to bal treasury\n        if (balancerFees > 0) {\n            _mintPoolTokens(balTreasury, balancerFees);\n        }\n    }\n\n    // Note: This function is identical to that used in Gyro2CLPPool.sol\n    function _getFeesMetadata()\n        internal\n        view\n        returns (\n            uint256,\n            uint256,\n            address,\n            address\n        )\n    {\n        return (\n            gyroConfig.getUint(GyroConfigKeys.PROTOCOL_SWAP_FEE_PERC_KEY),\n            gyroConfig.getUint(GyroConfigKeys.PROTOCOL_FEE_GYRO_PORTION_KEY),\n            gyroConfig.getAddress(GyroConfigKeys.GYRO_TREASURY_KEY),\n            gyroConfig.getAddress(GyroConfigKeys.BAL_TREASURY_KEY)\n        );\n    }\n}\n","sourcePath":"contracts/cemm/GyroCEMMPool.sol","type":"contract","deployment":{"address":"0x2E08bd79Cd3bDB949aAf01B77764d124BCd85a47","chainid":"5","blockHeight":7668892}}