{"abi":[{"inputs":[{"internalType":"uint256[]","name":"balances","type":"uint256[]"},{"internalType":"uint256","name":"amountOut","type":"uint256"},{"internalType":"bool","name":"tokenInIsToken0","type":"bool"},{"components":[{"internalType":"int256","name":"alpha","type":"int256"},{"internalType":"int256","name":"beta","type":"int256"},{"internalType":"int256","name":"c","type":"int256"},{"internalType":"int256","name":"s","type":"int256"},{"internalType":"int256","name":"lambda","type":"int256"}],"internalType":"struct GyroCEMMMath.Params","name":"params","type":"tuple"},{"components":[{"components":[{"internalType":"int256","name":"x","type":"int256"},{"internalType":"int256","name":"y","type":"int256"}],"internalType":"struct GyroCEMMMath.Vector2","name":"tauAlpha","type":"tuple"},{"components":[{"internalType":"int256","name":"x","type":"int256"},{"internalType":"int256","name":"y","type":"int256"}],"internalType":"struct GyroCEMMMath.Vector2","name":"tauBeta","type":"tuple"},{"internalType":"int256","name":"u","type":"int256"},{"internalType":"int256","name":"v","type":"int256"},{"internalType":"int256","name":"w","type":"int256"},{"internalType":"int256","name":"z","type":"int256"},{"internalType":"int256","name":"dSq","type":"int256"}],"internalType":"struct GyroCEMMMath.DerivedParams","name":"derived","type":"tuple"},{"components":[{"internalType":"int256","name":"x","type":"int256"},{"internalType":"int256","name":"y","type":"int256"}],"internalType":"struct GyroCEMMMath.Vector2","name":"invariant","type":"tuple"}],"name":"calcInGivenOut","outputs":[{"internalType":"uint256","name":"amountIn","type":"uint256"}],"stateMutability":"pure","type":"function"},{"inputs":[{"internalType":"uint256[]","name":"balances","type":"uint256[]"},{"internalType":"uint256","name":"amountIn","type":"uint256"},{"internalType":"bool","name":"tokenInIsToken0","type":"bool"},{"components":[{"internalType":"int256","name":"alpha","type":"int256"},{"internalType":"int256","name":"beta","type":"int256"},{"internalType":"int256","name":"c","type":"int256"},{"internalType":"int256","name":"s","type":"int256"},{"internalType":"int256","name":"lambda","type":"int256"}],"internalType":"struct GyroCEMMMath.Params","name":"params","type":"tuple"},{"components":[{"components":[{"internalType":"int256","name":"x","type":"int256"},{"internalType":"int256","name":"y","type":"int256"}],"internalType":"struct GyroCEMMMath.Vector2","name":"tauAlpha","type":"tuple"},{"components":[{"internalType":"int256","name":"x","type":"int256"},{"internalType":"int256","name":"y","type":"int256"}],"internalType":"struct GyroCEMMMath.Vector2","name":"tauBeta","type":"tuple"},{"internalType":"int256","name":"u","type":"int256"},{"internalType":"int256","name":"v","type":"int256"},{"internalType":"int256","name":"w","type":"int256"},{"internalType":"int256","name":"z","type":"int256"},{"internalType":"int256","name":"dSq","type":"int256"}],"internalType":"struct GyroCEMMMath.DerivedParams","name":"derived","type":"tuple"},{"components":[{"internalType":"int256","name":"x","type":"int256"},{"internalType":"int256","name":"y","type":"int256"}],"internalType":"struct GyroCEMMMath.Vector2","name":"invariant","type":"tuple"}],"name":"calcOutGivenIn","outputs":[{"internalType":"uint256","name":"amountOut","type":"uint256"}],"stateMutability":"pure","type":"function"},{"inputs":[{"internalType":"uint256[]","name":"balances","type":"uint256[]"},{"components":[{"internalType":"int256","name":"alpha","type":"int256"},{"internalType":"int256","name":"beta","type":"int256"},{"internalType":"int256","name":"c","type":"int256"},{"internalType":"int256","name":"s","type":"int256"},{"internalType":"int256","name":"lambda","type":"int256"}],"internalType":"struct GyroCEMMMath.Params","name":"params","type":"tuple"},{"components":[{"components":[{"internalType":"int256","name":"x","type":"int256"},{"internalType":"int256","name":"y","type":"int256"}],"internalType":"struct GyroCEMMMath.Vector2","name":"tauAlpha","type":"tuple"},{"components":[{"internalType":"int256","name":"x","type":"int256"},{"internalType":"int256","name":"y","type":"int256"}],"internalType":"struct GyroCEMMMath.Vector2","name":"tauBeta","type":"tuple"},{"internalType":"int256","name":"u","type":"int256"},{"internalType":"int256","name":"v","type":"int256"},{"internalType":"int256","name":"w","type":"int256"},{"internalType":"int256","name":"z","type":"int256"},{"internalType":"int256","name":"dSq","type":"int256"}],"internalType":"struct GyroCEMMMath.DerivedParams","name":"derived","type":"tuple"}],"name":"calculateInvariant","outputs":[{"internalType":"uint256","name":"uinvariant","type":"uint256"}],"stateMutability":"pure","type":"function"},{"inputs":[{"internalType":"uint256[]","name":"balances","type":"uint256[]"},{"components":[{"internalType":"int256","name":"alpha","type":"int256"},{"internalType":"int256","name":"beta","type":"int256"},{"internalType":"int256","name":"c","type":"int256"},{"internalType":"int256","name":"s","type":"int256"},{"internalType":"int256","name":"lambda","type":"int256"}],"internalType":"struct GyroCEMMMath.Params","name":"params","type":"tuple"},{"components":[{"components":[{"internalType":"int256","name":"x","type":"int256"},{"internalType":"int256","name":"y","type":"int256"}],"internalType":"struct GyroCEMMMath.Vector2","name":"tauAlpha","type":"tuple"},{"components":[{"internalType":"int256","name":"x","type":"int256"},{"internalType":"int256","name":"y","type":"int256"}],"internalType":"struct GyroCEMMMath.Vector2","name":"tauBeta","type":"tuple"},{"internalType":"int256","name":"u","type":"int256"},{"internalType":"int256","name":"v","type":"int256"},{"internalType":"int256","name":"w","type":"int256"},{"internalType":"int256","name":"z","type":"int256"},{"internalType":"int256","name":"dSq","type":"int256"}],"internalType":"struct GyroCEMMMath.DerivedParams","name":"derived","type":"tuple"}],"name":"calculateInvariantWithError","outputs":[{"internalType":"int256","name":"","type":"int256"},{"internalType":"int256","name":"","type":"int256"}],"stateMutability":"pure","type":"function"},{"inputs":[{"internalType":"uint256[]","name":"balances","type":"uint256[]"},{"components":[{"internalType":"int256","name":"alpha","type":"int256"},{"internalType":"int256","name":"beta","type":"int256"},{"internalType":"int256","name":"c","type":"int256"},{"internalType":"int256","name":"s","type":"int256"},{"internalType":"int256","name":"lambda","type":"int256"}],"internalType":"struct GyroCEMMMath.Params","name":"params","type":"tuple"},{"components":[{"components":[{"internalType":"int256","name":"x","type":"int256"},{"internalType":"int256","name":"y","type":"int256"}],"internalType":"struct GyroCEMMMath.Vector2","name":"tauAlpha","type":"tuple"},{"components":[{"internalType":"int256","name":"x","type":"int256"},{"internalType":"int256","name":"y","type":"int256"}],"internalType":"struct GyroCEMMMath.Vector2","name":"tauBeta","type":"tuple"},{"internalType":"int256","name":"u","type":"int256"},{"internalType":"int256","name":"v","type":"int256"},{"internalType":"int256","name":"w","type":"int256"},{"internalType":"int256","name":"z","type":"int256"},{"internalType":"int256","name":"dSq","type":"int256"}],"internalType":"struct GyroCEMMMath.DerivedParams","name":"derived","type":"tuple"},{"internalType":"int256","name":"invariant","type":"int256"}],"name":"calculatePrice","outputs":[{"internalType":"uint256","name":"px","type":"uint256"}],"stateMutability":"pure","type":"function"},{"inputs":[{"components":[{"internalType":"int256","name":"alpha","type":"int256"},{"internalType":"int256","name":"beta","type":"int256"},{"internalType":"int256","name":"c","type":"int256"},{"internalType":"int256","name":"s","type":"int256"},{"internalType":"int256","name":"lambda","type":"int256"}],"internalType":"struct GyroCEMMMath.Params","name":"params","type":"tuple"},{"components":[{"components":[{"internalType":"int256","name":"x","type":"int256"},{"internalType":"int256","name":"y","type":"int256"}],"internalType":"struct GyroCEMMMath.Vector2","name":"tauAlpha","type":"tuple"},{"components":[{"internalType":"int256","name":"x","type":"int256"},{"internalType":"int256","name":"y","type":"int256"}],"internalType":"struct GyroCEMMMath.Vector2","name":"tauBeta","type":"tuple"},{"internalType":"int256","name":"u","type":"int256"},{"internalType":"int256","name":"v","type":"int256"},{"internalType":"int256","name":"w","type":"int256"},{"internalType":"int256","name":"z","type":"int256"},{"internalType":"int256","name":"dSq","type":"int256"}],"internalType":"struct GyroCEMMMath.DerivedParams","name":"derived","type":"tuple"}],"name":"validateDerivedParamsLimits","outputs":[],"stateMutability":"pure","type":"function"},{"inputs":[{"components":[{"internalType":"int256","name":"alpha","type":"int256"},{"internalType":"int256","name":"beta","type":"int256"},{"internalType":"int256","name":"c","type":"int256"},{"internalType":"int256","name":"s","type":"int256"},{"internalType":"int256","name":"lambda","type":"int256"}],"internalType":"struct GyroCEMMMath.Params","name":"params","type":"tuple"}],"name":"validateParams","outputs":[],"stateMutability":"pure","type":"function"}],"bytecode":"612635610026600b82828239805160001a60731461001957fe5b30600052607381538281f3fe73000000000000000000000000000000000000000030146080604052600436106100875760003560e01c8063bce135aa11610065578063bce135aa146100dd578063c8afb835146100f0578063ddcd897c14610103578063eaf17aef1461011657610087565b80630ece9d861461008c578063371c08f1146100a1578063b10bc2cd146100ca575b600080fd5b61009f61009a366004612570565b610137565b005b6100b46100af366004612417565b610214565b6040516100c191906125ce565b60405180910390f35b61009f6100d836600461258b565b610237565b6100b46100eb366004612476565b6103fa565b6100b46100fe3660046124de565b610556565b6100b46101113660046124de565b61062c565b610129610124366004612417565b6106df565b6040516100c19291906125c0565b610163816060015160001315801561015b5750670de0b6b3a7640000826060015113155b61016361089a565b61018e816040015160001315801561015b5750670de0b6b3a76400008260400151131561016361089a565b6040805180820182526060830151815290820151602082015260006101b382806108ac565b90506101e0670de0b6b3a763fc1882128015906101d85750670de0b6b3a76403e88213155b61016461089a565b61020f836080015160001315801561020757506a52b7d2dcc80cd2e4000000846080015113155b61016861089a565b505050565b6000806102228585856106df565b50905061022e816108e6565b95945050505050565b80516000906102469080610945565b90506102836f4b3b4ca85a86af4d06c240f509800000821280159061027b57506f4b3b4ca85a86d9a70c52038af68000008213155b61016661089a565b60208201516102929080610945565b90506102ce6f4b3b4ca85a86af4d06c240f509800000821280159061027b57506f4b3b4ca85a86d9a70c52038af680000082131561016661089a565b6102f06b012ced32a16a1b11e826288960261b8360400151131561016961089a565b6103126b012ced32a16a1b11e826288960261b8360600151131561016961089a565b6103346b012ced32a16a1b11e826288960261b8360800151131561016961089a565b6103566b012ced32a16a1b11e826288960261b8360a00151131561016961089a565b60c082015161039a906f4b3b4ca85a86af4d06c240f50980000013801590610392575060c08301516f4b3b4ca85a86d9a70c52038af680000012155b61016c61089a565b60006103d16b012ced32a16a1b11e826288960261b6103b98686610972565b6b012ced32a16a1b11e826288960261b919003610a50565b90506103f47172cb5bd86321e38cb6ce6682e8000000000082131561016a61089a565b50505050565b60008060405180604001604052808481526020018481525090506000604051806040016040528061042c888886610a87565b815260200161043c888886610b48565b81525090506000604051806040016040528083600001516104708b60008151811061046357fe5b6020026020010151610bef565b038152602001836020015161048b8b60018151811061046357fe5b039052905061049a8782610c33565b9050600060405180604001604052806104c484602001518560000151610cb190919063ffffffff16565b8152602001670de0b6b3a764000081525090506000610509826105048b6040518060400160405280670de0b6b3a764000081526020016000815250610c33565b6108ac565b905061054861054361053c846105048d604051806040016040528060008152602001670de0b6b3a7640000815250610c33565b8390610cd7565b6108e6565b9a9950505050505050505050565b600061221060008087156105755750610d319150600090506001610582565b50610db091506001905060005b898160ff168151811061059157fe5b60200260200101518911156105ad576105ad600061016561089a565b60006105d08a8c8460ff16815181106105c257fe5b602002602001015103610bef565b905060006105e4828a8a8a8963ffffffff16565b90506105f38989898488610e02565b61061c8c8560ff168151811061060557fe5b6020026020010151610616836108e6565b90610e97565b9c9b505050505050505050505050565b6000612210600080871561064b5750610db09150600090506001610658565b50610d3191506001905060005b600061068b6106868b8d8660ff168151811061067057fe5b6020026020010151610eb390919063ffffffff16565b610bef565b905061069a8888888487610e02565b60006106ac828a8a8a8963ffffffff16565b905061061c6106ba826108e6565b8d8560ff16815181106106c957fe5b6020026020010151610e9790919063ffffffff16565b6000806000806106f58760008151811061046357fe5b6107058860018151811061046357fe5b90925090506107316e01ed09bead87c0378d8e64000000006107278484610ecb565b131561016b61089a565b600061073f83838989610ef4565b905060008061075085858b8b611027565b9150915060008213156107745761076d60018201600284026110ad565b905061079f565b6000811361078657633b9aca0061079c565b61079c610686610795836108e6565b600561112e565b90505b806b012ced32a16a1b11e826288960261b6107c98688018c608001516112c490919063ffffffff16565b816107d057fe5b0501600101601402905060006107f96b012ced32a16a1b11e826288960261b6103b98c8c610972565b9050600061080c85850184900383611316565b90506108188383611376565b60808c01519093506b012ced32a16a1b11e826288960261b906ec097ce7bc90715b34b9f10000000009080020561084f8385611376565b026028028161085a57fe5b05830160010192506108896f1691ca32818ed48b02dca3e0000000006107278584610ecb90919063ffffffff16565b9b919a509098505050505050505050565b816108a8576108a8816113bd565b5050565b60006108df6108cc836020015185602001516113d090919063ffffffff16565b835185516108d9916113d0565b90610ecb565b9392505050565b60008082121561093d576040805162461bcd60e51b815260206004820181905260248201527f53616665436173743a2076616c7565206d75737420626520706f736974697665604482015290519081900360640190fd5b50805b919050565b60006108df6109658360200151856020015161140990919063ffffffff16565b835185516108d991611409565b60c081015160009081906109909061098a8180611449565b90611449565b90506109c86109bd826109b78660600151876040015160020261144990919063ffffffff16565b90610a50565b6080860151906112c4565b608085015160408501519193506109f6916109f0908290829086906109b79060010180611449565b906112c4565b6060840151920191610a0e9082906109b79080611449565b8201915060008360a00151610a34866080015186608001516110ad90919063ffffffff16565b019050610a45826109b78380611449565b909201949350505050565b600081610a6357610a6360006004611463565b816b012ced32a16a1b11e826288960261b840281610a7d57fe5b0590505b92915050565b60c08201516020830151516000918291610aa091610a50565b9050600084602001516000015113610aea57610ae581610adf8760400151610ad98960800151886020015161147190919063ffffffff16565b90611471565b90611376565b610b09565b604085015160808601518451610b09928492610adf926109f0916112c4565b9150610b3d610b2d8560c00151866020015160200151610a5090919063ffffffff16565b60608701518551610adf916112c4565b909101949350505050565b60c08201518251516000918291610b5e91610a50565b845151909150600013610b9a57610b9581610adf8760600151610ad98960800151886020015160000361147190919063ffffffff16565b610bc4565b610bc481600003610adf87606001516109f0896080015188600001516112c490919063ffffffff16565b60c0850151855160200151919350610b3d91610bdf91610a50565b60408701518551610adf916112c4565b6000600160ff1b821061093d5760405162461bcd60e51b81526004018080602001828103825260288152602001806125d86028913960400191505060405180910390fd5b610c3b612212565b610c648360800151610c5e8460200151866060015161147190919063ffffffff16565b90610cb1565b608084015183516040860151610c7f9291610c5e9190611471565b03815260208201516040840151610c9591611471565b82516060850151610ca591611471565b01602082015292915050565b600081610cc457610cc460006004611463565b81670de0b6b3a7640000840281610a7d57fe5b600081610cea57610cea60006004611463565b82610cf757506000610a81565b670de0b6b3a764000083810290848281610d0d57fe5b0514610d1f57610d1f60006005611463565b828181610d2857fe5b05949350505050565b6000806040518060400160405280610d4a878787610b48565b8152602001610d5a878787610a87565b8152509050610da685608001518787604001518860600151878660405180604001604052808c600001516000015160000381526020018c60000151602001518152508b60c00151611484565b9695505050505050565b6000806040518060400160405280610dc9878787610a87565b8152602001610dd9878787610b48565b8152509050610da68560800151878760600151886040015187868a602001518b60c00151611484565b60ff8116610e4f576000610e178686866116ec565b90506e01ed09bead87c0378d8e64000000008313158015610e385750808313155b610e4957610e49600061016561089a565b50610e90565b6000610e5c8686866117a2565b90506e01ed09bead87c0378d8e64000000008313158015610e7d5750808313155b610e8e57610e8e600061016561089a565b505b5050505050565b600082821115610ead57610ead60006001611463565b50900390565b6000828201838110156108df576108df600080611463565b600082820181831215610ee057838112610ee5565b838112155b6108df576108df600080611463565b60c08101516000908190610f089080611449565b90506000610f3f826109b787608001518760a00151610f388a608001518a60800151610cb190919063ffffffff16565b0190610cb1565b9050610f7381610f5c87606001518961147190919063ffffffff16565b6040880151610f6c908b90611471565b0390611316565b92506000610f968660400151610ad988608001518a61147190919063ffffffff16565b610fb58760600151610ad989608001518c61147190919063ffffffff16565b019050610fd9610fd2848760400151610a5090919063ffffffff16565b8290611316565b6040870151940193610fec908890611471565b6060870151610ffc908a90611471565b019050611019610fd2848760600151610a5090919063ffffffff16565b909301979650505050505050565b60008061103686868686611847565b61104287878787611974565b01915061105186868686611aa6565b909101906b012ced32a16a1b11e826288960261b61106f86806112c4565b61107988806112c4565b018161108157fe5b059050600082136110935760006110a2565b6110a2610686610795846108e6565b915094509492505050565b6000816110c0576110c060006004611463565b826110cd57506000610a81565b60008212156110e3578160000391508260000392505b600083131561110d57816001670de0b6b3a76400008502038161110257fe5b056001019050610a81565b600182670de0b6b3a764000085026001018161112557fe5b05039392505050565b60008261113d57506000610a81565b600061114884611bbc565b9050600281670de0b6b3a764000086028161115f57fe5b0482018161116957fe5b049050600281670de0b6b3a764000086028161118157fe5b0482018161118b57fe5b049050600281670de0b6b3a76400008602816111a357fe5b048201816111ad57fe5b049050600281670de0b6b3a76400008602816111c557fe5b048201816111cf57fe5b049050600281670de0b6b3a76400008602816111e757fe5b048201816111f157fe5b049050600281670de0b6b3a764000086028161120957fe5b0482018161121357fe5b049050600281670de0b6b3a764000086028161122b57fe5b0482018161123557fe5b04905060006112448280611d8e565b905061125a6112538386611dca565b8690610eb3565b811115801561127c57506112786112718386611dca565b8690610e97565b8110155b6112bc576040805162461bcd60e51b815260206004820152600c60248201526b17dcdc5c9d0811905253115160a21b604482015290519081900360640190fd5b509392505050565b6000828202818113156112eb57670de0b6b3a7640000600019820105600101915050610a81565b600081121561130c576001670de0b6b3a76400008282010503915050610a81565b5060009392505050565b6000678ac7230489e8000080830590830784820285820284821280159061133e575060008112155b61135b576001678ac7230489e8000080830584018201050361136b565b678ac7230489e800008082058301055b979650505050505050565b6000678ac7230489e8000080830590830784820285820284821380159061139e575060008113155b61135b57678ac7230489e800006000198183058401010560010161136b565b6113cd816223aca960e91b611e1e565b50565b60008282028315806113ea5750828482816113e757fe5b05145b6113fa576113fa60006003611463565b670de0b6b3a764000081610d28565b600082820283158061142357508284828161142057fe5b05145b6114335761143360006003611463565b6b012ced32a16a1b11e826288960261b81610d28565b60006b012ced32a16a1b11e826288960261b838302610a7d565b816108a8576108a881611e7f565b6000670de0b6b3a7640000838302610a7d565b600061148e612212565b6114ab8a610c5e6b012ced32a16a1b11e826288960261b82610cb1565b6b012ced32a16a1b11e826288960261b90810382526114d6908b906114d090826110ad565b906110ad565b6b012ced32a16a1b11e826288960261b0360208201526114f461222c565b85518a036000811315611530576020830151611526906115149087610a50565b610adf8b610ad960008690038f611471565b602083015261155b565b8251611555906115409087610a50565b600101610adf8b6109f060008690038f6112c4565b60208301525b611563612212565b611582866109b78d610ad98f896020015161147190919063ffffffff16565b81528351611590908c6112c4565b602082018190526115aa9060018801906109b7908e6112c4565b60010160208083019182526040805180820190915292516b012ced32a16a1b11e826288960261b90810384529151909103908201526115ee8c8a8f8e8e8c8c611ed2565b6000036040840152602080820151908a0151611615919061160f9080611471565b90611316565b6040840180519190910190819052600012611631576000611644565b61164461068661079585604001516108e6565b6040840181905260208401516000919003131561169f5761169861168482602001516b012ced32a16a1b11e826288960261b610a5090919063ffffffff16565b604085015160208601510390600101611376565b83526116d3565b80516116d0906116bf906b012ced32a16a1b11e826288960261b90610a50565b604085015160208601510390611376565b83525b5050602086015190510191505098975050505050505050565b60c0820151825151602084015151600092839261170a920390610a50565b905060006117378560c0015186600001516020015187602001516020015103610a5090919063ffffffff16565b90506117608261160f8860400151610ad98a60800151896020015161147190919063ffffffff16565b92506117968160008313611783576060880151865161177e916112c4565b61160f565b6060880151602087015161160f91611471565b90920195945050505050565b60c082015182515160208401515160009283926117c0920390610a50565b905060006117ed8560c0015186602001516020015187600001516020015103610a5090919063ffffffff16565b90506118168261160f8860600151610ad98a60800151896020015161147190919063ffffffff16565b92506117968160008313611834576040880151865161177e916112c4565b6040880151602087015161160f91611471565b6000806118818460600151610ad98660400151600202611870898a6112c490919063ffffffff16565b61187a8b80611471565b0390611471565b905060006118928660028902611471565b60608601519091506118a890610ad98382611471565b60408601516118bb90610ad98482611471565b830103915060006118ed8660800151610c5e8860800151610c5e89606001518a6080015161144990919063ffffffff16565b604086015160a087015161190091611449565b019050611939866080015161192687606001518860a0015161144990919063ffffffff16565b60408801516080890151610f3891611449565b60c086015191019061195c906119559061098a81818180611449565b8290610a50565b90506119688382611316565b98975050505050505050565b6060820151600090819061198e906109f0818189806112c4565b60408501516119a3906109f081818b806112c4565b0190506119cc8460600151610ad98660400151600202610ad9898b61147190919063ffffffff16565b6080850151606085015191909203916000916119f19190610c5e908290829080611449565b611a178660800151610c5e8760600151886040015160020261144990919063ffffffff16565b6040860151611a269080611449565b60c08701519101919091019150611a47906119559061098a81818180611449565b9050611a57600083900382611316565b9250611a99611a828560c001516b012ced32a16a1b11e826288960261b610a5090919063ffffffff16565b608087015161160f90610c5e600819870182610cb1565b9092019695505050505050565b60408201516000908190611ac0906109f0818189806112c4565b6060850151611ad5906109f081818b806112c4565b019050611afe84604001516109f086606001516002026109f0898b6112c490919063ffffffff16565b608085810151908501519290910191600091611b2291610c5e908290829080611449565b60a0850151611b319080611449565b019050611b5a8560800151610c5e86608001518760a0015160020261144990919063ffffffff16565b60c0850151910190611b76906119559061098a81818180611449565b9050611b86600083900382611316565b9250611a99611bb18560c001516b012ced32a16a1b11e826288960261b610a5090919063ffffffff16565b600819840190611316565b6000670de0b6b3a76400008210611be957670de0b6b3a7640000611be181840461217a565b1b9050610940565b600a8211611bfc575063bc7c871c610940565b60648211611c1057506402540be400610940565b6103e88211611c25575064075cdd4719610940565b6127108211611c3a575064174876e800610940565b620186a08211611c5057506449a0a4c700610940565b620f42408211611c66575064e8d4a51000610940565b629896808211611c7d57506502e0466fc608610940565b6305f5e1008211611c9557506509184e72a000610940565b633b9aca008211611cad5750651cc2c05dbc53610940565b6402540be4008211611cc65750655af3107a4000610940565b64174876e8008211611ce0575066011f9b83a95b45610940565b64e8d4a510008211611cfa575066038d7ea4c68000610940565b6509184e72a0008211611d155750660b3c13249d90bb610940565b655af3107a40008211611d305750662386f26fc10000610940565b66038d7ea4c680008211611d4c5750667058bf6e27a751610940565b662386f26fc100008211611d69575067016345785d8a0000610940565b67016345785d8a00008211611d875750670463777a4d8c892d610940565b5080610940565b6000828202831580611da8575082848281611da557fe5b04145b611db857611db860006003611463565b670de0b6b3a764000090049392505050565b6000828202831580611de4575082848281611de157fe5b04145b611df457611df460006003611463565b80611e03576000915050610a81565b670de0b6b3a764000060001982010460010191505092915050565b62461bcd60e51b600090815260206004526007602452600a808404818106603090810160081b958390069590950190829004918206850160101b01602363ffffff0060e086901c160160181b0190930160c81b60445260e882901c90606490fd5b62461bcd60e51b6000908152602060045260076024526642414c23000030600a808404818106603090810160081b95839006959095019082900491820690940160101b939093010160c81b604452606490fd5b6000806040518060400160405280611ef3858661144990919063ffffffff16565b81528951602090910190611f0790806112c4565b90529050611f1361222c565b815160208601518651600092611f2e9290916109b791611449565b90506000811315611f68576020830151611f4b9060028a026112c4565b808352611f61906007830190610adf908a6112c4565b8252611f96565b60208a0151611f809060028a0290610ad99080611471565b808352611f93908290610adf908a611471565b82525b855160001315611fde578551611fd490611fb09087610a50565b600003600301610adf896002026109f08f8f600001516112c490919063ffffffff16565b6020830152612015565b855161200f90611fee9087610a50565b610adf89600202610ad98f8f6020015160000361147190919063ffffffff16565b60208301525b602080830151835101835283519087015161203591906109b79080611449565b60070190506120518884602001516112c490919063ffffffff16565b60208301819052612068908290610adf908b6112c4565b6020808401919091528601516120a3906120829087610a50565b610adf8a600202610ad98f8f6020015160000361147190919063ffffffff16565b60408301526120b28b806112c4565b604083015160208401805190910191909101908190526000126120e35760208201516120de908a610cb1565b6120f2565b60208201516120f2908a6110ad565b60208301819052825101808352600012612117578151612112908a610cb1565b612123565b8151612123908a6110ad565b82528251865161213891906109b79080611449565b6007019050600061215a886109f08a87602001516112c490919063ffffffff16565b83519091506121698284611376565b019c9b505050505050505050505050565b6000600160801b82106121925760809190911c906040015b6801000000000000000082106121ad5760409190911c906020015b64010000000082106121c45760209190911c906010015b6201000082106121d95760109190911c906008015b61010082106121ed5760089190911c906004015b601082106122005760049190911c906002015b6004821061094057600101919050565bfe5b604051806040016040528060008152602001600081525090565b60405180606001604052806000815260200160008152602001600081525090565b600082601f83011261225d578081fd5b8135602067ffffffffffffffff8083111561227457fe5b8183026040518382820101818110848211171561228d57fe5b604052848152838101925086840182880185018910156122ab578687fd5b8692505b858310156122cd5780358452928401926001929092019184016122af565b50979650505050505050565b600061012082840312156122eb578081fd5b60405160e0810181811067ffffffffffffffff8211171561230857fe5b60405290508061231884846123cf565b815261232784604085016123cf565b60208201526080830135604082015260a0830135606082015260c0830135608082015260e083013560a082015261010083013560c08201525092915050565b600060a08284031215612377578081fd5b60405160a0810181811067ffffffffffffffff8211171561239457fe5b806040525080915082358152602083013560208201526040830135604082015260608301356060820152608083013560808201525092915050565b6000604082840312156123e0578081fd5b6040516040810181811067ffffffffffffffff821117156123fd57fe5b604052823581526020928301359281019290925250919050565b60008060006101e0848603121561242c578283fd5b833567ffffffffffffffff811115612442578384fd5b61244e8682870161224d565b93505061245e8560208601612366565b915061246d8560c086016122d9565b90509250925092565b600080600080610200858703121561248c578081fd5b843567ffffffffffffffff8111156124a2578182fd5b6124ae8782880161224d565b9450506124be8660208701612366565b92506124cd8660c087016122d9565b939692955092936101e00135925050565b60008060008060008061026087890312156124f7578182fd5b863567ffffffffffffffff81111561250d578283fd5b61251989828a0161224d565b9650506020870135945060408701358015158114612535578283fd5b93506125448860608901612366565b92506125548861010089016122d9565b91506125648861022089016123cf565b90509295509295509295565b600060a08284031215612581578081fd5b6108df8383612366565b6000806101c0838503121561259e578182fd5b6125a88484612366565b91506125b78460a085016122d9565b90509250929050565b918252602082015260400190565b9081526020019056fe53616665436173743a2076616c756520646f65736e27742066697420696e20616e20696e74323536a2646970667358221220804fb1598c9e2781e529bdf51d49821736956efc66957a1710dfd9247f98c11b64736f6c63430007060033","bytecodeSha1":"14a345f16d58f7ee2bf3e75e8215cc84756ab93e","compiler":{"evm_version":"berlin","optimizer":{"enabled":true,"runs":200},"version":"0.7.6+commit.7338295f"},"contractName":"GyroCEMMMath","language":"Solidity","natspec":{"details":"CEMM math library. Pretty much a direct translation of the python version (see `tests/`). We use *signed* values here because some of the intermediate results can be negative (e.g. coordinates of points in the untransformed circle, \"prices\" in the untransformed circle).","kind":"dev","methods":{"calculateInvariantWithError(uint256[],GyroCEMMMath.Params,GyroCEMMMath.DerivedParams)":{"details":"Compute the invariant 'r' corresponding to the given values. The invariant can't be negative, but  we use a signed value to store it because all the other calculations are happening with signed ints, too.  Computes r according to Prop 13 in 2.2.1 Initialization from Real Reserves  orders operations to achieve best precision  Returns an underestimate and a bound on error size.  Enforces anti-overflow limits on balances and the computed invariant in the process. "},"calculatePrice(uint256[],GyroCEMMMath.Params,GyroCEMMMath.DerivedParams,int256)":{"details":"Instantanteous price.  See Prop. 12 in 2.1.6 Computing Prices "},"validateDerivedParamsLimits(GyroCEMMMath.Params,GyroCEMMMath.DerivedParams)":{"details":"Enforces limits and approximate normalization of the derived values. Does NOT check for internal consistency of 'derived' with 'params'. "},"validateParams(GyroCEMMMath.Params)":{"details":"Enforces limits and approximate normalization of the rotation vector. "}},"version":1},"opcodes":"PUSH20 0x0 ADDRESS EQ PUSH1 0x80 PUSH1 0x40 MSTORE PUSH1 0x4 CALLDATASIZE LT PUSH2 0x87 JUMPI PUSH1 0x0 CALLDATALOAD PUSH1 0xE0 SHR DUP1 PUSH4 0xBCE135AA GT PUSH2 0x65 JUMPI DUP1 PUSH4 0xBCE135AA EQ PUSH2 0xDD JUMPI DUP1 PUSH4 0xC8AFB835 EQ PUSH2 0xF0 JUMPI DUP1 PUSH4 0xDDCD897C EQ PUSH2 0x103 JUMPI DUP1 PUSH4 0xEAF17AEF EQ PUSH2 0x116 JUMPI PUSH2 0x87 JUMP JUMPDEST DUP1 PUSH4 0xECE9D86 EQ PUSH2 0x8C JUMPI DUP1 PUSH4 0x371C08F1 EQ PUSH2 0xA1 JUMPI DUP1 PUSH4 0xB10BC2CD EQ PUSH2 0xCA JUMPI JUMPDEST PUSH1 0x0 DUP1 REVERT JUMPDEST PUSH2 0x9F PUSH2 0x9A CALLDATASIZE PUSH1 0x4 PUSH2 0x2570 JUMP JUMPDEST PUSH2 0x137 JUMP JUMPDEST STOP JUMPDEST PUSH2 0xB4 PUSH2 0xAF CALLDATASIZE PUSH1 0x4 PUSH2 0x2417 JUMP JUMPDEST PUSH2 0x214 JUMP JUMPDEST PUSH1 0x40 MLOAD PUSH2 0xC1 SWAP2 SWAP1 PUSH2 0x25CE JUMP JUMPDEST PUSH1 0x40 MLOAD DUP1 SWAP2 SUB SWAP1 RETURN JUMPDEST PUSH2 0x9F PUSH2 0xD8 CALLDATASIZE PUSH1 0x4 PUSH2 0x258B JUMP JUMPDEST PUSH2 0x237 JUMP JUMPDEST PUSH2 0xB4 PUSH2 0xEB CALLDATASIZE PUSH1 0x4 PUSH2 0x2476 JUMP JUMPDEST PUSH2 0x3FA JUMP JUMPDEST PUSH2 0xB4 PUSH2 0xFE CALLDATASIZE PUSH1 0x4 PUSH2 0x24DE JUMP JUMPDEST PUSH2 0x556 JUMP JUMPDEST PUSH2 0xB4 PUSH2 0x111 CALLDATASIZE PUSH1 0x4 PUSH2 0x24DE JUMP JUMPDEST PUSH2 0x62C JUMP JUMPDEST PUSH2 0x129 PUSH2 0x124 CALLDATASIZE PUSH1 0x4 PUSH2 0x2417 JUMP JUMPDEST PUSH2 0x6DF JUMP JUMPDEST PUSH1 0x40 MLOAD PUSH2 0xC1 SWAP3 SWAP2 SWAP1 PUSH2 0x25C0 JUMP JUMPDEST PUSH2 0x163 DUP2 PUSH1 0x60 ADD MLOAD PUSH1 0x0 SGT ISZERO DUP1 ISZERO PUSH2 0x15B JUMPI POP PUSH8 0xDE0B6B3A7640000 DUP3 PUSH1 0x60 ADD MLOAD SGT ISZERO JUMPDEST PUSH2 0x163 PUSH2 0x89A JUMP JUMPDEST PUSH2 0x18E DUP2 PUSH1 0x40 ADD MLOAD PUSH1 0x0 SGT ISZERO DUP1 ISZERO PUSH2 0x15B JUMPI POP PUSH8 0xDE0B6B3A7640000 DUP3 PUSH1 0x40 ADD MLOAD SGT ISZERO PUSH2 0x163 PUSH2 0x89A JUMP JUMPDEST PUSH1 0x40 DUP1 MLOAD DUP1 DUP3 ADD DUP3 MSTORE PUSH1 0x60 DUP4 ADD MLOAD DUP2 MSTORE SWAP1 DUP3 ADD MLOAD PUSH1 0x20 DUP3 ADD MSTORE PUSH1 0x0 PUSH2 0x1B3 DUP3 DUP1 PUSH2 0x8AC JUMP JUMPDEST SWAP1 POP PUSH2 0x1E0 PUSH8 0xDE0B6B3A763FC18 DUP3 SLT DUP1 ISZERO SWAP1 PUSH2 0x1D8 JUMPI POP PUSH8 0xDE0B6B3A76403E8 DUP3 SGT ISZERO JUMPDEST PUSH2 0x164 PUSH2 0x89A JUMP JUMPDEST PUSH2 0x20F DUP4 PUSH1 0x80 ADD MLOAD PUSH1 0x0 SGT ISZERO DUP1 ISZERO PUSH2 0x207 JUMPI POP PUSH11 0x52B7D2DCC80CD2E4000000 DUP5 PUSH1 0x80 ADD MLOAD SGT ISZERO JUMPDEST PUSH2 0x168 PUSH2 0x89A JUMP JUMPDEST POP POP POP JUMP JUMPDEST PUSH1 0x0 DUP1 PUSH2 0x222 DUP6 DUP6 DUP6 PUSH2 0x6DF JUMP JUMPDEST POP SWAP1 POP PUSH2 0x22E DUP2 PUSH2 0x8E6 JUMP JUMPDEST SWAP6 SWAP5 POP POP POP POP POP JUMP JUMPDEST DUP1 MLOAD PUSH1 0x0 SWAP1 PUSH2 0x246 SWAP1 DUP1 PUSH2 0x945 JUMP JUMPDEST SWAP1 POP PUSH2 0x283 PUSH16 0x4B3B4CA85A86AF4D06C240F509800000 DUP3 SLT DUP1 ISZERO SWAP1 PUSH2 0x27B JUMPI POP PUSH16 0x4B3B4CA85A86D9A70C52038AF6800000 DUP3 SGT ISZERO JUMPDEST PUSH2 0x166 PUSH2 0x89A JUMP JUMPDEST PUSH1 0x20 DUP3 ADD MLOAD PUSH2 0x292 SWAP1 DUP1 PUSH2 0x945 JUMP JUMPDEST SWAP1 POP PUSH2 0x2CE PUSH16 0x4B3B4CA85A86AF4D06C240F509800000 DUP3 SLT DUP1 ISZERO SWAP1 PUSH2 0x27B JUMPI POP PUSH16 0x4B3B4CA85A86D9A70C52038AF6800000 DUP3 SGT ISZERO PUSH2 0x166 PUSH2 0x89A JUMP JUMPDEST PUSH2 0x2F0 PUSH12 0x12CED32A16A1B11E8262889 PUSH1 0x26 SHL DUP4 PUSH1 0x40 ADD MLOAD SGT ISZERO PUSH2 0x169 PUSH2 0x89A JUMP JUMPDEST PUSH2 0x312 PUSH12 0x12CED32A16A1B11E8262889 PUSH1 0x26 SHL DUP4 PUSH1 0x60 ADD MLOAD SGT ISZERO PUSH2 0x169 PUSH2 0x89A JUMP JUMPDEST PUSH2 0x334 PUSH12 0x12CED32A16A1B11E8262889 PUSH1 0x26 SHL DUP4 PUSH1 0x80 ADD MLOAD SGT ISZERO PUSH2 0x169 PUSH2 0x89A JUMP JUMPDEST PUSH2 0x356 PUSH12 0x12CED32A16A1B11E8262889 PUSH1 0x26 SHL DUP4 PUSH1 0xA0 ADD MLOAD SGT ISZERO PUSH2 0x169 PUSH2 0x89A JUMP JUMPDEST PUSH1 0xC0 DUP3 ADD MLOAD PUSH2 0x39A SWAP1 PUSH16 0x4B3B4CA85A86AF4D06C240F509800000 SGT DUP1 ISZERO SWAP1 PUSH2 0x392 JUMPI POP PUSH1 0xC0 DUP4 ADD MLOAD PUSH16 0x4B3B4CA85A86D9A70C52038AF6800000 SLT ISZERO JUMPDEST PUSH2 0x16C PUSH2 0x89A JUMP JUMPDEST PUSH1 0x0 PUSH2 0x3D1 PUSH12 0x12CED32A16A1B11E8262889 PUSH1 0x26 SHL PUSH2 0x3B9 DUP7 DUP7 PUSH2 0x972 JUMP JUMPDEST PUSH12 0x12CED32A16A1B11E8262889 PUSH1 0x26 SHL SWAP2 SWAP1 SUB PUSH2 0xA50 JUMP JUMPDEST SWAP1 POP PUSH2 0x3F4 PUSH18 0x72CB5BD86321E38CB6CE6682E80000000000 DUP3 SGT ISZERO PUSH2 0x16A PUSH2 0x89A JUMP JUMPDEST POP POP POP POP JUMP JUMPDEST PUSH1 0x0 DUP1 PUSH1 0x40 MLOAD DUP1 PUSH1 0x40 ADD PUSH1 0x40 MSTORE DUP1 DUP5 DUP2 MSTORE PUSH1 0x20 ADD DUP5 DUP2 MSTORE POP SWAP1 POP PUSH1 0x0 PUSH1 0x40 MLOAD DUP1 PUSH1 0x40 ADD PUSH1 0x40 MSTORE DUP1 PUSH2 0x42C DUP9 DUP9 DUP7 PUSH2 0xA87 JUMP JUMPDEST DUP2 MSTORE PUSH1 0x20 ADD PUSH2 0x43C DUP9 DUP9 DUP7 PUSH2 0xB48 JUMP JUMPDEST DUP2 MSTORE POP SWAP1 POP PUSH1 0x0 PUSH1 0x40 MLOAD DUP1 PUSH1 0x40 ADD PUSH1 0x40 MSTORE DUP1 DUP4 PUSH1 0x0 ADD MLOAD PUSH2 0x470 DUP12 PUSH1 0x0 DUP2 MLOAD DUP2 LT PUSH2 0x463 JUMPI INVALID JUMPDEST PUSH1 0x20 MUL PUSH1 0x20 ADD ADD MLOAD PUSH2 0xBEF JUMP JUMPDEST SUB DUP2 MSTORE PUSH1 0x20 ADD DUP4 PUSH1 0x20 ADD MLOAD PUSH2 0x48B DUP12 PUSH1 0x1 DUP2 MLOAD DUP2 LT PUSH2 0x463 JUMPI INVALID JUMPDEST SUB SWAP1 MSTORE SWAP1 POP PUSH2 0x49A DUP8 DUP3 PUSH2 0xC33 JUMP JUMPDEST SWAP1 POP PUSH1 0x0 PUSH1 0x40 MLOAD DUP1 PUSH1 0x40 ADD PUSH1 0x40 MSTORE DUP1 PUSH2 0x4C4 DUP5 PUSH1 0x20 ADD MLOAD DUP6 PUSH1 0x0 ADD MLOAD PUSH2 0xCB1 SWAP1 SWAP2 SWAP1 PUSH4 0xFFFFFFFF AND JUMP JUMPDEST DUP2 MSTORE PUSH1 0x20 ADD PUSH8 0xDE0B6B3A7640000 DUP2 MSTORE POP SWAP1 POP PUSH1 0x0 PUSH2 0x509 DUP3 PUSH2 0x504 DUP12 PUSH1 0x40 MLOAD DUP1 PUSH1 0x40 ADD PUSH1 0x40 MSTORE DUP1 PUSH8 0xDE0B6B3A7640000 DUP2 MSTORE PUSH1 0x20 ADD PUSH1 0x0 DUP2 MSTORE POP PUSH2 0xC33 JUMP JUMPDEST PUSH2 0x8AC JUMP JUMPDEST SWAP1 POP PUSH2 0x548 PUSH2 0x543 PUSH2 0x53C DUP5 PUSH2 0x504 DUP14 PUSH1 0x40 MLOAD DUP1 PUSH1 0x40 ADD PUSH1 0x40 MSTORE DUP1 PUSH1 0x0 DUP2 MSTORE PUSH1 0x20 ADD PUSH8 0xDE0B6B3A7640000 DUP2 MSTORE POP PUSH2 0xC33 JUMP JUMPDEST DUP4 SWAP1 PUSH2 0xCD7 JUMP JUMPDEST PUSH2 0x8E6 JUMP JUMPDEST SWAP11 SWAP10 POP POP POP POP POP POP POP POP POP POP JUMP JUMPDEST PUSH1 0x0 PUSH2 0x2210 PUSH1 0x0 DUP1 DUP8 ISZERO PUSH2 0x575 JUMPI POP PUSH2 0xD31 SWAP2 POP PUSH1 0x0 SWAP1 POP PUSH1 0x1 PUSH2 0x582 JUMP JUMPDEST POP PUSH2 0xDB0 SWAP2 POP PUSH1 0x1 SWAP1 POP PUSH1 0x0 JUMPDEST DUP10 DUP2 PUSH1 0xFF AND DUP2 MLOAD DUP2 LT PUSH2 0x591 JUMPI INVALID JUMPDEST PUSH1 0x20 MUL PUSH1 0x20 ADD ADD MLOAD DUP10 GT ISZERO PUSH2 0x5AD JUMPI PUSH2 0x5AD PUSH1 0x0 PUSH2 0x165 PUSH2 0x89A JUMP JUMPDEST PUSH1 0x0 PUSH2 0x5D0 DUP11 DUP13 DUP5 PUSH1 0xFF AND DUP2 MLOAD DUP2 LT PUSH2 0x5C2 JUMPI INVALID JUMPDEST PUSH1 0x20 MUL PUSH1 0x20 ADD ADD MLOAD SUB PUSH2 0xBEF JUMP JUMPDEST SWAP1 POP PUSH1 0x0 PUSH2 0x5E4 DUP3 DUP11 DUP11 DUP11 DUP10 PUSH4 0xFFFFFFFF AND JUMP JUMPDEST SWAP1 POP PUSH2 0x5F3 DUP10 DUP10 DUP10 DUP5 DUP9 PUSH2 0xE02 JUMP JUMPDEST PUSH2 0x61C DUP13 DUP6 PUSH1 0xFF AND DUP2 MLOAD DUP2 LT PUSH2 0x605 JUMPI INVALID JUMPDEST PUSH1 0x20 MUL PUSH1 0x20 ADD ADD MLOAD PUSH2 0x616 DUP4 PUSH2 0x8E6 JUMP JUMPDEST SWAP1 PUSH2 0xE97 JUMP JUMPDEST SWAP13 SWAP12 POP POP POP POP POP POP POP POP POP POP POP POP JUMP JUMPDEST PUSH1 0x0 PUSH2 0x2210 PUSH1 0x0 DUP1 DUP8 ISZERO PUSH2 0x64B JUMPI POP PUSH2 0xDB0 SWAP2 POP PUSH1 0x0 SWAP1 POP PUSH1 0x1 PUSH2 0x658 JUMP JUMPDEST POP PUSH2 0xD31 SWAP2 POP PUSH1 0x1 SWAP1 POP PUSH1 0x0 JUMPDEST PUSH1 0x0 PUSH2 0x68B PUSH2 0x686 DUP12 DUP14 DUP7 PUSH1 0xFF AND DUP2 MLOAD DUP2 LT PUSH2 0x670 JUMPI INVALID JUMPDEST PUSH1 0x20 MUL PUSH1 0x20 ADD ADD MLOAD PUSH2 0xEB3 SWAP1 SWAP2 SWAP1 PUSH4 0xFFFFFFFF AND JUMP JUMPDEST PUSH2 0xBEF JUMP JUMPDEST SWAP1 POP PUSH2 0x69A DUP9 DUP9 DUP9 DUP5 DUP8 PUSH2 0xE02 JUMP JUMPDEST PUSH1 0x0 PUSH2 0x6AC DUP3 DUP11 DUP11 DUP11 DUP10 PUSH4 0xFFFFFFFF AND JUMP JUMPDEST SWAP1 POP PUSH2 0x61C PUSH2 0x6BA DUP3 PUSH2 0x8E6 JUMP JUMPDEST DUP14 DUP6 PUSH1 0xFF AND DUP2 MLOAD DUP2 LT PUSH2 0x6C9 JUMPI INVALID JUMPDEST PUSH1 0x20 MUL PUSH1 0x20 ADD ADD MLOAD PUSH2 0xE97 SWAP1 SWAP2 SWAP1 PUSH4 0xFFFFFFFF AND JUMP JUMPDEST PUSH1 0x0 DUP1 PUSH1 0x0 DUP1 PUSH2 0x6F5 DUP8 PUSH1 0x0 DUP2 MLOAD DUP2 LT PUSH2 0x463 JUMPI INVALID JUMPDEST PUSH2 0x705 DUP9 PUSH1 0x1 DUP2 MLOAD DUP2 LT PUSH2 0x463 JUMPI INVALID JUMPDEST SWAP1 SWAP3 POP SWAP1 POP PUSH2 0x731 PUSH15 0x1ED09BEAD87C0378D8E6400000000 PUSH2 0x727 DUP5 DUP5 PUSH2 0xECB JUMP JUMPDEST SGT ISZERO PUSH2 0x16B PUSH2 0x89A JUMP JUMPDEST PUSH1 0x0 PUSH2 0x73F DUP4 DUP4 DUP10 DUP10 PUSH2 0xEF4 JUMP JUMPDEST SWAP1 POP PUSH1 0x0 DUP1 PUSH2 0x750 DUP6 DUP6 DUP12 DUP12 PUSH2 0x1027 JUMP JUMPDEST SWAP2 POP SWAP2 POP PUSH1 0x0 DUP3 SGT ISZERO PUSH2 0x774 JUMPI PUSH2 0x76D PUSH1 0x1 DUP3 ADD PUSH1 0x2 DUP5 MUL PUSH2 0x10AD JUMP JUMPDEST SWAP1 POP PUSH2 0x79F JUMP JUMPDEST PUSH1 0x0 DUP2 SGT PUSH2 0x786 JUMPI PUSH4 0x3B9ACA00 PUSH2 0x79C JUMP JUMPDEST PUSH2 0x79C PUSH2 0x686 PUSH2 0x795 DUP4 PUSH2 0x8E6 JUMP JUMPDEST PUSH1 0x5 PUSH2 0x112E JUMP JUMPDEST SWAP1 POP JUMPDEST DUP1 PUSH12 0x12CED32A16A1B11E8262889 PUSH1 0x26 SHL PUSH2 0x7C9 DUP7 DUP9 ADD DUP13 PUSH1 0x80 ADD MLOAD PUSH2 0x12C4 SWAP1 SWAP2 SWAP1 PUSH4 0xFFFFFFFF AND JUMP JUMPDEST DUP2 PUSH2 0x7D0 JUMPI INVALID JUMPDEST SDIV ADD PUSH1 0x1 ADD PUSH1 0x14 MUL SWAP1 POP PUSH1 0x0 PUSH2 0x7F9 PUSH12 0x12CED32A16A1B11E8262889 PUSH1 0x26 SHL PUSH2 0x3B9 DUP13 DUP13 PUSH2 0x972 JUMP JUMPDEST SWAP1 POP PUSH1 0x0 PUSH2 0x80C DUP6 DUP6 ADD DUP5 SWAP1 SUB DUP4 PUSH2 0x1316 JUMP JUMPDEST SWAP1 POP PUSH2 0x818 DUP4 DUP4 PUSH2 0x1376 JUMP JUMPDEST PUSH1 0x80 DUP13 ADD MLOAD SWAP1 SWAP4 POP PUSH12 0x12CED32A16A1B11E8262889 PUSH1 0x26 SHL SWAP1 PUSH15 0xC097CE7BC90715B34B9F1000000000 SWAP1 DUP1 MUL SDIV PUSH2 0x84F DUP4 DUP6 PUSH2 0x1376 JUMP JUMPDEST MUL PUSH1 0x28 MUL DUP2 PUSH2 0x85A JUMPI INVALID JUMPDEST SDIV DUP4 ADD PUSH1 0x1 ADD SWAP3 POP PUSH2 0x889 PUSH16 0x1691CA32818ED48B02DCA3E000000000 PUSH2 0x727 DUP6 DUP5 PUSH2 0xECB SWAP1 SWAP2 SWAP1 PUSH4 0xFFFFFFFF AND JUMP JUMPDEST SWAP12 SWAP2 SWAP11 POP SWAP1 SWAP9 POP POP POP POP POP POP POP POP POP JUMP JUMPDEST DUP2 PUSH2 0x8A8 JUMPI PUSH2 0x8A8 DUP2 PUSH2 0x13BD JUMP JUMPDEST POP POP JUMP JUMPDEST PUSH1 0x0 PUSH2 0x8DF PUSH2 0x8CC DUP4 PUSH1 0x20 ADD MLOAD DUP6 PUSH1 0x20 ADD MLOAD PUSH2 0x13D0 SWAP1 SWAP2 SWAP1 PUSH4 0xFFFFFFFF AND JUMP JUMPDEST DUP4 MLOAD DUP6 MLOAD PUSH2 0x8D9 SWAP2 PUSH2 0x13D0 JUMP JUMPDEST SWAP1 PUSH2 0xECB JUMP JUMPDEST SWAP4 SWAP3 POP POP POP JUMP JUMPDEST PUSH1 0x0 DUP1 DUP3 SLT ISZERO PUSH2 0x93D JUMPI PUSH1 0x40 DUP1 MLOAD PUSH3 0x461BCD PUSH1 0xE5 SHL DUP2 MSTORE PUSH1 0x20 PUSH1 0x4 DUP3 ADD DUP2 SWAP1 MSTORE PUSH1 0x24 DUP3 ADD MSTORE PUSH32 0x53616665436173743A2076616C7565206D75737420626520706F736974697665 PUSH1 0x44 DUP3 ADD MSTORE SWAP1 MLOAD SWAP1 DUP2 SWAP1 SUB PUSH1 0x64 ADD SWAP1 REVERT JUMPDEST POP DUP1 JUMPDEST SWAP2 SWAP1 POP JUMP JUMPDEST PUSH1 0x0 PUSH2 0x8DF PUSH2 0x965 DUP4 PUSH1 0x20 ADD MLOAD DUP6 PUSH1 0x20 ADD MLOAD PUSH2 0x1409 SWAP1 SWAP2 SWAP1 PUSH4 0xFFFFFFFF AND JUMP JUMPDEST DUP4 MLOAD DUP6 MLOAD PUSH2 0x8D9 SWAP2 PUSH2 0x1409 JUMP JUMPDEST PUSH1 0xC0 DUP2 ADD MLOAD PUSH1 0x0 SWAP1 DUP2 SWAP1 PUSH2 0x990 SWAP1 PUSH2 0x98A DUP2 DUP1 PUSH2 0x1449 JUMP JUMPDEST SWAP1 PUSH2 0x1449 JUMP JUMPDEST SWAP1 POP PUSH2 0x9C8 PUSH2 0x9BD DUP3 PUSH2 0x9B7 DUP7 PUSH1 0x60 ADD MLOAD DUP8 PUSH1 0x40 ADD MLOAD PUSH1 0x2 MUL PUSH2 0x1449 SWAP1 SWAP2 SWAP1 PUSH4 0xFFFFFFFF AND JUMP JUMPDEST SWAP1 PUSH2 0xA50 JUMP JUMPDEST PUSH1 0x80 DUP7 ADD MLOAD SWAP1 PUSH2 0x12C4 JUMP JUMPDEST PUSH1 0x80 DUP6 ADD MLOAD PUSH1 0x40 DUP6 ADD MLOAD SWAP2 SWAP4 POP PUSH2 0x9F6 SWAP2 PUSH2 0x9F0 SWAP1 DUP3 SWAP1 DUP3 SWAP1 DUP7 SWAP1 PUSH2 0x9B7 SWAP1 PUSH1 0x1 ADD DUP1 PUSH2 0x1449 JUMP JUMPDEST SWAP1 PUSH2 0x12C4 JUMP JUMPDEST PUSH1 0x60 DUP5 ADD MLOAD SWAP3 ADD SWAP2 PUSH2 0xA0E SWAP1 DUP3 SWAP1 PUSH2 0x9B7 SWAP1 DUP1 PUSH2 0x1449 JUMP JUMPDEST DUP3 ADD SWAP2 POP PUSH1 0x0 DUP4 PUSH1 0xA0 ADD MLOAD PUSH2 0xA34 DUP7 PUSH1 0x80 ADD MLOAD DUP7 PUSH1 0x80 ADD MLOAD PUSH2 0x10AD SWAP1 SWAP2 SWAP1 PUSH4 0xFFFFFFFF AND JUMP JUMPDEST ADD SWAP1 POP PUSH2 0xA45 DUP3 PUSH2 0x9B7 DUP4 DUP1 PUSH2 0x1449 JUMP JUMPDEST SWAP1 SWAP3 ADD SWAP5 SWAP4 POP POP POP POP JUMP JUMPDEST PUSH1 0x0 DUP2 PUSH2 0xA63 JUMPI PUSH2 0xA63 PUSH1 0x0 PUSH1 0x4 PUSH2 0x1463 JUMP JUMPDEST DUP2 PUSH12 0x12CED32A16A1B11E8262889 PUSH1 0x26 SHL DUP5 MUL DUP2 PUSH2 0xA7D JUMPI INVALID JUMPDEST SDIV SWAP1 POP JUMPDEST SWAP3 SWAP2 POP POP JUMP JUMPDEST PUSH1 0xC0 DUP3 ADD MLOAD PUSH1 0x20 DUP4 ADD MLOAD MLOAD PUSH1 0x0 SWAP2 DUP3 SWAP2 PUSH2 0xAA0 SWAP2 PUSH2 0xA50 JUMP JUMPDEST SWAP1 POP PUSH1 0x0 DUP5 PUSH1 0x20 ADD MLOAD PUSH1 0x0 ADD MLOAD SGT PUSH2 0xAEA JUMPI PUSH2 0xAE5 DUP2 PUSH2 0xADF DUP8 PUSH1 0x40 ADD MLOAD PUSH2 0xAD9 DUP10 PUSH1 0x80 ADD MLOAD DUP9 PUSH1 0x20 ADD MLOAD PUSH2 0x1471 SWAP1 SWAP2 SWAP1 PUSH4 0xFFFFFFFF AND JUMP JUMPDEST SWAP1 PUSH2 0x1471 JUMP JUMPDEST SWAP1 PUSH2 0x1376 JUMP JUMPDEST PUSH2 0xB09 JUMP JUMPDEST PUSH1 0x40 DUP6 ADD MLOAD PUSH1 0x80 DUP7 ADD MLOAD DUP5 MLOAD PUSH2 0xB09 SWAP3 DUP5 SWAP3 PUSH2 0xADF SWAP3 PUSH2 0x9F0 SWAP2 PUSH2 0x12C4 JUMP JUMPDEST SWAP2 POP PUSH2 0xB3D PUSH2 0xB2D DUP6 PUSH1 0xC0 ADD MLOAD DUP7 PUSH1 0x20 ADD MLOAD PUSH1 0x20 ADD MLOAD PUSH2 0xA50 SWAP1 SWAP2 SWAP1 PUSH4 0xFFFFFFFF AND JUMP JUMPDEST PUSH1 0x60 DUP8 ADD MLOAD DUP6 MLOAD PUSH2 0xADF SWAP2 PUSH2 0x12C4 JUMP JUMPDEST SWAP1 SWAP2 ADD SWAP5 SWAP4 POP POP POP POP JUMP JUMPDEST PUSH1 0xC0 DUP3 ADD MLOAD DUP3 MLOAD MLOAD PUSH1 0x0 SWAP2 DUP3 SWAP2 PUSH2 0xB5E SWAP2 PUSH2 0xA50 JUMP JUMPDEST DUP5 MLOAD MLOAD SWAP1 SWAP2 POP PUSH1 0x0 SGT PUSH2 0xB9A JUMPI PUSH2 0xB95 DUP2 PUSH2 0xADF DUP8 PUSH1 0x60 ADD MLOAD PUSH2 0xAD9 DUP10 PUSH1 0x80 ADD MLOAD DUP9 PUSH1 0x20 ADD MLOAD PUSH1 0x0 SUB PUSH2 0x1471 SWAP1 SWAP2 SWAP1 PUSH4 0xFFFFFFFF AND JUMP JUMPDEST PUSH2 0xBC4 JUMP JUMPDEST PUSH2 0xBC4 DUP2 PUSH1 0x0 SUB PUSH2 0xADF DUP8 PUSH1 0x60 ADD MLOAD PUSH2 0x9F0 DUP10 PUSH1 0x80 ADD MLOAD DUP9 PUSH1 0x0 ADD MLOAD PUSH2 0x12C4 SWAP1 SWAP2 SWAP1 PUSH4 0xFFFFFFFF AND JUMP JUMPDEST PUSH1 0xC0 DUP6 ADD MLOAD DUP6 MLOAD PUSH1 0x20 ADD MLOAD SWAP2 SWAP4 POP PUSH2 0xB3D SWAP2 PUSH2 0xBDF SWAP2 PUSH2 0xA50 JUMP JUMPDEST PUSH1 0x40 DUP8 ADD MLOAD DUP6 MLOAD PUSH2 0xADF SWAP2 PUSH2 0x12C4 JUMP JUMPDEST PUSH1 0x0 PUSH1 0x1 PUSH1 0xFF SHL DUP3 LT PUSH2 0x93D JUMPI PUSH1 0x40 MLOAD PUSH3 0x461BCD PUSH1 0xE5 SHL DUP2 MSTORE PUSH1 0x4 ADD DUP1 DUP1 PUSH1 0x20 ADD DUP3 DUP2 SUB DUP3 MSTORE PUSH1 0x28 DUP2 MSTORE PUSH1 0x20 ADD DUP1 PUSH2 0x25D8 PUSH1 0x28 SWAP2 CODECOPY PUSH1 0x40 ADD SWAP2 POP POP PUSH1 0x40 MLOAD DUP1 SWAP2 SUB SWAP1 REVERT JUMPDEST PUSH2 0xC3B PUSH2 0x2212 JUMP JUMPDEST PUSH2 0xC64 DUP4 PUSH1 0x80 ADD MLOAD PUSH2 0xC5E DUP5 PUSH1 0x20 ADD MLOAD DUP7 PUSH1 0x60 ADD MLOAD PUSH2 0x1471 SWAP1 SWAP2 SWAP1 PUSH4 0xFFFFFFFF AND JUMP JUMPDEST SWAP1 PUSH2 0xCB1 JUMP JUMPDEST PUSH1 0x80 DUP5 ADD MLOAD DUP4 MLOAD PUSH1 0x40 DUP7 ADD MLOAD PUSH2 0xC7F SWAP3 SWAP2 PUSH2 0xC5E SWAP2 SWAP1 PUSH2 0x1471 JUMP JUMPDEST SUB DUP2 MSTORE PUSH1 0x20 DUP3 ADD MLOAD PUSH1 0x40 DUP5 ADD MLOAD PUSH2 0xC95 SWAP2 PUSH2 0x1471 JUMP JUMPDEST DUP3 MLOAD PUSH1 0x60 DUP6 ADD MLOAD PUSH2 0xCA5 SWAP2 PUSH2 0x1471 JUMP JUMPDEST ADD PUSH1 0x20 DUP3 ADD MSTORE SWAP3 SWAP2 POP POP JUMP JUMPDEST PUSH1 0x0 DUP2 PUSH2 0xCC4 JUMPI PUSH2 0xCC4 PUSH1 0x0 PUSH1 0x4 PUSH2 0x1463 JUMP JUMPDEST DUP2 PUSH8 0xDE0B6B3A7640000 DUP5 MUL DUP2 PUSH2 0xA7D JUMPI INVALID JUMPDEST PUSH1 0x0 DUP2 PUSH2 0xCEA JUMPI PUSH2 0xCEA PUSH1 0x0 PUSH1 0x4 PUSH2 0x1463 JUMP JUMPDEST DUP3 PUSH2 0xCF7 JUMPI POP PUSH1 0x0 PUSH2 0xA81 JUMP JUMPDEST PUSH8 0xDE0B6B3A7640000 DUP4 DUP2 MUL SWAP1 DUP5 DUP3 DUP2 PUSH2 0xD0D JUMPI INVALID JUMPDEST SDIV EQ PUSH2 0xD1F JUMPI PUSH2 0xD1F PUSH1 0x0 PUSH1 0x5 PUSH2 0x1463 JUMP JUMPDEST DUP3 DUP2 DUP2 PUSH2 0xD28 JUMPI INVALID JUMPDEST SDIV SWAP5 SWAP4 POP POP POP POP JUMP JUMPDEST PUSH1 0x0 DUP1 PUSH1 0x40 MLOAD DUP1 PUSH1 0x40 ADD PUSH1 0x40 MSTORE DUP1 PUSH2 0xD4A DUP8 DUP8 DUP8 PUSH2 0xB48 JUMP JUMPDEST DUP2 MSTORE PUSH1 0x20 ADD PUSH2 0xD5A DUP8 DUP8 DUP8 PUSH2 0xA87 JUMP JUMPDEST DUP2 MSTORE POP SWAP1 POP PUSH2 0xDA6 DUP6 PUSH1 0x80 ADD MLOAD DUP8 DUP8 PUSH1 0x40 ADD MLOAD DUP9 PUSH1 0x60 ADD MLOAD DUP8 DUP7 PUSH1 0x40 MLOAD DUP1 PUSH1 0x40 ADD PUSH1 0x40 MSTORE DUP1 DUP13 PUSH1 0x0 ADD MLOAD PUSH1 0x0 ADD MLOAD PUSH1 0x0 SUB DUP2 MSTORE PUSH1 0x20 ADD DUP13 PUSH1 0x0 ADD MLOAD PUSH1 0x20 ADD MLOAD DUP2 MSTORE POP DUP12 PUSH1 0xC0 ADD MLOAD PUSH2 0x1484 JUMP JUMPDEST SWAP7 SWAP6 POP POP POP POP POP POP JUMP JUMPDEST PUSH1 0x0 DUP1 PUSH1 0x40 MLOAD DUP1 PUSH1 0x40 ADD PUSH1 0x40 MSTORE DUP1 PUSH2 0xDC9 DUP8 DUP8 DUP8 PUSH2 0xA87 JUMP JUMPDEST DUP2 MSTORE PUSH1 0x20 ADD PUSH2 0xDD9 DUP8 DUP8 DUP8 PUSH2 0xB48 JUMP JUMPDEST DUP2 MSTORE POP SWAP1 POP PUSH2 0xDA6 DUP6 PUSH1 0x80 ADD MLOAD DUP8 DUP8 PUSH1 0x60 ADD MLOAD DUP9 PUSH1 0x40 ADD MLOAD DUP8 DUP7 DUP11 PUSH1 0x20 ADD MLOAD DUP12 PUSH1 0xC0 ADD MLOAD PUSH2 0x1484 JUMP JUMPDEST PUSH1 0xFF DUP2 AND PUSH2 0xE4F JUMPI PUSH1 0x0 PUSH2 0xE17 DUP7 DUP7 DUP7 PUSH2 0x16EC JUMP JUMPDEST SWAP1 POP PUSH15 0x1ED09BEAD87C0378D8E6400000000 DUP4 SGT ISZERO DUP1 ISZERO PUSH2 0xE38 JUMPI POP DUP1 DUP4 SGT ISZERO JUMPDEST PUSH2 0xE49 JUMPI PUSH2 0xE49 PUSH1 0x0 PUSH2 0x165 PUSH2 0x89A JUMP JUMPDEST POP PUSH2 0xE90 JUMP JUMPDEST PUSH1 0x0 PUSH2 0xE5C DUP7 DUP7 DUP7 PUSH2 0x17A2 JUMP JUMPDEST SWAP1 POP PUSH15 0x1ED09BEAD87C0378D8E6400000000 DUP4 SGT ISZERO DUP1 ISZERO PUSH2 0xE7D JUMPI POP DUP1 DUP4 SGT ISZERO JUMPDEST PUSH2 0xE8E JUMPI PUSH2 0xE8E PUSH1 0x0 PUSH2 0x165 PUSH2 0x89A JUMP JUMPDEST POP JUMPDEST POP POP POP POP POP JUMP JUMPDEST PUSH1 0x0 DUP3 DUP3 GT ISZERO PUSH2 0xEAD JUMPI PUSH2 0xEAD PUSH1 0x0 PUSH1 0x1 PUSH2 0x1463 JUMP JUMPDEST POP SWAP1 SUB SWAP1 JUMP JUMPDEST PUSH1 0x0 DUP3 DUP3 ADD DUP4 DUP2 LT ISZERO PUSH2 0x8DF JUMPI PUSH2 0x8DF PUSH1 0x0 DUP1 PUSH2 0x1463 JUMP JUMPDEST PUSH1 0x0 DUP3 DUP3 ADD DUP2 DUP4 SLT ISZERO PUSH2 0xEE0 JUMPI DUP4 DUP2 SLT PUSH2 0xEE5 JUMP JUMPDEST DUP4 DUP2 SLT ISZERO JUMPDEST PUSH2 0x8DF JUMPI PUSH2 0x8DF PUSH1 0x0 DUP1 PUSH2 0x1463 JUMP JUMPDEST PUSH1 0xC0 DUP2 ADD MLOAD PUSH1 0x0 SWAP1 DUP2 SWAP1 PUSH2 0xF08 SWAP1 DUP1 PUSH2 0x1449 JUMP JUMPDEST SWAP1 POP PUSH1 0x0 PUSH2 0xF3F DUP3 PUSH2 0x9B7 DUP8 PUSH1 0x80 ADD MLOAD DUP8 PUSH1 0xA0 ADD MLOAD PUSH2 0xF38 DUP11 PUSH1 0x80 ADD MLOAD DUP11 PUSH1 0x80 ADD MLOAD PUSH2 0xCB1 SWAP1 SWAP2 SWAP1 PUSH4 0xFFFFFFFF AND JUMP JUMPDEST ADD SWAP1 PUSH2 0xCB1 JUMP JUMPDEST SWAP1 POP PUSH2 0xF73 DUP2 PUSH2 0xF5C DUP8 PUSH1 0x60 ADD MLOAD DUP10 PUSH2 0x1471 SWAP1 SWAP2 SWAP1 PUSH4 0xFFFFFFFF AND JUMP JUMPDEST PUSH1 0x40 DUP9 ADD MLOAD PUSH2 0xF6C SWAP1 DUP12 SWAP1 PUSH2 0x1471 JUMP JUMPDEST SUB SWAP1 PUSH2 0x1316 JUMP JUMPDEST SWAP3 POP PUSH1 0x0 PUSH2 0xF96 DUP7 PUSH1 0x40 ADD MLOAD PUSH2 0xAD9 DUP9 PUSH1 0x80 ADD MLOAD DUP11 PUSH2 0x1471 SWAP1 SWAP2 SWAP1 PUSH4 0xFFFFFFFF AND JUMP JUMPDEST PUSH2 0xFB5 DUP8 PUSH1 0x60 ADD MLOAD PUSH2 0xAD9 DUP10 PUSH1 0x80 ADD MLOAD DUP13 PUSH2 0x1471 SWAP1 SWAP2 SWAP1 PUSH4 0xFFFFFFFF AND JUMP JUMPDEST ADD SWAP1 POP PUSH2 0xFD9 PUSH2 0xFD2 DUP5 DUP8 PUSH1 0x40 ADD MLOAD PUSH2 0xA50 SWAP1 SWAP2 SWAP1 PUSH4 0xFFFFFFFF AND JUMP JUMPDEST DUP3 SWAP1 PUSH2 0x1316 JUMP JUMPDEST PUSH1 0x40 DUP8 ADD MLOAD SWAP5 ADD SWAP4 PUSH2 0xFEC SWAP1 DUP9 SWAP1 PUSH2 0x1471 JUMP JUMPDEST PUSH1 0x60 DUP8 ADD MLOAD PUSH2 0xFFC SWAP1 DUP11 SWAP1 PUSH2 0x1471 JUMP JUMPDEST ADD SWAP1 POP PUSH2 0x1019 PUSH2 0xFD2 DUP5 DUP8 PUSH1 0x60 ADD MLOAD PUSH2 0xA50 SWAP1 SWAP2 SWAP1 PUSH4 0xFFFFFFFF AND JUMP JUMPDEST SWAP1 SWAP4 ADD SWAP8 SWAP7 POP POP POP POP POP POP POP JUMP JUMPDEST PUSH1 0x0 DUP1 PUSH2 0x1036 DUP7 DUP7 DUP7 DUP7 PUSH2 0x1847 JUMP JUMPDEST PUSH2 0x1042 DUP8 DUP8 DUP8 DUP8 PUSH2 0x1974 JUMP JUMPDEST ADD SWAP2 POP PUSH2 0x1051 DUP7 DUP7 DUP7 DUP7 PUSH2 0x1AA6 JUMP JUMPDEST SWAP1 SWAP2 ADD SWAP1 PUSH12 0x12CED32A16A1B11E8262889 PUSH1 0x26 SHL PUSH2 0x106F DUP7 DUP1 PUSH2 0x12C4 JUMP JUMPDEST PUSH2 0x1079 DUP9 DUP1 PUSH2 0x12C4 JUMP JUMPDEST ADD DUP2 PUSH2 0x1081 JUMPI INVALID JUMPDEST SDIV SWAP1 POP PUSH1 0x0 DUP3 SGT PUSH2 0x1093 JUMPI PUSH1 0x0 PUSH2 0x10A2 JUMP JUMPDEST PUSH2 0x10A2 PUSH2 0x686 PUSH2 0x795 DUP5 PUSH2 0x8E6 JUMP JUMPDEST SWAP2 POP SWAP5 POP SWAP5 SWAP3 POP POP POP JUMP JUMPDEST PUSH1 0x0 DUP2 PUSH2 0x10C0 JUMPI PUSH2 0x10C0 PUSH1 0x0 PUSH1 0x4 PUSH2 0x1463 JUMP JUMPDEST DUP3 PUSH2 0x10CD JUMPI POP PUSH1 0x0 PUSH2 0xA81 JUMP JUMPDEST PUSH1 0x0 DUP3 SLT ISZERO PUSH2 0x10E3 JUMPI DUP2 PUSH1 0x0 SUB SWAP2 POP DUP3 PUSH1 0x0 SUB SWAP3 POP JUMPDEST PUSH1 0x0 DUP4 SGT ISZERO PUSH2 0x110D JUMPI DUP2 PUSH1 0x1 PUSH8 0xDE0B6B3A7640000 DUP6 MUL SUB DUP2 PUSH2 0x1102 JUMPI INVALID JUMPDEST SDIV PUSH1 0x1 ADD SWAP1 POP PUSH2 0xA81 JUMP JUMPDEST PUSH1 0x1 DUP3 PUSH8 0xDE0B6B3A7640000 DUP6 MUL PUSH1 0x1 ADD DUP2 PUSH2 0x1125 JUMPI INVALID JUMPDEST SDIV SUB SWAP4 SWAP3 POP POP POP JUMP JUMPDEST PUSH1 0x0 DUP3 PUSH2 0x113D JUMPI POP PUSH1 0x0 PUSH2 0xA81 JUMP JUMPDEST PUSH1 0x0 PUSH2 0x1148 DUP5 PUSH2 0x1BBC JUMP JUMPDEST SWAP1 POP PUSH1 0x2 DUP2 PUSH8 0xDE0B6B3A7640000 DUP7 MUL DUP2 PUSH2 0x115F JUMPI INVALID JUMPDEST DIV DUP3 ADD DUP2 PUSH2 0x1169 JUMPI INVALID JUMPDEST DIV SWAP1 POP PUSH1 0x2 DUP2 PUSH8 0xDE0B6B3A7640000 DUP7 MUL DUP2 PUSH2 0x1181 JUMPI INVALID JUMPDEST DIV DUP3 ADD DUP2 PUSH2 0x118B JUMPI INVALID JUMPDEST DIV SWAP1 POP PUSH1 0x2 DUP2 PUSH8 0xDE0B6B3A7640000 DUP7 MUL DUP2 PUSH2 0x11A3 JUMPI INVALID JUMPDEST DIV DUP3 ADD DUP2 PUSH2 0x11AD JUMPI INVALID JUMPDEST DIV SWAP1 POP PUSH1 0x2 DUP2 PUSH8 0xDE0B6B3A7640000 DUP7 MUL DUP2 PUSH2 0x11C5 JUMPI INVALID JUMPDEST DIV DUP3 ADD DUP2 PUSH2 0x11CF JUMPI INVALID JUMPDEST DIV SWAP1 POP PUSH1 0x2 DUP2 PUSH8 0xDE0B6B3A7640000 DUP7 MUL DUP2 PUSH2 0x11E7 JUMPI INVALID JUMPDEST DIV DUP3 ADD DUP2 PUSH2 0x11F1 JUMPI INVALID JUMPDEST DIV SWAP1 POP PUSH1 0x2 DUP2 PUSH8 0xDE0B6B3A7640000 DUP7 MUL DUP2 PUSH2 0x1209 JUMPI INVALID JUMPDEST DIV DUP3 ADD DUP2 PUSH2 0x1213 JUMPI INVALID JUMPDEST DIV SWAP1 POP PUSH1 0x2 DUP2 PUSH8 0xDE0B6B3A7640000 DUP7 MUL DUP2 PUSH2 0x122B JUMPI INVALID JUMPDEST DIV DUP3 ADD DUP2 PUSH2 0x1235 JUMPI INVALID JUMPDEST DIV SWAP1 POP PUSH1 0x0 PUSH2 0x1244 DUP3 DUP1 PUSH2 0x1D8E JUMP JUMPDEST SWAP1 POP PUSH2 0x125A PUSH2 0x1253 DUP4 DUP7 PUSH2 0x1DCA JUMP JUMPDEST DUP7 SWAP1 PUSH2 0xEB3 JUMP JUMPDEST DUP2 GT ISZERO DUP1 ISZERO PUSH2 0x127C JUMPI POP PUSH2 0x1278 PUSH2 0x1271 DUP4 DUP7 PUSH2 0x1DCA JUMP JUMPDEST DUP7 SWAP1 PUSH2 0xE97 JUMP JUMPDEST DUP2 LT ISZERO JUMPDEST PUSH2 0x12BC JUMPI PUSH1 0x40 DUP1 MLOAD PUSH3 0x461BCD PUSH1 0xE5 SHL DUP2 MSTORE PUSH1 0x20 PUSH1 0x4 DUP3 ADD MSTORE PUSH1 0xC PUSH1 0x24 DUP3 ADD MSTORE PUSH12 0x17DCDC5C9D08119052531151 PUSH1 0xA2 SHL PUSH1 0x44 DUP3 ADD MSTORE SWAP1 MLOAD SWAP1 DUP2 SWAP1 SUB PUSH1 0x64 ADD SWAP1 REVERT JUMPDEST POP SWAP4 SWAP3 POP POP POP JUMP JUMPDEST PUSH1 0x0 DUP3 DUP3 MUL DUP2 DUP2 SGT ISZERO PUSH2 0x12EB JUMPI PUSH8 0xDE0B6B3A7640000 PUSH1 0x0 NOT DUP3 ADD SDIV PUSH1 0x1 ADD SWAP2 POP POP PUSH2 0xA81 JUMP JUMPDEST PUSH1 0x0 DUP2 SLT ISZERO PUSH2 0x130C JUMPI PUSH1 0x1 PUSH8 0xDE0B6B3A7640000 DUP3 DUP3 ADD SDIV SUB SWAP2 POP POP PUSH2 0xA81 JUMP JUMPDEST POP PUSH1 0x0 SWAP4 SWAP3 POP POP POP JUMP JUMPDEST PUSH1 0x0 PUSH8 0x8AC7230489E80000 DUP1 DUP4 SDIV SWAP1 DUP4 SMOD DUP5 DUP3 MUL DUP6 DUP3 MUL DUP5 DUP3 SLT DUP1 ISZERO SWAP1 PUSH2 0x133E JUMPI POP PUSH1 0x0 DUP2 SLT ISZERO JUMPDEST PUSH2 0x135B JUMPI PUSH1 0x1 PUSH8 0x8AC7230489E80000 DUP1 DUP4 SDIV DUP5 ADD DUP3 ADD SDIV SUB PUSH2 0x136B JUMP JUMPDEST PUSH8 0x8AC7230489E80000 DUP1 DUP3 SDIV DUP4 ADD SDIV JUMPDEST SWAP8 SWAP7 POP POP POP POP POP POP POP JUMP JUMPDEST PUSH1 0x0 PUSH8 0x8AC7230489E80000 DUP1 DUP4 SDIV SWAP1 DUP4 SMOD DUP5 DUP3 MUL DUP6 DUP3 MUL DUP5 DUP3 SGT DUP1 ISZERO SWAP1 PUSH2 0x139E JUMPI POP PUSH1 0x0 DUP2 SGT ISZERO JUMPDEST PUSH2 0x135B JUMPI PUSH8 0x8AC7230489E80000 PUSH1 0x0 NOT DUP2 DUP4 SDIV DUP5 ADD ADD SDIV PUSH1 0x1 ADD PUSH2 0x136B JUMP JUMPDEST PUSH2 0x13CD DUP2 PUSH3 0x23ACA9 PUSH1 0xE9 SHL PUSH2 0x1E1E JUMP JUMPDEST POP JUMP JUMPDEST PUSH1 0x0 DUP3 DUP3 MUL DUP4 ISZERO DUP1 PUSH2 0x13EA JUMPI POP DUP3 DUP5 DUP3 DUP2 PUSH2 0x13E7 JUMPI INVALID JUMPDEST SDIV EQ JUMPDEST PUSH2 0x13FA JUMPI PUSH2 0x13FA PUSH1 0x0 PUSH1 0x3 PUSH2 0x1463 JUMP JUMPDEST PUSH8 0xDE0B6B3A7640000 DUP2 PUSH2 0xD28 JUMP JUMPDEST PUSH1 0x0 DUP3 DUP3 MUL DUP4 ISZERO DUP1 PUSH2 0x1423 JUMPI POP DUP3 DUP5 DUP3 DUP2 PUSH2 0x1420 JUMPI INVALID JUMPDEST SDIV EQ JUMPDEST PUSH2 0x1433 JUMPI PUSH2 0x1433 PUSH1 0x0 PUSH1 0x3 PUSH2 0x1463 JUMP JUMPDEST PUSH12 0x12CED32A16A1B11E8262889 PUSH1 0x26 SHL DUP2 PUSH2 0xD28 JUMP JUMPDEST PUSH1 0x0 PUSH12 0x12CED32A16A1B11E8262889 PUSH1 0x26 SHL DUP4 DUP4 MUL PUSH2 0xA7D JUMP JUMPDEST DUP2 PUSH2 0x8A8 JUMPI PUSH2 0x8A8 DUP2 PUSH2 0x1E7F JUMP JUMPDEST PUSH1 0x0 PUSH8 0xDE0B6B3A7640000 DUP4 DUP4 MUL PUSH2 0xA7D JUMP JUMPDEST PUSH1 0x0 PUSH2 0x148E PUSH2 0x2212 JUMP JUMPDEST PUSH2 0x14AB DUP11 PUSH2 0xC5E PUSH12 0x12CED32A16A1B11E8262889 PUSH1 0x26 SHL DUP3 PUSH2 0xCB1 JUMP JUMPDEST PUSH12 0x12CED32A16A1B11E8262889 PUSH1 0x26 SHL SWAP1 DUP2 SUB DUP3 MSTORE PUSH2 0x14D6 SWAP1 DUP12 SWAP1 PUSH2 0x14D0 SWAP1 DUP3 PUSH2 0x10AD JUMP JUMPDEST SWAP1 PUSH2 0x10AD JUMP JUMPDEST PUSH12 0x12CED32A16A1B11E8262889 PUSH1 0x26 SHL SUB PUSH1 0x20 DUP3 ADD MSTORE PUSH2 0x14F4 PUSH2 0x222C JUMP JUMPDEST DUP6 MLOAD DUP11 SUB PUSH1 0x0 DUP2 SGT ISZERO PUSH2 0x1530 JUMPI PUSH1 0x20 DUP4 ADD MLOAD PUSH2 0x1526 SWAP1 PUSH2 0x1514 SWAP1 DUP8 PUSH2 0xA50 JUMP JUMPDEST PUSH2 0xADF DUP12 PUSH2 0xAD9 PUSH1 0x0 DUP7 SWAP1 SUB DUP16 PUSH2 0x1471 JUMP JUMPDEST PUSH1 0x20 DUP4 ADD MSTORE PUSH2 0x155B JUMP JUMPDEST DUP3 MLOAD PUSH2 0x1555 SWAP1 PUSH2 0x1540 SWAP1 DUP8 PUSH2 0xA50 JUMP JUMPDEST PUSH1 0x1 ADD PUSH2 0xADF DUP12 PUSH2 0x9F0 PUSH1 0x0 DUP7 SWAP1 SUB DUP16 PUSH2 0x12C4 JUMP JUMPDEST PUSH1 0x20 DUP4 ADD MSTORE JUMPDEST PUSH2 0x1563 PUSH2 0x2212 JUMP JUMPDEST PUSH2 0x1582 DUP7 PUSH2 0x9B7 DUP14 PUSH2 0xAD9 DUP16 DUP10 PUSH1 0x20 ADD MLOAD PUSH2 0x1471 SWAP1 SWAP2 SWAP1 PUSH4 0xFFFFFFFF AND JUMP JUMPDEST DUP2 MSTORE DUP4 MLOAD PUSH2 0x1590 SWAP1 DUP13 PUSH2 0x12C4 JUMP JUMPDEST PUSH1 0x20 DUP3 ADD DUP2 SWAP1 MSTORE PUSH2 0x15AA SWAP1 PUSH1 0x1 DUP9 ADD SWAP1 PUSH2 0x9B7 SWAP1 DUP15 PUSH2 0x12C4 JUMP JUMPDEST PUSH1 0x1 ADD PUSH1 0x20 DUP1 DUP4 ADD SWAP2 DUP3 MSTORE PUSH1 0x40 DUP1 MLOAD DUP1 DUP3 ADD SWAP1 SWAP2 MSTORE SWAP3 MLOAD PUSH12 0x12CED32A16A1B11E8262889 PUSH1 0x26 SHL SWAP1 DUP2 SUB DUP5 MSTORE SWAP2 MLOAD SWAP1 SWAP2 SUB SWAP1 DUP3 ADD MSTORE PUSH2 0x15EE DUP13 DUP11 DUP16 DUP15 DUP15 DUP13 DUP13 PUSH2 0x1ED2 JUMP JUMPDEST PUSH1 0x0 SUB PUSH1 0x40 DUP5 ADD MSTORE PUSH1 0x20 DUP1 DUP3 ADD MLOAD SWAP1 DUP11 ADD MLOAD PUSH2 0x1615 SWAP2 SWAP1 PUSH2 0x160F SWAP1 DUP1 PUSH2 0x1471 JUMP JUMPDEST SWAP1 PUSH2 0x1316 JUMP JUMPDEST PUSH1 0x40 DUP5 ADD DUP1 MLOAD SWAP2 SWAP1 SWAP2 ADD SWAP1 DUP2 SWAP1 MSTORE PUSH1 0x0 SLT PUSH2 0x1631 JUMPI PUSH1 0x0 PUSH2 0x1644 JUMP JUMPDEST PUSH2 0x1644 PUSH2 0x686 PUSH2 0x795 DUP6 PUSH1 0x40 ADD MLOAD PUSH2 0x8E6 JUMP JUMPDEST PUSH1 0x40 DUP5 ADD DUP2 SWAP1 MSTORE PUSH1 0x20 DUP5 ADD MLOAD PUSH1 0x0 SWAP2 SWAP1 SUB SGT ISZERO PUSH2 0x169F JUMPI PUSH2 0x1698 PUSH2 0x1684 DUP3 PUSH1 0x20 ADD MLOAD PUSH12 0x12CED32A16A1B11E8262889 PUSH1 0x26 SHL PUSH2 0xA50 SWAP1 SWAP2 SWAP1 PUSH4 0xFFFFFFFF AND JUMP JUMPDEST PUSH1 0x40 DUP6 ADD MLOAD PUSH1 0x20 DUP7 ADD MLOAD SUB SWAP1 PUSH1 0x1 ADD PUSH2 0x1376 JUMP JUMPDEST DUP4 MSTORE PUSH2 0x16D3 JUMP JUMPDEST DUP1 MLOAD PUSH2 0x16D0 SWAP1 PUSH2 0x16BF SWAP1 PUSH12 0x12CED32A16A1B11E8262889 PUSH1 0x26 SHL SWAP1 PUSH2 0xA50 JUMP JUMPDEST PUSH1 0x40 DUP6 ADD MLOAD PUSH1 0x20 DUP7 ADD MLOAD SUB SWAP1 PUSH2 0x1376 JUMP JUMPDEST DUP4 MSTORE JUMPDEST POP POP PUSH1 0x20 DUP7 ADD MLOAD SWAP1 MLOAD ADD SWAP2 POP POP SWAP9 SWAP8 POP POP POP POP POP POP POP POP JUMP JUMPDEST PUSH1 0xC0 DUP3 ADD MLOAD DUP3 MLOAD MLOAD PUSH1 0x20 DUP5 ADD MLOAD MLOAD PUSH1 0x0 SWAP3 DUP4 SWAP3 PUSH2 0x170A SWAP3 SUB SWAP1 PUSH2 0xA50 JUMP JUMPDEST SWAP1 POP PUSH1 0x0 PUSH2 0x1737 DUP6 PUSH1 0xC0 ADD MLOAD DUP7 PUSH1 0x0 ADD MLOAD PUSH1 0x20 ADD MLOAD DUP8 PUSH1 0x20 ADD MLOAD PUSH1 0x20 ADD MLOAD SUB PUSH2 0xA50 SWAP1 SWAP2 SWAP1 PUSH4 0xFFFFFFFF AND JUMP JUMPDEST SWAP1 POP PUSH2 0x1760 DUP3 PUSH2 0x160F DUP9 PUSH1 0x40 ADD MLOAD PUSH2 0xAD9 DUP11 PUSH1 0x80 ADD MLOAD DUP10 PUSH1 0x20 ADD MLOAD PUSH2 0x1471 SWAP1 SWAP2 SWAP1 PUSH4 0xFFFFFFFF AND JUMP JUMPDEST SWAP3 POP PUSH2 0x1796 DUP2 PUSH1 0x0 DUP4 SGT PUSH2 0x1783 JUMPI PUSH1 0x60 DUP9 ADD MLOAD DUP7 MLOAD PUSH2 0x177E SWAP2 PUSH2 0x12C4 JUMP JUMPDEST PUSH2 0x160F JUMP JUMPDEST PUSH1 0x60 DUP9 ADD MLOAD PUSH1 0x20 DUP8 ADD MLOAD PUSH2 0x160F SWAP2 PUSH2 0x1471 JUMP JUMPDEST SWAP1 SWAP3 ADD SWAP6 SWAP5 POP POP POP POP POP JUMP JUMPDEST PUSH1 0xC0 DUP3 ADD MLOAD DUP3 MLOAD MLOAD PUSH1 0x20 DUP5 ADD MLOAD MLOAD PUSH1 0x0 SWAP3 DUP4 SWAP3 PUSH2 0x17C0 SWAP3 SUB SWAP1 PUSH2 0xA50 JUMP JUMPDEST SWAP1 POP PUSH1 0x0 PUSH2 0x17ED DUP6 PUSH1 0xC0 ADD MLOAD DUP7 PUSH1 0x20 ADD MLOAD PUSH1 0x20 ADD MLOAD DUP8 PUSH1 0x0 ADD MLOAD PUSH1 0x20 ADD MLOAD SUB PUSH2 0xA50 SWAP1 SWAP2 SWAP1 PUSH4 0xFFFFFFFF AND JUMP JUMPDEST SWAP1 POP PUSH2 0x1816 DUP3 PUSH2 0x160F DUP9 PUSH1 0x60 ADD MLOAD PUSH2 0xAD9 DUP11 PUSH1 0x80 ADD MLOAD DUP10 PUSH1 0x20 ADD MLOAD PUSH2 0x1471 SWAP1 SWAP2 SWAP1 PUSH4 0xFFFFFFFF AND JUMP JUMPDEST SWAP3 POP PUSH2 0x1796 DUP2 PUSH1 0x0 DUP4 SGT PUSH2 0x1834 JUMPI PUSH1 0x40 DUP9 ADD MLOAD DUP7 MLOAD PUSH2 0x177E SWAP2 PUSH2 0x12C4 JUMP JUMPDEST PUSH1 0x40 DUP9 ADD MLOAD PUSH1 0x20 DUP8 ADD MLOAD PUSH2 0x160F SWAP2 PUSH2 0x1471 JUMP JUMPDEST PUSH1 0x0 DUP1 PUSH2 0x1881 DUP5 PUSH1 0x60 ADD MLOAD PUSH2 0xAD9 DUP7 PUSH1 0x40 ADD MLOAD PUSH1 0x2 MUL PUSH2 0x1870 DUP10 DUP11 PUSH2 0x12C4 SWAP1 SWAP2 SWAP1 PUSH4 0xFFFFFFFF AND JUMP JUMPDEST PUSH2 0x187A DUP12 DUP1 PUSH2 0x1471 JUMP JUMPDEST SUB SWAP1 PUSH2 0x1471 JUMP JUMPDEST SWAP1 POP PUSH1 0x0 PUSH2 0x1892 DUP7 PUSH1 0x2 DUP10 MUL PUSH2 0x1471 JUMP JUMPDEST PUSH1 0x60 DUP7 ADD MLOAD SWAP1 SWAP2 POP PUSH2 0x18A8 SWAP1 PUSH2 0xAD9 DUP4 DUP3 PUSH2 0x1471 JUMP JUMPDEST PUSH1 0x40 DUP7 ADD MLOAD PUSH2 0x18BB SWAP1 PUSH2 0xAD9 DUP5 DUP3 PUSH2 0x1471 JUMP JUMPDEST DUP4 ADD SUB SWAP2 POP PUSH1 0x0 PUSH2 0x18ED DUP7 PUSH1 0x80 ADD MLOAD PUSH2 0xC5E DUP9 PUSH1 0x80 ADD MLOAD PUSH2 0xC5E DUP10 PUSH1 0x60 ADD MLOAD DUP11 PUSH1 0x80 ADD MLOAD PUSH2 0x1449 SWAP1 SWAP2 SWAP1 PUSH4 0xFFFFFFFF AND JUMP JUMPDEST PUSH1 0x40 DUP7 ADD MLOAD PUSH1 0xA0 DUP8 ADD MLOAD PUSH2 0x1900 SWAP2 PUSH2 0x1449 JUMP JUMPDEST ADD SWAP1 POP PUSH2 0x1939 DUP7 PUSH1 0x80 ADD MLOAD PUSH2 0x1926 DUP8 PUSH1 0x60 ADD MLOAD DUP9 PUSH1 0xA0 ADD MLOAD PUSH2 0x1449 SWAP1 SWAP2 SWAP1 PUSH4 0xFFFFFFFF AND JUMP JUMPDEST PUSH1 0x40 DUP9 ADD MLOAD PUSH1 0x80 DUP10 ADD MLOAD PUSH2 0xF38 SWAP2 PUSH2 0x1449 JUMP JUMPDEST PUSH1 0xC0 DUP7 ADD MLOAD SWAP2 ADD SWAP1 PUSH2 0x195C SWAP1 PUSH2 0x1955 SWAP1 PUSH2 0x98A DUP2 DUP2 DUP2 DUP1 PUSH2 0x1449 JUMP JUMPDEST DUP3 SWAP1 PUSH2 0xA50 JUMP JUMPDEST SWAP1 POP PUSH2 0x1968 DUP4 DUP3 PUSH2 0x1316 JUMP JUMPDEST SWAP9 SWAP8 POP POP POP POP POP POP POP POP JUMP JUMPDEST PUSH1 0x60 DUP3 ADD MLOAD PUSH1 0x0 SWAP1 DUP2 SWAP1 PUSH2 0x198E SWAP1 PUSH2 0x9F0 DUP2 DUP2 DUP10 DUP1 PUSH2 0x12C4 JUMP JUMPDEST PUSH1 0x40 DUP6 ADD MLOAD PUSH2 0x19A3 SWAP1 PUSH2 0x9F0 DUP2 DUP2 DUP12 DUP1 PUSH2 0x12C4 JUMP JUMPDEST ADD SWAP1 POP PUSH2 0x19CC DUP5 PUSH1 0x60 ADD MLOAD PUSH2 0xAD9 DUP7 PUSH1 0x40 ADD MLOAD PUSH1 0x2 MUL PUSH2 0xAD9 DUP10 DUP12 PUSH2 0x1471 SWAP1 SWAP2 SWAP1 PUSH4 0xFFFFFFFF AND JUMP JUMPDEST PUSH1 0x80 DUP6 ADD MLOAD PUSH1 0x60 DUP6 ADD MLOAD SWAP2 SWAP1 SWAP3 SUB SWAP2 PUSH1 0x0 SWAP2 PUSH2 0x19F1 SWAP2 SWAP1 PUSH2 0xC5E SWAP1 DUP3 SWAP1 DUP3 SWAP1 DUP1 PUSH2 0x1449 JUMP JUMPDEST PUSH2 0x1A17 DUP7 PUSH1 0x80 ADD MLOAD PUSH2 0xC5E DUP8 PUSH1 0x60 ADD MLOAD DUP9 PUSH1 0x40 ADD MLOAD PUSH1 0x2 MUL PUSH2 0x1449 SWAP1 SWAP2 SWAP1 PUSH4 0xFFFFFFFF AND JUMP JUMPDEST PUSH1 0x40 DUP7 ADD MLOAD PUSH2 0x1A26 SWAP1 DUP1 PUSH2 0x1449 JUMP JUMPDEST PUSH1 0xC0 DUP8 ADD MLOAD SWAP2 ADD SWAP2 SWAP1 SWAP2 ADD SWAP2 POP PUSH2 0x1A47 SWAP1 PUSH2 0x1955 SWAP1 PUSH2 0x98A DUP2 DUP2 DUP2 DUP1 PUSH2 0x1449 JUMP JUMPDEST SWAP1 POP PUSH2 0x1A57 PUSH1 0x0 DUP4 SWAP1 SUB DUP3 PUSH2 0x1316 JUMP JUMPDEST SWAP3 POP PUSH2 0x1A99 PUSH2 0x1A82 DUP6 PUSH1 0xC0 ADD MLOAD PUSH12 0x12CED32A16A1B11E8262889 PUSH1 0x26 SHL PUSH2 0xA50 SWAP1 SWAP2 SWAP1 PUSH4 0xFFFFFFFF AND JUMP JUMPDEST PUSH1 0x80 DUP8 ADD MLOAD PUSH2 0x160F SWAP1 PUSH2 0xC5E PUSH1 0x8 NOT DUP8 ADD DUP3 PUSH2 0xCB1 JUMP JUMPDEST SWAP1 SWAP3 ADD SWAP7 SWAP6 POP POP POP POP POP POP JUMP JUMPDEST PUSH1 0x40 DUP3 ADD MLOAD PUSH1 0x0 SWAP1 DUP2 SWAP1 PUSH2 0x1AC0 SWAP1 PUSH2 0x9F0 DUP2 DUP2 DUP10 DUP1 PUSH2 0x12C4 JUMP JUMPDEST PUSH1 0x60 DUP6 ADD MLOAD PUSH2 0x1AD5 SWAP1 PUSH2 0x9F0 DUP2 DUP2 DUP12 DUP1 PUSH2 0x12C4 JUMP JUMPDEST ADD SWAP1 POP PUSH2 0x1AFE DUP5 PUSH1 0x40 ADD MLOAD PUSH2 0x9F0 DUP7 PUSH1 0x60 ADD MLOAD PUSH1 0x2 MUL PUSH2 0x9F0 DUP10 DUP12 PUSH2 0x12C4 SWAP1 SWAP2 SWAP1 PUSH4 0xFFFFFFFF AND JUMP JUMPDEST PUSH1 0x80 DUP6 DUP2 ADD MLOAD SWAP1 DUP6 ADD MLOAD SWAP3 SWAP1 SWAP2 ADD SWAP2 PUSH1 0x0 SWAP2 PUSH2 0x1B22 SWAP2 PUSH2 0xC5E SWAP1 DUP3 SWAP1 DUP3 SWAP1 DUP1 PUSH2 0x1449 JUMP JUMPDEST PUSH1 0xA0 DUP6 ADD MLOAD PUSH2 0x1B31 SWAP1 DUP1 PUSH2 0x1449 JUMP JUMPDEST ADD SWAP1 POP PUSH2 0x1B5A DUP6 PUSH1 0x80 ADD MLOAD PUSH2 0xC5E DUP7 PUSH1 0x80 ADD MLOAD DUP8 PUSH1 0xA0 ADD MLOAD PUSH1 0x2 MUL PUSH2 0x1449 SWAP1 SWAP2 SWAP1 PUSH4 0xFFFFFFFF AND JUMP JUMPDEST PUSH1 0xC0 DUP6 ADD MLOAD SWAP2 ADD SWAP1 PUSH2 0x1B76 SWAP1 PUSH2 0x1955 SWAP1 PUSH2 0x98A DUP2 DUP2 DUP2 DUP1 PUSH2 0x1449 JUMP JUMPDEST SWAP1 POP PUSH2 0x1B86 PUSH1 0x0 DUP4 SWAP1 SUB DUP3 PUSH2 0x1316 JUMP JUMPDEST SWAP3 POP PUSH2 0x1A99 PUSH2 0x1BB1 DUP6 PUSH1 0xC0 ADD MLOAD PUSH12 0x12CED32A16A1B11E8262889 PUSH1 0x26 SHL PUSH2 0xA50 SWAP1 SWAP2 SWAP1 PUSH4 0xFFFFFFFF AND JUMP JUMPDEST PUSH1 0x8 NOT DUP5 ADD SWAP1 PUSH2 0x1316 JUMP JUMPDEST PUSH1 0x0 PUSH8 0xDE0B6B3A7640000 DUP3 LT PUSH2 0x1BE9 JUMPI PUSH8 0xDE0B6B3A7640000 PUSH2 0x1BE1 DUP2 DUP5 DIV PUSH2 0x217A JUMP JUMPDEST SHL SWAP1 POP PUSH2 0x940 JUMP JUMPDEST PUSH1 0xA DUP3 GT PUSH2 0x1BFC JUMPI POP PUSH4 0xBC7C871C PUSH2 0x940 JUMP JUMPDEST PUSH1 0x64 DUP3 GT PUSH2 0x1C10 JUMPI POP PUSH5 0x2540BE400 PUSH2 0x940 JUMP JUMPDEST PUSH2 0x3E8 DUP3 GT PUSH2 0x1C25 JUMPI POP PUSH5 0x75CDD4719 PUSH2 0x940 JUMP JUMPDEST PUSH2 0x2710 DUP3 GT PUSH2 0x1C3A JUMPI POP PUSH5 0x174876E800 PUSH2 0x940 JUMP JUMPDEST PUSH3 0x186A0 DUP3 GT PUSH2 0x1C50 JUMPI POP PUSH5 0x49A0A4C700 PUSH2 0x940 JUMP JUMPDEST PUSH3 0xF4240 DUP3 GT PUSH2 0x1C66 JUMPI POP PUSH5 0xE8D4A51000 PUSH2 0x940 JUMP JUMPDEST PUSH3 0x989680 DUP3 GT PUSH2 0x1C7D JUMPI POP PUSH6 0x2E0466FC608 PUSH2 0x940 JUMP JUMPDEST PUSH4 0x5F5E100 DUP3 GT PUSH2 0x1C95 JUMPI POP PUSH6 0x9184E72A000 PUSH2 0x940 JUMP JUMPDEST PUSH4 0x3B9ACA00 DUP3 GT PUSH2 0x1CAD JUMPI POP PUSH6 0x1CC2C05DBC53 PUSH2 0x940 JUMP JUMPDEST PUSH5 0x2540BE400 DUP3 GT PUSH2 0x1CC6 JUMPI POP PUSH6 0x5AF3107A4000 PUSH2 0x940 JUMP JUMPDEST PUSH5 0x174876E800 DUP3 GT PUSH2 0x1CE0 JUMPI POP PUSH7 0x11F9B83A95B45 PUSH2 0x940 JUMP JUMPDEST PUSH5 0xE8D4A51000 DUP3 GT PUSH2 0x1CFA JUMPI POP PUSH7 0x38D7EA4C68000 PUSH2 0x940 JUMP JUMPDEST PUSH6 0x9184E72A000 DUP3 GT PUSH2 0x1D15 JUMPI POP PUSH7 0xB3C13249D90BB PUSH2 0x940 JUMP JUMPDEST PUSH6 0x5AF3107A4000 DUP3 GT PUSH2 0x1D30 JUMPI POP PUSH7 0x2386F26FC10000 PUSH2 0x940 JUMP JUMPDEST PUSH7 0x38D7EA4C68000 DUP3 GT PUSH2 0x1D4C JUMPI POP PUSH7 0x7058BF6E27A751 PUSH2 0x940 JUMP JUMPDEST PUSH7 0x2386F26FC10000 DUP3 GT PUSH2 0x1D69 JUMPI POP PUSH8 0x16345785D8A0000 PUSH2 0x940 JUMP JUMPDEST PUSH8 0x16345785D8A0000 DUP3 GT PUSH2 0x1D87 JUMPI POP PUSH8 0x463777A4D8C892D PUSH2 0x940 JUMP JUMPDEST POP DUP1 PUSH2 0x940 JUMP JUMPDEST PUSH1 0x0 DUP3 DUP3 MUL DUP4 ISZERO DUP1 PUSH2 0x1DA8 JUMPI POP DUP3 DUP5 DUP3 DUP2 PUSH2 0x1DA5 JUMPI INVALID JUMPDEST DIV EQ JUMPDEST PUSH2 0x1DB8 JUMPI PUSH2 0x1DB8 PUSH1 0x0 PUSH1 0x3 PUSH2 0x1463 JUMP JUMPDEST PUSH8 0xDE0B6B3A7640000 SWAP1 DIV SWAP4 SWAP3 POP POP POP JUMP JUMPDEST PUSH1 0x0 DUP3 DUP3 MUL DUP4 ISZERO DUP1 PUSH2 0x1DE4 JUMPI POP DUP3 DUP5 DUP3 DUP2 PUSH2 0x1DE1 JUMPI INVALID JUMPDEST DIV EQ JUMPDEST PUSH2 0x1DF4 JUMPI PUSH2 0x1DF4 PUSH1 0x0 PUSH1 0x3 PUSH2 0x1463 JUMP JUMPDEST DUP1 PUSH2 0x1E03 JUMPI PUSH1 0x0 SWAP2 POP POP PUSH2 0xA81 JUMP JUMPDEST PUSH8 0xDE0B6B3A7640000 PUSH1 0x0 NOT DUP3 ADD DIV PUSH1 0x1 ADD SWAP2 POP POP SWAP3 SWAP2 POP POP JUMP JUMPDEST PUSH3 0x461BCD PUSH1 0xE5 SHL PUSH1 0x0 SWAP1 DUP2 MSTORE PUSH1 0x20 PUSH1 0x4 MSTORE PUSH1 0x7 PUSH1 0x24 MSTORE PUSH1 0xA DUP1 DUP5 DIV DUP2 DUP2 MOD PUSH1 0x30 SWAP1 DUP2 ADD PUSH1 0x8 SHL SWAP6 DUP4 SWAP1 MOD SWAP6 SWAP1 SWAP6 ADD SWAP1 DUP3 SWAP1 DIV SWAP2 DUP3 MOD DUP6 ADD PUSH1 0x10 SHL ADD PUSH1 0x23 PUSH4 0xFFFFFF00 PUSH1 0xE0 DUP7 SWAP1 SHR AND ADD PUSH1 0x18 SHL ADD SWAP1 SWAP4 ADD PUSH1 0xC8 SHL PUSH1 0x44 MSTORE PUSH1 0xE8 DUP3 SWAP1 SHR SWAP1 PUSH1 0x64 SWAP1 REVERT JUMPDEST PUSH3 0x461BCD PUSH1 0xE5 SHL PUSH1 0x0 SWAP1 DUP2 MSTORE PUSH1 0x20 PUSH1 0x4 MSTORE PUSH1 0x7 PUSH1 0x24 MSTORE PUSH7 0x42414C23000030 PUSH1 0xA DUP1 DUP5 DIV DUP2 DUP2 MOD PUSH1 0x30 SWAP1 DUP2 ADD PUSH1 0x8 SHL SWAP6 DUP4 SWAP1 MOD SWAP6 SWAP1 SWAP6 ADD SWAP1 DUP3 SWAP1 DIV SWAP2 DUP3 MOD SWAP1 SWAP5 ADD PUSH1 0x10 SHL SWAP4 SWAP1 SWAP4 ADD ADD PUSH1 0xC8 SHL PUSH1 0x44 MSTORE PUSH1 0x64 SWAP1 REVERT JUMPDEST PUSH1 0x0 DUP1 PUSH1 0x40 MLOAD DUP1 PUSH1 0x40 ADD PUSH1 0x40 MSTORE DUP1 PUSH2 0x1EF3 DUP6 DUP7 PUSH2 0x1449 SWAP1 SWAP2 SWAP1 PUSH4 0xFFFFFFFF AND JUMP JUMPDEST DUP2 MSTORE DUP10 MLOAD PUSH1 0x20 SWAP1 SWAP2 ADD SWAP1 PUSH2 0x1F07 SWAP1 DUP1 PUSH2 0x12C4 JUMP JUMPDEST SWAP1 MSTORE SWAP1 POP PUSH2 0x1F13 PUSH2 0x222C JUMP JUMPDEST DUP2 MLOAD PUSH1 0x20 DUP7 ADD MLOAD DUP7 MLOAD PUSH1 0x0 SWAP3 PUSH2 0x1F2E SWAP3 SWAP1 SWAP2 PUSH2 0x9B7 SWAP2 PUSH2 0x1449 JUMP JUMPDEST SWAP1 POP PUSH1 0x0 DUP2 SGT ISZERO PUSH2 0x1F68 JUMPI PUSH1 0x20 DUP4 ADD MLOAD PUSH2 0x1F4B SWAP1 PUSH1 0x2 DUP11 MUL PUSH2 0x12C4 JUMP JUMPDEST DUP1 DUP4 MSTORE PUSH2 0x1F61 SWAP1 PUSH1 0x7 DUP4 ADD SWAP1 PUSH2 0xADF SWAP1 DUP11 PUSH2 0x12C4 JUMP JUMPDEST DUP3 MSTORE PUSH2 0x1F96 JUMP JUMPDEST PUSH1 0x20 DUP11 ADD MLOAD PUSH2 0x1F80 SWAP1 PUSH1 0x2 DUP11 MUL SWAP1 PUSH2 0xAD9 SWAP1 DUP1 PUSH2 0x1471 JUMP JUMPDEST DUP1 DUP4 MSTORE PUSH2 0x1F93 SWAP1 DUP3 SWAP1 PUSH2 0xADF SWAP1 DUP11 PUSH2 0x1471 JUMP JUMPDEST DUP3 MSTORE JUMPDEST DUP6 MLOAD PUSH1 0x0 SGT ISZERO PUSH2 0x1FDE JUMPI DUP6 MLOAD PUSH2 0x1FD4 SWAP1 PUSH2 0x1FB0 SWAP1 DUP8 PUSH2 0xA50 JUMP JUMPDEST PUSH1 0x0 SUB PUSH1 0x3 ADD PUSH2 0xADF DUP10 PUSH1 0x2 MUL PUSH2 0x9F0 DUP16 DUP16 PUSH1 0x0 ADD MLOAD PUSH2 0x12C4 SWAP1 SWAP2 SWAP1 PUSH4 0xFFFFFFFF AND JUMP JUMPDEST PUSH1 0x20 DUP4 ADD MSTORE PUSH2 0x2015 JUMP JUMPDEST DUP6 MLOAD PUSH2 0x200F SWAP1 PUSH2 0x1FEE SWAP1 DUP8 PUSH2 0xA50 JUMP JUMPDEST PUSH2 0xADF DUP10 PUSH1 0x2 MUL PUSH2 0xAD9 DUP16 DUP16 PUSH1 0x20 ADD MLOAD PUSH1 0x0 SUB PUSH2 0x1471 SWAP1 SWAP2 SWAP1 PUSH4 0xFFFFFFFF AND JUMP JUMPDEST PUSH1 0x20 DUP4 ADD MSTORE JUMPDEST PUSH1 0x20 DUP1 DUP4 ADD MLOAD DUP4 MLOAD ADD DUP4 MSTORE DUP4 MLOAD SWAP1 DUP8 ADD MLOAD PUSH2 0x2035 SWAP2 SWAP1 PUSH2 0x9B7 SWAP1 DUP1 PUSH2 0x1449 JUMP JUMPDEST PUSH1 0x7 ADD SWAP1 POP PUSH2 0x2051 DUP9 DUP5 PUSH1 0x20 ADD MLOAD PUSH2 0x12C4 SWAP1 SWAP2 SWAP1 PUSH4 0xFFFFFFFF AND JUMP JUMPDEST PUSH1 0x20 DUP4 ADD DUP2 SWAP1 MSTORE PUSH2 0x2068 SWAP1 DUP3 SWAP1 PUSH2 0xADF SWAP1 DUP12 PUSH2 0x12C4 JUMP JUMPDEST PUSH1 0x20 DUP1 DUP5 ADD SWAP2 SWAP1 SWAP2 MSTORE DUP7 ADD MLOAD PUSH2 0x20A3 SWAP1 PUSH2 0x2082 SWAP1 DUP8 PUSH2 0xA50 JUMP JUMPDEST PUSH2 0xADF DUP11 PUSH1 0x2 MUL PUSH2 0xAD9 DUP16 DUP16 PUSH1 0x20 ADD MLOAD PUSH1 0x0 SUB PUSH2 0x1471 SWAP1 SWAP2 SWAP1 PUSH4 0xFFFFFFFF AND JUMP JUMPDEST PUSH1 0x40 DUP4 ADD MSTORE PUSH2 0x20B2 DUP12 DUP1 PUSH2 0x12C4 JUMP JUMPDEST PUSH1 0x40 DUP4 ADD MLOAD PUSH1 0x20 DUP5 ADD DUP1 MLOAD SWAP1 SWAP2 ADD SWAP2 SWAP1 SWAP2 ADD SWAP1 DUP2 SWAP1 MSTORE PUSH1 0x0 SLT PUSH2 0x20E3 JUMPI PUSH1 0x20 DUP3 ADD MLOAD PUSH2 0x20DE SWAP1 DUP11 PUSH2 0xCB1 JUMP JUMPDEST PUSH2 0x20F2 JUMP JUMPDEST PUSH1 0x20 DUP3 ADD MLOAD PUSH2 0x20F2 SWAP1 DUP11 PUSH2 0x10AD JUMP JUMPDEST PUSH1 0x20 DUP4 ADD DUP2 SWAP1 MSTORE DUP3 MLOAD ADD DUP1 DUP4 MSTORE PUSH1 0x0 SLT PUSH2 0x2117 JUMPI DUP2 MLOAD PUSH2 0x2112 SWAP1 DUP11 PUSH2 0xCB1 JUMP JUMPDEST PUSH2 0x2123 JUMP JUMPDEST DUP2 MLOAD PUSH2 0x2123 SWAP1 DUP11 PUSH2 0x10AD JUMP JUMPDEST DUP3 MSTORE DUP3 MLOAD DUP7 MLOAD PUSH2 0x2138 SWAP2 SWAP1 PUSH2 0x9B7 SWAP1 DUP1 PUSH2 0x1449 JUMP JUMPDEST PUSH1 0x7 ADD SWAP1 POP PUSH1 0x0 PUSH2 0x215A DUP9 PUSH2 0x9F0 DUP11 DUP8 PUSH1 0x20 ADD MLOAD PUSH2 0x12C4 SWAP1 SWAP2 SWAP1 PUSH4 0xFFFFFFFF AND JUMP JUMPDEST DUP4 MLOAD SWAP1 SWAP2 POP PUSH2 0x2169 DUP3 DUP5 PUSH2 0x1376 JUMP JUMPDEST ADD SWAP13 SWAP12 POP POP POP POP POP POP POP POP POP POP POP POP JUMP JUMPDEST PUSH1 0x0 PUSH1 0x1 PUSH1 0x80 SHL DUP3 LT PUSH2 0x2192 JUMPI PUSH1 0x80 SWAP2 SWAP1 SWAP2 SHR SWAP1 PUSH1 0x40 ADD JUMPDEST PUSH9 0x10000000000000000 DUP3 LT PUSH2 0x21AD JUMPI PUSH1 0x40 SWAP2 SWAP1 SWAP2 SHR SWAP1 PUSH1 0x20 ADD JUMPDEST PUSH5 0x100000000 DUP3 LT PUSH2 0x21C4 JUMPI PUSH1 0x20 SWAP2 SWAP1 SWAP2 SHR SWAP1 PUSH1 0x10 ADD JUMPDEST PUSH3 0x10000 DUP3 LT PUSH2 0x21D9 JUMPI PUSH1 0x10 SWAP2 SWAP1 SWAP2 SHR SWAP1 PUSH1 0x8 ADD JUMPDEST PUSH2 0x100 DUP3 LT PUSH2 0x21ED JUMPI PUSH1 0x8 SWAP2 SWAP1 SWAP2 SHR SWAP1 PUSH1 0x4 ADD JUMPDEST PUSH1 0x10 DUP3 LT PUSH2 0x2200 JUMPI PUSH1 0x4 SWAP2 SWAP1 SWAP2 SHR SWAP1 PUSH1 0x2 ADD JUMPDEST PUSH1 0x4 DUP3 LT PUSH2 0x940 JUMPI PUSH1 0x1 ADD SWAP2 SWAP1 POP JUMP JUMPDEST INVALID JUMPDEST PUSH1 0x40 MLOAD DUP1 PUSH1 0x40 ADD PUSH1 0x40 MSTORE DUP1 PUSH1 0x0 DUP2 MSTORE PUSH1 0x20 ADD PUSH1 0x0 DUP2 MSTORE POP SWAP1 JUMP JUMPDEST PUSH1 0x40 MLOAD DUP1 PUSH1 0x60 ADD PUSH1 0x40 MSTORE DUP1 PUSH1 0x0 DUP2 MSTORE PUSH1 0x20 ADD PUSH1 0x0 DUP2 MSTORE PUSH1 0x20 ADD PUSH1 0x0 DUP2 MSTORE POP SWAP1 JUMP JUMPDEST PUSH1 0x0 DUP3 PUSH1 0x1F DUP4 ADD SLT PUSH2 0x225D JUMPI DUP1 DUP2 REVERT JUMPDEST DUP2 CALLDATALOAD PUSH1 0x20 PUSH8 0xFFFFFFFFFFFFFFFF DUP1 DUP4 GT ISZERO PUSH2 0x2274 JUMPI INVALID JUMPDEST DUP2 DUP4 MUL PUSH1 0x40 MLOAD DUP4 DUP3 DUP3 ADD ADD DUP2 DUP2 LT DUP5 DUP3 GT OR ISZERO PUSH2 0x228D JUMPI INVALID JUMPDEST PUSH1 0x40 MSTORE DUP5 DUP2 MSTORE DUP4 DUP2 ADD SWAP3 POP DUP7 DUP5 ADD DUP3 DUP9 ADD DUP6 ADD DUP10 LT ISZERO PUSH2 0x22AB JUMPI DUP7 DUP8 REVERT JUMPDEST DUP7 SWAP3 POP JUMPDEST DUP6 DUP4 LT ISZERO PUSH2 0x22CD JUMPI DUP1 CALLDATALOAD DUP5 MSTORE SWAP3 DUP5 ADD SWAP3 PUSH1 0x1 SWAP3 SWAP1 SWAP3 ADD SWAP2 DUP5 ADD PUSH2 0x22AF JUMP JUMPDEST POP SWAP8 SWAP7 POP POP POP POP POP POP POP JUMP JUMPDEST PUSH1 0x0 PUSH2 0x120 DUP3 DUP5 SUB SLT ISZERO PUSH2 0x22EB JUMPI DUP1 DUP2 REVERT JUMPDEST PUSH1 0x40 MLOAD PUSH1 0xE0 DUP2 ADD DUP2 DUP2 LT PUSH8 0xFFFFFFFFFFFFFFFF DUP3 GT OR ISZERO PUSH2 0x2308 JUMPI INVALID JUMPDEST PUSH1 0x40 MSTORE SWAP1 POP DUP1 PUSH2 0x2318 DUP5 DUP5 PUSH2 0x23CF JUMP JUMPDEST DUP2 MSTORE PUSH2 0x2327 DUP5 PUSH1 0x40 DUP6 ADD PUSH2 0x23CF JUMP JUMPDEST PUSH1 0x20 DUP3 ADD MSTORE PUSH1 0x80 DUP4 ADD CALLDATALOAD PUSH1 0x40 DUP3 ADD MSTORE PUSH1 0xA0 DUP4 ADD CALLDATALOAD PUSH1 0x60 DUP3 ADD MSTORE PUSH1 0xC0 DUP4 ADD CALLDATALOAD PUSH1 0x80 DUP3 ADD MSTORE PUSH1 0xE0 DUP4 ADD CALLDATALOAD PUSH1 0xA0 DUP3 ADD MSTORE PUSH2 0x100 DUP4 ADD CALLDATALOAD PUSH1 0xC0 DUP3 ADD MSTORE POP SWAP3 SWAP2 POP POP JUMP JUMPDEST PUSH1 0x0 PUSH1 0xA0 DUP3 DUP5 SUB SLT ISZERO PUSH2 0x2377 JUMPI DUP1 DUP2 REVERT JUMPDEST PUSH1 0x40 MLOAD PUSH1 0xA0 DUP2 ADD DUP2 DUP2 LT PUSH8 0xFFFFFFFFFFFFFFFF DUP3 GT OR ISZERO PUSH2 0x2394 JUMPI INVALID JUMPDEST DUP1 PUSH1 0x40 MSTORE POP DUP1 SWAP2 POP DUP3 CALLDATALOAD DUP2 MSTORE PUSH1 0x20 DUP4 ADD CALLDATALOAD PUSH1 0x20 DUP3 ADD MSTORE PUSH1 0x40 DUP4 ADD CALLDATALOAD PUSH1 0x40 DUP3 ADD MSTORE PUSH1 0x60 DUP4 ADD CALLDATALOAD PUSH1 0x60 DUP3 ADD MSTORE PUSH1 0x80 DUP4 ADD CALLDATALOAD PUSH1 0x80 DUP3 ADD MSTORE POP SWAP3 SWAP2 POP POP JUMP JUMPDEST PUSH1 0x0 PUSH1 0x40 DUP3 DUP5 SUB SLT ISZERO PUSH2 0x23E0 JUMPI DUP1 DUP2 REVERT JUMPDEST PUSH1 0x40 MLOAD PUSH1 0x40 DUP2 ADD DUP2 DUP2 LT PUSH8 0xFFFFFFFFFFFFFFFF DUP3 GT OR ISZERO PUSH2 0x23FD JUMPI INVALID JUMPDEST PUSH1 0x40 MSTORE DUP3 CALLDATALOAD DUP2 MSTORE PUSH1 0x20 SWAP3 DUP4 ADD CALLDATALOAD SWAP3 DUP2 ADD SWAP3 SWAP1 SWAP3 MSTORE POP SWAP2 SWAP1 POP JUMP JUMPDEST PUSH1 0x0 DUP1 PUSH1 0x0 PUSH2 0x1E0 DUP5 DUP7 SUB SLT ISZERO PUSH2 0x242C JUMPI DUP3 DUP4 REVERT JUMPDEST DUP4 CALLDATALOAD PUSH8 0xFFFFFFFFFFFFFFFF DUP2 GT ISZERO PUSH2 0x2442 JUMPI DUP4 DUP5 REVERT JUMPDEST PUSH2 0x244E DUP7 DUP3 DUP8 ADD PUSH2 0x224D JUMP JUMPDEST SWAP4 POP POP PUSH2 0x245E DUP6 PUSH1 0x20 DUP7 ADD PUSH2 0x2366 JUMP JUMPDEST SWAP2 POP PUSH2 0x246D DUP6 PUSH1 0xC0 DUP7 ADD PUSH2 0x22D9 JUMP JUMPDEST SWAP1 POP SWAP3 POP SWAP3 POP SWAP3 JUMP JUMPDEST PUSH1 0x0 DUP1 PUSH1 0x0 DUP1 PUSH2 0x200 DUP6 DUP8 SUB SLT ISZERO PUSH2 0x248C JUMPI DUP1 DUP2 REVERT JUMPDEST DUP5 CALLDATALOAD PUSH8 0xFFFFFFFFFFFFFFFF DUP2 GT ISZERO PUSH2 0x24A2 JUMPI DUP2 DUP3 REVERT JUMPDEST PUSH2 0x24AE DUP8 DUP3 DUP9 ADD PUSH2 0x224D JUMP JUMPDEST SWAP5 POP POP PUSH2 0x24BE DUP7 PUSH1 0x20 DUP8 ADD PUSH2 0x2366 JUMP JUMPDEST SWAP3 POP PUSH2 0x24CD DUP7 PUSH1 0xC0 DUP8 ADD PUSH2 0x22D9 JUMP JUMPDEST SWAP4 SWAP7 SWAP3 SWAP6 POP SWAP3 SWAP4 PUSH2 0x1E0 ADD CALLDATALOAD SWAP3 POP POP JUMP JUMPDEST PUSH1 0x0 DUP1 PUSH1 0x0 DUP1 PUSH1 0x0 DUP1 PUSH2 0x260 DUP8 DUP10 SUB SLT ISZERO PUSH2 0x24F7 JUMPI DUP2 DUP3 REVERT JUMPDEST DUP7 CALLDATALOAD PUSH8 0xFFFFFFFFFFFFFFFF DUP2 GT ISZERO PUSH2 0x250D JUMPI DUP3 DUP4 REVERT JUMPDEST PUSH2 0x2519 DUP10 DUP3 DUP11 ADD PUSH2 0x224D JUMP JUMPDEST SWAP7 POP POP PUSH1 0x20 DUP8 ADD CALLDATALOAD SWAP5 POP PUSH1 0x40 DUP8 ADD CALLDATALOAD DUP1 ISZERO ISZERO DUP2 EQ PUSH2 0x2535 JUMPI DUP3 DUP4 REVERT JUMPDEST SWAP4 POP PUSH2 0x2544 DUP9 PUSH1 0x60 DUP10 ADD PUSH2 0x2366 JUMP JUMPDEST SWAP3 POP PUSH2 0x2554 DUP9 PUSH2 0x100 DUP10 ADD PUSH2 0x22D9 JUMP JUMPDEST SWAP2 POP PUSH2 0x2564 DUP9 PUSH2 0x220 DUP10 ADD PUSH2 0x23CF JUMP JUMPDEST SWAP1 POP SWAP3 SWAP6 POP SWAP3 SWAP6 POP SWAP3 SWAP6 JUMP JUMPDEST PUSH1 0x0 PUSH1 0xA0 DUP3 DUP5 SUB SLT ISZERO PUSH2 0x2581 JUMPI DUP1 DUP2 REVERT JUMPDEST PUSH2 0x8DF DUP4 DUP4 PUSH2 0x2366 JUMP JUMPDEST PUSH1 0x0 DUP1 PUSH2 0x1C0 DUP4 DUP6 SUB SLT ISZERO PUSH2 0x259E JUMPI DUP2 DUP3 REVERT JUMPDEST PUSH2 0x25A8 DUP5 DUP5 PUSH2 0x2366 JUMP JUMPDEST SWAP2 POP PUSH2 0x25B7 DUP5 PUSH1 0xA0 DUP6 ADD PUSH2 0x22D9 JUMP JUMPDEST SWAP1 POP SWAP3 POP SWAP3 SWAP1 POP JUMP JUMPDEST SWAP2 DUP3 MSTORE PUSH1 0x20 DUP3 ADD MSTORE PUSH1 0x40 ADD SWAP1 JUMP JUMPDEST SWAP1 DUP2 MSTORE PUSH1 0x20 ADD SWAP1 JUMP INVALID MSTORE8 PUSH2 0x6665 NUMBER PUSH2 0x7374 GASPRICE KECCAK256 PUSH23 0x616C756520646F65736E27742066697420696E20616E20 PUSH10 0x6E74323536A264697066 PUSH20 0x58221220804FB1598C9E2781E529BDF51D498217 CALLDATASIZE SWAP6 PUSH15 0xFC66957A1710DFD9247F98C11B6473 PUSH16 0x6C634300070600330000000000000000 ","sha1":"77514cfdaff16141cbfebc300c0db674e3839cf7","source":"pragma solidity 0.7.6;\npragma experimental ABIEncoderV2;\n\n// import \"@balancer-labs/v2-solidity-utils/contracts/math/FixedPoint.sol\";\nimport \"../../libraries/GyroFixedPoint.sol\";\nimport \"../../libraries/GyroErrors.sol\";\nimport \"../../libraries/SignedFixedPoint.sol\";\nimport \"../../libraries/GyroPoolMath.sol\";\nimport \"./GyroCEMMPoolErrors.sol\";\nimport \"@balancer-labs/v2-solidity-utils/contracts/math/Math.sol\";\nimport \"@balancer-labs/v2-solidity-utils/contracts/helpers/InputHelpers.sol\";\nimport \"@openzeppelin/contracts/utils/SafeCast.sol\";\n\n// solhint-disable private-vars-leading-underscore\n\n/** @dev CEMM math library. Pretty much a direct translation of the python version (see `tests/`).\n * We use *signed* values here because some of the intermediate results can be negative (e.g. coordinates of points in\n * the untransformed circle, \"prices\" in the untransformed circle).\n */\nlibrary GyroCEMMMath {\n    uint256 internal constant ONEHALF = 0.5e18;\n    int256 internal constant ONE = 1e18; // 18 decimal places\n    int256 internal constant ONE_XP = 1e38; // 38 decimal places\n\n    using SignedFixedPoint for int256;\n    using GyroFixedPoint for uint256;\n    using SafeCast for uint256;\n    using SafeCast for int256;\n\n    // Anti-overflow limits: Params and DerivedParams (static, only needs to be checked on pool creation)\n    int256 internal constant _ROTATION_VECTOR_NORM_ACCURACY = 1e3; // 1e-15 in normal precision\n    int256 internal constant _MAX_STRETCH_FACTOR = 1e26; // 1e8   in normal precision\n    int256 internal constant _DERIVED_TAU_NORM_ACCURACY_XP = 1e23; // 1e-15 in extra precision\n    int256 internal constant _MAX_INV_INVARIANT_DENOMINATOR_XP = 1e43; // 1e5   in extra precision\n    int256 internal constant _DERIVED_DSQ_NORM_ACCURACY_XP = 1e23; // 1e-15 in extra precision\n\n    // Anti-overflow limits: Dynamic values (checked before operations that use them)\n    int256 internal constant _MAX_BALANCES = 1e34; // 1e16 in normal precision\n    int256 internal constant _MAX_INVARIANT = 3e37; // 3e19 in normal precision\n\n    // Note that all t values (not tp or tpp) could consist of uint's, as could all Params. But it's complicated to\n    // convert all the time, so we make them all signed. We also store all intermediate values signed. An exception are\n    // the functions that are used by the contract b/c there the values are stored unsigned.\n    struct Params {\n        // Price bounds (lower and upper). 0 < alpha < beta\n        int256 alpha;\n        int256 beta;\n        // Rotation vector:\n        // phi in (-90 degrees, 0] is the implicit rotation vector. It's stored as a point:\n        int256 c; // c = cos(-phi) >= 0. rounded to 18 decimals\n        int256 s; //  s = sin(-phi) >= 0. rounded to 18 decimals\n        // Invariant: c^2 + s^2 == 1, i.e., the point (c, s) is normalized.\n        // due to rounding, this may not = 1. The term dSq in DerivedParams corrects for this in extra precision\n\n        // Stretching factor:\n        int256 lambda; // lambda >= 1 where lambda == 1 is the circle.\n    }\n\n    // terms in this struct are stored in extra precision (38 decimals) with final decimal rounded down\n    struct DerivedParams {\n        Vector2 tauAlpha;\n        Vector2 tauBeta;\n        int256 u; // from (A chi)_y = lambda * u + v\n        int256 v; // from (A chi)_y = lambda * u + v\n        int256 w; // from (A chi)_x = w / lambda + z\n        int256 z; // from (A chi)_x = w / lambda + z\n        int256 dSq; // error in c^2 + s^2 = dSq, used to correct errors in c, s, tau, u,v,w,z calculations\n        //int256 dAlpha; // normalization constant for tau(alpha)\n        //int256 dBeta; // normalization constant for tau(beta)\n    }\n\n    struct Vector2 {\n        int256 x;\n        int256 y;\n    }\n\n    struct QParams {\n        int256 a;\n        int256 b;\n        int256 c;\n    }\n\n    /** @dev Enforces limits and approximate normalization of the rotation vector. */\n    function validateParams(Params memory params) external pure {\n        _grequire(0 <= params.s && params.s <= ONE, GyroCEMMPoolErrors.ROTATION_VECTOR_WRONG);\n        _grequire(0 <= params.c && params.c <= ONE, GyroCEMMPoolErrors.ROTATION_VECTOR_WRONG);\n\n        Vector2 memory sc = Vector2(params.s, params.c);\n        int256 scnorm2 = scalarProd(sc, sc); // squared norm\n        _grequire(\n            ONE - _ROTATION_VECTOR_NORM_ACCURACY <= scnorm2 && scnorm2 <= ONE + _ROTATION_VECTOR_NORM_ACCURACY,\n            GyroCEMMPoolErrors.ROTATION_VECTOR_NOT_NORMALIZED\n        );\n\n        _grequire(0 <= params.lambda && params.lambda <= _MAX_STRETCH_FACTOR, GyroCEMMPoolErrors.STRETCHING_FACTOR_WRONG);\n    }\n\n    /** @dev Enforces limits and approximate normalization of the derived values.\n    Does NOT check for internal consistency of 'derived' with 'params'. */\n    function validateDerivedParamsLimits(Params memory params, DerivedParams memory derived) external pure {\n        int256 norm2;\n        norm2 = scalarProdXp(derived.tauAlpha, derived.tauAlpha);\n        _grequire(\n            ONE_XP - _DERIVED_TAU_NORM_ACCURACY_XP <= norm2 && norm2 <= ONE_XP + _DERIVED_TAU_NORM_ACCURACY_XP,\n            GyroCEMMPoolErrors.DERIVED_TAU_NOT_NORMALIZED\n        );\n        norm2 = scalarProdXp(derived.tauBeta, derived.tauBeta);\n        _grequire(\n            ONE_XP - _DERIVED_TAU_NORM_ACCURACY_XP <= norm2 && norm2 <= ONE_XP + _DERIVED_TAU_NORM_ACCURACY_XP,\n            GyroCEMMPoolErrors.DERIVED_TAU_NOT_NORMALIZED\n        );\n\n        _grequire(derived.u <= ONE_XP, GyroCEMMPoolErrors.DERIVED_UVWZ_WRONG);\n        _grequire(derived.v <= ONE_XP, GyroCEMMPoolErrors.DERIVED_UVWZ_WRONG);\n        _grequire(derived.w <= ONE_XP, GyroCEMMPoolErrors.DERIVED_UVWZ_WRONG);\n        _grequire(derived.z <= ONE_XP, GyroCEMMPoolErrors.DERIVED_UVWZ_WRONG);\n\n        _grequire(\n            ONE_XP - _DERIVED_DSQ_NORM_ACCURACY_XP <= derived.dSq && derived.dSq <= ONE_XP + _DERIVED_DSQ_NORM_ACCURACY_XP,\n            GyroCEMMPoolErrors.DERIVED_DSQ_WRONG\n        );\n\n        // NB No anti-overflow checks are required given the checks done above and in validateParams().\n        int256 mulDenominator = ONE_XP.divXpU(calcAChiAChiInXp(params, derived) - ONE_XP);\n        _grequire(mulDenominator <= _MAX_INV_INVARIANT_DENOMINATOR_XP, GyroCEMMPoolErrors.INVARIANT_DENOMINATOR_WRONG);\n    }\n\n    function scalarProd(Vector2 memory t1, Vector2 memory t2) internal pure returns (int256 ret) {\n        ret = t1.x.mulDownMag(t2.x).add(t1.y.mulDownMag(t2.y));\n    }\n\n    /// @dev scalar product for extra-precision values\n    function scalarProdXp(Vector2 memory t1, Vector2 memory t2) internal pure returns (int256 ret) {\n        ret = t1.x.mulXp(t2.x).add(t1.y.mulXp(t2.y));\n    }\n\n    // \"Methods\" for Params. We could put these into a separate library and import them via 'using' to get method call\n    // syntax.\n\n    /** @dev Calculate A t where A is given in Section 2.2\n     *  This is reversing rotation and scaling of the ellipse (mapping back to circle) */\n    function mulA(Params memory params, Vector2 memory tp) internal pure returns (Vector2 memory t) {\n        // NB: This function is only used inside calculatePrice(). This is why we can make two simplifications:\n        // 1. We don't correct for precision of s, c using d.dSq because that level of precision is not important in this context.\n        // 2. We don't need to check for over/underflow b/c these are impossible in that context and given the (checked) assumptions on the various values.\n        t.x = params.c.mulDownMagU(tp.x).divDownMagU(params.lambda) - params.s.mulDownMagU(tp.y).divDownMagU(params.lambda);\n        t.y = params.s.mulDownMagU(tp.x) + params.c.mulDownMagU(tp.y);\n    }\n\n    /** @dev Calculate virtual offset a given invariant r.\n     *  See calculation in Section 2.1.2 Computing reserve offsets\n     *  Note that, in contrast to virtual reserve offsets in CPMM, these are *subtracted* from the real\n     *  reserves, moving the curve to the upper-right. They can be positive or negative, but not both can be negative.\n     *  Calculates a = r*(A^{-1}tau(beta))_x rounding up in signed direction\n     *  Notice that error in r is scaled by lambda, and so rounding direction is important */\n    function virtualOffset0(\n        Params memory p,\n        DerivedParams memory d,\n        Vector2 memory r // overestimate in x component, underestimate in y\n    ) internal pure returns (int256 a) {\n        // a = r lambda c tau(beta)_x + rs tau(beta)_y\n        //       account for 1 factors of dSq (2 s,c factors)\n        int256 termXp = d.tauBeta.x.divXpU(d.dSq);\n        a = d.tauBeta.x > 0\n            ? r.x.mulUpMagU(p.lambda).mulUpMagU(p.c).mulUpXpToNpU(termXp)\n            : r.y.mulDownMagU(p.lambda).mulDownMagU(p.c).mulUpXpToNpU(termXp);\n\n        // use fact that tau(beta)_y > 0, so the required rounding direction is clear.\n        a = a + r.x.mulUpMagU(p.s).mulUpXpToNpU(d.tauBeta.y.divXpU(d.dSq));\n    }\n\n    /** @dev calculate virtual offset b given invariant r.\n     *  Calculates b = r*(A^{-1}tau(alpha))_y rounding up in signed direction */\n    function virtualOffset1(\n        Params memory p,\n        DerivedParams memory d,\n        Vector2 memory r // overestimate in x component, underestimate in y\n    ) internal pure returns (int256 b) {\n        // b = -r \\lambda s tau(alpha)_x + rc tau(alpha)_y\n        //       account for 1 factors of dSq (2 s,c factors)\n        int256 termXp = d.tauAlpha.x.divXpU(d.dSq);\n        b = (d.tauAlpha.x < 0)\n            ? r.x.mulUpMagU(p.lambda).mulUpMagU(p.s).mulUpXpToNpU(-termXp)\n            : (-r.y).mulDownMagU(p.lambda).mulDownMagU(p.s).mulUpXpToNpU(termXp);\n\n        // use fact that tau(alpha)_y > 0, so the required rounding direction is clear.\n        b = b + r.x.mulUpMagU(p.c).mulUpXpToNpU(d.tauAlpha.y.divXpU(d.dSq));\n    }\n\n    /** Maximal value for the real reserves x when the respective other balance is 0 for given invariant\n     *  See calculation in Section 2.1.2. Calculation is ordered here for precision, but error in r is magnified by lambda\n     *  Rounds down in signed direction */\n    function maxBalances0(\n        Params memory p,\n        DerivedParams memory d,\n        Vector2 memory r // overestimate in x-component, underestimate in y-component\n    ) internal pure returns (int256 xp) {\n        // x^+ = r lambda c (tau(beta)_x - tau(alpha)_x) + rs (tau(beta)_y - tau(alpha)_y)\n        //      account for 1 factors of dSq (2 s,c factors)\n        int256 termXp1 = (d.tauBeta.x - d.tauAlpha.x).divXpU(d.dSq); // note tauBeta.x > tauAlpha.x, so this is > 0 and rounding direction is clear\n        int256 termXp2 = (d.tauBeta.y - d.tauAlpha.y).divXpU(d.dSq); // note this may be negative, but since tauBeta.y, tauAlpha.y >= 0, it is always in [-1, 1].\n        xp = r.y.mulDownMagU(p.lambda).mulDownMagU(p.c).mulDownXpToNpU(termXp1);\n        xp = xp + (termXp2 > 0 ? r.y.mulDownMagU(p.s) : r.x.mulUpMagU(p.s)).mulDownXpToNpU(termXp2);\n    }\n\n    /** Maximal value for the real reserves y when the respective other balance is 0 for given invariant\n     *  See calculation in Section 2.1.2. Calculation is ordered here for precision, but erorr in r is magnified by lambda\n     *  Rounds down in signed direction */\n    function maxBalances1(\n        Params memory p,\n        DerivedParams memory d,\n        Vector2 memory r // overestimate in x-component, underestimate in y-component\n    ) internal pure returns (int256 yp) {\n        // y^+ = r lambda s (tau(beta)_x - tau(alpha)_x) + rc (tau(alpha)_y - tau(beta)_y)\n        //      account for 1 factors of dSq (2 s,c factors)\n        int256 termXp1 = (d.tauBeta.x - d.tauAlpha.x).divXpU(d.dSq); // note tauBeta.x > tauAlpha.x\n        int256 termXp2 = (d.tauAlpha.y - d.tauBeta.y).divXpU(d.dSq);\n        yp = r.y.mulDownMagU(p.lambda).mulDownMagU(p.s).mulDownXpToNpU(termXp1);\n        yp = yp + (termXp2 > 0 ? r.y.mulDownMagU(p.c) : r.x.mulUpMagU(p.c)).mulDownXpToNpU(termXp2);\n    }\n\n    /** @dev Compute the invariant 'r' corresponding to the given values. The invariant can't be negative, but\n     *  we use a signed value to store it because all the other calculations are happening with signed ints, too.\n     *  Computes r according to Prop 13 in 2.2.1 Initialization from Real Reserves\n     *  orders operations to achieve best precision\n     *  Returns an underestimate and a bound on error size.\n     *  Enforces anti-overflow limits on balances and the computed invariant in the process. */\n    function calculateInvariantWithError(\n        uint256[] memory balances,\n        Params memory params,\n        DerivedParams memory derived\n    ) public pure returns (int256, int256) {\n        (int256 x, int256 y) = (balances[0].toInt256(), balances[1].toInt256());\n        _grequire(x.add(y) <= _MAX_BALANCES, GyroCEMMPoolErrors.MAX_ASSETS_EXCEEDED);\n\n        int256 AtAChi = calcAtAChi(x, y, params, derived);\n        (int256 sqrt, int256 err) = calcInvariantSqrt(x, y, params, derived);\n        // calculate the error in the square root term, separates cases based on sqrt >= 1/2\n        // somedayTODO: can this be improved for cases of large balances (when xp error magnifies to np)\n        // Note: the minimum non-zero value of sqrt is 1e-9 since the minimum argument is 1e-18\n        if (sqrt > 0) {\n            // err + 1 to account for O(eps_np) term ignored before\n            err = (err + 1).divUpMagU(2 * sqrt);\n        } else {\n            // in the false case here, the extra precision error does not magnify, and so the error inside the sqrt is O(1e-18)\n            // somedayTODO: The true case will almost surely never happen (can it be removed)\n            err = err > 0 ? GyroPoolMath._sqrt(err.toUint256(), 5).toInt256() : 1e9;\n        }\n        // calculate the error in the numerator, scale the error by 20 to be sure all possible terms accounted for\n        err = ((params.lambda.mulUpMagU(x + y) / ONE_XP) + err + 1) * 20;\n\n        // A chi \\cdot A chi > 1, so round it up to round denominator up\n        // denominator uses extra precision, so we do * 1/denominator so we are sure the calculation doesn't overflow\n        int256 mulDenominator = ONE_XP.divXpU(calcAChiAChiInXp(params, derived) - ONE_XP);\n        // NOTE: Anti-overflow limits on mulDenominator are checked on contract creation.\n\n        // as alternative, could do, but could overflow: invariant = (AtAChi.add(sqrt) - err).divXp(denominator);\n        int256 invariant = (AtAChi + sqrt - err).mulDownXpToNpU(mulDenominator);\n        // error scales if denominator is small\n        // NB: This error calculation computes the error in the expression \"numerator / denominator\", but in this code\n        // we actually use the formula \"numerator * (1 / denominator)\" to compute the invariant. This affects this line\n        // and the one below.\n        err = err.mulUpXpToNpU(mulDenominator);\n        // account for relative error due to error in the denominator\n        // error in denominator is O(epsilon) if lambda<1e11, scale up by 10 to be sure we catch it, and add O(eps)\n        // error in denominator is lambda^2 * 2e-37 and scales relative to the result / denominator\n        // Scale by a constant to account for errors in the scaling factor itself and limited compounding.\n        // calculating lambda^2 w/o decimals so that the calculation will never overflow, the lost precision isn't important\n        err = err + ((invariant.mulUpXpToNpU(mulDenominator) * ((params.lambda * params.lambda) / 1e36)) * 40) / ONE_XP + 1;\n\n        _grequire(invariant.add(err) <= _MAX_INVARIANT, GyroCEMMPoolErrors.MAX_INVARIANT_EXCEEDED);\n\n        return (invariant, err);\n    }\n\n    function calculateInvariant(\n        uint256[] memory balances,\n        Params memory params,\n        DerivedParams memory derived\n    ) external pure returns (uint256 uinvariant) {\n        (int256 invariant, ) = calculateInvariantWithError(balances, params, derived);\n        uinvariant = invariant.toUint256();\n    }\n\n    /// @dev calculate At \\cdot A chi, ignores rounding direction. We will later compensate for the rounding error.\n    function calcAtAChi(\n        int256 x,\n        int256 y,\n        Params memory p,\n        DerivedParams memory d\n    ) internal pure returns (int256 val) {\n        // to save gas, pre-compute dSq^2 as it will be used 3 times\n        int256 dSq2 = d.dSq.mulXpU(d.dSq);\n\n        // (cx - sy) * (w/lambda + z) / lambda\n        //      account for 2 factors of dSq (4 s,c factors)\n        int256 termXp = (d.w.divDownMagU(p.lambda) + d.z).divDownMagU(p.lambda).divXpU(dSq2);\n        val = (x.mulDownMagU(p.c) - y.mulDownMagU(p.s)).mulDownXpToNpU(termXp);\n\n        // (x lambda s + y lambda c) * u, note u > 0\n        int256 termNp = x.mulDownMagU(p.lambda).mulDownMagU(p.s) + y.mulDownMagU(p.lambda).mulDownMagU(p.c);\n        val = val + termNp.mulDownXpToNpU(d.u.divXpU(dSq2));\n\n        // (sx+cy) * v, note v > 0\n        termNp = x.mulDownMagU(p.s) + y.mulDownMagU(p.c);\n        val = val + termNp.mulDownXpToNpU(d.v.divXpU(dSq2));\n    }\n\n    /// @dev calculates A chi \\cdot A chi in extra precision\n    /// Note: this can be >1 (and involves factor of lambda^2). We can compute it in extra precision w/o overflowing b/c it will be\n    /// at most 38 + 16 digits (38 from decimals, 2*8 from lambda^2 if lambda=1e8)\n    /// Since we will only divide by this later, we will not need to worry about overflow in that operation if done in the right way\n    /// TODO: is rounding direction ok?\n    function calcAChiAChiInXp(Params memory p, DerivedParams memory d) internal pure returns (int256 val) {\n        // to save gas, pre-compute dSq^3 as it will be used 4 times\n        int256 dSq3 = d.dSq.mulXpU(d.dSq).mulXpU(d.dSq);\n\n        // (A chi)_y^2 = lambda^2 u^2 + lambda 2 u v + v^2\n        //      account for 3 factors of dSq (6 s,c factors)\n        // SOMEDAY: In these calcs, a calculated value is multiplied by lambda and lambda^2, resp, which implies some\n        // error amplification. It's fine b/c we're doing it in extra precision here, but would still be nice if it\n        // could be avoided, perhaps by splitting up the numbers into a high and low part.\n        val = p.lambda.mulUpMagU((2 * d.u).mulXpU(d.v).divXpU(dSq3));\n        // for lambda^2 u^2 factor in rounding error in u since lambda could be big\n        // Note: lambda^2 is multiplied at the end to be sure the calculation doesn't overflow, but this can lose some precision\n        val = val + ((d.u + 1).mulXpU(d.u + 1).divXpU(dSq3)).mulUpMagU(p.lambda).mulUpMagU(p.lambda);\n        // the next line converts from extre precision to normal precision post-computation while rounding up\n        val = val + (d.v).mulXpU(d.v).divXpU(dSq3);\n\n        // (A chi)_x^2 = (w/lambda + z)^2\n        //      account for 3 factors of dSq (6 s,c factors)\n        int256 termXp = d.w.divUpMagU(p.lambda) + d.z;\n        val = val + termXp.mulXpU(termXp).divXpU(dSq3);\n    }\n\n    /// @dev calculate -(At)_x ^2 (A chi)_y ^2 + (At)_x ^2, rounding down in signed direction\n    function calcMinAtxAChiySqPlusAtxSq(\n        int256 x,\n        int256 y,\n        Params memory p,\n        DerivedParams memory d\n    ) internal pure returns (int256 val) {\n        ////////////////////////////////////////////////////////////////////////////////////\n        // (At)_x^2 (A chi)_y^2 = (x^2 c^2 - xy2sc + y^2 s^2) (u^2 + 2uv/lambda + v^2/lambda^2)\n        //      account for 4 factors of dSq (8 s,c factors)\n        //\n        // (At)_x^2 = (x^2 c^2 - xy2sc + y^2 s^2)/lambda^2\n        //      account for 1 factor of dSq (2 s,c factors)\n        ////////////////////////////////////////////////////////////////////////////////////\n        int256 termNp = x.mulUpMagU(x).mulUpMagU(p.c).mulUpMagU(p.c) + y.mulUpMagU(y).mulUpMagU(p.s).mulUpMagU(p.s);\n        termNp = termNp - x.mulDownMagU(y).mulDownMagU(p.c * 2).mulDownMagU(p.s);\n\n        int256 termXp = d.u.mulXpU(d.u) + (2 * d.u).mulXpU(d.v).divDownMagU(p.lambda) + d.v.mulXpU(d.v).divDownMagU(p.lambda).divDownMagU(p.lambda);\n        termXp = termXp.divXpU(d.dSq.mulXpU(d.dSq).mulXpU(d.dSq).mulXpU(d.dSq));\n        val = (-termNp).mulDownXpToNpU(termXp);\n\n        // now calculate (At)_x^2 accounting for possible rounding error to round down\n        // need to do 1/dSq in a way so that there is no overflow for large balances\n        val = val + (termNp - 9).divDownMagU(p.lambda).divDownMagU(p.lambda).mulDownXpToNpU(SignedFixedPoint.ONE_XP.divXpU(d.dSq));\n    }\n\n    /// @dev calculate 2(At)_x * (At)_y * (A chi)_x * (A chi)_y, ignores rounding direction\n    //  Note: this ignores rounding direction and is corrected for later\n    function calc2AtxAtyAChixAChiy(\n        int256 x,\n        int256 y,\n        Params memory p,\n        DerivedParams memory d\n    ) internal pure returns (int256 val) {\n        ////////////////////////////////////////////////////////////////////////////////////\n        // = ((x^2 - y^2)sc + yx(c^2-s^2)) * 2 * (zu + (wu + zv)/lambda + wv/lambda^2)\n        //      account for 4 factors of dSq (8 s,c factors)\n        ////////////////////////////////////////////////////////////////////////////////////\n        int256 termNp = (x.mulDownMagU(x) - y.mulUpMagU(y)).mulDownMagU(2 * p.c).mulDownMagU(p.s);\n        int256 xy = y.mulDownMagU(2 * x);\n        termNp = termNp + xy.mulDownMagU(p.c).mulDownMagU(p.c) - xy.mulDownMagU(p.s).mulDownMagU(p.s);\n\n        int256 termXp = d.z.mulXpU(d.u) + d.w.mulXpU(d.v).divDownMagU(p.lambda).divDownMagU(p.lambda);\n        termXp = termXp + (d.w.mulXpU(d.u) + d.z.mulXpU(d.v)).divDownMagU(p.lambda);\n        termXp = termXp.divXpU(d.dSq.mulXpU(d.dSq).mulXpU(d.dSq).mulXpU(d.dSq));\n\n        val = termNp.mulDownXpToNpU(termXp);\n    }\n\n    /// @dev calculate -(At)_y ^2 (A chi)_x ^2 + (At)_y ^2, rounding down in signed direction\n    function calcMinAtyAChixSqPlusAtySq(\n        int256 x,\n        int256 y,\n        Params memory p,\n        DerivedParams memory d\n    ) internal pure returns (int256 val) {\n        ////////////////////////////////////////////////////////////////////////////////////\n        // (At)_y^2 (A chi)_x^2 = (x^2 s^2 + xy2sc + y^2 c^2) * (z^2 + 2zw/lambda + w^2/lambda^2)\n        //      account for 4 factors of dSq (8 s,c factors)\n        // (At)_y^2 = (x^2 s^2 + xy2sc + y^2 c^2)\n        //      account for 1 factor of dSq (2 s,c factors)\n        ////////////////////////////////////////////////////////////////////////////////////\n        int256 termNp = x.mulUpMagU(x).mulUpMagU(p.s).mulUpMagU(p.s) + y.mulUpMagU(y).mulUpMagU(p.c).mulUpMagU(p.c);\n        termNp = termNp + x.mulUpMagU(y).mulUpMagU(p.s * 2).mulUpMagU(p.c);\n\n        int256 termXp = d.z.mulXpU(d.z) + d.w.mulXpU(d.w).divDownMagU(p.lambda).divDownMagU(p.lambda);\n        termXp = termXp + (2 * d.z).mulXpU(d.w).divDownMagU(p.lambda);\n        termXp = termXp.divXpU(d.dSq.mulXpU(d.dSq).mulXpU(d.dSq).mulXpU(d.dSq));\n        val = (-termNp).mulDownXpToNpU(termXp);\n\n        // now calculate (At)_y^2 accounting for possible rounding error to round down\n        // need to do 1/dSq in a way so that there is no overflow for large balances\n        val = val + (termNp - 9).mulDownXpToNpU(SignedFixedPoint.ONE_XP.divXpU(d.dSq));\n    }\n\n    /// @dev Rounds down. Also returns an estimate for the error of the term under the sqrt (!) and without the regular\n    /// normal-precision error of O(1e-18).\n    function calcInvariantSqrt(\n        int256 x,\n        int256 y,\n        Params memory p,\n        DerivedParams memory d\n    ) internal pure returns (int256 val, int256 err) {\n        val = calcMinAtxAChiySqPlusAtxSq(x, y, p, d) + calc2AtxAtyAChixAChiy(x, y, p, d);\n        val = val + calcMinAtyAChixSqPlusAtySq(x, y, p, d);\n        // error inside the square root is O((x^2 + y^2) * eps_xp) + O(eps_np), where eps_xp=1e-38, eps_np=1e-18\n        // note that in terms of rounding down, error corrects for calc2AtxAtyAChixAChiy()\n        // however, we also use this error to correct the invariant for an overestimate in swaps, it is all the same order though\n        // Note the O(eps_np) term will be dealt with later, so not included yet\n        // Note that the extra precision term doesn't propagate unless balances are > 100b\n        err = (x.mulUpMagU(x) + y.mulUpMagU(y)) / 1e38;\n        // we will account for the error later after the square root\n        // mathematically, terms in square root > 0, so treat as 0 if it is < 0 b/c of rounding error\n        val = val > 0 ? GyroPoolMath._sqrt(val.toUint256(), 5).toInt256() : 0;\n    }\n\n    /** @dev Instantanteous price.\n     *  See Prop. 12 in 2.1.6 Computing Prices */\n    function calculatePrice(\n        uint256[] memory balances,\n        Params memory params,\n        DerivedParams memory derived,\n        int256 invariant\n    ) external pure returns (uint256 px) {\n        // shift by virtual offsets to get v(t)\n        Vector2 memory r = Vector2(invariant, invariant); // ignore r rounding for spot price, precision will be lost in TWAP anyway\n        Vector2 memory ab = Vector2(virtualOffset0(params, derived, r), virtualOffset1(params, derived, r));\n        Vector2 memory vec = Vector2(balances[0].toInt256() - ab.x, balances[1].toInt256() - ab.y);\n\n        // transform to circle to get Av(t)\n        vec = mulA(params, vec);\n        // compute prices on circle\n        Vector2 memory pc = Vector2(vec.x.divDownMagU(vec.y), ONE);\n\n        // Convert prices back to ellipse\n        // NB: These operations check for overflow because the price pc[0] might be large when vex.y is small.\n        // SOMEDAY I think this probably can't actually happen due to our bounds on the different values. In this case we could do this unchecked as well.\n        int256 pgx = scalarProd(pc, mulA(params, Vector2(ONE, 0)));\n        px = pgx.divDownMag(scalarProd(pc, mulA(params, Vector2(0, ONE)))).toUint256();\n    }\n\n    /** @dev Check that post-swap balances obey maximal asset bounds\n     *  newBalance = post-swap balance of one asset\n     *  assetIndex gives the index of the provided asset (0 = X, 1 = Y) */\n    function checkAssetBounds(\n        Params memory params,\n        DerivedParams memory derived,\n        Vector2 memory invariant,\n        int256 newBal,\n        uint8 assetIndex\n    ) internal pure {\n        if (assetIndex == 0) {\n            int256 xPlus = maxBalances0(params, derived, invariant);\n            if (!(newBal <= _MAX_BALANCES && newBal <= xPlus)) _grequire(false, GyroCEMMPoolErrors.ASSET_BOUNDS_EXCEEDED);\n            return;\n        }\n        {\n            int256 yPlus = maxBalances1(params, derived, invariant);\n            if (!(newBal <= _MAX_BALANCES && newBal <= yPlus)) _grequire(false, GyroCEMMPoolErrors.ASSET_BOUNDS_EXCEEDED);\n        }\n    }\n\n    function calcOutGivenIn(\n        uint256[] memory balances,\n        uint256 amountIn,\n        bool tokenInIsToken0,\n        Params memory params,\n        DerivedParams memory derived,\n        Vector2 memory invariant\n    ) external pure returns (uint256 amountOut) {\n        function(int256, Params memory, DerivedParams memory, Vector2 memory) pure returns (int256) calcGiven;\n        uint8 ixIn;\n        uint8 ixOut;\n        if (tokenInIsToken0) {\n            ixIn = 0;\n            ixOut = 1;\n            calcGiven = calcYGivenX;\n        } else {\n            ixIn = 1;\n            ixOut = 0;\n            calcGiven = calcXGivenY;\n        }\n\n        int256 balInNew = balances[ixIn].add(amountIn).toInt256(); // checked because amountIn is given by the user.\n        checkAssetBounds(params, derived, invariant, balInNew, ixIn);\n        int256 balOutNew = calcGiven(balInNew, params, derived, invariant);\n        // Make sub checked as an extra check against numerical error; but this really should never happen\n        amountOut = balances[ixOut].sub(balOutNew.toUint256());\n        // The above line guarantees that amountOut <= balances[ixOut].\n    }\n\n    function calcInGivenOut(\n        uint256[] memory balances,\n        uint256 amountOut,\n        bool tokenInIsToken0,\n        Params memory params,\n        DerivedParams memory derived,\n        Vector2 memory invariant\n    ) external pure returns (uint256 amountIn) {\n        function(int256, Params memory, DerivedParams memory, Vector2 memory) pure returns (int256) calcGiven;\n        uint8 ixIn;\n        uint8 ixOut;\n        if (tokenInIsToken0) {\n            ixIn = 0;\n            ixOut = 1;\n            calcGiven = calcXGivenY; // this reverses compared to calcOutGivenIn\n        } else {\n            ixIn = 1;\n            ixOut = 0;\n            calcGiven = calcYGivenX; // this reverses compared to calcOutGivenIn\n        }\n\n        if (!(amountOut <= balances[ixOut])) _grequire(false, GyroCEMMPoolErrors.ASSET_BOUNDS_EXCEEDED);\n        int256 balOutNew = (balances[ixOut] - amountOut).toInt256();\n        int256 balInNew = calcGiven(balOutNew, params, derived, invariant);\n        // The checks in the following two lines should really always succeed; we keep them as extra safety against numerical error.\n        checkAssetBounds(params, derived, invariant, balInNew, ixIn);\n        amountIn = balInNew.toUint256().sub(balances[ixIn]);\n    }\n\n    /** @dev Variables are named for calculating y given x\n     *  to calculate x given y, change x->y, s->c, c->s, a_>b, b->a, tauBeta.x -> -tauAlpha.x, tauBeta.y -> tauAlpha.y\n     *  calculates an overestimate of calculated reserve post-swap */\n    function solveQuadraticSwap(\n        int256 lambda,\n        int256 x,\n        int256 s,\n        int256 c,\n        Vector2 memory r, // overestimate in x component, underestimate in y\n        Vector2 memory ab,\n        Vector2 memory tauBeta,\n        int256 dSq\n    ) internal pure returns (int256) {\n        // x component will round up, y will round down, use extra precision\n        Vector2 memory lamBar;\n        lamBar.x = SignedFixedPoint.ONE_XP - SignedFixedPoint.ONE_XP.divDownMagU(lambda).divDownMagU(lambda);\n        // Note: The following cannot become negative even with errors because we require lambda >= 1 and\n        // divUpMag returns the exact result if the quotient is representable in 18 decimals.\n        lamBar.y = SignedFixedPoint.ONE_XP - SignedFixedPoint.ONE_XP.divUpMagU(lambda).divUpMagU(lambda);\n        // using qparams struct to avoid \"stack too deep\"\n        QParams memory q;\n        // shift by the virtual offsets\n        // note that we want an overestimate of offset here so that -x'*lambar*s*c is overestimated in signed direction\n        // account for 1 factor of dSq (2 s,c factors)\n        int256 xp = x - ab.x;\n        if (xp > 0) {\n            q.b = (-xp).mulDownMagU(s).mulDownMagU(c).mulUpXpToNpU(lamBar.y.divXpU(dSq));\n        } else {\n            q.b = (-xp).mulUpMagU(s).mulUpMagU(c).mulUpXpToNpU(lamBar.x.divXpU(dSq) + 1);\n        }\n\n        // x component will round up, y will round down, use extra precision\n        // account for 1 factor of dSq (2 s,c factors)\n        Vector2 memory sTerm;\n        // we wil take sTerm = 1 - sTerm below, using multiple lines to avoid \"stack too deep\"\n        sTerm.x = lamBar.y.mulDownMagU(s).mulDownMagU(s).divXpU(dSq);\n        sTerm.y = lamBar.x.mulUpMagU(s);\n        sTerm.y = sTerm.y.mulUpMagU(s).divXpU(dSq + 1) + 1; // account for rounding error in dSq, divXp\n        sTerm = Vector2(SignedFixedPoint.ONE_XP - sTerm.x, SignedFixedPoint.ONE_XP - sTerm.y);\n        // ^^ NB: The components of sTerm are non-negative: We only need to worry about sTerm.y. This is non-negative b/c, because of bounds on lambda lamBar <= 1 - 1e-16, and division by dSq ensures we have enough precision so that rounding errors are never magnitude 1e-16.\n\n        // now compute the argument of the square root\n        q.c = -calcXpXpDivLambdaLambda(x, r, lambda, s, c, tauBeta, dSq);\n        q.c = q.c + r.y.mulDownMagU(r.y).mulDownXpToNpU(sTerm.y);\n        // the square root is always being subtracted, so round it down to overestimate the end balance\n        // mathematically, terms in square root > 0, so treat as 0 if it is < 0 b/c of rounding error\n        q.c = q.c > 0 ? GyroPoolMath._sqrt(q.c.toUint256(), 5).toInt256() : 0;\n\n        // calculate the result in q.a\n        if (q.b - q.c > 0) {\n            q.a = (q.b - q.c).mulUpXpToNpU(SignedFixedPoint.ONE_XP.divXpU(sTerm.y) + 1);\n        } else {\n            q.a = (q.b - q.c).mulUpXpToNpU(SignedFixedPoint.ONE_XP.divXpU(sTerm.x));\n        }\n\n        // lastly, add the offset, note that we want an overestimate of offset here\n        return q.a + ab.y;\n    }\n\n    /** @dev Calculates x'x'/λ^2 where x' = x - b = x - r (A^{-1}tau(beta))_x\n     *  calculates an overestimate\n     *  to calculate y'y', change x->y, s->c, c->s, tauBeta.x -> -tauAlpha.x, tauBeta.y -> tauAlpha.y  */\n    function calcXpXpDivLambdaLambda(\n        int256 x,\n        Vector2 memory r, // overestimate in x component, underestimate in y\n        int256 lambda,\n        int256 s,\n        int256 c,\n        Vector2 memory tauBeta,\n        int256 dSq\n    ) internal pure returns (int256) {\n        //////////////////////////////////////////////////////////////////////////////////\n        // x'x'/lambda^2 = r^2 c^2 tau(beta)_x^2\n        //      + ( r^2 2s c tau(beta)_x tau(beta)_y - rx 2c tau(beta)_x ) / lambda\n        //      + ( r^2 s^2 tau(beta)_y^2 - rx 2s tau(beta)_y + x^2 ) / lambda^2\n        //////////////////////////////////////////////////////////////////////////////////\n        // to save gas, pre-compute dSq^2 as it will be used 3 times, and r.x^2 as it will be used 2-3 times\n        // sqVars = (dSq^2, r.x^2)\n        Vector2 memory sqVars = Vector2(dSq.mulXpU(dSq), r.x.mulUpMagU(r.x));\n\n        QParams memory q; // for working terms\n        // q.a = r^2 s 2c tau(beta)_x tau(beta)_y\n        //      account for 2 factors of dSq (4 s,c factors)\n        int256 termXp = tauBeta.x.mulXpU(tauBeta.y).divXpU(sqVars.x);\n        if (termXp > 0) {\n            q.a = sqVars.y.mulUpMagU(2 * s);\n            q.a = q.a.mulUpMagU(c).mulUpXpToNpU(termXp + 7); // +7 account for rounding in termXp\n        } else {\n            q.a = r.y.mulDownMagU(r.y).mulDownMagU(2 * s);\n            q.a = q.a.mulDownMagU(c).mulUpXpToNpU(termXp);\n        }\n\n        // -rx 2c tau(beta)_x\n        //      account for 1 factor of dSq (2 s,c factors)\n        if (tauBeta.x < 0) {\n            // +3 account for rounding in extra precision terms\n            q.b = r.x.mulUpMagU(x).mulUpMagU(2 * c).mulUpXpToNpU(-tauBeta.x.divXpU(dSq) + 3);\n        } else {\n            q.b = (-r.y).mulDownMagU(x).mulDownMagU(2 * c).mulUpXpToNpU(tauBeta.x.divXpU(dSq));\n        }\n        // q.a later needs to be divided by lambda\n        q.a = q.a + q.b;\n\n        // q.b = r^2 s^2 tau(beta)_y^2\n        //      account for 2 factors of dSq (4 s,c factors)\n        termXp = tauBeta.y.mulXpU(tauBeta.y).divXpU(sqVars.x) + 7; // +7 account for rounding in termXp\n        q.b = sqVars.y.mulUpMagU(s);\n        q.b = q.b.mulUpMagU(s).mulUpXpToNpU(termXp);\n\n        // q.c = -rx 2s tau(beta)_y, recall that tauBeta.y > 0 so round lower in magnitude\n        //      account for 1 factor of dSq (2 s,c factors)\n        q.c = (-r.y).mulDownMagU(x).mulDownMagU(2 * s).mulUpXpToNpU(tauBeta.y.divXpU(dSq));\n\n        // (q.b + q.c + x^2) / lambda\n        q.b = q.b + q.c + x.mulUpMagU(x);\n        q.b = q.b > 0 ? q.b.divUpMagU(lambda) : q.b.divDownMagU(lambda);\n\n        // remaining calculation is (q.a + q.b) / lambda\n        q.a = q.a + q.b;\n        q.a = q.a > 0 ? q.a.divUpMagU(lambda) : q.a.divDownMagU(lambda);\n\n        // + r^2 c^2 tau(beta)_x^2\n        //      account for 2 factors of dSq (4 s,c factors)\n        termXp = tauBeta.x.mulXpU(tauBeta.x).divXpU(sqVars.x) + 7; // +7 account for rounding in termXp\n        int256 val = sqVars.y.mulUpMagU(c).mulUpMagU(c);\n        return (val.mulUpXpToNpU(termXp)) + q.a;\n    }\n\n    /** @dev compute y such that (x, y) satisfy the invariant at the given parameters.\n     *  Note that we calculate an overestimate of y\n     *   See Prop 14 in section 2.2.2 Trade Execution */\n    function calcYGivenX(\n        int256 x,\n        Params memory params,\n        DerivedParams memory d,\n        Vector2 memory r // overestimate in x component, underestimate in y\n    ) internal pure returns (int256 y) {\n        // want to overestimate the virtual offsets except in a particular setting that will be corrected for later\n        // note that the error correction in the invariant should more than make up for uncaught rounding directions (in 38 decimals) in virtual offsets\n        Vector2 memory ab = Vector2(virtualOffset0(params, d, r), virtualOffset1(params, d, r));\n        y = solveQuadraticSwap(params.lambda, x, params.s, params.c, r, ab, d.tauBeta, d.dSq);\n    }\n\n    function calcXGivenY(\n        int256 y,\n        Params memory params,\n        DerivedParams memory d,\n        Vector2 memory r // overestimate in x component, underestimate in y\n    ) internal pure returns (int256 x) {\n        // want to overestimate the virtual offsets except in a particular setting that will be corrected for later\n        // note that the error correction in the invariant should more than make up for uncaught rounding directions (in 38 decimals) in virtual offsets\n        Vector2 memory ba = Vector2(virtualOffset1(params, d, r), virtualOffset0(params, d, r));\n        // change x->y, s->c, c->s, b->a, a->b, tauBeta.x -> -tauAlpha.x, tauBeta.y -> tauAlpha.y vs calcYGivenX\n        x = solveQuadraticSwap(params.lambda, y, params.c, params.s, r, ba, Vector2(-d.tauAlpha.x, d.tauAlpha.y), d.dSq);\n    }\n}\n","sourcePath":"contracts/cemm/GyroCEMMMath.sol","type":"library","deployment":{"address":"0x914591F04985bbda51F1178852548168637B764f","chainid":"5","blockHeight":7668884}}