{"abi":[{"inputs":[{"components":[{"components":[{"internalType":"contract IVault","name":"vault","type":"address"},{"internalType":"string","name":"name","type":"string"},{"internalType":"string","name":"symbol","type":"string"},{"internalType":"contract IERC20","name":"token0","type":"address"},{"internalType":"contract IERC20","name":"token1","type":"address"},{"internalType":"uint256","name":"swapFeePercentage","type":"uint256"},{"internalType":"uint256","name":"pauseWindowDuration","type":"uint256"},{"internalType":"uint256","name":"bufferPeriodDuration","type":"uint256"},{"internalType":"bool","name":"oracleEnabled","type":"bool"},{"internalType":"address","name":"owner","type":"address"}],"internalType":"struct ExtensibleWeightedPool2Tokens.NewPoolParams","name":"baseParams","type":"tuple"},{"components":[{"internalType":"int256","name":"alpha","type":"int256"},{"internalType":"int256","name":"beta","type":"int256"},{"internalType":"int256","name":"c","type":"int256"},{"internalType":"int256","name":"s","type":"int256"},{"internalType":"int256","name":"lambda","type":"int256"}],"internalType":"struct GyroECLPMath.Params","name":"eclpParams","type":"tuple"},{"components":[{"components":[{"internalType":"int256","name":"x","type":"int256"},{"internalType":"int256","name":"y","type":"int256"}],"internalType":"struct GyroECLPMath.Vector2","name":"tauAlpha","type":"tuple"},{"components":[{"internalType":"int256","name":"x","type":"int256"},{"internalType":"int256","name":"y","type":"int256"}],"internalType":"struct GyroECLPMath.Vector2","name":"tauBeta","type":"tuple"},{"internalType":"int256","name":"u","type":"int256"},{"internalType":"int256","name":"v","type":"int256"},{"internalType":"int256","name":"w","type":"int256"},{"internalType":"int256","name":"z","type":"int256"},{"internalType":"int256","name":"dSq","type":"int256"}],"internalType":"struct GyroECLPMath.DerivedParams","name":"derivedEclpParams","type":"tuple"},{"internalType":"address","name":"capManager","type":"address"},{"components":[{"internalType":"bool","name":"capEnabled","type":"bool"},{"internalType":"uint120","name":"perAddressCap","type":"uint120"},{"internalType":"uint128","name":"globalCap","type":"uint128"}],"internalType":"struct ICappedLiquidity.CapParams","name":"capParams","type":"tuple"},{"internalType":"address","name":"pauseManager","type":"address"}],"internalType":"struct GyroECLPPool.GyroParams","name":"params","type":"tuple"},{"internalType":"address","name":"configAddress","type":"address"}],"stateMutability":"nonpayable","type":"constructor","name":"constructor"},{"anonymous":false,"inputs":[{"indexed":true,"internalType":"address","name":"owner","type":"address"},{"indexed":true,"internalType":"address","name":"spender","type":"address"},{"indexed":false,"internalType":"uint256","name":"value","type":"uint256"}],"name":"Approval","type":"event"},{"anonymous":false,"inputs":[{"indexed":false,"internalType":"address","name":"capManager","type":"address"}],"name":"CapManagerUpdated","type":"event"},{"anonymous":false,"inputs":[{"components":[{"internalType":"bool","name":"capEnabled","type":"bool"},{"internalType":"uint120","name":"perAddressCap","type":"uint120"},{"internalType":"uint128","name":"globalCap","type":"uint128"}],"indexed":false,"internalType":"struct ICappedLiquidity.CapParams","name":"params","type":"tuple"}],"name":"CapParamsUpdated","type":"event"},{"anonymous":false,"inputs":[{"indexed":false,"internalType":"bool","name":"derivedParamsValidated","type":"bool"}],"name":"ECLPDerivedParamsValidated","type":"event"},{"anonymous":false,"inputs":[{"indexed":false,"internalType":"bool","name":"paramsValidated","type":"bool"}],"name":"ECLPParamsValidated","type":"event"},{"anonymous":false,"inputs":[{"indexed":false,"internalType":"uint256","name":"invariantAfterJoin","type":"uint256"}],"name":"InvariantAterInitializeJoin","type":"event"},{"anonymous":false,"inputs":[{"indexed":false,"internalType":"uint256","name":"oldInvariant","type":"uint256"},{"indexed":false,"internalType":"uint256","name":"newInvariant","type":"uint256"}],"name":"InvariantOldAndNew","type":"event"},{"anonymous":false,"inputs":[{"indexed":false,"internalType":"bool","name":"enabled","type":"bool"}],"name":"OracleEnabledChanged","type":"event"},{"anonymous":false,"inputs":[{"indexed":false,"internalType":"uint256","name":"oracleUpdatedIndex","type":"uint256"}],"name":"OracleIndexUpdated","type":"event"},{"anonymous":false,"inputs":[{"indexed":false,"internalType":"address","name":"oldPauseManager","type":"address"},{"indexed":false,"internalType":"address","name":"newPauseManager","type":"address"}],"name":"PauseManagerChanged","type":"event"},{"anonymous":false,"inputs":[],"name":"PausedLocally","type":"event"},{"anonymous":false,"inputs":[{"indexed":false,"internalType":"bool","name":"paused","type":"bool"}],"name":"PausedStateChanged","type":"event"},{"anonymous":false,"inputs":[{"indexed":false,"internalType":"uint256","name":"swapFeePercentage","type":"uint256"}],"name":"SwapFeePercentageChanged","type":"event"},{"anonymous":false,"inputs":[{"indexed":false,"internalType":"uint256[]","name":"balances","type":"uint256[]"},{"components":[{"internalType":"int256","name":"x","type":"int256"},{"internalType":"int256","name":"y","type":"int256"}],"indexed":false,"internalType":"struct GyroECLPMath.Vector2","name":"invariant","type":"tuple"},{"indexed":false,"internalType":"uint256","name":"amount","type":"uint256"}],"name":"SwapParams","type":"event"},{"anonymous":false,"inputs":[{"indexed":true,"internalType":"address","name":"from","type":"address"},{"indexed":true,"internalType":"address","name":"to","type":"address"},{"indexed":false,"internalType":"uint256","name":"value","type":"uint256"}],"name":"Transfer","type":"event"},{"anonymous":false,"inputs":[],"name":"UnpausedLocally","type":"event"},{"inputs":[],"name":"DOMAIN_SEPARATOR","outputs":[{"internalType":"bytes32","name":"","type":"bytes32"}],"stateMutability":"view","type":"function"},{"inputs":[],"name":"_dSq","outputs":[{"internalType":"int256","name":"","type":"int256"}],"stateMutability":"view","type":"function"},{"inputs":[],"name":"_paramsAlpha","outputs":[{"internalType":"int256","name":"","type":"int256"}],"stateMutability":"view","type":"function"},{"inputs":[],"name":"_paramsBeta","outputs":[{"internalType":"int256","name":"","type":"int256"}],"stateMutability":"view","type":"function"},{"inputs":[],"name":"_paramsC","outputs":[{"internalType":"int256","name":"","type":"int256"}],"stateMutability":"view","type":"function"},{"inputs":[],"name":"_paramsLambda","outputs":[{"internalType":"int256","name":"","type":"int256"}],"stateMutability":"view","type":"function"},{"inputs":[],"name":"_paramsS","outputs":[{"internalType":"int256","name":"","type":"int256"}],"stateMutability":"view","type":"function"},{"inputs":[],"name":"_tauAlphaX","outputs":[{"internalType":"int256","name":"","type":"int256"}],"stateMutability":"view","type":"function"},{"inputs":[],"name":"_tauAlphaY","outputs":[{"internalType":"int256","name":"","type":"int256"}],"stateMutability":"view","type":"function"},{"inputs":[],"name":"_tauBetaX","outputs":[{"internalType":"int256","name":"","type":"int256"}],"stateMutability":"view","type":"function"},{"inputs":[],"name":"_tauBetaY","outputs":[{"internalType":"int256","name":"","type":"int256"}],"stateMutability":"view","type":"function"},{"inputs":[],"name":"_u","outputs":[{"internalType":"int256","name":"","type":"int256"}],"stateMutability":"view","type":"function"},{"inputs":[],"name":"_v","outputs":[{"internalType":"int256","name":"","type":"int256"}],"stateMutability":"view","type":"function"},{"inputs":[],"name":"_w","outputs":[{"internalType":"int256","name":"","type":"int256"}],"stateMutability":"view","type":"function"},{"inputs":[],"name":"_z","outputs":[{"internalType":"int256","name":"","type":"int256"}],"stateMutability":"view","type":"function"},{"inputs":[{"internalType":"address","name":"owner","type":"address"},{"internalType":"address","name":"spender","type":"address"}],"name":"allowance","outputs":[{"internalType":"uint256","name":"","type":"uint256"}],"stateMutability":"view","type":"function"},{"inputs":[{"internalType":"address","name":"spender","type":"address"},{"internalType":"uint256","name":"amount","type":"uint256"}],"name":"approve","outputs":[{"internalType":"bool","name":"","type":"bool"}],"stateMutability":"nonpayable","type":"function"},{"inputs":[{"internalType":"address","name":"account","type":"address"}],"name":"balanceOf","outputs":[{"internalType":"uint256","name":"","type":"uint256"}],"stateMutability":"view","type":"function"},{"inputs":[],"name":"capManager","outputs":[{"internalType":"address","name":"","type":"address"}],"stateMutability":"view","type":"function"},{"inputs":[],"name":"capParams","outputs":[{"components":[{"internalType":"bool","name":"capEnabled","type":"bool"},{"internalType":"uint120","name":"perAddressCap","type":"uint120"},{"internalType":"uint128","name":"globalCap","type":"uint128"}],"internalType":"struct ICappedLiquidity.CapParams","name":"","type":"tuple"}],"stateMutability":"view","type":"function"},{"inputs":[{"internalType":"address","name":"_pauseManager","type":"address"}],"name":"changePauseManager","outputs":[],"stateMutability":"nonpayable","type":"function"},{"inputs":[],"name":"decimals","outputs":[{"internalType":"uint8","name":"","type":"uint8"}],"stateMutability":"view","type":"function"},{"inputs":[{"internalType":"address","name":"spender","type":"address"},{"internalType":"uint256","name":"amount","type":"uint256"}],"name":"decreaseAllowance","outputs":[{"internalType":"bool","name":"","type":"bool"}],"stateMutability":"nonpayable","type":"function"},{"inputs":[{"internalType":"uint256","name":"startIndex","type":"uint256"},{"internalType":"uint256","name":"endIndex","type":"uint256"}],"name":"dirtyUninitializedOracleSamples","outputs":[],"stateMutability":"nonpayable","type":"function"},{"inputs":[],"name":"enableOracle","outputs":[],"stateMutability":"nonpayable","type":"function"},{"inputs":[{"internalType":"bytes4","name":"selector","type":"bytes4"}],"name":"getActionId","outputs":[{"internalType":"bytes32","name":"","type":"bytes32"}],"stateMutability":"view","type":"function"},{"inputs":[],"name":"getAuthorizer","outputs":[{"internalType":"contract IAuthorizer","name":"","type":"address"}],"stateMutability":"view","type":"function"},{"inputs":[],"name":"getECLPParams","outputs":[{"components":[{"internalType":"int256","name":"alpha","type":"int256"},{"internalType":"int256","name":"beta","type":"int256"},{"internalType":"int256","name":"c","type":"int256"},{"internalType":"int256","name":"s","type":"int256"},{"internalType":"int256","name":"lambda","type":"int256"}],"internalType":"struct GyroECLPMath.Params","name":"params","type":"tuple"},{"components":[{"components":[{"internalType":"int256","name":"x","type":"int256"},{"internalType":"int256","name":"y","type":"int256"}],"internalType":"struct GyroECLPMath.Vector2","name":"tauAlpha","type":"tuple"},{"components":[{"internalType":"int256","name":"x","type":"int256"},{"internalType":"int256","name":"y","type":"int256"}],"internalType":"struct GyroECLPMath.Vector2","name":"tauBeta","type":"tuple"},{"internalType":"int256","name":"u","type":"int256"},{"internalType":"int256","name":"v","type":"int256"},{"internalType":"int256","name":"w","type":"int256"},{"internalType":"int256","name":"z","type":"int256"},{"internalType":"int256","name":"dSq","type":"int256"}],"internalType":"struct GyroECLPMath.DerivedParams","name":"d","type":"tuple"}],"stateMutability":"view","type":"function"},{"inputs":[],"name":"getInvariant","outputs":[{"internalType":"uint256","name":"","type":"uint256"}],"stateMutability":"view","type":"function"},{"inputs":[],"name":"getLargestSafeQueryWindow","outputs":[{"internalType":"uint256","name":"","type":"uint256"}],"stateMutability":"pure","type":"function"},{"inputs":[],"name":"getLastInvariant","outputs":[{"internalType":"uint256","name":"","type":"uint256"}],"stateMutability":"view","type":"function"},{"inputs":[{"internalType":"enum IPriceOracle.Variable","name":"variable","type":"uint8"}],"name":"getLatest","outputs":[{"internalType":"uint256","name":"","type":"uint256"}],"stateMutability":"view","type":"function"},{"inputs":[],"name":"getMiscData","outputs":[{"internalType":"int256","name":"logInvariant","type":"int256"},{"internalType":"int256","name":"logTotalSupply","type":"int256"},{"internalType":"uint256","name":"oracleSampleCreationTimestamp","type":"uint256"},{"internalType":"uint256","name":"oracleIndex","type":"uint256"},{"internalType":"bool","name":"oracleEnabled","type":"bool"},{"internalType":"uint256","name":"swapFeePercentage","type":"uint256"}],"stateMutability":"view","type":"function"},{"inputs":[],"name":"getNormalizedWeights","outputs":[{"internalType":"uint256[]","name":"","type":"uint256[]"}],"stateMutability":"view","type":"function"},{"inputs":[],"name":"getOwner","outputs":[{"internalType":"address","name":"","type":"address"}],"stateMutability":"view","type":"function"},{"inputs":[{"components":[{"internalType":"enum IPriceOracle.Variable","name":"variable","type":"uint8"},{"internalType":"uint256","name":"ago","type":"uint256"}],"internalType":"struct IPriceOracle.OracleAccumulatorQuery[]","name":"queries","type":"tuple[]"}],"name":"getPastAccumulators","outputs":[{"internalType":"int256[]","name":"results","type":"int256[]"}],"stateMutability":"view","type":"function"},{"inputs":[],"name":"getPausedState","outputs":[{"internalType":"bool","name":"paused","type":"bool"},{"internalType":"uint256","name":"pauseWindowEndTime","type":"uint256"},{"internalType":"uint256","name":"bufferPeriodEndTime","type":"uint256"}],"stateMutability":"view","type":"function"},{"inputs":[],"name":"getPoolId","outputs":[{"internalType":"bytes32","name":"","type":"bytes32"}],"stateMutability":"view","type":"function"},{"inputs":[],"name":"getRate","outputs":[{"internalType":"uint256","name":"","type":"uint256"}],"stateMutability":"view","type":"function"},{"inputs":[{"internalType":"uint256","name":"index","type":"uint256"}],"name":"getSample","outputs":[{"internalType":"int256","name":"logPairPrice","type":"int256"},{"internalType":"int256","name":"accLogPairPrice","type":"int256"},{"internalType":"int256","name":"logBptPrice","type":"int256"},{"internalType":"int256","name":"accLogBptPrice","type":"int256"},{"internalType":"int256","name":"logInvariant","type":"int256"},{"internalType":"int256","name":"accLogInvariant","type":"int256"},{"internalType":"uint256","name":"timestamp","type":"uint256"}],"stateMutability":"view","type":"function"},{"inputs":[],"name":"getSwapFeePercentage","outputs":[{"internalType":"uint256","name":"","type":"uint256"}],"stateMutability":"view","type":"function"},{"inputs":[{"components":[{"internalType":"enum IPriceOracle.Variable","name":"variable","type":"uint8"},{"internalType":"uint256","name":"secs","type":"uint256"},{"internalType":"uint256","name":"ago","type":"uint256"}],"internalType":"struct IPriceOracle.OracleAverageQuery[]","name":"queries","type":"tuple[]"}],"name":"getTimeWeightedAverage","outputs":[{"internalType":"uint256[]","name":"results","type":"uint256[]"}],"stateMutability":"view","type":"function"},{"inputs":[],"name":"getTotalSamples","outputs":[{"internalType":"uint256","name":"","type":"uint256"}],"stateMutability":"pure","type":"function"},{"inputs":[],"name":"getVault","outputs":[{"internalType":"contract IVault","name":"","type":"address"}],"stateMutability":"view","type":"function"},{"inputs":[],"name":"gyroConfig","outputs":[{"internalType":"contract IGyroConfig","name":"","type":"address"}],"stateMutability":"view","type":"function"},{"inputs":[{"internalType":"address","name":"spender","type":"address"},{"internalType":"uint256","name":"addedValue","type":"uint256"}],"name":"increaseAllowance","outputs":[{"internalType":"bool","name":"","type":"bool"}],"stateMutability":"nonpayable","type":"function"},{"inputs":[],"name":"name","outputs":[{"internalType":"string","name":"","type":"string"}],"stateMutability":"view","type":"function"},{"inputs":[{"internalType":"address","name":"owner","type":"address"}],"name":"nonces","outputs":[{"internalType":"uint256","name":"","type":"uint256"}],"stateMutability":"view","type":"function"},{"inputs":[{"internalType":"bytes32","name":"poolId","type":"bytes32"},{"internalType":"address","name":"sender","type":"address"},{"internalType":"address","name":"recipient","type":"address"},{"internalType":"uint256[]","name":"balances","type":"uint256[]"},{"internalType":"uint256","name":"lastChangeBlock","type":"uint256"},{"internalType":"uint256","name":"protocolSwapFeePercentage","type":"uint256"},{"internalType":"bytes","name":"userData","type":"bytes"}],"name":"onExitPool","outputs":[{"internalType":"uint256[]","name":"","type":"uint256[]"},{"internalType":"uint256[]","name":"","type":"uint256[]"}],"stateMutability":"nonpayable","type":"function"},{"inputs":[{"internalType":"bytes32","name":"poolId","type":"bytes32"},{"internalType":"address","name":"sender","type":"address"},{"internalType":"address","name":"recipient","type":"address"},{"internalType":"uint256[]","name":"balances","type":"uint256[]"},{"internalType":"uint256","name":"lastChangeBlock","type":"uint256"},{"internalType":"uint256","name":"protocolSwapFeePercentage","type":"uint256"},{"internalType":"bytes","name":"userData","type":"bytes"}],"name":"onJoinPool","outputs":[{"internalType":"uint256[]","name":"amountsIn","type":"uint256[]"},{"internalType":"uint256[]","name":"dueProtocolFeeAmounts","type":"uint256[]"}],"stateMutability":"nonpayable","type":"function"},{"inputs":[{"components":[{"internalType":"enum IVault.SwapKind","name":"kind","type":"uint8"},{"internalType":"contract IERC20","name":"tokenIn","type":"address"},{"internalType":"contract IERC20","name":"tokenOut","type":"address"},{"internalType":"uint256","name":"amount","type":"uint256"},{"internalType":"bytes32","name":"poolId","type":"bytes32"},{"internalType":"uint256","name":"lastChangeBlock","type":"uint256"},{"internalType":"address","name":"from","type":"address"},{"internalType":"address","name":"to","type":"address"},{"internalType":"bytes","name":"userData","type":"bytes"}],"internalType":"struct IPoolSwapStructs.SwapRequest","name":"request","type":"tuple"},{"internalType":"uint256","name":"balanceTokenIn","type":"uint256"},{"internalType":"uint256","name":"balanceTokenOut","type":"uint256"}],"name":"onSwap","outputs":[{"internalType":"uint256","name":"","type":"uint256"}],"stateMutability":"nonpayable","type":"function"},{"inputs":[],"name":"pause","outputs":[],"stateMutability":"nonpayable","type":"function"},{"inputs":[],"name":"pauseManager","outputs":[{"internalType":"address","name":"","type":"address"}],"stateMutability":"view","type":"function"},{"inputs":[{"internalType":"address","name":"owner","type":"address"},{"internalType":"address","name":"spender","type":"address"},{"internalType":"uint256","name":"value","type":"uint256"},{"internalType":"uint256","name":"deadline","type":"uint256"},{"internalType":"uint8","name":"v","type":"uint8"},{"internalType":"bytes32","name":"r","type":"bytes32"},{"internalType":"bytes32","name":"s","type":"bytes32"}],"name":"permit","outputs":[],"stateMutability":"nonpayable","type":"function"},{"inputs":[{"internalType":"bytes32","name":"poolId","type":"bytes32"},{"internalType":"address","name":"sender","type":"address"},{"internalType":"address","name":"recipient","type":"address"},{"internalType":"uint256[]","name":"balances","type":"uint256[]"},{"internalType":"uint256","name":"lastChangeBlock","type":"uint256"},{"internalType":"uint256","name":"protocolSwapFeePercentage","type":"uint256"},{"internalType":"bytes","name":"userData","type":"bytes"}],"name":"queryExit","outputs":[{"internalType":"uint256","name":"bptIn","type":"uint256"},{"internalType":"uint256[]","name":"amountsOut","type":"uint256[]"}],"stateMutability":"nonpayable","type":"function"},{"inputs":[{"internalType":"bytes32","name":"poolId","type":"bytes32"},{"internalType":"address","name":"sender","type":"address"},{"internalType":"address","name":"recipient","type":"address"},{"internalType":"uint256[]","name":"balances","type":"uint256[]"},{"internalType":"uint256","name":"lastChangeBlock","type":"uint256"},{"internalType":"uint256","name":"protocolSwapFeePercentage","type":"uint256"},{"internalType":"bytes","name":"userData","type":"bytes"}],"name":"queryJoin","outputs":[{"internalType":"uint256","name":"bptOut","type":"uint256"},{"internalType":"uint256[]","name":"amountsIn","type":"uint256[]"}],"stateMutability":"nonpayable","type":"function"},{"inputs":[{"internalType":"address","name":"_capManager","type":"address"}],"name":"setCapManager","outputs":[],"stateMutability":"nonpayable","type":"function"},{"inputs":[{"components":[{"internalType":"bool","name":"capEnabled","type":"bool"},{"internalType":"uint120","name":"perAddressCap","type":"uint120"},{"internalType":"uint128","name":"globalCap","type":"uint128"}],"internalType":"struct ICappedLiquidity.CapParams","name":"params","type":"tuple"}],"name":"setCapParams","outputs":[],"stateMutability":"nonpayable","type":"function"},{"inputs":[{"internalType":"bool","name":"paused","type":"bool"}],"name":"setPaused","outputs":[],"stateMutability":"nonpayable","type":"function"},{"inputs":[{"internalType":"uint256","name":"swapFeePercentage","type":"uint256"}],"name":"setSwapFeePercentage","outputs":[],"stateMutability":"nonpayable","type":"function"},{"inputs":[],"name":"symbol","outputs":[{"internalType":"string","name":"","type":"string"}],"stateMutability":"view","type":"function"},{"inputs":[],"name":"totalSupply","outputs":[{"internalType":"uint256","name":"","type":"uint256"}],"stateMutability":"view","type":"function"},{"inputs":[{"internalType":"address","name":"recipient","type":"address"},{"internalType":"uint256","name":"amount","type":"uint256"}],"name":"transfer","outputs":[{"internalType":"bool","name":"","type":"bool"}],"stateMutability":"nonpayable","type":"function"},{"inputs":[{"internalType":"address","name":"sender","type":"address"},{"internalType":"address","name":"recipient","type":"address"},{"internalType":"uint256","name":"amount","type":"uint256"}],"name":"transferFrom","outputs":[{"internalType":"bool","name":"","type":"bool"}],"stateMutability":"nonpayable","type":"function"},{"inputs":[],"name":"unpause","outputs":[],"stateMutability":"nonpayable","type":"function"}],"bytecode":"6104606040527f6e71edae12b1b97f4d1f60370fef10105fa2faae0126114a169c64845d6126c9610120526706f05b59d3b20000610200819052610220526000610240523480156200005057600080fd5b506040516200742c3803806200742c833981016040819052620000739162001022565b8160a001518260600151836080015184600001518060c001518160e001518260200151836040015184600001518280604051806040016040528060018152602001603160f81b81525085858a6101200151336001600160a01b031660001b806080818152505050806001600160a01b031660a0816001600160a01b031660601b815250505081600390805190602001906200011092919062000c02565b5080516200012690600490602084019062000c02565b505060058054601260ff1990911617905550815160209283012060c052805191012060e052507f8b73c3c69bb8fe3d512ecc4cf759cc79239f7b179b0ffacaa9a75d522b39400f6101005260601b6001600160601b03191661014052506200019990506276a700831115610194620006b6565b620001ad62278d00821115610195620006b6565b42919091016101608190520161018052604080516002808252606082018352600092602083019080368337019050509050816060015181600081518110620001f157fe5b60200260200101906001600160a01b031690816001600160a01b0316815250508160800151816001815181106200022457fe5b60200260200101906001600160a01b031690816001600160a01b0316815250506200025a81620006cb60201b62001e931760201c565b6101008201516200026b90620006d7565b60a08201516200027b9062000733565b81516040516309b2760f60e01b81526000916001600160a01b0316906309b2760f90620002ae90600290600401620011e5565b602060405180830381600087803b158015620002c957600080fd5b505af1158015620002de573d6000803e3d6000fd5b505050506040513d601f19601f8201168201806040525081019062000304919062001009565b83516040805160028082526060820183529394506001600160a01b03909216926366a9c7d2928592879290602083019080368337019050506040518463ffffffff1660e01b81526004016200035c939291906200114b565b600060405180830381600087803b1580156200037757600080fd5b505af11580156200038c573d6000803e3d6000fd5b5050506101a082905250606080840180516001600160601b031990831b81166101c052608086015190921b9091166101e05251620003ca90620007b1565b610260526080830151620003de90620007b1565b61028052505060408051808201909152600e81526d1b9bdd08185d5d1a1bdc9a5e995960921b602082015290506001600160a01b0383166200043e5760405162461bcd60e51b8152600401620004359190620011fa565b60405180910390fd5b50600c80546001600160a01b0319166001600160a01b039384161790558051600b8054602084015160409094015160ff1990911692151592909217610100600160801b0319166101006001600160781b0390941693909302929092176001600160801b03908116600160801b9190921602179055620004c39082161515606962000855565b600d80546001600160a01b0319166001600160a01b03928316179055620004f09082161515607862000855565b6200050a82602001516200086660201b62001ea11760201c565b7ff468331437e1ec2fec64fc27f23a28b085a09e90f385338d4b58cb638607977760016040516200053c919062001140565b60405180910390a160208201516040808401519051636e70c2ef60e01b815273__GyroECLPMath__________________________92636e70c2ef9262000585926004016200122f565b60006040518083038186803b1580156200059e57600080fd5b505af4158015620005b3573d6000803e3d6000fd5b505050507f614fd1489cdee8181582fbbc1933d6870cd06c6f22d314b97a650ffa547c6ccd6001604051620005e9919062001140565b60405180910390a160208281015180518183015160408084015160608086015160809687015161032052610300526102e0919091526102c0929092526102a09290925294810151805180519085015182860151805196015193830151978301519483015160a084015160c0909401516104405261042093909352610400929092526103e0939093526103c0959095526103a052610380919091526103609290925261034091909152600e80546001600160a01b0319166001600160a01b0390921691909117905562001327565b81620006c757620006c78162000951565b5050565b80620006c781620009a4565b620006f38160095462000a2e60201b62001f7e1790919060201c565b6009556040517f3e350b41e86a8e10f804ade6d35340d620be35569cc75ac943e8bb14ab80ead1906200072890839062001140565b60405180910390a150565b6200074864e8d4a5100082101560cb620006b6565b6200076067016345785d8a000082111560ca620006b6565b6200077c8160095462000a5460201b62001f8c1790919060201c565b6009556040517fa9ba3ffe0b6c366b81232caab38605a0699ad5398d6cce76f91ee809e322dafc9062000728908390620012c7565b600080826001600160a01b031663313ce5676040518163ffffffff1660e01b815260040160206040518083038186803b158015620007ee57600080fd5b505afa15801562000803573d6000803e3d6000fd5b505050506040513d601f19601f820116820180604052508101906200082991906200110e565b60ff16905060006200084860128362000a7360201b62001f9a1760201c565b600a0a925050505b919050565b81620006c757620006c78162000a8b565b6200089581606001516000131580156200088c5750670de0b6b3a7640000826060015113155b61016362000855565b620008c381604001516000131580156200088c5750670de0b6b3a76400008260400151131561016362000855565b604080518082018252606083015181529082015160208201526000620008ea828062000a9d565b90506200091a670de0b6b3a763fc188212801590620009115750670de0b6b3a76403e88213155b61016462000855565b6200094c83608001516000131580156200094357506a52b7d2dcc80cd2e4000000846080015113155b61016862000855565b505050565b62461bcd60e51b6000908152602060045260076024526642414c23000030600a808404818106603090810160081b95839006959095019082900491820690940160101b939093010160c81b604452606490fd5b600281511015620009b55762000a2b565b600081600081518110620009c557fe5b602002602001015190506000600190505b82518110156200094c576000838281518110620009ef57fe5b6020026020010151905062000a20816001600160a01b0316846001600160a01b0316106065620006b660201b60201c565b9150600101620009d6565b50565b600062000a4d8260558562000af460201b62001fb0179092919060201c565b9392505050565b600062000a4d8260568562000b1d60201b62001fd7179092919060201c565b600062000a85838311156001620006b6565b50900390565b62000a2b816223aca960e91b62000b32565b600062000a4d62000ac58360200151856020015162000b9360201b62001fec1790919060201c565b8351855162000ae09162000b93602090811b62001fec17901c565b62000bd460201b620020281790919060201c565b60006001821b198416828462000b0c57600062000b0f565b60015b60ff16901b17949350505050565b6001600160401b03811b1992909216911b1790565b62461bcd60e51b600090815260206004526007602452600a808404818106603090810160081b958390069590950190829004918206850160101b01602363ffffff0060e086901c160160181b0190930160c81b60445260e882901c90606490fd5b600082820283158062000baf57508284828162000bac57fe5b05145b62000bc25762000bc260006003620006b6565b670de0b6b3a764000090059392505050565b60008282018183121562000beb5783811262000bf0565b838112155b62000a4d5762000a4d600080620006b6565b828054600181600116156101000203166002900490600052602060002090601f01602090048101928262000c3a576000855562000c85565b82601f1062000c5557805160ff191683800117855562000c85565b8280016001018555821562000c85579182015b8281111562000c8557825182559160200191906001019062000c68565b5062000c9392915062000c97565b5090565b5b8082111562000c93576000815560010162000c98565b80516001600160a01b03811681146200085057600080fd5b805180151581146200085057600080fd5b600082601f83011262000ce8578081fd5b81516001600160401b0381111562000cfc57fe5b62000d11601f8201601f1916602001620012d0565b81815284602083860101111562000d26578283fd5b62000d39826020830160208701620012f4565b949350505050565b60006060828403121562000d53578081fd5b604051606081016001600160401b038111828210171562000d7057fe5b60405290508062000d818362000cc6565b815260208301516001600160781b038116811462000d9e57600080fd5b602082015260408301516001600160801b038116811462000dbe57600080fd5b6040919091015292915050565b6000610120828403121562000dde578081fd5b60405160e081016001600160401b038111828210171562000dfb57fe5b60405290508062000e0d848462000fc0565b815262000e1e846040850162000fc0565b60208201526080830151604082015260a0830151606082015260c0830151608082015260e083015160a082015261010083015160c08201525092915050565b600061014080838503121562000e71578182fd5b62000e7c81620012d0565b91505062000e8a8262000cae565b815260208201516001600160401b038082111562000ea757600080fd5b62000eb58583860162000cd7565b6020840152604084015191508082111562000ecf57600080fd5b5062000ede8482850162000cd7565b60408301525062000ef26060830162000cae565b606082015262000f056080830162000cae565b608082015260a082015160a082015260c082015160c082015260e082015160e082015261010062000f3881840162000cc6565b9082015261012062000f4c83820162000cae565b9082015292915050565b600060a0828403121562000f68578081fd5b60405160a081016001600160401b038111828210171562000f8557fe5b806040525080915082518152602083015160208201526040830151604082015260608301516060820152608083015160808201525092915050565b60006040828403121562000fd2578081fd5b604080519081016001600160401b038111828210171562000fef57fe5b604052825181526020928301519281019290925250919050565b6000602082840312156200101b578081fd5b5051919050565b6000806040838503121562001035578081fd5b82516001600160401b03808211156200104c578283fd5b90840190610280828703121562001061578283fd5b6200106d60c0620012d0565b8251828111156200107c578485fd5b6200108a8882860162000e5d565b8252506200109c876020850162000f56565b6020820152620010b08760c0850162000dcb565b6040820152620010c46101e0840162000cae565b6060820152620010d987610200850162000d41565b6080820152620010ed610260840162000cae565b60a08201529350620011059150506020840162000cae565b90509250929050565b60006020828403121562001120578081fd5b815160ff8116811462000a4d578182fd5b80518252602090810151910152565b901515815260200190565b60006060820185835260206060818501528186518084526080860191508288019350845b81811015620011965784516001600160a01b0316835293830193918301916001016200116f565b505084810360408601528551808252908201925081860190845b81811015620011d75782516001600160a01b031685529383019391830191600101620011b0565b509298975050505050505050565b6020810160038310620011f457fe5b91905290565b60006020825282518060208401526200121b816040850160208701620012f4565b601f01601f19169190910160400192915050565b60006101c08201905083518252602084015160208301526040840151604083015260608401516060830152608084015160808301526200127460a08301845162001131565b60208301516200128860e084018262001131565b5060408301516101208301526060830151610140830152608083015161016083015260a083015161018083015260c08301516101a08301529392505050565b90815260200190565b6040518181016001600160401b0381118282101715620012ec57fe5b604052919050565b60005b8381101562001311578181015183820152602001620012f7565b8381111562001321576000848401525b50505050565b60805160a05160601c60c05160e05161010051610120516101405160601c61016051610180516101a0516101c05160601c6101e05160601c61020051610220516102405161026051610280516102a0516102c0516102e05161030051610320516103405161036051610380516103a0516103c0516103e051610400516104205161044051615f6a620014c260003980611b4b5280612bdb525080611dff5280612c015250806113675280612c27525080611b035280612c4f525080610ada5280612c745250806109935280612b4852508061125d5280612b6d525080611e605280612b90525080610e675280612bb8525080610e8b5280612a77525080611b275280612aa1525080610f295280612acb52508061092c5280612af5525080611a245280612b1f525080612ed5525080612efc52505080613da3525080613dca5250806115d7528061161e525080611597528061165e525080610c515250806121a052508061217c5250806114e5525080611b9c5250806123d25250806124145250806123f35250806114c15250806114475250615f6a6000f3fe608060405234801561001057600080fd5b50600436106103db5760003560e01c806374f3b0091161020a578063a9059cbb11610125578063c4fea7c9116100b8578063dc09f3aa11610087578063dc09f3aa14610799578063dd62ed3e146107a1578063ddb387c9146107b4578063f89f27ed146107bc578063ffd088eb146107c4576103db565b8063c4fea7c914610763578063ce4823871461076b578063d505accf14610773578063d5c096c414610786576103db565b8063b48b5b40116100f4578063b48b5b4014610743578063bcc436921461074b578063c0ff1a1514610753578063c2c3bd6a1461075b576103db565b8063a9059cbb1461070d578063aaabadc514610720578063abd13afe14610728578063b10be73914610730576103db565b8063851c1bb31161019d57806395d89b411161016c57806395d89b41146106d75780639b02cdde146106df5780639d2c110c146106e7578063a457c2d7146106fa576103db565b8063851c1bb3146106a157806387ec6817146106b4578063893d20e8146106c75780638d928af8146106cf576103db565b80637ef355cd116101d95780637ef355cd146106765780638002df181461067e5780638143eb76146106915780638456cb5914610699576103db565b806374f3b0091461061957806376e54a461461063a5780637be219a21461064d5780637ecebe0014610663576103db565b806338fff2d0116102fa578063591a137f1161028d578063679aefce1161025c578063679aefce146105d65780636b843239146105de5780636d785a87146105fe57806370a0823114610606576103db565b8063591a137f1461057f5780636028bfd41461058757806360d1507c146105a857806366e9ddf4146105ce576103db565b806344bbdb55116102c957806344bbdb55146105405780634a6b0b151461055557806355c676281461056f57806358ecbcc314610577576103db565b806338fff2d01461050857806339509351146105105780633aeae0d3146105235780633f4ba83a14610538576103db565b80631dccd83011610372578063313ce56711610341578063313ce567146104c55780633331bc36146104da5780633644e515146104ed57806338e9922e146104f5576103db565b80631dccd830146104825780632024cf41146104a257806323b872dd146104aa578063292c914a146104bd576103db565b806316c38b3c116103ae57806316c38b3c1461044857806318160ddd1461045b5780631c0de051146104635780631d86bb991461047a576103db565b806306fdde03146103e0578063095ea7b3146103fe5780630e608b301461041e5780631469ed6c14610433575b600080fd5b6103e86107cc565b6040516103f59190615d61565b60405180910390f35b61041161040c366004615415565b610862565b6040516103f59190615c5a565b61043161042c3660046152f0565b610879565b005b61043b61092a565b6040516103f59190615c7d565b6104316104563660046156a5565b61094e565b61043b610962565b61046b610968565b6040516103f593929190615c65565b61043b610991565b6104956104903660046155d9565b6109b5565b6040516103f59190615b29565b61043b610ad8565b6104116104b8366004615360565b610afc565b610431610b72565b6104cd610ba6565b6040516103f59190615ea9565b6104316104e83660046159c4565b610baf565b61043b610c27565b6104316105033660046159ac565b610c36565b61043b610c4f565b61041161051e366004615415565b610c73565b61052b610cae565b6040516103f59190615db4565b610431610cf9565b610548610dee565b6040516103f59190615ad1565b61055d610dfd565b6040516103f596959493929190615cb6565b61043b610e58565b61043b610e65565b61043b610e89565b61059a6105953660046156bf565b610ead565b6040516103f5929190615e82565b6105bb6105b63660046159ac565b610ede565b6040516103f59796959493929190615c86565b61043b610f27565b61043b610f4b565b6105f16105ec36600461550b565b610f70565b6040516103f59190615ae5565b610548611026565b61043b6106143660046152f0565b611035565b61062c6106273660046156bf565b611054565b6040516103f5929190615b3c565b610431610648366004615838565b6110f9565b610655611220565b6040516103f5929190615e14565b61043b6106713660046152f0565b611240565b61043b61125b565b61043161068c3660046152f0565b61127f565b61043b611365565b610431611389565b61043b6106af3660046157bb565b611441565b61059a6106c23660046156bf565b61149a565b6105486114bf565b6105486114e3565b6103e8611507565b61043b611568565b61043b6106f53660046158b6565b61156e565b610411610708366004615415565b611923565b61041161071b366004615415565b611961565b61054861196e565b610548611978565b61043b61073e3660046157e3565b611987565b61043b611a1c565b61043b611a22565b61043b611a46565b61043b611b01565b61043b611b25565b61043b611b49565b6104316107813660046153a0565b611b6d565b61062c6107943660046156bf565b611cdd565b61043b611dfd565b61043b6107af366004615328565b611e21565b61043b611e5e565b610495611e82565b61043b611e8c565b60038054604080516020601f60026000196101006001881615020190951694909404938401819004810282018101909252828152606093909290918301828280156108585780601f1061082d57610100808354040283529160200191610858565b820191906000526020600020905b81548152906001019060200180831161083b57829003601f168201915b5050505050905090565b600061086f338484612051565b5060015b92915050565b600c5460408051808201909152600e81526d1b9bdd08185d5d1a1bdc9a5e995960921b6020820152906001600160a01b031633146108d35760405162461bcd60e51b81526004016108ca9190615d61565b60405180910390fd5b50600c80546001600160a01b0319166001600160a01b0383161790556040517fb8fd9afc34c38fcd13b9a3b7646482eb1fddcefb40af2c70609972816eba32089061091f908390615ad1565b60405180910390a150565b7f000000000000000000000000000000000000000000000000000000000000000081565b6109566120b3565b61095f816120e1565b50565b60025490565b600080600061097561215d565b15925061098061217a565b915061098a61219e565b9050909192565b7f000000000000000000000000000000000000000000000000000000000000000081565b606081516001600160401b03811180156109ce57600080fd5b506040519080825280602002602001820160405280156109f8578160200160208202803683370190505b5090506000610a056121c2565b905060005b8351811015610ad15773__QueryProcessor________________________6379eaef826008868481518110610a3b57fe5b6020026020010151856040518463ffffffff1660e01b8152600401610a6293929190615d28565b60206040518083038186803b158015610a7a57600080fd5b505af4158015610a8e573d6000803e3d6000fd5b505050506040513d601f19601f82011682018060405250810190610ab291906157fd565b838281518110610abe57fe5b6020908102919091010152600101610a0a565b5050919050565b7f000000000000000000000000000000000000000000000000000000000000000081565b600080610b098533611e21565b9050610b2d336001600160a01b0387161480610b255750838210155b61019e6121cf565b610b388585856121dd565b336001600160a01b03861614801590610b5357506000198114155b15610b6557610b658533858403612051565b60019150505b9392505050565b610b7a6122c5565b610b826120b3565b610b8c60016122d8565b6000610b96610962565b1115610ba457610ba4612318565b565b60055460ff1690565b610bca8183108015610bc357506104008211155b60646121cf565b6000610bdf6001600080600080600080612360565b9050825b82811015610c2157600081815260086020526040902054610c03906123c2565b610c195760008181526008602052604090208290555b600101610be3565b50505050565b6000610c316123ce565b905090565b610c3e6120b3565b610c466122c5565b61095f8161248c565b7f000000000000000000000000000000000000000000000000000000000000000090565b3360008181526001602090815260408083206001600160a01b0387168452909152812054909161086f918590610ca990866124f5565b612051565b610cb661511e565b5060408051606081018252600b5460ff81161515825261010081046001600160781b03166020830152600160801b90046001600160801b03169181019190915290565b600d546040805180820190915260118152703737ba103830bab9b29036b0b730b3b2b960791b6020820152906001600160a01b03163314610db85760405162461bcd60e51b81526004018080602001828103825283818151815260200191508051906020019080838360005b83811015610d7d578181015183820152602001610d65565b50505050905090810190601f168015610daa5780820380516001836020036101000a031916815260200191505b509250505060405180910390fd5b50610dc36000610956565b6040517f215385c8bfc731925ec8068d7baa50f6b6f34417cc7804f7273dc2c0b3db279090600090a1565b600e546001600160a01b031681565b60008060008060008060006009549050610e1681612507565b9650610e2181612513565b9550610e2c81612520565b9450610e378161252d565b9350610e428161253a565b9250610e4d81612547565b915050909192939495565b6000610c31600954612547565b7f000000000000000000000000000000000000000000000000000000000000000081565b7f000000000000000000000000000000000000000000000000000000000000000081565b60006060610ebd86516002612554565b610ed2898989898989896125616126dc61275a565b97509795505050505050565b6000806000806000806000610ef9610400891061013b6121cf565b6000610f048961286d565b9050610f0f8161287f565b959f949e50929c50909a509850965090945092505050565b7f000000000000000000000000000000000000000000000000000000000000000081565b6000610c31610f58610962565b610f6a610f63611a46565b60026128e2565b90612906565b606081516001600160401b0381118015610f8957600080fd5b50604051908082528060200260200182016040528015610fb3578160200160208202803683370190505b5090506000610fc06121c2565b9050610fca61513e565b60005b845181101561101e57848181518110610fe257fe5b60200260200101519150610fff8260000151848460200151612960565b84828151811061100b57fe5b6020908102919091010152600101610fcd565b505050919050565b600c546001600160a01b031681565b6001600160a01b0381166000908152602081905260409020545b919050565b6060808861107e6110636114e3565b6001600160a01b0316336001600160a01b03161460cd6121cf565b611093611089610c4f565b82146101f46121cf565b61109c876129f9565b60008060006110b08d8d8d8d8d8d8d612561565b9250925092506110c08c84612a5b565b6110c9826126dc565b6110d2816126dc565b6110da61215d565b156110e7576110e7612318565b909c909b509950505050505050505050565b600c5460408051808201909152600e81526d1b9bdd08185d5d1a1bdc9a5e995960921b6020820152906001600160a01b0316331461114a5760405162461bcd60e51b81526004016108ca9190615d61565b50600b5460408051808201909152601081526f1c1bdbdb081a5cc81d5b98d85c1c195960821b60208201529060ff166111965760405162461bcd60e51b81526004016108ca9190615d61565b508051600b8054602084015160408086015160ff19909316941515949094176fffffffffffffffffffffffffffffff0019166101006001600160781b0390921691909102176001600160801b03908116600160801b919092160217815590517f2abf5970d7bc1a2b36eaae52dd2cc353edb0337c7284ef8a01973081b4e044249161091f91615de9565b611228615155565b611230615184565b611238612a65565b915091509091565b6001600160a01b031660009081526006602052604090205490565b7f000000000000000000000000000000000000000000000000000000000000000081565b600d546040805180820190915260118152703737ba103830bab9b29036b0b730b3b2b960791b60208201526001600160a01b03909116903382146113045760405162461bcd60e51b8152602060048201818152835160248401528351909283926044909101919085019080838360008315610d7d578181015183820152602001610d65565b50600d80546001600160a01b0319166001600160a01b03848116918217909255604080519284168352602083019190915280517f1ffccd1fa96f4fb3415df8048a0fd107344e262d2d246c85105e2a3f8f3e81989281900390910190a15050565b7f000000000000000000000000000000000000000000000000000000000000000081565b600d546040805180820190915260118152703737ba103830bab9b29036b0b730b3b2b960791b6020820152906001600160a01b0316331461140b5760405162461bcd60e51b8152602060048201818152835160248401528351909283926044909101919085019080838360008315610d7d578181015183820152602001610d65565b506114166001610956565b6040517f681eace576127d0553b224436a09801fb47d042942cbff59d7d4ff04d8fa03d790600090a1565b604080517f00000000000000000000000000000000000000000000000000000000000000006020808301919091526001600160e01b03198416828401528251602481840301815260449092019092528051910120919050565b600060606114aa86516002612554565b610ed289898989898989612c9b612e1761275a565b7f000000000000000000000000000000000000000000000000000000000000000090565b7f000000000000000000000000000000000000000000000000000000000000000090565b60048054604080516020601f60026000196101006001881615020190951694909404938401819004810282018101909252828152606093909290918301828280156108585780601f1061082d57610100808354040283529160200191610858565b600a5490565b60006115786122c5565b83608001516115886110636114e3565b611593611089610c4f565b60007f00000000000000000000000000000000000000000000000000000000000000006001600160a01b031686602001516001600160a01b031614801561160f57507f00000000000000000000000000000000000000000000000000000000000000006001600160a01b031686604001516001600160a01b0316145b1561161c575060016116ad565b7f00000000000000000000000000000000000000000000000000000000000000006001600160a01b031686602001516001600160a01b031614801561169657507f00000000000000000000000000000000000000000000000000000000000000006001600160a01b031686604001516001600160a01b0316145b156116a3575060006116ad565b6116ad6079612e79565b60006116b882612ecc565b905060006116c68315612ecc565b90506116d28783612f20565b96506116de8682612f20565b955060006116ed888886612f2c565b90506000806116fa612a65565b915091506117066151cd565b60008073__GyroECLPMath__________________________6378ace8578787876040518463ffffffff1660e01b815260040161174493929190615b6a565b604080518083038186803b15801561175b57600080fd5b505af415801561176f573d6000803e3d6000fd5b505050506040513d601f19601f820116820180604052508101906117939190615815565b91509150604051806040016040528082600202840181526020018381525092506117cc8e60a00151876117c585612fc6565b8888613021565b50600090508c5160018111156117de57fe5b141561188a5760006117fc6117f1610e58565b60608f015190613199565b905061181e611818828f606001516131ee90919063ffffffff16565b88612f20565b60608e015260006118338e878b888888613204565b90507f4e1d56f7310a8c32b2267f756b19ba65019b4890068ce114a25009abe54de5ba86848360405161186893929190615bdc565b60405180910390a161187a818861329c565b9a5050505050505050505061191b565b6118988c6060015186612f20565b60608d015260006118ad8d868a8787876132a8565b90507f4e1d56f7310a8c32b2267f756b19ba65019b4890068ce114a25009abe54de5ba8583836040516118e293929190615bdc565b60405180910390a16118f481886132f0565b9050611910611909611904610e58565b6132fc565b8290613322565b995050505050505050505b509392505050565b6000806119303385611e21565b905080831061194a5761194533856000612051565b611957565b6119573385858403612051565b5060019392505050565b600061086f3384846121dd565b6000610c31613388565b600d546001600160a01b031681565b600073__QueryProcessor________________________630397bee06008846119ae6121c2565b6040518463ffffffff1660e01b81526004016119cc93929190615ce0565b60206040518083038186803b1580156119e457600080fd5b505af41580156119f8573d6000803e3d6000fd5b505050506040513d601f19601f8201168201806040525081019061087391906157fd565b61040090565b7f000000000000000000000000000000000000000000000000000000000000000081565b600080611a516114e3565b6001600160a01b031663f94d4668611a67610c4f565b6040518263ffffffff1660e01b8152600401611a839190615c7d565b60006040518083038186803b158015611a9b57600080fd5b505afa158015611aaf573d6000803e3d6000fd5b505050506040513d6000823e601f3d908101601f19168201604052611ad79190810190615440565b50915050611ae4816129f9565b6000611aee613402565b9050611afa8183613471565b9250505090565b7f000000000000000000000000000000000000000000000000000000000000000081565b7f000000000000000000000000000000000000000000000000000000000000000081565b7f000000000000000000000000000000000000000000000000000000000000000081565b611b7b8442111560d16121cf565b6001600160a01b0380881660008181526006602090815260408083205481517f00000000000000000000000000000000000000000000000000000000000000008185015280830195909552948b166060850152608084018a905260a0840185905260c08085018a90528151808603909101815260e09094019052825192019190912090611c07826134e3565b9050600060018288888860405160008152602001604052604051808581526020018460ff1681526020018381526020018281526020019450505050506020604051602081039080840390855afa158015611c65573d6000803e3d6000fd5b5050604051601f1901519150611ca790506001600160a01b03821615801590611c9f57508b6001600160a01b0316826001600160a01b0316145b6101f86121cf565b6001600160a01b038b166000908152600660205260409020600185019055611cd08b8b8b612051565b5050505050505050505050565b60608088611cec6110636114e3565b611cf7611089610c4f565b611cff6122c5565b6000611d09610962565b611d7957611d198b8b8b8861352f565b94509050611d2e620f424082101560cc6121cf565b611d3c6000620f4240613674565b611d4b89620f42408303613674565b611d5484612e17565b6040805160028082526060820183529091602083019080368337019050509250611de7565b611d82886129f9565b611db58789600081518110611d9357fe5b60200260200101518a600181518110611da857fe5b6020026020010151611f79565b611dc48b8b8b8b8b8b8b612c9b565b90955093509050611dd58982613674565b611dde84612e17565b611de7836126dc565b611def612318565b505097509795505050505050565b7f000000000000000000000000000000000000000000000000000000000000000081565b6000611e2b6114e3565b6001600160a01b0316826001600160a01b03161415611e4d5750600019610873565b611e57838361367e565b9050610873565b7f000000000000000000000000000000000000000000000000000000000000000081565b6060610c31613402565b6201de2090565b80611e9d816136a9565b5050565b611ecd8160600151600013158015611ec55750670de0b6b3a7640000826060015113155b610163613722565b611ef88160400151600013158015611ec55750670de0b6b3a764000082604001511315610163613722565b604080518082018252606083015181529082015160208201526000611f1d8280613730565b9050611f4a670de0b6b3a763fc188212801590611f425750670de0b6b3a76403e88213155b610164613722565b611f798360800151600013158015611f7157506a52b7d2dcc80cd2e4000000846080015113155b610168613722565b505050565b6000610b6b83836055611fb0565b6000610b6b83836056611fd7565b6000611faa8383111560016121cf565b50900390565b60006001821b1984168284611fc6576000611fc9565b60015b60ff16901b17949350505050565b6001600160401b03811b1992909216911b1790565b600082820283158061200657508284828161200357fe5b05145b61201657612016600060036121cf565b670de0b6b3a764000090059392505050565b60008282018183121561203d57838112612042565b838112155b610b6b57610b6b6000806121cf565b6001600160a01b03808416600081815260016020908152604080832094871680845294825291829020859055815185815291517f8c5be1e5ebec7d5bd14f71427d1e84f3dd0314c0f7b2291e5b200ac8c7c3b9259281900390910190a3505050565b60006120ca6000356001600160e01b031916611441565b905061095f6120d98233613763565b6101916121cf565b8015612101576120fc6120f261217a565b42106101936121cf565b612116565b61211661210c61219e565b42106101a96121cf565b6007805482151560ff19909116811790915560408051918252517f9e3a5e37224532dea67b89face185703738a228a6e8a23dee546960180d3be649181900360200190a150565b600061216761219e565b421180610c3157505060075460ff161590565b7f000000000000000000000000000000000000000000000000000000000000000090565b7f000000000000000000000000000000000000000000000000000000000000000090565b6000610c3160095461252d565b81611e9d57611e9d81612e79565b6121f46001600160a01b03841615156101986121cf565b61220b6001600160a01b03831615156101996121cf565b612216838383611f79565b6001600160a01b03831660009081526020819052604090205461223c90826101a0613865565b6001600160a01b03808516600090815260208190526040808220939093559084168152205461226b90826124f5565b6001600160a01b038084166000818152602081815260409182902094909455805185815290519193928716927fddf252ad1be2c89b69c2b068fc378daa952ba7f163c4a11628f55a4df523b3ef92918290030190a3505050565b610ba46122d061215d565b6101926121cf565b6009546122e59082611f7e565b6009556040517f3e350b41e86a8e10f804ade6d35340d620be35569cc75ac943e8bb14ab80ead19061091f908390615c5a565b6009546123248161253a565b1561095f5761233e612337600a5461387b565b82906138bb565b905061235a61235361234e610962565b61387b565b82906138c8565b60095550565b600061236c82826138d6565b61237784601f6138da565b6123828660546138eb565b61238d88606a6138da565b6123988a609f6138eb565b6123a38c60b56138da565b6123ae8e60ea6138eb565b17171717171790505b979650505050505050565b600061087382826138f8565b60007f00000000000000000000000000000000000000000000000000000000000000007f00000000000000000000000000000000000000000000000000000000000000007f000000000000000000000000000000000000000000000000000000000000000061243b613902565b3060405160200180868152602001858152602001848152602001838152602001826001600160a01b031681526020019550505050505060405160208183030381529060405280519060200120905090565b61249f64e8d4a5100082101560cb6121cf565b6124b567016345785d8a000082111560ca6121cf565b6009546124c29082611f8c565b6009556040517fa9ba3ffe0b6c366b81232caab38605a0699ad5398d6cce76f91ee809e322dafc9061091f908390615c7d565b6000828201610b6b84821015836121cf565b60006108738282613906565b6000610873826016613906565b600061087382602c6138f8565b600061087382604b61392d565b6000610873826055613935565b600061087382605661393f565b611e9d81831460676121cf565b6000606080600080612571612a65565b9150915061257d61215d565b1561268f57604051636c1e543160e11b815260009073__GyroECLPMath__________________________9063d83ca862906125c0908d9087908790600401615b6a565b60206040518083038186803b1580156125d857600080fd5b505af41580156125ec573d6000803e3d6000fd5b505050506040513d601f19601f8201168201806040525081019061261091906157fd565b905061261f898b838686613021565b6126288161394c565b6126328a88613979565b909650945061264b8187612644610962565b60006139c5565b600a8190556040517fe1d39caf039c7dc6f364b1e29d1e67c4e330003a43f4991d50cf3e8840d95eac9161268191849190615e9b565b60405180910390a1506126a5565b6126998987613979565b600019600a5590955093505b6040805160028082526060820183528792879291906020830190803683370190505094509450945050509750975097945050505050565b612703816000815181106126ec57fe5b60200260200101516126fe6001612ecc565b613a1d565b8160008151811061271057fe5b60200260200101818152505061273e8160018151811061272c57fe5b60200260200101516126fe6000612ecc565b8160018151811061274b57fe5b60200260200101818152505050565b333014612818576000306001600160a01b031660003660405161277e929190615ac1565b6000604051808303816000865af19150503d80600081146127bb576040519150601f19603f3d011682016040523d82523d6000602084013e6127c0565b606091505b5050905080600081146127cf57fe5b60046000803e6000516001600160e01b0319166343adbafb60e01b81146127fa573d6000803e3d6000fd5b506020600460003e604060205260243d03602460403e601c3d016000f35b612821866129f9565b6000806128378b8b8b8b8b8b8b8b63ffffffff16565b5091509150612849818463ffffffff16565b8051601f1982018390526343adbafb603f1983015260200260231982016044820181fd5b60009081526008602052604090205490565b600080600080600080600061289388613a3d565b965061289e88613a4a565b95506128a988613a57565b94506128b488613a64565b93506128bf88613a71565b92506128ca88613a7e565b91506128d5886123c2565b9050919395979092949650565b6000828202610b6b8415806128ff5750838583816128fc57fe5b04145b60036121cf565b60008161291957612919600060046121cf565b8261292657506000610873565b670de0b6b3a76400008381029084828161293c57fe5b041461294e5761294e600060056121cf565b82818161295757fe5b04949350505050565b6040516334171a8560e01b815260009073__QueryProcessor________________________906334171a85906129a190600890889088908890600401615d02565b60206040518083038186803b1580156129b957600080fd5b505af41580156129cd573d6000803e3d6000fd5b505050506040513d601f19601f820116820180604052508101906129f191906157fd565b949350505050565b612a2081600081518110612a0957fe5b6020026020010151612a1b6001612ecc565b6128e2565b81600081518110612a2d57fe5b60200260200101818152505061273e81600181518110612a4957fe5b6020026020010151612a1b6000612ecc565b611e9d8282613a8b565b612a6d615155565b612a75615184565b7f00000000000000000000000000000000000000000000000000000000000000006080808401919091527f00000000000000000000000000000000000000000000000000000000000000006060808501919091527f00000000000000000000000000000000000000000000000000000000000000006040808601919091527f00000000000000000000000000000000000000000000000000000000000000006020808701919091527f000000000000000000000000000000000000000000000000000000000000000086528451858201517f0000000000000000000000000000000000000000000000000000000000000000818401527f000000000000000000000000000000000000000000000000000000000000000090527f0000000000000000000000000000000000000000000000000000000000000000918101919091527f000000000000000000000000000000000000000000000000000000000000000090527f000000000000000000000000000000000000000000000000000000000000000060c08501527f000000000000000000000000000000000000000000000000000000000000000060a08501527f0000000000000000000000000000000000000000000000000000000000000000928401929092527f0000000000000000000000000000000000000000000000000000000000000000908301527f0000000000000000000000000000000000000000000000000000000000000000908201529091565b6000606080600080612cab612a65565b91509150600073__GyroECLPMath__________________________63d83ca8628b85856040518463ffffffff1660e01b8152600401612cec93929190615b6a565b60206040518083038186803b158015612d0457600080fd5b505af4158015612d18573d6000803e3d6000fd5b505050506040513d601f19601f82011682018060405250810190612d3c91906157fd565b9050612d4b898b838686613021565b612d548161394c565b600080612d618c8a613b42565b600b54919350915060ff1615612d8b57612d8b82612d7e8f611035565b612d86610962565b613b7c565b612d9f8383612d98610962565b60016139c5565b600a8190556040517fe1d39caf039c7dc6f364b1e29d1e67c4e330003a43f4991d50cf3e8840d95eac91612dd591869190615e9b565b60405180910390a16040805160028082526060820183528492849291906020830190803683370190505097509750975050505050509750975097945050505050565b612e3e81600081518110612e2757fe5b6020026020010151612e396001612ecc565b613c8e565b81600081518110612e4b57fe5b60200260200101818152505061273e81600181518110612e6757fe5b6020026020010151612e396000612ecc565b62461bcd60e51b6000908152602060045260076024526642414c23000030600a808404818106603090810160081b95839006959095019082900491820690940160101b939093010160c81b604452606490fd5b600081612ef9577f0000000000000000000000000000000000000000000000000000000000000000610873565b507f0000000000000000000000000000000000000000000000000000000000000000919050565b6000610b6b83836128e2565b60408051600280825260608083018452926020830190803683370190505090508115612f8b578381600081518110612f6057fe5b6020026020010181815250508281600181518110612f7a57fe5b602002602001018181525050610b6b565b8281600081518110612f9957fe5b6020026020010181815250508381600181518110612fb357fe5b6020026020010181815250509392505050565b60008082121561301d576040805162461bcd60e51b815260206004820181905260248201527f53616665436173743a2076616c7565206d75737420626520706f736974697665604482015290519081900360640190fd5b5090565b60095461302d8161253a565b801561303857508543115b1561319157600073__GyroECLPMath__________________________63b0a208a78786866130658a613cc1565b6040518563ffffffff1660e01b81526004016130849493929190615b9b565b60206040518083038186803b15801561309c57600080fd5b505af41580156130b0573d6000803e3d6000fd5b505050506040513d601f19601f820116820180604052508101906130d491906157fd565b905060006130e182613d05565b905060006130f7876130f286612513565b613d10565b905060006131048561252d565b9050600061311186612520565b9050600061312a828487876131258c612507565b613d27565b905080831461318a5761313d8782613d7e565b96506131498742613d8c565b9650866009819055507f12ade7b7dd29c5e3df1e883f0a092467d851b06c52f3c4484a443d40b9cd6601816040516131819190615c7d565b60405180910390a15b5050505050505b505050505050565b60008282028315806131b35750828482816131b057fe5b04145b6131c3576131c3600060036121cf565b806131d2576000915050610873565b670de0b6b3a764000060001982015b0460010191505092915050565b600082821115611faa57611faa600060016121cf565b60608601516040516330ffa11b60e11b815260009173__GyroECLPMath__________________________916361ff42369161324c918a91908a908a908a908a90600401615c0c565b60206040518083038186803b15801561326457600080fd5b505af4158015613278573d6000803e3d6000fd5b505050506040513d601f19601f820116820180604052508101906123b791906157fd565b6000610b6b8383613a1d565b6060860151604051633b18ce7b60e21b815260009173__GyroECLPMath__________________________9163ec6339ec9161324c918a91908a908a908a908a90600401615c0c565b6000610b6b8383613c8e565b6000670de0b6b3a76400008210613314576000610873565b50670de0b6b3a76400000390565b60008161333557613335600060046121cf565b8261334257506000610873565b670de0b6b3a76400008381029084828161335857fe5b041461337c5761337c670de0b6b3a764000085838161337357fe5b041460056121cf565b8260018203816131e157fe5b60006133926114e3565b6001600160a01b031663aaabadc56040518163ffffffff1660e01b815260040160206040518083038186803b1580156133ca57600080fd5b505afa1580156133de573d6000803e3d6000fd5b505050506040513d601f19601f82011682018060405250810190610c31919061530c565b604080516002808252606080830184529260009291906020830190803683370190505090506134316001613d9a565b8160008151811061343e57fe5b6020026020010181815250506134546000613d9a565b8160018151811061346157fe5b6020908102919091010152905090565b670de0b6b3a764000060005b83518110156134d3576134c96134c285838151811061349857fe5b60200260200101518584815181106134ac57fe5b6020026020010151613dee90919063ffffffff16565b8390613e3d565b915060010161347d565b50610873600082116101376121cf565b60006134ed6123ce565b82604051602001808061190160f01b81525060020183815260200182815260200192505050604051602081830303815290604052805190602001209050919050565b60006060600061353e84613e66565b9050613559600082600381111561355157fe5b1460ce6121cf565b600061356485613e85565b905061357281516002612554565b61357b816129f9565b600080613586612a65565b91509150600073__GyroECLPMath__________________________63d83ca8628585856040518463ffffffff1660e01b81526004016135c793929190615b6a565b60206040518083038186803b1580156135df57600080fd5b505af41580156135f3573d6000803e3d6000fd5b505050506040513d601f19601f8201168201806040525081019061361791906157fd565b90507faf65f1a72bf4f8bc48e8153858e1f7b307ce39c88361a677c0a79c2a1ae571ef816040516136489190615c7d565b60405180910390a1600061365d8260026128e2565b600a92909255509a92995091975050505050505050565b611e9d8282613f39565b6001600160a01b03918216600090815260016020908152604080832093909416825291909152205490565b6002815110156136b85761095f565b6000816000815181106136c757fe5b602002602001015190506000600190505b8251811015611f795760008382815181106136ef57fe5b60200260200101519050613718816001600160a01b0316846001600160a01b03161060656121cf565b91506001016136d8565b81611e9d57611e9d81613fce565b6000610b6b61375083602001518560200151611fec90919063ffffffff16565b8351855161375d91611fec565b90612028565b600073ba1ba1ba1ba1ba1ba1ba1ba1ba1ba1ba1ba1ba1b6137826114bf565b6001600160a01b03161415801561379d575061379d83613fde565b156137c5576137aa6114bf565b6001600160a01b0316336001600160a01b0316149050610873565b6137cd613388565b6001600160a01b0316639be2a8848484306040518463ffffffff1660e01b815260040180848152602001836001600160a01b03168152602001826001600160a01b03168152602001935050505060206040518083038186803b15801561383257600080fd5b505afa158015613846573d6000803e3d6000fd5b505050506040513d602081101561385c57600080fd5b50519050610873565b600061387484841115836121cf565b5050900390565b60008061388783614010565b905060008082136138a057652d79883d200082036138aa565b652d79883d200082015b655af3107a40009005949350505050565b6000610b6b838383614074565b6000610b6b83836016614074565b1b90565b661fffffffffffff91909116901b90565b623fffff91909116901b90565b1c637fffffff1690565b4690565b600082821c623fffff16621fffff811361392057806129f1565b623fffff19179392505050565b1c6103ff1690565b1c60019081161490565b1c6001600160401b031690565b60008060008061395e600a548661408b565b9350935093509350613972848484846140f4565b5050505050565b60006060600061398884613e66565b9050600181600381111561399857fe5b14156139b2576139a88585614114565b90935091506139bd565b6139bd610150612e79565b509250929050565b600081156139f75760006139e3846139dd8888613199565b90613322565b90506139ef8682614146565b9150506129f1565b6000613a0784610f6a888861415e565b9050613a1386826131ee565b9695505050505050565b6000613a2c82151560046121cf565b818381613a3557fe5b049392505050565b60006108738260ea613906565b60006108738260b5614188565b600061087382609f613906565b600061087382606a614188565b6000610873826054613906565b600061087382601f614188565b613aa26001600160a01b038316151561019b6121cf565b613aae82600083611f79565b6001600160a01b038216600090815260208190526040902054613ad490826101a1613865565b6001600160a01b038316600090815260208190526040902055600254613afa90826141bb565b6002556040805182815290516000916001600160a01b038516917fddf252ad1be2c89b69c2b068fc378daa952ba7f163c4a11628f55a4df523b3ef9181900360200190a35050565b600060606000613b5184613e66565b90506003816003811115613b6157fe5b1415613b71576139a885856141c9565b6139bd610136612e79565b60408051606081018252600b5460ff81161515825261010081046001600160781b031660208301819052600160801b9091046001600160801b03169282019290925290613bc98585614146565b11156040518060400160405280601a81526020017f6f7665722061646472657373206c69717569646974792063617000000000000081525090613c1f5760405162461bcd60e51b81526004016108ca9190615d61565b5060408101516001600160801b0316613c388584614146565b11156040518060400160405280601981526020017f6f76657220676c6f62616c206c69717569646974792063617000000000000000815250906139725760405162461bcd60e51b81526004016108ca9190615d61565b6000613c9d82151560046121cf565b82613caa57506000610873565b816001840381613cb657fe5b046001019050610873565b6000600160ff1b821061301d5760405162461bcd60e51b8152600401808060200182810382526028815260200180615f0d6028913960400191505060405180910390fd5b60006108738261387b565b600080613d1c8461387b565b929092039392505050565b600080613d4385858542613d3a8b61286d565b939291906141ee565b9050607842889003101580613d585786613d61565b613d618761424e565b600081815260086020526040902092909255509695505050505050565b6000610b6b8383604b61425b565b6000610b6b8383602c61426b565b600081613dc7577f0000000000000000000000000000000000000000000000000000000000000000610873565b507f0000000000000000000000000000000000000000000000000000000000000000919050565b600080613dfb848461427d565b90506000613e15613e0e8361271061437e565b60016124f5565b905080821015613e2a57600092505050610873565b613e348282611f9a565b92505050610873565b6000828202613e578415806128ff5750838583816128fc57fe5b670de0b6b3a764000081612957565b6000818060200190516020811015613e7d57600080fd5b505192915050565b6060818060200190516040811015613e9c57600080fd5b815160208301805160405192949293830192919084640100000000821115613ec357600080fd5b908301906020820185811115613ed857600080fd5b8251866020820283011164010000000082111715613ef557600080fd5b82525081516020918201928201910280838360005b83811015613f22578181015183820152602001613f0a565b505050509190910160405250929695505050505050565b613f4560008383611f79565b600254613f5290826124f5565b6002556001600160a01b038216600090815260208190526040902054613f7890826124f5565b6001600160a01b0383166000818152602081815260408083209490945583518581529351929391927fddf252ad1be2c89b69c2b068fc378daa952ba7f163c4a11628f55a4df523b3ef9281900390910190a35050565b61095f816223aca960e91b6143c1565b6000613ff0631c74c91760e11b611441565b82148061087357506140086350dd6ed960e01b611441565b909114919050565b60006140206000831360646121cf565b670c7d713b49da00008213801561403e5750670f43fc2c04ee000082125b1561406457670de0b6b3a764000061405583614422565b8161405c57fe5b05905061104f565b61406d82614540565b905061104f565b623fffff828116821b90821b198416179392505050565b60008060008060008060008061409f6148df565b935093509350935083600014156140c4576000975087965090945092506140eb915050565b6000806140db8c8c6140d4610962565b8989614b4e565b909a509850929650909450505050505b92959194509250565b8315614104576141048285613674565b8215610c2157610c218184613674565b60006060600061412384614be9565b905060006141398683614134610962565b614c0b565b9196919550909350505050565b600082820183811015610b6b57610b6b6000806121cf565b600082820283158061417857508284828161417557fe5b04145b613e5757613e57600060036121cf565b600082821c661fffffffffffff16660fffffffffffff81136141aa57806129f1565b661fffffffffffff19179392505050565b6000610b6b83836001613865565b6000606060006141d884614be9565b9050600061413986836141e9610962565b614ca6565b6000806141fa876123c2565b83039050600081870261420c89613a4a565b019050600082870261421d8a613a64565b019050600083870261422e8b613a7e565b01905061424089848a858b868c612360565b9a9950505050505050505050565b6000610873826001614d41565b6103ff811b1992909216911b1790565b637fffffff811b1992909216911b1790565b6000816142935750670de0b6b3a7640000610873565b826142a057506000610873565b6142b1600160ff1b841060066121cf565b826142d7770bce5086492111aea88f4bb1ca6bcf584181ea8059f76532841060076121cf565b826000670c7d713b49da0000831380156142f85750670f43fc2c04ee000083125b1561432f57600061430884614422565b9050670de0b6b3a764000080820784020583670de0b6b3a76400008305020191505061433d565b8161433984614540565b0290505b670de0b6b3a76400009005614375680238fd42c5cf03ffff19821280159061436e575068070c1cc73b00c800008213155b60086121cf565b613a1381614d49565b60008282026143988415806128ff5750838583816128fc57fe5b806143a7576000915050610873565b670de0b6b3a7640000600019820104600101915050610873565b62461bcd60e51b600090815260206004526007602452600a808404818106603090810160081b958390069590950190829004918206850160101b01602363ffffff0060e086901c160160181b0190930160c81b60445260e882901c90606490fd5b670de0b6b3a7640000026000806a0c097ce7bc90715b34b9f160241b808401906ec097ce7bc90715b34b9f0fffffffff198501028161445d57fe5b05905060006a0c097ce7bc90715b34b9f160241b82800205905081806a0c097ce7bc90715b34b9f160241b81840205915060038205016a0c097ce7bc90715b34b9f160241b82840205915060058205016a0c097ce7bc90715b34b9f160241b82840205915060078205016a0c097ce7bc90715b34b9f160241b82840205915060098205016a0c097ce7bc90715b34b9f160241b828402059150600b8205016a0c097ce7bc90715b34b9f160241b828402059150600d8205016a0c097ce7bc90715b34b9f160241b828402059150600f826002919005919091010295945050505050565b6000670de0b6b3a764000082121561457c57614572826a0c097ce7bc90715b34b9f160241b8161456c57fe5b05614540565b600003905061104f565b60007e1600ef3172e58d2e933ec884fde10064c63b5372d805e203c000000000000083126145cd57770195e54c5dd42177f53a27172fa9ec630262827000000000830592506806f05b59d3b2000000015b73011798004d755d3c8bc8e03204cf44619e0000008312614605576b1425982cf597cd205cef7380830592506803782dace9d9000000015b606492830292026e01855144814a7ff805980ff0084000831261464d576e01855144814a7ff805980ff008400068056bc75e2d63100000840205925068ad78ebc5ac62000000015b6b02df0ab5a80a22c61ab5a7008312614688576b02df0ab5a80a22c61ab5a70068056bc75e2d6310000084020592506856bc75e2d631000000015b693f1fce3da636ea5cf85083126146bf57693f1fce3da636ea5cf85068056bc75e2d631000008402059250682b5e3af16b18800000015b690127fa27722cc06cc5e283126146f657690127fa27722cc06cc5e268056bc75e2d6310000084020592506815af1d78b58c400000015b68280e60114edb805d03831261472b5768280e60114edb805d0368056bc75e2d631000008402059250680ad78ebc5ac6200000015b680ebc5fb41746121110831261475657680ebc5fb4174612111068056bc75e2d631000009384020592015b6808f00f760a4b2db55d831261478b576808f00f760a4b2db55d68056bc75e2d6310000084020592506802b5e3af16b1880000015b6806f5f177578893793783126147c0576806f5f177578893793768056bc75e2d63100000840205925068015af1d78b58c40000015b6806248f33704b28660383126147f4576806248f33704b28660368056bc75e2d63100000840205925067ad78ebc5ac620000015b6805c548670b9510e7ac8312614828576805c548670b9510e7ac68056bc75e2d6310000084020592506756bc75e2d6310000015b600068056bc75e2d63100000840168056bc75e2d63100000808603028161484b57fe5b059050600068056bc75e2d63100000828002059050818068056bc75e2d63100000818402059150600382050168056bc75e2d63100000828402059150600582050168056bc75e2d63100000828402059150600782050168056bc75e2d63100000828402059150600982050168056bc75e2d63100000828402059150600b820501600202606485820105979650505050505050565b600e5460405163bd02d0f560e01b81526000918291829182916001600160a01b039091169063bd02d0f590614931907550524f544f434f4c5f535741505f4645455f5045524360501b90600401615c7d565b60206040518083038186803b15801561494957600080fd5b505afa15801561495d573d6000803e3d6000fd5b505050506040513d601f19601f8201168201806040525081019061498191906157fd565b600e5460405163bd02d0f560e01b81526001600160a01b039091169063bd02d0f5906149d1907f50524f544f434f4c5f4645455f4759524f5f504f5254494f4e0000000000000090600401615c7d565b60206040518083038186803b1580156149e957600080fd5b505afa1580156149fd573d6000803e3d6000fd5b505050506040513d601f19601f82011682018060405250810190614a2191906157fd565b600e546040516321f8a72160e01b81526001600160a01b03909116906321f8a72190614a61906c4759524f5f545245415355525960981b90600401615c7d565b60206040518083038186803b158015614a7957600080fd5b505afa158015614a8d573d6000803e3d6000fd5b505050506040513d601f19601f82011682018060405250810190614ab1919061530c565b600e546040516321f8a72160e01b81526001600160a01b03909116906321f8a72190614af0906b42414c5f545245415355525960a01b90600401615c7d565b60206040518083038186803b158015614b0857600080fd5b505afa158015614b1c573d6000803e3d6000fd5b505050506040513d601f19601f82011682018060405250810190614b40919061530c565b935093509350935090919293565b600080868611614b6357506000905080614bdf565b6000614b8385614b7d614b768a8c6131ee565b899061415e565b9061415e565b90506000614b9b614b94898b6131ee565b879061415e565b90506000614ba989836131ee565b90506000614bb78483612906565b90506000614bc5888361415e565b90506000614bd383836131ee565b91975090955050505050505b9550959350505050565b6000818060200190516040811015614c0057600080fd5b506020015192915050565b606083516001600160401b0381118015614c2457600080fd5b50604051908082528060200260200182016040528015614c4e578160200160208202803683370190505b50905060005b845181101561191b57614c8783610f6a86888581518110614c7157fe5b602002602001015161415e90919063ffffffff16565b828281518110614c9357fe5b6020908102919091010152600101614c54565b606083516001600160401b0381118015614cbf57600080fd5b50604051908082528060200260200182016040528015614ce9578160200160208202803683370190505b50905060005b845181101561191b57614d22836139dd86888581518110614d0c57fe5b602002602001015161319990919063ffffffff16565b828281518110614d2e57fe5b6020908102919091010152600101614cef565b016103ff1690565b6000614d78680238fd42c5cf03ffff198312158015614d71575068070c1cc73b00c800008313155b60096121cf565b6000821215614da357614d8d82600003614d49565b6a0c097ce7bc90715b34b9f160241b8161405c57fe5b60006806f05b59d3b20000008312614de357506806f05b59d3b1ffffff1990910190770195e54c5dd42177f53a27172fa9ec630262827000000000614e19565b6803782dace9d90000008312614e1557506803782dace9d8ffffff19909101906b1425982cf597cd205cef7380614e19565b5060015b6064929092029168056bc75e2d6310000068ad78ebc5ac620000008412614e695768ad78ebc5ac61ffffff199093019268056bc75e2d631000006e01855144814a7ff805980ff008400082020590505b6856bc75e2d6310000008412614ea5576856bc75e2d630ffffff199093019268056bc75e2d631000006b02df0ab5a80a22c61ab5a70082020590505b682b5e3af16b188000008412614edf57682b5e3af16b187fffff199093019268056bc75e2d63100000693f1fce3da636ea5cf85082020590505b6815af1d78b58c4000008412614f19576815af1d78b58c3fffff199093019268056bc75e2d63100000690127fa27722cc06cc5e282020590505b680ad78ebc5ac62000008412614f5257680ad78ebc5ac61fffff199093019268056bc75e2d6310000068280e60114edb805d0382020590505b68056bc75e2d631000008412614f8b5768056bc75e2d630fffff199093019268056bc75e2d63100000680ebc5fb4174612111082020590505b6802b5e3af16b18800008412614fc4576802b5e3af16b187ffff199093019268056bc75e2d631000006808f00f760a4b2db55d82020590505b68015af1d78b58c400008412614ffd5768015af1d78b58c3ffff199093019268056bc75e2d631000006806f5f177578893793782020590505b68056bc75e2d631000008481019085906002908280020505918201919050600368056bc75e2d631000008783020505918201919050600468056bc75e2d631000008783020505918201919050600568056bc75e2d631000008783020505918201919050600668056bc75e2d631000008783020505918201919050600768056bc75e2d631000008783020505918201919050600868056bc75e2d631000008783020505918201919050600968056bc75e2d631000008783020505918201919050600a68056bc75e2d631000008783020505918201919050600b68056bc75e2d631000008783020505918201919050600c68056bc75e2d631000008783020505918201919050606468056bc75e2d63100000848402058502059695505050505050565b604080516060810182526000808252602082018190529181019190915290565b604080518082019091526000808252602082015290565b6040518060a0016040528060008152602001600081526020016000815260200160008152602001600081525090565b6040518060e001604052806151976151cd565b81526020016151a46151cd565b815260200160008152602001600081526020016000815260200160008152602001600081525090565b604051806040016040528060008152602001600081525090565b803561104f81615ef7565b600082601f830112615202578081fd5b8151602061521761521283615eda565b615eb7565b8281528181019085830183850287018401881015615233578586fd5b855b8581101561525157815184529284019290840190600101615235565b5090979650505050505050565b8035801515811461104f57600080fd5b600082601f83011261527e578081fd5b81356001600160401b0381111561529157fe5b6152a4601f8201601f1916602001615eb7565b8181528460208386010111156152b8578283fd5b816020850160208301379081016020019190915292915050565b80356002811061104f57600080fd5b80356003811061104f57600080fd5b600060208284031215615301578081fd5b8135610b6b81615ef7565b60006020828403121561531d578081fd5b8151610b6b81615ef7565b6000806040838503121561533a578081fd5b823561534581615ef7565b9150602083013561535581615ef7565b809150509250929050565b600080600060608486031215615374578081fd5b833561537f81615ef7565b9250602084013561538f81615ef7565b929592945050506040919091013590565b600080600080600080600060e0888a0312156153ba578485fd5b87356153c581615ef7565b965060208801356153d581615ef7565b95506040880135945060608801359350608088013560ff811681146153f8578384fd5b9699959850939692959460a0840135945060c09093013592915050565b60008060408385031215615427578182fd5b823561543281615ef7565b946020939093013593505050565b600080600060608486031215615454578081fd5b83516001600160401b038082111561546a578283fd5b818601915086601f83011261547d578283fd5b8151602061548d61521283615eda565b82815281810190858301838502870184018c10156154a9578788fd5b8796505b848710156154d45780516154c081615ef7565b8352600196909601959183019183016154ad565b50918901519197509093505050808211156154ed578283fd5b506154fa868287016151f2565b925050604084015190509250925092565b6000602080838503121561551d578182fd5b82356001600160401b0380821115615533578384fd5b818501915085601f830112615546578384fd5b813561555461521282615eda565b818152848101908486016040808502870188018b1015615572578889fd5b8896505b848710156155ca5780828c03121561558c578889fd5b8051818101818110888211171561559f57fe5b82526155aa836152e1565b815282890135898201528452600196909601959287019290810190615576565b50909998505050505050505050565b600060208083850312156155eb578182fd5b82356001600160401b0380821115615601578384fd5b818501915085601f830112615614578384fd5b813561562261521282615eda565b818152848101908486016060808502870188018b1015615640578889fd5b8896505b848710156155ca5780828c03121561565a578889fd5b60408051828101818110898211171561566f57fe5b825261567a846152e1565b8152838a01358a82015281840135918101919091528452600196909601959287019290810190615644565b6000602082840312156156b6578081fd5b610b6b8261525e565b600080600080600080600060e0888a0312156156d9578081fd5b873596506020808901356156ec81615ef7565b965060408901356156fc81615ef7565b955060608901356001600160401b0380821115615717578384fd5b818b0191508b601f83011261572a578384fd5b813561573861521282615eda565b8082825285820191508585018f878886028801011115615756578788fd5b8795505b8386101561577857803583526001959095019491860191860161575a565b509850505060808b0135955060a08b0135945060c08b013592508083111561579e578384fd5b50506157ac8a828b0161526e565b91505092959891949750929550565b6000602082840312156157cc578081fd5b81356001600160e01b031981168114610b6b578182fd5b6000602082840312156157f4578081fd5b610b6b826152e1565b60006020828403121561580e578081fd5b5051919050565b60008060408385031215615827578182fd5b505080516020909101519092909150565b600060608284031215615849578081fd5b604051606081018181106001600160401b038211171561586557fe5b6040526158718361525e565b815260208301356001600160781b038116811461588c578283fd5b602082015260408301356001600160801b03811681146158aa578283fd5b60408201529392505050565b6000806000606084860312156158ca578081fd5b83356001600160401b03808211156158e0578283fd5b81860191506101208083890312156158f6578384fd5b6158ff81615eb7565b905061590a836152d2565b8152615918602084016151e7565b6020820152615929604084016151e7565b6040820152606083013560608201526080830135608082015260a083013560a082015261595860c084016151e7565b60c082015261596960e084016151e7565b60e08201526101008084013583811115615981578586fd5b61598d8a82870161526e565b9183019190915250976020870135975060409096013595945050505050565b6000602082840312156159bd578081fd5b5035919050565b600080604083850312156159d6578182fd5b50508035926020909101359150565b6000815180845260208085019450808401835b83811015615a14578151875295820195908201906001016159f8565b509495945050505050565b60038110615a2957fe5b9052565b615a38828251615ab2565b6020810151615a4a6040840182615ab2565b5060408101516080830152606081015160a0830152608081015160c083015260a081015160e083015260c08101516101008301525050565b80518252602081015160208301526040810151604083015260608101516060830152608081015160808301525050565b80518252602090810151910152565b6000828483379101908152919050565b6001600160a01b0391909116815260200190565b6020808252825182820181905260009190848201906040850190845b81811015615b1d57835183529284019291840191600101615b01565b50909695505050505050565b600060208252610b6b60208301846159e5565b600060408252615b4f60408301856159e5565b8281036020840152615b6181856159e5565b95945050505050565b60006101e0808352615b7e818401876159e5565b915050615b8e6020830185615a82565b6129f160c0830184615a2d565b6000610200808352615baf818401886159e5565b915050615bbf6020830186615a82565b615bcc60c0830185615a2d565b826101e083015295945050505050565b600060808252615bef60808301866159e5565b9050615bfe6020830185615ab2565b826060830152949350505050565b6000610260808352615c208184018a6159e5565b9150508660208301528515156040830152615c3e6060830186615a82565b615c4c610100830185615a2d565b6123b7610220830184615ab2565b901515815260200190565b92151583526020830191909152604082015260600190565b90815260200190565b968752602087019590955260408601939093526060850191909152608084015260a083015260c082015260e00190565b9586526020860194909452604085019290925260608401521515608083015260a082015260c00190565b83815260608101615cf46020830185615a1f565b826040830152949350505050565b84815260808101615d166020830186615a1f565b60408201939093526060015292915050565b600060a082019050848252615d41602083018551615a1f565b602084015160408381019190915290930151606082015260800152919050565b6000602080835283518082850152825b81811015615d8d57858101830151858201604001528201615d71565b81811115615d9e5783604083870101525b50601f01601f1916929092016040019392505050565b8151151581526020808301516001600160781b0316908201526040918201516001600160801b03169181019190915260600190565b905460ff811615158252600881901c6001600160781b0316602083015260801c604082015260600190565b6101c08101615e238285615a82565b615e3160a083018451615ab2565b6020830151615e4360e0840182615ab2565b5060408301516101208301526060830151610140830152608083015161016083015260a083015161018083015260c08301516101a08301529392505050565b6000838252604060208301526129f160408301846159e5565b918252602082015260400190565b60ff91909116815260200190565b6040518181016001600160401b0381118282101715615ed257fe5b604052919050565b60006001600160401b03821115615eed57fe5b5060209081020190565b6001600160a01b038116811461095f57600080fdfe53616665436173743a2076616c756520646f65736e27742066697420696e20616e20696e74323536a26469706673582212206df1c08e7c48068fdc68021e16ea045840f4d10fe79a1a354c989e79174715e664736f6c63430007060033","bytecodeSha1":"693d580a1521b87acdccb651c1a513a642891af3","compiler":{"evm_version":"berlin","optimizer":{"enabled":true,"runs":200},"version":"0.7.6+commit.7338295f"},"contractName":"GyroECLPPool","deployedBytecode":"608060405234801561001057600080fd5b50600436106103db5760003560e01c806374f3b0091161020a578063a9059cbb11610125578063c4fea7c9116100b8578063dc09f3aa11610087578063dc09f3aa14610799578063dd62ed3e146107a1578063ddb387c9146107b4578063f89f27ed146107bc578063ffd088eb146107c4576103db565b8063c4fea7c914610763578063ce4823871461076b578063d505accf14610773578063d5c096c414610786576103db565b8063b48b5b40116100f4578063b48b5b4014610743578063bcc436921461074b578063c0ff1a1514610753578063c2c3bd6a1461075b576103db565b8063a9059cbb1461070d578063aaabadc514610720578063abd13afe14610728578063b10be73914610730576103db565b8063851c1bb31161019d57806395d89b411161016c57806395d89b41146106d75780639b02cdde146106df5780639d2c110c146106e7578063a457c2d7146106fa576103db565b8063851c1bb3146106a157806387ec6817146106b4578063893d20e8146106c75780638d928af8146106cf576103db565b80637ef355cd116101d95780637ef355cd146106765780638002df181461067e5780638143eb76146106915780638456cb5914610699576103db565b806374f3b0091461061957806376e54a461461063a5780637be219a21461064d5780637ecebe0014610663576103db565b806338fff2d0116102fa578063591a137f1161028d578063679aefce1161025c578063679aefce146105d65780636b843239146105de5780636d785a87146105fe57806370a0823114610606576103db565b8063591a137f1461057f5780636028bfd41461058757806360d1507c146105a857806366e9ddf4146105ce576103db565b806344bbdb55116102c957806344bbdb55146105405780634a6b0b151461055557806355c676281461056f57806358ecbcc314610577576103db565b806338fff2d01461050857806339509351146105105780633aeae0d3146105235780633f4ba83a14610538576103db565b80631dccd83011610372578063313ce56711610341578063313ce567146104c55780633331bc36146104da5780633644e515146104ed57806338e9922e146104f5576103db565b80631dccd830146104825780632024cf41146104a257806323b872dd146104aa578063292c914a146104bd576103db565b806316c38b3c116103ae57806316c38b3c1461044857806318160ddd1461045b5780631c0de051146104635780631d86bb991461047a576103db565b806306fdde03146103e0578063095ea7b3146103fe5780630e608b301461041e5780631469ed6c14610433575b600080fd5b6103e86107cc565b6040516103f59190615d61565b60405180910390f35b61041161040c366004615415565b610862565b6040516103f59190615c5a565b61043161042c3660046152f0565b610879565b005b61043b61092a565b6040516103f59190615c7d565b6104316104563660046156a5565b61094e565b61043b610962565b61046b610968565b6040516103f593929190615c65565b61043b610991565b6104956104903660046155d9565b6109b5565b6040516103f59190615b29565b61043b610ad8565b6104116104b8366004615360565b610afc565b610431610b72565b6104cd610ba6565b6040516103f59190615ea9565b6104316104e83660046159c4565b610baf565b61043b610c27565b6104316105033660046159ac565b610c36565b61043b610c4f565b61041161051e366004615415565b610c73565b61052b610cae565b6040516103f59190615db4565b610431610cf9565b610548610dee565b6040516103f59190615ad1565b61055d610dfd565b6040516103f596959493929190615cb6565b61043b610e58565b61043b610e65565b61043b610e89565b61059a6105953660046156bf565b610ead565b6040516103f5929190615e82565b6105bb6105b63660046159ac565b610ede565b6040516103f59796959493929190615c86565b61043b610f27565b61043b610f4b565b6105f16105ec36600461550b565b610f70565b6040516103f59190615ae5565b610548611026565b61043b6106143660046152f0565b611035565b61062c6106273660046156bf565b611054565b6040516103f5929190615b3c565b610431610648366004615838565b6110f9565b610655611220565b6040516103f5929190615e14565b61043b6106713660046152f0565b611240565b61043b61125b565b61043161068c3660046152f0565b61127f565b61043b611365565b610431611389565b61043b6106af3660046157bb565b611441565b61059a6106c23660046156bf565b61149a565b6105486114bf565b6105486114e3565b6103e8611507565b61043b611568565b61043b6106f53660046158b6565b61156e565b610411610708366004615415565b611923565b61041161071b366004615415565b611961565b61054861196e565b610548611978565b61043b61073e3660046157e3565b611987565b61043b611a1c565b61043b611a22565b61043b611a46565b61043b611b01565b61043b611b25565b61043b611b49565b6104316107813660046153a0565b611b6d565b61062c6107943660046156bf565b611cdd565b61043b611dfd565b61043b6107af366004615328565b611e21565b61043b611e5e565b610495611e82565b61043b611e8c565b60038054604080516020601f60026000196101006001881615020190951694909404938401819004810282018101909252828152606093909290918301828280156108585780601f1061082d57610100808354040283529160200191610858565b820191906000526020600020905b81548152906001019060200180831161083b57829003601f168201915b5050505050905090565b600061086f338484612051565b5060015b92915050565b600c5460408051808201909152600e81526d1b9bdd08185d5d1a1bdc9a5e995960921b6020820152906001600160a01b031633146108d35760405162461bcd60e51b81526004016108ca9190615d61565b60405180910390fd5b50600c80546001600160a01b0319166001600160a01b0383161790556040517fb8fd9afc34c38fcd13b9a3b7646482eb1fddcefb40af2c70609972816eba32089061091f908390615ad1565b60405180910390a150565b7f000000000000000000000000000000000000000000000000000000000000000081565b6109566120b3565b61095f816120e1565b50565b60025490565b600080600061097561215d565b15925061098061217a565b915061098a61219e565b9050909192565b7f000000000000000000000000000000000000000000000000000000000000000081565b606081516001600160401b03811180156109ce57600080fd5b506040519080825280602002602001820160405280156109f8578160200160208202803683370190505b5090506000610a056121c2565b905060005b8351811015610ad15773__$85f042f43089d976c21d0d184f206dc395$__6379eaef826008868481518110610a3b57fe5b6020026020010151856040518463ffffffff1660e01b8152600401610a6293929190615d28565b60206040518083038186803b158015610a7a57600080fd5b505af4158015610a8e573d6000803e3d6000fd5b505050506040513d601f19601f82011682018060405250810190610ab291906157fd565b838281518110610abe57fe5b6020908102919091010152600101610a0a565b5050919050565b7f000000000000000000000000000000000000000000000000000000000000000081565b600080610b098533611e21565b9050610b2d336001600160a01b0387161480610b255750838210155b61019e6121cf565b610b388585856121dd565b336001600160a01b03861614801590610b5357506000198114155b15610b6557610b658533858403612051565b60019150505b9392505050565b610b7a6122c5565b610b826120b3565b610b8c60016122d8565b6000610b96610962565b1115610ba457610ba4612318565b565b60055460ff1690565b610bca8183108015610bc357506104008211155b60646121cf565b6000610bdf6001600080600080600080612360565b9050825b82811015610c2157600081815260086020526040902054610c03906123c2565b610c195760008181526008602052604090208290555b600101610be3565b50505050565b6000610c316123ce565b905090565b610c3e6120b3565b610c466122c5565b61095f8161248c565b7f000000000000000000000000000000000000000000000000000000000000000090565b3360008181526001602090815260408083206001600160a01b0387168452909152812054909161086f918590610ca990866124f5565b612051565b610cb661511e565b5060408051606081018252600b5460ff81161515825261010081046001600160781b03166020830152600160801b90046001600160801b03169181019190915290565b600d546040805180820190915260118152703737ba103830bab9b29036b0b730b3b2b960791b6020820152906001600160a01b03163314610db85760405162461bcd60e51b81526004018080602001828103825283818151815260200191508051906020019080838360005b83811015610d7d578181015183820152602001610d65565b50505050905090810190601f168015610daa5780820380516001836020036101000a031916815260200191505b509250505060405180910390fd5b50610dc36000610956565b6040517f215385c8bfc731925ec8068d7baa50f6b6f34417cc7804f7273dc2c0b3db279090600090a1565b600e546001600160a01b031681565b60008060008060008060006009549050610e1681612507565b9650610e2181612513565b9550610e2c81612520565b9450610e378161252d565b9350610e428161253a565b9250610e4d81612547565b915050909192939495565b6000610c31600954612547565b7f000000000000000000000000000000000000000000000000000000000000000081565b7f000000000000000000000000000000000000000000000000000000000000000081565b60006060610ebd86516002612554565b610ed2898989898989896125616126dc61275a565b97509795505050505050565b6000806000806000806000610ef9610400891061013b6121cf565b6000610f048961286d565b9050610f0f8161287f565b959f949e50929c50909a509850965090945092505050565b7f000000000000000000000000000000000000000000000000000000000000000081565b6000610c31610f58610962565b610f6a610f63611a46565b60026128e2565b90612906565b606081516001600160401b0381118015610f8957600080fd5b50604051908082528060200260200182016040528015610fb3578160200160208202803683370190505b5090506000610fc06121c2565b9050610fca61513e565b60005b845181101561101e57848181518110610fe257fe5b60200260200101519150610fff8260000151848460200151612960565b84828151811061100b57fe5b6020908102919091010152600101610fcd565b505050919050565b600c546001600160a01b031681565b6001600160a01b0381166000908152602081905260409020545b919050565b6060808861107e6110636114e3565b6001600160a01b0316336001600160a01b03161460cd6121cf565b611093611089610c4f565b82146101f46121cf565b61109c876129f9565b60008060006110b08d8d8d8d8d8d8d612561565b9250925092506110c08c84612a5b565b6110c9826126dc565b6110d2816126dc565b6110da61215d565b156110e7576110e7612318565b909c909b509950505050505050505050565b600c5460408051808201909152600e81526d1b9bdd08185d5d1a1bdc9a5e995960921b6020820152906001600160a01b0316331461114a5760405162461bcd60e51b81526004016108ca9190615d61565b50600b5460408051808201909152601081526f1c1bdbdb081a5cc81d5b98d85c1c195960821b60208201529060ff166111965760405162461bcd60e51b81526004016108ca9190615d61565b508051600b8054602084015160408086015160ff19909316941515949094176fffffffffffffffffffffffffffffff0019166101006001600160781b0390921691909102176001600160801b03908116600160801b919092160217815590517f2abf5970d7bc1a2b36eaae52dd2cc353edb0337c7284ef8a01973081b4e044249161091f91615de9565b611228615155565b611230615184565b611238612a65565b915091509091565b6001600160a01b031660009081526006602052604090205490565b7f000000000000000000000000000000000000000000000000000000000000000081565b600d546040805180820190915260118152703737ba103830bab9b29036b0b730b3b2b960791b60208201526001600160a01b03909116903382146113045760405162461bcd60e51b8152602060048201818152835160248401528351909283926044909101919085019080838360008315610d7d578181015183820152602001610d65565b50600d80546001600160a01b0319166001600160a01b03848116918217909255604080519284168352602083019190915280517f1ffccd1fa96f4fb3415df8048a0fd107344e262d2d246c85105e2a3f8f3e81989281900390910190a15050565b7f000000000000000000000000000000000000000000000000000000000000000081565b600d546040805180820190915260118152703737ba103830bab9b29036b0b730b3b2b960791b6020820152906001600160a01b0316331461140b5760405162461bcd60e51b8152602060048201818152835160248401528351909283926044909101919085019080838360008315610d7d578181015183820152602001610d65565b506114166001610956565b6040517f681eace576127d0553b224436a09801fb47d042942cbff59d7d4ff04d8fa03d790600090a1565b604080517f00000000000000000000000000000000000000000000000000000000000000006020808301919091526001600160e01b03198416828401528251602481840301815260449092019092528051910120919050565b600060606114aa86516002612554565b610ed289898989898989612c9b612e1761275a565b7f000000000000000000000000000000000000000000000000000000000000000090565b7f000000000000000000000000000000000000000000000000000000000000000090565b60048054604080516020601f60026000196101006001881615020190951694909404938401819004810282018101909252828152606093909290918301828280156108585780601f1061082d57610100808354040283529160200191610858565b600a5490565b60006115786122c5565b83608001516115886110636114e3565b611593611089610c4f565b60007f00000000000000000000000000000000000000000000000000000000000000006001600160a01b031686602001516001600160a01b031614801561160f57507f00000000000000000000000000000000000000000000000000000000000000006001600160a01b031686604001516001600160a01b0316145b1561161c575060016116ad565b7f00000000000000000000000000000000000000000000000000000000000000006001600160a01b031686602001516001600160a01b031614801561169657507f00000000000000000000000000000000000000000000000000000000000000006001600160a01b031686604001516001600160a01b0316145b156116a3575060006116ad565b6116ad6079612e79565b60006116b882612ecc565b905060006116c68315612ecc565b90506116d28783612f20565b96506116de8682612f20565b955060006116ed888886612f2c565b90506000806116fa612a65565b915091506117066151cd565b60008073__$4dfb88a4c975276bfeda73b9d8c1ea657b$__6378ace8578787876040518463ffffffff1660e01b815260040161174493929190615b6a565b604080518083038186803b15801561175b57600080fd5b505af415801561176f573d6000803e3d6000fd5b505050506040513d601f19601f820116820180604052508101906117939190615815565b91509150604051806040016040528082600202840181526020018381525092506117cc8e60a00151876117c585612fc6565b8888613021565b50600090508c5160018111156117de57fe5b141561188a5760006117fc6117f1610e58565b60608f015190613199565b905061181e611818828f606001516131ee90919063ffffffff16565b88612f20565b60608e015260006118338e878b888888613204565b90507f4e1d56f7310a8c32b2267f756b19ba65019b4890068ce114a25009abe54de5ba86848360405161186893929190615bdc565b60405180910390a161187a818861329c565b9a5050505050505050505061191b565b6118988c6060015186612f20565b60608d015260006118ad8d868a8787876132a8565b90507f4e1d56f7310a8c32b2267f756b19ba65019b4890068ce114a25009abe54de5ba8583836040516118e293929190615bdc565b60405180910390a16118f481886132f0565b9050611910611909611904610e58565b6132fc565b8290613322565b995050505050505050505b509392505050565b6000806119303385611e21565b905080831061194a5761194533856000612051565b611957565b6119573385858403612051565b5060019392505050565b600061086f3384846121dd565b6000610c31613388565b600d546001600160a01b031681565b600073__$85f042f43089d976c21d0d184f206dc395$__630397bee06008846119ae6121c2565b6040518463ffffffff1660e01b81526004016119cc93929190615ce0565b60206040518083038186803b1580156119e457600080fd5b505af41580156119f8573d6000803e3d6000fd5b505050506040513d601f19601f8201168201806040525081019061087391906157fd565b61040090565b7f000000000000000000000000000000000000000000000000000000000000000081565b600080611a516114e3565b6001600160a01b031663f94d4668611a67610c4f565b6040518263ffffffff1660e01b8152600401611a839190615c7d565b60006040518083038186803b158015611a9b57600080fd5b505afa158015611aaf573d6000803e3d6000fd5b505050506040513d6000823e601f3d908101601f19168201604052611ad79190810190615440565b50915050611ae4816129f9565b6000611aee613402565b9050611afa8183613471565b9250505090565b7f000000000000000000000000000000000000000000000000000000000000000081565b7f000000000000000000000000000000000000000000000000000000000000000081565b7f000000000000000000000000000000000000000000000000000000000000000081565b611b7b8442111560d16121cf565b6001600160a01b0380881660008181526006602090815260408083205481517f00000000000000000000000000000000000000000000000000000000000000008185015280830195909552948b166060850152608084018a905260a0840185905260c08085018a90528151808603909101815260e09094019052825192019190912090611c07826134e3565b9050600060018288888860405160008152602001604052604051808581526020018460ff1681526020018381526020018281526020019450505050506020604051602081039080840390855afa158015611c65573d6000803e3d6000fd5b5050604051601f1901519150611ca790506001600160a01b03821615801590611c9f57508b6001600160a01b0316826001600160a01b0316145b6101f86121cf565b6001600160a01b038b166000908152600660205260409020600185019055611cd08b8b8b612051565b5050505050505050505050565b60608088611cec6110636114e3565b611cf7611089610c4f565b611cff6122c5565b6000611d09610962565b611d7957611d198b8b8b8861352f565b94509050611d2e620f424082101560cc6121cf565b611d3c6000620f4240613674565b611d4b89620f42408303613674565b611d5484612e17565b6040805160028082526060820183529091602083019080368337019050509250611de7565b611d82886129f9565b611db58789600081518110611d9357fe5b60200260200101518a600181518110611da857fe5b6020026020010151611f79565b611dc48b8b8b8b8b8b8b612c9b565b90955093509050611dd58982613674565b611dde84612e17565b611de7836126dc565b611def612318565b505097509795505050505050565b7f000000000000000000000000000000000000000000000000000000000000000081565b6000611e2b6114e3565b6001600160a01b0316826001600160a01b03161415611e4d5750600019610873565b611e57838361367e565b9050610873565b7f000000000000000000000000000000000000000000000000000000000000000081565b6060610c31613402565b6201de2090565b80611e9d816136a9565b5050565b611ecd8160600151600013158015611ec55750670de0b6b3a7640000826060015113155b610163613722565b611ef88160400151600013158015611ec55750670de0b6b3a764000082604001511315610163613722565b604080518082018252606083015181529082015160208201526000611f1d8280613730565b9050611f4a670de0b6b3a763fc188212801590611f425750670de0b6b3a76403e88213155b610164613722565b611f798360800151600013158015611f7157506a52b7d2dcc80cd2e4000000846080015113155b610168613722565b505050565b6000610b6b83836055611fb0565b6000610b6b83836056611fd7565b6000611faa8383111560016121cf565b50900390565b60006001821b1984168284611fc6576000611fc9565b60015b60ff16901b17949350505050565b6001600160401b03811b1992909216911b1790565b600082820283158061200657508284828161200357fe5b05145b61201657612016600060036121cf565b670de0b6b3a764000090059392505050565b60008282018183121561203d57838112612042565b838112155b610b6b57610b6b6000806121cf565b6001600160a01b03808416600081815260016020908152604080832094871680845294825291829020859055815185815291517f8c5be1e5ebec7d5bd14f71427d1e84f3dd0314c0f7b2291e5b200ac8c7c3b9259281900390910190a3505050565b60006120ca6000356001600160e01b031916611441565b905061095f6120d98233613763565b6101916121cf565b8015612101576120fc6120f261217a565b42106101936121cf565b612116565b61211661210c61219e565b42106101a96121cf565b6007805482151560ff19909116811790915560408051918252517f9e3a5e37224532dea67b89face185703738a228a6e8a23dee546960180d3be649181900360200190a150565b600061216761219e565b421180610c3157505060075460ff161590565b7f000000000000000000000000000000000000000000000000000000000000000090565b7f000000000000000000000000000000000000000000000000000000000000000090565b6000610c3160095461252d565b81611e9d57611e9d81612e79565b6121f46001600160a01b03841615156101986121cf565b61220b6001600160a01b03831615156101996121cf565b612216838383611f79565b6001600160a01b03831660009081526020819052604090205461223c90826101a0613865565b6001600160a01b03808516600090815260208190526040808220939093559084168152205461226b90826124f5565b6001600160a01b038084166000818152602081815260409182902094909455805185815290519193928716927fddf252ad1be2c89b69c2b068fc378daa952ba7f163c4a11628f55a4df523b3ef92918290030190a3505050565b610ba46122d061215d565b6101926121cf565b6009546122e59082611f7e565b6009556040517f3e350b41e86a8e10f804ade6d35340d620be35569cc75ac943e8bb14ab80ead19061091f908390615c5a565b6009546123248161253a565b1561095f5761233e612337600a5461387b565b82906138bb565b905061235a61235361234e610962565b61387b565b82906138c8565b60095550565b600061236c82826138d6565b61237784601f6138da565b6123828660546138eb565b61238d88606a6138da565b6123988a609f6138eb565b6123a38c60b56138da565b6123ae8e60ea6138eb565b17171717171790505b979650505050505050565b600061087382826138f8565b60007f00000000000000000000000000000000000000000000000000000000000000007f00000000000000000000000000000000000000000000000000000000000000007f000000000000000000000000000000000000000000000000000000000000000061243b613902565b3060405160200180868152602001858152602001848152602001838152602001826001600160a01b031681526020019550505050505060405160208183030381529060405280519060200120905090565b61249f64e8d4a5100082101560cb6121cf565b6124b567016345785d8a000082111560ca6121cf565b6009546124c29082611f8c565b6009556040517fa9ba3ffe0b6c366b81232caab38605a0699ad5398d6cce76f91ee809e322dafc9061091f908390615c7d565b6000828201610b6b84821015836121cf565b60006108738282613906565b6000610873826016613906565b600061087382602c6138f8565b600061087382604b61392d565b6000610873826055613935565b600061087382605661393f565b611e9d81831460676121cf565b6000606080600080612571612a65565b9150915061257d61215d565b1561268f57604051636c1e543160e11b815260009073__$4dfb88a4c975276bfeda73b9d8c1ea657b$__9063d83ca862906125c0908d9087908790600401615b6a565b60206040518083038186803b1580156125d857600080fd5b505af41580156125ec573d6000803e3d6000fd5b505050506040513d601f19601f8201168201806040525081019061261091906157fd565b905061261f898b838686613021565b6126288161394c565b6126328a88613979565b909650945061264b8187612644610962565b60006139c5565b600a8190556040517fe1d39caf039c7dc6f364b1e29d1e67c4e330003a43f4991d50cf3e8840d95eac9161268191849190615e9b565b60405180910390a1506126a5565b6126998987613979565b600019600a5590955093505b6040805160028082526060820183528792879291906020830190803683370190505094509450945050509750975097945050505050565b612703816000815181106126ec57fe5b60200260200101516126fe6001612ecc565b613a1d565b8160008151811061271057fe5b60200260200101818152505061273e8160018151811061272c57fe5b60200260200101516126fe6000612ecc565b8160018151811061274b57fe5b60200260200101818152505050565b333014612818576000306001600160a01b031660003660405161277e929190615ac1565b6000604051808303816000865af19150503d80600081146127bb576040519150601f19603f3d011682016040523d82523d6000602084013e6127c0565b606091505b5050905080600081146127cf57fe5b60046000803e6000516001600160e01b0319166343adbafb60e01b81146127fa573d6000803e3d6000fd5b506020600460003e604060205260243d03602460403e601c3d016000f35b612821866129f9565b6000806128378b8b8b8b8b8b8b8b63ffffffff16565b5091509150612849818463ffffffff16565b8051601f1982018390526343adbafb603f1983015260200260231982016044820181fd5b60009081526008602052604090205490565b600080600080600080600061289388613a3d565b965061289e88613a4a565b95506128a988613a57565b94506128b488613a64565b93506128bf88613a71565b92506128ca88613a7e565b91506128d5886123c2565b9050919395979092949650565b6000828202610b6b8415806128ff5750838583816128fc57fe5b04145b60036121cf565b60008161291957612919600060046121cf565b8261292657506000610873565b670de0b6b3a76400008381029084828161293c57fe5b041461294e5761294e600060056121cf565b82818161295757fe5b04949350505050565b6040516334171a8560e01b815260009073__$85f042f43089d976c21d0d184f206dc395$__906334171a85906129a190600890889088908890600401615d02565b60206040518083038186803b1580156129b957600080fd5b505af41580156129cd573d6000803e3d6000fd5b505050506040513d601f19601f820116820180604052508101906129f191906157fd565b949350505050565b612a2081600081518110612a0957fe5b6020026020010151612a1b6001612ecc565b6128e2565b81600081518110612a2d57fe5b60200260200101818152505061273e81600181518110612a4957fe5b6020026020010151612a1b6000612ecc565b611e9d8282613a8b565b612a6d615155565b612a75615184565b7f00000000000000000000000000000000000000000000000000000000000000006080808401919091527f00000000000000000000000000000000000000000000000000000000000000006060808501919091527f00000000000000000000000000000000000000000000000000000000000000006040808601919091527f00000000000000000000000000000000000000000000000000000000000000006020808701919091527f000000000000000000000000000000000000000000000000000000000000000086528451858201517f0000000000000000000000000000000000000000000000000000000000000000818401527f000000000000000000000000000000000000000000000000000000000000000090527f0000000000000000000000000000000000000000000000000000000000000000918101919091527f000000000000000000000000000000000000000000000000000000000000000090527f000000000000000000000000000000000000000000000000000000000000000060c08501527f000000000000000000000000000000000000000000000000000000000000000060a08501527f0000000000000000000000000000000000000000000000000000000000000000928401929092527f0000000000000000000000000000000000000000000000000000000000000000908301527f0000000000000000000000000000000000000000000000000000000000000000908201529091565b6000606080600080612cab612a65565b91509150600073__$4dfb88a4c975276bfeda73b9d8c1ea657b$__63d83ca8628b85856040518463ffffffff1660e01b8152600401612cec93929190615b6a565b60206040518083038186803b158015612d0457600080fd5b505af4158015612d18573d6000803e3d6000fd5b505050506040513d601f19601f82011682018060405250810190612d3c91906157fd565b9050612d4b898b838686613021565b612d548161394c565b600080612d618c8a613b42565b600b54919350915060ff1615612d8b57612d8b82612d7e8f611035565b612d86610962565b613b7c565b612d9f8383612d98610962565b60016139c5565b600a8190556040517fe1d39caf039c7dc6f364b1e29d1e67c4e330003a43f4991d50cf3e8840d95eac91612dd591869190615e9b565b60405180910390a16040805160028082526060820183528492849291906020830190803683370190505097509750975050505050509750975097945050505050565b612e3e81600081518110612e2757fe5b6020026020010151612e396001612ecc565b613c8e565b81600081518110612e4b57fe5b60200260200101818152505061273e81600181518110612e6757fe5b6020026020010151612e396000612ecc565b62461bcd60e51b6000908152602060045260076024526642414c23000030600a808404818106603090810160081b95839006959095019082900491820690940160101b939093010160c81b604452606490fd5b600081612ef9577f0000000000000000000000000000000000000000000000000000000000000000610873565b507f0000000000000000000000000000000000000000000000000000000000000000919050565b6000610b6b83836128e2565b60408051600280825260608083018452926020830190803683370190505090508115612f8b578381600081518110612f6057fe5b6020026020010181815250508281600181518110612f7a57fe5b602002602001018181525050610b6b565b8281600081518110612f9957fe5b6020026020010181815250508381600181518110612fb357fe5b6020026020010181815250509392505050565b60008082121561301d576040805162461bcd60e51b815260206004820181905260248201527f53616665436173743a2076616c7565206d75737420626520706f736974697665604482015290519081900360640190fd5b5090565b60095461302d8161253a565b801561303857508543115b1561319157600073__$4dfb88a4c975276bfeda73b9d8c1ea657b$__63b0a208a78786866130658a613cc1565b6040518563ffffffff1660e01b81526004016130849493929190615b9b565b60206040518083038186803b15801561309c57600080fd5b505af41580156130b0573d6000803e3d6000fd5b505050506040513d601f19601f820116820180604052508101906130d491906157fd565b905060006130e182613d05565b905060006130f7876130f286612513565b613d10565b905060006131048561252d565b9050600061311186612520565b9050600061312a828487876131258c612507565b613d27565b905080831461318a5761313d8782613d7e565b96506131498742613d8c565b9650866009819055507f12ade7b7dd29c5e3df1e883f0a092467d851b06c52f3c4484a443d40b9cd6601816040516131819190615c7d565b60405180910390a15b5050505050505b505050505050565b60008282028315806131b35750828482816131b057fe5b04145b6131c3576131c3600060036121cf565b806131d2576000915050610873565b670de0b6b3a764000060001982015b0460010191505092915050565b600082821115611faa57611faa600060016121cf565b60608601516040516330ffa11b60e11b815260009173__$4dfb88a4c975276bfeda73b9d8c1ea657b$__916361ff42369161324c918a91908a908a908a908a90600401615c0c565b60206040518083038186803b15801561326457600080fd5b505af4158015613278573d6000803e3d6000fd5b505050506040513d601f19601f820116820180604052508101906123b791906157fd565b6000610b6b8383613a1d565b6060860151604051633b18ce7b60e21b815260009173__$4dfb88a4c975276bfeda73b9d8c1ea657b$__9163ec6339ec9161324c918a91908a908a908a908a90600401615c0c565b6000610b6b8383613c8e565b6000670de0b6b3a76400008210613314576000610873565b50670de0b6b3a76400000390565b60008161333557613335600060046121cf565b8261334257506000610873565b670de0b6b3a76400008381029084828161335857fe5b041461337c5761337c670de0b6b3a764000085838161337357fe5b041460056121cf565b8260018203816131e157fe5b60006133926114e3565b6001600160a01b031663aaabadc56040518163ffffffff1660e01b815260040160206040518083038186803b1580156133ca57600080fd5b505afa1580156133de573d6000803e3d6000fd5b505050506040513d601f19601f82011682018060405250810190610c31919061530c565b604080516002808252606080830184529260009291906020830190803683370190505090506134316001613d9a565b8160008151811061343e57fe5b6020026020010181815250506134546000613d9a565b8160018151811061346157fe5b6020908102919091010152905090565b670de0b6b3a764000060005b83518110156134d3576134c96134c285838151811061349857fe5b60200260200101518584815181106134ac57fe5b6020026020010151613dee90919063ffffffff16565b8390613e3d565b915060010161347d565b50610873600082116101376121cf565b60006134ed6123ce565b82604051602001808061190160f01b81525060020183815260200182815260200192505050604051602081830303815290604052805190602001209050919050565b60006060600061353e84613e66565b9050613559600082600381111561355157fe5b1460ce6121cf565b600061356485613e85565b905061357281516002612554565b61357b816129f9565b600080613586612a65565b91509150600073__$4dfb88a4c975276bfeda73b9d8c1ea657b$__63d83ca8628585856040518463ffffffff1660e01b81526004016135c793929190615b6a565b60206040518083038186803b1580156135df57600080fd5b505af41580156135f3573d6000803e3d6000fd5b505050506040513d601f19601f8201168201806040525081019061361791906157fd565b90507faf65f1a72bf4f8bc48e8153858e1f7b307ce39c88361a677c0a79c2a1ae571ef816040516136489190615c7d565b60405180910390a1600061365d8260026128e2565b600a92909255509a92995091975050505050505050565b611e9d8282613f39565b6001600160a01b03918216600090815260016020908152604080832093909416825291909152205490565b6002815110156136b85761095f565b6000816000815181106136c757fe5b602002602001015190506000600190505b8251811015611f795760008382815181106136ef57fe5b60200260200101519050613718816001600160a01b0316846001600160a01b03161060656121cf565b91506001016136d8565b81611e9d57611e9d81613fce565b6000610b6b61375083602001518560200151611fec90919063ffffffff16565b8351855161375d91611fec565b90612028565b600073ba1ba1ba1ba1ba1ba1ba1ba1ba1ba1ba1ba1ba1b6137826114bf565b6001600160a01b03161415801561379d575061379d83613fde565b156137c5576137aa6114bf565b6001600160a01b0316336001600160a01b0316149050610873565b6137cd613388565b6001600160a01b0316639be2a8848484306040518463ffffffff1660e01b815260040180848152602001836001600160a01b03168152602001826001600160a01b03168152602001935050505060206040518083038186803b15801561383257600080fd5b505afa158015613846573d6000803e3d6000fd5b505050506040513d602081101561385c57600080fd5b50519050610873565b600061387484841115836121cf565b5050900390565b60008061388783614010565b905060008082136138a057652d79883d200082036138aa565b652d79883d200082015b655af3107a40009005949350505050565b6000610b6b838383614074565b6000610b6b83836016614074565b1b90565b661fffffffffffff91909116901b90565b623fffff91909116901b90565b1c637fffffff1690565b4690565b600082821c623fffff16621fffff811361392057806129f1565b623fffff19179392505050565b1c6103ff1690565b1c60019081161490565b1c6001600160401b031690565b60008060008061395e600a548661408b565b9350935093509350613972848484846140f4565b5050505050565b60006060600061398884613e66565b9050600181600381111561399857fe5b14156139b2576139a88585614114565b90935091506139bd565b6139bd610150612e79565b509250929050565b600081156139f75760006139e3846139dd8888613199565b90613322565b90506139ef8682614146565b9150506129f1565b6000613a0784610f6a888861415e565b9050613a1386826131ee565b9695505050505050565b6000613a2c82151560046121cf565b818381613a3557fe5b049392505050565b60006108738260ea613906565b60006108738260b5614188565b600061087382609f613906565b600061087382606a614188565b6000610873826054613906565b600061087382601f614188565b613aa26001600160a01b038316151561019b6121cf565b613aae82600083611f79565b6001600160a01b038216600090815260208190526040902054613ad490826101a1613865565b6001600160a01b038316600090815260208190526040902055600254613afa90826141bb565b6002556040805182815290516000916001600160a01b038516917fddf252ad1be2c89b69c2b068fc378daa952ba7f163c4a11628f55a4df523b3ef9181900360200190a35050565b600060606000613b5184613e66565b90506003816003811115613b6157fe5b1415613b71576139a885856141c9565b6139bd610136612e79565b60408051606081018252600b5460ff81161515825261010081046001600160781b031660208301819052600160801b9091046001600160801b03169282019290925290613bc98585614146565b11156040518060400160405280601a81526020017f6f7665722061646472657373206c69717569646974792063617000000000000081525090613c1f5760405162461bcd60e51b81526004016108ca9190615d61565b5060408101516001600160801b0316613c388584614146565b11156040518060400160405280601981526020017f6f76657220676c6f62616c206c69717569646974792063617000000000000000815250906139725760405162461bcd60e51b81526004016108ca9190615d61565b6000613c9d82151560046121cf565b82613caa57506000610873565b816001840381613cb657fe5b046001019050610873565b6000600160ff1b821061301d5760405162461bcd60e51b8152600401808060200182810382526028815260200180615f0d6028913960400191505060405180910390fd5b60006108738261387b565b600080613d1c8461387b565b929092039392505050565b600080613d4385858542613d3a8b61286d565b939291906141ee565b9050607842889003101580613d585786613d61565b613d618761424e565b600081815260086020526040902092909255509695505050505050565b6000610b6b8383604b61425b565b6000610b6b8383602c61426b565b600081613dc7577f0000000000000000000000000000000000000000000000000000000000000000610873565b507f0000000000000000000000000000000000000000000000000000000000000000919050565b600080613dfb848461427d565b90506000613e15613e0e8361271061437e565b60016124f5565b905080821015613e2a57600092505050610873565b613e348282611f9a565b92505050610873565b6000828202613e578415806128ff5750838583816128fc57fe5b670de0b6b3a764000081612957565b6000818060200190516020811015613e7d57600080fd5b505192915050565b6060818060200190516040811015613e9c57600080fd5b815160208301805160405192949293830192919084640100000000821115613ec357600080fd5b908301906020820185811115613ed857600080fd5b8251866020820283011164010000000082111715613ef557600080fd5b82525081516020918201928201910280838360005b83811015613f22578181015183820152602001613f0a565b505050509190910160405250929695505050505050565b613f4560008383611f79565b600254613f5290826124f5565b6002556001600160a01b038216600090815260208190526040902054613f7890826124f5565b6001600160a01b0383166000818152602081815260408083209490945583518581529351929391927fddf252ad1be2c89b69c2b068fc378daa952ba7f163c4a11628f55a4df523b3ef9281900390910190a35050565b61095f816223aca960e91b6143c1565b6000613ff0631c74c91760e11b611441565b82148061087357506140086350dd6ed960e01b611441565b909114919050565b60006140206000831360646121cf565b670c7d713b49da00008213801561403e5750670f43fc2c04ee000082125b1561406457670de0b6b3a764000061405583614422565b8161405c57fe5b05905061104f565b61406d82614540565b905061104f565b623fffff828116821b90821b198416179392505050565b60008060008060008060008061409f6148df565b935093509350935083600014156140c4576000975087965090945092506140eb915050565b6000806140db8c8c6140d4610962565b8989614b4e565b909a509850929650909450505050505b92959194509250565b8315614104576141048285613674565b8215610c2157610c218184613674565b60006060600061412384614be9565b905060006141398683614134610962565b614c0b565b9196919550909350505050565b600082820183811015610b6b57610b6b6000806121cf565b600082820283158061417857508284828161417557fe5b04145b613e5757613e57600060036121cf565b600082821c661fffffffffffff16660fffffffffffff81136141aa57806129f1565b661fffffffffffff19179392505050565b6000610b6b83836001613865565b6000606060006141d884614be9565b9050600061413986836141e9610962565b614ca6565b6000806141fa876123c2565b83039050600081870261420c89613a4a565b019050600082870261421d8a613a64565b019050600083870261422e8b613a7e565b01905061424089848a858b868c612360565b9a9950505050505050505050565b6000610873826001614d41565b6103ff811b1992909216911b1790565b637fffffff811b1992909216911b1790565b6000816142935750670de0b6b3a7640000610873565b826142a057506000610873565b6142b1600160ff1b841060066121cf565b826142d7770bce5086492111aea88f4bb1ca6bcf584181ea8059f76532841060076121cf565b826000670c7d713b49da0000831380156142f85750670f43fc2c04ee000083125b1561432f57600061430884614422565b9050670de0b6b3a764000080820784020583670de0b6b3a76400008305020191505061433d565b8161433984614540565b0290505b670de0b6b3a76400009005614375680238fd42c5cf03ffff19821280159061436e575068070c1cc73b00c800008213155b60086121cf565b613a1381614d49565b60008282026143988415806128ff5750838583816128fc57fe5b806143a7576000915050610873565b670de0b6b3a7640000600019820104600101915050610873565b62461bcd60e51b600090815260206004526007602452600a808404818106603090810160081b958390069590950190829004918206850160101b01602363ffffff0060e086901c160160181b0190930160c81b60445260e882901c90606490fd5b670de0b6b3a7640000026000806a0c097ce7bc90715b34b9f160241b808401906ec097ce7bc90715b34b9f0fffffffff198501028161445d57fe5b05905060006a0c097ce7bc90715b34b9f160241b82800205905081806a0c097ce7bc90715b34b9f160241b81840205915060038205016a0c097ce7bc90715b34b9f160241b82840205915060058205016a0c097ce7bc90715b34b9f160241b82840205915060078205016a0c097ce7bc90715b34b9f160241b82840205915060098205016a0c097ce7bc90715b34b9f160241b828402059150600b8205016a0c097ce7bc90715b34b9f160241b828402059150600d8205016a0c097ce7bc90715b34b9f160241b828402059150600f826002919005919091010295945050505050565b6000670de0b6b3a764000082121561457c57614572826a0c097ce7bc90715b34b9f160241b8161456c57fe5b05614540565b600003905061104f565b60007e1600ef3172e58d2e933ec884fde10064c63b5372d805e203c000000000000083126145cd57770195e54c5dd42177f53a27172fa9ec630262827000000000830592506806f05b59d3b2000000015b73011798004d755d3c8bc8e03204cf44619e0000008312614605576b1425982cf597cd205cef7380830592506803782dace9d9000000015b606492830292026e01855144814a7ff805980ff0084000831261464d576e01855144814a7ff805980ff008400068056bc75e2d63100000840205925068ad78ebc5ac62000000015b6b02df0ab5a80a22c61ab5a7008312614688576b02df0ab5a80a22c61ab5a70068056bc75e2d6310000084020592506856bc75e2d631000000015b693f1fce3da636ea5cf85083126146bf57693f1fce3da636ea5cf85068056bc75e2d631000008402059250682b5e3af16b18800000015b690127fa27722cc06cc5e283126146f657690127fa27722cc06cc5e268056bc75e2d6310000084020592506815af1d78b58c400000015b68280e60114edb805d03831261472b5768280e60114edb805d0368056bc75e2d631000008402059250680ad78ebc5ac6200000015b680ebc5fb41746121110831261475657680ebc5fb4174612111068056bc75e2d631000009384020592015b6808f00f760a4b2db55d831261478b576808f00f760a4b2db55d68056bc75e2d6310000084020592506802b5e3af16b1880000015b6806f5f177578893793783126147c0576806f5f177578893793768056bc75e2d63100000840205925068015af1d78b58c40000015b6806248f33704b28660383126147f4576806248f33704b28660368056bc75e2d63100000840205925067ad78ebc5ac620000015b6805c548670b9510e7ac8312614828576805c548670b9510e7ac68056bc75e2d6310000084020592506756bc75e2d6310000015b600068056bc75e2d63100000840168056bc75e2d63100000808603028161484b57fe5b059050600068056bc75e2d63100000828002059050818068056bc75e2d63100000818402059150600382050168056bc75e2d63100000828402059150600582050168056bc75e2d63100000828402059150600782050168056bc75e2d63100000828402059150600982050168056bc75e2d63100000828402059150600b820501600202606485820105979650505050505050565b600e5460405163bd02d0f560e01b81526000918291829182916001600160a01b039091169063bd02d0f590614931907550524f544f434f4c5f535741505f4645455f5045524360501b90600401615c7d565b60206040518083038186803b15801561494957600080fd5b505afa15801561495d573d6000803e3d6000fd5b505050506040513d601f19601f8201168201806040525081019061498191906157fd565b600e5460405163bd02d0f560e01b81526001600160a01b039091169063bd02d0f5906149d1907f50524f544f434f4c5f4645455f4759524f5f504f5254494f4e0000000000000090600401615c7d565b60206040518083038186803b1580156149e957600080fd5b505afa1580156149fd573d6000803e3d6000fd5b505050506040513d601f19601f82011682018060405250810190614a2191906157fd565b600e546040516321f8a72160e01b81526001600160a01b03909116906321f8a72190614a61906c4759524f5f545245415355525960981b90600401615c7d565b60206040518083038186803b158015614a7957600080fd5b505afa158015614a8d573d6000803e3d6000fd5b505050506040513d601f19601f82011682018060405250810190614ab1919061530c565b600e546040516321f8a72160e01b81526001600160a01b03909116906321f8a72190614af0906b42414c5f545245415355525960a01b90600401615c7d565b60206040518083038186803b158015614b0857600080fd5b505afa158015614b1c573d6000803e3d6000fd5b505050506040513d601f19601f82011682018060405250810190614b40919061530c565b935093509350935090919293565b600080868611614b6357506000905080614bdf565b6000614b8385614b7d614b768a8c6131ee565b899061415e565b9061415e565b90506000614b9b614b94898b6131ee565b879061415e565b90506000614ba989836131ee565b90506000614bb78483612906565b90506000614bc5888361415e565b90506000614bd383836131ee565b91975090955050505050505b9550959350505050565b6000818060200190516040811015614c0057600080fd5b506020015192915050565b606083516001600160401b0381118015614c2457600080fd5b50604051908082528060200260200182016040528015614c4e578160200160208202803683370190505b50905060005b845181101561191b57614c8783610f6a86888581518110614c7157fe5b602002602001015161415e90919063ffffffff16565b828281518110614c9357fe5b6020908102919091010152600101614c54565b606083516001600160401b0381118015614cbf57600080fd5b50604051908082528060200260200182016040528015614ce9578160200160208202803683370190505b50905060005b845181101561191b57614d22836139dd86888581518110614d0c57fe5b602002602001015161319990919063ffffffff16565b828281518110614d2e57fe5b6020908102919091010152600101614cef565b016103ff1690565b6000614d78680238fd42c5cf03ffff198312158015614d71575068070c1cc73b00c800008313155b60096121cf565b6000821215614da357614d8d82600003614d49565b6a0c097ce7bc90715b34b9f160241b8161405c57fe5b60006806f05b59d3b20000008312614de357506806f05b59d3b1ffffff1990910190770195e54c5dd42177f53a27172fa9ec630262827000000000614e19565b6803782dace9d90000008312614e1557506803782dace9d8ffffff19909101906b1425982cf597cd205cef7380614e19565b5060015b6064929092029168056bc75e2d6310000068ad78ebc5ac620000008412614e695768ad78ebc5ac61ffffff199093019268056bc75e2d631000006e01855144814a7ff805980ff008400082020590505b6856bc75e2d6310000008412614ea5576856bc75e2d630ffffff199093019268056bc75e2d631000006b02df0ab5a80a22c61ab5a70082020590505b682b5e3af16b188000008412614edf57682b5e3af16b187fffff199093019268056bc75e2d63100000693f1fce3da636ea5cf85082020590505b6815af1d78b58c4000008412614f19576815af1d78b58c3fffff199093019268056bc75e2d63100000690127fa27722cc06cc5e282020590505b680ad78ebc5ac62000008412614f5257680ad78ebc5ac61fffff199093019268056bc75e2d6310000068280e60114edb805d0382020590505b68056bc75e2d631000008412614f8b5768056bc75e2d630fffff199093019268056bc75e2d63100000680ebc5fb4174612111082020590505b6802b5e3af16b18800008412614fc4576802b5e3af16b187ffff199093019268056bc75e2d631000006808f00f760a4b2db55d82020590505b68015af1d78b58c400008412614ffd5768015af1d78b58c3ffff199093019268056bc75e2d631000006806f5f177578893793782020590505b68056bc75e2d631000008481019085906002908280020505918201919050600368056bc75e2d631000008783020505918201919050600468056bc75e2d631000008783020505918201919050600568056bc75e2d631000008783020505918201919050600668056bc75e2d631000008783020505918201919050600768056bc75e2d631000008783020505918201919050600868056bc75e2d631000008783020505918201919050600968056bc75e2d631000008783020505918201919050600a68056bc75e2d631000008783020505918201919050600b68056bc75e2d631000008783020505918201919050600c68056bc75e2d631000008783020505918201919050606468056bc75e2d63100000848402058502059695505050505050565b604080516060810182526000808252602082018190529181019190915290565b604080518082019091526000808252602082015290565b6040518060a0016040528060008152602001600081526020016000815260200160008152602001600081525090565b6040518060e001604052806151976151cd565b81526020016151a46151cd565b815260200160008152602001600081526020016000815260200160008152602001600081525090565b604051806040016040528060008152602001600081525090565b803561104f81615ef7565b600082601f830112615202578081fd5b8151602061521761521283615eda565b615eb7565b8281528181019085830183850287018401881015615233578586fd5b855b8581101561525157815184529284019290840190600101615235565b5090979650505050505050565b8035801515811461104f57600080fd5b600082601f83011261527e578081fd5b81356001600160401b0381111561529157fe5b6152a4601f8201601f1916602001615eb7565b8181528460208386010111156152b8578283fd5b816020850160208301379081016020019190915292915050565b80356002811061104f57600080fd5b80356003811061104f57600080fd5b600060208284031215615301578081fd5b8135610b6b81615ef7565b60006020828403121561531d578081fd5b8151610b6b81615ef7565b6000806040838503121561533a578081fd5b823561534581615ef7565b9150602083013561535581615ef7565b809150509250929050565b600080600060608486031215615374578081fd5b833561537f81615ef7565b9250602084013561538f81615ef7565b929592945050506040919091013590565b600080600080600080600060e0888a0312156153ba578485fd5b87356153c581615ef7565b965060208801356153d581615ef7565b95506040880135945060608801359350608088013560ff811681146153f8578384fd5b9699959850939692959460a0840135945060c09093013592915050565b60008060408385031215615427578182fd5b823561543281615ef7565b946020939093013593505050565b600080600060608486031215615454578081fd5b83516001600160401b038082111561546a578283fd5b818601915086601f83011261547d578283fd5b8151602061548d61521283615eda565b82815281810190858301838502870184018c10156154a9578788fd5b8796505b848710156154d45780516154c081615ef7565b8352600196909601959183019183016154ad565b50918901519197509093505050808211156154ed578283fd5b506154fa868287016151f2565b925050604084015190509250925092565b6000602080838503121561551d578182fd5b82356001600160401b0380821115615533578384fd5b818501915085601f830112615546578384fd5b813561555461521282615eda565b818152848101908486016040808502870188018b1015615572578889fd5b8896505b848710156155ca5780828c03121561558c578889fd5b8051818101818110888211171561559f57fe5b82526155aa836152e1565b815282890135898201528452600196909601959287019290810190615576565b50909998505050505050505050565b600060208083850312156155eb578182fd5b82356001600160401b0380821115615601578384fd5b818501915085601f830112615614578384fd5b813561562261521282615eda565b818152848101908486016060808502870188018b1015615640578889fd5b8896505b848710156155ca5780828c03121561565a578889fd5b60408051828101818110898211171561566f57fe5b825261567a846152e1565b8152838a01358a82015281840135918101919091528452600196909601959287019290810190615644565b6000602082840312156156b6578081fd5b610b6b8261525e565b600080600080600080600060e0888a0312156156d9578081fd5b873596506020808901356156ec81615ef7565b965060408901356156fc81615ef7565b955060608901356001600160401b0380821115615717578384fd5b818b0191508b601f83011261572a578384fd5b813561573861521282615eda565b8082825285820191508585018f878886028801011115615756578788fd5b8795505b8386101561577857803583526001959095019491860191860161575a565b509850505060808b0135955060a08b0135945060c08b013592508083111561579e578384fd5b50506157ac8a828b0161526e565b91505092959891949750929550565b6000602082840312156157cc578081fd5b81356001600160e01b031981168114610b6b578182fd5b6000602082840312156157f4578081fd5b610b6b826152e1565b60006020828403121561580e578081fd5b5051919050565b60008060408385031215615827578182fd5b505080516020909101519092909150565b600060608284031215615849578081fd5b604051606081018181106001600160401b038211171561586557fe5b6040526158718361525e565b815260208301356001600160781b038116811461588c578283fd5b602082015260408301356001600160801b03811681146158aa578283fd5b60408201529392505050565b6000806000606084860312156158ca578081fd5b83356001600160401b03808211156158e0578283fd5b81860191506101208083890312156158f6578384fd5b6158ff81615eb7565b905061590a836152d2565b8152615918602084016151e7565b6020820152615929604084016151e7565b6040820152606083013560608201526080830135608082015260a083013560a082015261595860c084016151e7565b60c082015261596960e084016151e7565b60e08201526101008084013583811115615981578586fd5b61598d8a82870161526e565b9183019190915250976020870135975060409096013595945050505050565b6000602082840312156159bd578081fd5b5035919050565b600080604083850312156159d6578182fd5b50508035926020909101359150565b6000815180845260208085019450808401835b83811015615a14578151875295820195908201906001016159f8565b509495945050505050565b60038110615a2957fe5b9052565b615a38828251615ab2565b6020810151615a4a6040840182615ab2565b5060408101516080830152606081015160a0830152608081015160c083015260a081015160e083015260c08101516101008301525050565b80518252602081015160208301526040810151604083015260608101516060830152608081015160808301525050565b80518252602090810151910152565b6000828483379101908152919050565b6001600160a01b0391909116815260200190565b6020808252825182820181905260009190848201906040850190845b81811015615b1d57835183529284019291840191600101615b01565b50909695505050505050565b600060208252610b6b60208301846159e5565b600060408252615b4f60408301856159e5565b8281036020840152615b6181856159e5565b95945050505050565b60006101e0808352615b7e818401876159e5565b915050615b8e6020830185615a82565b6129f160c0830184615a2d565b6000610200808352615baf818401886159e5565b915050615bbf6020830186615a82565b615bcc60c0830185615a2d565b826101e083015295945050505050565b600060808252615bef60808301866159e5565b9050615bfe6020830185615ab2565b826060830152949350505050565b6000610260808352615c208184018a6159e5565b9150508660208301528515156040830152615c3e6060830186615a82565b615c4c610100830185615a2d565b6123b7610220830184615ab2565b901515815260200190565b92151583526020830191909152604082015260600190565b90815260200190565b968752602087019590955260408601939093526060850191909152608084015260a083015260c082015260e00190565b9586526020860194909452604085019290925260608401521515608083015260a082015260c00190565b83815260608101615cf46020830185615a1f565b826040830152949350505050565b84815260808101615d166020830186615a1f565b60408201939093526060015292915050565b600060a082019050848252615d41602083018551615a1f565b602084015160408381019190915290930151606082015260800152919050565b6000602080835283518082850152825b81811015615d8d57858101830151858201604001528201615d71565b81811115615d9e5783604083870101525b50601f01601f1916929092016040019392505050565b8151151581526020808301516001600160781b0316908201526040918201516001600160801b03169181019190915260600190565b905460ff811615158252600881901c6001600160781b0316602083015260801c604082015260600190565b6101c08101615e238285615a82565b615e3160a083018451615ab2565b6020830151615e4360e0840182615ab2565b5060408301516101208301526060830151610140830152608083015161016083015260a083015161018083015260c08301516101a08301529392505050565b6000838252604060208301526129f160408301846159e5565b918252602082015260400190565b60ff91909116815260200190565b6040518181016001600160401b0381118282101715615ed257fe5b604052919050565b60006001600160401b03821115615eed57fe5b5060209081020190565b6001600160a01b038116811461095f57600080fdfe53616665436173743a2076616c756520646f65736e27742066697420696e20616e20696e74323536a26469706673582212206df1c08e7c48068fdc68021e16ea045840f4d10fe79a1a354c989e79174715e664736f6c63430007060033","language":"Solidity","natspec":{"kind":"dev","methods":{"DOMAIN_SEPARATOR()":{"details":"See {IERC20Permit-DOMAIN_SEPARATOR}."},"_paramsAlpha()":{"notice":"Parameters of the ECLP pool"},"allowance(address,address)":{"details":"Override to grant the Vault infinite allowance, causing for Pool Tokens to not require approval. This is sound as the Vault already provides authorization mechanisms when initiation token transfers, which this contract inherits."},"approve(address,uint256)":{"details":"See {IERC20-approve}. Requirements: - `spender` cannot be the zero address."},"balanceOf(address)":{"details":"See {IERC20-balanceOf}."},"changePauseManager(address)":{"notice":"Changes the account that is allowed to pause a pool."},"decimals()":{"details":"Returns the number of decimals used to get its user representation. For example, if `decimals` equals `2`, a balance of `505` tokens should be displayed to a user as `5,05` (`505 / 10 ** 2`). Tokens usually opt for a value of 18, imitating the relationship between Ether and Wei. This is the value {ERC20} uses, unless {_setupDecimals} is called. NOTE: This information is only used for _display_ purposes: it in no way affects any of the arithmetic of the contract, including {IERC20-balanceOf} and {IERC20-transfer}."},"decreaseAllowance(address,uint256)":{"details":"Override to allow decreasing allowance by more than the current amount (setting it to zero)"},"dirtyUninitializedOracleSamples(uint256,uint256)":{"details":"Manually dirty oracle sample storage slots with dummy data, to reduce the gas cost of the future swaps that will initialize them. This function is only useful before the oracle has been fully initialized. `endIndex` is non-inclusive."},"enableOracle()":{"details":"Balancer Governance can always enable the Oracle, even if it was originally not enabled. This allows for Pools that unexpectedly drive much more volume and liquidity than expected to serve as Price Oracles. Note that the Oracle can only be enabled - it can never be disabled."},"getActionId(bytes4)":{"details":"Returns the action identifier associated with the external function described by `selector`."},"getInvariant()":{"details":"Returns the current value of the invariant."},"getLargestSafeQueryWindow()":{"details":"Returns largest time window that can be safely queried, where 'safely' means the Oracle is guaranteed to be able to produce a result and not revert. If a query has a non-zero `ago` value, then `secs + ago` (the oldest point in time) must be smaller than this value for 'safe' queries."},"getLatest(uint8)":{"details":"Returns latest sample of `variable`. Prices are represented as 18 decimal fixed point values."},"getPastAccumulators((uint8,uint256)[])":{"details":"Returns the accumulators corresponding to each of `queries`."},"getPausedState()":{"details":"Returns the current contract pause status, as well as the end times of the Pause Window and Buffer Period."},"getRate()":{"details":"This function returns the appreciation of one BPT relative to the underlying tokens. This starts at 1 when the pool is created and grows over time"},"getSample(uint256)":{"details":"Returns the raw data of the sample at `index`."},"getTimeWeightedAverage((uint8,uint256,uint256)[])":{"details":"Returns the time average weighted price corresponding to each of `queries`. Prices are represented as 18 decimal fixed point values."},"getTotalSamples()":{"details":"Returns the total number of samples."},"increaseAllowance(address,uint256)":{"details":"Atomically increases the allowance granted to `spender` by the caller. This is an alternative to {approve} that can be used as a mitigation for problems described in {IERC20-approve}. Emits an {Approval} event indicating the updated allowance. Requirements: - `spender` cannot be the zero address."},"name()":{"details":"Returns the name of the token."},"nonces(address)":{"details":"See {IERC20Permit-nonces}."},"onExitPool(bytes32,address,address,uint256[],uint256,uint256,bytes)":{"details":"Called by the Vault when a user calls `IVault.exitPool` to remove liquidity from this Pool. Returns how many tokens the Vault should deduct from the Pool's balances, as well as the amount of protocol fees the Pool owes to the Vault. The Vault will then take tokens from the Pool's balances and send them to `recipient`, as well as collect the reported amount in protocol fees, which the Pool should calculate based on `protocolSwapFeePercentage`. Protocol fees are charged on exit events to guarantee that users exiting the Pool have paid their share. `sender` is the account performing the exit (typically the pool shareholder), and `recipient` is the account to which the Vault will send the proceeds. `balances` contains the total token balances for each token the Pool registered in the Vault, in the same order that `IVault.getPoolTokens` would return. `lastChangeBlock` is the last block in which *any* of the Pool's registered tokens last changed its total balance. `userData` contains any pool-specific instructions needed to perform the calculations, such as the type of exit (e.g., proportional given an amount of pool shares, single-asset, multi-asset, etc.) Contracts implementing this function should check that the caller is indeed the Vault before performing any state-changing operations, such as burning pool shares."},"onJoinPool(bytes32,address,address,uint256[],uint256,uint256,bytes)":{"details":"Called by the Vault when a user calls `IVault.joinPool` to add liquidity to this Pool. Returns how many of each registered token the user should provide, as well as the amount of protocol fees the Pool owes to the Vault. The Vault will then take tokens from `sender` and add them to the Pool's balances, as well as collect the reported amount in protocol fees, which the pool should calculate based on `protocolSwapFeePercentage`. Protocol fees are reported and charged on join events so that the Pool is free of debt whenever new users join. `sender` is the account performing the join (from which tokens will be withdrawn), and `recipient` is the account designated to receive any benefits (typically pool shares). `balances` contains the total balances for each token the Pool registered in the Vault, in the same order that `IVault.getPoolTokens` would return. `lastChangeBlock` is the last block in which *any* of the Pool's registered tokens last changed its total balance. `userData` contains any pool-specific instructions needed to perform the calculations, such as the type of join (e.g., proportional given an amount of pool shares, single-asset, multi-asset, etc.) Contracts implementing this function should check that the caller is indeed the Vault before performing any state-changing operations, such as minting pool shares."},"onSwap((uint8,address,address,uint256,bytes32,uint256,address,address,bytes),uint256,uint256)":{"details":"Returns the current value of the invariant."},"pause()":{"notice":"Pauses the pool. Can only be called by the pause manager."},"permit(address,address,uint256,uint256,uint8,bytes32,bytes32)":{"details":"See {IERC20Permit-permit}."},"queryExit(bytes32,address,address,uint256[],uint256,uint256,bytes)":{"details":"Returns the amount of BPT that would be burned from `sender` if the `onExitPool` hook were called by the Vault with the same arguments, along with the number of tokens `recipient` would receive. This function is not meant to be called directly, but rather from a helper contract that fetches current Vault data, such as the protocol swap fee percentage and Pool balances. Like `IVault.queryBatchSwap`, this function is not view due to internal implementation details: the caller must explicitly use eth_call instead of eth_sendTransaction."},"queryJoin(bytes32,address,address,uint256[],uint256,uint256,bytes)":{"details":"Returns the amount of BPT that would be granted to `recipient` if the `onJoinPool` hook were called by the Vault with the same arguments, along with the number of tokens `sender` would have to supply. This function is not meant to be called directly, but rather from a helper contract that fetches current Vault data, such as the protocol swap fee percentage and Pool balances. Like `IVault.queryBatchSwap`, this function is not view due to internal implementation details: the caller must explicitly use eth_call instead of eth_sendTransaction."},"symbol()":{"details":"Returns the symbol of the token, usually a shorter version of the name."},"totalSupply()":{"details":"See {IERC20-totalSupply}."},"transfer(address,uint256)":{"details":"See {IERC20-transfer}. Requirements: - `recipient` cannot be the zero address. - the caller must have a balance of at least `amount`."},"transferFrom(address,address,uint256)":{"details":"Override to allow for 'infinite allowance' and let the token owner use `transferFrom` with no self-allowance"},"unpause()":{"notice":"Unpauses the pool. Can only be called by the pause manager."}},"version":1},"opcodes":"PUSH1 0x80 PUSH1 0x40 MSTORE CALLVALUE DUP1 ISZERO PUSH2 0x10 JUMPI PUSH1 0x0 DUP1 REVERT JUMPDEST POP PUSH1 0x4 CALLDATASIZE LT PUSH2 0x3DB JUMPI PUSH1 0x0 CALLDATALOAD PUSH1 0xE0 SHR DUP1 PUSH4 0x74F3B009 GT PUSH2 0x20A JUMPI DUP1 PUSH4 0xA9059CBB GT PUSH2 0x125 JUMPI DUP1 PUSH4 0xC4FEA7C9 GT PUSH2 0xB8 JUMPI DUP1 PUSH4 0xDC09F3AA GT PUSH2 0x87 JUMPI DUP1 PUSH4 0xDC09F3AA EQ PUSH2 0x799 JUMPI DUP1 PUSH4 0xDD62ED3E EQ PUSH2 0x7A1 JUMPI DUP1 PUSH4 0xDDB387C9 EQ PUSH2 0x7B4 JUMPI DUP1 PUSH4 0xF89F27ED EQ PUSH2 0x7BC JUMPI DUP1 PUSH4 0xFFD088EB EQ PUSH2 0x7C4 JUMPI PUSH2 0x3DB JUMP JUMPDEST DUP1 PUSH4 0xC4FEA7C9 EQ PUSH2 0x763 JUMPI DUP1 PUSH4 0xCE482387 EQ PUSH2 0x76B JUMPI DUP1 PUSH4 0xD505ACCF EQ PUSH2 0x773 JUMPI DUP1 PUSH4 0xD5C096C4 EQ PUSH2 0x786 JUMPI PUSH2 0x3DB JUMP JUMPDEST DUP1 PUSH4 0xB48B5B40 GT PUSH2 0xF4 JUMPI DUP1 PUSH4 0xB48B5B40 EQ PUSH2 0x743 JUMPI DUP1 PUSH4 0xBCC43692 EQ PUSH2 0x74B JUMPI DUP1 PUSH4 0xC0FF1A15 EQ PUSH2 0x753 JUMPI DUP1 PUSH4 0xC2C3BD6A EQ PUSH2 0x75B JUMPI PUSH2 0x3DB JUMP JUMPDEST DUP1 PUSH4 0xA9059CBB EQ PUSH2 0x70D JUMPI DUP1 PUSH4 0xAAABADC5 EQ PUSH2 0x720 JUMPI DUP1 PUSH4 0xABD13AFE EQ PUSH2 0x728 JUMPI DUP1 PUSH4 0xB10BE739 EQ PUSH2 0x730 JUMPI PUSH2 0x3DB JUMP JUMPDEST DUP1 PUSH4 0x851C1BB3 GT PUSH2 0x19D JUMPI DUP1 PUSH4 0x95D89B41 GT PUSH2 0x16C JUMPI DUP1 PUSH4 0x95D89B41 EQ PUSH2 0x6D7 JUMPI DUP1 PUSH4 0x9B02CDDE EQ PUSH2 0x6DF JUMPI DUP1 PUSH4 0x9D2C110C EQ PUSH2 0x6E7 JUMPI DUP1 PUSH4 0xA457C2D7 EQ PUSH2 0x6FA JUMPI PUSH2 0x3DB JUMP JUMPDEST DUP1 PUSH4 0x851C1BB3 EQ PUSH2 0x6A1 JUMPI DUP1 PUSH4 0x87EC6817 EQ PUSH2 0x6B4 JUMPI DUP1 PUSH4 0x893D20E8 EQ PUSH2 0x6C7 JUMPI DUP1 PUSH4 0x8D928AF8 EQ PUSH2 0x6CF JUMPI PUSH2 0x3DB JUMP JUMPDEST DUP1 PUSH4 0x7EF355CD GT PUSH2 0x1D9 JUMPI DUP1 PUSH4 0x7EF355CD EQ PUSH2 0x676 JUMPI DUP1 PUSH4 0x8002DF18 EQ PUSH2 0x67E JUMPI DUP1 PUSH4 0x8143EB76 EQ PUSH2 0x691 JUMPI DUP1 PUSH4 0x8456CB59 EQ PUSH2 0x699 JUMPI PUSH2 0x3DB JUMP JUMPDEST DUP1 PUSH4 0x74F3B009 EQ PUSH2 0x619 JUMPI DUP1 PUSH4 0x76E54A46 EQ PUSH2 0x63A JUMPI DUP1 PUSH4 0x7BE219A2 EQ PUSH2 0x64D JUMPI DUP1 PUSH4 0x7ECEBE00 EQ PUSH2 0x663 JUMPI PUSH2 0x3DB JUMP JUMPDEST DUP1 PUSH4 0x38FFF2D0 GT PUSH2 0x2FA JUMPI DUP1 PUSH4 0x591A137F GT PUSH2 0x28D JUMPI DUP1 PUSH4 0x679AEFCE GT PUSH2 0x25C JUMPI DUP1 PUSH4 0x679AEFCE EQ PUSH2 0x5D6 JUMPI DUP1 PUSH4 0x6B843239 EQ PUSH2 0x5DE JUMPI DUP1 PUSH4 0x6D785A87 EQ PUSH2 0x5FE JUMPI DUP1 PUSH4 0x70A08231 EQ PUSH2 0x606 JUMPI PUSH2 0x3DB JUMP JUMPDEST DUP1 PUSH4 0x591A137F EQ PUSH2 0x57F JUMPI DUP1 PUSH4 0x6028BFD4 EQ PUSH2 0x587 JUMPI DUP1 PUSH4 0x60D1507C EQ PUSH2 0x5A8 JUMPI DUP1 PUSH4 0x66E9DDF4 EQ PUSH2 0x5CE JUMPI PUSH2 0x3DB JUMP JUMPDEST DUP1 PUSH4 0x44BBDB55 GT PUSH2 0x2C9 JUMPI DUP1 PUSH4 0x44BBDB55 EQ PUSH2 0x540 JUMPI DUP1 PUSH4 0x4A6B0B15 EQ PUSH2 0x555 JUMPI DUP1 PUSH4 0x55C67628 EQ PUSH2 0x56F JUMPI DUP1 PUSH4 0x58ECBCC3 EQ PUSH2 0x577 JUMPI PUSH2 0x3DB JUMP JUMPDEST DUP1 PUSH4 0x38FFF2D0 EQ PUSH2 0x508 JUMPI DUP1 PUSH4 0x39509351 EQ PUSH2 0x510 JUMPI DUP1 PUSH4 0x3AEAE0D3 EQ PUSH2 0x523 JUMPI DUP1 PUSH4 0x3F4BA83A EQ PUSH2 0x538 JUMPI PUSH2 0x3DB JUMP JUMPDEST DUP1 PUSH4 0x1DCCD830 GT PUSH2 0x372 JUMPI DUP1 PUSH4 0x313CE567 GT PUSH2 0x341 JUMPI DUP1 PUSH4 0x313CE567 EQ PUSH2 0x4C5 JUMPI DUP1 PUSH4 0x3331BC36 EQ PUSH2 0x4DA JUMPI DUP1 PUSH4 0x3644E515 EQ PUSH2 0x4ED JUMPI DUP1 PUSH4 0x38E9922E EQ PUSH2 0x4F5 JUMPI PUSH2 0x3DB JUMP JUMPDEST DUP1 PUSH4 0x1DCCD830 EQ PUSH2 0x482 JUMPI DUP1 PUSH4 0x2024CF41 EQ PUSH2 0x4A2 JUMPI DUP1 PUSH4 0x23B872DD EQ PUSH2 0x4AA JUMPI DUP1 PUSH4 0x292C914A EQ PUSH2 0x4BD JUMPI PUSH2 0x3DB JUMP JUMPDEST DUP1 PUSH4 0x16C38B3C GT PUSH2 0x3AE JUMPI DUP1 PUSH4 0x16C38B3C EQ PUSH2 0x448 JUMPI DUP1 PUSH4 0x18160DDD EQ PUSH2 0x45B JUMPI DUP1 PUSH4 0x1C0DE051 EQ PUSH2 0x463 JUMPI DUP1 PUSH4 0x1D86BB99 EQ PUSH2 0x47A JUMPI PUSH2 0x3DB JUMP JUMPDEST DUP1 PUSH4 0x6FDDE03 EQ PUSH2 0x3E0 JUMPI DUP1 PUSH4 0x95EA7B3 EQ PUSH2 0x3FE JUMPI DUP1 PUSH4 0xE608B30 EQ PUSH2 0x41E JUMPI DUP1 PUSH4 0x1469ED6C EQ PUSH2 0x433 JUMPI JUMPDEST PUSH1 0x0 DUP1 REVERT JUMPDEST PUSH2 0x3E8 PUSH2 0x7CC JUMP JUMPDEST PUSH1 0x40 MLOAD PUSH2 0x3F5 SWAP2 SWAP1 PUSH2 0x5D61 JUMP JUMPDEST PUSH1 0x40 MLOAD DUP1 SWAP2 SUB SWAP1 RETURN JUMPDEST PUSH2 0x411 PUSH2 0x40C CALLDATASIZE PUSH1 0x4 PUSH2 0x5415 JUMP JUMPDEST PUSH2 0x862 JUMP JUMPDEST PUSH1 0x40 MLOAD PUSH2 0x3F5 SWAP2 SWAP1 PUSH2 0x5C5A JUMP JUMPDEST PUSH2 0x431 PUSH2 0x42C CALLDATASIZE PUSH1 0x4 PUSH2 0x52F0 JUMP JUMPDEST PUSH2 0x879 JUMP JUMPDEST STOP JUMPDEST PUSH2 0x43B PUSH2 0x92A JUMP JUMPDEST PUSH1 0x40 MLOAD PUSH2 0x3F5 SWAP2 SWAP1 PUSH2 0x5C7D JUMP JUMPDEST PUSH2 0x431 PUSH2 0x456 CALLDATASIZE PUSH1 0x4 PUSH2 0x56A5 JUMP JUMPDEST PUSH2 0x94E JUMP JUMPDEST PUSH2 0x43B PUSH2 0x962 JUMP JUMPDEST PUSH2 0x46B PUSH2 0x968 JUMP JUMPDEST PUSH1 0x40 MLOAD PUSH2 0x3F5 SWAP4 SWAP3 SWAP2 SWAP1 PUSH2 0x5C65 JUMP JUMPDEST PUSH2 0x43B PUSH2 0x991 JUMP JUMPDEST PUSH2 0x495 PUSH2 0x490 CALLDATASIZE PUSH1 0x4 PUSH2 0x55D9 JUMP JUMPDEST PUSH2 0x9B5 JUMP JUMPDEST PUSH1 0x40 MLOAD PUSH2 0x3F5 SWAP2 SWAP1 PUSH2 0x5B29 JUMP JUMPDEST PUSH2 0x43B PUSH2 0xAD8 JUMP JUMPDEST PUSH2 0x411 PUSH2 0x4B8 CALLDATASIZE PUSH1 0x4 PUSH2 0x5360 JUMP JUMPDEST PUSH2 0xAFC JUMP JUMPDEST PUSH2 0x431 PUSH2 0xB72 JUMP JUMPDEST PUSH2 0x4CD PUSH2 0xBA6 JUMP JUMPDEST PUSH1 0x40 MLOAD PUSH2 0x3F5 SWAP2 SWAP1 PUSH2 0x5EA9 JUMP JUMPDEST PUSH2 0x431 PUSH2 0x4E8 CALLDATASIZE PUSH1 0x4 PUSH2 0x59C4 JUMP JUMPDEST PUSH2 0xBAF JUMP JUMPDEST PUSH2 0x43B PUSH2 0xC27 JUMP JUMPDEST PUSH2 0x431 PUSH2 0x503 CALLDATASIZE PUSH1 0x4 PUSH2 0x59AC JUMP JUMPDEST PUSH2 0xC36 JUMP JUMPDEST PUSH2 0x43B PUSH2 0xC4F JUMP JUMPDEST PUSH2 0x411 PUSH2 0x51E CALLDATASIZE PUSH1 0x4 PUSH2 0x5415 JUMP JUMPDEST PUSH2 0xC73 JUMP JUMPDEST PUSH2 0x52B PUSH2 0xCAE JUMP JUMPDEST PUSH1 0x40 MLOAD PUSH2 0x3F5 SWAP2 SWAP1 PUSH2 0x5DB4 JUMP JUMPDEST PUSH2 0x431 PUSH2 0xCF9 JUMP JUMPDEST PUSH2 0x548 PUSH2 0xDEE JUMP JUMPDEST PUSH1 0x40 MLOAD PUSH2 0x3F5 SWAP2 SWAP1 PUSH2 0x5AD1 JUMP JUMPDEST PUSH2 0x55D PUSH2 0xDFD JUMP JUMPDEST PUSH1 0x40 MLOAD PUSH2 0x3F5 SWAP7 SWAP6 SWAP5 SWAP4 SWAP3 SWAP2 SWAP1 PUSH2 0x5CB6 JUMP JUMPDEST PUSH2 0x43B PUSH2 0xE58 JUMP JUMPDEST PUSH2 0x43B PUSH2 0xE65 JUMP JUMPDEST PUSH2 0x43B PUSH2 0xE89 JUMP JUMPDEST PUSH2 0x59A PUSH2 0x595 CALLDATASIZE PUSH1 0x4 PUSH2 0x56BF JUMP JUMPDEST PUSH2 0xEAD JUMP JUMPDEST PUSH1 0x40 MLOAD PUSH2 0x3F5 SWAP3 SWAP2 SWAP1 PUSH2 0x5E82 JUMP JUMPDEST PUSH2 0x5BB PUSH2 0x5B6 CALLDATASIZE PUSH1 0x4 PUSH2 0x59AC JUMP JUMPDEST PUSH2 0xEDE JUMP JUMPDEST PUSH1 0x40 MLOAD PUSH2 0x3F5 SWAP8 SWAP7 SWAP6 SWAP5 SWAP4 SWAP3 SWAP2 SWAP1 PUSH2 0x5C86 JUMP JUMPDEST PUSH2 0x43B PUSH2 0xF27 JUMP JUMPDEST PUSH2 0x43B PUSH2 0xF4B JUMP JUMPDEST PUSH2 0x5F1 PUSH2 0x5EC CALLDATASIZE PUSH1 0x4 PUSH2 0x550B JUMP JUMPDEST PUSH2 0xF70 JUMP JUMPDEST PUSH1 0x40 MLOAD PUSH2 0x3F5 SWAP2 SWAP1 PUSH2 0x5AE5 JUMP JUMPDEST PUSH2 0x548 PUSH2 0x1026 JUMP JUMPDEST PUSH2 0x43B PUSH2 0x614 CALLDATASIZE PUSH1 0x4 PUSH2 0x52F0 JUMP JUMPDEST PUSH2 0x1035 JUMP JUMPDEST PUSH2 0x62C PUSH2 0x627 CALLDATASIZE PUSH1 0x4 PUSH2 0x56BF JUMP JUMPDEST PUSH2 0x1054 JUMP JUMPDEST PUSH1 0x40 MLOAD PUSH2 0x3F5 SWAP3 SWAP2 SWAP1 PUSH2 0x5B3C JUMP JUMPDEST PUSH2 0x431 PUSH2 0x648 CALLDATASIZE PUSH1 0x4 PUSH2 0x5838 JUMP JUMPDEST PUSH2 0x10F9 JUMP JUMPDEST PUSH2 0x655 PUSH2 0x1220 JUMP JUMPDEST PUSH1 0x40 MLOAD PUSH2 0x3F5 SWAP3 SWAP2 SWAP1 PUSH2 0x5E14 JUMP JUMPDEST PUSH2 0x43B PUSH2 0x671 CALLDATASIZE PUSH1 0x4 PUSH2 0x52F0 JUMP JUMPDEST PUSH2 0x1240 JUMP JUMPDEST PUSH2 0x43B PUSH2 0x125B JUMP JUMPDEST PUSH2 0x431 PUSH2 0x68C CALLDATASIZE PUSH1 0x4 PUSH2 0x52F0 JUMP JUMPDEST PUSH2 0x127F JUMP JUMPDEST PUSH2 0x43B PUSH2 0x1365 JUMP JUMPDEST PUSH2 0x431 PUSH2 0x1389 JUMP JUMPDEST PUSH2 0x43B PUSH2 0x6AF CALLDATASIZE PUSH1 0x4 PUSH2 0x57BB JUMP JUMPDEST PUSH2 0x1441 JUMP JUMPDEST PUSH2 0x59A PUSH2 0x6C2 CALLDATASIZE PUSH1 0x4 PUSH2 0x56BF JUMP JUMPDEST PUSH2 0x149A JUMP JUMPDEST PUSH2 0x548 PUSH2 0x14BF JUMP JUMPDEST PUSH2 0x548 PUSH2 0x14E3 JUMP JUMPDEST PUSH2 0x3E8 PUSH2 0x1507 JUMP JUMPDEST PUSH2 0x43B PUSH2 0x1568 JUMP JUMPDEST PUSH2 0x43B PUSH2 0x6F5 CALLDATASIZE PUSH1 0x4 PUSH2 0x58B6 JUMP JUMPDEST PUSH2 0x156E JUMP JUMPDEST PUSH2 0x411 PUSH2 0x708 CALLDATASIZE PUSH1 0x4 PUSH2 0x5415 JUMP JUMPDEST PUSH2 0x1923 JUMP JUMPDEST PUSH2 0x411 PUSH2 0x71B CALLDATASIZE PUSH1 0x4 PUSH2 0x5415 JUMP JUMPDEST PUSH2 0x1961 JUMP JUMPDEST PUSH2 0x548 PUSH2 0x196E JUMP JUMPDEST PUSH2 0x548 PUSH2 0x1978 JUMP JUMPDEST PUSH2 0x43B PUSH2 0x73E CALLDATASIZE PUSH1 0x4 PUSH2 0x57E3 JUMP JUMPDEST PUSH2 0x1987 JUMP JUMPDEST PUSH2 0x43B PUSH2 0x1A1C JUMP JUMPDEST PUSH2 0x43B PUSH2 0x1A22 JUMP JUMPDEST PUSH2 0x43B PUSH2 0x1A46 JUMP JUMPDEST PUSH2 0x43B PUSH2 0x1B01 JUMP JUMPDEST PUSH2 0x43B PUSH2 0x1B25 JUMP JUMPDEST PUSH2 0x43B PUSH2 0x1B49 JUMP JUMPDEST PUSH2 0x431 PUSH2 0x781 CALLDATASIZE PUSH1 0x4 PUSH2 0x53A0 JUMP JUMPDEST PUSH2 0x1B6D JUMP JUMPDEST PUSH2 0x62C PUSH2 0x794 CALLDATASIZE PUSH1 0x4 PUSH2 0x56BF JUMP JUMPDEST PUSH2 0x1CDD JUMP JUMPDEST PUSH2 0x43B PUSH2 0x1DFD JUMP JUMPDEST PUSH2 0x43B PUSH2 0x7AF CALLDATASIZE PUSH1 0x4 PUSH2 0x5328 JUMP JUMPDEST PUSH2 0x1E21 JUMP JUMPDEST PUSH2 0x43B PUSH2 0x1E5E JUMP JUMPDEST PUSH2 0x495 PUSH2 0x1E82 JUMP JUMPDEST PUSH2 0x43B PUSH2 0x1E8C JUMP JUMPDEST PUSH1 0x3 DUP1 SLOAD PUSH1 0x40 DUP1 MLOAD PUSH1 0x20 PUSH1 0x1F PUSH1 0x2 PUSH1 0x0 NOT PUSH2 0x100 PUSH1 0x1 DUP9 AND ISZERO MUL ADD SWAP1 SWAP6 AND SWAP5 SWAP1 SWAP5 DIV SWAP4 DUP5 ADD DUP2 SWAP1 DIV DUP2 MUL DUP3 ADD DUP2 ADD SWAP1 SWAP3 MSTORE DUP3 DUP2 MSTORE PUSH1 0x60 SWAP4 SWAP1 SWAP3 SWAP1 SWAP2 DUP4 ADD DUP3 DUP3 DUP1 ISZERO PUSH2 0x858 JUMPI DUP1 PUSH1 0x1F LT PUSH2 0x82D JUMPI PUSH2 0x100 DUP1 DUP4 SLOAD DIV MUL DUP4 MSTORE SWAP2 PUSH1 0x20 ADD SWAP2 PUSH2 0x858 JUMP JUMPDEST DUP3 ADD SWAP2 SWAP1 PUSH1 0x0 MSTORE PUSH1 0x20 PUSH1 0x0 KECCAK256 SWAP1 JUMPDEST DUP2 SLOAD DUP2 MSTORE SWAP1 PUSH1 0x1 ADD SWAP1 PUSH1 0x20 ADD DUP1 DUP4 GT PUSH2 0x83B JUMPI DUP3 SWAP1 SUB PUSH1 0x1F AND DUP3 ADD SWAP2 JUMPDEST POP POP POP POP POP SWAP1 POP SWAP1 JUMP JUMPDEST PUSH1 0x0 PUSH2 0x86F CALLER DUP5 DUP5 PUSH2 0x2051 JUMP JUMPDEST POP PUSH1 0x1 JUMPDEST SWAP3 SWAP2 POP POP JUMP JUMPDEST PUSH1 0xC SLOAD PUSH1 0x40 DUP1 MLOAD DUP1 DUP3 ADD SWAP1 SWAP2 MSTORE PUSH1 0xE DUP2 MSTORE PUSH14 0x1B9BDD08185D5D1A1BDC9A5E9959 PUSH1 0x92 SHL PUSH1 0x20 DUP3 ADD MSTORE SWAP1 PUSH1 0x1 PUSH1 0x1 PUSH1 0xA0 SHL SUB AND CALLER EQ PUSH2 0x8D3 JUMPI PUSH1 0x40 MLOAD PUSH3 0x461BCD PUSH1 0xE5 SHL DUP2 MSTORE PUSH1 0x4 ADD PUSH2 0x8CA SWAP2 SWAP1 PUSH2 0x5D61 JUMP JUMPDEST PUSH1 0x40 MLOAD DUP1 SWAP2 SUB SWAP1 REVERT JUMPDEST POP PUSH1 0xC DUP1 SLOAD PUSH1 0x1 PUSH1 0x1 PUSH1 0xA0 SHL SUB NOT AND PUSH1 0x1 PUSH1 0x1 PUSH1 0xA0 SHL SUB DUP4 AND OR SWAP1 SSTORE PUSH1 0x40 MLOAD PUSH32 0xB8FD9AFC34C38FCD13B9A3B7646482EB1FDDCEFB40AF2C70609972816EBA3208 SWAP1 PUSH2 0x91F SWAP1 DUP4 SWAP1 PUSH2 0x5AD1 JUMP JUMPDEST PUSH1 0x40 MLOAD DUP1 SWAP2 SUB SWAP1 LOG1 POP JUMP JUMPDEST PUSH32 0x0 DUP2 JUMP JUMPDEST PUSH2 0x956 PUSH2 0x20B3 JUMP JUMPDEST PUSH2 0x95F DUP2 PUSH2 0x20E1 JUMP JUMPDEST POP JUMP JUMPDEST PUSH1 0x2 SLOAD SWAP1 JUMP JUMPDEST PUSH1 0x0 DUP1 PUSH1 0x0 PUSH2 0x975 PUSH2 0x215D JUMP JUMPDEST ISZERO SWAP3 POP PUSH2 0x980 PUSH2 0x217A JUMP JUMPDEST SWAP2 POP PUSH2 0x98A PUSH2 0x219E JUMP JUMPDEST SWAP1 POP SWAP1 SWAP2 SWAP3 JUMP JUMPDEST PUSH32 0x0 DUP2 JUMP JUMPDEST PUSH1 0x60 DUP2 MLOAD PUSH1 0x1 PUSH1 0x1 PUSH1 0x40 SHL SUB DUP2 GT DUP1 ISZERO PUSH2 0x9CE JUMPI PUSH1 0x0 DUP1 REVERT JUMPDEST POP PUSH1 0x40 MLOAD SWAP1 DUP1 DUP3 MSTORE DUP1 PUSH1 0x20 MUL PUSH1 0x20 ADD DUP3 ADD PUSH1 0x40 MSTORE DUP1 ISZERO PUSH2 0x9F8 JUMPI DUP2 PUSH1 0x20 ADD PUSH1 0x20 DUP3 MUL DUP1 CALLDATASIZE DUP4 CALLDATACOPY ADD SWAP1 POP JUMPDEST POP SWAP1 POP PUSH1 0x0 PUSH2 0xA05 PUSH2 0x21C2 JUMP JUMPDEST SWAP1 POP PUSH1 0x0 JUMPDEST DUP4 MLOAD DUP2 LT ISZERO PUSH2 0xAD1 JUMPI PUSH20 0x0 PUSH4 0x79EAEF82 PUSH1 0x8 DUP7 DUP5 DUP2 MLOAD DUP2 LT PUSH2 0xA3B JUMPI INVALID JUMPDEST PUSH1 0x20 MUL PUSH1 0x20 ADD ADD MLOAD DUP6 PUSH1 0x40 MLOAD DUP5 PUSH4 0xFFFFFFFF AND PUSH1 0xE0 SHL DUP2 MSTORE PUSH1 0x4 ADD PUSH2 0xA62 SWAP4 SWAP3 SWAP2 SWAP1 PUSH2 0x5D28 JUMP JUMPDEST PUSH1 0x20 PUSH1 0x40 MLOAD DUP1 DUP4 SUB DUP2 DUP7 DUP1 EXTCODESIZE ISZERO DUP1 ISZERO PUSH2 0xA7A JUMPI PUSH1 0x0 DUP1 REVERT JUMPDEST POP GAS DELEGATECALL ISZERO DUP1 ISZERO PUSH2 0xA8E JUMPI RETURNDATASIZE PUSH1 0x0 DUP1 RETURNDATACOPY RETURNDATASIZE PUSH1 0x0 REVERT JUMPDEST POP POP POP POP PUSH1 0x40 MLOAD RETURNDATASIZE PUSH1 0x1F NOT PUSH1 0x1F DUP3 ADD AND DUP3 ADD DUP1 PUSH1 0x40 MSTORE POP DUP2 ADD SWAP1 PUSH2 0xAB2 SWAP2 SWAP1 PUSH2 0x57FD JUMP JUMPDEST DUP4 DUP3 DUP2 MLOAD DUP2 LT PUSH2 0xABE JUMPI INVALID JUMPDEST PUSH1 0x20 SWAP1 DUP2 MUL SWAP2 SWAP1 SWAP2 ADD ADD MSTORE PUSH1 0x1 ADD PUSH2 0xA0A JUMP JUMPDEST POP POP SWAP2 SWAP1 POP JUMP JUMPDEST PUSH32 0x0 DUP2 JUMP JUMPDEST PUSH1 0x0 DUP1 PUSH2 0xB09 DUP6 CALLER PUSH2 0x1E21 JUMP JUMPDEST SWAP1 POP PUSH2 0xB2D CALLER PUSH1 0x1 PUSH1 0x1 PUSH1 0xA0 SHL SUB DUP8 AND EQ DUP1 PUSH2 0xB25 JUMPI POP DUP4 DUP3 LT ISZERO JUMPDEST PUSH2 0x19E PUSH2 0x21CF JUMP JUMPDEST PUSH2 0xB38 DUP6 DUP6 DUP6 PUSH2 0x21DD JUMP JUMPDEST CALLER PUSH1 0x1 PUSH1 0x1 PUSH1 0xA0 SHL SUB DUP7 AND EQ DUP1 ISZERO SWAP1 PUSH2 0xB53 JUMPI POP PUSH1 0x0 NOT DUP2 EQ ISZERO JUMPDEST ISZERO PUSH2 0xB65 JUMPI PUSH2 0xB65 DUP6 CALLER DUP6 DUP5 SUB PUSH2 0x2051 JUMP JUMPDEST PUSH1 0x1 SWAP2 POP POP JUMPDEST SWAP4 SWAP3 POP POP POP JUMP JUMPDEST PUSH2 0xB7A PUSH2 0x22C5 JUMP JUMPDEST PUSH2 0xB82 PUSH2 0x20B3 JUMP JUMPDEST PUSH2 0xB8C PUSH1 0x1 PUSH2 0x22D8 JUMP JUMPDEST PUSH1 0x0 PUSH2 0xB96 PUSH2 0x962 JUMP JUMPDEST GT ISZERO PUSH2 0xBA4 JUMPI PUSH2 0xBA4 PUSH2 0x2318 JUMP JUMPDEST JUMP JUMPDEST PUSH1 0x5 SLOAD PUSH1 0xFF AND SWAP1 JUMP JUMPDEST PUSH2 0xBCA DUP2 DUP4 LT DUP1 ISZERO PUSH2 0xBC3 JUMPI POP PUSH2 0x400 DUP3 GT ISZERO JUMPDEST PUSH1 0x64 PUSH2 0x21CF JUMP JUMPDEST PUSH1 0x0 PUSH2 0xBDF PUSH1 0x1 PUSH1 0x0 DUP1 PUSH1 0x0 DUP1 PUSH1 0x0 DUP1 PUSH2 0x2360 JUMP JUMPDEST SWAP1 POP DUP3 JUMPDEST DUP3 DUP2 LT ISZERO PUSH2 0xC21 JUMPI PUSH1 0x0 DUP2 DUP2 MSTORE PUSH1 0x8 PUSH1 0x20 MSTORE PUSH1 0x40 SWAP1 KECCAK256 SLOAD PUSH2 0xC03 SWAP1 PUSH2 0x23C2 JUMP JUMPDEST PUSH2 0xC19 JUMPI PUSH1 0x0 DUP2 DUP2 MSTORE PUSH1 0x8 PUSH1 0x20 MSTORE PUSH1 0x40 SWAP1 KECCAK256 DUP3 SWAP1 SSTORE JUMPDEST PUSH1 0x1 ADD PUSH2 0xBE3 JUMP JUMPDEST POP POP POP POP JUMP JUMPDEST PUSH1 0x0 PUSH2 0xC31 PUSH2 0x23CE JUMP JUMPDEST SWAP1 POP SWAP1 JUMP JUMPDEST PUSH2 0xC3E PUSH2 0x20B3 JUMP JUMPDEST PUSH2 0xC46 PUSH2 0x22C5 JUMP JUMPDEST PUSH2 0x95F DUP2 PUSH2 0x248C JUMP JUMPDEST PUSH32 0x0 SWAP1 JUMP JUMPDEST CALLER PUSH1 0x0 DUP2 DUP2 MSTORE PUSH1 0x1 PUSH1 0x20 SWAP1 DUP2 MSTORE PUSH1 0x40 DUP1 DUP4 KECCAK256 PUSH1 0x1 PUSH1 0x1 PUSH1 0xA0 SHL SUB DUP8 AND DUP5 MSTORE SWAP1 SWAP2 MSTORE DUP2 KECCAK256 SLOAD SWAP1 SWAP2 PUSH2 0x86F SWAP2 DUP6 SWAP1 PUSH2 0xCA9 SWAP1 DUP7 PUSH2 0x24F5 JUMP JUMPDEST PUSH2 0x2051 JUMP JUMPDEST PUSH2 0xCB6 PUSH2 0x511E JUMP JUMPDEST POP PUSH1 0x40 DUP1 MLOAD PUSH1 0x60 DUP2 ADD DUP3 MSTORE PUSH1 0xB SLOAD PUSH1 0xFF DUP2 AND ISZERO ISZERO DUP3 MSTORE PUSH2 0x100 DUP2 DIV PUSH1 0x1 PUSH1 0x1 PUSH1 0x78 SHL SUB AND PUSH1 0x20 DUP4 ADD MSTORE PUSH1 0x1 PUSH1 0x80 SHL SWAP1 DIV PUSH1 0x1 PUSH1 0x1 PUSH1 0x80 SHL SUB AND SWAP2 DUP2 ADD SWAP2 SWAP1 SWAP2 MSTORE SWAP1 JUMP JUMPDEST PUSH1 0xD SLOAD PUSH1 0x40 DUP1 MLOAD DUP1 DUP3 ADD SWAP1 SWAP2 MSTORE PUSH1 0x11 DUP2 MSTORE PUSH17 0x3737BA103830BAB9B29036B0B730B3B2B9 PUSH1 0x79 SHL PUSH1 0x20 DUP3 ADD MSTORE SWAP1 PUSH1 0x1 PUSH1 0x1 PUSH1 0xA0 SHL SUB AND CALLER EQ PUSH2 0xDB8 JUMPI PUSH1 0x40 MLOAD PUSH3 0x461BCD PUSH1 0xE5 SHL DUP2 MSTORE PUSH1 0x4 ADD DUP1 DUP1 PUSH1 0x20 ADD DUP3 DUP2 SUB DUP3 MSTORE DUP4 DUP2 DUP2 MLOAD DUP2 MSTORE PUSH1 0x20 ADD SWAP2 POP DUP1 MLOAD SWAP1 PUSH1 0x20 ADD SWAP1 DUP1 DUP4 DUP4 PUSH1 0x0 JUMPDEST DUP4 DUP2 LT ISZERO PUSH2 0xD7D JUMPI DUP2 DUP2 ADD MLOAD DUP4 DUP3 ADD MSTORE PUSH1 0x20 ADD PUSH2 0xD65 JUMP JUMPDEST POP POP POP POP SWAP1 POP SWAP1 DUP2 ADD SWAP1 PUSH1 0x1F AND DUP1 ISZERO PUSH2 0xDAA JUMPI DUP1 DUP3 SUB DUP1 MLOAD PUSH1 0x1 DUP4 PUSH1 0x20 SUB PUSH2 0x100 EXP SUB NOT AND DUP2 MSTORE PUSH1 0x20 ADD SWAP2 POP JUMPDEST POP SWAP3 POP POP POP PUSH1 0x40 MLOAD DUP1 SWAP2 SUB SWAP1 REVERT JUMPDEST POP PUSH2 0xDC3 PUSH1 0x0 PUSH2 0x956 JUMP JUMPDEST PUSH1 0x40 MLOAD PUSH32 0x215385C8BFC731925EC8068D7BAA50F6B6F34417CC7804F7273DC2C0B3DB2790 SWAP1 PUSH1 0x0 SWAP1 LOG1 JUMP JUMPDEST PUSH1 0xE SLOAD PUSH1 0x1 PUSH1 0x1 PUSH1 0xA0 SHL SUB AND DUP2 JUMP JUMPDEST PUSH1 0x0 DUP1 PUSH1 0x0 DUP1 PUSH1 0x0 DUP1 PUSH1 0x0 PUSH1 0x9 SLOAD SWAP1 POP PUSH2 0xE16 DUP2 PUSH2 0x2507 JUMP JUMPDEST SWAP7 POP PUSH2 0xE21 DUP2 PUSH2 0x2513 JUMP JUMPDEST SWAP6 POP PUSH2 0xE2C DUP2 PUSH2 0x2520 JUMP JUMPDEST SWAP5 POP PUSH2 0xE37 DUP2 PUSH2 0x252D JUMP JUMPDEST SWAP4 POP PUSH2 0xE42 DUP2 PUSH2 0x253A JUMP JUMPDEST SWAP3 POP PUSH2 0xE4D DUP2 PUSH2 0x2547 JUMP JUMPDEST SWAP2 POP POP SWAP1 SWAP2 SWAP3 SWAP4 SWAP5 SWAP6 JUMP JUMPDEST PUSH1 0x0 PUSH2 0xC31 PUSH1 0x9 SLOAD PUSH2 0x2547 JUMP JUMPDEST PUSH32 0x0 DUP2 JUMP JUMPDEST PUSH32 0x0 DUP2 JUMP JUMPDEST PUSH1 0x0 PUSH1 0x60 PUSH2 0xEBD DUP7 MLOAD PUSH1 0x2 PUSH2 0x2554 JUMP JUMPDEST PUSH2 0xED2 DUP10 DUP10 DUP10 DUP10 DUP10 DUP10 DUP10 PUSH2 0x2561 PUSH2 0x26DC PUSH2 0x275A JUMP JUMPDEST SWAP8 POP SWAP8 SWAP6 POP POP POP POP POP POP JUMP JUMPDEST PUSH1 0x0 DUP1 PUSH1 0x0 DUP1 PUSH1 0x0 DUP1 PUSH1 0x0 PUSH2 0xEF9 PUSH2 0x400 DUP10 LT PUSH2 0x13B PUSH2 0x21CF JUMP JUMPDEST PUSH1 0x0 PUSH2 0xF04 DUP10 PUSH2 0x286D JUMP JUMPDEST SWAP1 POP PUSH2 0xF0F DUP2 PUSH2 0x287F JUMP JUMPDEST SWAP6 SWAP16 SWAP5 SWAP15 POP SWAP3 SWAP13 POP SWAP1 SWAP11 POP SWAP9 POP SWAP7 POP SWAP1 SWAP5 POP SWAP3 POP POP POP JUMP JUMPDEST PUSH32 0x0 DUP2 JUMP JUMPDEST PUSH1 0x0 PUSH2 0xC31 PUSH2 0xF58 PUSH2 0x962 JUMP JUMPDEST PUSH2 0xF6A PUSH2 0xF63 PUSH2 0x1A46 JUMP JUMPDEST PUSH1 0x2 PUSH2 0x28E2 JUMP JUMPDEST SWAP1 PUSH2 0x2906 JUMP JUMPDEST PUSH1 0x60 DUP2 MLOAD PUSH1 0x1 PUSH1 0x1 PUSH1 0x40 SHL SUB DUP2 GT DUP1 ISZERO PUSH2 0xF89 JUMPI PUSH1 0x0 DUP1 REVERT JUMPDEST POP PUSH1 0x40 MLOAD SWAP1 DUP1 DUP3 MSTORE DUP1 PUSH1 0x20 MUL PUSH1 0x20 ADD DUP3 ADD PUSH1 0x40 MSTORE DUP1 ISZERO PUSH2 0xFB3 JUMPI DUP2 PUSH1 0x20 ADD PUSH1 0x20 DUP3 MUL DUP1 CALLDATASIZE DUP4 CALLDATACOPY ADD SWAP1 POP JUMPDEST POP SWAP1 POP PUSH1 0x0 PUSH2 0xFC0 PUSH2 0x21C2 JUMP JUMPDEST SWAP1 POP PUSH2 0xFCA PUSH2 0x513E JUMP JUMPDEST PUSH1 0x0 JUMPDEST DUP5 MLOAD DUP2 LT ISZERO PUSH2 0x101E JUMPI DUP5 DUP2 DUP2 MLOAD DUP2 LT PUSH2 0xFE2 JUMPI INVALID JUMPDEST PUSH1 0x20 MUL PUSH1 0x20 ADD ADD MLOAD SWAP2 POP PUSH2 0xFFF DUP3 PUSH1 0x0 ADD MLOAD DUP5 DUP5 PUSH1 0x20 ADD MLOAD PUSH2 0x2960 JUMP JUMPDEST DUP5 DUP3 DUP2 MLOAD DUP2 LT PUSH2 0x100B JUMPI INVALID JUMPDEST PUSH1 0x20 SWAP1 DUP2 MUL SWAP2 SWAP1 SWAP2 ADD ADD MSTORE PUSH1 0x1 ADD PUSH2 0xFCD JUMP JUMPDEST POP POP POP SWAP2 SWAP1 POP JUMP JUMPDEST PUSH1 0xC SLOAD PUSH1 0x1 PUSH1 0x1 PUSH1 0xA0 SHL SUB AND DUP2 JUMP JUMPDEST PUSH1 0x1 PUSH1 0x1 PUSH1 0xA0 SHL SUB DUP2 AND PUSH1 0x0 SWAP1 DUP2 MSTORE PUSH1 0x20 DUP2 SWAP1 MSTORE PUSH1 0x40 SWAP1 KECCAK256 SLOAD JUMPDEST SWAP2 SWAP1 POP JUMP JUMPDEST PUSH1 0x60 DUP1 DUP9 PUSH2 0x107E PUSH2 0x1063 PUSH2 0x14E3 JUMP JUMPDEST PUSH1 0x1 PUSH1 0x1 PUSH1 0xA0 SHL SUB AND CALLER PUSH1 0x1 PUSH1 0x1 PUSH1 0xA0 SHL SUB AND EQ PUSH1 0xCD PUSH2 0x21CF JUMP JUMPDEST PUSH2 0x1093 PUSH2 0x1089 PUSH2 0xC4F JUMP JUMPDEST DUP3 EQ PUSH2 0x1F4 PUSH2 0x21CF JUMP JUMPDEST PUSH2 0x109C DUP8 PUSH2 0x29F9 JUMP JUMPDEST PUSH1 0x0 DUP1 PUSH1 0x0 PUSH2 0x10B0 DUP14 DUP14 DUP14 DUP14 DUP14 DUP14 DUP14 PUSH2 0x2561 JUMP JUMPDEST SWAP3 POP SWAP3 POP SWAP3 POP PUSH2 0x10C0 DUP13 DUP5 PUSH2 0x2A5B JUMP JUMPDEST PUSH2 0x10C9 DUP3 PUSH2 0x26DC JUMP JUMPDEST PUSH2 0x10D2 DUP2 PUSH2 0x26DC JUMP JUMPDEST PUSH2 0x10DA PUSH2 0x215D JUMP JUMPDEST ISZERO PUSH2 0x10E7 JUMPI PUSH2 0x10E7 PUSH2 0x2318 JUMP JUMPDEST SWAP1 SWAP13 SWAP1 SWAP12 POP SWAP10 POP POP POP POP POP POP POP POP POP POP JUMP JUMPDEST PUSH1 0xC SLOAD PUSH1 0x40 DUP1 MLOAD DUP1 DUP3 ADD SWAP1 SWAP2 MSTORE PUSH1 0xE DUP2 MSTORE PUSH14 0x1B9BDD08185D5D1A1BDC9A5E9959 PUSH1 0x92 SHL PUSH1 0x20 DUP3 ADD MSTORE SWAP1 PUSH1 0x1 PUSH1 0x1 PUSH1 0xA0 SHL SUB AND CALLER EQ PUSH2 0x114A JUMPI PUSH1 0x40 MLOAD PUSH3 0x461BCD PUSH1 0xE5 SHL DUP2 MSTORE PUSH1 0x4 ADD PUSH2 0x8CA SWAP2 SWAP1 PUSH2 0x5D61 JUMP JUMPDEST POP PUSH1 0xB SLOAD PUSH1 0x40 DUP1 MLOAD DUP1 DUP3 ADD SWAP1 SWAP2 MSTORE PUSH1 0x10 DUP2 MSTORE PUSH16 0x1C1BDBDB081A5CC81D5B98D85C1C1959 PUSH1 0x82 SHL PUSH1 0x20 DUP3 ADD MSTORE SWAP1 PUSH1 0xFF AND PUSH2 0x1196 JUMPI PUSH1 0x40 MLOAD PUSH3 0x461BCD PUSH1 0xE5 SHL DUP2 MSTORE PUSH1 0x4 ADD PUSH2 0x8CA SWAP2 SWAP1 PUSH2 0x5D61 JUMP JUMPDEST POP DUP1 MLOAD PUSH1 0xB DUP1 SLOAD PUSH1 0x20 DUP5 ADD MLOAD PUSH1 0x40 DUP1 DUP7 ADD MLOAD PUSH1 0xFF NOT SWAP1 SWAP4 AND SWAP5 ISZERO ISZERO SWAP5 SWAP1 SWAP5 OR PUSH16 0xFFFFFFFFFFFFFFFFFFFFFFFFFFFFFF00 NOT AND PUSH2 0x100 PUSH1 0x1 PUSH1 0x1 PUSH1 0x78 SHL SUB SWAP1 SWAP3 AND SWAP2 SWAP1 SWAP2 MUL OR PUSH1 0x1 PUSH1 0x1 PUSH1 0x80 SHL SUB SWAP1 DUP2 AND PUSH1 0x1 PUSH1 0x80 SHL SWAP2 SWAP1 SWAP3 AND MUL OR DUP2 SSTORE SWAP1 MLOAD PUSH32 0x2ABF5970D7BC1A2B36EAAE52DD2CC353EDB0337C7284EF8A01973081B4E04424 SWAP2 PUSH2 0x91F SWAP2 PUSH2 0x5DE9 JUMP JUMPDEST PUSH2 0x1228 PUSH2 0x5155 JUMP JUMPDEST PUSH2 0x1230 PUSH2 0x5184 JUMP JUMPDEST PUSH2 0x1238 PUSH2 0x2A65 JUMP JUMPDEST SWAP2 POP SWAP2 POP SWAP1 SWAP2 JUMP JUMPDEST PUSH1 0x1 PUSH1 0x1 PUSH1 0xA0 SHL SUB AND PUSH1 0x0 SWAP1 DUP2 MSTORE PUSH1 0x6 PUSH1 0x20 MSTORE PUSH1 0x40 SWAP1 KECCAK256 SLOAD SWAP1 JUMP JUMPDEST PUSH32 0x0 DUP2 JUMP JUMPDEST PUSH1 0xD SLOAD PUSH1 0x40 DUP1 MLOAD DUP1 DUP3 ADD SWAP1 SWAP2 MSTORE PUSH1 0x11 DUP2 MSTORE PUSH17 0x3737BA103830BAB9B29036B0B730B3B2B9 PUSH1 0x79 SHL PUSH1 0x20 DUP3 ADD MSTORE PUSH1 0x1 PUSH1 0x1 PUSH1 0xA0 SHL SUB SWAP1 SWAP2 AND SWAP1 CALLER DUP3 EQ PUSH2 0x1304 JUMPI PUSH1 0x40 MLOAD PUSH3 0x461BCD PUSH1 0xE5 SHL DUP2 MSTORE PUSH1 0x20 PUSH1 0x4 DUP3 ADD DUP2 DUP2 MSTORE DUP4 MLOAD PUSH1 0x24 DUP5 ADD MSTORE DUP4 MLOAD SWAP1 SWAP3 DUP4 SWAP3 PUSH1 0x44 SWAP1 SWAP2 ADD SWAP2 SWAP1 DUP6 ADD SWAP1 DUP1 DUP4 DUP4 PUSH1 0x0 DUP4 ISZERO PUSH2 0xD7D JUMPI DUP2 DUP2 ADD MLOAD DUP4 DUP3 ADD MSTORE PUSH1 0x20 ADD PUSH2 0xD65 JUMP JUMPDEST POP PUSH1 0xD DUP1 SLOAD PUSH1 0x1 PUSH1 0x1 PUSH1 0xA0 SHL SUB NOT AND PUSH1 0x1 PUSH1 0x1 PUSH1 0xA0 SHL SUB DUP5 DUP2 AND SWAP2 DUP3 OR SWAP1 SWAP3 SSTORE PUSH1 0x40 DUP1 MLOAD SWAP3 DUP5 AND DUP4 MSTORE PUSH1 0x20 DUP4 ADD SWAP2 SWAP1 SWAP2 MSTORE DUP1 MLOAD PUSH32 0x1FFCCD1FA96F4FB3415DF8048A0FD107344E262D2D246C85105E2A3F8F3E8198 SWAP3 DUP2 SWAP1 SUB SWAP1 SWAP2 ADD SWAP1 LOG1 POP POP JUMP JUMPDEST PUSH32 0x0 DUP2 JUMP JUMPDEST PUSH1 0xD SLOAD PUSH1 0x40 DUP1 MLOAD DUP1 DUP3 ADD SWAP1 SWAP2 MSTORE PUSH1 0x11 DUP2 MSTORE PUSH17 0x3737BA103830BAB9B29036B0B730B3B2B9 PUSH1 0x79 SHL PUSH1 0x20 DUP3 ADD MSTORE SWAP1 PUSH1 0x1 PUSH1 0x1 PUSH1 0xA0 SHL SUB AND CALLER EQ PUSH2 0x140B JUMPI PUSH1 0x40 MLOAD PUSH3 0x461BCD PUSH1 0xE5 SHL DUP2 MSTORE PUSH1 0x20 PUSH1 0x4 DUP3 ADD DUP2 DUP2 MSTORE DUP4 MLOAD PUSH1 0x24 DUP5 ADD MSTORE DUP4 MLOAD SWAP1 SWAP3 DUP4 SWAP3 PUSH1 0x44 SWAP1 SWAP2 ADD SWAP2 SWAP1 DUP6 ADD SWAP1 DUP1 DUP4 DUP4 PUSH1 0x0 DUP4 ISZERO PUSH2 0xD7D JUMPI DUP2 DUP2 ADD MLOAD DUP4 DUP3 ADD MSTORE PUSH1 0x20 ADD PUSH2 0xD65 JUMP JUMPDEST POP PUSH2 0x1416 PUSH1 0x1 PUSH2 0x956 JUMP JUMPDEST PUSH1 0x40 MLOAD PUSH32 0x681EACE576127D0553B224436A09801FB47D042942CBFF59D7D4FF04D8FA03D7 SWAP1 PUSH1 0x0 SWAP1 LOG1 JUMP JUMPDEST PUSH1 0x40 DUP1 MLOAD PUSH32 0x0 PUSH1 0x20 DUP1 DUP4 ADD SWAP2 SWAP1 SWAP2 MSTORE PUSH1 0x1 PUSH1 0x1 PUSH1 0xE0 SHL SUB NOT DUP5 AND DUP3 DUP5 ADD MSTORE DUP3 MLOAD PUSH1 0x24 DUP2 DUP5 SUB ADD DUP2 MSTORE PUSH1 0x44 SWAP1 SWAP3 ADD SWAP1 SWAP3 MSTORE DUP1 MLOAD SWAP2 ADD KECCAK256 SWAP2 SWAP1 POP JUMP JUMPDEST PUSH1 0x0 PUSH1 0x60 PUSH2 0x14AA DUP7 MLOAD PUSH1 0x2 PUSH2 0x2554 JUMP JUMPDEST PUSH2 0xED2 DUP10 DUP10 DUP10 DUP10 DUP10 DUP10 DUP10 PUSH2 0x2C9B PUSH2 0x2E17 PUSH2 0x275A JUMP JUMPDEST PUSH32 0x0 SWAP1 JUMP JUMPDEST PUSH32 0x0 SWAP1 JUMP JUMPDEST PUSH1 0x4 DUP1 SLOAD PUSH1 0x40 DUP1 MLOAD PUSH1 0x20 PUSH1 0x1F PUSH1 0x2 PUSH1 0x0 NOT PUSH2 0x100 PUSH1 0x1 DUP9 AND ISZERO MUL ADD SWAP1 SWAP6 AND SWAP5 SWAP1 SWAP5 DIV SWAP4 DUP5 ADD DUP2 SWAP1 DIV DUP2 MUL DUP3 ADD DUP2 ADD SWAP1 SWAP3 MSTORE DUP3 DUP2 MSTORE PUSH1 0x60 SWAP4 SWAP1 SWAP3 SWAP1 SWAP2 DUP4 ADD DUP3 DUP3 DUP1 ISZERO PUSH2 0x858 JUMPI DUP1 PUSH1 0x1F LT PUSH2 0x82D JUMPI PUSH2 0x100 DUP1 DUP4 SLOAD DIV MUL DUP4 MSTORE SWAP2 PUSH1 0x20 ADD SWAP2 PUSH2 0x858 JUMP JUMPDEST PUSH1 0xA SLOAD SWAP1 JUMP JUMPDEST PUSH1 0x0 PUSH2 0x1578 PUSH2 0x22C5 JUMP JUMPDEST DUP4 PUSH1 0x80 ADD MLOAD PUSH2 0x1588 PUSH2 0x1063 PUSH2 0x14E3 JUMP JUMPDEST PUSH2 0x1593 PUSH2 0x1089 PUSH2 0xC4F JUMP JUMPDEST PUSH1 0x0 PUSH32 0x0 PUSH1 0x1 PUSH1 0x1 PUSH1 0xA0 SHL SUB AND DUP7 PUSH1 0x20 ADD MLOAD PUSH1 0x1 PUSH1 0x1 PUSH1 0xA0 SHL SUB AND EQ DUP1 ISZERO PUSH2 0x160F JUMPI POP PUSH32 0x0 PUSH1 0x1 PUSH1 0x1 PUSH1 0xA0 SHL SUB AND DUP7 PUSH1 0x40 ADD MLOAD PUSH1 0x1 PUSH1 0x1 PUSH1 0xA0 SHL SUB AND EQ JUMPDEST ISZERO PUSH2 0x161C JUMPI POP PUSH1 0x1 PUSH2 0x16AD JUMP JUMPDEST PUSH32 0x0 PUSH1 0x1 PUSH1 0x1 PUSH1 0xA0 SHL SUB AND DUP7 PUSH1 0x20 ADD MLOAD PUSH1 0x1 PUSH1 0x1 PUSH1 0xA0 SHL SUB AND EQ DUP1 ISZERO PUSH2 0x1696 JUMPI POP PUSH32 0x0 PUSH1 0x1 PUSH1 0x1 PUSH1 0xA0 SHL SUB AND DUP7 PUSH1 0x40 ADD MLOAD PUSH1 0x1 PUSH1 0x1 PUSH1 0xA0 SHL SUB AND EQ JUMPDEST ISZERO PUSH2 0x16A3 JUMPI POP PUSH1 0x0 PUSH2 0x16AD JUMP JUMPDEST PUSH2 0x16AD PUSH1 0x79 PUSH2 0x2E79 JUMP JUMPDEST PUSH1 0x0 PUSH2 0x16B8 DUP3 PUSH2 0x2ECC JUMP JUMPDEST SWAP1 POP PUSH1 0x0 PUSH2 0x16C6 DUP4 ISZERO PUSH2 0x2ECC JUMP JUMPDEST SWAP1 POP PUSH2 0x16D2 DUP8 DUP4 PUSH2 0x2F20 JUMP JUMPDEST SWAP7 POP PUSH2 0x16DE DUP7 DUP3 PUSH2 0x2F20 JUMP JUMPDEST SWAP6 POP PUSH1 0x0 PUSH2 0x16ED DUP9 DUP9 DUP7 PUSH2 0x2F2C JUMP JUMPDEST SWAP1 POP PUSH1 0x0 DUP1 PUSH2 0x16FA PUSH2 0x2A65 JUMP JUMPDEST SWAP2 POP SWAP2 POP PUSH2 0x1706 PUSH2 0x51CD JUMP JUMPDEST PUSH1 0x0 DUP1 PUSH20 0x0 PUSH4 0x78ACE857 DUP8 DUP8 DUP8 PUSH1 0x40 MLOAD DUP5 PUSH4 0xFFFFFFFF AND PUSH1 0xE0 SHL DUP2 MSTORE PUSH1 0x4 ADD PUSH2 0x1744 SWAP4 SWAP3 SWAP2 SWAP1 PUSH2 0x5B6A JUMP JUMPDEST PUSH1 0x40 DUP1 MLOAD DUP1 DUP4 SUB DUP2 DUP7 DUP1 EXTCODESIZE ISZERO DUP1 ISZERO PUSH2 0x175B JUMPI PUSH1 0x0 DUP1 REVERT JUMPDEST POP GAS DELEGATECALL ISZERO DUP1 ISZERO PUSH2 0x176F JUMPI RETURNDATASIZE PUSH1 0x0 DUP1 RETURNDATACOPY RETURNDATASIZE PUSH1 0x0 REVERT JUMPDEST POP POP POP POP PUSH1 0x40 MLOAD RETURNDATASIZE PUSH1 0x1F NOT PUSH1 0x1F DUP3 ADD AND DUP3 ADD DUP1 PUSH1 0x40 MSTORE POP DUP2 ADD SWAP1 PUSH2 0x1793 SWAP2 SWAP1 PUSH2 0x5815 JUMP JUMPDEST SWAP2 POP SWAP2 POP PUSH1 0x40 MLOAD DUP1 PUSH1 0x40 ADD PUSH1 0x40 MSTORE DUP1 DUP3 PUSH1 0x2 MUL DUP5 ADD DUP2 MSTORE PUSH1 0x20 ADD DUP4 DUP2 MSTORE POP SWAP3 POP PUSH2 0x17CC DUP15 PUSH1 0xA0 ADD MLOAD DUP8 PUSH2 0x17C5 DUP6 PUSH2 0x2FC6 JUMP JUMPDEST DUP9 DUP9 PUSH2 0x3021 JUMP JUMPDEST POP PUSH1 0x0 SWAP1 POP DUP13 MLOAD PUSH1 0x1 DUP2 GT ISZERO PUSH2 0x17DE JUMPI INVALID JUMPDEST EQ ISZERO PUSH2 0x188A JUMPI PUSH1 0x0 PUSH2 0x17FC PUSH2 0x17F1 PUSH2 0xE58 JUMP JUMPDEST PUSH1 0x60 DUP16 ADD MLOAD SWAP1 PUSH2 0x3199 JUMP JUMPDEST SWAP1 POP PUSH2 0x181E PUSH2 0x1818 DUP3 DUP16 PUSH1 0x60 ADD MLOAD PUSH2 0x31EE SWAP1 SWAP2 SWAP1 PUSH4 0xFFFFFFFF AND JUMP JUMPDEST DUP9 PUSH2 0x2F20 JUMP JUMPDEST PUSH1 0x60 DUP15 ADD MSTORE PUSH1 0x0 PUSH2 0x1833 DUP15 DUP8 DUP12 DUP9 DUP9 DUP9 PUSH2 0x3204 JUMP JUMPDEST SWAP1 POP PUSH32 0x4E1D56F7310A8C32B2267F756B19BA65019B4890068CE114A25009ABE54DE5BA DUP7 DUP5 DUP4 PUSH1 0x40 MLOAD PUSH2 0x1868 SWAP4 SWAP3 SWAP2 SWAP1 PUSH2 0x5BDC JUMP JUMPDEST PUSH1 0x40 MLOAD DUP1 SWAP2 SUB SWAP1 LOG1 PUSH2 0x187A DUP2 DUP9 PUSH2 0x329C JUMP JUMPDEST SWAP11 POP POP POP POP POP POP POP POP POP POP PUSH2 0x191B JUMP JUMPDEST PUSH2 0x1898 DUP13 PUSH1 0x60 ADD MLOAD DUP7 PUSH2 0x2F20 JUMP JUMPDEST PUSH1 0x60 DUP14 ADD MSTORE PUSH1 0x0 PUSH2 0x18AD DUP14 DUP7 DUP11 DUP8 DUP8 DUP8 PUSH2 0x32A8 JUMP JUMPDEST SWAP1 POP PUSH32 0x4E1D56F7310A8C32B2267F756B19BA65019B4890068CE114A25009ABE54DE5BA DUP6 DUP4 DUP4 PUSH1 0x40 MLOAD PUSH2 0x18E2 SWAP4 SWAP3 SWAP2 SWAP1 PUSH2 0x5BDC JUMP JUMPDEST PUSH1 0x40 MLOAD DUP1 SWAP2 SUB SWAP1 LOG1 PUSH2 0x18F4 DUP2 DUP9 PUSH2 0x32F0 JUMP JUMPDEST SWAP1 POP PUSH2 0x1910 PUSH2 0x1909 PUSH2 0x1904 PUSH2 0xE58 JUMP JUMPDEST PUSH2 0x32FC JUMP JUMPDEST DUP3 SWAP1 PUSH2 0x3322 JUMP JUMPDEST SWAP10 POP POP POP POP POP POP POP POP POP JUMPDEST POP SWAP4 SWAP3 POP POP POP JUMP JUMPDEST PUSH1 0x0 DUP1 PUSH2 0x1930 CALLER DUP6 PUSH2 0x1E21 JUMP JUMPDEST SWAP1 POP DUP1 DUP4 LT PUSH2 0x194A JUMPI PUSH2 0x1945 CALLER DUP6 PUSH1 0x0 PUSH2 0x2051 JUMP JUMPDEST PUSH2 0x1957 JUMP JUMPDEST PUSH2 0x1957 CALLER DUP6 DUP6 DUP5 SUB PUSH2 0x2051 JUMP JUMPDEST POP PUSH1 0x1 SWAP4 SWAP3 POP POP POP JUMP JUMPDEST PUSH1 0x0 PUSH2 0x86F CALLER DUP5 DUP5 PUSH2 0x21DD JUMP JUMPDEST PUSH1 0x0 PUSH2 0xC31 PUSH2 0x3388 JUMP JUMPDEST PUSH1 0xD SLOAD PUSH1 0x1 PUSH1 0x1 PUSH1 0xA0 SHL SUB AND DUP2 JUMP JUMPDEST PUSH1 0x0 PUSH20 0x0 PUSH4 0x397BEE0 PUSH1 0x8 DUP5 PUSH2 0x19AE PUSH2 0x21C2 JUMP JUMPDEST PUSH1 0x40 MLOAD DUP5 PUSH4 0xFFFFFFFF AND PUSH1 0xE0 SHL DUP2 MSTORE PUSH1 0x4 ADD PUSH2 0x19CC SWAP4 SWAP3 SWAP2 SWAP1 PUSH2 0x5CE0 JUMP JUMPDEST PUSH1 0x20 PUSH1 0x40 MLOAD DUP1 DUP4 SUB DUP2 DUP7 DUP1 EXTCODESIZE ISZERO DUP1 ISZERO PUSH2 0x19E4 JUMPI PUSH1 0x0 DUP1 REVERT JUMPDEST POP GAS DELEGATECALL ISZERO DUP1 ISZERO PUSH2 0x19F8 JUMPI RETURNDATASIZE PUSH1 0x0 DUP1 RETURNDATACOPY RETURNDATASIZE PUSH1 0x0 REVERT JUMPDEST POP POP POP POP PUSH1 0x40 MLOAD RETURNDATASIZE PUSH1 0x1F NOT PUSH1 0x1F DUP3 ADD AND DUP3 ADD DUP1 PUSH1 0x40 MSTORE POP DUP2 ADD SWAP1 PUSH2 0x873 SWAP2 SWAP1 PUSH2 0x57FD JUMP JUMPDEST PUSH2 0x400 SWAP1 JUMP JUMPDEST PUSH32 0x0 DUP2 JUMP JUMPDEST PUSH1 0x0 DUP1 PUSH2 0x1A51 PUSH2 0x14E3 JUMP JUMPDEST PUSH1 0x1 PUSH1 0x1 PUSH1 0xA0 SHL SUB AND PUSH4 0xF94D4668 PUSH2 0x1A67 PUSH2 0xC4F JUMP JUMPDEST PUSH1 0x40 MLOAD DUP3 PUSH4 0xFFFFFFFF AND PUSH1 0xE0 SHL DUP2 MSTORE PUSH1 0x4 ADD PUSH2 0x1A83 SWAP2 SWAP1 PUSH2 0x5C7D JUMP JUMPDEST PUSH1 0x0 PUSH1 0x40 MLOAD DUP1 DUP4 SUB DUP2 DUP7 DUP1 EXTCODESIZE ISZERO DUP1 ISZERO PUSH2 0x1A9B JUMPI PUSH1 0x0 DUP1 REVERT JUMPDEST POP GAS STATICCALL ISZERO DUP1 ISZERO PUSH2 0x1AAF JUMPI RETURNDATASIZE PUSH1 0x0 DUP1 RETURNDATACOPY RETURNDATASIZE PUSH1 0x0 REVERT JUMPDEST POP POP POP POP PUSH1 0x40 MLOAD RETURNDATASIZE PUSH1 0x0 DUP3 RETURNDATACOPY PUSH1 0x1F RETURNDATASIZE SWAP1 DUP2 ADD PUSH1 0x1F NOT AND DUP3 ADD PUSH1 0x40 MSTORE PUSH2 0x1AD7 SWAP2 SWAP1 DUP2 ADD SWAP1 PUSH2 0x5440 JUMP JUMPDEST POP SWAP2 POP POP PUSH2 0x1AE4 DUP2 PUSH2 0x29F9 JUMP JUMPDEST PUSH1 0x0 PUSH2 0x1AEE PUSH2 0x3402 JUMP JUMPDEST SWAP1 POP PUSH2 0x1AFA DUP2 DUP4 PUSH2 0x3471 JUMP JUMPDEST SWAP3 POP POP POP SWAP1 JUMP JUMPDEST PUSH32 0x0 DUP2 JUMP JUMPDEST PUSH32 0x0 DUP2 JUMP JUMPDEST PUSH32 0x0 DUP2 JUMP JUMPDEST PUSH2 0x1B7B DUP5 TIMESTAMP GT ISZERO PUSH1 0xD1 PUSH2 0x21CF JUMP JUMPDEST PUSH1 0x1 PUSH1 0x1 PUSH1 0xA0 SHL SUB DUP1 DUP9 AND PUSH1 0x0 DUP2 DUP2 MSTORE PUSH1 0x6 PUSH1 0x20 SWAP1 DUP2 MSTORE PUSH1 0x40 DUP1 DUP4 KECCAK256 SLOAD DUP2 MLOAD PUSH32 0x0 DUP2 DUP6 ADD MSTORE DUP1 DUP4 ADD SWAP6 SWAP1 SWAP6 MSTORE SWAP5 DUP12 AND PUSH1 0x60 DUP6 ADD MSTORE PUSH1 0x80 DUP5 ADD DUP11 SWAP1 MSTORE PUSH1 0xA0 DUP5 ADD DUP6 SWAP1 MSTORE PUSH1 0xC0 DUP1 DUP6 ADD DUP11 SWAP1 MSTORE DUP2 MLOAD DUP1 DUP7 SUB SWAP1 SWAP2 ADD DUP2 MSTORE PUSH1 0xE0 SWAP1 SWAP5 ADD SWAP1 MSTORE DUP3 MLOAD SWAP3 ADD SWAP2 SWAP1 SWAP2 KECCAK256 SWAP1 PUSH2 0x1C07 DUP3 PUSH2 0x34E3 JUMP JUMPDEST SWAP1 POP PUSH1 0x0 PUSH1 0x1 DUP3 DUP9 DUP9 DUP9 PUSH1 0x40 MLOAD PUSH1 0x0 DUP2 MSTORE PUSH1 0x20 ADD PUSH1 0x40 MSTORE PUSH1 0x40 MLOAD DUP1 DUP6 DUP2 MSTORE PUSH1 0x20 ADD DUP5 PUSH1 0xFF AND DUP2 MSTORE PUSH1 0x20 ADD DUP4 DUP2 MSTORE PUSH1 0x20 ADD DUP3 DUP2 MSTORE PUSH1 0x20 ADD SWAP5 POP POP POP POP POP PUSH1 0x20 PUSH1 0x40 MLOAD PUSH1 0x20 DUP2 SUB SWAP1 DUP1 DUP5 SUB SWAP1 DUP6 GAS STATICCALL ISZERO DUP1 ISZERO PUSH2 0x1C65 JUMPI RETURNDATASIZE PUSH1 0x0 DUP1 RETURNDATACOPY RETURNDATASIZE PUSH1 0x0 REVERT JUMPDEST POP POP PUSH1 0x40 MLOAD PUSH1 0x1F NOT ADD MLOAD SWAP2 POP PUSH2 0x1CA7 SWAP1 POP PUSH1 0x1 PUSH1 0x1 PUSH1 0xA0 SHL SUB DUP3 AND ISZERO DUP1 ISZERO SWAP1 PUSH2 0x1C9F JUMPI POP DUP12 PUSH1 0x1 PUSH1 0x1 PUSH1 0xA0 SHL SUB AND DUP3 PUSH1 0x1 PUSH1 0x1 PUSH1 0xA0 SHL SUB AND EQ JUMPDEST PUSH2 0x1F8 PUSH2 0x21CF JUMP JUMPDEST PUSH1 0x1 PUSH1 0x1 PUSH1 0xA0 SHL SUB DUP12 AND PUSH1 0x0 SWAP1 DUP2 MSTORE PUSH1 0x6 PUSH1 0x20 MSTORE PUSH1 0x40 SWAP1 KECCAK256 PUSH1 0x1 DUP6 ADD SWAP1 SSTORE PUSH2 0x1CD0 DUP12 DUP12 DUP12 PUSH2 0x2051 JUMP JUMPDEST POP POP POP POP POP POP POP POP POP POP POP JUMP JUMPDEST PUSH1 0x60 DUP1 DUP9 PUSH2 0x1CEC PUSH2 0x1063 PUSH2 0x14E3 JUMP JUMPDEST PUSH2 0x1CF7 PUSH2 0x1089 PUSH2 0xC4F JUMP JUMPDEST PUSH2 0x1CFF PUSH2 0x22C5 JUMP JUMPDEST PUSH1 0x0 PUSH2 0x1D09 PUSH2 0x962 JUMP JUMPDEST PUSH2 0x1D79 JUMPI PUSH2 0x1D19 DUP12 DUP12 DUP12 DUP9 PUSH2 0x352F JUMP JUMPDEST SWAP5 POP SWAP1 POP PUSH2 0x1D2E PUSH3 0xF4240 DUP3 LT ISZERO PUSH1 0xCC PUSH2 0x21CF JUMP JUMPDEST PUSH2 0x1D3C PUSH1 0x0 PUSH3 0xF4240 PUSH2 0x3674 JUMP JUMPDEST PUSH2 0x1D4B DUP10 PUSH3 0xF4240 DUP4 SUB PUSH2 0x3674 JUMP JUMPDEST PUSH2 0x1D54 DUP5 PUSH2 0x2E17 JUMP JUMPDEST PUSH1 0x40 DUP1 MLOAD PUSH1 0x2 DUP1 DUP3 MSTORE PUSH1 0x60 DUP3 ADD DUP4 MSTORE SWAP1 SWAP2 PUSH1 0x20 DUP4 ADD SWAP1 DUP1 CALLDATASIZE DUP4 CALLDATACOPY ADD SWAP1 POP POP SWAP3 POP PUSH2 0x1DE7 JUMP JUMPDEST PUSH2 0x1D82 DUP9 PUSH2 0x29F9 JUMP JUMPDEST PUSH2 0x1DB5 DUP8 DUP10 PUSH1 0x0 DUP2 MLOAD DUP2 LT PUSH2 0x1D93 JUMPI INVALID JUMPDEST PUSH1 0x20 MUL PUSH1 0x20 ADD ADD MLOAD DUP11 PUSH1 0x1 DUP2 MLOAD DUP2 LT PUSH2 0x1DA8 JUMPI INVALID JUMPDEST PUSH1 0x20 MUL PUSH1 0x20 ADD ADD MLOAD PUSH2 0x1F79 JUMP JUMPDEST PUSH2 0x1DC4 DUP12 DUP12 DUP12 DUP12 DUP12 DUP12 DUP12 PUSH2 0x2C9B JUMP JUMPDEST SWAP1 SWAP6 POP SWAP4 POP SWAP1 POP PUSH2 0x1DD5 DUP10 DUP3 PUSH2 0x3674 JUMP JUMPDEST PUSH2 0x1DDE DUP5 PUSH2 0x2E17 JUMP JUMPDEST PUSH2 0x1DE7 DUP4 PUSH2 0x26DC JUMP JUMPDEST PUSH2 0x1DEF PUSH2 0x2318 JUMP JUMPDEST POP POP SWAP8 POP SWAP8 SWAP6 POP POP POP POP POP POP JUMP JUMPDEST PUSH32 0x0 DUP2 JUMP JUMPDEST PUSH1 0x0 PUSH2 0x1E2B PUSH2 0x14E3 JUMP JUMPDEST PUSH1 0x1 PUSH1 0x1 PUSH1 0xA0 SHL SUB AND DUP3 PUSH1 0x1 PUSH1 0x1 PUSH1 0xA0 SHL SUB AND EQ ISZERO PUSH2 0x1E4D JUMPI POP PUSH1 0x0 NOT PUSH2 0x873 JUMP JUMPDEST PUSH2 0x1E57 DUP4 DUP4 PUSH2 0x367E JUMP JUMPDEST SWAP1 POP PUSH2 0x873 JUMP JUMPDEST PUSH32 0x0 DUP2 JUMP JUMPDEST PUSH1 0x60 PUSH2 0xC31 PUSH2 0x3402 JUMP JUMPDEST PUSH3 0x1DE20 SWAP1 JUMP JUMPDEST DUP1 PUSH2 0x1E9D DUP2 PUSH2 0x36A9 JUMP JUMPDEST POP POP JUMP JUMPDEST PUSH2 0x1ECD DUP2 PUSH1 0x60 ADD MLOAD PUSH1 0x0 SGT ISZERO DUP1 ISZERO PUSH2 0x1EC5 JUMPI POP PUSH8 0xDE0B6B3A7640000 DUP3 PUSH1 0x60 ADD MLOAD SGT ISZERO JUMPDEST PUSH2 0x163 PUSH2 0x3722 JUMP JUMPDEST PUSH2 0x1EF8 DUP2 PUSH1 0x40 ADD MLOAD PUSH1 0x0 SGT ISZERO DUP1 ISZERO PUSH2 0x1EC5 JUMPI POP PUSH8 0xDE0B6B3A7640000 DUP3 PUSH1 0x40 ADD MLOAD SGT ISZERO PUSH2 0x163 PUSH2 0x3722 JUMP JUMPDEST PUSH1 0x40 DUP1 MLOAD DUP1 DUP3 ADD DUP3 MSTORE PUSH1 0x60 DUP4 ADD MLOAD DUP2 MSTORE SWAP1 DUP3 ADD MLOAD PUSH1 0x20 DUP3 ADD MSTORE PUSH1 0x0 PUSH2 0x1F1D DUP3 DUP1 PUSH2 0x3730 JUMP JUMPDEST SWAP1 POP PUSH2 0x1F4A PUSH8 0xDE0B6B3A763FC18 DUP3 SLT DUP1 ISZERO SWAP1 PUSH2 0x1F42 JUMPI POP PUSH8 0xDE0B6B3A76403E8 DUP3 SGT ISZERO JUMPDEST PUSH2 0x164 PUSH2 0x3722 JUMP JUMPDEST PUSH2 0x1F79 DUP4 PUSH1 0x80 ADD MLOAD PUSH1 0x0 SGT ISZERO DUP1 ISZERO PUSH2 0x1F71 JUMPI POP PUSH11 0x52B7D2DCC80CD2E4000000 DUP5 PUSH1 0x80 ADD MLOAD SGT ISZERO JUMPDEST PUSH2 0x168 PUSH2 0x3722 JUMP JUMPDEST POP POP POP JUMP JUMPDEST PUSH1 0x0 PUSH2 0xB6B DUP4 DUP4 PUSH1 0x55 PUSH2 0x1FB0 JUMP JUMPDEST PUSH1 0x0 PUSH2 0xB6B DUP4 DUP4 PUSH1 0x56 PUSH2 0x1FD7 JUMP JUMPDEST PUSH1 0x0 PUSH2 0x1FAA DUP4 DUP4 GT ISZERO PUSH1 0x1 PUSH2 0x21CF JUMP JUMPDEST POP SWAP1 SUB SWAP1 JUMP JUMPDEST PUSH1 0x0 PUSH1 0x1 DUP3 SHL NOT DUP5 AND DUP3 DUP5 PUSH2 0x1FC6 JUMPI PUSH1 0x0 PUSH2 0x1FC9 JUMP JUMPDEST PUSH1 0x1 JUMPDEST PUSH1 0xFF AND SWAP1 SHL OR SWAP5 SWAP4 POP POP POP POP JUMP JUMPDEST PUSH1 0x1 PUSH1 0x1 PUSH1 0x40 SHL SUB DUP2 SHL NOT SWAP3 SWAP1 SWAP3 AND SWAP2 SHL OR SWAP1 JUMP JUMPDEST PUSH1 0x0 DUP3 DUP3 MUL DUP4 ISZERO DUP1 PUSH2 0x2006 JUMPI POP DUP3 DUP5 DUP3 DUP2 PUSH2 0x2003 JUMPI INVALID JUMPDEST SDIV EQ JUMPDEST PUSH2 0x2016 JUMPI PUSH2 0x2016 PUSH1 0x0 PUSH1 0x3 PUSH2 0x21CF JUMP JUMPDEST PUSH8 0xDE0B6B3A7640000 SWAP1 SDIV SWAP4 SWAP3 POP POP POP JUMP JUMPDEST PUSH1 0x0 DUP3 DUP3 ADD DUP2 DUP4 SLT ISZERO PUSH2 0x203D JUMPI DUP4 DUP2 SLT PUSH2 0x2042 JUMP JUMPDEST DUP4 DUP2 SLT ISZERO JUMPDEST PUSH2 0xB6B JUMPI PUSH2 0xB6B PUSH1 0x0 DUP1 PUSH2 0x21CF JUMP JUMPDEST PUSH1 0x1 PUSH1 0x1 PUSH1 0xA0 SHL SUB DUP1 DUP5 AND PUSH1 0x0 DUP2 DUP2 MSTORE PUSH1 0x1 PUSH1 0x20 SWAP1 DUP2 MSTORE PUSH1 0x40 DUP1 DUP4 KECCAK256 SWAP5 DUP8 AND DUP1 DUP5 MSTORE SWAP5 DUP3 MSTORE SWAP2 DUP3 SWAP1 KECCAK256 DUP6 SWAP1 SSTORE DUP2 MLOAD DUP6 DUP2 MSTORE SWAP2 MLOAD PUSH32 0x8C5BE1E5EBEC7D5BD14F71427D1E84F3DD0314C0F7B2291E5B200AC8C7C3B925 SWAP3 DUP2 SWAP1 SUB SWAP1 SWAP2 ADD SWAP1 LOG3 POP POP POP JUMP JUMPDEST PUSH1 0x0 PUSH2 0x20CA PUSH1 0x0 CALLDATALOAD PUSH1 0x1 PUSH1 0x1 PUSH1 0xE0 SHL SUB NOT AND PUSH2 0x1441 JUMP JUMPDEST SWAP1 POP PUSH2 0x95F PUSH2 0x20D9 DUP3 CALLER PUSH2 0x3763 JUMP JUMPDEST PUSH2 0x191 PUSH2 0x21CF JUMP JUMPDEST DUP1 ISZERO PUSH2 0x2101 JUMPI PUSH2 0x20FC PUSH2 0x20F2 PUSH2 0x217A JUMP JUMPDEST TIMESTAMP LT PUSH2 0x193 PUSH2 0x21CF JUMP JUMPDEST PUSH2 0x2116 JUMP JUMPDEST PUSH2 0x2116 PUSH2 0x210C PUSH2 0x219E JUMP JUMPDEST TIMESTAMP LT PUSH2 0x1A9 PUSH2 0x21CF JUMP JUMPDEST PUSH1 0x7 DUP1 SLOAD DUP3 ISZERO ISZERO PUSH1 0xFF NOT SWAP1 SWAP2 AND DUP2 OR SWAP1 SWAP2 SSTORE PUSH1 0x40 DUP1 MLOAD SWAP2 DUP3 MSTORE MLOAD PUSH32 0x9E3A5E37224532DEA67B89FACE185703738A228A6E8A23DEE546960180D3BE64 SWAP2 DUP2 SWAP1 SUB PUSH1 0x20 ADD SWAP1 LOG1 POP JUMP JUMPDEST PUSH1 0x0 PUSH2 0x2167 PUSH2 0x219E JUMP JUMPDEST TIMESTAMP GT DUP1 PUSH2 0xC31 JUMPI POP POP PUSH1 0x7 SLOAD PUSH1 0xFF AND ISZERO SWAP1 JUMP JUMPDEST PUSH32 0x0 SWAP1 JUMP JUMPDEST PUSH32 0x0 SWAP1 JUMP JUMPDEST PUSH1 0x0 PUSH2 0xC31 PUSH1 0x9 SLOAD PUSH2 0x252D JUMP JUMPDEST DUP2 PUSH2 0x1E9D JUMPI PUSH2 0x1E9D DUP2 PUSH2 0x2E79 JUMP JUMPDEST PUSH2 0x21F4 PUSH1 0x1 PUSH1 0x1 PUSH1 0xA0 SHL SUB DUP5 AND ISZERO ISZERO PUSH2 0x198 PUSH2 0x21CF JUMP JUMPDEST PUSH2 0x220B PUSH1 0x1 PUSH1 0x1 PUSH1 0xA0 SHL SUB DUP4 AND ISZERO ISZERO PUSH2 0x199 PUSH2 0x21CF JUMP JUMPDEST PUSH2 0x2216 DUP4 DUP4 DUP4 PUSH2 0x1F79 JUMP JUMPDEST PUSH1 0x1 PUSH1 0x1 PUSH1 0xA0 SHL SUB DUP4 AND PUSH1 0x0 SWAP1 DUP2 MSTORE PUSH1 0x20 DUP2 SWAP1 MSTORE PUSH1 0x40 SWAP1 KECCAK256 SLOAD PUSH2 0x223C SWAP1 DUP3 PUSH2 0x1A0 PUSH2 0x3865 JUMP JUMPDEST PUSH1 0x1 PUSH1 0x1 PUSH1 0xA0 SHL SUB DUP1 DUP6 AND PUSH1 0x0 SWAP1 DUP2 MSTORE PUSH1 0x20 DUP2 SWAP1 MSTORE PUSH1 0x40 DUP1 DUP3 KECCAK256 SWAP4 SWAP1 SWAP4 SSTORE SWAP1 DUP5 AND DUP2 MSTORE KECCAK256 SLOAD PUSH2 0x226B SWAP1 DUP3 PUSH2 0x24F5 JUMP JUMPDEST PUSH1 0x1 PUSH1 0x1 PUSH1 0xA0 SHL SUB DUP1 DUP5 AND PUSH1 0x0 DUP2 DUP2 MSTORE PUSH1 0x20 DUP2 DUP2 MSTORE PUSH1 0x40 SWAP2 DUP3 SWAP1 KECCAK256 SWAP5 SWAP1 SWAP5 SSTORE DUP1 MLOAD DUP6 DUP2 MSTORE SWAP1 MLOAD SWAP2 SWAP4 SWAP3 DUP8 AND SWAP3 PUSH32 0xDDF252AD1BE2C89B69C2B068FC378DAA952BA7F163C4A11628F55A4DF523B3EF SWAP3 SWAP2 DUP3 SWAP1 SUB ADD SWAP1 LOG3 POP POP POP JUMP JUMPDEST PUSH2 0xBA4 PUSH2 0x22D0 PUSH2 0x215D JUMP JUMPDEST PUSH2 0x192 PUSH2 0x21CF JUMP JUMPDEST PUSH1 0x9 SLOAD PUSH2 0x22E5 SWAP1 DUP3 PUSH2 0x1F7E JUMP JUMPDEST PUSH1 0x9 SSTORE PUSH1 0x40 MLOAD PUSH32 0x3E350B41E86A8E10F804ADE6D35340D620BE35569CC75AC943E8BB14AB80EAD1 SWAP1 PUSH2 0x91F SWAP1 DUP4 SWAP1 PUSH2 0x5C5A JUMP JUMPDEST PUSH1 0x9 SLOAD PUSH2 0x2324 DUP2 PUSH2 0x253A JUMP JUMPDEST ISZERO PUSH2 0x95F JUMPI PUSH2 0x233E PUSH2 0x2337 PUSH1 0xA SLOAD PUSH2 0x387B JUMP JUMPDEST DUP3 SWAP1 PUSH2 0x38BB JUMP JUMPDEST SWAP1 POP PUSH2 0x235A PUSH2 0x2353 PUSH2 0x234E PUSH2 0x962 JUMP JUMPDEST PUSH2 0x387B JUMP JUMPDEST DUP3 SWAP1 PUSH2 0x38C8 JUMP JUMPDEST PUSH1 0x9 SSTORE POP JUMP JUMPDEST PUSH1 0x0 PUSH2 0x236C DUP3 DUP3 PUSH2 0x38D6 JUMP JUMPDEST PUSH2 0x2377 DUP5 PUSH1 0x1F PUSH2 0x38DA JUMP JUMPDEST PUSH2 0x2382 DUP7 PUSH1 0x54 PUSH2 0x38EB JUMP JUMPDEST PUSH2 0x238D DUP9 PUSH1 0x6A PUSH2 0x38DA JUMP JUMPDEST PUSH2 0x2398 DUP11 PUSH1 0x9F PUSH2 0x38EB JUMP JUMPDEST PUSH2 0x23A3 DUP13 PUSH1 0xB5 PUSH2 0x38DA JUMP JUMPDEST PUSH2 0x23AE DUP15 PUSH1 0xEA PUSH2 0x38EB JUMP JUMPDEST OR OR OR OR OR OR SWAP1 POP JUMPDEST SWAP8 SWAP7 POP POP POP POP POP POP POP JUMP JUMPDEST PUSH1 0x0 PUSH2 0x873 DUP3 DUP3 PUSH2 0x38F8 JUMP JUMPDEST PUSH1 0x0 PUSH32 0x0 PUSH32 0x0 PUSH32 0x0 PUSH2 0x243B PUSH2 0x3902 JUMP JUMPDEST ADDRESS PUSH1 0x40 MLOAD PUSH1 0x20 ADD DUP1 DUP7 DUP2 MSTORE PUSH1 0x20 ADD DUP6 DUP2 MSTORE PUSH1 0x20 ADD DUP5 DUP2 MSTORE PUSH1 0x20 ADD DUP4 DUP2 MSTORE PUSH1 0x20 ADD DUP3 PUSH1 0x1 PUSH1 0x1 PUSH1 0xA0 SHL SUB AND DUP2 MSTORE PUSH1 0x20 ADD SWAP6 POP POP POP POP POP POP PUSH1 0x40 MLOAD PUSH1 0x20 DUP2 DUP4 SUB SUB DUP2 MSTORE SWAP1 PUSH1 0x40 MSTORE DUP1 MLOAD SWAP1 PUSH1 0x20 ADD KECCAK256 SWAP1 POP SWAP1 JUMP JUMPDEST PUSH2 0x249F PUSH5 0xE8D4A51000 DUP3 LT ISZERO PUSH1 0xCB PUSH2 0x21CF JUMP JUMPDEST PUSH2 0x24B5 PUSH8 0x16345785D8A0000 DUP3 GT ISZERO PUSH1 0xCA PUSH2 0x21CF JUMP JUMPDEST PUSH1 0x9 SLOAD PUSH2 0x24C2 SWAP1 DUP3 PUSH2 0x1F8C JUMP JUMPDEST PUSH1 0x9 SSTORE PUSH1 0x40 MLOAD PUSH32 0xA9BA3FFE0B6C366B81232CAAB38605A0699AD5398D6CCE76F91EE809E322DAFC SWAP1 PUSH2 0x91F SWAP1 DUP4 SWAP1 PUSH2 0x5C7D JUMP JUMPDEST PUSH1 0x0 DUP3 DUP3 ADD PUSH2 0xB6B DUP5 DUP3 LT ISZERO DUP4 PUSH2 0x21CF JUMP JUMPDEST PUSH1 0x0 PUSH2 0x873 DUP3 DUP3 PUSH2 0x3906 JUMP JUMPDEST PUSH1 0x0 PUSH2 0x873 DUP3 PUSH1 0x16 PUSH2 0x3906 JUMP JUMPDEST PUSH1 0x0 PUSH2 0x873 DUP3 PUSH1 0x2C PUSH2 0x38F8 JUMP JUMPDEST PUSH1 0x0 PUSH2 0x873 DUP3 PUSH1 0x4B PUSH2 0x392D JUMP JUMPDEST PUSH1 0x0 PUSH2 0x873 DUP3 PUSH1 0x55 PUSH2 0x3935 JUMP JUMPDEST PUSH1 0x0 PUSH2 0x873 DUP3 PUSH1 0x56 PUSH2 0x393F JUMP JUMPDEST PUSH2 0x1E9D DUP2 DUP4 EQ PUSH1 0x67 PUSH2 0x21CF JUMP JUMPDEST PUSH1 0x0 PUSH1 0x60 DUP1 PUSH1 0x0 DUP1 PUSH2 0x2571 PUSH2 0x2A65 JUMP JUMPDEST SWAP2 POP SWAP2 POP PUSH2 0x257D PUSH2 0x215D JUMP JUMPDEST ISZERO PUSH2 0x268F JUMPI PUSH1 0x40 MLOAD PUSH4 0x6C1E5431 PUSH1 0xE1 SHL DUP2 MSTORE PUSH1 0x0 SWAP1 PUSH20 0x0 SWAP1 PUSH4 0xD83CA862 SWAP1 PUSH2 0x25C0 SWAP1 DUP14 SWAP1 DUP8 SWAP1 DUP8 SWAP1 PUSH1 0x4 ADD PUSH2 0x5B6A JUMP JUMPDEST PUSH1 0x20 PUSH1 0x40 MLOAD DUP1 DUP4 SUB DUP2 DUP7 DUP1 EXTCODESIZE ISZERO DUP1 ISZERO PUSH2 0x25D8 JUMPI PUSH1 0x0 DUP1 REVERT JUMPDEST POP GAS DELEGATECALL ISZERO DUP1 ISZERO PUSH2 0x25EC JUMPI RETURNDATASIZE PUSH1 0x0 DUP1 RETURNDATACOPY RETURNDATASIZE PUSH1 0x0 REVERT JUMPDEST POP POP POP POP PUSH1 0x40 MLOAD RETURNDATASIZE PUSH1 0x1F NOT PUSH1 0x1F DUP3 ADD AND DUP3 ADD DUP1 PUSH1 0x40 MSTORE POP DUP2 ADD SWAP1 PUSH2 0x2610 SWAP2 SWAP1 PUSH2 0x57FD JUMP JUMPDEST SWAP1 POP PUSH2 0x261F DUP10 DUP12 DUP4 DUP7 DUP7 PUSH2 0x3021 JUMP JUMPDEST PUSH2 0x2628 DUP2 PUSH2 0x394C JUMP JUMPDEST PUSH2 0x2632 DUP11 DUP9 PUSH2 0x3979 JUMP JUMPDEST SWAP1 SWAP7 POP SWAP5 POP PUSH2 0x264B DUP2 DUP8 PUSH2 0x2644 PUSH2 0x962 JUMP JUMPDEST PUSH1 0x0 PUSH2 0x39C5 JUMP JUMPDEST PUSH1 0xA DUP2 SWAP1 SSTORE PUSH1 0x40 MLOAD PUSH32 0xE1D39CAF039C7DC6F364B1E29D1E67C4E330003A43F4991D50CF3E8840D95EAC SWAP2 PUSH2 0x2681 SWAP2 DUP5 SWAP2 SWAP1 PUSH2 0x5E9B JUMP JUMPDEST PUSH1 0x40 MLOAD DUP1 SWAP2 SUB SWAP1 LOG1 POP PUSH2 0x26A5 JUMP JUMPDEST PUSH2 0x2699 DUP10 DUP8 PUSH2 0x3979 JUMP JUMPDEST PUSH1 0x0 NOT PUSH1 0xA SSTORE SWAP1 SWAP6 POP SWAP4 POP JUMPDEST PUSH1 0x40 DUP1 MLOAD PUSH1 0x2 DUP1 DUP3 MSTORE PUSH1 0x60 DUP3 ADD DUP4 MSTORE DUP8 SWAP3 DUP8 SWAP3 SWAP2 SWAP1 PUSH1 0x20 DUP4 ADD SWAP1 DUP1 CALLDATASIZE DUP4 CALLDATACOPY ADD SWAP1 POP POP SWAP5 POP SWAP5 POP SWAP5 POP POP POP SWAP8 POP SWAP8 POP SWAP8 SWAP5 POP POP POP POP POP JUMP JUMPDEST PUSH2 0x2703 DUP2 PUSH1 0x0 DUP2 MLOAD DUP2 LT PUSH2 0x26EC JUMPI INVALID JUMPDEST PUSH1 0x20 MUL PUSH1 0x20 ADD ADD MLOAD PUSH2 0x26FE PUSH1 0x1 PUSH2 0x2ECC JUMP JUMPDEST PUSH2 0x3A1D JUMP JUMPDEST DUP2 PUSH1 0x0 DUP2 MLOAD DUP2 LT PUSH2 0x2710 JUMPI INVALID JUMPDEST PUSH1 0x20 MUL PUSH1 0x20 ADD ADD DUP2 DUP2 MSTORE POP POP PUSH2 0x273E DUP2 PUSH1 0x1 DUP2 MLOAD DUP2 LT PUSH2 0x272C JUMPI INVALID JUMPDEST PUSH1 0x20 MUL PUSH1 0x20 ADD ADD MLOAD PUSH2 0x26FE PUSH1 0x0 PUSH2 0x2ECC JUMP JUMPDEST DUP2 PUSH1 0x1 DUP2 MLOAD DUP2 LT PUSH2 0x274B JUMPI INVALID JUMPDEST PUSH1 0x20 MUL PUSH1 0x20 ADD ADD DUP2 DUP2 MSTORE POP POP POP JUMP JUMPDEST CALLER ADDRESS EQ PUSH2 0x2818 JUMPI PUSH1 0x0 ADDRESS PUSH1 0x1 PUSH1 0x1 PUSH1 0xA0 SHL SUB AND PUSH1 0x0 CALLDATASIZE PUSH1 0x40 MLOAD PUSH2 0x277E SWAP3 SWAP2 SWAP1 PUSH2 0x5AC1 JUMP JUMPDEST PUSH1 0x0 PUSH1 0x40 MLOAD DUP1 DUP4 SUB DUP2 PUSH1 0x0 DUP7 GAS CALL SWAP2 POP POP RETURNDATASIZE DUP1 PUSH1 0x0 DUP2 EQ PUSH2 0x27BB JUMPI PUSH1 0x40 MLOAD SWAP2 POP PUSH1 0x1F NOT PUSH1 0x3F RETURNDATASIZE ADD AND DUP3 ADD PUSH1 0x40 MSTORE RETURNDATASIZE DUP3 MSTORE RETURNDATASIZE PUSH1 0x0 PUSH1 0x20 DUP5 ADD RETURNDATACOPY PUSH2 0x27C0 JUMP JUMPDEST PUSH1 0x60 SWAP2 POP JUMPDEST POP POP SWAP1 POP DUP1 PUSH1 0x0 DUP2 EQ PUSH2 0x27CF JUMPI INVALID JUMPDEST PUSH1 0x4 PUSH1 0x0 DUP1 RETURNDATACOPY PUSH1 0x0 MLOAD PUSH1 0x1 PUSH1 0x1 PUSH1 0xE0 SHL SUB NOT AND PUSH4 0x43ADBAFB PUSH1 0xE0 SHL DUP2 EQ PUSH2 0x27FA JUMPI RETURNDATASIZE PUSH1 0x0 DUP1 RETURNDATACOPY RETURNDATASIZE PUSH1 0x0 REVERT JUMPDEST POP PUSH1 0x20 PUSH1 0x4 PUSH1 0x0 RETURNDATACOPY PUSH1 0x40 PUSH1 0x20 MSTORE PUSH1 0x24 RETURNDATASIZE SUB PUSH1 0x24 PUSH1 0x40 RETURNDATACOPY PUSH1 0x1C RETURNDATASIZE ADD PUSH1 0x0 RETURN JUMPDEST PUSH2 0x2821 DUP7 PUSH2 0x29F9 JUMP JUMPDEST PUSH1 0x0 DUP1 PUSH2 0x2837 DUP12 DUP12 DUP12 DUP12 DUP12 DUP12 DUP12 DUP12 PUSH4 0xFFFFFFFF AND JUMP JUMPDEST POP SWAP2 POP SWAP2 POP PUSH2 0x2849 DUP2 DUP5 PUSH4 0xFFFFFFFF AND JUMP JUMPDEST DUP1 MLOAD PUSH1 0x1F NOT DUP3 ADD DUP4 SWAP1 MSTORE PUSH4 0x43ADBAFB PUSH1 0x3F NOT DUP4 ADD MSTORE PUSH1 0x20 MUL PUSH1 0x23 NOT DUP3 ADD PUSH1 0x44 DUP3 ADD DUP2 REVERT JUMPDEST PUSH1 0x0 SWAP1 DUP2 MSTORE PUSH1 0x8 PUSH1 0x20 MSTORE PUSH1 0x40 SWAP1 KECCAK256 SLOAD SWAP1 JUMP JUMPDEST PUSH1 0x0 DUP1 PUSH1 0x0 DUP1 PUSH1 0x0 DUP1 PUSH1 0x0 PUSH2 0x2893 DUP9 PUSH2 0x3A3D JUMP JUMPDEST SWAP7 POP PUSH2 0x289E DUP9 PUSH2 0x3A4A JUMP JUMPDEST SWAP6 POP PUSH2 0x28A9 DUP9 PUSH2 0x3A57 JUMP JUMPDEST SWAP5 POP PUSH2 0x28B4 DUP9 PUSH2 0x3A64 JUMP JUMPDEST SWAP4 POP PUSH2 0x28BF DUP9 PUSH2 0x3A71 JUMP JUMPDEST SWAP3 POP PUSH2 0x28CA DUP9 PUSH2 0x3A7E JUMP JUMPDEST SWAP2 POP PUSH2 0x28D5 DUP9 PUSH2 0x23C2 JUMP JUMPDEST SWAP1 POP SWAP2 SWAP4 SWAP6 SWAP8 SWAP1 SWAP3 SWAP5 SWAP7 POP JUMP JUMPDEST PUSH1 0x0 DUP3 DUP3 MUL PUSH2 0xB6B DUP5 ISZERO DUP1 PUSH2 0x28FF JUMPI POP DUP4 DUP6 DUP4 DUP2 PUSH2 0x28FC JUMPI INVALID JUMPDEST DIV EQ JUMPDEST PUSH1 0x3 PUSH2 0x21CF JUMP JUMPDEST PUSH1 0x0 DUP2 PUSH2 0x2919 JUMPI PUSH2 0x2919 PUSH1 0x0 PUSH1 0x4 PUSH2 0x21CF JUMP JUMPDEST DUP3 PUSH2 0x2926 JUMPI POP PUSH1 0x0 PUSH2 0x873 JUMP JUMPDEST PUSH8 0xDE0B6B3A7640000 DUP4 DUP2 MUL SWAP1 DUP5 DUP3 DUP2 PUSH2 0x293C JUMPI INVALID JUMPDEST DIV EQ PUSH2 0x294E JUMPI PUSH2 0x294E PUSH1 0x0 PUSH1 0x5 PUSH2 0x21CF JUMP JUMPDEST DUP3 DUP2 DUP2 PUSH2 0x2957 JUMPI INVALID JUMPDEST DIV SWAP5 SWAP4 POP POP POP POP JUMP JUMPDEST PUSH1 0x40 MLOAD PUSH4 0x34171A85 PUSH1 0xE0 SHL DUP2 MSTORE PUSH1 0x0 SWAP1 PUSH20 0x0 SWAP1 PUSH4 0x34171A85 SWAP1 PUSH2 0x29A1 SWAP1 PUSH1 0x8 SWAP1 DUP9 SWAP1 DUP9 SWAP1 DUP9 SWAP1 PUSH1 0x4 ADD PUSH2 0x5D02 JUMP JUMPDEST PUSH1 0x20 PUSH1 0x40 MLOAD DUP1 DUP4 SUB DUP2 DUP7 DUP1 EXTCODESIZE ISZERO DUP1 ISZERO PUSH2 0x29B9 JUMPI PUSH1 0x0 DUP1 REVERT JUMPDEST POP GAS DELEGATECALL ISZERO DUP1 ISZERO PUSH2 0x29CD JUMPI RETURNDATASIZE PUSH1 0x0 DUP1 RETURNDATACOPY RETURNDATASIZE PUSH1 0x0 REVERT JUMPDEST POP POP POP POP PUSH1 0x40 MLOAD RETURNDATASIZE PUSH1 0x1F NOT PUSH1 0x1F DUP3 ADD AND DUP3 ADD DUP1 PUSH1 0x40 MSTORE POP DUP2 ADD SWAP1 PUSH2 0x29F1 SWAP2 SWAP1 PUSH2 0x57FD JUMP JUMPDEST SWAP5 SWAP4 POP POP POP POP JUMP JUMPDEST PUSH2 0x2A20 DUP2 PUSH1 0x0 DUP2 MLOAD DUP2 LT PUSH2 0x2A09 JUMPI INVALID JUMPDEST PUSH1 0x20 MUL PUSH1 0x20 ADD ADD MLOAD PUSH2 0x2A1B PUSH1 0x1 PUSH2 0x2ECC JUMP JUMPDEST PUSH2 0x28E2 JUMP JUMPDEST DUP2 PUSH1 0x0 DUP2 MLOAD DUP2 LT PUSH2 0x2A2D JUMPI INVALID JUMPDEST PUSH1 0x20 MUL PUSH1 0x20 ADD ADD DUP2 DUP2 MSTORE POP POP PUSH2 0x273E DUP2 PUSH1 0x1 DUP2 MLOAD DUP2 LT PUSH2 0x2A49 JUMPI INVALID JUMPDEST PUSH1 0x20 MUL PUSH1 0x20 ADD ADD MLOAD PUSH2 0x2A1B PUSH1 0x0 PUSH2 0x2ECC JUMP JUMPDEST PUSH2 0x1E9D DUP3 DUP3 PUSH2 0x3A8B JUMP JUMPDEST PUSH2 0x2A6D PUSH2 0x5155 JUMP JUMPDEST PUSH2 0x2A75 PUSH2 0x5184 JUMP JUMPDEST PUSH32 0x0 PUSH1 0x80 DUP1 DUP5 ADD SWAP2 SWAP1 SWAP2 MSTORE PUSH32 0x0 PUSH1 0x60 DUP1 DUP6 ADD SWAP2 SWAP1 SWAP2 MSTORE PUSH32 0x0 PUSH1 0x40 DUP1 DUP7 ADD SWAP2 SWAP1 SWAP2 MSTORE PUSH32 0x0 PUSH1 0x20 DUP1 DUP8 ADD SWAP2 SWAP1 SWAP2 MSTORE PUSH32 0x0 DUP7 MSTORE DUP5 MLOAD DUP6 DUP3 ADD MLOAD PUSH32 0x0 DUP2 DUP5 ADD MSTORE PUSH32 0x0 SWAP1 MSTORE PUSH32 0x0 SWAP2 DUP2 ADD SWAP2 SWAP1 SWAP2 MSTORE PUSH32 0x0 SWAP1 MSTORE PUSH32 0x0 PUSH1 0xC0 DUP6 ADD MSTORE PUSH32 0x0 PUSH1 0xA0 DUP6 ADD MSTORE PUSH32 0x0 SWAP3 DUP5 ADD SWAP3 SWAP1 SWAP3 MSTORE PUSH32 0x0 SWAP1 DUP4 ADD MSTORE PUSH32 0x0 SWAP1 DUP3 ADD MSTORE SWAP1 SWAP2 JUMP JUMPDEST PUSH1 0x0 PUSH1 0x60 DUP1 PUSH1 0x0 DUP1 PUSH2 0x2CAB PUSH2 0x2A65 JUMP JUMPDEST SWAP2 POP SWAP2 POP PUSH1 0x0 PUSH20 0x0 PUSH4 0xD83CA862 DUP12 DUP6 DUP6 PUSH1 0x40 MLOAD DUP5 PUSH4 0xFFFFFFFF AND PUSH1 0xE0 SHL DUP2 MSTORE PUSH1 0x4 ADD PUSH2 0x2CEC SWAP4 SWAP3 SWAP2 SWAP1 PUSH2 0x5B6A JUMP JUMPDEST PUSH1 0x20 PUSH1 0x40 MLOAD DUP1 DUP4 SUB DUP2 DUP7 DUP1 EXTCODESIZE ISZERO DUP1 ISZERO PUSH2 0x2D04 JUMPI PUSH1 0x0 DUP1 REVERT JUMPDEST POP GAS DELEGATECALL ISZERO DUP1 ISZERO PUSH2 0x2D18 JUMPI RETURNDATASIZE PUSH1 0x0 DUP1 RETURNDATACOPY RETURNDATASIZE PUSH1 0x0 REVERT JUMPDEST POP POP POP POP PUSH1 0x40 MLOAD RETURNDATASIZE PUSH1 0x1F NOT PUSH1 0x1F DUP3 ADD AND DUP3 ADD DUP1 PUSH1 0x40 MSTORE POP DUP2 ADD SWAP1 PUSH2 0x2D3C SWAP2 SWAP1 PUSH2 0x57FD JUMP JUMPDEST SWAP1 POP PUSH2 0x2D4B DUP10 DUP12 DUP4 DUP7 DUP7 PUSH2 0x3021 JUMP JUMPDEST PUSH2 0x2D54 DUP2 PUSH2 0x394C JUMP JUMPDEST PUSH1 0x0 DUP1 PUSH2 0x2D61 DUP13 DUP11 PUSH2 0x3B42 JUMP JUMPDEST PUSH1 0xB SLOAD SWAP2 SWAP4 POP SWAP2 POP PUSH1 0xFF AND ISZERO PUSH2 0x2D8B JUMPI PUSH2 0x2D8B DUP3 PUSH2 0x2D7E DUP16 PUSH2 0x1035 JUMP JUMPDEST PUSH2 0x2D86 PUSH2 0x962 JUMP JUMPDEST PUSH2 0x3B7C JUMP JUMPDEST PUSH2 0x2D9F DUP4 DUP4 PUSH2 0x2D98 PUSH2 0x962 JUMP JUMPDEST PUSH1 0x1 PUSH2 0x39C5 JUMP JUMPDEST PUSH1 0xA DUP2 SWAP1 SSTORE PUSH1 0x40 MLOAD PUSH32 0xE1D39CAF039C7DC6F364B1E29D1E67C4E330003A43F4991D50CF3E8840D95EAC SWAP2 PUSH2 0x2DD5 SWAP2 DUP7 SWAP2 SWAP1 PUSH2 0x5E9B JUMP JUMPDEST PUSH1 0x40 MLOAD DUP1 SWAP2 SUB SWAP1 LOG1 PUSH1 0x40 DUP1 MLOAD PUSH1 0x2 DUP1 DUP3 MSTORE PUSH1 0x60 DUP3 ADD DUP4 MSTORE DUP5 SWAP3 DUP5 SWAP3 SWAP2 SWAP1 PUSH1 0x20 DUP4 ADD SWAP1 DUP1 CALLDATASIZE DUP4 CALLDATACOPY ADD SWAP1 POP POP SWAP8 POP SWAP8 POP SWAP8 POP POP POP POP POP POP SWAP8 POP SWAP8 POP SWAP8 SWAP5 POP POP POP POP POP JUMP JUMPDEST PUSH2 0x2E3E DUP2 PUSH1 0x0 DUP2 MLOAD DUP2 LT PUSH2 0x2E27 JUMPI INVALID JUMPDEST PUSH1 0x20 MUL PUSH1 0x20 ADD ADD MLOAD PUSH2 0x2E39 PUSH1 0x1 PUSH2 0x2ECC JUMP JUMPDEST PUSH2 0x3C8E JUMP JUMPDEST DUP2 PUSH1 0x0 DUP2 MLOAD DUP2 LT PUSH2 0x2E4B JUMPI INVALID JUMPDEST PUSH1 0x20 MUL PUSH1 0x20 ADD ADD DUP2 DUP2 MSTORE POP POP PUSH2 0x273E DUP2 PUSH1 0x1 DUP2 MLOAD DUP2 LT PUSH2 0x2E67 JUMPI INVALID JUMPDEST PUSH1 0x20 MUL PUSH1 0x20 ADD ADD MLOAD PUSH2 0x2E39 PUSH1 0x0 PUSH2 0x2ECC JUMP JUMPDEST PUSH3 0x461BCD PUSH1 0xE5 SHL PUSH1 0x0 SWAP1 DUP2 MSTORE PUSH1 0x20 PUSH1 0x4 MSTORE PUSH1 0x7 PUSH1 0x24 MSTORE PUSH7 0x42414C23000030 PUSH1 0xA DUP1 DUP5 DIV DUP2 DUP2 MOD PUSH1 0x30 SWAP1 DUP2 ADD PUSH1 0x8 SHL SWAP6 DUP4 SWAP1 MOD SWAP6 SWAP1 SWAP6 ADD SWAP1 DUP3 SWAP1 DIV SWAP2 DUP3 MOD SWAP1 SWAP5 ADD PUSH1 0x10 SHL SWAP4 SWAP1 SWAP4 ADD ADD PUSH1 0xC8 SHL PUSH1 0x44 MSTORE PUSH1 0x64 SWAP1 REVERT JUMPDEST PUSH1 0x0 DUP2 PUSH2 0x2EF9 JUMPI PUSH32 0x0 PUSH2 0x873 JUMP JUMPDEST POP PUSH32 0x0 SWAP2 SWAP1 POP JUMP JUMPDEST PUSH1 0x0 PUSH2 0xB6B DUP4 DUP4 PUSH2 0x28E2 JUMP JUMPDEST PUSH1 0x40 DUP1 MLOAD PUSH1 0x2 DUP1 DUP3 MSTORE PUSH1 0x60 DUP1 DUP4 ADD DUP5 MSTORE SWAP3 PUSH1 0x20 DUP4 ADD SWAP1 DUP1 CALLDATASIZE DUP4 CALLDATACOPY ADD SWAP1 POP POP SWAP1 POP DUP2 ISZERO PUSH2 0x2F8B JUMPI DUP4 DUP2 PUSH1 0x0 DUP2 MLOAD DUP2 LT PUSH2 0x2F60 JUMPI INVALID JUMPDEST PUSH1 0x20 MUL PUSH1 0x20 ADD ADD DUP2 DUP2 MSTORE POP POP DUP3 DUP2 PUSH1 0x1 DUP2 MLOAD DUP2 LT PUSH2 0x2F7A JUMPI INVALID JUMPDEST PUSH1 0x20 MUL PUSH1 0x20 ADD ADD DUP2 DUP2 MSTORE POP POP PUSH2 0xB6B JUMP JUMPDEST DUP3 DUP2 PUSH1 0x0 DUP2 MLOAD DUP2 LT PUSH2 0x2F99 JUMPI INVALID JUMPDEST PUSH1 0x20 MUL PUSH1 0x20 ADD ADD DUP2 DUP2 MSTORE POP POP DUP4 DUP2 PUSH1 0x1 DUP2 MLOAD DUP2 LT PUSH2 0x2FB3 JUMPI INVALID JUMPDEST PUSH1 0x20 MUL PUSH1 0x20 ADD ADD DUP2 DUP2 MSTORE POP POP SWAP4 SWAP3 POP POP POP JUMP JUMPDEST PUSH1 0x0 DUP1 DUP3 SLT ISZERO PUSH2 0x301D JUMPI PUSH1 0x40 DUP1 MLOAD PUSH3 0x461BCD PUSH1 0xE5 SHL DUP2 MSTORE PUSH1 0x20 PUSH1 0x4 DUP3 ADD DUP2 SWAP1 MSTORE PUSH1 0x24 DUP3 ADD MSTORE PUSH32 0x53616665436173743A2076616C7565206D75737420626520706F736974697665 PUSH1 0x44 DUP3 ADD MSTORE SWAP1 MLOAD SWAP1 DUP2 SWAP1 SUB PUSH1 0x64 ADD SWAP1 REVERT JUMPDEST POP SWAP1 JUMP JUMPDEST PUSH1 0x9 SLOAD PUSH2 0x302D DUP2 PUSH2 0x253A JUMP JUMPDEST DUP1 ISZERO PUSH2 0x3038 JUMPI POP DUP6 NUMBER GT JUMPDEST ISZERO PUSH2 0x3191 JUMPI PUSH1 0x0 PUSH20 0x0 PUSH4 0xB0A208A7 DUP8 DUP7 DUP7 PUSH2 0x3065 DUP11 PUSH2 0x3CC1 JUMP JUMPDEST PUSH1 0x40 MLOAD DUP6 PUSH4 0xFFFFFFFF AND PUSH1 0xE0 SHL DUP2 MSTORE PUSH1 0x4 ADD PUSH2 0x3084 SWAP5 SWAP4 SWAP3 SWAP2 SWAP1 PUSH2 0x5B9B JUMP JUMPDEST PUSH1 0x20 PUSH1 0x40 MLOAD DUP1 DUP4 SUB DUP2 DUP7 DUP1 EXTCODESIZE ISZERO DUP1 ISZERO PUSH2 0x309C JUMPI PUSH1 0x0 DUP1 REVERT JUMPDEST POP GAS DELEGATECALL ISZERO DUP1 ISZERO PUSH2 0x30B0 JUMPI RETURNDATASIZE PUSH1 0x0 DUP1 RETURNDATACOPY RETURNDATASIZE PUSH1 0x0 REVERT JUMPDEST POP POP POP POP PUSH1 0x40 MLOAD RETURNDATASIZE PUSH1 0x1F NOT PUSH1 0x1F DUP3 ADD AND DUP3 ADD DUP1 PUSH1 0x40 MSTORE POP DUP2 ADD SWAP1 PUSH2 0x30D4 SWAP2 SWAP1 PUSH2 0x57FD JUMP JUMPDEST SWAP1 POP PUSH1 0x0 PUSH2 0x30E1 DUP3 PUSH2 0x3D05 JUMP JUMPDEST SWAP1 POP PUSH1 0x0 PUSH2 0x30F7 DUP8 PUSH2 0x30F2 DUP7 PUSH2 0x2513 JUMP JUMPDEST PUSH2 0x3D10 JUMP JUMPDEST SWAP1 POP PUSH1 0x0 PUSH2 0x3104 DUP6 PUSH2 0x252D JUMP JUMPDEST SWAP1 POP PUSH1 0x0 PUSH2 0x3111 DUP7 PUSH2 0x2520 JUMP JUMPDEST SWAP1 POP PUSH1 0x0 PUSH2 0x312A DUP3 DUP5 DUP8 DUP8 PUSH2 0x3125 DUP13 PUSH2 0x2507 JUMP JUMPDEST PUSH2 0x3D27 JUMP JUMPDEST SWAP1 POP DUP1 DUP4 EQ PUSH2 0x318A JUMPI PUSH2 0x313D DUP8 DUP3 PUSH2 0x3D7E JUMP JUMPDEST SWAP7 POP PUSH2 0x3149 DUP8 TIMESTAMP PUSH2 0x3D8C JUMP JUMPDEST SWAP7 POP DUP7 PUSH1 0x9 DUP2 SWAP1 SSTORE POP PUSH32 0x12ADE7B7DD29C5E3DF1E883F0A092467D851B06C52F3C4484A443D40B9CD6601 DUP2 PUSH1 0x40 MLOAD PUSH2 0x3181 SWAP2 SWAP1 PUSH2 0x5C7D JUMP JUMPDEST PUSH1 0x40 MLOAD DUP1 SWAP2 SUB SWAP1 LOG1 JUMPDEST POP POP POP POP POP POP JUMPDEST POP POP POP POP POP POP JUMP JUMPDEST PUSH1 0x0 DUP3 DUP3 MUL DUP4 ISZERO DUP1 PUSH2 0x31B3 JUMPI POP DUP3 DUP5 DUP3 DUP2 PUSH2 0x31B0 JUMPI INVALID JUMPDEST DIV EQ JUMPDEST PUSH2 0x31C3 JUMPI PUSH2 0x31C3 PUSH1 0x0 PUSH1 0x3 PUSH2 0x21CF JUMP JUMPDEST DUP1 PUSH2 0x31D2 JUMPI PUSH1 0x0 SWAP2 POP POP PUSH2 0x873 JUMP JUMPDEST PUSH8 0xDE0B6B3A7640000 PUSH1 0x0 NOT DUP3 ADD JUMPDEST DIV PUSH1 0x1 ADD SWAP2 POP POP SWAP3 SWAP2 POP POP JUMP JUMPDEST PUSH1 0x0 DUP3 DUP3 GT ISZERO PUSH2 0x1FAA JUMPI PUSH2 0x1FAA PUSH1 0x0 PUSH1 0x1 PUSH2 0x21CF JUMP JUMPDEST PUSH1 0x60 DUP7 ADD MLOAD PUSH1 0x40 MLOAD PUSH4 0x30FFA11B PUSH1 0xE1 SHL DUP2 MSTORE PUSH1 0x0 SWAP2 PUSH20 0x0 SWAP2 PUSH4 0x61FF4236 SWAP2 PUSH2 0x324C SWAP2 DUP11 SWAP2 SWAP1 DUP11 SWAP1 DUP11 SWAP1 DUP11 SWAP1 DUP11 SWAP1 PUSH1 0x4 ADD PUSH2 0x5C0C JUMP JUMPDEST PUSH1 0x20 PUSH1 0x40 MLOAD DUP1 DUP4 SUB DUP2 DUP7 DUP1 EXTCODESIZE ISZERO DUP1 ISZERO PUSH2 0x3264 JUMPI PUSH1 0x0 DUP1 REVERT JUMPDEST POP GAS DELEGATECALL ISZERO DUP1 ISZERO PUSH2 0x3278 JUMPI RETURNDATASIZE PUSH1 0x0 DUP1 RETURNDATACOPY RETURNDATASIZE PUSH1 0x0 REVERT JUMPDEST POP POP POP POP PUSH1 0x40 MLOAD RETURNDATASIZE PUSH1 0x1F NOT PUSH1 0x1F DUP3 ADD AND DUP3 ADD DUP1 PUSH1 0x40 MSTORE POP DUP2 ADD SWAP1 PUSH2 0x23B7 SWAP2 SWAP1 PUSH2 0x57FD JUMP JUMPDEST PUSH1 0x0 PUSH2 0xB6B DUP4 DUP4 PUSH2 0x3A1D JUMP JUMPDEST PUSH1 0x60 DUP7 ADD MLOAD PUSH1 0x40 MLOAD PUSH4 0x3B18CE7B PUSH1 0xE2 SHL DUP2 MSTORE PUSH1 0x0 SWAP2 PUSH20 0x0 SWAP2 PUSH4 0xEC6339EC SWAP2 PUSH2 0x324C SWAP2 DUP11 SWAP2 SWAP1 DUP11 SWAP1 DUP11 SWAP1 DUP11 SWAP1 DUP11 SWAP1 PUSH1 0x4 ADD PUSH2 0x5C0C JUMP JUMPDEST PUSH1 0x0 PUSH2 0xB6B DUP4 DUP4 PUSH2 0x3C8E JUMP JUMPDEST PUSH1 0x0 PUSH8 0xDE0B6B3A7640000 DUP3 LT PUSH2 0x3314 JUMPI PUSH1 0x0 PUSH2 0x873 JUMP JUMPDEST POP PUSH8 0xDE0B6B3A7640000 SUB SWAP1 JUMP JUMPDEST PUSH1 0x0 DUP2 PUSH2 0x3335 JUMPI PUSH2 0x3335 PUSH1 0x0 PUSH1 0x4 PUSH2 0x21CF JUMP JUMPDEST DUP3 PUSH2 0x3342 JUMPI POP PUSH1 0x0 PUSH2 0x873 JUMP JUMPDEST PUSH8 0xDE0B6B3A7640000 DUP4 DUP2 MUL SWAP1 DUP5 DUP3 DUP2 PUSH2 0x3358 JUMPI INVALID JUMPDEST DIV EQ PUSH2 0x337C JUMPI PUSH2 0x337C PUSH8 0xDE0B6B3A7640000 DUP6 DUP4 DUP2 PUSH2 0x3373 JUMPI INVALID JUMPDEST DIV EQ PUSH1 0x5 PUSH2 0x21CF JUMP JUMPDEST DUP3 PUSH1 0x1 DUP3 SUB DUP2 PUSH2 0x31E1 JUMPI INVALID JUMPDEST PUSH1 0x0 PUSH2 0x3392 PUSH2 0x14E3 JUMP JUMPDEST PUSH1 0x1 PUSH1 0x1 PUSH1 0xA0 SHL SUB AND PUSH4 0xAAABADC5 PUSH1 0x40 MLOAD DUP2 PUSH4 0xFFFFFFFF AND PUSH1 0xE0 SHL DUP2 MSTORE PUSH1 0x4 ADD PUSH1 0x20 PUSH1 0x40 MLOAD DUP1 DUP4 SUB DUP2 DUP7 DUP1 EXTCODESIZE ISZERO DUP1 ISZERO PUSH2 0x33CA JUMPI PUSH1 0x0 DUP1 REVERT JUMPDEST POP GAS STATICCALL ISZERO DUP1 ISZERO PUSH2 0x33DE JUMPI RETURNDATASIZE PUSH1 0x0 DUP1 RETURNDATACOPY RETURNDATASIZE PUSH1 0x0 REVERT JUMPDEST POP POP POP POP PUSH1 0x40 MLOAD RETURNDATASIZE PUSH1 0x1F NOT PUSH1 0x1F DUP3 ADD AND DUP3 ADD DUP1 PUSH1 0x40 MSTORE POP DUP2 ADD SWAP1 PUSH2 0xC31 SWAP2 SWAP1 PUSH2 0x530C JUMP JUMPDEST PUSH1 0x40 DUP1 MLOAD PUSH1 0x2 DUP1 DUP3 MSTORE PUSH1 0x60 DUP1 DUP4 ADD DUP5 MSTORE SWAP3 PUSH1 0x0 SWAP3 SWAP2 SWAP1 PUSH1 0x20 DUP4 ADD SWAP1 DUP1 CALLDATASIZE DUP4 CALLDATACOPY ADD SWAP1 POP POP SWAP1 POP PUSH2 0x3431 PUSH1 0x1 PUSH2 0x3D9A JUMP JUMPDEST DUP2 PUSH1 0x0 DUP2 MLOAD DUP2 LT PUSH2 0x343E JUMPI INVALID JUMPDEST PUSH1 0x20 MUL PUSH1 0x20 ADD ADD DUP2 DUP2 MSTORE POP POP PUSH2 0x3454 PUSH1 0x0 PUSH2 0x3D9A JUMP JUMPDEST DUP2 PUSH1 0x1 DUP2 MLOAD DUP2 LT PUSH2 0x3461 JUMPI INVALID JUMPDEST PUSH1 0x20 SWAP1 DUP2 MUL SWAP2 SWAP1 SWAP2 ADD ADD MSTORE SWAP1 POP SWAP1 JUMP JUMPDEST PUSH8 0xDE0B6B3A7640000 PUSH1 0x0 JUMPDEST DUP4 MLOAD DUP2 LT ISZERO PUSH2 0x34D3 JUMPI PUSH2 0x34C9 PUSH2 0x34C2 DUP6 DUP4 DUP2 MLOAD DUP2 LT PUSH2 0x3498 JUMPI INVALID JUMPDEST PUSH1 0x20 MUL PUSH1 0x20 ADD ADD MLOAD DUP6 DUP5 DUP2 MLOAD DUP2 LT PUSH2 0x34AC JUMPI INVALID JUMPDEST PUSH1 0x20 MUL PUSH1 0x20 ADD ADD MLOAD PUSH2 0x3DEE SWAP1 SWAP2 SWAP1 PUSH4 0xFFFFFFFF AND JUMP JUMPDEST DUP4 SWAP1 PUSH2 0x3E3D JUMP JUMPDEST SWAP2 POP PUSH1 0x1 ADD PUSH2 0x347D JUMP JUMPDEST POP PUSH2 0x873 PUSH1 0x0 DUP3 GT PUSH2 0x137 PUSH2 0x21CF JUMP JUMPDEST PUSH1 0x0 PUSH2 0x34ED PUSH2 0x23CE JUMP JUMPDEST DUP3 PUSH1 0x40 MLOAD PUSH1 0x20 ADD DUP1 DUP1 PUSH2 0x1901 PUSH1 0xF0 SHL DUP2 MSTORE POP PUSH1 0x2 ADD DUP4 DUP2 MSTORE PUSH1 0x20 ADD DUP3 DUP2 MSTORE PUSH1 0x20 ADD SWAP3 POP POP POP PUSH1 0x40 MLOAD PUSH1 0x20 DUP2 DUP4 SUB SUB DUP2 MSTORE SWAP1 PUSH1 0x40 MSTORE DUP1 MLOAD SWAP1 PUSH1 0x20 ADD KECCAK256 SWAP1 POP SWAP2 SWAP1 POP JUMP JUMPDEST PUSH1 0x0 PUSH1 0x60 PUSH1 0x0 PUSH2 0x353E DUP5 PUSH2 0x3E66 JUMP JUMPDEST SWAP1 POP PUSH2 0x3559 PUSH1 0x0 DUP3 PUSH1 0x3 DUP2 GT ISZERO PUSH2 0x3551 JUMPI INVALID JUMPDEST EQ PUSH1 0xCE PUSH2 0x21CF JUMP JUMPDEST PUSH1 0x0 PUSH2 0x3564 DUP6 PUSH2 0x3E85 JUMP JUMPDEST SWAP1 POP PUSH2 0x3572 DUP2 MLOAD PUSH1 0x2 PUSH2 0x2554 JUMP JUMPDEST PUSH2 0x357B DUP2 PUSH2 0x29F9 JUMP JUMPDEST PUSH1 0x0 DUP1 PUSH2 0x3586 PUSH2 0x2A65 JUMP JUMPDEST SWAP2 POP SWAP2 POP PUSH1 0x0 PUSH20 0x0 PUSH4 0xD83CA862 DUP6 DUP6 DUP6 PUSH1 0x40 MLOAD DUP5 PUSH4 0xFFFFFFFF AND PUSH1 0xE0 SHL DUP2 MSTORE PUSH1 0x4 ADD PUSH2 0x35C7 SWAP4 SWAP3 SWAP2 SWAP1 PUSH2 0x5B6A JUMP JUMPDEST PUSH1 0x20 PUSH1 0x40 MLOAD DUP1 DUP4 SUB DUP2 DUP7 DUP1 EXTCODESIZE ISZERO DUP1 ISZERO PUSH2 0x35DF JUMPI PUSH1 0x0 DUP1 REVERT JUMPDEST POP GAS DELEGATECALL ISZERO DUP1 ISZERO PUSH2 0x35F3 JUMPI RETURNDATASIZE PUSH1 0x0 DUP1 RETURNDATACOPY RETURNDATASIZE PUSH1 0x0 REVERT JUMPDEST POP POP POP POP PUSH1 0x40 MLOAD RETURNDATASIZE PUSH1 0x1F NOT PUSH1 0x1F DUP3 ADD AND DUP3 ADD DUP1 PUSH1 0x40 MSTORE POP DUP2 ADD SWAP1 PUSH2 0x3617 SWAP2 SWAP1 PUSH2 0x57FD JUMP JUMPDEST SWAP1 POP PUSH32 0xAF65F1A72BF4F8BC48E8153858E1F7B307CE39C88361A677C0A79C2A1AE571EF DUP2 PUSH1 0x40 MLOAD PUSH2 0x3648 SWAP2 SWAP1 PUSH2 0x5C7D JUMP JUMPDEST PUSH1 0x40 MLOAD DUP1 SWAP2 SUB SWAP1 LOG1 PUSH1 0x0 PUSH2 0x365D DUP3 PUSH1 0x2 PUSH2 0x28E2 JUMP JUMPDEST PUSH1 0xA SWAP3 SWAP1 SWAP3 SSTORE POP SWAP11 SWAP3 SWAP10 POP SWAP2 SWAP8 POP POP POP POP POP POP POP POP JUMP JUMPDEST PUSH2 0x1E9D DUP3 DUP3 PUSH2 0x3F39 JUMP JUMPDEST PUSH1 0x1 PUSH1 0x1 PUSH1 0xA0 SHL SUB SWAP2 DUP3 AND PUSH1 0x0 SWAP1 DUP2 MSTORE PUSH1 0x1 PUSH1 0x20 SWAP1 DUP2 MSTORE PUSH1 0x40 DUP1 DUP4 KECCAK256 SWAP4 SWAP1 SWAP5 AND DUP3 MSTORE SWAP2 SWAP1 SWAP2 MSTORE KECCAK256 SLOAD SWAP1 JUMP JUMPDEST PUSH1 0x2 DUP2 MLOAD LT ISZERO PUSH2 0x36B8 JUMPI PUSH2 0x95F JUMP JUMPDEST PUSH1 0x0 DUP2 PUSH1 0x0 DUP2 MLOAD DUP2 LT PUSH2 0x36C7 JUMPI INVALID JUMPDEST PUSH1 0x20 MUL PUSH1 0x20 ADD ADD MLOAD SWAP1 POP PUSH1 0x0 PUSH1 0x1 SWAP1 POP JUMPDEST DUP3 MLOAD DUP2 LT ISZERO PUSH2 0x1F79 JUMPI PUSH1 0x0 DUP4 DUP3 DUP2 MLOAD DUP2 LT PUSH2 0x36EF JUMPI INVALID JUMPDEST PUSH1 0x20 MUL PUSH1 0x20 ADD ADD MLOAD SWAP1 POP PUSH2 0x3718 DUP2 PUSH1 0x1 PUSH1 0x1 PUSH1 0xA0 SHL SUB AND DUP5 PUSH1 0x1 PUSH1 0x1 PUSH1 0xA0 SHL SUB AND LT PUSH1 0x65 PUSH2 0x21CF JUMP JUMPDEST SWAP2 POP PUSH1 0x1 ADD PUSH2 0x36D8 JUMP JUMPDEST DUP2 PUSH2 0x1E9D JUMPI PUSH2 0x1E9D DUP2 PUSH2 0x3FCE JUMP JUMPDEST PUSH1 0x0 PUSH2 0xB6B PUSH2 0x3750 DUP4 PUSH1 0x20 ADD MLOAD DUP6 PUSH1 0x20 ADD MLOAD PUSH2 0x1FEC SWAP1 SWAP2 SWAP1 PUSH4 0xFFFFFFFF AND JUMP JUMPDEST DUP4 MLOAD DUP6 MLOAD PUSH2 0x375D SWAP2 PUSH2 0x1FEC JUMP JUMPDEST SWAP1 PUSH2 0x2028 JUMP JUMPDEST PUSH1 0x0 PUSH20 0xBA1BA1BA1BA1BA1BA1BA1BA1BA1BA1BA1BA1BA1B PUSH2 0x3782 PUSH2 0x14BF JUMP JUMPDEST PUSH1 0x1 PUSH1 0x1 PUSH1 0xA0 SHL SUB AND EQ ISZERO DUP1 ISZERO PUSH2 0x379D JUMPI POP PUSH2 0x379D DUP4 PUSH2 0x3FDE JUMP JUMPDEST ISZERO PUSH2 0x37C5 JUMPI PUSH2 0x37AA PUSH2 0x14BF JUMP JUMPDEST PUSH1 0x1 PUSH1 0x1 PUSH1 0xA0 SHL SUB AND CALLER PUSH1 0x1 PUSH1 0x1 PUSH1 0xA0 SHL SUB AND EQ SWAP1 POP PUSH2 0x873 JUMP JUMPDEST PUSH2 0x37CD PUSH2 0x3388 JUMP JUMPDEST PUSH1 0x1 PUSH1 0x1 PUSH1 0xA0 SHL SUB AND PUSH4 0x9BE2A884 DUP5 DUP5 ADDRESS PUSH1 0x40 MLOAD DUP5 PUSH4 0xFFFFFFFF AND PUSH1 0xE0 SHL DUP2 MSTORE PUSH1 0x4 ADD DUP1 DUP5 DUP2 MSTORE PUSH1 0x20 ADD DUP4 PUSH1 0x1 PUSH1 0x1 PUSH1 0xA0 SHL SUB AND DUP2 MSTORE PUSH1 0x20 ADD DUP3 PUSH1 0x1 PUSH1 0x1 PUSH1 0xA0 SHL SUB AND DUP2 MSTORE PUSH1 0x20 ADD SWAP4 POP POP POP POP PUSH1 0x20 PUSH1 0x40 MLOAD DUP1 DUP4 SUB DUP2 DUP7 DUP1 EXTCODESIZE ISZERO DUP1 ISZERO PUSH2 0x3832 JUMPI PUSH1 0x0 DUP1 REVERT JUMPDEST POP GAS STATICCALL ISZERO DUP1 ISZERO PUSH2 0x3846 JUMPI RETURNDATASIZE PUSH1 0x0 DUP1 RETURNDATACOPY RETURNDATASIZE PUSH1 0x0 REVERT JUMPDEST POP POP POP POP PUSH1 0x40 MLOAD RETURNDATASIZE PUSH1 0x20 DUP2 LT ISZERO PUSH2 0x385C JUMPI PUSH1 0x0 DUP1 REVERT JUMPDEST POP MLOAD SWAP1 POP PUSH2 0x873 JUMP JUMPDEST PUSH1 0x0 PUSH2 0x3874 DUP5 DUP5 GT ISZERO DUP4 PUSH2 0x21CF JUMP JUMPDEST POP POP SWAP1 SUB SWAP1 JUMP JUMPDEST PUSH1 0x0 DUP1 PUSH2 0x3887 DUP4 PUSH2 0x4010 JUMP JUMPDEST SWAP1 POP PUSH1 0x0 DUP1 DUP3 SGT PUSH2 0x38A0 JUMPI PUSH6 0x2D79883D2000 DUP3 SUB PUSH2 0x38AA JUMP JUMPDEST PUSH6 0x2D79883D2000 DUP3 ADD JUMPDEST PUSH6 0x5AF3107A4000 SWAP1 SDIV SWAP5 SWAP4 POP POP POP POP JUMP JUMPDEST PUSH1 0x0 PUSH2 0xB6B DUP4 DUP4 DUP4 PUSH2 0x4074 JUMP JUMPDEST PUSH1 0x0 PUSH2 0xB6B DUP4 DUP4 PUSH1 0x16 PUSH2 0x4074 JUMP JUMPDEST SHL SWAP1 JUMP JUMPDEST PUSH7 0x1FFFFFFFFFFFFF SWAP2 SWAP1 SWAP2 AND SWAP1 SHL SWAP1 JUMP JUMPDEST PUSH3 0x3FFFFF SWAP2 SWAP1 SWAP2 AND SWAP1 SHL SWAP1 JUMP JUMPDEST SHR PUSH4 0x7FFFFFFF AND SWAP1 JUMP JUMPDEST CHAINID SWAP1 JUMP JUMPDEST PUSH1 0x0 DUP3 DUP3 SHR PUSH3 0x3FFFFF AND PUSH3 0x1FFFFF DUP2 SGT PUSH2 0x3920 JUMPI DUP1 PUSH2 0x29F1 JUMP JUMPDEST PUSH3 0x3FFFFF NOT OR SWAP4 SWAP3 POP POP POP JUMP JUMPDEST SHR PUSH2 0x3FF AND SWAP1 JUMP JUMPDEST SHR PUSH1 0x1 SWAP1 DUP2 AND EQ SWAP1 JUMP JUMPDEST SHR PUSH1 0x1 PUSH1 0x1 PUSH1 0x40 SHL SUB AND SWAP1 JUMP JUMPDEST PUSH1 0x0 DUP1 PUSH1 0x0 DUP1 PUSH2 0x395E PUSH1 0xA SLOAD DUP7 PUSH2 0x408B JUMP JUMPDEST SWAP4 POP SWAP4 POP SWAP4 POP SWAP4 POP PUSH2 0x3972 DUP5 DUP5 DUP5 DUP5 PUSH2 0x40F4 JUMP JUMPDEST POP POP POP POP POP JUMP JUMPDEST PUSH1 0x0 PUSH1 0x60 PUSH1 0x0 PUSH2 0x3988 DUP5 PUSH2 0x3E66 JUMP JUMPDEST SWAP1 POP PUSH1 0x1 DUP2 PUSH1 0x3 DUP2 GT ISZERO PUSH2 0x3998 JUMPI INVALID JUMPDEST EQ ISZERO PUSH2 0x39B2 JUMPI PUSH2 0x39A8 DUP6 DUP6 PUSH2 0x4114 JUMP JUMPDEST SWAP1 SWAP4 POP SWAP2 POP PUSH2 0x39BD JUMP JUMPDEST PUSH2 0x39BD PUSH2 0x150 PUSH2 0x2E79 JUMP JUMPDEST POP SWAP3 POP SWAP3 SWAP1 POP JUMP JUMPDEST PUSH1 0x0 DUP2 ISZERO PUSH2 0x39F7 JUMPI PUSH1 0x0 PUSH2 0x39E3 DUP5 PUSH2 0x39DD DUP9 DUP9 PUSH2 0x3199 JUMP JUMPDEST SWAP1 PUSH2 0x3322 JUMP JUMPDEST SWAP1 POP PUSH2 0x39EF DUP7 DUP3 PUSH2 0x4146 JUMP JUMPDEST SWAP2 POP POP PUSH2 0x29F1 JUMP JUMPDEST PUSH1 0x0 PUSH2 0x3A07 DUP5 PUSH2 0xF6A DUP9 DUP9 PUSH2 0x415E JUMP JUMPDEST SWAP1 POP PUSH2 0x3A13 DUP7 DUP3 PUSH2 0x31EE JUMP JUMPDEST SWAP7 SWAP6 POP POP POP POP POP POP JUMP JUMPDEST PUSH1 0x0 PUSH2 0x3A2C DUP3 ISZERO ISZERO PUSH1 0x4 PUSH2 0x21CF JUMP JUMPDEST DUP2 DUP4 DUP2 PUSH2 0x3A35 JUMPI INVALID JUMPDEST DIV SWAP4 SWAP3 POP POP POP JUMP JUMPDEST PUSH1 0x0 PUSH2 0x873 DUP3 PUSH1 0xEA PUSH2 0x3906 JUMP JUMPDEST PUSH1 0x0 PUSH2 0x873 DUP3 PUSH1 0xB5 PUSH2 0x4188 JUMP JUMPDEST PUSH1 0x0 PUSH2 0x873 DUP3 PUSH1 0x9F PUSH2 0x3906 JUMP JUMPDEST PUSH1 0x0 PUSH2 0x873 DUP3 PUSH1 0x6A PUSH2 0x4188 JUMP JUMPDEST PUSH1 0x0 PUSH2 0x873 DUP3 PUSH1 0x54 PUSH2 0x3906 JUMP JUMPDEST PUSH1 0x0 PUSH2 0x873 DUP3 PUSH1 0x1F PUSH2 0x4188 JUMP JUMPDEST PUSH2 0x3AA2 PUSH1 0x1 PUSH1 0x1 PUSH1 0xA0 SHL SUB DUP4 AND ISZERO ISZERO PUSH2 0x19B PUSH2 0x21CF JUMP JUMPDEST PUSH2 0x3AAE DUP3 PUSH1 0x0 DUP4 PUSH2 0x1F79 JUMP JUMPDEST PUSH1 0x1 PUSH1 0x1 PUSH1 0xA0 SHL SUB DUP3 AND PUSH1 0x0 SWAP1 DUP2 MSTORE PUSH1 0x20 DUP2 SWAP1 MSTORE PUSH1 0x40 SWAP1 KECCAK256 SLOAD PUSH2 0x3AD4 SWAP1 DUP3 PUSH2 0x1A1 PUSH2 0x3865 JUMP JUMPDEST PUSH1 0x1 PUSH1 0x1 PUSH1 0xA0 SHL SUB DUP4 AND PUSH1 0x0 SWAP1 DUP2 MSTORE PUSH1 0x20 DUP2 SWAP1 MSTORE PUSH1 0x40 SWAP1 KECCAK256 SSTORE PUSH1 0x2 SLOAD PUSH2 0x3AFA SWAP1 DUP3 PUSH2 0x41BB JUMP JUMPDEST PUSH1 0x2 SSTORE PUSH1 0x40 DUP1 MLOAD DUP3 DUP2 MSTORE SWAP1 MLOAD PUSH1 0x0 SWAP2 PUSH1 0x1 PUSH1 0x1 PUSH1 0xA0 SHL SUB DUP6 AND SWAP2 PUSH32 0xDDF252AD1BE2C89B69C2B068FC378DAA952BA7F163C4A11628F55A4DF523B3EF SWAP2 DUP2 SWAP1 SUB PUSH1 0x20 ADD SWAP1 LOG3 POP POP JUMP JUMPDEST PUSH1 0x0 PUSH1 0x60 PUSH1 0x0 PUSH2 0x3B51 DUP5 PUSH2 0x3E66 JUMP JUMPDEST SWAP1 POP PUSH1 0x3 DUP2 PUSH1 0x3 DUP2 GT ISZERO PUSH2 0x3B61 JUMPI INVALID JUMPDEST EQ ISZERO PUSH2 0x3B71 JUMPI PUSH2 0x39A8 DUP6 DUP6 PUSH2 0x41C9 JUMP JUMPDEST PUSH2 0x39BD PUSH2 0x136 PUSH2 0x2E79 JUMP JUMPDEST PUSH1 0x40 DUP1 MLOAD PUSH1 0x60 DUP2 ADD DUP3 MSTORE PUSH1 0xB SLOAD PUSH1 0xFF DUP2 AND ISZERO ISZERO DUP3 MSTORE PUSH2 0x100 DUP2 DIV PUSH1 0x1 PUSH1 0x1 PUSH1 0x78 SHL SUB AND PUSH1 0x20 DUP4 ADD DUP2 SWAP1 MSTORE PUSH1 0x1 PUSH1 0x80 SHL SWAP1 SWAP2 DIV PUSH1 0x1 PUSH1 0x1 PUSH1 0x80 SHL SUB AND SWAP3 DUP3 ADD SWAP3 SWAP1 SWAP3 MSTORE SWAP1 PUSH2 0x3BC9 DUP6 DUP6 PUSH2 0x4146 JUMP JUMPDEST GT ISZERO PUSH1 0x40 MLOAD DUP1 PUSH1 0x40 ADD PUSH1 0x40 MSTORE DUP1 PUSH1 0x1A DUP2 MSTORE PUSH1 0x20 ADD PUSH32 0x6F7665722061646472657373206C697175696469747920636170000000000000 DUP2 MSTORE POP SWAP1 PUSH2 0x3C1F JUMPI PUSH1 0x40 MLOAD PUSH3 0x461BCD PUSH1 0xE5 SHL DUP2 MSTORE PUSH1 0x4 ADD PUSH2 0x8CA SWAP2 SWAP1 PUSH2 0x5D61 JUMP JUMPDEST POP PUSH1 0x40 DUP2 ADD MLOAD PUSH1 0x1 PUSH1 0x1 PUSH1 0x80 SHL SUB AND PUSH2 0x3C38 DUP6 DUP5 PUSH2 0x4146 JUMP JUMPDEST GT ISZERO PUSH1 0x40 MLOAD DUP1 PUSH1 0x40 ADD PUSH1 0x40 MSTORE DUP1 PUSH1 0x19 DUP2 MSTORE PUSH1 0x20 ADD PUSH32 0x6F76657220676C6F62616C206C69717569646974792063617000000000000000 DUP2 MSTORE POP SWAP1 PUSH2 0x3972 JUMPI PUSH1 0x40 MLOAD PUSH3 0x461BCD PUSH1 0xE5 SHL DUP2 MSTORE PUSH1 0x4 ADD PUSH2 0x8CA SWAP2 SWAP1 PUSH2 0x5D61 JUMP JUMPDEST PUSH1 0x0 PUSH2 0x3C9D DUP3 ISZERO ISZERO PUSH1 0x4 PUSH2 0x21CF JUMP JUMPDEST DUP3 PUSH2 0x3CAA JUMPI POP PUSH1 0x0 PUSH2 0x873 JUMP JUMPDEST DUP2 PUSH1 0x1 DUP5 SUB DUP2 PUSH2 0x3CB6 JUMPI INVALID JUMPDEST DIV PUSH1 0x1 ADD SWAP1 POP PUSH2 0x873 JUMP JUMPDEST PUSH1 0x0 PUSH1 0x1 PUSH1 0xFF SHL DUP3 LT PUSH2 0x301D JUMPI PUSH1 0x40 MLOAD PUSH3 0x461BCD PUSH1 0xE5 SHL DUP2 MSTORE PUSH1 0x4 ADD DUP1 DUP1 PUSH1 0x20 ADD DUP3 DUP2 SUB DUP3 MSTORE PUSH1 0x28 DUP2 MSTORE PUSH1 0x20 ADD DUP1 PUSH2 0x5F0D PUSH1 0x28 SWAP2 CODECOPY PUSH1 0x40 ADD SWAP2 POP POP PUSH1 0x40 MLOAD DUP1 SWAP2 SUB SWAP1 REVERT JUMPDEST PUSH1 0x0 PUSH2 0x873 DUP3 PUSH2 0x387B JUMP JUMPDEST PUSH1 0x0 DUP1 PUSH2 0x3D1C DUP5 PUSH2 0x387B JUMP JUMPDEST SWAP3 SWAP1 SWAP3 SUB SWAP4 SWAP3 POP POP POP JUMP JUMPDEST PUSH1 0x0 DUP1 PUSH2 0x3D43 DUP6 DUP6 DUP6 TIMESTAMP PUSH2 0x3D3A DUP12 PUSH2 0x286D JUMP JUMPDEST SWAP4 SWAP3 SWAP2 SWAP1 PUSH2 0x41EE JUMP JUMPDEST SWAP1 POP PUSH1 0x78 TIMESTAMP DUP9 SWAP1 SUB LT ISZERO DUP1 PUSH2 0x3D58 JUMPI DUP7 PUSH2 0x3D61 JUMP JUMPDEST PUSH2 0x3D61 DUP8 PUSH2 0x424E JUMP JUMPDEST PUSH1 0x0 DUP2 DUP2 MSTORE PUSH1 0x8 PUSH1 0x20 MSTORE PUSH1 0x40 SWAP1 KECCAK256 SWAP3 SWAP1 SWAP3 SSTORE POP SWAP7 SWAP6 POP POP POP POP POP POP JUMP JUMPDEST PUSH1 0x0 PUSH2 0xB6B DUP4 DUP4 PUSH1 0x4B PUSH2 0x425B JUMP JUMPDEST PUSH1 0x0 PUSH2 0xB6B DUP4 DUP4 PUSH1 0x2C PUSH2 0x426B JUMP JUMPDEST PUSH1 0x0 DUP2 PUSH2 0x3DC7 JUMPI PUSH32 0x0 PUSH2 0x873 JUMP JUMPDEST POP PUSH32 0x0 SWAP2 SWAP1 POP JUMP JUMPDEST PUSH1 0x0 DUP1 PUSH2 0x3DFB DUP5 DUP5 PUSH2 0x427D JUMP JUMPDEST SWAP1 POP PUSH1 0x0 PUSH2 0x3E15 PUSH2 0x3E0E DUP4 PUSH2 0x2710 PUSH2 0x437E JUMP JUMPDEST PUSH1 0x1 PUSH2 0x24F5 JUMP JUMPDEST SWAP1 POP DUP1 DUP3 LT ISZERO PUSH2 0x3E2A JUMPI PUSH1 0x0 SWAP3 POP POP POP PUSH2 0x873 JUMP JUMPDEST PUSH2 0x3E34 DUP3 DUP3 PUSH2 0x1F9A JUMP JUMPDEST SWAP3 POP POP POP PUSH2 0x873 JUMP JUMPDEST PUSH1 0x0 DUP3 DUP3 MUL PUSH2 0x3E57 DUP5 ISZERO DUP1 PUSH2 0x28FF JUMPI POP DUP4 DUP6 DUP4 DUP2 PUSH2 0x28FC JUMPI INVALID JUMPDEST PUSH8 0xDE0B6B3A7640000 DUP2 PUSH2 0x2957 JUMP JUMPDEST PUSH1 0x0 DUP2 DUP1 PUSH1 0x20 ADD SWAP1 MLOAD PUSH1 0x20 DUP2 LT ISZERO PUSH2 0x3E7D JUMPI PUSH1 0x0 DUP1 REVERT JUMPDEST POP MLOAD SWAP3 SWAP2 POP POP JUMP JUMPDEST PUSH1 0x60 DUP2 DUP1 PUSH1 0x20 ADD SWAP1 MLOAD PUSH1 0x40 DUP2 LT ISZERO PUSH2 0x3E9C JUMPI PUSH1 0x0 DUP1 REVERT JUMPDEST DUP2 MLOAD PUSH1 0x20 DUP4 ADD DUP1 MLOAD PUSH1 0x40 MLOAD SWAP3 SWAP5 SWAP3 SWAP4 DUP4 ADD SWAP3 SWAP2 SWAP1 DUP5 PUSH5 0x100000000 DUP3 GT ISZERO PUSH2 0x3EC3 JUMPI PUSH1 0x0 DUP1 REVERT JUMPDEST SWAP1 DUP4 ADD SWAP1 PUSH1 0x20 DUP3 ADD DUP6 DUP2 GT ISZERO PUSH2 0x3ED8 JUMPI PUSH1 0x0 DUP1 REVERT JUMPDEST DUP3 MLOAD DUP7 PUSH1 0x20 DUP3 MUL DUP4 ADD GT PUSH5 0x100000000 DUP3 GT OR ISZERO PUSH2 0x3EF5 JUMPI PUSH1 0x0 DUP1 REVERT JUMPDEST DUP3 MSTORE POP DUP2 MLOAD PUSH1 0x20 SWAP2 DUP3 ADD SWAP3 DUP3 ADD SWAP2 MUL DUP1 DUP4 DUP4 PUSH1 0x0 JUMPDEST DUP4 DUP2 LT ISZERO PUSH2 0x3F22 JUMPI DUP2 DUP2 ADD MLOAD DUP4 DUP3 ADD MSTORE PUSH1 0x20 ADD PUSH2 0x3F0A JUMP JUMPDEST POP POP POP POP SWAP2 SWAP1 SWAP2 ADD PUSH1 0x40 MSTORE POP SWAP3 SWAP7 SWAP6 POP POP POP POP POP POP JUMP JUMPDEST PUSH2 0x3F45 PUSH1 0x0 DUP4 DUP4 PUSH2 0x1F79 JUMP JUMPDEST PUSH1 0x2 SLOAD PUSH2 0x3F52 SWAP1 DUP3 PUSH2 0x24F5 JUMP JUMPDEST PUSH1 0x2 SSTORE PUSH1 0x1 PUSH1 0x1 PUSH1 0xA0 SHL SUB DUP3 AND PUSH1 0x0 SWAP1 DUP2 MSTORE PUSH1 0x20 DUP2 SWAP1 MSTORE PUSH1 0x40 SWAP1 KECCAK256 SLOAD PUSH2 0x3F78 SWAP1 DUP3 PUSH2 0x24F5 JUMP JUMPDEST PUSH1 0x1 PUSH1 0x1 PUSH1 0xA0 SHL SUB DUP4 AND PUSH1 0x0 DUP2 DUP2 MSTORE PUSH1 0x20 DUP2 DUP2 MSTORE PUSH1 0x40 DUP1 DUP4 KECCAK256 SWAP5 SWAP1 SWAP5 SSTORE DUP4 MLOAD DUP6 DUP2 MSTORE SWAP4 MLOAD SWAP3 SWAP4 SWAP2 SWAP3 PUSH32 0xDDF252AD1BE2C89B69C2B068FC378DAA952BA7F163C4A11628F55A4DF523B3EF SWAP3 DUP2 SWAP1 SUB SWAP1 SWAP2 ADD SWAP1 LOG3 POP POP JUMP JUMPDEST PUSH2 0x95F DUP2 PUSH3 0x23ACA9 PUSH1 0xE9 SHL PUSH2 0x43C1 JUMP JUMPDEST PUSH1 0x0 PUSH2 0x3FF0 PUSH4 0x1C74C917 PUSH1 0xE1 SHL PUSH2 0x1441 JUMP JUMPDEST DUP3 EQ DUP1 PUSH2 0x873 JUMPI POP PUSH2 0x4008 PUSH4 0x50DD6ED9 PUSH1 0xE0 SHL PUSH2 0x1441 JUMP JUMPDEST SWAP1 SWAP2 EQ SWAP2 SWAP1 POP JUMP JUMPDEST PUSH1 0x0 PUSH2 0x4020 PUSH1 0x0 DUP4 SGT PUSH1 0x64 PUSH2 0x21CF JUMP JUMPDEST PUSH8 0xC7D713B49DA0000 DUP3 SGT DUP1 ISZERO PUSH2 0x403E JUMPI POP PUSH8 0xF43FC2C04EE0000 DUP3 SLT JUMPDEST ISZERO PUSH2 0x4064 JUMPI PUSH8 0xDE0B6B3A7640000 PUSH2 0x4055 DUP4 PUSH2 0x4422 JUMP JUMPDEST DUP2 PUSH2 0x405C JUMPI INVALID JUMPDEST SDIV SWAP1 POP PUSH2 0x104F JUMP JUMPDEST PUSH2 0x406D DUP3 PUSH2 0x4540 JUMP JUMPDEST SWAP1 POP PUSH2 0x104F JUMP JUMPDEST PUSH3 0x3FFFFF DUP3 DUP2 AND DUP3 SHL SWAP1 DUP3 SHL NOT DUP5 AND OR SWAP4 SWAP3 POP POP POP JUMP JUMPDEST PUSH1 0x0 DUP1 PUSH1 0x0 DUP1 PUSH1 0x0 DUP1 PUSH1 0x0 DUP1 PUSH2 0x409F PUSH2 0x48DF JUMP JUMPDEST SWAP4 POP SWAP4 POP SWAP4 POP SWAP4 POP DUP4 PUSH1 0x0 EQ ISZERO PUSH2 0x40C4 JUMPI PUSH1 0x0 SWAP8 POP DUP8 SWAP7 POP SWAP1 SWAP5 POP SWAP3 POP PUSH2 0x40EB SWAP2 POP POP JUMP JUMPDEST PUSH1 0x0 DUP1 PUSH2 0x40DB DUP13 DUP13 PUSH2 0x40D4 PUSH2 0x962 JUMP JUMPDEST DUP10 DUP10 PUSH2 0x4B4E JUMP JUMPDEST SWAP1 SWAP11 POP SWAP9 POP SWAP3 SWAP7 POP SWAP1 SWAP5 POP POP POP POP POP JUMPDEST SWAP3 SWAP6 SWAP2 SWAP5 POP SWAP3 POP JUMP JUMPDEST DUP4 ISZERO PUSH2 0x4104 JUMPI PUSH2 0x4104 DUP3 DUP6 PUSH2 0x3674 JUMP JUMPDEST DUP3 ISZERO PUSH2 0xC21 JUMPI PUSH2 0xC21 DUP2 DUP5 PUSH2 0x3674 JUMP JUMPDEST PUSH1 0x0 PUSH1 0x60 PUSH1 0x0 PUSH2 0x4123 DUP5 PUSH2 0x4BE9 JUMP JUMPDEST SWAP1 POP PUSH1 0x0 PUSH2 0x4139 DUP7 DUP4 PUSH2 0x4134 PUSH2 0x962 JUMP JUMPDEST PUSH2 0x4C0B JUMP JUMPDEST SWAP2 SWAP7 SWAP2 SWAP6 POP SWAP1 SWAP4 POP POP POP POP JUMP JUMPDEST PUSH1 0x0 DUP3 DUP3 ADD DUP4 DUP2 LT ISZERO PUSH2 0xB6B JUMPI PUSH2 0xB6B PUSH1 0x0 DUP1 PUSH2 0x21CF JUMP JUMPDEST PUSH1 0x0 DUP3 DUP3 MUL DUP4 ISZERO DUP1 PUSH2 0x4178 JUMPI POP DUP3 DUP5 DUP3 DUP2 PUSH2 0x4175 JUMPI INVALID JUMPDEST DIV EQ JUMPDEST PUSH2 0x3E57 JUMPI PUSH2 0x3E57 PUSH1 0x0 PUSH1 0x3 PUSH2 0x21CF JUMP JUMPDEST PUSH1 0x0 DUP3 DUP3 SHR PUSH7 0x1FFFFFFFFFFFFF AND PUSH7 0xFFFFFFFFFFFFF DUP2 SGT PUSH2 0x41AA JUMPI DUP1 PUSH2 0x29F1 JUMP JUMPDEST PUSH7 0x1FFFFFFFFFFFFF NOT OR SWAP4 SWAP3 POP POP POP JUMP JUMPDEST PUSH1 0x0 PUSH2 0xB6B DUP4 DUP4 PUSH1 0x1 PUSH2 0x3865 JUMP JUMPDEST PUSH1 0x0 PUSH1 0x60 PUSH1 0x0 PUSH2 0x41D8 DUP5 PUSH2 0x4BE9 JUMP JUMPDEST SWAP1 POP PUSH1 0x0 PUSH2 0x4139 DUP7 DUP4 PUSH2 0x41E9 PUSH2 0x962 JUMP JUMPDEST PUSH2 0x4CA6 JUMP JUMPDEST PUSH1 0x0 DUP1 PUSH2 0x41FA DUP8 PUSH2 0x23C2 JUMP JUMPDEST DUP4 SUB SWAP1 POP PUSH1 0x0 DUP2 DUP8 MUL PUSH2 0x420C DUP10 PUSH2 0x3A4A JUMP JUMPDEST ADD SWAP1 POP PUSH1 0x0 DUP3 DUP8 MUL PUSH2 0x421D DUP11 PUSH2 0x3A64 JUMP JUMPDEST ADD SWAP1 POP PUSH1 0x0 DUP4 DUP8 MUL PUSH2 0x422E DUP12 PUSH2 0x3A7E JUMP JUMPDEST ADD SWAP1 POP PUSH2 0x4240 DUP10 DUP5 DUP11 DUP6 DUP12 DUP7 DUP13 PUSH2 0x2360 JUMP JUMPDEST SWAP11 SWAP10 POP POP POP POP POP POP POP POP POP POP JUMP JUMPDEST PUSH1 0x0 PUSH2 0x873 DUP3 PUSH1 0x1 PUSH2 0x4D41 JUMP JUMPDEST PUSH2 0x3FF DUP2 SHL NOT SWAP3 SWAP1 SWAP3 AND SWAP2 SHL OR SWAP1 JUMP JUMPDEST PUSH4 0x7FFFFFFF DUP2 SHL NOT SWAP3 SWAP1 SWAP3 AND SWAP2 SHL OR SWAP1 JUMP JUMPDEST PUSH1 0x0 DUP2 PUSH2 0x4293 JUMPI POP PUSH8 0xDE0B6B3A7640000 PUSH2 0x873 JUMP JUMPDEST DUP3 PUSH2 0x42A0 JUMPI POP PUSH1 0x0 PUSH2 0x873 JUMP JUMPDEST PUSH2 0x42B1 PUSH1 0x1 PUSH1 0xFF SHL DUP5 LT PUSH1 0x6 PUSH2 0x21CF JUMP JUMPDEST DUP3 PUSH2 0x42D7 PUSH24 0xBCE5086492111AEA88F4BB1CA6BCF584181EA8059F76532 DUP5 LT PUSH1 0x7 PUSH2 0x21CF JUMP JUMPDEST DUP3 PUSH1 0x0 PUSH8 0xC7D713B49DA0000 DUP4 SGT DUP1 ISZERO PUSH2 0x42F8 JUMPI POP PUSH8 0xF43FC2C04EE0000 DUP4 SLT JUMPDEST ISZERO PUSH2 0x432F JUMPI PUSH1 0x0 PUSH2 0x4308 DUP5 PUSH2 0x4422 JUMP JUMPDEST SWAP1 POP PUSH8 0xDE0B6B3A7640000 DUP1 DUP3 SMOD DUP5 MUL SDIV DUP4 PUSH8 0xDE0B6B3A7640000 DUP4 SDIV MUL ADD SWAP2 POP POP PUSH2 0x433D JUMP JUMPDEST DUP2 PUSH2 0x4339 DUP5 PUSH2 0x4540 JUMP JUMPDEST MUL SWAP1 POP JUMPDEST PUSH8 0xDE0B6B3A7640000 SWAP1 SDIV PUSH2 0x4375 PUSH9 0x238FD42C5CF03FFFF NOT DUP3 SLT DUP1 ISZERO SWAP1 PUSH2 0x436E JUMPI POP PUSH9 0x70C1CC73B00C80000 DUP3 SGT ISZERO JUMPDEST PUSH1 0x8 PUSH2 0x21CF JUMP JUMPDEST PUSH2 0x3A13 DUP2 PUSH2 0x4D49 JUMP JUMPDEST PUSH1 0x0 DUP3 DUP3 MUL PUSH2 0x4398 DUP5 ISZERO DUP1 PUSH2 0x28FF JUMPI POP DUP4 DUP6 DUP4 DUP2 PUSH2 0x28FC JUMPI INVALID JUMPDEST DUP1 PUSH2 0x43A7 JUMPI PUSH1 0x0 SWAP2 POP POP PUSH2 0x873 JUMP JUMPDEST PUSH8 0xDE0B6B3A7640000 PUSH1 0x0 NOT DUP3 ADD DIV PUSH1 0x1 ADD SWAP2 POP POP PUSH2 0x873 JUMP JUMPDEST PUSH3 0x461BCD PUSH1 0xE5 SHL PUSH1 0x0 SWAP1 DUP2 MSTORE PUSH1 0x20 PUSH1 0x4 MSTORE PUSH1 0x7 PUSH1 0x24 MSTORE PUSH1 0xA DUP1 DUP5 DIV DUP2 DUP2 MOD PUSH1 0x30 SWAP1 DUP2 ADD PUSH1 0x8 SHL SWAP6 DUP4 SWAP1 MOD SWAP6 SWAP1 SWAP6 ADD SWAP1 DUP3 SWAP1 DIV SWAP2 DUP3 MOD DUP6 ADD PUSH1 0x10 SHL ADD PUSH1 0x23 PUSH4 0xFFFFFF00 PUSH1 0xE0 DUP7 SWAP1 SHR AND ADD PUSH1 0x18 SHL ADD SWAP1 SWAP4 ADD PUSH1 0xC8 SHL PUSH1 0x44 MSTORE PUSH1 0xE8 DUP3 SWAP1 SHR SWAP1 PUSH1 0x64 SWAP1 REVERT JUMPDEST PUSH8 0xDE0B6B3A7640000 MUL PUSH1 0x0 DUP1 PUSH11 0xC097CE7BC90715B34B9F1 PUSH1 0x24 SHL DUP1 DUP5 ADD SWAP1 PUSH15 0xC097CE7BC90715B34B9F0FFFFFFFFF NOT DUP6 ADD MUL DUP2 PUSH2 0x445D JUMPI INVALID JUMPDEST SDIV SWAP1 POP PUSH1 0x0 PUSH11 0xC097CE7BC90715B34B9F1 PUSH1 0x24 SHL DUP3 DUP1 MUL SDIV SWAP1 POP DUP2 DUP1 PUSH11 0xC097CE7BC90715B34B9F1 PUSH1 0x24 SHL DUP2 DUP5 MUL SDIV SWAP2 POP PUSH1 0x3 DUP3 SDIV ADD PUSH11 0xC097CE7BC90715B34B9F1 PUSH1 0x24 SHL DUP3 DUP5 MUL SDIV SWAP2 POP PUSH1 0x5 DUP3 SDIV ADD PUSH11 0xC097CE7BC90715B34B9F1 PUSH1 0x24 SHL DUP3 DUP5 MUL SDIV SWAP2 POP PUSH1 0x7 DUP3 SDIV ADD PUSH11 0xC097CE7BC90715B34B9F1 PUSH1 0x24 SHL DUP3 DUP5 MUL SDIV SWAP2 POP PUSH1 0x9 DUP3 SDIV ADD PUSH11 0xC097CE7BC90715B34B9F1 PUSH1 0x24 SHL DUP3 DUP5 MUL SDIV SWAP2 POP PUSH1 0xB DUP3 SDIV ADD PUSH11 0xC097CE7BC90715B34B9F1 PUSH1 0x24 SHL DUP3 DUP5 MUL SDIV SWAP2 POP PUSH1 0xD DUP3 SDIV ADD PUSH11 0xC097CE7BC90715B34B9F1 PUSH1 0x24 SHL DUP3 DUP5 MUL SDIV SWAP2 POP PUSH1 0xF DUP3 PUSH1 0x2 SWAP2 SWAP1 SDIV SWAP2 SWAP1 SWAP2 ADD MUL SWAP6 SWAP5 POP POP POP POP POP JUMP JUMPDEST PUSH1 0x0 PUSH8 0xDE0B6B3A7640000 DUP3 SLT ISZERO PUSH2 0x457C JUMPI PUSH2 0x4572 DUP3 PUSH11 0xC097CE7BC90715B34B9F1 PUSH1 0x24 SHL DUP2 PUSH2 0x456C JUMPI INVALID JUMPDEST SDIV PUSH2 0x4540 JUMP JUMPDEST PUSH1 0x0 SUB SWAP1 POP PUSH2 0x104F JUMP JUMPDEST PUSH1 0x0 PUSH31 0x1600EF3172E58D2E933EC884FDE10064C63B5372D805E203C0000000000000 DUP4 SLT PUSH2 0x45CD JUMPI PUSH24 0x195E54C5DD42177F53A27172FA9EC630262827000000000 DUP4 SDIV SWAP3 POP PUSH9 0x6F05B59D3B2000000 ADD JUMPDEST PUSH20 0x11798004D755D3C8BC8E03204CF44619E000000 DUP4 SLT PUSH2 0x4605 JUMPI PUSH12 0x1425982CF597CD205CEF7380 DUP4 SDIV SWAP3 POP PUSH9 0x3782DACE9D9000000 ADD JUMPDEST PUSH1 0x64 SWAP3 DUP4 MUL SWAP3 MUL PUSH15 0x1855144814A7FF805980FF0084000 DUP4 SLT PUSH2 0x464D JUMPI PUSH15 0x1855144814A7FF805980FF0084000 PUSH9 0x56BC75E2D63100000 DUP5 MUL SDIV SWAP3 POP PUSH9 0xAD78EBC5AC62000000 ADD JUMPDEST PUSH12 0x2DF0AB5A80A22C61AB5A700 DUP4 SLT PUSH2 0x4688 JUMPI PUSH12 0x2DF0AB5A80A22C61AB5A700 PUSH9 0x56BC75E2D63100000 DUP5 MUL SDIV SWAP3 POP PUSH9 0x56BC75E2D631000000 ADD JUMPDEST PUSH10 0x3F1FCE3DA636EA5CF850 DUP4 SLT PUSH2 0x46BF JUMPI PUSH10 0x3F1FCE3DA636EA5CF850 PUSH9 0x56BC75E2D63100000 DUP5 MUL SDIV SWAP3 POP PUSH9 0x2B5E3AF16B18800000 ADD JUMPDEST PUSH10 0x127FA27722CC06CC5E2 DUP4 SLT PUSH2 0x46F6 JUMPI PUSH10 0x127FA27722CC06CC5E2 PUSH9 0x56BC75E2D63100000 DUP5 MUL SDIV SWAP3 POP PUSH9 0x15AF1D78B58C400000 ADD JUMPDEST PUSH9 0x280E60114EDB805D03 DUP4 SLT PUSH2 0x472B JUMPI PUSH9 0x280E60114EDB805D03 PUSH9 0x56BC75E2D63100000 DUP5 MUL SDIV SWAP3 POP PUSH9 0xAD78EBC5AC6200000 ADD JUMPDEST PUSH9 0xEBC5FB41746121110 DUP4 SLT PUSH2 0x4756 JUMPI PUSH9 0xEBC5FB41746121110 PUSH9 0x56BC75E2D63100000 SWAP4 DUP5 MUL SDIV SWAP3 ADD JUMPDEST PUSH9 0x8F00F760A4B2DB55D DUP4 SLT PUSH2 0x478B JUMPI PUSH9 0x8F00F760A4B2DB55D PUSH9 0x56BC75E2D63100000 DUP5 MUL SDIV SWAP3 POP PUSH9 0x2B5E3AF16B1880000 ADD JUMPDEST PUSH9 0x6F5F1775788937937 DUP4 SLT PUSH2 0x47C0 JUMPI PUSH9 0x6F5F1775788937937 PUSH9 0x56BC75E2D63100000 DUP5 MUL SDIV SWAP3 POP PUSH9 0x15AF1D78B58C40000 ADD JUMPDEST PUSH9 0x6248F33704B286603 DUP4 SLT PUSH2 0x47F4 JUMPI PUSH9 0x6248F33704B286603 PUSH9 0x56BC75E2D63100000 DUP5 MUL SDIV SWAP3 POP PUSH8 0xAD78EBC5AC620000 ADD JUMPDEST PUSH9 0x5C548670B9510E7AC DUP4 SLT PUSH2 0x4828 JUMPI PUSH9 0x5C548670B9510E7AC PUSH9 0x56BC75E2D63100000 DUP5 MUL SDIV SWAP3 POP PUSH8 0x56BC75E2D6310000 ADD JUMPDEST PUSH1 0x0 PUSH9 0x56BC75E2D63100000 DUP5 ADD PUSH9 0x56BC75E2D63100000 DUP1 DUP7 SUB MUL DUP2 PUSH2 0x484B JUMPI INVALID JUMPDEST SDIV SWAP1 POP PUSH1 0x0 PUSH9 0x56BC75E2D63100000 DUP3 DUP1 MUL SDIV SWAP1 POP DUP2 DUP1 PUSH9 0x56BC75E2D63100000 DUP2 DUP5 MUL SDIV SWAP2 POP PUSH1 0x3 DUP3 SDIV ADD PUSH9 0x56BC75E2D63100000 DUP3 DUP5 MUL SDIV SWAP2 POP PUSH1 0x5 DUP3 SDIV ADD PUSH9 0x56BC75E2D63100000 DUP3 DUP5 MUL SDIV SWAP2 POP PUSH1 0x7 DUP3 SDIV ADD PUSH9 0x56BC75E2D63100000 DUP3 DUP5 MUL SDIV SWAP2 POP PUSH1 0x9 DUP3 SDIV ADD PUSH9 0x56BC75E2D63100000 DUP3 DUP5 MUL SDIV SWAP2 POP PUSH1 0xB DUP3 SDIV ADD PUSH1 0x2 MUL PUSH1 0x64 DUP6 DUP3 ADD SDIV SWAP8 SWAP7 POP POP POP POP POP POP POP JUMP JUMPDEST PUSH1 0xE SLOAD PUSH1 0x40 MLOAD PUSH4 0xBD02D0F5 PUSH1 0xE0 SHL DUP2 MSTORE PUSH1 0x0 SWAP2 DUP3 SWAP2 DUP3 SWAP2 DUP3 SWAP2 PUSH1 0x1 PUSH1 0x1 PUSH1 0xA0 SHL SUB SWAP1 SWAP2 AND SWAP1 PUSH4 0xBD02D0F5 SWAP1 PUSH2 0x4931 SWAP1 PUSH22 0x50524F544F434F4C5F535741505F4645455F50455243 PUSH1 0x50 SHL SWAP1 PUSH1 0x4 ADD PUSH2 0x5C7D JUMP JUMPDEST PUSH1 0x20 PUSH1 0x40 MLOAD DUP1 DUP4 SUB DUP2 DUP7 DUP1 EXTCODESIZE ISZERO DUP1 ISZERO PUSH2 0x4949 JUMPI PUSH1 0x0 DUP1 REVERT JUMPDEST POP GAS STATICCALL ISZERO DUP1 ISZERO PUSH2 0x495D JUMPI RETURNDATASIZE PUSH1 0x0 DUP1 RETURNDATACOPY RETURNDATASIZE PUSH1 0x0 REVERT JUMPDEST POP POP POP POP PUSH1 0x40 MLOAD RETURNDATASIZE PUSH1 0x1F NOT PUSH1 0x1F DUP3 ADD AND DUP3 ADD DUP1 PUSH1 0x40 MSTORE POP DUP2 ADD SWAP1 PUSH2 0x4981 SWAP2 SWAP1 PUSH2 0x57FD JUMP JUMPDEST PUSH1 0xE SLOAD PUSH1 0x40 MLOAD PUSH4 0xBD02D0F5 PUSH1 0xE0 SHL DUP2 MSTORE PUSH1 0x1 PUSH1 0x1 PUSH1 0xA0 SHL SUB SWAP1 SWAP2 AND SWAP1 PUSH4 0xBD02D0F5 SWAP1 PUSH2 0x49D1 SWAP1 PUSH32 0x50524F544F434F4C5F4645455F4759524F5F504F5254494F4E00000000000000 SWAP1 PUSH1 0x4 ADD PUSH2 0x5C7D JUMP JUMPDEST PUSH1 0x20 PUSH1 0x40 MLOAD DUP1 DUP4 SUB DUP2 DUP7 DUP1 EXTCODESIZE ISZERO DUP1 ISZERO PUSH2 0x49E9 JUMPI PUSH1 0x0 DUP1 REVERT JUMPDEST POP GAS STATICCALL ISZERO DUP1 ISZERO PUSH2 0x49FD JUMPI RETURNDATASIZE PUSH1 0x0 DUP1 RETURNDATACOPY RETURNDATASIZE PUSH1 0x0 REVERT JUMPDEST POP POP POP POP PUSH1 0x40 MLOAD RETURNDATASIZE PUSH1 0x1F NOT PUSH1 0x1F DUP3 ADD AND DUP3 ADD DUP1 PUSH1 0x40 MSTORE POP DUP2 ADD SWAP1 PUSH2 0x4A21 SWAP2 SWAP1 PUSH2 0x57FD JUMP JUMPDEST PUSH1 0xE SLOAD PUSH1 0x40 MLOAD PUSH4 0x21F8A721 PUSH1 0xE0 SHL DUP2 MSTORE PUSH1 0x1 PUSH1 0x1 PUSH1 0xA0 SHL SUB SWAP1 SWAP2 AND SWAP1 PUSH4 0x21F8A721 SWAP1 PUSH2 0x4A61 SWAP1 PUSH13 0x4759524F5F5452454153555259 PUSH1 0x98 SHL SWAP1 PUSH1 0x4 ADD PUSH2 0x5C7D JUMP JUMPDEST PUSH1 0x20 PUSH1 0x40 MLOAD DUP1 DUP4 SUB DUP2 DUP7 DUP1 EXTCODESIZE ISZERO DUP1 ISZERO PUSH2 0x4A79 JUMPI PUSH1 0x0 DUP1 REVERT JUMPDEST POP GAS STATICCALL ISZERO DUP1 ISZERO PUSH2 0x4A8D JUMPI RETURNDATASIZE PUSH1 0x0 DUP1 RETURNDATACOPY RETURNDATASIZE PUSH1 0x0 REVERT JUMPDEST POP POP POP POP PUSH1 0x40 MLOAD RETURNDATASIZE PUSH1 0x1F NOT PUSH1 0x1F DUP3 ADD AND DUP3 ADD DUP1 PUSH1 0x40 MSTORE POP DUP2 ADD SWAP1 PUSH2 0x4AB1 SWAP2 SWAP1 PUSH2 0x530C JUMP JUMPDEST PUSH1 0xE SLOAD PUSH1 0x40 MLOAD PUSH4 0x21F8A721 PUSH1 0xE0 SHL DUP2 MSTORE PUSH1 0x1 PUSH1 0x1 PUSH1 0xA0 SHL SUB SWAP1 SWAP2 AND SWAP1 PUSH4 0x21F8A721 SWAP1 PUSH2 0x4AF0 SWAP1 PUSH12 0x42414C5F5452454153555259 PUSH1 0xA0 SHL SWAP1 PUSH1 0x4 ADD PUSH2 0x5C7D JUMP JUMPDEST PUSH1 0x20 PUSH1 0x40 MLOAD DUP1 DUP4 SUB DUP2 DUP7 DUP1 EXTCODESIZE ISZERO DUP1 ISZERO PUSH2 0x4B08 JUMPI PUSH1 0x0 DUP1 REVERT JUMPDEST POP GAS STATICCALL ISZERO DUP1 ISZERO PUSH2 0x4B1C JUMPI RETURNDATASIZE PUSH1 0x0 DUP1 RETURNDATACOPY RETURNDATASIZE PUSH1 0x0 REVERT JUMPDEST POP POP POP POP PUSH1 0x40 MLOAD RETURNDATASIZE PUSH1 0x1F NOT PUSH1 0x1F DUP3 ADD AND DUP3 ADD DUP1 PUSH1 0x40 MSTORE POP DUP2 ADD SWAP1 PUSH2 0x4B40 SWAP2 SWAP1 PUSH2 0x530C JUMP JUMPDEST SWAP4 POP SWAP4 POP SWAP4 POP SWAP4 POP SWAP1 SWAP2 SWAP3 SWAP4 JUMP JUMPDEST PUSH1 0x0 DUP1 DUP7 DUP7 GT PUSH2 0x4B63 JUMPI POP PUSH1 0x0 SWAP1 POP DUP1 PUSH2 0x4BDF JUMP JUMPDEST PUSH1 0x0 PUSH2 0x4B83 DUP6 PUSH2 0x4B7D PUSH2 0x4B76 DUP11 DUP13 PUSH2 0x31EE JUMP JUMPDEST DUP10 SWAP1 PUSH2 0x415E JUMP JUMPDEST SWAP1 PUSH2 0x415E JUMP JUMPDEST SWAP1 POP PUSH1 0x0 PUSH2 0x4B9B PUSH2 0x4B94 DUP10 DUP12 PUSH2 0x31EE JUMP JUMPDEST DUP8 SWAP1 PUSH2 0x415E JUMP JUMPDEST SWAP1 POP PUSH1 0x0 PUSH2 0x4BA9 DUP10 DUP4 PUSH2 0x31EE JUMP JUMPDEST SWAP1 POP PUSH1 0x0 PUSH2 0x4BB7 DUP5 DUP4 PUSH2 0x2906 JUMP JUMPDEST SWAP1 POP PUSH1 0x0 PUSH2 0x4BC5 DUP9 DUP4 PUSH2 0x415E JUMP JUMPDEST SWAP1 POP PUSH1 0x0 PUSH2 0x4BD3 DUP4 DUP4 PUSH2 0x31EE JUMP JUMPDEST SWAP2 SWAP8 POP SWAP1 SWAP6 POP POP POP POP POP POP JUMPDEST SWAP6 POP SWAP6 SWAP4 POP POP POP POP JUMP JUMPDEST PUSH1 0x0 DUP2 DUP1 PUSH1 0x20 ADD SWAP1 MLOAD PUSH1 0x40 DUP2 LT ISZERO PUSH2 0x4C00 JUMPI PUSH1 0x0 DUP1 REVERT JUMPDEST POP PUSH1 0x20 ADD MLOAD SWAP3 SWAP2 POP POP JUMP JUMPDEST PUSH1 0x60 DUP4 MLOAD PUSH1 0x1 PUSH1 0x1 PUSH1 0x40 SHL SUB DUP2 GT DUP1 ISZERO PUSH2 0x4C24 JUMPI PUSH1 0x0 DUP1 REVERT JUMPDEST POP PUSH1 0x40 MLOAD SWAP1 DUP1 DUP3 MSTORE DUP1 PUSH1 0x20 MUL PUSH1 0x20 ADD DUP3 ADD PUSH1 0x40 MSTORE DUP1 ISZERO PUSH2 0x4C4E JUMPI DUP2 PUSH1 0x20 ADD PUSH1 0x20 DUP3 MUL DUP1 CALLDATASIZE DUP4 CALLDATACOPY ADD SWAP1 POP JUMPDEST POP SWAP1 POP PUSH1 0x0 JUMPDEST DUP5 MLOAD DUP2 LT ISZERO PUSH2 0x191B JUMPI PUSH2 0x4C87 DUP4 PUSH2 0xF6A DUP7 DUP9 DUP6 DUP2 MLOAD DUP2 LT PUSH2 0x4C71 JUMPI INVALID JUMPDEST PUSH1 0x20 MUL PUSH1 0x20 ADD ADD MLOAD PUSH2 0x415E SWAP1 SWAP2 SWAP1 PUSH4 0xFFFFFFFF AND JUMP JUMPDEST DUP3 DUP3 DUP2 MLOAD DUP2 LT PUSH2 0x4C93 JUMPI INVALID JUMPDEST PUSH1 0x20 SWAP1 DUP2 MUL SWAP2 SWAP1 SWAP2 ADD ADD MSTORE PUSH1 0x1 ADD PUSH2 0x4C54 JUMP JUMPDEST PUSH1 0x60 DUP4 MLOAD PUSH1 0x1 PUSH1 0x1 PUSH1 0x40 SHL SUB DUP2 GT DUP1 ISZERO PUSH2 0x4CBF JUMPI PUSH1 0x0 DUP1 REVERT JUMPDEST POP PUSH1 0x40 MLOAD SWAP1 DUP1 DUP3 MSTORE DUP1 PUSH1 0x20 MUL PUSH1 0x20 ADD DUP3 ADD PUSH1 0x40 MSTORE DUP1 ISZERO PUSH2 0x4CE9 JUMPI DUP2 PUSH1 0x20 ADD PUSH1 0x20 DUP3 MUL DUP1 CALLDATASIZE DUP4 CALLDATACOPY ADD SWAP1 POP JUMPDEST POP SWAP1 POP PUSH1 0x0 JUMPDEST DUP5 MLOAD DUP2 LT ISZERO PUSH2 0x191B JUMPI PUSH2 0x4D22 DUP4 PUSH2 0x39DD DUP7 DUP9 DUP6 DUP2 MLOAD DUP2 LT PUSH2 0x4D0C JUMPI INVALID JUMPDEST PUSH1 0x20 MUL PUSH1 0x20 ADD ADD MLOAD PUSH2 0x3199 SWAP1 SWAP2 SWAP1 PUSH4 0xFFFFFFFF AND JUMP JUMPDEST DUP3 DUP3 DUP2 MLOAD DUP2 LT PUSH2 0x4D2E JUMPI INVALID JUMPDEST PUSH1 0x20 SWAP1 DUP2 MUL SWAP2 SWAP1 SWAP2 ADD ADD MSTORE PUSH1 0x1 ADD PUSH2 0x4CEF JUMP JUMPDEST ADD PUSH2 0x3FF AND SWAP1 JUMP JUMPDEST PUSH1 0x0 PUSH2 0x4D78 PUSH9 0x238FD42C5CF03FFFF NOT DUP4 SLT ISZERO DUP1 ISZERO PUSH2 0x4D71 JUMPI POP PUSH9 0x70C1CC73B00C80000 DUP4 SGT ISZERO JUMPDEST PUSH1 0x9 PUSH2 0x21CF JUMP JUMPDEST PUSH1 0x0 DUP3 SLT ISZERO PUSH2 0x4DA3 JUMPI PUSH2 0x4D8D DUP3 PUSH1 0x0 SUB PUSH2 0x4D49 JUMP JUMPDEST PUSH11 0xC097CE7BC90715B34B9F1 PUSH1 0x24 SHL DUP2 PUSH2 0x405C JUMPI INVALID JUMPDEST PUSH1 0x0 PUSH9 0x6F05B59D3B2000000 DUP4 SLT PUSH2 0x4DE3 JUMPI POP PUSH9 0x6F05B59D3B1FFFFFF NOT SWAP1 SWAP2 ADD SWAP1 PUSH24 0x195E54C5DD42177F53A27172FA9EC630262827000000000 PUSH2 0x4E19 JUMP JUMPDEST PUSH9 0x3782DACE9D9000000 DUP4 SLT PUSH2 0x4E15 JUMPI POP PUSH9 0x3782DACE9D8FFFFFF NOT SWAP1 SWAP2 ADD SWAP1 PUSH12 0x1425982CF597CD205CEF7380 PUSH2 0x4E19 JUMP JUMPDEST POP PUSH1 0x1 JUMPDEST PUSH1 0x64 SWAP3 SWAP1 SWAP3 MUL SWAP2 PUSH9 0x56BC75E2D63100000 PUSH9 0xAD78EBC5AC62000000 DUP5 SLT PUSH2 0x4E69 JUMPI PUSH9 0xAD78EBC5AC61FFFFFF NOT SWAP1 SWAP4 ADD SWAP3 PUSH9 0x56BC75E2D63100000 PUSH15 0x1855144814A7FF805980FF0084000 DUP3 MUL SDIV SWAP1 POP JUMPDEST PUSH9 0x56BC75E2D631000000 DUP5 SLT PUSH2 0x4EA5 JUMPI PUSH9 0x56BC75E2D630FFFFFF NOT SWAP1 SWAP4 ADD SWAP3 PUSH9 0x56BC75E2D63100000 PUSH12 0x2DF0AB5A80A22C61AB5A700 DUP3 MUL SDIV SWAP1 POP JUMPDEST PUSH9 0x2B5E3AF16B18800000 DUP5 SLT PUSH2 0x4EDF JUMPI PUSH9 0x2B5E3AF16B187FFFFF NOT SWAP1 SWAP4 ADD SWAP3 PUSH9 0x56BC75E2D63100000 PUSH10 0x3F1FCE3DA636EA5CF850 DUP3 MUL SDIV SWAP1 POP JUMPDEST PUSH9 0x15AF1D78B58C400000 DUP5 SLT PUSH2 0x4F19 JUMPI PUSH9 0x15AF1D78B58C3FFFFF NOT SWAP1 SWAP4 ADD SWAP3 PUSH9 0x56BC75E2D63100000 PUSH10 0x127FA27722CC06CC5E2 DUP3 MUL SDIV SWAP1 POP JUMPDEST PUSH9 0xAD78EBC5AC6200000 DUP5 SLT PUSH2 0x4F52 JUMPI PUSH9 0xAD78EBC5AC61FFFFF NOT SWAP1 SWAP4 ADD SWAP3 PUSH9 0x56BC75E2D63100000 PUSH9 0x280E60114EDB805D03 DUP3 MUL SDIV SWAP1 POP JUMPDEST PUSH9 0x56BC75E2D63100000 DUP5 SLT PUSH2 0x4F8B JUMPI PUSH9 0x56BC75E2D630FFFFF NOT SWAP1 SWAP4 ADD SWAP3 PUSH9 0x56BC75E2D63100000 PUSH9 0xEBC5FB41746121110 DUP3 MUL SDIV SWAP1 POP JUMPDEST PUSH9 0x2B5E3AF16B1880000 DUP5 SLT PUSH2 0x4FC4 JUMPI PUSH9 0x2B5E3AF16B187FFFF NOT SWAP1 SWAP4 ADD SWAP3 PUSH9 0x56BC75E2D63100000 PUSH9 0x8F00F760A4B2DB55D DUP3 MUL SDIV SWAP1 POP JUMPDEST PUSH9 0x15AF1D78B58C40000 DUP5 SLT PUSH2 0x4FFD JUMPI PUSH9 0x15AF1D78B58C3FFFF NOT SWAP1 SWAP4 ADD SWAP3 PUSH9 0x56BC75E2D63100000 PUSH9 0x6F5F1775788937937 DUP3 MUL SDIV SWAP1 POP JUMPDEST PUSH9 0x56BC75E2D63100000 DUP5 DUP2 ADD SWAP1 DUP6 SWAP1 PUSH1 0x2 SWAP1 DUP3 DUP1 MUL SDIV SDIV SWAP2 DUP3 ADD SWAP2 SWAP1 POP PUSH1 0x3 PUSH9 0x56BC75E2D63100000 DUP8 DUP4 MUL SDIV SDIV SWAP2 DUP3 ADD SWAP2 SWAP1 POP PUSH1 0x4 PUSH9 0x56BC75E2D63100000 DUP8 DUP4 MUL SDIV SDIV SWAP2 DUP3 ADD SWAP2 SWAP1 POP PUSH1 0x5 PUSH9 0x56BC75E2D63100000 DUP8 DUP4 MUL SDIV SDIV SWAP2 DUP3 ADD SWAP2 SWAP1 POP PUSH1 0x6 PUSH9 0x56BC75E2D63100000 DUP8 DUP4 MUL SDIV SDIV SWAP2 DUP3 ADD SWAP2 SWAP1 POP PUSH1 0x7 PUSH9 0x56BC75E2D63100000 DUP8 DUP4 MUL SDIV SDIV SWAP2 DUP3 ADD SWAP2 SWAP1 POP PUSH1 0x8 PUSH9 0x56BC75E2D63100000 DUP8 DUP4 MUL SDIV SDIV SWAP2 DUP3 ADD SWAP2 SWAP1 POP PUSH1 0x9 PUSH9 0x56BC75E2D63100000 DUP8 DUP4 MUL SDIV SDIV SWAP2 DUP3 ADD SWAP2 SWAP1 POP PUSH1 0xA PUSH9 0x56BC75E2D63100000 DUP8 DUP4 MUL SDIV SDIV SWAP2 DUP3 ADD SWAP2 SWAP1 POP PUSH1 0xB PUSH9 0x56BC75E2D63100000 DUP8 DUP4 MUL SDIV SDIV SWAP2 DUP3 ADD SWAP2 SWAP1 POP PUSH1 0xC PUSH9 0x56BC75E2D63100000 DUP8 DUP4 MUL SDIV SDIV SWAP2 DUP3 ADD SWAP2 SWAP1 POP PUSH1 0x64 PUSH9 0x56BC75E2D63100000 DUP5 DUP5 MUL SDIV DUP6 MUL SDIV SWAP7 SWAP6 POP POP POP POP POP POP JUMP JUMPDEST PUSH1 0x40 DUP1 MLOAD PUSH1 0x60 DUP2 ADD DUP3 MSTORE PUSH1 0x0 DUP1 DUP3 MSTORE PUSH1 0x20 DUP3 ADD DUP2 SWAP1 MSTORE SWAP2 DUP2 ADD SWAP2 SWAP1 SWAP2 MSTORE SWAP1 JUMP JUMPDEST PUSH1 0x40 DUP1 MLOAD DUP1 DUP3 ADD SWAP1 SWAP2 MSTORE PUSH1 0x0 DUP1 DUP3 MSTORE PUSH1 0x20 DUP3 ADD MSTORE SWAP1 JUMP JUMPDEST PUSH1 0x40 MLOAD DUP1 PUSH1 0xA0 ADD PUSH1 0x40 MSTORE DUP1 PUSH1 0x0 DUP2 MSTORE PUSH1 0x20 ADD PUSH1 0x0 DUP2 MSTORE PUSH1 0x20 ADD PUSH1 0x0 DUP2 MSTORE PUSH1 0x20 ADD PUSH1 0x0 DUP2 MSTORE PUSH1 0x20 ADD PUSH1 0x0 DUP2 MSTORE POP SWAP1 JUMP JUMPDEST PUSH1 0x40 MLOAD DUP1 PUSH1 0xE0 ADD PUSH1 0x40 MSTORE DUP1 PUSH2 0x5197 PUSH2 0x51CD JUMP JUMPDEST DUP2 MSTORE PUSH1 0x20 ADD PUSH2 0x51A4 PUSH2 0x51CD JUMP JUMPDEST DUP2 MSTORE PUSH1 0x20 ADD PUSH1 0x0 DUP2 MSTORE PUSH1 0x20 ADD PUSH1 0x0 DUP2 MSTORE PUSH1 0x20 ADD PUSH1 0x0 DUP2 MSTORE PUSH1 0x20 ADD PUSH1 0x0 DUP2 MSTORE PUSH1 0x20 ADD PUSH1 0x0 DUP2 MSTORE POP SWAP1 JUMP JUMPDEST PUSH1 0x40 MLOAD DUP1 PUSH1 0x40 ADD PUSH1 0x40 MSTORE DUP1 PUSH1 0x0 DUP2 MSTORE PUSH1 0x20 ADD PUSH1 0x0 DUP2 MSTORE POP SWAP1 JUMP JUMPDEST DUP1 CALLDATALOAD PUSH2 0x104F DUP2 PUSH2 0x5EF7 JUMP JUMPDEST PUSH1 0x0 DUP3 PUSH1 0x1F DUP4 ADD SLT PUSH2 0x5202 JUMPI DUP1 DUP2 REVERT JUMPDEST DUP2 MLOAD PUSH1 0x20 PUSH2 0x5217 PUSH2 0x5212 DUP4 PUSH2 0x5EDA JUMP JUMPDEST PUSH2 0x5EB7 JUMP JUMPDEST DUP3 DUP2 MSTORE DUP2 DUP2 ADD SWAP1 DUP6 DUP4 ADD DUP4 DUP6 MUL DUP8 ADD DUP5 ADD DUP9 LT ISZERO PUSH2 0x5233 JUMPI DUP6 DUP7 REVERT JUMPDEST DUP6 JUMPDEST DUP6 DUP2 LT ISZERO PUSH2 0x5251 JUMPI DUP2 MLOAD DUP5 MSTORE SWAP3 DUP5 ADD SWAP3 SWAP1 DUP5 ADD SWAP1 PUSH1 0x1 ADD PUSH2 0x5235 JUMP JUMPDEST POP SWAP1 SWAP8 SWAP7 POP POP POP POP POP POP POP JUMP JUMPDEST DUP1 CALLDATALOAD DUP1 ISZERO ISZERO DUP2 EQ PUSH2 0x104F JUMPI PUSH1 0x0 DUP1 REVERT JUMPDEST PUSH1 0x0 DUP3 PUSH1 0x1F DUP4 ADD SLT PUSH2 0x527E JUMPI DUP1 DUP2 REVERT JUMPDEST DUP2 CALLDATALOAD PUSH1 0x1 PUSH1 0x1 PUSH1 0x40 SHL SUB DUP2 GT ISZERO PUSH2 0x5291 JUMPI INVALID JUMPDEST PUSH2 0x52A4 PUSH1 0x1F DUP3 ADD PUSH1 0x1F NOT AND PUSH1 0x20 ADD PUSH2 0x5EB7 JUMP JUMPDEST DUP2 DUP2 MSTORE DUP5 PUSH1 0x20 DUP4 DUP7 ADD ADD GT ISZERO PUSH2 0x52B8 JUMPI DUP3 DUP4 REVERT JUMPDEST DUP2 PUSH1 0x20 DUP6 ADD PUSH1 0x20 DUP4 ADD CALLDATACOPY SWAP1 DUP2 ADD PUSH1 0x20 ADD SWAP2 SWAP1 SWAP2 MSTORE SWAP3 SWAP2 POP POP JUMP JUMPDEST DUP1 CALLDATALOAD PUSH1 0x2 DUP2 LT PUSH2 0x104F JUMPI PUSH1 0x0 DUP1 REVERT JUMPDEST DUP1 CALLDATALOAD PUSH1 0x3 DUP2 LT PUSH2 0x104F JUMPI PUSH1 0x0 DUP1 REVERT JUMPDEST PUSH1 0x0 PUSH1 0x20 DUP3 DUP5 SUB SLT ISZERO PUSH2 0x5301 JUMPI DUP1 DUP2 REVERT JUMPDEST DUP2 CALLDATALOAD PUSH2 0xB6B DUP2 PUSH2 0x5EF7 JUMP JUMPDEST PUSH1 0x0 PUSH1 0x20 DUP3 DUP5 SUB SLT ISZERO PUSH2 0x531D JUMPI DUP1 DUP2 REVERT JUMPDEST DUP2 MLOAD PUSH2 0xB6B DUP2 PUSH2 0x5EF7 JUMP JUMPDEST PUSH1 0x0 DUP1 PUSH1 0x40 DUP4 DUP6 SUB SLT ISZERO PUSH2 0x533A JUMPI DUP1 DUP2 REVERT JUMPDEST DUP3 CALLDATALOAD PUSH2 0x5345 DUP2 PUSH2 0x5EF7 JUMP JUMPDEST SWAP2 POP PUSH1 0x20 DUP4 ADD CALLDATALOAD PUSH2 0x5355 DUP2 PUSH2 0x5EF7 JUMP JUMPDEST DUP1 SWAP2 POP POP SWAP3 POP SWAP3 SWAP1 POP JUMP JUMPDEST PUSH1 0x0 DUP1 PUSH1 0x0 PUSH1 0x60 DUP5 DUP7 SUB SLT ISZERO PUSH2 0x5374 JUMPI DUP1 DUP2 REVERT JUMPDEST DUP4 CALLDATALOAD PUSH2 0x537F DUP2 PUSH2 0x5EF7 JUMP JUMPDEST SWAP3 POP PUSH1 0x20 DUP5 ADD CALLDATALOAD PUSH2 0x538F DUP2 PUSH2 0x5EF7 JUMP JUMPDEST SWAP3 SWAP6 SWAP3 SWAP5 POP POP POP PUSH1 0x40 SWAP2 SWAP1 SWAP2 ADD CALLDATALOAD SWAP1 JUMP JUMPDEST PUSH1 0x0 DUP1 PUSH1 0x0 DUP1 PUSH1 0x0 DUP1 PUSH1 0x0 PUSH1 0xE0 DUP9 DUP11 SUB SLT ISZERO PUSH2 0x53BA JUMPI DUP5 DUP6 REVERT JUMPDEST DUP8 CALLDATALOAD PUSH2 0x53C5 DUP2 PUSH2 0x5EF7 JUMP JUMPDEST SWAP7 POP PUSH1 0x20 DUP9 ADD CALLDATALOAD PUSH2 0x53D5 DUP2 PUSH2 0x5EF7 JUMP JUMPDEST SWAP6 POP PUSH1 0x40 DUP9 ADD CALLDATALOAD SWAP5 POP PUSH1 0x60 DUP9 ADD CALLDATALOAD SWAP4 POP PUSH1 0x80 DUP9 ADD CALLDATALOAD PUSH1 0xFF DUP2 AND DUP2 EQ PUSH2 0x53F8 JUMPI DUP4 DUP5 REVERT JUMPDEST SWAP7 SWAP10 SWAP6 SWAP9 POP SWAP4 SWAP7 SWAP3 SWAP6 SWAP5 PUSH1 0xA0 DUP5 ADD CALLDATALOAD SWAP5 POP PUSH1 0xC0 SWAP1 SWAP4 ADD CALLDATALOAD SWAP3 SWAP2 POP POP JUMP JUMPDEST PUSH1 0x0 DUP1 PUSH1 0x40 DUP4 DUP6 SUB SLT ISZERO PUSH2 0x5427 JUMPI DUP2 DUP3 REVERT JUMPDEST DUP3 CALLDATALOAD PUSH2 0x5432 DUP2 PUSH2 0x5EF7 JUMP JUMPDEST SWAP5 PUSH1 0x20 SWAP4 SWAP1 SWAP4 ADD CALLDATALOAD SWAP4 POP POP POP JUMP JUMPDEST PUSH1 0x0 DUP1 PUSH1 0x0 PUSH1 0x60 DUP5 DUP7 SUB SLT ISZERO PUSH2 0x5454 JUMPI DUP1 DUP2 REVERT JUMPDEST DUP4 MLOAD PUSH1 0x1 PUSH1 0x1 PUSH1 0x40 SHL SUB DUP1 DUP3 GT ISZERO PUSH2 0x546A JUMPI DUP3 DUP4 REVERT JUMPDEST DUP2 DUP7 ADD SWAP2 POP DUP7 PUSH1 0x1F DUP4 ADD SLT PUSH2 0x547D JUMPI DUP3 DUP4 REVERT JUMPDEST DUP2 MLOAD PUSH1 0x20 PUSH2 0x548D PUSH2 0x5212 DUP4 PUSH2 0x5EDA JUMP JUMPDEST DUP3 DUP2 MSTORE DUP2 DUP2 ADD SWAP1 DUP6 DUP4 ADD DUP4 DUP6 MUL DUP8 ADD DUP5 ADD DUP13 LT ISZERO PUSH2 0x54A9 JUMPI DUP8 DUP9 REVERT JUMPDEST DUP8 SWAP7 POP JUMPDEST DUP5 DUP8 LT ISZERO PUSH2 0x54D4 JUMPI DUP1 MLOAD PUSH2 0x54C0 DUP2 PUSH2 0x5EF7 JUMP JUMPDEST DUP4 MSTORE PUSH1 0x1 SWAP7 SWAP1 SWAP7 ADD SWAP6 SWAP2 DUP4 ADD SWAP2 DUP4 ADD PUSH2 0x54AD JUMP JUMPDEST POP SWAP2 DUP10 ADD MLOAD SWAP2 SWAP8 POP SWAP1 SWAP4 POP POP POP DUP1 DUP3 GT ISZERO PUSH2 0x54ED JUMPI DUP3 DUP4 REVERT JUMPDEST POP PUSH2 0x54FA DUP7 DUP3 DUP8 ADD PUSH2 0x51F2 JUMP JUMPDEST SWAP3 POP POP PUSH1 0x40 DUP5 ADD MLOAD SWAP1 POP SWAP3 POP SWAP3 POP SWAP3 JUMP JUMPDEST PUSH1 0x0 PUSH1 0x20 DUP1 DUP4 DUP6 SUB SLT ISZERO PUSH2 0x551D JUMPI DUP2 DUP3 REVERT JUMPDEST DUP3 CALLDATALOAD PUSH1 0x1 PUSH1 0x1 PUSH1 0x40 SHL SUB DUP1 DUP3 GT ISZERO PUSH2 0x5533 JUMPI DUP4 DUP5 REVERT JUMPDEST DUP2 DUP6 ADD SWAP2 POP DUP6 PUSH1 0x1F DUP4 ADD SLT PUSH2 0x5546 JUMPI DUP4 DUP5 REVERT JUMPDEST DUP2 CALLDATALOAD PUSH2 0x5554 PUSH2 0x5212 DUP3 PUSH2 0x5EDA JUMP JUMPDEST DUP2 DUP2 MSTORE DUP5 DUP2 ADD SWAP1 DUP5 DUP7 ADD PUSH1 0x40 DUP1 DUP6 MUL DUP8 ADD DUP9 ADD DUP12 LT ISZERO PUSH2 0x5572 JUMPI DUP9 DUP10 REVERT JUMPDEST DUP9 SWAP7 POP JUMPDEST DUP5 DUP8 LT ISZERO PUSH2 0x55CA JUMPI DUP1 DUP3 DUP13 SUB SLT ISZERO PUSH2 0x558C JUMPI DUP9 DUP10 REVERT JUMPDEST DUP1 MLOAD DUP2 DUP2 ADD DUP2 DUP2 LT DUP9 DUP3 GT OR ISZERO PUSH2 0x559F JUMPI INVALID JUMPDEST DUP3 MSTORE PUSH2 0x55AA DUP4 PUSH2 0x52E1 JUMP JUMPDEST DUP2 MSTORE DUP3 DUP10 ADD CALLDATALOAD DUP10 DUP3 ADD MSTORE DUP5 MSTORE PUSH1 0x1 SWAP7 SWAP1 SWAP7 ADD SWAP6 SWAP3 DUP8 ADD SWAP3 SWAP1 DUP2 ADD SWAP1 PUSH2 0x5576 JUMP JUMPDEST POP SWAP1 SWAP10 SWAP9 POP POP POP POP POP POP POP POP POP JUMP JUMPDEST PUSH1 0x0 PUSH1 0x20 DUP1 DUP4 DUP6 SUB SLT ISZERO PUSH2 0x55EB JUMPI DUP2 DUP3 REVERT JUMPDEST DUP3 CALLDATALOAD PUSH1 0x1 PUSH1 0x1 PUSH1 0x40 SHL SUB DUP1 DUP3 GT ISZERO PUSH2 0x5601 JUMPI DUP4 DUP5 REVERT JUMPDEST DUP2 DUP6 ADD SWAP2 POP DUP6 PUSH1 0x1F DUP4 ADD SLT PUSH2 0x5614 JUMPI DUP4 DUP5 REVERT JUMPDEST DUP2 CALLDATALOAD PUSH2 0x5622 PUSH2 0x5212 DUP3 PUSH2 0x5EDA JUMP JUMPDEST DUP2 DUP2 MSTORE DUP5 DUP2 ADD SWAP1 DUP5 DUP7 ADD PUSH1 0x60 DUP1 DUP6 MUL DUP8 ADD DUP9 ADD DUP12 LT ISZERO PUSH2 0x5640 JUMPI DUP9 DUP10 REVERT JUMPDEST DUP9 SWAP7 POP JUMPDEST DUP5 DUP8 LT ISZERO PUSH2 0x55CA JUMPI DUP1 DUP3 DUP13 SUB SLT ISZERO PUSH2 0x565A JUMPI DUP9 DUP10 REVERT JUMPDEST PUSH1 0x40 DUP1 MLOAD DUP3 DUP2 ADD DUP2 DUP2 LT DUP10 DUP3 GT OR ISZERO PUSH2 0x566F JUMPI INVALID JUMPDEST DUP3 MSTORE PUSH2 0x567A DUP5 PUSH2 0x52E1 JUMP JUMPDEST DUP2 MSTORE DUP4 DUP11 ADD CALLDATALOAD DUP11 DUP3 ADD MSTORE DUP2 DUP5 ADD CALLDATALOAD SWAP2 DUP2 ADD SWAP2 SWAP1 SWAP2 MSTORE DUP5 MSTORE PUSH1 0x1 SWAP7 SWAP1 SWAP7 ADD SWAP6 SWAP3 DUP8 ADD SWAP3 SWAP1 DUP2 ADD SWAP1 PUSH2 0x5644 JUMP JUMPDEST PUSH1 0x0 PUSH1 0x20 DUP3 DUP5 SUB SLT ISZERO PUSH2 0x56B6 JUMPI DUP1 DUP2 REVERT JUMPDEST PUSH2 0xB6B DUP3 PUSH2 0x525E JUMP JUMPDEST PUSH1 0x0 DUP1 PUSH1 0x0 DUP1 PUSH1 0x0 DUP1 PUSH1 0x0 PUSH1 0xE0 DUP9 DUP11 SUB SLT ISZERO PUSH2 0x56D9 JUMPI DUP1 DUP2 REVERT JUMPDEST DUP8 CALLDATALOAD SWAP7 POP PUSH1 0x20 DUP1 DUP10 ADD CALLDATALOAD PUSH2 0x56EC DUP2 PUSH2 0x5EF7 JUMP JUMPDEST SWAP7 POP PUSH1 0x40 DUP10 ADD CALLDATALOAD PUSH2 0x56FC DUP2 PUSH2 0x5EF7 JUMP JUMPDEST SWAP6 POP PUSH1 0x60 DUP10 ADD CALLDATALOAD PUSH1 0x1 PUSH1 0x1 PUSH1 0x40 SHL SUB DUP1 DUP3 GT ISZERO PUSH2 0x5717 JUMPI DUP4 DUP5 REVERT JUMPDEST DUP2 DUP12 ADD SWAP2 POP DUP12 PUSH1 0x1F DUP4 ADD SLT PUSH2 0x572A JUMPI DUP4 DUP5 REVERT JUMPDEST DUP2 CALLDATALOAD PUSH2 0x5738 PUSH2 0x5212 DUP3 PUSH2 0x5EDA JUMP JUMPDEST DUP1 DUP3 DUP3 MSTORE DUP6 DUP3 ADD SWAP2 POP DUP6 DUP6 ADD DUP16 DUP8 DUP9 DUP7 MUL DUP9 ADD ADD GT ISZERO PUSH2 0x5756 JUMPI DUP8 DUP9 REVERT JUMPDEST DUP8 SWAP6 POP JUMPDEST DUP4 DUP7 LT ISZERO PUSH2 0x5778 JUMPI DUP1 CALLDATALOAD DUP4 MSTORE PUSH1 0x1 SWAP6 SWAP1 SWAP6 ADD SWAP5 SWAP2 DUP7 ADD SWAP2 DUP7 ADD PUSH2 0x575A JUMP JUMPDEST POP SWAP9 POP POP POP PUSH1 0x80 DUP12 ADD CALLDATALOAD SWAP6 POP PUSH1 0xA0 DUP12 ADD CALLDATALOAD SWAP5 POP PUSH1 0xC0 DUP12 ADD CALLDATALOAD SWAP3 POP DUP1 DUP4 GT ISZERO PUSH2 0x579E JUMPI DUP4 DUP5 REVERT JUMPDEST POP POP PUSH2 0x57AC DUP11 DUP3 DUP12 ADD PUSH2 0x526E JUMP JUMPDEST SWAP2 POP POP SWAP3 SWAP6 SWAP9 SWAP2 SWAP5 SWAP8 POP SWAP3 SWAP6 POP JUMP JUMPDEST PUSH1 0x0 PUSH1 0x20 DUP3 DUP5 SUB SLT ISZERO PUSH2 0x57CC JUMPI DUP1 DUP2 REVERT JUMPDEST DUP2 CALLDATALOAD PUSH1 0x1 PUSH1 0x1 PUSH1 0xE0 SHL SUB NOT DUP2 AND DUP2 EQ PUSH2 0xB6B JUMPI DUP2 DUP3 REVERT JUMPDEST PUSH1 0x0 PUSH1 0x20 DUP3 DUP5 SUB SLT ISZERO PUSH2 0x57F4 JUMPI DUP1 DUP2 REVERT JUMPDEST PUSH2 0xB6B DUP3 PUSH2 0x52E1 JUMP JUMPDEST PUSH1 0x0 PUSH1 0x20 DUP3 DUP5 SUB SLT ISZERO PUSH2 0x580E JUMPI DUP1 DUP2 REVERT JUMPDEST POP MLOAD SWAP2 SWAP1 POP JUMP JUMPDEST PUSH1 0x0 DUP1 PUSH1 0x40 DUP4 DUP6 SUB SLT ISZERO PUSH2 0x5827 JUMPI DUP2 DUP3 REVERT JUMPDEST POP POP DUP1 MLOAD PUSH1 0x20 SWAP1 SWAP2 ADD MLOAD SWAP1 SWAP3 SWAP1 SWAP2 POP JUMP JUMPDEST PUSH1 0x0 PUSH1 0x60 DUP3 DUP5 SUB SLT ISZERO PUSH2 0x5849 JUMPI DUP1 DUP2 REVERT JUMPDEST PUSH1 0x40 MLOAD PUSH1 0x60 DUP2 ADD DUP2 DUP2 LT PUSH1 0x1 PUSH1 0x1 PUSH1 0x40 SHL SUB DUP3 GT OR ISZERO PUSH2 0x5865 JUMPI INVALID JUMPDEST PUSH1 0x40 MSTORE PUSH2 0x5871 DUP4 PUSH2 0x525E JUMP JUMPDEST DUP2 MSTORE PUSH1 0x20 DUP4 ADD CALLDATALOAD PUSH1 0x1 PUSH1 0x1 PUSH1 0x78 SHL SUB DUP2 AND DUP2 EQ PUSH2 0x588C JUMPI DUP3 DUP4 REVERT JUMPDEST PUSH1 0x20 DUP3 ADD MSTORE PUSH1 0x40 DUP4 ADD CALLDATALOAD PUSH1 0x1 PUSH1 0x1 PUSH1 0x80 SHL SUB DUP2 AND DUP2 EQ PUSH2 0x58AA JUMPI DUP3 DUP4 REVERT JUMPDEST PUSH1 0x40 DUP3 ADD MSTORE SWAP4 SWAP3 POP POP POP JUMP JUMPDEST PUSH1 0x0 DUP1 PUSH1 0x0 PUSH1 0x60 DUP5 DUP7 SUB SLT ISZERO PUSH2 0x58CA JUMPI DUP1 DUP2 REVERT JUMPDEST DUP4 CALLDATALOAD PUSH1 0x1 PUSH1 0x1 PUSH1 0x40 SHL SUB DUP1 DUP3 GT ISZERO PUSH2 0x58E0 JUMPI DUP3 DUP4 REVERT JUMPDEST DUP2 DUP7 ADD SWAP2 POP PUSH2 0x120 DUP1 DUP4 DUP10 SUB SLT ISZERO PUSH2 0x58F6 JUMPI DUP4 DUP5 REVERT JUMPDEST PUSH2 0x58FF DUP2 PUSH2 0x5EB7 JUMP JUMPDEST SWAP1 POP PUSH2 0x590A DUP4 PUSH2 0x52D2 JUMP JUMPDEST DUP2 MSTORE PUSH2 0x5918 PUSH1 0x20 DUP5 ADD PUSH2 0x51E7 JUMP JUMPDEST PUSH1 0x20 DUP3 ADD MSTORE PUSH2 0x5929 PUSH1 0x40 DUP5 ADD PUSH2 0x51E7 JUMP JUMPDEST PUSH1 0x40 DUP3 ADD MSTORE PUSH1 0x60 DUP4 ADD CALLDATALOAD PUSH1 0x60 DUP3 ADD MSTORE PUSH1 0x80 DUP4 ADD CALLDATALOAD PUSH1 0x80 DUP3 ADD MSTORE PUSH1 0xA0 DUP4 ADD CALLDATALOAD PUSH1 0xA0 DUP3 ADD MSTORE PUSH2 0x5958 PUSH1 0xC0 DUP5 ADD PUSH2 0x51E7 JUMP JUMPDEST PUSH1 0xC0 DUP3 ADD MSTORE PUSH2 0x5969 PUSH1 0xE0 DUP5 ADD PUSH2 0x51E7 JUMP JUMPDEST PUSH1 0xE0 DUP3 ADD MSTORE PUSH2 0x100 DUP1 DUP5 ADD CALLDATALOAD DUP4 DUP2 GT ISZERO PUSH2 0x5981 JUMPI DUP6 DUP7 REVERT JUMPDEST PUSH2 0x598D DUP11 DUP3 DUP8 ADD PUSH2 0x526E JUMP JUMPDEST SWAP2 DUP4 ADD SWAP2 SWAP1 SWAP2 MSTORE POP SWAP8 PUSH1 0x20 DUP8 ADD CALLDATALOAD SWAP8 POP PUSH1 0x40 SWAP1 SWAP7 ADD CALLDATALOAD SWAP6 SWAP5 POP POP POP POP POP JUMP JUMPDEST PUSH1 0x0 PUSH1 0x20 DUP3 DUP5 SUB SLT ISZERO PUSH2 0x59BD JUMPI DUP1 DUP2 REVERT JUMPDEST POP CALLDATALOAD SWAP2 SWAP1 POP JUMP JUMPDEST PUSH1 0x0 DUP1 PUSH1 0x40 DUP4 DUP6 SUB SLT ISZERO PUSH2 0x59D6 JUMPI DUP2 DUP3 REVERT JUMPDEST POP POP DUP1 CALLDATALOAD SWAP3 PUSH1 0x20 SWAP1 SWAP2 ADD CALLDATALOAD SWAP2 POP JUMP JUMPDEST PUSH1 0x0 DUP2 MLOAD DUP1 DUP5 MSTORE PUSH1 0x20 DUP1 DUP6 ADD SWAP5 POP DUP1 DUP5 ADD DUP4 JUMPDEST DUP4 DUP2 LT ISZERO PUSH2 0x5A14 JUMPI DUP2 MLOAD DUP8 MSTORE SWAP6 DUP3 ADD SWAP6 SWAP1 DUP3 ADD SWAP1 PUSH1 0x1 ADD PUSH2 0x59F8 JUMP JUMPDEST POP SWAP5 SWAP6 SWAP5 POP POP POP POP POP JUMP JUMPDEST PUSH1 0x3 DUP2 LT PUSH2 0x5A29 JUMPI INVALID JUMPDEST SWAP1 MSTORE JUMP JUMPDEST PUSH2 0x5A38 DUP3 DUP3 MLOAD PUSH2 0x5AB2 JUMP JUMPDEST PUSH1 0x20 DUP2 ADD MLOAD PUSH2 0x5A4A PUSH1 0x40 DUP5 ADD DUP3 PUSH2 0x5AB2 JUMP JUMPDEST POP PUSH1 0x40 DUP2 ADD MLOAD PUSH1 0x80 DUP4 ADD MSTORE PUSH1 0x60 DUP2 ADD MLOAD PUSH1 0xA0 DUP4 ADD MSTORE PUSH1 0x80 DUP2 ADD MLOAD PUSH1 0xC0 DUP4 ADD MSTORE PUSH1 0xA0 DUP2 ADD MLOAD PUSH1 0xE0 DUP4 ADD MSTORE PUSH1 0xC0 DUP2 ADD MLOAD PUSH2 0x100 DUP4 ADD MSTORE POP POP JUMP JUMPDEST DUP1 MLOAD DUP3 MSTORE PUSH1 0x20 DUP2 ADD MLOAD PUSH1 0x20 DUP4 ADD MSTORE PUSH1 0x40 DUP2 ADD MLOAD PUSH1 0x40 DUP4 ADD MSTORE PUSH1 0x60 DUP2 ADD MLOAD PUSH1 0x60 DUP4 ADD MSTORE PUSH1 0x80 DUP2 ADD MLOAD PUSH1 0x80 DUP4 ADD MSTORE POP POP JUMP JUMPDEST DUP1 MLOAD DUP3 MSTORE PUSH1 0x20 SWAP1 DUP2 ADD MLOAD SWAP2 ADD MSTORE JUMP JUMPDEST PUSH1 0x0 DUP3 DUP5 DUP4 CALLDATACOPY SWAP2 ADD SWAP1 DUP2 MSTORE SWAP2 SWAP1 POP JUMP JUMPDEST PUSH1 0x1 PUSH1 0x1 PUSH1 0xA0 SHL SUB SWAP2 SWAP1 SWAP2 AND DUP2 MSTORE PUSH1 0x20 ADD SWAP1 JUMP JUMPDEST PUSH1 0x20 DUP1 DUP3 MSTORE DUP3 MLOAD DUP3 DUP3 ADD DUP2 SWAP1 MSTORE PUSH1 0x0 SWAP2 SWAP1 DUP5 DUP3 ADD SWAP1 PUSH1 0x40 DUP6 ADD SWAP1 DUP5 JUMPDEST DUP2 DUP2 LT ISZERO PUSH2 0x5B1D JUMPI DUP4 MLOAD DUP4 MSTORE SWAP3 DUP5 ADD SWAP3 SWAP2 DUP5 ADD SWAP2 PUSH1 0x1 ADD PUSH2 0x5B01 JUMP JUMPDEST POP SWAP1 SWAP7 SWAP6 POP POP POP POP POP POP JUMP JUMPDEST PUSH1 0x0 PUSH1 0x20 DUP3 MSTORE PUSH2 0xB6B PUSH1 0x20 DUP4 ADD DUP5 PUSH2 0x59E5 JUMP JUMPDEST PUSH1 0x0 PUSH1 0x40 DUP3 MSTORE PUSH2 0x5B4F PUSH1 0x40 DUP4 ADD DUP6 PUSH2 0x59E5 JUMP JUMPDEST DUP3 DUP2 SUB PUSH1 0x20 DUP5 ADD MSTORE PUSH2 0x5B61 DUP2 DUP6 PUSH2 0x59E5 JUMP JUMPDEST SWAP6 SWAP5 POP POP POP POP POP JUMP JUMPDEST PUSH1 0x0 PUSH2 0x1E0 DUP1 DUP4 MSTORE PUSH2 0x5B7E DUP2 DUP5 ADD DUP8 PUSH2 0x59E5 JUMP JUMPDEST SWAP2 POP POP PUSH2 0x5B8E PUSH1 0x20 DUP4 ADD DUP6 PUSH2 0x5A82 JUMP JUMPDEST PUSH2 0x29F1 PUSH1 0xC0 DUP4 ADD DUP5 PUSH2 0x5A2D JUMP JUMPDEST PUSH1 0x0 PUSH2 0x200 DUP1 DUP4 MSTORE PUSH2 0x5BAF DUP2 DUP5 ADD DUP9 PUSH2 0x59E5 JUMP JUMPDEST SWAP2 POP POP PUSH2 0x5BBF PUSH1 0x20 DUP4 ADD DUP7 PUSH2 0x5A82 JUMP JUMPDEST PUSH2 0x5BCC PUSH1 0xC0 DUP4 ADD DUP6 PUSH2 0x5A2D JUMP JUMPDEST DUP3 PUSH2 0x1E0 DUP4 ADD MSTORE SWAP6 SWAP5 POP POP POP POP POP JUMP JUMPDEST PUSH1 0x0 PUSH1 0x80 DUP3 MSTORE PUSH2 0x5BEF PUSH1 0x80 DUP4 ADD DUP7 PUSH2 0x59E5 JUMP JUMPDEST SWAP1 POP PUSH2 0x5BFE PUSH1 0x20 DUP4 ADD DUP6 PUSH2 0x5AB2 JUMP JUMPDEST DUP3 PUSH1 0x60 DUP4 ADD MSTORE SWAP5 SWAP4 POP POP POP POP JUMP JUMPDEST PUSH1 0x0 PUSH2 0x260 DUP1 DUP4 MSTORE PUSH2 0x5C20 DUP2 DUP5 ADD DUP11 PUSH2 0x59E5 JUMP JUMPDEST SWAP2 POP POP DUP7 PUSH1 0x20 DUP4 ADD MSTORE DUP6 ISZERO ISZERO PUSH1 0x40 DUP4 ADD MSTORE PUSH2 0x5C3E PUSH1 0x60 DUP4 ADD DUP7 PUSH2 0x5A82 JUMP JUMPDEST PUSH2 0x5C4C PUSH2 0x100 DUP4 ADD DUP6 PUSH2 0x5A2D JUMP JUMPDEST PUSH2 0x23B7 PUSH2 0x220 DUP4 ADD DUP5 PUSH2 0x5AB2 JUMP JUMPDEST SWAP1 ISZERO ISZERO DUP2 MSTORE PUSH1 0x20 ADD SWAP1 JUMP JUMPDEST SWAP3 ISZERO ISZERO DUP4 MSTORE PUSH1 0x20 DUP4 ADD SWAP2 SWAP1 SWAP2 MSTORE PUSH1 0x40 DUP3 ADD MSTORE PUSH1 0x60 ADD SWAP1 JUMP JUMPDEST SWAP1 DUP2 MSTORE PUSH1 0x20 ADD SWAP1 JUMP JUMPDEST SWAP7 DUP8 MSTORE PUSH1 0x20 DUP8 ADD SWAP6 SWAP1 SWAP6 MSTORE PUSH1 0x40 DUP7 ADD SWAP4 SWAP1 SWAP4 MSTORE PUSH1 0x60 DUP6 ADD SWAP2 SWAP1 SWAP2 MSTORE PUSH1 0x80 DUP5 ADD MSTORE PUSH1 0xA0 DUP4 ADD MSTORE PUSH1 0xC0 DUP3 ADD MSTORE PUSH1 0xE0 ADD SWAP1 JUMP JUMPDEST SWAP6 DUP7 MSTORE PUSH1 0x20 DUP7 ADD SWAP5 SWAP1 SWAP5 MSTORE PUSH1 0x40 DUP6 ADD SWAP3 SWAP1 SWAP3 MSTORE PUSH1 0x60 DUP5 ADD MSTORE ISZERO ISZERO PUSH1 0x80 DUP4 ADD MSTORE PUSH1 0xA0 DUP3 ADD MSTORE PUSH1 0xC0 ADD SWAP1 JUMP JUMPDEST DUP4 DUP2 MSTORE PUSH1 0x60 DUP2 ADD PUSH2 0x5CF4 PUSH1 0x20 DUP4 ADD DUP6 PUSH2 0x5A1F JUMP JUMPDEST DUP3 PUSH1 0x40 DUP4 ADD MSTORE SWAP5 SWAP4 POP POP POP POP JUMP JUMPDEST DUP5 DUP2 MSTORE PUSH1 0x80 DUP2 ADD PUSH2 0x5D16 PUSH1 0x20 DUP4 ADD DUP7 PUSH2 0x5A1F JUMP JUMPDEST PUSH1 0x40 DUP3 ADD SWAP4 SWAP1 SWAP4 MSTORE PUSH1 0x60 ADD MSTORE SWAP3 SWAP2 POP POP JUMP JUMPDEST PUSH1 0x0 PUSH1 0xA0 DUP3 ADD SWAP1 POP DUP5 DUP3 MSTORE PUSH2 0x5D41 PUSH1 0x20 DUP4 ADD DUP6 MLOAD PUSH2 0x5A1F JUMP JUMPDEST PUSH1 0x20 DUP5 ADD MLOAD PUSH1 0x40 DUP4 DUP2 ADD SWAP2 SWAP1 SWAP2 MSTORE SWAP1 SWAP4 ADD MLOAD PUSH1 0x60 DUP3 ADD MSTORE PUSH1 0x80 ADD MSTORE SWAP2 SWAP1 POP JUMP JUMPDEST PUSH1 0x0 PUSH1 0x20 DUP1 DUP4 MSTORE DUP4 MLOAD DUP1 DUP3 DUP6 ADD MSTORE DUP3 JUMPDEST DUP2 DUP2 LT ISZERO PUSH2 0x5D8D JUMPI DUP6 DUP2 ADD DUP4 ADD MLOAD DUP6 DUP3 ADD PUSH1 0x40 ADD MSTORE DUP3 ADD PUSH2 0x5D71 JUMP JUMPDEST DUP2 DUP2 GT ISZERO PUSH2 0x5D9E JUMPI DUP4 PUSH1 0x40 DUP4 DUP8 ADD ADD MSTORE JUMPDEST POP PUSH1 0x1F ADD PUSH1 0x1F NOT AND SWAP3 SWAP1 SWAP3 ADD PUSH1 0x40 ADD SWAP4 SWAP3 POP POP POP JUMP JUMPDEST DUP2 MLOAD ISZERO ISZERO DUP2 MSTORE PUSH1 0x20 DUP1 DUP4 ADD MLOAD PUSH1 0x1 PUSH1 0x1 PUSH1 0x78 SHL SUB AND SWAP1 DUP3 ADD MSTORE PUSH1 0x40 SWAP2 DUP3 ADD MLOAD PUSH1 0x1 PUSH1 0x1 PUSH1 0x80 SHL SUB AND SWAP2 DUP2 ADD SWAP2 SWAP1 SWAP2 MSTORE PUSH1 0x60 ADD SWAP1 JUMP JUMPDEST SWAP1 SLOAD PUSH1 0xFF DUP2 AND ISZERO ISZERO DUP3 MSTORE PUSH1 0x8 DUP2 SWAP1 SHR PUSH1 0x1 PUSH1 0x1 PUSH1 0x78 SHL SUB AND PUSH1 0x20 DUP4 ADD MSTORE PUSH1 0x80 SHR PUSH1 0x40 DUP3 ADD MSTORE PUSH1 0x60 ADD SWAP1 JUMP JUMPDEST PUSH2 0x1C0 DUP2 ADD PUSH2 0x5E23 DUP3 DUP6 PUSH2 0x5A82 JUMP JUMPDEST PUSH2 0x5E31 PUSH1 0xA0 DUP4 ADD DUP5 MLOAD PUSH2 0x5AB2 JUMP JUMPDEST PUSH1 0x20 DUP4 ADD MLOAD PUSH2 0x5E43 PUSH1 0xE0 DUP5 ADD DUP3 PUSH2 0x5AB2 JUMP JUMPDEST POP PUSH1 0x40 DUP4 ADD MLOAD PUSH2 0x120 DUP4 ADD MSTORE PUSH1 0x60 DUP4 ADD MLOAD PUSH2 0x140 DUP4 ADD MSTORE PUSH1 0x80 DUP4 ADD MLOAD PUSH2 0x160 DUP4 ADD MSTORE PUSH1 0xA0 DUP4 ADD MLOAD PUSH2 0x180 DUP4 ADD MSTORE PUSH1 0xC0 DUP4 ADD MLOAD PUSH2 0x1A0 DUP4 ADD MSTORE SWAP4 SWAP3 POP POP POP JUMP JUMPDEST PUSH1 0x0 DUP4 DUP3 MSTORE PUSH1 0x40 PUSH1 0x20 DUP4 ADD MSTORE PUSH2 0x29F1 PUSH1 0x40 DUP4 ADD DUP5 PUSH2 0x59E5 JUMP JUMPDEST SWAP2 DUP3 MSTORE PUSH1 0x20 DUP3 ADD MSTORE PUSH1 0x40 ADD SWAP1 JUMP JUMPDEST PUSH1 0xFF SWAP2 SWAP1 SWAP2 AND DUP2 MSTORE PUSH1 0x20 ADD SWAP1 JUMP JUMPDEST PUSH1 0x40 MLOAD DUP2 DUP2 ADD PUSH1 0x1 PUSH1 0x1 PUSH1 0x40 SHL SUB DUP2 GT DUP3 DUP3 LT OR ISZERO PUSH2 0x5ED2 JUMPI INVALID JUMPDEST PUSH1 0x40 MSTORE SWAP2 SWAP1 POP JUMP JUMPDEST PUSH1 0x0 PUSH1 0x1 PUSH1 0x1 PUSH1 0x40 SHL SUB DUP3 GT ISZERO PUSH2 0x5EED JUMPI INVALID JUMPDEST POP PUSH1 0x20 SWAP1 DUP2 MUL ADD SWAP1 JUMP JUMPDEST PUSH1 0x1 PUSH1 0x1 PUSH1 0xA0 SHL SUB DUP2 AND DUP2 EQ PUSH2 0x95F JUMPI PUSH1 0x0 DUP1 REVERT INVALID MSTORE8 PUSH2 0x6665 NUMBER PUSH2 0x7374 GASPRICE KECCAK256 PUSH23 0x616C756520646F65736E27742066697420696E20616E20 PUSH10 0x6E74323536A264697066 PUSH20 0x582212206DF1C08E7C48068FDC68021E16EA0458 BLOCKHASH DELEGATECALL 0xD1 0xF 0xE7 SWAP11 BYTE CALLDATALOAD 0x4C SWAP9 SWAP15 PUSH26 0x174715E664736F6C634300070600330000000000000000000000 ","sha1":"68c22576bbadeb9db381199ba083edc13568cc45","source":"// SPDX-License-Identifier: GPL-3.0-or-later\n// This program is free software: you can redistribute it and/or modify\n// it under the terms of the GNU General Public License as published by\n// the Free Software Foundation, either version 3 of the License, or\n// (at your option) any later version.\n\n// This program is distributed in the hope that it will be useful,\n// but WITHOUT ANY WARRANTY; without even the implied warranty of\n// MERCHANTABILITY or FITNESS FOR A PARTICULAR PURPOSE.  See the\n// GNU General Public License for more details.\n\n// You should have received a copy of the GNU General Public License\n// along with this program.  If not, see <http://www.gnu.org/licenses/>.\n\npragma solidity 0.7.6;\npragma experimental ABIEncoderV2;\n\n// import \"@balancer-labs/v2-solidity-utils/contracts/math/FixedPoint.sol\";\nimport \"../../libraries/GyroFixedPoint.sol\";\n\nimport \"@balancer-labs/v2-pool-weighted/contracts/WeightedPoolUserDataHelpers.sol\";\nimport \"@balancer-labs/v2-pool-weighted/contracts/WeightedPool2TokensMiscData.sol\";\n\nimport \"../../libraries/GyroConfigKeys.sol\";\nimport \"../../libraries/GyroErrors.sol\";\nimport \"../../interfaces/IGyroConfig.sol\";\nimport \"../../libraries/GyroPoolMath.sol\";\n\nimport \"../ExtensibleWeightedPool2Tokens.sol\";\nimport \"./GyroECLPMath.sol\";\nimport \"./GyroECLPOracleMath.sol\";\nimport \"../CappedLiquidity.sol\";\nimport \"../LocallyPausable.sol\";\n\ncontract GyroECLPPool is ExtensibleWeightedPool2Tokens, CappedLiquidity, LocallyPausable {\n    using GyroFixedPoint for uint256;\n    using WeightedPoolUserDataHelpers for bytes;\n    using WeightedPool2TokensMiscData for bytes32;\n    using SafeCast for int256;\n    using SafeCast for uint256;\n\n    uint256 private constant _MINIMUM_BPT = 1e6;\n\n    /// @notice Parameters of the ECLP pool\n    int256 public immutable _paramsAlpha;\n    int256 public immutable _paramsBeta;\n    int256 public immutable _paramsC;\n    int256 public immutable _paramsS;\n    int256 public immutable _paramsLambda;\n    int256 public immutable _tauAlphaX;\n    int256 public immutable _tauAlphaY;\n    int256 public immutable _tauBetaX;\n    int256 public immutable _tauBetaY;\n    int256 public immutable _u;\n    int256 public immutable _v;\n    int256 public immutable _w;\n    int256 public immutable _z;\n    int256 public immutable _dSq;\n\n    IGyroConfig public gyroConfig;\n\n    struct GyroParams {\n        NewPoolParams baseParams;\n        GyroECLPMath.Params eclpParams;\n        GyroECLPMath.DerivedParams derivedEclpParams;\n        address capManager;\n        CapParams capParams;\n        address pauseManager;\n    }\n\n    event ECLPParamsValidated(bool paramsValidated);\n    event ECLPDerivedParamsValidated(bool derivedParamsValidated);\n\n    event InvariantAterInitializeJoin(uint256 invariantAfterJoin);\n    event InvariantOldAndNew(uint256 oldInvariant, uint256 newInvariant);\n\n    event SwapParams(uint256[] balances, GyroECLPMath.Vector2 invariant, uint256 amount);\n\n    event OracleIndexUpdated(uint256 oracleUpdatedIndex);\n\n    constructor(GyroParams memory params, address configAddress)\n        ExtensibleWeightedPool2Tokens(params.baseParams)\n        CappedLiquidity(params.capManager, params.capParams)\n        LocallyPausable(params.pauseManager)\n    {\n        _grequire(configAddress != address(0x0), GyroECLPPoolErrors.ADDRESS_IS_ZERO_ADDRESS);\n\n        GyroECLPMath.validateParams(params.eclpParams);\n        emit ECLPParamsValidated(true);\n\n        GyroECLPMath.validateDerivedParamsLimits(params.eclpParams, params.derivedEclpParams);\n        emit ECLPDerivedParamsValidated(true);\n\n        (_paramsAlpha, _paramsBeta, _paramsC, _paramsS, _paramsLambda) = (\n            params.eclpParams.alpha,\n            params.eclpParams.beta,\n            params.eclpParams.c,\n            params.eclpParams.s,\n            params.eclpParams.lambda\n        );\n\n        (_tauAlphaX, _tauAlphaY, _tauBetaX, _tauBetaY, _u, _v, _w, _z, _dSq) = (\n            params.derivedEclpParams.tauAlpha.x,\n            params.derivedEclpParams.tauAlpha.y,\n            params.derivedEclpParams.tauBeta.x,\n            params.derivedEclpParams.tauBeta.y,\n            params.derivedEclpParams.u,\n            params.derivedEclpParams.v,\n            params.derivedEclpParams.w,\n            params.derivedEclpParams.z,\n            params.derivedEclpParams.dSq\n        );\n\n        gyroConfig = IGyroConfig(configAddress);\n    }\n\n    /** @dev reconstructs ECLP params structs from immutable arrays */\n    function reconstructECLPParams() internal view returns (GyroECLPMath.Params memory params, GyroECLPMath.DerivedParams memory d) {\n        (params.alpha, params.beta, params.c, params.s, params.lambda) = (_paramsAlpha, _paramsBeta, _paramsC, _paramsS, _paramsLambda);\n        (d.tauAlpha.x, d.tauAlpha.y, d.tauBeta.x, d.tauBeta.y) = (_tauAlphaX, _tauAlphaY, _tauBetaX, _tauBetaY);\n        (d.u, d.v, d.w, d.z, d.dSq) = (_u, _v, _w, _z, _dSq);\n    }\n\n    function getECLPParams() external view returns (GyroECLPMath.Params memory params, GyroECLPMath.DerivedParams memory d) {\n        return reconstructECLPParams();\n    }\n\n    /**\n     * @dev Returns the current value of the invariant.\n     */\n    // TODO WIP killing this routine to pipe DerivedParams through differently.\n    //    function getInvariant() public view override returns (int256) {\n    //        (, uint256[] memory balances, ) = getVault().getPoolTokens(getPoolId());\n    //\n    //        // Since the Pool hooks always work with upscaled balances, we manually\n    //        // upscale here for consistency\n    //        _upscaleArray(balances);\n    //\n    //        return GyroECLPMath.calculateInvariant(balances, eclpParams, derived);\n    //    }\n\n    // Swap Hooks\n\n    function onSwap(\n        SwapRequest memory request,\n        uint256 balanceTokenIn,\n        uint256 balanceTokenOut\n    ) public virtual override whenNotPaused onlyVault(request.poolId) returns (uint256) {\n        bool tokenInIsToken0;\n\n        if (request.tokenIn == _token0 && request.tokenOut == _token1) {\n            tokenInIsToken0 = true;\n        } else if (request.tokenIn == _token1 && request.tokenOut == _token0) {\n            tokenInIsToken0 = false;\n        } else {\n            _revert(GyroECLPPoolErrors.TOKEN_IN_IS_NOT_TOKEN_0);\n        }\n\n        uint256 scalingFactorTokenIn = _scalingFactor(tokenInIsToken0);\n        uint256 scalingFactorTokenOut = _scalingFactor(!tokenInIsToken0);\n\n        // All token amounts are upscaled.\n        balanceTokenIn = _upscale(balanceTokenIn, scalingFactorTokenIn);\n        balanceTokenOut = _upscale(balanceTokenOut, scalingFactorTokenOut);\n\n        // We \"undo\" the pre-processing that the caller of onSwap() did: In contrast to other pools, we don't exploit\n        // symmetry here, and we identify the two tokens explicitly.\n        uint256[] memory balances = _balancesFromTokenInOut(balanceTokenIn, balanceTokenOut, tokenInIsToken0);\n\n        (GyroECLPMath.Params memory eclpParams, GyroECLPMath.DerivedParams memory derivedECLPParams) = reconstructECLPParams();\n        GyroECLPMath.Vector2 memory invariant;\n        {\n            (int256 currentInvariant, int256 invErr) = GyroECLPMath.calculateInvariantWithError(balances, eclpParams, derivedECLPParams);\n            // invariant = overestimate in x-component, underestimate in y-component\n            // No overflow in `+` due to constraints to the different values enforced in GyroECLPMath.\n            invariant = GyroECLPMath.Vector2(currentInvariant + 2 * invErr, currentInvariant);\n\n            // Update price oracle with the pre-swap balances. Vs other pools, we need to do this after invariant is calculated\n            _updateOracle(request.lastChangeBlock, balances, currentInvariant.toUint256(), eclpParams, derivedECLPParams);\n        }\n\n        if (request.kind == IVault.SwapKind.GIVEN_IN) {\n            // Fees are subtracted before scaling, to reduce the complexity of the rounding direction analysis.\n            // This is amount - fee amount, so we round up (favoring a higher fee amount).\n            uint256 feeAmount = request.amount.mulUp(getSwapFeePercentage());\n            request.amount = _upscale(request.amount.sub(feeAmount), scalingFactorTokenIn);\n\n            uint256 amountOut = _onSwapGivenIn(request, balances, tokenInIsToken0, eclpParams, derivedECLPParams, invariant);\n\n            emit SwapParams(balances, invariant, amountOut);\n\n            // amountOut tokens are exiting the Pool, so we round down.\n            return _downscaleDown(amountOut, scalingFactorTokenOut);\n        } else {\n            request.amount = _upscale(request.amount, scalingFactorTokenOut);\n\n            uint256 amountIn = _onSwapGivenOut(request, balances, tokenInIsToken0, eclpParams, derivedECLPParams, invariant);\n\n            emit SwapParams(balances, invariant, amountIn);\n\n            // amountIn tokens are entering the Pool, so we round up.\n            amountIn = _downscaleUp(amountIn, scalingFactorTokenIn);\n\n            // Fees are added after scaling happens, to reduce the complexity of the rounding direction analysis.\n            // This is amount + fee amount, so we round up (favoring a higher fee amount).\n            return amountIn.divUp(getSwapFeePercentage().complement());\n        }\n    }\n\n    function _onSwapGivenIn(\n        SwapRequest memory swapRequest,\n        uint256[] memory balances,\n        bool tokenInIsToken0,\n        GyroECLPMath.Params memory eclpParams,\n        GyroECLPMath.DerivedParams memory derivedECLPParams,\n        GyroECLPMath.Vector2 memory invariant\n    ) private pure returns (uint256) {\n        // Swaps are disabled while the contract is paused.\n        return GyroECLPMath.calcOutGivenIn(balances, swapRequest.amount, tokenInIsToken0, eclpParams, derivedECLPParams, invariant);\n    }\n\n    function _onSwapGivenOut(\n        SwapRequest memory swapRequest,\n        uint256[] memory balances,\n        bool tokenInIsToken0,\n        GyroECLPMath.Params memory eclpParams,\n        GyroECLPMath.DerivedParams memory derivedECLPParams,\n        GyroECLPMath.Vector2 memory invariant\n    ) private pure returns (uint256) {\n        // Swaps are disabled while the contract is paused.\n        return GyroECLPMath.calcInGivenOut(balances, swapRequest.amount, tokenInIsToken0, eclpParams, derivedECLPParams, invariant);\n    }\n\n    /**\n     * @dev Called when the Pool is joined for the first time; that is, when the BPT total supply is zero.\n     *\n     * Returns the amount of BPT to mint, and the token amounts the Pool will receive in return.\n     *\n     * Minted BPT will be sent to `recipient`, except for _MINIMUM_BPT, which will be deducted from this amount and sent\n     * to the zero address instead. This will cause that BPT to remain forever locked there, preventing total BTP from\n     * ever dropping below that value, and ensuring `_onInitializePool` can only be called once in the entire Pool's\n     * lifetime.\n     *\n     * The tokens granted to the Pool will be transferred from `sender`. These amounts are considered upscaled and will\n     * be downscaled (rounding up) before being returned to the Vault.\n     */\n    function _onInitializePool(\n        bytes32,\n        address,\n        address,\n        bytes memory userData\n    ) internal override returns (uint256, uint256[] memory) {\n        BaseWeightedPool.JoinKind kind = userData.joinKind();\n        _require(kind == BaseWeightedPool.JoinKind.INIT, Errors.UNINITIALIZED);\n\n        uint256[] memory amountsIn = userData.initialAmountsIn();\n        InputHelpers.ensureInputLengthMatch(amountsIn.length, 2);\n        _upscaleArray(amountsIn);\n\n        (GyroECLPMath.Params memory eclpParams, GyroECLPMath.DerivedParams memory derivedECLPParams) = reconstructECLPParams();\n        uint256 invariantAfterJoin = GyroECLPMath.calculateInvariant(amountsIn, eclpParams, derivedECLPParams);\n\n        emit InvariantAterInitializeJoin(invariantAfterJoin);\n\n        // Set the initial BPT to the value of the invariant times the number of tokens. This makes BPT supply more\n        // consistent in Pools with similar compositions but different number of tokens.\n\n        uint256 bptAmountOut = Math.mul(invariantAfterJoin, 2);\n\n        _lastInvariant = invariantAfterJoin;\n\n        return (bptAmountOut, amountsIn);\n    }\n\n    /**\n     * @dev Called whenever the Pool is joined after the first initialization join (see `_onInitializePool`).\n     *\n     * Returns the amount of BPT to mint, the token amounts that the Pool will receive in return, and the number of\n     * tokens to pay in protocol swap fees.\n     *\n     * Implementations of this function might choose to mutate the `balances` array to save gas (e.g. when\n     * performing intermediate calculations, such as subtraction of due protocol fees). This can be done safely.\n     *\n     * Minted BPT will be sent to `recipient`.\n     *\n     * The tokens granted to the Pool will be transferred from `sender`. These amounts are considered upscaled and will\n     * be downscaled (rounding up) before being returned to the Vault.\n     *\n     * Due protocol swap fees will be taken from the Pool's balance in the Vault (see `IBasePool.onJoinPool`). These\n     * amounts are considered upscaled and will be downscaled (rounding down) before being returned to the Vault.\n     *\n     * protocolSwapFeePercentage argument is intentionally unused as protocol fees are handled in a different way\n     */\n    function _onJoinPool(\n        bytes32,\n        address,\n        address recipient,\n        uint256[] memory balances,\n        uint256 lastChangeBlock,\n        uint256, //protocolSwapFeePercentage,\n        bytes memory userData\n    )\n        internal\n        override\n        returns (\n            uint256,\n            uint256[] memory,\n            uint256[] memory\n        )\n    {\n        // Due protocol swap fee amounts are computed by measuring the growth of the invariant between the previous join\n        // or exit event and now - the invariant's growth is due exclusively to swap fees. This avoids spending gas\n        // computing them on each individual swap\n        (GyroECLPMath.Params memory eclpParams, GyroECLPMath.DerivedParams memory derivedECLPParams) = reconstructECLPParams();\n        uint256 invariantBeforeAction = GyroECLPMath.calculateInvariant(balances, eclpParams, derivedECLPParams);\n\n        // Update price oracle with the pre-exit balances. Vs other pools, we need to do this after invariant is calculated\n        _updateOracle(lastChangeBlock, balances, invariantBeforeAction, eclpParams, derivedECLPParams);\n\n        _distributeFees(invariantBeforeAction);\n\n        (uint256 bptAmountOut, uint256[] memory amountsIn) = _doJoin(balances, userData);\n\n        if (_capParams.capEnabled) {\n            _ensureCap(bptAmountOut, balanceOf(recipient), totalSupply());\n        }\n\n        // Since we pay fees in BPT, they have not changed the invariant and 'invariantBeforeAction' is still consistent with\n        // 'balances'. Therefore, we can use a simplified method to update the invariant that does not require a full\n        // re-computation.\n        // Note: Should this be changed in the future, we also need to reduce the invariant proportionally by the total\n        // protocol fee factor.\n        _lastInvariant = GyroPoolMath.liquidityInvariantUpdate(invariantBeforeAction, bptAmountOut, totalSupply(), true);\n\n        emit InvariantOldAndNew(invariantBeforeAction, _lastInvariant);\n\n        // returns a new uint256[](2) b/c Balancer vault is expecting a fee array, but fees paid in BPT instead\n        return (bptAmountOut, amountsIn, new uint256[](2));\n    }\n\n    function _doJoin(uint256[] memory balances, bytes memory userData) internal view returns (uint256 bptAmountOut, uint256[] memory amountsIn) {\n        BaseWeightedPool.JoinKind kind = userData.joinKind();\n\n        // We do NOT currently support unbalanced update, i.e., EXACT_TOKENS_IN_FOR_BPT_OUT or TOKEN_IN_FOR_EXACT_BPT_OUT\n        if (kind == BaseWeightedPool.JoinKind.ALL_TOKENS_IN_FOR_EXACT_BPT_OUT) {\n            (bptAmountOut, amountsIn) = _joinAllTokensInForExactBPTOut(balances, userData);\n        } else {\n            _revert(Errors.UNHANDLED_JOIN_KIND);\n        }\n    }\n\n    function _joinAllTokensInForExactBPTOut(uint256[] memory balances, bytes memory userData)\n        internal\n        view\n        override\n        returns (uint256, uint256[] memory)\n    {\n        uint256 bptAmountOut = userData.allTokensInForExactBptOut();\n        // Note that there is no maximum amountsIn parameter: this is handled by `IVault.joinPool`.\n\n        uint256[] memory amountsIn = GyroPoolMath._calcAllTokensInGivenExactBptOut(balances, bptAmountOut, totalSupply());\n\n        return (bptAmountOut, amountsIn);\n    }\n\n    /**\n     * @dev Called whenever the Pool is exited.\n     *\n     * Returns the amount of BPT to burn, the token amounts for each Pool token that the Pool will grant in return, and\n     * the number of tokens to pay in protocol swap fees.\n     *\n     * Implementations of this function might choose to mutate the `balances` array to save gas (e.g. when\n     * performing intermediate calculations, such as subtraction of due protocol fees). This can be done safely.\n     *\n     * BPT will be burnt from `sender`.\n     *\n     * The Pool will grant tokens to `recipient`. These amounts are considered upscaled and will be downscaled\n     * (rounding down) before being returned to the Vault.\n     *\n     * Due protocol swap fees will be taken from the Pool's balance in the Vault (see `IBasePool.onExitPool`). These\n     * amounts are considered upscaled and will be downscaled (rounding down) before being returned to the Vault.\n     *\n     * protocolSwapFeePercentage argument is intentionally unused as protocol fees are handled in a different way\n     */\n    function _onExitPool(\n        bytes32,\n        address,\n        address,\n        uint256[] memory balances,\n        uint256 lastChangeBlock,\n        uint256, // protocolSwapFeePercentage,\n        bytes memory userData\n    )\n        internal\n        override\n        returns (\n            uint256 bptAmountIn,\n            uint256[] memory amountsOut,\n            uint256[] memory dueProtocolFeeAmounts\n        )\n    {\n        // Exits are not completely disabled while the contract is paused: proportional exits (exact BPT in for tokens\n        // out) remain functional.\n        (GyroECLPMath.Params memory eclpParams, GyroECLPMath.DerivedParams memory derivedECLPParams) = reconstructECLPParams();\n\n        // Note: If the contract is paused, swap protocol fee amounts are not charged and the oracle is not updated\n        // to avoid extra calculations and reduce the potential for errors.\n        if (_isNotPaused()) {\n            // Due protocol swap fee amounts are computed by measuring the growth of the invariant between the previous\n            // join or exit event and now - the invariant's growth is due exclusively to swap fees. This avoids\n            // spending gas calculating the fees on each individual swap.\n            uint256 invariantBeforeAction = GyroECLPMath.calculateInvariant(balances, eclpParams, derivedECLPParams);\n\n            // Update price oracle with the pre-exit balances. Vs other pools, we need to do this after invariant is calculated\n            _updateOracle(lastChangeBlock, balances, invariantBeforeAction, eclpParams, derivedECLPParams);\n\n            _distributeFees(invariantBeforeAction);\n\n            (bptAmountIn, amountsOut) = _doExit(balances, userData);\n\n            // Since we pay fees in BPT, they have not changed the invariant and 'invariantBeforeAction' is still consistent with\n            // 'balances'. Therefore, we can use a simplified method to update the invariant that does not require a full\n            // re-computation.\n            // Note: Should this be changed in the future, we also need to reduce the invariant proportionally by the total\n            // protocol fee factor.\n            _lastInvariant = GyroPoolMath.liquidityInvariantUpdate(invariantBeforeAction, bptAmountIn, totalSupply(), false);\n\n            emit InvariantOldAndNew(invariantBeforeAction, _lastInvariant);\n        } else {\n            // Note: If the contract is paused, swap protocol fee amounts are not charged and the oracle is not updated\n            // to avoid extra calculations and reduce the potential for errors.\n            (bptAmountIn, amountsOut) = _doExit(balances, userData);\n\n            // Invalidate _lastInvariant. We do not compute the invariant to make sure the pool is not locking\n            // up b/c numerical limits might be violated. Instead, we set the invariant such that any following\n            // (non-paused) join/exit will ignore and recompute it. (see GyroPoolMath._calcProtocolFees())\n            _lastInvariant = type(uint256).max;\n        }\n\n        // returns a new uint256[](2) b/c Balancer vault is expecting a fee array, but fees paid in BPT instead\n        return (bptAmountIn, amountsOut, new uint256[](2));\n    }\n\n    function _doExit(uint256[] memory balances, bytes memory userData) internal view returns (uint256 bptAmountIn, uint256[] memory amountsOut) {\n        BaseWeightedPool.ExitKind kind = userData.exitKind();\n\n        // We do NOT support unbalanced exit at the moment, i.e., EXACT_BPT_IN_FOR_ONE_TOKEN_OUT or\n        // BPT_IN_FOR_EXACT_TOKENS_OUT.\n        if (kind == BaseWeightedPool.ExitKind.EXACT_BPT_IN_FOR_TOKENS_OUT) {\n            (bptAmountIn, amountsOut) = _exitExactBPTInForTokensOut(balances, userData);\n        } else {\n            _revert(Errors.UNHANDLED_EXIT_KIND);\n        }\n    }\n\n    function _exitExactBPTInForTokensOut(uint256[] memory balances, bytes memory userData)\n        internal\n        view\n        override\n        returns (uint256, uint256[] memory)\n    {\n        // This exit function is the only one that is not disabled if the contract is paused: it remains unrestricted\n        // in an attempt to provide users with a mechanism to retrieve their tokens in case of an emergency.\n        // This particular exit function is the only one that remains available because it is the simplest one, and\n        // therefore the one with the lowest likelihood of errors.\n\n        uint256 bptAmountIn = userData.exactBptInForTokensOut();\n        // Note that there is no minimum amountOut parameter: this is handled by `IVault.exitPool`.\n\n        uint256[] memory amountsOut = GyroPoolMath._calcTokensOutGivenExactBptIn(balances, bptAmountIn, totalSupply());\n        return (bptAmountIn, amountsOut);\n    }\n\n    // Helpers.\n\n    function _balancesFromTokenInOut(\n        uint256 balanceTokenIn,\n        uint256 balanceTokenOut,\n        bool tokenInIsToken0\n    ) internal pure returns (uint256[] memory balances) {\n        balances = new uint256[](2);\n        if (tokenInIsToken0) {\n            balances[0] = balanceTokenIn;\n            balances[1] = balanceTokenOut;\n        } else {\n            balances[0] = balanceTokenOut;\n            balances[1] = balanceTokenIn;\n        }\n    }\n\n    /**\n     * @dev Updates the Price Oracle based on the Pool's current state (balances, BPT supply and invariant). Must be\n     * called on *all* state-changing functions with the balances *before* the state change happens, and with\n     * `lastChangeBlock` as the number of the block in which any of the balances last changed.\n     */\n    function _updateOracle(\n        uint256 lastChangeBlock,\n        uint256[] memory balances,\n        uint256 invariant,\n        GyroECLPMath.Params memory eclpParams,\n        GyroECLPMath.DerivedParams memory derivedECLPParams\n    ) internal {\n        bytes32 miscData = _miscData;\n        if (miscData.oracleEnabled() && block.number > lastChangeBlock) {\n            uint256 spotPrice = GyroECLPMath.calculatePrice(balances, eclpParams, derivedECLPParams, invariant.toInt256());\n\n            int256 logSpotPrice = GyroECLPOracleMath._calcLogSpotPrice(spotPrice);\n\n            // // can optionally log BPT spot price using this code. Instead, we log L/S\n            // int256 logBPTPrice = GyroECLPOracleMath._calcLogBPTPrice(\n            //     balances[0],\n            //     balances[1],\n            //     spotPrice,\n            //     miscData.logTotalSupply()\n            // );\n\n            int256 logInvariantDivSupply = GyroECLPOracleMath._calcLogInvariantDivSupply(invariant, miscData.logTotalSupply());\n\n            uint256 oracleCurrentIndex = miscData.oracleIndex();\n            uint256 oracleCurrentSampleInitialTimestamp = miscData.oracleSampleCreationTimestamp();\n            uint256 oracleUpdatedIndex = _processPriceData(\n                oracleCurrentSampleInitialTimestamp,\n                oracleCurrentIndex,\n                logSpotPrice,\n                logInvariantDivSupply, // replaces logBPTPrice\n                miscData.logInvariant()\n            );\n\n            if (oracleCurrentIndex != oracleUpdatedIndex) {\n                // solhint-disable not-rely-on-time\n                miscData = miscData.setOracleIndex(oracleUpdatedIndex);\n                miscData = miscData.setOracleSampleCreationTimestamp(block.timestamp);\n                _miscData = miscData;\n\n                emit OracleIndexUpdated(oracleUpdatedIndex);\n            }\n        }\n    }\n\n    // Override unused inherited function\n    // this intentionally does not revert so that it will be bypassed on onJoinPool inherited from ExtensibleWeightedPool2Tokens\n    // the above overloading implementation of _updateOracle takes different arguments and processes the oracle update in a different place\n    // Note: this is identical to the handling in Gyro2CLPPool.sol\n    function _updateOracle(\n        uint256,\n        uint256,\n        uint256\n    ) internal pure override {\n        // solhint-disable-previous-line no-empty-blocks\n        // Do nothing.\n    }\n\n    // Fee helpers. These are exactly the same as in the Gyro2CLPPool.\n    // TODO prob about time to make a base class.\n\n    /**\n     * Note: This function is identical to that used in Gyro2CLPPool.sol\n     * @dev Computes and distributes fees between the Balancer and the Gyro treasury\n     * The fees are computed and distributed in BPT rather than using the\n     * Balancer regular distribution mechanism which would pay these in underlying\n     */\n\n    function _distributeFees(uint256 invariantBeforeAction) internal {\n        // calculate Protocol fees in BPT\n        // lastInvariant is the invariant logged at the end of the last liquidity update\n        // protocol fees are calculated on swap fees earned between liquidity updates\n        (uint256 gyroFees, uint256 balancerFees, address gyroTreasury, address balTreasury) = _getDueProtocolFeeAmounts(\n            _lastInvariant,\n            invariantBeforeAction\n        );\n\n        // Pay fees in BPT\n        _payFeesBpt(gyroFees, balancerFees, gyroTreasury, balTreasury);\n    }\n\n    /**\n     * Note: This function is identical to that used in Gyro2CLPPool.sol\n     * @dev this function overrides inherited function to make sure it is never used\n     */\n    function _getDueProtocolFeeAmounts(\n        uint256[] memory, // balances,\n        uint256[] memory, // normalizedWeights,\n        uint256, // previousInvariant,\n        uint256, // currentInvariant,\n        uint256 // protocolSwapFeePercentage\n    ) internal pure override returns (uint256[] memory) {\n        revert(\"Not implemented\");\n    }\n\n    /**\n     * @dev\n     * Note: This function is identical to that used in Gyro2CLPPool.sol.\n     * Calculates protocol fee amounts in BPT terms.\n     * protocolSwapFeePercentage is not used here b/c we take parameters from GyroConfig instead.\n     * Returns: BPT due to Gyro, BPT due to Balancer, receiving address for Gyro fees, receiving address for Balancer\n     * fees.\n     */\n    function _getDueProtocolFeeAmounts(uint256 previousInvariant, uint256 currentInvariant)\n        internal\n        view\n        returns (\n            uint256,\n            uint256,\n            address,\n            address\n        )\n    {\n        (uint256 protocolSwapFeePerc, uint256 protocolFeeGyroPortion, address gyroTreasury, address balTreasury) = _getFeesMetadata();\n\n        // Early return if the protocol swap fee percentage is zero, saving gas.\n        if (protocolSwapFeePerc == 0) {\n            return (0, 0, gyroTreasury, balTreasury);\n        }\n\n        // Calculate fees in BPT\n        (uint256 gyroFees, uint256 balancerFees) = GyroPoolMath._calcProtocolFees(\n            previousInvariant,\n            currentInvariant,\n            totalSupply(),\n            protocolSwapFeePerc,\n            protocolFeeGyroPortion\n        );\n\n        return (gyroFees, balancerFees, gyroTreasury, balTreasury);\n    }\n\n    // Note: This function is identical to that used in Gyro2CLPPool.sol\n    function _payFeesBpt(\n        uint256 gyroFees,\n        uint256 balancerFees,\n        address gyroTreasury,\n        address balTreasury\n    ) internal {\n        // Pay fees in BPT to gyro treasury\n        if (gyroFees > 0) {\n            _mintPoolTokens(gyroTreasury, gyroFees);\n        }\n        // Pay fees in BPT to bal treasury\n        if (balancerFees > 0) {\n            _mintPoolTokens(balTreasury, balancerFees);\n        }\n    }\n\n    // Note: This function is identical to that used in Gyro2CLPPool.sol\n    function _getFeesMetadata()\n        internal\n        view\n        returns (\n            uint256,\n            uint256,\n            address,\n            address\n        )\n    {\n        return (\n            gyroConfig.getUint(GyroConfigKeys.PROTOCOL_SWAP_FEE_PERC_KEY),\n            gyroConfig.getUint(GyroConfigKeys.PROTOCOL_FEE_GYRO_PORTION_KEY),\n            gyroConfig.getAddress(GyroConfigKeys.GYRO_TREASURY_KEY),\n            gyroConfig.getAddress(GyroConfigKeys.BAL_TREASURY_KEY)\n        );\n    }\n\n    function _setPausedState(bool paused) internal override {\n        _setPaused(paused);\n    }\n}\n","sourcePath":"contracts/eclp/GyroECLPPool.sol","type":"contract","deployment":{"address":"0xE0711573a96806182C01Ef6C349948edc6635b04","chainid":"5","blockHeight":7933588}}