{"abi":[{"inputs":[{"internalType":"contract IVault","name":"vault","type":"address"},{"internalType":"address","name":"_gyroConfigAddress","type":"address"}],"stateMutability":"nonpayable","type":"constructor","name":"constructor"},{"anonymous":false,"inputs":[{"indexed":true,"internalType":"address","name":"pool","type":"address"}],"name":"PoolCreated","type":"event"},{"inputs":[],"name":"BUFFER_PERIOD_DURATION","outputs":[{"internalType":"uint256","name":"","type":"uint256"}],"stateMutability":"view","type":"function"},{"inputs":[],"name":"PAUSE_WINDOW_DURATION","outputs":[{"internalType":"uint256","name":"","type":"uint256"}],"stateMutability":"view","type":"function"},{"inputs":[{"internalType":"string","name":"name","type":"string"},{"internalType":"string","name":"symbol","type":"string"},{"internalType":"contract IERC20[]","name":"tokens","type":"address[]"},{"components":[{"internalType":"int256","name":"alpha","type":"int256"},{"internalType":"int256","name":"beta","type":"int256"},{"internalType":"int256","name":"c","type":"int256"},{"internalType":"int256","name":"s","type":"int256"},{"internalType":"int256","name":"lambda","type":"int256"}],"internalType":"struct GyroCEMMMath.Params","name":"cemmParams","type":"tuple"},{"components":[{"components":[{"internalType":"int256","name":"x","type":"int256"},{"internalType":"int256","name":"y","type":"int256"}],"internalType":"struct GyroCEMMMath.Vector2","name":"tauAlpha","type":"tuple"},{"components":[{"internalType":"int256","name":"x","type":"int256"},{"internalType":"int256","name":"y","type":"int256"}],"internalType":"struct GyroCEMMMath.Vector2","name":"tauBeta","type":"tuple"},{"internalType":"int256","name":"u","type":"int256"},{"internalType":"int256","name":"v","type":"int256"},{"internalType":"int256","name":"w","type":"int256"},{"internalType":"int256","name":"z","type":"int256"},{"internalType":"int256","name":"dSq","type":"int256"}],"internalType":"struct GyroCEMMMath.DerivedParams","name":"derivedCemmParams","type":"tuple"},{"internalType":"uint256","name":"swapFeePercentage","type":"uint256"},{"internalType":"bool","name":"oracleEnabled","type":"bool"},{"internalType":"address","name":"owner","type":"address"}],"name":"create","outputs":[{"internalType":"address","name":"","type":"address"}],"stateMutability":"nonpayable","type":"function"},{"inputs":[],"name":"getCreationCode","outputs":[{"internalType":"bytes","name":"","type":"bytes"}],"stateMutability":"view","type":"function"},{"inputs":[],"name":"getCreationCodeContracts","outputs":[{"internalType":"address","name":"contractA","type":"address"},{"internalType":"address","name":"contractB","type":"address"}],"stateMutability":"view","type":"function"},{"inputs":[],"name":"getPauseConfiguration","outputs":[{"internalType":"uint256","name":"pauseWindowDuration","type":"uint256"},{"internalType":"uint256","name":"bufferPeriodDuration","type":"uint256"}],"stateMutability":"view","type":"function"},{"inputs":[],"name":"getVault","outputs":[{"internalType":"contract IVault","name":"","type":"address"}],"stateMutability":"view","type":"function"},{"inputs":[],"name":"gyroConfigAddress","outputs":[{"internalType":"address","name":"","type":"address"}],"stateMutability":"view","type":"function"},{"inputs":[{"internalType":"address","name":"pool","type":"address"}],"name":"isPoolFromFactory","outputs":[{"internalType":"bool","name":"","type":"bool"}],"stateMutability":"view","type":"function"}],"bytecode":"6101606040523480156200001257600080fd5b50604051620077043803806200770483398101604081905262000035916200028a565b816040518060200162000048906200027c565b601f1982820381018352601f909101166040528051819060006002820460a081905280830360e081905281855290915083620000908162000139602090811b6200032017901c565b60601b6001600160601b0319166080528285018051838252620000bf8262000139602090811b6200032017901c565b6001600160601b0319606091821b811660c0529690935290529590951b90911661010052505050426276a700016101205250620001096001600160a01b038216151560696200018d565b620001216001600160a01b038316151560696200018d565b60601b6001600160601b0319166101405250620002de565b80517f602038038060206000396000f3fefefefefefefefefefefefefefefefefefefe808352600091602081018484f09084529150620001876001600160a01b03831615156101ac620001a2565b50919050565b816200019e576200019e81620001b3565b5050565b816200019e576200019e81620001c8565b620001c5816223aca960e91b6200021b565b50565b62461bcd60e51b6000908152602060045260076024526642414c23000030600a808404818106603090810160081b95839006959095019082900491820690940160101b939093010160c81b604452606490fd5b62461bcd60e51b600090815260206004526007602452600a808404818106603090810160081b958390069590950190829004918206850160101b01602363ffffff0060e086901c160160181b0190930160c81b60445260e882901c90606490fd5b6166f4806200101083390190565b600080604083850312156200029d578182fd5b8251620002aa81620002c8565b6020840151909250620002bd81620002c8565b809150509250929050565b6001600160a01b0381168114620001c557600080fd5b60805160601c60a05160c05160601c60e0516101005160601c610120516101405160601c610cbe620003526000398061016f52806102cd5250806101dd528061020652508061026c52508061037a5250806101b452806103f652508061039b52508061019352806103d25250610cbe6000f3fe608060405234801561001057600080fd5b50600436106100925760003560e01c806345be0bd41161006657806345be0bd4146100f65780636634b7531461010b5780638d928af81461012b578063d146468614610133578063d22189791461013b57610092565b8062c194db146100975780630bc7b4c4146100b5578063174481fa146100ca5780632da47c40146100e0575b600080fd5b61009f61014e565b6040516100ac9190610b17565b60405180910390f35b6100bd61016d565b6040516100ac9190610ade565b6100d2610191565b6040516100ac929190610af2565b6100e86101d7565b6040516100ac929190610c3e565b6100fe610241565b6040516100ac9190610c35565b61011e6101193660046108f9565b610248565b6040516100ac9190610b0c565b6100bd61026a565b6100fe61028e565b6100bd610149366004610915565b610295565b606061016860405180602001604052806000815250610372565b905090565b7f000000000000000000000000000000000000000000000000000000000000000081565b7f00000000000000000000000000000000000000000000000000000000000000007f00000000000000000000000000000000000000000000000000000000000000009091565b600080427f000000000000000000000000000000000000000000000000000000000000000081101561023357807f000000000000000000000000000000000000000000000000000000000000000003925062278d00915061023c565b60009250600091505b509091565b6276a70081565b6001600160a01b03811660009081526020819052604090205460ff165b919050565b7f000000000000000000000000000000000000000000000000000000000000000090565b62278d0081565b6000806102a68a8a8a88888861044b565b905060006040518060600160405280838152602001898152602001888152509050610311817f00000000000000000000000000000000000000000000000000000000000000006040516020016102fd929190610b2a565b604051602081830303815290604052610500565b9b9a5050505050505050505050565b80517f602038038060206000396000f3fefefefefefefefefefefefefefefefefefefe808352600091602081018484f0908452915061036c6001600160a01b03831615156101ac610560565b50919050565b8051604080517f00000000000000000000000000000000000000000000000000000000000000007f0000000000000000000000000000000000000000000000000000000000000000818101858101848101602090810190965280855293957f00000000000000000000000000000000000000000000000000000000000000009592947f000000000000000000000000000000000000000000000000000000000000000094938801866000828a3c846000888301883c506020898101908985010161043d818386610572565b505050505050505050919050565b61045361063d565b60405180610140016040528061046761026a565b6001600160a01b031681526020018881526020018781526020018660008151811061048e57fe5b60200260200101516001600160a01b03168152602001866001815181106104b157fe5b60200260200101516001600160a01b031681526020018581526020016276a700815260200162278d0081526020018415158152602001836001600160a01b031681525090509695505050505050565b60008061050c836105b0565b6001600160a01b038116600081815260208190526040808220805460ff191660011790555192935090917f83a48fbcfc991335314e74d0496aab6a1987e992ddc85dddbcc4d6dd6ef2e9fc9190a292915050565b8161056e5761056e816105ea565b5050565b5b60208110610592578151835260209283019290910190601f1901610573565b905182516020929092036101000a6000190180199091169116179052565b6000806105bc83610372565b905060008151602083016000f090506001600160a01b0381166105e3573d6000803e3d6000fd5b9392505050565b62461bcd60e51b6000908152602060045260076024526642414c23000030600a808404818106603090810160081b95839006959095019082900491820690940160101b939093010160c81b604452606490fd5b60405180610140016040528060006001600160a01b03168152602001606081526020016060815260200160006001600160a01b0316815260200160006001600160a01b0316815260200160008152602001600081526020016000815260200160001515815260200160006001600160a01b031681525090565b803561026581610c70565b600082601f8301126106d1578081fd5b8135602067ffffffffffffffff8211156106e757fe5b8082026106f5828201610c4c565b83815282810190868401838801850189101561070f578687fd5b8693505b8584101561073a57803561072681610c70565b835260019390930192918401918401610713565b50979650505050505050565b8035801515811461026557600080fd5b600082601f830112610766578081fd5b813567ffffffffffffffff81111561077a57fe5b61078d601f8201601f1916602001610c4c565b8181528460208386010111156107a1578283fd5b816020850160208301379081016020019190915292915050565b600061012082840312156107cd578081fd5b60405160e0810181811067ffffffffffffffff821117156107ea57fe5b6040529050806107fa84846108b1565b815261080984604085016108b1565b60208201526080830135604082015260a0830135606082015260c0830135608082015260e083013560a082015261010083013560c08201525092915050565b600060a08284031215610859578081fd5b60405160a0810181811067ffffffffffffffff8211171561087657fe5b806040525080915082358152602083013560208201526040830135604082015260608301356060820152608083013560808201525092915050565b6000604082840312156108c2578081fd5b6040516040810181811067ffffffffffffffff821117156108df57fe5b604052823581526020928301359281019290925250919050565b60006020828403121561090a578081fd5b81356105e381610c70565b600080600080600080600080610280898b031215610931578384fd5b883567ffffffffffffffff80821115610948578586fd5b6109548c838d01610756565b995060208b0135915080821115610969578586fd5b6109758c838d01610756565b985060408b013591508082111561098a578586fd5b506109978b828c016106c1565b9650506109a78a60608b01610848565b94506109b78a6101008b016107bb565b935061022089013592506109ce6102408a01610746565b91506109dd6102608a016106b6565b90509295985092959890939650565b6001600160a01b03169052565b15159052565b60008151808452815b81811015610a2457602081850181015186830182015201610a08565b81811115610a355782602083870101525b50601f01601f19169290920160200192915050565b610a55828251610acf565b6020810151610a676040840182610acf565b5060408101516080830152606081015160a0830152608081015160c083015260a081015160e083015260c08101516101008301525050565b80518252602081015160208301526040810151604083015260608101516060830152608081015160808301525050565b80518252602090810151910152565b6001600160a01b0391909116815260200190565b6001600160a01b0392831681529116602082015260400190565b901515815260200190565b6000602082526105e360208301846109ff565b60006040825283516101e06040840152610b49610220840182516109ec565b6020810151610140610240850152610b656103608501826109ff565b9050604082015161021f1985830301610260860152610b8482826109ff565b9150506060820151610b9a6102808601826109ec565b506080820151610bae6102a08601826109ec565b5060a08201516102c085015260c08201516102e085015260e082015161030085015261010080830151610be56103208701826109f9565b506101208301519250610bfc6103408601846109ec565b60208701519250610c106060860184610a9f565b60408701519250610c2381860184610a4a565b5091506105e3905060208301846109ec565b90815260200190565b918252602082015260400190565b60405181810167ffffffffffffffff81118282101715610c6857fe5b604052919050565b6001600160a01b0381168114610c8557600080fd5b5056fea26469706673582212203f35218800ce8b737d30d27445b71de20d00a8713d521ac6cae9d20598ee5acc64736f6c634300070600336104606040527f6e71edae12b1b97f4d1f60370fef10105fa2faae0126114a169c64845d6126c9610120526706f05b59d3b20000610200819052610220526000610240523480156200005057600080fd5b50604051620066f4380380620066f4833981016040819052620000739162000c43565b815160c081015160e08201516020808401516040808601518651825180840190935260018352603160f81b838601526101208801513360805260601b6001600160601b03191660a05283519394919390928592839283918791620000de916003919085019062000987565b508051620000f490600490602084019062000987565b505060058054601260ff1990911617905550815160209283012060c052805191012060e052507f8b73c3c69bb8fe3d512ecc4cf759cc79239f7b179b0ffacaa9a75d522b39400f6101005260601b6001600160601b03191661014052506200016790506276a700831115610194620005e7565b6200017b62278d00821115610195620005e7565b42919091016101608190520161018052604080516002808252606082018352600092602083019080368337019050509050816060015181600081518110620001bf57fe5b60200260200101906001600160a01b031690816001600160a01b031681525050816080015181600181518110620001f257fe5b60200260200101906001600160a01b031690816001600160a01b0316815250506200022881620005fc60201b620018f91760201c565b610100820151620002399062000608565b60a0820151620002499062000664565b81516040516309b2760f60e01b81526000916001600160a01b0316906309b2760f906200027c9060029060040162000ee7565b602060405180830381600087803b1580156200029757600080fd5b505af1158015620002ac573d6000803e3d6000fd5b505050506040513d601f19601f82011682018060405250810190620002d2919062000c2a565b83516040805160028082526060820183529394506001600160a01b03909216926366a9c7d2928592879290602083019080368337019050506040518463ffffffff1660e01b81526004016200032a9392919062000e4d565b600060405180830381600087803b1580156200034557600080fd5b505af11580156200035a573d6000803e3d6000fd5b5050506101a082905250606080840180516001600160601b031990831b81166101c052608086015190921b9091166101e052516200039890620006e2565b610260526080830151620003ac90620006e2565b6102805250620003cc9150506001600160a01b0382161515607862000786565b60208201516040516307674ec360e11b815273__GyroCEMMMath__________________________91630ece9d869162000409919060040162000efc565b60006040518083038186803b1580156200042257600080fd5b505af415801562000437573d6000803e3d6000fd5b505050507f7672dc494ae4d55104e0fcc603d8525eff19778e0361319da5973bbff4a2966e60016040516200046d919062000e42565b60405180910390a16020820151604080840151905163b10bc2cd60e01b815273__GyroCEMMMath__________________________9263b10bc2cd92620004b69260040162000f0c565b60006040518083038186803b158015620004cf57600080fd5b505af4158015620004e4573d6000803e3d6000fd5b505050507f9aa4b7e51fc54c5631fff5119838cefd5af4e579d4f93d51a4f6b6cdbefd03b460016040516200051a919062000e42565b60405180910390a160208281015180518183015160408084015160608086015160809687015161032052610300526102e0919091526102c0929092526102a09290925294810151805180519085015182860151805196015193830151978301519483015160a084015160c0909401516104405261042093909352610400929092526103e0939093526103c0959095526103a052610380919091526103609290925261034091909152600b80546001600160a01b0319166001600160a01b0390921691909117905562000fad565b81620005f857620005f88162000797565b5050565b80620005f881620007ea565b62000624816009546200087760201b620019071790919060201c565b6009556040517f3e350b41e86a8e10f804ade6d35340d620be35569cc75ac943e8bb14ab80ead1906200065990839062000e42565b60405180910390a150565b6200067964e8d4a5100082101560cb620005e7565b6200069167016345785d8a000082111560ca620005e7565b620006ad816009546200089f60201b620019151790919060201c565b6009556040517fa9ba3ffe0b6c366b81232caab38605a0699ad5398d6cce76f91ee809e322dafc906200065990839062000f80565b600080826001600160a01b031663313ce5676040518163ffffffff1660e01b815260040160206040518083038186803b1580156200071f57600080fd5b505afa15801562000734573d6000803e3d6000fd5b505050506040513d601f19601f820116820180604052508101906200075a919062000dd9565b60ff169050600062000779601283620008be60201b620019231760201c565b600a0a925050505b919050565b81620005f857620005f881620008d6565b62461bcd60e51b6000908152602060045260076024526642414c23000030600a808404818106603090810160081b95839006959095019082900491820690940160101b939093010160c81b604452606490fd5b600281511015620007fb5762000874565b6000816000815181106200080b57fe5b602002602001015190506000600190505b8251811015620008715760008382815181106200083557fe5b6020026020010151905062000866816001600160a01b0316846001600160a01b0316106065620005e760201b60201c565b91506001016200081c565b50505b50565b60006200089682605585620008e860201b62001939179092919060201c565b90505b92915050565b600062000896826056856200091160201b62001960179092919060201c565b6000620008d0838311156001620005e7565b50900390565b62000874816223aca960e91b62000926565b60006001821b19841682846200090057600062000903565b60015b60ff16901b17949350505050565b6001600160401b03811b1992909216911b1790565b62461bcd60e51b600090815260206004526007602452600a808404818106603090810160081b958390069590950190829004918206850160101b01602363ffffff0060e086901c160160181b0190930160c81b60445260e882901c90606490fd5b828054600181600116156101000203166002900490600052602060002090601f016020900481019282620009bf576000855562000a0a565b82601f10620009da57805160ff191683800117855562000a0a565b8280016001018555821562000a0a579182015b8281111562000a0a578251825591602001919060010190620009ed565b5062000a1892915062000a1c565b5090565b5b8082111562000a18576000815560010162000a1d565b80516001600160a01b03811681146200078157600080fd5b805180151581146200078157600080fd5b600082601f83011262000a6d578081fd5b81516001600160401b0381111562000a8157fe5b602062000a97601f8301601f1916820162000f89565b828152858284870101111562000aab578384fd5b835b8381101562000aca57858101830151828201840152820162000aad565b8381111562000adb57848385840101525b5095945050505050565b6000610120828403121562000af8578081fd5b60405160e081016001600160401b038111828210171562000b1557fe5b60405290508062000b27848462000be1565b815262000b38846040850162000be1565b60208201526080830151604082015260a0830151606082015260c0830151608082015260e083015160a082015261010083015160c08201525092915050565b600060a0828403121562000b89578081fd5b60405160a081016001600160401b038111828210171562000ba657fe5b806040525080915082518152602083015160208201526040830151604082015260608301516060820152608083015160808201525092915050565b60006040828403121562000bf3578081fd5b604080519081016001600160401b038111828210171562000c1057fe5b604052825181526020928301519281019290925250919050565b60006020828403121562000c3c578081fd5b5051919050565b600080604080848603121562000c57578182fd5b83516001600160401b038082111562000c6e578384fd5b908501906101e0828803121562000c83578384fd5b825160608101818110838211171562000c9857fe5b845282518281111562000ca9578586fd5b8301610140818a0381131562000cbd578687fd5b62000cc88162000f89565b905062000cd58262000a33565b815260208201518481111562000ce9578788fd5b62000cf78b82850162000a5c565b602083015250858201518481111562000d0e578788fd5b62000d1c8b82850162000a5c565b878301525062000d2f6060830162000a33565b606082015262000d426080830162000a33565b608082015260a082015160a082015260c082015160c082015260e082015160e0820152610100935062000d7784830162000a4b565b84820152610120935062000d8d84830162000a33565b8185015282525062000da3886020850162000b77565b602082015262000db78860c0850162000ae5565b848201528095505050505062000dd06020840162000a33565b90509250929050565b60006020828403121562000deb578081fd5b815160ff8116811462000dfc578182fd5b9392505050565b80518252602081015160208301526040810151604083015260608101516060830152608081015160808301525050565b80518252602090810151910152565b901515815260200190565b60006060820185835260206060818501528186518084526080860191508288019350845b8181101562000e985784516001600160a01b03168352938301939183019160010162000e71565b505084810360408601528551808252908201925081860190845b8181101562000ed95782516001600160a01b03168552938301939183019160010162000eb2565b509298975050505050505050565b602081016003831062000ef657fe5b91905290565b60a0810162000899828462000e03565b6101c0810162000f1d828562000e03565b62000f2d60a08301845162000e33565b602083015162000f4160e084018262000e33565b5060408301516101208301526060830151610140830152608083015161016083015260a083015161018083015260c08301516101a08301529392505050565b90815260200190565b6040518181016001600160401b038111828210171562000fa557fe5b604052919050565b60805160a05160601c60c05160e05161010051610120516101405160601c61016051610180516101a0516101c05160601c6101e05160601c61020051610220516102405161026051610280516102a0516102c0516102e05161030051610320516103405161036051610380516103a0516103c0516103e0516104005161042051610440516155ac62001148600039806115b15280611e055250806118655280611e2b525080610e945280611e515250806115695280611e795250806109635280611e9e52508061081c5280611d72525080610e705280611d975250806118c65280611dba525080610bd05280611de2525080610bf45280611ca152508061158d5280611ccb525080610c925280611cf55250806107b55280611d1f52508061148a5280611d495250806127de5250806128055250508061355e52508061358552508061104c528061109352508061100c52806110d3525080610afa525080611ac4525080611aa0525080610f5a525080611602525080611f37525080611f79525080611f58525080610f36525080610ebc52506155ac6000f3fe608060405234801561001057600080fd5b50600436106103835760003560e01c806370a08231116101de578063aaabadc51161010f578063ce482387116100ad578063dd62ed3e1161007c578063dd62ed3e146106db578063ddb387c9146106ee578063f89f27ed146106f6578063ffd088eb146106fe57610383565b8063ce482387146106a5578063d505accf146106ad578063d5c096c4146106c0578063dc09f3aa146106d357610383565b8063bcc43692116100e9578063bcc4369214610685578063c0ff1a151461068d578063c2c3bd6a14610695578063c4fea7c91461069d57610383565b8063aaabadc514610662578063b10be7391461066a578063b48b5b401461067d57610383565b8063893d20e81161017c5780639b02cdde116101565780639b02cdde146106215780639d2c110c14610629578063a457c2d71461063c578063a9059cbb1461064f57610383565b8063893d20e8146106095780638d928af81461061157806395d89b411461061957610383565b80637ef355cd116101b85780637ef355cd146105d35780638143eb76146105db578063851c1bb3146105e357806387ec6817146105f657610383565b806370a082311461058c57806374f3b0091461059f5780637ecebe00146105c057610383565b80633644e515116102b857806358ecbcc31161025657806360d1507c1161023057806360d1507c1461053657806366e9ddf41461055c578063679aefce146105645780636b8432391461056c57610383565b806358ecbcc314610505578063591a137f1461050d5780636028bfd41461051557610383565b8063395093511161029257806339509351146104bb57806344bbdb55146104ce5780634a6b0b15146104e357806355c67628146104fd57610383565b80633644e5151461049857806338e9922e146104a057806338fff2d0146104b357610383565b80631dccd83011610325578063292c914a116102ff578063292c914a14610452578063313ce5671461045a57806331783e5e1461046f5780633331bc361461048557610383565b80631dccd830146104175780632024cf411461043757806323b872dd1461043f57610383565b806316c38b3c1161036157806316c38b3c146103db57806318160ddd146103f05780631c0de051146103f85780631d86bb991461040f57610383565b806306fdde0314610388578063095ea7b3146103a65780631469ed6c146103c6575b600080fd5b610390610706565b60405161039d9190615403565b60405180910390f35b6103b96103b4366004614b2f565b61079c565b60405161039d91906152fc565b6103ce6107b3565b60405161039d919061531f565b6103ee6103e9366004614dbf565b6107d7565b005b6103ce6107eb565b6104006107f1565b60405161039d93929190615307565b6103ce61081a565b61042a610425366004614cf3565b61083e565b60405161039d91906151cb565b6103ce610961565b6103b961044d366004614a7a565b610985565b6103ee6109fb565b610462610a2f565b60405161039d91906154eb565b610477610a38565b60405161039d929190615456565b6103ee610493366004615066565b610a58565b6103ce610ad0565b6103ee6104ae36600461504e565b610adf565b6103ce610af8565b6103b96104c9366004614b2f565b610b1c565b6104d6610b57565b60405161039d9190615173565b6104eb610b66565b60405161039d96959493929190615358565b6103ce610bc1565b6103ce610bce565b6103ce610bf2565b610528610523366004614ddf565b610c16565b60405161039d9291906154c4565b61054961054436600461504e565b610c47565b60405161039d9796959493929190615328565b6103ce610c90565b6103ce610cb4565b61057f61057a366004614c25565b610cd9565b60405161039d9190615187565b6103ce61059a366004614a0a565b610d8f565b6105b26105ad366004614ddf565b610dae565b60405161039d9291906151de565b6103ce6105ce366004614a0a565b610e53565b6103ce610e6e565b6103ce610e92565b6103ce6105f1366004614edb565b610eb6565b610528610604366004614ddf565b610f0f565b6104d6610f34565b6104d6610f58565b610390610f7c565b6103ce610fdd565b6103ce610637366004614f58565b610fe3565b6103b961064a366004614b2f565b611398565b6103b961065d366004614b2f565b6113d6565b6104d66113e3565b6103ce610678366004614f03565b6113ed565b6103ce611482565b6103ce611488565b6103ce6114ac565b6103ce611567565b6103ce61158b565b6103ce6115af565b6103ee6106bb366004614aba565b6115d3565b6105b26106ce366004614ddf565b611743565b6103ce611863565b6103ce6106e9366004614a42565b611887565b6103ce6118c4565b61042a6118e8565b6103ce6118f2565b60038054604080516020601f60026000196101006001881615020190951694909404938401819004810282018101909252828152606093909290918301828280156107925780601f1061076757610100808354040283529160200191610792565b820191906000526020600020905b81548152906001019060200180831161077557829003601f168201915b5050505050905090565b60006107a9338484611975565b5060015b92915050565b7f000000000000000000000000000000000000000000000000000000000000000081565b6107df6119d7565b6107e881611a05565b50565b60025490565b60008060006107fe611a81565b159250610809611a9e565b9150610813611ac2565b9050909192565b7f000000000000000000000000000000000000000000000000000000000000000081565b606081516001600160401b038111801561085757600080fd5b50604051908082528060200260200182016040528015610881578160200160208202803683370190505b509050600061088e611ae6565b905060005b835181101561095a5773__QueryProcessor________________________6379eaef8260088684815181106108c457fe5b6020026020010151856040518463ffffffff1660e01b81526004016108eb939291906153ca565b60206040518083038186803b15801561090357600080fd5b505af4158015610917573d6000803e3d6000fd5b505050506040513d601f19601f8201168201806040525081019061093b9190614f1d565b83828151811061094757fe5b6020908102919091010152600101610893565b5050919050565b7f000000000000000000000000000000000000000000000000000000000000000081565b6000806109928533611887565b90506109b6336001600160a01b03871614806109ae5750838210155b61019e611af3565b6109c1858585611b01565b336001600160a01b038616148015906109dc57506000198114155b156109ee576109ee8533858403611975565b60019150505b9392505050565b610a03611be9565b610a0b6119d7565b610a156001611bfc565b6000610a1f6107eb565b1115610a2d57610a2d611c47565b565b60055460ff1690565b610a40614868565b610a48614897565b610a50611c8f565b915091509091565b610a738183108015610a6c57506104008211155b6064611af3565b6000610a886001600080600080600080611ec5565b9050825b82811015610aca57600081815260086020526040902054610aac90611f27565b610ac25760008181526008602052604090208290555b600101610a8c565b50505050565b6000610ada611f33565b905090565b610ae76119d7565b610aef611be9565b6107e881611ff1565b7f000000000000000000000000000000000000000000000000000000000000000090565b3360008181526001602090815260408083206001600160a01b038716845290915281205490916107a9918590610b52908661205a565b611975565b600b546001600160a01b031681565b60008060008060008060006009549050610b7f8161206c565b9650610b8a81612078565b9550610b9581612085565b9450610ba081612092565b9350610bab8161209f565b9250610bb6816120ac565b915050909192939495565b6000610ada6009546120ac565b7f000000000000000000000000000000000000000000000000000000000000000081565b7f000000000000000000000000000000000000000000000000000000000000000081565b60006060610c26865160026120b9565b610c3b898989898989896120c66122416122bf565b97509795505050505050565b6000806000806000806000610c62610400891061013b611af3565b6000610c6d896123d2565b9050610c78816123e4565b959f949e50929c50909a509850965090945092505050565b7f000000000000000000000000000000000000000000000000000000000000000081565b6000610ada610cc16107eb565b610cd3610ccc6114ac565b6002612447565b9061246b565b606081516001600160401b0381118015610cf257600080fd5b50604051908082528060200260200182016040528015610d1c578160200160208202803683370190505b5090506000610d29611ae6565b9050610d336148e0565b60005b8451811015610d8757848181518110610d4b57fe5b60200260200101519150610d6882600001518484602001516124c5565b848281518110610d7457fe5b6020908102919091010152600101610d36565b505050919050565b6001600160a01b0381166000908152602081905260409020545b919050565b60608088610dd8610dbd610f58565b6001600160a01b0316336001600160a01b03161460cd611af3565b610ded610de3610af8565b82146101f4611af3565b610df68761255e565b6000806000610e0a8d8d8d8d8d8d8d6120c6565b925092509250610e1a8c846125c0565b610e2382612241565b610e2c81612241565b610e34611a81565b15610e4157610e41611c47565b909c909b509950505050505050505050565b6001600160a01b031660009081526006602052604090205490565b7f000000000000000000000000000000000000000000000000000000000000000081565b7f000000000000000000000000000000000000000000000000000000000000000081565b604080517f00000000000000000000000000000000000000000000000000000000000000006020808301919091526001600160e01b03198416828401528251602481840301815260449092019092528051910120919050565b60006060610f1f865160026120b9565b610c3b898989898989896125ca6127206122bf565b7f000000000000000000000000000000000000000000000000000000000000000090565b7f000000000000000000000000000000000000000000000000000000000000000090565b60048054604080516020601f60026000196101006001881615020190951694909404938401819004810282018101909252828152606093909290918301828280156107925780601f1061076757610100808354040283529160200191610792565b600a5490565b6000610fed611be9565b8360800151610ffd610dbd610f58565b611008610de3610af8565b60007f00000000000000000000000000000000000000000000000000000000000000006001600160a01b031686602001516001600160a01b031614801561108457507f00000000000000000000000000000000000000000000000000000000000000006001600160a01b031686604001516001600160a01b0316145b1561109157506001611122565b7f00000000000000000000000000000000000000000000000000000000000000006001600160a01b031686602001516001600160a01b031614801561110b57507f00000000000000000000000000000000000000000000000000000000000000006001600160a01b031686604001516001600160a01b0316145b1561111857506000611122565b6111226079612782565b600061112d826127d5565b9050600061113b83156127d5565b90506111478783612829565b96506111538682612829565b95506000611162888886612835565b905060008061116f611c8f565b9150915061117b6148f7565b60008073__GyroCEMMMath__________________________63eaf17aef8787876040518463ffffffff1660e01b81526004016111b99392919061520c565b604080518083038186803b1580156111d057600080fd5b505af41580156111e4573d6000803e3d6000fd5b505050506040513d601f19601f820116820180604052508101906112089190614f35565b91509150604051806040016040528082600202840181526020018381525092506112418e60a001518761123a856128cf565b888861292a565b50600090508c51600181111561125357fe5b14156112ff576000611271611266610bc1565b60608f015190612aa2565b905061129361128d828f60600151612af790919063ffffffff16565b88612829565b60608e015260006112a88e878b888888612b0d565b90507f4e1d56f7310a8c32b2267f756b19ba65019b4890068ce114a25009abe54de5ba8684836040516112dd9392919061527e565b60405180910390a16112ef8188612ba5565b9a50505050505050505050611390565b61130d8c6060015186612829565b60608d015260006113228d868a878787612bb1565b90507f4e1d56f7310a8c32b2267f756b19ba65019b4890068ce114a25009abe54de5ba8583836040516113579392919061527e565b60405180910390a16113698188612bf9565b905061138561137e611379610bc1565b612c05565b8290612c2b565b995050505050505050505b509392505050565b6000806113a53385611887565b90508083106113bf576113ba33856000611975565b6113cc565b6113cc3385858403611975565b5060019392505050565b60006107a9338484611b01565b6000610ada612c91565b600073__QueryProcessor________________________630397bee0600884611414611ae6565b6040518463ffffffff1660e01b815260040161143293929190615382565b60206040518083038186803b15801561144a57600080fd5b505af415801561145e573d6000803e3d6000fd5b505050506040513d601f19601f820116820180604052508101906107ad9190614f1d565b61040090565b7f000000000000000000000000000000000000000000000000000000000000000081565b6000806114b7610f58565b6001600160a01b031663f94d46686114cd610af8565b6040518263ffffffff1660e01b81526004016114e9919061531f565b60006040518083038186803b15801561150157600080fd5b505afa158015611515573d6000803e3d6000fd5b505050506040513d6000823e601f3d908101601f1916820160405261153d9190810190614b5a565b5091505061154a8161255e565b6000611554612d0b565b90506115608183612d7a565b9250505090565b7f000000000000000000000000000000000000000000000000000000000000000081565b7f000000000000000000000000000000000000000000000000000000000000000081565b7f000000000000000000000000000000000000000000000000000000000000000081565b6115e18442111560d1611af3565b6001600160a01b0380881660008181526006602090815260408083205481517f00000000000000000000000000000000000000000000000000000000000000008185015280830195909552948b166060850152608084018a905260a0840185905260c08085018a90528151808603909101815260e0909401905282519201919091209061166d82612dec565b9050600060018288888860405160008152602001604052604051808581526020018460ff1681526020018381526020018281526020019450505050506020604051602081039080840390855afa1580156116cb573d6000803e3d6000fd5b5050604051601f190151915061170d90506001600160a01b0382161580159061170557508b6001600160a01b0316826001600160a01b0316145b6101f8611af3565b6001600160a01b038b1660009081526006602052604090206001850190556117368b8b8b611975565b5050505050505050505050565b60608088611752610dbd610f58565b61175d610de3610af8565b611765611be9565b600061176f6107eb565b6117df5761177f8b8b8b88612e38565b94509050611794620f424082101560cc611af3565b6117a26000620f4240612f7d565b6117b189620f42408303612f7d565b6117ba84612720565b604080516002808252606082018352909160208301908036833701905050925061184d565b6117e88861255e565b61181b87896000815181106117f957fe5b60200260200101518a60018151811061180e57fe5b6020026020010151612f87565b61182a8b8b8b8b8b8b8b6125ca565b9095509350905061183b8982612f7d565b61184484612720565b61184d83612241565b611855611c47565b505097509795505050505050565b7f000000000000000000000000000000000000000000000000000000000000000081565b6000611891610f58565b6001600160a01b0316826001600160a01b031614156118b357506000196107ad565b6118bd8383612f8c565b90506107ad565b7f000000000000000000000000000000000000000000000000000000000000000081565b6060610ada612d0b565b6201de2090565b8061190381612fb7565b5050565b60006109f483836055611939565b60006109f483836056611960565b6000611933838311156001611af3565b50900390565b60006001821b198416828461194f576000611952565b60015b60ff16901b17949350505050565b6001600160401b03811b1992909216911b1790565b6001600160a01b03808416600081815260016020908152604080832094871680845294825291829020859055815185815291517f8c5be1e5ebec7d5bd14f71427d1e84f3dd0314c0f7b2291e5b200ac8c7c3b9259281900390910190a3505050565b60006119ee6000356001600160e01b031916610eb6565b90506107e86119fd8233613030565b610191611af3565b8015611a2557611a20611a16611a9e565b4210610193611af3565b611a3a565b611a3a611a30611ac2565b42106101a9611af3565b6007805482151560ff19909116811790915560408051918252517f9e3a5e37224532dea67b89face185703738a228a6e8a23dee546960180d3be649181900360200190a150565b6000611a8b611ac2565b421180610ada57505060075460ff161590565b7f000000000000000000000000000000000000000000000000000000000000000090565b7f000000000000000000000000000000000000000000000000000000000000000090565b6000610ada600954612092565b816119035761190381612782565b611b186001600160a01b0384161515610198611af3565b611b2f6001600160a01b0383161515610199611af3565b611b3a838383612f87565b6001600160a01b038316600090815260208190526040902054611b6090826101a0613132565b6001600160a01b038085166000908152602081905260408082209390935590841681522054611b8f908261205a565b6001600160a01b038084166000818152602081815260409182902094909455805185815290519193928716927fddf252ad1be2c89b69c2b068fc378daa952ba7f163c4a11628f55a4df523b3ef92918290030190a3505050565b610a2d611bf4611a81565b610192611af3565b600954611c099082611907565b6009556040517f3e350b41e86a8e10f804ade6d35340d620be35569cc75ac943e8bb14ab80ead190611c3c9083906152fc565b60405180910390a150565b600954611c538161209f565b156107e857611c6d611c66600a54613148565b8290613188565b9050611c89611c82611c7d6107eb565b613148565b8290613195565b60095550565b611c97614868565b611c9f614897565b7f00000000000000000000000000000000000000000000000000000000000000006080808401919091527f00000000000000000000000000000000000000000000000000000000000000006060808501919091527f00000000000000000000000000000000000000000000000000000000000000006040808601919091527f00000000000000000000000000000000000000000000000000000000000000006020808701919091527f000000000000000000000000000000000000000000000000000000000000000086528451858201517f0000000000000000000000000000000000000000000000000000000000000000818401527f000000000000000000000000000000000000000000000000000000000000000090527f0000000000000000000000000000000000000000000000000000000000000000918101919091527f000000000000000000000000000000000000000000000000000000000000000090527f000000000000000000000000000000000000000000000000000000000000000060c08501527f000000000000000000000000000000000000000000000000000000000000000060a08501527f0000000000000000000000000000000000000000000000000000000000000000928401929092527f0000000000000000000000000000000000000000000000000000000000000000908301527f0000000000000000000000000000000000000000000000000000000000000000908201529091565b6000611ed182826131a3565b611edc84601f6131a7565b611ee78660546131b8565b611ef288606a6131a7565b611efd8a609f6131b8565b611f088c60b56131a7565b611f138e60ea6131b8565b17171717171790505b979650505050505050565b60006107ad82826131c5565b60007f00000000000000000000000000000000000000000000000000000000000000007f00000000000000000000000000000000000000000000000000000000000000007f0000000000000000000000000000000000000000000000000000000000000000611fa06131cf565b3060405160200180868152602001858152602001848152602001838152602001826001600160a01b031681526020019550505050505060405160208183030381529060405280519060200120905090565b61200464e8d4a5100082101560cb611af3565b61201a67016345785d8a000082111560ca611af3565b6009546120279082611915565b6009556040517fa9ba3ffe0b6c366b81232caab38605a0699ad5398d6cce76f91ee809e322dafc90611c3c90839061531f565b60008282016109f48482101583611af3565b60006107ad82826131d3565b60006107ad8260166131d3565b60006107ad82602c6131c5565b60006107ad82604b6131fa565b60006107ad826055613202565b60006107ad82605661320c565b6119038183146067611af3565b60006060806000806120d6611c8f565b915091506120e2611a81565b156121f45760405163371c08f160e01b815260009073__GyroCEMMMath__________________________9063371c08f190612125908d908790879060040161520c565b60206040518083038186803b15801561213d57600080fd5b505af4158015612151573d6000803e3d6000fd5b505050506040513d601f19601f820116820180604052508101906121759190614f1d565b9050612184898b83868661292a565b61218d81613219565b6121978a88613246565b90965094506121b081876121a96107eb565b6000613292565b600a8190556040517fe1d39caf039c7dc6f364b1e29d1e67c4e330003a43f4991d50cf3e8840d95eac916121e6918491906154dd565b60405180910390a15061220a565b6121fe8987613246565b600019600a5590955093505b6040805160028082526060820183528792879291906020830190803683370190505094509450945050509750975097945050505050565b6122688160008151811061225157fe5b602002602001015161226360016127d5565b6132ea565b8160008151811061227557fe5b6020026020010181815250506122a38160018151811061229157fe5b602002602001015161226360006127d5565b816001815181106122b057fe5b60200260200101818152505050565b33301461237d576000306001600160a01b03166000366040516122e3929190615163565b6000604051808303816000865af19150503d8060008114612320576040519150601f19603f3d011682016040523d82523d6000602084013e612325565b606091505b50509050806000811461233457fe5b60046000803e6000516001600160e01b0319166343adbafb60e01b811461235f573d6000803e3d6000fd5b506020600460003e604060205260243d03602460403e601c3d016000f35b6123868661255e565b60008061239c8b8b8b8b8b8b8b8b63ffffffff16565b50915091506123ae818463ffffffff16565b8051601f1982018390526343adbafb603f1983015260200260231982016044820181fd5b60009081526008602052604090205490565b60008060008060008060006123f88861330a565b965061240388613317565b955061240e88613324565b945061241988613331565b93506124248861333e565b925061242f8861334b565b915061243a88611f27565b9050919395979092949650565b60008282026109f484158061246457508385838161246157fe5b04145b6003611af3565b60008161247e5761247e60006004611af3565b8261248b575060006107ad565b670de0b6b3a7640000838102908482816124a157fe5b04146124b3576124b360006005611af3565b8281816124bc57fe5b04949350505050565b6040516334171a8560e01b815260009073__QueryProcessor________________________906334171a8590612506906008908890889088906004016153a4565b60206040518083038186803b15801561251e57600080fd5b505af4158015612532573d6000803e3d6000fd5b505050506040513d601f19601f820116820180604052508101906125569190614f1d565b949350505050565b6125858160008151811061256e57fe5b602002602001015161258060016127d5565b612447565b8160008151811061259257fe5b6020026020010181815250506122a3816001815181106125ae57fe5b602002602001015161258060006127d5565b6119038282613358565b60006060806000806125da611c8f565b91509150600073__GyroCEMMMath__________________________63371c08f18b85856040518463ffffffff1660e01b815260040161261b9392919061520c565b60206040518083038186803b15801561263357600080fd5b505af4158015612647573d6000803e3d6000fd5b505050506040513d601f19601f8201168201806040525081019061266b9190614f1d565b905061267a898b83868661292a565b61268381613219565b6000806126908c8a61340f565b915091506126a883836126a16107eb565b6001613292565b600a8190556040517fe1d39caf039c7dc6f364b1e29d1e67c4e330003a43f4991d50cf3e8840d95eac916126de918691906154dd565b60405180910390a16040805160028082526060820183528492849291906020830190803683370190505097509750975050505050509750975097945050505050565b6127478160008151811061273057fe5b602002602001015161274260016127d5565b613449565b8160008151811061275457fe5b6020026020010181815250506122a38160018151811061277057fe5b602002602001015161274260006127d5565b62461bcd60e51b6000908152602060045260076024526642414c23000030600a808404818106603090810160081b95839006959095019082900491820690940160101b939093010160c81b604452606490fd5b600081612802577f00000000000000000000000000000000000000000000000000000000000000006107ad565b507f0000000000000000000000000000000000000000000000000000000000000000919050565b60006109f48383612447565b6040805160028082526060808301845292602083019080368337019050509050811561289457838160008151811061286957fe5b602002602001018181525050828160018151811061288357fe5b6020026020010181815250506109f4565b82816000815181106128a257fe5b60200260200101818152505083816001815181106128bc57fe5b6020026020010181815250509392505050565b600080821215612926576040805162461bcd60e51b815260206004820181905260248201527f53616665436173743a2076616c7565206d75737420626520706f736974697665604482015290519081900360640190fd5b5090565b6009546129368161209f565b801561294157508543115b15612a9a57600073__GyroCEMMMath__________________________63bce135aa87868661296e8a61347c565b6040518563ffffffff1660e01b815260040161298d949392919061523d565b60206040518083038186803b1580156129a557600080fd5b505af41580156129b9573d6000803e3d6000fd5b505050506040513d601f19601f820116820180604052508101906129dd9190614f1d565b905060006129ea826134c0565b90506000612a00876129fb86612078565b6134cb565b90506000612a0d85612092565b90506000612a1a86612085565b90506000612a3382848787612a2e8c61206c565b6134e2565b9050808314612a9357612a468782613539565b9650612a528742613547565b9650866009819055507f12ade7b7dd29c5e3df1e883f0a092467d851b06c52f3c4484a443d40b9cd660181604051612a8a919061531f565b60405180910390a15b5050505050505b505050505050565b6000828202831580612abc575082848281612ab957fe5b04145b612acc57612acc60006003611af3565b80612adb5760009150506107ad565b670de0b6b3a764000060001982015b0460010191505092915050565b6000828211156119335761193360006001611af3565b6060860151604051633773625f60e21b815260009173__GyroCEMMMath__________________________9163ddcd897c91612b55918a91908a908a908a908a906004016152ae565b60206040518083038186803b158015612b6d57600080fd5b505af4158015612b81573d6000803e3d6000fd5b505050506040513d601f19601f82011682018060405250810190611f1c9190614f1d565b60006109f483836132ea565b606086015160405163c8afb83560e01b815260009173__GyroCEMMMath__________________________9163c8afb83591612b55918a91908a908a908a908a906004016152ae565b60006109f48383613449565b6000670de0b6b3a76400008210612c1d5760006107ad565b50670de0b6b3a76400000390565b600081612c3e57612c3e60006004611af3565b82612c4b575060006107ad565b670de0b6b3a764000083810290848281612c6157fe5b0414612c8557612c85670de0b6b3a7640000858381612c7c57fe5b04146005611af3565b826001820381612aea57fe5b6000612c9b610f58565b6001600160a01b031663aaabadc56040518163ffffffff1660e01b815260040160206040518083038186803b158015612cd357600080fd5b505afa158015612ce7573d6000803e3d6000fd5b505050506040513d601f19601f82011682018060405250810190610ada9190614a26565b60408051600280825260608083018452926000929190602083019080368337019050509050612d3a6001613555565b81600081518110612d4757fe5b602002602001018181525050612d5d6000613555565b81600181518110612d6a57fe5b6020908102919091010152905090565b670de0b6b3a764000060005b8351811015612ddc57612dd2612dcb858381518110612da157fe5b6020026020010151858481518110612db557fe5b60200260200101516135a990919063ffffffff16565b83906135f8565b9150600101612d86565b506107ad60008211610137611af3565b6000612df6611f33565b82604051602001808061190160f01b81525060020183815260200182815260200192505050604051602081830303815290604052805190602001209050919050565b600060606000612e4784613621565b9050612e626000826003811115612e5a57fe5b1460ce611af3565b6000612e6d85613640565b9050612e7b815160026120b9565b612e848161255e565b600080612e8f611c8f565b91509150600073__GyroCEMMMath__________________________63371c08f18585856040518463ffffffff1660e01b8152600401612ed09392919061520c565b60206040518083038186803b158015612ee857600080fd5b505af4158015612efc573d6000803e3d6000fd5b505050506040513d601f19601f82011682018060405250810190612f209190614f1d565b90507faf65f1a72bf4f8bc48e8153858e1f7b307ce39c88361a677c0a79c2a1ae571ef81604051612f51919061531f565b60405180910390a16000612f66826002612447565b600a92909255509a92995091975050505050505050565b61190382826136f4565b505050565b6001600160a01b03918216600090815260016020908152604080832093909416825291909152205490565b600281511015612fc6576107e8565b600081600081518110612fd557fe5b602002602001015190506000600190505b8251811015612f87576000838281518110612ffd57fe5b60200260200101519050613026816001600160a01b0316846001600160a01b0316106065611af3565b9150600101612fe6565b600073ba1ba1ba1ba1ba1ba1ba1ba1ba1ba1ba1ba1ba1b61304f610f34565b6001600160a01b03161415801561306a575061306a83613789565b1561309257613077610f34565b6001600160a01b0316336001600160a01b03161490506107ad565b61309a612c91565b6001600160a01b0316639be2a8848484306040518463ffffffff1660e01b815260040180848152602001836001600160a01b03168152602001826001600160a01b03168152602001935050505060206040518083038186803b1580156130ff57600080fd5b505afa158015613113573d6000803e3d6000fd5b505050506040513d602081101561312957600080fd5b505190506107ad565b60006131418484111583611af3565b5050900390565b600080613154836137bb565b9050600080821361316d57652d79883d20008203613177565b652d79883d200082015b655af3107a40009005949350505050565b60006109f483838361381f565b60006109f48383601661381f565b1b90565b661fffffffffffff91909116901b90565b623fffff91909116901b90565b1c637fffffff1690565b4690565b600082821c623fffff16621fffff81136131ed5780612556565b623fffff19179392505050565b1c6103ff1690565b1c60019081161490565b1c6001600160401b031690565b60008060008061322b600a5486613836565b935093509350935061323f8484848461389f565b5050505050565b60006060600061325584613621565b9050600181600381111561326557fe5b141561327f5761327585856138bf565b909350915061328a565b61328a610150612782565b509250929050565b600081156132c45760006132b0846132aa8888612aa2565b90612c2b565b90506132bc86826138f1565b915050612556565b60006132d484610cd38888613909565b90506132e08682612af7565b9695505050505050565b60006132f98215156004611af3565b81838161330257fe5b049392505050565b60006107ad8260ea6131d3565b60006107ad8260b5613933565b60006107ad82609f6131d3565b60006107ad82606a613933565b60006107ad8260546131d3565b60006107ad82601f613933565b61336f6001600160a01b038316151561019b611af3565b61337b82600083612f87565b6001600160a01b0382166000908152602081905260409020546133a190826101a1613132565b6001600160a01b0383166000908152602081905260409020556002546133c79082613966565b6002556040805182815290516000916001600160a01b038516917fddf252ad1be2c89b69c2b068fc378daa952ba7f163c4a11628f55a4df523b3ef9181900360200190a35050565b60006060600061341e84613621565b9050600381600381111561342e57fe5b141561343e576132758585613974565b61328a610136612782565b60006134588215156004611af3565b82613465575060006107ad565b81600184038161347157fe5b0460010190506107ad565b6000600160ff1b82106129265760405162461bcd60e51b815260040180806020018281038252602881526020018061554f6028913960400191505060405180910390fd5b60006107ad82613148565b6000806134d784613148565b929092039392505050565b6000806134fe858585426134f58b6123d2565b93929190613999565b9050607842889003101580613513578661351c565b61351c876139f9565b600081815260086020526040902092909255509695505050505050565b60006109f48383604b613a06565b60006109f48383602c613a16565b600081613582577f00000000000000000000000000000000000000000000000000000000000000006107ad565b507f0000000000000000000000000000000000000000000000000000000000000000919050565b6000806135b68484613a28565b905060006135d06135c983612710613b29565b600161205a565b9050808210156135e5576000925050506107ad565b6135ef8282611923565b925050506107ad565b600082820261361284158061246457508385838161246157fe5b670de0b6b3a7640000816124bc565b600081806020019051602081101561363857600080fd5b505192915050565b606081806020019051604081101561365757600080fd5b81516020830180516040519294929383019291908464010000000082111561367e57600080fd5b90830190602082018581111561369357600080fd5b82518660208202830111640100000000821117156136b057600080fd5b82525081516020918201928201910280838360005b838110156136dd5781810151838201526020016136c5565b505050509190910160405250929695505050505050565b61370060008383612f87565b60025461370d908261205a565b6002556001600160a01b038216600090815260208190526040902054613733908261205a565b6001600160a01b0383166000818152602081815260408083209490945583518581529351929391927fddf252ad1be2c89b69c2b068fc378daa952ba7f163c4a11628f55a4df523b3ef9281900390910190a35050565b600061379b631c74c91760e11b610eb6565b8214806107ad57506137b36350dd6ed960e01b610eb6565b909114919050565b60006137cb600083136064611af3565b670c7d713b49da0000821380156137e95750670f43fc2c04ee000082125b1561380f57670de0b6b3a764000061380083613b6c565b8161380757fe5b059050610da9565b61381882613c8a565b9050610da9565b623fffff828116821b90821b198416179392505050565b60008060008060008060008061384a614029565b9350935093509350836000141561386f57600097508796509094509250613896915050565b6000806138868c8c61387f6107eb565b8989614298565b909a509850929650909450505050505b92959194509250565b83156138af576138af8285612f7d565b8215610aca57610aca8184612f7d565b6000606060006138ce84614333565b905060006138e486836138df6107eb565b614355565b9196919550909350505050565b6000828201838110156109f4576109f4600080611af3565b600082820283158061392357508284828161392057fe5b04145b6136125761361260006003611af3565b600082821c661fffffffffffff16660fffffffffffff81136139555780612556565b661fffffffffffff19179392505050565b60006109f483836001613132565b60006060600061398384614333565b905060006138e486836139946107eb565b6143f0565b6000806139a587611f27565b8303905060008187026139b789613317565b01905060008287026139c88a613331565b01905060008387026139d98b61334b565b0190506139eb89848a858b868c611ec5565b9a9950505050505050505050565b60006107ad82600161448b565b6103ff811b1992909216911b1790565b637fffffff811b1992909216911b1790565b600081613a3e5750670de0b6b3a76400006107ad565b82613a4b575060006107ad565b613a5c600160ff1b84106006611af3565b82613a82770bce5086492111aea88f4bb1ca6bcf584181ea8059f7653284106007611af3565b826000670c7d713b49da000083138015613aa35750670f43fc2c04ee000083125b15613ada576000613ab384613b6c565b9050670de0b6b3a764000080820784020583670de0b6b3a764000083050201915050613ae8565b81613ae484613c8a565b0290505b670de0b6b3a76400009005613b20680238fd42c5cf03ffff198212801590613b19575068070c1cc73b00c800008213155b6008611af3565b6132e081614493565b6000828202613b4384158061246457508385838161246157fe5b80613b525760009150506107ad565b670de0b6b3a76400006000198201046001019150506107ad565b670de0b6b3a7640000026000806a0c097ce7bc90715b34b9f160241b808401906ec097ce7bc90715b34b9f0fffffffff1985010281613ba757fe5b05905060006a0c097ce7bc90715b34b9f160241b82800205905081806a0c097ce7bc90715b34b9f160241b81840205915060038205016a0c097ce7bc90715b34b9f160241b82840205915060058205016a0c097ce7bc90715b34b9f160241b82840205915060078205016a0c097ce7bc90715b34b9f160241b82840205915060098205016a0c097ce7bc90715b34b9f160241b828402059150600b8205016a0c097ce7bc90715b34b9f160241b828402059150600d8205016a0c097ce7bc90715b34b9f160241b828402059150600f826002919005919091010295945050505050565b6000670de0b6b3a7640000821215613cc657613cbc826a0c097ce7bc90715b34b9f160241b81613cb657fe5b05613c8a565b6000039050610da9565b60007e1600ef3172e58d2e933ec884fde10064c63b5372d805e203c00000000000008312613d1757770195e54c5dd42177f53a27172fa9ec630262827000000000830592506806f05b59d3b2000000015b73011798004d755d3c8bc8e03204cf44619e0000008312613d4f576b1425982cf597cd205cef7380830592506803782dace9d9000000015b606492830292026e01855144814a7ff805980ff00840008312613d97576e01855144814a7ff805980ff008400068056bc75e2d63100000840205925068ad78ebc5ac62000000015b6b02df0ab5a80a22c61ab5a7008312613dd2576b02df0ab5a80a22c61ab5a70068056bc75e2d6310000084020592506856bc75e2d631000000015b693f1fce3da636ea5cf8508312613e0957693f1fce3da636ea5cf85068056bc75e2d631000008402059250682b5e3af16b18800000015b690127fa27722cc06cc5e28312613e4057690127fa27722cc06cc5e268056bc75e2d6310000084020592506815af1d78b58c400000015b68280e60114edb805d038312613e755768280e60114edb805d0368056bc75e2d631000008402059250680ad78ebc5ac6200000015b680ebc5fb417461211108312613ea057680ebc5fb4174612111068056bc75e2d631000009384020592015b6808f00f760a4b2db55d8312613ed5576808f00f760a4b2db55d68056bc75e2d6310000084020592506802b5e3af16b1880000015b6806f5f17757889379378312613f0a576806f5f177578893793768056bc75e2d63100000840205925068015af1d78b58c40000015b6806248f33704b2866038312613f3e576806248f33704b28660368056bc75e2d63100000840205925067ad78ebc5ac620000015b6805c548670b9510e7ac8312613f72576805c548670b9510e7ac68056bc75e2d6310000084020592506756bc75e2d6310000015b600068056bc75e2d63100000840168056bc75e2d631000008086030281613f9557fe5b059050600068056bc75e2d63100000828002059050818068056bc75e2d63100000818402059150600382050168056bc75e2d63100000828402059150600582050168056bc75e2d63100000828402059150600782050168056bc75e2d63100000828402059150600982050168056bc75e2d63100000828402059150600b820501600202606485820105979650505050505050565b600b5460405163bd02d0f560e01b81526000918291829182916001600160a01b039091169063bd02d0f59061407b907550524f544f434f4c5f535741505f4645455f5045524360501b9060040161531f565b60206040518083038186803b15801561409357600080fd5b505afa1580156140a7573d6000803e3d6000fd5b505050506040513d601f19601f820116820180604052508101906140cb9190614f1d565b600b5460405163bd02d0f560e01b81526001600160a01b039091169063bd02d0f59061411b907f50524f544f434f4c5f4645455f4759524f5f504f5254494f4e000000000000009060040161531f565b60206040518083038186803b15801561413357600080fd5b505afa158015614147573d6000803e3d6000fd5b505050506040513d601f19601f8201168201806040525081019061416b9190614f1d565b600b546040516321f8a72160e01b81526001600160a01b03909116906321f8a721906141ab906c4759524f5f545245415355525960981b9060040161531f565b60206040518083038186803b1580156141c357600080fd5b505afa1580156141d7573d6000803e3d6000fd5b505050506040513d601f19601f820116820180604052508101906141fb9190614a26565b600b546040516321f8a72160e01b81526001600160a01b03909116906321f8a7219061423a906b42414c5f545245415355525960a01b9060040161531f565b60206040518083038186803b15801561425257600080fd5b505afa158015614266573d6000803e3d6000fd5b505050506040513d601f19601f8201168201806040525081019061428a9190614a26565b935093509350935090919293565b6000808686116142ad57506000905080614329565b60006142cd856142c76142c08a8c612af7565b8990613909565b90613909565b905060006142e56142de898b612af7565b8790613909565b905060006142f38983612af7565b90506000614301848361246b565b9050600061430f8883613909565b9050600061431d8383612af7565b91975090955050505050505b9550959350505050565b600081806020019051604081101561434a57600080fd5b506020015192915050565b606083516001600160401b038111801561436e57600080fd5b50604051908082528060200260200182016040528015614398578160200160208202803683370190505b50905060005b8451811015611390576143d183610cd3868885815181106143bb57fe5b602002602001015161390990919063ffffffff16565b8282815181106143dd57fe5b602090810291909101015260010161439e565b606083516001600160401b038111801561440957600080fd5b50604051908082528060200260200182016040528015614433578160200160208202803683370190505b50905060005b84518110156113905761446c836132aa8688858151811061445657fe5b6020026020010151612aa290919063ffffffff16565b82828151811061447857fe5b6020908102919091010152600101614439565b016103ff1690565b60006144c2680238fd42c5cf03ffff1983121580156144bb575068070c1cc73b00c800008313155b6009611af3565b60008212156144ed576144d782600003614493565b6a0c097ce7bc90715b34b9f160241b8161380757fe5b60006806f05b59d3b2000000831261452d57506806f05b59d3b1ffffff1990910190770195e54c5dd42177f53a27172fa9ec630262827000000000614563565b6803782dace9d9000000831261455f57506803782dace9d8ffffff19909101906b1425982cf597cd205cef7380614563565b5060015b6064929092029168056bc75e2d6310000068ad78ebc5ac6200000084126145b35768ad78ebc5ac61ffffff199093019268056bc75e2d631000006e01855144814a7ff805980ff008400082020590505b6856bc75e2d63100000084126145ef576856bc75e2d630ffffff199093019268056bc75e2d631000006b02df0ab5a80a22c61ab5a70082020590505b682b5e3af16b18800000841261462957682b5e3af16b187fffff199093019268056bc75e2d63100000693f1fce3da636ea5cf85082020590505b6815af1d78b58c4000008412614663576815af1d78b58c3fffff199093019268056bc75e2d63100000690127fa27722cc06cc5e282020590505b680ad78ebc5ac6200000841261469c57680ad78ebc5ac61fffff199093019268056bc75e2d6310000068280e60114edb805d0382020590505b68056bc75e2d6310000084126146d55768056bc75e2d630fffff199093019268056bc75e2d63100000680ebc5fb4174612111082020590505b6802b5e3af16b1880000841261470e576802b5e3af16b187ffff199093019268056bc75e2d631000006808f00f760a4b2db55d82020590505b68015af1d78b58c4000084126147475768015af1d78b58c3ffff199093019268056bc75e2d631000006806f5f177578893793782020590505b68056bc75e2d631000008481019085906002908280020505918201919050600368056bc75e2d631000008783020505918201919050600468056bc75e2d631000008783020505918201919050600568056bc75e2d631000008783020505918201919050600668056bc75e2d631000008783020505918201919050600768056bc75e2d631000008783020505918201919050600868056bc75e2d631000008783020505918201919050600968056bc75e2d631000008783020505918201919050600a68056bc75e2d631000008783020505918201919050600b68056bc75e2d631000008783020505918201919050600c68056bc75e2d631000008783020505918201919050606468056bc75e2d63100000848402058502059695505050505050565b6040518060a0016040528060008152602001600081526020016000815260200160008152602001600081525090565b6040518060e001604052806148aa6148f7565b81526020016148b76148f7565b815260200160008152602001600081526020016000815260200160008152602001600081525090565b604080518082019091526000808252602082015290565b604051806040016040528060008152602001600081525090565b8035610da981615539565b600082601f83011261492c578081fd5b8151602061494161493c8361551c565b6154f9565b828152818101908583018385028701840188101561495d578586fd5b855b8581101561497b5781518452928401929084019060010161495f565b5090979650505050505050565b600082601f830112614998578081fd5b81356001600160401b038111156149ab57fe5b6149be601f8201601f19166020016154f9565b8181528460208386010111156149d2578283fd5b816020850160208301379081016020019190915292915050565b803560028110610da957600080fd5b803560038110610da957600080fd5b600060208284031215614a1b578081fd5b81356109f481615539565b600060208284031215614a37578081fd5b81516109f481615539565b60008060408385031215614a54578081fd5b8235614a5f81615539565b91506020830135614a6f81615539565b809150509250929050565b600080600060608486031215614a8e578081fd5b8335614a9981615539565b92506020840135614aa981615539565b929592945050506040919091013590565b600080600080600080600060e0888a031215614ad4578485fd5b8735614adf81615539565b96506020880135614aef81615539565b95506040880135945060608801359350608088013560ff81168114614b12578384fd5b9699959850939692959460a0840135945060c09093013592915050565b60008060408385031215614b41578182fd5b8235614b4c81615539565b946020939093013593505050565b600080600060608486031215614b6e578081fd5b83516001600160401b0380821115614b84578283fd5b818601915086601f830112614b97578283fd5b81516020614ba761493c8361551c565b82815281810190858301838502870184018c1015614bc3578788fd5b8796505b84871015614bee578051614bda81615539565b835260019690960195918301918301614bc7565b5091890151919750909350505080821115614c07578283fd5b50614c148682870161491c565b925050604084015190509250925092565b60006020808385031215614c37578182fd5b82356001600160401b0380821115614c4d578384fd5b818501915085601f830112614c60578384fd5b8135614c6e61493c8261551c565b818152848101908486016040808502870188018b1015614c8c578889fd5b8896505b84871015614ce45780828c031215614ca6578889fd5b80518181018181108882111715614cb957fe5b8252614cc4836149fb565b815282890135898201528452600196909601959287019290810190614c90565b50909998505050505050505050565b60006020808385031215614d05578182fd5b82356001600160401b0380821115614d1b578384fd5b818501915085601f830112614d2e578384fd5b8135614d3c61493c8261551c565b818152848101908486016060808502870188018b1015614d5a578889fd5b8896505b84871015614ce45780828c031215614d74578889fd5b604080518281018181108982111715614d8957fe5b8252614d94846149fb565b8152838a01358a82015281840135918101919091528452600196909601959287019290810190614d5e565b600060208284031215614dd0578081fd5b813580151581146109f4578182fd5b600080600080600080600060e0888a031215614df9578081fd5b87359650602080890135614e0c81615539565b96506040890135614e1c81615539565b955060608901356001600160401b0380821115614e37578384fd5b818b0191508b601f830112614e4a578384fd5b8135614e5861493c8261551c565b8082825285820191508585018f878886028801011115614e76578788fd5b8795505b83861015614e98578035835260019590950194918601918601614e7a565b509850505060808b0135955060a08b0135945060c08b0135925080831115614ebe578384fd5b5050614ecc8a828b01614988565b91505092959891949750929550565b600060208284031215614eec578081fd5b81356001600160e01b0319811681146109f4578182fd5b600060208284031215614f14578081fd5b6109f4826149fb565b600060208284031215614f2e578081fd5b5051919050565b60008060408385031215614f47578182fd5b505080516020909101519092909150565b600080600060608486031215614f6c578081fd5b83356001600160401b0380821115614f82578283fd5b8186019150610120808389031215614f98578384fd5b614fa1816154f9565b9050614fac836149ec565b8152614fba60208401614911565b6020820152614fcb60408401614911565b6040820152606083013560608201526080830135608082015260a083013560a0820152614ffa60c08401614911565b60c082015261500b60e08401614911565b60e08201526101008084013583811115615023578586fd5b61502f8a828701614988565b9183019190915250976020870135975060409096013595945050505050565b60006020828403121561505f578081fd5b5035919050565b60008060408385031215615078578182fd5b50508035926020909101359150565b6000815180845260208085019450808401835b838110156150b65781518752958201959082019060010161509a565b509495945050505050565b600381106150cb57fe5b9052565b6150da828251615154565b60208101516150ec6040840182615154565b5060408101516080830152606081015160a0830152608081015160c083015260a081015160e083015260c08101516101008301525050565b80518252602081015160208301526040810151604083015260608101516060830152608081015160808301525050565b80518252602090810151910152565b6000828483379101908152919050565b6001600160a01b0391909116815260200190565b6020808252825182820181905260009190848201906040850190845b818110156151bf578351835292840192918401916001016151a3565b50909695505050505050565b6000602082526109f46020830184615087565b6000604082526151f16040830185615087565b82810360208401526152038185615087565b95945050505050565b60006101e080835261522081840187615087565b9150506152306020830185615124565b61255660c08301846150cf565b600061020080835261525181840188615087565b9150506152616020830186615124565b61526e60c08301856150cf565b826101e083015295945050505050565b6000608082526152916080830186615087565b90506152a06020830185615154565b826060830152949350505050565b60006102608083526152c28184018a615087565b91505086602083015285151560408301526152e06060830186615124565b6152ee6101008301856150cf565b611f1c610220830184615154565b901515815260200190565b92151583526020830191909152604082015260600190565b90815260200190565b968752602087019590955260408601939093526060850191909152608084015260a083015260c082015260e00190565b9586526020860194909452604085019290925260608401521515608083015260a082015260c00190565b8381526060810161539660208301856150c1565b826040830152949350505050565b848152608081016153b860208301866150c1565b60408201939093526060015292915050565b600060a0820190508482526153e36020830185516150c1565b602084015160408381019190915290930151606082015260800152919050565b6000602080835283518082850152825b8181101561542f57858101830151858201604001528201615413565b818111156154405783604083870101525b50601f01601f1916929092016040019392505050565b6101c081016154658285615124565b61547360a083018451615154565b602083015161548560e0840182615154565b5060408301516101208301526060830151610140830152608083015161016083015260a083015161018083015260c08301516101a08301529392505050565b6000838252604060208301526125566040830184615087565b918252602082015260400190565b60ff91909116815260200190565b6040518181016001600160401b038111828210171561551457fe5b604052919050565b60006001600160401b0382111561552f57fe5b5060209081020190565b6001600160a01b03811681146107e857600080fdfe53616665436173743a2076616c756520646f65736e27742066697420696e20616e20696e74323536a26469706673582212202da7dab0e8ff524f194e04d873d4dd27a6dfa16ae1e136ee07c4656902fe8ce264736f6c63430007060033","bytecodeSha1":"90a9ab86254170dc223aa0d172f2fdabd43de171","compiler":{"evm_version":"berlin","optimizer":{"enabled":true,"runs":200},"version":"0.7.6+commit.7338295f"},"contractName":"GyroCEMMPoolFactory","language":"Solidity","natspec":{"kind":"dev","methods":{"create(string,string,address[],(int256,int256,int256,int256,int256),((int256,int256),(int256,int256),int256,int256,int256,int256,int256),uint256,bool,address)":{"details":"Deploys a new `GyroCEMMPool`."},"getCreationCode()":{"details":"Returns the creation code of the contract this factory creates."},"getCreationCodeContracts()":{"details":"Returns the two addresses where the creation code of the contract crated by this factory is stored."},"getPauseConfiguration()":{"details":"Returns the current `TemporarilyPausable` configuration that will be applied to Pools created by this factory. `pauseWindowDuration` will decrease over time until it reaches zero, at which point both it and `bufferPeriodDuration` will be zero forever, meaning deployed Pools will not be pausable."},"getVault()":{"details":"Returns the Vault's address."},"isPoolFromFactory(address)":{"details":"Returns true if `pool` was created by this factory."}},"version":1},"opcodes":"PUSH1 0x80 PUSH1 0x40 MSTORE CALLVALUE DUP1 ISZERO PUSH2 0x10 JUMPI PUSH1 0x0 DUP1 REVERT JUMPDEST POP PUSH1 0x4 CALLDATASIZE LT PUSH2 0x92 JUMPI PUSH1 0x0 CALLDATALOAD PUSH1 0xE0 SHR DUP1 PUSH4 0x45BE0BD4 GT PUSH2 0x66 JUMPI DUP1 PUSH4 0x45BE0BD4 EQ PUSH2 0xF6 JUMPI DUP1 PUSH4 0x6634B753 EQ PUSH2 0x10B JUMPI DUP1 PUSH4 0x8D928AF8 EQ PUSH2 0x12B JUMPI DUP1 PUSH4 0xD1464686 EQ PUSH2 0x133 JUMPI DUP1 PUSH4 0xD2218979 EQ PUSH2 0x13B JUMPI PUSH2 0x92 JUMP JUMPDEST DUP1 PUSH3 0xC194DB EQ PUSH2 0x97 JUMPI DUP1 PUSH4 0xBC7B4C4 EQ PUSH2 0xB5 JUMPI DUP1 PUSH4 0x174481FA EQ PUSH2 0xCA JUMPI DUP1 PUSH4 0x2DA47C40 EQ PUSH2 0xE0 JUMPI JUMPDEST PUSH1 0x0 DUP1 REVERT JUMPDEST PUSH2 0x9F PUSH2 0x14E JUMP JUMPDEST PUSH1 0x40 MLOAD PUSH2 0xAC SWAP2 SWAP1 PUSH2 0xB17 JUMP JUMPDEST PUSH1 0x40 MLOAD DUP1 SWAP2 SUB SWAP1 RETURN JUMPDEST PUSH2 0xBD PUSH2 0x16D JUMP JUMPDEST PUSH1 0x40 MLOAD PUSH2 0xAC SWAP2 SWAP1 PUSH2 0xADE JUMP JUMPDEST PUSH2 0xD2 PUSH2 0x191 JUMP JUMPDEST PUSH1 0x40 MLOAD PUSH2 0xAC SWAP3 SWAP2 SWAP1 PUSH2 0xAF2 JUMP JUMPDEST PUSH2 0xE8 PUSH2 0x1D7 JUMP JUMPDEST PUSH1 0x40 MLOAD PUSH2 0xAC SWAP3 SWAP2 SWAP1 PUSH2 0xC3E JUMP JUMPDEST PUSH2 0xFE PUSH2 0x241 JUMP JUMPDEST PUSH1 0x40 MLOAD PUSH2 0xAC SWAP2 SWAP1 PUSH2 0xC35 JUMP JUMPDEST PUSH2 0x11E PUSH2 0x119 CALLDATASIZE PUSH1 0x4 PUSH2 0x8F9 JUMP JUMPDEST PUSH2 0x248 JUMP JUMPDEST PUSH1 0x40 MLOAD PUSH2 0xAC SWAP2 SWAP1 PUSH2 0xB0C JUMP JUMPDEST PUSH2 0xBD PUSH2 0x26A JUMP JUMPDEST PUSH2 0xFE PUSH2 0x28E JUMP JUMPDEST PUSH2 0xBD PUSH2 0x149 CALLDATASIZE PUSH1 0x4 PUSH2 0x915 JUMP JUMPDEST PUSH2 0x295 JUMP JUMPDEST PUSH1 0x60 PUSH2 0x168 PUSH1 0x40 MLOAD DUP1 PUSH1 0x20 ADD PUSH1 0x40 MSTORE DUP1 PUSH1 0x0 DUP2 MSTORE POP PUSH2 0x372 JUMP JUMPDEST SWAP1 POP SWAP1 JUMP JUMPDEST PUSH32 0x0 DUP2 JUMP JUMPDEST PUSH32 0x0 PUSH32 0x0 SWAP1 SWAP2 JUMP JUMPDEST PUSH1 0x0 DUP1 TIMESTAMP PUSH32 0x0 DUP2 LT ISZERO PUSH2 0x233 JUMPI DUP1 PUSH32 0x0 SUB SWAP3 POP PUSH3 0x278D00 SWAP2 POP PUSH2 0x23C JUMP JUMPDEST PUSH1 0x0 SWAP3 POP PUSH1 0x0 SWAP2 POP JUMPDEST POP SWAP1 SWAP2 JUMP JUMPDEST PUSH3 0x76A700 DUP2 JUMP JUMPDEST PUSH1 0x1 PUSH1 0x1 PUSH1 0xA0 SHL SUB DUP2 AND PUSH1 0x0 SWAP1 DUP2 MSTORE PUSH1 0x20 DUP2 SWAP1 MSTORE PUSH1 0x40 SWAP1 KECCAK256 SLOAD PUSH1 0xFF AND JUMPDEST SWAP2 SWAP1 POP JUMP JUMPDEST PUSH32 0x0 SWAP1 JUMP JUMPDEST PUSH3 0x278D00 DUP2 JUMP JUMPDEST PUSH1 0x0 DUP1 PUSH2 0x2A6 DUP11 DUP11 DUP11 DUP9 DUP9 DUP9 PUSH2 0x44B JUMP JUMPDEST SWAP1 POP PUSH1 0x0 PUSH1 0x40 MLOAD DUP1 PUSH1 0x60 ADD PUSH1 0x40 MSTORE DUP1 DUP4 DUP2 MSTORE PUSH1 0x20 ADD DUP10 DUP2 MSTORE PUSH1 0x20 ADD DUP9 DUP2 MSTORE POP SWAP1 POP PUSH2 0x311 DUP2 PUSH32 0x0 PUSH1 0x40 MLOAD PUSH1 0x20 ADD PUSH2 0x2FD SWAP3 SWAP2 SWAP1 PUSH2 0xB2A JUMP JUMPDEST PUSH1 0x40 MLOAD PUSH1 0x20 DUP2 DUP4 SUB SUB DUP2 MSTORE SWAP1 PUSH1 0x40 MSTORE PUSH2 0x500 JUMP JUMPDEST SWAP12 SWAP11 POP POP POP POP POP POP POP POP POP POP POP JUMP JUMPDEST DUP1 MLOAD PUSH32 0x602038038060206000396000F3FEFEFEFEFEFEFEFEFEFEFEFEFEFEFEFEFEFEFE DUP1 DUP4 MSTORE PUSH1 0x0 SWAP2 PUSH1 0x20 DUP2 ADD DUP5 DUP5 CREATE SWAP1 DUP5 MSTORE SWAP2 POP PUSH2 0x36C PUSH1 0x1 PUSH1 0x1 PUSH1 0xA0 SHL SUB DUP4 AND ISZERO ISZERO PUSH2 0x1AC PUSH2 0x560 JUMP JUMPDEST POP SWAP2 SWAP1 POP JUMP JUMPDEST DUP1 MLOAD PUSH1 0x40 DUP1 MLOAD PUSH32 0x0 PUSH32 0x0 DUP2 DUP2 ADD DUP6 DUP2 ADD DUP5 DUP2 ADD PUSH1 0x20 SWAP1 DUP2 ADD SWAP1 SWAP7 MSTORE DUP1 DUP6 MSTORE SWAP4 SWAP6 PUSH32 0x0 SWAP6 SWAP3 SWAP5 PUSH32 0x0 SWAP5 SWAP4 DUP9 ADD DUP7 PUSH1 0x0 DUP3 DUP11 EXTCODECOPY DUP5 PUSH1 0x0 DUP9 DUP4 ADD DUP9 EXTCODECOPY POP PUSH1 0x20 DUP10 DUP2 ADD SWAP1 DUP10 DUP6 ADD ADD PUSH2 0x43D DUP2 DUP4 DUP7 PUSH2 0x572 JUMP JUMPDEST POP POP POP POP POP POP POP POP POP SWAP2 SWAP1 POP JUMP JUMPDEST PUSH2 0x453 PUSH2 0x63D JUMP JUMPDEST PUSH1 0x40 MLOAD DUP1 PUSH2 0x140 ADD PUSH1 0x40 MSTORE DUP1 PUSH2 0x467 PUSH2 0x26A JUMP JUMPDEST PUSH1 0x1 PUSH1 0x1 PUSH1 0xA0 SHL SUB AND DUP2 MSTORE PUSH1 0x20 ADD DUP9 DUP2 MSTORE PUSH1 0x20 ADD DUP8 DUP2 MSTORE PUSH1 0x20 ADD DUP7 PUSH1 0x0 DUP2 MLOAD DUP2 LT PUSH2 0x48E JUMPI INVALID JUMPDEST PUSH1 0x20 MUL PUSH1 0x20 ADD ADD MLOAD PUSH1 0x1 PUSH1 0x1 PUSH1 0xA0 SHL SUB AND DUP2 MSTORE PUSH1 0x20 ADD DUP7 PUSH1 0x1 DUP2 MLOAD DUP2 LT PUSH2 0x4B1 JUMPI INVALID JUMPDEST PUSH1 0x20 MUL PUSH1 0x20 ADD ADD MLOAD PUSH1 0x1 PUSH1 0x1 PUSH1 0xA0 SHL SUB AND DUP2 MSTORE PUSH1 0x20 ADD DUP6 DUP2 MSTORE PUSH1 0x20 ADD PUSH3 0x76A700 DUP2 MSTORE PUSH1 0x20 ADD PUSH3 0x278D00 DUP2 MSTORE PUSH1 0x20 ADD DUP5 ISZERO ISZERO DUP2 MSTORE PUSH1 0x20 ADD DUP4 PUSH1 0x1 PUSH1 0x1 PUSH1 0xA0 SHL SUB AND DUP2 MSTORE POP SWAP1 POP SWAP7 SWAP6 POP POP POP POP POP POP JUMP JUMPDEST PUSH1 0x0 DUP1 PUSH2 0x50C DUP4 PUSH2 0x5B0 JUMP JUMPDEST PUSH1 0x1 PUSH1 0x1 PUSH1 0xA0 SHL SUB DUP2 AND PUSH1 0x0 DUP2 DUP2 MSTORE PUSH1 0x20 DUP2 SWAP1 MSTORE PUSH1 0x40 DUP1 DUP3 KECCAK256 DUP1 SLOAD PUSH1 0xFF NOT AND PUSH1 0x1 OR SWAP1 SSTORE MLOAD SWAP3 SWAP4 POP SWAP1 SWAP2 PUSH32 0x83A48FBCFC991335314E74D0496AAB6A1987E992DDC85DDDBCC4D6DD6EF2E9FC SWAP2 SWAP1 LOG2 SWAP3 SWAP2 POP POP JUMP JUMPDEST DUP2 PUSH2 0x56E JUMPI PUSH2 0x56E DUP2 PUSH2 0x5EA JUMP JUMPDEST POP POP JUMP JUMPDEST JUMPDEST PUSH1 0x20 DUP2 LT PUSH2 0x592 JUMPI DUP2 MLOAD DUP4 MSTORE PUSH1 0x20 SWAP3 DUP4 ADD SWAP3 SWAP1 SWAP2 ADD SWAP1 PUSH1 0x1F NOT ADD PUSH2 0x573 JUMP JUMPDEST SWAP1 MLOAD DUP3 MLOAD PUSH1 0x20 SWAP3 SWAP1 SWAP3 SUB PUSH2 0x100 EXP PUSH1 0x0 NOT ADD DUP1 NOT SWAP1 SWAP2 AND SWAP2 AND OR SWAP1 MSTORE JUMP JUMPDEST PUSH1 0x0 DUP1 PUSH2 0x5BC DUP4 PUSH2 0x372 JUMP JUMPDEST SWAP1 POP PUSH1 0x0 DUP2 MLOAD PUSH1 0x20 DUP4 ADD PUSH1 0x0 CREATE SWAP1 POP PUSH1 0x1 PUSH1 0x1 PUSH1 0xA0 SHL SUB DUP2 AND PUSH2 0x5E3 JUMPI RETURNDATASIZE PUSH1 0x0 DUP1 RETURNDATACOPY RETURNDATASIZE PUSH1 0x0 REVERT JUMPDEST SWAP4 SWAP3 POP POP POP JUMP JUMPDEST PUSH3 0x461BCD PUSH1 0xE5 SHL PUSH1 0x0 SWAP1 DUP2 MSTORE PUSH1 0x20 PUSH1 0x4 MSTORE PUSH1 0x7 PUSH1 0x24 MSTORE PUSH7 0x42414C23000030 PUSH1 0xA DUP1 DUP5 DIV DUP2 DUP2 MOD PUSH1 0x30 SWAP1 DUP2 ADD PUSH1 0x8 SHL SWAP6 DUP4 SWAP1 MOD SWAP6 SWAP1 SWAP6 ADD SWAP1 DUP3 SWAP1 DIV SWAP2 DUP3 MOD SWAP1 SWAP5 ADD PUSH1 0x10 SHL SWAP4 SWAP1 SWAP4 ADD ADD PUSH1 0xC8 SHL PUSH1 0x44 MSTORE PUSH1 0x64 SWAP1 REVERT JUMPDEST PUSH1 0x40 MLOAD DUP1 PUSH2 0x140 ADD PUSH1 0x40 MSTORE DUP1 PUSH1 0x0 PUSH1 0x1 PUSH1 0x1 PUSH1 0xA0 SHL SUB AND DUP2 MSTORE PUSH1 0x20 ADD PUSH1 0x60 DUP2 MSTORE PUSH1 0x20 ADD PUSH1 0x60 DUP2 MSTORE PUSH1 0x20 ADD PUSH1 0x0 PUSH1 0x1 PUSH1 0x1 PUSH1 0xA0 SHL SUB AND DUP2 MSTORE PUSH1 0x20 ADD PUSH1 0x0 PUSH1 0x1 PUSH1 0x1 PUSH1 0xA0 SHL SUB AND DUP2 MSTORE PUSH1 0x20 ADD PUSH1 0x0 DUP2 MSTORE PUSH1 0x20 ADD PUSH1 0x0 DUP2 MSTORE PUSH1 0x20 ADD PUSH1 0x0 DUP2 MSTORE PUSH1 0x20 ADD PUSH1 0x0 ISZERO ISZERO DUP2 MSTORE PUSH1 0x20 ADD PUSH1 0x0 PUSH1 0x1 PUSH1 0x1 PUSH1 0xA0 SHL SUB AND DUP2 MSTORE POP SWAP1 JUMP JUMPDEST DUP1 CALLDATALOAD PUSH2 0x265 DUP2 PUSH2 0xC70 JUMP JUMPDEST PUSH1 0x0 DUP3 PUSH1 0x1F DUP4 ADD SLT PUSH2 0x6D1 JUMPI DUP1 DUP2 REVERT JUMPDEST DUP2 CALLDATALOAD PUSH1 0x20 PUSH8 0xFFFFFFFFFFFFFFFF DUP3 GT ISZERO PUSH2 0x6E7 JUMPI INVALID JUMPDEST DUP1 DUP3 MUL PUSH2 0x6F5 DUP3 DUP3 ADD PUSH2 0xC4C JUMP JUMPDEST DUP4 DUP2 MSTORE DUP3 DUP2 ADD SWAP1 DUP7 DUP5 ADD DUP4 DUP9 ADD DUP6 ADD DUP10 LT ISZERO PUSH2 0x70F JUMPI DUP7 DUP8 REVERT JUMPDEST DUP7 SWAP4 POP JUMPDEST DUP6 DUP5 LT ISZERO PUSH2 0x73A JUMPI DUP1 CALLDATALOAD PUSH2 0x726 DUP2 PUSH2 0xC70 JUMP JUMPDEST DUP4 MSTORE PUSH1 0x1 SWAP4 SWAP1 SWAP4 ADD SWAP3 SWAP2 DUP5 ADD SWAP2 DUP5 ADD PUSH2 0x713 JUMP JUMPDEST POP SWAP8 SWAP7 POP POP POP POP POP POP POP JUMP JUMPDEST DUP1 CALLDATALOAD DUP1 ISZERO ISZERO DUP2 EQ PUSH2 0x265 JUMPI PUSH1 0x0 DUP1 REVERT JUMPDEST PUSH1 0x0 DUP3 PUSH1 0x1F DUP4 ADD SLT PUSH2 0x766 JUMPI DUP1 DUP2 REVERT JUMPDEST DUP2 CALLDATALOAD PUSH8 0xFFFFFFFFFFFFFFFF DUP2 GT ISZERO PUSH2 0x77A JUMPI INVALID JUMPDEST PUSH2 0x78D PUSH1 0x1F DUP3 ADD PUSH1 0x1F NOT AND PUSH1 0x20 ADD PUSH2 0xC4C JUMP JUMPDEST DUP2 DUP2 MSTORE DUP5 PUSH1 0x20 DUP4 DUP7 ADD ADD GT ISZERO PUSH2 0x7A1 JUMPI DUP3 DUP4 REVERT JUMPDEST DUP2 PUSH1 0x20 DUP6 ADD PUSH1 0x20 DUP4 ADD CALLDATACOPY SWAP1 DUP2 ADD PUSH1 0x20 ADD SWAP2 SWAP1 SWAP2 MSTORE SWAP3 SWAP2 POP POP JUMP JUMPDEST PUSH1 0x0 PUSH2 0x120 DUP3 DUP5 SUB SLT ISZERO PUSH2 0x7CD JUMPI DUP1 DUP2 REVERT JUMPDEST PUSH1 0x40 MLOAD PUSH1 0xE0 DUP2 ADD DUP2 DUP2 LT PUSH8 0xFFFFFFFFFFFFFFFF DUP3 GT OR ISZERO PUSH2 0x7EA JUMPI INVALID JUMPDEST PUSH1 0x40 MSTORE SWAP1 POP DUP1 PUSH2 0x7FA DUP5 DUP5 PUSH2 0x8B1 JUMP JUMPDEST DUP2 MSTORE PUSH2 0x809 DUP5 PUSH1 0x40 DUP6 ADD PUSH2 0x8B1 JUMP JUMPDEST PUSH1 0x20 DUP3 ADD MSTORE PUSH1 0x80 DUP4 ADD CALLDATALOAD PUSH1 0x40 DUP3 ADD MSTORE PUSH1 0xA0 DUP4 ADD CALLDATALOAD PUSH1 0x60 DUP3 ADD MSTORE PUSH1 0xC0 DUP4 ADD CALLDATALOAD PUSH1 0x80 DUP3 ADD MSTORE PUSH1 0xE0 DUP4 ADD CALLDATALOAD PUSH1 0xA0 DUP3 ADD MSTORE PUSH2 0x100 DUP4 ADD CALLDATALOAD PUSH1 0xC0 DUP3 ADD MSTORE POP SWAP3 SWAP2 POP POP JUMP JUMPDEST PUSH1 0x0 PUSH1 0xA0 DUP3 DUP5 SUB SLT ISZERO PUSH2 0x859 JUMPI DUP1 DUP2 REVERT JUMPDEST PUSH1 0x40 MLOAD PUSH1 0xA0 DUP2 ADD DUP2 DUP2 LT PUSH8 0xFFFFFFFFFFFFFFFF DUP3 GT OR ISZERO PUSH2 0x876 JUMPI INVALID JUMPDEST DUP1 PUSH1 0x40 MSTORE POP DUP1 SWAP2 POP DUP3 CALLDATALOAD DUP2 MSTORE PUSH1 0x20 DUP4 ADD CALLDATALOAD PUSH1 0x20 DUP3 ADD MSTORE PUSH1 0x40 DUP4 ADD CALLDATALOAD PUSH1 0x40 DUP3 ADD MSTORE PUSH1 0x60 DUP4 ADD CALLDATALOAD PUSH1 0x60 DUP3 ADD MSTORE PUSH1 0x80 DUP4 ADD CALLDATALOAD PUSH1 0x80 DUP3 ADD MSTORE POP SWAP3 SWAP2 POP POP JUMP JUMPDEST PUSH1 0x0 PUSH1 0x40 DUP3 DUP5 SUB SLT ISZERO PUSH2 0x8C2 JUMPI DUP1 DUP2 REVERT JUMPDEST PUSH1 0x40 MLOAD PUSH1 0x40 DUP2 ADD DUP2 DUP2 LT PUSH8 0xFFFFFFFFFFFFFFFF DUP3 GT OR ISZERO PUSH2 0x8DF JUMPI INVALID JUMPDEST PUSH1 0x40 MSTORE DUP3 CALLDATALOAD DUP2 MSTORE PUSH1 0x20 SWAP3 DUP4 ADD CALLDATALOAD SWAP3 DUP2 ADD SWAP3 SWAP1 SWAP3 MSTORE POP SWAP2 SWAP1 POP JUMP JUMPDEST PUSH1 0x0 PUSH1 0x20 DUP3 DUP5 SUB SLT ISZERO PUSH2 0x90A JUMPI DUP1 DUP2 REVERT JUMPDEST DUP2 CALLDATALOAD PUSH2 0x5E3 DUP2 PUSH2 0xC70 JUMP JUMPDEST PUSH1 0x0 DUP1 PUSH1 0x0 DUP1 PUSH1 0x0 DUP1 PUSH1 0x0 DUP1 PUSH2 0x280 DUP10 DUP12 SUB SLT ISZERO PUSH2 0x931 JUMPI DUP4 DUP5 REVERT JUMPDEST DUP9 CALLDATALOAD PUSH8 0xFFFFFFFFFFFFFFFF DUP1 DUP3 GT ISZERO PUSH2 0x948 JUMPI DUP6 DUP7 REVERT JUMPDEST PUSH2 0x954 DUP13 DUP4 DUP14 ADD PUSH2 0x756 JUMP JUMPDEST SWAP10 POP PUSH1 0x20 DUP12 ADD CALLDATALOAD SWAP2 POP DUP1 DUP3 GT ISZERO PUSH2 0x969 JUMPI DUP6 DUP7 REVERT JUMPDEST PUSH2 0x975 DUP13 DUP4 DUP14 ADD PUSH2 0x756 JUMP JUMPDEST SWAP9 POP PUSH1 0x40 DUP12 ADD CALLDATALOAD SWAP2 POP DUP1 DUP3 GT ISZERO PUSH2 0x98A JUMPI DUP6 DUP7 REVERT JUMPDEST POP PUSH2 0x997 DUP12 DUP3 DUP13 ADD PUSH2 0x6C1 JUMP JUMPDEST SWAP7 POP POP PUSH2 0x9A7 DUP11 PUSH1 0x60 DUP12 ADD PUSH2 0x848 JUMP JUMPDEST SWAP5 POP PUSH2 0x9B7 DUP11 PUSH2 0x100 DUP12 ADD PUSH2 0x7BB JUMP JUMPDEST SWAP4 POP PUSH2 0x220 DUP10 ADD CALLDATALOAD SWAP3 POP PUSH2 0x9CE PUSH2 0x240 DUP11 ADD PUSH2 0x746 JUMP JUMPDEST SWAP2 POP PUSH2 0x9DD PUSH2 0x260 DUP11 ADD PUSH2 0x6B6 JUMP JUMPDEST SWAP1 POP SWAP3 SWAP6 SWAP9 POP SWAP3 SWAP6 SWAP9 SWAP1 SWAP4 SWAP7 POP JUMP JUMPDEST PUSH1 0x1 PUSH1 0x1 PUSH1 0xA0 SHL SUB AND SWAP1 MSTORE JUMP JUMPDEST ISZERO ISZERO SWAP1 MSTORE JUMP JUMPDEST PUSH1 0x0 DUP2 MLOAD DUP1 DUP5 MSTORE DUP2 JUMPDEST DUP2 DUP2 LT ISZERO PUSH2 0xA24 JUMPI PUSH1 0x20 DUP2 DUP6 ADD DUP2 ADD MLOAD DUP7 DUP4 ADD DUP3 ADD MSTORE ADD PUSH2 0xA08 JUMP JUMPDEST DUP2 DUP2 GT ISZERO PUSH2 0xA35 JUMPI DUP3 PUSH1 0x20 DUP4 DUP8 ADD ADD MSTORE JUMPDEST POP PUSH1 0x1F ADD PUSH1 0x1F NOT AND SWAP3 SWAP1 SWAP3 ADD PUSH1 0x20 ADD SWAP3 SWAP2 POP POP JUMP JUMPDEST PUSH2 0xA55 DUP3 DUP3 MLOAD PUSH2 0xACF JUMP JUMPDEST PUSH1 0x20 DUP2 ADD MLOAD PUSH2 0xA67 PUSH1 0x40 DUP5 ADD DUP3 PUSH2 0xACF JUMP JUMPDEST POP PUSH1 0x40 DUP2 ADD MLOAD PUSH1 0x80 DUP4 ADD MSTORE PUSH1 0x60 DUP2 ADD MLOAD PUSH1 0xA0 DUP4 ADD MSTORE PUSH1 0x80 DUP2 ADD MLOAD PUSH1 0xC0 DUP4 ADD MSTORE PUSH1 0xA0 DUP2 ADD MLOAD PUSH1 0xE0 DUP4 ADD MSTORE PUSH1 0xC0 DUP2 ADD MLOAD PUSH2 0x100 DUP4 ADD MSTORE POP POP JUMP JUMPDEST DUP1 MLOAD DUP3 MSTORE PUSH1 0x20 DUP2 ADD MLOAD PUSH1 0x20 DUP4 ADD MSTORE PUSH1 0x40 DUP2 ADD MLOAD PUSH1 0x40 DUP4 ADD MSTORE PUSH1 0x60 DUP2 ADD MLOAD PUSH1 0x60 DUP4 ADD MSTORE PUSH1 0x80 DUP2 ADD MLOAD PUSH1 0x80 DUP4 ADD MSTORE POP POP JUMP JUMPDEST DUP1 MLOAD DUP3 MSTORE PUSH1 0x20 SWAP1 DUP2 ADD MLOAD SWAP2 ADD MSTORE JUMP JUMPDEST PUSH1 0x1 PUSH1 0x1 PUSH1 0xA0 SHL SUB SWAP2 SWAP1 SWAP2 AND DUP2 MSTORE PUSH1 0x20 ADD SWAP1 JUMP JUMPDEST PUSH1 0x1 PUSH1 0x1 PUSH1 0xA0 SHL SUB SWAP3 DUP4 AND DUP2 MSTORE SWAP2 AND PUSH1 0x20 DUP3 ADD MSTORE PUSH1 0x40 ADD SWAP1 JUMP JUMPDEST SWAP1 ISZERO ISZERO DUP2 MSTORE PUSH1 0x20 ADD SWAP1 JUMP JUMPDEST PUSH1 0x0 PUSH1 0x20 DUP3 MSTORE PUSH2 0x5E3 PUSH1 0x20 DUP4 ADD DUP5 PUSH2 0x9FF JUMP JUMPDEST PUSH1 0x0 PUSH1 0x40 DUP3 MSTORE DUP4 MLOAD PUSH2 0x1E0 PUSH1 0x40 DUP5 ADD MSTORE PUSH2 0xB49 PUSH2 0x220 DUP5 ADD DUP3 MLOAD PUSH2 0x9EC JUMP JUMPDEST PUSH1 0x20 DUP2 ADD MLOAD PUSH2 0x140 PUSH2 0x240 DUP6 ADD MSTORE PUSH2 0xB65 PUSH2 0x360 DUP6 ADD DUP3 PUSH2 0x9FF JUMP JUMPDEST SWAP1 POP PUSH1 0x40 DUP3 ADD MLOAD PUSH2 0x21F NOT DUP6 DUP4 SUB ADD PUSH2 0x260 DUP7 ADD MSTORE PUSH2 0xB84 DUP3 DUP3 PUSH2 0x9FF JUMP JUMPDEST SWAP2 POP POP PUSH1 0x60 DUP3 ADD MLOAD PUSH2 0xB9A PUSH2 0x280 DUP7 ADD DUP3 PUSH2 0x9EC JUMP JUMPDEST POP PUSH1 0x80 DUP3 ADD MLOAD PUSH2 0xBAE PUSH2 0x2A0 DUP7 ADD DUP3 PUSH2 0x9EC JUMP JUMPDEST POP PUSH1 0xA0 DUP3 ADD MLOAD PUSH2 0x2C0 DUP6 ADD MSTORE PUSH1 0xC0 DUP3 ADD MLOAD PUSH2 0x2E0 DUP6 ADD MSTORE PUSH1 0xE0 DUP3 ADD MLOAD PUSH2 0x300 DUP6 ADD MSTORE PUSH2 0x100 DUP1 DUP4 ADD MLOAD PUSH2 0xBE5 PUSH2 0x320 DUP8 ADD DUP3 PUSH2 0x9F9 JUMP JUMPDEST POP PUSH2 0x120 DUP4 ADD MLOAD SWAP3 POP PUSH2 0xBFC PUSH2 0x340 DUP7 ADD DUP5 PUSH2 0x9EC JUMP JUMPDEST PUSH1 0x20 DUP8 ADD MLOAD SWAP3 POP PUSH2 0xC10 PUSH1 0x60 DUP7 ADD DUP5 PUSH2 0xA9F JUMP JUMPDEST PUSH1 0x40 DUP8 ADD MLOAD SWAP3 POP PUSH2 0xC23 DUP2 DUP7 ADD DUP5 PUSH2 0xA4A JUMP JUMPDEST POP SWAP2 POP PUSH2 0x5E3 SWAP1 POP PUSH1 0x20 DUP4 ADD DUP5 PUSH2 0x9EC JUMP JUMPDEST SWAP1 DUP2 MSTORE PUSH1 0x20 ADD SWAP1 JUMP JUMPDEST SWAP2 DUP3 MSTORE PUSH1 0x20 DUP3 ADD MSTORE PUSH1 0x40 ADD SWAP1 JUMP JUMPDEST PUSH1 0x40 MLOAD DUP2 DUP2 ADD PUSH8 0xFFFFFFFFFFFFFFFF DUP2 GT DUP3 DUP3 LT OR ISZERO PUSH2 0xC68 JUMPI INVALID JUMPDEST PUSH1 0x40 MSTORE SWAP2 SWAP1 POP JUMP JUMPDEST PUSH1 0x1 PUSH1 0x1 PUSH1 0xA0 SHL SUB DUP2 AND DUP2 EQ PUSH2 0xC85 JUMPI PUSH1 0x0 DUP1 REVERT JUMPDEST POP JUMP INVALID LOG2 PUSH5 0x6970667358 0x22 SLT KECCAK256 EXTCODEHASH CALLDATALOAD 0x21 DUP9 STOP 0xCE DUP12 PUSH20 0x7D30D27445B71DE20D00A8713D521AC6CAE9D205 SWAP9 0xEE GAS 0xCC PUSH5 0x736F6C6343 STOP SMOD MOD STOP CALLER ","sha1":"a2e38b6ab007a5bbb039987f5d6156a84677018d","source":"// SPDX-License-Identifier: GPL-3.0-or-later\n// This program is free software: you can redistribute it and/or modify\n// it under the terms of the GNU General Public License as published by\n// the Free Software Foundation, either version 3 of the License, or\n// (at your option) any later version.\n\n// This program is distributed in the hope that it will be useful,\n// but WITHOUT ANY WARRANTY; without even the implied warranty of\n// MERCHANTABILITY or FITNESS FOR A PARTICULAR PURPOSE.  See the\n// GNU General Public License for more details.\n\n// You should have received a copy of the GNU General Public License\n// along with this program.  If not, see <http://www.gnu.org/licenses/>.\n\npragma solidity 0.7.6;\npragma experimental ABIEncoderV2;\n\nimport \"@balancer-labs/v2-vault/contracts/interfaces/IVault.sol\";\n\nimport \"@balancer-labs/v2-pool-utils/contracts/factories/BasePoolSplitCodeFactory.sol\";\nimport \"@balancer-labs/v2-pool-utils/contracts/factories/FactoryWidePauseWindow.sol\";\n\nimport \"../../interfaces/IGyroCEMMPoolFactory.sol\";\nimport \"../../interfaces/ICappedLiquidity.sol\";\nimport \"./GyroCEMMPool.sol\";\n\ncontract GyroCEMMPoolFactory is IGyroCEMMPoolFactory, BasePoolSplitCodeFactory, FactoryWidePauseWindow {\n    address public immutable gyroConfigAddress;\n\n    uint256 public constant PAUSE_WINDOW_DURATION = 90 days;\n    uint256 public constant BUFFER_PERIOD_DURATION = 30 days;\n\n    constructor(IVault vault, address _gyroConfigAddress) BasePoolSplitCodeFactory(vault, type(GyroCEMMPool).creationCode) {\n        _grequire(_gyroConfigAddress != address(0), GyroErrors.ZERO_ADDRESS);\n        _grequire(address(vault) != address(0), GyroErrors.ZERO_ADDRESS);\n        gyroConfigAddress = _gyroConfigAddress;\n    }\n\n    /**\n     * @dev Deploys a new `GyroCEMMPool`.\n     */\n    function create(\n        string memory name,\n        string memory symbol,\n        IERC20[] memory tokens,\n        GyroCEMMMath.Params memory cemmParams,\n        GyroCEMMMath.DerivedParams memory derivedCemmParams,\n        uint256 swapFeePercentage,\n        bool oracleEnabled,\n        address owner\n    ) external override returns (address) {\n        ExtensibleWeightedPool2Tokens.NewPoolParams memory baseParams = _makePoolParams(\n            name,\n            symbol,\n            tokens,\n            swapFeePercentage,\n            oracleEnabled,\n            owner\n        );\n\n        GyroCEMMPool.GyroParams memory params = GyroCEMMPool.GyroParams({\n            baseParams: baseParams,\n            cemmParams: cemmParams,\n            derivedCemmParams: derivedCemmParams\n        });\n\n        return _create(abi.encode(params, gyroConfigAddress));\n    }\n\n    function _makePoolParams(\n        string memory name,\n        string memory symbol,\n        IERC20[] memory tokens,\n        uint256 swapFeePercentage,\n        bool oracleEnabled,\n        address owner\n    ) internal view returns (ExtensibleWeightedPool2Tokens.NewPoolParams memory) {\n        return\n            ExtensibleWeightedPool2Tokens.NewPoolParams({\n                vault: getVault(),\n                name: name,\n                symbol: symbol,\n                token0: tokens[0],\n                token1: tokens[1],\n                swapFeePercentage: swapFeePercentage,\n                pauseWindowDuration: PAUSE_WINDOW_DURATION,\n                bufferPeriodDuration: BUFFER_PERIOD_DURATION,\n                oracleEnabled: oracleEnabled,\n                owner: owner\n            });\n    }\n}\n","sourcePath":"contracts/cemm/GyroCEMMPoolFactory.sol","type":"contract","deployment":{"address":"0xeEe2e20C97633f473A063e3de4807f3F974DBC6c","chainid":"5","blockHeight":7668885}}