{"abi":[{"inputs":[{"internalType":"contract IAuthorizer","name":"authorizer","type":"address"}],"stateMutability":"nonpayable","type":"constructor","name":"constructor"},{"anonymous":false,"inputs":[{"indexed":true,"internalType":"bytes32","name":"poolId","type":"bytes32"},{"indexed":true,"internalType":"address","name":"liquidityProvider","type":"address"},{"indexed":false,"internalType":"contract IERC20[]","name":"tokens","type":"address[]"},{"indexed":false,"internalType":"int256[]","name":"deltas","type":"int256[]"},{"indexed":false,"internalType":"uint256[]","name":"protocolFees","type":"uint256[]"}],"name":"PoolBalanceChanged","type":"event"},{"anonymous":false,"inputs":[{"indexed":true,"internalType":"bytes32","name":"poolId","type":"bytes32"},{"indexed":true,"internalType":"contract IERC20","name":"tokenIn","type":"address"},{"indexed":true,"internalType":"contract IERC20","name":"tokenOut","type":"address"},{"indexed":false,"internalType":"uint256","name":"amount","type":"uint256"}],"name":"Swap","type":"event"},{"inputs":[{"internalType":"contract IBasePool","name":"pool","type":"address"},{"internalType":"bytes32","name":"poolId","type":"bytes32"},{"internalType":"address","name":"sender","type":"address"},{"internalType":"address","name":"recipient","type":"address"},{"internalType":"uint256[]","name":"currentBalances","type":"uint256[]"},{"internalType":"uint256","name":"lastChangeBlock","type":"uint256"},{"internalType":"uint256","name":"protocolSwapFeePercentage","type":"uint256"},{"internalType":"uint256","name":"bptAmountIn","type":"uint256"}],"name":"callExitPoolGyro","outputs":[{"internalType":"uint256[]","name":"amountsOut","type":"uint256[]"},{"internalType":"uint256[]","name":"dueProtocolFeeAmounts","type":"uint256[]"}],"stateMutability":"nonpayable","type":"function"},{"inputs":[{"internalType":"address","name":"pool","type":"address"},{"components":[{"internalType":"enum IVault.SwapKind","name":"kind","type":"uint8"},{"internalType":"contract IERC20","name":"tokenIn","type":"address"},{"internalType":"contract IERC20","name":"tokenOut","type":"address"},{"internalType":"uint256","name":"amount","type":"uint256"},{"internalType":"bytes32","name":"poolId","type":"bytes32"},{"internalType":"uint256","name":"lastChangeBlock","type":"uint256"},{"internalType":"address","name":"from","type":"address"},{"internalType":"address","name":"to","type":"address"},{"internalType":"bytes","name":"userData","type":"bytes"}],"internalType":"struct IPoolSwapStructs.SwapRequest","name":"request","type":"tuple"},{"internalType":"uint256[]","name":"balances","type":"uint256[]"},{"internalType":"uint256","name":"indexIn","type":"uint256"},{"internalType":"uint256","name":"indexOut","type":"uint256"}],"name":"callGeneralPoolSwap","outputs":[],"stateMutability":"nonpayable","type":"function"},{"inputs":[{"components":[{"internalType":"contract IBasePool","name":"pool","type":"address"},{"internalType":"bytes32","name":"poolId","type":"bytes32"},{"internalType":"address","name":"sender","type":"address"},{"internalType":"address","name":"recipient","type":"address"},{"internalType":"uint256[]","name":"currentBalances","type":"uint256[]"},{"internalType":"uint256","name":"lastChangeBlock","type":"uint256"},{"internalType":"uint256","name":"protocolSwapFeePercentage","type":"uint256"},{"internalType":"uint256[]","name":"amountsIn","type":"uint256[]"},{"internalType":"uint256","name":"bptOut","type":"uint256"}],"internalType":"struct MockVault.CallJoinPoolGyroParams","name":"params","type":"tuple"}],"name":"callJoinPoolGyro","outputs":[{"internalType":"uint256[]","name":"amountsIn","type":"uint256[]"},{"internalType":"uint256[]","name":"dueProtocolFeeAmounts","type":"uint256[]"}],"stateMutability":"nonpayable","type":"function"},{"inputs":[{"internalType":"address","name":"poolAddress","type":"address"},{"components":[{"internalType":"enum IVault.SwapKind","name":"kind","type":"uint8"},{"internalType":"contract IERC20","name":"tokenIn","type":"address"},{"internalType":"contract IERC20","name":"tokenOut","type":"address"},{"internalType":"uint256","name":"amount","type":"uint256"},{"internalType":"bytes32","name":"poolId","type":"bytes32"},{"internalType":"uint256","name":"lastChangeBlock","type":"uint256"},{"internalType":"address","name":"from","type":"address"},{"internalType":"address","name":"to","type":"address"},{"internalType":"bytes","name":"userData","type":"bytes"}],"internalType":"struct IPoolSwapStructs.SwapRequest","name":"request","type":"tuple"},{"internalType":"uint256","name":"balanceTokenIn","type":"uint256"},{"internalType":"uint256","name":"balanceTokenOut","type":"uint256"}],"name":"callMinimalGyroPoolSwap","outputs":[],"stateMutability":"nonpayable","type":"function"},{"inputs":[{"internalType":"address","name":"pool","type":"address"},{"components":[{"internalType":"enum IVault.SwapKind","name":"kind","type":"uint8"},{"internalType":"contract IERC20","name":"tokenIn","type":"address"},{"internalType":"contract IERC20","name":"tokenOut","type":"address"},{"internalType":"uint256","name":"amount","type":"uint256"},{"internalType":"bytes32","name":"poolId","type":"bytes32"},{"internalType":"uint256","name":"lastChangeBlock","type":"uint256"},{"internalType":"address","name":"from","type":"address"},{"internalType":"address","name":"to","type":"address"},{"internalType":"bytes","name":"userData","type":"bytes"}],"internalType":"struct IPoolSwapStructs.SwapRequest","name":"request","type":"tuple"},{"internalType":"uint256","name":"balanceTokenIn","type":"uint256"},{"internalType":"uint256","name":"balanceTokenOut","type":"uint256"}],"name":"callMinimalPoolSwap","outputs":[],"stateMutability":"nonpayable","type":"function"},{"inputs":[],"name":"getAuthorizer","outputs":[{"internalType":"contract IAuthorizer","name":"","type":"address"}],"stateMutability":"view","type":"function"},{"inputs":[],"name":"getPoolId","outputs":[{"internalType":"bytes32","name":"","type":"bytes32"}],"stateMutability":"view","type":"function"},{"inputs":[{"internalType":"bytes32","name":"poolId","type":"bytes32"},{"internalType":"contract IERC20","name":"token","type":"address"}],"name":"getPoolTokenInfo","outputs":[{"internalType":"uint256","name":"cash","type":"uint256"},{"internalType":"uint256","name":"managed","type":"uint256"},{"internalType":"uint256","name":"lastChangeBlock","type":"uint256"},{"internalType":"address","name":"assetManager","type":"address"}],"stateMutability":"view","type":"function"},{"inputs":[{"internalType":"bytes32","name":"poolId","type":"bytes32"}],"name":"getPoolTokens","outputs":[{"internalType":"contract IERC20[]","name":"tokens","type":"address[]"},{"internalType":"uint256[]","name":"balances","type":"uint256[]"}],"stateMutability":"view","type":"function"},{"inputs":[{"internalType":"enum IVault.PoolSpecialization","name":"","type":"uint8"}],"name":"registerPool","outputs":[{"internalType":"bytes32","name":"","type":"bytes32"}],"stateMutability":"view","type":"function"},{"inputs":[{"internalType":"bytes32","name":"poolId","type":"bytes32"},{"internalType":"contract IERC20[]","name":"tokens","type":"address[]"},{"internalType":"address[]","name":"","type":"address[]"}],"name":"registerTokens","outputs":[],"stateMutability":"nonpayable","type":"function"},{"inputs":[{"internalType":"bytes32","name":"poolId","type":"bytes32"},{"internalType":"uint256[]","name":"balances","type":"uint256[]"}],"name":"updateBalances","outputs":[],"stateMutability":"nonpayable","type":"function"}],"bytecode":"608060405234801561001057600080fd5b5060405161185d38038061185d83398101604081905261002f91610054565b600080546001600160a01b0319166001600160a01b0392909216919091179055610082565b600060208284031215610065578081fd5b81516001600160a01b038116811461007b578182fd5b9392505050565b6117cc806100916000396000f3fe608060405234801561001057600080fd5b50600436106100b45760003560e01c8063aaabadc511610071578063aaabadc514610138578063b05f8e481461014d578063b8acd8ad14610170578063f76102db14610191578063f94d4668146101a4578063fb177ff5146101c5576100b4565b806309b2760f146100b95780630b08cf89146100e25780631865221a146100f757806338fff2d01461010a57806366a9c7d2146101125780638acd6b9d14610125575b600080fd5b6100cc6100c73660046112a7565b6101d8565b6040516100d991906115e9565b60405180910390f35b6100f56100f0366004610f84565b6101de565b005b6100f56101053660046111a7565b6102c6565b6100cc61033b565b6100f56101203660046110dd565b610340565b6100f5610133366004611008565b6103b5565b610140610537565b6040516100d99190611650565b61016061015b3660046111e1565b610546565b6040516100d99493929190611710565b61018361017e366004611210565b610574565b6040516100d99291906115d6565b6100f561019f366004611008565b6107d0565b6101b76101b23660046110c5565b6108b6565b6040516100d99291906115a8565b6101836101d33660046112cd565b610a18565b50600090565b60405162f64aa560e11b81526000906001600160a01b038716906301ec954a906102129088908890889088906004016116b2565b602060405180830381600087803b15801561022c57600080fd5b505af1158015610240573d6000803e3d6000fd5b505050506040513d601f19601f8201168201806040525081019061026491906113bc565b905084604001516001600160a01b031685602001516001600160a01b031686608001517faf6c437771b0b661385e6b30c82a76e9067d1c318485cf0f0c47aeb35a9a1de3846040516102b691906115e9565b60405180910390a4505050505050565b6000828152600160205260408120905b8251811015610335578281815181106102eb57fe5b602002602001015182600101600084600001848154811061030857fe5b60009182526020808320909101546001600160a01b031683528201929092526040019020556001016102d6565b50505050565b600090565b6000838152600160205260408120905b83518110156103ae578160000184828151811061036957fe5b60209081029190910181015182546001808201855560009485529290932090920180546001600160a01b0319166001600160a01b039093169290921790915501610350565b5050505050565b60808301516000908152600160208181526040808420818801516001600160a01b0390811686529381018352818520549288015190931684529092205490910180610401575050610335565b505060405163274b044360e21b81526000906001600160a01b03861690639d2c110c90610436908790879087906004016116eb565b602060405180830381600087803b15801561045057600080fd5b505af1158015610464573d6000803e3d6000fd5b505050506040513d601f19601f8201168201806040525081019061048891906113bc565b905083604001516001600160a01b031684602001516001600160a01b031685608001517faf6c437771b0b661385e6b30c82a76e9067d1c318485cf0f0c47aeb35a9a1de3846040516104da91906115e9565b60405180910390a4608084015160009081526001602081815260408084206060890151838a01516001600160a01b039081168752919094019092528084208054909301909255818701511682529020805491909103905550505050565b6000546001600160a01b031690565b60009182526001602081815260408085206001600160a01b0390941685529290910190528120549181908190565b60608060006001905060008185604051602001610592929190611664565b60408051601f19818403018152908290526374f3b00960e01b825291506001600160a01b038d16906374f3b009906105da908e908e908e908e908e908e908a906004016115f2565b600060405180830381600087803b1580156105f457600080fd5b505af1158015610608573d6000803e3d6000fd5b505050506040513d6000823e601f3d908101601f191682016040526106309190810190611065565b60008d81526001602052604081209296509094505b81548110156106ab5785818151811061065a57fe5b602002602001015182600101600084600001848154811061067757fe5b60009182526020808320909101546001600160a01b0316835282019290925260400190208054919091039055600101610645565b50600089516001600160401b03811180156106c557600080fd5b506040519080825280602002602001820160405280156106ef578160200160208202803683370190505b509050600086516001600160401b038111801561070b57600080fd5b50604051908082528060200260200182016040528015610735578160200160208202803683370190505b50905060005b87518110156107775787818151811061075057fe5b602002602001015182828151811061076457fe5b602090810291909101015260010161073b565b508c6001600160a01b03168e7fe5ce249087ce04f05a957192435400fd97868dba0e6a4b4c049abf8af80dae7884848a6040516107b69392919061153f565b60405180910390a350505050509850989650505050505050565b60405163274b044360e21b81526000906001600160a01b03861690639d2c110c90610803908790879087906004016116eb565b602060405180830381600087803b15801561081d57600080fd5b505af1158015610831573d6000803e3d6000fd5b505050506040513d601f19601f8201168201806040525081019061085591906113bc565b905083604001516001600160a01b031684602001516001600160a01b031685608001517faf6c437771b0b661385e6b30c82a76e9067d1c318485cf0f0c47aeb35a9a1de3846040516108a791906115e9565b60405180910390a45050505050565b6000818152600160205260409020805460609182916001600160401b03811180156108e057600080fd5b5060405190808252806020026020018201604052801561090a578160200160208202803683370190505b5081549093506001600160401b038111801561092557600080fd5b5060405190808252806020026020018201604052801561094f578160200160208202803683370190505b50915060005b8154811015610a115781600001818154811061096d57fe5b9060005260206000200160009054906101000a90046001600160a01b031684828151811061099757fe5b60200260200101906001600160a01b031690816001600160a01b0316815250508160010160008583815181106109c957fe5b60200260200101516001600160a01b03166001600160a01b03168152602001908152602001600020548382815181106109fe57fe5b6020908102919091010152600101610955565b5050915091565b6060806000816001825b866080015151811015610a5d57818015610a53575086608001518181518110610a4757fe5b60200260200101516000145b9150600101610a22565b508015610a995760e086015160405160009450610a83918591629896809060200161167b565b6040516020818303038152906040529150610ac6565b61010086015160405160039450610ab4918591602001611664565b60405160208183030381529060405291505b5084516020860151604080880151606089015160808a015160a08b015160c08c0151945163357025b160e21b81526001600160a01b039097169663d5c096c496610b1a969095949392918a906004016115f2565b600060405180830381600087803b158015610b3457600080fd5b505af1158015610b48573d6000803e3d6000fd5b505050506040513d6000823e601f3d908101601f19168201604052610b709190810190611065565b60208088015160009081526001909152604081209296509094505b8154811015610bf057858181518110610ba057fe5b6020026020010151826001016000846000018481548110610bbd57fe5b60009182526020808320909101546001600160a01b03168352820192909252604001902080549091019055600101610b8b565b5060008660800151516001600160401b0381118015610c0e57600080fd5b50604051908082528060200260200182016040528015610c38578160200160208202803683370190505b509050600086516001600160401b0381118015610c5457600080fd5b50604051908082528060200260200182016040528015610c7e578160200160208202803683370190505b50905060005b8751811015610cc057878181518110610c9957fe5b6020026020010151828281518110610cad57fe5b6020908102919091010152600101610c84565b5087604001516001600160a01b031688602001517fe5ce249087ce04f05a957192435400fd97868dba0e6a4b4c049abf8af80dae7884848a604051610d079392919061153f565b60405180910390a35050505050915091565b8035610d2481611781565b919050565b600082601f830112610d39578081fd5b81356020610d4e610d4983611757565b611734565b8281528181019085830183850287018401881015610d6a578586fd5b855b85811015610d91578135610d7f81611781565b84529284019290840190600101610d6c565b5090979650505050505050565b600082601f830112610dae578081fd5b81356020610dbe610d4983611757565b8281528181019085830183850287018401881015610dda578586fd5b855b85811015610d9157813584529284019290840190600101610ddc565b600082601f830112610e08578081fd5b81516020610e18610d4983611757565b8281528181019085830183850287018401881015610e34578586fd5b855b85811015610d9157815184529284019290840190600101610e36565b600082601f830112610e62578081fd5b81356001600160401b03811115610e7557fe5b610e88601f8201601f1916602001611734565b818152846020838601011115610e9c578283fd5b816020850160208301379081016020019190915292915050565b803560028110610d2457600080fd5b6000610120808385031215610ed8578182fd5b610ee181611734565b915050610eed82610eb6565b8152610efb60208301610d19565b6020820152610f0c60408301610d19565b6040820152606082013560608201526080820135608082015260a082013560a0820152610f3b60c08301610d19565b60c0820152610f4c60e08301610d19565b60e0820152610100808301356001600160401b03811115610f6c57600080fd5b610f7885828601610e52565b82840152505092915050565b600080600080600060a08688031215610f9b578081fd5b8535610fa681611781565b945060208601356001600160401b0380821115610fc1578283fd5b610fcd89838a01610ec5565b95506040880135915080821115610fe2578283fd5b50610fef88828901610d9e565b9598949750949560608101359550608001359392505050565b6000806000806080858703121561101d578182fd5b843561102881611781565b935060208501356001600160401b03811115611042578283fd5b61104e87828801610ec5565b949794965050505060408301359260600135919050565b60008060408385031215611077578182fd5b82516001600160401b038082111561108d578384fd5b61109986838701610df8565b935060208501519150808211156110ae578283fd5b506110bb85828601610df8565b9150509250929050565b6000602082840312156110d6578081fd5b5035919050565b6000806000606084860312156110f1578081fd5b833592506020808501356001600160401b038082111561110f578384fd5b818701915087601f830112611122578384fd5b8135611130610d4982611757565b81815284810190848601868402860187018c101561114c578788fd5b8795505b8386101561117757803561116381611781565b835260019590950194918601918601611150565b5096505050604087013592508083111561118f578384fd5b505061119d86828701610d29565b9150509250925092565b600080604083850312156111b9578182fd5b8235915060208301356001600160401b038111156111d5578182fd5b6110bb85828601610d9e565b600080604083850312156111f3578182fd5b82359150602083013561120581611781565b809150509250929050565b600080600080600080600080610100898b03121561122c578586fd5b883561123781611781565b975060208901359650604089013561124e81611781565b9550606089013561125e81611781565b945060808901356001600160401b03811115611278578384fd5b6112848b828c01610d9e565b989b979a50959894979660a0860135965060c08601359560e00135945092505050565b6000602082840312156112b8578081fd5b8135600381106112c6578182fd5b9392505050565b6000602082840312156112de578081fd5b81356001600160401b03808211156112f4578283fd5b818401915061012080838703121561130a578384fd5b61131381611734565b905061131e83610d19565b81526020830135602082015261133660408401610d19565b604082015261134760608401610d19565b606082015260808301358281111561135d578485fd5b61136987828601610d9e565b60808301525060a083013560a082015260c083013560c082015260e083013582811115611394578485fd5b6113a087828601610d9e565b60e0830152506101009283013592810192909252509392505050565b6000602082840312156113cd578081fd5b5051919050565b6001600160a01b03169052565b6000815180845260208085019450808401835b838110156114195781516001600160a01b0316875295820195908201906001016113f4565b509495945050505050565b6000815180845260208085019450808401835b8381101561141957815187529582019590820190600101611437565b60008151808452815b818110156114785760208185018101518683018201520161145c565b818111156114895782602083870101525b50601f01601f19169290920160200192915050565b60006101208251600281106114af57fe5b8085525060208301516114c560208601826113d4565b5060408301516114d860408601826113d4565b50606083015160608501526080830151608085015260a083015160a085015260c083015161150960c08601826113d4565b5060e083015161151c60e08601826113d4565b5061010080840151828287015261153583870182611453565b9695505050505050565b60006060825261155260608301866113e1565b828103602084810191909152855180835286820192820190845b818110156115885784518352938301939183019160010161156c565b5050848103604086015261159c8187611424565b98975050505050505050565b6000604082526115bb60408301856113e1565b82810360208401526115cd8185611424565b95945050505050565b6000604082526115bb6040830185611424565b90815260200190565b8781526001600160a01b0387811660208301528616604082015260e06060820181905260009061162490830187611424565b8560808401528460a084015282810360c08401526116428185611453565b9a9950505050505050505050565b6001600160a01b0391909116815260200190565b6040810161167184611774565b9281526020015290565b600061168685611774565b8482526060602083015261169d6060830185611424565b905062ffffff83166040830152949350505050565b6000608082526116c5608083018761149e565b82810360208401526116d78187611424565b604084019590955250506060015292915050565b6000606082526116fe606083018661149e565b60208301949094525060400152919050565b938452602084019290925260408301526001600160a01b0316606082015260800190565b6040518181016001600160401b038111828210171561174f57fe5b604052919050565b60006001600160401b0382111561176a57fe5b5060209081020190565b6004811061177e57fe5b50565b6001600160a01b038116811461177e57600080fdfea26469706673582212207a19fe84b109382f8c302c81af14a2cbea7472d7e6d55a24ad279bc8199c544564736f6c63430007060033","bytecodeSha1":"57571d55e7845e69e1f7e8ee3f5ce66253ebaccb","compiler":{"evm_version":"berlin","optimizer":{"enabled":true,"runs":200},"version":"0.7.6+commit.7338295f"},"contractName":"MockVault","language":"Solidity","natspec":{"kind":"dev","methods":{},"version":1},"opcodes":"PUSH1 0x80 PUSH1 0x40 MSTORE CALLVALUE DUP1 ISZERO PUSH2 0x10 JUMPI PUSH1 0x0 DUP1 REVERT JUMPDEST POP PUSH1 0x4 CALLDATASIZE LT PUSH2 0xB4 JUMPI PUSH1 0x0 CALLDATALOAD PUSH1 0xE0 SHR DUP1 PUSH4 0xAAABADC5 GT PUSH2 0x71 JUMPI DUP1 PUSH4 0xAAABADC5 EQ PUSH2 0x138 JUMPI DUP1 PUSH4 0xB05F8E48 EQ PUSH2 0x14D JUMPI DUP1 PUSH4 0xB8ACD8AD EQ PUSH2 0x170 JUMPI DUP1 PUSH4 0xF76102DB EQ PUSH2 0x191 JUMPI DUP1 PUSH4 0xF94D4668 EQ PUSH2 0x1A4 JUMPI DUP1 PUSH4 0xFB177FF5 EQ PUSH2 0x1C5 JUMPI PUSH2 0xB4 JUMP JUMPDEST DUP1 PUSH4 0x9B2760F EQ PUSH2 0xB9 JUMPI DUP1 PUSH4 0xB08CF89 EQ PUSH2 0xE2 JUMPI DUP1 PUSH4 0x1865221A EQ PUSH2 0xF7 JUMPI DUP1 PUSH4 0x38FFF2D0 EQ PUSH2 0x10A JUMPI DUP1 PUSH4 0x66A9C7D2 EQ PUSH2 0x112 JUMPI DUP1 PUSH4 0x8ACD6B9D EQ PUSH2 0x125 JUMPI JUMPDEST PUSH1 0x0 DUP1 REVERT JUMPDEST PUSH2 0xCC PUSH2 0xC7 CALLDATASIZE PUSH1 0x4 PUSH2 0x12A7 JUMP JUMPDEST PUSH2 0x1D8 JUMP JUMPDEST PUSH1 0x40 MLOAD PUSH2 0xD9 SWAP2 SWAP1 PUSH2 0x15E9 JUMP JUMPDEST PUSH1 0x40 MLOAD DUP1 SWAP2 SUB SWAP1 RETURN JUMPDEST PUSH2 0xF5 PUSH2 0xF0 CALLDATASIZE PUSH1 0x4 PUSH2 0xF84 JUMP JUMPDEST PUSH2 0x1DE JUMP JUMPDEST STOP JUMPDEST PUSH2 0xF5 PUSH2 0x105 CALLDATASIZE PUSH1 0x4 PUSH2 0x11A7 JUMP JUMPDEST PUSH2 0x2C6 JUMP JUMPDEST PUSH2 0xCC PUSH2 0x33B JUMP JUMPDEST PUSH2 0xF5 PUSH2 0x120 CALLDATASIZE PUSH1 0x4 PUSH2 0x10DD JUMP JUMPDEST PUSH2 0x340 JUMP JUMPDEST PUSH2 0xF5 PUSH2 0x133 CALLDATASIZE PUSH1 0x4 PUSH2 0x1008 JUMP JUMPDEST PUSH2 0x3B5 JUMP JUMPDEST PUSH2 0x140 PUSH2 0x537 JUMP JUMPDEST PUSH1 0x40 MLOAD PUSH2 0xD9 SWAP2 SWAP1 PUSH2 0x1650 JUMP JUMPDEST PUSH2 0x160 PUSH2 0x15B CALLDATASIZE PUSH1 0x4 PUSH2 0x11E1 JUMP JUMPDEST PUSH2 0x546 JUMP JUMPDEST PUSH1 0x40 MLOAD PUSH2 0xD9 SWAP5 SWAP4 SWAP3 SWAP2 SWAP1 PUSH2 0x1710 JUMP JUMPDEST PUSH2 0x183 PUSH2 0x17E CALLDATASIZE PUSH1 0x4 PUSH2 0x1210 JUMP JUMPDEST PUSH2 0x574 JUMP JUMPDEST PUSH1 0x40 MLOAD PUSH2 0xD9 SWAP3 SWAP2 SWAP1 PUSH2 0x15D6 JUMP JUMPDEST PUSH2 0xF5 PUSH2 0x19F CALLDATASIZE PUSH1 0x4 PUSH2 0x1008 JUMP JUMPDEST PUSH2 0x7D0 JUMP JUMPDEST PUSH2 0x1B7 PUSH2 0x1B2 CALLDATASIZE PUSH1 0x4 PUSH2 0x10C5 JUMP JUMPDEST PUSH2 0x8B6 JUMP JUMPDEST PUSH1 0x40 MLOAD PUSH2 0xD9 SWAP3 SWAP2 SWAP1 PUSH2 0x15A8 JUMP JUMPDEST PUSH2 0x183 PUSH2 0x1D3 CALLDATASIZE PUSH1 0x4 PUSH2 0x12CD JUMP JUMPDEST PUSH2 0xA18 JUMP JUMPDEST POP PUSH1 0x0 SWAP1 JUMP JUMPDEST PUSH1 0x40 MLOAD PUSH3 0xF64AA5 PUSH1 0xE1 SHL DUP2 MSTORE PUSH1 0x0 SWAP1 PUSH1 0x1 PUSH1 0x1 PUSH1 0xA0 SHL SUB DUP8 AND SWAP1 PUSH4 0x1EC954A SWAP1 PUSH2 0x212 SWAP1 DUP9 SWAP1 DUP9 SWAP1 DUP9 SWAP1 DUP9 SWAP1 PUSH1 0x4 ADD PUSH2 0x16B2 JUMP JUMPDEST PUSH1 0x20 PUSH1 0x40 MLOAD DUP1 DUP4 SUB DUP2 PUSH1 0x0 DUP8 DUP1 EXTCODESIZE ISZERO DUP1 ISZERO PUSH2 0x22C JUMPI PUSH1 0x0 DUP1 REVERT JUMPDEST POP GAS CALL ISZERO DUP1 ISZERO PUSH2 0x240 JUMPI RETURNDATASIZE PUSH1 0x0 DUP1 RETURNDATACOPY RETURNDATASIZE PUSH1 0x0 REVERT JUMPDEST POP POP POP POP PUSH1 0x40 MLOAD RETURNDATASIZE PUSH1 0x1F NOT PUSH1 0x1F DUP3 ADD AND DUP3 ADD DUP1 PUSH1 0x40 MSTORE POP DUP2 ADD SWAP1 PUSH2 0x264 SWAP2 SWAP1 PUSH2 0x13BC JUMP JUMPDEST SWAP1 POP DUP5 PUSH1 0x40 ADD MLOAD PUSH1 0x1 PUSH1 0x1 PUSH1 0xA0 SHL SUB AND DUP6 PUSH1 0x20 ADD MLOAD PUSH1 0x1 PUSH1 0x1 PUSH1 0xA0 SHL SUB AND DUP7 PUSH1 0x80 ADD MLOAD PUSH32 0xAF6C437771B0B661385E6B30C82A76E9067D1C318485CF0F0C47AEB35A9A1DE3 DUP5 PUSH1 0x40 MLOAD PUSH2 0x2B6 SWAP2 SWAP1 PUSH2 0x15E9 JUMP JUMPDEST PUSH1 0x40 MLOAD DUP1 SWAP2 SUB SWAP1 LOG4 POP POP POP POP POP POP JUMP JUMPDEST PUSH1 0x0 DUP3 DUP2 MSTORE PUSH1 0x1 PUSH1 0x20 MSTORE PUSH1 0x40 DUP2 KECCAK256 SWAP1 JUMPDEST DUP3 MLOAD DUP2 LT ISZERO PUSH2 0x335 JUMPI DUP3 DUP2 DUP2 MLOAD DUP2 LT PUSH2 0x2EB JUMPI INVALID JUMPDEST PUSH1 0x20 MUL PUSH1 0x20 ADD ADD MLOAD DUP3 PUSH1 0x1 ADD PUSH1 0x0 DUP5 PUSH1 0x0 ADD DUP5 DUP2 SLOAD DUP2 LT PUSH2 0x308 JUMPI INVALID JUMPDEST PUSH1 0x0 SWAP2 DUP3 MSTORE PUSH1 0x20 DUP1 DUP4 KECCAK256 SWAP1 SWAP2 ADD SLOAD PUSH1 0x1 PUSH1 0x1 PUSH1 0xA0 SHL SUB AND DUP4 MSTORE DUP3 ADD SWAP3 SWAP1 SWAP3 MSTORE PUSH1 0x40 ADD SWAP1 KECCAK256 SSTORE PUSH1 0x1 ADD PUSH2 0x2D6 JUMP JUMPDEST POP POP POP POP JUMP JUMPDEST PUSH1 0x0 SWAP1 JUMP JUMPDEST PUSH1 0x0 DUP4 DUP2 MSTORE PUSH1 0x1 PUSH1 0x20 MSTORE PUSH1 0x40 DUP2 KECCAK256 SWAP1 JUMPDEST DUP4 MLOAD DUP2 LT ISZERO PUSH2 0x3AE JUMPI DUP2 PUSH1 0x0 ADD DUP5 DUP3 DUP2 MLOAD DUP2 LT PUSH2 0x369 JUMPI INVALID JUMPDEST PUSH1 0x20 SWAP1 DUP2 MUL SWAP2 SWAP1 SWAP2 ADD DUP2 ADD MLOAD DUP3 SLOAD PUSH1 0x1 DUP1 DUP3 ADD DUP6 SSTORE PUSH1 0x0 SWAP5 DUP6 MSTORE SWAP3 SWAP1 SWAP4 KECCAK256 SWAP1 SWAP3 ADD DUP1 SLOAD PUSH1 0x1 PUSH1 0x1 PUSH1 0xA0 SHL SUB NOT AND PUSH1 0x1 PUSH1 0x1 PUSH1 0xA0 SHL SUB SWAP1 SWAP4 AND SWAP3 SWAP1 SWAP3 OR SWAP1 SWAP2 SSTORE ADD PUSH2 0x350 JUMP JUMPDEST POP POP POP POP POP JUMP JUMPDEST PUSH1 0x80 DUP4 ADD MLOAD PUSH1 0x0 SWAP1 DUP2 MSTORE PUSH1 0x1 PUSH1 0x20 DUP2 DUP2 MSTORE PUSH1 0x40 DUP1 DUP5 KECCAK256 DUP2 DUP9 ADD MLOAD PUSH1 0x1 PUSH1 0x1 PUSH1 0xA0 SHL SUB SWAP1 DUP2 AND DUP7 MSTORE SWAP4 DUP2 ADD DUP4 MSTORE DUP2 DUP6 KECCAK256 SLOAD SWAP3 DUP9 ADD MLOAD SWAP1 SWAP4 AND DUP5 MSTORE SWAP1 SWAP3 KECCAK256 SLOAD SWAP1 SWAP2 ADD DUP1 PUSH2 0x401 JUMPI POP POP PUSH2 0x335 JUMP JUMPDEST POP POP PUSH1 0x40 MLOAD PUSH4 0x274B0443 PUSH1 0xE2 SHL DUP2 MSTORE PUSH1 0x0 SWAP1 PUSH1 0x1 PUSH1 0x1 PUSH1 0xA0 SHL SUB DUP7 AND SWAP1 PUSH4 0x9D2C110C SWAP1 PUSH2 0x436 SWAP1 DUP8 SWAP1 DUP8 SWAP1 DUP8 SWAP1 PUSH1 0x4 ADD PUSH2 0x16EB JUMP JUMPDEST PUSH1 0x20 PUSH1 0x40 MLOAD DUP1 DUP4 SUB DUP2 PUSH1 0x0 DUP8 DUP1 EXTCODESIZE ISZERO DUP1 ISZERO PUSH2 0x450 JUMPI PUSH1 0x0 DUP1 REVERT JUMPDEST POP GAS CALL ISZERO DUP1 ISZERO PUSH2 0x464 JUMPI RETURNDATASIZE PUSH1 0x0 DUP1 RETURNDATACOPY RETURNDATASIZE PUSH1 0x0 REVERT JUMPDEST POP POP POP POP PUSH1 0x40 MLOAD RETURNDATASIZE PUSH1 0x1F NOT PUSH1 0x1F DUP3 ADD AND DUP3 ADD DUP1 PUSH1 0x40 MSTORE POP DUP2 ADD SWAP1 PUSH2 0x488 SWAP2 SWAP1 PUSH2 0x13BC JUMP JUMPDEST SWAP1 POP DUP4 PUSH1 0x40 ADD MLOAD PUSH1 0x1 PUSH1 0x1 PUSH1 0xA0 SHL SUB AND DUP5 PUSH1 0x20 ADD MLOAD PUSH1 0x1 PUSH1 0x1 PUSH1 0xA0 SHL SUB AND DUP6 PUSH1 0x80 ADD MLOAD PUSH32 0xAF6C437771B0B661385E6B30C82A76E9067D1C318485CF0F0C47AEB35A9A1DE3 DUP5 PUSH1 0x40 MLOAD PUSH2 0x4DA SWAP2 SWAP1 PUSH2 0x15E9 JUMP JUMPDEST PUSH1 0x40 MLOAD DUP1 SWAP2 SUB SWAP1 LOG4 PUSH1 0x80 DUP5 ADD MLOAD PUSH1 0x0 SWAP1 DUP2 MSTORE PUSH1 0x1 PUSH1 0x20 DUP2 DUP2 MSTORE PUSH1 0x40 DUP1 DUP5 KECCAK256 PUSH1 0x60 DUP10 ADD MLOAD DUP4 DUP11 ADD MLOAD PUSH1 0x1 PUSH1 0x1 PUSH1 0xA0 SHL SUB SWAP1 DUP2 AND DUP8 MSTORE SWAP2 SWAP1 SWAP5 ADD SWAP1 SWAP3 MSTORE DUP1 DUP5 KECCAK256 DUP1 SLOAD SWAP1 SWAP4 ADD SWAP1 SWAP3 SSTORE DUP2 DUP8 ADD MLOAD AND DUP3 MSTORE SWAP1 KECCAK256 DUP1 SLOAD SWAP2 SWAP1 SWAP2 SUB SWAP1 SSTORE POP POP POP POP JUMP JUMPDEST PUSH1 0x0 SLOAD PUSH1 0x1 PUSH1 0x1 PUSH1 0xA0 SHL SUB AND SWAP1 JUMP JUMPDEST PUSH1 0x0 SWAP2 DUP3 MSTORE PUSH1 0x1 PUSH1 0x20 DUP2 DUP2 MSTORE PUSH1 0x40 DUP1 DUP6 KECCAK256 PUSH1 0x1 PUSH1 0x1 PUSH1 0xA0 SHL SUB SWAP1 SWAP5 AND DUP6 MSTORE SWAP3 SWAP1 SWAP2 ADD SWAP1 MSTORE DUP2 KECCAK256 SLOAD SWAP2 DUP2 SWAP1 DUP2 SWAP1 JUMP JUMPDEST PUSH1 0x60 DUP1 PUSH1 0x0 PUSH1 0x1 SWAP1 POP PUSH1 0x0 DUP2 DUP6 PUSH1 0x40 MLOAD PUSH1 0x20 ADD PUSH2 0x592 SWAP3 SWAP2 SWAP1 PUSH2 0x1664 JUMP JUMPDEST PUSH1 0x40 DUP1 MLOAD PUSH1 0x1F NOT DUP2 DUP5 SUB ADD DUP2 MSTORE SWAP1 DUP3 SWAP1 MSTORE PUSH4 0x74F3B009 PUSH1 0xE0 SHL DUP3 MSTORE SWAP2 POP PUSH1 0x1 PUSH1 0x1 PUSH1 0xA0 SHL SUB DUP14 AND SWAP1 PUSH4 0x74F3B009 SWAP1 PUSH2 0x5DA SWAP1 DUP15 SWAP1 DUP15 SWAP1 DUP15 SWAP1 DUP15 SWAP1 DUP15 SWAP1 DUP15 SWAP1 DUP11 SWAP1 PUSH1 0x4 ADD PUSH2 0x15F2 JUMP JUMPDEST PUSH1 0x0 PUSH1 0x40 MLOAD DUP1 DUP4 SUB DUP2 PUSH1 0x0 DUP8 DUP1 EXTCODESIZE ISZERO DUP1 ISZERO PUSH2 0x5F4 JUMPI PUSH1 0x0 DUP1 REVERT JUMPDEST POP GAS CALL ISZERO DUP1 ISZERO PUSH2 0x608 JUMPI RETURNDATASIZE PUSH1 0x0 DUP1 RETURNDATACOPY RETURNDATASIZE PUSH1 0x0 REVERT JUMPDEST POP POP POP POP PUSH1 0x40 MLOAD RETURNDATASIZE PUSH1 0x0 DUP3 RETURNDATACOPY PUSH1 0x1F RETURNDATASIZE SWAP1 DUP2 ADD PUSH1 0x1F NOT AND DUP3 ADD PUSH1 0x40 MSTORE PUSH2 0x630 SWAP2 SWAP1 DUP2 ADD SWAP1 PUSH2 0x1065 JUMP JUMPDEST PUSH1 0x0 DUP14 DUP2 MSTORE PUSH1 0x1 PUSH1 0x20 MSTORE PUSH1 0x40 DUP2 KECCAK256 SWAP3 SWAP7 POP SWAP1 SWAP5 POP JUMPDEST DUP2 SLOAD DUP2 LT ISZERO PUSH2 0x6AB JUMPI DUP6 DUP2 DUP2 MLOAD DUP2 LT PUSH2 0x65A JUMPI INVALID JUMPDEST PUSH1 0x20 MUL PUSH1 0x20 ADD ADD MLOAD DUP3 PUSH1 0x1 ADD PUSH1 0x0 DUP5 PUSH1 0x0 ADD DUP5 DUP2 SLOAD DUP2 LT PUSH2 0x677 JUMPI INVALID JUMPDEST PUSH1 0x0 SWAP2 DUP3 MSTORE PUSH1 0x20 DUP1 DUP4 KECCAK256 SWAP1 SWAP2 ADD SLOAD PUSH1 0x1 PUSH1 0x1 PUSH1 0xA0 SHL SUB AND DUP4 MSTORE DUP3 ADD SWAP3 SWAP1 SWAP3 MSTORE PUSH1 0x40 ADD SWAP1 KECCAK256 DUP1 SLOAD SWAP2 SWAP1 SWAP2 SUB SWAP1 SSTORE PUSH1 0x1 ADD PUSH2 0x645 JUMP JUMPDEST POP PUSH1 0x0 DUP10 MLOAD PUSH1 0x1 PUSH1 0x1 PUSH1 0x40 SHL SUB DUP2 GT DUP1 ISZERO PUSH2 0x6C5 JUMPI PUSH1 0x0 DUP1 REVERT JUMPDEST POP PUSH1 0x40 MLOAD SWAP1 DUP1 DUP3 MSTORE DUP1 PUSH1 0x20 MUL PUSH1 0x20 ADD DUP3 ADD PUSH1 0x40 MSTORE DUP1 ISZERO PUSH2 0x6EF JUMPI DUP2 PUSH1 0x20 ADD PUSH1 0x20 DUP3 MUL DUP1 CALLDATASIZE DUP4 CALLDATACOPY ADD SWAP1 POP JUMPDEST POP SWAP1 POP PUSH1 0x0 DUP7 MLOAD PUSH1 0x1 PUSH1 0x1 PUSH1 0x40 SHL SUB DUP2 GT DUP1 ISZERO PUSH2 0x70B JUMPI PUSH1 0x0 DUP1 REVERT JUMPDEST POP PUSH1 0x40 MLOAD SWAP1 DUP1 DUP3 MSTORE DUP1 PUSH1 0x20 MUL PUSH1 0x20 ADD DUP3 ADD PUSH1 0x40 MSTORE DUP1 ISZERO PUSH2 0x735 JUMPI DUP2 PUSH1 0x20 ADD PUSH1 0x20 DUP3 MUL DUP1 CALLDATASIZE DUP4 CALLDATACOPY ADD SWAP1 POP JUMPDEST POP SWAP1 POP PUSH1 0x0 JUMPDEST DUP8 MLOAD DUP2 LT ISZERO PUSH2 0x777 JUMPI DUP8 DUP2 DUP2 MLOAD DUP2 LT PUSH2 0x750 JUMPI INVALID JUMPDEST PUSH1 0x20 MUL PUSH1 0x20 ADD ADD MLOAD DUP3 DUP3 DUP2 MLOAD DUP2 LT PUSH2 0x764 JUMPI INVALID JUMPDEST PUSH1 0x20 SWAP1 DUP2 MUL SWAP2 SWAP1 SWAP2 ADD ADD MSTORE PUSH1 0x1 ADD PUSH2 0x73B JUMP JUMPDEST POP DUP13 PUSH1 0x1 PUSH1 0x1 PUSH1 0xA0 SHL SUB AND DUP15 PUSH32 0xE5CE249087CE04F05A957192435400FD97868DBA0E6A4B4C049ABF8AF80DAE78 DUP5 DUP5 DUP11 PUSH1 0x40 MLOAD PUSH2 0x7B6 SWAP4 SWAP3 SWAP2 SWAP1 PUSH2 0x153F JUMP JUMPDEST PUSH1 0x40 MLOAD DUP1 SWAP2 SUB SWAP1 LOG3 POP POP POP POP POP SWAP9 POP SWAP9 SWAP7 POP POP POP POP POP POP POP JUMP JUMPDEST PUSH1 0x40 MLOAD PUSH4 0x274B0443 PUSH1 0xE2 SHL DUP2 MSTORE PUSH1 0x0 SWAP1 PUSH1 0x1 PUSH1 0x1 PUSH1 0xA0 SHL SUB DUP7 AND SWAP1 PUSH4 0x9D2C110C SWAP1 PUSH2 0x803 SWAP1 DUP8 SWAP1 DUP8 SWAP1 DUP8 SWAP1 PUSH1 0x4 ADD PUSH2 0x16EB JUMP JUMPDEST PUSH1 0x20 PUSH1 0x40 MLOAD DUP1 DUP4 SUB DUP2 PUSH1 0x0 DUP8 DUP1 EXTCODESIZE ISZERO DUP1 ISZERO PUSH2 0x81D JUMPI PUSH1 0x0 DUP1 REVERT JUMPDEST POP GAS CALL ISZERO DUP1 ISZERO PUSH2 0x831 JUMPI RETURNDATASIZE PUSH1 0x0 DUP1 RETURNDATACOPY RETURNDATASIZE PUSH1 0x0 REVERT JUMPDEST POP POP POP POP PUSH1 0x40 MLOAD RETURNDATASIZE PUSH1 0x1F NOT PUSH1 0x1F DUP3 ADD AND DUP3 ADD DUP1 PUSH1 0x40 MSTORE POP DUP2 ADD SWAP1 PUSH2 0x855 SWAP2 SWAP1 PUSH2 0x13BC JUMP JUMPDEST SWAP1 POP DUP4 PUSH1 0x40 ADD MLOAD PUSH1 0x1 PUSH1 0x1 PUSH1 0xA0 SHL SUB AND DUP5 PUSH1 0x20 ADD MLOAD PUSH1 0x1 PUSH1 0x1 PUSH1 0xA0 SHL SUB AND DUP6 PUSH1 0x80 ADD MLOAD PUSH32 0xAF6C437771B0B661385E6B30C82A76E9067D1C318485CF0F0C47AEB35A9A1DE3 DUP5 PUSH1 0x40 MLOAD PUSH2 0x8A7 SWAP2 SWAP1 PUSH2 0x15E9 JUMP JUMPDEST PUSH1 0x40 MLOAD DUP1 SWAP2 SUB SWAP1 LOG4 POP POP POP POP POP JUMP JUMPDEST PUSH1 0x0 DUP2 DUP2 MSTORE PUSH1 0x1 PUSH1 0x20 MSTORE PUSH1 0x40 SWAP1 KECCAK256 DUP1 SLOAD PUSH1 0x60 SWAP2 DUP3 SWAP2 PUSH1 0x1 PUSH1 0x1 PUSH1 0x40 SHL SUB DUP2 GT DUP1 ISZERO PUSH2 0x8E0 JUMPI PUSH1 0x0 DUP1 REVERT JUMPDEST POP PUSH1 0x40 MLOAD SWAP1 DUP1 DUP3 MSTORE DUP1 PUSH1 0x20 MUL PUSH1 0x20 ADD DUP3 ADD PUSH1 0x40 MSTORE DUP1 ISZERO PUSH2 0x90A JUMPI DUP2 PUSH1 0x20 ADD PUSH1 0x20 DUP3 MUL DUP1 CALLDATASIZE DUP4 CALLDATACOPY ADD SWAP1 POP JUMPDEST POP DUP2 SLOAD SWAP1 SWAP4 POP PUSH1 0x1 PUSH1 0x1 PUSH1 0x40 SHL SUB DUP2 GT DUP1 ISZERO PUSH2 0x925 JUMPI PUSH1 0x0 DUP1 REVERT JUMPDEST POP PUSH1 0x40 MLOAD SWAP1 DUP1 DUP3 MSTORE DUP1 PUSH1 0x20 MUL PUSH1 0x20 ADD DUP3 ADD PUSH1 0x40 MSTORE DUP1 ISZERO PUSH2 0x94F JUMPI DUP2 PUSH1 0x20 ADD PUSH1 0x20 DUP3 MUL DUP1 CALLDATASIZE DUP4 CALLDATACOPY ADD SWAP1 POP JUMPDEST POP SWAP2 POP PUSH1 0x0 JUMPDEST DUP2 SLOAD DUP2 LT ISZERO PUSH2 0xA11 JUMPI DUP2 PUSH1 0x0 ADD DUP2 DUP2 SLOAD DUP2 LT PUSH2 0x96D JUMPI INVALID JUMPDEST SWAP1 PUSH1 0x0 MSTORE PUSH1 0x20 PUSH1 0x0 KECCAK256 ADD PUSH1 0x0 SWAP1 SLOAD SWAP1 PUSH2 0x100 EXP SWAP1 DIV PUSH1 0x1 PUSH1 0x1 PUSH1 0xA0 SHL SUB AND DUP5 DUP3 DUP2 MLOAD DUP2 LT PUSH2 0x997 JUMPI INVALID JUMPDEST PUSH1 0x20 MUL PUSH1 0x20 ADD ADD SWAP1 PUSH1 0x1 PUSH1 0x1 PUSH1 0xA0 SHL SUB AND SWAP1 DUP2 PUSH1 0x1 PUSH1 0x1 PUSH1 0xA0 SHL SUB AND DUP2 MSTORE POP POP DUP2 PUSH1 0x1 ADD PUSH1 0x0 DUP6 DUP4 DUP2 MLOAD DUP2 LT PUSH2 0x9C9 JUMPI INVALID JUMPDEST PUSH1 0x20 MUL PUSH1 0x20 ADD ADD MLOAD PUSH1 0x1 PUSH1 0x1 PUSH1 0xA0 SHL SUB AND PUSH1 0x1 PUSH1 0x1 PUSH1 0xA0 SHL SUB AND DUP2 MSTORE PUSH1 0x20 ADD SWAP1 DUP2 MSTORE PUSH1 0x20 ADD PUSH1 0x0 KECCAK256 SLOAD DUP4 DUP3 DUP2 MLOAD DUP2 LT PUSH2 0x9FE JUMPI INVALID JUMPDEST PUSH1 0x20 SWAP1 DUP2 MUL SWAP2 SWAP1 SWAP2 ADD ADD MSTORE PUSH1 0x1 ADD PUSH2 0x955 JUMP JUMPDEST POP POP SWAP2 POP SWAP2 JUMP JUMPDEST PUSH1 0x60 DUP1 PUSH1 0x0 DUP2 PUSH1 0x1 DUP3 JUMPDEST DUP7 PUSH1 0x80 ADD MLOAD MLOAD DUP2 LT ISZERO PUSH2 0xA5D JUMPI DUP2 DUP1 ISZERO PUSH2 0xA53 JUMPI POP DUP7 PUSH1 0x80 ADD MLOAD DUP2 DUP2 MLOAD DUP2 LT PUSH2 0xA47 JUMPI INVALID JUMPDEST PUSH1 0x20 MUL PUSH1 0x20 ADD ADD MLOAD PUSH1 0x0 EQ JUMPDEST SWAP2 POP PUSH1 0x1 ADD PUSH2 0xA22 JUMP JUMPDEST POP DUP1 ISZERO PUSH2 0xA99 JUMPI PUSH1 0xE0 DUP7 ADD MLOAD PUSH1 0x40 MLOAD PUSH1 0x0 SWAP5 POP PUSH2 0xA83 SWAP2 DUP6 SWAP2 PUSH3 0x989680 SWAP1 PUSH1 0x20 ADD PUSH2 0x167B JUMP JUMPDEST PUSH1 0x40 MLOAD PUSH1 0x20 DUP2 DUP4 SUB SUB DUP2 MSTORE SWAP1 PUSH1 0x40 MSTORE SWAP2 POP PUSH2 0xAC6 JUMP JUMPDEST PUSH2 0x100 DUP7 ADD MLOAD PUSH1 0x40 MLOAD PUSH1 0x3 SWAP5 POP PUSH2 0xAB4 SWAP2 DUP6 SWAP2 PUSH1 0x20 ADD PUSH2 0x1664 JUMP JUMPDEST PUSH1 0x40 MLOAD PUSH1 0x20 DUP2 DUP4 SUB SUB DUP2 MSTORE SWAP1 PUSH1 0x40 MSTORE SWAP2 POP JUMPDEST POP DUP5 MLOAD PUSH1 0x20 DUP7 ADD MLOAD PUSH1 0x40 DUP1 DUP9 ADD MLOAD PUSH1 0x60 DUP10 ADD MLOAD PUSH1 0x80 DUP11 ADD MLOAD PUSH1 0xA0 DUP12 ADD MLOAD PUSH1 0xC0 DUP13 ADD MLOAD SWAP5 MLOAD PUSH4 0x357025B1 PUSH1 0xE2 SHL DUP2 MSTORE PUSH1 0x1 PUSH1 0x1 PUSH1 0xA0 SHL SUB SWAP1 SWAP8 AND SWAP7 PUSH4 0xD5C096C4 SWAP7 PUSH2 0xB1A SWAP7 SWAP1 SWAP6 SWAP5 SWAP4 SWAP3 SWAP2 DUP11 SWAP1 PUSH1 0x4 ADD PUSH2 0x15F2 JUMP JUMPDEST PUSH1 0x0 PUSH1 0x40 MLOAD DUP1 DUP4 SUB DUP2 PUSH1 0x0 DUP8 DUP1 EXTCODESIZE ISZERO DUP1 ISZERO PUSH2 0xB34 JUMPI PUSH1 0x0 DUP1 REVERT JUMPDEST POP GAS CALL ISZERO DUP1 ISZERO PUSH2 0xB48 JUMPI RETURNDATASIZE PUSH1 0x0 DUP1 RETURNDATACOPY RETURNDATASIZE PUSH1 0x0 REVERT JUMPDEST POP POP POP POP PUSH1 0x40 MLOAD RETURNDATASIZE PUSH1 0x0 DUP3 RETURNDATACOPY PUSH1 0x1F RETURNDATASIZE SWAP1 DUP2 ADD PUSH1 0x1F NOT AND DUP3 ADD PUSH1 0x40 MSTORE PUSH2 0xB70 SWAP2 SWAP1 DUP2 ADD SWAP1 PUSH2 0x1065 JUMP JUMPDEST PUSH1 0x20 DUP1 DUP9 ADD MLOAD PUSH1 0x0 SWAP1 DUP2 MSTORE PUSH1 0x1 SWAP1 SWAP2 MSTORE PUSH1 0x40 DUP2 KECCAK256 SWAP3 SWAP7 POP SWAP1 SWAP5 POP JUMPDEST DUP2 SLOAD DUP2 LT ISZERO PUSH2 0xBF0 JUMPI DUP6 DUP2 DUP2 MLOAD DUP2 LT PUSH2 0xBA0 JUMPI INVALID JUMPDEST PUSH1 0x20 MUL PUSH1 0x20 ADD ADD MLOAD DUP3 PUSH1 0x1 ADD PUSH1 0x0 DUP5 PUSH1 0x0 ADD DUP5 DUP2 SLOAD DUP2 LT PUSH2 0xBBD JUMPI INVALID JUMPDEST PUSH1 0x0 SWAP2 DUP3 MSTORE PUSH1 0x20 DUP1 DUP4 KECCAK256 SWAP1 SWAP2 ADD SLOAD PUSH1 0x1 PUSH1 0x1 PUSH1 0xA0 SHL SUB AND DUP4 MSTORE DUP3 ADD SWAP3 SWAP1 SWAP3 MSTORE PUSH1 0x40 ADD SWAP1 KECCAK256 DUP1 SLOAD SWAP1 SWAP2 ADD SWAP1 SSTORE PUSH1 0x1 ADD PUSH2 0xB8B JUMP JUMPDEST POP PUSH1 0x0 DUP7 PUSH1 0x80 ADD MLOAD MLOAD PUSH1 0x1 PUSH1 0x1 PUSH1 0x40 SHL SUB DUP2 GT DUP1 ISZERO PUSH2 0xC0E JUMPI PUSH1 0x0 DUP1 REVERT JUMPDEST POP PUSH1 0x40 MLOAD SWAP1 DUP1 DUP3 MSTORE DUP1 PUSH1 0x20 MUL PUSH1 0x20 ADD DUP3 ADD PUSH1 0x40 MSTORE DUP1 ISZERO PUSH2 0xC38 JUMPI DUP2 PUSH1 0x20 ADD PUSH1 0x20 DUP3 MUL DUP1 CALLDATASIZE DUP4 CALLDATACOPY ADD SWAP1 POP JUMPDEST POP SWAP1 POP PUSH1 0x0 DUP7 MLOAD PUSH1 0x1 PUSH1 0x1 PUSH1 0x40 SHL SUB DUP2 GT DUP1 ISZERO PUSH2 0xC54 JUMPI PUSH1 0x0 DUP1 REVERT JUMPDEST POP PUSH1 0x40 MLOAD SWAP1 DUP1 DUP3 MSTORE DUP1 PUSH1 0x20 MUL PUSH1 0x20 ADD DUP3 ADD PUSH1 0x40 MSTORE DUP1 ISZERO PUSH2 0xC7E JUMPI DUP2 PUSH1 0x20 ADD PUSH1 0x20 DUP3 MUL DUP1 CALLDATASIZE DUP4 CALLDATACOPY ADD SWAP1 POP JUMPDEST POP SWAP1 POP PUSH1 0x0 JUMPDEST DUP8 MLOAD DUP2 LT ISZERO PUSH2 0xCC0 JUMPI DUP8 DUP2 DUP2 MLOAD DUP2 LT PUSH2 0xC99 JUMPI INVALID JUMPDEST PUSH1 0x20 MUL PUSH1 0x20 ADD ADD MLOAD DUP3 DUP3 DUP2 MLOAD DUP2 LT PUSH2 0xCAD JUMPI INVALID JUMPDEST PUSH1 0x20 SWAP1 DUP2 MUL SWAP2 SWAP1 SWAP2 ADD ADD MSTORE PUSH1 0x1 ADD PUSH2 0xC84 JUMP JUMPDEST POP DUP8 PUSH1 0x40 ADD MLOAD PUSH1 0x1 PUSH1 0x1 PUSH1 0xA0 SHL SUB AND DUP9 PUSH1 0x20 ADD MLOAD PUSH32 0xE5CE249087CE04F05A957192435400FD97868DBA0E6A4B4C049ABF8AF80DAE78 DUP5 DUP5 DUP11 PUSH1 0x40 MLOAD PUSH2 0xD07 SWAP4 SWAP3 SWAP2 SWAP1 PUSH2 0x153F JUMP JUMPDEST PUSH1 0x40 MLOAD DUP1 SWAP2 SUB SWAP1 LOG3 POP POP POP POP POP SWAP2 POP SWAP2 JUMP JUMPDEST DUP1 CALLDATALOAD PUSH2 0xD24 DUP2 PUSH2 0x1781 JUMP JUMPDEST SWAP2 SWAP1 POP JUMP JUMPDEST PUSH1 0x0 DUP3 PUSH1 0x1F DUP4 ADD SLT PUSH2 0xD39 JUMPI DUP1 DUP2 REVERT JUMPDEST DUP2 CALLDATALOAD PUSH1 0x20 PUSH2 0xD4E PUSH2 0xD49 DUP4 PUSH2 0x1757 JUMP JUMPDEST PUSH2 0x1734 JUMP JUMPDEST DUP3 DUP2 MSTORE DUP2 DUP2 ADD SWAP1 DUP6 DUP4 ADD DUP4 DUP6 MUL DUP8 ADD DUP5 ADD DUP9 LT ISZERO PUSH2 0xD6A JUMPI DUP6 DUP7 REVERT JUMPDEST DUP6 JUMPDEST DUP6 DUP2 LT ISZERO PUSH2 0xD91 JUMPI DUP2 CALLDATALOAD PUSH2 0xD7F DUP2 PUSH2 0x1781 JUMP JUMPDEST DUP5 MSTORE SWAP3 DUP5 ADD SWAP3 SWAP1 DUP5 ADD SWAP1 PUSH1 0x1 ADD PUSH2 0xD6C JUMP JUMPDEST POP SWAP1 SWAP8 SWAP7 POP POP POP POP POP POP POP JUMP JUMPDEST PUSH1 0x0 DUP3 PUSH1 0x1F DUP4 ADD SLT PUSH2 0xDAE JUMPI DUP1 DUP2 REVERT JUMPDEST DUP2 CALLDATALOAD PUSH1 0x20 PUSH2 0xDBE PUSH2 0xD49 DUP4 PUSH2 0x1757 JUMP JUMPDEST DUP3 DUP2 MSTORE DUP2 DUP2 ADD SWAP1 DUP6 DUP4 ADD DUP4 DUP6 MUL DUP8 ADD DUP5 ADD DUP9 LT ISZERO PUSH2 0xDDA JUMPI DUP6 DUP7 REVERT JUMPDEST DUP6 JUMPDEST DUP6 DUP2 LT ISZERO PUSH2 0xD91 JUMPI DUP2 CALLDATALOAD DUP5 MSTORE SWAP3 DUP5 ADD SWAP3 SWAP1 DUP5 ADD SWAP1 PUSH1 0x1 ADD PUSH2 0xDDC JUMP JUMPDEST PUSH1 0x0 DUP3 PUSH1 0x1F DUP4 ADD SLT PUSH2 0xE08 JUMPI DUP1 DUP2 REVERT JUMPDEST DUP2 MLOAD PUSH1 0x20 PUSH2 0xE18 PUSH2 0xD49 DUP4 PUSH2 0x1757 JUMP JUMPDEST DUP3 DUP2 MSTORE DUP2 DUP2 ADD SWAP1 DUP6 DUP4 ADD DUP4 DUP6 MUL DUP8 ADD DUP5 ADD DUP9 LT ISZERO PUSH2 0xE34 JUMPI DUP6 DUP7 REVERT JUMPDEST DUP6 JUMPDEST DUP6 DUP2 LT ISZERO PUSH2 0xD91 JUMPI DUP2 MLOAD DUP5 MSTORE SWAP3 DUP5 ADD SWAP3 SWAP1 DUP5 ADD SWAP1 PUSH1 0x1 ADD PUSH2 0xE36 JUMP JUMPDEST PUSH1 0x0 DUP3 PUSH1 0x1F DUP4 ADD SLT PUSH2 0xE62 JUMPI DUP1 DUP2 REVERT JUMPDEST DUP2 CALLDATALOAD PUSH1 0x1 PUSH1 0x1 PUSH1 0x40 SHL SUB DUP2 GT ISZERO PUSH2 0xE75 JUMPI INVALID JUMPDEST PUSH2 0xE88 PUSH1 0x1F DUP3 ADD PUSH1 0x1F NOT AND PUSH1 0x20 ADD PUSH2 0x1734 JUMP JUMPDEST DUP2 DUP2 MSTORE DUP5 PUSH1 0x20 DUP4 DUP7 ADD ADD GT ISZERO PUSH2 0xE9C JUMPI DUP3 DUP4 REVERT JUMPDEST DUP2 PUSH1 0x20 DUP6 ADD PUSH1 0x20 DUP4 ADD CALLDATACOPY SWAP1 DUP2 ADD PUSH1 0x20 ADD SWAP2 SWAP1 SWAP2 MSTORE SWAP3 SWAP2 POP POP JUMP JUMPDEST DUP1 CALLDATALOAD PUSH1 0x2 DUP2 LT PUSH2 0xD24 JUMPI PUSH1 0x0 DUP1 REVERT JUMPDEST PUSH1 0x0 PUSH2 0x120 DUP1 DUP4 DUP6 SUB SLT ISZERO PUSH2 0xED8 JUMPI DUP2 DUP3 REVERT JUMPDEST PUSH2 0xEE1 DUP2 PUSH2 0x1734 JUMP JUMPDEST SWAP2 POP POP PUSH2 0xEED DUP3 PUSH2 0xEB6 JUMP JUMPDEST DUP2 MSTORE PUSH2 0xEFB PUSH1 0x20 DUP4 ADD PUSH2 0xD19 JUMP JUMPDEST PUSH1 0x20 DUP3 ADD MSTORE PUSH2 0xF0C PUSH1 0x40 DUP4 ADD PUSH2 0xD19 JUMP JUMPDEST PUSH1 0x40 DUP3 ADD MSTORE PUSH1 0x60 DUP3 ADD CALLDATALOAD PUSH1 0x60 DUP3 ADD MSTORE PUSH1 0x80 DUP3 ADD CALLDATALOAD PUSH1 0x80 DUP3 ADD MSTORE PUSH1 0xA0 DUP3 ADD CALLDATALOAD PUSH1 0xA0 DUP3 ADD MSTORE PUSH2 0xF3B PUSH1 0xC0 DUP4 ADD PUSH2 0xD19 JUMP JUMPDEST PUSH1 0xC0 DUP3 ADD MSTORE PUSH2 0xF4C PUSH1 0xE0 DUP4 ADD PUSH2 0xD19 JUMP JUMPDEST PUSH1 0xE0 DUP3 ADD MSTORE PUSH2 0x100 DUP1 DUP4 ADD CALLDATALOAD PUSH1 0x1 PUSH1 0x1 PUSH1 0x40 SHL SUB DUP2 GT ISZERO PUSH2 0xF6C JUMPI PUSH1 0x0 DUP1 REVERT JUMPDEST PUSH2 0xF78 DUP6 DUP3 DUP7 ADD PUSH2 0xE52 JUMP JUMPDEST DUP3 DUP5 ADD MSTORE POP POP SWAP3 SWAP2 POP POP JUMP JUMPDEST PUSH1 0x0 DUP1 PUSH1 0x0 DUP1 PUSH1 0x0 PUSH1 0xA0 DUP7 DUP9 SUB SLT ISZERO PUSH2 0xF9B JUMPI DUP1 DUP2 REVERT JUMPDEST DUP6 CALLDATALOAD PUSH2 0xFA6 DUP2 PUSH2 0x1781 JUMP JUMPDEST SWAP5 POP PUSH1 0x20 DUP7 ADD CALLDATALOAD PUSH1 0x1 PUSH1 0x1 PUSH1 0x40 SHL SUB DUP1 DUP3 GT ISZERO PUSH2 0xFC1 JUMPI DUP3 DUP4 REVERT JUMPDEST PUSH2 0xFCD DUP10 DUP4 DUP11 ADD PUSH2 0xEC5 JUMP JUMPDEST SWAP6 POP PUSH1 0x40 DUP9 ADD CALLDATALOAD SWAP2 POP DUP1 DUP3 GT ISZERO PUSH2 0xFE2 JUMPI DUP3 DUP4 REVERT JUMPDEST POP PUSH2 0xFEF DUP9 DUP3 DUP10 ADD PUSH2 0xD9E JUMP JUMPDEST SWAP6 SWAP9 SWAP5 SWAP8 POP SWAP5 SWAP6 PUSH1 0x60 DUP2 ADD CALLDATALOAD SWAP6 POP PUSH1 0x80 ADD CALLDATALOAD SWAP4 SWAP3 POP POP POP JUMP JUMPDEST PUSH1 0x0 DUP1 PUSH1 0x0 DUP1 PUSH1 0x80 DUP6 DUP8 SUB SLT ISZERO PUSH2 0x101D JUMPI DUP2 DUP3 REVERT JUMPDEST DUP5 CALLDATALOAD PUSH2 0x1028 DUP2 PUSH2 0x1781 JUMP JUMPDEST SWAP4 POP PUSH1 0x20 DUP6 ADD CALLDATALOAD PUSH1 0x1 PUSH1 0x1 PUSH1 0x40 SHL SUB DUP2 GT ISZERO PUSH2 0x1042 JUMPI DUP3 DUP4 REVERT JUMPDEST PUSH2 0x104E DUP8 DUP3 DUP9 ADD PUSH2 0xEC5 JUMP JUMPDEST SWAP5 SWAP8 SWAP5 SWAP7 POP POP POP POP PUSH1 0x40 DUP4 ADD CALLDATALOAD SWAP3 PUSH1 0x60 ADD CALLDATALOAD SWAP2 SWAP1 POP JUMP JUMPDEST PUSH1 0x0 DUP1 PUSH1 0x40 DUP4 DUP6 SUB SLT ISZERO PUSH2 0x1077 JUMPI DUP2 DUP3 REVERT JUMPDEST DUP3 MLOAD PUSH1 0x1 PUSH1 0x1 PUSH1 0x40 SHL SUB DUP1 DUP3 GT ISZERO PUSH2 0x108D JUMPI DUP4 DUP5 REVERT JUMPDEST PUSH2 0x1099 DUP7 DUP4 DUP8 ADD PUSH2 0xDF8 JUMP JUMPDEST SWAP4 POP PUSH1 0x20 DUP6 ADD MLOAD SWAP2 POP DUP1 DUP3 GT ISZERO PUSH2 0x10AE JUMPI DUP3 DUP4 REVERT JUMPDEST POP PUSH2 0x10BB DUP6 DUP3 DUP7 ADD PUSH2 0xDF8 JUMP JUMPDEST SWAP2 POP POP SWAP3 POP SWAP3 SWAP1 POP JUMP JUMPDEST PUSH1 0x0 PUSH1 0x20 DUP3 DUP5 SUB SLT ISZERO PUSH2 0x10D6 JUMPI DUP1 DUP2 REVERT JUMPDEST POP CALLDATALOAD SWAP2 SWAP1 POP JUMP JUMPDEST PUSH1 0x0 DUP1 PUSH1 0x0 PUSH1 0x60 DUP5 DUP7 SUB SLT ISZERO PUSH2 0x10F1 JUMPI DUP1 DUP2 REVERT JUMPDEST DUP4 CALLDATALOAD SWAP3 POP PUSH1 0x20 DUP1 DUP6 ADD CALLDATALOAD PUSH1 0x1 PUSH1 0x1 PUSH1 0x40 SHL SUB DUP1 DUP3 GT ISZERO PUSH2 0x110F JUMPI DUP4 DUP5 REVERT JUMPDEST DUP2 DUP8 ADD SWAP2 POP DUP8 PUSH1 0x1F DUP4 ADD SLT PUSH2 0x1122 JUMPI DUP4 DUP5 REVERT JUMPDEST DUP2 CALLDATALOAD PUSH2 0x1130 PUSH2 0xD49 DUP3 PUSH2 0x1757 JUMP JUMPDEST DUP2 DUP2 MSTORE DUP5 DUP2 ADD SWAP1 DUP5 DUP7 ADD DUP7 DUP5 MUL DUP7 ADD DUP8 ADD DUP13 LT ISZERO PUSH2 0x114C JUMPI DUP8 DUP9 REVERT JUMPDEST DUP8 SWAP6 POP JUMPDEST DUP4 DUP7 LT ISZERO PUSH2 0x1177 JUMPI DUP1 CALLDATALOAD PUSH2 0x1163 DUP2 PUSH2 0x1781 JUMP JUMPDEST DUP4 MSTORE PUSH1 0x1 SWAP6 SWAP1 SWAP6 ADD SWAP5 SWAP2 DUP7 ADD SWAP2 DUP7 ADD PUSH2 0x1150 JUMP JUMPDEST POP SWAP7 POP POP POP PUSH1 0x40 DUP8 ADD CALLDATALOAD SWAP3 POP DUP1 DUP4 GT ISZERO PUSH2 0x118F JUMPI DUP4 DUP5 REVERT JUMPDEST POP POP PUSH2 0x119D DUP7 DUP3 DUP8 ADD PUSH2 0xD29 JUMP JUMPDEST SWAP2 POP POP SWAP3 POP SWAP3 POP SWAP3 JUMP JUMPDEST PUSH1 0x0 DUP1 PUSH1 0x40 DUP4 DUP6 SUB SLT ISZERO PUSH2 0x11B9 JUMPI DUP2 DUP3 REVERT JUMPDEST DUP3 CALLDATALOAD SWAP2 POP PUSH1 0x20 DUP4 ADD CALLDATALOAD PUSH1 0x1 PUSH1 0x1 PUSH1 0x40 SHL SUB DUP2 GT ISZERO PUSH2 0x11D5 JUMPI DUP2 DUP3 REVERT JUMPDEST PUSH2 0x10BB DUP6 DUP3 DUP7 ADD PUSH2 0xD9E JUMP JUMPDEST PUSH1 0x0 DUP1 PUSH1 0x40 DUP4 DUP6 SUB SLT ISZERO PUSH2 0x11F3 JUMPI DUP2 DUP3 REVERT JUMPDEST DUP3 CALLDATALOAD SWAP2 POP PUSH1 0x20 DUP4 ADD CALLDATALOAD PUSH2 0x1205 DUP2 PUSH2 0x1781 JUMP JUMPDEST DUP1 SWAP2 POP POP SWAP3 POP SWAP3 SWAP1 POP JUMP JUMPDEST PUSH1 0x0 DUP1 PUSH1 0x0 DUP1 PUSH1 0x0 DUP1 PUSH1 0x0 DUP1 PUSH2 0x100 DUP10 DUP12 SUB SLT ISZERO PUSH2 0x122C JUMPI DUP6 DUP7 REVERT JUMPDEST DUP9 CALLDATALOAD PUSH2 0x1237 DUP2 PUSH2 0x1781 JUMP JUMPDEST SWAP8 POP PUSH1 0x20 DUP10 ADD CALLDATALOAD SWAP7 POP PUSH1 0x40 DUP10 ADD CALLDATALOAD PUSH2 0x124E DUP2 PUSH2 0x1781 JUMP JUMPDEST SWAP6 POP PUSH1 0x60 DUP10 ADD CALLDATALOAD PUSH2 0x125E DUP2 PUSH2 0x1781 JUMP JUMPDEST SWAP5 POP PUSH1 0x80 DUP10 ADD CALLDATALOAD PUSH1 0x1 PUSH1 0x1 PUSH1 0x40 SHL SUB DUP2 GT ISZERO PUSH2 0x1278 JUMPI DUP4 DUP5 REVERT JUMPDEST PUSH2 0x1284 DUP12 DUP3 DUP13 ADD PUSH2 0xD9E JUMP JUMPDEST SWAP9 SWAP12 SWAP8 SWAP11 POP SWAP6 SWAP9 SWAP5 SWAP8 SWAP7 PUSH1 0xA0 DUP7 ADD CALLDATALOAD SWAP7 POP PUSH1 0xC0 DUP7 ADD CALLDATALOAD SWAP6 PUSH1 0xE0 ADD CALLDATALOAD SWAP5 POP SWAP3 POP POP POP JUMP JUMPDEST PUSH1 0x0 PUSH1 0x20 DUP3 DUP5 SUB SLT ISZERO PUSH2 0x12B8 JUMPI DUP1 DUP2 REVERT JUMPDEST DUP2 CALLDATALOAD PUSH1 0x3 DUP2 LT PUSH2 0x12C6 JUMPI DUP2 DUP3 REVERT JUMPDEST SWAP4 SWAP3 POP POP POP JUMP JUMPDEST PUSH1 0x0 PUSH1 0x20 DUP3 DUP5 SUB SLT ISZERO PUSH2 0x12DE JUMPI DUP1 DUP2 REVERT JUMPDEST DUP2 CALLDATALOAD PUSH1 0x1 PUSH1 0x1 PUSH1 0x40 SHL SUB DUP1 DUP3 GT ISZERO PUSH2 0x12F4 JUMPI DUP3 DUP4 REVERT JUMPDEST DUP2 DUP5 ADD SWAP2 POP PUSH2 0x120 DUP1 DUP4 DUP8 SUB SLT ISZERO PUSH2 0x130A JUMPI DUP4 DUP5 REVERT JUMPDEST PUSH2 0x1313 DUP2 PUSH2 0x1734 JUMP JUMPDEST SWAP1 POP PUSH2 0x131E DUP4 PUSH2 0xD19 JUMP JUMPDEST DUP2 MSTORE PUSH1 0x20 DUP4 ADD CALLDATALOAD PUSH1 0x20 DUP3 ADD MSTORE PUSH2 0x1336 PUSH1 0x40 DUP5 ADD PUSH2 0xD19 JUMP JUMPDEST PUSH1 0x40 DUP3 ADD MSTORE PUSH2 0x1347 PUSH1 0x60 DUP5 ADD PUSH2 0xD19 JUMP JUMPDEST PUSH1 0x60 DUP3 ADD MSTORE PUSH1 0x80 DUP4 ADD CALLDATALOAD DUP3 DUP2 GT ISZERO PUSH2 0x135D JUMPI DUP5 DUP6 REVERT JUMPDEST PUSH2 0x1369 DUP8 DUP3 DUP7 ADD PUSH2 0xD9E JUMP JUMPDEST PUSH1 0x80 DUP4 ADD MSTORE POP PUSH1 0xA0 DUP4 ADD CALLDATALOAD PUSH1 0xA0 DUP3 ADD MSTORE PUSH1 0xC0 DUP4 ADD CALLDATALOAD PUSH1 0xC0 DUP3 ADD MSTORE PUSH1 0xE0 DUP4 ADD CALLDATALOAD DUP3 DUP2 GT ISZERO PUSH2 0x1394 JUMPI DUP5 DUP6 REVERT JUMPDEST PUSH2 0x13A0 DUP8 DUP3 DUP7 ADD PUSH2 0xD9E JUMP JUMPDEST PUSH1 0xE0 DUP4 ADD MSTORE POP PUSH2 0x100 SWAP3 DUP4 ADD CALLDATALOAD SWAP3 DUP2 ADD SWAP3 SWAP1 SWAP3 MSTORE POP SWAP4 SWAP3 POP POP POP JUMP JUMPDEST PUSH1 0x0 PUSH1 0x20 DUP3 DUP5 SUB SLT ISZERO PUSH2 0x13CD JUMPI DUP1 DUP2 REVERT JUMPDEST POP MLOAD SWAP2 SWAP1 POP JUMP JUMPDEST PUSH1 0x1 PUSH1 0x1 PUSH1 0xA0 SHL SUB AND SWAP1 MSTORE JUMP JUMPDEST PUSH1 0x0 DUP2 MLOAD DUP1 DUP5 MSTORE PUSH1 0x20 DUP1 DUP6 ADD SWAP5 POP DUP1 DUP5 ADD DUP4 JUMPDEST DUP4 DUP2 LT ISZERO PUSH2 0x1419 JUMPI DUP2 MLOAD PUSH1 0x1 PUSH1 0x1 PUSH1 0xA0 SHL SUB AND DUP8 MSTORE SWAP6 DUP3 ADD SWAP6 SWAP1 DUP3 ADD SWAP1 PUSH1 0x1 ADD PUSH2 0x13F4 JUMP JUMPDEST POP SWAP5 SWAP6 SWAP5 POP POP POP POP POP JUMP JUMPDEST PUSH1 0x0 DUP2 MLOAD DUP1 DUP5 MSTORE PUSH1 0x20 DUP1 DUP6 ADD SWAP5 POP DUP1 DUP5 ADD DUP4 JUMPDEST DUP4 DUP2 LT ISZERO PUSH2 0x1419 JUMPI DUP2 MLOAD DUP8 MSTORE SWAP6 DUP3 ADD SWAP6 SWAP1 DUP3 ADD SWAP1 PUSH1 0x1 ADD PUSH2 0x1437 JUMP JUMPDEST PUSH1 0x0 DUP2 MLOAD DUP1 DUP5 MSTORE DUP2 JUMPDEST DUP2 DUP2 LT ISZERO PUSH2 0x1478 JUMPI PUSH1 0x20 DUP2 DUP6 ADD DUP2 ADD MLOAD DUP7 DUP4 ADD DUP3 ADD MSTORE ADD PUSH2 0x145C JUMP JUMPDEST DUP2 DUP2 GT ISZERO PUSH2 0x1489 JUMPI DUP3 PUSH1 0x20 DUP4 DUP8 ADD ADD MSTORE JUMPDEST POP PUSH1 0x1F ADD PUSH1 0x1F NOT AND SWAP3 SWAP1 SWAP3 ADD PUSH1 0x20 ADD SWAP3 SWAP2 POP POP JUMP JUMPDEST PUSH1 0x0 PUSH2 0x120 DUP3 MLOAD PUSH1 0x2 DUP2 LT PUSH2 0x14AF JUMPI INVALID JUMPDEST DUP1 DUP6 MSTORE POP PUSH1 0x20 DUP4 ADD MLOAD PUSH2 0x14C5 PUSH1 0x20 DUP7 ADD DUP3 PUSH2 0x13D4 JUMP JUMPDEST POP PUSH1 0x40 DUP4 ADD MLOAD PUSH2 0x14D8 PUSH1 0x40 DUP7 ADD DUP3 PUSH2 0x13D4 JUMP JUMPDEST POP PUSH1 0x60 DUP4 ADD MLOAD PUSH1 0x60 DUP6 ADD MSTORE PUSH1 0x80 DUP4 ADD MLOAD PUSH1 0x80 DUP6 ADD MSTORE PUSH1 0xA0 DUP4 ADD MLOAD PUSH1 0xA0 DUP6 ADD MSTORE PUSH1 0xC0 DUP4 ADD MLOAD PUSH2 0x1509 PUSH1 0xC0 DUP7 ADD DUP3 PUSH2 0x13D4 JUMP JUMPDEST POP PUSH1 0xE0 DUP4 ADD MLOAD PUSH2 0x151C PUSH1 0xE0 DUP7 ADD DUP3 PUSH2 0x13D4 JUMP JUMPDEST POP PUSH2 0x100 DUP1 DUP5 ADD MLOAD DUP3 DUP3 DUP8 ADD MSTORE PUSH2 0x1535 DUP4 DUP8 ADD DUP3 PUSH2 0x1453 JUMP JUMPDEST SWAP7 SWAP6 POP POP POP POP POP POP JUMP JUMPDEST PUSH1 0x0 PUSH1 0x60 DUP3 MSTORE PUSH2 0x1552 PUSH1 0x60 DUP4 ADD DUP7 PUSH2 0x13E1 JUMP JUMPDEST DUP3 DUP2 SUB PUSH1 0x20 DUP5 DUP2 ADD SWAP2 SWAP1 SWAP2 MSTORE DUP6 MLOAD DUP1 DUP4 MSTORE DUP7 DUP3 ADD SWAP3 DUP3 ADD SWAP1 DUP5 JUMPDEST DUP2 DUP2 LT ISZERO PUSH2 0x1588 JUMPI DUP5 MLOAD DUP4 MSTORE SWAP4 DUP4 ADD SWAP4 SWAP2 DUP4 ADD SWAP2 PUSH1 0x1 ADD PUSH2 0x156C JUMP JUMPDEST POP POP DUP5 DUP2 SUB PUSH1 0x40 DUP7 ADD MSTORE PUSH2 0x159C DUP2 DUP8 PUSH2 0x1424 JUMP JUMPDEST SWAP9 SWAP8 POP POP POP POP POP POP POP POP JUMP JUMPDEST PUSH1 0x0 PUSH1 0x40 DUP3 MSTORE PUSH2 0x15BB PUSH1 0x40 DUP4 ADD DUP6 PUSH2 0x13E1 JUMP JUMPDEST DUP3 DUP2 SUB PUSH1 0x20 DUP5 ADD MSTORE PUSH2 0x15CD DUP2 DUP6 PUSH2 0x1424 JUMP JUMPDEST SWAP6 SWAP5 POP POP POP POP POP JUMP JUMPDEST PUSH1 0x0 PUSH1 0x40 DUP3 MSTORE PUSH2 0x15BB PUSH1 0x40 DUP4 ADD DUP6 PUSH2 0x1424 JUMP JUMPDEST SWAP1 DUP2 MSTORE PUSH1 0x20 ADD SWAP1 JUMP JUMPDEST DUP8 DUP2 MSTORE PUSH1 0x1 PUSH1 0x1 PUSH1 0xA0 SHL SUB DUP8 DUP2 AND PUSH1 0x20 DUP4 ADD MSTORE DUP7 AND PUSH1 0x40 DUP3 ADD MSTORE PUSH1 0xE0 PUSH1 0x60 DUP3 ADD DUP2 SWAP1 MSTORE PUSH1 0x0 SWAP1 PUSH2 0x1624 SWAP1 DUP4 ADD DUP8 PUSH2 0x1424 JUMP JUMPDEST DUP6 PUSH1 0x80 DUP5 ADD MSTORE DUP5 PUSH1 0xA0 DUP5 ADD MSTORE DUP3 DUP2 SUB PUSH1 0xC0 DUP5 ADD MSTORE PUSH2 0x1642 DUP2 DUP6 PUSH2 0x1453 JUMP JUMPDEST SWAP11 SWAP10 POP POP POP POP POP POP POP POP POP POP JUMP JUMPDEST PUSH1 0x1 PUSH1 0x1 PUSH1 0xA0 SHL SUB SWAP2 SWAP1 SWAP2 AND DUP2 MSTORE PUSH1 0x20 ADD SWAP1 JUMP JUMPDEST PUSH1 0x40 DUP2 ADD PUSH2 0x1671 DUP5 PUSH2 0x1774 JUMP JUMPDEST SWAP3 DUP2 MSTORE PUSH1 0x20 ADD MSTORE SWAP1 JUMP JUMPDEST PUSH1 0x0 PUSH2 0x1686 DUP6 PUSH2 0x1774 JUMP JUMPDEST DUP5 DUP3 MSTORE PUSH1 0x60 PUSH1 0x20 DUP4 ADD MSTORE PUSH2 0x169D PUSH1 0x60 DUP4 ADD DUP6 PUSH2 0x1424 JUMP JUMPDEST SWAP1 POP PUSH3 0xFFFFFF DUP4 AND PUSH1 0x40 DUP4 ADD MSTORE SWAP5 SWAP4 POP POP POP POP JUMP JUMPDEST PUSH1 0x0 PUSH1 0x80 DUP3 MSTORE PUSH2 0x16C5 PUSH1 0x80 DUP4 ADD DUP8 PUSH2 0x149E JUMP JUMPDEST DUP3 DUP2 SUB PUSH1 0x20 DUP5 ADD MSTORE PUSH2 0x16D7 DUP2 DUP8 PUSH2 0x1424 JUMP JUMPDEST PUSH1 0x40 DUP5 ADD SWAP6 SWAP1 SWAP6 MSTORE POP POP PUSH1 0x60 ADD MSTORE SWAP3 SWAP2 POP POP JUMP JUMPDEST PUSH1 0x0 PUSH1 0x60 DUP3 MSTORE PUSH2 0x16FE PUSH1 0x60 DUP4 ADD DUP7 PUSH2 0x149E JUMP JUMPDEST PUSH1 0x20 DUP4 ADD SWAP5 SWAP1 SWAP5 MSTORE POP PUSH1 0x40 ADD MSTORE SWAP2 SWAP1 POP JUMP JUMPDEST SWAP4 DUP5 MSTORE PUSH1 0x20 DUP5 ADD SWAP3 SWAP1 SWAP3 MSTORE PUSH1 0x40 DUP4 ADD MSTORE PUSH1 0x1 PUSH1 0x1 PUSH1 0xA0 SHL SUB AND PUSH1 0x60 DUP3 ADD MSTORE PUSH1 0x80 ADD SWAP1 JUMP JUMPDEST PUSH1 0x40 MLOAD DUP2 DUP2 ADD PUSH1 0x1 PUSH1 0x1 PUSH1 0x40 SHL SUB DUP2 GT DUP3 DUP3 LT OR ISZERO PUSH2 0x174F JUMPI INVALID JUMPDEST PUSH1 0x40 MSTORE SWAP2 SWAP1 POP JUMP JUMPDEST PUSH1 0x0 PUSH1 0x1 PUSH1 0x1 PUSH1 0x40 SHL SUB DUP3 GT ISZERO PUSH2 0x176A JUMPI INVALID JUMPDEST POP PUSH1 0x20 SWAP1 DUP2 MUL ADD SWAP1 JUMP JUMPDEST PUSH1 0x4 DUP2 LT PUSH2 0x177E JUMPI INVALID JUMPDEST POP JUMP JUMPDEST PUSH1 0x1 PUSH1 0x1 PUSH1 0xA0 SHL SUB DUP2 AND DUP2 EQ PUSH2 0x177E JUMPI PUSH1 0x0 DUP1 REVERT INVALID LOG2 PUSH5 0x6970667358 0x22 SLT KECCAK256 PUSH27 0x19FE84B109382F8C302C81AF14A2CBEA7472D7E6D55A24AD279BC8 NOT SWAP13 SLOAD GASLIMIT PUSH5 0x736F6C6343 STOP SMOD MOD STOP CALLER ","sha1":"4d80fbc54e8586c6e2d9fa42dba258a5b57007fb","source":"// SPDX-License-Identifier: GPL-3.0-or-later\n// This program is free software: you can redistribute it and/or modify\n// it under the terms of the GNU General Public License as published by\n// the Free Software Foundation, either version 3 of the License, or\n// (at your option) any later version.\n\n// This program is distributed in the hope that it will be useful,\n// but WITHOUT ANY WARRANTY; without even the implied warranty of\n// MERCHANTABILITY or FITNESS FOR A PARTICULAR PURPOSE.  See the\n// GNU General Public License for more details.\n\n// You should have received a copy of the GNU General Public License\n// along with this program.  If not, see <http://www.gnu.org/licenses/>.\n\npragma solidity 0.7.6;\npragma experimental ABIEncoderV2;\n\nimport \"@balancer-labs/v2-solidity-utils/contracts/openzeppelin/IERC20.sol\";\nimport \"@balancer-labs/v2-pool-utils/contracts/oracle/QueryProcessor.sol\";\n\nimport \"@balancer-labs/v2-vault/contracts/interfaces/IVault.sol\";\nimport \"@balancer-labs/v2-vault/contracts/interfaces/IBasePool.sol\";\nimport \"@balancer-labs/v2-vault/contracts/interfaces/IGeneralPool.sol\";\nimport \"@balancer-labs/v2-vault/contracts/interfaces/IPoolSwapStructs.sol\";\nimport \"@balancer-labs/v2-vault/contracts/interfaces/IMinimalSwapInfoPool.sol\";\n\nimport \"./WeightedPoolUserData.sol\";\n\ncontract MockVault is IPoolSwapStructs {\n    struct Pool {\n        IERC20[] tokens;\n        mapping(IERC20 => uint256) balances;\n    }\n\n    IAuthorizer private _authorizer;\n    mapping(bytes32 => Pool) private pools;\n\n    event Swap(bytes32 indexed poolId, IERC20 indexed tokenIn, IERC20 indexed tokenOut, uint256 amount);\n\n    event PoolBalanceChanged(bytes32 indexed poolId, address indexed liquidityProvider, IERC20[] tokens, int256[] deltas, uint256[] protocolFees);\n\n    constructor(IAuthorizer authorizer) {\n        // NOTE: terrible workaround Brownie not adding library to current project\n        // unless it is explicitly used somewhere\n        QueryProcessor.findNearestSample;\n\n        _authorizer = authorizer;\n    }\n\n    function getAuthorizer() external view returns (IAuthorizer) {\n        return _authorizer;\n    }\n\n    function getPoolTokens(bytes32 poolId) external view returns (IERC20[] memory tokens, uint256[] memory balances) {\n        Pool storage pool = pools[poolId];\n        tokens = new IERC20[](pool.tokens.length);\n        balances = new uint256[](pool.tokens.length);\n\n        for (uint256 i = 0; i < pool.tokens.length; i++) {\n            tokens[i] = pool.tokens[i];\n            balances[i] = pool.balances[tokens[i]];\n        }\n        /*\n        // DEBUG: Dummy values, no storage access\n        tokens = new IERC20[](3);\n        balances = new uint256[](3);\n        balances[0] = 100e18;\n        balances[1] = 100e18;\n        balances[2] = 100e18;\n        */\n    }\n\n    function getPoolTokenInfo(bytes32 poolId, IERC20 token)\n        external\n        view\n        returns (\n            uint256 cash,\n            uint256 managed,\n            uint256 lastChangeBlock,\n            address assetManager\n        )\n    {\n        Pool storage pool = pools[poolId];\n        cash = pool.balances[token];\n        // Dummy:\n        managed = 0;\n        lastChangeBlock = 0;\n        assetManager = address(0x0);\n    }\n\n    function registerPool(IVault.PoolSpecialization) external view returns (bytes32) {\n        // solhint-disable-previous-line no-empty-blocks\n    }\n\n    function registerTokens(\n        bytes32 poolId,\n        IERC20[] memory tokens,\n        address[] memory\n    ) external {\n        Pool storage pool = pools[poolId];\n        for (uint256 i = 0; i < tokens.length; i++) {\n            pool.tokens.push(tokens[i]);\n        }\n    }\n\n    function updateBalances(bytes32 poolId, uint256[] memory balances) external {\n        Pool storage pool = pools[poolId];\n        for (uint256 i = 0; i < balances.length; i++) {\n            pool.balances[pool.tokens[i]] = balances[i];\n        }\n    }\n\n    function callMinimalPoolSwap(\n        address pool,\n        SwapRequest memory request,\n        uint256 balanceTokenIn,\n        uint256 balanceTokenOut\n    ) external {\n        uint256 amount = IMinimalSwapInfoPool(pool).onSwap(request, balanceTokenIn, balanceTokenOut);\n        emit Swap(request.poolId, request.tokenIn, request.tokenOut, amount);\n    }\n\n    function callGeneralPoolSwap(\n        address pool,\n        SwapRequest memory request,\n        uint256[] memory balances,\n        uint256 indexIn,\n        uint256 indexOut\n    ) external {\n        uint256 amount = IGeneralPool(pool).onSwap(request, balances, indexIn, indexOut);\n        emit Swap(request.poolId, request.tokenIn, request.tokenOut, amount);\n    }\n\n    struct CallJoinPoolGyroParams {\n        IBasePool pool;\n        bytes32 poolId;\n        address sender;\n        address recipient;\n        uint256[] currentBalances;\n        uint256 lastChangeBlock;\n        uint256 protocolSwapFeePercentage;\n        uint256[] amountsIn;\n        uint256 bptOut;\n    }\n\n    // Join pool.\n    // NOTE:\n    // - CallJoinPoolGyroParams.amountsIn is only used upon initialization.\n    // - CallJoinPoolGyroParams.bptOut is only used out of initialization.\n    // This is an unfortunate accident and should in principle be refactored.\n    function callJoinPoolGyro(CallJoinPoolGyroParams memory params)\n        public\n        returns (uint256[] memory amountsIn, uint256[] memory dueProtocolFeeAmounts)\n    {\n        //(, amountsIn, minBPTAmountOut) = abi.decode(self, (JoinKind, uint256[], uint256));\n\n        WeightedPoolUserData.JoinKind kind;\n        bytes memory userData;\n\n        {\n            bool isEmptyPool = true;\n            for (uint256 i = 0; i < params.currentBalances.length; ++i) isEmptyPool = isEmptyPool && (params.currentBalances[i] == 0);\n            if (isEmptyPool) {\n                kind = WeightedPoolUserData.JoinKind.INIT;\n                userData = abi.encode(kind, params.amountsIn, 1e7); //min Bpt\n            } else {\n                kind = WeightedPoolUserData.JoinKind.ALL_TOKENS_IN_FOR_EXACT_BPT_OUT;\n                userData = abi.encode(kind, params.bptOut); // bptOut\n            }\n        }\n\n        (amountsIn, dueProtocolFeeAmounts) = params.pool.onJoinPool(\n            params.poolId,\n            params.sender,\n            params.recipient,\n            params.currentBalances,\n            params.lastChangeBlock,\n            params.protocolSwapFeePercentage,\n            userData\n        );\n\n        Pool storage pool = pools[params.poolId];\n\n        for (uint256 i = 0; i < pool.tokens.length; i++) {\n            pool.balances[pool.tokens[i]] += amountsIn[i];\n        }\n\n        IERC20[] memory tokens = new IERC20[](params.currentBalances.length);\n        int256[] memory deltas = new int256[](amountsIn.length);\n        for (uint256 i = 0; i < amountsIn.length; ++i) {\n            deltas[i] = int256(amountsIn[i]);\n        }\n\n        emit PoolBalanceChanged(params.poolId, params.sender, tokens, deltas, dueProtocolFeeAmounts);\n    }\n\n    function callExitPoolGyro(\n        IBasePool pool,\n        bytes32 poolId,\n        address sender,\n        address recipient,\n        uint256[] memory currentBalances,\n        uint256 lastChangeBlock,\n        uint256 protocolSwapFeePercentage,\n        uint256 bptAmountIn\n    ) public returns (uint256[] memory amountsOut, uint256[] memory dueProtocolFeeAmounts) {\n        //(, amountsIn, minBPTAmountOut) = abi.decode(self, (JoinKind, uint256[], uint256));\n\n        WeightedPoolUserData.ExitKind kind = WeightedPoolUserData.ExitKind.EXACT_BPT_IN_FOR_TOKENS_OUT;\n\n        bytes memory userData = abi.encode(kind, bptAmountIn);\n\n        (amountsOut, dueProtocolFeeAmounts) = pool.onExitPool(\n            poolId,\n            sender,\n            recipient,\n            currentBalances,\n            lastChangeBlock,\n            protocolSwapFeePercentage,\n            userData\n        );\n\n        Pool storage _pool = pools[poolId];\n        for (uint256 i = 0; i < _pool.tokens.length; i++) {\n            _pool.balances[_pool.tokens[i]] -= amountsOut[i];\n        }\n\n        IERC20[] memory tokens = new IERC20[](currentBalances.length);\n        int256[] memory deltas = new int256[](amountsOut.length);\n        for (uint256 i = 0; i < amountsOut.length; ++i) {\n            deltas[i] = int256(amountsOut[i]);\n        }\n\n        emit PoolBalanceChanged(poolId, sender, tokens, deltas, dueProtocolFeeAmounts);\n    }\n\n    function callMinimalGyroPoolSwap(\n        address poolAddress,\n        SwapRequest memory request, //with incomplete userData\n        uint256 balanceTokenIn,\n        uint256 balanceTokenOut\n    ) external {\n        // User Data not used in swap\n        // bytes memory userData = abi.encode(kind,amountsOutStr,10 * 10 ** 25); //maxBPTAmountIn\n        //request.userData  = userData;\n\n        // Dummy to ensure storage is warm. We can't just call getPoolTokens() b/c it's external.\n        // The following makes the two balances warm that the real vault will have warm.\n        {\n            Pool storage pool = pools[request.poolId];\n            uint256 dummy;\n            dummy = pool.balances[request.tokenIn] + pool.balances[request.tokenOut];\n            // no-op to prevent the optimizer from removing this code:\n            if (dummy == 0) return;\n        }\n        /*{\n            Pool storage pool = pools[request.poolId];\n            IERC20[] memory tokens = new IERC20[](pool.tokens.length);\n            uint256[] memory balances = new uint256[](pool.tokens.length);\n\n            for (uint256 i = 0; i < pool.tokens.length; i++) {\n                tokens[i] = pool.tokens[i];\n                balances[i] = pool.balances[tokens[i]];\n            }\n            // DEBUG noop\n            if(balances[0] == 0 && balances[1] == 0 && balances[2] == 0) {\n                return;\n            }\n        }\n        {\n            Pool storage pool = pools[request.poolId];\n            IERC20[] memory tokens = new IERC20[](pool.tokens.length);\n            uint256[] memory balances = new uint256[](pool.tokens.length);\n\n            for (uint256 i = 0; i < pool.tokens.length; i++) {\n                tokens[i] = pool.tokens[i];\n                balances[i] = pool.balances[tokens[i]];\n            }\n            // DEBUG noop\n            if(balances[0] == 0 && balances[1] == 0 && balances[2] == 0) {\n                return;\n            }\n        }*/\n\n        uint256 amount = IMinimalSwapInfoPool(poolAddress).onSwap(request, balanceTokenIn, balanceTokenOut);\n        emit Swap(request.poolId, request.tokenIn, request.tokenOut, amount);\n\n        Pool storage _pool = pools[request.poolId];\n        _pool.balances[request.tokenIn] += request.amount;\n        _pool.balances[request.tokenOut] -= amount;\n    }\n\n    function getPoolId() external view returns (bytes32) {\n        // solhint-disable-previous-line no-empty-blocks\n    }\n}\n","sourcePath":"contracts/testing/MockVault.sol","type":"contract","deployment":{"address":"0x254dffcd3277C0b1660F6d42EFbB754edaBAbC2B","chainid":"1337","blockHeight":4}}