{"abi":[{"inputs":[{"components":[{"components":[{"internalType":"contract IVault","name":"vault","type":"address"},{"internalType":"string","name":"name","type":"string"},{"internalType":"string","name":"symbol","type":"string"},{"internalType":"contract IERC20","name":"token0","type":"address"},{"internalType":"contract IERC20","name":"token1","type":"address"},{"internalType":"uint256","name":"swapFeePercentage","type":"uint256"},{"internalType":"uint256","name":"pauseWindowDuration","type":"uint256"},{"internalType":"uint256","name":"bufferPeriodDuration","type":"uint256"},{"internalType":"address","name":"owner","type":"address"}],"internalType":"struct ExtensibleWeightedPool2Tokens.NewPoolParams","name":"baseParams","type":"tuple"},{"components":[{"internalType":"int256","name":"alpha","type":"int256"},{"internalType":"int256","name":"beta","type":"int256"},{"internalType":"int256","name":"c","type":"int256"},{"internalType":"int256","name":"s","type":"int256"},{"internalType":"int256","name":"lambda","type":"int256"}],"internalType":"struct GyroECLPMath.Params","name":"eclpParams","type":"tuple"},{"components":[{"components":[{"internalType":"int256","name":"x","type":"int256"},{"internalType":"int256","name":"y","type":"int256"}],"internalType":"struct GyroECLPMath.Vector2","name":"tauAlpha","type":"tuple"},{"components":[{"internalType":"int256","name":"x","type":"int256"},{"internalType":"int256","name":"y","type":"int256"}],"internalType":"struct GyroECLPMath.Vector2","name":"tauBeta","type":"tuple"},{"internalType":"int256","name":"u","type":"int256"},{"internalType":"int256","name":"v","type":"int256"},{"internalType":"int256","name":"w","type":"int256"},{"internalType":"int256","name":"z","type":"int256"},{"internalType":"int256","name":"dSq","type":"int256"}],"internalType":"struct GyroECLPMath.DerivedParams","name":"derivedEclpParams","type":"tuple"},{"internalType":"address","name":"rateProvider0","type":"address"},{"internalType":"address","name":"rateProvider1","type":"address"},{"internalType":"address","name":"capManager","type":"address"},{"components":[{"internalType":"bool","name":"capEnabled","type":"bool"},{"internalType":"uint120","name":"perAddressCap","type":"uint120"},{"internalType":"uint128","name":"globalCap","type":"uint128"}],"internalType":"struct ICappedLiquidity.CapParams","name":"capParams","type":"tuple"},{"internalType":"address","name":"pauseManager","type":"address"}],"internalType":"struct GyroECLPPool.GyroParams","name":"params","type":"tuple"},{"internalType":"address","name":"configAddress","type":"address"}],"stateMutability":"nonpayable","type":"constructor","name":"constructor"},{"anonymous":false,"inputs":[{"indexed":true,"internalType":"address","name":"owner","type":"address"},{"indexed":true,"internalType":"address","name":"spender","type":"address"},{"indexed":false,"internalType":"uint256","name":"value","type":"uint256"}],"name":"Approval","type":"event"},{"anonymous":false,"inputs":[{"indexed":false,"internalType":"address","name":"capManager","type":"address"}],"name":"CapManagerUpdated","type":"event"},{"anonymous":false,"inputs":[{"components":[{"internalType":"bool","name":"capEnabled","type":"bool"},{"internalType":"uint120","name":"perAddressCap","type":"uint120"},{"internalType":"uint128","name":"globalCap","type":"uint128"}],"indexed":false,"internalType":"struct ICappedLiquidity.CapParams","name":"params","type":"tuple"}],"name":"CapParamsUpdated","type":"event"},{"anonymous":false,"inputs":[{"indexed":false,"internalType":"bool","name":"derivedParamsValidated","type":"bool"}],"name":"ECLPDerivedParamsValidated","type":"event"},{"anonymous":false,"inputs":[{"indexed":false,"internalType":"bool","name":"paramsValidated","type":"bool"}],"name":"ECLPParamsValidated","type":"event"},{"anonymous":false,"inputs":[{"indexed":false,"internalType":"uint256","name":"invariantAfterJoin","type":"uint256"}],"name":"InvariantAterInitializeJoin","type":"event"},{"anonymous":false,"inputs":[{"indexed":false,"internalType":"uint256","name":"oldInvariant","type":"uint256"},{"indexed":false,"internalType":"uint256","name":"newInvariant","type":"uint256"}],"name":"InvariantOldAndNew","type":"event"},{"anonymous":false,"inputs":[{"indexed":false,"internalType":"address","name":"oldPauseManager","type":"address"},{"indexed":false,"internalType":"address","name":"newPauseManager","type":"address"}],"name":"PauseManagerChanged","type":"event"},{"anonymous":false,"inputs":[],"name":"PausedLocally","type":"event"},{"anonymous":false,"inputs":[{"indexed":false,"internalType":"bool","name":"paused","type":"bool"}],"name":"PausedStateChanged","type":"event"},{"anonymous":false,"inputs":[{"indexed":false,"internalType":"uint256","name":"swapFeePercentage","type":"uint256"}],"name":"SwapFeePercentageChanged","type":"event"},{"anonymous":false,"inputs":[{"indexed":false,"internalType":"uint256[]","name":"balances","type":"uint256[]"},{"components":[{"internalType":"int256","name":"x","type":"int256"},{"internalType":"int256","name":"y","type":"int256"}],"indexed":false,"internalType":"struct GyroECLPMath.Vector2","name":"invariant","type":"tuple"},{"indexed":false,"internalType":"uint256","name":"amount","type":"uint256"}],"name":"SwapParams","type":"event"},{"anonymous":false,"inputs":[{"indexed":true,"internalType":"address","name":"from","type":"address"},{"indexed":true,"internalType":"address","name":"to","type":"address"},{"indexed":false,"internalType":"uint256","name":"value","type":"uint256"}],"name":"Transfer","type":"event"},{"anonymous":false,"inputs":[],"name":"UnpausedLocally","type":"event"},{"inputs":[],"name":"DOMAIN_SEPARATOR","outputs":[{"internalType":"bytes32","name":"","type":"bytes32"}],"stateMutability":"view","type":"function"},{"inputs":[{"internalType":"address","name":"owner","type":"address"},{"internalType":"address","name":"spender","type":"address"}],"name":"allowance","outputs":[{"internalType":"uint256","name":"","type":"uint256"}],"stateMutability":"view","type":"function"},{"inputs":[{"internalType":"address","name":"spender","type":"address"},{"internalType":"uint256","name":"amount","type":"uint256"}],"name":"approve","outputs":[{"internalType":"bool","name":"","type":"bool"}],"stateMutability":"nonpayable","type":"function"},{"inputs":[{"internalType":"address","name":"account","type":"address"}],"name":"balanceOf","outputs":[{"internalType":"uint256","name":"","type":"uint256"}],"stateMutability":"view","type":"function"},{"inputs":[],"name":"capManager","outputs":[{"internalType":"address","name":"","type":"address"}],"stateMutability":"view","type":"function"},{"inputs":[],"name":"capParams","outputs":[{"components":[{"internalType":"bool","name":"capEnabled","type":"bool"},{"internalType":"uint120","name":"perAddressCap","type":"uint120"},{"internalType":"uint128","name":"globalCap","type":"uint128"}],"internalType":"struct ICappedLiquidity.CapParams","name":"","type":"tuple"}],"stateMutability":"view","type":"function"},{"inputs":[{"internalType":"address","name":"_pauseManager","type":"address"}],"name":"changePauseManager","outputs":[],"stateMutability":"nonpayable","type":"function"},{"inputs":[],"name":"decimals","outputs":[{"internalType":"uint8","name":"","type":"uint8"}],"stateMutability":"view","type":"function"},{"inputs":[{"internalType":"address","name":"spender","type":"address"},{"internalType":"uint256","name":"amount","type":"uint256"}],"name":"decreaseAllowance","outputs":[{"internalType":"bool","name":"","type":"bool"}],"stateMutability":"nonpayable","type":"function"},{"inputs":[{"internalType":"bytes4","name":"selector","type":"bytes4"}],"name":"getActionId","outputs":[{"internalType":"bytes32","name":"","type":"bytes32"}],"stateMutability":"view","type":"function"},{"inputs":[],"name":"getActualSupply","outputs":[{"internalType":"uint256","name":"","type":"uint256"}],"stateMutability":"view","type":"function"},{"inputs":[],"name":"getAuthorizer","outputs":[{"internalType":"contract IAuthorizer","name":"","type":"address"}],"stateMutability":"view","type":"function"},{"inputs":[],"name":"getECLPParams","outputs":[{"components":[{"internalType":"int256","name":"alpha","type":"int256"},{"internalType":"int256","name":"beta","type":"int256"},{"internalType":"int256","name":"c","type":"int256"},{"internalType":"int256","name":"s","type":"int256"},{"internalType":"int256","name":"lambda","type":"int256"}],"internalType":"struct GyroECLPMath.Params","name":"params","type":"tuple"},{"components":[{"components":[{"internalType":"int256","name":"x","type":"int256"},{"internalType":"int256","name":"y","type":"int256"}],"internalType":"struct GyroECLPMath.Vector2","name":"tauAlpha","type":"tuple"},{"components":[{"internalType":"int256","name":"x","type":"int256"},{"internalType":"int256","name":"y","type":"int256"}],"internalType":"struct GyroECLPMath.Vector2","name":"tauBeta","type":"tuple"},{"internalType":"int256","name":"u","type":"int256"},{"internalType":"int256","name":"v","type":"int256"},{"internalType":"int256","name":"w","type":"int256"},{"internalType":"int256","name":"z","type":"int256"},{"internalType":"int256","name":"dSq","type":"int256"}],"internalType":"struct GyroECLPMath.DerivedParams","name":"d","type":"tuple"}],"stateMutability":"view","type":"function"},{"inputs":[],"name":"getFeesMetadata","outputs":[{"internalType":"uint256","name":"","type":"uint256"},{"internalType":"uint256","name":"","type":"uint256"},{"internalType":"address","name":"","type":"address"},{"internalType":"address","name":"","type":"address"}],"stateMutability":"view","type":"function"},{"inputs":[],"name":"getInvariant","outputs":[{"internalType":"uint256","name":"","type":"uint256"}],"stateMutability":"view","type":"function"},{"inputs":[],"name":"getInvariantDivActualSupply","outputs":[{"internalType":"uint256","name":"","type":"uint256"}],"stateMutability":"view","type":"function"},{"inputs":[],"name":"getLastInvariant","outputs":[{"internalType":"uint256","name":"","type":"uint256"}],"stateMutability":"view","type":"function"},{"inputs":[],"name":"getMiscData","outputs":[{"internalType":"int256","name":"logInvariant","type":"int256"},{"internalType":"int256","name":"logTotalSupply","type":"int256"},{"internalType":"uint256","name":"oracleSampleCreationTimestamp","type":"uint256"},{"internalType":"uint256","name":"oracleIndex","type":"uint256"},{"internalType":"bool","name":"oracleEnabled","type":"bool"},{"internalType":"uint256","name":"swapFeePercentage","type":"uint256"}],"stateMutability":"view","type":"function"},{"inputs":[],"name":"getNormalizedWeights","outputs":[{"internalType":"uint256[]","name":"","type":"uint256[]"}],"stateMutability":"view","type":"function"},{"inputs":[],"name":"getOwner","outputs":[{"internalType":"address","name":"","type":"address"}],"stateMutability":"view","type":"function"},{"inputs":[],"name":"getPausedState","outputs":[{"internalType":"bool","name":"paused","type":"bool"},{"internalType":"uint256","name":"pauseWindowEndTime","type":"uint256"},{"internalType":"uint256","name":"bufferPeriodEndTime","type":"uint256"}],"stateMutability":"view","type":"function"},{"inputs":[],"name":"getPoolId","outputs":[{"internalType":"bytes32","name":"","type":"bytes32"}],"stateMutability":"view","type":"function"},{"inputs":[],"name":"getPrice","outputs":[{"internalType":"uint256","name":"spotPrice","type":"uint256"}],"stateMutability":"view","type":"function"},{"inputs":[],"name":"getRate","outputs":[{"internalType":"uint256","name":"","type":"uint256"}],"stateMutability":"view","type":"function"},{"inputs":[],"name":"getSwapFeePercentage","outputs":[{"internalType":"uint256","name":"","type":"uint256"}],"stateMutability":"view","type":"function"},{"inputs":[],"name":"getTokenRates","outputs":[{"internalType":"uint256","name":"rate0","type":"uint256"},{"internalType":"uint256","name":"rate1","type":"uint256"}],"stateMutability":"view","type":"function"},{"inputs":[],"name":"getVault","outputs":[{"internalType":"contract IVault","name":"","type":"address"}],"stateMutability":"view","type":"function"},{"inputs":[],"name":"gyroConfig","outputs":[{"internalType":"contract IGyroConfig","name":"","type":"address"}],"stateMutability":"view","type":"function"},{"inputs":[{"internalType":"address","name":"spender","type":"address"},{"internalType":"uint256","name":"addedValue","type":"uint256"}],"name":"increaseAllowance","outputs":[{"internalType":"bool","name":"","type":"bool"}],"stateMutability":"nonpayable","type":"function"},{"inputs":[],"name":"name","outputs":[{"internalType":"string","name":"","type":"string"}],"stateMutability":"view","type":"function"},{"inputs":[{"internalType":"address","name":"owner","type":"address"}],"name":"nonces","outputs":[{"internalType":"uint256","name":"","type":"uint256"}],"stateMutability":"view","type":"function"},{"inputs":[{"internalType":"bytes32","name":"poolId","type":"bytes32"},{"internalType":"address","name":"sender","type":"address"},{"internalType":"address","name":"recipient","type":"address"},{"internalType":"uint256[]","name":"balances","type":"uint256[]"},{"internalType":"uint256","name":"lastChangeBlock","type":"uint256"},{"internalType":"uint256","name":"protocolSwapFeePercentage","type":"uint256"},{"internalType":"bytes","name":"userData","type":"bytes"}],"name":"onExitPool","outputs":[{"internalType":"uint256[]","name":"","type":"uint256[]"},{"internalType":"uint256[]","name":"","type":"uint256[]"}],"stateMutability":"nonpayable","type":"function"},{"inputs":[{"internalType":"bytes32","name":"poolId","type":"bytes32"},{"internalType":"address","name":"sender","type":"address"},{"internalType":"address","name":"recipient","type":"address"},{"internalType":"uint256[]","name":"balances","type":"uint256[]"},{"internalType":"uint256","name":"lastChangeBlock","type":"uint256"},{"internalType":"uint256","name":"protocolSwapFeePercentage","type":"uint256"},{"internalType":"bytes","name":"userData","type":"bytes"}],"name":"onJoinPool","outputs":[{"internalType":"uint256[]","name":"amountsIn","type":"uint256[]"},{"internalType":"uint256[]","name":"dueProtocolFeeAmounts","type":"uint256[]"}],"stateMutability":"nonpayable","type":"function"},{"inputs":[{"components":[{"internalType":"enum IVault.SwapKind","name":"kind","type":"uint8"},{"internalType":"contract IERC20","name":"tokenIn","type":"address"},{"internalType":"contract IERC20","name":"tokenOut","type":"address"},{"internalType":"uint256","name":"amount","type":"uint256"},{"internalType":"bytes32","name":"poolId","type":"bytes32"},{"internalType":"uint256","name":"lastChangeBlock","type":"uint256"},{"internalType":"address","name":"from","type":"address"},{"internalType":"address","name":"to","type":"address"},{"internalType":"bytes","name":"userData","type":"bytes"}],"internalType":"struct IPoolSwapStructs.SwapRequest","name":"request","type":"tuple"},{"internalType":"uint256","name":"balanceTokenIn","type":"uint256"},{"internalType":"uint256","name":"balanceTokenOut","type":"uint256"}],"name":"onSwap","outputs":[{"internalType":"uint256","name":"","type":"uint256"}],"stateMutability":"nonpayable","type":"function"},{"inputs":[],"name":"pause","outputs":[],"stateMutability":"nonpayable","type":"function"},{"inputs":[],"name":"pauseManager","outputs":[{"internalType":"address","name":"","type":"address"}],"stateMutability":"view","type":"function"},{"inputs":[{"internalType":"address","name":"owner","type":"address"},{"internalType":"address","name":"spender","type":"address"},{"internalType":"uint256","name":"value","type":"uint256"},{"internalType":"uint256","name":"deadline","type":"uint256"},{"internalType":"uint8","name":"v","type":"uint8"},{"internalType":"bytes32","name":"r","type":"bytes32"},{"internalType":"bytes32","name":"s","type":"bytes32"}],"name":"permit","outputs":[],"stateMutability":"nonpayable","type":"function"},{"inputs":[{"internalType":"bytes32","name":"poolId","type":"bytes32"},{"internalType":"address","name":"sender","type":"address"},{"internalType":"address","name":"recipient","type":"address"},{"internalType":"uint256[]","name":"balances","type":"uint256[]"},{"internalType":"uint256","name":"lastChangeBlock","type":"uint256"},{"internalType":"uint256","name":"protocolSwapFeePercentage","type":"uint256"},{"internalType":"bytes","name":"userData","type":"bytes"}],"name":"queryExit","outputs":[{"internalType":"uint256","name":"bptIn","type":"uint256"},{"internalType":"uint256[]","name":"amountsOut","type":"uint256[]"}],"stateMutability":"nonpayable","type":"function"},{"inputs":[{"internalType":"bytes32","name":"poolId","type":"bytes32"},{"internalType":"address","name":"sender","type":"address"},{"internalType":"address","name":"recipient","type":"address"},{"internalType":"uint256[]","name":"balances","type":"uint256[]"},{"internalType":"uint256","name":"lastChangeBlock","type":"uint256"},{"internalType":"uint256","name":"protocolSwapFeePercentage","type":"uint256"},{"internalType":"bytes","name":"userData","type":"bytes"}],"name":"queryJoin","outputs":[{"internalType":"uint256","name":"bptOut","type":"uint256"},{"internalType":"uint256[]","name":"amountsIn","type":"uint256[]"}],"stateMutability":"nonpayable","type":"function"},{"inputs":[],"name":"rateProvider0","outputs":[{"internalType":"contract IRateProvider","name":"","type":"address"}],"stateMutability":"view","type":"function"},{"inputs":[],"name":"rateProvider1","outputs":[{"internalType":"contract IRateProvider","name":"","type":"address"}],"stateMutability":"view","type":"function"},{"inputs":[{"internalType":"address","name":"_capManager","type":"address"}],"name":"setCapManager","outputs":[],"stateMutability":"nonpayable","type":"function"},{"inputs":[{"components":[{"internalType":"bool","name":"capEnabled","type":"bool"},{"internalType":"uint120","name":"perAddressCap","type":"uint120"},{"internalType":"uint128","name":"globalCap","type":"uint128"}],"internalType":"struct ICappedLiquidity.CapParams","name":"params","type":"tuple"}],"name":"setCapParams","outputs":[],"stateMutability":"nonpayable","type":"function"},{"inputs":[{"internalType":"bool","name":"paused","type":"bool"}],"name":"setPaused","outputs":[],"stateMutability":"nonpayable","type":"function"},{"inputs":[{"internalType":"uint256","name":"swapFeePercentage","type":"uint256"}],"name":"setSwapFeePercentage","outputs":[],"stateMutability":"nonpayable","type":"function"},{"inputs":[],"name":"symbol","outputs":[{"internalType":"string","name":"","type":"string"}],"stateMutability":"view","type":"function"},{"inputs":[],"name":"totalSupply","outputs":[{"internalType":"uint256","name":"","type":"uint256"}],"stateMutability":"view","type":"function"},{"inputs":[{"internalType":"address","name":"recipient","type":"address"},{"internalType":"uint256","name":"amount","type":"uint256"}],"name":"transfer","outputs":[{"internalType":"bool","name":"","type":"bool"}],"stateMutability":"nonpayable","type":"function"},{"inputs":[{"internalType":"address","name":"sender","type":"address"},{"internalType":"address","name":"recipient","type":"address"},{"internalType":"uint256","name":"amount","type":"uint256"}],"name":"transferFrom","outputs":[{"internalType":"bool","name":"","type":"bool"}],"stateMutability":"nonpayable","type":"function"},{"inputs":[],"name":"unpause","outputs":[],"stateMutability":"nonpayable","type":"function"}],"bytecode":"6104a06040527f6e71edae12b1b97f4d1f60370fef10105fa2faae0126114a169c64845d6126c9610120526706f05b59d3b20000610200819052610220526000610240523480156200005057600080fd5b506040516200608b3803806200608b833981016040819052620000739162000f68565b8160e001518260a001518360c0015184600001518060c001518160e001518260200151836040015184600001518280604051806040016040528060018152602001603160f81b81525085858a6101000151336001600160a01b031660001b806080818152505050806001600160a01b031660a0816001600160a01b031660601b815250505081600390805190602001906200011092919062000b65565b5080516200012690600490602084019062000b65565b505060058054601260ff1990911617905550815160209283012060c052805191012060e052507f8b73c3c69bb8fe3d512ecc4cf759cc79239f7b179b0ffacaa9a75d522b39400f61010052606090811b6001600160601b031916610140524294909401610160819052909201610180525050604080516002808252928101909152600091816020016020820280368337019050509050816060015181600081518110620001cf57fe5b60200260200101906001600160a01b031690816001600160a01b0316815250508160800151816001815181106200020257fe5b60200260200101906001600160a01b031690816001600160a01b0316815250506200023881620006a860201b62001bc31760201c565b60a08201516200024890620006b8565b81516040516309b2760f60e01b81526000916001600160a01b0316906309b2760f906200027b9060029060040162001154565b602060405180830381600087803b1580156200029657600080fd5b505af1158015620002ab573d6000803e3d6000fd5b505050506040513d601f19601f82011682018060405250810190620002d1919062000f4f565b83516040805160028082526060820183529394506001600160a01b03909216926366a9c7d2928592879290602083019080368337019050506040518463ffffffff1660e01b81526004016200032993929190620010ba565b600060405180830381600087803b1580156200034457600080fd5b505af115801562000359573d6000803e3d6000fd5b5050506101a082905250606080840180516001600160601b031990831b81166101c052608086015190921b9091166101e05251620003979062000741565b610260526080830151620003ab9062000741565b61028052505060408051808201909152600e81526d1b9bdd08185d5d1a1bdc9a5e995960921b602082015290506001600160a01b0383166200040b5760405162461bcd60e51b815260040162000402919062001169565b60405180910390fd5b50600b80546001600160a01b0319166001600160a01b039384161790558051600a8054602084015160409094015160ff1990911692151592909217610100600160801b0319166101006001600160781b0390941693909302929092176001600160801b03908116600160801b91909216021790556200049090821615156069620007ef565b600c80546001600160a01b0319166001600160a01b03928316179055620004bd90821615156078620007ef565b620004d782602001516200080060201b62001bd11760201c565b7ff468331437e1ec2fec64fc27f23a28b085a09e90f385338d4b58cb63860797776001604051620005099190620010af565b60405180910390a160208201516040808401519051636e70c2ef60e01b815273__GyroECLPMath__________________________92636e70c2ef9262000552926004016200119e565b60006040518083038186803b1580156200056b57600080fd5b505af415801562000580573d6000803e3d6000fd5b505050507f614fd1489cdee8181582fbbc1933d6870cd06c6f22d314b97a650ffa547c6ccd6001604051620005b69190620010af565b60405180910390a160208281015180518183015160408084015160608086015160809687015161032052610300526102e0919091526102c0929092526102a09290925281860151805180519086015182870151805197015194830151838501518488015160a086015160c0909601516104405261042095909552610400949094526103e0939093526103c0929092526103a093909352610380949094526103609390935261034052600d80546001600160a01b0319166001600160a01b03949094169390931790925580830151811b6001600160601b031990811661046052919092015190911b166104805262001296565b80620006b481620008eb565b5050565b620006cd64e8d4a5100082101560cb62000975565b620006e567016345785d8a000082111560ca62000975565b62000701816008546200098660201b62001cae1790919060201c565b6008556040517fa9ba3ffe0b6c366b81232caab38605a0699ad5398d6cce76f91ee809e322dafc906200073690839062001236565b60405180910390a150565b600080826001600160a01b031663313ce5676040518163ffffffff1660e01b815260040160206040518083038186803b1580156200077e57600080fd5b505afa15801562000793573d6000803e3d6000fd5b505050506040513d601f19601f82011682018060405250810190620007b991906200107d565b60ff1690506000620007d8601283620009ac60201b62001cbc1760201c565b600a0a670de0b6b3a764000002925050505b919050565b81620006b457620006b481620009c4565b6200082f8160600151600013158015620008265750670de0b6b3a7640000826060015113155b610163620007ef565b6200085d8160400151600013158015620008265750670de0b6b3a764000082604001511315610163620007ef565b604080518082018252606083015181529082015160208201526000620008848280620009d6565b9050620008b4670de0b6b3a763fc188212801590620008ab5750670de0b6b3a76403e88213155b610164620007ef565b620008e68360800151600013158015620008dd57506a52b7d2dcc80cd2e4000000846080015113155b610168620007ef565b505050565b600281511015620008fc5762000972565b6000816000815181106200090c57fe5b602002602001015190506000600190505b8251811015620008e65760008382815181106200093657fe5b6020026020010151905062000967816001600160a01b0316846001600160a01b03161060656200097560201b60201c565b91506001016200091d565b50565b81620006b457620006b48162000a2d565b6000620009a58260568562000a8060201b62001cd2179092919060201c565b9392505050565b6000620009be83831115600162000975565b50900390565b62000972816223aca960e91b62000a95565b6000620009a5620009fe8360200151856020015162000af660201b62001ce81790919060201c565b8351855162000a199162000af6602090811b62001ce817901c565b62000b3760201b62001d241790919060201c565b62461bcd60e51b6000908152602060045260076024526642414c23000030600a808404818106603090810160081b95839006959095019082900491820690940160101b939093010160c81b604452606490fd5b6001600160401b03811b1992909216911b1790565b62461bcd60e51b600090815260206004526007602452600a808404818106603090810160081b958390069590950190829004918206850160101b01602363ffffff0060e086901c160160181b0190930160c81b60445260e882901c90606490fd5b600082820283158062000b1257508284828162000b0f57fe5b05145b62000b255762000b256000600362000975565b670de0b6b3a764000090059392505050565b60008282018183121562000b4e5783811262000b53565b838112155b620009a557620009a560008062000975565b828054600181600116156101000203166002900490600052602060002090601f01602090048101928262000b9d576000855562000be8565b82601f1062000bb857805160ff191683800117855562000be8565b8280016001018555821562000be8579182015b8281111562000be857825182559160200191906001019062000bcb565b5062000bf692915062000bfa565b5090565b5b8082111562000bf6576000815560010162000bfb565b80516001600160a01b0381168114620007ea57600080fd5b600082601f83011262000c3a578081fd5b81516001600160401b0381111562000c4e57fe5b62000c63601f8201601f19166020016200123f565b81815284602083860101111562000c78578283fd5b62000c8b82602083016020870162001263565b949350505050565b60006060828403121562000ca5578081fd5b604051606081016001600160401b038111828210171562000cc257fe5b80604052508091508251801515811462000cdb57600080fd5b815260208301516001600160781b038116811462000cf857600080fd5b602082015260408301516001600160801b038116811462000d1857600080fd5b6040919091015292915050565b6000610120828403121562000d38578081fd5b60405160e081016001600160401b038111828210171562000d5557fe5b60405290508062000d67848462000f06565b815262000d78846040850162000f06565b60208201526080830151604082015260a0830151606082015260c0830151608082015260e083015160a082015261010083015160c08201525092915050565b600061012080838503121562000dcb578182fd5b62000dd6816200123f565b91505062000de48262000c11565b815260208201516001600160401b038082111562000e0157600080fd5b62000e0f8583860162000c29565b6020840152604084015191508082111562000e2957600080fd5b5062000e388482850162000c29565b60408301525062000e4c6060830162000c11565b606082015262000e5f6080830162000c11565b608082015260a082015160a082015260c082015160c082015260e082015160e082015261010062000e9281840162000c11565b9082015292915050565b600060a0828403121562000eae578081fd5b60405160a081016001600160401b038111828210171562000ecb57fe5b806040525080915082518152602083015160208201526040830151604082015260608301516060820152608083015160808201525092915050565b60006040828403121562000f18578081fd5b604080519081016001600160401b038111828210171562000f3557fe5b604052825181526020928301519281019290925250919050565b60006020828403121562000f61578081fd5b5051919050565b6000806040838503121562000f7b578081fd5b82516001600160401b038082111562000f92578283fd5b908401906102c0828703121562000fa7578283fd5b62000fb46101006200123f565b82518281111562000fc3578485fd5b62000fd18882860162000db7565b82525062000fe3876020850162000e9c565b602082015262000ff78760c0850162000d25565b60408201526200100b6101e0840162000c11565b60608201526200101f610200840162000c11565b608082015262001033610220840162000c11565b60a08201526200104887610240850162000c93565b60c08201526200105c6102a0840162000c11565b60e08201529350620010749150506020840162000c11565b90509250929050565b6000602082840312156200108f578081fd5b815160ff81168114620009a5578182fd5b80518252602090810151910152565b901515815260200190565b60006060820185835260206060818501528186518084526080860191508288019350845b81811015620011055784516001600160a01b031683529383019391830191600101620010de565b505084810360408601528551808252908201925081860190845b81811015620011465782516001600160a01b0316855293830193918301916001016200111f565b509298975050505050505050565b60208101600383106200116357fe5b91905290565b60006020825282518060208401526200118a81604085016020870162001263565b601f01601f19169190910160400192915050565b60006101c0820190508351825260208401516020830152604084015160408301526060840151606083015260808401516080830152620011e360a083018451620010a0565b6020830151620011f760e0840182620010a0565b5060408301516101208301526060830151610140830152608083015161016083015260a083015161018083015260c08301516101a08301529392505050565b90815260200190565b6040518181016001600160401b03811182821017156200125b57fe5b604052919050565b60005b838110156200128057818101518382015260200162001266565b8381111562001290576000848401525b50505050565b60805160a05160601c60c05160e05161010051610120516101405160601c61016051610180516101a0516101c05160601c6101e05160601c61020051610220516102405161026051610280516102a0516102c0516102e05161030051610320516103405161036051610380516103a0516103c0516103e0516104005161042051610440516104605160601c6104805160601c614c4a6200144160003980610b035280610c2d5280610c695280612bf45280612c265280612d6e525080610b5e5280610b9a5280610ff75280612b275280612b595280612d2452508061273c5250806127625250806127885250806127b05250806127d55250806126a95250806126ce5250806126f15250806127195250806125d852508061260252508061262c525080612656525080612680525080612d91525080612d4752505080613f0a525080613f3152508061137352806113ba5280612a3e52508061133352806113fa52806129f2525080610860525080611e9c525080611e785250806111b6525080611956525080611fb8525080611ffa525080611fd95250806111925250806110d75250614c4a6000f3fe608060405234801561001057600080fd5b50600436106102d65760003560e01c806376e54a461161018257806398d5fdca116100e9578063aaabadc5116100a2578063d505accf1161007c578063d505accf146105c8578063d5c096c4146105db578063dd62ed3e146105ee578063f89f27ed14610601576102d6565b8063aaabadc5146105b0578063abd13afe146105b8578063c0ff1a15146105c0576102d6565b806398d5fdca1461054f5780639b02cdde146105575780639d2c110c1461055f5780639ef3e37d14610572578063a457c2d71461058a578063a9059cbb1461059d576102d6565b8063851c1bb31161013b578063851c1bb314610509578063876f303b1461051c57806387ec681714610524578063893d20e8146105375780638d928af81461053f57806395d89b4114610547576102d6565b806376e54a46146104aa5780637be219a2146104bd5780637ecebe00146104d35780638002df18146104e6578063828a7c34146104f95780638456cb5914610501576102d6565b80633aeae0d311610241578063623a2e75116101fa5780636d785a87116101d45780636d785a8714610458578063702ec0911461046057806370a082311461047657806374f3b00914610489576102d6565b8063623a2e751461044057806362ced09214610448578063679aefce14610450576102d6565b80633aeae0d3146103cb5780633f4ba83a146103e057806344bbdb55146103e85780634a6b0b15146103fd57806355c67628146104175780636028bfd41461041f576102d6565b806323b872dd1161029357806323b872dd1461036d578063313ce567146103805780633644e5151461039557806338e9922e1461039d57806338fff2d0146103b057806339509351146103b8576102d6565b806306fdde03146102db578063095ea7b3146102f95780630e608b301461031957806316c38b3c1461032e57806318160ddd146103415780631c0de05114610356575b600080fd5b6102e3610616565b6040516102f09190614a36565b60405180910390f35b61030c61030736600461442d565b6106ac565b6040516102f091906149c9565b61032c610327366004614308565b6106c3565b005b61032c61033c366004614458565b610774565b610349610788565b6040516102f091906149ec565b61035e61078e565b6040516102f0939291906149d4565b61030c61037b366004614378565b6107b7565b61038861082d565b6040516102f09190614ba5565b610349610836565b61032c6103ab36600461473f565b610845565b61034961085e565b61030c6103c636600461442d565b610882565b6103d36108bd565b6040516102f09190614a89565b61032c610908565b6103f06109fd565b6040516102f0919061488d565b610405610a0c565b6040516102f096959493929190614a0c565b610349610a67565b61043261042d366004614472565b610a74565b6040516102f0929190614b57565b610349610aa5565b6103f0610b01565b610349610b25565b6103f0610b4a565b610468610b59565b6040516102f0929190614b70565b610349610484366004614308565b610cfe565b61049c610497366004614472565b610d1d565b6040516102f09291906148b4565b61032c6104b83660046145c9565b610dad565b6104c5610ed4565b6040516102f0929190614ae9565b6103496104e1366004614308565b610ef4565b61032c6104f4366004614308565b610f0f565b6103f0610ff5565b61032c611019565b61034961051736600461457e565b6110d1565b61034961112a565b610432610532366004614472565b61116b565b6103f0611190565b6103f06111b4565b6102e36111d8565b610349611239565b610349611304565b61034961056d366004614648565b61130a565b61057a6116a9565b6040516102f09493929190614b7e565b61030c61059836600461442d565b61181b565b61030c6105ab36600461442d565b611859565b6103f0611866565b6103f0611870565b61034961187f565b61032c6105d63660046143b8565b611927565b61049c6105e9366004614472565b611a97565b6103496105fc366004614340565b611b7c565b610609611bb9565b6040516102f091906148a1565b60038054604080516020601f60026000196101006001881615020190951694909404938401819004810282018101909252828152606093909290918301828280156106a25780601f10610677576101008083540402835291602001916106a2565b820191906000526020600020905b81548152906001019060200180831161068557829003601f168201915b5050505050905090565b60006106b9338484611d4d565b5060015b92915050565b600b5460408051808201909152600e81526d1b9bdd08185d5d1a1bdc9a5e995960921b6020820152906001600160a01b0316331461071d5760405162461bcd60e51b81526004016107149190614a36565b60405180910390fd5b50600b80546001600160a01b0319166001600160a01b0383161790556040517fb8fd9afc34c38fcd13b9a3b7646482eb1fddcefb40af2c70609972816eba32089061076990839061488d565b60405180910390a150565b61077c611daf565b61078581611ddd565b50565b60025490565b600080600061079b611e59565b1592506107a6611e76565b91506107b0611e9a565b9050909192565b6000806107c48533611b7c565b90506107e8336001600160a01b03871614806107e05750838210155b61019e611ebe565b6107f3858585611ecc565b336001600160a01b0386161480159061080e57506000198114155b15610820576108208533858403611d4d565b60019150505b9392505050565b60055460ff1690565b6000610840611fb4565b905090565b61084d611daf565b610855612072565b61078581612087565b7f000000000000000000000000000000000000000000000000000000000000000090565b3360008181526001602090815260408083206001600160a01b038716845290915281205490916106b99185906108b890866120f0565b611d4d565b6108c56141c7565b5060408051606081018252600a5460ff81161515825261010081046001600160781b03166020830152600160801b90046001600160801b03169181019190915290565b600c546040805180820190915260118152703737ba103830bab9b29036b0b730b3b2b960791b6020820152906001600160a01b031633146109c75760405162461bcd60e51b81526004018080602001828103825283818151815260200191508051906020019080838360005b8381101561098c578181015183820152602001610974565b50505050905090810190601f1680156109b95780820380516001836020036101000a031916815260200191505b509250505060405180910390fd5b506109d2600061077c565b6040517f215385c8bfc731925ec8068d7baa50f6b6f34417cc7804f7273dc2c0b3db279090600090a1565b600d546001600160a01b031681565b60008060008060008060006008549050610a2581612102565b9650610a308161210e565b9550610a3b8161211b565b9450610a4681612128565b9350610a5181612135565b9250610a5c81612142565b915050909192939495565b6000610840600854612142565b60006060610a848651600261214f565b610a998989898989898961215c6122ca612348565b97509795505050505050565b600080610ab061187f565b90506000610abc610788565b9050600080610acd6009548561245b565b50919350915060009050610aeb82610ae586866124c4565b906124c4565b9050610af785826124dc565b9550505050505090565b7f000000000000000000000000000000000000000000000000000000000000000081565b6000610840610b32610788565b610b44610b3d61187f565b6002612536565b906124dc565b600b546001600160a01b031681565b6000807f00000000000000000000000000000000000000000000000000000000000000006001600160a01b0316610b9857670de0b6b3a7640000610c29565b7f00000000000000000000000000000000000000000000000000000000000000006001600160a01b031663679aefce6040518163ffffffff1660e01b815260040160206040518083038186803b158015610bf157600080fd5b505afa158015610c05573d6000803e3d6000fd5b505050506040513d601f19601f82011682018060405250810190610c299190614757565b91507f00000000000000000000000000000000000000000000000000000000000000006001600160a01b0316610c6757670de0b6b3a7640000610cf8565b7f00000000000000000000000000000000000000000000000000000000000000006001600160a01b031663679aefce6040518163ffffffff1660e01b815260040160206040518083038186803b158015610cc057600080fd5b505afa158015610cd4573d6000803e3d6000fd5b505050506040513d601f19601f82011682018060405250810190610cf89190614757565b90509091565b6001600160a01b0381166000908152602081905260409020545b919050565b60608088610d47610d2c6111b4565b6001600160a01b0316336001600160a01b03161460cd611ebe565b610d5c610d5261085e565b82146101f4611ebe565b610d658761255a565b6000806000610d798d8d8d8d8d8d8d61215c565b925092509250610d898c846125bc565b610d92826122ca565b610d9b816122ca565b909c909b509950505050505050505050565b600b5460408051808201909152600e81526d1b9bdd08185d5d1a1bdc9a5e995960921b6020820152906001600160a01b03163314610dfe5760405162461bcd60e51b81526004016107149190614a36565b50600a5460408051808201909152601081526f1c1bdbdb081a5cc81d5b98d85c1c195960821b60208201529060ff16610e4a5760405162461bcd60e51b81526004016107149190614a36565b508051600a8054602084015160408086015160ff19909316941515949094176fffffffffffffffffffffffffffffff0019166101006001600160781b0390921691909102176001600160801b03908116600160801b919092160217815590517f2abf5970d7bc1a2b36eaae52dd2cc353edb0337c7284ef8a01973081b4e044249161076991614abe565b610edc6141e7565b610ee4614216565b610eec6125c6565b915091509091565b6001600160a01b031660009081526006602052604090205490565b600c546040805180820190915260118152703737ba103830bab9b29036b0b730b3b2b960791b60208201526001600160a01b0390911690338214610f945760405162461bcd60e51b815260206004820181815283516024840152835190928392604490910191908501908083836000831561098c578181015183820152602001610974565b50600c80546001600160a01b0319166001600160a01b03848116918217909255604080519284168352602083019190915280517f1ffccd1fa96f4fb3415df8048a0fd107344e262d2d246c85105e2a3f8f3e81989281900390910190a15050565b7f000000000000000000000000000000000000000000000000000000000000000081565b600c546040805180820190915260118152703737ba103830bab9b29036b0b730b3b2b960791b6020820152906001600160a01b0316331461109b5760405162461bcd60e51b815260206004820181815283516024840152835190928392604490910191908501908083836000831561098c578181015183820152602001610974565b506110a6600161077c565b6040517f681eace576127d0553b224436a09801fb47d042942cbff59d7d4ff04d8fa03d790600090a1565b604080517f00000000000000000000000000000000000000000000000000000000000000006020808301919091526001600160e01b03198416828401528251602481840301815260449092019092528051910120919050565b600080611135610788565b905060008061114d60095461114861187f565b61245b565b509193509150611163905081610ae585856124c4565b935050505090565b6000606061117b8651600261214f565b610a99898989898989896127fc61296b612348565b7f000000000000000000000000000000000000000000000000000000000000000090565b7f000000000000000000000000000000000000000000000000000000000000000090565b60048054604080516020601f60026000196101006001881615020190951694909404938401819004810282018101909252828152606093909290918301828280156106a25780601f10610677576101008083540402835291602001916106a2565b6000806112446129cd565b90506000806112516125c6565b91509150600073__GyroECLPMath__________________________63d83ca8628585856040518463ffffffff1660e01b8152600401611292939291906148d9565b60206040518083038186803b1580156112aa57600080fd5b505af41580156112be573d6000803e3d6000fd5b505050506040513d601f19601f820116820180604052508101906112e29190614757565b90506112f084828585612a83565b94506112fb85612b23565b94505050505090565b60095490565b6000611314612072565b8360800151611324610d2c6111b4565b61132f610d5261085e565b60007f00000000000000000000000000000000000000000000000000000000000000006001600160a01b031686602001516001600160a01b03161480156113ab57507f00000000000000000000000000000000000000000000000000000000000000006001600160a01b031686604001516001600160a01b0316145b156113b857506001611449565b7f00000000000000000000000000000000000000000000000000000000000000006001600160a01b031686602001516001600160a01b031614801561143257507f00000000000000000000000000000000000000000000000000000000000000006001600160a01b031686604001516001600160a01b0316145b1561143f57506000611449565b6114496079612cc3565b600061145482612d16565b905060006114628315612d16565b905061146e8783612e43565b965061147a8682612e43565b95506000611489888886612e4f565b90506000806114966125c6565b915091506114a261425f565b60008073__GyroECLPMath__________________________6378ace8578787876040518463ffffffff1660e01b81526004016114e0939291906148d9565b604080518083038186803b1580156114f757600080fd5b505af415801561150b573d6000803e3d6000fd5b505050506040513d601f19601f8201168201806040525081019061152f91906145a6565b6040805180820190915260029091028201815260208101919091529250600091506115579050565b8c51600181111561156457fe5b1415611610576000611582611577610a67565b60608f015190612ee9565b90506115a461159e828f60600151612f3e90919063ffffffff16565b88612e43565b60608e015260006115b98e878b888888612f54565b90507f4e1d56f7310a8c32b2267f756b19ba65019b4890068ce114a25009abe54de5ba8684836040516115ee9392919061494b565b60405180910390a16116008188612ff7565b9a505050505050505050506116a1565b61161e8c6060015186612e43565b60608d015260006116338d868a878787613003565b90507f4e1d56f7310a8c32b2267f756b19ba65019b4890068ce114a25009abe54de5ba8583836040516116689392919061494b565b60405180910390a161167a818861304b565b905061169661168f61168a610a67565b613057565b829061307d565b995050505050505050505b509392505050565b600d546000908190819081906116d0906001600160a01b03163063045434c560e41b6130e3565b600d546116ee906001600160a01b03163063045434c560e41b61310a565b600d546040516321f8a72160e01b81526001600160a01b03909116906321f8a7219061172e906c4759524f5f545245415355525960981b906004016149ec565b60206040518083038186803b15801561174657600080fd5b505afa15801561175a573d6000803e3d6000fd5b505050506040513d601f19601f8201168201806040525081019061177e9190614324565b600d546040516321f8a72160e01b81526001600160a01b03909116906321f8a721906117bd906b42414c5f545245415355525960a01b906004016149ec565b60206040518083038186803b1580156117d557600080fd5b505afa1580156117e9573d6000803e3d6000fd5b505050506040513d601f19601f8201168201806040525081019061180d9190614324565b935093509350935090919293565b6000806118283385611b7c565b90508083106118425761183d33856000611d4d565b61184f565b61184f3385858403611d4d565b5060019392505050565b60006106b9338484611ecc565b6000610840613138565b600c546001600160a01b031681565b60008061188a6129cd565b90506000806118976125c6565b604051636c1e543160e11b8152919350915073__GyroECLPMath__________________________9063d83ca862906118d7908690869086906004016148d9565b60206040518083038186803b1580156118ef57600080fd5b505af4158015611903573d6000803e3d6000fd5b505050506040513d601f19601f820116820180604052508101906111639190614757565b6119358442111560d1611ebe565b6001600160a01b0380881660008181526006602090815260408083205481517f00000000000000000000000000000000000000000000000000000000000000008185015280830195909552948b166060850152608084018a905260a0840185905260c08085018a90528151808603909101815260e090940190528251920191909120906119c1826131b2565b9050600060018288888860405160008152602001604052604051808581526020018460ff1681526020018381526020018281526020019450505050506020604051602081039080840390855afa158015611a1f573d6000803e3d6000fd5b5050604051601f1901519150611a6190506001600160a01b03821615801590611a5957508b6001600160a01b0316826001600160a01b0316145b6101f8611ebe565b6001600160a01b038b166000908152600660205260409020600185019055611a8a8b8b8b611d4d565b5050505050505050505050565b60608088611aa6610d2c6111b4565b611ab1610d5261085e565b611ab9612072565b6000611ac3610788565b611b3357611ad38b8b8b886131fe565b94509050611ae8620f424082101560cc611ebe565b611af66000620f424061338e565b611b0589620f4240830361338e565b611b0e8461296b565b6040805160028082526060820183529091602083019080368337019050509250611b6e565b611b3c8861255a565b611b4b8b8b8b8b8b8b8b6127fc565b90955093509050611b5c898261338e565b611b658461296b565b611b6e836122ca565b505097509795505050505050565b6000611b866111b4565b6001600160a01b0316826001600160a01b03161415611ba857506000196106bd565b611bb28383613398565b90506106bd565b60606108406133c3565b80611bcd81613432565b5050565b611bfd8160600151600013158015611bf55750670de0b6b3a7640000826060015113155b6101636134ab565b611c288160400151600013158015611bf55750670de0b6b3a7640000826040015113156101636134ab565b604080518082018252606083015181529082015160208201526000611c4d82806134b9565b9050611c7a670de0b6b3a763fc188212801590611c725750670de0b6b3a76403e88213155b6101646134ab565b611ca98360800151600013158015611ca157506a52b7d2dcc80cd2e4000000846080015113155b6101686134ab565b505050565b600061082683836056611cd2565b6000611ccc838311156001611ebe565b50900390565b67ffffffffffffffff811b1992909216911b1790565b6000828202831580611d02575082848281611cff57fe5b05145b611d1257611d1260006003611ebe565b670de0b6b3a764000090059392505050565b600082820181831215611d3957838112611d3e565b838112155b61082657610826600080611ebe565b6001600160a01b03808416600081815260016020908152604080832094871680845294825291829020859055815185815291517f8c5be1e5ebec7d5bd14f71427d1e84f3dd0314c0f7b2291e5b200ac8c7c3b9259281900390910190a3505050565b6000611dc66000356001600160e01b0319166110d1565b9050610785611dd582336134ec565b610191611ebe565b8015611dfd57611df8611dee611e76565b4210610193611ebe565b611e12565b611e12611e08611e9a565b42106101a9611ebe565b6007805482151560ff19909116811790915560408051918252517f9e3a5e37224532dea67b89face185703738a228a6e8a23dee546960180d3be649181900360200190a150565b6000611e63611e9a565b42118061084057505060075460ff161590565b7f000000000000000000000000000000000000000000000000000000000000000090565b7f000000000000000000000000000000000000000000000000000000000000000090565b81611bcd57611bcd81612cc3565b611ee36001600160a01b0384161515610198611ebe565b611efa6001600160a01b0383161515610199611ebe565b611f05838383611ca9565b6001600160a01b038316600090815260208190526040902054611f2b90826101a06135ee565b6001600160a01b038085166000908152602081905260408082209390935590841681522054611f5a90826120f0565b6001600160a01b038084166000818152602081815260409182902094909455805185815290519193928716927fddf252ad1be2c89b69c2b068fc378daa952ba7f163c4a11628f55a4df523b3ef92918290030190a3505050565b60007f00000000000000000000000000000000000000000000000000000000000000007f00000000000000000000000000000000000000000000000000000000000000007f0000000000000000000000000000000000000000000000000000000000000000612021613604565b3060405160200180868152602001858152602001848152602001838152602001826001600160a01b031681526020019550505050505060405160208183030381529060405280519060200120905090565b61208561207d611e59565b610192611ebe565b565b61209a64e8d4a5100082101560cb611ebe565b6120b067016345785d8a000082111560ca611ebe565b6008546120bd9082611cae565b6008556040517fa9ba3ffe0b6c366b81232caab38605a0699ad5398d6cce76f91ee809e322dafc906107699083906149ec565b60008282016108268482101583611ebe565b60006106bd8282613608565b60006106bd826016613608565b60006106bd82602c61362f565b60006106bd82604b613639565b60006106bd826055613641565b60006106bd82605661364b565b611bcd8183146067611ebe565b600060608060008061216c6125c6565b91509150612178611e59565b1561227d57604051636c1e543160e11b815260009073__GyroECLPMath__________________________9063d83ca862906121bb908d90879087906004016148d9565b60206040518083038186803b1580156121d357600080fd5b505af41580156121e7573d6000803e3d6000fd5b505050506040513d601f19601f8201168201806040525081019061220b9190614757565b905061221681613659565b6122208a88613686565b90965094506122398187612232610788565b60006136d2565b60098190556040517fe1d39caf039c7dc6f364b1e29d1e67c4e330003a43f4991d50cf3e8840d95eac9161226f91849190614b70565b60405180910390a150612293565b6122878987613686565b60001960095590955093505b6040805160028082526060820183528792879291906020830190803683370190505094509450945050509750975097945050505050565b6122f1816000815181106122da57fe5b60200260200101516122ec6001612d16565b6124dc565b816000815181106122fe57fe5b60200260200101818152505061232c8160018151811061231a57fe5b60200260200101516122ec6000612d16565b8160018151811061233957fe5b60200260200101818152505050565b333014612406576000306001600160a01b031660003660405161236c92919061487d565b6000604051808303816000865af19150503d80600081146123a9576040519150601f19603f3d011682016040523d82523d6000602084013e6123ae565b606091505b5050905080600081146123bd57fe5b60046000803e6000516001600160e01b0319166343adbafb60e01b81146123e8573d6000803e3d6000fd5b506020600460003e604060205260243d03602460403e601c3d016000f35b61240f8661255a565b6000806124258b8b8b8b8b8b8b8b63ffffffff16565b5091509150612437818463ffffffff16565b8051601f1982018390526343adbafb603f1983015260200260231982016044820181fd5b60008060008060008060008061246f6116a9565b93509350935093508360001415612494576000975087965090945092506124bb915050565b6000806124ab8c8c6124a4610788565b898961372a565b909a509850929650909450505050505b92959194509250565b60008282018381101561082657610826600080611ebe565b6000816124ef576124ef60006004611ebe565b826124fc575060006106bd565b670de0b6b3a76400008381029084828161251257fe5b04146125245761252460006005611ebe565b82818161252d57fe5b04949350505050565b600082820261082684158061255357508385838161255057fe5b04145b6003611ebe565b6125818160008151811061256a57fe5b602002602001015161257c6001612d16565b6137c5565b8160008151811061258e57fe5b60200260200101818152505061232c816001815181106125aa57fe5b602002602001015161257c6000612d16565b611bcd82826137fe565b6125ce6141e7565b6125d6614216565b7f00000000000000000000000000000000000000000000000000000000000000006080808401919091527f00000000000000000000000000000000000000000000000000000000000000006060808501919091527f00000000000000000000000000000000000000000000000000000000000000006040808601919091527f00000000000000000000000000000000000000000000000000000000000000006020808701919091527f000000000000000000000000000000000000000000000000000000000000000086528451858201517f0000000000000000000000000000000000000000000000000000000000000000818401527f000000000000000000000000000000000000000000000000000000000000000090527f0000000000000000000000000000000000000000000000000000000000000000918101919091527f000000000000000000000000000000000000000000000000000000000000000090527f000000000000000000000000000000000000000000000000000000000000000060c08501527f000000000000000000000000000000000000000000000000000000000000000060a08501527f0000000000000000000000000000000000000000000000000000000000000000928401929092527f0000000000000000000000000000000000000000000000000000000000000000908301527f0000000000000000000000000000000000000000000000000000000000000000908201529091565b600060608060008061280c6125c6565b91509150600073__GyroECLPMath__________________________63d83ca8628b85856040518463ffffffff1660e01b815260040161284d939291906148d9565b60206040518083038186803b15801561286557600080fd5b505af4158015612879573d6000803e3d6000fd5b505050506040513d601f19601f8201168201806040525081019061289d9190614757565b90506128a881613659565b6000806128b58c8a6138b5565b600a54919350915060ff16156128df576128df826128d28f610cfe565b6128da610788565b6138ef565b6128f383836128ec610788565b60016136d2565b60098190556040517fe1d39caf039c7dc6f364b1e29d1e67c4e330003a43f4991d50cf3e8840d95eac9161292991869190614b70565b60405180910390a16040805160028082526060820183528492849291906020830190803683370190505097509750975050505050509750975097945050505050565b6129928160008151811061297b57fe5b602002602001015161298d6001612d16565b61307d565b8160008151811061299f57fe5b60200260200101818152505061232c816001815181106129bb57fe5b602002602001015161298d6000612d16565b6040805160028082526060808301845292602083019080368337019050509050612a207f0000000000000000000000000000000000000000000000000000000000000000612a1b6001612d16565b613a01565b81600081518110612a2d57fe5b602002602001018181525050612a677f0000000000000000000000000000000000000000000000000000000000000000612a1b6000612d16565b81600181518110612a7457fe5b60200260200101818152505090565b600073__GyroECLPMath__________________________63c7fe78d0868585612aab89613aa8565b6040518563ffffffff1660e01b8152600401612aca949392919061490a565b60206040518083038186803b158015612ae257600080fd5b505af4158015612af6573d6000803e3d6000fd5b505050506040513d601f19601f82011682018060405250810190612b1a9190614757565b95945050505050565b60007f00000000000000000000000000000000000000000000000000000000000000006001600160a01b031615612bf257612bef7f00000000000000000000000000000000000000000000000000000000000000006001600160a01b031663679aefce6040518163ffffffff1660e01b815260040160206040518083038186803b158015612bb057600080fd5b505afa158015612bc4573d6000803e3d6000fd5b505050506040513d601f19601f82011682018060405250810190612be89190614757565b83906137c5565b91505b7f00000000000000000000000000000000000000000000000000000000000000006001600160a01b031615612cbf57612cbc7f00000000000000000000000000000000000000000000000000000000000000006001600160a01b031663679aefce6040518163ffffffff1660e01b815260040160206040518083038186803b158015612c7d57600080fd5b505afa158015612c91573d6000803e3d6000fd5b505050506040513d601f19601f82011682018060405250810190612cb59190614757565b83906124dc565b91505b5090565b62461bcd60e51b6000908152602060045260076024526642414c23000030600a808404818106603090810160081b95839006959095019082900491820690940160101b939093010160c81b604452606490fd5b60008060008315612d6b57507f000000000000000000000000000000000000000000000000000000000000000090507f0000000000000000000000000000000000000000000000000000000000000000612db1565b507f000000000000000000000000000000000000000000000000000000000000000090507f00000000000000000000000000000000000000000000000000000000000000005b6001600160a01b0382161561082657612e3b826001600160a01b031663679aefce6040518163ffffffff1660e01b815260040160206040518083038186803b158015612dfc57600080fd5b505afa158015612e10573d6000803e3d6000fd5b505050506040513d601f19601f82011682018060405250810190612e349190614757565b82906137c5565b949350505050565b600061082683836137c5565b60408051600280825260608083018452926020830190803683370190505090508115612eae578381600081518110612e8357fe5b6020026020010181815250508281600181518110612e9d57fe5b602002602001018181525050610826565b8281600081518110612ebc57fe5b6020026020010181815250508381600181518110612ed657fe5b6020026020010181815250509392505050565b6000828202831580612f03575082848281612f0057fe5b04145b612f1357612f1360006003611ebe565b80612f225760009150506106bd565b670de0b6b3a764000060001982015b0460010191505092915050565b600082821115611ccc57611ccc60006001611ebe565b60608601516040516330ffa11b60e11b815260009173__GyroECLPMath__________________________916361ff423691612f9c918a91908a908a908a908a9060040161497b565b60206040518083038186803b158015612fb457600080fd5b505af4158015612fc8573d6000803e3d6000fd5b505050506040513d601f19601f82011682018060405250810190612fec9190614757565b979650505050505050565b600061082683836124dc565b6060860151604051633b18ce7b60e21b815260009173__GyroECLPMath__________________________9163ec6339ec91612f9c918a91908a908a908a908a9060040161497b565b6000610826838361307d565b6000670de0b6b3a7640000821061306f5760006106bd565b50670de0b6b3a76400000390565b6000816130905761309060006004611ebe565b8261309d575060006106bd565b670de0b6b3a7640000838102908482816130b357fe5b04146130d7576130d7670de0b6b3a76400008583816130ce57fe5b04146005611ebe565b826001820381612f3157fe5b6000612e3b847550524f544f434f4c5f535741505f4645455f5045524360501b8486613aec565b6000612e3b847f50524f544f434f4c5f4645455f4759524f5f504f5254494f4e000000000000008486613aec565b60006131426111b4565b6001600160a01b031663aaabadc56040518163ffffffff1660e01b815260040160206040518083038186803b15801561317a57600080fd5b505afa15801561318e573d6000803e3d6000fd5b505050506040513d601f19601f820116820180604052508101906108409190614324565b60006131bc611fb4565b82604051602001808061190160f01b81525060020183815260200182815260200192505050604051602081830303815290604052805190602001209050919050565b60006060600061320d84613d99565b9050613228600082600381111561322057fe5b1460ce611ebe565b600061323385613db8565b90506132418151600261214f565b61324a8161255a565b6000806132556125c6565b91509150600073__GyroECLPMath__________________________63d83ca8628585856040518463ffffffff1660e01b8152600401613296939291906148d9565b60206040518083038186803b1580156132ae57600080fd5b505af41580156132c2573d6000803e3d6000fd5b505050506040513d601f19601f820116820180604052508101906132e69190614757565b90507faf65f1a72bf4f8bc48e8153858e1f7b307ce39c88361a677c0a79c2a1ae571ef8160405161331791906149ec565b60405180910390a1600061332d85838686612a83565b9050600061337561335b838860008151811061334557fe5b60200260200101516137c590919063ffffffff16565b8760018151811061336857fe5b60200260200101516120f0565b60099390935550909b939a509298505050505050505050565b611bcd8282613e6c565b6001600160a01b03918216600090815260016020908152604080832093909416825291909152205490565b604080516002808252606080830184529260009291906020830190803683370190505090506133f26001613f01565b816000815181106133ff57fe5b6020026020010181815250506134156000613f01565b8160018151811061342257fe5b6020908102919091010152905090565b60028151101561344157610785565b60008160008151811061345057fe5b602002602001015190506000600190505b8251811015611ca957600083828151811061347857fe5b602002602001015190506134a1816001600160a01b0316846001600160a01b0316106065611ebe565b9150600101613461565b81611bcd57611bcd81613f55565b60006108266134d983602001518560200151611ce890919063ffffffff16565b835185516134e691611ce8565b90611d24565b600073ba1ba1ba1ba1ba1ba1ba1ba1ba1ba1ba1ba1ba1b61350b611190565b6001600160a01b031614158015613526575061352683613f65565b1561354e57613533611190565b6001600160a01b0316336001600160a01b03161490506106bd565b613556613138565b6001600160a01b0316639be2a8848484306040518463ffffffff1660e01b815260040180848152602001836001600160a01b03168152602001826001600160a01b03168152602001935050505060206040518083038186803b1580156135bb57600080fd5b505afa1580156135cf573d6000803e3d6000fd5b505050506040513d60208110156135e557600080fd5b505190506106bd565b60006135fd8484111583611ebe565b5050900390565b4690565b600082821c623fffff16621fffff81136136225780612e3b565b623fffff19179392505050565b1c637fffffff1690565b1c6103ff1690565b1c60019081161490565b1c67ffffffffffffffff1690565b60008060008061366b6009548661245b565b935093509350935061367f84848484613f97565b5050505050565b60006060600061369584613d99565b905060018160038111156136a557fe5b14156136bf576136b58585613fbd565b90935091506136ca565b6136ca610150612cc3565b509250929050565b600081156137045760006136f0846136ea8888612ee9565b9061307d565b90506136fc86826124c4565b915050612e3b565b600061371484610b4488886137c5565b90506137208682612f3e565b9695505050505050565b60008086861161373f575060009050806137bb565b600061375f856137596137528a8c612f3e565b89906137c5565b906137c5565b90506000613777613770898b612f3e565b87906137c5565b905060006137858983612f3e565b9050600061379384836124dc565b905060006137a188836137c5565b905060006137af8383612f3e565b91975090955050505050505b9550959350505050565b60008282028315806137df5750828482816137dc57fe5b04145b6137ef576137ef60006003611ebe565b670de0b6b3a76400008161252d565b6138156001600160a01b038316151561019b611ebe565b61382182600083611ca9565b6001600160a01b03821660009081526020819052604090205461384790826101a16135ee565b6001600160a01b03831660009081526020819052604090205560025461386d9082613fef565b6002556040805182815290516000916001600160a01b038516917fddf252ad1be2c89b69c2b068fc378daa952ba7f163c4a11628f55a4df523b3ef9181900360200190a35050565b6000606060006138c484613d99565b905060038160038111156138d457fe5b14156138e4576136b58585613ffd565b6136ca610136612cc3565b60408051606081018252600a5460ff81161515825261010081046001600160781b031660208301819052600160801b9091046001600160801b0316928201929092529061393c85856124c4565b11156040518060400160405280601a81526020017f6f7665722061646472657373206c697175696469747920636170000000000000815250906139925760405162461bcd60e51b81526004016107149190614a36565b5060408101516001600160801b03166139ab85846124c4565b11156040518060400160405280601981526020017f6f76657220676c6f62616c206c697175696469747920636170000000000000008152509061367f5760405162461bcd60e51b81526004016107149190614a36565b6000806000613a0e6111b4565b6001600160a01b031663b05f8e48613a2461085e565b876040518363ffffffff1660e01b8152600401613a429291906149f5565b60806040518083038186803b158015613a5a57600080fd5b505afa158015613a6e573d6000803e3d6000fd5b505050506040513d601f19601f82011682018060405250810190613a92919061476f565b505081810194509092509050612b1a83856137c5565b6000600160ff1b8210612cbf5760405162461bcd60e51b8152600401808060200182810382526028815260200180614bed6028913960400191505060405180910390fd5b6040805160208082018690526001600160a01b03808516838501528351808403850181526060840180865281519184019190912063696eb37560e01b909152606484018190529351600094939189169263696eb3759260848082019391829003018186803b158015613b5d57600080fd5b505afa158015613b71573d6000803e3d6000fd5b505050506040513d6020811015613b8757600080fd5b505115613c0757856001600160a01b031663bd02d0f5826040518263ffffffff1660e01b81526004018082815260200191505060206040518083038186803b158015613bd257600080fd5b505afa158015613be6573d6000803e3d6000fd5b505050506040513d6020811015613bfc57600080fd5b50519150612e3b9050565b6040805160208082018890528183018790528251808303840181526060830180855281519183019190912063696eb37560e01b9091526064830181905292516001600160a01b038a169263696eb375926084808301939192829003018186803b158015613c7357600080fd5b505afa158015613c87573d6000803e3d6000fd5b505050506040513d6020811015613c9d57600080fd5b505115613d1e57866001600160a01b031663bd02d0f5826040518263ffffffff1660e01b81526004018082815260200191505060206040518083038186803b158015613ce857600080fd5b505afa158015613cfc573d6000803e3d6000fd5b505050506040513d6020811015613d1257600080fd5b50519250612e3b915050565b866001600160a01b031663bd02d0f5876040518263ffffffff1660e01b81526004018082815260200191505060206040518083038186803b158015613d6257600080fd5b505afa158015613d76573d6000803e3d6000fd5b505050506040513d6020811015613d8c57600080fd5b5051979650505050505050565b6000818060200190516020811015613db057600080fd5b505192915050565b6060818060200190516040811015613dcf57600080fd5b815160208301805160405192949293830192919084640100000000821115613df657600080fd5b908301906020820185811115613e0b57600080fd5b8251866020820283011164010000000082111715613e2857600080fd5b82525081516020918201928201910280838360005b83811015613e55578181015183820152602001613e3d565b505050509190910160405250929695505050505050565b613e7860008383611ca9565b600254613e8590826120f0565b6002556001600160a01b038216600090815260208190526040902054613eab90826120f0565b6001600160a01b0383166000818152602081815260408083209490945583518581529351929391927fddf252ad1be2c89b69c2b068fc378daa952ba7f163c4a11628f55a4df523b3ef9281900390910190a35050565b600081613f2e577f00000000000000000000000000000000000000000000000000000000000000006106bd565b507f0000000000000000000000000000000000000000000000000000000000000000919050565b610785816223aca960e91b614022565b6000613f77631c74c91760e11b6110d1565b8214806106bd5750613f8f6350dd6ed960e01b6110d1565b909114919050565b8315613fa757613fa7828561338e565b8215613fb757613fb7818461338e565b50505050565b600060606000613fcc84614083565b90506000613fe28683613fdd610788565b6140a5565b9196919550909350505050565b6000610826838360016135ee565b60006060600061400c84614083565b90506000613fe2868361401d610788565b61412b565b62461bcd60e51b600090815260206004526007602452600a808404818106603090810160081b958390069590950190829004918206850160101b01602363ffffff0060e086901c160160181b0190930160c81b60445260e882901c90606490fd5b600081806020019051604081101561409a57600080fd5b506020015192915050565b6060835167ffffffffffffffff811180156140bf57600080fd5b506040519080825280602002602001820160405280156140e9578160200160208202803683370190505b50905060005b84518110156116a15761410c83610b448688858151811061334557fe5b82828151811061411857fe5b60209081029190910101526001016140ef565b6060835167ffffffffffffffff8111801561414557600080fd5b5060405190808252806020026020018201604052801561416f578160200160208202803683370190505b50905060005b84518110156116a1576141a8836136ea8688858151811061419257fe5b6020026020010151612ee990919063ffffffff16565b8282815181106141b457fe5b6020908102919091010152600101614175565b604080516060810182526000808252602082018190529181019190915290565b6040518060a0016040528060008152602001600081526020016000815260200160008152602001600081525090565b6040518060e0016040528061422961425f565b815260200161423661425f565b815260200160008152602001600081526020016000815260200160008152602001600081525090565b604051806040016040528060008152602001600081525090565b8035610d1881614bd7565b80358015158114610d1857600080fd5b600082601f8301126142a4578081fd5b813567ffffffffffffffff8111156142b857fe5b6142cb601f8201601f1916602001614bb3565b8181528460208386010111156142df578283fd5b816020850160208301379081016020019190915292915050565b803560028110610d1857600080fd5b600060208284031215614319578081fd5b813561082681614bd7565b600060208284031215614335578081fd5b815161082681614bd7565b60008060408385031215614352578081fd5b823561435d81614bd7565b9150602083013561436d81614bd7565b809150509250929050565b60008060006060848603121561438c578081fd5b833561439781614bd7565b925060208401356143a781614bd7565b929592945050506040919091013590565b600080600080600080600060e0888a0312156143d2578283fd5b87356143dd81614bd7565b965060208801356143ed81614bd7565b95506040880135945060608801359350608088013560ff81168114614410578384fd5b9699959850939692959460a0840135945060c09093013592915050565b6000806040838503121561443f578182fd5b823561444a81614bd7565b946020939093013593505050565b600060208284031215614469578081fd5b61082682614284565b600080600080600080600060e0888a03121561448c578081fd5b87359650602088013561449e81614bd7565b955060408801356144ae81614bd7565b9450606088013567ffffffffffffffff808211156144ca578283fd5b818a0191508a601f8301126144dd578283fd5b8135818111156144e957fe5b602081026144f960208201614bb3565b80838252602082019150602086018f6020858901011115614518578788fd5b8796505b8487101561453b5780358352600196909601956020928301920161451c565b50985050505060808a0135945060a08a0135935060c08a0135915080821115614562578283fd5b5061456f8a828b01614294565b91505092959891949750929550565b60006020828403121561458f578081fd5b81356001600160e01b031981168114610826578182fd5b600080604083850312156145b8578182fd5b505080516020909101519092909150565b6000606082840312156145da578081fd5b6040516060810181811067ffffffffffffffff821117156145f757fe5b60405261460383614284565b815260208301356001600160781b038116811461461e578283fd5b602082015260408301356001600160801b038116811461463c578283fd5b60408201529392505050565b60008060006060848603121561465c578081fd5b833567ffffffffffffffff80821115614673578283fd5b8186019150610120808389031215614689578384fd5b61469281614bb3565b905061469d836142f9565b81526146ab60208401614279565b60208201526146bc60408401614279565b6040820152606083013560608201526080830135608082015260a083013560a08201526146eb60c08401614279565b60c08201526146fc60e08401614279565b60e08201526101008084013583811115614714578586fd5b6147208a828701614294565b9183019190915250976020870135975060409096013595945050505050565b600060208284031215614750578081fd5b5035919050565b600060208284031215614768578081fd5b5051919050565b60008060008060808587031215614784578182fd5b84519350602085015192506040850151915060608501516147a481614bd7565b939692955090935050565b6000815180845260208085019450808401835b838110156147de578151875295820195908201906001016147c2565b509495945050505050565b6147f482825161486e565b6020810151614806604084018261486e565b5060408101516080830152606081015160a0830152608081015160c083015260a081015160e083015260c08101516101008301525050565b80518252602081015160208301526040810151604083015260608101516060830152608081015160808301525050565b80518252602090810151910152565b6000828483379101908152919050565b6001600160a01b0391909116815260200190565b60006020825261082660208301846147af565b6000604082526148c760408301856147af565b8281036020840152612b1a81856147af565b60006101e08083526148ed818401876147af565b9150506148fd602083018561483e565b612e3b60c08301846147e9565b600061020080835261491e818401886147af565b91505061492e602083018661483e565b61493b60c08301856147e9565b826101e083015295945050505050565b60006080825261495e60808301866147af565b905061496d602083018561486e565b826060830152949350505050565b600061026080835261498f8184018a6147af565b91505086602083015285151560408301526149ad606083018661483e565b6149bb6101008301856147e9565b612fec61022083018461486e565b901515815260200190565b92151583526020830191909152604082015260600190565b90815260200190565b9182526001600160a01b0316602082015260400190565b9586526020860194909452604085019290925260608401521515608083015260a082015260c00190565b6000602080835283518082850152825b81811015614a6257858101830151858201604001528201614a46565b81811115614a735783604083870101525b50601f01601f1916929092016040019392505050565b8151151581526020808301516001600160781b0316908201526040918201516001600160801b03169181019190915260600190565b905460ff811615158252600881901c6001600160781b0316602083015260801c604082015260600190565b6101c08101614af8828561483e565b614b0660a08301845161486e565b6020830151614b1860e084018261486e565b5060408301516101208301526060830151610140830152608083015161016083015260a083015161018083015260c08301516101a08301529392505050565b600083825260406020830152612e3b60408301846147af565b918252602082015260400190565b93845260208401929092526001600160a01b03908116604084015216606082015260800190565b60ff91909116815260200190565b60405181810167ffffffffffffffff81118282101715614bcf57fe5b604052919050565b6001600160a01b038116811461078557600080fdfe53616665436173743a2076616c756520646f65736e27742066697420696e20616e20696e74323536a26469706673582212206e49604c51cb70deb52fbc5990c6a220ed6eaa243fa74d1c675f9abde23ae4ac64736f6c63430007060033","bytecodeSha1":"7c391a23577e76b7634b90bae21c175ff5b06ead","compiler":{"evm_version":"berlin","optimizer":{"enabled":true,"runs":200},"version":"0.7.6+commit.7338295f"},"contractName":"GyroECLPPool","deployedBytecode":"608060405234801561001057600080fd5b50600436106102d65760003560e01c806376e54a461161018257806398d5fdca116100e9578063aaabadc5116100a2578063d505accf1161007c578063d505accf146105c8578063d5c096c4146105db578063dd62ed3e146105ee578063f89f27ed14610601576102d6565b8063aaabadc5146105b0578063abd13afe146105b8578063c0ff1a15146105c0576102d6565b806398d5fdca1461054f5780639b02cdde146105575780639d2c110c1461055f5780639ef3e37d14610572578063a457c2d71461058a578063a9059cbb1461059d576102d6565b8063851c1bb31161013b578063851c1bb314610509578063876f303b1461051c57806387ec681714610524578063893d20e8146105375780638d928af81461053f57806395d89b4114610547576102d6565b806376e54a46146104aa5780637be219a2146104bd5780637ecebe00146104d35780638002df18146104e6578063828a7c34146104f95780638456cb5914610501576102d6565b80633aeae0d311610241578063623a2e75116101fa5780636d785a87116101d45780636d785a8714610458578063702ec0911461046057806370a082311461047657806374f3b00914610489576102d6565b8063623a2e751461044057806362ced09214610448578063679aefce14610450576102d6565b80633aeae0d3146103cb5780633f4ba83a146103e057806344bbdb55146103e85780634a6b0b15146103fd57806355c67628146104175780636028bfd41461041f576102d6565b806323b872dd1161029357806323b872dd1461036d578063313ce567146103805780633644e5151461039557806338e9922e1461039d57806338fff2d0146103b057806339509351146103b8576102d6565b806306fdde03146102db578063095ea7b3146102f95780630e608b301461031957806316c38b3c1461032e57806318160ddd146103415780631c0de05114610356575b600080fd5b6102e3610616565b6040516102f09190614a36565b60405180910390f35b61030c61030736600461442d565b6106ac565b6040516102f091906149c9565b61032c610327366004614308565b6106c3565b005b61032c61033c366004614458565b610774565b610349610788565b6040516102f091906149ec565b61035e61078e565b6040516102f0939291906149d4565b61030c61037b366004614378565b6107b7565b61038861082d565b6040516102f09190614ba5565b610349610836565b61032c6103ab36600461473f565b610845565b61034961085e565b61030c6103c636600461442d565b610882565b6103d36108bd565b6040516102f09190614a89565b61032c610908565b6103f06109fd565b6040516102f0919061488d565b610405610a0c565b6040516102f096959493929190614a0c565b610349610a67565b61043261042d366004614472565b610a74565b6040516102f0929190614b57565b610349610aa5565b6103f0610b01565b610349610b25565b6103f0610b4a565b610468610b59565b6040516102f0929190614b70565b610349610484366004614308565b610cfe565b61049c610497366004614472565b610d1d565b6040516102f09291906148b4565b61032c6104b83660046145c9565b610dad565b6104c5610ed4565b6040516102f0929190614ae9565b6103496104e1366004614308565b610ef4565b61032c6104f4366004614308565b610f0f565b6103f0610ff5565b61032c611019565b61034961051736600461457e565b6110d1565b61034961112a565b610432610532366004614472565b61116b565b6103f0611190565b6103f06111b4565b6102e36111d8565b610349611239565b610349611304565b61034961056d366004614648565b61130a565b61057a6116a9565b6040516102f09493929190614b7e565b61030c61059836600461442d565b61181b565b61030c6105ab36600461442d565b611859565b6103f0611866565b6103f0611870565b61034961187f565b61032c6105d63660046143b8565b611927565b61049c6105e9366004614472565b611a97565b6103496105fc366004614340565b611b7c565b610609611bb9565b6040516102f091906148a1565b60038054604080516020601f60026000196101006001881615020190951694909404938401819004810282018101909252828152606093909290918301828280156106a25780601f10610677576101008083540402835291602001916106a2565b820191906000526020600020905b81548152906001019060200180831161068557829003601f168201915b5050505050905090565b60006106b9338484611d4d565b5060015b92915050565b600b5460408051808201909152600e81526d1b9bdd08185d5d1a1bdc9a5e995960921b6020820152906001600160a01b0316331461071d5760405162461bcd60e51b81526004016107149190614a36565b60405180910390fd5b50600b80546001600160a01b0319166001600160a01b0383161790556040517fb8fd9afc34c38fcd13b9a3b7646482eb1fddcefb40af2c70609972816eba32089061076990839061488d565b60405180910390a150565b61077c611daf565b61078581611ddd565b50565b60025490565b600080600061079b611e59565b1592506107a6611e76565b91506107b0611e9a565b9050909192565b6000806107c48533611b7c565b90506107e8336001600160a01b03871614806107e05750838210155b61019e611ebe565b6107f3858585611ecc565b336001600160a01b0386161480159061080e57506000198114155b15610820576108208533858403611d4d565b60019150505b9392505050565b60055460ff1690565b6000610840611fb4565b905090565b61084d611daf565b610855612072565b61078581612087565b7f000000000000000000000000000000000000000000000000000000000000000090565b3360008181526001602090815260408083206001600160a01b038716845290915281205490916106b99185906108b890866120f0565b611d4d565b6108c56141c7565b5060408051606081018252600a5460ff81161515825261010081046001600160781b03166020830152600160801b90046001600160801b03169181019190915290565b600c546040805180820190915260118152703737ba103830bab9b29036b0b730b3b2b960791b6020820152906001600160a01b031633146109c75760405162461bcd60e51b81526004018080602001828103825283818151815260200191508051906020019080838360005b8381101561098c578181015183820152602001610974565b50505050905090810190601f1680156109b95780820380516001836020036101000a031916815260200191505b509250505060405180910390fd5b506109d2600061077c565b6040517f215385c8bfc731925ec8068d7baa50f6b6f34417cc7804f7273dc2c0b3db279090600090a1565b600d546001600160a01b031681565b60008060008060008060006008549050610a2581612102565b9650610a308161210e565b9550610a3b8161211b565b9450610a4681612128565b9350610a5181612135565b9250610a5c81612142565b915050909192939495565b6000610840600854612142565b60006060610a848651600261214f565b610a998989898989898961215c6122ca612348565b97509795505050505050565b600080610ab061187f565b90506000610abc610788565b9050600080610acd6009548561245b565b50919350915060009050610aeb82610ae586866124c4565b906124c4565b9050610af785826124dc565b9550505050505090565b7f000000000000000000000000000000000000000000000000000000000000000081565b6000610840610b32610788565b610b44610b3d61187f565b6002612536565b906124dc565b600b546001600160a01b031681565b6000807f00000000000000000000000000000000000000000000000000000000000000006001600160a01b0316610b9857670de0b6b3a7640000610c29565b7f00000000000000000000000000000000000000000000000000000000000000006001600160a01b031663679aefce6040518163ffffffff1660e01b815260040160206040518083038186803b158015610bf157600080fd5b505afa158015610c05573d6000803e3d6000fd5b505050506040513d601f19601f82011682018060405250810190610c299190614757565b91507f00000000000000000000000000000000000000000000000000000000000000006001600160a01b0316610c6757670de0b6b3a7640000610cf8565b7f00000000000000000000000000000000000000000000000000000000000000006001600160a01b031663679aefce6040518163ffffffff1660e01b815260040160206040518083038186803b158015610cc057600080fd5b505afa158015610cd4573d6000803e3d6000fd5b505050506040513d601f19601f82011682018060405250810190610cf89190614757565b90509091565b6001600160a01b0381166000908152602081905260409020545b919050565b60608088610d47610d2c6111b4565b6001600160a01b0316336001600160a01b03161460cd611ebe565b610d5c610d5261085e565b82146101f4611ebe565b610d658761255a565b6000806000610d798d8d8d8d8d8d8d61215c565b925092509250610d898c846125bc565b610d92826122ca565b610d9b816122ca565b909c909b509950505050505050505050565b600b5460408051808201909152600e81526d1b9bdd08185d5d1a1bdc9a5e995960921b6020820152906001600160a01b03163314610dfe5760405162461bcd60e51b81526004016107149190614a36565b50600a5460408051808201909152601081526f1c1bdbdb081a5cc81d5b98d85c1c195960821b60208201529060ff16610e4a5760405162461bcd60e51b81526004016107149190614a36565b508051600a8054602084015160408086015160ff19909316941515949094176fffffffffffffffffffffffffffffff0019166101006001600160781b0390921691909102176001600160801b03908116600160801b919092160217815590517f2abf5970d7bc1a2b36eaae52dd2cc353edb0337c7284ef8a01973081b4e044249161076991614abe565b610edc6141e7565b610ee4614216565b610eec6125c6565b915091509091565b6001600160a01b031660009081526006602052604090205490565b600c546040805180820190915260118152703737ba103830bab9b29036b0b730b3b2b960791b60208201526001600160a01b0390911690338214610f945760405162461bcd60e51b815260206004820181815283516024840152835190928392604490910191908501908083836000831561098c578181015183820152602001610974565b50600c80546001600160a01b0319166001600160a01b03848116918217909255604080519284168352602083019190915280517f1ffccd1fa96f4fb3415df8048a0fd107344e262d2d246c85105e2a3f8f3e81989281900390910190a15050565b7f000000000000000000000000000000000000000000000000000000000000000081565b600c546040805180820190915260118152703737ba103830bab9b29036b0b730b3b2b960791b6020820152906001600160a01b0316331461109b5760405162461bcd60e51b815260206004820181815283516024840152835190928392604490910191908501908083836000831561098c578181015183820152602001610974565b506110a6600161077c565b6040517f681eace576127d0553b224436a09801fb47d042942cbff59d7d4ff04d8fa03d790600090a1565b604080517f00000000000000000000000000000000000000000000000000000000000000006020808301919091526001600160e01b03198416828401528251602481840301815260449092019092528051910120919050565b600080611135610788565b905060008061114d60095461114861187f565b61245b565b509193509150611163905081610ae585856124c4565b935050505090565b6000606061117b8651600261214f565b610a99898989898989896127fc61296b612348565b7f000000000000000000000000000000000000000000000000000000000000000090565b7f000000000000000000000000000000000000000000000000000000000000000090565b60048054604080516020601f60026000196101006001881615020190951694909404938401819004810282018101909252828152606093909290918301828280156106a25780601f10610677576101008083540402835291602001916106a2565b6000806112446129cd565b90506000806112516125c6565b91509150600073__$4dfb88a4c975276bfeda73b9d8c1ea657b$__63d83ca8628585856040518463ffffffff1660e01b8152600401611292939291906148d9565b60206040518083038186803b1580156112aa57600080fd5b505af41580156112be573d6000803e3d6000fd5b505050506040513d601f19601f820116820180604052508101906112e29190614757565b90506112f084828585612a83565b94506112fb85612b23565b94505050505090565b60095490565b6000611314612072565b8360800151611324610d2c6111b4565b61132f610d5261085e565b60007f00000000000000000000000000000000000000000000000000000000000000006001600160a01b031686602001516001600160a01b03161480156113ab57507f00000000000000000000000000000000000000000000000000000000000000006001600160a01b031686604001516001600160a01b0316145b156113b857506001611449565b7f00000000000000000000000000000000000000000000000000000000000000006001600160a01b031686602001516001600160a01b031614801561143257507f00000000000000000000000000000000000000000000000000000000000000006001600160a01b031686604001516001600160a01b0316145b1561143f57506000611449565b6114496079612cc3565b600061145482612d16565b905060006114628315612d16565b905061146e8783612e43565b965061147a8682612e43565b95506000611489888886612e4f565b90506000806114966125c6565b915091506114a261425f565b60008073__$4dfb88a4c975276bfeda73b9d8c1ea657b$__6378ace8578787876040518463ffffffff1660e01b81526004016114e0939291906148d9565b604080518083038186803b1580156114f757600080fd5b505af415801561150b573d6000803e3d6000fd5b505050506040513d601f19601f8201168201806040525081019061152f91906145a6565b6040805180820190915260029091028201815260208101919091529250600091506115579050565b8c51600181111561156457fe5b1415611610576000611582611577610a67565b60608f015190612ee9565b90506115a461159e828f60600151612f3e90919063ffffffff16565b88612e43565b60608e015260006115b98e878b888888612f54565b90507f4e1d56f7310a8c32b2267f756b19ba65019b4890068ce114a25009abe54de5ba8684836040516115ee9392919061494b565b60405180910390a16116008188612ff7565b9a505050505050505050506116a1565b61161e8c6060015186612e43565b60608d015260006116338d868a878787613003565b90507f4e1d56f7310a8c32b2267f756b19ba65019b4890068ce114a25009abe54de5ba8583836040516116689392919061494b565b60405180910390a161167a818861304b565b905061169661168f61168a610a67565b613057565b829061307d565b995050505050505050505b509392505050565b600d546000908190819081906116d0906001600160a01b03163063045434c560e41b6130e3565b600d546116ee906001600160a01b03163063045434c560e41b61310a565b600d546040516321f8a72160e01b81526001600160a01b03909116906321f8a7219061172e906c4759524f5f545245415355525960981b906004016149ec565b60206040518083038186803b15801561174657600080fd5b505afa15801561175a573d6000803e3d6000fd5b505050506040513d601f19601f8201168201806040525081019061177e9190614324565b600d546040516321f8a72160e01b81526001600160a01b03909116906321f8a721906117bd906b42414c5f545245415355525960a01b906004016149ec565b60206040518083038186803b1580156117d557600080fd5b505afa1580156117e9573d6000803e3d6000fd5b505050506040513d601f19601f8201168201806040525081019061180d9190614324565b935093509350935090919293565b6000806118283385611b7c565b90508083106118425761183d33856000611d4d565b61184f565b61184f3385858403611d4d565b5060019392505050565b60006106b9338484611ecc565b6000610840613138565b600c546001600160a01b031681565b60008061188a6129cd565b90506000806118976125c6565b604051636c1e543160e11b8152919350915073__$4dfb88a4c975276bfeda73b9d8c1ea657b$__9063d83ca862906118d7908690869086906004016148d9565b60206040518083038186803b1580156118ef57600080fd5b505af4158015611903573d6000803e3d6000fd5b505050506040513d601f19601f820116820180604052508101906111639190614757565b6119358442111560d1611ebe565b6001600160a01b0380881660008181526006602090815260408083205481517f00000000000000000000000000000000000000000000000000000000000000008185015280830195909552948b166060850152608084018a905260a0840185905260c08085018a90528151808603909101815260e090940190528251920191909120906119c1826131b2565b9050600060018288888860405160008152602001604052604051808581526020018460ff1681526020018381526020018281526020019450505050506020604051602081039080840390855afa158015611a1f573d6000803e3d6000fd5b5050604051601f1901519150611a6190506001600160a01b03821615801590611a5957508b6001600160a01b0316826001600160a01b0316145b6101f8611ebe565b6001600160a01b038b166000908152600660205260409020600185019055611a8a8b8b8b611d4d565b5050505050505050505050565b60608088611aa6610d2c6111b4565b611ab1610d5261085e565b611ab9612072565b6000611ac3610788565b611b3357611ad38b8b8b886131fe565b94509050611ae8620f424082101560cc611ebe565b611af66000620f424061338e565b611b0589620f4240830361338e565b611b0e8461296b565b6040805160028082526060820183529091602083019080368337019050509250611b6e565b611b3c8861255a565b611b4b8b8b8b8b8b8b8b6127fc565b90955093509050611b5c898261338e565b611b658461296b565b611b6e836122ca565b505097509795505050505050565b6000611b866111b4565b6001600160a01b0316826001600160a01b03161415611ba857506000196106bd565b611bb28383613398565b90506106bd565b60606108406133c3565b80611bcd81613432565b5050565b611bfd8160600151600013158015611bf55750670de0b6b3a7640000826060015113155b6101636134ab565b611c288160400151600013158015611bf55750670de0b6b3a7640000826040015113156101636134ab565b604080518082018252606083015181529082015160208201526000611c4d82806134b9565b9050611c7a670de0b6b3a763fc188212801590611c725750670de0b6b3a76403e88213155b6101646134ab565b611ca98360800151600013158015611ca157506a52b7d2dcc80cd2e4000000846080015113155b6101686134ab565b505050565b600061082683836056611cd2565b6000611ccc838311156001611ebe565b50900390565b67ffffffffffffffff811b1992909216911b1790565b6000828202831580611d02575082848281611cff57fe5b05145b611d1257611d1260006003611ebe565b670de0b6b3a764000090059392505050565b600082820181831215611d3957838112611d3e565b838112155b61082657610826600080611ebe565b6001600160a01b03808416600081815260016020908152604080832094871680845294825291829020859055815185815291517f8c5be1e5ebec7d5bd14f71427d1e84f3dd0314c0f7b2291e5b200ac8c7c3b9259281900390910190a3505050565b6000611dc66000356001600160e01b0319166110d1565b9050610785611dd582336134ec565b610191611ebe565b8015611dfd57611df8611dee611e76565b4210610193611ebe565b611e12565b611e12611e08611e9a565b42106101a9611ebe565b6007805482151560ff19909116811790915560408051918252517f9e3a5e37224532dea67b89face185703738a228a6e8a23dee546960180d3be649181900360200190a150565b6000611e63611e9a565b42118061084057505060075460ff161590565b7f000000000000000000000000000000000000000000000000000000000000000090565b7f000000000000000000000000000000000000000000000000000000000000000090565b81611bcd57611bcd81612cc3565b611ee36001600160a01b0384161515610198611ebe565b611efa6001600160a01b0383161515610199611ebe565b611f05838383611ca9565b6001600160a01b038316600090815260208190526040902054611f2b90826101a06135ee565b6001600160a01b038085166000908152602081905260408082209390935590841681522054611f5a90826120f0565b6001600160a01b038084166000818152602081815260409182902094909455805185815290519193928716927fddf252ad1be2c89b69c2b068fc378daa952ba7f163c4a11628f55a4df523b3ef92918290030190a3505050565b60007f00000000000000000000000000000000000000000000000000000000000000007f00000000000000000000000000000000000000000000000000000000000000007f0000000000000000000000000000000000000000000000000000000000000000612021613604565b3060405160200180868152602001858152602001848152602001838152602001826001600160a01b031681526020019550505050505060405160208183030381529060405280519060200120905090565b61208561207d611e59565b610192611ebe565b565b61209a64e8d4a5100082101560cb611ebe565b6120b067016345785d8a000082111560ca611ebe565b6008546120bd9082611cae565b6008556040517fa9ba3ffe0b6c366b81232caab38605a0699ad5398d6cce76f91ee809e322dafc906107699083906149ec565b60008282016108268482101583611ebe565b60006106bd8282613608565b60006106bd826016613608565b60006106bd82602c61362f565b60006106bd82604b613639565b60006106bd826055613641565b60006106bd82605661364b565b611bcd8183146067611ebe565b600060608060008061216c6125c6565b91509150612178611e59565b1561227d57604051636c1e543160e11b815260009073__$4dfb88a4c975276bfeda73b9d8c1ea657b$__9063d83ca862906121bb908d90879087906004016148d9565b60206040518083038186803b1580156121d357600080fd5b505af41580156121e7573d6000803e3d6000fd5b505050506040513d601f19601f8201168201806040525081019061220b9190614757565b905061221681613659565b6122208a88613686565b90965094506122398187612232610788565b60006136d2565b60098190556040517fe1d39caf039c7dc6f364b1e29d1e67c4e330003a43f4991d50cf3e8840d95eac9161226f91849190614b70565b60405180910390a150612293565b6122878987613686565b60001960095590955093505b6040805160028082526060820183528792879291906020830190803683370190505094509450945050509750975097945050505050565b6122f1816000815181106122da57fe5b60200260200101516122ec6001612d16565b6124dc565b816000815181106122fe57fe5b60200260200101818152505061232c8160018151811061231a57fe5b60200260200101516122ec6000612d16565b8160018151811061233957fe5b60200260200101818152505050565b333014612406576000306001600160a01b031660003660405161236c92919061487d565b6000604051808303816000865af19150503d80600081146123a9576040519150601f19603f3d011682016040523d82523d6000602084013e6123ae565b606091505b5050905080600081146123bd57fe5b60046000803e6000516001600160e01b0319166343adbafb60e01b81146123e8573d6000803e3d6000fd5b506020600460003e604060205260243d03602460403e601c3d016000f35b61240f8661255a565b6000806124258b8b8b8b8b8b8b8b63ffffffff16565b5091509150612437818463ffffffff16565b8051601f1982018390526343adbafb603f1983015260200260231982016044820181fd5b60008060008060008060008061246f6116a9565b93509350935093508360001415612494576000975087965090945092506124bb915050565b6000806124ab8c8c6124a4610788565b898961372a565b909a509850929650909450505050505b92959194509250565b60008282018381101561082657610826600080611ebe565b6000816124ef576124ef60006004611ebe565b826124fc575060006106bd565b670de0b6b3a76400008381029084828161251257fe5b04146125245761252460006005611ebe565b82818161252d57fe5b04949350505050565b600082820261082684158061255357508385838161255057fe5b04145b6003611ebe565b6125818160008151811061256a57fe5b602002602001015161257c6001612d16565b6137c5565b8160008151811061258e57fe5b60200260200101818152505061232c816001815181106125aa57fe5b602002602001015161257c6000612d16565b611bcd82826137fe565b6125ce6141e7565b6125d6614216565b7f00000000000000000000000000000000000000000000000000000000000000006080808401919091527f00000000000000000000000000000000000000000000000000000000000000006060808501919091527f00000000000000000000000000000000000000000000000000000000000000006040808601919091527f00000000000000000000000000000000000000000000000000000000000000006020808701919091527f000000000000000000000000000000000000000000000000000000000000000086528451858201517f0000000000000000000000000000000000000000000000000000000000000000818401527f000000000000000000000000000000000000000000000000000000000000000090527f0000000000000000000000000000000000000000000000000000000000000000918101919091527f000000000000000000000000000000000000000000000000000000000000000090527f000000000000000000000000000000000000000000000000000000000000000060c08501527f000000000000000000000000000000000000000000000000000000000000000060a08501527f0000000000000000000000000000000000000000000000000000000000000000928401929092527f0000000000000000000000000000000000000000000000000000000000000000908301527f0000000000000000000000000000000000000000000000000000000000000000908201529091565b600060608060008061280c6125c6565b91509150600073__$4dfb88a4c975276bfeda73b9d8c1ea657b$__63d83ca8628b85856040518463ffffffff1660e01b815260040161284d939291906148d9565b60206040518083038186803b15801561286557600080fd5b505af4158015612879573d6000803e3d6000fd5b505050506040513d601f19601f8201168201806040525081019061289d9190614757565b90506128a881613659565b6000806128b58c8a6138b5565b600a54919350915060ff16156128df576128df826128d28f610cfe565b6128da610788565b6138ef565b6128f383836128ec610788565b60016136d2565b60098190556040517fe1d39caf039c7dc6f364b1e29d1e67c4e330003a43f4991d50cf3e8840d95eac9161292991869190614b70565b60405180910390a16040805160028082526060820183528492849291906020830190803683370190505097509750975050505050509750975097945050505050565b6129928160008151811061297b57fe5b602002602001015161298d6001612d16565b61307d565b8160008151811061299f57fe5b60200260200101818152505061232c816001815181106129bb57fe5b602002602001015161298d6000612d16565b6040805160028082526060808301845292602083019080368337019050509050612a207f0000000000000000000000000000000000000000000000000000000000000000612a1b6001612d16565b613a01565b81600081518110612a2d57fe5b602002602001018181525050612a677f0000000000000000000000000000000000000000000000000000000000000000612a1b6000612d16565b81600181518110612a7457fe5b60200260200101818152505090565b600073__$4dfb88a4c975276bfeda73b9d8c1ea657b$__63c7fe78d0868585612aab89613aa8565b6040518563ffffffff1660e01b8152600401612aca949392919061490a565b60206040518083038186803b158015612ae257600080fd5b505af4158015612af6573d6000803e3d6000fd5b505050506040513d601f19601f82011682018060405250810190612b1a9190614757565b95945050505050565b60007f00000000000000000000000000000000000000000000000000000000000000006001600160a01b031615612bf257612bef7f00000000000000000000000000000000000000000000000000000000000000006001600160a01b031663679aefce6040518163ffffffff1660e01b815260040160206040518083038186803b158015612bb057600080fd5b505afa158015612bc4573d6000803e3d6000fd5b505050506040513d601f19601f82011682018060405250810190612be89190614757565b83906137c5565b91505b7f00000000000000000000000000000000000000000000000000000000000000006001600160a01b031615612cbf57612cbc7f00000000000000000000000000000000000000000000000000000000000000006001600160a01b031663679aefce6040518163ffffffff1660e01b815260040160206040518083038186803b158015612c7d57600080fd5b505afa158015612c91573d6000803e3d6000fd5b505050506040513d601f19601f82011682018060405250810190612cb59190614757565b83906124dc565b91505b5090565b62461bcd60e51b6000908152602060045260076024526642414c23000030600a808404818106603090810160081b95839006959095019082900491820690940160101b939093010160c81b604452606490fd5b60008060008315612d6b57507f000000000000000000000000000000000000000000000000000000000000000090507f0000000000000000000000000000000000000000000000000000000000000000612db1565b507f000000000000000000000000000000000000000000000000000000000000000090507f00000000000000000000000000000000000000000000000000000000000000005b6001600160a01b0382161561082657612e3b826001600160a01b031663679aefce6040518163ffffffff1660e01b815260040160206040518083038186803b158015612dfc57600080fd5b505afa158015612e10573d6000803e3d6000fd5b505050506040513d601f19601f82011682018060405250810190612e349190614757565b82906137c5565b949350505050565b600061082683836137c5565b60408051600280825260608083018452926020830190803683370190505090508115612eae578381600081518110612e8357fe5b6020026020010181815250508281600181518110612e9d57fe5b602002602001018181525050610826565b8281600081518110612ebc57fe5b6020026020010181815250508381600181518110612ed657fe5b6020026020010181815250509392505050565b6000828202831580612f03575082848281612f0057fe5b04145b612f1357612f1360006003611ebe565b80612f225760009150506106bd565b670de0b6b3a764000060001982015b0460010191505092915050565b600082821115611ccc57611ccc60006001611ebe565b60608601516040516330ffa11b60e11b815260009173__$4dfb88a4c975276bfeda73b9d8c1ea657b$__916361ff423691612f9c918a91908a908a908a908a9060040161497b565b60206040518083038186803b158015612fb457600080fd5b505af4158015612fc8573d6000803e3d6000fd5b505050506040513d601f19601f82011682018060405250810190612fec9190614757565b979650505050505050565b600061082683836124dc565b6060860151604051633b18ce7b60e21b815260009173__$4dfb88a4c975276bfeda73b9d8c1ea657b$__9163ec6339ec91612f9c918a91908a908a908a908a9060040161497b565b6000610826838361307d565b6000670de0b6b3a7640000821061306f5760006106bd565b50670de0b6b3a76400000390565b6000816130905761309060006004611ebe565b8261309d575060006106bd565b670de0b6b3a7640000838102908482816130b357fe5b04146130d7576130d7670de0b6b3a76400008583816130ce57fe5b04146005611ebe565b826001820381612f3157fe5b6000612e3b847550524f544f434f4c5f535741505f4645455f5045524360501b8486613aec565b6000612e3b847f50524f544f434f4c5f4645455f4759524f5f504f5254494f4e000000000000008486613aec565b60006131426111b4565b6001600160a01b031663aaabadc56040518163ffffffff1660e01b815260040160206040518083038186803b15801561317a57600080fd5b505afa15801561318e573d6000803e3d6000fd5b505050506040513d601f19601f820116820180604052508101906108409190614324565b60006131bc611fb4565b82604051602001808061190160f01b81525060020183815260200182815260200192505050604051602081830303815290604052805190602001209050919050565b60006060600061320d84613d99565b9050613228600082600381111561322057fe5b1460ce611ebe565b600061323385613db8565b90506132418151600261214f565b61324a8161255a565b6000806132556125c6565b91509150600073__$4dfb88a4c975276bfeda73b9d8c1ea657b$__63d83ca8628585856040518463ffffffff1660e01b8152600401613296939291906148d9565b60206040518083038186803b1580156132ae57600080fd5b505af41580156132c2573d6000803e3d6000fd5b505050506040513d601f19601f820116820180604052508101906132e69190614757565b90507faf65f1a72bf4f8bc48e8153858e1f7b307ce39c88361a677c0a79c2a1ae571ef8160405161331791906149ec565b60405180910390a1600061332d85838686612a83565b9050600061337561335b838860008151811061334557fe5b60200260200101516137c590919063ffffffff16565b8760018151811061336857fe5b60200260200101516120f0565b60099390935550909b939a509298505050505050505050565b611bcd8282613e6c565b6001600160a01b03918216600090815260016020908152604080832093909416825291909152205490565b604080516002808252606080830184529260009291906020830190803683370190505090506133f26001613f01565b816000815181106133ff57fe5b6020026020010181815250506134156000613f01565b8160018151811061342257fe5b6020908102919091010152905090565b60028151101561344157610785565b60008160008151811061345057fe5b602002602001015190506000600190505b8251811015611ca957600083828151811061347857fe5b602002602001015190506134a1816001600160a01b0316846001600160a01b0316106065611ebe565b9150600101613461565b81611bcd57611bcd81613f55565b60006108266134d983602001518560200151611ce890919063ffffffff16565b835185516134e691611ce8565b90611d24565b600073ba1ba1ba1ba1ba1ba1ba1ba1ba1ba1ba1ba1ba1b61350b611190565b6001600160a01b031614158015613526575061352683613f65565b1561354e57613533611190565b6001600160a01b0316336001600160a01b03161490506106bd565b613556613138565b6001600160a01b0316639be2a8848484306040518463ffffffff1660e01b815260040180848152602001836001600160a01b03168152602001826001600160a01b03168152602001935050505060206040518083038186803b1580156135bb57600080fd5b505afa1580156135cf573d6000803e3d6000fd5b505050506040513d60208110156135e557600080fd5b505190506106bd565b60006135fd8484111583611ebe565b5050900390565b4690565b600082821c623fffff16621fffff81136136225780612e3b565b623fffff19179392505050565b1c637fffffff1690565b1c6103ff1690565b1c60019081161490565b1c67ffffffffffffffff1690565b60008060008061366b6009548661245b565b935093509350935061367f84848484613f97565b5050505050565b60006060600061369584613d99565b905060018160038111156136a557fe5b14156136bf576136b58585613fbd565b90935091506136ca565b6136ca610150612cc3565b509250929050565b600081156137045760006136f0846136ea8888612ee9565b9061307d565b90506136fc86826124c4565b915050612e3b565b600061371484610b4488886137c5565b90506137208682612f3e565b9695505050505050565b60008086861161373f575060009050806137bb565b600061375f856137596137528a8c612f3e565b89906137c5565b906137c5565b90506000613777613770898b612f3e565b87906137c5565b905060006137858983612f3e565b9050600061379384836124dc565b905060006137a188836137c5565b905060006137af8383612f3e565b91975090955050505050505b9550959350505050565b60008282028315806137df5750828482816137dc57fe5b04145b6137ef576137ef60006003611ebe565b670de0b6b3a76400008161252d565b6138156001600160a01b038316151561019b611ebe565b61382182600083611ca9565b6001600160a01b03821660009081526020819052604090205461384790826101a16135ee565b6001600160a01b03831660009081526020819052604090205560025461386d9082613fef565b6002556040805182815290516000916001600160a01b038516917fddf252ad1be2c89b69c2b068fc378daa952ba7f163c4a11628f55a4df523b3ef9181900360200190a35050565b6000606060006138c484613d99565b905060038160038111156138d457fe5b14156138e4576136b58585613ffd565b6136ca610136612cc3565b60408051606081018252600a5460ff81161515825261010081046001600160781b031660208301819052600160801b9091046001600160801b0316928201929092529061393c85856124c4565b11156040518060400160405280601a81526020017f6f7665722061646472657373206c697175696469747920636170000000000000815250906139925760405162461bcd60e51b81526004016107149190614a36565b5060408101516001600160801b03166139ab85846124c4565b11156040518060400160405280601981526020017f6f76657220676c6f62616c206c697175696469747920636170000000000000008152509061367f5760405162461bcd60e51b81526004016107149190614a36565b6000806000613a0e6111b4565b6001600160a01b031663b05f8e48613a2461085e565b876040518363ffffffff1660e01b8152600401613a429291906149f5565b60806040518083038186803b158015613a5a57600080fd5b505afa158015613a6e573d6000803e3d6000fd5b505050506040513d601f19601f82011682018060405250810190613a92919061476f565b505081810194509092509050612b1a83856137c5565b6000600160ff1b8210612cbf5760405162461bcd60e51b8152600401808060200182810382526028815260200180614bed6028913960400191505060405180910390fd5b6040805160208082018690526001600160a01b03808516838501528351808403850181526060840180865281519184019190912063696eb37560e01b909152606484018190529351600094939189169263696eb3759260848082019391829003018186803b158015613b5d57600080fd5b505afa158015613b71573d6000803e3d6000fd5b505050506040513d6020811015613b8757600080fd5b505115613c0757856001600160a01b031663bd02d0f5826040518263ffffffff1660e01b81526004018082815260200191505060206040518083038186803b158015613bd257600080fd5b505afa158015613be6573d6000803e3d6000fd5b505050506040513d6020811015613bfc57600080fd5b50519150612e3b9050565b6040805160208082018890528183018790528251808303840181526060830180855281519183019190912063696eb37560e01b9091526064830181905292516001600160a01b038a169263696eb375926084808301939192829003018186803b158015613c7357600080fd5b505afa158015613c87573d6000803e3d6000fd5b505050506040513d6020811015613c9d57600080fd5b505115613d1e57866001600160a01b031663bd02d0f5826040518263ffffffff1660e01b81526004018082815260200191505060206040518083038186803b158015613ce857600080fd5b505afa158015613cfc573d6000803e3d6000fd5b505050506040513d6020811015613d1257600080fd5b50519250612e3b915050565b866001600160a01b031663bd02d0f5876040518263ffffffff1660e01b81526004018082815260200191505060206040518083038186803b158015613d6257600080fd5b505afa158015613d76573d6000803e3d6000fd5b505050506040513d6020811015613d8c57600080fd5b5051979650505050505050565b6000818060200190516020811015613db057600080fd5b505192915050565b6060818060200190516040811015613dcf57600080fd5b815160208301805160405192949293830192919084640100000000821115613df657600080fd5b908301906020820185811115613e0b57600080fd5b8251866020820283011164010000000082111715613e2857600080fd5b82525081516020918201928201910280838360005b83811015613e55578181015183820152602001613e3d565b505050509190910160405250929695505050505050565b613e7860008383611ca9565b600254613e8590826120f0565b6002556001600160a01b038216600090815260208190526040902054613eab90826120f0565b6001600160a01b0383166000818152602081815260408083209490945583518581529351929391927fddf252ad1be2c89b69c2b068fc378daa952ba7f163c4a11628f55a4df523b3ef9281900390910190a35050565b600081613f2e577f00000000000000000000000000000000000000000000000000000000000000006106bd565b507f0000000000000000000000000000000000000000000000000000000000000000919050565b610785816223aca960e91b614022565b6000613f77631c74c91760e11b6110d1565b8214806106bd5750613f8f6350dd6ed960e01b6110d1565b909114919050565b8315613fa757613fa7828561338e565b8215613fb757613fb7818461338e565b50505050565b600060606000613fcc84614083565b90506000613fe28683613fdd610788565b6140a5565b9196919550909350505050565b6000610826838360016135ee565b60006060600061400c84614083565b90506000613fe2868361401d610788565b61412b565b62461bcd60e51b600090815260206004526007602452600a808404818106603090810160081b958390069590950190829004918206850160101b01602363ffffff0060e086901c160160181b0190930160c81b60445260e882901c90606490fd5b600081806020019051604081101561409a57600080fd5b506020015192915050565b6060835167ffffffffffffffff811180156140bf57600080fd5b506040519080825280602002602001820160405280156140e9578160200160208202803683370190505b50905060005b84518110156116a15761410c83610b448688858151811061334557fe5b82828151811061411857fe5b60209081029190910101526001016140ef565b6060835167ffffffffffffffff8111801561414557600080fd5b5060405190808252806020026020018201604052801561416f578160200160208202803683370190505b50905060005b84518110156116a1576141a8836136ea8688858151811061419257fe5b6020026020010151612ee990919063ffffffff16565b8282815181106141b457fe5b6020908102919091010152600101614175565b604080516060810182526000808252602082018190529181019190915290565b6040518060a0016040528060008152602001600081526020016000815260200160008152602001600081525090565b6040518060e0016040528061422961425f565b815260200161423661425f565b815260200160008152602001600081526020016000815260200160008152602001600081525090565b604051806040016040528060008152602001600081525090565b8035610d1881614bd7565b80358015158114610d1857600080fd5b600082601f8301126142a4578081fd5b813567ffffffffffffffff8111156142b857fe5b6142cb601f8201601f1916602001614bb3565b8181528460208386010111156142df578283fd5b816020850160208301379081016020019190915292915050565b803560028110610d1857600080fd5b600060208284031215614319578081fd5b813561082681614bd7565b600060208284031215614335578081fd5b815161082681614bd7565b60008060408385031215614352578081fd5b823561435d81614bd7565b9150602083013561436d81614bd7565b809150509250929050565b60008060006060848603121561438c578081fd5b833561439781614bd7565b925060208401356143a781614bd7565b929592945050506040919091013590565b600080600080600080600060e0888a0312156143d2578283fd5b87356143dd81614bd7565b965060208801356143ed81614bd7565b95506040880135945060608801359350608088013560ff81168114614410578384fd5b9699959850939692959460a0840135945060c09093013592915050565b6000806040838503121561443f578182fd5b823561444a81614bd7565b946020939093013593505050565b600060208284031215614469578081fd5b61082682614284565b600080600080600080600060e0888a03121561448c578081fd5b87359650602088013561449e81614bd7565b955060408801356144ae81614bd7565b9450606088013567ffffffffffffffff808211156144ca578283fd5b818a0191508a601f8301126144dd578283fd5b8135818111156144e957fe5b602081026144f960208201614bb3565b80838252602082019150602086018f6020858901011115614518578788fd5b8796505b8487101561453b5780358352600196909601956020928301920161451c565b50985050505060808a0135945060a08a0135935060c08a0135915080821115614562578283fd5b5061456f8a828b01614294565b91505092959891949750929550565b60006020828403121561458f578081fd5b81356001600160e01b031981168114610826578182fd5b600080604083850312156145b8578182fd5b505080516020909101519092909150565b6000606082840312156145da578081fd5b6040516060810181811067ffffffffffffffff821117156145f757fe5b60405261460383614284565b815260208301356001600160781b038116811461461e578283fd5b602082015260408301356001600160801b038116811461463c578283fd5b60408201529392505050565b60008060006060848603121561465c578081fd5b833567ffffffffffffffff80821115614673578283fd5b8186019150610120808389031215614689578384fd5b61469281614bb3565b905061469d836142f9565b81526146ab60208401614279565b60208201526146bc60408401614279565b6040820152606083013560608201526080830135608082015260a083013560a08201526146eb60c08401614279565b60c08201526146fc60e08401614279565b60e08201526101008084013583811115614714578586fd5b6147208a828701614294565b9183019190915250976020870135975060409096013595945050505050565b600060208284031215614750578081fd5b5035919050565b600060208284031215614768578081fd5b5051919050565b60008060008060808587031215614784578182fd5b84519350602085015192506040850151915060608501516147a481614bd7565b939692955090935050565b6000815180845260208085019450808401835b838110156147de578151875295820195908201906001016147c2565b509495945050505050565b6147f482825161486e565b6020810151614806604084018261486e565b5060408101516080830152606081015160a0830152608081015160c083015260a081015160e083015260c08101516101008301525050565b80518252602081015160208301526040810151604083015260608101516060830152608081015160808301525050565b80518252602090810151910152565b6000828483379101908152919050565b6001600160a01b0391909116815260200190565b60006020825261082660208301846147af565b6000604082526148c760408301856147af565b8281036020840152612b1a81856147af565b60006101e08083526148ed818401876147af565b9150506148fd602083018561483e565b612e3b60c08301846147e9565b600061020080835261491e818401886147af565b91505061492e602083018661483e565b61493b60c08301856147e9565b826101e083015295945050505050565b60006080825261495e60808301866147af565b905061496d602083018561486e565b826060830152949350505050565b600061026080835261498f8184018a6147af565b91505086602083015285151560408301526149ad606083018661483e565b6149bb6101008301856147e9565b612fec61022083018461486e565b901515815260200190565b92151583526020830191909152604082015260600190565b90815260200190565b9182526001600160a01b0316602082015260400190565b9586526020860194909452604085019290925260608401521515608083015260a082015260c00190565b6000602080835283518082850152825b81811015614a6257858101830151858201604001528201614a46565b81811115614a735783604083870101525b50601f01601f1916929092016040019392505050565b8151151581526020808301516001600160781b0316908201526040918201516001600160801b03169181019190915260600190565b905460ff811615158252600881901c6001600160781b0316602083015260801c604082015260600190565b6101c08101614af8828561483e565b614b0660a08301845161486e565b6020830151614b1860e084018261486e565b5060408301516101208301526060830151610140830152608083015161016083015260a083015161018083015260c08301516101a08301529392505050565b600083825260406020830152612e3b60408301846147af565b918252602082015260400190565b93845260208401929092526001600160a01b03908116604084015216606082015260800190565b60ff91909116815260200190565b60405181810167ffffffffffffffff81118282101715614bcf57fe5b604052919050565b6001600160a01b038116811461078557600080fdfe53616665436173743a2076616c756520646f65736e27742066697420696e20616e20696e74323536a26469706673582212206e49604c51cb70deb52fbc5990c6a220ed6eaa243fa74d1c675f9abde23ae4ac64736f6c63430007060033","language":"Solidity","natspec":{"kind":"dev","methods":{"DOMAIN_SEPARATOR()":{"details":"See {IERC20Permit-DOMAIN_SEPARATOR}."},"allowance(address,address)":{"details":"Override to grant the Vault infinite allowance, causing for Pool Tokens to not require approval. This is sound as the Vault already provides authorization mechanisms when initiation token transfers, which this contract inherits."},"approve(address,uint256)":{"details":"See {IERC20-approve}. Requirements: - `spender` cannot be the zero address."},"balanceOf(address)":{"details":"See {IERC20-balanceOf}."},"changePauseManager(address)":{"notice":"Changes the account that is allowed to pause a pool."},"decimals()":{"details":"Returns the number of decimals used to get its user representation. For example, if `decimals` equals `2`, a balance of `505` tokens should be displayed to a user as `5,05` (`505 / 10 ** 2`). Tokens usually opt for a value of 18, imitating the relationship between Ether and Wei. This is the value {ERC20} uses, unless {_setupDecimals} is called. NOTE: This information is only used for _display_ purposes: it in no way affects any of the arithmetic of the contract, including {IERC20-balanceOf} and {IERC20-transfer}."},"decreaseAllowance(address,uint256)":{"details":"Override to allow decreasing allowance by more than the current amount (setting it to zero)"},"getActionId(bytes4)":{"details":"Returns the action identifier associated with the external function described by `selector`."},"getActualSupply()":{"notice":"Effective BPT supply.  This is the same as `totalSupply()` but also accounts for the fact that the pool owes  protocol fees to the pool in the form of unminted LP shares created on the next join/exit,  diluting LPers. Thus, this is the totalSupply() that the next join/exit operation will see.  Equivalent to the respective function in, e.g., WeightedPool, see:  https://github.com/balancer/balancer-v2-monorepo/blob/master/pkg/pool-weighted/contracts/WeightedPool.sol#L325-L344"},"getInvariant()":{"details":"Returns the current value of the invariant. Note: This function is not used internally; it's public, not external, so we can override it cleanly."},"getInvariantDivActualSupply()":{"notice":"Equivalent to but more efficient than `getInvariant().divDown(getActualSupply())`."},"getMiscData()":{"details":"Only `swapFeePercentage` is non-trivial; everything else is 0/false because the oracle is not used. These variables are returned to keep the call signature compatible."},"getPausedState()":{"details":"Returns the current contract pause status, as well as the end times of the Pause Window and Buffer Period."},"getPrice()":{"notice":"Returns the current spot price of token0 quoted in units of token1. When rateProvider{0,1} is provided, the returned price corresponds to tokens *before* rate scaling."},"getRate()":{"details":"This function returns the appreciation of one BPT relative to the underlying tokens. This starts at 1 when the pool is created and grows over time"},"getTokenRates()":{"notice":"Convenience function to fetch the two rates used for scaling the two tokens, as of rateProvider{0,1}. Note that these rates do *not* contain scaling to account for differences in the number of decimals. The rates themselves are always 18-decimals."},"increaseAllowance(address,uint256)":{"details":"Atomically increases the allowance granted to `spender` by the caller. This is an alternative to {approve} that can be used as a mitigation for problems described in {IERC20-approve}. Emits an {Approval} event indicating the updated allowance. Requirements: - `spender` cannot be the zero address."},"name()":{"details":"Returns the name of the token."},"nonces(address)":{"details":"See {IERC20Permit-nonces}."},"onExitPool(bytes32,address,address,uint256[],uint256,uint256,bytes)":{"details":"Called by the Vault when a user calls `IVault.exitPool` to remove liquidity from this Pool. Returns how many tokens the Vault should deduct from the Pool's balances, as well as the amount of protocol fees the Pool owes to the Vault. The Vault will then take tokens from the Pool's balances and send them to `recipient`, as well as collect the reported amount in protocol fees, which the Pool should calculate based on `protocolSwapFeePercentage`. Protocol fees are charged on exit events to guarantee that users exiting the Pool have paid their share. `sender` is the account performing the exit (typically the pool shareholder), and `recipient` is the account to which the Vault will send the proceeds. `balances` contains the total token balances for each token the Pool registered in the Vault, in the same order that `IVault.getPoolTokens` would return. `lastChangeBlock` is the last block in which *any* of the Pool's registered tokens last changed its total balance. `userData` contains any pool-specific instructions needed to perform the calculations, such as the type of exit (e.g., proportional given an amount of pool shares, single-asset, multi-asset, etc.) Contracts implementing this function should check that the caller is indeed the Vault before performing any state-changing operations, such as burning pool shares."},"onJoinPool(bytes32,address,address,uint256[],uint256,uint256,bytes)":{"details":"Called by the Vault when a user calls `IVault.joinPool` to add liquidity to this Pool. Returns how many of each registered token the user should provide, as well as the amount of protocol fees the Pool owes to the Vault. The Vault will then take tokens from `sender` and add them to the Pool's balances, as well as collect the reported amount in protocol fees, which the pool should calculate based on `protocolSwapFeePercentage`. Protocol fees are reported and charged on join events so that the Pool is free of debt whenever new users join. `sender` is the account performing the join (from which tokens will be withdrawn), and `recipient` is the account designated to receive any benefits (typically pool shares). `balances` contains the total balances for each token the Pool registered in the Vault, in the same order that `IVault.getPoolTokens` would return. `lastChangeBlock` is the last block in which *any* of the Pool's registered tokens last changed its total balance. `userData` contains any pool-specific instructions needed to perform the calculations, such as the type of join (e.g., proportional given an amount of pool shares, single-asset, multi-asset, etc.) Contracts implementing this function should check that the caller is indeed the Vault before performing any state-changing operations, such as minting pool shares."},"pause()":{"notice":"Pauses the pool. Can only be called by the pause manager."},"permit(address,address,uint256,uint256,uint8,bytes32,bytes32)":{"details":"See {IERC20Permit-permit}."},"queryExit(bytes32,address,address,uint256[],uint256,uint256,bytes)":{"details":"Returns the amount of BPT that would be burned from `sender` if the `onExitPool` hook were called by the Vault with the same arguments, along with the number of tokens `recipient` would receive. This function is not meant to be called directly, but rather from a helper contract that fetches current Vault data, such as the protocol swap fee percentage and Pool balances. Like `IVault.queryBatchSwap`, this function is not view due to internal implementation details: the caller must explicitly use eth_call instead of eth_sendTransaction."},"queryJoin(bytes32,address,address,uint256[],uint256,uint256,bytes)":{"details":"Returns the amount of BPT that would be granted to `recipient` if the `onJoinPool` hook were called by the Vault with the same arguments, along with the number of tokens `sender` would have to supply. This function is not meant to be called directly, but rather from a helper contract that fetches current Vault data, such as the protocol swap fee percentage and Pool balances. Like `IVault.queryBatchSwap`, this function is not view due to internal implementation details: the caller must explicitly use eth_call instead of eth_sendTransaction."},"symbol()":{"details":"Returns the symbol of the token, usually a shorter version of the name."},"totalSupply()":{"details":"See {IERC20-totalSupply}."},"transfer(address,uint256)":{"details":"See {IERC20-transfer}. Requirements: - `recipient` cannot be the zero address. - the caller must have a balance of at least `amount`."},"transferFrom(address,address,uint256)":{"details":"Override to allow for 'infinite allowance' and let the token owner use `transferFrom` with no self-allowance"},"unpause()":{"notice":"Unpauses the pool. Can only be called by the pause manager."}},"stateVariables":{"_paramsAlpha":{"details":"Parameters of the ECLP pool"},"rateProvider0":{"details":"for rate scaling"}},"version":1},"opcodes":"PUSH1 0x80 PUSH1 0x40 MSTORE CALLVALUE DUP1 ISZERO PUSH2 0x10 JUMPI PUSH1 0x0 DUP1 REVERT JUMPDEST POP PUSH1 0x4 CALLDATASIZE LT PUSH2 0x2D6 JUMPI PUSH1 0x0 CALLDATALOAD PUSH1 0xE0 SHR DUP1 PUSH4 0x76E54A46 GT PUSH2 0x182 JUMPI DUP1 PUSH4 0x98D5FDCA GT PUSH2 0xE9 JUMPI DUP1 PUSH4 0xAAABADC5 GT PUSH2 0xA2 JUMPI DUP1 PUSH4 0xD505ACCF GT PUSH2 0x7C JUMPI DUP1 PUSH4 0xD505ACCF EQ PUSH2 0x5C8 JUMPI DUP1 PUSH4 0xD5C096C4 EQ PUSH2 0x5DB JUMPI DUP1 PUSH4 0xDD62ED3E EQ PUSH2 0x5EE JUMPI DUP1 PUSH4 0xF89F27ED EQ PUSH2 0x601 JUMPI PUSH2 0x2D6 JUMP JUMPDEST DUP1 PUSH4 0xAAABADC5 EQ PUSH2 0x5B0 JUMPI DUP1 PUSH4 0xABD13AFE EQ PUSH2 0x5B8 JUMPI DUP1 PUSH4 0xC0FF1A15 EQ PUSH2 0x5C0 JUMPI PUSH2 0x2D6 JUMP JUMPDEST DUP1 PUSH4 0x98D5FDCA EQ PUSH2 0x54F JUMPI DUP1 PUSH4 0x9B02CDDE EQ PUSH2 0x557 JUMPI DUP1 PUSH4 0x9D2C110C EQ PUSH2 0x55F JUMPI DUP1 PUSH4 0x9EF3E37D EQ PUSH2 0x572 JUMPI DUP1 PUSH4 0xA457C2D7 EQ PUSH2 0x58A JUMPI DUP1 PUSH4 0xA9059CBB EQ PUSH2 0x59D JUMPI PUSH2 0x2D6 JUMP JUMPDEST DUP1 PUSH4 0x851C1BB3 GT PUSH2 0x13B JUMPI DUP1 PUSH4 0x851C1BB3 EQ PUSH2 0x509 JUMPI DUP1 PUSH4 0x876F303B EQ PUSH2 0x51C JUMPI DUP1 PUSH4 0x87EC6817 EQ PUSH2 0x524 JUMPI DUP1 PUSH4 0x893D20E8 EQ PUSH2 0x537 JUMPI DUP1 PUSH4 0x8D928AF8 EQ PUSH2 0x53F JUMPI DUP1 PUSH4 0x95D89B41 EQ PUSH2 0x547 JUMPI PUSH2 0x2D6 JUMP JUMPDEST DUP1 PUSH4 0x76E54A46 EQ PUSH2 0x4AA JUMPI DUP1 PUSH4 0x7BE219A2 EQ PUSH2 0x4BD JUMPI DUP1 PUSH4 0x7ECEBE00 EQ PUSH2 0x4D3 JUMPI DUP1 PUSH4 0x8002DF18 EQ PUSH2 0x4E6 JUMPI DUP1 PUSH4 0x828A7C34 EQ PUSH2 0x4F9 JUMPI DUP1 PUSH4 0x8456CB59 EQ PUSH2 0x501 JUMPI PUSH2 0x2D6 JUMP JUMPDEST DUP1 PUSH4 0x3AEAE0D3 GT PUSH2 0x241 JUMPI DUP1 PUSH4 0x623A2E75 GT PUSH2 0x1FA JUMPI DUP1 PUSH4 0x6D785A87 GT PUSH2 0x1D4 JUMPI DUP1 PUSH4 0x6D785A87 EQ PUSH2 0x458 JUMPI DUP1 PUSH4 0x702EC091 EQ PUSH2 0x460 JUMPI DUP1 PUSH4 0x70A08231 EQ PUSH2 0x476 JUMPI DUP1 PUSH4 0x74F3B009 EQ PUSH2 0x489 JUMPI PUSH2 0x2D6 JUMP JUMPDEST DUP1 PUSH4 0x623A2E75 EQ PUSH2 0x440 JUMPI DUP1 PUSH4 0x62CED092 EQ PUSH2 0x448 JUMPI DUP1 PUSH4 0x679AEFCE EQ PUSH2 0x450 JUMPI PUSH2 0x2D6 JUMP JUMPDEST DUP1 PUSH4 0x3AEAE0D3 EQ PUSH2 0x3CB JUMPI DUP1 PUSH4 0x3F4BA83A EQ PUSH2 0x3E0 JUMPI DUP1 PUSH4 0x44BBDB55 EQ PUSH2 0x3E8 JUMPI DUP1 PUSH4 0x4A6B0B15 EQ PUSH2 0x3FD JUMPI DUP1 PUSH4 0x55C67628 EQ PUSH2 0x417 JUMPI DUP1 PUSH4 0x6028BFD4 EQ PUSH2 0x41F JUMPI PUSH2 0x2D6 JUMP JUMPDEST DUP1 PUSH4 0x23B872DD GT PUSH2 0x293 JUMPI DUP1 PUSH4 0x23B872DD EQ PUSH2 0x36D JUMPI DUP1 PUSH4 0x313CE567 EQ PUSH2 0x380 JUMPI DUP1 PUSH4 0x3644E515 EQ PUSH2 0x395 JUMPI DUP1 PUSH4 0x38E9922E EQ PUSH2 0x39D JUMPI DUP1 PUSH4 0x38FFF2D0 EQ PUSH2 0x3B0 JUMPI DUP1 PUSH4 0x39509351 EQ PUSH2 0x3B8 JUMPI PUSH2 0x2D6 JUMP JUMPDEST DUP1 PUSH4 0x6FDDE03 EQ PUSH2 0x2DB JUMPI DUP1 PUSH4 0x95EA7B3 EQ PUSH2 0x2F9 JUMPI DUP1 PUSH4 0xE608B30 EQ PUSH2 0x319 JUMPI DUP1 PUSH4 0x16C38B3C EQ PUSH2 0x32E JUMPI DUP1 PUSH4 0x18160DDD EQ PUSH2 0x341 JUMPI DUP1 PUSH4 0x1C0DE051 EQ PUSH2 0x356 JUMPI JUMPDEST PUSH1 0x0 DUP1 REVERT JUMPDEST PUSH2 0x2E3 PUSH2 0x616 JUMP JUMPDEST PUSH1 0x40 MLOAD PUSH2 0x2F0 SWAP2 SWAP1 PUSH2 0x4A36 JUMP JUMPDEST PUSH1 0x40 MLOAD DUP1 SWAP2 SUB SWAP1 RETURN JUMPDEST PUSH2 0x30C PUSH2 0x307 CALLDATASIZE PUSH1 0x4 PUSH2 0x442D JUMP JUMPDEST PUSH2 0x6AC JUMP JUMPDEST PUSH1 0x40 MLOAD PUSH2 0x2F0 SWAP2 SWAP1 PUSH2 0x49C9 JUMP JUMPDEST PUSH2 0x32C PUSH2 0x327 CALLDATASIZE PUSH1 0x4 PUSH2 0x4308 JUMP JUMPDEST PUSH2 0x6C3 JUMP JUMPDEST STOP JUMPDEST PUSH2 0x32C PUSH2 0x33C CALLDATASIZE PUSH1 0x4 PUSH2 0x4458 JUMP JUMPDEST PUSH2 0x774 JUMP JUMPDEST PUSH2 0x349 PUSH2 0x788 JUMP JUMPDEST PUSH1 0x40 MLOAD PUSH2 0x2F0 SWAP2 SWAP1 PUSH2 0x49EC JUMP JUMPDEST PUSH2 0x35E PUSH2 0x78E JUMP JUMPDEST PUSH1 0x40 MLOAD PUSH2 0x2F0 SWAP4 SWAP3 SWAP2 SWAP1 PUSH2 0x49D4 JUMP JUMPDEST PUSH2 0x30C PUSH2 0x37B CALLDATASIZE PUSH1 0x4 PUSH2 0x4378 JUMP JUMPDEST PUSH2 0x7B7 JUMP JUMPDEST PUSH2 0x388 PUSH2 0x82D JUMP JUMPDEST PUSH1 0x40 MLOAD PUSH2 0x2F0 SWAP2 SWAP1 PUSH2 0x4BA5 JUMP JUMPDEST PUSH2 0x349 PUSH2 0x836 JUMP JUMPDEST PUSH2 0x32C PUSH2 0x3AB CALLDATASIZE PUSH1 0x4 PUSH2 0x473F JUMP JUMPDEST PUSH2 0x845 JUMP JUMPDEST PUSH2 0x349 PUSH2 0x85E JUMP JUMPDEST PUSH2 0x30C PUSH2 0x3C6 CALLDATASIZE PUSH1 0x4 PUSH2 0x442D JUMP JUMPDEST PUSH2 0x882 JUMP JUMPDEST PUSH2 0x3D3 PUSH2 0x8BD JUMP JUMPDEST PUSH1 0x40 MLOAD PUSH2 0x2F0 SWAP2 SWAP1 PUSH2 0x4A89 JUMP JUMPDEST PUSH2 0x32C PUSH2 0x908 JUMP JUMPDEST PUSH2 0x3F0 PUSH2 0x9FD JUMP JUMPDEST PUSH1 0x40 MLOAD PUSH2 0x2F0 SWAP2 SWAP1 PUSH2 0x488D JUMP JUMPDEST PUSH2 0x405 PUSH2 0xA0C JUMP JUMPDEST PUSH1 0x40 MLOAD PUSH2 0x2F0 SWAP7 SWAP6 SWAP5 SWAP4 SWAP3 SWAP2 SWAP1 PUSH2 0x4A0C JUMP JUMPDEST PUSH2 0x349 PUSH2 0xA67 JUMP JUMPDEST PUSH2 0x432 PUSH2 0x42D CALLDATASIZE PUSH1 0x4 PUSH2 0x4472 JUMP JUMPDEST PUSH2 0xA74 JUMP JUMPDEST PUSH1 0x40 MLOAD PUSH2 0x2F0 SWAP3 SWAP2 SWAP1 PUSH2 0x4B57 JUMP JUMPDEST PUSH2 0x349 PUSH2 0xAA5 JUMP JUMPDEST PUSH2 0x3F0 PUSH2 0xB01 JUMP JUMPDEST PUSH2 0x349 PUSH2 0xB25 JUMP JUMPDEST PUSH2 0x3F0 PUSH2 0xB4A JUMP JUMPDEST PUSH2 0x468 PUSH2 0xB59 JUMP JUMPDEST PUSH1 0x40 MLOAD PUSH2 0x2F0 SWAP3 SWAP2 SWAP1 PUSH2 0x4B70 JUMP JUMPDEST PUSH2 0x349 PUSH2 0x484 CALLDATASIZE PUSH1 0x4 PUSH2 0x4308 JUMP JUMPDEST PUSH2 0xCFE JUMP JUMPDEST PUSH2 0x49C PUSH2 0x497 CALLDATASIZE PUSH1 0x4 PUSH2 0x4472 JUMP JUMPDEST PUSH2 0xD1D JUMP JUMPDEST PUSH1 0x40 MLOAD PUSH2 0x2F0 SWAP3 SWAP2 SWAP1 PUSH2 0x48B4 JUMP JUMPDEST PUSH2 0x32C PUSH2 0x4B8 CALLDATASIZE PUSH1 0x4 PUSH2 0x45C9 JUMP JUMPDEST PUSH2 0xDAD JUMP JUMPDEST PUSH2 0x4C5 PUSH2 0xED4 JUMP JUMPDEST PUSH1 0x40 MLOAD PUSH2 0x2F0 SWAP3 SWAP2 SWAP1 PUSH2 0x4AE9 JUMP JUMPDEST PUSH2 0x349 PUSH2 0x4E1 CALLDATASIZE PUSH1 0x4 PUSH2 0x4308 JUMP JUMPDEST PUSH2 0xEF4 JUMP JUMPDEST PUSH2 0x32C PUSH2 0x4F4 CALLDATASIZE PUSH1 0x4 PUSH2 0x4308 JUMP JUMPDEST PUSH2 0xF0F JUMP JUMPDEST PUSH2 0x3F0 PUSH2 0xFF5 JUMP JUMPDEST PUSH2 0x32C PUSH2 0x1019 JUMP JUMPDEST PUSH2 0x349 PUSH2 0x517 CALLDATASIZE PUSH1 0x4 PUSH2 0x457E JUMP JUMPDEST PUSH2 0x10D1 JUMP JUMPDEST PUSH2 0x349 PUSH2 0x112A JUMP JUMPDEST PUSH2 0x432 PUSH2 0x532 CALLDATASIZE PUSH1 0x4 PUSH2 0x4472 JUMP JUMPDEST PUSH2 0x116B JUMP JUMPDEST PUSH2 0x3F0 PUSH2 0x1190 JUMP JUMPDEST PUSH2 0x3F0 PUSH2 0x11B4 JUMP JUMPDEST PUSH2 0x2E3 PUSH2 0x11D8 JUMP JUMPDEST PUSH2 0x349 PUSH2 0x1239 JUMP JUMPDEST PUSH2 0x349 PUSH2 0x1304 JUMP JUMPDEST PUSH2 0x349 PUSH2 0x56D CALLDATASIZE PUSH1 0x4 PUSH2 0x4648 JUMP JUMPDEST PUSH2 0x130A JUMP JUMPDEST PUSH2 0x57A PUSH2 0x16A9 JUMP JUMPDEST PUSH1 0x40 MLOAD PUSH2 0x2F0 SWAP5 SWAP4 SWAP3 SWAP2 SWAP1 PUSH2 0x4B7E JUMP JUMPDEST PUSH2 0x30C PUSH2 0x598 CALLDATASIZE PUSH1 0x4 PUSH2 0x442D JUMP JUMPDEST PUSH2 0x181B JUMP JUMPDEST PUSH2 0x30C PUSH2 0x5AB CALLDATASIZE PUSH1 0x4 PUSH2 0x442D JUMP JUMPDEST PUSH2 0x1859 JUMP JUMPDEST PUSH2 0x3F0 PUSH2 0x1866 JUMP JUMPDEST PUSH2 0x3F0 PUSH2 0x1870 JUMP JUMPDEST PUSH2 0x349 PUSH2 0x187F JUMP JUMPDEST PUSH2 0x32C PUSH2 0x5D6 CALLDATASIZE PUSH1 0x4 PUSH2 0x43B8 JUMP JUMPDEST PUSH2 0x1927 JUMP JUMPDEST PUSH2 0x49C PUSH2 0x5E9 CALLDATASIZE PUSH1 0x4 PUSH2 0x4472 JUMP JUMPDEST PUSH2 0x1A97 JUMP JUMPDEST PUSH2 0x349 PUSH2 0x5FC CALLDATASIZE PUSH1 0x4 PUSH2 0x4340 JUMP JUMPDEST PUSH2 0x1B7C JUMP JUMPDEST PUSH2 0x609 PUSH2 0x1BB9 JUMP JUMPDEST PUSH1 0x40 MLOAD PUSH2 0x2F0 SWAP2 SWAP1 PUSH2 0x48A1 JUMP JUMPDEST PUSH1 0x3 DUP1 SLOAD PUSH1 0x40 DUP1 MLOAD PUSH1 0x20 PUSH1 0x1F PUSH1 0x2 PUSH1 0x0 NOT PUSH2 0x100 PUSH1 0x1 DUP9 AND ISZERO MUL ADD SWAP1 SWAP6 AND SWAP5 SWAP1 SWAP5 DIV SWAP4 DUP5 ADD DUP2 SWAP1 DIV DUP2 MUL DUP3 ADD DUP2 ADD SWAP1 SWAP3 MSTORE DUP3 DUP2 MSTORE PUSH1 0x60 SWAP4 SWAP1 SWAP3 SWAP1 SWAP2 DUP4 ADD DUP3 DUP3 DUP1 ISZERO PUSH2 0x6A2 JUMPI DUP1 PUSH1 0x1F LT PUSH2 0x677 JUMPI PUSH2 0x100 DUP1 DUP4 SLOAD DIV MUL DUP4 MSTORE SWAP2 PUSH1 0x20 ADD SWAP2 PUSH2 0x6A2 JUMP JUMPDEST DUP3 ADD SWAP2 SWAP1 PUSH1 0x0 MSTORE PUSH1 0x20 PUSH1 0x0 KECCAK256 SWAP1 JUMPDEST DUP2 SLOAD DUP2 MSTORE SWAP1 PUSH1 0x1 ADD SWAP1 PUSH1 0x20 ADD DUP1 DUP4 GT PUSH2 0x685 JUMPI DUP3 SWAP1 SUB PUSH1 0x1F AND DUP3 ADD SWAP2 JUMPDEST POP POP POP POP POP SWAP1 POP SWAP1 JUMP JUMPDEST PUSH1 0x0 PUSH2 0x6B9 CALLER DUP5 DUP5 PUSH2 0x1D4D JUMP JUMPDEST POP PUSH1 0x1 JUMPDEST SWAP3 SWAP2 POP POP JUMP JUMPDEST PUSH1 0xB SLOAD PUSH1 0x40 DUP1 MLOAD DUP1 DUP3 ADD SWAP1 SWAP2 MSTORE PUSH1 0xE DUP2 MSTORE PUSH14 0x1B9BDD08185D5D1A1BDC9A5E9959 PUSH1 0x92 SHL PUSH1 0x20 DUP3 ADD MSTORE SWAP1 PUSH1 0x1 PUSH1 0x1 PUSH1 0xA0 SHL SUB AND CALLER EQ PUSH2 0x71D JUMPI PUSH1 0x40 MLOAD PUSH3 0x461BCD PUSH1 0xE5 SHL DUP2 MSTORE PUSH1 0x4 ADD PUSH2 0x714 SWAP2 SWAP1 PUSH2 0x4A36 JUMP JUMPDEST PUSH1 0x40 MLOAD DUP1 SWAP2 SUB SWAP1 REVERT JUMPDEST POP PUSH1 0xB DUP1 SLOAD PUSH1 0x1 PUSH1 0x1 PUSH1 0xA0 SHL SUB NOT AND PUSH1 0x1 PUSH1 0x1 PUSH1 0xA0 SHL SUB DUP4 AND OR SWAP1 SSTORE PUSH1 0x40 MLOAD PUSH32 0xB8FD9AFC34C38FCD13B9A3B7646482EB1FDDCEFB40AF2C70609972816EBA3208 SWAP1 PUSH2 0x769 SWAP1 DUP4 SWAP1 PUSH2 0x488D JUMP JUMPDEST PUSH1 0x40 MLOAD DUP1 SWAP2 SUB SWAP1 LOG1 POP JUMP JUMPDEST PUSH2 0x77C PUSH2 0x1DAF JUMP JUMPDEST PUSH2 0x785 DUP2 PUSH2 0x1DDD JUMP JUMPDEST POP JUMP JUMPDEST PUSH1 0x2 SLOAD SWAP1 JUMP JUMPDEST PUSH1 0x0 DUP1 PUSH1 0x0 PUSH2 0x79B PUSH2 0x1E59 JUMP JUMPDEST ISZERO SWAP3 POP PUSH2 0x7A6 PUSH2 0x1E76 JUMP JUMPDEST SWAP2 POP PUSH2 0x7B0 PUSH2 0x1E9A JUMP JUMPDEST SWAP1 POP SWAP1 SWAP2 SWAP3 JUMP JUMPDEST PUSH1 0x0 DUP1 PUSH2 0x7C4 DUP6 CALLER PUSH2 0x1B7C JUMP JUMPDEST SWAP1 POP PUSH2 0x7E8 CALLER PUSH1 0x1 PUSH1 0x1 PUSH1 0xA0 SHL SUB DUP8 AND EQ DUP1 PUSH2 0x7E0 JUMPI POP DUP4 DUP3 LT ISZERO JUMPDEST PUSH2 0x19E PUSH2 0x1EBE JUMP JUMPDEST PUSH2 0x7F3 DUP6 DUP6 DUP6 PUSH2 0x1ECC JUMP JUMPDEST CALLER PUSH1 0x1 PUSH1 0x1 PUSH1 0xA0 SHL SUB DUP7 AND EQ DUP1 ISZERO SWAP1 PUSH2 0x80E JUMPI POP PUSH1 0x0 NOT DUP2 EQ ISZERO JUMPDEST ISZERO PUSH2 0x820 JUMPI PUSH2 0x820 DUP6 CALLER DUP6 DUP5 SUB PUSH2 0x1D4D JUMP JUMPDEST PUSH1 0x1 SWAP2 POP POP JUMPDEST SWAP4 SWAP3 POP POP POP JUMP JUMPDEST PUSH1 0x5 SLOAD PUSH1 0xFF AND SWAP1 JUMP JUMPDEST PUSH1 0x0 PUSH2 0x840 PUSH2 0x1FB4 JUMP JUMPDEST SWAP1 POP SWAP1 JUMP JUMPDEST PUSH2 0x84D PUSH2 0x1DAF JUMP JUMPDEST PUSH2 0x855 PUSH2 0x2072 JUMP JUMPDEST PUSH2 0x785 DUP2 PUSH2 0x2087 JUMP JUMPDEST PUSH32 0x0 SWAP1 JUMP JUMPDEST CALLER PUSH1 0x0 DUP2 DUP2 MSTORE PUSH1 0x1 PUSH1 0x20 SWAP1 DUP2 MSTORE PUSH1 0x40 DUP1 DUP4 KECCAK256 PUSH1 0x1 PUSH1 0x1 PUSH1 0xA0 SHL SUB DUP8 AND DUP5 MSTORE SWAP1 SWAP2 MSTORE DUP2 KECCAK256 SLOAD SWAP1 SWAP2 PUSH2 0x6B9 SWAP2 DUP6 SWAP1 PUSH2 0x8B8 SWAP1 DUP7 PUSH2 0x20F0 JUMP JUMPDEST PUSH2 0x1D4D JUMP JUMPDEST PUSH2 0x8C5 PUSH2 0x41C7 JUMP JUMPDEST POP PUSH1 0x40 DUP1 MLOAD PUSH1 0x60 DUP2 ADD DUP3 MSTORE PUSH1 0xA SLOAD PUSH1 0xFF DUP2 AND ISZERO ISZERO DUP3 MSTORE PUSH2 0x100 DUP2 DIV PUSH1 0x1 PUSH1 0x1 PUSH1 0x78 SHL SUB AND PUSH1 0x20 DUP4 ADD MSTORE PUSH1 0x1 PUSH1 0x80 SHL SWAP1 DIV PUSH1 0x1 PUSH1 0x1 PUSH1 0x80 SHL SUB AND SWAP2 DUP2 ADD SWAP2 SWAP1 SWAP2 MSTORE SWAP1 JUMP JUMPDEST PUSH1 0xC SLOAD PUSH1 0x40 DUP1 MLOAD DUP1 DUP3 ADD SWAP1 SWAP2 MSTORE PUSH1 0x11 DUP2 MSTORE PUSH17 0x3737BA103830BAB9B29036B0B730B3B2B9 PUSH1 0x79 SHL PUSH1 0x20 DUP3 ADD MSTORE SWAP1 PUSH1 0x1 PUSH1 0x1 PUSH1 0xA0 SHL SUB AND CALLER EQ PUSH2 0x9C7 JUMPI PUSH1 0x40 MLOAD PUSH3 0x461BCD PUSH1 0xE5 SHL DUP2 MSTORE PUSH1 0x4 ADD DUP1 DUP1 PUSH1 0x20 ADD DUP3 DUP2 SUB DUP3 MSTORE DUP4 DUP2 DUP2 MLOAD DUP2 MSTORE PUSH1 0x20 ADD SWAP2 POP DUP1 MLOAD SWAP1 PUSH1 0x20 ADD SWAP1 DUP1 DUP4 DUP4 PUSH1 0x0 JUMPDEST DUP4 DUP2 LT ISZERO PUSH2 0x98C JUMPI DUP2 DUP2 ADD MLOAD DUP4 DUP3 ADD MSTORE PUSH1 0x20 ADD PUSH2 0x974 JUMP JUMPDEST POP POP POP POP SWAP1 POP SWAP1 DUP2 ADD SWAP1 PUSH1 0x1F AND DUP1 ISZERO PUSH2 0x9B9 JUMPI DUP1 DUP3 SUB DUP1 MLOAD PUSH1 0x1 DUP4 PUSH1 0x20 SUB PUSH2 0x100 EXP SUB NOT AND DUP2 MSTORE PUSH1 0x20 ADD SWAP2 POP JUMPDEST POP SWAP3 POP POP POP PUSH1 0x40 MLOAD DUP1 SWAP2 SUB SWAP1 REVERT JUMPDEST POP PUSH2 0x9D2 PUSH1 0x0 PUSH2 0x77C JUMP JUMPDEST PUSH1 0x40 MLOAD PUSH32 0x215385C8BFC731925EC8068D7BAA50F6B6F34417CC7804F7273DC2C0B3DB2790 SWAP1 PUSH1 0x0 SWAP1 LOG1 JUMP JUMPDEST PUSH1 0xD SLOAD PUSH1 0x1 PUSH1 0x1 PUSH1 0xA0 SHL SUB AND DUP2 JUMP JUMPDEST PUSH1 0x0 DUP1 PUSH1 0x0 DUP1 PUSH1 0x0 DUP1 PUSH1 0x0 PUSH1 0x8 SLOAD SWAP1 POP PUSH2 0xA25 DUP2 PUSH2 0x2102 JUMP JUMPDEST SWAP7 POP PUSH2 0xA30 DUP2 PUSH2 0x210E JUMP JUMPDEST SWAP6 POP PUSH2 0xA3B DUP2 PUSH2 0x211B JUMP JUMPDEST SWAP5 POP PUSH2 0xA46 DUP2 PUSH2 0x2128 JUMP JUMPDEST SWAP4 POP PUSH2 0xA51 DUP2 PUSH2 0x2135 JUMP JUMPDEST SWAP3 POP PUSH2 0xA5C DUP2 PUSH2 0x2142 JUMP JUMPDEST SWAP2 POP POP SWAP1 SWAP2 SWAP3 SWAP4 SWAP5 SWAP6 JUMP JUMPDEST PUSH1 0x0 PUSH2 0x840 PUSH1 0x8 SLOAD PUSH2 0x2142 JUMP JUMPDEST PUSH1 0x0 PUSH1 0x60 PUSH2 0xA84 DUP7 MLOAD PUSH1 0x2 PUSH2 0x214F JUMP JUMPDEST PUSH2 0xA99 DUP10 DUP10 DUP10 DUP10 DUP10 DUP10 DUP10 PUSH2 0x215C PUSH2 0x22CA PUSH2 0x2348 JUMP JUMPDEST SWAP8 POP SWAP8 SWAP6 POP POP POP POP POP POP JUMP JUMPDEST PUSH1 0x0 DUP1 PUSH2 0xAB0 PUSH2 0x187F JUMP JUMPDEST SWAP1 POP PUSH1 0x0 PUSH2 0xABC PUSH2 0x788 JUMP JUMPDEST SWAP1 POP PUSH1 0x0 DUP1 PUSH2 0xACD PUSH1 0x9 SLOAD DUP6 PUSH2 0x245B JUMP JUMPDEST POP SWAP2 SWAP4 POP SWAP2 POP PUSH1 0x0 SWAP1 POP PUSH2 0xAEB DUP3 PUSH2 0xAE5 DUP7 DUP7 PUSH2 0x24C4 JUMP JUMPDEST SWAP1 PUSH2 0x24C4 JUMP JUMPDEST SWAP1 POP PUSH2 0xAF7 DUP6 DUP3 PUSH2 0x24DC JUMP JUMPDEST SWAP6 POP POP POP POP POP POP SWAP1 JUMP JUMPDEST PUSH32 0x0 DUP2 JUMP JUMPDEST PUSH1 0x0 PUSH2 0x840 PUSH2 0xB32 PUSH2 0x788 JUMP JUMPDEST PUSH2 0xB44 PUSH2 0xB3D PUSH2 0x187F JUMP JUMPDEST PUSH1 0x2 PUSH2 0x2536 JUMP JUMPDEST SWAP1 PUSH2 0x24DC JUMP JUMPDEST PUSH1 0xB SLOAD PUSH1 0x1 PUSH1 0x1 PUSH1 0xA0 SHL SUB AND DUP2 JUMP JUMPDEST PUSH1 0x0 DUP1 PUSH32 0x0 PUSH1 0x1 PUSH1 0x1 PUSH1 0xA0 SHL SUB AND PUSH2 0xB98 JUMPI PUSH8 0xDE0B6B3A7640000 PUSH2 0xC29 JUMP JUMPDEST PUSH32 0x0 PUSH1 0x1 PUSH1 0x1 PUSH1 0xA0 SHL SUB AND PUSH4 0x679AEFCE PUSH1 0x40 MLOAD DUP2 PUSH4 0xFFFFFFFF AND PUSH1 0xE0 SHL DUP2 MSTORE PUSH1 0x4 ADD PUSH1 0x20 PUSH1 0x40 MLOAD DUP1 DUP4 SUB DUP2 DUP7 DUP1 EXTCODESIZE ISZERO DUP1 ISZERO PUSH2 0xBF1 JUMPI PUSH1 0x0 DUP1 REVERT JUMPDEST POP GAS STATICCALL ISZERO DUP1 ISZERO PUSH2 0xC05 JUMPI RETURNDATASIZE PUSH1 0x0 DUP1 RETURNDATACOPY RETURNDATASIZE PUSH1 0x0 REVERT JUMPDEST POP POP POP POP PUSH1 0x40 MLOAD RETURNDATASIZE PUSH1 0x1F NOT PUSH1 0x1F DUP3 ADD AND DUP3 ADD DUP1 PUSH1 0x40 MSTORE POP DUP2 ADD SWAP1 PUSH2 0xC29 SWAP2 SWAP1 PUSH2 0x4757 JUMP JUMPDEST SWAP2 POP PUSH32 0x0 PUSH1 0x1 PUSH1 0x1 PUSH1 0xA0 SHL SUB AND PUSH2 0xC67 JUMPI PUSH8 0xDE0B6B3A7640000 PUSH2 0xCF8 JUMP JUMPDEST PUSH32 0x0 PUSH1 0x1 PUSH1 0x1 PUSH1 0xA0 SHL SUB AND PUSH4 0x679AEFCE PUSH1 0x40 MLOAD DUP2 PUSH4 0xFFFFFFFF AND PUSH1 0xE0 SHL DUP2 MSTORE PUSH1 0x4 ADD PUSH1 0x20 PUSH1 0x40 MLOAD DUP1 DUP4 SUB DUP2 DUP7 DUP1 EXTCODESIZE ISZERO DUP1 ISZERO PUSH2 0xCC0 JUMPI PUSH1 0x0 DUP1 REVERT JUMPDEST POP GAS STATICCALL ISZERO DUP1 ISZERO PUSH2 0xCD4 JUMPI RETURNDATASIZE PUSH1 0x0 DUP1 RETURNDATACOPY RETURNDATASIZE PUSH1 0x0 REVERT JUMPDEST POP POP POP POP PUSH1 0x40 MLOAD RETURNDATASIZE PUSH1 0x1F NOT PUSH1 0x1F DUP3 ADD AND DUP3 ADD DUP1 PUSH1 0x40 MSTORE POP DUP2 ADD SWAP1 PUSH2 0xCF8 SWAP2 SWAP1 PUSH2 0x4757 JUMP JUMPDEST SWAP1 POP SWAP1 SWAP2 JUMP JUMPDEST PUSH1 0x1 PUSH1 0x1 PUSH1 0xA0 SHL SUB DUP2 AND PUSH1 0x0 SWAP1 DUP2 MSTORE PUSH1 0x20 DUP2 SWAP1 MSTORE PUSH1 0x40 SWAP1 KECCAK256 SLOAD JUMPDEST SWAP2 SWAP1 POP JUMP JUMPDEST PUSH1 0x60 DUP1 DUP9 PUSH2 0xD47 PUSH2 0xD2C PUSH2 0x11B4 JUMP JUMPDEST PUSH1 0x1 PUSH1 0x1 PUSH1 0xA0 SHL SUB AND CALLER PUSH1 0x1 PUSH1 0x1 PUSH1 0xA0 SHL SUB AND EQ PUSH1 0xCD PUSH2 0x1EBE JUMP JUMPDEST PUSH2 0xD5C PUSH2 0xD52 PUSH2 0x85E JUMP JUMPDEST DUP3 EQ PUSH2 0x1F4 PUSH2 0x1EBE JUMP JUMPDEST PUSH2 0xD65 DUP8 PUSH2 0x255A JUMP JUMPDEST PUSH1 0x0 DUP1 PUSH1 0x0 PUSH2 0xD79 DUP14 DUP14 DUP14 DUP14 DUP14 DUP14 DUP14 PUSH2 0x215C JUMP JUMPDEST SWAP3 POP SWAP3 POP SWAP3 POP PUSH2 0xD89 DUP13 DUP5 PUSH2 0x25BC JUMP JUMPDEST PUSH2 0xD92 DUP3 PUSH2 0x22CA JUMP JUMPDEST PUSH2 0xD9B DUP2 PUSH2 0x22CA JUMP JUMPDEST SWAP1 SWAP13 SWAP1 SWAP12 POP SWAP10 POP POP POP POP POP POP POP POP POP POP JUMP JUMPDEST PUSH1 0xB SLOAD PUSH1 0x40 DUP1 MLOAD DUP1 DUP3 ADD SWAP1 SWAP2 MSTORE PUSH1 0xE DUP2 MSTORE PUSH14 0x1B9BDD08185D5D1A1BDC9A5E9959 PUSH1 0x92 SHL PUSH1 0x20 DUP3 ADD MSTORE SWAP1 PUSH1 0x1 PUSH1 0x1 PUSH1 0xA0 SHL SUB AND CALLER EQ PUSH2 0xDFE JUMPI PUSH1 0x40 MLOAD PUSH3 0x461BCD PUSH1 0xE5 SHL DUP2 MSTORE PUSH1 0x4 ADD PUSH2 0x714 SWAP2 SWAP1 PUSH2 0x4A36 JUMP JUMPDEST POP PUSH1 0xA SLOAD PUSH1 0x40 DUP1 MLOAD DUP1 DUP3 ADD SWAP1 SWAP2 MSTORE PUSH1 0x10 DUP2 MSTORE PUSH16 0x1C1BDBDB081A5CC81D5B98D85C1C1959 PUSH1 0x82 SHL PUSH1 0x20 DUP3 ADD MSTORE SWAP1 PUSH1 0xFF AND PUSH2 0xE4A JUMPI PUSH1 0x40 MLOAD PUSH3 0x461BCD PUSH1 0xE5 SHL DUP2 MSTORE PUSH1 0x4 ADD PUSH2 0x714 SWAP2 SWAP1 PUSH2 0x4A36 JUMP JUMPDEST POP DUP1 MLOAD PUSH1 0xA DUP1 SLOAD PUSH1 0x20 DUP5 ADD MLOAD PUSH1 0x40 DUP1 DUP7 ADD MLOAD PUSH1 0xFF NOT SWAP1 SWAP4 AND SWAP5 ISZERO ISZERO SWAP5 SWAP1 SWAP5 OR PUSH16 0xFFFFFFFFFFFFFFFFFFFFFFFFFFFFFF00 NOT AND PUSH2 0x100 PUSH1 0x1 PUSH1 0x1 PUSH1 0x78 SHL SUB SWAP1 SWAP3 AND SWAP2 SWAP1 SWAP2 MUL OR PUSH1 0x1 PUSH1 0x1 PUSH1 0x80 SHL SUB SWAP1 DUP2 AND PUSH1 0x1 PUSH1 0x80 SHL SWAP2 SWAP1 SWAP3 AND MUL OR DUP2 SSTORE SWAP1 MLOAD PUSH32 0x2ABF5970D7BC1A2B36EAAE52DD2CC353EDB0337C7284EF8A01973081B4E04424 SWAP2 PUSH2 0x769 SWAP2 PUSH2 0x4ABE JUMP JUMPDEST PUSH2 0xEDC PUSH2 0x41E7 JUMP JUMPDEST PUSH2 0xEE4 PUSH2 0x4216 JUMP JUMPDEST PUSH2 0xEEC PUSH2 0x25C6 JUMP JUMPDEST SWAP2 POP SWAP2 POP SWAP1 SWAP2 JUMP JUMPDEST PUSH1 0x1 PUSH1 0x1 PUSH1 0xA0 SHL SUB AND PUSH1 0x0 SWAP1 DUP2 MSTORE PUSH1 0x6 PUSH1 0x20 MSTORE PUSH1 0x40 SWAP1 KECCAK256 SLOAD SWAP1 JUMP JUMPDEST PUSH1 0xC SLOAD PUSH1 0x40 DUP1 MLOAD DUP1 DUP3 ADD SWAP1 SWAP2 MSTORE PUSH1 0x11 DUP2 MSTORE PUSH17 0x3737BA103830BAB9B29036B0B730B3B2B9 PUSH1 0x79 SHL PUSH1 0x20 DUP3 ADD MSTORE PUSH1 0x1 PUSH1 0x1 PUSH1 0xA0 SHL SUB SWAP1 SWAP2 AND SWAP1 CALLER DUP3 EQ PUSH2 0xF94 JUMPI PUSH1 0x40 MLOAD PUSH3 0x461BCD PUSH1 0xE5 SHL DUP2 MSTORE PUSH1 0x20 PUSH1 0x4 DUP3 ADD DUP2 DUP2 MSTORE DUP4 MLOAD PUSH1 0x24 DUP5 ADD MSTORE DUP4 MLOAD SWAP1 SWAP3 DUP4 SWAP3 PUSH1 0x44 SWAP1 SWAP2 ADD SWAP2 SWAP1 DUP6 ADD SWAP1 DUP1 DUP4 DUP4 PUSH1 0x0 DUP4 ISZERO PUSH2 0x98C JUMPI DUP2 DUP2 ADD MLOAD DUP4 DUP3 ADD MSTORE PUSH1 0x20 ADD PUSH2 0x974 JUMP JUMPDEST POP PUSH1 0xC DUP1 SLOAD PUSH1 0x1 PUSH1 0x1 PUSH1 0xA0 SHL SUB NOT AND PUSH1 0x1 PUSH1 0x1 PUSH1 0xA0 SHL SUB DUP5 DUP2 AND SWAP2 DUP3 OR SWAP1 SWAP3 SSTORE PUSH1 0x40 DUP1 MLOAD SWAP3 DUP5 AND DUP4 MSTORE PUSH1 0x20 DUP4 ADD SWAP2 SWAP1 SWAP2 MSTORE DUP1 MLOAD PUSH32 0x1FFCCD1FA96F4FB3415DF8048A0FD107344E262D2D246C85105E2A3F8F3E8198 SWAP3 DUP2 SWAP1 SUB SWAP1 SWAP2 ADD SWAP1 LOG1 POP POP JUMP JUMPDEST PUSH32 0x0 DUP2 JUMP JUMPDEST PUSH1 0xC SLOAD PUSH1 0x40 DUP1 MLOAD DUP1 DUP3 ADD SWAP1 SWAP2 MSTORE PUSH1 0x11 DUP2 MSTORE PUSH17 0x3737BA103830BAB9B29036B0B730B3B2B9 PUSH1 0x79 SHL PUSH1 0x20 DUP3 ADD MSTORE SWAP1 PUSH1 0x1 PUSH1 0x1 PUSH1 0xA0 SHL SUB AND CALLER EQ PUSH2 0x109B JUMPI PUSH1 0x40 MLOAD PUSH3 0x461BCD PUSH1 0xE5 SHL DUP2 MSTORE PUSH1 0x20 PUSH1 0x4 DUP3 ADD DUP2 DUP2 MSTORE DUP4 MLOAD PUSH1 0x24 DUP5 ADD MSTORE DUP4 MLOAD SWAP1 SWAP3 DUP4 SWAP3 PUSH1 0x44 SWAP1 SWAP2 ADD SWAP2 SWAP1 DUP6 ADD SWAP1 DUP1 DUP4 DUP4 PUSH1 0x0 DUP4 ISZERO PUSH2 0x98C JUMPI DUP2 DUP2 ADD MLOAD DUP4 DUP3 ADD MSTORE PUSH1 0x20 ADD PUSH2 0x974 JUMP JUMPDEST POP PUSH2 0x10A6 PUSH1 0x1 PUSH2 0x77C JUMP JUMPDEST PUSH1 0x40 MLOAD PUSH32 0x681EACE576127D0553B224436A09801FB47D042942CBFF59D7D4FF04D8FA03D7 SWAP1 PUSH1 0x0 SWAP1 LOG1 JUMP JUMPDEST PUSH1 0x40 DUP1 MLOAD PUSH32 0x0 PUSH1 0x20 DUP1 DUP4 ADD SWAP2 SWAP1 SWAP2 MSTORE PUSH1 0x1 PUSH1 0x1 PUSH1 0xE0 SHL SUB NOT DUP5 AND DUP3 DUP5 ADD MSTORE DUP3 MLOAD PUSH1 0x24 DUP2 DUP5 SUB ADD DUP2 MSTORE PUSH1 0x44 SWAP1 SWAP3 ADD SWAP1 SWAP3 MSTORE DUP1 MLOAD SWAP2 ADD KECCAK256 SWAP2 SWAP1 POP JUMP JUMPDEST PUSH1 0x0 DUP1 PUSH2 0x1135 PUSH2 0x788 JUMP JUMPDEST SWAP1 POP PUSH1 0x0 DUP1 PUSH2 0x114D PUSH1 0x9 SLOAD PUSH2 0x1148 PUSH2 0x187F JUMP JUMPDEST PUSH2 0x245B JUMP JUMPDEST POP SWAP2 SWAP4 POP SWAP2 POP PUSH2 0x1163 SWAP1 POP DUP2 PUSH2 0xAE5 DUP6 DUP6 PUSH2 0x24C4 JUMP JUMPDEST SWAP4 POP POP POP POP SWAP1 JUMP JUMPDEST PUSH1 0x0 PUSH1 0x60 PUSH2 0x117B DUP7 MLOAD PUSH1 0x2 PUSH2 0x214F JUMP JUMPDEST PUSH2 0xA99 DUP10 DUP10 DUP10 DUP10 DUP10 DUP10 DUP10 PUSH2 0x27FC PUSH2 0x296B PUSH2 0x2348 JUMP JUMPDEST PUSH32 0x0 SWAP1 JUMP JUMPDEST PUSH32 0x0 SWAP1 JUMP JUMPDEST PUSH1 0x4 DUP1 SLOAD PUSH1 0x40 DUP1 MLOAD PUSH1 0x20 PUSH1 0x1F PUSH1 0x2 PUSH1 0x0 NOT PUSH2 0x100 PUSH1 0x1 DUP9 AND ISZERO MUL ADD SWAP1 SWAP6 AND SWAP5 SWAP1 SWAP5 DIV SWAP4 DUP5 ADD DUP2 SWAP1 DIV DUP2 MUL DUP3 ADD DUP2 ADD SWAP1 SWAP3 MSTORE DUP3 DUP2 MSTORE PUSH1 0x60 SWAP4 SWAP1 SWAP3 SWAP1 SWAP2 DUP4 ADD DUP3 DUP3 DUP1 ISZERO PUSH2 0x6A2 JUMPI DUP1 PUSH1 0x1F LT PUSH2 0x677 JUMPI PUSH2 0x100 DUP1 DUP4 SLOAD DIV MUL DUP4 MSTORE SWAP2 PUSH1 0x20 ADD SWAP2 PUSH2 0x6A2 JUMP JUMPDEST PUSH1 0x0 DUP1 PUSH2 0x1244 PUSH2 0x29CD JUMP JUMPDEST SWAP1 POP PUSH1 0x0 DUP1 PUSH2 0x1251 PUSH2 0x25C6 JUMP JUMPDEST SWAP2 POP SWAP2 POP PUSH1 0x0 PUSH20 0x0 PUSH4 0xD83CA862 DUP6 DUP6 DUP6 PUSH1 0x40 MLOAD DUP5 PUSH4 0xFFFFFFFF AND PUSH1 0xE0 SHL DUP2 MSTORE PUSH1 0x4 ADD PUSH2 0x1292 SWAP4 SWAP3 SWAP2 SWAP1 PUSH2 0x48D9 JUMP JUMPDEST PUSH1 0x20 PUSH1 0x40 MLOAD DUP1 DUP4 SUB DUP2 DUP7 DUP1 EXTCODESIZE ISZERO DUP1 ISZERO PUSH2 0x12AA JUMPI PUSH1 0x0 DUP1 REVERT JUMPDEST POP GAS DELEGATECALL ISZERO DUP1 ISZERO PUSH2 0x12BE JUMPI RETURNDATASIZE PUSH1 0x0 DUP1 RETURNDATACOPY RETURNDATASIZE PUSH1 0x0 REVERT JUMPDEST POP POP POP POP PUSH1 0x40 MLOAD RETURNDATASIZE PUSH1 0x1F NOT PUSH1 0x1F DUP3 ADD AND DUP3 ADD DUP1 PUSH1 0x40 MSTORE POP DUP2 ADD SWAP1 PUSH2 0x12E2 SWAP2 SWAP1 PUSH2 0x4757 JUMP JUMPDEST SWAP1 POP PUSH2 0x12F0 DUP5 DUP3 DUP6 DUP6 PUSH2 0x2A83 JUMP JUMPDEST SWAP5 POP PUSH2 0x12FB DUP6 PUSH2 0x2B23 JUMP JUMPDEST SWAP5 POP POP POP POP POP SWAP1 JUMP JUMPDEST PUSH1 0x9 SLOAD SWAP1 JUMP JUMPDEST PUSH1 0x0 PUSH2 0x1314 PUSH2 0x2072 JUMP JUMPDEST DUP4 PUSH1 0x80 ADD MLOAD PUSH2 0x1324 PUSH2 0xD2C PUSH2 0x11B4 JUMP JUMPDEST PUSH2 0x132F PUSH2 0xD52 PUSH2 0x85E JUMP JUMPDEST PUSH1 0x0 PUSH32 0x0 PUSH1 0x1 PUSH1 0x1 PUSH1 0xA0 SHL SUB AND DUP7 PUSH1 0x20 ADD MLOAD PUSH1 0x1 PUSH1 0x1 PUSH1 0xA0 SHL SUB AND EQ DUP1 ISZERO PUSH2 0x13AB JUMPI POP PUSH32 0x0 PUSH1 0x1 PUSH1 0x1 PUSH1 0xA0 SHL SUB AND DUP7 PUSH1 0x40 ADD MLOAD PUSH1 0x1 PUSH1 0x1 PUSH1 0xA0 SHL SUB AND EQ JUMPDEST ISZERO PUSH2 0x13B8 JUMPI POP PUSH1 0x1 PUSH2 0x1449 JUMP JUMPDEST PUSH32 0x0 PUSH1 0x1 PUSH1 0x1 PUSH1 0xA0 SHL SUB AND DUP7 PUSH1 0x20 ADD MLOAD PUSH1 0x1 PUSH1 0x1 PUSH1 0xA0 SHL SUB AND EQ DUP1 ISZERO PUSH2 0x1432 JUMPI POP PUSH32 0x0 PUSH1 0x1 PUSH1 0x1 PUSH1 0xA0 SHL SUB AND DUP7 PUSH1 0x40 ADD MLOAD PUSH1 0x1 PUSH1 0x1 PUSH1 0xA0 SHL SUB AND EQ JUMPDEST ISZERO PUSH2 0x143F JUMPI POP PUSH1 0x0 PUSH2 0x1449 JUMP JUMPDEST PUSH2 0x1449 PUSH1 0x79 PUSH2 0x2CC3 JUMP JUMPDEST PUSH1 0x0 PUSH2 0x1454 DUP3 PUSH2 0x2D16 JUMP JUMPDEST SWAP1 POP PUSH1 0x0 PUSH2 0x1462 DUP4 ISZERO PUSH2 0x2D16 JUMP JUMPDEST SWAP1 POP PUSH2 0x146E DUP8 DUP4 PUSH2 0x2E43 JUMP JUMPDEST SWAP7 POP PUSH2 0x147A DUP7 DUP3 PUSH2 0x2E43 JUMP JUMPDEST SWAP6 POP PUSH1 0x0 PUSH2 0x1489 DUP9 DUP9 DUP7 PUSH2 0x2E4F JUMP JUMPDEST SWAP1 POP PUSH1 0x0 DUP1 PUSH2 0x1496 PUSH2 0x25C6 JUMP JUMPDEST SWAP2 POP SWAP2 POP PUSH2 0x14A2 PUSH2 0x425F JUMP JUMPDEST PUSH1 0x0 DUP1 PUSH20 0x0 PUSH4 0x78ACE857 DUP8 DUP8 DUP8 PUSH1 0x40 MLOAD DUP5 PUSH4 0xFFFFFFFF AND PUSH1 0xE0 SHL DUP2 MSTORE PUSH1 0x4 ADD PUSH2 0x14E0 SWAP4 SWAP3 SWAP2 SWAP1 PUSH2 0x48D9 JUMP JUMPDEST PUSH1 0x40 DUP1 MLOAD DUP1 DUP4 SUB DUP2 DUP7 DUP1 EXTCODESIZE ISZERO DUP1 ISZERO PUSH2 0x14F7 JUMPI PUSH1 0x0 DUP1 REVERT JUMPDEST POP GAS DELEGATECALL ISZERO DUP1 ISZERO PUSH2 0x150B JUMPI RETURNDATASIZE PUSH1 0x0 DUP1 RETURNDATACOPY RETURNDATASIZE PUSH1 0x0 REVERT JUMPDEST POP POP POP POP PUSH1 0x40 MLOAD RETURNDATASIZE PUSH1 0x1F NOT PUSH1 0x1F DUP3 ADD AND DUP3 ADD DUP1 PUSH1 0x40 MSTORE POP DUP2 ADD SWAP1 PUSH2 0x152F SWAP2 SWAP1 PUSH2 0x45A6 JUMP JUMPDEST PUSH1 0x40 DUP1 MLOAD DUP1 DUP3 ADD SWAP1 SWAP2 MSTORE PUSH1 0x2 SWAP1 SWAP2 MUL DUP3 ADD DUP2 MSTORE PUSH1 0x20 DUP2 ADD SWAP2 SWAP1 SWAP2 MSTORE SWAP3 POP PUSH1 0x0 SWAP2 POP PUSH2 0x1557 SWAP1 POP JUMP JUMPDEST DUP13 MLOAD PUSH1 0x1 DUP2 GT ISZERO PUSH2 0x1564 JUMPI INVALID JUMPDEST EQ ISZERO PUSH2 0x1610 JUMPI PUSH1 0x0 PUSH2 0x1582 PUSH2 0x1577 PUSH2 0xA67 JUMP JUMPDEST PUSH1 0x60 DUP16 ADD MLOAD SWAP1 PUSH2 0x2EE9 JUMP JUMPDEST SWAP1 POP PUSH2 0x15A4 PUSH2 0x159E DUP3 DUP16 PUSH1 0x60 ADD MLOAD PUSH2 0x2F3E SWAP1 SWAP2 SWAP1 PUSH4 0xFFFFFFFF AND JUMP JUMPDEST DUP9 PUSH2 0x2E43 JUMP JUMPDEST PUSH1 0x60 DUP15 ADD MSTORE PUSH1 0x0 PUSH2 0x15B9 DUP15 DUP8 DUP12 DUP9 DUP9 DUP9 PUSH2 0x2F54 JUMP JUMPDEST SWAP1 POP PUSH32 0x4E1D56F7310A8C32B2267F756B19BA65019B4890068CE114A25009ABE54DE5BA DUP7 DUP5 DUP4 PUSH1 0x40 MLOAD PUSH2 0x15EE SWAP4 SWAP3 SWAP2 SWAP1 PUSH2 0x494B JUMP JUMPDEST PUSH1 0x40 MLOAD DUP1 SWAP2 SUB SWAP1 LOG1 PUSH2 0x1600 DUP2 DUP9 PUSH2 0x2FF7 JUMP JUMPDEST SWAP11 POP POP POP POP POP POP POP POP POP POP PUSH2 0x16A1 JUMP JUMPDEST PUSH2 0x161E DUP13 PUSH1 0x60 ADD MLOAD DUP7 PUSH2 0x2E43 JUMP JUMPDEST PUSH1 0x60 DUP14 ADD MSTORE PUSH1 0x0 PUSH2 0x1633 DUP14 DUP7 DUP11 DUP8 DUP8 DUP8 PUSH2 0x3003 JUMP JUMPDEST SWAP1 POP PUSH32 0x4E1D56F7310A8C32B2267F756B19BA65019B4890068CE114A25009ABE54DE5BA DUP6 DUP4 DUP4 PUSH1 0x40 MLOAD PUSH2 0x1668 SWAP4 SWAP3 SWAP2 SWAP1 PUSH2 0x494B JUMP JUMPDEST PUSH1 0x40 MLOAD DUP1 SWAP2 SUB SWAP1 LOG1 PUSH2 0x167A DUP2 DUP9 PUSH2 0x304B JUMP JUMPDEST SWAP1 POP PUSH2 0x1696 PUSH2 0x168F PUSH2 0x168A PUSH2 0xA67 JUMP JUMPDEST PUSH2 0x3057 JUMP JUMPDEST DUP3 SWAP1 PUSH2 0x307D JUMP JUMPDEST SWAP10 POP POP POP POP POP POP POP POP POP JUMPDEST POP SWAP4 SWAP3 POP POP POP JUMP JUMPDEST PUSH1 0xD SLOAD PUSH1 0x0 SWAP1 DUP2 SWAP1 DUP2 SWAP1 DUP2 SWAP1 PUSH2 0x16D0 SWAP1 PUSH1 0x1 PUSH1 0x1 PUSH1 0xA0 SHL SUB AND ADDRESS PUSH4 0x45434C5 PUSH1 0xE4 SHL PUSH2 0x30E3 JUMP JUMPDEST PUSH1 0xD SLOAD PUSH2 0x16EE SWAP1 PUSH1 0x1 PUSH1 0x1 PUSH1 0xA0 SHL SUB AND ADDRESS PUSH4 0x45434C5 PUSH1 0xE4 SHL PUSH2 0x310A JUMP JUMPDEST PUSH1 0xD SLOAD PUSH1 0x40 MLOAD PUSH4 0x21F8A721 PUSH1 0xE0 SHL DUP2 MSTORE PUSH1 0x1 PUSH1 0x1 PUSH1 0xA0 SHL SUB SWAP1 SWAP2 AND SWAP1 PUSH4 0x21F8A721 SWAP1 PUSH2 0x172E SWAP1 PUSH13 0x4759524F5F5452454153555259 PUSH1 0x98 SHL SWAP1 PUSH1 0x4 ADD PUSH2 0x49EC JUMP JUMPDEST PUSH1 0x20 PUSH1 0x40 MLOAD DUP1 DUP4 SUB DUP2 DUP7 DUP1 EXTCODESIZE ISZERO DUP1 ISZERO PUSH2 0x1746 JUMPI PUSH1 0x0 DUP1 REVERT JUMPDEST POP GAS STATICCALL ISZERO DUP1 ISZERO PUSH2 0x175A JUMPI RETURNDATASIZE PUSH1 0x0 DUP1 RETURNDATACOPY RETURNDATASIZE PUSH1 0x0 REVERT JUMPDEST POP POP POP POP PUSH1 0x40 MLOAD RETURNDATASIZE PUSH1 0x1F NOT PUSH1 0x1F DUP3 ADD AND DUP3 ADD DUP1 PUSH1 0x40 MSTORE POP DUP2 ADD SWAP1 PUSH2 0x177E SWAP2 SWAP1 PUSH2 0x4324 JUMP JUMPDEST PUSH1 0xD SLOAD PUSH1 0x40 MLOAD PUSH4 0x21F8A721 PUSH1 0xE0 SHL DUP2 MSTORE PUSH1 0x1 PUSH1 0x1 PUSH1 0xA0 SHL SUB SWAP1 SWAP2 AND SWAP1 PUSH4 0x21F8A721 SWAP1 PUSH2 0x17BD SWAP1 PUSH12 0x42414C5F5452454153555259 PUSH1 0xA0 SHL SWAP1 PUSH1 0x4 ADD PUSH2 0x49EC JUMP JUMPDEST PUSH1 0x20 PUSH1 0x40 MLOAD DUP1 DUP4 SUB DUP2 DUP7 DUP1 EXTCODESIZE ISZERO DUP1 ISZERO PUSH2 0x17D5 JUMPI PUSH1 0x0 DUP1 REVERT JUMPDEST POP GAS STATICCALL ISZERO DUP1 ISZERO PUSH2 0x17E9 JUMPI RETURNDATASIZE PUSH1 0x0 DUP1 RETURNDATACOPY RETURNDATASIZE PUSH1 0x0 REVERT JUMPDEST POP POP POP POP PUSH1 0x40 MLOAD RETURNDATASIZE PUSH1 0x1F NOT PUSH1 0x1F DUP3 ADD AND DUP3 ADD DUP1 PUSH1 0x40 MSTORE POP DUP2 ADD SWAP1 PUSH2 0x180D SWAP2 SWAP1 PUSH2 0x4324 JUMP JUMPDEST SWAP4 POP SWAP4 POP SWAP4 POP SWAP4 POP SWAP1 SWAP2 SWAP3 SWAP4 JUMP JUMPDEST PUSH1 0x0 DUP1 PUSH2 0x1828 CALLER DUP6 PUSH2 0x1B7C JUMP JUMPDEST SWAP1 POP DUP1 DUP4 LT PUSH2 0x1842 JUMPI PUSH2 0x183D CALLER DUP6 PUSH1 0x0 PUSH2 0x1D4D JUMP JUMPDEST PUSH2 0x184F JUMP JUMPDEST PUSH2 0x184F CALLER DUP6 DUP6 DUP5 SUB PUSH2 0x1D4D JUMP JUMPDEST POP PUSH1 0x1 SWAP4 SWAP3 POP POP POP JUMP JUMPDEST PUSH1 0x0 PUSH2 0x6B9 CALLER DUP5 DUP5 PUSH2 0x1ECC JUMP JUMPDEST PUSH1 0x0 PUSH2 0x840 PUSH2 0x3138 JUMP JUMPDEST PUSH1 0xC SLOAD PUSH1 0x1 PUSH1 0x1 PUSH1 0xA0 SHL SUB AND DUP2 JUMP JUMPDEST PUSH1 0x0 DUP1 PUSH2 0x188A PUSH2 0x29CD JUMP JUMPDEST SWAP1 POP PUSH1 0x0 DUP1 PUSH2 0x1897 PUSH2 0x25C6 JUMP JUMPDEST PUSH1 0x40 MLOAD PUSH4 0x6C1E5431 PUSH1 0xE1 SHL DUP2 MSTORE SWAP2 SWAP4 POP SWAP2 POP PUSH20 0x0 SWAP1 PUSH4 0xD83CA862 SWAP1 PUSH2 0x18D7 SWAP1 DUP7 SWAP1 DUP7 SWAP1 DUP7 SWAP1 PUSH1 0x4 ADD PUSH2 0x48D9 JUMP JUMPDEST PUSH1 0x20 PUSH1 0x40 MLOAD DUP1 DUP4 SUB DUP2 DUP7 DUP1 EXTCODESIZE ISZERO DUP1 ISZERO PUSH2 0x18EF JUMPI PUSH1 0x0 DUP1 REVERT JUMPDEST POP GAS DELEGATECALL ISZERO DUP1 ISZERO PUSH2 0x1903 JUMPI RETURNDATASIZE PUSH1 0x0 DUP1 RETURNDATACOPY RETURNDATASIZE PUSH1 0x0 REVERT JUMPDEST POP POP POP POP PUSH1 0x40 MLOAD RETURNDATASIZE PUSH1 0x1F NOT PUSH1 0x1F DUP3 ADD AND DUP3 ADD DUP1 PUSH1 0x40 MSTORE POP DUP2 ADD SWAP1 PUSH2 0x1163 SWAP2 SWAP1 PUSH2 0x4757 JUMP JUMPDEST PUSH2 0x1935 DUP5 TIMESTAMP GT ISZERO PUSH1 0xD1 PUSH2 0x1EBE JUMP JUMPDEST PUSH1 0x1 PUSH1 0x1 PUSH1 0xA0 SHL SUB DUP1 DUP9 AND PUSH1 0x0 DUP2 DUP2 MSTORE PUSH1 0x6 PUSH1 0x20 SWAP1 DUP2 MSTORE PUSH1 0x40 DUP1 DUP4 KECCAK256 SLOAD DUP2 MLOAD PUSH32 0x0 DUP2 DUP6 ADD MSTORE DUP1 DUP4 ADD SWAP6 SWAP1 SWAP6 MSTORE SWAP5 DUP12 AND PUSH1 0x60 DUP6 ADD MSTORE PUSH1 0x80 DUP5 ADD DUP11 SWAP1 MSTORE PUSH1 0xA0 DUP5 ADD DUP6 SWAP1 MSTORE PUSH1 0xC0 DUP1 DUP6 ADD DUP11 SWAP1 MSTORE DUP2 MLOAD DUP1 DUP7 SUB SWAP1 SWAP2 ADD DUP2 MSTORE PUSH1 0xE0 SWAP1 SWAP5 ADD SWAP1 MSTORE DUP3 MLOAD SWAP3 ADD SWAP2 SWAP1 SWAP2 KECCAK256 SWAP1 PUSH2 0x19C1 DUP3 PUSH2 0x31B2 JUMP JUMPDEST SWAP1 POP PUSH1 0x0 PUSH1 0x1 DUP3 DUP9 DUP9 DUP9 PUSH1 0x40 MLOAD PUSH1 0x0 DUP2 MSTORE PUSH1 0x20 ADD PUSH1 0x40 MSTORE PUSH1 0x40 MLOAD DUP1 DUP6 DUP2 MSTORE PUSH1 0x20 ADD DUP5 PUSH1 0xFF AND DUP2 MSTORE PUSH1 0x20 ADD DUP4 DUP2 MSTORE PUSH1 0x20 ADD DUP3 DUP2 MSTORE PUSH1 0x20 ADD SWAP5 POP POP POP POP POP PUSH1 0x20 PUSH1 0x40 MLOAD PUSH1 0x20 DUP2 SUB SWAP1 DUP1 DUP5 SUB SWAP1 DUP6 GAS STATICCALL ISZERO DUP1 ISZERO PUSH2 0x1A1F JUMPI RETURNDATASIZE PUSH1 0x0 DUP1 RETURNDATACOPY RETURNDATASIZE PUSH1 0x0 REVERT JUMPDEST POP POP PUSH1 0x40 MLOAD PUSH1 0x1F NOT ADD MLOAD SWAP2 POP PUSH2 0x1A61 SWAP1 POP PUSH1 0x1 PUSH1 0x1 PUSH1 0xA0 SHL SUB DUP3 AND ISZERO DUP1 ISZERO SWAP1 PUSH2 0x1A59 JUMPI POP DUP12 PUSH1 0x1 PUSH1 0x1 PUSH1 0xA0 SHL SUB AND DUP3 PUSH1 0x1 PUSH1 0x1 PUSH1 0xA0 SHL SUB AND EQ JUMPDEST PUSH2 0x1F8 PUSH2 0x1EBE JUMP JUMPDEST PUSH1 0x1 PUSH1 0x1 PUSH1 0xA0 SHL SUB DUP12 AND PUSH1 0x0 SWAP1 DUP2 MSTORE PUSH1 0x6 PUSH1 0x20 MSTORE PUSH1 0x40 SWAP1 KECCAK256 PUSH1 0x1 DUP6 ADD SWAP1 SSTORE PUSH2 0x1A8A DUP12 DUP12 DUP12 PUSH2 0x1D4D JUMP JUMPDEST POP POP POP POP POP POP POP POP POP POP POP JUMP JUMPDEST PUSH1 0x60 DUP1 DUP9 PUSH2 0x1AA6 PUSH2 0xD2C PUSH2 0x11B4 JUMP JUMPDEST PUSH2 0x1AB1 PUSH2 0xD52 PUSH2 0x85E JUMP JUMPDEST PUSH2 0x1AB9 PUSH2 0x2072 JUMP JUMPDEST PUSH1 0x0 PUSH2 0x1AC3 PUSH2 0x788 JUMP JUMPDEST PUSH2 0x1B33 JUMPI PUSH2 0x1AD3 DUP12 DUP12 DUP12 DUP9 PUSH2 0x31FE JUMP JUMPDEST SWAP5 POP SWAP1 POP PUSH2 0x1AE8 PUSH3 0xF4240 DUP3 LT ISZERO PUSH1 0xCC PUSH2 0x1EBE JUMP JUMPDEST PUSH2 0x1AF6 PUSH1 0x0 PUSH3 0xF4240 PUSH2 0x338E JUMP JUMPDEST PUSH2 0x1B05 DUP10 PUSH3 0xF4240 DUP4 SUB PUSH2 0x338E JUMP JUMPDEST PUSH2 0x1B0E DUP5 PUSH2 0x296B JUMP JUMPDEST PUSH1 0x40 DUP1 MLOAD PUSH1 0x2 DUP1 DUP3 MSTORE PUSH1 0x60 DUP3 ADD DUP4 MSTORE SWAP1 SWAP2 PUSH1 0x20 DUP4 ADD SWAP1 DUP1 CALLDATASIZE DUP4 CALLDATACOPY ADD SWAP1 POP POP SWAP3 POP PUSH2 0x1B6E JUMP JUMPDEST PUSH2 0x1B3C DUP9 PUSH2 0x255A JUMP JUMPDEST PUSH2 0x1B4B DUP12 DUP12 DUP12 DUP12 DUP12 DUP12 DUP12 PUSH2 0x27FC JUMP JUMPDEST SWAP1 SWAP6 POP SWAP4 POP SWAP1 POP PUSH2 0x1B5C DUP10 DUP3 PUSH2 0x338E JUMP JUMPDEST PUSH2 0x1B65 DUP5 PUSH2 0x296B JUMP JUMPDEST PUSH2 0x1B6E DUP4 PUSH2 0x22CA JUMP JUMPDEST POP POP SWAP8 POP SWAP8 SWAP6 POP POP POP POP POP POP JUMP JUMPDEST PUSH1 0x0 PUSH2 0x1B86 PUSH2 0x11B4 JUMP JUMPDEST PUSH1 0x1 PUSH1 0x1 PUSH1 0xA0 SHL SUB AND DUP3 PUSH1 0x1 PUSH1 0x1 PUSH1 0xA0 SHL SUB AND EQ ISZERO PUSH2 0x1BA8 JUMPI POP PUSH1 0x0 NOT PUSH2 0x6BD JUMP JUMPDEST PUSH2 0x1BB2 DUP4 DUP4 PUSH2 0x3398 JUMP JUMPDEST SWAP1 POP PUSH2 0x6BD JUMP JUMPDEST PUSH1 0x60 PUSH2 0x840 PUSH2 0x33C3 JUMP JUMPDEST DUP1 PUSH2 0x1BCD DUP2 PUSH2 0x3432 JUMP JUMPDEST POP POP JUMP JUMPDEST PUSH2 0x1BFD DUP2 PUSH1 0x60 ADD MLOAD PUSH1 0x0 SGT ISZERO DUP1 ISZERO PUSH2 0x1BF5 JUMPI POP PUSH8 0xDE0B6B3A7640000 DUP3 PUSH1 0x60 ADD MLOAD SGT ISZERO JUMPDEST PUSH2 0x163 PUSH2 0x34AB JUMP JUMPDEST PUSH2 0x1C28 DUP2 PUSH1 0x40 ADD MLOAD PUSH1 0x0 SGT ISZERO DUP1 ISZERO PUSH2 0x1BF5 JUMPI POP PUSH8 0xDE0B6B3A7640000 DUP3 PUSH1 0x40 ADD MLOAD SGT ISZERO PUSH2 0x163 PUSH2 0x34AB JUMP JUMPDEST PUSH1 0x40 DUP1 MLOAD DUP1 DUP3 ADD DUP3 MSTORE PUSH1 0x60 DUP4 ADD MLOAD DUP2 MSTORE SWAP1 DUP3 ADD MLOAD PUSH1 0x20 DUP3 ADD MSTORE PUSH1 0x0 PUSH2 0x1C4D DUP3 DUP1 PUSH2 0x34B9 JUMP JUMPDEST SWAP1 POP PUSH2 0x1C7A PUSH8 0xDE0B6B3A763FC18 DUP3 SLT DUP1 ISZERO SWAP1 PUSH2 0x1C72 JUMPI POP PUSH8 0xDE0B6B3A76403E8 DUP3 SGT ISZERO JUMPDEST PUSH2 0x164 PUSH2 0x34AB JUMP JUMPDEST PUSH2 0x1CA9 DUP4 PUSH1 0x80 ADD MLOAD PUSH1 0x0 SGT ISZERO DUP1 ISZERO PUSH2 0x1CA1 JUMPI POP PUSH11 0x52B7D2DCC80CD2E4000000 DUP5 PUSH1 0x80 ADD MLOAD SGT ISZERO JUMPDEST PUSH2 0x168 PUSH2 0x34AB JUMP JUMPDEST POP POP POP JUMP JUMPDEST PUSH1 0x0 PUSH2 0x826 DUP4 DUP4 PUSH1 0x56 PUSH2 0x1CD2 JUMP JUMPDEST PUSH1 0x0 PUSH2 0x1CCC DUP4 DUP4 GT ISZERO PUSH1 0x1 PUSH2 0x1EBE JUMP JUMPDEST POP SWAP1 SUB SWAP1 JUMP JUMPDEST PUSH8 0xFFFFFFFFFFFFFFFF DUP2 SHL NOT SWAP3 SWAP1 SWAP3 AND SWAP2 SHL OR SWAP1 JUMP JUMPDEST PUSH1 0x0 DUP3 DUP3 MUL DUP4 ISZERO DUP1 PUSH2 0x1D02 JUMPI POP DUP3 DUP5 DUP3 DUP2 PUSH2 0x1CFF JUMPI INVALID JUMPDEST SDIV EQ JUMPDEST PUSH2 0x1D12 JUMPI PUSH2 0x1D12 PUSH1 0x0 PUSH1 0x3 PUSH2 0x1EBE JUMP JUMPDEST PUSH8 0xDE0B6B3A7640000 SWAP1 SDIV SWAP4 SWAP3 POP POP POP JUMP JUMPDEST PUSH1 0x0 DUP3 DUP3 ADD DUP2 DUP4 SLT ISZERO PUSH2 0x1D39 JUMPI DUP4 DUP2 SLT PUSH2 0x1D3E JUMP JUMPDEST DUP4 DUP2 SLT ISZERO JUMPDEST PUSH2 0x826 JUMPI PUSH2 0x826 PUSH1 0x0 DUP1 PUSH2 0x1EBE JUMP JUMPDEST PUSH1 0x1 PUSH1 0x1 PUSH1 0xA0 SHL SUB DUP1 DUP5 AND PUSH1 0x0 DUP2 DUP2 MSTORE PUSH1 0x1 PUSH1 0x20 SWAP1 DUP2 MSTORE PUSH1 0x40 DUP1 DUP4 KECCAK256 SWAP5 DUP8 AND DUP1 DUP5 MSTORE SWAP5 DUP3 MSTORE SWAP2 DUP3 SWAP1 KECCAK256 DUP6 SWAP1 SSTORE DUP2 MLOAD DUP6 DUP2 MSTORE SWAP2 MLOAD PUSH32 0x8C5BE1E5EBEC7D5BD14F71427D1E84F3DD0314C0F7B2291E5B200AC8C7C3B925 SWAP3 DUP2 SWAP1 SUB SWAP1 SWAP2 ADD SWAP1 LOG3 POP POP POP JUMP JUMPDEST PUSH1 0x0 PUSH2 0x1DC6 PUSH1 0x0 CALLDATALOAD PUSH1 0x1 PUSH1 0x1 PUSH1 0xE0 SHL SUB NOT AND PUSH2 0x10D1 JUMP JUMPDEST SWAP1 POP PUSH2 0x785 PUSH2 0x1DD5 DUP3 CALLER PUSH2 0x34EC JUMP JUMPDEST PUSH2 0x191 PUSH2 0x1EBE JUMP JUMPDEST DUP1 ISZERO PUSH2 0x1DFD JUMPI PUSH2 0x1DF8 PUSH2 0x1DEE PUSH2 0x1E76 JUMP JUMPDEST TIMESTAMP LT PUSH2 0x193 PUSH2 0x1EBE JUMP JUMPDEST PUSH2 0x1E12 JUMP JUMPDEST PUSH2 0x1E12 PUSH2 0x1E08 PUSH2 0x1E9A JUMP JUMPDEST TIMESTAMP LT PUSH2 0x1A9 PUSH2 0x1EBE JUMP JUMPDEST PUSH1 0x7 DUP1 SLOAD DUP3 ISZERO ISZERO PUSH1 0xFF NOT SWAP1 SWAP2 AND DUP2 OR SWAP1 SWAP2 SSTORE PUSH1 0x40 DUP1 MLOAD SWAP2 DUP3 MSTORE MLOAD PUSH32 0x9E3A5E37224532DEA67B89FACE185703738A228A6E8A23DEE546960180D3BE64 SWAP2 DUP2 SWAP1 SUB PUSH1 0x20 ADD SWAP1 LOG1 POP JUMP JUMPDEST PUSH1 0x0 PUSH2 0x1E63 PUSH2 0x1E9A JUMP JUMPDEST TIMESTAMP GT DUP1 PUSH2 0x840 JUMPI POP POP PUSH1 0x7 SLOAD PUSH1 0xFF AND ISZERO SWAP1 JUMP JUMPDEST PUSH32 0x0 SWAP1 JUMP JUMPDEST PUSH32 0x0 SWAP1 JUMP JUMPDEST DUP2 PUSH2 0x1BCD JUMPI PUSH2 0x1BCD DUP2 PUSH2 0x2CC3 JUMP JUMPDEST PUSH2 0x1EE3 PUSH1 0x1 PUSH1 0x1 PUSH1 0xA0 SHL SUB DUP5 AND ISZERO ISZERO PUSH2 0x198 PUSH2 0x1EBE JUMP JUMPDEST PUSH2 0x1EFA PUSH1 0x1 PUSH1 0x1 PUSH1 0xA0 SHL SUB DUP4 AND ISZERO ISZERO PUSH2 0x199 PUSH2 0x1EBE JUMP JUMPDEST PUSH2 0x1F05 DUP4 DUP4 DUP4 PUSH2 0x1CA9 JUMP JUMPDEST PUSH1 0x1 PUSH1 0x1 PUSH1 0xA0 SHL SUB DUP4 AND PUSH1 0x0 SWAP1 DUP2 MSTORE PUSH1 0x20 DUP2 SWAP1 MSTORE PUSH1 0x40 SWAP1 KECCAK256 SLOAD PUSH2 0x1F2B SWAP1 DUP3 PUSH2 0x1A0 PUSH2 0x35EE JUMP JUMPDEST PUSH1 0x1 PUSH1 0x1 PUSH1 0xA0 SHL SUB DUP1 DUP6 AND PUSH1 0x0 SWAP1 DUP2 MSTORE PUSH1 0x20 DUP2 SWAP1 MSTORE PUSH1 0x40 DUP1 DUP3 KECCAK256 SWAP4 SWAP1 SWAP4 SSTORE SWAP1 DUP5 AND DUP2 MSTORE KECCAK256 SLOAD PUSH2 0x1F5A SWAP1 DUP3 PUSH2 0x20F0 JUMP JUMPDEST PUSH1 0x1 PUSH1 0x1 PUSH1 0xA0 SHL SUB DUP1 DUP5 AND PUSH1 0x0 DUP2 DUP2 MSTORE PUSH1 0x20 DUP2 DUP2 MSTORE PUSH1 0x40 SWAP2 DUP3 SWAP1 KECCAK256 SWAP5 SWAP1 SWAP5 SSTORE DUP1 MLOAD DUP6 DUP2 MSTORE SWAP1 MLOAD SWAP2 SWAP4 SWAP3 DUP8 AND SWAP3 PUSH32 0xDDF252AD1BE2C89B69C2B068FC378DAA952BA7F163C4A11628F55A4DF523B3EF SWAP3 SWAP2 DUP3 SWAP1 SUB ADD SWAP1 LOG3 POP POP POP JUMP JUMPDEST PUSH1 0x0 PUSH32 0x0 PUSH32 0x0 PUSH32 0x0 PUSH2 0x2021 PUSH2 0x3604 JUMP JUMPDEST ADDRESS PUSH1 0x40 MLOAD PUSH1 0x20 ADD DUP1 DUP7 DUP2 MSTORE PUSH1 0x20 ADD DUP6 DUP2 MSTORE PUSH1 0x20 ADD DUP5 DUP2 MSTORE PUSH1 0x20 ADD DUP4 DUP2 MSTORE PUSH1 0x20 ADD DUP3 PUSH1 0x1 PUSH1 0x1 PUSH1 0xA0 SHL SUB AND DUP2 MSTORE PUSH1 0x20 ADD SWAP6 POP POP POP POP POP POP PUSH1 0x40 MLOAD PUSH1 0x20 DUP2 DUP4 SUB SUB DUP2 MSTORE SWAP1 PUSH1 0x40 MSTORE DUP1 MLOAD SWAP1 PUSH1 0x20 ADD KECCAK256 SWAP1 POP SWAP1 JUMP JUMPDEST PUSH2 0x2085 PUSH2 0x207D PUSH2 0x1E59 JUMP JUMPDEST PUSH2 0x192 PUSH2 0x1EBE JUMP JUMPDEST JUMP JUMPDEST PUSH2 0x209A PUSH5 0xE8D4A51000 DUP3 LT ISZERO PUSH1 0xCB PUSH2 0x1EBE JUMP JUMPDEST PUSH2 0x20B0 PUSH8 0x16345785D8A0000 DUP3 GT ISZERO PUSH1 0xCA PUSH2 0x1EBE JUMP JUMPDEST PUSH1 0x8 SLOAD PUSH2 0x20BD SWAP1 DUP3 PUSH2 0x1CAE JUMP JUMPDEST PUSH1 0x8 SSTORE PUSH1 0x40 MLOAD PUSH32 0xA9BA3FFE0B6C366B81232CAAB38605A0699AD5398D6CCE76F91EE809E322DAFC SWAP1 PUSH2 0x769 SWAP1 DUP4 SWAP1 PUSH2 0x49EC JUMP JUMPDEST PUSH1 0x0 DUP3 DUP3 ADD PUSH2 0x826 DUP5 DUP3 LT ISZERO DUP4 PUSH2 0x1EBE JUMP JUMPDEST PUSH1 0x0 PUSH2 0x6BD DUP3 DUP3 PUSH2 0x3608 JUMP JUMPDEST PUSH1 0x0 PUSH2 0x6BD DUP3 PUSH1 0x16 PUSH2 0x3608 JUMP JUMPDEST PUSH1 0x0 PUSH2 0x6BD DUP3 PUSH1 0x2C PUSH2 0x362F JUMP JUMPDEST PUSH1 0x0 PUSH2 0x6BD DUP3 PUSH1 0x4B PUSH2 0x3639 JUMP JUMPDEST PUSH1 0x0 PUSH2 0x6BD DUP3 PUSH1 0x55 PUSH2 0x3641 JUMP JUMPDEST PUSH1 0x0 PUSH2 0x6BD DUP3 PUSH1 0x56 PUSH2 0x364B JUMP JUMPDEST PUSH2 0x1BCD DUP2 DUP4 EQ PUSH1 0x67 PUSH2 0x1EBE JUMP JUMPDEST PUSH1 0x0 PUSH1 0x60 DUP1 PUSH1 0x0 DUP1 PUSH2 0x216C PUSH2 0x25C6 JUMP JUMPDEST SWAP2 POP SWAP2 POP PUSH2 0x2178 PUSH2 0x1E59 JUMP JUMPDEST ISZERO PUSH2 0x227D JUMPI PUSH1 0x40 MLOAD PUSH4 0x6C1E5431 PUSH1 0xE1 SHL DUP2 MSTORE PUSH1 0x0 SWAP1 PUSH20 0x0 SWAP1 PUSH4 0xD83CA862 SWAP1 PUSH2 0x21BB SWAP1 DUP14 SWAP1 DUP8 SWAP1 DUP8 SWAP1 PUSH1 0x4 ADD PUSH2 0x48D9 JUMP JUMPDEST PUSH1 0x20 PUSH1 0x40 MLOAD DUP1 DUP4 SUB DUP2 DUP7 DUP1 EXTCODESIZE ISZERO DUP1 ISZERO PUSH2 0x21D3 JUMPI PUSH1 0x0 DUP1 REVERT JUMPDEST POP GAS DELEGATECALL ISZERO DUP1 ISZERO PUSH2 0x21E7 JUMPI RETURNDATASIZE PUSH1 0x0 DUP1 RETURNDATACOPY RETURNDATASIZE PUSH1 0x0 REVERT JUMPDEST POP POP POP POP PUSH1 0x40 MLOAD RETURNDATASIZE PUSH1 0x1F NOT PUSH1 0x1F DUP3 ADD AND DUP3 ADD DUP1 PUSH1 0x40 MSTORE POP DUP2 ADD SWAP1 PUSH2 0x220B SWAP2 SWAP1 PUSH2 0x4757 JUMP JUMPDEST SWAP1 POP PUSH2 0x2216 DUP2 PUSH2 0x3659 JUMP JUMPDEST PUSH2 0x2220 DUP11 DUP9 PUSH2 0x3686 JUMP JUMPDEST SWAP1 SWAP7 POP SWAP5 POP PUSH2 0x2239 DUP2 DUP8 PUSH2 0x2232 PUSH2 0x788 JUMP JUMPDEST PUSH1 0x0 PUSH2 0x36D2 JUMP JUMPDEST PUSH1 0x9 DUP2 SWAP1 SSTORE PUSH1 0x40 MLOAD PUSH32 0xE1D39CAF039C7DC6F364B1E29D1E67C4E330003A43F4991D50CF3E8840D95EAC SWAP2 PUSH2 0x226F SWAP2 DUP5 SWAP2 SWAP1 PUSH2 0x4B70 JUMP JUMPDEST PUSH1 0x40 MLOAD DUP1 SWAP2 SUB SWAP1 LOG1 POP PUSH2 0x2293 JUMP JUMPDEST PUSH2 0x2287 DUP10 DUP8 PUSH2 0x3686 JUMP JUMPDEST PUSH1 0x0 NOT PUSH1 0x9 SSTORE SWAP1 SWAP6 POP SWAP4 POP JUMPDEST PUSH1 0x40 DUP1 MLOAD PUSH1 0x2 DUP1 DUP3 MSTORE PUSH1 0x60 DUP3 ADD DUP4 MSTORE DUP8 SWAP3 DUP8 SWAP3 SWAP2 SWAP1 PUSH1 0x20 DUP4 ADD SWAP1 DUP1 CALLDATASIZE DUP4 CALLDATACOPY ADD SWAP1 POP POP SWAP5 POP SWAP5 POP SWAP5 POP POP POP SWAP8 POP SWAP8 POP SWAP8 SWAP5 POP POP POP POP POP JUMP JUMPDEST PUSH2 0x22F1 DUP2 PUSH1 0x0 DUP2 MLOAD DUP2 LT PUSH2 0x22DA JUMPI INVALID JUMPDEST PUSH1 0x20 MUL PUSH1 0x20 ADD ADD MLOAD PUSH2 0x22EC PUSH1 0x1 PUSH2 0x2D16 JUMP JUMPDEST PUSH2 0x24DC JUMP JUMPDEST DUP2 PUSH1 0x0 DUP2 MLOAD DUP2 LT PUSH2 0x22FE JUMPI INVALID JUMPDEST PUSH1 0x20 MUL PUSH1 0x20 ADD ADD DUP2 DUP2 MSTORE POP POP PUSH2 0x232C DUP2 PUSH1 0x1 DUP2 MLOAD DUP2 LT PUSH2 0x231A JUMPI INVALID JUMPDEST PUSH1 0x20 MUL PUSH1 0x20 ADD ADD MLOAD PUSH2 0x22EC PUSH1 0x0 PUSH2 0x2D16 JUMP JUMPDEST DUP2 PUSH1 0x1 DUP2 MLOAD DUP2 LT PUSH2 0x2339 JUMPI INVALID JUMPDEST PUSH1 0x20 MUL PUSH1 0x20 ADD ADD DUP2 DUP2 MSTORE POP POP POP JUMP JUMPDEST CALLER ADDRESS EQ PUSH2 0x2406 JUMPI PUSH1 0x0 ADDRESS PUSH1 0x1 PUSH1 0x1 PUSH1 0xA0 SHL SUB AND PUSH1 0x0 CALLDATASIZE PUSH1 0x40 MLOAD PUSH2 0x236C SWAP3 SWAP2 SWAP1 PUSH2 0x487D JUMP JUMPDEST PUSH1 0x0 PUSH1 0x40 MLOAD DUP1 DUP4 SUB DUP2 PUSH1 0x0 DUP7 GAS CALL SWAP2 POP POP RETURNDATASIZE DUP1 PUSH1 0x0 DUP2 EQ PUSH2 0x23A9 JUMPI PUSH1 0x40 MLOAD SWAP2 POP PUSH1 0x1F NOT PUSH1 0x3F RETURNDATASIZE ADD AND DUP3 ADD PUSH1 0x40 MSTORE RETURNDATASIZE DUP3 MSTORE RETURNDATASIZE PUSH1 0x0 PUSH1 0x20 DUP5 ADD RETURNDATACOPY PUSH2 0x23AE JUMP JUMPDEST PUSH1 0x60 SWAP2 POP JUMPDEST POP POP SWAP1 POP DUP1 PUSH1 0x0 DUP2 EQ PUSH2 0x23BD JUMPI INVALID JUMPDEST PUSH1 0x4 PUSH1 0x0 DUP1 RETURNDATACOPY PUSH1 0x0 MLOAD PUSH1 0x1 PUSH1 0x1 PUSH1 0xE0 SHL SUB NOT AND PUSH4 0x43ADBAFB PUSH1 0xE0 SHL DUP2 EQ PUSH2 0x23E8 JUMPI RETURNDATASIZE PUSH1 0x0 DUP1 RETURNDATACOPY RETURNDATASIZE PUSH1 0x0 REVERT JUMPDEST POP PUSH1 0x20 PUSH1 0x4 PUSH1 0x0 RETURNDATACOPY PUSH1 0x40 PUSH1 0x20 MSTORE PUSH1 0x24 RETURNDATASIZE SUB PUSH1 0x24 PUSH1 0x40 RETURNDATACOPY PUSH1 0x1C RETURNDATASIZE ADD PUSH1 0x0 RETURN JUMPDEST PUSH2 0x240F DUP7 PUSH2 0x255A JUMP JUMPDEST PUSH1 0x0 DUP1 PUSH2 0x2425 DUP12 DUP12 DUP12 DUP12 DUP12 DUP12 DUP12 DUP12 PUSH4 0xFFFFFFFF AND JUMP JUMPDEST POP SWAP2 POP SWAP2 POP PUSH2 0x2437 DUP2 DUP5 PUSH4 0xFFFFFFFF AND JUMP JUMPDEST DUP1 MLOAD PUSH1 0x1F NOT DUP3 ADD DUP4 SWAP1 MSTORE PUSH4 0x43ADBAFB PUSH1 0x3F NOT DUP4 ADD MSTORE PUSH1 0x20 MUL PUSH1 0x23 NOT DUP3 ADD PUSH1 0x44 DUP3 ADD DUP2 REVERT JUMPDEST PUSH1 0x0 DUP1 PUSH1 0x0 DUP1 PUSH1 0x0 DUP1 PUSH1 0x0 DUP1 PUSH2 0x246F PUSH2 0x16A9 JUMP JUMPDEST SWAP4 POP SWAP4 POP SWAP4 POP SWAP4 POP DUP4 PUSH1 0x0 EQ ISZERO PUSH2 0x2494 JUMPI PUSH1 0x0 SWAP8 POP DUP8 SWAP7 POP SWAP1 SWAP5 POP SWAP3 POP PUSH2 0x24BB SWAP2 POP POP JUMP JUMPDEST PUSH1 0x0 DUP1 PUSH2 0x24AB DUP13 DUP13 PUSH2 0x24A4 PUSH2 0x788 JUMP JUMPDEST DUP10 DUP10 PUSH2 0x372A JUMP JUMPDEST SWAP1 SWAP11 POP SWAP9 POP SWAP3 SWAP7 POP SWAP1 SWAP5 POP POP POP POP POP JUMPDEST SWAP3 SWAP6 SWAP2 SWAP5 POP SWAP3 POP JUMP JUMPDEST PUSH1 0x0 DUP3 DUP3 ADD DUP4 DUP2 LT ISZERO PUSH2 0x826 JUMPI PUSH2 0x826 PUSH1 0x0 DUP1 PUSH2 0x1EBE JUMP JUMPDEST PUSH1 0x0 DUP2 PUSH2 0x24EF JUMPI PUSH2 0x24EF PUSH1 0x0 PUSH1 0x4 PUSH2 0x1EBE JUMP JUMPDEST DUP3 PUSH2 0x24FC JUMPI POP PUSH1 0x0 PUSH2 0x6BD JUMP JUMPDEST PUSH8 0xDE0B6B3A7640000 DUP4 DUP2 MUL SWAP1 DUP5 DUP3 DUP2 PUSH2 0x2512 JUMPI INVALID JUMPDEST DIV EQ PUSH2 0x2524 JUMPI PUSH2 0x2524 PUSH1 0x0 PUSH1 0x5 PUSH2 0x1EBE JUMP JUMPDEST DUP3 DUP2 DUP2 PUSH2 0x252D JUMPI INVALID JUMPDEST DIV SWAP5 SWAP4 POP POP POP POP JUMP JUMPDEST PUSH1 0x0 DUP3 DUP3 MUL PUSH2 0x826 DUP5 ISZERO DUP1 PUSH2 0x2553 JUMPI POP DUP4 DUP6 DUP4 DUP2 PUSH2 0x2550 JUMPI INVALID JUMPDEST DIV EQ JUMPDEST PUSH1 0x3 PUSH2 0x1EBE JUMP JUMPDEST PUSH2 0x2581 DUP2 PUSH1 0x0 DUP2 MLOAD DUP2 LT PUSH2 0x256A JUMPI INVALID JUMPDEST PUSH1 0x20 MUL PUSH1 0x20 ADD ADD MLOAD PUSH2 0x257C PUSH1 0x1 PUSH2 0x2D16 JUMP JUMPDEST PUSH2 0x37C5 JUMP JUMPDEST DUP2 PUSH1 0x0 DUP2 MLOAD DUP2 LT PUSH2 0x258E JUMPI INVALID JUMPDEST PUSH1 0x20 MUL PUSH1 0x20 ADD ADD DUP2 DUP2 MSTORE POP POP PUSH2 0x232C DUP2 PUSH1 0x1 DUP2 MLOAD DUP2 LT PUSH2 0x25AA JUMPI INVALID JUMPDEST PUSH1 0x20 MUL PUSH1 0x20 ADD ADD MLOAD PUSH2 0x257C PUSH1 0x0 PUSH2 0x2D16 JUMP JUMPDEST PUSH2 0x1BCD DUP3 DUP3 PUSH2 0x37FE JUMP JUMPDEST PUSH2 0x25CE PUSH2 0x41E7 JUMP JUMPDEST PUSH2 0x25D6 PUSH2 0x4216 JUMP JUMPDEST PUSH32 0x0 PUSH1 0x80 DUP1 DUP5 ADD SWAP2 SWAP1 SWAP2 MSTORE PUSH32 0x0 PUSH1 0x60 DUP1 DUP6 ADD SWAP2 SWAP1 SWAP2 MSTORE PUSH32 0x0 PUSH1 0x40 DUP1 DUP7 ADD SWAP2 SWAP1 SWAP2 MSTORE PUSH32 0x0 PUSH1 0x20 DUP1 DUP8 ADD SWAP2 SWAP1 SWAP2 MSTORE PUSH32 0x0 DUP7 MSTORE DUP5 MLOAD DUP6 DUP3 ADD MLOAD PUSH32 0x0 DUP2 DUP5 ADD MSTORE PUSH32 0x0 SWAP1 MSTORE PUSH32 0x0 SWAP2 DUP2 ADD SWAP2 SWAP1 SWAP2 MSTORE PUSH32 0x0 SWAP1 MSTORE PUSH32 0x0 PUSH1 0xC0 DUP6 ADD MSTORE PUSH32 0x0 PUSH1 0xA0 DUP6 ADD MSTORE PUSH32 0x0 SWAP3 DUP5 ADD SWAP3 SWAP1 SWAP3 MSTORE PUSH32 0x0 SWAP1 DUP4 ADD MSTORE PUSH32 0x0 SWAP1 DUP3 ADD MSTORE SWAP1 SWAP2 JUMP JUMPDEST PUSH1 0x0 PUSH1 0x60 DUP1 PUSH1 0x0 DUP1 PUSH2 0x280C PUSH2 0x25C6 JUMP JUMPDEST SWAP2 POP SWAP2 POP PUSH1 0x0 PUSH20 0x0 PUSH4 0xD83CA862 DUP12 DUP6 DUP6 PUSH1 0x40 MLOAD DUP5 PUSH4 0xFFFFFFFF AND PUSH1 0xE0 SHL DUP2 MSTORE PUSH1 0x4 ADD PUSH2 0x284D SWAP4 SWAP3 SWAP2 SWAP1 PUSH2 0x48D9 JUMP JUMPDEST PUSH1 0x20 PUSH1 0x40 MLOAD DUP1 DUP4 SUB DUP2 DUP7 DUP1 EXTCODESIZE ISZERO DUP1 ISZERO PUSH2 0x2865 JUMPI PUSH1 0x0 DUP1 REVERT JUMPDEST POP GAS DELEGATECALL ISZERO DUP1 ISZERO PUSH2 0x2879 JUMPI RETURNDATASIZE PUSH1 0x0 DUP1 RETURNDATACOPY RETURNDATASIZE PUSH1 0x0 REVERT JUMPDEST POP POP POP POP PUSH1 0x40 MLOAD RETURNDATASIZE PUSH1 0x1F NOT PUSH1 0x1F DUP3 ADD AND DUP3 ADD DUP1 PUSH1 0x40 MSTORE POP DUP2 ADD SWAP1 PUSH2 0x289D SWAP2 SWAP1 PUSH2 0x4757 JUMP JUMPDEST SWAP1 POP PUSH2 0x28A8 DUP2 PUSH2 0x3659 JUMP JUMPDEST PUSH1 0x0 DUP1 PUSH2 0x28B5 DUP13 DUP11 PUSH2 0x38B5 JUMP JUMPDEST PUSH1 0xA SLOAD SWAP2 SWAP4 POP SWAP2 POP PUSH1 0xFF AND ISZERO PUSH2 0x28DF JUMPI PUSH2 0x28DF DUP3 PUSH2 0x28D2 DUP16 PUSH2 0xCFE JUMP JUMPDEST PUSH2 0x28DA PUSH2 0x788 JUMP JUMPDEST PUSH2 0x38EF JUMP JUMPDEST PUSH2 0x28F3 DUP4 DUP4 PUSH2 0x28EC PUSH2 0x788 JUMP JUMPDEST PUSH1 0x1 PUSH2 0x36D2 JUMP JUMPDEST PUSH1 0x9 DUP2 SWAP1 SSTORE PUSH1 0x40 MLOAD PUSH32 0xE1D39CAF039C7DC6F364B1E29D1E67C4E330003A43F4991D50CF3E8840D95EAC SWAP2 PUSH2 0x2929 SWAP2 DUP7 SWAP2 SWAP1 PUSH2 0x4B70 JUMP JUMPDEST PUSH1 0x40 MLOAD DUP1 SWAP2 SUB SWAP1 LOG1 PUSH1 0x40 DUP1 MLOAD PUSH1 0x2 DUP1 DUP3 MSTORE PUSH1 0x60 DUP3 ADD DUP4 MSTORE DUP5 SWAP3 DUP5 SWAP3 SWAP2 SWAP1 PUSH1 0x20 DUP4 ADD SWAP1 DUP1 CALLDATASIZE DUP4 CALLDATACOPY ADD SWAP1 POP POP SWAP8 POP SWAP8 POP SWAP8 POP POP POP POP POP POP SWAP8 POP SWAP8 POP SWAP8 SWAP5 POP POP POP POP POP JUMP JUMPDEST PUSH2 0x2992 DUP2 PUSH1 0x0 DUP2 MLOAD DUP2 LT PUSH2 0x297B JUMPI INVALID JUMPDEST PUSH1 0x20 MUL PUSH1 0x20 ADD ADD MLOAD PUSH2 0x298D PUSH1 0x1 PUSH2 0x2D16 JUMP JUMPDEST PUSH2 0x307D JUMP JUMPDEST DUP2 PUSH1 0x0 DUP2 MLOAD DUP2 LT PUSH2 0x299F JUMPI INVALID JUMPDEST PUSH1 0x20 MUL PUSH1 0x20 ADD ADD DUP2 DUP2 MSTORE POP POP PUSH2 0x232C DUP2 PUSH1 0x1 DUP2 MLOAD DUP2 LT PUSH2 0x29BB JUMPI INVALID JUMPDEST PUSH1 0x20 MUL PUSH1 0x20 ADD ADD MLOAD PUSH2 0x298D PUSH1 0x0 PUSH2 0x2D16 JUMP JUMPDEST PUSH1 0x40 DUP1 MLOAD PUSH1 0x2 DUP1 DUP3 MSTORE PUSH1 0x60 DUP1 DUP4 ADD DUP5 MSTORE SWAP3 PUSH1 0x20 DUP4 ADD SWAP1 DUP1 CALLDATASIZE DUP4 CALLDATACOPY ADD SWAP1 POP POP SWAP1 POP PUSH2 0x2A20 PUSH32 0x0 PUSH2 0x2A1B PUSH1 0x1 PUSH2 0x2D16 JUMP JUMPDEST PUSH2 0x3A01 JUMP JUMPDEST DUP2 PUSH1 0x0 DUP2 MLOAD DUP2 LT PUSH2 0x2A2D JUMPI INVALID JUMPDEST PUSH1 0x20 MUL PUSH1 0x20 ADD ADD DUP2 DUP2 MSTORE POP POP PUSH2 0x2A67 PUSH32 0x0 PUSH2 0x2A1B PUSH1 0x0 PUSH2 0x2D16 JUMP JUMPDEST DUP2 PUSH1 0x1 DUP2 MLOAD DUP2 LT PUSH2 0x2A74 JUMPI INVALID JUMPDEST PUSH1 0x20 MUL PUSH1 0x20 ADD ADD DUP2 DUP2 MSTORE POP POP SWAP1 JUMP JUMPDEST PUSH1 0x0 PUSH20 0x0 PUSH4 0xC7FE78D0 DUP7 DUP6 DUP6 PUSH2 0x2AAB DUP10 PUSH2 0x3AA8 JUMP JUMPDEST PUSH1 0x40 MLOAD DUP6 PUSH4 0xFFFFFFFF AND PUSH1 0xE0 SHL DUP2 MSTORE PUSH1 0x4 ADD PUSH2 0x2ACA SWAP5 SWAP4 SWAP3 SWAP2 SWAP1 PUSH2 0x490A JUMP JUMPDEST PUSH1 0x20 PUSH1 0x40 MLOAD DUP1 DUP4 SUB DUP2 DUP7 DUP1 EXTCODESIZE ISZERO DUP1 ISZERO PUSH2 0x2AE2 JUMPI PUSH1 0x0 DUP1 REVERT JUMPDEST POP GAS DELEGATECALL ISZERO DUP1 ISZERO PUSH2 0x2AF6 JUMPI RETURNDATASIZE PUSH1 0x0 DUP1 RETURNDATACOPY RETURNDATASIZE PUSH1 0x0 REVERT JUMPDEST POP POP POP POP PUSH1 0x40 MLOAD RETURNDATASIZE PUSH1 0x1F NOT PUSH1 0x1F DUP3 ADD AND DUP3 ADD DUP1 PUSH1 0x40 MSTORE POP DUP2 ADD SWAP1 PUSH2 0x2B1A SWAP2 SWAP1 PUSH2 0x4757 JUMP JUMPDEST SWAP6 SWAP5 POP POP POP POP POP JUMP JUMPDEST PUSH1 0x0 PUSH32 0x0 PUSH1 0x1 PUSH1 0x1 PUSH1 0xA0 SHL SUB AND ISZERO PUSH2 0x2BF2 JUMPI PUSH2 0x2BEF PUSH32 0x0 PUSH1 0x1 PUSH1 0x1 PUSH1 0xA0 SHL SUB AND PUSH4 0x679AEFCE PUSH1 0x40 MLOAD DUP2 PUSH4 0xFFFFFFFF AND PUSH1 0xE0 SHL DUP2 MSTORE PUSH1 0x4 ADD PUSH1 0x20 PUSH1 0x40 MLOAD DUP1 DUP4 SUB DUP2 DUP7 DUP1 EXTCODESIZE ISZERO DUP1 ISZERO PUSH2 0x2BB0 JUMPI PUSH1 0x0 DUP1 REVERT JUMPDEST POP GAS STATICCALL ISZERO DUP1 ISZERO PUSH2 0x2BC4 JUMPI RETURNDATASIZE PUSH1 0x0 DUP1 RETURNDATACOPY RETURNDATASIZE PUSH1 0x0 REVERT JUMPDEST POP POP POP POP PUSH1 0x40 MLOAD RETURNDATASIZE PUSH1 0x1F NOT PUSH1 0x1F DUP3 ADD AND DUP3 ADD DUP1 PUSH1 0x40 MSTORE POP DUP2 ADD SWAP1 PUSH2 0x2BE8 SWAP2 SWAP1 PUSH2 0x4757 JUMP JUMPDEST DUP4 SWAP1 PUSH2 0x37C5 JUMP JUMPDEST SWAP2 POP JUMPDEST PUSH32 0x0 PUSH1 0x1 PUSH1 0x1 PUSH1 0xA0 SHL SUB AND ISZERO PUSH2 0x2CBF JUMPI PUSH2 0x2CBC PUSH32 0x0 PUSH1 0x1 PUSH1 0x1 PUSH1 0xA0 SHL SUB AND PUSH4 0x679AEFCE PUSH1 0x40 MLOAD DUP2 PUSH4 0xFFFFFFFF AND PUSH1 0xE0 SHL DUP2 MSTORE PUSH1 0x4 ADD PUSH1 0x20 PUSH1 0x40 MLOAD DUP1 DUP4 SUB DUP2 DUP7 DUP1 EXTCODESIZE ISZERO DUP1 ISZERO PUSH2 0x2C7D JUMPI PUSH1 0x0 DUP1 REVERT JUMPDEST POP GAS STATICCALL ISZERO DUP1 ISZERO PUSH2 0x2C91 JUMPI RETURNDATASIZE PUSH1 0x0 DUP1 RETURNDATACOPY RETURNDATASIZE PUSH1 0x0 REVERT JUMPDEST POP POP POP POP PUSH1 0x40 MLOAD RETURNDATASIZE PUSH1 0x1F NOT PUSH1 0x1F DUP3 ADD AND DUP3 ADD DUP1 PUSH1 0x40 MSTORE POP DUP2 ADD SWAP1 PUSH2 0x2CB5 SWAP2 SWAP1 PUSH2 0x4757 JUMP JUMPDEST DUP4 SWAP1 PUSH2 0x24DC JUMP JUMPDEST SWAP2 POP JUMPDEST POP SWAP1 JUMP JUMPDEST PUSH3 0x461BCD PUSH1 0xE5 SHL PUSH1 0x0 SWAP1 DUP2 MSTORE PUSH1 0x20 PUSH1 0x4 MSTORE PUSH1 0x7 PUSH1 0x24 MSTORE PUSH7 0x42414C23000030 PUSH1 0xA DUP1 DUP5 DIV DUP2 DUP2 MOD PUSH1 0x30 SWAP1 DUP2 ADD PUSH1 0x8 SHL SWAP6 DUP4 SWAP1 MOD SWAP6 SWAP1 SWAP6 ADD SWAP1 DUP3 SWAP1 DIV SWAP2 DUP3 MOD SWAP1 SWAP5 ADD PUSH1 0x10 SHL SWAP4 SWAP1 SWAP4 ADD ADD PUSH1 0xC8 SHL PUSH1 0x44 MSTORE PUSH1 0x64 SWAP1 REVERT JUMPDEST PUSH1 0x0 DUP1 PUSH1 0x0 DUP4 ISZERO PUSH2 0x2D6B JUMPI POP PUSH32 0x0 SWAP1 POP PUSH32 0x0 PUSH2 0x2DB1 JUMP JUMPDEST POP PUSH32 0x0 SWAP1 POP PUSH32 0x0 JUMPDEST PUSH1 0x1 PUSH1 0x1 PUSH1 0xA0 SHL SUB DUP3 AND ISZERO PUSH2 0x826 JUMPI PUSH2 0x2E3B DUP3 PUSH1 0x1 PUSH1 0x1 PUSH1 0xA0 SHL SUB AND PUSH4 0x679AEFCE PUSH1 0x40 MLOAD DUP2 PUSH4 0xFFFFFFFF AND PUSH1 0xE0 SHL DUP2 MSTORE PUSH1 0x4 ADD PUSH1 0x20 PUSH1 0x40 MLOAD DUP1 DUP4 SUB DUP2 DUP7 DUP1 EXTCODESIZE ISZERO DUP1 ISZERO PUSH2 0x2DFC JUMPI PUSH1 0x0 DUP1 REVERT JUMPDEST POP GAS STATICCALL ISZERO DUP1 ISZERO PUSH2 0x2E10 JUMPI RETURNDATASIZE PUSH1 0x0 DUP1 RETURNDATACOPY RETURNDATASIZE PUSH1 0x0 REVERT JUMPDEST POP POP POP POP PUSH1 0x40 MLOAD RETURNDATASIZE PUSH1 0x1F NOT PUSH1 0x1F DUP3 ADD AND DUP3 ADD DUP1 PUSH1 0x40 MSTORE POP DUP2 ADD SWAP1 PUSH2 0x2E34 SWAP2 SWAP1 PUSH2 0x4757 JUMP JUMPDEST DUP3 SWAP1 PUSH2 0x37C5 JUMP JUMPDEST SWAP5 SWAP4 POP POP POP POP JUMP JUMPDEST PUSH1 0x0 PUSH2 0x826 DUP4 DUP4 PUSH2 0x37C5 JUMP JUMPDEST PUSH1 0x40 DUP1 MLOAD PUSH1 0x2 DUP1 DUP3 MSTORE PUSH1 0x60 DUP1 DUP4 ADD DUP5 MSTORE SWAP3 PUSH1 0x20 DUP4 ADD SWAP1 DUP1 CALLDATASIZE DUP4 CALLDATACOPY ADD SWAP1 POP POP SWAP1 POP DUP2 ISZERO PUSH2 0x2EAE JUMPI DUP4 DUP2 PUSH1 0x0 DUP2 MLOAD DUP2 LT PUSH2 0x2E83 JUMPI INVALID JUMPDEST PUSH1 0x20 MUL PUSH1 0x20 ADD ADD DUP2 DUP2 MSTORE POP POP DUP3 DUP2 PUSH1 0x1 DUP2 MLOAD DUP2 LT PUSH2 0x2E9D JUMPI INVALID JUMPDEST PUSH1 0x20 MUL PUSH1 0x20 ADD ADD DUP2 DUP2 MSTORE POP POP PUSH2 0x826 JUMP JUMPDEST DUP3 DUP2 PUSH1 0x0 DUP2 MLOAD DUP2 LT PUSH2 0x2EBC JUMPI INVALID JUMPDEST PUSH1 0x20 MUL PUSH1 0x20 ADD ADD DUP2 DUP2 MSTORE POP POP DUP4 DUP2 PUSH1 0x1 DUP2 MLOAD DUP2 LT PUSH2 0x2ED6 JUMPI INVALID JUMPDEST PUSH1 0x20 MUL PUSH1 0x20 ADD ADD DUP2 DUP2 MSTORE POP POP SWAP4 SWAP3 POP POP POP JUMP JUMPDEST PUSH1 0x0 DUP3 DUP3 MUL DUP4 ISZERO DUP1 PUSH2 0x2F03 JUMPI POP DUP3 DUP5 DUP3 DUP2 PUSH2 0x2F00 JUMPI INVALID JUMPDEST DIV EQ JUMPDEST PUSH2 0x2F13 JUMPI PUSH2 0x2F13 PUSH1 0x0 PUSH1 0x3 PUSH2 0x1EBE JUMP JUMPDEST DUP1 PUSH2 0x2F22 JUMPI PUSH1 0x0 SWAP2 POP POP PUSH2 0x6BD JUMP JUMPDEST PUSH8 0xDE0B6B3A7640000 PUSH1 0x0 NOT DUP3 ADD JUMPDEST DIV PUSH1 0x1 ADD SWAP2 POP POP SWAP3 SWAP2 POP POP JUMP JUMPDEST PUSH1 0x0 DUP3 DUP3 GT ISZERO PUSH2 0x1CCC JUMPI PUSH2 0x1CCC PUSH1 0x0 PUSH1 0x1 PUSH2 0x1EBE JUMP JUMPDEST PUSH1 0x60 DUP7 ADD MLOAD PUSH1 0x40 MLOAD PUSH4 0x30FFA11B PUSH1 0xE1 SHL DUP2 MSTORE PUSH1 0x0 SWAP2 PUSH20 0x0 SWAP2 PUSH4 0x61FF4236 SWAP2 PUSH2 0x2F9C SWAP2 DUP11 SWAP2 SWAP1 DUP11 SWAP1 DUP11 SWAP1 DUP11 SWAP1 DUP11 SWAP1 PUSH1 0x4 ADD PUSH2 0x497B JUMP JUMPDEST PUSH1 0x20 PUSH1 0x40 MLOAD DUP1 DUP4 SUB DUP2 DUP7 DUP1 EXTCODESIZE ISZERO DUP1 ISZERO PUSH2 0x2FB4 JUMPI PUSH1 0x0 DUP1 REVERT JUMPDEST POP GAS DELEGATECALL ISZERO DUP1 ISZERO PUSH2 0x2FC8 JUMPI RETURNDATASIZE PUSH1 0x0 DUP1 RETURNDATACOPY RETURNDATASIZE PUSH1 0x0 REVERT JUMPDEST POP POP POP POP PUSH1 0x40 MLOAD RETURNDATASIZE PUSH1 0x1F NOT PUSH1 0x1F DUP3 ADD AND DUP3 ADD DUP1 PUSH1 0x40 MSTORE POP DUP2 ADD SWAP1 PUSH2 0x2FEC SWAP2 SWAP1 PUSH2 0x4757 JUMP JUMPDEST SWAP8 SWAP7 POP POP POP POP POP POP POP JUMP JUMPDEST PUSH1 0x0 PUSH2 0x826 DUP4 DUP4 PUSH2 0x24DC JUMP JUMPDEST PUSH1 0x60 DUP7 ADD MLOAD PUSH1 0x40 MLOAD PUSH4 0x3B18CE7B PUSH1 0xE2 SHL DUP2 MSTORE PUSH1 0x0 SWAP2 PUSH20 0x0 SWAP2 PUSH4 0xEC6339EC SWAP2 PUSH2 0x2F9C SWAP2 DUP11 SWAP2 SWAP1 DUP11 SWAP1 DUP11 SWAP1 DUP11 SWAP1 DUP11 SWAP1 PUSH1 0x4 ADD PUSH2 0x497B JUMP JUMPDEST PUSH1 0x0 PUSH2 0x826 DUP4 DUP4 PUSH2 0x307D JUMP JUMPDEST PUSH1 0x0 PUSH8 0xDE0B6B3A7640000 DUP3 LT PUSH2 0x306F JUMPI PUSH1 0x0 PUSH2 0x6BD JUMP JUMPDEST POP PUSH8 0xDE0B6B3A7640000 SUB SWAP1 JUMP JUMPDEST PUSH1 0x0 DUP2 PUSH2 0x3090 JUMPI PUSH2 0x3090 PUSH1 0x0 PUSH1 0x4 PUSH2 0x1EBE JUMP JUMPDEST DUP3 PUSH2 0x309D JUMPI POP PUSH1 0x0 PUSH2 0x6BD JUMP JUMPDEST PUSH8 0xDE0B6B3A7640000 DUP4 DUP2 MUL SWAP1 DUP5 DUP3 DUP2 PUSH2 0x30B3 JUMPI INVALID JUMPDEST DIV EQ PUSH2 0x30D7 JUMPI PUSH2 0x30D7 PUSH8 0xDE0B6B3A7640000 DUP6 DUP4 DUP2 PUSH2 0x30CE JUMPI INVALID JUMPDEST DIV EQ PUSH1 0x5 PUSH2 0x1EBE JUMP JUMPDEST DUP3 PUSH1 0x1 DUP3 SUB DUP2 PUSH2 0x2F31 JUMPI INVALID JUMPDEST PUSH1 0x0 PUSH2 0x2E3B DUP5 PUSH22 0x50524F544F434F4C5F535741505F4645455F50455243 PUSH1 0x50 SHL DUP5 DUP7 PUSH2 0x3AEC JUMP JUMPDEST PUSH1 0x0 PUSH2 0x2E3B DUP5 PUSH32 0x50524F544F434F4C5F4645455F4759524F5F504F5254494F4E00000000000000 DUP5 DUP7 PUSH2 0x3AEC JUMP JUMPDEST PUSH1 0x0 PUSH2 0x3142 PUSH2 0x11B4 JUMP JUMPDEST PUSH1 0x1 PUSH1 0x1 PUSH1 0xA0 SHL SUB AND PUSH4 0xAAABADC5 PUSH1 0x40 MLOAD DUP2 PUSH4 0xFFFFFFFF AND PUSH1 0xE0 SHL DUP2 MSTORE PUSH1 0x4 ADD PUSH1 0x20 PUSH1 0x40 MLOAD DUP1 DUP4 SUB DUP2 DUP7 DUP1 EXTCODESIZE ISZERO DUP1 ISZERO PUSH2 0x317A JUMPI PUSH1 0x0 DUP1 REVERT JUMPDEST POP GAS STATICCALL ISZERO DUP1 ISZERO PUSH2 0x318E JUMPI RETURNDATASIZE PUSH1 0x0 DUP1 RETURNDATACOPY RETURNDATASIZE PUSH1 0x0 REVERT JUMPDEST POP POP POP POP PUSH1 0x40 MLOAD RETURNDATASIZE PUSH1 0x1F NOT PUSH1 0x1F DUP3 ADD AND DUP3 ADD DUP1 PUSH1 0x40 MSTORE POP DUP2 ADD SWAP1 PUSH2 0x840 SWAP2 SWAP1 PUSH2 0x4324 JUMP JUMPDEST PUSH1 0x0 PUSH2 0x31BC PUSH2 0x1FB4 JUMP JUMPDEST DUP3 PUSH1 0x40 MLOAD PUSH1 0x20 ADD DUP1 DUP1 PUSH2 0x1901 PUSH1 0xF0 SHL DUP2 MSTORE POP PUSH1 0x2 ADD DUP4 DUP2 MSTORE PUSH1 0x20 ADD DUP3 DUP2 MSTORE PUSH1 0x20 ADD SWAP3 POP POP POP PUSH1 0x40 MLOAD PUSH1 0x20 DUP2 DUP4 SUB SUB DUP2 MSTORE SWAP1 PUSH1 0x40 MSTORE DUP1 MLOAD SWAP1 PUSH1 0x20 ADD KECCAK256 SWAP1 POP SWAP2 SWAP1 POP JUMP JUMPDEST PUSH1 0x0 PUSH1 0x60 PUSH1 0x0 PUSH2 0x320D DUP5 PUSH2 0x3D99 JUMP JUMPDEST SWAP1 POP PUSH2 0x3228 PUSH1 0x0 DUP3 PUSH1 0x3 DUP2 GT ISZERO PUSH2 0x3220 JUMPI INVALID JUMPDEST EQ PUSH1 0xCE PUSH2 0x1EBE JUMP JUMPDEST PUSH1 0x0 PUSH2 0x3233 DUP6 PUSH2 0x3DB8 JUMP JUMPDEST SWAP1 POP PUSH2 0x3241 DUP2 MLOAD PUSH1 0x2 PUSH2 0x214F JUMP JUMPDEST PUSH2 0x324A DUP2 PUSH2 0x255A JUMP JUMPDEST PUSH1 0x0 DUP1 PUSH2 0x3255 PUSH2 0x25C6 JUMP JUMPDEST SWAP2 POP SWAP2 POP PUSH1 0x0 PUSH20 0x0 PUSH4 0xD83CA862 DUP6 DUP6 DUP6 PUSH1 0x40 MLOAD DUP5 PUSH4 0xFFFFFFFF AND PUSH1 0xE0 SHL DUP2 MSTORE PUSH1 0x4 ADD PUSH2 0x3296 SWAP4 SWAP3 SWAP2 SWAP1 PUSH2 0x48D9 JUMP JUMPDEST PUSH1 0x20 PUSH1 0x40 MLOAD DUP1 DUP4 SUB DUP2 DUP7 DUP1 EXTCODESIZE ISZERO DUP1 ISZERO PUSH2 0x32AE JUMPI PUSH1 0x0 DUP1 REVERT JUMPDEST POP GAS DELEGATECALL ISZERO DUP1 ISZERO PUSH2 0x32C2 JUMPI RETURNDATASIZE PUSH1 0x0 DUP1 RETURNDATACOPY RETURNDATASIZE PUSH1 0x0 REVERT JUMPDEST POP POP POP POP PUSH1 0x40 MLOAD RETURNDATASIZE PUSH1 0x1F NOT PUSH1 0x1F DUP3 ADD AND DUP3 ADD DUP1 PUSH1 0x40 MSTORE POP DUP2 ADD SWAP1 PUSH2 0x32E6 SWAP2 SWAP1 PUSH2 0x4757 JUMP JUMPDEST SWAP1 POP PUSH32 0xAF65F1A72BF4F8BC48E8153858E1F7B307CE39C88361A677C0A79C2A1AE571EF DUP2 PUSH1 0x40 MLOAD PUSH2 0x3317 SWAP2 SWAP1 PUSH2 0x49EC JUMP JUMPDEST PUSH1 0x40 MLOAD DUP1 SWAP2 SUB SWAP1 LOG1 PUSH1 0x0 PUSH2 0x332D DUP6 DUP4 DUP7 DUP7 PUSH2 0x2A83 JUMP JUMPDEST SWAP1 POP PUSH1 0x0 PUSH2 0x3375 PUSH2 0x335B DUP4 DUP9 PUSH1 0x0 DUP2 MLOAD DUP2 LT PUSH2 0x3345 JUMPI INVALID JUMPDEST PUSH1 0x20 MUL PUSH1 0x20 ADD ADD MLOAD PUSH2 0x37C5 SWAP1 SWAP2 SWAP1 PUSH4 0xFFFFFFFF AND JUMP JUMPDEST DUP8 PUSH1 0x1 DUP2 MLOAD DUP2 LT PUSH2 0x3368 JUMPI INVALID JUMPDEST PUSH1 0x20 MUL PUSH1 0x20 ADD ADD MLOAD PUSH2 0x20F0 JUMP JUMPDEST PUSH1 0x9 SWAP4 SWAP1 SWAP4 SSTORE POP SWAP1 SWAP12 SWAP4 SWAP11 POP SWAP3 SWAP9 POP POP POP POP POP POP POP POP POP JUMP JUMPDEST PUSH2 0x1BCD DUP3 DUP3 PUSH2 0x3E6C JUMP JUMPDEST PUSH1 0x1 PUSH1 0x1 PUSH1 0xA0 SHL SUB SWAP2 DUP3 AND PUSH1 0x0 SWAP1 DUP2 MSTORE PUSH1 0x1 PUSH1 0x20 SWAP1 DUP2 MSTORE PUSH1 0x40 DUP1 DUP4 KECCAK256 SWAP4 SWAP1 SWAP5 AND DUP3 MSTORE SWAP2 SWAP1 SWAP2 MSTORE KECCAK256 SLOAD SWAP1 JUMP JUMPDEST PUSH1 0x40 DUP1 MLOAD PUSH1 0x2 DUP1 DUP3 MSTORE PUSH1 0x60 DUP1 DUP4 ADD DUP5 MSTORE SWAP3 PUSH1 0x0 SWAP3 SWAP2 SWAP1 PUSH1 0x20 DUP4 ADD SWAP1 DUP1 CALLDATASIZE DUP4 CALLDATACOPY ADD SWAP1 POP POP SWAP1 POP PUSH2 0x33F2 PUSH1 0x1 PUSH2 0x3F01 JUMP JUMPDEST DUP2 PUSH1 0x0 DUP2 MLOAD DUP2 LT PUSH2 0x33FF JUMPI INVALID JUMPDEST PUSH1 0x20 MUL PUSH1 0x20 ADD ADD DUP2 DUP2 MSTORE POP POP PUSH2 0x3415 PUSH1 0x0 PUSH2 0x3F01 JUMP JUMPDEST DUP2 PUSH1 0x1 DUP2 MLOAD DUP2 LT PUSH2 0x3422 JUMPI INVALID JUMPDEST PUSH1 0x20 SWAP1 DUP2 MUL SWAP2 SWAP1 SWAP2 ADD ADD MSTORE SWAP1 POP SWAP1 JUMP JUMPDEST PUSH1 0x2 DUP2 MLOAD LT ISZERO PUSH2 0x3441 JUMPI PUSH2 0x785 JUMP JUMPDEST PUSH1 0x0 DUP2 PUSH1 0x0 DUP2 MLOAD DUP2 LT PUSH2 0x3450 JUMPI INVALID JUMPDEST PUSH1 0x20 MUL PUSH1 0x20 ADD ADD MLOAD SWAP1 POP PUSH1 0x0 PUSH1 0x1 SWAP1 POP JUMPDEST DUP3 MLOAD DUP2 LT ISZERO PUSH2 0x1CA9 JUMPI PUSH1 0x0 DUP4 DUP3 DUP2 MLOAD DUP2 LT PUSH2 0x3478 JUMPI INVALID JUMPDEST PUSH1 0x20 MUL PUSH1 0x20 ADD ADD MLOAD SWAP1 POP PUSH2 0x34A1 DUP2 PUSH1 0x1 PUSH1 0x1 PUSH1 0xA0 SHL SUB AND DUP5 PUSH1 0x1 PUSH1 0x1 PUSH1 0xA0 SHL SUB AND LT PUSH1 0x65 PUSH2 0x1EBE JUMP JUMPDEST SWAP2 POP PUSH1 0x1 ADD PUSH2 0x3461 JUMP JUMPDEST DUP2 PUSH2 0x1BCD JUMPI PUSH2 0x1BCD DUP2 PUSH2 0x3F55 JUMP JUMPDEST PUSH1 0x0 PUSH2 0x826 PUSH2 0x34D9 DUP4 PUSH1 0x20 ADD MLOAD DUP6 PUSH1 0x20 ADD MLOAD PUSH2 0x1CE8 SWAP1 SWAP2 SWAP1 PUSH4 0xFFFFFFFF AND JUMP JUMPDEST DUP4 MLOAD DUP6 MLOAD PUSH2 0x34E6 SWAP2 PUSH2 0x1CE8 JUMP JUMPDEST SWAP1 PUSH2 0x1D24 JUMP JUMPDEST PUSH1 0x0 PUSH20 0xBA1BA1BA1BA1BA1BA1BA1BA1BA1BA1BA1BA1BA1B PUSH2 0x350B PUSH2 0x1190 JUMP JUMPDEST PUSH1 0x1 PUSH1 0x1 PUSH1 0xA0 SHL SUB AND EQ ISZERO DUP1 ISZERO PUSH2 0x3526 JUMPI POP PUSH2 0x3526 DUP4 PUSH2 0x3F65 JUMP JUMPDEST ISZERO PUSH2 0x354E JUMPI PUSH2 0x3533 PUSH2 0x1190 JUMP JUMPDEST PUSH1 0x1 PUSH1 0x1 PUSH1 0xA0 SHL SUB AND CALLER PUSH1 0x1 PUSH1 0x1 PUSH1 0xA0 SHL SUB AND EQ SWAP1 POP PUSH2 0x6BD JUMP JUMPDEST PUSH2 0x3556 PUSH2 0x3138 JUMP JUMPDEST PUSH1 0x1 PUSH1 0x1 PUSH1 0xA0 SHL SUB AND PUSH4 0x9BE2A884 DUP5 DUP5 ADDRESS PUSH1 0x40 MLOAD DUP5 PUSH4 0xFFFFFFFF AND PUSH1 0xE0 SHL DUP2 MSTORE PUSH1 0x4 ADD DUP1 DUP5 DUP2 MSTORE PUSH1 0x20 ADD DUP4 PUSH1 0x1 PUSH1 0x1 PUSH1 0xA0 SHL SUB AND DUP2 MSTORE PUSH1 0x20 ADD DUP3 PUSH1 0x1 PUSH1 0x1 PUSH1 0xA0 SHL SUB AND DUP2 MSTORE PUSH1 0x20 ADD SWAP4 POP POP POP POP PUSH1 0x20 PUSH1 0x40 MLOAD DUP1 DUP4 SUB DUP2 DUP7 DUP1 EXTCODESIZE ISZERO DUP1 ISZERO PUSH2 0x35BB JUMPI PUSH1 0x0 DUP1 REVERT JUMPDEST POP GAS STATICCALL ISZERO DUP1 ISZERO PUSH2 0x35CF JUMPI RETURNDATASIZE PUSH1 0x0 DUP1 RETURNDATACOPY RETURNDATASIZE PUSH1 0x0 REVERT JUMPDEST POP POP POP POP PUSH1 0x40 MLOAD RETURNDATASIZE PUSH1 0x20 DUP2 LT ISZERO PUSH2 0x35E5 JUMPI PUSH1 0x0 DUP1 REVERT JUMPDEST POP MLOAD SWAP1 POP PUSH2 0x6BD JUMP JUMPDEST PUSH1 0x0 PUSH2 0x35FD DUP5 DUP5 GT ISZERO DUP4 PUSH2 0x1EBE JUMP JUMPDEST POP POP SWAP1 SUB SWAP1 JUMP JUMPDEST CHAINID SWAP1 JUMP JUMPDEST PUSH1 0x0 DUP3 DUP3 SHR PUSH3 0x3FFFFF AND PUSH3 0x1FFFFF DUP2 SGT PUSH2 0x3622 JUMPI DUP1 PUSH2 0x2E3B JUMP JUMPDEST PUSH3 0x3FFFFF NOT OR SWAP4 SWAP3 POP POP POP JUMP JUMPDEST SHR PUSH4 0x7FFFFFFF AND SWAP1 JUMP JUMPDEST SHR PUSH2 0x3FF AND SWAP1 JUMP JUMPDEST SHR PUSH1 0x1 SWAP1 DUP2 AND EQ SWAP1 JUMP JUMPDEST SHR PUSH8 0xFFFFFFFFFFFFFFFF AND SWAP1 JUMP JUMPDEST PUSH1 0x0 DUP1 PUSH1 0x0 DUP1 PUSH2 0x366B PUSH1 0x9 SLOAD DUP7 PUSH2 0x245B JUMP JUMPDEST SWAP4 POP SWAP4 POP SWAP4 POP SWAP4 POP PUSH2 0x367F DUP5 DUP5 DUP5 DUP5 PUSH2 0x3F97 JUMP JUMPDEST POP POP POP POP POP JUMP JUMPDEST PUSH1 0x0 PUSH1 0x60 PUSH1 0x0 PUSH2 0x3695 DUP5 PUSH2 0x3D99 JUMP JUMPDEST SWAP1 POP PUSH1 0x1 DUP2 PUSH1 0x3 DUP2 GT ISZERO PUSH2 0x36A5 JUMPI INVALID JUMPDEST EQ ISZERO PUSH2 0x36BF JUMPI PUSH2 0x36B5 DUP6 DUP6 PUSH2 0x3FBD JUMP JUMPDEST SWAP1 SWAP4 POP SWAP2 POP PUSH2 0x36CA JUMP JUMPDEST PUSH2 0x36CA PUSH2 0x150 PUSH2 0x2CC3 JUMP JUMPDEST POP SWAP3 POP SWAP3 SWAP1 POP JUMP JUMPDEST PUSH1 0x0 DUP2 ISZERO PUSH2 0x3704 JUMPI PUSH1 0x0 PUSH2 0x36F0 DUP5 PUSH2 0x36EA DUP9 DUP9 PUSH2 0x2EE9 JUMP JUMPDEST SWAP1 PUSH2 0x307D JUMP JUMPDEST SWAP1 POP PUSH2 0x36FC DUP7 DUP3 PUSH2 0x24C4 JUMP JUMPDEST SWAP2 POP POP PUSH2 0x2E3B JUMP JUMPDEST PUSH1 0x0 PUSH2 0x3714 DUP5 PUSH2 0xB44 DUP9 DUP9 PUSH2 0x37C5 JUMP JUMPDEST SWAP1 POP PUSH2 0x3720 DUP7 DUP3 PUSH2 0x2F3E JUMP JUMPDEST SWAP7 SWAP6 POP POP POP POP POP POP JUMP JUMPDEST PUSH1 0x0 DUP1 DUP7 DUP7 GT PUSH2 0x373F JUMPI POP PUSH1 0x0 SWAP1 POP DUP1 PUSH2 0x37BB JUMP JUMPDEST PUSH1 0x0 PUSH2 0x375F DUP6 PUSH2 0x3759 PUSH2 0x3752 DUP11 DUP13 PUSH2 0x2F3E JUMP JUMPDEST DUP10 SWAP1 PUSH2 0x37C5 JUMP JUMPDEST SWAP1 PUSH2 0x37C5 JUMP JUMPDEST SWAP1 POP PUSH1 0x0 PUSH2 0x3777 PUSH2 0x3770 DUP10 DUP12 PUSH2 0x2F3E JUMP JUMPDEST DUP8 SWAP1 PUSH2 0x37C5 JUMP JUMPDEST SWAP1 POP PUSH1 0x0 PUSH2 0x3785 DUP10 DUP4 PUSH2 0x2F3E JUMP JUMPDEST SWAP1 POP PUSH1 0x0 PUSH2 0x3793 DUP5 DUP4 PUSH2 0x24DC JUMP JUMPDEST SWAP1 POP PUSH1 0x0 PUSH2 0x37A1 DUP9 DUP4 PUSH2 0x37C5 JUMP JUMPDEST SWAP1 POP PUSH1 0x0 PUSH2 0x37AF DUP4 DUP4 PUSH2 0x2F3E JUMP JUMPDEST SWAP2 SWAP8 POP SWAP1 SWAP6 POP POP POP POP POP POP JUMPDEST SWAP6 POP SWAP6 SWAP4 POP POP POP POP JUMP JUMPDEST PUSH1 0x0 DUP3 DUP3 MUL DUP4 ISZERO DUP1 PUSH2 0x37DF JUMPI POP DUP3 DUP5 DUP3 DUP2 PUSH2 0x37DC JUMPI INVALID JUMPDEST DIV EQ JUMPDEST PUSH2 0x37EF JUMPI PUSH2 0x37EF PUSH1 0x0 PUSH1 0x3 PUSH2 0x1EBE JUMP JUMPDEST PUSH8 0xDE0B6B3A7640000 DUP2 PUSH2 0x252D JUMP JUMPDEST PUSH2 0x3815 PUSH1 0x1 PUSH1 0x1 PUSH1 0xA0 SHL SUB DUP4 AND ISZERO ISZERO PUSH2 0x19B PUSH2 0x1EBE JUMP JUMPDEST PUSH2 0x3821 DUP3 PUSH1 0x0 DUP4 PUSH2 0x1CA9 JUMP JUMPDEST PUSH1 0x1 PUSH1 0x1 PUSH1 0xA0 SHL SUB DUP3 AND PUSH1 0x0 SWAP1 DUP2 MSTORE PUSH1 0x20 DUP2 SWAP1 MSTORE PUSH1 0x40 SWAP1 KECCAK256 SLOAD PUSH2 0x3847 SWAP1 DUP3 PUSH2 0x1A1 PUSH2 0x35EE JUMP JUMPDEST PUSH1 0x1 PUSH1 0x1 PUSH1 0xA0 SHL SUB DUP4 AND PUSH1 0x0 SWAP1 DUP2 MSTORE PUSH1 0x20 DUP2 SWAP1 MSTORE PUSH1 0x40 SWAP1 KECCAK256 SSTORE PUSH1 0x2 SLOAD PUSH2 0x386D SWAP1 DUP3 PUSH2 0x3FEF JUMP JUMPDEST PUSH1 0x2 SSTORE PUSH1 0x40 DUP1 MLOAD DUP3 DUP2 MSTORE SWAP1 MLOAD PUSH1 0x0 SWAP2 PUSH1 0x1 PUSH1 0x1 PUSH1 0xA0 SHL SUB DUP6 AND SWAP2 PUSH32 0xDDF252AD1BE2C89B69C2B068FC378DAA952BA7F163C4A11628F55A4DF523B3EF SWAP2 DUP2 SWAP1 SUB PUSH1 0x20 ADD SWAP1 LOG3 POP POP JUMP JUMPDEST PUSH1 0x0 PUSH1 0x60 PUSH1 0x0 PUSH2 0x38C4 DUP5 PUSH2 0x3D99 JUMP JUMPDEST SWAP1 POP PUSH1 0x3 DUP2 PUSH1 0x3 DUP2 GT ISZERO PUSH2 0x38D4 JUMPI INVALID JUMPDEST EQ ISZERO PUSH2 0x38E4 JUMPI PUSH2 0x36B5 DUP6 DUP6 PUSH2 0x3FFD JUMP JUMPDEST PUSH2 0x36CA PUSH2 0x136 PUSH2 0x2CC3 JUMP JUMPDEST PUSH1 0x40 DUP1 MLOAD PUSH1 0x60 DUP2 ADD DUP3 MSTORE PUSH1 0xA SLOAD PUSH1 0xFF DUP2 AND ISZERO ISZERO DUP3 MSTORE PUSH2 0x100 DUP2 DIV PUSH1 0x1 PUSH1 0x1 PUSH1 0x78 SHL SUB AND PUSH1 0x20 DUP4 ADD DUP2 SWAP1 MSTORE PUSH1 0x1 PUSH1 0x80 SHL SWAP1 SWAP2 DIV PUSH1 0x1 PUSH1 0x1 PUSH1 0x80 SHL SUB AND SWAP3 DUP3 ADD SWAP3 SWAP1 SWAP3 MSTORE SWAP1 PUSH2 0x393C DUP6 DUP6 PUSH2 0x24C4 JUMP JUMPDEST GT ISZERO PUSH1 0x40 MLOAD DUP1 PUSH1 0x40 ADD PUSH1 0x40 MSTORE DUP1 PUSH1 0x1A DUP2 MSTORE PUSH1 0x20 ADD PUSH32 0x6F7665722061646472657373206C697175696469747920636170000000000000 DUP2 MSTORE POP SWAP1 PUSH2 0x3992 JUMPI PUSH1 0x40 MLOAD PUSH3 0x461BCD PUSH1 0xE5 SHL DUP2 MSTORE PUSH1 0x4 ADD PUSH2 0x714 SWAP2 SWAP1 PUSH2 0x4A36 JUMP JUMPDEST POP PUSH1 0x40 DUP2 ADD MLOAD PUSH1 0x1 PUSH1 0x1 PUSH1 0x80 SHL SUB AND PUSH2 0x39AB DUP6 DUP5 PUSH2 0x24C4 JUMP JUMPDEST GT ISZERO PUSH1 0x40 MLOAD DUP1 PUSH1 0x40 ADD PUSH1 0x40 MSTORE DUP1 PUSH1 0x19 DUP2 MSTORE PUSH1 0x20 ADD PUSH32 0x6F76657220676C6F62616C206C69717569646974792063617000000000000000 DUP2 MSTORE POP SWAP1 PUSH2 0x367F JUMPI PUSH1 0x40 MLOAD PUSH3 0x461BCD PUSH1 0xE5 SHL DUP2 MSTORE PUSH1 0x4 ADD PUSH2 0x714 SWAP2 SWAP1 PUSH2 0x4A36 JUMP JUMPDEST PUSH1 0x0 DUP1 PUSH1 0x0 PUSH2 0x3A0E PUSH2 0x11B4 JUMP JUMPDEST PUSH1 0x1 PUSH1 0x1 PUSH1 0xA0 SHL SUB AND PUSH4 0xB05F8E48 PUSH2 0x3A24 PUSH2 0x85E JUMP JUMPDEST DUP8 PUSH1 0x40 MLOAD DUP4 PUSH4 0xFFFFFFFF AND PUSH1 0xE0 SHL DUP2 MSTORE PUSH1 0x4 ADD PUSH2 0x3A42 SWAP3 SWAP2 SWAP1 PUSH2 0x49F5 JUMP JUMPDEST PUSH1 0x80 PUSH1 0x40 MLOAD DUP1 DUP4 SUB DUP2 DUP7 DUP1 EXTCODESIZE ISZERO DUP1 ISZERO PUSH2 0x3A5A JUMPI PUSH1 0x0 DUP1 REVERT JUMPDEST POP GAS STATICCALL ISZERO DUP1 ISZERO PUSH2 0x3A6E JUMPI RETURNDATASIZE PUSH1 0x0 DUP1 RETURNDATACOPY RETURNDATASIZE PUSH1 0x0 REVERT JUMPDEST POP POP POP POP PUSH1 0x40 MLOAD RETURNDATASIZE PUSH1 0x1F NOT PUSH1 0x1F DUP3 ADD AND DUP3 ADD DUP1 PUSH1 0x40 MSTORE POP DUP2 ADD SWAP1 PUSH2 0x3A92 SWAP2 SWAP1 PUSH2 0x476F JUMP JUMPDEST POP POP DUP2 DUP2 ADD SWAP5 POP SWAP1 SWAP3 POP SWAP1 POP PUSH2 0x2B1A DUP4 DUP6 PUSH2 0x37C5 JUMP JUMPDEST PUSH1 0x0 PUSH1 0x1 PUSH1 0xFF SHL DUP3 LT PUSH2 0x2CBF JUMPI PUSH1 0x40 MLOAD PUSH3 0x461BCD PUSH1 0xE5 SHL DUP2 MSTORE PUSH1 0x4 ADD DUP1 DUP1 PUSH1 0x20 ADD DUP3 DUP2 SUB DUP3 MSTORE PUSH1 0x28 DUP2 MSTORE PUSH1 0x20 ADD DUP1 PUSH2 0x4BED PUSH1 0x28 SWAP2 CODECOPY PUSH1 0x40 ADD SWAP2 POP POP PUSH1 0x40 MLOAD DUP1 SWAP2 SUB SWAP1 REVERT JUMPDEST PUSH1 0x40 DUP1 MLOAD PUSH1 0x20 DUP1 DUP3 ADD DUP7 SWAP1 MSTORE PUSH1 0x1 PUSH1 0x1 PUSH1 0xA0 SHL SUB DUP1 DUP6 AND DUP4 DUP6 ADD MSTORE DUP4 MLOAD DUP1 DUP5 SUB DUP6 ADD DUP2 MSTORE PUSH1 0x60 DUP5 ADD DUP1 DUP7 MSTORE DUP2 MLOAD SWAP2 DUP5 ADD SWAP2 SWAP1 SWAP2 KECCAK256 PUSH4 0x696EB375 PUSH1 0xE0 SHL SWAP1 SWAP2 MSTORE PUSH1 0x64 DUP5 ADD DUP2 SWAP1 MSTORE SWAP4 MLOAD PUSH1 0x0 SWAP5 SWAP4 SWAP2 DUP10 AND SWAP3 PUSH4 0x696EB375 SWAP3 PUSH1 0x84 DUP1 DUP3 ADD SWAP4 SWAP2 DUP3 SWAP1 SUB ADD DUP2 DUP7 DUP1 EXTCODESIZE ISZERO DUP1 ISZERO PUSH2 0x3B5D JUMPI PUSH1 0x0 DUP1 REVERT JUMPDEST POP GAS STATICCALL ISZERO DUP1 ISZERO PUSH2 0x3B71 JUMPI RETURNDATASIZE PUSH1 0x0 DUP1 RETURNDATACOPY RETURNDATASIZE PUSH1 0x0 REVERT JUMPDEST POP POP POP POP PUSH1 0x40 MLOAD RETURNDATASIZE PUSH1 0x20 DUP2 LT ISZERO PUSH2 0x3B87 JUMPI PUSH1 0x0 DUP1 REVERT JUMPDEST POP MLOAD ISZERO PUSH2 0x3C07 JUMPI DUP6 PUSH1 0x1 PUSH1 0x1 PUSH1 0xA0 SHL SUB AND PUSH4 0xBD02D0F5 DUP3 PUSH1 0x40 MLOAD DUP3 PUSH4 0xFFFFFFFF AND PUSH1 0xE0 SHL DUP2 MSTORE PUSH1 0x4 ADD DUP1 DUP3 DUP2 MSTORE PUSH1 0x20 ADD SWAP2 POP POP PUSH1 0x20 PUSH1 0x40 MLOAD DUP1 DUP4 SUB DUP2 DUP7 DUP1 EXTCODESIZE ISZERO DUP1 ISZERO PUSH2 0x3BD2 JUMPI PUSH1 0x0 DUP1 REVERT JUMPDEST POP GAS STATICCALL ISZERO DUP1 ISZERO PUSH2 0x3BE6 JUMPI RETURNDATASIZE PUSH1 0x0 DUP1 RETURNDATACOPY RETURNDATASIZE PUSH1 0x0 REVERT JUMPDEST POP POP POP POP PUSH1 0x40 MLOAD RETURNDATASIZE PUSH1 0x20 DUP2 LT ISZERO PUSH2 0x3BFC JUMPI PUSH1 0x0 DUP1 REVERT JUMPDEST POP MLOAD SWAP2 POP PUSH2 0x2E3B SWAP1 POP JUMP JUMPDEST PUSH1 0x40 DUP1 MLOAD PUSH1 0x20 DUP1 DUP3 ADD DUP9 SWAP1 MSTORE DUP2 DUP4 ADD DUP8 SWAP1 MSTORE DUP3 MLOAD DUP1 DUP4 SUB DUP5 ADD DUP2 MSTORE PUSH1 0x60 DUP4 ADD DUP1 DUP6 MSTORE DUP2 MLOAD SWAP2 DUP4 ADD SWAP2 SWAP1 SWAP2 KECCAK256 PUSH4 0x696EB375 PUSH1 0xE0 SHL SWAP1 SWAP2 MSTORE PUSH1 0x64 DUP4 ADD DUP2 SWAP1 MSTORE SWAP3 MLOAD PUSH1 0x1 PUSH1 0x1 PUSH1 0xA0 SHL SUB DUP11 AND SWAP3 PUSH4 0x696EB375 SWAP3 PUSH1 0x84 DUP1 DUP4 ADD SWAP4 SWAP2 SWAP3 DUP3 SWAP1 SUB ADD DUP2 DUP7 DUP1 EXTCODESIZE ISZERO DUP1 ISZERO PUSH2 0x3C73 JUMPI PUSH1 0x0 DUP1 REVERT JUMPDEST POP GAS STATICCALL ISZERO DUP1 ISZERO PUSH2 0x3C87 JUMPI RETURNDATASIZE PUSH1 0x0 DUP1 RETURNDATACOPY RETURNDATASIZE PUSH1 0x0 REVERT JUMPDEST POP POP POP POP PUSH1 0x40 MLOAD RETURNDATASIZE PUSH1 0x20 DUP2 LT ISZERO PUSH2 0x3C9D JUMPI PUSH1 0x0 DUP1 REVERT JUMPDEST POP MLOAD ISZERO PUSH2 0x3D1E JUMPI DUP7 PUSH1 0x1 PUSH1 0x1 PUSH1 0xA0 SHL SUB AND PUSH4 0xBD02D0F5 DUP3 PUSH1 0x40 MLOAD DUP3 PUSH4 0xFFFFFFFF AND PUSH1 0xE0 SHL DUP2 MSTORE PUSH1 0x4 ADD DUP1 DUP3 DUP2 MSTORE PUSH1 0x20 ADD SWAP2 POP POP PUSH1 0x20 PUSH1 0x40 MLOAD DUP1 DUP4 SUB DUP2 DUP7 DUP1 EXTCODESIZE ISZERO DUP1 ISZERO PUSH2 0x3CE8 JUMPI PUSH1 0x0 DUP1 REVERT JUMPDEST POP GAS STATICCALL ISZERO DUP1 ISZERO PUSH2 0x3CFC JUMPI RETURNDATASIZE PUSH1 0x0 DUP1 RETURNDATACOPY RETURNDATASIZE PUSH1 0x0 REVERT JUMPDEST POP POP POP POP PUSH1 0x40 MLOAD RETURNDATASIZE PUSH1 0x20 DUP2 LT ISZERO PUSH2 0x3D12 JUMPI PUSH1 0x0 DUP1 REVERT JUMPDEST POP MLOAD SWAP3 POP PUSH2 0x2E3B SWAP2 POP POP JUMP JUMPDEST DUP7 PUSH1 0x1 PUSH1 0x1 PUSH1 0xA0 SHL SUB AND PUSH4 0xBD02D0F5 DUP8 PUSH1 0x40 MLOAD DUP3 PUSH4 0xFFFFFFFF AND PUSH1 0xE0 SHL DUP2 MSTORE PUSH1 0x4 ADD DUP1 DUP3 DUP2 MSTORE PUSH1 0x20 ADD SWAP2 POP POP PUSH1 0x20 PUSH1 0x40 MLOAD DUP1 DUP4 SUB DUP2 DUP7 DUP1 EXTCODESIZE ISZERO DUP1 ISZERO PUSH2 0x3D62 JUMPI PUSH1 0x0 DUP1 REVERT JUMPDEST POP GAS STATICCALL ISZERO DUP1 ISZERO PUSH2 0x3D76 JUMPI RETURNDATASIZE PUSH1 0x0 DUP1 RETURNDATACOPY RETURNDATASIZE PUSH1 0x0 REVERT JUMPDEST POP POP POP POP PUSH1 0x40 MLOAD RETURNDATASIZE PUSH1 0x20 DUP2 LT ISZERO PUSH2 0x3D8C JUMPI PUSH1 0x0 DUP1 REVERT JUMPDEST POP MLOAD SWAP8 SWAP7 POP POP POP POP POP POP POP JUMP JUMPDEST PUSH1 0x0 DUP2 DUP1 PUSH1 0x20 ADD SWAP1 MLOAD PUSH1 0x20 DUP2 LT ISZERO PUSH2 0x3DB0 JUMPI PUSH1 0x0 DUP1 REVERT JUMPDEST POP MLOAD SWAP3 SWAP2 POP POP JUMP JUMPDEST PUSH1 0x60 DUP2 DUP1 PUSH1 0x20 ADD SWAP1 MLOAD PUSH1 0x40 DUP2 LT ISZERO PUSH2 0x3DCF JUMPI PUSH1 0x0 DUP1 REVERT JUMPDEST DUP2 MLOAD PUSH1 0x20 DUP4 ADD DUP1 MLOAD PUSH1 0x40 MLOAD SWAP3 SWAP5 SWAP3 SWAP4 DUP4 ADD SWAP3 SWAP2 SWAP1 DUP5 PUSH5 0x100000000 DUP3 GT ISZERO PUSH2 0x3DF6 JUMPI PUSH1 0x0 DUP1 REVERT JUMPDEST SWAP1 DUP4 ADD SWAP1 PUSH1 0x20 DUP3 ADD DUP6 DUP2 GT ISZERO PUSH2 0x3E0B JUMPI PUSH1 0x0 DUP1 REVERT JUMPDEST DUP3 MLOAD DUP7 PUSH1 0x20 DUP3 MUL DUP4 ADD GT PUSH5 0x100000000 DUP3 GT OR ISZERO PUSH2 0x3E28 JUMPI PUSH1 0x0 DUP1 REVERT JUMPDEST DUP3 MSTORE POP DUP2 MLOAD PUSH1 0x20 SWAP2 DUP3 ADD SWAP3 DUP3 ADD SWAP2 MUL DUP1 DUP4 DUP4 PUSH1 0x0 JUMPDEST DUP4 DUP2 LT ISZERO PUSH2 0x3E55 JUMPI DUP2 DUP2 ADD MLOAD DUP4 DUP3 ADD MSTORE PUSH1 0x20 ADD PUSH2 0x3E3D JUMP JUMPDEST POP POP POP POP SWAP2 SWAP1 SWAP2 ADD PUSH1 0x40 MSTORE POP SWAP3 SWAP7 SWAP6 POP POP POP POP POP POP JUMP JUMPDEST PUSH2 0x3E78 PUSH1 0x0 DUP4 DUP4 PUSH2 0x1CA9 JUMP JUMPDEST PUSH1 0x2 SLOAD PUSH2 0x3E85 SWAP1 DUP3 PUSH2 0x20F0 JUMP JUMPDEST PUSH1 0x2 SSTORE PUSH1 0x1 PUSH1 0x1 PUSH1 0xA0 SHL SUB DUP3 AND PUSH1 0x0 SWAP1 DUP2 MSTORE PUSH1 0x20 DUP2 SWAP1 MSTORE PUSH1 0x40 SWAP1 KECCAK256 SLOAD PUSH2 0x3EAB SWAP1 DUP3 PUSH2 0x20F0 JUMP JUMPDEST PUSH1 0x1 PUSH1 0x1 PUSH1 0xA0 SHL SUB DUP4 AND PUSH1 0x0 DUP2 DUP2 MSTORE PUSH1 0x20 DUP2 DUP2 MSTORE PUSH1 0x40 DUP1 DUP4 KECCAK256 SWAP5 SWAP1 SWAP5 SSTORE DUP4 MLOAD DUP6 DUP2 MSTORE SWAP4 MLOAD SWAP3 SWAP4 SWAP2 SWAP3 PUSH32 0xDDF252AD1BE2C89B69C2B068FC378DAA952BA7F163C4A11628F55A4DF523B3EF SWAP3 DUP2 SWAP1 SUB SWAP1 SWAP2 ADD SWAP1 LOG3 POP POP JUMP JUMPDEST PUSH1 0x0 DUP2 PUSH2 0x3F2E JUMPI PUSH32 0x0 PUSH2 0x6BD JUMP JUMPDEST POP PUSH32 0x0 SWAP2 SWAP1 POP JUMP JUMPDEST PUSH2 0x785 DUP2 PUSH3 0x23ACA9 PUSH1 0xE9 SHL PUSH2 0x4022 JUMP JUMPDEST PUSH1 0x0 PUSH2 0x3F77 PUSH4 0x1C74C917 PUSH1 0xE1 SHL PUSH2 0x10D1 JUMP JUMPDEST DUP3 EQ DUP1 PUSH2 0x6BD JUMPI POP PUSH2 0x3F8F PUSH4 0x50DD6ED9 PUSH1 0xE0 SHL PUSH2 0x10D1 JUMP JUMPDEST SWAP1 SWAP2 EQ SWAP2 SWAP1 POP JUMP JUMPDEST DUP4 ISZERO PUSH2 0x3FA7 JUMPI PUSH2 0x3FA7 DUP3 DUP6 PUSH2 0x338E JUMP JUMPDEST DUP3 ISZERO PUSH2 0x3FB7 JUMPI PUSH2 0x3FB7 DUP2 DUP5 PUSH2 0x338E JUMP JUMPDEST POP POP POP POP JUMP JUMPDEST PUSH1 0x0 PUSH1 0x60 PUSH1 0x0 PUSH2 0x3FCC DUP5 PUSH2 0x4083 JUMP JUMPDEST SWAP1 POP PUSH1 0x0 PUSH2 0x3FE2 DUP7 DUP4 PUSH2 0x3FDD PUSH2 0x788 JUMP JUMPDEST PUSH2 0x40A5 JUMP JUMPDEST SWAP2 SWAP7 SWAP2 SWAP6 POP SWAP1 SWAP4 POP POP POP POP JUMP JUMPDEST PUSH1 0x0 PUSH2 0x826 DUP4 DUP4 PUSH1 0x1 PUSH2 0x35EE JUMP JUMPDEST PUSH1 0x0 PUSH1 0x60 PUSH1 0x0 PUSH2 0x400C DUP5 PUSH2 0x4083 JUMP JUMPDEST SWAP1 POP PUSH1 0x0 PUSH2 0x3FE2 DUP7 DUP4 PUSH2 0x401D PUSH2 0x788 JUMP JUMPDEST PUSH2 0x412B JUMP JUMPDEST PUSH3 0x461BCD PUSH1 0xE5 SHL PUSH1 0x0 SWAP1 DUP2 MSTORE PUSH1 0x20 PUSH1 0x4 MSTORE PUSH1 0x7 PUSH1 0x24 MSTORE PUSH1 0xA DUP1 DUP5 DIV DUP2 DUP2 MOD PUSH1 0x30 SWAP1 DUP2 ADD PUSH1 0x8 SHL SWAP6 DUP4 SWAP1 MOD SWAP6 SWAP1 SWAP6 ADD SWAP1 DUP3 SWAP1 DIV SWAP2 DUP3 MOD DUP6 ADD PUSH1 0x10 SHL ADD PUSH1 0x23 PUSH4 0xFFFFFF00 PUSH1 0xE0 DUP7 SWAP1 SHR AND ADD PUSH1 0x18 SHL ADD SWAP1 SWAP4 ADD PUSH1 0xC8 SHL PUSH1 0x44 MSTORE PUSH1 0xE8 DUP3 SWAP1 SHR SWAP1 PUSH1 0x64 SWAP1 REVERT JUMPDEST PUSH1 0x0 DUP2 DUP1 PUSH1 0x20 ADD SWAP1 MLOAD PUSH1 0x40 DUP2 LT ISZERO PUSH2 0x409A JUMPI PUSH1 0x0 DUP1 REVERT JUMPDEST POP PUSH1 0x20 ADD MLOAD SWAP3 SWAP2 POP POP JUMP JUMPDEST PUSH1 0x60 DUP4 MLOAD PUSH8 0xFFFFFFFFFFFFFFFF DUP2 GT DUP1 ISZERO PUSH2 0x40BF JUMPI PUSH1 0x0 DUP1 REVERT JUMPDEST POP PUSH1 0x40 MLOAD SWAP1 DUP1 DUP3 MSTORE DUP1 PUSH1 0x20 MUL PUSH1 0x20 ADD DUP3 ADD PUSH1 0x40 MSTORE DUP1 ISZERO PUSH2 0x40E9 JUMPI DUP2 PUSH1 0x20 ADD PUSH1 0x20 DUP3 MUL DUP1 CALLDATASIZE DUP4 CALLDATACOPY ADD SWAP1 POP JUMPDEST POP SWAP1 POP PUSH1 0x0 JUMPDEST DUP5 MLOAD DUP2 LT ISZERO PUSH2 0x16A1 JUMPI PUSH2 0x410C DUP4 PUSH2 0xB44 DUP7 DUP9 DUP6 DUP2 MLOAD DUP2 LT PUSH2 0x3345 JUMPI INVALID JUMPDEST DUP3 DUP3 DUP2 MLOAD DUP2 LT PUSH2 0x4118 JUMPI INVALID JUMPDEST PUSH1 0x20 SWAP1 DUP2 MUL SWAP2 SWAP1 SWAP2 ADD ADD MSTORE PUSH1 0x1 ADD PUSH2 0x40EF JUMP JUMPDEST PUSH1 0x60 DUP4 MLOAD PUSH8 0xFFFFFFFFFFFFFFFF DUP2 GT DUP1 ISZERO PUSH2 0x4145 JUMPI PUSH1 0x0 DUP1 REVERT JUMPDEST POP PUSH1 0x40 MLOAD SWAP1 DUP1 DUP3 MSTORE DUP1 PUSH1 0x20 MUL PUSH1 0x20 ADD DUP3 ADD PUSH1 0x40 MSTORE DUP1 ISZERO PUSH2 0x416F JUMPI DUP2 PUSH1 0x20 ADD PUSH1 0x20 DUP3 MUL DUP1 CALLDATASIZE DUP4 CALLDATACOPY ADD SWAP1 POP JUMPDEST POP SWAP1 POP PUSH1 0x0 JUMPDEST DUP5 MLOAD DUP2 LT ISZERO PUSH2 0x16A1 JUMPI PUSH2 0x41A8 DUP4 PUSH2 0x36EA DUP7 DUP9 DUP6 DUP2 MLOAD DUP2 LT PUSH2 0x4192 JUMPI INVALID JUMPDEST PUSH1 0x20 MUL PUSH1 0x20 ADD ADD MLOAD PUSH2 0x2EE9 SWAP1 SWAP2 SWAP1 PUSH4 0xFFFFFFFF AND JUMP JUMPDEST DUP3 DUP3 DUP2 MLOAD DUP2 LT PUSH2 0x41B4 JUMPI INVALID JUMPDEST PUSH1 0x20 SWAP1 DUP2 MUL SWAP2 SWAP1 SWAP2 ADD ADD MSTORE PUSH1 0x1 ADD PUSH2 0x4175 JUMP JUMPDEST PUSH1 0x40 DUP1 MLOAD PUSH1 0x60 DUP2 ADD DUP3 MSTORE PUSH1 0x0 DUP1 DUP3 MSTORE PUSH1 0x20 DUP3 ADD DUP2 SWAP1 MSTORE SWAP2 DUP2 ADD SWAP2 SWAP1 SWAP2 MSTORE SWAP1 JUMP JUMPDEST PUSH1 0x40 MLOAD DUP1 PUSH1 0xA0 ADD PUSH1 0x40 MSTORE DUP1 PUSH1 0x0 DUP2 MSTORE PUSH1 0x20 ADD PUSH1 0x0 DUP2 MSTORE PUSH1 0x20 ADD PUSH1 0x0 DUP2 MSTORE PUSH1 0x20 ADD PUSH1 0x0 DUP2 MSTORE PUSH1 0x20 ADD PUSH1 0x0 DUP2 MSTORE POP SWAP1 JUMP JUMPDEST PUSH1 0x40 MLOAD DUP1 PUSH1 0xE0 ADD PUSH1 0x40 MSTORE DUP1 PUSH2 0x4229 PUSH2 0x425F JUMP JUMPDEST DUP2 MSTORE PUSH1 0x20 ADD PUSH2 0x4236 PUSH2 0x425F JUMP JUMPDEST DUP2 MSTORE PUSH1 0x20 ADD PUSH1 0x0 DUP2 MSTORE PUSH1 0x20 ADD PUSH1 0x0 DUP2 MSTORE PUSH1 0x20 ADD PUSH1 0x0 DUP2 MSTORE PUSH1 0x20 ADD PUSH1 0x0 DUP2 MSTORE PUSH1 0x20 ADD PUSH1 0x0 DUP2 MSTORE POP SWAP1 JUMP JUMPDEST PUSH1 0x40 MLOAD DUP1 PUSH1 0x40 ADD PUSH1 0x40 MSTORE DUP1 PUSH1 0x0 DUP2 MSTORE PUSH1 0x20 ADD PUSH1 0x0 DUP2 MSTORE POP SWAP1 JUMP JUMPDEST DUP1 CALLDATALOAD PUSH2 0xD18 DUP2 PUSH2 0x4BD7 JUMP JUMPDEST DUP1 CALLDATALOAD DUP1 ISZERO ISZERO DUP2 EQ PUSH2 0xD18 JUMPI PUSH1 0x0 DUP1 REVERT JUMPDEST PUSH1 0x0 DUP3 PUSH1 0x1F DUP4 ADD SLT PUSH2 0x42A4 JUMPI DUP1 DUP2 REVERT JUMPDEST DUP2 CALLDATALOAD PUSH8 0xFFFFFFFFFFFFFFFF DUP2 GT ISZERO PUSH2 0x42B8 JUMPI INVALID JUMPDEST PUSH2 0x42CB PUSH1 0x1F DUP3 ADD PUSH1 0x1F NOT AND PUSH1 0x20 ADD PUSH2 0x4BB3 JUMP JUMPDEST DUP2 DUP2 MSTORE DUP5 PUSH1 0x20 DUP4 DUP7 ADD ADD GT ISZERO PUSH2 0x42DF JUMPI DUP3 DUP4 REVERT JUMPDEST DUP2 PUSH1 0x20 DUP6 ADD PUSH1 0x20 DUP4 ADD CALLDATACOPY SWAP1 DUP2 ADD PUSH1 0x20 ADD SWAP2 SWAP1 SWAP2 MSTORE SWAP3 SWAP2 POP POP JUMP JUMPDEST DUP1 CALLDATALOAD PUSH1 0x2 DUP2 LT PUSH2 0xD18 JUMPI PUSH1 0x0 DUP1 REVERT JUMPDEST PUSH1 0x0 PUSH1 0x20 DUP3 DUP5 SUB SLT ISZERO PUSH2 0x4319 JUMPI DUP1 DUP2 REVERT JUMPDEST DUP2 CALLDATALOAD PUSH2 0x826 DUP2 PUSH2 0x4BD7 JUMP JUMPDEST PUSH1 0x0 PUSH1 0x20 DUP3 DUP5 SUB SLT ISZERO PUSH2 0x4335 JUMPI DUP1 DUP2 REVERT JUMPDEST DUP2 MLOAD PUSH2 0x826 DUP2 PUSH2 0x4BD7 JUMP JUMPDEST PUSH1 0x0 DUP1 PUSH1 0x40 DUP4 DUP6 SUB SLT ISZERO PUSH2 0x4352 JUMPI DUP1 DUP2 REVERT JUMPDEST DUP3 CALLDATALOAD PUSH2 0x435D DUP2 PUSH2 0x4BD7 JUMP JUMPDEST SWAP2 POP PUSH1 0x20 DUP4 ADD CALLDATALOAD PUSH2 0x436D DUP2 PUSH2 0x4BD7 JUMP JUMPDEST DUP1 SWAP2 POP POP SWAP3 POP SWAP3 SWAP1 POP JUMP JUMPDEST PUSH1 0x0 DUP1 PUSH1 0x0 PUSH1 0x60 DUP5 DUP7 SUB SLT ISZERO PUSH2 0x438C JUMPI DUP1 DUP2 REVERT JUMPDEST DUP4 CALLDATALOAD PUSH2 0x4397 DUP2 PUSH2 0x4BD7 JUMP JUMPDEST SWAP3 POP PUSH1 0x20 DUP5 ADD CALLDATALOAD PUSH2 0x43A7 DUP2 PUSH2 0x4BD7 JUMP JUMPDEST SWAP3 SWAP6 SWAP3 SWAP5 POP POP POP PUSH1 0x40 SWAP2 SWAP1 SWAP2 ADD CALLDATALOAD SWAP1 JUMP JUMPDEST PUSH1 0x0 DUP1 PUSH1 0x0 DUP1 PUSH1 0x0 DUP1 PUSH1 0x0 PUSH1 0xE0 DUP9 DUP11 SUB SLT ISZERO PUSH2 0x43D2 JUMPI DUP3 DUP4 REVERT JUMPDEST DUP8 CALLDATALOAD PUSH2 0x43DD DUP2 PUSH2 0x4BD7 JUMP JUMPDEST SWAP7 POP PUSH1 0x20 DUP9 ADD CALLDATALOAD PUSH2 0x43ED DUP2 PUSH2 0x4BD7 JUMP JUMPDEST SWAP6 POP PUSH1 0x40 DUP9 ADD CALLDATALOAD SWAP5 POP PUSH1 0x60 DUP9 ADD CALLDATALOAD SWAP4 POP PUSH1 0x80 DUP9 ADD CALLDATALOAD PUSH1 0xFF DUP2 AND DUP2 EQ PUSH2 0x4410 JUMPI DUP4 DUP5 REVERT JUMPDEST SWAP7 SWAP10 SWAP6 SWAP9 POP SWAP4 SWAP7 SWAP3 SWAP6 SWAP5 PUSH1 0xA0 DUP5 ADD CALLDATALOAD SWAP5 POP PUSH1 0xC0 SWAP1 SWAP4 ADD CALLDATALOAD SWAP3 SWAP2 POP POP JUMP JUMPDEST PUSH1 0x0 DUP1 PUSH1 0x40 DUP4 DUP6 SUB SLT ISZERO PUSH2 0x443F JUMPI DUP2 DUP3 REVERT JUMPDEST DUP3 CALLDATALOAD PUSH2 0x444A DUP2 PUSH2 0x4BD7 JUMP JUMPDEST SWAP5 PUSH1 0x20 SWAP4 SWAP1 SWAP4 ADD CALLDATALOAD SWAP4 POP POP POP JUMP JUMPDEST PUSH1 0x0 PUSH1 0x20 DUP3 DUP5 SUB SLT ISZERO PUSH2 0x4469 JUMPI DUP1 DUP2 REVERT JUMPDEST PUSH2 0x826 DUP3 PUSH2 0x4284 JUMP JUMPDEST PUSH1 0x0 DUP1 PUSH1 0x0 DUP1 PUSH1 0x0 DUP1 PUSH1 0x0 PUSH1 0xE0 DUP9 DUP11 SUB SLT ISZERO PUSH2 0x448C JUMPI DUP1 DUP2 REVERT JUMPDEST DUP8 CALLDATALOAD SWAP7 POP PUSH1 0x20 DUP9 ADD CALLDATALOAD PUSH2 0x449E DUP2 PUSH2 0x4BD7 JUMP JUMPDEST SWAP6 POP PUSH1 0x40 DUP9 ADD CALLDATALOAD PUSH2 0x44AE DUP2 PUSH2 0x4BD7 JUMP JUMPDEST SWAP5 POP PUSH1 0x60 DUP9 ADD CALLDATALOAD PUSH8 0xFFFFFFFFFFFFFFFF DUP1 DUP3 GT ISZERO PUSH2 0x44CA JUMPI DUP3 DUP4 REVERT JUMPDEST DUP2 DUP11 ADD SWAP2 POP DUP11 PUSH1 0x1F DUP4 ADD SLT PUSH2 0x44DD JUMPI DUP3 DUP4 REVERT JUMPDEST DUP2 CALLDATALOAD DUP2 DUP2 GT ISZERO PUSH2 0x44E9 JUMPI INVALID JUMPDEST PUSH1 0x20 DUP2 MUL PUSH2 0x44F9 PUSH1 0x20 DUP3 ADD PUSH2 0x4BB3 JUMP JUMPDEST DUP1 DUP4 DUP3 MSTORE PUSH1 0x20 DUP3 ADD SWAP2 POP PUSH1 0x20 DUP7 ADD DUP16 PUSH1 0x20 DUP6 DUP10 ADD ADD GT ISZERO PUSH2 0x4518 JUMPI DUP8 DUP9 REVERT JUMPDEST DUP8 SWAP7 POP JUMPDEST DUP5 DUP8 LT ISZERO PUSH2 0x453B JUMPI DUP1 CALLDATALOAD DUP4 MSTORE PUSH1 0x1 SWAP7 SWAP1 SWAP7 ADD SWAP6 PUSH1 0x20 SWAP3 DUP4 ADD SWAP3 ADD PUSH2 0x451C JUMP JUMPDEST POP SWAP9 POP POP POP POP PUSH1 0x80 DUP11 ADD CALLDATALOAD SWAP5 POP PUSH1 0xA0 DUP11 ADD CALLDATALOAD SWAP4 POP PUSH1 0xC0 DUP11 ADD CALLDATALOAD SWAP2 POP DUP1 DUP3 GT ISZERO PUSH2 0x4562 JUMPI DUP3 DUP4 REVERT JUMPDEST POP PUSH2 0x456F DUP11 DUP3 DUP12 ADD PUSH2 0x4294 JUMP JUMPDEST SWAP2 POP POP SWAP3 SWAP6 SWAP9 SWAP2 SWAP5 SWAP8 POP SWAP3 SWAP6 POP JUMP JUMPDEST PUSH1 0x0 PUSH1 0x20 DUP3 DUP5 SUB SLT ISZERO PUSH2 0x458F JUMPI DUP1 DUP2 REVERT JUMPDEST DUP2 CALLDATALOAD PUSH1 0x1 PUSH1 0x1 PUSH1 0xE0 SHL SUB NOT DUP2 AND DUP2 EQ PUSH2 0x826 JUMPI DUP2 DUP3 REVERT JUMPDEST PUSH1 0x0 DUP1 PUSH1 0x40 DUP4 DUP6 SUB SLT ISZERO PUSH2 0x45B8 JUMPI DUP2 DUP3 REVERT JUMPDEST POP POP DUP1 MLOAD PUSH1 0x20 SWAP1 SWAP2 ADD MLOAD SWAP1 SWAP3 SWAP1 SWAP2 POP JUMP JUMPDEST PUSH1 0x0 PUSH1 0x60 DUP3 DUP5 SUB SLT ISZERO PUSH2 0x45DA JUMPI DUP1 DUP2 REVERT JUMPDEST PUSH1 0x40 MLOAD PUSH1 0x60 DUP2 ADD DUP2 DUP2 LT PUSH8 0xFFFFFFFFFFFFFFFF DUP3 GT OR ISZERO PUSH2 0x45F7 JUMPI INVALID JUMPDEST PUSH1 0x40 MSTORE PUSH2 0x4603 DUP4 PUSH2 0x4284 JUMP JUMPDEST DUP2 MSTORE PUSH1 0x20 DUP4 ADD CALLDATALOAD PUSH1 0x1 PUSH1 0x1 PUSH1 0x78 SHL SUB DUP2 AND DUP2 EQ PUSH2 0x461E JUMPI DUP3 DUP4 REVERT JUMPDEST PUSH1 0x20 DUP3 ADD MSTORE PUSH1 0x40 DUP4 ADD CALLDATALOAD PUSH1 0x1 PUSH1 0x1 PUSH1 0x80 SHL SUB DUP2 AND DUP2 EQ PUSH2 0x463C JUMPI DUP3 DUP4 REVERT JUMPDEST PUSH1 0x40 DUP3 ADD MSTORE SWAP4 SWAP3 POP POP POP JUMP JUMPDEST PUSH1 0x0 DUP1 PUSH1 0x0 PUSH1 0x60 DUP5 DUP7 SUB SLT ISZERO PUSH2 0x465C JUMPI DUP1 DUP2 REVERT JUMPDEST DUP4 CALLDATALOAD PUSH8 0xFFFFFFFFFFFFFFFF DUP1 DUP3 GT ISZERO PUSH2 0x4673 JUMPI DUP3 DUP4 REVERT JUMPDEST DUP2 DUP7 ADD SWAP2 POP PUSH2 0x120 DUP1 DUP4 DUP10 SUB SLT ISZERO PUSH2 0x4689 JUMPI DUP4 DUP5 REVERT JUMPDEST PUSH2 0x4692 DUP2 PUSH2 0x4BB3 JUMP JUMPDEST SWAP1 POP PUSH2 0x469D DUP4 PUSH2 0x42F9 JUMP JUMPDEST DUP2 MSTORE PUSH2 0x46AB PUSH1 0x20 DUP5 ADD PUSH2 0x4279 JUMP JUMPDEST PUSH1 0x20 DUP3 ADD MSTORE PUSH2 0x46BC PUSH1 0x40 DUP5 ADD PUSH2 0x4279 JUMP JUMPDEST PUSH1 0x40 DUP3 ADD MSTORE PUSH1 0x60 DUP4 ADD CALLDATALOAD PUSH1 0x60 DUP3 ADD MSTORE PUSH1 0x80 DUP4 ADD CALLDATALOAD PUSH1 0x80 DUP3 ADD MSTORE PUSH1 0xA0 DUP4 ADD CALLDATALOAD PUSH1 0xA0 DUP3 ADD MSTORE PUSH2 0x46EB PUSH1 0xC0 DUP5 ADD PUSH2 0x4279 JUMP JUMPDEST PUSH1 0xC0 DUP3 ADD MSTORE PUSH2 0x46FC PUSH1 0xE0 DUP5 ADD PUSH2 0x4279 JUMP JUMPDEST PUSH1 0xE0 DUP3 ADD MSTORE PUSH2 0x100 DUP1 DUP5 ADD CALLDATALOAD DUP4 DUP2 GT ISZERO PUSH2 0x4714 JUMPI DUP6 DUP7 REVERT JUMPDEST PUSH2 0x4720 DUP11 DUP3 DUP8 ADD PUSH2 0x4294 JUMP JUMPDEST SWAP2 DUP4 ADD SWAP2 SWAP1 SWAP2 MSTORE POP SWAP8 PUSH1 0x20 DUP8 ADD CALLDATALOAD SWAP8 POP PUSH1 0x40 SWAP1 SWAP7 ADD CALLDATALOAD SWAP6 SWAP5 POP POP POP POP POP JUMP JUMPDEST PUSH1 0x0 PUSH1 0x20 DUP3 DUP5 SUB SLT ISZERO PUSH2 0x4750 JUMPI DUP1 DUP2 REVERT JUMPDEST POP CALLDATALOAD SWAP2 SWAP1 POP JUMP JUMPDEST PUSH1 0x0 PUSH1 0x20 DUP3 DUP5 SUB SLT ISZERO PUSH2 0x4768 JUMPI DUP1 DUP2 REVERT JUMPDEST POP MLOAD SWAP2 SWAP1 POP JUMP JUMPDEST PUSH1 0x0 DUP1 PUSH1 0x0 DUP1 PUSH1 0x80 DUP6 DUP8 SUB SLT ISZERO PUSH2 0x4784 JUMPI DUP2 DUP3 REVERT JUMPDEST DUP5 MLOAD SWAP4 POP PUSH1 0x20 DUP6 ADD MLOAD SWAP3 POP PUSH1 0x40 DUP6 ADD MLOAD SWAP2 POP PUSH1 0x60 DUP6 ADD MLOAD PUSH2 0x47A4 DUP2 PUSH2 0x4BD7 JUMP JUMPDEST SWAP4 SWAP7 SWAP3 SWAP6 POP SWAP1 SWAP4 POP POP JUMP JUMPDEST PUSH1 0x0 DUP2 MLOAD DUP1 DUP5 MSTORE PUSH1 0x20 DUP1 DUP6 ADD SWAP5 POP DUP1 DUP5 ADD DUP4 JUMPDEST DUP4 DUP2 LT ISZERO PUSH2 0x47DE JUMPI DUP2 MLOAD DUP8 MSTORE SWAP6 DUP3 ADD SWAP6 SWAP1 DUP3 ADD SWAP1 PUSH1 0x1 ADD PUSH2 0x47C2 JUMP JUMPDEST POP SWAP5 SWAP6 SWAP5 POP POP POP POP POP JUMP JUMPDEST PUSH2 0x47F4 DUP3 DUP3 MLOAD PUSH2 0x486E JUMP JUMPDEST PUSH1 0x20 DUP2 ADD MLOAD PUSH2 0x4806 PUSH1 0x40 DUP5 ADD DUP3 PUSH2 0x486E JUMP JUMPDEST POP PUSH1 0x40 DUP2 ADD MLOAD PUSH1 0x80 DUP4 ADD MSTORE PUSH1 0x60 DUP2 ADD MLOAD PUSH1 0xA0 DUP4 ADD MSTORE PUSH1 0x80 DUP2 ADD MLOAD PUSH1 0xC0 DUP4 ADD MSTORE PUSH1 0xA0 DUP2 ADD MLOAD PUSH1 0xE0 DUP4 ADD MSTORE PUSH1 0xC0 DUP2 ADD MLOAD PUSH2 0x100 DUP4 ADD MSTORE POP POP JUMP JUMPDEST DUP1 MLOAD DUP3 MSTORE PUSH1 0x20 DUP2 ADD MLOAD PUSH1 0x20 DUP4 ADD MSTORE PUSH1 0x40 DUP2 ADD MLOAD PUSH1 0x40 DUP4 ADD MSTORE PUSH1 0x60 DUP2 ADD MLOAD PUSH1 0x60 DUP4 ADD MSTORE PUSH1 0x80 DUP2 ADD MLOAD PUSH1 0x80 DUP4 ADD MSTORE POP POP JUMP JUMPDEST DUP1 MLOAD DUP3 MSTORE PUSH1 0x20 SWAP1 DUP2 ADD MLOAD SWAP2 ADD MSTORE JUMP JUMPDEST PUSH1 0x0 DUP3 DUP5 DUP4 CALLDATACOPY SWAP2 ADD SWAP1 DUP2 MSTORE SWAP2 SWAP1 POP JUMP JUMPDEST PUSH1 0x1 PUSH1 0x1 PUSH1 0xA0 SHL SUB SWAP2 SWAP1 SWAP2 AND DUP2 MSTORE PUSH1 0x20 ADD SWAP1 JUMP JUMPDEST PUSH1 0x0 PUSH1 0x20 DUP3 MSTORE PUSH2 0x826 PUSH1 0x20 DUP4 ADD DUP5 PUSH2 0x47AF JUMP JUMPDEST PUSH1 0x0 PUSH1 0x40 DUP3 MSTORE PUSH2 0x48C7 PUSH1 0x40 DUP4 ADD DUP6 PUSH2 0x47AF JUMP JUMPDEST DUP3 DUP2 SUB PUSH1 0x20 DUP5 ADD MSTORE PUSH2 0x2B1A DUP2 DUP6 PUSH2 0x47AF JUMP JUMPDEST PUSH1 0x0 PUSH2 0x1E0 DUP1 DUP4 MSTORE PUSH2 0x48ED DUP2 DUP5 ADD DUP8 PUSH2 0x47AF JUMP JUMPDEST SWAP2 POP POP PUSH2 0x48FD PUSH1 0x20 DUP4 ADD DUP6 PUSH2 0x483E JUMP JUMPDEST PUSH2 0x2E3B PUSH1 0xC0 DUP4 ADD DUP5 PUSH2 0x47E9 JUMP JUMPDEST PUSH1 0x0 PUSH2 0x200 DUP1 DUP4 MSTORE PUSH2 0x491E DUP2 DUP5 ADD DUP9 PUSH2 0x47AF JUMP JUMPDEST SWAP2 POP POP PUSH2 0x492E PUSH1 0x20 DUP4 ADD DUP7 PUSH2 0x483E JUMP JUMPDEST PUSH2 0x493B PUSH1 0xC0 DUP4 ADD DUP6 PUSH2 0x47E9 JUMP JUMPDEST DUP3 PUSH2 0x1E0 DUP4 ADD MSTORE SWAP6 SWAP5 POP POP POP POP POP JUMP JUMPDEST PUSH1 0x0 PUSH1 0x80 DUP3 MSTORE PUSH2 0x495E PUSH1 0x80 DUP4 ADD DUP7 PUSH2 0x47AF JUMP JUMPDEST SWAP1 POP PUSH2 0x496D PUSH1 0x20 DUP4 ADD DUP6 PUSH2 0x486E JUMP JUMPDEST DUP3 PUSH1 0x60 DUP4 ADD MSTORE SWAP5 SWAP4 POP POP POP POP JUMP JUMPDEST PUSH1 0x0 PUSH2 0x260 DUP1 DUP4 MSTORE PUSH2 0x498F DUP2 DUP5 ADD DUP11 PUSH2 0x47AF JUMP JUMPDEST SWAP2 POP POP DUP7 PUSH1 0x20 DUP4 ADD MSTORE DUP6 ISZERO ISZERO PUSH1 0x40 DUP4 ADD MSTORE PUSH2 0x49AD PUSH1 0x60 DUP4 ADD DUP7 PUSH2 0x483E JUMP JUMPDEST PUSH2 0x49BB PUSH2 0x100 DUP4 ADD DUP6 PUSH2 0x47E9 JUMP JUMPDEST PUSH2 0x2FEC PUSH2 0x220 DUP4 ADD DUP5 PUSH2 0x486E JUMP JUMPDEST SWAP1 ISZERO ISZERO DUP2 MSTORE PUSH1 0x20 ADD SWAP1 JUMP JUMPDEST SWAP3 ISZERO ISZERO DUP4 MSTORE PUSH1 0x20 DUP4 ADD SWAP2 SWAP1 SWAP2 MSTORE PUSH1 0x40 DUP3 ADD MSTORE PUSH1 0x60 ADD SWAP1 JUMP JUMPDEST SWAP1 DUP2 MSTORE PUSH1 0x20 ADD SWAP1 JUMP JUMPDEST SWAP2 DUP3 MSTORE PUSH1 0x1 PUSH1 0x1 PUSH1 0xA0 SHL SUB AND PUSH1 0x20 DUP3 ADD MSTORE PUSH1 0x40 ADD SWAP1 JUMP JUMPDEST SWAP6 DUP7 MSTORE PUSH1 0x20 DUP7 ADD SWAP5 SWAP1 SWAP5 MSTORE PUSH1 0x40 DUP6 ADD SWAP3 SWAP1 SWAP3 MSTORE PUSH1 0x60 DUP5 ADD MSTORE ISZERO ISZERO PUSH1 0x80 DUP4 ADD MSTORE PUSH1 0xA0 DUP3 ADD MSTORE PUSH1 0xC0 ADD SWAP1 JUMP JUMPDEST PUSH1 0x0 PUSH1 0x20 DUP1 DUP4 MSTORE DUP4 MLOAD DUP1 DUP3 DUP6 ADD MSTORE DUP3 JUMPDEST DUP2 DUP2 LT ISZERO PUSH2 0x4A62 JUMPI DUP6 DUP2 ADD DUP4 ADD MLOAD DUP6 DUP3 ADD PUSH1 0x40 ADD MSTORE DUP3 ADD PUSH2 0x4A46 JUMP JUMPDEST DUP2 DUP2 GT ISZERO PUSH2 0x4A73 JUMPI DUP4 PUSH1 0x40 DUP4 DUP8 ADD ADD MSTORE JUMPDEST POP PUSH1 0x1F ADD PUSH1 0x1F NOT AND SWAP3 SWAP1 SWAP3 ADD PUSH1 0x40 ADD SWAP4 SWAP3 POP POP POP JUMP JUMPDEST DUP2 MLOAD ISZERO ISZERO DUP2 MSTORE PUSH1 0x20 DUP1 DUP4 ADD MLOAD PUSH1 0x1 PUSH1 0x1 PUSH1 0x78 SHL SUB AND SWAP1 DUP3 ADD MSTORE PUSH1 0x40 SWAP2 DUP3 ADD MLOAD PUSH1 0x1 PUSH1 0x1 PUSH1 0x80 SHL SUB AND SWAP2 DUP2 ADD SWAP2 SWAP1 SWAP2 MSTORE PUSH1 0x60 ADD SWAP1 JUMP JUMPDEST SWAP1 SLOAD PUSH1 0xFF DUP2 AND ISZERO ISZERO DUP3 MSTORE PUSH1 0x8 DUP2 SWAP1 SHR PUSH1 0x1 PUSH1 0x1 PUSH1 0x78 SHL SUB AND PUSH1 0x20 DUP4 ADD MSTORE PUSH1 0x80 SHR PUSH1 0x40 DUP3 ADD MSTORE PUSH1 0x60 ADD SWAP1 JUMP JUMPDEST PUSH2 0x1C0 DUP2 ADD PUSH2 0x4AF8 DUP3 DUP6 PUSH2 0x483E JUMP JUMPDEST PUSH2 0x4B06 PUSH1 0xA0 DUP4 ADD DUP5 MLOAD PUSH2 0x486E JUMP JUMPDEST PUSH1 0x20 DUP4 ADD MLOAD PUSH2 0x4B18 PUSH1 0xE0 DUP5 ADD DUP3 PUSH2 0x486E JUMP JUMPDEST POP PUSH1 0x40 DUP4 ADD MLOAD PUSH2 0x120 DUP4 ADD MSTORE PUSH1 0x60 DUP4 ADD MLOAD PUSH2 0x140 DUP4 ADD MSTORE PUSH1 0x80 DUP4 ADD MLOAD PUSH2 0x160 DUP4 ADD MSTORE PUSH1 0xA0 DUP4 ADD MLOAD PUSH2 0x180 DUP4 ADD MSTORE PUSH1 0xC0 DUP4 ADD MLOAD PUSH2 0x1A0 DUP4 ADD MSTORE SWAP4 SWAP3 POP POP POP JUMP JUMPDEST PUSH1 0x0 DUP4 DUP3 MSTORE PUSH1 0x40 PUSH1 0x20 DUP4 ADD MSTORE PUSH2 0x2E3B PUSH1 0x40 DUP4 ADD DUP5 PUSH2 0x47AF JUMP JUMPDEST SWAP2 DUP3 MSTORE PUSH1 0x20 DUP3 ADD MSTORE PUSH1 0x40 ADD SWAP1 JUMP JUMPDEST SWAP4 DUP5 MSTORE PUSH1 0x20 DUP5 ADD SWAP3 SWAP1 SWAP3 MSTORE PUSH1 0x1 PUSH1 0x1 PUSH1 0xA0 SHL SUB SWAP1 DUP2 AND PUSH1 0x40 DUP5 ADD MSTORE AND PUSH1 0x60 DUP3 ADD MSTORE PUSH1 0x80 ADD SWAP1 JUMP JUMPDEST PUSH1 0xFF SWAP2 SWAP1 SWAP2 AND DUP2 MSTORE PUSH1 0x20 ADD SWAP1 JUMP JUMPDEST PUSH1 0x40 MLOAD DUP2 DUP2 ADD PUSH8 0xFFFFFFFFFFFFFFFF DUP2 GT DUP3 DUP3 LT OR ISZERO PUSH2 0x4BCF JUMPI INVALID JUMPDEST PUSH1 0x40 MSTORE SWAP2 SWAP1 POP JUMP JUMPDEST PUSH1 0x1 PUSH1 0x1 PUSH1 0xA0 SHL SUB DUP2 AND DUP2 EQ PUSH2 0x785 JUMPI PUSH1 0x0 DUP1 REVERT INVALID MSTORE8 PUSH2 0x6665 NUMBER PUSH2 0x7374 GASPRICE KECCAK256 PUSH23 0x616C756520646F65736E27742066697420696E20616E20 PUSH10 0x6E74323536A264697066 PUSH20 0x582212206E49604C51CB70DEB52FBC5990C6A220 0xED PUSH15 0xAA243FA74D1C675F9ABDE23AE4AC64 PUSH20 0x6F6C634300070600330000000000000000000000 ","sha1":"ee016febb09250780f2a55cb5996f06bd6439fe1","source":"// SPDX-License-Identifier: LicenseRef-Gyro-1.0\n// for information on licensing please see the README in the GitHub repository <https://github.com/gyrostable/concentrated-lps>.\n\npragma solidity 0.7.6;\npragma experimental ABIEncoderV2;\n\n// import \"@balancer-labs/v2-solidity-utils/contracts/math/FixedPoint.sol\";\nimport \"../../libraries/GyroFixedPoint.sol\";\n\nimport \"@balancer-labs/v2-pool-weighted/contracts/WeightedPoolUserDataHelpers.sol\";\nimport \"@balancer-labs/v2-pool-weighted/contracts/WeightedPool2TokensMiscData.sol\";\nimport \"@balancer-labs/v2-pool-utils/contracts/interfaces/IRateProvider.sol\";\n\nimport \"../../libraries/GyroConfigKeys.sol\";\nimport \"../../libraries/GyroConfigHelpers.sol\";\nimport \"../../libraries/GyroErrors.sol\";\nimport \"../../interfaces/IGyroConfig.sol\";\nimport \"../../libraries/GyroPoolMath.sol\";\n\nimport \"../ExtensibleWeightedPool2Tokens.sol\";\nimport \"./GyroECLPMath.sol\";\nimport \"../CappedLiquidity.sol\";\nimport \"../LocallyPausable.sol\";\n\ncontract GyroECLPPool is ExtensibleWeightedPool2Tokens, CappedLiquidity, LocallyPausable {\n    using GyroFixedPoint for uint256;\n    using WeightedPoolUserDataHelpers for bytes;\n    using WeightedPool2TokensMiscData for bytes32;\n    using SafeCast for int256;\n    using SafeCast for uint256;\n    using GyroConfigHelpers for IGyroConfig;\n\n    uint256 private constant _MINIMUM_BPT = 1e6;\n    bytes32 private constant POOL_TYPE = \"ECLP\";\n\n    /// @dev Parameters of the ECLP pool\n    int256 internal immutable _paramsAlpha;\n    int256 internal immutable _paramsBeta;\n    int256 internal immutable _paramsC;\n    int256 internal immutable _paramsS;\n    int256 internal immutable _paramsLambda;\n    int256 internal immutable _tauAlphaX;\n    int256 internal immutable _tauAlphaY;\n    int256 internal immutable _tauBetaX;\n    int256 internal immutable _tauBetaY;\n    int256 internal immutable _u;\n    int256 internal immutable _v;\n    int256 internal immutable _w;\n    int256 internal immutable _z;\n    int256 internal immutable _dSq;\n\n    IGyroConfig public gyroConfig;\n\n    /// @dev for rate scaling\n    IRateProvider public immutable rateProvider0;\n    IRateProvider public immutable rateProvider1;\n\n    struct GyroParams {\n        NewPoolParams baseParams;\n        GyroECLPMath.Params eclpParams;\n        GyroECLPMath.DerivedParams derivedEclpParams;\n        address rateProvider0;\n        address rateProvider1;\n        address capManager;\n        CapParams capParams;\n        address pauseManager;\n    }\n\n    event ECLPParamsValidated(bool paramsValidated);\n    event ECLPDerivedParamsValidated(bool derivedParamsValidated);\n\n    event InvariantAterInitializeJoin(uint256 invariantAfterJoin);\n    event InvariantOldAndNew(uint256 oldInvariant, uint256 newInvariant);\n\n    event SwapParams(uint256[] balances, GyroECLPMath.Vector2 invariant, uint256 amount);\n\n    constructor(GyroParams memory params, address configAddress)\n        ExtensibleWeightedPool2Tokens(params.baseParams)\n        CappedLiquidity(params.capManager, params.capParams)\n        LocallyPausable(params.pauseManager)\n    {\n        _grequire(configAddress != address(0x0), GyroECLPPoolErrors.ADDRESS_IS_ZERO_ADDRESS);\n\n        GyroECLPMath.validateParams(params.eclpParams);\n        emit ECLPParamsValidated(true);\n\n        GyroECLPMath.validateDerivedParamsLimits(params.eclpParams, params.derivedEclpParams);\n        emit ECLPDerivedParamsValidated(true);\n\n        (_paramsAlpha, _paramsBeta, _paramsC, _paramsS, _paramsLambda) = (\n            params.eclpParams.alpha,\n            params.eclpParams.beta,\n            params.eclpParams.c,\n            params.eclpParams.s,\n            params.eclpParams.lambda\n        );\n\n        (_tauAlphaX, _tauAlphaY, _tauBetaX, _tauBetaY, _u, _v, _w, _z, _dSq) = (\n            params.derivedEclpParams.tauAlpha.x,\n            params.derivedEclpParams.tauAlpha.y,\n            params.derivedEclpParams.tauBeta.x,\n            params.derivedEclpParams.tauBeta.y,\n            params.derivedEclpParams.u,\n            params.derivedEclpParams.v,\n            params.derivedEclpParams.w,\n            params.derivedEclpParams.z,\n            params.derivedEclpParams.dSq\n        );\n\n        gyroConfig = IGyroConfig(configAddress);\n\n        rateProvider0 = IRateProvider(params.rateProvider0);\n        rateProvider1 = IRateProvider(params.rateProvider1);\n    }\n\n    /** @dev reconstructs ECLP params structs from immutable arrays */\n    function reconstructECLPParams() internal view returns (GyroECLPMath.Params memory params, GyroECLPMath.DerivedParams memory d) {\n        (params.alpha, params.beta, params.c, params.s, params.lambda) = (_paramsAlpha, _paramsBeta, _paramsC, _paramsS, _paramsLambda);\n        (d.tauAlpha.x, d.tauAlpha.y, d.tauBeta.x, d.tauBeta.y) = (_tauAlphaX, _tauAlphaY, _tauBetaX, _tauBetaY);\n        (d.u, d.v, d.w, d.z, d.dSq) = (_u, _v, _w, _z, _dSq);\n    }\n\n    function getECLPParams() external view returns (GyroECLPMath.Params memory params, GyroECLPMath.DerivedParams memory d) {\n        return reconstructECLPParams();\n    }\n\n    /** @dev Reads the balance of a token from the balancer vault and returns the scaled amount. Smaller storage access\n     * compared to getVault().getPoolTokens().\n     * Copied from the 3CLP *except* that for the 2CLP, the scalingFactor is interpreted as a regular integer, not a\n     * FixedPoint number. This is an inconsistency between the base contracts.\n     */\n    function _getScaledTokenBalance(IERC20 token, uint256 scalingFactor) internal view returns (uint256 balance) {\n        // Signature of getPoolTokenInfo(): (pool id, token) -> (cash, managed, lastChangeBlock, assetManager)\n        // and total amount = cash + managed. See balancer repo, PoolTokens.sol and BalanceAllocation.sol\n        (uint256 cash, uint256 managed, , ) = getVault().getPoolTokenInfo(getPoolId(), token);\n        balance = cash + managed; // can't overflow, see BalanceAllocation.sol::total() in the Balancer repo.\n        balance = balance.mulDown(scalingFactor);\n    }\n\n    /** @dev Get all balances in the pool, scaled by the appropriate scaling factors, in a relatively gas-efficient way.\n     * Essentially copied from the 3CLP.\n     */\n    function _getAllBalances() internal view returns (uint256[] memory balances) {\n        // The below is more gas-efficient than the following line because the token slots don't have to be read in the\n        // vault.\n        // (, uint256[] memory balances, ) = getVault().getPoolTokens(getPoolId());\n        balances = new uint256[](2);\n        balances[0] = _getScaledTokenBalance(_token0, _scalingFactor(true));\n        balances[1] = _getScaledTokenBalance(_token1, _scalingFactor(false));\n        return balances;\n    }\n\n    /**\n     * @dev Returns the current value of the invariant.\n     * Note: This function is not used internally; it's public, not external, so we can override it cleanly.\n     */\n    function getInvariant() public view override returns (uint256) {\n        uint256[] memory balances = _getAllBalances();\n        (GyroECLPMath.Params memory eclpParams, GyroECLPMath.DerivedParams memory derivedECLPParams) = reconstructECLPParams();\n        return GyroECLPMath.calculateInvariant(balances, eclpParams, derivedECLPParams);\n    }\n\n    /** When rateProvider{0,1} is provided, this returns the *scaled* price, suitable to compare *rate scaled* balances.\n     *  To compare (decimal- but) not-rate-scaled balances, apply _adjustPrice() to the result.\n     */\n    function _getPrice(\n        uint256[] memory balances,\n        uint256 invariant,\n        GyroECLPMath.Params memory eclpParams,\n        GyroECLPMath.DerivedParams memory derivedECLPParams\n    ) internal view returns (uint256 spotPrice) {\n        spotPrice = GyroECLPMath.calcSpotPrice0in1(balances, eclpParams, derivedECLPParams, invariant.toInt256());\n    }\n\n    /** Returns the current spot price of token0 quoted in units of token1. When rateProvider{0,1} is provided, the\n     * returned price corresponds to tokens *before* rate scaling.\n     */\n    function getPrice() external view returns (uint256 spotPrice) {\n        uint256[] memory balances = _getAllBalances();\n        (GyroECLPMath.Params memory eclpParams, GyroECLPMath.DerivedParams memory derivedECLPParams) = reconstructECLPParams();\n        uint256 invariant = GyroECLPMath.calculateInvariant(balances, eclpParams, derivedECLPParams);\n        spotPrice = _getPrice(balances, invariant, eclpParams, derivedECLPParams);\n        spotPrice = _adjustPrice(spotPrice);\n    }\n\n    // Swap Hooks\n\n    function onSwap(\n        SwapRequest memory request,\n        uint256 balanceTokenIn,\n        uint256 balanceTokenOut\n    ) public virtual override whenNotPaused onlyVault(request.poolId) returns (uint256) {\n        bool tokenInIsToken0;\n\n        if (request.tokenIn == _token0 && request.tokenOut == _token1) {\n            tokenInIsToken0 = true;\n        } else if (request.tokenIn == _token1 && request.tokenOut == _token0) {\n            tokenInIsToken0 = false;\n        } else {\n            _revert(GyroECLPPoolErrors.TOKEN_IN_IS_NOT_TOKEN_0);\n        }\n\n        uint256 scalingFactorTokenIn = _scalingFactor(tokenInIsToken0);\n        uint256 scalingFactorTokenOut = _scalingFactor(!tokenInIsToken0);\n\n        // All token amounts are upscaled.\n        balanceTokenIn = _upscale(balanceTokenIn, scalingFactorTokenIn);\n        balanceTokenOut = _upscale(balanceTokenOut, scalingFactorTokenOut);\n\n        // We \"undo\" the pre-processing that the caller of onSwap() did: In contrast to other pools, we don't exploit\n        // symmetry here, and we identify the two tokens explicitly.\n        uint256[] memory balances = _balancesFromTokenInOut(balanceTokenIn, balanceTokenOut, tokenInIsToken0);\n\n        (GyroECLPMath.Params memory eclpParams, GyroECLPMath.DerivedParams memory derivedECLPParams) = reconstructECLPParams();\n        GyroECLPMath.Vector2 memory invariant;\n        {\n            (int256 currentInvariant, int256 invErr) = GyroECLPMath.calculateInvariantWithError(balances, eclpParams, derivedECLPParams);\n            // invariant = overestimate in x-component, underestimate in y-component\n            // No overflow in `+` due to constraints to the different values enforced in GyroECLPMath.\n            invariant = GyroECLPMath.Vector2(currentInvariant + 2 * invErr, currentInvariant);\n        }\n\n        if (request.kind == IVault.SwapKind.GIVEN_IN) {\n            // Fees are subtracted before scaling, to reduce the complexity of the rounding direction analysis.\n            // This is amount - fee amount, so we round up (favoring a higher fee amount).\n            uint256 feeAmount = request.amount.mulUp(getSwapFeePercentage());\n            request.amount = _upscale(request.amount.sub(feeAmount), scalingFactorTokenIn);\n\n            uint256 amountOut = _onSwapGivenIn(request, balances, tokenInIsToken0, eclpParams, derivedECLPParams, invariant);\n\n            emit SwapParams(balances, invariant, amountOut);\n\n            // amountOut tokens are exiting the Pool, so we round down.\n            return _downscaleDown(amountOut, scalingFactorTokenOut);\n        } else {\n            request.amount = _upscale(request.amount, scalingFactorTokenOut);\n\n            uint256 amountIn = _onSwapGivenOut(request, balances, tokenInIsToken0, eclpParams, derivedECLPParams, invariant);\n\n            emit SwapParams(balances, invariant, amountIn);\n\n            // amountIn tokens are entering the Pool, so we round up.\n            amountIn = _downscaleUp(amountIn, scalingFactorTokenIn);\n\n            // Fees are added after scaling happens, to reduce the complexity of the rounding direction analysis.\n            // This is amount + fee amount, so we round up (favoring a higher fee amount).\n            return amountIn.divUp(getSwapFeePercentage().complement());\n        }\n    }\n\n    function _onSwapGivenIn(\n        SwapRequest memory swapRequest,\n        uint256[] memory balances,\n        bool tokenInIsToken0,\n        GyroECLPMath.Params memory eclpParams,\n        GyroECLPMath.DerivedParams memory derivedECLPParams,\n        GyroECLPMath.Vector2 memory invariant\n    ) private pure returns (uint256) {\n        // Swaps are disabled while the contract is paused.\n        return GyroECLPMath.calcOutGivenIn(balances, swapRequest.amount, tokenInIsToken0, eclpParams, derivedECLPParams, invariant);\n    }\n\n    function _onSwapGivenOut(\n        SwapRequest memory swapRequest,\n        uint256[] memory balances,\n        bool tokenInIsToken0,\n        GyroECLPMath.Params memory eclpParams,\n        GyroECLPMath.DerivedParams memory derivedECLPParams,\n        GyroECLPMath.Vector2 memory invariant\n    ) private pure returns (uint256) {\n        // Swaps are disabled while the contract is paused.\n        return GyroECLPMath.calcInGivenOut(balances, swapRequest.amount, tokenInIsToken0, eclpParams, derivedECLPParams, invariant);\n    }\n\n    /**\n     * @dev Called when the Pool is joined for the first time; that is, when the BPT total supply is zero.\n     *\n     * Returns the amount of BPT to mint, and the token amounts the Pool will receive in return.\n     *\n     * Minted BPT will be sent to `recipient`, except for _MINIMUM_BPT, which will be deducted from this amount and sent\n     * to the zero address instead. This will cause that BPT to remain forever locked there, preventing total BTP from\n     * ever dropping below that value, and ensuring `_onInitializePool` can only be called once in the entire Pool's\n     * lifetime.\n     *\n     * The tokens granted to the Pool will be transferred from `sender`. These amounts are considered upscaled and will\n     * be downscaled (rounding up) before being returned to the Vault.\n     */\n    function _onInitializePool(\n        bytes32,\n        address,\n        address,\n        bytes memory userData\n    ) internal override returns (uint256, uint256[] memory) {\n        BaseWeightedPool.JoinKind kind = userData.joinKind();\n        _require(kind == BaseWeightedPool.JoinKind.INIT, Errors.UNINITIALIZED);\n\n        uint256[] memory amountsIn = userData.initialAmountsIn();\n        InputHelpers.ensureInputLengthMatch(amountsIn.length, 2);\n        _upscaleArray(amountsIn);\n\n        (GyroECLPMath.Params memory eclpParams, GyroECLPMath.DerivedParams memory derivedECLPParams) = reconstructECLPParams();\n        uint256 invariantAfterJoin = GyroECLPMath.calculateInvariant(amountsIn, eclpParams, derivedECLPParams);\n\n        emit InvariantAterInitializeJoin(invariantAfterJoin);\n\n        /* We initialize the number of BPT tokens such that one BPT token corresponds to one unit of token1 at the initialized pool price. This makes BPT tokens comparable across pools with different parameters. Note that the invariant does *not* have this property!\n         */\n        uint256 spotPrice = _getPrice(amountsIn, invariantAfterJoin, eclpParams, derivedECLPParams);\n        uint256 bptAmountOut = Math.add(amountsIn[0].mulDown(spotPrice), amountsIn[1]);\n\n        _lastInvariant = invariantAfterJoin;\n\n        return (bptAmountOut, amountsIn);\n    }\n\n    /**\n     * @dev Called whenever the Pool is joined after the first initialization join (see `_onInitializePool`).\n     *\n     * Returns the amount of BPT to mint, the token amounts that the Pool will receive in return, and the number of\n     * tokens to pay in protocol swap fees.\n     *\n     * Implementations of this function might choose to mutate the `balances` array to save gas (e.g. when\n     * performing intermediate calculations, such as subtraction of due protocol fees). This can be done safely.\n     *\n     * Minted BPT will be sent to `recipient`.\n     *\n     * The tokens granted to the Pool will be transferred from `sender`. These amounts are considered upscaled and will\n     * be downscaled (rounding up) before being returned to the Vault.\n     *\n     * Due protocol swap fees will be taken from the Pool's balance in the Vault (see `IBasePool.onJoinPool`). These\n     * amounts are considered upscaled and will be downscaled (rounding down) before being returned to the Vault.\n     *\n     * protocolSwapFeePercentage argument is intentionally unused as protocol fees are handled in a different way\n     */\n    function _onJoinPool(\n        bytes32,\n        address,\n        address recipient,\n        uint256[] memory balances,\n        uint256 lastChangeBlock,\n        uint256, //protocolSwapFeePercentage,\n        bytes memory userData\n    )\n        internal\n        override\n        returns (\n            uint256,\n            uint256[] memory,\n            uint256[] memory\n        )\n    {\n        // Due protocol swap fee amounts are computed by measuring the growth of the invariant between the previous join\n        // or exit event and now - the invariant's growth is due exclusively to swap fees. This avoids spending gas\n        // computing them on each individual swap\n        (GyroECLPMath.Params memory eclpParams, GyroECLPMath.DerivedParams memory derivedECLPParams) = reconstructECLPParams();\n        uint256 invariantBeforeAction = GyroECLPMath.calculateInvariant(balances, eclpParams, derivedECLPParams);\n\n        _distributeFees(invariantBeforeAction);\n\n        (uint256 bptAmountOut, uint256[] memory amountsIn) = _doJoin(balances, userData);\n\n        if (_capParams.capEnabled) {\n            _ensureCap(bptAmountOut, balanceOf(recipient), totalSupply());\n        }\n\n        // Since we pay fees in BPT, they have not changed the invariant and 'invariantBeforeAction' is still consistent with\n        // 'balances'. Therefore, we can use a simplified method to update the invariant that does not require a full\n        // re-computation.\n        // Note: Should this be changed in the future, we also need to reduce the invariant proportionally by the total\n        // protocol fee factor.\n        _lastInvariant = GyroPoolMath.liquidityInvariantUpdate(invariantBeforeAction, bptAmountOut, totalSupply(), true);\n\n        emit InvariantOldAndNew(invariantBeforeAction, _lastInvariant);\n\n        // returns a new uint256[](2) b/c Balancer vault is expecting a fee array, but fees paid in BPT instead\n        return (bptAmountOut, amountsIn, new uint256[](2));\n    }\n\n    function _doJoin(uint256[] memory balances, bytes memory userData) internal view returns (uint256 bptAmountOut, uint256[] memory amountsIn) {\n        BaseWeightedPool.JoinKind kind = userData.joinKind();\n\n        // We do NOT currently support unbalanced update, i.e., EXACT_TOKENS_IN_FOR_BPT_OUT or TOKEN_IN_FOR_EXACT_BPT_OUT\n        if (kind == BaseWeightedPool.JoinKind.ALL_TOKENS_IN_FOR_EXACT_BPT_OUT) {\n            (bptAmountOut, amountsIn) = _joinAllTokensInForExactBPTOut(balances, userData);\n        } else {\n            _revert(Errors.UNHANDLED_JOIN_KIND);\n        }\n    }\n\n    function _joinAllTokensInForExactBPTOut(uint256[] memory balances, bytes memory userData)\n        internal\n        view\n        override\n        returns (uint256, uint256[] memory)\n    {\n        uint256 bptAmountOut = userData.allTokensInForExactBptOut();\n        // Note that there is no maximum amountsIn parameter: this is handled by `IVault.joinPool`.\n\n        uint256[] memory amountsIn = GyroPoolMath._calcAllTokensInGivenExactBptOut(balances, bptAmountOut, totalSupply());\n\n        return (bptAmountOut, amountsIn);\n    }\n\n    /**\n     * @dev Called whenever the Pool is exited.\n     *\n     * Returns the amount of BPT to burn, the token amounts for each Pool token that the Pool will grant in return, and\n     * the number of tokens to pay in protocol swap fees.\n     *\n     * Implementations of this function might choose to mutate the `balances` array to save gas (e.g. when\n     * performing intermediate calculations, such as subtraction of due protocol fees). This can be done safely.\n     *\n     * BPT will be burnt from `sender`.\n     *\n     * The Pool will grant tokens to `recipient`. These amounts are considered upscaled and will be downscaled\n     * (rounding down) before being returned to the Vault.\n     *\n     * Due protocol swap fees will be taken from the Pool's balance in the Vault (see `IBasePool.onExitPool`). These\n     * amounts are considered upscaled and will be downscaled (rounding down) before being returned to the Vault.\n     *\n     * protocolSwapFeePercentage argument is intentionally unused as protocol fees are handled in a different way\n     */\n    function _onExitPool(\n        bytes32,\n        address,\n        address,\n        uint256[] memory balances,\n        uint256 lastChangeBlock,\n        uint256, // protocolSwapFeePercentage,\n        bytes memory userData\n    )\n        internal\n        override\n        returns (\n            uint256 bptAmountIn,\n            uint256[] memory amountsOut,\n            uint256[] memory dueProtocolFeeAmounts\n        )\n    {\n        // Exits are not completely disabled while the contract is paused: proportional exits (exact BPT in for tokens\n        // out) remain functional.\n        (GyroECLPMath.Params memory eclpParams, GyroECLPMath.DerivedParams memory derivedECLPParams) = reconstructECLPParams();\n\n        // Note: If the contract is paused, swap protocol fee amounts are not charged\n        // to avoid extra calculations and reduce the potential for errors.\n        if (_isNotPaused()) {\n            // Due protocol swap fee amounts are computed by measuring the growth of the invariant between the previous\n            // join or exit event and now - the invariant's growth is due exclusively to swap fees. This avoids\n            // spending gas calculating the fees on each individual swap.\n            uint256 invariantBeforeAction = GyroECLPMath.calculateInvariant(balances, eclpParams, derivedECLPParams);\n\n            _distributeFees(invariantBeforeAction);\n\n            (bptAmountIn, amountsOut) = _doExit(balances, userData);\n\n            // Since we pay fees in BPT, they have not changed the invariant and 'invariantBeforeAction' is still consistent with\n            // 'balances'. Therefore, we can use a simplified method to update the invariant that does not require a full\n            // re-computation.\n            // Note: Should this be changed in the future, we also need to reduce the invariant proportionally by the total\n            // protocol fee factor.\n            _lastInvariant = GyroPoolMath.liquidityInvariantUpdate(invariantBeforeAction, bptAmountIn, totalSupply(), false);\n\n            emit InvariantOldAndNew(invariantBeforeAction, _lastInvariant);\n        } else {\n            // Note: If the contract is paused, swap protocol fee amounts are not charged\n            // to avoid extra calculations and reduce the potential for errors.\n            (bptAmountIn, amountsOut) = _doExit(balances, userData);\n\n            // Invalidate _lastInvariant. We do not compute the invariant to make sure the pool is not locking\n            // up b/c numerical limits might be violated. Instead, we set the invariant such that any following\n            // (non-paused) join/exit will ignore and recompute it. (see GyroPoolMath._calcProtocolFees())\n            _lastInvariant = type(uint256).max;\n        }\n\n        // returns a new uint256[](2) b/c Balancer vault is expecting a fee array, but fees paid in BPT instead\n        return (bptAmountIn, amountsOut, new uint256[](2));\n    }\n\n    function _doExit(uint256[] memory balances, bytes memory userData) internal view returns (uint256 bptAmountIn, uint256[] memory amountsOut) {\n        BaseWeightedPool.ExitKind kind = userData.exitKind();\n\n        // We do NOT support unbalanced exit at the moment, i.e., EXACT_BPT_IN_FOR_ONE_TOKEN_OUT or\n        // BPT_IN_FOR_EXACT_TOKENS_OUT.\n        if (kind == BaseWeightedPool.ExitKind.EXACT_BPT_IN_FOR_TOKENS_OUT) {\n            (bptAmountIn, amountsOut) = _exitExactBPTInForTokensOut(balances, userData);\n        } else {\n            _revert(Errors.UNHANDLED_EXIT_KIND);\n        }\n    }\n\n    function _exitExactBPTInForTokensOut(uint256[] memory balances, bytes memory userData)\n        internal\n        view\n        override\n        returns (uint256, uint256[] memory)\n    {\n        // This exit function is the only one that is not disabled if the contract is paused: it remains unrestricted\n        // in an attempt to provide users with a mechanism to retrieve their tokens in case of an emergency.\n        // This particular exit function is the only one that remains available because it is the simplest one, and\n        // therefore the one with the lowest likelihood of errors.\n\n        uint256 bptAmountIn = userData.exactBptInForTokensOut();\n        // Note that there is no minimum amountOut parameter: this is handled by `IVault.exitPool`.\n\n        uint256[] memory amountsOut = GyroPoolMath._calcTokensOutGivenExactBptIn(balances, bptAmountIn, totalSupply());\n        return (bptAmountIn, amountsOut);\n    }\n\n    // Helpers.\n\n    function _balancesFromTokenInOut(\n        uint256 balanceTokenIn,\n        uint256 balanceTokenOut,\n        bool tokenInIsToken0\n    ) internal pure returns (uint256[] memory balances) {\n        balances = new uint256[](2);\n        if (tokenInIsToken0) {\n            balances[0] = balanceTokenIn;\n            balances[1] = balanceTokenOut;\n        } else {\n            balances[0] = balanceTokenOut;\n            balances[1] = balanceTokenIn;\n        }\n    }\n\n    // Fee helpers. These are exactly the same as in the Gyro2CLPPool.\n    // TODO prob about time to make a base class.\n\n    /**\n     * Note: This function is identical to that used in Gyro2CLPPool.sol\n     * @dev Computes and distributes fees between the Balancer and the Gyro treasury\n     * The fees are computed and distributed in BPT rather than using the\n     * Balancer regular distribution mechanism which would pay these in underlying\n     */\n\n    function _distributeFees(uint256 invariantBeforeAction) internal {\n        // calculate Protocol fees in BPT\n        // lastInvariant is the invariant logged at the end of the last liquidity update\n        // protocol fees are calculated on swap fees earned between liquidity updates\n        (uint256 gyroFees, uint256 balancerFees, address gyroTreasury, address balTreasury) = _getDueProtocolFeeAmounts(\n            _lastInvariant,\n            invariantBeforeAction\n        );\n\n        // Pay fees in BPT\n        _payFeesBpt(gyroFees, balancerFees, gyroTreasury, balTreasury);\n    }\n\n    /**\n     * Note: This function is identical to that used in Gyro2CLPPool.sol\n     * @dev this function overrides inherited function to make sure it is never used\n     */\n    function _getDueProtocolFeeAmounts(\n        uint256[] memory, // balances,\n        uint256[] memory, // normalizedWeights,\n        uint256, // previousInvariant,\n        uint256, // currentInvariant,\n        uint256 // protocolSwapFeePercentage\n    ) internal pure override returns (uint256[] memory) {\n        revert(\"Not implemented\");\n    }\n\n    /**\n     * @dev\n     * Note: This function is identical to that used in Gyro2CLPPool.sol.\n     * Calculates protocol fee amounts in BPT terms.\n     * protocolSwapFeePercentage is not used here b/c we take parameters from GyroConfig instead.\n     * Returns: BPT due to Gyro, BPT due to Balancer, receiving address for Gyro fees, receiving address for Balancer\n     * fees.\n     */\n    function _getDueProtocolFeeAmounts(uint256 previousInvariant, uint256 currentInvariant)\n        internal\n        view\n        returns (\n            uint256,\n            uint256,\n            address,\n            address\n        )\n    {\n        (uint256 protocolSwapFeePerc, uint256 protocolFeeGyroPortion, address gyroTreasury, address balTreasury) = getFeesMetadata();\n\n        // Early return if the protocol swap fee percentage is zero, saving gas.\n        if (protocolSwapFeePerc == 0) {\n            return (0, 0, gyroTreasury, balTreasury);\n        }\n\n        // Calculate fees in BPT\n        (uint256 gyroFees, uint256 balancerFees) = GyroPoolMath._calcProtocolFees(\n            previousInvariant,\n            currentInvariant,\n            totalSupply(),\n            protocolSwapFeePerc,\n            protocolFeeGyroPortion\n        );\n\n        return (gyroFees, balancerFees, gyroTreasury, balTreasury);\n    }\n\n    // Note: This function is identical to that used in Gyro2CLPPool.sol\n    function _payFeesBpt(\n        uint256 gyroFees,\n        uint256 balancerFees,\n        address gyroTreasury,\n        address balTreasury\n    ) internal {\n        // Pay fees in BPT to gyro treasury\n        if (gyroFees > 0) {\n            _mintPoolTokens(gyroTreasury, gyroFees);\n        }\n        // Pay fees in BPT to bal treasury\n        if (balancerFees > 0) {\n            _mintPoolTokens(balTreasury, balancerFees);\n        }\n    }\n\n    // Note: This function is identical to that used in Gyro2CLPPool.sol\n    function getFeesMetadata()\n        public\n        view\n        returns (\n            uint256,\n            uint256,\n            address,\n            address\n        )\n    {\n        return (\n            gyroConfig.getSwapFeePercForPool(address(this), POOL_TYPE),\n            gyroConfig.getProtocolFeeGyroPortionForPool(address(this), POOL_TYPE),\n            gyroConfig.getAddress(GyroConfigKeys.GYRO_TREASURY_KEY),\n            gyroConfig.getAddress(GyroConfigKeys.BAL_TREASURY_KEY)\n        );\n    }\n\n    /** @notice Effective BPT supply.\n     *\n     *  This is the same as `totalSupply()` but also accounts for the fact that the pool owes\n     *  protocol fees to the pool in the form of unminted LP shares created on the next join/exit,\n     *  diluting LPers. Thus, this is the totalSupply() that the next join/exit operation will see.\n     *\n     *  Equivalent to the respective function in, e.g., WeightedPool, see:\n     *  https://github.com/balancer/balancer-v2-monorepo/blob/master/pkg/pool-weighted/contracts/WeightedPool.sol#L325-L344\n     */\n    function getActualSupply() external view returns (uint256) {\n        uint256 supply = totalSupply();\n        (uint256 gyroFees, uint256 balancerFees, , ) = _getDueProtocolFeeAmounts(_lastInvariant, getInvariant());\n        return supply.add(gyroFees).add(balancerFees);\n    }\n\n    /// @notice Equivalent to but more efficient than `getInvariant().divDown(getActualSupply())`.\n    function getInvariantDivActualSupply() external view returns (uint256) {\n        uint256 invariant = getInvariant();\n        uint256 supply = totalSupply();\n        (uint256 gyroFees, uint256 balancerFees, , ) = _getDueProtocolFeeAmounts(_lastInvariant, invariant);\n        uint256 actualSupply = supply.add(gyroFees).add(balancerFees);\n        return invariant.divDown(actualSupply);\n    }\n\n    function _setPausedState(bool paused) internal override {\n        _setPaused(paused);\n    }\n\n    // Rate scaling\n\n    function _scalingFactor(bool token0) internal view override returns (uint256) {\n        IRateProvider rateProvider;\n        uint256 scalingFactor;\n        if (token0) {\n            rateProvider = rateProvider0;\n            scalingFactor = _scalingFactor0;\n        } else {\n            rateProvider = rateProvider1;\n            scalingFactor = _scalingFactor1;\n        }\n        if (address(rateProvider) != address(0)) scalingFactor = scalingFactor.mulDown(rateProvider.getRate());\n        return scalingFactor;\n    }\n\n    function _adjustPrice(uint256 spotPrice) internal view override returns (uint256) {\n        if (address(rateProvider0) != address(0)) spotPrice = spotPrice.mulDown(rateProvider0.getRate());\n        if (address(rateProvider1) != address(0)) spotPrice = spotPrice.divDown(rateProvider1.getRate());\n        return spotPrice;\n    }\n\n    /// @notice Convenience function to fetch the two rates used for scaling the two tokens, as of rateProvider{0,1}.\n    /// Note that these rates do *not* contain scaling to account for differences in the number of decimals. The rates\n    /// themselves are always 18-decimals.\n    function getTokenRates() public view returns (uint256 rate0, uint256 rate1) {\n        rate0 = address(rateProvider0) != address(0) ? rateProvider0.getRate() : GyroFixedPoint.ONE;\n        rate1 = address(rateProvider1) != address(0) ? rateProvider1.getRate() : GyroFixedPoint.ONE;\n    }\n}\n","sourcePath":"contracts/eclp/GyroECLPPool.sol","type":"contract","deployment":{"address":"0x1CCE5169bDe03f3d5aD0206f6BD057953539DAE6","chainid":"1","blockHeight":18614564}}