{"abi":[{"inputs":[{"internalType":"contract IVault","name":"vault","type":"address"},{"internalType":"address","name":"_gyroConfigAddress","type":"address"}],"stateMutability":"nonpayable","type":"constructor","name":"constructor"},{"anonymous":false,"inputs":[{"indexed":true,"internalType":"address","name":"pool","type":"address"}],"name":"PoolCreated","type":"event"},{"inputs":[{"internalType":"string","name":"name","type":"string"},{"internalType":"string","name":"symbol","type":"string"},{"internalType":"contract IERC20[]","name":"tokens","type":"address[]"},{"internalType":"uint256[]","name":"sqrts","type":"uint256[]"},{"internalType":"address[]","name":"rateProviders","type":"address[]"},{"internalType":"uint256","name":"swapFeePercentage","type":"uint256"},{"internalType":"address","name":"owner","type":"address"},{"internalType":"address","name":"capManager","type":"address"},{"components":[{"internalType":"bool","name":"capEnabled","type":"bool"},{"internalType":"uint120","name":"perAddressCap","type":"uint120"},{"internalType":"uint128","name":"globalCap","type":"uint128"}],"internalType":"struct ICappedLiquidity.CapParams","name":"capParams","type":"tuple"},{"internalType":"address","name":"pauseManager","type":"address"},{"components":[{"internalType":"uint256","name":"pauseWindowDuration","type":"uint256"},{"internalType":"uint256","name":"bufferPeriodDuration","type":"uint256"}],"internalType":"struct ILocallyPausable.PauseParams","name":"pauseParams","type":"tuple"}],"name":"create","outputs":[{"internalType":"address","name":"","type":"address"}],"stateMutability":"nonpayable","type":"function"},{"inputs":[],"name":"getCreationCode","outputs":[{"internalType":"bytes","name":"","type":"bytes"}],"stateMutability":"view","type":"function"},{"inputs":[],"name":"getCreationCodeContracts","outputs":[{"internalType":"address","name":"contractA","type":"address"},{"internalType":"address","name":"contractB","type":"address"}],"stateMutability":"view","type":"function"},{"inputs":[],"name":"getVault","outputs":[{"internalType":"contract IVault","name":"","type":"address"}],"stateMutability":"view","type":"function"},{"inputs":[],"name":"gyroConfigAddress","outputs":[{"internalType":"address","name":"","type":"address"}],"stateMutability":"view","type":"function"},{"inputs":[{"internalType":"address","name":"pool","type":"address"}],"name":"isPoolFromFactory","outputs":[{"internalType":"bool","name":"","type":"bool"}],"stateMutability":"view","type":"function"}],"bytecode":"6101406040523480156200001257600080fd5b506040516200675a3803806200675a833981016040819052620000359162000281565b8160405180602001620000489062000273565b601f1982820381018352601f909101166040528051819060006002820460a081905280830360e081905281855290915083620000908162000130602090811b620002da17901c565b60601b6001600160601b0319166080528285018051838252620000bf8262000130602090811b620002da17901c565b6001600160601b0319606091821b811660c0529690935290529590951b909116610100525062000100925050506001600160a01b0382161515606962000184565b620001186001600160a01b0383161515606962000184565b60601b6001600160601b0319166101205250620002d5565b80517f602038038060206000396000f3fefefefefefefefefefefefefefefefefefefe808352600091602081018484f090845291506200017e6001600160a01b03831615156101ac62000199565b50919050565b8162000195576200019581620001aa565b5050565b8162000195576200019581620001bf565b620001bc816223aca960e91b62000212565b50565b62461bcd60e51b6000908152602060045260076024526642414c23000030600a808404818106603090810160081b95839006959095019082900491820690940160101b939093010160c81b604452606490fd5b62461bcd60e51b600090815260206004526007602452600a808404818106603090810160081b958390069590950190829004918206850160101b01602363ffffff0060e086901c160160181b0190930160c81b60445260e882901c90606490fd5b615755806200100583390190565b6000806040838503121562000294578182fd5b8251620002a181620002bf565b6020840151909250620002b481620002bf565b809150509250929050565b6001600160a01b0381168114620001bc57600080fd5b60805160601c60a05160c05160601c60e0516101005160601c6101205160601c610ccb6200033a6000398061010b528061028452508061019752508061033452508061015052806103b052508061035552508061012f528061038c5250610ccb6000f3fe608060405234801561001057600080fd5b50600436106100615760003560e01c8062c194db146100665780630bc7b4c414610084578063174481fa146100995780636634b753146100af5780638d928af8146100cf578063cba824c3146100d7575b600080fd5b61006e6100ea565b60405161007b9190610ae2565b60405180910390f35b61008c610109565b60405161007b9190610aa9565b6100a161012d565b60405161007b929190610abd565b6100c26100bd3660046108d7565b610173565b60405161007b9190610ad7565b61008c610195565b61008c6100e53660046108f3565b6101b9565b60606101046040518060200160405280600081525061032c565b905090565b7f000000000000000000000000000000000000000000000000000000000000000081565b7f00000000000000000000000000000000000000000000000000000000000000007f00000000000000000000000000000000000000000000000000000000000000009091565b6001600160a01b03811660009081526020819052604090205460ff165b919050565b7f000000000000000000000000000000000000000000000000000000000000000090565b6000806101ca8d8d8d8b8b88610405565b905060006040518061010001604052808381526020018c6000815181106101ed57fe5b602002602001015181526020018c60018151811061020757fe5b602002602001015181526020018b60008151811061022157fe5b60200260200101516001600160a01b031681526020018b60018151811061024457fe5b60200260200101516001600160a01b03168152602001886001600160a01b03168152602001878152602001866001600160a01b031681525090506102c8817f00000000000000000000000000000000000000000000000000000000000000006040516020016102b4929190610af5565b6040516020818303038152906040526104b4565b9e9d5050505050505050505050505050565b80517f602038038060206000396000f3fefefefefefefefefefefefefefefefefefefe808352600091602081018484f090845291506103266001600160a01b03831615156101ac610514565b50919050565b8051604080517f00000000000000000000000000000000000000000000000000000000000000007f0000000000000000000000000000000000000000000000000000000000000000818101858101848101602090810190965280855293957f00000000000000000000000000000000000000000000000000000000000000009592947f000000000000000000000000000000000000000000000000000000000000000094938801866000828a3c846000888301883c50602089810190898501016103f7818386610526565b505050505050505050919050565b61040d6105f1565b604051806101200160405280610421610195565b6001600160a01b031681526020018881526020018781526020018660008151811061044857fe5b60200260200101516001600160a01b031681526020018660018151811061046b57fe5b60200260200101516001600160a01b031681526020018581526020018360000151815260200183602001518152602001846001600160a01b031681525090509695505050505050565b6000806104c083610564565b6001600160a01b038116600081815260208190526040808220805460ff191660011790555192935090917f83a48fbcfc991335314e74d0496aab6a1987e992ddc85dddbcc4d6dd6ef2e9fc9190a292915050565b81610522576105228161059e565b5050565b5b60208110610546578151835260209283019290910190601f1901610527565b905182516020929092036101000a6000190180199091169116179052565b6000806105708361032c565b905060008151602083016000f090506001600160a01b038116610597573d6000803e3d6000fd5b9392505050565b62461bcd60e51b6000908152602060045260076024526642414c23000030600a808404818106603090810160081b95839006959095019082900491820690940160101b939093010160c81b604452606490fd5b60405180610120016040528060006001600160a01b03168152602001606081526020016060815260200160006001600160a01b0316815260200160006001600160a01b0316815260200160008152602001600081526020016000815260200160006001600160a01b031681525090565b803561019081610c7d565b600082601f83011261067c578081fd5b8135602061069161068c83610c5f565b610c3b565b82815281810190858301838502870184018810156106ad578586fd5b855b858110156106d45781356106c281610c7d565b845292840192908401906001016106af565b5090979650505050505050565b600082601f8301126106f1578081fd5b8135602061070161068c83610c5f565b828152818101908583018385028701840188101561071d578586fd5b855b858110156106d457813561073281610c7d565b8452928401929084019060010161071f565b600082601f830112610754578081fd5b8135602061076461068c83610c5f565b8281528181019085830183850287018401881015610780578586fd5b855b858110156106d457813584529284019290840190600101610782565b600082601f8301126107ae578081fd5b813567ffffffffffffffff8111156107c257fe5b6107d5601f8201601f1916602001610c3b565b8181528460208386010111156107e9578283fd5b816020850160208301379081016020019190915292915050565b600060608284031215610814578081fd5b6040516060810181811067ffffffffffffffff8211171561083157fe5b6040529050808235801515811461084757600080fd5b815260208301356001600160781b038116811461086357600080fd5b602082015260408301356001600160801b038116811461088257600080fd5b6040919091015292915050565b6000604082840312156108a0578081fd5b6040516040810181811067ffffffffffffffff821117156108bd57fe5b604052823581526020928301359281019290925250919050565b6000602082840312156108e8578081fd5b813561059781610c7d565b60008060008060008060008060008060006101c08c8e031215610914578687fd5b67ffffffffffffffff808d35111561092a578788fd5b6109378e8e358f0161079e565b9b508060208e01351115610949578788fd5b6109598e60208f01358f0161079e565b9a508060408e0135111561096b578788fd5b61097b8e60408f01358f016106e1565b99508060608e0135111561098d578788fd5b61099d8e60608f01358f01610744565b98508060808e013511156109af578788fd5b506109c08d60808e01358e0161066c565b965060a08c013595506109d560c08d01610661565b94506109e360e08d01610661565b93506109f38d6101008e01610803565b9250610a026101608d01610661565b9150610a128d6101808e0161088f565b90509295989b509295989b9093969950565b6001600160a01b03169052565b60008151808452815b81811015610a5657602081850181015186830182015201610a3a565b81811115610a675782602083870101525b50601f01601f19169290920160200192915050565b8051151582526020808201516001600160781b0316908301526040908101516001600160801b0316910152565b6001600160a01b0391909116815260200190565b6001600160a01b0392831681529116602082015260400190565b901515815260200190565b6000602082526105976020830184610a31565b60006040825283516101406040840152610b1461018084018251610a24565b60208101516101206101a0850152610b306102a0850182610a31565b9050604082015161017f19858303016101c0860152610b4f8282610a31565b9150506060820151610b656101e0860182610a24565b506080820151610b79610200860182610a24565b5060a082015161022085015260c082015161024085015260e08201516102608501526101009182015191610bb1610280860184610a24565b602087015160608601526040870151608086015260608701519250610bd960a0860184610a24565b60808701519250610bed60c0860184610a24565b60a08701519250610c0160e0860184610a24565b60c08701519250610c1481860184610a7c565b5060e08601519150610c2a610160850183610a24565b915061059790506020830184610a24565b60405181810167ffffffffffffffff81118282101715610c5757fe5b604052919050565b600067ffffffffffffffff821115610c7357fe5b5060209081020190565b6001600160a01b0381168114610c9257600080fd5b5056fea2646970667358221220b63aa414b067b4bda9aef1dac2ff8e35fafb4ea8a5114793852bc910853c692864736f6c634300070600336103206040527f6e71edae12b1b97f4d1f60370fef10105fa2faae0126114a169c64845d6126c9610120526706f05b59d3b20000610200819052610220526000610240523480156200005057600080fd5b506040516200575538038062005755833981016040819052620000739162000b0b565b8160e001518260a001518360c0015184600001518060c001518160e001518260200151836040015184600001518280604051806040016040528060018152602001603160f81b81525085858a6101000151336001600160a01b031660001b806080818152505050806001600160a01b031660a0816001600160a01b031660601b81525050508160039080519060200190620001109291906200084d565b508051620001269060049060208401906200084d565b505060058054601260ff1990911617905550815160209283012060c052805191012060e052507f8b73c3c69bb8fe3d512ecc4cf759cc79239f7b179b0ffacaa9a75d522b39400f61010052606090811b6001600160601b031916610140524294909401610160819052909201610180525050604080516002808252928101909152600091816020016020820280368337019050509050816060015181600081518110620001cf57fe5b60200260200101906001600160a01b031690816001600160a01b0316815250508160800151816001815181106200020257fe5b60200260200101906001600160a01b031690816001600160a01b03168152505062000238816200053e60201b620018631760201c565b60a082015162000248906200054e565b81516040516309b2760f60e01b81526000916001600160a01b0316906309b2760f906200027b9060029060040162000cc5565b602060405180830381600087803b1580156200029657600080fd5b505af1158015620002ab573d6000803e3d6000fd5b505050506040513d601f19601f82011682018060405250810190620002d1919062000af2565b83516040805160028082526060820183529394506001600160a01b03909216926366a9c7d2928592879290602083019080368337019050506040518463ffffffff1660e01b8152600401620003299392919062000c2b565b600060405180830381600087803b1580156200034457600080fd5b505af115801562000359573d6000803e3d6000fd5b5050506101a082905250606080840180516001600160601b031990831b81166101c052608086015190921b9091166101e052516200039790620005d7565b610260526080830151620003ab90620005d7565b61028052505060408051808201909152600e81526d1b9bdd08185d5d1a1bdc9a5e995960921b602082015290506001600160a01b0383166200040b5760405162461bcd60e51b815260040162000402919062000cda565b60405180910390fd5b50600b80546001600160a01b0319166001600160a01b039384161790558051600a8054602084015160409094015160ff1990911692151592909217610100600160801b0319166101006001600160781b0390941693909302929092176001600160801b03908116600160801b9190921602179055620004909082161515606962000685565b600c80546001600160a01b0319166001600160a01b039290921691909117905560408201516020830151620004c9911161015e62000685565b620004e16001600160a01b0382161515606962000685565b60208201516102a05260408201516102c052600d80546001600160a01b0319166001600160a01b0392909216919091179055606080820151811b6001600160601b03199081166102e052608090920151901b166103005262000d6f565b806200054a8162000696565b5050565b6200056364e8d4a5100082101560cb62000723565b6200057b67016345785d8a000082111560ca62000723565b62000597816008546200073460201b620018711790919060201c565b6008556040517fa9ba3ffe0b6c366b81232caab38605a0699ad5398d6cce76f91ee809e322dafc90620005cc90839062000d0f565b60405180910390a150565b600080826001600160a01b031663313ce5676040518163ffffffff1660e01b815260040160206040518083038186803b1580156200061457600080fd5b505afa15801562000629573d6000803e3d6000fd5b505050506040513d601f19601f820116820180604052508101906200064f919062000c08565b60ff16905060006200066e6012836200075a60201b620018861760201c565b600a0a670de0b6b3a764000002925050505b919050565b816200054a576200054a8162000772565b600281511015620006a75762000720565b600081600081518110620006b757fe5b602002602001015190506000600190505b82518110156200071d576000838281518110620006e157fe5b6020026020010151905062000712816001600160a01b0316846001600160a01b03161060656200072360201b60201c565b9150600101620006c8565b50505b50565b816200054a576200054a8162000784565b60006200075382605685620007d760201b6200189c179092919060201c565b9392505050565b60006200076c83831115600162000723565b50900390565b62000720816223aca960e91b620007ec565b62461bcd60e51b6000908152602060045260076024526642414c23000030600a808404818106603090810160081b95839006959095019082900491820690940160101b939093010160c81b604452606490fd5b6001600160401b03811b1992909216911b1790565b62461bcd60e51b600090815260206004526007602452600a808404818106603090810160081b958390069590950190829004918206850160101b01602363ffffff0060e086901c160160181b0190930160c81b60445260e882901c90606490fd5b828054600181600116156101000203166002900490600052602060002090601f016020900481019282620008855760008555620008d0565b82601f10620008a057805160ff1916838001178555620008d0565b82800160010185558215620008d0579182015b82811115620008d0578251825591602001919060010190620008b3565b50620008de929150620008e2565b5090565b5b80821115620008de5760008155600101620008e3565b80516001600160a01b03811681146200068057600080fd5b600082601f83011262000922578081fd5b81516001600160401b038111156200093657fe5b6200094b601f8201601f191660200162000d18565b81815284602083860101111562000960578283fd5b6200097382602083016020870162000d3c565b949350505050565b6000606082840312156200098d578081fd5b604051606081016001600160401b0381118282101715620009aa57fe5b806040525080915082518015158114620009c357600080fd5b815260208301516001600160781b0381168114620009e057600080fd5b602082015260408301516001600160801b038116811462000a0057600080fd5b6040919091015292915050565b600061012080838503121562000a21578182fd5b62000a2c8162000d18565b91505062000a3a82620008f9565b815260208201516001600160401b038082111562000a5757600080fd5b62000a658583860162000911565b6020840152604084015191508082111562000a7f57600080fd5b5062000a8e8482850162000911565b60408301525062000aa260608301620008f9565b606082015262000ab560808301620008f9565b608082015260a082015160a082015260c082015160c082015260e082015160e082015261010062000ae8818401620008f9565b9082015292915050565b60006020828403121562000b04578081fd5b5051919050565b6000806040838503121562000b1e578081fd5b82516001600160401b038082111562000b35578283fd5b90840190610140828703121562000b4a578283fd5b62000b5761010062000d18565b82518281111562000b66578485fd5b62000b748882860162000a0d565b825250602083015160208201526040830151604082015262000b9960608401620008f9565b606082015262000bac60808401620008f9565b608082015262000bbf60a08401620008f9565b60a082015262000bd38760c085016200097b565b60c082015262000be76101208401620008f9565b60e0820152935062000bff91505060208401620008f9565b90509250929050565b60006020828403121562000c1a578081fd5b815160ff8116811462000753578182fd5b60006060820185835260206060818501528186518084526080860191508288019350845b8181101562000c765784516001600160a01b03168352938301939183019160010162000c4f565b505084810360408601528551808252908201925081860190845b8181101562000cb75782516001600160a01b03168552938301939183019160010162000c90565b509298975050505050505050565b602081016003831062000cd457fe5b91905290565b600060208252825180602084015262000cfb81604085016020870162000d3c565b601f01601f19169190910160400192915050565b90815260200190565b6040518181016001600160401b038111828210171562000d3457fe5b604052919050565b60005b8381101562000d5957818101518382015260200162000d3f565b8381111562000d69576000848401525b50505050565b60805160a05160601c60c05160e05161010051610120516101405160601c61016051610180516101a0516101c05160601c6101e05160601c61020051610220516102405161026051610280516102a0516102c0516102e05160601c6103005160601c6148c262000e9360003980610b805280610caa5280610ce65280611cbf528061259052806125c2525080610bdb5280610c1752806110645280611c7552806124c352806124f5525080612fa4525080612fcb525080611ce2525080611c98525050806136b95250806136e05250806124445250806113cb52806123f852508061088a525080611a015250806119dd5250806112235250806115f6525080611b1d525080611b5f525080611b3e5250806111ff52508061114452506148c26000f3fe608060405234801561001057600080fd5b50600436106102f15760003560e01c806370a082311161019d57806395d89b41116100e9578063aaabadc5116100a2578063d505accf1161007c578063d505accf14610601578063d5c096c414610614578063dd62ed3e14610627578063f89f27ed1461063a576102f1565b8063aaabadc5146105e9578063abd13afe146105f1578063c0ff1a15146105f9576102f1565b806395d89b411461059857806398d5fdca146105a05780639b02cdde146105a85780639d2c110c146105b0578063a457c2d7146105c3578063a9059cbb146105d6576102f1565b80638456cb591161015657806387ec68171161013057806387ec681714610560578063893d20e8146105735780638d928af81461057b5780638dd9f89d14610583576102f1565b80638456cb591461053d578063851c1bb314610545578063876f303b14610558576102f1565b806370a08231146104c857806374f3b009146104db57806376e54a46146104fc5780637ecebe001461050f5780638002df1814610522578063828a7c3414610535576102f1565b80633aeae0d31161025c5780636028bfd411610215578063679aefce116101ef578063679aefce1461048d5780636d785a8714610495578063702ec0911461049d578063707dcd1e146104b3576102f1565b80636028bfd41461045c578063623a2e751461047d57806362ced09214610485576102f1565b80633aeae0d3146103e65780633c4dd5bb146103fb5780633f4ba83a1461041d57806344bbdb55146104255780634a6b0b151461043a57806355c6762814610454576102f1565b806323b872dd116102ae57806323b872dd14610388578063313ce5671461039b5780633644e515146103b057806338e9922e146103b857806338fff2d0146103cb57806339509351146103d3576102f1565b806306fdde03146102f6578063095ea7b3146103145780630e608b301461033457806316c38b3c1461034957806318160ddd1461035c5780631c0de05114610371575b600080fd5b6102fe610642565b60405161030b9190614755565b60405180910390f35b61032761032236600461428e565b6106d8565b60405161030b91906146e8565b610347610342366004614169565b6106ef565b005b6103476103573660046142b9565b6107a0565b6103646107b4565b60405161030b919061470b565b6103796107ba565b60405161030b939291906146f3565b6103276103963660046141d9565b6107e3565b6103a3610857565b60405161030b9190614845565b610364610860565b6103476103c636600461457d565b61086f565b610364610888565b6103276103e136600461428e565b6108ac565b6103ee6108e7565b60405161030b91906147a8565b61040e6104093660046145ad565b610932565b60405161030b9392919061482f565b610347610985565b61042d610a7a565b60405161030b919061466b565b610442610a89565b60405161030b9695949392919061472b565b610364610ae4565b61046f61046a3660046142d3565b610af1565b60405161030b929190614808565b610364610b22565b61042d610b7e565b610364610ba2565b61042d610bc7565b6104a5610bd6565b60405161030b929190614821565b6104bb610d7b565b60405161030b919061467f565b6103646104d6366004614169565b610d8b565b6104ee6104e93660046142d3565b610daa565b60405161030b9291906146c3565b61034761050a366004614407565b610e3a565b61036461051d366004614169565b610f61565b610347610530366004614169565b610f7c565b61042d611062565b610347611086565b6103646105533660046143df565b61113e565b610364611197565b61046f61056e3660046142d3565b6111d8565b61042d6111fd565b61042d611221565b61058b611245565b60405161030b91906146b0565b6102fe6112df565b610364611340565b61036461139c565b6103646105be366004614486565b6113a2565b6103276105d136600461428e565b611528565b6103276105e436600461428e565b611566565b61042d611573565b61042d61157d565b61036461158c565b61034761060f366004614219565b6115c7565b6104ee6106223660046142d3565b611737565b6103646106353660046141a1565b61181c565b61058b611859565b60038054604080516020601f60026000196101006001881615020190951694909404938401819004810282018101909252828152606093909290918301828280156106ce5780601f106106a3576101008083540402835291602001916106ce565b820191906000526020600020905b8154815290600101906020018083116106b157829003601f168201915b5050505050905090565b60006106e53384846118b2565b5060015b92915050565b600b5460408051808201909152600e81526d1b9bdd08185d5d1a1bdc9a5e995960921b6020820152906001600160a01b031633146107495760405162461bcd60e51b81526004016107409190614755565b60405180910390fd5b50600b80546001600160a01b0319166001600160a01b0383161790556040517fb8fd9afc34c38fcd13b9a3b7646482eb1fddcefb40af2c70609972816eba32089061079590839061466b565b60405180910390a150565b6107a8611914565b6107b181611942565b50565b60025490565b60008060006107c76119be565b1592506107d26119db565b91506107dc6119ff565b9050909192565b6000806107f0853361181c565b9050610814336001600160a01b038716148061080c5750838210155b61019e611a23565b61081f858585611a31565b336001600160a01b0386161480159061083a57506000198114155b1561084c5761084c85338584036118b2565b506001949350505050565b60055460ff1690565b600061086a611b19565b905090565b610877611914565b61087f611bd7565b6107b181611bec565b7f000000000000000000000000000000000000000000000000000000000000000090565b3360008181526001602090815260408083206001600160a01b038716845290915281205490916106e59185906108e29086611c55565b6118b2565b6108ef61409c565b5060408051606081018252600a5460ff81161515825261010081046001600160781b03166020830152600160801b90046001600160801b03169181019190915290565b60008060008061094185611c67565b9050600061094f8615611c67565b905061095b8883611d94565b97506109678782611d94565b9650610974888888611da0565b945094509450505093509350939050565b600c546040805180820190915260118152703737ba103830bab9b29036b0b730b3b2b960791b6020820152906001600160a01b03163314610a445760405162461bcd60e51b81526004018080602001828103825283818151815260200191508051906020019080838360005b83811015610a095781810151838201526020016109f1565b50505050905090810190601f168015610a365780820380516001836020036101000a031916815260200191505b509250505060405180910390fd5b50610a4f60006107a8565b6040517f215385c8bfc731925ec8068d7baa50f6b6f34417cc7804f7273dc2c0b3db279090600090a1565b600d546001600160a01b031681565b60008060008060008060006008549050610aa281611e6f565b9650610aad81611e7b565b9550610ab881611e88565b9450610ac381611e95565b9350610ace81611ea2565b9250610ad981611eaf565b915050909192939495565b600061086a600854611eaf565b60006060610b0186516002611ebc565b610b1689898989898989611ec9611f9061200e565b97509795505050505050565b600080610b2d61158c565b90506000610b396107b4565b9050600080610b4a60095485612121565b50919350915060009050610b6882610b62868661218a565b9061218a565b9050610b7485826121a2565b9550505050505090565b7f000000000000000000000000000000000000000000000000000000000000000081565b600061086a610baf6107b4565b610bc1610bba61158c565b60026121fc565b906121a2565b600b546001600160a01b031681565b6000807f00000000000000000000000000000000000000000000000000000000000000006001600160a01b0316610c1557670de0b6b3a7640000610ca6565b7f00000000000000000000000000000000000000000000000000000000000000006001600160a01b031663679aefce6040518163ffffffff1660e01b815260040160206040518083038186803b158015610c6e57600080fd5b505afa158015610c82573d6000803e3d6000fd5b505050506040513d601f19601f82011682018060405250810190610ca69190614595565b91507f00000000000000000000000000000000000000000000000000000000000000006001600160a01b0316610ce457670de0b6b3a7640000610d75565b7f00000000000000000000000000000000000000000000000000000000000000006001600160a01b031663679aefce6040518163ffffffff1660e01b815260040160206040518083038186803b158015610d3d57600080fd5b505afa158015610d51573d6000803e3d6000fd5b505050506040513d601f19601f82011682018060405250810190610d759190614595565b90509091565b610d836140bc565b61086a612220565b6001600160a01b0381166000908152602081905260409020545b919050565b60608088610dd4610db9611221565b6001600160a01b0316336001600160a01b03161460cd611a23565b610de9610ddf610888565b82146101f4611a23565b610df287612246565b6000806000610e068d8d8d8d8d8d8d611ec9565b925092509250610e168c846122a8565b610e1f82611f90565b610e2881611f90565b909c909b509950505050505050505050565b600b5460408051808201909152600e81526d1b9bdd08185d5d1a1bdc9a5e995960921b6020820152906001600160a01b03163314610e8b5760405162461bcd60e51b81526004016107409190614755565b50600a5460408051808201909152601081526f1c1bdbdb081a5cc81d5b98d85c1c195960821b60208201529060ff16610ed75760405162461bcd60e51b81526004016107409190614755565b508051600a8054602084015160408086015160ff19909316941515949094176fffffffffffffffffffffffffffffff0019166101006001600160781b0390921691909102176001600160801b03908116600160801b919092160217815590517f2abf5970d7bc1a2b36eaae52dd2cc353edb0337c7284ef8a01973081b4e0442491610795916147dd565b6001600160a01b031660009081526006602052604090205490565b600c546040805180820190915260118152703737ba103830bab9b29036b0b730b3b2b960791b60208201526001600160a01b03909116903382146110015760405162461bcd60e51b8152602060048201818152835160248401528351909283926044909101919085019080838360008315610a095781810151838201526020016109f1565b50600c80546001600160a01b0319166001600160a01b03848116918217909255604080519284168352602083019190915280517f1ffccd1fa96f4fb3415df8048a0fd107344e262d2d246c85105e2a3f8f3e81989281900390910190a15050565b7f000000000000000000000000000000000000000000000000000000000000000081565b600c546040805180820190915260118152703737ba103830bab9b29036b0b730b3b2b960791b6020820152906001600160a01b031633146111085760405162461bcd60e51b8152602060048201818152835160248401528351909283926044909101919085019080838360008315610a095781810151838201526020016109f1565b5061111360016107a8565b6040517f681eace576127d0553b224436a09801fb47d042942cbff59d7d4ff04d8fa03d790600090a1565b604080517f00000000000000000000000000000000000000000000000000000000000000006020808301919091526001600160e01b03198416828401528251602481840301815260449092019092528051910120919050565b6000806111a26107b4565b90506000806111ba6009546111b561158c565b612121565b5091935091506111d0905081610b62858561218a565b935050505090565b600060606111e886516002611ebc565b610b16898989898989896122b261237161200e565b7f000000000000000000000000000000000000000000000000000000000000000090565b7f000000000000000000000000000000000000000000000000000000000000000090565b606060006112516123d3565b60408051600280825260608201835292935091906020830190803683370190505091506112a88160008151811061128457fe5b60200260200101518260018151811061129957fe5b60200260200101516001611da0565b909150836000815181106112b857fe5b60200260200101846001815181106112cc57fe5b6020908102919091010191909152525090565b60048054604080516020601f60026000196101006001881615020190951694909404938401819004810282018101909252828152606093909290918301828280156106ce5780601f106106a3576101008083540402835291602001916106ce565b60008061134b6123d3565b905060008060006113778460008151811061136257fe5b60200260200101518560018151811061129957fe5b925092509250611388848383612489565b9450611393856124bf565b94505050505090565b60095490565b60006113ac611bd7565b83608001516113bc610db9611221565b6113c7610ddf610888565b60007f00000000000000000000000000000000000000000000000000000000000000006001600160a01b031686602001516001600160a01b0316149050600061140f82611c67565b9050600061141d8315611c67565b90506114298783611d94565b96506114358682611d94565b955060008060006114478a8a88611da0565b9194509250905060008b51600181111561145d57fe5b14156114cc57600061147b611470610ae4565b60608e01519061265f565b905061149d611497828e606001516126b490919063ffffffff16565b87611d94565b60608d015260006114b18d8d8d87876126ca565b90506114bd81876126e9565b99505050505050505050611520565b6114da8b6060015185611d94565b60608c015260006114ee8c8c8c86866126f5565b90506114fa8187612708565b905061151661150f61150a610ae4565b612714565b829061273a565b9850505050505050505b509392505050565b600080611535338561181c565b905080831061154f5761154a338560006118b2565b61155c565b61155c33858584036118b2565b5060019392505050565b60006106e5338484611a31565b600061086a6127a0565b600c546001600160a01b031681565b6000806115976123d3565b905060006115a3612220565b90506115c0828260005b60200201518360015b602002015161281a565b9250505090565b6115d58442111560d1611a23565b6001600160a01b0380881660008181526006602090815260408083205481517f00000000000000000000000000000000000000000000000000000000000000008185015280830195909552948b166060850152608084018a905260a0840185905260c08085018a90528151808603909101815260e090940190528251920191909120906116618261284d565b9050600060018288888860405160008152602001604052604051808581526020018460ff1681526020018381526020018281526020019450505050506020604051602081039080840390855afa1580156116bf573d6000803e3d6000fd5b5050604051601f190151915061170190506001600160a01b038216158015906116f957508b6001600160a01b0316826001600160a01b0316145b6101f8611a23565b6001600160a01b038b16600090815260066020526040902060018501905561172a8b8b8b6118b2565b5050505050505050505050565b60608088611746610db9611221565b611751610ddf610888565b611759611bd7565b60006117636107b4565b6117d3576117738b8b8b88612899565b94509050611788620f424082101560cc611a23565b6117966000620f424061296e565b6117a589620f4240830361296e565b6117ae84612371565b604080516002808252606082018352909160208301908036833701905050925061180e565b6117dc88612246565b6117eb8b8b8b8b8b8b8b6122b2565b909550935090506117fc898261296e565b61180584612371565b61180e83611f90565b505097509795505050505050565b6000611826611221565b6001600160a01b0316826001600160a01b0316141561184857506000196106e9565b6118528383612978565b90506106e9565b606061086a6129a3565b8061186d81612a12565b5050565b600061187f8383605661189c565b9392505050565b6000611896838311156001611a23565b50900390565b67ffffffffffffffff811b1992909216911b1790565b6001600160a01b03808416600081815260016020908152604080832094871680845294825291829020859055815185815291517f8c5be1e5ebec7d5bd14f71427d1e84f3dd0314c0f7b2291e5b200ac8c7c3b9259281900390910190a3505050565b600061192b6000356001600160e01b03191661113e565b90506107b161193a8233612a90565b610191611a23565b80156119625761195d6119536119db565b4210610193611a23565b611977565b61197761196d6119ff565b42106101a9611a23565b6007805482151560ff19909116811790915560408051918252517f9e3a5e37224532dea67b89face185703738a228a6e8a23dee546960180d3be649181900360200190a150565b60006119c86119ff565b42118061086a57505060075460ff161590565b7f000000000000000000000000000000000000000000000000000000000000000090565b7f000000000000000000000000000000000000000000000000000000000000000090565b8161186d5761186d81612b92565b611a486001600160a01b0384161515610198611a23565b611a5f6001600160a01b0383161515610199611a23565b611a6a838383612a8b565b6001600160a01b038316600090815260208190526040902054611a9090826101a0612be5565b6001600160a01b038085166000908152602081905260408082209390935590841681522054611abf9082611c55565b6001600160a01b038084166000818152602081815260409182902094909455805185815290519193928716927fddf252ad1be2c89b69c2b068fc378daa952ba7f163c4a11628f55a4df523b3ef92918290030190a3505050565b60007f00000000000000000000000000000000000000000000000000000000000000007f00000000000000000000000000000000000000000000000000000000000000007f0000000000000000000000000000000000000000000000000000000000000000611b86612bfb565b3060405160200180868152602001858152602001848152602001838152602001826001600160a01b031681526020019550505050505060405160208183030381529060405280519060200120905090565b611bea611be26119be565b610192611a23565b565b611bff64e8d4a5100082101560cb611a23565b611c1567016345785d8a000082111560ca611a23565b600854611c229082611871565b6008556040517fa9ba3ffe0b6c366b81232caab38605a0699ad5398d6cce76f91ee809e322dafc9061079590839061470b565b600082820161187f8482101583611a23565b60008060008315611cbc57507f000000000000000000000000000000000000000000000000000000000000000090507f0000000000000000000000000000000000000000000000000000000000000000611d02565b507f000000000000000000000000000000000000000000000000000000000000000090507f00000000000000000000000000000000000000000000000000000000000000005b6001600160a01b0382161561187f57611d8c826001600160a01b031663679aefce6040518163ffffffff1660e01b815260040160206040518083038186803b158015611d4d57600080fd5b505afa158015611d61573d6000803e3d6000fd5b505050506040513d601f19601f82011682018060405250810190611d859190614595565b8290612bff565b949350505050565b600061187f8383612bff565b60408051600280825260608201835260009283928392839260208301908036833701905050905084611dd25785611dd4565b865b81600081518110611de157fe5b60200260200101818152505084611df85786611dfa565b855b81600181518110611e0757fe5b6020026020010181815250506000611e1d612220565b9050611e2b828260006115ad565b94506000611e398287612c38565b905086611e4a576020810151611e4d565b80515b945086611e5b578051611e61565b60208101515b935050505093509350939050565b60006106e98282612c6c565b60006106e9826016612c6c565b60006106e982602c612c93565b60006106e982604b612c9d565b60006106e9826055612ca5565b60006106e9826056612caf565b61186d8183146067611a23565b60006060806000611ed8612220565b9050611ee26119be565b15611f44576000611efd8983835b60200201518460016115b6565b90506000611f0b8383612c38565b9050611f1682612cbd565b611f208a88612cea565b9096509450611f398287611f326107b4565b6000612d36565b60095550611f5a9050565b611f4e8886612cea565b60001960095590945092505b60408051600280825260608201835286928692919060208301908036833701905050935093509350509750975097945050505050565b611fb781600081518110611fa057fe5b6020026020010151611fb26001611c67565b6121a2565b81600081518110611fc457fe5b602002602001018181525050611ff281600181518110611fe057fe5b6020026020010151611fb26000611c67565b81600181518110611fff57fe5b60200260200101818152505050565b3330146120cc576000306001600160a01b031660003660405161203292919061465b565b6000604051808303816000865af19150503d806000811461206f576040519150601f19603f3d011682016040523d82523d6000602084013e612074565b606091505b50509050806000811461208357fe5b60046000803e6000516001600160e01b0319166343adbafb60e01b81146120ae573d6000803e3d6000fd5b506020600460003e604060205260243d03602460403e601c3d016000f35b6120d586612246565b6000806120eb8b8b8b8b8b8b8b8b63ffffffff16565b50915091506120fd818463ffffffff16565b8051601f1982018390526343adbafb603f1983015260200260231982016044820181fd5b600080600080600080600080612135612d8e565b9350935093509350836000141561215a57600097508796509094509250612181915050565b6000806121718c8c61216a6107b4565b8989612f00565b909a509850929650909450505050505b92959194509250565b60008282018381101561187f5761187f600080611a23565b6000816121b5576121b560006004611a23565b826121c2575060006106e9565b670de0b6b3a7640000838102908482816121d857fe5b04146121ea576121ea60006005611a23565b8281816121f357fe5b04949350505050565b600082820261187f84158061221957508385838161221657fe5b04145b6003611a23565b6122286140bc565b6122326001612f9b565b815261223e6000612f9b565b602082015290565b61226d8160008151811061225657fe5b60200260200101516122686001611c67565b612bff565b8160008151811061227a57fe5b602002602001018181525050611ff28160018151811061229657fe5b60200260200101516122686000611c67565b61186d8282612fef565b600060608060006122c1612220565b905060006122d0898383611ef0565b905060006122de8383612c38565b90506122e982612cbd565b6000806122f68c8a6130a6565b600a54919350915060ff161561232057612320826123138f610d8b565b61231b6107b4565b6130e0565b612334848361232d6107b4565b6001612d36565b6009556040805160028082526060820183528492849291906020830190803683370190505097509750975050505050509750975097945050505050565b6123988160008151811061238157fe5b60200260200101516123936001611c67565b61273a565b816000815181106123a557fe5b602002602001018181525050611ff2816001815181106123c157fe5b60200260200101516123936000611c67565b60408051600280825260608083018452926020830190803683370190505090506124267f00000000000000000000000000000000000000000000000000000000000000006124216001611c67565b6131f2565b8160008151811061243357fe5b60200260200101818152505061246d7f00000000000000000000000000000000000000000000000000000000000000006124216000611c67565b8160018151811061247a57fe5b60200260200101818152505090565b6000611d8c8460008151811061249b57fe5b602002602001015184866001815181106124b157fe5b602002602001015185613299565b60007f00000000000000000000000000000000000000000000000000000000000000006001600160a01b03161561258e5761258b7f00000000000000000000000000000000000000000000000000000000000000006001600160a01b031663679aefce6040518163ffffffff1660e01b815260040160206040518083038186803b15801561254c57600080fd5b505afa158015612560573d6000803e3d6000fd5b505050506040513d601f19601f820116820180604052508101906125849190614595565b8390612bff565b91505b7f00000000000000000000000000000000000000000000000000000000000000006001600160a01b03161561265b576126587f00000000000000000000000000000000000000000000000000000000000000006001600160a01b031663679aefce6040518163ffffffff1660e01b815260040160206040518083038186803b15801561261957600080fd5b505afa15801561262d573d6000803e3d6000fd5b505050506040513d601f19601f820116820180604052508101906126519190614595565b83906121a2565b91505b5090565b600082820283158061267957508284828161267657fe5b04145b6126895761268960006003611a23565b806126985760009150506106e9565b670de0b6b3a764000060001982015b0460010191505092915050565b6000828211156118965761189660006001611a23565b60006126dd8585886060015186866132b2565b90505b95945050505050565b600061187f83836121a2565b60006126dd85858860600151868661331c565b600061187f838361273a565b6000670de0b6b3a7640000821061272c5760006106e9565b50670de0b6b3a76400000390565b60008161274d5761274d60006004611a23565b8261275a575060006106e9565b670de0b6b3a76400008381029084828161277057fe5b041461279457612794670de0b6b3a764000085838161278b57fe5b04146005611a23565b8260018203816126a757fe5b60006127aa611221565b6001600160a01b031663aaabadc56040518163ffffffff1660e01b815260040160206040518083038186803b1580156127e257600080fd5b505afa1580156127f6573d6000803e3d6000fd5b505050506040513d601f19601f8201168201806040525081019061086a9190614185565b600080600080600061282d88888861337c565b9350935093509350612841848484846134d4565b98975050505050505050565b6000612857611b19565b82604051602001808061190160f01b81525060020183815260200182815260200192505050604051602081830303815290604052805190602001209050919050565b6000606060006128a884613548565b90506128c360008260038111156128bb57fe5b1460ce611a23565b60006128ce85613567565b90506128dc81516002611ebc565b6128e581612246565b60008060006128fa8460008151811061136257fe5b925092509250600061290d858484612489565b9050600061295561293b838860008151811061292557fe5b6020026020010151612bff90919063ffffffff16565b8760018151811061294857fe5b6020026020010151611c55565b60099590955550929b939a509298505050505050505050565b61186d828261361b565b6001600160a01b03918216600090815260016020908152604080832093909416825291909152205490565b604080516002808252606080830184529260009291906020830190803683370190505090506129d260016136b0565b816000815181106129df57fe5b6020026020010181815250506129f560006136b0565b81600181518110612a0257fe5b6020908102919091010152905090565b600281511015612a21576107b1565b600081600081518110612a3057fe5b602002602001015190506000600190505b8251811015612a8b576000838281518110612a5857fe5b60200260200101519050612a81816001600160a01b0316846001600160a01b0316106065611a23565b9150600101612a41565b505050565b600073ba1ba1ba1ba1ba1ba1ba1ba1ba1ba1ba1ba1ba1b612aaf6111fd565b6001600160a01b031614158015612aca5750612aca83613704565b15612af257612ad76111fd565b6001600160a01b0316336001600160a01b03161490506106e9565b612afa6127a0565b6001600160a01b0316639be2a8848484306040518463ffffffff1660e01b815260040180848152602001836001600160a01b03168152602001826001600160a01b03168152602001935050505060206040518083038186803b158015612b5f57600080fd5b505afa158015612b73573d6000803e3d6000fd5b505050506040513d6020811015612b8957600080fd5b505190506106e9565b62461bcd60e51b6000908152602060045260076024526642414c23000030600a808404818106603090810160081b95839006959095019082900491820690940160101b939093010160c81b604452606490fd5b6000612bf48484111583611a23565b5050900390565b4690565b6000828202831580612c19575082848281612c1657fe5b04145b612c2957612c2960006003611a23565b670de0b6b3a7640000816121f3565b612c406140bc565b612c53600184815b602002015184613736565b8152612c6160008481612c48565b602082015292915050565b600082821c623fffff16621fffff8113612c865780611d8c565b623fffff19179392505050565b1c637fffffff1690565b1c6103ff1690565b1c60019081161490565b1c67ffffffffffffffff1690565b600080600080612ccf60095486612121565b9350935093509350612ce384848484613756565b5050505050565b600060606000612cf984613548565b90506001816003811115612d0957fe5b1415612d2357612d19858561377c565b9093509150612d2e565b612d2e610150612b92565b509250929050565b60008115612d68576000612d5484612d4e888861265f565b9061273a565b9050612d60868261218a565b915050611d8c565b6000612d7884610bc18888612bff565b9050612d8486826126b4565b9695505050505050565b600d54600090819081908190612db5906001600160a01b03163063032434c560e41b6137ae565b600d54612dd3906001600160a01b03163063032434c560e41b6137d5565b600d546040516321f8a72160e01b81526001600160a01b03909116906321f8a72190612e13906c4759524f5f545245415355525960981b9060040161470b565b60206040518083038186803b158015612e2b57600080fd5b505afa158015612e3f573d6000803e3d6000fd5b505050506040513d601f19601f82011682018060405250810190612e639190614185565b600d546040516321f8a72160e01b81526001600160a01b03909116906321f8a72190612ea2906b42414c5f545245415355525960a01b9060040161470b565b60206040518083038186803b158015612eba57600080fd5b505afa158015612ece573d6000803e3d6000fd5b505050506040513d601f19601f82011682018060405250810190612ef29190614185565b935093509350935090919293565b600080868611612f1557506000905080612f91565b6000612f3585612f2f612f288a8c6126b4565b8990612bff565b90612bff565b90506000612f4d612f46898b6126b4565b8790612bff565b90506000612f5b89836126b4565b90506000612f6984836121a2565b90506000612f778883612bff565b90506000612f8583836126b4565b91975090955050505050505b9550959350505050565b600081612fc8577f00000000000000000000000000000000000000000000000000000000000000006106e9565b507f0000000000000000000000000000000000000000000000000000000000000000919050565b6130066001600160a01b038316151561019b611a23565b61301282600083612a8b565b6001600160a01b03821660009081526020819052604090205461303890826101a1612be5565b6001600160a01b03831660009081526020819052604090205560025461305e9082613803565b6002556040805182815290516000916001600160a01b038516917fddf252ad1be2c89b69c2b068fc378daa952ba7f163c4a11628f55a4df523b3ef9181900360200190a35050565b6000606060006130b584613548565b905060038160038111156130c557fe5b14156130d557612d198585613811565b612d2e610136612b92565b60408051606081018252600a5460ff81161515825261010081046001600160781b031660208301819052600160801b9091046001600160801b0316928201929092529061312d858561218a565b11156040518060400160405280601a81526020017f6f7665722061646472657373206c697175696469747920636170000000000000815250906131835760405162461bcd60e51b81526004016107409190614755565b5060408101516001600160801b031661319c858461218a565b11156040518060400160405280601981526020017f6f76657220676c6f62616c206c6971756964697479206361700000000000000081525090612ce35760405162461bcd60e51b81526004016107409190614755565b60008060006131ff611221565b6001600160a01b031663b05f8e48613215610888565b876040518363ffffffff1660e01b8152600401613233929190614714565b60806040518083038186803b15801561324b57600080fd5b505afa15801561325f573d6000803e3d6000fd5b505050506040513d601f19601f8201168201806040525081019061328391906145e1565b5050818101945090925090506126e08385612bff565b60006126e06132a8868661218a565b612d4e858561218a565b6000806132d16132ca85670de0b6b3a764000261265f565b889061218a565b905060006132ea6132ca85670de0b6b3a763ffff612bff565b90506133036132f9838861218a565b610bc18389612bff565b92505050848111156126e0576126e06000610165613836565b600084841115613333576133336000610165613836565b600061334a6132ca85670de0b6b3a764000261265f565b905060006133636132ca85670de0b6b3a763ffff612bff565b905061284161337282886126b4565b612d4e848961265f565b600080808061339d61338e87876121a2565b670de0b6b3a7640000906126b4565b935060006133c886896001815181106133b257fe5b60200260200101516121a290919063ffffffff16565b905060006133dd888a60008151811061292557fe5b90506133e9828261218a565b9450613410896001815181106133fb57fe5b60200260200101518a60008151811061292557fe5b9250505061344186612f2f88612f2f8b60008151811061342c57fe5b60200260200101518c60008151811061292557fe5b9150600061348186610bc189612f2f670de0b6b3a7640000600202612f2f8e60018151811061346c57fe5b60200260200101518f60008151811061292557fe5b905060006134b7613492888061265f565b610bc18b6001815181106134a257fe5b60200260200101518c60018151811061292557fe5b90506134c781610b62868561218a565b9350505093509350935093565b6000806134e986671bc16d674ec8000061265f565b9050600061350387612f2f86673782dace9d900000612bff565b90506000613511868361218a565b90506000613520826005613844565b9050600061352e898361218a565b905061353a81866121a2565b9a9950505050505050505050565b600081806020019051602081101561355f57600080fd5b505192915050565b606081806020019051604081101561357e57600080fd5b8151602083018051604051929492938301929190846401000000008211156135a557600080fd5b9083019060208201858111156135ba57600080fd5b82518660208202830111640100000000821117156135d757600080fd5b82525081516020918201928201910280838360005b838110156136045781810151838201526020016135ec565b505050509190910160405250929695505050505050565b61362760008383612a8b565b6002546136349082611c55565b6002556001600160a01b03821660009081526020819052604090205461365a9082611c55565b6001600160a01b0383166000818152602081815260408083209490945583518581529351929391927fddf252ad1be2c89b69c2b068fc378daa952ba7f163c4a11628f55a4df523b3ef9281900390910190a35050565b6000816136dd577f00000000000000000000000000000000000000000000000000000000000000006106e9565b507f0000000000000000000000000000000000000000000000000000000000000000919050565b6000613716631c74c91760e11b61113e565b8214806106e9575061372e6350dd6ed960e01b61113e565b909114919050565b60008361374c576137478284611d94565b611d8c565b611d8c82846126e9565b831561376657613766828561296e565b821561377657613776818461296e565b50505050565b60006060600061378b846139d2565b905060006137a1868361379c6107b4565b6139f4565b9196919550909350505050565b6000611d8c847550524f544f434f4c5f535741505f4645455f5045524360501b8486613a7a565b6000611d8c847f50524f544f434f4c5f4645455f4759524f5f504f5254494f4e000000000000008486613a7a565b600061187f83836001612be5565b600060606000613820846139d2565b905060006137a186836138316107b4565b613d27565b8161186d5761186d81613dc3565b600082613853575060006106e9565b600061385e84613dd3565b9050600281670de0b6b3a764000086028161387557fe5b0482018161387f57fe5b049050600281670de0b6b3a764000086028161389757fe5b048201816138a157fe5b049050600281670de0b6b3a76400008602816138b957fe5b048201816138c357fe5b049050600281670de0b6b3a76400008602816138db57fe5b048201816138e557fe5b049050600281670de0b6b3a76400008602816138fd57fe5b0482018161390757fe5b049050600281670de0b6b3a764000086028161391f57fe5b0482018161392957fe5b049050600281670de0b6b3a764000086028161394157fe5b0482018161394b57fe5b049050600061395a8280612bff565b9050613970613969838661265f565b869061218a565b8111158015613992575061398e613987838661265f565b86906126b4565b8110155b611520576040805162461bcd60e51b815260206004820152600c60248201526b17dcdc5c9d0811905253115160a21b604482015290519081900360640190fd5b60008180602001905160408110156139e957600080fd5b506020015192915050565b6060835167ffffffffffffffff81118015613a0e57600080fd5b50604051908082528060200260200182016040528015613a38578160200160208202803683370190505b50905060005b845181101561152057613a5b83610bc18688858151811061292557fe5b828281518110613a6757fe5b6020908102919091010152600101613a3e565b6040805160208082018690526001600160a01b03808516838501528351808403850181526060840180865281519184019190912063696eb37560e01b909152606484018190529351600094939189169263696eb3759260848082019391829003018186803b158015613aeb57600080fd5b505afa158015613aff573d6000803e3d6000fd5b505050506040513d6020811015613b1557600080fd5b505115613b9557856001600160a01b031663bd02d0f5826040518263ffffffff1660e01b81526004018082815260200191505060206040518083038186803b158015613b6057600080fd5b505afa158015613b74573d6000803e3d6000fd5b505050506040513d6020811015613b8a57600080fd5b50519150611d8c9050565b6040805160208082018890528183018790528251808303840181526060830180855281519183019190912063696eb37560e01b9091526064830181905292516001600160a01b038a169263696eb375926084808301939192829003018186803b158015613c0157600080fd5b505afa158015613c15573d6000803e3d6000fd5b505050506040513d6020811015613c2b57600080fd5b505115613cac57866001600160a01b031663bd02d0f5826040518263ffffffff1660e01b81526004018082815260200191505060206040518083038186803b158015613c7657600080fd5b505afa158015613c8a573d6000803e3d6000fd5b505050506040513d6020811015613ca057600080fd5b50519250611d8c915050565b866001600160a01b031663bd02d0f5876040518263ffffffff1660e01b81526004018082815260200191505060206040518083038186803b158015613cf057600080fd5b505afa158015613d04573d6000803e3d6000fd5b505050506040513d6020811015613d1a57600080fd5b5051979650505050505050565b6060835167ffffffffffffffff81118015613d4157600080fd5b50604051908082528060200260200182016040528015613d6b578160200160208202803683370190505b50905060005b845181101561152057613da483612d4e86888581518110613d8e57fe5b602002602001015161265f90919063ffffffff16565b828281518110613db057fe5b6020908102919091010152600101613d71565b6107b1816223aca960e91b613fa5565b6000670de0b6b3a76400008210613e0057670de0b6b3a7640000613df8818404614006565b1b9050610da5565b600a8211613e13575063bc7c871c610da5565b60648211613e2757506402540be400610da5565b6103e88211613e3c575064075cdd4719610da5565b6127108211613e51575064174876e800610da5565b620186a08211613e6757506449a0a4c700610da5565b620f42408211613e7d575064e8d4a51000610da5565b629896808211613e9457506502e0466fc608610da5565b6305f5e1008211613eac57506509184e72a000610da5565b633b9aca008211613ec45750651cc2c05dbc53610da5565b6402540be4008211613edd5750655af3107a4000610da5565b64174876e8008211613ef7575066011f9b83a95b45610da5565b64e8d4a510008211613f11575066038d7ea4c68000610da5565b6509184e72a0008211613f2c5750660b3c13249d90bb610da5565b655af3107a40008211613f475750662386f26fc10000610da5565b66038d7ea4c680008211613f635750667058bf6e27a751610da5565b662386f26fc100008211613f80575067016345785d8a0000610da5565b67016345785d8a00008211613f9e5750670463777a4d8c892d610da5565b5080610da5565b62461bcd60e51b600090815260206004526007602452600a808404818106603090810160081b958390069590950190829004918206850160101b01602363ffffff0060e086901c160160181b0190930160c81b60445260e882901c90606490fd5b6000600160801b821061401e5760809190911c906040015b6801000000000000000082106140395760409190911c906020015b64010000000082106140505760209190911c906010015b6201000082106140655760109190911c906008015b61010082106140795760089190911c906004015b6010821061408c5760049190911c906002015b60048210610da557600101919050565b604080516060810182526000808252602082018190529181019190915290565b60405180604001604052806002906020820280368337509192915050565b8035610da581614877565b80358015158114610da557600080fd5b600082601f830112614105578081fd5b813567ffffffffffffffff81111561411957fe5b61412c601f8201601f1916602001614853565b818152846020838601011115614140578283fd5b816020850160208301379081016020019190915292915050565b803560028110610da557600080fd5b60006020828403121561417a578081fd5b813561187f81614877565b600060208284031215614196578081fd5b815161187f81614877565b600080604083850312156141b3578081fd5b82356141be81614877565b915060208301356141ce81614877565b809150509250929050565b6000806000606084860312156141ed578081fd5b83356141f881614877565b9250602084013561420881614877565b929592945050506040919091013590565b600080600080600080600060e0888a031215614233578283fd5b873561423e81614877565b9650602088013561424e81614877565b95506040880135945060608801359350608088013560ff81168114614271578384fd5b9699959850939692959460a0840135945060c09093013592915050565b600080604083850312156142a0578182fd5b82356142ab81614877565b946020939093013593505050565b6000602082840312156142ca578081fd5b61187f826140e5565b600080600080600080600060e0888a0312156142ed578081fd5b8735965060208801356142ff81614877565b9550604088013561430f81614877565b9450606088013567ffffffffffffffff8082111561432b578283fd5b818a0191508a601f83011261433e578283fd5b81358181111561434a57fe5b6020810261435a60208201614853565b80838252602082019150602086018f6020858901011115614379578788fd5b8796505b8487101561439c5780358352600196909601956020928301920161437d565b50985050505060808a0135945060a08a0135935060c08a01359150808211156143c3578283fd5b506143d08a828b016140f5565b91505092959891949750929550565b6000602082840312156143f0578081fd5b81356001600160e01b03198116811461187f578182fd5b600060608284031215614418578081fd5b6040516060810181811067ffffffffffffffff8211171561443557fe5b604052614441836140e5565b815260208301356001600160781b038116811461445c578283fd5b602082015260408301356001600160801b038116811461447a578283fd5b60408201529392505050565b60008060006060848603121561449a578081fd5b833567ffffffffffffffff808211156144b1578283fd5b81860191506101208083890312156144c7578384fd5b6144d081614853565b90506144db8361415a565b81526144e9602084016140da565b60208201526144fa604084016140da565b6040820152606083013560608201526080830135608082015260a083013560a082015261452960c084016140da565b60c082015261453a60e084016140da565b60e08201526101008084013583811115614552578586fd5b61455e8a8287016140f5565b9183019190915250976020870135975060409096013595945050505050565b60006020828403121561458e578081fd5b5035919050565b6000602082840312156145a6578081fd5b5051919050565b6000806000606084860312156145c1578081fd5b83359250602084013591506145d8604085016140e5565b90509250925092565b600080600080608085870312156145f6578182fd5b845193506020850151925060408501519150606085015161461681614877565b939692955090935050565b6000815180845260208085019450808401835b8381101561465057815187529582019590820190600101614634565b509495945050505050565b6000828483379101908152919050565b6001600160a01b0391909116815260200190565b60408101818360005b60028110156146a7578151835260209283019290910190600101614688565b50505092915050565b60006020825261187f6020830184614621565b6000604082526146d66040830185614621565b82810360208401526126e08185614621565b901515815260200190565b92151583526020830191909152604082015260600190565b90815260200190565b9182526001600160a01b0316602082015260400190565b9586526020860194909452604085019290925260608401521515608083015260a082015260c00190565b6000602080835283518082850152825b8181101561478157858101830151858201604001528201614765565b818111156147925783604083870101525b50601f01601f1916929092016040019392505050565b8151151581526020808301516001600160781b0316908201526040918201516001600160801b03169181019190915260600190565b905460ff811615158252600881901c6001600160781b0316602083015260801c604082015260600190565b600083825260406020830152611d8c6040830184614621565b918252602082015260400190565b9283526020830191909152604082015260600190565b60ff91909116815260200190565b60405181810167ffffffffffffffff8111828210171561486f57fe5b604052919050565b6001600160a01b03811681146107b157600080fdfea26469706673582212207b7356194bfaa5996b936a7cea25ab4327f37b07ee358aa7520bebe7e1c3bb2a64736f6c63430007060033","bytecodeSha1":"aa30e5caa1f9e3e3fb21133bb24ec9ab3126c2c3","compiler":{"evm_version":"berlin","optimizer":{"enabled":true,"runs":200},"version":"0.7.6+commit.7338295f"},"contractName":"Gyro2CLPPoolFactory","language":"Solidity","natspec":{"kind":"dev","methods":{"create(string,string,address[],uint256[],address[],uint256,address,address,(bool,uint120,uint128),address,(uint256,uint256))":{"details":"Deploys a new `Gyro2CLPPool`."},"getCreationCode()":{"details":"Returns the creation code of the contract this factory creates."},"getCreationCodeContracts()":{"details":"Returns the two addresses where the creation code of the contract crated by this factory is stored."},"getVault()":{"details":"Returns the Vault's address."},"isPoolFromFactory(address)":{"details":"Returns true if `pool` was created by this factory."}},"version":1},"opcodes":"PUSH1 0x80 PUSH1 0x40 MSTORE CALLVALUE DUP1 ISZERO PUSH2 0x10 JUMPI PUSH1 0x0 DUP1 REVERT JUMPDEST POP PUSH1 0x4 CALLDATASIZE LT PUSH2 0x61 JUMPI PUSH1 0x0 CALLDATALOAD PUSH1 0xE0 SHR DUP1 PUSH3 0xC194DB EQ PUSH2 0x66 JUMPI DUP1 PUSH4 0xBC7B4C4 EQ PUSH2 0x84 JUMPI DUP1 PUSH4 0x174481FA EQ PUSH2 0x99 JUMPI DUP1 PUSH4 0x6634B753 EQ PUSH2 0xAF JUMPI DUP1 PUSH4 0x8D928AF8 EQ PUSH2 0xCF JUMPI DUP1 PUSH4 0xCBA824C3 EQ PUSH2 0xD7 JUMPI JUMPDEST PUSH1 0x0 DUP1 REVERT JUMPDEST PUSH2 0x6E PUSH2 0xEA JUMP JUMPDEST PUSH1 0x40 MLOAD PUSH2 0x7B SWAP2 SWAP1 PUSH2 0xAE2 JUMP JUMPDEST PUSH1 0x40 MLOAD DUP1 SWAP2 SUB SWAP1 RETURN JUMPDEST PUSH2 0x8C PUSH2 0x109 JUMP JUMPDEST PUSH1 0x40 MLOAD PUSH2 0x7B SWAP2 SWAP1 PUSH2 0xAA9 JUMP JUMPDEST PUSH2 0xA1 PUSH2 0x12D JUMP JUMPDEST PUSH1 0x40 MLOAD PUSH2 0x7B SWAP3 SWAP2 SWAP1 PUSH2 0xABD JUMP JUMPDEST PUSH2 0xC2 PUSH2 0xBD CALLDATASIZE PUSH1 0x4 PUSH2 0x8D7 JUMP JUMPDEST PUSH2 0x173 JUMP JUMPDEST PUSH1 0x40 MLOAD PUSH2 0x7B SWAP2 SWAP1 PUSH2 0xAD7 JUMP JUMPDEST PUSH2 0x8C PUSH2 0x195 JUMP JUMPDEST PUSH2 0x8C PUSH2 0xE5 CALLDATASIZE PUSH1 0x4 PUSH2 0x8F3 JUMP JUMPDEST PUSH2 0x1B9 JUMP JUMPDEST PUSH1 0x60 PUSH2 0x104 PUSH1 0x40 MLOAD DUP1 PUSH1 0x20 ADD PUSH1 0x40 MSTORE DUP1 PUSH1 0x0 DUP2 MSTORE POP PUSH2 0x32C JUMP JUMPDEST SWAP1 POP SWAP1 JUMP JUMPDEST PUSH32 0x0 DUP2 JUMP JUMPDEST PUSH32 0x0 PUSH32 0x0 SWAP1 SWAP2 JUMP JUMPDEST PUSH1 0x1 PUSH1 0x1 PUSH1 0xA0 SHL SUB DUP2 AND PUSH1 0x0 SWAP1 DUP2 MSTORE PUSH1 0x20 DUP2 SWAP1 MSTORE PUSH1 0x40 SWAP1 KECCAK256 SLOAD PUSH1 0xFF AND JUMPDEST SWAP2 SWAP1 POP JUMP JUMPDEST PUSH32 0x0 SWAP1 JUMP JUMPDEST PUSH1 0x0 DUP1 PUSH2 0x1CA DUP14 DUP14 DUP14 DUP12 DUP12 DUP9 PUSH2 0x405 JUMP JUMPDEST SWAP1 POP PUSH1 0x0 PUSH1 0x40 MLOAD DUP1 PUSH2 0x100 ADD PUSH1 0x40 MSTORE DUP1 DUP4 DUP2 MSTORE PUSH1 0x20 ADD DUP13 PUSH1 0x0 DUP2 MLOAD DUP2 LT PUSH2 0x1ED JUMPI INVALID JUMPDEST PUSH1 0x20 MUL PUSH1 0x20 ADD ADD MLOAD DUP2 MSTORE PUSH1 0x20 ADD DUP13 PUSH1 0x1 DUP2 MLOAD DUP2 LT PUSH2 0x207 JUMPI INVALID JUMPDEST PUSH1 0x20 MUL PUSH1 0x20 ADD ADD MLOAD DUP2 MSTORE PUSH1 0x20 ADD DUP12 PUSH1 0x0 DUP2 MLOAD DUP2 LT PUSH2 0x221 JUMPI INVALID JUMPDEST PUSH1 0x20 MUL PUSH1 0x20 ADD ADD MLOAD PUSH1 0x1 PUSH1 0x1 PUSH1 0xA0 SHL SUB AND DUP2 MSTORE PUSH1 0x20 ADD DUP12 PUSH1 0x1 DUP2 MLOAD DUP2 LT PUSH2 0x244 JUMPI INVALID JUMPDEST PUSH1 0x20 MUL PUSH1 0x20 ADD ADD MLOAD PUSH1 0x1 PUSH1 0x1 PUSH1 0xA0 SHL SUB AND DUP2 MSTORE PUSH1 0x20 ADD DUP9 PUSH1 0x1 PUSH1 0x1 PUSH1 0xA0 SHL SUB AND DUP2 MSTORE PUSH1 0x20 ADD DUP8 DUP2 MSTORE PUSH1 0x20 ADD DUP7 PUSH1 0x1 PUSH1 0x1 PUSH1 0xA0 SHL SUB AND DUP2 MSTORE POP SWAP1 POP PUSH2 0x2C8 DUP2 PUSH32 0x0 PUSH1 0x40 MLOAD PUSH1 0x20 ADD PUSH2 0x2B4 SWAP3 SWAP2 SWAP1 PUSH2 0xAF5 JUMP JUMPDEST PUSH1 0x40 MLOAD PUSH1 0x20 DUP2 DUP4 SUB SUB DUP2 MSTORE SWAP1 PUSH1 0x40 MSTORE PUSH2 0x4B4 JUMP JUMPDEST SWAP15 SWAP14 POP POP POP POP POP POP POP POP POP POP POP POP POP POP JUMP JUMPDEST DUP1 MLOAD PUSH32 0x602038038060206000396000F3FEFEFEFEFEFEFEFEFEFEFEFEFEFEFEFEFEFEFE DUP1 DUP4 MSTORE PUSH1 0x0 SWAP2 PUSH1 0x20 DUP2 ADD DUP5 DUP5 CREATE SWAP1 DUP5 MSTORE SWAP2 POP PUSH2 0x326 PUSH1 0x1 PUSH1 0x1 PUSH1 0xA0 SHL SUB DUP4 AND ISZERO ISZERO PUSH2 0x1AC PUSH2 0x514 JUMP JUMPDEST POP SWAP2 SWAP1 POP JUMP JUMPDEST DUP1 MLOAD PUSH1 0x40 DUP1 MLOAD PUSH32 0x0 PUSH32 0x0 DUP2 DUP2 ADD DUP6 DUP2 ADD DUP5 DUP2 ADD PUSH1 0x20 SWAP1 DUP2 ADD SWAP1 SWAP7 MSTORE DUP1 DUP6 MSTORE SWAP4 SWAP6 PUSH32 0x0 SWAP6 SWAP3 SWAP5 PUSH32 0x0 SWAP5 SWAP4 DUP9 ADD DUP7 PUSH1 0x0 DUP3 DUP11 EXTCODECOPY DUP5 PUSH1 0x0 DUP9 DUP4 ADD DUP9 EXTCODECOPY POP PUSH1 0x20 DUP10 DUP2 ADD SWAP1 DUP10 DUP6 ADD ADD PUSH2 0x3F7 DUP2 DUP4 DUP7 PUSH2 0x526 JUMP JUMPDEST POP POP POP POP POP POP POP POP POP SWAP2 SWAP1 POP JUMP JUMPDEST PUSH2 0x40D PUSH2 0x5F1 JUMP JUMPDEST PUSH1 0x40 MLOAD DUP1 PUSH2 0x120 ADD PUSH1 0x40 MSTORE DUP1 PUSH2 0x421 PUSH2 0x195 JUMP JUMPDEST PUSH1 0x1 PUSH1 0x1 PUSH1 0xA0 SHL SUB AND DUP2 MSTORE PUSH1 0x20 ADD DUP9 DUP2 MSTORE PUSH1 0x20 ADD DUP8 DUP2 MSTORE PUSH1 0x20 ADD DUP7 PUSH1 0x0 DUP2 MLOAD DUP2 LT PUSH2 0x448 JUMPI INVALID JUMPDEST PUSH1 0x20 MUL PUSH1 0x20 ADD ADD MLOAD PUSH1 0x1 PUSH1 0x1 PUSH1 0xA0 SHL SUB AND DUP2 MSTORE PUSH1 0x20 ADD DUP7 PUSH1 0x1 DUP2 MLOAD DUP2 LT PUSH2 0x46B JUMPI INVALID JUMPDEST PUSH1 0x20 MUL PUSH1 0x20 ADD ADD MLOAD PUSH1 0x1 PUSH1 0x1 PUSH1 0xA0 SHL SUB AND DUP2 MSTORE PUSH1 0x20 ADD DUP6 DUP2 MSTORE PUSH1 0x20 ADD DUP4 PUSH1 0x0 ADD MLOAD DUP2 MSTORE PUSH1 0x20 ADD DUP4 PUSH1 0x20 ADD MLOAD DUP2 MSTORE PUSH1 0x20 ADD DUP5 PUSH1 0x1 PUSH1 0x1 PUSH1 0xA0 SHL SUB AND DUP2 MSTORE POP SWAP1 POP SWAP7 SWAP6 POP POP POP POP POP POP JUMP JUMPDEST PUSH1 0x0 DUP1 PUSH2 0x4C0 DUP4 PUSH2 0x564 JUMP JUMPDEST PUSH1 0x1 PUSH1 0x1 PUSH1 0xA0 SHL SUB DUP2 AND PUSH1 0x0 DUP2 DUP2 MSTORE PUSH1 0x20 DUP2 SWAP1 MSTORE PUSH1 0x40 DUP1 DUP3 KECCAK256 DUP1 SLOAD PUSH1 0xFF NOT AND PUSH1 0x1 OR SWAP1 SSTORE MLOAD SWAP3 SWAP4 POP SWAP1 SWAP2 PUSH32 0x83A48FBCFC991335314E74D0496AAB6A1987E992DDC85DDDBCC4D6DD6EF2E9FC SWAP2 SWAP1 LOG2 SWAP3 SWAP2 POP POP JUMP JUMPDEST DUP2 PUSH2 0x522 JUMPI PUSH2 0x522 DUP2 PUSH2 0x59E JUMP JUMPDEST POP POP JUMP JUMPDEST JUMPDEST PUSH1 0x20 DUP2 LT PUSH2 0x546 JUMPI DUP2 MLOAD DUP4 MSTORE PUSH1 0x20 SWAP3 DUP4 ADD SWAP3 SWAP1 SWAP2 ADD SWAP1 PUSH1 0x1F NOT ADD PUSH2 0x527 JUMP JUMPDEST SWAP1 MLOAD DUP3 MLOAD PUSH1 0x20 SWAP3 SWAP1 SWAP3 SUB PUSH2 0x100 EXP PUSH1 0x0 NOT ADD DUP1 NOT SWAP1 SWAP2 AND SWAP2 AND OR SWAP1 MSTORE JUMP JUMPDEST PUSH1 0x0 DUP1 PUSH2 0x570 DUP4 PUSH2 0x32C JUMP JUMPDEST SWAP1 POP PUSH1 0x0 DUP2 MLOAD PUSH1 0x20 DUP4 ADD PUSH1 0x0 CREATE SWAP1 POP PUSH1 0x1 PUSH1 0x1 PUSH1 0xA0 SHL SUB DUP2 AND PUSH2 0x597 JUMPI RETURNDATASIZE PUSH1 0x0 DUP1 RETURNDATACOPY RETURNDATASIZE PUSH1 0x0 REVERT JUMPDEST SWAP4 SWAP3 POP POP POP JUMP JUMPDEST PUSH3 0x461BCD PUSH1 0xE5 SHL PUSH1 0x0 SWAP1 DUP2 MSTORE PUSH1 0x20 PUSH1 0x4 MSTORE PUSH1 0x7 PUSH1 0x24 MSTORE PUSH7 0x42414C23000030 PUSH1 0xA DUP1 DUP5 DIV DUP2 DUP2 MOD PUSH1 0x30 SWAP1 DUP2 ADD PUSH1 0x8 SHL SWAP6 DUP4 SWAP1 MOD SWAP6 SWAP1 SWAP6 ADD SWAP1 DUP3 SWAP1 DIV SWAP2 DUP3 MOD SWAP1 SWAP5 ADD PUSH1 0x10 SHL SWAP4 SWAP1 SWAP4 ADD ADD PUSH1 0xC8 SHL PUSH1 0x44 MSTORE PUSH1 0x64 SWAP1 REVERT JUMPDEST PUSH1 0x40 MLOAD DUP1 PUSH2 0x120 ADD PUSH1 0x40 MSTORE DUP1 PUSH1 0x0 PUSH1 0x1 PUSH1 0x1 PUSH1 0xA0 SHL SUB AND DUP2 MSTORE PUSH1 0x20 ADD PUSH1 0x60 DUP2 MSTORE PUSH1 0x20 ADD PUSH1 0x60 DUP2 MSTORE PUSH1 0x20 ADD PUSH1 0x0 PUSH1 0x1 PUSH1 0x1 PUSH1 0xA0 SHL SUB AND DUP2 MSTORE PUSH1 0x20 ADD PUSH1 0x0 PUSH1 0x1 PUSH1 0x1 PUSH1 0xA0 SHL SUB AND DUP2 MSTORE PUSH1 0x20 ADD PUSH1 0x0 DUP2 MSTORE PUSH1 0x20 ADD PUSH1 0x0 DUP2 MSTORE PUSH1 0x20 ADD PUSH1 0x0 DUP2 MSTORE PUSH1 0x20 ADD PUSH1 0x0 PUSH1 0x1 PUSH1 0x1 PUSH1 0xA0 SHL SUB AND DUP2 MSTORE POP SWAP1 JUMP JUMPDEST DUP1 CALLDATALOAD PUSH2 0x190 DUP2 PUSH2 0xC7D JUMP JUMPDEST PUSH1 0x0 DUP3 PUSH1 0x1F DUP4 ADD SLT PUSH2 0x67C JUMPI DUP1 DUP2 REVERT JUMPDEST DUP2 CALLDATALOAD PUSH1 0x20 PUSH2 0x691 PUSH2 0x68C DUP4 PUSH2 0xC5F JUMP JUMPDEST PUSH2 0xC3B JUMP JUMPDEST DUP3 DUP2 MSTORE DUP2 DUP2 ADD SWAP1 DUP6 DUP4 ADD DUP4 DUP6 MUL DUP8 ADD DUP5 ADD DUP9 LT ISZERO PUSH2 0x6AD JUMPI DUP6 DUP7 REVERT JUMPDEST DUP6 JUMPDEST DUP6 DUP2 LT ISZERO PUSH2 0x6D4 JUMPI DUP2 CALLDATALOAD PUSH2 0x6C2 DUP2 PUSH2 0xC7D JUMP JUMPDEST DUP5 MSTORE SWAP3 DUP5 ADD SWAP3 SWAP1 DUP5 ADD SWAP1 PUSH1 0x1 ADD PUSH2 0x6AF JUMP JUMPDEST POP SWAP1 SWAP8 SWAP7 POP POP POP POP POP POP POP JUMP JUMPDEST PUSH1 0x0 DUP3 PUSH1 0x1F DUP4 ADD SLT PUSH2 0x6F1 JUMPI DUP1 DUP2 REVERT JUMPDEST DUP2 CALLDATALOAD PUSH1 0x20 PUSH2 0x701 PUSH2 0x68C DUP4 PUSH2 0xC5F JUMP JUMPDEST DUP3 DUP2 MSTORE DUP2 DUP2 ADD SWAP1 DUP6 DUP4 ADD DUP4 DUP6 MUL DUP8 ADD DUP5 ADD DUP9 LT ISZERO PUSH2 0x71D JUMPI DUP6 DUP7 REVERT JUMPDEST DUP6 JUMPDEST DUP6 DUP2 LT ISZERO PUSH2 0x6D4 JUMPI DUP2 CALLDATALOAD PUSH2 0x732 DUP2 PUSH2 0xC7D JUMP JUMPDEST DUP5 MSTORE SWAP3 DUP5 ADD SWAP3 SWAP1 DUP5 ADD SWAP1 PUSH1 0x1 ADD PUSH2 0x71F JUMP JUMPDEST PUSH1 0x0 DUP3 PUSH1 0x1F DUP4 ADD SLT PUSH2 0x754 JUMPI DUP1 DUP2 REVERT JUMPDEST DUP2 CALLDATALOAD PUSH1 0x20 PUSH2 0x764 PUSH2 0x68C DUP4 PUSH2 0xC5F JUMP JUMPDEST DUP3 DUP2 MSTORE DUP2 DUP2 ADD SWAP1 DUP6 DUP4 ADD DUP4 DUP6 MUL DUP8 ADD DUP5 ADD DUP9 LT ISZERO PUSH2 0x780 JUMPI DUP6 DUP7 REVERT JUMPDEST DUP6 JUMPDEST DUP6 DUP2 LT ISZERO PUSH2 0x6D4 JUMPI DUP2 CALLDATALOAD DUP5 MSTORE SWAP3 DUP5 ADD SWAP3 SWAP1 DUP5 ADD SWAP1 PUSH1 0x1 ADD PUSH2 0x782 JUMP JUMPDEST PUSH1 0x0 DUP3 PUSH1 0x1F DUP4 ADD SLT PUSH2 0x7AE JUMPI DUP1 DUP2 REVERT JUMPDEST DUP2 CALLDATALOAD PUSH8 0xFFFFFFFFFFFFFFFF DUP2 GT ISZERO PUSH2 0x7C2 JUMPI INVALID JUMPDEST PUSH2 0x7D5 PUSH1 0x1F DUP3 ADD PUSH1 0x1F NOT AND PUSH1 0x20 ADD PUSH2 0xC3B JUMP JUMPDEST DUP2 DUP2 MSTORE DUP5 PUSH1 0x20 DUP4 DUP7 ADD ADD GT ISZERO PUSH2 0x7E9 JUMPI DUP3 DUP4 REVERT JUMPDEST DUP2 PUSH1 0x20 DUP6 ADD PUSH1 0x20 DUP4 ADD CALLDATACOPY SWAP1 DUP2 ADD PUSH1 0x20 ADD SWAP2 SWAP1 SWAP2 MSTORE SWAP3 SWAP2 POP POP JUMP JUMPDEST PUSH1 0x0 PUSH1 0x60 DUP3 DUP5 SUB SLT ISZERO PUSH2 0x814 JUMPI DUP1 DUP2 REVERT JUMPDEST PUSH1 0x40 MLOAD PUSH1 0x60 DUP2 ADD DUP2 DUP2 LT PUSH8 0xFFFFFFFFFFFFFFFF DUP3 GT OR ISZERO PUSH2 0x831 JUMPI INVALID JUMPDEST PUSH1 0x40 MSTORE SWAP1 POP DUP1 DUP3 CALLDATALOAD DUP1 ISZERO ISZERO DUP2 EQ PUSH2 0x847 JUMPI PUSH1 0x0 DUP1 REVERT JUMPDEST DUP2 MSTORE PUSH1 0x20 DUP4 ADD CALLDATALOAD PUSH1 0x1 PUSH1 0x1 PUSH1 0x78 SHL SUB DUP2 AND DUP2 EQ PUSH2 0x863 JUMPI PUSH1 0x0 DUP1 REVERT JUMPDEST PUSH1 0x20 DUP3 ADD MSTORE PUSH1 0x40 DUP4 ADD CALLDATALOAD PUSH1 0x1 PUSH1 0x1 PUSH1 0x80 SHL SUB DUP2 AND DUP2 EQ PUSH2 0x882 JUMPI PUSH1 0x0 DUP1 REVERT JUMPDEST PUSH1 0x40 SWAP2 SWAP1 SWAP2 ADD MSTORE SWAP3 SWAP2 POP POP JUMP JUMPDEST PUSH1 0x0 PUSH1 0x40 DUP3 DUP5 SUB SLT ISZERO PUSH2 0x8A0 JUMPI DUP1 DUP2 REVERT JUMPDEST PUSH1 0x40 MLOAD PUSH1 0x40 DUP2 ADD DUP2 DUP2 LT PUSH8 0xFFFFFFFFFFFFFFFF DUP3 GT OR ISZERO PUSH2 0x8BD JUMPI INVALID JUMPDEST PUSH1 0x40 MSTORE DUP3 CALLDATALOAD DUP2 MSTORE PUSH1 0x20 SWAP3 DUP4 ADD CALLDATALOAD SWAP3 DUP2 ADD SWAP3 SWAP1 SWAP3 MSTORE POP SWAP2 SWAP1 POP JUMP JUMPDEST PUSH1 0x0 PUSH1 0x20 DUP3 DUP5 SUB SLT ISZERO PUSH2 0x8E8 JUMPI DUP1 DUP2 REVERT JUMPDEST DUP2 CALLDATALOAD PUSH2 0x597 DUP2 PUSH2 0xC7D JUMP JUMPDEST PUSH1 0x0 DUP1 PUSH1 0x0 DUP1 PUSH1 0x0 DUP1 PUSH1 0x0 DUP1 PUSH1 0x0 DUP1 PUSH1 0x0 PUSH2 0x1C0 DUP13 DUP15 SUB SLT ISZERO PUSH2 0x914 JUMPI DUP7 DUP8 REVERT JUMPDEST PUSH8 0xFFFFFFFFFFFFFFFF DUP1 DUP14 CALLDATALOAD GT ISZERO PUSH2 0x92A JUMPI DUP8 DUP9 REVERT JUMPDEST PUSH2 0x937 DUP15 DUP15 CALLDATALOAD DUP16 ADD PUSH2 0x79E JUMP JUMPDEST SWAP12 POP DUP1 PUSH1 0x20 DUP15 ADD CALLDATALOAD GT ISZERO PUSH2 0x949 JUMPI DUP8 DUP9 REVERT JUMPDEST PUSH2 0x959 DUP15 PUSH1 0x20 DUP16 ADD CALLDATALOAD DUP16 ADD PUSH2 0x79E JUMP JUMPDEST SWAP11 POP DUP1 PUSH1 0x40 DUP15 ADD CALLDATALOAD GT ISZERO PUSH2 0x96B JUMPI DUP8 DUP9 REVERT JUMPDEST PUSH2 0x97B DUP15 PUSH1 0x40 DUP16 ADD CALLDATALOAD DUP16 ADD PUSH2 0x6E1 JUMP JUMPDEST SWAP10 POP DUP1 PUSH1 0x60 DUP15 ADD CALLDATALOAD GT ISZERO PUSH2 0x98D JUMPI DUP8 DUP9 REVERT JUMPDEST PUSH2 0x99D DUP15 PUSH1 0x60 DUP16 ADD CALLDATALOAD DUP16 ADD PUSH2 0x744 JUMP JUMPDEST SWAP9 POP DUP1 PUSH1 0x80 DUP15 ADD CALLDATALOAD GT ISZERO PUSH2 0x9AF JUMPI DUP8 DUP9 REVERT JUMPDEST POP PUSH2 0x9C0 DUP14 PUSH1 0x80 DUP15 ADD CALLDATALOAD DUP15 ADD PUSH2 0x66C JUMP JUMPDEST SWAP7 POP PUSH1 0xA0 DUP13 ADD CALLDATALOAD SWAP6 POP PUSH2 0x9D5 PUSH1 0xC0 DUP14 ADD PUSH2 0x661 JUMP JUMPDEST SWAP5 POP PUSH2 0x9E3 PUSH1 0xE0 DUP14 ADD PUSH2 0x661 JUMP JUMPDEST SWAP4 POP PUSH2 0x9F3 DUP14 PUSH2 0x100 DUP15 ADD PUSH2 0x803 JUMP JUMPDEST SWAP3 POP PUSH2 0xA02 PUSH2 0x160 DUP14 ADD PUSH2 0x661 JUMP JUMPDEST SWAP2 POP PUSH2 0xA12 DUP14 PUSH2 0x180 DUP15 ADD PUSH2 0x88F JUMP JUMPDEST SWAP1 POP SWAP3 SWAP6 SWAP9 SWAP12 POP SWAP3 SWAP6 SWAP9 SWAP12 SWAP1 SWAP4 SWAP7 SWAP10 POP JUMP JUMPDEST PUSH1 0x1 PUSH1 0x1 PUSH1 0xA0 SHL SUB AND SWAP1 MSTORE JUMP JUMPDEST PUSH1 0x0 DUP2 MLOAD DUP1 DUP5 MSTORE DUP2 JUMPDEST DUP2 DUP2 LT ISZERO PUSH2 0xA56 JUMPI PUSH1 0x20 DUP2 DUP6 ADD DUP2 ADD MLOAD DUP7 DUP4 ADD DUP3 ADD MSTORE ADD PUSH2 0xA3A JUMP JUMPDEST DUP2 DUP2 GT ISZERO PUSH2 0xA67 JUMPI DUP3 PUSH1 0x20 DUP4 DUP8 ADD ADD MSTORE JUMPDEST POP PUSH1 0x1F ADD PUSH1 0x1F NOT AND SWAP3 SWAP1 SWAP3 ADD PUSH1 0x20 ADD SWAP3 SWAP2 POP POP JUMP JUMPDEST DUP1 MLOAD ISZERO ISZERO DUP3 MSTORE PUSH1 0x20 DUP1 DUP3 ADD MLOAD PUSH1 0x1 PUSH1 0x1 PUSH1 0x78 SHL SUB AND SWAP1 DUP4 ADD MSTORE PUSH1 0x40 SWAP1 DUP2 ADD MLOAD PUSH1 0x1 PUSH1 0x1 PUSH1 0x80 SHL SUB AND SWAP2 ADD MSTORE JUMP JUMPDEST PUSH1 0x1 PUSH1 0x1 PUSH1 0xA0 SHL SUB SWAP2 SWAP1 SWAP2 AND DUP2 MSTORE PUSH1 0x20 ADD SWAP1 JUMP JUMPDEST PUSH1 0x1 PUSH1 0x1 PUSH1 0xA0 SHL SUB SWAP3 DUP4 AND DUP2 MSTORE SWAP2 AND PUSH1 0x20 DUP3 ADD MSTORE PUSH1 0x40 ADD SWAP1 JUMP JUMPDEST SWAP1 ISZERO ISZERO DUP2 MSTORE PUSH1 0x20 ADD SWAP1 JUMP JUMPDEST PUSH1 0x0 PUSH1 0x20 DUP3 MSTORE PUSH2 0x597 PUSH1 0x20 DUP4 ADD DUP5 PUSH2 0xA31 JUMP JUMPDEST PUSH1 0x0 PUSH1 0x40 DUP3 MSTORE DUP4 MLOAD PUSH2 0x140 PUSH1 0x40 DUP5 ADD MSTORE PUSH2 0xB14 PUSH2 0x180 DUP5 ADD DUP3 MLOAD PUSH2 0xA24 JUMP JUMPDEST PUSH1 0x20 DUP2 ADD MLOAD PUSH2 0x120 PUSH2 0x1A0 DUP6 ADD MSTORE PUSH2 0xB30 PUSH2 0x2A0 DUP6 ADD DUP3 PUSH2 0xA31 JUMP JUMPDEST SWAP1 POP PUSH1 0x40 DUP3 ADD MLOAD PUSH2 0x17F NOT DUP6 DUP4 SUB ADD PUSH2 0x1C0 DUP7 ADD MSTORE PUSH2 0xB4F DUP3 DUP3 PUSH2 0xA31 JUMP JUMPDEST SWAP2 POP POP PUSH1 0x60 DUP3 ADD MLOAD PUSH2 0xB65 PUSH2 0x1E0 DUP7 ADD DUP3 PUSH2 0xA24 JUMP JUMPDEST POP PUSH1 0x80 DUP3 ADD MLOAD PUSH2 0xB79 PUSH2 0x200 DUP7 ADD DUP3 PUSH2 0xA24 JUMP JUMPDEST POP PUSH1 0xA0 DUP3 ADD MLOAD PUSH2 0x220 DUP6 ADD MSTORE PUSH1 0xC0 DUP3 ADD MLOAD PUSH2 0x240 DUP6 ADD MSTORE PUSH1 0xE0 DUP3 ADD MLOAD PUSH2 0x260 DUP6 ADD MSTORE PUSH2 0x100 SWAP2 DUP3 ADD MLOAD SWAP2 PUSH2 0xBB1 PUSH2 0x280 DUP7 ADD DUP5 PUSH2 0xA24 JUMP JUMPDEST PUSH1 0x20 DUP8 ADD MLOAD PUSH1 0x60 DUP7 ADD MSTORE PUSH1 0x40 DUP8 ADD MLOAD PUSH1 0x80 DUP7 ADD MSTORE PUSH1 0x60 DUP8 ADD MLOAD SWAP3 POP PUSH2 0xBD9 PUSH1 0xA0 DUP7 ADD DUP5 PUSH2 0xA24 JUMP JUMPDEST PUSH1 0x80 DUP8 ADD MLOAD SWAP3 POP PUSH2 0xBED PUSH1 0xC0 DUP7 ADD DUP5 PUSH2 0xA24 JUMP JUMPDEST PUSH1 0xA0 DUP8 ADD MLOAD SWAP3 POP PUSH2 0xC01 PUSH1 0xE0 DUP7 ADD DUP5 PUSH2 0xA24 JUMP JUMPDEST PUSH1 0xC0 DUP8 ADD MLOAD SWAP3 POP PUSH2 0xC14 DUP2 DUP7 ADD DUP5 PUSH2 0xA7C JUMP JUMPDEST POP PUSH1 0xE0 DUP7 ADD MLOAD SWAP2 POP PUSH2 0xC2A PUSH2 0x160 DUP6 ADD DUP4 PUSH2 0xA24 JUMP JUMPDEST SWAP2 POP PUSH2 0x597 SWAP1 POP PUSH1 0x20 DUP4 ADD DUP5 PUSH2 0xA24 JUMP JUMPDEST PUSH1 0x40 MLOAD DUP2 DUP2 ADD PUSH8 0xFFFFFFFFFFFFFFFF DUP2 GT DUP3 DUP3 LT OR ISZERO PUSH2 0xC57 JUMPI INVALID JUMPDEST PUSH1 0x40 MSTORE SWAP2 SWAP1 POP JUMP JUMPDEST PUSH1 0x0 PUSH8 0xFFFFFFFFFFFFFFFF DUP3 GT ISZERO PUSH2 0xC73 JUMPI INVALID JUMPDEST POP PUSH1 0x20 SWAP1 DUP2 MUL ADD SWAP1 JUMP JUMPDEST PUSH1 0x1 PUSH1 0x1 PUSH1 0xA0 SHL SUB DUP2 AND DUP2 EQ PUSH2 0xC92 JUMPI PUSH1 0x0 DUP1 REVERT JUMPDEST POP JUMP INVALID LOG2 PUSH5 0x6970667358 0x22 SLT KECCAK256 0xB6 GASPRICE LOG4 EQ 0xB0 PUSH8 0xB4BDA9AEF1DAC2FF DUP15 CALLDATALOAD STATICCALL 0xFB 0x4E 0xA8 0xA5 GT SELFBALANCE SWAP4 DUP6 0x2B 0xC9 LT DUP6 EXTCODECOPY PUSH10 0x2864736F6C6343000706 STOP CALLER ","sha1":"fd04875ab7645bf3b19675798c7872c0165f4091","source":"// SPDX-License-Identifier: LicenseRef-Gyro-1.0\n// for information on licensing please see the README in the GitHub repository <https://github.com/gyrostable/concentrated-lps>.\n\npragma solidity 0.7.6;\npragma experimental ABIEncoderV2;\n\nimport \"@balancer-labs/v2-vault/contracts/interfaces/IVault.sol\";\n\nimport \"@balancer-labs/v2-pool-utils/contracts/factories/BasePoolSplitCodeFactory.sol\";\n\nimport \"../../interfaces/IGyro2CLPPoolFactory.sol\";\nimport \"../../interfaces/ICappedLiquidity.sol\";\nimport \"../../interfaces/ILocallyPausable.sol\";\nimport \"./Gyro2CLPPool.sol\";\n\ncontract Gyro2CLPPoolFactory is IGyro2CLPPoolFactory, BasePoolSplitCodeFactory {\n    address public immutable gyroConfigAddress;\n\n    constructor(IVault vault, address _gyroConfigAddress) BasePoolSplitCodeFactory(vault, type(Gyro2CLPPool).creationCode) {\n        _grequire(_gyroConfigAddress != address(0), GyroErrors.ZERO_ADDRESS);\n        _grequire(address(vault) != address(0), GyroErrors.ZERO_ADDRESS);\n        gyroConfigAddress = _gyroConfigAddress;\n    }\n\n    /**\n     * @dev Deploys a new `Gyro2CLPPool`.\n     */\n    function create(\n        string memory name,\n        string memory symbol,\n        IERC20[] memory tokens,\n        uint256[] memory sqrts,\n        address[] memory rateProviders,\n        uint256 swapFeePercentage,\n        address owner,\n        address capManager,\n        ICappedLiquidity.CapParams memory capParams,\n        address pauseManager,\n        ILocallyPausable.PauseParams memory pauseParams\n    ) external override returns (address) {\n        ExtensibleWeightedPool2Tokens.NewPoolParams memory baseParams = _makePoolParams(name, symbol, tokens, swapFeePercentage, owner, pauseParams);\n\n        Gyro2CLPPool.GyroParams memory params = Gyro2CLPPool.GyroParams({\n            baseParams: baseParams,\n            sqrtAlpha: sqrts[0],\n            sqrtBeta: sqrts[1],\n            rateProvider0: rateProviders[0],\n            rateProvider1: rateProviders[1],\n            capManager: capManager,\n            capParams: capParams,\n            pauseManager: pauseManager\n        });\n\n        return _create(abi.encode(params, gyroConfigAddress));\n    }\n\n    function _makePoolParams(\n        string memory name,\n        string memory symbol,\n        IERC20[] memory tokens,\n        uint256 swapFeePercentage,\n        address owner,\n        ILocallyPausable.PauseParams memory pauseParams\n    ) internal view returns (ExtensibleWeightedPool2Tokens.NewPoolParams memory) {\n        return\n            ExtensibleWeightedPool2Tokens.NewPoolParams({\n                vault: getVault(),\n                name: name,\n                symbol: symbol,\n                token0: tokens[0],\n                token1: tokens[1],\n                swapFeePercentage: swapFeePercentage,\n                pauseWindowDuration: pauseParams.pauseWindowDuration,\n                bufferPeriodDuration: pauseParams.bufferPeriodDuration,\n                owner: owner\n            });\n    }\n}\n","sourcePath":"contracts/2clp/Gyro2CLPPoolFactory.sol","type":"contract","deployment":{"address":"0x579653927BF509B361F6e3813f5D4B95331d98c9","chainid":"1","blockHeight":18577307}}