{"abi":[{"inputs":[{"components":[{"components":[{"internalType":"contract IVault","name":"vault","type":"address"},{"internalType":"string","name":"name","type":"string"},{"internalType":"string","name":"symbol","type":"string"},{"internalType":"contract IERC20","name":"token0","type":"address"},{"internalType":"contract IERC20","name":"token1","type":"address"},{"internalType":"uint256","name":"swapFeePercentage","type":"uint256"},{"internalType":"uint256","name":"pauseWindowDuration","type":"uint256"},{"internalType":"uint256","name":"bufferPeriodDuration","type":"uint256"},{"internalType":"bool","name":"oracleEnabled","type":"bool"},{"internalType":"address","name":"owner","type":"address"}],"internalType":"struct ExtensibleWeightedPool2Tokens.NewPoolParams","name":"baseParams","type":"tuple"},{"internalType":"uint256","name":"sqrtAlpha","type":"uint256"},{"internalType":"uint256","name":"sqrtBeta","type":"uint256"}],"internalType":"struct GyroTwoPool.GyroParams","name":"params","type":"tuple"},{"internalType":"address","name":"configAddress","type":"address"}],"stateMutability":"nonpayable","type":"constructor","name":"constructor"},{"anonymous":false,"inputs":[{"indexed":true,"internalType":"address","name":"owner","type":"address"},{"indexed":true,"internalType":"address","name":"spender","type":"address"},{"indexed":false,"internalType":"uint256","name":"value","type":"uint256"}],"name":"Approval","type":"event"},{"anonymous":false,"inputs":[{"indexed":false,"internalType":"bool","name":"enabled","type":"bool"}],"name":"OracleEnabledChanged","type":"event"},{"anonymous":false,"inputs":[{"indexed":false,"internalType":"bool","name":"paused","type":"bool"}],"name":"PausedStateChanged","type":"event"},{"anonymous":false,"inputs":[{"indexed":false,"internalType":"uint256","name":"swapFeePercentage","type":"uint256"}],"name":"SwapFeePercentageChanged","type":"event"},{"anonymous":false,"inputs":[{"indexed":true,"internalType":"address","name":"from","type":"address"},{"indexed":true,"internalType":"address","name":"to","type":"address"},{"indexed":false,"internalType":"uint256","name":"value","type":"uint256"}],"name":"Transfer","type":"event"},{"inputs":[],"name":"DOMAIN_SEPARATOR","outputs":[{"internalType":"bytes32","name":"","type":"bytes32"}],"stateMutability":"view","type":"function"},{"inputs":[{"internalType":"address","name":"owner","type":"address"},{"internalType":"address","name":"spender","type":"address"}],"name":"allowance","outputs":[{"internalType":"uint256","name":"","type":"uint256"}],"stateMutability":"view","type":"function"},{"inputs":[{"internalType":"address","name":"spender","type":"address"},{"internalType":"uint256","name":"amount","type":"uint256"}],"name":"approve","outputs":[{"internalType":"bool","name":"","type":"bool"}],"stateMutability":"nonpayable","type":"function"},{"inputs":[{"internalType":"address","name":"account","type":"address"}],"name":"balanceOf","outputs":[{"internalType":"uint256","name":"","type":"uint256"}],"stateMutability":"view","type":"function"},{"inputs":[{"internalType":"uint256","name":"balanceTokenIn","type":"uint256"},{"internalType":"uint256","name":"balanceTokenOut","type":"uint256"},{"internalType":"bool","name":"tokenInIsToken0","type":"bool"}],"name":"calculateCurrentValues","outputs":[{"internalType":"uint256","name":"currentInvariant","type":"uint256"},{"internalType":"uint256","name":"virtualParamIn","type":"uint256"},{"internalType":"uint256","name":"virtualParamOut","type":"uint256"}],"stateMutability":"view","type":"function"},{"inputs":[],"name":"decimals","outputs":[{"internalType":"uint8","name":"","type":"uint8"}],"stateMutability":"view","type":"function"},{"inputs":[{"internalType":"address","name":"spender","type":"address"},{"internalType":"uint256","name":"amount","type":"uint256"}],"name":"decreaseAllowance","outputs":[{"internalType":"bool","name":"","type":"bool"}],"stateMutability":"nonpayable","type":"function"},{"inputs":[{"internalType":"uint256","name":"startIndex","type":"uint256"},{"internalType":"uint256","name":"endIndex","type":"uint256"}],"name":"dirtyUninitializedOracleSamples","outputs":[],"stateMutability":"nonpayable","type":"function"},{"inputs":[],"name":"enableOracle","outputs":[],"stateMutability":"nonpayable","type":"function"},{"inputs":[{"internalType":"bytes4","name":"selector","type":"bytes4"}],"name":"getActionId","outputs":[{"internalType":"bytes32","name":"","type":"bytes32"}],"stateMutability":"view","type":"function"},{"inputs":[],"name":"getAuthorizer","outputs":[{"internalType":"contract IAuthorizer","name":"","type":"address"}],"stateMutability":"view","type":"function"},{"inputs":[],"name":"getInvariant","outputs":[{"internalType":"uint256","name":"","type":"uint256"}],"stateMutability":"view","type":"function"},{"inputs":[],"name":"getLargestSafeQueryWindow","outputs":[{"internalType":"uint256","name":"","type":"uint256"}],"stateMutability":"pure","type":"function"},{"inputs":[],"name":"getLastInvariant","outputs":[{"internalType":"uint256","name":"","type":"uint256"}],"stateMutability":"view","type":"function"},{"inputs":[{"internalType":"enum IPriceOracle.Variable","name":"variable","type":"uint8"}],"name":"getLatest","outputs":[{"internalType":"uint256","name":"","type":"uint256"}],"stateMutability":"view","type":"function"},{"inputs":[],"name":"getMiscData","outputs":[{"internalType":"int256","name":"logInvariant","type":"int256"},{"internalType":"int256","name":"logTotalSupply","type":"int256"},{"internalType":"uint256","name":"oracleSampleCreationTimestamp","type":"uint256"},{"internalType":"uint256","name":"oracleIndex","type":"uint256"},{"internalType":"bool","name":"oracleEnabled","type":"bool"},{"internalType":"uint256","name":"swapFeePercentage","type":"uint256"}],"stateMutability":"view","type":"function"},{"inputs":[],"name":"getNormalizedWeights","outputs":[{"internalType":"uint256[]","name":"","type":"uint256[]"}],"stateMutability":"view","type":"function"},{"inputs":[],"name":"getOwner","outputs":[{"internalType":"address","name":"","type":"address"}],"stateMutability":"view","type":"function"},{"inputs":[{"components":[{"internalType":"enum IPriceOracle.Variable","name":"variable","type":"uint8"},{"internalType":"uint256","name":"ago","type":"uint256"}],"internalType":"struct IPriceOracle.OracleAccumulatorQuery[]","name":"queries","type":"tuple[]"}],"name":"getPastAccumulators","outputs":[{"internalType":"int256[]","name":"results","type":"int256[]"}],"stateMutability":"view","type":"function"},{"inputs":[],"name":"getPausedState","outputs":[{"internalType":"bool","name":"paused","type":"bool"},{"internalType":"uint256","name":"pauseWindowEndTime","type":"uint256"},{"internalType":"uint256","name":"bufferPeriodEndTime","type":"uint256"}],"stateMutability":"view","type":"function"},{"inputs":[],"name":"getPoolId","outputs":[{"internalType":"bytes32","name":"","type":"bytes32"}],"stateMutability":"view","type":"function"},{"inputs":[],"name":"getRate","outputs":[{"internalType":"uint256","name":"","type":"uint256"}],"stateMutability":"view","type":"function"},{"inputs":[{"internalType":"uint256","name":"index","type":"uint256"}],"name":"getSample","outputs":[{"internalType":"int256","name":"logPairPrice","type":"int256"},{"internalType":"int256","name":"accLogPairPrice","type":"int256"},{"internalType":"int256","name":"logBptPrice","type":"int256"},{"internalType":"int256","name":"accLogBptPrice","type":"int256"},{"internalType":"int256","name":"logInvariant","type":"int256"},{"internalType":"int256","name":"accLogInvariant","type":"int256"},{"internalType":"uint256","name":"timestamp","type":"uint256"}],"stateMutability":"view","type":"function"},{"inputs":[],"name":"getSqrtParameters","outputs":[{"internalType":"uint256[2]","name":"","type":"uint256[2]"}],"stateMutability":"view","type":"function"},{"inputs":[],"name":"getSwapFeePercentage","outputs":[{"internalType":"uint256","name":"","type":"uint256"}],"stateMutability":"view","type":"function"},{"inputs":[{"components":[{"internalType":"enum IPriceOracle.Variable","name":"variable","type":"uint8"},{"internalType":"uint256","name":"secs","type":"uint256"},{"internalType":"uint256","name":"ago","type":"uint256"}],"internalType":"struct IPriceOracle.OracleAverageQuery[]","name":"queries","type":"tuple[]"}],"name":"getTimeWeightedAverage","outputs":[{"internalType":"uint256[]","name":"results","type":"uint256[]"}],"stateMutability":"view","type":"function"},{"inputs":[],"name":"getTotalSamples","outputs":[{"internalType":"uint256","name":"","type":"uint256"}],"stateMutability":"pure","type":"function"},{"inputs":[],"name":"getVault","outputs":[{"internalType":"contract IVault","name":"","type":"address"}],"stateMutability":"view","type":"function"},{"inputs":[],"name":"getVirtualParameters","outputs":[{"internalType":"uint256[]","name":"virtualParams","type":"uint256[]"}],"stateMutability":"view","type":"function"},{"inputs":[],"name":"gyroConfig","outputs":[{"internalType":"contract IGyroConfig","name":"","type":"address"}],"stateMutability":"view","type":"function"},{"inputs":[{"internalType":"address","name":"spender","type":"address"},{"internalType":"uint256","name":"addedValue","type":"uint256"}],"name":"increaseAllowance","outputs":[{"internalType":"bool","name":"","type":"bool"}],"stateMutability":"nonpayable","type":"function"},{"inputs":[],"name":"name","outputs":[{"internalType":"string","name":"","type":"string"}],"stateMutability":"view","type":"function"},{"inputs":[{"internalType":"address","name":"owner","type":"address"}],"name":"nonces","outputs":[{"internalType":"uint256","name":"","type":"uint256"}],"stateMutability":"view","type":"function"},{"inputs":[{"internalType":"bytes32","name":"poolId","type":"bytes32"},{"internalType":"address","name":"sender","type":"address"},{"internalType":"address","name":"recipient","type":"address"},{"internalType":"uint256[]","name":"balances","type":"uint256[]"},{"internalType":"uint256","name":"lastChangeBlock","type":"uint256"},{"internalType":"uint256","name":"protocolSwapFeePercentage","type":"uint256"},{"internalType":"bytes","name":"userData","type":"bytes"}],"name":"onExitPool","outputs":[{"internalType":"uint256[]","name":"","type":"uint256[]"},{"internalType":"uint256[]","name":"","type":"uint256[]"}],"stateMutability":"nonpayable","type":"function"},{"inputs":[{"internalType":"bytes32","name":"poolId","type":"bytes32"},{"internalType":"address","name":"sender","type":"address"},{"internalType":"address","name":"recipient","type":"address"},{"internalType":"uint256[]","name":"balances","type":"uint256[]"},{"internalType":"uint256","name":"lastChangeBlock","type":"uint256"},{"internalType":"uint256","name":"protocolSwapFeePercentage","type":"uint256"},{"internalType":"bytes","name":"userData","type":"bytes"}],"name":"onJoinPool","outputs":[{"internalType":"uint256[]","name":"amountsIn","type":"uint256[]"},{"internalType":"uint256[]","name":"dueProtocolFeeAmounts","type":"uint256[]"}],"stateMutability":"nonpayable","type":"function"},{"inputs":[{"components":[{"internalType":"enum IVault.SwapKind","name":"kind","type":"uint8"},{"internalType":"contract IERC20","name":"tokenIn","type":"address"},{"internalType":"contract IERC20","name":"tokenOut","type":"address"},{"internalType":"uint256","name":"amount","type":"uint256"},{"internalType":"bytes32","name":"poolId","type":"bytes32"},{"internalType":"uint256","name":"lastChangeBlock","type":"uint256"},{"internalType":"address","name":"from","type":"address"},{"internalType":"address","name":"to","type":"address"},{"internalType":"bytes","name":"userData","type":"bytes"}],"internalType":"struct IPoolSwapStructs.SwapRequest","name":"request","type":"tuple"},{"internalType":"uint256","name":"balanceTokenIn","type":"uint256"},{"internalType":"uint256","name":"balanceTokenOut","type":"uint256"}],"name":"onSwap","outputs":[{"internalType":"uint256","name":"","type":"uint256"}],"stateMutability":"nonpayable","type":"function"},{"inputs":[{"internalType":"address","name":"owner","type":"address"},{"internalType":"address","name":"spender","type":"address"},{"internalType":"uint256","name":"value","type":"uint256"},{"internalType":"uint256","name":"deadline","type":"uint256"},{"internalType":"uint8","name":"v","type":"uint8"},{"internalType":"bytes32","name":"r","type":"bytes32"},{"internalType":"bytes32","name":"s","type":"bytes32"}],"name":"permit","outputs":[],"stateMutability":"nonpayable","type":"function"},{"inputs":[{"internalType":"bytes32","name":"poolId","type":"bytes32"},{"internalType":"address","name":"sender","type":"address"},{"internalType":"address","name":"recipient","type":"address"},{"internalType":"uint256[]","name":"balances","type":"uint256[]"},{"internalType":"uint256","name":"lastChangeBlock","type":"uint256"},{"internalType":"uint256","name":"protocolSwapFeePercentage","type":"uint256"},{"internalType":"bytes","name":"userData","type":"bytes"}],"name":"queryExit","outputs":[{"internalType":"uint256","name":"bptIn","type":"uint256"},{"internalType":"uint256[]","name":"amountsOut","type":"uint256[]"}],"stateMutability":"nonpayable","type":"function"},{"inputs":[{"internalType":"bytes32","name":"poolId","type":"bytes32"},{"internalType":"address","name":"sender","type":"address"},{"internalType":"address","name":"recipient","type":"address"},{"internalType":"uint256[]","name":"balances","type":"uint256[]"},{"internalType":"uint256","name":"lastChangeBlock","type":"uint256"},{"internalType":"uint256","name":"protocolSwapFeePercentage","type":"uint256"},{"internalType":"bytes","name":"userData","type":"bytes"}],"name":"queryJoin","outputs":[{"internalType":"uint256","name":"bptOut","type":"uint256"},{"internalType":"uint256[]","name":"amountsIn","type":"uint256[]"}],"stateMutability":"nonpayable","type":"function"},{"inputs":[{"internalType":"bool","name":"paused","type":"bool"}],"name":"setPaused","outputs":[],"stateMutability":"nonpayable","type":"function"},{"inputs":[{"internalType":"uint256","name":"swapFeePercentage","type":"uint256"}],"name":"setSwapFeePercentage","outputs":[],"stateMutability":"nonpayable","type":"function"},{"inputs":[],"name":"symbol","outputs":[{"internalType":"string","name":"","type":"string"}],"stateMutability":"view","type":"function"},{"inputs":[],"name":"totalSupply","outputs":[{"internalType":"uint256","name":"","type":"uint256"}],"stateMutability":"view","type":"function"},{"inputs":[{"internalType":"address","name":"recipient","type":"address"},{"internalType":"uint256","name":"amount","type":"uint256"}],"name":"transfer","outputs":[{"internalType":"bool","name":"","type":"bool"}],"stateMutability":"nonpayable","type":"function"},{"inputs":[{"internalType":"address","name":"sender","type":"address"},{"internalType":"address","name":"recipient","type":"address"},{"internalType":"uint256","name":"amount","type":"uint256"}],"name":"transferFrom","outputs":[{"internalType":"bool","name":"","type":"bool"}],"stateMutability":"nonpayable","type":"function"}],"bytecode":"6102e06040527f6e71edae12b1b97f4d1f60370fef10105fa2faae0126114a169c64845d6126c9610120526706f05b59d3b20000610200819052610220526000610240523480156200005057600080fd5b506040516200581f3803806200581f83398101604081905262000073916200088a565b815160c081015160e08201516020808401516040808601518651825180840190935260018352603160f81b838601526101208801513360805260601b6001600160601b03191660a05283519394919390928592839283918791620000de91600391908501906200071d565b508051620000f49060049060208401906200071d565b505060058054601260ff1990911617905550815160209283012060c052805191012060e052507f8b73c3c69bb8fe3d512ecc4cf759cc79239f7b179b0ffacaa9a75d522b39400f6101005260601b6001600160601b03191661014052506200016790506276a70083111561019462000403565b6200017b62278d0082111561019562000403565b429190910161016081905201610180526040805160028082526060808301845292602083019080368337019050509050816060015181600081518110620001be57fe5b60200260200101906001600160a01b031690816001600160a01b031681525050816080015181600181518110620001f157fe5b60200260200101906001600160a01b031690816001600160a01b03168152505062000227816200041860201b620014fb1760201c565b610100820151620002389062000424565b60a0820151620002489062000480565b81516040516309b2760f60e01b81526000916001600160a01b0316906309b2760f906200027b9060029060040162000ada565b602060405180830381600087803b1580156200029657600080fd5b505af1158015620002ab573d6000803e3d6000fd5b505050506040513d601f19601f82011682018060405250810190620002d1919062000871565b83516040805160028082526060820183529394506001600160a01b03909216926366a9c7d2928592879290602083019080368337019050506040518463ffffffff1660e01b8152600401620003299392919062000a3e565b600060405180830381600087803b1580156200034457600080fd5b505af115801562000359573d6000803e3d6000fd5b5050506101a082905250606080840180516001600160601b031990831b81166101c052608086015190921b9091166101e052516200039790620004fe565b610260526080830151620003ab90620004fe565b6102805250505060408201516020830151620003cb911161015e62000403565b60208201516102a0526040909101516102c052600b80546001600160a01b0319166001600160a01b0390921691909117905562000b2b565b8162000414576200041481620005a0565b5050565b806200041481620005f3565b62000440816009546200068060201b620015091790919060201c565b6009556040517f3e350b41e86a8e10f804ade6d35340d620be35569cc75ac943e8bb14ab80ead1906200047590839062000a33565b60405180910390a150565b6200049564e8d4a5100082101560cb62000403565b620004ad67016345785d8a000082111560ca62000403565b620004c981600954620006a860201b6200151e1790919060201c565b6009556040517fa9ba3ffe0b6c366b81232caab38605a0699ad5398d6cce76f91ee809e322dafc906200047590839062000aef565b600080826001600160a01b031663313ce5676040518163ffffffff1660e01b815260040160206040518083038186803b1580156200053b57600080fd5b505afa15801562000550573d6000803e3d6000fd5b505050506040513d601f19601f8201168201806040525081019062000576919062000a09565b60ff169050600062000595601283620006c760201b6200152c1760201c565b600a0a949350505050565b62461bcd60e51b6000908152602060045260076024526642414c23000030600a808404818106603090810160081b95839006959095019082900491820690940160101b939093010160c81b604452606490fd5b60028151101562000604576200067d565b6000816000815181106200061457fe5b602002602001015190506000600190505b82518110156200067a5760008382815181106200063e57fe5b602002602001015190506200066f816001600160a01b0316846001600160a01b03161060656200040360201b60201c565b915060010162000625565b50505b50565b60006200069f82605585620006df60201b62001542179092919060201c565b90505b92915050565b60006200069f826056856200070860201b62001569179092919060201c565b6000620006d983831115600162000403565b50900390565b60006001821b1984168284620006f7576000620006fa565b60015b60ff16901b17949350505050565b6001600160401b03811b1992909216911b1790565b828054600181600116156101000203166002900490600052602060002090601f016020900481019282601f106200076057805160ff191683800117855562000790565b8280016001018555821562000790579182015b828111156200079057825182559160200191906001019062000773565b506200079e929150620007a2565b5090565b5b808211156200079e5760008155600101620007a3565b80516001600160a01b0381168114620006a257600080fd5b80518015158114620006a257600080fd5b600082601f830112620007f3578081fd5b81516001600160401b0381111562000809578182fd5b60206200081f601f8301601f1916820162000af8565b925081835284818386010111156200083657600080fd5b60005b828110156200085657848101820151848201830152810162000839565b82811115620008685760008284860101525b50505092915050565b60006020828403121562000883578081fd5b5051919050565b600080604083850312156200089d578081fd5b82516001600160401b0380821115620008b4578283fd5b9084019060608287031215620008c8578283fd5b620008d4606062000af8565b825182811115620008e3578485fd5b8301610140818903811315620008f7578586fd5b620009028162000af8565b9050620009108983620007b9565b815260208201518481111562000924578687fd5b620009328a828501620007e2565b6020830152506040820151848111156200094a578687fd5b620009588a828501620007e2565b6040830152506200096d8960608401620007b9565b6060820152620009818960808401620007b9565b608082015260a082015160a082015260c082015160c082015260e082015160e08201526101009350620009b789858401620007d1565b848201526101209350620009ce89858401620007b9565b848201528083525050602083015160208201526040830151604082015280945050505062000a008460208501620007b9565b90509250929050565b60006020828403121562000a1b578081fd5b815160ff8116811462000a2c578182fd5b9392505050565b901515815260200190565b60006060820185835260206060818501528186518084526080860191508288019350845b8181101562000a8a5762000a77855162000b1f565b8352938301939183019160010162000a62565b505084810360408601528551808252908201925081860190845b8181101562000acc5762000ab9835162000b1f565b8552938301939183019160010162000aa4565b509298975050505050505050565b602081016003831062000ae957fe5b91905290565b90815260200190565b6040518181016001600160401b038111828210171562000b1757600080fd5b604052919050565b6001600160a01b031690565b60805160a05160601c60c05160e05161010051610120516101405160601c61016051610180516101a0516101c05160601c6101e05160601c61020051610220516102405161026051610280516102a0516102c051614c2662000bf960003980612940525080612967525080611a1a525080611a4152505080612f79525080612fa052505080610ee45250806109215250806116d55250806116b1525080610d295250806112795250806118fd52508061193f52508061191e525080610d05525080610c905250614c266000f3fe608060405234801561001057600080fd5b506004361061027f5760003560e01c8063707dcd1e1161015c5780639d2c110c116100ce578063c0ff1a1511610087578063c0ff1a151461056a578063d505accf14610572578063d5c096c414610585578063dd62ed3e14610598578063f89f27ed146105ab578063ffd088eb146105b35761027f565b80639d2c110c1461050e578063a457c2d714610521578063a9059cbb14610534578063aaabadc514610547578063b10be7391461054f578063b48b5b40146105625761027f565b806387ec68171161012057806387ec6817146104d3578063893d20e8146104e65780638d928af8146104ee5780638dd9f89d146104f657806395d89b41146104fe5780639b02cdde146105065761027f565b8063707dcd1e1461046457806370a082311461047957806374f3b0091461048c5780637ecebe00146104ad578063851c1bb3146104c05761027f565b806338e9922e116101f55780634a6b0b15116101b95780634a6b0b15146103d357806355c67628146103ed5780636028bfd4146103f557806360d1507c14610416578063679aefce1461043c5780636b843239146104445761027f565b806338e9922e1461036e57806338fff2d01461038157806339509351146103895780633c4dd5bb1461039c57806344bbdb55146103be5761027f565b80631dccd830116102475780631dccd8301461030357806323b872dd14610323578063292c914a14610336578063313ce5671461033e5780633331bc36146103535780633644e515146103665761027f565b806306fdde0314610284578063095ea7b3146102a257806316c38b3c146102c257806318160ddd146102d75780631c0de051146102ec575b600080fd5b61028c6105bb565b6040516102999190614abb565b60405180910390f35b6102b56102b03660046141d2565b610651565b6040516102999190614910565b6102d56102d0366004614440565b610668565b005b6102df61067c565b6040516102999190614933565b6102f4610682565b6040516102999392919061491b565b610316610311366004614386565b6106ab565b60405161029991906148d8565b6102b561033136600461411d565b6107ce565b6102d5610842565b610346610876565b6040516102999190614b63565b6102d5610361366004614779565b61087f565b6102df6108f7565b6102d561037c366004614761565b610906565b6102df61091f565b6102b56103973660046141d2565b610943565b6103af6103aa36600461479a565b61097e565b60405161029993929190614b4d565b6103c66109d1565b604051610299919061484f565b6103db6109e0565b60405161029996959493929190614a09565b6102df610a3b565b610408610403366004614478565b610a48565b604051610299929190614b34565b610429610424366004614761565b610a79565b60405161029997969594939291906149d9565b6102df610ac2565b6104576104523660046142c8565b610ae7565b6040516102999190614863565b61046c610b9d565b60405161029991906148a7565b6102df6104873660046140ad565b610bad565b61049f61049a366004614478565b610bcc565b6040516102999291906148eb565b6102df6104bb3660046140ad565b610c71565b6102df6104ce366004614574565b610c8c565b6104086104e1366004614478565b610cde565b6103c6610d03565b6103c6610d27565b610316610d4b565b61028c610e54565b6102df610eb5565b6102df61051c366004614666565b610ebb565b6102b561052f3660046141d2565b611081565b6102b56105423660046141d2565b6110bf565b6103c66110cc565b6102df61055d366004614633565b6110d6565b6102df61116b565b6102df611171565b6102d561058036600461415d565b611244565b61049f610593366004614478565b61138d565b6102df6105a63660046140e5565b6114ad565b6103166114ea565b6102df6114f4565b60038054604080516020601f60026000196101006001881615020190951694909404938401819004810282018101909252828152606093909290918301828280156106475780601f1061061c57610100808354040283529160200191610647565b820191906000526020600020905b81548152906001019060200180831161062a57829003601f168201915b5050505050905090565b600061065e33848461157e565b5060015b92915050565b6106706115e6565b61067981611614565b50565b60025490565b600080600061068f611692565b15925061069a6116af565b91506106a46116d3565b9050909192565b606081516001600160401b03811180156106c457600080fd5b506040519080825280602002602001820160405280156106ee578160200160208202803683370190505b50905060006106fb6116f7565b905060005b83518110156107c75773__QueryProcessor________________________6379eaef82600886848151811061073157fe5b6020026020010151856040518463ffffffff1660e01b815260040161075893929190614a7f565b60206040518083038186803b15801561077057600080fd5b505af4158015610784573d6000803e3d6000fd5b505050506040513d601f19601f820116820180604052508101906107a8919061464e565b8382815181106107b457fe5b6020908102919091010152600101610700565b5050919050565b6000806107db85336114ad565b90506107ff336001600160a01b03871614806107f75750838210155b61019e611704565b61080a858585611712565b336001600160a01b0386161480159061082557506000198114155b1561083757610837853385840361157e565b506001949350505050565b61084a6117f2565b6108526115e6565b61085c6001611805565b600061086661067c565b111561087457610874611845565b565b60055460ff1690565b61089a818310801561089357506104008211155b6064611704565b60006108af600160008060008060008061188d565b9050825b828110156108f1576000818152600860205260409020546108d3906118ed565b6108e95760008181526008602052604090208290555b6001016108b3565b50505050565b60006109016118f9565b905090565b61090e6115e6565b6109166117f2565b61067981611996565b7f000000000000000000000000000000000000000000000000000000000000000090565b3360008181526001602090815260408083206001600160a01b0387168452909152812054909161065e91859061097990866119ff565b61157e565b60008060008061098d85611a11565b9050600061099b8615611a11565b90506109a78883611a65565b97506109b38782611a65565b96506109c0888888611a71565b945094509450505093509350939050565b600b546001600160a01b031681565b600080600080600080600060095490506109f981611b4d565b9650610a0481611b59565b9550610a0f81611b66565b9450610a1a81611b73565b9350610a2581611b80565b9250610a3081611b8d565b915050909192939495565b6000610901600954611b8d565b60006060610a5886516002611b9a565b610a6d89898989898989611ba7611cc7611d45565b97509795505050505050565b6000806000806000806000610a94610400891061013b611704565b6000610a9f89611e59565b9050610aaa81611e6b565b959f949e50929c50909a509850965090945092505050565b6000610901610acf61067c565b610ae1610ada611171565b6002611ece565b90611ef2565b606081516001600160401b0381118015610b0057600080fd5b50604051908082528060200260200182016040528015610b2a578160200160208202803683370190505b5090506000610b376116f7565b9050610b41613f79565b60005b8451811015610b9557848181518110610b5957fe5b60200260200101519150610b768260000151848460200151611f43565b848281518110610b8257fe5b6020908102919091010152600101610b44565b505050919050565b610ba5613f90565b610901611fdc565b6001600160a01b0381166000908152602081905260409020545b919050565b60608088610bf6610bdb610d27565b6001600160a01b0316336001600160a01b03161460cd611704565b610c0b610c0161091f565b82146101f4611704565b610c1487612002565b6000606080610c288d8d8d8d8d8d8d611ba7565b925092509250610c388c84612064565b610c4182611cc7565b610c4a81611cc7565b610c52611692565b15610c5f57610c5f611845565b909c909b509950505050505050505050565b6001600160a01b031660009081526006602052604090205490565b60007f000000000000000000000000000000000000000000000000000000000000000082604051602001610cc192919061480c565b604051602081830303815290604052805190602001209050919050565b60006060610cee86516002611b9a565b610a6d8989898989898961206e612125611d45565b7f000000000000000000000000000000000000000000000000000000000000000090565b7f000000000000000000000000000000000000000000000000000000000000000090565b606080610d56610d27565b6001600160a01b031663f94d4668610d6c61091f565b6040518263ffffffff1660e01b8152600401610d889190614933565b60006040518083038186803b158015610da057600080fd5b505afa158015610db4573d6000803e3d6000fd5b505050506040513d6000823e601f3d908101601f19168201604052610ddc91908101906141fd565b50915050610de981612002565b610e1d81600081518110610df957fe5b602002602001015182600181518110610e0e57fe5b60200260200101516001611a71565b90915083600081518110610e2d57fe5b6020026020010184600181518110610e4157fe5b6020908102919091010191909152525090565b60048054604080516020601f60026000196101006001881615020190951694909404938401819004810282018101909252828152606093909290918301828280156106475780601f1061061c57610100808354040283529160200191610647565b600a5490565b6000610ec56117f2565b8360800151610ed5610bdb610d27565b610ee0610c0161091f565b60007f00000000000000000000000000000000000000000000000000000000000000006001600160a01b031686602001516001600160a01b03161490506000610f2882611a11565b90506000610f368315611a11565b9050610f428783611a65565b9650610f4e8682611a65565b95506000806000610f608a8a88611a71565b925092509250610fa78b60a0015187610f79578a610f7b565b8b5b88610f86578c610f88565b8b5b89610f935784610f95565b855b8a610fa05786610fa2565b855b612187565b60008b516001811115610fb657fe5b1415611025576000610fd4610fc9610a3b565b60608e015190612231565b9050610ff6610ff0828e6060015161152c90919063ffffffff16565b87611a65565b60608d0152600061100a8d8d8d8787612275565b90506110168187612294565b99505050505050505050611079565b6110338b6060015185611a65565b60608c015260006110478c8c8c86866122a0565b905061105381876122b3565b905061106f611068611063610a3b565b6122bf565b82906122e5565b9850505050505050505b509392505050565b60008061108e33856114ad565b90508083106110a8576110a33385600061157e565b6110b5565b6110b5338585840361157e565b5060019392505050565b600061065e338484611712565b6000610901612327565b600073__QueryProcessor________________________630397bee06008846110fd6116f7565b6040518463ffffffff1660e01b815260040161111b93929190614a33565b60206040518083038186803b15801561113357600080fd5b505af4158015611147573d6000803e3d6000fd5b505050506040513d601f19601f82011682018060405250810190610662919061464e565b61040090565b6000606061117d610d27565b6001600160a01b031663f94d466861119361091f565b6040518263ffffffff1660e01b81526004016111af9190614933565b60006040518083038186803b1580156111c757600080fd5b505afa1580156111db573d6000803e3d6000fd5b505050506040513d6000823e601f3d908101601f1916820160405261120391908101906141fd565b5091505061120f613f90565b611217611fdc565b905061122282612002565b61123d828260005b60200201518360015b60200201516123a1565b9250505090565b6112528442111560d1611704565b6001600160a01b03871660009081526006602090815260408083205490519092916112a9917f0000000000000000000000000000000000000000000000000000000000000000918c918c918c9188918d910161495b565b60405160208183030381529060405280519060200120905060006112cc826123d4565b90506000600182888888604051600081526020016040526040516112f394939291906149bb565b6020604051602081039080840390855afa158015611315573d6000803e3d6000fd5b5050604051601f190151915061135790506001600160a01b0382161580159061134f57508b6001600160a01b0316826001600160a01b0316145b6101f8611704565b6001600160a01b038b1660009081526006602052604090206001850190556113808b8b8b61157e565b5050505050505050505050565b6060808861139c610bdb610d27565b6113a7610c0161091f565b6113af6117f2565b60006113b961067c565b611429576113c98b8b8b886123f0565b945090506113de620f424082101560cc611704565b6113ec6000620f4240612480565b6113fb89620f42408303612480565b61140484612125565b6040805160028082526060820183529091602083019080368337019050509250611497565b61143288612002565b611465878960008151811061144357fe5b60200260200101518a60018151811061145857fe5b602002602001015161248a565b6114748b8b8b8b8b8b8b61206e565b909550935090506114858982612480565b61148e84612125565b61149783611cc7565b61149f611845565b505097509795505050505050565b60006114b7610d27565b6001600160a01b0316826001600160a01b031614156114d95750600019610662565b6114e3838361248f565b9050610662565b60606109016124ba565b6201de2090565b8061150581612528565b5050565b600061151783836055611542565b9392505050565b600061151783836056611569565b600061153c838311156001611704565b50900390565b60006001821b198416828461155857600061155b565b60015b60ff16901b17949350505050565b6001600160401b03811b1992909216911b1790565b6001600160a01b0380841660008181526001602090815260408083209487168084529490915290819020849055517f8c5be1e5ebec7d5bd14f71427d1e84f3dd0314c0f7b2291e5b200ac8c7c3b925906115d9908590614933565b60405180910390a3505050565b60006115fd6000356001600160e01b031916610c8c565b905061067961160c82336125a1565b610191611704565b80156116345761162f6116256116af565b4210610193611704565b611649565b61164961163f6116d3565b42106101a9611704565b6007805460ff19168215151790556040517f9e3a5e37224532dea67b89face185703738a228a6e8a23dee546960180d3be6490611687908390614910565b60405180910390a150565b600061169c6116d3565b42118061090157505060075460ff161590565b7f000000000000000000000000000000000000000000000000000000000000000090565b7f000000000000000000000000000000000000000000000000000000000000000090565b6000610901600954611b73565b81611505576115058161268a565b6117296001600160a01b0384161515610198611704565b6117406001600160a01b0383161515610199611704565b61174b83838361248a565b6001600160a01b03831660009081526020819052604090205461177190826101a06126dd565b6001600160a01b0380851660009081526020819052604080822093909355908416815220546117a090826119ff565b6001600160a01b0380841660008181526020819052604090819020939093559151908516907fddf252ad1be2c89b69c2b068fc378daa952ba7f163c4a11628f55a4df523b3ef906115d9908590614933565b6108746117fd611692565b610192611704565b6009546118129082611509565b6009556040517f3e350b41e86a8e10f804ade6d35340d620be35569cc75ac943e8bb14ab80ead190611687908390614910565b60095461185181611b80565b156106795761186b611864600a546126f3565b8290612733565b905061188761188061187b61067c565b6126f3565b8290612740565b60095550565b6000611899828261274e565b6118a484601f612752565b6118af866054612763565b6118ba88606a612752565b6118c58a609f612763565b6118d08c60b5612752565b6118db8e60ea612763565b17171717171798975050505050505050565b60006106628282612770565b60007f00000000000000000000000000000000000000000000000000000000000000007f00000000000000000000000000000000000000000000000000000000000000007f000000000000000000000000000000000000000000000000000000000000000061196661277a565b3060405160200161197b95949392919061498f565b60405160208183030381529060405280519060200120905090565b6119a964e8d4a5100082101560cb611704565b6119bf67016345785d8a000082111560ca611704565b6009546119cc908261151e565b6009556040517fa9ba3ffe0b6c366b81232caab38605a0699ad5398d6cce76f91ee809e322dafc90611687908390614933565b60008282016115178482101583611704565b600081611a3e577f0000000000000000000000000000000000000000000000000000000000000000610662565b507f0000000000000000000000000000000000000000000000000000000000000000919050565b60006115178383611ece565b6040805160028082526060808301845260009384938493909160208301908036833701905050905084611aa45785611aa6565b865b81600081518110611ab357fe5b60200260200101818152505084611aca5786611acc565b855b81600181518110611ad957fe5b602002602001018181525050611aed613f90565b611af5611fdc565b9050611b038282600061122a565b9450611b0d613f90565b611b17828761277e565b905086611b28576020810151611b2b565b80515b945086611b39578051611b3f565b60208101515b935050505093509350939050565b600061066282826127b2565b60006106628260166127b2565b600061066282602c612770565b600061066282604b6127d9565b60006106628260556127e1565b60006106628260566127eb565b6115058183146067611704565b6000606080611bb4613f90565b611bbc611fdc565b9050611bc6611692565b15611c7b576000611be18983835b6020020151846001611233565b9050611beb613f90565b611bf5838361277e565b9050611c44898b600081518110611c0857fe5b60200260200101518c600181518110611c1d57fe5b602002602001015184600060028110611c3257fe5b60200201518560016020020151612187565b611c4d826127f8565b611c578a88612825565b9096509450611c708287611c6961067c565b6000612871565b600a5550611c919050565b611c858886612825565b600019600a5590945092505b60408051600280825260608201835286928692919060208301908036833701905050935093509350509750975097945050505050565b611cee81600081518110611cd757fe5b6020026020010151611ce96001611a11565b6128c9565b81600081518110611cfb57fe5b602002602001018181525050611d2981600181518110611d1757fe5b6020026020010151611ce96000611a11565b81600181518110611d3657fe5b60200260200101818152505050565b333014611e03576000306001600160a01b0316600036604051611d69929190614824565b6000604051808303816000865af19150503d8060008114611da6576040519150601f19603f3d011682016040523d82523d6000602084013e611dab565b606091505b505090508060008114611dba57fe5b60046000803e6000516001600160e01b0319166343adbafb60e01b8114611de5573d6000803e3d6000fd5b506020600460003e604060205260243d03602460403e601c3d016000f35b611e0c86612002565b60006060611e238b8b8b8b8b8b8b8b63ffffffff16565b5091509150611e35818463ffffffff16565b8051601f1982018390526343adbafb603f1983015260200260231982016044820181fd5b60009081526008602052604090205490565b6000806000806000806000611e7f886128e9565b9650611e8a886128f6565b9550611e9588612903565b9450611ea088612910565b9350611eab8861291d565b9250611eb68861292a565b9150611ec1886118ed565b9050919395979092949650565b6000828202611517841580611eeb575083858381611ee857fe5b04145b6003611704565b6000611f018215156004611704565b82611f0e57506000610662565b670de0b6b3a764000083810290611f3190858381611f2857fe5b04146005611704565b828181611f3a57fe5b04915050610662565b6040516334171a8560e01b815260009073__QueryProcessor________________________906334171a8590611f8490600890889088908890600401614a54565b60206040518083038186803b158015611f9c57600080fd5b505af4158015611fb0573d6000803e3d6000fd5b505050506040513d601f19601f82011682018060405250810190611fd4919061464e565b949350505050565b611fe4613f90565b611fee6001612937565b8152611ffa6000612937565b602082015290565b6120298160008151811061201257fe5b60200260200101516120246001611a11565b611ece565b8160008151811061203657fe5b602002602001018181525050611d298160018151811061205257fe5b60200260200101516120246000611a11565b611505828261298b565b600060608061207b613f90565b612083611fdc565b90506000612092898383611bd4565b905061209c613f90565b6120a6838361277e565b90506120b9898b600081518110611c0857fe5b6120c2826127f8565b600060606120d08c8a612a47565b915091506120e884836120e161067c565b6001612871565b600a556040805160028082526060820183528492849291906020830190803683370190505097509750975050505050509750975097945050505050565b61214c8160008151811061213557fe5b60200260200101516121476001611a11565b612a81565b8160008151811061215957fe5b602002602001018181525050611d298160018151811061217557fe5b60200260200101516121476000611a11565b60095461219381611b80565b801561219e57508543115b156122295760006121b186858786612ab4565b905060006121ca878688876121c588611b59565b612ace565b905060006121d784611b73565b905060006121e485611b66565b905060006121fd828487876121f88b611b4d565b612b12565b9050808314611380576122108682612b69565b955061221c8642612b77565b6009819055955050505050505b505050505050565b600082820261224b841580611eeb575083858381611ee857fe5b8061225a576000915050610662565b670de0b6b3a764000060001982015b04600101915050610662565b6000612288858588606001518686612b85565b90505b95945050505050565b600061151783836128c9565b6000612288858588606001518686612c29565b60006115178383612a81565b6000670de0b6b3a764000082106122d7576000610662565b50670de0b6b3a76400000390565b60006122f48215156004611704565b8261230157506000610662565b670de0b6b3a76400008381029061231b90858381611f2857fe5b82600182038161226957fe5b6000612331610d27565b6001600160a01b031663aaabadc56040518163ffffffff1660e01b815260040160206040518083038186803b15801561236957600080fd5b505afa15801561237d573d6000803e3d6000fd5b505050506040513d601f19601f8201168201806040525081019061090191906140c9565b60008060008060006123b4888888612cc8565b93509350935093506123c884848484612e42565b98975050505050505050565b60006123de6118f9565b82604051602001610cc1929190614834565b6000606060006123ff84612eb6565b905061241a600082600381111561241257fe5b1460ce611704565b606061242585612ecc565b905061243381516002611b9a565b61243c81612002565b612444613f90565b61244c611fdc565b9050600061245b838383611bd4565b9050600061246a826002611ece565b600a929092555099919850909650505050505050565b6115058282612ee2565b505050565b6001600160a01b03918216600090815260016020908152604080832093909416825291909152205490565b6040805160028082526060808301845292839291906020830190803683370190505090506124e86001612f70565b816000815181106124f557fe5b60200260200101818152505061250b6000612f70565b8160018151811061251857fe5b6020908102919091010152905090565b60028151101561253757610679565b60008160008151811061254657fe5b602002602001015190506000600190505b825181101561248a57600083828151811061256e57fe5b60200260200101519050612597816001600160a01b0316846001600160a01b0316106065611704565b9150600101612557565b600073ba1ba1ba1ba1ba1ba1ba1ba1ba1ba1ba1ba1ba1b6125c0610d03565b6001600160a01b0316141580156125db57506125db83612fc4565b15612603576125e8610d03565b6001600160a01b0316336001600160a01b0316149050610662565b61260b612327565b6001600160a01b0316639be2a8848484306040518463ffffffff1660e01b815260040161263a9392919061493c565b60206040518083038186803b15801561265257600080fd5b505afa158015612666573d6000803e3d6000fd5b505050506040513d601f19601f820116820180604052508101906114e3919061445c565b62461bcd60e51b6000908152602060045260076024526642414c23000030600a808404818106603090810160081b95839006959095019082900491820690940160101b939093010160c81b604452606490fd5b60006126ec8484111583611704565b5050900390565b6000806126ff83612ff6565b9050600080821361271857652d79883d20008203612722565b652d79883d200082015b655af3107a40009005949350505050565b600061151783838361305a565b60006115178383601661305a565b1b90565b661fffffffffffff91909116901b90565b623fffff91909116901b90565b1c637fffffff1690565b4690565b612786613f90565b612799600184815b602002015184613071565b81526127a76000848161278e565b602082015292915050565b600082821c623fffff16621fffff81136127cc5780611fd4565b623fffff19179392505050565b1c6103ff1690565b1c60019081161490565b1c6001600160401b031690565b60008060008061280a600a5486613091565b935093509350935061281e848484846130fa565b5050505050565b60006060600061283484612eb6565b9050600181600381111561284457fe5b141561285e57612854858561311a565b9093509150612869565b61286961015061268a565b509250929050565b600081156128a357600061288f846128898888612231565b906122e5565b905061289b86826119ff565b915050611fd4565b60006128b384610ae1888861314c565b90506128bf868261152c565b9695505050505050565b60006128d88215156004611704565b8183816128e157fe5b049392505050565b60006106628260ea6127b2565b60006106628260b5613178565b600061066282609f6127b2565b600061066282606a613178565b60006106628260546127b2565b600061066282601f613178565b600081612964577f0000000000000000000000000000000000000000000000000000000000000000610662565b507f0000000000000000000000000000000000000000000000000000000000000000919050565b6129a26001600160a01b038316151561019b611704565b6129ae8260008361248a565b6001600160a01b0382166000908152602081905260409020546129d490826101a16126dd565b6001600160a01b0383166000908152602081905260409020556002546129fa90826131ab565b6002556040516000906001600160a01b038416907fddf252ad1be2c89b69c2b068fc378daa952ba7f163c4a11628f55a4df523b3ef90612a3b908590614933565b60405180910390a35050565b600060606000612a5684612eb6565b90506003816003811115612a6657fe5b1415612a765761285485856131b9565b61286961013661268a565b6000612a908215156004611704565b82612a9d57506000610662565b816001840381612aa957fe5b046001019050610662565b600080612ac3868686866131de565b90506128bf816126f3565b600080612add878787876131de565b90506000612af5612aee8784612231565b89906119ff565b90506000612b02826126f3565b9490940398975050505050505050565b600080612b2e85858542612b258b611e59565b93929190613206565b9050607842889003101580612b435786612b4c565b612b4c87613258565b600081815260086020526040902092909255509695505050505050565b60006115178383604b613265565b60006115178383602c613275565b6000612ba7612b9c87670429d069189e000061314c565b851115610130611704565b6000612bc5612bbe85670de0b6b3a7640002612231565b88906119ff565b90506000612bde612bbe85670de0b6b3a763ffff61314c565b9050612bf7612bed83886119ff565b610ae1838961314c565b92505050612c09858210610165611704565b61228b612c1e86670429d069189e000061314c565b821115610131611704565b6000612c39858510610165611704565b612c59612c4e86670429d069189e000061314c565b851115610131611704565b6000612c70612bbe85670de0b6b3a7640002612231565b90506000612c89612bbe85670de0b6b3a763ffff61314c565b9050612ca2612c98828861152c565b6128898489612231565b925061228b9150612cbd905087670429d069189e000061314c565b821115610130611704565b6000808080612ce9612cda8787611ef2565b670de0b6b3a76400009061152c565b93506000612d148689600181518110612cfe57fe5b6020026020010151611ef290919063ffffffff16565b90506000612d3f888a600081518110612d2957fe5b602002602001015161314c90919063ffffffff16565b9050612d4b82826119ff565b9450612d7289600181518110612d5d57fe5b60200260200101518a600081518110612d2957fe5b92505050612da986612da388612da38b600081518110612d8e57fe5b60200260200101518c600081518110612d2957fe5b9061314c565b91506000612de986610ae189612da3670de0b6b3a7640000600202612da38e600181518110612dd457fe5b60200260200101518f600081518110612d2957fe5b90506000612e1f612dfa8880612231565b610ae18b600181518110612e0a57fe5b60200260200101518c600181518110612d2957fe5b9050612e3581612e2f86856119ff565b906119ff565b9350505093509350935093565b600080612e5786671bc16d674ec80000612231565b90506000612e7187612da386673782dace9d90000061314c565b90506000612e7f86836119ff565b90506000612e8e826005613287565b90506000612e9c89836119ff565b9050612ea88186611ef2565b9a9950505050505050505050565b600081806020019051810190610662919061459c565b60608180602001905181019061151791906145e5565b612eee6000838361248a565b600254612efb90826119ff565b6002556001600160a01b038216600090815260208190526040902054612f2190826119ff565b6001600160a01b0383166000818152602081905260408082209390935591519091907fddf252ad1be2c89b69c2b068fc378daa952ba7f163c4a11628f55a4df523b3ef90612a3b908590614933565b600081612f9d577f0000000000000000000000000000000000000000000000000000000000000000610662565b507f0000000000000000000000000000000000000000000000000000000000000000919050565b6000612fd6631c74c91760e11b610c8c565b8214806106625750612fee6350dd6ed960e01b610c8c565b909114919050565b6000613006600083136064611704565b670c7d713b49da0000821380156130245750670f43fc2c04ee000082125b1561304a57670de0b6b3a764000061303b836133fa565b8161304257fe5b059050610bc7565b61305382613518565b9050610bc7565b623fffff828116821b90821b198416179392505050565b6000836130875761308282846138b7565b611fd4565b611fd482846138c3565b6000806000806000806000806130a56138cf565b935093509350935083600014156130ca576000975087965090945092506130f1915050565b6000806130e18c8c6130da61067c565b8989613b3e565b909a509850929650909450505050505b92959194509250565b831561310a5761310a8285612480565b82156108f1576108f18184612480565b60006060600061312984613bd3565b9050606061313f868361313a61067c565b613be9565b9196919550909350505050565b6000828202613166841580611eeb575083858381611ee857fe5b670de0b6b3a764000090049392505050565b600082821c661fffffffffffff16660fffffffffffff811361319a5780611fd4565b661fffffffffffff19179392505050565b6000611517838360016126dd565b6000606060006131c884613bd3565b9050606061313f86836131d961067c565b613c6e565b60006706f05b59d3b200006128bf6131fa8261288987876119ff565b61288983818a8a6119ff565b600080613212876118ed565b830390506000818702613224896128f6565b01905060008287026132358a612910565b01905060008387026132468b61292a565b019050612ea889848a858b868c61188d565b6000610662826001613d09565b6103ff811b1992909216911b1790565b637fffffff811b1992909216911b1790565b60008261329657506000610662565b60006132a184613d11565b9050600281670de0b6b3a76400008602816132b857fe5b048201816132c257fe5b049050600281670de0b6b3a76400008602816132da57fe5b048201816132e457fe5b049050600281670de0b6b3a76400008602816132fc57fe5b0482018161330657fe5b049050600281670de0b6b3a764000086028161331e57fe5b0482018161332857fe5b049050600281670de0b6b3a764000086028161334057fe5b0482018161334a57fe5b049050600281670de0b6b3a764000086028161336257fe5b0482018161336c57fe5b049050600281670de0b6b3a764000086028161338457fe5b0482018161338e57fe5b049050600061339d828061314c565b90506133b36133ac8386612231565b86906119ff565b81111580156133d557506133d16133ca8386612231565b869061152c565b8110155b6110795760405162461bcd60e51b81526004016133f190614b0e565b60405180910390fd5b670de0b6b3a7640000026000806a0c097ce7bc90715b34b9f160241b808401906ec097ce7bc90715b34b9f0fffffffff198501028161343557fe5b05905060006a0c097ce7bc90715b34b9f160241b82800205905081806a0c097ce7bc90715b34b9f160241b81840205915060038205016a0c097ce7bc90715b34b9f160241b82840205915060058205016a0c097ce7bc90715b34b9f160241b82840205915060078205016a0c097ce7bc90715b34b9f160241b82840205915060098205016a0c097ce7bc90715b34b9f160241b828402059150600b8205016a0c097ce7bc90715b34b9f160241b828402059150600d8205016a0c097ce7bc90715b34b9f160241b828402059150600f826002919005919091010295945050505050565b6000670de0b6b3a76400008212156135545761354a826a0c097ce7bc90715b34b9f160241b8161354457fe5b05613518565b6000039050610bc7565b60007e1600ef3172e58d2e933ec884fde10064c63b5372d805e203c000000000000083126135a557770195e54c5dd42177f53a27172fa9ec630262827000000000830592506806f05b59d3b2000000015b73011798004d755d3c8bc8e03204cf44619e00000083126135dd576b1425982cf597cd205cef7380830592506803782dace9d9000000015b606492830292026e01855144814a7ff805980ff00840008312613625576e01855144814a7ff805980ff008400068056bc75e2d63100000840205925068ad78ebc5ac62000000015b6b02df0ab5a80a22c61ab5a7008312613660576b02df0ab5a80a22c61ab5a70068056bc75e2d6310000084020592506856bc75e2d631000000015b693f1fce3da636ea5cf850831261369757693f1fce3da636ea5cf85068056bc75e2d631000008402059250682b5e3af16b18800000015b690127fa27722cc06cc5e283126136ce57690127fa27722cc06cc5e268056bc75e2d6310000084020592506815af1d78b58c400000015b68280e60114edb805d0383126137035768280e60114edb805d0368056bc75e2d631000008402059250680ad78ebc5ac6200000015b680ebc5fb41746121110831261372e57680ebc5fb4174612111068056bc75e2d631000009384020592015b6808f00f760a4b2db55d8312613763576808f00f760a4b2db55d68056bc75e2d6310000084020592506802b5e3af16b1880000015b6806f5f17757889379378312613798576806f5f177578893793768056bc75e2d63100000840205925068015af1d78b58c40000015b6806248f33704b28660383126137cc576806248f33704b28660368056bc75e2d63100000840205925067ad78ebc5ac620000015b6805c548670b9510e7ac8312613800576805c548670b9510e7ac68056bc75e2d6310000084020592506756bc75e2d6310000015b600068056bc75e2d63100000840168056bc75e2d63100000808603028161382357fe5b059050600068056bc75e2d63100000828002059050818068056bc75e2d63100000818402059150600382050168056bc75e2d63100000828402059150600582050168056bc75e2d63100000828402059150600782050168056bc75e2d63100000828402059150600982050168056bc75e2d63100000828402059150600b820501600202606485820105979650505050505050565b6000611517838361314c565b60006115178383611ef2565b600b5460405163bd02d0f560e01b81526000918291829182916001600160a01b039091169063bd02d0f590613921907550524f544f434f4c5f535741505f4645455f5045524360501b90600401614933565b60206040518083038186803b15801561393957600080fd5b505afa15801561394d573d6000803e3d6000fd5b505050506040513d601f19601f82011682018060405250810190613971919061464e565b600b5460405163bd02d0f560e01b81526001600160a01b039091169063bd02d0f5906139c1907f50524f544f434f4c5f4645455f4759524f5f504f5254494f4e0000000000000090600401614933565b60206040518083038186803b1580156139d957600080fd5b505afa1580156139ed573d6000803e3d6000fd5b505050506040513d601f19601f82011682018060405250810190613a11919061464e565b600b546040516321f8a72160e01b81526001600160a01b03909116906321f8a72190613a51906c4759524f5f545245415355525960981b90600401614933565b60206040518083038186803b158015613a6957600080fd5b505afa158015613a7d573d6000803e3d6000fd5b505050506040513d601f19601f82011682018060405250810190613aa191906140c9565b600b546040516321f8a72160e01b81526001600160a01b03909116906321f8a72190613ae0906b42414c5f545245415355525960a01b90600401614933565b60206040518083038186803b158015613af857600080fd5b505afa158015613b0c573d6000803e3d6000fd5b505050506040513d601f19601f82011682018060405250810190613b3091906140c9565b935093509350935090919293565b600080868611613b5357506000905080613bc9565b6000613b6d85612da3613b668a8c61152c565b899061314c565b90506000613b85613b7e898b61152c565b879061314c565b90506000613b93898361152c565b90506000613ba18483611ef2565b90506000613baf888361314c565b90506000613bbd838361152c565b91975090955050505050505b9550959350505050565b60008180602001905181019061151791906145b8565b606083516001600160401b0381118015613c0257600080fd5b50604051908082528060200260200182016040528015613c2c578160200160208202803683370190505b50905060005b845181101561107957613c4f83610ae186888581518110612d2957fe5b828281518110613c5b57fe5b6020908102919091010152600101613c32565b606083516001600160401b0381118015613c8757600080fd5b50604051908082528060200260200182016040528015613cb1578160200160208202803683370190505b50905060005b845181101561107957613cea8361288986888581518110613cd457fe5b602002602001015161223190919063ffffffff16565b828281518110613cf657fe5b6020908102919091010152600101613cb7565b016103ff1690565b6000670de0b6b3a76400008210613d3e57670de0b6b3a7640000613d36818404613ee3565b1b9050610bc7565b600a8211613d51575063bc7c871c610bc7565b60648211613d6557506402540be400610bc7565b6103e88211613d7a575064075cdd4719610bc7565b6127108211613d8f575064174876e800610bc7565b620186a08211613da557506449a0a4c700610bc7565b620f42408211613dbb575064e8d4a51000610bc7565b629896808211613dd257506502e0466fc608610bc7565b6305f5e1008211613dea57506509184e72a000610bc7565b633b9aca008211613e025750651cc2c05dbc53610bc7565b6402540be4008211613e1b5750655af3107a4000610bc7565b64174876e8008211613e35575066011f9b83a95b45610bc7565b64e8d4a510008211613e4f575066038d7ea4c68000610bc7565b6509184e72a0008211613e6a5750660b3c13249d90bb610bc7565b655af3107a40008211613e855750662386f26fc10000610bc7565b66038d7ea4c680008211613ea15750667058bf6e27a751610bc7565b662386f26fc100008211613ebe575067016345785d8a0000610bc7565b67016345785d8a00008211613edc5750670463777a4d8c892d610bc7565b5080610bc7565b6000600160801b8210613efb5760809190911c906040015b680100000000000000008210613f165760409190911c906020015b6401000000008210613f2d5760209190911c906010015b620100008210613f425760109190911c906008015b6101008210613f565760089190911c906004015b60108210613f695760049190911c906002015b60048210610bc757600101919050565b604080518082019091526000808252602082015290565b60405180604001604052806002906020820280368337509192915050565b803561066281614bc0565b600082601f830112613fc9578081fd5b8151613fdc613fd782614b97565b614b71565b818152915060208083019084810181840286018201871015613ffd57600080fd5b60005b8481101561401c57815184529282019290820190600101614000565b505050505092915050565b600082601f830112614037578081fd5b81356001600160401b0381111561404c578182fd5b61405f601f8201601f1916602001614b71565b915080825283602082850101111561407657600080fd5b8060208401602084013760009082016020015292915050565b80356002811061066257600080fd5b80356003811061066257600080fd5b6000602082840312156140be578081fd5b813561151781614bc0565b6000602082840312156140da578081fd5b815161151781614bc0565b600080604083850312156140f7578081fd5b823561410281614bc0565b9150602083013561411281614bc0565b809150509250929050565b600080600060608486031215614131578081fd5b833561413c81614bc0565b9250602084013561414c81614bc0565b929592945050506040919091013590565b600080600080600080600060e0888a031215614177578485fd5b873561418281614bc0565b9650602088013561419281614bc0565b95506040880135945060608801359350608088013560ff811681146141b5578384fd5b9699959850939692959460a0840135945060c09093013592915050565b600080604083850312156141e4578182fd5b82356141ef81614bc0565b946020939093013593505050565b600080600060608486031215614211578081fd5b83516001600160401b0380821115614227578283fd5b818601915086601f83011261423a578283fd5b8151614248613fd782614b97565b80828252602080830192508086018b828387028901011115614268578788fd5b8796505b8487101561429357805161427f81614bc0565b84526001969096019592810192810161426c565b5089015190975093505050808211156142aa578283fd5b506142b786828701613fb9565b925050604084015190509250925092565b600060208083850312156142da578182fd5b82356001600160401b038111156142ef578283fd5b8301601f810185136142ff578283fd5b803561430d613fd782614b97565b818152838101908385016040808502860187018a101561432b578788fd5b8795505b848610156143785780828b031215614345578788fd5b61434e81614b71565b6143588b8461409e565b81528288013588820152845260019590950194928601929081019061432f565b509098975050505050505050565b60006020808385031215614398578182fd5b82356001600160401b038111156143ad578283fd5b8301601f810185136143bd578283fd5b80356143cb613fd782614b97565b818152838101908385016060808502860187018a10156143e9578788fd5b8795505b848610156143785780828b031215614403578788fd5b61440c81614b71565b6144168b8461409e565b815282880135888201526040808401359082015284526001959095019492860192908101906143ed565b600060208284031215614451578081fd5b813561151781614bd5565b60006020828403121561446d578081fd5b815161151781614bd5565b600080600080600080600060e0888a031215614492578081fd5b873596506020808901356144a581614bc0565b965060408901356144b581614bc0565b955060608901356001600160401b03808211156144d0578384fd5b818b0191508b601f8301126144e3578384fd5b81356144f1613fd782614b97565b8082825285820191508585018f87888602880101111561450f578788fd5b8795505b83861015614531578035835260019590950194918601918601614513565b509850505060808b0135955060a08b0135945060c08b0135925080831115614557578384fd5b50506145658a828b01614027565b91505092959891949750929550565b600060208284031215614585578081fd5b81356001600160e01b031981168114611517578182fd5b6000602082840312156145ad578081fd5b815161151781614be3565b600080604083850312156145ca578182fd5b82516145d581614be3565b6020939093015192949293505050565b600080604083850312156145f7578182fd5b825161460281614be3565b60208401519092506001600160401b0381111561461d578182fd5b61462985828601613fb9565b9150509250929050565b600060208284031215614644578081fd5b611517838361409e565b60006020828403121561465f578081fd5b5051919050565b60008060006060848603121561467a578081fd5b83356001600160401b0380821115614690578283fd5b81860191506101208083890312156146a6578384fd5b6146af81614b71565b90506146bb888461408f565b81526146ca8860208501613fae565b60208201526146dc8860408501613fae565b6040820152606083013560608201526080830135608082015260a083013560a082015261470c8860c08501613fae565b60c082015261471e8860e08501613fae565b60e08201526101008084013583811115614736578586fd5b6147428a828701614027565b9183019190915250976020870135975060409096013595945050505050565b600060208284031215614772578081fd5b5035919050565b6000806040838503121561478b578182fd5b50508035926020909101359150565b6000806000606084860312156147ae578081fd5b833592506020840135915060408401356147c781614bd5565b809150509250925092565b6000815180845260208085019450808401835b83811015614801578151875295820195908201906001016147e5565b509495945050505050565b9182526001600160e01b031916602082015260240190565b6000828483379101908152919050565b61190160f01b81526002810192909252602282015260420190565b6001600160a01b0391909116815260200190565b6020808252825182820181905260009190848201906040850190845b8181101561489b5783518352928401929184019160010161487f565b50909695505050505050565b60408101818360005b60028110156148cf5781518352602092830192909101906001016148b0565b50505092915050565b60006020825261151760208301846147d2565b6000604082526148fe60408301856147d2565b828103602084015261228b81856147d2565b901515815260200190565b92151583526020830191909152604082015260600190565b90815260200190565b9283526001600160a01b03918216602084015216604082015260600190565b9586526001600160a01b0394851660208701529290931660408501526060840152608083019190915260a082015260c00190565b9485526020850193909352604084019190915260608301526001600160a01b0316608082015260a00190565b93845260ff9290921660208401526040830152606082015260800190565b968752602087019590955260408601939093526060850191909152608084015260a083015260c082015260e00190565b9586526020860194909452604085019290925260608401521515608083015260a082015260c00190565b83815260608101614a4384614bb6565b602082019390935260400152919050565b84815260808101614a6485614bb6565b84602083015283604083015282606083015295945050505050565b838152825160a0820190614a9281614bb6565b806020840152506020840151604083015260408401516060830152826080830152949350505050565b6000602080835283518082850152825b81811015614ae757858101830151858201604001528201614acb565b81811115614af85783604083870101525b50601f01601f1916929092016040019392505050565b6020808252600c908201526b17dcdc5c9d0811905253115160a21b604082015260600190565b600083825260406020830152611fd460408301846147d2565b9283526020830191909152604082015260600190565b60ff91909116815260200190565b6040518181016001600160401b0381118282101715614b8f57600080fd5b604052919050565b60006001600160401b03821115614bac578081fd5b5060209081020190565b6003811061067957fe5b6001600160a01b038116811461067957600080fd5b801515811461067957600080fd5b6004811061067957600080fdfea2646970667358221220caed5c61c26ec06a87f86ddc8afed6a0cfb5de4847936f1f42074e82ba4ae01364736f6c63430007010033","bytecodeSha1":"d09b81b57176cbce21a11b9837a4d24aac9d64e6","compiler":{"evm_version":"istanbul","optimizer":{"enabled":true,"runs":200},"version":"0.7.1+commit.f4a555be"},"contractName":"GyroTwoPool","deployedBytecode":"608060405234801561001057600080fd5b506004361061027f5760003560e01c8063707dcd1e1161015c5780639d2c110c116100ce578063c0ff1a1511610087578063c0ff1a151461056a578063d505accf14610572578063d5c096c414610585578063dd62ed3e14610598578063f89f27ed146105ab578063ffd088eb146105b35761027f565b80639d2c110c1461050e578063a457c2d714610521578063a9059cbb14610534578063aaabadc514610547578063b10be7391461054f578063b48b5b40146105625761027f565b806387ec68171161012057806387ec6817146104d3578063893d20e8146104e65780638d928af8146104ee5780638dd9f89d146104f657806395d89b41146104fe5780639b02cdde146105065761027f565b8063707dcd1e1461046457806370a082311461047957806374f3b0091461048c5780637ecebe00146104ad578063851c1bb3146104c05761027f565b806338e9922e116101f55780634a6b0b15116101b95780634a6b0b15146103d357806355c67628146103ed5780636028bfd4146103f557806360d1507c14610416578063679aefce1461043c5780636b843239146104445761027f565b806338e9922e1461036e57806338fff2d01461038157806339509351146103895780633c4dd5bb1461039c57806344bbdb55146103be5761027f565b80631dccd830116102475780631dccd8301461030357806323b872dd14610323578063292c914a14610336578063313ce5671461033e5780633331bc36146103535780633644e515146103665761027f565b806306fdde0314610284578063095ea7b3146102a257806316c38b3c146102c257806318160ddd146102d75780631c0de051146102ec575b600080fd5b61028c6105bb565b6040516102999190614abb565b60405180910390f35b6102b56102b03660046141d2565b610651565b6040516102999190614910565b6102d56102d0366004614440565b610668565b005b6102df61067c565b6040516102999190614933565b6102f4610682565b6040516102999392919061491b565b610316610311366004614386565b6106ab565b60405161029991906148d8565b6102b561033136600461411d565b6107ce565b6102d5610842565b610346610876565b6040516102999190614b63565b6102d5610361366004614779565b61087f565b6102df6108f7565b6102d561037c366004614761565b610906565b6102df61091f565b6102b56103973660046141d2565b610943565b6103af6103aa36600461479a565b61097e565b60405161029993929190614b4d565b6103c66109d1565b604051610299919061484f565b6103db6109e0565b60405161029996959493929190614a09565b6102df610a3b565b610408610403366004614478565b610a48565b604051610299929190614b34565b610429610424366004614761565b610a79565b60405161029997969594939291906149d9565b6102df610ac2565b6104576104523660046142c8565b610ae7565b6040516102999190614863565b61046c610b9d565b60405161029991906148a7565b6102df6104873660046140ad565b610bad565b61049f61049a366004614478565b610bcc565b6040516102999291906148eb565b6102df6104bb3660046140ad565b610c71565b6102df6104ce366004614574565b610c8c565b6104086104e1366004614478565b610cde565b6103c6610d03565b6103c6610d27565b610316610d4b565b61028c610e54565b6102df610eb5565b6102df61051c366004614666565b610ebb565b6102b561052f3660046141d2565b611081565b6102b56105423660046141d2565b6110bf565b6103c66110cc565b6102df61055d366004614633565b6110d6565b6102df61116b565b6102df611171565b6102d561058036600461415d565b611244565b61049f610593366004614478565b61138d565b6102df6105a63660046140e5565b6114ad565b6103166114ea565b6102df6114f4565b60038054604080516020601f60026000196101006001881615020190951694909404938401819004810282018101909252828152606093909290918301828280156106475780601f1061061c57610100808354040283529160200191610647565b820191906000526020600020905b81548152906001019060200180831161062a57829003601f168201915b5050505050905090565b600061065e33848461157e565b5060015b92915050565b6106706115e6565b61067981611614565b50565b60025490565b600080600061068f611692565b15925061069a6116af565b91506106a46116d3565b9050909192565b606081516001600160401b03811180156106c457600080fd5b506040519080825280602002602001820160405280156106ee578160200160208202803683370190505b50905060006106fb6116f7565b905060005b83518110156107c75773__$85f042f43089d976c21d0d184f206dc395$__6379eaef82600886848151811061073157fe5b6020026020010151856040518463ffffffff1660e01b815260040161075893929190614a7f565b60206040518083038186803b15801561077057600080fd5b505af4158015610784573d6000803e3d6000fd5b505050506040513d601f19601f820116820180604052508101906107a8919061464e565b8382815181106107b457fe5b6020908102919091010152600101610700565b5050919050565b6000806107db85336114ad565b90506107ff336001600160a01b03871614806107f75750838210155b61019e611704565b61080a858585611712565b336001600160a01b0386161480159061082557506000198114155b1561083757610837853385840361157e565b506001949350505050565b61084a6117f2565b6108526115e6565b61085c6001611805565b600061086661067c565b111561087457610874611845565b565b60055460ff1690565b61089a818310801561089357506104008211155b6064611704565b60006108af600160008060008060008061188d565b9050825b828110156108f1576000818152600860205260409020546108d3906118ed565b6108e95760008181526008602052604090208290555b6001016108b3565b50505050565b60006109016118f9565b905090565b61090e6115e6565b6109166117f2565b61067981611996565b7f000000000000000000000000000000000000000000000000000000000000000090565b3360008181526001602090815260408083206001600160a01b0387168452909152812054909161065e91859061097990866119ff565b61157e565b60008060008061098d85611a11565b9050600061099b8615611a11565b90506109a78883611a65565b97506109b38782611a65565b96506109c0888888611a71565b945094509450505093509350939050565b600b546001600160a01b031681565b600080600080600080600060095490506109f981611b4d565b9650610a0481611b59565b9550610a0f81611b66565b9450610a1a81611b73565b9350610a2581611b80565b9250610a3081611b8d565b915050909192939495565b6000610901600954611b8d565b60006060610a5886516002611b9a565b610a6d89898989898989611ba7611cc7611d45565b97509795505050505050565b6000806000806000806000610a94610400891061013b611704565b6000610a9f89611e59565b9050610aaa81611e6b565b959f949e50929c50909a509850965090945092505050565b6000610901610acf61067c565b610ae1610ada611171565b6002611ece565b90611ef2565b606081516001600160401b0381118015610b0057600080fd5b50604051908082528060200260200182016040528015610b2a578160200160208202803683370190505b5090506000610b376116f7565b9050610b41613f79565b60005b8451811015610b9557848181518110610b5957fe5b60200260200101519150610b768260000151848460200151611f43565b848281518110610b8257fe5b6020908102919091010152600101610b44565b505050919050565b610ba5613f90565b610901611fdc565b6001600160a01b0381166000908152602081905260409020545b919050565b60608088610bf6610bdb610d27565b6001600160a01b0316336001600160a01b03161460cd611704565b610c0b610c0161091f565b82146101f4611704565b610c1487612002565b6000606080610c288d8d8d8d8d8d8d611ba7565b925092509250610c388c84612064565b610c4182611cc7565b610c4a81611cc7565b610c52611692565b15610c5f57610c5f611845565b909c909b509950505050505050505050565b6001600160a01b031660009081526006602052604090205490565b60007f000000000000000000000000000000000000000000000000000000000000000082604051602001610cc192919061480c565b604051602081830303815290604052805190602001209050919050565b60006060610cee86516002611b9a565b610a6d8989898989898961206e612125611d45565b7f000000000000000000000000000000000000000000000000000000000000000090565b7f000000000000000000000000000000000000000000000000000000000000000090565b606080610d56610d27565b6001600160a01b031663f94d4668610d6c61091f565b6040518263ffffffff1660e01b8152600401610d889190614933565b60006040518083038186803b158015610da057600080fd5b505afa158015610db4573d6000803e3d6000fd5b505050506040513d6000823e601f3d908101601f19168201604052610ddc91908101906141fd565b50915050610de981612002565b610e1d81600081518110610df957fe5b602002602001015182600181518110610e0e57fe5b60200260200101516001611a71565b90915083600081518110610e2d57fe5b6020026020010184600181518110610e4157fe5b6020908102919091010191909152525090565b60048054604080516020601f60026000196101006001881615020190951694909404938401819004810282018101909252828152606093909290918301828280156106475780601f1061061c57610100808354040283529160200191610647565b600a5490565b6000610ec56117f2565b8360800151610ed5610bdb610d27565b610ee0610c0161091f565b60007f00000000000000000000000000000000000000000000000000000000000000006001600160a01b031686602001516001600160a01b03161490506000610f2882611a11565b90506000610f368315611a11565b9050610f428783611a65565b9650610f4e8682611a65565b95506000806000610f608a8a88611a71565b925092509250610fa78b60a0015187610f79578a610f7b565b8b5b88610f86578c610f88565b8b5b89610f935784610f95565b855b8a610fa05786610fa2565b855b612187565b60008b516001811115610fb657fe5b1415611025576000610fd4610fc9610a3b565b60608e015190612231565b9050610ff6610ff0828e6060015161152c90919063ffffffff16565b87611a65565b60608d0152600061100a8d8d8d8787612275565b90506110168187612294565b99505050505050505050611079565b6110338b6060015185611a65565b60608c015260006110478c8c8c86866122a0565b905061105381876122b3565b905061106f611068611063610a3b565b6122bf565b82906122e5565b9850505050505050505b509392505050565b60008061108e33856114ad565b90508083106110a8576110a33385600061157e565b6110b5565b6110b5338585840361157e565b5060019392505050565b600061065e338484611712565b6000610901612327565b600073__$85f042f43089d976c21d0d184f206dc395$__630397bee06008846110fd6116f7565b6040518463ffffffff1660e01b815260040161111b93929190614a33565b60206040518083038186803b15801561113357600080fd5b505af4158015611147573d6000803e3d6000fd5b505050506040513d601f19601f82011682018060405250810190610662919061464e565b61040090565b6000606061117d610d27565b6001600160a01b031663f94d466861119361091f565b6040518263ffffffff1660e01b81526004016111af9190614933565b60006040518083038186803b1580156111c757600080fd5b505afa1580156111db573d6000803e3d6000fd5b505050506040513d6000823e601f3d908101601f1916820160405261120391908101906141fd565b5091505061120f613f90565b611217611fdc565b905061122282612002565b61123d828260005b60200201518360015b60200201516123a1565b9250505090565b6112528442111560d1611704565b6001600160a01b03871660009081526006602090815260408083205490519092916112a9917f0000000000000000000000000000000000000000000000000000000000000000918c918c918c9188918d910161495b565b60405160208183030381529060405280519060200120905060006112cc826123d4565b90506000600182888888604051600081526020016040526040516112f394939291906149bb565b6020604051602081039080840390855afa158015611315573d6000803e3d6000fd5b5050604051601f190151915061135790506001600160a01b0382161580159061134f57508b6001600160a01b0316826001600160a01b0316145b6101f8611704565b6001600160a01b038b1660009081526006602052604090206001850190556113808b8b8b61157e565b5050505050505050505050565b6060808861139c610bdb610d27565b6113a7610c0161091f565b6113af6117f2565b60006113b961067c565b611429576113c98b8b8b886123f0565b945090506113de620f424082101560cc611704565b6113ec6000620f4240612480565b6113fb89620f42408303612480565b61140484612125565b6040805160028082526060820183529091602083019080368337019050509250611497565b61143288612002565b611465878960008151811061144357fe5b60200260200101518a60018151811061145857fe5b602002602001015161248a565b6114748b8b8b8b8b8b8b61206e565b909550935090506114858982612480565b61148e84612125565b61149783611cc7565b61149f611845565b505097509795505050505050565b60006114b7610d27565b6001600160a01b0316826001600160a01b031614156114d95750600019610662565b6114e3838361248f565b9050610662565b60606109016124ba565b6201de2090565b8061150581612528565b5050565b600061151783836055611542565b9392505050565b600061151783836056611569565b600061153c838311156001611704565b50900390565b60006001821b198416828461155857600061155b565b60015b60ff16901b17949350505050565b6001600160401b03811b1992909216911b1790565b6001600160a01b0380841660008181526001602090815260408083209487168084529490915290819020849055517f8c5be1e5ebec7d5bd14f71427d1e84f3dd0314c0f7b2291e5b200ac8c7c3b925906115d9908590614933565b60405180910390a3505050565b60006115fd6000356001600160e01b031916610c8c565b905061067961160c82336125a1565b610191611704565b80156116345761162f6116256116af565b4210610193611704565b611649565b61164961163f6116d3565b42106101a9611704565b6007805460ff19168215151790556040517f9e3a5e37224532dea67b89face185703738a228a6e8a23dee546960180d3be6490611687908390614910565b60405180910390a150565b600061169c6116d3565b42118061090157505060075460ff161590565b7f000000000000000000000000000000000000000000000000000000000000000090565b7f000000000000000000000000000000000000000000000000000000000000000090565b6000610901600954611b73565b81611505576115058161268a565b6117296001600160a01b0384161515610198611704565b6117406001600160a01b0383161515610199611704565b61174b83838361248a565b6001600160a01b03831660009081526020819052604090205461177190826101a06126dd565b6001600160a01b0380851660009081526020819052604080822093909355908416815220546117a090826119ff565b6001600160a01b0380841660008181526020819052604090819020939093559151908516907fddf252ad1be2c89b69c2b068fc378daa952ba7f163c4a11628f55a4df523b3ef906115d9908590614933565b6108746117fd611692565b610192611704565b6009546118129082611509565b6009556040517f3e350b41e86a8e10f804ade6d35340d620be35569cc75ac943e8bb14ab80ead190611687908390614910565b60095461185181611b80565b156106795761186b611864600a546126f3565b8290612733565b905061188761188061187b61067c565b6126f3565b8290612740565b60095550565b6000611899828261274e565b6118a484601f612752565b6118af866054612763565b6118ba88606a612752565b6118c58a609f612763565b6118d08c60b5612752565b6118db8e60ea612763565b17171717171798975050505050505050565b60006106628282612770565b60007f00000000000000000000000000000000000000000000000000000000000000007f00000000000000000000000000000000000000000000000000000000000000007f000000000000000000000000000000000000000000000000000000000000000061196661277a565b3060405160200161197b95949392919061498f565b60405160208183030381529060405280519060200120905090565b6119a964e8d4a5100082101560cb611704565b6119bf67016345785d8a000082111560ca611704565b6009546119cc908261151e565b6009556040517fa9ba3ffe0b6c366b81232caab38605a0699ad5398d6cce76f91ee809e322dafc90611687908390614933565b60008282016115178482101583611704565b600081611a3e577f0000000000000000000000000000000000000000000000000000000000000000610662565b507f0000000000000000000000000000000000000000000000000000000000000000919050565b60006115178383611ece565b6040805160028082526060808301845260009384938493909160208301908036833701905050905084611aa45785611aa6565b865b81600081518110611ab357fe5b60200260200101818152505084611aca5786611acc565b855b81600181518110611ad957fe5b602002602001018181525050611aed613f90565b611af5611fdc565b9050611b038282600061122a565b9450611b0d613f90565b611b17828761277e565b905086611b28576020810151611b2b565b80515b945086611b39578051611b3f565b60208101515b935050505093509350939050565b600061066282826127b2565b60006106628260166127b2565b600061066282602c612770565b600061066282604b6127d9565b60006106628260556127e1565b60006106628260566127eb565b6115058183146067611704565b6000606080611bb4613f90565b611bbc611fdc565b9050611bc6611692565b15611c7b576000611be18983835b6020020151846001611233565b9050611beb613f90565b611bf5838361277e565b9050611c44898b600081518110611c0857fe5b60200260200101518c600181518110611c1d57fe5b602002602001015184600060028110611c3257fe5b60200201518560016020020151612187565b611c4d826127f8565b611c578a88612825565b9096509450611c708287611c6961067c565b6000612871565b600a5550611c919050565b611c858886612825565b600019600a5590945092505b60408051600280825260608201835286928692919060208301908036833701905050935093509350509750975097945050505050565b611cee81600081518110611cd757fe5b6020026020010151611ce96001611a11565b6128c9565b81600081518110611cfb57fe5b602002602001018181525050611d2981600181518110611d1757fe5b6020026020010151611ce96000611a11565b81600181518110611d3657fe5b60200260200101818152505050565b333014611e03576000306001600160a01b0316600036604051611d69929190614824565b6000604051808303816000865af19150503d8060008114611da6576040519150601f19603f3d011682016040523d82523d6000602084013e611dab565b606091505b505090508060008114611dba57fe5b60046000803e6000516001600160e01b0319166343adbafb60e01b8114611de5573d6000803e3d6000fd5b506020600460003e604060205260243d03602460403e601c3d016000f35b611e0c86612002565b60006060611e238b8b8b8b8b8b8b8b63ffffffff16565b5091509150611e35818463ffffffff16565b8051601f1982018390526343adbafb603f1983015260200260231982016044820181fd5b60009081526008602052604090205490565b6000806000806000806000611e7f886128e9565b9650611e8a886128f6565b9550611e9588612903565b9450611ea088612910565b9350611eab8861291d565b9250611eb68861292a565b9150611ec1886118ed565b9050919395979092949650565b6000828202611517841580611eeb575083858381611ee857fe5b04145b6003611704565b6000611f018215156004611704565b82611f0e57506000610662565b670de0b6b3a764000083810290611f3190858381611f2857fe5b04146005611704565b828181611f3a57fe5b04915050610662565b6040516334171a8560e01b815260009073__$85f042f43089d976c21d0d184f206dc395$__906334171a8590611f8490600890889088908890600401614a54565b60206040518083038186803b158015611f9c57600080fd5b505af4158015611fb0573d6000803e3d6000fd5b505050506040513d601f19601f82011682018060405250810190611fd4919061464e565b949350505050565b611fe4613f90565b611fee6001612937565b8152611ffa6000612937565b602082015290565b6120298160008151811061201257fe5b60200260200101516120246001611a11565b611ece565b8160008151811061203657fe5b602002602001018181525050611d298160018151811061205257fe5b60200260200101516120246000611a11565b611505828261298b565b600060608061207b613f90565b612083611fdc565b90506000612092898383611bd4565b905061209c613f90565b6120a6838361277e565b90506120b9898b600081518110611c0857fe5b6120c2826127f8565b600060606120d08c8a612a47565b915091506120e884836120e161067c565b6001612871565b600a556040805160028082526060820183528492849291906020830190803683370190505097509750975050505050509750975097945050505050565b61214c8160008151811061213557fe5b60200260200101516121476001611a11565b612a81565b8160008151811061215957fe5b602002602001018181525050611d298160018151811061217557fe5b60200260200101516121476000611a11565b60095461219381611b80565b801561219e57508543115b156122295760006121b186858786612ab4565b905060006121ca878688876121c588611b59565b612ace565b905060006121d784611b73565b905060006121e485611b66565b905060006121fd828487876121f88b611b4d565b612b12565b9050808314611380576122108682612b69565b955061221c8642612b77565b6009819055955050505050505b505050505050565b600082820261224b841580611eeb575083858381611ee857fe5b8061225a576000915050610662565b670de0b6b3a764000060001982015b04600101915050610662565b6000612288858588606001518686612b85565b90505b95945050505050565b600061151783836128c9565b6000612288858588606001518686612c29565b60006115178383612a81565b6000670de0b6b3a764000082106122d7576000610662565b50670de0b6b3a76400000390565b60006122f48215156004611704565b8261230157506000610662565b670de0b6b3a76400008381029061231b90858381611f2857fe5b82600182038161226957fe5b6000612331610d27565b6001600160a01b031663aaabadc56040518163ffffffff1660e01b815260040160206040518083038186803b15801561236957600080fd5b505afa15801561237d573d6000803e3d6000fd5b505050506040513d601f19601f8201168201806040525081019061090191906140c9565b60008060008060006123b4888888612cc8565b93509350935093506123c884848484612e42565b98975050505050505050565b60006123de6118f9565b82604051602001610cc1929190614834565b6000606060006123ff84612eb6565b905061241a600082600381111561241257fe5b1460ce611704565b606061242585612ecc565b905061243381516002611b9a565b61243c81612002565b612444613f90565b61244c611fdc565b9050600061245b838383611bd4565b9050600061246a826002611ece565b600a929092555099919850909650505050505050565b6115058282612ee2565b505050565b6001600160a01b03918216600090815260016020908152604080832093909416825291909152205490565b6040805160028082526060808301845292839291906020830190803683370190505090506124e86001612f70565b816000815181106124f557fe5b60200260200101818152505061250b6000612f70565b8160018151811061251857fe5b6020908102919091010152905090565b60028151101561253757610679565b60008160008151811061254657fe5b602002602001015190506000600190505b825181101561248a57600083828151811061256e57fe5b60200260200101519050612597816001600160a01b0316846001600160a01b0316106065611704565b9150600101612557565b600073ba1ba1ba1ba1ba1ba1ba1ba1ba1ba1ba1ba1ba1b6125c0610d03565b6001600160a01b0316141580156125db57506125db83612fc4565b15612603576125e8610d03565b6001600160a01b0316336001600160a01b0316149050610662565b61260b612327565b6001600160a01b0316639be2a8848484306040518463ffffffff1660e01b815260040161263a9392919061493c565b60206040518083038186803b15801561265257600080fd5b505afa158015612666573d6000803e3d6000fd5b505050506040513d601f19601f820116820180604052508101906114e3919061445c565b62461bcd60e51b6000908152602060045260076024526642414c23000030600a808404818106603090810160081b95839006959095019082900491820690940160101b939093010160c81b604452606490fd5b60006126ec8484111583611704565b5050900390565b6000806126ff83612ff6565b9050600080821361271857652d79883d20008203612722565b652d79883d200082015b655af3107a40009005949350505050565b600061151783838361305a565b60006115178383601661305a565b1b90565b661fffffffffffff91909116901b90565b623fffff91909116901b90565b1c637fffffff1690565b4690565b612786613f90565b612799600184815b602002015184613071565b81526127a76000848161278e565b602082015292915050565b600082821c623fffff16621fffff81136127cc5780611fd4565b623fffff19179392505050565b1c6103ff1690565b1c60019081161490565b1c6001600160401b031690565b60008060008061280a600a5486613091565b935093509350935061281e848484846130fa565b5050505050565b60006060600061283484612eb6565b9050600181600381111561284457fe5b141561285e57612854858561311a565b9093509150612869565b61286961015061268a565b509250929050565b600081156128a357600061288f846128898888612231565b906122e5565b905061289b86826119ff565b915050611fd4565b60006128b384610ae1888861314c565b90506128bf868261152c565b9695505050505050565b60006128d88215156004611704565b8183816128e157fe5b049392505050565b60006106628260ea6127b2565b60006106628260b5613178565b600061066282609f6127b2565b600061066282606a613178565b60006106628260546127b2565b600061066282601f613178565b600081612964577f0000000000000000000000000000000000000000000000000000000000000000610662565b507f0000000000000000000000000000000000000000000000000000000000000000919050565b6129a26001600160a01b038316151561019b611704565b6129ae8260008361248a565b6001600160a01b0382166000908152602081905260409020546129d490826101a16126dd565b6001600160a01b0383166000908152602081905260409020556002546129fa90826131ab565b6002556040516000906001600160a01b038416907fddf252ad1be2c89b69c2b068fc378daa952ba7f163c4a11628f55a4df523b3ef90612a3b908590614933565b60405180910390a35050565b600060606000612a5684612eb6565b90506003816003811115612a6657fe5b1415612a765761285485856131b9565b61286961013661268a565b6000612a908215156004611704565b82612a9d57506000610662565b816001840381612aa957fe5b046001019050610662565b600080612ac3868686866131de565b90506128bf816126f3565b600080612add878787876131de565b90506000612af5612aee8784612231565b89906119ff565b90506000612b02826126f3565b9490940398975050505050505050565b600080612b2e85858542612b258b611e59565b93929190613206565b9050607842889003101580612b435786612b4c565b612b4c87613258565b600081815260086020526040902092909255509695505050505050565b60006115178383604b613265565b60006115178383602c613275565b6000612ba7612b9c87670429d069189e000061314c565b851115610130611704565b6000612bc5612bbe85670de0b6b3a7640002612231565b88906119ff565b90506000612bde612bbe85670de0b6b3a763ffff61314c565b9050612bf7612bed83886119ff565b610ae1838961314c565b92505050612c09858210610165611704565b61228b612c1e86670429d069189e000061314c565b821115610131611704565b6000612c39858510610165611704565b612c59612c4e86670429d069189e000061314c565b851115610131611704565b6000612c70612bbe85670de0b6b3a7640002612231565b90506000612c89612bbe85670de0b6b3a763ffff61314c565b9050612ca2612c98828861152c565b6128898489612231565b925061228b9150612cbd905087670429d069189e000061314c565b821115610130611704565b6000808080612ce9612cda8787611ef2565b670de0b6b3a76400009061152c565b93506000612d148689600181518110612cfe57fe5b6020026020010151611ef290919063ffffffff16565b90506000612d3f888a600081518110612d2957fe5b602002602001015161314c90919063ffffffff16565b9050612d4b82826119ff565b9450612d7289600181518110612d5d57fe5b60200260200101518a600081518110612d2957fe5b92505050612da986612da388612da38b600081518110612d8e57fe5b60200260200101518c600081518110612d2957fe5b9061314c565b91506000612de986610ae189612da3670de0b6b3a7640000600202612da38e600181518110612dd457fe5b60200260200101518f600081518110612d2957fe5b90506000612e1f612dfa8880612231565b610ae18b600181518110612e0a57fe5b60200260200101518c600181518110612d2957fe5b9050612e3581612e2f86856119ff565b906119ff565b9350505093509350935093565b600080612e5786671bc16d674ec80000612231565b90506000612e7187612da386673782dace9d90000061314c565b90506000612e7f86836119ff565b90506000612e8e826005613287565b90506000612e9c89836119ff565b9050612ea88186611ef2565b9a9950505050505050505050565b600081806020019051810190610662919061459c565b60608180602001905181019061151791906145e5565b612eee6000838361248a565b600254612efb90826119ff565b6002556001600160a01b038216600090815260208190526040902054612f2190826119ff565b6001600160a01b0383166000818152602081905260408082209390935591519091907fddf252ad1be2c89b69c2b068fc378daa952ba7f163c4a11628f55a4df523b3ef90612a3b908590614933565b600081612f9d577f0000000000000000000000000000000000000000000000000000000000000000610662565b507f0000000000000000000000000000000000000000000000000000000000000000919050565b6000612fd6631c74c91760e11b610c8c565b8214806106625750612fee6350dd6ed960e01b610c8c565b909114919050565b6000613006600083136064611704565b670c7d713b49da0000821380156130245750670f43fc2c04ee000082125b1561304a57670de0b6b3a764000061303b836133fa565b8161304257fe5b059050610bc7565b61305382613518565b9050610bc7565b623fffff828116821b90821b198416179392505050565b6000836130875761308282846138b7565b611fd4565b611fd482846138c3565b6000806000806000806000806130a56138cf565b935093509350935083600014156130ca576000975087965090945092506130f1915050565b6000806130e18c8c6130da61067c565b8989613b3e565b909a509850929650909450505050505b92959194509250565b831561310a5761310a8285612480565b82156108f1576108f18184612480565b60006060600061312984613bd3565b9050606061313f868361313a61067c565b613be9565b9196919550909350505050565b6000828202613166841580611eeb575083858381611ee857fe5b670de0b6b3a764000090049392505050565b600082821c661fffffffffffff16660fffffffffffff811361319a5780611fd4565b661fffffffffffff19179392505050565b6000611517838360016126dd565b6000606060006131c884613bd3565b9050606061313f86836131d961067c565b613c6e565b60006706f05b59d3b200006128bf6131fa8261288987876119ff565b61288983818a8a6119ff565b600080613212876118ed565b830390506000818702613224896128f6565b01905060008287026132358a612910565b01905060008387026132468b61292a565b019050612ea889848a858b868c61188d565b6000610662826001613d09565b6103ff811b1992909216911b1790565b637fffffff811b1992909216911b1790565b60008261329657506000610662565b60006132a184613d11565b9050600281670de0b6b3a76400008602816132b857fe5b048201816132c257fe5b049050600281670de0b6b3a76400008602816132da57fe5b048201816132e457fe5b049050600281670de0b6b3a76400008602816132fc57fe5b0482018161330657fe5b049050600281670de0b6b3a764000086028161331e57fe5b0482018161332857fe5b049050600281670de0b6b3a764000086028161334057fe5b0482018161334a57fe5b049050600281670de0b6b3a764000086028161336257fe5b0482018161336c57fe5b049050600281670de0b6b3a764000086028161338457fe5b0482018161338e57fe5b049050600061339d828061314c565b90506133b36133ac8386612231565b86906119ff565b81111580156133d557506133d16133ca8386612231565b869061152c565b8110155b6110795760405162461bcd60e51b81526004016133f190614b0e565b60405180910390fd5b670de0b6b3a7640000026000806a0c097ce7bc90715b34b9f160241b808401906ec097ce7bc90715b34b9f0fffffffff198501028161343557fe5b05905060006a0c097ce7bc90715b34b9f160241b82800205905081806a0c097ce7bc90715b34b9f160241b81840205915060038205016a0c097ce7bc90715b34b9f160241b82840205915060058205016a0c097ce7bc90715b34b9f160241b82840205915060078205016a0c097ce7bc90715b34b9f160241b82840205915060098205016a0c097ce7bc90715b34b9f160241b828402059150600b8205016a0c097ce7bc90715b34b9f160241b828402059150600d8205016a0c097ce7bc90715b34b9f160241b828402059150600f826002919005919091010295945050505050565b6000670de0b6b3a76400008212156135545761354a826a0c097ce7bc90715b34b9f160241b8161354457fe5b05613518565b6000039050610bc7565b60007e1600ef3172e58d2e933ec884fde10064c63b5372d805e203c000000000000083126135a557770195e54c5dd42177f53a27172fa9ec630262827000000000830592506806f05b59d3b2000000015b73011798004d755d3c8bc8e03204cf44619e00000083126135dd576b1425982cf597cd205cef7380830592506803782dace9d9000000015b606492830292026e01855144814a7ff805980ff00840008312613625576e01855144814a7ff805980ff008400068056bc75e2d63100000840205925068ad78ebc5ac62000000015b6b02df0ab5a80a22c61ab5a7008312613660576b02df0ab5a80a22c61ab5a70068056bc75e2d6310000084020592506856bc75e2d631000000015b693f1fce3da636ea5cf850831261369757693f1fce3da636ea5cf85068056bc75e2d631000008402059250682b5e3af16b18800000015b690127fa27722cc06cc5e283126136ce57690127fa27722cc06cc5e268056bc75e2d6310000084020592506815af1d78b58c400000015b68280e60114edb805d0383126137035768280e60114edb805d0368056bc75e2d631000008402059250680ad78ebc5ac6200000015b680ebc5fb41746121110831261372e57680ebc5fb4174612111068056bc75e2d631000009384020592015b6808f00f760a4b2db55d8312613763576808f00f760a4b2db55d68056bc75e2d6310000084020592506802b5e3af16b1880000015b6806f5f17757889379378312613798576806f5f177578893793768056bc75e2d63100000840205925068015af1d78b58c40000015b6806248f33704b28660383126137cc576806248f33704b28660368056bc75e2d63100000840205925067ad78ebc5ac620000015b6805c548670b9510e7ac8312613800576805c548670b9510e7ac68056bc75e2d6310000084020592506756bc75e2d6310000015b600068056bc75e2d63100000840168056bc75e2d63100000808603028161382357fe5b059050600068056bc75e2d63100000828002059050818068056bc75e2d63100000818402059150600382050168056bc75e2d63100000828402059150600582050168056bc75e2d63100000828402059150600782050168056bc75e2d63100000828402059150600982050168056bc75e2d63100000828402059150600b820501600202606485820105979650505050505050565b6000611517838361314c565b60006115178383611ef2565b600b5460405163bd02d0f560e01b81526000918291829182916001600160a01b039091169063bd02d0f590613921907550524f544f434f4c5f535741505f4645455f5045524360501b90600401614933565b60206040518083038186803b15801561393957600080fd5b505afa15801561394d573d6000803e3d6000fd5b505050506040513d601f19601f82011682018060405250810190613971919061464e565b600b5460405163bd02d0f560e01b81526001600160a01b039091169063bd02d0f5906139c1907f50524f544f434f4c5f4645455f4759524f5f504f5254494f4e0000000000000090600401614933565b60206040518083038186803b1580156139d957600080fd5b505afa1580156139ed573d6000803e3d6000fd5b505050506040513d601f19601f82011682018060405250810190613a11919061464e565b600b546040516321f8a72160e01b81526001600160a01b03909116906321f8a72190613a51906c4759524f5f545245415355525960981b90600401614933565b60206040518083038186803b158015613a6957600080fd5b505afa158015613a7d573d6000803e3d6000fd5b505050506040513d601f19601f82011682018060405250810190613aa191906140c9565b600b546040516321f8a72160e01b81526001600160a01b03909116906321f8a72190613ae0906b42414c5f545245415355525960a01b90600401614933565b60206040518083038186803b158015613af857600080fd5b505afa158015613b0c573d6000803e3d6000fd5b505050506040513d601f19601f82011682018060405250810190613b3091906140c9565b935093509350935090919293565b600080868611613b5357506000905080613bc9565b6000613b6d85612da3613b668a8c61152c565b899061314c565b90506000613b85613b7e898b61152c565b879061314c565b90506000613b93898361152c565b90506000613ba18483611ef2565b90506000613baf888361314c565b90506000613bbd838361152c565b91975090955050505050505b9550959350505050565b60008180602001905181019061151791906145b8565b606083516001600160401b0381118015613c0257600080fd5b50604051908082528060200260200182016040528015613c2c578160200160208202803683370190505b50905060005b845181101561107957613c4f83610ae186888581518110612d2957fe5b828281518110613c5b57fe5b6020908102919091010152600101613c32565b606083516001600160401b0381118015613c8757600080fd5b50604051908082528060200260200182016040528015613cb1578160200160208202803683370190505b50905060005b845181101561107957613cea8361288986888581518110613cd457fe5b602002602001015161223190919063ffffffff16565b828281518110613cf657fe5b6020908102919091010152600101613cb7565b016103ff1690565b6000670de0b6b3a76400008210613d3e57670de0b6b3a7640000613d36818404613ee3565b1b9050610bc7565b600a8211613d51575063bc7c871c610bc7565b60648211613d6557506402540be400610bc7565b6103e88211613d7a575064075cdd4719610bc7565b6127108211613d8f575064174876e800610bc7565b620186a08211613da557506449a0a4c700610bc7565b620f42408211613dbb575064e8d4a51000610bc7565b629896808211613dd257506502e0466fc608610bc7565b6305f5e1008211613dea57506509184e72a000610bc7565b633b9aca008211613e025750651cc2c05dbc53610bc7565b6402540be4008211613e1b5750655af3107a4000610bc7565b64174876e8008211613e35575066011f9b83a95b45610bc7565b64e8d4a510008211613e4f575066038d7ea4c68000610bc7565b6509184e72a0008211613e6a5750660b3c13249d90bb610bc7565b655af3107a40008211613e855750662386f26fc10000610bc7565b66038d7ea4c680008211613ea15750667058bf6e27a751610bc7565b662386f26fc100008211613ebe575067016345785d8a0000610bc7565b67016345785d8a00008211613edc5750670463777a4d8c892d610bc7565b5080610bc7565b6000600160801b8210613efb5760809190911c906040015b680100000000000000008210613f165760409190911c906020015b6401000000008210613f2d5760209190911c906010015b620100008210613f425760109190911c906008015b6101008210613f565760089190911c906004015b60108210613f695760049190911c906002015b60048210610bc757600101919050565b604080518082019091526000808252602082015290565b60405180604001604052806002906020820280368337509192915050565b803561066281614bc0565b600082601f830112613fc9578081fd5b8151613fdc613fd782614b97565b614b71565b818152915060208083019084810181840286018201871015613ffd57600080fd5b60005b8481101561401c57815184529282019290820190600101614000565b505050505092915050565b600082601f830112614037578081fd5b81356001600160401b0381111561404c578182fd5b61405f601f8201601f1916602001614b71565b915080825283602082850101111561407657600080fd5b8060208401602084013760009082016020015292915050565b80356002811061066257600080fd5b80356003811061066257600080fd5b6000602082840312156140be578081fd5b813561151781614bc0565b6000602082840312156140da578081fd5b815161151781614bc0565b600080604083850312156140f7578081fd5b823561410281614bc0565b9150602083013561411281614bc0565b809150509250929050565b600080600060608486031215614131578081fd5b833561413c81614bc0565b9250602084013561414c81614bc0565b929592945050506040919091013590565b600080600080600080600060e0888a031215614177578485fd5b873561418281614bc0565b9650602088013561419281614bc0565b95506040880135945060608801359350608088013560ff811681146141b5578384fd5b9699959850939692959460a0840135945060c09093013592915050565b600080604083850312156141e4578182fd5b82356141ef81614bc0565b946020939093013593505050565b600080600060608486031215614211578081fd5b83516001600160401b0380821115614227578283fd5b818601915086601f83011261423a578283fd5b8151614248613fd782614b97565b80828252602080830192508086018b828387028901011115614268578788fd5b8796505b8487101561429357805161427f81614bc0565b84526001969096019592810192810161426c565b5089015190975093505050808211156142aa578283fd5b506142b786828701613fb9565b925050604084015190509250925092565b600060208083850312156142da578182fd5b82356001600160401b038111156142ef578283fd5b8301601f810185136142ff578283fd5b803561430d613fd782614b97565b818152838101908385016040808502860187018a101561432b578788fd5b8795505b848610156143785780828b031215614345578788fd5b61434e81614b71565b6143588b8461409e565b81528288013588820152845260019590950194928601929081019061432f565b509098975050505050505050565b60006020808385031215614398578182fd5b82356001600160401b038111156143ad578283fd5b8301601f810185136143bd578283fd5b80356143cb613fd782614b97565b818152838101908385016060808502860187018a10156143e9578788fd5b8795505b848610156143785780828b031215614403578788fd5b61440c81614b71565b6144168b8461409e565b815282880135888201526040808401359082015284526001959095019492860192908101906143ed565b600060208284031215614451578081fd5b813561151781614bd5565b60006020828403121561446d578081fd5b815161151781614bd5565b600080600080600080600060e0888a031215614492578081fd5b873596506020808901356144a581614bc0565b965060408901356144b581614bc0565b955060608901356001600160401b03808211156144d0578384fd5b818b0191508b601f8301126144e3578384fd5b81356144f1613fd782614b97565b8082825285820191508585018f87888602880101111561450f578788fd5b8795505b83861015614531578035835260019590950194918601918601614513565b509850505060808b0135955060a08b0135945060c08b0135925080831115614557578384fd5b50506145658a828b01614027565b91505092959891949750929550565b600060208284031215614585578081fd5b81356001600160e01b031981168114611517578182fd5b6000602082840312156145ad578081fd5b815161151781614be3565b600080604083850312156145ca578182fd5b82516145d581614be3565b6020939093015192949293505050565b600080604083850312156145f7578182fd5b825161460281614be3565b60208401519092506001600160401b0381111561461d578182fd5b61462985828601613fb9565b9150509250929050565b600060208284031215614644578081fd5b611517838361409e565b60006020828403121561465f578081fd5b5051919050565b60008060006060848603121561467a578081fd5b83356001600160401b0380821115614690578283fd5b81860191506101208083890312156146a6578384fd5b6146af81614b71565b90506146bb888461408f565b81526146ca8860208501613fae565b60208201526146dc8860408501613fae565b6040820152606083013560608201526080830135608082015260a083013560a082015261470c8860c08501613fae565b60c082015261471e8860e08501613fae565b60e08201526101008084013583811115614736578586fd5b6147428a828701614027565b9183019190915250976020870135975060409096013595945050505050565b600060208284031215614772578081fd5b5035919050565b6000806040838503121561478b578182fd5b50508035926020909101359150565b6000806000606084860312156147ae578081fd5b833592506020840135915060408401356147c781614bd5565b809150509250925092565b6000815180845260208085019450808401835b83811015614801578151875295820195908201906001016147e5565b509495945050505050565b9182526001600160e01b031916602082015260240190565b6000828483379101908152919050565b61190160f01b81526002810192909252602282015260420190565b6001600160a01b0391909116815260200190565b6020808252825182820181905260009190848201906040850190845b8181101561489b5783518352928401929184019160010161487f565b50909695505050505050565b60408101818360005b60028110156148cf5781518352602092830192909101906001016148b0565b50505092915050565b60006020825261151760208301846147d2565b6000604082526148fe60408301856147d2565b828103602084015261228b81856147d2565b901515815260200190565b92151583526020830191909152604082015260600190565b90815260200190565b9283526001600160a01b03918216602084015216604082015260600190565b9586526001600160a01b0394851660208701529290931660408501526060840152608083019190915260a082015260c00190565b9485526020850193909352604084019190915260608301526001600160a01b0316608082015260a00190565b93845260ff9290921660208401526040830152606082015260800190565b968752602087019590955260408601939093526060850191909152608084015260a083015260c082015260e00190565b9586526020860194909452604085019290925260608401521515608083015260a082015260c00190565b83815260608101614a4384614bb6565b602082019390935260400152919050565b84815260808101614a6485614bb6565b84602083015283604083015282606083015295945050505050565b838152825160a0820190614a9281614bb6565b806020840152506020840151604083015260408401516060830152826080830152949350505050565b6000602080835283518082850152825b81811015614ae757858101830151858201604001528201614acb565b81811115614af85783604083870101525b50601f01601f1916929092016040019392505050565b6020808252600c908201526b17dcdc5c9d0811905253115160a21b604082015260600190565b600083825260406020830152611fd460408301846147d2565b9283526020830191909152604082015260600190565b60ff91909116815260200190565b6040518181016001600160401b0381118282101715614b8f57600080fd5b604052919050565b60006001600160401b03821115614bac578081fd5b5060209081020190565b6003811061067957fe5b6001600160a01b038116811461067957600080fd5b801515811461067957600080fd5b6004811061067957600080fdfea2646970667358221220caed5c61c26ec06a87f86ddc8afed6a0cfb5de4847936f1f42074e82ba4ae01364736f6c63430007010033","language":"Solidity","natspec":{"kind":"dev","methods":{"DOMAIN_SEPARATOR()":{"details":"See {IERC20Permit-DOMAIN_SEPARATOR}."},"allowance(address,address)":{"details":"Override to grant the Vault infinite allowance, causing for Pool Tokens to not require approval. This is sound as the Vault already provides authorization mechanisms when initiation token transfers, which this contract inherits."},"approve(address,uint256)":{"details":"See {IERC20-approve}. Requirements: - `spender` cannot be the zero address."},"balanceOf(address)":{"details":"See {IERC20-balanceOf}."},"decimals()":{"details":"Returns the number of decimals used to get its user representation. For example, if `decimals` equals `2`, a balance of `505` tokens should be displayed to a user as `5,05` (`505 / 10 ** 2`). Tokens usually opt for a value of 18, imitating the relationship between Ether and Wei. This is the value {ERC20} uses, unless {_setupDecimals} is called. NOTE: This information is only used for _display_ purposes: it in no way affects any of the arithmetic of the contract, including {IERC20-balanceOf} and {IERC20-transfer}."},"decreaseAllowance(address,uint256)":{"details":"Override to allow decreasing allowance by more than the current amount (setting it to zero)"},"dirtyUninitializedOracleSamples(uint256,uint256)":{"details":"Manually dirty oracle sample storage slots with dummy data, to reduce the gas cost of the future swaps that will initialize them. This function is only useful before the oracle has been fully initialized. `endIndex` is non-inclusive."},"enableOracle()":{"details":"Balancer Governance can always enable the Oracle, even if it was originally not enabled. This allows for Pools that unexpectedly drive much more volume and liquidity than expected to serve as Price Oracles. Note that the Oracle can only be enabled - it can never be disabled."},"getActionId(bytes4)":{"details":"Returns the action identifier associated with the external function described by `selector`."},"getInvariant()":{"details":"Returns the current value of the invariant."},"getLargestSafeQueryWindow()":{"details":"Returns largest time window that can be safely queried, where 'safely' means the Oracle is guaranteed to be able to produce a result and not revert. If a query has a non-zero `ago` value, then `secs + ago` (the oldest point in time) must be smaller than this value for 'safe' queries."},"getLatest(uint8)":{"details":"Returns latest sample of `variable`. Prices are represented as 18 decimal fixed point values."},"getPastAccumulators((uint8,uint256)[])":{"details":"Returns the accumulators corresponding to each of `queries`."},"getPausedState()":{"details":"Returns the current contract pause status, as well as the end times of the Pause Window and Buffer Period."},"getRate()":{"details":"This function returns the appreciation of one BPT relative to the underlying tokens. This starts at 1 when the pool is created and grows over time"},"getSample(uint256)":{"details":"Returns the raw data of the sample at `index`."},"getTimeWeightedAverage((uint8,uint256,uint256)[])":{"details":"Returns the time average weighted price corresponding to each of `queries`. Prices are represented as 18 decimal fixed point values."},"getTotalSamples()":{"details":"Returns the total number of samples."},"getVirtualParameters()":{"details":"Returns virtual offsets a and b for reserves x and y respectively, as in (x+a)*(y+b)=L^2"},"increaseAllowance(address,uint256)":{"details":"Atomically increases the allowance granted to `spender` by the caller. This is an alternative to {approve} that can be used as a mitigation for problems described in {IERC20-approve}. Emits an {Approval} event indicating the updated allowance. Requirements: - `spender` cannot be the zero address."},"name()":{"details":"Returns the name of the token."},"nonces(address)":{"details":"See {IERC20Permit-nonces}."},"onExitPool(bytes32,address,address,uint256[],uint256,uint256,bytes)":{"details":"Called by the Vault when a user calls `IVault.exitPool` to remove liquidity from this Pool. Returns how many tokens the Vault should deduct from the Pool's balances, as well as the amount of protocol fees the Pool owes to the Vault. The Vault will then take tokens from the Pool's balances and send them to `recipient`, as well as collect the reported amount in protocol fees, which the Pool should calculate based on `protocolSwapFeePercentage`. Protocol fees are charged on exit events to guarantee that users exiting the Pool have paid their share. `sender` is the account performing the exit (typically the pool shareholder), and `recipient` is the account to which the Vault will send the proceeds. `balances` contains the total token balances for each token the Pool registered in the Vault, in the same order that `IVault.getPoolTokens` would return. `lastChangeBlock` is the last block in which *any* of the Pool's registered tokens last changed its total balance. `userData` contains any pool-specific instructions needed to perform the calculations, such as the type of exit (e.g., proportional given an amount of pool shares, single-asset, multi-asset, etc.) Contracts implementing this function should check that the caller is indeed the Vault before performing any state-changing operations, such as burning pool shares."},"onJoinPool(bytes32,address,address,uint256[],uint256,uint256,bytes)":{"details":"Called by the Vault when a user calls `IVault.joinPool` to add liquidity to this Pool. Returns how many of each registered token the user should provide, as well as the amount of protocol fees the Pool owes to the Vault. The Vault will then take tokens from `sender` and add them to the Pool's balances, as well as collect the reported amount in protocol fees, which the pool should calculate based on `protocolSwapFeePercentage`. Protocol fees are reported and charged on join events so that the Pool is free of debt whenever new users join. `sender` is the account performing the join (from which tokens will be withdrawn), and `recipient` is the account designated to receive any benefits (typically pool shares). `balances` contains the total balances for each token the Pool registered in the Vault, in the same order that `IVault.getPoolTokens` would return. `lastChangeBlock` is the last block in which *any* of the Pool's registered tokens last changed its total balance. `userData` contains any pool-specific instructions needed to perform the calculations, such as the type of join (e.g., proportional given an amount of pool shares, single-asset, multi-asset, etc.) Contracts implementing this function should check that the caller is indeed the Vault before performing any state-changing operations, such as minting pool shares."},"permit(address,address,uint256,uint256,uint8,bytes32,bytes32)":{"details":"See {IERC20Permit-permit}."},"queryExit(bytes32,address,address,uint256[],uint256,uint256,bytes)":{"details":"Returns the amount of BPT that would be burned from `sender` if the `onExitPool` hook were called by the Vault with the same arguments, along with the number of tokens `recipient` would receive. This function is not meant to be called directly, but rather from a helper contract that fetches current Vault data, such as the protocol swap fee percentage and Pool balances. Like `IVault.queryBatchSwap`, this function is not view due to internal implementation details: the caller must explicitly use eth_call instead of eth_sendTransaction."},"queryJoin(bytes32,address,address,uint256[],uint256,uint256,bytes)":{"details":"Returns the amount of BPT that would be granted to `recipient` if the `onJoinPool` hook were called by the Vault with the same arguments, along with the number of tokens `sender` would have to supply. This function is not meant to be called directly, but rather from a helper contract that fetches current Vault data, such as the protocol swap fee percentage and Pool balances. Like `IVault.queryBatchSwap`, this function is not view due to internal implementation details: the caller must explicitly use eth_call instead of eth_sendTransaction."},"symbol()":{"details":"Returns the symbol of the token, usually a shorter version of the name."},"totalSupply()":{"details":"See {IERC20-totalSupply}."},"transfer(address,uint256)":{"details":"See {IERC20-transfer}. Requirements: - `recipient` cannot be the zero address. - the caller must have a balance of at least `amount`."},"transferFrom(address,address,uint256)":{"details":"Override to allow for 'infinite allowance' and let the token owner use `transferFrom` with no self-allowance"}},"version":1},"opcodes":"PUSH1 0x80 PUSH1 0x40 MSTORE CALLVALUE DUP1 ISZERO PUSH2 0x10 JUMPI PUSH1 0x0 DUP1 REVERT JUMPDEST POP PUSH1 0x4 CALLDATASIZE LT PUSH2 0x27F JUMPI PUSH1 0x0 CALLDATALOAD PUSH1 0xE0 SHR DUP1 PUSH4 0x707DCD1E GT PUSH2 0x15C JUMPI DUP1 PUSH4 0x9D2C110C GT PUSH2 0xCE JUMPI DUP1 PUSH4 0xC0FF1A15 GT PUSH2 0x87 JUMPI DUP1 PUSH4 0xC0FF1A15 EQ PUSH2 0x56A JUMPI DUP1 PUSH4 0xD505ACCF EQ PUSH2 0x572 JUMPI DUP1 PUSH4 0xD5C096C4 EQ PUSH2 0x585 JUMPI DUP1 PUSH4 0xDD62ED3E EQ PUSH2 0x598 JUMPI DUP1 PUSH4 0xF89F27ED EQ PUSH2 0x5AB JUMPI DUP1 PUSH4 0xFFD088EB EQ PUSH2 0x5B3 JUMPI PUSH2 0x27F JUMP JUMPDEST DUP1 PUSH4 0x9D2C110C EQ PUSH2 0x50E JUMPI DUP1 PUSH4 0xA457C2D7 EQ PUSH2 0x521 JUMPI DUP1 PUSH4 0xA9059CBB EQ PUSH2 0x534 JUMPI DUP1 PUSH4 0xAAABADC5 EQ PUSH2 0x547 JUMPI DUP1 PUSH4 0xB10BE739 EQ PUSH2 0x54F JUMPI DUP1 PUSH4 0xB48B5B40 EQ PUSH2 0x562 JUMPI PUSH2 0x27F JUMP JUMPDEST DUP1 PUSH4 0x87EC6817 GT PUSH2 0x120 JUMPI DUP1 PUSH4 0x87EC6817 EQ PUSH2 0x4D3 JUMPI DUP1 PUSH4 0x893D20E8 EQ PUSH2 0x4E6 JUMPI DUP1 PUSH4 0x8D928AF8 EQ PUSH2 0x4EE JUMPI DUP1 PUSH4 0x8DD9F89D EQ PUSH2 0x4F6 JUMPI DUP1 PUSH4 0x95D89B41 EQ PUSH2 0x4FE JUMPI DUP1 PUSH4 0x9B02CDDE EQ PUSH2 0x506 JUMPI PUSH2 0x27F JUMP JUMPDEST DUP1 PUSH4 0x707DCD1E EQ PUSH2 0x464 JUMPI DUP1 PUSH4 0x70A08231 EQ PUSH2 0x479 JUMPI DUP1 PUSH4 0x74F3B009 EQ PUSH2 0x48C JUMPI DUP1 PUSH4 0x7ECEBE00 EQ PUSH2 0x4AD JUMPI DUP1 PUSH4 0x851C1BB3 EQ PUSH2 0x4C0 JUMPI PUSH2 0x27F JUMP JUMPDEST DUP1 PUSH4 0x38E9922E GT PUSH2 0x1F5 JUMPI DUP1 PUSH4 0x4A6B0B15 GT PUSH2 0x1B9 JUMPI DUP1 PUSH4 0x4A6B0B15 EQ PUSH2 0x3D3 JUMPI DUP1 PUSH4 0x55C67628 EQ PUSH2 0x3ED JUMPI DUP1 PUSH4 0x6028BFD4 EQ PUSH2 0x3F5 JUMPI DUP1 PUSH4 0x60D1507C EQ PUSH2 0x416 JUMPI DUP1 PUSH4 0x679AEFCE EQ PUSH2 0x43C JUMPI DUP1 PUSH4 0x6B843239 EQ PUSH2 0x444 JUMPI PUSH2 0x27F JUMP JUMPDEST DUP1 PUSH4 0x38E9922E EQ PUSH2 0x36E JUMPI DUP1 PUSH4 0x38FFF2D0 EQ PUSH2 0x381 JUMPI DUP1 PUSH4 0x39509351 EQ PUSH2 0x389 JUMPI DUP1 PUSH4 0x3C4DD5BB EQ PUSH2 0x39C JUMPI DUP1 PUSH4 0x44BBDB55 EQ PUSH2 0x3BE JUMPI PUSH2 0x27F JUMP JUMPDEST DUP1 PUSH4 0x1DCCD830 GT PUSH2 0x247 JUMPI DUP1 PUSH4 0x1DCCD830 EQ PUSH2 0x303 JUMPI DUP1 PUSH4 0x23B872DD EQ PUSH2 0x323 JUMPI DUP1 PUSH4 0x292C914A EQ PUSH2 0x336 JUMPI DUP1 PUSH4 0x313CE567 EQ PUSH2 0x33E JUMPI DUP1 PUSH4 0x3331BC36 EQ PUSH2 0x353 JUMPI DUP1 PUSH4 0x3644E515 EQ PUSH2 0x366 JUMPI PUSH2 0x27F JUMP JUMPDEST DUP1 PUSH4 0x6FDDE03 EQ PUSH2 0x284 JUMPI DUP1 PUSH4 0x95EA7B3 EQ PUSH2 0x2A2 JUMPI DUP1 PUSH4 0x16C38B3C EQ PUSH2 0x2C2 JUMPI DUP1 PUSH4 0x18160DDD EQ PUSH2 0x2D7 JUMPI DUP1 PUSH4 0x1C0DE051 EQ PUSH2 0x2EC JUMPI JUMPDEST PUSH1 0x0 DUP1 REVERT JUMPDEST PUSH2 0x28C PUSH2 0x5BB JUMP JUMPDEST PUSH1 0x40 MLOAD PUSH2 0x299 SWAP2 SWAP1 PUSH2 0x4ABB JUMP JUMPDEST PUSH1 0x40 MLOAD DUP1 SWAP2 SUB SWAP1 RETURN JUMPDEST PUSH2 0x2B5 PUSH2 0x2B0 CALLDATASIZE PUSH1 0x4 PUSH2 0x41D2 JUMP JUMPDEST PUSH2 0x651 JUMP JUMPDEST PUSH1 0x40 MLOAD PUSH2 0x299 SWAP2 SWAP1 PUSH2 0x4910 JUMP JUMPDEST PUSH2 0x2D5 PUSH2 0x2D0 CALLDATASIZE PUSH1 0x4 PUSH2 0x4440 JUMP JUMPDEST PUSH2 0x668 JUMP JUMPDEST STOP JUMPDEST PUSH2 0x2DF PUSH2 0x67C JUMP JUMPDEST PUSH1 0x40 MLOAD PUSH2 0x299 SWAP2 SWAP1 PUSH2 0x4933 JUMP JUMPDEST PUSH2 0x2F4 PUSH2 0x682 JUMP JUMPDEST PUSH1 0x40 MLOAD PUSH2 0x299 SWAP4 SWAP3 SWAP2 SWAP1 PUSH2 0x491B JUMP JUMPDEST PUSH2 0x316 PUSH2 0x311 CALLDATASIZE PUSH1 0x4 PUSH2 0x4386 JUMP JUMPDEST PUSH2 0x6AB JUMP JUMPDEST PUSH1 0x40 MLOAD PUSH2 0x299 SWAP2 SWAP1 PUSH2 0x48D8 JUMP JUMPDEST PUSH2 0x2B5 PUSH2 0x331 CALLDATASIZE PUSH1 0x4 PUSH2 0x411D JUMP JUMPDEST PUSH2 0x7CE JUMP JUMPDEST PUSH2 0x2D5 PUSH2 0x842 JUMP JUMPDEST PUSH2 0x346 PUSH2 0x876 JUMP JUMPDEST PUSH1 0x40 MLOAD PUSH2 0x299 SWAP2 SWAP1 PUSH2 0x4B63 JUMP JUMPDEST PUSH2 0x2D5 PUSH2 0x361 CALLDATASIZE PUSH1 0x4 PUSH2 0x4779 JUMP JUMPDEST PUSH2 0x87F JUMP JUMPDEST PUSH2 0x2DF PUSH2 0x8F7 JUMP JUMPDEST PUSH2 0x2D5 PUSH2 0x37C CALLDATASIZE PUSH1 0x4 PUSH2 0x4761 JUMP JUMPDEST PUSH2 0x906 JUMP JUMPDEST PUSH2 0x2DF PUSH2 0x91F JUMP JUMPDEST PUSH2 0x2B5 PUSH2 0x397 CALLDATASIZE PUSH1 0x4 PUSH2 0x41D2 JUMP JUMPDEST PUSH2 0x943 JUMP JUMPDEST PUSH2 0x3AF PUSH2 0x3AA CALLDATASIZE PUSH1 0x4 PUSH2 0x479A JUMP JUMPDEST PUSH2 0x97E JUMP JUMPDEST PUSH1 0x40 MLOAD PUSH2 0x299 SWAP4 SWAP3 SWAP2 SWAP1 PUSH2 0x4B4D JUMP JUMPDEST PUSH2 0x3C6 PUSH2 0x9D1 JUMP JUMPDEST PUSH1 0x40 MLOAD PUSH2 0x299 SWAP2 SWAP1 PUSH2 0x484F JUMP JUMPDEST PUSH2 0x3DB PUSH2 0x9E0 JUMP JUMPDEST PUSH1 0x40 MLOAD PUSH2 0x299 SWAP7 SWAP6 SWAP5 SWAP4 SWAP3 SWAP2 SWAP1 PUSH2 0x4A09 JUMP JUMPDEST PUSH2 0x2DF PUSH2 0xA3B JUMP JUMPDEST PUSH2 0x408 PUSH2 0x403 CALLDATASIZE PUSH1 0x4 PUSH2 0x4478 JUMP JUMPDEST PUSH2 0xA48 JUMP JUMPDEST PUSH1 0x40 MLOAD PUSH2 0x299 SWAP3 SWAP2 SWAP1 PUSH2 0x4B34 JUMP JUMPDEST PUSH2 0x429 PUSH2 0x424 CALLDATASIZE PUSH1 0x4 PUSH2 0x4761 JUMP JUMPDEST PUSH2 0xA79 JUMP JUMPDEST PUSH1 0x40 MLOAD PUSH2 0x299 SWAP8 SWAP7 SWAP6 SWAP5 SWAP4 SWAP3 SWAP2 SWAP1 PUSH2 0x49D9 JUMP JUMPDEST PUSH2 0x2DF PUSH2 0xAC2 JUMP JUMPDEST PUSH2 0x457 PUSH2 0x452 CALLDATASIZE PUSH1 0x4 PUSH2 0x42C8 JUMP JUMPDEST PUSH2 0xAE7 JUMP JUMPDEST PUSH1 0x40 MLOAD PUSH2 0x299 SWAP2 SWAP1 PUSH2 0x4863 JUMP JUMPDEST PUSH2 0x46C PUSH2 0xB9D JUMP JUMPDEST PUSH1 0x40 MLOAD PUSH2 0x299 SWAP2 SWAP1 PUSH2 0x48A7 JUMP JUMPDEST PUSH2 0x2DF PUSH2 0x487 CALLDATASIZE PUSH1 0x4 PUSH2 0x40AD JUMP JUMPDEST PUSH2 0xBAD JUMP JUMPDEST PUSH2 0x49F PUSH2 0x49A CALLDATASIZE PUSH1 0x4 PUSH2 0x4478 JUMP JUMPDEST PUSH2 0xBCC JUMP JUMPDEST PUSH1 0x40 MLOAD PUSH2 0x299 SWAP3 SWAP2 SWAP1 PUSH2 0x48EB JUMP JUMPDEST PUSH2 0x2DF PUSH2 0x4BB CALLDATASIZE PUSH1 0x4 PUSH2 0x40AD JUMP JUMPDEST PUSH2 0xC71 JUMP JUMPDEST PUSH2 0x2DF PUSH2 0x4CE CALLDATASIZE PUSH1 0x4 PUSH2 0x4574 JUMP JUMPDEST PUSH2 0xC8C JUMP JUMPDEST PUSH2 0x408 PUSH2 0x4E1 CALLDATASIZE PUSH1 0x4 PUSH2 0x4478 JUMP JUMPDEST PUSH2 0xCDE JUMP JUMPDEST PUSH2 0x3C6 PUSH2 0xD03 JUMP JUMPDEST PUSH2 0x3C6 PUSH2 0xD27 JUMP JUMPDEST PUSH2 0x316 PUSH2 0xD4B JUMP JUMPDEST PUSH2 0x28C PUSH2 0xE54 JUMP JUMPDEST PUSH2 0x2DF PUSH2 0xEB5 JUMP JUMPDEST PUSH2 0x2DF PUSH2 0x51C CALLDATASIZE PUSH1 0x4 PUSH2 0x4666 JUMP JUMPDEST PUSH2 0xEBB JUMP JUMPDEST PUSH2 0x2B5 PUSH2 0x52F CALLDATASIZE PUSH1 0x4 PUSH2 0x41D2 JUMP JUMPDEST PUSH2 0x1081 JUMP JUMPDEST PUSH2 0x2B5 PUSH2 0x542 CALLDATASIZE PUSH1 0x4 PUSH2 0x41D2 JUMP JUMPDEST PUSH2 0x10BF JUMP JUMPDEST PUSH2 0x3C6 PUSH2 0x10CC JUMP JUMPDEST PUSH2 0x2DF PUSH2 0x55D CALLDATASIZE PUSH1 0x4 PUSH2 0x4633 JUMP JUMPDEST PUSH2 0x10D6 JUMP JUMPDEST PUSH2 0x2DF PUSH2 0x116B JUMP JUMPDEST PUSH2 0x2DF PUSH2 0x1171 JUMP JUMPDEST PUSH2 0x2D5 PUSH2 0x580 CALLDATASIZE PUSH1 0x4 PUSH2 0x415D JUMP JUMPDEST PUSH2 0x1244 JUMP JUMPDEST PUSH2 0x49F PUSH2 0x593 CALLDATASIZE PUSH1 0x4 PUSH2 0x4478 JUMP JUMPDEST PUSH2 0x138D JUMP JUMPDEST PUSH2 0x2DF PUSH2 0x5A6 CALLDATASIZE PUSH1 0x4 PUSH2 0x40E5 JUMP JUMPDEST PUSH2 0x14AD JUMP JUMPDEST PUSH2 0x316 PUSH2 0x14EA JUMP JUMPDEST PUSH2 0x2DF PUSH2 0x14F4 JUMP JUMPDEST PUSH1 0x3 DUP1 SLOAD PUSH1 0x40 DUP1 MLOAD PUSH1 0x20 PUSH1 0x1F PUSH1 0x2 PUSH1 0x0 NOT PUSH2 0x100 PUSH1 0x1 DUP9 AND ISZERO MUL ADD SWAP1 SWAP6 AND SWAP5 SWAP1 SWAP5 DIV SWAP4 DUP5 ADD DUP2 SWAP1 DIV DUP2 MUL DUP3 ADD DUP2 ADD SWAP1 SWAP3 MSTORE DUP3 DUP2 MSTORE PUSH1 0x60 SWAP4 SWAP1 SWAP3 SWAP1 SWAP2 DUP4 ADD DUP3 DUP3 DUP1 ISZERO PUSH2 0x647 JUMPI DUP1 PUSH1 0x1F LT PUSH2 0x61C JUMPI PUSH2 0x100 DUP1 DUP4 SLOAD DIV MUL DUP4 MSTORE SWAP2 PUSH1 0x20 ADD SWAP2 PUSH2 0x647 JUMP JUMPDEST DUP3 ADD SWAP2 SWAP1 PUSH1 0x0 MSTORE PUSH1 0x20 PUSH1 0x0 KECCAK256 SWAP1 JUMPDEST DUP2 SLOAD DUP2 MSTORE SWAP1 PUSH1 0x1 ADD SWAP1 PUSH1 0x20 ADD DUP1 DUP4 GT PUSH2 0x62A JUMPI DUP3 SWAP1 SUB PUSH1 0x1F AND DUP3 ADD SWAP2 JUMPDEST POP POP POP POP POP SWAP1 POP SWAP1 JUMP JUMPDEST PUSH1 0x0 PUSH2 0x65E CALLER DUP5 DUP5 PUSH2 0x157E JUMP JUMPDEST POP PUSH1 0x1 JUMPDEST SWAP3 SWAP2 POP POP JUMP JUMPDEST PUSH2 0x670 PUSH2 0x15E6 JUMP JUMPDEST PUSH2 0x679 DUP2 PUSH2 0x1614 JUMP JUMPDEST POP JUMP JUMPDEST PUSH1 0x2 SLOAD SWAP1 JUMP JUMPDEST PUSH1 0x0 DUP1 PUSH1 0x0 PUSH2 0x68F PUSH2 0x1692 JUMP JUMPDEST ISZERO SWAP3 POP PUSH2 0x69A PUSH2 0x16AF JUMP JUMPDEST SWAP2 POP PUSH2 0x6A4 PUSH2 0x16D3 JUMP JUMPDEST SWAP1 POP SWAP1 SWAP2 SWAP3 JUMP JUMPDEST PUSH1 0x60 DUP2 MLOAD PUSH1 0x1 PUSH1 0x1 PUSH1 0x40 SHL SUB DUP2 GT DUP1 ISZERO PUSH2 0x6C4 JUMPI PUSH1 0x0 DUP1 REVERT JUMPDEST POP PUSH1 0x40 MLOAD SWAP1 DUP1 DUP3 MSTORE DUP1 PUSH1 0x20 MUL PUSH1 0x20 ADD DUP3 ADD PUSH1 0x40 MSTORE DUP1 ISZERO PUSH2 0x6EE JUMPI DUP2 PUSH1 0x20 ADD PUSH1 0x20 DUP3 MUL DUP1 CALLDATASIZE DUP4 CALLDATACOPY ADD SWAP1 POP JUMPDEST POP SWAP1 POP PUSH1 0x0 PUSH2 0x6FB PUSH2 0x16F7 JUMP JUMPDEST SWAP1 POP PUSH1 0x0 JUMPDEST DUP4 MLOAD DUP2 LT ISZERO PUSH2 0x7C7 JUMPI PUSH20 0x0 PUSH4 0x79EAEF82 PUSH1 0x8 DUP7 DUP5 DUP2 MLOAD DUP2 LT PUSH2 0x731 JUMPI INVALID JUMPDEST PUSH1 0x20 MUL PUSH1 0x20 ADD ADD MLOAD DUP6 PUSH1 0x40 MLOAD DUP5 PUSH4 0xFFFFFFFF AND PUSH1 0xE0 SHL DUP2 MSTORE PUSH1 0x4 ADD PUSH2 0x758 SWAP4 SWAP3 SWAP2 SWAP1 PUSH2 0x4A7F JUMP JUMPDEST PUSH1 0x20 PUSH1 0x40 MLOAD DUP1 DUP4 SUB DUP2 DUP7 DUP1 EXTCODESIZE ISZERO DUP1 ISZERO PUSH2 0x770 JUMPI PUSH1 0x0 DUP1 REVERT JUMPDEST POP GAS DELEGATECALL ISZERO DUP1 ISZERO PUSH2 0x784 JUMPI RETURNDATASIZE PUSH1 0x0 DUP1 RETURNDATACOPY RETURNDATASIZE PUSH1 0x0 REVERT JUMPDEST POP POP POP POP PUSH1 0x40 MLOAD RETURNDATASIZE PUSH1 0x1F NOT PUSH1 0x1F DUP3 ADD AND DUP3 ADD DUP1 PUSH1 0x40 MSTORE POP DUP2 ADD SWAP1 PUSH2 0x7A8 SWAP2 SWAP1 PUSH2 0x464E JUMP JUMPDEST DUP4 DUP3 DUP2 MLOAD DUP2 LT PUSH2 0x7B4 JUMPI INVALID JUMPDEST PUSH1 0x20 SWAP1 DUP2 MUL SWAP2 SWAP1 SWAP2 ADD ADD MSTORE PUSH1 0x1 ADD PUSH2 0x700 JUMP JUMPDEST POP POP SWAP2 SWAP1 POP JUMP JUMPDEST PUSH1 0x0 DUP1 PUSH2 0x7DB DUP6 CALLER PUSH2 0x14AD JUMP JUMPDEST SWAP1 POP PUSH2 0x7FF CALLER PUSH1 0x1 PUSH1 0x1 PUSH1 0xA0 SHL SUB DUP8 AND EQ DUP1 PUSH2 0x7F7 JUMPI POP DUP4 DUP3 LT ISZERO JUMPDEST PUSH2 0x19E PUSH2 0x1704 JUMP JUMPDEST PUSH2 0x80A DUP6 DUP6 DUP6 PUSH2 0x1712 JUMP JUMPDEST CALLER PUSH1 0x1 PUSH1 0x1 PUSH1 0xA0 SHL SUB DUP7 AND EQ DUP1 ISZERO SWAP1 PUSH2 0x825 JUMPI POP PUSH1 0x0 NOT DUP2 EQ ISZERO JUMPDEST ISZERO PUSH2 0x837 JUMPI PUSH2 0x837 DUP6 CALLER DUP6 DUP5 SUB PUSH2 0x157E JUMP JUMPDEST POP PUSH1 0x1 SWAP5 SWAP4 POP POP POP POP JUMP JUMPDEST PUSH2 0x84A PUSH2 0x17F2 JUMP JUMPDEST PUSH2 0x852 PUSH2 0x15E6 JUMP JUMPDEST PUSH2 0x85C PUSH1 0x1 PUSH2 0x1805 JUMP JUMPDEST PUSH1 0x0 PUSH2 0x866 PUSH2 0x67C JUMP JUMPDEST GT ISZERO PUSH2 0x874 JUMPI PUSH2 0x874 PUSH2 0x1845 JUMP JUMPDEST JUMP JUMPDEST PUSH1 0x5 SLOAD PUSH1 0xFF AND SWAP1 JUMP JUMPDEST PUSH2 0x89A DUP2 DUP4 LT DUP1 ISZERO PUSH2 0x893 JUMPI POP PUSH2 0x400 DUP3 GT ISZERO JUMPDEST PUSH1 0x64 PUSH2 0x1704 JUMP JUMPDEST PUSH1 0x0 PUSH2 0x8AF PUSH1 0x1 PUSH1 0x0 DUP1 PUSH1 0x0 DUP1 PUSH1 0x0 DUP1 PUSH2 0x188D JUMP JUMPDEST SWAP1 POP DUP3 JUMPDEST DUP3 DUP2 LT ISZERO PUSH2 0x8F1 JUMPI PUSH1 0x0 DUP2 DUP2 MSTORE PUSH1 0x8 PUSH1 0x20 MSTORE PUSH1 0x40 SWAP1 KECCAK256 SLOAD PUSH2 0x8D3 SWAP1 PUSH2 0x18ED JUMP JUMPDEST PUSH2 0x8E9 JUMPI PUSH1 0x0 DUP2 DUP2 MSTORE PUSH1 0x8 PUSH1 0x20 MSTORE PUSH1 0x40 SWAP1 KECCAK256 DUP3 SWAP1 SSTORE JUMPDEST PUSH1 0x1 ADD PUSH2 0x8B3 JUMP JUMPDEST POP POP POP POP JUMP JUMPDEST PUSH1 0x0 PUSH2 0x901 PUSH2 0x18F9 JUMP JUMPDEST SWAP1 POP SWAP1 JUMP JUMPDEST PUSH2 0x90E PUSH2 0x15E6 JUMP JUMPDEST PUSH2 0x916 PUSH2 0x17F2 JUMP JUMPDEST PUSH2 0x679 DUP2 PUSH2 0x1996 JUMP JUMPDEST PUSH32 0x0 SWAP1 JUMP JUMPDEST CALLER PUSH1 0x0 DUP2 DUP2 MSTORE PUSH1 0x1 PUSH1 0x20 SWAP1 DUP2 MSTORE PUSH1 0x40 DUP1 DUP4 KECCAK256 PUSH1 0x1 PUSH1 0x1 PUSH1 0xA0 SHL SUB DUP8 AND DUP5 MSTORE SWAP1 SWAP2 MSTORE DUP2 KECCAK256 SLOAD SWAP1 SWAP2 PUSH2 0x65E SWAP2 DUP6 SWAP1 PUSH2 0x979 SWAP1 DUP7 PUSH2 0x19FF JUMP JUMPDEST PUSH2 0x157E JUMP JUMPDEST PUSH1 0x0 DUP1 PUSH1 0x0 DUP1 PUSH2 0x98D DUP6 PUSH2 0x1A11 JUMP JUMPDEST SWAP1 POP PUSH1 0x0 PUSH2 0x99B DUP7 ISZERO PUSH2 0x1A11 JUMP JUMPDEST SWAP1 POP PUSH2 0x9A7 DUP9 DUP4 PUSH2 0x1A65 JUMP JUMPDEST SWAP8 POP PUSH2 0x9B3 DUP8 DUP3 PUSH2 0x1A65 JUMP JUMPDEST SWAP7 POP PUSH2 0x9C0 DUP9 DUP9 DUP9 PUSH2 0x1A71 JUMP JUMPDEST SWAP5 POP SWAP5 POP SWAP5 POP POP POP SWAP4 POP SWAP4 POP SWAP4 SWAP1 POP JUMP JUMPDEST PUSH1 0xB SLOAD PUSH1 0x1 PUSH1 0x1 PUSH1 0xA0 SHL SUB AND DUP2 JUMP JUMPDEST PUSH1 0x0 DUP1 PUSH1 0x0 DUP1 PUSH1 0x0 DUP1 PUSH1 0x0 PUSH1 0x9 SLOAD SWAP1 POP PUSH2 0x9F9 DUP2 PUSH2 0x1B4D JUMP JUMPDEST SWAP7 POP PUSH2 0xA04 DUP2 PUSH2 0x1B59 JUMP JUMPDEST SWAP6 POP PUSH2 0xA0F DUP2 PUSH2 0x1B66 JUMP JUMPDEST SWAP5 POP PUSH2 0xA1A DUP2 PUSH2 0x1B73 JUMP JUMPDEST SWAP4 POP PUSH2 0xA25 DUP2 PUSH2 0x1B80 JUMP JUMPDEST SWAP3 POP PUSH2 0xA30 DUP2 PUSH2 0x1B8D JUMP JUMPDEST SWAP2 POP POP SWAP1 SWAP2 SWAP3 SWAP4 SWAP5 SWAP6 JUMP JUMPDEST PUSH1 0x0 PUSH2 0x901 PUSH1 0x9 SLOAD PUSH2 0x1B8D JUMP JUMPDEST PUSH1 0x0 PUSH1 0x60 PUSH2 0xA58 DUP7 MLOAD PUSH1 0x2 PUSH2 0x1B9A JUMP JUMPDEST PUSH2 0xA6D DUP10 DUP10 DUP10 DUP10 DUP10 DUP10 DUP10 PUSH2 0x1BA7 PUSH2 0x1CC7 PUSH2 0x1D45 JUMP JUMPDEST SWAP8 POP SWAP8 SWAP6 POP POP POP POP POP POP JUMP JUMPDEST PUSH1 0x0 DUP1 PUSH1 0x0 DUP1 PUSH1 0x0 DUP1 PUSH1 0x0 PUSH2 0xA94 PUSH2 0x400 DUP10 LT PUSH2 0x13B PUSH2 0x1704 JUMP JUMPDEST PUSH1 0x0 PUSH2 0xA9F DUP10 PUSH2 0x1E59 JUMP JUMPDEST SWAP1 POP PUSH2 0xAAA DUP2 PUSH2 0x1E6B JUMP JUMPDEST SWAP6 SWAP16 SWAP5 SWAP15 POP SWAP3 SWAP13 POP SWAP1 SWAP11 POP SWAP9 POP SWAP7 POP SWAP1 SWAP5 POP SWAP3 POP POP POP JUMP JUMPDEST PUSH1 0x0 PUSH2 0x901 PUSH2 0xACF PUSH2 0x67C JUMP JUMPDEST PUSH2 0xAE1 PUSH2 0xADA PUSH2 0x1171 JUMP JUMPDEST PUSH1 0x2 PUSH2 0x1ECE JUMP JUMPDEST SWAP1 PUSH2 0x1EF2 JUMP JUMPDEST PUSH1 0x60 DUP2 MLOAD PUSH1 0x1 PUSH1 0x1 PUSH1 0x40 SHL SUB DUP2 GT DUP1 ISZERO PUSH2 0xB00 JUMPI PUSH1 0x0 DUP1 REVERT JUMPDEST POP PUSH1 0x40 MLOAD SWAP1 DUP1 DUP3 MSTORE DUP1 PUSH1 0x20 MUL PUSH1 0x20 ADD DUP3 ADD PUSH1 0x40 MSTORE DUP1 ISZERO PUSH2 0xB2A JUMPI DUP2 PUSH1 0x20 ADD PUSH1 0x20 DUP3 MUL DUP1 CALLDATASIZE DUP4 CALLDATACOPY ADD SWAP1 POP JUMPDEST POP SWAP1 POP PUSH1 0x0 PUSH2 0xB37 PUSH2 0x16F7 JUMP JUMPDEST SWAP1 POP PUSH2 0xB41 PUSH2 0x3F79 JUMP JUMPDEST PUSH1 0x0 JUMPDEST DUP5 MLOAD DUP2 LT ISZERO PUSH2 0xB95 JUMPI DUP5 DUP2 DUP2 MLOAD DUP2 LT PUSH2 0xB59 JUMPI INVALID JUMPDEST PUSH1 0x20 MUL PUSH1 0x20 ADD ADD MLOAD SWAP2 POP PUSH2 0xB76 DUP3 PUSH1 0x0 ADD MLOAD DUP5 DUP5 PUSH1 0x20 ADD MLOAD PUSH2 0x1F43 JUMP JUMPDEST DUP5 DUP3 DUP2 MLOAD DUP2 LT PUSH2 0xB82 JUMPI INVALID JUMPDEST PUSH1 0x20 SWAP1 DUP2 MUL SWAP2 SWAP1 SWAP2 ADD ADD MSTORE PUSH1 0x1 ADD PUSH2 0xB44 JUMP JUMPDEST POP POP POP SWAP2 SWAP1 POP JUMP JUMPDEST PUSH2 0xBA5 PUSH2 0x3F90 JUMP JUMPDEST PUSH2 0x901 PUSH2 0x1FDC JUMP JUMPDEST PUSH1 0x1 PUSH1 0x1 PUSH1 0xA0 SHL SUB DUP2 AND PUSH1 0x0 SWAP1 DUP2 MSTORE PUSH1 0x20 DUP2 SWAP1 MSTORE PUSH1 0x40 SWAP1 KECCAK256 SLOAD JUMPDEST SWAP2 SWAP1 POP JUMP JUMPDEST PUSH1 0x60 DUP1 DUP9 PUSH2 0xBF6 PUSH2 0xBDB PUSH2 0xD27 JUMP JUMPDEST PUSH1 0x1 PUSH1 0x1 PUSH1 0xA0 SHL SUB AND CALLER PUSH1 0x1 PUSH1 0x1 PUSH1 0xA0 SHL SUB AND EQ PUSH1 0xCD PUSH2 0x1704 JUMP JUMPDEST PUSH2 0xC0B PUSH2 0xC01 PUSH2 0x91F JUMP JUMPDEST DUP3 EQ PUSH2 0x1F4 PUSH2 0x1704 JUMP JUMPDEST PUSH2 0xC14 DUP8 PUSH2 0x2002 JUMP JUMPDEST PUSH1 0x0 PUSH1 0x60 DUP1 PUSH2 0xC28 DUP14 DUP14 DUP14 DUP14 DUP14 DUP14 DUP14 PUSH2 0x1BA7 JUMP JUMPDEST SWAP3 POP SWAP3 POP SWAP3 POP PUSH2 0xC38 DUP13 DUP5 PUSH2 0x2064 JUMP JUMPDEST PUSH2 0xC41 DUP3 PUSH2 0x1CC7 JUMP JUMPDEST PUSH2 0xC4A DUP2 PUSH2 0x1CC7 JUMP JUMPDEST PUSH2 0xC52 PUSH2 0x1692 JUMP JUMPDEST ISZERO PUSH2 0xC5F JUMPI PUSH2 0xC5F PUSH2 0x1845 JUMP JUMPDEST SWAP1 SWAP13 SWAP1 SWAP12 POP SWAP10 POP POP POP POP POP POP POP POP POP POP JUMP JUMPDEST PUSH1 0x1 PUSH1 0x1 PUSH1 0xA0 SHL SUB AND PUSH1 0x0 SWAP1 DUP2 MSTORE PUSH1 0x6 PUSH1 0x20 MSTORE PUSH1 0x40 SWAP1 KECCAK256 SLOAD SWAP1 JUMP JUMPDEST PUSH1 0x0 PUSH32 0x0 DUP3 PUSH1 0x40 MLOAD PUSH1 0x20 ADD PUSH2 0xCC1 SWAP3 SWAP2 SWAP1 PUSH2 0x480C JUMP JUMPDEST PUSH1 0x40 MLOAD PUSH1 0x20 DUP2 DUP4 SUB SUB DUP2 MSTORE SWAP1 PUSH1 0x40 MSTORE DUP1 MLOAD SWAP1 PUSH1 0x20 ADD KECCAK256 SWAP1 POP SWAP2 SWAP1 POP JUMP JUMPDEST PUSH1 0x0 PUSH1 0x60 PUSH2 0xCEE DUP7 MLOAD PUSH1 0x2 PUSH2 0x1B9A JUMP JUMPDEST PUSH2 0xA6D DUP10 DUP10 DUP10 DUP10 DUP10 DUP10 DUP10 PUSH2 0x206E PUSH2 0x2125 PUSH2 0x1D45 JUMP JUMPDEST PUSH32 0x0 SWAP1 JUMP JUMPDEST PUSH32 0x0 SWAP1 JUMP JUMPDEST PUSH1 0x60 DUP1 PUSH2 0xD56 PUSH2 0xD27 JUMP JUMPDEST PUSH1 0x1 PUSH1 0x1 PUSH1 0xA0 SHL SUB AND PUSH4 0xF94D4668 PUSH2 0xD6C PUSH2 0x91F JUMP JUMPDEST PUSH1 0x40 MLOAD DUP3 PUSH4 0xFFFFFFFF AND PUSH1 0xE0 SHL DUP2 MSTORE PUSH1 0x4 ADD PUSH2 0xD88 SWAP2 SWAP1 PUSH2 0x4933 JUMP JUMPDEST PUSH1 0x0 PUSH1 0x40 MLOAD DUP1 DUP4 SUB DUP2 DUP7 DUP1 EXTCODESIZE ISZERO DUP1 ISZERO PUSH2 0xDA0 JUMPI PUSH1 0x0 DUP1 REVERT JUMPDEST POP GAS STATICCALL ISZERO DUP1 ISZERO PUSH2 0xDB4 JUMPI RETURNDATASIZE PUSH1 0x0 DUP1 RETURNDATACOPY RETURNDATASIZE PUSH1 0x0 REVERT JUMPDEST POP POP POP POP PUSH1 0x40 MLOAD RETURNDATASIZE PUSH1 0x0 DUP3 RETURNDATACOPY PUSH1 0x1F RETURNDATASIZE SWAP1 DUP2 ADD PUSH1 0x1F NOT AND DUP3 ADD PUSH1 0x40 MSTORE PUSH2 0xDDC SWAP2 SWAP1 DUP2 ADD SWAP1 PUSH2 0x41FD JUMP JUMPDEST POP SWAP2 POP POP PUSH2 0xDE9 DUP2 PUSH2 0x2002 JUMP JUMPDEST PUSH2 0xE1D DUP2 PUSH1 0x0 DUP2 MLOAD DUP2 LT PUSH2 0xDF9 JUMPI INVALID JUMPDEST PUSH1 0x20 MUL PUSH1 0x20 ADD ADD MLOAD DUP3 PUSH1 0x1 DUP2 MLOAD DUP2 LT PUSH2 0xE0E JUMPI INVALID JUMPDEST PUSH1 0x20 MUL PUSH1 0x20 ADD ADD MLOAD PUSH1 0x1 PUSH2 0x1A71 JUMP JUMPDEST SWAP1 SWAP2 POP DUP4 PUSH1 0x0 DUP2 MLOAD DUP2 LT PUSH2 0xE2D JUMPI INVALID JUMPDEST PUSH1 0x20 MUL PUSH1 0x20 ADD ADD DUP5 PUSH1 0x1 DUP2 MLOAD DUP2 LT PUSH2 0xE41 JUMPI INVALID JUMPDEST PUSH1 0x20 SWAP1 DUP2 MUL SWAP2 SWAP1 SWAP2 ADD ADD SWAP2 SWAP1 SWAP2 MSTORE MSTORE POP SWAP1 JUMP JUMPDEST PUSH1 0x4 DUP1 SLOAD PUSH1 0x40 DUP1 MLOAD PUSH1 0x20 PUSH1 0x1F PUSH1 0x2 PUSH1 0x0 NOT PUSH2 0x100 PUSH1 0x1 DUP9 AND ISZERO MUL ADD SWAP1 SWAP6 AND SWAP5 SWAP1 SWAP5 DIV SWAP4 DUP5 ADD DUP2 SWAP1 DIV DUP2 MUL DUP3 ADD DUP2 ADD SWAP1 SWAP3 MSTORE DUP3 DUP2 MSTORE PUSH1 0x60 SWAP4 SWAP1 SWAP3 SWAP1 SWAP2 DUP4 ADD DUP3 DUP3 DUP1 ISZERO PUSH2 0x647 JUMPI DUP1 PUSH1 0x1F LT PUSH2 0x61C JUMPI PUSH2 0x100 DUP1 DUP4 SLOAD DIV MUL DUP4 MSTORE SWAP2 PUSH1 0x20 ADD SWAP2 PUSH2 0x647 JUMP JUMPDEST PUSH1 0xA SLOAD SWAP1 JUMP JUMPDEST PUSH1 0x0 PUSH2 0xEC5 PUSH2 0x17F2 JUMP JUMPDEST DUP4 PUSH1 0x80 ADD MLOAD PUSH2 0xED5 PUSH2 0xBDB PUSH2 0xD27 JUMP JUMPDEST PUSH2 0xEE0 PUSH2 0xC01 PUSH2 0x91F JUMP JUMPDEST PUSH1 0x0 PUSH32 0x0 PUSH1 0x1 PUSH1 0x1 PUSH1 0xA0 SHL SUB AND DUP7 PUSH1 0x20 ADD MLOAD PUSH1 0x1 PUSH1 0x1 PUSH1 0xA0 SHL SUB AND EQ SWAP1 POP PUSH1 0x0 PUSH2 0xF28 DUP3 PUSH2 0x1A11 JUMP JUMPDEST SWAP1 POP PUSH1 0x0 PUSH2 0xF36 DUP4 ISZERO PUSH2 0x1A11 JUMP JUMPDEST SWAP1 POP PUSH2 0xF42 DUP8 DUP4 PUSH2 0x1A65 JUMP JUMPDEST SWAP7 POP PUSH2 0xF4E DUP7 DUP3 PUSH2 0x1A65 JUMP JUMPDEST SWAP6 POP PUSH1 0x0 DUP1 PUSH1 0x0 PUSH2 0xF60 DUP11 DUP11 DUP9 PUSH2 0x1A71 JUMP JUMPDEST SWAP3 POP SWAP3 POP SWAP3 POP PUSH2 0xFA7 DUP12 PUSH1 0xA0 ADD MLOAD DUP8 PUSH2 0xF79 JUMPI DUP11 PUSH2 0xF7B JUMP JUMPDEST DUP12 JUMPDEST DUP9 PUSH2 0xF86 JUMPI DUP13 PUSH2 0xF88 JUMP JUMPDEST DUP12 JUMPDEST DUP10 PUSH2 0xF93 JUMPI DUP5 PUSH2 0xF95 JUMP JUMPDEST DUP6 JUMPDEST DUP11 PUSH2 0xFA0 JUMPI DUP7 PUSH2 0xFA2 JUMP JUMPDEST DUP6 JUMPDEST PUSH2 0x2187 JUMP JUMPDEST PUSH1 0x0 DUP12 MLOAD PUSH1 0x1 DUP2 GT ISZERO PUSH2 0xFB6 JUMPI INVALID JUMPDEST EQ ISZERO PUSH2 0x1025 JUMPI PUSH1 0x0 PUSH2 0xFD4 PUSH2 0xFC9 PUSH2 0xA3B JUMP JUMPDEST PUSH1 0x60 DUP15 ADD MLOAD SWAP1 PUSH2 0x2231 JUMP JUMPDEST SWAP1 POP PUSH2 0xFF6 PUSH2 0xFF0 DUP3 DUP15 PUSH1 0x60 ADD MLOAD PUSH2 0x152C SWAP1 SWAP2 SWAP1 PUSH4 0xFFFFFFFF AND JUMP JUMPDEST DUP8 PUSH2 0x1A65 JUMP JUMPDEST PUSH1 0x60 DUP14 ADD MSTORE PUSH1 0x0 PUSH2 0x100A DUP14 DUP14 DUP14 DUP8 DUP8 PUSH2 0x2275 JUMP JUMPDEST SWAP1 POP PUSH2 0x1016 DUP2 DUP8 PUSH2 0x2294 JUMP JUMPDEST SWAP10 POP POP POP POP POP POP POP POP POP PUSH2 0x1079 JUMP JUMPDEST PUSH2 0x1033 DUP12 PUSH1 0x60 ADD MLOAD DUP6 PUSH2 0x1A65 JUMP JUMPDEST PUSH1 0x60 DUP13 ADD MSTORE PUSH1 0x0 PUSH2 0x1047 DUP13 DUP13 DUP13 DUP7 DUP7 PUSH2 0x22A0 JUMP JUMPDEST SWAP1 POP PUSH2 0x1053 DUP2 DUP8 PUSH2 0x22B3 JUMP JUMPDEST SWAP1 POP PUSH2 0x106F PUSH2 0x1068 PUSH2 0x1063 PUSH2 0xA3B JUMP JUMPDEST PUSH2 0x22BF JUMP JUMPDEST DUP3 SWAP1 PUSH2 0x22E5 JUMP JUMPDEST SWAP9 POP POP POP POP POP POP POP POP JUMPDEST POP SWAP4 SWAP3 POP POP POP JUMP JUMPDEST PUSH1 0x0 DUP1 PUSH2 0x108E CALLER DUP6 PUSH2 0x14AD JUMP JUMPDEST SWAP1 POP DUP1 DUP4 LT PUSH2 0x10A8 JUMPI PUSH2 0x10A3 CALLER DUP6 PUSH1 0x0 PUSH2 0x157E JUMP JUMPDEST PUSH2 0x10B5 JUMP JUMPDEST PUSH2 0x10B5 CALLER DUP6 DUP6 DUP5 SUB PUSH2 0x157E JUMP JUMPDEST POP PUSH1 0x1 SWAP4 SWAP3 POP POP POP JUMP JUMPDEST PUSH1 0x0 PUSH2 0x65E CALLER DUP5 DUP5 PUSH2 0x1712 JUMP JUMPDEST PUSH1 0x0 PUSH2 0x901 PUSH2 0x2327 JUMP JUMPDEST PUSH1 0x0 PUSH20 0x0 PUSH4 0x397BEE0 PUSH1 0x8 DUP5 PUSH2 0x10FD PUSH2 0x16F7 JUMP JUMPDEST PUSH1 0x40 MLOAD DUP5 PUSH4 0xFFFFFFFF AND PUSH1 0xE0 SHL DUP2 MSTORE PUSH1 0x4 ADD PUSH2 0x111B SWAP4 SWAP3 SWAP2 SWAP1 PUSH2 0x4A33 JUMP JUMPDEST PUSH1 0x20 PUSH1 0x40 MLOAD DUP1 DUP4 SUB DUP2 DUP7 DUP1 EXTCODESIZE ISZERO DUP1 ISZERO PUSH2 0x1133 JUMPI PUSH1 0x0 DUP1 REVERT JUMPDEST POP GAS DELEGATECALL ISZERO DUP1 ISZERO PUSH2 0x1147 JUMPI RETURNDATASIZE PUSH1 0x0 DUP1 RETURNDATACOPY RETURNDATASIZE PUSH1 0x0 REVERT JUMPDEST POP POP POP POP PUSH1 0x40 MLOAD RETURNDATASIZE PUSH1 0x1F NOT PUSH1 0x1F DUP3 ADD AND DUP3 ADD DUP1 PUSH1 0x40 MSTORE POP DUP2 ADD SWAP1 PUSH2 0x662 SWAP2 SWAP1 PUSH2 0x464E JUMP JUMPDEST PUSH2 0x400 SWAP1 JUMP JUMPDEST PUSH1 0x0 PUSH1 0x60 PUSH2 0x117D PUSH2 0xD27 JUMP JUMPDEST PUSH1 0x1 PUSH1 0x1 PUSH1 0xA0 SHL SUB AND PUSH4 0xF94D4668 PUSH2 0x1193 PUSH2 0x91F JUMP JUMPDEST PUSH1 0x40 MLOAD DUP3 PUSH4 0xFFFFFFFF AND PUSH1 0xE0 SHL DUP2 MSTORE PUSH1 0x4 ADD PUSH2 0x11AF SWAP2 SWAP1 PUSH2 0x4933 JUMP JUMPDEST PUSH1 0x0 PUSH1 0x40 MLOAD DUP1 DUP4 SUB DUP2 DUP7 DUP1 EXTCODESIZE ISZERO DUP1 ISZERO PUSH2 0x11C7 JUMPI PUSH1 0x0 DUP1 REVERT JUMPDEST POP GAS STATICCALL ISZERO DUP1 ISZERO PUSH2 0x11DB JUMPI RETURNDATASIZE PUSH1 0x0 DUP1 RETURNDATACOPY RETURNDATASIZE PUSH1 0x0 REVERT JUMPDEST POP POP POP POP PUSH1 0x40 MLOAD RETURNDATASIZE PUSH1 0x0 DUP3 RETURNDATACOPY PUSH1 0x1F RETURNDATASIZE SWAP1 DUP2 ADD PUSH1 0x1F NOT AND DUP3 ADD PUSH1 0x40 MSTORE PUSH2 0x1203 SWAP2 SWAP1 DUP2 ADD SWAP1 PUSH2 0x41FD JUMP JUMPDEST POP SWAP2 POP POP PUSH2 0x120F PUSH2 0x3F90 JUMP JUMPDEST PUSH2 0x1217 PUSH2 0x1FDC JUMP JUMPDEST SWAP1 POP PUSH2 0x1222 DUP3 PUSH2 0x2002 JUMP JUMPDEST PUSH2 0x123D DUP3 DUP3 PUSH1 0x0 JUMPDEST PUSH1 0x20 MUL ADD MLOAD DUP4 PUSH1 0x1 JUMPDEST PUSH1 0x20 MUL ADD MLOAD PUSH2 0x23A1 JUMP JUMPDEST SWAP3 POP POP POP SWAP1 JUMP JUMPDEST PUSH2 0x1252 DUP5 TIMESTAMP GT ISZERO PUSH1 0xD1 PUSH2 0x1704 JUMP JUMPDEST PUSH1 0x1 PUSH1 0x1 PUSH1 0xA0 SHL SUB DUP8 AND PUSH1 0x0 SWAP1 DUP2 MSTORE PUSH1 0x6 PUSH1 0x20 SWAP1 DUP2 MSTORE PUSH1 0x40 DUP1 DUP4 KECCAK256 SLOAD SWAP1 MLOAD SWAP1 SWAP3 SWAP2 PUSH2 0x12A9 SWAP2 PUSH32 0x0 SWAP2 DUP13 SWAP2 DUP13 SWAP2 DUP13 SWAP2 DUP9 SWAP2 DUP14 SWAP2 ADD PUSH2 0x495B JUMP JUMPDEST PUSH1 0x40 MLOAD PUSH1 0x20 DUP2 DUP4 SUB SUB DUP2 MSTORE SWAP1 PUSH1 0x40 MSTORE DUP1 MLOAD SWAP1 PUSH1 0x20 ADD KECCAK256 SWAP1 POP PUSH1 0x0 PUSH2 0x12CC DUP3 PUSH2 0x23D4 JUMP JUMPDEST SWAP1 POP PUSH1 0x0 PUSH1 0x1 DUP3 DUP9 DUP9 DUP9 PUSH1 0x40 MLOAD PUSH1 0x0 DUP2 MSTORE PUSH1 0x20 ADD PUSH1 0x40 MSTORE PUSH1 0x40 MLOAD PUSH2 0x12F3 SWAP5 SWAP4 SWAP3 SWAP2 SWAP1 PUSH2 0x49BB JUMP JUMPDEST PUSH1 0x20 PUSH1 0x40 MLOAD PUSH1 0x20 DUP2 SUB SWAP1 DUP1 DUP5 SUB SWAP1 DUP6 GAS STATICCALL ISZERO DUP1 ISZERO PUSH2 0x1315 JUMPI RETURNDATASIZE PUSH1 0x0 DUP1 RETURNDATACOPY RETURNDATASIZE PUSH1 0x0 REVERT JUMPDEST POP POP PUSH1 0x40 MLOAD PUSH1 0x1F NOT ADD MLOAD SWAP2 POP PUSH2 0x1357 SWAP1 POP PUSH1 0x1 PUSH1 0x1 PUSH1 0xA0 SHL SUB DUP3 AND ISZERO DUP1 ISZERO SWAP1 PUSH2 0x134F JUMPI POP DUP12 PUSH1 0x1 PUSH1 0x1 PUSH1 0xA0 SHL SUB AND DUP3 PUSH1 0x1 PUSH1 0x1 PUSH1 0xA0 SHL SUB AND EQ JUMPDEST PUSH2 0x1F8 PUSH2 0x1704 JUMP JUMPDEST PUSH1 0x1 PUSH1 0x1 PUSH1 0xA0 SHL SUB DUP12 AND PUSH1 0x0 SWAP1 DUP2 MSTORE PUSH1 0x6 PUSH1 0x20 MSTORE PUSH1 0x40 SWAP1 KECCAK256 PUSH1 0x1 DUP6 ADD SWAP1 SSTORE PUSH2 0x1380 DUP12 DUP12 DUP12 PUSH2 0x157E JUMP JUMPDEST POP POP POP POP POP POP POP POP POP POP POP JUMP JUMPDEST PUSH1 0x60 DUP1 DUP9 PUSH2 0x139C PUSH2 0xBDB PUSH2 0xD27 JUMP JUMPDEST PUSH2 0x13A7 PUSH2 0xC01 PUSH2 0x91F JUMP JUMPDEST PUSH2 0x13AF PUSH2 0x17F2 JUMP JUMPDEST PUSH1 0x0 PUSH2 0x13B9 PUSH2 0x67C JUMP JUMPDEST PUSH2 0x1429 JUMPI PUSH2 0x13C9 DUP12 DUP12 DUP12 DUP9 PUSH2 0x23F0 JUMP JUMPDEST SWAP5 POP SWAP1 POP PUSH2 0x13DE PUSH3 0xF4240 DUP3 LT ISZERO PUSH1 0xCC PUSH2 0x1704 JUMP JUMPDEST PUSH2 0x13EC PUSH1 0x0 PUSH3 0xF4240 PUSH2 0x2480 JUMP JUMPDEST PUSH2 0x13FB DUP10 PUSH3 0xF4240 DUP4 SUB PUSH2 0x2480 JUMP JUMPDEST PUSH2 0x1404 DUP5 PUSH2 0x2125 JUMP JUMPDEST PUSH1 0x40 DUP1 MLOAD PUSH1 0x2 DUP1 DUP3 MSTORE PUSH1 0x60 DUP3 ADD DUP4 MSTORE SWAP1 SWAP2 PUSH1 0x20 DUP4 ADD SWAP1 DUP1 CALLDATASIZE DUP4 CALLDATACOPY ADD SWAP1 POP POP SWAP3 POP PUSH2 0x1497 JUMP JUMPDEST PUSH2 0x1432 DUP9 PUSH2 0x2002 JUMP JUMPDEST PUSH2 0x1465 DUP8 DUP10 PUSH1 0x0 DUP2 MLOAD DUP2 LT PUSH2 0x1443 JUMPI INVALID JUMPDEST PUSH1 0x20 MUL PUSH1 0x20 ADD ADD MLOAD DUP11 PUSH1 0x1 DUP2 MLOAD DUP2 LT PUSH2 0x1458 JUMPI INVALID JUMPDEST PUSH1 0x20 MUL PUSH1 0x20 ADD ADD MLOAD PUSH2 0x248A JUMP JUMPDEST PUSH2 0x1474 DUP12 DUP12 DUP12 DUP12 DUP12 DUP12 DUP12 PUSH2 0x206E JUMP JUMPDEST SWAP1 SWAP6 POP SWAP4 POP SWAP1 POP PUSH2 0x1485 DUP10 DUP3 PUSH2 0x2480 JUMP JUMPDEST PUSH2 0x148E DUP5 PUSH2 0x2125 JUMP JUMPDEST PUSH2 0x1497 DUP4 PUSH2 0x1CC7 JUMP JUMPDEST PUSH2 0x149F PUSH2 0x1845 JUMP JUMPDEST POP POP SWAP8 POP SWAP8 SWAP6 POP POP POP POP POP POP JUMP JUMPDEST PUSH1 0x0 PUSH2 0x14B7 PUSH2 0xD27 JUMP JUMPDEST PUSH1 0x1 PUSH1 0x1 PUSH1 0xA0 SHL SUB AND DUP3 PUSH1 0x1 PUSH1 0x1 PUSH1 0xA0 SHL SUB AND EQ ISZERO PUSH2 0x14D9 JUMPI POP PUSH1 0x0 NOT PUSH2 0x662 JUMP JUMPDEST PUSH2 0x14E3 DUP4 DUP4 PUSH2 0x248F JUMP JUMPDEST SWAP1 POP PUSH2 0x662 JUMP JUMPDEST PUSH1 0x60 PUSH2 0x901 PUSH2 0x24BA JUMP JUMPDEST PUSH3 0x1DE20 SWAP1 JUMP JUMPDEST DUP1 PUSH2 0x1505 DUP2 PUSH2 0x2528 JUMP JUMPDEST POP POP JUMP JUMPDEST PUSH1 0x0 PUSH2 0x1517 DUP4 DUP4 PUSH1 0x55 PUSH2 0x1542 JUMP JUMPDEST SWAP4 SWAP3 POP POP POP JUMP JUMPDEST PUSH1 0x0 PUSH2 0x1517 DUP4 DUP4 PUSH1 0x56 PUSH2 0x1569 JUMP JUMPDEST PUSH1 0x0 PUSH2 0x153C DUP4 DUP4 GT ISZERO PUSH1 0x1 PUSH2 0x1704 JUMP JUMPDEST POP SWAP1 SUB SWAP1 JUMP JUMPDEST PUSH1 0x0 PUSH1 0x1 DUP3 SHL NOT DUP5 AND DUP3 DUP5 PUSH2 0x1558 JUMPI PUSH1 0x0 PUSH2 0x155B JUMP JUMPDEST PUSH1 0x1 JUMPDEST PUSH1 0xFF AND SWAP1 SHL OR SWAP5 SWAP4 POP POP POP POP JUMP JUMPDEST PUSH1 0x1 PUSH1 0x1 PUSH1 0x40 SHL SUB DUP2 SHL NOT SWAP3 SWAP1 SWAP3 AND SWAP2 SHL OR SWAP1 JUMP JUMPDEST PUSH1 0x1 PUSH1 0x1 PUSH1 0xA0 SHL SUB DUP1 DUP5 AND PUSH1 0x0 DUP2 DUP2 MSTORE PUSH1 0x1 PUSH1 0x20 SWAP1 DUP2 MSTORE PUSH1 0x40 DUP1 DUP4 KECCAK256 SWAP5 DUP8 AND DUP1 DUP5 MSTORE SWAP5 SWAP1 SWAP2 MSTORE SWAP1 DUP2 SWAP1 KECCAK256 DUP5 SWAP1 SSTORE MLOAD PUSH32 0x8C5BE1E5EBEC7D5BD14F71427D1E84F3DD0314C0F7B2291E5B200AC8C7C3B925 SWAP1 PUSH2 0x15D9 SWAP1 DUP6 SWAP1 PUSH2 0x4933 JUMP JUMPDEST PUSH1 0x40 MLOAD DUP1 SWAP2 SUB SWAP1 LOG3 POP POP POP JUMP JUMPDEST PUSH1 0x0 PUSH2 0x15FD PUSH1 0x0 CALLDATALOAD PUSH1 0x1 PUSH1 0x1 PUSH1 0xE0 SHL SUB NOT AND PUSH2 0xC8C JUMP JUMPDEST SWAP1 POP PUSH2 0x679 PUSH2 0x160C DUP3 CALLER PUSH2 0x25A1 JUMP JUMPDEST PUSH2 0x191 PUSH2 0x1704 JUMP JUMPDEST DUP1 ISZERO PUSH2 0x1634 JUMPI PUSH2 0x162F PUSH2 0x1625 PUSH2 0x16AF JUMP JUMPDEST TIMESTAMP LT PUSH2 0x193 PUSH2 0x1704 JUMP JUMPDEST PUSH2 0x1649 JUMP JUMPDEST PUSH2 0x1649 PUSH2 0x163F PUSH2 0x16D3 JUMP JUMPDEST TIMESTAMP LT PUSH2 0x1A9 PUSH2 0x1704 JUMP JUMPDEST PUSH1 0x7 DUP1 SLOAD PUSH1 0xFF NOT AND DUP3 ISZERO ISZERO OR SWAP1 SSTORE PUSH1 0x40 MLOAD PUSH32 0x9E3A5E37224532DEA67B89FACE185703738A228A6E8A23DEE546960180D3BE64 SWAP1 PUSH2 0x1687 SWAP1 DUP4 SWAP1 PUSH2 0x4910 JUMP JUMPDEST PUSH1 0x40 MLOAD DUP1 SWAP2 SUB SWAP1 LOG1 POP JUMP JUMPDEST PUSH1 0x0 PUSH2 0x169C PUSH2 0x16D3 JUMP JUMPDEST TIMESTAMP GT DUP1 PUSH2 0x901 JUMPI POP POP PUSH1 0x7 SLOAD PUSH1 0xFF AND ISZERO SWAP1 JUMP JUMPDEST PUSH32 0x0 SWAP1 JUMP JUMPDEST PUSH32 0x0 SWAP1 JUMP JUMPDEST PUSH1 0x0 PUSH2 0x901 PUSH1 0x9 SLOAD PUSH2 0x1B73 JUMP JUMPDEST DUP2 PUSH2 0x1505 JUMPI PUSH2 0x1505 DUP2 PUSH2 0x268A JUMP JUMPDEST PUSH2 0x1729 PUSH1 0x1 PUSH1 0x1 PUSH1 0xA0 SHL SUB DUP5 AND ISZERO ISZERO PUSH2 0x198 PUSH2 0x1704 JUMP JUMPDEST PUSH2 0x1740 PUSH1 0x1 PUSH1 0x1 PUSH1 0xA0 SHL SUB DUP4 AND ISZERO ISZERO PUSH2 0x199 PUSH2 0x1704 JUMP JUMPDEST PUSH2 0x174B DUP4 DUP4 DUP4 PUSH2 0x248A JUMP JUMPDEST PUSH1 0x1 PUSH1 0x1 PUSH1 0xA0 SHL SUB DUP4 AND PUSH1 0x0 SWAP1 DUP2 MSTORE PUSH1 0x20 DUP2 SWAP1 MSTORE PUSH1 0x40 SWAP1 KECCAK256 SLOAD PUSH2 0x1771 SWAP1 DUP3 PUSH2 0x1A0 PUSH2 0x26DD JUMP JUMPDEST PUSH1 0x1 PUSH1 0x1 PUSH1 0xA0 SHL SUB DUP1 DUP6 AND PUSH1 0x0 SWAP1 DUP2 MSTORE PUSH1 0x20 DUP2 SWAP1 MSTORE PUSH1 0x40 DUP1 DUP3 KECCAK256 SWAP4 SWAP1 SWAP4 SSTORE SWAP1 DUP5 AND DUP2 MSTORE KECCAK256 SLOAD PUSH2 0x17A0 SWAP1 DUP3 PUSH2 0x19FF JUMP JUMPDEST PUSH1 0x1 PUSH1 0x1 PUSH1 0xA0 SHL SUB DUP1 DUP5 AND PUSH1 0x0 DUP2 DUP2 MSTORE PUSH1 0x20 DUP2 SWAP1 MSTORE PUSH1 0x40 SWAP1 DUP2 SWAP1 KECCAK256 SWAP4 SWAP1 SWAP4 SSTORE SWAP2 MLOAD SWAP1 DUP6 AND SWAP1 PUSH32 0xDDF252AD1BE2C89B69C2B068FC378DAA952BA7F163C4A11628F55A4DF523B3EF SWAP1 PUSH2 0x15D9 SWAP1 DUP6 SWAP1 PUSH2 0x4933 JUMP JUMPDEST PUSH2 0x874 PUSH2 0x17FD PUSH2 0x1692 JUMP JUMPDEST PUSH2 0x192 PUSH2 0x1704 JUMP JUMPDEST PUSH1 0x9 SLOAD PUSH2 0x1812 SWAP1 DUP3 PUSH2 0x1509 JUMP JUMPDEST PUSH1 0x9 SSTORE PUSH1 0x40 MLOAD PUSH32 0x3E350B41E86A8E10F804ADE6D35340D620BE35569CC75AC943E8BB14AB80EAD1 SWAP1 PUSH2 0x1687 SWAP1 DUP4 SWAP1 PUSH2 0x4910 JUMP JUMPDEST PUSH1 0x9 SLOAD PUSH2 0x1851 DUP2 PUSH2 0x1B80 JUMP JUMPDEST ISZERO PUSH2 0x679 JUMPI PUSH2 0x186B PUSH2 0x1864 PUSH1 0xA SLOAD PUSH2 0x26F3 JUMP JUMPDEST DUP3 SWAP1 PUSH2 0x2733 JUMP JUMPDEST SWAP1 POP PUSH2 0x1887 PUSH2 0x1880 PUSH2 0x187B PUSH2 0x67C JUMP JUMPDEST PUSH2 0x26F3 JUMP JUMPDEST DUP3 SWAP1 PUSH2 0x2740 JUMP JUMPDEST PUSH1 0x9 SSTORE POP JUMP JUMPDEST PUSH1 0x0 PUSH2 0x1899 DUP3 DUP3 PUSH2 0x274E JUMP JUMPDEST PUSH2 0x18A4 DUP5 PUSH1 0x1F PUSH2 0x2752 JUMP JUMPDEST PUSH2 0x18AF DUP7 PUSH1 0x54 PUSH2 0x2763 JUMP JUMPDEST PUSH2 0x18BA DUP9 PUSH1 0x6A PUSH2 0x2752 JUMP JUMPDEST PUSH2 0x18C5 DUP11 PUSH1 0x9F PUSH2 0x2763 JUMP JUMPDEST PUSH2 0x18D0 DUP13 PUSH1 0xB5 PUSH2 0x2752 JUMP JUMPDEST PUSH2 0x18DB DUP15 PUSH1 0xEA PUSH2 0x2763 JUMP JUMPDEST OR OR OR OR OR OR SWAP9 SWAP8 POP POP POP POP POP POP POP POP JUMP JUMPDEST PUSH1 0x0 PUSH2 0x662 DUP3 DUP3 PUSH2 0x2770 JUMP JUMPDEST PUSH1 0x0 PUSH32 0x0 PUSH32 0x0 PUSH32 0x0 PUSH2 0x1966 PUSH2 0x277A JUMP JUMPDEST ADDRESS PUSH1 0x40 MLOAD PUSH1 0x20 ADD PUSH2 0x197B SWAP6 SWAP5 SWAP4 SWAP3 SWAP2 SWAP1 PUSH2 0x498F JUMP JUMPDEST PUSH1 0x40 MLOAD PUSH1 0x20 DUP2 DUP4 SUB SUB DUP2 MSTORE SWAP1 PUSH1 0x40 MSTORE DUP1 MLOAD SWAP1 PUSH1 0x20 ADD KECCAK256 SWAP1 POP SWAP1 JUMP JUMPDEST PUSH2 0x19A9 PUSH5 0xE8D4A51000 DUP3 LT ISZERO PUSH1 0xCB PUSH2 0x1704 JUMP JUMPDEST PUSH2 0x19BF PUSH8 0x16345785D8A0000 DUP3 GT ISZERO PUSH1 0xCA PUSH2 0x1704 JUMP JUMPDEST PUSH1 0x9 SLOAD PUSH2 0x19CC SWAP1 DUP3 PUSH2 0x151E JUMP JUMPDEST PUSH1 0x9 SSTORE PUSH1 0x40 MLOAD PUSH32 0xA9BA3FFE0B6C366B81232CAAB38605A0699AD5398D6CCE76F91EE809E322DAFC SWAP1 PUSH2 0x1687 SWAP1 DUP4 SWAP1 PUSH2 0x4933 JUMP JUMPDEST PUSH1 0x0 DUP3 DUP3 ADD PUSH2 0x1517 DUP5 DUP3 LT ISZERO DUP4 PUSH2 0x1704 JUMP JUMPDEST PUSH1 0x0 DUP2 PUSH2 0x1A3E JUMPI PUSH32 0x0 PUSH2 0x662 JUMP JUMPDEST POP PUSH32 0x0 SWAP2 SWAP1 POP JUMP JUMPDEST PUSH1 0x0 PUSH2 0x1517 DUP4 DUP4 PUSH2 0x1ECE JUMP JUMPDEST PUSH1 0x40 DUP1 MLOAD PUSH1 0x2 DUP1 DUP3 MSTORE PUSH1 0x60 DUP1 DUP4 ADD DUP5 MSTORE PUSH1 0x0 SWAP4 DUP5 SWAP4 DUP5 SWAP4 SWAP1 SWAP2 PUSH1 0x20 DUP4 ADD SWAP1 DUP1 CALLDATASIZE DUP4 CALLDATACOPY ADD SWAP1 POP POP SWAP1 POP DUP5 PUSH2 0x1AA4 JUMPI DUP6 PUSH2 0x1AA6 JUMP JUMPDEST DUP7 JUMPDEST DUP2 PUSH1 0x0 DUP2 MLOAD DUP2 LT PUSH2 0x1AB3 JUMPI INVALID JUMPDEST PUSH1 0x20 MUL PUSH1 0x20 ADD ADD DUP2 DUP2 MSTORE POP POP DUP5 PUSH2 0x1ACA JUMPI DUP7 PUSH2 0x1ACC JUMP JUMPDEST DUP6 JUMPDEST DUP2 PUSH1 0x1 DUP2 MLOAD DUP2 LT PUSH2 0x1AD9 JUMPI INVALID JUMPDEST PUSH1 0x20 MUL PUSH1 0x20 ADD ADD DUP2 DUP2 MSTORE POP POP PUSH2 0x1AED PUSH2 0x3F90 JUMP JUMPDEST PUSH2 0x1AF5 PUSH2 0x1FDC JUMP JUMPDEST SWAP1 POP PUSH2 0x1B03 DUP3 DUP3 PUSH1 0x0 PUSH2 0x122A JUMP JUMPDEST SWAP5 POP PUSH2 0x1B0D PUSH2 0x3F90 JUMP JUMPDEST PUSH2 0x1B17 DUP3 DUP8 PUSH2 0x277E JUMP JUMPDEST SWAP1 POP DUP7 PUSH2 0x1B28 JUMPI PUSH1 0x20 DUP2 ADD MLOAD PUSH2 0x1B2B JUMP JUMPDEST DUP1 MLOAD JUMPDEST SWAP5 POP DUP7 PUSH2 0x1B39 JUMPI DUP1 MLOAD PUSH2 0x1B3F JUMP JUMPDEST PUSH1 0x20 DUP2 ADD MLOAD JUMPDEST SWAP4 POP POP POP POP SWAP4 POP SWAP4 POP SWAP4 SWAP1 POP JUMP JUMPDEST PUSH1 0x0 PUSH2 0x662 DUP3 DUP3 PUSH2 0x27B2 JUMP JUMPDEST PUSH1 0x0 PUSH2 0x662 DUP3 PUSH1 0x16 PUSH2 0x27B2 JUMP JUMPDEST PUSH1 0x0 PUSH2 0x662 DUP3 PUSH1 0x2C PUSH2 0x2770 JUMP JUMPDEST PUSH1 0x0 PUSH2 0x662 DUP3 PUSH1 0x4B PUSH2 0x27D9 JUMP JUMPDEST PUSH1 0x0 PUSH2 0x662 DUP3 PUSH1 0x55 PUSH2 0x27E1 JUMP JUMPDEST PUSH1 0x0 PUSH2 0x662 DUP3 PUSH1 0x56 PUSH2 0x27EB JUMP JUMPDEST PUSH2 0x1505 DUP2 DUP4 EQ PUSH1 0x67 PUSH2 0x1704 JUMP JUMPDEST PUSH1 0x0 PUSH1 0x60 DUP1 PUSH2 0x1BB4 PUSH2 0x3F90 JUMP JUMPDEST PUSH2 0x1BBC PUSH2 0x1FDC JUMP JUMPDEST SWAP1 POP PUSH2 0x1BC6 PUSH2 0x1692 JUMP JUMPDEST ISZERO PUSH2 0x1C7B JUMPI PUSH1 0x0 PUSH2 0x1BE1 DUP10 DUP4 DUP4 JUMPDEST PUSH1 0x20 MUL ADD MLOAD DUP5 PUSH1 0x1 PUSH2 0x1233 JUMP JUMPDEST SWAP1 POP PUSH2 0x1BEB PUSH2 0x3F90 JUMP JUMPDEST PUSH2 0x1BF5 DUP4 DUP4 PUSH2 0x277E JUMP JUMPDEST SWAP1 POP PUSH2 0x1C44 DUP10 DUP12 PUSH1 0x0 DUP2 MLOAD DUP2 LT PUSH2 0x1C08 JUMPI INVALID JUMPDEST PUSH1 0x20 MUL PUSH1 0x20 ADD ADD MLOAD DUP13 PUSH1 0x1 DUP2 MLOAD DUP2 LT PUSH2 0x1C1D JUMPI INVALID JUMPDEST PUSH1 0x20 MUL PUSH1 0x20 ADD ADD MLOAD DUP5 PUSH1 0x0 PUSH1 0x2 DUP2 LT PUSH2 0x1C32 JUMPI INVALID JUMPDEST PUSH1 0x20 MUL ADD MLOAD DUP6 PUSH1 0x1 PUSH1 0x20 MUL ADD MLOAD PUSH2 0x2187 JUMP JUMPDEST PUSH2 0x1C4D DUP3 PUSH2 0x27F8 JUMP JUMPDEST PUSH2 0x1C57 DUP11 DUP9 PUSH2 0x2825 JUMP JUMPDEST SWAP1 SWAP7 POP SWAP5 POP PUSH2 0x1C70 DUP3 DUP8 PUSH2 0x1C69 PUSH2 0x67C JUMP JUMPDEST PUSH1 0x0 PUSH2 0x2871 JUMP JUMPDEST PUSH1 0xA SSTORE POP PUSH2 0x1C91 SWAP1 POP JUMP JUMPDEST PUSH2 0x1C85 DUP9 DUP7 PUSH2 0x2825 JUMP JUMPDEST PUSH1 0x0 NOT PUSH1 0xA SSTORE SWAP1 SWAP5 POP SWAP3 POP JUMPDEST PUSH1 0x40 DUP1 MLOAD PUSH1 0x2 DUP1 DUP3 MSTORE PUSH1 0x60 DUP3 ADD DUP4 MSTORE DUP7 SWAP3 DUP7 SWAP3 SWAP2 SWAP1 PUSH1 0x20 DUP4 ADD SWAP1 DUP1 CALLDATASIZE DUP4 CALLDATACOPY ADD SWAP1 POP POP SWAP4 POP SWAP4 POP SWAP4 POP POP SWAP8 POP SWAP8 POP SWAP8 SWAP5 POP POP POP POP POP JUMP JUMPDEST PUSH2 0x1CEE DUP2 PUSH1 0x0 DUP2 MLOAD DUP2 LT PUSH2 0x1CD7 JUMPI INVALID JUMPDEST PUSH1 0x20 MUL PUSH1 0x20 ADD ADD MLOAD PUSH2 0x1CE9 PUSH1 0x1 PUSH2 0x1A11 JUMP JUMPDEST PUSH2 0x28C9 JUMP JUMPDEST DUP2 PUSH1 0x0 DUP2 MLOAD DUP2 LT PUSH2 0x1CFB JUMPI INVALID JUMPDEST PUSH1 0x20 MUL PUSH1 0x20 ADD ADD DUP2 DUP2 MSTORE POP POP PUSH2 0x1D29 DUP2 PUSH1 0x1 DUP2 MLOAD DUP2 LT PUSH2 0x1D17 JUMPI INVALID JUMPDEST PUSH1 0x20 MUL PUSH1 0x20 ADD ADD MLOAD PUSH2 0x1CE9 PUSH1 0x0 PUSH2 0x1A11 JUMP JUMPDEST DUP2 PUSH1 0x1 DUP2 MLOAD DUP2 LT PUSH2 0x1D36 JUMPI INVALID JUMPDEST PUSH1 0x20 MUL PUSH1 0x20 ADD ADD DUP2 DUP2 MSTORE POP POP POP JUMP JUMPDEST CALLER ADDRESS EQ PUSH2 0x1E03 JUMPI PUSH1 0x0 ADDRESS PUSH1 0x1 PUSH1 0x1 PUSH1 0xA0 SHL SUB AND PUSH1 0x0 CALLDATASIZE PUSH1 0x40 MLOAD PUSH2 0x1D69 SWAP3 SWAP2 SWAP1 PUSH2 0x4824 JUMP JUMPDEST PUSH1 0x0 PUSH1 0x40 MLOAD DUP1 DUP4 SUB DUP2 PUSH1 0x0 DUP7 GAS CALL SWAP2 POP POP RETURNDATASIZE DUP1 PUSH1 0x0 DUP2 EQ PUSH2 0x1DA6 JUMPI PUSH1 0x40 MLOAD SWAP2 POP PUSH1 0x1F NOT PUSH1 0x3F RETURNDATASIZE ADD AND DUP3 ADD PUSH1 0x40 MSTORE RETURNDATASIZE DUP3 MSTORE RETURNDATASIZE PUSH1 0x0 PUSH1 0x20 DUP5 ADD RETURNDATACOPY PUSH2 0x1DAB JUMP JUMPDEST PUSH1 0x60 SWAP2 POP JUMPDEST POP POP SWAP1 POP DUP1 PUSH1 0x0 DUP2 EQ PUSH2 0x1DBA JUMPI INVALID JUMPDEST PUSH1 0x4 PUSH1 0x0 DUP1 RETURNDATACOPY PUSH1 0x0 MLOAD PUSH1 0x1 PUSH1 0x1 PUSH1 0xE0 SHL SUB NOT AND PUSH4 0x43ADBAFB PUSH1 0xE0 SHL DUP2 EQ PUSH2 0x1DE5 JUMPI RETURNDATASIZE PUSH1 0x0 DUP1 RETURNDATACOPY RETURNDATASIZE PUSH1 0x0 REVERT JUMPDEST POP PUSH1 0x20 PUSH1 0x4 PUSH1 0x0 RETURNDATACOPY PUSH1 0x40 PUSH1 0x20 MSTORE PUSH1 0x24 RETURNDATASIZE SUB PUSH1 0x24 PUSH1 0x40 RETURNDATACOPY PUSH1 0x1C RETURNDATASIZE ADD PUSH1 0x0 RETURN JUMPDEST PUSH2 0x1E0C DUP7 PUSH2 0x2002 JUMP JUMPDEST PUSH1 0x0 PUSH1 0x60 PUSH2 0x1E23 DUP12 DUP12 DUP12 DUP12 DUP12 DUP12 DUP12 DUP12 PUSH4 0xFFFFFFFF AND JUMP JUMPDEST POP SWAP2 POP SWAP2 POP PUSH2 0x1E35 DUP2 DUP5 PUSH4 0xFFFFFFFF AND JUMP JUMPDEST DUP1 MLOAD PUSH1 0x1F NOT DUP3 ADD DUP4 SWAP1 MSTORE PUSH4 0x43ADBAFB PUSH1 0x3F NOT DUP4 ADD MSTORE PUSH1 0x20 MUL PUSH1 0x23 NOT DUP3 ADD PUSH1 0x44 DUP3 ADD DUP2 REVERT JUMPDEST PUSH1 0x0 SWAP1 DUP2 MSTORE PUSH1 0x8 PUSH1 0x20 MSTORE PUSH1 0x40 SWAP1 KECCAK256 SLOAD SWAP1 JUMP JUMPDEST PUSH1 0x0 DUP1 PUSH1 0x0 DUP1 PUSH1 0x0 DUP1 PUSH1 0x0 PUSH2 0x1E7F DUP9 PUSH2 0x28E9 JUMP JUMPDEST SWAP7 POP PUSH2 0x1E8A DUP9 PUSH2 0x28F6 JUMP JUMPDEST SWAP6 POP PUSH2 0x1E95 DUP9 PUSH2 0x2903 JUMP JUMPDEST SWAP5 POP PUSH2 0x1EA0 DUP9 PUSH2 0x2910 JUMP JUMPDEST SWAP4 POP PUSH2 0x1EAB DUP9 PUSH2 0x291D JUMP JUMPDEST SWAP3 POP PUSH2 0x1EB6 DUP9 PUSH2 0x292A JUMP JUMPDEST SWAP2 POP PUSH2 0x1EC1 DUP9 PUSH2 0x18ED JUMP JUMPDEST SWAP1 POP SWAP2 SWAP4 SWAP6 SWAP8 SWAP1 SWAP3 SWAP5 SWAP7 POP JUMP JUMPDEST PUSH1 0x0 DUP3 DUP3 MUL PUSH2 0x1517 DUP5 ISZERO DUP1 PUSH2 0x1EEB JUMPI POP DUP4 DUP6 DUP4 DUP2 PUSH2 0x1EE8 JUMPI INVALID JUMPDEST DIV EQ JUMPDEST PUSH1 0x3 PUSH2 0x1704 JUMP JUMPDEST PUSH1 0x0 PUSH2 0x1F01 DUP3 ISZERO ISZERO PUSH1 0x4 PUSH2 0x1704 JUMP JUMPDEST DUP3 PUSH2 0x1F0E JUMPI POP PUSH1 0x0 PUSH2 0x662 JUMP JUMPDEST PUSH8 0xDE0B6B3A7640000 DUP4 DUP2 MUL SWAP1 PUSH2 0x1F31 SWAP1 DUP6 DUP4 DUP2 PUSH2 0x1F28 JUMPI INVALID JUMPDEST DIV EQ PUSH1 0x5 PUSH2 0x1704 JUMP JUMPDEST DUP3 DUP2 DUP2 PUSH2 0x1F3A JUMPI INVALID JUMPDEST DIV SWAP2 POP POP PUSH2 0x662 JUMP JUMPDEST PUSH1 0x40 MLOAD PUSH4 0x34171A85 PUSH1 0xE0 SHL DUP2 MSTORE PUSH1 0x0 SWAP1 PUSH20 0x0 SWAP1 PUSH4 0x34171A85 SWAP1 PUSH2 0x1F84 SWAP1 PUSH1 0x8 SWAP1 DUP9 SWAP1 DUP9 SWAP1 DUP9 SWAP1 PUSH1 0x4 ADD PUSH2 0x4A54 JUMP JUMPDEST PUSH1 0x20 PUSH1 0x40 MLOAD DUP1 DUP4 SUB DUP2 DUP7 DUP1 EXTCODESIZE ISZERO DUP1 ISZERO PUSH2 0x1F9C JUMPI PUSH1 0x0 DUP1 REVERT JUMPDEST POP GAS DELEGATECALL ISZERO DUP1 ISZERO PUSH2 0x1FB0 JUMPI RETURNDATASIZE PUSH1 0x0 DUP1 RETURNDATACOPY RETURNDATASIZE PUSH1 0x0 REVERT JUMPDEST POP POP POP POP PUSH1 0x40 MLOAD RETURNDATASIZE PUSH1 0x1F NOT PUSH1 0x1F DUP3 ADD AND DUP3 ADD DUP1 PUSH1 0x40 MSTORE POP DUP2 ADD SWAP1 PUSH2 0x1FD4 SWAP2 SWAP1 PUSH2 0x464E JUMP JUMPDEST SWAP5 SWAP4 POP POP POP POP JUMP JUMPDEST PUSH2 0x1FE4 PUSH2 0x3F90 JUMP JUMPDEST PUSH2 0x1FEE PUSH1 0x1 PUSH2 0x2937 JUMP JUMPDEST DUP2 MSTORE PUSH2 0x1FFA PUSH1 0x0 PUSH2 0x2937 JUMP JUMPDEST PUSH1 0x20 DUP3 ADD MSTORE SWAP1 JUMP JUMPDEST PUSH2 0x2029 DUP2 PUSH1 0x0 DUP2 MLOAD DUP2 LT PUSH2 0x2012 JUMPI INVALID JUMPDEST PUSH1 0x20 MUL PUSH1 0x20 ADD ADD MLOAD PUSH2 0x2024 PUSH1 0x1 PUSH2 0x1A11 JUMP JUMPDEST PUSH2 0x1ECE JUMP JUMPDEST DUP2 PUSH1 0x0 DUP2 MLOAD DUP2 LT PUSH2 0x2036 JUMPI INVALID JUMPDEST PUSH1 0x20 MUL PUSH1 0x20 ADD ADD DUP2 DUP2 MSTORE POP POP PUSH2 0x1D29 DUP2 PUSH1 0x1 DUP2 MLOAD DUP2 LT PUSH2 0x2052 JUMPI INVALID JUMPDEST PUSH1 0x20 MUL PUSH1 0x20 ADD ADD MLOAD PUSH2 0x2024 PUSH1 0x0 PUSH2 0x1A11 JUMP JUMPDEST PUSH2 0x1505 DUP3 DUP3 PUSH2 0x298B JUMP JUMPDEST PUSH1 0x0 PUSH1 0x60 DUP1 PUSH2 0x207B PUSH2 0x3F90 JUMP JUMPDEST PUSH2 0x2083 PUSH2 0x1FDC JUMP JUMPDEST SWAP1 POP PUSH1 0x0 PUSH2 0x2092 DUP10 DUP4 DUP4 PUSH2 0x1BD4 JUMP JUMPDEST SWAP1 POP PUSH2 0x209C PUSH2 0x3F90 JUMP JUMPDEST PUSH2 0x20A6 DUP4 DUP4 PUSH2 0x277E JUMP JUMPDEST SWAP1 POP PUSH2 0x20B9 DUP10 DUP12 PUSH1 0x0 DUP2 MLOAD DUP2 LT PUSH2 0x1C08 JUMPI INVALID JUMPDEST PUSH2 0x20C2 DUP3 PUSH2 0x27F8 JUMP JUMPDEST PUSH1 0x0 PUSH1 0x60 PUSH2 0x20D0 DUP13 DUP11 PUSH2 0x2A47 JUMP JUMPDEST SWAP2 POP SWAP2 POP PUSH2 0x20E8 DUP5 DUP4 PUSH2 0x20E1 PUSH2 0x67C JUMP JUMPDEST PUSH1 0x1 PUSH2 0x2871 JUMP JUMPDEST PUSH1 0xA SSTORE PUSH1 0x40 DUP1 MLOAD PUSH1 0x2 DUP1 DUP3 MSTORE PUSH1 0x60 DUP3 ADD DUP4 MSTORE DUP5 SWAP3 DUP5 SWAP3 SWAP2 SWAP1 PUSH1 0x20 DUP4 ADD SWAP1 DUP1 CALLDATASIZE DUP4 CALLDATACOPY ADD SWAP1 POP POP SWAP8 POP SWAP8 POP SWAP8 POP POP POP POP POP POP SWAP8 POP SWAP8 POP SWAP8 SWAP5 POP POP POP POP POP JUMP JUMPDEST PUSH2 0x214C DUP2 PUSH1 0x0 DUP2 MLOAD DUP2 LT PUSH2 0x2135 JUMPI INVALID JUMPDEST PUSH1 0x20 MUL PUSH1 0x20 ADD ADD MLOAD PUSH2 0x2147 PUSH1 0x1 PUSH2 0x1A11 JUMP JUMPDEST PUSH2 0x2A81 JUMP JUMPDEST DUP2 PUSH1 0x0 DUP2 MLOAD DUP2 LT PUSH2 0x2159 JUMPI INVALID JUMPDEST PUSH1 0x20 MUL PUSH1 0x20 ADD ADD DUP2 DUP2 MSTORE POP POP PUSH2 0x1D29 DUP2 PUSH1 0x1 DUP2 MLOAD DUP2 LT PUSH2 0x2175 JUMPI INVALID JUMPDEST PUSH1 0x20 MUL PUSH1 0x20 ADD ADD MLOAD PUSH2 0x2147 PUSH1 0x0 PUSH2 0x1A11 JUMP JUMPDEST PUSH1 0x9 SLOAD PUSH2 0x2193 DUP2 PUSH2 0x1B80 JUMP JUMPDEST DUP1 ISZERO PUSH2 0x219E JUMPI POP DUP6 NUMBER GT JUMPDEST ISZERO PUSH2 0x2229 JUMPI PUSH1 0x0 PUSH2 0x21B1 DUP7 DUP6 DUP8 DUP7 PUSH2 0x2AB4 JUMP JUMPDEST SWAP1 POP PUSH1 0x0 PUSH2 0x21CA DUP8 DUP7 DUP9 DUP8 PUSH2 0x21C5 DUP9 PUSH2 0x1B59 JUMP JUMPDEST PUSH2 0x2ACE JUMP JUMPDEST SWAP1 POP PUSH1 0x0 PUSH2 0x21D7 DUP5 PUSH2 0x1B73 JUMP JUMPDEST SWAP1 POP PUSH1 0x0 PUSH2 0x21E4 DUP6 PUSH2 0x1B66 JUMP JUMPDEST SWAP1 POP PUSH1 0x0 PUSH2 0x21FD DUP3 DUP5 DUP8 DUP8 PUSH2 0x21F8 DUP12 PUSH2 0x1B4D JUMP JUMPDEST PUSH2 0x2B12 JUMP JUMPDEST SWAP1 POP DUP1 DUP4 EQ PUSH2 0x1380 JUMPI PUSH2 0x2210 DUP7 DUP3 PUSH2 0x2B69 JUMP JUMPDEST SWAP6 POP PUSH2 0x221C DUP7 TIMESTAMP PUSH2 0x2B77 JUMP JUMPDEST PUSH1 0x9 DUP2 SWAP1 SSTORE SWAP6 POP POP POP POP POP POP JUMPDEST POP POP POP POP POP POP JUMP JUMPDEST PUSH1 0x0 DUP3 DUP3 MUL PUSH2 0x224B DUP5 ISZERO DUP1 PUSH2 0x1EEB JUMPI POP DUP4 DUP6 DUP4 DUP2 PUSH2 0x1EE8 JUMPI INVALID JUMPDEST DUP1 PUSH2 0x225A JUMPI PUSH1 0x0 SWAP2 POP POP PUSH2 0x662 JUMP JUMPDEST PUSH8 0xDE0B6B3A7640000 PUSH1 0x0 NOT DUP3 ADD JUMPDEST DIV PUSH1 0x1 ADD SWAP2 POP POP PUSH2 0x662 JUMP JUMPDEST PUSH1 0x0 PUSH2 0x2288 DUP6 DUP6 DUP9 PUSH1 0x60 ADD MLOAD DUP7 DUP7 PUSH2 0x2B85 JUMP JUMPDEST SWAP1 POP JUMPDEST SWAP6 SWAP5 POP POP POP POP POP JUMP JUMPDEST PUSH1 0x0 PUSH2 0x1517 DUP4 DUP4 PUSH2 0x28C9 JUMP JUMPDEST PUSH1 0x0 PUSH2 0x2288 DUP6 DUP6 DUP9 PUSH1 0x60 ADD MLOAD DUP7 DUP7 PUSH2 0x2C29 JUMP JUMPDEST PUSH1 0x0 PUSH2 0x1517 DUP4 DUP4 PUSH2 0x2A81 JUMP JUMPDEST PUSH1 0x0 PUSH8 0xDE0B6B3A7640000 DUP3 LT PUSH2 0x22D7 JUMPI PUSH1 0x0 PUSH2 0x662 JUMP JUMPDEST POP PUSH8 0xDE0B6B3A7640000 SUB SWAP1 JUMP JUMPDEST PUSH1 0x0 PUSH2 0x22F4 DUP3 ISZERO ISZERO PUSH1 0x4 PUSH2 0x1704 JUMP JUMPDEST DUP3 PUSH2 0x2301 JUMPI POP PUSH1 0x0 PUSH2 0x662 JUMP JUMPDEST PUSH8 0xDE0B6B3A7640000 DUP4 DUP2 MUL SWAP1 PUSH2 0x231B SWAP1 DUP6 DUP4 DUP2 PUSH2 0x1F28 JUMPI INVALID JUMPDEST DUP3 PUSH1 0x1 DUP3 SUB DUP2 PUSH2 0x2269 JUMPI INVALID JUMPDEST PUSH1 0x0 PUSH2 0x2331 PUSH2 0xD27 JUMP JUMPDEST PUSH1 0x1 PUSH1 0x1 PUSH1 0xA0 SHL SUB AND PUSH4 0xAAABADC5 PUSH1 0x40 MLOAD DUP2 PUSH4 0xFFFFFFFF AND PUSH1 0xE0 SHL DUP2 MSTORE PUSH1 0x4 ADD PUSH1 0x20 PUSH1 0x40 MLOAD DUP1 DUP4 SUB DUP2 DUP7 DUP1 EXTCODESIZE ISZERO DUP1 ISZERO PUSH2 0x2369 JUMPI PUSH1 0x0 DUP1 REVERT JUMPDEST POP GAS STATICCALL ISZERO DUP1 ISZERO PUSH2 0x237D JUMPI RETURNDATASIZE PUSH1 0x0 DUP1 RETURNDATACOPY RETURNDATASIZE PUSH1 0x0 REVERT JUMPDEST POP POP POP POP PUSH1 0x40 MLOAD RETURNDATASIZE PUSH1 0x1F NOT PUSH1 0x1F DUP3 ADD AND DUP3 ADD DUP1 PUSH1 0x40 MSTORE POP DUP2 ADD SWAP1 PUSH2 0x901 SWAP2 SWAP1 PUSH2 0x40C9 JUMP JUMPDEST PUSH1 0x0 DUP1 PUSH1 0x0 DUP1 PUSH1 0x0 PUSH2 0x23B4 DUP9 DUP9 DUP9 PUSH2 0x2CC8 JUMP JUMPDEST SWAP4 POP SWAP4 POP SWAP4 POP SWAP4 POP PUSH2 0x23C8 DUP5 DUP5 DUP5 DUP5 PUSH2 0x2E42 JUMP JUMPDEST SWAP9 SWAP8 POP POP POP POP POP POP POP POP JUMP JUMPDEST PUSH1 0x0 PUSH2 0x23DE PUSH2 0x18F9 JUMP JUMPDEST DUP3 PUSH1 0x40 MLOAD PUSH1 0x20 ADD PUSH2 0xCC1 SWAP3 SWAP2 SWAP1 PUSH2 0x4834 JUMP JUMPDEST PUSH1 0x0 PUSH1 0x60 PUSH1 0x0 PUSH2 0x23FF DUP5 PUSH2 0x2EB6 JUMP JUMPDEST SWAP1 POP PUSH2 0x241A PUSH1 0x0 DUP3 PUSH1 0x3 DUP2 GT ISZERO PUSH2 0x2412 JUMPI INVALID JUMPDEST EQ PUSH1 0xCE PUSH2 0x1704 JUMP JUMPDEST PUSH1 0x60 PUSH2 0x2425 DUP6 PUSH2 0x2ECC JUMP JUMPDEST SWAP1 POP PUSH2 0x2433 DUP2 MLOAD PUSH1 0x2 PUSH2 0x1B9A JUMP JUMPDEST PUSH2 0x243C DUP2 PUSH2 0x2002 JUMP JUMPDEST PUSH2 0x2444 PUSH2 0x3F90 JUMP JUMPDEST PUSH2 0x244C PUSH2 0x1FDC JUMP JUMPDEST SWAP1 POP PUSH1 0x0 PUSH2 0x245B DUP4 DUP4 DUP4 PUSH2 0x1BD4 JUMP JUMPDEST SWAP1 POP PUSH1 0x0 PUSH2 0x246A DUP3 PUSH1 0x2 PUSH2 0x1ECE JUMP JUMPDEST PUSH1 0xA SWAP3 SWAP1 SWAP3 SSTORE POP SWAP10 SWAP2 SWAP9 POP SWAP1 SWAP7 POP POP POP POP POP POP POP JUMP JUMPDEST PUSH2 0x1505 DUP3 DUP3 PUSH2 0x2EE2 JUMP JUMPDEST POP POP POP JUMP JUMPDEST PUSH1 0x1 PUSH1 0x1 PUSH1 0xA0 SHL SUB SWAP2 DUP3 AND PUSH1 0x0 SWAP1 DUP2 MSTORE PUSH1 0x1 PUSH1 0x20 SWAP1 DUP2 MSTORE PUSH1 0x40 DUP1 DUP4 KECCAK256 SWAP4 SWAP1 SWAP5 AND DUP3 MSTORE SWAP2 SWAP1 SWAP2 MSTORE KECCAK256 SLOAD SWAP1 JUMP JUMPDEST PUSH1 0x40 DUP1 MLOAD PUSH1 0x2 DUP1 DUP3 MSTORE PUSH1 0x60 DUP1 DUP4 ADD DUP5 MSTORE SWAP3 DUP4 SWAP3 SWAP2 SWAP1 PUSH1 0x20 DUP4 ADD SWAP1 DUP1 CALLDATASIZE DUP4 CALLDATACOPY ADD SWAP1 POP POP SWAP1 POP PUSH2 0x24E8 PUSH1 0x1 PUSH2 0x2F70 JUMP JUMPDEST DUP2 PUSH1 0x0 DUP2 MLOAD DUP2 LT PUSH2 0x24F5 JUMPI INVALID JUMPDEST PUSH1 0x20 MUL PUSH1 0x20 ADD ADD DUP2 DUP2 MSTORE POP POP PUSH2 0x250B PUSH1 0x0 PUSH2 0x2F70 JUMP JUMPDEST DUP2 PUSH1 0x1 DUP2 MLOAD DUP2 LT PUSH2 0x2518 JUMPI INVALID JUMPDEST PUSH1 0x20 SWAP1 DUP2 MUL SWAP2 SWAP1 SWAP2 ADD ADD MSTORE SWAP1 POP SWAP1 JUMP JUMPDEST PUSH1 0x2 DUP2 MLOAD LT ISZERO PUSH2 0x2537 JUMPI PUSH2 0x679 JUMP JUMPDEST PUSH1 0x0 DUP2 PUSH1 0x0 DUP2 MLOAD DUP2 LT PUSH2 0x2546 JUMPI INVALID JUMPDEST PUSH1 0x20 MUL PUSH1 0x20 ADD ADD MLOAD SWAP1 POP PUSH1 0x0 PUSH1 0x1 SWAP1 POP JUMPDEST DUP3 MLOAD DUP2 LT ISZERO PUSH2 0x248A JUMPI PUSH1 0x0 DUP4 DUP3 DUP2 MLOAD DUP2 LT PUSH2 0x256E JUMPI INVALID JUMPDEST PUSH1 0x20 MUL PUSH1 0x20 ADD ADD MLOAD SWAP1 POP PUSH2 0x2597 DUP2 PUSH1 0x1 PUSH1 0x1 PUSH1 0xA0 SHL SUB AND DUP5 PUSH1 0x1 PUSH1 0x1 PUSH1 0xA0 SHL SUB AND LT PUSH1 0x65 PUSH2 0x1704 JUMP JUMPDEST SWAP2 POP PUSH1 0x1 ADD PUSH2 0x2557 JUMP JUMPDEST PUSH1 0x0 PUSH20 0xBA1BA1BA1BA1BA1BA1BA1BA1BA1BA1BA1BA1BA1B PUSH2 0x25C0 PUSH2 0xD03 JUMP JUMPDEST PUSH1 0x1 PUSH1 0x1 PUSH1 0xA0 SHL SUB AND EQ ISZERO DUP1 ISZERO PUSH2 0x25DB JUMPI POP PUSH2 0x25DB DUP4 PUSH2 0x2FC4 JUMP JUMPDEST ISZERO PUSH2 0x2603 JUMPI PUSH2 0x25E8 PUSH2 0xD03 JUMP JUMPDEST PUSH1 0x1 PUSH1 0x1 PUSH1 0xA0 SHL SUB AND CALLER PUSH1 0x1 PUSH1 0x1 PUSH1 0xA0 SHL SUB AND EQ SWAP1 POP PUSH2 0x662 JUMP JUMPDEST PUSH2 0x260B PUSH2 0x2327 JUMP JUMPDEST PUSH1 0x1 PUSH1 0x1 PUSH1 0xA0 SHL SUB AND PUSH4 0x9BE2A884 DUP5 DUP5 ADDRESS PUSH1 0x40 MLOAD DUP5 PUSH4 0xFFFFFFFF AND PUSH1 0xE0 SHL DUP2 MSTORE PUSH1 0x4 ADD PUSH2 0x263A SWAP4 SWAP3 SWAP2 SWAP1 PUSH2 0x493C JUMP JUMPDEST PUSH1 0x20 PUSH1 0x40 MLOAD DUP1 DUP4 SUB DUP2 DUP7 DUP1 EXTCODESIZE ISZERO DUP1 ISZERO PUSH2 0x2652 JUMPI PUSH1 0x0 DUP1 REVERT JUMPDEST POP GAS STATICCALL ISZERO DUP1 ISZERO PUSH2 0x2666 JUMPI RETURNDATASIZE PUSH1 0x0 DUP1 RETURNDATACOPY RETURNDATASIZE PUSH1 0x0 REVERT JUMPDEST POP POP POP POP PUSH1 0x40 MLOAD RETURNDATASIZE PUSH1 0x1F NOT PUSH1 0x1F DUP3 ADD AND DUP3 ADD DUP1 PUSH1 0x40 MSTORE POP DUP2 ADD SWAP1 PUSH2 0x14E3 SWAP2 SWAP1 PUSH2 0x445C JUMP JUMPDEST PUSH3 0x461BCD PUSH1 0xE5 SHL PUSH1 0x0 SWAP1 DUP2 MSTORE PUSH1 0x20 PUSH1 0x4 MSTORE PUSH1 0x7 PUSH1 0x24 MSTORE PUSH7 0x42414C23000030 PUSH1 0xA DUP1 DUP5 DIV DUP2 DUP2 MOD PUSH1 0x30 SWAP1 DUP2 ADD PUSH1 0x8 SHL SWAP6 DUP4 SWAP1 MOD SWAP6 SWAP1 SWAP6 ADD SWAP1 DUP3 SWAP1 DIV SWAP2 DUP3 MOD SWAP1 SWAP5 ADD PUSH1 0x10 SHL SWAP4 SWAP1 SWAP4 ADD ADD PUSH1 0xC8 SHL PUSH1 0x44 MSTORE PUSH1 0x64 SWAP1 REVERT JUMPDEST PUSH1 0x0 PUSH2 0x26EC DUP5 DUP5 GT ISZERO DUP4 PUSH2 0x1704 JUMP JUMPDEST POP POP SWAP1 SUB SWAP1 JUMP JUMPDEST PUSH1 0x0 DUP1 PUSH2 0x26FF DUP4 PUSH2 0x2FF6 JUMP JUMPDEST SWAP1 POP PUSH1 0x0 DUP1 DUP3 SGT PUSH2 0x2718 JUMPI PUSH6 0x2D79883D2000 DUP3 SUB PUSH2 0x2722 JUMP JUMPDEST PUSH6 0x2D79883D2000 DUP3 ADD JUMPDEST PUSH6 0x5AF3107A4000 SWAP1 SDIV SWAP5 SWAP4 POP POP POP POP JUMP JUMPDEST PUSH1 0x0 PUSH2 0x1517 DUP4 DUP4 DUP4 PUSH2 0x305A JUMP JUMPDEST PUSH1 0x0 PUSH2 0x1517 DUP4 DUP4 PUSH1 0x16 PUSH2 0x305A JUMP JUMPDEST SHL SWAP1 JUMP JUMPDEST PUSH7 0x1FFFFFFFFFFFFF SWAP2 SWAP1 SWAP2 AND SWAP1 SHL SWAP1 JUMP JUMPDEST PUSH3 0x3FFFFF SWAP2 SWAP1 SWAP2 AND SWAP1 SHL SWAP1 JUMP JUMPDEST SHR PUSH4 0x7FFFFFFF AND SWAP1 JUMP JUMPDEST CHAINID SWAP1 JUMP JUMPDEST PUSH2 0x2786 PUSH2 0x3F90 JUMP JUMPDEST PUSH2 0x2799 PUSH1 0x1 DUP5 DUP2 JUMPDEST PUSH1 0x20 MUL ADD MLOAD DUP5 PUSH2 0x3071 JUMP JUMPDEST DUP2 MSTORE PUSH2 0x27A7 PUSH1 0x0 DUP5 DUP2 PUSH2 0x278E JUMP JUMPDEST PUSH1 0x20 DUP3 ADD MSTORE SWAP3 SWAP2 POP POP JUMP JUMPDEST PUSH1 0x0 DUP3 DUP3 SHR PUSH3 0x3FFFFF AND PUSH3 0x1FFFFF DUP2 SGT PUSH2 0x27CC JUMPI DUP1 PUSH2 0x1FD4 JUMP JUMPDEST PUSH3 0x3FFFFF NOT OR SWAP4 SWAP3 POP POP POP JUMP JUMPDEST SHR PUSH2 0x3FF AND SWAP1 JUMP JUMPDEST SHR PUSH1 0x1 SWAP1 DUP2 AND EQ SWAP1 JUMP JUMPDEST SHR PUSH1 0x1 PUSH1 0x1 PUSH1 0x40 SHL SUB AND SWAP1 JUMP JUMPDEST PUSH1 0x0 DUP1 PUSH1 0x0 DUP1 PUSH2 0x280A PUSH1 0xA SLOAD DUP7 PUSH2 0x3091 JUMP JUMPDEST SWAP4 POP SWAP4 POP SWAP4 POP SWAP4 POP PUSH2 0x281E DUP5 DUP5 DUP5 DUP5 PUSH2 0x30FA JUMP JUMPDEST POP POP POP POP POP JUMP JUMPDEST PUSH1 0x0 PUSH1 0x60 PUSH1 0x0 PUSH2 0x2834 DUP5 PUSH2 0x2EB6 JUMP JUMPDEST SWAP1 POP PUSH1 0x1 DUP2 PUSH1 0x3 DUP2 GT ISZERO PUSH2 0x2844 JUMPI INVALID JUMPDEST EQ ISZERO PUSH2 0x285E JUMPI PUSH2 0x2854 DUP6 DUP6 PUSH2 0x311A JUMP JUMPDEST SWAP1 SWAP4 POP SWAP2 POP PUSH2 0x2869 JUMP JUMPDEST PUSH2 0x2869 PUSH2 0x150 PUSH2 0x268A JUMP JUMPDEST POP SWAP3 POP SWAP3 SWAP1 POP JUMP JUMPDEST PUSH1 0x0 DUP2 ISZERO PUSH2 0x28A3 JUMPI PUSH1 0x0 PUSH2 0x288F DUP5 PUSH2 0x2889 DUP9 DUP9 PUSH2 0x2231 JUMP JUMPDEST SWAP1 PUSH2 0x22E5 JUMP JUMPDEST SWAP1 POP PUSH2 0x289B DUP7 DUP3 PUSH2 0x19FF JUMP JUMPDEST SWAP2 POP POP PUSH2 0x1FD4 JUMP JUMPDEST PUSH1 0x0 PUSH2 0x28B3 DUP5 PUSH2 0xAE1 DUP9 DUP9 PUSH2 0x314C JUMP JUMPDEST SWAP1 POP PUSH2 0x28BF DUP7 DUP3 PUSH2 0x152C JUMP JUMPDEST SWAP7 SWAP6 POP POP POP POP POP POP JUMP JUMPDEST PUSH1 0x0 PUSH2 0x28D8 DUP3 ISZERO ISZERO PUSH1 0x4 PUSH2 0x1704 JUMP JUMPDEST DUP2 DUP4 DUP2 PUSH2 0x28E1 JUMPI INVALID JUMPDEST DIV SWAP4 SWAP3 POP POP POP JUMP JUMPDEST PUSH1 0x0 PUSH2 0x662 DUP3 PUSH1 0xEA PUSH2 0x27B2 JUMP JUMPDEST PUSH1 0x0 PUSH2 0x662 DUP3 PUSH1 0xB5 PUSH2 0x3178 JUMP JUMPDEST PUSH1 0x0 PUSH2 0x662 DUP3 PUSH1 0x9F PUSH2 0x27B2 JUMP JUMPDEST PUSH1 0x0 PUSH2 0x662 DUP3 PUSH1 0x6A PUSH2 0x3178 JUMP JUMPDEST PUSH1 0x0 PUSH2 0x662 DUP3 PUSH1 0x54 PUSH2 0x27B2 JUMP JUMPDEST PUSH1 0x0 PUSH2 0x662 DUP3 PUSH1 0x1F PUSH2 0x3178 JUMP JUMPDEST PUSH1 0x0 DUP2 PUSH2 0x2964 JUMPI PUSH32 0x0 PUSH2 0x662 JUMP JUMPDEST POP PUSH32 0x0 SWAP2 SWAP1 POP JUMP JUMPDEST PUSH2 0x29A2 PUSH1 0x1 PUSH1 0x1 PUSH1 0xA0 SHL SUB DUP4 AND ISZERO ISZERO PUSH2 0x19B PUSH2 0x1704 JUMP JUMPDEST PUSH2 0x29AE DUP3 PUSH1 0x0 DUP4 PUSH2 0x248A JUMP JUMPDEST PUSH1 0x1 PUSH1 0x1 PUSH1 0xA0 SHL SUB DUP3 AND PUSH1 0x0 SWAP1 DUP2 MSTORE PUSH1 0x20 DUP2 SWAP1 MSTORE PUSH1 0x40 SWAP1 KECCAK256 SLOAD PUSH2 0x29D4 SWAP1 DUP3 PUSH2 0x1A1 PUSH2 0x26DD JUMP JUMPDEST PUSH1 0x1 PUSH1 0x1 PUSH1 0xA0 SHL SUB DUP4 AND PUSH1 0x0 SWAP1 DUP2 MSTORE PUSH1 0x20 DUP2 SWAP1 MSTORE PUSH1 0x40 SWAP1 KECCAK256 SSTORE PUSH1 0x2 SLOAD PUSH2 0x29FA SWAP1 DUP3 PUSH2 0x31AB JUMP JUMPDEST PUSH1 0x2 SSTORE PUSH1 0x40 MLOAD PUSH1 0x0 SWAP1 PUSH1 0x1 PUSH1 0x1 PUSH1 0xA0 SHL SUB DUP5 AND SWAP1 PUSH32 0xDDF252AD1BE2C89B69C2B068FC378DAA952BA7F163C4A11628F55A4DF523B3EF SWAP1 PUSH2 0x2A3B SWAP1 DUP6 SWAP1 PUSH2 0x4933 JUMP JUMPDEST PUSH1 0x40 MLOAD DUP1 SWAP2 SUB SWAP1 LOG3 POP POP JUMP JUMPDEST PUSH1 0x0 PUSH1 0x60 PUSH1 0x0 PUSH2 0x2A56 DUP5 PUSH2 0x2EB6 JUMP JUMPDEST SWAP1 POP PUSH1 0x3 DUP2 PUSH1 0x3 DUP2 GT ISZERO PUSH2 0x2A66 JUMPI INVALID JUMPDEST EQ ISZERO PUSH2 0x2A76 JUMPI PUSH2 0x2854 DUP6 DUP6 PUSH2 0x31B9 JUMP JUMPDEST PUSH2 0x2869 PUSH2 0x136 PUSH2 0x268A JUMP JUMPDEST PUSH1 0x0 PUSH2 0x2A90 DUP3 ISZERO ISZERO PUSH1 0x4 PUSH2 0x1704 JUMP JUMPDEST DUP3 PUSH2 0x2A9D JUMPI POP PUSH1 0x0 PUSH2 0x662 JUMP JUMPDEST DUP2 PUSH1 0x1 DUP5 SUB DUP2 PUSH2 0x2AA9 JUMPI INVALID JUMPDEST DIV PUSH1 0x1 ADD SWAP1 POP PUSH2 0x662 JUMP JUMPDEST PUSH1 0x0 DUP1 PUSH2 0x2AC3 DUP7 DUP7 DUP7 DUP7 PUSH2 0x31DE JUMP JUMPDEST SWAP1 POP PUSH2 0x28BF DUP2 PUSH2 0x26F3 JUMP JUMPDEST PUSH1 0x0 DUP1 PUSH2 0x2ADD DUP8 DUP8 DUP8 DUP8 PUSH2 0x31DE JUMP JUMPDEST SWAP1 POP PUSH1 0x0 PUSH2 0x2AF5 PUSH2 0x2AEE DUP8 DUP5 PUSH2 0x2231 JUMP JUMPDEST DUP10 SWAP1 PUSH2 0x19FF JUMP JUMPDEST SWAP1 POP PUSH1 0x0 PUSH2 0x2B02 DUP3 PUSH2 0x26F3 JUMP JUMPDEST SWAP5 SWAP1 SWAP5 SUB SWAP9 SWAP8 POP POP POP POP POP POP POP POP JUMP JUMPDEST PUSH1 0x0 DUP1 PUSH2 0x2B2E DUP6 DUP6 DUP6 TIMESTAMP PUSH2 0x2B25 DUP12 PUSH2 0x1E59 JUMP JUMPDEST SWAP4 SWAP3 SWAP2 SWAP1 PUSH2 0x3206 JUMP JUMPDEST SWAP1 POP PUSH1 0x78 TIMESTAMP DUP9 SWAP1 SUB LT ISZERO DUP1 PUSH2 0x2B43 JUMPI DUP7 PUSH2 0x2B4C JUMP JUMPDEST PUSH2 0x2B4C DUP8 PUSH2 0x3258 JUMP JUMPDEST PUSH1 0x0 DUP2 DUP2 MSTORE PUSH1 0x8 PUSH1 0x20 MSTORE PUSH1 0x40 SWAP1 KECCAK256 SWAP3 SWAP1 SWAP3 SSTORE POP SWAP7 SWAP6 POP POP POP POP POP POP JUMP JUMPDEST PUSH1 0x0 PUSH2 0x1517 DUP4 DUP4 PUSH1 0x4B PUSH2 0x3265 JUMP JUMPDEST PUSH1 0x0 PUSH2 0x1517 DUP4 DUP4 PUSH1 0x2C PUSH2 0x3275 JUMP JUMPDEST PUSH1 0x0 PUSH2 0x2BA7 PUSH2 0x2B9C DUP8 PUSH8 0x429D069189E0000 PUSH2 0x314C JUMP JUMPDEST DUP6 GT ISZERO PUSH2 0x130 PUSH2 0x1704 JUMP JUMPDEST PUSH1 0x0 PUSH2 0x2BC5 PUSH2 0x2BBE DUP6 PUSH8 0xDE0B6B3A7640002 PUSH2 0x2231 JUMP JUMPDEST DUP9 SWAP1 PUSH2 0x19FF JUMP JUMPDEST SWAP1 POP PUSH1 0x0 PUSH2 0x2BDE PUSH2 0x2BBE DUP6 PUSH8 0xDE0B6B3A763FFFF PUSH2 0x314C JUMP JUMPDEST SWAP1 POP PUSH2 0x2BF7 PUSH2 0x2BED DUP4 DUP9 PUSH2 0x19FF JUMP JUMPDEST PUSH2 0xAE1 DUP4 DUP10 PUSH2 0x314C JUMP JUMPDEST SWAP3 POP POP POP PUSH2 0x2C09 DUP6 DUP3 LT PUSH2 0x165 PUSH2 0x1704 JUMP JUMPDEST PUSH2 0x228B PUSH2 0x2C1E DUP7 PUSH8 0x429D069189E0000 PUSH2 0x314C JUMP JUMPDEST DUP3 GT ISZERO PUSH2 0x131 PUSH2 0x1704 JUMP JUMPDEST PUSH1 0x0 PUSH2 0x2C39 DUP6 DUP6 LT PUSH2 0x165 PUSH2 0x1704 JUMP JUMPDEST PUSH2 0x2C59 PUSH2 0x2C4E DUP7 PUSH8 0x429D069189E0000 PUSH2 0x314C JUMP JUMPDEST DUP6 GT ISZERO PUSH2 0x131 PUSH2 0x1704 JUMP JUMPDEST PUSH1 0x0 PUSH2 0x2C70 PUSH2 0x2BBE DUP6 PUSH8 0xDE0B6B3A7640002 PUSH2 0x2231 JUMP JUMPDEST SWAP1 POP PUSH1 0x0 PUSH2 0x2C89 PUSH2 0x2BBE DUP6 PUSH8 0xDE0B6B3A763FFFF PUSH2 0x314C JUMP JUMPDEST SWAP1 POP PUSH2 0x2CA2 PUSH2 0x2C98 DUP3 DUP9 PUSH2 0x152C JUMP JUMPDEST PUSH2 0x2889 DUP5 DUP10 PUSH2 0x2231 JUMP JUMPDEST SWAP3 POP PUSH2 0x228B SWAP2 POP PUSH2 0x2CBD SWAP1 POP DUP8 PUSH8 0x429D069189E0000 PUSH2 0x314C JUMP JUMPDEST DUP3 GT ISZERO PUSH2 0x130 PUSH2 0x1704 JUMP JUMPDEST PUSH1 0x0 DUP1 DUP1 DUP1 PUSH2 0x2CE9 PUSH2 0x2CDA DUP8 DUP8 PUSH2 0x1EF2 JUMP JUMPDEST PUSH8 0xDE0B6B3A7640000 SWAP1 PUSH2 0x152C JUMP JUMPDEST SWAP4 POP PUSH1 0x0 PUSH2 0x2D14 DUP7 DUP10 PUSH1 0x1 DUP2 MLOAD DUP2 LT PUSH2 0x2CFE JUMPI INVALID JUMPDEST PUSH1 0x20 MUL PUSH1 0x20 ADD ADD MLOAD PUSH2 0x1EF2 SWAP1 SWAP2 SWAP1 PUSH4 0xFFFFFFFF AND JUMP JUMPDEST SWAP1 POP PUSH1 0x0 PUSH2 0x2D3F DUP9 DUP11 PUSH1 0x0 DUP2 MLOAD DUP2 LT PUSH2 0x2D29 JUMPI INVALID JUMPDEST PUSH1 0x20 MUL PUSH1 0x20 ADD ADD MLOAD PUSH2 0x314C SWAP1 SWAP2 SWAP1 PUSH4 0xFFFFFFFF AND JUMP JUMPDEST SWAP1 POP PUSH2 0x2D4B DUP3 DUP3 PUSH2 0x19FF JUMP JUMPDEST SWAP5 POP PUSH2 0x2D72 DUP10 PUSH1 0x1 DUP2 MLOAD DUP2 LT PUSH2 0x2D5D JUMPI INVALID JUMPDEST PUSH1 0x20 MUL PUSH1 0x20 ADD ADD MLOAD DUP11 PUSH1 0x0 DUP2 MLOAD DUP2 LT PUSH2 0x2D29 JUMPI INVALID JUMPDEST SWAP3 POP POP POP PUSH2 0x2DA9 DUP7 PUSH2 0x2DA3 DUP9 PUSH2 0x2DA3 DUP12 PUSH1 0x0 DUP2 MLOAD DUP2 LT PUSH2 0x2D8E JUMPI INVALID JUMPDEST PUSH1 0x20 MUL PUSH1 0x20 ADD ADD MLOAD DUP13 PUSH1 0x0 DUP2 MLOAD DUP2 LT PUSH2 0x2D29 JUMPI INVALID JUMPDEST SWAP1 PUSH2 0x314C JUMP JUMPDEST SWAP2 POP PUSH1 0x0 PUSH2 0x2DE9 DUP7 PUSH2 0xAE1 DUP10 PUSH2 0x2DA3 PUSH8 0xDE0B6B3A7640000 PUSH1 0x2 MUL PUSH2 0x2DA3 DUP15 PUSH1 0x1 DUP2 MLOAD DUP2 LT PUSH2 0x2DD4 JUMPI INVALID JUMPDEST PUSH1 0x20 MUL PUSH1 0x20 ADD ADD MLOAD DUP16 PUSH1 0x0 DUP2 MLOAD DUP2 LT PUSH2 0x2D29 JUMPI INVALID JUMPDEST SWAP1 POP PUSH1 0x0 PUSH2 0x2E1F PUSH2 0x2DFA DUP9 DUP1 PUSH2 0x2231 JUMP JUMPDEST PUSH2 0xAE1 DUP12 PUSH1 0x1 DUP2 MLOAD DUP2 LT PUSH2 0x2E0A JUMPI INVALID JUMPDEST PUSH1 0x20 MUL PUSH1 0x20 ADD ADD MLOAD DUP13 PUSH1 0x1 DUP2 MLOAD DUP2 LT PUSH2 0x2D29 JUMPI INVALID JUMPDEST SWAP1 POP PUSH2 0x2E35 DUP2 PUSH2 0x2E2F DUP7 DUP6 PUSH2 0x19FF JUMP JUMPDEST SWAP1 PUSH2 0x19FF JUMP JUMPDEST SWAP4 POP POP POP SWAP4 POP SWAP4 POP SWAP4 POP SWAP4 JUMP JUMPDEST PUSH1 0x0 DUP1 PUSH2 0x2E57 DUP7 PUSH8 0x1BC16D674EC80000 PUSH2 0x2231 JUMP JUMPDEST SWAP1 POP PUSH1 0x0 PUSH2 0x2E71 DUP8 PUSH2 0x2DA3 DUP7 PUSH8 0x3782DACE9D900000 PUSH2 0x314C JUMP JUMPDEST SWAP1 POP PUSH1 0x0 PUSH2 0x2E7F DUP7 DUP4 PUSH2 0x19FF JUMP JUMPDEST SWAP1 POP PUSH1 0x0 PUSH2 0x2E8E DUP3 PUSH1 0x5 PUSH2 0x3287 JUMP JUMPDEST SWAP1 POP PUSH1 0x0 PUSH2 0x2E9C DUP10 DUP4 PUSH2 0x19FF JUMP JUMPDEST SWAP1 POP PUSH2 0x2EA8 DUP2 DUP7 PUSH2 0x1EF2 JUMP JUMPDEST SWAP11 SWAP10 POP POP POP POP POP POP POP POP POP POP JUMP JUMPDEST PUSH1 0x0 DUP2 DUP1 PUSH1 0x20 ADD SWAP1 MLOAD DUP2 ADD SWAP1 PUSH2 0x662 SWAP2 SWAP1 PUSH2 0x459C JUMP JUMPDEST PUSH1 0x60 DUP2 DUP1 PUSH1 0x20 ADD SWAP1 MLOAD DUP2 ADD SWAP1 PUSH2 0x1517 SWAP2 SWAP1 PUSH2 0x45E5 JUMP JUMPDEST PUSH2 0x2EEE PUSH1 0x0 DUP4 DUP4 PUSH2 0x248A JUMP JUMPDEST PUSH1 0x2 SLOAD PUSH2 0x2EFB SWAP1 DUP3 PUSH2 0x19FF JUMP JUMPDEST PUSH1 0x2 SSTORE PUSH1 0x1 PUSH1 0x1 PUSH1 0xA0 SHL SUB DUP3 AND PUSH1 0x0 SWAP1 DUP2 MSTORE PUSH1 0x20 DUP2 SWAP1 MSTORE PUSH1 0x40 SWAP1 KECCAK256 SLOAD PUSH2 0x2F21 SWAP1 DUP3 PUSH2 0x19FF JUMP JUMPDEST PUSH1 0x1 PUSH1 0x1 PUSH1 0xA0 SHL SUB DUP4 AND PUSH1 0x0 DUP2 DUP2 MSTORE PUSH1 0x20 DUP2 SWAP1 MSTORE PUSH1 0x40 DUP1 DUP3 KECCAK256 SWAP4 SWAP1 SWAP4 SSTORE SWAP2 MLOAD SWAP1 SWAP2 SWAP1 PUSH32 0xDDF252AD1BE2C89B69C2B068FC378DAA952BA7F163C4A11628F55A4DF523B3EF SWAP1 PUSH2 0x2A3B SWAP1 DUP6 SWAP1 PUSH2 0x4933 JUMP JUMPDEST PUSH1 0x0 DUP2 PUSH2 0x2F9D JUMPI PUSH32 0x0 PUSH2 0x662 JUMP JUMPDEST POP PUSH32 0x0 SWAP2 SWAP1 POP JUMP JUMPDEST PUSH1 0x0 PUSH2 0x2FD6 PUSH4 0x1C74C917 PUSH1 0xE1 SHL PUSH2 0xC8C JUMP JUMPDEST DUP3 EQ DUP1 PUSH2 0x662 JUMPI POP PUSH2 0x2FEE PUSH4 0x50DD6ED9 PUSH1 0xE0 SHL PUSH2 0xC8C JUMP JUMPDEST SWAP1 SWAP2 EQ SWAP2 SWAP1 POP JUMP JUMPDEST PUSH1 0x0 PUSH2 0x3006 PUSH1 0x0 DUP4 SGT PUSH1 0x64 PUSH2 0x1704 JUMP JUMPDEST PUSH8 0xC7D713B49DA0000 DUP3 SGT DUP1 ISZERO PUSH2 0x3024 JUMPI POP PUSH8 0xF43FC2C04EE0000 DUP3 SLT JUMPDEST ISZERO PUSH2 0x304A JUMPI PUSH8 0xDE0B6B3A7640000 PUSH2 0x303B DUP4 PUSH2 0x33FA JUMP JUMPDEST DUP2 PUSH2 0x3042 JUMPI INVALID JUMPDEST SDIV SWAP1 POP PUSH2 0xBC7 JUMP JUMPDEST PUSH2 0x3053 DUP3 PUSH2 0x3518 JUMP JUMPDEST SWAP1 POP PUSH2 0xBC7 JUMP JUMPDEST PUSH3 0x3FFFFF DUP3 DUP2 AND DUP3 SHL SWAP1 DUP3 SHL NOT DUP5 AND OR SWAP4 SWAP3 POP POP POP JUMP JUMPDEST PUSH1 0x0 DUP4 PUSH2 0x3087 JUMPI PUSH2 0x3082 DUP3 DUP5 PUSH2 0x38B7 JUMP JUMPDEST PUSH2 0x1FD4 JUMP JUMPDEST PUSH2 0x1FD4 DUP3 DUP5 PUSH2 0x38C3 JUMP JUMPDEST PUSH1 0x0 DUP1 PUSH1 0x0 DUP1 PUSH1 0x0 DUP1 PUSH1 0x0 DUP1 PUSH2 0x30A5 PUSH2 0x38CF JUMP JUMPDEST SWAP4 POP SWAP4 POP SWAP4 POP SWAP4 POP DUP4 PUSH1 0x0 EQ ISZERO PUSH2 0x30CA JUMPI PUSH1 0x0 SWAP8 POP DUP8 SWAP7 POP SWAP1 SWAP5 POP SWAP3 POP PUSH2 0x30F1 SWAP2 POP POP JUMP JUMPDEST PUSH1 0x0 DUP1 PUSH2 0x30E1 DUP13 DUP13 PUSH2 0x30DA PUSH2 0x67C JUMP JUMPDEST DUP10 DUP10 PUSH2 0x3B3E JUMP JUMPDEST SWAP1 SWAP11 POP SWAP9 POP SWAP3 SWAP7 POP SWAP1 SWAP5 POP POP POP POP POP JUMPDEST SWAP3 SWAP6 SWAP2 SWAP5 POP SWAP3 POP JUMP JUMPDEST DUP4 ISZERO PUSH2 0x310A JUMPI PUSH2 0x310A DUP3 DUP6 PUSH2 0x2480 JUMP JUMPDEST DUP3 ISZERO PUSH2 0x8F1 JUMPI PUSH2 0x8F1 DUP2 DUP5 PUSH2 0x2480 JUMP JUMPDEST PUSH1 0x0 PUSH1 0x60 PUSH1 0x0 PUSH2 0x3129 DUP5 PUSH2 0x3BD3 JUMP JUMPDEST SWAP1 POP PUSH1 0x60 PUSH2 0x313F DUP7 DUP4 PUSH2 0x313A PUSH2 0x67C JUMP JUMPDEST PUSH2 0x3BE9 JUMP JUMPDEST SWAP2 SWAP7 SWAP2 SWAP6 POP SWAP1 SWAP4 POP POP POP POP JUMP JUMPDEST PUSH1 0x0 DUP3 DUP3 MUL PUSH2 0x3166 DUP5 ISZERO DUP1 PUSH2 0x1EEB JUMPI POP DUP4 DUP6 DUP4 DUP2 PUSH2 0x1EE8 JUMPI INVALID JUMPDEST PUSH8 0xDE0B6B3A7640000 SWAP1 DIV SWAP4 SWAP3 POP POP POP JUMP JUMPDEST PUSH1 0x0 DUP3 DUP3 SHR PUSH7 0x1FFFFFFFFFFFFF AND PUSH7 0xFFFFFFFFFFFFF DUP2 SGT PUSH2 0x319A JUMPI DUP1 PUSH2 0x1FD4 JUMP JUMPDEST PUSH7 0x1FFFFFFFFFFFFF NOT OR SWAP4 SWAP3 POP POP POP JUMP JUMPDEST PUSH1 0x0 PUSH2 0x1517 DUP4 DUP4 PUSH1 0x1 PUSH2 0x26DD JUMP JUMPDEST PUSH1 0x0 PUSH1 0x60 PUSH1 0x0 PUSH2 0x31C8 DUP5 PUSH2 0x3BD3 JUMP JUMPDEST SWAP1 POP PUSH1 0x60 PUSH2 0x313F DUP7 DUP4 PUSH2 0x31D9 PUSH2 0x67C JUMP JUMPDEST PUSH2 0x3C6E JUMP JUMPDEST PUSH1 0x0 PUSH8 0x6F05B59D3B20000 PUSH2 0x28BF PUSH2 0x31FA DUP3 PUSH2 0x2889 DUP8 DUP8 PUSH2 0x19FF JUMP JUMPDEST PUSH2 0x2889 DUP4 DUP2 DUP11 DUP11 PUSH2 0x19FF JUMP JUMPDEST PUSH1 0x0 DUP1 PUSH2 0x3212 DUP8 PUSH2 0x18ED JUMP JUMPDEST DUP4 SUB SWAP1 POP PUSH1 0x0 DUP2 DUP8 MUL PUSH2 0x3224 DUP10 PUSH2 0x28F6 JUMP JUMPDEST ADD SWAP1 POP PUSH1 0x0 DUP3 DUP8 MUL PUSH2 0x3235 DUP11 PUSH2 0x2910 JUMP JUMPDEST ADD SWAP1 POP PUSH1 0x0 DUP4 DUP8 MUL PUSH2 0x3246 DUP12 PUSH2 0x292A JUMP JUMPDEST ADD SWAP1 POP PUSH2 0x2EA8 DUP10 DUP5 DUP11 DUP6 DUP12 DUP7 DUP13 PUSH2 0x188D JUMP JUMPDEST PUSH1 0x0 PUSH2 0x662 DUP3 PUSH1 0x1 PUSH2 0x3D09 JUMP JUMPDEST PUSH2 0x3FF DUP2 SHL NOT SWAP3 SWAP1 SWAP3 AND SWAP2 SHL OR SWAP1 JUMP JUMPDEST PUSH4 0x7FFFFFFF DUP2 SHL NOT SWAP3 SWAP1 SWAP3 AND SWAP2 SHL OR SWAP1 JUMP JUMPDEST PUSH1 0x0 DUP3 PUSH2 0x3296 JUMPI POP PUSH1 0x0 PUSH2 0x662 JUMP JUMPDEST PUSH1 0x0 PUSH2 0x32A1 DUP5 PUSH2 0x3D11 JUMP JUMPDEST SWAP1 POP PUSH1 0x2 DUP2 PUSH8 0xDE0B6B3A7640000 DUP7 MUL DUP2 PUSH2 0x32B8 JUMPI INVALID JUMPDEST DIV DUP3 ADD DUP2 PUSH2 0x32C2 JUMPI INVALID JUMPDEST DIV SWAP1 POP PUSH1 0x2 DUP2 PUSH8 0xDE0B6B3A7640000 DUP7 MUL DUP2 PUSH2 0x32DA JUMPI INVALID JUMPDEST DIV DUP3 ADD DUP2 PUSH2 0x32E4 JUMPI INVALID JUMPDEST DIV SWAP1 POP PUSH1 0x2 DUP2 PUSH8 0xDE0B6B3A7640000 DUP7 MUL DUP2 PUSH2 0x32FC JUMPI INVALID JUMPDEST DIV DUP3 ADD DUP2 PUSH2 0x3306 JUMPI INVALID JUMPDEST DIV SWAP1 POP PUSH1 0x2 DUP2 PUSH8 0xDE0B6B3A7640000 DUP7 MUL DUP2 PUSH2 0x331E JUMPI INVALID JUMPDEST DIV DUP3 ADD DUP2 PUSH2 0x3328 JUMPI INVALID JUMPDEST DIV SWAP1 POP PUSH1 0x2 DUP2 PUSH8 0xDE0B6B3A7640000 DUP7 MUL DUP2 PUSH2 0x3340 JUMPI INVALID JUMPDEST DIV DUP3 ADD DUP2 PUSH2 0x334A JUMPI INVALID JUMPDEST DIV SWAP1 POP PUSH1 0x2 DUP2 PUSH8 0xDE0B6B3A7640000 DUP7 MUL DUP2 PUSH2 0x3362 JUMPI INVALID JUMPDEST DIV DUP3 ADD DUP2 PUSH2 0x336C JUMPI INVALID JUMPDEST DIV SWAP1 POP PUSH1 0x2 DUP2 PUSH8 0xDE0B6B3A7640000 DUP7 MUL DUP2 PUSH2 0x3384 JUMPI INVALID JUMPDEST DIV DUP3 ADD DUP2 PUSH2 0x338E JUMPI INVALID JUMPDEST DIV SWAP1 POP PUSH1 0x0 PUSH2 0x339D DUP3 DUP1 PUSH2 0x314C JUMP JUMPDEST SWAP1 POP PUSH2 0x33B3 PUSH2 0x33AC DUP4 DUP7 PUSH2 0x2231 JUMP JUMPDEST DUP7 SWAP1 PUSH2 0x19FF JUMP JUMPDEST DUP2 GT ISZERO DUP1 ISZERO PUSH2 0x33D5 JUMPI POP PUSH2 0x33D1 PUSH2 0x33CA DUP4 DUP7 PUSH2 0x2231 JUMP JUMPDEST DUP7 SWAP1 PUSH2 0x152C JUMP JUMPDEST DUP2 LT ISZERO JUMPDEST PUSH2 0x1079 JUMPI PUSH1 0x40 MLOAD PUSH3 0x461BCD PUSH1 0xE5 SHL DUP2 MSTORE PUSH1 0x4 ADD PUSH2 0x33F1 SWAP1 PUSH2 0x4B0E JUMP JUMPDEST PUSH1 0x40 MLOAD DUP1 SWAP2 SUB SWAP1 REVERT JUMPDEST PUSH8 0xDE0B6B3A7640000 MUL PUSH1 0x0 DUP1 PUSH11 0xC097CE7BC90715B34B9F1 PUSH1 0x24 SHL DUP1 DUP5 ADD SWAP1 PUSH15 0xC097CE7BC90715B34B9F0FFFFFFFFF NOT DUP6 ADD MUL DUP2 PUSH2 0x3435 JUMPI INVALID JUMPDEST SDIV SWAP1 POP PUSH1 0x0 PUSH11 0xC097CE7BC90715B34B9F1 PUSH1 0x24 SHL DUP3 DUP1 MUL SDIV SWAP1 POP DUP2 DUP1 PUSH11 0xC097CE7BC90715B34B9F1 PUSH1 0x24 SHL DUP2 DUP5 MUL SDIV SWAP2 POP PUSH1 0x3 DUP3 SDIV ADD PUSH11 0xC097CE7BC90715B34B9F1 PUSH1 0x24 SHL DUP3 DUP5 MUL SDIV SWAP2 POP PUSH1 0x5 DUP3 SDIV ADD PUSH11 0xC097CE7BC90715B34B9F1 PUSH1 0x24 SHL DUP3 DUP5 MUL SDIV SWAP2 POP PUSH1 0x7 DUP3 SDIV ADD PUSH11 0xC097CE7BC90715B34B9F1 PUSH1 0x24 SHL DUP3 DUP5 MUL SDIV SWAP2 POP PUSH1 0x9 DUP3 SDIV ADD PUSH11 0xC097CE7BC90715B34B9F1 PUSH1 0x24 SHL DUP3 DUP5 MUL SDIV SWAP2 POP PUSH1 0xB DUP3 SDIV ADD PUSH11 0xC097CE7BC90715B34B9F1 PUSH1 0x24 SHL DUP3 DUP5 MUL SDIV SWAP2 POP PUSH1 0xD DUP3 SDIV ADD PUSH11 0xC097CE7BC90715B34B9F1 PUSH1 0x24 SHL DUP3 DUP5 MUL SDIV SWAP2 POP PUSH1 0xF DUP3 PUSH1 0x2 SWAP2 SWAP1 SDIV SWAP2 SWAP1 SWAP2 ADD MUL SWAP6 SWAP5 POP POP POP POP POP JUMP JUMPDEST PUSH1 0x0 PUSH8 0xDE0B6B3A7640000 DUP3 SLT ISZERO PUSH2 0x3554 JUMPI PUSH2 0x354A DUP3 PUSH11 0xC097CE7BC90715B34B9F1 PUSH1 0x24 SHL DUP2 PUSH2 0x3544 JUMPI INVALID JUMPDEST SDIV PUSH2 0x3518 JUMP JUMPDEST PUSH1 0x0 SUB SWAP1 POP PUSH2 0xBC7 JUMP JUMPDEST PUSH1 0x0 PUSH31 0x1600EF3172E58D2E933EC884FDE10064C63B5372D805E203C0000000000000 DUP4 SLT PUSH2 0x35A5 JUMPI PUSH24 0x195E54C5DD42177F53A27172FA9EC630262827000000000 DUP4 SDIV SWAP3 POP PUSH9 0x6F05B59D3B2000000 ADD JUMPDEST PUSH20 0x11798004D755D3C8BC8E03204CF44619E000000 DUP4 SLT PUSH2 0x35DD JUMPI PUSH12 0x1425982CF597CD205CEF7380 DUP4 SDIV SWAP3 POP PUSH9 0x3782DACE9D9000000 ADD JUMPDEST PUSH1 0x64 SWAP3 DUP4 MUL SWAP3 MUL PUSH15 0x1855144814A7FF805980FF0084000 DUP4 SLT PUSH2 0x3625 JUMPI PUSH15 0x1855144814A7FF805980FF0084000 PUSH9 0x56BC75E2D63100000 DUP5 MUL SDIV SWAP3 POP PUSH9 0xAD78EBC5AC62000000 ADD JUMPDEST PUSH12 0x2DF0AB5A80A22C61AB5A700 DUP4 SLT PUSH2 0x3660 JUMPI PUSH12 0x2DF0AB5A80A22C61AB5A700 PUSH9 0x56BC75E2D63100000 DUP5 MUL SDIV SWAP3 POP PUSH9 0x56BC75E2D631000000 ADD JUMPDEST PUSH10 0x3F1FCE3DA636EA5CF850 DUP4 SLT PUSH2 0x3697 JUMPI PUSH10 0x3F1FCE3DA636EA5CF850 PUSH9 0x56BC75E2D63100000 DUP5 MUL SDIV SWAP3 POP PUSH9 0x2B5E3AF16B18800000 ADD JUMPDEST PUSH10 0x127FA27722CC06CC5E2 DUP4 SLT PUSH2 0x36CE JUMPI PUSH10 0x127FA27722CC06CC5E2 PUSH9 0x56BC75E2D63100000 DUP5 MUL SDIV SWAP3 POP PUSH9 0x15AF1D78B58C400000 ADD JUMPDEST PUSH9 0x280E60114EDB805D03 DUP4 SLT PUSH2 0x3703 JUMPI PUSH9 0x280E60114EDB805D03 PUSH9 0x56BC75E2D63100000 DUP5 MUL SDIV SWAP3 POP PUSH9 0xAD78EBC5AC6200000 ADD JUMPDEST PUSH9 0xEBC5FB41746121110 DUP4 SLT PUSH2 0x372E JUMPI PUSH9 0xEBC5FB41746121110 PUSH9 0x56BC75E2D63100000 SWAP4 DUP5 MUL SDIV SWAP3 ADD JUMPDEST PUSH9 0x8F00F760A4B2DB55D DUP4 SLT PUSH2 0x3763 JUMPI PUSH9 0x8F00F760A4B2DB55D PUSH9 0x56BC75E2D63100000 DUP5 MUL SDIV SWAP3 POP PUSH9 0x2B5E3AF16B1880000 ADD JUMPDEST PUSH9 0x6F5F1775788937937 DUP4 SLT PUSH2 0x3798 JUMPI PUSH9 0x6F5F1775788937937 PUSH9 0x56BC75E2D63100000 DUP5 MUL SDIV SWAP3 POP PUSH9 0x15AF1D78B58C40000 ADD JUMPDEST PUSH9 0x6248F33704B286603 DUP4 SLT PUSH2 0x37CC JUMPI PUSH9 0x6248F33704B286603 PUSH9 0x56BC75E2D63100000 DUP5 MUL SDIV SWAP3 POP PUSH8 0xAD78EBC5AC620000 ADD JUMPDEST PUSH9 0x5C548670B9510E7AC DUP4 SLT PUSH2 0x3800 JUMPI PUSH9 0x5C548670B9510E7AC PUSH9 0x56BC75E2D63100000 DUP5 MUL SDIV SWAP3 POP PUSH8 0x56BC75E2D6310000 ADD JUMPDEST PUSH1 0x0 PUSH9 0x56BC75E2D63100000 DUP5 ADD PUSH9 0x56BC75E2D63100000 DUP1 DUP7 SUB MUL DUP2 PUSH2 0x3823 JUMPI INVALID JUMPDEST SDIV SWAP1 POP PUSH1 0x0 PUSH9 0x56BC75E2D63100000 DUP3 DUP1 MUL SDIV SWAP1 POP DUP2 DUP1 PUSH9 0x56BC75E2D63100000 DUP2 DUP5 MUL SDIV SWAP2 POP PUSH1 0x3 DUP3 SDIV ADD PUSH9 0x56BC75E2D63100000 DUP3 DUP5 MUL SDIV SWAP2 POP PUSH1 0x5 DUP3 SDIV ADD PUSH9 0x56BC75E2D63100000 DUP3 DUP5 MUL SDIV SWAP2 POP PUSH1 0x7 DUP3 SDIV ADD PUSH9 0x56BC75E2D63100000 DUP3 DUP5 MUL SDIV SWAP2 POP PUSH1 0x9 DUP3 SDIV ADD PUSH9 0x56BC75E2D63100000 DUP3 DUP5 MUL SDIV SWAP2 POP PUSH1 0xB DUP3 SDIV ADD PUSH1 0x2 MUL PUSH1 0x64 DUP6 DUP3 ADD SDIV SWAP8 SWAP7 POP POP POP POP POP POP POP JUMP JUMPDEST PUSH1 0x0 PUSH2 0x1517 DUP4 DUP4 PUSH2 0x314C JUMP JUMPDEST PUSH1 0x0 PUSH2 0x1517 DUP4 DUP4 PUSH2 0x1EF2 JUMP JUMPDEST PUSH1 0xB SLOAD PUSH1 0x40 MLOAD PUSH4 0xBD02D0F5 PUSH1 0xE0 SHL DUP2 MSTORE PUSH1 0x0 SWAP2 DUP3 SWAP2 DUP3 SWAP2 DUP3 SWAP2 PUSH1 0x1 PUSH1 0x1 PUSH1 0xA0 SHL SUB SWAP1 SWAP2 AND SWAP1 PUSH4 0xBD02D0F5 SWAP1 PUSH2 0x3921 SWAP1 PUSH22 0x50524F544F434F4C5F535741505F4645455F50455243 PUSH1 0x50 SHL SWAP1 PUSH1 0x4 ADD PUSH2 0x4933 JUMP JUMPDEST PUSH1 0x20 PUSH1 0x40 MLOAD DUP1 DUP4 SUB DUP2 DUP7 DUP1 EXTCODESIZE ISZERO DUP1 ISZERO PUSH2 0x3939 JUMPI PUSH1 0x0 DUP1 REVERT JUMPDEST POP GAS STATICCALL ISZERO DUP1 ISZERO PUSH2 0x394D JUMPI RETURNDATASIZE PUSH1 0x0 DUP1 RETURNDATACOPY RETURNDATASIZE PUSH1 0x0 REVERT JUMPDEST POP POP POP POP PUSH1 0x40 MLOAD RETURNDATASIZE PUSH1 0x1F NOT PUSH1 0x1F DUP3 ADD AND DUP3 ADD DUP1 PUSH1 0x40 MSTORE POP DUP2 ADD SWAP1 PUSH2 0x3971 SWAP2 SWAP1 PUSH2 0x464E JUMP JUMPDEST PUSH1 0xB SLOAD PUSH1 0x40 MLOAD PUSH4 0xBD02D0F5 PUSH1 0xE0 SHL DUP2 MSTORE PUSH1 0x1 PUSH1 0x1 PUSH1 0xA0 SHL SUB SWAP1 SWAP2 AND SWAP1 PUSH4 0xBD02D0F5 SWAP1 PUSH2 0x39C1 SWAP1 PUSH32 0x50524F544F434F4C5F4645455F4759524F5F504F5254494F4E00000000000000 SWAP1 PUSH1 0x4 ADD PUSH2 0x4933 JUMP JUMPDEST PUSH1 0x20 PUSH1 0x40 MLOAD DUP1 DUP4 SUB DUP2 DUP7 DUP1 EXTCODESIZE ISZERO DUP1 ISZERO PUSH2 0x39D9 JUMPI PUSH1 0x0 DUP1 REVERT JUMPDEST POP GAS STATICCALL ISZERO DUP1 ISZERO PUSH2 0x39ED JUMPI RETURNDATASIZE PUSH1 0x0 DUP1 RETURNDATACOPY RETURNDATASIZE PUSH1 0x0 REVERT JUMPDEST POP POP POP POP PUSH1 0x40 MLOAD RETURNDATASIZE PUSH1 0x1F NOT PUSH1 0x1F DUP3 ADD AND DUP3 ADD DUP1 PUSH1 0x40 MSTORE POP DUP2 ADD SWAP1 PUSH2 0x3A11 SWAP2 SWAP1 PUSH2 0x464E JUMP JUMPDEST PUSH1 0xB SLOAD PUSH1 0x40 MLOAD PUSH4 0x21F8A721 PUSH1 0xE0 SHL DUP2 MSTORE PUSH1 0x1 PUSH1 0x1 PUSH1 0xA0 SHL SUB SWAP1 SWAP2 AND SWAP1 PUSH4 0x21F8A721 SWAP1 PUSH2 0x3A51 SWAP1 PUSH13 0x4759524F5F5452454153555259 PUSH1 0x98 SHL SWAP1 PUSH1 0x4 ADD PUSH2 0x4933 JUMP JUMPDEST PUSH1 0x20 PUSH1 0x40 MLOAD DUP1 DUP4 SUB DUP2 DUP7 DUP1 EXTCODESIZE ISZERO DUP1 ISZERO PUSH2 0x3A69 JUMPI PUSH1 0x0 DUP1 REVERT JUMPDEST POP GAS STATICCALL ISZERO DUP1 ISZERO PUSH2 0x3A7D JUMPI RETURNDATASIZE PUSH1 0x0 DUP1 RETURNDATACOPY RETURNDATASIZE PUSH1 0x0 REVERT JUMPDEST POP POP POP POP PUSH1 0x40 MLOAD RETURNDATASIZE PUSH1 0x1F NOT PUSH1 0x1F DUP3 ADD AND DUP3 ADD DUP1 PUSH1 0x40 MSTORE POP DUP2 ADD SWAP1 PUSH2 0x3AA1 SWAP2 SWAP1 PUSH2 0x40C9 JUMP JUMPDEST PUSH1 0xB SLOAD PUSH1 0x40 MLOAD PUSH4 0x21F8A721 PUSH1 0xE0 SHL DUP2 MSTORE PUSH1 0x1 PUSH1 0x1 PUSH1 0xA0 SHL SUB SWAP1 SWAP2 AND SWAP1 PUSH4 0x21F8A721 SWAP1 PUSH2 0x3AE0 SWAP1 PUSH12 0x42414C5F5452454153555259 PUSH1 0xA0 SHL SWAP1 PUSH1 0x4 ADD PUSH2 0x4933 JUMP JUMPDEST PUSH1 0x20 PUSH1 0x40 MLOAD DUP1 DUP4 SUB DUP2 DUP7 DUP1 EXTCODESIZE ISZERO DUP1 ISZERO PUSH2 0x3AF8 JUMPI PUSH1 0x0 DUP1 REVERT JUMPDEST POP GAS STATICCALL ISZERO DUP1 ISZERO PUSH2 0x3B0C JUMPI RETURNDATASIZE PUSH1 0x0 DUP1 RETURNDATACOPY RETURNDATASIZE PUSH1 0x0 REVERT JUMPDEST POP POP POP POP PUSH1 0x40 MLOAD RETURNDATASIZE PUSH1 0x1F NOT PUSH1 0x1F DUP3 ADD AND DUP3 ADD DUP1 PUSH1 0x40 MSTORE POP DUP2 ADD SWAP1 PUSH2 0x3B30 SWAP2 SWAP1 PUSH2 0x40C9 JUMP JUMPDEST SWAP4 POP SWAP4 POP SWAP4 POP SWAP4 POP SWAP1 SWAP2 SWAP3 SWAP4 JUMP JUMPDEST PUSH1 0x0 DUP1 DUP7 DUP7 GT PUSH2 0x3B53 JUMPI POP PUSH1 0x0 SWAP1 POP DUP1 PUSH2 0x3BC9 JUMP JUMPDEST PUSH1 0x0 PUSH2 0x3B6D DUP6 PUSH2 0x2DA3 PUSH2 0x3B66 DUP11 DUP13 PUSH2 0x152C JUMP JUMPDEST DUP10 SWAP1 PUSH2 0x314C JUMP JUMPDEST SWAP1 POP PUSH1 0x0 PUSH2 0x3B85 PUSH2 0x3B7E DUP10 DUP12 PUSH2 0x152C JUMP JUMPDEST DUP8 SWAP1 PUSH2 0x314C JUMP JUMPDEST SWAP1 POP PUSH1 0x0 PUSH2 0x3B93 DUP10 DUP4 PUSH2 0x152C JUMP JUMPDEST SWAP1 POP PUSH1 0x0 PUSH2 0x3BA1 DUP5 DUP4 PUSH2 0x1EF2 JUMP JUMPDEST SWAP1 POP PUSH1 0x0 PUSH2 0x3BAF DUP9 DUP4 PUSH2 0x314C JUMP JUMPDEST SWAP1 POP PUSH1 0x0 PUSH2 0x3BBD DUP4 DUP4 PUSH2 0x152C JUMP JUMPDEST SWAP2 SWAP8 POP SWAP1 SWAP6 POP POP POP POP POP POP JUMPDEST SWAP6 POP SWAP6 SWAP4 POP POP POP POP JUMP JUMPDEST PUSH1 0x0 DUP2 DUP1 PUSH1 0x20 ADD SWAP1 MLOAD DUP2 ADD SWAP1 PUSH2 0x1517 SWAP2 SWAP1 PUSH2 0x45B8 JUMP JUMPDEST PUSH1 0x60 DUP4 MLOAD PUSH1 0x1 PUSH1 0x1 PUSH1 0x40 SHL SUB DUP2 GT DUP1 ISZERO PUSH2 0x3C02 JUMPI PUSH1 0x0 DUP1 REVERT JUMPDEST POP PUSH1 0x40 MLOAD SWAP1 DUP1 DUP3 MSTORE DUP1 PUSH1 0x20 MUL PUSH1 0x20 ADD DUP3 ADD PUSH1 0x40 MSTORE DUP1 ISZERO PUSH2 0x3C2C JUMPI DUP2 PUSH1 0x20 ADD PUSH1 0x20 DUP3 MUL DUP1 CALLDATASIZE DUP4 CALLDATACOPY ADD SWAP1 POP JUMPDEST POP SWAP1 POP PUSH1 0x0 JUMPDEST DUP5 MLOAD DUP2 LT ISZERO PUSH2 0x1079 JUMPI PUSH2 0x3C4F DUP4 PUSH2 0xAE1 DUP7 DUP9 DUP6 DUP2 MLOAD DUP2 LT PUSH2 0x2D29 JUMPI INVALID JUMPDEST DUP3 DUP3 DUP2 MLOAD DUP2 LT PUSH2 0x3C5B JUMPI INVALID JUMPDEST PUSH1 0x20 SWAP1 DUP2 MUL SWAP2 SWAP1 SWAP2 ADD ADD MSTORE PUSH1 0x1 ADD PUSH2 0x3C32 JUMP JUMPDEST PUSH1 0x60 DUP4 MLOAD PUSH1 0x1 PUSH1 0x1 PUSH1 0x40 SHL SUB DUP2 GT DUP1 ISZERO PUSH2 0x3C87 JUMPI PUSH1 0x0 DUP1 REVERT JUMPDEST POP PUSH1 0x40 MLOAD SWAP1 DUP1 DUP3 MSTORE DUP1 PUSH1 0x20 MUL PUSH1 0x20 ADD DUP3 ADD PUSH1 0x40 MSTORE DUP1 ISZERO PUSH2 0x3CB1 JUMPI DUP2 PUSH1 0x20 ADD PUSH1 0x20 DUP3 MUL DUP1 CALLDATASIZE DUP4 CALLDATACOPY ADD SWAP1 POP JUMPDEST POP SWAP1 POP PUSH1 0x0 JUMPDEST DUP5 MLOAD DUP2 LT ISZERO PUSH2 0x1079 JUMPI PUSH2 0x3CEA DUP4 PUSH2 0x2889 DUP7 DUP9 DUP6 DUP2 MLOAD DUP2 LT PUSH2 0x3CD4 JUMPI INVALID JUMPDEST PUSH1 0x20 MUL PUSH1 0x20 ADD ADD MLOAD PUSH2 0x2231 SWAP1 SWAP2 SWAP1 PUSH4 0xFFFFFFFF AND JUMP JUMPDEST DUP3 DUP3 DUP2 MLOAD DUP2 LT PUSH2 0x3CF6 JUMPI INVALID JUMPDEST PUSH1 0x20 SWAP1 DUP2 MUL SWAP2 SWAP1 SWAP2 ADD ADD MSTORE PUSH1 0x1 ADD PUSH2 0x3CB7 JUMP JUMPDEST ADD PUSH2 0x3FF AND SWAP1 JUMP JUMPDEST PUSH1 0x0 PUSH8 0xDE0B6B3A7640000 DUP3 LT PUSH2 0x3D3E JUMPI PUSH8 0xDE0B6B3A7640000 PUSH2 0x3D36 DUP2 DUP5 DIV PUSH2 0x3EE3 JUMP JUMPDEST SHL SWAP1 POP PUSH2 0xBC7 JUMP JUMPDEST PUSH1 0xA DUP3 GT PUSH2 0x3D51 JUMPI POP PUSH4 0xBC7C871C PUSH2 0xBC7 JUMP JUMPDEST PUSH1 0x64 DUP3 GT PUSH2 0x3D65 JUMPI POP PUSH5 0x2540BE400 PUSH2 0xBC7 JUMP JUMPDEST PUSH2 0x3E8 DUP3 GT PUSH2 0x3D7A JUMPI POP PUSH5 0x75CDD4719 PUSH2 0xBC7 JUMP JUMPDEST PUSH2 0x2710 DUP3 GT PUSH2 0x3D8F JUMPI POP PUSH5 0x174876E800 PUSH2 0xBC7 JUMP JUMPDEST PUSH3 0x186A0 DUP3 GT PUSH2 0x3DA5 JUMPI POP PUSH5 0x49A0A4C700 PUSH2 0xBC7 JUMP JUMPDEST PUSH3 0xF4240 DUP3 GT PUSH2 0x3DBB JUMPI POP PUSH5 0xE8D4A51000 PUSH2 0xBC7 JUMP JUMPDEST PUSH3 0x989680 DUP3 GT PUSH2 0x3DD2 JUMPI POP PUSH6 0x2E0466FC608 PUSH2 0xBC7 JUMP JUMPDEST PUSH4 0x5F5E100 DUP3 GT PUSH2 0x3DEA JUMPI POP PUSH6 0x9184E72A000 PUSH2 0xBC7 JUMP JUMPDEST PUSH4 0x3B9ACA00 DUP3 GT PUSH2 0x3E02 JUMPI POP PUSH6 0x1CC2C05DBC53 PUSH2 0xBC7 JUMP JUMPDEST PUSH5 0x2540BE400 DUP3 GT PUSH2 0x3E1B JUMPI POP PUSH6 0x5AF3107A4000 PUSH2 0xBC7 JUMP JUMPDEST PUSH5 0x174876E800 DUP3 GT PUSH2 0x3E35 JUMPI POP PUSH7 0x11F9B83A95B45 PUSH2 0xBC7 JUMP JUMPDEST PUSH5 0xE8D4A51000 DUP3 GT PUSH2 0x3E4F JUMPI POP PUSH7 0x38D7EA4C68000 PUSH2 0xBC7 JUMP JUMPDEST PUSH6 0x9184E72A000 DUP3 GT PUSH2 0x3E6A JUMPI POP PUSH7 0xB3C13249D90BB PUSH2 0xBC7 JUMP JUMPDEST PUSH6 0x5AF3107A4000 DUP3 GT PUSH2 0x3E85 JUMPI POP PUSH7 0x2386F26FC10000 PUSH2 0xBC7 JUMP JUMPDEST PUSH7 0x38D7EA4C68000 DUP3 GT PUSH2 0x3EA1 JUMPI POP PUSH7 0x7058BF6E27A751 PUSH2 0xBC7 JUMP JUMPDEST PUSH7 0x2386F26FC10000 DUP3 GT PUSH2 0x3EBE JUMPI POP PUSH8 0x16345785D8A0000 PUSH2 0xBC7 JUMP JUMPDEST PUSH8 0x16345785D8A0000 DUP3 GT PUSH2 0x3EDC JUMPI POP PUSH8 0x463777A4D8C892D PUSH2 0xBC7 JUMP JUMPDEST POP DUP1 PUSH2 0xBC7 JUMP JUMPDEST PUSH1 0x0 PUSH1 0x1 PUSH1 0x80 SHL DUP3 LT PUSH2 0x3EFB JUMPI PUSH1 0x80 SWAP2 SWAP1 SWAP2 SHR SWAP1 PUSH1 0x40 ADD JUMPDEST PUSH9 0x10000000000000000 DUP3 LT PUSH2 0x3F16 JUMPI PUSH1 0x40 SWAP2 SWAP1 SWAP2 SHR SWAP1 PUSH1 0x20 ADD JUMPDEST PUSH5 0x100000000 DUP3 LT PUSH2 0x3F2D JUMPI PUSH1 0x20 SWAP2 SWAP1 SWAP2 SHR SWAP1 PUSH1 0x10 ADD JUMPDEST PUSH3 0x10000 DUP3 LT PUSH2 0x3F42 JUMPI PUSH1 0x10 SWAP2 SWAP1 SWAP2 SHR SWAP1 PUSH1 0x8 ADD JUMPDEST PUSH2 0x100 DUP3 LT PUSH2 0x3F56 JUMPI PUSH1 0x8 SWAP2 SWAP1 SWAP2 SHR SWAP1 PUSH1 0x4 ADD JUMPDEST PUSH1 0x10 DUP3 LT PUSH2 0x3F69 JUMPI PUSH1 0x4 SWAP2 SWAP1 SWAP2 SHR SWAP1 PUSH1 0x2 ADD JUMPDEST PUSH1 0x4 DUP3 LT PUSH2 0xBC7 JUMPI PUSH1 0x1 ADD SWAP2 SWAP1 POP JUMP JUMPDEST PUSH1 0x40 DUP1 MLOAD DUP1 DUP3 ADD SWAP1 SWAP2 MSTORE PUSH1 0x0 DUP1 DUP3 MSTORE PUSH1 0x20 DUP3 ADD MSTORE SWAP1 JUMP JUMPDEST PUSH1 0x40 MLOAD DUP1 PUSH1 0x40 ADD PUSH1 0x40 MSTORE DUP1 PUSH1 0x2 SWAP1 PUSH1 0x20 DUP3 MUL DUP1 CALLDATASIZE DUP4 CALLDATACOPY POP SWAP2 SWAP3 SWAP2 POP POP JUMP JUMPDEST DUP1 CALLDATALOAD PUSH2 0x662 DUP2 PUSH2 0x4BC0 JUMP JUMPDEST PUSH1 0x0 DUP3 PUSH1 0x1F DUP4 ADD SLT PUSH2 0x3FC9 JUMPI DUP1 DUP2 REVERT JUMPDEST DUP2 MLOAD PUSH2 0x3FDC PUSH2 0x3FD7 DUP3 PUSH2 0x4B97 JUMP JUMPDEST PUSH2 0x4B71 JUMP JUMPDEST DUP2 DUP2 MSTORE SWAP2 POP PUSH1 0x20 DUP1 DUP4 ADD SWAP1 DUP5 DUP2 ADD DUP2 DUP5 MUL DUP7 ADD DUP3 ADD DUP8 LT ISZERO PUSH2 0x3FFD JUMPI PUSH1 0x0 DUP1 REVERT JUMPDEST PUSH1 0x0 JUMPDEST DUP5 DUP2 LT ISZERO PUSH2 0x401C JUMPI DUP2 MLOAD DUP5 MSTORE SWAP3 DUP3 ADD SWAP3 SWAP1 DUP3 ADD SWAP1 PUSH1 0x1 ADD PUSH2 0x4000 JUMP JUMPDEST POP POP POP POP POP SWAP3 SWAP2 POP POP JUMP JUMPDEST PUSH1 0x0 DUP3 PUSH1 0x1F DUP4 ADD SLT PUSH2 0x4037 JUMPI DUP1 DUP2 REVERT JUMPDEST DUP2 CALLDATALOAD PUSH1 0x1 PUSH1 0x1 PUSH1 0x40 SHL SUB DUP2 GT ISZERO PUSH2 0x404C JUMPI DUP2 DUP3 REVERT JUMPDEST PUSH2 0x405F PUSH1 0x1F DUP3 ADD PUSH1 0x1F NOT AND PUSH1 0x20 ADD PUSH2 0x4B71 JUMP JUMPDEST SWAP2 POP DUP1 DUP3 MSTORE DUP4 PUSH1 0x20 DUP3 DUP6 ADD ADD GT ISZERO PUSH2 0x4076 JUMPI PUSH1 0x0 DUP1 REVERT JUMPDEST DUP1 PUSH1 0x20 DUP5 ADD PUSH1 0x20 DUP5 ADD CALLDATACOPY PUSH1 0x0 SWAP1 DUP3 ADD PUSH1 0x20 ADD MSTORE SWAP3 SWAP2 POP POP JUMP JUMPDEST DUP1 CALLDATALOAD PUSH1 0x2 DUP2 LT PUSH2 0x662 JUMPI PUSH1 0x0 DUP1 REVERT JUMPDEST DUP1 CALLDATALOAD PUSH1 0x3 DUP2 LT PUSH2 0x662 JUMPI PUSH1 0x0 DUP1 REVERT JUMPDEST PUSH1 0x0 PUSH1 0x20 DUP3 DUP5 SUB SLT ISZERO PUSH2 0x40BE JUMPI DUP1 DUP2 REVERT JUMPDEST DUP2 CALLDATALOAD PUSH2 0x1517 DUP2 PUSH2 0x4BC0 JUMP JUMPDEST PUSH1 0x0 PUSH1 0x20 DUP3 DUP5 SUB SLT ISZERO PUSH2 0x40DA JUMPI DUP1 DUP2 REVERT JUMPDEST DUP2 MLOAD PUSH2 0x1517 DUP2 PUSH2 0x4BC0 JUMP JUMPDEST PUSH1 0x0 DUP1 PUSH1 0x40 DUP4 DUP6 SUB SLT ISZERO PUSH2 0x40F7 JUMPI DUP1 DUP2 REVERT JUMPDEST DUP3 CALLDATALOAD PUSH2 0x4102 DUP2 PUSH2 0x4BC0 JUMP JUMPDEST SWAP2 POP PUSH1 0x20 DUP4 ADD CALLDATALOAD PUSH2 0x4112 DUP2 PUSH2 0x4BC0 JUMP JUMPDEST DUP1 SWAP2 POP POP SWAP3 POP SWAP3 SWAP1 POP JUMP JUMPDEST PUSH1 0x0 DUP1 PUSH1 0x0 PUSH1 0x60 DUP5 DUP7 SUB SLT ISZERO PUSH2 0x4131 JUMPI DUP1 DUP2 REVERT JUMPDEST DUP4 CALLDATALOAD PUSH2 0x413C DUP2 PUSH2 0x4BC0 JUMP JUMPDEST SWAP3 POP PUSH1 0x20 DUP5 ADD CALLDATALOAD PUSH2 0x414C DUP2 PUSH2 0x4BC0 JUMP JUMPDEST SWAP3 SWAP6 SWAP3 SWAP5 POP POP POP PUSH1 0x40 SWAP2 SWAP1 SWAP2 ADD CALLDATALOAD SWAP1 JUMP JUMPDEST PUSH1 0x0 DUP1 PUSH1 0x0 DUP1 PUSH1 0x0 DUP1 PUSH1 0x0 PUSH1 0xE0 DUP9 DUP11 SUB SLT ISZERO PUSH2 0x4177 JUMPI DUP5 DUP6 REVERT JUMPDEST DUP8 CALLDATALOAD PUSH2 0x4182 DUP2 PUSH2 0x4BC0 JUMP JUMPDEST SWAP7 POP PUSH1 0x20 DUP9 ADD CALLDATALOAD PUSH2 0x4192 DUP2 PUSH2 0x4BC0 JUMP JUMPDEST SWAP6 POP PUSH1 0x40 DUP9 ADD CALLDATALOAD SWAP5 POP PUSH1 0x60 DUP9 ADD CALLDATALOAD SWAP4 POP PUSH1 0x80 DUP9 ADD CALLDATALOAD PUSH1 0xFF DUP2 AND DUP2 EQ PUSH2 0x41B5 JUMPI DUP4 DUP5 REVERT JUMPDEST SWAP7 SWAP10 SWAP6 SWAP9 POP SWAP4 SWAP7 SWAP3 SWAP6 SWAP5 PUSH1 0xA0 DUP5 ADD CALLDATALOAD SWAP5 POP PUSH1 0xC0 SWAP1 SWAP4 ADD CALLDATALOAD SWAP3 SWAP2 POP POP JUMP JUMPDEST PUSH1 0x0 DUP1 PUSH1 0x40 DUP4 DUP6 SUB SLT ISZERO PUSH2 0x41E4 JUMPI DUP2 DUP3 REVERT JUMPDEST DUP3 CALLDATALOAD PUSH2 0x41EF DUP2 PUSH2 0x4BC0 JUMP JUMPDEST SWAP5 PUSH1 0x20 SWAP4 SWAP1 SWAP4 ADD CALLDATALOAD SWAP4 POP POP POP JUMP JUMPDEST PUSH1 0x0 DUP1 PUSH1 0x0 PUSH1 0x60 DUP5 DUP7 SUB SLT ISZERO PUSH2 0x4211 JUMPI DUP1 DUP2 REVERT JUMPDEST DUP4 MLOAD PUSH1 0x1 PUSH1 0x1 PUSH1 0x40 SHL SUB DUP1 DUP3 GT ISZERO PUSH2 0x4227 JUMPI DUP3 DUP4 REVERT JUMPDEST DUP2 DUP7 ADD SWAP2 POP DUP7 PUSH1 0x1F DUP4 ADD SLT PUSH2 0x423A JUMPI DUP3 DUP4 REVERT JUMPDEST DUP2 MLOAD PUSH2 0x4248 PUSH2 0x3FD7 DUP3 PUSH2 0x4B97 JUMP JUMPDEST DUP1 DUP3 DUP3 MSTORE PUSH1 0x20 DUP1 DUP4 ADD SWAP3 POP DUP1 DUP7 ADD DUP12 DUP3 DUP4 DUP8 MUL DUP10 ADD ADD GT ISZERO PUSH2 0x4268 JUMPI DUP8 DUP9 REVERT JUMPDEST DUP8 SWAP7 POP JUMPDEST DUP5 DUP8 LT ISZERO PUSH2 0x4293 JUMPI DUP1 MLOAD PUSH2 0x427F DUP2 PUSH2 0x4BC0 JUMP JUMPDEST DUP5 MSTORE PUSH1 0x1 SWAP7 SWAP1 SWAP7 ADD SWAP6 SWAP3 DUP2 ADD SWAP3 DUP2 ADD PUSH2 0x426C JUMP JUMPDEST POP DUP10 ADD MLOAD SWAP1 SWAP8 POP SWAP4 POP POP POP DUP1 DUP3 GT ISZERO PUSH2 0x42AA JUMPI DUP3 DUP4 REVERT JUMPDEST POP PUSH2 0x42B7 DUP7 DUP3 DUP8 ADD PUSH2 0x3FB9 JUMP JUMPDEST SWAP3 POP POP PUSH1 0x40 DUP5 ADD MLOAD SWAP1 POP SWAP3 POP SWAP3 POP SWAP3 JUMP JUMPDEST PUSH1 0x0 PUSH1 0x20 DUP1 DUP4 DUP6 SUB SLT ISZERO PUSH2 0x42DA JUMPI DUP2 DUP3 REVERT JUMPDEST DUP3 CALLDATALOAD PUSH1 0x1 PUSH1 0x1 PUSH1 0x40 SHL SUB DUP2 GT ISZERO PUSH2 0x42EF JUMPI DUP3 DUP4 REVERT JUMPDEST DUP4 ADD PUSH1 0x1F DUP2 ADD DUP6 SGT PUSH2 0x42FF JUMPI DUP3 DUP4 REVERT JUMPDEST DUP1 CALLDATALOAD PUSH2 0x430D PUSH2 0x3FD7 DUP3 PUSH2 0x4B97 JUMP JUMPDEST DUP2 DUP2 MSTORE DUP4 DUP2 ADD SWAP1 DUP4 DUP6 ADD PUSH1 0x40 DUP1 DUP6 MUL DUP7 ADD DUP8 ADD DUP11 LT ISZERO PUSH2 0x432B JUMPI DUP8 DUP9 REVERT JUMPDEST DUP8 SWAP6 POP JUMPDEST DUP5 DUP7 LT ISZERO PUSH2 0x4378 JUMPI DUP1 DUP3 DUP12 SUB SLT ISZERO PUSH2 0x4345 JUMPI DUP8 DUP9 REVERT JUMPDEST PUSH2 0x434E DUP2 PUSH2 0x4B71 JUMP JUMPDEST PUSH2 0x4358 DUP12 DUP5 PUSH2 0x409E JUMP JUMPDEST DUP2 MSTORE DUP3 DUP9 ADD CALLDATALOAD DUP9 DUP3 ADD MSTORE DUP5 MSTORE PUSH1 0x1 SWAP6 SWAP1 SWAP6 ADD SWAP5 SWAP3 DUP7 ADD SWAP3 SWAP1 DUP2 ADD SWAP1 PUSH2 0x432F JUMP JUMPDEST POP SWAP1 SWAP9 SWAP8 POP POP POP POP POP POP POP POP JUMP JUMPDEST PUSH1 0x0 PUSH1 0x20 DUP1 DUP4 DUP6 SUB SLT ISZERO PUSH2 0x4398 JUMPI DUP2 DUP3 REVERT JUMPDEST DUP3 CALLDATALOAD PUSH1 0x1 PUSH1 0x1 PUSH1 0x40 SHL SUB DUP2 GT ISZERO PUSH2 0x43AD JUMPI DUP3 DUP4 REVERT JUMPDEST DUP4 ADD PUSH1 0x1F DUP2 ADD DUP6 SGT PUSH2 0x43BD JUMPI DUP3 DUP4 REVERT JUMPDEST DUP1 CALLDATALOAD PUSH2 0x43CB PUSH2 0x3FD7 DUP3 PUSH2 0x4B97 JUMP JUMPDEST DUP2 DUP2 MSTORE DUP4 DUP2 ADD SWAP1 DUP4 DUP6 ADD PUSH1 0x60 DUP1 DUP6 MUL DUP7 ADD DUP8 ADD DUP11 LT ISZERO PUSH2 0x43E9 JUMPI DUP8 DUP9 REVERT JUMPDEST DUP8 SWAP6 POP JUMPDEST DUP5 DUP7 LT ISZERO PUSH2 0x4378 JUMPI DUP1 DUP3 DUP12 SUB SLT ISZERO PUSH2 0x4403 JUMPI DUP8 DUP9 REVERT JUMPDEST PUSH2 0x440C DUP2 PUSH2 0x4B71 JUMP JUMPDEST PUSH2 0x4416 DUP12 DUP5 PUSH2 0x409E JUMP JUMPDEST DUP2 MSTORE DUP3 DUP9 ADD CALLDATALOAD DUP9 DUP3 ADD MSTORE PUSH1 0x40 DUP1 DUP5 ADD CALLDATALOAD SWAP1 DUP3 ADD MSTORE DUP5 MSTORE PUSH1 0x1 SWAP6 SWAP1 SWAP6 ADD SWAP5 SWAP3 DUP7 ADD SWAP3 SWAP1 DUP2 ADD SWAP1 PUSH2 0x43ED JUMP JUMPDEST PUSH1 0x0 PUSH1 0x20 DUP3 DUP5 SUB SLT ISZERO PUSH2 0x4451 JUMPI DUP1 DUP2 REVERT JUMPDEST DUP2 CALLDATALOAD PUSH2 0x1517 DUP2 PUSH2 0x4BD5 JUMP JUMPDEST PUSH1 0x0 PUSH1 0x20 DUP3 DUP5 SUB SLT ISZERO PUSH2 0x446D JUMPI DUP1 DUP2 REVERT JUMPDEST DUP2 MLOAD PUSH2 0x1517 DUP2 PUSH2 0x4BD5 JUMP JUMPDEST PUSH1 0x0 DUP1 PUSH1 0x0 DUP1 PUSH1 0x0 DUP1 PUSH1 0x0 PUSH1 0xE0 DUP9 DUP11 SUB SLT ISZERO PUSH2 0x4492 JUMPI DUP1 DUP2 REVERT JUMPDEST DUP8 CALLDATALOAD SWAP7 POP PUSH1 0x20 DUP1 DUP10 ADD CALLDATALOAD PUSH2 0x44A5 DUP2 PUSH2 0x4BC0 JUMP JUMPDEST SWAP7 POP PUSH1 0x40 DUP10 ADD CALLDATALOAD PUSH2 0x44B5 DUP2 PUSH2 0x4BC0 JUMP JUMPDEST SWAP6 POP PUSH1 0x60 DUP10 ADD CALLDATALOAD PUSH1 0x1 PUSH1 0x1 PUSH1 0x40 SHL SUB DUP1 DUP3 GT ISZERO PUSH2 0x44D0 JUMPI DUP4 DUP5 REVERT JUMPDEST DUP2 DUP12 ADD SWAP2 POP DUP12 PUSH1 0x1F DUP4 ADD SLT PUSH2 0x44E3 JUMPI DUP4 DUP5 REVERT JUMPDEST DUP2 CALLDATALOAD PUSH2 0x44F1 PUSH2 0x3FD7 DUP3 PUSH2 0x4B97 JUMP JUMPDEST DUP1 DUP3 DUP3 MSTORE DUP6 DUP3 ADD SWAP2 POP DUP6 DUP6 ADD DUP16 DUP8 DUP9 DUP7 MUL DUP9 ADD ADD GT ISZERO PUSH2 0x450F JUMPI DUP8 DUP9 REVERT JUMPDEST DUP8 SWAP6 POP JUMPDEST DUP4 DUP7 LT ISZERO PUSH2 0x4531 JUMPI DUP1 CALLDATALOAD DUP4 MSTORE PUSH1 0x1 SWAP6 SWAP1 SWAP6 ADD SWAP5 SWAP2 DUP7 ADD SWAP2 DUP7 ADD PUSH2 0x4513 JUMP JUMPDEST POP SWAP9 POP POP POP PUSH1 0x80 DUP12 ADD CALLDATALOAD SWAP6 POP PUSH1 0xA0 DUP12 ADD CALLDATALOAD SWAP5 POP PUSH1 0xC0 DUP12 ADD CALLDATALOAD SWAP3 POP DUP1 DUP4 GT ISZERO PUSH2 0x4557 JUMPI DUP4 DUP5 REVERT JUMPDEST POP POP PUSH2 0x4565 DUP11 DUP3 DUP12 ADD PUSH2 0x4027 JUMP JUMPDEST SWAP2 POP POP SWAP3 SWAP6 SWAP9 SWAP2 SWAP5 SWAP8 POP SWAP3 SWAP6 POP JUMP JUMPDEST PUSH1 0x0 PUSH1 0x20 DUP3 DUP5 SUB SLT ISZERO PUSH2 0x4585 JUMPI DUP1 DUP2 REVERT JUMPDEST DUP2 CALLDATALOAD PUSH1 0x1 PUSH1 0x1 PUSH1 0xE0 SHL SUB NOT DUP2 AND DUP2 EQ PUSH2 0x1517 JUMPI DUP2 DUP3 REVERT JUMPDEST PUSH1 0x0 PUSH1 0x20 DUP3 DUP5 SUB SLT ISZERO PUSH2 0x45AD JUMPI DUP1 DUP2 REVERT JUMPDEST DUP2 MLOAD PUSH2 0x1517 DUP2 PUSH2 0x4BE3 JUMP JUMPDEST PUSH1 0x0 DUP1 PUSH1 0x40 DUP4 DUP6 SUB SLT ISZERO PUSH2 0x45CA JUMPI DUP2 DUP3 REVERT JUMPDEST DUP3 MLOAD PUSH2 0x45D5 DUP2 PUSH2 0x4BE3 JUMP JUMPDEST PUSH1 0x20 SWAP4 SWAP1 SWAP4 ADD MLOAD SWAP3 SWAP5 SWAP3 SWAP4 POP POP POP JUMP JUMPDEST PUSH1 0x0 DUP1 PUSH1 0x40 DUP4 DUP6 SUB SLT ISZERO PUSH2 0x45F7 JUMPI DUP2 DUP3 REVERT JUMPDEST DUP3 MLOAD PUSH2 0x4602 DUP2 PUSH2 0x4BE3 JUMP JUMPDEST PUSH1 0x20 DUP5 ADD MLOAD SWAP1 SWAP3 POP PUSH1 0x1 PUSH1 0x1 PUSH1 0x40 SHL SUB DUP2 GT ISZERO PUSH2 0x461D JUMPI DUP2 DUP3 REVERT JUMPDEST PUSH2 0x4629 DUP6 DUP3 DUP7 ADD PUSH2 0x3FB9 JUMP JUMPDEST SWAP2 POP POP SWAP3 POP SWAP3 SWAP1 POP JUMP JUMPDEST PUSH1 0x0 PUSH1 0x20 DUP3 DUP5 SUB SLT ISZERO PUSH2 0x4644 JUMPI DUP1 DUP2 REVERT JUMPDEST PUSH2 0x1517 DUP4 DUP4 PUSH2 0x409E JUMP JUMPDEST PUSH1 0x0 PUSH1 0x20 DUP3 DUP5 SUB SLT ISZERO PUSH2 0x465F JUMPI DUP1 DUP2 REVERT JUMPDEST POP MLOAD SWAP2 SWAP1 POP JUMP JUMPDEST PUSH1 0x0 DUP1 PUSH1 0x0 PUSH1 0x60 DUP5 DUP7 SUB SLT ISZERO PUSH2 0x467A JUMPI DUP1 DUP2 REVERT JUMPDEST DUP4 CALLDATALOAD PUSH1 0x1 PUSH1 0x1 PUSH1 0x40 SHL SUB DUP1 DUP3 GT ISZERO PUSH2 0x4690 JUMPI DUP3 DUP4 REVERT JUMPDEST DUP2 DUP7 ADD SWAP2 POP PUSH2 0x120 DUP1 DUP4 DUP10 SUB SLT ISZERO PUSH2 0x46A6 JUMPI DUP4 DUP5 REVERT JUMPDEST PUSH2 0x46AF DUP2 PUSH2 0x4B71 JUMP JUMPDEST SWAP1 POP PUSH2 0x46BB DUP9 DUP5 PUSH2 0x408F JUMP JUMPDEST DUP2 MSTORE PUSH2 0x46CA DUP9 PUSH1 0x20 DUP6 ADD PUSH2 0x3FAE JUMP JUMPDEST PUSH1 0x20 DUP3 ADD MSTORE PUSH2 0x46DC DUP9 PUSH1 0x40 DUP6 ADD PUSH2 0x3FAE JUMP JUMPDEST PUSH1 0x40 DUP3 ADD MSTORE PUSH1 0x60 DUP4 ADD CALLDATALOAD PUSH1 0x60 DUP3 ADD MSTORE PUSH1 0x80 DUP4 ADD CALLDATALOAD PUSH1 0x80 DUP3 ADD MSTORE PUSH1 0xA0 DUP4 ADD CALLDATALOAD PUSH1 0xA0 DUP3 ADD MSTORE PUSH2 0x470C DUP9 PUSH1 0xC0 DUP6 ADD PUSH2 0x3FAE JUMP JUMPDEST PUSH1 0xC0 DUP3 ADD MSTORE PUSH2 0x471E DUP9 PUSH1 0xE0 DUP6 ADD PUSH2 0x3FAE JUMP JUMPDEST PUSH1 0xE0 DUP3 ADD MSTORE PUSH2 0x100 DUP1 DUP5 ADD CALLDATALOAD DUP4 DUP2 GT ISZERO PUSH2 0x4736 JUMPI DUP6 DUP7 REVERT JUMPDEST PUSH2 0x4742 DUP11 DUP3 DUP8 ADD PUSH2 0x4027 JUMP JUMPDEST SWAP2 DUP4 ADD SWAP2 SWAP1 SWAP2 MSTORE POP SWAP8 PUSH1 0x20 DUP8 ADD CALLDATALOAD SWAP8 POP PUSH1 0x40 SWAP1 SWAP7 ADD CALLDATALOAD SWAP6 SWAP5 POP POP POP POP POP JUMP JUMPDEST PUSH1 0x0 PUSH1 0x20 DUP3 DUP5 SUB SLT ISZERO PUSH2 0x4772 JUMPI DUP1 DUP2 REVERT JUMPDEST POP CALLDATALOAD SWAP2 SWAP1 POP JUMP JUMPDEST PUSH1 0x0 DUP1 PUSH1 0x40 DUP4 DUP6 SUB SLT ISZERO PUSH2 0x478B JUMPI DUP2 DUP3 REVERT JUMPDEST POP POP DUP1 CALLDATALOAD SWAP3 PUSH1 0x20 SWAP1 SWAP2 ADD CALLDATALOAD SWAP2 POP JUMP JUMPDEST PUSH1 0x0 DUP1 PUSH1 0x0 PUSH1 0x60 DUP5 DUP7 SUB SLT ISZERO PUSH2 0x47AE JUMPI DUP1 DUP2 REVERT JUMPDEST DUP4 CALLDATALOAD SWAP3 POP PUSH1 0x20 DUP5 ADD CALLDATALOAD SWAP2 POP PUSH1 0x40 DUP5 ADD CALLDATALOAD PUSH2 0x47C7 DUP2 PUSH2 0x4BD5 JUMP JUMPDEST DUP1 SWAP2 POP POP SWAP3 POP SWAP3 POP SWAP3 JUMP JUMPDEST PUSH1 0x0 DUP2 MLOAD DUP1 DUP5 MSTORE PUSH1 0x20 DUP1 DUP6 ADD SWAP5 POP DUP1 DUP5 ADD DUP4 JUMPDEST DUP4 DUP2 LT ISZERO PUSH2 0x4801 JUMPI DUP2 MLOAD DUP8 MSTORE SWAP6 DUP3 ADD SWAP6 SWAP1 DUP3 ADD SWAP1 PUSH1 0x1 ADD PUSH2 0x47E5 JUMP JUMPDEST POP SWAP5 SWAP6 SWAP5 POP POP POP POP POP JUMP JUMPDEST SWAP2 DUP3 MSTORE PUSH1 0x1 PUSH1 0x1 PUSH1 0xE0 SHL SUB NOT AND PUSH1 0x20 DUP3 ADD MSTORE PUSH1 0x24 ADD SWAP1 JUMP JUMPDEST PUSH1 0x0 DUP3 DUP5 DUP4 CALLDATACOPY SWAP2 ADD SWAP1 DUP2 MSTORE SWAP2 SWAP1 POP JUMP JUMPDEST PUSH2 0x1901 PUSH1 0xF0 SHL DUP2 MSTORE PUSH1 0x2 DUP2 ADD SWAP3 SWAP1 SWAP3 MSTORE PUSH1 0x22 DUP3 ADD MSTORE PUSH1 0x42 ADD SWAP1 JUMP JUMPDEST PUSH1 0x1 PUSH1 0x1 PUSH1 0xA0 SHL SUB SWAP2 SWAP1 SWAP2 AND DUP2 MSTORE PUSH1 0x20 ADD SWAP1 JUMP JUMPDEST PUSH1 0x20 DUP1 DUP3 MSTORE DUP3 MLOAD DUP3 DUP3 ADD DUP2 SWAP1 MSTORE PUSH1 0x0 SWAP2 SWAP1 DUP5 DUP3 ADD SWAP1 PUSH1 0x40 DUP6 ADD SWAP1 DUP5 JUMPDEST DUP2 DUP2 LT ISZERO PUSH2 0x489B JUMPI DUP4 MLOAD DUP4 MSTORE SWAP3 DUP5 ADD SWAP3 SWAP2 DUP5 ADD SWAP2 PUSH1 0x1 ADD PUSH2 0x487F JUMP JUMPDEST POP SWAP1 SWAP7 SWAP6 POP POP POP POP POP POP JUMP JUMPDEST PUSH1 0x40 DUP2 ADD DUP2 DUP4 PUSH1 0x0 JUMPDEST PUSH1 0x2 DUP2 LT ISZERO PUSH2 0x48CF JUMPI DUP2 MLOAD DUP4 MSTORE PUSH1 0x20 SWAP3 DUP4 ADD SWAP3 SWAP1 SWAP2 ADD SWAP1 PUSH1 0x1 ADD PUSH2 0x48B0 JUMP JUMPDEST POP POP POP SWAP3 SWAP2 POP POP JUMP JUMPDEST PUSH1 0x0 PUSH1 0x20 DUP3 MSTORE PUSH2 0x1517 PUSH1 0x20 DUP4 ADD DUP5 PUSH2 0x47D2 JUMP JUMPDEST PUSH1 0x0 PUSH1 0x40 DUP3 MSTORE PUSH2 0x48FE PUSH1 0x40 DUP4 ADD DUP6 PUSH2 0x47D2 JUMP JUMPDEST DUP3 DUP2 SUB PUSH1 0x20 DUP5 ADD MSTORE PUSH2 0x228B DUP2 DUP6 PUSH2 0x47D2 JUMP JUMPDEST SWAP1 ISZERO ISZERO DUP2 MSTORE PUSH1 0x20 ADD SWAP1 JUMP JUMPDEST SWAP3 ISZERO ISZERO DUP4 MSTORE PUSH1 0x20 DUP4 ADD SWAP2 SWAP1 SWAP2 MSTORE PUSH1 0x40 DUP3 ADD MSTORE PUSH1 0x60 ADD SWAP1 JUMP JUMPDEST SWAP1 DUP2 MSTORE PUSH1 0x20 ADD SWAP1 JUMP JUMPDEST SWAP3 DUP4 MSTORE PUSH1 0x1 PUSH1 0x1 PUSH1 0xA0 SHL SUB SWAP2 DUP3 AND PUSH1 0x20 DUP5 ADD MSTORE AND PUSH1 0x40 DUP3 ADD MSTORE PUSH1 0x60 ADD SWAP1 JUMP JUMPDEST SWAP6 DUP7 MSTORE PUSH1 0x1 PUSH1 0x1 PUSH1 0xA0 SHL SUB SWAP5 DUP6 AND PUSH1 0x20 DUP8 ADD MSTORE SWAP3 SWAP1 SWAP4 AND PUSH1 0x40 DUP6 ADD MSTORE PUSH1 0x60 DUP5 ADD MSTORE PUSH1 0x80 DUP4 ADD SWAP2 SWAP1 SWAP2 MSTORE PUSH1 0xA0 DUP3 ADD MSTORE PUSH1 0xC0 ADD SWAP1 JUMP JUMPDEST SWAP5 DUP6 MSTORE PUSH1 0x20 DUP6 ADD SWAP4 SWAP1 SWAP4 MSTORE PUSH1 0x40 DUP5 ADD SWAP2 SWAP1 SWAP2 MSTORE PUSH1 0x60 DUP4 ADD MSTORE PUSH1 0x1 PUSH1 0x1 PUSH1 0xA0 SHL SUB AND PUSH1 0x80 DUP3 ADD MSTORE PUSH1 0xA0 ADD SWAP1 JUMP JUMPDEST SWAP4 DUP5 MSTORE PUSH1 0xFF SWAP3 SWAP1 SWAP3 AND PUSH1 0x20 DUP5 ADD MSTORE PUSH1 0x40 DUP4 ADD MSTORE PUSH1 0x60 DUP3 ADD MSTORE PUSH1 0x80 ADD SWAP1 JUMP JUMPDEST SWAP7 DUP8 MSTORE PUSH1 0x20 DUP8 ADD SWAP6 SWAP1 SWAP6 MSTORE PUSH1 0x40 DUP7 ADD SWAP4 SWAP1 SWAP4 MSTORE PUSH1 0x60 DUP6 ADD SWAP2 SWAP1 SWAP2 MSTORE PUSH1 0x80 DUP5 ADD MSTORE PUSH1 0xA0 DUP4 ADD MSTORE PUSH1 0xC0 DUP3 ADD MSTORE PUSH1 0xE0 ADD SWAP1 JUMP JUMPDEST SWAP6 DUP7 MSTORE PUSH1 0x20 DUP7 ADD SWAP5 SWAP1 SWAP5 MSTORE PUSH1 0x40 DUP6 ADD SWAP3 SWAP1 SWAP3 MSTORE PUSH1 0x60 DUP5 ADD MSTORE ISZERO ISZERO PUSH1 0x80 DUP4 ADD MSTORE PUSH1 0xA0 DUP3 ADD MSTORE PUSH1 0xC0 ADD SWAP1 JUMP JUMPDEST DUP4 DUP2 MSTORE PUSH1 0x60 DUP2 ADD PUSH2 0x4A43 DUP5 PUSH2 0x4BB6 JUMP JUMPDEST PUSH1 0x20 DUP3 ADD SWAP4 SWAP1 SWAP4 MSTORE PUSH1 0x40 ADD MSTORE SWAP2 SWAP1 POP JUMP JUMPDEST DUP5 DUP2 MSTORE PUSH1 0x80 DUP2 ADD PUSH2 0x4A64 DUP6 PUSH2 0x4BB6 JUMP JUMPDEST DUP5 PUSH1 0x20 DUP4 ADD MSTORE DUP4 PUSH1 0x40 DUP4 ADD MSTORE DUP3 PUSH1 0x60 DUP4 ADD MSTORE SWAP6 SWAP5 POP POP POP POP POP JUMP JUMPDEST DUP4 DUP2 MSTORE DUP3 MLOAD PUSH1 0xA0 DUP3 ADD SWAP1 PUSH2 0x4A92 DUP2 PUSH2 0x4BB6 JUMP JUMPDEST DUP1 PUSH1 0x20 DUP5 ADD MSTORE POP PUSH1 0x20 DUP5 ADD MLOAD PUSH1 0x40 DUP4 ADD MSTORE PUSH1 0x40 DUP5 ADD MLOAD PUSH1 0x60 DUP4 ADD MSTORE DUP3 PUSH1 0x80 DUP4 ADD MSTORE SWAP5 SWAP4 POP POP POP POP JUMP JUMPDEST PUSH1 0x0 PUSH1 0x20 DUP1 DUP4 MSTORE DUP4 MLOAD DUP1 DUP3 DUP6 ADD MSTORE DUP3 JUMPDEST DUP2 DUP2 LT ISZERO PUSH2 0x4AE7 JUMPI DUP6 DUP2 ADD DUP4 ADD MLOAD DUP6 DUP3 ADD PUSH1 0x40 ADD MSTORE DUP3 ADD PUSH2 0x4ACB JUMP JUMPDEST DUP2 DUP2 GT ISZERO PUSH2 0x4AF8 JUMPI DUP4 PUSH1 0x40 DUP4 DUP8 ADD ADD MSTORE JUMPDEST POP PUSH1 0x1F ADD PUSH1 0x1F NOT AND SWAP3 SWAP1 SWAP3 ADD PUSH1 0x40 ADD SWAP4 SWAP3 POP POP POP JUMP JUMPDEST PUSH1 0x20 DUP1 DUP3 MSTORE PUSH1 0xC SWAP1 DUP3 ADD MSTORE PUSH12 0x17DCDC5C9D08119052531151 PUSH1 0xA2 SHL PUSH1 0x40 DUP3 ADD MSTORE PUSH1 0x60 ADD SWAP1 JUMP JUMPDEST PUSH1 0x0 DUP4 DUP3 MSTORE PUSH1 0x40 PUSH1 0x20 DUP4 ADD MSTORE PUSH2 0x1FD4 PUSH1 0x40 DUP4 ADD DUP5 PUSH2 0x47D2 JUMP JUMPDEST SWAP3 DUP4 MSTORE PUSH1 0x20 DUP4 ADD SWAP2 SWAP1 SWAP2 MSTORE PUSH1 0x40 DUP3 ADD MSTORE PUSH1 0x60 ADD SWAP1 JUMP JUMPDEST PUSH1 0xFF SWAP2 SWAP1 SWAP2 AND DUP2 MSTORE PUSH1 0x20 ADD SWAP1 JUMP JUMPDEST PUSH1 0x40 MLOAD DUP2 DUP2 ADD PUSH1 0x1 PUSH1 0x1 PUSH1 0x40 SHL SUB DUP2 GT DUP3 DUP3 LT OR ISZERO PUSH2 0x4B8F JUMPI PUSH1 0x0 DUP1 REVERT JUMPDEST PUSH1 0x40 MSTORE SWAP2 SWAP1 POP JUMP JUMPDEST PUSH1 0x0 PUSH1 0x1 PUSH1 0x1 PUSH1 0x40 SHL SUB DUP3 GT ISZERO PUSH2 0x4BAC JUMPI DUP1 DUP2 REVERT JUMPDEST POP PUSH1 0x20 SWAP1 DUP2 MUL ADD SWAP1 JUMP JUMPDEST PUSH1 0x3 DUP2 LT PUSH2 0x679 JUMPI INVALID JUMPDEST PUSH1 0x1 PUSH1 0x1 PUSH1 0xA0 SHL SUB DUP2 AND DUP2 EQ PUSH2 0x679 JUMPI PUSH1 0x0 DUP1 REVERT JUMPDEST DUP1 ISZERO ISZERO DUP2 EQ PUSH2 0x679 JUMPI PUSH1 0x0 DUP1 REVERT JUMPDEST PUSH1 0x4 DUP2 LT PUSH2 0x679 JUMPI PUSH1 0x0 DUP1 REVERT INVALID LOG2 PUSH5 0x6970667358 0x22 SLT KECCAK256 0xCA 0xED 0x5C PUSH2 0xC26E 0xC0 PUSH11 0x87F86DDC8AFED6A0CFB5DE 0x48 SELFBALANCE SWAP4 PUSH16 0x1F42074E82BA4AE01364736F6C634300 SMOD ADD STOP CALLER ","sha1":"6de5f05fe2ebbcdefbe855d2bc0ba12d3a678bac","source":"// SPDX-License-Identifier: GPL-3.0-or-later\n// This program is free software: you can redistribute it and/or modify\n// it under the terms of the GNU General Public License as published by\n// the Free Software Foundation, either version 3 of the License, or\n// (at your option) any later version.\n\n// This program is distributed in the hope that it will be useful,\n// but WITHOUT ANY WARRANTY; without even the implied warranty of\n// MERCHANTABILITY or FITNESS FOR A PARTICULAR PURPOSE.  See the\n// GNU General Public License for more details.\n\n// You should have received a copy of the GNU General Public License\n// along with this program.  If not, see <http://www.gnu.org/licenses/>.\n\npragma solidity ^0.7.0;\npragma experimental ABIEncoderV2;\n\nimport \"@balancer-labs/v2-solidity-utils/contracts/math/FixedPoint.sol\";\n\nimport \"@balancer-labs/v2-pool-weighted/contracts/WeightedPoolUserDataHelpers.sol\";\nimport \"@balancer-labs/v2-pool-weighted/contracts/WeightedPool2TokensMiscData.sol\";\n\nimport \"../../libraries/GyroConfigKeys.sol\";\nimport \"../../interfaces/IGyroConfig.sol\";\nimport \"../../libraries/GyroPoolMath.sol\";\n\nimport \"./ExtensibleWeightedPool2Tokens.sol\";\nimport \"./Gyro2PoolErrors.sol\";\nimport \"./GyroTwoMath.sol\";\nimport \"./GyroTwoOracleMath.sol\";\n\ncontract GyroTwoPool is ExtensibleWeightedPool2Tokens, GyroTwoOracleMath {\n    using FixedPoint for uint256;\n    using WeightedPoolUserDataHelpers for bytes;\n    using WeightedPool2TokensMiscData for bytes32;\n\n    uint256 private immutable _sqrtAlpha;\n    uint256 private immutable _sqrtBeta;\n\n    IGyroConfig public gyroConfig;\n\n    struct GyroParams {\n        NewPoolParams baseParams;\n        uint256 sqrtAlpha; // A: Should already be upscaled\n        uint256 sqrtBeta; // A: Should already be upscaled. Could be passed as an array[](2)\n    }\n\n    constructor(GyroParams memory params, address configAddress) ExtensibleWeightedPool2Tokens(params.baseParams) {\n        _require(params.sqrtAlpha < params.sqrtBeta, Gyro2PoolErrors.SQRT_PARAMS_WRONG);\n        _sqrtAlpha = params.sqrtAlpha;\n        _sqrtBeta = params.sqrtBeta;\n\n        gyroConfig = IGyroConfig(configAddress);\n    }\n\n    // Returns sqrtAlpha and sqrtBeta (square roots of lower and upper price bounds of p_x respectively)\n\n    function getSqrtParameters() external view returns (uint256[2] memory) {\n        return _sqrtParameters();\n    }\n\n    function _sqrtParameters() internal view virtual returns (uint256[2] memory virtualParameters) {\n        virtualParameters[0] = _sqrtParameters(true);\n        virtualParameters[1] = _sqrtParameters(false);\n        return virtualParameters;\n    }\n\n    function _sqrtParameters(bool parameter0) internal view virtual returns (uint256) {\n        return parameter0 ? _sqrtAlpha : _sqrtBeta;\n    }\n\n    /// @dev Returns virtual offsets a and b for reserves x and y respectively, as in (x+a)*(y+b)=L^2\n    function getVirtualParameters() external view returns (uint256[] memory virtualParams) {\n        (, uint256[] memory balances, ) = getVault().getPoolTokens(getPoolId());\n        // _calculateCurrentValues() is defined in terms of an in/out pair, but we just map this to the 0/1 (x/y) pair.\n        _upscaleArray(balances);\n        (, virtualParams[0], virtualParams[1]) = _calculateCurrentValues(balances[0], balances[1], true);\n    }\n\n    function _getVirtualParameters(uint256[2] memory sqrtParams, uint256 invariant)\n        internal\n        view\n        virtual\n        returns (uint256[2] memory virtualParameters)\n    {\n        virtualParameters[0] = _virtualParameters(true, sqrtParams[1], invariant);\n        virtualParameters[1] = _virtualParameters(false, sqrtParams[0], invariant);\n        return virtualParameters;\n    }\n\n    function _virtualParameters(\n        bool parameter0,\n        uint256 sqrtParam,\n        uint256 invariant\n    ) internal view virtual returns (uint256) {\n        return\n            parameter0\n                ? (GyroTwoMath._calculateVirtualParameter0(invariant, sqrtParam))\n                : (GyroTwoMath._calculateVirtualParameter1(invariant, sqrtParam));\n    }\n\n    /**\n     * @dev Returns the current value of the invariant.\n     */\n    function getInvariant() public view override returns (uint256) {\n        (, uint256[] memory balances, ) = getVault().getPoolTokens(getPoolId());\n        uint256[2] memory sqrtParams = _sqrtParameters();\n\n        // Since the Pool hooks always work with upscaled balances, we manually\n        // upscale here for consistency\n        _upscaleArray(balances);\n\n        return GyroTwoMath._calculateInvariant(balances, sqrtParams[0], sqrtParams[1]);\n    }\n\n    // Swap Hooks\n\n    function onSwap(\n        SwapRequest memory request,\n        uint256 balanceTokenIn,\n        uint256 balanceTokenOut\n    ) public virtual override whenNotPaused onlyVault(request.poolId) returns (uint256) {\n        bool tokenInIsToken0 = request.tokenIn == _token0;\n\n        uint256 scalingFactorTokenIn = _scalingFactor(tokenInIsToken0);\n        uint256 scalingFactorTokenOut = _scalingFactor(!tokenInIsToken0);\n\n        // All token amounts are upscaled.\n        balanceTokenIn = _upscale(balanceTokenIn, scalingFactorTokenIn);\n        balanceTokenOut = _upscale(balanceTokenOut, scalingFactorTokenOut);\n\n        // All the calculations in one function to avoid Error Stack Too Deep\n        (uint256 currentInvariant, uint256 virtualParamIn, uint256 virtualParamOut) = _calculateCurrentValues(\n            balanceTokenIn,\n            balanceTokenOut,\n            tokenInIsToken0\n        );\n\n        // Update price oracle with the pre-swap balances\n        _updateOracle(\n            request.lastChangeBlock,\n            tokenInIsToken0 ? balanceTokenIn : balanceTokenOut,\n            tokenInIsToken0 ? balanceTokenOut : balanceTokenIn,\n            tokenInIsToken0 ? virtualParamIn : virtualParamOut,\n            tokenInIsToken0 ? virtualParamOut : virtualParamIn\n        );\n\n        if (request.kind == IVault.SwapKind.GIVEN_IN) {\n            // Fees are subtracted before scaling, to reduce the complexity of the rounding direction analysis.\n            // This is amount - fee amount, so we round up (favoring a higher fee amount).\n            uint256 feeAmount = request.amount.mulUp(getSwapFeePercentage());\n            // TODO check this call: why do we need to upscale? Should we downscale??\n            request.amount = _upscale(request.amount.sub(feeAmount), scalingFactorTokenIn);\n\n            uint256 amountOut = _onSwapGivenIn(request, balanceTokenIn, balanceTokenOut, virtualParamIn, virtualParamOut);\n\n            // amountOut tokens are exiting the Pool, so we round down.\n            return _downscaleDown(amountOut, scalingFactorTokenOut);\n        } else {\n            request.amount = _upscale(request.amount, scalingFactorTokenOut);\n\n            uint256 amountIn = _onSwapGivenOut(request, balanceTokenIn, balanceTokenOut, virtualParamIn, virtualParamOut);\n\n            // amountIn tokens are entering the Pool, so we round up.\n            amountIn = _downscaleUp(amountIn, scalingFactorTokenIn);\n\n            // Fees are added after scaling happens, to reduce the complexity of the rounding direction analysis.\n            // This is amount + fee amount, so we round up (favoring a higher fee amount).\n            return amountIn.divUp(getSwapFeePercentage().complement());\n        }\n    }\n\n    function _onSwapGivenIn(\n        SwapRequest memory swapRequest,\n        uint256 currentBalanceTokenIn,\n        uint256 currentBalanceTokenOut,\n        uint256 virtualParamIn,\n        uint256 virtualParamOut\n    ) internal pure override returns (uint256) {\n        // Swaps are disabled while the contract is paused.\n        return GyroTwoMath._calcOutGivenIn(currentBalanceTokenIn, currentBalanceTokenOut, swapRequest.amount, virtualParamIn, virtualParamOut);\n    }\n\n    function _onSwapGivenOut(\n        SwapRequest memory swapRequest,\n        uint256 currentBalanceTokenIn,\n        uint256 currentBalanceTokenOut,\n        uint256 virtualParamIn,\n        uint256 virtualParamOut\n    ) internal pure override returns (uint256) {\n        // Swaps are disabled while the contract is paused.\n        return GyroTwoMath._calcInGivenOut(currentBalanceTokenIn, currentBalanceTokenOut, swapRequest.amount, virtualParamIn, virtualParamOut);\n    }\n\n    function calculateCurrentValues(\n        uint256 balanceTokenIn,\n        uint256 balanceTokenOut,\n        bool tokenInIsToken0\n    )\n        public\n        view\n        returns (\n            uint256 currentInvariant,\n            uint256 virtualParamIn,\n            uint256 virtualParamOut\n        )\n    {\n        uint256 scalingFactorTokenIn = _scalingFactor(tokenInIsToken0);\n        uint256 scalingFactorTokenOut = _scalingFactor(!tokenInIsToken0);\n        balanceTokenIn = _upscale(balanceTokenIn, scalingFactorTokenIn);\n        balanceTokenOut = _upscale(balanceTokenOut, scalingFactorTokenOut);\n        return _calculateCurrentValues(balanceTokenIn, balanceTokenOut, tokenInIsToken0);\n    }\n\n    function _calculateCurrentValues(\n        uint256 balanceTokenIn,\n        uint256 balanceTokenOut,\n        bool tokenInIsToken0\n    )\n        internal\n        view\n        returns (\n            uint256 currentInvariant,\n            uint256 virtualParamIn,\n            uint256 virtualParamOut\n        )\n    {\n        // if we have more tokens we might need to get the balances from the Vault\n        uint256[] memory balances = new uint256[](2);\n        balances[0] = tokenInIsToken0 ? balanceTokenIn : balanceTokenOut;\n        balances[1] = tokenInIsToken0 ? balanceTokenOut : balanceTokenIn;\n\n        uint256[2] memory sqrtParams = _sqrtParameters();\n\n        currentInvariant = GyroTwoMath._calculateInvariant(balances, sqrtParams[0], sqrtParams[1]);\n\n        uint256[2] memory virtualParam = _getVirtualParameters(sqrtParams, currentInvariant);\n\n        virtualParamIn = tokenInIsToken0 ? virtualParam[0] : virtualParam[1];\n        virtualParamOut = tokenInIsToken0 ? virtualParam[1] : virtualParam[0];\n    }\n\n    //Note: is public visibility ok for the following function?\n\n    /**\n     * @dev Called when the Pool is joined for the first time; that is, when the BPT total supply is zero.\n     *\n     * Returns the amount of BPT to mint, and the token amounts the Pool will receive in return.\n     *\n     * Minted BPT will be sent to `recipient`, except for _MINIMUM_BPT, which will be deducted from this amount and sent\n     * to the zero address instead. This will cause that BPT to remain forever locked there, preventing total BTP from\n     * ever dropping below that value, and ensuring `_onInitializePool` can only be called once in the entire Pool's\n     * lifetime.\n     *\n     * The tokens granted to the Pool will be transferred from `sender`. These amounts are considered upscaled and will\n     * be downscaled (rounding up) before being returned to the Vault.\n     */\n    function _onInitializePool(\n        bytes32,\n        address,\n        address,\n        bytes memory userData\n    ) internal override returns (uint256, uint256[] memory) {\n        BaseWeightedPool.JoinKind kind = userData.joinKind();\n        _require(kind == BaseWeightedPool.JoinKind.INIT, Errors.UNINITIALIZED);\n\n        uint256[] memory amountsIn = userData.initialAmountsIn();\n        InputHelpers.ensureInputLengthMatch(amountsIn.length, 2);\n        _upscaleArray(amountsIn);\n\n        uint256[2] memory sqrtParams = _sqrtParameters();\n\n        uint256 invariantAfterJoin = GyroTwoMath._calculateInvariant(amountsIn, sqrtParams[0], sqrtParams[1]);\n\n        // Set the initial BPT to the value of the invariant times the number of tokens. This makes BPT supply more\n        // consistent in Pools with similar compositions but different number of tokens.\n\n        uint256 bptAmountOut = Math.mul(invariantAfterJoin, 2);\n\n        _lastInvariant = invariantAfterJoin;\n\n        return (bptAmountOut, amountsIn);\n    }\n\n    /**\n     * @dev Called whenever the Pool is joined after the first initialization join (see `_onInitializePool`).\n     *\n     * Returns the amount of BPT to mint, the token amounts that the Pool will receive in return, and the number of\n     * tokens to pay in protocol swap fees.\n     *\n     * Implementations of this function might choose to mutate the `balances` array to save gas (e.g. when\n     * performing intermediate calculations, such as subtraction of due protocol fees). This can be done safely.\n     *\n     * Minted BPT will be sent to `recipient`.\n     *\n     * The tokens granted to the Pool will be transferred from `sender`. These amounts are considered upscaled and will\n     * be downscaled (rounding up) before being returned to the Vault.\n     *\n     * Due protocol swap fees will be taken from the Pool's balance in the Vault (see `IBasePool.onJoinPool`). These\n     * amounts are considered upscaled and will be downscaled (rounding down) before being returned to the Vault.\n     *\n     * protocolSwapFeePercentage argument is intentionally unused as protocol fees are handled in a different way\n     *\n     * Responsibility for updating the oracle has been moved from `onJoinPool()` (without the underscore) to this function. That is because both this function and `_updateOracle()` need access to the invariant and this way we can share the computation.\n     */\n    function _onJoinPool(\n        bytes32,\n        address,\n        address,\n        uint256[] memory balances,\n        uint256 lastChangeBlock,\n        uint256, //protocolSwapFeePercentage,\n        bytes memory userData\n    )\n        internal\n        override\n        returns (\n            uint256,\n            uint256[] memory,\n            uint256[] memory\n        )\n    {\n        uint256[2] memory sqrtParams = _sqrtParameters();\n\n        // Due protocol swap fee amounts are computed by measuring the growth of the invariant between the previous\n        // join or exit event and now - the invariant's growth is due exclusively to swap fees. This avoids\n        // spending gas calculating the fees on each individual swap.\n        uint256 invariantBeforeAction = GyroTwoMath._calculateInvariant(balances, sqrtParams[0], sqrtParams[1]);\n        uint256[2] memory virtualParam = _getVirtualParameters(sqrtParams, invariantBeforeAction);\n\n        // Update price oracle with pre-join balances\n        _updateOracle(lastChangeBlock, balances[0], balances[1], virtualParam[0], virtualParam[1]);\n\n        _distributeFees(invariantBeforeAction);\n\n        (uint256 bptAmountOut, uint256[] memory amountsIn) = _doJoin(balances, userData);\n\n        // Since we pay fees in BPT, they have not changed the invariant and 'invariantBeforeAction' is still consistent with\n        // 'balances'. Therefore, we can use a simplified method to update the invariant that does not require a full\n        // re-computation.\n        // Note: Should this be changed in the future, we also need to reduce the invariant proportionally by the total\n        // protocol fee factor.\n        _lastInvariant = GyroPoolMath.liquidityInvariantUpdate(invariantBeforeAction, bptAmountOut, totalSupply(), true);\n\n        // returns a new uint256[](2) b/c Balancer vault is expecting a fee array, but fees paid in BPT instead\n        return (bptAmountOut, amountsIn, new uint256[](2));\n    }\n\n    function _doJoin(uint256[] memory balances, bytes memory userData) internal view returns (uint256 bptAmountOut, uint256[] memory amountsIn) {\n        BaseWeightedPool.JoinKind kind = userData.joinKind();\n\n        // We do NOT currently support unbalanced update, i.e., EXACT_TOKENS_IN_FOR_BPT_OUT or TOKEN_IN_FOR_EXACT_BPT_OUT\n        if (kind == BaseWeightedPool.JoinKind.ALL_TOKENS_IN_FOR_EXACT_BPT_OUT) {\n            (bptAmountOut, amountsIn) = _joinAllTokensInForExactBPTOut(balances, userData);\n        } else {\n            _revert(Errors.UNHANDLED_JOIN_KIND);\n        }\n    }\n\n    function _joinAllTokensInForExactBPTOut(uint256[] memory balances, bytes memory userData)\n        internal\n        view\n        override\n        returns (uint256, uint256[] memory)\n    {\n        uint256 bptAmountOut = userData.allTokensInForExactBptOut();\n        // Note that there is no maximum amountsIn parameter: this is handled by `IVault.joinPool`.\n\n        uint256[] memory amountsIn = GyroPoolMath._calcAllTokensInGivenExactBptOut(balances, bptAmountOut, totalSupply());\n\n        return (bptAmountOut, amountsIn);\n    }\n\n    /**\n     * @dev Called whenever the Pool is exited.\n     *\n     * Returns the amount of BPT to burn, the token amounts for each Pool token that the Pool will grant in return, and\n     * the number of tokens to pay in protocol swap fees.\n     *\n     * Implementations of this function might choose to mutate the `balances` array to save gas (e.g. when\n     * performing intermediate calculations, such as subtraction of due protocol fees). This can be done safely.\n     *\n     * BPT will be burnt from `sender`.\n     *\n     * The Pool will grant tokens to `recipient`. These amounts are considered upscaled and will be downscaled\n     * (rounding down) before being returned to the Vault.\n     *\n     * Due protocol swap fees will be taken from the Pool's balance in the Vault (see `IBasePool.onExitPool`). These\n     * amounts are considered upscaled and will be downscaled (rounding down) before being returned to the Vault.\n     *\n     * protocolSwapFeePercentage argument is intentionally unused as protocol fees are handled in a different way\n     */\n    function _onExitPool(\n        bytes32,\n        address,\n        address,\n        uint256[] memory balances,\n        uint256 lastChangeBlock,\n        uint256, // protocolSwapFeePercentage,\n        bytes memory userData\n    )\n        internal\n        override\n        returns (\n            uint256 bptAmountIn,\n            uint256[] memory amountsOut,\n            uint256[] memory dueProtocolFeeAmounts\n        )\n    {\n        // Exits are not completely disabled while the contract is paused: proportional exits (exact BPT in for tokens\n        // out) remain functional.\n\n        uint256[2] memory sqrtParams = _sqrtParameters();\n\n        // Note: If the contract is paused, swap protocol fee amounts are not charged and the oracle is not updated\n        // to avoid extra calculations and reduce the potential for errors.\n        if (_isNotPaused()) {\n            // Due protocol swap fee amounts are computed by measuring the growth of the invariant between the previous\n            // join or exit event and now - the invariant's growth is due exclusively to swap fees. This avoids\n            // spending gas calculating the fees on each individual swap.\n            uint256 invariantBeforeAction = GyroTwoMath._calculateInvariant(balances, sqrtParams[0], sqrtParams[1]);\n            uint256[2] memory virtualParam = _getVirtualParameters(sqrtParams, invariantBeforeAction);\n\n            // Update price oracle with the pre-exit balances\n            _updateOracle(lastChangeBlock, balances[0], balances[1], virtualParam[0], virtualParam[1]);\n\n            _distributeFees(invariantBeforeAction);\n\n            (bptAmountIn, amountsOut) = _doExit(balances, userData);\n\n            // Since we pay fees in BPT, they have not changed the invariant and 'invariantBeforeAction' is still consistent with\n            // 'balances'. Therefore, we can use a simplified method to update the invariant that does not require a full\n            // re-computation.\n            // Note: Should this be changed in the future, we also need to reduce the invariant proportionally by the total\n            // protocol fee factor.\n            _lastInvariant = GyroPoolMath.liquidityInvariantUpdate(invariantBeforeAction, bptAmountIn, totalSupply(), false);\n        } else {\n            // Note: If the contract is paused, swap protocol fee amounts are not charged and the oracle is not updated\n            // to avoid extra calculations and reduce the potential for errors.\n            (bptAmountIn, amountsOut) = _doExit(balances, userData);\n\n            // Invalidate _lastInvariant. We do not compute the invariant to make sure the pool is not locking\n            // up b/c numerical limits might be violated. Instead, we set the invariant such that any following\n            // (non-paused) join/exit will ignore and recompute it. (see GyroPoolMath._calcProtocolFees())\n            _lastInvariant = type(uint256).max;\n        }\n\n        // returns a new uint256[](2) b/c Balancer vault is expecting a fee array, but fees paid in BPT instead\n        return (bptAmountIn, amountsOut, new uint256[](2));\n    }\n\n    function _doExit(uint256[] memory balances, bytes memory userData) internal view returns (uint256 bptAmountIn, uint256[] memory amountsOut) {\n        BaseWeightedPool.ExitKind kind = userData.exitKind();\n\n        // We do NOT support unbalanced exit at the moment, i.e., EXACT_BPT_IN_FOR_ONE_TOKEN_OUT or\n        // BPT_IN_FOR_EXACT_TOKENS_OUT.\n        if (kind == BaseWeightedPool.ExitKind.EXACT_BPT_IN_FOR_TOKENS_OUT) {\n            (bptAmountIn, amountsOut) = _exitExactBPTInForTokensOut(balances, userData);\n        } else {\n            _revert(Errors.UNHANDLED_EXIT_KIND);\n        }\n    }\n\n    function _exitExactBPTInForTokensOut(uint256[] memory balances, bytes memory userData)\n        internal\n        view\n        override\n        returns (uint256, uint256[] memory)\n    {\n        // This exit function is the only one that is not disabled if the contract is paused: it remains unrestricted\n        // in an attempt to provide users with a mechanism to retrieve their tokens in case of an emergency.\n        // This particular exit function is the only one that remains available because it is the simplest one, and\n        // therefore the one with the lowest likelihood of errors.\n\n        uint256 bptAmountIn = userData.exactBptInForTokensOut();\n        // Note that there is no minimum amountOut parameter: this is handled by `IVault.exitPool`.\n\n        uint256[] memory amountsOut = GyroPoolMath._calcTokensOutGivenExactBptIn(balances, bptAmountIn, totalSupply());\n        return (bptAmountIn, amountsOut);\n    }\n\n    // Helpers\n\n    /**\n     * @dev Computes and distributes fees between the Balancer and the Gyro treasury\n     * The fees are computed and distributed in BPT rather than using the\n     * Balancer regular distribution mechanism which would pay these in underlying\n     */\n\n    function _distributeFees(uint256 invariantBeforeAction) internal {\n        // calculate Protocol fees in BPT\n        // lastInvariant is the invariant logged at the end of the last liquidity update\n        // protocol fees are calculated on swap fees earned between liquidity updates\n        (uint256 gyroFees, uint256 balancerFees, address gyroTreasury, address balTreasury) = _getDueProtocolFeeAmounts(\n            _lastInvariant,\n            invariantBeforeAction\n        );\n\n        // Pay fees in BPT\n        _payFeesBpt(gyroFees, balancerFees, gyroTreasury, balTreasury);\n    }\n\n    /**\n     * @dev this function overrides inherited function to make sure it is never used\n     */\n    function _getDueProtocolFeeAmounts(\n        uint256[] memory, // balances,\n        uint256[] memory, // normalizedWeights,\n        uint256, // previousInvariant,\n        uint256, // currentInvariant,\n        uint256 // protocolSwapFeePercentage\n    ) internal pure override returns (uint256[] memory) {\n        revert(\"Not implemented\");\n    }\n\n    /**\n     * @dev Calculates protocol fee amounts in BPT terms.\n     * protocolSwapFeePercentage is not used here b/c we take parameters from GyroConfig instead.\n     * Returns: BPT due to Gyro, BPT due to Balancer, receiving address for Gyro fees, receiving address for Balancer\n     * fees.\n     */\n    function _getDueProtocolFeeAmounts(uint256 previousInvariant, uint256 currentInvariant)\n        internal\n        view\n        returns (\n            uint256,\n            uint256,\n            address,\n            address\n        )\n    {\n        (uint256 protocolSwapFeePerc, uint256 protocolFeeGyroPortion, address gyroTreasury, address balTreasury) = _getFeesMetadata();\n\n        // Early return if the protocol swap fee percentage is zero, saving gas.\n        if (protocolSwapFeePerc == 0) {\n            return (0, 0, gyroTreasury, balTreasury);\n        }\n\n        // Calculate fees in BPT\n        (uint256 gyroFees, uint256 balancerFees) = GyroPoolMath._calcProtocolFees(\n            previousInvariant,\n            currentInvariant,\n            totalSupply(),\n            protocolSwapFeePerc,\n            protocolFeeGyroPortion\n        );\n\n        return (gyroFees, balancerFees, gyroTreasury, balTreasury);\n    }\n\n    function _payFeesBpt(\n        uint256 gyroFees,\n        uint256 balancerFees,\n        address gyroTreasury,\n        address balTreasury\n    ) internal {\n        // Pay fees in BPT to gyro treasury\n        if (gyroFees > 0) {\n            _mintPoolTokens(gyroTreasury, gyroFees);\n        }\n        // Pay fees in BPT to bal treasury\n        if (balancerFees > 0) {\n            _mintPoolTokens(balTreasury, balancerFees);\n        }\n    }\n\n    function _getFeesMetadata()\n        internal\n        view\n        returns (\n            uint256,\n            uint256,\n            address,\n            address\n        )\n    {\n        return (\n            gyroConfig.getUint(GyroConfigKeys.PROTOCOL_SWAP_FEE_PERC_KEY),\n            gyroConfig.getUint(GyroConfigKeys.PROTOCOL_FEE_GYRO_PORTION_KEY),\n            gyroConfig.getAddress(GyroConfigKeys.GYRO_TREASURY_KEY),\n            gyroConfig.getAddress(GyroConfigKeys.BAL_TREASURY_KEY)\n        );\n    }\n\n    /**\n     * @dev Updates the Price Oracle based on the Pool's current state (balances, BPT supply and invariant). Must be\n     * called on *all* state-changing functions with the balances *before* the state change happens, and with\n     * `lastChangeBlock` as the number of the block in which any of the balances last changed.\n     */\n    function _updateOracle(\n        uint256 lastChangeBlock,\n        uint256 balanceToken0,\n        uint256 balanceToken1,\n        uint256 virtualParam0,\n        uint256 virtualParam1\n    ) internal {\n        bytes32 miscData = _miscData;\n        if (miscData.oracleEnabled() && block.number > lastChangeBlock) {\n            int256 logSpotPrice = GyroTwoOracleMath._calcLogSpotPrice(balanceToken0, virtualParam0, balanceToken1, virtualParam1);\n\n            int256 logBPTPrice = GyroTwoOracleMath._calcLogBPTPrice(\n                balanceToken0,\n                virtualParam0,\n                balanceToken1,\n                virtualParam1,\n                miscData.logTotalSupply()\n            );\n\n            uint256 oracleCurrentIndex = miscData.oracleIndex();\n            uint256 oracleCurrentSampleInitialTimestamp = miscData.oracleSampleCreationTimestamp();\n            uint256 oracleUpdatedIndex = _processPriceData(\n                oracleCurrentSampleInitialTimestamp,\n                oracleCurrentIndex,\n                logSpotPrice,\n                logBPTPrice,\n                miscData.logInvariant()\n            );\n\n            if (oracleCurrentIndex != oracleUpdatedIndex) {\n                // solhint-disable not-rely-on-time\n                miscData = miscData.setOracleIndex(oracleUpdatedIndex);\n                miscData = miscData.setOracleSampleCreationTimestamp(block.timestamp);\n                _miscData = miscData;\n            }\n        }\n    }\n\n    /**\n     * @dev this variant of the function, called from `onJoinPool()` and `onExitPool()`, which we inherit, is a no-op. We instead have moved responsibility for updating the oracle to `_onJoinPool()` and `_onExitPool()` and the above version is called from there.\n     */\n    function _updateOracle(\n        uint256 lastChangeBlock,\n        uint256 balanceToken0,\n        uint256 balanceToken1\n    ) internal override {\n        // Do nothing.\n    }\n}\n","sourcePath":"contracts/cpmmv-2/GyroTwoPool.sol","type":"contract","deployment":{"address":"0x3E3f680386D280c8Eb637965e275faAB8FEF224D","chainid":"42","blockHeight":32557949}}