{"abi":[{"inputs":[],"stateMutability":"nonpayable","type":"constructor","name":"constructor"},{"anonymous":false,"inputs":[{"indexed":false,"internalType":"bytes32","name":"key","type":"bytes32"},{"indexed":false,"internalType":"uint256","name":"previousValue","type":"uint256"},{"indexed":false,"internalType":"uint256","name":"newValue","type":"uint256"}],"name":"ConfigChanged","type":"event"},{"anonymous":false,"inputs":[{"indexed":false,"internalType":"bytes32","name":"key","type":"bytes32"},{"indexed":false,"internalType":"address","name":"previousValue","type":"address"},{"indexed":false,"internalType":"address","name":"newValue","type":"address"}],"name":"ConfigChanged","type":"event"},{"anonymous":false,"inputs":[{"indexed":true,"internalType":"address","name":"previousOwner","type":"address"},{"indexed":true,"internalType":"address","name":"newOwner","type":"address"}],"name":"OwnershipTransferred","type":"event"},{"inputs":[{"internalType":"bytes32","name":"key","type":"bytes32"}],"name":"getAddress","outputs":[{"internalType":"address","name":"","type":"address"}],"stateMutability":"view","type":"function"},{"inputs":[{"internalType":"bytes32","name":"key","type":"bytes32"}],"name":"getUint","outputs":[{"internalType":"uint256","name":"","type":"uint256"}],"stateMutability":"view","type":"function"},{"inputs":[],"name":"listKeys","outputs":[{"internalType":"bytes32[]","name":"","type":"bytes32[]"}],"stateMutability":"pure","type":"function"},{"inputs":[],"name":"owner","outputs":[{"internalType":"address","name":"","type":"address"}],"stateMutability":"view","type":"function"},{"inputs":[],"name":"renounceOwnership","outputs":[],"stateMutability":"nonpayable","type":"function"},{"inputs":[{"internalType":"bytes32","name":"key","type":"bytes32"},{"internalType":"address","name":"newValue","type":"address"}],"name":"setAddress","outputs":[],"stateMutability":"nonpayable","type":"function"},{"inputs":[{"internalType":"bytes32","name":"key","type":"bytes32"},{"internalType":"uint256","name":"newValue","type":"uint256"}],"name":"setUint","outputs":[],"stateMutability":"nonpayable","type":"function"},{"inputs":[{"internalType":"address","name":"newOwner","type":"address"}],"name":"transferOwnership","outputs":[],"stateMutability":"nonpayable","type":"function"}],"bytecode":"608060405234801561001057600080fd5b50600061001b6100be565b600080546001600160a01b0319166001600160a01b0383169081178255604051929350917f8be0079c531659141344cd1fd0a4f28419497f9722a3daafe3b4186f6b6457e0908290a3507f50524f544f434f4c5f4645455f4759524f5f504f5254494f4e000000000000006000526001602052670de0b6b3a76400007fce9c235c5170ee29656208c922e2a4c292c6ec8c717c75a8e48b92bd48b178ed556100c2565b3390565b61062c806100d16000396000f3fe608060405234801561001057600080fd5b50600436106100885760003560e01c8063ca446dd91161005b578063ca446dd914610107578063e2a4853a14610133578063f2fde38b14610156578063fd322c141461017c57610088565b806321f8a7211461008d578063715018a6146100c65780638da5cb5b146100d0578063bd02d0f5146100d8575b600080fd5b6100aa600480360360208110156100a357600080fd5b50356101d4565b604080516001600160a01b039092168252519081900360200190f35b6100ce6101ef565b005b6100aa61029b565b6100f5600480360360208110156100ee57600080fd5b50356102aa565b60408051918252519081900360200190f35b6100ce6004803603604081101561011d57600080fd5b50803590602001356001600160a01b03166102bc565b6100ce6004803603604081101561014957600080fd5b508035906020013561034c565b6100ce6004803603602081101561016c57600080fd5b50356001600160a01b03166103c0565b6101846104c2565b60408051602080825283518183015283519192839290830191858101910280838360005b838110156101c05781810151838201526020016101a8565b505050509050019250505060405180910390f35b6000908152600260205260409020546001600160a01b031690565b6101f76105ac565b6001600160a01b031661020861029b565b6001600160a01b031614610251576040805162461bcd60e51b815260206004820181905260248201526000805160206105d7833981519152604482015290519081900360640190fd5b600080546040516001600160a01b03909116907f8be0079c531659141344cd1fd0a4f28419497f9722a3daafe3b4186f6b6457e0908390a3600080546001600160a01b0319169055565b6000546001600160a01b031690565b60009081526001602052604090205490565b6102c46105ac565b6001600160a01b03166102d561029b565b6001600160a01b03161461031e576040805162461bcd60e51b815260206004820181905260248201526000805160206105d7833981519152604482015290519081900360640190fd5b60009182526002602052604090912080546001600160a01b0319166001600160a01b03909216919091179055565b6103546105ac565b6001600160a01b031661036561029b565b6001600160a01b0316146103ae576040805162461bcd60e51b815260206004820181905260248201526000805160206105d7833981519152604482015290519081900360640190fd5b60009182526001602052604090912055565b6103c86105ac565b6001600160a01b03166103d961029b565b6001600160a01b031614610422576040805162461bcd60e51b815260206004820181905260248201526000805160206105d7833981519152604482015290519081900360640190fd5b6001600160a01b0381166104675760405162461bcd60e51b81526004018080602001828103825260268152602001806105b16026913960400191505060405180910390fd5b600080546040516001600160a01b03808516939216917f8be0079c531659141344cd1fd0a4f28419497f9722a3daafe3b4186f6b6457e091a3600080546001600160a01b0319166001600160a01b0392909216919091179055565b60408051600480825260a08201909252606091829190602082016080803683370190505090507550524f544f434f4c5f535741505f4645455f5045524360501b8160008151811061050f57fe5b6020026020010181815250507f50524f544f434f4c5f4645455f4759524f5f504f5254494f4e000000000000008160018151811061054957fe5b6020026020010181815250506c4759524f5f545245415355525960981b8160028151811061057357fe5b6020026020010181815250506b42414c5f545245415355525960a01b8160038151811061059c57fe5b6020908102919091010152905090565b339056fe4f776e61626c653a206e6577206f776e657220697320746865207a65726f20616464726573734f776e61626c653a2063616c6c6572206973206e6f7420746865206f776e6572a26469706673582212203d4ef5df0e0108f3172ee62f5501019109dd01314f50f73f7c6d09b756ebcae064736f6c63430007010033","bytecodeSha1":"f232f4fdbb68881e744d7de4419d7f95dbe88532","compiler":{"evm_version":"istanbul","optimizer":{"enabled":true,"runs":200},"version":"0.7.1+commit.f4a555be"},"contractName":"MockGyroConfig","language":"Solidity","natspec":{"kind":"dev","methods":{"getAddress(bytes32)":{"notice":"Returns an address value from the config"},"getUint(bytes32)":{"notice":"Returns a uint256 value from the config"},"listKeys()":{"notice":"Returns a set of known configuration keys"},"owner()":{"details":"Returns the address of the current owner."},"renounceOwnership()":{"details":"Leaves the contract without owner. It will not be possible to call `onlyOwner` functions anymore. Can only be called by the current owner. NOTE: Renouncing ownership will leave the contract without an owner, thereby removing any functionality that is only available to the owner."},"setAddress(bytes32,address)":{"notice":"Set an address config"},"setUint(bytes32,uint256)":{"notice":"Set a uint256 config NOTE: We avoid overloading to avoid complications with some clients"},"transferOwnership(address)":{"details":"Transfers ownership of the contract to a new account (`newOwner`). Can only be called by the current owner."}},"version":1},"opcodes":"PUSH1 0x80 PUSH1 0x40 MSTORE CALLVALUE DUP1 ISZERO PUSH2 0x10 JUMPI PUSH1 0x0 DUP1 REVERT JUMPDEST POP PUSH1 0x4 CALLDATASIZE LT PUSH2 0x88 JUMPI PUSH1 0x0 CALLDATALOAD PUSH1 0xE0 SHR DUP1 PUSH4 0xCA446DD9 GT PUSH2 0x5B JUMPI DUP1 PUSH4 0xCA446DD9 EQ PUSH2 0x107 JUMPI DUP1 PUSH4 0xE2A4853A EQ PUSH2 0x133 JUMPI DUP1 PUSH4 0xF2FDE38B EQ PUSH2 0x156 JUMPI DUP1 PUSH4 0xFD322C14 EQ PUSH2 0x17C JUMPI PUSH2 0x88 JUMP JUMPDEST DUP1 PUSH4 0x21F8A721 EQ PUSH2 0x8D JUMPI DUP1 PUSH4 0x715018A6 EQ PUSH2 0xC6 JUMPI DUP1 PUSH4 0x8DA5CB5B EQ PUSH2 0xD0 JUMPI DUP1 PUSH4 0xBD02D0F5 EQ PUSH2 0xD8 JUMPI JUMPDEST PUSH1 0x0 DUP1 REVERT JUMPDEST PUSH2 0xAA PUSH1 0x4 DUP1 CALLDATASIZE SUB PUSH1 0x20 DUP2 LT ISZERO PUSH2 0xA3 JUMPI PUSH1 0x0 DUP1 REVERT JUMPDEST POP CALLDATALOAD PUSH2 0x1D4 JUMP JUMPDEST PUSH1 0x40 DUP1 MLOAD PUSH1 0x1 PUSH1 0x1 PUSH1 0xA0 SHL SUB SWAP1 SWAP3 AND DUP3 MSTORE MLOAD SWAP1 DUP2 SWAP1 SUB PUSH1 0x20 ADD SWAP1 RETURN JUMPDEST PUSH2 0xCE PUSH2 0x1EF JUMP JUMPDEST STOP JUMPDEST PUSH2 0xAA PUSH2 0x29B JUMP JUMPDEST PUSH2 0xF5 PUSH1 0x4 DUP1 CALLDATASIZE SUB PUSH1 0x20 DUP2 LT ISZERO PUSH2 0xEE JUMPI PUSH1 0x0 DUP1 REVERT JUMPDEST POP CALLDATALOAD PUSH2 0x2AA JUMP JUMPDEST PUSH1 0x40 DUP1 MLOAD SWAP2 DUP3 MSTORE MLOAD SWAP1 DUP2 SWAP1 SUB PUSH1 0x20 ADD SWAP1 RETURN JUMPDEST PUSH2 0xCE PUSH1 0x4 DUP1 CALLDATASIZE SUB PUSH1 0x40 DUP2 LT ISZERO PUSH2 0x11D JUMPI PUSH1 0x0 DUP1 REVERT JUMPDEST POP DUP1 CALLDATALOAD SWAP1 PUSH1 0x20 ADD CALLDATALOAD PUSH1 0x1 PUSH1 0x1 PUSH1 0xA0 SHL SUB AND PUSH2 0x2BC JUMP JUMPDEST PUSH2 0xCE PUSH1 0x4 DUP1 CALLDATASIZE SUB PUSH1 0x40 DUP2 LT ISZERO PUSH2 0x149 JUMPI PUSH1 0x0 DUP1 REVERT JUMPDEST POP DUP1 CALLDATALOAD SWAP1 PUSH1 0x20 ADD CALLDATALOAD PUSH2 0x34C JUMP JUMPDEST PUSH2 0xCE PUSH1 0x4 DUP1 CALLDATASIZE SUB PUSH1 0x20 DUP2 LT ISZERO PUSH2 0x16C JUMPI PUSH1 0x0 DUP1 REVERT JUMPDEST POP CALLDATALOAD PUSH1 0x1 PUSH1 0x1 PUSH1 0xA0 SHL SUB AND PUSH2 0x3C0 JUMP JUMPDEST PUSH2 0x184 PUSH2 0x4C2 JUMP JUMPDEST PUSH1 0x40 DUP1 MLOAD PUSH1 0x20 DUP1 DUP3 MSTORE DUP4 MLOAD DUP2 DUP4 ADD MSTORE DUP4 MLOAD SWAP2 SWAP3 DUP4 SWAP3 SWAP1 DUP4 ADD SWAP2 DUP6 DUP2 ADD SWAP2 MUL DUP1 DUP4 DUP4 PUSH1 0x0 JUMPDEST DUP4 DUP2 LT ISZERO PUSH2 0x1C0 JUMPI DUP2 DUP2 ADD MLOAD DUP4 DUP3 ADD MSTORE PUSH1 0x20 ADD PUSH2 0x1A8 JUMP JUMPDEST POP POP POP POP SWAP1 POP ADD SWAP3 POP POP POP PUSH1 0x40 MLOAD DUP1 SWAP2 SUB SWAP1 RETURN JUMPDEST PUSH1 0x0 SWAP1 DUP2 MSTORE PUSH1 0x2 PUSH1 0x20 MSTORE PUSH1 0x40 SWAP1 KECCAK256 SLOAD PUSH1 0x1 PUSH1 0x1 PUSH1 0xA0 SHL SUB AND SWAP1 JUMP JUMPDEST PUSH2 0x1F7 PUSH2 0x5AC JUMP JUMPDEST PUSH1 0x1 PUSH1 0x1 PUSH1 0xA0 SHL SUB AND PUSH2 0x208 PUSH2 0x29B JUMP JUMPDEST PUSH1 0x1 PUSH1 0x1 PUSH1 0xA0 SHL SUB AND EQ PUSH2 0x251 JUMPI PUSH1 0x40 DUP1 MLOAD PUSH3 0x461BCD PUSH1 0xE5 SHL DUP2 MSTORE PUSH1 0x20 PUSH1 0x4 DUP3 ADD DUP2 SWAP1 MSTORE PUSH1 0x24 DUP3 ADD MSTORE PUSH1 0x0 DUP1 MLOAD PUSH1 0x20 PUSH2 0x5D7 DUP4 CODECOPY DUP2 MLOAD SWAP2 MSTORE PUSH1 0x44 DUP3 ADD MSTORE SWAP1 MLOAD SWAP1 DUP2 SWAP1 SUB PUSH1 0x64 ADD SWAP1 REVERT JUMPDEST PUSH1 0x0 DUP1 SLOAD PUSH1 0x40 MLOAD PUSH1 0x1 PUSH1 0x1 PUSH1 0xA0 SHL SUB SWAP1 SWAP2 AND SWAP1 PUSH32 0x8BE0079C531659141344CD1FD0A4F28419497F9722A3DAAFE3B4186F6B6457E0 SWAP1 DUP4 SWAP1 LOG3 PUSH1 0x0 DUP1 SLOAD PUSH1 0x1 PUSH1 0x1 PUSH1 0xA0 SHL SUB NOT AND SWAP1 SSTORE JUMP JUMPDEST PUSH1 0x0 SLOAD PUSH1 0x1 PUSH1 0x1 PUSH1 0xA0 SHL SUB AND SWAP1 JUMP JUMPDEST PUSH1 0x0 SWAP1 DUP2 MSTORE PUSH1 0x1 PUSH1 0x20 MSTORE PUSH1 0x40 SWAP1 KECCAK256 SLOAD SWAP1 JUMP JUMPDEST PUSH2 0x2C4 PUSH2 0x5AC JUMP JUMPDEST PUSH1 0x1 PUSH1 0x1 PUSH1 0xA0 SHL SUB AND PUSH2 0x2D5 PUSH2 0x29B JUMP JUMPDEST PUSH1 0x1 PUSH1 0x1 PUSH1 0xA0 SHL SUB AND EQ PUSH2 0x31E JUMPI PUSH1 0x40 DUP1 MLOAD PUSH3 0x461BCD PUSH1 0xE5 SHL DUP2 MSTORE PUSH1 0x20 PUSH1 0x4 DUP3 ADD DUP2 SWAP1 MSTORE PUSH1 0x24 DUP3 ADD MSTORE PUSH1 0x0 DUP1 MLOAD PUSH1 0x20 PUSH2 0x5D7 DUP4 CODECOPY DUP2 MLOAD SWAP2 MSTORE PUSH1 0x44 DUP3 ADD MSTORE SWAP1 MLOAD SWAP1 DUP2 SWAP1 SUB PUSH1 0x64 ADD SWAP1 REVERT JUMPDEST PUSH1 0x0 SWAP2 DUP3 MSTORE PUSH1 0x2 PUSH1 0x20 MSTORE PUSH1 0x40 SWAP1 SWAP2 KECCAK256 DUP1 SLOAD PUSH1 0x1 PUSH1 0x1 PUSH1 0xA0 SHL SUB NOT AND PUSH1 0x1 PUSH1 0x1 PUSH1 0xA0 SHL SUB SWAP1 SWAP3 AND SWAP2 SWAP1 SWAP2 OR SWAP1 SSTORE JUMP JUMPDEST PUSH2 0x354 PUSH2 0x5AC JUMP JUMPDEST PUSH1 0x1 PUSH1 0x1 PUSH1 0xA0 SHL SUB AND PUSH2 0x365 PUSH2 0x29B JUMP JUMPDEST PUSH1 0x1 PUSH1 0x1 PUSH1 0xA0 SHL SUB AND EQ PUSH2 0x3AE JUMPI PUSH1 0x40 DUP1 MLOAD PUSH3 0x461BCD PUSH1 0xE5 SHL DUP2 MSTORE PUSH1 0x20 PUSH1 0x4 DUP3 ADD DUP2 SWAP1 MSTORE PUSH1 0x24 DUP3 ADD MSTORE PUSH1 0x0 DUP1 MLOAD PUSH1 0x20 PUSH2 0x5D7 DUP4 CODECOPY DUP2 MLOAD SWAP2 MSTORE PUSH1 0x44 DUP3 ADD MSTORE SWAP1 MLOAD SWAP1 DUP2 SWAP1 SUB PUSH1 0x64 ADD SWAP1 REVERT JUMPDEST PUSH1 0x0 SWAP2 DUP3 MSTORE PUSH1 0x1 PUSH1 0x20 MSTORE PUSH1 0x40 SWAP1 SWAP2 KECCAK256 SSTORE JUMP JUMPDEST PUSH2 0x3C8 PUSH2 0x5AC JUMP JUMPDEST PUSH1 0x1 PUSH1 0x1 PUSH1 0xA0 SHL SUB AND PUSH2 0x3D9 PUSH2 0x29B JUMP JUMPDEST PUSH1 0x1 PUSH1 0x1 PUSH1 0xA0 SHL SUB AND EQ PUSH2 0x422 JUMPI PUSH1 0x40 DUP1 MLOAD PUSH3 0x461BCD PUSH1 0xE5 SHL DUP2 MSTORE PUSH1 0x20 PUSH1 0x4 DUP3 ADD DUP2 SWAP1 MSTORE PUSH1 0x24 DUP3 ADD MSTORE PUSH1 0x0 DUP1 MLOAD PUSH1 0x20 PUSH2 0x5D7 DUP4 CODECOPY DUP2 MLOAD SWAP2 MSTORE PUSH1 0x44 DUP3 ADD MSTORE SWAP1 MLOAD SWAP1 DUP2 SWAP1 SUB PUSH1 0x64 ADD SWAP1 REVERT JUMPDEST PUSH1 0x1 PUSH1 0x1 PUSH1 0xA0 SHL SUB DUP2 AND PUSH2 0x467 JUMPI PUSH1 0x40 MLOAD PUSH3 0x461BCD PUSH1 0xE5 SHL DUP2 MSTORE PUSH1 0x4 ADD DUP1 DUP1 PUSH1 0x20 ADD DUP3 DUP2 SUB DUP3 MSTORE PUSH1 0x26 DUP2 MSTORE PUSH1 0x20 ADD DUP1 PUSH2 0x5B1 PUSH1 0x26 SWAP2 CODECOPY PUSH1 0x40 ADD SWAP2 POP POP PUSH1 0x40 MLOAD DUP1 SWAP2 SUB SWAP1 REVERT JUMPDEST PUSH1 0x0 DUP1 SLOAD PUSH1 0x40 MLOAD PUSH1 0x1 PUSH1 0x1 PUSH1 0xA0 SHL SUB DUP1 DUP6 AND SWAP4 SWAP3 AND SWAP2 PUSH32 0x8BE0079C531659141344CD1FD0A4F28419497F9722A3DAAFE3B4186F6B6457E0 SWAP2 LOG3 PUSH1 0x0 DUP1 SLOAD PUSH1 0x1 PUSH1 0x1 PUSH1 0xA0 SHL SUB NOT AND PUSH1 0x1 PUSH1 0x1 PUSH1 0xA0 SHL SUB SWAP3 SWAP1 SWAP3 AND SWAP2 SWAP1 SWAP2 OR SWAP1 SSTORE JUMP JUMPDEST PUSH1 0x40 DUP1 MLOAD PUSH1 0x4 DUP1 DUP3 MSTORE PUSH1 0xA0 DUP3 ADD SWAP1 SWAP3 MSTORE PUSH1 0x60 SWAP2 DUP3 SWAP2 SWAP1 PUSH1 0x20 DUP3 ADD PUSH1 0x80 DUP1 CALLDATASIZE DUP4 CALLDATACOPY ADD SWAP1 POP POP SWAP1 POP PUSH22 0x50524F544F434F4C5F535741505F4645455F50455243 PUSH1 0x50 SHL DUP2 PUSH1 0x0 DUP2 MLOAD DUP2 LT PUSH2 0x50F JUMPI INVALID JUMPDEST PUSH1 0x20 MUL PUSH1 0x20 ADD ADD DUP2 DUP2 MSTORE POP POP PUSH32 0x50524F544F434F4C5F4645455F4759524F5F504F5254494F4E00000000000000 DUP2 PUSH1 0x1 DUP2 MLOAD DUP2 LT PUSH2 0x549 JUMPI INVALID JUMPDEST PUSH1 0x20 MUL PUSH1 0x20 ADD ADD DUP2 DUP2 MSTORE POP POP PUSH13 0x4759524F5F5452454153555259 PUSH1 0x98 SHL DUP2 PUSH1 0x2 DUP2 MLOAD DUP2 LT PUSH2 0x573 JUMPI INVALID JUMPDEST PUSH1 0x20 MUL PUSH1 0x20 ADD ADD DUP2 DUP2 MSTORE POP POP PUSH12 0x42414C5F5452454153555259 PUSH1 0xA0 SHL DUP2 PUSH1 0x3 DUP2 MLOAD DUP2 LT PUSH2 0x59C JUMPI INVALID JUMPDEST PUSH1 0x20 SWAP1 DUP2 MUL SWAP2 SWAP1 SWAP2 ADD ADD MSTORE SWAP1 POP SWAP1 JUMP JUMPDEST CALLER SWAP1 JUMP INVALID 0x4F PUSH24 0x6E61626C653A206E6577206F776E65722069732074686520 PUSH27 0x65726F20616464726573734F776E61626C653A2063616C6C657220 PUSH10 0x73206E6F742074686520 PUSH16 0x776E6572A26469706673582212203D4E CREATE2 0xDF 0xE ADD ADDMOD RETURN OR 0x2E 0xE6 0x2F SSTORE ADD ADD SWAP2 MULMOD 0xDD ADD BALANCE 0x4F POP 0xF7 EXTCODEHASH PUSH29 0x6D09B756EBCAE064736F6C634300070100330000000000000000000000 ","sha1":"89eb906316f75c299db1db9efdd216d2b4bf0bd5","source":"// SPDX-License-Identifier: UNLICENSE\npragma solidity ^0.7.0;\n\nimport \"@openzeppelin/contracts/access/Ownable.sol\";\n\nimport \"../../interfaces/IGyroConfig.sol\";\nimport \"../../libraries/GyroConfigKeys.sol\";\n\ncontract MockGyroConfig is IGyroConfig, Ownable {\n    mapping(bytes32 => uint256) internal uintConfig;\n    mapping(bytes32 => address) internal addressConfig;\n\n    constructor() Ownable() {\n        uintConfig[GyroConfigKeys.PROTOCOL_FEE_GYRO_PORTION_KEY] = 1e18;\n    }\n\n    /// @inheritdoc IGyroConfig\n    function listKeys() external pure override returns (bytes32[] memory) {\n        bytes32[] memory keys = new bytes32[](4);\n        keys[0] = GyroConfigKeys.PROTOCOL_SWAP_FEE_PERC_KEY;\n        keys[1] = GyroConfigKeys.PROTOCOL_FEE_GYRO_PORTION_KEY;\n        keys[2] = GyroConfigKeys.GYRO_TREASURY_KEY;\n        keys[3] = GyroConfigKeys.BAL_TREASURY_KEY;\n        return keys;\n    }\n\n    /// @inheritdoc IGyroConfig\n    function getUint(bytes32 key) external view override returns (uint256) {\n        return uintConfig[key];\n    }\n\n    /// @inheritdoc IGyroConfig\n    function getAddress(bytes32 key) external view override returns (address) {\n        return addressConfig[key];\n    }\n\n    /// @inheritdoc IGyroConfig\n    function setUint(bytes32 key, uint256 newValue) external override onlyOwner {\n        uintConfig[key] = newValue;\n    }\n\n    /// @inheritdoc IGyroConfig\n    function setAddress(bytes32 key, address newValue) external override onlyOwner {\n        addressConfig[key] = newValue;\n    }\n}\n","sourcePath":"contracts/testing/MockGyroConfig.sol","type":"contract","deployment":{"address":"0xc4d965f94Ff1E7dd1217d6bb406a35EA481Ba891","chainid":"42","blockHeight":30120311}}