{"abi":[{"inputs":[{"components":[{"components":[{"internalType":"contract IVault","name":"vault","type":"address"},{"internalType":"string","name":"name","type":"string"},{"internalType":"string","name":"symbol","type":"string"},{"internalType":"contract IERC20","name":"token0","type":"address"},{"internalType":"contract IERC20","name":"token1","type":"address"},{"internalType":"uint256","name":"swapFeePercentage","type":"uint256"},{"internalType":"uint256","name":"pauseWindowDuration","type":"uint256"},{"internalType":"uint256","name":"bufferPeriodDuration","type":"uint256"},{"internalType":"bool","name":"oracleEnabled","type":"bool"},{"internalType":"address","name":"owner","type":"address"}],"internalType":"struct ExtensibleWeightedPool2Tokens.NewPoolParams","name":"baseParams","type":"tuple"},{"internalType":"uint256","name":"sqrtAlpha","type":"uint256"},{"internalType":"uint256","name":"sqrtBeta","type":"uint256"},{"components":[{"internalType":"bool","name":"capEnabled","type":"bool"},{"internalType":"uint120","name":"perAddressCap","type":"uint120"},{"internalType":"uint128","name":"globalCap","type":"uint128"}],"internalType":"struct ICappedLiquidity.CapParams","name":"capParams","type":"tuple"}],"internalType":"struct GyroTwoPool.GyroParams","name":"params","type":"tuple"},{"internalType":"address","name":"configAddress","type":"address"}],"stateMutability":"nonpayable","type":"constructor","name":"constructor"},{"anonymous":false,"inputs":[{"indexed":true,"internalType":"address","name":"owner","type":"address"},{"indexed":true,"internalType":"address","name":"spender","type":"address"},{"indexed":false,"internalType":"uint256","name":"value","type":"uint256"}],"name":"Approval","type":"event"},{"anonymous":false,"inputs":[{"indexed":false,"internalType":"bool","name":"enabled","type":"bool"}],"name":"OracleEnabledChanged","type":"event"},{"anonymous":false,"inputs":[{"indexed":false,"internalType":"bool","name":"paused","type":"bool"}],"name":"PausedStateChanged","type":"event"},{"anonymous":false,"inputs":[{"indexed":false,"internalType":"uint256","name":"swapFeePercentage","type":"uint256"}],"name":"SwapFeePercentageChanged","type":"event"},{"anonymous":false,"inputs":[{"indexed":true,"internalType":"address","name":"from","type":"address"},{"indexed":true,"internalType":"address","name":"to","type":"address"},{"indexed":false,"internalType":"uint256","name":"value","type":"uint256"}],"name":"Transfer","type":"event"},{"inputs":[],"name":"DOMAIN_SEPARATOR","outputs":[{"internalType":"bytes32","name":"","type":"bytes32"}],"stateMutability":"view","type":"function"},{"inputs":[{"internalType":"address","name":"owner","type":"address"},{"internalType":"address","name":"spender","type":"address"}],"name":"allowance","outputs":[{"internalType":"uint256","name":"","type":"uint256"}],"stateMutability":"view","type":"function"},{"inputs":[{"internalType":"address","name":"spender","type":"address"},{"internalType":"uint256","name":"amount","type":"uint256"}],"name":"approve","outputs":[{"internalType":"bool","name":"","type":"bool"}],"stateMutability":"nonpayable","type":"function"},{"inputs":[{"internalType":"address","name":"account","type":"address"}],"name":"balanceOf","outputs":[{"internalType":"uint256","name":"","type":"uint256"}],"stateMutability":"view","type":"function"},{"inputs":[{"internalType":"uint256","name":"balanceTokenIn","type":"uint256"},{"internalType":"uint256","name":"balanceTokenOut","type":"uint256"},{"internalType":"bool","name":"tokenInIsToken0","type":"bool"}],"name":"calculateCurrentValues","outputs":[{"internalType":"uint256","name":"currentInvariant","type":"uint256"},{"internalType":"uint256","name":"virtualParamIn","type":"uint256"},{"internalType":"uint256","name":"virtualParamOut","type":"uint256"}],"stateMutability":"view","type":"function"},{"inputs":[],"name":"capManager","outputs":[{"internalType":"address","name":"","type":"address"}],"stateMutability":"view","type":"function"},{"inputs":[],"name":"capParams","outputs":[{"components":[{"internalType":"bool","name":"capEnabled","type":"bool"},{"internalType":"uint120","name":"perAddressCap","type":"uint120"},{"internalType":"uint128","name":"globalCap","type":"uint128"}],"internalType":"struct ICappedLiquidity.CapParams","name":"","type":"tuple"}],"stateMutability":"view","type":"function"},{"inputs":[],"name":"decimals","outputs":[{"internalType":"uint8","name":"","type":"uint8"}],"stateMutability":"view","type":"function"},{"inputs":[{"internalType":"address","name":"spender","type":"address"},{"internalType":"uint256","name":"amount","type":"uint256"}],"name":"decreaseAllowance","outputs":[{"internalType":"bool","name":"","type":"bool"}],"stateMutability":"nonpayable","type":"function"},{"inputs":[{"internalType":"uint256","name":"startIndex","type":"uint256"},{"internalType":"uint256","name":"endIndex","type":"uint256"}],"name":"dirtyUninitializedOracleSamples","outputs":[],"stateMutability":"nonpayable","type":"function"},{"inputs":[],"name":"enableOracle","outputs":[],"stateMutability":"nonpayable","type":"function"},{"inputs":[{"internalType":"bytes4","name":"selector","type":"bytes4"}],"name":"getActionId","outputs":[{"internalType":"bytes32","name":"","type":"bytes32"}],"stateMutability":"view","type":"function"},{"inputs":[],"name":"getAuthorizer","outputs":[{"internalType":"contract IAuthorizer","name":"","type":"address"}],"stateMutability":"view","type":"function"},{"inputs":[],"name":"getInvariant","outputs":[{"internalType":"uint256","name":"","type":"uint256"}],"stateMutability":"view","type":"function"},{"inputs":[],"name":"getLargestSafeQueryWindow","outputs":[{"internalType":"uint256","name":"","type":"uint256"}],"stateMutability":"pure","type":"function"},{"inputs":[],"name":"getLastInvariant","outputs":[{"internalType":"uint256","name":"","type":"uint256"}],"stateMutability":"view","type":"function"},{"inputs":[{"internalType":"enum IPriceOracle.Variable","name":"variable","type":"uint8"}],"name":"getLatest","outputs":[{"internalType":"uint256","name":"","type":"uint256"}],"stateMutability":"view","type":"function"},{"inputs":[],"name":"getMiscData","outputs":[{"internalType":"int256","name":"logInvariant","type":"int256"},{"internalType":"int256","name":"logTotalSupply","type":"int256"},{"internalType":"uint256","name":"oracleSampleCreationTimestamp","type":"uint256"},{"internalType":"uint256","name":"oracleIndex","type":"uint256"},{"internalType":"bool","name":"oracleEnabled","type":"bool"},{"internalType":"uint256","name":"swapFeePercentage","type":"uint256"}],"stateMutability":"view","type":"function"},{"inputs":[],"name":"getNormalizedWeights","outputs":[{"internalType":"uint256[]","name":"","type":"uint256[]"}],"stateMutability":"view","type":"function"},{"inputs":[],"name":"getOwner","outputs":[{"internalType":"address","name":"","type":"address"}],"stateMutability":"view","type":"function"},{"inputs":[{"components":[{"internalType":"enum IPriceOracle.Variable","name":"variable","type":"uint8"},{"internalType":"uint256","name":"ago","type":"uint256"}],"internalType":"struct IPriceOracle.OracleAccumulatorQuery[]","name":"queries","type":"tuple[]"}],"name":"getPastAccumulators","outputs":[{"internalType":"int256[]","name":"results","type":"int256[]"}],"stateMutability":"view","type":"function"},{"inputs":[],"name":"getPausedState","outputs":[{"internalType":"bool","name":"paused","type":"bool"},{"internalType":"uint256","name":"pauseWindowEndTime","type":"uint256"},{"internalType":"uint256","name":"bufferPeriodEndTime","type":"uint256"}],"stateMutability":"view","type":"function"},{"inputs":[],"name":"getPoolId","outputs":[{"internalType":"bytes32","name":"","type":"bytes32"}],"stateMutability":"view","type":"function"},{"inputs":[],"name":"getRate","outputs":[{"internalType":"uint256","name":"","type":"uint256"}],"stateMutability":"view","type":"function"},{"inputs":[{"internalType":"uint256","name":"index","type":"uint256"}],"name":"getSample","outputs":[{"internalType":"int256","name":"logPairPrice","type":"int256"},{"internalType":"int256","name":"accLogPairPrice","type":"int256"},{"internalType":"int256","name":"logBptPrice","type":"int256"},{"internalType":"int256","name":"accLogBptPrice","type":"int256"},{"internalType":"int256","name":"logInvariant","type":"int256"},{"internalType":"int256","name":"accLogInvariant","type":"int256"},{"internalType":"uint256","name":"timestamp","type":"uint256"}],"stateMutability":"view","type":"function"},{"inputs":[],"name":"getSqrtParameters","outputs":[{"internalType":"uint256[2]","name":"","type":"uint256[2]"}],"stateMutability":"view","type":"function"},{"inputs":[],"name":"getSwapFeePercentage","outputs":[{"internalType":"uint256","name":"","type":"uint256"}],"stateMutability":"view","type":"function"},{"inputs":[{"components":[{"internalType":"enum IPriceOracle.Variable","name":"variable","type":"uint8"},{"internalType":"uint256","name":"secs","type":"uint256"},{"internalType":"uint256","name":"ago","type":"uint256"}],"internalType":"struct IPriceOracle.OracleAverageQuery[]","name":"queries","type":"tuple[]"}],"name":"getTimeWeightedAverage","outputs":[{"internalType":"uint256[]","name":"results","type":"uint256[]"}],"stateMutability":"view","type":"function"},{"inputs":[],"name":"getTotalSamples","outputs":[{"internalType":"uint256","name":"","type":"uint256"}],"stateMutability":"pure","type":"function"},{"inputs":[],"name":"getVault","outputs":[{"internalType":"contract IVault","name":"","type":"address"}],"stateMutability":"view","type":"function"},{"inputs":[],"name":"getVirtualParameters","outputs":[{"internalType":"uint256[]","name":"virtualParams","type":"uint256[]"}],"stateMutability":"view","type":"function"},{"inputs":[],"name":"gyroConfig","outputs":[{"internalType":"contract IGyroConfig","name":"","type":"address"}],"stateMutability":"view","type":"function"},{"inputs":[{"internalType":"address","name":"spender","type":"address"},{"internalType":"uint256","name":"addedValue","type":"uint256"}],"name":"increaseAllowance","outputs":[{"internalType":"bool","name":"","type":"bool"}],"stateMutability":"nonpayable","type":"function"},{"inputs":[],"name":"name","outputs":[{"internalType":"string","name":"","type":"string"}],"stateMutability":"view","type":"function"},{"inputs":[{"internalType":"address","name":"owner","type":"address"}],"name":"nonces","outputs":[{"internalType":"uint256","name":"","type":"uint256"}],"stateMutability":"view","type":"function"},{"inputs":[{"internalType":"bytes32","name":"poolId","type":"bytes32"},{"internalType":"address","name":"sender","type":"address"},{"internalType":"address","name":"recipient","type":"address"},{"internalType":"uint256[]","name":"balances","type":"uint256[]"},{"internalType":"uint256","name":"lastChangeBlock","type":"uint256"},{"internalType":"uint256","name":"protocolSwapFeePercentage","type":"uint256"},{"internalType":"bytes","name":"userData","type":"bytes"}],"name":"onExitPool","outputs":[{"internalType":"uint256[]","name":"","type":"uint256[]"},{"internalType":"uint256[]","name":"","type":"uint256[]"}],"stateMutability":"nonpayable","type":"function"},{"inputs":[{"internalType":"bytes32","name":"poolId","type":"bytes32"},{"internalType":"address","name":"sender","type":"address"},{"internalType":"address","name":"recipient","type":"address"},{"internalType":"uint256[]","name":"balances","type":"uint256[]"},{"internalType":"uint256","name":"lastChangeBlock","type":"uint256"},{"internalType":"uint256","name":"protocolSwapFeePercentage","type":"uint256"},{"internalType":"bytes","name":"userData","type":"bytes"}],"name":"onJoinPool","outputs":[{"internalType":"uint256[]","name":"amountsIn","type":"uint256[]"},{"internalType":"uint256[]","name":"dueProtocolFeeAmounts","type":"uint256[]"}],"stateMutability":"nonpayable","type":"function"},{"inputs":[{"components":[{"internalType":"enum IVault.SwapKind","name":"kind","type":"uint8"},{"internalType":"contract IERC20","name":"tokenIn","type":"address"},{"internalType":"contract IERC20","name":"tokenOut","type":"address"},{"internalType":"uint256","name":"amount","type":"uint256"},{"internalType":"bytes32","name":"poolId","type":"bytes32"},{"internalType":"uint256","name":"lastChangeBlock","type":"uint256"},{"internalType":"address","name":"from","type":"address"},{"internalType":"address","name":"to","type":"address"},{"internalType":"bytes","name":"userData","type":"bytes"}],"internalType":"struct IPoolSwapStructs.SwapRequest","name":"request","type":"tuple"},{"internalType":"uint256","name":"balanceTokenIn","type":"uint256"},{"internalType":"uint256","name":"balanceTokenOut","type":"uint256"}],"name":"onSwap","outputs":[{"internalType":"uint256","name":"","type":"uint256"}],"stateMutability":"nonpayable","type":"function"},{"inputs":[{"internalType":"address","name":"owner","type":"address"},{"internalType":"address","name":"spender","type":"address"},{"internalType":"uint256","name":"value","type":"uint256"},{"internalType":"uint256","name":"deadline","type":"uint256"},{"internalType":"uint8","name":"v","type":"uint8"},{"internalType":"bytes32","name":"r","type":"bytes32"},{"internalType":"bytes32","name":"s","type":"bytes32"}],"name":"permit","outputs":[],"stateMutability":"nonpayable","type":"function"},{"inputs":[{"internalType":"bytes32","name":"poolId","type":"bytes32"},{"internalType":"address","name":"sender","type":"address"},{"internalType":"address","name":"recipient","type":"address"},{"internalType":"uint256[]","name":"balances","type":"uint256[]"},{"internalType":"uint256","name":"lastChangeBlock","type":"uint256"},{"internalType":"uint256","name":"protocolSwapFeePercentage","type":"uint256"},{"internalType":"bytes","name":"userData","type":"bytes"}],"name":"queryExit","outputs":[{"internalType":"uint256","name":"bptIn","type":"uint256"},{"internalType":"uint256[]","name":"amountsOut","type":"uint256[]"}],"stateMutability":"nonpayable","type":"function"},{"inputs":[{"internalType":"bytes32","name":"poolId","type":"bytes32"},{"internalType":"address","name":"sender","type":"address"},{"internalType":"address","name":"recipient","type":"address"},{"internalType":"uint256[]","name":"balances","type":"uint256[]"},{"internalType":"uint256","name":"lastChangeBlock","type":"uint256"},{"internalType":"uint256","name":"protocolSwapFeePercentage","type":"uint256"},{"internalType":"bytes","name":"userData","type":"bytes"}],"name":"queryJoin","outputs":[{"internalType":"uint256","name":"bptOut","type":"uint256"},{"internalType":"uint256[]","name":"amountsIn","type":"uint256[]"}],"stateMutability":"nonpayable","type":"function"},{"inputs":[{"components":[{"internalType":"bool","name":"capEnabled","type":"bool"},{"internalType":"uint120","name":"perAddressCap","type":"uint120"},{"internalType":"uint128","name":"globalCap","type":"uint128"}],"internalType":"struct ICappedLiquidity.CapParams","name":"params","type":"tuple"}],"name":"setCapParams","outputs":[],"stateMutability":"nonpayable","type":"function"},{"inputs":[{"internalType":"bool","name":"paused","type":"bool"}],"name":"setPaused","outputs":[],"stateMutability":"nonpayable","type":"function"},{"inputs":[{"internalType":"uint256","name":"swapFeePercentage","type":"uint256"}],"name":"setSwapFeePercentage","outputs":[],"stateMutability":"nonpayable","type":"function"},{"inputs":[],"name":"symbol","outputs":[{"internalType":"string","name":"","type":"string"}],"stateMutability":"view","type":"function"},{"inputs":[],"name":"totalSupply","outputs":[{"internalType":"uint256","name":"","type":"uint256"}],"stateMutability":"view","type":"function"},{"inputs":[{"internalType":"address","name":"recipient","type":"address"},{"internalType":"uint256","name":"amount","type":"uint256"}],"name":"transfer","outputs":[{"internalType":"bool","name":"","type":"bool"}],"stateMutability":"nonpayable","type":"function"},{"inputs":[{"internalType":"address","name":"sender","type":"address"},{"internalType":"address","name":"recipient","type":"address"},{"internalType":"uint256","name":"amount","type":"uint256"}],"name":"transferFrom","outputs":[{"internalType":"bool","name":"","type":"bool"}],"stateMutability":"nonpayable","type":"function"}],"bytecode":"6102e06040527f6e71edae12b1b97f4d1f60370fef10105fa2faae0126114a169c64845d6126c9610120908152506706f05b59d3b20000610200908152506706f05b59d3b20000610220908152506000610240908152503480156200006357600080fd5b50604051620091c3380380620091c3833981810160405281019062000089919062000f21565b816060015182600001518060c001518160e0015182602001518360400151846000015182806040518060400160405280600181526020017f310000000000000000000000000000000000000000000000000000000000000081525085858a61012001513373ffffffffffffffffffffffffffffffffffffffff1660001b8060808181525050508073ffffffffffffffffffffffffffffffffffffffff1660a08173ffffffffffffffffffffffffffffffffffffffff1660601b815250505081600390805190602001906200015f92919062000ae8565b5080600490805190602001906200017892919062000ae8565b506012600560006101000a81548160ff021916908360ff1602179055505050818051906020012060c08181525050808051906020012060e081815250507f8b73c3c69bb8fe3d512ecc4cf759cc79239f7b179b0ffacaa9a75d522b39400f61010081815250505050508073ffffffffffffffffffffffffffffffffffffffff166101408173ffffffffffffffffffffffffffffffffffffffff1660601b81525050505050620002366276a7008311156101946200071160201b60201c565b6200025062278d008211156101956200071160201b60201c565b6000824201905080610160818152505081810161018081815250505050506060600267ffffffffffffffff811180156200028957600080fd5b50604051908082528060200260200182016040528015620002b95781602001602082028036833780820191505090505b509050816060015181600081518110620002cf57fe5b602002602001019073ffffffffffffffffffffffffffffffffffffffff16908173ffffffffffffffffffffffffffffffffffffffff16815250508160800151816001815181106200031c57fe5b602002602001019073ffffffffffffffffffffffffffffffffffffffff16908173ffffffffffffffffffffffffffffffffffffffff16815250506200036c816200072d60201b62001fe81760201c565b620003828261010001516200074760201b60201c565b620003978260a00151620007a560201b60201c565b6000826000015173ffffffffffffffffffffffffffffffffffffffff166309b2760f60026040518263ffffffff1660e01b8152600401620003d991906200117d565b602060405180830381600087803b158015620003f457600080fd5b505af115801562000409573d6000803e3d6000fd5b505050506040513d601f19601f820116820180604052508101906200042f919062000ef5565b9050826000015173ffffffffffffffffffffffffffffffffffffffff166366a9c7d28284600267ffffffffffffffff811180156200046c57600080fd5b506040519080825280602002602001820160405280156200049c5781602001602082028036833780820191505090505b506040518463ffffffff1660e01b8152600401620004bd9392919062001132565b600060405180830381600087803b158015620004d857600080fd5b505af1158015620004ed573d6000803e3d6000fd5b50505050806101a08181525050826060015173ffffffffffffffffffffffffffffffffffffffff166101c08173ffffffffffffffffffffffffffffffffffffffff1660601b81525050826080015173ffffffffffffffffffffffffffffffffffffffff166101e08173ffffffffffffffffffffffffffffffffffffffff1660601b815250506200058783606001516200083c60201b60201c565b6102608181525050620005a483608001516200083c60201b60201c565b610280818152505050505033600c60006101000a81548173ffffffffffffffffffffffffffffffffffffffff021916908373ffffffffffffffffffffffffffffffffffffffff1602179055508060000151600b60000160006101000a81548160ff0219169083151502179055508060200151600b60000160016101000a8154816effffffffffffffffffffffffffffff02191690836effffffffffffffffffffffffffffff1602179055508060400151600b60000160106101000a8154816fffffffffffffffffffffffffffffffff02191690836fffffffffffffffffffffffffffffffff16021790555050620006ae826040015183602001511061015e6200071160201b60201c565b81602001516102a0818152505081604001516102c0818152505080600d60006101000a81548173ffffffffffffffffffffffffffffffffffffffff021916908373ffffffffffffffffffffffffffffffffffffffff1602179055505050620014b2565b8162000729576200072881620008ef60201b60201c565b5b5050565b606081905062000743816200095f60201b60201c565b5050565b620007638160095462000a0b60201b62001ffa1790919060201c565b6009819055507f3e350b41e86a8e10f804ade6d35340d620be35569cc75ac943e8bb14ab80ead1816040516200079a919062001115565b60405180910390a150565b620007c064e8d4a5100082101560cb6200071160201b60201c565b620007de67016345785d8a000082111560ca6200071160201b60201c565b620007fa8160095462000a3260201b6200201a1790919060201c565b6009819055507fa9ba3ffe0b6c366b81232caab38605a0699ad5398d6cce76f91ee809e322dafc816040516200083191906200119a565b60405180910390a150565b6000808273ffffffffffffffffffffffffffffffffffffffff1663313ce5676040518163ffffffff1660e01b815260040160206040518083038186803b1580156200088657600080fd5b505afa1580156200089b573d6000803e3d6000fd5b505050506040513d601f19601f82011682018060405250810190620008c1919062000f7b565b60ff1690506000620008e060128362000a5960201b6200203a1760201c565b905080600a0a92505050919050565b6030600a820601600a820491506030600a830601600a830492506030600a8406018060101b8260081b8401016642414c230000000160c81b7f08c379a000000000000000000000000000000000000000000000000000000000600052602060045260076024528060445260646000fd5b600281511015620009705762000a08565b6000816000815181106200098057fe5b602002602001015190506000600190505b825181101562000a05576000838281518110620009aa57fe5b60200260200101519050620009f58173ffffffffffffffffffffffffffffffffffffffff168473ffffffffffffffffffffffffffffffffffffffff161060656200071160201b60201c565b8092505080600101905062000991565b50505b50565b600062000a2a8260558562000a8260201b6200205b179092919060201c565b905092915050565b600062000a518260568562000abb60201b62002092179092919060201c565b905092915050565b600062000a718383111560016200071160201b60201c565b600082840390508091505092915050565b600080826001901b198560001c1660001b9050828462000aa457600062000aa7565b60015b60ff16901b60001b81179150509392505050565b6000808267ffffffffffffffff901b198560001c1660001b90508284901b60001b81179150509392505050565b828054600181600116156101000203166002900490600052602060002090601f016020900481019282601f1062000b2b57805160ff191683800117855562000b5c565b8280016001018555821562000b5c579182015b8281111562000b5b57825182559160200191906001019062000b3e565b5b50905062000b6b919062000b6f565b5090565b5b8082111562000b8a57600081600090555060010162000b70565b5090565b60008151905062000b9f81620013c8565b92915050565b60008151905062000bb681620013e2565b92915050565b60008151905062000bcd81620013fc565b92915050565b60008151905062000be48162001416565b92915050565b60008151905062000bfb8162001430565b92915050565b600082601f83011262000c1357600080fd5b815162000c2a62000c2482620011e5565b620011b7565b9150808252602083016020830185838301111562000c4757600080fd5b62000c5483828462001384565b50505092915050565b60006060828403121562000c7057600080fd5b62000c7c6060620011b7565b9050600062000c8e8482850162000ba5565b600083015250602062000ca48482850162000e99565b602083015250604062000cba8482850162000eb0565b60408301525092915050565b600060c0828403121562000cd957600080fd5b62000ce56080620011b7565b9050600082015167ffffffffffffffff81111562000d0257600080fd5b62000d108482850162000d5e565b600083015250602062000d268482850162000ec7565b602083015250604062000d3c8482850162000ec7565b604083015250606062000d528482850162000c5d565b60608301525092915050565b6000610140828403121562000d7257600080fd5b62000d7f610140620011b7565b9050600062000d918482850162000bea565b600083015250602082015167ffffffffffffffff81111562000db257600080fd5b62000dc08482850162000c01565b602083015250604082015167ffffffffffffffff81111562000de157600080fd5b62000def8482850162000c01565b604083015250606062000e058482850162000bd3565b606083015250608062000e1b8482850162000bd3565b60808301525060a062000e318482850162000ec7565b60a08301525060c062000e478482850162000ec7565b60c08301525060e062000e5d8482850162000ec7565b60e08301525061010062000e748482850162000ba5565b6101008301525061012062000e8c8482850162000b8e565b6101208301525092915050565b60008151905062000eaa816200144a565b92915050565b60008151905062000ec18162001464565b92915050565b60008151905062000ed8816200147e565b92915050565b60008151905062000eef8162001498565b92915050565b60006020828403121562000f0857600080fd5b600062000f188482850162000bbc565b91505092915050565b6000806040838503121562000f3557600080fd5b600083015167ffffffffffffffff81111562000f5057600080fd5b62000f5e8582860162000cc6565b925050602062000f718582860162000b8e565b9150509250929050565b60006020828403121562000f8e57600080fd5b600062000f9e8482850162000ede565b91505092915050565b600062000fb5838362000fdb565b60208301905092915050565b600062000fcf8383620010e2565b60208301905092915050565b62000fe68162001273565b82525050565b600062000ff98262001232565b62001005818562001262565b9350620010128362001212565b8060005b83811015620010495781516200102d888262000fa7565b97506200103a8362001248565b92505060018101905062001016565b5085935050505092915050565b600062001063826200123d565b6200106f818562001262565b93506200107c8362001222565b8060005b83811015620010b357815162001097888262000fc1565b9750620010a48362001255565b92505060018101905062001080565b5085935050505092915050565b620010cb8162001287565b82525050565b620010dc8162001293565b82525050565b620010ed8162001348565b82525050565b620010fe8162001370565b82525050565b6200110f8162001331565b82525050565b60006020820190506200112c6000830184620010c0565b92915050565b6000606082019050620011496000830186620010d1565b81810360208301526200115d818562001056565b9050818103604083015262001173818462000fec565b9050949350505050565b6000602082019050620011946000830184620010f3565b92915050565b6000602082019050620011b1600083018462001104565b92915050565b6000604051905081810181811067ffffffffffffffff82111715620011db57600080fd5b8060405250919050565b600067ffffffffffffffff821115620011fd57600080fd5b601f19601f8301169050602081019050919050565b6000819050602082019050919050565b6000819050602082019050919050565b600081519050919050565b600081519050919050565b6000602082019050919050565b6000602082019050919050565b600082825260208201905092915050565b6000620012808262001311565b9050919050565b60008115159050919050565b6000819050919050565b6000620012aa8262001273565b9050919050565b6000620012be8262001273565b9050919050565b6000819050620012d582620013ba565b919050565b60006effffffffffffffffffffffffffffff82169050919050565b60006fffffffffffffffffffffffffffffffff82169050919050565b600073ffffffffffffffffffffffffffffffffffffffff82169050919050565b6000819050919050565b600060ff82169050919050565b600062001355826200135c565b9050919050565b6000620013698262001311565b9050919050565b60006200137d82620012c5565b9050919050565b60005b83811015620013a457808201518184015260208101905062001387565b83811115620013b4576000848401525b50505050565b60038110620013c557fe5b50565b620013d38162001273565b8114620013df57600080fd5b50565b620013ed8162001287565b8114620013f957600080fd5b50565b620014078162001293565b81146200141357600080fd5b50565b62001421816200129d565b81146200142d57600080fd5b50565b6200143b81620012b1565b81146200144757600080fd5b50565b6200145581620012da565b81146200146157600080fd5b50565b6200146f81620012f5565b81146200147b57600080fd5b50565b620014898162001331565b81146200149557600080fd5b50565b620014a3816200133b565b8114620014af57600080fd5b50565b60805160a05160601c60c05160e05161010051610120516101405160601c61016051610180516101a0516101c05160601c6101e05160601c61020051610220516102405161026051610280516102a0516102c051617c436200158060003980613e0d525080613e3352508061280152508061282752505080614a21525080614a475250508061180b525080610da25250806122d25250806122aa5250806115ba525080611c3d5250806126c15250806127035250806126e252508061159252508061150f5250617c436000f3fe608060405234801561001057600080fd5b50600436106102a05760003560e01c8063707dcd1e116101675780639d2c110c116100ce578063c0ff1a1511610087578063c0ff1a15146108b9578063d505accf146108d7578063d5c096c4146108f3578063dd62ed3e14610924578063f89f27ed14610954578063ffd088eb14610972576102a0565b80639d2c110c146107bd578063a457c2d7146107ed578063a9059cbb1461081d578063aaabadc51461084d578063b10be7391461086b578063b48b5b401461089b576102a0565b806387ec68171161012057806387ec6817146106f6578063893d20e8146107275780638d928af8146107455780638dd9f89d1461076357806395d89b41146107815780639b02cdde1461079f576102a0565b8063707dcd1e146105fb57806370a082311461061957806374f3b0091461064957806376e54a461461067a5780637ecebe0014610696578063851c1bb3146106c6576102a0565b806338fff2d01161020b57806355c67628116101c457806355c676281461050a5780636028bfd41461052857806360d1507c14610559578063679aefce1461058f5780636b843239146105ad5780636d785a87146105dd576102a0565b806338fff2d01461042b57806339509351146104495780633aeae0d3146104795780633c4dd5bb1461049757806344bbdb55146104c95780634a6b0b15146104e7576102a0565b806323b872dd1161025d57806323b872dd1461037d578063292c914a146103ad578063313ce567146103b75780633331bc36146103d55780633644e515146103f157806338e9922e1461040f576102a0565b806306fdde03146102a5578063095ea7b3146102c357806316c38b3c146102f357806318160ddd1461030f5780631c0de0511461032d5780631dccd8301461034d575b600080fd5b6102ad610990565b6040516102ba9190617617565b60405180910390f35b6102dd60048036038101906102d89190616805565b610a32565b6040516102ea91906172a6565b60405180910390f35b61030d60048036038101906103089190616942565b610a49565b005b610317610a5d565b6040516103249190617674565b60405180910390f35b610335610a67565b604051610344939291906172c1565b60405180910390f35b61036760048036038101906103629190616901565b610a90565b604051610374919061724d565b60405180910390f35b61039760048036038101906103929190616718565b610bbd565b6040516103a491906172a6565b60405180910390f35b6103b5610c97565b005b6103bf610ccc565b6040516103cc91906176f6565b60405180910390f35b6103ef60048036038101906103ea9190616d06565b610ce3565b005b6103f9610d73565b60405161040691906172f8565b60405180910390f35b61042960048036038101906104249190616cb4565b610d82565b005b610433610d9e565b60405161044091906172f8565b60405180910390f35b610463600480360381019061045e9190616805565b610dc6565b60405161047091906172a6565b60405180910390f35b610481610e6b565b60405161048e9190617659565b60405180910390f35b6104b160048036038101906104ac9190616d42565b610f31565b6040516104c0939291906176bf565b60405180910390f35b6104d1610f84565b6040516104de919061745e565b60405180910390f35b6104ef610faa565b60405161050196959493929190617503565b60405180910390f35b610512611005565b60405161051f9190617674565b60405180910390f35b610542600480360381019061053d9190616994565b611017565b60405161055092919061768f565b60405180910390f35b610573600480360381019061056e9190616cb4565b611048565b6040516105869796959493929190617494565b60405180910390f35b610597611093565b6040516105a49190617674565b60405180910390f35b6105c760048036038101906105c291906168c0565b6110c5565b6040516105d49190617210565b60405180910390f35b6105e5611185565b6040516105f291906171f5565b60405180910390f35b6106036111ab565b6040516106109190617232565b60405180910390f35b610633600480360381019061062e919061668a565b6111c0565b6040516106409190617674565b60405180910390f35b610663600480360381019061065e9190616994565b611208565b60405161067192919061726f565b60405180910390f35b610694600480360381019061068f9190616c24565b6112cc565b005b6106b060048036038101906106ab919061668a565b6114c2565b6040516106bd9190617674565b60405180910390f35b6106e060048036038101906106db9190616a62565b61150b565b6040516106ed91906172f8565b60405180910390f35b610710600480360381019061070b9190616994565b61155d565b60405161071e92919061768f565b60405180910390f35b61072f61158e565b60405161073c91906171f5565b60405180910390f35b61074d6115b6565b60405161075a9190617479565b60405180910390f35b61076b6115de565b604051610778919061724d565b60405180910390f35b6107896116f7565b6040516107969190617617565b60405180910390f35b6107a7611799565b6040516107b49190617674565b60405180910390f35b6107d760048036038101906107d29190616c4d565b6117a3565b6040516107e49190617674565b60405180910390f35b61080760048036038101906108029190616805565b6119e8565b60405161081491906172a6565b60405180910390f35b61083760048036038101906108329190616805565b611a28565b60405161084491906172a6565b60405180910390f35b610855611a3f565b6040516108629190617443565b60405180910390f35b61088560048036038101906108809190616bd2565b611a4e565b6040516108929190617674565b60405180910390f35b6108a3611aea565b6040516108b09190617674565b60405180910390f35b6108c1611af4565b6040516108ce9190617674565b60405180910390f35b6108f160048036038101906108ec9190616767565b611be7565b005b61090d60048036038101906109089190616994565b611dc0565b60405161091b92919061726f565b60405180910390f35b61093e600480360381019061093991906166dc565b611f56565b60405161094b9190617674565b60405180910390f35b61095c611fce565b604051610969919061724d565b60405180910390f35b61097a611fdd565b6040516109879190617674565b60405180910390f35b606060038054600181600116156101000203166002900480601f016020809104026020016040519081016040528092919081815260200182805460018160011615610100020316600290048015610a285780601f106109fd57610100808354040283529160200191610a28565b820191906000526020600020905b815481529060010190602001808311610a0b57829003601f168201915b5050505050905090565b6000610a3f3384846120bf565b6001905092915050565b610a516121aa565b610a5a816121f3565b50565b6000600254905090565b6000806000610a7461227d565b159250610a7f6122a6565b9150610a896122ce565b9050909192565b6060815167ffffffffffffffff81118015610aaa57600080fd5b50604051908082528060200260200182016040528015610ad95781602001602082028036833780820191505090505b5090506000610ae66122f6565b905060005b8351811015610bb65773__QueryProcessor________________________6379eaef826008868481518110610b1c57fe5b6020026020010151856040518463ffffffff1660e01b8152600401610b43939291906175e0565b60206040518083038186803b158015610b5b57600080fd5b505af4158015610b6f573d6000803e3d6000fd5b505050506040513d601f19601f82011682018060405250810190610b939190616cdd565b838281518110610b9f57fe5b602002602001018181525050806001019050610aeb565b5050919050565b600080610bca8533611f56565b9050610c118573ffffffffffffffffffffffffffffffffffffffff163373ffffffffffffffffffffffffffffffffffffffff161480610c095750838210155b61019e612308565b610c1c85858561231b565b8473ffffffffffffffffffffffffffffffffffffffff163373ffffffffffffffffffffffffffffffffffffffff1614158015610c7857507fffffffffffffffffffffffffffffffffffffffffffffffffffffffffffffffff8114155b15610c8b57610c8a85338584036120bf565b5b60019150509392505050565b610c9f612532565b610ca76121aa565b610cb16001612547565b6000610cbb610a5d565b1115610cca57610cc961259c565b5b565b6000600560009054906101000a900460ff16905090565b610cfe8183108015610cf757506104008211155b6064612308565b6000610d1360016000806000806000806125ff565b905060008390505b82811015610d6d576000610d4160086000848152602001908152602001600020546126a0565b1415610d60578160086000838152602001908152602001600020819055505b8080600101915050610d1b565b50505050565b6000610d7d6126bd565b905090565b610d8a6121aa565b610d92612532565b610d9b8161275a565b50565b60007f0000000000000000000000000000000000000000000000000000000000000000905090565b6000610e613384610e5c85600160003373ffffffffffffffffffffffffffffffffffffffff1673ffffffffffffffffffffffffffffffffffffffff16815260200190815260200160002060008973ffffffffffffffffffffffffffffffffffffffff1673ffffffffffffffffffffffffffffffffffffffff168152602001908152602001600020546127d890919063ffffffff16565b6120bf565b6001905092915050565b610e73615f8b565b600b6040518060600160405290816000820160009054906101000a900460ff161515151581526020016000820160019054906101000a90046effffffffffffffffffffffffffffff166effffffffffffffffffffffffffffff166effffffffffffffffffffffffffffff1681526020016000820160109054906101000a90046fffffffffffffffffffffffffffffffff166fffffffffffffffffffffffffffffffff166fffffffffffffffffffffffffffffffff1681525050905090565b600080600080610f40856127f8565b90506000610f4e86156127f8565b9050610f5a888361284e565b9750610f66878261284e565b9650610f73888888612862565b945094509450505093509350939050565b600d60009054906101000a900473ffffffffffffffffffffffffffffffffffffffff1681565b60008060008060008060006009549050610fc3816129c2565b9650610fce816129df565b9550610fd9816129fc565b9450610fe481612a19565b9350610fef81612a36565b9250610ffa81612a53565b915050909192939495565b6000611012600954612a53565b905090565b6000606061102786516002612a70565b61103c89898989898989612a81612c15612c98565b97509795505050505050565b6000806000806000806000611063610400891061013b612308565b600061106e89612e18565b905061107981612e35565b975097509750975097509750975050919395979092949650565b60006110c06110a0610a5d565b6110b26110ab611af4565b6002612e98565b612ecb90919063ffffffff16565b905090565b6060815167ffffffffffffffff811180156110df57600080fd5b5060405190808252806020026020018201604052801561110e5781602001602082028036833780820191505090505b509050600061111b6122f6565b9050611125615fd1565b60005b845181101561117d5784818151811061113d57fe5b6020026020010151915061115a8260000151848460200151612f2f565b84828151811061116657fe5b602002602001018181525050806001019050611128565b505050919050565b600c60009054906101000a900473ffffffffffffffffffffffffffffffffffffffff1681565b6111b3615ff6565b6111bb612fc8565b905090565b60008060008373ffffffffffffffffffffffffffffffffffffffff1673ffffffffffffffffffffffffffffffffffffffff168152602001908152602001600020549050919050565b6060808861124c6112176115b6565b73ffffffffffffffffffffffffffffffffffffffff163373ffffffffffffffffffffffffffffffffffffffff161460cd612308565b611261611257610d9e565b82146101f4612308565b61126a87613013565b600060608061127e8d8d8d8d8d8d8d612a81565b92509250925061128e8c84613096565b61129782612c15565b6112a081612c15565b6112a861227d565b156112b6576112b561259c565b5b8181955095505050505097509795505050505050565b600c60009054906101000a900473ffffffffffffffffffffffffffffffffffffffff1673ffffffffffffffffffffffffffffffffffffffff163373ffffffffffffffffffffffffffffffffffffffff16146040518060400160405280600e81526020017f6e6f7420617574686f72697a656400000000000000000000000000000000000081525090611394576040517f08c379a000000000000000000000000000000000000000000000000000000000815260040161138b9190617617565b60405180910390fd5b50600b60000160009054906101000a900460ff166040518060400160405280601081526020017f706f6f6c20697320756e636170706564000000000000000000000000000000008152509061141f576040517f08c379a00000000000000000000000000000000000000000000000000000000081526004016114169190617617565b60405180910390fd5b508060000151600b60000160006101000a81548160ff0219169083151502179055508060200151600b60000160016101000a8154816effffffffffffffffffffffffffffff02191690836effffffffffffffffffffffffffffff1602179055508060400151600b60000160106101000a8154816fffffffffffffffffffffffffffffffff02191690836fffffffffffffffffffffffffffffffff16021790555050565b6000600660008373ffffffffffffffffffffffffffffffffffffffff1673ffffffffffffffffffffffffffffffffffffffff168152602001908152602001600020549050919050565b60007f000000000000000000000000000000000000000000000000000000000000000082604051602001611540929190617179565b604051602081830303815290604052805190602001209050919050565b6000606061156d86516002612a70565b611582898989898989896130a4613221612c98565b97509795505050505050565b60007f0000000000000000000000000000000000000000000000000000000000000000905090565b60007f0000000000000000000000000000000000000000000000000000000000000000905090565b6060806115e96115b6565b73ffffffffffffffffffffffffffffffffffffffff1663f94d466861160c610d9e565b6040518263ffffffff1660e01b815260040161162891906172f8565b60006040518083038186803b15801561164057600080fd5b505afa158015611654573d6000803e3d6000fd5b505050506040513d6000823e3d601f19601f8201168201806040525081019061167d9190616841565b5091505061168a81613013565b6116be8160008151811061169a57fe5b6020026020010151826001815181106116af57fe5b60200260200101516001612862565b909150836000815181106116ce57fe5b60200260200101846001815181106116e257fe5b60200260200101828152508281525050505090565b606060048054600181600116156101000203166002900480601f01602080910402602001604051908101604052809291908181526020018280546001816001161561010002031660029004801561178f5780601f106117645761010080835404028352916020019161178f565b820191906000526020600020905b81548152906001019060200180831161177257829003601f168201915b5050505050905090565b6000600a54905090565b60006117ad612532565b83608001516117f26117bd6115b6565b73ffffffffffffffffffffffffffffffffffffffff163373ffffffffffffffffffffffffffffffffffffffff161460cd612308565b6118076117fd610d9e565b82146101f4612308565b60007f000000000000000000000000000000000000000000000000000000000000000073ffffffffffffffffffffffffffffffffffffffff16866020015173ffffffffffffffffffffffffffffffffffffffff161490506000611869826127f8565b9050600061187783156127f8565b9050611883878361284e565b965061188f868261284e565b955060008060006118a18a8a88612862565b9250925092506118e88b60a00151876118ba578a6118bc565b8b5b886118c7578c6118c9565b8b5b896118d457846118d6565b855b8a6118e157866118e3565b855b6132a4565b600060018111156118f557fe5b8b60000151600181111561190557fe5b141561198057600061192b611918611005565b8d6060015161336790919063ffffffff16565b905061194d611947828e606001516133c590919063ffffffff16565b8761284e565b8c606001818152505060006119658d8d8d87876133e6565b90506119718187613404565b995050505050505050506119e0565b61198e8b606001518561284e565b8b606001818152505060006119a68c8c8c8686613418565b90506119b28187613436565b90506119d66119c76119c2611005565b61344a565b8261347590919063ffffffff16565b9850505050505050505b509392505050565b6000806119f53385611f56565b9050808310611a0f57611a0a338560006120bf565b611a1d565b611a1c33858584036120bf565b5b600191505092915050565b6000611a3533848461231b565b6001905092915050565b6000611a496134df565b905090565b600073__QueryProcessor________________________630397bee0600884611a756122f6565b6040518463ffffffff1660e01b8152600401611a9393929190617564565b60206040518083038186803b158015611aab57600080fd5b505af4158015611abf573d6000803e3d6000fd5b505050506040513d601f19601f82011682018060405250810190611ae39190616cdd565b9050919050565b6000610400905090565b60006060611b006115b6565b73ffffffffffffffffffffffffffffffffffffffff1663f94d4668611b23610d9e565b6040518263ffffffff1660e01b8152600401611b3f91906172f8565b60006040518083038186803b158015611b5757600080fd5b505afa158015611b6b573d6000803e3d6000fd5b505050506040513d6000823e3d601f19601f82011682018060405250810190611b949190616841565b50915050611ba0615ff6565b611ba8612fc8565b9050611bb382613013565b611be08282600060028110611bc457fe5b602002015183600160028110611bd657fe5b602002015161356b565b9250505090565b611bf58442111560d1612308565b6000600660008973ffffffffffffffffffffffffffffffffffffffff1673ffffffffffffffffffffffffffffffffffffffff16815260200190815260200160002054905060007f0000000000000000000000000000000000000000000000000000000000000000898989858a604051602001611c769695949392919061734a565b6040516020818303038152906040528051906020012090506000611c998261359f565b9050600060018288888860405160008152602001604052604051611cc094939291906173fe565b6020604051602081039080840390855afa158015611ce2573d6000803e3d6000fd5b505050602060405103519050611d61600073ffffffffffffffffffffffffffffffffffffffff168273ffffffffffffffffffffffffffffffffffffffff1614158015611d5957508b73ffffffffffffffffffffffffffffffffffffffff168273ffffffffffffffffffffffffffffffffffffffff16145b6101f8612308565b60018401600660008d73ffffffffffffffffffffffffffffffffffffffff1673ffffffffffffffffffffffffffffffffffffffff16815260200190815260200160002081905550611db38b8b8b6120bf565b5050505050505050505050565b60608088611e04611dcf6115b6565b73ffffffffffffffffffffffffffffffffffffffff163373ffffffffffffffffffffffffffffffffffffffff161460cd612308565b611e19611e0f610d9e565b82146101f4612308565b611e21612532565b600080611e2c610a5d565b1415611ecc57611e3e8b8b8b886135d8565b8095508192505050611e57620f424082101560cc612308565b611e656000620f424061369c565b611e7489620f4240830361369c565b611e7d84613221565b600267ffffffffffffffff81118015611e9557600080fd5b50604051908082528060200260200182016040528015611ec45781602001602082028036833780820191505090505b509250611f40565b611ed588613013565b611f088789600081518110611ee657fe5b60200260200101518a600181518110611efb57fe5b60200260200101516136aa565b611f178b8b8b8b8b8b8b6130a4565b809550819650829350505050611f2d898261369c565b611f3684613221565b611f3f83612c15565b5b611f4861259c565b505097509795505050505050565b6000611f606115b6565b73ffffffffffffffffffffffffffffffffffffffff168273ffffffffffffffffffffffffffffffffffffffff161415611fbb577fffffffffffffffffffffffffffffffffffffffffffffffffffffffffffffffff9050611fc8565b611fc583836136af565b90505b92915050565b6060611fd8613736565b905090565b60006201de20905090565b6060819050611ff6816137d0565b5050565b60006120128260558561205b9092919063ffffffff16565b905092915050565b6000612032826056856120929092919063ffffffff16565b905092915050565b600061204a838311156001612308565b600082840390508091505092915050565b600080826001901b198560001c1660001b9050828461207b57600061207e565b60015b60ff16901b60001b81179150509392505050565b6000808267ffffffffffffffff901b198560001c1660001b90508284901b60001b81179150509392505050565b80600160008573ffffffffffffffffffffffffffffffffffffffff1673ffffffffffffffffffffffffffffffffffffffff16815260200190815260200160002060008473ffffffffffffffffffffffffffffffffffffffff1673ffffffffffffffffffffffffffffffffffffffff168152602001908152602001600020819055508173ffffffffffffffffffffffffffffffffffffffff168373ffffffffffffffffffffffffffffffffffffffff167f8c5be1e5ebec7d5bd14f71427d1e84f3dd0314c0f7b2291e5b200ac8c7c3b9258360405161219d9190617674565b60405180910390a3505050565b60006121d96000357fffffffff000000000000000000000000000000000000000000000000000000001661150b565b90506121f06121e8823361386e565b610191612308565b50565b80156122135761220e6122046122a6565b4210610193612308565b612229565b61222861221e6122ce565b42106101a9612308565b5b80600760006101000a81548160ff0219169083151502179055507f9e3a5e37224532dea67b89face185703738a228a6e8a23dee546960180d3be648160405161227291906172a6565b60405180910390a150565b60006122876122ce565b4211806122a15750600760009054906101000a900460ff16155b905090565b60007f0000000000000000000000000000000000000000000000000000000000000000905090565b60007f0000000000000000000000000000000000000000000000000000000000000000905090565b6000612303600954612a19565b905090565b8161231757612316816139ab565b5b5050565b612357600073ffffffffffffffffffffffffffffffffffffffff168473ffffffffffffffffffffffffffffffffffffffff161415610198612308565b612393600073ffffffffffffffffffffffffffffffffffffffff168373ffffffffffffffffffffffffffffffffffffffff161415610199612308565b61239e838383613a1b565b6123f3816101a06000808773ffffffffffffffffffffffffffffffffffffffff1673ffffffffffffffffffffffffffffffffffffffff16815260200190815260200160002054613a209092919063ffffffff16565b6000808573ffffffffffffffffffffffffffffffffffffffff1673ffffffffffffffffffffffffffffffffffffffff16815260200190815260200160002081905550612486816000808573ffffffffffffffffffffffffffffffffffffffff1673ffffffffffffffffffffffffffffffffffffffff168152602001908152602001600020546127d890919063ffffffff16565b6000808473ffffffffffffffffffffffffffffffffffffffff1673ffffffffffffffffffffffffffffffffffffffff168152602001908152602001600020819055508173ffffffffffffffffffffffffffffffffffffffff168373ffffffffffffffffffffffffffffffffffffffff167fddf252ad1be2c89b69c2b068fc378daa952ba7f163c4a11628f55a4df523b3ef836040516125259190617674565b60405180910390a3505050565b61254561253d61227d565b610192612308565b565b61255c81600954611ffa90919063ffffffff16565b6009819055507f3e350b41e86a8e10f804ade6d35340d620be35569cc75ac943e8bb14ab80ead18160405161259191906172a6565b60405180910390a150565b600060095490506125ac81612a36565b156125fc576125ce6125bf600a54613a41565b82613a8b90919063ffffffff16565b90506125f26125e36125de610a5d565b613a41565b82613aab90919063ffffffff16565b9050806009819055505b50565b6000612615600083613acb90919063ffffffff16565b612629601f85613adc90919063ffffffff16565b61263d605487613af690919063ffffffff16565b612651606a89613adc90919063ffffffff16565b612665609f8b613af690919063ffffffff16565b61267960b58d613adc90919063ffffffff16565b61268d60ea8f613af690919063ffffffff16565b1717171717179050979650505050505050565b60006126b6600083613b0c90919063ffffffff16565b9050919050565b60007f00000000000000000000000000000000000000000000000000000000000000007f00000000000000000000000000000000000000000000000000000000000000007f000000000000000000000000000000000000000000000000000000000000000061272a613b23565b3060405160200161273f9594939291906173ab565b60405160208183030381529060405280519060200120905090565b61276d64e8d4a5100082101560cb612308565b61278367016345785d8a000082111560ca612308565b6127988160095461201a90919063ffffffff16565b6009819055507fa9ba3ffe0b6c366b81232caab38605a0699ad5398d6cce76f91ee809e322dafc816040516127cd9190617674565b60405180910390a150565b60008082840190506127ee848210156000612308565b8091505092915050565b600081612825577f0000000000000000000000000000000000000000000000000000000000000000612847565b7f00000000000000000000000000000000000000000000000000000000000000005b9050919050565b600061285a8383612e98565b905092915050565b60008060006060600267ffffffffffffffff8111801561288157600080fd5b506040519080825280602002602001820160405280156128b05781602001602082028036833780820191505090505b509050846128be57856128c0565b865b816000815181106128cd57fe5b602002602001018181525050846128e457866128e6565b855b816001815181106128f357fe5b602002602001018181525050612907615ff6565b61290f612fc8565b905061293e828260006002811061292257fe5b60200201518360016002811061293457fe5b602002015161356b565b9450612948615ff6565b6129528287613b2b565b905086612970578060016002811061296657fe5b6020020151612983565b8060006002811061297d57fe5b60200201515b9450866129a1578060006002811061299757fe5b60200201516129b4565b806001600281106129ae57fe5b60200201515b935050505093509350939050565b60006129d8600083613b9f90919063ffffffff16565b9050919050565b60006129f5601683613b9f90919063ffffffff16565b9050919050565b6000612a12602c83613b0c90919063ffffffff16565b9050919050565b6000612a2f604b83613bd190919063ffffffff16565b9050919050565b6000612a4c605583613be690919063ffffffff16565b9050919050565b6000612a69605683613bfc90919063ffffffff16565b9050919050565b612a7d8183146067612308565b5050565b6000606080612a8e615ff6565b612a96612fc8565b9050612aa061227d565b15612b7d576000612ad48983600060028110612ab857fe5b602002015184600160028110612aca57fe5b602002015161356b565b9050612ade615ff6565b612ae88383613b2b565b9050612b41898b600081518110612afb57fe5b60200260200101518c600181518110612b1057fe5b602002602001015184600060028110612b2557fe5b602002015185600160028110612b3757fe5b60200201516132a4565b612b4a82613c17565b612b548a88613c44565b8096508197505050612b708287612b69610a5d565b6000613c9f565b600a819055505050612bb7565b612b878886613c44565b80945081955050507fffffffffffffffffffffffffffffffffffffffffffffffffffffffffffffffff600a819055505b8383600267ffffffffffffffff81118015612bd157600080fd5b50604051908082528060200260200182016040528015612c005781602001602082028036833780820191505090505b50935093509350509750975097945050505050565b612c3c81600081518110612c2557fe5b6020026020010151612c3760016127f8565b613d33565b81600081518110612c4957fe5b602002602001018181525050612c7c81600181518110612c6557fe5b6020026020010151612c7760006127f8565b613d33565b81600181518110612c8957fe5b60200260200101818152505050565b3073ffffffffffffffffffffffffffffffffffffffff163373ffffffffffffffffffffffffffffffffffffffff1614612dc35760003073ffffffffffffffffffffffffffffffffffffffff16600036604051612cf59291906171a5565b6000604051808303816000865af19150503d8060008114612d32576040519150601f19603f3d011682016040523d82523d6000602084013e612d37565b606091505b505090508060008114612d4657fe5b60046000803e7fffffffff000000000000000000000000000000000000000000000000000000006000511660007f43adbafb0000000000000000000000000000000000000000000000000000000082141415612da6573d6000803e3d6000fd5b6020600460003e604060205260243d03602460403e601c3d016000f35b612dcc86613013565b60006060612de38b8b8b8b8b8b8b8b63ffffffff16565b5091509150612df5818463ffffffff16565b6020815102602082038381526343adbafb60208203526004810390506044820181fd5b600060086000838152602001908152602001600020549050919050565b6000806000806000806000612e4988613d56565b9650612e5488613d73565b9550612e5f88613d90565b9450612e6a88613dad565b9350612e7588613dca565b9250612e8088613de7565b9150612e8b886126a0565b9050919395979092949650565b6000808284029050612ec16000851480612eba575083858381612eb757fe5b04145b6003612308565b8091505092915050565b6000612edc60008314156004612308565b6000831415612eee5760009050612f29565b6000670de0b6b3a764000084029050612f1b670de0b6b3a7640000858381612f1257fe5b04146005612308565b828181612f2457fe5b049150505b92915050565b600073__QueryProcessor________________________6334171a8560088686866040518563ffffffff1660e01b8152600401612f6f949392919061759b565b60206040518083038186803b158015612f8757600080fd5b505af4158015612f9b573d6000803e3d6000fd5b505050506040513d601f19601f82011682018060405250810190612fbf9190616bfb565b90509392505050565b612fd0615ff6565b612fda6001613e04565b81600060028110612fe757fe5b602002018181525050612ffa6000613e04565b8160016002811061300757fe5b60200201818152505090565b61303a8160008151811061302357fe5b602002602001015161303560016127f8565b612e98565b8160008151811061304757fe5b60200260200101818152505061307a8160018151811061306357fe5b602002602001015161307560006127f8565b612e98565b8160018151811061308757fe5b60200260200101818152505050565b6130a08282613e5a565b5050565b60006060806130b1615ff6565b6130b9612fc8565b905060006130ea89836000600281106130ce57fe5b6020020151846001600281106130e057fe5b602002015161356b565b90506130f4615ff6565b6130fe8383613b2b565b9050613157898b60008151811061311157fe5b60200260200101518c60018151811061312657fe5b60200260200101518460006002811061313b57fe5b60200201518560016002811061314d57fe5b60200201516132a4565b61316082613c17565b6000606061316e8c8a613fbe565b91509150600b60000160009054906101000a900460ff16156131a5576131a4826131978f6111c0565b61319f610a5d565b614018565b5b6131b984836131b2610a5d565b6001613c9f565b600a819055508181600267ffffffffffffffff811180156131d957600080fd5b506040519080825280602002602001820160405280156132085781602001602082028036833780820191505090505b5097509750975050505050509750975097945050505050565b6132488160008151811061323157fe5b602002602001015161324360016127f8565b614228565b8160008151811061325557fe5b6020026020010181815250506132888160018151811061327157fe5b602002602001015161328360006127f8565b614228565b8160018151811061329557fe5b60200260200101818152505050565b600060095490506132b481612a36565b80156132bf57508543115b1561335f5760006132d286858786614264565b905060006132eb878688876132e6886129df565b614289565b905060006132f884612a19565b90506000613305856129fc565b9050600061331e828487876133198b6129c2565b6142e1565b90508083146133595761333a818761434f90919063ffffffff16565b955061334f428761436f90919063ffffffff16565b9550856009819055505b50505050505b505050505050565b6000808284029050613390600085148061338957508385838161338657fe5b04145b6003612308565b60008114156133a35760009150506133bf565b6001670de0b6b3a764000060018303816133b957fe5b04019150505b92915050565b60006133d5838311156001612308565b600082840390508091505092915050565b60006133f985858860600151868661438f565b905095945050505050565b60006134108383613d33565b905092915050565b600061342b85858860600151868661449d565b905095945050505050565b60006134428383614228565b905092915050565b6000670de0b6b3a7640000821061346257600061346e565b81670de0b6b3a7640000035b9050919050565b600061348660008314156004612308565b600083141561349857600090506134d9565b6000670de0b6b3a7640000840290506134c5670de0b6b3a76400008583816134bc57fe5b04146005612308565b60018360018303816134d357fe5b04019150505b92915050565b60006134e96115b6565b73ffffffffffffffffffffffffffffffffffffffff1663aaabadc56040518163ffffffff1660e01b815260040160206040518083038186803b15801561352e57600080fd5b505afa158015613542573d6000803e3d6000fd5b505050506040513d601f19601f820116820180604052508101906135669190616a8b565b905090565b600080600080600061357e8888886145ab565b935093509350935061359284848484614800565b9450505050509392505050565b60006135a96126bd565b826040516020016135bb9291906171be565b604051602081830303815290604052805190602001209050919050565b6000606060006135e7846148b6565b905061360d600060038111156135f957fe5b82600381111561360557fe5b1460ce612308565b6060613618856148d3565b905061362681516002612a70565b61362f81613013565b613637615ff6565b61363f612fc8565b90506000613670838360006002811061365457fe5b60200201518460016002811061366657fe5b602002015161356b565b9050600061367f826002612e98565b905081600a81905550808496509650505050505094509492505050565b6136a682826148f4565b5050565b505050565b6000600160008473ffffffffffffffffffffffffffffffffffffffff1673ffffffffffffffffffffffffffffffffffffffff16815260200190815260200160002060008373ffffffffffffffffffffffffffffffffffffffff1673ffffffffffffffffffffffffffffffffffffffff16815260200190815260200160002054905092915050565b606080600267ffffffffffffffff8111801561375157600080fd5b506040519080825280602002602001820160405280156137805781602001602082028036833780820191505090505b50905061378d6001614a18565b8160008151811061379a57fe5b6020026020010181815250506137b06000614a18565b816001815181106137bd57fe5b6020026020010181815250508091505090565b6002815110156137df5761386b565b6000816000815181106137ee57fe5b602002602001015190506000600190505b825181101561386857600083828151811061381657fe5b602002602001015190506138598173ffffffffffffffffffffffffffffffffffffffff168473ffffffffffffffffffffffffffffffffffffffff16106065612308565b809250508060010190506137ff565b50505b50565b600073ba1ba1ba1ba1ba1ba1ba1ba1ba1ba1ba1ba1ba1b73ffffffffffffffffffffffffffffffffffffffff166138a361158e565b73ffffffffffffffffffffffffffffffffffffffff16141580156138cc57506138cb83614a6e565b5b1561390e576138d961158e565b73ffffffffffffffffffffffffffffffffffffffff163373ffffffffffffffffffffffffffffffffffffffff161490506139a5565b6139166134df565b73ffffffffffffffffffffffffffffffffffffffff16639be2a8848484306040518463ffffffff1660e01b815260040161395293929190617313565b60206040518083038186803b15801561396a57600080fd5b505afa15801561397e573d6000803e3d6000fd5b505050506040513d601f19601f820116820180604052508101906139a2919061696b565b90505b92915050565b6030600a820601600a820491506030600a830601600a830492506030600a8406018060101b8260081b8401016642414c230000000160c81b7f08c379a000000000000000000000000000000000000000000000000000000000600052602060045260076024528060445260646000fd5b505050565b6000613a2f8484111583612308565b60008385039050809150509392505050565b600080613a4d83614aa2565b90506000808213613a6657652d79883d20008203613a70565b652d79883d200082015b9050655af3107a40008181613a8157fe5b0592505050919050565b6000613aa382600085614b1b9092919063ffffffff16565b905092915050565b6000613ac382601685614b1b9092919063ffffffff16565b905092915050565b60008183901b60001b905092915050565b600081661fffffffffffff8416901b60001b905092915050565b600081623fffff8416901b60001b905092915050565b6000637fffffff8284901c60001c16905092915050565b600046905090565b613b33615ff6565b613b50600184600160028110613b4557fe5b602002015184614b48565b81600060028110613b5d57fe5b602002018181525050613b83600084600060028110613b7857fe5b602002015184614b48565b81600160028110613b9057fe5b60200201818152505092915050565b600080623fffff8385901c60001c169050621fffff8113613bc05780613bc8565b623fffff1981175b91505092915050565b60006103ff8284901c60001c16905092915050565b60006001808385901c60001c1614905092915050565b600067ffffffffffffffff8284901c60001c16905092915050565b600080600080613c29600a5486614b72565b9350935093509350613c3d84848484614be4565b5050505050565b600060606000613c5384614c12565b905060016003811115613c6257fe5b816003811115613c6e57fe5b1415613c8b57613c7e8585614c2f565b8093508194505050613c97565b613c966101506139ab565b5b509250929050565b60008115613ceb576000613cce84613cc0878961336790919063ffffffff16565b61347590919063ffffffff16565b9050613ce38187614c6590919063ffffffff16565b915050613d2b565b6000613d1284613d048789614c8590919063ffffffff16565b612ecb90919063ffffffff16565b9050613d2781876133c590919063ffffffff16565b9150505b949350505050565b6000613d4460008314156004612308565b818381613d4d57fe5b04905092915050565b6000613d6c60ea83613b9f90919063ffffffff16565b9050919050565b6000613d8960b583614cc990919063ffffffff16565b9050919050565b6000613da6609f83613b9f90919063ffffffff16565b9050919050565b6000613dc3606a83614cc990919063ffffffff16565b9050919050565b6000613de0605483613b9f90919063ffffffff16565b9050919050565b6000613dfd601f83614cc990919063ffffffff16565b9050919050565b600081613e31577f0000000000000000000000000000000000000000000000000000000000000000613e53565b7f00000000000000000000000000000000000000000000000000000000000000005b9050919050565b613e96600073ffffffffffffffffffffffffffffffffffffffff168373ffffffffffffffffffffffffffffffffffffffff16141561019b612308565b613ea282600083613a1b565b613ef7816101a16000808673ffffffffffffffffffffffffffffffffffffffff1673ffffffffffffffffffffffffffffffffffffffff16815260200190815260200160002054613a209092919063ffffffff16565b6000808473ffffffffffffffffffffffffffffffffffffffff1673ffffffffffffffffffffffffffffffffffffffff16815260200190815260200160002081905550613f4e81600254614d0790919063ffffffff16565b600281905550600073ffffffffffffffffffffffffffffffffffffffff168273ffffffffffffffffffffffffffffffffffffffff167fddf252ad1be2c89b69c2b068fc378daa952ba7f163c4a11628f55a4df523b3ef83604051613fb29190617674565b60405180910390a35050565b600060606000613fcd846148b6565b9050600380811115613fdb57fe5b816003811115613fe757fe5b141561400457613ff78585614d1d565b8093508194505050614010565b61400f6101366139ab565b5b509250929050565b614020615f8b565b600b6040518060600160405290816000820160009054906101000a900460ff161515151581526020016000820160019054906101000a90046effffffffffffffffffffffffffffff166effffffffffffffffffffffffffffff166effffffffffffffffffffffffffffff1681526020016000820160109054906101000a90046fffffffffffffffffffffffffffffffff166fffffffffffffffffffffffffffffffff166fffffffffffffffffffffffffffffffff1681525050905080602001516effffffffffffffffffffffffffffff166141048486614c6590919063ffffffff16565b11156040518060400160405280601a81526020017f6f7665722061646472657373206c6971756964697479206361700000000000008152509061417d576040517f08c379a00000000000000000000000000000000000000000000000000000000081526004016141749190617617565b60405180910390fd5b5080604001516fffffffffffffffffffffffffffffffff166141a88386614c6590919063ffffffff16565b11156040518060400160405280601981526020017f6f76657220676c6f62616c206c6971756964697479206361700000000000000081525090614221576040517f08c379a00000000000000000000000000000000000000000000000000000000081526004016142189190617617565b60405180910390fd5b5050505050565b600061423960008314156004612308565b600083141561424b576000905061425e565b81600184038161425757fe5b0460010190505b92915050565b60008061427386868686614d53565b905061427e81613a41565b915050949350505050565b60008061429887878787614d53565b905060006142c16142b2838861336790919063ffffffff16565b89614c6590919063ffffffff16565b905060006142ce82613a41565b9050848103935050505095945050505050565b600080614305858585426142f48b612e18565b614dc790949392919063ffffffff16565b905060006078884203101590508061431d5786614327565b61432687614e28565b5b9650816008600089815260200190815260200160002081905550869250505095945050505050565b600061436782604b85614e3c9092919063ffffffff16565b905092915050565b600061438782602c85614e639092919063ffffffff16565b905092915050565b60006143ba6143af670429d069189e000088614c8590919063ffffffff16565b851115610130612308565b60006143ec6143dd6002670de0b6b3a7640000018661336790919063ffffffff16565b88614c6590919063ffffffff16565b905060006144206144116001670de0b6b3a76400000386614c8590919063ffffffff16565b88614c6590919063ffffffff16565b90506144596144388784614c6590919063ffffffff16565b61444b8884614c8590919063ffffffff16565b612ecb90919063ffffffff16565b9250505061446b858210610165612308565b614494614489670429d069189e000087614c8590919063ffffffff16565b821115610131612308565b95945050505050565b60006144ad858510610165612308565b6144d66144cb670429d069189e000087614c8590919063ffffffff16565b851115610131612308565b60006145086144f96002670de0b6b3a7640000018661336790919063ffffffff16565b88614c6590919063ffffffff16565b9050600061453c61452d6001670de0b6b3a76400000386614c8590919063ffffffff16565b88614c6590919063ffffffff16565b905061457561455487836133c590919063ffffffff16565b614567888561336790919063ffffffff16565b61347590919063ffffffff16565b925050506145a2614597670429d069189e000088614c8590919063ffffffff16565b821115610130612308565b95945050505050565b6000806000806145de6145c78688612ecb90919063ffffffff16565b670de0b6b3a76400006133c590919063ffffffff16565b9350600061460986896001815181106145f357fe5b6020026020010151612ecb90919063ffffffff16565b90506000614634888a60008151811061461e57fe5b6020026020010151614c8590919063ffffffff16565b90506146498183614c6590919063ffffffff16565b94506146868960018151811061465b57fe5b60200260200101518a60008151811061467057fe5b6020026020010151614c8590919063ffffffff16565b925050506146e9866146db886146cd8b6000815181106146a257fe5b60200260200101518c6000815181106146b757fe5b6020026020010151614c8590919063ffffffff16565b614c8590919063ffffffff16565b614c8590919063ffffffff16565b915060006147698661475b8961474d670de0b6b3a764000060020261473f8e60018151811061471457fe5b60200260200101518f60008151811061472957fe5b6020026020010151614c8590919063ffffffff16565b614c8590919063ffffffff16565b614c8590919063ffffffff16565b612ecb90919063ffffffff16565b905060006147cc614783888961336790919063ffffffff16565b6147be8b60018151811061479357fe5b60200260200101518c6001815181106147a857fe5b6020026020010151614c8590919063ffffffff16565b612ecb90919063ffffffff16565b90506147f3816147e58487614c6590919063ffffffff16565b614c6590919063ffffffff16565b9350505093509350935093565b600080614821670de0b6b3a76400006002028761336790919063ffffffff16565b9050600061485587614847670de0b6b3a764000060040287614c8590919063ffffffff16565b614c8590919063ffffffff16565b9050600061486c8287614c6590919063ffffffff16565b9050600061487b826005614e8c565b90506000614892828a614c6590919063ffffffff16565b90506148a78582612ecb90919063ffffffff16565b95505050505050949350505050565b6000818060200190518101906148cc9190616b19565b9050919050565b6060818060200190518101906148e99190616b42565b905080915050919050565b61490060008383613a1b565b614915816002546127d890919063ffffffff16565b60028190555061496c816000808573ffffffffffffffffffffffffffffffffffffffff1673ffffffffffffffffffffffffffffffffffffffff168152602001908152602001600020546127d890919063ffffffff16565b6000808473ffffffffffffffffffffffffffffffffffffffff1673ffffffffffffffffffffffffffffffffffffffff168152602001908152602001600020819055508173ffffffffffffffffffffffffffffffffffffffff16600073ffffffffffffffffffffffffffffffffffffffff167fddf252ad1be2c89b69c2b068fc378daa952ba7f163c4a11628f55a4df523b3ef83604051614a0c9190617674565b60405180910390a35050565b600081614a45577f0000000000000000000000000000000000000000000000000000000000000000614a67565b7f00000000000000000000000000000000000000000000000000000000000000005b9050919050565b6000614a806338e9922e60e01b61150b565b821480614a9b5750614a986350dd6ed960e01b61150b565b82145b9050919050565b6000614ab2600083136064612308565b8167016345785d8a0000670de0b6b3a764000003128015614ae4575067016345785d8a0000670de0b6b3a76400000182125b15614b0a57670de0b6b3a7640000614afb83615054565b81614b0257fe5b059050614b16565b614b1382615201565b90505b919050565b60008082623fffff901b198560001c1660001b905082623fffff8516901b60001b81179150509392505050565b600083614b5e57614b598284615698565b614b69565b614b6882846156b5565b5b90509392505050565b600080600080600080600080614b866156d2565b93509350935093506000841415614bad576000808383975097509750975050505050614bdb565b600080614bc48c8c614bbd610a5d565b8989615a12565b915091508181858599509950995099505050505050505b92959194509250565b6000841115614bf857614bf7828561369c565b5b6000831115614c0c57614c0b818461369c565b5b50505050565b600081806020019051810190614c289190616ab4565b9050919050565b600060606000614c3e84615aff565b90506060614c548683614c4f610a5d565b615b20565b905081819350935050509250929050565b6000808284019050614c7b848210156000612308565b8091505092915050565b6000808284029050614cae6000851480614ca7575083858381614ca457fe5b04145b6003612308565b670de0b6b3a76400008181614cbf57fe5b0491505092915050565b600080661fffffffffffff8385901c60001c169050660fffffffffffff8113614cf25780614cfe565b661fffffffffffff1981175b91505092915050565b6000614d1583836001613a20565b905092915050565b600060606000614d2c84615bdd565b90506060614d428683614d3d610a5d565b615bfe565b905081819350935050509250929050565b6000806706f05b59d3b200009050614dbc614d8982614d7b8688614c6590919063ffffffff16565b61347590919063ffffffff16565b614dae83614da0898b614c6590919063ffffffff16565b61347590919063ffffffff16565b61347590919063ffffffff16565b915050949350505050565b600080614dd3876126a0565b830390506000818702614de589613d73565b0190506000828702614df68a613dad565b0190506000838702614e078b613de7565b019050614e1989848a858b868c6125ff565b94505050505095945050505050565b6000614e35826001615cbb565b9050919050565b600080826103ff901b198560001c1660001b90508284901b60001b81179150509392505050565b60008082637fffffff901b198560001c1660001b90508284901b60001b81179150509392505050565b600080831415614e9f576000905061504e565b6000614eaa84615cd3565b9050600281670de0b6b3a7640000860281614ec157fe5b04820181614ecb57fe5b049050600281670de0b6b3a7640000860281614ee357fe5b04820181614eed57fe5b049050600281670de0b6b3a7640000860281614f0557fe5b04820181614f0f57fe5b049050600281670de0b6b3a7640000860281614f2757fe5b04820181614f3157fe5b049050600281670de0b6b3a7640000860281614f4957fe5b04820181614f5357fe5b049050600281670de0b6b3a7640000860281614f6b57fe5b04820181614f7557fe5b049050600281670de0b6b3a7640000860281614f8d57fe5b04820181614f9757fe5b0490506000614faf8283614c8590919063ffffffff16565b9050614fd6614fc7858461336790919063ffffffff16565b86614c6590919063ffffffff16565b81111580156150095750615005614ff6858461336790919063ffffffff16565b866133c590919063ffffffff16565b8110155b615048576040517f08c379a000000000000000000000000000000000000000000000000000000000815260040161503f90617639565b60405180910390fd5b81925050505b92915050565b6000670de0b6b3a76400008202915060006ec097ce7bc90715b34b9f100000000083016ec097ce7bc90715b34b9f1000000000808503028161509257fe5b05905060006ec097ce7bc90715b34b9f1000000000828302816150b157fe5b059050600082905060008190506ec097ce7bc90715b34b9f1000000000838302816150d857fe5b059150600382816150e557fe5b05810190506ec097ce7bc90715b34b9f10000000008383028161510457fe5b0591506005828161511157fe5b05810190506ec097ce7bc90715b34b9f10000000008383028161513057fe5b0591506007828161513d57fe5b05810190506ec097ce7bc90715b34b9f10000000008383028161515c57fe5b0591506009828161516957fe5b05810190506ec097ce7bc90715b34b9f10000000008383028161518857fe5b059150600b828161519557fe5b05810190506ec097ce7bc90715b34b9f1000000000838302816151b457fe5b059150600d82816151c157fe5b05810190506ec097ce7bc90715b34b9f1000000000838302816151e057fe5b059150600f82816151ed57fe5b058101905060028102945050505050919050565b6000670de0b6b3a76400008212156152395761522f82670de0b6b3a764000080028161522957fe5b05615201565b6000039050615693565b6000670de0b6b3a7640000770195e54c5dd42177f53a27172fa9ec63026282700000000002831261529757770195e54c5dd42177f53a27172fa9ec630262827000000000838161528557fe5b0592506806f05b59d3b2000000810190505b670de0b6b3a76400006b1425982cf597cd205cef73800283126152db576b1425982cf597cd205cef738083816152c957fe5b0592506803782dace9d9000000810190505b6064810290506064830292506e01855144814a7ff805980ff00840008312615332576e01855144814a7ff805980ff008400068056bc75e2d6310000084028161532057fe5b05925068ad78ebc5ac62000000810190505b6b02df0ab5a80a22c61ab5a7008312615377576b02df0ab5a80a22c61ab5a70068056bc75e2d6310000084028161536557fe5b0592506856bc75e2d631000000810190505b693f1fce3da636ea5cf85083126153b857693f1fce3da636ea5cf85068056bc75e2d631000008402816153a657fe5b059250682b5e3af16b18800000810190505b690127fa27722cc06cc5e283126153f957690127fa27722cc06cc5e268056bc75e2d631000008402816153e757fe5b0592506815af1d78b58c400000810190505b68280e60114edb805d0383126154385768280e60114edb805d0368056bc75e2d6310000084028161542657fe5b059250680ad78ebc5ac6200000810190505b680ebc5fb41746121110831261547757680ebc5fb4174612111068056bc75e2d6310000084028161546557fe5b05925068056bc75e2d63100000810190505b6808f00f760a4b2db55d83126154b6576808f00f760a4b2db55d68056bc75e2d631000008402816154a457fe5b0592506802b5e3af16b1880000810190505b6806f5f177578893793783126154f5576806f5f177578893793768056bc75e2d631000008402816154e357fe5b05925068015af1d78b58c40000810190505b6806248f33704b2866038312615533576806248f33704b28660368056bc75e2d6310000084028161552257fe5b05925067ad78ebc5ac620000810190505b6805c548670b9510e7ac8312615571576805c548670b9510e7ac68056bc75e2d6310000084028161556057fe5b0592506756bc75e2d6310000810190505b600068056bc75e2d63100000840168056bc75e2d63100000808603028161559457fe5b059050600068056bc75e2d63100000828302816155ad57fe5b0590506000829050600081905068056bc75e2d63100000838302816155ce57fe5b059150600382816155db57fe5b058101905068056bc75e2d63100000838302816155f457fe5b0591506005828161560157fe5b058101905068056bc75e2d631000008383028161561a57fe5b0591506007828161562757fe5b058101905068056bc75e2d631000008383028161564057fe5b0591506009828161564d57fe5b058101905068056bc75e2d631000008383028161566657fe5b059150600b828161567357fe5b058101905060028102905060648186018161568a57fe5b05955050505050505b919050565b60006156ad8284614c8590919063ffffffff16565b905092915050565b60006156ca8284612ecb90919063ffffffff16565b905092915050565b600080600080600d60009054906101000a900473ffffffffffffffffffffffffffffffffffffffff1673ffffffffffffffffffffffffffffffffffffffff1663bd02d0f57f50524f544f434f4c5f535741505f4645455f50455243000000000000000000006040518263ffffffff1660e01b815260040161575391906172f8565b60206040518083038186803b15801561576b57600080fd5b505afa15801561577f573d6000803e3d6000fd5b505050506040513d601f19601f820116820180604052508101906157a39190616cdd565b600d60009054906101000a900473ffffffffffffffffffffffffffffffffffffffff1673ffffffffffffffffffffffffffffffffffffffff1663bd02d0f57f50524f544f434f4c5f4645455f4759524f5f504f5254494f4e000000000000006040518263ffffffff1660e01b815260040161581e91906172f8565b60206040518083038186803b15801561583657600080fd5b505afa15801561584a573d6000803e3d6000fd5b505050506040513d601f19601f8201168201806040525081019061586e9190616cdd565b600d60009054906101000a900473ffffffffffffffffffffffffffffffffffffffff1673ffffffffffffffffffffffffffffffffffffffff166321f8a7217f4759524f5f5452454153555259000000000000000000000000000000000000006040518263ffffffff1660e01b81526004016158e991906172f8565b60206040518083038186803b15801561590157600080fd5b505afa158015615915573d6000803e3d6000fd5b505050506040513d601f19601f8201168201806040525081019061593991906166b3565b600d60009054906101000a900473ffffffffffffffffffffffffffffffffffffffff1673ffffffffffffffffffffffffffffffffffffffff166321f8a7217f42414c5f545245415355525900000000000000000000000000000000000000006040518263ffffffff1660e01b81526004016159b491906172f8565b60206040518083038186803b1580156159cc57600080fd5b505afa1580156159e0573d6000803e3d6000fd5b505050506040513d601f19601f82011682018060405250810190615a0491906166b3565b935093509350935090919293565b600080868611615a285760008091509150615af5565b6000615a6185615a53615a448b8b6133c590919063ffffffff16565b89614c8590919063ffffffff16565b614c8590919063ffffffff16565b90506000615a8a615a7b8a8a6133c590919063ffffffff16565b87614c8590919063ffffffff16565b90506000615aa1828a6133c590919063ffffffff16565b90506000615ab88285612ecb90919063ffffffff16565b90506000615acf8289614c8590919063ffffffff16565b90506000615ae682846133c590919063ffffffff16565b90508181975097505050505050505b9550959350505050565b600081806020019051810190615b159190616add565b905080915050919050565b6060835167ffffffffffffffff81118015615b3a57600080fd5b50604051908082528060200260200182016040528015615b695781602001602082028036833780820191505090505b50905060005b8451811015615bd557615bb083615ba286888581518110615b8c57fe5b6020026020010151614c8590919063ffffffff16565b612ecb90919063ffffffff16565b828281518110615bbc57fe5b6020026020010181815250508080600101915050615b6f565b509392505050565b600081806020019051810190615bf39190616b96565b905080915050919050565b6060835167ffffffffffffffff81118015615c1857600080fd5b50604051908082528060200260200182016040528015615c475781602001602082028036833780820191505090505b50905060005b8451811015615cb357615c8e83615c8086888581518110615c6a57fe5b602002602001015161336790919063ffffffff16565b61347590919063ffffffff16565b828281518110615c9a57fe5b6020026020010181815250508080600101915050615c4d565b509392505050565b600061040082840181615cca57fe5b06905092915050565b6000670de0b6b3a76400008210615d1357670de0b6b3a7640000615d07670de0b6b3a76400008481615d0157fe5b04615ecb565b6001901b029050615ec6565b600a8211615d275763bc7c871c9050615ec6565b60648211615d3c576402540be4009050615ec6565b6103e88211615d525764075cdd47199050615ec6565b6127108211615d685764174876e8009050615ec6565b620186a08211615d7f576449a0a4c7009050615ec6565b620f42408211615d965764e8d4a510009050615ec6565b629896808211615dae576502e0466fc6089050615ec6565b6305f5e1008211615dc7576509184e72a0009050615ec6565b633b9aca008211615de057651cc2c05dbc539050615ec6565b6402540be4008211615dfa57655af3107a40009050615ec6565b64174876e8008211615e155766011f9b83a95b459050615ec6565b64e8d4a510008211615e305766038d7ea4c680009050615ec6565b6509184e72a0008211615e4c57660b3c13249d90bb9050615ec6565b655af3107a40008211615e6857662386f26fc100009050615ec6565b66038d7ea4c680008211615e8557667058bf6e27a7519050615ec6565b662386f26fc100008211615ea35767016345785d8a00009050615ec6565b67016345785d8a00008211615ec257670463777a4d8c892d9050615ec6565b8190505b919050565b60007001000000000000000000000000000000008210615ef357608082901c91506040810190505b680100000000000000008210615f1157604082901c91506020810190505b6401000000008210615f2b57602082901c91506010810190505b620100008210615f4357601082901c91506008810190505b6101008210615f5a57600882901c91506004810190505b60108210615f7057600482901c91506002810190505b60048210615f8657600282901c91506001810190505b919050565b604051806060016040528060001515815260200160006effffffffffffffffffffffffffffff16815260200160006fffffffffffffffffffffffffffffffff1681525090565b604051806040016040528060006002811115615fe957fe5b8152602001600081525090565b6040518060400160405280600290602082028036833780820191505090505090565b60008135905061602781617ad0565b92915050565b60008151905061603c81617ad0565b92915050565b600082601f83011261605357600080fd5b81516160666160618261773e565b617711565b9150818183526020840193506020810190508385602084028201111561608b57600080fd5b60005b838110156160bb57816160a188826163a3565b84526020840193506020830192505060018101905061608e565b5050505092915050565b600082601f8301126160d657600080fd5b81356160e96160e482617766565b617711565b9150818183526020840193506020810190508385604084028201111561610e57600080fd5b60005b8381101561613e57816161248882616481565b845260208401935060408301925050600181019050616111565b5050505092915050565b600082601f83011261615957600080fd5b813561616c6161678261778e565b617711565b9150818183526020840193506020810190508385606084028201111561619157600080fd5b60005b838110156161c157816161a788826164cd565b845260208401935060608301925050600181019050616194565b5050505092915050565b600082601f8301126161dc57600080fd5b81356161ef6161ea826177b6565b617711565b9150818183526020840193506020810190508385602084028201111561621457600080fd5b60005b83811015616244578161622a888261664b565b845260208401935060208301925050600181019050616217565b5050505092915050565b600082601f83011261625f57600080fd5b815161627261626d826177b6565b617711565b9150818183526020840193506020810190508385602084028201111561629757600080fd5b60005b838110156162c757816162ad8882616660565b84526020840193506020830192505060018101905061629a565b5050505092915050565b6000813590506162e081617ae7565b92915050565b6000815190506162f581617ae7565b92915050565b60008135905061630a81617afe565b92915050565b60008135905061631f81617b15565b92915050565b600082601f83011261633657600080fd5b8135616349616344826177de565b617711565b9150808252602083016020830185838301111561636557600080fd5b616370838284617a5c565b50505092915050565b60008151905061638881617b2c565b92915050565b60008135905061639d81617b43565b92915050565b6000815190506163b281617b43565b92915050565b6000815190506163c781617b5a565b92915050565b6000815190506163dc81617b6a565b92915050565b6000813590506163f181617b7a565b92915050565b60008135905061640681617b8a565b92915050565b60008151905061641b81617b9a565b92915050565b60006060828403121561643357600080fd5b61643d6060617711565b9050600061644d848285016162d1565b600083015250602061646184828501616621565b602083015250604061647584828501616636565b60408301525092915050565b60006040828403121561649357600080fd5b61649d6040617711565b905060006164ad848285016163f7565b60008301525060206164c18482850161664b565b60208301525092915050565b6000606082840312156164df57600080fd5b6164e96060617711565b905060006164f9848285016163f7565b600083015250602061650d8482850161664b565b60208301525060406165218482850161664b565b60408301525092915050565b6000610120828403121561654057600080fd5b61654b610120617711565b9050600061655b848285016163e2565b600083015250602061656f8482850161638e565b60208301525060406165838482850161638e565b60408301525060606165978482850161664b565b60608301525060806165ab848285016162fb565b60808301525060a06165bf8482850161664b565b60a08301525060c06165d384828501616018565b60c08301525060e06165e784828501616018565b60e08301525061010082013567ffffffffffffffff81111561660857600080fd5b61661484828501616325565b6101008301525092915050565b60008135905061663081617bb1565b92915050565b60008135905061664581617bc8565b92915050565b60008135905061665a81617bdf565b92915050565b60008151905061666f81617bdf565b92915050565b60008135905061668481617bf6565b92915050565b60006020828403121561669c57600080fd5b60006166aa84828501616018565b91505092915050565b6000602082840312156166c557600080fd5b60006166d38482850161602d565b91505092915050565b600080604083850312156166ef57600080fd5b60006166fd85828601616018565b925050602061670e85828601616018565b9150509250929050565b60008060006060848603121561672d57600080fd5b600061673b86828701616018565b935050602061674c86828701616018565b925050604061675d8682870161664b565b9150509250925092565b600080600080600080600060e0888a03121561678257600080fd5b60006167908a828b01616018565b97505060206167a18a828b01616018565b96505060406167b28a828b0161664b565b95505060606167c38a828b0161664b565b94505060806167d48a828b01616675565b93505060a06167e58a828b016162fb565b92505060c06167f68a828b016162fb565b91505092959891949750929550565b6000806040838503121561681857600080fd5b600061682685828601616018565b92505060206168378582860161664b565b9150509250929050565b60008060006060848603121561685657600080fd5b600084015167ffffffffffffffff81111561687057600080fd5b61687c86828701616042565b935050602084015167ffffffffffffffff81111561689957600080fd5b6168a58682870161624e565b92505060406168b686828701616660565b9150509250925092565b6000602082840312156168d257600080fd5b600082013567ffffffffffffffff8111156168ec57600080fd5b6168f8848285016160c5565b91505092915050565b60006020828403121561691357600080fd5b600082013567ffffffffffffffff81111561692d57600080fd5b61693984828501616148565b91505092915050565b60006020828403121561695457600080fd5b6000616962848285016162d1565b91505092915050565b60006020828403121561697d57600080fd5b600061698b848285016162e6565b91505092915050565b600080600080600080600060e0888a0312156169af57600080fd5b60006169bd8a828b016162fb565b97505060206169ce8a828b01616018565b96505060406169df8a828b01616018565b955050606088013567ffffffffffffffff8111156169fc57600080fd5b616a088a828b016161cb565b9450506080616a198a828b0161664b565b93505060a0616a2a8a828b0161664b565b92505060c088013567ffffffffffffffff811115616a4757600080fd5b616a538a828b01616325565b91505092959891949750929550565b600060208284031215616a7457600080fd5b6000616a8284828501616310565b91505092915050565b600060208284031215616a9d57600080fd5b6000616aab84828501616379565b91505092915050565b600060208284031215616ac657600080fd5b6000616ad4848285016163b8565b91505092915050565b60008060408385031215616af057600080fd5b6000616afe858286016163b8565b9250506020616b0f85828601616660565b9150509250929050565b600060208284031215616b2b57600080fd5b6000616b39848285016163cd565b91505092915050565b60008060408385031215616b5557600080fd5b6000616b63858286016163cd565b925050602083015167ffffffffffffffff811115616b8057600080fd5b616b8c8582860161624e565b9150509250929050565b60008060408385031215616ba957600080fd5b6000616bb7858286016163cd565b9250506020616bc885828601616660565b9150509250929050565b600060208284031215616be457600080fd5b6000616bf2848285016163f7565b91505092915050565b600060208284031215616c0d57600080fd5b6000616c1b8482850161640c565b91505092915050565b600060608284031215616c3657600080fd5b6000616c4484828501616421565b91505092915050565b600080600060608486031215616c6257600080fd5b600084013567ffffffffffffffff811115616c7c57600080fd5b616c888682870161652d565b9350506020616c998682870161664b565b9250506040616caa8682870161664b565b9150509250925092565b600060208284031215616cc657600080fd5b6000616cd48482850161664b565b91505092915050565b600060208284031215616cef57600080fd5b6000616cfd84828501616660565b91505092915050565b60008060408385031215616d1957600080fd5b6000616d278582860161664b565b9250506020616d388582860161664b565b9150509250929050565b600080600060608486031215616d5757600080fd5b6000616d658682870161664b565b9350506020616d768682870161664b565b9250506040616d87868287016162d1565b9150509250925092565b6000616d9d8383616fae565b60208301905092915050565b6000616db5838361712e565b60208301905092915050565b616dca816178db565b82525050565b6000616ddb82617834565b616de58185617887565b9350616df08361780a565b8060005b83811015616e21578151616e088882616d91565b9750616e1383617860565b925050600181019050616df4565b5085935050505092915050565b616e378161783f565b616e418184617898565b9250616e4c8261781a565b8060005b83811015616e7d578151616e648782616da9565b9650616e6f8361786d565b925050600181019050616e50565b505050505050565b6000616e908261784a565b616e9a81856178a3565b9350616ea583617824565b8060005b83811015616ed6578151616ebd8882616da9565b9750616ec88361787a565b925050600181019050616ea9565b5085935050505092915050565b616eec816178ed565b82525050565b616efb816178ed565b82525050565b616f0a816178f9565b82525050565b616f21616f1c826178f9565b617a9e565b82525050565b616f38616f3382617903565b617aa8565b82525050565b6000616f4a83856178b4565b9350616f57838584617a5c565b82840190509392505050565b616f6c816179de565b82525050565b616f7b81617a02565b82525050565b616f8a81617a26565b82525050565b616f9981617a4a565b82525050565b616fa881617a4a565b82525050565b616fb781617966565b82525050565b616fc681617966565b82525050565b8082525050565b6000616fde82617855565b616fe881856178bf565b9350616ff8818560208601617a6b565b61700181617ab2565b840191505092915050565b60006170196002836178d0565b91507f19010000000000000000000000000000000000000000000000000000000000006000830152600282019050919050565b6000617059600c836178bf565b91507f5f73717274204641494c454400000000000000000000000000000000000000006000830152602082019050919050565b6060820160008201516170a26000850182616ee3565b5060208201516170b56020850182617110565b5060408201516170c8604085018261711f565b50505050565b6060820160008201516170e46000850182616f9f565b5060208201516170f7602085018261715b565b50604082015161710a604085018261715b565b50505050565b61711981617970565b82525050565b6171288161798b565b82525050565b617137816179c7565b82525050565b617146816179c7565b82525050565b617155816179c7565b82525050565b617164816179c7565b82525050565b617173816179d1565b82525050565b60006171858285616f10565b6020820191506171958284616f27565b6004820191508190509392505050565b60006171b2828486616f3e565b91508190509392505050565b60006171c98261700c565b91506171d58285616f10565b6020820191506171e58284616f10565b6020820191508190509392505050565b600060208201905061720a6000830184616dc1565b92915050565b6000602082019050818103600083015261722a8184616dd0565b905092915050565b60006040820190506172476000830184616e2e565b92915050565b600060208201905081810360008301526172678184616e85565b905092915050565b600060408201905081810360008301526172898185616e85565b9050818103602083015261729d8184616e85565b90509392505050565b60006020820190506172bb6000830184616ef2565b92915050565b60006060820190506172d66000830186616ef2565b6172e3602083018561713d565b6172f0604083018461713d565b949350505050565b600060208201905061730d6000830184616f01565b92915050565b60006060820190506173286000830186616f01565b6173356020830185616dc1565b6173426040830184616dc1565b949350505050565b600060c08201905061735f6000830189616f01565b61736c6020830188616dc1565b6173796040830187616dc1565b617386606083018661713d565b617393608083018561713d565b6173a060a083018461713d565b979650505050505050565b600060a0820190506173c06000830188616f01565b6173cd6020830187616f01565b6173da6040830186616f01565b6173e7606083018561713d565b6173f46080830184616dc1565b9695505050505050565b60006080820190506174136000830187616f01565b617420602083018661716a565b61742d6040830185616f01565b61743a6060830184616f01565b95945050505050565b60006020820190506174586000830184616f63565b92915050565b60006020820190506174736000830184616f72565b92915050565b600060208201905061748e6000830184616f81565b92915050565b600060e0820190506174a9600083018a616fbd565b6174b66020830189616fbd565b6174c36040830188616fbd565b6174d06060830187616fbd565b6174dd6080830186616fbd565b6174ea60a0830185616fbd565b6174f760c083018461713d565b98975050505050505050565b600060c0820190506175186000830189616fbd565b6175256020830188616fbd565b617532604083018761713d565b61753f606083018661713d565b61754c6080830185616ef2565b61755960a083018461713d565b979650505050505050565b60006060820190506175796000830186616fcc565b6175866020830185616f90565b617593604083018461714c565b949350505050565b60006080820190506175b06000830187616fcc565b6175bd6020830186616f90565b6175ca604083018561714c565b6175d7606083018461714c565b95945050505050565b600060a0820190506175f56000830186616fcc565b61760260208301856170ce565b61760f608083018461714c565b949350505050565b600060208201905081810360008301526176318184616fd3565b905092915050565b600060208201905081810360008301526176528161704c565b9050919050565b600060608201905061766e600083018461708c565b92915050565b6000602082019050617689600083018461713d565b92915050565b60006040820190506176a4600083018561713d565b81810360208301526176b68184616e85565b90509392505050565b60006060820190506176d4600083018661713d565b6176e1602083018561713d565b6176ee604083018461713d565b949350505050565b600060208201905061770b600083018461716a565b92915050565b6000604051905081810181811067ffffffffffffffff8211171561773457600080fd5b8060405250919050565b600067ffffffffffffffff82111561775557600080fd5b602082029050602081019050919050565b600067ffffffffffffffff82111561777d57600080fd5b602082029050602081019050919050565b600067ffffffffffffffff8211156177a557600080fd5b602082029050602081019050919050565b600067ffffffffffffffff8211156177cd57600080fd5b602082029050602081019050919050565b600067ffffffffffffffff8211156177f557600080fd5b601f19601f8301169050602081019050919050565b6000819050602082019050919050565b6000819050919050565b6000819050602082019050919050565b600081519050919050565b600060029050919050565b600081519050919050565b600081519050919050565b6000602082019050919050565b6000602082019050919050565b6000602082019050919050565b600082825260208201905092915050565b600081905092915050565b600082825260208201905092915050565b600081905092915050565b600082825260208201905092915050565b600081905092915050565b60006178e6826179a7565b9050919050565b60008115159050919050565b6000819050919050565b60007fffffffff0000000000000000000000000000000000000000000000000000000082169050919050565b600061793a826178db565b9050919050565b600061794c826178db565b9050919050565b600081905061796182617ac3565b919050565b6000819050919050565b60006effffffffffffffffffffffffffffff82169050919050565b60006fffffffffffffffffffffffffffffffff82169050919050565b600073ffffffffffffffffffffffffffffffffffffffff82169050919050565b6000819050919050565b600060ff82169050919050565b60006179e9826179f0565b9050919050565b60006179fb826179a7565b9050919050565b6000617a0d82617a14565b9050919050565b6000617a1f826179a7565b9050919050565b6000617a3182617a38565b9050919050565b6000617a43826179a7565b9050919050565b6000617a5582617953565b9050919050565b82818337600083830152505050565b60005b83811015617a89578082015181840152602081019050617a6e565b83811115617a98576000848401525b50505050565b6000819050919050565b6000819050919050565b6000601f19601f8301169050919050565b60038110617acd57fe5b50565b617ad9816178db565b8114617ae457600080fd5b50565b617af0816178ed565b8114617afb57600080fd5b50565b617b07816178f9565b8114617b1257600080fd5b50565b617b1e81617903565b8114617b2957600080fd5b50565b617b358161792f565b8114617b4057600080fd5b50565b617b4c81617941565b8114617b5757600080fd5b50565b60048110617b6757600080fd5b50565b60048110617b7757600080fd5b50565b60028110617b8757600080fd5b50565b60038110617b9757600080fd5b50565b617ba381617966565b8114617bae57600080fd5b50565b617bba81617970565b8114617bc557600080fd5b50565b617bd18161798b565b8114617bdc57600080fd5b50565b617be8816179c7565b8114617bf357600080fd5b50565b617bff816179d1565b8114617c0a57600080fd5b5056fea2646970667358221220759bfd118d8228647e21f64b89311785d348e72aa4373878fa8124180ebcaaa864736f6c63430007010033","bytecodeSha1":"1410f8370becdd4b50876056170d1dbe4bf9f2d2","compiler":{"evm_version":"istanbul","optimizer":{"enabled":false,"runs":200},"version":"0.7.1+commit.f4a555be"},"contractName":"GyroTwoPool","deployedBytecode":"608060405234801561001057600080fd5b50600436106102a05760003560e01c8063707dcd1e116101675780639d2c110c116100ce578063c0ff1a1511610087578063c0ff1a15146108b9578063d505accf146108d7578063d5c096c4146108f3578063dd62ed3e14610924578063f89f27ed14610954578063ffd088eb14610972576102a0565b80639d2c110c146107bd578063a457c2d7146107ed578063a9059cbb1461081d578063aaabadc51461084d578063b10be7391461086b578063b48b5b401461089b576102a0565b806387ec68171161012057806387ec6817146106f6578063893d20e8146107275780638d928af8146107455780638dd9f89d1461076357806395d89b41146107815780639b02cdde1461079f576102a0565b8063707dcd1e146105fb57806370a082311461061957806374f3b0091461064957806376e54a461461067a5780637ecebe0014610696578063851c1bb3146106c6576102a0565b806338fff2d01161020b57806355c67628116101c457806355c676281461050a5780636028bfd41461052857806360d1507c14610559578063679aefce1461058f5780636b843239146105ad5780636d785a87146105dd576102a0565b806338fff2d01461042b57806339509351146104495780633aeae0d3146104795780633c4dd5bb1461049757806344bbdb55146104c95780634a6b0b15146104e7576102a0565b806323b872dd1161025d57806323b872dd1461037d578063292c914a146103ad578063313ce567146103b75780633331bc36146103d55780633644e515146103f157806338e9922e1461040f576102a0565b806306fdde03146102a5578063095ea7b3146102c357806316c38b3c146102f357806318160ddd1461030f5780631c0de0511461032d5780631dccd8301461034d575b600080fd5b6102ad610990565b6040516102ba9190617617565b60405180910390f35b6102dd60048036038101906102d89190616805565b610a32565b6040516102ea91906172a6565b60405180910390f35b61030d60048036038101906103089190616942565b610a49565b005b610317610a5d565b6040516103249190617674565b60405180910390f35b610335610a67565b604051610344939291906172c1565b60405180910390f35b61036760048036038101906103629190616901565b610a90565b604051610374919061724d565b60405180910390f35b61039760048036038101906103929190616718565b610bbd565b6040516103a491906172a6565b60405180910390f35b6103b5610c97565b005b6103bf610ccc565b6040516103cc91906176f6565b60405180910390f35b6103ef60048036038101906103ea9190616d06565b610ce3565b005b6103f9610d73565b60405161040691906172f8565b60405180910390f35b61042960048036038101906104249190616cb4565b610d82565b005b610433610d9e565b60405161044091906172f8565b60405180910390f35b610463600480360381019061045e9190616805565b610dc6565b60405161047091906172a6565b60405180910390f35b610481610e6b565b60405161048e9190617659565b60405180910390f35b6104b160048036038101906104ac9190616d42565b610f31565b6040516104c0939291906176bf565b60405180910390f35b6104d1610f84565b6040516104de919061745e565b60405180910390f35b6104ef610faa565b60405161050196959493929190617503565b60405180910390f35b610512611005565b60405161051f9190617674565b60405180910390f35b610542600480360381019061053d9190616994565b611017565b60405161055092919061768f565b60405180910390f35b610573600480360381019061056e9190616cb4565b611048565b6040516105869796959493929190617494565b60405180910390f35b610597611093565b6040516105a49190617674565b60405180910390f35b6105c760048036038101906105c291906168c0565b6110c5565b6040516105d49190617210565b60405180910390f35b6105e5611185565b6040516105f291906171f5565b60405180910390f35b6106036111ab565b6040516106109190617232565b60405180910390f35b610633600480360381019061062e919061668a565b6111c0565b6040516106409190617674565b60405180910390f35b610663600480360381019061065e9190616994565b611208565b60405161067192919061726f565b60405180910390f35b610694600480360381019061068f9190616c24565b6112cc565b005b6106b060048036038101906106ab919061668a565b6114c2565b6040516106bd9190617674565b60405180910390f35b6106e060048036038101906106db9190616a62565b61150b565b6040516106ed91906172f8565b60405180910390f35b610710600480360381019061070b9190616994565b61155d565b60405161071e92919061768f565b60405180910390f35b61072f61158e565b60405161073c91906171f5565b60405180910390f35b61074d6115b6565b60405161075a9190617479565b60405180910390f35b61076b6115de565b604051610778919061724d565b60405180910390f35b6107896116f7565b6040516107969190617617565b60405180910390f35b6107a7611799565b6040516107b49190617674565b60405180910390f35b6107d760048036038101906107d29190616c4d565b6117a3565b6040516107e49190617674565b60405180910390f35b61080760048036038101906108029190616805565b6119e8565b60405161081491906172a6565b60405180910390f35b61083760048036038101906108329190616805565b611a28565b60405161084491906172a6565b60405180910390f35b610855611a3f565b6040516108629190617443565b60405180910390f35b61088560048036038101906108809190616bd2565b611a4e565b6040516108929190617674565b60405180910390f35b6108a3611aea565b6040516108b09190617674565b60405180910390f35b6108c1611af4565b6040516108ce9190617674565b60405180910390f35b6108f160048036038101906108ec9190616767565b611be7565b005b61090d60048036038101906109089190616994565b611dc0565b60405161091b92919061726f565b60405180910390f35b61093e600480360381019061093991906166dc565b611f56565b60405161094b9190617674565b60405180910390f35b61095c611fce565b604051610969919061724d565b60405180910390f35b61097a611fdd565b6040516109879190617674565b60405180910390f35b606060038054600181600116156101000203166002900480601f016020809104026020016040519081016040528092919081815260200182805460018160011615610100020316600290048015610a285780601f106109fd57610100808354040283529160200191610a28565b820191906000526020600020905b815481529060010190602001808311610a0b57829003601f168201915b5050505050905090565b6000610a3f3384846120bf565b6001905092915050565b610a516121aa565b610a5a816121f3565b50565b6000600254905090565b6000806000610a7461227d565b159250610a7f6122a6565b9150610a896122ce565b9050909192565b6060815167ffffffffffffffff81118015610aaa57600080fd5b50604051908082528060200260200182016040528015610ad95781602001602082028036833780820191505090505b5090506000610ae66122f6565b905060005b8351811015610bb65773__$85f042f43089d976c21d0d184f206dc395$__6379eaef826008868481518110610b1c57fe5b6020026020010151856040518463ffffffff1660e01b8152600401610b43939291906175e0565b60206040518083038186803b158015610b5b57600080fd5b505af4158015610b6f573d6000803e3d6000fd5b505050506040513d601f19601f82011682018060405250810190610b939190616cdd565b838281518110610b9f57fe5b602002602001018181525050806001019050610aeb565b5050919050565b600080610bca8533611f56565b9050610c118573ffffffffffffffffffffffffffffffffffffffff163373ffffffffffffffffffffffffffffffffffffffff161480610c095750838210155b61019e612308565b610c1c85858561231b565b8473ffffffffffffffffffffffffffffffffffffffff163373ffffffffffffffffffffffffffffffffffffffff1614158015610c7857507fffffffffffffffffffffffffffffffffffffffffffffffffffffffffffffffff8114155b15610c8b57610c8a85338584036120bf565b5b60019150509392505050565b610c9f612532565b610ca76121aa565b610cb16001612547565b6000610cbb610a5d565b1115610cca57610cc961259c565b5b565b6000600560009054906101000a900460ff16905090565b610cfe8183108015610cf757506104008211155b6064612308565b6000610d1360016000806000806000806125ff565b905060008390505b82811015610d6d576000610d4160086000848152602001908152602001600020546126a0565b1415610d60578160086000838152602001908152602001600020819055505b8080600101915050610d1b565b50505050565b6000610d7d6126bd565b905090565b610d8a6121aa565b610d92612532565b610d9b8161275a565b50565b60007f0000000000000000000000000000000000000000000000000000000000000000905090565b6000610e613384610e5c85600160003373ffffffffffffffffffffffffffffffffffffffff1673ffffffffffffffffffffffffffffffffffffffff16815260200190815260200160002060008973ffffffffffffffffffffffffffffffffffffffff1673ffffffffffffffffffffffffffffffffffffffff168152602001908152602001600020546127d890919063ffffffff16565b6120bf565b6001905092915050565b610e73615f8b565b600b6040518060600160405290816000820160009054906101000a900460ff161515151581526020016000820160019054906101000a90046effffffffffffffffffffffffffffff166effffffffffffffffffffffffffffff166effffffffffffffffffffffffffffff1681526020016000820160109054906101000a90046fffffffffffffffffffffffffffffffff166fffffffffffffffffffffffffffffffff166fffffffffffffffffffffffffffffffff1681525050905090565b600080600080610f40856127f8565b90506000610f4e86156127f8565b9050610f5a888361284e565b9750610f66878261284e565b9650610f73888888612862565b945094509450505093509350939050565b600d60009054906101000a900473ffffffffffffffffffffffffffffffffffffffff1681565b60008060008060008060006009549050610fc3816129c2565b9650610fce816129df565b9550610fd9816129fc565b9450610fe481612a19565b9350610fef81612a36565b9250610ffa81612a53565b915050909192939495565b6000611012600954612a53565b905090565b6000606061102786516002612a70565b61103c89898989898989612a81612c15612c98565b97509795505050505050565b6000806000806000806000611063610400891061013b612308565b600061106e89612e18565b905061107981612e35565b975097509750975097509750975050919395979092949650565b60006110c06110a0610a5d565b6110b26110ab611af4565b6002612e98565b612ecb90919063ffffffff16565b905090565b6060815167ffffffffffffffff811180156110df57600080fd5b5060405190808252806020026020018201604052801561110e5781602001602082028036833780820191505090505b509050600061111b6122f6565b9050611125615fd1565b60005b845181101561117d5784818151811061113d57fe5b6020026020010151915061115a8260000151848460200151612f2f565b84828151811061116657fe5b602002602001018181525050806001019050611128565b505050919050565b600c60009054906101000a900473ffffffffffffffffffffffffffffffffffffffff1681565b6111b3615ff6565b6111bb612fc8565b905090565b60008060008373ffffffffffffffffffffffffffffffffffffffff1673ffffffffffffffffffffffffffffffffffffffff168152602001908152602001600020549050919050565b6060808861124c6112176115b6565b73ffffffffffffffffffffffffffffffffffffffff163373ffffffffffffffffffffffffffffffffffffffff161460cd612308565b611261611257610d9e565b82146101f4612308565b61126a87613013565b600060608061127e8d8d8d8d8d8d8d612a81565b92509250925061128e8c84613096565b61129782612c15565b6112a081612c15565b6112a861227d565b156112b6576112b561259c565b5b8181955095505050505097509795505050505050565b600c60009054906101000a900473ffffffffffffffffffffffffffffffffffffffff1673ffffffffffffffffffffffffffffffffffffffff163373ffffffffffffffffffffffffffffffffffffffff16146040518060400160405280600e81526020017f6e6f7420617574686f72697a656400000000000000000000000000000000000081525090611394576040517f08c379a000000000000000000000000000000000000000000000000000000000815260040161138b9190617617565b60405180910390fd5b50600b60000160009054906101000a900460ff166040518060400160405280601081526020017f706f6f6c20697320756e636170706564000000000000000000000000000000008152509061141f576040517f08c379a00000000000000000000000000000000000000000000000000000000081526004016114169190617617565b60405180910390fd5b508060000151600b60000160006101000a81548160ff0219169083151502179055508060200151600b60000160016101000a8154816effffffffffffffffffffffffffffff02191690836effffffffffffffffffffffffffffff1602179055508060400151600b60000160106101000a8154816fffffffffffffffffffffffffffffffff02191690836fffffffffffffffffffffffffffffffff16021790555050565b6000600660008373ffffffffffffffffffffffffffffffffffffffff1673ffffffffffffffffffffffffffffffffffffffff168152602001908152602001600020549050919050565b60007f000000000000000000000000000000000000000000000000000000000000000082604051602001611540929190617179565b604051602081830303815290604052805190602001209050919050565b6000606061156d86516002612a70565b611582898989898989896130a4613221612c98565b97509795505050505050565b60007f0000000000000000000000000000000000000000000000000000000000000000905090565b60007f0000000000000000000000000000000000000000000000000000000000000000905090565b6060806115e96115b6565b73ffffffffffffffffffffffffffffffffffffffff1663f94d466861160c610d9e565b6040518263ffffffff1660e01b815260040161162891906172f8565b60006040518083038186803b15801561164057600080fd5b505afa158015611654573d6000803e3d6000fd5b505050506040513d6000823e3d601f19601f8201168201806040525081019061167d9190616841565b5091505061168a81613013565b6116be8160008151811061169a57fe5b6020026020010151826001815181106116af57fe5b60200260200101516001612862565b909150836000815181106116ce57fe5b60200260200101846001815181106116e257fe5b60200260200101828152508281525050505090565b606060048054600181600116156101000203166002900480601f01602080910402602001604051908101604052809291908181526020018280546001816001161561010002031660029004801561178f5780601f106117645761010080835404028352916020019161178f565b820191906000526020600020905b81548152906001019060200180831161177257829003601f168201915b5050505050905090565b6000600a54905090565b60006117ad612532565b83608001516117f26117bd6115b6565b73ffffffffffffffffffffffffffffffffffffffff163373ffffffffffffffffffffffffffffffffffffffff161460cd612308565b6118076117fd610d9e565b82146101f4612308565b60007f000000000000000000000000000000000000000000000000000000000000000073ffffffffffffffffffffffffffffffffffffffff16866020015173ffffffffffffffffffffffffffffffffffffffff161490506000611869826127f8565b9050600061187783156127f8565b9050611883878361284e565b965061188f868261284e565b955060008060006118a18a8a88612862565b9250925092506118e88b60a00151876118ba578a6118bc565b8b5b886118c7578c6118c9565b8b5b896118d457846118d6565b855b8a6118e157866118e3565b855b6132a4565b600060018111156118f557fe5b8b60000151600181111561190557fe5b141561198057600061192b611918611005565b8d6060015161336790919063ffffffff16565b905061194d611947828e606001516133c590919063ffffffff16565b8761284e565b8c606001818152505060006119658d8d8d87876133e6565b90506119718187613404565b995050505050505050506119e0565b61198e8b606001518561284e565b8b606001818152505060006119a68c8c8c8686613418565b90506119b28187613436565b90506119d66119c76119c2611005565b61344a565b8261347590919063ffffffff16565b9850505050505050505b509392505050565b6000806119f53385611f56565b9050808310611a0f57611a0a338560006120bf565b611a1d565b611a1c33858584036120bf565b5b600191505092915050565b6000611a3533848461231b565b6001905092915050565b6000611a496134df565b905090565b600073__$85f042f43089d976c21d0d184f206dc395$__630397bee0600884611a756122f6565b6040518463ffffffff1660e01b8152600401611a9393929190617564565b60206040518083038186803b158015611aab57600080fd5b505af4158015611abf573d6000803e3d6000fd5b505050506040513d601f19601f82011682018060405250810190611ae39190616cdd565b9050919050565b6000610400905090565b60006060611b006115b6565b73ffffffffffffffffffffffffffffffffffffffff1663f94d4668611b23610d9e565b6040518263ffffffff1660e01b8152600401611b3f91906172f8565b60006040518083038186803b158015611b5757600080fd5b505afa158015611b6b573d6000803e3d6000fd5b505050506040513d6000823e3d601f19601f82011682018060405250810190611b949190616841565b50915050611ba0615ff6565b611ba8612fc8565b9050611bb382613013565b611be08282600060028110611bc457fe5b602002015183600160028110611bd657fe5b602002015161356b565b9250505090565b611bf58442111560d1612308565b6000600660008973ffffffffffffffffffffffffffffffffffffffff1673ffffffffffffffffffffffffffffffffffffffff16815260200190815260200160002054905060007f0000000000000000000000000000000000000000000000000000000000000000898989858a604051602001611c769695949392919061734a565b6040516020818303038152906040528051906020012090506000611c998261359f565b9050600060018288888860405160008152602001604052604051611cc094939291906173fe565b6020604051602081039080840390855afa158015611ce2573d6000803e3d6000fd5b505050602060405103519050611d61600073ffffffffffffffffffffffffffffffffffffffff168273ffffffffffffffffffffffffffffffffffffffff1614158015611d5957508b73ffffffffffffffffffffffffffffffffffffffff168273ffffffffffffffffffffffffffffffffffffffff16145b6101f8612308565b60018401600660008d73ffffffffffffffffffffffffffffffffffffffff1673ffffffffffffffffffffffffffffffffffffffff16815260200190815260200160002081905550611db38b8b8b6120bf565b5050505050505050505050565b60608088611e04611dcf6115b6565b73ffffffffffffffffffffffffffffffffffffffff163373ffffffffffffffffffffffffffffffffffffffff161460cd612308565b611e19611e0f610d9e565b82146101f4612308565b611e21612532565b600080611e2c610a5d565b1415611ecc57611e3e8b8b8b886135d8565b8095508192505050611e57620f424082101560cc612308565b611e656000620f424061369c565b611e7489620f4240830361369c565b611e7d84613221565b600267ffffffffffffffff81118015611e9557600080fd5b50604051908082528060200260200182016040528015611ec45781602001602082028036833780820191505090505b509250611f40565b611ed588613013565b611f088789600081518110611ee657fe5b60200260200101518a600181518110611efb57fe5b60200260200101516136aa565b611f178b8b8b8b8b8b8b6130a4565b809550819650829350505050611f2d898261369c565b611f3684613221565b611f3f83612c15565b5b611f4861259c565b505097509795505050505050565b6000611f606115b6565b73ffffffffffffffffffffffffffffffffffffffff168273ffffffffffffffffffffffffffffffffffffffff161415611fbb577fffffffffffffffffffffffffffffffffffffffffffffffffffffffffffffffff9050611fc8565b611fc583836136af565b90505b92915050565b6060611fd8613736565b905090565b60006201de20905090565b6060819050611ff6816137d0565b5050565b60006120128260558561205b9092919063ffffffff16565b905092915050565b6000612032826056856120929092919063ffffffff16565b905092915050565b600061204a838311156001612308565b600082840390508091505092915050565b600080826001901b198560001c1660001b9050828461207b57600061207e565b60015b60ff16901b60001b81179150509392505050565b6000808267ffffffffffffffff901b198560001c1660001b90508284901b60001b81179150509392505050565b80600160008573ffffffffffffffffffffffffffffffffffffffff1673ffffffffffffffffffffffffffffffffffffffff16815260200190815260200160002060008473ffffffffffffffffffffffffffffffffffffffff1673ffffffffffffffffffffffffffffffffffffffff168152602001908152602001600020819055508173ffffffffffffffffffffffffffffffffffffffff168373ffffffffffffffffffffffffffffffffffffffff167f8c5be1e5ebec7d5bd14f71427d1e84f3dd0314c0f7b2291e5b200ac8c7c3b9258360405161219d9190617674565b60405180910390a3505050565b60006121d96000357fffffffff000000000000000000000000000000000000000000000000000000001661150b565b90506121f06121e8823361386e565b610191612308565b50565b80156122135761220e6122046122a6565b4210610193612308565b612229565b61222861221e6122ce565b42106101a9612308565b5b80600760006101000a81548160ff0219169083151502179055507f9e3a5e37224532dea67b89face185703738a228a6e8a23dee546960180d3be648160405161227291906172a6565b60405180910390a150565b60006122876122ce565b4211806122a15750600760009054906101000a900460ff16155b905090565b60007f0000000000000000000000000000000000000000000000000000000000000000905090565b60007f0000000000000000000000000000000000000000000000000000000000000000905090565b6000612303600954612a19565b905090565b8161231757612316816139ab565b5b5050565b612357600073ffffffffffffffffffffffffffffffffffffffff168473ffffffffffffffffffffffffffffffffffffffff161415610198612308565b612393600073ffffffffffffffffffffffffffffffffffffffff168373ffffffffffffffffffffffffffffffffffffffff161415610199612308565b61239e838383613a1b565b6123f3816101a06000808773ffffffffffffffffffffffffffffffffffffffff1673ffffffffffffffffffffffffffffffffffffffff16815260200190815260200160002054613a209092919063ffffffff16565b6000808573ffffffffffffffffffffffffffffffffffffffff1673ffffffffffffffffffffffffffffffffffffffff16815260200190815260200160002081905550612486816000808573ffffffffffffffffffffffffffffffffffffffff1673ffffffffffffffffffffffffffffffffffffffff168152602001908152602001600020546127d890919063ffffffff16565b6000808473ffffffffffffffffffffffffffffffffffffffff1673ffffffffffffffffffffffffffffffffffffffff168152602001908152602001600020819055508173ffffffffffffffffffffffffffffffffffffffff168373ffffffffffffffffffffffffffffffffffffffff167fddf252ad1be2c89b69c2b068fc378daa952ba7f163c4a11628f55a4df523b3ef836040516125259190617674565b60405180910390a3505050565b61254561253d61227d565b610192612308565b565b61255c81600954611ffa90919063ffffffff16565b6009819055507f3e350b41e86a8e10f804ade6d35340d620be35569cc75ac943e8bb14ab80ead18160405161259191906172a6565b60405180910390a150565b600060095490506125ac81612a36565b156125fc576125ce6125bf600a54613a41565b82613a8b90919063ffffffff16565b90506125f26125e36125de610a5d565b613a41565b82613aab90919063ffffffff16565b9050806009819055505b50565b6000612615600083613acb90919063ffffffff16565b612629601f85613adc90919063ffffffff16565b61263d605487613af690919063ffffffff16565b612651606a89613adc90919063ffffffff16565b612665609f8b613af690919063ffffffff16565b61267960b58d613adc90919063ffffffff16565b61268d60ea8f613af690919063ffffffff16565b1717171717179050979650505050505050565b60006126b6600083613b0c90919063ffffffff16565b9050919050565b60007f00000000000000000000000000000000000000000000000000000000000000007f00000000000000000000000000000000000000000000000000000000000000007f000000000000000000000000000000000000000000000000000000000000000061272a613b23565b3060405160200161273f9594939291906173ab565b60405160208183030381529060405280519060200120905090565b61276d64e8d4a5100082101560cb612308565b61278367016345785d8a000082111560ca612308565b6127988160095461201a90919063ffffffff16565b6009819055507fa9ba3ffe0b6c366b81232caab38605a0699ad5398d6cce76f91ee809e322dafc816040516127cd9190617674565b60405180910390a150565b60008082840190506127ee848210156000612308565b8091505092915050565b600081612825577f0000000000000000000000000000000000000000000000000000000000000000612847565b7f00000000000000000000000000000000000000000000000000000000000000005b9050919050565b600061285a8383612e98565b905092915050565b60008060006060600267ffffffffffffffff8111801561288157600080fd5b506040519080825280602002602001820160405280156128b05781602001602082028036833780820191505090505b509050846128be57856128c0565b865b816000815181106128cd57fe5b602002602001018181525050846128e457866128e6565b855b816001815181106128f357fe5b602002602001018181525050612907615ff6565b61290f612fc8565b905061293e828260006002811061292257fe5b60200201518360016002811061293457fe5b602002015161356b565b9450612948615ff6565b6129528287613b2b565b905086612970578060016002811061296657fe5b6020020151612983565b8060006002811061297d57fe5b60200201515b9450866129a1578060006002811061299757fe5b60200201516129b4565b806001600281106129ae57fe5b60200201515b935050505093509350939050565b60006129d8600083613b9f90919063ffffffff16565b9050919050565b60006129f5601683613b9f90919063ffffffff16565b9050919050565b6000612a12602c83613b0c90919063ffffffff16565b9050919050565b6000612a2f604b83613bd190919063ffffffff16565b9050919050565b6000612a4c605583613be690919063ffffffff16565b9050919050565b6000612a69605683613bfc90919063ffffffff16565b9050919050565b612a7d8183146067612308565b5050565b6000606080612a8e615ff6565b612a96612fc8565b9050612aa061227d565b15612b7d576000612ad48983600060028110612ab857fe5b602002015184600160028110612aca57fe5b602002015161356b565b9050612ade615ff6565b612ae88383613b2b565b9050612b41898b600081518110612afb57fe5b60200260200101518c600181518110612b1057fe5b602002602001015184600060028110612b2557fe5b602002015185600160028110612b3757fe5b60200201516132a4565b612b4a82613c17565b612b548a88613c44565b8096508197505050612b708287612b69610a5d565b6000613c9f565b600a819055505050612bb7565b612b878886613c44565b80945081955050507fffffffffffffffffffffffffffffffffffffffffffffffffffffffffffffffff600a819055505b8383600267ffffffffffffffff81118015612bd157600080fd5b50604051908082528060200260200182016040528015612c005781602001602082028036833780820191505090505b50935093509350509750975097945050505050565b612c3c81600081518110612c2557fe5b6020026020010151612c3760016127f8565b613d33565b81600081518110612c4957fe5b602002602001018181525050612c7c81600181518110612c6557fe5b6020026020010151612c7760006127f8565b613d33565b81600181518110612c8957fe5b60200260200101818152505050565b3073ffffffffffffffffffffffffffffffffffffffff163373ffffffffffffffffffffffffffffffffffffffff1614612dc35760003073ffffffffffffffffffffffffffffffffffffffff16600036604051612cf59291906171a5565b6000604051808303816000865af19150503d8060008114612d32576040519150601f19603f3d011682016040523d82523d6000602084013e612d37565b606091505b505090508060008114612d4657fe5b60046000803e7fffffffff000000000000000000000000000000000000000000000000000000006000511660007f43adbafb0000000000000000000000000000000000000000000000000000000082141415612da6573d6000803e3d6000fd5b6020600460003e604060205260243d03602460403e601c3d016000f35b612dcc86613013565b60006060612de38b8b8b8b8b8b8b8b63ffffffff16565b5091509150612df5818463ffffffff16565b6020815102602082038381526343adbafb60208203526004810390506044820181fd5b600060086000838152602001908152602001600020549050919050565b6000806000806000806000612e4988613d56565b9650612e5488613d73565b9550612e5f88613d90565b9450612e6a88613dad565b9350612e7588613dca565b9250612e8088613de7565b9150612e8b886126a0565b9050919395979092949650565b6000808284029050612ec16000851480612eba575083858381612eb757fe5b04145b6003612308565b8091505092915050565b6000612edc60008314156004612308565b6000831415612eee5760009050612f29565b6000670de0b6b3a764000084029050612f1b670de0b6b3a7640000858381612f1257fe5b04146005612308565b828181612f2457fe5b049150505b92915050565b600073__$85f042f43089d976c21d0d184f206dc395$__6334171a8560088686866040518563ffffffff1660e01b8152600401612f6f949392919061759b565b60206040518083038186803b158015612f8757600080fd5b505af4158015612f9b573d6000803e3d6000fd5b505050506040513d601f19601f82011682018060405250810190612fbf9190616bfb565b90509392505050565b612fd0615ff6565b612fda6001613e04565b81600060028110612fe757fe5b602002018181525050612ffa6000613e04565b8160016002811061300757fe5b60200201818152505090565b61303a8160008151811061302357fe5b602002602001015161303560016127f8565b612e98565b8160008151811061304757fe5b60200260200101818152505061307a8160018151811061306357fe5b602002602001015161307560006127f8565b612e98565b8160018151811061308757fe5b60200260200101818152505050565b6130a08282613e5a565b5050565b60006060806130b1615ff6565b6130b9612fc8565b905060006130ea89836000600281106130ce57fe5b6020020151846001600281106130e057fe5b602002015161356b565b90506130f4615ff6565b6130fe8383613b2b565b9050613157898b60008151811061311157fe5b60200260200101518c60018151811061312657fe5b60200260200101518460006002811061313b57fe5b60200201518560016002811061314d57fe5b60200201516132a4565b61316082613c17565b6000606061316e8c8a613fbe565b91509150600b60000160009054906101000a900460ff16156131a5576131a4826131978f6111c0565b61319f610a5d565b614018565b5b6131b984836131b2610a5d565b6001613c9f565b600a819055508181600267ffffffffffffffff811180156131d957600080fd5b506040519080825280602002602001820160405280156132085781602001602082028036833780820191505090505b5097509750975050505050509750975097945050505050565b6132488160008151811061323157fe5b602002602001015161324360016127f8565b614228565b8160008151811061325557fe5b6020026020010181815250506132888160018151811061327157fe5b602002602001015161328360006127f8565b614228565b8160018151811061329557fe5b60200260200101818152505050565b600060095490506132b481612a36565b80156132bf57508543115b1561335f5760006132d286858786614264565b905060006132eb878688876132e6886129df565b614289565b905060006132f884612a19565b90506000613305856129fc565b9050600061331e828487876133198b6129c2565b6142e1565b90508083146133595761333a818761434f90919063ffffffff16565b955061334f428761436f90919063ffffffff16565b9550856009819055505b50505050505b505050505050565b6000808284029050613390600085148061338957508385838161338657fe5b04145b6003612308565b60008114156133a35760009150506133bf565b6001670de0b6b3a764000060018303816133b957fe5b04019150505b92915050565b60006133d5838311156001612308565b600082840390508091505092915050565b60006133f985858860600151868661438f565b905095945050505050565b60006134108383613d33565b905092915050565b600061342b85858860600151868661449d565b905095945050505050565b60006134428383614228565b905092915050565b6000670de0b6b3a7640000821061346257600061346e565b81670de0b6b3a7640000035b9050919050565b600061348660008314156004612308565b600083141561349857600090506134d9565b6000670de0b6b3a7640000840290506134c5670de0b6b3a76400008583816134bc57fe5b04146005612308565b60018360018303816134d357fe5b04019150505b92915050565b60006134e96115b6565b73ffffffffffffffffffffffffffffffffffffffff1663aaabadc56040518163ffffffff1660e01b815260040160206040518083038186803b15801561352e57600080fd5b505afa158015613542573d6000803e3d6000fd5b505050506040513d601f19601f820116820180604052508101906135669190616a8b565b905090565b600080600080600061357e8888886145ab565b935093509350935061359284848484614800565b9450505050509392505050565b60006135a96126bd565b826040516020016135bb9291906171be565b604051602081830303815290604052805190602001209050919050565b6000606060006135e7846148b6565b905061360d600060038111156135f957fe5b82600381111561360557fe5b1460ce612308565b6060613618856148d3565b905061362681516002612a70565b61362f81613013565b613637615ff6565b61363f612fc8565b90506000613670838360006002811061365457fe5b60200201518460016002811061366657fe5b602002015161356b565b9050600061367f826002612e98565b905081600a81905550808496509650505050505094509492505050565b6136a682826148f4565b5050565b505050565b6000600160008473ffffffffffffffffffffffffffffffffffffffff1673ffffffffffffffffffffffffffffffffffffffff16815260200190815260200160002060008373ffffffffffffffffffffffffffffffffffffffff1673ffffffffffffffffffffffffffffffffffffffff16815260200190815260200160002054905092915050565b606080600267ffffffffffffffff8111801561375157600080fd5b506040519080825280602002602001820160405280156137805781602001602082028036833780820191505090505b50905061378d6001614a18565b8160008151811061379a57fe5b6020026020010181815250506137b06000614a18565b816001815181106137bd57fe5b6020026020010181815250508091505090565b6002815110156137df5761386b565b6000816000815181106137ee57fe5b602002602001015190506000600190505b825181101561386857600083828151811061381657fe5b602002602001015190506138598173ffffffffffffffffffffffffffffffffffffffff168473ffffffffffffffffffffffffffffffffffffffff16106065612308565b809250508060010190506137ff565b50505b50565b600073ba1ba1ba1ba1ba1ba1ba1ba1ba1ba1ba1ba1ba1b73ffffffffffffffffffffffffffffffffffffffff166138a361158e565b73ffffffffffffffffffffffffffffffffffffffff16141580156138cc57506138cb83614a6e565b5b1561390e576138d961158e565b73ffffffffffffffffffffffffffffffffffffffff163373ffffffffffffffffffffffffffffffffffffffff161490506139a5565b6139166134df565b73ffffffffffffffffffffffffffffffffffffffff16639be2a8848484306040518463ffffffff1660e01b815260040161395293929190617313565b60206040518083038186803b15801561396a57600080fd5b505afa15801561397e573d6000803e3d6000fd5b505050506040513d601f19601f820116820180604052508101906139a2919061696b565b90505b92915050565b6030600a820601600a820491506030600a830601600a830492506030600a8406018060101b8260081b8401016642414c230000000160c81b7f08c379a000000000000000000000000000000000000000000000000000000000600052602060045260076024528060445260646000fd5b505050565b6000613a2f8484111583612308565b60008385039050809150509392505050565b600080613a4d83614aa2565b90506000808213613a6657652d79883d20008203613a70565b652d79883d200082015b9050655af3107a40008181613a8157fe5b0592505050919050565b6000613aa382600085614b1b9092919063ffffffff16565b905092915050565b6000613ac382601685614b1b9092919063ffffffff16565b905092915050565b60008183901b60001b905092915050565b600081661fffffffffffff8416901b60001b905092915050565b600081623fffff8416901b60001b905092915050565b6000637fffffff8284901c60001c16905092915050565b600046905090565b613b33615ff6565b613b50600184600160028110613b4557fe5b602002015184614b48565b81600060028110613b5d57fe5b602002018181525050613b83600084600060028110613b7857fe5b602002015184614b48565b81600160028110613b9057fe5b60200201818152505092915050565b600080623fffff8385901c60001c169050621fffff8113613bc05780613bc8565b623fffff1981175b91505092915050565b60006103ff8284901c60001c16905092915050565b60006001808385901c60001c1614905092915050565b600067ffffffffffffffff8284901c60001c16905092915050565b600080600080613c29600a5486614b72565b9350935093509350613c3d84848484614be4565b5050505050565b600060606000613c5384614c12565b905060016003811115613c6257fe5b816003811115613c6e57fe5b1415613c8b57613c7e8585614c2f565b8093508194505050613c97565b613c966101506139ab565b5b509250929050565b60008115613ceb576000613cce84613cc0878961336790919063ffffffff16565b61347590919063ffffffff16565b9050613ce38187614c6590919063ffffffff16565b915050613d2b565b6000613d1284613d048789614c8590919063ffffffff16565b612ecb90919063ffffffff16565b9050613d2781876133c590919063ffffffff16565b9150505b949350505050565b6000613d4460008314156004612308565b818381613d4d57fe5b04905092915050565b6000613d6c60ea83613b9f90919063ffffffff16565b9050919050565b6000613d8960b583614cc990919063ffffffff16565b9050919050565b6000613da6609f83613b9f90919063ffffffff16565b9050919050565b6000613dc3606a83614cc990919063ffffffff16565b9050919050565b6000613de0605483613b9f90919063ffffffff16565b9050919050565b6000613dfd601f83614cc990919063ffffffff16565b9050919050565b600081613e31577f0000000000000000000000000000000000000000000000000000000000000000613e53565b7f00000000000000000000000000000000000000000000000000000000000000005b9050919050565b613e96600073ffffffffffffffffffffffffffffffffffffffff168373ffffffffffffffffffffffffffffffffffffffff16141561019b612308565b613ea282600083613a1b565b613ef7816101a16000808673ffffffffffffffffffffffffffffffffffffffff1673ffffffffffffffffffffffffffffffffffffffff16815260200190815260200160002054613a209092919063ffffffff16565b6000808473ffffffffffffffffffffffffffffffffffffffff1673ffffffffffffffffffffffffffffffffffffffff16815260200190815260200160002081905550613f4e81600254614d0790919063ffffffff16565b600281905550600073ffffffffffffffffffffffffffffffffffffffff168273ffffffffffffffffffffffffffffffffffffffff167fddf252ad1be2c89b69c2b068fc378daa952ba7f163c4a11628f55a4df523b3ef83604051613fb29190617674565b60405180910390a35050565b600060606000613fcd846148b6565b9050600380811115613fdb57fe5b816003811115613fe757fe5b141561400457613ff78585614d1d565b8093508194505050614010565b61400f6101366139ab565b5b509250929050565b614020615f8b565b600b6040518060600160405290816000820160009054906101000a900460ff161515151581526020016000820160019054906101000a90046effffffffffffffffffffffffffffff166effffffffffffffffffffffffffffff166effffffffffffffffffffffffffffff1681526020016000820160109054906101000a90046fffffffffffffffffffffffffffffffff166fffffffffffffffffffffffffffffffff166fffffffffffffffffffffffffffffffff1681525050905080602001516effffffffffffffffffffffffffffff166141048486614c6590919063ffffffff16565b11156040518060400160405280601a81526020017f6f7665722061646472657373206c6971756964697479206361700000000000008152509061417d576040517f08c379a00000000000000000000000000000000000000000000000000000000081526004016141749190617617565b60405180910390fd5b5080604001516fffffffffffffffffffffffffffffffff166141a88386614c6590919063ffffffff16565b11156040518060400160405280601981526020017f6f76657220676c6f62616c206c6971756964697479206361700000000000000081525090614221576040517f08c379a00000000000000000000000000000000000000000000000000000000081526004016142189190617617565b60405180910390fd5b5050505050565b600061423960008314156004612308565b600083141561424b576000905061425e565b81600184038161425757fe5b0460010190505b92915050565b60008061427386868686614d53565b905061427e81613a41565b915050949350505050565b60008061429887878787614d53565b905060006142c16142b2838861336790919063ffffffff16565b89614c6590919063ffffffff16565b905060006142ce82613a41565b9050848103935050505095945050505050565b600080614305858585426142f48b612e18565b614dc790949392919063ffffffff16565b905060006078884203101590508061431d5786614327565b61432687614e28565b5b9650816008600089815260200190815260200160002081905550869250505095945050505050565b600061436782604b85614e3c9092919063ffffffff16565b905092915050565b600061438782602c85614e639092919063ffffffff16565b905092915050565b60006143ba6143af670429d069189e000088614c8590919063ffffffff16565b851115610130612308565b60006143ec6143dd6002670de0b6b3a7640000018661336790919063ffffffff16565b88614c6590919063ffffffff16565b905060006144206144116001670de0b6b3a76400000386614c8590919063ffffffff16565b88614c6590919063ffffffff16565b90506144596144388784614c6590919063ffffffff16565b61444b8884614c8590919063ffffffff16565b612ecb90919063ffffffff16565b9250505061446b858210610165612308565b614494614489670429d069189e000087614c8590919063ffffffff16565b821115610131612308565b95945050505050565b60006144ad858510610165612308565b6144d66144cb670429d069189e000087614c8590919063ffffffff16565b851115610131612308565b60006145086144f96002670de0b6b3a7640000018661336790919063ffffffff16565b88614c6590919063ffffffff16565b9050600061453c61452d6001670de0b6b3a76400000386614c8590919063ffffffff16565b88614c6590919063ffffffff16565b905061457561455487836133c590919063ffffffff16565b614567888561336790919063ffffffff16565b61347590919063ffffffff16565b925050506145a2614597670429d069189e000088614c8590919063ffffffff16565b821115610130612308565b95945050505050565b6000806000806145de6145c78688612ecb90919063ffffffff16565b670de0b6b3a76400006133c590919063ffffffff16565b9350600061460986896001815181106145f357fe5b6020026020010151612ecb90919063ffffffff16565b90506000614634888a60008151811061461e57fe5b6020026020010151614c8590919063ffffffff16565b90506146498183614c6590919063ffffffff16565b94506146868960018151811061465b57fe5b60200260200101518a60008151811061467057fe5b6020026020010151614c8590919063ffffffff16565b925050506146e9866146db886146cd8b6000815181106146a257fe5b60200260200101518c6000815181106146b757fe5b6020026020010151614c8590919063ffffffff16565b614c8590919063ffffffff16565b614c8590919063ffffffff16565b915060006147698661475b8961474d670de0b6b3a764000060020261473f8e60018151811061471457fe5b60200260200101518f60008151811061472957fe5b6020026020010151614c8590919063ffffffff16565b614c8590919063ffffffff16565b614c8590919063ffffffff16565b612ecb90919063ffffffff16565b905060006147cc614783888961336790919063ffffffff16565b6147be8b60018151811061479357fe5b60200260200101518c6001815181106147a857fe5b6020026020010151614c8590919063ffffffff16565b612ecb90919063ffffffff16565b90506147f3816147e58487614c6590919063ffffffff16565b614c6590919063ffffffff16565b9350505093509350935093565b600080614821670de0b6b3a76400006002028761336790919063ffffffff16565b9050600061485587614847670de0b6b3a764000060040287614c8590919063ffffffff16565b614c8590919063ffffffff16565b9050600061486c8287614c6590919063ffffffff16565b9050600061487b826005614e8c565b90506000614892828a614c6590919063ffffffff16565b90506148a78582612ecb90919063ffffffff16565b95505050505050949350505050565b6000818060200190518101906148cc9190616b19565b9050919050565b6060818060200190518101906148e99190616b42565b905080915050919050565b61490060008383613a1b565b614915816002546127d890919063ffffffff16565b60028190555061496c816000808573ffffffffffffffffffffffffffffffffffffffff1673ffffffffffffffffffffffffffffffffffffffff168152602001908152602001600020546127d890919063ffffffff16565b6000808473ffffffffffffffffffffffffffffffffffffffff1673ffffffffffffffffffffffffffffffffffffffff168152602001908152602001600020819055508173ffffffffffffffffffffffffffffffffffffffff16600073ffffffffffffffffffffffffffffffffffffffff167fddf252ad1be2c89b69c2b068fc378daa952ba7f163c4a11628f55a4df523b3ef83604051614a0c9190617674565b60405180910390a35050565b600081614a45577f0000000000000000000000000000000000000000000000000000000000000000614a67565b7f00000000000000000000000000000000000000000000000000000000000000005b9050919050565b6000614a806338e9922e60e01b61150b565b821480614a9b5750614a986350dd6ed960e01b61150b565b82145b9050919050565b6000614ab2600083136064612308565b8167016345785d8a0000670de0b6b3a764000003128015614ae4575067016345785d8a0000670de0b6b3a76400000182125b15614b0a57670de0b6b3a7640000614afb83615054565b81614b0257fe5b059050614b16565b614b1382615201565b90505b919050565b60008082623fffff901b198560001c1660001b905082623fffff8516901b60001b81179150509392505050565b600083614b5e57614b598284615698565b614b69565b614b6882846156b5565b5b90509392505050565b600080600080600080600080614b866156d2565b93509350935093506000841415614bad576000808383975097509750975050505050614bdb565b600080614bc48c8c614bbd610a5d565b8989615a12565b915091508181858599509950995099505050505050505b92959194509250565b6000841115614bf857614bf7828561369c565b5b6000831115614c0c57614c0b818461369c565b5b50505050565b600081806020019051810190614c289190616ab4565b9050919050565b600060606000614c3e84615aff565b90506060614c548683614c4f610a5d565b615b20565b905081819350935050509250929050565b6000808284019050614c7b848210156000612308565b8091505092915050565b6000808284029050614cae6000851480614ca7575083858381614ca457fe5b04145b6003612308565b670de0b6b3a76400008181614cbf57fe5b0491505092915050565b600080661fffffffffffff8385901c60001c169050660fffffffffffff8113614cf25780614cfe565b661fffffffffffff1981175b91505092915050565b6000614d1583836001613a20565b905092915050565b600060606000614d2c84615bdd565b90506060614d428683614d3d610a5d565b615bfe565b905081819350935050509250929050565b6000806706f05b59d3b200009050614dbc614d8982614d7b8688614c6590919063ffffffff16565b61347590919063ffffffff16565b614dae83614da0898b614c6590919063ffffffff16565b61347590919063ffffffff16565b61347590919063ffffffff16565b915050949350505050565b600080614dd3876126a0565b830390506000818702614de589613d73565b0190506000828702614df68a613dad565b0190506000838702614e078b613de7565b019050614e1989848a858b868c6125ff565b94505050505095945050505050565b6000614e35826001615cbb565b9050919050565b600080826103ff901b198560001c1660001b90508284901b60001b81179150509392505050565b60008082637fffffff901b198560001c1660001b90508284901b60001b81179150509392505050565b600080831415614e9f576000905061504e565b6000614eaa84615cd3565b9050600281670de0b6b3a7640000860281614ec157fe5b04820181614ecb57fe5b049050600281670de0b6b3a7640000860281614ee357fe5b04820181614eed57fe5b049050600281670de0b6b3a7640000860281614f0557fe5b04820181614f0f57fe5b049050600281670de0b6b3a7640000860281614f2757fe5b04820181614f3157fe5b049050600281670de0b6b3a7640000860281614f4957fe5b04820181614f5357fe5b049050600281670de0b6b3a7640000860281614f6b57fe5b04820181614f7557fe5b049050600281670de0b6b3a7640000860281614f8d57fe5b04820181614f9757fe5b0490506000614faf8283614c8590919063ffffffff16565b9050614fd6614fc7858461336790919063ffffffff16565b86614c6590919063ffffffff16565b81111580156150095750615005614ff6858461336790919063ffffffff16565b866133c590919063ffffffff16565b8110155b615048576040517f08c379a000000000000000000000000000000000000000000000000000000000815260040161503f90617639565b60405180910390fd5b81925050505b92915050565b6000670de0b6b3a76400008202915060006ec097ce7bc90715b34b9f100000000083016ec097ce7bc90715b34b9f1000000000808503028161509257fe5b05905060006ec097ce7bc90715b34b9f1000000000828302816150b157fe5b059050600082905060008190506ec097ce7bc90715b34b9f1000000000838302816150d857fe5b059150600382816150e557fe5b05810190506ec097ce7bc90715b34b9f10000000008383028161510457fe5b0591506005828161511157fe5b05810190506ec097ce7bc90715b34b9f10000000008383028161513057fe5b0591506007828161513d57fe5b05810190506ec097ce7bc90715b34b9f10000000008383028161515c57fe5b0591506009828161516957fe5b05810190506ec097ce7bc90715b34b9f10000000008383028161518857fe5b059150600b828161519557fe5b05810190506ec097ce7bc90715b34b9f1000000000838302816151b457fe5b059150600d82816151c157fe5b05810190506ec097ce7bc90715b34b9f1000000000838302816151e057fe5b059150600f82816151ed57fe5b058101905060028102945050505050919050565b6000670de0b6b3a76400008212156152395761522f82670de0b6b3a764000080028161522957fe5b05615201565b6000039050615693565b6000670de0b6b3a7640000770195e54c5dd42177f53a27172fa9ec63026282700000000002831261529757770195e54c5dd42177f53a27172fa9ec630262827000000000838161528557fe5b0592506806f05b59d3b2000000810190505b670de0b6b3a76400006b1425982cf597cd205cef73800283126152db576b1425982cf597cd205cef738083816152c957fe5b0592506803782dace9d9000000810190505b6064810290506064830292506e01855144814a7ff805980ff00840008312615332576e01855144814a7ff805980ff008400068056bc75e2d6310000084028161532057fe5b05925068ad78ebc5ac62000000810190505b6b02df0ab5a80a22c61ab5a7008312615377576b02df0ab5a80a22c61ab5a70068056bc75e2d6310000084028161536557fe5b0592506856bc75e2d631000000810190505b693f1fce3da636ea5cf85083126153b857693f1fce3da636ea5cf85068056bc75e2d631000008402816153a657fe5b059250682b5e3af16b18800000810190505b690127fa27722cc06cc5e283126153f957690127fa27722cc06cc5e268056bc75e2d631000008402816153e757fe5b0592506815af1d78b58c400000810190505b68280e60114edb805d0383126154385768280e60114edb805d0368056bc75e2d6310000084028161542657fe5b059250680ad78ebc5ac6200000810190505b680ebc5fb41746121110831261547757680ebc5fb4174612111068056bc75e2d6310000084028161546557fe5b05925068056bc75e2d63100000810190505b6808f00f760a4b2db55d83126154b6576808f00f760a4b2db55d68056bc75e2d631000008402816154a457fe5b0592506802b5e3af16b1880000810190505b6806f5f177578893793783126154f5576806f5f177578893793768056bc75e2d631000008402816154e357fe5b05925068015af1d78b58c40000810190505b6806248f33704b2866038312615533576806248f33704b28660368056bc75e2d6310000084028161552257fe5b05925067ad78ebc5ac620000810190505b6805c548670b9510e7ac8312615571576805c548670b9510e7ac68056bc75e2d6310000084028161556057fe5b0592506756bc75e2d6310000810190505b600068056bc75e2d63100000840168056bc75e2d63100000808603028161559457fe5b059050600068056bc75e2d63100000828302816155ad57fe5b0590506000829050600081905068056bc75e2d63100000838302816155ce57fe5b059150600382816155db57fe5b058101905068056bc75e2d63100000838302816155f457fe5b0591506005828161560157fe5b058101905068056bc75e2d631000008383028161561a57fe5b0591506007828161562757fe5b058101905068056bc75e2d631000008383028161564057fe5b0591506009828161564d57fe5b058101905068056bc75e2d631000008383028161566657fe5b059150600b828161567357fe5b058101905060028102905060648186018161568a57fe5b05955050505050505b919050565b60006156ad8284614c8590919063ffffffff16565b905092915050565b60006156ca8284612ecb90919063ffffffff16565b905092915050565b600080600080600d60009054906101000a900473ffffffffffffffffffffffffffffffffffffffff1673ffffffffffffffffffffffffffffffffffffffff1663bd02d0f57f50524f544f434f4c5f535741505f4645455f50455243000000000000000000006040518263ffffffff1660e01b815260040161575391906172f8565b60206040518083038186803b15801561576b57600080fd5b505afa15801561577f573d6000803e3d6000fd5b505050506040513d601f19601f820116820180604052508101906157a39190616cdd565b600d60009054906101000a900473ffffffffffffffffffffffffffffffffffffffff1673ffffffffffffffffffffffffffffffffffffffff1663bd02d0f57f50524f544f434f4c5f4645455f4759524f5f504f5254494f4e000000000000006040518263ffffffff1660e01b815260040161581e91906172f8565b60206040518083038186803b15801561583657600080fd5b505afa15801561584a573d6000803e3d6000fd5b505050506040513d601f19601f8201168201806040525081019061586e9190616cdd565b600d60009054906101000a900473ffffffffffffffffffffffffffffffffffffffff1673ffffffffffffffffffffffffffffffffffffffff166321f8a7217f4759524f5f5452454153555259000000000000000000000000000000000000006040518263ffffffff1660e01b81526004016158e991906172f8565b60206040518083038186803b15801561590157600080fd5b505afa158015615915573d6000803e3d6000fd5b505050506040513d601f19601f8201168201806040525081019061593991906166b3565b600d60009054906101000a900473ffffffffffffffffffffffffffffffffffffffff1673ffffffffffffffffffffffffffffffffffffffff166321f8a7217f42414c5f545245415355525900000000000000000000000000000000000000006040518263ffffffff1660e01b81526004016159b491906172f8565b60206040518083038186803b1580156159cc57600080fd5b505afa1580156159e0573d6000803e3d6000fd5b505050506040513d601f19601f82011682018060405250810190615a0491906166b3565b935093509350935090919293565b600080868611615a285760008091509150615af5565b6000615a6185615a53615a448b8b6133c590919063ffffffff16565b89614c8590919063ffffffff16565b614c8590919063ffffffff16565b90506000615a8a615a7b8a8a6133c590919063ffffffff16565b87614c8590919063ffffffff16565b90506000615aa1828a6133c590919063ffffffff16565b90506000615ab88285612ecb90919063ffffffff16565b90506000615acf8289614c8590919063ffffffff16565b90506000615ae682846133c590919063ffffffff16565b90508181975097505050505050505b9550959350505050565b600081806020019051810190615b159190616add565b905080915050919050565b6060835167ffffffffffffffff81118015615b3a57600080fd5b50604051908082528060200260200182016040528015615b695781602001602082028036833780820191505090505b50905060005b8451811015615bd557615bb083615ba286888581518110615b8c57fe5b6020026020010151614c8590919063ffffffff16565b612ecb90919063ffffffff16565b828281518110615bbc57fe5b6020026020010181815250508080600101915050615b6f565b509392505050565b600081806020019051810190615bf39190616b96565b905080915050919050565b6060835167ffffffffffffffff81118015615c1857600080fd5b50604051908082528060200260200182016040528015615c475781602001602082028036833780820191505090505b50905060005b8451811015615cb357615c8e83615c8086888581518110615c6a57fe5b602002602001015161336790919063ffffffff16565b61347590919063ffffffff16565b828281518110615c9a57fe5b6020026020010181815250508080600101915050615c4d565b509392505050565b600061040082840181615cca57fe5b06905092915050565b6000670de0b6b3a76400008210615d1357670de0b6b3a7640000615d07670de0b6b3a76400008481615d0157fe5b04615ecb565b6001901b029050615ec6565b600a8211615d275763bc7c871c9050615ec6565b60648211615d3c576402540be4009050615ec6565b6103e88211615d525764075cdd47199050615ec6565b6127108211615d685764174876e8009050615ec6565b620186a08211615d7f576449a0a4c7009050615ec6565b620f42408211615d965764e8d4a510009050615ec6565b629896808211615dae576502e0466fc6089050615ec6565b6305f5e1008211615dc7576509184e72a0009050615ec6565b633b9aca008211615de057651cc2c05dbc539050615ec6565b6402540be4008211615dfa57655af3107a40009050615ec6565b64174876e8008211615e155766011f9b83a95b459050615ec6565b64e8d4a510008211615e305766038d7ea4c680009050615ec6565b6509184e72a0008211615e4c57660b3c13249d90bb9050615ec6565b655af3107a40008211615e6857662386f26fc100009050615ec6565b66038d7ea4c680008211615e8557667058bf6e27a7519050615ec6565b662386f26fc100008211615ea35767016345785d8a00009050615ec6565b67016345785d8a00008211615ec257670463777a4d8c892d9050615ec6565b8190505b919050565b60007001000000000000000000000000000000008210615ef357608082901c91506040810190505b680100000000000000008210615f1157604082901c91506020810190505b6401000000008210615f2b57602082901c91506010810190505b620100008210615f4357601082901c91506008810190505b6101008210615f5a57600882901c91506004810190505b60108210615f7057600482901c91506002810190505b60048210615f8657600282901c91506001810190505b919050565b604051806060016040528060001515815260200160006effffffffffffffffffffffffffffff16815260200160006fffffffffffffffffffffffffffffffff1681525090565b604051806040016040528060006002811115615fe957fe5b8152602001600081525090565b6040518060400160405280600290602082028036833780820191505090505090565b60008135905061602781617ad0565b92915050565b60008151905061603c81617ad0565b92915050565b600082601f83011261605357600080fd5b81516160666160618261773e565b617711565b9150818183526020840193506020810190508385602084028201111561608b57600080fd5b60005b838110156160bb57816160a188826163a3565b84526020840193506020830192505060018101905061608e565b5050505092915050565b600082601f8301126160d657600080fd5b81356160e96160e482617766565b617711565b9150818183526020840193506020810190508385604084028201111561610e57600080fd5b60005b8381101561613e57816161248882616481565b845260208401935060408301925050600181019050616111565b5050505092915050565b600082601f83011261615957600080fd5b813561616c6161678261778e565b617711565b9150818183526020840193506020810190508385606084028201111561619157600080fd5b60005b838110156161c157816161a788826164cd565b845260208401935060608301925050600181019050616194565b5050505092915050565b600082601f8301126161dc57600080fd5b81356161ef6161ea826177b6565b617711565b9150818183526020840193506020810190508385602084028201111561621457600080fd5b60005b83811015616244578161622a888261664b565b845260208401935060208301925050600181019050616217565b5050505092915050565b600082601f83011261625f57600080fd5b815161627261626d826177b6565b617711565b9150818183526020840193506020810190508385602084028201111561629757600080fd5b60005b838110156162c757816162ad8882616660565b84526020840193506020830192505060018101905061629a565b5050505092915050565b6000813590506162e081617ae7565b92915050565b6000815190506162f581617ae7565b92915050565b60008135905061630a81617afe565b92915050565b60008135905061631f81617b15565b92915050565b600082601f83011261633657600080fd5b8135616349616344826177de565b617711565b9150808252602083016020830185838301111561636557600080fd5b616370838284617a5c565b50505092915050565b60008151905061638881617b2c565b92915050565b60008135905061639d81617b43565b92915050565b6000815190506163b281617b43565b92915050565b6000815190506163c781617b5a565b92915050565b6000815190506163dc81617b6a565b92915050565b6000813590506163f181617b7a565b92915050565b60008135905061640681617b8a565b92915050565b60008151905061641b81617b9a565b92915050565b60006060828403121561643357600080fd5b61643d6060617711565b9050600061644d848285016162d1565b600083015250602061646184828501616621565b602083015250604061647584828501616636565b60408301525092915050565b60006040828403121561649357600080fd5b61649d6040617711565b905060006164ad848285016163f7565b60008301525060206164c18482850161664b565b60208301525092915050565b6000606082840312156164df57600080fd5b6164e96060617711565b905060006164f9848285016163f7565b600083015250602061650d8482850161664b565b60208301525060406165218482850161664b565b60408301525092915050565b6000610120828403121561654057600080fd5b61654b610120617711565b9050600061655b848285016163e2565b600083015250602061656f8482850161638e565b60208301525060406165838482850161638e565b60408301525060606165978482850161664b565b60608301525060806165ab848285016162fb565b60808301525060a06165bf8482850161664b565b60a08301525060c06165d384828501616018565b60c08301525060e06165e784828501616018565b60e08301525061010082013567ffffffffffffffff81111561660857600080fd5b61661484828501616325565b6101008301525092915050565b60008135905061663081617bb1565b92915050565b60008135905061664581617bc8565b92915050565b60008135905061665a81617bdf565b92915050565b60008151905061666f81617bdf565b92915050565b60008135905061668481617bf6565b92915050565b60006020828403121561669c57600080fd5b60006166aa84828501616018565b91505092915050565b6000602082840312156166c557600080fd5b60006166d38482850161602d565b91505092915050565b600080604083850312156166ef57600080fd5b60006166fd85828601616018565b925050602061670e85828601616018565b9150509250929050565b60008060006060848603121561672d57600080fd5b600061673b86828701616018565b935050602061674c86828701616018565b925050604061675d8682870161664b565b9150509250925092565b600080600080600080600060e0888a03121561678257600080fd5b60006167908a828b01616018565b97505060206167a18a828b01616018565b96505060406167b28a828b0161664b565b95505060606167c38a828b0161664b565b94505060806167d48a828b01616675565b93505060a06167e58a828b016162fb565b92505060c06167f68a828b016162fb565b91505092959891949750929550565b6000806040838503121561681857600080fd5b600061682685828601616018565b92505060206168378582860161664b565b9150509250929050565b60008060006060848603121561685657600080fd5b600084015167ffffffffffffffff81111561687057600080fd5b61687c86828701616042565b935050602084015167ffffffffffffffff81111561689957600080fd5b6168a58682870161624e565b92505060406168b686828701616660565b9150509250925092565b6000602082840312156168d257600080fd5b600082013567ffffffffffffffff8111156168ec57600080fd5b6168f8848285016160c5565b91505092915050565b60006020828403121561691357600080fd5b600082013567ffffffffffffffff81111561692d57600080fd5b61693984828501616148565b91505092915050565b60006020828403121561695457600080fd5b6000616962848285016162d1565b91505092915050565b60006020828403121561697d57600080fd5b600061698b848285016162e6565b91505092915050565b600080600080600080600060e0888a0312156169af57600080fd5b60006169bd8a828b016162fb565b97505060206169ce8a828b01616018565b96505060406169df8a828b01616018565b955050606088013567ffffffffffffffff8111156169fc57600080fd5b616a088a828b016161cb565b9450506080616a198a828b0161664b565b93505060a0616a2a8a828b0161664b565b92505060c088013567ffffffffffffffff811115616a4757600080fd5b616a538a828b01616325565b91505092959891949750929550565b600060208284031215616a7457600080fd5b6000616a8284828501616310565b91505092915050565b600060208284031215616a9d57600080fd5b6000616aab84828501616379565b91505092915050565b600060208284031215616ac657600080fd5b6000616ad4848285016163b8565b91505092915050565b60008060408385031215616af057600080fd5b6000616afe858286016163b8565b9250506020616b0f85828601616660565b9150509250929050565b600060208284031215616b2b57600080fd5b6000616b39848285016163cd565b91505092915050565b60008060408385031215616b5557600080fd5b6000616b63858286016163cd565b925050602083015167ffffffffffffffff811115616b8057600080fd5b616b8c8582860161624e565b9150509250929050565b60008060408385031215616ba957600080fd5b6000616bb7858286016163cd565b9250506020616bc885828601616660565b9150509250929050565b600060208284031215616be457600080fd5b6000616bf2848285016163f7565b91505092915050565b600060208284031215616c0d57600080fd5b6000616c1b8482850161640c565b91505092915050565b600060608284031215616c3657600080fd5b6000616c4484828501616421565b91505092915050565b600080600060608486031215616c6257600080fd5b600084013567ffffffffffffffff811115616c7c57600080fd5b616c888682870161652d565b9350506020616c998682870161664b565b9250506040616caa8682870161664b565b9150509250925092565b600060208284031215616cc657600080fd5b6000616cd48482850161664b565b91505092915050565b600060208284031215616cef57600080fd5b6000616cfd84828501616660565b91505092915050565b60008060408385031215616d1957600080fd5b6000616d278582860161664b565b9250506020616d388582860161664b565b9150509250929050565b600080600060608486031215616d5757600080fd5b6000616d658682870161664b565b9350506020616d768682870161664b565b9250506040616d87868287016162d1565b9150509250925092565b6000616d9d8383616fae565b60208301905092915050565b6000616db5838361712e565b60208301905092915050565b616dca816178db565b82525050565b6000616ddb82617834565b616de58185617887565b9350616df08361780a565b8060005b83811015616e21578151616e088882616d91565b9750616e1383617860565b925050600181019050616df4565b5085935050505092915050565b616e378161783f565b616e418184617898565b9250616e4c8261781a565b8060005b83811015616e7d578151616e648782616da9565b9650616e6f8361786d565b925050600181019050616e50565b505050505050565b6000616e908261784a565b616e9a81856178a3565b9350616ea583617824565b8060005b83811015616ed6578151616ebd8882616da9565b9750616ec88361787a565b925050600181019050616ea9565b5085935050505092915050565b616eec816178ed565b82525050565b616efb816178ed565b82525050565b616f0a816178f9565b82525050565b616f21616f1c826178f9565b617a9e565b82525050565b616f38616f3382617903565b617aa8565b82525050565b6000616f4a83856178b4565b9350616f57838584617a5c565b82840190509392505050565b616f6c816179de565b82525050565b616f7b81617a02565b82525050565b616f8a81617a26565b82525050565b616f9981617a4a565b82525050565b616fa881617a4a565b82525050565b616fb781617966565b82525050565b616fc681617966565b82525050565b8082525050565b6000616fde82617855565b616fe881856178bf565b9350616ff8818560208601617a6b565b61700181617ab2565b840191505092915050565b60006170196002836178d0565b91507f19010000000000000000000000000000000000000000000000000000000000006000830152600282019050919050565b6000617059600c836178bf565b91507f5f73717274204641494c454400000000000000000000000000000000000000006000830152602082019050919050565b6060820160008201516170a26000850182616ee3565b5060208201516170b56020850182617110565b5060408201516170c8604085018261711f565b50505050565b6060820160008201516170e46000850182616f9f565b5060208201516170f7602085018261715b565b50604082015161710a604085018261715b565b50505050565b61711981617970565b82525050565b6171288161798b565b82525050565b617137816179c7565b82525050565b617146816179c7565b82525050565b617155816179c7565b82525050565b617164816179c7565b82525050565b617173816179d1565b82525050565b60006171858285616f10565b6020820191506171958284616f27565b6004820191508190509392505050565b60006171b2828486616f3e565b91508190509392505050565b60006171c98261700c565b91506171d58285616f10565b6020820191506171e58284616f10565b6020820191508190509392505050565b600060208201905061720a6000830184616dc1565b92915050565b6000602082019050818103600083015261722a8184616dd0565b905092915050565b60006040820190506172476000830184616e2e565b92915050565b600060208201905081810360008301526172678184616e85565b905092915050565b600060408201905081810360008301526172898185616e85565b9050818103602083015261729d8184616e85565b90509392505050565b60006020820190506172bb6000830184616ef2565b92915050565b60006060820190506172d66000830186616ef2565b6172e3602083018561713d565b6172f0604083018461713d565b949350505050565b600060208201905061730d6000830184616f01565b92915050565b60006060820190506173286000830186616f01565b6173356020830185616dc1565b6173426040830184616dc1565b949350505050565b600060c08201905061735f6000830189616f01565b61736c6020830188616dc1565b6173796040830187616dc1565b617386606083018661713d565b617393608083018561713d565b6173a060a083018461713d565b979650505050505050565b600060a0820190506173c06000830188616f01565b6173cd6020830187616f01565b6173da6040830186616f01565b6173e7606083018561713d565b6173f46080830184616dc1565b9695505050505050565b60006080820190506174136000830187616f01565b617420602083018661716a565b61742d6040830185616f01565b61743a6060830184616f01565b95945050505050565b60006020820190506174586000830184616f63565b92915050565b60006020820190506174736000830184616f72565b92915050565b600060208201905061748e6000830184616f81565b92915050565b600060e0820190506174a9600083018a616fbd565b6174b66020830189616fbd565b6174c36040830188616fbd565b6174d06060830187616fbd565b6174dd6080830186616fbd565b6174ea60a0830185616fbd565b6174f760c083018461713d565b98975050505050505050565b600060c0820190506175186000830189616fbd565b6175256020830188616fbd565b617532604083018761713d565b61753f606083018661713d565b61754c6080830185616ef2565b61755960a083018461713d565b979650505050505050565b60006060820190506175796000830186616fcc565b6175866020830185616f90565b617593604083018461714c565b949350505050565b60006080820190506175b06000830187616fcc565b6175bd6020830186616f90565b6175ca604083018561714c565b6175d7606083018461714c565b95945050505050565b600060a0820190506175f56000830186616fcc565b61760260208301856170ce565b61760f608083018461714c565b949350505050565b600060208201905081810360008301526176318184616fd3565b905092915050565b600060208201905081810360008301526176528161704c565b9050919050565b600060608201905061766e600083018461708c565b92915050565b6000602082019050617689600083018461713d565b92915050565b60006040820190506176a4600083018561713d565b81810360208301526176b68184616e85565b90509392505050565b60006060820190506176d4600083018661713d565b6176e1602083018561713d565b6176ee604083018461713d565b949350505050565b600060208201905061770b600083018461716a565b92915050565b6000604051905081810181811067ffffffffffffffff8211171561773457600080fd5b8060405250919050565b600067ffffffffffffffff82111561775557600080fd5b602082029050602081019050919050565b600067ffffffffffffffff82111561777d57600080fd5b602082029050602081019050919050565b600067ffffffffffffffff8211156177a557600080fd5b602082029050602081019050919050565b600067ffffffffffffffff8211156177cd57600080fd5b602082029050602081019050919050565b600067ffffffffffffffff8211156177f557600080fd5b601f19601f8301169050602081019050919050565b6000819050602082019050919050565b6000819050919050565b6000819050602082019050919050565b600081519050919050565b600060029050919050565b600081519050919050565b600081519050919050565b6000602082019050919050565b6000602082019050919050565b6000602082019050919050565b600082825260208201905092915050565b600081905092915050565b600082825260208201905092915050565b600081905092915050565b600082825260208201905092915050565b600081905092915050565b60006178e6826179a7565b9050919050565b60008115159050919050565b6000819050919050565b60007fffffffff0000000000000000000000000000000000000000000000000000000082169050919050565b600061793a826178db565b9050919050565b600061794c826178db565b9050919050565b600081905061796182617ac3565b919050565b6000819050919050565b60006effffffffffffffffffffffffffffff82169050919050565b60006fffffffffffffffffffffffffffffffff82169050919050565b600073ffffffffffffffffffffffffffffffffffffffff82169050919050565b6000819050919050565b600060ff82169050919050565b60006179e9826179f0565b9050919050565b60006179fb826179a7565b9050919050565b6000617a0d82617a14565b9050919050565b6000617a1f826179a7565b9050919050565b6000617a3182617a38565b9050919050565b6000617a43826179a7565b9050919050565b6000617a5582617953565b9050919050565b82818337600083830152505050565b60005b83811015617a89578082015181840152602081019050617a6e565b83811115617a98576000848401525b50505050565b6000819050919050565b6000819050919050565b6000601f19601f8301169050919050565b60038110617acd57fe5b50565b617ad9816178db565b8114617ae457600080fd5b50565b617af0816178ed565b8114617afb57600080fd5b50565b617b07816178f9565b8114617b1257600080fd5b50565b617b1e81617903565b8114617b2957600080fd5b50565b617b358161792f565b8114617b4057600080fd5b50565b617b4c81617941565b8114617b5757600080fd5b50565b60048110617b6757600080fd5b50565b60048110617b7757600080fd5b50565b60028110617b8757600080fd5b50565b60038110617b9757600080fd5b50565b617ba381617966565b8114617bae57600080fd5b50565b617bba81617970565b8114617bc557600080fd5b50565b617bd18161798b565b8114617bdc57600080fd5b50565b617be8816179c7565b8114617bf357600080fd5b50565b617bff816179d1565b8114617c0a57600080fd5b5056fea2646970667358221220759bfd118d8228647e21f64b89311785d348e72aa4373878fa8124180ebcaaa864736f6c63430007010033","language":"Solidity","natspec":{"kind":"dev","methods":{"DOMAIN_SEPARATOR()":{"details":"See {IERC20Permit-DOMAIN_SEPARATOR}."},"allowance(address,address)":{"details":"Override to grant the Vault infinite allowance, causing for Pool Tokens to not require approval. This is sound as the Vault already provides authorization mechanisms when initiation token transfers, which this contract inherits."},"approve(address,uint256)":{"details":"See {IERC20-approve}. Requirements: - `spender` cannot be the zero address."},"balanceOf(address)":{"details":"See {IERC20-balanceOf}."},"decimals()":{"details":"Returns the number of decimals used to get its user representation. For example, if `decimals` equals `2`, a balance of `505` tokens should be displayed to a user as `5,05` (`505 / 10 ** 2`). Tokens usually opt for a value of 18, imitating the relationship between Ether and Wei. This is the value {ERC20} uses, unless {_setupDecimals} is called. NOTE: This information is only used for _display_ purposes: it in no way affects any of the arithmetic of the contract, including {IERC20-balanceOf} and {IERC20-transfer}."},"decreaseAllowance(address,uint256)":{"details":"Override to allow decreasing allowance by more than the current amount (setting it to zero)"},"dirtyUninitializedOracleSamples(uint256,uint256)":{"details":"Manually dirty oracle sample storage slots with dummy data, to reduce the gas cost of the future swaps that will initialize them. This function is only useful before the oracle has been fully initialized. `endIndex` is non-inclusive."},"enableOracle()":{"details":"Balancer Governance can always enable the Oracle, even if it was originally not enabled. This allows for Pools that unexpectedly drive much more volume and liquidity than expected to serve as Price Oracles. Note that the Oracle can only be enabled - it can never be disabled."},"getActionId(bytes4)":{"details":"Returns the action identifier associated with the external function described by `selector`."},"getInvariant()":{"details":"Returns the current value of the invariant."},"getLargestSafeQueryWindow()":{"details":"Returns largest time window that can be safely queried, where 'safely' means the Oracle is guaranteed to be able to produce a result and not revert. If a query has a non-zero `ago` value, then `secs + ago` (the oldest point in time) must be smaller than this value for 'safe' queries."},"getLatest(uint8)":{"details":"Returns latest sample of `variable`. Prices are represented as 18 decimal fixed point values."},"getPastAccumulators((uint8,uint256)[])":{"details":"Returns the accumulators corresponding to each of `queries`."},"getPausedState()":{"details":"Returns the current contract pause status, as well as the end times of the Pause Window and Buffer Period."},"getRate()":{"details":"This function returns the appreciation of one BPT relative to the underlying tokens. This starts at 1 when the pool is created and grows over time"},"getSample(uint256)":{"details":"Returns the raw data of the sample at `index`."},"getTimeWeightedAverage((uint8,uint256,uint256)[])":{"details":"Returns the time average weighted price corresponding to each of `queries`. Prices are represented as 18 decimal fixed point values."},"getTotalSamples()":{"details":"Returns the total number of samples."},"getVirtualParameters()":{"details":"Returns virtual offsets a and b for reserves x and y respectively, as in (x+a)*(y+b)=L^2"},"increaseAllowance(address,uint256)":{"details":"Atomically increases the allowance granted to `spender` by the caller. This is an alternative to {approve} that can be used as a mitigation for problems described in {IERC20-approve}. Emits an {Approval} event indicating the updated allowance. Requirements: - `spender` cannot be the zero address."},"name()":{"details":"Returns the name of the token."},"nonces(address)":{"details":"See {IERC20Permit-nonces}."},"onExitPool(bytes32,address,address,uint256[],uint256,uint256,bytes)":{"details":"Called by the Vault when a user calls `IVault.exitPool` to remove liquidity from this Pool. Returns how many tokens the Vault should deduct from the Pool's balances, as well as the amount of protocol fees the Pool owes to the Vault. The Vault will then take tokens from the Pool's balances and send them to `recipient`, as well as collect the reported amount in protocol fees, which the Pool should calculate based on `protocolSwapFeePercentage`. Protocol fees are charged on exit events to guarantee that users exiting the Pool have paid their share. `sender` is the account performing the exit (typically the pool shareholder), and `recipient` is the account to which the Vault will send the proceeds. `balances` contains the total token balances for each token the Pool registered in the Vault, in the same order that `IVault.getPoolTokens` would return. `lastChangeBlock` is the last block in which *any* of the Pool's registered tokens last changed its total balance. `userData` contains any pool-specific instructions needed to perform the calculations, such as the type of exit (e.g., proportional given an amount of pool shares, single-asset, multi-asset, etc.) Contracts implementing this function should check that the caller is indeed the Vault before performing any state-changing operations, such as burning pool shares."},"onJoinPool(bytes32,address,address,uint256[],uint256,uint256,bytes)":{"details":"Called by the Vault when a user calls `IVault.joinPool` to add liquidity to this Pool. Returns how many of each registered token the user should provide, as well as the amount of protocol fees the Pool owes to the Vault. The Vault will then take tokens from `sender` and add them to the Pool's balances, as well as collect the reported amount in protocol fees, which the pool should calculate based on `protocolSwapFeePercentage`. Protocol fees are reported and charged on join events so that the Pool is free of debt whenever new users join. `sender` is the account performing the join (from which tokens will be withdrawn), and `recipient` is the account designated to receive any benefits (typically pool shares). `balances` contains the total balances for each token the Pool registered in the Vault, in the same order that `IVault.getPoolTokens` would return. `lastChangeBlock` is the last block in which *any* of the Pool's registered tokens last changed its total balance. `userData` contains any pool-specific instructions needed to perform the calculations, such as the type of join (e.g., proportional given an amount of pool shares, single-asset, multi-asset, etc.) Contracts implementing this function should check that the caller is indeed the Vault before performing any state-changing operations, such as minting pool shares."},"permit(address,address,uint256,uint256,uint8,bytes32,bytes32)":{"details":"See {IERC20Permit-permit}."},"queryExit(bytes32,address,address,uint256[],uint256,uint256,bytes)":{"details":"Returns the amount of BPT that would be burned from `sender` if the `onExitPool` hook were called by the Vault with the same arguments, along with the number of tokens `recipient` would receive. This function is not meant to be called directly, but rather from a helper contract that fetches current Vault data, such as the protocol swap fee percentage and Pool balances. Like `IVault.queryBatchSwap`, this function is not view due to internal implementation details: the caller must explicitly use eth_call instead of eth_sendTransaction."},"queryJoin(bytes32,address,address,uint256[],uint256,uint256,bytes)":{"details":"Returns the amount of BPT that would be granted to `recipient` if the `onJoinPool` hook were called by the Vault with the same arguments, along with the number of tokens `sender` would have to supply. This function is not meant to be called directly, but rather from a helper contract that fetches current Vault data, such as the protocol swap fee percentage and Pool balances. Like `IVault.queryBatchSwap`, this function is not view due to internal implementation details: the caller must explicitly use eth_call instead of eth_sendTransaction."},"symbol()":{"details":"Returns the symbol of the token, usually a shorter version of the name."},"totalSupply()":{"details":"See {IERC20-totalSupply}."},"transfer(address,uint256)":{"details":"See {IERC20-transfer}. Requirements: - `recipient` cannot be the zero address. - the caller must have a balance of at least `amount`."},"transferFrom(address,address,uint256)":{"details":"Override to allow for 'infinite allowance' and let the token owner use `transferFrom` with no self-allowance"}},"version":1},"opcodes":"PUSH1 0x80 PUSH1 0x40 MSTORE CALLVALUE DUP1 ISZERO PUSH2 0x10 JUMPI PUSH1 0x0 DUP1 REVERT JUMPDEST POP PUSH1 0x4 CALLDATASIZE LT PUSH2 0x2A0 JUMPI PUSH1 0x0 CALLDATALOAD PUSH1 0xE0 SHR DUP1 PUSH4 0x707DCD1E GT PUSH2 0x167 JUMPI DUP1 PUSH4 0x9D2C110C GT PUSH2 0xCE JUMPI DUP1 PUSH4 0xC0FF1A15 GT PUSH2 0x87 JUMPI DUP1 PUSH4 0xC0FF1A15 EQ PUSH2 0x8B9 JUMPI DUP1 PUSH4 0xD505ACCF EQ PUSH2 0x8D7 JUMPI DUP1 PUSH4 0xD5C096C4 EQ PUSH2 0x8F3 JUMPI DUP1 PUSH4 0xDD62ED3E EQ PUSH2 0x924 JUMPI DUP1 PUSH4 0xF89F27ED EQ PUSH2 0x954 JUMPI DUP1 PUSH4 0xFFD088EB EQ PUSH2 0x972 JUMPI PUSH2 0x2A0 JUMP JUMPDEST DUP1 PUSH4 0x9D2C110C EQ PUSH2 0x7BD JUMPI DUP1 PUSH4 0xA457C2D7 EQ PUSH2 0x7ED JUMPI DUP1 PUSH4 0xA9059CBB EQ PUSH2 0x81D JUMPI DUP1 PUSH4 0xAAABADC5 EQ PUSH2 0x84D JUMPI DUP1 PUSH4 0xB10BE739 EQ PUSH2 0x86B JUMPI DUP1 PUSH4 0xB48B5B40 EQ PUSH2 0x89B JUMPI PUSH2 0x2A0 JUMP JUMPDEST DUP1 PUSH4 0x87EC6817 GT PUSH2 0x120 JUMPI DUP1 PUSH4 0x87EC6817 EQ PUSH2 0x6F6 JUMPI DUP1 PUSH4 0x893D20E8 EQ PUSH2 0x727 JUMPI DUP1 PUSH4 0x8D928AF8 EQ PUSH2 0x745 JUMPI DUP1 PUSH4 0x8DD9F89D EQ PUSH2 0x763 JUMPI DUP1 PUSH4 0x95D89B41 EQ PUSH2 0x781 JUMPI DUP1 PUSH4 0x9B02CDDE EQ PUSH2 0x79F JUMPI PUSH2 0x2A0 JUMP JUMPDEST DUP1 PUSH4 0x707DCD1E EQ PUSH2 0x5FB JUMPI DUP1 PUSH4 0x70A08231 EQ PUSH2 0x619 JUMPI DUP1 PUSH4 0x74F3B009 EQ PUSH2 0x649 JUMPI DUP1 PUSH4 0x76E54A46 EQ PUSH2 0x67A JUMPI DUP1 PUSH4 0x7ECEBE00 EQ PUSH2 0x696 JUMPI DUP1 PUSH4 0x851C1BB3 EQ PUSH2 0x6C6 JUMPI PUSH2 0x2A0 JUMP JUMPDEST DUP1 PUSH4 0x38FFF2D0 GT PUSH2 0x20B JUMPI DUP1 PUSH4 0x55C67628 GT PUSH2 0x1C4 JUMPI DUP1 PUSH4 0x55C67628 EQ PUSH2 0x50A JUMPI DUP1 PUSH4 0x6028BFD4 EQ PUSH2 0x528 JUMPI DUP1 PUSH4 0x60D1507C EQ PUSH2 0x559 JUMPI DUP1 PUSH4 0x679AEFCE EQ PUSH2 0x58F JUMPI DUP1 PUSH4 0x6B843239 EQ PUSH2 0x5AD JUMPI DUP1 PUSH4 0x6D785A87 EQ PUSH2 0x5DD JUMPI PUSH2 0x2A0 JUMP JUMPDEST DUP1 PUSH4 0x38FFF2D0 EQ PUSH2 0x42B JUMPI DUP1 PUSH4 0x39509351 EQ PUSH2 0x449 JUMPI DUP1 PUSH4 0x3AEAE0D3 EQ PUSH2 0x479 JUMPI DUP1 PUSH4 0x3C4DD5BB EQ PUSH2 0x497 JUMPI DUP1 PUSH4 0x44BBDB55 EQ PUSH2 0x4C9 JUMPI DUP1 PUSH4 0x4A6B0B15 EQ PUSH2 0x4E7 JUMPI PUSH2 0x2A0 JUMP JUMPDEST DUP1 PUSH4 0x23B872DD GT PUSH2 0x25D JUMPI DUP1 PUSH4 0x23B872DD EQ PUSH2 0x37D JUMPI DUP1 PUSH4 0x292C914A EQ PUSH2 0x3AD JUMPI DUP1 PUSH4 0x313CE567 EQ PUSH2 0x3B7 JUMPI DUP1 PUSH4 0x3331BC36 EQ PUSH2 0x3D5 JUMPI DUP1 PUSH4 0x3644E515 EQ PUSH2 0x3F1 JUMPI DUP1 PUSH4 0x38E9922E EQ PUSH2 0x40F JUMPI PUSH2 0x2A0 JUMP JUMPDEST DUP1 PUSH4 0x6FDDE03 EQ PUSH2 0x2A5 JUMPI DUP1 PUSH4 0x95EA7B3 EQ PUSH2 0x2C3 JUMPI DUP1 PUSH4 0x16C38B3C EQ PUSH2 0x2F3 JUMPI DUP1 PUSH4 0x18160DDD EQ PUSH2 0x30F JUMPI DUP1 PUSH4 0x1C0DE051 EQ PUSH2 0x32D JUMPI DUP1 PUSH4 0x1DCCD830 EQ PUSH2 0x34D JUMPI JUMPDEST PUSH1 0x0 DUP1 REVERT JUMPDEST PUSH2 0x2AD PUSH2 0x990 JUMP JUMPDEST PUSH1 0x40 MLOAD PUSH2 0x2BA SWAP2 SWAP1 PUSH2 0x7617 JUMP JUMPDEST PUSH1 0x40 MLOAD DUP1 SWAP2 SUB SWAP1 RETURN JUMPDEST PUSH2 0x2DD PUSH1 0x4 DUP1 CALLDATASIZE SUB DUP2 ADD SWAP1 PUSH2 0x2D8 SWAP2 SWAP1 PUSH2 0x6805 JUMP JUMPDEST PUSH2 0xA32 JUMP JUMPDEST PUSH1 0x40 MLOAD PUSH2 0x2EA SWAP2 SWAP1 PUSH2 0x72A6 JUMP JUMPDEST PUSH1 0x40 MLOAD DUP1 SWAP2 SUB SWAP1 RETURN JUMPDEST PUSH2 0x30D PUSH1 0x4 DUP1 CALLDATASIZE SUB DUP2 ADD SWAP1 PUSH2 0x308 SWAP2 SWAP1 PUSH2 0x6942 JUMP JUMPDEST PUSH2 0xA49 JUMP JUMPDEST STOP JUMPDEST PUSH2 0x317 PUSH2 0xA5D JUMP JUMPDEST PUSH1 0x40 MLOAD PUSH2 0x324 SWAP2 SWAP1 PUSH2 0x7674 JUMP JUMPDEST PUSH1 0x40 MLOAD DUP1 SWAP2 SUB SWAP1 RETURN JUMPDEST PUSH2 0x335 PUSH2 0xA67 JUMP JUMPDEST PUSH1 0x40 MLOAD PUSH2 0x344 SWAP4 SWAP3 SWAP2 SWAP1 PUSH2 0x72C1 JUMP JUMPDEST PUSH1 0x40 MLOAD DUP1 SWAP2 SUB SWAP1 RETURN JUMPDEST PUSH2 0x367 PUSH1 0x4 DUP1 CALLDATASIZE SUB DUP2 ADD SWAP1 PUSH2 0x362 SWAP2 SWAP1 PUSH2 0x6901 JUMP JUMPDEST PUSH2 0xA90 JUMP JUMPDEST PUSH1 0x40 MLOAD PUSH2 0x374 SWAP2 SWAP1 PUSH2 0x724D JUMP JUMPDEST PUSH1 0x40 MLOAD DUP1 SWAP2 SUB SWAP1 RETURN JUMPDEST PUSH2 0x397 PUSH1 0x4 DUP1 CALLDATASIZE SUB DUP2 ADD SWAP1 PUSH2 0x392 SWAP2 SWAP1 PUSH2 0x6718 JUMP JUMPDEST PUSH2 0xBBD JUMP JUMPDEST PUSH1 0x40 MLOAD PUSH2 0x3A4 SWAP2 SWAP1 PUSH2 0x72A6 JUMP JUMPDEST PUSH1 0x40 MLOAD DUP1 SWAP2 SUB SWAP1 RETURN JUMPDEST PUSH2 0x3B5 PUSH2 0xC97 JUMP JUMPDEST STOP JUMPDEST PUSH2 0x3BF PUSH2 0xCCC JUMP JUMPDEST PUSH1 0x40 MLOAD PUSH2 0x3CC SWAP2 SWAP1 PUSH2 0x76F6 JUMP JUMPDEST PUSH1 0x40 MLOAD DUP1 SWAP2 SUB SWAP1 RETURN JUMPDEST PUSH2 0x3EF PUSH1 0x4 DUP1 CALLDATASIZE SUB DUP2 ADD SWAP1 PUSH2 0x3EA SWAP2 SWAP1 PUSH2 0x6D06 JUMP JUMPDEST PUSH2 0xCE3 JUMP JUMPDEST STOP JUMPDEST PUSH2 0x3F9 PUSH2 0xD73 JUMP JUMPDEST PUSH1 0x40 MLOAD PUSH2 0x406 SWAP2 SWAP1 PUSH2 0x72F8 JUMP JUMPDEST PUSH1 0x40 MLOAD DUP1 SWAP2 SUB SWAP1 RETURN JUMPDEST PUSH2 0x429 PUSH1 0x4 DUP1 CALLDATASIZE SUB DUP2 ADD SWAP1 PUSH2 0x424 SWAP2 SWAP1 PUSH2 0x6CB4 JUMP JUMPDEST PUSH2 0xD82 JUMP JUMPDEST STOP JUMPDEST PUSH2 0x433 PUSH2 0xD9E JUMP JUMPDEST PUSH1 0x40 MLOAD PUSH2 0x440 SWAP2 SWAP1 PUSH2 0x72F8 JUMP JUMPDEST PUSH1 0x40 MLOAD DUP1 SWAP2 SUB SWAP1 RETURN JUMPDEST PUSH2 0x463 PUSH1 0x4 DUP1 CALLDATASIZE SUB DUP2 ADD SWAP1 PUSH2 0x45E SWAP2 SWAP1 PUSH2 0x6805 JUMP JUMPDEST PUSH2 0xDC6 JUMP JUMPDEST PUSH1 0x40 MLOAD PUSH2 0x470 SWAP2 SWAP1 PUSH2 0x72A6 JUMP JUMPDEST PUSH1 0x40 MLOAD DUP1 SWAP2 SUB SWAP1 RETURN JUMPDEST PUSH2 0x481 PUSH2 0xE6B JUMP JUMPDEST PUSH1 0x40 MLOAD PUSH2 0x48E SWAP2 SWAP1 PUSH2 0x7659 JUMP JUMPDEST PUSH1 0x40 MLOAD DUP1 SWAP2 SUB SWAP1 RETURN JUMPDEST PUSH2 0x4B1 PUSH1 0x4 DUP1 CALLDATASIZE SUB DUP2 ADD SWAP1 PUSH2 0x4AC SWAP2 SWAP1 PUSH2 0x6D42 JUMP JUMPDEST PUSH2 0xF31 JUMP JUMPDEST PUSH1 0x40 MLOAD PUSH2 0x4C0 SWAP4 SWAP3 SWAP2 SWAP1 PUSH2 0x76BF JUMP JUMPDEST PUSH1 0x40 MLOAD DUP1 SWAP2 SUB SWAP1 RETURN JUMPDEST PUSH2 0x4D1 PUSH2 0xF84 JUMP JUMPDEST PUSH1 0x40 MLOAD PUSH2 0x4DE SWAP2 SWAP1 PUSH2 0x745E JUMP JUMPDEST PUSH1 0x40 MLOAD DUP1 SWAP2 SUB SWAP1 RETURN JUMPDEST PUSH2 0x4EF PUSH2 0xFAA JUMP JUMPDEST PUSH1 0x40 MLOAD PUSH2 0x501 SWAP7 SWAP6 SWAP5 SWAP4 SWAP3 SWAP2 SWAP1 PUSH2 0x7503 JUMP JUMPDEST PUSH1 0x40 MLOAD DUP1 SWAP2 SUB SWAP1 RETURN JUMPDEST PUSH2 0x512 PUSH2 0x1005 JUMP JUMPDEST PUSH1 0x40 MLOAD PUSH2 0x51F SWAP2 SWAP1 PUSH2 0x7674 JUMP JUMPDEST PUSH1 0x40 MLOAD DUP1 SWAP2 SUB SWAP1 RETURN JUMPDEST PUSH2 0x542 PUSH1 0x4 DUP1 CALLDATASIZE SUB DUP2 ADD SWAP1 PUSH2 0x53D SWAP2 SWAP1 PUSH2 0x6994 JUMP JUMPDEST PUSH2 0x1017 JUMP JUMPDEST PUSH1 0x40 MLOAD PUSH2 0x550 SWAP3 SWAP2 SWAP1 PUSH2 0x768F JUMP JUMPDEST PUSH1 0x40 MLOAD DUP1 SWAP2 SUB SWAP1 RETURN JUMPDEST PUSH2 0x573 PUSH1 0x4 DUP1 CALLDATASIZE SUB DUP2 ADD SWAP1 PUSH2 0x56E SWAP2 SWAP1 PUSH2 0x6CB4 JUMP JUMPDEST PUSH2 0x1048 JUMP JUMPDEST PUSH1 0x40 MLOAD PUSH2 0x586 SWAP8 SWAP7 SWAP6 SWAP5 SWAP4 SWAP3 SWAP2 SWAP1 PUSH2 0x7494 JUMP JUMPDEST PUSH1 0x40 MLOAD DUP1 SWAP2 SUB SWAP1 RETURN JUMPDEST PUSH2 0x597 PUSH2 0x1093 JUMP JUMPDEST PUSH1 0x40 MLOAD PUSH2 0x5A4 SWAP2 SWAP1 PUSH2 0x7674 JUMP JUMPDEST PUSH1 0x40 MLOAD DUP1 SWAP2 SUB SWAP1 RETURN JUMPDEST PUSH2 0x5C7 PUSH1 0x4 DUP1 CALLDATASIZE SUB DUP2 ADD SWAP1 PUSH2 0x5C2 SWAP2 SWAP1 PUSH2 0x68C0 JUMP JUMPDEST PUSH2 0x10C5 JUMP JUMPDEST PUSH1 0x40 MLOAD PUSH2 0x5D4 SWAP2 SWAP1 PUSH2 0x7210 JUMP JUMPDEST PUSH1 0x40 MLOAD DUP1 SWAP2 SUB SWAP1 RETURN JUMPDEST PUSH2 0x5E5 PUSH2 0x1185 JUMP JUMPDEST PUSH1 0x40 MLOAD PUSH2 0x5F2 SWAP2 SWAP1 PUSH2 0x71F5 JUMP JUMPDEST PUSH1 0x40 MLOAD DUP1 SWAP2 SUB SWAP1 RETURN JUMPDEST PUSH2 0x603 PUSH2 0x11AB JUMP JUMPDEST PUSH1 0x40 MLOAD PUSH2 0x610 SWAP2 SWAP1 PUSH2 0x7232 JUMP JUMPDEST PUSH1 0x40 MLOAD DUP1 SWAP2 SUB SWAP1 RETURN JUMPDEST PUSH2 0x633 PUSH1 0x4 DUP1 CALLDATASIZE SUB DUP2 ADD SWAP1 PUSH2 0x62E SWAP2 SWAP1 PUSH2 0x668A JUMP JUMPDEST PUSH2 0x11C0 JUMP JUMPDEST PUSH1 0x40 MLOAD PUSH2 0x640 SWAP2 SWAP1 PUSH2 0x7674 JUMP JUMPDEST PUSH1 0x40 MLOAD DUP1 SWAP2 SUB SWAP1 RETURN JUMPDEST PUSH2 0x663 PUSH1 0x4 DUP1 CALLDATASIZE SUB DUP2 ADD SWAP1 PUSH2 0x65E SWAP2 SWAP1 PUSH2 0x6994 JUMP JUMPDEST PUSH2 0x1208 JUMP JUMPDEST PUSH1 0x40 MLOAD PUSH2 0x671 SWAP3 SWAP2 SWAP1 PUSH2 0x726F JUMP JUMPDEST PUSH1 0x40 MLOAD DUP1 SWAP2 SUB SWAP1 RETURN JUMPDEST PUSH2 0x694 PUSH1 0x4 DUP1 CALLDATASIZE SUB DUP2 ADD SWAP1 PUSH2 0x68F SWAP2 SWAP1 PUSH2 0x6C24 JUMP JUMPDEST PUSH2 0x12CC JUMP JUMPDEST STOP JUMPDEST PUSH2 0x6B0 PUSH1 0x4 DUP1 CALLDATASIZE SUB DUP2 ADD SWAP1 PUSH2 0x6AB SWAP2 SWAP1 PUSH2 0x668A JUMP JUMPDEST PUSH2 0x14C2 JUMP JUMPDEST PUSH1 0x40 MLOAD PUSH2 0x6BD SWAP2 SWAP1 PUSH2 0x7674 JUMP JUMPDEST PUSH1 0x40 MLOAD DUP1 SWAP2 SUB SWAP1 RETURN JUMPDEST PUSH2 0x6E0 PUSH1 0x4 DUP1 CALLDATASIZE SUB DUP2 ADD SWAP1 PUSH2 0x6DB SWAP2 SWAP1 PUSH2 0x6A62 JUMP JUMPDEST PUSH2 0x150B JUMP JUMPDEST PUSH1 0x40 MLOAD PUSH2 0x6ED SWAP2 SWAP1 PUSH2 0x72F8 JUMP JUMPDEST PUSH1 0x40 MLOAD DUP1 SWAP2 SUB SWAP1 RETURN JUMPDEST PUSH2 0x710 PUSH1 0x4 DUP1 CALLDATASIZE SUB DUP2 ADD SWAP1 PUSH2 0x70B SWAP2 SWAP1 PUSH2 0x6994 JUMP JUMPDEST PUSH2 0x155D JUMP JUMPDEST PUSH1 0x40 MLOAD PUSH2 0x71E SWAP3 SWAP2 SWAP1 PUSH2 0x768F JUMP JUMPDEST PUSH1 0x40 MLOAD DUP1 SWAP2 SUB SWAP1 RETURN JUMPDEST PUSH2 0x72F PUSH2 0x158E JUMP JUMPDEST PUSH1 0x40 MLOAD PUSH2 0x73C SWAP2 SWAP1 PUSH2 0x71F5 JUMP JUMPDEST PUSH1 0x40 MLOAD DUP1 SWAP2 SUB SWAP1 RETURN JUMPDEST PUSH2 0x74D PUSH2 0x15B6 JUMP JUMPDEST PUSH1 0x40 MLOAD PUSH2 0x75A SWAP2 SWAP1 PUSH2 0x7479 JUMP JUMPDEST PUSH1 0x40 MLOAD DUP1 SWAP2 SUB SWAP1 RETURN JUMPDEST PUSH2 0x76B PUSH2 0x15DE JUMP JUMPDEST PUSH1 0x40 MLOAD PUSH2 0x778 SWAP2 SWAP1 PUSH2 0x724D JUMP JUMPDEST PUSH1 0x40 MLOAD DUP1 SWAP2 SUB SWAP1 RETURN JUMPDEST PUSH2 0x789 PUSH2 0x16F7 JUMP JUMPDEST PUSH1 0x40 MLOAD PUSH2 0x796 SWAP2 SWAP1 PUSH2 0x7617 JUMP JUMPDEST PUSH1 0x40 MLOAD DUP1 SWAP2 SUB SWAP1 RETURN JUMPDEST PUSH2 0x7A7 PUSH2 0x1799 JUMP JUMPDEST PUSH1 0x40 MLOAD PUSH2 0x7B4 SWAP2 SWAP1 PUSH2 0x7674 JUMP JUMPDEST PUSH1 0x40 MLOAD DUP1 SWAP2 SUB SWAP1 RETURN JUMPDEST PUSH2 0x7D7 PUSH1 0x4 DUP1 CALLDATASIZE SUB DUP2 ADD SWAP1 PUSH2 0x7D2 SWAP2 SWAP1 PUSH2 0x6C4D JUMP JUMPDEST PUSH2 0x17A3 JUMP JUMPDEST PUSH1 0x40 MLOAD PUSH2 0x7E4 SWAP2 SWAP1 PUSH2 0x7674 JUMP JUMPDEST PUSH1 0x40 MLOAD DUP1 SWAP2 SUB SWAP1 RETURN JUMPDEST PUSH2 0x807 PUSH1 0x4 DUP1 CALLDATASIZE SUB DUP2 ADD SWAP1 PUSH2 0x802 SWAP2 SWAP1 PUSH2 0x6805 JUMP JUMPDEST PUSH2 0x19E8 JUMP JUMPDEST PUSH1 0x40 MLOAD PUSH2 0x814 SWAP2 SWAP1 PUSH2 0x72A6 JUMP JUMPDEST PUSH1 0x40 MLOAD DUP1 SWAP2 SUB SWAP1 RETURN JUMPDEST PUSH2 0x837 PUSH1 0x4 DUP1 CALLDATASIZE SUB DUP2 ADD SWAP1 PUSH2 0x832 SWAP2 SWAP1 PUSH2 0x6805 JUMP JUMPDEST PUSH2 0x1A28 JUMP JUMPDEST PUSH1 0x40 MLOAD PUSH2 0x844 SWAP2 SWAP1 PUSH2 0x72A6 JUMP JUMPDEST PUSH1 0x40 MLOAD DUP1 SWAP2 SUB SWAP1 RETURN JUMPDEST PUSH2 0x855 PUSH2 0x1A3F JUMP JUMPDEST PUSH1 0x40 MLOAD PUSH2 0x862 SWAP2 SWAP1 PUSH2 0x7443 JUMP JUMPDEST PUSH1 0x40 MLOAD DUP1 SWAP2 SUB SWAP1 RETURN JUMPDEST PUSH2 0x885 PUSH1 0x4 DUP1 CALLDATASIZE SUB DUP2 ADD SWAP1 PUSH2 0x880 SWAP2 SWAP1 PUSH2 0x6BD2 JUMP JUMPDEST PUSH2 0x1A4E JUMP JUMPDEST PUSH1 0x40 MLOAD PUSH2 0x892 SWAP2 SWAP1 PUSH2 0x7674 JUMP JUMPDEST PUSH1 0x40 MLOAD DUP1 SWAP2 SUB SWAP1 RETURN JUMPDEST PUSH2 0x8A3 PUSH2 0x1AEA JUMP JUMPDEST PUSH1 0x40 MLOAD PUSH2 0x8B0 SWAP2 SWAP1 PUSH2 0x7674 JUMP JUMPDEST PUSH1 0x40 MLOAD DUP1 SWAP2 SUB SWAP1 RETURN JUMPDEST PUSH2 0x8C1 PUSH2 0x1AF4 JUMP JUMPDEST PUSH1 0x40 MLOAD PUSH2 0x8CE SWAP2 SWAP1 PUSH2 0x7674 JUMP JUMPDEST PUSH1 0x40 MLOAD DUP1 SWAP2 SUB SWAP1 RETURN JUMPDEST PUSH2 0x8F1 PUSH1 0x4 DUP1 CALLDATASIZE SUB DUP2 ADD SWAP1 PUSH2 0x8EC SWAP2 SWAP1 PUSH2 0x6767 JUMP JUMPDEST PUSH2 0x1BE7 JUMP JUMPDEST STOP JUMPDEST PUSH2 0x90D PUSH1 0x4 DUP1 CALLDATASIZE SUB DUP2 ADD SWAP1 PUSH2 0x908 SWAP2 SWAP1 PUSH2 0x6994 JUMP JUMPDEST PUSH2 0x1DC0 JUMP JUMPDEST PUSH1 0x40 MLOAD PUSH2 0x91B SWAP3 SWAP2 SWAP1 PUSH2 0x726F JUMP JUMPDEST PUSH1 0x40 MLOAD DUP1 SWAP2 SUB SWAP1 RETURN JUMPDEST PUSH2 0x93E PUSH1 0x4 DUP1 CALLDATASIZE SUB DUP2 ADD SWAP1 PUSH2 0x939 SWAP2 SWAP1 PUSH2 0x66DC JUMP JUMPDEST PUSH2 0x1F56 JUMP JUMPDEST PUSH1 0x40 MLOAD PUSH2 0x94B SWAP2 SWAP1 PUSH2 0x7674 JUMP JUMPDEST PUSH1 0x40 MLOAD DUP1 SWAP2 SUB SWAP1 RETURN JUMPDEST PUSH2 0x95C PUSH2 0x1FCE JUMP JUMPDEST PUSH1 0x40 MLOAD PUSH2 0x969 SWAP2 SWAP1 PUSH2 0x724D JUMP JUMPDEST PUSH1 0x40 MLOAD DUP1 SWAP2 SUB SWAP1 RETURN JUMPDEST PUSH2 0x97A PUSH2 0x1FDD JUMP JUMPDEST PUSH1 0x40 MLOAD PUSH2 0x987 SWAP2 SWAP1 PUSH2 0x7674 JUMP JUMPDEST PUSH1 0x40 MLOAD DUP1 SWAP2 SUB SWAP1 RETURN JUMPDEST PUSH1 0x60 PUSH1 0x3 DUP1 SLOAD PUSH1 0x1 DUP2 PUSH1 0x1 AND ISZERO PUSH2 0x100 MUL SUB AND PUSH1 0x2 SWAP1 DIV DUP1 PUSH1 0x1F ADD PUSH1 0x20 DUP1 SWAP2 DIV MUL PUSH1 0x20 ADD PUSH1 0x40 MLOAD SWAP1 DUP2 ADD PUSH1 0x40 MSTORE DUP1 SWAP3 SWAP2 SWAP1 DUP2 DUP2 MSTORE PUSH1 0x20 ADD DUP3 DUP1 SLOAD PUSH1 0x1 DUP2 PUSH1 0x1 AND ISZERO PUSH2 0x100 MUL SUB AND PUSH1 0x2 SWAP1 DIV DUP1 ISZERO PUSH2 0xA28 JUMPI DUP1 PUSH1 0x1F LT PUSH2 0x9FD JUMPI PUSH2 0x100 DUP1 DUP4 SLOAD DIV MUL DUP4 MSTORE SWAP2 PUSH1 0x20 ADD SWAP2 PUSH2 0xA28 JUMP JUMPDEST DUP3 ADD SWAP2 SWAP1 PUSH1 0x0 MSTORE PUSH1 0x20 PUSH1 0x0 KECCAK256 SWAP1 JUMPDEST DUP2 SLOAD DUP2 MSTORE SWAP1 PUSH1 0x1 ADD SWAP1 PUSH1 0x20 ADD DUP1 DUP4 GT PUSH2 0xA0B JUMPI DUP3 SWAP1 SUB PUSH1 0x1F AND DUP3 ADD SWAP2 JUMPDEST POP POP POP POP POP SWAP1 POP SWAP1 JUMP JUMPDEST PUSH1 0x0 PUSH2 0xA3F CALLER DUP5 DUP5 PUSH2 0x20BF JUMP JUMPDEST PUSH1 0x1 SWAP1 POP SWAP3 SWAP2 POP POP JUMP JUMPDEST PUSH2 0xA51 PUSH2 0x21AA JUMP JUMPDEST PUSH2 0xA5A DUP2 PUSH2 0x21F3 JUMP JUMPDEST POP JUMP JUMPDEST PUSH1 0x0 PUSH1 0x2 SLOAD SWAP1 POP SWAP1 JUMP JUMPDEST PUSH1 0x0 DUP1 PUSH1 0x0 PUSH2 0xA74 PUSH2 0x227D JUMP JUMPDEST ISZERO SWAP3 POP PUSH2 0xA7F PUSH2 0x22A6 JUMP JUMPDEST SWAP2 POP PUSH2 0xA89 PUSH2 0x22CE JUMP JUMPDEST SWAP1 POP SWAP1 SWAP2 SWAP3 JUMP JUMPDEST PUSH1 0x60 DUP2 MLOAD PUSH8 0xFFFFFFFFFFFFFFFF DUP2 GT DUP1 ISZERO PUSH2 0xAAA JUMPI PUSH1 0x0 DUP1 REVERT JUMPDEST POP PUSH1 0x40 MLOAD SWAP1 DUP1 DUP3 MSTORE DUP1 PUSH1 0x20 MUL PUSH1 0x20 ADD DUP3 ADD PUSH1 0x40 MSTORE DUP1 ISZERO PUSH2 0xAD9 JUMPI DUP2 PUSH1 0x20 ADD PUSH1 0x20 DUP3 MUL DUP1 CALLDATASIZE DUP4 CALLDATACOPY DUP1 DUP3 ADD SWAP2 POP POP SWAP1 POP JUMPDEST POP SWAP1 POP PUSH1 0x0 PUSH2 0xAE6 PUSH2 0x22F6 JUMP JUMPDEST SWAP1 POP PUSH1 0x0 JUMPDEST DUP4 MLOAD DUP2 LT ISZERO PUSH2 0xBB6 JUMPI PUSH20 0x0 PUSH4 0x79EAEF82 PUSH1 0x8 DUP7 DUP5 DUP2 MLOAD DUP2 LT PUSH2 0xB1C JUMPI INVALID JUMPDEST PUSH1 0x20 MUL PUSH1 0x20 ADD ADD MLOAD DUP6 PUSH1 0x40 MLOAD DUP5 PUSH4 0xFFFFFFFF AND PUSH1 0xE0 SHL DUP2 MSTORE PUSH1 0x4 ADD PUSH2 0xB43 SWAP4 SWAP3 SWAP2 SWAP1 PUSH2 0x75E0 JUMP JUMPDEST PUSH1 0x20 PUSH1 0x40 MLOAD DUP1 DUP4 SUB DUP2 DUP7 DUP1 EXTCODESIZE ISZERO DUP1 ISZERO PUSH2 0xB5B JUMPI PUSH1 0x0 DUP1 REVERT JUMPDEST POP GAS DELEGATECALL ISZERO DUP1 ISZERO PUSH2 0xB6F JUMPI RETURNDATASIZE PUSH1 0x0 DUP1 RETURNDATACOPY RETURNDATASIZE PUSH1 0x0 REVERT JUMPDEST POP POP POP POP PUSH1 0x40 MLOAD RETURNDATASIZE PUSH1 0x1F NOT PUSH1 0x1F DUP3 ADD AND DUP3 ADD DUP1 PUSH1 0x40 MSTORE POP DUP2 ADD SWAP1 PUSH2 0xB93 SWAP2 SWAP1 PUSH2 0x6CDD JUMP JUMPDEST DUP4 DUP3 DUP2 MLOAD DUP2 LT PUSH2 0xB9F JUMPI INVALID JUMPDEST PUSH1 0x20 MUL PUSH1 0x20 ADD ADD DUP2 DUP2 MSTORE POP POP DUP1 PUSH1 0x1 ADD SWAP1 POP PUSH2 0xAEB JUMP JUMPDEST POP POP SWAP2 SWAP1 POP JUMP JUMPDEST PUSH1 0x0 DUP1 PUSH2 0xBCA DUP6 CALLER PUSH2 0x1F56 JUMP JUMPDEST SWAP1 POP PUSH2 0xC11 DUP6 PUSH20 0xFFFFFFFFFFFFFFFFFFFFFFFFFFFFFFFFFFFFFFFF AND CALLER PUSH20 0xFFFFFFFFFFFFFFFFFFFFFFFFFFFFFFFFFFFFFFFF AND EQ DUP1 PUSH2 0xC09 JUMPI POP DUP4 DUP3 LT ISZERO JUMPDEST PUSH2 0x19E PUSH2 0x2308 JUMP JUMPDEST PUSH2 0xC1C DUP6 DUP6 DUP6 PUSH2 0x231B JUMP JUMPDEST DUP5 PUSH20 0xFFFFFFFFFFFFFFFFFFFFFFFFFFFFFFFFFFFFFFFF AND CALLER PUSH20 0xFFFFFFFFFFFFFFFFFFFFFFFFFFFFFFFFFFFFFFFF AND EQ ISZERO DUP1 ISZERO PUSH2 0xC78 JUMPI POP PUSH32 0xFFFFFFFFFFFFFFFFFFFFFFFFFFFFFFFFFFFFFFFFFFFFFFFFFFFFFFFFFFFFFFFF DUP2 EQ ISZERO JUMPDEST ISZERO PUSH2 0xC8B JUMPI PUSH2 0xC8A DUP6 CALLER DUP6 DUP5 SUB PUSH2 0x20BF JUMP JUMPDEST JUMPDEST PUSH1 0x1 SWAP2 POP POP SWAP4 SWAP3 POP POP POP JUMP JUMPDEST PUSH2 0xC9F PUSH2 0x2532 JUMP JUMPDEST PUSH2 0xCA7 PUSH2 0x21AA JUMP JUMPDEST PUSH2 0xCB1 PUSH1 0x1 PUSH2 0x2547 JUMP JUMPDEST PUSH1 0x0 PUSH2 0xCBB PUSH2 0xA5D JUMP JUMPDEST GT ISZERO PUSH2 0xCCA JUMPI PUSH2 0xCC9 PUSH2 0x259C JUMP JUMPDEST JUMPDEST JUMP JUMPDEST PUSH1 0x0 PUSH1 0x5 PUSH1 0x0 SWAP1 SLOAD SWAP1 PUSH2 0x100 EXP SWAP1 DIV PUSH1 0xFF AND SWAP1 POP SWAP1 JUMP JUMPDEST PUSH2 0xCFE DUP2 DUP4 LT DUP1 ISZERO PUSH2 0xCF7 JUMPI POP PUSH2 0x400 DUP3 GT ISZERO JUMPDEST PUSH1 0x64 PUSH2 0x2308 JUMP JUMPDEST PUSH1 0x0 PUSH2 0xD13 PUSH1 0x1 PUSH1 0x0 DUP1 PUSH1 0x0 DUP1 PUSH1 0x0 DUP1 PUSH2 0x25FF JUMP JUMPDEST SWAP1 POP PUSH1 0x0 DUP4 SWAP1 POP JUMPDEST DUP3 DUP2 LT ISZERO PUSH2 0xD6D JUMPI PUSH1 0x0 PUSH2 0xD41 PUSH1 0x8 PUSH1 0x0 DUP5 DUP2 MSTORE PUSH1 0x20 ADD SWAP1 DUP2 MSTORE PUSH1 0x20 ADD PUSH1 0x0 KECCAK256 SLOAD PUSH2 0x26A0 JUMP JUMPDEST EQ ISZERO PUSH2 0xD60 JUMPI DUP2 PUSH1 0x8 PUSH1 0x0 DUP4 DUP2 MSTORE PUSH1 0x20 ADD SWAP1 DUP2 MSTORE PUSH1 0x20 ADD PUSH1 0x0 KECCAK256 DUP2 SWAP1 SSTORE POP JUMPDEST DUP1 DUP1 PUSH1 0x1 ADD SWAP2 POP POP PUSH2 0xD1B JUMP JUMPDEST POP POP POP POP JUMP JUMPDEST PUSH1 0x0 PUSH2 0xD7D PUSH2 0x26BD JUMP JUMPDEST SWAP1 POP SWAP1 JUMP JUMPDEST PUSH2 0xD8A PUSH2 0x21AA JUMP JUMPDEST PUSH2 0xD92 PUSH2 0x2532 JUMP JUMPDEST PUSH2 0xD9B DUP2 PUSH2 0x275A JUMP JUMPDEST POP JUMP JUMPDEST PUSH1 0x0 PUSH32 0x0 SWAP1 POP SWAP1 JUMP JUMPDEST PUSH1 0x0 PUSH2 0xE61 CALLER DUP5 PUSH2 0xE5C DUP6 PUSH1 0x1 PUSH1 0x0 CALLER PUSH20 0xFFFFFFFFFFFFFFFFFFFFFFFFFFFFFFFFFFFFFFFF AND PUSH20 0xFFFFFFFFFFFFFFFFFFFFFFFFFFFFFFFFFFFFFFFF AND DUP2 MSTORE PUSH1 0x20 ADD SWAP1 DUP2 MSTORE PUSH1 0x20 ADD PUSH1 0x0 KECCAK256 PUSH1 0x0 DUP10 PUSH20 0xFFFFFFFFFFFFFFFFFFFFFFFFFFFFFFFFFFFFFFFF AND PUSH20 0xFFFFFFFFFFFFFFFFFFFFFFFFFFFFFFFFFFFFFFFF AND DUP2 MSTORE PUSH1 0x20 ADD SWAP1 DUP2 MSTORE PUSH1 0x20 ADD PUSH1 0x0 KECCAK256 SLOAD PUSH2 0x27D8 SWAP1 SWAP2 SWAP1 PUSH4 0xFFFFFFFF AND JUMP JUMPDEST PUSH2 0x20BF JUMP JUMPDEST PUSH1 0x1 SWAP1 POP SWAP3 SWAP2 POP POP JUMP JUMPDEST PUSH2 0xE73 PUSH2 0x5F8B JUMP JUMPDEST PUSH1 0xB PUSH1 0x40 MLOAD DUP1 PUSH1 0x60 ADD PUSH1 0x40 MSTORE SWAP1 DUP2 PUSH1 0x0 DUP3 ADD PUSH1 0x0 SWAP1 SLOAD SWAP1 PUSH2 0x100 EXP SWAP1 DIV PUSH1 0xFF AND ISZERO ISZERO ISZERO ISZERO DUP2 MSTORE PUSH1 0x20 ADD PUSH1 0x0 DUP3 ADD PUSH1 0x1 SWAP1 SLOAD SWAP1 PUSH2 0x100 EXP SWAP1 DIV PUSH15 0xFFFFFFFFFFFFFFFFFFFFFFFFFFFFFF AND PUSH15 0xFFFFFFFFFFFFFFFFFFFFFFFFFFFFFF AND PUSH15 0xFFFFFFFFFFFFFFFFFFFFFFFFFFFFFF AND DUP2 MSTORE PUSH1 0x20 ADD PUSH1 0x0 DUP3 ADD PUSH1 0x10 SWAP1 SLOAD SWAP1 PUSH2 0x100 EXP SWAP1 DIV PUSH16 0xFFFFFFFFFFFFFFFFFFFFFFFFFFFFFFFF AND PUSH16 0xFFFFFFFFFFFFFFFFFFFFFFFFFFFFFFFF AND PUSH16 0xFFFFFFFFFFFFFFFFFFFFFFFFFFFFFFFF AND DUP2 MSTORE POP POP SWAP1 POP SWAP1 JUMP JUMPDEST PUSH1 0x0 DUP1 PUSH1 0x0 DUP1 PUSH2 0xF40 DUP6 PUSH2 0x27F8 JUMP JUMPDEST SWAP1 POP PUSH1 0x0 PUSH2 0xF4E DUP7 ISZERO PUSH2 0x27F8 JUMP JUMPDEST SWAP1 POP PUSH2 0xF5A DUP9 DUP4 PUSH2 0x284E JUMP JUMPDEST SWAP8 POP PUSH2 0xF66 DUP8 DUP3 PUSH2 0x284E JUMP JUMPDEST SWAP7 POP PUSH2 0xF73 DUP9 DUP9 DUP9 PUSH2 0x2862 JUMP JUMPDEST SWAP5 POP SWAP5 POP SWAP5 POP POP POP SWAP4 POP SWAP4 POP SWAP4 SWAP1 POP JUMP JUMPDEST PUSH1 0xD PUSH1 0x0 SWAP1 SLOAD SWAP1 PUSH2 0x100 EXP SWAP1 DIV PUSH20 0xFFFFFFFFFFFFFFFFFFFFFFFFFFFFFFFFFFFFFFFF AND DUP2 JUMP JUMPDEST PUSH1 0x0 DUP1 PUSH1 0x0 DUP1 PUSH1 0x0 DUP1 PUSH1 0x0 PUSH1 0x9 SLOAD SWAP1 POP PUSH2 0xFC3 DUP2 PUSH2 0x29C2 JUMP JUMPDEST SWAP7 POP PUSH2 0xFCE DUP2 PUSH2 0x29DF JUMP JUMPDEST SWAP6 POP PUSH2 0xFD9 DUP2 PUSH2 0x29FC JUMP JUMPDEST SWAP5 POP PUSH2 0xFE4 DUP2 PUSH2 0x2A19 JUMP JUMPDEST SWAP4 POP PUSH2 0xFEF DUP2 PUSH2 0x2A36 JUMP JUMPDEST SWAP3 POP PUSH2 0xFFA DUP2 PUSH2 0x2A53 JUMP JUMPDEST SWAP2 POP POP SWAP1 SWAP2 SWAP3 SWAP4 SWAP5 SWAP6 JUMP JUMPDEST PUSH1 0x0 PUSH2 0x1012 PUSH1 0x9 SLOAD PUSH2 0x2A53 JUMP JUMPDEST SWAP1 POP SWAP1 JUMP JUMPDEST PUSH1 0x0 PUSH1 0x60 PUSH2 0x1027 DUP7 MLOAD PUSH1 0x2 PUSH2 0x2A70 JUMP JUMPDEST PUSH2 0x103C DUP10 DUP10 DUP10 DUP10 DUP10 DUP10 DUP10 PUSH2 0x2A81 PUSH2 0x2C15 PUSH2 0x2C98 JUMP JUMPDEST SWAP8 POP SWAP8 SWAP6 POP POP POP POP POP POP JUMP JUMPDEST PUSH1 0x0 DUP1 PUSH1 0x0 DUP1 PUSH1 0x0 DUP1 PUSH1 0x0 PUSH2 0x1063 PUSH2 0x400 DUP10 LT PUSH2 0x13B PUSH2 0x2308 JUMP JUMPDEST PUSH1 0x0 PUSH2 0x106E DUP10 PUSH2 0x2E18 JUMP JUMPDEST SWAP1 POP PUSH2 0x1079 DUP2 PUSH2 0x2E35 JUMP JUMPDEST SWAP8 POP SWAP8 POP SWAP8 POP SWAP8 POP SWAP8 POP SWAP8 POP SWAP8 POP POP SWAP2 SWAP4 SWAP6 SWAP8 SWAP1 SWAP3 SWAP5 SWAP7 POP JUMP JUMPDEST PUSH1 0x0 PUSH2 0x10C0 PUSH2 0x10A0 PUSH2 0xA5D JUMP JUMPDEST PUSH2 0x10B2 PUSH2 0x10AB PUSH2 0x1AF4 JUMP JUMPDEST PUSH1 0x2 PUSH2 0x2E98 JUMP JUMPDEST PUSH2 0x2ECB SWAP1 SWAP2 SWAP1 PUSH4 0xFFFFFFFF AND JUMP JUMPDEST SWAP1 POP SWAP1 JUMP JUMPDEST PUSH1 0x60 DUP2 MLOAD PUSH8 0xFFFFFFFFFFFFFFFF DUP2 GT DUP1 ISZERO PUSH2 0x10DF JUMPI PUSH1 0x0 DUP1 REVERT JUMPDEST POP PUSH1 0x40 MLOAD SWAP1 DUP1 DUP3 MSTORE DUP1 PUSH1 0x20 MUL PUSH1 0x20 ADD DUP3 ADD PUSH1 0x40 MSTORE DUP1 ISZERO PUSH2 0x110E JUMPI DUP2 PUSH1 0x20 ADD PUSH1 0x20 DUP3 MUL DUP1 CALLDATASIZE DUP4 CALLDATACOPY DUP1 DUP3 ADD SWAP2 POP POP SWAP1 POP JUMPDEST POP SWAP1 POP PUSH1 0x0 PUSH2 0x111B PUSH2 0x22F6 JUMP JUMPDEST SWAP1 POP PUSH2 0x1125 PUSH2 0x5FD1 JUMP JUMPDEST PUSH1 0x0 JUMPDEST DUP5 MLOAD DUP2 LT ISZERO PUSH2 0x117D JUMPI DUP5 DUP2 DUP2 MLOAD DUP2 LT PUSH2 0x113D JUMPI INVALID JUMPDEST PUSH1 0x20 MUL PUSH1 0x20 ADD ADD MLOAD SWAP2 POP PUSH2 0x115A DUP3 PUSH1 0x0 ADD MLOAD DUP5 DUP5 PUSH1 0x20 ADD MLOAD PUSH2 0x2F2F JUMP JUMPDEST DUP5 DUP3 DUP2 MLOAD DUP2 LT PUSH2 0x1166 JUMPI INVALID JUMPDEST PUSH1 0x20 MUL PUSH1 0x20 ADD ADD DUP2 DUP2 MSTORE POP POP DUP1 PUSH1 0x1 ADD SWAP1 POP PUSH2 0x1128 JUMP JUMPDEST POP POP POP SWAP2 SWAP1 POP JUMP JUMPDEST PUSH1 0xC PUSH1 0x0 SWAP1 SLOAD SWAP1 PUSH2 0x100 EXP SWAP1 DIV PUSH20 0xFFFFFFFFFFFFFFFFFFFFFFFFFFFFFFFFFFFFFFFF AND DUP2 JUMP JUMPDEST PUSH2 0x11B3 PUSH2 0x5FF6 JUMP JUMPDEST PUSH2 0x11BB PUSH2 0x2FC8 JUMP JUMPDEST SWAP1 POP SWAP1 JUMP JUMPDEST PUSH1 0x0 DUP1 PUSH1 0x0 DUP4 PUSH20 0xFFFFFFFFFFFFFFFFFFFFFFFFFFFFFFFFFFFFFFFF AND PUSH20 0xFFFFFFFFFFFFFFFFFFFFFFFFFFFFFFFFFFFFFFFF AND DUP2 MSTORE PUSH1 0x20 ADD SWAP1 DUP2 MSTORE PUSH1 0x20 ADD PUSH1 0x0 KECCAK256 SLOAD SWAP1 POP SWAP2 SWAP1 POP JUMP JUMPDEST PUSH1 0x60 DUP1 DUP9 PUSH2 0x124C PUSH2 0x1217 PUSH2 0x15B6 JUMP JUMPDEST PUSH20 0xFFFFFFFFFFFFFFFFFFFFFFFFFFFFFFFFFFFFFFFF AND CALLER PUSH20 0xFFFFFFFFFFFFFFFFFFFFFFFFFFFFFFFFFFFFFFFF AND EQ PUSH1 0xCD PUSH2 0x2308 JUMP JUMPDEST PUSH2 0x1261 PUSH2 0x1257 PUSH2 0xD9E JUMP JUMPDEST DUP3 EQ PUSH2 0x1F4 PUSH2 0x2308 JUMP JUMPDEST PUSH2 0x126A DUP8 PUSH2 0x3013 JUMP JUMPDEST PUSH1 0x0 PUSH1 0x60 DUP1 PUSH2 0x127E DUP14 DUP14 DUP14 DUP14 DUP14 DUP14 DUP14 PUSH2 0x2A81 JUMP JUMPDEST SWAP3 POP SWAP3 POP SWAP3 POP PUSH2 0x128E DUP13 DUP5 PUSH2 0x3096 JUMP JUMPDEST PUSH2 0x1297 DUP3 PUSH2 0x2C15 JUMP JUMPDEST PUSH2 0x12A0 DUP2 PUSH2 0x2C15 JUMP JUMPDEST PUSH2 0x12A8 PUSH2 0x227D JUMP JUMPDEST ISZERO PUSH2 0x12B6 JUMPI PUSH2 0x12B5 PUSH2 0x259C JUMP JUMPDEST JUMPDEST DUP2 DUP2 SWAP6 POP SWAP6 POP POP POP POP POP SWAP8 POP SWAP8 SWAP6 POP POP POP POP POP POP JUMP JUMPDEST PUSH1 0xC PUSH1 0x0 SWAP1 SLOAD SWAP1 PUSH2 0x100 EXP SWAP1 DIV PUSH20 0xFFFFFFFFFFFFFFFFFFFFFFFFFFFFFFFFFFFFFFFF AND PUSH20 0xFFFFFFFFFFFFFFFFFFFFFFFFFFFFFFFFFFFFFFFF AND CALLER PUSH20 0xFFFFFFFFFFFFFFFFFFFFFFFFFFFFFFFFFFFFFFFF AND EQ PUSH1 0x40 MLOAD DUP1 PUSH1 0x40 ADD PUSH1 0x40 MSTORE DUP1 PUSH1 0xE DUP2 MSTORE PUSH1 0x20 ADD PUSH32 0x6E6F7420617574686F72697A6564000000000000000000000000000000000000 DUP2 MSTORE POP SWAP1 PUSH2 0x1394 JUMPI PUSH1 0x40 MLOAD PUSH32 0x8C379A000000000000000000000000000000000000000000000000000000000 DUP2 MSTORE PUSH1 0x4 ADD PUSH2 0x138B SWAP2 SWAP1 PUSH2 0x7617 JUMP JUMPDEST PUSH1 0x40 MLOAD DUP1 SWAP2 SUB SWAP1 REVERT JUMPDEST POP PUSH1 0xB PUSH1 0x0 ADD PUSH1 0x0 SWAP1 SLOAD SWAP1 PUSH2 0x100 EXP SWAP1 DIV PUSH1 0xFF AND PUSH1 0x40 MLOAD DUP1 PUSH1 0x40 ADD PUSH1 0x40 MSTORE DUP1 PUSH1 0x10 DUP2 MSTORE PUSH1 0x20 ADD PUSH32 0x706F6F6C20697320756E63617070656400000000000000000000000000000000 DUP2 MSTORE POP SWAP1 PUSH2 0x141F JUMPI PUSH1 0x40 MLOAD PUSH32 0x8C379A000000000000000000000000000000000000000000000000000000000 DUP2 MSTORE PUSH1 0x4 ADD PUSH2 0x1416 SWAP2 SWAP1 PUSH2 0x7617 JUMP JUMPDEST PUSH1 0x40 MLOAD DUP1 SWAP2 SUB SWAP1 REVERT JUMPDEST POP DUP1 PUSH1 0x0 ADD MLOAD PUSH1 0xB PUSH1 0x0 ADD PUSH1 0x0 PUSH2 0x100 EXP DUP2 SLOAD DUP2 PUSH1 0xFF MUL NOT AND SWAP1 DUP4 ISZERO ISZERO MUL OR SWAP1 SSTORE POP DUP1 PUSH1 0x20 ADD MLOAD PUSH1 0xB PUSH1 0x0 ADD PUSH1 0x1 PUSH2 0x100 EXP DUP2 SLOAD DUP2 PUSH15 0xFFFFFFFFFFFFFFFFFFFFFFFFFFFFFF MUL NOT AND SWAP1 DUP4 PUSH15 0xFFFFFFFFFFFFFFFFFFFFFFFFFFFFFF AND MUL OR SWAP1 SSTORE POP DUP1 PUSH1 0x40 ADD MLOAD PUSH1 0xB PUSH1 0x0 ADD PUSH1 0x10 PUSH2 0x100 EXP DUP2 SLOAD DUP2 PUSH16 0xFFFFFFFFFFFFFFFFFFFFFFFFFFFFFFFF MUL NOT AND SWAP1 DUP4 PUSH16 0xFFFFFFFFFFFFFFFFFFFFFFFFFFFFFFFF AND MUL OR SWAP1 SSTORE POP POP JUMP JUMPDEST PUSH1 0x0 PUSH1 0x6 PUSH1 0x0 DUP4 PUSH20 0xFFFFFFFFFFFFFFFFFFFFFFFFFFFFFFFFFFFFFFFF AND PUSH20 0xFFFFFFFFFFFFFFFFFFFFFFFFFFFFFFFFFFFFFFFF AND DUP2 MSTORE PUSH1 0x20 ADD SWAP1 DUP2 MSTORE PUSH1 0x20 ADD PUSH1 0x0 KECCAK256 SLOAD SWAP1 POP SWAP2 SWAP1 POP JUMP JUMPDEST PUSH1 0x0 PUSH32 0x0 DUP3 PUSH1 0x40 MLOAD PUSH1 0x20 ADD PUSH2 0x1540 SWAP3 SWAP2 SWAP1 PUSH2 0x7179 JUMP JUMPDEST PUSH1 0x40 MLOAD PUSH1 0x20 DUP2 DUP4 SUB SUB DUP2 MSTORE SWAP1 PUSH1 0x40 MSTORE DUP1 MLOAD SWAP1 PUSH1 0x20 ADD KECCAK256 SWAP1 POP SWAP2 SWAP1 POP JUMP JUMPDEST PUSH1 0x0 PUSH1 0x60 PUSH2 0x156D DUP7 MLOAD PUSH1 0x2 PUSH2 0x2A70 JUMP JUMPDEST PUSH2 0x1582 DUP10 DUP10 DUP10 DUP10 DUP10 DUP10 DUP10 PUSH2 0x30A4 PUSH2 0x3221 PUSH2 0x2C98 JUMP JUMPDEST SWAP8 POP SWAP8 SWAP6 POP POP POP POP POP POP JUMP JUMPDEST PUSH1 0x0 PUSH32 0x0 SWAP1 POP SWAP1 JUMP JUMPDEST PUSH1 0x0 PUSH32 0x0 SWAP1 POP SWAP1 JUMP JUMPDEST PUSH1 0x60 DUP1 PUSH2 0x15E9 PUSH2 0x15B6 JUMP JUMPDEST PUSH20 0xFFFFFFFFFFFFFFFFFFFFFFFFFFFFFFFFFFFFFFFF AND PUSH4 0xF94D4668 PUSH2 0x160C PUSH2 0xD9E JUMP JUMPDEST PUSH1 0x40 MLOAD DUP3 PUSH4 0xFFFFFFFF AND PUSH1 0xE0 SHL DUP2 MSTORE PUSH1 0x4 ADD PUSH2 0x1628 SWAP2 SWAP1 PUSH2 0x72F8 JUMP JUMPDEST PUSH1 0x0 PUSH1 0x40 MLOAD DUP1 DUP4 SUB DUP2 DUP7 DUP1 EXTCODESIZE ISZERO DUP1 ISZERO PUSH2 0x1640 JUMPI PUSH1 0x0 DUP1 REVERT JUMPDEST POP GAS STATICCALL ISZERO DUP1 ISZERO PUSH2 0x1654 JUMPI RETURNDATASIZE PUSH1 0x0 DUP1 RETURNDATACOPY RETURNDATASIZE PUSH1 0x0 REVERT JUMPDEST POP POP POP POP PUSH1 0x40 MLOAD RETURNDATASIZE PUSH1 0x0 DUP3 RETURNDATACOPY RETURNDATASIZE PUSH1 0x1F NOT PUSH1 0x1F DUP3 ADD AND DUP3 ADD DUP1 PUSH1 0x40 MSTORE POP DUP2 ADD SWAP1 PUSH2 0x167D SWAP2 SWAP1 PUSH2 0x6841 JUMP JUMPDEST POP SWAP2 POP POP PUSH2 0x168A DUP2 PUSH2 0x3013 JUMP JUMPDEST PUSH2 0x16BE DUP2 PUSH1 0x0 DUP2 MLOAD DUP2 LT PUSH2 0x169A JUMPI INVALID JUMPDEST PUSH1 0x20 MUL PUSH1 0x20 ADD ADD MLOAD DUP3 PUSH1 0x1 DUP2 MLOAD DUP2 LT PUSH2 0x16AF JUMPI INVALID JUMPDEST PUSH1 0x20 MUL PUSH1 0x20 ADD ADD MLOAD PUSH1 0x1 PUSH2 0x2862 JUMP JUMPDEST SWAP1 SWAP2 POP DUP4 PUSH1 0x0 DUP2 MLOAD DUP2 LT PUSH2 0x16CE JUMPI INVALID JUMPDEST PUSH1 0x20 MUL PUSH1 0x20 ADD ADD DUP5 PUSH1 0x1 DUP2 MLOAD DUP2 LT PUSH2 0x16E2 JUMPI INVALID JUMPDEST PUSH1 0x20 MUL PUSH1 0x20 ADD ADD DUP3 DUP2 MSTORE POP DUP3 DUP2 MSTORE POP POP POP POP SWAP1 JUMP JUMPDEST PUSH1 0x60 PUSH1 0x4 DUP1 SLOAD PUSH1 0x1 DUP2 PUSH1 0x1 AND ISZERO PUSH2 0x100 MUL SUB AND PUSH1 0x2 SWAP1 DIV DUP1 PUSH1 0x1F ADD PUSH1 0x20 DUP1 SWAP2 DIV MUL PUSH1 0x20 ADD PUSH1 0x40 MLOAD SWAP1 DUP2 ADD PUSH1 0x40 MSTORE DUP1 SWAP3 SWAP2 SWAP1 DUP2 DUP2 MSTORE PUSH1 0x20 ADD DUP3 DUP1 SLOAD PUSH1 0x1 DUP2 PUSH1 0x1 AND ISZERO PUSH2 0x100 MUL SUB AND PUSH1 0x2 SWAP1 DIV DUP1 ISZERO PUSH2 0x178F JUMPI DUP1 PUSH1 0x1F LT PUSH2 0x1764 JUMPI PUSH2 0x100 DUP1 DUP4 SLOAD DIV MUL DUP4 MSTORE SWAP2 PUSH1 0x20 ADD SWAP2 PUSH2 0x178F JUMP JUMPDEST DUP3 ADD SWAP2 SWAP1 PUSH1 0x0 MSTORE PUSH1 0x20 PUSH1 0x0 KECCAK256 SWAP1 JUMPDEST DUP2 SLOAD DUP2 MSTORE SWAP1 PUSH1 0x1 ADD SWAP1 PUSH1 0x20 ADD DUP1 DUP4 GT PUSH2 0x1772 JUMPI DUP3 SWAP1 SUB PUSH1 0x1F AND DUP3 ADD SWAP2 JUMPDEST POP POP POP POP POP SWAP1 POP SWAP1 JUMP JUMPDEST PUSH1 0x0 PUSH1 0xA SLOAD SWAP1 POP SWAP1 JUMP JUMPDEST PUSH1 0x0 PUSH2 0x17AD PUSH2 0x2532 JUMP JUMPDEST DUP4 PUSH1 0x80 ADD MLOAD PUSH2 0x17F2 PUSH2 0x17BD PUSH2 0x15B6 JUMP JUMPDEST PUSH20 0xFFFFFFFFFFFFFFFFFFFFFFFFFFFFFFFFFFFFFFFF AND CALLER PUSH20 0xFFFFFFFFFFFFFFFFFFFFFFFFFFFFFFFFFFFFFFFF AND EQ PUSH1 0xCD PUSH2 0x2308 JUMP JUMPDEST PUSH2 0x1807 PUSH2 0x17FD PUSH2 0xD9E JUMP JUMPDEST DUP3 EQ PUSH2 0x1F4 PUSH2 0x2308 JUMP JUMPDEST PUSH1 0x0 PUSH32 0x0 PUSH20 0xFFFFFFFFFFFFFFFFFFFFFFFFFFFFFFFFFFFFFFFF AND DUP7 PUSH1 0x20 ADD MLOAD PUSH20 0xFFFFFFFFFFFFFFFFFFFFFFFFFFFFFFFFFFFFFFFF AND EQ SWAP1 POP PUSH1 0x0 PUSH2 0x1869 DUP3 PUSH2 0x27F8 JUMP JUMPDEST SWAP1 POP PUSH1 0x0 PUSH2 0x1877 DUP4 ISZERO PUSH2 0x27F8 JUMP JUMPDEST SWAP1 POP PUSH2 0x1883 DUP8 DUP4 PUSH2 0x284E JUMP JUMPDEST SWAP7 POP PUSH2 0x188F DUP7 DUP3 PUSH2 0x284E JUMP JUMPDEST SWAP6 POP PUSH1 0x0 DUP1 PUSH1 0x0 PUSH2 0x18A1 DUP11 DUP11 DUP9 PUSH2 0x2862 JUMP JUMPDEST SWAP3 POP SWAP3 POP SWAP3 POP PUSH2 0x18E8 DUP12 PUSH1 0xA0 ADD MLOAD DUP8 PUSH2 0x18BA JUMPI DUP11 PUSH2 0x18BC JUMP JUMPDEST DUP12 JUMPDEST DUP9 PUSH2 0x18C7 JUMPI DUP13 PUSH2 0x18C9 JUMP JUMPDEST DUP12 JUMPDEST DUP10 PUSH2 0x18D4 JUMPI DUP5 PUSH2 0x18D6 JUMP JUMPDEST DUP6 JUMPDEST DUP11 PUSH2 0x18E1 JUMPI DUP7 PUSH2 0x18E3 JUMP JUMPDEST DUP6 JUMPDEST PUSH2 0x32A4 JUMP JUMPDEST PUSH1 0x0 PUSH1 0x1 DUP2 GT ISZERO PUSH2 0x18F5 JUMPI INVALID JUMPDEST DUP12 PUSH1 0x0 ADD MLOAD PUSH1 0x1 DUP2 GT ISZERO PUSH2 0x1905 JUMPI INVALID JUMPDEST EQ ISZERO PUSH2 0x1980 JUMPI PUSH1 0x0 PUSH2 0x192B PUSH2 0x1918 PUSH2 0x1005 JUMP JUMPDEST DUP14 PUSH1 0x60 ADD MLOAD PUSH2 0x3367 SWAP1 SWAP2 SWAP1 PUSH4 0xFFFFFFFF AND JUMP JUMPDEST SWAP1 POP PUSH2 0x194D PUSH2 0x1947 DUP3 DUP15 PUSH1 0x60 ADD MLOAD PUSH2 0x33C5 SWAP1 SWAP2 SWAP1 PUSH4 0xFFFFFFFF AND JUMP JUMPDEST DUP8 PUSH2 0x284E JUMP JUMPDEST DUP13 PUSH1 0x60 ADD DUP2 DUP2 MSTORE POP POP PUSH1 0x0 PUSH2 0x1965 DUP14 DUP14 DUP14 DUP8 DUP8 PUSH2 0x33E6 JUMP JUMPDEST SWAP1 POP PUSH2 0x1971 DUP2 DUP8 PUSH2 0x3404 JUMP JUMPDEST SWAP10 POP POP POP POP POP POP POP POP POP PUSH2 0x19E0 JUMP JUMPDEST PUSH2 0x198E DUP12 PUSH1 0x60 ADD MLOAD DUP6 PUSH2 0x284E JUMP JUMPDEST DUP12 PUSH1 0x60 ADD DUP2 DUP2 MSTORE POP POP PUSH1 0x0 PUSH2 0x19A6 DUP13 DUP13 DUP13 DUP7 DUP7 PUSH2 0x3418 JUMP JUMPDEST SWAP1 POP PUSH2 0x19B2 DUP2 DUP8 PUSH2 0x3436 JUMP JUMPDEST SWAP1 POP PUSH2 0x19D6 PUSH2 0x19C7 PUSH2 0x19C2 PUSH2 0x1005 JUMP JUMPDEST PUSH2 0x344A JUMP JUMPDEST DUP3 PUSH2 0x3475 SWAP1 SWAP2 SWAP1 PUSH4 0xFFFFFFFF AND JUMP JUMPDEST SWAP9 POP POP POP POP POP POP POP POP JUMPDEST POP SWAP4 SWAP3 POP POP POP JUMP JUMPDEST PUSH1 0x0 DUP1 PUSH2 0x19F5 CALLER DUP6 PUSH2 0x1F56 JUMP JUMPDEST SWAP1 POP DUP1 DUP4 LT PUSH2 0x1A0F JUMPI PUSH2 0x1A0A CALLER DUP6 PUSH1 0x0 PUSH2 0x20BF JUMP JUMPDEST PUSH2 0x1A1D JUMP JUMPDEST PUSH2 0x1A1C CALLER DUP6 DUP6 DUP5 SUB PUSH2 0x20BF JUMP JUMPDEST JUMPDEST PUSH1 0x1 SWAP2 POP POP SWAP3 SWAP2 POP POP JUMP JUMPDEST PUSH1 0x0 PUSH2 0x1A35 CALLER DUP5 DUP5 PUSH2 0x231B JUMP JUMPDEST PUSH1 0x1 SWAP1 POP SWAP3 SWAP2 POP POP JUMP JUMPDEST PUSH1 0x0 PUSH2 0x1A49 PUSH2 0x34DF JUMP JUMPDEST SWAP1 POP SWAP1 JUMP JUMPDEST PUSH1 0x0 PUSH20 0x0 PUSH4 0x397BEE0 PUSH1 0x8 DUP5 PUSH2 0x1A75 PUSH2 0x22F6 JUMP JUMPDEST PUSH1 0x40 MLOAD DUP5 PUSH4 0xFFFFFFFF AND PUSH1 0xE0 SHL DUP2 MSTORE PUSH1 0x4 ADD PUSH2 0x1A93 SWAP4 SWAP3 SWAP2 SWAP1 PUSH2 0x7564 JUMP JUMPDEST PUSH1 0x20 PUSH1 0x40 MLOAD DUP1 DUP4 SUB DUP2 DUP7 DUP1 EXTCODESIZE ISZERO DUP1 ISZERO PUSH2 0x1AAB JUMPI PUSH1 0x0 DUP1 REVERT JUMPDEST POP GAS DELEGATECALL ISZERO DUP1 ISZERO PUSH2 0x1ABF JUMPI RETURNDATASIZE PUSH1 0x0 DUP1 RETURNDATACOPY RETURNDATASIZE PUSH1 0x0 REVERT JUMPDEST POP POP POP POP PUSH1 0x40 MLOAD RETURNDATASIZE PUSH1 0x1F NOT PUSH1 0x1F DUP3 ADD AND DUP3 ADD DUP1 PUSH1 0x40 MSTORE POP DUP2 ADD SWAP1 PUSH2 0x1AE3 SWAP2 SWAP1 PUSH2 0x6CDD JUMP JUMPDEST SWAP1 POP SWAP2 SWAP1 POP JUMP JUMPDEST PUSH1 0x0 PUSH2 0x400 SWAP1 POP SWAP1 JUMP JUMPDEST PUSH1 0x0 PUSH1 0x60 PUSH2 0x1B00 PUSH2 0x15B6 JUMP JUMPDEST PUSH20 0xFFFFFFFFFFFFFFFFFFFFFFFFFFFFFFFFFFFFFFFF AND PUSH4 0xF94D4668 PUSH2 0x1B23 PUSH2 0xD9E JUMP JUMPDEST PUSH1 0x40 MLOAD DUP3 PUSH4 0xFFFFFFFF AND PUSH1 0xE0 SHL DUP2 MSTORE PUSH1 0x4 ADD PUSH2 0x1B3F SWAP2 SWAP1 PUSH2 0x72F8 JUMP JUMPDEST PUSH1 0x0 PUSH1 0x40 MLOAD DUP1 DUP4 SUB DUP2 DUP7 DUP1 EXTCODESIZE ISZERO DUP1 ISZERO PUSH2 0x1B57 JUMPI PUSH1 0x0 DUP1 REVERT JUMPDEST POP GAS STATICCALL ISZERO DUP1 ISZERO PUSH2 0x1B6B JUMPI RETURNDATASIZE PUSH1 0x0 DUP1 RETURNDATACOPY RETURNDATASIZE PUSH1 0x0 REVERT JUMPDEST POP POP POP POP PUSH1 0x40 MLOAD RETURNDATASIZE PUSH1 0x0 DUP3 RETURNDATACOPY RETURNDATASIZE PUSH1 0x1F NOT PUSH1 0x1F DUP3 ADD AND DUP3 ADD DUP1 PUSH1 0x40 MSTORE POP DUP2 ADD SWAP1 PUSH2 0x1B94 SWAP2 SWAP1 PUSH2 0x6841 JUMP JUMPDEST POP SWAP2 POP POP PUSH2 0x1BA0 PUSH2 0x5FF6 JUMP JUMPDEST PUSH2 0x1BA8 PUSH2 0x2FC8 JUMP JUMPDEST SWAP1 POP PUSH2 0x1BB3 DUP3 PUSH2 0x3013 JUMP JUMPDEST PUSH2 0x1BE0 DUP3 DUP3 PUSH1 0x0 PUSH1 0x2 DUP2 LT PUSH2 0x1BC4 JUMPI INVALID JUMPDEST PUSH1 0x20 MUL ADD MLOAD DUP4 PUSH1 0x1 PUSH1 0x2 DUP2 LT PUSH2 0x1BD6 JUMPI INVALID JUMPDEST PUSH1 0x20 MUL ADD MLOAD PUSH2 0x356B JUMP JUMPDEST SWAP3 POP POP POP SWAP1 JUMP JUMPDEST PUSH2 0x1BF5 DUP5 TIMESTAMP GT ISZERO PUSH1 0xD1 PUSH2 0x2308 JUMP JUMPDEST PUSH1 0x0 PUSH1 0x6 PUSH1 0x0 DUP10 PUSH20 0xFFFFFFFFFFFFFFFFFFFFFFFFFFFFFFFFFFFFFFFF AND PUSH20 0xFFFFFFFFFFFFFFFFFFFFFFFFFFFFFFFFFFFFFFFF AND DUP2 MSTORE PUSH1 0x20 ADD SWAP1 DUP2 MSTORE PUSH1 0x20 ADD PUSH1 0x0 KECCAK256 SLOAD SWAP1 POP PUSH1 0x0 PUSH32 0x0 DUP10 DUP10 DUP10 DUP6 DUP11 PUSH1 0x40 MLOAD PUSH1 0x20 ADD PUSH2 0x1C76 SWAP7 SWAP6 SWAP5 SWAP4 SWAP3 SWAP2 SWAP1 PUSH2 0x734A JUMP JUMPDEST PUSH1 0x40 MLOAD PUSH1 0x20 DUP2 DUP4 SUB SUB DUP2 MSTORE SWAP1 PUSH1 0x40 MSTORE DUP1 MLOAD SWAP1 PUSH1 0x20 ADD KECCAK256 SWAP1 POP PUSH1 0x0 PUSH2 0x1C99 DUP3 PUSH2 0x359F JUMP JUMPDEST SWAP1 POP PUSH1 0x0 PUSH1 0x1 DUP3 DUP9 DUP9 DUP9 PUSH1 0x40 MLOAD PUSH1 0x0 DUP2 MSTORE PUSH1 0x20 ADD PUSH1 0x40 MSTORE PUSH1 0x40 MLOAD PUSH2 0x1CC0 SWAP5 SWAP4 SWAP3 SWAP2 SWAP1 PUSH2 0x73FE JUMP JUMPDEST PUSH1 0x20 PUSH1 0x40 MLOAD PUSH1 0x20 DUP2 SUB SWAP1 DUP1 DUP5 SUB SWAP1 DUP6 GAS STATICCALL ISZERO DUP1 ISZERO PUSH2 0x1CE2 JUMPI RETURNDATASIZE PUSH1 0x0 DUP1 RETURNDATACOPY RETURNDATASIZE PUSH1 0x0 REVERT JUMPDEST POP POP POP PUSH1 0x20 PUSH1 0x40 MLOAD SUB MLOAD SWAP1 POP PUSH2 0x1D61 PUSH1 0x0 PUSH20 0xFFFFFFFFFFFFFFFFFFFFFFFFFFFFFFFFFFFFFFFF AND DUP3 PUSH20 0xFFFFFFFFFFFFFFFFFFFFFFFFFFFFFFFFFFFFFFFF AND EQ ISZERO DUP1 ISZERO PUSH2 0x1D59 JUMPI POP DUP12 PUSH20 0xFFFFFFFFFFFFFFFFFFFFFFFFFFFFFFFFFFFFFFFF AND DUP3 PUSH20 0xFFFFFFFFFFFFFFFFFFFFFFFFFFFFFFFFFFFFFFFF AND EQ JUMPDEST PUSH2 0x1F8 PUSH2 0x2308 JUMP JUMPDEST PUSH1 0x1 DUP5 ADD PUSH1 0x6 PUSH1 0x0 DUP14 PUSH20 0xFFFFFFFFFFFFFFFFFFFFFFFFFFFFFFFFFFFFFFFF AND PUSH20 0xFFFFFFFFFFFFFFFFFFFFFFFFFFFFFFFFFFFFFFFF AND DUP2 MSTORE PUSH1 0x20 ADD SWAP1 DUP2 MSTORE PUSH1 0x20 ADD PUSH1 0x0 KECCAK256 DUP2 SWAP1 SSTORE POP PUSH2 0x1DB3 DUP12 DUP12 DUP12 PUSH2 0x20BF JUMP JUMPDEST POP POP POP POP POP POP POP POP POP POP POP JUMP JUMPDEST PUSH1 0x60 DUP1 DUP9 PUSH2 0x1E04 PUSH2 0x1DCF PUSH2 0x15B6 JUMP JUMPDEST PUSH20 0xFFFFFFFFFFFFFFFFFFFFFFFFFFFFFFFFFFFFFFFF AND CALLER PUSH20 0xFFFFFFFFFFFFFFFFFFFFFFFFFFFFFFFFFFFFFFFF AND EQ PUSH1 0xCD PUSH2 0x2308 JUMP JUMPDEST PUSH2 0x1E19 PUSH2 0x1E0F PUSH2 0xD9E JUMP JUMPDEST DUP3 EQ PUSH2 0x1F4 PUSH2 0x2308 JUMP JUMPDEST PUSH2 0x1E21 PUSH2 0x2532 JUMP JUMPDEST PUSH1 0x0 DUP1 PUSH2 0x1E2C PUSH2 0xA5D JUMP JUMPDEST EQ ISZERO PUSH2 0x1ECC JUMPI PUSH2 0x1E3E DUP12 DUP12 DUP12 DUP9 PUSH2 0x35D8 JUMP JUMPDEST DUP1 SWAP6 POP DUP2 SWAP3 POP POP POP PUSH2 0x1E57 PUSH3 0xF4240 DUP3 LT ISZERO PUSH1 0xCC PUSH2 0x2308 JUMP JUMPDEST PUSH2 0x1E65 PUSH1 0x0 PUSH3 0xF4240 PUSH2 0x369C JUMP JUMPDEST PUSH2 0x1E74 DUP10 PUSH3 0xF4240 DUP4 SUB PUSH2 0x369C JUMP JUMPDEST PUSH2 0x1E7D DUP5 PUSH2 0x3221 JUMP JUMPDEST PUSH1 0x2 PUSH8 0xFFFFFFFFFFFFFFFF DUP2 GT DUP1 ISZERO PUSH2 0x1E95 JUMPI PUSH1 0x0 DUP1 REVERT JUMPDEST POP PUSH1 0x40 MLOAD SWAP1 DUP1 DUP3 MSTORE DUP1 PUSH1 0x20 MUL PUSH1 0x20 ADD DUP3 ADD PUSH1 0x40 MSTORE DUP1 ISZERO PUSH2 0x1EC4 JUMPI DUP2 PUSH1 0x20 ADD PUSH1 0x20 DUP3 MUL DUP1 CALLDATASIZE DUP4 CALLDATACOPY DUP1 DUP3 ADD SWAP2 POP POP SWAP1 POP JUMPDEST POP SWAP3 POP PUSH2 0x1F40 JUMP JUMPDEST PUSH2 0x1ED5 DUP9 PUSH2 0x3013 JUMP JUMPDEST PUSH2 0x1F08 DUP8 DUP10 PUSH1 0x0 DUP2 MLOAD DUP2 LT PUSH2 0x1EE6 JUMPI INVALID JUMPDEST PUSH1 0x20 MUL PUSH1 0x20 ADD ADD MLOAD DUP11 PUSH1 0x1 DUP2 MLOAD DUP2 LT PUSH2 0x1EFB JUMPI INVALID JUMPDEST PUSH1 0x20 MUL PUSH1 0x20 ADD ADD MLOAD PUSH2 0x36AA JUMP JUMPDEST PUSH2 0x1F17 DUP12 DUP12 DUP12 DUP12 DUP12 DUP12 DUP12 PUSH2 0x30A4 JUMP JUMPDEST DUP1 SWAP6 POP DUP2 SWAP7 POP DUP3 SWAP4 POP POP POP POP PUSH2 0x1F2D DUP10 DUP3 PUSH2 0x369C JUMP JUMPDEST PUSH2 0x1F36 DUP5 PUSH2 0x3221 JUMP JUMPDEST PUSH2 0x1F3F DUP4 PUSH2 0x2C15 JUMP JUMPDEST JUMPDEST PUSH2 0x1F48 PUSH2 0x259C JUMP JUMPDEST POP POP SWAP8 POP SWAP8 SWAP6 POP POP POP POP POP POP JUMP JUMPDEST PUSH1 0x0 PUSH2 0x1F60 PUSH2 0x15B6 JUMP JUMPDEST PUSH20 0xFFFFFFFFFFFFFFFFFFFFFFFFFFFFFFFFFFFFFFFF AND DUP3 PUSH20 0xFFFFFFFFFFFFFFFFFFFFFFFFFFFFFFFFFFFFFFFF AND EQ ISZERO PUSH2 0x1FBB JUMPI PUSH32 0xFFFFFFFFFFFFFFFFFFFFFFFFFFFFFFFFFFFFFFFFFFFFFFFFFFFFFFFFFFFFFFFF SWAP1 POP PUSH2 0x1FC8 JUMP JUMPDEST PUSH2 0x1FC5 DUP4 DUP4 PUSH2 0x36AF JUMP JUMPDEST SWAP1 POP JUMPDEST SWAP3 SWAP2 POP POP JUMP JUMPDEST PUSH1 0x60 PUSH2 0x1FD8 PUSH2 0x3736 JUMP JUMPDEST SWAP1 POP SWAP1 JUMP JUMPDEST PUSH1 0x0 PUSH3 0x1DE20 SWAP1 POP SWAP1 JUMP JUMPDEST PUSH1 0x60 DUP2 SWAP1 POP PUSH2 0x1FF6 DUP2 PUSH2 0x37D0 JUMP JUMPDEST POP POP JUMP JUMPDEST PUSH1 0x0 PUSH2 0x2012 DUP3 PUSH1 0x55 DUP6 PUSH2 0x205B SWAP1 SWAP3 SWAP2 SWAP1 PUSH4 0xFFFFFFFF AND JUMP JUMPDEST SWAP1 POP SWAP3 SWAP2 POP POP JUMP JUMPDEST PUSH1 0x0 PUSH2 0x2032 DUP3 PUSH1 0x56 DUP6 PUSH2 0x2092 SWAP1 SWAP3 SWAP2 SWAP1 PUSH4 0xFFFFFFFF AND JUMP JUMPDEST SWAP1 POP SWAP3 SWAP2 POP POP JUMP JUMPDEST PUSH1 0x0 PUSH2 0x204A DUP4 DUP4 GT ISZERO PUSH1 0x1 PUSH2 0x2308 JUMP JUMPDEST PUSH1 0x0 DUP3 DUP5 SUB SWAP1 POP DUP1 SWAP2 POP POP SWAP3 SWAP2 POP POP JUMP JUMPDEST PUSH1 0x0 DUP1 DUP3 PUSH1 0x1 SWAP1 SHL NOT DUP6 PUSH1 0x0 SHR AND PUSH1 0x0 SHL SWAP1 POP DUP3 DUP5 PUSH2 0x207B JUMPI PUSH1 0x0 PUSH2 0x207E JUMP JUMPDEST PUSH1 0x1 JUMPDEST PUSH1 0xFF AND SWAP1 SHL PUSH1 0x0 SHL DUP2 OR SWAP2 POP POP SWAP4 SWAP3 POP POP POP JUMP JUMPDEST PUSH1 0x0 DUP1 DUP3 PUSH8 0xFFFFFFFFFFFFFFFF SWAP1 SHL NOT DUP6 PUSH1 0x0 SHR AND PUSH1 0x0 SHL SWAP1 POP DUP3 DUP5 SWAP1 SHL PUSH1 0x0 SHL DUP2 OR SWAP2 POP POP SWAP4 SWAP3 POP POP POP JUMP JUMPDEST DUP1 PUSH1 0x1 PUSH1 0x0 DUP6 PUSH20 0xFFFFFFFFFFFFFFFFFFFFFFFFFFFFFFFFFFFFFFFF AND PUSH20 0xFFFFFFFFFFFFFFFFFFFFFFFFFFFFFFFFFFFFFFFF AND DUP2 MSTORE PUSH1 0x20 ADD SWAP1 DUP2 MSTORE PUSH1 0x20 ADD PUSH1 0x0 KECCAK256 PUSH1 0x0 DUP5 PUSH20 0xFFFFFFFFFFFFFFFFFFFFFFFFFFFFFFFFFFFFFFFF AND PUSH20 0xFFFFFFFFFFFFFFFFFFFFFFFFFFFFFFFFFFFFFFFF AND DUP2 MSTORE PUSH1 0x20 ADD SWAP1 DUP2 MSTORE PUSH1 0x20 ADD PUSH1 0x0 KECCAK256 DUP2 SWAP1 SSTORE POP DUP2 PUSH20 0xFFFFFFFFFFFFFFFFFFFFFFFFFFFFFFFFFFFFFFFF AND DUP4 PUSH20 0xFFFFFFFFFFFFFFFFFFFFFFFFFFFFFFFFFFFFFFFF AND PUSH32 0x8C5BE1E5EBEC7D5BD14F71427D1E84F3DD0314C0F7B2291E5B200AC8C7C3B925 DUP4 PUSH1 0x40 MLOAD PUSH2 0x219D SWAP2 SWAP1 PUSH2 0x7674 JUMP JUMPDEST PUSH1 0x40 MLOAD DUP1 SWAP2 SUB SWAP1 LOG3 POP POP POP JUMP JUMPDEST PUSH1 0x0 PUSH2 0x21D9 PUSH1 0x0 CALLDATALOAD PUSH32 0xFFFFFFFF00000000000000000000000000000000000000000000000000000000 AND PUSH2 0x150B JUMP JUMPDEST SWAP1 POP PUSH2 0x21F0 PUSH2 0x21E8 DUP3 CALLER PUSH2 0x386E JUMP JUMPDEST PUSH2 0x191 PUSH2 0x2308 JUMP JUMPDEST POP JUMP JUMPDEST DUP1 ISZERO PUSH2 0x2213 JUMPI PUSH2 0x220E PUSH2 0x2204 PUSH2 0x22A6 JUMP JUMPDEST TIMESTAMP LT PUSH2 0x193 PUSH2 0x2308 JUMP JUMPDEST PUSH2 0x2229 JUMP JUMPDEST PUSH2 0x2228 PUSH2 0x221E PUSH2 0x22CE JUMP JUMPDEST TIMESTAMP LT PUSH2 0x1A9 PUSH2 0x2308 JUMP JUMPDEST JUMPDEST DUP1 PUSH1 0x7 PUSH1 0x0 PUSH2 0x100 EXP DUP2 SLOAD DUP2 PUSH1 0xFF MUL NOT AND SWAP1 DUP4 ISZERO ISZERO MUL OR SWAP1 SSTORE POP PUSH32 0x9E3A5E37224532DEA67B89FACE185703738A228A6E8A23DEE546960180D3BE64 DUP2 PUSH1 0x40 MLOAD PUSH2 0x2272 SWAP2 SWAP1 PUSH2 0x72A6 JUMP JUMPDEST PUSH1 0x40 MLOAD DUP1 SWAP2 SUB SWAP1 LOG1 POP JUMP JUMPDEST PUSH1 0x0 PUSH2 0x2287 PUSH2 0x22CE JUMP JUMPDEST TIMESTAMP GT DUP1 PUSH2 0x22A1 JUMPI POP PUSH1 0x7 PUSH1 0x0 SWAP1 SLOAD SWAP1 PUSH2 0x100 EXP SWAP1 DIV PUSH1 0xFF AND ISZERO JUMPDEST SWAP1 POP SWAP1 JUMP JUMPDEST PUSH1 0x0 PUSH32 0x0 SWAP1 POP SWAP1 JUMP JUMPDEST PUSH1 0x0 PUSH32 0x0 SWAP1 POP SWAP1 JUMP JUMPDEST PUSH1 0x0 PUSH2 0x2303 PUSH1 0x9 SLOAD PUSH2 0x2A19 JUMP JUMPDEST SWAP1 POP SWAP1 JUMP JUMPDEST DUP2 PUSH2 0x2317 JUMPI PUSH2 0x2316 DUP2 PUSH2 0x39AB JUMP JUMPDEST JUMPDEST POP POP JUMP JUMPDEST PUSH2 0x2357 PUSH1 0x0 PUSH20 0xFFFFFFFFFFFFFFFFFFFFFFFFFFFFFFFFFFFFFFFF AND DUP5 PUSH20 0xFFFFFFFFFFFFFFFFFFFFFFFFFFFFFFFFFFFFFFFF AND EQ ISZERO PUSH2 0x198 PUSH2 0x2308 JUMP JUMPDEST PUSH2 0x2393 PUSH1 0x0 PUSH20 0xFFFFFFFFFFFFFFFFFFFFFFFFFFFFFFFFFFFFFFFF AND DUP4 PUSH20 0xFFFFFFFFFFFFFFFFFFFFFFFFFFFFFFFFFFFFFFFF AND EQ ISZERO PUSH2 0x199 PUSH2 0x2308 JUMP JUMPDEST PUSH2 0x239E DUP4 DUP4 DUP4 PUSH2 0x3A1B JUMP JUMPDEST PUSH2 0x23F3 DUP2 PUSH2 0x1A0 PUSH1 0x0 DUP1 DUP8 PUSH20 0xFFFFFFFFFFFFFFFFFFFFFFFFFFFFFFFFFFFFFFFF AND PUSH20 0xFFFFFFFFFFFFFFFFFFFFFFFFFFFFFFFFFFFFFFFF AND DUP2 MSTORE PUSH1 0x20 ADD SWAP1 DUP2 MSTORE PUSH1 0x20 ADD PUSH1 0x0 KECCAK256 SLOAD PUSH2 0x3A20 SWAP1 SWAP3 SWAP2 SWAP1 PUSH4 0xFFFFFFFF AND JUMP JUMPDEST PUSH1 0x0 DUP1 DUP6 PUSH20 0xFFFFFFFFFFFFFFFFFFFFFFFFFFFFFFFFFFFFFFFF AND PUSH20 0xFFFFFFFFFFFFFFFFFFFFFFFFFFFFFFFFFFFFFFFF AND DUP2 MSTORE PUSH1 0x20 ADD SWAP1 DUP2 MSTORE PUSH1 0x20 ADD PUSH1 0x0 KECCAK256 DUP2 SWAP1 SSTORE POP PUSH2 0x2486 DUP2 PUSH1 0x0 DUP1 DUP6 PUSH20 0xFFFFFFFFFFFFFFFFFFFFFFFFFFFFFFFFFFFFFFFF AND PUSH20 0xFFFFFFFFFFFFFFFFFFFFFFFFFFFFFFFFFFFFFFFF AND DUP2 MSTORE PUSH1 0x20 ADD SWAP1 DUP2 MSTORE PUSH1 0x20 ADD PUSH1 0x0 KECCAK256 SLOAD PUSH2 0x27D8 SWAP1 SWAP2 SWAP1 PUSH4 0xFFFFFFFF AND JUMP JUMPDEST PUSH1 0x0 DUP1 DUP5 PUSH20 0xFFFFFFFFFFFFFFFFFFFFFFFFFFFFFFFFFFFFFFFF AND PUSH20 0xFFFFFFFFFFFFFFFFFFFFFFFFFFFFFFFFFFFFFFFF AND DUP2 MSTORE PUSH1 0x20 ADD SWAP1 DUP2 MSTORE PUSH1 0x20 ADD PUSH1 0x0 KECCAK256 DUP2 SWAP1 SSTORE POP DUP2 PUSH20 0xFFFFFFFFFFFFFFFFFFFFFFFFFFFFFFFFFFFFFFFF AND DUP4 PUSH20 0xFFFFFFFFFFFFFFFFFFFFFFFFFFFFFFFFFFFFFFFF AND PUSH32 0xDDF252AD1BE2C89B69C2B068FC378DAA952BA7F163C4A11628F55A4DF523B3EF DUP4 PUSH1 0x40 MLOAD PUSH2 0x2525 SWAP2 SWAP1 PUSH2 0x7674 JUMP JUMPDEST PUSH1 0x40 MLOAD DUP1 SWAP2 SUB SWAP1 LOG3 POP POP POP JUMP JUMPDEST PUSH2 0x2545 PUSH2 0x253D PUSH2 0x227D JUMP JUMPDEST PUSH2 0x192 PUSH2 0x2308 JUMP JUMPDEST JUMP JUMPDEST PUSH2 0x255C DUP2 PUSH1 0x9 SLOAD PUSH2 0x1FFA SWAP1 SWAP2 SWAP1 PUSH4 0xFFFFFFFF AND JUMP JUMPDEST PUSH1 0x9 DUP2 SWAP1 SSTORE POP PUSH32 0x3E350B41E86A8E10F804ADE6D35340D620BE35569CC75AC943E8BB14AB80EAD1 DUP2 PUSH1 0x40 MLOAD PUSH2 0x2591 SWAP2 SWAP1 PUSH2 0x72A6 JUMP JUMPDEST PUSH1 0x40 MLOAD DUP1 SWAP2 SUB SWAP1 LOG1 POP JUMP JUMPDEST PUSH1 0x0 PUSH1 0x9 SLOAD SWAP1 POP PUSH2 0x25AC DUP2 PUSH2 0x2A36 JUMP JUMPDEST ISZERO PUSH2 0x25FC JUMPI PUSH2 0x25CE PUSH2 0x25BF PUSH1 0xA SLOAD PUSH2 0x3A41 JUMP JUMPDEST DUP3 PUSH2 0x3A8B SWAP1 SWAP2 SWAP1 PUSH4 0xFFFFFFFF AND JUMP JUMPDEST SWAP1 POP PUSH2 0x25F2 PUSH2 0x25E3 PUSH2 0x25DE PUSH2 0xA5D JUMP JUMPDEST PUSH2 0x3A41 JUMP JUMPDEST DUP3 PUSH2 0x3AAB SWAP1 SWAP2 SWAP1 PUSH4 0xFFFFFFFF AND JUMP JUMPDEST SWAP1 POP DUP1 PUSH1 0x9 DUP2 SWAP1 SSTORE POP JUMPDEST POP JUMP JUMPDEST PUSH1 0x0 PUSH2 0x2615 PUSH1 0x0 DUP4 PUSH2 0x3ACB SWAP1 SWAP2 SWAP1 PUSH4 0xFFFFFFFF AND JUMP JUMPDEST PUSH2 0x2629 PUSH1 0x1F DUP6 PUSH2 0x3ADC SWAP1 SWAP2 SWAP1 PUSH4 0xFFFFFFFF AND JUMP JUMPDEST PUSH2 0x263D PUSH1 0x54 DUP8 PUSH2 0x3AF6 SWAP1 SWAP2 SWAP1 PUSH4 0xFFFFFFFF AND JUMP JUMPDEST PUSH2 0x2651 PUSH1 0x6A DUP10 PUSH2 0x3ADC SWAP1 SWAP2 SWAP1 PUSH4 0xFFFFFFFF AND JUMP JUMPDEST PUSH2 0x2665 PUSH1 0x9F DUP12 PUSH2 0x3AF6 SWAP1 SWAP2 SWAP1 PUSH4 0xFFFFFFFF AND JUMP JUMPDEST PUSH2 0x2679 PUSH1 0xB5 DUP14 PUSH2 0x3ADC SWAP1 SWAP2 SWAP1 PUSH4 0xFFFFFFFF AND JUMP JUMPDEST PUSH2 0x268D PUSH1 0xEA DUP16 PUSH2 0x3AF6 SWAP1 SWAP2 SWAP1 PUSH4 0xFFFFFFFF AND JUMP JUMPDEST OR OR OR OR OR OR SWAP1 POP SWAP8 SWAP7 POP POP POP POP POP POP POP JUMP JUMPDEST PUSH1 0x0 PUSH2 0x26B6 PUSH1 0x0 DUP4 PUSH2 0x3B0C SWAP1 SWAP2 SWAP1 PUSH4 0xFFFFFFFF AND JUMP JUMPDEST SWAP1 POP SWAP2 SWAP1 POP JUMP JUMPDEST PUSH1 0x0 PUSH32 0x0 PUSH32 0x0 PUSH32 0x0 PUSH2 0x272A PUSH2 0x3B23 JUMP JUMPDEST ADDRESS PUSH1 0x40 MLOAD PUSH1 0x20 ADD PUSH2 0x273F SWAP6 SWAP5 SWAP4 SWAP3 SWAP2 SWAP1 PUSH2 0x73AB JUMP JUMPDEST PUSH1 0x40 MLOAD PUSH1 0x20 DUP2 DUP4 SUB SUB DUP2 MSTORE SWAP1 PUSH1 0x40 MSTORE DUP1 MLOAD SWAP1 PUSH1 0x20 ADD KECCAK256 SWAP1 POP SWAP1 JUMP JUMPDEST PUSH2 0x276D PUSH5 0xE8D4A51000 DUP3 LT ISZERO PUSH1 0xCB PUSH2 0x2308 JUMP JUMPDEST PUSH2 0x2783 PUSH8 0x16345785D8A0000 DUP3 GT ISZERO PUSH1 0xCA PUSH2 0x2308 JUMP JUMPDEST PUSH2 0x2798 DUP2 PUSH1 0x9 SLOAD PUSH2 0x201A SWAP1 SWAP2 SWAP1 PUSH4 0xFFFFFFFF AND JUMP JUMPDEST PUSH1 0x9 DUP2 SWAP1 SSTORE POP PUSH32 0xA9BA3FFE0B6C366B81232CAAB38605A0699AD5398D6CCE76F91EE809E322DAFC DUP2 PUSH1 0x40 MLOAD PUSH2 0x27CD SWAP2 SWAP1 PUSH2 0x7674 JUMP JUMPDEST PUSH1 0x40 MLOAD DUP1 SWAP2 SUB SWAP1 LOG1 POP JUMP JUMPDEST PUSH1 0x0 DUP1 DUP3 DUP5 ADD SWAP1 POP PUSH2 0x27EE DUP5 DUP3 LT ISZERO PUSH1 0x0 PUSH2 0x2308 JUMP JUMPDEST DUP1 SWAP2 POP POP SWAP3 SWAP2 POP POP JUMP JUMPDEST PUSH1 0x0 DUP2 PUSH2 0x2825 JUMPI PUSH32 0x0 PUSH2 0x2847 JUMP JUMPDEST PUSH32 0x0 JUMPDEST SWAP1 POP SWAP2 SWAP1 POP JUMP JUMPDEST PUSH1 0x0 PUSH2 0x285A DUP4 DUP4 PUSH2 0x2E98 JUMP JUMPDEST SWAP1 POP SWAP3 SWAP2 POP POP JUMP JUMPDEST PUSH1 0x0 DUP1 PUSH1 0x0 PUSH1 0x60 PUSH1 0x2 PUSH8 0xFFFFFFFFFFFFFFFF DUP2 GT DUP1 ISZERO PUSH2 0x2881 JUMPI PUSH1 0x0 DUP1 REVERT JUMPDEST POP PUSH1 0x40 MLOAD SWAP1 DUP1 DUP3 MSTORE DUP1 PUSH1 0x20 MUL PUSH1 0x20 ADD DUP3 ADD PUSH1 0x40 MSTORE DUP1 ISZERO PUSH2 0x28B0 JUMPI DUP2 PUSH1 0x20 ADD PUSH1 0x20 DUP3 MUL DUP1 CALLDATASIZE DUP4 CALLDATACOPY DUP1 DUP3 ADD SWAP2 POP POP SWAP1 POP JUMPDEST POP SWAP1 POP DUP5 PUSH2 0x28BE JUMPI DUP6 PUSH2 0x28C0 JUMP JUMPDEST DUP7 JUMPDEST DUP2 PUSH1 0x0 DUP2 MLOAD DUP2 LT PUSH2 0x28CD JUMPI INVALID JUMPDEST PUSH1 0x20 MUL PUSH1 0x20 ADD ADD DUP2 DUP2 MSTORE POP POP DUP5 PUSH2 0x28E4 JUMPI DUP7 PUSH2 0x28E6 JUMP JUMPDEST DUP6 JUMPDEST DUP2 PUSH1 0x1 DUP2 MLOAD DUP2 LT PUSH2 0x28F3 JUMPI INVALID JUMPDEST PUSH1 0x20 MUL PUSH1 0x20 ADD ADD DUP2 DUP2 MSTORE POP POP PUSH2 0x2907 PUSH2 0x5FF6 JUMP JUMPDEST PUSH2 0x290F PUSH2 0x2FC8 JUMP JUMPDEST SWAP1 POP PUSH2 0x293E DUP3 DUP3 PUSH1 0x0 PUSH1 0x2 DUP2 LT PUSH2 0x2922 JUMPI INVALID JUMPDEST PUSH1 0x20 MUL ADD MLOAD DUP4 PUSH1 0x1 PUSH1 0x2 DUP2 LT PUSH2 0x2934 JUMPI INVALID JUMPDEST PUSH1 0x20 MUL ADD MLOAD PUSH2 0x356B JUMP JUMPDEST SWAP5 POP PUSH2 0x2948 PUSH2 0x5FF6 JUMP JUMPDEST PUSH2 0x2952 DUP3 DUP8 PUSH2 0x3B2B JUMP JUMPDEST SWAP1 POP DUP7 PUSH2 0x2970 JUMPI DUP1 PUSH1 0x1 PUSH1 0x2 DUP2 LT PUSH2 0x2966 JUMPI INVALID JUMPDEST PUSH1 0x20 MUL ADD MLOAD PUSH2 0x2983 JUMP JUMPDEST DUP1 PUSH1 0x0 PUSH1 0x2 DUP2 LT PUSH2 0x297D JUMPI INVALID JUMPDEST PUSH1 0x20 MUL ADD MLOAD JUMPDEST SWAP5 POP DUP7 PUSH2 0x29A1 JUMPI DUP1 PUSH1 0x0 PUSH1 0x2 DUP2 LT PUSH2 0x2997 JUMPI INVALID JUMPDEST PUSH1 0x20 MUL ADD MLOAD PUSH2 0x29B4 JUMP JUMPDEST DUP1 PUSH1 0x1 PUSH1 0x2 DUP2 LT PUSH2 0x29AE JUMPI INVALID JUMPDEST PUSH1 0x20 MUL ADD MLOAD JUMPDEST SWAP4 POP POP POP POP SWAP4 POP SWAP4 POP SWAP4 SWAP1 POP JUMP JUMPDEST PUSH1 0x0 PUSH2 0x29D8 PUSH1 0x0 DUP4 PUSH2 0x3B9F SWAP1 SWAP2 SWAP1 PUSH4 0xFFFFFFFF AND JUMP JUMPDEST SWAP1 POP SWAP2 SWAP1 POP JUMP JUMPDEST PUSH1 0x0 PUSH2 0x29F5 PUSH1 0x16 DUP4 PUSH2 0x3B9F SWAP1 SWAP2 SWAP1 PUSH4 0xFFFFFFFF AND JUMP JUMPDEST SWAP1 POP SWAP2 SWAP1 POP JUMP JUMPDEST PUSH1 0x0 PUSH2 0x2A12 PUSH1 0x2C DUP4 PUSH2 0x3B0C SWAP1 SWAP2 SWAP1 PUSH4 0xFFFFFFFF AND JUMP JUMPDEST SWAP1 POP SWAP2 SWAP1 POP JUMP JUMPDEST PUSH1 0x0 PUSH2 0x2A2F PUSH1 0x4B DUP4 PUSH2 0x3BD1 SWAP1 SWAP2 SWAP1 PUSH4 0xFFFFFFFF AND JUMP JUMPDEST SWAP1 POP SWAP2 SWAP1 POP JUMP JUMPDEST PUSH1 0x0 PUSH2 0x2A4C PUSH1 0x55 DUP4 PUSH2 0x3BE6 SWAP1 SWAP2 SWAP1 PUSH4 0xFFFFFFFF AND JUMP JUMPDEST SWAP1 POP SWAP2 SWAP1 POP JUMP JUMPDEST PUSH1 0x0 PUSH2 0x2A69 PUSH1 0x56 DUP4 PUSH2 0x3BFC SWAP1 SWAP2 SWAP1 PUSH4 0xFFFFFFFF AND JUMP JUMPDEST SWAP1 POP SWAP2 SWAP1 POP JUMP JUMPDEST PUSH2 0x2A7D DUP2 DUP4 EQ PUSH1 0x67 PUSH2 0x2308 JUMP JUMPDEST POP POP JUMP JUMPDEST PUSH1 0x0 PUSH1 0x60 DUP1 PUSH2 0x2A8E PUSH2 0x5FF6 JUMP JUMPDEST PUSH2 0x2A96 PUSH2 0x2FC8 JUMP JUMPDEST SWAP1 POP PUSH2 0x2AA0 PUSH2 0x227D JUMP JUMPDEST ISZERO PUSH2 0x2B7D JUMPI PUSH1 0x0 PUSH2 0x2AD4 DUP10 DUP4 PUSH1 0x0 PUSH1 0x2 DUP2 LT PUSH2 0x2AB8 JUMPI INVALID JUMPDEST PUSH1 0x20 MUL ADD MLOAD DUP5 PUSH1 0x1 PUSH1 0x2 DUP2 LT PUSH2 0x2ACA JUMPI INVALID JUMPDEST PUSH1 0x20 MUL ADD MLOAD PUSH2 0x356B JUMP JUMPDEST SWAP1 POP PUSH2 0x2ADE PUSH2 0x5FF6 JUMP JUMPDEST PUSH2 0x2AE8 DUP4 DUP4 PUSH2 0x3B2B JUMP JUMPDEST SWAP1 POP PUSH2 0x2B41 DUP10 DUP12 PUSH1 0x0 DUP2 MLOAD DUP2 LT PUSH2 0x2AFB JUMPI INVALID JUMPDEST PUSH1 0x20 MUL PUSH1 0x20 ADD ADD MLOAD DUP13 PUSH1 0x1 DUP2 MLOAD DUP2 LT PUSH2 0x2B10 JUMPI INVALID JUMPDEST PUSH1 0x20 MUL PUSH1 0x20 ADD ADD MLOAD DUP5 PUSH1 0x0 PUSH1 0x2 DUP2 LT PUSH2 0x2B25 JUMPI INVALID JUMPDEST PUSH1 0x20 MUL ADD MLOAD DUP6 PUSH1 0x1 PUSH1 0x2 DUP2 LT PUSH2 0x2B37 JUMPI INVALID JUMPDEST PUSH1 0x20 MUL ADD MLOAD PUSH2 0x32A4 JUMP JUMPDEST PUSH2 0x2B4A DUP3 PUSH2 0x3C17 JUMP JUMPDEST PUSH2 0x2B54 DUP11 DUP9 PUSH2 0x3C44 JUMP JUMPDEST DUP1 SWAP7 POP DUP2 SWAP8 POP POP POP PUSH2 0x2B70 DUP3 DUP8 PUSH2 0x2B69 PUSH2 0xA5D JUMP JUMPDEST PUSH1 0x0 PUSH2 0x3C9F JUMP JUMPDEST PUSH1 0xA DUP2 SWAP1 SSTORE POP POP POP PUSH2 0x2BB7 JUMP JUMPDEST PUSH2 0x2B87 DUP9 DUP7 PUSH2 0x3C44 JUMP JUMPDEST DUP1 SWAP5 POP DUP2 SWAP6 POP POP POP PUSH32 0xFFFFFFFFFFFFFFFFFFFFFFFFFFFFFFFFFFFFFFFFFFFFFFFFFFFFFFFFFFFFFFFF PUSH1 0xA DUP2 SWAP1 SSTORE POP JUMPDEST DUP4 DUP4 PUSH1 0x2 PUSH8 0xFFFFFFFFFFFFFFFF DUP2 GT DUP1 ISZERO PUSH2 0x2BD1 JUMPI PUSH1 0x0 DUP1 REVERT JUMPDEST POP PUSH1 0x40 MLOAD SWAP1 DUP1 DUP3 MSTORE DUP1 PUSH1 0x20 MUL PUSH1 0x20 ADD DUP3 ADD PUSH1 0x40 MSTORE DUP1 ISZERO PUSH2 0x2C00 JUMPI DUP2 PUSH1 0x20 ADD PUSH1 0x20 DUP3 MUL DUP1 CALLDATASIZE DUP4 CALLDATACOPY DUP1 DUP3 ADD SWAP2 POP POP SWAP1 POP JUMPDEST POP SWAP4 POP SWAP4 POP SWAP4 POP POP SWAP8 POP SWAP8 POP SWAP8 SWAP5 POP POP POP POP POP JUMP JUMPDEST PUSH2 0x2C3C DUP2 PUSH1 0x0 DUP2 MLOAD DUP2 LT PUSH2 0x2C25 JUMPI INVALID JUMPDEST PUSH1 0x20 MUL PUSH1 0x20 ADD ADD MLOAD PUSH2 0x2C37 PUSH1 0x1 PUSH2 0x27F8 JUMP JUMPDEST PUSH2 0x3D33 JUMP JUMPDEST DUP2 PUSH1 0x0 DUP2 MLOAD DUP2 LT PUSH2 0x2C49 JUMPI INVALID JUMPDEST PUSH1 0x20 MUL PUSH1 0x20 ADD ADD DUP2 DUP2 MSTORE POP POP PUSH2 0x2C7C DUP2 PUSH1 0x1 DUP2 MLOAD DUP2 LT PUSH2 0x2C65 JUMPI INVALID JUMPDEST PUSH1 0x20 MUL PUSH1 0x20 ADD ADD MLOAD PUSH2 0x2C77 PUSH1 0x0 PUSH2 0x27F8 JUMP JUMPDEST PUSH2 0x3D33 JUMP JUMPDEST DUP2 PUSH1 0x1 DUP2 MLOAD DUP2 LT PUSH2 0x2C89 JUMPI INVALID JUMPDEST PUSH1 0x20 MUL PUSH1 0x20 ADD ADD DUP2 DUP2 MSTORE POP POP POP JUMP JUMPDEST ADDRESS PUSH20 0xFFFFFFFFFFFFFFFFFFFFFFFFFFFFFFFFFFFFFFFF AND CALLER PUSH20 0xFFFFFFFFFFFFFFFFFFFFFFFFFFFFFFFFFFFFFFFF AND EQ PUSH2 0x2DC3 JUMPI PUSH1 0x0 ADDRESS PUSH20 0xFFFFFFFFFFFFFFFFFFFFFFFFFFFFFFFFFFFFFFFF AND PUSH1 0x0 CALLDATASIZE PUSH1 0x40 MLOAD PUSH2 0x2CF5 SWAP3 SWAP2 SWAP1 PUSH2 0x71A5 JUMP JUMPDEST PUSH1 0x0 PUSH1 0x40 MLOAD DUP1 DUP4 SUB DUP2 PUSH1 0x0 DUP7 GAS CALL SWAP2 POP POP RETURNDATASIZE DUP1 PUSH1 0x0 DUP2 EQ PUSH2 0x2D32 JUMPI PUSH1 0x40 MLOAD SWAP2 POP PUSH1 0x1F NOT PUSH1 0x3F RETURNDATASIZE ADD AND DUP3 ADD PUSH1 0x40 MSTORE RETURNDATASIZE DUP3 MSTORE RETURNDATASIZE PUSH1 0x0 PUSH1 0x20 DUP5 ADD RETURNDATACOPY PUSH2 0x2D37 JUMP JUMPDEST PUSH1 0x60 SWAP2 POP JUMPDEST POP POP SWAP1 POP DUP1 PUSH1 0x0 DUP2 EQ PUSH2 0x2D46 JUMPI INVALID JUMPDEST PUSH1 0x4 PUSH1 0x0 DUP1 RETURNDATACOPY PUSH32 0xFFFFFFFF00000000000000000000000000000000000000000000000000000000 PUSH1 0x0 MLOAD AND PUSH1 0x0 PUSH32 0x43ADBAFB00000000000000000000000000000000000000000000000000000000 DUP3 EQ EQ ISZERO PUSH2 0x2DA6 JUMPI RETURNDATASIZE PUSH1 0x0 DUP1 RETURNDATACOPY RETURNDATASIZE PUSH1 0x0 REVERT JUMPDEST PUSH1 0x20 PUSH1 0x4 PUSH1 0x0 RETURNDATACOPY PUSH1 0x40 PUSH1 0x20 MSTORE PUSH1 0x24 RETURNDATASIZE SUB PUSH1 0x24 PUSH1 0x40 RETURNDATACOPY PUSH1 0x1C RETURNDATASIZE ADD PUSH1 0x0 RETURN JUMPDEST PUSH2 0x2DCC DUP7 PUSH2 0x3013 JUMP JUMPDEST PUSH1 0x0 PUSH1 0x60 PUSH2 0x2DE3 DUP12 DUP12 DUP12 DUP12 DUP12 DUP12 DUP12 DUP12 PUSH4 0xFFFFFFFF AND JUMP JUMPDEST POP SWAP2 POP SWAP2 POP PUSH2 0x2DF5 DUP2 DUP5 PUSH4 0xFFFFFFFF AND JUMP JUMPDEST PUSH1 0x20 DUP2 MLOAD MUL PUSH1 0x20 DUP3 SUB DUP4 DUP2 MSTORE PUSH4 0x43ADBAFB PUSH1 0x20 DUP3 SUB MSTORE PUSH1 0x4 DUP2 SUB SWAP1 POP PUSH1 0x44 DUP3 ADD DUP2 REVERT JUMPDEST PUSH1 0x0 PUSH1 0x8 PUSH1 0x0 DUP4 DUP2 MSTORE PUSH1 0x20 ADD SWAP1 DUP2 MSTORE PUSH1 0x20 ADD PUSH1 0x0 KECCAK256 SLOAD SWAP1 POP SWAP2 SWAP1 POP JUMP JUMPDEST PUSH1 0x0 DUP1 PUSH1 0x0 DUP1 PUSH1 0x0 DUP1 PUSH1 0x0 PUSH2 0x2E49 DUP9 PUSH2 0x3D56 JUMP JUMPDEST SWAP7 POP PUSH2 0x2E54 DUP9 PUSH2 0x3D73 JUMP JUMPDEST SWAP6 POP PUSH2 0x2E5F DUP9 PUSH2 0x3D90 JUMP JUMPDEST SWAP5 POP PUSH2 0x2E6A DUP9 PUSH2 0x3DAD JUMP JUMPDEST SWAP4 POP PUSH2 0x2E75 DUP9 PUSH2 0x3DCA JUMP JUMPDEST SWAP3 POP PUSH2 0x2E80 DUP9 PUSH2 0x3DE7 JUMP JUMPDEST SWAP2 POP PUSH2 0x2E8B DUP9 PUSH2 0x26A0 JUMP JUMPDEST SWAP1 POP SWAP2 SWAP4 SWAP6 SWAP8 SWAP1 SWAP3 SWAP5 SWAP7 POP JUMP JUMPDEST PUSH1 0x0 DUP1 DUP3 DUP5 MUL SWAP1 POP PUSH2 0x2EC1 PUSH1 0x0 DUP6 EQ DUP1 PUSH2 0x2EBA JUMPI POP DUP4 DUP6 DUP4 DUP2 PUSH2 0x2EB7 JUMPI INVALID JUMPDEST DIV EQ JUMPDEST PUSH1 0x3 PUSH2 0x2308 JUMP JUMPDEST DUP1 SWAP2 POP POP SWAP3 SWAP2 POP POP JUMP JUMPDEST PUSH1 0x0 PUSH2 0x2EDC PUSH1 0x0 DUP4 EQ ISZERO PUSH1 0x4 PUSH2 0x2308 JUMP JUMPDEST PUSH1 0x0 DUP4 EQ ISZERO PUSH2 0x2EEE JUMPI PUSH1 0x0 SWAP1 POP PUSH2 0x2F29 JUMP JUMPDEST PUSH1 0x0 PUSH8 0xDE0B6B3A7640000 DUP5 MUL SWAP1 POP PUSH2 0x2F1B PUSH8 0xDE0B6B3A7640000 DUP6 DUP4 DUP2 PUSH2 0x2F12 JUMPI INVALID JUMPDEST DIV EQ PUSH1 0x5 PUSH2 0x2308 JUMP JUMPDEST DUP3 DUP2 DUP2 PUSH2 0x2F24 JUMPI INVALID JUMPDEST DIV SWAP2 POP POP JUMPDEST SWAP3 SWAP2 POP POP JUMP JUMPDEST PUSH1 0x0 PUSH20 0x0 PUSH4 0x34171A85 PUSH1 0x8 DUP7 DUP7 DUP7 PUSH1 0x40 MLOAD DUP6 PUSH4 0xFFFFFFFF AND PUSH1 0xE0 SHL DUP2 MSTORE PUSH1 0x4 ADD PUSH2 0x2F6F SWAP5 SWAP4 SWAP3 SWAP2 SWAP1 PUSH2 0x759B JUMP JUMPDEST PUSH1 0x20 PUSH1 0x40 MLOAD DUP1 DUP4 SUB DUP2 DUP7 DUP1 EXTCODESIZE ISZERO DUP1 ISZERO PUSH2 0x2F87 JUMPI PUSH1 0x0 DUP1 REVERT JUMPDEST POP GAS DELEGATECALL ISZERO DUP1 ISZERO PUSH2 0x2F9B JUMPI RETURNDATASIZE PUSH1 0x0 DUP1 RETURNDATACOPY RETURNDATASIZE PUSH1 0x0 REVERT JUMPDEST POP POP POP POP PUSH1 0x40 MLOAD RETURNDATASIZE PUSH1 0x1F NOT PUSH1 0x1F DUP3 ADD AND DUP3 ADD DUP1 PUSH1 0x40 MSTORE POP DUP2 ADD SWAP1 PUSH2 0x2FBF SWAP2 SWAP1 PUSH2 0x6BFB JUMP JUMPDEST SWAP1 POP SWAP4 SWAP3 POP POP POP JUMP JUMPDEST PUSH2 0x2FD0 PUSH2 0x5FF6 JUMP JUMPDEST PUSH2 0x2FDA PUSH1 0x1 PUSH2 0x3E04 JUMP JUMPDEST DUP2 PUSH1 0x0 PUSH1 0x2 DUP2 LT PUSH2 0x2FE7 JUMPI INVALID JUMPDEST PUSH1 0x20 MUL ADD DUP2 DUP2 MSTORE POP POP PUSH2 0x2FFA PUSH1 0x0 PUSH2 0x3E04 JUMP JUMPDEST DUP2 PUSH1 0x1 PUSH1 0x2 DUP2 LT PUSH2 0x3007 JUMPI INVALID JUMPDEST PUSH1 0x20 MUL ADD DUP2 DUP2 MSTORE POP POP SWAP1 JUMP JUMPDEST PUSH2 0x303A DUP2 PUSH1 0x0 DUP2 MLOAD DUP2 LT PUSH2 0x3023 JUMPI INVALID JUMPDEST PUSH1 0x20 MUL PUSH1 0x20 ADD ADD MLOAD PUSH2 0x3035 PUSH1 0x1 PUSH2 0x27F8 JUMP JUMPDEST PUSH2 0x2E98 JUMP JUMPDEST DUP2 PUSH1 0x0 DUP2 MLOAD DUP2 LT PUSH2 0x3047 JUMPI INVALID JUMPDEST PUSH1 0x20 MUL PUSH1 0x20 ADD ADD DUP2 DUP2 MSTORE POP POP PUSH2 0x307A DUP2 PUSH1 0x1 DUP2 MLOAD DUP2 LT PUSH2 0x3063 JUMPI INVALID JUMPDEST PUSH1 0x20 MUL PUSH1 0x20 ADD ADD MLOAD PUSH2 0x3075 PUSH1 0x0 PUSH2 0x27F8 JUMP JUMPDEST PUSH2 0x2E98 JUMP JUMPDEST DUP2 PUSH1 0x1 DUP2 MLOAD DUP2 LT PUSH2 0x3087 JUMPI INVALID JUMPDEST PUSH1 0x20 MUL PUSH1 0x20 ADD ADD DUP2 DUP2 MSTORE POP POP POP JUMP JUMPDEST PUSH2 0x30A0 DUP3 DUP3 PUSH2 0x3E5A JUMP JUMPDEST POP POP JUMP JUMPDEST PUSH1 0x0 PUSH1 0x60 DUP1 PUSH2 0x30B1 PUSH2 0x5FF6 JUMP JUMPDEST PUSH2 0x30B9 PUSH2 0x2FC8 JUMP JUMPDEST SWAP1 POP PUSH1 0x0 PUSH2 0x30EA DUP10 DUP4 PUSH1 0x0 PUSH1 0x2 DUP2 LT PUSH2 0x30CE JUMPI INVALID JUMPDEST PUSH1 0x20 MUL ADD MLOAD DUP5 PUSH1 0x1 PUSH1 0x2 DUP2 LT PUSH2 0x30E0 JUMPI INVALID JUMPDEST PUSH1 0x20 MUL ADD MLOAD PUSH2 0x356B JUMP JUMPDEST SWAP1 POP PUSH2 0x30F4 PUSH2 0x5FF6 JUMP JUMPDEST PUSH2 0x30FE DUP4 DUP4 PUSH2 0x3B2B JUMP JUMPDEST SWAP1 POP PUSH2 0x3157 DUP10 DUP12 PUSH1 0x0 DUP2 MLOAD DUP2 LT PUSH2 0x3111 JUMPI INVALID JUMPDEST PUSH1 0x20 MUL PUSH1 0x20 ADD ADD MLOAD DUP13 PUSH1 0x1 DUP2 MLOAD DUP2 LT PUSH2 0x3126 JUMPI INVALID JUMPDEST PUSH1 0x20 MUL PUSH1 0x20 ADD ADD MLOAD DUP5 PUSH1 0x0 PUSH1 0x2 DUP2 LT PUSH2 0x313B JUMPI INVALID JUMPDEST PUSH1 0x20 MUL ADD MLOAD DUP6 PUSH1 0x1 PUSH1 0x2 DUP2 LT PUSH2 0x314D JUMPI INVALID JUMPDEST PUSH1 0x20 MUL ADD MLOAD PUSH2 0x32A4 JUMP JUMPDEST PUSH2 0x3160 DUP3 PUSH2 0x3C17 JUMP JUMPDEST PUSH1 0x0 PUSH1 0x60 PUSH2 0x316E DUP13 DUP11 PUSH2 0x3FBE JUMP JUMPDEST SWAP2 POP SWAP2 POP PUSH1 0xB PUSH1 0x0 ADD PUSH1 0x0 SWAP1 SLOAD SWAP1 PUSH2 0x100 EXP SWAP1 DIV PUSH1 0xFF AND ISZERO PUSH2 0x31A5 JUMPI PUSH2 0x31A4 DUP3 PUSH2 0x3197 DUP16 PUSH2 0x11C0 JUMP JUMPDEST PUSH2 0x319F PUSH2 0xA5D JUMP JUMPDEST PUSH2 0x4018 JUMP JUMPDEST JUMPDEST PUSH2 0x31B9 DUP5 DUP4 PUSH2 0x31B2 PUSH2 0xA5D JUMP JUMPDEST PUSH1 0x1 PUSH2 0x3C9F JUMP JUMPDEST PUSH1 0xA DUP2 SWAP1 SSTORE POP DUP2 DUP2 PUSH1 0x2 PUSH8 0xFFFFFFFFFFFFFFFF DUP2 GT DUP1 ISZERO PUSH2 0x31D9 JUMPI PUSH1 0x0 DUP1 REVERT JUMPDEST POP PUSH1 0x40 MLOAD SWAP1 DUP1 DUP3 MSTORE DUP1 PUSH1 0x20 MUL PUSH1 0x20 ADD DUP3 ADD PUSH1 0x40 MSTORE DUP1 ISZERO PUSH2 0x3208 JUMPI DUP2 PUSH1 0x20 ADD PUSH1 0x20 DUP3 MUL DUP1 CALLDATASIZE DUP4 CALLDATACOPY DUP1 DUP3 ADD SWAP2 POP POP SWAP1 POP JUMPDEST POP SWAP8 POP SWAP8 POP SWAP8 POP POP POP POP POP POP SWAP8 POP SWAP8 POP SWAP8 SWAP5 POP POP POP POP POP JUMP JUMPDEST PUSH2 0x3248 DUP2 PUSH1 0x0 DUP2 MLOAD DUP2 LT PUSH2 0x3231 JUMPI INVALID JUMPDEST PUSH1 0x20 MUL PUSH1 0x20 ADD ADD MLOAD PUSH2 0x3243 PUSH1 0x1 PUSH2 0x27F8 JUMP JUMPDEST PUSH2 0x4228 JUMP JUMPDEST DUP2 PUSH1 0x0 DUP2 MLOAD DUP2 LT PUSH2 0x3255 JUMPI INVALID JUMPDEST PUSH1 0x20 MUL PUSH1 0x20 ADD ADD DUP2 DUP2 MSTORE POP POP PUSH2 0x3288 DUP2 PUSH1 0x1 DUP2 MLOAD DUP2 LT PUSH2 0x3271 JUMPI INVALID JUMPDEST PUSH1 0x20 MUL PUSH1 0x20 ADD ADD MLOAD PUSH2 0x3283 PUSH1 0x0 PUSH2 0x27F8 JUMP JUMPDEST PUSH2 0x4228 JUMP JUMPDEST DUP2 PUSH1 0x1 DUP2 MLOAD DUP2 LT PUSH2 0x3295 JUMPI INVALID JUMPDEST PUSH1 0x20 MUL PUSH1 0x20 ADD ADD DUP2 DUP2 MSTORE POP POP POP JUMP JUMPDEST PUSH1 0x0 PUSH1 0x9 SLOAD SWAP1 POP PUSH2 0x32B4 DUP2 PUSH2 0x2A36 JUMP JUMPDEST DUP1 ISZERO PUSH2 0x32BF JUMPI POP DUP6 NUMBER GT JUMPDEST ISZERO PUSH2 0x335F JUMPI PUSH1 0x0 PUSH2 0x32D2 DUP7 DUP6 DUP8 DUP7 PUSH2 0x4264 JUMP JUMPDEST SWAP1 POP PUSH1 0x0 PUSH2 0x32EB DUP8 DUP7 DUP9 DUP8 PUSH2 0x32E6 DUP9 PUSH2 0x29DF JUMP JUMPDEST PUSH2 0x4289 JUMP JUMPDEST SWAP1 POP PUSH1 0x0 PUSH2 0x32F8 DUP5 PUSH2 0x2A19 JUMP JUMPDEST SWAP1 POP PUSH1 0x0 PUSH2 0x3305 DUP6 PUSH2 0x29FC JUMP JUMPDEST SWAP1 POP PUSH1 0x0 PUSH2 0x331E DUP3 DUP5 DUP8 DUP8 PUSH2 0x3319 DUP12 PUSH2 0x29C2 JUMP JUMPDEST PUSH2 0x42E1 JUMP JUMPDEST SWAP1 POP DUP1 DUP4 EQ PUSH2 0x3359 JUMPI PUSH2 0x333A DUP2 DUP8 PUSH2 0x434F SWAP1 SWAP2 SWAP1 PUSH4 0xFFFFFFFF AND JUMP JUMPDEST SWAP6 POP PUSH2 0x334F TIMESTAMP DUP8 PUSH2 0x436F SWAP1 SWAP2 SWAP1 PUSH4 0xFFFFFFFF AND JUMP JUMPDEST SWAP6 POP DUP6 PUSH1 0x9 DUP2 SWAP1 SSTORE POP JUMPDEST POP POP POP POP POP JUMPDEST POP POP POP POP POP POP JUMP JUMPDEST PUSH1 0x0 DUP1 DUP3 DUP5 MUL SWAP1 POP PUSH2 0x3390 PUSH1 0x0 DUP6 EQ DUP1 PUSH2 0x3389 JUMPI POP DUP4 DUP6 DUP4 DUP2 PUSH2 0x3386 JUMPI INVALID JUMPDEST DIV EQ JUMPDEST PUSH1 0x3 PUSH2 0x2308 JUMP JUMPDEST PUSH1 0x0 DUP2 EQ ISZERO PUSH2 0x33A3 JUMPI PUSH1 0x0 SWAP2 POP POP PUSH2 0x33BF JUMP JUMPDEST PUSH1 0x1 PUSH8 0xDE0B6B3A7640000 PUSH1 0x1 DUP4 SUB DUP2 PUSH2 0x33B9 JUMPI INVALID JUMPDEST DIV ADD SWAP2 POP POP JUMPDEST SWAP3 SWAP2 POP POP JUMP JUMPDEST PUSH1 0x0 PUSH2 0x33D5 DUP4 DUP4 GT ISZERO PUSH1 0x1 PUSH2 0x2308 JUMP JUMPDEST PUSH1 0x0 DUP3 DUP5 SUB SWAP1 POP DUP1 SWAP2 POP POP SWAP3 SWAP2 POP POP JUMP JUMPDEST PUSH1 0x0 PUSH2 0x33F9 DUP6 DUP6 DUP9 PUSH1 0x60 ADD MLOAD DUP7 DUP7 PUSH2 0x438F JUMP JUMPDEST SWAP1 POP SWAP6 SWAP5 POP POP POP POP POP JUMP JUMPDEST PUSH1 0x0 PUSH2 0x3410 DUP4 DUP4 PUSH2 0x3D33 JUMP JUMPDEST SWAP1 POP SWAP3 SWAP2 POP POP JUMP JUMPDEST PUSH1 0x0 PUSH2 0x342B DUP6 DUP6 DUP9 PUSH1 0x60 ADD MLOAD DUP7 DUP7 PUSH2 0x449D JUMP JUMPDEST SWAP1 POP SWAP6 SWAP5 POP POP POP POP POP JUMP JUMPDEST PUSH1 0x0 PUSH2 0x3442 DUP4 DUP4 PUSH2 0x4228 JUMP JUMPDEST SWAP1 POP SWAP3 SWAP2 POP POP JUMP JUMPDEST PUSH1 0x0 PUSH8 0xDE0B6B3A7640000 DUP3 LT PUSH2 0x3462 JUMPI PUSH1 0x0 PUSH2 0x346E JUMP JUMPDEST DUP2 PUSH8 0xDE0B6B3A7640000 SUB JUMPDEST SWAP1 POP SWAP2 SWAP1 POP JUMP JUMPDEST PUSH1 0x0 PUSH2 0x3486 PUSH1 0x0 DUP4 EQ ISZERO PUSH1 0x4 PUSH2 0x2308 JUMP JUMPDEST PUSH1 0x0 DUP4 EQ ISZERO PUSH2 0x3498 JUMPI PUSH1 0x0 SWAP1 POP PUSH2 0x34D9 JUMP JUMPDEST PUSH1 0x0 PUSH8 0xDE0B6B3A7640000 DUP5 MUL SWAP1 POP PUSH2 0x34C5 PUSH8 0xDE0B6B3A7640000 DUP6 DUP4 DUP2 PUSH2 0x34BC JUMPI INVALID JUMPDEST DIV EQ PUSH1 0x5 PUSH2 0x2308 JUMP JUMPDEST PUSH1 0x1 DUP4 PUSH1 0x1 DUP4 SUB DUP2 PUSH2 0x34D3 JUMPI INVALID JUMPDEST DIV ADD SWAP2 POP POP JUMPDEST SWAP3 SWAP2 POP POP JUMP JUMPDEST PUSH1 0x0 PUSH2 0x34E9 PUSH2 0x15B6 JUMP JUMPDEST PUSH20 0xFFFFFFFFFFFFFFFFFFFFFFFFFFFFFFFFFFFFFFFF AND PUSH4 0xAAABADC5 PUSH1 0x40 MLOAD DUP2 PUSH4 0xFFFFFFFF AND PUSH1 0xE0 SHL DUP2 MSTORE PUSH1 0x4 ADD PUSH1 0x20 PUSH1 0x40 MLOAD DUP1 DUP4 SUB DUP2 DUP7 DUP1 EXTCODESIZE ISZERO DUP1 ISZERO PUSH2 0x352E JUMPI PUSH1 0x0 DUP1 REVERT JUMPDEST POP GAS STATICCALL ISZERO DUP1 ISZERO PUSH2 0x3542 JUMPI RETURNDATASIZE PUSH1 0x0 DUP1 RETURNDATACOPY RETURNDATASIZE PUSH1 0x0 REVERT JUMPDEST POP POP POP POP PUSH1 0x40 MLOAD RETURNDATASIZE PUSH1 0x1F NOT PUSH1 0x1F DUP3 ADD AND DUP3 ADD DUP1 PUSH1 0x40 MSTORE POP DUP2 ADD SWAP1 PUSH2 0x3566 SWAP2 SWAP1 PUSH2 0x6A8B JUMP JUMPDEST SWAP1 POP SWAP1 JUMP JUMPDEST PUSH1 0x0 DUP1 PUSH1 0x0 DUP1 PUSH1 0x0 PUSH2 0x357E DUP9 DUP9 DUP9 PUSH2 0x45AB JUMP JUMPDEST SWAP4 POP SWAP4 POP SWAP4 POP SWAP4 POP PUSH2 0x3592 DUP5 DUP5 DUP5 DUP5 PUSH2 0x4800 JUMP JUMPDEST SWAP5 POP POP POP POP POP SWAP4 SWAP3 POP POP POP JUMP JUMPDEST PUSH1 0x0 PUSH2 0x35A9 PUSH2 0x26BD JUMP JUMPDEST DUP3 PUSH1 0x40 MLOAD PUSH1 0x20 ADD PUSH2 0x35BB SWAP3 SWAP2 SWAP1 PUSH2 0x71BE JUMP JUMPDEST PUSH1 0x40 MLOAD PUSH1 0x20 DUP2 DUP4 SUB SUB DUP2 MSTORE SWAP1 PUSH1 0x40 MSTORE DUP1 MLOAD SWAP1 PUSH1 0x20 ADD KECCAK256 SWAP1 POP SWAP2 SWAP1 POP JUMP JUMPDEST PUSH1 0x0 PUSH1 0x60 PUSH1 0x0 PUSH2 0x35E7 DUP5 PUSH2 0x48B6 JUMP JUMPDEST SWAP1 POP PUSH2 0x360D PUSH1 0x0 PUSH1 0x3 DUP2 GT ISZERO PUSH2 0x35F9 JUMPI INVALID JUMPDEST DUP3 PUSH1 0x3 DUP2 GT ISZERO PUSH2 0x3605 JUMPI INVALID JUMPDEST EQ PUSH1 0xCE PUSH2 0x2308 JUMP JUMPDEST PUSH1 0x60 PUSH2 0x3618 DUP6 PUSH2 0x48D3 JUMP JUMPDEST SWAP1 POP PUSH2 0x3626 DUP2 MLOAD PUSH1 0x2 PUSH2 0x2A70 JUMP JUMPDEST PUSH2 0x362F DUP2 PUSH2 0x3013 JUMP JUMPDEST PUSH2 0x3637 PUSH2 0x5FF6 JUMP JUMPDEST PUSH2 0x363F PUSH2 0x2FC8 JUMP JUMPDEST SWAP1 POP PUSH1 0x0 PUSH2 0x3670 DUP4 DUP4 PUSH1 0x0 PUSH1 0x2 DUP2 LT PUSH2 0x3654 JUMPI INVALID JUMPDEST PUSH1 0x20 MUL ADD MLOAD DUP5 PUSH1 0x1 PUSH1 0x2 DUP2 LT PUSH2 0x3666 JUMPI INVALID JUMPDEST PUSH1 0x20 MUL ADD MLOAD PUSH2 0x356B JUMP JUMPDEST SWAP1 POP PUSH1 0x0 PUSH2 0x367F DUP3 PUSH1 0x2 PUSH2 0x2E98 JUMP JUMPDEST SWAP1 POP DUP2 PUSH1 0xA DUP2 SWAP1 SSTORE POP DUP1 DUP5 SWAP7 POP SWAP7 POP POP POP POP POP POP SWAP5 POP SWAP5 SWAP3 POP POP POP JUMP JUMPDEST PUSH2 0x36A6 DUP3 DUP3 PUSH2 0x48F4 JUMP JUMPDEST POP POP JUMP JUMPDEST POP POP POP JUMP JUMPDEST PUSH1 0x0 PUSH1 0x1 PUSH1 0x0 DUP5 PUSH20 0xFFFFFFFFFFFFFFFFFFFFFFFFFFFFFFFFFFFFFFFF AND PUSH20 0xFFFFFFFFFFFFFFFFFFFFFFFFFFFFFFFFFFFFFFFF AND DUP2 MSTORE PUSH1 0x20 ADD SWAP1 DUP2 MSTORE PUSH1 0x20 ADD PUSH1 0x0 KECCAK256 PUSH1 0x0 DUP4 PUSH20 0xFFFFFFFFFFFFFFFFFFFFFFFFFFFFFFFFFFFFFFFF AND PUSH20 0xFFFFFFFFFFFFFFFFFFFFFFFFFFFFFFFFFFFFFFFF AND DUP2 MSTORE PUSH1 0x20 ADD SWAP1 DUP2 MSTORE PUSH1 0x20 ADD PUSH1 0x0 KECCAK256 SLOAD SWAP1 POP SWAP3 SWAP2 POP POP JUMP JUMPDEST PUSH1 0x60 DUP1 PUSH1 0x2 PUSH8 0xFFFFFFFFFFFFFFFF DUP2 GT DUP1 ISZERO PUSH2 0x3751 JUMPI PUSH1 0x0 DUP1 REVERT JUMPDEST POP PUSH1 0x40 MLOAD SWAP1 DUP1 DUP3 MSTORE DUP1 PUSH1 0x20 MUL PUSH1 0x20 ADD DUP3 ADD PUSH1 0x40 MSTORE DUP1 ISZERO PUSH2 0x3780 JUMPI DUP2 PUSH1 0x20 ADD PUSH1 0x20 DUP3 MUL DUP1 CALLDATASIZE DUP4 CALLDATACOPY DUP1 DUP3 ADD SWAP2 POP POP SWAP1 POP JUMPDEST POP SWAP1 POP PUSH2 0x378D PUSH1 0x1 PUSH2 0x4A18 JUMP JUMPDEST DUP2 PUSH1 0x0 DUP2 MLOAD DUP2 LT PUSH2 0x379A JUMPI INVALID JUMPDEST PUSH1 0x20 MUL PUSH1 0x20 ADD ADD DUP2 DUP2 MSTORE POP POP PUSH2 0x37B0 PUSH1 0x0 PUSH2 0x4A18 JUMP JUMPDEST DUP2 PUSH1 0x1 DUP2 MLOAD DUP2 LT PUSH2 0x37BD JUMPI INVALID JUMPDEST PUSH1 0x20 MUL PUSH1 0x20 ADD ADD DUP2 DUP2 MSTORE POP POP DUP1 SWAP2 POP POP SWAP1 JUMP JUMPDEST PUSH1 0x2 DUP2 MLOAD LT ISZERO PUSH2 0x37DF JUMPI PUSH2 0x386B JUMP JUMPDEST PUSH1 0x0 DUP2 PUSH1 0x0 DUP2 MLOAD DUP2 LT PUSH2 0x37EE JUMPI INVALID JUMPDEST PUSH1 0x20 MUL PUSH1 0x20 ADD ADD MLOAD SWAP1 POP PUSH1 0x0 PUSH1 0x1 SWAP1 POP JUMPDEST DUP3 MLOAD DUP2 LT ISZERO PUSH2 0x3868 JUMPI PUSH1 0x0 DUP4 DUP3 DUP2 MLOAD DUP2 LT PUSH2 0x3816 JUMPI INVALID JUMPDEST PUSH1 0x20 MUL PUSH1 0x20 ADD ADD MLOAD SWAP1 POP PUSH2 0x3859 DUP2 PUSH20 0xFFFFFFFFFFFFFFFFFFFFFFFFFFFFFFFFFFFFFFFF AND DUP5 PUSH20 0xFFFFFFFFFFFFFFFFFFFFFFFFFFFFFFFFFFFFFFFF AND LT PUSH1 0x65 PUSH2 0x2308 JUMP JUMPDEST DUP1 SWAP3 POP POP DUP1 PUSH1 0x1 ADD SWAP1 POP PUSH2 0x37FF JUMP JUMPDEST POP POP JUMPDEST POP JUMP JUMPDEST PUSH1 0x0 PUSH20 0xBA1BA1BA1BA1BA1BA1BA1BA1BA1BA1BA1BA1BA1B PUSH20 0xFFFFFFFFFFFFFFFFFFFFFFFFFFFFFFFFFFFFFFFF AND PUSH2 0x38A3 PUSH2 0x158E JUMP JUMPDEST PUSH20 0xFFFFFFFFFFFFFFFFFFFFFFFFFFFFFFFFFFFFFFFF AND EQ ISZERO DUP1 ISZERO PUSH2 0x38CC JUMPI POP PUSH2 0x38CB DUP4 PUSH2 0x4A6E JUMP JUMPDEST JUMPDEST ISZERO PUSH2 0x390E JUMPI PUSH2 0x38D9 PUSH2 0x158E JUMP JUMPDEST PUSH20 0xFFFFFFFFFFFFFFFFFFFFFFFFFFFFFFFFFFFFFFFF AND CALLER PUSH20 0xFFFFFFFFFFFFFFFFFFFFFFFFFFFFFFFFFFFFFFFF AND EQ SWAP1 POP PUSH2 0x39A5 JUMP JUMPDEST PUSH2 0x3916 PUSH2 0x34DF JUMP JUMPDEST PUSH20 0xFFFFFFFFFFFFFFFFFFFFFFFFFFFFFFFFFFFFFFFF AND PUSH4 0x9BE2A884 DUP5 DUP5 ADDRESS PUSH1 0x40 MLOAD DUP5 PUSH4 0xFFFFFFFF AND PUSH1 0xE0 SHL DUP2 MSTORE PUSH1 0x4 ADD PUSH2 0x3952 SWAP4 SWAP3 SWAP2 SWAP1 PUSH2 0x7313 JUMP JUMPDEST PUSH1 0x20 PUSH1 0x40 MLOAD DUP1 DUP4 SUB DUP2 DUP7 DUP1 EXTCODESIZE ISZERO DUP1 ISZERO PUSH2 0x396A JUMPI PUSH1 0x0 DUP1 REVERT JUMPDEST POP GAS STATICCALL ISZERO DUP1 ISZERO PUSH2 0x397E JUMPI RETURNDATASIZE PUSH1 0x0 DUP1 RETURNDATACOPY RETURNDATASIZE PUSH1 0x0 REVERT JUMPDEST POP POP POP POP PUSH1 0x40 MLOAD RETURNDATASIZE PUSH1 0x1F NOT PUSH1 0x1F DUP3 ADD AND DUP3 ADD DUP1 PUSH1 0x40 MSTORE POP DUP2 ADD SWAP1 PUSH2 0x39A2 SWAP2 SWAP1 PUSH2 0x696B JUMP JUMPDEST SWAP1 POP JUMPDEST SWAP3 SWAP2 POP POP JUMP JUMPDEST PUSH1 0x30 PUSH1 0xA DUP3 MOD ADD PUSH1 0xA DUP3 DIV SWAP2 POP PUSH1 0x30 PUSH1 0xA DUP4 MOD ADD PUSH1 0xA DUP4 DIV SWAP3 POP PUSH1 0x30 PUSH1 0xA DUP5 MOD ADD DUP1 PUSH1 0x10 SHL DUP3 PUSH1 0x8 SHL DUP5 ADD ADD PUSH7 0x42414C23000000 ADD PUSH1 0xC8 SHL PUSH32 0x8C379A000000000000000000000000000000000000000000000000000000000 PUSH1 0x0 MSTORE PUSH1 0x20 PUSH1 0x4 MSTORE PUSH1 0x7 PUSH1 0x24 MSTORE DUP1 PUSH1 0x44 MSTORE PUSH1 0x64 PUSH1 0x0 REVERT JUMPDEST POP POP POP JUMP JUMPDEST PUSH1 0x0 PUSH2 0x3A2F DUP5 DUP5 GT ISZERO DUP4 PUSH2 0x2308 JUMP JUMPDEST PUSH1 0x0 DUP4 DUP6 SUB SWAP1 POP DUP1 SWAP2 POP POP SWAP4 SWAP3 POP POP POP JUMP JUMPDEST PUSH1 0x0 DUP1 PUSH2 0x3A4D DUP4 PUSH2 0x4AA2 JUMP JUMPDEST SWAP1 POP PUSH1 0x0 DUP1 DUP3 SGT PUSH2 0x3A66 JUMPI PUSH6 0x2D79883D2000 DUP3 SUB PUSH2 0x3A70 JUMP JUMPDEST PUSH6 0x2D79883D2000 DUP3 ADD JUMPDEST SWAP1 POP PUSH6 0x5AF3107A4000 DUP2 DUP2 PUSH2 0x3A81 JUMPI INVALID JUMPDEST SDIV SWAP3 POP POP POP SWAP2 SWAP1 POP JUMP JUMPDEST PUSH1 0x0 PUSH2 0x3AA3 DUP3 PUSH1 0x0 DUP6 PUSH2 0x4B1B SWAP1 SWAP3 SWAP2 SWAP1 PUSH4 0xFFFFFFFF AND JUMP JUMPDEST SWAP1 POP SWAP3 SWAP2 POP POP JUMP JUMPDEST PUSH1 0x0 PUSH2 0x3AC3 DUP3 PUSH1 0x16 DUP6 PUSH2 0x4B1B SWAP1 SWAP3 SWAP2 SWAP1 PUSH4 0xFFFFFFFF AND JUMP JUMPDEST SWAP1 POP SWAP3 SWAP2 POP POP JUMP JUMPDEST PUSH1 0x0 DUP2 DUP4 SWAP1 SHL PUSH1 0x0 SHL SWAP1 POP SWAP3 SWAP2 POP POP JUMP JUMPDEST PUSH1 0x0 DUP2 PUSH7 0x1FFFFFFFFFFFFF DUP5 AND SWAP1 SHL PUSH1 0x0 SHL SWAP1 POP SWAP3 SWAP2 POP POP JUMP JUMPDEST PUSH1 0x0 DUP2 PUSH3 0x3FFFFF DUP5 AND SWAP1 SHL PUSH1 0x0 SHL SWAP1 POP SWAP3 SWAP2 POP POP JUMP JUMPDEST PUSH1 0x0 PUSH4 0x7FFFFFFF DUP3 DUP5 SWAP1 SHR PUSH1 0x0 SHR AND SWAP1 POP SWAP3 SWAP2 POP POP JUMP JUMPDEST PUSH1 0x0 CHAINID SWAP1 POP SWAP1 JUMP JUMPDEST PUSH2 0x3B33 PUSH2 0x5FF6 JUMP JUMPDEST PUSH2 0x3B50 PUSH1 0x1 DUP5 PUSH1 0x1 PUSH1 0x2 DUP2 LT PUSH2 0x3B45 JUMPI INVALID JUMPDEST PUSH1 0x20 MUL ADD MLOAD DUP5 PUSH2 0x4B48 JUMP JUMPDEST DUP2 PUSH1 0x0 PUSH1 0x2 DUP2 LT PUSH2 0x3B5D JUMPI INVALID JUMPDEST PUSH1 0x20 MUL ADD DUP2 DUP2 MSTORE POP POP PUSH2 0x3B83 PUSH1 0x0 DUP5 PUSH1 0x0 PUSH1 0x2 DUP2 LT PUSH2 0x3B78 JUMPI INVALID JUMPDEST PUSH1 0x20 MUL ADD MLOAD DUP5 PUSH2 0x4B48 JUMP JUMPDEST DUP2 PUSH1 0x1 PUSH1 0x2 DUP2 LT PUSH2 0x3B90 JUMPI INVALID JUMPDEST PUSH1 0x20 MUL ADD DUP2 DUP2 MSTORE POP POP SWAP3 SWAP2 POP POP JUMP JUMPDEST PUSH1 0x0 DUP1 PUSH3 0x3FFFFF DUP4 DUP6 SWAP1 SHR PUSH1 0x0 SHR AND SWAP1 POP PUSH3 0x1FFFFF DUP2 SGT PUSH2 0x3BC0 JUMPI DUP1 PUSH2 0x3BC8 JUMP JUMPDEST PUSH3 0x3FFFFF NOT DUP2 OR JUMPDEST SWAP2 POP POP SWAP3 SWAP2 POP POP JUMP JUMPDEST PUSH1 0x0 PUSH2 0x3FF DUP3 DUP5 SWAP1 SHR PUSH1 0x0 SHR AND SWAP1 POP SWAP3 SWAP2 POP POP JUMP JUMPDEST PUSH1 0x0 PUSH1 0x1 DUP1 DUP4 DUP6 SWAP1 SHR PUSH1 0x0 SHR AND EQ SWAP1 POP SWAP3 SWAP2 POP POP JUMP JUMPDEST PUSH1 0x0 PUSH8 0xFFFFFFFFFFFFFFFF DUP3 DUP5 SWAP1 SHR PUSH1 0x0 SHR AND SWAP1 POP SWAP3 SWAP2 POP POP JUMP JUMPDEST PUSH1 0x0 DUP1 PUSH1 0x0 DUP1 PUSH2 0x3C29 PUSH1 0xA SLOAD DUP7 PUSH2 0x4B72 JUMP JUMPDEST SWAP4 POP SWAP4 POP SWAP4 POP SWAP4 POP PUSH2 0x3C3D DUP5 DUP5 DUP5 DUP5 PUSH2 0x4BE4 JUMP JUMPDEST POP POP POP POP POP JUMP JUMPDEST PUSH1 0x0 PUSH1 0x60 PUSH1 0x0 PUSH2 0x3C53 DUP5 PUSH2 0x4C12 JUMP JUMPDEST SWAP1 POP PUSH1 0x1 PUSH1 0x3 DUP2 GT ISZERO PUSH2 0x3C62 JUMPI INVALID JUMPDEST DUP2 PUSH1 0x3 DUP2 GT ISZERO PUSH2 0x3C6E JUMPI INVALID JUMPDEST EQ ISZERO PUSH2 0x3C8B JUMPI PUSH2 0x3C7E DUP6 DUP6 PUSH2 0x4C2F JUMP JUMPDEST DUP1 SWAP4 POP DUP2 SWAP5 POP POP POP PUSH2 0x3C97 JUMP JUMPDEST PUSH2 0x3C96 PUSH2 0x150 PUSH2 0x39AB JUMP JUMPDEST JUMPDEST POP SWAP3 POP SWAP3 SWAP1 POP JUMP JUMPDEST PUSH1 0x0 DUP2 ISZERO PUSH2 0x3CEB JUMPI PUSH1 0x0 PUSH2 0x3CCE DUP5 PUSH2 0x3CC0 DUP8 DUP10 PUSH2 0x3367 SWAP1 SWAP2 SWAP1 PUSH4 0xFFFFFFFF AND JUMP JUMPDEST PUSH2 0x3475 SWAP1 SWAP2 SWAP1 PUSH4 0xFFFFFFFF AND JUMP JUMPDEST SWAP1 POP PUSH2 0x3CE3 DUP2 DUP8 PUSH2 0x4C65 SWAP1 SWAP2 SWAP1 PUSH4 0xFFFFFFFF AND JUMP JUMPDEST SWAP2 POP POP PUSH2 0x3D2B JUMP JUMPDEST PUSH1 0x0 PUSH2 0x3D12 DUP5 PUSH2 0x3D04 DUP8 DUP10 PUSH2 0x4C85 SWAP1 SWAP2 SWAP1 PUSH4 0xFFFFFFFF AND JUMP JUMPDEST PUSH2 0x2ECB SWAP1 SWAP2 SWAP1 PUSH4 0xFFFFFFFF AND JUMP JUMPDEST SWAP1 POP PUSH2 0x3D27 DUP2 DUP8 PUSH2 0x33C5 SWAP1 SWAP2 SWAP1 PUSH4 0xFFFFFFFF AND JUMP JUMPDEST SWAP2 POP POP JUMPDEST SWAP5 SWAP4 POP POP POP POP JUMP JUMPDEST PUSH1 0x0 PUSH2 0x3D44 PUSH1 0x0 DUP4 EQ ISZERO PUSH1 0x4 PUSH2 0x2308 JUMP JUMPDEST DUP2 DUP4 DUP2 PUSH2 0x3D4D JUMPI INVALID JUMPDEST DIV SWAP1 POP SWAP3 SWAP2 POP POP JUMP JUMPDEST PUSH1 0x0 PUSH2 0x3D6C PUSH1 0xEA DUP4 PUSH2 0x3B9F SWAP1 SWAP2 SWAP1 PUSH4 0xFFFFFFFF AND JUMP JUMPDEST SWAP1 POP SWAP2 SWAP1 POP JUMP JUMPDEST PUSH1 0x0 PUSH2 0x3D89 PUSH1 0xB5 DUP4 PUSH2 0x4CC9 SWAP1 SWAP2 SWAP1 PUSH4 0xFFFFFFFF AND JUMP JUMPDEST SWAP1 POP SWAP2 SWAP1 POP JUMP JUMPDEST PUSH1 0x0 PUSH2 0x3DA6 PUSH1 0x9F DUP4 PUSH2 0x3B9F SWAP1 SWAP2 SWAP1 PUSH4 0xFFFFFFFF AND JUMP JUMPDEST SWAP1 POP SWAP2 SWAP1 POP JUMP JUMPDEST PUSH1 0x0 PUSH2 0x3DC3 PUSH1 0x6A DUP4 PUSH2 0x4CC9 SWAP1 SWAP2 SWAP1 PUSH4 0xFFFFFFFF AND JUMP JUMPDEST SWAP1 POP SWAP2 SWAP1 POP JUMP JUMPDEST PUSH1 0x0 PUSH2 0x3DE0 PUSH1 0x54 DUP4 PUSH2 0x3B9F SWAP1 SWAP2 SWAP1 PUSH4 0xFFFFFFFF AND JUMP JUMPDEST SWAP1 POP SWAP2 SWAP1 POP JUMP JUMPDEST PUSH1 0x0 PUSH2 0x3DFD PUSH1 0x1F DUP4 PUSH2 0x4CC9 SWAP1 SWAP2 SWAP1 PUSH4 0xFFFFFFFF AND JUMP JUMPDEST SWAP1 POP SWAP2 SWAP1 POP JUMP JUMPDEST PUSH1 0x0 DUP2 PUSH2 0x3E31 JUMPI PUSH32 0x0 PUSH2 0x3E53 JUMP JUMPDEST PUSH32 0x0 JUMPDEST SWAP1 POP SWAP2 SWAP1 POP JUMP JUMPDEST PUSH2 0x3E96 PUSH1 0x0 PUSH20 0xFFFFFFFFFFFFFFFFFFFFFFFFFFFFFFFFFFFFFFFF AND DUP4 PUSH20 0xFFFFFFFFFFFFFFFFFFFFFFFFFFFFFFFFFFFFFFFF AND EQ ISZERO PUSH2 0x19B PUSH2 0x2308 JUMP JUMPDEST PUSH2 0x3EA2 DUP3 PUSH1 0x0 DUP4 PUSH2 0x3A1B JUMP JUMPDEST PUSH2 0x3EF7 DUP2 PUSH2 0x1A1 PUSH1 0x0 DUP1 DUP7 PUSH20 0xFFFFFFFFFFFFFFFFFFFFFFFFFFFFFFFFFFFFFFFF AND PUSH20 0xFFFFFFFFFFFFFFFFFFFFFFFFFFFFFFFFFFFFFFFF AND DUP2 MSTORE PUSH1 0x20 ADD SWAP1 DUP2 MSTORE PUSH1 0x20 ADD PUSH1 0x0 KECCAK256 SLOAD PUSH2 0x3A20 SWAP1 SWAP3 SWAP2 SWAP1 PUSH4 0xFFFFFFFF AND JUMP JUMPDEST PUSH1 0x0 DUP1 DUP5 PUSH20 0xFFFFFFFFFFFFFFFFFFFFFFFFFFFFFFFFFFFFFFFF AND PUSH20 0xFFFFFFFFFFFFFFFFFFFFFFFFFFFFFFFFFFFFFFFF AND DUP2 MSTORE PUSH1 0x20 ADD SWAP1 DUP2 MSTORE PUSH1 0x20 ADD PUSH1 0x0 KECCAK256 DUP2 SWAP1 SSTORE POP PUSH2 0x3F4E DUP2 PUSH1 0x2 SLOAD PUSH2 0x4D07 SWAP1 SWAP2 SWAP1 PUSH4 0xFFFFFFFF AND JUMP JUMPDEST PUSH1 0x2 DUP2 SWAP1 SSTORE POP PUSH1 0x0 PUSH20 0xFFFFFFFFFFFFFFFFFFFFFFFFFFFFFFFFFFFFFFFF AND DUP3 PUSH20 0xFFFFFFFFFFFFFFFFFFFFFFFFFFFFFFFFFFFFFFFF AND PUSH32 0xDDF252AD1BE2C89B69C2B068FC378DAA952BA7F163C4A11628F55A4DF523B3EF DUP4 PUSH1 0x40 MLOAD PUSH2 0x3FB2 SWAP2 SWAP1 PUSH2 0x7674 JUMP JUMPDEST PUSH1 0x40 MLOAD DUP1 SWAP2 SUB SWAP1 LOG3 POP POP JUMP JUMPDEST PUSH1 0x0 PUSH1 0x60 PUSH1 0x0 PUSH2 0x3FCD DUP5 PUSH2 0x48B6 JUMP JUMPDEST SWAP1 POP PUSH1 0x3 DUP1 DUP2 GT ISZERO PUSH2 0x3FDB JUMPI INVALID JUMPDEST DUP2 PUSH1 0x3 DUP2 GT ISZERO PUSH2 0x3FE7 JUMPI INVALID JUMPDEST EQ ISZERO PUSH2 0x4004 JUMPI PUSH2 0x3FF7 DUP6 DUP6 PUSH2 0x4D1D JUMP JUMPDEST DUP1 SWAP4 POP DUP2 SWAP5 POP POP POP PUSH2 0x4010 JUMP JUMPDEST PUSH2 0x400F PUSH2 0x136 PUSH2 0x39AB JUMP JUMPDEST JUMPDEST POP SWAP3 POP SWAP3 SWAP1 POP JUMP JUMPDEST PUSH2 0x4020 PUSH2 0x5F8B JUMP JUMPDEST PUSH1 0xB PUSH1 0x40 MLOAD DUP1 PUSH1 0x60 ADD PUSH1 0x40 MSTORE SWAP1 DUP2 PUSH1 0x0 DUP3 ADD PUSH1 0x0 SWAP1 SLOAD SWAP1 PUSH2 0x100 EXP SWAP1 DIV PUSH1 0xFF AND ISZERO ISZERO ISZERO ISZERO DUP2 MSTORE PUSH1 0x20 ADD PUSH1 0x0 DUP3 ADD PUSH1 0x1 SWAP1 SLOAD SWAP1 PUSH2 0x100 EXP SWAP1 DIV PUSH15 0xFFFFFFFFFFFFFFFFFFFFFFFFFFFFFF AND PUSH15 0xFFFFFFFFFFFFFFFFFFFFFFFFFFFFFF AND PUSH15 0xFFFFFFFFFFFFFFFFFFFFFFFFFFFFFF AND DUP2 MSTORE PUSH1 0x20 ADD PUSH1 0x0 DUP3 ADD PUSH1 0x10 SWAP1 SLOAD SWAP1 PUSH2 0x100 EXP SWAP1 DIV PUSH16 0xFFFFFFFFFFFFFFFFFFFFFFFFFFFFFFFF AND PUSH16 0xFFFFFFFFFFFFFFFFFFFFFFFFFFFFFFFF AND PUSH16 0xFFFFFFFFFFFFFFFFFFFFFFFFFFFFFFFF AND DUP2 MSTORE POP POP SWAP1 POP DUP1 PUSH1 0x20 ADD MLOAD PUSH15 0xFFFFFFFFFFFFFFFFFFFFFFFFFFFFFF AND PUSH2 0x4104 DUP5 DUP7 PUSH2 0x4C65 SWAP1 SWAP2 SWAP1 PUSH4 0xFFFFFFFF AND JUMP JUMPDEST GT ISZERO PUSH1 0x40 MLOAD DUP1 PUSH1 0x40 ADD PUSH1 0x40 MSTORE DUP1 PUSH1 0x1A DUP2 MSTORE PUSH1 0x20 ADD PUSH32 0x6F7665722061646472657373206C697175696469747920636170000000000000 DUP2 MSTORE POP SWAP1 PUSH2 0x417D JUMPI PUSH1 0x40 MLOAD PUSH32 0x8C379A000000000000000000000000000000000000000000000000000000000 DUP2 MSTORE PUSH1 0x4 ADD PUSH2 0x4174 SWAP2 SWAP1 PUSH2 0x7617 JUMP JUMPDEST PUSH1 0x40 MLOAD DUP1 SWAP2 SUB SWAP1 REVERT JUMPDEST POP DUP1 PUSH1 0x40 ADD MLOAD PUSH16 0xFFFFFFFFFFFFFFFFFFFFFFFFFFFFFFFF AND PUSH2 0x41A8 DUP4 DUP7 PUSH2 0x4C65 SWAP1 SWAP2 SWAP1 PUSH4 0xFFFFFFFF AND JUMP JUMPDEST GT ISZERO PUSH1 0x40 MLOAD DUP1 PUSH1 0x40 ADD PUSH1 0x40 MSTORE DUP1 PUSH1 0x19 DUP2 MSTORE PUSH1 0x20 ADD PUSH32 0x6F76657220676C6F62616C206C69717569646974792063617000000000000000 DUP2 MSTORE POP SWAP1 PUSH2 0x4221 JUMPI PUSH1 0x40 MLOAD PUSH32 0x8C379A000000000000000000000000000000000000000000000000000000000 DUP2 MSTORE PUSH1 0x4 ADD PUSH2 0x4218 SWAP2 SWAP1 PUSH2 0x7617 JUMP JUMPDEST PUSH1 0x40 MLOAD DUP1 SWAP2 SUB SWAP1 REVERT JUMPDEST POP POP POP POP POP JUMP JUMPDEST PUSH1 0x0 PUSH2 0x4239 PUSH1 0x0 DUP4 EQ ISZERO PUSH1 0x4 PUSH2 0x2308 JUMP JUMPDEST PUSH1 0x0 DUP4 EQ ISZERO PUSH2 0x424B JUMPI PUSH1 0x0 SWAP1 POP PUSH2 0x425E JUMP JUMPDEST DUP2 PUSH1 0x1 DUP5 SUB DUP2 PUSH2 0x4257 JUMPI INVALID JUMPDEST DIV PUSH1 0x1 ADD SWAP1 POP JUMPDEST SWAP3 SWAP2 POP POP JUMP JUMPDEST PUSH1 0x0 DUP1 PUSH2 0x4273 DUP7 DUP7 DUP7 DUP7 PUSH2 0x4D53 JUMP JUMPDEST SWAP1 POP PUSH2 0x427E DUP2 PUSH2 0x3A41 JUMP JUMPDEST SWAP2 POP POP SWAP5 SWAP4 POP POP POP POP JUMP JUMPDEST PUSH1 0x0 DUP1 PUSH2 0x4298 DUP8 DUP8 DUP8 DUP8 PUSH2 0x4D53 JUMP JUMPDEST SWAP1 POP PUSH1 0x0 PUSH2 0x42C1 PUSH2 0x42B2 DUP4 DUP9 PUSH2 0x3367 SWAP1 SWAP2 SWAP1 PUSH4 0xFFFFFFFF AND JUMP JUMPDEST DUP10 PUSH2 0x4C65 SWAP1 SWAP2 SWAP1 PUSH4 0xFFFFFFFF AND JUMP JUMPDEST SWAP1 POP PUSH1 0x0 PUSH2 0x42CE DUP3 PUSH2 0x3A41 JUMP JUMPDEST SWAP1 POP DUP5 DUP2 SUB SWAP4 POP POP POP POP SWAP6 SWAP5 POP POP POP POP POP JUMP JUMPDEST PUSH1 0x0 DUP1 PUSH2 0x4305 DUP6 DUP6 DUP6 TIMESTAMP PUSH2 0x42F4 DUP12 PUSH2 0x2E18 JUMP JUMPDEST PUSH2 0x4DC7 SWAP1 SWAP5 SWAP4 SWAP3 SWAP2 SWAP1 PUSH4 0xFFFFFFFF AND JUMP JUMPDEST SWAP1 POP PUSH1 0x0 PUSH1 0x78 DUP9 TIMESTAMP SUB LT ISZERO SWAP1 POP DUP1 PUSH2 0x431D JUMPI DUP7 PUSH2 0x4327 JUMP JUMPDEST PUSH2 0x4326 DUP8 PUSH2 0x4E28 JUMP JUMPDEST JUMPDEST SWAP7 POP DUP2 PUSH1 0x8 PUSH1 0x0 DUP10 DUP2 MSTORE PUSH1 0x20 ADD SWAP1 DUP2 MSTORE PUSH1 0x20 ADD PUSH1 0x0 KECCAK256 DUP2 SWAP1 SSTORE POP DUP7 SWAP3 POP POP POP SWAP6 SWAP5 POP POP POP POP POP JUMP JUMPDEST PUSH1 0x0 PUSH2 0x4367 DUP3 PUSH1 0x4B DUP6 PUSH2 0x4E3C SWAP1 SWAP3 SWAP2 SWAP1 PUSH4 0xFFFFFFFF AND JUMP JUMPDEST SWAP1 POP SWAP3 SWAP2 POP POP JUMP JUMPDEST PUSH1 0x0 PUSH2 0x4387 DUP3 PUSH1 0x2C DUP6 PUSH2 0x4E63 SWAP1 SWAP3 SWAP2 SWAP1 PUSH4 0xFFFFFFFF AND JUMP JUMPDEST SWAP1 POP SWAP3 SWAP2 POP POP JUMP JUMPDEST PUSH1 0x0 PUSH2 0x43BA PUSH2 0x43AF PUSH8 0x429D069189E0000 DUP9 PUSH2 0x4C85 SWAP1 SWAP2 SWAP1 PUSH4 0xFFFFFFFF AND JUMP JUMPDEST DUP6 GT ISZERO PUSH2 0x130 PUSH2 0x2308 JUMP JUMPDEST PUSH1 0x0 PUSH2 0x43EC PUSH2 0x43DD PUSH1 0x2 PUSH8 0xDE0B6B3A7640000 ADD DUP7 PUSH2 0x3367 SWAP1 SWAP2 SWAP1 PUSH4 0xFFFFFFFF AND JUMP JUMPDEST DUP9 PUSH2 0x4C65 SWAP1 SWAP2 SWAP1 PUSH4 0xFFFFFFFF AND JUMP JUMPDEST SWAP1 POP PUSH1 0x0 PUSH2 0x4420 PUSH2 0x4411 PUSH1 0x1 PUSH8 0xDE0B6B3A7640000 SUB DUP7 PUSH2 0x4C85 SWAP1 SWAP2 SWAP1 PUSH4 0xFFFFFFFF AND JUMP JUMPDEST DUP9 PUSH2 0x4C65 SWAP1 SWAP2 SWAP1 PUSH4 0xFFFFFFFF AND JUMP JUMPDEST SWAP1 POP PUSH2 0x4459 PUSH2 0x4438 DUP8 DUP5 PUSH2 0x4C65 SWAP1 SWAP2 SWAP1 PUSH4 0xFFFFFFFF AND JUMP JUMPDEST PUSH2 0x444B DUP9 DUP5 PUSH2 0x4C85 SWAP1 SWAP2 SWAP1 PUSH4 0xFFFFFFFF AND JUMP JUMPDEST PUSH2 0x2ECB SWAP1 SWAP2 SWAP1 PUSH4 0xFFFFFFFF AND JUMP JUMPDEST SWAP3 POP POP POP PUSH2 0x446B DUP6 DUP3 LT PUSH2 0x165 PUSH2 0x2308 JUMP JUMPDEST PUSH2 0x4494 PUSH2 0x4489 PUSH8 0x429D069189E0000 DUP8 PUSH2 0x4C85 SWAP1 SWAP2 SWAP1 PUSH4 0xFFFFFFFF AND JUMP JUMPDEST DUP3 GT ISZERO PUSH2 0x131 PUSH2 0x2308 JUMP JUMPDEST SWAP6 SWAP5 POP POP POP POP POP JUMP JUMPDEST PUSH1 0x0 PUSH2 0x44AD DUP6 DUP6 LT PUSH2 0x165 PUSH2 0x2308 JUMP JUMPDEST PUSH2 0x44D6 PUSH2 0x44CB PUSH8 0x429D069189E0000 DUP8 PUSH2 0x4C85 SWAP1 SWAP2 SWAP1 PUSH4 0xFFFFFFFF AND JUMP JUMPDEST DUP6 GT ISZERO PUSH2 0x131 PUSH2 0x2308 JUMP JUMPDEST PUSH1 0x0 PUSH2 0x4508 PUSH2 0x44F9 PUSH1 0x2 PUSH8 0xDE0B6B3A7640000 ADD DUP7 PUSH2 0x3367 SWAP1 SWAP2 SWAP1 PUSH4 0xFFFFFFFF AND JUMP JUMPDEST DUP9 PUSH2 0x4C65 SWAP1 SWAP2 SWAP1 PUSH4 0xFFFFFFFF AND JUMP JUMPDEST SWAP1 POP PUSH1 0x0 PUSH2 0x453C PUSH2 0x452D PUSH1 0x1 PUSH8 0xDE0B6B3A7640000 SUB DUP7 PUSH2 0x4C85 SWAP1 SWAP2 SWAP1 PUSH4 0xFFFFFFFF AND JUMP JUMPDEST DUP9 PUSH2 0x4C65 SWAP1 SWAP2 SWAP1 PUSH4 0xFFFFFFFF AND JUMP JUMPDEST SWAP1 POP PUSH2 0x4575 PUSH2 0x4554 DUP8 DUP4 PUSH2 0x33C5 SWAP1 SWAP2 SWAP1 PUSH4 0xFFFFFFFF AND JUMP JUMPDEST PUSH2 0x4567 DUP9 DUP6 PUSH2 0x3367 SWAP1 SWAP2 SWAP1 PUSH4 0xFFFFFFFF AND JUMP JUMPDEST PUSH2 0x3475 SWAP1 SWAP2 SWAP1 PUSH4 0xFFFFFFFF AND JUMP JUMPDEST SWAP3 POP POP POP PUSH2 0x45A2 PUSH2 0x4597 PUSH8 0x429D069189E0000 DUP9 PUSH2 0x4C85 SWAP1 SWAP2 SWAP1 PUSH4 0xFFFFFFFF AND JUMP JUMPDEST DUP3 GT ISZERO PUSH2 0x130 PUSH2 0x2308 JUMP JUMPDEST SWAP6 SWAP5 POP POP POP POP POP JUMP JUMPDEST PUSH1 0x0 DUP1 PUSH1 0x0 DUP1 PUSH2 0x45DE PUSH2 0x45C7 DUP7 DUP9 PUSH2 0x2ECB SWAP1 SWAP2 SWAP1 PUSH4 0xFFFFFFFF AND JUMP JUMPDEST PUSH8 0xDE0B6B3A7640000 PUSH2 0x33C5 SWAP1 SWAP2 SWAP1 PUSH4 0xFFFFFFFF AND JUMP JUMPDEST SWAP4 POP PUSH1 0x0 PUSH2 0x4609 DUP7 DUP10 PUSH1 0x1 DUP2 MLOAD DUP2 LT PUSH2 0x45F3 JUMPI INVALID JUMPDEST PUSH1 0x20 MUL PUSH1 0x20 ADD ADD MLOAD PUSH2 0x2ECB SWAP1 SWAP2 SWAP1 PUSH4 0xFFFFFFFF AND JUMP JUMPDEST SWAP1 POP PUSH1 0x0 PUSH2 0x4634 DUP9 DUP11 PUSH1 0x0 DUP2 MLOAD DUP2 LT PUSH2 0x461E JUMPI INVALID JUMPDEST PUSH1 0x20 MUL PUSH1 0x20 ADD ADD MLOAD PUSH2 0x4C85 SWAP1 SWAP2 SWAP1 PUSH4 0xFFFFFFFF AND JUMP JUMPDEST SWAP1 POP PUSH2 0x4649 DUP2 DUP4 PUSH2 0x4C65 SWAP1 SWAP2 SWAP1 PUSH4 0xFFFFFFFF AND JUMP JUMPDEST SWAP5 POP PUSH2 0x4686 DUP10 PUSH1 0x1 DUP2 MLOAD DUP2 LT PUSH2 0x465B JUMPI INVALID JUMPDEST PUSH1 0x20 MUL PUSH1 0x20 ADD ADD MLOAD DUP11 PUSH1 0x0 DUP2 MLOAD DUP2 LT PUSH2 0x4670 JUMPI INVALID JUMPDEST PUSH1 0x20 MUL PUSH1 0x20 ADD ADD MLOAD PUSH2 0x4C85 SWAP1 SWAP2 SWAP1 PUSH4 0xFFFFFFFF AND JUMP JUMPDEST SWAP3 POP POP POP PUSH2 0x46E9 DUP7 PUSH2 0x46DB DUP9 PUSH2 0x46CD DUP12 PUSH1 0x0 DUP2 MLOAD DUP2 LT PUSH2 0x46A2 JUMPI INVALID JUMPDEST PUSH1 0x20 MUL PUSH1 0x20 ADD ADD MLOAD DUP13 PUSH1 0x0 DUP2 MLOAD DUP2 LT PUSH2 0x46B7 JUMPI INVALID JUMPDEST PUSH1 0x20 MUL PUSH1 0x20 ADD ADD MLOAD PUSH2 0x4C85 SWAP1 SWAP2 SWAP1 PUSH4 0xFFFFFFFF AND JUMP JUMPDEST PUSH2 0x4C85 SWAP1 SWAP2 SWAP1 PUSH4 0xFFFFFFFF AND JUMP JUMPDEST PUSH2 0x4C85 SWAP1 SWAP2 SWAP1 PUSH4 0xFFFFFFFF AND JUMP JUMPDEST SWAP2 POP PUSH1 0x0 PUSH2 0x4769 DUP7 PUSH2 0x475B DUP10 PUSH2 0x474D PUSH8 0xDE0B6B3A7640000 PUSH1 0x2 MUL PUSH2 0x473F DUP15 PUSH1 0x1 DUP2 MLOAD DUP2 LT PUSH2 0x4714 JUMPI INVALID JUMPDEST PUSH1 0x20 MUL PUSH1 0x20 ADD ADD MLOAD DUP16 PUSH1 0x0 DUP2 MLOAD DUP2 LT PUSH2 0x4729 JUMPI INVALID JUMPDEST PUSH1 0x20 MUL PUSH1 0x20 ADD ADD MLOAD PUSH2 0x4C85 SWAP1 SWAP2 SWAP1 PUSH4 0xFFFFFFFF AND JUMP JUMPDEST PUSH2 0x4C85 SWAP1 SWAP2 SWAP1 PUSH4 0xFFFFFFFF AND JUMP JUMPDEST PUSH2 0x4C85 SWAP1 SWAP2 SWAP1 PUSH4 0xFFFFFFFF AND JUMP JUMPDEST PUSH2 0x2ECB SWAP1 SWAP2 SWAP1 PUSH4 0xFFFFFFFF AND JUMP JUMPDEST SWAP1 POP PUSH1 0x0 PUSH2 0x47CC PUSH2 0x4783 DUP9 DUP10 PUSH2 0x3367 SWAP1 SWAP2 SWAP1 PUSH4 0xFFFFFFFF AND JUMP JUMPDEST PUSH2 0x47BE DUP12 PUSH1 0x1 DUP2 MLOAD DUP2 LT PUSH2 0x4793 JUMPI INVALID JUMPDEST PUSH1 0x20 MUL PUSH1 0x20 ADD ADD MLOAD DUP13 PUSH1 0x1 DUP2 MLOAD DUP2 LT PUSH2 0x47A8 JUMPI INVALID JUMPDEST PUSH1 0x20 MUL PUSH1 0x20 ADD ADD MLOAD PUSH2 0x4C85 SWAP1 SWAP2 SWAP1 PUSH4 0xFFFFFFFF AND JUMP JUMPDEST PUSH2 0x2ECB SWAP1 SWAP2 SWAP1 PUSH4 0xFFFFFFFF AND JUMP JUMPDEST SWAP1 POP PUSH2 0x47F3 DUP2 PUSH2 0x47E5 DUP5 DUP8 PUSH2 0x4C65 SWAP1 SWAP2 SWAP1 PUSH4 0xFFFFFFFF AND JUMP JUMPDEST PUSH2 0x4C65 SWAP1 SWAP2 SWAP1 PUSH4 0xFFFFFFFF AND JUMP JUMPDEST SWAP4 POP POP POP SWAP4 POP SWAP4 POP SWAP4 POP SWAP4 JUMP JUMPDEST PUSH1 0x0 DUP1 PUSH2 0x4821 PUSH8 0xDE0B6B3A7640000 PUSH1 0x2 MUL DUP8 PUSH2 0x3367 SWAP1 SWAP2 SWAP1 PUSH4 0xFFFFFFFF AND JUMP JUMPDEST SWAP1 POP PUSH1 0x0 PUSH2 0x4855 DUP8 PUSH2 0x4847 PUSH8 0xDE0B6B3A7640000 PUSH1 0x4 MUL DUP8 PUSH2 0x4C85 SWAP1 SWAP2 SWAP1 PUSH4 0xFFFFFFFF AND JUMP JUMPDEST PUSH2 0x4C85 SWAP1 SWAP2 SWAP1 PUSH4 0xFFFFFFFF AND JUMP JUMPDEST SWAP1 POP PUSH1 0x0 PUSH2 0x486C DUP3 DUP8 PUSH2 0x4C65 SWAP1 SWAP2 SWAP1 PUSH4 0xFFFFFFFF AND JUMP JUMPDEST SWAP1 POP PUSH1 0x0 PUSH2 0x487B DUP3 PUSH1 0x5 PUSH2 0x4E8C JUMP JUMPDEST SWAP1 POP PUSH1 0x0 PUSH2 0x4892 DUP3 DUP11 PUSH2 0x4C65 SWAP1 SWAP2 SWAP1 PUSH4 0xFFFFFFFF AND JUMP JUMPDEST SWAP1 POP PUSH2 0x48A7 DUP6 DUP3 PUSH2 0x2ECB SWAP1 SWAP2 SWAP1 PUSH4 0xFFFFFFFF AND JUMP JUMPDEST SWAP6 POP POP POP POP POP POP SWAP5 SWAP4 POP POP POP POP JUMP JUMPDEST PUSH1 0x0 DUP2 DUP1 PUSH1 0x20 ADD SWAP1 MLOAD DUP2 ADD SWAP1 PUSH2 0x48CC SWAP2 SWAP1 PUSH2 0x6B19 JUMP JUMPDEST SWAP1 POP SWAP2 SWAP1 POP JUMP JUMPDEST PUSH1 0x60 DUP2 DUP1 PUSH1 0x20 ADD SWAP1 MLOAD DUP2 ADD SWAP1 PUSH2 0x48E9 SWAP2 SWAP1 PUSH2 0x6B42 JUMP JUMPDEST SWAP1 POP DUP1 SWAP2 POP POP SWAP2 SWAP1 POP JUMP JUMPDEST PUSH2 0x4900 PUSH1 0x0 DUP4 DUP4 PUSH2 0x3A1B JUMP JUMPDEST PUSH2 0x4915 DUP2 PUSH1 0x2 SLOAD PUSH2 0x27D8 SWAP1 SWAP2 SWAP1 PUSH4 0xFFFFFFFF AND JUMP JUMPDEST PUSH1 0x2 DUP2 SWAP1 SSTORE POP PUSH2 0x496C DUP2 PUSH1 0x0 DUP1 DUP6 PUSH20 0xFFFFFFFFFFFFFFFFFFFFFFFFFFFFFFFFFFFFFFFF AND PUSH20 0xFFFFFFFFFFFFFFFFFFFFFFFFFFFFFFFFFFFFFFFF AND DUP2 MSTORE PUSH1 0x20 ADD SWAP1 DUP2 MSTORE PUSH1 0x20 ADD PUSH1 0x0 KECCAK256 SLOAD PUSH2 0x27D8 SWAP1 SWAP2 SWAP1 PUSH4 0xFFFFFFFF AND JUMP JUMPDEST PUSH1 0x0 DUP1 DUP5 PUSH20 0xFFFFFFFFFFFFFFFFFFFFFFFFFFFFFFFFFFFFFFFF AND PUSH20 0xFFFFFFFFFFFFFFFFFFFFFFFFFFFFFFFFFFFFFFFF AND DUP2 MSTORE PUSH1 0x20 ADD SWAP1 DUP2 MSTORE PUSH1 0x20 ADD PUSH1 0x0 KECCAK256 DUP2 SWAP1 SSTORE POP DUP2 PUSH20 0xFFFFFFFFFFFFFFFFFFFFFFFFFFFFFFFFFFFFFFFF AND PUSH1 0x0 PUSH20 0xFFFFFFFFFFFFFFFFFFFFFFFFFFFFFFFFFFFFFFFF AND PUSH32 0xDDF252AD1BE2C89B69C2B068FC378DAA952BA7F163C4A11628F55A4DF523B3EF DUP4 PUSH1 0x40 MLOAD PUSH2 0x4A0C SWAP2 SWAP1 PUSH2 0x7674 JUMP JUMPDEST PUSH1 0x40 MLOAD DUP1 SWAP2 SUB SWAP1 LOG3 POP POP JUMP JUMPDEST PUSH1 0x0 DUP2 PUSH2 0x4A45 JUMPI PUSH32 0x0 PUSH2 0x4A67 JUMP JUMPDEST PUSH32 0x0 JUMPDEST SWAP1 POP SWAP2 SWAP1 POP JUMP JUMPDEST PUSH1 0x0 PUSH2 0x4A80 PUSH4 0x38E9922E PUSH1 0xE0 SHL PUSH2 0x150B JUMP JUMPDEST DUP3 EQ DUP1 PUSH2 0x4A9B JUMPI POP PUSH2 0x4A98 PUSH4 0x50DD6ED9 PUSH1 0xE0 SHL PUSH2 0x150B JUMP JUMPDEST DUP3 EQ JUMPDEST SWAP1 POP SWAP2 SWAP1 POP JUMP JUMPDEST PUSH1 0x0 PUSH2 0x4AB2 PUSH1 0x0 DUP4 SGT PUSH1 0x64 PUSH2 0x2308 JUMP JUMPDEST DUP2 PUSH8 0x16345785D8A0000 PUSH8 0xDE0B6B3A7640000 SUB SLT DUP1 ISZERO PUSH2 0x4AE4 JUMPI POP PUSH8 0x16345785D8A0000 PUSH8 0xDE0B6B3A7640000 ADD DUP3 SLT JUMPDEST ISZERO PUSH2 0x4B0A JUMPI PUSH8 0xDE0B6B3A7640000 PUSH2 0x4AFB DUP4 PUSH2 0x5054 JUMP JUMPDEST DUP2 PUSH2 0x4B02 JUMPI INVALID JUMPDEST SDIV SWAP1 POP PUSH2 0x4B16 JUMP JUMPDEST PUSH2 0x4B13 DUP3 PUSH2 0x5201 JUMP JUMPDEST SWAP1 POP JUMPDEST SWAP2 SWAP1 POP JUMP JUMPDEST PUSH1 0x0 DUP1 DUP3 PUSH3 0x3FFFFF SWAP1 SHL NOT DUP6 PUSH1 0x0 SHR AND PUSH1 0x0 SHL SWAP1 POP DUP3 PUSH3 0x3FFFFF DUP6 AND SWAP1 SHL PUSH1 0x0 SHL DUP2 OR SWAP2 POP POP SWAP4 SWAP3 POP POP POP JUMP JUMPDEST PUSH1 0x0 DUP4 PUSH2 0x4B5E JUMPI PUSH2 0x4B59 DUP3 DUP5 PUSH2 0x5698 JUMP JUMPDEST PUSH2 0x4B69 JUMP JUMPDEST PUSH2 0x4B68 DUP3 DUP5 PUSH2 0x56B5 JUMP JUMPDEST JUMPDEST SWAP1 POP SWAP4 SWAP3 POP POP POP JUMP JUMPDEST PUSH1 0x0 DUP1 PUSH1 0x0 DUP1 PUSH1 0x0 DUP1 PUSH1 0x0 DUP1 PUSH2 0x4B86 PUSH2 0x56D2 JUMP JUMPDEST SWAP4 POP SWAP4 POP SWAP4 POP SWAP4 POP PUSH1 0x0 DUP5 EQ ISZERO PUSH2 0x4BAD JUMPI PUSH1 0x0 DUP1 DUP4 DUP4 SWAP8 POP SWAP8 POP SWAP8 POP SWAP8 POP POP POP POP POP PUSH2 0x4BDB JUMP JUMPDEST PUSH1 0x0 DUP1 PUSH2 0x4BC4 DUP13 DUP13 PUSH2 0x4BBD PUSH2 0xA5D JUMP JUMPDEST DUP10 DUP10 PUSH2 0x5A12 JUMP JUMPDEST SWAP2 POP SWAP2 POP DUP2 DUP2 DUP6 DUP6 SWAP10 POP SWAP10 POP SWAP10 POP SWAP10 POP POP POP POP POP POP POP JUMPDEST SWAP3 SWAP6 SWAP2 SWAP5 POP SWAP3 POP JUMP JUMPDEST PUSH1 0x0 DUP5 GT ISZERO PUSH2 0x4BF8 JUMPI PUSH2 0x4BF7 DUP3 DUP6 PUSH2 0x369C JUMP JUMPDEST JUMPDEST PUSH1 0x0 DUP4 GT ISZERO PUSH2 0x4C0C JUMPI PUSH2 0x4C0B DUP2 DUP5 PUSH2 0x369C JUMP JUMPDEST JUMPDEST POP POP POP POP JUMP JUMPDEST PUSH1 0x0 DUP2 DUP1 PUSH1 0x20 ADD SWAP1 MLOAD DUP2 ADD SWAP1 PUSH2 0x4C28 SWAP2 SWAP1 PUSH2 0x6AB4 JUMP JUMPDEST SWAP1 POP SWAP2 SWAP1 POP JUMP JUMPDEST PUSH1 0x0 PUSH1 0x60 PUSH1 0x0 PUSH2 0x4C3E DUP5 PUSH2 0x5AFF JUMP JUMPDEST SWAP1 POP PUSH1 0x60 PUSH2 0x4C54 DUP7 DUP4 PUSH2 0x4C4F PUSH2 0xA5D JUMP JUMPDEST PUSH2 0x5B20 JUMP JUMPDEST SWAP1 POP DUP2 DUP2 SWAP4 POP SWAP4 POP POP POP SWAP3 POP SWAP3 SWAP1 POP JUMP JUMPDEST PUSH1 0x0 DUP1 DUP3 DUP5 ADD SWAP1 POP PUSH2 0x4C7B DUP5 DUP3 LT ISZERO PUSH1 0x0 PUSH2 0x2308 JUMP JUMPDEST DUP1 SWAP2 POP POP SWAP3 SWAP2 POP POP JUMP JUMPDEST PUSH1 0x0 DUP1 DUP3 DUP5 MUL SWAP1 POP PUSH2 0x4CAE PUSH1 0x0 DUP6 EQ DUP1 PUSH2 0x4CA7 JUMPI POP DUP4 DUP6 DUP4 DUP2 PUSH2 0x4CA4 JUMPI INVALID JUMPDEST DIV EQ JUMPDEST PUSH1 0x3 PUSH2 0x2308 JUMP JUMPDEST PUSH8 0xDE0B6B3A7640000 DUP2 DUP2 PUSH2 0x4CBF JUMPI INVALID JUMPDEST DIV SWAP2 POP POP SWAP3 SWAP2 POP POP JUMP JUMPDEST PUSH1 0x0 DUP1 PUSH7 0x1FFFFFFFFFFFFF DUP4 DUP6 SWAP1 SHR PUSH1 0x0 SHR AND SWAP1 POP PUSH7 0xFFFFFFFFFFFFF DUP2 SGT PUSH2 0x4CF2 JUMPI DUP1 PUSH2 0x4CFE JUMP JUMPDEST PUSH7 0x1FFFFFFFFFFFFF NOT DUP2 OR JUMPDEST SWAP2 POP POP SWAP3 SWAP2 POP POP JUMP JUMPDEST PUSH1 0x0 PUSH2 0x4D15 DUP4 DUP4 PUSH1 0x1 PUSH2 0x3A20 JUMP JUMPDEST SWAP1 POP SWAP3 SWAP2 POP POP JUMP JUMPDEST PUSH1 0x0 PUSH1 0x60 PUSH1 0x0 PUSH2 0x4D2C DUP5 PUSH2 0x5BDD JUMP JUMPDEST SWAP1 POP PUSH1 0x60 PUSH2 0x4D42 DUP7 DUP4 PUSH2 0x4D3D PUSH2 0xA5D JUMP JUMPDEST PUSH2 0x5BFE JUMP JUMPDEST SWAP1 POP DUP2 DUP2 SWAP4 POP SWAP4 POP POP POP SWAP3 POP SWAP3 SWAP1 POP JUMP JUMPDEST PUSH1 0x0 DUP1 PUSH8 0x6F05B59D3B20000 SWAP1 POP PUSH2 0x4DBC PUSH2 0x4D89 DUP3 PUSH2 0x4D7B DUP7 DUP9 PUSH2 0x4C65 SWAP1 SWAP2 SWAP1 PUSH4 0xFFFFFFFF AND JUMP JUMPDEST PUSH2 0x3475 SWAP1 SWAP2 SWAP1 PUSH4 0xFFFFFFFF AND JUMP JUMPDEST PUSH2 0x4DAE DUP4 PUSH2 0x4DA0 DUP10 DUP12 PUSH2 0x4C65 SWAP1 SWAP2 SWAP1 PUSH4 0xFFFFFFFF AND JUMP JUMPDEST PUSH2 0x3475 SWAP1 SWAP2 SWAP1 PUSH4 0xFFFFFFFF AND JUMP JUMPDEST PUSH2 0x3475 SWAP1 SWAP2 SWAP1 PUSH4 0xFFFFFFFF AND JUMP JUMPDEST SWAP2 POP POP SWAP5 SWAP4 POP POP POP POP JUMP JUMPDEST PUSH1 0x0 DUP1 PUSH2 0x4DD3 DUP8 PUSH2 0x26A0 JUMP JUMPDEST DUP4 SUB SWAP1 POP PUSH1 0x0 DUP2 DUP8 MUL PUSH2 0x4DE5 DUP10 PUSH2 0x3D73 JUMP JUMPDEST ADD SWAP1 POP PUSH1 0x0 DUP3 DUP8 MUL PUSH2 0x4DF6 DUP11 PUSH2 0x3DAD JUMP JUMPDEST ADD SWAP1 POP PUSH1 0x0 DUP4 DUP8 MUL PUSH2 0x4E07 DUP12 PUSH2 0x3DE7 JUMP JUMPDEST ADD SWAP1 POP PUSH2 0x4E19 DUP10 DUP5 DUP11 DUP6 DUP12 DUP7 DUP13 PUSH2 0x25FF JUMP JUMPDEST SWAP5 POP POP POP POP POP SWAP6 SWAP5 POP POP POP POP POP JUMP JUMPDEST PUSH1 0x0 PUSH2 0x4E35 DUP3 PUSH1 0x1 PUSH2 0x5CBB JUMP JUMPDEST SWAP1 POP SWAP2 SWAP1 POP JUMP JUMPDEST PUSH1 0x0 DUP1 DUP3 PUSH2 0x3FF SWAP1 SHL NOT DUP6 PUSH1 0x0 SHR AND PUSH1 0x0 SHL SWAP1 POP DUP3 DUP5 SWAP1 SHL PUSH1 0x0 SHL DUP2 OR SWAP2 POP POP SWAP4 SWAP3 POP POP POP JUMP JUMPDEST PUSH1 0x0 DUP1 DUP3 PUSH4 0x7FFFFFFF SWAP1 SHL NOT DUP6 PUSH1 0x0 SHR AND PUSH1 0x0 SHL SWAP1 POP DUP3 DUP5 SWAP1 SHL PUSH1 0x0 SHL DUP2 OR SWAP2 POP POP SWAP4 SWAP3 POP POP POP JUMP JUMPDEST PUSH1 0x0 DUP1 DUP4 EQ ISZERO PUSH2 0x4E9F JUMPI PUSH1 0x0 SWAP1 POP PUSH2 0x504E JUMP JUMPDEST PUSH1 0x0 PUSH2 0x4EAA DUP5 PUSH2 0x5CD3 JUMP JUMPDEST SWAP1 POP PUSH1 0x2 DUP2 PUSH8 0xDE0B6B3A7640000 DUP7 MUL DUP2 PUSH2 0x4EC1 JUMPI INVALID JUMPDEST DIV DUP3 ADD DUP2 PUSH2 0x4ECB JUMPI INVALID JUMPDEST DIV SWAP1 POP PUSH1 0x2 DUP2 PUSH8 0xDE0B6B3A7640000 DUP7 MUL DUP2 PUSH2 0x4EE3 JUMPI INVALID JUMPDEST DIV DUP3 ADD DUP2 PUSH2 0x4EED JUMPI INVALID JUMPDEST DIV SWAP1 POP PUSH1 0x2 DUP2 PUSH8 0xDE0B6B3A7640000 DUP7 MUL DUP2 PUSH2 0x4F05 JUMPI INVALID JUMPDEST DIV DUP3 ADD DUP2 PUSH2 0x4F0F JUMPI INVALID JUMPDEST DIV SWAP1 POP PUSH1 0x2 DUP2 PUSH8 0xDE0B6B3A7640000 DUP7 MUL DUP2 PUSH2 0x4F27 JUMPI INVALID JUMPDEST DIV DUP3 ADD DUP2 PUSH2 0x4F31 JUMPI INVALID JUMPDEST DIV SWAP1 POP PUSH1 0x2 DUP2 PUSH8 0xDE0B6B3A7640000 DUP7 MUL DUP2 PUSH2 0x4F49 JUMPI INVALID JUMPDEST DIV DUP3 ADD DUP2 PUSH2 0x4F53 JUMPI INVALID JUMPDEST DIV SWAP1 POP PUSH1 0x2 DUP2 PUSH8 0xDE0B6B3A7640000 DUP7 MUL DUP2 PUSH2 0x4F6B JUMPI INVALID JUMPDEST DIV DUP3 ADD DUP2 PUSH2 0x4F75 JUMPI INVALID JUMPDEST DIV SWAP1 POP PUSH1 0x2 DUP2 PUSH8 0xDE0B6B3A7640000 DUP7 MUL DUP2 PUSH2 0x4F8D JUMPI INVALID JUMPDEST DIV DUP3 ADD DUP2 PUSH2 0x4F97 JUMPI INVALID JUMPDEST DIV SWAP1 POP PUSH1 0x0 PUSH2 0x4FAF DUP3 DUP4 PUSH2 0x4C85 SWAP1 SWAP2 SWAP1 PUSH4 0xFFFFFFFF AND JUMP JUMPDEST SWAP1 POP PUSH2 0x4FD6 PUSH2 0x4FC7 DUP6 DUP5 PUSH2 0x3367 SWAP1 SWAP2 SWAP1 PUSH4 0xFFFFFFFF AND JUMP JUMPDEST DUP7 PUSH2 0x4C65 SWAP1 SWAP2 SWAP1 PUSH4 0xFFFFFFFF AND JUMP JUMPDEST DUP2 GT ISZERO DUP1 ISZERO PUSH2 0x5009 JUMPI POP PUSH2 0x5005 PUSH2 0x4FF6 DUP6 DUP5 PUSH2 0x3367 SWAP1 SWAP2 SWAP1 PUSH4 0xFFFFFFFF AND JUMP JUMPDEST DUP7 PUSH2 0x33C5 SWAP1 SWAP2 SWAP1 PUSH4 0xFFFFFFFF AND JUMP JUMPDEST DUP2 LT ISZERO JUMPDEST PUSH2 0x5048 JUMPI PUSH1 0x40 MLOAD PUSH32 0x8C379A000000000000000000000000000000000000000000000000000000000 DUP2 MSTORE PUSH1 0x4 ADD PUSH2 0x503F SWAP1 PUSH2 0x7639 JUMP JUMPDEST PUSH1 0x40 MLOAD DUP1 SWAP2 SUB SWAP1 REVERT JUMPDEST DUP2 SWAP3 POP POP POP JUMPDEST SWAP3 SWAP2 POP POP JUMP JUMPDEST PUSH1 0x0 PUSH8 0xDE0B6B3A7640000 DUP3 MUL SWAP2 POP PUSH1 0x0 PUSH15 0xC097CE7BC90715B34B9F1000000000 DUP4 ADD PUSH15 0xC097CE7BC90715B34B9F1000000000 DUP1 DUP6 SUB MUL DUP2 PUSH2 0x5092 JUMPI INVALID JUMPDEST SDIV SWAP1 POP PUSH1 0x0 PUSH15 0xC097CE7BC90715B34B9F1000000000 DUP3 DUP4 MUL DUP2 PUSH2 0x50B1 JUMPI INVALID JUMPDEST SDIV SWAP1 POP PUSH1 0x0 DUP3 SWAP1 POP PUSH1 0x0 DUP2 SWAP1 POP PUSH15 0xC097CE7BC90715B34B9F1000000000 DUP4 DUP4 MUL DUP2 PUSH2 0x50D8 JUMPI INVALID JUMPDEST SDIV SWAP2 POP PUSH1 0x3 DUP3 DUP2 PUSH2 0x50E5 JUMPI INVALID JUMPDEST SDIV DUP2 ADD SWAP1 POP PUSH15 0xC097CE7BC90715B34B9F1000000000 DUP4 DUP4 MUL DUP2 PUSH2 0x5104 JUMPI INVALID JUMPDEST SDIV SWAP2 POP PUSH1 0x5 DUP3 DUP2 PUSH2 0x5111 JUMPI INVALID JUMPDEST SDIV DUP2 ADD SWAP1 POP PUSH15 0xC097CE7BC90715B34B9F1000000000 DUP4 DUP4 MUL DUP2 PUSH2 0x5130 JUMPI INVALID JUMPDEST SDIV SWAP2 POP PUSH1 0x7 DUP3 DUP2 PUSH2 0x513D JUMPI INVALID JUMPDEST SDIV DUP2 ADD SWAP1 POP PUSH15 0xC097CE7BC90715B34B9F1000000000 DUP4 DUP4 MUL DUP2 PUSH2 0x515C JUMPI INVALID JUMPDEST SDIV SWAP2 POP PUSH1 0x9 DUP3 DUP2 PUSH2 0x5169 JUMPI INVALID JUMPDEST SDIV DUP2 ADD SWAP1 POP PUSH15 0xC097CE7BC90715B34B9F1000000000 DUP4 DUP4 MUL DUP2 PUSH2 0x5188 JUMPI INVALID JUMPDEST SDIV SWAP2 POP PUSH1 0xB DUP3 DUP2 PUSH2 0x5195 JUMPI INVALID JUMPDEST SDIV DUP2 ADD SWAP1 POP PUSH15 0xC097CE7BC90715B34B9F1000000000 DUP4 DUP4 MUL DUP2 PUSH2 0x51B4 JUMPI INVALID JUMPDEST SDIV SWAP2 POP PUSH1 0xD DUP3 DUP2 PUSH2 0x51C1 JUMPI INVALID JUMPDEST SDIV DUP2 ADD SWAP1 POP PUSH15 0xC097CE7BC90715B34B9F1000000000 DUP4 DUP4 MUL DUP2 PUSH2 0x51E0 JUMPI INVALID JUMPDEST SDIV SWAP2 POP PUSH1 0xF DUP3 DUP2 PUSH2 0x51ED JUMPI INVALID JUMPDEST SDIV DUP2 ADD SWAP1 POP PUSH1 0x2 DUP2 MUL SWAP5 POP POP POP POP POP SWAP2 SWAP1 POP JUMP JUMPDEST PUSH1 0x0 PUSH8 0xDE0B6B3A7640000 DUP3 SLT ISZERO PUSH2 0x5239 JUMPI PUSH2 0x522F DUP3 PUSH8 0xDE0B6B3A7640000 DUP1 MUL DUP2 PUSH2 0x5229 JUMPI INVALID JUMPDEST SDIV PUSH2 0x5201 JUMP JUMPDEST PUSH1 0x0 SUB SWAP1 POP PUSH2 0x5693 JUMP JUMPDEST PUSH1 0x0 PUSH8 0xDE0B6B3A7640000 PUSH24 0x195E54C5DD42177F53A27172FA9EC630262827000000000 MUL DUP4 SLT PUSH2 0x5297 JUMPI PUSH24 0x195E54C5DD42177F53A27172FA9EC630262827000000000 DUP4 DUP2 PUSH2 0x5285 JUMPI INVALID JUMPDEST SDIV SWAP3 POP PUSH9 0x6F05B59D3B2000000 DUP2 ADD SWAP1 POP JUMPDEST PUSH8 0xDE0B6B3A7640000 PUSH12 0x1425982CF597CD205CEF7380 MUL DUP4 SLT PUSH2 0x52DB JUMPI PUSH12 0x1425982CF597CD205CEF7380 DUP4 DUP2 PUSH2 0x52C9 JUMPI INVALID JUMPDEST SDIV SWAP3 POP PUSH9 0x3782DACE9D9000000 DUP2 ADD SWAP1 POP JUMPDEST PUSH1 0x64 DUP2 MUL SWAP1 POP PUSH1 0x64 DUP4 MUL SWAP3 POP PUSH15 0x1855144814A7FF805980FF0084000 DUP4 SLT PUSH2 0x5332 JUMPI PUSH15 0x1855144814A7FF805980FF0084000 PUSH9 0x56BC75E2D63100000 DUP5 MUL DUP2 PUSH2 0x5320 JUMPI INVALID JUMPDEST SDIV SWAP3 POP PUSH9 0xAD78EBC5AC62000000 DUP2 ADD SWAP1 POP JUMPDEST PUSH12 0x2DF0AB5A80A22C61AB5A700 DUP4 SLT PUSH2 0x5377 JUMPI PUSH12 0x2DF0AB5A80A22C61AB5A700 PUSH9 0x56BC75E2D63100000 DUP5 MUL DUP2 PUSH2 0x5365 JUMPI INVALID JUMPDEST SDIV SWAP3 POP PUSH9 0x56BC75E2D631000000 DUP2 ADD SWAP1 POP JUMPDEST PUSH10 0x3F1FCE3DA636EA5CF850 DUP4 SLT PUSH2 0x53B8 JUMPI PUSH10 0x3F1FCE3DA636EA5CF850 PUSH9 0x56BC75E2D63100000 DUP5 MUL DUP2 PUSH2 0x53A6 JUMPI INVALID JUMPDEST SDIV SWAP3 POP PUSH9 0x2B5E3AF16B18800000 DUP2 ADD SWAP1 POP JUMPDEST PUSH10 0x127FA27722CC06CC5E2 DUP4 SLT PUSH2 0x53F9 JUMPI PUSH10 0x127FA27722CC06CC5E2 PUSH9 0x56BC75E2D63100000 DUP5 MUL DUP2 PUSH2 0x53E7 JUMPI INVALID JUMPDEST SDIV SWAP3 POP PUSH9 0x15AF1D78B58C400000 DUP2 ADD SWAP1 POP JUMPDEST PUSH9 0x280E60114EDB805D03 DUP4 SLT PUSH2 0x5438 JUMPI PUSH9 0x280E60114EDB805D03 PUSH9 0x56BC75E2D63100000 DUP5 MUL DUP2 PUSH2 0x5426 JUMPI INVALID JUMPDEST SDIV SWAP3 POP PUSH9 0xAD78EBC5AC6200000 DUP2 ADD SWAP1 POP JUMPDEST PUSH9 0xEBC5FB41746121110 DUP4 SLT PUSH2 0x5477 JUMPI PUSH9 0xEBC5FB41746121110 PUSH9 0x56BC75E2D63100000 DUP5 MUL DUP2 PUSH2 0x5465 JUMPI INVALID JUMPDEST SDIV SWAP3 POP PUSH9 0x56BC75E2D63100000 DUP2 ADD SWAP1 POP JUMPDEST PUSH9 0x8F00F760A4B2DB55D DUP4 SLT PUSH2 0x54B6 JUMPI PUSH9 0x8F00F760A4B2DB55D PUSH9 0x56BC75E2D63100000 DUP5 MUL DUP2 PUSH2 0x54A4 JUMPI INVALID JUMPDEST SDIV SWAP3 POP PUSH9 0x2B5E3AF16B1880000 DUP2 ADD SWAP1 POP JUMPDEST PUSH9 0x6F5F1775788937937 DUP4 SLT PUSH2 0x54F5 JUMPI PUSH9 0x6F5F1775788937937 PUSH9 0x56BC75E2D63100000 DUP5 MUL DUP2 PUSH2 0x54E3 JUMPI INVALID JUMPDEST SDIV SWAP3 POP PUSH9 0x15AF1D78B58C40000 DUP2 ADD SWAP1 POP JUMPDEST PUSH9 0x6248F33704B286603 DUP4 SLT PUSH2 0x5533 JUMPI PUSH9 0x6248F33704B286603 PUSH9 0x56BC75E2D63100000 DUP5 MUL DUP2 PUSH2 0x5522 JUMPI INVALID JUMPDEST SDIV SWAP3 POP PUSH8 0xAD78EBC5AC620000 DUP2 ADD SWAP1 POP JUMPDEST PUSH9 0x5C548670B9510E7AC DUP4 SLT PUSH2 0x5571 JUMPI PUSH9 0x5C548670B9510E7AC PUSH9 0x56BC75E2D63100000 DUP5 MUL DUP2 PUSH2 0x5560 JUMPI INVALID JUMPDEST SDIV SWAP3 POP PUSH8 0x56BC75E2D6310000 DUP2 ADD SWAP1 POP JUMPDEST PUSH1 0x0 PUSH9 0x56BC75E2D63100000 DUP5 ADD PUSH9 0x56BC75E2D63100000 DUP1 DUP7 SUB MUL DUP2 PUSH2 0x5594 JUMPI INVALID JUMPDEST SDIV SWAP1 POP PUSH1 0x0 PUSH9 0x56BC75E2D63100000 DUP3 DUP4 MUL DUP2 PUSH2 0x55AD JUMPI INVALID JUMPDEST SDIV SWAP1 POP PUSH1 0x0 DUP3 SWAP1 POP PUSH1 0x0 DUP2 SWAP1 POP PUSH9 0x56BC75E2D63100000 DUP4 DUP4 MUL DUP2 PUSH2 0x55CE JUMPI INVALID JUMPDEST SDIV SWAP2 POP PUSH1 0x3 DUP3 DUP2 PUSH2 0x55DB JUMPI INVALID JUMPDEST SDIV DUP2 ADD SWAP1 POP PUSH9 0x56BC75E2D63100000 DUP4 DUP4 MUL DUP2 PUSH2 0x55F4 JUMPI INVALID JUMPDEST SDIV SWAP2 POP PUSH1 0x5 DUP3 DUP2 PUSH2 0x5601 JUMPI INVALID JUMPDEST SDIV DUP2 ADD SWAP1 POP PUSH9 0x56BC75E2D63100000 DUP4 DUP4 MUL DUP2 PUSH2 0x561A JUMPI INVALID JUMPDEST SDIV SWAP2 POP PUSH1 0x7 DUP3 DUP2 PUSH2 0x5627 JUMPI INVALID JUMPDEST SDIV DUP2 ADD SWAP1 POP PUSH9 0x56BC75E2D63100000 DUP4 DUP4 MUL DUP2 PUSH2 0x5640 JUMPI INVALID JUMPDEST SDIV SWAP2 POP PUSH1 0x9 DUP3 DUP2 PUSH2 0x564D JUMPI INVALID JUMPDEST SDIV DUP2 ADD SWAP1 POP PUSH9 0x56BC75E2D63100000 DUP4 DUP4 MUL DUP2 PUSH2 0x5666 JUMPI INVALID JUMPDEST SDIV SWAP2 POP PUSH1 0xB DUP3 DUP2 PUSH2 0x5673 JUMPI INVALID JUMPDEST SDIV DUP2 ADD SWAP1 POP PUSH1 0x2 DUP2 MUL SWAP1 POP PUSH1 0x64 DUP2 DUP7 ADD DUP2 PUSH2 0x568A JUMPI INVALID JUMPDEST SDIV SWAP6 POP POP POP POP POP POP JUMPDEST SWAP2 SWAP1 POP JUMP JUMPDEST PUSH1 0x0 PUSH2 0x56AD DUP3 DUP5 PUSH2 0x4C85 SWAP1 SWAP2 SWAP1 PUSH4 0xFFFFFFFF AND JUMP JUMPDEST SWAP1 POP SWAP3 SWAP2 POP POP JUMP JUMPDEST PUSH1 0x0 PUSH2 0x56CA DUP3 DUP5 PUSH2 0x2ECB SWAP1 SWAP2 SWAP1 PUSH4 0xFFFFFFFF AND JUMP JUMPDEST SWAP1 POP SWAP3 SWAP2 POP POP JUMP JUMPDEST PUSH1 0x0 DUP1 PUSH1 0x0 DUP1 PUSH1 0xD PUSH1 0x0 SWAP1 SLOAD SWAP1 PUSH2 0x100 EXP SWAP1 DIV PUSH20 0xFFFFFFFFFFFFFFFFFFFFFFFFFFFFFFFFFFFFFFFF AND PUSH20 0xFFFFFFFFFFFFFFFFFFFFFFFFFFFFFFFFFFFFFFFF AND PUSH4 0xBD02D0F5 PUSH32 0x50524F544F434F4C5F535741505F4645455F5045524300000000000000000000 PUSH1 0x40 MLOAD DUP3 PUSH4 0xFFFFFFFF AND PUSH1 0xE0 SHL DUP2 MSTORE PUSH1 0x4 ADD PUSH2 0x5753 SWAP2 SWAP1 PUSH2 0x72F8 JUMP JUMPDEST PUSH1 0x20 PUSH1 0x40 MLOAD DUP1 DUP4 SUB DUP2 DUP7 DUP1 EXTCODESIZE ISZERO DUP1 ISZERO PUSH2 0x576B JUMPI PUSH1 0x0 DUP1 REVERT JUMPDEST POP GAS STATICCALL ISZERO DUP1 ISZERO PUSH2 0x577F JUMPI RETURNDATASIZE PUSH1 0x0 DUP1 RETURNDATACOPY RETURNDATASIZE PUSH1 0x0 REVERT JUMPDEST POP POP POP POP PUSH1 0x40 MLOAD RETURNDATASIZE PUSH1 0x1F NOT PUSH1 0x1F DUP3 ADD AND DUP3 ADD DUP1 PUSH1 0x40 MSTORE POP DUP2 ADD SWAP1 PUSH2 0x57A3 SWAP2 SWAP1 PUSH2 0x6CDD JUMP JUMPDEST PUSH1 0xD PUSH1 0x0 SWAP1 SLOAD SWAP1 PUSH2 0x100 EXP SWAP1 DIV PUSH20 0xFFFFFFFFFFFFFFFFFFFFFFFFFFFFFFFFFFFFFFFF AND PUSH20 0xFFFFFFFFFFFFFFFFFFFFFFFFFFFFFFFFFFFFFFFF AND PUSH4 0xBD02D0F5 PUSH32 0x50524F544F434F4C5F4645455F4759524F5F504F5254494F4E00000000000000 PUSH1 0x40 MLOAD DUP3 PUSH4 0xFFFFFFFF AND PUSH1 0xE0 SHL DUP2 MSTORE PUSH1 0x4 ADD PUSH2 0x581E SWAP2 SWAP1 PUSH2 0x72F8 JUMP JUMPDEST PUSH1 0x20 PUSH1 0x40 MLOAD DUP1 DUP4 SUB DUP2 DUP7 DUP1 EXTCODESIZE ISZERO DUP1 ISZERO PUSH2 0x5836 JUMPI PUSH1 0x0 DUP1 REVERT JUMPDEST POP GAS STATICCALL ISZERO DUP1 ISZERO PUSH2 0x584A JUMPI RETURNDATASIZE PUSH1 0x0 DUP1 RETURNDATACOPY RETURNDATASIZE PUSH1 0x0 REVERT JUMPDEST POP POP POP POP PUSH1 0x40 MLOAD RETURNDATASIZE PUSH1 0x1F NOT PUSH1 0x1F DUP3 ADD AND DUP3 ADD DUP1 PUSH1 0x40 MSTORE POP DUP2 ADD SWAP1 PUSH2 0x586E SWAP2 SWAP1 PUSH2 0x6CDD JUMP JUMPDEST PUSH1 0xD PUSH1 0x0 SWAP1 SLOAD SWAP1 PUSH2 0x100 EXP SWAP1 DIV PUSH20 0xFFFFFFFFFFFFFFFFFFFFFFFFFFFFFFFFFFFFFFFF AND PUSH20 0xFFFFFFFFFFFFFFFFFFFFFFFFFFFFFFFFFFFFFFFF AND PUSH4 0x21F8A721 PUSH32 0x4759524F5F545245415355525900000000000000000000000000000000000000 PUSH1 0x40 MLOAD DUP3 PUSH4 0xFFFFFFFF AND PUSH1 0xE0 SHL DUP2 MSTORE PUSH1 0x4 ADD PUSH2 0x58E9 SWAP2 SWAP1 PUSH2 0x72F8 JUMP JUMPDEST PUSH1 0x20 PUSH1 0x40 MLOAD DUP1 DUP4 SUB DUP2 DUP7 DUP1 EXTCODESIZE ISZERO DUP1 ISZERO PUSH2 0x5901 JUMPI PUSH1 0x0 DUP1 REVERT JUMPDEST POP GAS STATICCALL ISZERO DUP1 ISZERO PUSH2 0x5915 JUMPI RETURNDATASIZE PUSH1 0x0 DUP1 RETURNDATACOPY RETURNDATASIZE PUSH1 0x0 REVERT JUMPDEST POP POP POP POP PUSH1 0x40 MLOAD RETURNDATASIZE PUSH1 0x1F NOT PUSH1 0x1F DUP3 ADD AND DUP3 ADD DUP1 PUSH1 0x40 MSTORE POP DUP2 ADD SWAP1 PUSH2 0x5939 SWAP2 SWAP1 PUSH2 0x66B3 JUMP JUMPDEST PUSH1 0xD PUSH1 0x0 SWAP1 SLOAD SWAP1 PUSH2 0x100 EXP SWAP1 DIV PUSH20 0xFFFFFFFFFFFFFFFFFFFFFFFFFFFFFFFFFFFFFFFF AND PUSH20 0xFFFFFFFFFFFFFFFFFFFFFFFFFFFFFFFFFFFFFFFF AND PUSH4 0x21F8A721 PUSH32 0x42414C5F54524541535552590000000000000000000000000000000000000000 PUSH1 0x40 MLOAD DUP3 PUSH4 0xFFFFFFFF AND PUSH1 0xE0 SHL DUP2 MSTORE PUSH1 0x4 ADD PUSH2 0x59B4 SWAP2 SWAP1 PUSH2 0x72F8 JUMP JUMPDEST PUSH1 0x20 PUSH1 0x40 MLOAD DUP1 DUP4 SUB DUP2 DUP7 DUP1 EXTCODESIZE ISZERO DUP1 ISZERO PUSH2 0x59CC JUMPI PUSH1 0x0 DUP1 REVERT JUMPDEST POP GAS STATICCALL ISZERO DUP1 ISZERO PUSH2 0x59E0 JUMPI RETURNDATASIZE PUSH1 0x0 DUP1 RETURNDATACOPY RETURNDATASIZE PUSH1 0x0 REVERT JUMPDEST POP POP POP POP PUSH1 0x40 MLOAD RETURNDATASIZE PUSH1 0x1F NOT PUSH1 0x1F DUP3 ADD AND DUP3 ADD DUP1 PUSH1 0x40 MSTORE POP DUP2 ADD SWAP1 PUSH2 0x5A04 SWAP2 SWAP1 PUSH2 0x66B3 JUMP JUMPDEST SWAP4 POP SWAP4 POP SWAP4 POP SWAP4 POP SWAP1 SWAP2 SWAP3 SWAP4 JUMP JUMPDEST PUSH1 0x0 DUP1 DUP7 DUP7 GT PUSH2 0x5A28 JUMPI PUSH1 0x0 DUP1 SWAP2 POP SWAP2 POP PUSH2 0x5AF5 JUMP JUMPDEST PUSH1 0x0 PUSH2 0x5A61 DUP6 PUSH2 0x5A53 PUSH2 0x5A44 DUP12 DUP12 PUSH2 0x33C5 SWAP1 SWAP2 SWAP1 PUSH4 0xFFFFFFFF AND JUMP JUMPDEST DUP10 PUSH2 0x4C85 SWAP1 SWAP2 SWAP1 PUSH4 0xFFFFFFFF AND JUMP JUMPDEST PUSH2 0x4C85 SWAP1 SWAP2 SWAP1 PUSH4 0xFFFFFFFF AND JUMP JUMPDEST SWAP1 POP PUSH1 0x0 PUSH2 0x5A8A PUSH2 0x5A7B DUP11 DUP11 PUSH2 0x33C5 SWAP1 SWAP2 SWAP1 PUSH4 0xFFFFFFFF AND JUMP JUMPDEST DUP8 PUSH2 0x4C85 SWAP1 SWAP2 SWAP1 PUSH4 0xFFFFFFFF AND JUMP JUMPDEST SWAP1 POP PUSH1 0x0 PUSH2 0x5AA1 DUP3 DUP11 PUSH2 0x33C5 SWAP1 SWAP2 SWAP1 PUSH4 0xFFFFFFFF AND JUMP JUMPDEST SWAP1 POP PUSH1 0x0 PUSH2 0x5AB8 DUP3 DUP6 PUSH2 0x2ECB SWAP1 SWAP2 SWAP1 PUSH4 0xFFFFFFFF AND JUMP JUMPDEST SWAP1 POP PUSH1 0x0 PUSH2 0x5ACF DUP3 DUP10 PUSH2 0x4C85 SWAP1 SWAP2 SWAP1 PUSH4 0xFFFFFFFF AND JUMP JUMPDEST SWAP1 POP PUSH1 0x0 PUSH2 0x5AE6 DUP3 DUP5 PUSH2 0x33C5 SWAP1 SWAP2 SWAP1 PUSH4 0xFFFFFFFF AND JUMP JUMPDEST SWAP1 POP DUP2 DUP2 SWAP8 POP SWAP8 POP POP POP POP POP POP POP JUMPDEST SWAP6 POP SWAP6 SWAP4 POP POP POP POP JUMP JUMPDEST PUSH1 0x0 DUP2 DUP1 PUSH1 0x20 ADD SWAP1 MLOAD DUP2 ADD SWAP1 PUSH2 0x5B15 SWAP2 SWAP1 PUSH2 0x6ADD JUMP JUMPDEST SWAP1 POP DUP1 SWAP2 POP POP SWAP2 SWAP1 POP JUMP JUMPDEST PUSH1 0x60 DUP4 MLOAD PUSH8 0xFFFFFFFFFFFFFFFF DUP2 GT DUP1 ISZERO PUSH2 0x5B3A JUMPI PUSH1 0x0 DUP1 REVERT JUMPDEST POP PUSH1 0x40 MLOAD SWAP1 DUP1 DUP3 MSTORE DUP1 PUSH1 0x20 MUL PUSH1 0x20 ADD DUP3 ADD PUSH1 0x40 MSTORE DUP1 ISZERO PUSH2 0x5B69 JUMPI DUP2 PUSH1 0x20 ADD PUSH1 0x20 DUP3 MUL DUP1 CALLDATASIZE DUP4 CALLDATACOPY DUP1 DUP3 ADD SWAP2 POP POP SWAP1 POP JUMPDEST POP SWAP1 POP PUSH1 0x0 JUMPDEST DUP5 MLOAD DUP2 LT ISZERO PUSH2 0x5BD5 JUMPI PUSH2 0x5BB0 DUP4 PUSH2 0x5BA2 DUP7 DUP9 DUP6 DUP2 MLOAD DUP2 LT PUSH2 0x5B8C JUMPI INVALID JUMPDEST PUSH1 0x20 MUL PUSH1 0x20 ADD ADD MLOAD PUSH2 0x4C85 SWAP1 SWAP2 SWAP1 PUSH4 0xFFFFFFFF AND JUMP JUMPDEST PUSH2 0x2ECB SWAP1 SWAP2 SWAP1 PUSH4 0xFFFFFFFF AND JUMP JUMPDEST DUP3 DUP3 DUP2 MLOAD DUP2 LT PUSH2 0x5BBC JUMPI INVALID JUMPDEST PUSH1 0x20 MUL PUSH1 0x20 ADD ADD DUP2 DUP2 MSTORE POP POP DUP1 DUP1 PUSH1 0x1 ADD SWAP2 POP POP PUSH2 0x5B6F JUMP JUMPDEST POP SWAP4 SWAP3 POP POP POP JUMP JUMPDEST PUSH1 0x0 DUP2 DUP1 PUSH1 0x20 ADD SWAP1 MLOAD DUP2 ADD SWAP1 PUSH2 0x5BF3 SWAP2 SWAP1 PUSH2 0x6B96 JUMP JUMPDEST SWAP1 POP DUP1 SWAP2 POP POP SWAP2 SWAP1 POP JUMP JUMPDEST PUSH1 0x60 DUP4 MLOAD PUSH8 0xFFFFFFFFFFFFFFFF DUP2 GT DUP1 ISZERO PUSH2 0x5C18 JUMPI PUSH1 0x0 DUP1 REVERT JUMPDEST POP PUSH1 0x40 MLOAD SWAP1 DUP1 DUP3 MSTORE DUP1 PUSH1 0x20 MUL PUSH1 0x20 ADD DUP3 ADD PUSH1 0x40 MSTORE DUP1 ISZERO PUSH2 0x5C47 JUMPI DUP2 PUSH1 0x20 ADD PUSH1 0x20 DUP3 MUL DUP1 CALLDATASIZE DUP4 CALLDATACOPY DUP1 DUP3 ADD SWAP2 POP POP SWAP1 POP JUMPDEST POP SWAP1 POP PUSH1 0x0 JUMPDEST DUP5 MLOAD DUP2 LT ISZERO PUSH2 0x5CB3 JUMPI PUSH2 0x5C8E DUP4 PUSH2 0x5C80 DUP7 DUP9 DUP6 DUP2 MLOAD DUP2 LT PUSH2 0x5C6A JUMPI INVALID JUMPDEST PUSH1 0x20 MUL PUSH1 0x20 ADD ADD MLOAD PUSH2 0x3367 SWAP1 SWAP2 SWAP1 PUSH4 0xFFFFFFFF AND JUMP JUMPDEST PUSH2 0x3475 SWAP1 SWAP2 SWAP1 PUSH4 0xFFFFFFFF AND JUMP JUMPDEST DUP3 DUP3 DUP2 MLOAD DUP2 LT PUSH2 0x5C9A JUMPI INVALID JUMPDEST PUSH1 0x20 MUL PUSH1 0x20 ADD ADD DUP2 DUP2 MSTORE POP POP DUP1 DUP1 PUSH1 0x1 ADD SWAP2 POP POP PUSH2 0x5C4D JUMP JUMPDEST POP SWAP4 SWAP3 POP POP POP JUMP JUMPDEST PUSH1 0x0 PUSH2 0x400 DUP3 DUP5 ADD DUP2 PUSH2 0x5CCA JUMPI INVALID JUMPDEST MOD SWAP1 POP SWAP3 SWAP2 POP POP JUMP JUMPDEST PUSH1 0x0 PUSH8 0xDE0B6B3A7640000 DUP3 LT PUSH2 0x5D13 JUMPI PUSH8 0xDE0B6B3A7640000 PUSH2 0x5D07 PUSH8 0xDE0B6B3A7640000 DUP5 DUP2 PUSH2 0x5D01 JUMPI INVALID JUMPDEST DIV PUSH2 0x5ECB JUMP JUMPDEST PUSH1 0x1 SWAP1 SHL MUL SWAP1 POP PUSH2 0x5EC6 JUMP JUMPDEST PUSH1 0xA DUP3 GT PUSH2 0x5D27 JUMPI PUSH4 0xBC7C871C SWAP1 POP PUSH2 0x5EC6 JUMP JUMPDEST PUSH1 0x64 DUP3 GT PUSH2 0x5D3C JUMPI PUSH5 0x2540BE400 SWAP1 POP PUSH2 0x5EC6 JUMP JUMPDEST PUSH2 0x3E8 DUP3 GT PUSH2 0x5D52 JUMPI PUSH5 0x75CDD4719 SWAP1 POP PUSH2 0x5EC6 JUMP JUMPDEST PUSH2 0x2710 DUP3 GT PUSH2 0x5D68 JUMPI PUSH5 0x174876E800 SWAP1 POP PUSH2 0x5EC6 JUMP JUMPDEST PUSH3 0x186A0 DUP3 GT PUSH2 0x5D7F JUMPI PUSH5 0x49A0A4C700 SWAP1 POP PUSH2 0x5EC6 JUMP JUMPDEST PUSH3 0xF4240 DUP3 GT PUSH2 0x5D96 JUMPI PUSH5 0xE8D4A51000 SWAP1 POP PUSH2 0x5EC6 JUMP JUMPDEST PUSH3 0x989680 DUP3 GT PUSH2 0x5DAE JUMPI PUSH6 0x2E0466FC608 SWAP1 POP PUSH2 0x5EC6 JUMP JUMPDEST PUSH4 0x5F5E100 DUP3 GT PUSH2 0x5DC7 JUMPI PUSH6 0x9184E72A000 SWAP1 POP PUSH2 0x5EC6 JUMP JUMPDEST PUSH4 0x3B9ACA00 DUP3 GT PUSH2 0x5DE0 JUMPI PUSH6 0x1CC2C05DBC53 SWAP1 POP PUSH2 0x5EC6 JUMP JUMPDEST PUSH5 0x2540BE400 DUP3 GT PUSH2 0x5DFA JUMPI PUSH6 0x5AF3107A4000 SWAP1 POP PUSH2 0x5EC6 JUMP JUMPDEST PUSH5 0x174876E800 DUP3 GT PUSH2 0x5E15 JUMPI PUSH7 0x11F9B83A95B45 SWAP1 POP PUSH2 0x5EC6 JUMP JUMPDEST PUSH5 0xE8D4A51000 DUP3 GT PUSH2 0x5E30 JUMPI PUSH7 0x38D7EA4C68000 SWAP1 POP PUSH2 0x5EC6 JUMP JUMPDEST PUSH6 0x9184E72A000 DUP3 GT PUSH2 0x5E4C JUMPI PUSH7 0xB3C13249D90BB SWAP1 POP PUSH2 0x5EC6 JUMP JUMPDEST PUSH6 0x5AF3107A4000 DUP3 GT PUSH2 0x5E68 JUMPI PUSH7 0x2386F26FC10000 SWAP1 POP PUSH2 0x5EC6 JUMP JUMPDEST PUSH7 0x38D7EA4C68000 DUP3 GT PUSH2 0x5E85 JUMPI PUSH7 0x7058BF6E27A751 SWAP1 POP PUSH2 0x5EC6 JUMP JUMPDEST PUSH7 0x2386F26FC10000 DUP3 GT PUSH2 0x5EA3 JUMPI PUSH8 0x16345785D8A0000 SWAP1 POP PUSH2 0x5EC6 JUMP JUMPDEST PUSH8 0x16345785D8A0000 DUP3 GT PUSH2 0x5EC2 JUMPI PUSH8 0x463777A4D8C892D SWAP1 POP PUSH2 0x5EC6 JUMP JUMPDEST DUP2 SWAP1 POP JUMPDEST SWAP2 SWAP1 POP JUMP JUMPDEST PUSH1 0x0 PUSH17 0x100000000000000000000000000000000 DUP3 LT PUSH2 0x5EF3 JUMPI PUSH1 0x80 DUP3 SWAP1 SHR SWAP2 POP PUSH1 0x40 DUP2 ADD SWAP1 POP JUMPDEST PUSH9 0x10000000000000000 DUP3 LT PUSH2 0x5F11 JUMPI PUSH1 0x40 DUP3 SWAP1 SHR SWAP2 POP PUSH1 0x20 DUP2 ADD SWAP1 POP JUMPDEST PUSH5 0x100000000 DUP3 LT PUSH2 0x5F2B JUMPI PUSH1 0x20 DUP3 SWAP1 SHR SWAP2 POP PUSH1 0x10 DUP2 ADD SWAP1 POP JUMPDEST PUSH3 0x10000 DUP3 LT PUSH2 0x5F43 JUMPI PUSH1 0x10 DUP3 SWAP1 SHR SWAP2 POP PUSH1 0x8 DUP2 ADD SWAP1 POP JUMPDEST PUSH2 0x100 DUP3 LT PUSH2 0x5F5A JUMPI PUSH1 0x8 DUP3 SWAP1 SHR SWAP2 POP PUSH1 0x4 DUP2 ADD SWAP1 POP JUMPDEST PUSH1 0x10 DUP3 LT PUSH2 0x5F70 JUMPI PUSH1 0x4 DUP3 SWAP1 SHR SWAP2 POP PUSH1 0x2 DUP2 ADD SWAP1 POP JUMPDEST PUSH1 0x4 DUP3 LT PUSH2 0x5F86 JUMPI PUSH1 0x2 DUP3 SWAP1 SHR SWAP2 POP PUSH1 0x1 DUP2 ADD SWAP1 POP JUMPDEST SWAP2 SWAP1 POP JUMP JUMPDEST PUSH1 0x40 MLOAD DUP1 PUSH1 0x60 ADD PUSH1 0x40 MSTORE DUP1 PUSH1 0x0 ISZERO ISZERO DUP2 MSTORE PUSH1 0x20 ADD PUSH1 0x0 PUSH15 0xFFFFFFFFFFFFFFFFFFFFFFFFFFFFFF AND DUP2 MSTORE PUSH1 0x20 ADD PUSH1 0x0 PUSH16 0xFFFFFFFFFFFFFFFFFFFFFFFFFFFFFFFF AND DUP2 MSTORE POP SWAP1 JUMP JUMPDEST PUSH1 0x40 MLOAD DUP1 PUSH1 0x40 ADD PUSH1 0x40 MSTORE DUP1 PUSH1 0x0 PUSH1 0x2 DUP2 GT ISZERO PUSH2 0x5FE9 JUMPI INVALID JUMPDEST DUP2 MSTORE PUSH1 0x20 ADD PUSH1 0x0 DUP2 MSTORE POP SWAP1 JUMP JUMPDEST PUSH1 0x40 MLOAD DUP1 PUSH1 0x40 ADD PUSH1 0x40 MSTORE DUP1 PUSH1 0x2 SWAP1 PUSH1 0x20 DUP3 MUL DUP1 CALLDATASIZE DUP4 CALLDATACOPY DUP1 DUP3 ADD SWAP2 POP POP SWAP1 POP POP SWAP1 JUMP JUMPDEST PUSH1 0x0 DUP2 CALLDATALOAD SWAP1 POP PUSH2 0x6027 DUP2 PUSH2 0x7AD0 JUMP JUMPDEST SWAP3 SWAP2 POP POP JUMP JUMPDEST PUSH1 0x0 DUP2 MLOAD SWAP1 POP PUSH2 0x603C DUP2 PUSH2 0x7AD0 JUMP JUMPDEST SWAP3 SWAP2 POP POP JUMP JUMPDEST PUSH1 0x0 DUP3 PUSH1 0x1F DUP4 ADD SLT PUSH2 0x6053 JUMPI PUSH1 0x0 DUP1 REVERT JUMPDEST DUP2 MLOAD PUSH2 0x6066 PUSH2 0x6061 DUP3 PUSH2 0x773E JUMP JUMPDEST PUSH2 0x7711 JUMP JUMPDEST SWAP2 POP DUP2 DUP2 DUP4 MSTORE PUSH1 0x20 DUP5 ADD SWAP4 POP PUSH1 0x20 DUP2 ADD SWAP1 POP DUP4 DUP6 PUSH1 0x20 DUP5 MUL DUP3 ADD GT ISZERO PUSH2 0x608B JUMPI PUSH1 0x0 DUP1 REVERT JUMPDEST PUSH1 0x0 JUMPDEST DUP4 DUP2 LT ISZERO PUSH2 0x60BB JUMPI DUP2 PUSH2 0x60A1 DUP9 DUP3 PUSH2 0x63A3 JUMP JUMPDEST DUP5 MSTORE PUSH1 0x20 DUP5 ADD SWAP4 POP PUSH1 0x20 DUP4 ADD SWAP3 POP POP PUSH1 0x1 DUP2 ADD SWAP1 POP PUSH2 0x608E JUMP JUMPDEST POP POP POP POP SWAP3 SWAP2 POP POP JUMP JUMPDEST PUSH1 0x0 DUP3 PUSH1 0x1F DUP4 ADD SLT PUSH2 0x60D6 JUMPI PUSH1 0x0 DUP1 REVERT JUMPDEST DUP2 CALLDATALOAD PUSH2 0x60E9 PUSH2 0x60E4 DUP3 PUSH2 0x7766 JUMP JUMPDEST PUSH2 0x7711 JUMP JUMPDEST SWAP2 POP DUP2 DUP2 DUP4 MSTORE PUSH1 0x20 DUP5 ADD SWAP4 POP PUSH1 0x20 DUP2 ADD SWAP1 POP DUP4 DUP6 PUSH1 0x40 DUP5 MUL DUP3 ADD GT ISZERO PUSH2 0x610E JUMPI PUSH1 0x0 DUP1 REVERT JUMPDEST PUSH1 0x0 JUMPDEST DUP4 DUP2 LT ISZERO PUSH2 0x613E JUMPI DUP2 PUSH2 0x6124 DUP9 DUP3 PUSH2 0x6481 JUMP JUMPDEST DUP5 MSTORE PUSH1 0x20 DUP5 ADD SWAP4 POP PUSH1 0x40 DUP4 ADD SWAP3 POP POP PUSH1 0x1 DUP2 ADD SWAP1 POP PUSH2 0x6111 JUMP JUMPDEST POP POP POP POP SWAP3 SWAP2 POP POP JUMP JUMPDEST PUSH1 0x0 DUP3 PUSH1 0x1F DUP4 ADD SLT PUSH2 0x6159 JUMPI PUSH1 0x0 DUP1 REVERT JUMPDEST DUP2 CALLDATALOAD PUSH2 0x616C PUSH2 0x6167 DUP3 PUSH2 0x778E JUMP JUMPDEST PUSH2 0x7711 JUMP JUMPDEST SWAP2 POP DUP2 DUP2 DUP4 MSTORE PUSH1 0x20 DUP5 ADD SWAP4 POP PUSH1 0x20 DUP2 ADD SWAP1 POP DUP4 DUP6 PUSH1 0x60 DUP5 MUL DUP3 ADD GT ISZERO PUSH2 0x6191 JUMPI PUSH1 0x0 DUP1 REVERT JUMPDEST PUSH1 0x0 JUMPDEST DUP4 DUP2 LT ISZERO PUSH2 0x61C1 JUMPI DUP2 PUSH2 0x61A7 DUP9 DUP3 PUSH2 0x64CD JUMP JUMPDEST DUP5 MSTORE PUSH1 0x20 DUP5 ADD SWAP4 POP PUSH1 0x60 DUP4 ADD SWAP3 POP POP PUSH1 0x1 DUP2 ADD SWAP1 POP PUSH2 0x6194 JUMP JUMPDEST POP POP POP POP SWAP3 SWAP2 POP POP JUMP JUMPDEST PUSH1 0x0 DUP3 PUSH1 0x1F DUP4 ADD SLT PUSH2 0x61DC JUMPI PUSH1 0x0 DUP1 REVERT JUMPDEST DUP2 CALLDATALOAD PUSH2 0x61EF PUSH2 0x61EA DUP3 PUSH2 0x77B6 JUMP JUMPDEST PUSH2 0x7711 JUMP JUMPDEST SWAP2 POP DUP2 DUP2 DUP4 MSTORE PUSH1 0x20 DUP5 ADD SWAP4 POP PUSH1 0x20 DUP2 ADD SWAP1 POP DUP4 DUP6 PUSH1 0x20 DUP5 MUL DUP3 ADD GT ISZERO PUSH2 0x6214 JUMPI PUSH1 0x0 DUP1 REVERT JUMPDEST PUSH1 0x0 JUMPDEST DUP4 DUP2 LT ISZERO PUSH2 0x6244 JUMPI DUP2 PUSH2 0x622A DUP9 DUP3 PUSH2 0x664B JUMP JUMPDEST DUP5 MSTORE PUSH1 0x20 DUP5 ADD SWAP4 POP PUSH1 0x20 DUP4 ADD SWAP3 POP POP PUSH1 0x1 DUP2 ADD SWAP1 POP PUSH2 0x6217 JUMP JUMPDEST POP POP POP POP SWAP3 SWAP2 POP POP JUMP JUMPDEST PUSH1 0x0 DUP3 PUSH1 0x1F DUP4 ADD SLT PUSH2 0x625F JUMPI PUSH1 0x0 DUP1 REVERT JUMPDEST DUP2 MLOAD PUSH2 0x6272 PUSH2 0x626D DUP3 PUSH2 0x77B6 JUMP JUMPDEST PUSH2 0x7711 JUMP JUMPDEST SWAP2 POP DUP2 DUP2 DUP4 MSTORE PUSH1 0x20 DUP5 ADD SWAP4 POP PUSH1 0x20 DUP2 ADD SWAP1 POP DUP4 DUP6 PUSH1 0x20 DUP5 MUL DUP3 ADD GT ISZERO PUSH2 0x6297 JUMPI PUSH1 0x0 DUP1 REVERT JUMPDEST PUSH1 0x0 JUMPDEST DUP4 DUP2 LT ISZERO PUSH2 0x62C7 JUMPI DUP2 PUSH2 0x62AD DUP9 DUP3 PUSH2 0x6660 JUMP JUMPDEST DUP5 MSTORE PUSH1 0x20 DUP5 ADD SWAP4 POP PUSH1 0x20 DUP4 ADD SWAP3 POP POP PUSH1 0x1 DUP2 ADD SWAP1 POP PUSH2 0x629A JUMP JUMPDEST POP POP POP POP SWAP3 SWAP2 POP POP JUMP JUMPDEST PUSH1 0x0 DUP2 CALLDATALOAD SWAP1 POP PUSH2 0x62E0 DUP2 PUSH2 0x7AE7 JUMP JUMPDEST SWAP3 SWAP2 POP POP JUMP JUMPDEST PUSH1 0x0 DUP2 MLOAD SWAP1 POP PUSH2 0x62F5 DUP2 PUSH2 0x7AE7 JUMP JUMPDEST SWAP3 SWAP2 POP POP JUMP JUMPDEST PUSH1 0x0 DUP2 CALLDATALOAD SWAP1 POP PUSH2 0x630A DUP2 PUSH2 0x7AFE JUMP JUMPDEST SWAP3 SWAP2 POP POP JUMP JUMPDEST PUSH1 0x0 DUP2 CALLDATALOAD SWAP1 POP PUSH2 0x631F DUP2 PUSH2 0x7B15 JUMP JUMPDEST SWAP3 SWAP2 POP POP JUMP JUMPDEST PUSH1 0x0 DUP3 PUSH1 0x1F DUP4 ADD SLT PUSH2 0x6336 JUMPI PUSH1 0x0 DUP1 REVERT JUMPDEST DUP2 CALLDATALOAD PUSH2 0x6349 PUSH2 0x6344 DUP3 PUSH2 0x77DE JUMP JUMPDEST PUSH2 0x7711 JUMP JUMPDEST SWAP2 POP DUP1 DUP3 MSTORE PUSH1 0x20 DUP4 ADD PUSH1 0x20 DUP4 ADD DUP6 DUP4 DUP4 ADD GT ISZERO PUSH2 0x6365 JUMPI PUSH1 0x0 DUP1 REVERT JUMPDEST PUSH2 0x6370 DUP4 DUP3 DUP5 PUSH2 0x7A5C JUMP JUMPDEST POP POP POP SWAP3 SWAP2 POP POP JUMP JUMPDEST PUSH1 0x0 DUP2 MLOAD SWAP1 POP PUSH2 0x6388 DUP2 PUSH2 0x7B2C JUMP JUMPDEST SWAP3 SWAP2 POP POP JUMP JUMPDEST PUSH1 0x0 DUP2 CALLDATALOAD SWAP1 POP PUSH2 0x639D DUP2 PUSH2 0x7B43 JUMP JUMPDEST SWAP3 SWAP2 POP POP JUMP JUMPDEST PUSH1 0x0 DUP2 MLOAD SWAP1 POP PUSH2 0x63B2 DUP2 PUSH2 0x7B43 JUMP JUMPDEST SWAP3 SWAP2 POP POP JUMP JUMPDEST PUSH1 0x0 DUP2 MLOAD SWAP1 POP PUSH2 0x63C7 DUP2 PUSH2 0x7B5A JUMP JUMPDEST SWAP3 SWAP2 POP POP JUMP JUMPDEST PUSH1 0x0 DUP2 MLOAD SWAP1 POP PUSH2 0x63DC DUP2 PUSH2 0x7B6A JUMP JUMPDEST SWAP3 SWAP2 POP POP JUMP JUMPDEST PUSH1 0x0 DUP2 CALLDATALOAD SWAP1 POP PUSH2 0x63F1 DUP2 PUSH2 0x7B7A JUMP JUMPDEST SWAP3 SWAP2 POP POP JUMP JUMPDEST PUSH1 0x0 DUP2 CALLDATALOAD SWAP1 POP PUSH2 0x6406 DUP2 PUSH2 0x7B8A JUMP JUMPDEST SWAP3 SWAP2 POP POP JUMP JUMPDEST PUSH1 0x0 DUP2 MLOAD SWAP1 POP PUSH2 0x641B DUP2 PUSH2 0x7B9A JUMP JUMPDEST SWAP3 SWAP2 POP POP JUMP JUMPDEST PUSH1 0x0 PUSH1 0x60 DUP3 DUP5 SUB SLT ISZERO PUSH2 0x6433 JUMPI PUSH1 0x0 DUP1 REVERT JUMPDEST PUSH2 0x643D PUSH1 0x60 PUSH2 0x7711 JUMP JUMPDEST SWAP1 POP PUSH1 0x0 PUSH2 0x644D DUP5 DUP3 DUP6 ADD PUSH2 0x62D1 JUMP JUMPDEST PUSH1 0x0 DUP4 ADD MSTORE POP PUSH1 0x20 PUSH2 0x6461 DUP5 DUP3 DUP6 ADD PUSH2 0x6621 JUMP JUMPDEST PUSH1 0x20 DUP4 ADD MSTORE POP PUSH1 0x40 PUSH2 0x6475 DUP5 DUP3 DUP6 ADD PUSH2 0x6636 JUMP JUMPDEST PUSH1 0x40 DUP4 ADD MSTORE POP SWAP3 SWAP2 POP POP JUMP JUMPDEST PUSH1 0x0 PUSH1 0x40 DUP3 DUP5 SUB SLT ISZERO PUSH2 0x6493 JUMPI PUSH1 0x0 DUP1 REVERT JUMPDEST PUSH2 0x649D PUSH1 0x40 PUSH2 0x7711 JUMP JUMPDEST SWAP1 POP PUSH1 0x0 PUSH2 0x64AD DUP5 DUP3 DUP6 ADD PUSH2 0x63F7 JUMP JUMPDEST PUSH1 0x0 DUP4 ADD MSTORE POP PUSH1 0x20 PUSH2 0x64C1 DUP5 DUP3 DUP6 ADD PUSH2 0x664B JUMP JUMPDEST PUSH1 0x20 DUP4 ADD MSTORE POP SWAP3 SWAP2 POP POP JUMP JUMPDEST PUSH1 0x0 PUSH1 0x60 DUP3 DUP5 SUB SLT ISZERO PUSH2 0x64DF JUMPI PUSH1 0x0 DUP1 REVERT JUMPDEST PUSH2 0x64E9 PUSH1 0x60 PUSH2 0x7711 JUMP JUMPDEST SWAP1 POP PUSH1 0x0 PUSH2 0x64F9 DUP5 DUP3 DUP6 ADD PUSH2 0x63F7 JUMP JUMPDEST PUSH1 0x0 DUP4 ADD MSTORE POP PUSH1 0x20 PUSH2 0x650D DUP5 DUP3 DUP6 ADD PUSH2 0x664B JUMP JUMPDEST PUSH1 0x20 DUP4 ADD MSTORE POP PUSH1 0x40 PUSH2 0x6521 DUP5 DUP3 DUP6 ADD PUSH2 0x664B JUMP JUMPDEST PUSH1 0x40 DUP4 ADD MSTORE POP SWAP3 SWAP2 POP POP JUMP JUMPDEST PUSH1 0x0 PUSH2 0x120 DUP3 DUP5 SUB SLT ISZERO PUSH2 0x6540 JUMPI PUSH1 0x0 DUP1 REVERT JUMPDEST PUSH2 0x654B PUSH2 0x120 PUSH2 0x7711 JUMP JUMPDEST SWAP1 POP PUSH1 0x0 PUSH2 0x655B DUP5 DUP3 DUP6 ADD PUSH2 0x63E2 JUMP JUMPDEST PUSH1 0x0 DUP4 ADD MSTORE POP PUSH1 0x20 PUSH2 0x656F DUP5 DUP3 DUP6 ADD PUSH2 0x638E JUMP JUMPDEST PUSH1 0x20 DUP4 ADD MSTORE POP PUSH1 0x40 PUSH2 0x6583 DUP5 DUP3 DUP6 ADD PUSH2 0x638E JUMP JUMPDEST PUSH1 0x40 DUP4 ADD MSTORE POP PUSH1 0x60 PUSH2 0x6597 DUP5 DUP3 DUP6 ADD PUSH2 0x664B JUMP JUMPDEST PUSH1 0x60 DUP4 ADD MSTORE POP PUSH1 0x80 PUSH2 0x65AB DUP5 DUP3 DUP6 ADD PUSH2 0x62FB JUMP JUMPDEST PUSH1 0x80 DUP4 ADD MSTORE POP PUSH1 0xA0 PUSH2 0x65BF DUP5 DUP3 DUP6 ADD PUSH2 0x664B JUMP JUMPDEST PUSH1 0xA0 DUP4 ADD MSTORE POP PUSH1 0xC0 PUSH2 0x65D3 DUP5 DUP3 DUP6 ADD PUSH2 0x6018 JUMP JUMPDEST PUSH1 0xC0 DUP4 ADD MSTORE POP PUSH1 0xE0 PUSH2 0x65E7 DUP5 DUP3 DUP6 ADD PUSH2 0x6018 JUMP JUMPDEST PUSH1 0xE0 DUP4 ADD MSTORE POP PUSH2 0x100 DUP3 ADD CALLDATALOAD PUSH8 0xFFFFFFFFFFFFFFFF DUP2 GT ISZERO PUSH2 0x6608 JUMPI PUSH1 0x0 DUP1 REVERT JUMPDEST PUSH2 0x6614 DUP5 DUP3 DUP6 ADD PUSH2 0x6325 JUMP JUMPDEST PUSH2 0x100 DUP4 ADD MSTORE POP SWAP3 SWAP2 POP POP JUMP JUMPDEST PUSH1 0x0 DUP2 CALLDATALOAD SWAP1 POP PUSH2 0x6630 DUP2 PUSH2 0x7BB1 JUMP JUMPDEST SWAP3 SWAP2 POP POP JUMP JUMPDEST PUSH1 0x0 DUP2 CALLDATALOAD SWAP1 POP PUSH2 0x6645 DUP2 PUSH2 0x7BC8 JUMP JUMPDEST SWAP3 SWAP2 POP POP JUMP JUMPDEST PUSH1 0x0 DUP2 CALLDATALOAD SWAP1 POP PUSH2 0x665A DUP2 PUSH2 0x7BDF JUMP JUMPDEST SWAP3 SWAP2 POP POP JUMP JUMPDEST PUSH1 0x0 DUP2 MLOAD SWAP1 POP PUSH2 0x666F DUP2 PUSH2 0x7BDF JUMP JUMPDEST SWAP3 SWAP2 POP POP JUMP JUMPDEST PUSH1 0x0 DUP2 CALLDATALOAD SWAP1 POP PUSH2 0x6684 DUP2 PUSH2 0x7BF6 JUMP JUMPDEST SWAP3 SWAP2 POP POP JUMP JUMPDEST PUSH1 0x0 PUSH1 0x20 DUP3 DUP5 SUB SLT ISZERO PUSH2 0x669C JUMPI PUSH1 0x0 DUP1 REVERT JUMPDEST PUSH1 0x0 PUSH2 0x66AA DUP5 DUP3 DUP6 ADD PUSH2 0x6018 JUMP JUMPDEST SWAP2 POP POP SWAP3 SWAP2 POP POP JUMP JUMPDEST PUSH1 0x0 PUSH1 0x20 DUP3 DUP5 SUB SLT ISZERO PUSH2 0x66C5 JUMPI PUSH1 0x0 DUP1 REVERT JUMPDEST PUSH1 0x0 PUSH2 0x66D3 DUP5 DUP3 DUP6 ADD PUSH2 0x602D JUMP JUMPDEST SWAP2 POP POP SWAP3 SWAP2 POP POP JUMP JUMPDEST PUSH1 0x0 DUP1 PUSH1 0x40 DUP4 DUP6 SUB SLT ISZERO PUSH2 0x66EF JUMPI PUSH1 0x0 DUP1 REVERT JUMPDEST PUSH1 0x0 PUSH2 0x66FD DUP6 DUP3 DUP7 ADD PUSH2 0x6018 JUMP JUMPDEST SWAP3 POP POP PUSH1 0x20 PUSH2 0x670E DUP6 DUP3 DUP7 ADD PUSH2 0x6018 JUMP JUMPDEST SWAP2 POP POP SWAP3 POP SWAP3 SWAP1 POP JUMP JUMPDEST PUSH1 0x0 DUP1 PUSH1 0x0 PUSH1 0x60 DUP5 DUP7 SUB SLT ISZERO PUSH2 0x672D JUMPI PUSH1 0x0 DUP1 REVERT JUMPDEST PUSH1 0x0 PUSH2 0x673B DUP7 DUP3 DUP8 ADD PUSH2 0x6018 JUMP JUMPDEST SWAP4 POP POP PUSH1 0x20 PUSH2 0x674C DUP7 DUP3 DUP8 ADD PUSH2 0x6018 JUMP JUMPDEST SWAP3 POP POP PUSH1 0x40 PUSH2 0x675D DUP7 DUP3 DUP8 ADD PUSH2 0x664B JUMP JUMPDEST SWAP2 POP POP SWAP3 POP SWAP3 POP SWAP3 JUMP JUMPDEST PUSH1 0x0 DUP1 PUSH1 0x0 DUP1 PUSH1 0x0 DUP1 PUSH1 0x0 PUSH1 0xE0 DUP9 DUP11 SUB SLT ISZERO PUSH2 0x6782 JUMPI PUSH1 0x0 DUP1 REVERT JUMPDEST PUSH1 0x0 PUSH2 0x6790 DUP11 DUP3 DUP12 ADD PUSH2 0x6018 JUMP JUMPDEST SWAP8 POP POP PUSH1 0x20 PUSH2 0x67A1 DUP11 DUP3 DUP12 ADD PUSH2 0x6018 JUMP JUMPDEST SWAP7 POP POP PUSH1 0x40 PUSH2 0x67B2 DUP11 DUP3 DUP12 ADD PUSH2 0x664B JUMP JUMPDEST SWAP6 POP POP PUSH1 0x60 PUSH2 0x67C3 DUP11 DUP3 DUP12 ADD PUSH2 0x664B JUMP JUMPDEST SWAP5 POP POP PUSH1 0x80 PUSH2 0x67D4 DUP11 DUP3 DUP12 ADD PUSH2 0x6675 JUMP JUMPDEST SWAP4 POP POP PUSH1 0xA0 PUSH2 0x67E5 DUP11 DUP3 DUP12 ADD PUSH2 0x62FB JUMP JUMPDEST SWAP3 POP POP PUSH1 0xC0 PUSH2 0x67F6 DUP11 DUP3 DUP12 ADD PUSH2 0x62FB JUMP JUMPDEST SWAP2 POP POP SWAP3 SWAP6 SWAP9 SWAP2 SWAP5 SWAP8 POP SWAP3 SWAP6 POP JUMP JUMPDEST PUSH1 0x0 DUP1 PUSH1 0x40 DUP4 DUP6 SUB SLT ISZERO PUSH2 0x6818 JUMPI PUSH1 0x0 DUP1 REVERT JUMPDEST PUSH1 0x0 PUSH2 0x6826 DUP6 DUP3 DUP7 ADD PUSH2 0x6018 JUMP JUMPDEST SWAP3 POP POP PUSH1 0x20 PUSH2 0x6837 DUP6 DUP3 DUP7 ADD PUSH2 0x664B JUMP JUMPDEST SWAP2 POP POP SWAP3 POP SWAP3 SWAP1 POP JUMP JUMPDEST PUSH1 0x0 DUP1 PUSH1 0x0 PUSH1 0x60 DUP5 DUP7 SUB SLT ISZERO PUSH2 0x6856 JUMPI PUSH1 0x0 DUP1 REVERT JUMPDEST PUSH1 0x0 DUP5 ADD MLOAD PUSH8 0xFFFFFFFFFFFFFFFF DUP2 GT ISZERO PUSH2 0x6870 JUMPI PUSH1 0x0 DUP1 REVERT JUMPDEST PUSH2 0x687C DUP7 DUP3 DUP8 ADD PUSH2 0x6042 JUMP JUMPDEST SWAP4 POP POP PUSH1 0x20 DUP5 ADD MLOAD PUSH8 0xFFFFFFFFFFFFFFFF DUP2 GT ISZERO PUSH2 0x6899 JUMPI PUSH1 0x0 DUP1 REVERT JUMPDEST PUSH2 0x68A5 DUP7 DUP3 DUP8 ADD PUSH2 0x624E JUMP JUMPDEST SWAP3 POP POP PUSH1 0x40 PUSH2 0x68B6 DUP7 DUP3 DUP8 ADD PUSH2 0x6660 JUMP JUMPDEST SWAP2 POP POP SWAP3 POP SWAP3 POP SWAP3 JUMP JUMPDEST PUSH1 0x0 PUSH1 0x20 DUP3 DUP5 SUB SLT ISZERO PUSH2 0x68D2 JUMPI PUSH1 0x0 DUP1 REVERT JUMPDEST PUSH1 0x0 DUP3 ADD CALLDATALOAD PUSH8 0xFFFFFFFFFFFFFFFF DUP2 GT ISZERO PUSH2 0x68EC JUMPI PUSH1 0x0 DUP1 REVERT JUMPDEST PUSH2 0x68F8 DUP5 DUP3 DUP6 ADD PUSH2 0x60C5 JUMP JUMPDEST SWAP2 POP POP SWAP3 SWAP2 POP POP JUMP JUMPDEST PUSH1 0x0 PUSH1 0x20 DUP3 DUP5 SUB SLT ISZERO PUSH2 0x6913 JUMPI PUSH1 0x0 DUP1 REVERT JUMPDEST PUSH1 0x0 DUP3 ADD CALLDATALOAD PUSH8 0xFFFFFFFFFFFFFFFF DUP2 GT ISZERO PUSH2 0x692D JUMPI PUSH1 0x0 DUP1 REVERT JUMPDEST PUSH2 0x6939 DUP5 DUP3 DUP6 ADD PUSH2 0x6148 JUMP JUMPDEST SWAP2 POP POP SWAP3 SWAP2 POP POP JUMP JUMPDEST PUSH1 0x0 PUSH1 0x20 DUP3 DUP5 SUB SLT ISZERO PUSH2 0x6954 JUMPI PUSH1 0x0 DUP1 REVERT JUMPDEST PUSH1 0x0 PUSH2 0x6962 DUP5 DUP3 DUP6 ADD PUSH2 0x62D1 JUMP JUMPDEST SWAP2 POP POP SWAP3 SWAP2 POP POP JUMP JUMPDEST PUSH1 0x0 PUSH1 0x20 DUP3 DUP5 SUB SLT ISZERO PUSH2 0x697D JUMPI PUSH1 0x0 DUP1 REVERT JUMPDEST PUSH1 0x0 PUSH2 0x698B DUP5 DUP3 DUP6 ADD PUSH2 0x62E6 JUMP JUMPDEST SWAP2 POP POP SWAP3 SWAP2 POP POP JUMP JUMPDEST PUSH1 0x0 DUP1 PUSH1 0x0 DUP1 PUSH1 0x0 DUP1 PUSH1 0x0 PUSH1 0xE0 DUP9 DUP11 SUB SLT ISZERO PUSH2 0x69AF JUMPI PUSH1 0x0 DUP1 REVERT JUMPDEST PUSH1 0x0 PUSH2 0x69BD DUP11 DUP3 DUP12 ADD PUSH2 0x62FB JUMP JUMPDEST SWAP8 POP POP PUSH1 0x20 PUSH2 0x69CE DUP11 DUP3 DUP12 ADD PUSH2 0x6018 JUMP JUMPDEST SWAP7 POP POP PUSH1 0x40 PUSH2 0x69DF DUP11 DUP3 DUP12 ADD PUSH2 0x6018 JUMP JUMPDEST SWAP6 POP POP PUSH1 0x60 DUP9 ADD CALLDATALOAD PUSH8 0xFFFFFFFFFFFFFFFF DUP2 GT ISZERO PUSH2 0x69FC JUMPI PUSH1 0x0 DUP1 REVERT JUMPDEST PUSH2 0x6A08 DUP11 DUP3 DUP12 ADD PUSH2 0x61CB JUMP JUMPDEST SWAP5 POP POP PUSH1 0x80 PUSH2 0x6A19 DUP11 DUP3 DUP12 ADD PUSH2 0x664B JUMP JUMPDEST SWAP4 POP POP PUSH1 0xA0 PUSH2 0x6A2A DUP11 DUP3 DUP12 ADD PUSH2 0x664B JUMP JUMPDEST SWAP3 POP POP PUSH1 0xC0 DUP9 ADD CALLDATALOAD PUSH8 0xFFFFFFFFFFFFFFFF DUP2 GT ISZERO PUSH2 0x6A47 JUMPI PUSH1 0x0 DUP1 REVERT JUMPDEST PUSH2 0x6A53 DUP11 DUP3 DUP12 ADD PUSH2 0x6325 JUMP JUMPDEST SWAP2 POP POP SWAP3 SWAP6 SWAP9 SWAP2 SWAP5 SWAP8 POP SWAP3 SWAP6 POP JUMP JUMPDEST PUSH1 0x0 PUSH1 0x20 DUP3 DUP5 SUB SLT ISZERO PUSH2 0x6A74 JUMPI PUSH1 0x0 DUP1 REVERT JUMPDEST PUSH1 0x0 PUSH2 0x6A82 DUP5 DUP3 DUP6 ADD PUSH2 0x6310 JUMP JUMPDEST SWAP2 POP POP SWAP3 SWAP2 POP POP JUMP JUMPDEST PUSH1 0x0 PUSH1 0x20 DUP3 DUP5 SUB SLT ISZERO PUSH2 0x6A9D JUMPI PUSH1 0x0 DUP1 REVERT JUMPDEST PUSH1 0x0 PUSH2 0x6AAB DUP5 DUP3 DUP6 ADD PUSH2 0x6379 JUMP JUMPDEST SWAP2 POP POP SWAP3 SWAP2 POP POP JUMP JUMPDEST PUSH1 0x0 PUSH1 0x20 DUP3 DUP5 SUB SLT ISZERO PUSH2 0x6AC6 JUMPI PUSH1 0x0 DUP1 REVERT JUMPDEST PUSH1 0x0 PUSH2 0x6AD4 DUP5 DUP3 DUP6 ADD PUSH2 0x63B8 JUMP JUMPDEST SWAP2 POP POP SWAP3 SWAP2 POP POP JUMP JUMPDEST PUSH1 0x0 DUP1 PUSH1 0x40 DUP4 DUP6 SUB SLT ISZERO PUSH2 0x6AF0 JUMPI PUSH1 0x0 DUP1 REVERT JUMPDEST PUSH1 0x0 PUSH2 0x6AFE DUP6 DUP3 DUP7 ADD PUSH2 0x63B8 JUMP JUMPDEST SWAP3 POP POP PUSH1 0x20 PUSH2 0x6B0F DUP6 DUP3 DUP7 ADD PUSH2 0x6660 JUMP JUMPDEST SWAP2 POP POP SWAP3 POP SWAP3 SWAP1 POP JUMP JUMPDEST PUSH1 0x0 PUSH1 0x20 DUP3 DUP5 SUB SLT ISZERO PUSH2 0x6B2B JUMPI PUSH1 0x0 DUP1 REVERT JUMPDEST PUSH1 0x0 PUSH2 0x6B39 DUP5 DUP3 DUP6 ADD PUSH2 0x63CD JUMP JUMPDEST SWAP2 POP POP SWAP3 SWAP2 POP POP JUMP JUMPDEST PUSH1 0x0 DUP1 PUSH1 0x40 DUP4 DUP6 SUB SLT ISZERO PUSH2 0x6B55 JUMPI PUSH1 0x0 DUP1 REVERT JUMPDEST PUSH1 0x0 PUSH2 0x6B63 DUP6 DUP3 DUP7 ADD PUSH2 0x63CD JUMP JUMPDEST SWAP3 POP POP PUSH1 0x20 DUP4 ADD MLOAD PUSH8 0xFFFFFFFFFFFFFFFF DUP2 GT ISZERO PUSH2 0x6B80 JUMPI PUSH1 0x0 DUP1 REVERT JUMPDEST PUSH2 0x6B8C DUP6 DUP3 DUP7 ADD PUSH2 0x624E JUMP JUMPDEST SWAP2 POP POP SWAP3 POP SWAP3 SWAP1 POP JUMP JUMPDEST PUSH1 0x0 DUP1 PUSH1 0x40 DUP4 DUP6 SUB SLT ISZERO PUSH2 0x6BA9 JUMPI PUSH1 0x0 DUP1 REVERT JUMPDEST PUSH1 0x0 PUSH2 0x6BB7 DUP6 DUP3 DUP7 ADD PUSH2 0x63CD JUMP JUMPDEST SWAP3 POP POP PUSH1 0x20 PUSH2 0x6BC8 DUP6 DUP3 DUP7 ADD PUSH2 0x6660 JUMP JUMPDEST SWAP2 POP POP SWAP3 POP SWAP3 SWAP1 POP JUMP JUMPDEST PUSH1 0x0 PUSH1 0x20 DUP3 DUP5 SUB SLT ISZERO PUSH2 0x6BE4 JUMPI PUSH1 0x0 DUP1 REVERT JUMPDEST PUSH1 0x0 PUSH2 0x6BF2 DUP5 DUP3 DUP6 ADD PUSH2 0x63F7 JUMP JUMPDEST SWAP2 POP POP SWAP3 SWAP2 POP POP JUMP JUMPDEST PUSH1 0x0 PUSH1 0x20 DUP3 DUP5 SUB SLT ISZERO PUSH2 0x6C0D JUMPI PUSH1 0x0 DUP1 REVERT JUMPDEST PUSH1 0x0 PUSH2 0x6C1B DUP5 DUP3 DUP6 ADD PUSH2 0x640C JUMP JUMPDEST SWAP2 POP POP SWAP3 SWAP2 POP POP JUMP JUMPDEST PUSH1 0x0 PUSH1 0x60 DUP3 DUP5 SUB SLT ISZERO PUSH2 0x6C36 JUMPI PUSH1 0x0 DUP1 REVERT JUMPDEST PUSH1 0x0 PUSH2 0x6C44 DUP5 DUP3 DUP6 ADD PUSH2 0x6421 JUMP JUMPDEST SWAP2 POP POP SWAP3 SWAP2 POP POP JUMP JUMPDEST PUSH1 0x0 DUP1 PUSH1 0x0 PUSH1 0x60 DUP5 DUP7 SUB SLT ISZERO PUSH2 0x6C62 JUMPI PUSH1 0x0 DUP1 REVERT JUMPDEST PUSH1 0x0 DUP5 ADD CALLDATALOAD PUSH8 0xFFFFFFFFFFFFFFFF DUP2 GT ISZERO PUSH2 0x6C7C JUMPI PUSH1 0x0 DUP1 REVERT JUMPDEST PUSH2 0x6C88 DUP7 DUP3 DUP8 ADD PUSH2 0x652D JUMP JUMPDEST SWAP4 POP POP PUSH1 0x20 PUSH2 0x6C99 DUP7 DUP3 DUP8 ADD PUSH2 0x664B JUMP JUMPDEST SWAP3 POP POP PUSH1 0x40 PUSH2 0x6CAA DUP7 DUP3 DUP8 ADD PUSH2 0x664B JUMP JUMPDEST SWAP2 POP POP SWAP3 POP SWAP3 POP SWAP3 JUMP JUMPDEST PUSH1 0x0 PUSH1 0x20 DUP3 DUP5 SUB SLT ISZERO PUSH2 0x6CC6 JUMPI PUSH1 0x0 DUP1 REVERT JUMPDEST PUSH1 0x0 PUSH2 0x6CD4 DUP5 DUP3 DUP6 ADD PUSH2 0x664B JUMP JUMPDEST SWAP2 POP POP SWAP3 SWAP2 POP POP JUMP JUMPDEST PUSH1 0x0 PUSH1 0x20 DUP3 DUP5 SUB SLT ISZERO PUSH2 0x6CEF JUMPI PUSH1 0x0 DUP1 REVERT JUMPDEST PUSH1 0x0 PUSH2 0x6CFD DUP5 DUP3 DUP6 ADD PUSH2 0x6660 JUMP JUMPDEST SWAP2 POP POP SWAP3 SWAP2 POP POP JUMP JUMPDEST PUSH1 0x0 DUP1 PUSH1 0x40 DUP4 DUP6 SUB SLT ISZERO PUSH2 0x6D19 JUMPI PUSH1 0x0 DUP1 REVERT JUMPDEST PUSH1 0x0 PUSH2 0x6D27 DUP6 DUP3 DUP7 ADD PUSH2 0x664B JUMP JUMPDEST SWAP3 POP POP PUSH1 0x20 PUSH2 0x6D38 DUP6 DUP3 DUP7 ADD PUSH2 0x664B JUMP JUMPDEST SWAP2 POP POP SWAP3 POP SWAP3 SWAP1 POP JUMP JUMPDEST PUSH1 0x0 DUP1 PUSH1 0x0 PUSH1 0x60 DUP5 DUP7 SUB SLT ISZERO PUSH2 0x6D57 JUMPI PUSH1 0x0 DUP1 REVERT JUMPDEST PUSH1 0x0 PUSH2 0x6D65 DUP7 DUP3 DUP8 ADD PUSH2 0x664B JUMP JUMPDEST SWAP4 POP POP PUSH1 0x20 PUSH2 0x6D76 DUP7 DUP3 DUP8 ADD PUSH2 0x664B JUMP JUMPDEST SWAP3 POP POP PUSH1 0x40 PUSH2 0x6D87 DUP7 DUP3 DUP8 ADD PUSH2 0x62D1 JUMP JUMPDEST SWAP2 POP POP SWAP3 POP SWAP3 POP SWAP3 JUMP JUMPDEST PUSH1 0x0 PUSH2 0x6D9D DUP4 DUP4 PUSH2 0x6FAE JUMP JUMPDEST PUSH1 0x20 DUP4 ADD SWAP1 POP SWAP3 SWAP2 POP POP JUMP JUMPDEST PUSH1 0x0 PUSH2 0x6DB5 DUP4 DUP4 PUSH2 0x712E JUMP JUMPDEST PUSH1 0x20 DUP4 ADD SWAP1 POP SWAP3 SWAP2 POP POP JUMP JUMPDEST PUSH2 0x6DCA DUP2 PUSH2 0x78DB JUMP JUMPDEST DUP3 MSTORE POP POP JUMP JUMPDEST PUSH1 0x0 PUSH2 0x6DDB DUP3 PUSH2 0x7834 JUMP JUMPDEST PUSH2 0x6DE5 DUP2 DUP6 PUSH2 0x7887 JUMP JUMPDEST SWAP4 POP PUSH2 0x6DF0 DUP4 PUSH2 0x780A JUMP JUMPDEST DUP1 PUSH1 0x0 JUMPDEST DUP4 DUP2 LT ISZERO PUSH2 0x6E21 JUMPI DUP2 MLOAD PUSH2 0x6E08 DUP9 DUP3 PUSH2 0x6D91 JUMP JUMPDEST SWAP8 POP PUSH2 0x6E13 DUP4 PUSH2 0x7860 JUMP JUMPDEST SWAP3 POP POP PUSH1 0x1 DUP2 ADD SWAP1 POP PUSH2 0x6DF4 JUMP JUMPDEST POP DUP6 SWAP4 POP POP POP POP SWAP3 SWAP2 POP POP JUMP JUMPDEST PUSH2 0x6E37 DUP2 PUSH2 0x783F JUMP JUMPDEST PUSH2 0x6E41 DUP2 DUP5 PUSH2 0x7898 JUMP JUMPDEST SWAP3 POP PUSH2 0x6E4C DUP3 PUSH2 0x781A JUMP JUMPDEST DUP1 PUSH1 0x0 JUMPDEST DUP4 DUP2 LT ISZERO PUSH2 0x6E7D JUMPI DUP2 MLOAD PUSH2 0x6E64 DUP8 DUP3 PUSH2 0x6DA9 JUMP JUMPDEST SWAP7 POP PUSH2 0x6E6F DUP4 PUSH2 0x786D JUMP JUMPDEST SWAP3 POP POP PUSH1 0x1 DUP2 ADD SWAP1 POP PUSH2 0x6E50 JUMP JUMPDEST POP POP POP POP POP POP JUMP JUMPDEST PUSH1 0x0 PUSH2 0x6E90 DUP3 PUSH2 0x784A JUMP JUMPDEST PUSH2 0x6E9A DUP2 DUP6 PUSH2 0x78A3 JUMP JUMPDEST SWAP4 POP PUSH2 0x6EA5 DUP4 PUSH2 0x7824 JUMP JUMPDEST DUP1 PUSH1 0x0 JUMPDEST DUP4 DUP2 LT ISZERO PUSH2 0x6ED6 JUMPI DUP2 MLOAD PUSH2 0x6EBD DUP9 DUP3 PUSH2 0x6DA9 JUMP JUMPDEST SWAP8 POP PUSH2 0x6EC8 DUP4 PUSH2 0x787A JUMP JUMPDEST SWAP3 POP POP PUSH1 0x1 DUP2 ADD SWAP1 POP PUSH2 0x6EA9 JUMP JUMPDEST POP DUP6 SWAP4 POP POP POP POP SWAP3 SWAP2 POP POP JUMP JUMPDEST PUSH2 0x6EEC DUP2 PUSH2 0x78ED JUMP JUMPDEST DUP3 MSTORE POP POP JUMP JUMPDEST PUSH2 0x6EFB DUP2 PUSH2 0x78ED JUMP JUMPDEST DUP3 MSTORE POP POP JUMP JUMPDEST PUSH2 0x6F0A DUP2 PUSH2 0x78F9 JUMP JUMPDEST DUP3 MSTORE POP POP JUMP JUMPDEST PUSH2 0x6F21 PUSH2 0x6F1C DUP3 PUSH2 0x78F9 JUMP JUMPDEST PUSH2 0x7A9E JUMP JUMPDEST DUP3 MSTORE POP POP JUMP JUMPDEST PUSH2 0x6F38 PUSH2 0x6F33 DUP3 PUSH2 0x7903 JUMP JUMPDEST PUSH2 0x7AA8 JUMP JUMPDEST DUP3 MSTORE POP POP JUMP JUMPDEST PUSH1 0x0 PUSH2 0x6F4A DUP4 DUP6 PUSH2 0x78B4 JUMP JUMPDEST SWAP4 POP PUSH2 0x6F57 DUP4 DUP6 DUP5 PUSH2 0x7A5C JUMP JUMPDEST DUP3 DUP5 ADD SWAP1 POP SWAP4 SWAP3 POP POP POP JUMP JUMPDEST PUSH2 0x6F6C DUP2 PUSH2 0x79DE JUMP JUMPDEST DUP3 MSTORE POP POP JUMP JUMPDEST PUSH2 0x6F7B DUP2 PUSH2 0x7A02 JUMP JUMPDEST DUP3 MSTORE POP POP JUMP JUMPDEST PUSH2 0x6F8A DUP2 PUSH2 0x7A26 JUMP JUMPDEST DUP3 MSTORE POP POP JUMP JUMPDEST PUSH2 0x6F99 DUP2 PUSH2 0x7A4A JUMP JUMPDEST DUP3 MSTORE POP POP JUMP JUMPDEST PUSH2 0x6FA8 DUP2 PUSH2 0x7A4A JUMP JUMPDEST DUP3 MSTORE POP POP JUMP JUMPDEST PUSH2 0x6FB7 DUP2 PUSH2 0x7966 JUMP JUMPDEST DUP3 MSTORE POP POP JUMP JUMPDEST PUSH2 0x6FC6 DUP2 PUSH2 0x7966 JUMP JUMPDEST DUP3 MSTORE POP POP JUMP JUMPDEST DUP1 DUP3 MSTORE POP POP JUMP JUMPDEST PUSH1 0x0 PUSH2 0x6FDE DUP3 PUSH2 0x7855 JUMP JUMPDEST PUSH2 0x6FE8 DUP2 DUP6 PUSH2 0x78BF JUMP JUMPDEST SWAP4 POP PUSH2 0x6FF8 DUP2 DUP6 PUSH1 0x20 DUP7 ADD PUSH2 0x7A6B JUMP JUMPDEST PUSH2 0x7001 DUP2 PUSH2 0x7AB2 JUMP JUMPDEST DUP5 ADD SWAP2 POP POP SWAP3 SWAP2 POP POP JUMP JUMPDEST PUSH1 0x0 PUSH2 0x7019 PUSH1 0x2 DUP4 PUSH2 0x78D0 JUMP JUMPDEST SWAP2 POP PUSH32 0x1901000000000000000000000000000000000000000000000000000000000000 PUSH1 0x0 DUP4 ADD MSTORE PUSH1 0x2 DUP3 ADD SWAP1 POP SWAP2 SWAP1 POP JUMP JUMPDEST PUSH1 0x0 PUSH2 0x7059 PUSH1 0xC DUP4 PUSH2 0x78BF JUMP JUMPDEST SWAP2 POP PUSH32 0x5F73717274204641494C45440000000000000000000000000000000000000000 PUSH1 0x0 DUP4 ADD MSTORE PUSH1 0x20 DUP3 ADD SWAP1 POP SWAP2 SWAP1 POP JUMP JUMPDEST PUSH1 0x60 DUP3 ADD PUSH1 0x0 DUP3 ADD MLOAD PUSH2 0x70A2 PUSH1 0x0 DUP6 ADD DUP3 PUSH2 0x6EE3 JUMP JUMPDEST POP PUSH1 0x20 DUP3 ADD MLOAD PUSH2 0x70B5 PUSH1 0x20 DUP6 ADD DUP3 PUSH2 0x7110 JUMP JUMPDEST POP PUSH1 0x40 DUP3 ADD MLOAD PUSH2 0x70C8 PUSH1 0x40 DUP6 ADD DUP3 PUSH2 0x711F JUMP JUMPDEST POP POP POP POP JUMP JUMPDEST PUSH1 0x60 DUP3 ADD PUSH1 0x0 DUP3 ADD MLOAD PUSH2 0x70E4 PUSH1 0x0 DUP6 ADD DUP3 PUSH2 0x6F9F JUMP JUMPDEST POP PUSH1 0x20 DUP3 ADD MLOAD PUSH2 0x70F7 PUSH1 0x20 DUP6 ADD DUP3 PUSH2 0x715B JUMP JUMPDEST POP PUSH1 0x40 DUP3 ADD MLOAD PUSH2 0x710A PUSH1 0x40 DUP6 ADD DUP3 PUSH2 0x715B JUMP JUMPDEST POP POP POP POP JUMP JUMPDEST PUSH2 0x7119 DUP2 PUSH2 0x7970 JUMP JUMPDEST DUP3 MSTORE POP POP JUMP JUMPDEST PUSH2 0x7128 DUP2 PUSH2 0x798B JUMP JUMPDEST DUP3 MSTORE POP POP JUMP JUMPDEST PUSH2 0x7137 DUP2 PUSH2 0x79C7 JUMP JUMPDEST DUP3 MSTORE POP POP JUMP JUMPDEST PUSH2 0x7146 DUP2 PUSH2 0x79C7 JUMP JUMPDEST DUP3 MSTORE POP POP JUMP JUMPDEST PUSH2 0x7155 DUP2 PUSH2 0x79C7 JUMP JUMPDEST DUP3 MSTORE POP POP JUMP JUMPDEST PUSH2 0x7164 DUP2 PUSH2 0x79C7 JUMP JUMPDEST DUP3 MSTORE POP POP JUMP JUMPDEST PUSH2 0x7173 DUP2 PUSH2 0x79D1 JUMP JUMPDEST DUP3 MSTORE POP POP JUMP JUMPDEST PUSH1 0x0 PUSH2 0x7185 DUP3 DUP6 PUSH2 0x6F10 JUMP JUMPDEST PUSH1 0x20 DUP3 ADD SWAP2 POP PUSH2 0x7195 DUP3 DUP5 PUSH2 0x6F27 JUMP JUMPDEST PUSH1 0x4 DUP3 ADD SWAP2 POP DUP2 SWAP1 POP SWAP4 SWAP3 POP POP POP JUMP JUMPDEST PUSH1 0x0 PUSH2 0x71B2 DUP3 DUP5 DUP7 PUSH2 0x6F3E JUMP JUMPDEST SWAP2 POP DUP2 SWAP1 POP SWAP4 SWAP3 POP POP POP JUMP JUMPDEST PUSH1 0x0 PUSH2 0x71C9 DUP3 PUSH2 0x700C JUMP JUMPDEST SWAP2 POP PUSH2 0x71D5 DUP3 DUP6 PUSH2 0x6F10 JUMP JUMPDEST PUSH1 0x20 DUP3 ADD SWAP2 POP PUSH2 0x71E5 DUP3 DUP5 PUSH2 0x6F10 JUMP JUMPDEST PUSH1 0x20 DUP3 ADD SWAP2 POP DUP2 SWAP1 POP SWAP4 SWAP3 POP POP POP JUMP JUMPDEST PUSH1 0x0 PUSH1 0x20 DUP3 ADD SWAP1 POP PUSH2 0x720A PUSH1 0x0 DUP4 ADD DUP5 PUSH2 0x6DC1 JUMP JUMPDEST SWAP3 SWAP2 POP POP JUMP JUMPDEST PUSH1 0x0 PUSH1 0x20 DUP3 ADD SWAP1 POP DUP2 DUP2 SUB PUSH1 0x0 DUP4 ADD MSTORE PUSH2 0x722A DUP2 DUP5 PUSH2 0x6DD0 JUMP JUMPDEST SWAP1 POP SWAP3 SWAP2 POP POP JUMP JUMPDEST PUSH1 0x0 PUSH1 0x40 DUP3 ADD SWAP1 POP PUSH2 0x7247 PUSH1 0x0 DUP4 ADD DUP5 PUSH2 0x6E2E JUMP JUMPDEST SWAP3 SWAP2 POP POP JUMP JUMPDEST PUSH1 0x0 PUSH1 0x20 DUP3 ADD SWAP1 POP DUP2 DUP2 SUB PUSH1 0x0 DUP4 ADD MSTORE PUSH2 0x7267 DUP2 DUP5 PUSH2 0x6E85 JUMP JUMPDEST SWAP1 POP SWAP3 SWAP2 POP POP JUMP JUMPDEST PUSH1 0x0 PUSH1 0x40 DUP3 ADD SWAP1 POP DUP2 DUP2 SUB PUSH1 0x0 DUP4 ADD MSTORE PUSH2 0x7289 DUP2 DUP6 PUSH2 0x6E85 JUMP JUMPDEST SWAP1 POP DUP2 DUP2 SUB PUSH1 0x20 DUP4 ADD MSTORE PUSH2 0x729D DUP2 DUP5 PUSH2 0x6E85 JUMP JUMPDEST SWAP1 POP SWAP4 SWAP3 POP POP POP JUMP JUMPDEST PUSH1 0x0 PUSH1 0x20 DUP3 ADD SWAP1 POP PUSH2 0x72BB PUSH1 0x0 DUP4 ADD DUP5 PUSH2 0x6EF2 JUMP JUMPDEST SWAP3 SWAP2 POP POP JUMP JUMPDEST PUSH1 0x0 PUSH1 0x60 DUP3 ADD SWAP1 POP PUSH2 0x72D6 PUSH1 0x0 DUP4 ADD DUP7 PUSH2 0x6EF2 JUMP JUMPDEST PUSH2 0x72E3 PUSH1 0x20 DUP4 ADD DUP6 PUSH2 0x713D JUMP JUMPDEST PUSH2 0x72F0 PUSH1 0x40 DUP4 ADD DUP5 PUSH2 0x713D JUMP JUMPDEST SWAP5 SWAP4 POP POP POP POP JUMP JUMPDEST PUSH1 0x0 PUSH1 0x20 DUP3 ADD SWAP1 POP PUSH2 0x730D PUSH1 0x0 DUP4 ADD DUP5 PUSH2 0x6F01 JUMP JUMPDEST SWAP3 SWAP2 POP POP JUMP JUMPDEST PUSH1 0x0 PUSH1 0x60 DUP3 ADD SWAP1 POP PUSH2 0x7328 PUSH1 0x0 DUP4 ADD DUP7 PUSH2 0x6F01 JUMP JUMPDEST PUSH2 0x7335 PUSH1 0x20 DUP4 ADD DUP6 PUSH2 0x6DC1 JUMP JUMPDEST PUSH2 0x7342 PUSH1 0x40 DUP4 ADD DUP5 PUSH2 0x6DC1 JUMP JUMPDEST SWAP5 SWAP4 POP POP POP POP JUMP JUMPDEST PUSH1 0x0 PUSH1 0xC0 DUP3 ADD SWAP1 POP PUSH2 0x735F PUSH1 0x0 DUP4 ADD DUP10 PUSH2 0x6F01 JUMP JUMPDEST PUSH2 0x736C PUSH1 0x20 DUP4 ADD DUP9 PUSH2 0x6DC1 JUMP JUMPDEST PUSH2 0x7379 PUSH1 0x40 DUP4 ADD DUP8 PUSH2 0x6DC1 JUMP JUMPDEST PUSH2 0x7386 PUSH1 0x60 DUP4 ADD DUP7 PUSH2 0x713D JUMP JUMPDEST PUSH2 0x7393 PUSH1 0x80 DUP4 ADD DUP6 PUSH2 0x713D JUMP JUMPDEST PUSH2 0x73A0 PUSH1 0xA0 DUP4 ADD DUP5 PUSH2 0x713D JUMP JUMPDEST SWAP8 SWAP7 POP POP POP POP POP POP POP JUMP JUMPDEST PUSH1 0x0 PUSH1 0xA0 DUP3 ADD SWAP1 POP PUSH2 0x73C0 PUSH1 0x0 DUP4 ADD DUP9 PUSH2 0x6F01 JUMP JUMPDEST PUSH2 0x73CD PUSH1 0x20 DUP4 ADD DUP8 PUSH2 0x6F01 JUMP JUMPDEST PUSH2 0x73DA PUSH1 0x40 DUP4 ADD DUP7 PUSH2 0x6F01 JUMP JUMPDEST PUSH2 0x73E7 PUSH1 0x60 DUP4 ADD DUP6 PUSH2 0x713D JUMP JUMPDEST PUSH2 0x73F4 PUSH1 0x80 DUP4 ADD DUP5 PUSH2 0x6DC1 JUMP JUMPDEST SWAP7 SWAP6 POP POP POP POP POP POP JUMP JUMPDEST PUSH1 0x0 PUSH1 0x80 DUP3 ADD SWAP1 POP PUSH2 0x7413 PUSH1 0x0 DUP4 ADD DUP8 PUSH2 0x6F01 JUMP JUMPDEST PUSH2 0x7420 PUSH1 0x20 DUP4 ADD DUP7 PUSH2 0x716A JUMP JUMPDEST PUSH2 0x742D PUSH1 0x40 DUP4 ADD DUP6 PUSH2 0x6F01 JUMP JUMPDEST PUSH2 0x743A PUSH1 0x60 DUP4 ADD DUP5 PUSH2 0x6F01 JUMP JUMPDEST SWAP6 SWAP5 POP POP POP POP POP JUMP JUMPDEST PUSH1 0x0 PUSH1 0x20 DUP3 ADD SWAP1 POP PUSH2 0x7458 PUSH1 0x0 DUP4 ADD DUP5 PUSH2 0x6F63 JUMP JUMPDEST SWAP3 SWAP2 POP POP JUMP JUMPDEST PUSH1 0x0 PUSH1 0x20 DUP3 ADD SWAP1 POP PUSH2 0x7473 PUSH1 0x0 DUP4 ADD DUP5 PUSH2 0x6F72 JUMP JUMPDEST SWAP3 SWAP2 POP POP JUMP JUMPDEST PUSH1 0x0 PUSH1 0x20 DUP3 ADD SWAP1 POP PUSH2 0x748E PUSH1 0x0 DUP4 ADD DUP5 PUSH2 0x6F81 JUMP JUMPDEST SWAP3 SWAP2 POP POP JUMP JUMPDEST PUSH1 0x0 PUSH1 0xE0 DUP3 ADD SWAP1 POP PUSH2 0x74A9 PUSH1 0x0 DUP4 ADD DUP11 PUSH2 0x6FBD JUMP JUMPDEST PUSH2 0x74B6 PUSH1 0x20 DUP4 ADD DUP10 PUSH2 0x6FBD JUMP JUMPDEST PUSH2 0x74C3 PUSH1 0x40 DUP4 ADD DUP9 PUSH2 0x6FBD JUMP JUMPDEST PUSH2 0x74D0 PUSH1 0x60 DUP4 ADD DUP8 PUSH2 0x6FBD JUMP JUMPDEST PUSH2 0x74DD PUSH1 0x80 DUP4 ADD DUP7 PUSH2 0x6FBD JUMP JUMPDEST PUSH2 0x74EA PUSH1 0xA0 DUP4 ADD DUP6 PUSH2 0x6FBD JUMP JUMPDEST PUSH2 0x74F7 PUSH1 0xC0 DUP4 ADD DUP5 PUSH2 0x713D JUMP JUMPDEST SWAP9 SWAP8 POP POP POP POP POP POP POP POP JUMP JUMPDEST PUSH1 0x0 PUSH1 0xC0 DUP3 ADD SWAP1 POP PUSH2 0x7518 PUSH1 0x0 DUP4 ADD DUP10 PUSH2 0x6FBD JUMP JUMPDEST PUSH2 0x7525 PUSH1 0x20 DUP4 ADD DUP9 PUSH2 0x6FBD JUMP JUMPDEST PUSH2 0x7532 PUSH1 0x40 DUP4 ADD DUP8 PUSH2 0x713D JUMP JUMPDEST PUSH2 0x753F PUSH1 0x60 DUP4 ADD DUP7 PUSH2 0x713D JUMP JUMPDEST PUSH2 0x754C PUSH1 0x80 DUP4 ADD DUP6 PUSH2 0x6EF2 JUMP JUMPDEST PUSH2 0x7559 PUSH1 0xA0 DUP4 ADD DUP5 PUSH2 0x713D JUMP JUMPDEST SWAP8 SWAP7 POP POP POP POP POP POP POP JUMP JUMPDEST PUSH1 0x0 PUSH1 0x60 DUP3 ADD SWAP1 POP PUSH2 0x7579 PUSH1 0x0 DUP4 ADD DUP7 PUSH2 0x6FCC JUMP JUMPDEST PUSH2 0x7586 PUSH1 0x20 DUP4 ADD DUP6 PUSH2 0x6F90 JUMP JUMPDEST PUSH2 0x7593 PUSH1 0x40 DUP4 ADD DUP5 PUSH2 0x714C JUMP JUMPDEST SWAP5 SWAP4 POP POP POP POP JUMP JUMPDEST PUSH1 0x0 PUSH1 0x80 DUP3 ADD SWAP1 POP PUSH2 0x75B0 PUSH1 0x0 DUP4 ADD DUP8 PUSH2 0x6FCC JUMP JUMPDEST PUSH2 0x75BD PUSH1 0x20 DUP4 ADD DUP7 PUSH2 0x6F90 JUMP JUMPDEST PUSH2 0x75CA PUSH1 0x40 DUP4 ADD DUP6 PUSH2 0x714C JUMP JUMPDEST PUSH2 0x75D7 PUSH1 0x60 DUP4 ADD DUP5 PUSH2 0x714C JUMP JUMPDEST SWAP6 SWAP5 POP POP POP POP POP JUMP JUMPDEST PUSH1 0x0 PUSH1 0xA0 DUP3 ADD SWAP1 POP PUSH2 0x75F5 PUSH1 0x0 DUP4 ADD DUP7 PUSH2 0x6FCC JUMP JUMPDEST PUSH2 0x7602 PUSH1 0x20 DUP4 ADD DUP6 PUSH2 0x70CE JUMP JUMPDEST PUSH2 0x760F PUSH1 0x80 DUP4 ADD DUP5 PUSH2 0x714C JUMP JUMPDEST SWAP5 SWAP4 POP POP POP POP JUMP JUMPDEST PUSH1 0x0 PUSH1 0x20 DUP3 ADD SWAP1 POP DUP2 DUP2 SUB PUSH1 0x0 DUP4 ADD MSTORE PUSH2 0x7631 DUP2 DUP5 PUSH2 0x6FD3 JUMP JUMPDEST SWAP1 POP SWAP3 SWAP2 POP POP JUMP JUMPDEST PUSH1 0x0 PUSH1 0x20 DUP3 ADD SWAP1 POP DUP2 DUP2 SUB PUSH1 0x0 DUP4 ADD MSTORE PUSH2 0x7652 DUP2 PUSH2 0x704C JUMP JUMPDEST SWAP1 POP SWAP2 SWAP1 POP JUMP JUMPDEST PUSH1 0x0 PUSH1 0x60 DUP3 ADD SWAP1 POP PUSH2 0x766E PUSH1 0x0 DUP4 ADD DUP5 PUSH2 0x708C JUMP JUMPDEST SWAP3 SWAP2 POP POP JUMP JUMPDEST PUSH1 0x0 PUSH1 0x20 DUP3 ADD SWAP1 POP PUSH2 0x7689 PUSH1 0x0 DUP4 ADD DUP5 PUSH2 0x713D JUMP JUMPDEST SWAP3 SWAP2 POP POP JUMP JUMPDEST PUSH1 0x0 PUSH1 0x40 DUP3 ADD SWAP1 POP PUSH2 0x76A4 PUSH1 0x0 DUP4 ADD DUP6 PUSH2 0x713D JUMP JUMPDEST DUP2 DUP2 SUB PUSH1 0x20 DUP4 ADD MSTORE PUSH2 0x76B6 DUP2 DUP5 PUSH2 0x6E85 JUMP JUMPDEST SWAP1 POP SWAP4 SWAP3 POP POP POP JUMP JUMPDEST PUSH1 0x0 PUSH1 0x60 DUP3 ADD SWAP1 POP PUSH2 0x76D4 PUSH1 0x0 DUP4 ADD DUP7 PUSH2 0x713D JUMP JUMPDEST PUSH2 0x76E1 PUSH1 0x20 DUP4 ADD DUP6 PUSH2 0x713D JUMP JUMPDEST PUSH2 0x76EE PUSH1 0x40 DUP4 ADD DUP5 PUSH2 0x713D JUMP JUMPDEST SWAP5 SWAP4 POP POP POP POP JUMP JUMPDEST PUSH1 0x0 PUSH1 0x20 DUP3 ADD SWAP1 POP PUSH2 0x770B PUSH1 0x0 DUP4 ADD DUP5 PUSH2 0x716A JUMP JUMPDEST SWAP3 SWAP2 POP POP JUMP JUMPDEST PUSH1 0x0 PUSH1 0x40 MLOAD SWAP1 POP DUP2 DUP2 ADD DUP2 DUP2 LT PUSH8 0xFFFFFFFFFFFFFFFF DUP3 GT OR ISZERO PUSH2 0x7734 JUMPI PUSH1 0x0 DUP1 REVERT JUMPDEST DUP1 PUSH1 0x40 MSTORE POP SWAP2 SWAP1 POP JUMP JUMPDEST PUSH1 0x0 PUSH8 0xFFFFFFFFFFFFFFFF DUP3 GT ISZERO PUSH2 0x7755 JUMPI PUSH1 0x0 DUP1 REVERT JUMPDEST PUSH1 0x20 DUP3 MUL SWAP1 POP PUSH1 0x20 DUP2 ADD SWAP1 POP SWAP2 SWAP1 POP JUMP JUMPDEST PUSH1 0x0 PUSH8 0xFFFFFFFFFFFFFFFF DUP3 GT ISZERO PUSH2 0x777D JUMPI PUSH1 0x0 DUP1 REVERT JUMPDEST PUSH1 0x20 DUP3 MUL SWAP1 POP PUSH1 0x20 DUP2 ADD SWAP1 POP SWAP2 SWAP1 POP JUMP JUMPDEST PUSH1 0x0 PUSH8 0xFFFFFFFFFFFFFFFF DUP3 GT ISZERO PUSH2 0x77A5 JUMPI PUSH1 0x0 DUP1 REVERT JUMPDEST PUSH1 0x20 DUP3 MUL SWAP1 POP PUSH1 0x20 DUP2 ADD SWAP1 POP SWAP2 SWAP1 POP JUMP JUMPDEST PUSH1 0x0 PUSH8 0xFFFFFFFFFFFFFFFF DUP3 GT ISZERO PUSH2 0x77CD JUMPI PUSH1 0x0 DUP1 REVERT JUMPDEST PUSH1 0x20 DUP3 MUL SWAP1 POP PUSH1 0x20 DUP2 ADD SWAP1 POP SWAP2 SWAP1 POP JUMP JUMPDEST PUSH1 0x0 PUSH8 0xFFFFFFFFFFFFFFFF DUP3 GT ISZERO PUSH2 0x77F5 JUMPI PUSH1 0x0 DUP1 REVERT JUMPDEST PUSH1 0x1F NOT PUSH1 0x1F DUP4 ADD AND SWAP1 POP PUSH1 0x20 DUP2 ADD SWAP1 POP SWAP2 SWAP1 POP JUMP JUMPDEST PUSH1 0x0 DUP2 SWAP1 POP PUSH1 0x20 DUP3 ADD SWAP1 POP SWAP2 SWAP1 POP JUMP JUMPDEST PUSH1 0x0 DUP2 SWAP1 POP SWAP2 SWAP1 POP JUMP JUMPDEST PUSH1 0x0 DUP2 SWAP1 POP PUSH1 0x20 DUP3 ADD SWAP1 POP SWAP2 SWAP1 POP JUMP JUMPDEST PUSH1 0x0 DUP2 MLOAD SWAP1 POP SWAP2 SWAP1 POP JUMP JUMPDEST PUSH1 0x0 PUSH1 0x2 SWAP1 POP SWAP2 SWAP1 POP JUMP JUMPDEST PUSH1 0x0 DUP2 MLOAD SWAP1 POP SWAP2 SWAP1 POP JUMP JUMPDEST PUSH1 0x0 DUP2 MLOAD SWAP1 POP SWAP2 SWAP1 POP JUMP JUMPDEST PUSH1 0x0 PUSH1 0x20 DUP3 ADD SWAP1 POP SWAP2 SWAP1 POP JUMP JUMPDEST PUSH1 0x0 PUSH1 0x20 DUP3 ADD SWAP1 POP SWAP2 SWAP1 POP JUMP JUMPDEST PUSH1 0x0 PUSH1 0x20 DUP3 ADD SWAP1 POP SWAP2 SWAP1 POP JUMP JUMPDEST PUSH1 0x0 DUP3 DUP3 MSTORE PUSH1 0x20 DUP3 ADD SWAP1 POP SWAP3 SWAP2 POP POP JUMP JUMPDEST PUSH1 0x0 DUP2 SWAP1 POP SWAP3 SWAP2 POP POP JUMP JUMPDEST PUSH1 0x0 DUP3 DUP3 MSTORE PUSH1 0x20 DUP3 ADD SWAP1 POP SWAP3 SWAP2 POP POP JUMP JUMPDEST PUSH1 0x0 DUP2 SWAP1 POP SWAP3 SWAP2 POP POP JUMP JUMPDEST PUSH1 0x0 DUP3 DUP3 MSTORE PUSH1 0x20 DUP3 ADD SWAP1 POP SWAP3 SWAP2 POP POP JUMP JUMPDEST PUSH1 0x0 DUP2 SWAP1 POP SWAP3 SWAP2 POP POP JUMP JUMPDEST PUSH1 0x0 PUSH2 0x78E6 DUP3 PUSH2 0x79A7 JUMP JUMPDEST SWAP1 POP SWAP2 SWAP1 POP JUMP JUMPDEST PUSH1 0x0 DUP2 ISZERO ISZERO SWAP1 POP SWAP2 SWAP1 POP JUMP JUMPDEST PUSH1 0x0 DUP2 SWAP1 POP SWAP2 SWAP1 POP JUMP JUMPDEST PUSH1 0x0 PUSH32 0xFFFFFFFF00000000000000000000000000000000000000000000000000000000 DUP3 AND SWAP1 POP SWAP2 SWAP1 POP JUMP JUMPDEST PUSH1 0x0 PUSH2 0x793A DUP3 PUSH2 0x78DB JUMP JUMPDEST SWAP1 POP SWAP2 SWAP1 POP JUMP JUMPDEST PUSH1 0x0 PUSH2 0x794C DUP3 PUSH2 0x78DB JUMP JUMPDEST SWAP1 POP SWAP2 SWAP1 POP JUMP JUMPDEST PUSH1 0x0 DUP2 SWAP1 POP PUSH2 0x7961 DUP3 PUSH2 0x7AC3 JUMP JUMPDEST SWAP2 SWAP1 POP JUMP JUMPDEST PUSH1 0x0 DUP2 SWAP1 POP SWAP2 SWAP1 POP JUMP JUMPDEST PUSH1 0x0 PUSH15 0xFFFFFFFFFFFFFFFFFFFFFFFFFFFFFF DUP3 AND SWAP1 POP SWAP2 SWAP1 POP JUMP JUMPDEST PUSH1 0x0 PUSH16 0xFFFFFFFFFFFFFFFFFFFFFFFFFFFFFFFF DUP3 AND SWAP1 POP SWAP2 SWAP1 POP JUMP JUMPDEST PUSH1 0x0 PUSH20 0xFFFFFFFFFFFFFFFFFFFFFFFFFFFFFFFFFFFFFFFF DUP3 AND SWAP1 POP SWAP2 SWAP1 POP JUMP JUMPDEST PUSH1 0x0 DUP2 SWAP1 POP SWAP2 SWAP1 POP JUMP JUMPDEST PUSH1 0x0 PUSH1 0xFF DUP3 AND SWAP1 POP SWAP2 SWAP1 POP JUMP JUMPDEST PUSH1 0x0 PUSH2 0x79E9 DUP3 PUSH2 0x79F0 JUMP JUMPDEST SWAP1 POP SWAP2 SWAP1 POP JUMP JUMPDEST PUSH1 0x0 PUSH2 0x79FB DUP3 PUSH2 0x79A7 JUMP JUMPDEST SWAP1 POP SWAP2 SWAP1 POP JUMP JUMPDEST PUSH1 0x0 PUSH2 0x7A0D DUP3 PUSH2 0x7A14 JUMP JUMPDEST SWAP1 POP SWAP2 SWAP1 POP JUMP JUMPDEST PUSH1 0x0 PUSH2 0x7A1F DUP3 PUSH2 0x79A7 JUMP JUMPDEST SWAP1 POP SWAP2 SWAP1 POP JUMP JUMPDEST PUSH1 0x0 PUSH2 0x7A31 DUP3 PUSH2 0x7A38 JUMP JUMPDEST SWAP1 POP SWAP2 SWAP1 POP JUMP JUMPDEST PUSH1 0x0 PUSH2 0x7A43 DUP3 PUSH2 0x79A7 JUMP JUMPDEST SWAP1 POP SWAP2 SWAP1 POP JUMP JUMPDEST PUSH1 0x0 PUSH2 0x7A55 DUP3 PUSH2 0x7953 JUMP JUMPDEST SWAP1 POP SWAP2 SWAP1 POP JUMP JUMPDEST DUP3 DUP2 DUP4 CALLDATACOPY PUSH1 0x0 DUP4 DUP4 ADD MSTORE POP POP POP JUMP JUMPDEST PUSH1 0x0 JUMPDEST DUP4 DUP2 LT ISZERO PUSH2 0x7A89 JUMPI DUP1 DUP3 ADD MLOAD DUP2 DUP5 ADD MSTORE PUSH1 0x20 DUP2 ADD SWAP1 POP PUSH2 0x7A6E JUMP JUMPDEST DUP4 DUP2 GT ISZERO PUSH2 0x7A98 JUMPI PUSH1 0x0 DUP5 DUP5 ADD MSTORE JUMPDEST POP POP POP POP JUMP JUMPDEST PUSH1 0x0 DUP2 SWAP1 POP SWAP2 SWAP1 POP JUMP JUMPDEST PUSH1 0x0 DUP2 SWAP1 POP SWAP2 SWAP1 POP JUMP JUMPDEST PUSH1 0x0 PUSH1 0x1F NOT PUSH1 0x1F DUP4 ADD AND SWAP1 POP SWAP2 SWAP1 POP JUMP JUMPDEST PUSH1 0x3 DUP2 LT PUSH2 0x7ACD JUMPI INVALID JUMPDEST POP JUMP JUMPDEST PUSH2 0x7AD9 DUP2 PUSH2 0x78DB JUMP JUMPDEST DUP2 EQ PUSH2 0x7AE4 JUMPI PUSH1 0x0 DUP1 REVERT JUMPDEST POP JUMP JUMPDEST PUSH2 0x7AF0 DUP2 PUSH2 0x78ED JUMP JUMPDEST DUP2 EQ PUSH2 0x7AFB JUMPI PUSH1 0x0 DUP1 REVERT JUMPDEST POP JUMP JUMPDEST PUSH2 0x7B07 DUP2 PUSH2 0x78F9 JUMP JUMPDEST DUP2 EQ PUSH2 0x7B12 JUMPI PUSH1 0x0 DUP1 REVERT JUMPDEST POP JUMP JUMPDEST PUSH2 0x7B1E DUP2 PUSH2 0x7903 JUMP JUMPDEST DUP2 EQ PUSH2 0x7B29 JUMPI PUSH1 0x0 DUP1 REVERT JUMPDEST POP JUMP JUMPDEST PUSH2 0x7B35 DUP2 PUSH2 0x792F JUMP JUMPDEST DUP2 EQ PUSH2 0x7B40 JUMPI PUSH1 0x0 DUP1 REVERT JUMPDEST POP JUMP JUMPDEST PUSH2 0x7B4C DUP2 PUSH2 0x7941 JUMP JUMPDEST DUP2 EQ PUSH2 0x7B57 JUMPI PUSH1 0x0 DUP1 REVERT JUMPDEST POP JUMP JUMPDEST PUSH1 0x4 DUP2 LT PUSH2 0x7B67 JUMPI PUSH1 0x0 DUP1 REVERT JUMPDEST POP JUMP JUMPDEST PUSH1 0x4 DUP2 LT PUSH2 0x7B77 JUMPI PUSH1 0x0 DUP1 REVERT JUMPDEST POP JUMP JUMPDEST PUSH1 0x2 DUP2 LT PUSH2 0x7B87 JUMPI PUSH1 0x0 DUP1 REVERT JUMPDEST POP JUMP JUMPDEST PUSH1 0x3 DUP2 LT PUSH2 0x7B97 JUMPI PUSH1 0x0 DUP1 REVERT JUMPDEST POP JUMP JUMPDEST PUSH2 0x7BA3 DUP2 PUSH2 0x7966 JUMP JUMPDEST DUP2 EQ PUSH2 0x7BAE JUMPI PUSH1 0x0 DUP1 REVERT JUMPDEST POP JUMP JUMPDEST PUSH2 0x7BBA DUP2 PUSH2 0x7970 JUMP JUMPDEST DUP2 EQ PUSH2 0x7BC5 JUMPI PUSH1 0x0 DUP1 REVERT JUMPDEST POP JUMP JUMPDEST PUSH2 0x7BD1 DUP2 PUSH2 0x798B JUMP JUMPDEST DUP2 EQ PUSH2 0x7BDC JUMPI PUSH1 0x0 DUP1 REVERT JUMPDEST POP JUMP JUMPDEST PUSH2 0x7BE8 DUP2 PUSH2 0x79C7 JUMP JUMPDEST DUP2 EQ PUSH2 0x7BF3 JUMPI PUSH1 0x0 DUP1 REVERT JUMPDEST POP JUMP JUMPDEST PUSH2 0x7BFF DUP2 PUSH2 0x79D1 JUMP JUMPDEST DUP2 EQ PUSH2 0x7C0A JUMPI PUSH1 0x0 DUP1 REVERT JUMPDEST POP JUMP INVALID LOG2 PUSH5 0x6970667358 0x22 SLT KECCAK256 PUSH22 0x9BFD118D8228647E21F64B89311785D348E72AA43738 PUSH25 0xFA8124180EBCAAA864736F6C63430007010033000000000000 ","sha1":"3e1026640462e4ee90355f92befb34337472b9dd","source":"// SPDX-License-Identifier: GPL-3.0-or-later\n// This program is free software: you can redistribute it and/or modify\n// it under the terms of the GNU General Public License as published by\n// the Free Software Foundation, either version 3 of the License, or\n// (at your option) any later version.\n\n// This program is distributed in the hope that it will be useful,\n// but WITHOUT ANY WARRANTY; without even the implied warranty of\n// MERCHANTABILITY or FITNESS FOR A PARTICULAR PURPOSE.  See the\n// GNU General Public License for more details.\n\n// You should have received a copy of the GNU General Public License\n// along with this program.  If not, see <http://www.gnu.org/licenses/>.\n\npragma solidity ^0.7.0;\npragma experimental ABIEncoderV2;\n\nimport \"@balancer-labs/v2-solidity-utils/contracts/math/FixedPoint.sol\";\n\nimport \"@balancer-labs/v2-pool-weighted/contracts/WeightedPoolUserDataHelpers.sol\";\nimport \"@balancer-labs/v2-pool-weighted/contracts/WeightedPool2TokensMiscData.sol\";\n\nimport \"../../libraries/GyroConfigKeys.sol\";\nimport \"../../interfaces/IGyroConfig.sol\";\nimport \"../../libraries/GyroPoolMath.sol\";\n\nimport \"../CappedLiquidity.sol\";\nimport \"./ExtensibleWeightedPool2Tokens.sol\";\nimport \"./Gyro2PoolErrors.sol\";\nimport \"./GyroTwoMath.sol\";\nimport \"./GyroTwoOracleMath.sol\";\n\ncontract GyroTwoPool is ExtensibleWeightedPool2Tokens, GyroTwoOracleMath, CappedLiquidity {\n    using FixedPoint for uint256;\n    using WeightedPoolUserDataHelpers for bytes;\n    using WeightedPool2TokensMiscData for bytes32;\n\n    uint256 private immutable _sqrtAlpha;\n    uint256 private immutable _sqrtBeta;\n\n    IGyroConfig public gyroConfig;\n\n    struct GyroParams {\n        NewPoolParams baseParams;\n        uint256 sqrtAlpha; // A: Should already be upscaled\n        uint256 sqrtBeta; // A: Should already be upscaled. Could be passed as an array[](2)\n        CapParams capParams;\n    }\n\n    constructor(GyroParams memory params, address configAddress) ExtensibleWeightedPool2Tokens(params.baseParams) CappedLiquidity(params.capParams) {\n        _require(params.sqrtAlpha < params.sqrtBeta, Gyro2PoolErrors.SQRT_PARAMS_WRONG);\n        _sqrtAlpha = params.sqrtAlpha;\n        _sqrtBeta = params.sqrtBeta;\n\n        gyroConfig = IGyroConfig(configAddress);\n    }\n\n    // Returns sqrtAlpha and sqrtBeta (square roots of lower and upper price bounds of p_x respectively)\n\n    function getSqrtParameters() external view returns (uint256[2] memory) {\n        return _sqrtParameters();\n    }\n\n    function _sqrtParameters() internal view virtual returns (uint256[2] memory virtualParameters) {\n        virtualParameters[0] = _sqrtParameters(true);\n        virtualParameters[1] = _sqrtParameters(false);\n        return virtualParameters;\n    }\n\n    function _sqrtParameters(bool parameter0) internal view virtual returns (uint256) {\n        return parameter0 ? _sqrtAlpha : _sqrtBeta;\n    }\n\n    /// @dev Returns virtual offsets a and b for reserves x and y respectively, as in (x+a)*(y+b)=L^2\n    function getVirtualParameters() external view returns (uint256[] memory virtualParams) {\n        (, uint256[] memory balances, ) = getVault().getPoolTokens(getPoolId());\n        // _calculateCurrentValues() is defined in terms of an in/out pair, but we just map this to the 0/1 (x/y) pair.\n        _upscaleArray(balances);\n        (, virtualParams[0], virtualParams[1]) = _calculateCurrentValues(balances[0], balances[1], true);\n    }\n\n    function _getVirtualParameters(uint256[2] memory sqrtParams, uint256 invariant)\n        internal\n        view\n        virtual\n        returns (uint256[2] memory virtualParameters)\n    {\n        virtualParameters[0] = _virtualParameters(true, sqrtParams[1], invariant);\n        virtualParameters[1] = _virtualParameters(false, sqrtParams[0], invariant);\n        return virtualParameters;\n    }\n\n    function _virtualParameters(\n        bool parameter0,\n        uint256 sqrtParam,\n        uint256 invariant\n    ) internal view virtual returns (uint256) {\n        return\n            parameter0\n                ? (GyroTwoMath._calculateVirtualParameter0(invariant, sqrtParam))\n                : (GyroTwoMath._calculateVirtualParameter1(invariant, sqrtParam));\n    }\n\n    /**\n     * @dev Returns the current value of the invariant.\n     */\n    function getInvariant() public view override returns (uint256) {\n        (, uint256[] memory balances, ) = getVault().getPoolTokens(getPoolId());\n        uint256[2] memory sqrtParams = _sqrtParameters();\n\n        // Since the Pool hooks always work with upscaled balances, we manually\n        // upscale here for consistency\n        _upscaleArray(balances);\n\n        return GyroTwoMath._calculateInvariant(balances, sqrtParams[0], sqrtParams[1]);\n    }\n\n    // Swap Hooks\n\n    function onSwap(\n        SwapRequest memory request,\n        uint256 balanceTokenIn,\n        uint256 balanceTokenOut\n    ) public virtual override whenNotPaused onlyVault(request.poolId) returns (uint256) {\n        bool tokenInIsToken0 = request.tokenIn == _token0;\n\n        uint256 scalingFactorTokenIn = _scalingFactor(tokenInIsToken0);\n        uint256 scalingFactorTokenOut = _scalingFactor(!tokenInIsToken0);\n\n        // All token amounts are upscaled.\n        balanceTokenIn = _upscale(balanceTokenIn, scalingFactorTokenIn);\n        balanceTokenOut = _upscale(balanceTokenOut, scalingFactorTokenOut);\n\n        // All the calculations in one function to avoid Error Stack Too Deep\n        (uint256 currentInvariant, uint256 virtualParamIn, uint256 virtualParamOut) = _calculateCurrentValues(\n            balanceTokenIn,\n            balanceTokenOut,\n            tokenInIsToken0\n        );\n\n        // Update price oracle with the pre-swap balances\n        _updateOracle(\n            request.lastChangeBlock,\n            tokenInIsToken0 ? balanceTokenIn : balanceTokenOut,\n            tokenInIsToken0 ? balanceTokenOut : balanceTokenIn,\n            tokenInIsToken0 ? virtualParamIn : virtualParamOut,\n            tokenInIsToken0 ? virtualParamOut : virtualParamIn\n        );\n\n        if (request.kind == IVault.SwapKind.GIVEN_IN) {\n            // Fees are subtracted before scaling, to reduce the complexity of the rounding direction analysis.\n            // This is amount - fee amount, so we round up (favoring a higher fee amount).\n            uint256 feeAmount = request.amount.mulUp(getSwapFeePercentage());\n            // TODO check this call: why do we need to upscale? Should we downscale??\n            request.amount = _upscale(request.amount.sub(feeAmount), scalingFactorTokenIn);\n\n            uint256 amountOut = _onSwapGivenIn(request, balanceTokenIn, balanceTokenOut, virtualParamIn, virtualParamOut);\n\n            // amountOut tokens are exiting the Pool, so we round down.\n            return _downscaleDown(amountOut, scalingFactorTokenOut);\n        } else {\n            request.amount = _upscale(request.amount, scalingFactorTokenOut);\n\n            uint256 amountIn = _onSwapGivenOut(request, balanceTokenIn, balanceTokenOut, virtualParamIn, virtualParamOut);\n\n            // amountIn tokens are entering the Pool, so we round up.\n            amountIn = _downscaleUp(amountIn, scalingFactorTokenIn);\n\n            // Fees are added after scaling happens, to reduce the complexity of the rounding direction analysis.\n            // This is amount + fee amount, so we round up (favoring a higher fee amount).\n            return amountIn.divUp(getSwapFeePercentage().complement());\n        }\n    }\n\n    function _onSwapGivenIn(\n        SwapRequest memory swapRequest,\n        uint256 currentBalanceTokenIn,\n        uint256 currentBalanceTokenOut,\n        uint256 virtualParamIn,\n        uint256 virtualParamOut\n    ) internal pure override returns (uint256) {\n        // Swaps are disabled while the contract is paused.\n        return GyroTwoMath._calcOutGivenIn(currentBalanceTokenIn, currentBalanceTokenOut, swapRequest.amount, virtualParamIn, virtualParamOut);\n    }\n\n    function _onSwapGivenOut(\n        SwapRequest memory swapRequest,\n        uint256 currentBalanceTokenIn,\n        uint256 currentBalanceTokenOut,\n        uint256 virtualParamIn,\n        uint256 virtualParamOut\n    ) internal pure override returns (uint256) {\n        // Swaps are disabled while the contract is paused.\n        return GyroTwoMath._calcInGivenOut(currentBalanceTokenIn, currentBalanceTokenOut, swapRequest.amount, virtualParamIn, virtualParamOut);\n    }\n\n    function calculateCurrentValues(\n        uint256 balanceTokenIn,\n        uint256 balanceTokenOut,\n        bool tokenInIsToken0\n    )\n        public\n        view\n        returns (\n            uint256 currentInvariant,\n            uint256 virtualParamIn,\n            uint256 virtualParamOut\n        )\n    {\n        uint256 scalingFactorTokenIn = _scalingFactor(tokenInIsToken0);\n        uint256 scalingFactorTokenOut = _scalingFactor(!tokenInIsToken0);\n        balanceTokenIn = _upscale(balanceTokenIn, scalingFactorTokenIn);\n        balanceTokenOut = _upscale(balanceTokenOut, scalingFactorTokenOut);\n        return _calculateCurrentValues(balanceTokenIn, balanceTokenOut, tokenInIsToken0);\n    }\n\n    function _calculateCurrentValues(\n        uint256 balanceTokenIn,\n        uint256 balanceTokenOut,\n        bool tokenInIsToken0\n    )\n        internal\n        view\n        returns (\n            uint256 currentInvariant,\n            uint256 virtualParamIn,\n            uint256 virtualParamOut\n        )\n    {\n        // if we have more tokens we might need to get the balances from the Vault\n        uint256[] memory balances = new uint256[](2);\n        balances[0] = tokenInIsToken0 ? balanceTokenIn : balanceTokenOut;\n        balances[1] = tokenInIsToken0 ? balanceTokenOut : balanceTokenIn;\n\n        uint256[2] memory sqrtParams = _sqrtParameters();\n\n        currentInvariant = GyroTwoMath._calculateInvariant(balances, sqrtParams[0], sqrtParams[1]);\n\n        uint256[2] memory virtualParam = _getVirtualParameters(sqrtParams, currentInvariant);\n\n        virtualParamIn = tokenInIsToken0 ? virtualParam[0] : virtualParam[1];\n        virtualParamOut = tokenInIsToken0 ? virtualParam[1] : virtualParam[0];\n    }\n\n    //Note: is public visibility ok for the following function?\n\n    /**\n     * @dev Called when the Pool is joined for the first time; that is, when the BPT total supply is zero.\n     *\n     * Returns the amount of BPT to mint, and the token amounts the Pool will receive in return.\n     *\n     * Minted BPT will be sent to `recipient`, except for _MINIMUM_BPT, which will be deducted from this amount and sent\n     * to the zero address instead. This will cause that BPT to remain forever locked there, preventing total BTP from\n     * ever dropping below that value, and ensuring `_onInitializePool` can only be called once in the entire Pool's\n     * lifetime.\n     *\n     * The tokens granted to the Pool will be transferred from `sender`. These amounts are considered upscaled and will\n     * be downscaled (rounding up) before being returned to the Vault.\n     */\n    function _onInitializePool(\n        bytes32,\n        address,\n        address,\n        bytes memory userData\n    ) internal override returns (uint256, uint256[] memory) {\n        BaseWeightedPool.JoinKind kind = userData.joinKind();\n        _require(kind == BaseWeightedPool.JoinKind.INIT, Errors.UNINITIALIZED);\n\n        uint256[] memory amountsIn = userData.initialAmountsIn();\n        InputHelpers.ensureInputLengthMatch(amountsIn.length, 2);\n        _upscaleArray(amountsIn);\n\n        uint256[2] memory sqrtParams = _sqrtParameters();\n\n        uint256 invariantAfterJoin = GyroTwoMath._calculateInvariant(amountsIn, sqrtParams[0], sqrtParams[1]);\n\n        // Set the initial BPT to the value of the invariant times the number of tokens. This makes BPT supply more\n        // consistent in Pools with similar compositions but different number of tokens.\n\n        uint256 bptAmountOut = Math.mul(invariantAfterJoin, 2);\n\n        _lastInvariant = invariantAfterJoin;\n\n        return (bptAmountOut, amountsIn);\n    }\n\n    /**\n     * @dev Called whenever the Pool is joined after the first initialization join (see `_onInitializePool`).\n     *\n     * Returns the amount of BPT to mint, the token amounts that the Pool will receive in return, and the number of\n     * tokens to pay in protocol swap fees.\n     *\n     * Implementations of this function might choose to mutate the `balances` array to save gas (e.g. when\n     * performing intermediate calculations, such as subtraction of due protocol fees). This can be done safely.\n     *\n     * Minted BPT will be sent to `recipient`.\n     *\n     * The tokens granted to the Pool will be transferred from `sender`. These amounts are considered upscaled and will\n     * be downscaled (rounding up) before being returned to the Vault.\n     *\n     * Due protocol swap fees will be taken from the Pool's balance in the Vault (see `IBasePool.onJoinPool`). These\n     * amounts are considered upscaled and will be downscaled (rounding down) before being returned to the Vault.\n     *\n     * protocolSwapFeePercentage argument is intentionally unused as protocol fees are handled in a different way\n     *\n     * Responsibility for updating the oracle has been moved from `onJoinPool()` (without the underscore) to this function. That is because both this function and `_updateOracle()` need access to the invariant and this way we can share the computation.\n     */\n    function _onJoinPool(\n        bytes32,\n        address,\n        address recipient,\n        uint256[] memory balances,\n        uint256 lastChangeBlock,\n        uint256, //protocolSwapFeePercentage,\n        bytes memory userData\n    )\n        internal\n        override\n        returns (\n            uint256,\n            uint256[] memory,\n            uint256[] memory\n        )\n    {\n        uint256[2] memory sqrtParams = _sqrtParameters();\n\n        // Due protocol swap fee amounts are computed by measuring the growth of the invariant between the previous\n        // join or exit event and now - the invariant's growth is due exclusively to swap fees. This avoids\n        // spending gas calculating the fees on each individual swap.\n        uint256 invariantBeforeAction = GyroTwoMath._calculateInvariant(balances, sqrtParams[0], sqrtParams[1]);\n        uint256[2] memory virtualParam = _getVirtualParameters(sqrtParams, invariantBeforeAction);\n\n        // Update price oracle with pre-join balances\n        _updateOracle(lastChangeBlock, balances[0], balances[1], virtualParam[0], virtualParam[1]);\n\n        _distributeFees(invariantBeforeAction);\n\n        (uint256 bptAmountOut, uint256[] memory amountsIn) = _doJoin(balances, userData);\n\n        if (_capParams.capEnabled) {\n            _ensureCap(bptAmountOut, balanceOf(recipient), totalSupply());\n        }\n\n        // Since we pay fees in BPT, they have not changed the invariant and 'invariantBeforeAction' is still consistent with\n        // 'balances'. Therefore, we can use a simplified method to update the invariant that does not require a full\n        // re-computation.\n        // Note: Should this be changed in the future, we also need to reduce the invariant proportionally by the total\n        // protocol fee factor.\n        _lastInvariant = GyroPoolMath.liquidityInvariantUpdate(invariantBeforeAction, bptAmountOut, totalSupply(), true);\n\n        // returns a new uint256[](2) b/c Balancer vault is expecting a fee array, but fees paid in BPT instead\n        return (bptAmountOut, amountsIn, new uint256[](2));\n    }\n\n    function _doJoin(uint256[] memory balances, bytes memory userData) internal view returns (uint256 bptAmountOut, uint256[] memory amountsIn) {\n        BaseWeightedPool.JoinKind kind = userData.joinKind();\n\n        // We do NOT currently support unbalanced update, i.e., EXACT_TOKENS_IN_FOR_BPT_OUT or TOKEN_IN_FOR_EXACT_BPT_OUT\n        if (kind == BaseWeightedPool.JoinKind.ALL_TOKENS_IN_FOR_EXACT_BPT_OUT) {\n            (bptAmountOut, amountsIn) = _joinAllTokensInForExactBPTOut(balances, userData);\n        } else {\n            _revert(Errors.UNHANDLED_JOIN_KIND);\n        }\n    }\n\n    function _joinAllTokensInForExactBPTOut(uint256[] memory balances, bytes memory userData)\n        internal\n        view\n        override\n        returns (uint256, uint256[] memory)\n    {\n        uint256 bptAmountOut = userData.allTokensInForExactBptOut();\n        // Note that there is no maximum amountsIn parameter: this is handled by `IVault.joinPool`.\n\n        uint256[] memory amountsIn = GyroPoolMath._calcAllTokensInGivenExactBptOut(balances, bptAmountOut, totalSupply());\n\n        return (bptAmountOut, amountsIn);\n    }\n\n    /**\n     * @dev Called whenever the Pool is exited.\n     *\n     * Returns the amount of BPT to burn, the token amounts for each Pool token that the Pool will grant in return, and\n     * the number of tokens to pay in protocol swap fees.\n     *\n     * Implementations of this function might choose to mutate the `balances` array to save gas (e.g. when\n     * performing intermediate calculations, such as subtraction of due protocol fees). This can be done safely.\n     *\n     * BPT will be burnt from `sender`.\n     *\n     * The Pool will grant tokens to `recipient`. These amounts are considered upscaled and will be downscaled\n     * (rounding down) before being returned to the Vault.\n     *\n     * Due protocol swap fees will be taken from the Pool's balance in the Vault (see `IBasePool.onExitPool`). These\n     * amounts are considered upscaled and will be downscaled (rounding down) before being returned to the Vault.\n     *\n     * protocolSwapFeePercentage argument is intentionally unused as protocol fees are handled in a different way\n     */\n    function _onExitPool(\n        bytes32,\n        address,\n        address,\n        uint256[] memory balances,\n        uint256 lastChangeBlock,\n        uint256, // protocolSwapFeePercentage,\n        bytes memory userData\n    )\n        internal\n        override\n        returns (\n            uint256 bptAmountIn,\n            uint256[] memory amountsOut,\n            uint256[] memory dueProtocolFeeAmounts\n        )\n    {\n        // Exits are not completely disabled while the contract is paused: proportional exits (exact BPT in for tokens\n        // out) remain functional.\n\n        uint256[2] memory sqrtParams = _sqrtParameters();\n\n        // Note: If the contract is paused, swap protocol fee amounts are not charged and the oracle is not updated\n        // to avoid extra calculations and reduce the potential for errors.\n        if (_isNotPaused()) {\n            // Due protocol swap fee amounts are computed by measuring the growth of the invariant between the previous\n            // join or exit event and now - the invariant's growth is due exclusively to swap fees. This avoids\n            // spending gas calculating the fees on each individual swap.\n            uint256 invariantBeforeAction = GyroTwoMath._calculateInvariant(balances, sqrtParams[0], sqrtParams[1]);\n            uint256[2] memory virtualParam = _getVirtualParameters(sqrtParams, invariantBeforeAction);\n\n            // Update price oracle with the pre-exit balances\n            _updateOracle(lastChangeBlock, balances[0], balances[1], virtualParam[0], virtualParam[1]);\n\n            _distributeFees(invariantBeforeAction);\n\n            (bptAmountIn, amountsOut) = _doExit(balances, userData);\n\n            // Since we pay fees in BPT, they have not changed the invariant and 'invariantBeforeAction' is still consistent with\n            // 'balances'. Therefore, we can use a simplified method to update the invariant that does not require a full\n            // re-computation.\n            // Note: Should this be changed in the future, we also need to reduce the invariant proportionally by the total\n            // protocol fee factor.\n            _lastInvariant = GyroPoolMath.liquidityInvariantUpdate(invariantBeforeAction, bptAmountIn, totalSupply(), false);\n        } else {\n            // Note: If the contract is paused, swap protocol fee amounts are not charged and the oracle is not updated\n            // to avoid extra calculations and reduce the potential for errors.\n            (bptAmountIn, amountsOut) = _doExit(balances, userData);\n\n            // Invalidate _lastInvariant. We do not compute the invariant to make sure the pool is not locking\n            // up b/c numerical limits might be violated. Instead, we set the invariant such that any following\n            // (non-paused) join/exit will ignore and recompute it. (see GyroPoolMath._calcProtocolFees())\n            _lastInvariant = type(uint256).max;\n        }\n\n        // returns a new uint256[](2) b/c Balancer vault is expecting a fee array, but fees paid in BPT instead\n        return (bptAmountIn, amountsOut, new uint256[](2));\n    }\n\n    function _doExit(uint256[] memory balances, bytes memory userData) internal view returns (uint256 bptAmountIn, uint256[] memory amountsOut) {\n        BaseWeightedPool.ExitKind kind = userData.exitKind();\n\n        // We do NOT support unbalanced exit at the moment, i.e., EXACT_BPT_IN_FOR_ONE_TOKEN_OUT or\n        // BPT_IN_FOR_EXACT_TOKENS_OUT.\n        if (kind == BaseWeightedPool.ExitKind.EXACT_BPT_IN_FOR_TOKENS_OUT) {\n            (bptAmountIn, amountsOut) = _exitExactBPTInForTokensOut(balances, userData);\n        } else {\n            _revert(Errors.UNHANDLED_EXIT_KIND);\n        }\n    }\n\n    function _exitExactBPTInForTokensOut(uint256[] memory balances, bytes memory userData)\n        internal\n        view\n        override\n        returns (uint256, uint256[] memory)\n    {\n        // This exit function is the only one that is not disabled if the contract is paused: it remains unrestricted\n        // in an attempt to provide users with a mechanism to retrieve their tokens in case of an emergency.\n        // This particular exit function is the only one that remains available because it is the simplest one, and\n        // therefore the one with the lowest likelihood of errors.\n\n        uint256 bptAmountIn = userData.exactBptInForTokensOut();\n        // Note that there is no minimum amountOut parameter: this is handled by `IVault.exitPool`.\n\n        uint256[] memory amountsOut = GyroPoolMath._calcTokensOutGivenExactBptIn(balances, bptAmountIn, totalSupply());\n        return (bptAmountIn, amountsOut);\n    }\n\n    // Helpers\n\n    /**\n     * @dev Computes and distributes fees between the Balancer and the Gyro treasury\n     * The fees are computed and distributed in BPT rather than using the\n     * Balancer regular distribution mechanism which would pay these in underlying\n     */\n\n    function _distributeFees(uint256 invariantBeforeAction) internal {\n        // calculate Protocol fees in BPT\n        // lastInvariant is the invariant logged at the end of the last liquidity update\n        // protocol fees are calculated on swap fees earned between liquidity updates\n        (uint256 gyroFees, uint256 balancerFees, address gyroTreasury, address balTreasury) = _getDueProtocolFeeAmounts(\n            _lastInvariant,\n            invariantBeforeAction\n        );\n\n        // Pay fees in BPT\n        _payFeesBpt(gyroFees, balancerFees, gyroTreasury, balTreasury);\n    }\n\n    /**\n     * @dev this function overrides inherited function to make sure it is never used\n     */\n    function _getDueProtocolFeeAmounts(\n        uint256[] memory, // balances,\n        uint256[] memory, // normalizedWeights,\n        uint256, // previousInvariant,\n        uint256, // currentInvariant,\n        uint256 // protocolSwapFeePercentage\n    ) internal pure override returns (uint256[] memory) {\n        revert(\"Not implemented\");\n    }\n\n    /**\n     * @dev Calculates protocol fee amounts in BPT terms.\n     * protocolSwapFeePercentage is not used here b/c we take parameters from GyroConfig instead.\n     * Returns: BPT due to Gyro, BPT due to Balancer, receiving address for Gyro fees, receiving address for Balancer\n     * fees.\n     */\n    function _getDueProtocolFeeAmounts(uint256 previousInvariant, uint256 currentInvariant)\n        internal\n        view\n        returns (\n            uint256,\n            uint256,\n            address,\n            address\n        )\n    {\n        (uint256 protocolSwapFeePerc, uint256 protocolFeeGyroPortion, address gyroTreasury, address balTreasury) = _getFeesMetadata();\n\n        // Early return if the protocol swap fee percentage is zero, saving gas.\n        if (protocolSwapFeePerc == 0) {\n            return (0, 0, gyroTreasury, balTreasury);\n        }\n\n        // Calculate fees in BPT\n        (uint256 gyroFees, uint256 balancerFees) = GyroPoolMath._calcProtocolFees(\n            previousInvariant,\n            currentInvariant,\n            totalSupply(),\n            protocolSwapFeePerc,\n            protocolFeeGyroPortion\n        );\n\n        return (gyroFees, balancerFees, gyroTreasury, balTreasury);\n    }\n\n    function _payFeesBpt(\n        uint256 gyroFees,\n        uint256 balancerFees,\n        address gyroTreasury,\n        address balTreasury\n    ) internal {\n        // Pay fees in BPT to gyro treasury\n        if (gyroFees > 0) {\n            _mintPoolTokens(gyroTreasury, gyroFees);\n        }\n        // Pay fees in BPT to bal treasury\n        if (balancerFees > 0) {\n            _mintPoolTokens(balTreasury, balancerFees);\n        }\n    }\n\n    function _getFeesMetadata()\n        internal\n        view\n        returns (\n            uint256,\n            uint256,\n            address,\n            address\n        )\n    {\n        return (\n            gyroConfig.getUint(GyroConfigKeys.PROTOCOL_SWAP_FEE_PERC_KEY),\n            gyroConfig.getUint(GyroConfigKeys.PROTOCOL_FEE_GYRO_PORTION_KEY),\n            gyroConfig.getAddress(GyroConfigKeys.GYRO_TREASURY_KEY),\n            gyroConfig.getAddress(GyroConfigKeys.BAL_TREASURY_KEY)\n        );\n    }\n\n    /**\n     * @dev Updates the Price Oracle based on the Pool's current state (balances, BPT supply and invariant). Must be\n     * called on *all* state-changing functions with the balances *before* the state change happens, and with\n     * `lastChangeBlock` as the number of the block in which any of the balances last changed.\n     */\n    function _updateOracle(\n        uint256 lastChangeBlock,\n        uint256 balanceToken0,\n        uint256 balanceToken1,\n        uint256 virtualParam0,\n        uint256 virtualParam1\n    ) internal {\n        bytes32 miscData = _miscData;\n        if (miscData.oracleEnabled() && block.number > lastChangeBlock) {\n            int256 logSpotPrice = GyroTwoOracleMath._calcLogSpotPrice(balanceToken0, virtualParam0, balanceToken1, virtualParam1);\n\n            int256 logBPTPrice = GyroTwoOracleMath._calcLogBPTPrice(\n                balanceToken0,\n                virtualParam0,\n                balanceToken1,\n                virtualParam1,\n                miscData.logTotalSupply()\n            );\n\n            uint256 oracleCurrentIndex = miscData.oracleIndex();\n            uint256 oracleCurrentSampleInitialTimestamp = miscData.oracleSampleCreationTimestamp();\n            uint256 oracleUpdatedIndex = _processPriceData(\n                oracleCurrentSampleInitialTimestamp,\n                oracleCurrentIndex,\n                logSpotPrice,\n                logBPTPrice,\n                miscData.logInvariant()\n            );\n\n            if (oracleCurrentIndex != oracleUpdatedIndex) {\n                // solhint-disable not-rely-on-time\n                miscData = miscData.setOracleIndex(oracleUpdatedIndex);\n                miscData = miscData.setOracleSampleCreationTimestamp(block.timestamp);\n                _miscData = miscData;\n            }\n        }\n    }\n\n    /**\n     * @dev this variant of the function, called from `onJoinPool()` and `onExitPool()`, which we inherit, is a no-op. We instead have moved responsibility for updating the oracle to `_onJoinPool()` and `_onExitPool()` and the above version is called from there.\n     */\n    function _updateOracle(\n        uint256 lastChangeBlock,\n        uint256 balanceToken0,\n        uint256 balanceToken1\n    ) internal override {\n        // Do nothing.\n    }\n}\n","sourcePath":"contracts/cpmmv-2/GyroTwoPool.sol","type":"contract","deployment":{"address":"0xD9e058f39c11313103229bD481a8453bdDD20D81","chainid":"42","blockHeight":33064061}}