{"abi":[{"inputs":[{"internalType":"contract IVault","name":"vault","type":"address"},{"internalType":"address","name":"_gyroConfigAddress","type":"address"}],"stateMutability":"nonpayable","type":"constructor","name":"constructor"},{"anonymous":false,"inputs":[{"indexed":true,"internalType":"address","name":"pool","type":"address"}],"name":"PoolCreated","type":"event"},{"inputs":[{"internalType":"string","name":"name","type":"string"},{"internalType":"string","name":"symbol","type":"string"},{"internalType":"contract IERC20[]","name":"tokens","type":"address[]"},{"internalType":"uint256[]","name":"sqrts","type":"uint256[]"},{"internalType":"uint256","name":"swapFeePercentage","type":"uint256"},{"internalType":"bool","name":"oracleEnabled","type":"bool"},{"internalType":"address","name":"owner","type":"address"}],"name":"create","outputs":[{"internalType":"address","name":"","type":"address"}],"stateMutability":"nonpayable","type":"function"},{"inputs":[],"name":"getCreationCode","outputs":[{"internalType":"bytes","name":"","type":"bytes"}],"stateMutability":"view","type":"function"},{"inputs":[],"name":"getCreationCodeContracts","outputs":[{"internalType":"address","name":"contractA","type":"address"},{"internalType":"address","name":"contractB","type":"address"}],"stateMutability":"view","type":"function"},{"inputs":[],"name":"getPauseConfiguration","outputs":[{"internalType":"uint256","name":"pauseWindowDuration","type":"uint256"},{"internalType":"uint256","name":"bufferPeriodDuration","type":"uint256"}],"stateMutability":"view","type":"function"},{"inputs":[],"name":"getVault","outputs":[{"internalType":"contract IVault","name":"","type":"address"}],"stateMutability":"view","type":"function"},{"inputs":[],"name":"gyroConfigAddress","outputs":[{"internalType":"address","name":"","type":"address"}],"stateMutability":"view","type":"function"},{"inputs":[{"internalType":"address","name":"pool","type":"address"}],"name":"isPoolFromFactory","outputs":[{"internalType":"bool","name":"","type":"bool"}],"stateMutability":"view","type":"function"}],"bytecode":"6101606040523480156200001257600080fd5b50604051620065ec380380620065ec8339810160408190526200003591620001cc565b81604051806020016200004890620001be565b601f1982820381018352601f909101166040528051819060006002820460a081905280830360e081905281855290915083620000908162000102602090811b6200039c17901c565b60601b6001600160601b0319166080528285018051838252620000bf8262000102602090811b6200039c17901c565b6001600160601b0319606091821b811660c05296909352905295861b8316610100525050426276a70001610120529390921b909216610140525062000223915050565b80517f602038038060206000396000f3fefefefefefefefefefefefefefefefefefefe808352600091602081018484f09084529150620001506001600160a01b03831615156101ac62000156565b50919050565b81620001675762000167816200016b565b5050565b62461bcd60e51b6000908152602060045260076024526642414c23000030600a808404818106603090810160081b95839006959095019082900491820690940160101b939093010160c81b604452606490fd5b61581f8062000dcd83390190565b60008060408385031215620001df578182fd5b8251620001ec816200020a565b6020840151909250620001ff816200020a565b809150509250929050565b6001600160a01b03811681146200022057600080fd5b50565b60805160601c60a05160c05160601c60e0516101005160601c610120516101405160601c610b36620002976000398061013c52806102575250806102f6528061031f52508061037a5250806103f65250806102cd52806104725250806104175250806102ac528061044e5250610b366000f3fe608060405234801561001057600080fd5b506004361061007c5760003560e01c8063174481fa1161005b578063174481fa146100c75780632da47c40146100dd5780636634b753146100f35780638d928af8146101135761007c565b8062c194db146100815780630bc7b4c41461009f5780631596019b146100b4575b600080fd5b61008961011b565b604051610096919061098c565b60405180910390f35b6100a761013a565b6040516100969190610953565b6100a76100c2366004610820565b61015e565b6100cf6102aa565b604051610096929190610967565b6100e56102f0565b604051610096929190610a93565b610106610101366004610804565b61035a565b6040516100969190610981565b6100a7610378565b6060610135604051806020016040528060008152506103ee565b905090565b7f000000000000000000000000000000000000000000000000000000000000000081565b600080600061016b6102f0565b91509150610177610605565b604080516101a08101909152806060810180610191610378565b6001600160a01b031681526020018e81526020018d81526020018c6000815181106101b857fe5b60200260200101516001600160a01b031681526020018c6001815181106101db57fe5b60200260200101516001600160a01b031681526020018a81526020018681526020018581526020018915158152602001886001600160a01b031681525081526020018960008151811061022a57fe5b602002602001015181526020018960018151811061024457fe5b6020026020010151815250905061029b817f000000000000000000000000000000000000000000000000000000000000000060405160200161028792919061099f565b6040516020818303038152906040526104c7565b9b9a5050505050505050505050565b7f00000000000000000000000000000000000000000000000000000000000000007f00000000000000000000000000000000000000000000000000000000000000009091565b600080427f000000000000000000000000000000000000000000000000000000000000000081101561034c57807f000000000000000000000000000000000000000000000000000000000000000003925062278d009150610355565b60009250600091505b509091565b6001600160a01b031660009081526020819052604090205460ff1690565b7f000000000000000000000000000000000000000000000000000000000000000090565b80517f602038038060206000396000f3fefefefefefefefefefefefefefefefefefefe808352600091602081018484f090845291506103e86001600160a01b03831615156101ac610527565b50919050565b8051604080517f00000000000000000000000000000000000000000000000000000000000000007f0000000000000000000000000000000000000000000000000000000000000000818101858101848101602090810190965280855293957f00000000000000000000000000000000000000000000000000000000000000009592947f000000000000000000000000000000000000000000000000000000000000000094938801866000828a3c846000888301883c50602089810190898501016104b9818386610539565b505050505050505050919050565b6000806104d383610577565b6001600160a01b038116600081815260208190526040808220805460ff191660011790555192935090917f83a48fbcfc991335314e74d0496aab6a1987e992ddc85dddbcc4d6dd6ef2e9fc9190a292915050565b8161053557610535816105b2565b5050565b5b60208110610559578151835260209283019290910190601f190161053a565b905182516020929092036101000a6000190180199091169116179052565b60006060610584836103ee565b905060008151602083016000f090506001600160a01b0381166105ab573d6000803e3d6000fd5b9392505050565b62461bcd60e51b6000908152602060045260076024526642414c23000030600a808404818106603090810160081b95839006959095019082900491820690940160101b939093010160c81b604452606490fd5b604051806060016040528061061861062c565b815260200160008152602001600081525090565b60405180610140016040528060006001600160a01b03168152602001606081526020016060815260200160006001600160a01b0316815260200160006001600160a01b0316815260200160008152602001600081526020016000815260200160001515815260200160006001600160a01b031681525090565b80356106b081610ae8565b92915050565b600082601f8301126106c6578081fd5b81356106d96106d482610ac8565b610aa1565b8181529150602080830190848101818402860182018710156106fa57600080fd5b60005b8481101561072257813561071081610ae8565b845292820192908201906001016106fd565b505050505092915050565b600082601f83011261073d578081fd5b813561074b6106d482610ac8565b81815291506020808301908481018184028601820187101561076c57600080fd5b60005b848110156107225781358452928201929082019060010161076f565b803580151581146106b057600080fd5b600082601f8301126107ab578081fd5b813567ffffffffffffffff8111156107c1578182fd5b6107d4601f8201601f1916602001610aa1565b91508082528360208285010111156107eb57600080fd5b8060208401602084013760009082016020015292915050565b600060208284031215610815578081fd5b81356105ab81610ae8565b600080600080600080600060e0888a03121561083a578283fd5b873567ffffffffffffffff80821115610851578485fd5b61085d8b838c0161079b565b985060208a0135915080821115610872578485fd5b61087e8b838c0161079b565b975060408a0135915080821115610893578485fd5b61089f8b838c016106b6565b965060608a01359150808211156108b4578485fd5b506108c18a828b0161072d565b945050608088013592506108d88960a08a0161078b565b91506108e78960c08a016106a5565b905092959891949750929550565b6001600160a01b03169052565b15159052565b60008151808452815b8181101561092d57602081850181015186830182015201610911565b8181111561093e5782602083870101525b50601f01601f19169290920160200192915050565b6001600160a01b0391909116815260200190565b6001600160a01b0392831681529116602082015260400190565b901515815260200190565b6000602082526105ab6020830184610908565b6000604082528351606060408401526109bc60a0840182516108f5565b60208101516101408060c08601526109d86101e0860183610908565b91506040830151609f198684030160e08701526109f58382610908565b9250506060830151610100610a0c818801836108f5565b60808501519150610120610a22818901846108f5565b60a08601518489015260c086015161016089015260e0860151610180890152818601519350610a556101a0890185610902565b80860151955050505050610a6d6101c08501836108f5565b602086015160608501526040860151608085015280925050506105ab60208301846108f5565b918252602082015260400190565b60405181810167ffffffffffffffff81118282101715610ac057600080fd5b604052919050565b600067ffffffffffffffff821115610ade578081fd5b5060209081020190565b6001600160a01b0381168114610afd57600080fd5b5056fea2646970667358221220b70eb1991580df5c52fe7ec40673c8a697401259445270ba735aacc43706129564736f6c634300070100336102e06040527f6e71edae12b1b97f4d1f60370fef10105fa2faae0126114a169c64845d6126c9610120526706f05b59d3b20000610200819052610220526000610240523480156200005057600080fd5b506040516200581f3803806200581f83398101604081905262000073916200088a565b815160c081015160e08201516020808401516040808601518651825180840190935260018352603160f81b838601526101208801513360805260601b6001600160601b03191660a05283519394919390928592839283918791620000de91600391908501906200071d565b508051620000f49060049060208401906200071d565b505060058054601260ff1990911617905550815160209283012060c052805191012060e052507f8b73c3c69bb8fe3d512ecc4cf759cc79239f7b179b0ffacaa9a75d522b39400f6101005260601b6001600160601b03191661014052506200016790506276a70083111561019462000403565b6200017b62278d0082111561019562000403565b429190910161016081905201610180526040805160028082526060808301845292602083019080368337019050509050816060015181600081518110620001be57fe5b60200260200101906001600160a01b031690816001600160a01b031681525050816080015181600181518110620001f157fe5b60200260200101906001600160a01b031690816001600160a01b03168152505062000227816200041860201b620014fb1760201c565b610100820151620002389062000424565b60a0820151620002489062000480565b81516040516309b2760f60e01b81526000916001600160a01b0316906309b2760f906200027b9060029060040162000ada565b602060405180830381600087803b1580156200029657600080fd5b505af1158015620002ab573d6000803e3d6000fd5b505050506040513d601f19601f82011682018060405250810190620002d1919062000871565b83516040805160028082526060820183529394506001600160a01b03909216926366a9c7d2928592879290602083019080368337019050506040518463ffffffff1660e01b8152600401620003299392919062000a3e565b600060405180830381600087803b1580156200034457600080fd5b505af115801562000359573d6000803e3d6000fd5b5050506101a082905250606080840180516001600160601b031990831b81166101c052608086015190921b9091166101e052516200039790620004fe565b610260526080830151620003ab90620004fe565b6102805250505060408201516020830151620003cb911161015e62000403565b60208201516102a0526040909101516102c052600b80546001600160a01b0319166001600160a01b0390921691909117905562000b2b565b8162000414576200041481620005a0565b5050565b806200041481620005f3565b62000440816009546200068060201b620015091790919060201c565b6009556040517f3e350b41e86a8e10f804ade6d35340d620be35569cc75ac943e8bb14ab80ead1906200047590839062000a33565b60405180910390a150565b6200049564e8d4a5100082101560cb62000403565b620004ad67016345785d8a000082111560ca62000403565b620004c981600954620006a860201b6200151e1790919060201c565b6009556040517fa9ba3ffe0b6c366b81232caab38605a0699ad5398d6cce76f91ee809e322dafc906200047590839062000aef565b600080826001600160a01b031663313ce5676040518163ffffffff1660e01b815260040160206040518083038186803b1580156200053b57600080fd5b505afa15801562000550573d6000803e3d6000fd5b505050506040513d601f19601f8201168201806040525081019062000576919062000a09565b60ff169050600062000595601283620006c760201b6200152c1760201c565b600a0a949350505050565b62461bcd60e51b6000908152602060045260076024526642414c23000030600a808404818106603090810160081b95839006959095019082900491820690940160101b939093010160c81b604452606490fd5b60028151101562000604576200067d565b6000816000815181106200061457fe5b602002602001015190506000600190505b82518110156200067a5760008382815181106200063e57fe5b602002602001015190506200066f816001600160a01b0316846001600160a01b03161060656200040360201b60201c565b915060010162000625565b50505b50565b60006200069f82605585620006df60201b62001542179092919060201c565b90505b92915050565b60006200069f826056856200070860201b62001569179092919060201c565b6000620006d983831115600162000403565b50900390565b60006001821b1984168284620006f7576000620006fa565b60015b60ff16901b17949350505050565b6001600160401b03811b1992909216911b1790565b828054600181600116156101000203166002900490600052602060002090601f016020900481019282601f106200076057805160ff191683800117855562000790565b8280016001018555821562000790579182015b828111156200079057825182559160200191906001019062000773565b506200079e929150620007a2565b5090565b5b808211156200079e5760008155600101620007a3565b80516001600160a01b0381168114620006a257600080fd5b80518015158114620006a257600080fd5b600082601f830112620007f3578081fd5b81516001600160401b0381111562000809578182fd5b60206200081f601f8301601f1916820162000af8565b925081835284818386010111156200083657600080fd5b60005b828110156200085657848101820151848201830152810162000839565b82811115620008685760008284860101525b50505092915050565b60006020828403121562000883578081fd5b5051919050565b600080604083850312156200089d578081fd5b82516001600160401b0380821115620008b4578283fd5b9084019060608287031215620008c8578283fd5b620008d4606062000af8565b825182811115620008e3578485fd5b8301610140818903811315620008f7578586fd5b620009028162000af8565b9050620009108983620007b9565b815260208201518481111562000924578687fd5b620009328a828501620007e2565b6020830152506040820151848111156200094a578687fd5b620009588a828501620007e2565b6040830152506200096d8960608401620007b9565b6060820152620009818960808401620007b9565b608082015260a082015160a082015260c082015160c082015260e082015160e08201526101009350620009b789858401620007d1565b848201526101209350620009ce89858401620007b9565b848201528083525050602083015160208201526040830151604082015280945050505062000a008460208501620007b9565b90509250929050565b60006020828403121562000a1b578081fd5b815160ff8116811462000a2c578182fd5b9392505050565b901515815260200190565b60006060820185835260206060818501528186518084526080860191508288019350845b8181101562000a8a5762000a77855162000b1f565b8352938301939183019160010162000a62565b505084810360408601528551808252908201925081860190845b8181101562000acc5762000ab9835162000b1f565b8552938301939183019160010162000aa4565b509298975050505050505050565b602081016003831062000ae957fe5b91905290565b90815260200190565b6040518181016001600160401b038111828210171562000b1757600080fd5b604052919050565b6001600160a01b031690565b60805160a05160601c60c05160e05161010051610120516101405160601c61016051610180516101a0516101c05160601c6101e05160601c61020051610220516102405161026051610280516102a0516102c051614c2662000bf960003980612940525080612967525080611a1a525080611a4152505080612f79525080612fa052505080610ee45250806109215250806116d55250806116b1525080610d295250806112795250806118fd52508061193f52508061191e525080610d05525080610c905250614c266000f3fe608060405234801561001057600080fd5b506004361061027f5760003560e01c8063707dcd1e1161015c5780639d2c110c116100ce578063c0ff1a1511610087578063c0ff1a151461056a578063d505accf14610572578063d5c096c414610585578063dd62ed3e14610598578063f89f27ed146105ab578063ffd088eb146105b35761027f565b80639d2c110c1461050e578063a457c2d714610521578063a9059cbb14610534578063aaabadc514610547578063b10be7391461054f578063b48b5b40146105625761027f565b806387ec68171161012057806387ec6817146104d3578063893d20e8146104e65780638d928af8146104ee5780638dd9f89d146104f657806395d89b41146104fe5780639b02cdde146105065761027f565b8063707dcd1e1461046457806370a082311461047957806374f3b0091461048c5780637ecebe00146104ad578063851c1bb3146104c05761027f565b806338e9922e116101f55780634a6b0b15116101b95780634a6b0b15146103d357806355c67628146103ed5780636028bfd4146103f557806360d1507c14610416578063679aefce1461043c5780636b843239146104445761027f565b806338e9922e1461036e57806338fff2d01461038157806339509351146103895780633c4dd5bb1461039c57806344bbdb55146103be5761027f565b80631dccd830116102475780631dccd8301461030357806323b872dd14610323578063292c914a14610336578063313ce5671461033e5780633331bc36146103535780633644e515146103665761027f565b806306fdde0314610284578063095ea7b3146102a257806316c38b3c146102c257806318160ddd146102d75780631c0de051146102ec575b600080fd5b61028c6105bb565b6040516102999190614abb565b60405180910390f35b6102b56102b03660046141d2565b610651565b6040516102999190614910565b6102d56102d0366004614440565b610668565b005b6102df61067c565b6040516102999190614933565b6102f4610682565b6040516102999392919061491b565b610316610311366004614386565b6106ab565b60405161029991906148d8565b6102b561033136600461411d565b6107ce565b6102d5610842565b610346610876565b6040516102999190614b63565b6102d5610361366004614779565b61087f565b6102df6108f7565b6102d561037c366004614761565b610906565b6102df61091f565b6102b56103973660046141d2565b610943565b6103af6103aa36600461479a565b61097e565b60405161029993929190614b4d565b6103c66109d1565b604051610299919061484f565b6103db6109e0565b60405161029996959493929190614a09565b6102df610a3b565b610408610403366004614478565b610a48565b604051610299929190614b34565b610429610424366004614761565b610a79565b60405161029997969594939291906149d9565b6102df610ac2565b6104576104523660046142c8565b610ae7565b6040516102999190614863565b61046c610b9d565b60405161029991906148a7565b6102df6104873660046140ad565b610bad565b61049f61049a366004614478565b610bcc565b6040516102999291906148eb565b6102df6104bb3660046140ad565b610c71565b6102df6104ce366004614574565b610c8c565b6104086104e1366004614478565b610cde565b6103c6610d03565b6103c6610d27565b610316610d4b565b61028c610e54565b6102df610eb5565b6102df61051c366004614666565b610ebb565b6102b561052f3660046141d2565b611081565b6102b56105423660046141d2565b6110bf565b6103c66110cc565b6102df61055d366004614633565b6110d6565b6102df61116b565b6102df611171565b6102d561058036600461415d565b611244565b61049f610593366004614478565b61138d565b6102df6105a63660046140e5565b6114ad565b6103166114ea565b6102df6114f4565b60038054604080516020601f60026000196101006001881615020190951694909404938401819004810282018101909252828152606093909290918301828280156106475780601f1061061c57610100808354040283529160200191610647565b820191906000526020600020905b81548152906001019060200180831161062a57829003601f168201915b5050505050905090565b600061065e33848461157e565b5060015b92915050565b6106706115e6565b61067981611614565b50565b60025490565b600080600061068f611692565b15925061069a6116af565b91506106a46116d3565b9050909192565b606081516001600160401b03811180156106c457600080fd5b506040519080825280602002602001820160405280156106ee578160200160208202803683370190505b50905060006106fb6116f7565b905060005b83518110156107c75773__QueryProcessor________________________6379eaef82600886848151811061073157fe5b6020026020010151856040518463ffffffff1660e01b815260040161075893929190614a7f565b60206040518083038186803b15801561077057600080fd5b505af4158015610784573d6000803e3d6000fd5b505050506040513d601f19601f820116820180604052508101906107a8919061464e565b8382815181106107b457fe5b6020908102919091010152600101610700565b5050919050565b6000806107db85336114ad565b90506107ff336001600160a01b03871614806107f75750838210155b61019e611704565b61080a858585611712565b336001600160a01b0386161480159061082557506000198114155b1561083757610837853385840361157e565b506001949350505050565b61084a6117f2565b6108526115e6565b61085c6001611805565b600061086661067c565b111561087457610874611845565b565b60055460ff1690565b61089a818310801561089357506104008211155b6064611704565b60006108af600160008060008060008061188d565b9050825b828110156108f1576000818152600860205260409020546108d3906118ed565b6108e95760008181526008602052604090208290555b6001016108b3565b50505050565b60006109016118f9565b905090565b61090e6115e6565b6109166117f2565b61067981611996565b7f000000000000000000000000000000000000000000000000000000000000000090565b3360008181526001602090815260408083206001600160a01b0387168452909152812054909161065e91859061097990866119ff565b61157e565b60008060008061098d85611a11565b9050600061099b8615611a11565b90506109a78883611a65565b97506109b38782611a65565b96506109c0888888611a71565b945094509450505093509350939050565b600b546001600160a01b031681565b600080600080600080600060095490506109f981611b4d565b9650610a0481611b59565b9550610a0f81611b66565b9450610a1a81611b73565b9350610a2581611b80565b9250610a3081611b8d565b915050909192939495565b6000610901600954611b8d565b60006060610a5886516002611b9a565b610a6d89898989898989611ba7611cc7611d45565b97509795505050505050565b6000806000806000806000610a94610400891061013b611704565b6000610a9f89611e59565b9050610aaa81611e6b565b959f949e50929c50909a509850965090945092505050565b6000610901610acf61067c565b610ae1610ada611171565b6002611ece565b90611ef2565b606081516001600160401b0381118015610b0057600080fd5b50604051908082528060200260200182016040528015610b2a578160200160208202803683370190505b5090506000610b376116f7565b9050610b41613f79565b60005b8451811015610b9557848181518110610b5957fe5b60200260200101519150610b768260000151848460200151611f43565b848281518110610b8257fe5b6020908102919091010152600101610b44565b505050919050565b610ba5613f90565b610901611fdc565b6001600160a01b0381166000908152602081905260409020545b919050565b60608088610bf6610bdb610d27565b6001600160a01b0316336001600160a01b03161460cd611704565b610c0b610c0161091f565b82146101f4611704565b610c1487612002565b6000606080610c288d8d8d8d8d8d8d611ba7565b925092509250610c388c84612064565b610c4182611cc7565b610c4a81611cc7565b610c52611692565b15610c5f57610c5f611845565b909c909b509950505050505050505050565b6001600160a01b031660009081526006602052604090205490565b60007f000000000000000000000000000000000000000000000000000000000000000082604051602001610cc192919061480c565b604051602081830303815290604052805190602001209050919050565b60006060610cee86516002611b9a565b610a6d8989898989898961206e612125611d45565b7f000000000000000000000000000000000000000000000000000000000000000090565b7f000000000000000000000000000000000000000000000000000000000000000090565b606080610d56610d27565b6001600160a01b031663f94d4668610d6c61091f565b6040518263ffffffff1660e01b8152600401610d889190614933565b60006040518083038186803b158015610da057600080fd5b505afa158015610db4573d6000803e3d6000fd5b505050506040513d6000823e601f3d908101601f19168201604052610ddc91908101906141fd565b50915050610de981612002565b610e1d81600081518110610df957fe5b602002602001015182600181518110610e0e57fe5b60200260200101516001611a71565b90915083600081518110610e2d57fe5b6020026020010184600181518110610e4157fe5b6020908102919091010191909152525090565b60048054604080516020601f60026000196101006001881615020190951694909404938401819004810282018101909252828152606093909290918301828280156106475780601f1061061c57610100808354040283529160200191610647565b600a5490565b6000610ec56117f2565b8360800151610ed5610bdb610d27565b610ee0610c0161091f565b60007f00000000000000000000000000000000000000000000000000000000000000006001600160a01b031686602001516001600160a01b03161490506000610f2882611a11565b90506000610f368315611a11565b9050610f428783611a65565b9650610f4e8682611a65565b95506000806000610f608a8a88611a71565b925092509250610fa78b60a0015187610f79578a610f7b565b8b5b88610f86578c610f88565b8b5b89610f935784610f95565b855b8a610fa05786610fa2565b855b612187565b60008b516001811115610fb657fe5b1415611025576000610fd4610fc9610a3b565b60608e015190612231565b9050610ff6610ff0828e6060015161152c90919063ffffffff16565b87611a65565b60608d0152600061100a8d8d8d8787612275565b90506110168187612294565b99505050505050505050611079565b6110338b6060015185611a65565b60608c015260006110478c8c8c86866122a0565b905061105381876122b3565b905061106f611068611063610a3b565b6122bf565b82906122e5565b9850505050505050505b509392505050565b60008061108e33856114ad565b90508083106110a8576110a33385600061157e565b6110b5565b6110b5338585840361157e565b5060019392505050565b600061065e338484611712565b6000610901612327565b600073__QueryProcessor________________________630397bee06008846110fd6116f7565b6040518463ffffffff1660e01b815260040161111b93929190614a33565b60206040518083038186803b15801561113357600080fd5b505af4158015611147573d6000803e3d6000fd5b505050506040513d601f19601f82011682018060405250810190610662919061464e565b61040090565b6000606061117d610d27565b6001600160a01b031663f94d466861119361091f565b6040518263ffffffff1660e01b81526004016111af9190614933565b60006040518083038186803b1580156111c757600080fd5b505afa1580156111db573d6000803e3d6000fd5b505050506040513d6000823e601f3d908101601f1916820160405261120391908101906141fd565b5091505061120f613f90565b611217611fdc565b905061122282612002565b61123d828260005b60200201518360015b60200201516123a1565b9250505090565b6112528442111560d1611704565b6001600160a01b03871660009081526006602090815260408083205490519092916112a9917f0000000000000000000000000000000000000000000000000000000000000000918c918c918c9188918d910161495b565b60405160208183030381529060405280519060200120905060006112cc826123d4565b90506000600182888888604051600081526020016040526040516112f394939291906149bb565b6020604051602081039080840390855afa158015611315573d6000803e3d6000fd5b5050604051601f190151915061135790506001600160a01b0382161580159061134f57508b6001600160a01b0316826001600160a01b0316145b6101f8611704565b6001600160a01b038b1660009081526006602052604090206001850190556113808b8b8b61157e565b5050505050505050505050565b6060808861139c610bdb610d27565b6113a7610c0161091f565b6113af6117f2565b60006113b961067c565b611429576113c98b8b8b886123f0565b945090506113de620f424082101560cc611704565b6113ec6000620f4240612480565b6113fb89620f42408303612480565b61140484612125565b6040805160028082526060820183529091602083019080368337019050509250611497565b61143288612002565b611465878960008151811061144357fe5b60200260200101518a60018151811061145857fe5b602002602001015161248a565b6114748b8b8b8b8b8b8b61206e565b909550935090506114858982612480565b61148e84612125565b61149783611cc7565b61149f611845565b505097509795505050505050565b60006114b7610d27565b6001600160a01b0316826001600160a01b031614156114d95750600019610662565b6114e3838361248f565b9050610662565b60606109016124ba565b6201de2090565b8061150581612528565b5050565b600061151783836055611542565b9392505050565b600061151783836056611569565b600061153c838311156001611704565b50900390565b60006001821b198416828461155857600061155b565b60015b60ff16901b17949350505050565b6001600160401b03811b1992909216911b1790565b6001600160a01b0380841660008181526001602090815260408083209487168084529490915290819020849055517f8c5be1e5ebec7d5bd14f71427d1e84f3dd0314c0f7b2291e5b200ac8c7c3b925906115d9908590614933565b60405180910390a3505050565b60006115fd6000356001600160e01b031916610c8c565b905061067961160c82336125a1565b610191611704565b80156116345761162f6116256116af565b4210610193611704565b611649565b61164961163f6116d3565b42106101a9611704565b6007805460ff19168215151790556040517f9e3a5e37224532dea67b89face185703738a228a6e8a23dee546960180d3be6490611687908390614910565b60405180910390a150565b600061169c6116d3565b42118061090157505060075460ff161590565b7f000000000000000000000000000000000000000000000000000000000000000090565b7f000000000000000000000000000000000000000000000000000000000000000090565b6000610901600954611b73565b81611505576115058161268a565b6117296001600160a01b0384161515610198611704565b6117406001600160a01b0383161515610199611704565b61174b83838361248a565b6001600160a01b03831660009081526020819052604090205461177190826101a06126dd565b6001600160a01b0380851660009081526020819052604080822093909355908416815220546117a090826119ff565b6001600160a01b0380841660008181526020819052604090819020939093559151908516907fddf252ad1be2c89b69c2b068fc378daa952ba7f163c4a11628f55a4df523b3ef906115d9908590614933565b6108746117fd611692565b610192611704565b6009546118129082611509565b6009556040517f3e350b41e86a8e10f804ade6d35340d620be35569cc75ac943e8bb14ab80ead190611687908390614910565b60095461185181611b80565b156106795761186b611864600a546126f3565b8290612733565b905061188761188061187b61067c565b6126f3565b8290612740565b60095550565b6000611899828261274e565b6118a484601f612752565b6118af866054612763565b6118ba88606a612752565b6118c58a609f612763565b6118d08c60b5612752565b6118db8e60ea612763565b17171717171798975050505050505050565b60006106628282612770565b60007f00000000000000000000000000000000000000000000000000000000000000007f00000000000000000000000000000000000000000000000000000000000000007f000000000000000000000000000000000000000000000000000000000000000061196661277a565b3060405160200161197b95949392919061498f565b60405160208183030381529060405280519060200120905090565b6119a964e8d4a5100082101560cb611704565b6119bf67016345785d8a000082111560ca611704565b6009546119cc908261151e565b6009556040517fa9ba3ffe0b6c366b81232caab38605a0699ad5398d6cce76f91ee809e322dafc90611687908390614933565b60008282016115178482101583611704565b600081611a3e577f0000000000000000000000000000000000000000000000000000000000000000610662565b507f0000000000000000000000000000000000000000000000000000000000000000919050565b60006115178383611ece565b6040805160028082526060808301845260009384938493909160208301908036833701905050905084611aa45785611aa6565b865b81600081518110611ab357fe5b60200260200101818152505084611aca5786611acc565b855b81600181518110611ad957fe5b602002602001018181525050611aed613f90565b611af5611fdc565b9050611b038282600061122a565b9450611b0d613f90565b611b17828761277e565b905086611b28576020810151611b2b565b80515b945086611b39578051611b3f565b60208101515b935050505093509350939050565b600061066282826127b2565b60006106628260166127b2565b600061066282602c612770565b600061066282604b6127d9565b60006106628260556127e1565b60006106628260566127eb565b6115058183146067611704565b6000606080611bb4613f90565b611bbc611fdc565b9050611bc6611692565b15611c7b576000611be18983835b6020020151846001611233565b9050611beb613f90565b611bf5838361277e565b9050611c44898b600081518110611c0857fe5b60200260200101518c600181518110611c1d57fe5b602002602001015184600060028110611c3257fe5b60200201518560016020020151612187565b611c4d826127f8565b611c578a88612825565b9096509450611c708287611c6961067c565b6000612871565b600a5550611c919050565b611c858886612825565b600019600a5590945092505b60408051600280825260608201835286928692919060208301908036833701905050935093509350509750975097945050505050565b611cee81600081518110611cd757fe5b6020026020010151611ce96001611a11565b6128c9565b81600081518110611cfb57fe5b602002602001018181525050611d2981600181518110611d1757fe5b6020026020010151611ce96000611a11565b81600181518110611d3657fe5b60200260200101818152505050565b333014611e03576000306001600160a01b0316600036604051611d69929190614824565b6000604051808303816000865af19150503d8060008114611da6576040519150601f19603f3d011682016040523d82523d6000602084013e611dab565b606091505b505090508060008114611dba57fe5b60046000803e6000516001600160e01b0319166343adbafb60e01b8114611de5573d6000803e3d6000fd5b506020600460003e604060205260243d03602460403e601c3d016000f35b611e0c86612002565b60006060611e238b8b8b8b8b8b8b8b63ffffffff16565b5091509150611e35818463ffffffff16565b8051601f1982018390526343adbafb603f1983015260200260231982016044820181fd5b60009081526008602052604090205490565b6000806000806000806000611e7f886128e9565b9650611e8a886128f6565b9550611e9588612903565b9450611ea088612910565b9350611eab8861291d565b9250611eb68861292a565b9150611ec1886118ed565b9050919395979092949650565b6000828202611517841580611eeb575083858381611ee857fe5b04145b6003611704565b6000611f018215156004611704565b82611f0e57506000610662565b670de0b6b3a764000083810290611f3190858381611f2857fe5b04146005611704565b828181611f3a57fe5b04915050610662565b6040516334171a8560e01b815260009073__QueryProcessor________________________906334171a8590611f8490600890889088908890600401614a54565b60206040518083038186803b158015611f9c57600080fd5b505af4158015611fb0573d6000803e3d6000fd5b505050506040513d601f19601f82011682018060405250810190611fd4919061464e565b949350505050565b611fe4613f90565b611fee6001612937565b8152611ffa6000612937565b602082015290565b6120298160008151811061201257fe5b60200260200101516120246001611a11565b611ece565b8160008151811061203657fe5b602002602001018181525050611d298160018151811061205257fe5b60200260200101516120246000611a11565b611505828261298b565b600060608061207b613f90565b612083611fdc565b90506000612092898383611bd4565b905061209c613f90565b6120a6838361277e565b90506120b9898b600081518110611c0857fe5b6120c2826127f8565b600060606120d08c8a612a47565b915091506120e884836120e161067c565b6001612871565b600a556040805160028082526060820183528492849291906020830190803683370190505097509750975050505050509750975097945050505050565b61214c8160008151811061213557fe5b60200260200101516121476001611a11565b612a81565b8160008151811061215957fe5b602002602001018181525050611d298160018151811061217557fe5b60200260200101516121476000611a11565b60095461219381611b80565b801561219e57508543115b156122295760006121b186858786612ab4565b905060006121ca878688876121c588611b59565b612ace565b905060006121d784611b73565b905060006121e485611b66565b905060006121fd828487876121f88b611b4d565b612b12565b9050808314611380576122108682612b69565b955061221c8642612b77565b6009819055955050505050505b505050505050565b600082820261224b841580611eeb575083858381611ee857fe5b8061225a576000915050610662565b670de0b6b3a764000060001982015b04600101915050610662565b6000612288858588606001518686612b85565b90505b95945050505050565b600061151783836128c9565b6000612288858588606001518686612c29565b60006115178383612a81565b6000670de0b6b3a764000082106122d7576000610662565b50670de0b6b3a76400000390565b60006122f48215156004611704565b8261230157506000610662565b670de0b6b3a76400008381029061231b90858381611f2857fe5b82600182038161226957fe5b6000612331610d27565b6001600160a01b031663aaabadc56040518163ffffffff1660e01b815260040160206040518083038186803b15801561236957600080fd5b505afa15801561237d573d6000803e3d6000fd5b505050506040513d601f19601f8201168201806040525081019061090191906140c9565b60008060008060006123b4888888612cc8565b93509350935093506123c884848484612e42565b98975050505050505050565b60006123de6118f9565b82604051602001610cc1929190614834565b6000606060006123ff84612eb6565b905061241a600082600381111561241257fe5b1460ce611704565b606061242585612ecc565b905061243381516002611b9a565b61243c81612002565b612444613f90565b61244c611fdc565b9050600061245b838383611bd4565b9050600061246a826002611ece565b600a929092555099919850909650505050505050565b6115058282612ee2565b505050565b6001600160a01b03918216600090815260016020908152604080832093909416825291909152205490565b6040805160028082526060808301845292839291906020830190803683370190505090506124e86001612f70565b816000815181106124f557fe5b60200260200101818152505061250b6000612f70565b8160018151811061251857fe5b6020908102919091010152905090565b60028151101561253757610679565b60008160008151811061254657fe5b602002602001015190506000600190505b825181101561248a57600083828151811061256e57fe5b60200260200101519050612597816001600160a01b0316846001600160a01b0316106065611704565b9150600101612557565b600073ba1ba1ba1ba1ba1ba1ba1ba1ba1ba1ba1ba1ba1b6125c0610d03565b6001600160a01b0316141580156125db57506125db83612fc4565b15612603576125e8610d03565b6001600160a01b0316336001600160a01b0316149050610662565b61260b612327565b6001600160a01b0316639be2a8848484306040518463ffffffff1660e01b815260040161263a9392919061493c565b60206040518083038186803b15801561265257600080fd5b505afa158015612666573d6000803e3d6000fd5b505050506040513d601f19601f820116820180604052508101906114e3919061445c565b62461bcd60e51b6000908152602060045260076024526642414c23000030600a808404818106603090810160081b95839006959095019082900491820690940160101b939093010160c81b604452606490fd5b60006126ec8484111583611704565b5050900390565b6000806126ff83612ff6565b9050600080821361271857652d79883d20008203612722565b652d79883d200082015b655af3107a40009005949350505050565b600061151783838361305a565b60006115178383601661305a565b1b90565b661fffffffffffff91909116901b90565b623fffff91909116901b90565b1c637fffffff1690565b4690565b612786613f90565b612799600184815b602002015184613071565b81526127a76000848161278e565b602082015292915050565b600082821c623fffff16621fffff81136127cc5780611fd4565b623fffff19179392505050565b1c6103ff1690565b1c60019081161490565b1c6001600160401b031690565b60008060008061280a600a5486613091565b935093509350935061281e848484846130fa565b5050505050565b60006060600061283484612eb6565b9050600181600381111561284457fe5b141561285e57612854858561311a565b9093509150612869565b61286961015061268a565b509250929050565b600081156128a357600061288f846128898888612231565b906122e5565b905061289b86826119ff565b915050611fd4565b60006128b384610ae1888861314c565b90506128bf868261152c565b9695505050505050565b60006128d88215156004611704565b8183816128e157fe5b049392505050565b60006106628260ea6127b2565b60006106628260b5613178565b600061066282609f6127b2565b600061066282606a613178565b60006106628260546127b2565b600061066282601f613178565b600081612964577f0000000000000000000000000000000000000000000000000000000000000000610662565b507f0000000000000000000000000000000000000000000000000000000000000000919050565b6129a26001600160a01b038316151561019b611704565b6129ae8260008361248a565b6001600160a01b0382166000908152602081905260409020546129d490826101a16126dd565b6001600160a01b0383166000908152602081905260409020556002546129fa90826131ab565b6002556040516000906001600160a01b038416907fddf252ad1be2c89b69c2b068fc378daa952ba7f163c4a11628f55a4df523b3ef90612a3b908590614933565b60405180910390a35050565b600060606000612a5684612eb6565b90506003816003811115612a6657fe5b1415612a765761285485856131b9565b61286961013661268a565b6000612a908215156004611704565b82612a9d57506000610662565b816001840381612aa957fe5b046001019050610662565b600080612ac3868686866131de565b90506128bf816126f3565b600080612add878787876131de565b90506000612af5612aee8784612231565b89906119ff565b90506000612b02826126f3565b9490940398975050505050505050565b600080612b2e85858542612b258b611e59565b93929190613206565b9050607842889003101580612b435786612b4c565b612b4c87613258565b600081815260086020526040902092909255509695505050505050565b60006115178383604b613265565b60006115178383602c613275565b6000612ba7612b9c87670429d069189e000061314c565b851115610130611704565b6000612bc5612bbe85670de0b6b3a7640002612231565b88906119ff565b90506000612bde612bbe85670de0b6b3a763ffff61314c565b9050612bf7612bed83886119ff565b610ae1838961314c565b92505050612c09858210610165611704565b61228b612c1e86670429d069189e000061314c565b821115610131611704565b6000612c39858510610165611704565b612c59612c4e86670429d069189e000061314c565b851115610131611704565b6000612c70612bbe85670de0b6b3a7640002612231565b90506000612c89612bbe85670de0b6b3a763ffff61314c565b9050612ca2612c98828861152c565b6128898489612231565b925061228b9150612cbd905087670429d069189e000061314c565b821115610130611704565b6000808080612ce9612cda8787611ef2565b670de0b6b3a76400009061152c565b93506000612d148689600181518110612cfe57fe5b6020026020010151611ef290919063ffffffff16565b90506000612d3f888a600081518110612d2957fe5b602002602001015161314c90919063ffffffff16565b9050612d4b82826119ff565b9450612d7289600181518110612d5d57fe5b60200260200101518a600081518110612d2957fe5b92505050612da986612da388612da38b600081518110612d8e57fe5b60200260200101518c600081518110612d2957fe5b9061314c565b91506000612de986610ae189612da3670de0b6b3a7640000600202612da38e600181518110612dd457fe5b60200260200101518f600081518110612d2957fe5b90506000612e1f612dfa8880612231565b610ae18b600181518110612e0a57fe5b60200260200101518c600181518110612d2957fe5b9050612e3581612e2f86856119ff565b906119ff565b9350505093509350935093565b600080612e5786671bc16d674ec80000612231565b90506000612e7187612da386673782dace9d90000061314c565b90506000612e7f86836119ff565b90506000612e8e826005613287565b90506000612e9c89836119ff565b9050612ea88186611ef2565b9a9950505050505050505050565b600081806020019051810190610662919061459c565b60608180602001905181019061151791906145e5565b612eee6000838361248a565b600254612efb90826119ff565b6002556001600160a01b038216600090815260208190526040902054612f2190826119ff565b6001600160a01b0383166000818152602081905260408082209390935591519091907fddf252ad1be2c89b69c2b068fc378daa952ba7f163c4a11628f55a4df523b3ef90612a3b908590614933565b600081612f9d577f0000000000000000000000000000000000000000000000000000000000000000610662565b507f0000000000000000000000000000000000000000000000000000000000000000919050565b6000612fd6631c74c91760e11b610c8c565b8214806106625750612fee6350dd6ed960e01b610c8c565b909114919050565b6000613006600083136064611704565b670c7d713b49da0000821380156130245750670f43fc2c04ee000082125b1561304a57670de0b6b3a764000061303b836133fa565b8161304257fe5b059050610bc7565b61305382613518565b9050610bc7565b623fffff828116821b90821b198416179392505050565b6000836130875761308282846138b7565b611fd4565b611fd482846138c3565b6000806000806000806000806130a56138cf565b935093509350935083600014156130ca576000975087965090945092506130f1915050565b6000806130e18c8c6130da61067c565b8989613b3e565b909a509850929650909450505050505b92959194509250565b831561310a5761310a8285612480565b82156108f1576108f18184612480565b60006060600061312984613bd3565b9050606061313f868361313a61067c565b613be9565b9196919550909350505050565b6000828202613166841580611eeb575083858381611ee857fe5b670de0b6b3a764000090049392505050565b600082821c661fffffffffffff16660fffffffffffff811361319a5780611fd4565b661fffffffffffff19179392505050565b6000611517838360016126dd565b6000606060006131c884613bd3565b9050606061313f86836131d961067c565b613c6e565b60006706f05b59d3b200006128bf6131fa8261288987876119ff565b61288983818a8a6119ff565b600080613212876118ed565b830390506000818702613224896128f6565b01905060008287026132358a612910565b01905060008387026132468b61292a565b019050612ea889848a858b868c61188d565b6000610662826001613d09565b6103ff811b1992909216911b1790565b637fffffff811b1992909216911b1790565b60008261329657506000610662565b60006132a184613d11565b9050600281670de0b6b3a76400008602816132b857fe5b048201816132c257fe5b049050600281670de0b6b3a76400008602816132da57fe5b048201816132e457fe5b049050600281670de0b6b3a76400008602816132fc57fe5b0482018161330657fe5b049050600281670de0b6b3a764000086028161331e57fe5b0482018161332857fe5b049050600281670de0b6b3a764000086028161334057fe5b0482018161334a57fe5b049050600281670de0b6b3a764000086028161336257fe5b0482018161336c57fe5b049050600281670de0b6b3a764000086028161338457fe5b0482018161338e57fe5b049050600061339d828061314c565b90506133b36133ac8386612231565b86906119ff565b81111580156133d557506133d16133ca8386612231565b869061152c565b8110155b6110795760405162461bcd60e51b81526004016133f190614b0e565b60405180910390fd5b670de0b6b3a7640000026000806a0c097ce7bc90715b34b9f160241b808401906ec097ce7bc90715b34b9f0fffffffff198501028161343557fe5b05905060006a0c097ce7bc90715b34b9f160241b82800205905081806a0c097ce7bc90715b34b9f160241b81840205915060038205016a0c097ce7bc90715b34b9f160241b82840205915060058205016a0c097ce7bc90715b34b9f160241b82840205915060078205016a0c097ce7bc90715b34b9f160241b82840205915060098205016a0c097ce7bc90715b34b9f160241b828402059150600b8205016a0c097ce7bc90715b34b9f160241b828402059150600d8205016a0c097ce7bc90715b34b9f160241b828402059150600f826002919005919091010295945050505050565b6000670de0b6b3a76400008212156135545761354a826a0c097ce7bc90715b34b9f160241b8161354457fe5b05613518565b6000039050610bc7565b60007e1600ef3172e58d2e933ec884fde10064c63b5372d805e203c000000000000083126135a557770195e54c5dd42177f53a27172fa9ec630262827000000000830592506806f05b59d3b2000000015b73011798004d755d3c8bc8e03204cf44619e00000083126135dd576b1425982cf597cd205cef7380830592506803782dace9d9000000015b606492830292026e01855144814a7ff805980ff00840008312613625576e01855144814a7ff805980ff008400068056bc75e2d63100000840205925068ad78ebc5ac62000000015b6b02df0ab5a80a22c61ab5a7008312613660576b02df0ab5a80a22c61ab5a70068056bc75e2d6310000084020592506856bc75e2d631000000015b693f1fce3da636ea5cf850831261369757693f1fce3da636ea5cf85068056bc75e2d631000008402059250682b5e3af16b18800000015b690127fa27722cc06cc5e283126136ce57690127fa27722cc06cc5e268056bc75e2d6310000084020592506815af1d78b58c400000015b68280e60114edb805d0383126137035768280e60114edb805d0368056bc75e2d631000008402059250680ad78ebc5ac6200000015b680ebc5fb41746121110831261372e57680ebc5fb4174612111068056bc75e2d631000009384020592015b6808f00f760a4b2db55d8312613763576808f00f760a4b2db55d68056bc75e2d6310000084020592506802b5e3af16b1880000015b6806f5f17757889379378312613798576806f5f177578893793768056bc75e2d63100000840205925068015af1d78b58c40000015b6806248f33704b28660383126137cc576806248f33704b28660368056bc75e2d63100000840205925067ad78ebc5ac620000015b6805c548670b9510e7ac8312613800576805c548670b9510e7ac68056bc75e2d6310000084020592506756bc75e2d6310000015b600068056bc75e2d63100000840168056bc75e2d63100000808603028161382357fe5b059050600068056bc75e2d63100000828002059050818068056bc75e2d63100000818402059150600382050168056bc75e2d63100000828402059150600582050168056bc75e2d63100000828402059150600782050168056bc75e2d63100000828402059150600982050168056bc75e2d63100000828402059150600b820501600202606485820105979650505050505050565b6000611517838361314c565b60006115178383611ef2565b600b5460405163bd02d0f560e01b81526000918291829182916001600160a01b039091169063bd02d0f590613921907550524f544f434f4c5f535741505f4645455f5045524360501b90600401614933565b60206040518083038186803b15801561393957600080fd5b505afa15801561394d573d6000803e3d6000fd5b505050506040513d601f19601f82011682018060405250810190613971919061464e565b600b5460405163bd02d0f560e01b81526001600160a01b039091169063bd02d0f5906139c1907f50524f544f434f4c5f4645455f4759524f5f504f5254494f4e0000000000000090600401614933565b60206040518083038186803b1580156139d957600080fd5b505afa1580156139ed573d6000803e3d6000fd5b505050506040513d601f19601f82011682018060405250810190613a11919061464e565b600b546040516321f8a72160e01b81526001600160a01b03909116906321f8a72190613a51906c4759524f5f545245415355525960981b90600401614933565b60206040518083038186803b158015613a6957600080fd5b505afa158015613a7d573d6000803e3d6000fd5b505050506040513d601f19601f82011682018060405250810190613aa191906140c9565b600b546040516321f8a72160e01b81526001600160a01b03909116906321f8a72190613ae0906b42414c5f545245415355525960a01b90600401614933565b60206040518083038186803b158015613af857600080fd5b505afa158015613b0c573d6000803e3d6000fd5b505050506040513d601f19601f82011682018060405250810190613b3091906140c9565b935093509350935090919293565b600080868611613b5357506000905080613bc9565b6000613b6d85612da3613b668a8c61152c565b899061314c565b90506000613b85613b7e898b61152c565b879061314c565b90506000613b93898361152c565b90506000613ba18483611ef2565b90506000613baf888361314c565b90506000613bbd838361152c565b91975090955050505050505b9550959350505050565b60008180602001905181019061151791906145b8565b606083516001600160401b0381118015613c0257600080fd5b50604051908082528060200260200182016040528015613c2c578160200160208202803683370190505b50905060005b845181101561107957613c4f83610ae186888581518110612d2957fe5b828281518110613c5b57fe5b6020908102919091010152600101613c32565b606083516001600160401b0381118015613c8757600080fd5b50604051908082528060200260200182016040528015613cb1578160200160208202803683370190505b50905060005b845181101561107957613cea8361288986888581518110613cd457fe5b602002602001015161223190919063ffffffff16565b828281518110613cf657fe5b6020908102919091010152600101613cb7565b016103ff1690565b6000670de0b6b3a76400008210613d3e57670de0b6b3a7640000613d36818404613ee3565b1b9050610bc7565b600a8211613d51575063bc7c871c610bc7565b60648211613d6557506402540be400610bc7565b6103e88211613d7a575064075cdd4719610bc7565b6127108211613d8f575064174876e800610bc7565b620186a08211613da557506449a0a4c700610bc7565b620f42408211613dbb575064e8d4a51000610bc7565b629896808211613dd257506502e0466fc608610bc7565b6305f5e1008211613dea57506509184e72a000610bc7565b633b9aca008211613e025750651cc2c05dbc53610bc7565b6402540be4008211613e1b5750655af3107a4000610bc7565b64174876e8008211613e35575066011f9b83a95b45610bc7565b64e8d4a510008211613e4f575066038d7ea4c68000610bc7565b6509184e72a0008211613e6a5750660b3c13249d90bb610bc7565b655af3107a40008211613e855750662386f26fc10000610bc7565b66038d7ea4c680008211613ea15750667058bf6e27a751610bc7565b662386f26fc100008211613ebe575067016345785d8a0000610bc7565b67016345785d8a00008211613edc5750670463777a4d8c892d610bc7565b5080610bc7565b6000600160801b8210613efb5760809190911c906040015b680100000000000000008210613f165760409190911c906020015b6401000000008210613f2d5760209190911c906010015b620100008210613f425760109190911c906008015b6101008210613f565760089190911c906004015b60108210613f695760049190911c906002015b60048210610bc757600101919050565b604080518082019091526000808252602082015290565b60405180604001604052806002906020820280368337509192915050565b803561066281614bc0565b600082601f830112613fc9578081fd5b8151613fdc613fd782614b97565b614b71565b818152915060208083019084810181840286018201871015613ffd57600080fd5b60005b8481101561401c57815184529282019290820190600101614000565b505050505092915050565b600082601f830112614037578081fd5b81356001600160401b0381111561404c578182fd5b61405f601f8201601f1916602001614b71565b915080825283602082850101111561407657600080fd5b8060208401602084013760009082016020015292915050565b80356002811061066257600080fd5b80356003811061066257600080fd5b6000602082840312156140be578081fd5b813561151781614bc0565b6000602082840312156140da578081fd5b815161151781614bc0565b600080604083850312156140f7578081fd5b823561410281614bc0565b9150602083013561411281614bc0565b809150509250929050565b600080600060608486031215614131578081fd5b833561413c81614bc0565b9250602084013561414c81614bc0565b929592945050506040919091013590565b600080600080600080600060e0888a031215614177578485fd5b873561418281614bc0565b9650602088013561419281614bc0565b95506040880135945060608801359350608088013560ff811681146141b5578384fd5b9699959850939692959460a0840135945060c09093013592915050565b600080604083850312156141e4578182fd5b82356141ef81614bc0565b946020939093013593505050565b600080600060608486031215614211578081fd5b83516001600160401b0380821115614227578283fd5b818601915086601f83011261423a578283fd5b8151614248613fd782614b97565b80828252602080830192508086018b828387028901011115614268578788fd5b8796505b8487101561429357805161427f81614bc0565b84526001969096019592810192810161426c565b5089015190975093505050808211156142aa578283fd5b506142b786828701613fb9565b925050604084015190509250925092565b600060208083850312156142da578182fd5b82356001600160401b038111156142ef578283fd5b8301601f810185136142ff578283fd5b803561430d613fd782614b97565b818152838101908385016040808502860187018a101561432b578788fd5b8795505b848610156143785780828b031215614345578788fd5b61434e81614b71565b6143588b8461409e565b81528288013588820152845260019590950194928601929081019061432f565b509098975050505050505050565b60006020808385031215614398578182fd5b82356001600160401b038111156143ad578283fd5b8301601f810185136143bd578283fd5b80356143cb613fd782614b97565b818152838101908385016060808502860187018a10156143e9578788fd5b8795505b848610156143785780828b031215614403578788fd5b61440c81614b71565b6144168b8461409e565b815282880135888201526040808401359082015284526001959095019492860192908101906143ed565b600060208284031215614451578081fd5b813561151781614bd5565b60006020828403121561446d578081fd5b815161151781614bd5565b600080600080600080600060e0888a031215614492578081fd5b873596506020808901356144a581614bc0565b965060408901356144b581614bc0565b955060608901356001600160401b03808211156144d0578384fd5b818b0191508b601f8301126144e3578384fd5b81356144f1613fd782614b97565b8082825285820191508585018f87888602880101111561450f578788fd5b8795505b83861015614531578035835260019590950194918601918601614513565b509850505060808b0135955060a08b0135945060c08b0135925080831115614557578384fd5b50506145658a828b01614027565b91505092959891949750929550565b600060208284031215614585578081fd5b81356001600160e01b031981168114611517578182fd5b6000602082840312156145ad578081fd5b815161151781614be3565b600080604083850312156145ca578182fd5b82516145d581614be3565b6020939093015192949293505050565b600080604083850312156145f7578182fd5b825161460281614be3565b60208401519092506001600160401b0381111561461d578182fd5b61462985828601613fb9565b9150509250929050565b600060208284031215614644578081fd5b611517838361409e565b60006020828403121561465f578081fd5b5051919050565b60008060006060848603121561467a578081fd5b83356001600160401b0380821115614690578283fd5b81860191506101208083890312156146a6578384fd5b6146af81614b71565b90506146bb888461408f565b81526146ca8860208501613fae565b60208201526146dc8860408501613fae565b6040820152606083013560608201526080830135608082015260a083013560a082015261470c8860c08501613fae565b60c082015261471e8860e08501613fae565b60e08201526101008084013583811115614736578586fd5b6147428a828701614027565b9183019190915250976020870135975060409096013595945050505050565b600060208284031215614772578081fd5b5035919050565b6000806040838503121561478b578182fd5b50508035926020909101359150565b6000806000606084860312156147ae578081fd5b833592506020840135915060408401356147c781614bd5565b809150509250925092565b6000815180845260208085019450808401835b83811015614801578151875295820195908201906001016147e5565b509495945050505050565b9182526001600160e01b031916602082015260240190565b6000828483379101908152919050565b61190160f01b81526002810192909252602282015260420190565b6001600160a01b0391909116815260200190565b6020808252825182820181905260009190848201906040850190845b8181101561489b5783518352928401929184019160010161487f565b50909695505050505050565b60408101818360005b60028110156148cf5781518352602092830192909101906001016148b0565b50505092915050565b60006020825261151760208301846147d2565b6000604082526148fe60408301856147d2565b828103602084015261228b81856147d2565b901515815260200190565b92151583526020830191909152604082015260600190565b90815260200190565b9283526001600160a01b03918216602084015216604082015260600190565b9586526001600160a01b0394851660208701529290931660408501526060840152608083019190915260a082015260c00190565b9485526020850193909352604084019190915260608301526001600160a01b0316608082015260a00190565b93845260ff9290921660208401526040830152606082015260800190565b968752602087019590955260408601939093526060850191909152608084015260a083015260c082015260e00190565b9586526020860194909452604085019290925260608401521515608083015260a082015260c00190565b83815260608101614a4384614bb6565b602082019390935260400152919050565b84815260808101614a6485614bb6565b84602083015283604083015282606083015295945050505050565b838152825160a0820190614a9281614bb6565b806020840152506020840151604083015260408401516060830152826080830152949350505050565b6000602080835283518082850152825b81811015614ae757858101830151858201604001528201614acb565b81811115614af85783604083870101525b50601f01601f1916929092016040019392505050565b6020808252600c908201526b17dcdc5c9d0811905253115160a21b604082015260600190565b600083825260406020830152611fd460408301846147d2565b9283526020830191909152604082015260600190565b60ff91909116815260200190565b6040518181016001600160401b0381118282101715614b8f57600080fd5b604052919050565b60006001600160401b03821115614bac578081fd5b5060209081020190565b6003811061067957fe5b6001600160a01b038116811461067957600080fd5b801515811461067957600080fd5b6004811061067957600080fdfea2646970667358221220caed5c61c26ec06a87f86ddc8afed6a0cfb5de4847936f1f42074e82ba4ae01364736f6c63430007010033","bytecodeSha1":"6c4bd779e45ea49aa8d992f4cdeea5ff83cb5729","compiler":{"evm_version":"istanbul","optimizer":{"enabled":true,"runs":200},"version":"0.7.1+commit.f4a555be"},"contractName":"GyroTwoPoolFactory","language":"Solidity","natspec":{"kind":"dev","methods":{"create(string,string,address[],uint256[],uint256,bool,address)":{"details":"Deploys a new `GyroTwoPool`."},"getCreationCode()":{"details":"Returns the creation code of the contract this factory creates."},"getCreationCodeContracts()":{"details":"Returns the two addresses where the creation code of the contract crated by this factory is stored."},"getPauseConfiguration()":{"details":"Returns the current `TemporarilyPausable` configuration that will be applied to Pools created by this factory. `pauseWindowDuration` will decrease over time until it reaches zero, at which point both it and `bufferPeriodDuration` will be zero forever, meaning deployed Pools will not be pausable."},"getVault()":{"details":"Returns the Vault's address."},"isPoolFromFactory(address)":{"details":"Returns true if `pool` was created by this factory."}},"version":1},"opcodes":"PUSH1 0x80 PUSH1 0x40 MSTORE CALLVALUE DUP1 ISZERO PUSH2 0x10 JUMPI PUSH1 0x0 DUP1 REVERT JUMPDEST POP PUSH1 0x4 CALLDATASIZE LT PUSH2 0x7C JUMPI PUSH1 0x0 CALLDATALOAD PUSH1 0xE0 SHR DUP1 PUSH4 0x174481FA GT PUSH2 0x5B JUMPI DUP1 PUSH4 0x174481FA EQ PUSH2 0xC7 JUMPI DUP1 PUSH4 0x2DA47C40 EQ PUSH2 0xDD JUMPI DUP1 PUSH4 0x6634B753 EQ PUSH2 0xF3 JUMPI DUP1 PUSH4 0x8D928AF8 EQ PUSH2 0x113 JUMPI PUSH2 0x7C JUMP JUMPDEST DUP1 PUSH3 0xC194DB EQ PUSH2 0x81 JUMPI DUP1 PUSH4 0xBC7B4C4 EQ PUSH2 0x9F JUMPI DUP1 PUSH4 0x1596019B EQ PUSH2 0xB4 JUMPI JUMPDEST PUSH1 0x0 DUP1 REVERT JUMPDEST PUSH2 0x89 PUSH2 0x11B JUMP JUMPDEST PUSH1 0x40 MLOAD PUSH2 0x96 SWAP2 SWAP1 PUSH2 0x98C JUMP JUMPDEST PUSH1 0x40 MLOAD DUP1 SWAP2 SUB SWAP1 RETURN JUMPDEST PUSH2 0xA7 PUSH2 0x13A JUMP JUMPDEST PUSH1 0x40 MLOAD PUSH2 0x96 SWAP2 SWAP1 PUSH2 0x953 JUMP JUMPDEST PUSH2 0xA7 PUSH2 0xC2 CALLDATASIZE PUSH1 0x4 PUSH2 0x820 JUMP JUMPDEST PUSH2 0x15E JUMP JUMPDEST PUSH2 0xCF PUSH2 0x2AA JUMP JUMPDEST PUSH1 0x40 MLOAD PUSH2 0x96 SWAP3 SWAP2 SWAP1 PUSH2 0x967 JUMP JUMPDEST PUSH2 0xE5 PUSH2 0x2F0 JUMP JUMPDEST PUSH1 0x40 MLOAD PUSH2 0x96 SWAP3 SWAP2 SWAP1 PUSH2 0xA93 JUMP JUMPDEST PUSH2 0x106 PUSH2 0x101 CALLDATASIZE PUSH1 0x4 PUSH2 0x804 JUMP JUMPDEST PUSH2 0x35A JUMP JUMPDEST PUSH1 0x40 MLOAD PUSH2 0x96 SWAP2 SWAP1 PUSH2 0x981 JUMP JUMPDEST PUSH2 0xA7 PUSH2 0x378 JUMP JUMPDEST PUSH1 0x60 PUSH2 0x135 PUSH1 0x40 MLOAD DUP1 PUSH1 0x20 ADD PUSH1 0x40 MSTORE DUP1 PUSH1 0x0 DUP2 MSTORE POP PUSH2 0x3EE JUMP JUMPDEST SWAP1 POP SWAP1 JUMP JUMPDEST PUSH32 0x0 DUP2 JUMP JUMPDEST PUSH1 0x0 DUP1 PUSH1 0x0 PUSH2 0x16B PUSH2 0x2F0 JUMP JUMPDEST SWAP2 POP SWAP2 POP PUSH2 0x177 PUSH2 0x605 JUMP JUMPDEST PUSH1 0x40 DUP1 MLOAD PUSH2 0x1A0 DUP2 ADD SWAP1 SWAP2 MSTORE DUP1 PUSH1 0x60 DUP2 ADD DUP1 PUSH2 0x191 PUSH2 0x378 JUMP JUMPDEST PUSH1 0x1 PUSH1 0x1 PUSH1 0xA0 SHL SUB AND DUP2 MSTORE PUSH1 0x20 ADD DUP15 DUP2 MSTORE PUSH1 0x20 ADD DUP14 DUP2 MSTORE PUSH1 0x20 ADD DUP13 PUSH1 0x0 DUP2 MLOAD DUP2 LT PUSH2 0x1B8 JUMPI INVALID JUMPDEST PUSH1 0x20 MUL PUSH1 0x20 ADD ADD MLOAD PUSH1 0x1 PUSH1 0x1 PUSH1 0xA0 SHL SUB AND DUP2 MSTORE PUSH1 0x20 ADD DUP13 PUSH1 0x1 DUP2 MLOAD DUP2 LT PUSH2 0x1DB JUMPI INVALID JUMPDEST PUSH1 0x20 MUL PUSH1 0x20 ADD ADD MLOAD PUSH1 0x1 PUSH1 0x1 PUSH1 0xA0 SHL SUB AND DUP2 MSTORE PUSH1 0x20 ADD DUP11 DUP2 MSTORE PUSH1 0x20 ADD DUP7 DUP2 MSTORE PUSH1 0x20 ADD DUP6 DUP2 MSTORE PUSH1 0x20 ADD DUP10 ISZERO ISZERO DUP2 MSTORE PUSH1 0x20 ADD DUP9 PUSH1 0x1 PUSH1 0x1 PUSH1 0xA0 SHL SUB AND DUP2 MSTORE POP DUP2 MSTORE PUSH1 0x20 ADD DUP10 PUSH1 0x0 DUP2 MLOAD DUP2 LT PUSH2 0x22A JUMPI INVALID JUMPDEST PUSH1 0x20 MUL PUSH1 0x20 ADD ADD MLOAD DUP2 MSTORE PUSH1 0x20 ADD DUP10 PUSH1 0x1 DUP2 MLOAD DUP2 LT PUSH2 0x244 JUMPI INVALID JUMPDEST PUSH1 0x20 MUL PUSH1 0x20 ADD ADD MLOAD DUP2 MSTORE POP SWAP1 POP PUSH2 0x29B DUP2 PUSH32 0x0 PUSH1 0x40 MLOAD PUSH1 0x20 ADD PUSH2 0x287 SWAP3 SWAP2 SWAP1 PUSH2 0x99F JUMP JUMPDEST PUSH1 0x40 MLOAD PUSH1 0x20 DUP2 DUP4 SUB SUB DUP2 MSTORE SWAP1 PUSH1 0x40 MSTORE PUSH2 0x4C7 JUMP JUMPDEST SWAP12 SWAP11 POP POP POP POP POP POP POP POP POP POP POP JUMP JUMPDEST PUSH32 0x0 PUSH32 0x0 SWAP1 SWAP2 JUMP JUMPDEST PUSH1 0x0 DUP1 TIMESTAMP PUSH32 0x0 DUP2 LT ISZERO PUSH2 0x34C JUMPI DUP1 PUSH32 0x0 SUB SWAP3 POP PUSH3 0x278D00 SWAP2 POP PUSH2 0x355 JUMP JUMPDEST PUSH1 0x0 SWAP3 POP PUSH1 0x0 SWAP2 POP JUMPDEST POP SWAP1 SWAP2 JUMP JUMPDEST PUSH1 0x1 PUSH1 0x1 PUSH1 0xA0 SHL SUB AND PUSH1 0x0 SWAP1 DUP2 MSTORE PUSH1 0x20 DUP2 SWAP1 MSTORE PUSH1 0x40 SWAP1 KECCAK256 SLOAD PUSH1 0xFF AND SWAP1 JUMP JUMPDEST PUSH32 0x0 SWAP1 JUMP JUMPDEST DUP1 MLOAD PUSH32 0x602038038060206000396000F3FEFEFEFEFEFEFEFEFEFEFEFEFEFEFEFEFEFEFE DUP1 DUP4 MSTORE PUSH1 0x0 SWAP2 PUSH1 0x20 DUP2 ADD DUP5 DUP5 CREATE SWAP1 DUP5 MSTORE SWAP2 POP PUSH2 0x3E8 PUSH1 0x1 PUSH1 0x1 PUSH1 0xA0 SHL SUB DUP4 AND ISZERO ISZERO PUSH2 0x1AC PUSH2 0x527 JUMP JUMPDEST POP SWAP2 SWAP1 POP JUMP JUMPDEST DUP1 MLOAD PUSH1 0x40 DUP1 MLOAD PUSH32 0x0 PUSH32 0x0 DUP2 DUP2 ADD DUP6 DUP2 ADD DUP5 DUP2 ADD PUSH1 0x20 SWAP1 DUP2 ADD SWAP1 SWAP7 MSTORE DUP1 DUP6 MSTORE SWAP4 SWAP6 PUSH32 0x0 SWAP6 SWAP3 SWAP5 PUSH32 0x0 SWAP5 SWAP4 DUP9 ADD DUP7 PUSH1 0x0 DUP3 DUP11 EXTCODECOPY DUP5 PUSH1 0x0 DUP9 DUP4 ADD DUP9 EXTCODECOPY POP PUSH1 0x20 DUP10 DUP2 ADD SWAP1 DUP10 DUP6 ADD ADD PUSH2 0x4B9 DUP2 DUP4 DUP7 PUSH2 0x539 JUMP JUMPDEST POP POP POP POP POP POP POP POP POP SWAP2 SWAP1 POP JUMP JUMPDEST PUSH1 0x0 DUP1 PUSH2 0x4D3 DUP4 PUSH2 0x577 JUMP JUMPDEST PUSH1 0x1 PUSH1 0x1 PUSH1 0xA0 SHL SUB DUP2 AND PUSH1 0x0 DUP2 DUP2 MSTORE PUSH1 0x20 DUP2 SWAP1 MSTORE PUSH1 0x40 DUP1 DUP3 KECCAK256 DUP1 SLOAD PUSH1 0xFF NOT AND PUSH1 0x1 OR SWAP1 SSTORE MLOAD SWAP3 SWAP4 POP SWAP1 SWAP2 PUSH32 0x83A48FBCFC991335314E74D0496AAB6A1987E992DDC85DDDBCC4D6DD6EF2E9FC SWAP2 SWAP1 LOG2 SWAP3 SWAP2 POP POP JUMP JUMPDEST DUP2 PUSH2 0x535 JUMPI PUSH2 0x535 DUP2 PUSH2 0x5B2 JUMP JUMPDEST POP POP JUMP JUMPDEST JUMPDEST PUSH1 0x20 DUP2 LT PUSH2 0x559 JUMPI DUP2 MLOAD DUP4 MSTORE PUSH1 0x20 SWAP3 DUP4 ADD SWAP3 SWAP1 SWAP2 ADD SWAP1 PUSH1 0x1F NOT ADD PUSH2 0x53A JUMP JUMPDEST SWAP1 MLOAD DUP3 MLOAD PUSH1 0x20 SWAP3 SWAP1 SWAP3 SUB PUSH2 0x100 EXP PUSH1 0x0 NOT ADD DUP1 NOT SWAP1 SWAP2 AND SWAP2 AND OR SWAP1 MSTORE JUMP JUMPDEST PUSH1 0x0 PUSH1 0x60 PUSH2 0x584 DUP4 PUSH2 0x3EE JUMP JUMPDEST SWAP1 POP PUSH1 0x0 DUP2 MLOAD PUSH1 0x20 DUP4 ADD PUSH1 0x0 CREATE SWAP1 POP PUSH1 0x1 PUSH1 0x1 PUSH1 0xA0 SHL SUB DUP2 AND PUSH2 0x5AB JUMPI RETURNDATASIZE PUSH1 0x0 DUP1 RETURNDATACOPY RETURNDATASIZE PUSH1 0x0 REVERT JUMPDEST SWAP4 SWAP3 POP POP POP JUMP JUMPDEST PUSH3 0x461BCD PUSH1 0xE5 SHL PUSH1 0x0 SWAP1 DUP2 MSTORE PUSH1 0x20 PUSH1 0x4 MSTORE PUSH1 0x7 PUSH1 0x24 MSTORE PUSH7 0x42414C23000030 PUSH1 0xA DUP1 DUP5 DIV DUP2 DUP2 MOD PUSH1 0x30 SWAP1 DUP2 ADD PUSH1 0x8 SHL SWAP6 DUP4 SWAP1 MOD SWAP6 SWAP1 SWAP6 ADD SWAP1 DUP3 SWAP1 DIV SWAP2 DUP3 MOD SWAP1 SWAP5 ADD PUSH1 0x10 SHL SWAP4 SWAP1 SWAP4 ADD ADD PUSH1 0xC8 SHL PUSH1 0x44 MSTORE PUSH1 0x64 SWAP1 REVERT JUMPDEST PUSH1 0x40 MLOAD DUP1 PUSH1 0x60 ADD PUSH1 0x40 MSTORE DUP1 PUSH2 0x618 PUSH2 0x62C JUMP JUMPDEST DUP2 MSTORE PUSH1 0x20 ADD PUSH1 0x0 DUP2 MSTORE PUSH1 0x20 ADD PUSH1 0x0 DUP2 MSTORE POP SWAP1 JUMP JUMPDEST PUSH1 0x40 MLOAD DUP1 PUSH2 0x140 ADD PUSH1 0x40 MSTORE DUP1 PUSH1 0x0 PUSH1 0x1 PUSH1 0x1 PUSH1 0xA0 SHL SUB AND DUP2 MSTORE PUSH1 0x20 ADD PUSH1 0x60 DUP2 MSTORE PUSH1 0x20 ADD PUSH1 0x60 DUP2 MSTORE PUSH1 0x20 ADD PUSH1 0x0 PUSH1 0x1 PUSH1 0x1 PUSH1 0xA0 SHL SUB AND DUP2 MSTORE PUSH1 0x20 ADD PUSH1 0x0 PUSH1 0x1 PUSH1 0x1 PUSH1 0xA0 SHL SUB AND DUP2 MSTORE PUSH1 0x20 ADD PUSH1 0x0 DUP2 MSTORE PUSH1 0x20 ADD PUSH1 0x0 DUP2 MSTORE PUSH1 0x20 ADD PUSH1 0x0 DUP2 MSTORE PUSH1 0x20 ADD PUSH1 0x0 ISZERO ISZERO DUP2 MSTORE PUSH1 0x20 ADD PUSH1 0x0 PUSH1 0x1 PUSH1 0x1 PUSH1 0xA0 SHL SUB AND DUP2 MSTORE POP SWAP1 JUMP JUMPDEST DUP1 CALLDATALOAD PUSH2 0x6B0 DUP2 PUSH2 0xAE8 JUMP JUMPDEST SWAP3 SWAP2 POP POP JUMP JUMPDEST PUSH1 0x0 DUP3 PUSH1 0x1F DUP4 ADD SLT PUSH2 0x6C6 JUMPI DUP1 DUP2 REVERT JUMPDEST DUP2 CALLDATALOAD PUSH2 0x6D9 PUSH2 0x6D4 DUP3 PUSH2 0xAC8 JUMP JUMPDEST PUSH2 0xAA1 JUMP JUMPDEST DUP2 DUP2 MSTORE SWAP2 POP PUSH1 0x20 DUP1 DUP4 ADD SWAP1 DUP5 DUP2 ADD DUP2 DUP5 MUL DUP7 ADD DUP3 ADD DUP8 LT ISZERO PUSH2 0x6FA JUMPI PUSH1 0x0 DUP1 REVERT JUMPDEST PUSH1 0x0 JUMPDEST DUP5 DUP2 LT ISZERO PUSH2 0x722 JUMPI DUP2 CALLDATALOAD PUSH2 0x710 DUP2 PUSH2 0xAE8 JUMP JUMPDEST DUP5 MSTORE SWAP3 DUP3 ADD SWAP3 SWAP1 DUP3 ADD SWAP1 PUSH1 0x1 ADD PUSH2 0x6FD JUMP JUMPDEST POP POP POP POP POP SWAP3 SWAP2 POP POP JUMP JUMPDEST PUSH1 0x0 DUP3 PUSH1 0x1F DUP4 ADD SLT PUSH2 0x73D JUMPI DUP1 DUP2 REVERT JUMPDEST DUP2 CALLDATALOAD PUSH2 0x74B PUSH2 0x6D4 DUP3 PUSH2 0xAC8 JUMP JUMPDEST DUP2 DUP2 MSTORE SWAP2 POP PUSH1 0x20 DUP1 DUP4 ADD SWAP1 DUP5 DUP2 ADD DUP2 DUP5 MUL DUP7 ADD DUP3 ADD DUP8 LT ISZERO PUSH2 0x76C JUMPI PUSH1 0x0 DUP1 REVERT JUMPDEST PUSH1 0x0 JUMPDEST DUP5 DUP2 LT ISZERO PUSH2 0x722 JUMPI DUP2 CALLDATALOAD DUP5 MSTORE SWAP3 DUP3 ADD SWAP3 SWAP1 DUP3 ADD SWAP1 PUSH1 0x1 ADD PUSH2 0x76F JUMP JUMPDEST DUP1 CALLDATALOAD DUP1 ISZERO ISZERO DUP2 EQ PUSH2 0x6B0 JUMPI PUSH1 0x0 DUP1 REVERT JUMPDEST PUSH1 0x0 DUP3 PUSH1 0x1F DUP4 ADD SLT PUSH2 0x7AB JUMPI DUP1 DUP2 REVERT JUMPDEST DUP2 CALLDATALOAD PUSH8 0xFFFFFFFFFFFFFFFF DUP2 GT ISZERO PUSH2 0x7C1 JUMPI DUP2 DUP3 REVERT JUMPDEST PUSH2 0x7D4 PUSH1 0x1F DUP3 ADD PUSH1 0x1F NOT AND PUSH1 0x20 ADD PUSH2 0xAA1 JUMP JUMPDEST SWAP2 POP DUP1 DUP3 MSTORE DUP4 PUSH1 0x20 DUP3 DUP6 ADD ADD GT ISZERO PUSH2 0x7EB JUMPI PUSH1 0x0 DUP1 REVERT JUMPDEST DUP1 PUSH1 0x20 DUP5 ADD PUSH1 0x20 DUP5 ADD CALLDATACOPY PUSH1 0x0 SWAP1 DUP3 ADD PUSH1 0x20 ADD MSTORE SWAP3 SWAP2 POP POP JUMP JUMPDEST PUSH1 0x0 PUSH1 0x20 DUP3 DUP5 SUB SLT ISZERO PUSH2 0x815 JUMPI DUP1 DUP2 REVERT JUMPDEST DUP2 CALLDATALOAD PUSH2 0x5AB DUP2 PUSH2 0xAE8 JUMP JUMPDEST PUSH1 0x0 DUP1 PUSH1 0x0 DUP1 PUSH1 0x0 DUP1 PUSH1 0x0 PUSH1 0xE0 DUP9 DUP11 SUB SLT ISZERO PUSH2 0x83A JUMPI DUP3 DUP4 REVERT JUMPDEST DUP8 CALLDATALOAD PUSH8 0xFFFFFFFFFFFFFFFF DUP1 DUP3 GT ISZERO PUSH2 0x851 JUMPI DUP5 DUP6 REVERT JUMPDEST PUSH2 0x85D DUP12 DUP4 DUP13 ADD PUSH2 0x79B JUMP JUMPDEST SWAP9 POP PUSH1 0x20 DUP11 ADD CALLDATALOAD SWAP2 POP DUP1 DUP3 GT ISZERO PUSH2 0x872 JUMPI DUP5 DUP6 REVERT JUMPDEST PUSH2 0x87E DUP12 DUP4 DUP13 ADD PUSH2 0x79B JUMP JUMPDEST SWAP8 POP PUSH1 0x40 DUP11 ADD CALLDATALOAD SWAP2 POP DUP1 DUP3 GT ISZERO PUSH2 0x893 JUMPI DUP5 DUP6 REVERT JUMPDEST PUSH2 0x89F DUP12 DUP4 DUP13 ADD PUSH2 0x6B6 JUMP JUMPDEST SWAP7 POP PUSH1 0x60 DUP11 ADD CALLDATALOAD SWAP2 POP DUP1 DUP3 GT ISZERO PUSH2 0x8B4 JUMPI DUP5 DUP6 REVERT JUMPDEST POP PUSH2 0x8C1 DUP11 DUP3 DUP12 ADD PUSH2 0x72D JUMP JUMPDEST SWAP5 POP POP PUSH1 0x80 DUP9 ADD CALLDATALOAD SWAP3 POP PUSH2 0x8D8 DUP10 PUSH1 0xA0 DUP11 ADD PUSH2 0x78B JUMP JUMPDEST SWAP2 POP PUSH2 0x8E7 DUP10 PUSH1 0xC0 DUP11 ADD PUSH2 0x6A5 JUMP JUMPDEST SWAP1 POP SWAP3 SWAP6 SWAP9 SWAP2 SWAP5 SWAP8 POP SWAP3 SWAP6 POP JUMP JUMPDEST PUSH1 0x1 PUSH1 0x1 PUSH1 0xA0 SHL SUB AND SWAP1 MSTORE JUMP JUMPDEST ISZERO ISZERO SWAP1 MSTORE JUMP JUMPDEST PUSH1 0x0 DUP2 MLOAD DUP1 DUP5 MSTORE DUP2 JUMPDEST DUP2 DUP2 LT ISZERO PUSH2 0x92D JUMPI PUSH1 0x20 DUP2 DUP6 ADD DUP2 ADD MLOAD DUP7 DUP4 ADD DUP3 ADD MSTORE ADD PUSH2 0x911 JUMP JUMPDEST DUP2 DUP2 GT ISZERO PUSH2 0x93E JUMPI DUP3 PUSH1 0x20 DUP4 DUP8 ADD ADD MSTORE JUMPDEST POP PUSH1 0x1F ADD PUSH1 0x1F NOT AND SWAP3 SWAP1 SWAP3 ADD PUSH1 0x20 ADD SWAP3 SWAP2 POP POP JUMP JUMPDEST PUSH1 0x1 PUSH1 0x1 PUSH1 0xA0 SHL SUB SWAP2 SWAP1 SWAP2 AND DUP2 MSTORE PUSH1 0x20 ADD SWAP1 JUMP JUMPDEST PUSH1 0x1 PUSH1 0x1 PUSH1 0xA0 SHL SUB SWAP3 DUP4 AND DUP2 MSTORE SWAP2 AND PUSH1 0x20 DUP3 ADD MSTORE PUSH1 0x40 ADD SWAP1 JUMP JUMPDEST SWAP1 ISZERO ISZERO DUP2 MSTORE PUSH1 0x20 ADD SWAP1 JUMP JUMPDEST PUSH1 0x0 PUSH1 0x20 DUP3 MSTORE PUSH2 0x5AB PUSH1 0x20 DUP4 ADD DUP5 PUSH2 0x908 JUMP JUMPDEST PUSH1 0x0 PUSH1 0x40 DUP3 MSTORE DUP4 MLOAD PUSH1 0x60 PUSH1 0x40 DUP5 ADD MSTORE PUSH2 0x9BC PUSH1 0xA0 DUP5 ADD DUP3 MLOAD PUSH2 0x8F5 JUMP JUMPDEST PUSH1 0x20 DUP2 ADD MLOAD PUSH2 0x140 DUP1 PUSH1 0xC0 DUP7 ADD MSTORE PUSH2 0x9D8 PUSH2 0x1E0 DUP7 ADD DUP4 PUSH2 0x908 JUMP JUMPDEST SWAP2 POP PUSH1 0x40 DUP4 ADD MLOAD PUSH1 0x9F NOT DUP7 DUP5 SUB ADD PUSH1 0xE0 DUP8 ADD MSTORE PUSH2 0x9F5 DUP4 DUP3 PUSH2 0x908 JUMP JUMPDEST SWAP3 POP POP PUSH1 0x60 DUP4 ADD MLOAD PUSH2 0x100 PUSH2 0xA0C DUP2 DUP9 ADD DUP4 PUSH2 0x8F5 JUMP JUMPDEST PUSH1 0x80 DUP6 ADD MLOAD SWAP2 POP PUSH2 0x120 PUSH2 0xA22 DUP2 DUP10 ADD DUP5 PUSH2 0x8F5 JUMP JUMPDEST PUSH1 0xA0 DUP7 ADD MLOAD DUP5 DUP10 ADD MSTORE PUSH1 0xC0 DUP7 ADD MLOAD PUSH2 0x160 DUP10 ADD MSTORE PUSH1 0xE0 DUP7 ADD MLOAD PUSH2 0x180 DUP10 ADD MSTORE DUP2 DUP7 ADD MLOAD SWAP4 POP PUSH2 0xA55 PUSH2 0x1A0 DUP10 ADD DUP6 PUSH2 0x902 JUMP JUMPDEST DUP1 DUP7 ADD MLOAD SWAP6 POP POP POP POP POP PUSH2 0xA6D PUSH2 0x1C0 DUP6 ADD DUP4 PUSH2 0x8F5 JUMP JUMPDEST PUSH1 0x20 DUP7 ADD MLOAD PUSH1 0x60 DUP6 ADD MSTORE PUSH1 0x40 DUP7 ADD MLOAD PUSH1 0x80 DUP6 ADD MSTORE DUP1 SWAP3 POP POP POP PUSH2 0x5AB PUSH1 0x20 DUP4 ADD DUP5 PUSH2 0x8F5 JUMP JUMPDEST SWAP2 DUP3 MSTORE PUSH1 0x20 DUP3 ADD MSTORE PUSH1 0x40 ADD SWAP1 JUMP JUMPDEST PUSH1 0x40 MLOAD DUP2 DUP2 ADD PUSH8 0xFFFFFFFFFFFFFFFF DUP2 GT DUP3 DUP3 LT OR ISZERO PUSH2 0xAC0 JUMPI PUSH1 0x0 DUP1 REVERT JUMPDEST PUSH1 0x40 MSTORE SWAP2 SWAP1 POP JUMP JUMPDEST PUSH1 0x0 PUSH8 0xFFFFFFFFFFFFFFFF DUP3 GT ISZERO PUSH2 0xADE JUMPI DUP1 DUP2 REVERT JUMPDEST POP PUSH1 0x20 SWAP1 DUP2 MUL ADD SWAP1 JUMP JUMPDEST PUSH1 0x1 PUSH1 0x1 PUSH1 0xA0 SHL SUB DUP2 AND DUP2 EQ PUSH2 0xAFD JUMPI PUSH1 0x0 DUP1 REVERT JUMPDEST POP JUMP INVALID LOG2 PUSH5 0x6970667358 0x22 SLT KECCAK256 0xB7 0xE 0xB1 SWAP10 ISZERO DUP1 0xDF 0x5C MSTORE INVALID PUSH31 0xC40673C8A697401259445270BA735AACC43706129564736F6C634300070100 CALLER ","sha1":"53f518aaca865eb445ed82db588925f3c919105b","source":"// SPDX-License-Identifier: GPL-3.0-or-later\n// This program is free software: you can redistribute it and/or modify\n// it under the terms of the GNU General Public License as published by\n// the Free Software Foundation, either version 3 of the License, or\n// (at your option) any later version.\n\n// This program is distributed in the hope that it will be useful,\n// but WITHOUT ANY WARRANTY; without even the implied warranty of\n// MERCHANTABILITY or FITNESS FOR A PARTICULAR PURPOSE.  See the\n// GNU General Public License for more details.\n\n// You should have received a copy of the GNU General Public License\n// along with this program.  If not, see <http://www.gnu.org/licenses/>.\n\npragma solidity ^0.7.0;\npragma experimental ABIEncoderV2;\n\nimport \"@balancer-labs/v2-vault/contracts/interfaces/IVault.sol\";\n\nimport \"@balancer-labs/v2-pool-utils/contracts/factories/BasePoolSplitCodeFactory.sol\";\nimport \"@balancer-labs/v2-pool-utils/contracts/factories/FactoryWidePauseWindow.sol\";\n\nimport \"./GyroTwoPool.sol\";\n\ncontract GyroTwoPoolFactory is BasePoolSplitCodeFactory, FactoryWidePauseWindow {\n    address public immutable gyroConfigAddress;\n\n    constructor(IVault vault, address _gyroConfigAddress) BasePoolSplitCodeFactory(vault, type(GyroTwoPool).creationCode) {\n        gyroConfigAddress = _gyroConfigAddress;\n    }\n\n    /**\n     * @dev Deploys a new `GyroTwoPool`.\n     */\n    function create(\n        string memory name,\n        string memory symbol,\n        IERC20[] memory tokens,\n        uint256[] memory sqrts,\n        uint256 swapFeePercentage,\n        bool oracleEnabled,\n        address owner\n    ) external returns (address) {\n        (uint256 pauseWindowDuration, uint256 bufferPeriodDuration) = getPauseConfiguration();\n\n        GyroTwoPool.GyroParams memory params = GyroTwoPool.GyroParams({\n            baseParams: ExtensibleWeightedPool2Tokens.NewPoolParams({\n                vault: getVault(),\n                name: name,\n                symbol: symbol,\n                token0: tokens[0],\n                token1: tokens[1],\n                swapFeePercentage: swapFeePercentage,\n                pauseWindowDuration: pauseWindowDuration,\n                bufferPeriodDuration: bufferPeriodDuration,\n                oracleEnabled: oracleEnabled,\n                owner: owner\n            }),\n            sqrtAlpha: sqrts[0],\n            sqrtBeta: sqrts[1]\n        });\n\n        return _create(abi.encode(params, gyroConfigAddress));\n    }\n}\n","sourcePath":"contracts/cpmmv-2/GyroTwoPoolFactory.sol","type":"contract","deployment":{"address":"0xdc5A3B89f20D2c8035720e680846ba9F4DD2878e","chainid":"42","blockHeight":32557892}}