{"abi":[{"inputs":[{"internalType":"uint256[]","name":"balances","type":"uint256[]"},{"internalType":"uint256","name":"amountOut","type":"uint256"},{"internalType":"bool","name":"tokenInIsToken0","type":"bool"},{"components":[{"internalType":"int256","name":"alpha","type":"int256"},{"internalType":"int256","name":"beta","type":"int256"},{"internalType":"int256","name":"c","type":"int256"},{"internalType":"int256","name":"s","type":"int256"},{"internalType":"int256","name":"lambda","type":"int256"}],"internalType":"struct GyroECLPMath.Params","name":"params","type":"tuple"},{"components":[{"components":[{"internalType":"int256","name":"x","type":"int256"},{"internalType":"int256","name":"y","type":"int256"}],"internalType":"struct GyroECLPMath.Vector2","name":"tauAlpha","type":"tuple"},{"components":[{"internalType":"int256","name":"x","type":"int256"},{"internalType":"int256","name":"y","type":"int256"}],"internalType":"struct GyroECLPMath.Vector2","name":"tauBeta","type":"tuple"},{"internalType":"int256","name":"u","type":"int256"},{"internalType":"int256","name":"v","type":"int256"},{"internalType":"int256","name":"w","type":"int256"},{"internalType":"int256","name":"z","type":"int256"},{"internalType":"int256","name":"dSq","type":"int256"}],"internalType":"struct GyroECLPMath.DerivedParams","name":"derived","type":"tuple"},{"components":[{"internalType":"int256","name":"x","type":"int256"},{"internalType":"int256","name":"y","type":"int256"}],"internalType":"struct GyroECLPMath.Vector2","name":"invariant","type":"tuple"}],"name":"calcInGivenOut","outputs":[{"internalType":"uint256","name":"amountIn","type":"uint256"}],"stateMutability":"pure","type":"function"},{"inputs":[{"internalType":"uint256[]","name":"balances","type":"uint256[]"},{"internalType":"uint256","name":"amountIn","type":"uint256"},{"internalType":"bool","name":"tokenInIsToken0","type":"bool"},{"components":[{"internalType":"int256","name":"alpha","type":"int256"},{"internalType":"int256","name":"beta","type":"int256"},{"internalType":"int256","name":"c","type":"int256"},{"internalType":"int256","name":"s","type":"int256"},{"internalType":"int256","name":"lambda","type":"int256"}],"internalType":"struct GyroECLPMath.Params","name":"params","type":"tuple"},{"components":[{"components":[{"internalType":"int256","name":"x","type":"int256"},{"internalType":"int256","name":"y","type":"int256"}],"internalType":"struct GyroECLPMath.Vector2","name":"tauAlpha","type":"tuple"},{"components":[{"internalType":"int256","name":"x","type":"int256"},{"internalType":"int256","name":"y","type":"int256"}],"internalType":"struct GyroECLPMath.Vector2","name":"tauBeta","type":"tuple"},{"internalType":"int256","name":"u","type":"int256"},{"internalType":"int256","name":"v","type":"int256"},{"internalType":"int256","name":"w","type":"int256"},{"internalType":"int256","name":"z","type":"int256"},{"internalType":"int256","name":"dSq","type":"int256"}],"internalType":"struct GyroECLPMath.DerivedParams","name":"derived","type":"tuple"},{"components":[{"internalType":"int256","name":"x","type":"int256"},{"internalType":"int256","name":"y","type":"int256"}],"internalType":"struct GyroECLPMath.Vector2","name":"invariant","type":"tuple"}],"name":"calcOutGivenIn","outputs":[{"internalType":"uint256","name":"amountOut","type":"uint256"}],"stateMutability":"pure","type":"function"},{"inputs":[{"internalType":"uint256[]","name":"balances","type":"uint256[]"},{"components":[{"internalType":"int256","name":"alpha","type":"int256"},{"internalType":"int256","name":"beta","type":"int256"},{"internalType":"int256","name":"c","type":"int256"},{"internalType":"int256","name":"s","type":"int256"},{"internalType":"int256","name":"lambda","type":"int256"}],"internalType":"struct GyroECLPMath.Params","name":"params","type":"tuple"},{"components":[{"components":[{"internalType":"int256","name":"x","type":"int256"},{"internalType":"int256","name":"y","type":"int256"}],"internalType":"struct GyroECLPMath.Vector2","name":"tauAlpha","type":"tuple"},{"components":[{"internalType":"int256","name":"x","type":"int256"},{"internalType":"int256","name":"y","type":"int256"}],"internalType":"struct GyroECLPMath.Vector2","name":"tauBeta","type":"tuple"},{"internalType":"int256","name":"u","type":"int256"},{"internalType":"int256","name":"v","type":"int256"},{"internalType":"int256","name":"w","type":"int256"},{"internalType":"int256","name":"z","type":"int256"},{"internalType":"int256","name":"dSq","type":"int256"}],"internalType":"struct GyroECLPMath.DerivedParams","name":"derived","type":"tuple"}],"name":"calculateInvariant","outputs":[{"internalType":"uint256","name":"uinvariant","type":"uint256"}],"stateMutability":"pure","type":"function"},{"inputs":[{"internalType":"uint256[]","name":"balances","type":"uint256[]"},{"components":[{"internalType":"int256","name":"alpha","type":"int256"},{"internalType":"int256","name":"beta","type":"int256"},{"internalType":"int256","name":"c","type":"int256"},{"internalType":"int256","name":"s","type":"int256"},{"internalType":"int256","name":"lambda","type":"int256"}],"internalType":"struct GyroECLPMath.Params","name":"params","type":"tuple"},{"components":[{"components":[{"internalType":"int256","name":"x","type":"int256"},{"internalType":"int256","name":"y","type":"int256"}],"internalType":"struct GyroECLPMath.Vector2","name":"tauAlpha","type":"tuple"},{"components":[{"internalType":"int256","name":"x","type":"int256"},{"internalType":"int256","name":"y","type":"int256"}],"internalType":"struct GyroECLPMath.Vector2","name":"tauBeta","type":"tuple"},{"internalType":"int256","name":"u","type":"int256"},{"internalType":"int256","name":"v","type":"int256"},{"internalType":"int256","name":"w","type":"int256"},{"internalType":"int256","name":"z","type":"int256"},{"internalType":"int256","name":"dSq","type":"int256"}],"internalType":"struct GyroECLPMath.DerivedParams","name":"derived","type":"tuple"}],"name":"calculateInvariantWithError","outputs":[{"internalType":"int256","name":"","type":"int256"},{"internalType":"int256","name":"","type":"int256"}],"stateMutability":"pure","type":"function"},{"inputs":[{"internalType":"uint256[]","name":"balances","type":"uint256[]"},{"components":[{"internalType":"int256","name":"alpha","type":"int256"},{"internalType":"int256","name":"beta","type":"int256"},{"internalType":"int256","name":"c","type":"int256"},{"internalType":"int256","name":"s","type":"int256"},{"internalType":"int256","name":"lambda","type":"int256"}],"internalType":"struct GyroECLPMath.Params","name":"params","type":"tuple"},{"components":[{"components":[{"internalType":"int256","name":"x","type":"int256"},{"internalType":"int256","name":"y","type":"int256"}],"internalType":"struct GyroECLPMath.Vector2","name":"tauAlpha","type":"tuple"},{"components":[{"internalType":"int256","name":"x","type":"int256"},{"internalType":"int256","name":"y","type":"int256"}],"internalType":"struct GyroECLPMath.Vector2","name":"tauBeta","type":"tuple"},{"internalType":"int256","name":"u","type":"int256"},{"internalType":"int256","name":"v","type":"int256"},{"internalType":"int256","name":"w","type":"int256"},{"internalType":"int256","name":"z","type":"int256"},{"internalType":"int256","name":"dSq","type":"int256"}],"internalType":"struct GyroECLPMath.DerivedParams","name":"derived","type":"tuple"},{"internalType":"int256","name":"invariant","type":"int256"}],"name":"calculatePrice","outputs":[{"internalType":"uint256","name":"px","type":"uint256"}],"stateMutability":"pure","type":"function"},{"inputs":[{"components":[{"internalType":"int256","name":"alpha","type":"int256"},{"internalType":"int256","name":"beta","type":"int256"},{"internalType":"int256","name":"c","type":"int256"},{"internalType":"int256","name":"s","type":"int256"},{"internalType":"int256","name":"lambda","type":"int256"}],"internalType":"struct GyroECLPMath.Params","name":"params","type":"tuple"},{"components":[{"components":[{"internalType":"int256","name":"x","type":"int256"},{"internalType":"int256","name":"y","type":"int256"}],"internalType":"struct GyroECLPMath.Vector2","name":"tauAlpha","type":"tuple"},{"components":[{"internalType":"int256","name":"x","type":"int256"},{"internalType":"int256","name":"y","type":"int256"}],"internalType":"struct GyroECLPMath.Vector2","name":"tauBeta","type":"tuple"},{"internalType":"int256","name":"u","type":"int256"},{"internalType":"int256","name":"v","type":"int256"},{"internalType":"int256","name":"w","type":"int256"},{"internalType":"int256","name":"z","type":"int256"},{"internalType":"int256","name":"dSq","type":"int256"}],"internalType":"struct GyroECLPMath.DerivedParams","name":"derived","type":"tuple"}],"name":"validateDerivedParamsLimits","outputs":[],"stateMutability":"pure","type":"function"}],"bytecode":"612516610026600b82828239805160001a60731461001957fe5b30600052607381538281f3fe730000000000000000000000000000000000000000301460806040526004361061006c5760003560e01c806361ff4236146100715780636e70c2ef1461009a57806378ace857146100af578063b0a208a7146100d0578063d83ca862146100e3578063ec6339ec146100f6575b600080fd5b61008461007f3660046123da565b610109565b60405161009191906124af565b60405180910390f35b6100ad6100a836600461246c565b6101cc565b005b6100c26100bd366004612313565b61038f565b6040516100919291906124a1565b6100846100de366004612372565b610557565b6100846100f1366004612313565b6106a6565b6100846101043660046123da565b6106c9565b600061210c6000808715610128575061078f9150600090506001610135565b506107eb91506001905060005b60006101686101638b8d8660ff168151811061014d57fe5b602002602001015161086090919063ffffffff16565b610881565b905061017788888884876108cd565b6000610189828a8a8a8963ffffffff16565b90506101bc61019782610962565b8d8560ff16815181106101a657fe5b60200260200101516109b990919063ffffffff16565b9c9b505050505050505050505050565b80516000906101db90806109d5565b90506102186f4b3b4ca85a86af4d06c240f509800000821280159061021057506f4b3b4ca85a86d9a70c52038af68000008213155b610166610a0f565b602082015161022790806109d5565b90506102636f4b3b4ca85a86af4d06c240f509800000821280159061021057506f4b3b4ca85a86d9a70c52038af6800000821315610166610a0f565b6102856b012ced32a16a1b11e826288960261b83604001511315610169610a0f565b6102a76b012ced32a16a1b11e826288960261b83606001511315610169610a0f565b6102c96b012ced32a16a1b11e826288960261b83608001511315610169610a0f565b6102eb6b012ced32a16a1b11e826288960261b8360a001511315610169610a0f565b60c082015161032f906f4b3b4ca85a86af4d06c240f50980000013801590610327575060c08301516f4b3b4ca85a86d9a70c52038af680000012155b61016c610a0f565b60006103666b012ced32a16a1b11e826288960261b61034e8686610a21565b6b012ced32a16a1b11e826288960261b919003610aff565b90506103897172cb5bd86321e38cb6ce6682e8000000000082131561016a610a0f565b50505050565b6000806000806103b2876000815181106103a557fe5b6020026020010151610881565b6103c2886001815181106103a557fe5b90925090506103ee6e01ed09bead87c0378d8e64000000006103e48484610b34565b131561016b610a0f565b60006103fc83838989610b5d565b905060008061040d85858b8b610c96565b9150915060008213156104315761042a6001820160028402610d1c565b905061045c565b6000811361044357633b9aca00610459565b61045961016361045283610962565b6005610d9d565b90505b806b012ced32a16a1b11e826288960261b6104868688018c60800151610f3390919063ffffffff16565b8161048d57fe5b0501600101601402905060006104b66b012ced32a16a1b11e826288960261b61034e8c8c610a21565b905060006104c985850184900383610f85565b90506104d58383610fe5565b60808c01519093506b012ced32a16a1b11e826288960261b906ec097ce7bc90715b34b9f10000000009080020561050c8385610fe5565b026028028161051757fe5b05830160010192506105466f1691ca32818ed48b02dca3e0000000006103e48584610b3490919063ffffffff16565b9b919a509098505050505050505050565b60008060405180604001604052808481526020018481525090506000604051806040016040528061058988888661102c565b81526020016105998888866110e7565b81525090506000604051806040016040528083600001516105c08b6000815181106103a557fe5b03815260200183602001516105db8b6001815181106103a557fe5b03905290506105ea878261118e565b9050600060405180604001604052806106148460200151856000015161120c90919063ffffffff16565b8152602001670de0b6b3a764000081525090506000610659826106548b6040518060400160405280670de0b6b3a76400008152602001600081525061118e565b611232565b905061069861069361068c846106548d604051806040016040528060008152602001670de0b6b3a764000081525061118e565b839061125f565b610962565b9a9950505050505050505050565b6000806106b485858561038f565b5090506106c081610962565b95945050505050565b600061210c60008087156106e857506107eb91506000905060016106f5565b5061078f91506001905060005b898160ff168151811061070457fe5b6020026020010151891115610720576107206000610165610a0f565b60006107438a8c8460ff168151811061073557fe5b602002602001015103610881565b90506000610757828a8a8a8963ffffffff16565b905061076689898984886108cd565b6101bc8c8560ff168151811061077857fe5b602002602001015161078983610962565b906109b9565b60008060405180604001604052806107a887878761102c565b81526020016107b88787876110e7565b81525090506107e18560800151878760600151886040015187868a602001518b60c001516112b9565b9695505050505050565b60008060405180604001604052806108048787876110e7565b815260200161081487878761102c565b81525090506107e185608001518787604001518860600151878660405180604001604052808c600001516000015160000381526020018c60000151602001518152508b60c001516112b9565b60008282018381101561087857610878600080611521565b90505b92915050565b6000600160ff1b82106108c55760405162461bcd60e51b81526004018080602001828103825260288152602001806124b96028913960400191505060405180910390fd5b50805b919050565b60ff811661091a5760006108e286868661152f565b90506e01ed09bead87c0378d8e640000000083131580156109035750808313155b610914576109146000610165610a0f565b5061095b565b60006109278686866115e5565b90506e01ed09bead87c0378d8e640000000083131580156109485750808313155b610959576109596000610165610a0f565b505b5050505050565b6000808212156108c5576040805162461bcd60e51b815260206004820181905260248201527f53616665436173743a2076616c7565206d75737420626520706f736974697665604482015290519081900360640190fd5b6000828211156109cf576109cf60006001611521565b50900390565b6000610a086109f58360200151856020015161168a90919063ffffffff16565b83518551610a029161168a565b90610b34565b9392505050565b81610a1d57610a1d816116ca565b5050565b60c08101516000908190610a3f90610a3981806116dd565b906116dd565b9050610a77610a6c82610a66866060015187604001516002026116dd90919063ffffffff16565b90610aff565b608086015190610f33565b60808501516040850151919350610aa591610a9f90829082908690610a6690600101806116dd565b90610f33565b6060840151920191610abd908290610a6690806116dd565b8201915060008360a00151610ae386608001518660800151610d1c90919063ffffffff16565b019050610af482610a6683806116dd565b909201949350505050565b600081610b1257610b1260006004611521565b816b012ced32a16a1b11e826288960261b840281610b2c57fe5b059392505050565b600082820181831215610b4957838112610b4e565b838112155b61087857610878600080611521565b60c08101516000908190610b7190806116dd565b90506000610ba882610a6687608001518760a00151610ba18a608001518a6080015161120c90919063ffffffff16565b019061120c565b9050610bdc81610bc58760600151896116f790919063ffffffff16565b6040880151610bd5908b906116f7565b0390610f85565b92506000610c058660400151610bff88608001518a6116f790919063ffffffff16565b906116f7565b610c248760600151610bff89608001518c6116f790919063ffffffff16565b019050610c48610c41848760400151610aff90919063ffffffff16565b8290610f85565b6040870151940193610c5b9088906116f7565b6060870151610c6b908a906116f7565b019050610c88610c41848760600151610aff90919063ffffffff16565b909301979650505050505050565b600080610ca58686868661170a565b610cb187878787611837565b019150610cc086868686611969565b909101906b012ced32a16a1b11e826288960261b610cde8680610f33565b610ce88880610f33565b0181610cf057fe5b05905060008213610d02576000610d11565b610d1161016361045284610962565b915094509492505050565b600081610d2f57610d2f60006004611521565b82610d3c5750600061087b565b6000821215610d52578160000391508260000392505b6000831315610d7c57816001670de0b6b3a764000085020381610d7157fe5b05600101905061087b565b600182670de0b6b3a7640000850260010181610d9457fe5b05039392505050565b600082610dac5750600061087b565b6000610db784611a7f565b9050600281670de0b6b3a7640000860281610dce57fe5b04820181610dd857fe5b049050600281670de0b6b3a7640000860281610df057fe5b04820181610dfa57fe5b049050600281670de0b6b3a7640000860281610e1257fe5b04820181610e1c57fe5b049050600281670de0b6b3a7640000860281610e3457fe5b04820181610e3e57fe5b049050600281670de0b6b3a7640000860281610e5657fe5b04820181610e6057fe5b049050600281670de0b6b3a7640000860281610e7857fe5b04820181610e8257fe5b049050600281670de0b6b3a7640000860281610e9a57fe5b04820181610ea457fe5b0490506000610eb38280611c51565b9050610ec9610ec28386611c8d565b8690610860565b8111158015610eeb5750610ee7610ee08386611c8d565b86906109b9565b8110155b610f2b576040805162461bcd60e51b815260206004820152600c60248201526b17dcdc5c9d0811905253115160a21b604482015290519081900360640190fd5b509392505050565b600082820281811315610f5a57670de0b6b3a764000060001982010560010191505061087b565b6000811215610f7b576001670de0b6b3a7640000828201050391505061087b565b5060009392505050565b6000678ac7230489e80000808305908307848202858202848212801590610fad575060008112155b610fca576001678ac7230489e80000808305840182010503610fda565b678ac7230489e800008082058301055b979650505050505050565b6000678ac7230489e8000080830590830784820285820284821380159061100d575060008113155b610fca57678ac7230489e8000060001981830584010105600101610fda565b60c0820151602083015151600091829161104591610aff565b9050600084602001516000015113611089576110848161107e8760400151610bff896080015188602001516116f790919063ffffffff16565b90610fe5565b6110a8565b6040850151608086015184516110a892849261107e92610a9f91610f33565b91506110dc6110cc8560c00151866020015160200151610aff90919063ffffffff16565b6060870151855161107e91610f33565b909101949350505050565b60c082015182515160009182916110fd91610aff565b845151909150600013611139576111348161107e8760600151610bff896080015188602001516000036116f790919063ffffffff16565b611163565b6111638160000361107e8760600151610a9f89608001518860000151610f3390919063ffffffff16565b60c08501518551602001519193506110dc9161117e91610aff565b6040870151855161107e91610f33565b61119661210e565b6111bf83608001516111b9846020015186606001516116f790919063ffffffff16565b9061120c565b6080840151835160408601516111da92916111b991906116f7565b038152602082015160408401516111f0916116f7565b82516060850151611200916116f7565b01602082015292915050565b60008161121f5761121f60006004611521565b81670de0b6b3a7640000840281610b2c57fe5b6000610a0861125283602001518560200151611ce190919063ffffffff16565b83518551610a0291611ce1565b6000816112725761127260006004611521565b8261127f5750600061087b565b670de0b6b3a76400008381029084828161129557fe5b05146112a7576112a760006005611521565b8281816112b057fe5b05949350505050565b60006112c361210e565b6112e08a6111b96b012ced32a16a1b11e826288960261b8261120c565b6b012ced32a16a1b11e826288960261b908103825261130b908b906113059082610d1c565b90610d1c565b6b012ced32a16a1b11e826288960261b036020820152611329612128565b85518a03600081131561136557602083015161135b906113499087610aff565b61107e8b610bff60008690038f6116f7565b6020830152611390565b825161138a906113759087610aff565b60010161107e8b610a9f60008690038f610f33565b60208301525b61139861210e565b6113b786610a668d610bff8f89602001516116f790919063ffffffff16565b815283516113c5908c610f33565b602082018190526113df906001880190610a66908e610f33565b60010160208083019182526040805180820190915292516b012ced32a16a1b11e826288960261b90810384529151909103908201526114238c8a8f8e8e8c8c611d1a565b6000036040840152602080820151908a015161144a919061144490806116f7565b90610f85565b6040840180519190910190819052600012611466576000611479565b6114796101636104528560400151610962565b604084018190526020840151600091900313156114d4576114cd6114b982602001516b012ced32a16a1b11e826288960261b610aff90919063ffffffff16565b604085015160208601510390600101610fe5565b8352611508565b8051611505906114f4906b012ced32a16a1b11e826288960261b90610aff565b604085015160208601510390610fe5565b83525b5050602086015190510191505098975050505050505050565b81610a1d57610a1d81611fc2565b60c0820151825151602084015151600092839261154d920390610aff565b9050600061157a8560c0015186600001516020015187602001516020015103610aff90919063ffffffff16565b90506115a3826114448860400151610bff8a6080015189602001516116f790919063ffffffff16565b92506115d981600083136115c657606088015186516115c191610f33565b611444565b60608801516020870151611444916116f7565b90920195945050505050565b60c08201518251516020840151516000928392611603920390610aff565b905060006116308560c0015186602001516020015187600001516020015103610aff90919063ffffffff16565b9050611659826114448860600151610bff8a6080015189602001516116f790919063ffffffff16565b92506115d9816000831361167757604088015186516115c191610f33565b60408801516020870151611444916116f7565b60008282028315806116a45750828482816116a157fe5b05145b6116b4576116b460006003611521565b6b012ced32a16a1b11e826288960261b816112b0565b6116da816223aca960e91b612015565b50565b60006b012ced32a16a1b11e826288960261b838302610b2c565b6000670de0b6b3a7640000838302610b2c565b6000806117448460600151610bff8660400151600202611733898a610f3390919063ffffffff16565b61173d8b806116f7565b03906116f7565b9050600061175586600289026116f7565b606086015190915061176b90610bff83826116f7565b604086015161177e90610bff84826116f7565b830103915060006117b086608001516111b988608001516111b989606001518a608001516116dd90919063ffffffff16565b604086015160a08701516117c3916116dd565b0190506117fc86608001516117e987606001518860a001516116dd90919063ffffffff16565b60408801516080890151610ba1916116dd565b60c086015191019061181f9061181890610a39818181806116dd565b8290610aff565b905061182b8382610f85565b98975050505050505050565b6060820151600090819061185190610a9f81818980610f33565b604085015161186690610a9f81818b80610f33565b01905061188f8460600151610bff8660400151600202610bff898b6116f790919063ffffffff16565b6080850151606085015191909203916000916118b491906111b99082908290806116dd565b6118da86608001516111b9876060015188604001516002026116dd90919063ffffffff16565b60408601516118e990806116dd565b60c0870151910191909101915061190a9061181890610a39818181806116dd565b905061191a600083900382610f85565b925061195c6119458560c001516b012ced32a16a1b11e826288960261b610aff90919063ffffffff16565b6080870151611444906111b960081987018261120c565b9092019695505050505050565b6040820151600090819061198390610a9f81818980610f33565b606085015161199890610a9f81818b80610f33565b0190506119c18460400151610a9f8660600151600202610a9f898b610f3390919063ffffffff16565b6080858101519085015192909101916000916119e5916111b99082908290806116dd565b60a08501516119f490806116dd565b019050611a1d85608001516111b986608001518760a001516002026116dd90919063ffffffff16565b60c0850151910190611a399061181890610a39818181806116dd565b9050611a49600083900382610f85565b925061195c611a748560c001516b012ced32a16a1b11e826288960261b610aff90919063ffffffff16565b600819840190610f85565b6000670de0b6b3a76400008210611aac57670de0b6b3a7640000611aa4818404612076565b1b90506108c8565b600a8211611abf575063bc7c871c6108c8565b60648211611ad357506402540be4006108c8565b6103e88211611ae8575064075cdd47196108c8565b6127108211611afd575064174876e8006108c8565b620186a08211611b1357506449a0a4c7006108c8565b620f42408211611b29575064e8d4a510006108c8565b629896808211611b4057506502e0466fc6086108c8565b6305f5e1008211611b5857506509184e72a0006108c8565b633b9aca008211611b705750651cc2c05dbc536108c8565b6402540be4008211611b895750655af3107a40006108c8565b64174876e8008211611ba3575066011f9b83a95b456108c8565b64e8d4a510008211611bbd575066038d7ea4c680006108c8565b6509184e72a0008211611bd85750660b3c13249d90bb6108c8565b655af3107a40008211611bf35750662386f26fc100006108c8565b66038d7ea4c680008211611c0f5750667058bf6e27a7516108c8565b662386f26fc100008211611c2c575067016345785d8a00006108c8565b67016345785d8a00008211611c4a5750670463777a4d8c892d6108c8565b50806108c8565b6000828202831580611c6b575082848281611c6857fe5b04145b611c7b57611c7b60006003611521565b670de0b6b3a764000090049392505050565b6000828202831580611ca7575082848281611ca457fe5b04145b611cb757611cb760006003611521565b80611cc657600091505061087b565b670de0b6b3a764000060001982010460010191505092915050565b6000828202831580611cfb575082848281611cf857fe5b05145b611d0b57611d0b60006003611521565b670de0b6b3a7640000816112b0565b6000806040518060400160405280611d3b85866116dd90919063ffffffff16565b81528951602090910190611d4f9080610f33565b90529050611d5b612128565b815160208601518651600092611d76929091610a66916116dd565b90506000811315611db0576020830151611d939060028a02610f33565b808352611da990600783019061107e908a610f33565b8252611dde565b60208a0151611dc89060028a0290610bff90806116f7565b808352611ddb90829061107e908a6116f7565b82525b855160001315611e26578551611e1c90611df89087610aff565b60000360030161107e89600202610a9f8f8f60000151610f3390919063ffffffff16565b6020830152611e5d565b8551611e5790611e369087610aff565b61107e89600202610bff8f8f602001516000036116f790919063ffffffff16565b60208301525b6020808301518351018352835190870151611e7d9190610a6690806116dd565b6007019050611e99888460200151610f3390919063ffffffff16565b60208301819052611eb090829061107e908b610f33565b602080840191909152860151611eeb90611eca9087610aff565b61107e8a600202610bff8f8f602001516000036116f790919063ffffffff16565b6040830152611efa8b80610f33565b60408301516020840180519091019190910190819052600012611f2b576020820151611f26908a61120c565b611f3a565b6020820151611f3a908a610d1c565b60208301819052825101808352600012611f5f578151611f5a908a61120c565b611f6b565b8151611f6b908a610d1c565b825282518651611f809190610a6690806116dd565b60070190506000611fa288610a9f8a8760200151610f3390919063ffffffff16565b8351909150611fb18284610fe5565b019c9b505050505050505050505050565b62461bcd60e51b6000908152602060045260076024526642414c23000030600a808404818106603090810160081b95839006959095019082900491820690940160101b939093010160c81b604452606490fd5b62461bcd60e51b600090815260206004526007602452600a808404818106603090810160081b958390069590950190829004918206850160101b01602363ffffff0060e086901c160160181b0190930160c81b60445260e882901c90606490fd5b6000600160801b821061208e5760809190911c906040015b6801000000000000000082106120a95760409190911c906020015b64010000000082106120c05760209190911c906010015b6201000082106120d55760109190911c906008015b61010082106120e95760089190911c906004015b601082106120fc5760049190911c906002015b600482106108c857600101919050565bfe5b604051806040016040528060008152602001600081525090565b60405180606001604052806000815260200160008152602001600081525090565b600082601f830112612159578081fd5b8135602067ffffffffffffffff8083111561217057fe5b8183026040518382820101818110848211171561218957fe5b604052848152838101925086840182880185018910156121a7578687fd5b8692505b858310156121c95780358452928401926001929092019184016121ab565b50979650505050505050565b600061012082840312156121e7578081fd5b60405160e0810181811067ffffffffffffffff8211171561220457fe5b60405290508061221484846122cb565b815261222384604085016122cb565b60208201526080830135604082015260a0830135606082015260c0830135608082015260e083013560a082015261010083013560c08201525092915050565b600060a08284031215612273578081fd5b60405160a0810181811067ffffffffffffffff8211171561229057fe5b806040525080915082358152602083013560208201526040830135604082015260608301356060820152608083013560808201525092915050565b6000604082840312156122dc578081fd5b6040516040810181811067ffffffffffffffff821117156122f957fe5b604052823581526020928301359281019290925250919050565b60008060006101e08486031215612328578283fd5b833567ffffffffffffffff81111561233e578384fd5b61234a86828701612149565b93505061235a8560208601612262565b91506123698560c086016121d5565b90509250925092565b6000806000806102008587031215612388578081fd5b843567ffffffffffffffff81111561239e578182fd5b6123aa87828801612149565b9450506123ba8660208701612262565b92506123c98660c087016121d5565b939692955092936101e00135925050565b60008060008060008061026087890312156123f3578182fd5b863567ffffffffffffffff811115612409578283fd5b61241589828a01612149565b9650506020870135945060408701358015158114612431578283fd5b93506124408860608901612262565b92506124508861010089016121d5565b91506124608861022089016122cb565b90509295509295509295565b6000806101c0838503121561247f578182fd5b6124898484612262565b91506124988460a085016121d5565b90509250929050565b918252602082015260400190565b9081526020019056fe53616665436173743a2076616c756520646f65736e27742066697420696e20616e20696e74323536a2646970667358221220ca290dc2f4f1d8d567be82cb621f3b293147b45705a5a8b6dccd731edb599a9164736f6c63430007060033","bytecodeSha1":"52f19a573330e75a1cf2e46e79453b42bc90c5ab","compiler":{"evm_version":"berlin","optimizer":{"enabled":true,"runs":200},"version":"0.7.6+commit.7338295f"},"contractName":"GyroECLPMath","language":"Solidity","natspec":{"details":"ECLP math library. Pretty much a direct translation of the python version (see `tests/`). We use *signed* values here because some of the intermediate results can be negative (e.g. coordinates of points in the untransformed circle, \"prices\" in the untransformed circle).","kind":"dev","methods":{"calculateInvariantWithError(uint256[],GyroECLPMath.Params,GyroECLPMath.DerivedParams)":{"details":"Compute the invariant 'r' corresponding to the given values. The invariant can't be negative, but  we use a signed value to store it because all the other calculations are happening with signed ints, too.  Computes r according to Prop 13 in 2.2.1 Initialization from Real Reserves  orders operations to achieve best precision  Returns an underestimate and a bound on error size.  Enforces anti-overflow limits on balances and the computed invariant in the process. "},"calculatePrice(uint256[],GyroECLPMath.Params,GyroECLPMath.DerivedParams,int256)":{"details":"Instantanteous price.  See Prop. 12 in 2.1.6 Computing Prices "},"validateDerivedParamsLimits(GyroECLPMath.Params,GyroECLPMath.DerivedParams)":{"details":"Enforces limits and approximate normalization of the derived values. Does NOT check for internal consistency of 'derived' with 'params'. "}},"version":1},"opcodes":"PUSH20 0x0 ADDRESS EQ PUSH1 0x80 PUSH1 0x40 MSTORE PUSH1 0x4 CALLDATASIZE LT PUSH2 0x6C JUMPI PUSH1 0x0 CALLDATALOAD PUSH1 0xE0 SHR DUP1 PUSH4 0x61FF4236 EQ PUSH2 0x71 JUMPI DUP1 PUSH4 0x6E70C2EF EQ PUSH2 0x9A JUMPI DUP1 PUSH4 0x78ACE857 EQ PUSH2 0xAF JUMPI DUP1 PUSH4 0xB0A208A7 EQ PUSH2 0xD0 JUMPI DUP1 PUSH4 0xD83CA862 EQ PUSH2 0xE3 JUMPI DUP1 PUSH4 0xEC6339EC EQ PUSH2 0xF6 JUMPI JUMPDEST PUSH1 0x0 DUP1 REVERT JUMPDEST PUSH2 0x84 PUSH2 0x7F CALLDATASIZE PUSH1 0x4 PUSH2 0x23DA JUMP JUMPDEST PUSH2 0x109 JUMP JUMPDEST PUSH1 0x40 MLOAD PUSH2 0x91 SWAP2 SWAP1 PUSH2 0x24AF JUMP JUMPDEST PUSH1 0x40 MLOAD DUP1 SWAP2 SUB SWAP1 RETURN JUMPDEST PUSH2 0xAD PUSH2 0xA8 CALLDATASIZE PUSH1 0x4 PUSH2 0x246C JUMP JUMPDEST PUSH2 0x1CC JUMP JUMPDEST STOP JUMPDEST PUSH2 0xC2 PUSH2 0xBD CALLDATASIZE PUSH1 0x4 PUSH2 0x2313 JUMP JUMPDEST PUSH2 0x38F JUMP JUMPDEST PUSH1 0x40 MLOAD PUSH2 0x91 SWAP3 SWAP2 SWAP1 PUSH2 0x24A1 JUMP JUMPDEST PUSH2 0x84 PUSH2 0xDE CALLDATASIZE PUSH1 0x4 PUSH2 0x2372 JUMP JUMPDEST PUSH2 0x557 JUMP JUMPDEST PUSH2 0x84 PUSH2 0xF1 CALLDATASIZE PUSH1 0x4 PUSH2 0x2313 JUMP JUMPDEST PUSH2 0x6A6 JUMP JUMPDEST PUSH2 0x84 PUSH2 0x104 CALLDATASIZE PUSH1 0x4 PUSH2 0x23DA JUMP JUMPDEST PUSH2 0x6C9 JUMP JUMPDEST PUSH1 0x0 PUSH2 0x210C PUSH1 0x0 DUP1 DUP8 ISZERO PUSH2 0x128 JUMPI POP PUSH2 0x78F SWAP2 POP PUSH1 0x0 SWAP1 POP PUSH1 0x1 PUSH2 0x135 JUMP JUMPDEST POP PUSH2 0x7EB SWAP2 POP PUSH1 0x1 SWAP1 POP PUSH1 0x0 JUMPDEST PUSH1 0x0 PUSH2 0x168 PUSH2 0x163 DUP12 DUP14 DUP7 PUSH1 0xFF AND DUP2 MLOAD DUP2 LT PUSH2 0x14D JUMPI INVALID JUMPDEST PUSH1 0x20 MUL PUSH1 0x20 ADD ADD MLOAD PUSH2 0x860 SWAP1 SWAP2 SWAP1 PUSH4 0xFFFFFFFF AND JUMP JUMPDEST PUSH2 0x881 JUMP JUMPDEST SWAP1 POP PUSH2 0x177 DUP9 DUP9 DUP9 DUP5 DUP8 PUSH2 0x8CD JUMP JUMPDEST PUSH1 0x0 PUSH2 0x189 DUP3 DUP11 DUP11 DUP11 DUP10 PUSH4 0xFFFFFFFF AND JUMP JUMPDEST SWAP1 POP PUSH2 0x1BC PUSH2 0x197 DUP3 PUSH2 0x962 JUMP JUMPDEST DUP14 DUP6 PUSH1 0xFF AND DUP2 MLOAD DUP2 LT PUSH2 0x1A6 JUMPI INVALID JUMPDEST PUSH1 0x20 MUL PUSH1 0x20 ADD ADD MLOAD PUSH2 0x9B9 SWAP1 SWAP2 SWAP1 PUSH4 0xFFFFFFFF AND JUMP JUMPDEST SWAP13 SWAP12 POP POP POP POP POP POP POP POP POP POP POP POP JUMP JUMPDEST DUP1 MLOAD PUSH1 0x0 SWAP1 PUSH2 0x1DB SWAP1 DUP1 PUSH2 0x9D5 JUMP JUMPDEST SWAP1 POP PUSH2 0x218 PUSH16 0x4B3B4CA85A86AF4D06C240F509800000 DUP3 SLT DUP1 ISZERO SWAP1 PUSH2 0x210 JUMPI POP PUSH16 0x4B3B4CA85A86D9A70C52038AF6800000 DUP3 SGT ISZERO JUMPDEST PUSH2 0x166 PUSH2 0xA0F JUMP JUMPDEST PUSH1 0x20 DUP3 ADD MLOAD PUSH2 0x227 SWAP1 DUP1 PUSH2 0x9D5 JUMP JUMPDEST SWAP1 POP PUSH2 0x263 PUSH16 0x4B3B4CA85A86AF4D06C240F509800000 DUP3 SLT DUP1 ISZERO SWAP1 PUSH2 0x210 JUMPI POP PUSH16 0x4B3B4CA85A86D9A70C52038AF6800000 DUP3 SGT ISZERO PUSH2 0x166 PUSH2 0xA0F JUMP JUMPDEST PUSH2 0x285 PUSH12 0x12CED32A16A1B11E8262889 PUSH1 0x26 SHL DUP4 PUSH1 0x40 ADD MLOAD SGT ISZERO PUSH2 0x169 PUSH2 0xA0F JUMP JUMPDEST PUSH2 0x2A7 PUSH12 0x12CED32A16A1B11E8262889 PUSH1 0x26 SHL DUP4 PUSH1 0x60 ADD MLOAD SGT ISZERO PUSH2 0x169 PUSH2 0xA0F JUMP JUMPDEST PUSH2 0x2C9 PUSH12 0x12CED32A16A1B11E8262889 PUSH1 0x26 SHL DUP4 PUSH1 0x80 ADD MLOAD SGT ISZERO PUSH2 0x169 PUSH2 0xA0F JUMP JUMPDEST PUSH2 0x2EB PUSH12 0x12CED32A16A1B11E8262889 PUSH1 0x26 SHL DUP4 PUSH1 0xA0 ADD MLOAD SGT ISZERO PUSH2 0x169 PUSH2 0xA0F JUMP JUMPDEST PUSH1 0xC0 DUP3 ADD MLOAD PUSH2 0x32F SWAP1 PUSH16 0x4B3B4CA85A86AF4D06C240F509800000 SGT DUP1 ISZERO SWAP1 PUSH2 0x327 JUMPI POP PUSH1 0xC0 DUP4 ADD MLOAD PUSH16 0x4B3B4CA85A86D9A70C52038AF6800000 SLT ISZERO JUMPDEST PUSH2 0x16C PUSH2 0xA0F JUMP JUMPDEST PUSH1 0x0 PUSH2 0x366 PUSH12 0x12CED32A16A1B11E8262889 PUSH1 0x26 SHL PUSH2 0x34E DUP7 DUP7 PUSH2 0xA21 JUMP JUMPDEST PUSH12 0x12CED32A16A1B11E8262889 PUSH1 0x26 SHL SWAP2 SWAP1 SUB PUSH2 0xAFF JUMP JUMPDEST SWAP1 POP PUSH2 0x389 PUSH18 0x72CB5BD86321E38CB6CE6682E80000000000 DUP3 SGT ISZERO PUSH2 0x16A PUSH2 0xA0F JUMP JUMPDEST POP POP POP POP JUMP JUMPDEST PUSH1 0x0 DUP1 PUSH1 0x0 DUP1 PUSH2 0x3B2 DUP8 PUSH1 0x0 DUP2 MLOAD DUP2 LT PUSH2 0x3A5 JUMPI INVALID JUMPDEST PUSH1 0x20 MUL PUSH1 0x20 ADD ADD MLOAD PUSH2 0x881 JUMP JUMPDEST PUSH2 0x3C2 DUP9 PUSH1 0x1 DUP2 MLOAD DUP2 LT PUSH2 0x3A5 JUMPI INVALID JUMPDEST SWAP1 SWAP3 POP SWAP1 POP PUSH2 0x3EE PUSH15 0x1ED09BEAD87C0378D8E6400000000 PUSH2 0x3E4 DUP5 DUP5 PUSH2 0xB34 JUMP JUMPDEST SGT ISZERO PUSH2 0x16B PUSH2 0xA0F JUMP JUMPDEST PUSH1 0x0 PUSH2 0x3FC DUP4 DUP4 DUP10 DUP10 PUSH2 0xB5D JUMP JUMPDEST SWAP1 POP PUSH1 0x0 DUP1 PUSH2 0x40D DUP6 DUP6 DUP12 DUP12 PUSH2 0xC96 JUMP JUMPDEST SWAP2 POP SWAP2 POP PUSH1 0x0 DUP3 SGT ISZERO PUSH2 0x431 JUMPI PUSH2 0x42A PUSH1 0x1 DUP3 ADD PUSH1 0x2 DUP5 MUL PUSH2 0xD1C JUMP JUMPDEST SWAP1 POP PUSH2 0x45C JUMP JUMPDEST PUSH1 0x0 DUP2 SGT PUSH2 0x443 JUMPI PUSH4 0x3B9ACA00 PUSH2 0x459 JUMP JUMPDEST PUSH2 0x459 PUSH2 0x163 PUSH2 0x452 DUP4 PUSH2 0x962 JUMP JUMPDEST PUSH1 0x5 PUSH2 0xD9D JUMP JUMPDEST SWAP1 POP JUMPDEST DUP1 PUSH12 0x12CED32A16A1B11E8262889 PUSH1 0x26 SHL PUSH2 0x486 DUP7 DUP9 ADD DUP13 PUSH1 0x80 ADD MLOAD PUSH2 0xF33 SWAP1 SWAP2 SWAP1 PUSH4 0xFFFFFFFF AND JUMP JUMPDEST DUP2 PUSH2 0x48D JUMPI INVALID JUMPDEST SDIV ADD PUSH1 0x1 ADD PUSH1 0x14 MUL SWAP1 POP PUSH1 0x0 PUSH2 0x4B6 PUSH12 0x12CED32A16A1B11E8262889 PUSH1 0x26 SHL PUSH2 0x34E DUP13 DUP13 PUSH2 0xA21 JUMP JUMPDEST SWAP1 POP PUSH1 0x0 PUSH2 0x4C9 DUP6 DUP6 ADD DUP5 SWAP1 SUB DUP4 PUSH2 0xF85 JUMP JUMPDEST SWAP1 POP PUSH2 0x4D5 DUP4 DUP4 PUSH2 0xFE5 JUMP JUMPDEST PUSH1 0x80 DUP13 ADD MLOAD SWAP1 SWAP4 POP PUSH12 0x12CED32A16A1B11E8262889 PUSH1 0x26 SHL SWAP1 PUSH15 0xC097CE7BC90715B34B9F1000000000 SWAP1 DUP1 MUL SDIV PUSH2 0x50C DUP4 DUP6 PUSH2 0xFE5 JUMP JUMPDEST MUL PUSH1 0x28 MUL DUP2 PUSH2 0x517 JUMPI INVALID JUMPDEST SDIV DUP4 ADD PUSH1 0x1 ADD SWAP3 POP PUSH2 0x546 PUSH16 0x1691CA32818ED48B02DCA3E000000000 PUSH2 0x3E4 DUP6 DUP5 PUSH2 0xB34 SWAP1 SWAP2 SWAP1 PUSH4 0xFFFFFFFF AND JUMP JUMPDEST SWAP12 SWAP2 SWAP11 POP SWAP1 SWAP9 POP POP POP POP POP POP POP POP POP JUMP JUMPDEST PUSH1 0x0 DUP1 PUSH1 0x40 MLOAD DUP1 PUSH1 0x40 ADD PUSH1 0x40 MSTORE DUP1 DUP5 DUP2 MSTORE PUSH1 0x20 ADD DUP5 DUP2 MSTORE POP SWAP1 POP PUSH1 0x0 PUSH1 0x40 MLOAD DUP1 PUSH1 0x40 ADD PUSH1 0x40 MSTORE DUP1 PUSH2 0x589 DUP9 DUP9 DUP7 PUSH2 0x102C JUMP JUMPDEST DUP2 MSTORE PUSH1 0x20 ADD PUSH2 0x599 DUP9 DUP9 DUP7 PUSH2 0x10E7 JUMP JUMPDEST DUP2 MSTORE POP SWAP1 POP PUSH1 0x0 PUSH1 0x40 MLOAD DUP1 PUSH1 0x40 ADD PUSH1 0x40 MSTORE DUP1 DUP4 PUSH1 0x0 ADD MLOAD PUSH2 0x5C0 DUP12 PUSH1 0x0 DUP2 MLOAD DUP2 LT PUSH2 0x3A5 JUMPI INVALID JUMPDEST SUB DUP2 MSTORE PUSH1 0x20 ADD DUP4 PUSH1 0x20 ADD MLOAD PUSH2 0x5DB DUP12 PUSH1 0x1 DUP2 MLOAD DUP2 LT PUSH2 0x3A5 JUMPI INVALID JUMPDEST SUB SWAP1 MSTORE SWAP1 POP PUSH2 0x5EA DUP8 DUP3 PUSH2 0x118E JUMP JUMPDEST SWAP1 POP PUSH1 0x0 PUSH1 0x40 MLOAD DUP1 PUSH1 0x40 ADD PUSH1 0x40 MSTORE DUP1 PUSH2 0x614 DUP5 PUSH1 0x20 ADD MLOAD DUP6 PUSH1 0x0 ADD MLOAD PUSH2 0x120C SWAP1 SWAP2 SWAP1 PUSH4 0xFFFFFFFF AND JUMP JUMPDEST DUP2 MSTORE PUSH1 0x20 ADD PUSH8 0xDE0B6B3A7640000 DUP2 MSTORE POP SWAP1 POP PUSH1 0x0 PUSH2 0x659 DUP3 PUSH2 0x654 DUP12 PUSH1 0x40 MLOAD DUP1 PUSH1 0x40 ADD PUSH1 0x40 MSTORE DUP1 PUSH8 0xDE0B6B3A7640000 DUP2 MSTORE PUSH1 0x20 ADD PUSH1 0x0 DUP2 MSTORE POP PUSH2 0x118E JUMP JUMPDEST PUSH2 0x1232 JUMP JUMPDEST SWAP1 POP PUSH2 0x698 PUSH2 0x693 PUSH2 0x68C DUP5 PUSH2 0x654 DUP14 PUSH1 0x40 MLOAD DUP1 PUSH1 0x40 ADD PUSH1 0x40 MSTORE DUP1 PUSH1 0x0 DUP2 MSTORE PUSH1 0x20 ADD PUSH8 0xDE0B6B3A7640000 DUP2 MSTORE POP PUSH2 0x118E JUMP JUMPDEST DUP4 SWAP1 PUSH2 0x125F JUMP JUMPDEST PUSH2 0x962 JUMP JUMPDEST SWAP11 SWAP10 POP POP POP POP POP POP POP POP POP POP JUMP JUMPDEST PUSH1 0x0 DUP1 PUSH2 0x6B4 DUP6 DUP6 DUP6 PUSH2 0x38F JUMP JUMPDEST POP SWAP1 POP PUSH2 0x6C0 DUP2 PUSH2 0x962 JUMP JUMPDEST SWAP6 SWAP5 POP POP POP POP POP JUMP JUMPDEST PUSH1 0x0 PUSH2 0x210C PUSH1 0x0 DUP1 DUP8 ISZERO PUSH2 0x6E8 JUMPI POP PUSH2 0x7EB SWAP2 POP PUSH1 0x0 SWAP1 POP PUSH1 0x1 PUSH2 0x6F5 JUMP JUMPDEST POP PUSH2 0x78F SWAP2 POP PUSH1 0x1 SWAP1 POP PUSH1 0x0 JUMPDEST DUP10 DUP2 PUSH1 0xFF AND DUP2 MLOAD DUP2 LT PUSH2 0x704 JUMPI INVALID JUMPDEST PUSH1 0x20 MUL PUSH1 0x20 ADD ADD MLOAD DUP10 GT ISZERO PUSH2 0x720 JUMPI PUSH2 0x720 PUSH1 0x0 PUSH2 0x165 PUSH2 0xA0F JUMP JUMPDEST PUSH1 0x0 PUSH2 0x743 DUP11 DUP13 DUP5 PUSH1 0xFF AND DUP2 MLOAD DUP2 LT PUSH2 0x735 JUMPI INVALID JUMPDEST PUSH1 0x20 MUL PUSH1 0x20 ADD ADD MLOAD SUB PUSH2 0x881 JUMP JUMPDEST SWAP1 POP PUSH1 0x0 PUSH2 0x757 DUP3 DUP11 DUP11 DUP11 DUP10 PUSH4 0xFFFFFFFF AND JUMP JUMPDEST SWAP1 POP PUSH2 0x766 DUP10 DUP10 DUP10 DUP5 DUP9 PUSH2 0x8CD JUMP JUMPDEST PUSH2 0x1BC DUP13 DUP6 PUSH1 0xFF AND DUP2 MLOAD DUP2 LT PUSH2 0x778 JUMPI INVALID JUMPDEST PUSH1 0x20 MUL PUSH1 0x20 ADD ADD MLOAD PUSH2 0x789 DUP4 PUSH2 0x962 JUMP JUMPDEST SWAP1 PUSH2 0x9B9 JUMP JUMPDEST PUSH1 0x0 DUP1 PUSH1 0x40 MLOAD DUP1 PUSH1 0x40 ADD PUSH1 0x40 MSTORE DUP1 PUSH2 0x7A8 DUP8 DUP8 DUP8 PUSH2 0x102C JUMP JUMPDEST DUP2 MSTORE PUSH1 0x20 ADD PUSH2 0x7B8 DUP8 DUP8 DUP8 PUSH2 0x10E7 JUMP JUMPDEST DUP2 MSTORE POP SWAP1 POP PUSH2 0x7E1 DUP6 PUSH1 0x80 ADD MLOAD DUP8 DUP8 PUSH1 0x60 ADD MLOAD DUP9 PUSH1 0x40 ADD MLOAD DUP8 DUP7 DUP11 PUSH1 0x20 ADD MLOAD DUP12 PUSH1 0xC0 ADD MLOAD PUSH2 0x12B9 JUMP JUMPDEST SWAP7 SWAP6 POP POP POP POP POP POP JUMP JUMPDEST PUSH1 0x0 DUP1 PUSH1 0x40 MLOAD DUP1 PUSH1 0x40 ADD PUSH1 0x40 MSTORE DUP1 PUSH2 0x804 DUP8 DUP8 DUP8 PUSH2 0x10E7 JUMP JUMPDEST DUP2 MSTORE PUSH1 0x20 ADD PUSH2 0x814 DUP8 DUP8 DUP8 PUSH2 0x102C JUMP JUMPDEST DUP2 MSTORE POP SWAP1 POP PUSH2 0x7E1 DUP6 PUSH1 0x80 ADD MLOAD DUP8 DUP8 PUSH1 0x40 ADD MLOAD DUP9 PUSH1 0x60 ADD MLOAD DUP8 DUP7 PUSH1 0x40 MLOAD DUP1 PUSH1 0x40 ADD PUSH1 0x40 MSTORE DUP1 DUP13 PUSH1 0x0 ADD MLOAD PUSH1 0x0 ADD MLOAD PUSH1 0x0 SUB DUP2 MSTORE PUSH1 0x20 ADD DUP13 PUSH1 0x0 ADD MLOAD PUSH1 0x20 ADD MLOAD DUP2 MSTORE POP DUP12 PUSH1 0xC0 ADD MLOAD PUSH2 0x12B9 JUMP JUMPDEST PUSH1 0x0 DUP3 DUP3 ADD DUP4 DUP2 LT ISZERO PUSH2 0x878 JUMPI PUSH2 0x878 PUSH1 0x0 DUP1 PUSH2 0x1521 JUMP JUMPDEST SWAP1 POP JUMPDEST SWAP3 SWAP2 POP POP JUMP JUMPDEST PUSH1 0x0 PUSH1 0x1 PUSH1 0xFF SHL DUP3 LT PUSH2 0x8C5 JUMPI PUSH1 0x40 MLOAD PUSH3 0x461BCD PUSH1 0xE5 SHL DUP2 MSTORE PUSH1 0x4 ADD DUP1 DUP1 PUSH1 0x20 ADD DUP3 DUP2 SUB DUP3 MSTORE PUSH1 0x28 DUP2 MSTORE PUSH1 0x20 ADD DUP1 PUSH2 0x24B9 PUSH1 0x28 SWAP2 CODECOPY PUSH1 0x40 ADD SWAP2 POP POP PUSH1 0x40 MLOAD DUP1 SWAP2 SUB SWAP1 REVERT JUMPDEST POP DUP1 JUMPDEST SWAP2 SWAP1 POP JUMP JUMPDEST PUSH1 0xFF DUP2 AND PUSH2 0x91A JUMPI PUSH1 0x0 PUSH2 0x8E2 DUP7 DUP7 DUP7 PUSH2 0x152F JUMP JUMPDEST SWAP1 POP PUSH15 0x1ED09BEAD87C0378D8E6400000000 DUP4 SGT ISZERO DUP1 ISZERO PUSH2 0x903 JUMPI POP DUP1 DUP4 SGT ISZERO JUMPDEST PUSH2 0x914 JUMPI PUSH2 0x914 PUSH1 0x0 PUSH2 0x165 PUSH2 0xA0F JUMP JUMPDEST POP PUSH2 0x95B JUMP JUMPDEST PUSH1 0x0 PUSH2 0x927 DUP7 DUP7 DUP7 PUSH2 0x15E5 JUMP JUMPDEST SWAP1 POP PUSH15 0x1ED09BEAD87C0378D8E6400000000 DUP4 SGT ISZERO DUP1 ISZERO PUSH2 0x948 JUMPI POP DUP1 DUP4 SGT ISZERO JUMPDEST PUSH2 0x959 JUMPI PUSH2 0x959 PUSH1 0x0 PUSH2 0x165 PUSH2 0xA0F JUMP JUMPDEST POP JUMPDEST POP POP POP POP POP JUMP JUMPDEST PUSH1 0x0 DUP1 DUP3 SLT ISZERO PUSH2 0x8C5 JUMPI PUSH1 0x40 DUP1 MLOAD PUSH3 0x461BCD PUSH1 0xE5 SHL DUP2 MSTORE PUSH1 0x20 PUSH1 0x4 DUP3 ADD DUP2 SWAP1 MSTORE PUSH1 0x24 DUP3 ADD MSTORE PUSH32 0x53616665436173743A2076616C7565206D75737420626520706F736974697665 PUSH1 0x44 DUP3 ADD MSTORE SWAP1 MLOAD SWAP1 DUP2 SWAP1 SUB PUSH1 0x64 ADD SWAP1 REVERT JUMPDEST PUSH1 0x0 DUP3 DUP3 GT ISZERO PUSH2 0x9CF JUMPI PUSH2 0x9CF PUSH1 0x0 PUSH1 0x1 PUSH2 0x1521 JUMP JUMPDEST POP SWAP1 SUB SWAP1 JUMP JUMPDEST PUSH1 0x0 PUSH2 0xA08 PUSH2 0x9F5 DUP4 PUSH1 0x20 ADD MLOAD DUP6 PUSH1 0x20 ADD MLOAD PUSH2 0x168A SWAP1 SWAP2 SWAP1 PUSH4 0xFFFFFFFF AND JUMP JUMPDEST DUP4 MLOAD DUP6 MLOAD PUSH2 0xA02 SWAP2 PUSH2 0x168A JUMP JUMPDEST SWAP1 PUSH2 0xB34 JUMP JUMPDEST SWAP4 SWAP3 POP POP POP JUMP JUMPDEST DUP2 PUSH2 0xA1D JUMPI PUSH2 0xA1D DUP2 PUSH2 0x16CA JUMP JUMPDEST POP POP JUMP JUMPDEST PUSH1 0xC0 DUP2 ADD MLOAD PUSH1 0x0 SWAP1 DUP2 SWAP1 PUSH2 0xA3F SWAP1 PUSH2 0xA39 DUP2 DUP1 PUSH2 0x16DD JUMP JUMPDEST SWAP1 PUSH2 0x16DD JUMP JUMPDEST SWAP1 POP PUSH2 0xA77 PUSH2 0xA6C DUP3 PUSH2 0xA66 DUP7 PUSH1 0x60 ADD MLOAD DUP8 PUSH1 0x40 ADD MLOAD PUSH1 0x2 MUL PUSH2 0x16DD SWAP1 SWAP2 SWAP1 PUSH4 0xFFFFFFFF AND JUMP JUMPDEST SWAP1 PUSH2 0xAFF JUMP JUMPDEST PUSH1 0x80 DUP7 ADD MLOAD SWAP1 PUSH2 0xF33 JUMP JUMPDEST PUSH1 0x80 DUP6 ADD MLOAD PUSH1 0x40 DUP6 ADD MLOAD SWAP2 SWAP4 POP PUSH2 0xAA5 SWAP2 PUSH2 0xA9F SWAP1 DUP3 SWAP1 DUP3 SWAP1 DUP7 SWAP1 PUSH2 0xA66 SWAP1 PUSH1 0x1 ADD DUP1 PUSH2 0x16DD JUMP JUMPDEST SWAP1 PUSH2 0xF33 JUMP JUMPDEST PUSH1 0x60 DUP5 ADD MLOAD SWAP3 ADD SWAP2 PUSH2 0xABD SWAP1 DUP3 SWAP1 PUSH2 0xA66 SWAP1 DUP1 PUSH2 0x16DD JUMP JUMPDEST DUP3 ADD SWAP2 POP PUSH1 0x0 DUP4 PUSH1 0xA0 ADD MLOAD PUSH2 0xAE3 DUP7 PUSH1 0x80 ADD MLOAD DUP7 PUSH1 0x80 ADD MLOAD PUSH2 0xD1C SWAP1 SWAP2 SWAP1 PUSH4 0xFFFFFFFF AND JUMP JUMPDEST ADD SWAP1 POP PUSH2 0xAF4 DUP3 PUSH2 0xA66 DUP4 DUP1 PUSH2 0x16DD JUMP JUMPDEST SWAP1 SWAP3 ADD SWAP5 SWAP4 POP POP POP POP JUMP JUMPDEST PUSH1 0x0 DUP2 PUSH2 0xB12 JUMPI PUSH2 0xB12 PUSH1 0x0 PUSH1 0x4 PUSH2 0x1521 JUMP JUMPDEST DUP2 PUSH12 0x12CED32A16A1B11E8262889 PUSH1 0x26 SHL DUP5 MUL DUP2 PUSH2 0xB2C JUMPI INVALID JUMPDEST SDIV SWAP4 SWAP3 POP POP POP JUMP JUMPDEST PUSH1 0x0 DUP3 DUP3 ADD DUP2 DUP4 SLT ISZERO PUSH2 0xB49 JUMPI DUP4 DUP2 SLT PUSH2 0xB4E JUMP JUMPDEST DUP4 DUP2 SLT ISZERO JUMPDEST PUSH2 0x878 JUMPI PUSH2 0x878 PUSH1 0x0 DUP1 PUSH2 0x1521 JUMP JUMPDEST PUSH1 0xC0 DUP2 ADD MLOAD PUSH1 0x0 SWAP1 DUP2 SWAP1 PUSH2 0xB71 SWAP1 DUP1 PUSH2 0x16DD JUMP JUMPDEST SWAP1 POP PUSH1 0x0 PUSH2 0xBA8 DUP3 PUSH2 0xA66 DUP8 PUSH1 0x80 ADD MLOAD DUP8 PUSH1 0xA0 ADD MLOAD PUSH2 0xBA1 DUP11 PUSH1 0x80 ADD MLOAD DUP11 PUSH1 0x80 ADD MLOAD PUSH2 0x120C SWAP1 SWAP2 SWAP1 PUSH4 0xFFFFFFFF AND JUMP JUMPDEST ADD SWAP1 PUSH2 0x120C JUMP JUMPDEST SWAP1 POP PUSH2 0xBDC DUP2 PUSH2 0xBC5 DUP8 PUSH1 0x60 ADD MLOAD DUP10 PUSH2 0x16F7 SWAP1 SWAP2 SWAP1 PUSH4 0xFFFFFFFF AND JUMP JUMPDEST PUSH1 0x40 DUP9 ADD MLOAD PUSH2 0xBD5 SWAP1 DUP12 SWAP1 PUSH2 0x16F7 JUMP JUMPDEST SUB SWAP1 PUSH2 0xF85 JUMP JUMPDEST SWAP3 POP PUSH1 0x0 PUSH2 0xC05 DUP7 PUSH1 0x40 ADD MLOAD PUSH2 0xBFF DUP9 PUSH1 0x80 ADD MLOAD DUP11 PUSH2 0x16F7 SWAP1 SWAP2 SWAP1 PUSH4 0xFFFFFFFF AND JUMP JUMPDEST SWAP1 PUSH2 0x16F7 JUMP JUMPDEST PUSH2 0xC24 DUP8 PUSH1 0x60 ADD MLOAD PUSH2 0xBFF DUP10 PUSH1 0x80 ADD MLOAD DUP13 PUSH2 0x16F7 SWAP1 SWAP2 SWAP1 PUSH4 0xFFFFFFFF AND JUMP JUMPDEST ADD SWAP1 POP PUSH2 0xC48 PUSH2 0xC41 DUP5 DUP8 PUSH1 0x40 ADD MLOAD PUSH2 0xAFF SWAP1 SWAP2 SWAP1 PUSH4 0xFFFFFFFF AND JUMP JUMPDEST DUP3 SWAP1 PUSH2 0xF85 JUMP JUMPDEST PUSH1 0x40 DUP8 ADD MLOAD SWAP5 ADD SWAP4 PUSH2 0xC5B SWAP1 DUP9 SWAP1 PUSH2 0x16F7 JUMP JUMPDEST PUSH1 0x60 DUP8 ADD MLOAD PUSH2 0xC6B SWAP1 DUP11 SWAP1 PUSH2 0x16F7 JUMP JUMPDEST ADD SWAP1 POP PUSH2 0xC88 PUSH2 0xC41 DUP5 DUP8 PUSH1 0x60 ADD MLOAD PUSH2 0xAFF SWAP1 SWAP2 SWAP1 PUSH4 0xFFFFFFFF AND JUMP JUMPDEST SWAP1 SWAP4 ADD SWAP8 SWAP7 POP POP POP POP POP POP POP JUMP JUMPDEST PUSH1 0x0 DUP1 PUSH2 0xCA5 DUP7 DUP7 DUP7 DUP7 PUSH2 0x170A JUMP JUMPDEST PUSH2 0xCB1 DUP8 DUP8 DUP8 DUP8 PUSH2 0x1837 JUMP JUMPDEST ADD SWAP2 POP PUSH2 0xCC0 DUP7 DUP7 DUP7 DUP7 PUSH2 0x1969 JUMP JUMPDEST SWAP1 SWAP2 ADD SWAP1 PUSH12 0x12CED32A16A1B11E8262889 PUSH1 0x26 SHL PUSH2 0xCDE DUP7 DUP1 PUSH2 0xF33 JUMP JUMPDEST PUSH2 0xCE8 DUP9 DUP1 PUSH2 0xF33 JUMP JUMPDEST ADD DUP2 PUSH2 0xCF0 JUMPI INVALID JUMPDEST SDIV SWAP1 POP PUSH1 0x0 DUP3 SGT PUSH2 0xD02 JUMPI PUSH1 0x0 PUSH2 0xD11 JUMP JUMPDEST PUSH2 0xD11 PUSH2 0x163 PUSH2 0x452 DUP5 PUSH2 0x962 JUMP JUMPDEST SWAP2 POP SWAP5 POP SWAP5 SWAP3 POP POP POP JUMP JUMPDEST PUSH1 0x0 DUP2 PUSH2 0xD2F JUMPI PUSH2 0xD2F PUSH1 0x0 PUSH1 0x4 PUSH2 0x1521 JUMP JUMPDEST DUP3 PUSH2 0xD3C JUMPI POP PUSH1 0x0 PUSH2 0x87B JUMP JUMPDEST PUSH1 0x0 DUP3 SLT ISZERO PUSH2 0xD52 JUMPI DUP2 PUSH1 0x0 SUB SWAP2 POP DUP3 PUSH1 0x0 SUB SWAP3 POP JUMPDEST PUSH1 0x0 DUP4 SGT ISZERO PUSH2 0xD7C JUMPI DUP2 PUSH1 0x1 PUSH8 0xDE0B6B3A7640000 DUP6 MUL SUB DUP2 PUSH2 0xD71 JUMPI INVALID JUMPDEST SDIV PUSH1 0x1 ADD SWAP1 POP PUSH2 0x87B JUMP JUMPDEST PUSH1 0x1 DUP3 PUSH8 0xDE0B6B3A7640000 DUP6 MUL PUSH1 0x1 ADD DUP2 PUSH2 0xD94 JUMPI INVALID JUMPDEST SDIV SUB SWAP4 SWAP3 POP POP POP JUMP JUMPDEST PUSH1 0x0 DUP3 PUSH2 0xDAC JUMPI POP PUSH1 0x0 PUSH2 0x87B JUMP JUMPDEST PUSH1 0x0 PUSH2 0xDB7 DUP5 PUSH2 0x1A7F JUMP JUMPDEST SWAP1 POP PUSH1 0x2 DUP2 PUSH8 0xDE0B6B3A7640000 DUP7 MUL DUP2 PUSH2 0xDCE JUMPI INVALID JUMPDEST DIV DUP3 ADD DUP2 PUSH2 0xDD8 JUMPI INVALID JUMPDEST DIV SWAP1 POP PUSH1 0x2 DUP2 PUSH8 0xDE0B6B3A7640000 DUP7 MUL DUP2 PUSH2 0xDF0 JUMPI INVALID JUMPDEST DIV DUP3 ADD DUP2 PUSH2 0xDFA JUMPI INVALID JUMPDEST DIV SWAP1 POP PUSH1 0x2 DUP2 PUSH8 0xDE0B6B3A7640000 DUP7 MUL DUP2 PUSH2 0xE12 JUMPI INVALID JUMPDEST DIV DUP3 ADD DUP2 PUSH2 0xE1C JUMPI INVALID JUMPDEST DIV SWAP1 POP PUSH1 0x2 DUP2 PUSH8 0xDE0B6B3A7640000 DUP7 MUL DUP2 PUSH2 0xE34 JUMPI INVALID JUMPDEST DIV DUP3 ADD DUP2 PUSH2 0xE3E JUMPI INVALID JUMPDEST DIV SWAP1 POP PUSH1 0x2 DUP2 PUSH8 0xDE0B6B3A7640000 DUP7 MUL DUP2 PUSH2 0xE56 JUMPI INVALID JUMPDEST DIV DUP3 ADD DUP2 PUSH2 0xE60 JUMPI INVALID JUMPDEST DIV SWAP1 POP PUSH1 0x2 DUP2 PUSH8 0xDE0B6B3A7640000 DUP7 MUL DUP2 PUSH2 0xE78 JUMPI INVALID JUMPDEST DIV DUP3 ADD DUP2 PUSH2 0xE82 JUMPI INVALID JUMPDEST DIV SWAP1 POP PUSH1 0x2 DUP2 PUSH8 0xDE0B6B3A7640000 DUP7 MUL DUP2 PUSH2 0xE9A JUMPI INVALID JUMPDEST DIV DUP3 ADD DUP2 PUSH2 0xEA4 JUMPI INVALID JUMPDEST DIV SWAP1 POP PUSH1 0x0 PUSH2 0xEB3 DUP3 DUP1 PUSH2 0x1C51 JUMP JUMPDEST SWAP1 POP PUSH2 0xEC9 PUSH2 0xEC2 DUP4 DUP7 PUSH2 0x1C8D JUMP JUMPDEST DUP7 SWAP1 PUSH2 0x860 JUMP JUMPDEST DUP2 GT ISZERO DUP1 ISZERO PUSH2 0xEEB JUMPI POP PUSH2 0xEE7 PUSH2 0xEE0 DUP4 DUP7 PUSH2 0x1C8D JUMP JUMPDEST DUP7 SWAP1 PUSH2 0x9B9 JUMP JUMPDEST DUP2 LT ISZERO JUMPDEST PUSH2 0xF2B JUMPI PUSH1 0x40 DUP1 MLOAD PUSH3 0x461BCD PUSH1 0xE5 SHL DUP2 MSTORE PUSH1 0x20 PUSH1 0x4 DUP3 ADD MSTORE PUSH1 0xC PUSH1 0x24 DUP3 ADD MSTORE PUSH12 0x17DCDC5C9D08119052531151 PUSH1 0xA2 SHL PUSH1 0x44 DUP3 ADD MSTORE SWAP1 MLOAD SWAP1 DUP2 SWAP1 SUB PUSH1 0x64 ADD SWAP1 REVERT JUMPDEST POP SWAP4 SWAP3 POP POP POP JUMP JUMPDEST PUSH1 0x0 DUP3 DUP3 MUL DUP2 DUP2 SGT ISZERO PUSH2 0xF5A JUMPI PUSH8 0xDE0B6B3A7640000 PUSH1 0x0 NOT DUP3 ADD SDIV PUSH1 0x1 ADD SWAP2 POP POP PUSH2 0x87B JUMP JUMPDEST PUSH1 0x0 DUP2 SLT ISZERO PUSH2 0xF7B JUMPI PUSH1 0x1 PUSH8 0xDE0B6B3A7640000 DUP3 DUP3 ADD SDIV SUB SWAP2 POP POP PUSH2 0x87B JUMP JUMPDEST POP PUSH1 0x0 SWAP4 SWAP3 POP POP POP JUMP JUMPDEST PUSH1 0x0 PUSH8 0x8AC7230489E80000 DUP1 DUP4 SDIV SWAP1 DUP4 SMOD DUP5 DUP3 MUL DUP6 DUP3 MUL DUP5 DUP3 SLT DUP1 ISZERO SWAP1 PUSH2 0xFAD JUMPI POP PUSH1 0x0 DUP2 SLT ISZERO JUMPDEST PUSH2 0xFCA JUMPI PUSH1 0x1 PUSH8 0x8AC7230489E80000 DUP1 DUP4 SDIV DUP5 ADD DUP3 ADD SDIV SUB PUSH2 0xFDA JUMP JUMPDEST PUSH8 0x8AC7230489E80000 DUP1 DUP3 SDIV DUP4 ADD SDIV JUMPDEST SWAP8 SWAP7 POP POP POP POP POP POP POP JUMP JUMPDEST PUSH1 0x0 PUSH8 0x8AC7230489E80000 DUP1 DUP4 SDIV SWAP1 DUP4 SMOD DUP5 DUP3 MUL DUP6 DUP3 MUL DUP5 DUP3 SGT DUP1 ISZERO SWAP1 PUSH2 0x100D JUMPI POP PUSH1 0x0 DUP2 SGT ISZERO JUMPDEST PUSH2 0xFCA JUMPI PUSH8 0x8AC7230489E80000 PUSH1 0x0 NOT DUP2 DUP4 SDIV DUP5 ADD ADD SDIV PUSH1 0x1 ADD PUSH2 0xFDA JUMP JUMPDEST PUSH1 0xC0 DUP3 ADD MLOAD PUSH1 0x20 DUP4 ADD MLOAD MLOAD PUSH1 0x0 SWAP2 DUP3 SWAP2 PUSH2 0x1045 SWAP2 PUSH2 0xAFF JUMP JUMPDEST SWAP1 POP PUSH1 0x0 DUP5 PUSH1 0x20 ADD MLOAD PUSH1 0x0 ADD MLOAD SGT PUSH2 0x1089 JUMPI PUSH2 0x1084 DUP2 PUSH2 0x107E DUP8 PUSH1 0x40 ADD MLOAD PUSH2 0xBFF DUP10 PUSH1 0x80 ADD MLOAD DUP9 PUSH1 0x20 ADD MLOAD PUSH2 0x16F7 SWAP1 SWAP2 SWAP1 PUSH4 0xFFFFFFFF AND JUMP JUMPDEST SWAP1 PUSH2 0xFE5 JUMP JUMPDEST PUSH2 0x10A8 JUMP JUMPDEST PUSH1 0x40 DUP6 ADD MLOAD PUSH1 0x80 DUP7 ADD MLOAD DUP5 MLOAD PUSH2 0x10A8 SWAP3 DUP5 SWAP3 PUSH2 0x107E SWAP3 PUSH2 0xA9F SWAP2 PUSH2 0xF33 JUMP JUMPDEST SWAP2 POP PUSH2 0x10DC PUSH2 0x10CC DUP6 PUSH1 0xC0 ADD MLOAD DUP7 PUSH1 0x20 ADD MLOAD PUSH1 0x20 ADD MLOAD PUSH2 0xAFF SWAP1 SWAP2 SWAP1 PUSH4 0xFFFFFFFF AND JUMP JUMPDEST PUSH1 0x60 DUP8 ADD MLOAD DUP6 MLOAD PUSH2 0x107E SWAP2 PUSH2 0xF33 JUMP JUMPDEST SWAP1 SWAP2 ADD SWAP5 SWAP4 POP POP POP POP JUMP JUMPDEST PUSH1 0xC0 DUP3 ADD MLOAD DUP3 MLOAD MLOAD PUSH1 0x0 SWAP2 DUP3 SWAP2 PUSH2 0x10FD SWAP2 PUSH2 0xAFF JUMP JUMPDEST DUP5 MLOAD MLOAD SWAP1 SWAP2 POP PUSH1 0x0 SGT PUSH2 0x1139 JUMPI PUSH2 0x1134 DUP2 PUSH2 0x107E DUP8 PUSH1 0x60 ADD MLOAD PUSH2 0xBFF DUP10 PUSH1 0x80 ADD MLOAD DUP9 PUSH1 0x20 ADD MLOAD PUSH1 0x0 SUB PUSH2 0x16F7 SWAP1 SWAP2 SWAP1 PUSH4 0xFFFFFFFF AND JUMP JUMPDEST PUSH2 0x1163 JUMP JUMPDEST PUSH2 0x1163 DUP2 PUSH1 0x0 SUB PUSH2 0x107E DUP8 PUSH1 0x60 ADD MLOAD PUSH2 0xA9F DUP10 PUSH1 0x80 ADD MLOAD DUP9 PUSH1 0x0 ADD MLOAD PUSH2 0xF33 SWAP1 SWAP2 SWAP1 PUSH4 0xFFFFFFFF AND JUMP JUMPDEST PUSH1 0xC0 DUP6 ADD MLOAD DUP6 MLOAD PUSH1 0x20 ADD MLOAD SWAP2 SWAP4 POP PUSH2 0x10DC SWAP2 PUSH2 0x117E SWAP2 PUSH2 0xAFF JUMP JUMPDEST PUSH1 0x40 DUP8 ADD MLOAD DUP6 MLOAD PUSH2 0x107E SWAP2 PUSH2 0xF33 JUMP JUMPDEST PUSH2 0x1196 PUSH2 0x210E JUMP JUMPDEST PUSH2 0x11BF DUP4 PUSH1 0x80 ADD MLOAD PUSH2 0x11B9 DUP5 PUSH1 0x20 ADD MLOAD DUP7 PUSH1 0x60 ADD MLOAD PUSH2 0x16F7 SWAP1 SWAP2 SWAP1 PUSH4 0xFFFFFFFF AND JUMP JUMPDEST SWAP1 PUSH2 0x120C JUMP JUMPDEST PUSH1 0x80 DUP5 ADD MLOAD DUP4 MLOAD PUSH1 0x40 DUP7 ADD MLOAD PUSH2 0x11DA SWAP3 SWAP2 PUSH2 0x11B9 SWAP2 SWAP1 PUSH2 0x16F7 JUMP JUMPDEST SUB DUP2 MSTORE PUSH1 0x20 DUP3 ADD MLOAD PUSH1 0x40 DUP5 ADD MLOAD PUSH2 0x11F0 SWAP2 PUSH2 0x16F7 JUMP JUMPDEST DUP3 MLOAD PUSH1 0x60 DUP6 ADD MLOAD PUSH2 0x1200 SWAP2 PUSH2 0x16F7 JUMP JUMPDEST ADD PUSH1 0x20 DUP3 ADD MSTORE SWAP3 SWAP2 POP POP JUMP JUMPDEST PUSH1 0x0 DUP2 PUSH2 0x121F JUMPI PUSH2 0x121F PUSH1 0x0 PUSH1 0x4 PUSH2 0x1521 JUMP JUMPDEST DUP2 PUSH8 0xDE0B6B3A7640000 DUP5 MUL DUP2 PUSH2 0xB2C JUMPI INVALID JUMPDEST PUSH1 0x0 PUSH2 0xA08 PUSH2 0x1252 DUP4 PUSH1 0x20 ADD MLOAD DUP6 PUSH1 0x20 ADD MLOAD PUSH2 0x1CE1 SWAP1 SWAP2 SWAP1 PUSH4 0xFFFFFFFF AND JUMP JUMPDEST DUP4 MLOAD DUP6 MLOAD PUSH2 0xA02 SWAP2 PUSH2 0x1CE1 JUMP JUMPDEST PUSH1 0x0 DUP2 PUSH2 0x1272 JUMPI PUSH2 0x1272 PUSH1 0x0 PUSH1 0x4 PUSH2 0x1521 JUMP JUMPDEST DUP3 PUSH2 0x127F JUMPI POP PUSH1 0x0 PUSH2 0x87B JUMP JUMPDEST PUSH8 0xDE0B6B3A7640000 DUP4 DUP2 MUL SWAP1 DUP5 DUP3 DUP2 PUSH2 0x1295 JUMPI INVALID JUMPDEST SDIV EQ PUSH2 0x12A7 JUMPI PUSH2 0x12A7 PUSH1 0x0 PUSH1 0x5 PUSH2 0x1521 JUMP JUMPDEST DUP3 DUP2 DUP2 PUSH2 0x12B0 JUMPI INVALID JUMPDEST SDIV SWAP5 SWAP4 POP POP POP POP JUMP JUMPDEST PUSH1 0x0 PUSH2 0x12C3 PUSH2 0x210E JUMP JUMPDEST PUSH2 0x12E0 DUP11 PUSH2 0x11B9 PUSH12 0x12CED32A16A1B11E8262889 PUSH1 0x26 SHL DUP3 PUSH2 0x120C JUMP JUMPDEST PUSH12 0x12CED32A16A1B11E8262889 PUSH1 0x26 SHL SWAP1 DUP2 SUB DUP3 MSTORE PUSH2 0x130B SWAP1 DUP12 SWAP1 PUSH2 0x1305 SWAP1 DUP3 PUSH2 0xD1C JUMP JUMPDEST SWAP1 PUSH2 0xD1C JUMP JUMPDEST PUSH12 0x12CED32A16A1B11E8262889 PUSH1 0x26 SHL SUB PUSH1 0x20 DUP3 ADD MSTORE PUSH2 0x1329 PUSH2 0x2128 JUMP JUMPDEST DUP6 MLOAD DUP11 SUB PUSH1 0x0 DUP2 SGT ISZERO PUSH2 0x1365 JUMPI PUSH1 0x20 DUP4 ADD MLOAD PUSH2 0x135B SWAP1 PUSH2 0x1349 SWAP1 DUP8 PUSH2 0xAFF JUMP JUMPDEST PUSH2 0x107E DUP12 PUSH2 0xBFF PUSH1 0x0 DUP7 SWAP1 SUB DUP16 PUSH2 0x16F7 JUMP JUMPDEST PUSH1 0x20 DUP4 ADD MSTORE PUSH2 0x1390 JUMP JUMPDEST DUP3 MLOAD PUSH2 0x138A SWAP1 PUSH2 0x1375 SWAP1 DUP8 PUSH2 0xAFF JUMP JUMPDEST PUSH1 0x1 ADD PUSH2 0x107E DUP12 PUSH2 0xA9F PUSH1 0x0 DUP7 SWAP1 SUB DUP16 PUSH2 0xF33 JUMP JUMPDEST PUSH1 0x20 DUP4 ADD MSTORE JUMPDEST PUSH2 0x1398 PUSH2 0x210E JUMP JUMPDEST PUSH2 0x13B7 DUP7 PUSH2 0xA66 DUP14 PUSH2 0xBFF DUP16 DUP10 PUSH1 0x20 ADD MLOAD PUSH2 0x16F7 SWAP1 SWAP2 SWAP1 PUSH4 0xFFFFFFFF AND JUMP JUMPDEST DUP2 MSTORE DUP4 MLOAD PUSH2 0x13C5 SWAP1 DUP13 PUSH2 0xF33 JUMP JUMPDEST PUSH1 0x20 DUP3 ADD DUP2 SWAP1 MSTORE PUSH2 0x13DF SWAP1 PUSH1 0x1 DUP9 ADD SWAP1 PUSH2 0xA66 SWAP1 DUP15 PUSH2 0xF33 JUMP JUMPDEST PUSH1 0x1 ADD PUSH1 0x20 DUP1 DUP4 ADD SWAP2 DUP3 MSTORE PUSH1 0x40 DUP1 MLOAD DUP1 DUP3 ADD SWAP1 SWAP2 MSTORE SWAP3 MLOAD PUSH12 0x12CED32A16A1B11E8262889 PUSH1 0x26 SHL SWAP1 DUP2 SUB DUP5 MSTORE SWAP2 MLOAD SWAP1 SWAP2 SUB SWAP1 DUP3 ADD MSTORE PUSH2 0x1423 DUP13 DUP11 DUP16 DUP15 DUP15 DUP13 DUP13 PUSH2 0x1D1A JUMP JUMPDEST PUSH1 0x0 SUB PUSH1 0x40 DUP5 ADD MSTORE PUSH1 0x20 DUP1 DUP3 ADD MLOAD SWAP1 DUP11 ADD MLOAD PUSH2 0x144A SWAP2 SWAP1 PUSH2 0x1444 SWAP1 DUP1 PUSH2 0x16F7 JUMP JUMPDEST SWAP1 PUSH2 0xF85 JUMP JUMPDEST PUSH1 0x40 DUP5 ADD DUP1 MLOAD SWAP2 SWAP1 SWAP2 ADD SWAP1 DUP2 SWAP1 MSTORE PUSH1 0x0 SLT PUSH2 0x1466 JUMPI PUSH1 0x0 PUSH2 0x1479 JUMP JUMPDEST PUSH2 0x1479 PUSH2 0x163 PUSH2 0x452 DUP6 PUSH1 0x40 ADD MLOAD PUSH2 0x962 JUMP JUMPDEST PUSH1 0x40 DUP5 ADD DUP2 SWAP1 MSTORE PUSH1 0x20 DUP5 ADD MLOAD PUSH1 0x0 SWAP2 SWAP1 SUB SGT ISZERO PUSH2 0x14D4 JUMPI PUSH2 0x14CD PUSH2 0x14B9 DUP3 PUSH1 0x20 ADD MLOAD PUSH12 0x12CED32A16A1B11E8262889 PUSH1 0x26 SHL PUSH2 0xAFF SWAP1 SWAP2 SWAP1 PUSH4 0xFFFFFFFF AND JUMP JUMPDEST PUSH1 0x40 DUP6 ADD MLOAD PUSH1 0x20 DUP7 ADD MLOAD SUB SWAP1 PUSH1 0x1 ADD PUSH2 0xFE5 JUMP JUMPDEST DUP4 MSTORE PUSH2 0x1508 JUMP JUMPDEST DUP1 MLOAD PUSH2 0x1505 SWAP1 PUSH2 0x14F4 SWAP1 PUSH12 0x12CED32A16A1B11E8262889 PUSH1 0x26 SHL SWAP1 PUSH2 0xAFF JUMP JUMPDEST PUSH1 0x40 DUP6 ADD MLOAD PUSH1 0x20 DUP7 ADD MLOAD SUB SWAP1 PUSH2 0xFE5 JUMP JUMPDEST DUP4 MSTORE JUMPDEST POP POP PUSH1 0x20 DUP7 ADD MLOAD SWAP1 MLOAD ADD SWAP2 POP POP SWAP9 SWAP8 POP POP POP POP POP POP POP POP JUMP JUMPDEST DUP2 PUSH2 0xA1D JUMPI PUSH2 0xA1D DUP2 PUSH2 0x1FC2 JUMP JUMPDEST PUSH1 0xC0 DUP3 ADD MLOAD DUP3 MLOAD MLOAD PUSH1 0x20 DUP5 ADD MLOAD MLOAD PUSH1 0x0 SWAP3 DUP4 SWAP3 PUSH2 0x154D SWAP3 SUB SWAP1 PUSH2 0xAFF JUMP JUMPDEST SWAP1 POP PUSH1 0x0 PUSH2 0x157A DUP6 PUSH1 0xC0 ADD MLOAD DUP7 PUSH1 0x0 ADD MLOAD PUSH1 0x20 ADD MLOAD DUP8 PUSH1 0x20 ADD MLOAD PUSH1 0x20 ADD MLOAD SUB PUSH2 0xAFF SWAP1 SWAP2 SWAP1 PUSH4 0xFFFFFFFF AND JUMP JUMPDEST SWAP1 POP PUSH2 0x15A3 DUP3 PUSH2 0x1444 DUP9 PUSH1 0x40 ADD MLOAD PUSH2 0xBFF DUP11 PUSH1 0x80 ADD MLOAD DUP10 PUSH1 0x20 ADD MLOAD PUSH2 0x16F7 SWAP1 SWAP2 SWAP1 PUSH4 0xFFFFFFFF AND JUMP JUMPDEST SWAP3 POP PUSH2 0x15D9 DUP2 PUSH1 0x0 DUP4 SGT PUSH2 0x15C6 JUMPI PUSH1 0x60 DUP9 ADD MLOAD DUP7 MLOAD PUSH2 0x15C1 SWAP2 PUSH2 0xF33 JUMP JUMPDEST PUSH2 0x1444 JUMP JUMPDEST PUSH1 0x60 DUP9 ADD MLOAD PUSH1 0x20 DUP8 ADD MLOAD PUSH2 0x1444 SWAP2 PUSH2 0x16F7 JUMP JUMPDEST SWAP1 SWAP3 ADD SWAP6 SWAP5 POP POP POP POP POP JUMP JUMPDEST PUSH1 0xC0 DUP3 ADD MLOAD DUP3 MLOAD MLOAD PUSH1 0x20 DUP5 ADD MLOAD MLOAD PUSH1 0x0 SWAP3 DUP4 SWAP3 PUSH2 0x1603 SWAP3 SUB SWAP1 PUSH2 0xAFF JUMP JUMPDEST SWAP1 POP PUSH1 0x0 PUSH2 0x1630 DUP6 PUSH1 0xC0 ADD MLOAD DUP7 PUSH1 0x20 ADD MLOAD PUSH1 0x20 ADD MLOAD DUP8 PUSH1 0x0 ADD MLOAD PUSH1 0x20 ADD MLOAD SUB PUSH2 0xAFF SWAP1 SWAP2 SWAP1 PUSH4 0xFFFFFFFF AND JUMP JUMPDEST SWAP1 POP PUSH2 0x1659 DUP3 PUSH2 0x1444 DUP9 PUSH1 0x60 ADD MLOAD PUSH2 0xBFF DUP11 PUSH1 0x80 ADD MLOAD DUP10 PUSH1 0x20 ADD MLOAD PUSH2 0x16F7 SWAP1 SWAP2 SWAP1 PUSH4 0xFFFFFFFF AND JUMP JUMPDEST SWAP3 POP PUSH2 0x15D9 DUP2 PUSH1 0x0 DUP4 SGT PUSH2 0x1677 JUMPI PUSH1 0x40 DUP9 ADD MLOAD DUP7 MLOAD PUSH2 0x15C1 SWAP2 PUSH2 0xF33 JUMP JUMPDEST PUSH1 0x40 DUP9 ADD MLOAD PUSH1 0x20 DUP8 ADD MLOAD PUSH2 0x1444 SWAP2 PUSH2 0x16F7 JUMP JUMPDEST PUSH1 0x0 DUP3 DUP3 MUL DUP4 ISZERO DUP1 PUSH2 0x16A4 JUMPI POP DUP3 DUP5 DUP3 DUP2 PUSH2 0x16A1 JUMPI INVALID JUMPDEST SDIV EQ JUMPDEST PUSH2 0x16B4 JUMPI PUSH2 0x16B4 PUSH1 0x0 PUSH1 0x3 PUSH2 0x1521 JUMP JUMPDEST PUSH12 0x12CED32A16A1B11E8262889 PUSH1 0x26 SHL DUP2 PUSH2 0x12B0 JUMP JUMPDEST PUSH2 0x16DA DUP2 PUSH3 0x23ACA9 PUSH1 0xE9 SHL PUSH2 0x2015 JUMP JUMPDEST POP JUMP JUMPDEST PUSH1 0x0 PUSH12 0x12CED32A16A1B11E8262889 PUSH1 0x26 SHL DUP4 DUP4 MUL PUSH2 0xB2C JUMP JUMPDEST PUSH1 0x0 PUSH8 0xDE0B6B3A7640000 DUP4 DUP4 MUL PUSH2 0xB2C JUMP JUMPDEST PUSH1 0x0 DUP1 PUSH2 0x1744 DUP5 PUSH1 0x60 ADD MLOAD PUSH2 0xBFF DUP7 PUSH1 0x40 ADD MLOAD PUSH1 0x2 MUL PUSH2 0x1733 DUP10 DUP11 PUSH2 0xF33 SWAP1 SWAP2 SWAP1 PUSH4 0xFFFFFFFF AND JUMP JUMPDEST PUSH2 0x173D DUP12 DUP1 PUSH2 0x16F7 JUMP JUMPDEST SUB SWAP1 PUSH2 0x16F7 JUMP JUMPDEST SWAP1 POP PUSH1 0x0 PUSH2 0x1755 DUP7 PUSH1 0x2 DUP10 MUL PUSH2 0x16F7 JUMP JUMPDEST PUSH1 0x60 DUP7 ADD MLOAD SWAP1 SWAP2 POP PUSH2 0x176B SWAP1 PUSH2 0xBFF DUP4 DUP3 PUSH2 0x16F7 JUMP JUMPDEST PUSH1 0x40 DUP7 ADD MLOAD PUSH2 0x177E SWAP1 PUSH2 0xBFF DUP5 DUP3 PUSH2 0x16F7 JUMP JUMPDEST DUP4 ADD SUB SWAP2 POP PUSH1 0x0 PUSH2 0x17B0 DUP7 PUSH1 0x80 ADD MLOAD PUSH2 0x11B9 DUP9 PUSH1 0x80 ADD MLOAD PUSH2 0x11B9 DUP10 PUSH1 0x60 ADD MLOAD DUP11 PUSH1 0x80 ADD MLOAD PUSH2 0x16DD SWAP1 SWAP2 SWAP1 PUSH4 0xFFFFFFFF AND JUMP JUMPDEST PUSH1 0x40 DUP7 ADD MLOAD PUSH1 0xA0 DUP8 ADD MLOAD PUSH2 0x17C3 SWAP2 PUSH2 0x16DD JUMP JUMPDEST ADD SWAP1 POP PUSH2 0x17FC DUP7 PUSH1 0x80 ADD MLOAD PUSH2 0x17E9 DUP8 PUSH1 0x60 ADD MLOAD DUP9 PUSH1 0xA0 ADD MLOAD PUSH2 0x16DD SWAP1 SWAP2 SWAP1 PUSH4 0xFFFFFFFF AND JUMP JUMPDEST PUSH1 0x40 DUP9 ADD MLOAD PUSH1 0x80 DUP10 ADD MLOAD PUSH2 0xBA1 SWAP2 PUSH2 0x16DD JUMP JUMPDEST PUSH1 0xC0 DUP7 ADD MLOAD SWAP2 ADD SWAP1 PUSH2 0x181F SWAP1 PUSH2 0x1818 SWAP1 PUSH2 0xA39 DUP2 DUP2 DUP2 DUP1 PUSH2 0x16DD JUMP JUMPDEST DUP3 SWAP1 PUSH2 0xAFF JUMP JUMPDEST SWAP1 POP PUSH2 0x182B DUP4 DUP3 PUSH2 0xF85 JUMP JUMPDEST SWAP9 SWAP8 POP POP POP POP POP POP POP POP JUMP JUMPDEST PUSH1 0x60 DUP3 ADD MLOAD PUSH1 0x0 SWAP1 DUP2 SWAP1 PUSH2 0x1851 SWAP1 PUSH2 0xA9F DUP2 DUP2 DUP10 DUP1 PUSH2 0xF33 JUMP JUMPDEST PUSH1 0x40 DUP6 ADD MLOAD PUSH2 0x1866 SWAP1 PUSH2 0xA9F DUP2 DUP2 DUP12 DUP1 PUSH2 0xF33 JUMP JUMPDEST ADD SWAP1 POP PUSH2 0x188F DUP5 PUSH1 0x60 ADD MLOAD PUSH2 0xBFF DUP7 PUSH1 0x40 ADD MLOAD PUSH1 0x2 MUL PUSH2 0xBFF DUP10 DUP12 PUSH2 0x16F7 SWAP1 SWAP2 SWAP1 PUSH4 0xFFFFFFFF AND JUMP JUMPDEST PUSH1 0x80 DUP6 ADD MLOAD PUSH1 0x60 DUP6 ADD MLOAD SWAP2 SWAP1 SWAP3 SUB SWAP2 PUSH1 0x0 SWAP2 PUSH2 0x18B4 SWAP2 SWAP1 PUSH2 0x11B9 SWAP1 DUP3 SWAP1 DUP3 SWAP1 DUP1 PUSH2 0x16DD JUMP JUMPDEST PUSH2 0x18DA DUP7 PUSH1 0x80 ADD MLOAD PUSH2 0x11B9 DUP8 PUSH1 0x60 ADD MLOAD DUP9 PUSH1 0x40 ADD MLOAD PUSH1 0x2 MUL PUSH2 0x16DD SWAP1 SWAP2 SWAP1 PUSH4 0xFFFFFFFF AND JUMP JUMPDEST PUSH1 0x40 DUP7 ADD MLOAD PUSH2 0x18E9 SWAP1 DUP1 PUSH2 0x16DD JUMP JUMPDEST PUSH1 0xC0 DUP8 ADD MLOAD SWAP2 ADD SWAP2 SWAP1 SWAP2 ADD SWAP2 POP PUSH2 0x190A SWAP1 PUSH2 0x1818 SWAP1 PUSH2 0xA39 DUP2 DUP2 DUP2 DUP1 PUSH2 0x16DD JUMP JUMPDEST SWAP1 POP PUSH2 0x191A PUSH1 0x0 DUP4 SWAP1 SUB DUP3 PUSH2 0xF85 JUMP JUMPDEST SWAP3 POP PUSH2 0x195C PUSH2 0x1945 DUP6 PUSH1 0xC0 ADD MLOAD PUSH12 0x12CED32A16A1B11E8262889 PUSH1 0x26 SHL PUSH2 0xAFF SWAP1 SWAP2 SWAP1 PUSH4 0xFFFFFFFF AND JUMP JUMPDEST PUSH1 0x80 DUP8 ADD MLOAD PUSH2 0x1444 SWAP1 PUSH2 0x11B9 PUSH1 0x8 NOT DUP8 ADD DUP3 PUSH2 0x120C JUMP JUMPDEST SWAP1 SWAP3 ADD SWAP7 SWAP6 POP POP POP POP POP POP JUMP JUMPDEST PUSH1 0x40 DUP3 ADD MLOAD PUSH1 0x0 SWAP1 DUP2 SWAP1 PUSH2 0x1983 SWAP1 PUSH2 0xA9F DUP2 DUP2 DUP10 DUP1 PUSH2 0xF33 JUMP JUMPDEST PUSH1 0x60 DUP6 ADD MLOAD PUSH2 0x1998 SWAP1 PUSH2 0xA9F DUP2 DUP2 DUP12 DUP1 PUSH2 0xF33 JUMP JUMPDEST ADD SWAP1 POP PUSH2 0x19C1 DUP5 PUSH1 0x40 ADD MLOAD PUSH2 0xA9F DUP7 PUSH1 0x60 ADD MLOAD PUSH1 0x2 MUL PUSH2 0xA9F DUP10 DUP12 PUSH2 0xF33 SWAP1 SWAP2 SWAP1 PUSH4 0xFFFFFFFF AND JUMP JUMPDEST PUSH1 0x80 DUP6 DUP2 ADD MLOAD SWAP1 DUP6 ADD MLOAD SWAP3 SWAP1 SWAP2 ADD SWAP2 PUSH1 0x0 SWAP2 PUSH2 0x19E5 SWAP2 PUSH2 0x11B9 SWAP1 DUP3 SWAP1 DUP3 SWAP1 DUP1 PUSH2 0x16DD JUMP JUMPDEST PUSH1 0xA0 DUP6 ADD MLOAD PUSH2 0x19F4 SWAP1 DUP1 PUSH2 0x16DD JUMP JUMPDEST ADD SWAP1 POP PUSH2 0x1A1D DUP6 PUSH1 0x80 ADD MLOAD PUSH2 0x11B9 DUP7 PUSH1 0x80 ADD MLOAD DUP8 PUSH1 0xA0 ADD MLOAD PUSH1 0x2 MUL PUSH2 0x16DD SWAP1 SWAP2 SWAP1 PUSH4 0xFFFFFFFF AND JUMP JUMPDEST PUSH1 0xC0 DUP6 ADD MLOAD SWAP2 ADD SWAP1 PUSH2 0x1A39 SWAP1 PUSH2 0x1818 SWAP1 PUSH2 0xA39 DUP2 DUP2 DUP2 DUP1 PUSH2 0x16DD JUMP JUMPDEST SWAP1 POP PUSH2 0x1A49 PUSH1 0x0 DUP4 SWAP1 SUB DUP3 PUSH2 0xF85 JUMP JUMPDEST SWAP3 POP PUSH2 0x195C PUSH2 0x1A74 DUP6 PUSH1 0xC0 ADD MLOAD PUSH12 0x12CED32A16A1B11E8262889 PUSH1 0x26 SHL PUSH2 0xAFF SWAP1 SWAP2 SWAP1 PUSH4 0xFFFFFFFF AND JUMP JUMPDEST PUSH1 0x8 NOT DUP5 ADD SWAP1 PUSH2 0xF85 JUMP JUMPDEST PUSH1 0x0 PUSH8 0xDE0B6B3A7640000 DUP3 LT PUSH2 0x1AAC JUMPI PUSH8 0xDE0B6B3A7640000 PUSH2 0x1AA4 DUP2 DUP5 DIV PUSH2 0x2076 JUMP JUMPDEST SHL SWAP1 POP PUSH2 0x8C8 JUMP JUMPDEST PUSH1 0xA DUP3 GT PUSH2 0x1ABF JUMPI POP PUSH4 0xBC7C871C PUSH2 0x8C8 JUMP JUMPDEST PUSH1 0x64 DUP3 GT PUSH2 0x1AD3 JUMPI POP PUSH5 0x2540BE400 PUSH2 0x8C8 JUMP JUMPDEST PUSH2 0x3E8 DUP3 GT PUSH2 0x1AE8 JUMPI POP PUSH5 0x75CDD4719 PUSH2 0x8C8 JUMP JUMPDEST PUSH2 0x2710 DUP3 GT PUSH2 0x1AFD JUMPI POP PUSH5 0x174876E800 PUSH2 0x8C8 JUMP JUMPDEST PUSH3 0x186A0 DUP3 GT PUSH2 0x1B13 JUMPI POP PUSH5 0x49A0A4C700 PUSH2 0x8C8 JUMP JUMPDEST PUSH3 0xF4240 DUP3 GT PUSH2 0x1B29 JUMPI POP PUSH5 0xE8D4A51000 PUSH2 0x8C8 JUMP JUMPDEST PUSH3 0x989680 DUP3 GT PUSH2 0x1B40 JUMPI POP PUSH6 0x2E0466FC608 PUSH2 0x8C8 JUMP JUMPDEST PUSH4 0x5F5E100 DUP3 GT PUSH2 0x1B58 JUMPI POP PUSH6 0x9184E72A000 PUSH2 0x8C8 JUMP JUMPDEST PUSH4 0x3B9ACA00 DUP3 GT PUSH2 0x1B70 JUMPI POP PUSH6 0x1CC2C05DBC53 PUSH2 0x8C8 JUMP JUMPDEST PUSH5 0x2540BE400 DUP3 GT PUSH2 0x1B89 JUMPI POP PUSH6 0x5AF3107A4000 PUSH2 0x8C8 JUMP JUMPDEST PUSH5 0x174876E800 DUP3 GT PUSH2 0x1BA3 JUMPI POP PUSH7 0x11F9B83A95B45 PUSH2 0x8C8 JUMP JUMPDEST PUSH5 0xE8D4A51000 DUP3 GT PUSH2 0x1BBD JUMPI POP PUSH7 0x38D7EA4C68000 PUSH2 0x8C8 JUMP JUMPDEST PUSH6 0x9184E72A000 DUP3 GT PUSH2 0x1BD8 JUMPI POP PUSH7 0xB3C13249D90BB PUSH2 0x8C8 JUMP JUMPDEST PUSH6 0x5AF3107A4000 DUP3 GT PUSH2 0x1BF3 JUMPI POP PUSH7 0x2386F26FC10000 PUSH2 0x8C8 JUMP JUMPDEST PUSH7 0x38D7EA4C68000 DUP3 GT PUSH2 0x1C0F JUMPI POP PUSH7 0x7058BF6E27A751 PUSH2 0x8C8 JUMP JUMPDEST PUSH7 0x2386F26FC10000 DUP3 GT PUSH2 0x1C2C JUMPI POP PUSH8 0x16345785D8A0000 PUSH2 0x8C8 JUMP JUMPDEST PUSH8 0x16345785D8A0000 DUP3 GT PUSH2 0x1C4A JUMPI POP PUSH8 0x463777A4D8C892D PUSH2 0x8C8 JUMP JUMPDEST POP DUP1 PUSH2 0x8C8 JUMP JUMPDEST PUSH1 0x0 DUP3 DUP3 MUL DUP4 ISZERO DUP1 PUSH2 0x1C6B JUMPI POP DUP3 DUP5 DUP3 DUP2 PUSH2 0x1C68 JUMPI INVALID JUMPDEST DIV EQ JUMPDEST PUSH2 0x1C7B JUMPI PUSH2 0x1C7B PUSH1 0x0 PUSH1 0x3 PUSH2 0x1521 JUMP JUMPDEST PUSH8 0xDE0B6B3A7640000 SWAP1 DIV SWAP4 SWAP3 POP POP POP JUMP JUMPDEST PUSH1 0x0 DUP3 DUP3 MUL DUP4 ISZERO DUP1 PUSH2 0x1CA7 JUMPI POP DUP3 DUP5 DUP3 DUP2 PUSH2 0x1CA4 JUMPI INVALID JUMPDEST DIV EQ JUMPDEST PUSH2 0x1CB7 JUMPI PUSH2 0x1CB7 PUSH1 0x0 PUSH1 0x3 PUSH2 0x1521 JUMP JUMPDEST DUP1 PUSH2 0x1CC6 JUMPI PUSH1 0x0 SWAP2 POP POP PUSH2 0x87B JUMP JUMPDEST PUSH8 0xDE0B6B3A7640000 PUSH1 0x0 NOT DUP3 ADD DIV PUSH1 0x1 ADD SWAP2 POP POP SWAP3 SWAP2 POP POP JUMP JUMPDEST PUSH1 0x0 DUP3 DUP3 MUL DUP4 ISZERO DUP1 PUSH2 0x1CFB JUMPI POP DUP3 DUP5 DUP3 DUP2 PUSH2 0x1CF8 JUMPI INVALID JUMPDEST SDIV EQ JUMPDEST PUSH2 0x1D0B JUMPI PUSH2 0x1D0B PUSH1 0x0 PUSH1 0x3 PUSH2 0x1521 JUMP JUMPDEST PUSH8 0xDE0B6B3A7640000 DUP2 PUSH2 0x12B0 JUMP JUMPDEST PUSH1 0x0 DUP1 PUSH1 0x40 MLOAD DUP1 PUSH1 0x40 ADD PUSH1 0x40 MSTORE DUP1 PUSH2 0x1D3B DUP6 DUP7 PUSH2 0x16DD SWAP1 SWAP2 SWAP1 PUSH4 0xFFFFFFFF AND JUMP JUMPDEST DUP2 MSTORE DUP10 MLOAD PUSH1 0x20 SWAP1 SWAP2 ADD SWAP1 PUSH2 0x1D4F SWAP1 DUP1 PUSH2 0xF33 JUMP JUMPDEST SWAP1 MSTORE SWAP1 POP PUSH2 0x1D5B PUSH2 0x2128 JUMP JUMPDEST DUP2 MLOAD PUSH1 0x20 DUP7 ADD MLOAD DUP7 MLOAD PUSH1 0x0 SWAP3 PUSH2 0x1D76 SWAP3 SWAP1 SWAP2 PUSH2 0xA66 SWAP2 PUSH2 0x16DD JUMP JUMPDEST SWAP1 POP PUSH1 0x0 DUP2 SGT ISZERO PUSH2 0x1DB0 JUMPI PUSH1 0x20 DUP4 ADD MLOAD PUSH2 0x1D93 SWAP1 PUSH1 0x2 DUP11 MUL PUSH2 0xF33 JUMP JUMPDEST DUP1 DUP4 MSTORE PUSH2 0x1DA9 SWAP1 PUSH1 0x7 DUP4 ADD SWAP1 PUSH2 0x107E SWAP1 DUP11 PUSH2 0xF33 JUMP JUMPDEST DUP3 MSTORE PUSH2 0x1DDE JUMP JUMPDEST PUSH1 0x20 DUP11 ADD MLOAD PUSH2 0x1DC8 SWAP1 PUSH1 0x2 DUP11 MUL SWAP1 PUSH2 0xBFF SWAP1 DUP1 PUSH2 0x16F7 JUMP JUMPDEST DUP1 DUP4 MSTORE PUSH2 0x1DDB SWAP1 DUP3 SWAP1 PUSH2 0x107E SWAP1 DUP11 PUSH2 0x16F7 JUMP JUMPDEST DUP3 MSTORE JUMPDEST DUP6 MLOAD PUSH1 0x0 SGT ISZERO PUSH2 0x1E26 JUMPI DUP6 MLOAD PUSH2 0x1E1C SWAP1 PUSH2 0x1DF8 SWAP1 DUP8 PUSH2 0xAFF JUMP JUMPDEST PUSH1 0x0 SUB PUSH1 0x3 ADD PUSH2 0x107E DUP10 PUSH1 0x2 MUL PUSH2 0xA9F DUP16 DUP16 PUSH1 0x0 ADD MLOAD PUSH2 0xF33 SWAP1 SWAP2 SWAP1 PUSH4 0xFFFFFFFF AND JUMP JUMPDEST PUSH1 0x20 DUP4 ADD MSTORE PUSH2 0x1E5D JUMP JUMPDEST DUP6 MLOAD PUSH2 0x1E57 SWAP1 PUSH2 0x1E36 SWAP1 DUP8 PUSH2 0xAFF JUMP JUMPDEST PUSH2 0x107E DUP10 PUSH1 0x2 MUL PUSH2 0xBFF DUP16 DUP16 PUSH1 0x20 ADD MLOAD PUSH1 0x0 SUB PUSH2 0x16F7 SWAP1 SWAP2 SWAP1 PUSH4 0xFFFFFFFF AND JUMP JUMPDEST PUSH1 0x20 DUP4 ADD MSTORE JUMPDEST PUSH1 0x20 DUP1 DUP4 ADD MLOAD DUP4 MLOAD ADD DUP4 MSTORE DUP4 MLOAD SWAP1 DUP8 ADD MLOAD PUSH2 0x1E7D SWAP2 SWAP1 PUSH2 0xA66 SWAP1 DUP1 PUSH2 0x16DD JUMP JUMPDEST PUSH1 0x7 ADD SWAP1 POP PUSH2 0x1E99 DUP9 DUP5 PUSH1 0x20 ADD MLOAD PUSH2 0xF33 SWAP1 SWAP2 SWAP1 PUSH4 0xFFFFFFFF AND JUMP JUMPDEST PUSH1 0x20 DUP4 ADD DUP2 SWAP1 MSTORE PUSH2 0x1EB0 SWAP1 DUP3 SWAP1 PUSH2 0x107E SWAP1 DUP12 PUSH2 0xF33 JUMP JUMPDEST PUSH1 0x20 DUP1 DUP5 ADD SWAP2 SWAP1 SWAP2 MSTORE DUP7 ADD MLOAD PUSH2 0x1EEB SWAP1 PUSH2 0x1ECA SWAP1 DUP8 PUSH2 0xAFF JUMP JUMPDEST PUSH2 0x107E DUP11 PUSH1 0x2 MUL PUSH2 0xBFF DUP16 DUP16 PUSH1 0x20 ADD MLOAD PUSH1 0x0 SUB PUSH2 0x16F7 SWAP1 SWAP2 SWAP1 PUSH4 0xFFFFFFFF AND JUMP JUMPDEST PUSH1 0x40 DUP4 ADD MSTORE PUSH2 0x1EFA DUP12 DUP1 PUSH2 0xF33 JUMP JUMPDEST PUSH1 0x40 DUP4 ADD MLOAD PUSH1 0x20 DUP5 ADD DUP1 MLOAD SWAP1 SWAP2 ADD SWAP2 SWAP1 SWAP2 ADD SWAP1 DUP2 SWAP1 MSTORE PUSH1 0x0 SLT PUSH2 0x1F2B JUMPI PUSH1 0x20 DUP3 ADD MLOAD PUSH2 0x1F26 SWAP1 DUP11 PUSH2 0x120C JUMP JUMPDEST PUSH2 0x1F3A JUMP JUMPDEST PUSH1 0x20 DUP3 ADD MLOAD PUSH2 0x1F3A SWAP1 DUP11 PUSH2 0xD1C JUMP JUMPDEST PUSH1 0x20 DUP4 ADD DUP2 SWAP1 MSTORE DUP3 MLOAD ADD DUP1 DUP4 MSTORE PUSH1 0x0 SLT PUSH2 0x1F5F JUMPI DUP2 MLOAD PUSH2 0x1F5A SWAP1 DUP11 PUSH2 0x120C JUMP JUMPDEST PUSH2 0x1F6B JUMP JUMPDEST DUP2 MLOAD PUSH2 0x1F6B SWAP1 DUP11 PUSH2 0xD1C JUMP JUMPDEST DUP3 MSTORE DUP3 MLOAD DUP7 MLOAD PUSH2 0x1F80 SWAP2 SWAP1 PUSH2 0xA66 SWAP1 DUP1 PUSH2 0x16DD JUMP JUMPDEST PUSH1 0x7 ADD SWAP1 POP PUSH1 0x0 PUSH2 0x1FA2 DUP9 PUSH2 0xA9F DUP11 DUP8 PUSH1 0x20 ADD MLOAD PUSH2 0xF33 SWAP1 SWAP2 SWAP1 PUSH4 0xFFFFFFFF AND JUMP JUMPDEST DUP4 MLOAD SWAP1 SWAP2 POP PUSH2 0x1FB1 DUP3 DUP5 PUSH2 0xFE5 JUMP JUMPDEST ADD SWAP13 SWAP12 POP POP POP POP POP POP POP POP POP POP POP POP JUMP JUMPDEST PUSH3 0x461BCD PUSH1 0xE5 SHL PUSH1 0x0 SWAP1 DUP2 MSTORE PUSH1 0x20 PUSH1 0x4 MSTORE PUSH1 0x7 PUSH1 0x24 MSTORE PUSH7 0x42414C23000030 PUSH1 0xA DUP1 DUP5 DIV DUP2 DUP2 MOD PUSH1 0x30 SWAP1 DUP2 ADD PUSH1 0x8 SHL SWAP6 DUP4 SWAP1 MOD SWAP6 SWAP1 SWAP6 ADD SWAP1 DUP3 SWAP1 DIV SWAP2 DUP3 MOD SWAP1 SWAP5 ADD PUSH1 0x10 SHL SWAP4 SWAP1 SWAP4 ADD ADD PUSH1 0xC8 SHL PUSH1 0x44 MSTORE PUSH1 0x64 SWAP1 REVERT JUMPDEST PUSH3 0x461BCD PUSH1 0xE5 SHL PUSH1 0x0 SWAP1 DUP2 MSTORE PUSH1 0x20 PUSH1 0x4 MSTORE PUSH1 0x7 PUSH1 0x24 MSTORE PUSH1 0xA DUP1 DUP5 DIV DUP2 DUP2 MOD PUSH1 0x30 SWAP1 DUP2 ADD PUSH1 0x8 SHL SWAP6 DUP4 SWAP1 MOD SWAP6 SWAP1 SWAP6 ADD SWAP1 DUP3 SWAP1 DIV SWAP2 DUP3 MOD DUP6 ADD PUSH1 0x10 SHL ADD PUSH1 0x23 PUSH4 0xFFFFFF00 PUSH1 0xE0 DUP7 SWAP1 SHR AND ADD PUSH1 0x18 SHL ADD SWAP1 SWAP4 ADD PUSH1 0xC8 SHL PUSH1 0x44 MSTORE PUSH1 0xE8 DUP3 SWAP1 SHR SWAP1 PUSH1 0x64 SWAP1 REVERT JUMPDEST PUSH1 0x0 PUSH1 0x1 PUSH1 0x80 SHL DUP3 LT PUSH2 0x208E JUMPI PUSH1 0x80 SWAP2 SWAP1 SWAP2 SHR SWAP1 PUSH1 0x40 ADD JUMPDEST PUSH9 0x10000000000000000 DUP3 LT PUSH2 0x20A9 JUMPI PUSH1 0x40 SWAP2 SWAP1 SWAP2 SHR SWAP1 PUSH1 0x20 ADD JUMPDEST PUSH5 0x100000000 DUP3 LT PUSH2 0x20C0 JUMPI PUSH1 0x20 SWAP2 SWAP1 SWAP2 SHR SWAP1 PUSH1 0x10 ADD JUMPDEST PUSH3 0x10000 DUP3 LT PUSH2 0x20D5 JUMPI PUSH1 0x10 SWAP2 SWAP1 SWAP2 SHR SWAP1 PUSH1 0x8 ADD JUMPDEST PUSH2 0x100 DUP3 LT PUSH2 0x20E9 JUMPI PUSH1 0x8 SWAP2 SWAP1 SWAP2 SHR SWAP1 PUSH1 0x4 ADD JUMPDEST PUSH1 0x10 DUP3 LT PUSH2 0x20FC JUMPI PUSH1 0x4 SWAP2 SWAP1 SWAP2 SHR SWAP1 PUSH1 0x2 ADD JUMPDEST PUSH1 0x4 DUP3 LT PUSH2 0x8C8 JUMPI PUSH1 0x1 ADD SWAP2 SWAP1 POP JUMP JUMPDEST INVALID JUMPDEST PUSH1 0x40 MLOAD DUP1 PUSH1 0x40 ADD PUSH1 0x40 MSTORE DUP1 PUSH1 0x0 DUP2 MSTORE PUSH1 0x20 ADD PUSH1 0x0 DUP2 MSTORE POP SWAP1 JUMP JUMPDEST PUSH1 0x40 MLOAD DUP1 PUSH1 0x60 ADD PUSH1 0x40 MSTORE DUP1 PUSH1 0x0 DUP2 MSTORE PUSH1 0x20 ADD PUSH1 0x0 DUP2 MSTORE PUSH1 0x20 ADD PUSH1 0x0 DUP2 MSTORE POP SWAP1 JUMP JUMPDEST PUSH1 0x0 DUP3 PUSH1 0x1F DUP4 ADD SLT PUSH2 0x2159 JUMPI DUP1 DUP2 REVERT JUMPDEST DUP2 CALLDATALOAD PUSH1 0x20 PUSH8 0xFFFFFFFFFFFFFFFF DUP1 DUP4 GT ISZERO PUSH2 0x2170 JUMPI INVALID JUMPDEST DUP2 DUP4 MUL PUSH1 0x40 MLOAD DUP4 DUP3 DUP3 ADD ADD DUP2 DUP2 LT DUP5 DUP3 GT OR ISZERO PUSH2 0x2189 JUMPI INVALID JUMPDEST PUSH1 0x40 MSTORE DUP5 DUP2 MSTORE DUP4 DUP2 ADD SWAP3 POP DUP7 DUP5 ADD DUP3 DUP9 ADD DUP6 ADD DUP10 LT ISZERO PUSH2 0x21A7 JUMPI DUP7 DUP8 REVERT JUMPDEST DUP7 SWAP3 POP JUMPDEST DUP6 DUP4 LT ISZERO PUSH2 0x21C9 JUMPI DUP1 CALLDATALOAD DUP5 MSTORE SWAP3 DUP5 ADD SWAP3 PUSH1 0x1 SWAP3 SWAP1 SWAP3 ADD SWAP2 DUP5 ADD PUSH2 0x21AB JUMP JUMPDEST POP SWAP8 SWAP7 POP POP POP POP POP POP POP JUMP JUMPDEST PUSH1 0x0 PUSH2 0x120 DUP3 DUP5 SUB SLT ISZERO PUSH2 0x21E7 JUMPI DUP1 DUP2 REVERT JUMPDEST PUSH1 0x40 MLOAD PUSH1 0xE0 DUP2 ADD DUP2 DUP2 LT PUSH8 0xFFFFFFFFFFFFFFFF DUP3 GT OR ISZERO PUSH2 0x2204 JUMPI INVALID JUMPDEST PUSH1 0x40 MSTORE SWAP1 POP DUP1 PUSH2 0x2214 DUP5 DUP5 PUSH2 0x22CB JUMP JUMPDEST DUP2 MSTORE PUSH2 0x2223 DUP5 PUSH1 0x40 DUP6 ADD PUSH2 0x22CB JUMP JUMPDEST PUSH1 0x20 DUP3 ADD MSTORE PUSH1 0x80 DUP4 ADD CALLDATALOAD PUSH1 0x40 DUP3 ADD MSTORE PUSH1 0xA0 DUP4 ADD CALLDATALOAD PUSH1 0x60 DUP3 ADD MSTORE PUSH1 0xC0 DUP4 ADD CALLDATALOAD PUSH1 0x80 DUP3 ADD MSTORE PUSH1 0xE0 DUP4 ADD CALLDATALOAD PUSH1 0xA0 DUP3 ADD MSTORE PUSH2 0x100 DUP4 ADD CALLDATALOAD PUSH1 0xC0 DUP3 ADD MSTORE POP SWAP3 SWAP2 POP POP JUMP JUMPDEST PUSH1 0x0 PUSH1 0xA0 DUP3 DUP5 SUB SLT ISZERO PUSH2 0x2273 JUMPI DUP1 DUP2 REVERT JUMPDEST PUSH1 0x40 MLOAD PUSH1 0xA0 DUP2 ADD DUP2 DUP2 LT PUSH8 0xFFFFFFFFFFFFFFFF DUP3 GT OR ISZERO PUSH2 0x2290 JUMPI INVALID JUMPDEST DUP1 PUSH1 0x40 MSTORE POP DUP1 SWAP2 POP DUP3 CALLDATALOAD DUP2 MSTORE PUSH1 0x20 DUP4 ADD CALLDATALOAD PUSH1 0x20 DUP3 ADD MSTORE PUSH1 0x40 DUP4 ADD CALLDATALOAD PUSH1 0x40 DUP3 ADD MSTORE PUSH1 0x60 DUP4 ADD CALLDATALOAD PUSH1 0x60 DUP3 ADD MSTORE PUSH1 0x80 DUP4 ADD CALLDATALOAD PUSH1 0x80 DUP3 ADD MSTORE POP SWAP3 SWAP2 POP POP JUMP JUMPDEST PUSH1 0x0 PUSH1 0x40 DUP3 DUP5 SUB SLT ISZERO PUSH2 0x22DC JUMPI DUP1 DUP2 REVERT JUMPDEST PUSH1 0x40 MLOAD PUSH1 0x40 DUP2 ADD DUP2 DUP2 LT PUSH8 0xFFFFFFFFFFFFFFFF DUP3 GT OR ISZERO PUSH2 0x22F9 JUMPI INVALID JUMPDEST PUSH1 0x40 MSTORE DUP3 CALLDATALOAD DUP2 MSTORE PUSH1 0x20 SWAP3 DUP4 ADD CALLDATALOAD SWAP3 DUP2 ADD SWAP3 SWAP1 SWAP3 MSTORE POP SWAP2 SWAP1 POP JUMP JUMPDEST PUSH1 0x0 DUP1 PUSH1 0x0 PUSH2 0x1E0 DUP5 DUP7 SUB SLT ISZERO PUSH2 0x2328 JUMPI DUP3 DUP4 REVERT JUMPDEST DUP4 CALLDATALOAD PUSH8 0xFFFFFFFFFFFFFFFF DUP2 GT ISZERO PUSH2 0x233E JUMPI DUP4 DUP5 REVERT JUMPDEST PUSH2 0x234A DUP7 DUP3 DUP8 ADD PUSH2 0x2149 JUMP JUMPDEST SWAP4 POP POP PUSH2 0x235A DUP6 PUSH1 0x20 DUP7 ADD PUSH2 0x2262 JUMP JUMPDEST SWAP2 POP PUSH2 0x2369 DUP6 PUSH1 0xC0 DUP7 ADD PUSH2 0x21D5 JUMP JUMPDEST SWAP1 POP SWAP3 POP SWAP3 POP SWAP3 JUMP JUMPDEST PUSH1 0x0 DUP1 PUSH1 0x0 DUP1 PUSH2 0x200 DUP6 DUP8 SUB SLT ISZERO PUSH2 0x2388 JUMPI DUP1 DUP2 REVERT JUMPDEST DUP5 CALLDATALOAD PUSH8 0xFFFFFFFFFFFFFFFF DUP2 GT ISZERO PUSH2 0x239E JUMPI DUP2 DUP3 REVERT JUMPDEST PUSH2 0x23AA DUP8 DUP3 DUP9 ADD PUSH2 0x2149 JUMP JUMPDEST SWAP5 POP POP PUSH2 0x23BA DUP7 PUSH1 0x20 DUP8 ADD PUSH2 0x2262 JUMP JUMPDEST SWAP3 POP PUSH2 0x23C9 DUP7 PUSH1 0xC0 DUP8 ADD PUSH2 0x21D5 JUMP JUMPDEST SWAP4 SWAP7 SWAP3 SWAP6 POP SWAP3 SWAP4 PUSH2 0x1E0 ADD CALLDATALOAD SWAP3 POP POP JUMP JUMPDEST PUSH1 0x0 DUP1 PUSH1 0x0 DUP1 PUSH1 0x0 DUP1 PUSH2 0x260 DUP8 DUP10 SUB SLT ISZERO PUSH2 0x23F3 JUMPI DUP2 DUP3 REVERT JUMPDEST DUP7 CALLDATALOAD PUSH8 0xFFFFFFFFFFFFFFFF DUP2 GT ISZERO PUSH2 0x2409 JUMPI DUP3 DUP4 REVERT JUMPDEST PUSH2 0x2415 DUP10 DUP3 DUP11 ADD PUSH2 0x2149 JUMP JUMPDEST SWAP7 POP POP PUSH1 0x20 DUP8 ADD CALLDATALOAD SWAP5 POP PUSH1 0x40 DUP8 ADD CALLDATALOAD DUP1 ISZERO ISZERO DUP2 EQ PUSH2 0x2431 JUMPI DUP3 DUP4 REVERT JUMPDEST SWAP4 POP PUSH2 0x2440 DUP9 PUSH1 0x60 DUP10 ADD PUSH2 0x2262 JUMP JUMPDEST SWAP3 POP PUSH2 0x2450 DUP9 PUSH2 0x100 DUP10 ADD PUSH2 0x21D5 JUMP JUMPDEST SWAP2 POP PUSH2 0x2460 DUP9 PUSH2 0x220 DUP10 ADD PUSH2 0x22CB JUMP JUMPDEST SWAP1 POP SWAP3 SWAP6 POP SWAP3 SWAP6 POP SWAP3 SWAP6 JUMP JUMPDEST PUSH1 0x0 DUP1 PUSH2 0x1C0 DUP4 DUP6 SUB SLT ISZERO PUSH2 0x247F JUMPI DUP2 DUP3 REVERT JUMPDEST PUSH2 0x2489 DUP5 DUP5 PUSH2 0x2262 JUMP JUMPDEST SWAP2 POP PUSH2 0x2498 DUP5 PUSH1 0xA0 DUP6 ADD PUSH2 0x21D5 JUMP JUMPDEST SWAP1 POP SWAP3 POP SWAP3 SWAP1 POP JUMP JUMPDEST SWAP2 DUP3 MSTORE PUSH1 0x20 DUP3 ADD MSTORE PUSH1 0x40 ADD SWAP1 JUMP JUMPDEST SWAP1 DUP2 MSTORE PUSH1 0x20 ADD SWAP1 JUMP INVALID MSTORE8 PUSH2 0x6665 NUMBER PUSH2 0x7374 GASPRICE KECCAK256 PUSH23 0x616C756520646F65736E27742066697420696E20616E20 PUSH10 0x6E74323536A264697066 PUSH20 0x58221220CA290DC2F4F1D8D567BE82CB621F3B29 BALANCE SELFBALANCE 0xB4 JUMPI SDIV 0xA5 0xA8 0xB6 0xDC 0xCD PUSH20 0x1EDB599A9164736F6C6343000706003300000000 ","sha1":"071dd18278ecbc5d1cce256997f64b39367565fb","source":"// SPDX-License-Identifier: LicenseRef-Gyro-1.0\n// for information on licensing please see the README in the GitHub repository <https://github.com/gyrostable/concentrated-lps>.\npragma solidity 0.7.6;\npragma experimental ABIEncoderV2;\n\n// import \"@balancer-labs/v2-solidity-utils/contracts/math/FixedPoint.sol\";\nimport \"../../libraries/GyroFixedPoint.sol\";\nimport \"../../libraries/GyroErrors.sol\";\nimport \"../../libraries/SignedFixedPoint.sol\";\nimport \"../../libraries/GyroPoolMath.sol\";\nimport \"./GyroECLPPoolErrors.sol\";\nimport \"@balancer-labs/v2-solidity-utils/contracts/math/Math.sol\";\nimport \"@balancer-labs/v2-solidity-utils/contracts/helpers/InputHelpers.sol\";\nimport \"@openzeppelin/contracts/utils/SafeCast.sol\";\n\n// solhint-disable private-vars-leading-underscore\n\n/** @dev ECLP math library. Pretty much a direct translation of the python version (see `tests/`).\n * We use *signed* values here because some of the intermediate results can be negative (e.g. coordinates of points in\n * the untransformed circle, \"prices\" in the untransformed circle).\n */\nlibrary GyroECLPMath {\n    uint256 internal constant ONEHALF = 0.5e18;\n    int256 internal constant ONE = 1e18; // 18 decimal places\n    int256 internal constant ONE_XP = 1e38; // 38 decimal places\n\n    using SignedFixedPoint for int256;\n    using GyroFixedPoint for uint256;\n    using SafeCast for uint256;\n    using SafeCast for int256;\n\n    // Anti-overflow limits: Params and DerivedParams (static, only needs to be checked on pool creation)\n    int256 internal constant _ROTATION_VECTOR_NORM_ACCURACY = 1e3; // 1e-15 in normal precision\n    int256 internal constant _MAX_STRETCH_FACTOR = 1e26; // 1e8   in normal precision\n    int256 internal constant _DERIVED_TAU_NORM_ACCURACY_XP = 1e23; // 1e-15 in extra precision\n    int256 internal constant _MAX_INV_INVARIANT_DENOMINATOR_XP = 1e43; // 1e5   in extra precision\n    int256 internal constant _DERIVED_DSQ_NORM_ACCURACY_XP = 1e23; // 1e-15 in extra precision\n\n    // Anti-overflow limits: Dynamic values (checked before operations that use them)\n    int256 internal constant _MAX_BALANCES = 1e34; // 1e16 in normal precision\n    int256 internal constant _MAX_INVARIANT = 3e37; // 3e19 in normal precision\n\n    // Note that all t values (not tp or tpp) could consist of uint's, as could all Params. But it's complicated to\n    // convert all the time, so we make them all signed. We also store all intermediate values signed. An exception are\n    // the functions that are used by the contract b/c there the values are stored unsigned.\n    struct Params {\n        // Price bounds (lower and upper). 0 < alpha < beta\n        int256 alpha;\n        int256 beta;\n        // Rotation vector:\n        // phi in (-90 degrees, 0] is the implicit rotation vector. It's stored as a point:\n        int256 c; // c = cos(-phi) >= 0. rounded to 18 decimals\n        int256 s; //  s = sin(-phi) >= 0. rounded to 18 decimals\n        // Invariant: c^2 + s^2 == 1, i.e., the point (c, s) is normalized.\n        // due to rounding, this may not = 1. The term dSq in DerivedParams corrects for this in extra precision\n\n        // Stretching factor:\n        int256 lambda; // lambda >= 1 where lambda == 1 is the circle.\n    }\n\n    // terms in this struct are stored in extra precision (38 decimals) with final decimal rounded down\n    struct DerivedParams {\n        Vector2 tauAlpha;\n        Vector2 tauBeta;\n        int256 u; // from (A chi)_y = lambda * u + v\n        int256 v; // from (A chi)_y = lambda * u + v\n        int256 w; // from (A chi)_x = w / lambda + z\n        int256 z; // from (A chi)_x = w / lambda + z\n        int256 dSq; // error in c^2 + s^2 = dSq, used to correct errors in c, s, tau, u,v,w,z calculations\n        //int256 dAlpha; // normalization constant for tau(alpha)\n        //int256 dBeta; // normalization constant for tau(beta)\n    }\n\n    struct Vector2 {\n        int256 x;\n        int256 y;\n    }\n\n    struct QParams {\n        int256 a;\n        int256 b;\n        int256 c;\n    }\n\n    /** @dev Enforces limits and approximate normalization of the rotation vector. */\n    function validateParams(Params memory params) internal pure {\n        _grequire(0 <= params.s && params.s <= ONE, GyroECLPPoolErrors.ROTATION_VECTOR_WRONG);\n        _grequire(0 <= params.c && params.c <= ONE, GyroECLPPoolErrors.ROTATION_VECTOR_WRONG);\n\n        Vector2 memory sc = Vector2(params.s, params.c);\n        int256 scnorm2 = scalarProd(sc, sc); // squared norm\n        _grequire(\n            ONE - _ROTATION_VECTOR_NORM_ACCURACY <= scnorm2 && scnorm2 <= ONE + _ROTATION_VECTOR_NORM_ACCURACY,\n            GyroECLPPoolErrors.ROTATION_VECTOR_NOT_NORMALIZED\n        );\n\n        _grequire(0 <= params.lambda && params.lambda <= _MAX_STRETCH_FACTOR, GyroECLPPoolErrors.STRETCHING_FACTOR_WRONG);\n    }\n\n    /** @dev Enforces limits and approximate normalization of the derived values.\n    Does NOT check for internal consistency of 'derived' with 'params'. */\n    function validateDerivedParamsLimits(Params memory params, DerivedParams memory derived) external pure {\n        int256 norm2;\n        norm2 = scalarProdXp(derived.tauAlpha, derived.tauAlpha);\n        _grequire(\n            ONE_XP - _DERIVED_TAU_NORM_ACCURACY_XP <= norm2 && norm2 <= ONE_XP + _DERIVED_TAU_NORM_ACCURACY_XP,\n            GyroECLPPoolErrors.DERIVED_TAU_NOT_NORMALIZED\n        );\n        norm2 = scalarProdXp(derived.tauBeta, derived.tauBeta);\n        _grequire(\n            ONE_XP - _DERIVED_TAU_NORM_ACCURACY_XP <= norm2 && norm2 <= ONE_XP + _DERIVED_TAU_NORM_ACCURACY_XP,\n            GyroECLPPoolErrors.DERIVED_TAU_NOT_NORMALIZED\n        );\n\n        _grequire(derived.u <= ONE_XP, GyroECLPPoolErrors.DERIVED_UVWZ_WRONG);\n        _grequire(derived.v <= ONE_XP, GyroECLPPoolErrors.DERIVED_UVWZ_WRONG);\n        _grequire(derived.w <= ONE_XP, GyroECLPPoolErrors.DERIVED_UVWZ_WRONG);\n        _grequire(derived.z <= ONE_XP, GyroECLPPoolErrors.DERIVED_UVWZ_WRONG);\n\n        _grequire(\n            ONE_XP - _DERIVED_DSQ_NORM_ACCURACY_XP <= derived.dSq && derived.dSq <= ONE_XP + _DERIVED_DSQ_NORM_ACCURACY_XP,\n            GyroECLPPoolErrors.DERIVED_DSQ_WRONG\n        );\n\n        // NB No anti-overflow checks are required given the checks done above and in validateParams().\n        int256 mulDenominator = ONE_XP.divXpU(calcAChiAChiInXp(params, derived) - ONE_XP);\n        _grequire(mulDenominator <= _MAX_INV_INVARIANT_DENOMINATOR_XP, GyroECLPPoolErrors.INVARIANT_DENOMINATOR_WRONG);\n    }\n\n    function scalarProd(Vector2 memory t1, Vector2 memory t2) internal pure returns (int256 ret) {\n        ret = t1.x.mulDownMag(t2.x).add(t1.y.mulDownMag(t2.y));\n    }\n\n    /// @dev scalar product for extra-precision values\n    function scalarProdXp(Vector2 memory t1, Vector2 memory t2) internal pure returns (int256 ret) {\n        ret = t1.x.mulXp(t2.x).add(t1.y.mulXp(t2.y));\n    }\n\n    // \"Methods\" for Params. We could put these into a separate library and import them via 'using' to get method call\n    // syntax.\n\n    /** @dev Calculate A t where A is given in Section 2.2\n     *  This is reversing rotation and scaling of the ellipse (mapping back to circle) */\n    function mulA(Params memory params, Vector2 memory tp) internal pure returns (Vector2 memory t) {\n        // NB: This function is only used inside calculatePrice(). This is why we can make two simplifications:\n        // 1. We don't correct for precision of s, c using d.dSq because that level of precision is not important in this context.\n        // 2. We don't need to check for over/underflow b/c these are impossible in that context and given the (checked) assumptions on the various values.\n        t.x = params.c.mulDownMagU(tp.x).divDownMagU(params.lambda) - params.s.mulDownMagU(tp.y).divDownMagU(params.lambda);\n        t.y = params.s.mulDownMagU(tp.x) + params.c.mulDownMagU(tp.y);\n    }\n\n    /** @dev Calculate virtual offset a given invariant r.\n     *  See calculation in Section 2.1.2 Computing reserve offsets\n     *  Note that, in contrast to virtual reserve offsets in CPMM, these are *subtracted* from the real\n     *  reserves, moving the curve to the upper-right. They can be positive or negative, but not both can be negative.\n     *  Calculates a = r*(A^{-1}tau(beta))_x rounding up in signed direction\n     *  Notice that error in r is scaled by lambda, and so rounding direction is important */\n    function virtualOffset0(\n        Params memory p,\n        DerivedParams memory d,\n        Vector2 memory r // overestimate in x component, underestimate in y\n    ) internal pure returns (int256 a) {\n        // a = r lambda c tau(beta)_x + rs tau(beta)_y\n        //       account for 1 factors of dSq (2 s,c factors)\n        int256 termXp = d.tauBeta.x.divXpU(d.dSq);\n        a = d.tauBeta.x > 0\n            ? r.x.mulUpMagU(p.lambda).mulUpMagU(p.c).mulUpXpToNpU(termXp)\n            : r.y.mulDownMagU(p.lambda).mulDownMagU(p.c).mulUpXpToNpU(termXp);\n\n        // use fact that tau(beta)_y > 0, so the required rounding direction is clear.\n        a = a + r.x.mulUpMagU(p.s).mulUpXpToNpU(d.tauBeta.y.divXpU(d.dSq));\n    }\n\n    /** @dev calculate virtual offset b given invariant r.\n     *  Calculates b = r*(A^{-1}tau(alpha))_y rounding up in signed direction */\n    function virtualOffset1(\n        Params memory p,\n        DerivedParams memory d,\n        Vector2 memory r // overestimate in x component, underestimate in y\n    ) internal pure returns (int256 b) {\n        // b = -r \\lambda s tau(alpha)_x + rc tau(alpha)_y\n        //       account for 1 factors of dSq (2 s,c factors)\n        int256 termXp = d.tauAlpha.x.divXpU(d.dSq);\n        b = (d.tauAlpha.x < 0)\n            ? r.x.mulUpMagU(p.lambda).mulUpMagU(p.s).mulUpXpToNpU(-termXp)\n            : (-r.y).mulDownMagU(p.lambda).mulDownMagU(p.s).mulUpXpToNpU(termXp);\n\n        // use fact that tau(alpha)_y > 0, so the required rounding direction is clear.\n        b = b + r.x.mulUpMagU(p.c).mulUpXpToNpU(d.tauAlpha.y.divXpU(d.dSq));\n    }\n\n    /** Maximal value for the real reserves x when the respective other balance is 0 for given invariant\n     *  See calculation in Section 2.1.2. Calculation is ordered here for precision, but error in r is magnified by lambda\n     *  Rounds down in signed direction */\n    function maxBalances0(\n        Params memory p,\n        DerivedParams memory d,\n        Vector2 memory r // overestimate in x-component, underestimate in y-component\n    ) internal pure returns (int256 xp) {\n        // x^+ = r lambda c (tau(beta)_x - tau(alpha)_x) + rs (tau(beta)_y - tau(alpha)_y)\n        //      account for 1 factors of dSq (2 s,c factors)\n        int256 termXp1 = (d.tauBeta.x - d.tauAlpha.x).divXpU(d.dSq); // note tauBeta.x > tauAlpha.x, so this is > 0 and rounding direction is clear\n        int256 termXp2 = (d.tauBeta.y - d.tauAlpha.y).divXpU(d.dSq); // note this may be negative, but since tauBeta.y, tauAlpha.y >= 0, it is always in [-1, 1].\n        xp = r.y.mulDownMagU(p.lambda).mulDownMagU(p.c).mulDownXpToNpU(termXp1);\n        xp = xp + (termXp2 > 0 ? r.y.mulDownMagU(p.s) : r.x.mulUpMagU(p.s)).mulDownXpToNpU(termXp2);\n    }\n\n    /** Maximal value for the real reserves y when the respective other balance is 0 for given invariant\n     *  See calculation in Section 2.1.2. Calculation is ordered here for precision, but erorr in r is magnified by lambda\n     *  Rounds down in signed direction */\n    function maxBalances1(\n        Params memory p,\n        DerivedParams memory d,\n        Vector2 memory r // overestimate in x-component, underestimate in y-component\n    ) internal pure returns (int256 yp) {\n        // y^+ = r lambda s (tau(beta)_x - tau(alpha)_x) + rc (tau(alpha)_y - tau(beta)_y)\n        //      account for 1 factors of dSq (2 s,c factors)\n        int256 termXp1 = (d.tauBeta.x - d.tauAlpha.x).divXpU(d.dSq); // note tauBeta.x > tauAlpha.x\n        int256 termXp2 = (d.tauAlpha.y - d.tauBeta.y).divXpU(d.dSq);\n        yp = r.y.mulDownMagU(p.lambda).mulDownMagU(p.s).mulDownXpToNpU(termXp1);\n        yp = yp + (termXp2 > 0 ? r.y.mulDownMagU(p.c) : r.x.mulUpMagU(p.c)).mulDownXpToNpU(termXp2);\n    }\n\n    /** @dev Compute the invariant 'r' corresponding to the given values. The invariant can't be negative, but\n     *  we use a signed value to store it because all the other calculations are happening with signed ints, too.\n     *  Computes r according to Prop 13 in 2.2.1 Initialization from Real Reserves\n     *  orders operations to achieve best precision\n     *  Returns an underestimate and a bound on error size.\n     *  Enforces anti-overflow limits on balances and the computed invariant in the process. */\n    function calculateInvariantWithError(\n        uint256[] memory balances,\n        Params memory params,\n        DerivedParams memory derived\n    ) public pure returns (int256, int256) {\n        (int256 x, int256 y) = (balances[0].toInt256(), balances[1].toInt256());\n        _grequire(x.add(y) <= _MAX_BALANCES, GyroECLPPoolErrors.MAX_ASSETS_EXCEEDED);\n\n        int256 AtAChi = calcAtAChi(x, y, params, derived);\n        (int256 sqrt, int256 err) = calcInvariantSqrt(x, y, params, derived);\n        // calculate the error in the square root term, separates cases based on sqrt >= 1/2\n        // somedayTODO: can this be improved for cases of large balances (when xp error magnifies to np)\n        // Note: the minimum non-zero value of sqrt is 1e-9 since the minimum argument is 1e-18\n        if (sqrt > 0) {\n            // err + 1 to account for O(eps_np) term ignored before\n            err = (err + 1).divUpMagU(2 * sqrt);\n        } else {\n            // in the false case here, the extra precision error does not magnify, and so the error inside the sqrt is O(1e-18)\n            // somedayTODO: The true case will almost surely never happen (can it be removed)\n            err = err > 0 ? GyroPoolMath._sqrt(err.toUint256(), 5).toInt256() : 1e9;\n        }\n        // calculate the error in the numerator, scale the error by 20 to be sure all possible terms accounted for\n        err = ((params.lambda.mulUpMagU(x + y) / ONE_XP) + err + 1) * 20;\n\n        // A chi \\cdot A chi > 1, so round it up to round denominator up\n        // denominator uses extra precision, so we do * 1/denominator so we are sure the calculation doesn't overflow\n        int256 mulDenominator = ONE_XP.divXpU(calcAChiAChiInXp(params, derived) - ONE_XP);\n        // NOTE: Anti-overflow limits on mulDenominator are checked on contract creation.\n\n        // as alternative, could do, but could overflow: invariant = (AtAChi.add(sqrt) - err).divXp(denominator);\n        int256 invariant = (AtAChi + sqrt - err).mulDownXpToNpU(mulDenominator);\n        // error scales if denominator is small\n        // NB: This error calculation computes the error in the expression \"numerator / denominator\", but in this code\n        // we actually use the formula \"numerator * (1 / denominator)\" to compute the invariant. This affects this line\n        // and the one below.\n        err = err.mulUpXpToNpU(mulDenominator);\n        // account for relative error due to error in the denominator\n        // error in denominator is O(epsilon) if lambda<1e11, scale up by 10 to be sure we catch it, and add O(eps)\n        // error in denominator is lambda^2 * 2e-37 and scales relative to the result / denominator\n        // Scale by a constant to account for errors in the scaling factor itself and limited compounding.\n        // calculating lambda^2 w/o decimals so that the calculation will never overflow, the lost precision isn't important\n        err = err + ((invariant.mulUpXpToNpU(mulDenominator) * ((params.lambda * params.lambda) / 1e36)) * 40) / ONE_XP + 1;\n\n        _grequire(invariant.add(err) <= _MAX_INVARIANT, GyroECLPPoolErrors.MAX_INVARIANT_EXCEEDED);\n\n        return (invariant, err);\n    }\n\n    function calculateInvariant(\n        uint256[] memory balances,\n        Params memory params,\n        DerivedParams memory derived\n    ) external pure returns (uint256 uinvariant) {\n        (int256 invariant, ) = calculateInvariantWithError(balances, params, derived);\n        uinvariant = invariant.toUint256();\n    }\n\n    /// @dev calculate At \\cdot A chi, ignores rounding direction. We will later compensate for the rounding error.\n    function calcAtAChi(\n        int256 x,\n        int256 y,\n        Params memory p,\n        DerivedParams memory d\n    ) internal pure returns (int256 val) {\n        // to save gas, pre-compute dSq^2 as it will be used 3 times\n        int256 dSq2 = d.dSq.mulXpU(d.dSq);\n\n        // (cx - sy) * (w/lambda + z) / lambda\n        //      account for 2 factors of dSq (4 s,c factors)\n        int256 termXp = (d.w.divDownMagU(p.lambda) + d.z).divDownMagU(p.lambda).divXpU(dSq2);\n        val = (x.mulDownMagU(p.c) - y.mulDownMagU(p.s)).mulDownXpToNpU(termXp);\n\n        // (x lambda s + y lambda c) * u, note u > 0\n        int256 termNp = x.mulDownMagU(p.lambda).mulDownMagU(p.s) + y.mulDownMagU(p.lambda).mulDownMagU(p.c);\n        val = val + termNp.mulDownXpToNpU(d.u.divXpU(dSq2));\n\n        // (sx+cy) * v, note v > 0\n        termNp = x.mulDownMagU(p.s) + y.mulDownMagU(p.c);\n        val = val + termNp.mulDownXpToNpU(d.v.divXpU(dSq2));\n    }\n\n    /// @dev calculates A chi \\cdot A chi in extra precision\n    /// Note: this can be >1 (and involves factor of lambda^2). We can compute it in extra precision w/o overflowing b/c it will be\n    /// at most 38 + 16 digits (38 from decimals, 2*8 from lambda^2 if lambda=1e8)\n    /// Since we will only divide by this later, we will not need to worry about overflow in that operation if done in the right way\n    /// TODO: is rounding direction ok?\n    function calcAChiAChiInXp(Params memory p, DerivedParams memory d) internal pure returns (int256 val) {\n        // to save gas, pre-compute dSq^3 as it will be used 4 times\n        int256 dSq3 = d.dSq.mulXpU(d.dSq).mulXpU(d.dSq);\n\n        // (A chi)_y^2 = lambda^2 u^2 + lambda 2 u v + v^2\n        //      account for 3 factors of dSq (6 s,c factors)\n        // SOMEDAY: In these calcs, a calculated value is multiplied by lambda and lambda^2, resp, which implies some\n        // error amplification. It's fine b/c we're doing it in extra precision here, but would still be nice if it\n        // could be avoided, perhaps by splitting up the numbers into a high and low part.\n        val = p.lambda.mulUpMagU((2 * d.u).mulXpU(d.v).divXpU(dSq3));\n        // for lambda^2 u^2 factor in rounding error in u since lambda could be big\n        // Note: lambda^2 is multiplied at the end to be sure the calculation doesn't overflow, but this can lose some precision\n        val = val + ((d.u + 1).mulXpU(d.u + 1).divXpU(dSq3)).mulUpMagU(p.lambda).mulUpMagU(p.lambda);\n        // the next line converts from extre precision to normal precision post-computation while rounding up\n        val = val + (d.v).mulXpU(d.v).divXpU(dSq3);\n\n        // (A chi)_x^2 = (w/lambda + z)^2\n        //      account for 3 factors of dSq (6 s,c factors)\n        int256 termXp = d.w.divUpMagU(p.lambda) + d.z;\n        val = val + termXp.mulXpU(termXp).divXpU(dSq3);\n    }\n\n    /// @dev calculate -(At)_x ^2 (A chi)_y ^2 + (At)_x ^2, rounding down in signed direction\n    function calcMinAtxAChiySqPlusAtxSq(\n        int256 x,\n        int256 y,\n        Params memory p,\n        DerivedParams memory d\n    ) internal pure returns (int256 val) {\n        ////////////////////////////////////////////////////////////////////////////////////\n        // (At)_x^2 (A chi)_y^2 = (x^2 c^2 - xy2sc + y^2 s^2) (u^2 + 2uv/lambda + v^2/lambda^2)\n        //      account for 4 factors of dSq (8 s,c factors)\n        //\n        // (At)_x^2 = (x^2 c^2 - xy2sc + y^2 s^2)/lambda^2\n        //      account for 1 factor of dSq (2 s,c factors)\n        ////////////////////////////////////////////////////////////////////////////////////\n        int256 termNp = x.mulUpMagU(x).mulUpMagU(p.c).mulUpMagU(p.c) + y.mulUpMagU(y).mulUpMagU(p.s).mulUpMagU(p.s);\n        termNp = termNp - x.mulDownMagU(y).mulDownMagU(p.c * 2).mulDownMagU(p.s);\n\n        int256 termXp = d.u.mulXpU(d.u) + (2 * d.u).mulXpU(d.v).divDownMagU(p.lambda) + d.v.mulXpU(d.v).divDownMagU(p.lambda).divDownMagU(p.lambda);\n        termXp = termXp.divXpU(d.dSq.mulXpU(d.dSq).mulXpU(d.dSq).mulXpU(d.dSq));\n        val = (-termNp).mulDownXpToNpU(termXp);\n\n        // now calculate (At)_x^2 accounting for possible rounding error to round down\n        // need to do 1/dSq in a way so that there is no overflow for large balances\n        val = val + (termNp - 9).divDownMagU(p.lambda).divDownMagU(p.lambda).mulDownXpToNpU(SignedFixedPoint.ONE_XP.divXpU(d.dSq));\n    }\n\n    /// @dev calculate 2(At)_x * (At)_y * (A chi)_x * (A chi)_y, ignores rounding direction\n    //  Note: this ignores rounding direction and is corrected for later\n    function calc2AtxAtyAChixAChiy(\n        int256 x,\n        int256 y,\n        Params memory p,\n        DerivedParams memory d\n    ) internal pure returns (int256 val) {\n        ////////////////////////////////////////////////////////////////////////////////////\n        // = ((x^2 - y^2)sc + yx(c^2-s^2)) * 2 * (zu + (wu + zv)/lambda + wv/lambda^2)\n        //      account for 4 factors of dSq (8 s,c factors)\n        ////////////////////////////////////////////////////////////////////////////////////\n        int256 termNp = (x.mulDownMagU(x) - y.mulUpMagU(y)).mulDownMagU(2 * p.c).mulDownMagU(p.s);\n        int256 xy = y.mulDownMagU(2 * x);\n        termNp = termNp + xy.mulDownMagU(p.c).mulDownMagU(p.c) - xy.mulDownMagU(p.s).mulDownMagU(p.s);\n\n        int256 termXp = d.z.mulXpU(d.u) + d.w.mulXpU(d.v).divDownMagU(p.lambda).divDownMagU(p.lambda);\n        termXp = termXp + (d.w.mulXpU(d.u) + d.z.mulXpU(d.v)).divDownMagU(p.lambda);\n        termXp = termXp.divXpU(d.dSq.mulXpU(d.dSq).mulXpU(d.dSq).mulXpU(d.dSq));\n\n        val = termNp.mulDownXpToNpU(termXp);\n    }\n\n    /// @dev calculate -(At)_y ^2 (A chi)_x ^2 + (At)_y ^2, rounding down in signed direction\n    function calcMinAtyAChixSqPlusAtySq(\n        int256 x,\n        int256 y,\n        Params memory p,\n        DerivedParams memory d\n    ) internal pure returns (int256 val) {\n        ////////////////////////////////////////////////////////////////////////////////////\n        // (At)_y^2 (A chi)_x^2 = (x^2 s^2 + xy2sc + y^2 c^2) * (z^2 + 2zw/lambda + w^2/lambda^2)\n        //      account for 4 factors of dSq (8 s,c factors)\n        // (At)_y^2 = (x^2 s^2 + xy2sc + y^2 c^2)\n        //      account for 1 factor of dSq (2 s,c factors)\n        ////////////////////////////////////////////////////////////////////////////////////\n        int256 termNp = x.mulUpMagU(x).mulUpMagU(p.s).mulUpMagU(p.s) + y.mulUpMagU(y).mulUpMagU(p.c).mulUpMagU(p.c);\n        termNp = termNp + x.mulUpMagU(y).mulUpMagU(p.s * 2).mulUpMagU(p.c);\n\n        int256 termXp = d.z.mulXpU(d.z) + d.w.mulXpU(d.w).divDownMagU(p.lambda).divDownMagU(p.lambda);\n        termXp = termXp + (2 * d.z).mulXpU(d.w).divDownMagU(p.lambda);\n        termXp = termXp.divXpU(d.dSq.mulXpU(d.dSq).mulXpU(d.dSq).mulXpU(d.dSq));\n        val = (-termNp).mulDownXpToNpU(termXp);\n\n        // now calculate (At)_y^2 accounting for possible rounding error to round down\n        // need to do 1/dSq in a way so that there is no overflow for large balances\n        val = val + (termNp - 9).mulDownXpToNpU(SignedFixedPoint.ONE_XP.divXpU(d.dSq));\n    }\n\n    /// @dev Rounds down. Also returns an estimate for the error of the term under the sqrt (!) and without the regular\n    /// normal-precision error of O(1e-18).\n    function calcInvariantSqrt(\n        int256 x,\n        int256 y,\n        Params memory p,\n        DerivedParams memory d\n    ) internal pure returns (int256 val, int256 err) {\n        val = calcMinAtxAChiySqPlusAtxSq(x, y, p, d) + calc2AtxAtyAChixAChiy(x, y, p, d);\n        val = val + calcMinAtyAChixSqPlusAtySq(x, y, p, d);\n        // error inside the square root is O((x^2 + y^2) * eps_xp) + O(eps_np), where eps_xp=1e-38, eps_np=1e-18\n        // note that in terms of rounding down, error corrects for calc2AtxAtyAChixAChiy()\n        // however, we also use this error to correct the invariant for an overestimate in swaps, it is all the same order though\n        // Note the O(eps_np) term will be dealt with later, so not included yet\n        // Note that the extra precision term doesn't propagate unless balances are > 100b\n        err = (x.mulUpMagU(x) + y.mulUpMagU(y)) / 1e38;\n        // we will account for the error later after the square root\n        // mathematically, terms in square root > 0, so treat as 0 if it is < 0 b/c of rounding error\n        val = val > 0 ? GyroPoolMath._sqrt(val.toUint256(), 5).toInt256() : 0;\n    }\n\n    /** @dev Instantanteous price.\n     *  See Prop. 12 in 2.1.6 Computing Prices */\n    function calculatePrice(\n        uint256[] memory balances,\n        Params memory params,\n        DerivedParams memory derived,\n        int256 invariant\n    ) external pure returns (uint256 px) {\n        // shift by virtual offsets to get v(t)\n        Vector2 memory r = Vector2(invariant, invariant); // ignore r rounding for spot price, precision will be lost in TWAP anyway\n        Vector2 memory ab = Vector2(virtualOffset0(params, derived, r), virtualOffset1(params, derived, r));\n        Vector2 memory vec = Vector2(balances[0].toInt256() - ab.x, balances[1].toInt256() - ab.y);\n\n        // transform to circle to get Av(t)\n        vec = mulA(params, vec);\n        // compute prices on circle\n        Vector2 memory pc = Vector2(vec.x.divDownMagU(vec.y), ONE);\n\n        // Convert prices back to ellipse\n        // NB: These operations check for overflow because the price pc[0] might be large when vex.y is small.\n        // SOMEDAY I think this probably can't actually happen due to our bounds on the different values. In this case we could do this unchecked as well.\n        int256 pgx = scalarProd(pc, mulA(params, Vector2(ONE, 0)));\n        px = pgx.divDownMag(scalarProd(pc, mulA(params, Vector2(0, ONE)))).toUint256();\n    }\n\n    /** @dev Check that post-swap balances obey maximal asset bounds\n     *  newBalance = post-swap balance of one asset\n     *  assetIndex gives the index of the provided asset (0 = X, 1 = Y) */\n    function checkAssetBounds(\n        Params memory params,\n        DerivedParams memory derived,\n        Vector2 memory invariant,\n        int256 newBal,\n        uint8 assetIndex\n    ) internal pure {\n        if (assetIndex == 0) {\n            int256 xPlus = maxBalances0(params, derived, invariant);\n            if (!(newBal <= _MAX_BALANCES && newBal <= xPlus)) _grequire(false, GyroECLPPoolErrors.ASSET_BOUNDS_EXCEEDED);\n            return;\n        }\n        {\n            int256 yPlus = maxBalances1(params, derived, invariant);\n            if (!(newBal <= _MAX_BALANCES && newBal <= yPlus)) _grequire(false, GyroECLPPoolErrors.ASSET_BOUNDS_EXCEEDED);\n        }\n    }\n\n    function calcOutGivenIn(\n        uint256[] memory balances,\n        uint256 amountIn,\n        bool tokenInIsToken0,\n        Params memory params,\n        DerivedParams memory derived,\n        Vector2 memory invariant\n    ) external pure returns (uint256 amountOut) {\n        function(int256, Params memory, DerivedParams memory, Vector2 memory) pure returns (int256) calcGiven;\n        uint8 ixIn;\n        uint8 ixOut;\n        if (tokenInIsToken0) {\n            ixIn = 0;\n            ixOut = 1;\n            calcGiven = calcYGivenX;\n        } else {\n            ixIn = 1;\n            ixOut = 0;\n            calcGiven = calcXGivenY;\n        }\n\n        int256 balInNew = balances[ixIn].add(amountIn).toInt256(); // checked because amountIn is given by the user.\n        checkAssetBounds(params, derived, invariant, balInNew, ixIn);\n        int256 balOutNew = calcGiven(balInNew, params, derived, invariant);\n        // Make sub checked as an extra check against numerical error; but this really should never happen\n        amountOut = balances[ixOut].sub(balOutNew.toUint256());\n        // The above line guarantees that amountOut <= balances[ixOut].\n    }\n\n    function calcInGivenOut(\n        uint256[] memory balances,\n        uint256 amountOut,\n        bool tokenInIsToken0,\n        Params memory params,\n        DerivedParams memory derived,\n        Vector2 memory invariant\n    ) external pure returns (uint256 amountIn) {\n        function(int256, Params memory, DerivedParams memory, Vector2 memory) pure returns (int256) calcGiven;\n        uint8 ixIn;\n        uint8 ixOut;\n        if (tokenInIsToken0) {\n            ixIn = 0;\n            ixOut = 1;\n            calcGiven = calcXGivenY; // this reverses compared to calcOutGivenIn\n        } else {\n            ixIn = 1;\n            ixOut = 0;\n            calcGiven = calcYGivenX; // this reverses compared to calcOutGivenIn\n        }\n\n        if (!(amountOut <= balances[ixOut])) _grequire(false, GyroECLPPoolErrors.ASSET_BOUNDS_EXCEEDED);\n        int256 balOutNew = (balances[ixOut] - amountOut).toInt256();\n        int256 balInNew = calcGiven(balOutNew, params, derived, invariant);\n        // The checks in the following two lines should really always succeed; we keep them as extra safety against numerical error.\n        checkAssetBounds(params, derived, invariant, balInNew, ixIn);\n        amountIn = balInNew.toUint256().sub(balances[ixIn]);\n    }\n\n    /** @dev Variables are named for calculating y given x\n     *  to calculate x given y, change x->y, s->c, c->s, a_>b, b->a, tauBeta.x -> -tauAlpha.x, tauBeta.y -> tauAlpha.y\n     *  calculates an overestimate of calculated reserve post-swap */\n    function solveQuadraticSwap(\n        int256 lambda,\n        int256 x,\n        int256 s,\n        int256 c,\n        Vector2 memory r, // overestimate in x component, underestimate in y\n        Vector2 memory ab,\n        Vector2 memory tauBeta,\n        int256 dSq\n    ) internal pure returns (int256) {\n        // x component will round up, y will round down, use extra precision\n        Vector2 memory lamBar;\n        lamBar.x = SignedFixedPoint.ONE_XP - SignedFixedPoint.ONE_XP.divDownMagU(lambda).divDownMagU(lambda);\n        // Note: The following cannot become negative even with errors because we require lambda >= 1 and\n        // divUpMag returns the exact result if the quotient is representable in 18 decimals.\n        lamBar.y = SignedFixedPoint.ONE_XP - SignedFixedPoint.ONE_XP.divUpMagU(lambda).divUpMagU(lambda);\n        // using qparams struct to avoid \"stack too deep\"\n        QParams memory q;\n        // shift by the virtual offsets\n        // note that we want an overestimate of offset here so that -x'*lambar*s*c is overestimated in signed direction\n        // account for 1 factor of dSq (2 s,c factors)\n        int256 xp = x - ab.x;\n        if (xp > 0) {\n            q.b = (-xp).mulDownMagU(s).mulDownMagU(c).mulUpXpToNpU(lamBar.y.divXpU(dSq));\n        } else {\n            q.b = (-xp).mulUpMagU(s).mulUpMagU(c).mulUpXpToNpU(lamBar.x.divXpU(dSq) + 1);\n        }\n\n        // x component will round up, y will round down, use extra precision\n        // account for 1 factor of dSq (2 s,c factors)\n        Vector2 memory sTerm;\n        // we wil take sTerm = 1 - sTerm below, using multiple lines to avoid \"stack too deep\"\n        sTerm.x = lamBar.y.mulDownMagU(s).mulDownMagU(s).divXpU(dSq);\n        sTerm.y = lamBar.x.mulUpMagU(s);\n        sTerm.y = sTerm.y.mulUpMagU(s).divXpU(dSq + 1) + 1; // account for rounding error in dSq, divXp\n        sTerm = Vector2(SignedFixedPoint.ONE_XP - sTerm.x, SignedFixedPoint.ONE_XP - sTerm.y);\n        // ^^ NB: The components of sTerm are non-negative: We only need to worry about sTerm.y. This is non-negative b/c, because of bounds on lambda lamBar <= 1 - 1e-16, and division by dSq ensures we have enough precision so that rounding errors are never magnitude 1e-16.\n\n        // now compute the argument of the square root\n        q.c = -calcXpXpDivLambdaLambda(x, r, lambda, s, c, tauBeta, dSq);\n        q.c = q.c + r.y.mulDownMagU(r.y).mulDownXpToNpU(sTerm.y);\n        // the square root is always being subtracted, so round it down to overestimate the end balance\n        // mathematically, terms in square root > 0, so treat as 0 if it is < 0 b/c of rounding error\n        q.c = q.c > 0 ? GyroPoolMath._sqrt(q.c.toUint256(), 5).toInt256() : 0;\n\n        // calculate the result in q.a\n        if (q.b - q.c > 0) {\n            q.a = (q.b - q.c).mulUpXpToNpU(SignedFixedPoint.ONE_XP.divXpU(sTerm.y) + 1);\n        } else {\n            q.a = (q.b - q.c).mulUpXpToNpU(SignedFixedPoint.ONE_XP.divXpU(sTerm.x));\n        }\n\n        // lastly, add the offset, note that we want an overestimate of offset here\n        return q.a + ab.y;\n    }\n\n    /** @dev Calculates x'x'/λ^2 where x' = x - b = x - r (A^{-1}tau(beta))_x\n     *  calculates an overestimate\n     *  to calculate y'y', change x->y, s->c, c->s, tauBeta.x -> -tauAlpha.x, tauBeta.y -> tauAlpha.y  */\n    function calcXpXpDivLambdaLambda(\n        int256 x,\n        Vector2 memory r, // overestimate in x component, underestimate in y\n        int256 lambda,\n        int256 s,\n        int256 c,\n        Vector2 memory tauBeta,\n        int256 dSq\n    ) internal pure returns (int256) {\n        //////////////////////////////////////////////////////////////////////////////////\n        // x'x'/lambda^2 = r^2 c^2 tau(beta)_x^2\n        //      + ( r^2 2s c tau(beta)_x tau(beta)_y - rx 2c tau(beta)_x ) / lambda\n        //      + ( r^2 s^2 tau(beta)_y^2 - rx 2s tau(beta)_y + x^2 ) / lambda^2\n        //////////////////////////////////////////////////////////////////////////////////\n        // to save gas, pre-compute dSq^2 as it will be used 3 times, and r.x^2 as it will be used 2-3 times\n        // sqVars = (dSq^2, r.x^2)\n        Vector2 memory sqVars = Vector2(dSq.mulXpU(dSq), r.x.mulUpMagU(r.x));\n\n        QParams memory q; // for working terms\n        // q.a = r^2 s 2c tau(beta)_x tau(beta)_y\n        //      account for 2 factors of dSq (4 s,c factors)\n        int256 termXp = tauBeta.x.mulXpU(tauBeta.y).divXpU(sqVars.x);\n        if (termXp > 0) {\n            q.a = sqVars.y.mulUpMagU(2 * s);\n            q.a = q.a.mulUpMagU(c).mulUpXpToNpU(termXp + 7); // +7 account for rounding in termXp\n        } else {\n            q.a = r.y.mulDownMagU(r.y).mulDownMagU(2 * s);\n            q.a = q.a.mulDownMagU(c).mulUpXpToNpU(termXp);\n        }\n\n        // -rx 2c tau(beta)_x\n        //      account for 1 factor of dSq (2 s,c factors)\n        if (tauBeta.x < 0) {\n            // +3 account for rounding in extra precision terms\n            q.b = r.x.mulUpMagU(x).mulUpMagU(2 * c).mulUpXpToNpU(-tauBeta.x.divXpU(dSq) + 3);\n        } else {\n            q.b = (-r.y).mulDownMagU(x).mulDownMagU(2 * c).mulUpXpToNpU(tauBeta.x.divXpU(dSq));\n        }\n        // q.a later needs to be divided by lambda\n        q.a = q.a + q.b;\n\n        // q.b = r^2 s^2 tau(beta)_y^2\n        //      account for 2 factors of dSq (4 s,c factors)\n        termXp = tauBeta.y.mulXpU(tauBeta.y).divXpU(sqVars.x) + 7; // +7 account for rounding in termXp\n        q.b = sqVars.y.mulUpMagU(s);\n        q.b = q.b.mulUpMagU(s).mulUpXpToNpU(termXp);\n\n        // q.c = -rx 2s tau(beta)_y, recall that tauBeta.y > 0 so round lower in magnitude\n        //      account for 1 factor of dSq (2 s,c factors)\n        q.c = (-r.y).mulDownMagU(x).mulDownMagU(2 * s).mulUpXpToNpU(tauBeta.y.divXpU(dSq));\n\n        // (q.b + q.c + x^2) / lambda\n        q.b = q.b + q.c + x.mulUpMagU(x);\n        q.b = q.b > 0 ? q.b.divUpMagU(lambda) : q.b.divDownMagU(lambda);\n\n        // remaining calculation is (q.a + q.b) / lambda\n        q.a = q.a + q.b;\n        q.a = q.a > 0 ? q.a.divUpMagU(lambda) : q.a.divDownMagU(lambda);\n\n        // + r^2 c^2 tau(beta)_x^2\n        //      account for 2 factors of dSq (4 s,c factors)\n        termXp = tauBeta.x.mulXpU(tauBeta.x).divXpU(sqVars.x) + 7; // +7 account for rounding in termXp\n        int256 val = sqVars.y.mulUpMagU(c).mulUpMagU(c);\n        return (val.mulUpXpToNpU(termXp)) + q.a;\n    }\n\n    /** @dev compute y such that (x, y) satisfy the invariant at the given parameters.\n     *  Note that we calculate an overestimate of y\n     *   See Prop 14 in section 2.2.2 Trade Execution */\n    function calcYGivenX(\n        int256 x,\n        Params memory params,\n        DerivedParams memory d,\n        Vector2 memory r // overestimate in x component, underestimate in y\n    ) internal pure returns (int256 y) {\n        // want to overestimate the virtual offsets except in a particular setting that will be corrected for later\n        // note that the error correction in the invariant should more than make up for uncaught rounding directions (in 38 decimals) in virtual offsets\n        Vector2 memory ab = Vector2(virtualOffset0(params, d, r), virtualOffset1(params, d, r));\n        y = solveQuadraticSwap(params.lambda, x, params.s, params.c, r, ab, d.tauBeta, d.dSq);\n    }\n\n    function calcXGivenY(\n        int256 y,\n        Params memory params,\n        DerivedParams memory d,\n        Vector2 memory r // overestimate in x component, underestimate in y\n    ) internal pure returns (int256 x) {\n        // want to overestimate the virtual offsets except in a particular setting that will be corrected for later\n        // note that the error correction in the invariant should more than make up for uncaught rounding directions (in 38 decimals) in virtual offsets\n        Vector2 memory ba = Vector2(virtualOffset1(params, d, r), virtualOffset0(params, d, r));\n        // change x->y, s->c, c->s, b->a, a->b, tauBeta.x -> -tauAlpha.x, tauBeta.y -> tauAlpha.y vs calcYGivenX\n        x = solveQuadraticSwap(params.lambda, y, params.c, params.s, r, ba, Vector2(-d.tauAlpha.x, d.tauAlpha.y), d.dSq);\n    }\n}\n","sourcePath":"contracts/eclp/GyroECLPMath.sol","type":"library","deployment":{"address":"0x10ABA87Fed017734349E3fF31C01dD76BB3b5d63","chainid":"137","blockHeight":41209260}}