{"abi":[{"inputs":[{"components":[{"internalType":"contract IVault","name":"vault","type":"address"},{"internalType":"address","name":"configAddress","type":"address"},{"components":[{"internalType":"string","name":"name","type":"string"},{"internalType":"string","name":"symbol","type":"string"},{"internalType":"contract IERC20[]","name":"tokens","type":"address[]"},{"internalType":"uint256","name":"swapFeePercentage","type":"uint256"},{"internalType":"uint256","name":"root3Alpha","type":"uint256"},{"internalType":"address","name":"owner","type":"address"},{"internalType":"address","name":"capManager","type":"address"},{"components":[{"internalType":"bool","name":"capEnabled","type":"bool"},{"internalType":"uint120","name":"perAddressCap","type":"uint120"},{"internalType":"uint128","name":"globalCap","type":"uint128"}],"internalType":"struct ICappedLiquidity.CapParams","name":"capParams","type":"tuple"},{"internalType":"address","name":"pauseManager","type":"address"}],"internalType":"struct Gyro3CLPPool.NewPoolConfigParams","name":"config","type":"tuple"},{"internalType":"uint256","name":"pauseWindowDuration","type":"uint256"},{"internalType":"uint256","name":"bufferPeriodDuration","type":"uint256"}],"internalType":"struct Gyro3CLPPool.NewPoolParams","name":"params","type":"tuple"}],"stateMutability":"nonpayable","type":"constructor","name":"constructor"},{"anonymous":false,"inputs":[{"indexed":true,"internalType":"address","name":"owner","type":"address"},{"indexed":true,"internalType":"address","name":"spender","type":"address"},{"indexed":false,"internalType":"uint256","name":"value","type":"uint256"}],"name":"Approval","type":"event"},{"anonymous":false,"inputs":[{"indexed":false,"internalType":"address","name":"capManager","type":"address"}],"name":"CapManagerUpdated","type":"event"},{"anonymous":false,"inputs":[{"components":[{"internalType":"bool","name":"capEnabled","type":"bool"},{"internalType":"uint120","name":"perAddressCap","type":"uint120"},{"internalType":"uint128","name":"globalCap","type":"uint128"}],"indexed":false,"internalType":"struct ICappedLiquidity.CapParams","name":"params","type":"tuple"}],"name":"CapParamsUpdated","type":"event"},{"anonymous":false,"inputs":[{"indexed":false,"internalType":"address","name":"oldPauseManager","type":"address"},{"indexed":false,"internalType":"address","name":"newPauseManager","type":"address"}],"name":"PauseManagerChanged","type":"event"},{"anonymous":false,"inputs":[],"name":"PausedLocally","type":"event"},{"anonymous":false,"inputs":[{"indexed":false,"internalType":"bool","name":"paused","type":"bool"}],"name":"PausedStateChanged","type":"event"},{"anonymous":false,"inputs":[{"indexed":false,"internalType":"uint256","name":"swapFeePercentage","type":"uint256"}],"name":"SwapFeePercentageChanged","type":"event"},{"anonymous":false,"inputs":[{"indexed":true,"internalType":"address","name":"from","type":"address"},{"indexed":true,"internalType":"address","name":"to","type":"address"},{"indexed":false,"internalType":"uint256","name":"value","type":"uint256"}],"name":"Transfer","type":"event"},{"anonymous":false,"inputs":[],"name":"UnpausedLocally","type":"event"},{"inputs":[],"name":"DOMAIN_SEPARATOR","outputs":[{"internalType":"bytes32","name":"","type":"bytes32"}],"stateMutability":"view","type":"function"},{"inputs":[{"internalType":"address","name":"owner","type":"address"},{"internalType":"address","name":"spender","type":"address"}],"name":"allowance","outputs":[{"internalType":"uint256","name":"","type":"uint256"}],"stateMutability":"view","type":"function"},{"inputs":[{"internalType":"address","name":"spender","type":"address"},{"internalType":"uint256","name":"amount","type":"uint256"}],"name":"approve","outputs":[{"internalType":"bool","name":"","type":"bool"}],"stateMutability":"nonpayable","type":"function"},{"inputs":[{"internalType":"address","name":"account","type":"address"}],"name":"balanceOf","outputs":[{"internalType":"uint256","name":"","type":"uint256"}],"stateMutability":"view","type":"function"},{"inputs":[],"name":"capManager","outputs":[{"internalType":"address","name":"","type":"address"}],"stateMutability":"view","type":"function"},{"inputs":[],"name":"capParams","outputs":[{"components":[{"internalType":"bool","name":"capEnabled","type":"bool"},{"internalType":"uint120","name":"perAddressCap","type":"uint120"},{"internalType":"uint128","name":"globalCap","type":"uint128"}],"internalType":"struct ICappedLiquidity.CapParams","name":"","type":"tuple"}],"stateMutability":"view","type":"function"},{"inputs":[{"internalType":"address","name":"_pauseManager","type":"address"}],"name":"changePauseManager","outputs":[],"stateMutability":"nonpayable","type":"function"},{"inputs":[],"name":"decimals","outputs":[{"internalType":"uint8","name":"","type":"uint8"}],"stateMutability":"view","type":"function"},{"inputs":[{"internalType":"address","name":"spender","type":"address"},{"internalType":"uint256","name":"amount","type":"uint256"}],"name":"decreaseAllowance","outputs":[{"internalType":"bool","name":"","type":"bool"}],"stateMutability":"nonpayable","type":"function"},{"inputs":[{"internalType":"bytes4","name":"selector","type":"bytes4"}],"name":"getActionId","outputs":[{"internalType":"bytes32","name":"","type":"bytes32"}],"stateMutability":"view","type":"function"},{"inputs":[],"name":"getAuthorizer","outputs":[{"internalType":"contract IAuthorizer","name":"","type":"address"}],"stateMutability":"view","type":"function"},{"inputs":[],"name":"getInvariant","outputs":[{"internalType":"uint256","name":"invariant","type":"uint256"}],"stateMutability":"view","type":"function"},{"inputs":[],"name":"getLastInvariant","outputs":[{"internalType":"uint256","name":"","type":"uint256"}],"stateMutability":"view","type":"function"},{"inputs":[],"name":"getNormalizedWeights","outputs":[{"internalType":"uint256[]","name":"","type":"uint256[]"}],"stateMutability":"view","type":"function"},{"inputs":[],"name":"getOwner","outputs":[{"internalType":"address","name":"","type":"address"}],"stateMutability":"view","type":"function"},{"inputs":[],"name":"getPausedState","outputs":[{"internalType":"bool","name":"paused","type":"bool"},{"internalType":"uint256","name":"pauseWindowEndTime","type":"uint256"},{"internalType":"uint256","name":"bufferPeriodEndTime","type":"uint256"}],"stateMutability":"view","type":"function"},{"inputs":[],"name":"getPoolId","outputs":[{"internalType":"bytes32","name":"","type":"bytes32"}],"stateMutability":"view","type":"function"},{"inputs":[],"name":"getRate","outputs":[{"internalType":"uint256","name":"","type":"uint256"}],"stateMutability":"view","type":"function"},{"inputs":[],"name":"getRoot3Alpha","outputs":[{"internalType":"uint256","name":"","type":"uint256"}],"stateMutability":"view","type":"function"},{"inputs":[],"name":"getScalingFactors","outputs":[{"internalType":"uint256[]","name":"","type":"uint256[]"}],"stateMutability":"view","type":"function"},{"inputs":[],"name":"getSwapFeePercentage","outputs":[{"internalType":"uint256","name":"","type":"uint256"}],"stateMutability":"view","type":"function"},{"inputs":[],"name":"getVault","outputs":[{"internalType":"contract IVault","name":"","type":"address"}],"stateMutability":"view","type":"function"},{"inputs":[],"name":"gyroConfig","outputs":[{"internalType":"contract IGyroConfig","name":"","type":"address"}],"stateMutability":"view","type":"function"},{"inputs":[{"internalType":"address","name":"spender","type":"address"},{"internalType":"uint256","name":"addedValue","type":"uint256"}],"name":"increaseAllowance","outputs":[{"internalType":"bool","name":"","type":"bool"}],"stateMutability":"nonpayable","type":"function"},{"inputs":[],"name":"name","outputs":[{"internalType":"string","name":"","type":"string"}],"stateMutability":"view","type":"function"},{"inputs":[{"internalType":"address","name":"owner","type":"address"}],"name":"nonces","outputs":[{"internalType":"uint256","name":"","type":"uint256"}],"stateMutability":"view","type":"function"},{"inputs":[{"internalType":"bytes32","name":"poolId","type":"bytes32"},{"internalType":"address","name":"sender","type":"address"},{"internalType":"address","name":"recipient","type":"address"},{"internalType":"uint256[]","name":"balances","type":"uint256[]"},{"internalType":"uint256","name":"lastChangeBlock","type":"uint256"},{"internalType":"uint256","name":"protocolSwapFeePercentage","type":"uint256"},{"internalType":"bytes","name":"userData","type":"bytes"}],"name":"onExitPool","outputs":[{"internalType":"uint256[]","name":"","type":"uint256[]"},{"internalType":"uint256[]","name":"","type":"uint256[]"}],"stateMutability":"nonpayable","type":"function"},{"inputs":[{"internalType":"bytes32","name":"poolId","type":"bytes32"},{"internalType":"address","name":"sender","type":"address"},{"internalType":"address","name":"recipient","type":"address"},{"internalType":"uint256[]","name":"balances","type":"uint256[]"},{"internalType":"uint256","name":"lastChangeBlock","type":"uint256"},{"internalType":"uint256","name":"protocolSwapFeePercentage","type":"uint256"},{"internalType":"bytes","name":"userData","type":"bytes"}],"name":"onJoinPool","outputs":[{"internalType":"uint256[]","name":"","type":"uint256[]"},{"internalType":"uint256[]","name":"","type":"uint256[]"}],"stateMutability":"nonpayable","type":"function"},{"inputs":[{"components":[{"internalType":"enum IVault.SwapKind","name":"kind","type":"uint8"},{"internalType":"contract IERC20","name":"tokenIn","type":"address"},{"internalType":"contract IERC20","name":"tokenOut","type":"address"},{"internalType":"uint256","name":"amount","type":"uint256"},{"internalType":"bytes32","name":"poolId","type":"bytes32"},{"internalType":"uint256","name":"lastChangeBlock","type":"uint256"},{"internalType":"address","name":"from","type":"address"},{"internalType":"address","name":"to","type":"address"},{"internalType":"bytes","name":"userData","type":"bytes"}],"internalType":"struct IPoolSwapStructs.SwapRequest","name":"request","type":"tuple"},{"internalType":"uint256","name":"balanceTokenIn","type":"uint256"},{"internalType":"uint256","name":"balanceTokenOut","type":"uint256"}],"name":"onSwap","outputs":[{"internalType":"uint256","name":"","type":"uint256"}],"stateMutability":"nonpayable","type":"function"},{"inputs":[],"name":"pause","outputs":[],"stateMutability":"nonpayable","type":"function"},{"inputs":[],"name":"pauseManager","outputs":[{"internalType":"address","name":"","type":"address"}],"stateMutability":"view","type":"function"},{"inputs":[{"internalType":"address","name":"owner","type":"address"},{"internalType":"address","name":"spender","type":"address"},{"internalType":"uint256","name":"value","type":"uint256"},{"internalType":"uint256","name":"deadline","type":"uint256"},{"internalType":"uint8","name":"v","type":"uint8"},{"internalType":"bytes32","name":"r","type":"bytes32"},{"internalType":"bytes32","name":"s","type":"bytes32"}],"name":"permit","outputs":[],"stateMutability":"nonpayable","type":"function"},{"inputs":[{"internalType":"bytes32","name":"poolId","type":"bytes32"},{"internalType":"address","name":"sender","type":"address"},{"internalType":"address","name":"recipient","type":"address"},{"internalType":"uint256[]","name":"balances","type":"uint256[]"},{"internalType":"uint256","name":"lastChangeBlock","type":"uint256"},{"internalType":"uint256","name":"protocolSwapFeePercentage","type":"uint256"},{"internalType":"bytes","name":"userData","type":"bytes"}],"name":"queryExit","outputs":[{"internalType":"uint256","name":"bptIn","type":"uint256"},{"internalType":"uint256[]","name":"amountsOut","type":"uint256[]"}],"stateMutability":"nonpayable","type":"function"},{"inputs":[{"internalType":"bytes32","name":"poolId","type":"bytes32"},{"internalType":"address","name":"sender","type":"address"},{"internalType":"address","name":"recipient","type":"address"},{"internalType":"uint256[]","name":"balances","type":"uint256[]"},{"internalType":"uint256","name":"lastChangeBlock","type":"uint256"},{"internalType":"uint256","name":"protocolSwapFeePercentage","type":"uint256"},{"internalType":"bytes","name":"userData","type":"bytes"}],"name":"queryJoin","outputs":[{"internalType":"uint256","name":"bptOut","type":"uint256"},{"internalType":"uint256[]","name":"amountsIn","type":"uint256[]"}],"stateMutability":"nonpayable","type":"function"},{"inputs":[{"internalType":"contract IERC20","name":"token","type":"address"},{"internalType":"bytes","name":"poolConfig","type":"bytes"}],"name":"setAssetManagerPoolConfig","outputs":[],"stateMutability":"nonpayable","type":"function"},{"inputs":[{"internalType":"address","name":"_capManager","type":"address"}],"name":"setCapManager","outputs":[],"stateMutability":"nonpayable","type":"function"},{"inputs":[{"components":[{"internalType":"bool","name":"capEnabled","type":"bool"},{"internalType":"uint120","name":"perAddressCap","type":"uint120"},{"internalType":"uint128","name":"globalCap","type":"uint128"}],"internalType":"struct ICappedLiquidity.CapParams","name":"params","type":"tuple"}],"name":"setCapParams","outputs":[],"stateMutability":"nonpayable","type":"function"},{"inputs":[{"internalType":"bool","name":"paused","type":"bool"}],"name":"setPaused","outputs":[],"stateMutability":"nonpayable","type":"function"},{"inputs":[{"internalType":"uint256","name":"swapFeePercentage","type":"uint256"}],"name":"setSwapFeePercentage","outputs":[],"stateMutability":"nonpayable","type":"function"},{"inputs":[],"name":"symbol","outputs":[{"internalType":"string","name":"","type":"string"}],"stateMutability":"view","type":"function"},{"inputs":[],"name":"totalSupply","outputs":[{"internalType":"uint256","name":"","type":"uint256"}],"stateMutability":"view","type":"function"},{"inputs":[{"internalType":"address","name":"recipient","type":"address"},{"internalType":"uint256","name":"amount","type":"uint256"}],"name":"transfer","outputs":[{"internalType":"bool","name":"","type":"bool"}],"stateMutability":"nonpayable","type":"function"},{"inputs":[{"internalType":"address","name":"sender","type":"address"},{"internalType":"address","name":"recipient","type":"address"},{"internalType":"uint256","name":"amount","type":"uint256"}],"name":"transferFrom","outputs":[{"internalType":"bool","name":"","type":"bool"}],"stateMutability":"nonpayable","type":"function"},{"inputs":[],"name":"unpause","outputs":[],"stateMutability":"nonpayable","type":"function"}],"bytecode":"6102a06040527f6e71edae12b1b97f4d1f60370fef10105fa2faae0126114a169c64845d6126c9610120523480156200003757600080fd5b50604051620058d3380380620058d38339810160408190526200005a9162000c97565b60408181015161010081015160c082015160e0830151855184516020860151958701518751600380825260808201909952959794969395929491939290918160200160208202803683370190505088604001516060015189606001518a608001518b6040015160a00151888651600214620000d7576001620000da565b60025b8989898989898989828289898d8280604051806040016040528060018152602001603160f81b81525085858a336001600160a01b031660001b806080818152505050806001600160a01b031660a0816001600160a01b031660601b815250505081600390805190602001906200015292919062000936565b5080516200016890600490602084019062000936565b505060058054601260ff1990911617905550815160209283012060c052805191012060e052507f8b73c3c69bb8fe3d512ecc4cf759cc79239f7b179b0ffacaa9a75d522b39400f6101005260601b6001600160601b0319166101405250620001db90506276a7008311156101946200061f565b620001ef62278d008211156101956200061f565b429091016101608190520161018052855162000211906002111560c86200061f565b6200022b6200021f62000634565b8751111560c96200061f565b62000241866200063960201b620013951760201c565b6200024c8462000645565b6040516309b2760f60e01b81526000906001600160a01b038c16906309b2760f906200027d908d9060040162000e17565b602060405180830381600087803b1580156200029857600080fd5b505af1158015620002ad573d6000803e3d6000fd5b505050506040513d601f19601f82011682018060405250810190620002d3919062000c7e565b604051633354e3e960e11b81529091506001600160a01b038c16906366a9c7d290620003089084908b908b9060040162000d7d565b600060405180830381600087803b1580156200032357600080fd5b505af115801562000338573d6000803e3d6000fd5b50505050806101a08181525050505050505050505050505050505050505050505060006001600160a01b0316826001600160a01b031614156040518060400160405280600e81526020016d1b9bdd08185d5d1a1bdc9a5e995960921b81525090620003c15760405162461bcd60e51b8152600401620003b8919062000e2c565b60405180910390fd5b50600b80546001600160a01b0319166001600160a01b039384161790558051600a8054602084015160409094015160ff1990911692151592909217610100600160801b0319166101006001600160781b0390941693909302929092176001600160801b03908116600160801b91909216021790556200044690821615156069620006d1565b600c80546001600160a01b0319166001600160a01b0392909216919091179055604081810151015180516200048190600314610161620006d1565b62000497816200063960201b620013951760201c565b6020820151620004b4906001600160a01b031615156069620006d1565b80600081518110620004c257fe5b60200260200101516001600160a01b03166101e0816001600160a01b031660601b8152505080600181518110620004f557fe5b60200260200101516001600160a01b0316610200816001600160a01b031660601b81525050806002815181106200052857fe5b60200260200101516001600160a01b0316610220816001600160a01b031660601b8152505062000573816000815181106200055f57fe5b6020026020010151620006e260201b60201c565b6102405280516200058c90829060019081106200055f57fe5b610260528051620005a590829060029081106200055f57fe5b61028052604082015160800151620005e890670233f548dddd560211801590620005df5750670de098625faac3a883604001516080015111155b61015f620006d1565b506040810151608001516101c05260200151600d80546001600160a01b0319166001600160a01b0390921691909117905562000ed7565b8162000630576200063081620007b6565b5050565b600390565b80620006308162000809565b6200065a64e8d4a5100082101560cb6200061f565b6200067267016345785d8a000082111560ca6200061f565b620006918160c06008546200089660201b6200139f179092919060201c565b6008556040517fa9ba3ffe0b6c366b81232caab38605a0699ad5398d6cce76f91ee809e322dafc90620006c690839062000e61565b60405180910390a150565b8162000630576200063081620008ab565b60006001600160a01b038216301415620007065750670de0b6b3a7640000620007b1565b6000826001600160a01b031663313ce5676040518163ffffffff1660e01b815260040160206040518083038186803b1580156200074257600080fd5b505afa15801562000757573d6000803e3d6000fd5b505050506040513d601f19601f820116820180604052508101906200077d919062000d53565b60ff16905060006200079c601283620008bd60201b620013b41760201c565b905080600a0a670de0b6b3a764000002925050505b919050565b62461bcd60e51b6000908152602060045260076024526642414c23000030600a808404818106603090810160081b95839006959095019082900491820690940160101b939093010160c81b604452606490fd5b6002815110156200081a5762000893565b6000816000815181106200082a57fe5b602002602001015190506000600190505b8251811015620008905760008382815181106200085457fe5b6020026020010151905062000885816001600160a01b0316846001600160a01b03161060656200061f60201b60201c565b91506001016200083b565b50505b50565b6001600160401b03811b1992909216911b1790565b62000893816223aca960e91b620008d5565b6000620008cf8383111560016200061f565b50900390565b62461bcd60e51b600090815260206004526007602452600a808404818106603090810160081b958390069590950190829004918206850160101b01602363ffffff0060e086901c160160181b0190930160c81b60445260e882901c90606490fd5b828054600181600116156101000203166002900490600052602060002090601f0160209004810192826200096e5760008555620009b9565b82601f106200098957805160ff1916838001178555620009b9565b82800160010185558215620009b9579182015b82811115620009b95782518255916020019190600101906200099c565b50620009c7929150620009cb565b5090565b5b80821115620009c75760008155600101620009cc565b8051620007b18162000ec1565b600082601f83011262000a00578081fd5b815160206001600160401b0382111562000a1657fe5b80820262000a2682820162000e6a565b83815282810190868401838801850189101562000a41578687fd5b8693505b8584101562000a7057805162000a5b8162000ec1565b83526001939093019291840191840162000a45565b50979650505050505050565b600082601f83011262000a8d578081fd5b81516001600160401b0381111562000aa157fe5b62000ab6601f8201601f191660200162000e6a565b81815284602083860101111562000acb578283fd5b62000ade82602083016020870162000e8e565b949350505050565b60006060828403121562000af8578081fd5b604051606081016001600160401b038111828210171562000b1557fe5b80604052508091508251801515811462000b2e57600080fd5b815260208301516001600160781b038116811462000b4b57600080fd5b602082015260408301516001600160801b038116811462000b6b57600080fd5b6040919091015292915050565b6000610160828403121562000b8b578081fd5b62000b9861012062000e6a565b82519091506001600160401b038082111562000bb357600080fd5b62000bc18583860162000a7c565b8352602084015191508082111562000bd857600080fd5b62000be68583860162000a7c565b6020840152604084015191508082111562000c0057600080fd5b5062000c0f84828501620009ef565b604083015250606082015160608201526080820151608082015262000c3760a08301620009e2565b60a082015262000c4a60c08301620009e2565b60c082015262000c5e8360e0840162000ae6565b60e082015262000c726101408301620009e2565b61010082015292915050565b60006020828403121562000c90578081fd5b5051919050565b60006020828403121562000ca9578081fd5b81516001600160401b038082111562000cc0578283fd5b9083019060a0828603121562000cd4578283fd5b60405160a08101818110838211171562000cea57fe5b60405262000cf883620009e2565b815262000d0860208401620009e2565b602082015260408301518281111562000d1f578485fd5b62000d2d8782860162000b78565b604083015250606083015160608201526080830151608082015280935050505092915050565b60006020828403121562000d65578081fd5b815160ff8116811462000d76578182fd5b9392505050565b60006060820185835260206060818501528186518084526080860191508288019350845b8181101562000dc85784516001600160a01b03168352938301939183019160010162000da1565b505084810360408601528551808252908201925081860190845b8181101562000e095782516001600160a01b03168552938301939183019160010162000de2565b509298975050505050505050565b602081016003831062000e2657fe5b91905290565b600060208252825180602084015262000e4d81604085016020870162000e8e565b601f01601f19169190910160400192915050565b90815260200190565b6040518181016001600160401b038111828210171562000e8657fe5b604052919050565b60005b8381101562000eab57818101518382015260200162000e91565b8381111562000ebb576000848401525b50505050565b6001600160a01b03811681146200089357600080fd5b60805160a05160601c60c05160e05161010051610120516101405160601c61016051610180516101a0516101c0516101e05160601c6102005160601c6102205160601c6102405161026051610280516148b86200101b600039806116045280611f035280612ad252806131135250806115ca5280611ea25280612a6f52806131a35250806115905280611e415280612a0c528061326f525080611ec85280612ab152806130f052806131395280613205525080611e675280612a4e52806130b5528061318052806131c9525080611e0652806129eb528061307b528061324d52508061132c52806119b35280611ce8528061208b528061215852806133405250806107a35250806115195250806114f5525080610e365250806110ba52508061173b52508061177d52508061175c525080610e12525080610d9752506148b86000f3fe608060405234801561001057600080fd5b50600436106102745760003560e01c806374f3b009116101515780639d2c110c116100c3578063c0ff1a1511610087578063c0ff1a1514610500578063d505accf14610508578063d5c096c41461051b578063d60ca6031461052e578063dd62ed3e14610536578063f89f27ed1461054957610274565b80639d2c110c146104b7578063a457c2d7146104ca578063a9059cbb146104dd578063aaabadc5146104f0578063abd13afe146104f857610274565b8063851c1bb311610115578063851c1bb31461047157806387ec681714610484578063893d20e8146104975780638d928af81461049f57806395d89b41146104a75780639b02cdde146104af57610274565b806374f3b0091461040f57806376e54a46146104305780637ecebe00146104435780638002df18146104565780638456cb591461046957610274565b806338fff2d0116101ea57806350dd6ed9116101ae57806350dd6ed9146103b057806355c67628146103c35780636028bfd4146103cb578063679aefce146103ec5780636d785a87146103f457806370a08231146103fc57610274565b806338fff2d014610363578063395093511461036b5780633aeae0d31461037e5780633f4ba83a1461039357806344bbdb551461039b57610274565b80631c0de0511161023c5780631c0de051146102f45780631dd746ea1461030b57806323b872dd14610320578063313ce567146103335780633644e5151461034857806338e9922e1461035057610274565b806306fdde0314610279578063095ea7b3146102975780630e608b30146102b757806316c38b3c146102cc57806318160ddd146102df575b600080fd5b610281610551565b60405161028e91906147b0565b60405180910390f35b6102aa6102a53660046142ca565b6105e7565b60405161028e9190614754565b6102ca6102c53660046141a5565b6105fe565b005b6102ca6102da3660046142f5565b6106af565b6102e76106c3565b60405161028e9190614777565b6102fc6106c9565b60405161028e9392919061475f565b6103136106f2565b60405161028e919061471c565b6102aa61032e366004614215565b610701565b61033b610775565b60405161028e919061483c565b6102e761077e565b6102ca61035e366004614603565b610788565b6102e76107a1565b6102aa6103793660046142ca565b6107c5565b610386610800565b60405161028e91906147c3565b6102ca61084b565b6103a3610940565b60405161028e9190614708565b6102ca6103be366004614442565b61094f565b6102e761096d565b6103de6103d936600461430f565b61097e565b60405161028e929190614823565b6102e76109b5565b6103a36109e0565b6102e761040a3660046141a5565b6109ef565b61042261041d36600461430f565b610a0e565b60405161028e92919061472f565b6102ca61043e36600461448f565b610ab1565b6102e76104513660046141a5565b610bd8565b6102ca6104643660046141a5565b610bf3565b6102ca610cd9565b6102e761047f36600461441a565b610d91565b6103de61049236600461430f565b610dea565b6103a3610e10565b6103a3610e34565b610281610e58565b6102e7610eb9565b6102e76104c536600461450d565b610ebf565b6102aa6104d83660046142ca565b61101d565b6102aa6104eb3660046142ca565b61105b565b6103a3611068565b6103a3611072565b6102e7611081565b6102ca610516366004614255565b61108b565b61042261052936600461430f565b6111fb565b6102e761132a565b6102e76105443660046141dd565b61134e565b61031361138b565b60038054604080516020601f60026000196101006001881615020190951694909404938401819004810282018101909252828152606093909290918301828280156105dd5780601f106105b2576101008083540402835291602001916105dd565b820191906000526020600020905b8154815290600101906020018083116105c057829003601f168201915b5050505050905090565b60006105f43384846113ca565b5060015b92915050565b600b5460408051808201909152600e81526d1b9bdd08185d5d1a1bdc9a5e995960921b6020820152906001600160a01b031633146106585760405162461bcd60e51b815260040161064f91906147b0565b60405180910390fd5b50600b80546001600160a01b0319166001600160a01b0383161790556040517fb8fd9afc34c38fcd13b9a3b7646482eb1fddcefb40af2c70609972816eba3208906106a4908390614708565b60405180910390a150565b6106b761142c565b6106c08161145a565b50565b60025490565b60008060006106d66114d6565b1592506106e16114f3565b91506106eb611517565b9050909192565b60606106fc61153b565b905090565b60008061070e853361134e565b9050610732336001600160a01b038716148061072a5750838210155b61019e611641565b61073d85858561164f565b336001600160a01b0386161480159061075857506000198114155b1561076a5761076a85338584036113ca565b506001949350505050565b60055460ff1690565b60006106fc611737565b61079061142c565b6107986117f5565b6106c08161180a565b7f000000000000000000000000000000000000000000000000000000000000000090565b3360008181526001602090815260408083206001600160a01b038716845290915281205490916105f49185906107fb9086611875565b6113ca565b6108086140f7565b5060408051606081018252600a5460ff81161515825261010081046001600160781b03166020830152600160801b90046001600160801b03169181019190915290565b600c546040805180820190915260118152703737ba103830bab9b29036b0b730b3b2b960791b6020820152906001600160a01b0316331461090a5760405162461bcd60e51b81526004018080602001828103825283818151815260200191508051906020019080838360005b838110156108cf5781810151838201526020016108b7565b50505050905090810190601f1680156108fc5780820380516001836020036101000a031916815260200191505b509250505060405180910390fd5b5061091560006106b7565b6040517f215385c8bfc731925ec8068d7baa50f6b6f34417cc7804f7273dc2c0b3db279090600090a1565b600d546001600160a01b031681565b61095761142c565b61095f6117f5565b610969828261188e565b5050565b6008546000906106fc9060c061198d565b60006060610994865161098f61199a565b61199f565b6109a9898989898989896119ac611a70611ad6565b97509795505050505050565b60006106fc6109c26106c3565b6109da6109cd611081565b6109d561199a565b611bf8565b90611c1c565b600b546001600160a01b031681565b6001600160a01b0381166000908152602081905260409020545b919050565b60608088610a38610a1d610e34565b6001600160a01b0316336001600160a01b03161460cd611641565b610a4d610a436107a1565b82146101f4611641565b6000610a5761153b565b9050610a638882611c76565b6000806000610a788e8e8e8e8e8e8a8f6119ac565b925092509250610a888d84611cd7565b610a928285611a70565b610a9c8185611a70565b909550935050505b5097509795505050505050565b600b5460408051808201909152600e81526d1b9bdd08185d5d1a1bdc9a5e995960921b6020820152906001600160a01b03163314610b025760405162461bcd60e51b815260040161064f91906147b0565b50600a5460408051808201909152601081526f1c1bdbdb081a5cc81d5b98d85c1c195960821b60208201529060ff16610b4e5760405162461bcd60e51b815260040161064f91906147b0565b508051600a8054602084015160408086015160ff19909316941515949094176fffffffffffffffffffffffffffffff0019166101006001600160781b0390921691909102176001600160801b03908116600160801b919092160217815590517f2abf5970d7bc1a2b36eaae52dd2cc353edb0337c7284ef8a01973081b4e04424916106a4916147f8565b6001600160a01b031660009081526006602052604090205490565b600c546040805180820190915260118152703737ba103830bab9b29036b0b730b3b2b960791b60208201526001600160a01b0390911690338214610c785760405162461bcd60e51b81526020600482018181528351602484015283519092839260449091019190850190808383600083156108cf5781810151838201526020016108b7565b50600c80546001600160a01b0319166001600160a01b03848116918217909255604080519284168352602083019190915280517f1ffccd1fa96f4fb3415df8048a0fd107344e262d2d246c85105e2a3f8f3e81989281900390910190a15050565b600c546040805180820190915260118152703737ba103830bab9b29036b0b730b3b2b960791b6020820152906001600160a01b03163314610d5b5760405162461bcd60e51b81526020600482018181528351602484015283519092839260449091019190850190808383600083156108cf5781810151838201526020016108b7565b50610d6660016106b7565b6040517f681eace576127d0553b224436a09801fb47d042942cbff59d7d4ff04d8fa03d790600090a1565b604080517f00000000000000000000000000000000000000000000000000000000000000006020808301919091526001600160e01b03198416828401528251602481840301815260449092019092528051910120919050565b60006060610dfb865161098f61199a565b6109a989898989898989611ce1611da1611ad6565b7f000000000000000000000000000000000000000000000000000000000000000090565b7f000000000000000000000000000000000000000000000000000000000000000090565b60048054604080516020601f60026000196101006001881615020190951694909404938401819004810282018101909252828152606093909290918301828280156105dd5780601f106105b2576101008083540402835291602001916105dd565b60095490565b60008360800151610ed1610a1d610e34565b610edc610a436107a1565b6000610eeb8660200151611e02565b90506000610efc8760400151611e02565b9050600087516001811115610f0d57fe5b1415610f9d576000610f228860600151611f32565b90506000818960600151039050610f468960200151610f418387611f53565b611f5f565b60608901829052610f578885611f53565b9750610f638784611f53565b9650610f73896060015185611f53565b60608a01526000610f858a8a8a611f71565b9050610f918185611f9f565b96505050505050611015565b610fa78683611f53565b9550610fb38582611f53565b9450610fc3876060015182611f53565b60608801526000610fd5888888611fab565b9050610fe18184611fd0565b90506000610fee82611fdc565b9050600082820390506110098a60200151610f418388611f53565b50945061101592505050565b509392505050565b60008061102a338561134e565b90508083106110445761103f338560006113ca565b611051565b61105133858584036113ca565b5060019392505050565b60006105f433848461164f565b60006106fc612002565b600c546001600160a01b031681565b60006106fc61207c565b6110998442111560d1611641565b6001600160a01b0380881660008181526006602090815260408083205481517f00000000000000000000000000000000000000000000000000000000000000008185015280830195909552948b166060850152608084018a905260a0840185905260c08085018a90528151808603909101815260e09094019052825192019190912090611125826120af565b9050600060018288888860405160008152602001604052604051808581526020018460ff1681526020018381526020018281526020019450505050506020604051602081039080840390855afa158015611183573d6000803e3d6000fd5b5050604051601f19015191506111c590506001600160a01b038216158015906111bd57508b6001600160a01b0316826001600160a01b0316145b6101f8611641565b6001600160a01b038b1660009081526006602052604090206001850190556111ee8b8b8b6113ca565b5050505050505050505050565b6060808861120a610a1d610e34565b611215610a436107a1565b600061121f61153b565b90506112296106c3565b6112da5760008061123d8d8d8d868b6120fb565b9150915061125661124c6121a2565b83101560cc611641565b61126860006112636121a2565b6121a9565b61127b8b6112746121a2565b84036121a9565b6112858184611da1565b8061128e61199a565b6001600160401b03811180156112a357600080fd5b506040519080825280602002602001820160405280156112cd578160200160208202803683370190505b5095509550505050610aa4565b6112e48882611c76565b60008060006112f98e8e8e8e8e8e8a8f611ce1565b9250925092506113098c846121a9565b6113138285611da1565b61131d8185611a70565b9095509350610aa4915050565b7f000000000000000000000000000000000000000000000000000000000000000090565b6000611358610e34565b6001600160a01b0316826001600160a01b0316141561137a57506000196105f8565b61138483836121b3565b90506105f8565b60606106fc6121de565b8061096981612275565b6001600160401b03811b1992909216911b1790565b60006113c4838311156001611641565b50900390565b6001600160a01b03808416600081815260016020908152604080832094871680845294825291829020859055815185815291517f8c5be1e5ebec7d5bd14f71427d1e84f3dd0314c0f7b2291e5b200ac8c7c3b9259281900390910190a3505050565b60006114436000356001600160e01b031916610d91565b90506106c061145282336122ee565b610191611641565b801561147a5761147561146b6114f3565b4210610193611641565b61148f565b61148f611485611517565b42106101a9611641565b6007805482151560ff19909116811790915560408051918252517f9e3a5e37224532dea67b89face185703738a228a6e8a23dee546960180d3be649181900360200190a150565b60006114e0611517565b4211806106fc57505060075460ff161590565b7f000000000000000000000000000000000000000000000000000000000000000090565b7f000000000000000000000000000000000000000000000000000000000000000090565b6060600061154761199a565b90506000816001600160401b038111801561156157600080fd5b5060405190808252806020026020018201604052801561158b578160200160208202803683370190505b5090507f0000000000000000000000000000000000000000000000000000000000000000816000815181106115bc57fe5b6020026020010181815250507f0000000000000000000000000000000000000000000000000000000000000000816001815181106115f657fe5b6020026020010181815250507f00000000000000000000000000000000000000000000000000000000000000008160028151811061163057fe5b602090810291909101015291505090565b8161096957610969816123f0565b6116666001600160a01b0384161515610198611641565b61167d6001600160a01b0383161515610199611641565b611688838383611ad1565b6001600160a01b0383166000908152602081905260409020546116ae90826101a0612443565b6001600160a01b0380851660009081526020819052604080822093909355908416815220546116dd9082611875565b6001600160a01b038084166000818152602081815260409182902094909455805185815290519193928716927fddf252ad1be2c89b69c2b068fc378daa952ba7f163c4a11628f55a4df523b3ef92918290030190a3505050565b60007f00000000000000000000000000000000000000000000000000000000000000007f00000000000000000000000000000000000000000000000000000000000000007f00000000000000000000000000000000000000000000000000000000000000006117a4612459565b3060405160200180868152602001858152602001848152602001838152602001826001600160a01b031681526020019550505050505060405160208183030381529060405280519060200120905090565b6118086118006114d6565b610192611641565b565b61181d64e8d4a5100082101560cb611641565b61183367016345785d8a000082111560ca611641565b600854611842908260c061139f565b6008556040517fa9ba3ffe0b6c366b81232caab38605a0699ad5398d6cce76f91ee809e322dafc906106a4908390614777565b60008282016118878482101583611641565b9392505050565b60006118986107a1565b905060006118a4610e34565b6001600160a01b031663b05f8e4883866040518363ffffffff1660e01b81526004016118d1929190614799565b60806040518083038186803b1580156118e957600080fd5b505afa1580156118fd573d6000803e3d6000fd5b505050506040513d601f19601f820116820180604052508101906119219190614633565b604051630639cdb560e21b81529094506001600160a01b03851693506318e736d49250611955915085908790600401614780565b600060405180830381600087803b15801561196f57600080fd5b505af1158015611983573d6000803e3d6000fd5b5050505050505050565b1c6001600160401b031690565b600390565b6109698183146067611641565b60006060807f00000000000000000000000000000000000000000000000000000000000000006119da6114d6565b15611a225760006119eb8a8361245d565b90506119f681612531565b611a008a8761255e565b9095509350611a198186611a126106c3565b60006125ab565b60095550611a38565b611a2c898661255e565b60001960095590945092505b604080516003808252608082019092528591859190602082016060803683370190505093509350935050985098509895505050505050565b60005b611a7b61199a565b811015611ad157611ab2838281518110611a9157fe5b6020026020010151838381518110611aa557fe5b6020026020010151612605565b838281518110611abe57fe5b6020908102919091010152600101611a73565b505050565b333014611b94576000306001600160a01b0316600036604051611afa9291906146f8565b6000604051808303816000865af19150503d8060008114611b37576040519150601f19603f3d011682016040523d82523d6000602084013e611b3c565b606091505b505090508060008114611b4b57fe5b60046000803e6000516001600160e01b0319166343adbafb60e01b8114611b76573d6000803e3d6000fd5b506020600460003e604060205260243d03602460403e601c3d016000f35b6000611b9e61153b565b9050611baa8782611c76565b600080611bc18c8c8c8c8c8c898d8d63ffffffff16565b5091509150611bd481848663ffffffff16565b8051601f1982018390526343adbafb603f1983015260200260231982016044820181fd5b6000828202611887841580611c15575083858381611c1257fe5b04145b6003611641565b600081611c2f57611c2f60006004611641565b82611c3c575060006105f8565b670de0b6b3a764000083810290848281611c5257fe5b0414611c6457611c6460006005611641565b828181611c6d57fe5b04949350505050565b60005b611c8161199a565b811015611ad157611cb8838281518110611c9757fe5b6020026020010151838381518110611cab57fe5b6020026020010151612632565b838281518110611cc457fe5b6020908102919091010152600101611c79565b610969828261265b565b60006060807f000000000000000000000000000000000000000000000000000000000000000083611d128a8361245d565b9050611d1d81612531565b611d278a87612712565b600a54919650945060ff1615611d5157611d5185611d448d6109ef565b611d4c6106c3565b612756565b611d658186611d5e6106c3565b60016125ab565b60095560408051600380825260808201909252869186919060208201606080368337019050509450945094505050985098509895505050505050565b60005b611dac61199a565b811015611ad157611de3838281518110611dc257fe5b6020026020010151838381518110611dd657fe5b6020026020010151612868565b838281518110611def57fe5b6020908102919091010152600101611da4565b60007f00000000000000000000000000000000000000000000000000000000000000006001600160a01b0316826001600160a01b03161415611e6557507f0000000000000000000000000000000000000000000000000000000000000000610a09565b7f00000000000000000000000000000000000000000000000000000000000000006001600160a01b0316826001600160a01b03161415611ec657507f0000000000000000000000000000000000000000000000000000000000000000610a09565b7f00000000000000000000000000000000000000000000000000000000000000006001600160a01b0316826001600160a01b03161415611f2757507f0000000000000000000000000000000000000000000000000000000000000000610a09565b610a096101356123f0565b600080611f47611f4061096d565b84906128bf565b905061188783826113b4565b60006118878383612632565b610969611f6b836128fb565b82610969565b6000611f7b6117f5565b6000611f88858585612901565b9050611f96858585846129a0565b95945050505050565b60006118878383612605565b6000611fb56117f5565b6000611fc2858585612901565b9050611f96858585846129b2565b60006118878383612868565b60006105f8611ffb611fec61096d565b670de0b6b3a7640000906113b4565b8390612868565b600061200c610e34565b6001600160a01b031663aaabadc56040518163ffffffff1660e01b815260040160206040518083038186803b15801561204457600080fd5b505afa158015612058573d6000803e3d6000fd5b505050506040513d601f19601f820116820180604052508101906106fc91906141c1565b60006106fc6120896129c4565b7f000000000000000000000000000000000000000000000000000000000000000061245d565b60006120b9611737565b82604051602001808061190160f01b81525060020183815260200182815260200192505050604051602081830303815290604052805190602001209050919050565b600060606121076117f5565b600061211284612b12565b905061212d600082600381111561212557fe5b1460ce611641565b600061213885612b31565b90506121468151600361199f565b6121508187611c76565b600061217c827f000000000000000000000000000000000000000000000000000000000000000061245d565b9050600061218b826003611bf8565b6009929092555093509150505b9550959350505050565b620f424090565b6109698282612be5565b6001600160a01b03918216600090815260016020908152604080832093909416825291909152205490565b60408051600380825260808201909252606091600091906020820184803683370190505090506003670de0b6b3a7640000048160008151811061221d57fe5b60209081029190910101526003670de0b6b3a7640000048160018151811061224157fe5b60209081029190910101526003670de0b6b3a7640000048160028151811061226557fe5b6020908102919091010152905090565b600281511015612284576106c0565b60008160008151811061229357fe5b602002602001015190506000600190505b8251811015611ad15760008382815181106122bb57fe5b602002602001015190506122e4816001600160a01b0316846001600160a01b0316106065611641565b91506001016122a4565b600073ba1ba1ba1ba1ba1ba1ba1ba1ba1ba1ba1ba1ba1b61230d610e10565b6001600160a01b031614158015612328575061232883612c7a565b1561235057612335610e10565b6001600160a01b0316336001600160a01b03161490506105f8565b612358612002565b6001600160a01b0316639be2a8848484306040518463ffffffff1660e01b815260040180848152602001836001600160a01b03168152602001826001600160a01b03168152602001935050505060206040518083038186803b1580156123bd57600080fd5b505afa1580156123d1573d6000803e3d6000fd5b505050506040513d60208110156123e757600080fd5b505190506105f8565b62461bcd60e51b6000908152602060045260076024526642414c23000030600a808404818106603090810160081b95839006959095019082900491820690940160101b939093010160c81b604452606490fd5b60006124528484111583611641565b5050900390565b4690565b60006c01431e0fae6d7217caa00000008360008151811061247a57fe5b6020026020010151111561249557612495600061016a612cac565b6c01431e0fae6d7217caa0000000836001815181106124b057fe5b602002602001015111156124cb576124cb600061016a612cac565b6c01431e0fae6d7217caa0000000836002815181106124e657fe5b6020026020010151111561250157612501600061016a612cac565b6000806000806125118787612cba565b9350935093509350612526848484848a612e09565b979650505050505050565b60008060008061254360095486612e5a565b935093509350935061255784848484612ec3565b5050505050565b60006060600061256d84612b12565b9050600181600381111561257d57fe5b14156125975761258d8585612ee9565b92509250506125a4565b6125a26101506123f0565b505b9250929050565b600081156125dd5760006125c9846125c38888612f1b565b90612f70565b90506125d58682612fcd565b9150506125fd565b60006125ed846109da8888612fe5565b90506125f9868261300f565b9150505b949350505050565b60008161261157600080fd5b670de0b6b3a76400008381029084828161262757fe5b0414611c6457600080fd5b600082820261264c841580611c15575083858381611c1257fe5b670de0b6b3a764000081611c6d565b6126726001600160a01b038316151561019b611641565b61267e82600083611ad1565b6001600160a01b0382166000908152602081905260409020546126a490826101a1612443565b6001600160a01b0383166000908152602081905260409020556002546126ca9082613025565b6002556040805182815290516000916001600160a01b038516917fddf252ad1be2c89b69c2b068fc378daa952ba7f163c4a11628f55a4df523b3ef9181900360200190a35050565b60006060600061272184612b12565b9050600381600381111561273157fe5b141561274b576127418585613033565b90935091506125a2565b6125a26101366123f0565b60408051606081018252600a5460ff81161515825261010081046001600160781b031660208301819052600160801b9091046001600160801b031692820192909252906127a38585612fcd565b11156040518060400160405280601a81526020017f6f7665722061646472657373206c697175696469747920636170000000000000815250906127f95760405162461bcd60e51b815260040161064f91906147b0565b5060408101516001600160801b03166128128584612fcd565b11156040518060400160405280601981526020017f6f76657220676c6f62616c206c69717569646974792063617000000000000000815250906125575760405162461bcd60e51b815260040161064f91906147b0565b60006128778215156004611641565b82612884575060006105f8565b670de0b6b3a7640000838102906128a79085838161289e57fe5b04146005611641565b8260018203816128b357fe5b046001019150506105f8565b60008282026128d9841580611c15575083858381611c1257fe5b806128e85760009150506105f8565b670de0b6b3a764000060001982016128b3565b50600090565b6040805160038082526080820190925260009182919060208201606080368337019050509050838160008151811061293557fe5b602002602001018181525050828160018151811061294f57fe5b60200260200101818152505060008061297087602001518860400151613058565b9150915061297e8282613295565b8360028151811061298b57fe5b6020026020010181815250506125268361333c565b6000611f968484876060015185613376565b6000611f9684848760600151856133d7565b60408051600380825260808201909252606091602082018380368337019050509050612a307f00000000000000000000000000000000000000000000000000000000000000007f0000000000000000000000000000000000000000000000000000000000000000613295565b81600081518110612a3d57fe5b602002602001018181525050612a937f00000000000000000000000000000000000000000000000000000000000000007f0000000000000000000000000000000000000000000000000000000000000000613295565b81600181518110612aa057fe5b602002602001018181525050612af67f00000000000000000000000000000000000000000000000000000000000000007f0000000000000000000000000000000000000000000000000000000000000000613295565b81600281518110612b0357fe5b60200260200101818152505090565b6000818060200190516020811015612b2957600080fd5b505192915050565b6060818060200190516040811015612b4857600080fd5b815160208301805160405192949293830192919084640100000000821115612b6f57600080fd5b908301906020820185811115612b8457600080fd5b8251866020820283011164010000000082111715612ba157600080fd5b82525081516020918201928201910280838360005b83811015612bce578181015183820152602001612bb6565b505050509190910160405250929695505050505050565b612bf160008383611ad1565b600254612bfe9082611875565b6002556001600160a01b038216600090815260208190526040902054612c249082611875565b6001600160a01b0383166000818152602081815260408083209490945583518581529351929391927fddf252ad1be2c89b69c2b068fc378daa952ba7f163c4a11628f55a4df523b3ef9281900390910190a35050565b6000612c8c631c74c91760e11b610d91565b8214806105f85750612ca46350dd6ed960e01b610d91565b909114919050565b816109695761096981613435565b6000808080612cd385612ccd8180613445565b90613445565b670de0b6b3a7640000039350600086600281518110612cee57fe5b602002602001015187600181518110612d0357fe5b602002602001015188600081518110612d1857fe5b602002602001015101019050612d3b86612ccd888461344590919063ffffffff16565b93506000612d7a88600081518110612d4f57fe5b602002602001015189600281518110612d6457fe5b602002602001015161344590919063ffffffff16565b612d9f89600281518110612d8a57fe5b60200260200101518a600181518110612d6457fe5b612dc48a600181518110612daf57fe5b60200260200101518b600081518110612d6457fe5b01019050612dd28188613445565b9350612dfc88600281518110612de457fe5b6020026020010151612ccd8a600181518110612daf57fe5b9250505092959194509250565b600080612e188787878761345c565b92509050612e2a868686868587613501565b91506e01ed09bead87c0378d8e6400000000821115612e5057612e506000610169612cac565b5095945050505050565b600080600080600080600080612e6e6135c5565b93509350935093508360001415612e9357600097508796509094509250612eba915050565b600080612eaa8c8c612ea36106c3565b8989613834565b909a509850929650909450505050505b92959194509250565b8315612ed357612ed382856121a9565b8215612ee357612ee381846121a9565b50505050565b600060606000612ef8846138cd565b90506000612f0e8683612f096106c3565b6138ef565b9196919550909350505050565b6000828202831580612f35575082848281612f3257fe5b04145b612f4557612f4560006003611641565b80612f545760009150506105f8565b670de0b6b3a764000060001982015b0460010191505092915050565b600081612f8357612f8360006004611641565b82612f90575060006105f8565b670de0b6b3a764000083810290848281612fa657fe5b0414612fc157612fc1670de0b6b3a764000085838161289e57fe5b826001820381612f6357fe5b60008282018381101561188757611887600080611641565b6000828202831580612fff575082848281612ffc57fe5b04145b61264c5761264c60006003611641565b6000828211156113c4576113c460006001611641565b600061188783836001612443565b600060606000613042846138cd565b90506000612f0e86836130536106c3565b61398a565b600080826001600160a01b0316846001600160a01b03161115613079579192915b7f00000000000000000000000000000000000000000000000000000000000000006001600160a01b0316846001600160a01b031614156131c7577f00000000000000000000000000000000000000000000000000000000000000006001600160a01b0316836001600160a01b0316141561313757507f000000000000000000000000000000000000000000000000000000000000000090507f00000000000000000000000000000000000000000000000000000000000000006125a4565b7f00000000000000000000000000000000000000000000000000000000000000006001600160a01b0316836001600160a01b03161461317d5761317d6000610162612cac565b507f000000000000000000000000000000000000000000000000000000000000000090507f00000000000000000000000000000000000000000000000000000000000000006125a4565b7f00000000000000000000000000000000000000000000000000000000000000006001600160a01b0316846001600160a01b031614801561323957507f00000000000000000000000000000000000000000000000000000000000000006001600160a01b0316836001600160a01b0316145b61324a5761324a6000610162612cac565b507f0000000000000000000000000000000000000000000000000000000000000000937f00000000000000000000000000000000000000000000000000000000000000009350915050565b60008060006132a2610e34565b6001600160a01b031663b05f8e486132b86107a1565b876040518363ffffffff1660e01b81526004016132d6929190614799565b60806040518083038186803b1580156132ee57600080fd5b505afa158015613302573d6000803e3d6000fd5b505050506040513d601f19601f820116820180604052508101906133269190614633565b505081810194509092509050611f968385612fe5565b60007f00000000000000000000000000000000000000000000000000000000000000008161336a848361245d565b90506125fd8183612fe5565b60008061338b83670de0b6b3a7640002613a25565b8601905060006133a384670de0b6b3a763ffff613445565b860190506133be6133b48387612fcd565b6109da8388612fe5565b92505050838111156125fd576125fd6000610165612cac565b6000838311156133ee576133ee6000610165612cac565b600061340283670de0b6b3a7640002613a25565b86019050600061341a84670de0b6b3a763ffff613445565b8601905061252661342b828761300f565b6125c38488612f1b565b6106c0816223aca960e91b613a39565b6000670de0b6b3a76400008383025b049392505050565b6000808061346d8760038702613a25565b6134778780613a25565b01905060006134966003890261348e846005613a9a565b890190613c28565b9050670de0b6b3a76400008890036134df6706f05b59d3b200008210156134c557671bc16d674ec800006134cf565b6714d1120d7b1600005b83906001600160401b0316613a25565b93506134f38267120a871cc0020000613a25565b945050505094509492505050565b600080805b60ff8110156135ad576000806135208b8b8b8b8b8b613c6a565b915091506001821161353857859450505050506135bb565b600583108015906135465750805b1561355757859450505050506135bb565b6005831080159061356b5750600884048210155b1561357c57859450505050506135bb565b81935080156135965761358f8683612fcd565b95506135a3565b6135a0868361300f565b95505b5050600101613506565b506135b9610160613435565b505b9695505050505050565b600d5460405163bd02d0f560e01b81526000918291829182916001600160a01b039091169063bd02d0f590613617907550524f544f434f4c5f535741505f4645455f5045524360501b90600401614777565b60206040518083038186803b15801561362f57600080fd5b505afa158015613643573d6000803e3d6000fd5b505050506040513d601f19601f82011682018060405250810190613667919061461b565b600d5460405163bd02d0f560e01b81526001600160a01b039091169063bd02d0f5906136b7907f50524f544f434f4c5f4645455f4759524f5f504f5254494f4e0000000000000090600401614777565b60206040518083038186803b1580156136cf57600080fd5b505afa1580156136e3573d6000803e3d6000fd5b505050506040513d601f19601f82011682018060405250810190613707919061461b565b600d546040516321f8a72160e01b81526001600160a01b03909116906321f8a72190613747906c4759524f5f545245415355525960981b90600401614777565b60206040518083038186803b15801561375f57600080fd5b505afa158015613773573d6000803e3d6000fd5b505050506040513d601f19601f8201168201806040525081019061379791906141c1565b600d546040516321f8a72160e01b81526001600160a01b03909116906321f8a721906137d6906b42414c5f545245415355525960a01b90600401614777565b60206040518083038186803b1580156137ee57600080fd5b505afa158015613802573d6000803e3d6000fd5b505050506040513d601f19601f8201168201806040525081019061382691906141c1565b935093509350935090919293565b60008086861161384957506000905080612198565b60006138698561386361385c8a8c61300f565b8990612fe5565b90612fe5565b9050600061388161387a898b61300f565b8790612fe5565b9050600061388f898361300f565b9050600061389d8483611c1c565b905060006138ab8883612fe5565b905060006138b9838361300f565b919d919c50909a5050505050505050505050565b60008180602001905160408110156138e457600080fd5b506020015192915050565b606083516001600160401b038111801561390857600080fd5b50604051908082528060200260200182016040528015613932578160200160208202803683370190505b50905060005b84518110156110155761396b836109da8688858151811061395557fe5b6020026020010151612fe590919063ffffffff16565b82828151811061397757fe5b6020908102919091010152600101613938565b606083516001600160401b03811180156139a357600080fd5b506040519080825280602002602001820160405280156139cd578160200160208202803683370190505b50905060005b845181101561101557613a06836125c3868885815181106139f057fe5b6020026020010151612f1b90919063ffffffff16565b828281518110613a1257fe5b60209081029190910101526001016139d3565b600082820280612f545760009150506105f8565b62461bcd60e51b600090815260206004526007602452600a808404818106603090810160081b958390069590950190829004918206850160101b01602363ffffff0060e086901c160160181b0190930160c81b60445260e882901c90606490fd5b600082613aa9575060006105f8565b6000613ab484613df3565b9050600281670de0b6b3a7640000860281613acb57fe5b04820181613ad557fe5b049050600281670de0b6b3a7640000860281613aed57fe5b04820181613af757fe5b049050600281670de0b6b3a7640000860281613b0f57fe5b04820181613b1957fe5b049050600281670de0b6b3a7640000860281613b3157fe5b04820181613b3b57fe5b049050600281670de0b6b3a7640000860281613b5357fe5b04820181613b5d57fe5b049050600281670de0b6b3a7640000860281613b7557fe5b04820181613b7f57fe5b049050600281670de0b6b3a7640000860281613b9757fe5b04820181613ba157fe5b0490506000613bb08280612fe5565b9050613bc6613bbf8386612f1b565b8690612fcd565b8111158015613be85750613be4613bdd8386612f1b565b869061300f565b8110155b611015576040805162461bcd60e51b815260206004820152600c60248201526b17dcdc5c9d0811905253115160a21b604482015290519081900360640190fd5b600081613c3b57613c3b60006004611641565b82613c48575060006105f8565b816001670de0b6b3a764000085020381613c5e57fe5b04600101905092915050565b6000806e01ed09bead87c0378d8e6400000000831115613c9157613c916000610169612cac565b83831015613ca657613ca6600061016b612cac565b6000613cb28480613445565b90506000613cc36003860286612fe5565b9050613cd587612ccd81818582613445565b900388613ce2868c613445565b600202909103036000806cfc6f7c40458122964d000000008711613d6057613d0a8488613445565b9150613d1c89612ccd81818682613445565b90910390613d2a8284613fc5565b9150613d36848d613445565b9050613d4e83613d46898e613445565b830190613fc5565b9050613d5a8a84613fc5565b01613dcb565b613d6a8488613feb565b9150613d8289613d7c81818682613feb565b90613feb565b90910390613d908284614016565b9150613d9c848d613feb565b9050613da88b88613445565b01613dbd818464e8d4a51000620f4240614024565b9050613dc98a84613fc5565b015b81811015945084613dde57808203613de2565b8181035b955050505050965096945050505050565b6000670de0b6b3a76400008210613e2057670de0b6b3a7640000613e18818404614061565b1b9050610a09565b600a8211613e33575063bc7c871c610a09565b60648211613e4757506402540be400610a09565b6103e88211613e5c575064075cdd4719610a09565b6127108211613e71575064174876e800610a09565b620186a08211613e8757506449a0a4c700610a09565b620f42408211613e9d575064e8d4a51000610a09565b629896808211613eb457506502e0466fc608610a09565b6305f5e1008211613ecc57506509184e72a000610a09565b633b9aca008211613ee45750651cc2c05dbc53610a09565b6402540be4008211613efd5750655af3107a4000610a09565b64174876e8008211613f17575066011f9b83a95b45610a09565b64e8d4a510008211613f31575066038d7ea4c68000610a09565b6509184e72a0008211613f4c5750660b3c13249d90bb610a09565b655af3107a40008211613f675750662386f26fc10000610a09565b66038d7ea4c680008211613f835750667058bf6e27a751610a09565b662386f26fc100008211613fa0575067016345785d8a0000610a09565b67016345785d8a00008211613fbe5750670463777a4d8c892d610a09565b5080610a09565b600081613fd857613fd860006004611641565b81670de0b6b3a764000084028161345457fe5b6000614001670de0b6b3a7640000840683613445565b82670de0b6b3a7640000850402019392505050565b60006118878383633b9aca00805b6000836140375761403760006004611641565b600082600186038161404557fe5b046001019050808487028161405657fe5b049695505050505050565b6000600160801b82106140795760809190911c906040015b6801000000000000000082106140945760409190911c906020015b64010000000082106140ab5760209190911c906010015b6201000082106140c05760109190911c906008015b61010082106140d45760089190911c906004015b601082106140e75760049190911c906002015b60048210610a0957600101919050565b604080516060810182526000808252602082018190529181019190915290565b8035610a098161486d565b80358015158114610a0957600080fd5b600082601f830112614142578081fd5b81356001600160401b0381111561415557fe5b614168601f8201601f191660200161484a565b81815284602083860101111561417c578283fd5b816020850160208301379081016020019190915292915050565b803560028110610a0957600080fd5b6000602082840312156141b6578081fd5b81356118878161486d565b6000602082840312156141d2578081fd5b81516118878161486d565b600080604083850312156141ef578081fd5b82356141fa8161486d565b9150602083013561420a8161486d565b809150509250929050565b600080600060608486031215614229578081fd5b83356142348161486d565b925060208401356142448161486d565b929592945050506040919091013590565b600080600080600080600060e0888a03121561426f578283fd5b873561427a8161486d565b9650602088013561428a8161486d565b95506040880135945060608801359350608088013560ff811681146142ad578384fd5b9699959850939692959460a0840135945060c09093013592915050565b600080604083850312156142dc578182fd5b82356142e78161486d565b946020939093013593505050565b600060208284031215614306578081fd5b61188782614122565b600080600080600080600060e0888a031215614329578081fd5b87359650602088013561433b8161486d565b9550604088013561434b8161486d565b945060608801356001600160401b0380821115614366578283fd5b818a0191508a601f830112614379578283fd5b81358181111561438557fe5b602081026143956020820161484a565b80838252602082019150602086018f60208589010111156143b4578788fd5b8796505b848710156143d7578035835260019690960195602092830192016143b8565b50985050505060808a0135945060a08a0135935060c08a01359150808211156143fe578283fd5b5061440b8a828b01614132565b91505092959891949750929550565b60006020828403121561442b578081fd5b81356001600160e01b031981168114611887578182fd5b60008060408385031215614454578182fd5b823561445f8161486d565b915060208301356001600160401b03811115614479578182fd5b61448585828601614132565b9150509250929050565b6000606082840312156144a0578081fd5b604051606081018181106001600160401b03821117156144bc57fe5b6040526144c883614122565b815260208301356001600160781b03811681146144e3578283fd5b602082015260408301356001600160801b0381168114614501578283fd5b60408201529392505050565b600080600060608486031215614521578081fd5b83356001600160401b0380821115614537578283fd5b818601915061012080838903121561454d578384fd5b6145568161484a565b905061456183614196565b815261456f60208401614117565b602082015261458060408401614117565b6040820152606083013560608201526080830135608082015260a083013560a08201526145af60c08401614117565b60c08201526145c060e08401614117565b60e082015261010080840135838111156145d8578586fd5b6145e48a828701614132565b9183019190915250976020870135975060409096013595945050505050565b600060208284031215614614578081fd5b5035919050565b60006020828403121561462c578081fd5b5051919050565b60008060008060808587031215614648578182fd5b84519350602085015192506040850151915060608501516146688161486d565b939692955090935050565b6000815180845260208085019450808401835b838110156146a257815187529582019590820190600101614686565b509495945050505050565b60008151808452815b818110156146d2576020818501810151868301820152016146b6565b818111156146e35782602083870101525b50601f01601f19169290920160200192915050565b6000828483379101908152919050565b6001600160a01b0391909116815260200190565b6000602082526118876020830184614673565b6000604082526147426040830185614673565b8281036020840152611f968185614673565b901515815260200190565b92151583526020830191909152604082015260600190565b90815260200190565b6000838252604060208301526125fd60408301846146ad565b9182526001600160a01b0316602082015260400190565b60006020825261188760208301846146ad565b8151151581526020808301516001600160781b0316908201526040918201516001600160801b03169181019190915260600190565b905460ff811615158252600881901c6001600160781b0316602083015260801c604082015260600190565b6000838252604060208301526125fd6040830184614673565b60ff91909116815260200190565b6040518181016001600160401b038111828210171561486557fe5b604052919050565b6001600160a01b03811681146106c057600080fdfea26469706673582212203aea3ffdcd02b63a31fe61ecceb0923b4848abdac7be419114b7f1d325ba224864736f6c63430007060033","bytecodeSha1":"634d9babdca7b9c4a5806a1da0cd132456753463","compiler":{"evm_version":"berlin","optimizer":{"enabled":true,"runs":200},"version":"0.7.6+commit.7338295f"},"contractName":"Gyro3CLPPool","language":"Solidity","natspec":{"details":"Gyro Three Pool with immutable weights.","kind":"dev","methods":{"DOMAIN_SEPARATOR()":{"details":"See {IERC20Permit-DOMAIN_SEPARATOR}."},"allowance(address,address)":{"details":"Override to grant the Vault infinite allowance, causing for Pool Tokens to not require approval. This is sound as the Vault already provides authorization mechanisms when initiation token transfers, which this contract inherits."},"approve(address,uint256)":{"details":"See {IERC20-approve}. Requirements: - `spender` cannot be the zero address."},"balanceOf(address)":{"details":"See {IERC20-balanceOf}."},"changePauseManager(address)":{"notice":"Changes the account that is allowed to pause a pool."},"decimals()":{"details":"Returns the number of decimals used to get its user representation. For example, if `decimals` equals `2`, a balance of `505` tokens should be displayed to a user as `5,05` (`505 / 10 ** 2`). Tokens usually opt for a value of 18, imitating the relationship between Ether and Wei. This is the value {ERC20} uses, unless {_setupDecimals} is called. NOTE: This information is only used for _display_ purposes: it in no way affects any of the arithmetic of the contract, including {IERC20-balanceOf} and {IERC20-transfer}."},"decreaseAllowance(address,uint256)":{"details":"Override to allow decreasing allowance by more than the current amount (setting it to zero)"},"getActionId(bytes4)":{"details":"Returns the action identifier associated with the external function described by `selector`."},"getInvariant()":{"details":"Returns the current value of the invariant."},"getPausedState()":{"details":"Returns the current contract pause status, as well as the end times of the Pause Window and Buffer Period."},"getRate()":{"details":"This function returns the appreciation of one BPT relative to the underlying tokens. This starts at 1 when the pool is created and grows over time"},"increaseAllowance(address,uint256)":{"details":"Atomically increases the allowance granted to `spender` by the caller. This is an alternative to {approve} that can be used as a mitigation for problems described in {IERC20-approve}. Emits an {Approval} event indicating the updated allowance. Requirements: - `spender` cannot be the zero address."},"name()":{"details":"Returns the name of the token."},"nonces(address)":{"details":"See {IERC20Permit-nonces}."},"onExitPool(bytes32,address,address,uint256[],uint256,uint256,bytes)":{"details":"Called by the Vault when a user calls `IVault.exitPool` to remove liquidity from this Pool. Returns how many tokens the Vault should deduct from the Pool's balances, as well as the amount of protocol fees the Pool owes to the Vault. The Vault will then take tokens from the Pool's balances and send them to `recipient`, as well as collect the reported amount in protocol fees, which the Pool should calculate based on `protocolSwapFeePercentage`. Protocol fees are charged on exit events to guarantee that users exiting the Pool have paid their share. `sender` is the account performing the exit (typically the pool shareholder), and `recipient` is the account to which the Vault will send the proceeds. `balances` contains the total token balances for each token the Pool registered in the Vault, in the same order that `IVault.getPoolTokens` would return. `lastChangeBlock` is the last block in which *any* of the Pool's registered tokens last changed its total balance. `userData` contains any pool-specific instructions needed to perform the calculations, such as the type of exit (e.g., proportional given an amount of pool shares, single-asset, multi-asset, etc.) Contracts implementing this function should check that the caller is indeed the Vault before performing any state-changing operations, such as burning pool shares."},"onJoinPool(bytes32,address,address,uint256[],uint256,uint256,bytes)":{"details":"Called by the Vault when a user calls `IVault.joinPool` to add liquidity to this Pool. Returns how many of each registered token the user should provide, as well as the amount of protocol fees the Pool owes to the Vault. The Vault will then take tokens from `sender` and add them to the Pool's balances, as well as collect the reported amount in protocol fees, which the pool should calculate based on `protocolSwapFeePercentage`. Protocol fees are reported and charged on join events so that the Pool is free of debt whenever new users join. `sender` is the account performing the join (from which tokens will be withdrawn), and `recipient` is the account designated to receive any benefits (typically pool shares). `balances` contains the total balances for each token the Pool registered in the Vault, in the same order that `IVault.getPoolTokens` would return. `lastChangeBlock` is the last block in which *any* of the Pool's registered tokens last changed its total balance. `userData` contains any pool-specific instructions needed to perform the calculations, such as the type of join (e.g., proportional given an amount of pool shares, single-asset, multi-asset, etc.) Contracts implementing this function should check that the caller is indeed the Vault before performing any state-changing operations, such as minting pool shares."},"pause()":{"notice":"Pauses the pool. Can only be called by the pause manager."},"permit(address,address,uint256,uint256,uint8,bytes32,bytes32)":{"details":"See {IERC20Permit-permit}."},"queryExit(bytes32,address,address,uint256[],uint256,uint256,bytes)":{"details":"Returns the amount of BPT that would be burned from `sender` if the `onExitPool` hook were called by the Vault with the same arguments, along with the number of tokens `recipient` would receive. This function is not meant to be called directly, but rather from a helper contract that fetches current Vault data, such as the protocol swap fee percentage and Pool balances. Like `IVault.queryBatchSwap`, this function is not view due to internal implementation details: the caller must explicitly use eth_call instead of eth_sendTransaction."},"queryJoin(bytes32,address,address,uint256[],uint256,uint256,bytes)":{"details":"Returns the amount of BPT that would be granted to `recipient` if the `onJoinPool` hook were called by the Vault with the same arguments, along with the number of tokens `sender` would have to supply. This function is not meant to be called directly, but rather from a helper contract that fetches current Vault data, such as the protocol swap fee percentage and Pool balances. Like `IVault.queryBatchSwap`, this function is not view due to internal implementation details: the caller must explicitly use eth_call instead of eth_sendTransaction."},"symbol()":{"details":"Returns the symbol of the token, usually a shorter version of the name."},"totalSupply()":{"details":"See {IERC20-totalSupply}."},"transfer(address,uint256)":{"details":"See {IERC20-transfer}. Requirements: - `recipient` cannot be the zero address. - the caller must have a balance of at least `amount`."},"transferFrom(address,address,uint256)":{"details":"Override to allow for 'infinite allowance' and let the token owner use `transferFrom` with no self-allowance"},"unpause()":{"notice":"Unpauses the pool. Can only be called by the pause manager."}},"version":1},"opcodes":"PUSH1 0x80 PUSH1 0x40 MSTORE CALLVALUE DUP1 ISZERO PUSH2 0x10 JUMPI PUSH1 0x0 DUP1 REVERT JUMPDEST POP PUSH1 0x4 CALLDATASIZE LT PUSH2 0x274 JUMPI PUSH1 0x0 CALLDATALOAD PUSH1 0xE0 SHR DUP1 PUSH4 0x74F3B009 GT PUSH2 0x151 JUMPI DUP1 PUSH4 0x9D2C110C GT PUSH2 0xC3 JUMPI DUP1 PUSH4 0xC0FF1A15 GT PUSH2 0x87 JUMPI DUP1 PUSH4 0xC0FF1A15 EQ PUSH2 0x500 JUMPI DUP1 PUSH4 0xD505ACCF EQ PUSH2 0x508 JUMPI DUP1 PUSH4 0xD5C096C4 EQ PUSH2 0x51B JUMPI DUP1 PUSH4 0xD60CA603 EQ PUSH2 0x52E JUMPI DUP1 PUSH4 0xDD62ED3E EQ PUSH2 0x536 JUMPI DUP1 PUSH4 0xF89F27ED EQ PUSH2 0x549 JUMPI PUSH2 0x274 JUMP JUMPDEST DUP1 PUSH4 0x9D2C110C EQ PUSH2 0x4B7 JUMPI DUP1 PUSH4 0xA457C2D7 EQ PUSH2 0x4CA JUMPI DUP1 PUSH4 0xA9059CBB EQ PUSH2 0x4DD JUMPI DUP1 PUSH4 0xAAABADC5 EQ PUSH2 0x4F0 JUMPI DUP1 PUSH4 0xABD13AFE EQ PUSH2 0x4F8 JUMPI PUSH2 0x274 JUMP JUMPDEST DUP1 PUSH4 0x851C1BB3 GT PUSH2 0x115 JUMPI DUP1 PUSH4 0x851C1BB3 EQ PUSH2 0x471 JUMPI DUP1 PUSH4 0x87EC6817 EQ PUSH2 0x484 JUMPI DUP1 PUSH4 0x893D20E8 EQ PUSH2 0x497 JUMPI DUP1 PUSH4 0x8D928AF8 EQ PUSH2 0x49F JUMPI DUP1 PUSH4 0x95D89B41 EQ PUSH2 0x4A7 JUMPI DUP1 PUSH4 0x9B02CDDE EQ PUSH2 0x4AF JUMPI PUSH2 0x274 JUMP JUMPDEST DUP1 PUSH4 0x74F3B009 EQ PUSH2 0x40F JUMPI DUP1 PUSH4 0x76E54A46 EQ PUSH2 0x430 JUMPI DUP1 PUSH4 0x7ECEBE00 EQ PUSH2 0x443 JUMPI DUP1 PUSH4 0x8002DF18 EQ PUSH2 0x456 JUMPI DUP1 PUSH4 0x8456CB59 EQ PUSH2 0x469 JUMPI PUSH2 0x274 JUMP JUMPDEST DUP1 PUSH4 0x38FFF2D0 GT PUSH2 0x1EA JUMPI DUP1 PUSH4 0x50DD6ED9 GT PUSH2 0x1AE JUMPI DUP1 PUSH4 0x50DD6ED9 EQ PUSH2 0x3B0 JUMPI DUP1 PUSH4 0x55C67628 EQ PUSH2 0x3C3 JUMPI DUP1 PUSH4 0x6028BFD4 EQ PUSH2 0x3CB JUMPI DUP1 PUSH4 0x679AEFCE EQ PUSH2 0x3EC JUMPI DUP1 PUSH4 0x6D785A87 EQ PUSH2 0x3F4 JUMPI DUP1 PUSH4 0x70A08231 EQ PUSH2 0x3FC JUMPI PUSH2 0x274 JUMP JUMPDEST DUP1 PUSH4 0x38FFF2D0 EQ PUSH2 0x363 JUMPI DUP1 PUSH4 0x39509351 EQ PUSH2 0x36B JUMPI DUP1 PUSH4 0x3AEAE0D3 EQ PUSH2 0x37E JUMPI DUP1 PUSH4 0x3F4BA83A EQ PUSH2 0x393 JUMPI DUP1 PUSH4 0x44BBDB55 EQ PUSH2 0x39B JUMPI PUSH2 0x274 JUMP JUMPDEST DUP1 PUSH4 0x1C0DE051 GT PUSH2 0x23C JUMPI DUP1 PUSH4 0x1C0DE051 EQ PUSH2 0x2F4 JUMPI DUP1 PUSH4 0x1DD746EA EQ PUSH2 0x30B JUMPI DUP1 PUSH4 0x23B872DD EQ PUSH2 0x320 JUMPI DUP1 PUSH4 0x313CE567 EQ PUSH2 0x333 JUMPI DUP1 PUSH4 0x3644E515 EQ PUSH2 0x348 JUMPI DUP1 PUSH4 0x38E9922E EQ PUSH2 0x350 JUMPI PUSH2 0x274 JUMP JUMPDEST DUP1 PUSH4 0x6FDDE03 EQ PUSH2 0x279 JUMPI DUP1 PUSH4 0x95EA7B3 EQ PUSH2 0x297 JUMPI DUP1 PUSH4 0xE608B30 EQ PUSH2 0x2B7 JUMPI DUP1 PUSH4 0x16C38B3C EQ PUSH2 0x2CC JUMPI DUP1 PUSH4 0x18160DDD EQ PUSH2 0x2DF JUMPI JUMPDEST PUSH1 0x0 DUP1 REVERT JUMPDEST PUSH2 0x281 PUSH2 0x551 JUMP JUMPDEST PUSH1 0x40 MLOAD PUSH2 0x28E SWAP2 SWAP1 PUSH2 0x47B0 JUMP JUMPDEST PUSH1 0x40 MLOAD DUP1 SWAP2 SUB SWAP1 RETURN JUMPDEST PUSH2 0x2AA PUSH2 0x2A5 CALLDATASIZE PUSH1 0x4 PUSH2 0x42CA JUMP JUMPDEST PUSH2 0x5E7 JUMP JUMPDEST PUSH1 0x40 MLOAD PUSH2 0x28E SWAP2 SWAP1 PUSH2 0x4754 JUMP JUMPDEST PUSH2 0x2CA PUSH2 0x2C5 CALLDATASIZE PUSH1 0x4 PUSH2 0x41A5 JUMP JUMPDEST PUSH2 0x5FE JUMP JUMPDEST STOP JUMPDEST PUSH2 0x2CA PUSH2 0x2DA CALLDATASIZE PUSH1 0x4 PUSH2 0x42F5 JUMP JUMPDEST PUSH2 0x6AF JUMP JUMPDEST PUSH2 0x2E7 PUSH2 0x6C3 JUMP JUMPDEST PUSH1 0x40 MLOAD PUSH2 0x28E SWAP2 SWAP1 PUSH2 0x4777 JUMP JUMPDEST PUSH2 0x2FC PUSH2 0x6C9 JUMP JUMPDEST PUSH1 0x40 MLOAD PUSH2 0x28E SWAP4 SWAP3 SWAP2 SWAP1 PUSH2 0x475F JUMP JUMPDEST PUSH2 0x313 PUSH2 0x6F2 JUMP JUMPDEST PUSH1 0x40 MLOAD PUSH2 0x28E SWAP2 SWAP1 PUSH2 0x471C JUMP JUMPDEST PUSH2 0x2AA PUSH2 0x32E CALLDATASIZE PUSH1 0x4 PUSH2 0x4215 JUMP JUMPDEST PUSH2 0x701 JUMP JUMPDEST PUSH2 0x33B PUSH2 0x775 JUMP JUMPDEST PUSH1 0x40 MLOAD PUSH2 0x28E SWAP2 SWAP1 PUSH2 0x483C JUMP JUMPDEST PUSH2 0x2E7 PUSH2 0x77E JUMP JUMPDEST PUSH2 0x2CA PUSH2 0x35E CALLDATASIZE PUSH1 0x4 PUSH2 0x4603 JUMP JUMPDEST PUSH2 0x788 JUMP JUMPDEST PUSH2 0x2E7 PUSH2 0x7A1 JUMP JUMPDEST PUSH2 0x2AA PUSH2 0x379 CALLDATASIZE PUSH1 0x4 PUSH2 0x42CA JUMP JUMPDEST PUSH2 0x7C5 JUMP JUMPDEST PUSH2 0x386 PUSH2 0x800 JUMP JUMPDEST PUSH1 0x40 MLOAD PUSH2 0x28E SWAP2 SWAP1 PUSH2 0x47C3 JUMP JUMPDEST PUSH2 0x2CA PUSH2 0x84B JUMP JUMPDEST PUSH2 0x3A3 PUSH2 0x940 JUMP JUMPDEST PUSH1 0x40 MLOAD PUSH2 0x28E SWAP2 SWAP1 PUSH2 0x4708 JUMP JUMPDEST PUSH2 0x2CA PUSH2 0x3BE CALLDATASIZE PUSH1 0x4 PUSH2 0x4442 JUMP JUMPDEST PUSH2 0x94F JUMP JUMPDEST PUSH2 0x2E7 PUSH2 0x96D JUMP JUMPDEST PUSH2 0x3DE PUSH2 0x3D9 CALLDATASIZE PUSH1 0x4 PUSH2 0x430F JUMP JUMPDEST PUSH2 0x97E JUMP JUMPDEST PUSH1 0x40 MLOAD PUSH2 0x28E SWAP3 SWAP2 SWAP1 PUSH2 0x4823 JUMP JUMPDEST PUSH2 0x2E7 PUSH2 0x9B5 JUMP JUMPDEST PUSH2 0x3A3 PUSH2 0x9E0 JUMP JUMPDEST PUSH2 0x2E7 PUSH2 0x40A CALLDATASIZE PUSH1 0x4 PUSH2 0x41A5 JUMP JUMPDEST PUSH2 0x9EF JUMP JUMPDEST PUSH2 0x422 PUSH2 0x41D CALLDATASIZE PUSH1 0x4 PUSH2 0x430F JUMP JUMPDEST PUSH2 0xA0E JUMP JUMPDEST PUSH1 0x40 MLOAD PUSH2 0x28E SWAP3 SWAP2 SWAP1 PUSH2 0x472F JUMP JUMPDEST PUSH2 0x2CA PUSH2 0x43E CALLDATASIZE PUSH1 0x4 PUSH2 0x448F JUMP JUMPDEST PUSH2 0xAB1 JUMP JUMPDEST PUSH2 0x2E7 PUSH2 0x451 CALLDATASIZE PUSH1 0x4 PUSH2 0x41A5 JUMP JUMPDEST PUSH2 0xBD8 JUMP JUMPDEST PUSH2 0x2CA PUSH2 0x464 CALLDATASIZE PUSH1 0x4 PUSH2 0x41A5 JUMP JUMPDEST PUSH2 0xBF3 JUMP JUMPDEST PUSH2 0x2CA PUSH2 0xCD9 JUMP JUMPDEST PUSH2 0x2E7 PUSH2 0x47F CALLDATASIZE PUSH1 0x4 PUSH2 0x441A JUMP JUMPDEST PUSH2 0xD91 JUMP JUMPDEST PUSH2 0x3DE PUSH2 0x492 CALLDATASIZE PUSH1 0x4 PUSH2 0x430F JUMP JUMPDEST PUSH2 0xDEA JUMP JUMPDEST PUSH2 0x3A3 PUSH2 0xE10 JUMP JUMPDEST PUSH2 0x3A3 PUSH2 0xE34 JUMP JUMPDEST PUSH2 0x281 PUSH2 0xE58 JUMP JUMPDEST PUSH2 0x2E7 PUSH2 0xEB9 JUMP JUMPDEST PUSH2 0x2E7 PUSH2 0x4C5 CALLDATASIZE PUSH1 0x4 PUSH2 0x450D JUMP JUMPDEST PUSH2 0xEBF JUMP JUMPDEST PUSH2 0x2AA PUSH2 0x4D8 CALLDATASIZE PUSH1 0x4 PUSH2 0x42CA JUMP JUMPDEST PUSH2 0x101D JUMP JUMPDEST PUSH2 0x2AA PUSH2 0x4EB CALLDATASIZE PUSH1 0x4 PUSH2 0x42CA JUMP JUMPDEST PUSH2 0x105B JUMP JUMPDEST PUSH2 0x3A3 PUSH2 0x1068 JUMP JUMPDEST PUSH2 0x3A3 PUSH2 0x1072 JUMP JUMPDEST PUSH2 0x2E7 PUSH2 0x1081 JUMP JUMPDEST PUSH2 0x2CA PUSH2 0x516 CALLDATASIZE PUSH1 0x4 PUSH2 0x4255 JUMP JUMPDEST PUSH2 0x108B JUMP JUMPDEST PUSH2 0x422 PUSH2 0x529 CALLDATASIZE PUSH1 0x4 PUSH2 0x430F JUMP JUMPDEST PUSH2 0x11FB JUMP JUMPDEST PUSH2 0x2E7 PUSH2 0x132A JUMP JUMPDEST PUSH2 0x2E7 PUSH2 0x544 CALLDATASIZE PUSH1 0x4 PUSH2 0x41DD JUMP JUMPDEST PUSH2 0x134E JUMP JUMPDEST PUSH2 0x313 PUSH2 0x138B JUMP JUMPDEST PUSH1 0x3 DUP1 SLOAD PUSH1 0x40 DUP1 MLOAD PUSH1 0x20 PUSH1 0x1F PUSH1 0x2 PUSH1 0x0 NOT PUSH2 0x100 PUSH1 0x1 DUP9 AND ISZERO MUL ADD SWAP1 SWAP6 AND SWAP5 SWAP1 SWAP5 DIV SWAP4 DUP5 ADD DUP2 SWAP1 DIV DUP2 MUL DUP3 ADD DUP2 ADD SWAP1 SWAP3 MSTORE DUP3 DUP2 MSTORE PUSH1 0x60 SWAP4 SWAP1 SWAP3 SWAP1 SWAP2 DUP4 ADD DUP3 DUP3 DUP1 ISZERO PUSH2 0x5DD JUMPI DUP1 PUSH1 0x1F LT PUSH2 0x5B2 JUMPI PUSH2 0x100 DUP1 DUP4 SLOAD DIV MUL DUP4 MSTORE SWAP2 PUSH1 0x20 ADD SWAP2 PUSH2 0x5DD JUMP JUMPDEST DUP3 ADD SWAP2 SWAP1 PUSH1 0x0 MSTORE PUSH1 0x20 PUSH1 0x0 KECCAK256 SWAP1 JUMPDEST DUP2 SLOAD DUP2 MSTORE SWAP1 PUSH1 0x1 ADD SWAP1 PUSH1 0x20 ADD DUP1 DUP4 GT PUSH2 0x5C0 JUMPI DUP3 SWAP1 SUB PUSH1 0x1F AND DUP3 ADD SWAP2 JUMPDEST POP POP POP POP POP SWAP1 POP SWAP1 JUMP JUMPDEST PUSH1 0x0 PUSH2 0x5F4 CALLER DUP5 DUP5 PUSH2 0x13CA JUMP JUMPDEST POP PUSH1 0x1 JUMPDEST SWAP3 SWAP2 POP POP JUMP JUMPDEST PUSH1 0xB SLOAD PUSH1 0x40 DUP1 MLOAD DUP1 DUP3 ADD SWAP1 SWAP2 MSTORE PUSH1 0xE DUP2 MSTORE PUSH14 0x1B9BDD08185D5D1A1BDC9A5E9959 PUSH1 0x92 SHL PUSH1 0x20 DUP3 ADD MSTORE SWAP1 PUSH1 0x1 PUSH1 0x1 PUSH1 0xA0 SHL SUB AND CALLER EQ PUSH2 0x658 JUMPI PUSH1 0x40 MLOAD PUSH3 0x461BCD PUSH1 0xE5 SHL DUP2 MSTORE PUSH1 0x4 ADD PUSH2 0x64F SWAP2 SWAP1 PUSH2 0x47B0 JUMP JUMPDEST PUSH1 0x40 MLOAD DUP1 SWAP2 SUB SWAP1 REVERT JUMPDEST POP PUSH1 0xB DUP1 SLOAD PUSH1 0x1 PUSH1 0x1 PUSH1 0xA0 SHL SUB NOT AND PUSH1 0x1 PUSH1 0x1 PUSH1 0xA0 SHL SUB DUP4 AND OR SWAP1 SSTORE PUSH1 0x40 MLOAD PUSH32 0xB8FD9AFC34C38FCD13B9A3B7646482EB1FDDCEFB40AF2C70609972816EBA3208 SWAP1 PUSH2 0x6A4 SWAP1 DUP4 SWAP1 PUSH2 0x4708 JUMP JUMPDEST PUSH1 0x40 MLOAD DUP1 SWAP2 SUB SWAP1 LOG1 POP JUMP JUMPDEST PUSH2 0x6B7 PUSH2 0x142C JUMP JUMPDEST PUSH2 0x6C0 DUP2 PUSH2 0x145A JUMP JUMPDEST POP JUMP JUMPDEST PUSH1 0x2 SLOAD SWAP1 JUMP JUMPDEST PUSH1 0x0 DUP1 PUSH1 0x0 PUSH2 0x6D6 PUSH2 0x14D6 JUMP JUMPDEST ISZERO SWAP3 POP PUSH2 0x6E1 PUSH2 0x14F3 JUMP JUMPDEST SWAP2 POP PUSH2 0x6EB PUSH2 0x1517 JUMP JUMPDEST SWAP1 POP SWAP1 SWAP2 SWAP3 JUMP JUMPDEST PUSH1 0x60 PUSH2 0x6FC PUSH2 0x153B JUMP JUMPDEST SWAP1 POP SWAP1 JUMP JUMPDEST PUSH1 0x0 DUP1 PUSH2 0x70E DUP6 CALLER PUSH2 0x134E JUMP JUMPDEST SWAP1 POP PUSH2 0x732 CALLER PUSH1 0x1 PUSH1 0x1 PUSH1 0xA0 SHL SUB DUP8 AND EQ DUP1 PUSH2 0x72A JUMPI POP DUP4 DUP3 LT ISZERO JUMPDEST PUSH2 0x19E PUSH2 0x1641 JUMP JUMPDEST PUSH2 0x73D DUP6 DUP6 DUP6 PUSH2 0x164F JUMP JUMPDEST CALLER PUSH1 0x1 PUSH1 0x1 PUSH1 0xA0 SHL SUB DUP7 AND EQ DUP1 ISZERO SWAP1 PUSH2 0x758 JUMPI POP PUSH1 0x0 NOT DUP2 EQ ISZERO JUMPDEST ISZERO PUSH2 0x76A JUMPI PUSH2 0x76A DUP6 CALLER DUP6 DUP5 SUB PUSH2 0x13CA JUMP JUMPDEST POP PUSH1 0x1 SWAP5 SWAP4 POP POP POP POP JUMP JUMPDEST PUSH1 0x5 SLOAD PUSH1 0xFF AND SWAP1 JUMP JUMPDEST PUSH1 0x0 PUSH2 0x6FC PUSH2 0x1737 JUMP JUMPDEST PUSH2 0x790 PUSH2 0x142C JUMP JUMPDEST PUSH2 0x798 PUSH2 0x17F5 JUMP JUMPDEST PUSH2 0x6C0 DUP2 PUSH2 0x180A JUMP JUMPDEST PUSH32 0x0 SWAP1 JUMP JUMPDEST CALLER PUSH1 0x0 DUP2 DUP2 MSTORE PUSH1 0x1 PUSH1 0x20 SWAP1 DUP2 MSTORE PUSH1 0x40 DUP1 DUP4 KECCAK256 PUSH1 0x1 PUSH1 0x1 PUSH1 0xA0 SHL SUB DUP8 AND DUP5 MSTORE SWAP1 SWAP2 MSTORE DUP2 KECCAK256 SLOAD SWAP1 SWAP2 PUSH2 0x5F4 SWAP2 DUP6 SWAP1 PUSH2 0x7FB SWAP1 DUP7 PUSH2 0x1875 JUMP JUMPDEST PUSH2 0x13CA JUMP JUMPDEST PUSH2 0x808 PUSH2 0x40F7 JUMP JUMPDEST POP PUSH1 0x40 DUP1 MLOAD PUSH1 0x60 DUP2 ADD DUP3 MSTORE PUSH1 0xA SLOAD PUSH1 0xFF DUP2 AND ISZERO ISZERO DUP3 MSTORE PUSH2 0x100 DUP2 DIV PUSH1 0x1 PUSH1 0x1 PUSH1 0x78 SHL SUB AND PUSH1 0x20 DUP4 ADD MSTORE PUSH1 0x1 PUSH1 0x80 SHL SWAP1 DIV PUSH1 0x1 PUSH1 0x1 PUSH1 0x80 SHL SUB AND SWAP2 DUP2 ADD SWAP2 SWAP1 SWAP2 MSTORE SWAP1 JUMP JUMPDEST PUSH1 0xC SLOAD PUSH1 0x40 DUP1 MLOAD DUP1 DUP3 ADD SWAP1 SWAP2 MSTORE PUSH1 0x11 DUP2 MSTORE PUSH17 0x3737BA103830BAB9B29036B0B730B3B2B9 PUSH1 0x79 SHL PUSH1 0x20 DUP3 ADD MSTORE SWAP1 PUSH1 0x1 PUSH1 0x1 PUSH1 0xA0 SHL SUB AND CALLER EQ PUSH2 0x90A JUMPI PUSH1 0x40 MLOAD PUSH3 0x461BCD PUSH1 0xE5 SHL DUP2 MSTORE PUSH1 0x4 ADD DUP1 DUP1 PUSH1 0x20 ADD DUP3 DUP2 SUB DUP3 MSTORE DUP4 DUP2 DUP2 MLOAD DUP2 MSTORE PUSH1 0x20 ADD SWAP2 POP DUP1 MLOAD SWAP1 PUSH1 0x20 ADD SWAP1 DUP1 DUP4 DUP4 PUSH1 0x0 JUMPDEST DUP4 DUP2 LT ISZERO PUSH2 0x8CF JUMPI DUP2 DUP2 ADD MLOAD DUP4 DUP3 ADD MSTORE PUSH1 0x20 ADD PUSH2 0x8B7 JUMP JUMPDEST POP POP POP POP SWAP1 POP SWAP1 DUP2 ADD SWAP1 PUSH1 0x1F AND DUP1 ISZERO PUSH2 0x8FC JUMPI DUP1 DUP3 SUB DUP1 MLOAD PUSH1 0x1 DUP4 PUSH1 0x20 SUB PUSH2 0x100 EXP SUB NOT AND DUP2 MSTORE PUSH1 0x20 ADD SWAP2 POP JUMPDEST POP SWAP3 POP POP POP PUSH1 0x40 MLOAD DUP1 SWAP2 SUB SWAP1 REVERT JUMPDEST POP PUSH2 0x915 PUSH1 0x0 PUSH2 0x6B7 JUMP JUMPDEST PUSH1 0x40 MLOAD PUSH32 0x215385C8BFC731925EC8068D7BAA50F6B6F34417CC7804F7273DC2C0B3DB2790 SWAP1 PUSH1 0x0 SWAP1 LOG1 JUMP JUMPDEST PUSH1 0xD SLOAD PUSH1 0x1 PUSH1 0x1 PUSH1 0xA0 SHL SUB AND DUP2 JUMP JUMPDEST PUSH2 0x957 PUSH2 0x142C JUMP JUMPDEST PUSH2 0x95F PUSH2 0x17F5 JUMP JUMPDEST PUSH2 0x969 DUP3 DUP3 PUSH2 0x188E JUMP JUMPDEST POP POP JUMP JUMPDEST PUSH1 0x8 SLOAD PUSH1 0x0 SWAP1 PUSH2 0x6FC SWAP1 PUSH1 0xC0 PUSH2 0x198D JUMP JUMPDEST PUSH1 0x0 PUSH1 0x60 PUSH2 0x994 DUP7 MLOAD PUSH2 0x98F PUSH2 0x199A JUMP JUMPDEST PUSH2 0x199F JUMP JUMPDEST PUSH2 0x9A9 DUP10 DUP10 DUP10 DUP10 DUP10 DUP10 DUP10 PUSH2 0x19AC PUSH2 0x1A70 PUSH2 0x1AD6 JUMP JUMPDEST SWAP8 POP SWAP8 SWAP6 POP POP POP POP POP POP JUMP JUMPDEST PUSH1 0x0 PUSH2 0x6FC PUSH2 0x9C2 PUSH2 0x6C3 JUMP JUMPDEST PUSH2 0x9DA PUSH2 0x9CD PUSH2 0x1081 JUMP JUMPDEST PUSH2 0x9D5 PUSH2 0x199A JUMP JUMPDEST PUSH2 0x1BF8 JUMP JUMPDEST SWAP1 PUSH2 0x1C1C JUMP JUMPDEST PUSH1 0xB SLOAD PUSH1 0x1 PUSH1 0x1 PUSH1 0xA0 SHL SUB AND DUP2 JUMP JUMPDEST PUSH1 0x1 PUSH1 0x1 PUSH1 0xA0 SHL SUB DUP2 AND PUSH1 0x0 SWAP1 DUP2 MSTORE PUSH1 0x20 DUP2 SWAP1 MSTORE PUSH1 0x40 SWAP1 KECCAK256 SLOAD JUMPDEST SWAP2 SWAP1 POP JUMP JUMPDEST PUSH1 0x60 DUP1 DUP9 PUSH2 0xA38 PUSH2 0xA1D PUSH2 0xE34 JUMP JUMPDEST PUSH1 0x1 PUSH1 0x1 PUSH1 0xA0 SHL SUB AND CALLER PUSH1 0x1 PUSH1 0x1 PUSH1 0xA0 SHL SUB AND EQ PUSH1 0xCD PUSH2 0x1641 JUMP JUMPDEST PUSH2 0xA4D PUSH2 0xA43 PUSH2 0x7A1 JUMP JUMPDEST DUP3 EQ PUSH2 0x1F4 PUSH2 0x1641 JUMP JUMPDEST PUSH1 0x0 PUSH2 0xA57 PUSH2 0x153B JUMP JUMPDEST SWAP1 POP PUSH2 0xA63 DUP9 DUP3 PUSH2 0x1C76 JUMP JUMPDEST PUSH1 0x0 DUP1 PUSH1 0x0 PUSH2 0xA78 DUP15 DUP15 DUP15 DUP15 DUP15 DUP15 DUP11 DUP16 PUSH2 0x19AC JUMP JUMPDEST SWAP3 POP SWAP3 POP SWAP3 POP PUSH2 0xA88 DUP14 DUP5 PUSH2 0x1CD7 JUMP JUMPDEST PUSH2 0xA92 DUP3 DUP6 PUSH2 0x1A70 JUMP JUMPDEST PUSH2 0xA9C DUP2 DUP6 PUSH2 0x1A70 JUMP JUMPDEST SWAP1 SWAP6 POP SWAP4 POP POP POP JUMPDEST POP SWAP8 POP SWAP8 SWAP6 POP POP POP POP POP POP JUMP JUMPDEST PUSH1 0xB SLOAD PUSH1 0x40 DUP1 MLOAD DUP1 DUP3 ADD SWAP1 SWAP2 MSTORE PUSH1 0xE DUP2 MSTORE PUSH14 0x1B9BDD08185D5D1A1BDC9A5E9959 PUSH1 0x92 SHL PUSH1 0x20 DUP3 ADD MSTORE SWAP1 PUSH1 0x1 PUSH1 0x1 PUSH1 0xA0 SHL SUB AND CALLER EQ PUSH2 0xB02 JUMPI PUSH1 0x40 MLOAD PUSH3 0x461BCD PUSH1 0xE5 SHL DUP2 MSTORE PUSH1 0x4 ADD PUSH2 0x64F SWAP2 SWAP1 PUSH2 0x47B0 JUMP JUMPDEST POP PUSH1 0xA SLOAD PUSH1 0x40 DUP1 MLOAD DUP1 DUP3 ADD SWAP1 SWAP2 MSTORE PUSH1 0x10 DUP2 MSTORE PUSH16 0x1C1BDBDB081A5CC81D5B98D85C1C1959 PUSH1 0x82 SHL PUSH1 0x20 DUP3 ADD MSTORE SWAP1 PUSH1 0xFF AND PUSH2 0xB4E JUMPI PUSH1 0x40 MLOAD PUSH3 0x461BCD PUSH1 0xE5 SHL DUP2 MSTORE PUSH1 0x4 ADD PUSH2 0x64F SWAP2 SWAP1 PUSH2 0x47B0 JUMP JUMPDEST POP DUP1 MLOAD PUSH1 0xA DUP1 SLOAD PUSH1 0x20 DUP5 ADD MLOAD PUSH1 0x40 DUP1 DUP7 ADD MLOAD PUSH1 0xFF NOT SWAP1 SWAP4 AND SWAP5 ISZERO ISZERO SWAP5 SWAP1 SWAP5 OR PUSH16 0xFFFFFFFFFFFFFFFFFFFFFFFFFFFFFF00 NOT AND PUSH2 0x100 PUSH1 0x1 PUSH1 0x1 PUSH1 0x78 SHL SUB SWAP1 SWAP3 AND SWAP2 SWAP1 SWAP2 MUL OR PUSH1 0x1 PUSH1 0x1 PUSH1 0x80 SHL SUB SWAP1 DUP2 AND PUSH1 0x1 PUSH1 0x80 SHL SWAP2 SWAP1 SWAP3 AND MUL OR DUP2 SSTORE SWAP1 MLOAD PUSH32 0x2ABF5970D7BC1A2B36EAAE52DD2CC353EDB0337C7284EF8A01973081B4E04424 SWAP2 PUSH2 0x6A4 SWAP2 PUSH2 0x47F8 JUMP JUMPDEST PUSH1 0x1 PUSH1 0x1 PUSH1 0xA0 SHL SUB AND PUSH1 0x0 SWAP1 DUP2 MSTORE PUSH1 0x6 PUSH1 0x20 MSTORE PUSH1 0x40 SWAP1 KECCAK256 SLOAD SWAP1 JUMP JUMPDEST PUSH1 0xC SLOAD PUSH1 0x40 DUP1 MLOAD DUP1 DUP3 ADD SWAP1 SWAP2 MSTORE PUSH1 0x11 DUP2 MSTORE PUSH17 0x3737BA103830BAB9B29036B0B730B3B2B9 PUSH1 0x79 SHL PUSH1 0x20 DUP3 ADD MSTORE PUSH1 0x1 PUSH1 0x1 PUSH1 0xA0 SHL SUB SWAP1 SWAP2 AND SWAP1 CALLER DUP3 EQ PUSH2 0xC78 JUMPI PUSH1 0x40 MLOAD PUSH3 0x461BCD PUSH1 0xE5 SHL DUP2 MSTORE PUSH1 0x20 PUSH1 0x4 DUP3 ADD DUP2 DUP2 MSTORE DUP4 MLOAD PUSH1 0x24 DUP5 ADD MSTORE DUP4 MLOAD SWAP1 SWAP3 DUP4 SWAP3 PUSH1 0x44 SWAP1 SWAP2 ADD SWAP2 SWAP1 DUP6 ADD SWAP1 DUP1 DUP4 DUP4 PUSH1 0x0 DUP4 ISZERO PUSH2 0x8CF JUMPI DUP2 DUP2 ADD MLOAD DUP4 DUP3 ADD MSTORE PUSH1 0x20 ADD PUSH2 0x8B7 JUMP JUMPDEST POP PUSH1 0xC DUP1 SLOAD PUSH1 0x1 PUSH1 0x1 PUSH1 0xA0 SHL SUB NOT AND PUSH1 0x1 PUSH1 0x1 PUSH1 0xA0 SHL SUB DUP5 DUP2 AND SWAP2 DUP3 OR SWAP1 SWAP3 SSTORE PUSH1 0x40 DUP1 MLOAD SWAP3 DUP5 AND DUP4 MSTORE PUSH1 0x20 DUP4 ADD SWAP2 SWAP1 SWAP2 MSTORE DUP1 MLOAD PUSH32 0x1FFCCD1FA96F4FB3415DF8048A0FD107344E262D2D246C85105E2A3F8F3E8198 SWAP3 DUP2 SWAP1 SUB SWAP1 SWAP2 ADD SWAP1 LOG1 POP POP JUMP JUMPDEST PUSH1 0xC SLOAD PUSH1 0x40 DUP1 MLOAD DUP1 DUP3 ADD SWAP1 SWAP2 MSTORE PUSH1 0x11 DUP2 MSTORE PUSH17 0x3737BA103830BAB9B29036B0B730B3B2B9 PUSH1 0x79 SHL PUSH1 0x20 DUP3 ADD MSTORE SWAP1 PUSH1 0x1 PUSH1 0x1 PUSH1 0xA0 SHL SUB AND CALLER EQ PUSH2 0xD5B JUMPI PUSH1 0x40 MLOAD PUSH3 0x461BCD PUSH1 0xE5 SHL DUP2 MSTORE PUSH1 0x20 PUSH1 0x4 DUP3 ADD DUP2 DUP2 MSTORE DUP4 MLOAD PUSH1 0x24 DUP5 ADD MSTORE DUP4 MLOAD SWAP1 SWAP3 DUP4 SWAP3 PUSH1 0x44 SWAP1 SWAP2 ADD SWAP2 SWAP1 DUP6 ADD SWAP1 DUP1 DUP4 DUP4 PUSH1 0x0 DUP4 ISZERO PUSH2 0x8CF JUMPI DUP2 DUP2 ADD MLOAD DUP4 DUP3 ADD MSTORE PUSH1 0x20 ADD PUSH2 0x8B7 JUMP JUMPDEST POP PUSH2 0xD66 PUSH1 0x1 PUSH2 0x6B7 JUMP JUMPDEST PUSH1 0x40 MLOAD PUSH32 0x681EACE576127D0553B224436A09801FB47D042942CBFF59D7D4FF04D8FA03D7 SWAP1 PUSH1 0x0 SWAP1 LOG1 JUMP JUMPDEST PUSH1 0x40 DUP1 MLOAD PUSH32 0x0 PUSH1 0x20 DUP1 DUP4 ADD SWAP2 SWAP1 SWAP2 MSTORE PUSH1 0x1 PUSH1 0x1 PUSH1 0xE0 SHL SUB NOT DUP5 AND DUP3 DUP5 ADD MSTORE DUP3 MLOAD PUSH1 0x24 DUP2 DUP5 SUB ADD DUP2 MSTORE PUSH1 0x44 SWAP1 SWAP3 ADD SWAP1 SWAP3 MSTORE DUP1 MLOAD SWAP2 ADD KECCAK256 SWAP2 SWAP1 POP JUMP JUMPDEST PUSH1 0x0 PUSH1 0x60 PUSH2 0xDFB DUP7 MLOAD PUSH2 0x98F PUSH2 0x199A JUMP JUMPDEST PUSH2 0x9A9 DUP10 DUP10 DUP10 DUP10 DUP10 DUP10 DUP10 PUSH2 0x1CE1 PUSH2 0x1DA1 PUSH2 0x1AD6 JUMP JUMPDEST PUSH32 0x0 SWAP1 JUMP JUMPDEST PUSH32 0x0 SWAP1 JUMP JUMPDEST PUSH1 0x4 DUP1 SLOAD PUSH1 0x40 DUP1 MLOAD PUSH1 0x20 PUSH1 0x1F PUSH1 0x2 PUSH1 0x0 NOT PUSH2 0x100 PUSH1 0x1 DUP9 AND ISZERO MUL ADD SWAP1 SWAP6 AND SWAP5 SWAP1 SWAP5 DIV SWAP4 DUP5 ADD DUP2 SWAP1 DIV DUP2 MUL DUP3 ADD DUP2 ADD SWAP1 SWAP3 MSTORE DUP3 DUP2 MSTORE PUSH1 0x60 SWAP4 SWAP1 SWAP3 SWAP1 SWAP2 DUP4 ADD DUP3 DUP3 DUP1 ISZERO PUSH2 0x5DD JUMPI DUP1 PUSH1 0x1F LT PUSH2 0x5B2 JUMPI PUSH2 0x100 DUP1 DUP4 SLOAD DIV MUL DUP4 MSTORE SWAP2 PUSH1 0x20 ADD SWAP2 PUSH2 0x5DD JUMP JUMPDEST PUSH1 0x9 SLOAD SWAP1 JUMP JUMPDEST PUSH1 0x0 DUP4 PUSH1 0x80 ADD MLOAD PUSH2 0xED1 PUSH2 0xA1D PUSH2 0xE34 JUMP JUMPDEST PUSH2 0xEDC PUSH2 0xA43 PUSH2 0x7A1 JUMP JUMPDEST PUSH1 0x0 PUSH2 0xEEB DUP7 PUSH1 0x20 ADD MLOAD PUSH2 0x1E02 JUMP JUMPDEST SWAP1 POP PUSH1 0x0 PUSH2 0xEFC DUP8 PUSH1 0x40 ADD MLOAD PUSH2 0x1E02 JUMP JUMPDEST SWAP1 POP PUSH1 0x0 DUP8 MLOAD PUSH1 0x1 DUP2 GT ISZERO PUSH2 0xF0D JUMPI INVALID JUMPDEST EQ ISZERO PUSH2 0xF9D JUMPI PUSH1 0x0 PUSH2 0xF22 DUP9 PUSH1 0x60 ADD MLOAD PUSH2 0x1F32 JUMP JUMPDEST SWAP1 POP PUSH1 0x0 DUP2 DUP10 PUSH1 0x60 ADD MLOAD SUB SWAP1 POP PUSH2 0xF46 DUP10 PUSH1 0x20 ADD MLOAD PUSH2 0xF41 DUP4 DUP8 PUSH2 0x1F53 JUMP JUMPDEST PUSH2 0x1F5F JUMP JUMPDEST PUSH1 0x60 DUP10 ADD DUP3 SWAP1 MSTORE PUSH2 0xF57 DUP9 DUP6 PUSH2 0x1F53 JUMP JUMPDEST SWAP8 POP PUSH2 0xF63 DUP8 DUP5 PUSH2 0x1F53 JUMP JUMPDEST SWAP7 POP PUSH2 0xF73 DUP10 PUSH1 0x60 ADD MLOAD DUP6 PUSH2 0x1F53 JUMP JUMPDEST PUSH1 0x60 DUP11 ADD MSTORE PUSH1 0x0 PUSH2 0xF85 DUP11 DUP11 DUP11 PUSH2 0x1F71 JUMP JUMPDEST SWAP1 POP PUSH2 0xF91 DUP2 DUP6 PUSH2 0x1F9F JUMP JUMPDEST SWAP7 POP POP POP POP POP POP PUSH2 0x1015 JUMP JUMPDEST PUSH2 0xFA7 DUP7 DUP4 PUSH2 0x1F53 JUMP JUMPDEST SWAP6 POP PUSH2 0xFB3 DUP6 DUP3 PUSH2 0x1F53 JUMP JUMPDEST SWAP5 POP PUSH2 0xFC3 DUP8 PUSH1 0x60 ADD MLOAD DUP3 PUSH2 0x1F53 JUMP JUMPDEST PUSH1 0x60 DUP9 ADD MSTORE PUSH1 0x0 PUSH2 0xFD5 DUP9 DUP9 DUP9 PUSH2 0x1FAB JUMP JUMPDEST SWAP1 POP PUSH2 0xFE1 DUP2 DUP5 PUSH2 0x1FD0 JUMP JUMPDEST SWAP1 POP PUSH1 0x0 PUSH2 0xFEE DUP3 PUSH2 0x1FDC JUMP JUMPDEST SWAP1 POP PUSH1 0x0 DUP3 DUP3 SUB SWAP1 POP PUSH2 0x1009 DUP11 PUSH1 0x20 ADD MLOAD PUSH2 0xF41 DUP4 DUP9 PUSH2 0x1F53 JUMP JUMPDEST POP SWAP5 POP PUSH2 0x1015 SWAP3 POP POP POP JUMP JUMPDEST POP SWAP4 SWAP3 POP POP POP JUMP JUMPDEST PUSH1 0x0 DUP1 PUSH2 0x102A CALLER DUP6 PUSH2 0x134E JUMP JUMPDEST SWAP1 POP DUP1 DUP4 LT PUSH2 0x1044 JUMPI PUSH2 0x103F CALLER DUP6 PUSH1 0x0 PUSH2 0x13CA JUMP JUMPDEST PUSH2 0x1051 JUMP JUMPDEST PUSH2 0x1051 CALLER DUP6 DUP6 DUP5 SUB PUSH2 0x13CA JUMP JUMPDEST POP PUSH1 0x1 SWAP4 SWAP3 POP POP POP JUMP JUMPDEST PUSH1 0x0 PUSH2 0x5F4 CALLER DUP5 DUP5 PUSH2 0x164F JUMP JUMPDEST PUSH1 0x0 PUSH2 0x6FC PUSH2 0x2002 JUMP JUMPDEST PUSH1 0xC SLOAD PUSH1 0x1 PUSH1 0x1 PUSH1 0xA0 SHL SUB AND DUP2 JUMP JUMPDEST PUSH1 0x0 PUSH2 0x6FC PUSH2 0x207C JUMP JUMPDEST PUSH2 0x1099 DUP5 TIMESTAMP GT ISZERO PUSH1 0xD1 PUSH2 0x1641 JUMP JUMPDEST PUSH1 0x1 PUSH1 0x1 PUSH1 0xA0 SHL SUB DUP1 DUP9 AND PUSH1 0x0 DUP2 DUP2 MSTORE PUSH1 0x6 PUSH1 0x20 SWAP1 DUP2 MSTORE PUSH1 0x40 DUP1 DUP4 KECCAK256 SLOAD DUP2 MLOAD PUSH32 0x0 DUP2 DUP6 ADD MSTORE DUP1 DUP4 ADD SWAP6 SWAP1 SWAP6 MSTORE SWAP5 DUP12 AND PUSH1 0x60 DUP6 ADD MSTORE PUSH1 0x80 DUP5 ADD DUP11 SWAP1 MSTORE PUSH1 0xA0 DUP5 ADD DUP6 SWAP1 MSTORE PUSH1 0xC0 DUP1 DUP6 ADD DUP11 SWAP1 MSTORE DUP2 MLOAD DUP1 DUP7 SUB SWAP1 SWAP2 ADD DUP2 MSTORE PUSH1 0xE0 SWAP1 SWAP5 ADD SWAP1 MSTORE DUP3 MLOAD SWAP3 ADD SWAP2 SWAP1 SWAP2 KECCAK256 SWAP1 PUSH2 0x1125 DUP3 PUSH2 0x20AF JUMP JUMPDEST SWAP1 POP PUSH1 0x0 PUSH1 0x1 DUP3 DUP9 DUP9 DUP9 PUSH1 0x40 MLOAD PUSH1 0x0 DUP2 MSTORE PUSH1 0x20 ADD PUSH1 0x40 MSTORE PUSH1 0x40 MLOAD DUP1 DUP6 DUP2 MSTORE PUSH1 0x20 ADD DUP5 PUSH1 0xFF AND DUP2 MSTORE PUSH1 0x20 ADD DUP4 DUP2 MSTORE PUSH1 0x20 ADD DUP3 DUP2 MSTORE PUSH1 0x20 ADD SWAP5 POP POP POP POP POP PUSH1 0x20 PUSH1 0x40 MLOAD PUSH1 0x20 DUP2 SUB SWAP1 DUP1 DUP5 SUB SWAP1 DUP6 GAS STATICCALL ISZERO DUP1 ISZERO PUSH2 0x1183 JUMPI RETURNDATASIZE PUSH1 0x0 DUP1 RETURNDATACOPY RETURNDATASIZE PUSH1 0x0 REVERT JUMPDEST POP POP PUSH1 0x40 MLOAD PUSH1 0x1F NOT ADD MLOAD SWAP2 POP PUSH2 0x11C5 SWAP1 POP PUSH1 0x1 PUSH1 0x1 PUSH1 0xA0 SHL SUB DUP3 AND ISZERO DUP1 ISZERO SWAP1 PUSH2 0x11BD JUMPI POP DUP12 PUSH1 0x1 PUSH1 0x1 PUSH1 0xA0 SHL SUB AND DUP3 PUSH1 0x1 PUSH1 0x1 PUSH1 0xA0 SHL SUB AND EQ JUMPDEST PUSH2 0x1F8 PUSH2 0x1641 JUMP JUMPDEST PUSH1 0x1 PUSH1 0x1 PUSH1 0xA0 SHL SUB DUP12 AND PUSH1 0x0 SWAP1 DUP2 MSTORE PUSH1 0x6 PUSH1 0x20 MSTORE PUSH1 0x40 SWAP1 KECCAK256 PUSH1 0x1 DUP6 ADD SWAP1 SSTORE PUSH2 0x11EE DUP12 DUP12 DUP12 PUSH2 0x13CA JUMP JUMPDEST POP POP POP POP POP POP POP POP POP POP POP JUMP JUMPDEST PUSH1 0x60 DUP1 DUP9 PUSH2 0x120A PUSH2 0xA1D PUSH2 0xE34 JUMP JUMPDEST PUSH2 0x1215 PUSH2 0xA43 PUSH2 0x7A1 JUMP JUMPDEST PUSH1 0x0 PUSH2 0x121F PUSH2 0x153B JUMP JUMPDEST SWAP1 POP PUSH2 0x1229 PUSH2 0x6C3 JUMP JUMPDEST PUSH2 0x12DA JUMPI PUSH1 0x0 DUP1 PUSH2 0x123D DUP14 DUP14 DUP14 DUP7 DUP12 PUSH2 0x20FB JUMP JUMPDEST SWAP2 POP SWAP2 POP PUSH2 0x1256 PUSH2 0x124C PUSH2 0x21A2 JUMP JUMPDEST DUP4 LT ISZERO PUSH1 0xCC PUSH2 0x1641 JUMP JUMPDEST PUSH2 0x1268 PUSH1 0x0 PUSH2 0x1263 PUSH2 0x21A2 JUMP JUMPDEST PUSH2 0x21A9 JUMP JUMPDEST PUSH2 0x127B DUP12 PUSH2 0x1274 PUSH2 0x21A2 JUMP JUMPDEST DUP5 SUB PUSH2 0x21A9 JUMP JUMPDEST PUSH2 0x1285 DUP2 DUP5 PUSH2 0x1DA1 JUMP JUMPDEST DUP1 PUSH2 0x128E PUSH2 0x199A JUMP JUMPDEST PUSH1 0x1 PUSH1 0x1 PUSH1 0x40 SHL SUB DUP2 GT DUP1 ISZERO PUSH2 0x12A3 JUMPI PUSH1 0x0 DUP1 REVERT JUMPDEST POP PUSH1 0x40 MLOAD SWAP1 DUP1 DUP3 MSTORE DUP1 PUSH1 0x20 MUL PUSH1 0x20 ADD DUP3 ADD PUSH1 0x40 MSTORE DUP1 ISZERO PUSH2 0x12CD JUMPI DUP2 PUSH1 0x20 ADD PUSH1 0x20 DUP3 MUL DUP1 CALLDATASIZE DUP4 CALLDATACOPY ADD SWAP1 POP JUMPDEST POP SWAP6 POP SWAP6 POP POP POP POP PUSH2 0xAA4 JUMP JUMPDEST PUSH2 0x12E4 DUP9 DUP3 PUSH2 0x1C76 JUMP JUMPDEST PUSH1 0x0 DUP1 PUSH1 0x0 PUSH2 0x12F9 DUP15 DUP15 DUP15 DUP15 DUP15 DUP15 DUP11 DUP16 PUSH2 0x1CE1 JUMP JUMPDEST SWAP3 POP SWAP3 POP SWAP3 POP PUSH2 0x1309 DUP13 DUP5 PUSH2 0x21A9 JUMP JUMPDEST PUSH2 0x1313 DUP3 DUP6 PUSH2 0x1DA1 JUMP JUMPDEST PUSH2 0x131D DUP2 DUP6 PUSH2 0x1A70 JUMP JUMPDEST SWAP1 SWAP6 POP SWAP4 POP PUSH2 0xAA4 SWAP2 POP POP JUMP JUMPDEST PUSH32 0x0 SWAP1 JUMP JUMPDEST PUSH1 0x0 PUSH2 0x1358 PUSH2 0xE34 JUMP JUMPDEST PUSH1 0x1 PUSH1 0x1 PUSH1 0xA0 SHL SUB AND DUP3 PUSH1 0x1 PUSH1 0x1 PUSH1 0xA0 SHL SUB AND EQ ISZERO PUSH2 0x137A JUMPI POP PUSH1 0x0 NOT PUSH2 0x5F8 JUMP JUMPDEST PUSH2 0x1384 DUP4 DUP4 PUSH2 0x21B3 JUMP JUMPDEST SWAP1 POP PUSH2 0x5F8 JUMP JUMPDEST PUSH1 0x60 PUSH2 0x6FC PUSH2 0x21DE JUMP JUMPDEST DUP1 PUSH2 0x969 DUP2 PUSH2 0x2275 JUMP JUMPDEST PUSH1 0x1 PUSH1 0x1 PUSH1 0x40 SHL SUB DUP2 SHL NOT SWAP3 SWAP1 SWAP3 AND SWAP2 SHL OR SWAP1 JUMP JUMPDEST PUSH1 0x0 PUSH2 0x13C4 DUP4 DUP4 GT ISZERO PUSH1 0x1 PUSH2 0x1641 JUMP JUMPDEST POP SWAP1 SUB SWAP1 JUMP JUMPDEST PUSH1 0x1 PUSH1 0x1 PUSH1 0xA0 SHL SUB DUP1 DUP5 AND PUSH1 0x0 DUP2 DUP2 MSTORE PUSH1 0x1 PUSH1 0x20 SWAP1 DUP2 MSTORE PUSH1 0x40 DUP1 DUP4 KECCAK256 SWAP5 DUP8 AND DUP1 DUP5 MSTORE SWAP5 DUP3 MSTORE SWAP2 DUP3 SWAP1 KECCAK256 DUP6 SWAP1 SSTORE DUP2 MLOAD DUP6 DUP2 MSTORE SWAP2 MLOAD PUSH32 0x8C5BE1E5EBEC7D5BD14F71427D1E84F3DD0314C0F7B2291E5B200AC8C7C3B925 SWAP3 DUP2 SWAP1 SUB SWAP1 SWAP2 ADD SWAP1 LOG3 POP POP POP JUMP JUMPDEST PUSH1 0x0 PUSH2 0x1443 PUSH1 0x0 CALLDATALOAD PUSH1 0x1 PUSH1 0x1 PUSH1 0xE0 SHL SUB NOT AND PUSH2 0xD91 JUMP JUMPDEST SWAP1 POP PUSH2 0x6C0 PUSH2 0x1452 DUP3 CALLER PUSH2 0x22EE JUMP JUMPDEST PUSH2 0x191 PUSH2 0x1641 JUMP JUMPDEST DUP1 ISZERO PUSH2 0x147A JUMPI PUSH2 0x1475 PUSH2 0x146B PUSH2 0x14F3 JUMP JUMPDEST TIMESTAMP LT PUSH2 0x193 PUSH2 0x1641 JUMP JUMPDEST PUSH2 0x148F JUMP JUMPDEST PUSH2 0x148F PUSH2 0x1485 PUSH2 0x1517 JUMP JUMPDEST TIMESTAMP LT PUSH2 0x1A9 PUSH2 0x1641 JUMP JUMPDEST PUSH1 0x7 DUP1 SLOAD DUP3 ISZERO ISZERO PUSH1 0xFF NOT SWAP1 SWAP2 AND DUP2 OR SWAP1 SWAP2 SSTORE PUSH1 0x40 DUP1 MLOAD SWAP2 DUP3 MSTORE MLOAD PUSH32 0x9E3A5E37224532DEA67B89FACE185703738A228A6E8A23DEE546960180D3BE64 SWAP2 DUP2 SWAP1 SUB PUSH1 0x20 ADD SWAP1 LOG1 POP JUMP JUMPDEST PUSH1 0x0 PUSH2 0x14E0 PUSH2 0x1517 JUMP JUMPDEST TIMESTAMP GT DUP1 PUSH2 0x6FC JUMPI POP POP PUSH1 0x7 SLOAD PUSH1 0xFF AND ISZERO SWAP1 JUMP JUMPDEST PUSH32 0x0 SWAP1 JUMP JUMPDEST PUSH32 0x0 SWAP1 JUMP JUMPDEST PUSH1 0x60 PUSH1 0x0 PUSH2 0x1547 PUSH2 0x199A JUMP JUMPDEST SWAP1 POP PUSH1 0x0 DUP2 PUSH1 0x1 PUSH1 0x1 PUSH1 0x40 SHL SUB DUP2 GT DUP1 ISZERO PUSH2 0x1561 JUMPI PUSH1 0x0 DUP1 REVERT JUMPDEST POP PUSH1 0x40 MLOAD SWAP1 DUP1 DUP3 MSTORE DUP1 PUSH1 0x20 MUL PUSH1 0x20 ADD DUP3 ADD PUSH1 0x40 MSTORE DUP1 ISZERO PUSH2 0x158B JUMPI DUP2 PUSH1 0x20 ADD PUSH1 0x20 DUP3 MUL DUP1 CALLDATASIZE DUP4 CALLDATACOPY ADD SWAP1 POP JUMPDEST POP SWAP1 POP PUSH32 0x0 DUP2 PUSH1 0x0 DUP2 MLOAD DUP2 LT PUSH2 0x15BC JUMPI INVALID JUMPDEST PUSH1 0x20 MUL PUSH1 0x20 ADD ADD DUP2 DUP2 MSTORE POP POP PUSH32 0x0 DUP2 PUSH1 0x1 DUP2 MLOAD DUP2 LT PUSH2 0x15F6 JUMPI INVALID JUMPDEST PUSH1 0x20 MUL PUSH1 0x20 ADD ADD DUP2 DUP2 MSTORE POP POP PUSH32 0x0 DUP2 PUSH1 0x2 DUP2 MLOAD DUP2 LT PUSH2 0x1630 JUMPI INVALID JUMPDEST PUSH1 0x20 SWAP1 DUP2 MUL SWAP2 SWAP1 SWAP2 ADD ADD MSTORE SWAP2 POP POP SWAP1 JUMP JUMPDEST DUP2 PUSH2 0x969 JUMPI PUSH2 0x969 DUP2 PUSH2 0x23F0 JUMP JUMPDEST PUSH2 0x1666 PUSH1 0x1 PUSH1 0x1 PUSH1 0xA0 SHL SUB DUP5 AND ISZERO ISZERO PUSH2 0x198 PUSH2 0x1641 JUMP JUMPDEST PUSH2 0x167D PUSH1 0x1 PUSH1 0x1 PUSH1 0xA0 SHL SUB DUP4 AND ISZERO ISZERO PUSH2 0x199 PUSH2 0x1641 JUMP JUMPDEST PUSH2 0x1688 DUP4 DUP4 DUP4 PUSH2 0x1AD1 JUMP JUMPDEST PUSH1 0x1 PUSH1 0x1 PUSH1 0xA0 SHL SUB DUP4 AND PUSH1 0x0 SWAP1 DUP2 MSTORE PUSH1 0x20 DUP2 SWAP1 MSTORE PUSH1 0x40 SWAP1 KECCAK256 SLOAD PUSH2 0x16AE SWAP1 DUP3 PUSH2 0x1A0 PUSH2 0x2443 JUMP JUMPDEST PUSH1 0x1 PUSH1 0x1 PUSH1 0xA0 SHL SUB DUP1 DUP6 AND PUSH1 0x0 SWAP1 DUP2 MSTORE PUSH1 0x20 DUP2 SWAP1 MSTORE PUSH1 0x40 DUP1 DUP3 KECCAK256 SWAP4 SWAP1 SWAP4 SSTORE SWAP1 DUP5 AND DUP2 MSTORE KECCAK256 SLOAD PUSH2 0x16DD SWAP1 DUP3 PUSH2 0x1875 JUMP JUMPDEST PUSH1 0x1 PUSH1 0x1 PUSH1 0xA0 SHL SUB DUP1 DUP5 AND PUSH1 0x0 DUP2 DUP2 MSTORE PUSH1 0x20 DUP2 DUP2 MSTORE PUSH1 0x40 SWAP2 DUP3 SWAP1 KECCAK256 SWAP5 SWAP1 SWAP5 SSTORE DUP1 MLOAD DUP6 DUP2 MSTORE SWAP1 MLOAD SWAP2 SWAP4 SWAP3 DUP8 AND SWAP3 PUSH32 0xDDF252AD1BE2C89B69C2B068FC378DAA952BA7F163C4A11628F55A4DF523B3EF SWAP3 SWAP2 DUP3 SWAP1 SUB ADD SWAP1 LOG3 POP POP POP JUMP JUMPDEST PUSH1 0x0 PUSH32 0x0 PUSH32 0x0 PUSH32 0x0 PUSH2 0x17A4 PUSH2 0x2459 JUMP JUMPDEST ADDRESS PUSH1 0x40 MLOAD PUSH1 0x20 ADD DUP1 DUP7 DUP2 MSTORE PUSH1 0x20 ADD DUP6 DUP2 MSTORE PUSH1 0x20 ADD DUP5 DUP2 MSTORE PUSH1 0x20 ADD DUP4 DUP2 MSTORE PUSH1 0x20 ADD DUP3 PUSH1 0x1 PUSH1 0x1 PUSH1 0xA0 SHL SUB AND DUP2 MSTORE PUSH1 0x20 ADD SWAP6 POP POP POP POP POP POP PUSH1 0x40 MLOAD PUSH1 0x20 DUP2 DUP4 SUB SUB DUP2 MSTORE SWAP1 PUSH1 0x40 MSTORE DUP1 MLOAD SWAP1 PUSH1 0x20 ADD KECCAK256 SWAP1 POP SWAP1 JUMP JUMPDEST PUSH2 0x1808 PUSH2 0x1800 PUSH2 0x14D6 JUMP JUMPDEST PUSH2 0x192 PUSH2 0x1641 JUMP JUMPDEST JUMP JUMPDEST PUSH2 0x181D PUSH5 0xE8D4A51000 DUP3 LT ISZERO PUSH1 0xCB PUSH2 0x1641 JUMP JUMPDEST PUSH2 0x1833 PUSH8 0x16345785D8A0000 DUP3 GT ISZERO PUSH1 0xCA PUSH2 0x1641 JUMP JUMPDEST PUSH1 0x8 SLOAD PUSH2 0x1842 SWAP1 DUP3 PUSH1 0xC0 PUSH2 0x139F JUMP JUMPDEST PUSH1 0x8 SSTORE PUSH1 0x40 MLOAD PUSH32 0xA9BA3FFE0B6C366B81232CAAB38605A0699AD5398D6CCE76F91EE809E322DAFC SWAP1 PUSH2 0x6A4 SWAP1 DUP4 SWAP1 PUSH2 0x4777 JUMP JUMPDEST PUSH1 0x0 DUP3 DUP3 ADD PUSH2 0x1887 DUP5 DUP3 LT ISZERO DUP4 PUSH2 0x1641 JUMP JUMPDEST SWAP4 SWAP3 POP POP POP JUMP JUMPDEST PUSH1 0x0 PUSH2 0x1898 PUSH2 0x7A1 JUMP JUMPDEST SWAP1 POP PUSH1 0x0 PUSH2 0x18A4 PUSH2 0xE34 JUMP JUMPDEST PUSH1 0x1 PUSH1 0x1 PUSH1 0xA0 SHL SUB AND PUSH4 0xB05F8E48 DUP4 DUP7 PUSH1 0x40 MLOAD DUP4 PUSH4 0xFFFFFFFF AND PUSH1 0xE0 SHL DUP2 MSTORE PUSH1 0x4 ADD PUSH2 0x18D1 SWAP3 SWAP2 SWAP1 PUSH2 0x4799 JUMP JUMPDEST PUSH1 0x80 PUSH1 0x40 MLOAD DUP1 DUP4 SUB DUP2 DUP7 DUP1 EXTCODESIZE ISZERO DUP1 ISZERO PUSH2 0x18E9 JUMPI PUSH1 0x0 DUP1 REVERT JUMPDEST POP GAS STATICCALL ISZERO DUP1 ISZERO PUSH2 0x18FD JUMPI RETURNDATASIZE PUSH1 0x0 DUP1 RETURNDATACOPY RETURNDATASIZE PUSH1 0x0 REVERT JUMPDEST POP POP POP POP PUSH1 0x40 MLOAD RETURNDATASIZE PUSH1 0x1F NOT PUSH1 0x1F DUP3 ADD AND DUP3 ADD DUP1 PUSH1 0x40 MSTORE POP DUP2 ADD SWAP1 PUSH2 0x1921 SWAP2 SWAP1 PUSH2 0x4633 JUMP JUMPDEST PUSH1 0x40 MLOAD PUSH4 0x639CDB5 PUSH1 0xE2 SHL DUP2 MSTORE SWAP1 SWAP5 POP PUSH1 0x1 PUSH1 0x1 PUSH1 0xA0 SHL SUB DUP6 AND SWAP4 POP PUSH4 0x18E736D4 SWAP3 POP PUSH2 0x1955 SWAP2 POP DUP6 SWAP1 DUP8 SWAP1 PUSH1 0x4 ADD PUSH2 0x4780 JUMP JUMPDEST PUSH1 0x0 PUSH1 0x40 MLOAD DUP1 DUP4 SUB DUP2 PUSH1 0x0 DUP8 DUP1 EXTCODESIZE ISZERO DUP1 ISZERO PUSH2 0x196F JUMPI PUSH1 0x0 DUP1 REVERT JUMPDEST POP GAS CALL ISZERO DUP1 ISZERO PUSH2 0x1983 JUMPI RETURNDATASIZE PUSH1 0x0 DUP1 RETURNDATACOPY RETURNDATASIZE PUSH1 0x0 REVERT JUMPDEST POP POP POP POP POP POP POP POP JUMP JUMPDEST SHR PUSH1 0x1 PUSH1 0x1 PUSH1 0x40 SHL SUB AND SWAP1 JUMP JUMPDEST PUSH1 0x3 SWAP1 JUMP JUMPDEST PUSH2 0x969 DUP2 DUP4 EQ PUSH1 0x67 PUSH2 0x1641 JUMP JUMPDEST PUSH1 0x0 PUSH1 0x60 DUP1 PUSH32 0x0 PUSH2 0x19DA PUSH2 0x14D6 JUMP JUMPDEST ISZERO PUSH2 0x1A22 JUMPI PUSH1 0x0 PUSH2 0x19EB DUP11 DUP4 PUSH2 0x245D JUMP JUMPDEST SWAP1 POP PUSH2 0x19F6 DUP2 PUSH2 0x2531 JUMP JUMPDEST PUSH2 0x1A00 DUP11 DUP8 PUSH2 0x255E JUMP JUMPDEST SWAP1 SWAP6 POP SWAP4 POP PUSH2 0x1A19 DUP2 DUP7 PUSH2 0x1A12 PUSH2 0x6C3 JUMP JUMPDEST PUSH1 0x0 PUSH2 0x25AB JUMP JUMPDEST PUSH1 0x9 SSTORE POP PUSH2 0x1A38 JUMP JUMPDEST PUSH2 0x1A2C DUP10 DUP7 PUSH2 0x255E JUMP JUMPDEST PUSH1 0x0 NOT PUSH1 0x9 SSTORE SWAP1 SWAP5 POP SWAP3 POP JUMPDEST PUSH1 0x40 DUP1 MLOAD PUSH1 0x3 DUP1 DUP3 MSTORE PUSH1 0x80 DUP3 ADD SWAP1 SWAP3 MSTORE DUP6 SWAP2 DUP6 SWAP2 SWAP1 PUSH1 0x20 DUP3 ADD PUSH1 0x60 DUP1 CALLDATASIZE DUP4 CALLDATACOPY ADD SWAP1 POP POP SWAP4 POP SWAP4 POP SWAP4 POP POP SWAP9 POP SWAP9 POP SWAP9 SWAP6 POP POP POP POP POP POP JUMP JUMPDEST PUSH1 0x0 JUMPDEST PUSH2 0x1A7B PUSH2 0x199A JUMP JUMPDEST DUP2 LT ISZERO PUSH2 0x1AD1 JUMPI PUSH2 0x1AB2 DUP4 DUP3 DUP2 MLOAD DUP2 LT PUSH2 0x1A91 JUMPI INVALID JUMPDEST PUSH1 0x20 MUL PUSH1 0x20 ADD ADD MLOAD DUP4 DUP4 DUP2 MLOAD DUP2 LT PUSH2 0x1AA5 JUMPI INVALID JUMPDEST PUSH1 0x20 MUL PUSH1 0x20 ADD ADD MLOAD PUSH2 0x2605 JUMP JUMPDEST DUP4 DUP3 DUP2 MLOAD DUP2 LT PUSH2 0x1ABE JUMPI INVALID JUMPDEST PUSH1 0x20 SWAP1 DUP2 MUL SWAP2 SWAP1 SWAP2 ADD ADD MSTORE PUSH1 0x1 ADD PUSH2 0x1A73 JUMP JUMPDEST POP POP POP JUMP JUMPDEST CALLER ADDRESS EQ PUSH2 0x1B94 JUMPI PUSH1 0x0 ADDRESS PUSH1 0x1 PUSH1 0x1 PUSH1 0xA0 SHL SUB AND PUSH1 0x0 CALLDATASIZE PUSH1 0x40 MLOAD PUSH2 0x1AFA SWAP3 SWAP2 SWAP1 PUSH2 0x46F8 JUMP JUMPDEST PUSH1 0x0 PUSH1 0x40 MLOAD DUP1 DUP4 SUB DUP2 PUSH1 0x0 DUP7 GAS CALL SWAP2 POP POP RETURNDATASIZE DUP1 PUSH1 0x0 DUP2 EQ PUSH2 0x1B37 JUMPI PUSH1 0x40 MLOAD SWAP2 POP PUSH1 0x1F NOT PUSH1 0x3F RETURNDATASIZE ADD AND DUP3 ADD PUSH1 0x40 MSTORE RETURNDATASIZE DUP3 MSTORE RETURNDATASIZE PUSH1 0x0 PUSH1 0x20 DUP5 ADD RETURNDATACOPY PUSH2 0x1B3C JUMP JUMPDEST PUSH1 0x60 SWAP2 POP JUMPDEST POP POP SWAP1 POP DUP1 PUSH1 0x0 DUP2 EQ PUSH2 0x1B4B JUMPI INVALID JUMPDEST PUSH1 0x4 PUSH1 0x0 DUP1 RETURNDATACOPY PUSH1 0x0 MLOAD PUSH1 0x1 PUSH1 0x1 PUSH1 0xE0 SHL SUB NOT AND PUSH4 0x43ADBAFB PUSH1 0xE0 SHL DUP2 EQ PUSH2 0x1B76 JUMPI RETURNDATASIZE PUSH1 0x0 DUP1 RETURNDATACOPY RETURNDATASIZE PUSH1 0x0 REVERT JUMPDEST POP PUSH1 0x20 PUSH1 0x4 PUSH1 0x0 RETURNDATACOPY PUSH1 0x40 PUSH1 0x20 MSTORE PUSH1 0x24 RETURNDATASIZE SUB PUSH1 0x24 PUSH1 0x40 RETURNDATACOPY PUSH1 0x1C RETURNDATASIZE ADD PUSH1 0x0 RETURN JUMPDEST PUSH1 0x0 PUSH2 0x1B9E PUSH2 0x153B JUMP JUMPDEST SWAP1 POP PUSH2 0x1BAA DUP8 DUP3 PUSH2 0x1C76 JUMP JUMPDEST PUSH1 0x0 DUP1 PUSH2 0x1BC1 DUP13 DUP13 DUP13 DUP13 DUP13 DUP13 DUP10 DUP14 DUP14 PUSH4 0xFFFFFFFF AND JUMP JUMPDEST POP SWAP2 POP SWAP2 POP PUSH2 0x1BD4 DUP2 DUP5 DUP7 PUSH4 0xFFFFFFFF AND JUMP JUMPDEST DUP1 MLOAD PUSH1 0x1F NOT DUP3 ADD DUP4 SWAP1 MSTORE PUSH4 0x43ADBAFB PUSH1 0x3F NOT DUP4 ADD MSTORE PUSH1 0x20 MUL PUSH1 0x23 NOT DUP3 ADD PUSH1 0x44 DUP3 ADD DUP2 REVERT JUMPDEST PUSH1 0x0 DUP3 DUP3 MUL PUSH2 0x1887 DUP5 ISZERO DUP1 PUSH2 0x1C15 JUMPI POP DUP4 DUP6 DUP4 DUP2 PUSH2 0x1C12 JUMPI INVALID JUMPDEST DIV EQ JUMPDEST PUSH1 0x3 PUSH2 0x1641 JUMP JUMPDEST PUSH1 0x0 DUP2 PUSH2 0x1C2F JUMPI PUSH2 0x1C2F PUSH1 0x0 PUSH1 0x4 PUSH2 0x1641 JUMP JUMPDEST DUP3 PUSH2 0x1C3C JUMPI POP PUSH1 0x0 PUSH2 0x5F8 JUMP JUMPDEST PUSH8 0xDE0B6B3A7640000 DUP4 DUP2 MUL SWAP1 DUP5 DUP3 DUP2 PUSH2 0x1C52 JUMPI INVALID JUMPDEST DIV EQ PUSH2 0x1C64 JUMPI PUSH2 0x1C64 PUSH1 0x0 PUSH1 0x5 PUSH2 0x1641 JUMP JUMPDEST DUP3 DUP2 DUP2 PUSH2 0x1C6D JUMPI INVALID JUMPDEST DIV SWAP5 SWAP4 POP POP POP POP JUMP JUMPDEST PUSH1 0x0 JUMPDEST PUSH2 0x1C81 PUSH2 0x199A JUMP JUMPDEST DUP2 LT ISZERO PUSH2 0x1AD1 JUMPI PUSH2 0x1CB8 DUP4 DUP3 DUP2 MLOAD DUP2 LT PUSH2 0x1C97 JUMPI INVALID JUMPDEST PUSH1 0x20 MUL PUSH1 0x20 ADD ADD MLOAD DUP4 DUP4 DUP2 MLOAD DUP2 LT PUSH2 0x1CAB JUMPI INVALID JUMPDEST PUSH1 0x20 MUL PUSH1 0x20 ADD ADD MLOAD PUSH2 0x2632 JUMP JUMPDEST DUP4 DUP3 DUP2 MLOAD DUP2 LT PUSH2 0x1CC4 JUMPI INVALID JUMPDEST PUSH1 0x20 SWAP1 DUP2 MUL SWAP2 SWAP1 SWAP2 ADD ADD MSTORE PUSH1 0x1 ADD PUSH2 0x1C79 JUMP JUMPDEST PUSH2 0x969 DUP3 DUP3 PUSH2 0x265B JUMP JUMPDEST PUSH1 0x0 PUSH1 0x60 DUP1 PUSH32 0x0 DUP4 PUSH2 0x1D12 DUP11 DUP4 PUSH2 0x245D JUMP JUMPDEST SWAP1 POP PUSH2 0x1D1D DUP2 PUSH2 0x2531 JUMP JUMPDEST PUSH2 0x1D27 DUP11 DUP8 PUSH2 0x2712 JUMP JUMPDEST PUSH1 0xA SLOAD SWAP2 SWAP7 POP SWAP5 POP PUSH1 0xFF AND ISZERO PUSH2 0x1D51 JUMPI PUSH2 0x1D51 DUP6 PUSH2 0x1D44 DUP14 PUSH2 0x9EF JUMP JUMPDEST PUSH2 0x1D4C PUSH2 0x6C3 JUMP JUMPDEST PUSH2 0x2756 JUMP JUMPDEST PUSH2 0x1D65 DUP2 DUP7 PUSH2 0x1D5E PUSH2 0x6C3 JUMP JUMPDEST PUSH1 0x1 PUSH2 0x25AB JUMP JUMPDEST PUSH1 0x9 SSTORE PUSH1 0x40 DUP1 MLOAD PUSH1 0x3 DUP1 DUP3 MSTORE PUSH1 0x80 DUP3 ADD SWAP1 SWAP3 MSTORE DUP7 SWAP2 DUP7 SWAP2 SWAP1 PUSH1 0x20 DUP3 ADD PUSH1 0x60 DUP1 CALLDATASIZE DUP4 CALLDATACOPY ADD SWAP1 POP POP SWAP5 POP SWAP5 POP SWAP5 POP POP POP SWAP9 POP SWAP9 POP SWAP9 SWAP6 POP POP POP POP POP POP JUMP JUMPDEST PUSH1 0x0 JUMPDEST PUSH2 0x1DAC PUSH2 0x199A JUMP JUMPDEST DUP2 LT ISZERO PUSH2 0x1AD1 JUMPI PUSH2 0x1DE3 DUP4 DUP3 DUP2 MLOAD DUP2 LT PUSH2 0x1DC2 JUMPI INVALID JUMPDEST PUSH1 0x20 MUL PUSH1 0x20 ADD ADD MLOAD DUP4 DUP4 DUP2 MLOAD DUP2 LT PUSH2 0x1DD6 JUMPI INVALID JUMPDEST PUSH1 0x20 MUL PUSH1 0x20 ADD ADD MLOAD PUSH2 0x2868 JUMP JUMPDEST DUP4 DUP3 DUP2 MLOAD DUP2 LT PUSH2 0x1DEF JUMPI INVALID JUMPDEST PUSH1 0x20 SWAP1 DUP2 MUL SWAP2 SWAP1 SWAP2 ADD ADD MSTORE PUSH1 0x1 ADD PUSH2 0x1DA4 JUMP JUMPDEST PUSH1 0x0 PUSH32 0x0 PUSH1 0x1 PUSH1 0x1 PUSH1 0xA0 SHL SUB AND DUP3 PUSH1 0x1 PUSH1 0x1 PUSH1 0xA0 SHL SUB AND EQ ISZERO PUSH2 0x1E65 JUMPI POP PUSH32 0x0 PUSH2 0xA09 JUMP JUMPDEST PUSH32 0x0 PUSH1 0x1 PUSH1 0x1 PUSH1 0xA0 SHL SUB AND DUP3 PUSH1 0x1 PUSH1 0x1 PUSH1 0xA0 SHL SUB AND EQ ISZERO PUSH2 0x1EC6 JUMPI POP PUSH32 0x0 PUSH2 0xA09 JUMP JUMPDEST PUSH32 0x0 PUSH1 0x1 PUSH1 0x1 PUSH1 0xA0 SHL SUB AND DUP3 PUSH1 0x1 PUSH1 0x1 PUSH1 0xA0 SHL SUB AND EQ ISZERO PUSH2 0x1F27 JUMPI POP PUSH32 0x0 PUSH2 0xA09 JUMP JUMPDEST PUSH2 0xA09 PUSH2 0x135 PUSH2 0x23F0 JUMP JUMPDEST PUSH1 0x0 DUP1 PUSH2 0x1F47 PUSH2 0x1F40 PUSH2 0x96D JUMP JUMPDEST DUP5 SWAP1 PUSH2 0x28BF JUMP JUMPDEST SWAP1 POP PUSH2 0x1887 DUP4 DUP3 PUSH2 0x13B4 JUMP JUMPDEST PUSH1 0x0 PUSH2 0x1887 DUP4 DUP4 PUSH2 0x2632 JUMP JUMPDEST PUSH2 0x969 PUSH2 0x1F6B DUP4 PUSH2 0x28FB JUMP JUMPDEST DUP3 PUSH2 0x969 JUMP JUMPDEST PUSH1 0x0 PUSH2 0x1F7B PUSH2 0x17F5 JUMP JUMPDEST PUSH1 0x0 PUSH2 0x1F88 DUP6 DUP6 DUP6 PUSH2 0x2901 JUMP JUMPDEST SWAP1 POP PUSH2 0x1F96 DUP6 DUP6 DUP6 DUP5 PUSH2 0x29A0 JUMP JUMPDEST SWAP6 SWAP5 POP POP POP POP POP JUMP JUMPDEST PUSH1 0x0 PUSH2 0x1887 DUP4 DUP4 PUSH2 0x2605 JUMP JUMPDEST PUSH1 0x0 PUSH2 0x1FB5 PUSH2 0x17F5 JUMP JUMPDEST PUSH1 0x0 PUSH2 0x1FC2 DUP6 DUP6 DUP6 PUSH2 0x2901 JUMP JUMPDEST SWAP1 POP PUSH2 0x1F96 DUP6 DUP6 DUP6 DUP5 PUSH2 0x29B2 JUMP JUMPDEST PUSH1 0x0 PUSH2 0x1887 DUP4 DUP4 PUSH2 0x2868 JUMP JUMPDEST PUSH1 0x0 PUSH2 0x5F8 PUSH2 0x1FFB PUSH2 0x1FEC PUSH2 0x96D JUMP JUMPDEST PUSH8 0xDE0B6B3A7640000 SWAP1 PUSH2 0x13B4 JUMP JUMPDEST DUP4 SWAP1 PUSH2 0x2868 JUMP JUMPDEST PUSH1 0x0 PUSH2 0x200C PUSH2 0xE34 JUMP JUMPDEST PUSH1 0x1 PUSH1 0x1 PUSH1 0xA0 SHL SUB AND PUSH4 0xAAABADC5 PUSH1 0x40 MLOAD DUP2 PUSH4 0xFFFFFFFF AND PUSH1 0xE0 SHL DUP2 MSTORE PUSH1 0x4 ADD PUSH1 0x20 PUSH1 0x40 MLOAD DUP1 DUP4 SUB DUP2 DUP7 DUP1 EXTCODESIZE ISZERO DUP1 ISZERO PUSH2 0x2044 JUMPI PUSH1 0x0 DUP1 REVERT JUMPDEST POP GAS STATICCALL ISZERO DUP1 ISZERO PUSH2 0x2058 JUMPI RETURNDATASIZE PUSH1 0x0 DUP1 RETURNDATACOPY RETURNDATASIZE PUSH1 0x0 REVERT JUMPDEST POP POP POP POP PUSH1 0x40 MLOAD RETURNDATASIZE PUSH1 0x1F NOT PUSH1 0x1F DUP3 ADD AND DUP3 ADD DUP1 PUSH1 0x40 MSTORE POP DUP2 ADD SWAP1 PUSH2 0x6FC SWAP2 SWAP1 PUSH2 0x41C1 JUMP JUMPDEST PUSH1 0x0 PUSH2 0x6FC PUSH2 0x2089 PUSH2 0x29C4 JUMP JUMPDEST PUSH32 0x0 PUSH2 0x245D JUMP JUMPDEST PUSH1 0x0 PUSH2 0x20B9 PUSH2 0x1737 JUMP JUMPDEST DUP3 PUSH1 0x40 MLOAD PUSH1 0x20 ADD DUP1 DUP1 PUSH2 0x1901 PUSH1 0xF0 SHL DUP2 MSTORE POP PUSH1 0x2 ADD DUP4 DUP2 MSTORE PUSH1 0x20 ADD DUP3 DUP2 MSTORE PUSH1 0x20 ADD SWAP3 POP POP POP PUSH1 0x40 MLOAD PUSH1 0x20 DUP2 DUP4 SUB SUB DUP2 MSTORE SWAP1 PUSH1 0x40 MSTORE DUP1 MLOAD SWAP1 PUSH1 0x20 ADD KECCAK256 SWAP1 POP SWAP2 SWAP1 POP JUMP JUMPDEST PUSH1 0x0 PUSH1 0x60 PUSH2 0x2107 PUSH2 0x17F5 JUMP JUMPDEST PUSH1 0x0 PUSH2 0x2112 DUP5 PUSH2 0x2B12 JUMP JUMPDEST SWAP1 POP PUSH2 0x212D PUSH1 0x0 DUP3 PUSH1 0x3 DUP2 GT ISZERO PUSH2 0x2125 JUMPI INVALID JUMPDEST EQ PUSH1 0xCE PUSH2 0x1641 JUMP JUMPDEST PUSH1 0x0 PUSH2 0x2138 DUP6 PUSH2 0x2B31 JUMP JUMPDEST SWAP1 POP PUSH2 0x2146 DUP2 MLOAD PUSH1 0x3 PUSH2 0x199F JUMP JUMPDEST PUSH2 0x2150 DUP2 DUP8 PUSH2 0x1C76 JUMP JUMPDEST PUSH1 0x0 PUSH2 0x217C DUP3 PUSH32 0x0 PUSH2 0x245D JUMP JUMPDEST SWAP1 POP PUSH1 0x0 PUSH2 0x218B DUP3 PUSH1 0x3 PUSH2 0x1BF8 JUMP JUMPDEST PUSH1 0x9 SWAP3 SWAP1 SWAP3 SSTORE POP SWAP4 POP SWAP2 POP POP JUMPDEST SWAP6 POP SWAP6 SWAP4 POP POP POP POP JUMP JUMPDEST PUSH3 0xF4240 SWAP1 JUMP JUMPDEST PUSH2 0x969 DUP3 DUP3 PUSH2 0x2BE5 JUMP JUMPDEST PUSH1 0x1 PUSH1 0x1 PUSH1 0xA0 SHL SUB SWAP2 DUP3 AND PUSH1 0x0 SWAP1 DUP2 MSTORE PUSH1 0x1 PUSH1 0x20 SWAP1 DUP2 MSTORE PUSH1 0x40 DUP1 DUP4 KECCAK256 SWAP4 SWAP1 SWAP5 AND DUP3 MSTORE SWAP2 SWAP1 SWAP2 MSTORE KECCAK256 SLOAD SWAP1 JUMP JUMPDEST PUSH1 0x40 DUP1 MLOAD PUSH1 0x3 DUP1 DUP3 MSTORE PUSH1 0x80 DUP3 ADD SWAP1 SWAP3 MSTORE PUSH1 0x60 SWAP2 PUSH1 0x0 SWAP2 SWAP1 PUSH1 0x20 DUP3 ADD DUP5 DUP1 CALLDATASIZE DUP4 CALLDATACOPY ADD SWAP1 POP POP SWAP1 POP PUSH1 0x3 PUSH8 0xDE0B6B3A7640000 DIV DUP2 PUSH1 0x0 DUP2 MLOAD DUP2 LT PUSH2 0x221D JUMPI INVALID JUMPDEST PUSH1 0x20 SWAP1 DUP2 MUL SWAP2 SWAP1 SWAP2 ADD ADD MSTORE PUSH1 0x3 PUSH8 0xDE0B6B3A7640000 DIV DUP2 PUSH1 0x1 DUP2 MLOAD DUP2 LT PUSH2 0x2241 JUMPI INVALID JUMPDEST PUSH1 0x20 SWAP1 DUP2 MUL SWAP2 SWAP1 SWAP2 ADD ADD MSTORE PUSH1 0x3 PUSH8 0xDE0B6B3A7640000 DIV DUP2 PUSH1 0x2 DUP2 MLOAD DUP2 LT PUSH2 0x2265 JUMPI INVALID JUMPDEST PUSH1 0x20 SWAP1 DUP2 MUL SWAP2 SWAP1 SWAP2 ADD ADD MSTORE SWAP1 POP SWAP1 JUMP JUMPDEST PUSH1 0x2 DUP2 MLOAD LT ISZERO PUSH2 0x2284 JUMPI PUSH2 0x6C0 JUMP JUMPDEST PUSH1 0x0 DUP2 PUSH1 0x0 DUP2 MLOAD DUP2 LT PUSH2 0x2293 JUMPI INVALID JUMPDEST PUSH1 0x20 MUL PUSH1 0x20 ADD ADD MLOAD SWAP1 POP PUSH1 0x0 PUSH1 0x1 SWAP1 POP JUMPDEST DUP3 MLOAD DUP2 LT ISZERO PUSH2 0x1AD1 JUMPI PUSH1 0x0 DUP4 DUP3 DUP2 MLOAD DUP2 LT PUSH2 0x22BB JUMPI INVALID JUMPDEST PUSH1 0x20 MUL PUSH1 0x20 ADD ADD MLOAD SWAP1 POP PUSH2 0x22E4 DUP2 PUSH1 0x1 PUSH1 0x1 PUSH1 0xA0 SHL SUB AND DUP5 PUSH1 0x1 PUSH1 0x1 PUSH1 0xA0 SHL SUB AND LT PUSH1 0x65 PUSH2 0x1641 JUMP JUMPDEST SWAP2 POP PUSH1 0x1 ADD PUSH2 0x22A4 JUMP JUMPDEST PUSH1 0x0 PUSH20 0xBA1BA1BA1BA1BA1BA1BA1BA1BA1BA1BA1BA1BA1B PUSH2 0x230D PUSH2 0xE10 JUMP JUMPDEST PUSH1 0x1 PUSH1 0x1 PUSH1 0xA0 SHL SUB AND EQ ISZERO DUP1 ISZERO PUSH2 0x2328 JUMPI POP PUSH2 0x2328 DUP4 PUSH2 0x2C7A JUMP JUMPDEST ISZERO PUSH2 0x2350 JUMPI PUSH2 0x2335 PUSH2 0xE10 JUMP JUMPDEST PUSH1 0x1 PUSH1 0x1 PUSH1 0xA0 SHL SUB AND CALLER PUSH1 0x1 PUSH1 0x1 PUSH1 0xA0 SHL SUB AND EQ SWAP1 POP PUSH2 0x5F8 JUMP JUMPDEST PUSH2 0x2358 PUSH2 0x2002 JUMP JUMPDEST PUSH1 0x1 PUSH1 0x1 PUSH1 0xA0 SHL SUB AND PUSH4 0x9BE2A884 DUP5 DUP5 ADDRESS PUSH1 0x40 MLOAD DUP5 PUSH4 0xFFFFFFFF AND PUSH1 0xE0 SHL DUP2 MSTORE PUSH1 0x4 ADD DUP1 DUP5 DUP2 MSTORE PUSH1 0x20 ADD DUP4 PUSH1 0x1 PUSH1 0x1 PUSH1 0xA0 SHL SUB AND DUP2 MSTORE PUSH1 0x20 ADD DUP3 PUSH1 0x1 PUSH1 0x1 PUSH1 0xA0 SHL SUB AND DUP2 MSTORE PUSH1 0x20 ADD SWAP4 POP POP POP POP PUSH1 0x20 PUSH1 0x40 MLOAD DUP1 DUP4 SUB DUP2 DUP7 DUP1 EXTCODESIZE ISZERO DUP1 ISZERO PUSH2 0x23BD JUMPI PUSH1 0x0 DUP1 REVERT JUMPDEST POP GAS STATICCALL ISZERO DUP1 ISZERO PUSH2 0x23D1 JUMPI RETURNDATASIZE PUSH1 0x0 DUP1 RETURNDATACOPY RETURNDATASIZE PUSH1 0x0 REVERT JUMPDEST POP POP POP POP PUSH1 0x40 MLOAD RETURNDATASIZE PUSH1 0x20 DUP2 LT ISZERO PUSH2 0x23E7 JUMPI PUSH1 0x0 DUP1 REVERT JUMPDEST POP MLOAD SWAP1 POP PUSH2 0x5F8 JUMP JUMPDEST PUSH3 0x461BCD PUSH1 0xE5 SHL PUSH1 0x0 SWAP1 DUP2 MSTORE PUSH1 0x20 PUSH1 0x4 MSTORE PUSH1 0x7 PUSH1 0x24 MSTORE PUSH7 0x42414C23000030 PUSH1 0xA DUP1 DUP5 DIV DUP2 DUP2 MOD PUSH1 0x30 SWAP1 DUP2 ADD PUSH1 0x8 SHL SWAP6 DUP4 SWAP1 MOD SWAP6 SWAP1 SWAP6 ADD SWAP1 DUP3 SWAP1 DIV SWAP2 DUP3 MOD SWAP1 SWAP5 ADD PUSH1 0x10 SHL SWAP4 SWAP1 SWAP4 ADD ADD PUSH1 0xC8 SHL PUSH1 0x44 MSTORE PUSH1 0x64 SWAP1 REVERT JUMPDEST PUSH1 0x0 PUSH2 0x2452 DUP5 DUP5 GT ISZERO DUP4 PUSH2 0x1641 JUMP JUMPDEST POP POP SWAP1 SUB SWAP1 JUMP JUMPDEST CHAINID SWAP1 JUMP JUMPDEST PUSH1 0x0 PUSH13 0x1431E0FAE6D7217CAA0000000 DUP4 PUSH1 0x0 DUP2 MLOAD DUP2 LT PUSH2 0x247A JUMPI INVALID JUMPDEST PUSH1 0x20 MUL PUSH1 0x20 ADD ADD MLOAD GT ISZERO PUSH2 0x2495 JUMPI PUSH2 0x2495 PUSH1 0x0 PUSH2 0x16A PUSH2 0x2CAC JUMP JUMPDEST PUSH13 0x1431E0FAE6D7217CAA0000000 DUP4 PUSH1 0x1 DUP2 MLOAD DUP2 LT PUSH2 0x24B0 JUMPI INVALID JUMPDEST PUSH1 0x20 MUL PUSH1 0x20 ADD ADD MLOAD GT ISZERO PUSH2 0x24CB JUMPI PUSH2 0x24CB PUSH1 0x0 PUSH2 0x16A PUSH2 0x2CAC JUMP JUMPDEST PUSH13 0x1431E0FAE6D7217CAA0000000 DUP4 PUSH1 0x2 DUP2 MLOAD DUP2 LT PUSH2 0x24E6 JUMPI INVALID JUMPDEST PUSH1 0x20 MUL PUSH1 0x20 ADD ADD MLOAD GT ISZERO PUSH2 0x2501 JUMPI PUSH2 0x2501 PUSH1 0x0 PUSH2 0x16A PUSH2 0x2CAC JUMP JUMPDEST PUSH1 0x0 DUP1 PUSH1 0x0 DUP1 PUSH2 0x2511 DUP8 DUP8 PUSH2 0x2CBA JUMP JUMPDEST SWAP4 POP SWAP4 POP SWAP4 POP SWAP4 POP PUSH2 0x2526 DUP5 DUP5 DUP5 DUP5 DUP11 PUSH2 0x2E09 JUMP JUMPDEST SWAP8 SWAP7 POP POP POP POP POP POP POP JUMP JUMPDEST PUSH1 0x0 DUP1 PUSH1 0x0 DUP1 PUSH2 0x2543 PUSH1 0x9 SLOAD DUP7 PUSH2 0x2E5A JUMP JUMPDEST SWAP4 POP SWAP4 POP SWAP4 POP SWAP4 POP PUSH2 0x2557 DUP5 DUP5 DUP5 DUP5 PUSH2 0x2EC3 JUMP JUMPDEST POP POP POP POP POP JUMP JUMPDEST PUSH1 0x0 PUSH1 0x60 PUSH1 0x0 PUSH2 0x256D DUP5 PUSH2 0x2B12 JUMP JUMPDEST SWAP1 POP PUSH1 0x1 DUP2 PUSH1 0x3 DUP2 GT ISZERO PUSH2 0x257D JUMPI INVALID JUMPDEST EQ ISZERO PUSH2 0x2597 JUMPI PUSH2 0x258D DUP6 DUP6 PUSH2 0x2EE9 JUMP JUMPDEST SWAP3 POP SWAP3 POP POP PUSH2 0x25A4 JUMP JUMPDEST PUSH2 0x25A2 PUSH2 0x150 PUSH2 0x23F0 JUMP JUMPDEST POP JUMPDEST SWAP3 POP SWAP3 SWAP1 POP JUMP JUMPDEST PUSH1 0x0 DUP2 ISZERO PUSH2 0x25DD JUMPI PUSH1 0x0 PUSH2 0x25C9 DUP5 PUSH2 0x25C3 DUP9 DUP9 PUSH2 0x2F1B JUMP JUMPDEST SWAP1 PUSH2 0x2F70 JUMP JUMPDEST SWAP1 POP PUSH2 0x25D5 DUP7 DUP3 PUSH2 0x2FCD JUMP JUMPDEST SWAP2 POP POP PUSH2 0x25FD JUMP JUMPDEST PUSH1 0x0 PUSH2 0x25ED DUP5 PUSH2 0x9DA DUP9 DUP9 PUSH2 0x2FE5 JUMP JUMPDEST SWAP1 POP PUSH2 0x25F9 DUP7 DUP3 PUSH2 0x300F JUMP JUMPDEST SWAP2 POP POP JUMPDEST SWAP5 SWAP4 POP POP POP POP JUMP JUMPDEST PUSH1 0x0 DUP2 PUSH2 0x2611 JUMPI PUSH1 0x0 DUP1 REVERT JUMPDEST PUSH8 0xDE0B6B3A7640000 DUP4 DUP2 MUL SWAP1 DUP5 DUP3 DUP2 PUSH2 0x2627 JUMPI INVALID JUMPDEST DIV EQ PUSH2 0x1C64 JUMPI PUSH1 0x0 DUP1 REVERT JUMPDEST PUSH1 0x0 DUP3 DUP3 MUL PUSH2 0x264C DUP5 ISZERO DUP1 PUSH2 0x1C15 JUMPI POP DUP4 DUP6 DUP4 DUP2 PUSH2 0x1C12 JUMPI INVALID JUMPDEST PUSH8 0xDE0B6B3A7640000 DUP2 PUSH2 0x1C6D JUMP JUMPDEST PUSH2 0x2672 PUSH1 0x1 PUSH1 0x1 PUSH1 0xA0 SHL SUB DUP4 AND ISZERO ISZERO PUSH2 0x19B PUSH2 0x1641 JUMP JUMPDEST PUSH2 0x267E DUP3 PUSH1 0x0 DUP4 PUSH2 0x1AD1 JUMP JUMPDEST PUSH1 0x1 PUSH1 0x1 PUSH1 0xA0 SHL SUB DUP3 AND PUSH1 0x0 SWAP1 DUP2 MSTORE PUSH1 0x20 DUP2 SWAP1 MSTORE PUSH1 0x40 SWAP1 KECCAK256 SLOAD PUSH2 0x26A4 SWAP1 DUP3 PUSH2 0x1A1 PUSH2 0x2443 JUMP JUMPDEST PUSH1 0x1 PUSH1 0x1 PUSH1 0xA0 SHL SUB DUP4 AND PUSH1 0x0 SWAP1 DUP2 MSTORE PUSH1 0x20 DUP2 SWAP1 MSTORE PUSH1 0x40 SWAP1 KECCAK256 SSTORE PUSH1 0x2 SLOAD PUSH2 0x26CA SWAP1 DUP3 PUSH2 0x3025 JUMP JUMPDEST PUSH1 0x2 SSTORE PUSH1 0x40 DUP1 MLOAD DUP3 DUP2 MSTORE SWAP1 MLOAD PUSH1 0x0 SWAP2 PUSH1 0x1 PUSH1 0x1 PUSH1 0xA0 SHL SUB DUP6 AND SWAP2 PUSH32 0xDDF252AD1BE2C89B69C2B068FC378DAA952BA7F163C4A11628F55A4DF523B3EF SWAP2 DUP2 SWAP1 SUB PUSH1 0x20 ADD SWAP1 LOG3 POP POP JUMP JUMPDEST PUSH1 0x0 PUSH1 0x60 PUSH1 0x0 PUSH2 0x2721 DUP5 PUSH2 0x2B12 JUMP JUMPDEST SWAP1 POP PUSH1 0x3 DUP2 PUSH1 0x3 DUP2 GT ISZERO PUSH2 0x2731 JUMPI INVALID JUMPDEST EQ ISZERO PUSH2 0x274B JUMPI PUSH2 0x2741 DUP6 DUP6 PUSH2 0x3033 JUMP JUMPDEST SWAP1 SWAP4 POP SWAP2 POP PUSH2 0x25A2 JUMP JUMPDEST PUSH2 0x25A2 PUSH2 0x136 PUSH2 0x23F0 JUMP JUMPDEST PUSH1 0x40 DUP1 MLOAD PUSH1 0x60 DUP2 ADD DUP3 MSTORE PUSH1 0xA SLOAD PUSH1 0xFF DUP2 AND ISZERO ISZERO DUP3 MSTORE PUSH2 0x100 DUP2 DIV PUSH1 0x1 PUSH1 0x1 PUSH1 0x78 SHL SUB AND PUSH1 0x20 DUP4 ADD DUP2 SWAP1 MSTORE PUSH1 0x1 PUSH1 0x80 SHL SWAP1 SWAP2 DIV PUSH1 0x1 PUSH1 0x1 PUSH1 0x80 SHL SUB AND SWAP3 DUP3 ADD SWAP3 SWAP1 SWAP3 MSTORE SWAP1 PUSH2 0x27A3 DUP6 DUP6 PUSH2 0x2FCD JUMP JUMPDEST GT ISZERO PUSH1 0x40 MLOAD DUP1 PUSH1 0x40 ADD PUSH1 0x40 MSTORE DUP1 PUSH1 0x1A DUP2 MSTORE PUSH1 0x20 ADD PUSH32 0x6F7665722061646472657373206C697175696469747920636170000000000000 DUP2 MSTORE POP SWAP1 PUSH2 0x27F9 JUMPI PUSH1 0x40 MLOAD PUSH3 0x461BCD PUSH1 0xE5 SHL DUP2 MSTORE PUSH1 0x4 ADD PUSH2 0x64F SWAP2 SWAP1 PUSH2 0x47B0 JUMP JUMPDEST POP PUSH1 0x40 DUP2 ADD MLOAD PUSH1 0x1 PUSH1 0x1 PUSH1 0x80 SHL SUB AND PUSH2 0x2812 DUP6 DUP5 PUSH2 0x2FCD JUMP JUMPDEST GT ISZERO PUSH1 0x40 MLOAD DUP1 PUSH1 0x40 ADD PUSH1 0x40 MSTORE DUP1 PUSH1 0x19 DUP2 MSTORE PUSH1 0x20 ADD PUSH32 0x6F76657220676C6F62616C206C69717569646974792063617000000000000000 DUP2 MSTORE POP SWAP1 PUSH2 0x2557 JUMPI PUSH1 0x40 MLOAD PUSH3 0x461BCD PUSH1 0xE5 SHL DUP2 MSTORE PUSH1 0x4 ADD PUSH2 0x64F SWAP2 SWAP1 PUSH2 0x47B0 JUMP JUMPDEST PUSH1 0x0 PUSH2 0x2877 DUP3 ISZERO ISZERO PUSH1 0x4 PUSH2 0x1641 JUMP JUMPDEST DUP3 PUSH2 0x2884 JUMPI POP PUSH1 0x0 PUSH2 0x5F8 JUMP JUMPDEST PUSH8 0xDE0B6B3A7640000 DUP4 DUP2 MUL SWAP1 PUSH2 0x28A7 SWAP1 DUP6 DUP4 DUP2 PUSH2 0x289E JUMPI INVALID JUMPDEST DIV EQ PUSH1 0x5 PUSH2 0x1641 JUMP JUMPDEST DUP3 PUSH1 0x1 DUP3 SUB DUP2 PUSH2 0x28B3 JUMPI INVALID JUMPDEST DIV PUSH1 0x1 ADD SWAP2 POP POP PUSH2 0x5F8 JUMP JUMPDEST PUSH1 0x0 DUP3 DUP3 MUL PUSH2 0x28D9 DUP5 ISZERO DUP1 PUSH2 0x1C15 JUMPI POP DUP4 DUP6 DUP4 DUP2 PUSH2 0x1C12 JUMPI INVALID JUMPDEST DUP1 PUSH2 0x28E8 JUMPI PUSH1 0x0 SWAP2 POP POP PUSH2 0x5F8 JUMP JUMPDEST PUSH8 0xDE0B6B3A7640000 PUSH1 0x0 NOT DUP3 ADD PUSH2 0x28B3 JUMP JUMPDEST POP PUSH1 0x0 SWAP1 JUMP JUMPDEST PUSH1 0x40 DUP1 MLOAD PUSH1 0x3 DUP1 DUP3 MSTORE PUSH1 0x80 DUP3 ADD SWAP1 SWAP3 MSTORE PUSH1 0x0 SWAP2 DUP3 SWAP2 SWAP1 PUSH1 0x20 DUP3 ADD PUSH1 0x60 DUP1 CALLDATASIZE DUP4 CALLDATACOPY ADD SWAP1 POP POP SWAP1 POP DUP4 DUP2 PUSH1 0x0 DUP2 MLOAD DUP2 LT PUSH2 0x2935 JUMPI INVALID JUMPDEST PUSH1 0x20 MUL PUSH1 0x20 ADD ADD DUP2 DUP2 MSTORE POP POP DUP3 DUP2 PUSH1 0x1 DUP2 MLOAD DUP2 LT PUSH2 0x294F JUMPI INVALID JUMPDEST PUSH1 0x20 MUL PUSH1 0x20 ADD ADD DUP2 DUP2 MSTORE POP POP PUSH1 0x0 DUP1 PUSH2 0x2970 DUP8 PUSH1 0x20 ADD MLOAD DUP9 PUSH1 0x40 ADD MLOAD PUSH2 0x3058 JUMP JUMPDEST SWAP2 POP SWAP2 POP PUSH2 0x297E DUP3 DUP3 PUSH2 0x3295 JUMP JUMPDEST DUP4 PUSH1 0x2 DUP2 MLOAD DUP2 LT PUSH2 0x298B JUMPI INVALID JUMPDEST PUSH1 0x20 MUL PUSH1 0x20 ADD ADD DUP2 DUP2 MSTORE POP POP PUSH2 0x2526 DUP4 PUSH2 0x333C JUMP JUMPDEST PUSH1 0x0 PUSH2 0x1F96 DUP5 DUP5 DUP8 PUSH1 0x60 ADD MLOAD DUP6 PUSH2 0x3376 JUMP JUMPDEST PUSH1 0x0 PUSH2 0x1F96 DUP5 DUP5 DUP8 PUSH1 0x60 ADD MLOAD DUP6 PUSH2 0x33D7 JUMP JUMPDEST PUSH1 0x40 DUP1 MLOAD PUSH1 0x3 DUP1 DUP3 MSTORE PUSH1 0x80 DUP3 ADD SWAP1 SWAP3 MSTORE PUSH1 0x60 SWAP2 PUSH1 0x20 DUP3 ADD DUP4 DUP1 CALLDATASIZE DUP4 CALLDATACOPY ADD SWAP1 POP POP SWAP1 POP PUSH2 0x2A30 PUSH32 0x0 PUSH32 0x0 PUSH2 0x3295 JUMP JUMPDEST DUP2 PUSH1 0x0 DUP2 MLOAD DUP2 LT PUSH2 0x2A3D JUMPI INVALID JUMPDEST PUSH1 0x20 MUL PUSH1 0x20 ADD ADD DUP2 DUP2 MSTORE POP POP PUSH2 0x2A93 PUSH32 0x0 PUSH32 0x0 PUSH2 0x3295 JUMP JUMPDEST DUP2 PUSH1 0x1 DUP2 MLOAD DUP2 LT PUSH2 0x2AA0 JUMPI INVALID JUMPDEST PUSH1 0x20 MUL PUSH1 0x20 ADD ADD DUP2 DUP2 MSTORE POP POP PUSH2 0x2AF6 PUSH32 0x0 PUSH32 0x0 PUSH2 0x3295 JUMP JUMPDEST DUP2 PUSH1 0x2 DUP2 MLOAD DUP2 LT PUSH2 0x2B03 JUMPI INVALID JUMPDEST PUSH1 0x20 MUL PUSH1 0x20 ADD ADD DUP2 DUP2 MSTORE POP POP SWAP1 JUMP JUMPDEST PUSH1 0x0 DUP2 DUP1 PUSH1 0x20 ADD SWAP1 MLOAD PUSH1 0x20 DUP2 LT ISZERO PUSH2 0x2B29 JUMPI PUSH1 0x0 DUP1 REVERT JUMPDEST POP MLOAD SWAP3 SWAP2 POP POP JUMP JUMPDEST PUSH1 0x60 DUP2 DUP1 PUSH1 0x20 ADD SWAP1 MLOAD PUSH1 0x40 DUP2 LT ISZERO PUSH2 0x2B48 JUMPI PUSH1 0x0 DUP1 REVERT JUMPDEST DUP2 MLOAD PUSH1 0x20 DUP4 ADD DUP1 MLOAD PUSH1 0x40 MLOAD SWAP3 SWAP5 SWAP3 SWAP4 DUP4 ADD SWAP3 SWAP2 SWAP1 DUP5 PUSH5 0x100000000 DUP3 GT ISZERO PUSH2 0x2B6F JUMPI PUSH1 0x0 DUP1 REVERT JUMPDEST SWAP1 DUP4 ADD SWAP1 PUSH1 0x20 DUP3 ADD DUP6 DUP2 GT ISZERO PUSH2 0x2B84 JUMPI PUSH1 0x0 DUP1 REVERT JUMPDEST DUP3 MLOAD DUP7 PUSH1 0x20 DUP3 MUL DUP4 ADD GT PUSH5 0x100000000 DUP3 GT OR ISZERO PUSH2 0x2BA1 JUMPI PUSH1 0x0 DUP1 REVERT JUMPDEST DUP3 MSTORE POP DUP2 MLOAD PUSH1 0x20 SWAP2 DUP3 ADD SWAP3 DUP3 ADD SWAP2 MUL DUP1 DUP4 DUP4 PUSH1 0x0 JUMPDEST DUP4 DUP2 LT ISZERO PUSH2 0x2BCE JUMPI DUP2 DUP2 ADD MLOAD DUP4 DUP3 ADD MSTORE PUSH1 0x20 ADD PUSH2 0x2BB6 JUMP JUMPDEST POP POP POP POP SWAP2 SWAP1 SWAP2 ADD PUSH1 0x40 MSTORE POP SWAP3 SWAP7 SWAP6 POP POP POP POP POP POP JUMP JUMPDEST PUSH2 0x2BF1 PUSH1 0x0 DUP4 DUP4 PUSH2 0x1AD1 JUMP JUMPDEST PUSH1 0x2 SLOAD PUSH2 0x2BFE SWAP1 DUP3 PUSH2 0x1875 JUMP JUMPDEST PUSH1 0x2 SSTORE PUSH1 0x1 PUSH1 0x1 PUSH1 0xA0 SHL SUB DUP3 AND PUSH1 0x0 SWAP1 DUP2 MSTORE PUSH1 0x20 DUP2 SWAP1 MSTORE PUSH1 0x40 SWAP1 KECCAK256 SLOAD PUSH2 0x2C24 SWAP1 DUP3 PUSH2 0x1875 JUMP JUMPDEST PUSH1 0x1 PUSH1 0x1 PUSH1 0xA0 SHL SUB DUP4 AND PUSH1 0x0 DUP2 DUP2 MSTORE PUSH1 0x20 DUP2 DUP2 MSTORE PUSH1 0x40 DUP1 DUP4 KECCAK256 SWAP5 SWAP1 SWAP5 SSTORE DUP4 MLOAD DUP6 DUP2 MSTORE SWAP4 MLOAD SWAP3 SWAP4 SWAP2 SWAP3 PUSH32 0xDDF252AD1BE2C89B69C2B068FC378DAA952BA7F163C4A11628F55A4DF523B3EF SWAP3 DUP2 SWAP1 SUB SWAP1 SWAP2 ADD SWAP1 LOG3 POP POP JUMP JUMPDEST PUSH1 0x0 PUSH2 0x2C8C PUSH4 0x1C74C917 PUSH1 0xE1 SHL PUSH2 0xD91 JUMP JUMPDEST DUP3 EQ DUP1 PUSH2 0x5F8 JUMPI POP PUSH2 0x2CA4 PUSH4 0x50DD6ED9 PUSH1 0xE0 SHL PUSH2 0xD91 JUMP JUMPDEST SWAP1 SWAP2 EQ SWAP2 SWAP1 POP JUMP JUMPDEST DUP2 PUSH2 0x969 JUMPI PUSH2 0x969 DUP2 PUSH2 0x3435 JUMP JUMPDEST PUSH1 0x0 DUP1 DUP1 DUP1 PUSH2 0x2CD3 DUP6 PUSH2 0x2CCD DUP2 DUP1 PUSH2 0x3445 JUMP JUMPDEST SWAP1 PUSH2 0x3445 JUMP JUMPDEST PUSH8 0xDE0B6B3A7640000 SUB SWAP4 POP PUSH1 0x0 DUP7 PUSH1 0x2 DUP2 MLOAD DUP2 LT PUSH2 0x2CEE JUMPI INVALID JUMPDEST PUSH1 0x20 MUL PUSH1 0x20 ADD ADD MLOAD DUP8 PUSH1 0x1 DUP2 MLOAD DUP2 LT PUSH2 0x2D03 JUMPI INVALID JUMPDEST PUSH1 0x20 MUL PUSH1 0x20 ADD ADD MLOAD DUP9 PUSH1 0x0 DUP2 MLOAD DUP2 LT PUSH2 0x2D18 JUMPI INVALID JUMPDEST PUSH1 0x20 MUL PUSH1 0x20 ADD ADD MLOAD ADD ADD SWAP1 POP PUSH2 0x2D3B DUP7 PUSH2 0x2CCD DUP9 DUP5 PUSH2 0x3445 SWAP1 SWAP2 SWAP1 PUSH4 0xFFFFFFFF AND JUMP JUMPDEST SWAP4 POP PUSH1 0x0 PUSH2 0x2D7A DUP9 PUSH1 0x0 DUP2 MLOAD DUP2 LT PUSH2 0x2D4F JUMPI INVALID JUMPDEST PUSH1 0x20 MUL PUSH1 0x20 ADD ADD MLOAD DUP10 PUSH1 0x2 DUP2 MLOAD DUP2 LT PUSH2 0x2D64 JUMPI INVALID JUMPDEST PUSH1 0x20 MUL PUSH1 0x20 ADD ADD MLOAD PUSH2 0x3445 SWAP1 SWAP2 SWAP1 PUSH4 0xFFFFFFFF AND JUMP JUMPDEST PUSH2 0x2D9F DUP10 PUSH1 0x2 DUP2 MLOAD DUP2 LT PUSH2 0x2D8A JUMPI INVALID JUMPDEST PUSH1 0x20 MUL PUSH1 0x20 ADD ADD MLOAD DUP11 PUSH1 0x1 DUP2 MLOAD DUP2 LT PUSH2 0x2D64 JUMPI INVALID JUMPDEST PUSH2 0x2DC4 DUP11 PUSH1 0x1 DUP2 MLOAD DUP2 LT PUSH2 0x2DAF JUMPI INVALID JUMPDEST PUSH1 0x20 MUL PUSH1 0x20 ADD ADD MLOAD DUP12 PUSH1 0x0 DUP2 MLOAD DUP2 LT PUSH2 0x2D64 JUMPI INVALID JUMPDEST ADD ADD SWAP1 POP PUSH2 0x2DD2 DUP2 DUP9 PUSH2 0x3445 JUMP JUMPDEST SWAP4 POP PUSH2 0x2DFC DUP9 PUSH1 0x2 DUP2 MLOAD DUP2 LT PUSH2 0x2DE4 JUMPI INVALID JUMPDEST PUSH1 0x20 MUL PUSH1 0x20 ADD ADD MLOAD PUSH2 0x2CCD DUP11 PUSH1 0x1 DUP2 MLOAD DUP2 LT PUSH2 0x2DAF JUMPI INVALID JUMPDEST SWAP3 POP POP POP SWAP3 SWAP6 SWAP2 SWAP5 POP SWAP3 POP JUMP JUMPDEST PUSH1 0x0 DUP1 PUSH2 0x2E18 DUP8 DUP8 DUP8 DUP8 PUSH2 0x345C JUMP JUMPDEST SWAP3 POP SWAP1 POP PUSH2 0x2E2A DUP7 DUP7 DUP7 DUP7 DUP6 DUP8 PUSH2 0x3501 JUMP JUMPDEST SWAP2 POP PUSH15 0x1ED09BEAD87C0378D8E6400000000 DUP3 GT ISZERO PUSH2 0x2E50 JUMPI PUSH2 0x2E50 PUSH1 0x0 PUSH2 0x169 PUSH2 0x2CAC JUMP JUMPDEST POP SWAP6 SWAP5 POP POP POP POP POP JUMP JUMPDEST PUSH1 0x0 DUP1 PUSH1 0x0 DUP1 PUSH1 0x0 DUP1 PUSH1 0x0 DUP1 PUSH2 0x2E6E PUSH2 0x35C5 JUMP JUMPDEST SWAP4 POP SWAP4 POP SWAP4 POP SWAP4 POP DUP4 PUSH1 0x0 EQ ISZERO PUSH2 0x2E93 JUMPI PUSH1 0x0 SWAP8 POP DUP8 SWAP7 POP SWAP1 SWAP5 POP SWAP3 POP PUSH2 0x2EBA SWAP2 POP POP JUMP JUMPDEST PUSH1 0x0 DUP1 PUSH2 0x2EAA DUP13 DUP13 PUSH2 0x2EA3 PUSH2 0x6C3 JUMP JUMPDEST DUP10 DUP10 PUSH2 0x3834 JUMP JUMPDEST SWAP1 SWAP11 POP SWAP9 POP SWAP3 SWAP7 POP SWAP1 SWAP5 POP POP POP POP POP JUMPDEST SWAP3 SWAP6 SWAP2 SWAP5 POP SWAP3 POP JUMP JUMPDEST DUP4 ISZERO PUSH2 0x2ED3 JUMPI PUSH2 0x2ED3 DUP3 DUP6 PUSH2 0x21A9 JUMP JUMPDEST DUP3 ISZERO PUSH2 0x2EE3 JUMPI PUSH2 0x2EE3 DUP2 DUP5 PUSH2 0x21A9 JUMP JUMPDEST POP POP POP POP JUMP JUMPDEST PUSH1 0x0 PUSH1 0x60 PUSH1 0x0 PUSH2 0x2EF8 DUP5 PUSH2 0x38CD JUMP JUMPDEST SWAP1 POP PUSH1 0x0 PUSH2 0x2F0E DUP7 DUP4 PUSH2 0x2F09 PUSH2 0x6C3 JUMP JUMPDEST PUSH2 0x38EF JUMP JUMPDEST SWAP2 SWAP7 SWAP2 SWAP6 POP SWAP1 SWAP4 POP POP POP POP JUMP JUMPDEST PUSH1 0x0 DUP3 DUP3 MUL DUP4 ISZERO DUP1 PUSH2 0x2F35 JUMPI POP DUP3 DUP5 DUP3 DUP2 PUSH2 0x2F32 JUMPI INVALID JUMPDEST DIV EQ JUMPDEST PUSH2 0x2F45 JUMPI PUSH2 0x2F45 PUSH1 0x0 PUSH1 0x3 PUSH2 0x1641 JUMP JUMPDEST DUP1 PUSH2 0x2F54 JUMPI PUSH1 0x0 SWAP2 POP POP PUSH2 0x5F8 JUMP JUMPDEST PUSH8 0xDE0B6B3A7640000 PUSH1 0x0 NOT DUP3 ADD JUMPDEST DIV PUSH1 0x1 ADD SWAP2 POP POP SWAP3 SWAP2 POP POP JUMP JUMPDEST PUSH1 0x0 DUP2 PUSH2 0x2F83 JUMPI PUSH2 0x2F83 PUSH1 0x0 PUSH1 0x4 PUSH2 0x1641 JUMP JUMPDEST DUP3 PUSH2 0x2F90 JUMPI POP PUSH1 0x0 PUSH2 0x5F8 JUMP JUMPDEST PUSH8 0xDE0B6B3A7640000 DUP4 DUP2 MUL SWAP1 DUP5 DUP3 DUP2 PUSH2 0x2FA6 JUMPI INVALID JUMPDEST DIV EQ PUSH2 0x2FC1 JUMPI PUSH2 0x2FC1 PUSH8 0xDE0B6B3A7640000 DUP6 DUP4 DUP2 PUSH2 0x289E JUMPI INVALID JUMPDEST DUP3 PUSH1 0x1 DUP3 SUB DUP2 PUSH2 0x2F63 JUMPI INVALID JUMPDEST PUSH1 0x0 DUP3 DUP3 ADD DUP4 DUP2 LT ISZERO PUSH2 0x1887 JUMPI PUSH2 0x1887 PUSH1 0x0 DUP1 PUSH2 0x1641 JUMP JUMPDEST PUSH1 0x0 DUP3 DUP3 MUL DUP4 ISZERO DUP1 PUSH2 0x2FFF JUMPI POP DUP3 DUP5 DUP3 DUP2 PUSH2 0x2FFC JUMPI INVALID JUMPDEST DIV EQ JUMPDEST PUSH2 0x264C JUMPI PUSH2 0x264C PUSH1 0x0 PUSH1 0x3 PUSH2 0x1641 JUMP JUMPDEST PUSH1 0x0 DUP3 DUP3 GT ISZERO PUSH2 0x13C4 JUMPI PUSH2 0x13C4 PUSH1 0x0 PUSH1 0x1 PUSH2 0x1641 JUMP JUMPDEST PUSH1 0x0 PUSH2 0x1887 DUP4 DUP4 PUSH1 0x1 PUSH2 0x2443 JUMP JUMPDEST PUSH1 0x0 PUSH1 0x60 PUSH1 0x0 PUSH2 0x3042 DUP5 PUSH2 0x38CD JUMP JUMPDEST SWAP1 POP PUSH1 0x0 PUSH2 0x2F0E DUP7 DUP4 PUSH2 0x3053 PUSH2 0x6C3 JUMP JUMPDEST PUSH2 0x398A JUMP JUMPDEST PUSH1 0x0 DUP1 DUP3 PUSH1 0x1 PUSH1 0x1 PUSH1 0xA0 SHL SUB AND DUP5 PUSH1 0x1 PUSH1 0x1 PUSH1 0xA0 SHL SUB AND GT ISZERO PUSH2 0x3079 JUMPI SWAP2 SWAP3 SWAP2 JUMPDEST PUSH32 0x0 PUSH1 0x1 PUSH1 0x1 PUSH1 0xA0 SHL SUB AND DUP5 PUSH1 0x1 PUSH1 0x1 PUSH1 0xA0 SHL SUB AND EQ ISZERO PUSH2 0x31C7 JUMPI PUSH32 0x0 PUSH1 0x1 PUSH1 0x1 PUSH1 0xA0 SHL SUB AND DUP4 PUSH1 0x1 PUSH1 0x1 PUSH1 0xA0 SHL SUB AND EQ ISZERO PUSH2 0x3137 JUMPI POP PUSH32 0x0 SWAP1 POP PUSH32 0x0 PUSH2 0x25A4 JUMP JUMPDEST PUSH32 0x0 PUSH1 0x1 PUSH1 0x1 PUSH1 0xA0 SHL SUB AND DUP4 PUSH1 0x1 PUSH1 0x1 PUSH1 0xA0 SHL SUB AND EQ PUSH2 0x317D JUMPI PUSH2 0x317D PUSH1 0x0 PUSH2 0x162 PUSH2 0x2CAC JUMP JUMPDEST POP PUSH32 0x0 SWAP1 POP PUSH32 0x0 PUSH2 0x25A4 JUMP JUMPDEST PUSH32 0x0 PUSH1 0x1 PUSH1 0x1 PUSH1 0xA0 SHL SUB AND DUP5 PUSH1 0x1 PUSH1 0x1 PUSH1 0xA0 SHL SUB AND EQ DUP1 ISZERO PUSH2 0x3239 JUMPI POP PUSH32 0x0 PUSH1 0x1 PUSH1 0x1 PUSH1 0xA0 SHL SUB AND DUP4 PUSH1 0x1 PUSH1 0x1 PUSH1 0xA0 SHL SUB AND EQ JUMPDEST PUSH2 0x324A JUMPI PUSH2 0x324A PUSH1 0x0 PUSH2 0x162 PUSH2 0x2CAC JUMP JUMPDEST POP PUSH32 0x0 SWAP4 PUSH32 0x0 SWAP4 POP SWAP2 POP POP JUMP JUMPDEST PUSH1 0x0 DUP1 PUSH1 0x0 PUSH2 0x32A2 PUSH2 0xE34 JUMP JUMPDEST PUSH1 0x1 PUSH1 0x1 PUSH1 0xA0 SHL SUB AND PUSH4 0xB05F8E48 PUSH2 0x32B8 PUSH2 0x7A1 JUMP JUMPDEST DUP8 PUSH1 0x40 MLOAD DUP4 PUSH4 0xFFFFFFFF AND PUSH1 0xE0 SHL DUP2 MSTORE PUSH1 0x4 ADD PUSH2 0x32D6 SWAP3 SWAP2 SWAP1 PUSH2 0x4799 JUMP JUMPDEST PUSH1 0x80 PUSH1 0x40 MLOAD DUP1 DUP4 SUB DUP2 DUP7 DUP1 EXTCODESIZE ISZERO DUP1 ISZERO PUSH2 0x32EE JUMPI PUSH1 0x0 DUP1 REVERT JUMPDEST POP GAS STATICCALL ISZERO DUP1 ISZERO PUSH2 0x3302 JUMPI RETURNDATASIZE PUSH1 0x0 DUP1 RETURNDATACOPY RETURNDATASIZE PUSH1 0x0 REVERT JUMPDEST POP POP POP POP PUSH1 0x40 MLOAD RETURNDATASIZE PUSH1 0x1F NOT PUSH1 0x1F DUP3 ADD AND DUP3 ADD DUP1 PUSH1 0x40 MSTORE POP DUP2 ADD SWAP1 PUSH2 0x3326 SWAP2 SWAP1 PUSH2 0x4633 JUMP JUMPDEST POP POP DUP2 DUP2 ADD SWAP5 POP SWAP1 SWAP3 POP SWAP1 POP PUSH2 0x1F96 DUP4 DUP6 PUSH2 0x2FE5 JUMP JUMPDEST PUSH1 0x0 PUSH32 0x0 DUP2 PUSH2 0x336A DUP5 DUP4 PUSH2 0x245D JUMP JUMPDEST SWAP1 POP PUSH2 0x25FD DUP2 DUP4 PUSH2 0x2FE5 JUMP JUMPDEST PUSH1 0x0 DUP1 PUSH2 0x338B DUP4 PUSH8 0xDE0B6B3A7640002 PUSH2 0x3A25 JUMP JUMPDEST DUP7 ADD SWAP1 POP PUSH1 0x0 PUSH2 0x33A3 DUP5 PUSH8 0xDE0B6B3A763FFFF PUSH2 0x3445 JUMP JUMPDEST DUP7 ADD SWAP1 POP PUSH2 0x33BE PUSH2 0x33B4 DUP4 DUP8 PUSH2 0x2FCD JUMP JUMPDEST PUSH2 0x9DA DUP4 DUP9 PUSH2 0x2FE5 JUMP JUMPDEST SWAP3 POP POP POP DUP4 DUP2 GT ISZERO PUSH2 0x25FD JUMPI PUSH2 0x25FD PUSH1 0x0 PUSH2 0x165 PUSH2 0x2CAC JUMP JUMPDEST PUSH1 0x0 DUP4 DUP4 GT ISZERO PUSH2 0x33EE JUMPI PUSH2 0x33EE PUSH1 0x0 PUSH2 0x165 PUSH2 0x2CAC JUMP JUMPDEST PUSH1 0x0 PUSH2 0x3402 DUP4 PUSH8 0xDE0B6B3A7640002 PUSH2 0x3A25 JUMP JUMPDEST DUP7 ADD SWAP1 POP PUSH1 0x0 PUSH2 0x341A DUP5 PUSH8 0xDE0B6B3A763FFFF PUSH2 0x3445 JUMP JUMPDEST DUP7 ADD SWAP1 POP PUSH2 0x2526 PUSH2 0x342B DUP3 DUP8 PUSH2 0x300F JUMP JUMPDEST PUSH2 0x25C3 DUP5 DUP9 PUSH2 0x2F1B JUMP JUMPDEST PUSH2 0x6C0 DUP2 PUSH3 0x23ACA9 PUSH1 0xE9 SHL PUSH2 0x3A39 JUMP JUMPDEST PUSH1 0x0 PUSH8 0xDE0B6B3A7640000 DUP4 DUP4 MUL JUMPDEST DIV SWAP4 SWAP3 POP POP POP JUMP JUMPDEST PUSH1 0x0 DUP1 DUP1 PUSH2 0x346D DUP8 PUSH1 0x3 DUP8 MUL PUSH2 0x3A25 JUMP JUMPDEST PUSH2 0x3477 DUP8 DUP1 PUSH2 0x3A25 JUMP JUMPDEST ADD SWAP1 POP PUSH1 0x0 PUSH2 0x3496 PUSH1 0x3 DUP10 MUL PUSH2 0x348E DUP5 PUSH1 0x5 PUSH2 0x3A9A JUMP JUMPDEST DUP10 ADD SWAP1 PUSH2 0x3C28 JUMP JUMPDEST SWAP1 POP PUSH8 0xDE0B6B3A7640000 DUP9 SWAP1 SUB PUSH2 0x34DF PUSH8 0x6F05B59D3B20000 DUP3 LT ISZERO PUSH2 0x34C5 JUMPI PUSH8 0x1BC16D674EC80000 PUSH2 0x34CF JUMP JUMPDEST PUSH8 0x14D1120D7B160000 JUMPDEST DUP4 SWAP1 PUSH1 0x1 PUSH1 0x1 PUSH1 0x40 SHL SUB AND PUSH2 0x3A25 JUMP JUMPDEST SWAP4 POP PUSH2 0x34F3 DUP3 PUSH8 0x120A871CC0020000 PUSH2 0x3A25 JUMP JUMPDEST SWAP5 POP POP POP POP SWAP5 POP SWAP5 SWAP3 POP POP POP JUMP JUMPDEST PUSH1 0x0 DUP1 DUP1 JUMPDEST PUSH1 0xFF DUP2 LT ISZERO PUSH2 0x35AD JUMPI PUSH1 0x0 DUP1 PUSH2 0x3520 DUP12 DUP12 DUP12 DUP12 DUP12 DUP12 PUSH2 0x3C6A JUMP JUMPDEST SWAP2 POP SWAP2 POP PUSH1 0x1 DUP3 GT PUSH2 0x3538 JUMPI DUP6 SWAP5 POP POP POP POP POP PUSH2 0x35BB JUMP JUMPDEST PUSH1 0x5 DUP4 LT DUP1 ISZERO SWAP1 PUSH2 0x3546 JUMPI POP DUP1 JUMPDEST ISZERO PUSH2 0x3557 JUMPI DUP6 SWAP5 POP POP POP POP POP PUSH2 0x35BB JUMP JUMPDEST PUSH1 0x5 DUP4 LT DUP1 ISZERO SWAP1 PUSH2 0x356B JUMPI POP PUSH1 0x8 DUP5 DIV DUP3 LT ISZERO JUMPDEST ISZERO PUSH2 0x357C JUMPI DUP6 SWAP5 POP POP POP POP POP PUSH2 0x35BB JUMP JUMPDEST DUP2 SWAP4 POP DUP1 ISZERO PUSH2 0x3596 JUMPI PUSH2 0x358F DUP7 DUP4 PUSH2 0x2FCD JUMP JUMPDEST SWAP6 POP PUSH2 0x35A3 JUMP JUMPDEST PUSH2 0x35A0 DUP7 DUP4 PUSH2 0x300F JUMP JUMPDEST SWAP6 POP JUMPDEST POP POP PUSH1 0x1 ADD PUSH2 0x3506 JUMP JUMPDEST POP PUSH2 0x35B9 PUSH2 0x160 PUSH2 0x3435 JUMP JUMPDEST POP JUMPDEST SWAP7 SWAP6 POP POP POP POP POP POP JUMP JUMPDEST PUSH1 0xD SLOAD PUSH1 0x40 MLOAD PUSH4 0xBD02D0F5 PUSH1 0xE0 SHL DUP2 MSTORE PUSH1 0x0 SWAP2 DUP3 SWAP2 DUP3 SWAP2 DUP3 SWAP2 PUSH1 0x1 PUSH1 0x1 PUSH1 0xA0 SHL SUB SWAP1 SWAP2 AND SWAP1 PUSH4 0xBD02D0F5 SWAP1 PUSH2 0x3617 SWAP1 PUSH22 0x50524F544F434F4C5F535741505F4645455F50455243 PUSH1 0x50 SHL SWAP1 PUSH1 0x4 ADD PUSH2 0x4777 JUMP JUMPDEST PUSH1 0x20 PUSH1 0x40 MLOAD DUP1 DUP4 SUB DUP2 DUP7 DUP1 EXTCODESIZE ISZERO DUP1 ISZERO PUSH2 0x362F JUMPI PUSH1 0x0 DUP1 REVERT JUMPDEST POP GAS STATICCALL ISZERO DUP1 ISZERO PUSH2 0x3643 JUMPI RETURNDATASIZE PUSH1 0x0 DUP1 RETURNDATACOPY RETURNDATASIZE PUSH1 0x0 REVERT JUMPDEST POP POP POP POP PUSH1 0x40 MLOAD RETURNDATASIZE PUSH1 0x1F NOT PUSH1 0x1F DUP3 ADD AND DUP3 ADD DUP1 PUSH1 0x40 MSTORE POP DUP2 ADD SWAP1 PUSH2 0x3667 SWAP2 SWAP1 PUSH2 0x461B JUMP JUMPDEST PUSH1 0xD SLOAD PUSH1 0x40 MLOAD PUSH4 0xBD02D0F5 PUSH1 0xE0 SHL DUP2 MSTORE PUSH1 0x1 PUSH1 0x1 PUSH1 0xA0 SHL SUB SWAP1 SWAP2 AND SWAP1 PUSH4 0xBD02D0F5 SWAP1 PUSH2 0x36B7 SWAP1 PUSH32 0x50524F544F434F4C5F4645455F4759524F5F504F5254494F4E00000000000000 SWAP1 PUSH1 0x4 ADD PUSH2 0x4777 JUMP JUMPDEST PUSH1 0x20 PUSH1 0x40 MLOAD DUP1 DUP4 SUB DUP2 DUP7 DUP1 EXTCODESIZE ISZERO DUP1 ISZERO PUSH2 0x36CF JUMPI PUSH1 0x0 DUP1 REVERT JUMPDEST POP GAS STATICCALL ISZERO DUP1 ISZERO PUSH2 0x36E3 JUMPI RETURNDATASIZE PUSH1 0x0 DUP1 RETURNDATACOPY RETURNDATASIZE PUSH1 0x0 REVERT JUMPDEST POP POP POP POP PUSH1 0x40 MLOAD RETURNDATASIZE PUSH1 0x1F NOT PUSH1 0x1F DUP3 ADD AND DUP3 ADD DUP1 PUSH1 0x40 MSTORE POP DUP2 ADD SWAP1 PUSH2 0x3707 SWAP2 SWAP1 PUSH2 0x461B JUMP JUMPDEST PUSH1 0xD SLOAD PUSH1 0x40 MLOAD PUSH4 0x21F8A721 PUSH1 0xE0 SHL DUP2 MSTORE PUSH1 0x1 PUSH1 0x1 PUSH1 0xA0 SHL SUB SWAP1 SWAP2 AND SWAP1 PUSH4 0x21F8A721 SWAP1 PUSH2 0x3747 SWAP1 PUSH13 0x4759524F5F5452454153555259 PUSH1 0x98 SHL SWAP1 PUSH1 0x4 ADD PUSH2 0x4777 JUMP JUMPDEST PUSH1 0x20 PUSH1 0x40 MLOAD DUP1 DUP4 SUB DUP2 DUP7 DUP1 EXTCODESIZE ISZERO DUP1 ISZERO PUSH2 0x375F JUMPI PUSH1 0x0 DUP1 REVERT JUMPDEST POP GAS STATICCALL ISZERO DUP1 ISZERO PUSH2 0x3773 JUMPI RETURNDATASIZE PUSH1 0x0 DUP1 RETURNDATACOPY RETURNDATASIZE PUSH1 0x0 REVERT JUMPDEST POP POP POP POP PUSH1 0x40 MLOAD RETURNDATASIZE PUSH1 0x1F NOT PUSH1 0x1F DUP3 ADD AND DUP3 ADD DUP1 PUSH1 0x40 MSTORE POP DUP2 ADD SWAP1 PUSH2 0x3797 SWAP2 SWAP1 PUSH2 0x41C1 JUMP JUMPDEST PUSH1 0xD SLOAD PUSH1 0x40 MLOAD PUSH4 0x21F8A721 PUSH1 0xE0 SHL DUP2 MSTORE PUSH1 0x1 PUSH1 0x1 PUSH1 0xA0 SHL SUB SWAP1 SWAP2 AND SWAP1 PUSH4 0x21F8A721 SWAP1 PUSH2 0x37D6 SWAP1 PUSH12 0x42414C5F5452454153555259 PUSH1 0xA0 SHL SWAP1 PUSH1 0x4 ADD PUSH2 0x4777 JUMP JUMPDEST PUSH1 0x20 PUSH1 0x40 MLOAD DUP1 DUP4 SUB DUP2 DUP7 DUP1 EXTCODESIZE ISZERO DUP1 ISZERO PUSH2 0x37EE JUMPI PUSH1 0x0 DUP1 REVERT JUMPDEST POP GAS STATICCALL ISZERO DUP1 ISZERO PUSH2 0x3802 JUMPI RETURNDATASIZE PUSH1 0x0 DUP1 RETURNDATACOPY RETURNDATASIZE PUSH1 0x0 REVERT JUMPDEST POP POP POP POP PUSH1 0x40 MLOAD RETURNDATASIZE PUSH1 0x1F NOT PUSH1 0x1F DUP3 ADD AND DUP3 ADD DUP1 PUSH1 0x40 MSTORE POP DUP2 ADD SWAP1 PUSH2 0x3826 SWAP2 SWAP1 PUSH2 0x41C1 JUMP JUMPDEST SWAP4 POP SWAP4 POP SWAP4 POP SWAP4 POP SWAP1 SWAP2 SWAP3 SWAP4 JUMP JUMPDEST PUSH1 0x0 DUP1 DUP7 DUP7 GT PUSH2 0x3849 JUMPI POP PUSH1 0x0 SWAP1 POP DUP1 PUSH2 0x2198 JUMP JUMPDEST PUSH1 0x0 PUSH2 0x3869 DUP6 PUSH2 0x3863 PUSH2 0x385C DUP11 DUP13 PUSH2 0x300F JUMP JUMPDEST DUP10 SWAP1 PUSH2 0x2FE5 JUMP JUMPDEST SWAP1 PUSH2 0x2FE5 JUMP JUMPDEST SWAP1 POP PUSH1 0x0 PUSH2 0x3881 PUSH2 0x387A DUP10 DUP12 PUSH2 0x300F JUMP JUMPDEST DUP8 SWAP1 PUSH2 0x2FE5 JUMP JUMPDEST SWAP1 POP PUSH1 0x0 PUSH2 0x388F DUP10 DUP4 PUSH2 0x300F JUMP JUMPDEST SWAP1 POP PUSH1 0x0 PUSH2 0x389D DUP5 DUP4 PUSH2 0x1C1C JUMP JUMPDEST SWAP1 POP PUSH1 0x0 PUSH2 0x38AB DUP9 DUP4 PUSH2 0x2FE5 JUMP JUMPDEST SWAP1 POP PUSH1 0x0 PUSH2 0x38B9 DUP4 DUP4 PUSH2 0x300F JUMP JUMPDEST SWAP2 SWAP14 SWAP2 SWAP13 POP SWAP1 SWAP11 POP POP POP POP POP POP POP POP POP POP POP JUMP JUMPDEST PUSH1 0x0 DUP2 DUP1 PUSH1 0x20 ADD SWAP1 MLOAD PUSH1 0x40 DUP2 LT ISZERO PUSH2 0x38E4 JUMPI PUSH1 0x0 DUP1 REVERT JUMPDEST POP PUSH1 0x20 ADD MLOAD SWAP3 SWAP2 POP POP JUMP JUMPDEST PUSH1 0x60 DUP4 MLOAD PUSH1 0x1 PUSH1 0x1 PUSH1 0x40 SHL SUB DUP2 GT DUP1 ISZERO PUSH2 0x3908 JUMPI PUSH1 0x0 DUP1 REVERT JUMPDEST POP PUSH1 0x40 MLOAD SWAP1 DUP1 DUP3 MSTORE DUP1 PUSH1 0x20 MUL PUSH1 0x20 ADD DUP3 ADD PUSH1 0x40 MSTORE DUP1 ISZERO PUSH2 0x3932 JUMPI DUP2 PUSH1 0x20 ADD PUSH1 0x20 DUP3 MUL DUP1 CALLDATASIZE DUP4 CALLDATACOPY ADD SWAP1 POP JUMPDEST POP SWAP1 POP PUSH1 0x0 JUMPDEST DUP5 MLOAD DUP2 LT ISZERO PUSH2 0x1015 JUMPI PUSH2 0x396B DUP4 PUSH2 0x9DA DUP7 DUP9 DUP6 DUP2 MLOAD DUP2 LT PUSH2 0x3955 JUMPI INVALID JUMPDEST PUSH1 0x20 MUL PUSH1 0x20 ADD ADD MLOAD PUSH2 0x2FE5 SWAP1 SWAP2 SWAP1 PUSH4 0xFFFFFFFF AND JUMP JUMPDEST DUP3 DUP3 DUP2 MLOAD DUP2 LT PUSH2 0x3977 JUMPI INVALID JUMPDEST PUSH1 0x20 SWAP1 DUP2 MUL SWAP2 SWAP1 SWAP2 ADD ADD MSTORE PUSH1 0x1 ADD PUSH2 0x3938 JUMP JUMPDEST PUSH1 0x60 DUP4 MLOAD PUSH1 0x1 PUSH1 0x1 PUSH1 0x40 SHL SUB DUP2 GT DUP1 ISZERO PUSH2 0x39A3 JUMPI PUSH1 0x0 DUP1 REVERT JUMPDEST POP PUSH1 0x40 MLOAD SWAP1 DUP1 DUP3 MSTORE DUP1 PUSH1 0x20 MUL PUSH1 0x20 ADD DUP3 ADD PUSH1 0x40 MSTORE DUP1 ISZERO PUSH2 0x39CD JUMPI DUP2 PUSH1 0x20 ADD PUSH1 0x20 DUP3 MUL DUP1 CALLDATASIZE DUP4 CALLDATACOPY ADD SWAP1 POP JUMPDEST POP SWAP1 POP PUSH1 0x0 JUMPDEST DUP5 MLOAD DUP2 LT ISZERO PUSH2 0x1015 JUMPI PUSH2 0x3A06 DUP4 PUSH2 0x25C3 DUP7 DUP9 DUP6 DUP2 MLOAD DUP2 LT PUSH2 0x39F0 JUMPI INVALID JUMPDEST PUSH1 0x20 MUL PUSH1 0x20 ADD ADD MLOAD PUSH2 0x2F1B SWAP1 SWAP2 SWAP1 PUSH4 0xFFFFFFFF AND JUMP JUMPDEST DUP3 DUP3 DUP2 MLOAD DUP2 LT PUSH2 0x3A12 JUMPI INVALID JUMPDEST PUSH1 0x20 SWAP1 DUP2 MUL SWAP2 SWAP1 SWAP2 ADD ADD MSTORE PUSH1 0x1 ADD PUSH2 0x39D3 JUMP JUMPDEST PUSH1 0x0 DUP3 DUP3 MUL DUP1 PUSH2 0x2F54 JUMPI PUSH1 0x0 SWAP2 POP POP PUSH2 0x5F8 JUMP JUMPDEST PUSH3 0x461BCD PUSH1 0xE5 SHL PUSH1 0x0 SWAP1 DUP2 MSTORE PUSH1 0x20 PUSH1 0x4 MSTORE PUSH1 0x7 PUSH1 0x24 MSTORE PUSH1 0xA DUP1 DUP5 DIV DUP2 DUP2 MOD PUSH1 0x30 SWAP1 DUP2 ADD PUSH1 0x8 SHL SWAP6 DUP4 SWAP1 MOD SWAP6 SWAP1 SWAP6 ADD SWAP1 DUP3 SWAP1 DIV SWAP2 DUP3 MOD DUP6 ADD PUSH1 0x10 SHL ADD PUSH1 0x23 PUSH4 0xFFFFFF00 PUSH1 0xE0 DUP7 SWAP1 SHR AND ADD PUSH1 0x18 SHL ADD SWAP1 SWAP4 ADD PUSH1 0xC8 SHL PUSH1 0x44 MSTORE PUSH1 0xE8 DUP3 SWAP1 SHR SWAP1 PUSH1 0x64 SWAP1 REVERT JUMPDEST PUSH1 0x0 DUP3 PUSH2 0x3AA9 JUMPI POP PUSH1 0x0 PUSH2 0x5F8 JUMP JUMPDEST PUSH1 0x0 PUSH2 0x3AB4 DUP5 PUSH2 0x3DF3 JUMP JUMPDEST SWAP1 POP PUSH1 0x2 DUP2 PUSH8 0xDE0B6B3A7640000 DUP7 MUL DUP2 PUSH2 0x3ACB JUMPI INVALID JUMPDEST DIV DUP3 ADD DUP2 PUSH2 0x3AD5 JUMPI INVALID JUMPDEST DIV SWAP1 POP PUSH1 0x2 DUP2 PUSH8 0xDE0B6B3A7640000 DUP7 MUL DUP2 PUSH2 0x3AED JUMPI INVALID JUMPDEST DIV DUP3 ADD DUP2 PUSH2 0x3AF7 JUMPI INVALID JUMPDEST DIV SWAP1 POP PUSH1 0x2 DUP2 PUSH8 0xDE0B6B3A7640000 DUP7 MUL DUP2 PUSH2 0x3B0F JUMPI INVALID JUMPDEST DIV DUP3 ADD DUP2 PUSH2 0x3B19 JUMPI INVALID JUMPDEST DIV SWAP1 POP PUSH1 0x2 DUP2 PUSH8 0xDE0B6B3A7640000 DUP7 MUL DUP2 PUSH2 0x3B31 JUMPI INVALID JUMPDEST DIV DUP3 ADD DUP2 PUSH2 0x3B3B JUMPI INVALID JUMPDEST DIV SWAP1 POP PUSH1 0x2 DUP2 PUSH8 0xDE0B6B3A7640000 DUP7 MUL DUP2 PUSH2 0x3B53 JUMPI INVALID JUMPDEST DIV DUP3 ADD DUP2 PUSH2 0x3B5D JUMPI INVALID JUMPDEST DIV SWAP1 POP PUSH1 0x2 DUP2 PUSH8 0xDE0B6B3A7640000 DUP7 MUL DUP2 PUSH2 0x3B75 JUMPI INVALID JUMPDEST DIV DUP3 ADD DUP2 PUSH2 0x3B7F JUMPI INVALID JUMPDEST DIV SWAP1 POP PUSH1 0x2 DUP2 PUSH8 0xDE0B6B3A7640000 DUP7 MUL DUP2 PUSH2 0x3B97 JUMPI INVALID JUMPDEST DIV DUP3 ADD DUP2 PUSH2 0x3BA1 JUMPI INVALID JUMPDEST DIV SWAP1 POP PUSH1 0x0 PUSH2 0x3BB0 DUP3 DUP1 PUSH2 0x2FE5 JUMP JUMPDEST SWAP1 POP PUSH2 0x3BC6 PUSH2 0x3BBF DUP4 DUP7 PUSH2 0x2F1B JUMP JUMPDEST DUP7 SWAP1 PUSH2 0x2FCD JUMP JUMPDEST DUP2 GT ISZERO DUP1 ISZERO PUSH2 0x3BE8 JUMPI POP PUSH2 0x3BE4 PUSH2 0x3BDD DUP4 DUP7 PUSH2 0x2F1B JUMP JUMPDEST DUP7 SWAP1 PUSH2 0x300F JUMP JUMPDEST DUP2 LT ISZERO JUMPDEST PUSH2 0x1015 JUMPI PUSH1 0x40 DUP1 MLOAD PUSH3 0x461BCD PUSH1 0xE5 SHL DUP2 MSTORE PUSH1 0x20 PUSH1 0x4 DUP3 ADD MSTORE PUSH1 0xC PUSH1 0x24 DUP3 ADD MSTORE PUSH12 0x17DCDC5C9D08119052531151 PUSH1 0xA2 SHL PUSH1 0x44 DUP3 ADD MSTORE SWAP1 MLOAD SWAP1 DUP2 SWAP1 SUB PUSH1 0x64 ADD SWAP1 REVERT JUMPDEST PUSH1 0x0 DUP2 PUSH2 0x3C3B JUMPI PUSH2 0x3C3B PUSH1 0x0 PUSH1 0x4 PUSH2 0x1641 JUMP JUMPDEST DUP3 PUSH2 0x3C48 JUMPI POP PUSH1 0x0 PUSH2 0x5F8 JUMP JUMPDEST DUP2 PUSH1 0x1 PUSH8 0xDE0B6B3A7640000 DUP6 MUL SUB DUP2 PUSH2 0x3C5E JUMPI INVALID JUMPDEST DIV PUSH1 0x1 ADD SWAP1 POP SWAP3 SWAP2 POP POP JUMP JUMPDEST PUSH1 0x0 DUP1 PUSH15 0x1ED09BEAD87C0378D8E6400000000 DUP4 GT ISZERO PUSH2 0x3C91 JUMPI PUSH2 0x3C91 PUSH1 0x0 PUSH2 0x169 PUSH2 0x2CAC JUMP JUMPDEST DUP4 DUP4 LT ISZERO PUSH2 0x3CA6 JUMPI PUSH2 0x3CA6 PUSH1 0x0 PUSH2 0x16B PUSH2 0x2CAC JUMP JUMPDEST PUSH1 0x0 PUSH2 0x3CB2 DUP5 DUP1 PUSH2 0x3445 JUMP JUMPDEST SWAP1 POP PUSH1 0x0 PUSH2 0x3CC3 PUSH1 0x3 DUP7 MUL DUP7 PUSH2 0x2FE5 JUMP JUMPDEST SWAP1 POP PUSH2 0x3CD5 DUP8 PUSH2 0x2CCD DUP2 DUP2 DUP6 DUP3 PUSH2 0x3445 JUMP JUMPDEST SWAP1 SUB DUP9 PUSH2 0x3CE2 DUP7 DUP13 PUSH2 0x3445 JUMP JUMPDEST PUSH1 0x2 MUL SWAP1 SWAP2 SUB SUB PUSH1 0x0 DUP1 PUSH13 0xFC6F7C40458122964D00000000 DUP8 GT PUSH2 0x3D60 JUMPI PUSH2 0x3D0A DUP5 DUP9 PUSH2 0x3445 JUMP JUMPDEST SWAP2 POP PUSH2 0x3D1C DUP10 PUSH2 0x2CCD DUP2 DUP2 DUP7 DUP3 PUSH2 0x3445 JUMP JUMPDEST SWAP1 SWAP2 SUB SWAP1 PUSH2 0x3D2A DUP3 DUP5 PUSH2 0x3FC5 JUMP JUMPDEST SWAP2 POP PUSH2 0x3D36 DUP5 DUP14 PUSH2 0x3445 JUMP JUMPDEST SWAP1 POP PUSH2 0x3D4E DUP4 PUSH2 0x3D46 DUP10 DUP15 PUSH2 0x3445 JUMP JUMPDEST DUP4 ADD SWAP1 PUSH2 0x3FC5 JUMP JUMPDEST SWAP1 POP PUSH2 0x3D5A DUP11 DUP5 PUSH2 0x3FC5 JUMP JUMPDEST ADD PUSH2 0x3DCB JUMP JUMPDEST PUSH2 0x3D6A DUP5 DUP9 PUSH2 0x3FEB JUMP JUMPDEST SWAP2 POP PUSH2 0x3D82 DUP10 PUSH2 0x3D7C DUP2 DUP2 DUP7 DUP3 PUSH2 0x3FEB JUMP JUMPDEST SWAP1 PUSH2 0x3FEB JUMP JUMPDEST SWAP1 SWAP2 SUB SWAP1 PUSH2 0x3D90 DUP3 DUP5 PUSH2 0x4016 JUMP JUMPDEST SWAP2 POP PUSH2 0x3D9C DUP5 DUP14 PUSH2 0x3FEB JUMP JUMPDEST SWAP1 POP PUSH2 0x3DA8 DUP12 DUP9 PUSH2 0x3445 JUMP JUMPDEST ADD PUSH2 0x3DBD DUP2 DUP5 PUSH5 0xE8D4A51000 PUSH3 0xF4240 PUSH2 0x4024 JUMP JUMPDEST SWAP1 POP PUSH2 0x3DC9 DUP11 DUP5 PUSH2 0x3FC5 JUMP JUMPDEST ADD JUMPDEST DUP2 DUP2 LT ISZERO SWAP5 POP DUP5 PUSH2 0x3DDE JUMPI DUP1 DUP3 SUB PUSH2 0x3DE2 JUMP JUMPDEST DUP2 DUP2 SUB JUMPDEST SWAP6 POP POP POP POP POP SWAP7 POP SWAP7 SWAP5 POP POP POP POP POP JUMP JUMPDEST PUSH1 0x0 PUSH8 0xDE0B6B3A7640000 DUP3 LT PUSH2 0x3E20 JUMPI PUSH8 0xDE0B6B3A7640000 PUSH2 0x3E18 DUP2 DUP5 DIV PUSH2 0x4061 JUMP JUMPDEST SHL SWAP1 POP PUSH2 0xA09 JUMP JUMPDEST PUSH1 0xA DUP3 GT PUSH2 0x3E33 JUMPI POP PUSH4 0xBC7C871C PUSH2 0xA09 JUMP JUMPDEST PUSH1 0x64 DUP3 GT PUSH2 0x3E47 JUMPI POP PUSH5 0x2540BE400 PUSH2 0xA09 JUMP JUMPDEST PUSH2 0x3E8 DUP3 GT PUSH2 0x3E5C JUMPI POP PUSH5 0x75CDD4719 PUSH2 0xA09 JUMP JUMPDEST PUSH2 0x2710 DUP3 GT PUSH2 0x3E71 JUMPI POP PUSH5 0x174876E800 PUSH2 0xA09 JUMP JUMPDEST PUSH3 0x186A0 DUP3 GT PUSH2 0x3E87 JUMPI POP PUSH5 0x49A0A4C700 PUSH2 0xA09 JUMP JUMPDEST PUSH3 0xF4240 DUP3 GT PUSH2 0x3E9D JUMPI POP PUSH5 0xE8D4A51000 PUSH2 0xA09 JUMP JUMPDEST PUSH3 0x989680 DUP3 GT PUSH2 0x3EB4 JUMPI POP PUSH6 0x2E0466FC608 PUSH2 0xA09 JUMP JUMPDEST PUSH4 0x5F5E100 DUP3 GT PUSH2 0x3ECC JUMPI POP PUSH6 0x9184E72A000 PUSH2 0xA09 JUMP JUMPDEST PUSH4 0x3B9ACA00 DUP3 GT PUSH2 0x3EE4 JUMPI POP PUSH6 0x1CC2C05DBC53 PUSH2 0xA09 JUMP JUMPDEST PUSH5 0x2540BE400 DUP3 GT PUSH2 0x3EFD JUMPI POP PUSH6 0x5AF3107A4000 PUSH2 0xA09 JUMP JUMPDEST PUSH5 0x174876E800 DUP3 GT PUSH2 0x3F17 JUMPI POP PUSH7 0x11F9B83A95B45 PUSH2 0xA09 JUMP JUMPDEST PUSH5 0xE8D4A51000 DUP3 GT PUSH2 0x3F31 JUMPI POP PUSH7 0x38D7EA4C68000 PUSH2 0xA09 JUMP JUMPDEST PUSH6 0x9184E72A000 DUP3 GT PUSH2 0x3F4C JUMPI POP PUSH7 0xB3C13249D90BB PUSH2 0xA09 JUMP JUMPDEST PUSH6 0x5AF3107A4000 DUP3 GT PUSH2 0x3F67 JUMPI POP PUSH7 0x2386F26FC10000 PUSH2 0xA09 JUMP JUMPDEST PUSH7 0x38D7EA4C68000 DUP3 GT PUSH2 0x3F83 JUMPI POP PUSH7 0x7058BF6E27A751 PUSH2 0xA09 JUMP JUMPDEST PUSH7 0x2386F26FC10000 DUP3 GT PUSH2 0x3FA0 JUMPI POP PUSH8 0x16345785D8A0000 PUSH2 0xA09 JUMP JUMPDEST PUSH8 0x16345785D8A0000 DUP3 GT PUSH2 0x3FBE JUMPI POP PUSH8 0x463777A4D8C892D PUSH2 0xA09 JUMP JUMPDEST POP DUP1 PUSH2 0xA09 JUMP JUMPDEST PUSH1 0x0 DUP2 PUSH2 0x3FD8 JUMPI PUSH2 0x3FD8 PUSH1 0x0 PUSH1 0x4 PUSH2 0x1641 JUMP JUMPDEST DUP2 PUSH8 0xDE0B6B3A7640000 DUP5 MUL DUP2 PUSH2 0x3454 JUMPI INVALID JUMPDEST PUSH1 0x0 PUSH2 0x4001 PUSH8 0xDE0B6B3A7640000 DUP5 MOD DUP4 PUSH2 0x3445 JUMP JUMPDEST DUP3 PUSH8 0xDE0B6B3A7640000 DUP6 DIV MUL ADD SWAP4 SWAP3 POP POP POP JUMP JUMPDEST PUSH1 0x0 PUSH2 0x1887 DUP4 DUP4 PUSH4 0x3B9ACA00 DUP1 JUMPDEST PUSH1 0x0 DUP4 PUSH2 0x4037 JUMPI PUSH2 0x4037 PUSH1 0x0 PUSH1 0x4 PUSH2 0x1641 JUMP JUMPDEST PUSH1 0x0 DUP3 PUSH1 0x1 DUP7 SUB DUP2 PUSH2 0x4045 JUMPI INVALID JUMPDEST DIV PUSH1 0x1 ADD SWAP1 POP DUP1 DUP5 DUP8 MUL DUP2 PUSH2 0x4056 JUMPI INVALID JUMPDEST DIV SWAP7 SWAP6 POP POP POP POP POP POP JUMP JUMPDEST PUSH1 0x0 PUSH1 0x1 PUSH1 0x80 SHL DUP3 LT PUSH2 0x4079 JUMPI PUSH1 0x80 SWAP2 SWAP1 SWAP2 SHR SWAP1 PUSH1 0x40 ADD JUMPDEST PUSH9 0x10000000000000000 DUP3 LT PUSH2 0x4094 JUMPI PUSH1 0x40 SWAP2 SWAP1 SWAP2 SHR SWAP1 PUSH1 0x20 ADD JUMPDEST PUSH5 0x100000000 DUP3 LT PUSH2 0x40AB JUMPI PUSH1 0x20 SWAP2 SWAP1 SWAP2 SHR SWAP1 PUSH1 0x10 ADD JUMPDEST PUSH3 0x10000 DUP3 LT PUSH2 0x40C0 JUMPI PUSH1 0x10 SWAP2 SWAP1 SWAP2 SHR SWAP1 PUSH1 0x8 ADD JUMPDEST PUSH2 0x100 DUP3 LT PUSH2 0x40D4 JUMPI PUSH1 0x8 SWAP2 SWAP1 SWAP2 SHR SWAP1 PUSH1 0x4 ADD JUMPDEST PUSH1 0x10 DUP3 LT PUSH2 0x40E7 JUMPI PUSH1 0x4 SWAP2 SWAP1 SWAP2 SHR SWAP1 PUSH1 0x2 ADD JUMPDEST PUSH1 0x4 DUP3 LT PUSH2 0xA09 JUMPI PUSH1 0x1 ADD SWAP2 SWAP1 POP JUMP JUMPDEST PUSH1 0x40 DUP1 MLOAD PUSH1 0x60 DUP2 ADD DUP3 MSTORE PUSH1 0x0 DUP1 DUP3 MSTORE PUSH1 0x20 DUP3 ADD DUP2 SWAP1 MSTORE SWAP2 DUP2 ADD SWAP2 SWAP1 SWAP2 MSTORE SWAP1 JUMP JUMPDEST DUP1 CALLDATALOAD PUSH2 0xA09 DUP2 PUSH2 0x486D JUMP JUMPDEST DUP1 CALLDATALOAD DUP1 ISZERO ISZERO DUP2 EQ PUSH2 0xA09 JUMPI PUSH1 0x0 DUP1 REVERT JUMPDEST PUSH1 0x0 DUP3 PUSH1 0x1F DUP4 ADD SLT PUSH2 0x4142 JUMPI DUP1 DUP2 REVERT JUMPDEST DUP2 CALLDATALOAD PUSH1 0x1 PUSH1 0x1 PUSH1 0x40 SHL SUB DUP2 GT ISZERO PUSH2 0x4155 JUMPI INVALID JUMPDEST PUSH2 0x4168 PUSH1 0x1F DUP3 ADD PUSH1 0x1F NOT AND PUSH1 0x20 ADD PUSH2 0x484A JUMP JUMPDEST DUP2 DUP2 MSTORE DUP5 PUSH1 0x20 DUP4 DUP7 ADD ADD GT ISZERO PUSH2 0x417C JUMPI DUP3 DUP4 REVERT JUMPDEST DUP2 PUSH1 0x20 DUP6 ADD PUSH1 0x20 DUP4 ADD CALLDATACOPY SWAP1 DUP2 ADD PUSH1 0x20 ADD SWAP2 SWAP1 SWAP2 MSTORE SWAP3 SWAP2 POP POP JUMP JUMPDEST DUP1 CALLDATALOAD PUSH1 0x2 DUP2 LT PUSH2 0xA09 JUMPI PUSH1 0x0 DUP1 REVERT JUMPDEST PUSH1 0x0 PUSH1 0x20 DUP3 DUP5 SUB SLT ISZERO PUSH2 0x41B6 JUMPI DUP1 DUP2 REVERT JUMPDEST DUP2 CALLDATALOAD PUSH2 0x1887 DUP2 PUSH2 0x486D JUMP JUMPDEST PUSH1 0x0 PUSH1 0x20 DUP3 DUP5 SUB SLT ISZERO PUSH2 0x41D2 JUMPI DUP1 DUP2 REVERT JUMPDEST DUP2 MLOAD PUSH2 0x1887 DUP2 PUSH2 0x486D JUMP JUMPDEST PUSH1 0x0 DUP1 PUSH1 0x40 DUP4 DUP6 SUB SLT ISZERO PUSH2 0x41EF JUMPI DUP1 DUP2 REVERT JUMPDEST DUP3 CALLDATALOAD PUSH2 0x41FA DUP2 PUSH2 0x486D JUMP JUMPDEST SWAP2 POP PUSH1 0x20 DUP4 ADD CALLDATALOAD PUSH2 0x420A DUP2 PUSH2 0x486D JUMP JUMPDEST DUP1 SWAP2 POP POP SWAP3 POP SWAP3 SWAP1 POP JUMP JUMPDEST PUSH1 0x0 DUP1 PUSH1 0x0 PUSH1 0x60 DUP5 DUP7 SUB SLT ISZERO PUSH2 0x4229 JUMPI DUP1 DUP2 REVERT JUMPDEST DUP4 CALLDATALOAD PUSH2 0x4234 DUP2 PUSH2 0x486D JUMP JUMPDEST SWAP3 POP PUSH1 0x20 DUP5 ADD CALLDATALOAD PUSH2 0x4244 DUP2 PUSH2 0x486D JUMP JUMPDEST SWAP3 SWAP6 SWAP3 SWAP5 POP POP POP PUSH1 0x40 SWAP2 SWAP1 SWAP2 ADD CALLDATALOAD SWAP1 JUMP JUMPDEST PUSH1 0x0 DUP1 PUSH1 0x0 DUP1 PUSH1 0x0 DUP1 PUSH1 0x0 PUSH1 0xE0 DUP9 DUP11 SUB SLT ISZERO PUSH2 0x426F JUMPI DUP3 DUP4 REVERT JUMPDEST DUP8 CALLDATALOAD PUSH2 0x427A DUP2 PUSH2 0x486D JUMP JUMPDEST SWAP7 POP PUSH1 0x20 DUP9 ADD CALLDATALOAD PUSH2 0x428A DUP2 PUSH2 0x486D JUMP JUMPDEST SWAP6 POP PUSH1 0x40 DUP9 ADD CALLDATALOAD SWAP5 POP PUSH1 0x60 DUP9 ADD CALLDATALOAD SWAP4 POP PUSH1 0x80 DUP9 ADD CALLDATALOAD PUSH1 0xFF DUP2 AND DUP2 EQ PUSH2 0x42AD JUMPI DUP4 DUP5 REVERT JUMPDEST SWAP7 SWAP10 SWAP6 SWAP9 POP SWAP4 SWAP7 SWAP3 SWAP6 SWAP5 PUSH1 0xA0 DUP5 ADD CALLDATALOAD SWAP5 POP PUSH1 0xC0 SWAP1 SWAP4 ADD CALLDATALOAD SWAP3 SWAP2 POP POP JUMP JUMPDEST PUSH1 0x0 DUP1 PUSH1 0x40 DUP4 DUP6 SUB SLT ISZERO PUSH2 0x42DC JUMPI DUP2 DUP3 REVERT JUMPDEST DUP3 CALLDATALOAD PUSH2 0x42E7 DUP2 PUSH2 0x486D JUMP JUMPDEST SWAP5 PUSH1 0x20 SWAP4 SWAP1 SWAP4 ADD CALLDATALOAD SWAP4 POP POP POP JUMP JUMPDEST PUSH1 0x0 PUSH1 0x20 DUP3 DUP5 SUB SLT ISZERO PUSH2 0x4306 JUMPI DUP1 DUP2 REVERT JUMPDEST PUSH2 0x1887 DUP3 PUSH2 0x4122 JUMP JUMPDEST PUSH1 0x0 DUP1 PUSH1 0x0 DUP1 PUSH1 0x0 DUP1 PUSH1 0x0 PUSH1 0xE0 DUP9 DUP11 SUB SLT ISZERO PUSH2 0x4329 JUMPI DUP1 DUP2 REVERT JUMPDEST DUP8 CALLDATALOAD SWAP7 POP PUSH1 0x20 DUP9 ADD CALLDATALOAD PUSH2 0x433B DUP2 PUSH2 0x486D JUMP JUMPDEST SWAP6 POP PUSH1 0x40 DUP9 ADD CALLDATALOAD PUSH2 0x434B DUP2 PUSH2 0x486D JUMP JUMPDEST SWAP5 POP PUSH1 0x60 DUP9 ADD CALLDATALOAD PUSH1 0x1 PUSH1 0x1 PUSH1 0x40 SHL SUB DUP1 DUP3 GT ISZERO PUSH2 0x4366 JUMPI DUP3 DUP4 REVERT JUMPDEST DUP2 DUP11 ADD SWAP2 POP DUP11 PUSH1 0x1F DUP4 ADD SLT PUSH2 0x4379 JUMPI DUP3 DUP4 REVERT JUMPDEST DUP2 CALLDATALOAD DUP2 DUP2 GT ISZERO PUSH2 0x4385 JUMPI INVALID JUMPDEST PUSH1 0x20 DUP2 MUL PUSH2 0x4395 PUSH1 0x20 DUP3 ADD PUSH2 0x484A JUMP JUMPDEST DUP1 DUP4 DUP3 MSTORE PUSH1 0x20 DUP3 ADD SWAP2 POP PUSH1 0x20 DUP7 ADD DUP16 PUSH1 0x20 DUP6 DUP10 ADD ADD GT ISZERO PUSH2 0x43B4 JUMPI DUP8 DUP9 REVERT JUMPDEST DUP8 SWAP7 POP JUMPDEST DUP5 DUP8 LT ISZERO PUSH2 0x43D7 JUMPI DUP1 CALLDATALOAD DUP4 MSTORE PUSH1 0x1 SWAP7 SWAP1 SWAP7 ADD SWAP6 PUSH1 0x20 SWAP3 DUP4 ADD SWAP3 ADD PUSH2 0x43B8 JUMP JUMPDEST POP SWAP9 POP POP POP POP PUSH1 0x80 DUP11 ADD CALLDATALOAD SWAP5 POP PUSH1 0xA0 DUP11 ADD CALLDATALOAD SWAP4 POP PUSH1 0xC0 DUP11 ADD CALLDATALOAD SWAP2 POP DUP1 DUP3 GT ISZERO PUSH2 0x43FE JUMPI DUP3 DUP4 REVERT JUMPDEST POP PUSH2 0x440B DUP11 DUP3 DUP12 ADD PUSH2 0x4132 JUMP JUMPDEST SWAP2 POP POP SWAP3 SWAP6 SWAP9 SWAP2 SWAP5 SWAP8 POP SWAP3 SWAP6 POP JUMP JUMPDEST PUSH1 0x0 PUSH1 0x20 DUP3 DUP5 SUB SLT ISZERO PUSH2 0x442B JUMPI DUP1 DUP2 REVERT JUMPDEST DUP2 CALLDATALOAD PUSH1 0x1 PUSH1 0x1 PUSH1 0xE0 SHL SUB NOT DUP2 AND DUP2 EQ PUSH2 0x1887 JUMPI DUP2 DUP3 REVERT JUMPDEST PUSH1 0x0 DUP1 PUSH1 0x40 DUP4 DUP6 SUB SLT ISZERO PUSH2 0x4454 JUMPI DUP2 DUP3 REVERT JUMPDEST DUP3 CALLDATALOAD PUSH2 0x445F DUP2 PUSH2 0x486D JUMP JUMPDEST SWAP2 POP PUSH1 0x20 DUP4 ADD CALLDATALOAD PUSH1 0x1 PUSH1 0x1 PUSH1 0x40 SHL SUB DUP2 GT ISZERO PUSH2 0x4479 JUMPI DUP2 DUP3 REVERT JUMPDEST PUSH2 0x4485 DUP6 DUP3 DUP7 ADD PUSH2 0x4132 JUMP JUMPDEST SWAP2 POP POP SWAP3 POP SWAP3 SWAP1 POP JUMP JUMPDEST PUSH1 0x0 PUSH1 0x60 DUP3 DUP5 SUB SLT ISZERO PUSH2 0x44A0 JUMPI DUP1 DUP2 REVERT JUMPDEST PUSH1 0x40 MLOAD PUSH1 0x60 DUP2 ADD DUP2 DUP2 LT PUSH1 0x1 PUSH1 0x1 PUSH1 0x40 SHL SUB DUP3 GT OR ISZERO PUSH2 0x44BC JUMPI INVALID JUMPDEST PUSH1 0x40 MSTORE PUSH2 0x44C8 DUP4 PUSH2 0x4122 JUMP JUMPDEST DUP2 MSTORE PUSH1 0x20 DUP4 ADD CALLDATALOAD PUSH1 0x1 PUSH1 0x1 PUSH1 0x78 SHL SUB DUP2 AND DUP2 EQ PUSH2 0x44E3 JUMPI DUP3 DUP4 REVERT JUMPDEST PUSH1 0x20 DUP3 ADD MSTORE PUSH1 0x40 DUP4 ADD CALLDATALOAD PUSH1 0x1 PUSH1 0x1 PUSH1 0x80 SHL SUB DUP2 AND DUP2 EQ PUSH2 0x4501 JUMPI DUP3 DUP4 REVERT JUMPDEST PUSH1 0x40 DUP3 ADD MSTORE SWAP4 SWAP3 POP POP POP JUMP JUMPDEST PUSH1 0x0 DUP1 PUSH1 0x0 PUSH1 0x60 DUP5 DUP7 SUB SLT ISZERO PUSH2 0x4521 JUMPI DUP1 DUP2 REVERT JUMPDEST DUP4 CALLDATALOAD PUSH1 0x1 PUSH1 0x1 PUSH1 0x40 SHL SUB DUP1 DUP3 GT ISZERO PUSH2 0x4537 JUMPI DUP3 DUP4 REVERT JUMPDEST DUP2 DUP7 ADD SWAP2 POP PUSH2 0x120 DUP1 DUP4 DUP10 SUB SLT ISZERO PUSH2 0x454D JUMPI DUP4 DUP5 REVERT JUMPDEST PUSH2 0x4556 DUP2 PUSH2 0x484A JUMP JUMPDEST SWAP1 POP PUSH2 0x4561 DUP4 PUSH2 0x4196 JUMP JUMPDEST DUP2 MSTORE PUSH2 0x456F PUSH1 0x20 DUP5 ADD PUSH2 0x4117 JUMP JUMPDEST PUSH1 0x20 DUP3 ADD MSTORE PUSH2 0x4580 PUSH1 0x40 DUP5 ADD PUSH2 0x4117 JUMP JUMPDEST PUSH1 0x40 DUP3 ADD MSTORE PUSH1 0x60 DUP4 ADD CALLDATALOAD PUSH1 0x60 DUP3 ADD MSTORE PUSH1 0x80 DUP4 ADD CALLDATALOAD PUSH1 0x80 DUP3 ADD MSTORE PUSH1 0xA0 DUP4 ADD CALLDATALOAD PUSH1 0xA0 DUP3 ADD MSTORE PUSH2 0x45AF PUSH1 0xC0 DUP5 ADD PUSH2 0x4117 JUMP JUMPDEST PUSH1 0xC0 DUP3 ADD MSTORE PUSH2 0x45C0 PUSH1 0xE0 DUP5 ADD PUSH2 0x4117 JUMP JUMPDEST PUSH1 0xE0 DUP3 ADD MSTORE PUSH2 0x100 DUP1 DUP5 ADD CALLDATALOAD DUP4 DUP2 GT ISZERO PUSH2 0x45D8 JUMPI DUP6 DUP7 REVERT JUMPDEST PUSH2 0x45E4 DUP11 DUP3 DUP8 ADD PUSH2 0x4132 JUMP JUMPDEST SWAP2 DUP4 ADD SWAP2 SWAP1 SWAP2 MSTORE POP SWAP8 PUSH1 0x20 DUP8 ADD CALLDATALOAD SWAP8 POP PUSH1 0x40 SWAP1 SWAP7 ADD CALLDATALOAD SWAP6 SWAP5 POP POP POP POP POP JUMP JUMPDEST PUSH1 0x0 PUSH1 0x20 DUP3 DUP5 SUB SLT ISZERO PUSH2 0x4614 JUMPI DUP1 DUP2 REVERT JUMPDEST POP CALLDATALOAD SWAP2 SWAP1 POP JUMP JUMPDEST PUSH1 0x0 PUSH1 0x20 DUP3 DUP5 SUB SLT ISZERO PUSH2 0x462C JUMPI DUP1 DUP2 REVERT JUMPDEST POP MLOAD SWAP2 SWAP1 POP JUMP JUMPDEST PUSH1 0x0 DUP1 PUSH1 0x0 DUP1 PUSH1 0x80 DUP6 DUP8 SUB SLT ISZERO PUSH2 0x4648 JUMPI DUP2 DUP3 REVERT JUMPDEST DUP5 MLOAD SWAP4 POP PUSH1 0x20 DUP6 ADD MLOAD SWAP3 POP PUSH1 0x40 DUP6 ADD MLOAD SWAP2 POP PUSH1 0x60 DUP6 ADD MLOAD PUSH2 0x4668 DUP2 PUSH2 0x486D JUMP JUMPDEST SWAP4 SWAP7 SWAP3 SWAP6 POP SWAP1 SWAP4 POP POP JUMP JUMPDEST PUSH1 0x0 DUP2 MLOAD DUP1 DUP5 MSTORE PUSH1 0x20 DUP1 DUP6 ADD SWAP5 POP DUP1 DUP5 ADD DUP4 JUMPDEST DUP4 DUP2 LT ISZERO PUSH2 0x46A2 JUMPI DUP2 MLOAD DUP8 MSTORE SWAP6 DUP3 ADD SWAP6 SWAP1 DUP3 ADD SWAP1 PUSH1 0x1 ADD PUSH2 0x4686 JUMP JUMPDEST POP SWAP5 SWAP6 SWAP5 POP POP POP POP POP JUMP JUMPDEST PUSH1 0x0 DUP2 MLOAD DUP1 DUP5 MSTORE DUP2 JUMPDEST DUP2 DUP2 LT ISZERO PUSH2 0x46D2 JUMPI PUSH1 0x20 DUP2 DUP6 ADD DUP2 ADD MLOAD DUP7 DUP4 ADD DUP3 ADD MSTORE ADD PUSH2 0x46B6 JUMP JUMPDEST DUP2 DUP2 GT ISZERO PUSH2 0x46E3 JUMPI DUP3 PUSH1 0x20 DUP4 DUP8 ADD ADD MSTORE JUMPDEST POP PUSH1 0x1F ADD PUSH1 0x1F NOT AND SWAP3 SWAP1 SWAP3 ADD PUSH1 0x20 ADD SWAP3 SWAP2 POP POP JUMP JUMPDEST PUSH1 0x0 DUP3 DUP5 DUP4 CALLDATACOPY SWAP2 ADD SWAP1 DUP2 MSTORE SWAP2 SWAP1 POP JUMP JUMPDEST PUSH1 0x1 PUSH1 0x1 PUSH1 0xA0 SHL SUB SWAP2 SWAP1 SWAP2 AND DUP2 MSTORE PUSH1 0x20 ADD SWAP1 JUMP JUMPDEST PUSH1 0x0 PUSH1 0x20 DUP3 MSTORE PUSH2 0x1887 PUSH1 0x20 DUP4 ADD DUP5 PUSH2 0x4673 JUMP JUMPDEST PUSH1 0x0 PUSH1 0x40 DUP3 MSTORE PUSH2 0x4742 PUSH1 0x40 DUP4 ADD DUP6 PUSH2 0x4673 JUMP JUMPDEST DUP3 DUP2 SUB PUSH1 0x20 DUP5 ADD MSTORE PUSH2 0x1F96 DUP2 DUP6 PUSH2 0x4673 JUMP JUMPDEST SWAP1 ISZERO ISZERO DUP2 MSTORE PUSH1 0x20 ADD SWAP1 JUMP JUMPDEST SWAP3 ISZERO ISZERO DUP4 MSTORE PUSH1 0x20 DUP4 ADD SWAP2 SWAP1 SWAP2 MSTORE PUSH1 0x40 DUP3 ADD MSTORE PUSH1 0x60 ADD SWAP1 JUMP JUMPDEST SWAP1 DUP2 MSTORE PUSH1 0x20 ADD SWAP1 JUMP JUMPDEST PUSH1 0x0 DUP4 DUP3 MSTORE PUSH1 0x40 PUSH1 0x20 DUP4 ADD MSTORE PUSH2 0x25FD PUSH1 0x40 DUP4 ADD DUP5 PUSH2 0x46AD JUMP JUMPDEST SWAP2 DUP3 MSTORE PUSH1 0x1 PUSH1 0x1 PUSH1 0xA0 SHL SUB AND PUSH1 0x20 DUP3 ADD MSTORE PUSH1 0x40 ADD SWAP1 JUMP JUMPDEST PUSH1 0x0 PUSH1 0x20 DUP3 MSTORE PUSH2 0x1887 PUSH1 0x20 DUP4 ADD DUP5 PUSH2 0x46AD JUMP JUMPDEST DUP2 MLOAD ISZERO ISZERO DUP2 MSTORE PUSH1 0x20 DUP1 DUP4 ADD MLOAD PUSH1 0x1 PUSH1 0x1 PUSH1 0x78 SHL SUB AND SWAP1 DUP3 ADD MSTORE PUSH1 0x40 SWAP2 DUP3 ADD MLOAD PUSH1 0x1 PUSH1 0x1 PUSH1 0x80 SHL SUB AND SWAP2 DUP2 ADD SWAP2 SWAP1 SWAP2 MSTORE PUSH1 0x60 ADD SWAP1 JUMP JUMPDEST SWAP1 SLOAD PUSH1 0xFF DUP2 AND ISZERO ISZERO DUP3 MSTORE PUSH1 0x8 DUP2 SWAP1 SHR PUSH1 0x1 PUSH1 0x1 PUSH1 0x78 SHL SUB AND PUSH1 0x20 DUP4 ADD MSTORE PUSH1 0x80 SHR PUSH1 0x40 DUP3 ADD MSTORE PUSH1 0x60 ADD SWAP1 JUMP JUMPDEST PUSH1 0x0 DUP4 DUP3 MSTORE PUSH1 0x40 PUSH1 0x20 DUP4 ADD MSTORE PUSH2 0x25FD PUSH1 0x40 DUP4 ADD DUP5 PUSH2 0x4673 JUMP JUMPDEST PUSH1 0xFF SWAP2 SWAP1 SWAP2 AND DUP2 MSTORE PUSH1 0x20 ADD SWAP1 JUMP JUMPDEST PUSH1 0x40 MLOAD DUP2 DUP2 ADD PUSH1 0x1 PUSH1 0x1 PUSH1 0x40 SHL SUB DUP2 GT DUP3 DUP3 LT OR ISZERO PUSH2 0x4865 JUMPI INVALID JUMPDEST PUSH1 0x40 MSTORE SWAP2 SWAP1 POP JUMP JUMPDEST PUSH1 0x1 PUSH1 0x1 PUSH1 0xA0 SHL SUB DUP2 AND DUP2 EQ PUSH2 0x6C0 JUMPI PUSH1 0x0 DUP1 REVERT INVALID LOG2 PUSH5 0x6970667358 0x22 SLT KECCAK256 GASPRICE 0xEA EXTCODEHASH REVERT 0xCD MUL 0xB6 GASPRICE BALANCE INVALID PUSH2 0xECCE 0xB0 SWAP3 EXTCODESIZE 0x48 0x48 0xAB 0xDA 0xC7 0xBE COINBASE SWAP2 EQ 0xB7 CALL 0xD3 0x25 0xBA 0x22 0x48 PUSH5 0x736F6C6343 STOP SMOD MOD STOP CALLER ","sha1":"78e81b4de4ab242d60af68adc9d814829de56ebd","source":"// SPDX-License-Identifier: GPL-3.0-or-later\n// This program is free software: you can redistribute it and/or modify\n// it under the terms of the GNU General Public License as published by\n// the Free Software Foundation, either version 3 of the License, or\n// (at your option) any later version.\n\n// This program is distributed in the hope that it will be useful,\n// but WITHOUT ANY WARRANTY; without even the implied warranty of\n// MERCHANTABILITY or FITNESS FOR A PARTICULAR PURPOSE.  See the\n// GNU General Public License for more details.\n\n// You should have received a copy of the GNU General Public License\n// along with this program.  If not, see <http://www.gnu.org/licenses/>.\n\npragma solidity 0.7.6;\npragma experimental ABIEncoderV2;\n\nimport \"../../libraries/GyroConfigKeys.sol\";\nimport \"../../interfaces/IGyroConfig.sol\";\nimport \"../../libraries/GyroPoolMath.sol\";\nimport \"../../libraries/GyroErrors.sol\";\n\nimport \"./ExtensibleBaseWeightedPool.sol\";\nimport \"./Gyro3CLPMath.sol\";\nimport \"./Gyro3CLPPoolErrors.sol\";\n\nimport \"../CappedLiquidity.sol\";\nimport \"../LocallyPausable.sol\";\n\n/**\n * @dev Gyro Three Pool with immutable weights.\n */\n// We derive from ExtensibleBaseWeightedPool and we override a large part of the functionality. In particular the\n// weights are not used.\ncontract Gyro3CLPPool is ExtensibleBaseWeightedPool, CappedLiquidity, LocallyPausable {\n    using GyroFixedPoint for uint256;\n    using WeightedPoolUserDataHelpers for bytes;\n\n    uint256 private immutable _root3Alpha;\n\n    IGyroConfig public gyroConfig;\n\n    uint256 private constant _MAX_TOKENS = 3;\n\n    IERC20 internal immutable _token0;\n    IERC20 internal immutable _token1;\n    IERC20 internal immutable _token2;\n\n    // All token balances are normalized to behave as if the token had 18 decimals. We assume a token's decimals will\n    // not change throughout its lifetime, and store the corresponding scaling factor for each at construction time.\n    // These factors are always greater than or equal to one: tokens with more than 18 decimals are not supported.\n    uint256 internal immutable _scalingFactor0;\n    uint256 internal immutable _scalingFactor1;\n    uint256 internal immutable _scalingFactor2;\n\n    struct NewPoolConfigParams {\n        string name;\n        string symbol;\n        IERC20[] tokens;\n        uint256 swapFeePercentage;\n        uint256 root3Alpha;\n        address owner;\n        address capManager;\n        CapParams capParams;\n        address pauseManager;\n    }\n\n    struct NewPoolParams {\n        IVault vault;\n        address configAddress;\n        NewPoolConfigParams config;\n        uint256 pauseWindowDuration;\n        uint256 bufferPeriodDuration;\n    }\n\n    constructor(NewPoolParams memory params)\n        ExtensibleBaseWeightedPool(\n            params.vault,\n            params.config.name,\n            params.config.symbol,\n            params.config.tokens,\n            new address[](3),\n            params.config.swapFeePercentage,\n            params.pauseWindowDuration,\n            params.bufferPeriodDuration,\n            params.config.owner\n        )\n        CappedLiquidity(params.config.capManager, params.config.capParams)\n        LocallyPausable(params.config.pauseManager)\n    {\n        IERC20[] memory tokens = params.config.tokens;\n        _grequire(tokens.length == 3, Gyro3CLPPoolErrors.TOKENS_LENGTH_MUST_BE_3);\n        InputHelpers.ensureArrayIsSorted(tokens); // For uniqueness and required to make balance reconstruction work\n        _grequire(params.configAddress != address(0), GyroErrors.ZERO_ADDRESS);\n\n        _token0 = tokens[0];\n        _token1 = tokens[1];\n        _token2 = tokens[2];\n\n        _scalingFactor0 = _computeScalingFactor(tokens[0]);\n        _scalingFactor1 = _computeScalingFactor(tokens[1]);\n        _scalingFactor2 = _computeScalingFactor(tokens[2]);\n\n        // _require(params.config.root3Alpha < FixedPoint.ONE, Gyro3CLPPoolErrors.PRICE_BOUNDS_WRONG);\n        _grequire(\n            Gyro3CLPMath._MIN_ROOT_3_ALPHA <= params.config.root3Alpha && params.config.root3Alpha <= Gyro3CLPMath._MAX_ROOT_3_ALPHA,\n            Gyro3CLPPoolErrors.PRICE_BOUNDS_WRONG\n        );\n        _root3Alpha = params.config.root3Alpha;\n        gyroConfig = IGyroConfig(params.configAddress);\n    }\n\n    function getRoot3Alpha() external view returns (uint256) {\n        return _root3Alpha;\n    }\n\n    // We don't support weights at the moment; in other words, all tokens are always weighted equally and thus their\n    // normalized weights are all 1/3. This is what the functions return.\n\n    function _getNormalizedWeight(IERC20) internal view virtual override returns (uint256) {\n        return GyroFixedPoint.ONE / 3;\n    }\n\n    function _getNormalizedWeights() internal view virtual override returns (uint256[] memory) {\n        uint256[] memory normalizedWeights = new uint256[](3);\n\n        // prettier-ignore\n        {\n            normalizedWeights[0] = GyroFixedPoint.ONE/3;\n            normalizedWeights[1] = GyroFixedPoint.ONE/3;\n            normalizedWeights[2] = GyroFixedPoint.ONE/3;\n        }\n\n        return normalizedWeights;\n    }\n\n    /// @dev Since all weights are always the same, the max-weight token is arbitrary. We return token 0.\n    function _getNormalizedWeightsAndMaxWeightIndex() internal view virtual override returns (uint256[] memory, uint256) {\n        return (_getNormalizedWeights(), 0);\n    }\n\n    function _getMaxTokens() internal pure virtual override returns (uint256) {\n        return _MAX_TOKENS;\n    }\n\n    function _getTotalTokens() internal pure virtual override returns (uint256) {\n        return 3;\n    }\n\n    /**\n     * @dev Returns the scaling factor for one of the Pool's tokens. Reverts if `token` is not a token registered by the\n     * Pool.\n     */\n    function _scalingFactor(IERC20 token) internal view virtual override returns (uint256 scalingFactor) {\n        if (token == _token0) {\n            scalingFactor = _scalingFactor0;\n        } else if (token == _token1) {\n            scalingFactor = _scalingFactor1;\n        } else if (token == _token2) {\n            scalingFactor = _scalingFactor2;\n        } else {\n            _revert(Errors.INVALID_TOKEN);\n        }\n    }\n\n    function _scalingFactors() internal view virtual override returns (uint256[] memory) {\n        uint256 totalTokens = _getTotalTokens();\n        uint256[] memory scalingFactors = new uint256[](totalTokens);\n\n        // prettier-ignore\n        {\n            scalingFactors[0] = _scalingFactor0;\n            scalingFactors[1] = _scalingFactor1;\n            scalingFactors[2] = _scalingFactor2;\n        }\n\n        return scalingFactors;\n    }\n\n    // on{Swap,Join,Exit}() toplevel entry points are not overloaded and taken from ExtensibleBaseWeightedPool. We\n    // override the lower-level functions.\n\n    function _onSwapGivenIn(\n        SwapRequest memory swapRequest,\n        uint256 currentBalanceTokenIn,\n        uint256 currentBalanceTokenOut\n    ) internal view virtual override whenNotPaused returns (uint256) {\n        uint256 virtualOffset = _calculateVirtualOffset(swapRequest, currentBalanceTokenIn, currentBalanceTokenOut);\n        return _onSwapGivenIn(swapRequest, currentBalanceTokenIn, currentBalanceTokenOut, virtualOffset);\n    }\n\n    function _onSwapGivenOut(\n        SwapRequest memory swapRequest,\n        uint256 currentBalanceTokenIn,\n        uint256 currentBalanceTokenOut\n    ) internal view virtual override whenNotPaused returns (uint256) {\n        uint256 virtualOffset = _calculateVirtualOffset(swapRequest, currentBalanceTokenIn, currentBalanceTokenOut);\n        return _onSwapGivenOut(swapRequest, currentBalanceTokenIn, currentBalanceTokenOut, virtualOffset);\n    }\n\n    /** @dev Given two tokens x, y, return the third one among the pool tokens that is neither x nor y. x, y do *not*\n     * have to be ordered, but they have to be among the tokens of this pool and they have to be different.\n     */\n    function _getThirdToken(IERC20 x, IERC20 y) internal view returns (IERC20 tokenOther, uint256 scalingFactorOther) {\n        // Sort\n        if (x > y) (x, y) = (y, x);\n\n        // We exploit that the variables _token{0,1,2} are sorted.\n        if (x == _token0) {\n            if (y == _token1) return (_token2, _scalingFactor2);\n            if (y != _token2) _grequire(false, Gyro3CLPPoolErrors.TOKENS_NOT_AMONG_POOL_TOKENS);\n            return (_token1, _scalingFactor1);\n        }\n        if (!(x == _token1 && y == _token2)) _grequire(false, Gyro3CLPPoolErrors.TOKENS_NOT_AMONG_POOL_TOKENS);\n        return (_token0, _scalingFactor0);\n    }\n\n    /** @dev Reads the balance of a token from the balancer vault and returns the scaled amount. Smaller storage access\n     * compared to getVault().getPoolTokens().\n     */\n    function _getScaledTokenBalance(IERC20 token, uint256 scalingFactor) internal view returns (uint256 balance) {\n        // Signature of getPoolTokenInfo(): (pool id, token) -> (cash, managed, lastChangeBlock, assetManager)\n        // and total amount = cash + managed. See balancer repo, PoolTokens.sol and BalanceAllocation.sol\n        (uint256 cash, uint256 managed, , ) = getVault().getPoolTokenInfo(getPoolId(), token);\n        balance = cash + managed; // can't overflow, see BalanceAllocation.sol::total() in the Balancer repo.\n        balance = balance.mulDown(scalingFactor);\n    }\n\n    /** @dev Calculate the offset that that takes real reserves to virtual reserves. Variant that uses the info given\n     * during swaps to query less from the vault and save gas.\n     */\n    function _calculateVirtualOffset(\n        SwapRequest memory swapRequest,\n        uint256 currentBalanceTokenIn,\n        uint256 currentBalanceTokenOut\n    ) private view returns (uint256 virtualOffset) {\n        // We exploit that everything is symmetric, so we don't have to know which balance is which here\n        uint256[] memory balances = new uint256[](3);\n        balances[0] = currentBalanceTokenIn;\n        balances[1] = currentBalanceTokenOut;\n\n        // Get the third token and query its balance.\n        // This needs to be scaled up, like in BasePool._upscaleArray(). The other balances are already scaled up.\n        (IERC20 token3, uint256 scalingFactor3) = _getThirdToken(swapRequest.tokenIn, swapRequest.tokenOut);\n        balances[2] = _getScaledTokenBalance(token3, scalingFactor3);\n\n        return _calculateVirtualOffset(balances);\n    }\n\n    /** @dev Calculate virtual offsets from scaled balances. Balances can be retrieved in the most gas-efficient way. */\n    function _calculateVirtualOffset(\n        uint256[] memory balances // Need to be already scaled up.\n    ) private view returns (uint256 virtualOffset) {\n        uint256 root3Alpha = _root3Alpha;\n        uint256 invariant = Gyro3CLPMath._calculateInvariant(balances, root3Alpha);\n        virtualOffset = invariant.mulDown(root3Alpha);\n    }\n\n    /** @dev Get all balances in the pool, scaled by the appropriate scaling factors, in a relatively gas-efficient way.\n     */\n    function _getAllBalances() private view returns (uint256[] memory balances) {\n        // The below is more gas-efficient than the following line because the token slots don't have to be read in the\n        // vault.\n        // (, uint256[] memory balances, ) = getVault().getPoolTokens(getPoolId());\n        balances = new uint256[](3);\n        balances[0] = _getScaledTokenBalance(_token0, _scalingFactor0);\n        balances[1] = _getScaledTokenBalance(_token1, _scalingFactor1);\n        balances[2] = _getScaledTokenBalance(_token2, _scalingFactor2);\n        return balances;\n    }\n\n    /** @dev Calculate the offset that that takes real reserves to virtual reserves. Uses only the info in the pool, but\n     * is rather expensive because a lot has to be queried from the vault.\n     */\n    function _calculateVirtualOffset() private view returns (uint256 virtualOffset) {\n        return _calculateVirtualOffset(_getAllBalances());\n    }\n\n    function _calculateInvariant() private view returns (uint256 invariant) {\n        return Gyro3CLPMath._calculateInvariant(_getAllBalances(), _root3Alpha);\n    }\n\n    function _onSwapGivenIn(\n        SwapRequest memory swapRequest,\n        uint256 currentBalanceTokenIn,\n        uint256 currentBalanceTokenOut,\n        uint256 virtualOffset\n    ) private pure returns (uint256) {\n        return Gyro3CLPMath._calcOutGivenIn(currentBalanceTokenIn, currentBalanceTokenOut, swapRequest.amount, virtualOffset);\n    }\n\n    function _onSwapGivenOut(\n        SwapRequest memory swapRequest,\n        uint256 currentBalanceTokenIn,\n        uint256 currentBalanceTokenOut,\n        uint256 virtualOffset\n    ) private pure returns (uint256) {\n        return Gyro3CLPMath._calcInGivenOut(currentBalanceTokenIn, currentBalanceTokenOut, swapRequest.amount, virtualOffset);\n    }\n\n    /**\n     * @dev Called when the Pool is joined for the first time; that is, when the BPT total supply is zero.\n     *\n     * Returns the amount of BPT to mint and the token amounts the Pool will receive in return.\n     *\n     * Minted BPT will be sent to `recipient`, except for _MINIMUM_BPT, which will be deducted from this amount and sent\n     * to the zero address instead. This will cause that BPT to remain forever locked there, preventing total BTP from\n     * ever dropping below that value, and ensuring `_onInitializePool` can only be called once in the entire Pool's\n     * lifetime.\n     *\n     * The tokens granted to the Pool will be transferred from `sender`. These amounts are considered upscaled and will\n     * be downscaled (rounding up) before being returned to the Vault.\n     */\n    function _onInitializePool(\n        bytes32,\n        address,\n        address,\n        uint256[] memory scalingFactors,\n        bytes memory userData\n    ) internal override whenNotPaused returns (uint256, uint256[] memory) {\n        BaseWeightedPool.JoinKind kind = userData.joinKind();\n        _require(kind == BaseWeightedPool.JoinKind.INIT, Errors.UNINITIALIZED);\n\n        uint256[] memory amountsIn = userData.initialAmountsIn();\n        InputHelpers.ensureInputLengthMatch(amountsIn.length, 3);\n        _upscaleArray(amountsIn, scalingFactors);\n\n        uint256 invariantAfterJoin = Gyro3CLPMath._calculateInvariant(amountsIn, _root3Alpha);\n\n        // Set the initial BPT to the value of the invariant times the number of tokens. This makes BPT supply more\n        // consistent in Pools with similar compositions but different number of tokens.\n        // Note that the BPT supply also depends on the parameters of the pool.\n        uint256 bptAmountOut = Math.mul(invariantAfterJoin, 3);\n\n        _lastInvariant = invariantAfterJoin;\n\n        return (bptAmountOut, amountsIn);\n    }\n\n    /**\n     * @dev Called whenever the Pool is joined after the first initialization join (see `_onInitializePool`).\n     *\n     * Returns the amount of BPT to mint, the token amounts that the Pool will receive in return, and the number of\n     * tokens to pay in protocol swap fees.\n     *\n     * Implementations of this function might choose to mutate the `balances` array to save gas (e.g. when\n     * performing intermediate calculations, such as subtraction of due protocol fees). This can be done safely.\n     *\n     * Minted BPT will be sent to `recipient`.\n     *\n     * The tokens granted to the Pool will be transferred from `sender`. These amounts are considered upscaled and will\n     * be downscaled (rounding up) before being returned to the Vault.\n     *\n     * protocolSwapFeePercentage argument is intentionally unused as protocol fees are handled in a different way\n     */\n    function _onJoinPool(\n        bytes32,\n        address,\n        address recipient,\n        uint256[] memory balances,\n        uint256,\n        uint256, // protocolSwapFeePercentage, not used\n        uint256[] memory,\n        bytes memory userData\n    )\n        internal\n        override\n        returns (\n            uint256 bptAmountOut,\n            uint256[] memory amountsIn,\n            uint256[] memory dueProtocolFeeAmounts\n        )\n    {\n        // Due protocol swap fee amounts are computed by measuring the growth of the invariant between the previous join\n        // or exit event and now - the invariant's growth is due exclusively to swap fees. This avoids spending gas\n        // accounting for them on each individual swap\n\n        uint256 root3Alpha = _root3Alpha;\n\n        uint256 invariantBeforeJoin = Gyro3CLPMath._calculateInvariant(balances, root3Alpha);\n\n        _distributeFees(invariantBeforeJoin);\n\n        (bptAmountOut, amountsIn) = _doJoin(balances, userData);\n\n        if (_capParams.capEnabled) {\n            _ensureCap(bptAmountOut, balanceOf(recipient), totalSupply());\n        }\n\n        // Since we pay fees in BPT, they have not changed the invariant and 'lastInvariant' is still consistent with\n        // 'balances'. Therefore, we can use a simplified method to update the invariant that does not require a full\n        // re-computation.\n        // Note: Should this be changed in the future, we also need to reduce the invariant proportionally by the total\n        // protocol fee factor.\n        _lastInvariant = GyroPoolMath.liquidityInvariantUpdate(invariantBeforeJoin, bptAmountOut, totalSupply(), true);\n\n        // returns a new uint256[](3) b/c Balancer vault is expecting a fee array, but fees paid in BPT instead\n        return (bptAmountOut, amountsIn, new uint256[](3));\n    }\n\n    function _doJoin(uint256[] memory balances, bytes memory userData) internal view returns (uint256 bptAmountOut, uint256[] memory amountsIn) {\n        BaseWeightedPool.JoinKind kind = userData.joinKind();\n\n        // We do NOT currently support unbalanced update, i.e., EXACT_TOKENS_IN_FOR_BPT_OUT or TOKEN_IN_FOR_EXACT_BPT_OUT\n        if (kind == BaseWeightedPool.JoinKind.ALL_TOKENS_IN_FOR_EXACT_BPT_OUT) {\n            (bptAmountOut, amountsIn) = _joinAllTokensInForExactBPTOut(balances, userData);\n        } else {\n            _revert(Errors.UNHANDLED_JOIN_KIND);\n        }\n    }\n\n    /**\n     * @dev Called whenever the Pool is exited.\n     *\n     * Returns the amount of BPT to burn, the token amounts for each Pool token that the Pool will grant in return, and\n     * the number of tokens to pay in protocol swap fees.\n     *\n     * Implementations of this function might choose to mutate the `balances` array to save gas (e.g. when\n     * performing intermediate calculations, such as subtraction of due protocol fees). This can be done safely.\n     *\n     * BPT will be burnt from `sender`.\n     *\n     * The Pool will grant tokens to `recipient`. These amounts are considered upscaled and will be downscaled\n     * (rounding down) before being returned to the Vault.\n     *\n     * protocolSwapFeePercentage argument is intentionally unused as protocol fees are handled in a different way\n     */\n    function _onExitPool(\n        bytes32,\n        address,\n        address,\n        uint256[] memory balances,\n        uint256,\n        uint256, // protocolSwapFeePercentage\n        uint256[] memory,\n        bytes memory userData\n    )\n        internal\n        override\n        returns (\n            uint256 bptAmountIn,\n            uint256[] memory amountsOut,\n            uint256[] memory dueProtocolFeeAmounts\n        )\n    {\n        // Exits are not completely disabled while the contract is paused: proportional exits (exact BPT in for tokens\n        // out) remain functional.\n\n        uint256 root3Alpha = _root3Alpha;\n\n        if (_isNotPaused()) {\n            // Due protocol swap fee amounts are computed by measuring the growth of the invariant between the previous\n            // join or exit event and now - the invariant's growth is due exclusively to swap fees. This avoids\n            // spending gas calculating the fees on each individual swap.\n            uint256 invariantBeforeExit = Gyro3CLPMath._calculateInvariant(balances, root3Alpha);\n\n            _distributeFees(invariantBeforeExit);\n\n            (bptAmountIn, amountsOut) = _doExit(balances, userData);\n\n            // Since we pay fees in BPT, they have not changed the invariant and 'lastInvariant' is still consistent with\n            // 'balances'. Therefore, we can use a simplified method to update the invariant that does not require a full\n            // re-computation.\n            // Note: Should this be changed in the future, we also need to reduce the invariant proportionally by the\n            // total protocol fee factor.\n            _lastInvariant = GyroPoolMath.liquidityInvariantUpdate(invariantBeforeExit, bptAmountIn, totalSupply(), false);\n        } else {\n            // Note: If the contract is paused, swap protocol fee amounts are not charged and the oracle is not updated\n            // to avoid extra calculations and reduce the potential for errors.\n            (bptAmountIn, amountsOut) = _doExit(balances, userData);\n\n            // In the paused state, we do not recompute the invariant to reduce the potential for errors and to avoid\n            // lock-up in case the pool is in a state where the involved numerical method does not converge.\n            // Instead, we set the invariant such that any following (non-paused) join/exit will ignore and recompute it\n            // (see GyroPoolMath._calcProtocolFees())\n            _lastInvariant = type(uint256).max;\n        }\n\n        // returns a new uint256[](3) b/c Balancer vault is expecting a fee array, but fees paid in BPT instead\n        return (bptAmountIn, amountsOut, new uint256[](3));\n    }\n\n    /**\n     * @dev Returns the current value of the invariant.\n     */\n    function getInvariant() public view override returns (uint256 invariant) {\n        return _calculateInvariant();\n    }\n\n    function _joinAllTokensInForExactBPTOut(uint256[] memory balances, bytes memory userData)\n        internal\n        view\n        override\n        returns (uint256, uint256[] memory)\n    {\n        uint256 bptAmountOut = userData.allTokensInForExactBptOut();\n\n        uint256[] memory amountsIn = GyroPoolMath._calcAllTokensInGivenExactBptOut(balances, bptAmountOut, totalSupply());\n\n        return (bptAmountOut, amountsIn);\n    }\n\n    function _doExit(uint256[] memory balances, bytes memory userData) internal view returns (uint256 bptAmountIn, uint256[] memory amountsOut) {\n        BaseWeightedPool.ExitKind kind = userData.exitKind();\n\n        // We do NOT support unbalanced exit at the moment, i.e., EXACT_BPT_IN_FOR_ONE_TOKEN_OUT or\n        // BPT_IN_FOR_EXACT_TOKENS_OUT.\n        if (kind == BaseWeightedPool.ExitKind.EXACT_BPT_IN_FOR_TOKENS_OUT) {\n            return _exitExactBPTInForTokensOut(balances, userData);\n        } else {\n            _revert(Errors.UNHANDLED_EXIT_KIND);\n        }\n    }\n\n    function _exitExactBPTInForTokensOut(uint256[] memory balances, bytes memory userData)\n        internal\n        view\n        override\n        returns (uint256, uint256[] memory)\n    {\n        // This exit function is the only one that is not disabled if the contract is paused: it remains unrestricted\n        // in an attempt to provide users with a mechanism to retrieve their tokens in case of an emergency.\n        // This particular exit function is the only one that remains available because it is the simplest one, and\n        // therefore the one with the lowest likelihood of errors.\n\n        uint256 bptAmountIn = userData.exactBptInForTokensOut();\n        // Note that there is no minimum amountOut parameter: this is handled by `IVault.exitPool`.\n\n        uint256[] memory amountsOut = GyroPoolMath._calcTokensOutGivenExactBptIn(balances, bptAmountIn, totalSupply());\n        return (bptAmountIn, amountsOut);\n    }\n\n    // Helpers\n\n    // Protocol Fee Helpers. These are the same functions as in Gyro2CLPPool.\n\n    /**\n     * @dev Computes and distributes fees between the Balancer and the Gyro treasury\n     * The fees are computed and distributed in BPT rather than using the\n     * Balancer regular distribution mechanism which would pay these in underlying\n     */\n    function _distributeFees(uint256 invariantBeforeAction) internal {\n        // calculate Protocol fees in BPT\n        // _lastInvariant is the invariant logged at the end of the last liquidity update\n        // protocol fees are calculated on swap fees earned between liquidity updates\n        (uint256 gyroFees, uint256 balancerFees, address gyroTreasury, address balTreasury) = _getDueProtocolFeeAmounts(\n            _lastInvariant,\n            invariantBeforeAction\n        );\n\n        // Pay fees in BPT\n        _payFeesBpt(gyroFees, balancerFees, gyroTreasury, balTreasury);\n    }\n\n    /**\n     * @dev this function overrides inherited function to make sure it is never used\n     */\n    function _getDueProtocolFeeAmounts(\n        uint256[] memory, // balances,\n        uint256[] memory, // normalizedWeights,\n        uint256, // maxWeightTokenIndex,\n        uint256, // previousInvariant,\n        uint256, // currentInvariant,\n        uint256 // protocolSwapFeePercentage\n    ) internal pure override returns (uint256[] memory) {\n        revert(\"Not implemented\");\n    }\n\n    /**\n     * @dev\n     * Note: This function is identical to that used in Gyro2CLPPool.sol.\n     * Calculates protocol fee amounts in BPT terms.\n     * protocolSwapFeePercentage is not used here b/c we take parameters from GyroConfig instead.\n     * Returns: BPT due to Gyro, BPT due to Balancer, receiving address for Gyro fees, receiving address for Balancer\n     * fees.\n     */\n    function _getDueProtocolFeeAmounts(uint256 previousInvariant, uint256 currentInvariant)\n        internal\n        view\n        returns (\n            uint256,\n            uint256,\n            address,\n            address\n        )\n    {\n        (uint256 protocolSwapFeePerc, uint256 protocolFeeGyroPortion, address gyroTreasury, address balTreasury) = _getFeesMetadata();\n\n        // Early return if the protocol swap fee percentage is zero, saving gas.\n        if (protocolSwapFeePerc == 0) {\n            return (0, 0, gyroTreasury, balTreasury);\n        }\n\n        // Calculate fees in BPT\n        (uint256 gyroFees, uint256 balancerFees) = GyroPoolMath._calcProtocolFees(\n            previousInvariant,\n            currentInvariant,\n            totalSupply(),\n            protocolSwapFeePerc,\n            protocolFeeGyroPortion\n        );\n\n        return (gyroFees, balancerFees, gyroTreasury, balTreasury);\n    }\n\n    // Note: This function is identical to that used in Gyro2CLPPool.sol\n    function _payFeesBpt(\n        uint256 gyroFees,\n        uint256 balancerFees,\n        address gyroTreasury,\n        address balTreasury\n    ) internal {\n        // Pay fees in BPT to gyro treasury\n        if (gyroFees > 0) {\n            _mintPoolTokens(gyroTreasury, gyroFees);\n        }\n        // Pay fees in BPT to bal treasury\n        if (balancerFees > 0) {\n            _mintPoolTokens(balTreasury, balancerFees);\n        }\n    }\n\n    // Note: This function is identical to that used in Gyro2CLPPool.sol\n    function _getFeesMetadata()\n        internal\n        view\n        returns (\n            uint256,\n            uint256,\n            address,\n            address\n        )\n    {\n        return (\n            gyroConfig.getUint(GyroConfigKeys.PROTOCOL_SWAP_FEE_PERC_KEY),\n            gyroConfig.getUint(GyroConfigKeys.PROTOCOL_FEE_GYRO_PORTION_KEY),\n            gyroConfig.getAddress(GyroConfigKeys.GYRO_TREASURY_KEY),\n            gyroConfig.getAddress(GyroConfigKeys.BAL_TREASURY_KEY)\n        );\n    }\n\n    function _setPausedState(bool paused) internal override {\n        _setPaused(paused);\n    }\n}\n","sourcePath":"contracts/3clp/Gyro3CLPPool.sol","type":"contract","deployment":{"address":"0x1a076C59321A38bF48431081E8FE3420De67DE8f","chainid":"137","blockHeight":33048619}}