{"abi":[{"inputs":[{"components":[{"components":[{"internalType":"contract IVault","name":"vault","type":"address"},{"internalType":"string","name":"name","type":"string"},{"internalType":"string","name":"symbol","type":"string"},{"internalType":"contract IERC20","name":"token0","type":"address"},{"internalType":"contract IERC20","name":"token1","type":"address"},{"internalType":"uint256","name":"swapFeePercentage","type":"uint256"},{"internalType":"uint256","name":"pauseWindowDuration","type":"uint256"},{"internalType":"uint256","name":"bufferPeriodDuration","type":"uint256"},{"internalType":"bool","name":"oracleEnabled","type":"bool"},{"internalType":"address","name":"owner","type":"address"}],"internalType":"struct ExtensibleWeightedPool2Tokens.NewPoolParams","name":"baseParams","type":"tuple"},{"internalType":"uint256","name":"sqrtAlpha","type":"uint256"},{"internalType":"uint256","name":"sqrtBeta","type":"uint256"},{"internalType":"address","name":"capManager","type":"address"},{"components":[{"internalType":"bool","name":"capEnabled","type":"bool"},{"internalType":"uint120","name":"perAddressCap","type":"uint120"},{"internalType":"uint128","name":"globalCap","type":"uint128"}],"internalType":"struct ICappedLiquidity.CapParams","name":"capParams","type":"tuple"},{"internalType":"address","name":"pauseManager","type":"address"}],"internalType":"struct Gyro2CLPPool.GyroParams","name":"params","type":"tuple"},{"internalType":"address","name":"configAddress","type":"address"}],"stateMutability":"nonpayable","type":"constructor","name":"constructor"},{"anonymous":false,"inputs":[{"indexed":true,"internalType":"address","name":"owner","type":"address"},{"indexed":true,"internalType":"address","name":"spender","type":"address"},{"indexed":false,"internalType":"uint256","name":"value","type":"uint256"}],"name":"Approval","type":"event"},{"anonymous":false,"inputs":[{"indexed":false,"internalType":"address","name":"capManager","type":"address"}],"name":"CapManagerUpdated","type":"event"},{"anonymous":false,"inputs":[{"components":[{"internalType":"bool","name":"capEnabled","type":"bool"},{"internalType":"uint120","name":"perAddressCap","type":"uint120"},{"internalType":"uint128","name":"globalCap","type":"uint128"}],"indexed":false,"internalType":"struct ICappedLiquidity.CapParams","name":"params","type":"tuple"}],"name":"CapParamsUpdated","type":"event"},{"anonymous":false,"inputs":[{"indexed":false,"internalType":"bool","name":"enabled","type":"bool"}],"name":"OracleEnabledChanged","type":"event"},{"anonymous":false,"inputs":[{"indexed":false,"internalType":"address","name":"oldPauseManager","type":"address"},{"indexed":false,"internalType":"address","name":"newPauseManager","type":"address"}],"name":"PauseManagerChanged","type":"event"},{"anonymous":false,"inputs":[],"name":"PausedLocally","type":"event"},{"anonymous":false,"inputs":[{"indexed":false,"internalType":"bool","name":"paused","type":"bool"}],"name":"PausedStateChanged","type":"event"},{"anonymous":false,"inputs":[{"indexed":false,"internalType":"uint256","name":"swapFeePercentage","type":"uint256"}],"name":"SwapFeePercentageChanged","type":"event"},{"anonymous":false,"inputs":[{"indexed":true,"internalType":"address","name":"from","type":"address"},{"indexed":true,"internalType":"address","name":"to","type":"address"},{"indexed":false,"internalType":"uint256","name":"value","type":"uint256"}],"name":"Transfer","type":"event"},{"anonymous":false,"inputs":[],"name":"UnpausedLocally","type":"event"},{"inputs":[],"name":"DOMAIN_SEPARATOR","outputs":[{"internalType":"bytes32","name":"","type":"bytes32"}],"stateMutability":"view","type":"function"},{"inputs":[{"internalType":"address","name":"owner","type":"address"},{"internalType":"address","name":"spender","type":"address"}],"name":"allowance","outputs":[{"internalType":"uint256","name":"","type":"uint256"}],"stateMutability":"view","type":"function"},{"inputs":[{"internalType":"address","name":"spender","type":"address"},{"internalType":"uint256","name":"amount","type":"uint256"}],"name":"approve","outputs":[{"internalType":"bool","name":"","type":"bool"}],"stateMutability":"nonpayable","type":"function"},{"inputs":[{"internalType":"address","name":"account","type":"address"}],"name":"balanceOf","outputs":[{"internalType":"uint256","name":"","type":"uint256"}],"stateMutability":"view","type":"function"},{"inputs":[{"internalType":"uint256","name":"balanceTokenIn","type":"uint256"},{"internalType":"uint256","name":"balanceTokenOut","type":"uint256"},{"internalType":"bool","name":"tokenInIsToken0","type":"bool"}],"name":"calculateCurrentValues","outputs":[{"internalType":"uint256","name":"currentInvariant","type":"uint256"},{"internalType":"uint256","name":"virtualParamIn","type":"uint256"},{"internalType":"uint256","name":"virtualParamOut","type":"uint256"}],"stateMutability":"view","type":"function"},{"inputs":[],"name":"capManager","outputs":[{"internalType":"address","name":"","type":"address"}],"stateMutability":"view","type":"function"},{"inputs":[],"name":"capParams","outputs":[{"components":[{"internalType":"bool","name":"capEnabled","type":"bool"},{"internalType":"uint120","name":"perAddressCap","type":"uint120"},{"internalType":"uint128","name":"globalCap","type":"uint128"}],"internalType":"struct ICappedLiquidity.CapParams","name":"","type":"tuple"}],"stateMutability":"view","type":"function"},{"inputs":[{"internalType":"address","name":"_pauseManager","type":"address"}],"name":"changePauseManager","outputs":[],"stateMutability":"nonpayable","type":"function"},{"inputs":[],"name":"decimals","outputs":[{"internalType":"uint8","name":"","type":"uint8"}],"stateMutability":"view","type":"function"},{"inputs":[{"internalType":"address","name":"spender","type":"address"},{"internalType":"uint256","name":"amount","type":"uint256"}],"name":"decreaseAllowance","outputs":[{"internalType":"bool","name":"","type":"bool"}],"stateMutability":"nonpayable","type":"function"},{"inputs":[{"internalType":"uint256","name":"startIndex","type":"uint256"},{"internalType":"uint256","name":"endIndex","type":"uint256"}],"name":"dirtyUninitializedOracleSamples","outputs":[],"stateMutability":"nonpayable","type":"function"},{"inputs":[],"name":"enableOracle","outputs":[],"stateMutability":"nonpayable","type":"function"},{"inputs":[{"internalType":"bytes4","name":"selector","type":"bytes4"}],"name":"getActionId","outputs":[{"internalType":"bytes32","name":"","type":"bytes32"}],"stateMutability":"view","type":"function"},{"inputs":[],"name":"getAuthorizer","outputs":[{"internalType":"contract IAuthorizer","name":"","type":"address"}],"stateMutability":"view","type":"function"},{"inputs":[],"name":"getInvariant","outputs":[{"internalType":"uint256","name":"","type":"uint256"}],"stateMutability":"view","type":"function"},{"inputs":[],"name":"getLargestSafeQueryWindow","outputs":[{"internalType":"uint256","name":"","type":"uint256"}],"stateMutability":"pure","type":"function"},{"inputs":[],"name":"getLastInvariant","outputs":[{"internalType":"uint256","name":"","type":"uint256"}],"stateMutability":"view","type":"function"},{"inputs":[{"internalType":"enum IPriceOracle.Variable","name":"variable","type":"uint8"}],"name":"getLatest","outputs":[{"internalType":"uint256","name":"","type":"uint256"}],"stateMutability":"view","type":"function"},{"inputs":[],"name":"getMiscData","outputs":[{"internalType":"int256","name":"logInvariant","type":"int256"},{"internalType":"int256","name":"logTotalSupply","type":"int256"},{"internalType":"uint256","name":"oracleSampleCreationTimestamp","type":"uint256"},{"internalType":"uint256","name":"oracleIndex","type":"uint256"},{"internalType":"bool","name":"oracleEnabled","type":"bool"},{"internalType":"uint256","name":"swapFeePercentage","type":"uint256"}],"stateMutability":"view","type":"function"},{"inputs":[],"name":"getNormalizedWeights","outputs":[{"internalType":"uint256[]","name":"","type":"uint256[]"}],"stateMutability":"view","type":"function"},{"inputs":[],"name":"getOwner","outputs":[{"internalType":"address","name":"","type":"address"}],"stateMutability":"view","type":"function"},{"inputs":[{"components":[{"internalType":"enum IPriceOracle.Variable","name":"variable","type":"uint8"},{"internalType":"uint256","name":"ago","type":"uint256"}],"internalType":"struct IPriceOracle.OracleAccumulatorQuery[]","name":"queries","type":"tuple[]"}],"name":"getPastAccumulators","outputs":[{"internalType":"int256[]","name":"results","type":"int256[]"}],"stateMutability":"view","type":"function"},{"inputs":[],"name":"getPausedState","outputs":[{"internalType":"bool","name":"paused","type":"bool"},{"internalType":"uint256","name":"pauseWindowEndTime","type":"uint256"},{"internalType":"uint256","name":"bufferPeriodEndTime","type":"uint256"}],"stateMutability":"view","type":"function"},{"inputs":[],"name":"getPoolId","outputs":[{"internalType":"bytes32","name":"","type":"bytes32"}],"stateMutability":"view","type":"function"},{"inputs":[],"name":"getRate","outputs":[{"internalType":"uint256","name":"","type":"uint256"}],"stateMutability":"view","type":"function"},{"inputs":[{"internalType":"uint256","name":"index","type":"uint256"}],"name":"getSample","outputs":[{"internalType":"int256","name":"logPairPrice","type":"int256"},{"internalType":"int256","name":"accLogPairPrice","type":"int256"},{"internalType":"int256","name":"logBptPrice","type":"int256"},{"internalType":"int256","name":"accLogBptPrice","type":"int256"},{"internalType":"int256","name":"logInvariant","type":"int256"},{"internalType":"int256","name":"accLogInvariant","type":"int256"},{"internalType":"uint256","name":"timestamp","type":"uint256"}],"stateMutability":"view","type":"function"},{"inputs":[],"name":"getSqrtParameters","outputs":[{"internalType":"uint256[2]","name":"","type":"uint256[2]"}],"stateMutability":"view","type":"function"},{"inputs":[],"name":"getSwapFeePercentage","outputs":[{"internalType":"uint256","name":"","type":"uint256"}],"stateMutability":"view","type":"function"},{"inputs":[{"components":[{"internalType":"enum IPriceOracle.Variable","name":"variable","type":"uint8"},{"internalType":"uint256","name":"secs","type":"uint256"},{"internalType":"uint256","name":"ago","type":"uint256"}],"internalType":"struct IPriceOracle.OracleAverageQuery[]","name":"queries","type":"tuple[]"}],"name":"getTimeWeightedAverage","outputs":[{"internalType":"uint256[]","name":"results","type":"uint256[]"}],"stateMutability":"view","type":"function"},{"inputs":[],"name":"getTotalSamples","outputs":[{"internalType":"uint256","name":"","type":"uint256"}],"stateMutability":"pure","type":"function"},{"inputs":[],"name":"getVault","outputs":[{"internalType":"contract IVault","name":"","type":"address"}],"stateMutability":"view","type":"function"},{"inputs":[],"name":"getVirtualParameters","outputs":[{"internalType":"uint256[]","name":"virtualParams","type":"uint256[]"}],"stateMutability":"view","type":"function"},{"inputs":[],"name":"gyroConfig","outputs":[{"internalType":"contract IGyroConfig","name":"","type":"address"}],"stateMutability":"view","type":"function"},{"inputs":[{"internalType":"address","name":"spender","type":"address"},{"internalType":"uint256","name":"addedValue","type":"uint256"}],"name":"increaseAllowance","outputs":[{"internalType":"bool","name":"","type":"bool"}],"stateMutability":"nonpayable","type":"function"},{"inputs":[],"name":"name","outputs":[{"internalType":"string","name":"","type":"string"}],"stateMutability":"view","type":"function"},{"inputs":[{"internalType":"address","name":"owner","type":"address"}],"name":"nonces","outputs":[{"internalType":"uint256","name":"","type":"uint256"}],"stateMutability":"view","type":"function"},{"inputs":[{"internalType":"bytes32","name":"poolId","type":"bytes32"},{"internalType":"address","name":"sender","type":"address"},{"internalType":"address","name":"recipient","type":"address"},{"internalType":"uint256[]","name":"balances","type":"uint256[]"},{"internalType":"uint256","name":"lastChangeBlock","type":"uint256"},{"internalType":"uint256","name":"protocolSwapFeePercentage","type":"uint256"},{"internalType":"bytes","name":"userData","type":"bytes"}],"name":"onExitPool","outputs":[{"internalType":"uint256[]","name":"","type":"uint256[]"},{"internalType":"uint256[]","name":"","type":"uint256[]"}],"stateMutability":"nonpayable","type":"function"},{"inputs":[{"internalType":"bytes32","name":"poolId","type":"bytes32"},{"internalType":"address","name":"sender","type":"address"},{"internalType":"address","name":"recipient","type":"address"},{"internalType":"uint256[]","name":"balances","type":"uint256[]"},{"internalType":"uint256","name":"lastChangeBlock","type":"uint256"},{"internalType":"uint256","name":"protocolSwapFeePercentage","type":"uint256"},{"internalType":"bytes","name":"userData","type":"bytes"}],"name":"onJoinPool","outputs":[{"internalType":"uint256[]","name":"amountsIn","type":"uint256[]"},{"internalType":"uint256[]","name":"dueProtocolFeeAmounts","type":"uint256[]"}],"stateMutability":"nonpayable","type":"function"},{"inputs":[{"components":[{"internalType":"enum IVault.SwapKind","name":"kind","type":"uint8"},{"internalType":"contract IERC20","name":"tokenIn","type":"address"},{"internalType":"contract IERC20","name":"tokenOut","type":"address"},{"internalType":"uint256","name":"amount","type":"uint256"},{"internalType":"bytes32","name":"poolId","type":"bytes32"},{"internalType":"uint256","name":"lastChangeBlock","type":"uint256"},{"internalType":"address","name":"from","type":"address"},{"internalType":"address","name":"to","type":"address"},{"internalType":"bytes","name":"userData","type":"bytes"}],"internalType":"struct IPoolSwapStructs.SwapRequest","name":"request","type":"tuple"},{"internalType":"uint256","name":"balanceTokenIn","type":"uint256"},{"internalType":"uint256","name":"balanceTokenOut","type":"uint256"}],"name":"onSwap","outputs":[{"internalType":"uint256","name":"","type":"uint256"}],"stateMutability":"nonpayable","type":"function"},{"inputs":[],"name":"pause","outputs":[],"stateMutability":"nonpayable","type":"function"},{"inputs":[],"name":"pauseManager","outputs":[{"internalType":"address","name":"","type":"address"}],"stateMutability":"view","type":"function"},{"inputs":[{"internalType":"address","name":"owner","type":"address"},{"internalType":"address","name":"spender","type":"address"},{"internalType":"uint256","name":"value","type":"uint256"},{"internalType":"uint256","name":"deadline","type":"uint256"},{"internalType":"uint8","name":"v","type":"uint8"},{"internalType":"bytes32","name":"r","type":"bytes32"},{"internalType":"bytes32","name":"s","type":"bytes32"}],"name":"permit","outputs":[],"stateMutability":"nonpayable","type":"function"},{"inputs":[{"internalType":"bytes32","name":"poolId","type":"bytes32"},{"internalType":"address","name":"sender","type":"address"},{"internalType":"address","name":"recipient","type":"address"},{"internalType":"uint256[]","name":"balances","type":"uint256[]"},{"internalType":"uint256","name":"lastChangeBlock","type":"uint256"},{"internalType":"uint256","name":"protocolSwapFeePercentage","type":"uint256"},{"internalType":"bytes","name":"userData","type":"bytes"}],"name":"queryExit","outputs":[{"internalType":"uint256","name":"bptIn","type":"uint256"},{"internalType":"uint256[]","name":"amountsOut","type":"uint256[]"}],"stateMutability":"nonpayable","type":"function"},{"inputs":[{"internalType":"bytes32","name":"poolId","type":"bytes32"},{"internalType":"address","name":"sender","type":"address"},{"internalType":"address","name":"recipient","type":"address"},{"internalType":"uint256[]","name":"balances","type":"uint256[]"},{"internalType":"uint256","name":"lastChangeBlock","type":"uint256"},{"internalType":"uint256","name":"protocolSwapFeePercentage","type":"uint256"},{"internalType":"bytes","name":"userData","type":"bytes"}],"name":"queryJoin","outputs":[{"internalType":"uint256","name":"bptOut","type":"uint256"},{"internalType":"uint256[]","name":"amountsIn","type":"uint256[]"}],"stateMutability":"nonpayable","type":"function"},{"inputs":[{"internalType":"address","name":"_capManager","type":"address"}],"name":"setCapManager","outputs":[],"stateMutability":"nonpayable","type":"function"},{"inputs":[{"components":[{"internalType":"bool","name":"capEnabled","type":"bool"},{"internalType":"uint120","name":"perAddressCap","type":"uint120"},{"internalType":"uint128","name":"globalCap","type":"uint128"}],"internalType":"struct ICappedLiquidity.CapParams","name":"params","type":"tuple"}],"name":"setCapParams","outputs":[],"stateMutability":"nonpayable","type":"function"},{"inputs":[{"internalType":"bool","name":"paused","type":"bool"}],"name":"setPaused","outputs":[],"stateMutability":"nonpayable","type":"function"},{"inputs":[{"internalType":"uint256","name":"swapFeePercentage","type":"uint256"}],"name":"setSwapFeePercentage","outputs":[],"stateMutability":"nonpayable","type":"function"},{"inputs":[],"name":"symbol","outputs":[{"internalType":"string","name":"","type":"string"}],"stateMutability":"view","type":"function"},{"inputs":[],"name":"totalSupply","outputs":[{"internalType":"uint256","name":"","type":"uint256"}],"stateMutability":"view","type":"function"},{"inputs":[{"internalType":"address","name":"recipient","type":"address"},{"internalType":"uint256","name":"amount","type":"uint256"}],"name":"transfer","outputs":[{"internalType":"bool","name":"","type":"bool"}],"stateMutability":"nonpayable","type":"function"},{"inputs":[{"internalType":"address","name":"sender","type":"address"},{"internalType":"address","name":"recipient","type":"address"},{"internalType":"uint256","name":"amount","type":"uint256"}],"name":"transferFrom","outputs":[{"internalType":"bool","name":"","type":"bool"}],"stateMutability":"nonpayable","type":"function"},{"inputs":[],"name":"unpause","outputs":[],"stateMutability":"nonpayable","type":"function"}],"bytecode":"6102e06040527f6e71edae12b1b97f4d1f60370fef10105fa2faae0126114a169c64845d6126c9610120526706f05b59d3b20000610200819052610220526000610240523480156200005057600080fd5b506040516200633638038062006336833981016040819052620000739162000bc5565b8160a001518260600151836080015184600001518060c001518160e001518260200151836040015184600001518280604051806040016040528060018152602001603160f81b81525085858a6101200151336001600160a01b031660001b806080818152505050806001600160a01b031660a0816001600160a01b031660601b8152505050816003908051906020019062000110929190620008ea565b50805162000126906004906020840190620008ea565b505060058054601260ff1990911617905550815160209283012060c052805191012060e052507f8b73c3c69bb8fe3d512ecc4cf759cc79239f7b179b0ffacaa9a75d522b39400f6101005260601b6001600160601b03191661014052506200019990506276a7008311156101946200054c565b620001ad62278d008211156101956200054c565b42919091016101608190520161018052604080516002808252606082018352600092602083019080368337019050509050816060015181600081518110620001f157fe5b60200260200101906001600160a01b031690816001600160a01b0316815250508160800151816001815181106200022457fe5b60200260200101906001600160a01b031690816001600160a01b0316815250506200025a816200056160201b62001b0d1760201c565b6101008201516200026b906200056d565b60a08201516200027b90620005c9565b81516040516309b2760f60e01b81526000916001600160a01b0316906309b2760f90620002ae9060029060040162000d6f565b602060405180830381600087803b158015620002c957600080fd5b505af1158015620002de573d6000803e3d6000fd5b505050506040513d601f19601f8201168201806040525081019062000304919062000bac565b83516040805160028082526060820183529394506001600160a01b03909216926366a9c7d2928592879290602083019080368337019050506040518463ffffffff1660e01b81526004016200035c9392919062000cd5565b600060405180830381600087803b1580156200037757600080fd5b505af11580156200038c573d6000803e3d6000fd5b5050506101a082905250606080840180516001600160601b031990831b81166101c052608086015190921b9091166101e05251620003ca9062000647565b610260526080830151620003de9062000647565b61028052505060408051808201909152600e81526d1b9bdd08185d5d1a1bdc9a5e995960921b602082015290506001600160a01b0383166200043e5760405162461bcd60e51b815260040162000435919062000d84565b60405180910390fd5b50600c80546001600160a01b0319166001600160a01b039384161790558051600b8054602084015160409094015160ff1990911692151592909217610100600160801b0319166101006001600160781b0390941693909302929092176001600160801b03908116600160801b9190921602179055620004c390821615156069620006eb565b600d80546001600160a01b0319166001600160a01b039290921691909117905560408201516020830151620004fc911161015e620006eb565b620005146001600160a01b03821615156069620006eb565b60208201516102a0526040909101516102c052600e80546001600160a01b0319166001600160a01b0390921691909117905562000e19565b816200055d576200055d81620006fc565b5050565b806200055d816200074f565b6200058981600954620007dc60201b62001b1b1790919060201c565b6009556040517f3e350b41e86a8e10f804ade6d35340d620be35569cc75ac943e8bb14ab80ead190620005be90839062000cca565b60405180910390a150565b620005de64e8d4a5100082101560cb6200054c565b620005f667016345785d8a000082111560ca6200054c565b62000612816009546200080260201b62001b301790919060201c565b6009556040517fa9ba3ffe0b6c366b81232caab38605a0699ad5398d6cce76f91ee809e322dafc90620005be90839062000db9565b600080826001600160a01b031663313ce5676040518163ffffffff1660e01b815260040160206040518083038186803b1580156200068457600080fd5b505afa15801562000699573d6000803e3d6000fd5b505050506040513d601f19601f82011682018060405250810190620006bf919062000ca7565b60ff1690506000620006de6012836200082160201b62001b3e1760201c565b600a0a925050505b919050565b816200055d576200055d8162000839565b62461bcd60e51b6000908152602060045260076024526642414c23000030600a808404818106603090810160081b95839006959095019082900491820690940160101b939093010160c81b604452606490fd5b6002815110156200076057620007d9565b6000816000815181106200077057fe5b602002602001015190506000600190505b8251811015620007d65760008382815181106200079a57fe5b60200260200101519050620007cb816001600160a01b0316846001600160a01b03161060656200054c60201b60201c565b915060010162000781565b50505b50565b6000620007fb826055856200084b60201b62001b54179092919060201c565b9392505050565b6000620007fb826056856200087460201b62001b7b179092919060201c565b6000620008338383111560016200054c565b50900390565b620007d9816223aca960e91b62000889565b60006001821b19841682846200086357600062000866565b60015b60ff16901b17949350505050565b6001600160401b03811b1992909216911b1790565b62461bcd60e51b600090815260206004526007602452600a808404818106603090810160081b958390069590950190829004918206850160101b01602363ffffff0060e086901c160160181b0190930160c81b60445260e882901c90606490fd5b828054600181600116156101000203166002900490600052602060002090601f0160209004810192826200092257600085556200096d565b82601f106200093d57805160ff19168380011785556200096d565b828001600101855582156200096d579182015b828111156200096d57825182559160200191906001019062000950565b506200097b9291506200097f565b5090565b5b808211156200097b576000815560010162000980565b80516001600160a01b0381168114620006e657600080fd5b80518015158114620006e657600080fd5b600082601f830112620009d0578081fd5b81516001600160401b03811115620009e457fe5b620009f9601f8201601f191660200162000dc2565b81815284602083860101111562000a0e578283fd5b62000a2182602083016020870162000de6565b949350505050565b60006060828403121562000a3b578081fd5b604051606081016001600160401b038111828210171562000a5857fe5b60405290508062000a6983620009ae565b815260208301516001600160781b038116811462000a8657600080fd5b602082015260408301516001600160801b038116811462000aa657600080fd5b6040919091015292915050565b600061014080838503121562000ac7578182fd5b62000ad28162000dc2565b91505062000ae08262000996565b815260208201516001600160401b038082111562000afd57600080fd5b62000b0b85838601620009bf565b6020840152604084015191508082111562000b2557600080fd5b5062000b3484828501620009bf565b60408301525062000b486060830162000996565b606082015262000b5b6080830162000996565b608082015260a082015160a082015260c082015160c082015260e082015160e082015261010062000b8e818401620009ae565b9082015261012062000ba283820162000996565b9082015292915050565b60006020828403121562000bbe578081fd5b5051919050565b6000806040838503121562000bd8578081fd5b82516001600160401b038082111562000bef578283fd5b90840190610100828703121562000c04578283fd5b60405160c08101818110838211171562000c1a57fe5b60405282518281111562000c2c578485fd5b62000c3a8882860162000ab3565b825250602083015160208201526040830151604082015262000c5f6060840162000996565b606082015262000c73876080850162000a29565b608082015262000c8660e0840162000996565b60a0820152935062000c9e9150506020840162000996565b90509250929050565b60006020828403121562000cb9578081fd5b815160ff81168114620007fb578182fd5b901515815260200190565b60006060820185835260206060818501528186518084526080860191508288019350845b8181101562000d205784516001600160a01b03168352938301939183019160010162000cf9565b505084810360408601528551808252908201925081860190845b8181101562000d615782516001600160a01b03168552938301939183019160010162000d3a565b509298975050505050505050565b602081016003831062000d7e57fe5b91905290565b600060208252825180602084015262000da581604085016020870162000de6565b601f01601f19169190910160400192915050565b90815260200190565b6040518181016001600160401b038111828210171562000dde57fe5b604052919050565b60005b8381101562000e0357818101518382015260200162000de9565b8381111562000e13576000848401525b50505050565b60805160a05160601c60c05160e05161010051610120516101405160601c61016051610180516101a0516101c05160601c6101e05160601c61020051610220516102405161026051610280516102a0516102c05161544f62000ee76000398061300a52508061303152508061204d525080612074525050806137855250806137ac525050806114c7525080610ae8525080611cdf525080611cbb52508061130b52508061185e525080611f0f525080611f51525080611f305250806112e752508061126d525061544f6000f3fe608060405234801561001057600080fd5b50600436106103275760003560e01c8063707dcd1e116101b85780639b02cdde11610104578063b48b5b40116100a2578063d5c096c41161007c578063d5c096c41461069b578063dd62ed3e146106ae578063f89f27ed146106c1578063ffd088eb146106c957610327565b8063b48b5b4014610678578063c0ff1a1514610680578063d505accf1461068857610327565b8063a9059cbb116100de578063a9059cbb14610642578063aaabadc514610655578063abd13afe1461065d578063b10be7391461066557610327565b80639b02cdde146106145780639d2c110c1461061c578063a457c2d71461062f57610327565b80638456cb5911610171578063893d20e81161014b578063893d20e8146105f45780638d928af8146105fc5780638dd9f89d1461060457806395d89b411461060c57610327565b80638456cb59146105c6578063851c1bb3146105ce57806387ec6817146105e157610327565b8063707dcd1e1461054457806370a082311461055957806374f3b0091461056c57806376e54a461461058d5780637ecebe00146105a05780638002df18146105b357610327565b806338fff2d0116102775780634a6b0b151161023057806360d1507c1161020a57806360d1507c146104ee578063679aefce146105145780636b8432391461051c5780636d785a871461053c57610327565b80634a6b0b15146104ab57806355c67628146104c55780636028bfd4146104cd57610327565b806338fff2d01461043c57806339509351146104445780633aeae0d3146104575780633c4dd5bb1461046c5780633f4ba83a1461048e57806344bbdb551461049657610327565b80631dccd830116102e4578063313ce567116102be578063313ce567146103f95780633331bc361461040e5780633644e5151461042157806338e9922e1461042957610327565b80631dccd830146103be57806323b872dd146103de578063292c914a146103f157610327565b806306fdde031461032c578063095ea7b31461034a5780630e608b301461036a57806316c38b3c1461037f57806318160ddd146103925780631c0de051146103a7575b600080fd5b6103346106d1565b60405161034191906152d4565b60405180910390f35b61035d610358366004614ad3565b610767565b60405161034191906151cd565b61037d6103783660046149ae565b61077e565b005b61037d61038d366004614d63565b61082f565b61039a610843565b60405161034191906151f0565b6103af610849565b604051610341939291906151d8565b6103d16103cc366004614c97565b610872565b6040516103419190615195565b61035d6103ec366004614a1e565b610995565b61037d610a09565b610401610a3d565b60405161034191906153b6565b61037d61041c36600461505f565b610a46565b61039a610abe565b61037d610437366004615047565b610acd565b61039a610ae6565b61035d610452366004614ad3565b610b0a565b61045f610b45565b6040516103419190615327565b61047f61047a366004615080565b610b90565b604051610341939291906153a0565b61037d610be3565b61049e610cd8565b604051610341919061510c565b6104b3610ce7565b60405161034196959493929190615229565b61039a610d42565b6104e06104db366004614d7d565b610d4f565b604051610341929190615387565b6105016104fc366004615047565b610d80565b60405161034197969594939291906151f9565b61039a610dc9565b61052f61052a366004614bc9565b610dee565b6040516103419190615120565b61049e610ea4565b61054c610eb3565b6040516103419190615164565b61039a6105673660046149ae565b610ec3565b61057f61057a366004614d7d565b610ee2565b6040516103419291906151a8565b61037d61059b366004614ed3565b610f87565b61039a6105ae3660046149ae565b6110ae565b61037d6105c13660046149ae565b6110c9565b61037d6111af565b61039a6105dc366004614e79565b611267565b6104e06105ef366004614d7d565b6112c0565b61049e6112e5565b61049e611309565b6103d161132d565b610334611437565b61039a611498565b61039a61062a366004614f51565b61149e565b61035d61063d366004614ad3565b611664565b61035d610650366004614ad3565b6116a2565b61049e6116af565b61049e6116b9565b61039a610673366004614ea1565b6116c8565b61039a61175d565b61039a611763565b61037d610696366004614a5e565b61182f565b61057f6106a9366004614d7d565b61199f565b61039a6106bc3660046149e6565b611abf565b6103d1611afc565b61039a611b06565b60038054604080516020601f600260001961010060018816150201909516949094049384018190048102820181019092528281526060939092909183018282801561075d5780601f106107325761010080835404028352916020019161075d565b820191906000526020600020905b81548152906001019060200180831161074057829003601f168201915b5050505050905090565b6000610774338484611b90565b5060015b92915050565b600c5460408051808201909152600e81526d1b9bdd08185d5d1a1bdc9a5e995960921b6020820152906001600160a01b031633146107d85760405162461bcd60e51b81526004016107cf91906152d4565b60405180910390fd5b50600c80546001600160a01b0319166001600160a01b0383161790556040517fb8fd9afc34c38fcd13b9a3b7646482eb1fddcefb40af2c70609972816eba32089061082490839061510c565b60405180910390a150565b610837611bf2565b61084081611c20565b50565b60025490565b6000806000610856611c9c565b159250610861611cb9565b915061086b611cdd565b9050909192565b606081516001600160401b038111801561088b57600080fd5b506040519080825280602002602001820160405280156108b5578160200160208202803683370190505b50905060006108c2611d01565b905060005b835181101561098e5773__QueryProcessor________________________6379eaef8260088684815181106108f857fe5b6020026020010151856040518463ffffffff1660e01b815260040161091f9392919061529b565b60206040518083038186803b15801561093757600080fd5b505af415801561094b573d6000803e3d6000fd5b505050506040513d601f19601f8201168201806040525081019061096f9190614ebb565b83828151811061097b57fe5b60209081029190910101526001016108c7565b5050919050565b6000806109a28533611abf565b90506109c6336001600160a01b03871614806109be5750838210155b61019e611d0e565b6109d1858585611d1c565b336001600160a01b038616148015906109ec57506000198114155b156109fe576109fe8533858403611b90565b506001949350505050565b610a11611e04565b610a19611bf2565b610a236001611e17565b6000610a2d610843565b1115610a3b57610a3b611e57565b565b60055460ff1690565b610a618183108015610a5a57506104008211155b6064611d0e565b6000610a766001600080600080600080611e9f565b9050825b82811015610ab857600081815260086020526040902054610a9a90611eff565b610ab05760008181526008602052604090208290555b600101610a7a565b50505050565b6000610ac8611f0b565b905090565b610ad5611bf2565b610add611e04565b61084081611fc9565b7f000000000000000000000000000000000000000000000000000000000000000090565b3360008181526001602090815260408083206001600160a01b03871684529091528120549091610774918590610b409086612032565b611b90565b610b4d614850565b5060408051606081018252600b5460ff81161515825261010081046001600160781b03166020830152600160801b90046001600160801b03169181019190915290565b600080600080610b9f85612044565b90506000610bad8615612044565b9050610bb98883612098565b9750610bc58782612098565b9650610bd28888886120a4565b945094509450505093509350939050565b600d546040805180820190915260118152703737ba103830bab9b29036b0b730b3b2b960791b6020820152906001600160a01b03163314610ca25760405162461bcd60e51b81526004018080602001828103825283818151815260200191508051906020019080838360005b83811015610c67578181015183820152602001610c4f565b50505050905090810190601f168015610c945780820380516001836020036101000a031916815260200191505b509250505060405180910390fd5b50610cad6000610837565b6040517f215385c8bfc731925ec8068d7baa50f6b6f34417cc7804f7273dc2c0b3db279090600090a1565b600e546001600160a01b031681565b60008060008060008060006009549050610d0081612173565b9650610d0b8161217f565b9550610d168161218c565b9450610d2181612199565b9350610d2c816121a6565b9250610d37816121b3565b915050909192939495565b6000610ac86009546121b3565b60006060610d5f865160026121c0565b610d74898989898989896121cd6122e161235f565b97509795505050505050565b6000806000806000806000610d9b610400891061013b611d0e565b6000610da689612472565b9050610db181612484565b959f949e50929c50909a509850965090945092505050565b6000610ac8610dd6610843565b610de8610de1611763565b60026124e7565b9061250b565b606081516001600160401b0381118015610e0757600080fd5b50604051908082528060200260200182016040528015610e31578160200160208202803683370190505b5090506000610e3e611d01565b9050610e48614870565b60005b8451811015610e9c57848181518110610e6057fe5b60200260200101519150610e7d8260000151848460200151612565565b848281518110610e8957fe5b6020908102919091010152600101610e4b565b505050919050565b600c546001600160a01b031681565b610ebb614887565b610ac86125fe565b6001600160a01b0381166000908152602081905260409020545b919050565b60608088610f0c610ef1611309565b6001600160a01b0316336001600160a01b03161460cd611d0e565b610f21610f17610ae6565b82146101f4611d0e565b610f2a87612624565b6000806000610f3e8d8d8d8d8d8d8d6121cd565b925092509250610f4e8c84612686565b610f57826122e1565b610f60816122e1565b610f68611c9c565b15610f7557610f75611e57565b909c909b509950505050505050505050565b600c5460408051808201909152600e81526d1b9bdd08185d5d1a1bdc9a5e995960921b6020820152906001600160a01b03163314610fd85760405162461bcd60e51b81526004016107cf91906152d4565b50600b5460408051808201909152601081526f1c1bdbdb081a5cc81d5b98d85c1c195960821b60208201529060ff166110245760405162461bcd60e51b81526004016107cf91906152d4565b508051600b8054602084015160408086015160ff19909316941515949094176fffffffffffffffffffffffffffffff0019166101006001600160781b0390921691909102176001600160801b03908116600160801b919092160217815590517f2abf5970d7bc1a2b36eaae52dd2cc353edb0337c7284ef8a01973081b4e04424916108249161535c565b6001600160a01b031660009081526006602052604090205490565b600d546040805180820190915260118152703737ba103830bab9b29036b0b730b3b2b960791b60208201526001600160a01b039091169033821461114e5760405162461bcd60e51b8152602060048201818152835160248401528351909283926044909101919085019080838360008315610c67578181015183820152602001610c4f565b50600d80546001600160a01b0319166001600160a01b03848116918217909255604080519284168352602083019190915280517f1ffccd1fa96f4fb3415df8048a0fd107344e262d2d246c85105e2a3f8f3e81989281900390910190a15050565b600d546040805180820190915260118152703737ba103830bab9b29036b0b730b3b2b960791b6020820152906001600160a01b031633146112315760405162461bcd60e51b8152602060048201818152835160248401528351909283926044909101919085019080838360008315610c67578181015183820152602001610c4f565b5061123c6001610837565b6040517f681eace576127d0553b224436a09801fb47d042942cbff59d7d4ff04d8fa03d790600090a1565b604080517f00000000000000000000000000000000000000000000000000000000000000006020808301919091526001600160e01b03198416828401528251602481840301815260449092019092528051910120919050565b600060606112d0865160026121c0565b610d748989898989898961269061276061235f565b7f000000000000000000000000000000000000000000000000000000000000000090565b7f000000000000000000000000000000000000000000000000000000000000000090565b60606000611339611309565b6001600160a01b031663f94d466861134f610ae6565b6040518263ffffffff1660e01b815260040161136b91906151f0565b60006040518083038186803b15801561138357600080fd5b505afa158015611397573d6000803e3d6000fd5b505050506040513d6000823e601f3d908101601f191682016040526113bf9190810190614afe565b509150506113cc81612624565b611400816000815181106113dc57fe5b6020026020010151826001815181106113f157fe5b602002602001015160016120a4565b9091508360008151811061141057fe5b602002602001018460018151811061142457fe5b6020908102919091010191909152525090565b60048054604080516020601f600260001961010060018816150201909516949094049384018190048102820181019092528281526060939092909183018282801561075d5780601f106107325761010080835404028352916020019161075d565b600a5490565b60006114a8611e04565b83608001516114b8610ef1611309565b6114c3610f17610ae6565b60007f00000000000000000000000000000000000000000000000000000000000000006001600160a01b031686602001516001600160a01b0316149050600061150b82612044565b905060006115198315612044565b90506115258783612098565b96506115318682612098565b955060008060006115438a8a886120a4565b92509250925061158a8b60a001518761155c578a61155e565b8b5b88611569578c61156b565b8b5b896115765784611578565b855b8a6115835786611585565b855b6127c2565b60008b51600181111561159957fe5b14156116085760006115b76115ac610d42565b60608e01519061286c565b90506115d96115d3828e606001516128c190919063ffffffff16565b87612098565b60608d015260006115ed8d8d8d87876128d7565b90506115f981876128f6565b9950505050505050505061165c565b6116168b6060015185612098565b60608c0152600061162a8c8c8c8686612902565b90506116368187612915565b905061165261164b611646610d42565b612921565b8290612947565b9850505050505050505b509392505050565b6000806116713385611abf565b905080831061168b5761168633856000611b90565b611698565b6116983385858403611b90565b5060019392505050565b6000610774338484611d1c565b6000610ac86129ad565b600d546001600160a01b031681565b600073__QueryProcessor________________________630397bee06008846116ef611d01565b6040518463ffffffff1660e01b815260040161170d93929190615253565b60206040518083038186803b15801561172557600080fd5b505af4158015611739573d6000803e3d6000fd5b505050506040513d601f19601f820116820180604052508101906107789190614ebb565b61040090565b60008061176e611309565b6001600160a01b031663f94d4668611784610ae6565b6040518263ffffffff1660e01b81526004016117a091906151f0565b60006040518083038186803b1580156117b857600080fd5b505afa1580156117cc573d6000803e3d6000fd5b505050506040513d6000823e601f3d908101601f191682016040526117f49190810190614afe565b5091505060006118026125fe565b905061180d82612624565b611828828260005b60200201518360015b6020020151612a27565b9250505090565b61183d8442111560d1611d0e565b6001600160a01b0380881660008181526006602090815260408083205481517f00000000000000000000000000000000000000000000000000000000000000008185015280830195909552948b166060850152608084018a905260a0840185905260c08085018a90528151808603909101815260e090940190528251920191909120906118c982612a5a565b9050600060018288888860405160008152602001604052604051808581526020018460ff1681526020018381526020018281526020019450505050506020604051602081039080840390855afa158015611927573d6000803e3d6000fd5b5050604051601f190151915061196990506001600160a01b0382161580159061196157508b6001600160a01b0316826001600160a01b0316145b6101f8611d0e565b6001600160a01b038b1660009081526006602052604090206001850190556119928b8b8b611b90565b5050505050505050505050565b606080886119ae610ef1611309565b6119b9610f17610ae6565b6119c1611e04565b60006119cb610843565b611a3b576119db8b8b8b88612aa6565b945090506119f0620f424082101560cc611d0e565b6119fe6000620f4240612b30565b611a0d89620f42408303612b30565b611a1684612760565b6040805160028082526060820183529091602083019080368337019050509250611aa9565b611a4488612624565b611a778789600081518110611a5557fe5b60200260200101518a600181518110611a6a57fe5b6020026020010151612b3a565b611a868b8b8b8b8b8b8b612690565b90955093509050611a978982612b30565b611aa084612760565b611aa9836122e1565b611ab1611e57565b505097509795505050505050565b6000611ac9611309565b6001600160a01b0316826001600160a01b03161415611aeb5750600019610778565b611af58383612b3f565b9050610778565b6060610ac8612b6a565b6201de2090565b80611b1781612bd9565b5050565b6000611b2983836055611b54565b9392505050565b6000611b2983836056611b7b565b6000611b4e838311156001611d0e565b50900390565b60006001821b1984168284611b6a576000611b6d565b60015b60ff16901b17949350505050565b6001600160401b03811b1992909216911b1790565b6001600160a01b03808416600081815260016020908152604080832094871680845294825291829020859055815185815291517f8c5be1e5ebec7d5bd14f71427d1e84f3dd0314c0f7b2291e5b200ac8c7c3b9259281900390910190a3505050565b6000611c096000356001600160e01b031916611267565b9050610840611c188233612c52565b610191611d0e565b8015611c4057611c3b611c31611cb9565b4210610193611d0e565b611c55565b611c55611c4b611cdd565b42106101a9611d0e565b6007805482151560ff19909116811790915560408051918252517f9e3a5e37224532dea67b89face185703738a228a6e8a23dee546960180d3be649181900360200190a150565b6000611ca6611cdd565b421180610ac857505060075460ff161590565b7f000000000000000000000000000000000000000000000000000000000000000090565b7f000000000000000000000000000000000000000000000000000000000000000090565b6000610ac8600954612199565b81611b1757611b1781612d54565b611d336001600160a01b0384161515610198611d0e565b611d4a6001600160a01b0383161515610199611d0e565b611d55838383612b3a565b6001600160a01b038316600090815260208190526040902054611d7b90826101a0612da7565b6001600160a01b038085166000908152602081905260408082209390935590841681522054611daa9082612032565b6001600160a01b038084166000818152602081815260409182902094909455805185815290519193928716927fddf252ad1be2c89b69c2b068fc378daa952ba7f163c4a11628f55a4df523b3ef92918290030190a3505050565b610a3b611e0f611c9c565b610192611d0e565b600954611e249082611b1b565b6009556040517f3e350b41e86a8e10f804ade6d35340d620be35569cc75ac943e8bb14ab80ead1906108249083906151cd565b600954611e63816121a6565b1561084057611e7d611e76600a54612dbd565b8290612dfd565b9050611e99611e92611e8d610843565b612dbd565b8290612e0a565b60095550565b6000611eab8282612e18565b611eb684601f612e1c565b611ec1866054612e2d565b611ecc88606a612e1c565b611ed78a609f612e2d565b611ee28c60b5612e1c565b611eed8e60ea612e2d565b17171717171798975050505050505050565b60006107788282612e3a565b60007f00000000000000000000000000000000000000000000000000000000000000007f00000000000000000000000000000000000000000000000000000000000000007f0000000000000000000000000000000000000000000000000000000000000000611f78612e44565b3060405160200180868152602001858152602001848152602001838152602001826001600160a01b031681526020019550505050505060405160208183030381529060405280519060200120905090565b611fdc64e8d4a5100082101560cb611d0e565b611ff267016345785d8a000082111560ca611d0e565b600954611fff9082611b30565b6009556040517fa9ba3ffe0b6c366b81232caab38605a0699ad5398d6cce76f91ee809e322dafc906108249083906151f0565b6000828201611b298482101583611d0e565b600081612071577f0000000000000000000000000000000000000000000000000000000000000000610778565b507f0000000000000000000000000000000000000000000000000000000000000000919050565b6000611b2983836124e7565b604080516002808252606082018352600092839283928392602083019080368337019050509050846120d657856120d8565b865b816000815181106120e557fe5b602002602001018181525050846120fc57866120fe565b855b8160018151811061210b57fe5b60200260200101818152505060006121216125fe565b905061212f82826000611815565b9450600061213d8287612e48565b90508661214e576020810151612151565b80515b94508661215f578051612165565b60208101515b935050505093509350939050565b60006107788282612e7c565b6000610778826016612e7c565b600061077882602c612e3a565b600061077882604b612ea3565b6000610778826055612eab565b6000610778826056612eb5565b611b178183146067611d0e565b600060608060006121dc6125fe565b90506121e6611c9c565b156122955760006122018983835b602002015184600161181e565b9050600061220f8383612e48565b905061225e898b60008151811061222257fe5b60200260200101518c60018151811061223757fe5b60200260200101518460006002811061224c57fe5b602002015185600160200201516127c2565b61226782612ec2565b6122718a88612eef565b909650945061228a8287612283610843565b6000612f3b565b600a55506122ab9050565b61229f8886612eef565b600019600a5590945092505b60408051600280825260608201835286928692919060208301908036833701905050935093509350509750975097945050505050565b612308816000815181106122f157fe5b60200260200101516123036001612044565b612f93565b8160008151811061231557fe5b6020026020010181815250506123438160018151811061233157fe5b60200260200101516123036000612044565b8160018151811061235057fe5b60200260200101818152505050565b33301461241d576000306001600160a01b03166000366040516123839291906150fc565b6000604051808303816000865af19150503d80600081146123c0576040519150601f19603f3d011682016040523d82523d6000602084013e6123c5565b606091505b5050905080600081146123d457fe5b60046000803e6000516001600160e01b0319166343adbafb60e01b81146123ff573d6000803e3d6000fd5b506020600460003e604060205260243d03602460403e601c3d016000f35b61242686612624565b60008061243c8b8b8b8b8b8b8b8b63ffffffff16565b509150915061244e818463ffffffff16565b8051601f1982018390526343adbafb603f1983015260200260231982016044820181fd5b60009081526008602052604090205490565b600080600080600080600061249888612fb3565b96506124a388612fc0565b95506124ae88612fcd565b94506124b988612fda565b93506124c488612fe7565b92506124cf88612ff4565b91506124da88611eff565b9050919395979092949650565b6000828202611b2984158061250457508385838161250157fe5b04145b6003611d0e565b60008161251e5761251e60006004611d0e565b8261252b57506000610778565b670de0b6b3a76400008381029084828161254157fe5b04146125535761255360006005611d0e565b82818161255c57fe5b04949350505050565b6040516334171a8560e01b815260009073__QueryProcessor________________________906334171a85906125a690600890889088908890600401615275565b60206040518083038186803b1580156125be57600080fd5b505af41580156125d2573d6000803e3d6000fd5b505050506040513d601f19601f820116820180604052508101906125f69190614ebb565b949350505050565b612606614887565b6126106001613001565b815261261c6000613001565b602082015290565b61264b8160008151811061263457fe5b60200260200101516126466001612044565b6124e7565b8160008151811061265857fe5b6020026020010181815250506123438160018151811061267457fe5b60200260200101516126466000612044565b611b178282613055565b6000606080600061269f6125fe565b905060006126ae8983836121f4565b905060006126bc8383612e48565b90506126cf898b60008151811061222257fe5b6126d882612ec2565b6000806126e58c8a61310c565b600b54919350915060ff161561270f5761270f826127028f610ec3565b61270a610843565b613146565b612723848361271c610843565b6001612f3b565b600a556040805160028082526060820183528492849291906020830190803683370190505097509750975050505050509750975097945050505050565b6127878160008151811061277057fe5b60200260200101516127826001612044565b613258565b8160008151811061279457fe5b602002602001018181525050612343816001815181106127b057fe5b60200260200101516127826000612044565b6009546127ce816121a6565b80156127d957508543115b156128645760006127ec8685878661328b565b90506000612805878688876128008861217f565b6132a5565b9050600061281284612199565b9050600061281f8561218c565b90506000612838828487876128338b612173565b6132e9565b90508083146119925761284b8682613340565b9550612857864261334e565b6009819055955050505050505b505050505050565b600082820283158061288657508284828161288357fe5b04145b6128965761289660006003611d0e565b806128a5576000915050610778565b670de0b6b3a764000060001982015b0460010191505092915050565b600082821115611b4e57611b4e60006001611d0e565b60006128ea85858860600151868661335c565b90505b95945050505050565b6000611b298383612f93565b60006128ea8585886060015186866133c6565b6000611b298383613258565b6000670de0b6b3a76400008210612939576000610778565b50670de0b6b3a76400000390565b60008161295a5761295a60006004611d0e565b8261296757506000610778565b670de0b6b3a76400008381029084828161297d57fe5b04146129a1576129a1670de0b6b3a764000085838161299857fe5b04146005611d0e565b8260018203816128b457fe5b60006129b7611309565b6001600160a01b031663aaabadc56040518163ffffffff1660e01b815260040160206040518083038186803b1580156129ef57600080fd5b505afa158015612a03573d6000803e3d6000fd5b505050506040513d601f19601f82011682018060405250810190610ac891906149ca565b6000806000806000612a3a888888613426565b9350935093509350612a4e848484846135a0565b98975050505050505050565b6000612a64611f0b565b82604051602001808061190160f01b81525060020183815260200182815260200192505050604051602081830303815290604052805190602001209050919050565b600060606000612ab584613614565b9050612ad06000826003811115612ac857fe5b1460ce611d0e565b6000612adb85613633565b9050612ae9815160026121c0565b612af281612624565b6000612afc6125fe565b90506000612b0b8383836121f4565b90506000612b1a8260026124e7565b600a929092555099919850909650505050505050565b611b1782826136e7565b505050565b6001600160a01b03918216600090815260016020908152604080832093909416825291909152205490565b60408051600280825260608083018452926000929190602083019080368337019050509050612b99600161377c565b81600081518110612ba657fe5b602002602001018181525050612bbc600061377c565b81600181518110612bc957fe5b6020908102919091010152905090565b600281511015612be857610840565b600081600081518110612bf757fe5b602002602001015190506000600190505b8251811015612b3a576000838281518110612c1f57fe5b60200260200101519050612c48816001600160a01b0316846001600160a01b0316106065611d0e565b9150600101612c08565b600073ba1ba1ba1ba1ba1ba1ba1ba1ba1ba1ba1ba1ba1b612c716112e5565b6001600160a01b031614158015612c8c5750612c8c836137d0565b15612cb457612c996112e5565b6001600160a01b0316336001600160a01b0316149050610778565b612cbc6129ad565b6001600160a01b0316639be2a8848484306040518463ffffffff1660e01b815260040180848152602001836001600160a01b03168152602001826001600160a01b03168152602001935050505060206040518083038186803b158015612d2157600080fd5b505afa158015612d35573d6000803e3d6000fd5b505050506040513d6020811015612d4b57600080fd5b50519050610778565b62461bcd60e51b6000908152602060045260076024526642414c23000030600a808404818106603090810160081b95839006959095019082900491820690940160101b939093010160c81b604452606490fd5b6000612db68484111583611d0e565b5050900390565b600080612dc983613802565b90506000808213612de257652d79883d20008203612dec565b652d79883d200082015b655af3107a40009005949350505050565b6000611b29838383613866565b6000611b2983836016613866565b1b90565b661fffffffffffff91909116901b90565b623fffff91909116901b90565b1c637fffffff1690565b4690565b612e50614887565b612e63600184815b60200201518461387d565b8152612e7160008481612e58565b602082015292915050565b600082821c623fffff16621fffff8113612e9657806125f6565b623fffff19179392505050565b1c6103ff1690565b1c60019081161490565b1c6001600160401b031690565b600080600080612ed4600a548661389d565b9350935093509350612ee884848484613906565b5050505050565b600060606000612efe84613614565b90506001816003811115612f0e57fe5b1415612f2857612f1e8585613926565b9093509150612f33565b612f33610150612d54565b509250929050565b60008115612f6d576000612f5984612f53888861286c565b90612947565b9050612f658682613958565b9150506125f6565b6000612f7d84610de88888613970565b9050612f8986826128c1565b9695505050505050565b6000612fa28215156004611d0e565b818381612fab57fe5b049392505050565b60006107788260ea612e7c565b60006107788260b56139a9565b600061077882609f612e7c565b600061077882606a6139a9565b6000610778826054612e7c565b600061077882601f6139a9565b60008161302e577f0000000000000000000000000000000000000000000000000000000000000000610778565b507f0000000000000000000000000000000000000000000000000000000000000000919050565b61306c6001600160a01b038316151561019b611d0e565b61307882600083612b3a565b6001600160a01b03821660009081526020819052604090205461309e90826101a1612da7565b6001600160a01b0383166000908152602081905260409020556002546130c490826139dc565b6002556040805182815290516000916001600160a01b038516917fddf252ad1be2c89b69c2b068fc378daa952ba7f163c4a11628f55a4df523b3ef9181900360200190a35050565b60006060600061311b84613614565b9050600381600381111561312b57fe5b141561313b57612f1e85856139ea565b612f33610136612d54565b60408051606081018252600b5460ff81161515825261010081046001600160781b031660208301819052600160801b9091046001600160801b031692820192909252906131938585613958565b11156040518060400160405280601a81526020017f6f7665722061646472657373206c697175696469747920636170000000000000815250906131e95760405162461bcd60e51b81526004016107cf91906152d4565b5060408101516001600160801b03166132028584613958565b11156040518060400160405280601981526020017f6f76657220676c6f62616c206c6971756964697479206361700000000000000081525090612ee85760405162461bcd60e51b81526004016107cf91906152d4565b60006132678215156004611d0e565b8261327457506000610778565b81600184038161328057fe5b046001019050610778565b60008061329a86868686613a0f565b9050612f8981612dbd565b6000806132b487878787613a0f565b905060006132cc6132c5878461286c565b8990613958565b905060006132d982612dbd565b9490940398975050505050505050565b600080613305858585426132fc8b612472565b93929190613a37565b905060784288900310158061331a5786613323565b61332387613a89565b600081815260086020526040902092909255509695505050505050565b6000611b298383604b613a96565b6000611b298383602c613aa6565b60008061337b61337485670de0b6b3a764000261286c565b8890613958565b9050600061339461337485670de0b6b3a763ffff613970565b90506133ad6133a38388613958565b610de88389613970565b92505050848111156128ed576128ed6000610165613ab8565b6000848411156133dd576133dd6000610165613ab8565b60006133f461337485670de0b6b3a764000261286c565b9050600061340d61337485670de0b6b3a763ffff613970565b9050612a4e61341c82886128c1565b612f53848961286c565b6000808080613447613438878761250b565b670de0b6b3a7640000906128c1565b93506000613472868960018151811061345c57fe5b602002602001015161250b90919063ffffffff16565b9050600061349d888a60008151811061348757fe5b602002602001015161397090919063ffffffff16565b90506134a98282613958565b94506134d0896001815181106134bb57fe5b60200260200101518a60008151811061348757fe5b9250505061350786613501886135018b6000815181106134ec57fe5b60200260200101518c60008151811061348757fe5b90613970565b9150600061354786610de889613501670de0b6b3a76400006002026135018e60018151811061353257fe5b60200260200101518f60008151811061348757fe5b9050600061357d613558888061286c565b610de88b60018151811061356857fe5b60200260200101518c60018151811061348757fe5b90506135938161358d8685613958565b90613958565b9350505093509350935093565b6000806135b586671bc16d674ec8000061286c565b905060006135cf8761350186673782dace9d900000613970565b905060006135dd8683613958565b905060006135ec826005613ac6565b905060006135fa8983613958565b9050613606818661250b565b9a9950505050505050505050565b600081806020019051602081101561362b57600080fd5b505192915050565b606081806020019051604081101561364a57600080fd5b81516020830180516040519294929383019291908464010000000082111561367157600080fd5b90830190602082018581111561368657600080fd5b82518660208202830111640100000000821117156136a357600080fd5b82525081516020918201928201910280838360005b838110156136d05781810151838201526020016136b8565b505050509190910160405250929695505050505050565b6136f360008383612b3a565b6002546137009082612032565b6002556001600160a01b0382166000908152602081905260409020546137269082612032565b6001600160a01b0383166000818152602081815260408083209490945583518581529351929391927fddf252ad1be2c89b69c2b068fc378daa952ba7f163c4a11628f55a4df523b3ef9281900390910190a35050565b6000816137a9577f0000000000000000000000000000000000000000000000000000000000000000610778565b507f0000000000000000000000000000000000000000000000000000000000000000919050565b60006137e2631c74c91760e11b611267565b82148061077857506137fa6350dd6ed960e01b611267565b909114919050565b6000613812600083136064611d0e565b670c7d713b49da0000821380156138305750670f43fc2c04ee000082125b1561385657670de0b6b3a764000061384783613c54565b8161384e57fe5b059050610edd565b61385f82613d72565b9050610edd565b623fffff828116821b90821b198416179392505050565b6000836138935761388e8284614111565b6125f6565b6125f6828461411d565b6000806000806000806000806138b1614129565b935093509350935083600014156138d6576000975087965090945092506138fd915050565b6000806138ed8c8c6138e6610843565b8989614398565b909a509850929650909450505050505b92959194509250565b8315613916576139168285612b30565b8215610ab857610ab88184612b30565b6000606060006139358461442d565b9050600061394b8683613946610843565b61444f565b9196919550909350505050565b600082820183811015611b2957611b29600080611d0e565b600082820283158061398a57508284828161398757fe5b04145b61399a5761399a60006003611d0e565b670de0b6b3a76400008161255c565b600082821c661fffffffffffff16660fffffffffffff81136139cb57806125f6565b661fffffffffffff19179392505050565b6000611b2983836001612da7565b6000606060006139f98461442d565b9050600061394b8683613a0a610843565b6144d4565b60006706f05b59d3b20000612f89613a2b82612f538787613958565b612f5383818a8a613958565b600080613a4387611eff565b830390506000818702613a5589612fc0565b0190506000828702613a668a612fda565b0190506000838702613a778b612ff4565b01905061360689848a858b868c611e9f565b600061077882600161456f565b6103ff811b1992909216911b1790565b637fffffff811b1992909216911b1790565b81611b1757611b1781614577565b600082613ad557506000610778565b6000613ae084614587565b9050600281670de0b6b3a7640000860281613af757fe5b04820181613b0157fe5b049050600281670de0b6b3a7640000860281613b1957fe5b04820181613b2357fe5b049050600281670de0b6b3a7640000860281613b3b57fe5b04820181613b4557fe5b049050600281670de0b6b3a7640000860281613b5d57fe5b04820181613b6757fe5b049050600281670de0b6b3a7640000860281613b7f57fe5b04820181613b8957fe5b049050600281670de0b6b3a7640000860281613ba157fe5b04820181613bab57fe5b049050600281670de0b6b3a7640000860281613bc357fe5b04820181613bcd57fe5b0490506000613bdc8280613970565b9050613bf2613beb838661286c565b8690613958565b8111158015613c145750613c10613c09838661286c565b86906128c1565b8110155b61165c576040805162461bcd60e51b815260206004820152600c60248201526b17dcdc5c9d0811905253115160a21b604482015290519081900360640190fd5b670de0b6b3a7640000026000806a0c097ce7bc90715b34b9f160241b808401906ec097ce7bc90715b34b9f0fffffffff1985010281613c8f57fe5b05905060006a0c097ce7bc90715b34b9f160241b82800205905081806a0c097ce7bc90715b34b9f160241b81840205915060038205016a0c097ce7bc90715b34b9f160241b82840205915060058205016a0c097ce7bc90715b34b9f160241b82840205915060078205016a0c097ce7bc90715b34b9f160241b82840205915060098205016a0c097ce7bc90715b34b9f160241b828402059150600b8205016a0c097ce7bc90715b34b9f160241b828402059150600d8205016a0c097ce7bc90715b34b9f160241b828402059150600f826002919005919091010295945050505050565b6000670de0b6b3a7640000821215613dae57613da4826a0c097ce7bc90715b34b9f160241b81613d9e57fe5b05613d72565b6000039050610edd565b60007e1600ef3172e58d2e933ec884fde10064c63b5372d805e203c00000000000008312613dff57770195e54c5dd42177f53a27172fa9ec630262827000000000830592506806f05b59d3b2000000015b73011798004d755d3c8bc8e03204cf44619e0000008312613e37576b1425982cf597cd205cef7380830592506803782dace9d9000000015b606492830292026e01855144814a7ff805980ff00840008312613e7f576e01855144814a7ff805980ff008400068056bc75e2d63100000840205925068ad78ebc5ac62000000015b6b02df0ab5a80a22c61ab5a7008312613eba576b02df0ab5a80a22c61ab5a70068056bc75e2d6310000084020592506856bc75e2d631000000015b693f1fce3da636ea5cf8508312613ef157693f1fce3da636ea5cf85068056bc75e2d631000008402059250682b5e3af16b18800000015b690127fa27722cc06cc5e28312613f2857690127fa27722cc06cc5e268056bc75e2d6310000084020592506815af1d78b58c400000015b68280e60114edb805d038312613f5d5768280e60114edb805d0368056bc75e2d631000008402059250680ad78ebc5ac6200000015b680ebc5fb417461211108312613f8857680ebc5fb4174612111068056bc75e2d631000009384020592015b6808f00f760a4b2db55d8312613fbd576808f00f760a4b2db55d68056bc75e2d6310000084020592506802b5e3af16b1880000015b6806f5f17757889379378312613ff2576806f5f177578893793768056bc75e2d63100000840205925068015af1d78b58c40000015b6806248f33704b2866038312614026576806248f33704b28660368056bc75e2d63100000840205925067ad78ebc5ac620000015b6805c548670b9510e7ac831261405a576805c548670b9510e7ac68056bc75e2d6310000084020592506756bc75e2d6310000015b600068056bc75e2d63100000840168056bc75e2d63100000808603028161407d57fe5b059050600068056bc75e2d63100000828002059050818068056bc75e2d63100000818402059150600382050168056bc75e2d63100000828402059150600582050168056bc75e2d63100000828402059150600782050168056bc75e2d63100000828402059150600982050168056bc75e2d63100000828402059150600b820501600202606485820105979650505050505050565b6000611b298383613970565b6000611b29838361250b565b600e5460405163bd02d0f560e01b81526000918291829182916001600160a01b039091169063bd02d0f59061417b907550524f544f434f4c5f535741505f4645455f5045524360501b906004016151f0565b60206040518083038186803b15801561419357600080fd5b505afa1580156141a7573d6000803e3d6000fd5b505050506040513d601f19601f820116820180604052508101906141cb9190614ebb565b600e5460405163bd02d0f560e01b81526001600160a01b039091169063bd02d0f59061421b907f50524f544f434f4c5f4645455f4759524f5f504f5254494f4e00000000000000906004016151f0565b60206040518083038186803b15801561423357600080fd5b505afa158015614247573d6000803e3d6000fd5b505050506040513d601f19601f8201168201806040525081019061426b9190614ebb565b600e546040516321f8a72160e01b81526001600160a01b03909116906321f8a721906142ab906c4759524f5f545245415355525960981b906004016151f0565b60206040518083038186803b1580156142c357600080fd5b505afa1580156142d7573d6000803e3d6000fd5b505050506040513d601f19601f820116820180604052508101906142fb91906149ca565b600e546040516321f8a72160e01b81526001600160a01b03909116906321f8a7219061433a906b42414c5f545245415355525960a01b906004016151f0565b60206040518083038186803b15801561435257600080fd5b505afa158015614366573d6000803e3d6000fd5b505050506040513d601f19601f8201168201806040525081019061438a91906149ca565b935093509350935090919293565b6000808686116143ad57506000905080614423565b60006143c7856135016143c08a8c6128c1565b8990613970565b905060006143df6143d8898b6128c1565b8790613970565b905060006143ed89836128c1565b905060006143fb848361250b565b905060006144098883613970565b9050600061441783836128c1565b91975090955050505050505b9550959350505050565b600081806020019051604081101561444457600080fd5b506020015192915050565b606083516001600160401b038111801561446857600080fd5b50604051908082528060200260200182016040528015614492578160200160208202803683370190505b50905060005b845181101561165c576144b583610de88688858151811061348757fe5b8282815181106144c157fe5b6020908102919091010152600101614498565b606083516001600160401b03811180156144ed57600080fd5b50604051908082528060200260200182016040528015614517578160200160208202803683370190505b50905060005b845181101561165c5761455083612f538688858151811061453a57fe5b602002602001015161286c90919063ffffffff16565b82828151811061455c57fe5b602090810291909101015260010161451d565b016103ff1690565b610840816223aca960e91b614759565b6000670de0b6b3a764000082106145b457670de0b6b3a76400006145ac8184046147ba565b1b9050610edd565b600a82116145c7575063bc7c871c610edd565b606482116145db57506402540be400610edd565b6103e882116145f0575064075cdd4719610edd565b6127108211614605575064174876e800610edd565b620186a0821161461b57506449a0a4c700610edd565b620f42408211614631575064e8d4a51000610edd565b62989680821161464857506502e0466fc608610edd565b6305f5e100821161466057506509184e72a000610edd565b633b9aca0082116146785750651cc2c05dbc53610edd565b6402540be40082116146915750655af3107a4000610edd565b64174876e80082116146ab575066011f9b83a95b45610edd565b64e8d4a5100082116146c5575066038d7ea4c68000610edd565b6509184e72a00082116146e05750660b3c13249d90bb610edd565b655af3107a400082116146fb5750662386f26fc10000610edd565b66038d7ea4c6800082116147175750667058bf6e27a751610edd565b662386f26fc100008211614734575067016345785d8a0000610edd565b67016345785d8a000082116147525750670463777a4d8c892d610edd565b5080610edd565b62461bcd60e51b600090815260206004526007602452600a808404818106603090810160081b958390069590950190829004918206850160101b01602363ffffff0060e086901c160160181b0190930160c81b60445260e882901c90606490fd5b6000600160801b82106147d25760809190911c906040015b6801000000000000000082106147ed5760409190911c906020015b64010000000082106148045760209190911c906010015b6201000082106148195760109190911c906008015b610100821061482d5760089190911c906004015b601082106148405760049190911c906002015b60048210610edd57600101919050565b604080516060810182526000808252602082018190529181019190915290565b604080518082019091526000808252602082015290565b60405180604001604052806002906020820280368337509192915050565b8035610edd81615404565b600082601f8301126148c0578081fd5b815160206148d56148d0836153e7565b6153c4565b82815281810190858301838502870184018810156148f1578586fd5b855b8581101561490f578151845292840192908401906001016148f3565b5090979650505050505050565b80358015158114610edd57600080fd5b600082601f83011261493c578081fd5b81356001600160401b0381111561494f57fe5b614962601f8201601f19166020016153c4565b818152846020838601011115614976578283fd5b816020850160208301379081016020019190915292915050565b803560028110610edd57600080fd5b803560038110610edd57600080fd5b6000602082840312156149bf578081fd5b8135611b2981615404565b6000602082840312156149db578081fd5b8151611b2981615404565b600080604083850312156149f8578081fd5b8235614a0381615404565b91506020830135614a1381615404565b809150509250929050565b600080600060608486031215614a32578081fd5b8335614a3d81615404565b92506020840135614a4d81615404565b929592945050506040919091013590565b600080600080600080600060e0888a031215614a78578485fd5b8735614a8381615404565b96506020880135614a9381615404565b95506040880135945060608801359350608088013560ff81168114614ab6578384fd5b9699959850939692959460a0840135945060c09093013592915050565b60008060408385031215614ae5578182fd5b8235614af081615404565b946020939093013593505050565b600080600060608486031215614b12578081fd5b83516001600160401b0380821115614b28578283fd5b818601915086601f830112614b3b578283fd5b81516020614b4b6148d0836153e7565b82815281810190858301838502870184018c1015614b67578788fd5b8796505b84871015614b92578051614b7e81615404565b835260019690960195918301918301614b6b565b5091890151919750909350505080821115614bab578283fd5b50614bb8868287016148b0565b925050604084015190509250925092565b60006020808385031215614bdb578182fd5b82356001600160401b0380821115614bf1578384fd5b818501915085601f830112614c04578384fd5b8135614c126148d0826153e7565b818152848101908486016040808502870188018b1015614c30578889fd5b8896505b84871015614c885780828c031215614c4a578889fd5b80518181018181108882111715614c5d57fe5b8252614c688361499f565b815282890135898201528452600196909601959287019290810190614c34565b50909998505050505050505050565b60006020808385031215614ca9578182fd5b82356001600160401b0380821115614cbf578384fd5b818501915085601f830112614cd2578384fd5b8135614ce06148d0826153e7565b818152848101908486016060808502870188018b1015614cfe578889fd5b8896505b84871015614c885780828c031215614d18578889fd5b604080518281018181108982111715614d2d57fe5b8252614d388461499f565b8152838a01358a82015281840135918101919091528452600196909601959287019290810190614d02565b600060208284031215614d74578081fd5b611b298261491c565b600080600080600080600060e0888a031215614d97578081fd5b87359650602080890135614daa81615404565b96506040890135614dba81615404565b955060608901356001600160401b0380821115614dd5578384fd5b818b0191508b601f830112614de8578384fd5b8135614df66148d0826153e7565b8082825285820191508585018f878886028801011115614e14578788fd5b8795505b83861015614e36578035835260019590950194918601918601614e18565b509850505060808b0135955060a08b0135945060c08b0135925080831115614e5c578384fd5b5050614e6a8a828b0161492c565b91505092959891949750929550565b600060208284031215614e8a578081fd5b81356001600160e01b031981168114611b29578182fd5b600060208284031215614eb2578081fd5b611b298261499f565b600060208284031215614ecc578081fd5b5051919050565b600060608284031215614ee4578081fd5b604051606081018181106001600160401b0382111715614f0057fe5b604052614f0c8361491c565b815260208301356001600160781b0381168114614f27578283fd5b602082015260408301356001600160801b0381168114614f45578283fd5b60408201529392505050565b600080600060608486031215614f65578081fd5b83356001600160401b0380821115614f7b578283fd5b8186019150610120808389031215614f91578384fd5b614f9a816153c4565b9050614fa583614990565b8152614fb3602084016148a5565b6020820152614fc4604084016148a5565b6040820152606083013560608201526080830135608082015260a083013560a0820152614ff360c084016148a5565b60c082015261500460e084016148a5565b60e0820152610100808401358381111561501c578586fd5b6150288a82870161492c565b9183019190915250976020870135975060409096013595945050505050565b600060208284031215615058578081fd5b5035919050565b60008060408385031215615071578182fd5b50508035926020909101359150565b600080600060608486031215615094578081fd5b83359250602084013591506150ab6040850161491c565b90509250925092565b6000815180845260208085019450808401835b838110156150e3578151875295820195908201906001016150c7565b509495945050505050565b600381106150f857fe5b9052565b6000828483379101908152919050565b6001600160a01b0391909116815260200190565b6020808252825182820181905260009190848201906040850190845b818110156151585783518352928401929184019160010161513c565b50909695505050505050565b60408101818360005b600281101561518c57815183526020928301929091019060010161516d565b50505092915050565b600060208252611b2960208301846150b4565b6000604082526151bb60408301856150b4565b82810360208401526128ed81856150b4565b901515815260200190565b92151583526020830191909152604082015260600190565b90815260200190565b968752602087019590955260408601939093526060850191909152608084015260a083015260c082015260e00190565b9586526020860194909452604085019290925260608401521515608083015260a082015260c00190565b8381526060810161526760208301856150ee565b826040830152949350505050565b8481526080810161528960208301866150ee565b60408201939093526060015292915050565b600060a0820190508482526152b46020830185516150ee565b602084015160408381019190915290930151606082015260800152919050565b6000602080835283518082850152825b81811015615300578581018301518582016040015282016152e4565b818111156153115783604083870101525b50601f01601f1916929092016040019392505050565b8151151581526020808301516001600160781b0316908201526040918201516001600160801b03169181019190915260600190565b905460ff811615158252600881901c6001600160781b0316602083015260801c604082015260600190565b6000838252604060208301526125f660408301846150b4565b9283526020830191909152604082015260600190565b60ff91909116815260200190565b6040518181016001600160401b03811182821017156153df57fe5b604052919050565b60006001600160401b038211156153fa57fe5b5060209081020190565b6001600160a01b038116811461084057600080fdfea2646970667358221220c1bd3cf4a6669393e64aa4d972c42fd8b3d7300e0c882f1954f732fc5124294764736f6c63430007060033","bytecodeSha1":"bb780b18a965dddca4462d83a8dc6c9a1cb6fa21","compiler":{"evm_version":"berlin","optimizer":{"enabled":true,"runs":200},"version":"0.7.6+commit.7338295f"},"contractName":"Gyro2CLPPool","deployedBytecode":"608060405234801561001057600080fd5b50600436106103275760003560e01c8063707dcd1e116101b85780639b02cdde11610104578063b48b5b40116100a2578063d5c096c41161007c578063d5c096c41461069b578063dd62ed3e146106ae578063f89f27ed146106c1578063ffd088eb146106c957610327565b8063b48b5b4014610678578063c0ff1a1514610680578063d505accf1461068857610327565b8063a9059cbb116100de578063a9059cbb14610642578063aaabadc514610655578063abd13afe1461065d578063b10be7391461066557610327565b80639b02cdde146106145780639d2c110c1461061c578063a457c2d71461062f57610327565b80638456cb5911610171578063893d20e81161014b578063893d20e8146105f45780638d928af8146105fc5780638dd9f89d1461060457806395d89b411461060c57610327565b80638456cb59146105c6578063851c1bb3146105ce57806387ec6817146105e157610327565b8063707dcd1e1461054457806370a082311461055957806374f3b0091461056c57806376e54a461461058d5780637ecebe00146105a05780638002df18146105b357610327565b806338fff2d0116102775780634a6b0b151161023057806360d1507c1161020a57806360d1507c146104ee578063679aefce146105145780636b8432391461051c5780636d785a871461053c57610327565b80634a6b0b15146104ab57806355c67628146104c55780636028bfd4146104cd57610327565b806338fff2d01461043c57806339509351146104445780633aeae0d3146104575780633c4dd5bb1461046c5780633f4ba83a1461048e57806344bbdb551461049657610327565b80631dccd830116102e4578063313ce567116102be578063313ce567146103f95780633331bc361461040e5780633644e5151461042157806338e9922e1461042957610327565b80631dccd830146103be57806323b872dd146103de578063292c914a146103f157610327565b806306fdde031461032c578063095ea7b31461034a5780630e608b301461036a57806316c38b3c1461037f57806318160ddd146103925780631c0de051146103a7575b600080fd5b6103346106d1565b60405161034191906152d4565b60405180910390f35b61035d610358366004614ad3565b610767565b60405161034191906151cd565b61037d6103783660046149ae565b61077e565b005b61037d61038d366004614d63565b61082f565b61039a610843565b60405161034191906151f0565b6103af610849565b604051610341939291906151d8565b6103d16103cc366004614c97565b610872565b6040516103419190615195565b61035d6103ec366004614a1e565b610995565b61037d610a09565b610401610a3d565b60405161034191906153b6565b61037d61041c36600461505f565b610a46565b61039a610abe565b61037d610437366004615047565b610acd565b61039a610ae6565b61035d610452366004614ad3565b610b0a565b61045f610b45565b6040516103419190615327565b61047f61047a366004615080565b610b90565b604051610341939291906153a0565b61037d610be3565b61049e610cd8565b604051610341919061510c565b6104b3610ce7565b60405161034196959493929190615229565b61039a610d42565b6104e06104db366004614d7d565b610d4f565b604051610341929190615387565b6105016104fc366004615047565b610d80565b60405161034197969594939291906151f9565b61039a610dc9565b61052f61052a366004614bc9565b610dee565b6040516103419190615120565b61049e610ea4565b61054c610eb3565b6040516103419190615164565b61039a6105673660046149ae565b610ec3565b61057f61057a366004614d7d565b610ee2565b6040516103419291906151a8565b61037d61059b366004614ed3565b610f87565b61039a6105ae3660046149ae565b6110ae565b61037d6105c13660046149ae565b6110c9565b61037d6111af565b61039a6105dc366004614e79565b611267565b6104e06105ef366004614d7d565b6112c0565b61049e6112e5565b61049e611309565b6103d161132d565b610334611437565b61039a611498565b61039a61062a366004614f51565b61149e565b61035d61063d366004614ad3565b611664565b61035d610650366004614ad3565b6116a2565b61049e6116af565b61049e6116b9565b61039a610673366004614ea1565b6116c8565b61039a61175d565b61039a611763565b61037d610696366004614a5e565b61182f565b61057f6106a9366004614d7d565b61199f565b61039a6106bc3660046149e6565b611abf565b6103d1611afc565b61039a611b06565b60038054604080516020601f600260001961010060018816150201909516949094049384018190048102820181019092528281526060939092909183018282801561075d5780601f106107325761010080835404028352916020019161075d565b820191906000526020600020905b81548152906001019060200180831161074057829003601f168201915b5050505050905090565b6000610774338484611b90565b5060015b92915050565b600c5460408051808201909152600e81526d1b9bdd08185d5d1a1bdc9a5e995960921b6020820152906001600160a01b031633146107d85760405162461bcd60e51b81526004016107cf91906152d4565b60405180910390fd5b50600c80546001600160a01b0319166001600160a01b0383161790556040517fb8fd9afc34c38fcd13b9a3b7646482eb1fddcefb40af2c70609972816eba32089061082490839061510c565b60405180910390a150565b610837611bf2565b61084081611c20565b50565b60025490565b6000806000610856611c9c565b159250610861611cb9565b915061086b611cdd565b9050909192565b606081516001600160401b038111801561088b57600080fd5b506040519080825280602002602001820160405280156108b5578160200160208202803683370190505b50905060006108c2611d01565b905060005b835181101561098e5773__$85f042f43089d976c21d0d184f206dc395$__6379eaef8260088684815181106108f857fe5b6020026020010151856040518463ffffffff1660e01b815260040161091f9392919061529b565b60206040518083038186803b15801561093757600080fd5b505af415801561094b573d6000803e3d6000fd5b505050506040513d601f19601f8201168201806040525081019061096f9190614ebb565b83828151811061097b57fe5b60209081029190910101526001016108c7565b5050919050565b6000806109a28533611abf565b90506109c6336001600160a01b03871614806109be5750838210155b61019e611d0e565b6109d1858585611d1c565b336001600160a01b038616148015906109ec57506000198114155b156109fe576109fe8533858403611b90565b506001949350505050565b610a11611e04565b610a19611bf2565b610a236001611e17565b6000610a2d610843565b1115610a3b57610a3b611e57565b565b60055460ff1690565b610a618183108015610a5a57506104008211155b6064611d0e565b6000610a766001600080600080600080611e9f565b9050825b82811015610ab857600081815260086020526040902054610a9a90611eff565b610ab05760008181526008602052604090208290555b600101610a7a565b50505050565b6000610ac8611f0b565b905090565b610ad5611bf2565b610add611e04565b61084081611fc9565b7f000000000000000000000000000000000000000000000000000000000000000090565b3360008181526001602090815260408083206001600160a01b03871684529091528120549091610774918590610b409086612032565b611b90565b610b4d614850565b5060408051606081018252600b5460ff81161515825261010081046001600160781b03166020830152600160801b90046001600160801b03169181019190915290565b600080600080610b9f85612044565b90506000610bad8615612044565b9050610bb98883612098565b9750610bc58782612098565b9650610bd28888886120a4565b945094509450505093509350939050565b600d546040805180820190915260118152703737ba103830bab9b29036b0b730b3b2b960791b6020820152906001600160a01b03163314610ca25760405162461bcd60e51b81526004018080602001828103825283818151815260200191508051906020019080838360005b83811015610c67578181015183820152602001610c4f565b50505050905090810190601f168015610c945780820380516001836020036101000a031916815260200191505b509250505060405180910390fd5b50610cad6000610837565b6040517f215385c8bfc731925ec8068d7baa50f6b6f34417cc7804f7273dc2c0b3db279090600090a1565b600e546001600160a01b031681565b60008060008060008060006009549050610d0081612173565b9650610d0b8161217f565b9550610d168161218c565b9450610d2181612199565b9350610d2c816121a6565b9250610d37816121b3565b915050909192939495565b6000610ac86009546121b3565b60006060610d5f865160026121c0565b610d74898989898989896121cd6122e161235f565b97509795505050505050565b6000806000806000806000610d9b610400891061013b611d0e565b6000610da689612472565b9050610db181612484565b959f949e50929c50909a509850965090945092505050565b6000610ac8610dd6610843565b610de8610de1611763565b60026124e7565b9061250b565b606081516001600160401b0381118015610e0757600080fd5b50604051908082528060200260200182016040528015610e31578160200160208202803683370190505b5090506000610e3e611d01565b9050610e48614870565b60005b8451811015610e9c57848181518110610e6057fe5b60200260200101519150610e7d8260000151848460200151612565565b848281518110610e8957fe5b6020908102919091010152600101610e4b565b505050919050565b600c546001600160a01b031681565b610ebb614887565b610ac86125fe565b6001600160a01b0381166000908152602081905260409020545b919050565b60608088610f0c610ef1611309565b6001600160a01b0316336001600160a01b03161460cd611d0e565b610f21610f17610ae6565b82146101f4611d0e565b610f2a87612624565b6000806000610f3e8d8d8d8d8d8d8d6121cd565b925092509250610f4e8c84612686565b610f57826122e1565b610f60816122e1565b610f68611c9c565b15610f7557610f75611e57565b909c909b509950505050505050505050565b600c5460408051808201909152600e81526d1b9bdd08185d5d1a1bdc9a5e995960921b6020820152906001600160a01b03163314610fd85760405162461bcd60e51b81526004016107cf91906152d4565b50600b5460408051808201909152601081526f1c1bdbdb081a5cc81d5b98d85c1c195960821b60208201529060ff166110245760405162461bcd60e51b81526004016107cf91906152d4565b508051600b8054602084015160408086015160ff19909316941515949094176fffffffffffffffffffffffffffffff0019166101006001600160781b0390921691909102176001600160801b03908116600160801b919092160217815590517f2abf5970d7bc1a2b36eaae52dd2cc353edb0337c7284ef8a01973081b4e04424916108249161535c565b6001600160a01b031660009081526006602052604090205490565b600d546040805180820190915260118152703737ba103830bab9b29036b0b730b3b2b960791b60208201526001600160a01b039091169033821461114e5760405162461bcd60e51b8152602060048201818152835160248401528351909283926044909101919085019080838360008315610c67578181015183820152602001610c4f565b50600d80546001600160a01b0319166001600160a01b03848116918217909255604080519284168352602083019190915280517f1ffccd1fa96f4fb3415df8048a0fd107344e262d2d246c85105e2a3f8f3e81989281900390910190a15050565b600d546040805180820190915260118152703737ba103830bab9b29036b0b730b3b2b960791b6020820152906001600160a01b031633146112315760405162461bcd60e51b8152602060048201818152835160248401528351909283926044909101919085019080838360008315610c67578181015183820152602001610c4f565b5061123c6001610837565b6040517f681eace576127d0553b224436a09801fb47d042942cbff59d7d4ff04d8fa03d790600090a1565b604080517f00000000000000000000000000000000000000000000000000000000000000006020808301919091526001600160e01b03198416828401528251602481840301815260449092019092528051910120919050565b600060606112d0865160026121c0565b610d748989898989898961269061276061235f565b7f000000000000000000000000000000000000000000000000000000000000000090565b7f000000000000000000000000000000000000000000000000000000000000000090565b60606000611339611309565b6001600160a01b031663f94d466861134f610ae6565b6040518263ffffffff1660e01b815260040161136b91906151f0565b60006040518083038186803b15801561138357600080fd5b505afa158015611397573d6000803e3d6000fd5b505050506040513d6000823e601f3d908101601f191682016040526113bf9190810190614afe565b509150506113cc81612624565b611400816000815181106113dc57fe5b6020026020010151826001815181106113f157fe5b602002602001015160016120a4565b9091508360008151811061141057fe5b602002602001018460018151811061142457fe5b6020908102919091010191909152525090565b60048054604080516020601f600260001961010060018816150201909516949094049384018190048102820181019092528281526060939092909183018282801561075d5780601f106107325761010080835404028352916020019161075d565b600a5490565b60006114a8611e04565b83608001516114b8610ef1611309565b6114c3610f17610ae6565b60007f00000000000000000000000000000000000000000000000000000000000000006001600160a01b031686602001516001600160a01b0316149050600061150b82612044565b905060006115198315612044565b90506115258783612098565b96506115318682612098565b955060008060006115438a8a886120a4565b92509250925061158a8b60a001518761155c578a61155e565b8b5b88611569578c61156b565b8b5b896115765784611578565b855b8a6115835786611585565b855b6127c2565b60008b51600181111561159957fe5b14156116085760006115b76115ac610d42565b60608e01519061286c565b90506115d96115d3828e606001516128c190919063ffffffff16565b87612098565b60608d015260006115ed8d8d8d87876128d7565b90506115f981876128f6565b9950505050505050505061165c565b6116168b6060015185612098565b60608c0152600061162a8c8c8c8686612902565b90506116368187612915565b905061165261164b611646610d42565b612921565b8290612947565b9850505050505050505b509392505050565b6000806116713385611abf565b905080831061168b5761168633856000611b90565b611698565b6116983385858403611b90565b5060019392505050565b6000610774338484611d1c565b6000610ac86129ad565b600d546001600160a01b031681565b600073__$85f042f43089d976c21d0d184f206dc395$__630397bee06008846116ef611d01565b6040518463ffffffff1660e01b815260040161170d93929190615253565b60206040518083038186803b15801561172557600080fd5b505af4158015611739573d6000803e3d6000fd5b505050506040513d601f19601f820116820180604052508101906107789190614ebb565b61040090565b60008061176e611309565b6001600160a01b031663f94d4668611784610ae6565b6040518263ffffffff1660e01b81526004016117a091906151f0565b60006040518083038186803b1580156117b857600080fd5b505afa1580156117cc573d6000803e3d6000fd5b505050506040513d6000823e601f3d908101601f191682016040526117f49190810190614afe565b5091505060006118026125fe565b905061180d82612624565b611828828260005b60200201518360015b6020020151612a27565b9250505090565b61183d8442111560d1611d0e565b6001600160a01b0380881660008181526006602090815260408083205481517f00000000000000000000000000000000000000000000000000000000000000008185015280830195909552948b166060850152608084018a905260a0840185905260c08085018a90528151808603909101815260e090940190528251920191909120906118c982612a5a565b9050600060018288888860405160008152602001604052604051808581526020018460ff1681526020018381526020018281526020019450505050506020604051602081039080840390855afa158015611927573d6000803e3d6000fd5b5050604051601f190151915061196990506001600160a01b0382161580159061196157508b6001600160a01b0316826001600160a01b0316145b6101f8611d0e565b6001600160a01b038b1660009081526006602052604090206001850190556119928b8b8b611b90565b5050505050505050505050565b606080886119ae610ef1611309565b6119b9610f17610ae6565b6119c1611e04565b60006119cb610843565b611a3b576119db8b8b8b88612aa6565b945090506119f0620f424082101560cc611d0e565b6119fe6000620f4240612b30565b611a0d89620f42408303612b30565b611a1684612760565b6040805160028082526060820183529091602083019080368337019050509250611aa9565b611a4488612624565b611a778789600081518110611a5557fe5b60200260200101518a600181518110611a6a57fe5b6020026020010151612b3a565b611a868b8b8b8b8b8b8b612690565b90955093509050611a978982612b30565b611aa084612760565b611aa9836122e1565b611ab1611e57565b505097509795505050505050565b6000611ac9611309565b6001600160a01b0316826001600160a01b03161415611aeb5750600019610778565b611af58383612b3f565b9050610778565b6060610ac8612b6a565b6201de2090565b80611b1781612bd9565b5050565b6000611b2983836055611b54565b9392505050565b6000611b2983836056611b7b565b6000611b4e838311156001611d0e565b50900390565b60006001821b1984168284611b6a576000611b6d565b60015b60ff16901b17949350505050565b6001600160401b03811b1992909216911b1790565b6001600160a01b03808416600081815260016020908152604080832094871680845294825291829020859055815185815291517f8c5be1e5ebec7d5bd14f71427d1e84f3dd0314c0f7b2291e5b200ac8c7c3b9259281900390910190a3505050565b6000611c096000356001600160e01b031916611267565b9050610840611c188233612c52565b610191611d0e565b8015611c4057611c3b611c31611cb9565b4210610193611d0e565b611c55565b611c55611c4b611cdd565b42106101a9611d0e565b6007805482151560ff19909116811790915560408051918252517f9e3a5e37224532dea67b89face185703738a228a6e8a23dee546960180d3be649181900360200190a150565b6000611ca6611cdd565b421180610ac857505060075460ff161590565b7f000000000000000000000000000000000000000000000000000000000000000090565b7f000000000000000000000000000000000000000000000000000000000000000090565b6000610ac8600954612199565b81611b1757611b1781612d54565b611d336001600160a01b0384161515610198611d0e565b611d4a6001600160a01b0383161515610199611d0e565b611d55838383612b3a565b6001600160a01b038316600090815260208190526040902054611d7b90826101a0612da7565b6001600160a01b038085166000908152602081905260408082209390935590841681522054611daa9082612032565b6001600160a01b038084166000818152602081815260409182902094909455805185815290519193928716927fddf252ad1be2c89b69c2b068fc378daa952ba7f163c4a11628f55a4df523b3ef92918290030190a3505050565b610a3b611e0f611c9c565b610192611d0e565b600954611e249082611b1b565b6009556040517f3e350b41e86a8e10f804ade6d35340d620be35569cc75ac943e8bb14ab80ead1906108249083906151cd565b600954611e63816121a6565b1561084057611e7d611e76600a54612dbd565b8290612dfd565b9050611e99611e92611e8d610843565b612dbd565b8290612e0a565b60095550565b6000611eab8282612e18565b611eb684601f612e1c565b611ec1866054612e2d565b611ecc88606a612e1c565b611ed78a609f612e2d565b611ee28c60b5612e1c565b611eed8e60ea612e2d565b17171717171798975050505050505050565b60006107788282612e3a565b60007f00000000000000000000000000000000000000000000000000000000000000007f00000000000000000000000000000000000000000000000000000000000000007f0000000000000000000000000000000000000000000000000000000000000000611f78612e44565b3060405160200180868152602001858152602001848152602001838152602001826001600160a01b031681526020019550505050505060405160208183030381529060405280519060200120905090565b611fdc64e8d4a5100082101560cb611d0e565b611ff267016345785d8a000082111560ca611d0e565b600954611fff9082611b30565b6009556040517fa9ba3ffe0b6c366b81232caab38605a0699ad5398d6cce76f91ee809e322dafc906108249083906151f0565b6000828201611b298482101583611d0e565b600081612071577f0000000000000000000000000000000000000000000000000000000000000000610778565b507f0000000000000000000000000000000000000000000000000000000000000000919050565b6000611b2983836124e7565b604080516002808252606082018352600092839283928392602083019080368337019050509050846120d657856120d8565b865b816000815181106120e557fe5b602002602001018181525050846120fc57866120fe565b855b8160018151811061210b57fe5b60200260200101818152505060006121216125fe565b905061212f82826000611815565b9450600061213d8287612e48565b90508661214e576020810151612151565b80515b94508661215f578051612165565b60208101515b935050505093509350939050565b60006107788282612e7c565b6000610778826016612e7c565b600061077882602c612e3a565b600061077882604b612ea3565b6000610778826055612eab565b6000610778826056612eb5565b611b178183146067611d0e565b600060608060006121dc6125fe565b90506121e6611c9c565b156122955760006122018983835b602002015184600161181e565b9050600061220f8383612e48565b905061225e898b60008151811061222257fe5b60200260200101518c60018151811061223757fe5b60200260200101518460006002811061224c57fe5b602002015185600160200201516127c2565b61226782612ec2565b6122718a88612eef565b909650945061228a8287612283610843565b6000612f3b565b600a55506122ab9050565b61229f8886612eef565b600019600a5590945092505b60408051600280825260608201835286928692919060208301908036833701905050935093509350509750975097945050505050565b612308816000815181106122f157fe5b60200260200101516123036001612044565b612f93565b8160008151811061231557fe5b6020026020010181815250506123438160018151811061233157fe5b60200260200101516123036000612044565b8160018151811061235057fe5b60200260200101818152505050565b33301461241d576000306001600160a01b03166000366040516123839291906150fc565b6000604051808303816000865af19150503d80600081146123c0576040519150601f19603f3d011682016040523d82523d6000602084013e6123c5565b606091505b5050905080600081146123d457fe5b60046000803e6000516001600160e01b0319166343adbafb60e01b81146123ff573d6000803e3d6000fd5b506020600460003e604060205260243d03602460403e601c3d016000f35b61242686612624565b60008061243c8b8b8b8b8b8b8b8b63ffffffff16565b509150915061244e818463ffffffff16565b8051601f1982018390526343adbafb603f1983015260200260231982016044820181fd5b60009081526008602052604090205490565b600080600080600080600061249888612fb3565b96506124a388612fc0565b95506124ae88612fcd565b94506124b988612fda565b93506124c488612fe7565b92506124cf88612ff4565b91506124da88611eff565b9050919395979092949650565b6000828202611b2984158061250457508385838161250157fe5b04145b6003611d0e565b60008161251e5761251e60006004611d0e565b8261252b57506000610778565b670de0b6b3a76400008381029084828161254157fe5b04146125535761255360006005611d0e565b82818161255c57fe5b04949350505050565b6040516334171a8560e01b815260009073__$85f042f43089d976c21d0d184f206dc395$__906334171a85906125a690600890889088908890600401615275565b60206040518083038186803b1580156125be57600080fd5b505af41580156125d2573d6000803e3d6000fd5b505050506040513d601f19601f820116820180604052508101906125f69190614ebb565b949350505050565b612606614887565b6126106001613001565b815261261c6000613001565b602082015290565b61264b8160008151811061263457fe5b60200260200101516126466001612044565b6124e7565b8160008151811061265857fe5b6020026020010181815250506123438160018151811061267457fe5b60200260200101516126466000612044565b611b178282613055565b6000606080600061269f6125fe565b905060006126ae8983836121f4565b905060006126bc8383612e48565b90506126cf898b60008151811061222257fe5b6126d882612ec2565b6000806126e58c8a61310c565b600b54919350915060ff161561270f5761270f826127028f610ec3565b61270a610843565b613146565b612723848361271c610843565b6001612f3b565b600a556040805160028082526060820183528492849291906020830190803683370190505097509750975050505050509750975097945050505050565b6127878160008151811061277057fe5b60200260200101516127826001612044565b613258565b8160008151811061279457fe5b602002602001018181525050612343816001815181106127b057fe5b60200260200101516127826000612044565b6009546127ce816121a6565b80156127d957508543115b156128645760006127ec8685878661328b565b90506000612805878688876128008861217f565b6132a5565b9050600061281284612199565b9050600061281f8561218c565b90506000612838828487876128338b612173565b6132e9565b90508083146119925761284b8682613340565b9550612857864261334e565b6009819055955050505050505b505050505050565b600082820283158061288657508284828161288357fe5b04145b6128965761289660006003611d0e565b806128a5576000915050610778565b670de0b6b3a764000060001982015b0460010191505092915050565b600082821115611b4e57611b4e60006001611d0e565b60006128ea85858860600151868661335c565b90505b95945050505050565b6000611b298383612f93565b60006128ea8585886060015186866133c6565b6000611b298383613258565b6000670de0b6b3a76400008210612939576000610778565b50670de0b6b3a76400000390565b60008161295a5761295a60006004611d0e565b8261296757506000610778565b670de0b6b3a76400008381029084828161297d57fe5b04146129a1576129a1670de0b6b3a764000085838161299857fe5b04146005611d0e565b8260018203816128b457fe5b60006129b7611309565b6001600160a01b031663aaabadc56040518163ffffffff1660e01b815260040160206040518083038186803b1580156129ef57600080fd5b505afa158015612a03573d6000803e3d6000fd5b505050506040513d601f19601f82011682018060405250810190610ac891906149ca565b6000806000806000612a3a888888613426565b9350935093509350612a4e848484846135a0565b98975050505050505050565b6000612a64611f0b565b82604051602001808061190160f01b81525060020183815260200182815260200192505050604051602081830303815290604052805190602001209050919050565b600060606000612ab584613614565b9050612ad06000826003811115612ac857fe5b1460ce611d0e565b6000612adb85613633565b9050612ae9815160026121c0565b612af281612624565b6000612afc6125fe565b90506000612b0b8383836121f4565b90506000612b1a8260026124e7565b600a929092555099919850909650505050505050565b611b1782826136e7565b505050565b6001600160a01b03918216600090815260016020908152604080832093909416825291909152205490565b60408051600280825260608083018452926000929190602083019080368337019050509050612b99600161377c565b81600081518110612ba657fe5b602002602001018181525050612bbc600061377c565b81600181518110612bc957fe5b6020908102919091010152905090565b600281511015612be857610840565b600081600081518110612bf757fe5b602002602001015190506000600190505b8251811015612b3a576000838281518110612c1f57fe5b60200260200101519050612c48816001600160a01b0316846001600160a01b0316106065611d0e565b9150600101612c08565b600073ba1ba1ba1ba1ba1ba1ba1ba1ba1ba1ba1ba1ba1b612c716112e5565b6001600160a01b031614158015612c8c5750612c8c836137d0565b15612cb457612c996112e5565b6001600160a01b0316336001600160a01b0316149050610778565b612cbc6129ad565b6001600160a01b0316639be2a8848484306040518463ffffffff1660e01b815260040180848152602001836001600160a01b03168152602001826001600160a01b03168152602001935050505060206040518083038186803b158015612d2157600080fd5b505afa158015612d35573d6000803e3d6000fd5b505050506040513d6020811015612d4b57600080fd5b50519050610778565b62461bcd60e51b6000908152602060045260076024526642414c23000030600a808404818106603090810160081b95839006959095019082900491820690940160101b939093010160c81b604452606490fd5b6000612db68484111583611d0e565b5050900390565b600080612dc983613802565b90506000808213612de257652d79883d20008203612dec565b652d79883d200082015b655af3107a40009005949350505050565b6000611b29838383613866565b6000611b2983836016613866565b1b90565b661fffffffffffff91909116901b90565b623fffff91909116901b90565b1c637fffffff1690565b4690565b612e50614887565b612e63600184815b60200201518461387d565b8152612e7160008481612e58565b602082015292915050565b600082821c623fffff16621fffff8113612e9657806125f6565b623fffff19179392505050565b1c6103ff1690565b1c60019081161490565b1c6001600160401b031690565b600080600080612ed4600a548661389d565b9350935093509350612ee884848484613906565b5050505050565b600060606000612efe84613614565b90506001816003811115612f0e57fe5b1415612f2857612f1e8585613926565b9093509150612f33565b612f33610150612d54565b509250929050565b60008115612f6d576000612f5984612f53888861286c565b90612947565b9050612f658682613958565b9150506125f6565b6000612f7d84610de88888613970565b9050612f8986826128c1565b9695505050505050565b6000612fa28215156004611d0e565b818381612fab57fe5b049392505050565b60006107788260ea612e7c565b60006107788260b56139a9565b600061077882609f612e7c565b600061077882606a6139a9565b6000610778826054612e7c565b600061077882601f6139a9565b60008161302e577f0000000000000000000000000000000000000000000000000000000000000000610778565b507f0000000000000000000000000000000000000000000000000000000000000000919050565b61306c6001600160a01b038316151561019b611d0e565b61307882600083612b3a565b6001600160a01b03821660009081526020819052604090205461309e90826101a1612da7565b6001600160a01b0383166000908152602081905260409020556002546130c490826139dc565b6002556040805182815290516000916001600160a01b038516917fddf252ad1be2c89b69c2b068fc378daa952ba7f163c4a11628f55a4df523b3ef9181900360200190a35050565b60006060600061311b84613614565b9050600381600381111561312b57fe5b141561313b57612f1e85856139ea565b612f33610136612d54565b60408051606081018252600b5460ff81161515825261010081046001600160781b031660208301819052600160801b9091046001600160801b031692820192909252906131938585613958565b11156040518060400160405280601a81526020017f6f7665722061646472657373206c697175696469747920636170000000000000815250906131e95760405162461bcd60e51b81526004016107cf91906152d4565b5060408101516001600160801b03166132028584613958565b11156040518060400160405280601981526020017f6f76657220676c6f62616c206c6971756964697479206361700000000000000081525090612ee85760405162461bcd60e51b81526004016107cf91906152d4565b60006132678215156004611d0e565b8261327457506000610778565b81600184038161328057fe5b046001019050610778565b60008061329a86868686613a0f565b9050612f8981612dbd565b6000806132b487878787613a0f565b905060006132cc6132c5878461286c565b8990613958565b905060006132d982612dbd565b9490940398975050505050505050565b600080613305858585426132fc8b612472565b93929190613a37565b905060784288900310158061331a5786613323565b61332387613a89565b600081815260086020526040902092909255509695505050505050565b6000611b298383604b613a96565b6000611b298383602c613aa6565b60008061337b61337485670de0b6b3a764000261286c565b8890613958565b9050600061339461337485670de0b6b3a763ffff613970565b90506133ad6133a38388613958565b610de88389613970565b92505050848111156128ed576128ed6000610165613ab8565b6000848411156133dd576133dd6000610165613ab8565b60006133f461337485670de0b6b3a764000261286c565b9050600061340d61337485670de0b6b3a763ffff613970565b9050612a4e61341c82886128c1565b612f53848961286c565b6000808080613447613438878761250b565b670de0b6b3a7640000906128c1565b93506000613472868960018151811061345c57fe5b602002602001015161250b90919063ffffffff16565b9050600061349d888a60008151811061348757fe5b602002602001015161397090919063ffffffff16565b90506134a98282613958565b94506134d0896001815181106134bb57fe5b60200260200101518a60008151811061348757fe5b9250505061350786613501886135018b6000815181106134ec57fe5b60200260200101518c60008151811061348757fe5b90613970565b9150600061354786610de889613501670de0b6b3a76400006002026135018e60018151811061353257fe5b60200260200101518f60008151811061348757fe5b9050600061357d613558888061286c565b610de88b60018151811061356857fe5b60200260200101518c60018151811061348757fe5b90506135938161358d8685613958565b90613958565b9350505093509350935093565b6000806135b586671bc16d674ec8000061286c565b905060006135cf8761350186673782dace9d900000613970565b905060006135dd8683613958565b905060006135ec826005613ac6565b905060006135fa8983613958565b9050613606818661250b565b9a9950505050505050505050565b600081806020019051602081101561362b57600080fd5b505192915050565b606081806020019051604081101561364a57600080fd5b81516020830180516040519294929383019291908464010000000082111561367157600080fd5b90830190602082018581111561368657600080fd5b82518660208202830111640100000000821117156136a357600080fd5b82525081516020918201928201910280838360005b838110156136d05781810151838201526020016136b8565b505050509190910160405250929695505050505050565b6136f360008383612b3a565b6002546137009082612032565b6002556001600160a01b0382166000908152602081905260409020546137269082612032565b6001600160a01b0383166000818152602081815260408083209490945583518581529351929391927fddf252ad1be2c89b69c2b068fc378daa952ba7f163c4a11628f55a4df523b3ef9281900390910190a35050565b6000816137a9577f0000000000000000000000000000000000000000000000000000000000000000610778565b507f0000000000000000000000000000000000000000000000000000000000000000919050565b60006137e2631c74c91760e11b611267565b82148061077857506137fa6350dd6ed960e01b611267565b909114919050565b6000613812600083136064611d0e565b670c7d713b49da0000821380156138305750670f43fc2c04ee000082125b1561385657670de0b6b3a764000061384783613c54565b8161384e57fe5b059050610edd565b61385f82613d72565b9050610edd565b623fffff828116821b90821b198416179392505050565b6000836138935761388e8284614111565b6125f6565b6125f6828461411d565b6000806000806000806000806138b1614129565b935093509350935083600014156138d6576000975087965090945092506138fd915050565b6000806138ed8c8c6138e6610843565b8989614398565b909a509850929650909450505050505b92959194509250565b8315613916576139168285612b30565b8215610ab857610ab88184612b30565b6000606060006139358461442d565b9050600061394b8683613946610843565b61444f565b9196919550909350505050565b600082820183811015611b2957611b29600080611d0e565b600082820283158061398a57508284828161398757fe5b04145b61399a5761399a60006003611d0e565b670de0b6b3a76400008161255c565b600082821c661fffffffffffff16660fffffffffffff81136139cb57806125f6565b661fffffffffffff19179392505050565b6000611b2983836001612da7565b6000606060006139f98461442d565b9050600061394b8683613a0a610843565b6144d4565b60006706f05b59d3b20000612f89613a2b82612f538787613958565b612f5383818a8a613958565b600080613a4387611eff565b830390506000818702613a5589612fc0565b0190506000828702613a668a612fda565b0190506000838702613a778b612ff4565b01905061360689848a858b868c611e9f565b600061077882600161456f565b6103ff811b1992909216911b1790565b637fffffff811b1992909216911b1790565b81611b1757611b1781614577565b600082613ad557506000610778565b6000613ae084614587565b9050600281670de0b6b3a7640000860281613af757fe5b04820181613b0157fe5b049050600281670de0b6b3a7640000860281613b1957fe5b04820181613b2357fe5b049050600281670de0b6b3a7640000860281613b3b57fe5b04820181613b4557fe5b049050600281670de0b6b3a7640000860281613b5d57fe5b04820181613b6757fe5b049050600281670de0b6b3a7640000860281613b7f57fe5b04820181613b8957fe5b049050600281670de0b6b3a7640000860281613ba157fe5b04820181613bab57fe5b049050600281670de0b6b3a7640000860281613bc357fe5b04820181613bcd57fe5b0490506000613bdc8280613970565b9050613bf2613beb838661286c565b8690613958565b8111158015613c145750613c10613c09838661286c565b86906128c1565b8110155b61165c576040805162461bcd60e51b815260206004820152600c60248201526b17dcdc5c9d0811905253115160a21b604482015290519081900360640190fd5b670de0b6b3a7640000026000806a0c097ce7bc90715b34b9f160241b808401906ec097ce7bc90715b34b9f0fffffffff1985010281613c8f57fe5b05905060006a0c097ce7bc90715b34b9f160241b82800205905081806a0c097ce7bc90715b34b9f160241b81840205915060038205016a0c097ce7bc90715b34b9f160241b82840205915060058205016a0c097ce7bc90715b34b9f160241b82840205915060078205016a0c097ce7bc90715b34b9f160241b82840205915060098205016a0c097ce7bc90715b34b9f160241b828402059150600b8205016a0c097ce7bc90715b34b9f160241b828402059150600d8205016a0c097ce7bc90715b34b9f160241b828402059150600f826002919005919091010295945050505050565b6000670de0b6b3a7640000821215613dae57613da4826a0c097ce7bc90715b34b9f160241b81613d9e57fe5b05613d72565b6000039050610edd565b60007e1600ef3172e58d2e933ec884fde10064c63b5372d805e203c00000000000008312613dff57770195e54c5dd42177f53a27172fa9ec630262827000000000830592506806f05b59d3b2000000015b73011798004d755d3c8bc8e03204cf44619e0000008312613e37576b1425982cf597cd205cef7380830592506803782dace9d9000000015b606492830292026e01855144814a7ff805980ff00840008312613e7f576e01855144814a7ff805980ff008400068056bc75e2d63100000840205925068ad78ebc5ac62000000015b6b02df0ab5a80a22c61ab5a7008312613eba576b02df0ab5a80a22c61ab5a70068056bc75e2d6310000084020592506856bc75e2d631000000015b693f1fce3da636ea5cf8508312613ef157693f1fce3da636ea5cf85068056bc75e2d631000008402059250682b5e3af16b18800000015b690127fa27722cc06cc5e28312613f2857690127fa27722cc06cc5e268056bc75e2d6310000084020592506815af1d78b58c400000015b68280e60114edb805d038312613f5d5768280e60114edb805d0368056bc75e2d631000008402059250680ad78ebc5ac6200000015b680ebc5fb417461211108312613f8857680ebc5fb4174612111068056bc75e2d631000009384020592015b6808f00f760a4b2db55d8312613fbd576808f00f760a4b2db55d68056bc75e2d6310000084020592506802b5e3af16b1880000015b6806f5f17757889379378312613ff2576806f5f177578893793768056bc75e2d63100000840205925068015af1d78b58c40000015b6806248f33704b2866038312614026576806248f33704b28660368056bc75e2d63100000840205925067ad78ebc5ac620000015b6805c548670b9510e7ac831261405a576805c548670b9510e7ac68056bc75e2d6310000084020592506756bc75e2d6310000015b600068056bc75e2d63100000840168056bc75e2d63100000808603028161407d57fe5b059050600068056bc75e2d63100000828002059050818068056bc75e2d63100000818402059150600382050168056bc75e2d63100000828402059150600582050168056bc75e2d63100000828402059150600782050168056bc75e2d63100000828402059150600982050168056bc75e2d63100000828402059150600b820501600202606485820105979650505050505050565b6000611b298383613970565b6000611b29838361250b565b600e5460405163bd02d0f560e01b81526000918291829182916001600160a01b039091169063bd02d0f59061417b907550524f544f434f4c5f535741505f4645455f5045524360501b906004016151f0565b60206040518083038186803b15801561419357600080fd5b505afa1580156141a7573d6000803e3d6000fd5b505050506040513d601f19601f820116820180604052508101906141cb9190614ebb565b600e5460405163bd02d0f560e01b81526001600160a01b039091169063bd02d0f59061421b907f50524f544f434f4c5f4645455f4759524f5f504f5254494f4e00000000000000906004016151f0565b60206040518083038186803b15801561423357600080fd5b505afa158015614247573d6000803e3d6000fd5b505050506040513d601f19601f8201168201806040525081019061426b9190614ebb565b600e546040516321f8a72160e01b81526001600160a01b03909116906321f8a721906142ab906c4759524f5f545245415355525960981b906004016151f0565b60206040518083038186803b1580156142c357600080fd5b505afa1580156142d7573d6000803e3d6000fd5b505050506040513d601f19601f820116820180604052508101906142fb91906149ca565b600e546040516321f8a72160e01b81526001600160a01b03909116906321f8a7219061433a906b42414c5f545245415355525960a01b906004016151f0565b60206040518083038186803b15801561435257600080fd5b505afa158015614366573d6000803e3d6000fd5b505050506040513d601f19601f8201168201806040525081019061438a91906149ca565b935093509350935090919293565b6000808686116143ad57506000905080614423565b60006143c7856135016143c08a8c6128c1565b8990613970565b905060006143df6143d8898b6128c1565b8790613970565b905060006143ed89836128c1565b905060006143fb848361250b565b905060006144098883613970565b9050600061441783836128c1565b91975090955050505050505b9550959350505050565b600081806020019051604081101561444457600080fd5b506020015192915050565b606083516001600160401b038111801561446857600080fd5b50604051908082528060200260200182016040528015614492578160200160208202803683370190505b50905060005b845181101561165c576144b583610de88688858151811061348757fe5b8282815181106144c157fe5b6020908102919091010152600101614498565b606083516001600160401b03811180156144ed57600080fd5b50604051908082528060200260200182016040528015614517578160200160208202803683370190505b50905060005b845181101561165c5761455083612f538688858151811061453a57fe5b602002602001015161286c90919063ffffffff16565b82828151811061455c57fe5b602090810291909101015260010161451d565b016103ff1690565b610840816223aca960e91b614759565b6000670de0b6b3a764000082106145b457670de0b6b3a76400006145ac8184046147ba565b1b9050610edd565b600a82116145c7575063bc7c871c610edd565b606482116145db57506402540be400610edd565b6103e882116145f0575064075cdd4719610edd565b6127108211614605575064174876e800610edd565b620186a0821161461b57506449a0a4c700610edd565b620f42408211614631575064e8d4a51000610edd565b62989680821161464857506502e0466fc608610edd565b6305f5e100821161466057506509184e72a000610edd565b633b9aca0082116146785750651cc2c05dbc53610edd565b6402540be40082116146915750655af3107a4000610edd565b64174876e80082116146ab575066011f9b83a95b45610edd565b64e8d4a5100082116146c5575066038d7ea4c68000610edd565b6509184e72a00082116146e05750660b3c13249d90bb610edd565b655af3107a400082116146fb5750662386f26fc10000610edd565b66038d7ea4c6800082116147175750667058bf6e27a751610edd565b662386f26fc100008211614734575067016345785d8a0000610edd565b67016345785d8a000082116147525750670463777a4d8c892d610edd565b5080610edd565b62461bcd60e51b600090815260206004526007602452600a808404818106603090810160081b958390069590950190829004918206850160101b01602363ffffff0060e086901c160160181b0190930160c81b60445260e882901c90606490fd5b6000600160801b82106147d25760809190911c906040015b6801000000000000000082106147ed5760409190911c906020015b64010000000082106148045760209190911c906010015b6201000082106148195760109190911c906008015b610100821061482d5760089190911c906004015b601082106148405760049190911c906002015b60048210610edd57600101919050565b604080516060810182526000808252602082018190529181019190915290565b604080518082019091526000808252602082015290565b60405180604001604052806002906020820280368337509192915050565b8035610edd81615404565b600082601f8301126148c0578081fd5b815160206148d56148d0836153e7565b6153c4565b82815281810190858301838502870184018810156148f1578586fd5b855b8581101561490f578151845292840192908401906001016148f3565b5090979650505050505050565b80358015158114610edd57600080fd5b600082601f83011261493c578081fd5b81356001600160401b0381111561494f57fe5b614962601f8201601f19166020016153c4565b818152846020838601011115614976578283fd5b816020850160208301379081016020019190915292915050565b803560028110610edd57600080fd5b803560038110610edd57600080fd5b6000602082840312156149bf578081fd5b8135611b2981615404565b6000602082840312156149db578081fd5b8151611b2981615404565b600080604083850312156149f8578081fd5b8235614a0381615404565b91506020830135614a1381615404565b809150509250929050565b600080600060608486031215614a32578081fd5b8335614a3d81615404565b92506020840135614a4d81615404565b929592945050506040919091013590565b600080600080600080600060e0888a031215614a78578485fd5b8735614a8381615404565b96506020880135614a9381615404565b95506040880135945060608801359350608088013560ff81168114614ab6578384fd5b9699959850939692959460a0840135945060c09093013592915050565b60008060408385031215614ae5578182fd5b8235614af081615404565b946020939093013593505050565b600080600060608486031215614b12578081fd5b83516001600160401b0380821115614b28578283fd5b818601915086601f830112614b3b578283fd5b81516020614b4b6148d0836153e7565b82815281810190858301838502870184018c1015614b67578788fd5b8796505b84871015614b92578051614b7e81615404565b835260019690960195918301918301614b6b565b5091890151919750909350505080821115614bab578283fd5b50614bb8868287016148b0565b925050604084015190509250925092565b60006020808385031215614bdb578182fd5b82356001600160401b0380821115614bf1578384fd5b818501915085601f830112614c04578384fd5b8135614c126148d0826153e7565b818152848101908486016040808502870188018b1015614c30578889fd5b8896505b84871015614c885780828c031215614c4a578889fd5b80518181018181108882111715614c5d57fe5b8252614c688361499f565b815282890135898201528452600196909601959287019290810190614c34565b50909998505050505050505050565b60006020808385031215614ca9578182fd5b82356001600160401b0380821115614cbf578384fd5b818501915085601f830112614cd2578384fd5b8135614ce06148d0826153e7565b818152848101908486016060808502870188018b1015614cfe578889fd5b8896505b84871015614c885780828c031215614d18578889fd5b604080518281018181108982111715614d2d57fe5b8252614d388461499f565b8152838a01358a82015281840135918101919091528452600196909601959287019290810190614d02565b600060208284031215614d74578081fd5b611b298261491c565b600080600080600080600060e0888a031215614d97578081fd5b87359650602080890135614daa81615404565b96506040890135614dba81615404565b955060608901356001600160401b0380821115614dd5578384fd5b818b0191508b601f830112614de8578384fd5b8135614df66148d0826153e7565b8082825285820191508585018f878886028801011115614e14578788fd5b8795505b83861015614e36578035835260019590950194918601918601614e18565b509850505060808b0135955060a08b0135945060c08b0135925080831115614e5c578384fd5b5050614e6a8a828b0161492c565b91505092959891949750929550565b600060208284031215614e8a578081fd5b81356001600160e01b031981168114611b29578182fd5b600060208284031215614eb2578081fd5b611b298261499f565b600060208284031215614ecc578081fd5b5051919050565b600060608284031215614ee4578081fd5b604051606081018181106001600160401b0382111715614f0057fe5b604052614f0c8361491c565b815260208301356001600160781b0381168114614f27578283fd5b602082015260408301356001600160801b0381168114614f45578283fd5b60408201529392505050565b600080600060608486031215614f65578081fd5b83356001600160401b0380821115614f7b578283fd5b8186019150610120808389031215614f91578384fd5b614f9a816153c4565b9050614fa583614990565b8152614fb3602084016148a5565b6020820152614fc4604084016148a5565b6040820152606083013560608201526080830135608082015260a083013560a0820152614ff360c084016148a5565b60c082015261500460e084016148a5565b60e0820152610100808401358381111561501c578586fd5b6150288a82870161492c565b9183019190915250976020870135975060409096013595945050505050565b600060208284031215615058578081fd5b5035919050565b60008060408385031215615071578182fd5b50508035926020909101359150565b600080600060608486031215615094578081fd5b83359250602084013591506150ab6040850161491c565b90509250925092565b6000815180845260208085019450808401835b838110156150e3578151875295820195908201906001016150c7565b509495945050505050565b600381106150f857fe5b9052565b6000828483379101908152919050565b6001600160a01b0391909116815260200190565b6020808252825182820181905260009190848201906040850190845b818110156151585783518352928401929184019160010161513c565b50909695505050505050565b60408101818360005b600281101561518c57815183526020928301929091019060010161516d565b50505092915050565b600060208252611b2960208301846150b4565b6000604082526151bb60408301856150b4565b82810360208401526128ed81856150b4565b901515815260200190565b92151583526020830191909152604082015260600190565b90815260200190565b968752602087019590955260408601939093526060850191909152608084015260a083015260c082015260e00190565b9586526020860194909452604085019290925260608401521515608083015260a082015260c00190565b8381526060810161526760208301856150ee565b826040830152949350505050565b8481526080810161528960208301866150ee565b60408201939093526060015292915050565b600060a0820190508482526152b46020830185516150ee565b602084015160408381019190915290930151606082015260800152919050565b6000602080835283518082850152825b81811015615300578581018301518582016040015282016152e4565b818111156153115783604083870101525b50601f01601f1916929092016040019392505050565b8151151581526020808301516001600160781b0316908201526040918201516001600160801b03169181019190915260600190565b905460ff811615158252600881901c6001600160781b0316602083015260801c604082015260600190565b6000838252604060208301526125f660408301846150b4565b9283526020830191909152604082015260600190565b60ff91909116815260200190565b6040518181016001600160401b03811182821017156153df57fe5b604052919050565b60006001600160401b038211156153fa57fe5b5060209081020190565b6001600160a01b038116811461084057600080fdfea2646970667358221220c1bd3cf4a6669393e64aa4d972c42fd8b3d7300e0c882f1954f732fc5124294764736f6c63430007060033","language":"Solidity","natspec":{"kind":"dev","methods":{"DOMAIN_SEPARATOR()":{"details":"See {IERC20Permit-DOMAIN_SEPARATOR}."},"allowance(address,address)":{"details":"Override to grant the Vault infinite allowance, causing for Pool Tokens to not require approval. This is sound as the Vault already provides authorization mechanisms when initiation token transfers, which this contract inherits."},"approve(address,uint256)":{"details":"See {IERC20-approve}. Requirements: - `spender` cannot be the zero address."},"balanceOf(address)":{"details":"See {IERC20-balanceOf}."},"changePauseManager(address)":{"notice":"Changes the account that is allow to pause a pool"},"decimals()":{"details":"Returns the number of decimals used to get its user representation. For example, if `decimals` equals `2`, a balance of `505` tokens should be displayed to a user as `5,05` (`505 / 10 ** 2`). Tokens usually opt for a value of 18, imitating the relationship between Ether and Wei. This is the value {ERC20} uses, unless {_setupDecimals} is called. NOTE: This information is only used for _display_ purposes: it in no way affects any of the arithmetic of the contract, including {IERC20-balanceOf} and {IERC20-transfer}."},"decreaseAllowance(address,uint256)":{"details":"Override to allow decreasing allowance by more than the current amount (setting it to zero)"},"dirtyUninitializedOracleSamples(uint256,uint256)":{"details":"Manually dirty oracle sample storage slots with dummy data, to reduce the gas cost of the future swaps that will initialize them. This function is only useful before the oracle has been fully initialized. `endIndex` is non-inclusive."},"enableOracle()":{"details":"Balancer Governance can always enable the Oracle, even if it was originally not enabled. This allows for Pools that unexpectedly drive much more volume and liquidity than expected to serve as Price Oracles. Note that the Oracle can only be enabled - it can never be disabled."},"getActionId(bytes4)":{"details":"Returns the action identifier associated with the external function described by `selector`."},"getInvariant()":{"details":"Returns the current value of the invariant."},"getLargestSafeQueryWindow()":{"details":"Returns largest time window that can be safely queried, where 'safely' means the Oracle is guaranteed to be able to produce a result and not revert. If a query has a non-zero `ago` value, then `secs + ago` (the oldest point in time) must be smaller than this value for 'safe' queries."},"getLatest(uint8)":{"details":"Returns latest sample of `variable`. Prices are represented as 18 decimal fixed point values."},"getPastAccumulators((uint8,uint256)[])":{"details":"Returns the accumulators corresponding to each of `queries`."},"getPausedState()":{"details":"Returns the current contract pause status, as well as the end times of the Pause Window and Buffer Period."},"getRate()":{"details":"This function returns the appreciation of one BPT relative to the underlying tokens. This starts at 1 when the pool is created and grows over time"},"getSample(uint256)":{"details":"Returns the raw data of the sample at `index`."},"getTimeWeightedAverage((uint8,uint256,uint256)[])":{"details":"Returns the time average weighted price corresponding to each of `queries`. Prices are represented as 18 decimal fixed point values."},"getTotalSamples()":{"details":"Returns the total number of samples."},"getVirtualParameters()":{"details":"Returns virtual offsets a and b for reserves x and y respectively, as in (x+a)*(y+b)=L^2"},"increaseAllowance(address,uint256)":{"details":"Atomically increases the allowance granted to `spender` by the caller. This is an alternative to {approve} that can be used as a mitigation for problems described in {IERC20-approve}. Emits an {Approval} event indicating the updated allowance. Requirements: - `spender` cannot be the zero address."},"name()":{"details":"Returns the name of the token."},"nonces(address)":{"details":"See {IERC20Permit-nonces}."},"onExitPool(bytes32,address,address,uint256[],uint256,uint256,bytes)":{"details":"Called by the Vault when a user calls `IVault.exitPool` to remove liquidity from this Pool. Returns how many tokens the Vault should deduct from the Pool's balances, as well as the amount of protocol fees the Pool owes to the Vault. The Vault will then take tokens from the Pool's balances and send them to `recipient`, as well as collect the reported amount in protocol fees, which the Pool should calculate based on `protocolSwapFeePercentage`. Protocol fees are charged on exit events to guarantee that users exiting the Pool have paid their share. `sender` is the account performing the exit (typically the pool shareholder), and `recipient` is the account to which the Vault will send the proceeds. `balances` contains the total token balances for each token the Pool registered in the Vault, in the same order that `IVault.getPoolTokens` would return. `lastChangeBlock` is the last block in which *any* of the Pool's registered tokens last changed its total balance. `userData` contains any pool-specific instructions needed to perform the calculations, such as the type of exit (e.g., proportional given an amount of pool shares, single-asset, multi-asset, etc.) Contracts implementing this function should check that the caller is indeed the Vault before performing any state-changing operations, such as burning pool shares."},"onJoinPool(bytes32,address,address,uint256[],uint256,uint256,bytes)":{"details":"Called by the Vault when a user calls `IVault.joinPool` to add liquidity to this Pool. Returns how many of each registered token the user should provide, as well as the amount of protocol fees the Pool owes to the Vault. The Vault will then take tokens from `sender` and add them to the Pool's balances, as well as collect the reported amount in protocol fees, which the pool should calculate based on `protocolSwapFeePercentage`. Protocol fees are reported and charged on join events so that the Pool is free of debt whenever new users join. `sender` is the account performing the join (from which tokens will be withdrawn), and `recipient` is the account designated to receive any benefits (typically pool shares). `balances` contains the total balances for each token the Pool registered in the Vault, in the same order that `IVault.getPoolTokens` would return. `lastChangeBlock` is the last block in which *any* of the Pool's registered tokens last changed its total balance. `userData` contains any pool-specific instructions needed to perform the calculations, such as the type of join (e.g., proportional given an amount of pool shares, single-asset, multi-asset, etc.) Contracts implementing this function should check that the caller is indeed the Vault before performing any state-changing operations, such as minting pool shares."},"pause()":{"notice":"Pauses the pool Can only be called by the pause manager"},"permit(address,address,uint256,uint256,uint8,bytes32,bytes32)":{"details":"See {IERC20Permit-permit}."},"queryExit(bytes32,address,address,uint256[],uint256,uint256,bytes)":{"details":"Returns the amount of BPT that would be burned from `sender` if the `onExitPool` hook were called by the Vault with the same arguments, along with the number of tokens `recipient` would receive. This function is not meant to be called directly, but rather from a helper contract that fetches current Vault data, such as the protocol swap fee percentage and Pool balances. Like `IVault.queryBatchSwap`, this function is not view due to internal implementation details: the caller must explicitly use eth_call instead of eth_sendTransaction."},"queryJoin(bytes32,address,address,uint256[],uint256,uint256,bytes)":{"details":"Returns the amount of BPT that would be granted to `recipient` if the `onJoinPool` hook were called by the Vault with the same arguments, along with the number of tokens `sender` would have to supply. This function is not meant to be called directly, but rather from a helper contract that fetches current Vault data, such as the protocol swap fee percentage and Pool balances. Like `IVault.queryBatchSwap`, this function is not view due to internal implementation details: the caller must explicitly use eth_call instead of eth_sendTransaction."},"symbol()":{"details":"Returns the symbol of the token, usually a shorter version of the name."},"totalSupply()":{"details":"See {IERC20-totalSupply}."},"transfer(address,uint256)":{"details":"See {IERC20-transfer}. Requirements: - `recipient` cannot be the zero address. - the caller must have a balance of at least `amount`."},"transferFrom(address,address,uint256)":{"details":"Override to allow for 'infinite allowance' and let the token owner use `transferFrom` with no self-allowance"},"unpause()":{"notice":"Unpauses the pool Can only be called by the pause manager"}},"version":1},"opcodes":"PUSH1 0x80 PUSH1 0x40 MSTORE CALLVALUE DUP1 ISZERO PUSH2 0x10 JUMPI PUSH1 0x0 DUP1 REVERT JUMPDEST POP PUSH1 0x4 CALLDATASIZE LT PUSH2 0x327 JUMPI PUSH1 0x0 CALLDATALOAD PUSH1 0xE0 SHR DUP1 PUSH4 0x707DCD1E GT PUSH2 0x1B8 JUMPI DUP1 PUSH4 0x9B02CDDE GT PUSH2 0x104 JUMPI DUP1 PUSH4 0xB48B5B40 GT PUSH2 0xA2 JUMPI DUP1 PUSH4 0xD5C096C4 GT PUSH2 0x7C JUMPI DUP1 PUSH4 0xD5C096C4 EQ PUSH2 0x69B JUMPI DUP1 PUSH4 0xDD62ED3E EQ PUSH2 0x6AE JUMPI DUP1 PUSH4 0xF89F27ED EQ PUSH2 0x6C1 JUMPI DUP1 PUSH4 0xFFD088EB EQ PUSH2 0x6C9 JUMPI PUSH2 0x327 JUMP JUMPDEST DUP1 PUSH4 0xB48B5B40 EQ PUSH2 0x678 JUMPI DUP1 PUSH4 0xC0FF1A15 EQ PUSH2 0x680 JUMPI DUP1 PUSH4 0xD505ACCF EQ PUSH2 0x688 JUMPI PUSH2 0x327 JUMP JUMPDEST DUP1 PUSH4 0xA9059CBB GT PUSH2 0xDE JUMPI DUP1 PUSH4 0xA9059CBB EQ PUSH2 0x642 JUMPI DUP1 PUSH4 0xAAABADC5 EQ PUSH2 0x655 JUMPI DUP1 PUSH4 0xABD13AFE EQ PUSH2 0x65D JUMPI DUP1 PUSH4 0xB10BE739 EQ PUSH2 0x665 JUMPI PUSH2 0x327 JUMP JUMPDEST DUP1 PUSH4 0x9B02CDDE EQ PUSH2 0x614 JUMPI DUP1 PUSH4 0x9D2C110C EQ PUSH2 0x61C JUMPI DUP1 PUSH4 0xA457C2D7 EQ PUSH2 0x62F JUMPI PUSH2 0x327 JUMP JUMPDEST DUP1 PUSH4 0x8456CB59 GT PUSH2 0x171 JUMPI DUP1 PUSH4 0x893D20E8 GT PUSH2 0x14B JUMPI DUP1 PUSH4 0x893D20E8 EQ PUSH2 0x5F4 JUMPI DUP1 PUSH4 0x8D928AF8 EQ PUSH2 0x5FC JUMPI DUP1 PUSH4 0x8DD9F89D EQ PUSH2 0x604 JUMPI DUP1 PUSH4 0x95D89B41 EQ PUSH2 0x60C JUMPI PUSH2 0x327 JUMP JUMPDEST DUP1 PUSH4 0x8456CB59 EQ PUSH2 0x5C6 JUMPI DUP1 PUSH4 0x851C1BB3 EQ PUSH2 0x5CE JUMPI DUP1 PUSH4 0x87EC6817 EQ PUSH2 0x5E1 JUMPI PUSH2 0x327 JUMP JUMPDEST DUP1 PUSH4 0x707DCD1E EQ PUSH2 0x544 JUMPI DUP1 PUSH4 0x70A08231 EQ PUSH2 0x559 JUMPI DUP1 PUSH4 0x74F3B009 EQ PUSH2 0x56C JUMPI DUP1 PUSH4 0x76E54A46 EQ PUSH2 0x58D JUMPI DUP1 PUSH4 0x7ECEBE00 EQ PUSH2 0x5A0 JUMPI DUP1 PUSH4 0x8002DF18 EQ PUSH2 0x5B3 JUMPI PUSH2 0x327 JUMP JUMPDEST DUP1 PUSH4 0x38FFF2D0 GT PUSH2 0x277 JUMPI DUP1 PUSH4 0x4A6B0B15 GT PUSH2 0x230 JUMPI DUP1 PUSH4 0x60D1507C GT PUSH2 0x20A JUMPI DUP1 PUSH4 0x60D1507C EQ PUSH2 0x4EE JUMPI DUP1 PUSH4 0x679AEFCE EQ PUSH2 0x514 JUMPI DUP1 PUSH4 0x6B843239 EQ PUSH2 0x51C JUMPI DUP1 PUSH4 0x6D785A87 EQ PUSH2 0x53C JUMPI PUSH2 0x327 JUMP JUMPDEST DUP1 PUSH4 0x4A6B0B15 EQ PUSH2 0x4AB JUMPI DUP1 PUSH4 0x55C67628 EQ PUSH2 0x4C5 JUMPI DUP1 PUSH4 0x6028BFD4 EQ PUSH2 0x4CD JUMPI PUSH2 0x327 JUMP JUMPDEST DUP1 PUSH4 0x38FFF2D0 EQ PUSH2 0x43C JUMPI DUP1 PUSH4 0x39509351 EQ PUSH2 0x444 JUMPI DUP1 PUSH4 0x3AEAE0D3 EQ PUSH2 0x457 JUMPI DUP1 PUSH4 0x3C4DD5BB EQ PUSH2 0x46C JUMPI DUP1 PUSH4 0x3F4BA83A EQ PUSH2 0x48E JUMPI DUP1 PUSH4 0x44BBDB55 EQ PUSH2 0x496 JUMPI PUSH2 0x327 JUMP JUMPDEST DUP1 PUSH4 0x1DCCD830 GT PUSH2 0x2E4 JUMPI DUP1 PUSH4 0x313CE567 GT PUSH2 0x2BE JUMPI DUP1 PUSH4 0x313CE567 EQ PUSH2 0x3F9 JUMPI DUP1 PUSH4 0x3331BC36 EQ PUSH2 0x40E JUMPI DUP1 PUSH4 0x3644E515 EQ PUSH2 0x421 JUMPI DUP1 PUSH4 0x38E9922E EQ PUSH2 0x429 JUMPI PUSH2 0x327 JUMP JUMPDEST DUP1 PUSH4 0x1DCCD830 EQ PUSH2 0x3BE JUMPI DUP1 PUSH4 0x23B872DD EQ PUSH2 0x3DE JUMPI DUP1 PUSH4 0x292C914A EQ PUSH2 0x3F1 JUMPI PUSH2 0x327 JUMP JUMPDEST DUP1 PUSH4 0x6FDDE03 EQ PUSH2 0x32C JUMPI DUP1 PUSH4 0x95EA7B3 EQ PUSH2 0x34A JUMPI DUP1 PUSH4 0xE608B30 EQ PUSH2 0x36A JUMPI DUP1 PUSH4 0x16C38B3C EQ PUSH2 0x37F JUMPI DUP1 PUSH4 0x18160DDD EQ PUSH2 0x392 JUMPI DUP1 PUSH4 0x1C0DE051 EQ PUSH2 0x3A7 JUMPI JUMPDEST PUSH1 0x0 DUP1 REVERT JUMPDEST PUSH2 0x334 PUSH2 0x6D1 JUMP JUMPDEST PUSH1 0x40 MLOAD PUSH2 0x341 SWAP2 SWAP1 PUSH2 0x52D4 JUMP JUMPDEST PUSH1 0x40 MLOAD DUP1 SWAP2 SUB SWAP1 RETURN JUMPDEST PUSH2 0x35D PUSH2 0x358 CALLDATASIZE PUSH1 0x4 PUSH2 0x4AD3 JUMP JUMPDEST PUSH2 0x767 JUMP JUMPDEST PUSH1 0x40 MLOAD PUSH2 0x341 SWAP2 SWAP1 PUSH2 0x51CD JUMP JUMPDEST PUSH2 0x37D PUSH2 0x378 CALLDATASIZE PUSH1 0x4 PUSH2 0x49AE JUMP JUMPDEST PUSH2 0x77E JUMP JUMPDEST STOP JUMPDEST PUSH2 0x37D PUSH2 0x38D CALLDATASIZE PUSH1 0x4 PUSH2 0x4D63 JUMP JUMPDEST PUSH2 0x82F JUMP JUMPDEST PUSH2 0x39A PUSH2 0x843 JUMP JUMPDEST PUSH1 0x40 MLOAD PUSH2 0x341 SWAP2 SWAP1 PUSH2 0x51F0 JUMP JUMPDEST PUSH2 0x3AF PUSH2 0x849 JUMP JUMPDEST PUSH1 0x40 MLOAD PUSH2 0x341 SWAP4 SWAP3 SWAP2 SWAP1 PUSH2 0x51D8 JUMP JUMPDEST PUSH2 0x3D1 PUSH2 0x3CC CALLDATASIZE PUSH1 0x4 PUSH2 0x4C97 JUMP JUMPDEST PUSH2 0x872 JUMP JUMPDEST PUSH1 0x40 MLOAD PUSH2 0x341 SWAP2 SWAP1 PUSH2 0x5195 JUMP JUMPDEST PUSH2 0x35D PUSH2 0x3EC CALLDATASIZE PUSH1 0x4 PUSH2 0x4A1E JUMP JUMPDEST PUSH2 0x995 JUMP JUMPDEST PUSH2 0x37D PUSH2 0xA09 JUMP JUMPDEST PUSH2 0x401 PUSH2 0xA3D JUMP JUMPDEST PUSH1 0x40 MLOAD PUSH2 0x341 SWAP2 SWAP1 PUSH2 0x53B6 JUMP JUMPDEST PUSH2 0x37D PUSH2 0x41C CALLDATASIZE PUSH1 0x4 PUSH2 0x505F JUMP JUMPDEST PUSH2 0xA46 JUMP JUMPDEST PUSH2 0x39A PUSH2 0xABE JUMP JUMPDEST PUSH2 0x37D PUSH2 0x437 CALLDATASIZE PUSH1 0x4 PUSH2 0x5047 JUMP JUMPDEST PUSH2 0xACD JUMP JUMPDEST PUSH2 0x39A PUSH2 0xAE6 JUMP JUMPDEST PUSH2 0x35D PUSH2 0x452 CALLDATASIZE PUSH1 0x4 PUSH2 0x4AD3 JUMP JUMPDEST PUSH2 0xB0A JUMP JUMPDEST PUSH2 0x45F PUSH2 0xB45 JUMP JUMPDEST PUSH1 0x40 MLOAD PUSH2 0x341 SWAP2 SWAP1 PUSH2 0x5327 JUMP JUMPDEST PUSH2 0x47F PUSH2 0x47A CALLDATASIZE PUSH1 0x4 PUSH2 0x5080 JUMP JUMPDEST PUSH2 0xB90 JUMP JUMPDEST PUSH1 0x40 MLOAD PUSH2 0x341 SWAP4 SWAP3 SWAP2 SWAP1 PUSH2 0x53A0 JUMP JUMPDEST PUSH2 0x37D PUSH2 0xBE3 JUMP JUMPDEST PUSH2 0x49E PUSH2 0xCD8 JUMP JUMPDEST PUSH1 0x40 MLOAD PUSH2 0x341 SWAP2 SWAP1 PUSH2 0x510C JUMP JUMPDEST PUSH2 0x4B3 PUSH2 0xCE7 JUMP JUMPDEST PUSH1 0x40 MLOAD PUSH2 0x341 SWAP7 SWAP6 SWAP5 SWAP4 SWAP3 SWAP2 SWAP1 PUSH2 0x5229 JUMP JUMPDEST PUSH2 0x39A PUSH2 0xD42 JUMP JUMPDEST PUSH2 0x4E0 PUSH2 0x4DB CALLDATASIZE PUSH1 0x4 PUSH2 0x4D7D JUMP JUMPDEST PUSH2 0xD4F JUMP JUMPDEST PUSH1 0x40 MLOAD PUSH2 0x341 SWAP3 SWAP2 SWAP1 PUSH2 0x5387 JUMP JUMPDEST PUSH2 0x501 PUSH2 0x4FC CALLDATASIZE PUSH1 0x4 PUSH2 0x5047 JUMP JUMPDEST PUSH2 0xD80 JUMP JUMPDEST PUSH1 0x40 MLOAD PUSH2 0x341 SWAP8 SWAP7 SWAP6 SWAP5 SWAP4 SWAP3 SWAP2 SWAP1 PUSH2 0x51F9 JUMP JUMPDEST PUSH2 0x39A PUSH2 0xDC9 JUMP JUMPDEST PUSH2 0x52F PUSH2 0x52A CALLDATASIZE PUSH1 0x4 PUSH2 0x4BC9 JUMP JUMPDEST PUSH2 0xDEE JUMP JUMPDEST PUSH1 0x40 MLOAD PUSH2 0x341 SWAP2 SWAP1 PUSH2 0x5120 JUMP JUMPDEST PUSH2 0x49E PUSH2 0xEA4 JUMP JUMPDEST PUSH2 0x54C PUSH2 0xEB3 JUMP JUMPDEST PUSH1 0x40 MLOAD PUSH2 0x341 SWAP2 SWAP1 PUSH2 0x5164 JUMP JUMPDEST PUSH2 0x39A PUSH2 0x567 CALLDATASIZE PUSH1 0x4 PUSH2 0x49AE JUMP JUMPDEST PUSH2 0xEC3 JUMP JUMPDEST PUSH2 0x57F PUSH2 0x57A CALLDATASIZE PUSH1 0x4 PUSH2 0x4D7D JUMP JUMPDEST PUSH2 0xEE2 JUMP JUMPDEST PUSH1 0x40 MLOAD PUSH2 0x341 SWAP3 SWAP2 SWAP1 PUSH2 0x51A8 JUMP JUMPDEST PUSH2 0x37D PUSH2 0x59B CALLDATASIZE PUSH1 0x4 PUSH2 0x4ED3 JUMP JUMPDEST PUSH2 0xF87 JUMP JUMPDEST PUSH2 0x39A PUSH2 0x5AE CALLDATASIZE PUSH1 0x4 PUSH2 0x49AE JUMP JUMPDEST PUSH2 0x10AE JUMP JUMPDEST PUSH2 0x37D PUSH2 0x5C1 CALLDATASIZE PUSH1 0x4 PUSH2 0x49AE JUMP JUMPDEST PUSH2 0x10C9 JUMP JUMPDEST PUSH2 0x37D PUSH2 0x11AF JUMP JUMPDEST PUSH2 0x39A PUSH2 0x5DC CALLDATASIZE PUSH1 0x4 PUSH2 0x4E79 JUMP JUMPDEST PUSH2 0x1267 JUMP JUMPDEST PUSH2 0x4E0 PUSH2 0x5EF CALLDATASIZE PUSH1 0x4 PUSH2 0x4D7D JUMP JUMPDEST PUSH2 0x12C0 JUMP JUMPDEST PUSH2 0x49E PUSH2 0x12E5 JUMP JUMPDEST PUSH2 0x49E PUSH2 0x1309 JUMP JUMPDEST PUSH2 0x3D1 PUSH2 0x132D JUMP JUMPDEST PUSH2 0x334 PUSH2 0x1437 JUMP JUMPDEST PUSH2 0x39A PUSH2 0x1498 JUMP JUMPDEST PUSH2 0x39A PUSH2 0x62A CALLDATASIZE PUSH1 0x4 PUSH2 0x4F51 JUMP JUMPDEST PUSH2 0x149E JUMP JUMPDEST PUSH2 0x35D PUSH2 0x63D CALLDATASIZE PUSH1 0x4 PUSH2 0x4AD3 JUMP JUMPDEST PUSH2 0x1664 JUMP JUMPDEST PUSH2 0x35D PUSH2 0x650 CALLDATASIZE PUSH1 0x4 PUSH2 0x4AD3 JUMP JUMPDEST PUSH2 0x16A2 JUMP JUMPDEST PUSH2 0x49E PUSH2 0x16AF JUMP JUMPDEST PUSH2 0x49E PUSH2 0x16B9 JUMP JUMPDEST PUSH2 0x39A PUSH2 0x673 CALLDATASIZE PUSH1 0x4 PUSH2 0x4EA1 JUMP JUMPDEST PUSH2 0x16C8 JUMP JUMPDEST PUSH2 0x39A PUSH2 0x175D JUMP JUMPDEST PUSH2 0x39A PUSH2 0x1763 JUMP JUMPDEST PUSH2 0x37D PUSH2 0x696 CALLDATASIZE PUSH1 0x4 PUSH2 0x4A5E JUMP JUMPDEST PUSH2 0x182F JUMP JUMPDEST PUSH2 0x57F PUSH2 0x6A9 CALLDATASIZE PUSH1 0x4 PUSH2 0x4D7D JUMP JUMPDEST PUSH2 0x199F JUMP JUMPDEST PUSH2 0x39A PUSH2 0x6BC CALLDATASIZE PUSH1 0x4 PUSH2 0x49E6 JUMP JUMPDEST PUSH2 0x1ABF JUMP JUMPDEST PUSH2 0x3D1 PUSH2 0x1AFC JUMP JUMPDEST PUSH2 0x39A PUSH2 0x1B06 JUMP JUMPDEST PUSH1 0x3 DUP1 SLOAD PUSH1 0x40 DUP1 MLOAD PUSH1 0x20 PUSH1 0x1F PUSH1 0x2 PUSH1 0x0 NOT PUSH2 0x100 PUSH1 0x1 DUP9 AND ISZERO MUL ADD SWAP1 SWAP6 AND SWAP5 SWAP1 SWAP5 DIV SWAP4 DUP5 ADD DUP2 SWAP1 DIV DUP2 MUL DUP3 ADD DUP2 ADD SWAP1 SWAP3 MSTORE DUP3 DUP2 MSTORE PUSH1 0x60 SWAP4 SWAP1 SWAP3 SWAP1 SWAP2 DUP4 ADD DUP3 DUP3 DUP1 ISZERO PUSH2 0x75D JUMPI DUP1 PUSH1 0x1F LT PUSH2 0x732 JUMPI PUSH2 0x100 DUP1 DUP4 SLOAD DIV MUL DUP4 MSTORE SWAP2 PUSH1 0x20 ADD SWAP2 PUSH2 0x75D JUMP JUMPDEST DUP3 ADD SWAP2 SWAP1 PUSH1 0x0 MSTORE PUSH1 0x20 PUSH1 0x0 KECCAK256 SWAP1 JUMPDEST DUP2 SLOAD DUP2 MSTORE SWAP1 PUSH1 0x1 ADD SWAP1 PUSH1 0x20 ADD DUP1 DUP4 GT PUSH2 0x740 JUMPI DUP3 SWAP1 SUB PUSH1 0x1F AND DUP3 ADD SWAP2 JUMPDEST POP POP POP POP POP SWAP1 POP SWAP1 JUMP JUMPDEST PUSH1 0x0 PUSH2 0x774 CALLER DUP5 DUP5 PUSH2 0x1B90 JUMP JUMPDEST POP PUSH1 0x1 JUMPDEST SWAP3 SWAP2 POP POP JUMP JUMPDEST PUSH1 0xC SLOAD PUSH1 0x40 DUP1 MLOAD DUP1 DUP3 ADD SWAP1 SWAP2 MSTORE PUSH1 0xE DUP2 MSTORE PUSH14 0x1B9BDD08185D5D1A1BDC9A5E9959 PUSH1 0x92 SHL PUSH1 0x20 DUP3 ADD MSTORE SWAP1 PUSH1 0x1 PUSH1 0x1 PUSH1 0xA0 SHL SUB AND CALLER EQ PUSH2 0x7D8 JUMPI PUSH1 0x40 MLOAD PUSH3 0x461BCD PUSH1 0xE5 SHL DUP2 MSTORE PUSH1 0x4 ADD PUSH2 0x7CF SWAP2 SWAP1 PUSH2 0x52D4 JUMP JUMPDEST PUSH1 0x40 MLOAD DUP1 SWAP2 SUB SWAP1 REVERT JUMPDEST POP PUSH1 0xC DUP1 SLOAD PUSH1 0x1 PUSH1 0x1 PUSH1 0xA0 SHL SUB NOT AND PUSH1 0x1 PUSH1 0x1 PUSH1 0xA0 SHL SUB DUP4 AND OR SWAP1 SSTORE PUSH1 0x40 MLOAD PUSH32 0xB8FD9AFC34C38FCD13B9A3B7646482EB1FDDCEFB40AF2C70609972816EBA3208 SWAP1 PUSH2 0x824 SWAP1 DUP4 SWAP1 PUSH2 0x510C JUMP JUMPDEST PUSH1 0x40 MLOAD DUP1 SWAP2 SUB SWAP1 LOG1 POP JUMP JUMPDEST PUSH2 0x837 PUSH2 0x1BF2 JUMP JUMPDEST PUSH2 0x840 DUP2 PUSH2 0x1C20 JUMP JUMPDEST POP JUMP JUMPDEST PUSH1 0x2 SLOAD SWAP1 JUMP JUMPDEST PUSH1 0x0 DUP1 PUSH1 0x0 PUSH2 0x856 PUSH2 0x1C9C JUMP JUMPDEST ISZERO SWAP3 POP PUSH2 0x861 PUSH2 0x1CB9 JUMP JUMPDEST SWAP2 POP PUSH2 0x86B PUSH2 0x1CDD JUMP JUMPDEST SWAP1 POP SWAP1 SWAP2 SWAP3 JUMP JUMPDEST PUSH1 0x60 DUP2 MLOAD PUSH1 0x1 PUSH1 0x1 PUSH1 0x40 SHL SUB DUP2 GT DUP1 ISZERO PUSH2 0x88B JUMPI PUSH1 0x0 DUP1 REVERT JUMPDEST POP PUSH1 0x40 MLOAD SWAP1 DUP1 DUP3 MSTORE DUP1 PUSH1 0x20 MUL PUSH1 0x20 ADD DUP3 ADD PUSH1 0x40 MSTORE DUP1 ISZERO PUSH2 0x8B5 JUMPI DUP2 PUSH1 0x20 ADD PUSH1 0x20 DUP3 MUL DUP1 CALLDATASIZE DUP4 CALLDATACOPY ADD SWAP1 POP JUMPDEST POP SWAP1 POP PUSH1 0x0 PUSH2 0x8C2 PUSH2 0x1D01 JUMP JUMPDEST SWAP1 POP PUSH1 0x0 JUMPDEST DUP4 MLOAD DUP2 LT ISZERO PUSH2 0x98E JUMPI PUSH20 0x0 PUSH4 0x79EAEF82 PUSH1 0x8 DUP7 DUP5 DUP2 MLOAD DUP2 LT PUSH2 0x8F8 JUMPI INVALID JUMPDEST PUSH1 0x20 MUL PUSH1 0x20 ADD ADD MLOAD DUP6 PUSH1 0x40 MLOAD DUP5 PUSH4 0xFFFFFFFF AND PUSH1 0xE0 SHL DUP2 MSTORE PUSH1 0x4 ADD PUSH2 0x91F SWAP4 SWAP3 SWAP2 SWAP1 PUSH2 0x529B JUMP JUMPDEST PUSH1 0x20 PUSH1 0x40 MLOAD DUP1 DUP4 SUB DUP2 DUP7 DUP1 EXTCODESIZE ISZERO DUP1 ISZERO PUSH2 0x937 JUMPI PUSH1 0x0 DUP1 REVERT JUMPDEST POP GAS DELEGATECALL ISZERO DUP1 ISZERO PUSH2 0x94B JUMPI RETURNDATASIZE PUSH1 0x0 DUP1 RETURNDATACOPY RETURNDATASIZE PUSH1 0x0 REVERT JUMPDEST POP POP POP POP PUSH1 0x40 MLOAD RETURNDATASIZE PUSH1 0x1F NOT PUSH1 0x1F DUP3 ADD AND DUP3 ADD DUP1 PUSH1 0x40 MSTORE POP DUP2 ADD SWAP1 PUSH2 0x96F SWAP2 SWAP1 PUSH2 0x4EBB JUMP JUMPDEST DUP4 DUP3 DUP2 MLOAD DUP2 LT PUSH2 0x97B JUMPI INVALID JUMPDEST PUSH1 0x20 SWAP1 DUP2 MUL SWAP2 SWAP1 SWAP2 ADD ADD MSTORE PUSH1 0x1 ADD PUSH2 0x8C7 JUMP JUMPDEST POP POP SWAP2 SWAP1 POP JUMP JUMPDEST PUSH1 0x0 DUP1 PUSH2 0x9A2 DUP6 CALLER PUSH2 0x1ABF JUMP JUMPDEST SWAP1 POP PUSH2 0x9C6 CALLER PUSH1 0x1 PUSH1 0x1 PUSH1 0xA0 SHL SUB DUP8 AND EQ DUP1 PUSH2 0x9BE JUMPI POP DUP4 DUP3 LT ISZERO JUMPDEST PUSH2 0x19E PUSH2 0x1D0E JUMP JUMPDEST PUSH2 0x9D1 DUP6 DUP6 DUP6 PUSH2 0x1D1C JUMP JUMPDEST CALLER PUSH1 0x1 PUSH1 0x1 PUSH1 0xA0 SHL SUB DUP7 AND EQ DUP1 ISZERO SWAP1 PUSH2 0x9EC JUMPI POP PUSH1 0x0 NOT DUP2 EQ ISZERO JUMPDEST ISZERO PUSH2 0x9FE JUMPI PUSH2 0x9FE DUP6 CALLER DUP6 DUP5 SUB PUSH2 0x1B90 JUMP JUMPDEST POP PUSH1 0x1 SWAP5 SWAP4 POP POP POP POP JUMP JUMPDEST PUSH2 0xA11 PUSH2 0x1E04 JUMP JUMPDEST PUSH2 0xA19 PUSH2 0x1BF2 JUMP JUMPDEST PUSH2 0xA23 PUSH1 0x1 PUSH2 0x1E17 JUMP JUMPDEST PUSH1 0x0 PUSH2 0xA2D PUSH2 0x843 JUMP JUMPDEST GT ISZERO PUSH2 0xA3B JUMPI PUSH2 0xA3B PUSH2 0x1E57 JUMP JUMPDEST JUMP JUMPDEST PUSH1 0x5 SLOAD PUSH1 0xFF AND SWAP1 JUMP JUMPDEST PUSH2 0xA61 DUP2 DUP4 LT DUP1 ISZERO PUSH2 0xA5A JUMPI POP PUSH2 0x400 DUP3 GT ISZERO JUMPDEST PUSH1 0x64 PUSH2 0x1D0E JUMP JUMPDEST PUSH1 0x0 PUSH2 0xA76 PUSH1 0x1 PUSH1 0x0 DUP1 PUSH1 0x0 DUP1 PUSH1 0x0 DUP1 PUSH2 0x1E9F JUMP JUMPDEST SWAP1 POP DUP3 JUMPDEST DUP3 DUP2 LT ISZERO PUSH2 0xAB8 JUMPI PUSH1 0x0 DUP2 DUP2 MSTORE PUSH1 0x8 PUSH1 0x20 MSTORE PUSH1 0x40 SWAP1 KECCAK256 SLOAD PUSH2 0xA9A SWAP1 PUSH2 0x1EFF JUMP JUMPDEST PUSH2 0xAB0 JUMPI PUSH1 0x0 DUP2 DUP2 MSTORE PUSH1 0x8 PUSH1 0x20 MSTORE PUSH1 0x40 SWAP1 KECCAK256 DUP3 SWAP1 SSTORE JUMPDEST PUSH1 0x1 ADD PUSH2 0xA7A JUMP JUMPDEST POP POP POP POP JUMP JUMPDEST PUSH1 0x0 PUSH2 0xAC8 PUSH2 0x1F0B JUMP JUMPDEST SWAP1 POP SWAP1 JUMP JUMPDEST PUSH2 0xAD5 PUSH2 0x1BF2 JUMP JUMPDEST PUSH2 0xADD PUSH2 0x1E04 JUMP JUMPDEST PUSH2 0x840 DUP2 PUSH2 0x1FC9 JUMP JUMPDEST PUSH32 0x0 SWAP1 JUMP JUMPDEST CALLER PUSH1 0x0 DUP2 DUP2 MSTORE PUSH1 0x1 PUSH1 0x20 SWAP1 DUP2 MSTORE PUSH1 0x40 DUP1 DUP4 KECCAK256 PUSH1 0x1 PUSH1 0x1 PUSH1 0xA0 SHL SUB DUP8 AND DUP5 MSTORE SWAP1 SWAP2 MSTORE DUP2 KECCAK256 SLOAD SWAP1 SWAP2 PUSH2 0x774 SWAP2 DUP6 SWAP1 PUSH2 0xB40 SWAP1 DUP7 PUSH2 0x2032 JUMP JUMPDEST PUSH2 0x1B90 JUMP JUMPDEST PUSH2 0xB4D PUSH2 0x4850 JUMP JUMPDEST POP PUSH1 0x40 DUP1 MLOAD PUSH1 0x60 DUP2 ADD DUP3 MSTORE PUSH1 0xB SLOAD PUSH1 0xFF DUP2 AND ISZERO ISZERO DUP3 MSTORE PUSH2 0x100 DUP2 DIV PUSH1 0x1 PUSH1 0x1 PUSH1 0x78 SHL SUB AND PUSH1 0x20 DUP4 ADD MSTORE PUSH1 0x1 PUSH1 0x80 SHL SWAP1 DIV PUSH1 0x1 PUSH1 0x1 PUSH1 0x80 SHL SUB AND SWAP2 DUP2 ADD SWAP2 SWAP1 SWAP2 MSTORE SWAP1 JUMP JUMPDEST PUSH1 0x0 DUP1 PUSH1 0x0 DUP1 PUSH2 0xB9F DUP6 PUSH2 0x2044 JUMP JUMPDEST SWAP1 POP PUSH1 0x0 PUSH2 0xBAD DUP7 ISZERO PUSH2 0x2044 JUMP JUMPDEST SWAP1 POP PUSH2 0xBB9 DUP9 DUP4 PUSH2 0x2098 JUMP JUMPDEST SWAP8 POP PUSH2 0xBC5 DUP8 DUP3 PUSH2 0x2098 JUMP JUMPDEST SWAP7 POP PUSH2 0xBD2 DUP9 DUP9 DUP9 PUSH2 0x20A4 JUMP JUMPDEST SWAP5 POP SWAP5 POP SWAP5 POP POP POP SWAP4 POP SWAP4 POP SWAP4 SWAP1 POP JUMP JUMPDEST PUSH1 0xD SLOAD PUSH1 0x40 DUP1 MLOAD DUP1 DUP3 ADD SWAP1 SWAP2 MSTORE PUSH1 0x11 DUP2 MSTORE PUSH17 0x3737BA103830BAB9B29036B0B730B3B2B9 PUSH1 0x79 SHL PUSH1 0x20 DUP3 ADD MSTORE SWAP1 PUSH1 0x1 PUSH1 0x1 PUSH1 0xA0 SHL SUB AND CALLER EQ PUSH2 0xCA2 JUMPI PUSH1 0x40 MLOAD PUSH3 0x461BCD PUSH1 0xE5 SHL DUP2 MSTORE PUSH1 0x4 ADD DUP1 DUP1 PUSH1 0x20 ADD DUP3 DUP2 SUB DUP3 MSTORE DUP4 DUP2 DUP2 MLOAD DUP2 MSTORE PUSH1 0x20 ADD SWAP2 POP DUP1 MLOAD SWAP1 PUSH1 0x20 ADD SWAP1 DUP1 DUP4 DUP4 PUSH1 0x0 JUMPDEST DUP4 DUP2 LT ISZERO PUSH2 0xC67 JUMPI DUP2 DUP2 ADD MLOAD DUP4 DUP3 ADD MSTORE PUSH1 0x20 ADD PUSH2 0xC4F JUMP JUMPDEST POP POP POP POP SWAP1 POP SWAP1 DUP2 ADD SWAP1 PUSH1 0x1F AND DUP1 ISZERO PUSH2 0xC94 JUMPI DUP1 DUP3 SUB DUP1 MLOAD PUSH1 0x1 DUP4 PUSH1 0x20 SUB PUSH2 0x100 EXP SUB NOT AND DUP2 MSTORE PUSH1 0x20 ADD SWAP2 POP JUMPDEST POP SWAP3 POP POP POP PUSH1 0x40 MLOAD DUP1 SWAP2 SUB SWAP1 REVERT JUMPDEST POP PUSH2 0xCAD PUSH1 0x0 PUSH2 0x837 JUMP JUMPDEST PUSH1 0x40 MLOAD PUSH32 0x215385C8BFC731925EC8068D7BAA50F6B6F34417CC7804F7273DC2C0B3DB2790 SWAP1 PUSH1 0x0 SWAP1 LOG1 JUMP JUMPDEST PUSH1 0xE SLOAD PUSH1 0x1 PUSH1 0x1 PUSH1 0xA0 SHL SUB AND DUP2 JUMP JUMPDEST PUSH1 0x0 DUP1 PUSH1 0x0 DUP1 PUSH1 0x0 DUP1 PUSH1 0x0 PUSH1 0x9 SLOAD SWAP1 POP PUSH2 0xD00 DUP2 PUSH2 0x2173 JUMP JUMPDEST SWAP7 POP PUSH2 0xD0B DUP2 PUSH2 0x217F JUMP JUMPDEST SWAP6 POP PUSH2 0xD16 DUP2 PUSH2 0x218C JUMP JUMPDEST SWAP5 POP PUSH2 0xD21 DUP2 PUSH2 0x2199 JUMP JUMPDEST SWAP4 POP PUSH2 0xD2C DUP2 PUSH2 0x21A6 JUMP JUMPDEST SWAP3 POP PUSH2 0xD37 DUP2 PUSH2 0x21B3 JUMP JUMPDEST SWAP2 POP POP SWAP1 SWAP2 SWAP3 SWAP4 SWAP5 SWAP6 JUMP JUMPDEST PUSH1 0x0 PUSH2 0xAC8 PUSH1 0x9 SLOAD PUSH2 0x21B3 JUMP JUMPDEST PUSH1 0x0 PUSH1 0x60 PUSH2 0xD5F DUP7 MLOAD PUSH1 0x2 PUSH2 0x21C0 JUMP JUMPDEST PUSH2 0xD74 DUP10 DUP10 DUP10 DUP10 DUP10 DUP10 DUP10 PUSH2 0x21CD PUSH2 0x22E1 PUSH2 0x235F JUMP JUMPDEST SWAP8 POP SWAP8 SWAP6 POP POP POP POP POP POP JUMP JUMPDEST PUSH1 0x0 DUP1 PUSH1 0x0 DUP1 PUSH1 0x0 DUP1 PUSH1 0x0 PUSH2 0xD9B PUSH2 0x400 DUP10 LT PUSH2 0x13B PUSH2 0x1D0E JUMP JUMPDEST PUSH1 0x0 PUSH2 0xDA6 DUP10 PUSH2 0x2472 JUMP JUMPDEST SWAP1 POP PUSH2 0xDB1 DUP2 PUSH2 0x2484 JUMP JUMPDEST SWAP6 SWAP16 SWAP5 SWAP15 POP SWAP3 SWAP13 POP SWAP1 SWAP11 POP SWAP9 POP SWAP7 POP SWAP1 SWAP5 POP SWAP3 POP POP POP JUMP JUMPDEST PUSH1 0x0 PUSH2 0xAC8 PUSH2 0xDD6 PUSH2 0x843 JUMP JUMPDEST PUSH2 0xDE8 PUSH2 0xDE1 PUSH2 0x1763 JUMP JUMPDEST PUSH1 0x2 PUSH2 0x24E7 JUMP JUMPDEST SWAP1 PUSH2 0x250B JUMP JUMPDEST PUSH1 0x60 DUP2 MLOAD PUSH1 0x1 PUSH1 0x1 PUSH1 0x40 SHL SUB DUP2 GT DUP1 ISZERO PUSH2 0xE07 JUMPI PUSH1 0x0 DUP1 REVERT JUMPDEST POP PUSH1 0x40 MLOAD SWAP1 DUP1 DUP3 MSTORE DUP1 PUSH1 0x20 MUL PUSH1 0x20 ADD DUP3 ADD PUSH1 0x40 MSTORE DUP1 ISZERO PUSH2 0xE31 JUMPI DUP2 PUSH1 0x20 ADD PUSH1 0x20 DUP3 MUL DUP1 CALLDATASIZE DUP4 CALLDATACOPY ADD SWAP1 POP JUMPDEST POP SWAP1 POP PUSH1 0x0 PUSH2 0xE3E PUSH2 0x1D01 JUMP JUMPDEST SWAP1 POP PUSH2 0xE48 PUSH2 0x4870 JUMP JUMPDEST PUSH1 0x0 JUMPDEST DUP5 MLOAD DUP2 LT ISZERO PUSH2 0xE9C JUMPI DUP5 DUP2 DUP2 MLOAD DUP2 LT PUSH2 0xE60 JUMPI INVALID JUMPDEST PUSH1 0x20 MUL PUSH1 0x20 ADD ADD MLOAD SWAP2 POP PUSH2 0xE7D DUP3 PUSH1 0x0 ADD MLOAD DUP5 DUP5 PUSH1 0x20 ADD MLOAD PUSH2 0x2565 JUMP JUMPDEST DUP5 DUP3 DUP2 MLOAD DUP2 LT PUSH2 0xE89 JUMPI INVALID JUMPDEST PUSH1 0x20 SWAP1 DUP2 MUL SWAP2 SWAP1 SWAP2 ADD ADD MSTORE PUSH1 0x1 ADD PUSH2 0xE4B JUMP JUMPDEST POP POP POP SWAP2 SWAP1 POP JUMP JUMPDEST PUSH1 0xC SLOAD PUSH1 0x1 PUSH1 0x1 PUSH1 0xA0 SHL SUB AND DUP2 JUMP JUMPDEST PUSH2 0xEBB PUSH2 0x4887 JUMP JUMPDEST PUSH2 0xAC8 PUSH2 0x25FE JUMP JUMPDEST PUSH1 0x1 PUSH1 0x1 PUSH1 0xA0 SHL SUB DUP2 AND PUSH1 0x0 SWAP1 DUP2 MSTORE PUSH1 0x20 DUP2 SWAP1 MSTORE PUSH1 0x40 SWAP1 KECCAK256 SLOAD JUMPDEST SWAP2 SWAP1 POP JUMP JUMPDEST PUSH1 0x60 DUP1 DUP9 PUSH2 0xF0C PUSH2 0xEF1 PUSH2 0x1309 JUMP JUMPDEST PUSH1 0x1 PUSH1 0x1 PUSH1 0xA0 SHL SUB AND CALLER PUSH1 0x1 PUSH1 0x1 PUSH1 0xA0 SHL SUB AND EQ PUSH1 0xCD PUSH2 0x1D0E JUMP JUMPDEST PUSH2 0xF21 PUSH2 0xF17 PUSH2 0xAE6 JUMP JUMPDEST DUP3 EQ PUSH2 0x1F4 PUSH2 0x1D0E JUMP JUMPDEST PUSH2 0xF2A DUP8 PUSH2 0x2624 JUMP JUMPDEST PUSH1 0x0 DUP1 PUSH1 0x0 PUSH2 0xF3E DUP14 DUP14 DUP14 DUP14 DUP14 DUP14 DUP14 PUSH2 0x21CD JUMP JUMPDEST SWAP3 POP SWAP3 POP SWAP3 POP PUSH2 0xF4E DUP13 DUP5 PUSH2 0x2686 JUMP JUMPDEST PUSH2 0xF57 DUP3 PUSH2 0x22E1 JUMP JUMPDEST PUSH2 0xF60 DUP2 PUSH2 0x22E1 JUMP JUMPDEST PUSH2 0xF68 PUSH2 0x1C9C JUMP JUMPDEST ISZERO PUSH2 0xF75 JUMPI PUSH2 0xF75 PUSH2 0x1E57 JUMP JUMPDEST SWAP1 SWAP13 SWAP1 SWAP12 POP SWAP10 POP POP POP POP POP POP POP POP POP POP JUMP JUMPDEST PUSH1 0xC SLOAD PUSH1 0x40 DUP1 MLOAD DUP1 DUP3 ADD SWAP1 SWAP2 MSTORE PUSH1 0xE DUP2 MSTORE PUSH14 0x1B9BDD08185D5D1A1BDC9A5E9959 PUSH1 0x92 SHL PUSH1 0x20 DUP3 ADD MSTORE SWAP1 PUSH1 0x1 PUSH1 0x1 PUSH1 0xA0 SHL SUB AND CALLER EQ PUSH2 0xFD8 JUMPI PUSH1 0x40 MLOAD PUSH3 0x461BCD PUSH1 0xE5 SHL DUP2 MSTORE PUSH1 0x4 ADD PUSH2 0x7CF SWAP2 SWAP1 PUSH2 0x52D4 JUMP JUMPDEST POP PUSH1 0xB SLOAD PUSH1 0x40 DUP1 MLOAD DUP1 DUP3 ADD SWAP1 SWAP2 MSTORE PUSH1 0x10 DUP2 MSTORE PUSH16 0x1C1BDBDB081A5CC81D5B98D85C1C1959 PUSH1 0x82 SHL PUSH1 0x20 DUP3 ADD MSTORE SWAP1 PUSH1 0xFF AND PUSH2 0x1024 JUMPI PUSH1 0x40 MLOAD PUSH3 0x461BCD PUSH1 0xE5 SHL DUP2 MSTORE PUSH1 0x4 ADD PUSH2 0x7CF SWAP2 SWAP1 PUSH2 0x52D4 JUMP JUMPDEST POP DUP1 MLOAD PUSH1 0xB DUP1 SLOAD PUSH1 0x20 DUP5 ADD MLOAD PUSH1 0x40 DUP1 DUP7 ADD MLOAD PUSH1 0xFF NOT SWAP1 SWAP4 AND SWAP5 ISZERO ISZERO SWAP5 SWAP1 SWAP5 OR PUSH16 0xFFFFFFFFFFFFFFFFFFFFFFFFFFFFFF00 NOT AND PUSH2 0x100 PUSH1 0x1 PUSH1 0x1 PUSH1 0x78 SHL SUB SWAP1 SWAP3 AND SWAP2 SWAP1 SWAP2 MUL OR PUSH1 0x1 PUSH1 0x1 PUSH1 0x80 SHL SUB SWAP1 DUP2 AND PUSH1 0x1 PUSH1 0x80 SHL SWAP2 SWAP1 SWAP3 AND MUL OR DUP2 SSTORE SWAP1 MLOAD PUSH32 0x2ABF5970D7BC1A2B36EAAE52DD2CC353EDB0337C7284EF8A01973081B4E04424 SWAP2 PUSH2 0x824 SWAP2 PUSH2 0x535C JUMP JUMPDEST PUSH1 0x1 PUSH1 0x1 PUSH1 0xA0 SHL SUB AND PUSH1 0x0 SWAP1 DUP2 MSTORE PUSH1 0x6 PUSH1 0x20 MSTORE PUSH1 0x40 SWAP1 KECCAK256 SLOAD SWAP1 JUMP JUMPDEST PUSH1 0xD SLOAD PUSH1 0x40 DUP1 MLOAD DUP1 DUP3 ADD SWAP1 SWAP2 MSTORE PUSH1 0x11 DUP2 MSTORE PUSH17 0x3737BA103830BAB9B29036B0B730B3B2B9 PUSH1 0x79 SHL PUSH1 0x20 DUP3 ADD MSTORE PUSH1 0x1 PUSH1 0x1 PUSH1 0xA0 SHL SUB SWAP1 SWAP2 AND SWAP1 CALLER DUP3 EQ PUSH2 0x114E JUMPI PUSH1 0x40 MLOAD PUSH3 0x461BCD PUSH1 0xE5 SHL DUP2 MSTORE PUSH1 0x20 PUSH1 0x4 DUP3 ADD DUP2 DUP2 MSTORE DUP4 MLOAD PUSH1 0x24 DUP5 ADD MSTORE DUP4 MLOAD SWAP1 SWAP3 DUP4 SWAP3 PUSH1 0x44 SWAP1 SWAP2 ADD SWAP2 SWAP1 DUP6 ADD SWAP1 DUP1 DUP4 DUP4 PUSH1 0x0 DUP4 ISZERO PUSH2 0xC67 JUMPI DUP2 DUP2 ADD MLOAD DUP4 DUP3 ADD MSTORE PUSH1 0x20 ADD PUSH2 0xC4F JUMP JUMPDEST POP PUSH1 0xD DUP1 SLOAD PUSH1 0x1 PUSH1 0x1 PUSH1 0xA0 SHL SUB NOT AND PUSH1 0x1 PUSH1 0x1 PUSH1 0xA0 SHL SUB DUP5 DUP2 AND SWAP2 DUP3 OR SWAP1 SWAP3 SSTORE PUSH1 0x40 DUP1 MLOAD SWAP3 DUP5 AND DUP4 MSTORE PUSH1 0x20 DUP4 ADD SWAP2 SWAP1 SWAP2 MSTORE DUP1 MLOAD PUSH32 0x1FFCCD1FA96F4FB3415DF8048A0FD107344E262D2D246C85105E2A3F8F3E8198 SWAP3 DUP2 SWAP1 SUB SWAP1 SWAP2 ADD SWAP1 LOG1 POP POP JUMP JUMPDEST PUSH1 0xD SLOAD PUSH1 0x40 DUP1 MLOAD DUP1 DUP3 ADD SWAP1 SWAP2 MSTORE PUSH1 0x11 DUP2 MSTORE PUSH17 0x3737BA103830BAB9B29036B0B730B3B2B9 PUSH1 0x79 SHL PUSH1 0x20 DUP3 ADD MSTORE SWAP1 PUSH1 0x1 PUSH1 0x1 PUSH1 0xA0 SHL SUB AND CALLER EQ PUSH2 0x1231 JUMPI PUSH1 0x40 MLOAD PUSH3 0x461BCD PUSH1 0xE5 SHL DUP2 MSTORE PUSH1 0x20 PUSH1 0x4 DUP3 ADD DUP2 DUP2 MSTORE DUP4 MLOAD PUSH1 0x24 DUP5 ADD MSTORE DUP4 MLOAD SWAP1 SWAP3 DUP4 SWAP3 PUSH1 0x44 SWAP1 SWAP2 ADD SWAP2 SWAP1 DUP6 ADD SWAP1 DUP1 DUP4 DUP4 PUSH1 0x0 DUP4 ISZERO PUSH2 0xC67 JUMPI DUP2 DUP2 ADD MLOAD DUP4 DUP3 ADD MSTORE PUSH1 0x20 ADD PUSH2 0xC4F JUMP JUMPDEST POP PUSH2 0x123C PUSH1 0x1 PUSH2 0x837 JUMP JUMPDEST PUSH1 0x40 MLOAD PUSH32 0x681EACE576127D0553B224436A09801FB47D042942CBFF59D7D4FF04D8FA03D7 SWAP1 PUSH1 0x0 SWAP1 LOG1 JUMP JUMPDEST PUSH1 0x40 DUP1 MLOAD PUSH32 0x0 PUSH1 0x20 DUP1 DUP4 ADD SWAP2 SWAP1 SWAP2 MSTORE PUSH1 0x1 PUSH1 0x1 PUSH1 0xE0 SHL SUB NOT DUP5 AND DUP3 DUP5 ADD MSTORE DUP3 MLOAD PUSH1 0x24 DUP2 DUP5 SUB ADD DUP2 MSTORE PUSH1 0x44 SWAP1 SWAP3 ADD SWAP1 SWAP3 MSTORE DUP1 MLOAD SWAP2 ADD KECCAK256 SWAP2 SWAP1 POP JUMP JUMPDEST PUSH1 0x0 PUSH1 0x60 PUSH2 0x12D0 DUP7 MLOAD PUSH1 0x2 PUSH2 0x21C0 JUMP JUMPDEST PUSH2 0xD74 DUP10 DUP10 DUP10 DUP10 DUP10 DUP10 DUP10 PUSH2 0x2690 PUSH2 0x2760 PUSH2 0x235F JUMP JUMPDEST PUSH32 0x0 SWAP1 JUMP JUMPDEST PUSH32 0x0 SWAP1 JUMP JUMPDEST PUSH1 0x60 PUSH1 0x0 PUSH2 0x1339 PUSH2 0x1309 JUMP JUMPDEST PUSH1 0x1 PUSH1 0x1 PUSH1 0xA0 SHL SUB AND PUSH4 0xF94D4668 PUSH2 0x134F PUSH2 0xAE6 JUMP JUMPDEST PUSH1 0x40 MLOAD DUP3 PUSH4 0xFFFFFFFF AND PUSH1 0xE0 SHL DUP2 MSTORE PUSH1 0x4 ADD PUSH2 0x136B SWAP2 SWAP1 PUSH2 0x51F0 JUMP JUMPDEST PUSH1 0x0 PUSH1 0x40 MLOAD DUP1 DUP4 SUB DUP2 DUP7 DUP1 EXTCODESIZE ISZERO DUP1 ISZERO PUSH2 0x1383 JUMPI PUSH1 0x0 DUP1 REVERT JUMPDEST POP GAS STATICCALL ISZERO DUP1 ISZERO PUSH2 0x1397 JUMPI RETURNDATASIZE PUSH1 0x0 DUP1 RETURNDATACOPY RETURNDATASIZE PUSH1 0x0 REVERT JUMPDEST POP POP POP POP PUSH1 0x40 MLOAD RETURNDATASIZE PUSH1 0x0 DUP3 RETURNDATACOPY PUSH1 0x1F RETURNDATASIZE SWAP1 DUP2 ADD PUSH1 0x1F NOT AND DUP3 ADD PUSH1 0x40 MSTORE PUSH2 0x13BF SWAP2 SWAP1 DUP2 ADD SWAP1 PUSH2 0x4AFE JUMP JUMPDEST POP SWAP2 POP POP PUSH2 0x13CC DUP2 PUSH2 0x2624 JUMP JUMPDEST PUSH2 0x1400 DUP2 PUSH1 0x0 DUP2 MLOAD DUP2 LT PUSH2 0x13DC JUMPI INVALID JUMPDEST PUSH1 0x20 MUL PUSH1 0x20 ADD ADD MLOAD DUP3 PUSH1 0x1 DUP2 MLOAD DUP2 LT PUSH2 0x13F1 JUMPI INVALID JUMPDEST PUSH1 0x20 MUL PUSH1 0x20 ADD ADD MLOAD PUSH1 0x1 PUSH2 0x20A4 JUMP JUMPDEST SWAP1 SWAP2 POP DUP4 PUSH1 0x0 DUP2 MLOAD DUP2 LT PUSH2 0x1410 JUMPI INVALID JUMPDEST PUSH1 0x20 MUL PUSH1 0x20 ADD ADD DUP5 PUSH1 0x1 DUP2 MLOAD DUP2 LT PUSH2 0x1424 JUMPI INVALID JUMPDEST PUSH1 0x20 SWAP1 DUP2 MUL SWAP2 SWAP1 SWAP2 ADD ADD SWAP2 SWAP1 SWAP2 MSTORE MSTORE POP SWAP1 JUMP JUMPDEST PUSH1 0x4 DUP1 SLOAD PUSH1 0x40 DUP1 MLOAD PUSH1 0x20 PUSH1 0x1F PUSH1 0x2 PUSH1 0x0 NOT PUSH2 0x100 PUSH1 0x1 DUP9 AND ISZERO MUL ADD SWAP1 SWAP6 AND SWAP5 SWAP1 SWAP5 DIV SWAP4 DUP5 ADD DUP2 SWAP1 DIV DUP2 MUL DUP3 ADD DUP2 ADD SWAP1 SWAP3 MSTORE DUP3 DUP2 MSTORE PUSH1 0x60 SWAP4 SWAP1 SWAP3 SWAP1 SWAP2 DUP4 ADD DUP3 DUP3 DUP1 ISZERO PUSH2 0x75D JUMPI DUP1 PUSH1 0x1F LT PUSH2 0x732 JUMPI PUSH2 0x100 DUP1 DUP4 SLOAD DIV MUL DUP4 MSTORE SWAP2 PUSH1 0x20 ADD SWAP2 PUSH2 0x75D JUMP JUMPDEST PUSH1 0xA SLOAD SWAP1 JUMP JUMPDEST PUSH1 0x0 PUSH2 0x14A8 PUSH2 0x1E04 JUMP JUMPDEST DUP4 PUSH1 0x80 ADD MLOAD PUSH2 0x14B8 PUSH2 0xEF1 PUSH2 0x1309 JUMP JUMPDEST PUSH2 0x14C3 PUSH2 0xF17 PUSH2 0xAE6 JUMP JUMPDEST PUSH1 0x0 PUSH32 0x0 PUSH1 0x1 PUSH1 0x1 PUSH1 0xA0 SHL SUB AND DUP7 PUSH1 0x20 ADD MLOAD PUSH1 0x1 PUSH1 0x1 PUSH1 0xA0 SHL SUB AND EQ SWAP1 POP PUSH1 0x0 PUSH2 0x150B DUP3 PUSH2 0x2044 JUMP JUMPDEST SWAP1 POP PUSH1 0x0 PUSH2 0x1519 DUP4 ISZERO PUSH2 0x2044 JUMP JUMPDEST SWAP1 POP PUSH2 0x1525 DUP8 DUP4 PUSH2 0x2098 JUMP JUMPDEST SWAP7 POP PUSH2 0x1531 DUP7 DUP3 PUSH2 0x2098 JUMP JUMPDEST SWAP6 POP PUSH1 0x0 DUP1 PUSH1 0x0 PUSH2 0x1543 DUP11 DUP11 DUP9 PUSH2 0x20A4 JUMP JUMPDEST SWAP3 POP SWAP3 POP SWAP3 POP PUSH2 0x158A DUP12 PUSH1 0xA0 ADD MLOAD DUP8 PUSH2 0x155C JUMPI DUP11 PUSH2 0x155E JUMP JUMPDEST DUP12 JUMPDEST DUP9 PUSH2 0x1569 JUMPI DUP13 PUSH2 0x156B JUMP JUMPDEST DUP12 JUMPDEST DUP10 PUSH2 0x1576 JUMPI DUP5 PUSH2 0x1578 JUMP JUMPDEST DUP6 JUMPDEST DUP11 PUSH2 0x1583 JUMPI DUP7 PUSH2 0x1585 JUMP JUMPDEST DUP6 JUMPDEST PUSH2 0x27C2 JUMP JUMPDEST PUSH1 0x0 DUP12 MLOAD PUSH1 0x1 DUP2 GT ISZERO PUSH2 0x1599 JUMPI INVALID JUMPDEST EQ ISZERO PUSH2 0x1608 JUMPI PUSH1 0x0 PUSH2 0x15B7 PUSH2 0x15AC PUSH2 0xD42 JUMP JUMPDEST PUSH1 0x60 DUP15 ADD MLOAD SWAP1 PUSH2 0x286C JUMP JUMPDEST SWAP1 POP PUSH2 0x15D9 PUSH2 0x15D3 DUP3 DUP15 PUSH1 0x60 ADD MLOAD PUSH2 0x28C1 SWAP1 SWAP2 SWAP1 PUSH4 0xFFFFFFFF AND JUMP JUMPDEST DUP8 PUSH2 0x2098 JUMP JUMPDEST PUSH1 0x60 DUP14 ADD MSTORE PUSH1 0x0 PUSH2 0x15ED DUP14 DUP14 DUP14 DUP8 DUP8 PUSH2 0x28D7 JUMP JUMPDEST SWAP1 POP PUSH2 0x15F9 DUP2 DUP8 PUSH2 0x28F6 JUMP JUMPDEST SWAP10 POP POP POP POP POP POP POP POP POP PUSH2 0x165C JUMP JUMPDEST PUSH2 0x1616 DUP12 PUSH1 0x60 ADD MLOAD DUP6 PUSH2 0x2098 JUMP JUMPDEST PUSH1 0x60 DUP13 ADD MSTORE PUSH1 0x0 PUSH2 0x162A DUP13 DUP13 DUP13 DUP7 DUP7 PUSH2 0x2902 JUMP JUMPDEST SWAP1 POP PUSH2 0x1636 DUP2 DUP8 PUSH2 0x2915 JUMP JUMPDEST SWAP1 POP PUSH2 0x1652 PUSH2 0x164B PUSH2 0x1646 PUSH2 0xD42 JUMP JUMPDEST PUSH2 0x2921 JUMP JUMPDEST DUP3 SWAP1 PUSH2 0x2947 JUMP JUMPDEST SWAP9 POP POP POP POP POP POP POP POP JUMPDEST POP SWAP4 SWAP3 POP POP POP JUMP JUMPDEST PUSH1 0x0 DUP1 PUSH2 0x1671 CALLER DUP6 PUSH2 0x1ABF JUMP JUMPDEST SWAP1 POP DUP1 DUP4 LT PUSH2 0x168B JUMPI PUSH2 0x1686 CALLER DUP6 PUSH1 0x0 PUSH2 0x1B90 JUMP JUMPDEST PUSH2 0x1698 JUMP JUMPDEST PUSH2 0x1698 CALLER DUP6 DUP6 DUP5 SUB PUSH2 0x1B90 JUMP JUMPDEST POP PUSH1 0x1 SWAP4 SWAP3 POP POP POP JUMP JUMPDEST PUSH1 0x0 PUSH2 0x774 CALLER DUP5 DUP5 PUSH2 0x1D1C JUMP JUMPDEST PUSH1 0x0 PUSH2 0xAC8 PUSH2 0x29AD JUMP JUMPDEST PUSH1 0xD SLOAD PUSH1 0x1 PUSH1 0x1 PUSH1 0xA0 SHL SUB AND DUP2 JUMP JUMPDEST PUSH1 0x0 PUSH20 0x0 PUSH4 0x397BEE0 PUSH1 0x8 DUP5 PUSH2 0x16EF PUSH2 0x1D01 JUMP JUMPDEST PUSH1 0x40 MLOAD DUP5 PUSH4 0xFFFFFFFF AND PUSH1 0xE0 SHL DUP2 MSTORE PUSH1 0x4 ADD PUSH2 0x170D SWAP4 SWAP3 SWAP2 SWAP1 PUSH2 0x5253 JUMP JUMPDEST PUSH1 0x20 PUSH1 0x40 MLOAD DUP1 DUP4 SUB DUP2 DUP7 DUP1 EXTCODESIZE ISZERO DUP1 ISZERO PUSH2 0x1725 JUMPI PUSH1 0x0 DUP1 REVERT JUMPDEST POP GAS DELEGATECALL ISZERO DUP1 ISZERO PUSH2 0x1739 JUMPI RETURNDATASIZE PUSH1 0x0 DUP1 RETURNDATACOPY RETURNDATASIZE PUSH1 0x0 REVERT JUMPDEST POP POP POP POP PUSH1 0x40 MLOAD RETURNDATASIZE PUSH1 0x1F NOT PUSH1 0x1F DUP3 ADD AND DUP3 ADD DUP1 PUSH1 0x40 MSTORE POP DUP2 ADD SWAP1 PUSH2 0x778 SWAP2 SWAP1 PUSH2 0x4EBB JUMP JUMPDEST PUSH2 0x400 SWAP1 JUMP JUMPDEST PUSH1 0x0 DUP1 PUSH2 0x176E PUSH2 0x1309 JUMP JUMPDEST PUSH1 0x1 PUSH1 0x1 PUSH1 0xA0 SHL SUB AND PUSH4 0xF94D4668 PUSH2 0x1784 PUSH2 0xAE6 JUMP JUMPDEST PUSH1 0x40 MLOAD DUP3 PUSH4 0xFFFFFFFF AND PUSH1 0xE0 SHL DUP2 MSTORE PUSH1 0x4 ADD PUSH2 0x17A0 SWAP2 SWAP1 PUSH2 0x51F0 JUMP JUMPDEST PUSH1 0x0 PUSH1 0x40 MLOAD DUP1 DUP4 SUB DUP2 DUP7 DUP1 EXTCODESIZE ISZERO DUP1 ISZERO PUSH2 0x17B8 JUMPI PUSH1 0x0 DUP1 REVERT JUMPDEST POP GAS STATICCALL ISZERO DUP1 ISZERO PUSH2 0x17CC JUMPI RETURNDATASIZE PUSH1 0x0 DUP1 RETURNDATACOPY RETURNDATASIZE PUSH1 0x0 REVERT JUMPDEST POP POP POP POP PUSH1 0x40 MLOAD RETURNDATASIZE PUSH1 0x0 DUP3 RETURNDATACOPY PUSH1 0x1F RETURNDATASIZE SWAP1 DUP2 ADD PUSH1 0x1F NOT AND DUP3 ADD PUSH1 0x40 MSTORE PUSH2 0x17F4 SWAP2 SWAP1 DUP2 ADD SWAP1 PUSH2 0x4AFE JUMP JUMPDEST POP SWAP2 POP POP PUSH1 0x0 PUSH2 0x1802 PUSH2 0x25FE JUMP JUMPDEST SWAP1 POP PUSH2 0x180D DUP3 PUSH2 0x2624 JUMP JUMPDEST PUSH2 0x1828 DUP3 DUP3 PUSH1 0x0 JUMPDEST PUSH1 0x20 MUL ADD MLOAD DUP4 PUSH1 0x1 JUMPDEST PUSH1 0x20 MUL ADD MLOAD PUSH2 0x2A27 JUMP JUMPDEST SWAP3 POP POP POP SWAP1 JUMP JUMPDEST PUSH2 0x183D DUP5 TIMESTAMP GT ISZERO PUSH1 0xD1 PUSH2 0x1D0E JUMP JUMPDEST PUSH1 0x1 PUSH1 0x1 PUSH1 0xA0 SHL SUB DUP1 DUP9 AND PUSH1 0x0 DUP2 DUP2 MSTORE PUSH1 0x6 PUSH1 0x20 SWAP1 DUP2 MSTORE PUSH1 0x40 DUP1 DUP4 KECCAK256 SLOAD DUP2 MLOAD PUSH32 0x0 DUP2 DUP6 ADD MSTORE DUP1 DUP4 ADD SWAP6 SWAP1 SWAP6 MSTORE SWAP5 DUP12 AND PUSH1 0x60 DUP6 ADD MSTORE PUSH1 0x80 DUP5 ADD DUP11 SWAP1 MSTORE PUSH1 0xA0 DUP5 ADD DUP6 SWAP1 MSTORE PUSH1 0xC0 DUP1 DUP6 ADD DUP11 SWAP1 MSTORE DUP2 MLOAD DUP1 DUP7 SUB SWAP1 SWAP2 ADD DUP2 MSTORE PUSH1 0xE0 SWAP1 SWAP5 ADD SWAP1 MSTORE DUP3 MLOAD SWAP3 ADD SWAP2 SWAP1 SWAP2 KECCAK256 SWAP1 PUSH2 0x18C9 DUP3 PUSH2 0x2A5A JUMP JUMPDEST SWAP1 POP PUSH1 0x0 PUSH1 0x1 DUP3 DUP9 DUP9 DUP9 PUSH1 0x40 MLOAD PUSH1 0x0 DUP2 MSTORE PUSH1 0x20 ADD PUSH1 0x40 MSTORE PUSH1 0x40 MLOAD DUP1 DUP6 DUP2 MSTORE PUSH1 0x20 ADD DUP5 PUSH1 0xFF AND DUP2 MSTORE PUSH1 0x20 ADD DUP4 DUP2 MSTORE PUSH1 0x20 ADD DUP3 DUP2 MSTORE PUSH1 0x20 ADD SWAP5 POP POP POP POP POP PUSH1 0x20 PUSH1 0x40 MLOAD PUSH1 0x20 DUP2 SUB SWAP1 DUP1 DUP5 SUB SWAP1 DUP6 GAS STATICCALL ISZERO DUP1 ISZERO PUSH2 0x1927 JUMPI RETURNDATASIZE PUSH1 0x0 DUP1 RETURNDATACOPY RETURNDATASIZE PUSH1 0x0 REVERT JUMPDEST POP POP PUSH1 0x40 MLOAD PUSH1 0x1F NOT ADD MLOAD SWAP2 POP PUSH2 0x1969 SWAP1 POP PUSH1 0x1 PUSH1 0x1 PUSH1 0xA0 SHL SUB DUP3 AND ISZERO DUP1 ISZERO SWAP1 PUSH2 0x1961 JUMPI POP DUP12 PUSH1 0x1 PUSH1 0x1 PUSH1 0xA0 SHL SUB AND DUP3 PUSH1 0x1 PUSH1 0x1 PUSH1 0xA0 SHL SUB AND EQ JUMPDEST PUSH2 0x1F8 PUSH2 0x1D0E JUMP JUMPDEST PUSH1 0x1 PUSH1 0x1 PUSH1 0xA0 SHL SUB DUP12 AND PUSH1 0x0 SWAP1 DUP2 MSTORE PUSH1 0x6 PUSH1 0x20 MSTORE PUSH1 0x40 SWAP1 KECCAK256 PUSH1 0x1 DUP6 ADD SWAP1 SSTORE PUSH2 0x1992 DUP12 DUP12 DUP12 PUSH2 0x1B90 JUMP JUMPDEST POP POP POP POP POP POP POP POP POP POP POP JUMP JUMPDEST PUSH1 0x60 DUP1 DUP9 PUSH2 0x19AE PUSH2 0xEF1 PUSH2 0x1309 JUMP JUMPDEST PUSH2 0x19B9 PUSH2 0xF17 PUSH2 0xAE6 JUMP JUMPDEST PUSH2 0x19C1 PUSH2 0x1E04 JUMP JUMPDEST PUSH1 0x0 PUSH2 0x19CB PUSH2 0x843 JUMP JUMPDEST PUSH2 0x1A3B JUMPI PUSH2 0x19DB DUP12 DUP12 DUP12 DUP9 PUSH2 0x2AA6 JUMP JUMPDEST SWAP5 POP SWAP1 POP PUSH2 0x19F0 PUSH3 0xF4240 DUP3 LT ISZERO PUSH1 0xCC PUSH2 0x1D0E JUMP JUMPDEST PUSH2 0x19FE PUSH1 0x0 PUSH3 0xF4240 PUSH2 0x2B30 JUMP JUMPDEST PUSH2 0x1A0D DUP10 PUSH3 0xF4240 DUP4 SUB PUSH2 0x2B30 JUMP JUMPDEST PUSH2 0x1A16 DUP5 PUSH2 0x2760 JUMP JUMPDEST PUSH1 0x40 DUP1 MLOAD PUSH1 0x2 DUP1 DUP3 MSTORE PUSH1 0x60 DUP3 ADD DUP4 MSTORE SWAP1 SWAP2 PUSH1 0x20 DUP4 ADD SWAP1 DUP1 CALLDATASIZE DUP4 CALLDATACOPY ADD SWAP1 POP POP SWAP3 POP PUSH2 0x1AA9 JUMP JUMPDEST PUSH2 0x1A44 DUP9 PUSH2 0x2624 JUMP JUMPDEST PUSH2 0x1A77 DUP8 DUP10 PUSH1 0x0 DUP2 MLOAD DUP2 LT PUSH2 0x1A55 JUMPI INVALID JUMPDEST PUSH1 0x20 MUL PUSH1 0x20 ADD ADD MLOAD DUP11 PUSH1 0x1 DUP2 MLOAD DUP2 LT PUSH2 0x1A6A JUMPI INVALID JUMPDEST PUSH1 0x20 MUL PUSH1 0x20 ADD ADD MLOAD PUSH2 0x2B3A JUMP JUMPDEST PUSH2 0x1A86 DUP12 DUP12 DUP12 DUP12 DUP12 DUP12 DUP12 PUSH2 0x2690 JUMP JUMPDEST SWAP1 SWAP6 POP SWAP4 POP SWAP1 POP PUSH2 0x1A97 DUP10 DUP3 PUSH2 0x2B30 JUMP JUMPDEST PUSH2 0x1AA0 DUP5 PUSH2 0x2760 JUMP JUMPDEST PUSH2 0x1AA9 DUP4 PUSH2 0x22E1 JUMP JUMPDEST PUSH2 0x1AB1 PUSH2 0x1E57 JUMP JUMPDEST POP POP SWAP8 POP SWAP8 SWAP6 POP POP POP POP POP POP JUMP JUMPDEST PUSH1 0x0 PUSH2 0x1AC9 PUSH2 0x1309 JUMP JUMPDEST PUSH1 0x1 PUSH1 0x1 PUSH1 0xA0 SHL SUB AND DUP3 PUSH1 0x1 PUSH1 0x1 PUSH1 0xA0 SHL SUB AND EQ ISZERO PUSH2 0x1AEB JUMPI POP PUSH1 0x0 NOT PUSH2 0x778 JUMP JUMPDEST PUSH2 0x1AF5 DUP4 DUP4 PUSH2 0x2B3F JUMP JUMPDEST SWAP1 POP PUSH2 0x778 JUMP JUMPDEST PUSH1 0x60 PUSH2 0xAC8 PUSH2 0x2B6A JUMP JUMPDEST PUSH3 0x1DE20 SWAP1 JUMP JUMPDEST DUP1 PUSH2 0x1B17 DUP2 PUSH2 0x2BD9 JUMP JUMPDEST POP POP JUMP JUMPDEST PUSH1 0x0 PUSH2 0x1B29 DUP4 DUP4 PUSH1 0x55 PUSH2 0x1B54 JUMP JUMPDEST SWAP4 SWAP3 POP POP POP JUMP JUMPDEST PUSH1 0x0 PUSH2 0x1B29 DUP4 DUP4 PUSH1 0x56 PUSH2 0x1B7B JUMP JUMPDEST PUSH1 0x0 PUSH2 0x1B4E DUP4 DUP4 GT ISZERO PUSH1 0x1 PUSH2 0x1D0E JUMP JUMPDEST POP SWAP1 SUB SWAP1 JUMP JUMPDEST PUSH1 0x0 PUSH1 0x1 DUP3 SHL NOT DUP5 AND DUP3 DUP5 PUSH2 0x1B6A JUMPI PUSH1 0x0 PUSH2 0x1B6D JUMP JUMPDEST PUSH1 0x1 JUMPDEST PUSH1 0xFF AND SWAP1 SHL OR SWAP5 SWAP4 POP POP POP POP JUMP JUMPDEST PUSH1 0x1 PUSH1 0x1 PUSH1 0x40 SHL SUB DUP2 SHL NOT SWAP3 SWAP1 SWAP3 AND SWAP2 SHL OR SWAP1 JUMP JUMPDEST PUSH1 0x1 PUSH1 0x1 PUSH1 0xA0 SHL SUB DUP1 DUP5 AND PUSH1 0x0 DUP2 DUP2 MSTORE PUSH1 0x1 PUSH1 0x20 SWAP1 DUP2 MSTORE PUSH1 0x40 DUP1 DUP4 KECCAK256 SWAP5 DUP8 AND DUP1 DUP5 MSTORE SWAP5 DUP3 MSTORE SWAP2 DUP3 SWAP1 KECCAK256 DUP6 SWAP1 SSTORE DUP2 MLOAD DUP6 DUP2 MSTORE SWAP2 MLOAD PUSH32 0x8C5BE1E5EBEC7D5BD14F71427D1E84F3DD0314C0F7B2291E5B200AC8C7C3B925 SWAP3 DUP2 SWAP1 SUB SWAP1 SWAP2 ADD SWAP1 LOG3 POP POP POP JUMP JUMPDEST PUSH1 0x0 PUSH2 0x1C09 PUSH1 0x0 CALLDATALOAD PUSH1 0x1 PUSH1 0x1 PUSH1 0xE0 SHL SUB NOT AND PUSH2 0x1267 JUMP JUMPDEST SWAP1 POP PUSH2 0x840 PUSH2 0x1C18 DUP3 CALLER PUSH2 0x2C52 JUMP JUMPDEST PUSH2 0x191 PUSH2 0x1D0E JUMP JUMPDEST DUP1 ISZERO PUSH2 0x1C40 JUMPI PUSH2 0x1C3B PUSH2 0x1C31 PUSH2 0x1CB9 JUMP JUMPDEST TIMESTAMP LT PUSH2 0x193 PUSH2 0x1D0E JUMP JUMPDEST PUSH2 0x1C55 JUMP JUMPDEST PUSH2 0x1C55 PUSH2 0x1C4B PUSH2 0x1CDD JUMP JUMPDEST TIMESTAMP LT PUSH2 0x1A9 PUSH2 0x1D0E JUMP JUMPDEST PUSH1 0x7 DUP1 SLOAD DUP3 ISZERO ISZERO PUSH1 0xFF NOT SWAP1 SWAP2 AND DUP2 OR SWAP1 SWAP2 SSTORE PUSH1 0x40 DUP1 MLOAD SWAP2 DUP3 MSTORE MLOAD PUSH32 0x9E3A5E37224532DEA67B89FACE185703738A228A6E8A23DEE546960180D3BE64 SWAP2 DUP2 SWAP1 SUB PUSH1 0x20 ADD SWAP1 LOG1 POP JUMP JUMPDEST PUSH1 0x0 PUSH2 0x1CA6 PUSH2 0x1CDD JUMP JUMPDEST TIMESTAMP GT DUP1 PUSH2 0xAC8 JUMPI POP POP PUSH1 0x7 SLOAD PUSH1 0xFF AND ISZERO SWAP1 JUMP JUMPDEST PUSH32 0x0 SWAP1 JUMP JUMPDEST PUSH32 0x0 SWAP1 JUMP JUMPDEST PUSH1 0x0 PUSH2 0xAC8 PUSH1 0x9 SLOAD PUSH2 0x2199 JUMP JUMPDEST DUP2 PUSH2 0x1B17 JUMPI PUSH2 0x1B17 DUP2 PUSH2 0x2D54 JUMP JUMPDEST PUSH2 0x1D33 PUSH1 0x1 PUSH1 0x1 PUSH1 0xA0 SHL SUB DUP5 AND ISZERO ISZERO PUSH2 0x198 PUSH2 0x1D0E JUMP JUMPDEST PUSH2 0x1D4A PUSH1 0x1 PUSH1 0x1 PUSH1 0xA0 SHL SUB DUP4 AND ISZERO ISZERO PUSH2 0x199 PUSH2 0x1D0E JUMP JUMPDEST PUSH2 0x1D55 DUP4 DUP4 DUP4 PUSH2 0x2B3A JUMP JUMPDEST PUSH1 0x1 PUSH1 0x1 PUSH1 0xA0 SHL SUB DUP4 AND PUSH1 0x0 SWAP1 DUP2 MSTORE PUSH1 0x20 DUP2 SWAP1 MSTORE PUSH1 0x40 SWAP1 KECCAK256 SLOAD PUSH2 0x1D7B SWAP1 DUP3 PUSH2 0x1A0 PUSH2 0x2DA7 JUMP JUMPDEST PUSH1 0x1 PUSH1 0x1 PUSH1 0xA0 SHL SUB DUP1 DUP6 AND PUSH1 0x0 SWAP1 DUP2 MSTORE PUSH1 0x20 DUP2 SWAP1 MSTORE PUSH1 0x40 DUP1 DUP3 KECCAK256 SWAP4 SWAP1 SWAP4 SSTORE SWAP1 DUP5 AND DUP2 MSTORE KECCAK256 SLOAD PUSH2 0x1DAA SWAP1 DUP3 PUSH2 0x2032 JUMP JUMPDEST PUSH1 0x1 PUSH1 0x1 PUSH1 0xA0 SHL SUB DUP1 DUP5 AND PUSH1 0x0 DUP2 DUP2 MSTORE PUSH1 0x20 DUP2 DUP2 MSTORE PUSH1 0x40 SWAP2 DUP3 SWAP1 KECCAK256 SWAP5 SWAP1 SWAP5 SSTORE DUP1 MLOAD DUP6 DUP2 MSTORE SWAP1 MLOAD SWAP2 SWAP4 SWAP3 DUP8 AND SWAP3 PUSH32 0xDDF252AD1BE2C89B69C2B068FC378DAA952BA7F163C4A11628F55A4DF523B3EF SWAP3 SWAP2 DUP3 SWAP1 SUB ADD SWAP1 LOG3 POP POP POP JUMP JUMPDEST PUSH2 0xA3B PUSH2 0x1E0F PUSH2 0x1C9C JUMP JUMPDEST PUSH2 0x192 PUSH2 0x1D0E JUMP JUMPDEST PUSH1 0x9 SLOAD PUSH2 0x1E24 SWAP1 DUP3 PUSH2 0x1B1B JUMP JUMPDEST PUSH1 0x9 SSTORE PUSH1 0x40 MLOAD PUSH32 0x3E350B41E86A8E10F804ADE6D35340D620BE35569CC75AC943E8BB14AB80EAD1 SWAP1 PUSH2 0x824 SWAP1 DUP4 SWAP1 PUSH2 0x51CD JUMP JUMPDEST PUSH1 0x9 SLOAD PUSH2 0x1E63 DUP2 PUSH2 0x21A6 JUMP JUMPDEST ISZERO PUSH2 0x840 JUMPI PUSH2 0x1E7D PUSH2 0x1E76 PUSH1 0xA SLOAD PUSH2 0x2DBD JUMP JUMPDEST DUP3 SWAP1 PUSH2 0x2DFD JUMP JUMPDEST SWAP1 POP PUSH2 0x1E99 PUSH2 0x1E92 PUSH2 0x1E8D PUSH2 0x843 JUMP JUMPDEST PUSH2 0x2DBD JUMP JUMPDEST DUP3 SWAP1 PUSH2 0x2E0A JUMP JUMPDEST PUSH1 0x9 SSTORE POP JUMP JUMPDEST PUSH1 0x0 PUSH2 0x1EAB DUP3 DUP3 PUSH2 0x2E18 JUMP JUMPDEST PUSH2 0x1EB6 DUP5 PUSH1 0x1F PUSH2 0x2E1C JUMP JUMPDEST PUSH2 0x1EC1 DUP7 PUSH1 0x54 PUSH2 0x2E2D JUMP JUMPDEST PUSH2 0x1ECC DUP9 PUSH1 0x6A PUSH2 0x2E1C JUMP JUMPDEST PUSH2 0x1ED7 DUP11 PUSH1 0x9F PUSH2 0x2E2D JUMP JUMPDEST PUSH2 0x1EE2 DUP13 PUSH1 0xB5 PUSH2 0x2E1C JUMP JUMPDEST PUSH2 0x1EED DUP15 PUSH1 0xEA PUSH2 0x2E2D JUMP JUMPDEST OR OR OR OR OR OR SWAP9 SWAP8 POP POP POP POP POP POP POP POP JUMP JUMPDEST PUSH1 0x0 PUSH2 0x778 DUP3 DUP3 PUSH2 0x2E3A JUMP JUMPDEST PUSH1 0x0 PUSH32 0x0 PUSH32 0x0 PUSH32 0x0 PUSH2 0x1F78 PUSH2 0x2E44 JUMP JUMPDEST ADDRESS PUSH1 0x40 MLOAD PUSH1 0x20 ADD DUP1 DUP7 DUP2 MSTORE PUSH1 0x20 ADD DUP6 DUP2 MSTORE PUSH1 0x20 ADD DUP5 DUP2 MSTORE PUSH1 0x20 ADD DUP4 DUP2 MSTORE PUSH1 0x20 ADD DUP3 PUSH1 0x1 PUSH1 0x1 PUSH1 0xA0 SHL SUB AND DUP2 MSTORE PUSH1 0x20 ADD SWAP6 POP POP POP POP POP POP PUSH1 0x40 MLOAD PUSH1 0x20 DUP2 DUP4 SUB SUB DUP2 MSTORE SWAP1 PUSH1 0x40 MSTORE DUP1 MLOAD SWAP1 PUSH1 0x20 ADD KECCAK256 SWAP1 POP SWAP1 JUMP JUMPDEST PUSH2 0x1FDC PUSH5 0xE8D4A51000 DUP3 LT ISZERO PUSH1 0xCB PUSH2 0x1D0E JUMP JUMPDEST PUSH2 0x1FF2 PUSH8 0x16345785D8A0000 DUP3 GT ISZERO PUSH1 0xCA PUSH2 0x1D0E JUMP JUMPDEST PUSH1 0x9 SLOAD PUSH2 0x1FFF SWAP1 DUP3 PUSH2 0x1B30 JUMP JUMPDEST PUSH1 0x9 SSTORE PUSH1 0x40 MLOAD PUSH32 0xA9BA3FFE0B6C366B81232CAAB38605A0699AD5398D6CCE76F91EE809E322DAFC SWAP1 PUSH2 0x824 SWAP1 DUP4 SWAP1 PUSH2 0x51F0 JUMP JUMPDEST PUSH1 0x0 DUP3 DUP3 ADD PUSH2 0x1B29 DUP5 DUP3 LT ISZERO DUP4 PUSH2 0x1D0E JUMP JUMPDEST PUSH1 0x0 DUP2 PUSH2 0x2071 JUMPI PUSH32 0x0 PUSH2 0x778 JUMP JUMPDEST POP PUSH32 0x0 SWAP2 SWAP1 POP JUMP JUMPDEST PUSH1 0x0 PUSH2 0x1B29 DUP4 DUP4 PUSH2 0x24E7 JUMP JUMPDEST PUSH1 0x40 DUP1 MLOAD PUSH1 0x2 DUP1 DUP3 MSTORE PUSH1 0x60 DUP3 ADD DUP4 MSTORE PUSH1 0x0 SWAP3 DUP4 SWAP3 DUP4 SWAP3 DUP4 SWAP3 PUSH1 0x20 DUP4 ADD SWAP1 DUP1 CALLDATASIZE DUP4 CALLDATACOPY ADD SWAP1 POP POP SWAP1 POP DUP5 PUSH2 0x20D6 JUMPI DUP6 PUSH2 0x20D8 JUMP JUMPDEST DUP7 JUMPDEST DUP2 PUSH1 0x0 DUP2 MLOAD DUP2 LT PUSH2 0x20E5 JUMPI INVALID JUMPDEST PUSH1 0x20 MUL PUSH1 0x20 ADD ADD DUP2 DUP2 MSTORE POP POP DUP5 PUSH2 0x20FC JUMPI DUP7 PUSH2 0x20FE JUMP JUMPDEST DUP6 JUMPDEST DUP2 PUSH1 0x1 DUP2 MLOAD DUP2 LT PUSH2 0x210B JUMPI INVALID JUMPDEST PUSH1 0x20 MUL PUSH1 0x20 ADD ADD DUP2 DUP2 MSTORE POP POP PUSH1 0x0 PUSH2 0x2121 PUSH2 0x25FE JUMP JUMPDEST SWAP1 POP PUSH2 0x212F DUP3 DUP3 PUSH1 0x0 PUSH2 0x1815 JUMP JUMPDEST SWAP5 POP PUSH1 0x0 PUSH2 0x213D DUP3 DUP8 PUSH2 0x2E48 JUMP JUMPDEST SWAP1 POP DUP7 PUSH2 0x214E JUMPI PUSH1 0x20 DUP2 ADD MLOAD PUSH2 0x2151 JUMP JUMPDEST DUP1 MLOAD JUMPDEST SWAP5 POP DUP7 PUSH2 0x215F JUMPI DUP1 MLOAD PUSH2 0x2165 JUMP JUMPDEST PUSH1 0x20 DUP2 ADD MLOAD JUMPDEST SWAP4 POP POP POP POP SWAP4 POP SWAP4 POP SWAP4 SWAP1 POP JUMP JUMPDEST PUSH1 0x0 PUSH2 0x778 DUP3 DUP3 PUSH2 0x2E7C JUMP JUMPDEST PUSH1 0x0 PUSH2 0x778 DUP3 PUSH1 0x16 PUSH2 0x2E7C JUMP JUMPDEST PUSH1 0x0 PUSH2 0x778 DUP3 PUSH1 0x2C PUSH2 0x2E3A JUMP JUMPDEST PUSH1 0x0 PUSH2 0x778 DUP3 PUSH1 0x4B PUSH2 0x2EA3 JUMP JUMPDEST PUSH1 0x0 PUSH2 0x778 DUP3 PUSH1 0x55 PUSH2 0x2EAB JUMP JUMPDEST PUSH1 0x0 PUSH2 0x778 DUP3 PUSH1 0x56 PUSH2 0x2EB5 JUMP JUMPDEST PUSH2 0x1B17 DUP2 DUP4 EQ PUSH1 0x67 PUSH2 0x1D0E JUMP JUMPDEST PUSH1 0x0 PUSH1 0x60 DUP1 PUSH1 0x0 PUSH2 0x21DC PUSH2 0x25FE JUMP JUMPDEST SWAP1 POP PUSH2 0x21E6 PUSH2 0x1C9C JUMP JUMPDEST ISZERO PUSH2 0x2295 JUMPI PUSH1 0x0 PUSH2 0x2201 DUP10 DUP4 DUP4 JUMPDEST PUSH1 0x20 MUL ADD MLOAD DUP5 PUSH1 0x1 PUSH2 0x181E JUMP JUMPDEST SWAP1 POP PUSH1 0x0 PUSH2 0x220F DUP4 DUP4 PUSH2 0x2E48 JUMP JUMPDEST SWAP1 POP PUSH2 0x225E DUP10 DUP12 PUSH1 0x0 DUP2 MLOAD DUP2 LT PUSH2 0x2222 JUMPI INVALID JUMPDEST PUSH1 0x20 MUL PUSH1 0x20 ADD ADD MLOAD DUP13 PUSH1 0x1 DUP2 MLOAD DUP2 LT PUSH2 0x2237 JUMPI INVALID JUMPDEST PUSH1 0x20 MUL PUSH1 0x20 ADD ADD MLOAD DUP5 PUSH1 0x0 PUSH1 0x2 DUP2 LT PUSH2 0x224C JUMPI INVALID JUMPDEST PUSH1 0x20 MUL ADD MLOAD DUP6 PUSH1 0x1 PUSH1 0x20 MUL ADD MLOAD PUSH2 0x27C2 JUMP JUMPDEST PUSH2 0x2267 DUP3 PUSH2 0x2EC2 JUMP JUMPDEST PUSH2 0x2271 DUP11 DUP9 PUSH2 0x2EEF JUMP JUMPDEST SWAP1 SWAP7 POP SWAP5 POP PUSH2 0x228A DUP3 DUP8 PUSH2 0x2283 PUSH2 0x843 JUMP JUMPDEST PUSH1 0x0 PUSH2 0x2F3B JUMP JUMPDEST PUSH1 0xA SSTORE POP PUSH2 0x22AB SWAP1 POP JUMP JUMPDEST PUSH2 0x229F DUP9 DUP7 PUSH2 0x2EEF JUMP JUMPDEST PUSH1 0x0 NOT PUSH1 0xA SSTORE SWAP1 SWAP5 POP SWAP3 POP JUMPDEST PUSH1 0x40 DUP1 MLOAD PUSH1 0x2 DUP1 DUP3 MSTORE PUSH1 0x60 DUP3 ADD DUP4 MSTORE DUP7 SWAP3 DUP7 SWAP3 SWAP2 SWAP1 PUSH1 0x20 DUP4 ADD SWAP1 DUP1 CALLDATASIZE DUP4 CALLDATACOPY ADD SWAP1 POP POP SWAP4 POP SWAP4 POP SWAP4 POP POP SWAP8 POP SWAP8 POP SWAP8 SWAP5 POP POP POP POP POP JUMP JUMPDEST PUSH2 0x2308 DUP2 PUSH1 0x0 DUP2 MLOAD DUP2 LT PUSH2 0x22F1 JUMPI INVALID JUMPDEST PUSH1 0x20 MUL PUSH1 0x20 ADD ADD MLOAD PUSH2 0x2303 PUSH1 0x1 PUSH2 0x2044 JUMP JUMPDEST PUSH2 0x2F93 JUMP JUMPDEST DUP2 PUSH1 0x0 DUP2 MLOAD DUP2 LT PUSH2 0x2315 JUMPI INVALID JUMPDEST PUSH1 0x20 MUL PUSH1 0x20 ADD ADD DUP2 DUP2 MSTORE POP POP PUSH2 0x2343 DUP2 PUSH1 0x1 DUP2 MLOAD DUP2 LT PUSH2 0x2331 JUMPI INVALID JUMPDEST PUSH1 0x20 MUL PUSH1 0x20 ADD ADD MLOAD PUSH2 0x2303 PUSH1 0x0 PUSH2 0x2044 JUMP JUMPDEST DUP2 PUSH1 0x1 DUP2 MLOAD DUP2 LT PUSH2 0x2350 JUMPI INVALID JUMPDEST PUSH1 0x20 MUL PUSH1 0x20 ADD ADD DUP2 DUP2 MSTORE POP POP POP JUMP JUMPDEST CALLER ADDRESS EQ PUSH2 0x241D JUMPI PUSH1 0x0 ADDRESS PUSH1 0x1 PUSH1 0x1 PUSH1 0xA0 SHL SUB AND PUSH1 0x0 CALLDATASIZE PUSH1 0x40 MLOAD PUSH2 0x2383 SWAP3 SWAP2 SWAP1 PUSH2 0x50FC JUMP JUMPDEST PUSH1 0x0 PUSH1 0x40 MLOAD DUP1 DUP4 SUB DUP2 PUSH1 0x0 DUP7 GAS CALL SWAP2 POP POP RETURNDATASIZE DUP1 PUSH1 0x0 DUP2 EQ PUSH2 0x23C0 JUMPI PUSH1 0x40 MLOAD SWAP2 POP PUSH1 0x1F NOT PUSH1 0x3F RETURNDATASIZE ADD AND DUP3 ADD PUSH1 0x40 MSTORE RETURNDATASIZE DUP3 MSTORE RETURNDATASIZE PUSH1 0x0 PUSH1 0x20 DUP5 ADD RETURNDATACOPY PUSH2 0x23C5 JUMP JUMPDEST PUSH1 0x60 SWAP2 POP JUMPDEST POP POP SWAP1 POP DUP1 PUSH1 0x0 DUP2 EQ PUSH2 0x23D4 JUMPI INVALID JUMPDEST PUSH1 0x4 PUSH1 0x0 DUP1 RETURNDATACOPY PUSH1 0x0 MLOAD PUSH1 0x1 PUSH1 0x1 PUSH1 0xE0 SHL SUB NOT AND PUSH4 0x43ADBAFB PUSH1 0xE0 SHL DUP2 EQ PUSH2 0x23FF JUMPI RETURNDATASIZE PUSH1 0x0 DUP1 RETURNDATACOPY RETURNDATASIZE PUSH1 0x0 REVERT JUMPDEST POP PUSH1 0x20 PUSH1 0x4 PUSH1 0x0 RETURNDATACOPY PUSH1 0x40 PUSH1 0x20 MSTORE PUSH1 0x24 RETURNDATASIZE SUB PUSH1 0x24 PUSH1 0x40 RETURNDATACOPY PUSH1 0x1C RETURNDATASIZE ADD PUSH1 0x0 RETURN JUMPDEST PUSH2 0x2426 DUP7 PUSH2 0x2624 JUMP JUMPDEST PUSH1 0x0 DUP1 PUSH2 0x243C DUP12 DUP12 DUP12 DUP12 DUP12 DUP12 DUP12 DUP12 PUSH4 0xFFFFFFFF AND JUMP JUMPDEST POP SWAP2 POP SWAP2 POP PUSH2 0x244E DUP2 DUP5 PUSH4 0xFFFFFFFF AND JUMP JUMPDEST DUP1 MLOAD PUSH1 0x1F NOT DUP3 ADD DUP4 SWAP1 MSTORE PUSH4 0x43ADBAFB PUSH1 0x3F NOT DUP4 ADD MSTORE PUSH1 0x20 MUL PUSH1 0x23 NOT DUP3 ADD PUSH1 0x44 DUP3 ADD DUP2 REVERT JUMPDEST PUSH1 0x0 SWAP1 DUP2 MSTORE PUSH1 0x8 PUSH1 0x20 MSTORE PUSH1 0x40 SWAP1 KECCAK256 SLOAD SWAP1 JUMP JUMPDEST PUSH1 0x0 DUP1 PUSH1 0x0 DUP1 PUSH1 0x0 DUP1 PUSH1 0x0 PUSH2 0x2498 DUP9 PUSH2 0x2FB3 JUMP JUMPDEST SWAP7 POP PUSH2 0x24A3 DUP9 PUSH2 0x2FC0 JUMP JUMPDEST SWAP6 POP PUSH2 0x24AE DUP9 PUSH2 0x2FCD JUMP JUMPDEST SWAP5 POP PUSH2 0x24B9 DUP9 PUSH2 0x2FDA JUMP JUMPDEST SWAP4 POP PUSH2 0x24C4 DUP9 PUSH2 0x2FE7 JUMP JUMPDEST SWAP3 POP PUSH2 0x24CF DUP9 PUSH2 0x2FF4 JUMP JUMPDEST SWAP2 POP PUSH2 0x24DA DUP9 PUSH2 0x1EFF JUMP JUMPDEST SWAP1 POP SWAP2 SWAP4 SWAP6 SWAP8 SWAP1 SWAP3 SWAP5 SWAP7 POP JUMP JUMPDEST PUSH1 0x0 DUP3 DUP3 MUL PUSH2 0x1B29 DUP5 ISZERO DUP1 PUSH2 0x2504 JUMPI POP DUP4 DUP6 DUP4 DUP2 PUSH2 0x2501 JUMPI INVALID JUMPDEST DIV EQ JUMPDEST PUSH1 0x3 PUSH2 0x1D0E JUMP JUMPDEST PUSH1 0x0 DUP2 PUSH2 0x251E JUMPI PUSH2 0x251E PUSH1 0x0 PUSH1 0x4 PUSH2 0x1D0E JUMP JUMPDEST DUP3 PUSH2 0x252B JUMPI POP PUSH1 0x0 PUSH2 0x778 JUMP JUMPDEST PUSH8 0xDE0B6B3A7640000 DUP4 DUP2 MUL SWAP1 DUP5 DUP3 DUP2 PUSH2 0x2541 JUMPI INVALID JUMPDEST DIV EQ PUSH2 0x2553 JUMPI PUSH2 0x2553 PUSH1 0x0 PUSH1 0x5 PUSH2 0x1D0E JUMP JUMPDEST DUP3 DUP2 DUP2 PUSH2 0x255C JUMPI INVALID JUMPDEST DIV SWAP5 SWAP4 POP POP POP POP JUMP JUMPDEST PUSH1 0x40 MLOAD PUSH4 0x34171A85 PUSH1 0xE0 SHL DUP2 MSTORE PUSH1 0x0 SWAP1 PUSH20 0x0 SWAP1 PUSH4 0x34171A85 SWAP1 PUSH2 0x25A6 SWAP1 PUSH1 0x8 SWAP1 DUP9 SWAP1 DUP9 SWAP1 DUP9 SWAP1 PUSH1 0x4 ADD PUSH2 0x5275 JUMP JUMPDEST PUSH1 0x20 PUSH1 0x40 MLOAD DUP1 DUP4 SUB DUP2 DUP7 DUP1 EXTCODESIZE ISZERO DUP1 ISZERO PUSH2 0x25BE JUMPI PUSH1 0x0 DUP1 REVERT JUMPDEST POP GAS DELEGATECALL ISZERO DUP1 ISZERO PUSH2 0x25D2 JUMPI RETURNDATASIZE PUSH1 0x0 DUP1 RETURNDATACOPY RETURNDATASIZE PUSH1 0x0 REVERT JUMPDEST POP POP POP POP PUSH1 0x40 MLOAD RETURNDATASIZE PUSH1 0x1F NOT PUSH1 0x1F DUP3 ADD AND DUP3 ADD DUP1 PUSH1 0x40 MSTORE POP DUP2 ADD SWAP1 PUSH2 0x25F6 SWAP2 SWAP1 PUSH2 0x4EBB JUMP JUMPDEST SWAP5 SWAP4 POP POP POP POP JUMP JUMPDEST PUSH2 0x2606 PUSH2 0x4887 JUMP JUMPDEST PUSH2 0x2610 PUSH1 0x1 PUSH2 0x3001 JUMP JUMPDEST DUP2 MSTORE PUSH2 0x261C PUSH1 0x0 PUSH2 0x3001 JUMP JUMPDEST PUSH1 0x20 DUP3 ADD MSTORE SWAP1 JUMP JUMPDEST PUSH2 0x264B DUP2 PUSH1 0x0 DUP2 MLOAD DUP2 LT PUSH2 0x2634 JUMPI INVALID JUMPDEST PUSH1 0x20 MUL PUSH1 0x20 ADD ADD MLOAD PUSH2 0x2646 PUSH1 0x1 PUSH2 0x2044 JUMP JUMPDEST PUSH2 0x24E7 JUMP JUMPDEST DUP2 PUSH1 0x0 DUP2 MLOAD DUP2 LT PUSH2 0x2658 JUMPI INVALID JUMPDEST PUSH1 0x20 MUL PUSH1 0x20 ADD ADD DUP2 DUP2 MSTORE POP POP PUSH2 0x2343 DUP2 PUSH1 0x1 DUP2 MLOAD DUP2 LT PUSH2 0x2674 JUMPI INVALID JUMPDEST PUSH1 0x20 MUL PUSH1 0x20 ADD ADD MLOAD PUSH2 0x2646 PUSH1 0x0 PUSH2 0x2044 JUMP JUMPDEST PUSH2 0x1B17 DUP3 DUP3 PUSH2 0x3055 JUMP JUMPDEST PUSH1 0x0 PUSH1 0x60 DUP1 PUSH1 0x0 PUSH2 0x269F PUSH2 0x25FE JUMP JUMPDEST SWAP1 POP PUSH1 0x0 PUSH2 0x26AE DUP10 DUP4 DUP4 PUSH2 0x21F4 JUMP JUMPDEST SWAP1 POP PUSH1 0x0 PUSH2 0x26BC DUP4 DUP4 PUSH2 0x2E48 JUMP JUMPDEST SWAP1 POP PUSH2 0x26CF DUP10 DUP12 PUSH1 0x0 DUP2 MLOAD DUP2 LT PUSH2 0x2222 JUMPI INVALID JUMPDEST PUSH2 0x26D8 DUP3 PUSH2 0x2EC2 JUMP JUMPDEST PUSH1 0x0 DUP1 PUSH2 0x26E5 DUP13 DUP11 PUSH2 0x310C JUMP JUMPDEST PUSH1 0xB SLOAD SWAP2 SWAP4 POP SWAP2 POP PUSH1 0xFF AND ISZERO PUSH2 0x270F JUMPI PUSH2 0x270F DUP3 PUSH2 0x2702 DUP16 PUSH2 0xEC3 JUMP JUMPDEST PUSH2 0x270A PUSH2 0x843 JUMP JUMPDEST PUSH2 0x3146 JUMP JUMPDEST PUSH2 0x2723 DUP5 DUP4 PUSH2 0x271C PUSH2 0x843 JUMP JUMPDEST PUSH1 0x1 PUSH2 0x2F3B JUMP JUMPDEST PUSH1 0xA SSTORE PUSH1 0x40 DUP1 MLOAD PUSH1 0x2 DUP1 DUP3 MSTORE PUSH1 0x60 DUP3 ADD DUP4 MSTORE DUP5 SWAP3 DUP5 SWAP3 SWAP2 SWAP1 PUSH1 0x20 DUP4 ADD SWAP1 DUP1 CALLDATASIZE DUP4 CALLDATACOPY ADD SWAP1 POP POP SWAP8 POP SWAP8 POP SWAP8 POP POP POP POP POP POP SWAP8 POP SWAP8 POP SWAP8 SWAP5 POP POP POP POP POP JUMP JUMPDEST PUSH2 0x2787 DUP2 PUSH1 0x0 DUP2 MLOAD DUP2 LT PUSH2 0x2770 JUMPI INVALID JUMPDEST PUSH1 0x20 MUL PUSH1 0x20 ADD ADD MLOAD PUSH2 0x2782 PUSH1 0x1 PUSH2 0x2044 JUMP JUMPDEST PUSH2 0x3258 JUMP JUMPDEST DUP2 PUSH1 0x0 DUP2 MLOAD DUP2 LT PUSH2 0x2794 JUMPI INVALID JUMPDEST PUSH1 0x20 MUL PUSH1 0x20 ADD ADD DUP2 DUP2 MSTORE POP POP PUSH2 0x2343 DUP2 PUSH1 0x1 DUP2 MLOAD DUP2 LT PUSH2 0x27B0 JUMPI INVALID JUMPDEST PUSH1 0x20 MUL PUSH1 0x20 ADD ADD MLOAD PUSH2 0x2782 PUSH1 0x0 PUSH2 0x2044 JUMP JUMPDEST PUSH1 0x9 SLOAD PUSH2 0x27CE DUP2 PUSH2 0x21A6 JUMP JUMPDEST DUP1 ISZERO PUSH2 0x27D9 JUMPI POP DUP6 NUMBER GT JUMPDEST ISZERO PUSH2 0x2864 JUMPI PUSH1 0x0 PUSH2 0x27EC DUP7 DUP6 DUP8 DUP7 PUSH2 0x328B JUMP JUMPDEST SWAP1 POP PUSH1 0x0 PUSH2 0x2805 DUP8 DUP7 DUP9 DUP8 PUSH2 0x2800 DUP9 PUSH2 0x217F JUMP JUMPDEST PUSH2 0x32A5 JUMP JUMPDEST SWAP1 POP PUSH1 0x0 PUSH2 0x2812 DUP5 PUSH2 0x2199 JUMP JUMPDEST SWAP1 POP PUSH1 0x0 PUSH2 0x281F DUP6 PUSH2 0x218C JUMP JUMPDEST SWAP1 POP PUSH1 0x0 PUSH2 0x2838 DUP3 DUP5 DUP8 DUP8 PUSH2 0x2833 DUP12 PUSH2 0x2173 JUMP JUMPDEST PUSH2 0x32E9 JUMP JUMPDEST SWAP1 POP DUP1 DUP4 EQ PUSH2 0x1992 JUMPI PUSH2 0x284B DUP7 DUP3 PUSH2 0x3340 JUMP JUMPDEST SWAP6 POP PUSH2 0x2857 DUP7 TIMESTAMP PUSH2 0x334E JUMP JUMPDEST PUSH1 0x9 DUP2 SWAP1 SSTORE SWAP6 POP POP POP POP POP POP JUMPDEST POP POP POP POP POP POP JUMP JUMPDEST PUSH1 0x0 DUP3 DUP3 MUL DUP4 ISZERO DUP1 PUSH2 0x2886 JUMPI POP DUP3 DUP5 DUP3 DUP2 PUSH2 0x2883 JUMPI INVALID JUMPDEST DIV EQ JUMPDEST PUSH2 0x2896 JUMPI PUSH2 0x2896 PUSH1 0x0 PUSH1 0x3 PUSH2 0x1D0E JUMP JUMPDEST DUP1 PUSH2 0x28A5 JUMPI PUSH1 0x0 SWAP2 POP POP PUSH2 0x778 JUMP JUMPDEST PUSH8 0xDE0B6B3A7640000 PUSH1 0x0 NOT DUP3 ADD JUMPDEST DIV PUSH1 0x1 ADD SWAP2 POP POP SWAP3 SWAP2 POP POP JUMP JUMPDEST PUSH1 0x0 DUP3 DUP3 GT ISZERO PUSH2 0x1B4E JUMPI PUSH2 0x1B4E PUSH1 0x0 PUSH1 0x1 PUSH2 0x1D0E JUMP JUMPDEST PUSH1 0x0 PUSH2 0x28EA DUP6 DUP6 DUP9 PUSH1 0x60 ADD MLOAD DUP7 DUP7 PUSH2 0x335C JUMP JUMPDEST SWAP1 POP JUMPDEST SWAP6 SWAP5 POP POP POP POP POP JUMP JUMPDEST PUSH1 0x0 PUSH2 0x1B29 DUP4 DUP4 PUSH2 0x2F93 JUMP JUMPDEST PUSH1 0x0 PUSH2 0x28EA DUP6 DUP6 DUP9 PUSH1 0x60 ADD MLOAD DUP7 DUP7 PUSH2 0x33C6 JUMP JUMPDEST PUSH1 0x0 PUSH2 0x1B29 DUP4 DUP4 PUSH2 0x3258 JUMP JUMPDEST PUSH1 0x0 PUSH8 0xDE0B6B3A7640000 DUP3 LT PUSH2 0x2939 JUMPI PUSH1 0x0 PUSH2 0x778 JUMP JUMPDEST POP PUSH8 0xDE0B6B3A7640000 SUB SWAP1 JUMP JUMPDEST PUSH1 0x0 DUP2 PUSH2 0x295A JUMPI PUSH2 0x295A PUSH1 0x0 PUSH1 0x4 PUSH2 0x1D0E JUMP JUMPDEST DUP3 PUSH2 0x2967 JUMPI POP PUSH1 0x0 PUSH2 0x778 JUMP JUMPDEST PUSH8 0xDE0B6B3A7640000 DUP4 DUP2 MUL SWAP1 DUP5 DUP3 DUP2 PUSH2 0x297D JUMPI INVALID JUMPDEST DIV EQ PUSH2 0x29A1 JUMPI PUSH2 0x29A1 PUSH8 0xDE0B6B3A7640000 DUP6 DUP4 DUP2 PUSH2 0x2998 JUMPI INVALID JUMPDEST DIV EQ PUSH1 0x5 PUSH2 0x1D0E JUMP JUMPDEST DUP3 PUSH1 0x1 DUP3 SUB DUP2 PUSH2 0x28B4 JUMPI INVALID JUMPDEST PUSH1 0x0 PUSH2 0x29B7 PUSH2 0x1309 JUMP JUMPDEST PUSH1 0x1 PUSH1 0x1 PUSH1 0xA0 SHL SUB AND PUSH4 0xAAABADC5 PUSH1 0x40 MLOAD DUP2 PUSH4 0xFFFFFFFF AND PUSH1 0xE0 SHL DUP2 MSTORE PUSH1 0x4 ADD PUSH1 0x20 PUSH1 0x40 MLOAD DUP1 DUP4 SUB DUP2 DUP7 DUP1 EXTCODESIZE ISZERO DUP1 ISZERO PUSH2 0x29EF JUMPI PUSH1 0x0 DUP1 REVERT JUMPDEST POP GAS STATICCALL ISZERO DUP1 ISZERO PUSH2 0x2A03 JUMPI RETURNDATASIZE PUSH1 0x0 DUP1 RETURNDATACOPY RETURNDATASIZE PUSH1 0x0 REVERT JUMPDEST POP POP POP POP PUSH1 0x40 MLOAD RETURNDATASIZE PUSH1 0x1F NOT PUSH1 0x1F DUP3 ADD AND DUP3 ADD DUP1 PUSH1 0x40 MSTORE POP DUP2 ADD SWAP1 PUSH2 0xAC8 SWAP2 SWAP1 PUSH2 0x49CA JUMP JUMPDEST PUSH1 0x0 DUP1 PUSH1 0x0 DUP1 PUSH1 0x0 PUSH2 0x2A3A DUP9 DUP9 DUP9 PUSH2 0x3426 JUMP JUMPDEST SWAP4 POP SWAP4 POP SWAP4 POP SWAP4 POP PUSH2 0x2A4E DUP5 DUP5 DUP5 DUP5 PUSH2 0x35A0 JUMP JUMPDEST SWAP9 SWAP8 POP POP POP POP POP POP POP POP JUMP JUMPDEST PUSH1 0x0 PUSH2 0x2A64 PUSH2 0x1F0B JUMP JUMPDEST DUP3 PUSH1 0x40 MLOAD PUSH1 0x20 ADD DUP1 DUP1 PUSH2 0x1901 PUSH1 0xF0 SHL DUP2 MSTORE POP PUSH1 0x2 ADD DUP4 DUP2 MSTORE PUSH1 0x20 ADD DUP3 DUP2 MSTORE PUSH1 0x20 ADD SWAP3 POP POP POP PUSH1 0x40 MLOAD PUSH1 0x20 DUP2 DUP4 SUB SUB DUP2 MSTORE SWAP1 PUSH1 0x40 MSTORE DUP1 MLOAD SWAP1 PUSH1 0x20 ADD KECCAK256 SWAP1 POP SWAP2 SWAP1 POP JUMP JUMPDEST PUSH1 0x0 PUSH1 0x60 PUSH1 0x0 PUSH2 0x2AB5 DUP5 PUSH2 0x3614 JUMP JUMPDEST SWAP1 POP PUSH2 0x2AD0 PUSH1 0x0 DUP3 PUSH1 0x3 DUP2 GT ISZERO PUSH2 0x2AC8 JUMPI INVALID JUMPDEST EQ PUSH1 0xCE PUSH2 0x1D0E JUMP JUMPDEST PUSH1 0x0 PUSH2 0x2ADB DUP6 PUSH2 0x3633 JUMP JUMPDEST SWAP1 POP PUSH2 0x2AE9 DUP2 MLOAD PUSH1 0x2 PUSH2 0x21C0 JUMP JUMPDEST PUSH2 0x2AF2 DUP2 PUSH2 0x2624 JUMP JUMPDEST PUSH1 0x0 PUSH2 0x2AFC PUSH2 0x25FE JUMP JUMPDEST SWAP1 POP PUSH1 0x0 PUSH2 0x2B0B DUP4 DUP4 DUP4 PUSH2 0x21F4 JUMP JUMPDEST SWAP1 POP PUSH1 0x0 PUSH2 0x2B1A DUP3 PUSH1 0x2 PUSH2 0x24E7 JUMP JUMPDEST PUSH1 0xA SWAP3 SWAP1 SWAP3 SSTORE POP SWAP10 SWAP2 SWAP9 POP SWAP1 SWAP7 POP POP POP POP POP POP POP JUMP JUMPDEST PUSH2 0x1B17 DUP3 DUP3 PUSH2 0x36E7 JUMP JUMPDEST POP POP POP JUMP JUMPDEST PUSH1 0x1 PUSH1 0x1 PUSH1 0xA0 SHL SUB SWAP2 DUP3 AND PUSH1 0x0 SWAP1 DUP2 MSTORE PUSH1 0x1 PUSH1 0x20 SWAP1 DUP2 MSTORE PUSH1 0x40 DUP1 DUP4 KECCAK256 SWAP4 SWAP1 SWAP5 AND DUP3 MSTORE SWAP2 SWAP1 SWAP2 MSTORE KECCAK256 SLOAD SWAP1 JUMP JUMPDEST PUSH1 0x40 DUP1 MLOAD PUSH1 0x2 DUP1 DUP3 MSTORE PUSH1 0x60 DUP1 DUP4 ADD DUP5 MSTORE SWAP3 PUSH1 0x0 SWAP3 SWAP2 SWAP1 PUSH1 0x20 DUP4 ADD SWAP1 DUP1 CALLDATASIZE DUP4 CALLDATACOPY ADD SWAP1 POP POP SWAP1 POP PUSH2 0x2B99 PUSH1 0x1 PUSH2 0x377C JUMP JUMPDEST DUP2 PUSH1 0x0 DUP2 MLOAD DUP2 LT PUSH2 0x2BA6 JUMPI INVALID JUMPDEST PUSH1 0x20 MUL PUSH1 0x20 ADD ADD DUP2 DUP2 MSTORE POP POP PUSH2 0x2BBC PUSH1 0x0 PUSH2 0x377C JUMP JUMPDEST DUP2 PUSH1 0x1 DUP2 MLOAD DUP2 LT PUSH2 0x2BC9 JUMPI INVALID JUMPDEST PUSH1 0x20 SWAP1 DUP2 MUL SWAP2 SWAP1 SWAP2 ADD ADD MSTORE SWAP1 POP SWAP1 JUMP JUMPDEST PUSH1 0x2 DUP2 MLOAD LT ISZERO PUSH2 0x2BE8 JUMPI PUSH2 0x840 JUMP JUMPDEST PUSH1 0x0 DUP2 PUSH1 0x0 DUP2 MLOAD DUP2 LT PUSH2 0x2BF7 JUMPI INVALID JUMPDEST PUSH1 0x20 MUL PUSH1 0x20 ADD ADD MLOAD SWAP1 POP PUSH1 0x0 PUSH1 0x1 SWAP1 POP JUMPDEST DUP3 MLOAD DUP2 LT ISZERO PUSH2 0x2B3A JUMPI PUSH1 0x0 DUP4 DUP3 DUP2 MLOAD DUP2 LT PUSH2 0x2C1F JUMPI INVALID JUMPDEST PUSH1 0x20 MUL PUSH1 0x20 ADD ADD MLOAD SWAP1 POP PUSH2 0x2C48 DUP2 PUSH1 0x1 PUSH1 0x1 PUSH1 0xA0 SHL SUB AND DUP5 PUSH1 0x1 PUSH1 0x1 PUSH1 0xA0 SHL SUB AND LT PUSH1 0x65 PUSH2 0x1D0E JUMP JUMPDEST SWAP2 POP PUSH1 0x1 ADD PUSH2 0x2C08 JUMP JUMPDEST PUSH1 0x0 PUSH20 0xBA1BA1BA1BA1BA1BA1BA1BA1BA1BA1BA1BA1BA1B PUSH2 0x2C71 PUSH2 0x12E5 JUMP JUMPDEST PUSH1 0x1 PUSH1 0x1 PUSH1 0xA0 SHL SUB AND EQ ISZERO DUP1 ISZERO PUSH2 0x2C8C JUMPI POP PUSH2 0x2C8C DUP4 PUSH2 0x37D0 JUMP JUMPDEST ISZERO PUSH2 0x2CB4 JUMPI PUSH2 0x2C99 PUSH2 0x12E5 JUMP JUMPDEST PUSH1 0x1 PUSH1 0x1 PUSH1 0xA0 SHL SUB AND CALLER PUSH1 0x1 PUSH1 0x1 PUSH1 0xA0 SHL SUB AND EQ SWAP1 POP PUSH2 0x778 JUMP JUMPDEST PUSH2 0x2CBC PUSH2 0x29AD JUMP JUMPDEST PUSH1 0x1 PUSH1 0x1 PUSH1 0xA0 SHL SUB AND PUSH4 0x9BE2A884 DUP5 DUP5 ADDRESS PUSH1 0x40 MLOAD DUP5 PUSH4 0xFFFFFFFF AND PUSH1 0xE0 SHL DUP2 MSTORE PUSH1 0x4 ADD DUP1 DUP5 DUP2 MSTORE PUSH1 0x20 ADD DUP4 PUSH1 0x1 PUSH1 0x1 PUSH1 0xA0 SHL SUB AND DUP2 MSTORE PUSH1 0x20 ADD DUP3 PUSH1 0x1 PUSH1 0x1 PUSH1 0xA0 SHL SUB AND DUP2 MSTORE PUSH1 0x20 ADD SWAP4 POP POP POP POP PUSH1 0x20 PUSH1 0x40 MLOAD DUP1 DUP4 SUB DUP2 DUP7 DUP1 EXTCODESIZE ISZERO DUP1 ISZERO PUSH2 0x2D21 JUMPI PUSH1 0x0 DUP1 REVERT JUMPDEST POP GAS STATICCALL ISZERO DUP1 ISZERO PUSH2 0x2D35 JUMPI RETURNDATASIZE PUSH1 0x0 DUP1 RETURNDATACOPY RETURNDATASIZE PUSH1 0x0 REVERT JUMPDEST POP POP POP POP PUSH1 0x40 MLOAD RETURNDATASIZE PUSH1 0x20 DUP2 LT ISZERO PUSH2 0x2D4B JUMPI PUSH1 0x0 DUP1 REVERT JUMPDEST POP MLOAD SWAP1 POP PUSH2 0x778 JUMP JUMPDEST PUSH3 0x461BCD PUSH1 0xE5 SHL PUSH1 0x0 SWAP1 DUP2 MSTORE PUSH1 0x20 PUSH1 0x4 MSTORE PUSH1 0x7 PUSH1 0x24 MSTORE PUSH7 0x42414C23000030 PUSH1 0xA DUP1 DUP5 DIV DUP2 DUP2 MOD PUSH1 0x30 SWAP1 DUP2 ADD PUSH1 0x8 SHL SWAP6 DUP4 SWAP1 MOD SWAP6 SWAP1 SWAP6 ADD SWAP1 DUP3 SWAP1 DIV SWAP2 DUP3 MOD SWAP1 SWAP5 ADD PUSH1 0x10 SHL SWAP4 SWAP1 SWAP4 ADD ADD PUSH1 0xC8 SHL PUSH1 0x44 MSTORE PUSH1 0x64 SWAP1 REVERT JUMPDEST PUSH1 0x0 PUSH2 0x2DB6 DUP5 DUP5 GT ISZERO DUP4 PUSH2 0x1D0E JUMP JUMPDEST POP POP SWAP1 SUB SWAP1 JUMP JUMPDEST PUSH1 0x0 DUP1 PUSH2 0x2DC9 DUP4 PUSH2 0x3802 JUMP JUMPDEST SWAP1 POP PUSH1 0x0 DUP1 DUP3 SGT PUSH2 0x2DE2 JUMPI PUSH6 0x2D79883D2000 DUP3 SUB PUSH2 0x2DEC JUMP JUMPDEST PUSH6 0x2D79883D2000 DUP3 ADD JUMPDEST PUSH6 0x5AF3107A4000 SWAP1 SDIV SWAP5 SWAP4 POP POP POP POP JUMP JUMPDEST PUSH1 0x0 PUSH2 0x1B29 DUP4 DUP4 DUP4 PUSH2 0x3866 JUMP JUMPDEST PUSH1 0x0 PUSH2 0x1B29 DUP4 DUP4 PUSH1 0x16 PUSH2 0x3866 JUMP JUMPDEST SHL SWAP1 JUMP JUMPDEST PUSH7 0x1FFFFFFFFFFFFF SWAP2 SWAP1 SWAP2 AND SWAP1 SHL SWAP1 JUMP JUMPDEST PUSH3 0x3FFFFF SWAP2 SWAP1 SWAP2 AND SWAP1 SHL SWAP1 JUMP JUMPDEST SHR PUSH4 0x7FFFFFFF AND SWAP1 JUMP JUMPDEST CHAINID SWAP1 JUMP JUMPDEST PUSH2 0x2E50 PUSH2 0x4887 JUMP JUMPDEST PUSH2 0x2E63 PUSH1 0x1 DUP5 DUP2 JUMPDEST PUSH1 0x20 MUL ADD MLOAD DUP5 PUSH2 0x387D JUMP JUMPDEST DUP2 MSTORE PUSH2 0x2E71 PUSH1 0x0 DUP5 DUP2 PUSH2 0x2E58 JUMP JUMPDEST PUSH1 0x20 DUP3 ADD MSTORE SWAP3 SWAP2 POP POP JUMP JUMPDEST PUSH1 0x0 DUP3 DUP3 SHR PUSH3 0x3FFFFF AND PUSH3 0x1FFFFF DUP2 SGT PUSH2 0x2E96 JUMPI DUP1 PUSH2 0x25F6 JUMP JUMPDEST PUSH3 0x3FFFFF NOT OR SWAP4 SWAP3 POP POP POP JUMP JUMPDEST SHR PUSH2 0x3FF AND SWAP1 JUMP JUMPDEST SHR PUSH1 0x1 SWAP1 DUP2 AND EQ SWAP1 JUMP JUMPDEST SHR PUSH1 0x1 PUSH1 0x1 PUSH1 0x40 SHL SUB AND SWAP1 JUMP JUMPDEST PUSH1 0x0 DUP1 PUSH1 0x0 DUP1 PUSH2 0x2ED4 PUSH1 0xA SLOAD DUP7 PUSH2 0x389D JUMP JUMPDEST SWAP4 POP SWAP4 POP SWAP4 POP SWAP4 POP PUSH2 0x2EE8 DUP5 DUP5 DUP5 DUP5 PUSH2 0x3906 JUMP JUMPDEST POP POP POP POP POP JUMP JUMPDEST PUSH1 0x0 PUSH1 0x60 PUSH1 0x0 PUSH2 0x2EFE DUP5 PUSH2 0x3614 JUMP JUMPDEST SWAP1 POP PUSH1 0x1 DUP2 PUSH1 0x3 DUP2 GT ISZERO PUSH2 0x2F0E JUMPI INVALID JUMPDEST EQ ISZERO PUSH2 0x2F28 JUMPI PUSH2 0x2F1E DUP6 DUP6 PUSH2 0x3926 JUMP JUMPDEST SWAP1 SWAP4 POP SWAP2 POP PUSH2 0x2F33 JUMP JUMPDEST PUSH2 0x2F33 PUSH2 0x150 PUSH2 0x2D54 JUMP JUMPDEST POP SWAP3 POP SWAP3 SWAP1 POP JUMP JUMPDEST PUSH1 0x0 DUP2 ISZERO PUSH2 0x2F6D JUMPI PUSH1 0x0 PUSH2 0x2F59 DUP5 PUSH2 0x2F53 DUP9 DUP9 PUSH2 0x286C JUMP JUMPDEST SWAP1 PUSH2 0x2947 JUMP JUMPDEST SWAP1 POP PUSH2 0x2F65 DUP7 DUP3 PUSH2 0x3958 JUMP JUMPDEST SWAP2 POP POP PUSH2 0x25F6 JUMP JUMPDEST PUSH1 0x0 PUSH2 0x2F7D DUP5 PUSH2 0xDE8 DUP9 DUP9 PUSH2 0x3970 JUMP JUMPDEST SWAP1 POP PUSH2 0x2F89 DUP7 DUP3 PUSH2 0x28C1 JUMP JUMPDEST SWAP7 SWAP6 POP POP POP POP POP POP JUMP JUMPDEST PUSH1 0x0 PUSH2 0x2FA2 DUP3 ISZERO ISZERO PUSH1 0x4 PUSH2 0x1D0E JUMP JUMPDEST DUP2 DUP4 DUP2 PUSH2 0x2FAB JUMPI INVALID JUMPDEST DIV SWAP4 SWAP3 POP POP POP JUMP JUMPDEST PUSH1 0x0 PUSH2 0x778 DUP3 PUSH1 0xEA PUSH2 0x2E7C JUMP JUMPDEST PUSH1 0x0 PUSH2 0x778 DUP3 PUSH1 0xB5 PUSH2 0x39A9 JUMP JUMPDEST PUSH1 0x0 PUSH2 0x778 DUP3 PUSH1 0x9F PUSH2 0x2E7C JUMP JUMPDEST PUSH1 0x0 PUSH2 0x778 DUP3 PUSH1 0x6A PUSH2 0x39A9 JUMP JUMPDEST PUSH1 0x0 PUSH2 0x778 DUP3 PUSH1 0x54 PUSH2 0x2E7C JUMP JUMPDEST PUSH1 0x0 PUSH2 0x778 DUP3 PUSH1 0x1F PUSH2 0x39A9 JUMP JUMPDEST PUSH1 0x0 DUP2 PUSH2 0x302E JUMPI PUSH32 0x0 PUSH2 0x778 JUMP JUMPDEST POP PUSH32 0x0 SWAP2 SWAP1 POP JUMP JUMPDEST PUSH2 0x306C PUSH1 0x1 PUSH1 0x1 PUSH1 0xA0 SHL SUB DUP4 AND ISZERO ISZERO PUSH2 0x19B PUSH2 0x1D0E JUMP JUMPDEST PUSH2 0x3078 DUP3 PUSH1 0x0 DUP4 PUSH2 0x2B3A JUMP JUMPDEST PUSH1 0x1 PUSH1 0x1 PUSH1 0xA0 SHL SUB DUP3 AND PUSH1 0x0 SWAP1 DUP2 MSTORE PUSH1 0x20 DUP2 SWAP1 MSTORE PUSH1 0x40 SWAP1 KECCAK256 SLOAD PUSH2 0x309E SWAP1 DUP3 PUSH2 0x1A1 PUSH2 0x2DA7 JUMP JUMPDEST PUSH1 0x1 PUSH1 0x1 PUSH1 0xA0 SHL SUB DUP4 AND PUSH1 0x0 SWAP1 DUP2 MSTORE PUSH1 0x20 DUP2 SWAP1 MSTORE PUSH1 0x40 SWAP1 KECCAK256 SSTORE PUSH1 0x2 SLOAD PUSH2 0x30C4 SWAP1 DUP3 PUSH2 0x39DC JUMP JUMPDEST PUSH1 0x2 SSTORE PUSH1 0x40 DUP1 MLOAD DUP3 DUP2 MSTORE SWAP1 MLOAD PUSH1 0x0 SWAP2 PUSH1 0x1 PUSH1 0x1 PUSH1 0xA0 SHL SUB DUP6 AND SWAP2 PUSH32 0xDDF252AD1BE2C89B69C2B068FC378DAA952BA7F163C4A11628F55A4DF523B3EF SWAP2 DUP2 SWAP1 SUB PUSH1 0x20 ADD SWAP1 LOG3 POP POP JUMP JUMPDEST PUSH1 0x0 PUSH1 0x60 PUSH1 0x0 PUSH2 0x311B DUP5 PUSH2 0x3614 JUMP JUMPDEST SWAP1 POP PUSH1 0x3 DUP2 PUSH1 0x3 DUP2 GT ISZERO PUSH2 0x312B JUMPI INVALID JUMPDEST EQ ISZERO PUSH2 0x313B JUMPI PUSH2 0x2F1E DUP6 DUP6 PUSH2 0x39EA JUMP JUMPDEST PUSH2 0x2F33 PUSH2 0x136 PUSH2 0x2D54 JUMP JUMPDEST PUSH1 0x40 DUP1 MLOAD PUSH1 0x60 DUP2 ADD DUP3 MSTORE PUSH1 0xB SLOAD PUSH1 0xFF DUP2 AND ISZERO ISZERO DUP3 MSTORE PUSH2 0x100 DUP2 DIV PUSH1 0x1 PUSH1 0x1 PUSH1 0x78 SHL SUB AND PUSH1 0x20 DUP4 ADD DUP2 SWAP1 MSTORE PUSH1 0x1 PUSH1 0x80 SHL SWAP1 SWAP2 DIV PUSH1 0x1 PUSH1 0x1 PUSH1 0x80 SHL SUB AND SWAP3 DUP3 ADD SWAP3 SWAP1 SWAP3 MSTORE SWAP1 PUSH2 0x3193 DUP6 DUP6 PUSH2 0x3958 JUMP JUMPDEST GT ISZERO PUSH1 0x40 MLOAD DUP1 PUSH1 0x40 ADD PUSH1 0x40 MSTORE DUP1 PUSH1 0x1A DUP2 MSTORE PUSH1 0x20 ADD PUSH32 0x6F7665722061646472657373206C697175696469747920636170000000000000 DUP2 MSTORE POP SWAP1 PUSH2 0x31E9 JUMPI PUSH1 0x40 MLOAD PUSH3 0x461BCD PUSH1 0xE5 SHL DUP2 MSTORE PUSH1 0x4 ADD PUSH2 0x7CF SWAP2 SWAP1 PUSH2 0x52D4 JUMP JUMPDEST POP PUSH1 0x40 DUP2 ADD MLOAD PUSH1 0x1 PUSH1 0x1 PUSH1 0x80 SHL SUB AND PUSH2 0x3202 DUP6 DUP5 PUSH2 0x3958 JUMP JUMPDEST GT ISZERO PUSH1 0x40 MLOAD DUP1 PUSH1 0x40 ADD PUSH1 0x40 MSTORE DUP1 PUSH1 0x19 DUP2 MSTORE PUSH1 0x20 ADD PUSH32 0x6F76657220676C6F62616C206C69717569646974792063617000000000000000 DUP2 MSTORE POP SWAP1 PUSH2 0x2EE8 JUMPI PUSH1 0x40 MLOAD PUSH3 0x461BCD PUSH1 0xE5 SHL DUP2 MSTORE PUSH1 0x4 ADD PUSH2 0x7CF SWAP2 SWAP1 PUSH2 0x52D4 JUMP JUMPDEST PUSH1 0x0 PUSH2 0x3267 DUP3 ISZERO ISZERO PUSH1 0x4 PUSH2 0x1D0E JUMP JUMPDEST DUP3 PUSH2 0x3274 JUMPI POP PUSH1 0x0 PUSH2 0x778 JUMP JUMPDEST DUP2 PUSH1 0x1 DUP5 SUB DUP2 PUSH2 0x3280 JUMPI INVALID JUMPDEST DIV PUSH1 0x1 ADD SWAP1 POP PUSH2 0x778 JUMP JUMPDEST PUSH1 0x0 DUP1 PUSH2 0x329A DUP7 DUP7 DUP7 DUP7 PUSH2 0x3A0F JUMP JUMPDEST SWAP1 POP PUSH2 0x2F89 DUP2 PUSH2 0x2DBD JUMP JUMPDEST PUSH1 0x0 DUP1 PUSH2 0x32B4 DUP8 DUP8 DUP8 DUP8 PUSH2 0x3A0F JUMP JUMPDEST SWAP1 POP PUSH1 0x0 PUSH2 0x32CC PUSH2 0x32C5 DUP8 DUP5 PUSH2 0x286C JUMP JUMPDEST DUP10 SWAP1 PUSH2 0x3958 JUMP JUMPDEST SWAP1 POP PUSH1 0x0 PUSH2 0x32D9 DUP3 PUSH2 0x2DBD JUMP JUMPDEST SWAP5 SWAP1 SWAP5 SUB SWAP9 SWAP8 POP POP POP POP POP POP POP POP JUMP JUMPDEST PUSH1 0x0 DUP1 PUSH2 0x3305 DUP6 DUP6 DUP6 TIMESTAMP PUSH2 0x32FC DUP12 PUSH2 0x2472 JUMP JUMPDEST SWAP4 SWAP3 SWAP2 SWAP1 PUSH2 0x3A37 JUMP JUMPDEST SWAP1 POP PUSH1 0x78 TIMESTAMP DUP9 SWAP1 SUB LT ISZERO DUP1 PUSH2 0x331A JUMPI DUP7 PUSH2 0x3323 JUMP JUMPDEST PUSH2 0x3323 DUP8 PUSH2 0x3A89 JUMP JUMPDEST PUSH1 0x0 DUP2 DUP2 MSTORE PUSH1 0x8 PUSH1 0x20 MSTORE PUSH1 0x40 SWAP1 KECCAK256 SWAP3 SWAP1 SWAP3 SSTORE POP SWAP7 SWAP6 POP POP POP POP POP POP JUMP JUMPDEST PUSH1 0x0 PUSH2 0x1B29 DUP4 DUP4 PUSH1 0x4B PUSH2 0x3A96 JUMP JUMPDEST PUSH1 0x0 PUSH2 0x1B29 DUP4 DUP4 PUSH1 0x2C PUSH2 0x3AA6 JUMP JUMPDEST PUSH1 0x0 DUP1 PUSH2 0x337B PUSH2 0x3374 DUP6 PUSH8 0xDE0B6B3A7640002 PUSH2 0x286C JUMP JUMPDEST DUP9 SWAP1 PUSH2 0x3958 JUMP JUMPDEST SWAP1 POP PUSH1 0x0 PUSH2 0x3394 PUSH2 0x3374 DUP6 PUSH8 0xDE0B6B3A763FFFF PUSH2 0x3970 JUMP JUMPDEST SWAP1 POP PUSH2 0x33AD PUSH2 0x33A3 DUP4 DUP9 PUSH2 0x3958 JUMP JUMPDEST PUSH2 0xDE8 DUP4 DUP10 PUSH2 0x3970 JUMP JUMPDEST SWAP3 POP POP POP DUP5 DUP2 GT ISZERO PUSH2 0x28ED JUMPI PUSH2 0x28ED PUSH1 0x0 PUSH2 0x165 PUSH2 0x3AB8 JUMP JUMPDEST PUSH1 0x0 DUP5 DUP5 GT ISZERO PUSH2 0x33DD JUMPI PUSH2 0x33DD PUSH1 0x0 PUSH2 0x165 PUSH2 0x3AB8 JUMP JUMPDEST PUSH1 0x0 PUSH2 0x33F4 PUSH2 0x3374 DUP6 PUSH8 0xDE0B6B3A7640002 PUSH2 0x286C JUMP JUMPDEST SWAP1 POP PUSH1 0x0 PUSH2 0x340D PUSH2 0x3374 DUP6 PUSH8 0xDE0B6B3A763FFFF PUSH2 0x3970 JUMP JUMPDEST SWAP1 POP PUSH2 0x2A4E PUSH2 0x341C DUP3 DUP9 PUSH2 0x28C1 JUMP JUMPDEST PUSH2 0x2F53 DUP5 DUP10 PUSH2 0x286C JUMP JUMPDEST PUSH1 0x0 DUP1 DUP1 DUP1 PUSH2 0x3447 PUSH2 0x3438 DUP8 DUP8 PUSH2 0x250B JUMP JUMPDEST PUSH8 0xDE0B6B3A7640000 SWAP1 PUSH2 0x28C1 JUMP JUMPDEST SWAP4 POP PUSH1 0x0 PUSH2 0x3472 DUP7 DUP10 PUSH1 0x1 DUP2 MLOAD DUP2 LT PUSH2 0x345C JUMPI INVALID JUMPDEST PUSH1 0x20 MUL PUSH1 0x20 ADD ADD MLOAD PUSH2 0x250B SWAP1 SWAP2 SWAP1 PUSH4 0xFFFFFFFF AND JUMP JUMPDEST SWAP1 POP PUSH1 0x0 PUSH2 0x349D DUP9 DUP11 PUSH1 0x0 DUP2 MLOAD DUP2 LT PUSH2 0x3487 JUMPI INVALID JUMPDEST PUSH1 0x20 MUL PUSH1 0x20 ADD ADD MLOAD PUSH2 0x3970 SWAP1 SWAP2 SWAP1 PUSH4 0xFFFFFFFF AND JUMP JUMPDEST SWAP1 POP PUSH2 0x34A9 DUP3 DUP3 PUSH2 0x3958 JUMP JUMPDEST SWAP5 POP PUSH2 0x34D0 DUP10 PUSH1 0x1 DUP2 MLOAD DUP2 LT PUSH2 0x34BB JUMPI INVALID JUMPDEST PUSH1 0x20 MUL PUSH1 0x20 ADD ADD MLOAD DUP11 PUSH1 0x0 DUP2 MLOAD DUP2 LT PUSH2 0x3487 JUMPI INVALID JUMPDEST SWAP3 POP POP POP PUSH2 0x3507 DUP7 PUSH2 0x3501 DUP9 PUSH2 0x3501 DUP12 PUSH1 0x0 DUP2 MLOAD DUP2 LT PUSH2 0x34EC JUMPI INVALID JUMPDEST PUSH1 0x20 MUL PUSH1 0x20 ADD ADD MLOAD DUP13 PUSH1 0x0 DUP2 MLOAD DUP2 LT PUSH2 0x3487 JUMPI INVALID JUMPDEST SWAP1 PUSH2 0x3970 JUMP JUMPDEST SWAP2 POP PUSH1 0x0 PUSH2 0x3547 DUP7 PUSH2 0xDE8 DUP10 PUSH2 0x3501 PUSH8 0xDE0B6B3A7640000 PUSH1 0x2 MUL PUSH2 0x3501 DUP15 PUSH1 0x1 DUP2 MLOAD DUP2 LT PUSH2 0x3532 JUMPI INVALID JUMPDEST PUSH1 0x20 MUL PUSH1 0x20 ADD ADD MLOAD DUP16 PUSH1 0x0 DUP2 MLOAD DUP2 LT PUSH2 0x3487 JUMPI INVALID JUMPDEST SWAP1 POP PUSH1 0x0 PUSH2 0x357D PUSH2 0x3558 DUP9 DUP1 PUSH2 0x286C JUMP JUMPDEST PUSH2 0xDE8 DUP12 PUSH1 0x1 DUP2 MLOAD DUP2 LT PUSH2 0x3568 JUMPI INVALID JUMPDEST PUSH1 0x20 MUL PUSH1 0x20 ADD ADD MLOAD DUP13 PUSH1 0x1 DUP2 MLOAD DUP2 LT PUSH2 0x3487 JUMPI INVALID JUMPDEST SWAP1 POP PUSH2 0x3593 DUP2 PUSH2 0x358D DUP7 DUP6 PUSH2 0x3958 JUMP JUMPDEST SWAP1 PUSH2 0x3958 JUMP JUMPDEST SWAP4 POP POP POP SWAP4 POP SWAP4 POP SWAP4 POP SWAP4 JUMP JUMPDEST PUSH1 0x0 DUP1 PUSH2 0x35B5 DUP7 PUSH8 0x1BC16D674EC80000 PUSH2 0x286C JUMP JUMPDEST SWAP1 POP PUSH1 0x0 PUSH2 0x35CF DUP8 PUSH2 0x3501 DUP7 PUSH8 0x3782DACE9D900000 PUSH2 0x3970 JUMP JUMPDEST SWAP1 POP PUSH1 0x0 PUSH2 0x35DD DUP7 DUP4 PUSH2 0x3958 JUMP JUMPDEST SWAP1 POP PUSH1 0x0 PUSH2 0x35EC DUP3 PUSH1 0x5 PUSH2 0x3AC6 JUMP JUMPDEST SWAP1 POP PUSH1 0x0 PUSH2 0x35FA DUP10 DUP4 PUSH2 0x3958 JUMP JUMPDEST SWAP1 POP PUSH2 0x3606 DUP2 DUP7 PUSH2 0x250B JUMP JUMPDEST SWAP11 SWAP10 POP POP POP POP POP POP POP POP POP POP JUMP JUMPDEST PUSH1 0x0 DUP2 DUP1 PUSH1 0x20 ADD SWAP1 MLOAD PUSH1 0x20 DUP2 LT ISZERO PUSH2 0x362B JUMPI PUSH1 0x0 DUP1 REVERT JUMPDEST POP MLOAD SWAP3 SWAP2 POP POP JUMP JUMPDEST PUSH1 0x60 DUP2 DUP1 PUSH1 0x20 ADD SWAP1 MLOAD PUSH1 0x40 DUP2 LT ISZERO PUSH2 0x364A JUMPI PUSH1 0x0 DUP1 REVERT JUMPDEST DUP2 MLOAD PUSH1 0x20 DUP4 ADD DUP1 MLOAD PUSH1 0x40 MLOAD SWAP3 SWAP5 SWAP3 SWAP4 DUP4 ADD SWAP3 SWAP2 SWAP1 DUP5 PUSH5 0x100000000 DUP3 GT ISZERO PUSH2 0x3671 JUMPI PUSH1 0x0 DUP1 REVERT JUMPDEST SWAP1 DUP4 ADD SWAP1 PUSH1 0x20 DUP3 ADD DUP6 DUP2 GT ISZERO PUSH2 0x3686 JUMPI PUSH1 0x0 DUP1 REVERT JUMPDEST DUP3 MLOAD DUP7 PUSH1 0x20 DUP3 MUL DUP4 ADD GT PUSH5 0x100000000 DUP3 GT OR ISZERO PUSH2 0x36A3 JUMPI PUSH1 0x0 DUP1 REVERT JUMPDEST DUP3 MSTORE POP DUP2 MLOAD PUSH1 0x20 SWAP2 DUP3 ADD SWAP3 DUP3 ADD SWAP2 MUL DUP1 DUP4 DUP4 PUSH1 0x0 JUMPDEST DUP4 DUP2 LT ISZERO PUSH2 0x36D0 JUMPI DUP2 DUP2 ADD MLOAD DUP4 DUP3 ADD MSTORE PUSH1 0x20 ADD PUSH2 0x36B8 JUMP JUMPDEST POP POP POP POP SWAP2 SWAP1 SWAP2 ADD PUSH1 0x40 MSTORE POP SWAP3 SWAP7 SWAP6 POP POP POP POP POP POP JUMP JUMPDEST PUSH2 0x36F3 PUSH1 0x0 DUP4 DUP4 PUSH2 0x2B3A JUMP JUMPDEST PUSH1 0x2 SLOAD PUSH2 0x3700 SWAP1 DUP3 PUSH2 0x2032 JUMP JUMPDEST PUSH1 0x2 SSTORE PUSH1 0x1 PUSH1 0x1 PUSH1 0xA0 SHL SUB DUP3 AND PUSH1 0x0 SWAP1 DUP2 MSTORE PUSH1 0x20 DUP2 SWAP1 MSTORE PUSH1 0x40 SWAP1 KECCAK256 SLOAD PUSH2 0x3726 SWAP1 DUP3 PUSH2 0x2032 JUMP JUMPDEST PUSH1 0x1 PUSH1 0x1 PUSH1 0xA0 SHL SUB DUP4 AND PUSH1 0x0 DUP2 DUP2 MSTORE PUSH1 0x20 DUP2 DUP2 MSTORE PUSH1 0x40 DUP1 DUP4 KECCAK256 SWAP5 SWAP1 SWAP5 SSTORE DUP4 MLOAD DUP6 DUP2 MSTORE SWAP4 MLOAD SWAP3 SWAP4 SWAP2 SWAP3 PUSH32 0xDDF252AD1BE2C89B69C2B068FC378DAA952BA7F163C4A11628F55A4DF523B3EF SWAP3 DUP2 SWAP1 SUB SWAP1 SWAP2 ADD SWAP1 LOG3 POP POP JUMP JUMPDEST PUSH1 0x0 DUP2 PUSH2 0x37A9 JUMPI PUSH32 0x0 PUSH2 0x778 JUMP JUMPDEST POP PUSH32 0x0 SWAP2 SWAP1 POP JUMP JUMPDEST PUSH1 0x0 PUSH2 0x37E2 PUSH4 0x1C74C917 PUSH1 0xE1 SHL PUSH2 0x1267 JUMP JUMPDEST DUP3 EQ DUP1 PUSH2 0x778 JUMPI POP PUSH2 0x37FA PUSH4 0x50DD6ED9 PUSH1 0xE0 SHL PUSH2 0x1267 JUMP JUMPDEST SWAP1 SWAP2 EQ SWAP2 SWAP1 POP JUMP JUMPDEST PUSH1 0x0 PUSH2 0x3812 PUSH1 0x0 DUP4 SGT PUSH1 0x64 PUSH2 0x1D0E JUMP JUMPDEST PUSH8 0xC7D713B49DA0000 DUP3 SGT DUP1 ISZERO PUSH2 0x3830 JUMPI POP PUSH8 0xF43FC2C04EE0000 DUP3 SLT JUMPDEST ISZERO PUSH2 0x3856 JUMPI PUSH8 0xDE0B6B3A7640000 PUSH2 0x3847 DUP4 PUSH2 0x3C54 JUMP JUMPDEST DUP2 PUSH2 0x384E JUMPI INVALID JUMPDEST SDIV SWAP1 POP PUSH2 0xEDD JUMP JUMPDEST PUSH2 0x385F DUP3 PUSH2 0x3D72 JUMP JUMPDEST SWAP1 POP PUSH2 0xEDD JUMP JUMPDEST PUSH3 0x3FFFFF DUP3 DUP2 AND DUP3 SHL SWAP1 DUP3 SHL NOT DUP5 AND OR SWAP4 SWAP3 POP POP POP JUMP JUMPDEST PUSH1 0x0 DUP4 PUSH2 0x3893 JUMPI PUSH2 0x388E DUP3 DUP5 PUSH2 0x4111 JUMP JUMPDEST PUSH2 0x25F6 JUMP JUMPDEST PUSH2 0x25F6 DUP3 DUP5 PUSH2 0x411D JUMP JUMPDEST PUSH1 0x0 DUP1 PUSH1 0x0 DUP1 PUSH1 0x0 DUP1 PUSH1 0x0 DUP1 PUSH2 0x38B1 PUSH2 0x4129 JUMP JUMPDEST SWAP4 POP SWAP4 POP SWAP4 POP SWAP4 POP DUP4 PUSH1 0x0 EQ ISZERO PUSH2 0x38D6 JUMPI PUSH1 0x0 SWAP8 POP DUP8 SWAP7 POP SWAP1 SWAP5 POP SWAP3 POP PUSH2 0x38FD SWAP2 POP POP JUMP JUMPDEST PUSH1 0x0 DUP1 PUSH2 0x38ED DUP13 DUP13 PUSH2 0x38E6 PUSH2 0x843 JUMP JUMPDEST DUP10 DUP10 PUSH2 0x4398 JUMP JUMPDEST SWAP1 SWAP11 POP SWAP9 POP SWAP3 SWAP7 POP SWAP1 SWAP5 POP POP POP POP POP JUMPDEST SWAP3 SWAP6 SWAP2 SWAP5 POP SWAP3 POP JUMP JUMPDEST DUP4 ISZERO PUSH2 0x3916 JUMPI PUSH2 0x3916 DUP3 DUP6 PUSH2 0x2B30 JUMP JUMPDEST DUP3 ISZERO PUSH2 0xAB8 JUMPI PUSH2 0xAB8 DUP2 DUP5 PUSH2 0x2B30 JUMP JUMPDEST PUSH1 0x0 PUSH1 0x60 PUSH1 0x0 PUSH2 0x3935 DUP5 PUSH2 0x442D JUMP JUMPDEST SWAP1 POP PUSH1 0x0 PUSH2 0x394B DUP7 DUP4 PUSH2 0x3946 PUSH2 0x843 JUMP JUMPDEST PUSH2 0x444F JUMP JUMPDEST SWAP2 SWAP7 SWAP2 SWAP6 POP SWAP1 SWAP4 POP POP POP POP JUMP JUMPDEST PUSH1 0x0 DUP3 DUP3 ADD DUP4 DUP2 LT ISZERO PUSH2 0x1B29 JUMPI PUSH2 0x1B29 PUSH1 0x0 DUP1 PUSH2 0x1D0E JUMP JUMPDEST PUSH1 0x0 DUP3 DUP3 MUL DUP4 ISZERO DUP1 PUSH2 0x398A JUMPI POP DUP3 DUP5 DUP3 DUP2 PUSH2 0x3987 JUMPI INVALID JUMPDEST DIV EQ JUMPDEST PUSH2 0x399A JUMPI PUSH2 0x399A PUSH1 0x0 PUSH1 0x3 PUSH2 0x1D0E JUMP JUMPDEST PUSH8 0xDE0B6B3A7640000 DUP2 PUSH2 0x255C JUMP JUMPDEST PUSH1 0x0 DUP3 DUP3 SHR PUSH7 0x1FFFFFFFFFFFFF AND PUSH7 0xFFFFFFFFFFFFF DUP2 SGT PUSH2 0x39CB JUMPI DUP1 PUSH2 0x25F6 JUMP JUMPDEST PUSH7 0x1FFFFFFFFFFFFF NOT OR SWAP4 SWAP3 POP POP POP JUMP JUMPDEST PUSH1 0x0 PUSH2 0x1B29 DUP4 DUP4 PUSH1 0x1 PUSH2 0x2DA7 JUMP JUMPDEST PUSH1 0x0 PUSH1 0x60 PUSH1 0x0 PUSH2 0x39F9 DUP5 PUSH2 0x442D JUMP JUMPDEST SWAP1 POP PUSH1 0x0 PUSH2 0x394B DUP7 DUP4 PUSH2 0x3A0A PUSH2 0x843 JUMP JUMPDEST PUSH2 0x44D4 JUMP JUMPDEST PUSH1 0x0 PUSH8 0x6F05B59D3B20000 PUSH2 0x2F89 PUSH2 0x3A2B DUP3 PUSH2 0x2F53 DUP8 DUP8 PUSH2 0x3958 JUMP JUMPDEST PUSH2 0x2F53 DUP4 DUP2 DUP11 DUP11 PUSH2 0x3958 JUMP JUMPDEST PUSH1 0x0 DUP1 PUSH2 0x3A43 DUP8 PUSH2 0x1EFF JUMP JUMPDEST DUP4 SUB SWAP1 POP PUSH1 0x0 DUP2 DUP8 MUL PUSH2 0x3A55 DUP10 PUSH2 0x2FC0 JUMP JUMPDEST ADD SWAP1 POP PUSH1 0x0 DUP3 DUP8 MUL PUSH2 0x3A66 DUP11 PUSH2 0x2FDA JUMP JUMPDEST ADD SWAP1 POP PUSH1 0x0 DUP4 DUP8 MUL PUSH2 0x3A77 DUP12 PUSH2 0x2FF4 JUMP JUMPDEST ADD SWAP1 POP PUSH2 0x3606 DUP10 DUP5 DUP11 DUP6 DUP12 DUP7 DUP13 PUSH2 0x1E9F JUMP JUMPDEST PUSH1 0x0 PUSH2 0x778 DUP3 PUSH1 0x1 PUSH2 0x456F JUMP JUMPDEST PUSH2 0x3FF DUP2 SHL NOT SWAP3 SWAP1 SWAP3 AND SWAP2 SHL OR SWAP1 JUMP JUMPDEST PUSH4 0x7FFFFFFF DUP2 SHL NOT SWAP3 SWAP1 SWAP3 AND SWAP2 SHL OR SWAP1 JUMP JUMPDEST DUP2 PUSH2 0x1B17 JUMPI PUSH2 0x1B17 DUP2 PUSH2 0x4577 JUMP JUMPDEST PUSH1 0x0 DUP3 PUSH2 0x3AD5 JUMPI POP PUSH1 0x0 PUSH2 0x778 JUMP JUMPDEST PUSH1 0x0 PUSH2 0x3AE0 DUP5 PUSH2 0x4587 JUMP JUMPDEST SWAP1 POP PUSH1 0x2 DUP2 PUSH8 0xDE0B6B3A7640000 DUP7 MUL DUP2 PUSH2 0x3AF7 JUMPI INVALID JUMPDEST DIV DUP3 ADD DUP2 PUSH2 0x3B01 JUMPI INVALID JUMPDEST DIV SWAP1 POP PUSH1 0x2 DUP2 PUSH8 0xDE0B6B3A7640000 DUP7 MUL DUP2 PUSH2 0x3B19 JUMPI INVALID JUMPDEST DIV DUP3 ADD DUP2 PUSH2 0x3B23 JUMPI INVALID JUMPDEST DIV SWAP1 POP PUSH1 0x2 DUP2 PUSH8 0xDE0B6B3A7640000 DUP7 MUL DUP2 PUSH2 0x3B3B JUMPI INVALID JUMPDEST DIV DUP3 ADD DUP2 PUSH2 0x3B45 JUMPI INVALID JUMPDEST DIV SWAP1 POP PUSH1 0x2 DUP2 PUSH8 0xDE0B6B3A7640000 DUP7 MUL DUP2 PUSH2 0x3B5D JUMPI INVALID JUMPDEST DIV DUP3 ADD DUP2 PUSH2 0x3B67 JUMPI INVALID JUMPDEST DIV SWAP1 POP PUSH1 0x2 DUP2 PUSH8 0xDE0B6B3A7640000 DUP7 MUL DUP2 PUSH2 0x3B7F JUMPI INVALID JUMPDEST DIV DUP3 ADD DUP2 PUSH2 0x3B89 JUMPI INVALID JUMPDEST DIV SWAP1 POP PUSH1 0x2 DUP2 PUSH8 0xDE0B6B3A7640000 DUP7 MUL DUP2 PUSH2 0x3BA1 JUMPI INVALID JUMPDEST DIV DUP3 ADD DUP2 PUSH2 0x3BAB JUMPI INVALID JUMPDEST DIV SWAP1 POP PUSH1 0x2 DUP2 PUSH8 0xDE0B6B3A7640000 DUP7 MUL DUP2 PUSH2 0x3BC3 JUMPI INVALID JUMPDEST DIV DUP3 ADD DUP2 PUSH2 0x3BCD JUMPI INVALID JUMPDEST DIV SWAP1 POP PUSH1 0x0 PUSH2 0x3BDC DUP3 DUP1 PUSH2 0x3970 JUMP JUMPDEST SWAP1 POP PUSH2 0x3BF2 PUSH2 0x3BEB DUP4 DUP7 PUSH2 0x286C JUMP JUMPDEST DUP7 SWAP1 PUSH2 0x3958 JUMP JUMPDEST DUP2 GT ISZERO DUP1 ISZERO PUSH2 0x3C14 JUMPI POP PUSH2 0x3C10 PUSH2 0x3C09 DUP4 DUP7 PUSH2 0x286C JUMP JUMPDEST DUP7 SWAP1 PUSH2 0x28C1 JUMP JUMPDEST DUP2 LT ISZERO JUMPDEST PUSH2 0x165C JUMPI PUSH1 0x40 DUP1 MLOAD PUSH3 0x461BCD PUSH1 0xE5 SHL DUP2 MSTORE PUSH1 0x20 PUSH1 0x4 DUP3 ADD MSTORE PUSH1 0xC PUSH1 0x24 DUP3 ADD MSTORE PUSH12 0x17DCDC5C9D08119052531151 PUSH1 0xA2 SHL PUSH1 0x44 DUP3 ADD MSTORE SWAP1 MLOAD SWAP1 DUP2 SWAP1 SUB PUSH1 0x64 ADD SWAP1 REVERT JUMPDEST PUSH8 0xDE0B6B3A7640000 MUL PUSH1 0x0 DUP1 PUSH11 0xC097CE7BC90715B34B9F1 PUSH1 0x24 SHL DUP1 DUP5 ADD SWAP1 PUSH15 0xC097CE7BC90715B34B9F0FFFFFFFFF NOT DUP6 ADD MUL DUP2 PUSH2 0x3C8F JUMPI INVALID JUMPDEST SDIV SWAP1 POP PUSH1 0x0 PUSH11 0xC097CE7BC90715B34B9F1 PUSH1 0x24 SHL DUP3 DUP1 MUL SDIV SWAP1 POP DUP2 DUP1 PUSH11 0xC097CE7BC90715B34B9F1 PUSH1 0x24 SHL DUP2 DUP5 MUL SDIV SWAP2 POP PUSH1 0x3 DUP3 SDIV ADD PUSH11 0xC097CE7BC90715B34B9F1 PUSH1 0x24 SHL DUP3 DUP5 MUL SDIV SWAP2 POP PUSH1 0x5 DUP3 SDIV ADD PUSH11 0xC097CE7BC90715B34B9F1 PUSH1 0x24 SHL DUP3 DUP5 MUL SDIV SWAP2 POP PUSH1 0x7 DUP3 SDIV ADD PUSH11 0xC097CE7BC90715B34B9F1 PUSH1 0x24 SHL DUP3 DUP5 MUL SDIV SWAP2 POP PUSH1 0x9 DUP3 SDIV ADD PUSH11 0xC097CE7BC90715B34B9F1 PUSH1 0x24 SHL DUP3 DUP5 MUL SDIV SWAP2 POP PUSH1 0xB DUP3 SDIV ADD PUSH11 0xC097CE7BC90715B34B9F1 PUSH1 0x24 SHL DUP3 DUP5 MUL SDIV SWAP2 POP PUSH1 0xD DUP3 SDIV ADD PUSH11 0xC097CE7BC90715B34B9F1 PUSH1 0x24 SHL DUP3 DUP5 MUL SDIV SWAP2 POP PUSH1 0xF DUP3 PUSH1 0x2 SWAP2 SWAP1 SDIV SWAP2 SWAP1 SWAP2 ADD MUL SWAP6 SWAP5 POP POP POP POP POP JUMP JUMPDEST PUSH1 0x0 PUSH8 0xDE0B6B3A7640000 DUP3 SLT ISZERO PUSH2 0x3DAE JUMPI PUSH2 0x3DA4 DUP3 PUSH11 0xC097CE7BC90715B34B9F1 PUSH1 0x24 SHL DUP2 PUSH2 0x3D9E JUMPI INVALID JUMPDEST SDIV PUSH2 0x3D72 JUMP JUMPDEST PUSH1 0x0 SUB SWAP1 POP PUSH2 0xEDD JUMP JUMPDEST PUSH1 0x0 PUSH31 0x1600EF3172E58D2E933EC884FDE10064C63B5372D805E203C0000000000000 DUP4 SLT PUSH2 0x3DFF JUMPI PUSH24 0x195E54C5DD42177F53A27172FA9EC630262827000000000 DUP4 SDIV SWAP3 POP PUSH9 0x6F05B59D3B2000000 ADD JUMPDEST PUSH20 0x11798004D755D3C8BC8E03204CF44619E000000 DUP4 SLT PUSH2 0x3E37 JUMPI PUSH12 0x1425982CF597CD205CEF7380 DUP4 SDIV SWAP3 POP PUSH9 0x3782DACE9D9000000 ADD JUMPDEST PUSH1 0x64 SWAP3 DUP4 MUL SWAP3 MUL PUSH15 0x1855144814A7FF805980FF0084000 DUP4 SLT PUSH2 0x3E7F JUMPI PUSH15 0x1855144814A7FF805980FF0084000 PUSH9 0x56BC75E2D63100000 DUP5 MUL SDIV SWAP3 POP PUSH9 0xAD78EBC5AC62000000 ADD JUMPDEST PUSH12 0x2DF0AB5A80A22C61AB5A700 DUP4 SLT PUSH2 0x3EBA JUMPI PUSH12 0x2DF0AB5A80A22C61AB5A700 PUSH9 0x56BC75E2D63100000 DUP5 MUL SDIV SWAP3 POP PUSH9 0x56BC75E2D631000000 ADD JUMPDEST PUSH10 0x3F1FCE3DA636EA5CF850 DUP4 SLT PUSH2 0x3EF1 JUMPI PUSH10 0x3F1FCE3DA636EA5CF850 PUSH9 0x56BC75E2D63100000 DUP5 MUL SDIV SWAP3 POP PUSH9 0x2B5E3AF16B18800000 ADD JUMPDEST PUSH10 0x127FA27722CC06CC5E2 DUP4 SLT PUSH2 0x3F28 JUMPI PUSH10 0x127FA27722CC06CC5E2 PUSH9 0x56BC75E2D63100000 DUP5 MUL SDIV SWAP3 POP PUSH9 0x15AF1D78B58C400000 ADD JUMPDEST PUSH9 0x280E60114EDB805D03 DUP4 SLT PUSH2 0x3F5D JUMPI PUSH9 0x280E60114EDB805D03 PUSH9 0x56BC75E2D63100000 DUP5 MUL SDIV SWAP3 POP PUSH9 0xAD78EBC5AC6200000 ADD JUMPDEST PUSH9 0xEBC5FB41746121110 DUP4 SLT PUSH2 0x3F88 JUMPI PUSH9 0xEBC5FB41746121110 PUSH9 0x56BC75E2D63100000 SWAP4 DUP5 MUL SDIV SWAP3 ADD JUMPDEST PUSH9 0x8F00F760A4B2DB55D DUP4 SLT PUSH2 0x3FBD JUMPI PUSH9 0x8F00F760A4B2DB55D PUSH9 0x56BC75E2D63100000 DUP5 MUL SDIV SWAP3 POP PUSH9 0x2B5E3AF16B1880000 ADD JUMPDEST PUSH9 0x6F5F1775788937937 DUP4 SLT PUSH2 0x3FF2 JUMPI PUSH9 0x6F5F1775788937937 PUSH9 0x56BC75E2D63100000 DUP5 MUL SDIV SWAP3 POP PUSH9 0x15AF1D78B58C40000 ADD JUMPDEST PUSH9 0x6248F33704B286603 DUP4 SLT PUSH2 0x4026 JUMPI PUSH9 0x6248F33704B286603 PUSH9 0x56BC75E2D63100000 DUP5 MUL SDIV SWAP3 POP PUSH8 0xAD78EBC5AC620000 ADD JUMPDEST PUSH9 0x5C548670B9510E7AC DUP4 SLT PUSH2 0x405A JUMPI PUSH9 0x5C548670B9510E7AC PUSH9 0x56BC75E2D63100000 DUP5 MUL SDIV SWAP3 POP PUSH8 0x56BC75E2D6310000 ADD JUMPDEST PUSH1 0x0 PUSH9 0x56BC75E2D63100000 DUP5 ADD PUSH9 0x56BC75E2D63100000 DUP1 DUP7 SUB MUL DUP2 PUSH2 0x407D JUMPI INVALID JUMPDEST SDIV SWAP1 POP PUSH1 0x0 PUSH9 0x56BC75E2D63100000 DUP3 DUP1 MUL SDIV SWAP1 POP DUP2 DUP1 PUSH9 0x56BC75E2D63100000 DUP2 DUP5 MUL SDIV SWAP2 POP PUSH1 0x3 DUP3 SDIV ADD PUSH9 0x56BC75E2D63100000 DUP3 DUP5 MUL SDIV SWAP2 POP PUSH1 0x5 DUP3 SDIV ADD PUSH9 0x56BC75E2D63100000 DUP3 DUP5 MUL SDIV SWAP2 POP PUSH1 0x7 DUP3 SDIV ADD PUSH9 0x56BC75E2D63100000 DUP3 DUP5 MUL SDIV SWAP2 POP PUSH1 0x9 DUP3 SDIV ADD PUSH9 0x56BC75E2D63100000 DUP3 DUP5 MUL SDIV SWAP2 POP PUSH1 0xB DUP3 SDIV ADD PUSH1 0x2 MUL PUSH1 0x64 DUP6 DUP3 ADD SDIV SWAP8 SWAP7 POP POP POP POP POP POP POP JUMP JUMPDEST PUSH1 0x0 PUSH2 0x1B29 DUP4 DUP4 PUSH2 0x3970 JUMP JUMPDEST PUSH1 0x0 PUSH2 0x1B29 DUP4 DUP4 PUSH2 0x250B JUMP JUMPDEST PUSH1 0xE SLOAD PUSH1 0x40 MLOAD PUSH4 0xBD02D0F5 PUSH1 0xE0 SHL DUP2 MSTORE PUSH1 0x0 SWAP2 DUP3 SWAP2 DUP3 SWAP2 DUP3 SWAP2 PUSH1 0x1 PUSH1 0x1 PUSH1 0xA0 SHL SUB SWAP1 SWAP2 AND SWAP1 PUSH4 0xBD02D0F5 SWAP1 PUSH2 0x417B SWAP1 PUSH22 0x50524F544F434F4C5F535741505F4645455F50455243 PUSH1 0x50 SHL SWAP1 PUSH1 0x4 ADD PUSH2 0x51F0 JUMP JUMPDEST PUSH1 0x20 PUSH1 0x40 MLOAD DUP1 DUP4 SUB DUP2 DUP7 DUP1 EXTCODESIZE ISZERO DUP1 ISZERO PUSH2 0x4193 JUMPI PUSH1 0x0 DUP1 REVERT JUMPDEST POP GAS STATICCALL ISZERO DUP1 ISZERO PUSH2 0x41A7 JUMPI RETURNDATASIZE PUSH1 0x0 DUP1 RETURNDATACOPY RETURNDATASIZE PUSH1 0x0 REVERT JUMPDEST POP POP POP POP PUSH1 0x40 MLOAD RETURNDATASIZE PUSH1 0x1F NOT PUSH1 0x1F DUP3 ADD AND DUP3 ADD DUP1 PUSH1 0x40 MSTORE POP DUP2 ADD SWAP1 PUSH2 0x41CB SWAP2 SWAP1 PUSH2 0x4EBB JUMP JUMPDEST PUSH1 0xE SLOAD PUSH1 0x40 MLOAD PUSH4 0xBD02D0F5 PUSH1 0xE0 SHL DUP2 MSTORE PUSH1 0x1 PUSH1 0x1 PUSH1 0xA0 SHL SUB SWAP1 SWAP2 AND SWAP1 PUSH4 0xBD02D0F5 SWAP1 PUSH2 0x421B SWAP1 PUSH32 0x50524F544F434F4C5F4645455F4759524F5F504F5254494F4E00000000000000 SWAP1 PUSH1 0x4 ADD PUSH2 0x51F0 JUMP JUMPDEST PUSH1 0x20 PUSH1 0x40 MLOAD DUP1 DUP4 SUB DUP2 DUP7 DUP1 EXTCODESIZE ISZERO DUP1 ISZERO PUSH2 0x4233 JUMPI PUSH1 0x0 DUP1 REVERT JUMPDEST POP GAS STATICCALL ISZERO DUP1 ISZERO PUSH2 0x4247 JUMPI RETURNDATASIZE PUSH1 0x0 DUP1 RETURNDATACOPY RETURNDATASIZE PUSH1 0x0 REVERT JUMPDEST POP POP POP POP PUSH1 0x40 MLOAD RETURNDATASIZE PUSH1 0x1F NOT PUSH1 0x1F DUP3 ADD AND DUP3 ADD DUP1 PUSH1 0x40 MSTORE POP DUP2 ADD SWAP1 PUSH2 0x426B SWAP2 SWAP1 PUSH2 0x4EBB JUMP JUMPDEST PUSH1 0xE SLOAD PUSH1 0x40 MLOAD PUSH4 0x21F8A721 PUSH1 0xE0 SHL DUP2 MSTORE PUSH1 0x1 PUSH1 0x1 PUSH1 0xA0 SHL SUB SWAP1 SWAP2 AND SWAP1 PUSH4 0x21F8A721 SWAP1 PUSH2 0x42AB SWAP1 PUSH13 0x4759524F5F5452454153555259 PUSH1 0x98 SHL SWAP1 PUSH1 0x4 ADD PUSH2 0x51F0 JUMP JUMPDEST PUSH1 0x20 PUSH1 0x40 MLOAD DUP1 DUP4 SUB DUP2 DUP7 DUP1 EXTCODESIZE ISZERO DUP1 ISZERO PUSH2 0x42C3 JUMPI PUSH1 0x0 DUP1 REVERT JUMPDEST POP GAS STATICCALL ISZERO DUP1 ISZERO PUSH2 0x42D7 JUMPI RETURNDATASIZE PUSH1 0x0 DUP1 RETURNDATACOPY RETURNDATASIZE PUSH1 0x0 REVERT JUMPDEST POP POP POP POP PUSH1 0x40 MLOAD RETURNDATASIZE PUSH1 0x1F NOT PUSH1 0x1F DUP3 ADD AND DUP3 ADD DUP1 PUSH1 0x40 MSTORE POP DUP2 ADD SWAP1 PUSH2 0x42FB SWAP2 SWAP1 PUSH2 0x49CA JUMP JUMPDEST PUSH1 0xE SLOAD PUSH1 0x40 MLOAD PUSH4 0x21F8A721 PUSH1 0xE0 SHL DUP2 MSTORE PUSH1 0x1 PUSH1 0x1 PUSH1 0xA0 SHL SUB SWAP1 SWAP2 AND SWAP1 PUSH4 0x21F8A721 SWAP1 PUSH2 0x433A SWAP1 PUSH12 0x42414C5F5452454153555259 PUSH1 0xA0 SHL SWAP1 PUSH1 0x4 ADD PUSH2 0x51F0 JUMP JUMPDEST PUSH1 0x20 PUSH1 0x40 MLOAD DUP1 DUP4 SUB DUP2 DUP7 DUP1 EXTCODESIZE ISZERO DUP1 ISZERO PUSH2 0x4352 JUMPI PUSH1 0x0 DUP1 REVERT JUMPDEST POP GAS STATICCALL ISZERO DUP1 ISZERO PUSH2 0x4366 JUMPI RETURNDATASIZE PUSH1 0x0 DUP1 RETURNDATACOPY RETURNDATASIZE PUSH1 0x0 REVERT JUMPDEST POP POP POP POP PUSH1 0x40 MLOAD RETURNDATASIZE PUSH1 0x1F NOT PUSH1 0x1F DUP3 ADD AND DUP3 ADD DUP1 PUSH1 0x40 MSTORE POP DUP2 ADD SWAP1 PUSH2 0x438A SWAP2 SWAP1 PUSH2 0x49CA JUMP JUMPDEST SWAP4 POP SWAP4 POP SWAP4 POP SWAP4 POP SWAP1 SWAP2 SWAP3 SWAP4 JUMP JUMPDEST PUSH1 0x0 DUP1 DUP7 DUP7 GT PUSH2 0x43AD JUMPI POP PUSH1 0x0 SWAP1 POP DUP1 PUSH2 0x4423 JUMP JUMPDEST PUSH1 0x0 PUSH2 0x43C7 DUP6 PUSH2 0x3501 PUSH2 0x43C0 DUP11 DUP13 PUSH2 0x28C1 JUMP JUMPDEST DUP10 SWAP1 PUSH2 0x3970 JUMP JUMPDEST SWAP1 POP PUSH1 0x0 PUSH2 0x43DF PUSH2 0x43D8 DUP10 DUP12 PUSH2 0x28C1 JUMP JUMPDEST DUP8 SWAP1 PUSH2 0x3970 JUMP JUMPDEST SWAP1 POP PUSH1 0x0 PUSH2 0x43ED DUP10 DUP4 PUSH2 0x28C1 JUMP JUMPDEST SWAP1 POP PUSH1 0x0 PUSH2 0x43FB DUP5 DUP4 PUSH2 0x250B JUMP JUMPDEST SWAP1 POP PUSH1 0x0 PUSH2 0x4409 DUP9 DUP4 PUSH2 0x3970 JUMP JUMPDEST SWAP1 POP PUSH1 0x0 PUSH2 0x4417 DUP4 DUP4 PUSH2 0x28C1 JUMP JUMPDEST SWAP2 SWAP8 POP SWAP1 SWAP6 POP POP POP POP POP POP JUMPDEST SWAP6 POP SWAP6 SWAP4 POP POP POP POP JUMP JUMPDEST PUSH1 0x0 DUP2 DUP1 PUSH1 0x20 ADD SWAP1 MLOAD PUSH1 0x40 DUP2 LT ISZERO PUSH2 0x4444 JUMPI PUSH1 0x0 DUP1 REVERT JUMPDEST POP PUSH1 0x20 ADD MLOAD SWAP3 SWAP2 POP POP JUMP JUMPDEST PUSH1 0x60 DUP4 MLOAD PUSH1 0x1 PUSH1 0x1 PUSH1 0x40 SHL SUB DUP2 GT DUP1 ISZERO PUSH2 0x4468 JUMPI PUSH1 0x0 DUP1 REVERT JUMPDEST POP PUSH1 0x40 MLOAD SWAP1 DUP1 DUP3 MSTORE DUP1 PUSH1 0x20 MUL PUSH1 0x20 ADD DUP3 ADD PUSH1 0x40 MSTORE DUP1 ISZERO PUSH2 0x4492 JUMPI DUP2 PUSH1 0x20 ADD PUSH1 0x20 DUP3 MUL DUP1 CALLDATASIZE DUP4 CALLDATACOPY ADD SWAP1 POP JUMPDEST POP SWAP1 POP PUSH1 0x0 JUMPDEST DUP5 MLOAD DUP2 LT ISZERO PUSH2 0x165C JUMPI PUSH2 0x44B5 DUP4 PUSH2 0xDE8 DUP7 DUP9 DUP6 DUP2 MLOAD DUP2 LT PUSH2 0x3487 JUMPI INVALID JUMPDEST DUP3 DUP3 DUP2 MLOAD DUP2 LT PUSH2 0x44C1 JUMPI INVALID JUMPDEST PUSH1 0x20 SWAP1 DUP2 MUL SWAP2 SWAP1 SWAP2 ADD ADD MSTORE PUSH1 0x1 ADD PUSH2 0x4498 JUMP JUMPDEST PUSH1 0x60 DUP4 MLOAD PUSH1 0x1 PUSH1 0x1 PUSH1 0x40 SHL SUB DUP2 GT DUP1 ISZERO PUSH2 0x44ED JUMPI PUSH1 0x0 DUP1 REVERT JUMPDEST POP PUSH1 0x40 MLOAD SWAP1 DUP1 DUP3 MSTORE DUP1 PUSH1 0x20 MUL PUSH1 0x20 ADD DUP3 ADD PUSH1 0x40 MSTORE DUP1 ISZERO PUSH2 0x4517 JUMPI DUP2 PUSH1 0x20 ADD PUSH1 0x20 DUP3 MUL DUP1 CALLDATASIZE DUP4 CALLDATACOPY ADD SWAP1 POP JUMPDEST POP SWAP1 POP PUSH1 0x0 JUMPDEST DUP5 MLOAD DUP2 LT ISZERO PUSH2 0x165C JUMPI PUSH2 0x4550 DUP4 PUSH2 0x2F53 DUP7 DUP9 DUP6 DUP2 MLOAD DUP2 LT PUSH2 0x453A JUMPI INVALID JUMPDEST PUSH1 0x20 MUL PUSH1 0x20 ADD ADD MLOAD PUSH2 0x286C SWAP1 SWAP2 SWAP1 PUSH4 0xFFFFFFFF AND JUMP JUMPDEST DUP3 DUP3 DUP2 MLOAD DUP2 LT PUSH2 0x455C JUMPI INVALID JUMPDEST PUSH1 0x20 SWAP1 DUP2 MUL SWAP2 SWAP1 SWAP2 ADD ADD MSTORE PUSH1 0x1 ADD PUSH2 0x451D JUMP JUMPDEST ADD PUSH2 0x3FF AND SWAP1 JUMP JUMPDEST PUSH2 0x840 DUP2 PUSH3 0x23ACA9 PUSH1 0xE9 SHL PUSH2 0x4759 JUMP JUMPDEST PUSH1 0x0 PUSH8 0xDE0B6B3A7640000 DUP3 LT PUSH2 0x45B4 JUMPI PUSH8 0xDE0B6B3A7640000 PUSH2 0x45AC DUP2 DUP5 DIV PUSH2 0x47BA JUMP JUMPDEST SHL SWAP1 POP PUSH2 0xEDD JUMP JUMPDEST PUSH1 0xA DUP3 GT PUSH2 0x45C7 JUMPI POP PUSH4 0xBC7C871C PUSH2 0xEDD JUMP JUMPDEST PUSH1 0x64 DUP3 GT PUSH2 0x45DB JUMPI POP PUSH5 0x2540BE400 PUSH2 0xEDD JUMP JUMPDEST PUSH2 0x3E8 DUP3 GT PUSH2 0x45F0 JUMPI POP PUSH5 0x75CDD4719 PUSH2 0xEDD JUMP JUMPDEST PUSH2 0x2710 DUP3 GT PUSH2 0x4605 JUMPI POP PUSH5 0x174876E800 PUSH2 0xEDD JUMP JUMPDEST PUSH3 0x186A0 DUP3 GT PUSH2 0x461B JUMPI POP PUSH5 0x49A0A4C700 PUSH2 0xEDD JUMP JUMPDEST PUSH3 0xF4240 DUP3 GT PUSH2 0x4631 JUMPI POP PUSH5 0xE8D4A51000 PUSH2 0xEDD JUMP JUMPDEST PUSH3 0x989680 DUP3 GT PUSH2 0x4648 JUMPI POP PUSH6 0x2E0466FC608 PUSH2 0xEDD JUMP JUMPDEST PUSH4 0x5F5E100 DUP3 GT PUSH2 0x4660 JUMPI POP PUSH6 0x9184E72A000 PUSH2 0xEDD JUMP JUMPDEST PUSH4 0x3B9ACA00 DUP3 GT PUSH2 0x4678 JUMPI POP PUSH6 0x1CC2C05DBC53 PUSH2 0xEDD JUMP JUMPDEST PUSH5 0x2540BE400 DUP3 GT PUSH2 0x4691 JUMPI POP PUSH6 0x5AF3107A4000 PUSH2 0xEDD JUMP JUMPDEST PUSH5 0x174876E800 DUP3 GT PUSH2 0x46AB JUMPI POP PUSH7 0x11F9B83A95B45 PUSH2 0xEDD JUMP JUMPDEST PUSH5 0xE8D4A51000 DUP3 GT PUSH2 0x46C5 JUMPI POP PUSH7 0x38D7EA4C68000 PUSH2 0xEDD JUMP JUMPDEST PUSH6 0x9184E72A000 DUP3 GT PUSH2 0x46E0 JUMPI POP PUSH7 0xB3C13249D90BB PUSH2 0xEDD JUMP JUMPDEST PUSH6 0x5AF3107A4000 DUP3 GT PUSH2 0x46FB JUMPI POP PUSH7 0x2386F26FC10000 PUSH2 0xEDD JUMP JUMPDEST PUSH7 0x38D7EA4C68000 DUP3 GT PUSH2 0x4717 JUMPI POP PUSH7 0x7058BF6E27A751 PUSH2 0xEDD JUMP JUMPDEST PUSH7 0x2386F26FC10000 DUP3 GT PUSH2 0x4734 JUMPI POP PUSH8 0x16345785D8A0000 PUSH2 0xEDD JUMP JUMPDEST PUSH8 0x16345785D8A0000 DUP3 GT PUSH2 0x4752 JUMPI POP PUSH8 0x463777A4D8C892D PUSH2 0xEDD JUMP JUMPDEST POP DUP1 PUSH2 0xEDD JUMP JUMPDEST PUSH3 0x461BCD PUSH1 0xE5 SHL PUSH1 0x0 SWAP1 DUP2 MSTORE PUSH1 0x20 PUSH1 0x4 MSTORE PUSH1 0x7 PUSH1 0x24 MSTORE PUSH1 0xA DUP1 DUP5 DIV DUP2 DUP2 MOD PUSH1 0x30 SWAP1 DUP2 ADD PUSH1 0x8 SHL SWAP6 DUP4 SWAP1 MOD SWAP6 SWAP1 SWAP6 ADD SWAP1 DUP3 SWAP1 DIV SWAP2 DUP3 MOD DUP6 ADD PUSH1 0x10 SHL ADD PUSH1 0x23 PUSH4 0xFFFFFF00 PUSH1 0xE0 DUP7 SWAP1 SHR AND ADD PUSH1 0x18 SHL ADD SWAP1 SWAP4 ADD PUSH1 0xC8 SHL PUSH1 0x44 MSTORE PUSH1 0xE8 DUP3 SWAP1 SHR SWAP1 PUSH1 0x64 SWAP1 REVERT JUMPDEST PUSH1 0x0 PUSH1 0x1 PUSH1 0x80 SHL DUP3 LT PUSH2 0x47D2 JUMPI PUSH1 0x80 SWAP2 SWAP1 SWAP2 SHR SWAP1 PUSH1 0x40 ADD JUMPDEST PUSH9 0x10000000000000000 DUP3 LT PUSH2 0x47ED JUMPI PUSH1 0x40 SWAP2 SWAP1 SWAP2 SHR SWAP1 PUSH1 0x20 ADD JUMPDEST PUSH5 0x100000000 DUP3 LT PUSH2 0x4804 JUMPI PUSH1 0x20 SWAP2 SWAP1 SWAP2 SHR SWAP1 PUSH1 0x10 ADD JUMPDEST PUSH3 0x10000 DUP3 LT PUSH2 0x4819 JUMPI PUSH1 0x10 SWAP2 SWAP1 SWAP2 SHR SWAP1 PUSH1 0x8 ADD JUMPDEST PUSH2 0x100 DUP3 LT PUSH2 0x482D JUMPI PUSH1 0x8 SWAP2 SWAP1 SWAP2 SHR SWAP1 PUSH1 0x4 ADD JUMPDEST PUSH1 0x10 DUP3 LT PUSH2 0x4840 JUMPI PUSH1 0x4 SWAP2 SWAP1 SWAP2 SHR SWAP1 PUSH1 0x2 ADD JUMPDEST PUSH1 0x4 DUP3 LT PUSH2 0xEDD JUMPI PUSH1 0x1 ADD SWAP2 SWAP1 POP JUMP JUMPDEST PUSH1 0x40 DUP1 MLOAD PUSH1 0x60 DUP2 ADD DUP3 MSTORE PUSH1 0x0 DUP1 DUP3 MSTORE PUSH1 0x20 DUP3 ADD DUP2 SWAP1 MSTORE SWAP2 DUP2 ADD SWAP2 SWAP1 SWAP2 MSTORE SWAP1 JUMP JUMPDEST PUSH1 0x40 DUP1 MLOAD DUP1 DUP3 ADD SWAP1 SWAP2 MSTORE PUSH1 0x0 DUP1 DUP3 MSTORE PUSH1 0x20 DUP3 ADD MSTORE SWAP1 JUMP JUMPDEST PUSH1 0x40 MLOAD DUP1 PUSH1 0x40 ADD PUSH1 0x40 MSTORE DUP1 PUSH1 0x2 SWAP1 PUSH1 0x20 DUP3 MUL DUP1 CALLDATASIZE DUP4 CALLDATACOPY POP SWAP2 SWAP3 SWAP2 POP POP JUMP JUMPDEST DUP1 CALLDATALOAD PUSH2 0xEDD DUP2 PUSH2 0x5404 JUMP JUMPDEST PUSH1 0x0 DUP3 PUSH1 0x1F DUP4 ADD SLT PUSH2 0x48C0 JUMPI DUP1 DUP2 REVERT JUMPDEST DUP2 MLOAD PUSH1 0x20 PUSH2 0x48D5 PUSH2 0x48D0 DUP4 PUSH2 0x53E7 JUMP JUMPDEST PUSH2 0x53C4 JUMP JUMPDEST DUP3 DUP2 MSTORE DUP2 DUP2 ADD SWAP1 DUP6 DUP4 ADD DUP4 DUP6 MUL DUP8 ADD DUP5 ADD DUP9 LT ISZERO PUSH2 0x48F1 JUMPI DUP6 DUP7 REVERT JUMPDEST DUP6 JUMPDEST DUP6 DUP2 LT ISZERO PUSH2 0x490F JUMPI DUP2 MLOAD DUP5 MSTORE SWAP3 DUP5 ADD SWAP3 SWAP1 DUP5 ADD SWAP1 PUSH1 0x1 ADD PUSH2 0x48F3 JUMP JUMPDEST POP SWAP1 SWAP8 SWAP7 POP POP POP POP POP POP POP JUMP JUMPDEST DUP1 CALLDATALOAD DUP1 ISZERO ISZERO DUP2 EQ PUSH2 0xEDD JUMPI PUSH1 0x0 DUP1 REVERT JUMPDEST PUSH1 0x0 DUP3 PUSH1 0x1F DUP4 ADD SLT PUSH2 0x493C JUMPI DUP1 DUP2 REVERT JUMPDEST DUP2 CALLDATALOAD PUSH1 0x1 PUSH1 0x1 PUSH1 0x40 SHL SUB DUP2 GT ISZERO PUSH2 0x494F JUMPI INVALID JUMPDEST PUSH2 0x4962 PUSH1 0x1F DUP3 ADD PUSH1 0x1F NOT AND PUSH1 0x20 ADD PUSH2 0x53C4 JUMP JUMPDEST DUP2 DUP2 MSTORE DUP5 PUSH1 0x20 DUP4 DUP7 ADD ADD GT ISZERO PUSH2 0x4976 JUMPI DUP3 DUP4 REVERT JUMPDEST DUP2 PUSH1 0x20 DUP6 ADD PUSH1 0x20 DUP4 ADD CALLDATACOPY SWAP1 DUP2 ADD PUSH1 0x20 ADD SWAP2 SWAP1 SWAP2 MSTORE SWAP3 SWAP2 POP POP JUMP JUMPDEST DUP1 CALLDATALOAD PUSH1 0x2 DUP2 LT PUSH2 0xEDD JUMPI PUSH1 0x0 DUP1 REVERT JUMPDEST DUP1 CALLDATALOAD PUSH1 0x3 DUP2 LT PUSH2 0xEDD JUMPI PUSH1 0x0 DUP1 REVERT JUMPDEST PUSH1 0x0 PUSH1 0x20 DUP3 DUP5 SUB SLT ISZERO PUSH2 0x49BF JUMPI DUP1 DUP2 REVERT JUMPDEST DUP2 CALLDATALOAD PUSH2 0x1B29 DUP2 PUSH2 0x5404 JUMP JUMPDEST PUSH1 0x0 PUSH1 0x20 DUP3 DUP5 SUB SLT ISZERO PUSH2 0x49DB JUMPI DUP1 DUP2 REVERT JUMPDEST DUP2 MLOAD PUSH2 0x1B29 DUP2 PUSH2 0x5404 JUMP JUMPDEST PUSH1 0x0 DUP1 PUSH1 0x40 DUP4 DUP6 SUB SLT ISZERO PUSH2 0x49F8 JUMPI DUP1 DUP2 REVERT JUMPDEST DUP3 CALLDATALOAD PUSH2 0x4A03 DUP2 PUSH2 0x5404 JUMP JUMPDEST SWAP2 POP PUSH1 0x20 DUP4 ADD CALLDATALOAD PUSH2 0x4A13 DUP2 PUSH2 0x5404 JUMP JUMPDEST DUP1 SWAP2 POP POP SWAP3 POP SWAP3 SWAP1 POP JUMP JUMPDEST PUSH1 0x0 DUP1 PUSH1 0x0 PUSH1 0x60 DUP5 DUP7 SUB SLT ISZERO PUSH2 0x4A32 JUMPI DUP1 DUP2 REVERT JUMPDEST DUP4 CALLDATALOAD PUSH2 0x4A3D DUP2 PUSH2 0x5404 JUMP JUMPDEST SWAP3 POP PUSH1 0x20 DUP5 ADD CALLDATALOAD PUSH2 0x4A4D DUP2 PUSH2 0x5404 JUMP JUMPDEST SWAP3 SWAP6 SWAP3 SWAP5 POP POP POP PUSH1 0x40 SWAP2 SWAP1 SWAP2 ADD CALLDATALOAD SWAP1 JUMP JUMPDEST PUSH1 0x0 DUP1 PUSH1 0x0 DUP1 PUSH1 0x0 DUP1 PUSH1 0x0 PUSH1 0xE0 DUP9 DUP11 SUB SLT ISZERO PUSH2 0x4A78 JUMPI DUP5 DUP6 REVERT JUMPDEST DUP8 CALLDATALOAD PUSH2 0x4A83 DUP2 PUSH2 0x5404 JUMP JUMPDEST SWAP7 POP PUSH1 0x20 DUP9 ADD CALLDATALOAD PUSH2 0x4A93 DUP2 PUSH2 0x5404 JUMP JUMPDEST SWAP6 POP PUSH1 0x40 DUP9 ADD CALLDATALOAD SWAP5 POP PUSH1 0x60 DUP9 ADD CALLDATALOAD SWAP4 POP PUSH1 0x80 DUP9 ADD CALLDATALOAD PUSH1 0xFF DUP2 AND DUP2 EQ PUSH2 0x4AB6 JUMPI DUP4 DUP5 REVERT JUMPDEST SWAP7 SWAP10 SWAP6 SWAP9 POP SWAP4 SWAP7 SWAP3 SWAP6 SWAP5 PUSH1 0xA0 DUP5 ADD CALLDATALOAD SWAP5 POP PUSH1 0xC0 SWAP1 SWAP4 ADD CALLDATALOAD SWAP3 SWAP2 POP POP JUMP JUMPDEST PUSH1 0x0 DUP1 PUSH1 0x40 DUP4 DUP6 SUB SLT ISZERO PUSH2 0x4AE5 JUMPI DUP2 DUP3 REVERT JUMPDEST DUP3 CALLDATALOAD PUSH2 0x4AF0 DUP2 PUSH2 0x5404 JUMP JUMPDEST SWAP5 PUSH1 0x20 SWAP4 SWAP1 SWAP4 ADD CALLDATALOAD SWAP4 POP POP POP JUMP JUMPDEST PUSH1 0x0 DUP1 PUSH1 0x0 PUSH1 0x60 DUP5 DUP7 SUB SLT ISZERO PUSH2 0x4B12 JUMPI DUP1 DUP2 REVERT JUMPDEST DUP4 MLOAD PUSH1 0x1 PUSH1 0x1 PUSH1 0x40 SHL SUB DUP1 DUP3 GT ISZERO PUSH2 0x4B28 JUMPI DUP3 DUP4 REVERT JUMPDEST DUP2 DUP7 ADD SWAP2 POP DUP7 PUSH1 0x1F DUP4 ADD SLT PUSH2 0x4B3B JUMPI DUP3 DUP4 REVERT JUMPDEST DUP2 MLOAD PUSH1 0x20 PUSH2 0x4B4B PUSH2 0x48D0 DUP4 PUSH2 0x53E7 JUMP JUMPDEST DUP3 DUP2 MSTORE DUP2 DUP2 ADD SWAP1 DUP6 DUP4 ADD DUP4 DUP6 MUL DUP8 ADD DUP5 ADD DUP13 LT ISZERO PUSH2 0x4B67 JUMPI DUP8 DUP9 REVERT JUMPDEST DUP8 SWAP7 POP JUMPDEST DUP5 DUP8 LT ISZERO PUSH2 0x4B92 JUMPI DUP1 MLOAD PUSH2 0x4B7E DUP2 PUSH2 0x5404 JUMP JUMPDEST DUP4 MSTORE PUSH1 0x1 SWAP7 SWAP1 SWAP7 ADD SWAP6 SWAP2 DUP4 ADD SWAP2 DUP4 ADD PUSH2 0x4B6B JUMP JUMPDEST POP SWAP2 DUP10 ADD MLOAD SWAP2 SWAP8 POP SWAP1 SWAP4 POP POP POP DUP1 DUP3 GT ISZERO PUSH2 0x4BAB JUMPI DUP3 DUP4 REVERT JUMPDEST POP PUSH2 0x4BB8 DUP7 DUP3 DUP8 ADD PUSH2 0x48B0 JUMP JUMPDEST SWAP3 POP POP PUSH1 0x40 DUP5 ADD MLOAD SWAP1 POP SWAP3 POP SWAP3 POP SWAP3 JUMP JUMPDEST PUSH1 0x0 PUSH1 0x20 DUP1 DUP4 DUP6 SUB SLT ISZERO PUSH2 0x4BDB JUMPI DUP2 DUP3 REVERT JUMPDEST DUP3 CALLDATALOAD PUSH1 0x1 PUSH1 0x1 PUSH1 0x40 SHL SUB DUP1 DUP3 GT ISZERO PUSH2 0x4BF1 JUMPI DUP4 DUP5 REVERT JUMPDEST DUP2 DUP6 ADD SWAP2 POP DUP6 PUSH1 0x1F DUP4 ADD SLT PUSH2 0x4C04 JUMPI DUP4 DUP5 REVERT JUMPDEST DUP2 CALLDATALOAD PUSH2 0x4C12 PUSH2 0x48D0 DUP3 PUSH2 0x53E7 JUMP JUMPDEST DUP2 DUP2 MSTORE DUP5 DUP2 ADD SWAP1 DUP5 DUP7 ADD PUSH1 0x40 DUP1 DUP6 MUL DUP8 ADD DUP9 ADD DUP12 LT ISZERO PUSH2 0x4C30 JUMPI DUP9 DUP10 REVERT JUMPDEST DUP9 SWAP7 POP JUMPDEST DUP5 DUP8 LT ISZERO PUSH2 0x4C88 JUMPI DUP1 DUP3 DUP13 SUB SLT ISZERO PUSH2 0x4C4A JUMPI DUP9 DUP10 REVERT JUMPDEST DUP1 MLOAD DUP2 DUP2 ADD DUP2 DUP2 LT DUP9 DUP3 GT OR ISZERO PUSH2 0x4C5D JUMPI INVALID JUMPDEST DUP3 MSTORE PUSH2 0x4C68 DUP4 PUSH2 0x499F JUMP JUMPDEST DUP2 MSTORE DUP3 DUP10 ADD CALLDATALOAD DUP10 DUP3 ADD MSTORE DUP5 MSTORE PUSH1 0x1 SWAP7 SWAP1 SWAP7 ADD SWAP6 SWAP3 DUP8 ADD SWAP3 SWAP1 DUP2 ADD SWAP1 PUSH2 0x4C34 JUMP JUMPDEST POP SWAP1 SWAP10 SWAP9 POP POP POP POP POP POP POP POP POP JUMP JUMPDEST PUSH1 0x0 PUSH1 0x20 DUP1 DUP4 DUP6 SUB SLT ISZERO PUSH2 0x4CA9 JUMPI DUP2 DUP3 REVERT JUMPDEST DUP3 CALLDATALOAD PUSH1 0x1 PUSH1 0x1 PUSH1 0x40 SHL SUB DUP1 DUP3 GT ISZERO PUSH2 0x4CBF JUMPI DUP4 DUP5 REVERT JUMPDEST DUP2 DUP6 ADD SWAP2 POP DUP6 PUSH1 0x1F DUP4 ADD SLT PUSH2 0x4CD2 JUMPI DUP4 DUP5 REVERT JUMPDEST DUP2 CALLDATALOAD PUSH2 0x4CE0 PUSH2 0x48D0 DUP3 PUSH2 0x53E7 JUMP JUMPDEST DUP2 DUP2 MSTORE DUP5 DUP2 ADD SWAP1 DUP5 DUP7 ADD PUSH1 0x60 DUP1 DUP6 MUL DUP8 ADD DUP9 ADD DUP12 LT ISZERO PUSH2 0x4CFE JUMPI DUP9 DUP10 REVERT JUMPDEST DUP9 SWAP7 POP JUMPDEST DUP5 DUP8 LT ISZERO PUSH2 0x4C88 JUMPI DUP1 DUP3 DUP13 SUB SLT ISZERO PUSH2 0x4D18 JUMPI DUP9 DUP10 REVERT JUMPDEST PUSH1 0x40 DUP1 MLOAD DUP3 DUP2 ADD DUP2 DUP2 LT DUP10 DUP3 GT OR ISZERO PUSH2 0x4D2D JUMPI INVALID JUMPDEST DUP3 MSTORE PUSH2 0x4D38 DUP5 PUSH2 0x499F JUMP JUMPDEST DUP2 MSTORE DUP4 DUP11 ADD CALLDATALOAD DUP11 DUP3 ADD MSTORE DUP2 DUP5 ADD CALLDATALOAD SWAP2 DUP2 ADD SWAP2 SWAP1 SWAP2 MSTORE DUP5 MSTORE PUSH1 0x1 SWAP7 SWAP1 SWAP7 ADD SWAP6 SWAP3 DUP8 ADD SWAP3 SWAP1 DUP2 ADD SWAP1 PUSH2 0x4D02 JUMP JUMPDEST PUSH1 0x0 PUSH1 0x20 DUP3 DUP5 SUB SLT ISZERO PUSH2 0x4D74 JUMPI DUP1 DUP2 REVERT JUMPDEST PUSH2 0x1B29 DUP3 PUSH2 0x491C JUMP JUMPDEST PUSH1 0x0 DUP1 PUSH1 0x0 DUP1 PUSH1 0x0 DUP1 PUSH1 0x0 PUSH1 0xE0 DUP9 DUP11 SUB SLT ISZERO PUSH2 0x4D97 JUMPI DUP1 DUP2 REVERT JUMPDEST DUP8 CALLDATALOAD SWAP7 POP PUSH1 0x20 DUP1 DUP10 ADD CALLDATALOAD PUSH2 0x4DAA DUP2 PUSH2 0x5404 JUMP JUMPDEST SWAP7 POP PUSH1 0x40 DUP10 ADD CALLDATALOAD PUSH2 0x4DBA DUP2 PUSH2 0x5404 JUMP JUMPDEST SWAP6 POP PUSH1 0x60 DUP10 ADD CALLDATALOAD PUSH1 0x1 PUSH1 0x1 PUSH1 0x40 SHL SUB DUP1 DUP3 GT ISZERO PUSH2 0x4DD5 JUMPI DUP4 DUP5 REVERT JUMPDEST DUP2 DUP12 ADD SWAP2 POP DUP12 PUSH1 0x1F DUP4 ADD SLT PUSH2 0x4DE8 JUMPI DUP4 DUP5 REVERT JUMPDEST DUP2 CALLDATALOAD PUSH2 0x4DF6 PUSH2 0x48D0 DUP3 PUSH2 0x53E7 JUMP JUMPDEST DUP1 DUP3 DUP3 MSTORE DUP6 DUP3 ADD SWAP2 POP DUP6 DUP6 ADD DUP16 DUP8 DUP9 DUP7 MUL DUP9 ADD ADD GT ISZERO PUSH2 0x4E14 JUMPI DUP8 DUP9 REVERT JUMPDEST DUP8 SWAP6 POP JUMPDEST DUP4 DUP7 LT ISZERO PUSH2 0x4E36 JUMPI DUP1 CALLDATALOAD DUP4 MSTORE PUSH1 0x1 SWAP6 SWAP1 SWAP6 ADD SWAP5 SWAP2 DUP7 ADD SWAP2 DUP7 ADD PUSH2 0x4E18 JUMP JUMPDEST POP SWAP9 POP POP POP PUSH1 0x80 DUP12 ADD CALLDATALOAD SWAP6 POP PUSH1 0xA0 DUP12 ADD CALLDATALOAD SWAP5 POP PUSH1 0xC0 DUP12 ADD CALLDATALOAD SWAP3 POP DUP1 DUP4 GT ISZERO PUSH2 0x4E5C JUMPI DUP4 DUP5 REVERT JUMPDEST POP POP PUSH2 0x4E6A DUP11 DUP3 DUP12 ADD PUSH2 0x492C JUMP JUMPDEST SWAP2 POP POP SWAP3 SWAP6 SWAP9 SWAP2 SWAP5 SWAP8 POP SWAP3 SWAP6 POP JUMP JUMPDEST PUSH1 0x0 PUSH1 0x20 DUP3 DUP5 SUB SLT ISZERO PUSH2 0x4E8A JUMPI DUP1 DUP2 REVERT JUMPDEST DUP2 CALLDATALOAD PUSH1 0x1 PUSH1 0x1 PUSH1 0xE0 SHL SUB NOT DUP2 AND DUP2 EQ PUSH2 0x1B29 JUMPI DUP2 DUP3 REVERT JUMPDEST PUSH1 0x0 PUSH1 0x20 DUP3 DUP5 SUB SLT ISZERO PUSH2 0x4EB2 JUMPI DUP1 DUP2 REVERT JUMPDEST PUSH2 0x1B29 DUP3 PUSH2 0x499F JUMP JUMPDEST PUSH1 0x0 PUSH1 0x20 DUP3 DUP5 SUB SLT ISZERO PUSH2 0x4ECC JUMPI DUP1 DUP2 REVERT JUMPDEST POP MLOAD SWAP2 SWAP1 POP JUMP JUMPDEST PUSH1 0x0 PUSH1 0x60 DUP3 DUP5 SUB SLT ISZERO PUSH2 0x4EE4 JUMPI DUP1 DUP2 REVERT JUMPDEST PUSH1 0x40 MLOAD PUSH1 0x60 DUP2 ADD DUP2 DUP2 LT PUSH1 0x1 PUSH1 0x1 PUSH1 0x40 SHL SUB DUP3 GT OR ISZERO PUSH2 0x4F00 JUMPI INVALID JUMPDEST PUSH1 0x40 MSTORE PUSH2 0x4F0C DUP4 PUSH2 0x491C JUMP JUMPDEST DUP2 MSTORE PUSH1 0x20 DUP4 ADD CALLDATALOAD PUSH1 0x1 PUSH1 0x1 PUSH1 0x78 SHL SUB DUP2 AND DUP2 EQ PUSH2 0x4F27 JUMPI DUP3 DUP4 REVERT JUMPDEST PUSH1 0x20 DUP3 ADD MSTORE PUSH1 0x40 DUP4 ADD CALLDATALOAD PUSH1 0x1 PUSH1 0x1 PUSH1 0x80 SHL SUB DUP2 AND DUP2 EQ PUSH2 0x4F45 JUMPI DUP3 DUP4 REVERT JUMPDEST PUSH1 0x40 DUP3 ADD MSTORE SWAP4 SWAP3 POP POP POP JUMP JUMPDEST PUSH1 0x0 DUP1 PUSH1 0x0 PUSH1 0x60 DUP5 DUP7 SUB SLT ISZERO PUSH2 0x4F65 JUMPI DUP1 DUP2 REVERT JUMPDEST DUP4 CALLDATALOAD PUSH1 0x1 PUSH1 0x1 PUSH1 0x40 SHL SUB DUP1 DUP3 GT ISZERO PUSH2 0x4F7B JUMPI DUP3 DUP4 REVERT JUMPDEST DUP2 DUP7 ADD SWAP2 POP PUSH2 0x120 DUP1 DUP4 DUP10 SUB SLT ISZERO PUSH2 0x4F91 JUMPI DUP4 DUP5 REVERT JUMPDEST PUSH2 0x4F9A DUP2 PUSH2 0x53C4 JUMP JUMPDEST SWAP1 POP PUSH2 0x4FA5 DUP4 PUSH2 0x4990 JUMP JUMPDEST DUP2 MSTORE PUSH2 0x4FB3 PUSH1 0x20 DUP5 ADD PUSH2 0x48A5 JUMP JUMPDEST PUSH1 0x20 DUP3 ADD MSTORE PUSH2 0x4FC4 PUSH1 0x40 DUP5 ADD PUSH2 0x48A5 JUMP JUMPDEST PUSH1 0x40 DUP3 ADD MSTORE PUSH1 0x60 DUP4 ADD CALLDATALOAD PUSH1 0x60 DUP3 ADD MSTORE PUSH1 0x80 DUP4 ADD CALLDATALOAD PUSH1 0x80 DUP3 ADD MSTORE PUSH1 0xA0 DUP4 ADD CALLDATALOAD PUSH1 0xA0 DUP3 ADD MSTORE PUSH2 0x4FF3 PUSH1 0xC0 DUP5 ADD PUSH2 0x48A5 JUMP JUMPDEST PUSH1 0xC0 DUP3 ADD MSTORE PUSH2 0x5004 PUSH1 0xE0 DUP5 ADD PUSH2 0x48A5 JUMP JUMPDEST PUSH1 0xE0 DUP3 ADD MSTORE PUSH2 0x100 DUP1 DUP5 ADD CALLDATALOAD DUP4 DUP2 GT ISZERO PUSH2 0x501C JUMPI DUP6 DUP7 REVERT JUMPDEST PUSH2 0x5028 DUP11 DUP3 DUP8 ADD PUSH2 0x492C JUMP JUMPDEST SWAP2 DUP4 ADD SWAP2 SWAP1 SWAP2 MSTORE POP SWAP8 PUSH1 0x20 DUP8 ADD CALLDATALOAD SWAP8 POP PUSH1 0x40 SWAP1 SWAP7 ADD CALLDATALOAD SWAP6 SWAP5 POP POP POP POP POP JUMP JUMPDEST PUSH1 0x0 PUSH1 0x20 DUP3 DUP5 SUB SLT ISZERO PUSH2 0x5058 JUMPI DUP1 DUP2 REVERT JUMPDEST POP CALLDATALOAD SWAP2 SWAP1 POP JUMP JUMPDEST PUSH1 0x0 DUP1 PUSH1 0x40 DUP4 DUP6 SUB SLT ISZERO PUSH2 0x5071 JUMPI DUP2 DUP3 REVERT JUMPDEST POP POP DUP1 CALLDATALOAD SWAP3 PUSH1 0x20 SWAP1 SWAP2 ADD CALLDATALOAD SWAP2 POP JUMP JUMPDEST PUSH1 0x0 DUP1 PUSH1 0x0 PUSH1 0x60 DUP5 DUP7 SUB SLT ISZERO PUSH2 0x5094 JUMPI DUP1 DUP2 REVERT JUMPDEST DUP4 CALLDATALOAD SWAP3 POP PUSH1 0x20 DUP5 ADD CALLDATALOAD SWAP2 POP PUSH2 0x50AB PUSH1 0x40 DUP6 ADD PUSH2 0x491C JUMP JUMPDEST SWAP1 POP SWAP3 POP SWAP3 POP SWAP3 JUMP JUMPDEST PUSH1 0x0 DUP2 MLOAD DUP1 DUP5 MSTORE PUSH1 0x20 DUP1 DUP6 ADD SWAP5 POP DUP1 DUP5 ADD DUP4 JUMPDEST DUP4 DUP2 LT ISZERO PUSH2 0x50E3 JUMPI DUP2 MLOAD DUP8 MSTORE SWAP6 DUP3 ADD SWAP6 SWAP1 DUP3 ADD SWAP1 PUSH1 0x1 ADD PUSH2 0x50C7 JUMP JUMPDEST POP SWAP5 SWAP6 SWAP5 POP POP POP POP POP JUMP JUMPDEST PUSH1 0x3 DUP2 LT PUSH2 0x50F8 JUMPI INVALID JUMPDEST SWAP1 MSTORE JUMP JUMPDEST PUSH1 0x0 DUP3 DUP5 DUP4 CALLDATACOPY SWAP2 ADD SWAP1 DUP2 MSTORE SWAP2 SWAP1 POP JUMP JUMPDEST PUSH1 0x1 PUSH1 0x1 PUSH1 0xA0 SHL SUB SWAP2 SWAP1 SWAP2 AND DUP2 MSTORE PUSH1 0x20 ADD SWAP1 JUMP JUMPDEST PUSH1 0x20 DUP1 DUP3 MSTORE DUP3 MLOAD DUP3 DUP3 ADD DUP2 SWAP1 MSTORE PUSH1 0x0 SWAP2 SWAP1 DUP5 DUP3 ADD SWAP1 PUSH1 0x40 DUP6 ADD SWAP1 DUP5 JUMPDEST DUP2 DUP2 LT ISZERO PUSH2 0x5158 JUMPI DUP4 MLOAD DUP4 MSTORE SWAP3 DUP5 ADD SWAP3 SWAP2 DUP5 ADD SWAP2 PUSH1 0x1 ADD PUSH2 0x513C JUMP JUMPDEST POP SWAP1 SWAP7 SWAP6 POP POP POP POP POP POP JUMP JUMPDEST PUSH1 0x40 DUP2 ADD DUP2 DUP4 PUSH1 0x0 JUMPDEST PUSH1 0x2 DUP2 LT ISZERO PUSH2 0x518C JUMPI DUP2 MLOAD DUP4 MSTORE PUSH1 0x20 SWAP3 DUP4 ADD SWAP3 SWAP1 SWAP2 ADD SWAP1 PUSH1 0x1 ADD PUSH2 0x516D JUMP JUMPDEST POP POP POP SWAP3 SWAP2 POP POP JUMP JUMPDEST PUSH1 0x0 PUSH1 0x20 DUP3 MSTORE PUSH2 0x1B29 PUSH1 0x20 DUP4 ADD DUP5 PUSH2 0x50B4 JUMP JUMPDEST PUSH1 0x0 PUSH1 0x40 DUP3 MSTORE PUSH2 0x51BB PUSH1 0x40 DUP4 ADD DUP6 PUSH2 0x50B4 JUMP JUMPDEST DUP3 DUP2 SUB PUSH1 0x20 DUP5 ADD MSTORE PUSH2 0x28ED DUP2 DUP6 PUSH2 0x50B4 JUMP JUMPDEST SWAP1 ISZERO ISZERO DUP2 MSTORE PUSH1 0x20 ADD SWAP1 JUMP JUMPDEST SWAP3 ISZERO ISZERO DUP4 MSTORE PUSH1 0x20 DUP4 ADD SWAP2 SWAP1 SWAP2 MSTORE PUSH1 0x40 DUP3 ADD MSTORE PUSH1 0x60 ADD SWAP1 JUMP JUMPDEST SWAP1 DUP2 MSTORE PUSH1 0x20 ADD SWAP1 JUMP JUMPDEST SWAP7 DUP8 MSTORE PUSH1 0x20 DUP8 ADD SWAP6 SWAP1 SWAP6 MSTORE PUSH1 0x40 DUP7 ADD SWAP4 SWAP1 SWAP4 MSTORE PUSH1 0x60 DUP6 ADD SWAP2 SWAP1 SWAP2 MSTORE PUSH1 0x80 DUP5 ADD MSTORE PUSH1 0xA0 DUP4 ADD MSTORE PUSH1 0xC0 DUP3 ADD MSTORE PUSH1 0xE0 ADD SWAP1 JUMP JUMPDEST SWAP6 DUP7 MSTORE PUSH1 0x20 DUP7 ADD SWAP5 SWAP1 SWAP5 MSTORE PUSH1 0x40 DUP6 ADD SWAP3 SWAP1 SWAP3 MSTORE PUSH1 0x60 DUP5 ADD MSTORE ISZERO ISZERO PUSH1 0x80 DUP4 ADD MSTORE PUSH1 0xA0 DUP3 ADD MSTORE PUSH1 0xC0 ADD SWAP1 JUMP JUMPDEST DUP4 DUP2 MSTORE PUSH1 0x60 DUP2 ADD PUSH2 0x5267 PUSH1 0x20 DUP4 ADD DUP6 PUSH2 0x50EE JUMP JUMPDEST DUP3 PUSH1 0x40 DUP4 ADD MSTORE SWAP5 SWAP4 POP POP POP POP JUMP JUMPDEST DUP5 DUP2 MSTORE PUSH1 0x80 DUP2 ADD PUSH2 0x5289 PUSH1 0x20 DUP4 ADD DUP7 PUSH2 0x50EE JUMP JUMPDEST PUSH1 0x40 DUP3 ADD SWAP4 SWAP1 SWAP4 MSTORE PUSH1 0x60 ADD MSTORE SWAP3 SWAP2 POP POP JUMP JUMPDEST PUSH1 0x0 PUSH1 0xA0 DUP3 ADD SWAP1 POP DUP5 DUP3 MSTORE PUSH2 0x52B4 PUSH1 0x20 DUP4 ADD DUP6 MLOAD PUSH2 0x50EE JUMP JUMPDEST PUSH1 0x20 DUP5 ADD MLOAD PUSH1 0x40 DUP4 DUP2 ADD SWAP2 SWAP1 SWAP2 MSTORE SWAP1 SWAP4 ADD MLOAD PUSH1 0x60 DUP3 ADD MSTORE PUSH1 0x80 ADD MSTORE SWAP2 SWAP1 POP JUMP JUMPDEST PUSH1 0x0 PUSH1 0x20 DUP1 DUP4 MSTORE DUP4 MLOAD DUP1 DUP3 DUP6 ADD MSTORE DUP3 JUMPDEST DUP2 DUP2 LT ISZERO PUSH2 0x5300 JUMPI DUP6 DUP2 ADD DUP4 ADD MLOAD DUP6 DUP3 ADD PUSH1 0x40 ADD MSTORE DUP3 ADD PUSH2 0x52E4 JUMP JUMPDEST DUP2 DUP2 GT ISZERO PUSH2 0x5311 JUMPI DUP4 PUSH1 0x40 DUP4 DUP8 ADD ADD MSTORE JUMPDEST POP PUSH1 0x1F ADD PUSH1 0x1F NOT AND SWAP3 SWAP1 SWAP3 ADD PUSH1 0x40 ADD SWAP4 SWAP3 POP POP POP JUMP JUMPDEST DUP2 MLOAD ISZERO ISZERO DUP2 MSTORE PUSH1 0x20 DUP1 DUP4 ADD MLOAD PUSH1 0x1 PUSH1 0x1 PUSH1 0x78 SHL SUB AND SWAP1 DUP3 ADD MSTORE PUSH1 0x40 SWAP2 DUP3 ADD MLOAD PUSH1 0x1 PUSH1 0x1 PUSH1 0x80 SHL SUB AND SWAP2 DUP2 ADD SWAP2 SWAP1 SWAP2 MSTORE PUSH1 0x60 ADD SWAP1 JUMP JUMPDEST SWAP1 SLOAD PUSH1 0xFF DUP2 AND ISZERO ISZERO DUP3 MSTORE PUSH1 0x8 DUP2 SWAP1 SHR PUSH1 0x1 PUSH1 0x1 PUSH1 0x78 SHL SUB AND PUSH1 0x20 DUP4 ADD MSTORE PUSH1 0x80 SHR PUSH1 0x40 DUP3 ADD MSTORE PUSH1 0x60 ADD SWAP1 JUMP JUMPDEST PUSH1 0x0 DUP4 DUP3 MSTORE PUSH1 0x40 PUSH1 0x20 DUP4 ADD MSTORE PUSH2 0x25F6 PUSH1 0x40 DUP4 ADD DUP5 PUSH2 0x50B4 JUMP JUMPDEST SWAP3 DUP4 MSTORE PUSH1 0x20 DUP4 ADD SWAP2 SWAP1 SWAP2 MSTORE PUSH1 0x40 DUP3 ADD MSTORE PUSH1 0x60 ADD SWAP1 JUMP JUMPDEST PUSH1 0xFF SWAP2 SWAP1 SWAP2 AND DUP2 MSTORE PUSH1 0x20 ADD SWAP1 JUMP JUMPDEST PUSH1 0x40 MLOAD DUP2 DUP2 ADD PUSH1 0x1 PUSH1 0x1 PUSH1 0x40 SHL SUB DUP2 GT DUP3 DUP3 LT OR ISZERO PUSH2 0x53DF JUMPI INVALID JUMPDEST PUSH1 0x40 MSTORE SWAP2 SWAP1 POP JUMP JUMPDEST PUSH1 0x0 PUSH1 0x1 PUSH1 0x1 PUSH1 0x40 SHL SUB DUP3 GT ISZERO PUSH2 0x53FA JUMPI INVALID JUMPDEST POP PUSH1 0x20 SWAP1 DUP2 MUL ADD SWAP1 JUMP JUMPDEST PUSH1 0x1 PUSH1 0x1 PUSH1 0xA0 SHL SUB DUP2 AND DUP2 EQ PUSH2 0x840 JUMPI PUSH1 0x0 DUP1 REVERT INVALID LOG2 PUSH5 0x6970667358 0x22 SLT KECCAK256 0xC1 0xBD EXTCODECOPY DELEGATECALL 0xA6 PUSH7 0x9393E64AA4D972 0xC4 0x2F 0xD8 0xB3 0xD7 ADDRESS 0xE 0xC DUP9 0x2F NOT SLOAD 0xF7 ORIGIN 0xFC MLOAD 0x24 0x29 SELFBALANCE PUSH5 0x736F6C6343 STOP SMOD MOD STOP CALLER ","sha1":"a0d39083b6614ba6a1f3adfbd0d04e47b939304b","source":"// SPDX-License-Identifier: GPL-3.0-or-later\n// This program is free software: you can redistribute it and/or modify\n// it under the terms of the GNU General Public License as published by\n// the Free Software Foundation, either version 3 of the License, or\n// (at your option) any later version.\n\n// This program is distributed in the hope that it will be useful,\n// but WITHOUT ANY WARRANTY; without even the implied warranty of\n// MERCHANTABILITY or FITNESS FOR A PARTICULAR PURPOSE.  See the\n// GNU General Public License for more details.\n\n// You should have received a copy of the GNU General Public License\n// along with this program.  If not, see <http://www.gnu.org/licenses/>.\n\npragma solidity 0.7.6;\npragma experimental ABIEncoderV2;\n\n// import \"@balancer-labs/v2-solidity-utils/contracts/math/FixedPoint.sol\";\nimport \"../../libraries/GyroFixedPoint.sol\";\n\nimport \"@balancer-labs/v2-pool-weighted/contracts/WeightedPoolUserDataHelpers.sol\";\nimport \"@balancer-labs/v2-pool-weighted/contracts/WeightedPool2TokensMiscData.sol\";\n\nimport \"../../libraries/GyroConfigKeys.sol\";\nimport \"../../interfaces/IGyroConfig.sol\";\nimport \"../../libraries/GyroPoolMath.sol\";\nimport \"../../libraries/GyroErrors.sol\";\n\nimport \"../CappedLiquidity.sol\";\nimport \"../LocallyPausable.sol\";\nimport \"../ExtensibleWeightedPool2Tokens.sol\";\nimport \"./Gyro2CLPPoolErrors.sol\";\nimport \"./Gyro2CLPMath.sol\";\nimport \"./Gyro2CLPOracleMath.sol\";\n\ncontract Gyro2CLPPool is ExtensibleWeightedPool2Tokens, Gyro2CLPOracleMath, CappedLiquidity, LocallyPausable {\n    using GyroFixedPoint for uint256;\n    using WeightedPoolUserDataHelpers for bytes;\n    using WeightedPool2TokensMiscData for bytes32;\n\n    uint256 private immutable _sqrtAlpha;\n    uint256 private immutable _sqrtBeta;\n\n    IGyroConfig public gyroConfig;\n\n    struct GyroParams {\n        NewPoolParams baseParams;\n        uint256 sqrtAlpha; // A: Should already be upscaled\n        uint256 sqrtBeta; // A: Should already be upscaled. Could be passed as an array[](2)\n        address capManager;\n        CapParams capParams;\n        address pauseManager;\n    }\n\n    constructor(GyroParams memory params, address configAddress)\n        ExtensibleWeightedPool2Tokens(params.baseParams)\n        CappedLiquidity(params.capManager, params.capParams)\n        LocallyPausable(params.pauseManager)\n    {\n        _grequire(params.sqrtAlpha < params.sqrtBeta, Gyro2CLPPoolErrors.SQRT_PARAMS_WRONG);\n        _grequire(configAddress != address(0), GyroErrors.ZERO_ADDRESS);\n        _sqrtAlpha = params.sqrtAlpha;\n        _sqrtBeta = params.sqrtBeta;\n\n        gyroConfig = IGyroConfig(configAddress);\n    }\n\n    // Returns sqrtAlpha and sqrtBeta (square roots of lower and upper price bounds of p_x respectively)\n\n    function getSqrtParameters() external view returns (uint256[2] memory) {\n        return _sqrtParameters();\n    }\n\n    function _sqrtParameters() internal view virtual returns (uint256[2] memory virtualParameters) {\n        virtualParameters[0] = _sqrtParameters(true);\n        virtualParameters[1] = _sqrtParameters(false);\n        return virtualParameters;\n    }\n\n    function _sqrtParameters(bool parameter0) internal view virtual returns (uint256) {\n        return parameter0 ? _sqrtAlpha : _sqrtBeta;\n    }\n\n    /// @dev Returns virtual offsets a and b for reserves x and y respectively, as in (x+a)*(y+b)=L^2\n    function getVirtualParameters() external view returns (uint256[] memory virtualParams) {\n        (, uint256[] memory balances, ) = getVault().getPoolTokens(getPoolId());\n        // _calculateCurrentValues() is defined in terms of an in/out pair, but we just map this to the 0/1 (x/y) pair.\n        _upscaleArray(balances);\n        (, virtualParams[0], virtualParams[1]) = _calculateCurrentValues(balances[0], balances[1], true);\n    }\n\n    function _getVirtualParameters(uint256[2] memory sqrtParams, uint256 invariant)\n        internal\n        view\n        virtual\n        returns (uint256[2] memory virtualParameters)\n    {\n        virtualParameters[0] = _virtualParameters(true, sqrtParams[1], invariant);\n        virtualParameters[1] = _virtualParameters(false, sqrtParams[0], invariant);\n        return virtualParameters;\n    }\n\n    function _virtualParameters(\n        bool parameter0,\n        uint256 sqrtParam,\n        uint256 invariant\n    ) internal view virtual returns (uint256) {\n        return\n            parameter0\n                ? (Gyro2CLPMath._calculateVirtualParameter0(invariant, sqrtParam))\n                : (Gyro2CLPMath._calculateVirtualParameter1(invariant, sqrtParam));\n    }\n\n    /**\n     * @dev Returns the current value of the invariant.\n     */\n    function getInvariant() public view override returns (uint256) {\n        (, uint256[] memory balances, ) = getVault().getPoolTokens(getPoolId());\n        uint256[2] memory sqrtParams = _sqrtParameters();\n\n        // Since the Pool hooks always work with upscaled balances, we manually\n        // upscale here for consistency\n        _upscaleArray(balances);\n\n        return Gyro2CLPMath._calculateInvariant(balances, sqrtParams[0], sqrtParams[1]);\n    }\n\n    // Swap Hooks\n\n    function onSwap(\n        SwapRequest memory request,\n        uint256 balanceTokenIn,\n        uint256 balanceTokenOut\n    ) public virtual override whenNotPaused onlyVault(request.poolId) returns (uint256) {\n        bool tokenInIsToken0 = request.tokenIn == _token0;\n\n        uint256 scalingFactorTokenIn = _scalingFactor(tokenInIsToken0);\n        uint256 scalingFactorTokenOut = _scalingFactor(!tokenInIsToken0);\n\n        // All token amounts are upscaled.\n        balanceTokenIn = _upscale(balanceTokenIn, scalingFactorTokenIn);\n        balanceTokenOut = _upscale(balanceTokenOut, scalingFactorTokenOut);\n\n        // All the calculations in one function to avoid Error Stack Too Deep\n        (uint256 currentInvariant, uint256 virtualParamIn, uint256 virtualParamOut) = _calculateCurrentValues(\n            balanceTokenIn,\n            balanceTokenOut,\n            tokenInIsToken0\n        );\n\n        // Update price oracle with the pre-swap balances\n        _updateOracle(\n            request.lastChangeBlock,\n            tokenInIsToken0 ? balanceTokenIn : balanceTokenOut,\n            tokenInIsToken0 ? balanceTokenOut : balanceTokenIn,\n            tokenInIsToken0 ? virtualParamIn : virtualParamOut,\n            tokenInIsToken0 ? virtualParamOut : virtualParamIn\n        );\n\n        if (request.kind == IVault.SwapKind.GIVEN_IN) {\n            // Fees are subtracted before scaling, to reduce the complexity of the rounding direction analysis.\n            // This is amount - fee amount, so we round up (favoring a higher fee amount).\n            uint256 feeAmount = request.amount.mulUp(getSwapFeePercentage());\n            // TODO check this call: why do we need to upscale? Should we downscale??\n            request.amount = _upscale(request.amount.sub(feeAmount), scalingFactorTokenIn);\n\n            uint256 amountOut = _onSwapGivenIn(request, balanceTokenIn, balanceTokenOut, virtualParamIn, virtualParamOut);\n\n            // amountOut tokens are exiting the Pool, so we round down.\n            return _downscaleDown(amountOut, scalingFactorTokenOut);\n        } else {\n            request.amount = _upscale(request.amount, scalingFactorTokenOut);\n\n            uint256 amountIn = _onSwapGivenOut(request, balanceTokenIn, balanceTokenOut, virtualParamIn, virtualParamOut);\n\n            // amountIn tokens are entering the Pool, so we round up.\n            amountIn = _downscaleUp(amountIn, scalingFactorTokenIn);\n\n            // Fees are added after scaling happens, to reduce the complexity of the rounding direction analysis.\n            // This is amount + fee amount, so we round up (favoring a higher fee amount).\n            return amountIn.divUp(getSwapFeePercentage().complement());\n        }\n    }\n\n    function _onSwapGivenIn(\n        SwapRequest memory swapRequest,\n        uint256 currentBalanceTokenIn,\n        uint256 currentBalanceTokenOut,\n        uint256 virtualParamIn,\n        uint256 virtualParamOut\n    ) internal pure override returns (uint256) {\n        // Swaps are disabled while the contract is paused.\n        return Gyro2CLPMath._calcOutGivenIn(currentBalanceTokenIn, currentBalanceTokenOut, swapRequest.amount, virtualParamIn, virtualParamOut);\n    }\n\n    function _onSwapGivenOut(\n        SwapRequest memory swapRequest,\n        uint256 currentBalanceTokenIn,\n        uint256 currentBalanceTokenOut,\n        uint256 virtualParamIn,\n        uint256 virtualParamOut\n    ) internal pure override returns (uint256) {\n        // Swaps are disabled while the contract is paused.\n        return Gyro2CLPMath._calcInGivenOut(currentBalanceTokenIn, currentBalanceTokenOut, swapRequest.amount, virtualParamIn, virtualParamOut);\n    }\n\n    function calculateCurrentValues(\n        uint256 balanceTokenIn,\n        uint256 balanceTokenOut,\n        bool tokenInIsToken0\n    )\n        public\n        view\n        returns (\n            uint256 currentInvariant,\n            uint256 virtualParamIn,\n            uint256 virtualParamOut\n        )\n    {\n        uint256 scalingFactorTokenIn = _scalingFactor(tokenInIsToken0);\n        uint256 scalingFactorTokenOut = _scalingFactor(!tokenInIsToken0);\n        balanceTokenIn = _upscale(balanceTokenIn, scalingFactorTokenIn);\n        balanceTokenOut = _upscale(balanceTokenOut, scalingFactorTokenOut);\n        return _calculateCurrentValues(balanceTokenIn, balanceTokenOut, tokenInIsToken0);\n    }\n\n    function _calculateCurrentValues(\n        uint256 balanceTokenIn,\n        uint256 balanceTokenOut,\n        bool tokenInIsToken0\n    )\n        internal\n        view\n        returns (\n            uint256 currentInvariant,\n            uint256 virtualParamIn,\n            uint256 virtualParamOut\n        )\n    {\n        // if we have more tokens we might need to get the balances from the Vault\n        uint256[] memory balances = new uint256[](2);\n        balances[0] = tokenInIsToken0 ? balanceTokenIn : balanceTokenOut;\n        balances[1] = tokenInIsToken0 ? balanceTokenOut : balanceTokenIn;\n\n        uint256[2] memory sqrtParams = _sqrtParameters();\n\n        currentInvariant = Gyro2CLPMath._calculateInvariant(balances, sqrtParams[0], sqrtParams[1]);\n\n        uint256[2] memory virtualParam = _getVirtualParameters(sqrtParams, currentInvariant);\n\n        virtualParamIn = tokenInIsToken0 ? virtualParam[0] : virtualParam[1];\n        virtualParamOut = tokenInIsToken0 ? virtualParam[1] : virtualParam[0];\n    }\n\n    //Note: is public visibility ok for the following function?\n\n    /**\n     * @dev Called when the Pool is joined for the first time; that is, when the BPT total supply is zero.\n     *\n     * Returns the amount of BPT to mint, and the token amounts the Pool will receive in return.\n     *\n     * Minted BPT will be sent to `recipient`, except for _MINIMUM_BPT, which will be deducted from this amount and sent\n     * to the zero address instead. This will cause that BPT to remain forever locked there, preventing total BTP from\n     * ever dropping below that value, and ensuring `_onInitializePool` can only be called once in the entire Pool's\n     * lifetime.\n     *\n     * The tokens granted to the Pool will be transferred from `sender`. These amounts are considered upscaled and will\n     * be downscaled (rounding up) before being returned to the Vault.\n     */\n    function _onInitializePool(\n        bytes32,\n        address,\n        address,\n        bytes memory userData\n    ) internal override returns (uint256, uint256[] memory) {\n        BaseWeightedPool.JoinKind kind = userData.joinKind();\n        _require(kind == BaseWeightedPool.JoinKind.INIT, Errors.UNINITIALIZED);\n\n        uint256[] memory amountsIn = userData.initialAmountsIn();\n        InputHelpers.ensureInputLengthMatch(amountsIn.length, 2);\n        _upscaleArray(amountsIn);\n\n        uint256[2] memory sqrtParams = _sqrtParameters();\n\n        uint256 invariantAfterJoin = Gyro2CLPMath._calculateInvariant(amountsIn, sqrtParams[0], sqrtParams[1]);\n\n        // Set the initial BPT to the value of the invariant times the number of tokens. This makes BPT supply more\n        // consistent in Pools with similar compositions but different number of tokens.\n\n        uint256 bptAmountOut = Math.mul(invariantAfterJoin, 2);\n\n        _lastInvariant = invariantAfterJoin;\n\n        return (bptAmountOut, amountsIn);\n    }\n\n    /**\n     * @dev Called whenever the Pool is joined after the first initialization join (see `_onInitializePool`).\n     *\n     * Returns the amount of BPT to mint, the token amounts that the Pool will receive in return, and the number of\n     * tokens to pay in protocol swap fees.\n     *\n     * Implementations of this function might choose to mutate the `balances` array to save gas (e.g. when\n     * performing intermediate calculations, such as subtraction of due protocol fees). This can be done safely.\n     *\n     * Minted BPT will be sent to `recipient`.\n     *\n     * The tokens granted to the Pool will be transferred from `sender`. These amounts are considered upscaled and will\n     * be downscaled (rounding up) before being returned to the Vault.\n     *\n     * Due protocol swap fees will be taken from the Pool's balance in the Vault (see `IBasePool.onJoinPool`). These\n     * amounts are considered upscaled and will be downscaled (rounding down) before being returned to the Vault.\n     *\n     * protocolSwapFeePercentage argument is intentionally unused as protocol fees are handled in a different way\n     *\n     * Responsibility for updating the oracle has been moved from `onJoinPool()` (without the underscore) to this function. That is because both this function and `_updateOracle()` need access to the invariant and this way we can share the computation.\n     */\n    function _onJoinPool(\n        bytes32,\n        address,\n        address recipient,\n        uint256[] memory balances,\n        uint256 lastChangeBlock,\n        uint256, //protocolSwapFeePercentage,\n        bytes memory userData\n    )\n        internal\n        override\n        returns (\n            uint256,\n            uint256[] memory,\n            uint256[] memory\n        )\n    {\n        uint256[2] memory sqrtParams = _sqrtParameters();\n\n        // Due protocol swap fee amounts are computed by measuring the growth of the invariant between the previous\n        // join or exit event and now - the invariant's growth is due exclusively to swap fees. This avoids\n        // spending gas calculating the fees on each individual swap.\n        uint256 invariantBeforeAction = Gyro2CLPMath._calculateInvariant(balances, sqrtParams[0], sqrtParams[1]);\n        uint256[2] memory virtualParam = _getVirtualParameters(sqrtParams, invariantBeforeAction);\n\n        // Update price oracle with pre-join balances\n        _updateOracle(lastChangeBlock, balances[0], balances[1], virtualParam[0], virtualParam[1]);\n\n        _distributeFees(invariantBeforeAction);\n\n        (uint256 bptAmountOut, uint256[] memory amountsIn) = _doJoin(balances, userData);\n\n        if (_capParams.capEnabled) {\n            _ensureCap(bptAmountOut, balanceOf(recipient), totalSupply());\n        }\n\n        // Since we pay fees in BPT, they have not changed the invariant and 'invariantBeforeAction' is still consistent with\n        // 'balances'. Therefore, we can use a simplified method to update the invariant that does not require a full\n        // re-computation.\n        // Note: Should this be changed in the future, we also need to reduce the invariant proportionally by the total\n        // protocol fee factor.\n        _lastInvariant = GyroPoolMath.liquidityInvariantUpdate(invariantBeforeAction, bptAmountOut, totalSupply(), true);\n\n        // returns a new uint256[](2) b/c Balancer vault is expecting a fee array, but fees paid in BPT instead\n        return (bptAmountOut, amountsIn, new uint256[](2));\n    }\n\n    function _doJoin(uint256[] memory balances, bytes memory userData) internal view returns (uint256 bptAmountOut, uint256[] memory amountsIn) {\n        BaseWeightedPool.JoinKind kind = userData.joinKind();\n\n        // We do NOT currently support unbalanced update, i.e., EXACT_TOKENS_IN_FOR_BPT_OUT or TOKEN_IN_FOR_EXACT_BPT_OUT\n        if (kind == BaseWeightedPool.JoinKind.ALL_TOKENS_IN_FOR_EXACT_BPT_OUT) {\n            (bptAmountOut, amountsIn) = _joinAllTokensInForExactBPTOut(balances, userData);\n        } else {\n            _revert(Errors.UNHANDLED_JOIN_KIND);\n        }\n    }\n\n    function _joinAllTokensInForExactBPTOut(uint256[] memory balances, bytes memory userData)\n        internal\n        view\n        override\n        returns (uint256, uint256[] memory)\n    {\n        uint256 bptAmountOut = userData.allTokensInForExactBptOut();\n        // Note that there is no maximum amountsIn parameter: this is handled by `IVault.joinPool`.\n\n        uint256[] memory amountsIn = GyroPoolMath._calcAllTokensInGivenExactBptOut(balances, bptAmountOut, totalSupply());\n\n        return (bptAmountOut, amountsIn);\n    }\n\n    /**\n     * @dev Called whenever the Pool is exited.\n     *\n     * Returns the amount of BPT to burn, the token amounts for each Pool token that the Pool will grant in return, and\n     * the number of tokens to pay in protocol swap fees.\n     *\n     * Implementations of this function might choose to mutate the `balances` array to save gas (e.g. when\n     * performing intermediate calculations, such as subtraction of due protocol fees). This can be done safely.\n     *\n     * BPT will be burnt from `sender`.\n     *\n     * The Pool will grant tokens to `recipient`. These amounts are considered upscaled and will be downscaled\n     * (rounding down) before being returned to the Vault.\n     *\n     * Due protocol swap fees will be taken from the Pool's balance in the Vault (see `IBasePool.onExitPool`). These\n     * amounts are considered upscaled and will be downscaled (rounding down) before being returned to the Vault.\n     *\n     * protocolSwapFeePercentage argument is intentionally unused as protocol fees are handled in a different way\n     */\n    function _onExitPool(\n        bytes32,\n        address,\n        address,\n        uint256[] memory balances,\n        uint256 lastChangeBlock,\n        uint256, // protocolSwapFeePercentage,\n        bytes memory userData\n    )\n        internal\n        override\n        returns (\n            uint256 bptAmountIn,\n            uint256[] memory amountsOut,\n            uint256[] memory dueProtocolFeeAmounts\n        )\n    {\n        // Exits are not completely disabled while the contract is paused: proportional exits (exact BPT in for tokens\n        // out) remain functional.\n\n        uint256[2] memory sqrtParams = _sqrtParameters();\n\n        // Note: If the contract is paused, swap protocol fee amounts are not charged and the oracle is not updated\n        // to avoid extra calculations and reduce the potential for errors.\n        if (_isNotPaused()) {\n            // Due protocol swap fee amounts are computed by measuring the growth of the invariant between the previous\n            // join or exit event and now - the invariant's growth is due exclusively to swap fees. This avoids\n            // spending gas calculating the fees on each individual swap.\n            uint256 invariantBeforeAction = Gyro2CLPMath._calculateInvariant(balances, sqrtParams[0], sqrtParams[1]);\n            uint256[2] memory virtualParam = _getVirtualParameters(sqrtParams, invariantBeforeAction);\n\n            // Update price oracle with the pre-exit balances\n            _updateOracle(lastChangeBlock, balances[0], balances[1], virtualParam[0], virtualParam[1]);\n\n            _distributeFees(invariantBeforeAction);\n\n            (bptAmountIn, amountsOut) = _doExit(balances, userData);\n\n            // Since we pay fees in BPT, they have not changed the invariant and 'invariantBeforeAction' is still consistent with\n            // 'balances'. Therefore, we can use a simplified method to update the invariant that does not require a full\n            // re-computation.\n            // Note: Should this be changed in the future, we also need to reduce the invariant proportionally by the total\n            // protocol fee factor.\n            _lastInvariant = GyroPoolMath.liquidityInvariantUpdate(invariantBeforeAction, bptAmountIn, totalSupply(), false);\n        } else {\n            // Note: If the contract is paused, swap protocol fee amounts are not charged and the oracle is not updated\n            // to avoid extra calculations and reduce the potential for errors.\n            (bptAmountIn, amountsOut) = _doExit(balances, userData);\n\n            // Invalidate _lastInvariant. We do not compute the invariant to make sure the pool is not locking\n            // up b/c numerical limits might be violated. Instead, we set the invariant such that any following\n            // (non-paused) join/exit will ignore and recompute it. (see GyroPoolMath._calcProtocolFees())\n            _lastInvariant = type(uint256).max;\n        }\n\n        // returns a new uint256[](2) b/c Balancer vault is expecting a fee array, but fees paid in BPT instead\n        return (bptAmountIn, amountsOut, new uint256[](2));\n    }\n\n    function _doExit(uint256[] memory balances, bytes memory userData) internal view returns (uint256 bptAmountIn, uint256[] memory amountsOut) {\n        BaseWeightedPool.ExitKind kind = userData.exitKind();\n\n        // We do NOT support unbalanced exit at the moment, i.e., EXACT_BPT_IN_FOR_ONE_TOKEN_OUT or\n        // BPT_IN_FOR_EXACT_TOKENS_OUT.\n        if (kind == BaseWeightedPool.ExitKind.EXACT_BPT_IN_FOR_TOKENS_OUT) {\n            (bptAmountIn, amountsOut) = _exitExactBPTInForTokensOut(balances, userData);\n        } else {\n            _revert(Errors.UNHANDLED_EXIT_KIND);\n        }\n    }\n\n    function _exitExactBPTInForTokensOut(uint256[] memory balances, bytes memory userData)\n        internal\n        view\n        override\n        returns (uint256, uint256[] memory)\n    {\n        // This exit function is the only one that is not disabled if the contract is paused: it remains unrestricted\n        // in an attempt to provide users with a mechanism to retrieve their tokens in case of an emergency.\n        // This particular exit function is the only one that remains available because it is the simplest one, and\n        // therefore the one with the lowest likelihood of errors.\n\n        uint256 bptAmountIn = userData.exactBptInForTokensOut();\n        // Note that there is no minimum amountOut parameter: this is handled by `IVault.exitPool`.\n\n        uint256[] memory amountsOut = GyroPoolMath._calcTokensOutGivenExactBptIn(balances, bptAmountIn, totalSupply());\n        return (bptAmountIn, amountsOut);\n    }\n\n    // Helpers\n\n    /**\n     * @dev Computes and distributes fees between the Balancer and the Gyro treasury\n     * The fees are computed and distributed in BPT rather than using the\n     * Balancer regular distribution mechanism which would pay these in underlying\n     */\n\n    function _distributeFees(uint256 invariantBeforeAction) internal {\n        // calculate Protocol fees in BPT\n        // lastInvariant is the invariant logged at the end of the last liquidity update\n        // protocol fees are calculated on swap fees earned between liquidity updates\n        (uint256 gyroFees, uint256 balancerFees, address gyroTreasury, address balTreasury) = _getDueProtocolFeeAmounts(\n            _lastInvariant,\n            invariantBeforeAction\n        );\n\n        // Pay fees in BPT\n        _payFeesBpt(gyroFees, balancerFees, gyroTreasury, balTreasury);\n    }\n\n    /**\n     * @dev this function overrides inherited function to make sure it is never used\n     */\n    function _getDueProtocolFeeAmounts(\n        uint256[] memory, // balances,\n        uint256[] memory, // normalizedWeights,\n        uint256, // previousInvariant,\n        uint256, // currentInvariant,\n        uint256 // protocolSwapFeePercentage\n    ) internal pure override returns (uint256[] memory) {\n        revert(\"Not implemented\");\n    }\n\n    /**\n     * @dev Calculates protocol fee amounts in BPT terms.\n     * protocolSwapFeePercentage is not used here b/c we take parameters from GyroConfig instead.\n     * Returns: BPT due to Gyro, BPT due to Balancer, receiving address for Gyro fees, receiving address for Balancer\n     * fees.\n     */\n    function _getDueProtocolFeeAmounts(uint256 previousInvariant, uint256 currentInvariant)\n        internal\n        view\n        returns (\n            uint256,\n            uint256,\n            address,\n            address\n        )\n    {\n        (uint256 protocolSwapFeePerc, uint256 protocolFeeGyroPortion, address gyroTreasury, address balTreasury) = _getFeesMetadata();\n\n        // Early return if the protocol swap fee percentage is zero, saving gas.\n        if (protocolSwapFeePerc == 0) {\n            return (0, 0, gyroTreasury, balTreasury);\n        }\n\n        // Calculate fees in BPT\n        (uint256 gyroFees, uint256 balancerFees) = GyroPoolMath._calcProtocolFees(\n            previousInvariant,\n            currentInvariant,\n            totalSupply(),\n            protocolSwapFeePerc,\n            protocolFeeGyroPortion\n        );\n\n        return (gyroFees, balancerFees, gyroTreasury, balTreasury);\n    }\n\n    function _payFeesBpt(\n        uint256 gyroFees,\n        uint256 balancerFees,\n        address gyroTreasury,\n        address balTreasury\n    ) internal {\n        // Pay fees in BPT to gyro treasury\n        if (gyroFees > 0) {\n            _mintPoolTokens(gyroTreasury, gyroFees);\n        }\n        // Pay fees in BPT to bal treasury\n        if (balancerFees > 0) {\n            _mintPoolTokens(balTreasury, balancerFees);\n        }\n    }\n\n    function _getFeesMetadata()\n        internal\n        view\n        returns (\n            uint256,\n            uint256,\n            address,\n            address\n        )\n    {\n        return (\n            gyroConfig.getUint(GyroConfigKeys.PROTOCOL_SWAP_FEE_PERC_KEY),\n            gyroConfig.getUint(GyroConfigKeys.PROTOCOL_FEE_GYRO_PORTION_KEY),\n            gyroConfig.getAddress(GyroConfigKeys.GYRO_TREASURY_KEY),\n            gyroConfig.getAddress(GyroConfigKeys.BAL_TREASURY_KEY)\n        );\n    }\n\n    /**\n     * @dev Updates the Price Oracle based on the Pool's current state (balances, BPT supply and invariant). Must be\n     * called on *all* state-changing functions with the balances *before* the state change happens, and with\n     * `lastChangeBlock` as the number of the block in which any of the balances last changed.\n     */\n    function _updateOracle(\n        uint256 lastChangeBlock,\n        uint256 balanceToken0,\n        uint256 balanceToken1,\n        uint256 virtualParam0,\n        uint256 virtualParam1\n    ) internal {\n        bytes32 miscData = _miscData;\n        if (miscData.oracleEnabled() && block.number > lastChangeBlock) {\n            int256 logSpotPrice = Gyro2CLPOracleMath._calcLogSpotPrice(balanceToken0, virtualParam0, balanceToken1, virtualParam1);\n\n            int256 logBPTPrice = Gyro2CLPOracleMath._calcLogBPTPrice(\n                balanceToken0,\n                virtualParam0,\n                balanceToken1,\n                virtualParam1,\n                miscData.logTotalSupply()\n            );\n\n            uint256 oracleCurrentIndex = miscData.oracleIndex();\n            uint256 oracleCurrentSampleInitialTimestamp = miscData.oracleSampleCreationTimestamp();\n            uint256 oracleUpdatedIndex = _processPriceData(\n                oracleCurrentSampleInitialTimestamp,\n                oracleCurrentIndex,\n                logSpotPrice,\n                logBPTPrice,\n                miscData.logInvariant()\n            );\n\n            if (oracleCurrentIndex != oracleUpdatedIndex) {\n                // solhint-disable not-rely-on-time\n                miscData = miscData.setOracleIndex(oracleUpdatedIndex);\n                miscData = miscData.setOracleSampleCreationTimestamp(block.timestamp);\n                _miscData = miscData;\n            }\n        }\n    }\n\n    /**\n     * @dev this variant of the function, called from `onJoinPool()` and `onExitPool()`, which we inherit, is a no-op. We instead have moved responsibility for updating the oracle to `_onJoinPool()` and `_onExitPool()` and the above version is called from there.\n     */\n    function _updateOracle(\n        uint256 lastChangeBlock,\n        uint256 balanceToken0,\n        uint256 balanceToken1\n    ) internal override {\n        // Do nothing.\n    }\n\n    function _setPausedState(bool paused) internal override {\n        _setPaused(paused);\n    }\n}\n","sourcePath":"contracts/2clp/Gyro2CLPPool.sol","type":"contract","deployment":{"address":"0x3841eE752AE02B3E4260d064621902de1F1Eac46","chainid":"137","blockHeight":31809523}}