{"abi":[{"inputs":[{"internalType":"contract IVault","name":"vault","type":"address"},{"internalType":"address","name":"_gyroConfigAddress","type":"address"}],"stateMutability":"nonpayable","type":"constructor","name":"constructor"},{"anonymous":false,"inputs":[{"indexed":true,"internalType":"address","name":"pool","type":"address"}],"name":"PoolCreated","type":"event"},{"inputs":[],"name":"BUFFER_PERIOD_DURATION","outputs":[{"internalType":"uint256","name":"","type":"uint256"}],"stateMutability":"view","type":"function"},{"inputs":[],"name":"PAUSE_WINDOW_DURATION","outputs":[{"internalType":"uint256","name":"","type":"uint256"}],"stateMutability":"view","type":"function"},{"inputs":[{"internalType":"string","name":"name","type":"string"},{"internalType":"string","name":"symbol","type":"string"},{"internalType":"contract IERC20[]","name":"tokens","type":"address[]"},{"components":[{"internalType":"int256","name":"alpha","type":"int256"},{"internalType":"int256","name":"beta","type":"int256"},{"internalType":"int256","name":"c","type":"int256"},{"internalType":"int256","name":"s","type":"int256"},{"internalType":"int256","name":"lambda","type":"int256"}],"internalType":"struct GyroECLPMath.Params","name":"eclpParams","type":"tuple"},{"components":[{"components":[{"internalType":"int256","name":"x","type":"int256"},{"internalType":"int256","name":"y","type":"int256"}],"internalType":"struct GyroECLPMath.Vector2","name":"tauAlpha","type":"tuple"},{"components":[{"internalType":"int256","name":"x","type":"int256"},{"internalType":"int256","name":"y","type":"int256"}],"internalType":"struct GyroECLPMath.Vector2","name":"tauBeta","type":"tuple"},{"internalType":"int256","name":"u","type":"int256"},{"internalType":"int256","name":"v","type":"int256"},{"internalType":"int256","name":"w","type":"int256"},{"internalType":"int256","name":"z","type":"int256"},{"internalType":"int256","name":"dSq","type":"int256"}],"internalType":"struct GyroECLPMath.DerivedParams","name":"derivedECLPParams","type":"tuple"},{"internalType":"uint256","name":"swapFeePercentage","type":"uint256"},{"internalType":"bool","name":"oracleEnabled","type":"bool"},{"internalType":"address","name":"owner","type":"address"},{"internalType":"address","name":"capManager","type":"address"},{"components":[{"internalType":"bool","name":"capEnabled","type":"bool"},{"internalType":"uint120","name":"perAddressCap","type":"uint120"},{"internalType":"uint128","name":"globalCap","type":"uint128"}],"internalType":"struct ICappedLiquidity.CapParams","name":"capParams","type":"tuple"},{"internalType":"address","name":"pauseManager","type":"address"}],"name":"create","outputs":[{"internalType":"address","name":"","type":"address"}],"stateMutability":"nonpayable","type":"function"},{"inputs":[],"name":"getCreationCode","outputs":[{"internalType":"bytes","name":"","type":"bytes"}],"stateMutability":"view","type":"function"},{"inputs":[],"name":"getCreationCodeContracts","outputs":[{"internalType":"address","name":"contractA","type":"address"},{"internalType":"address","name":"contractB","type":"address"}],"stateMutability":"view","type":"function"},{"inputs":[],"name":"getPauseConfiguration","outputs":[{"internalType":"uint256","name":"pauseWindowDuration","type":"uint256"},{"internalType":"uint256","name":"bufferPeriodDuration","type":"uint256"}],"stateMutability":"view","type":"function"},{"inputs":[],"name":"getVault","outputs":[{"internalType":"contract IVault","name":"","type":"address"}],"stateMutability":"view","type":"function"},{"inputs":[],"name":"gyroConfigAddress","outputs":[{"internalType":"address","name":"","type":"address"}],"stateMutability":"view","type":"function"},{"inputs":[{"internalType":"address","name":"pool","type":"address"}],"name":"isPoolFromFactory","outputs":[{"internalType":"bool","name":"","type":"bool"}],"stateMutability":"view","type":"function"}],"bytecode":"6101606040523480156200001257600080fd5b506040516200858b3803806200858b83398101604081905262000035916200028a565b816040518060200162000048906200027c565b601f1982820381018352601f909101166040528051819060006002820460a081905280830360e081905281855290915083620000908162000139602090811b6200034717901c565b60601b6001600160601b0319166080528285018051838252620000bf8262000139602090811b6200034717901c565b6001600160601b0319606091821b811660c0529690935290529590951b90911661010052505050426276a700016101205250620001096001600160a01b038216151560696200018d565b620001216001600160a01b038316151560696200018d565b60601b6001600160601b0319166101405250620002de565b80517f602038038060206000396000f3fefefefefefefefefefefefefefefefefefefe808352600091602081018484f09084529150620001876001600160a01b03831615156101ac620001a2565b50919050565b816200019e576200019e81620001b3565b5050565b816200019e576200019e81620001c8565b620001c5816223aca960e91b6200021b565b50565b62461bcd60e51b6000908152602060045260076024526642414c23000030600a808404818106603090810160081b95839006959095019082900491820690940160101b939093010160c81b604452606490fd5b62461bcd60e51b600090815260206004526007602452600a808404818106603090810160081b958390069590950190829004918206850160101b01602363ffffff0060e086901c160160181b0190930160c81b60445260e882901c90606490fd5b61742c806200115f83390190565b600080604083850312156200029d578182fd5b8251620002aa81620002c8565b6020840151909250620002bd81620002c8565b809150509250929050565b6001600160a01b0381168114620001c557600080fd5b60805160601c60a05160c05160601c60e0516101005160601c610120516101405160601c610e0d620003526000398061016f528061029d5250806101dd528061020652508061031e5250806103a15250806101b4528061041d5250806103c252508061019352806103f95250610e0d6000f3fe608060405234801561001057600080fd5b50600436106100925760003560e01c8063353718191161006657806335371819146100f657806345be0bd4146101095780636634b7531461011e5780638d928af81461013e578063d14646861461014657610092565b8062c194db146100975780630bc7b4c4146100b5578063174481fa146100ca5780632da47c40146100e0575b600080fd5b61009f61014e565b6040516100ac9190610c27565b60405180910390f35b6100bd61016d565b6040516100ac9190610bee565b6100d2610191565b6040516100ac929190610c02565b6100e86101d7565b6040516100ac929190610d8d565b6100bd6101043660046109c1565b610241565b6101116102f3565b6040516100ac9190610d84565b61013161012c3660046109a5565b6102fa565b6040516100ac9190610c1c565b6100bd61031c565b610111610340565b606061016860405180602001604052806000815250610399565b905090565b7f000000000000000000000000000000000000000000000000000000000000000081565b7f00000000000000000000000000000000000000000000000000000000000000007f00000000000000000000000000000000000000000000000000000000000000009091565b600080427f000000000000000000000000000000000000000000000000000000000000000081101561023357807f000000000000000000000000000000000000000000000000000000000000000003925062278d00915061023c565b60009250600091505b509091565b6000806102528d8d8d8b8b8b610472565b905060006040518060c001604052808381526020018c81526020018b8152602001876001600160a01b03168152602001868152602001856001600160a01b031681525090506102e1817f00000000000000000000000000000000000000000000000000000000000000006040516020016102cd929190610c3a565b604051602081830303815290604052610527565b9e9d5050505050505050505050505050565b6276a70081565b6001600160a01b03811660009081526020819052604090205460ff165b919050565b7f000000000000000000000000000000000000000000000000000000000000000090565b62278d0081565b80517f602038038060206000396000f3fefefefefefefefefefefefefefefefefefefe808352600091602081018484f090845291506103936001600160a01b03831615156101ac610587565b50919050565b8051604080517f00000000000000000000000000000000000000000000000000000000000000007f0000000000000000000000000000000000000000000000000000000000000000818101858101848101602090810190965280855293957f00000000000000000000000000000000000000000000000000000000000000009592947f000000000000000000000000000000000000000000000000000000000000000094938801866000828a3c846000888301883c5060208981019089850101610464818386610599565b505050505050505050919050565b61047a610664565b60405180610140016040528061048e61031c565b6001600160a01b03168152602001888152602001878152602001866000815181106104b557fe5b60200260200101516001600160a01b03168152602001866001815181106104d857fe5b60200260200101516001600160a01b031681526020018581526020016276a700815260200162278d0081526020018415158152602001836001600160a01b031681525090509695505050505050565b600080610533836105d7565b6001600160a01b038116600081815260208190526040808220805460ff191660011790555192935090917f83a48fbcfc991335314e74d0496aab6a1987e992ddc85dddbcc4d6dd6ef2e9fc9190a292915050565b816105955761059581610611565b5050565b5b602081106105b9578151835260209283019290910190601f190161059a565b905182516020929092036101000a6000190180199091169116179052565b6000806105e383610399565b905060008151602083016000f090506001600160a01b03811661060a573d6000803e3d6000fd5b9392505050565b62461bcd60e51b6000908152602060045260076024526642414c23000030600a808404818106603090810160081b95839006959095019082900491820690940160101b939093010160c81b604452606490fd5b60405180610140016040528060006001600160a01b03168152602001606081526020016060815260200160006001600160a01b0316815260200160006001600160a01b0316815260200160008152602001600081526020016000815260200160001515815260200160006001600160a01b031681525090565b803561031781610dbf565b600082601f8301126106f8578081fd5b8135602067ffffffffffffffff82111561070e57fe5b80820261071c828201610d9b565b838152828101908684018388018501891015610736578687fd5b8693505b8584101561076157803561074d81610dbf565b83526001939093019291840191840161073a565b50979650505050505050565b8035801515811461031757600080fd5b600082601f83011261078d578081fd5b813567ffffffffffffffff8111156107a157fe5b6107b4601f8201601f1916602001610d9b565b8181528460208386010111156107c8578283fd5b816020850160208301379081016020019190915292915050565b6000606082840312156107f3578081fd5b6040516060810181811067ffffffffffffffff8211171561081057fe5b60405290508061081f8361076d565b815260208301356001600160781b038116811461083b57600080fd5b602082015260408301356001600160801b038116811461085a57600080fd5b6040919091015292915050565b60006101208284031215610879578081fd5b60405160e0810181811067ffffffffffffffff8211171561089657fe5b6040529050806108a6848461095d565b81526108b5846040850161095d565b60208201526080830135604082015260a0830135606082015260c0830135608082015260e083013560a082015261010083013560c08201525092915050565b600060a08284031215610905578081fd5b60405160a0810181811067ffffffffffffffff8211171561092257fe5b806040525080915082358152602083013560208201526040830135604082015260608301356060820152608083013560808201525092915050565b60006040828403121561096e578081fd5b6040516040810181811067ffffffffffffffff8211171561098b57fe5b604052823581526020928301359281019290925250919050565b6000602082840312156109b6578081fd5b813561060a81610dbf565b60008060008060008060008060008060006103208c8e0312156109e2578687fd5b67ffffffffffffffff808d3511156109f8578788fd5b610a058e8e358f0161077d565b9b508060208e01351115610a17578788fd5b610a278e60208f01358f0161077d565b9a508060408e01351115610a39578788fd5b50610a4a8d60408e01358e016106e8565b9850610a598d60608e016108f4565b9750610a698d6101008e01610867565b96506102208c01359550610a806102408d0161076d565b9450610a8f6102608d016106dd565b9350610a9e6102808d016106dd565b9250610aae8d6102a08e016107e2565b9150610abd6103008d016106dd565b90509295989b509295989b9093969950565b6001600160a01b03169052565b15159052565b60008151808452815b81811015610b0757602081850181015186830182015201610aeb565b81811115610b185782602083870101525b50601f01601f19169290920160200192915050565b8051151582526020808201516001600160781b0316908301526040908101516001600160801b0316910152565b610b65828251610bdf565b6020810151610b776040840182610bdf565b5060408101516080830152606081015160a0830152608081015160c083015260a081015160e083015260c08101516101008301525050565b80518252602081015160208301526040810151604083015260608101516060830152608081015160808301525050565b80518252602090810151910152565b6001600160a01b0391909116815260200190565b6001600160a01b0392831681529116602082015260400190565b901515815260200190565b60006020825261060a6020830184610ae2565b60006040825283516102806040840152610c596102c084018251610acf565b60208101516101406102e0850152610c75610400850182610ae2565b905060408201516102bf1985830301610300860152610c948282610ae2565b9150506060820151610caa610320860182610acf565b506080820151610cbe610340860182610acf565b5060a082015161036085015260c082015161038085015260e08201516103a085015261010080830151610cf56103c0870182610adc565b506101208301519250610d0c6103e0860184610acf565b60208701519250610d206060860184610baf565b60408701519250610d3381860184610b5a565b5060608601519150610d49610220850183610acf565b60808601519150610d5e610240850183610b2d565b60a08601519150610d736102a0850183610acf565b915061060a90506020830184610acf565b90815260200190565b918252602082015260400190565b60405181810167ffffffffffffffff81118282101715610db757fe5b604052919050565b6001600160a01b0381168114610dd457600080fd5b5056fea264697066735822122064946d422647033809bd5fc281a049fa404da5b80126b7fd3a793439e0012ef464736f6c634300070600336104606040527f6e71edae12b1b97f4d1f60370fef10105fa2faae0126114a169c64845d6126c9610120526706f05b59d3b20000610200819052610220526000610240523480156200005057600080fd5b506040516200742c3803806200742c833981016040819052620000739162001022565b8160a001518260600151836080015184600001518060c001518160e001518260200151836040015184600001518280604051806040016040528060018152602001603160f81b81525085858a6101200151336001600160a01b031660001b806080818152505050806001600160a01b031660a0816001600160a01b031660601b815250505081600390805190602001906200011092919062000c02565b5080516200012690600490602084019062000c02565b505060058054601260ff1990911617905550815160209283012060c052805191012060e052507f8b73c3c69bb8fe3d512ecc4cf759cc79239f7b179b0ffacaa9a75d522b39400f6101005260601b6001600160601b03191661014052506200019990506276a700831115610194620006b6565b620001ad62278d00821115610195620006b6565b42919091016101608190520161018052604080516002808252606082018352600092602083019080368337019050509050816060015181600081518110620001f157fe5b60200260200101906001600160a01b031690816001600160a01b0316815250508160800151816001815181106200022457fe5b60200260200101906001600160a01b031690816001600160a01b0316815250506200025a81620006cb60201b62001e931760201c565b6101008201516200026b90620006d7565b60a08201516200027b9062000733565b81516040516309b2760f60e01b81526000916001600160a01b0316906309b2760f90620002ae90600290600401620011e5565b602060405180830381600087803b158015620002c957600080fd5b505af1158015620002de573d6000803e3d6000fd5b505050506040513d601f19601f8201168201806040525081019062000304919062001009565b83516040805160028082526060820183529394506001600160a01b03909216926366a9c7d2928592879290602083019080368337019050506040518463ffffffff1660e01b81526004016200035c939291906200114b565b600060405180830381600087803b1580156200037757600080fd5b505af11580156200038c573d6000803e3d6000fd5b5050506101a082905250606080840180516001600160601b031990831b81166101c052608086015190921b9091166101e05251620003ca90620007b1565b610260526080830151620003de90620007b1565b61028052505060408051808201909152600e81526d1b9bdd08185d5d1a1bdc9a5e995960921b602082015290506001600160a01b0383166200043e5760405162461bcd60e51b8152600401620004359190620011fa565b60405180910390fd5b50600c80546001600160a01b0319166001600160a01b039384161790558051600b8054602084015160409094015160ff1990911692151592909217610100600160801b0319166101006001600160781b0390941693909302929092176001600160801b03908116600160801b9190921602179055620004c39082161515606962000855565b600d80546001600160a01b0319166001600160a01b03928316179055620004f09082161515607862000855565b6200050a82602001516200086660201b62001ea11760201c565b7ff468331437e1ec2fec64fc27f23a28b085a09e90f385338d4b58cb638607977760016040516200053c919062001140565b60405180910390a160208201516040808401519051636e70c2ef60e01b815273__GyroECLPMath__________________________92636e70c2ef9262000585926004016200122f565b60006040518083038186803b1580156200059e57600080fd5b505af4158015620005b3573d6000803e3d6000fd5b505050507f614fd1489cdee8181582fbbc1933d6870cd06c6f22d314b97a650ffa547c6ccd6001604051620005e9919062001140565b60405180910390a160208281015180518183015160408084015160608086015160809687015161032052610300526102e0919091526102c0929092526102a09290925294810151805180519085015182860151805196015193830151978301519483015160a084015160c0909401516104405261042093909352610400929092526103e0939093526103c0959095526103a052610380919091526103609290925261034091909152600e80546001600160a01b0319166001600160a01b0390921691909117905562001327565b81620006c757620006c78162000951565b5050565b80620006c781620009a4565b620006f38160095462000a2e60201b62001f7e1790919060201c565b6009556040517f3e350b41e86a8e10f804ade6d35340d620be35569cc75ac943e8bb14ab80ead1906200072890839062001140565b60405180910390a150565b6200074864e8d4a5100082101560cb620006b6565b6200076067016345785d8a000082111560ca620006b6565b6200077c8160095462000a5460201b62001f8c1790919060201c565b6009556040517fa9ba3ffe0b6c366b81232caab38605a0699ad5398d6cce76f91ee809e322dafc9062000728908390620012c7565b600080826001600160a01b031663313ce5676040518163ffffffff1660e01b815260040160206040518083038186803b158015620007ee57600080fd5b505afa15801562000803573d6000803e3d6000fd5b505050506040513d601f19601f820116820180604052508101906200082991906200110e565b60ff16905060006200084860128362000a7360201b62001f9a1760201c565b600a0a925050505b919050565b81620006c757620006c78162000a8b565b6200089581606001516000131580156200088c5750670de0b6b3a7640000826060015113155b61016362000855565b620008c381604001516000131580156200088c5750670de0b6b3a76400008260400151131561016362000855565b604080518082018252606083015181529082015160208201526000620008ea828062000a9d565b90506200091a670de0b6b3a763fc188212801590620009115750670de0b6b3a76403e88213155b61016462000855565b6200094c83608001516000131580156200094357506a52b7d2dcc80cd2e4000000846080015113155b61016862000855565b505050565b62461bcd60e51b6000908152602060045260076024526642414c23000030600a808404818106603090810160081b95839006959095019082900491820690940160101b939093010160c81b604452606490fd5b600281511015620009b55762000a2b565b600081600081518110620009c557fe5b602002602001015190506000600190505b82518110156200094c576000838281518110620009ef57fe5b6020026020010151905062000a20816001600160a01b0316846001600160a01b0316106065620006b660201b60201c565b9150600101620009d6565b50565b600062000a4d8260558562000af460201b62001fb0179092919060201c565b9392505050565b600062000a4d8260568562000b1d60201b62001fd7179092919060201c565b600062000a85838311156001620006b6565b50900390565b62000a2b816223aca960e91b62000b32565b600062000a4d62000ac58360200151856020015162000b9360201b62001fec1790919060201c565b8351855162000ae09162000b93602090811b62001fec17901c565b62000bd460201b620020281790919060201c565b60006001821b198416828462000b0c57600062000b0f565b60015b60ff16901b17949350505050565b6001600160401b03811b1992909216911b1790565b62461bcd60e51b600090815260206004526007602452600a808404818106603090810160081b958390069590950190829004918206850160101b01602363ffffff0060e086901c160160181b0190930160c81b60445260e882901c90606490fd5b600082820283158062000baf57508284828162000bac57fe5b05145b62000bc25762000bc260006003620006b6565b670de0b6b3a764000090059392505050565b60008282018183121562000beb5783811262000bf0565b838112155b62000a4d5762000a4d600080620006b6565b828054600181600116156101000203166002900490600052602060002090601f01602090048101928262000c3a576000855562000c85565b82601f1062000c5557805160ff191683800117855562000c85565b8280016001018555821562000c85579182015b8281111562000c8557825182559160200191906001019062000c68565b5062000c9392915062000c97565b5090565b5b8082111562000c93576000815560010162000c98565b80516001600160a01b03811681146200085057600080fd5b805180151581146200085057600080fd5b600082601f83011262000ce8578081fd5b81516001600160401b0381111562000cfc57fe5b62000d11601f8201601f1916602001620012d0565b81815284602083860101111562000d26578283fd5b62000d39826020830160208701620012f4565b949350505050565b60006060828403121562000d53578081fd5b604051606081016001600160401b038111828210171562000d7057fe5b60405290508062000d818362000cc6565b815260208301516001600160781b038116811462000d9e57600080fd5b602082015260408301516001600160801b038116811462000dbe57600080fd5b6040919091015292915050565b6000610120828403121562000dde578081fd5b60405160e081016001600160401b038111828210171562000dfb57fe5b60405290508062000e0d848462000fc0565b815262000e1e846040850162000fc0565b60208201526080830151604082015260a0830151606082015260c0830151608082015260e083015160a082015261010083015160c08201525092915050565b600061014080838503121562000e71578182fd5b62000e7c81620012d0565b91505062000e8a8262000cae565b815260208201516001600160401b038082111562000ea757600080fd5b62000eb58583860162000cd7565b6020840152604084015191508082111562000ecf57600080fd5b5062000ede8482850162000cd7565b60408301525062000ef26060830162000cae565b606082015262000f056080830162000cae565b608082015260a082015160a082015260c082015160c082015260e082015160e082015261010062000f3881840162000cc6565b9082015261012062000f4c83820162000cae565b9082015292915050565b600060a0828403121562000f68578081fd5b60405160a081016001600160401b038111828210171562000f8557fe5b806040525080915082518152602083015160208201526040830151604082015260608301516060820152608083015160808201525092915050565b60006040828403121562000fd2578081fd5b604080519081016001600160401b038111828210171562000fef57fe5b604052825181526020928301519281019290925250919050565b6000602082840312156200101b578081fd5b5051919050565b6000806040838503121562001035578081fd5b82516001600160401b03808211156200104c578283fd5b90840190610280828703121562001061578283fd5b6200106d60c0620012d0565b8251828111156200107c578485fd5b6200108a8882860162000e5d565b8252506200109c876020850162000f56565b6020820152620010b08760c0850162000dcb565b6040820152620010c46101e0840162000cae565b6060820152620010d987610200850162000d41565b6080820152620010ed610260840162000cae565b60a08201529350620011059150506020840162000cae565b90509250929050565b60006020828403121562001120578081fd5b815160ff8116811462000a4d578182fd5b80518252602090810151910152565b901515815260200190565b60006060820185835260206060818501528186518084526080860191508288019350845b81811015620011965784516001600160a01b0316835293830193918301916001016200116f565b505084810360408601528551808252908201925081860190845b81811015620011d75782516001600160a01b031685529383019391830191600101620011b0565b509298975050505050505050565b6020810160038310620011f457fe5b91905290565b60006020825282518060208401526200121b816040850160208701620012f4565b601f01601f19169190910160400192915050565b60006101c08201905083518252602084015160208301526040840151604083015260608401516060830152608084015160808301526200127460a08301845162001131565b60208301516200128860e084018262001131565b5060408301516101208301526060830151610140830152608083015161016083015260a083015161018083015260c08301516101a08301529392505050565b90815260200190565b6040518181016001600160401b0381118282101715620012ec57fe5b604052919050565b60005b8381101562001311578181015183820152602001620012f7565b8381111562001321576000848401525b50505050565b60805160a05160601c60c05160e05161010051610120516101405160601c61016051610180516101a0516101c05160601c6101e05160601c61020051610220516102405161026051610280516102a0516102c0516102e05161030051610320516103405161036051610380516103a0516103c0516103e051610400516104205161044051615f6a620014c260003980611b4b5280612bdb525080611dff5280612c015250806113675280612c27525080611b035280612c4f525080610ada5280612c745250806109935280612b4852508061125d5280612b6d525080611e605280612b90525080610e675280612bb8525080610e8b5280612a77525080611b275280612aa1525080610f295280612acb52508061092c5280612af5525080611a245280612b1f525080612ed5525080612efc52505080613da3525080613dca5250806115d7528061161e525080611597528061165e525080610c515250806121a052508061217c5250806114e5525080611b9c5250806123d25250806124145250806123f35250806114c15250806114475250615f6a6000f3fe608060405234801561001057600080fd5b50600436106103db5760003560e01c806374f3b0091161020a578063a9059cbb11610125578063c4fea7c9116100b8578063dc09f3aa11610087578063dc09f3aa14610799578063dd62ed3e146107a1578063ddb387c9146107b4578063f89f27ed146107bc578063ffd088eb146107c4576103db565b8063c4fea7c914610763578063ce4823871461076b578063d505accf14610773578063d5c096c414610786576103db565b8063b48b5b40116100f4578063b48b5b4014610743578063bcc436921461074b578063c0ff1a1514610753578063c2c3bd6a1461075b576103db565b8063a9059cbb1461070d578063aaabadc514610720578063abd13afe14610728578063b10be73914610730576103db565b8063851c1bb31161019d57806395d89b411161016c57806395d89b41146106d75780639b02cdde146106df5780639d2c110c146106e7578063a457c2d7146106fa576103db565b8063851c1bb3146106a157806387ec6817146106b4578063893d20e8146106c75780638d928af8146106cf576103db565b80637ef355cd116101d95780637ef355cd146106765780638002df181461067e5780638143eb76146106915780638456cb5914610699576103db565b806374f3b0091461061957806376e54a461461063a5780637be219a21461064d5780637ecebe0014610663576103db565b806338fff2d0116102fa578063591a137f1161028d578063679aefce1161025c578063679aefce146105d65780636b843239146105de5780636d785a87146105fe57806370a0823114610606576103db565b8063591a137f1461057f5780636028bfd41461058757806360d1507c146105a857806366e9ddf4146105ce576103db565b806344bbdb55116102c957806344bbdb55146105405780634a6b0b151461055557806355c676281461056f57806358ecbcc314610577576103db565b806338fff2d01461050857806339509351146105105780633aeae0d3146105235780633f4ba83a14610538576103db565b80631dccd83011610372578063313ce56711610341578063313ce567146104c55780633331bc36146104da5780633644e515146104ed57806338e9922e146104f5576103db565b80631dccd830146104825780632024cf41146104a257806323b872dd146104aa578063292c914a146104bd576103db565b806316c38b3c116103ae57806316c38b3c1461044857806318160ddd1461045b5780631c0de051146104635780631d86bb991461047a576103db565b806306fdde03146103e0578063095ea7b3146103fe5780630e608b301461041e5780631469ed6c14610433575b600080fd5b6103e86107cc565b6040516103f59190615d61565b60405180910390f35b61041161040c366004615415565b610862565b6040516103f59190615c5a565b61043161042c3660046152f0565b610879565b005b61043b61092a565b6040516103f59190615c7d565b6104316104563660046156a5565b61094e565b61043b610962565b61046b610968565b6040516103f593929190615c65565b61043b610991565b6104956104903660046155d9565b6109b5565b6040516103f59190615b29565b61043b610ad8565b6104116104b8366004615360565b610afc565b610431610b72565b6104cd610ba6565b6040516103f59190615ea9565b6104316104e83660046159c4565b610baf565b61043b610c27565b6104316105033660046159ac565b610c36565b61043b610c4f565b61041161051e366004615415565b610c73565b61052b610cae565b6040516103f59190615db4565b610431610cf9565b610548610dee565b6040516103f59190615ad1565b61055d610dfd565b6040516103f596959493929190615cb6565b61043b610e58565b61043b610e65565b61043b610e89565b61059a6105953660046156bf565b610ead565b6040516103f5929190615e82565b6105bb6105b63660046159ac565b610ede565b6040516103f59796959493929190615c86565b61043b610f27565b61043b610f4b565b6105f16105ec36600461550b565b610f70565b6040516103f59190615ae5565b610548611026565b61043b6106143660046152f0565b611035565b61062c6106273660046156bf565b611054565b6040516103f5929190615b3c565b610431610648366004615838565b6110f9565b610655611220565b6040516103f5929190615e14565b61043b6106713660046152f0565b611240565b61043b61125b565b61043161068c3660046152f0565b61127f565b61043b611365565b610431611389565b61043b6106af3660046157bb565b611441565b61059a6106c23660046156bf565b61149a565b6105486114bf565b6105486114e3565b6103e8611507565b61043b611568565b61043b6106f53660046158b6565b61156e565b610411610708366004615415565b611923565b61041161071b366004615415565b611961565b61054861196e565b610548611978565b61043b61073e3660046157e3565b611987565b61043b611a1c565b61043b611a22565b61043b611a46565b61043b611b01565b61043b611b25565b61043b611b49565b6104316107813660046153a0565b611b6d565b61062c6107943660046156bf565b611cdd565b61043b611dfd565b61043b6107af366004615328565b611e21565b61043b611e5e565b610495611e82565b61043b611e8c565b60038054604080516020601f60026000196101006001881615020190951694909404938401819004810282018101909252828152606093909290918301828280156108585780601f1061082d57610100808354040283529160200191610858565b820191906000526020600020905b81548152906001019060200180831161083b57829003601f168201915b5050505050905090565b600061086f338484612051565b5060015b92915050565b600c5460408051808201909152600e81526d1b9bdd08185d5d1a1bdc9a5e995960921b6020820152906001600160a01b031633146108d35760405162461bcd60e51b81526004016108ca9190615d61565b60405180910390fd5b50600c80546001600160a01b0319166001600160a01b0383161790556040517fb8fd9afc34c38fcd13b9a3b7646482eb1fddcefb40af2c70609972816eba32089061091f908390615ad1565b60405180910390a150565b7f000000000000000000000000000000000000000000000000000000000000000081565b6109566120b3565b61095f816120e1565b50565b60025490565b600080600061097561215d565b15925061098061217a565b915061098a61219e565b9050909192565b7f000000000000000000000000000000000000000000000000000000000000000081565b606081516001600160401b03811180156109ce57600080fd5b506040519080825280602002602001820160405280156109f8578160200160208202803683370190505b5090506000610a056121c2565b905060005b8351811015610ad15773__QueryProcessor________________________6379eaef826008868481518110610a3b57fe5b6020026020010151856040518463ffffffff1660e01b8152600401610a6293929190615d28565b60206040518083038186803b158015610a7a57600080fd5b505af4158015610a8e573d6000803e3d6000fd5b505050506040513d601f19601f82011682018060405250810190610ab291906157fd565b838281518110610abe57fe5b6020908102919091010152600101610a0a565b5050919050565b7f000000000000000000000000000000000000000000000000000000000000000081565b600080610b098533611e21565b9050610b2d336001600160a01b0387161480610b255750838210155b61019e6121cf565b610b388585856121dd565b336001600160a01b03861614801590610b5357506000198114155b15610b6557610b658533858403612051565b60019150505b9392505050565b610b7a6122c5565b610b826120b3565b610b8c60016122d8565b6000610b96610962565b1115610ba457610ba4612318565b565b60055460ff1690565b610bca8183108015610bc357506104008211155b60646121cf565b6000610bdf6001600080600080600080612360565b9050825b82811015610c2157600081815260086020526040902054610c03906123c2565b610c195760008181526008602052604090208290555b600101610be3565b50505050565b6000610c316123ce565b905090565b610c3e6120b3565b610c466122c5565b61095f8161248c565b7f000000000000000000000000000000000000000000000000000000000000000090565b3360008181526001602090815260408083206001600160a01b0387168452909152812054909161086f918590610ca990866124f5565b612051565b610cb661511e565b5060408051606081018252600b5460ff81161515825261010081046001600160781b03166020830152600160801b90046001600160801b03169181019190915290565b600d546040805180820190915260118152703737ba103830bab9b29036b0b730b3b2b960791b6020820152906001600160a01b03163314610db85760405162461bcd60e51b81526004018080602001828103825283818151815260200191508051906020019080838360005b83811015610d7d578181015183820152602001610d65565b50505050905090810190601f168015610daa5780820380516001836020036101000a031916815260200191505b509250505060405180910390fd5b50610dc36000610956565b6040517f215385c8bfc731925ec8068d7baa50f6b6f34417cc7804f7273dc2c0b3db279090600090a1565b600e546001600160a01b031681565b60008060008060008060006009549050610e1681612507565b9650610e2181612513565b9550610e2c81612520565b9450610e378161252d565b9350610e428161253a565b9250610e4d81612547565b915050909192939495565b6000610c31600954612547565b7f000000000000000000000000000000000000000000000000000000000000000081565b7f000000000000000000000000000000000000000000000000000000000000000081565b60006060610ebd86516002612554565b610ed2898989898989896125616126dc61275a565b97509795505050505050565b6000806000806000806000610ef9610400891061013b6121cf565b6000610f048961286d565b9050610f0f8161287f565b959f949e50929c50909a509850965090945092505050565b7f000000000000000000000000000000000000000000000000000000000000000081565b6000610c31610f58610962565b610f6a610f63611a46565b60026128e2565b90612906565b606081516001600160401b0381118015610f8957600080fd5b50604051908082528060200260200182016040528015610fb3578160200160208202803683370190505b5090506000610fc06121c2565b9050610fca61513e565b60005b845181101561101e57848181518110610fe257fe5b60200260200101519150610fff8260000151848460200151612960565b84828151811061100b57fe5b6020908102919091010152600101610fcd565b505050919050565b600c546001600160a01b031681565b6001600160a01b0381166000908152602081905260409020545b919050565b6060808861107e6110636114e3565b6001600160a01b0316336001600160a01b03161460cd6121cf565b611093611089610c4f565b82146101f46121cf565b61109c876129f9565b60008060006110b08d8d8d8d8d8d8d612561565b9250925092506110c08c84612a5b565b6110c9826126dc565b6110d2816126dc565b6110da61215d565b156110e7576110e7612318565b909c909b509950505050505050505050565b600c5460408051808201909152600e81526d1b9bdd08185d5d1a1bdc9a5e995960921b6020820152906001600160a01b0316331461114a5760405162461bcd60e51b81526004016108ca9190615d61565b50600b5460408051808201909152601081526f1c1bdbdb081a5cc81d5b98d85c1c195960821b60208201529060ff166111965760405162461bcd60e51b81526004016108ca9190615d61565b508051600b8054602084015160408086015160ff19909316941515949094176fffffffffffffffffffffffffffffff0019166101006001600160781b0390921691909102176001600160801b03908116600160801b919092160217815590517f2abf5970d7bc1a2b36eaae52dd2cc353edb0337c7284ef8a01973081b4e044249161091f91615de9565b611228615155565b611230615184565b611238612a65565b915091509091565b6001600160a01b031660009081526006602052604090205490565b7f000000000000000000000000000000000000000000000000000000000000000081565b600d546040805180820190915260118152703737ba103830bab9b29036b0b730b3b2b960791b60208201526001600160a01b03909116903382146113045760405162461bcd60e51b8152602060048201818152835160248401528351909283926044909101919085019080838360008315610d7d578181015183820152602001610d65565b50600d80546001600160a01b0319166001600160a01b03848116918217909255604080519284168352602083019190915280517f1ffccd1fa96f4fb3415df8048a0fd107344e262d2d246c85105e2a3f8f3e81989281900390910190a15050565b7f000000000000000000000000000000000000000000000000000000000000000081565b600d546040805180820190915260118152703737ba103830bab9b29036b0b730b3b2b960791b6020820152906001600160a01b0316331461140b5760405162461bcd60e51b8152602060048201818152835160248401528351909283926044909101919085019080838360008315610d7d578181015183820152602001610d65565b506114166001610956565b6040517f681eace576127d0553b224436a09801fb47d042942cbff59d7d4ff04d8fa03d790600090a1565b604080517f00000000000000000000000000000000000000000000000000000000000000006020808301919091526001600160e01b03198416828401528251602481840301815260449092019092528051910120919050565b600060606114aa86516002612554565b610ed289898989898989612c9b612e1761275a565b7f000000000000000000000000000000000000000000000000000000000000000090565b7f000000000000000000000000000000000000000000000000000000000000000090565b60048054604080516020601f60026000196101006001881615020190951694909404938401819004810282018101909252828152606093909290918301828280156108585780601f1061082d57610100808354040283529160200191610858565b600a5490565b60006115786122c5565b83608001516115886110636114e3565b611593611089610c4f565b60007f00000000000000000000000000000000000000000000000000000000000000006001600160a01b031686602001516001600160a01b031614801561160f57507f00000000000000000000000000000000000000000000000000000000000000006001600160a01b031686604001516001600160a01b0316145b1561161c575060016116ad565b7f00000000000000000000000000000000000000000000000000000000000000006001600160a01b031686602001516001600160a01b031614801561169657507f00000000000000000000000000000000000000000000000000000000000000006001600160a01b031686604001516001600160a01b0316145b156116a3575060006116ad565b6116ad6079612e79565b60006116b882612ecc565b905060006116c68315612ecc565b90506116d28783612f20565b96506116de8682612f20565b955060006116ed888886612f2c565b90506000806116fa612a65565b915091506117066151cd565b60008073__GyroECLPMath__________________________6378ace8578787876040518463ffffffff1660e01b815260040161174493929190615b6a565b604080518083038186803b15801561175b57600080fd5b505af415801561176f573d6000803e3d6000fd5b505050506040513d601f19601f820116820180604052508101906117939190615815565b91509150604051806040016040528082600202840181526020018381525092506117cc8e60a00151876117c585612fc6565b8888613021565b50600090508c5160018111156117de57fe5b141561188a5760006117fc6117f1610e58565b60608f015190613199565b905061181e611818828f606001516131ee90919063ffffffff16565b88612f20565b60608e015260006118338e878b888888613204565b90507f4e1d56f7310a8c32b2267f756b19ba65019b4890068ce114a25009abe54de5ba86848360405161186893929190615bdc565b60405180910390a161187a818861329c565b9a5050505050505050505061191b565b6118988c6060015186612f20565b60608d015260006118ad8d868a8787876132a8565b90507f4e1d56f7310a8c32b2267f756b19ba65019b4890068ce114a25009abe54de5ba8583836040516118e293929190615bdc565b60405180910390a16118f481886132f0565b9050611910611909611904610e58565b6132fc565b8290613322565b995050505050505050505b509392505050565b6000806119303385611e21565b905080831061194a5761194533856000612051565b611957565b6119573385858403612051565b5060019392505050565b600061086f3384846121dd565b6000610c31613388565b600d546001600160a01b031681565b600073__QueryProcessor________________________630397bee06008846119ae6121c2565b6040518463ffffffff1660e01b81526004016119cc93929190615ce0565b60206040518083038186803b1580156119e457600080fd5b505af41580156119f8573d6000803e3d6000fd5b505050506040513d601f19601f8201168201806040525081019061087391906157fd565b61040090565b7f000000000000000000000000000000000000000000000000000000000000000081565b600080611a516114e3565b6001600160a01b031663f94d4668611a67610c4f565b6040518263ffffffff1660e01b8152600401611a839190615c7d565b60006040518083038186803b158015611a9b57600080fd5b505afa158015611aaf573d6000803e3d6000fd5b505050506040513d6000823e601f3d908101601f19168201604052611ad79190810190615440565b50915050611ae4816129f9565b6000611aee613402565b9050611afa8183613471565b9250505090565b7f000000000000000000000000000000000000000000000000000000000000000081565b7f000000000000000000000000000000000000000000000000000000000000000081565b7f000000000000000000000000000000000000000000000000000000000000000081565b611b7b8442111560d16121cf565b6001600160a01b0380881660008181526006602090815260408083205481517f00000000000000000000000000000000000000000000000000000000000000008185015280830195909552948b166060850152608084018a905260a0840185905260c08085018a90528151808603909101815260e09094019052825192019190912090611c07826134e3565b9050600060018288888860405160008152602001604052604051808581526020018460ff1681526020018381526020018281526020019450505050506020604051602081039080840390855afa158015611c65573d6000803e3d6000fd5b5050604051601f1901519150611ca790506001600160a01b03821615801590611c9f57508b6001600160a01b0316826001600160a01b0316145b6101f86121cf565b6001600160a01b038b166000908152600660205260409020600185019055611cd08b8b8b612051565b5050505050505050505050565b60608088611cec6110636114e3565b611cf7611089610c4f565b611cff6122c5565b6000611d09610962565b611d7957611d198b8b8b8861352f565b94509050611d2e620f424082101560cc6121cf565b611d3c6000620f4240613674565b611d4b89620f42408303613674565b611d5484612e17565b6040805160028082526060820183529091602083019080368337019050509250611de7565b611d82886129f9565b611db58789600081518110611d9357fe5b60200260200101518a600181518110611da857fe5b6020026020010151611f79565b611dc48b8b8b8b8b8b8b612c9b565b90955093509050611dd58982613674565b611dde84612e17565b611de7836126dc565b611def612318565b505097509795505050505050565b7f000000000000000000000000000000000000000000000000000000000000000081565b6000611e2b6114e3565b6001600160a01b0316826001600160a01b03161415611e4d5750600019610873565b611e57838361367e565b9050610873565b7f000000000000000000000000000000000000000000000000000000000000000081565b6060610c31613402565b6201de2090565b80611e9d816136a9565b5050565b611ecd8160600151600013158015611ec55750670de0b6b3a7640000826060015113155b610163613722565b611ef88160400151600013158015611ec55750670de0b6b3a764000082604001511315610163613722565b604080518082018252606083015181529082015160208201526000611f1d8280613730565b9050611f4a670de0b6b3a763fc188212801590611f425750670de0b6b3a76403e88213155b610164613722565b611f798360800151600013158015611f7157506a52b7d2dcc80cd2e4000000846080015113155b610168613722565b505050565b6000610b6b83836055611fb0565b6000610b6b83836056611fd7565b6000611faa8383111560016121cf565b50900390565b60006001821b1984168284611fc6576000611fc9565b60015b60ff16901b17949350505050565b6001600160401b03811b1992909216911b1790565b600082820283158061200657508284828161200357fe5b05145b61201657612016600060036121cf565b670de0b6b3a764000090059392505050565b60008282018183121561203d57838112612042565b838112155b610b6b57610b6b6000806121cf565b6001600160a01b03808416600081815260016020908152604080832094871680845294825291829020859055815185815291517f8c5be1e5ebec7d5bd14f71427d1e84f3dd0314c0f7b2291e5b200ac8c7c3b9259281900390910190a3505050565b60006120ca6000356001600160e01b031916611441565b905061095f6120d98233613763565b6101916121cf565b8015612101576120fc6120f261217a565b42106101936121cf565b612116565b61211661210c61219e565b42106101a96121cf565b6007805482151560ff19909116811790915560408051918252517f9e3a5e37224532dea67b89face185703738a228a6e8a23dee546960180d3be649181900360200190a150565b600061216761219e565b421180610c3157505060075460ff161590565b7f000000000000000000000000000000000000000000000000000000000000000090565b7f000000000000000000000000000000000000000000000000000000000000000090565b6000610c3160095461252d565b81611e9d57611e9d81612e79565b6121f46001600160a01b03841615156101986121cf565b61220b6001600160a01b03831615156101996121cf565b612216838383611f79565b6001600160a01b03831660009081526020819052604090205461223c90826101a0613865565b6001600160a01b03808516600090815260208190526040808220939093559084168152205461226b90826124f5565b6001600160a01b038084166000818152602081815260409182902094909455805185815290519193928716927fddf252ad1be2c89b69c2b068fc378daa952ba7f163c4a11628f55a4df523b3ef92918290030190a3505050565b610ba46122d061215d565b6101926121cf565b6009546122e59082611f7e565b6009556040517f3e350b41e86a8e10f804ade6d35340d620be35569cc75ac943e8bb14ab80ead19061091f908390615c5a565b6009546123248161253a565b1561095f5761233e612337600a5461387b565b82906138bb565b905061235a61235361234e610962565b61387b565b82906138c8565b60095550565b600061236c82826138d6565b61237784601f6138da565b6123828660546138eb565b61238d88606a6138da565b6123988a609f6138eb565b6123a38c60b56138da565b6123ae8e60ea6138eb565b17171717171790505b979650505050505050565b600061087382826138f8565b60007f00000000000000000000000000000000000000000000000000000000000000007f00000000000000000000000000000000000000000000000000000000000000007f000000000000000000000000000000000000000000000000000000000000000061243b613902565b3060405160200180868152602001858152602001848152602001838152602001826001600160a01b031681526020019550505050505060405160208183030381529060405280519060200120905090565b61249f64e8d4a5100082101560cb6121cf565b6124b567016345785d8a000082111560ca6121cf565b6009546124c29082611f8c565b6009556040517fa9ba3ffe0b6c366b81232caab38605a0699ad5398d6cce76f91ee809e322dafc9061091f908390615c7d565b6000828201610b6b84821015836121cf565b60006108738282613906565b6000610873826016613906565b600061087382602c6138f8565b600061087382604b61392d565b6000610873826055613935565b600061087382605661393f565b611e9d81831460676121cf565b6000606080600080612571612a65565b9150915061257d61215d565b1561268f57604051636c1e543160e11b815260009073__GyroECLPMath__________________________9063d83ca862906125c0908d9087908790600401615b6a565b60206040518083038186803b1580156125d857600080fd5b505af41580156125ec573d6000803e3d6000fd5b505050506040513d601f19601f8201168201806040525081019061261091906157fd565b905061261f898b838686613021565b6126288161394c565b6126328a88613979565b909650945061264b8187612644610962565b60006139c5565b600a8190556040517fe1d39caf039c7dc6f364b1e29d1e67c4e330003a43f4991d50cf3e8840d95eac9161268191849190615e9b565b60405180910390a1506126a5565b6126998987613979565b600019600a5590955093505b6040805160028082526060820183528792879291906020830190803683370190505094509450945050509750975097945050505050565b612703816000815181106126ec57fe5b60200260200101516126fe6001612ecc565b613a1d565b8160008151811061271057fe5b60200260200101818152505061273e8160018151811061272c57fe5b60200260200101516126fe6000612ecc565b8160018151811061274b57fe5b60200260200101818152505050565b333014612818576000306001600160a01b031660003660405161277e929190615ac1565b6000604051808303816000865af19150503d80600081146127bb576040519150601f19603f3d011682016040523d82523d6000602084013e6127c0565b606091505b5050905080600081146127cf57fe5b60046000803e6000516001600160e01b0319166343adbafb60e01b81146127fa573d6000803e3d6000fd5b506020600460003e604060205260243d03602460403e601c3d016000f35b612821866129f9565b6000806128378b8b8b8b8b8b8b8b63ffffffff16565b5091509150612849818463ffffffff16565b8051601f1982018390526343adbafb603f1983015260200260231982016044820181fd5b60009081526008602052604090205490565b600080600080600080600061289388613a3d565b965061289e88613a4a565b95506128a988613a57565b94506128b488613a64565b93506128bf88613a71565b92506128ca88613a7e565b91506128d5886123c2565b9050919395979092949650565b6000828202610b6b8415806128ff5750838583816128fc57fe5b04145b60036121cf565b60008161291957612919600060046121cf565b8261292657506000610873565b670de0b6b3a76400008381029084828161293c57fe5b041461294e5761294e600060056121cf565b82818161295757fe5b04949350505050565b6040516334171a8560e01b815260009073__QueryProcessor________________________906334171a85906129a190600890889088908890600401615d02565b60206040518083038186803b1580156129b957600080fd5b505af41580156129cd573d6000803e3d6000fd5b505050506040513d601f19601f820116820180604052508101906129f191906157fd565b949350505050565b612a2081600081518110612a0957fe5b6020026020010151612a1b6001612ecc565b6128e2565b81600081518110612a2d57fe5b60200260200101818152505061273e81600181518110612a4957fe5b6020026020010151612a1b6000612ecc565b611e9d8282613a8b565b612a6d615155565b612a75615184565b7f00000000000000000000000000000000000000000000000000000000000000006080808401919091527f00000000000000000000000000000000000000000000000000000000000000006060808501919091527f00000000000000000000000000000000000000000000000000000000000000006040808601919091527f00000000000000000000000000000000000000000000000000000000000000006020808701919091527f000000000000000000000000000000000000000000000000000000000000000086528451858201517f0000000000000000000000000000000000000000000000000000000000000000818401527f000000000000000000000000000000000000000000000000000000000000000090527f0000000000000000000000000000000000000000000000000000000000000000918101919091527f000000000000000000000000000000000000000000000000000000000000000090527f000000000000000000000000000000000000000000000000000000000000000060c08501527f000000000000000000000000000000000000000000000000000000000000000060a08501527f0000000000000000000000000000000000000000000000000000000000000000928401929092527f0000000000000000000000000000000000000000000000000000000000000000908301527f0000000000000000000000000000000000000000000000000000000000000000908201529091565b6000606080600080612cab612a65565b91509150600073__GyroECLPMath__________________________63d83ca8628b85856040518463ffffffff1660e01b8152600401612cec93929190615b6a565b60206040518083038186803b158015612d0457600080fd5b505af4158015612d18573d6000803e3d6000fd5b505050506040513d601f19601f82011682018060405250810190612d3c91906157fd565b9050612d4b898b838686613021565b612d548161394c565b600080612d618c8a613b42565b600b54919350915060ff1615612d8b57612d8b82612d7e8f611035565b612d86610962565b613b7c565b612d9f8383612d98610962565b60016139c5565b600a8190556040517fe1d39caf039c7dc6f364b1e29d1e67c4e330003a43f4991d50cf3e8840d95eac91612dd591869190615e9b565b60405180910390a16040805160028082526060820183528492849291906020830190803683370190505097509750975050505050509750975097945050505050565b612e3e81600081518110612e2757fe5b6020026020010151612e396001612ecc565b613c8e565b81600081518110612e4b57fe5b60200260200101818152505061273e81600181518110612e6757fe5b6020026020010151612e396000612ecc565b62461bcd60e51b6000908152602060045260076024526642414c23000030600a808404818106603090810160081b95839006959095019082900491820690940160101b939093010160c81b604452606490fd5b600081612ef9577f0000000000000000000000000000000000000000000000000000000000000000610873565b507f0000000000000000000000000000000000000000000000000000000000000000919050565b6000610b6b83836128e2565b60408051600280825260608083018452926020830190803683370190505090508115612f8b578381600081518110612f6057fe5b6020026020010181815250508281600181518110612f7a57fe5b602002602001018181525050610b6b565b8281600081518110612f9957fe5b6020026020010181815250508381600181518110612fb357fe5b6020026020010181815250509392505050565b60008082121561301d576040805162461bcd60e51b815260206004820181905260248201527f53616665436173743a2076616c7565206d75737420626520706f736974697665604482015290519081900360640190fd5b5090565b60095461302d8161253a565b801561303857508543115b1561319157600073__GyroECLPMath__________________________63b0a208a78786866130658a613cc1565b6040518563ffffffff1660e01b81526004016130849493929190615b9b565b60206040518083038186803b15801561309c57600080fd5b505af41580156130b0573d6000803e3d6000fd5b505050506040513d601f19601f820116820180604052508101906130d491906157fd565b905060006130e182613d05565b905060006130f7876130f286612513565b613d10565b905060006131048561252d565b9050600061311186612520565b9050600061312a828487876131258c612507565b613d27565b905080831461318a5761313d8782613d7e565b96506131498742613d8c565b9650866009819055507f12ade7b7dd29c5e3df1e883f0a092467d851b06c52f3c4484a443d40b9cd6601816040516131819190615c7d565b60405180910390a15b5050505050505b505050505050565b60008282028315806131b35750828482816131b057fe5b04145b6131c3576131c3600060036121cf565b806131d2576000915050610873565b670de0b6b3a764000060001982015b0460010191505092915050565b600082821115611faa57611faa600060016121cf565b60608601516040516330ffa11b60e11b815260009173__GyroECLPMath__________________________916361ff42369161324c918a91908a908a908a908a90600401615c0c565b60206040518083038186803b15801561326457600080fd5b505af4158015613278573d6000803e3d6000fd5b505050506040513d601f19601f820116820180604052508101906123b791906157fd565b6000610b6b8383613a1d565b6060860151604051633b18ce7b60e21b815260009173__GyroECLPMath__________________________9163ec6339ec9161324c918a91908a908a908a908a90600401615c0c565b6000610b6b8383613c8e565b6000670de0b6b3a76400008210613314576000610873565b50670de0b6b3a76400000390565b60008161333557613335600060046121cf565b8261334257506000610873565b670de0b6b3a76400008381029084828161335857fe5b041461337c5761337c670de0b6b3a764000085838161337357fe5b041460056121cf565b8260018203816131e157fe5b60006133926114e3565b6001600160a01b031663aaabadc56040518163ffffffff1660e01b815260040160206040518083038186803b1580156133ca57600080fd5b505afa1580156133de573d6000803e3d6000fd5b505050506040513d601f19601f82011682018060405250810190610c31919061530c565b604080516002808252606080830184529260009291906020830190803683370190505090506134316001613d9a565b8160008151811061343e57fe5b6020026020010181815250506134546000613d9a565b8160018151811061346157fe5b6020908102919091010152905090565b670de0b6b3a764000060005b83518110156134d3576134c96134c285838151811061349857fe5b60200260200101518584815181106134ac57fe5b6020026020010151613dee90919063ffffffff16565b8390613e3d565b915060010161347d565b50610873600082116101376121cf565b60006134ed6123ce565b82604051602001808061190160f01b81525060020183815260200182815260200192505050604051602081830303815290604052805190602001209050919050565b60006060600061353e84613e66565b9050613559600082600381111561355157fe5b1460ce6121cf565b600061356485613e85565b905061357281516002612554565b61357b816129f9565b600080613586612a65565b91509150600073__GyroECLPMath__________________________63d83ca8628585856040518463ffffffff1660e01b81526004016135c793929190615b6a565b60206040518083038186803b1580156135df57600080fd5b505af41580156135f3573d6000803e3d6000fd5b505050506040513d601f19601f8201168201806040525081019061361791906157fd565b90507faf65f1a72bf4f8bc48e8153858e1f7b307ce39c88361a677c0a79c2a1ae571ef816040516136489190615c7d565b60405180910390a1600061365d8260026128e2565b600a92909255509a92995091975050505050505050565b611e9d8282613f39565b6001600160a01b03918216600090815260016020908152604080832093909416825291909152205490565b6002815110156136b85761095f565b6000816000815181106136c757fe5b602002602001015190506000600190505b8251811015611f795760008382815181106136ef57fe5b60200260200101519050613718816001600160a01b0316846001600160a01b03161060656121cf565b91506001016136d8565b81611e9d57611e9d81613fce565b6000610b6b61375083602001518560200151611fec90919063ffffffff16565b8351855161375d91611fec565b90612028565b600073ba1ba1ba1ba1ba1ba1ba1ba1ba1ba1ba1ba1ba1b6137826114bf565b6001600160a01b03161415801561379d575061379d83613fde565b156137c5576137aa6114bf565b6001600160a01b0316336001600160a01b0316149050610873565b6137cd613388565b6001600160a01b0316639be2a8848484306040518463ffffffff1660e01b815260040180848152602001836001600160a01b03168152602001826001600160a01b03168152602001935050505060206040518083038186803b15801561383257600080fd5b505afa158015613846573d6000803e3d6000fd5b505050506040513d602081101561385c57600080fd5b50519050610873565b600061387484841115836121cf565b5050900390565b60008061388783614010565b905060008082136138a057652d79883d200082036138aa565b652d79883d200082015b655af3107a40009005949350505050565b6000610b6b838383614074565b6000610b6b83836016614074565b1b90565b661fffffffffffff91909116901b90565b623fffff91909116901b90565b1c637fffffff1690565b4690565b600082821c623fffff16621fffff811361392057806129f1565b623fffff19179392505050565b1c6103ff1690565b1c60019081161490565b1c6001600160401b031690565b60008060008061395e600a548661408b565b9350935093509350613972848484846140f4565b5050505050565b60006060600061398884613e66565b9050600181600381111561399857fe5b14156139b2576139a88585614114565b90935091506139bd565b6139bd610150612e79565b509250929050565b600081156139f75760006139e3846139dd8888613199565b90613322565b90506139ef8682614146565b9150506129f1565b6000613a0784610f6a888861415e565b9050613a1386826131ee565b9695505050505050565b6000613a2c82151560046121cf565b818381613a3557fe5b049392505050565b60006108738260ea613906565b60006108738260b5614188565b600061087382609f613906565b600061087382606a614188565b6000610873826054613906565b600061087382601f614188565b613aa26001600160a01b038316151561019b6121cf565b613aae82600083611f79565b6001600160a01b038216600090815260208190526040902054613ad490826101a1613865565b6001600160a01b038316600090815260208190526040902055600254613afa90826141bb565b6002556040805182815290516000916001600160a01b038516917fddf252ad1be2c89b69c2b068fc378daa952ba7f163c4a11628f55a4df523b3ef9181900360200190a35050565b600060606000613b5184613e66565b90506003816003811115613b6157fe5b1415613b71576139a885856141c9565b6139bd610136612e79565b60408051606081018252600b5460ff81161515825261010081046001600160781b031660208301819052600160801b9091046001600160801b03169282019290925290613bc98585614146565b11156040518060400160405280601a81526020017f6f7665722061646472657373206c69717569646974792063617000000000000081525090613c1f5760405162461bcd60e51b81526004016108ca9190615d61565b5060408101516001600160801b0316613c388584614146565b11156040518060400160405280601981526020017f6f76657220676c6f62616c206c69717569646974792063617000000000000000815250906139725760405162461bcd60e51b81526004016108ca9190615d61565b6000613c9d82151560046121cf565b82613caa57506000610873565b816001840381613cb657fe5b046001019050610873565b6000600160ff1b821061301d5760405162461bcd60e51b8152600401808060200182810382526028815260200180615f0d6028913960400191505060405180910390fd5b60006108738261387b565b600080613d1c8461387b565b929092039392505050565b600080613d4385858542613d3a8b61286d565b939291906141ee565b9050607842889003101580613d585786613d61565b613d618761424e565b600081815260086020526040902092909255509695505050505050565b6000610b6b8383604b61425b565b6000610b6b8383602c61426b565b600081613dc7577f0000000000000000000000000000000000000000000000000000000000000000610873565b507f0000000000000000000000000000000000000000000000000000000000000000919050565b600080613dfb848461427d565b90506000613e15613e0e8361271061437e565b60016124f5565b905080821015613e2a57600092505050610873565b613e348282611f9a565b92505050610873565b6000828202613e578415806128ff5750838583816128fc57fe5b670de0b6b3a764000081612957565b6000818060200190516020811015613e7d57600080fd5b505192915050565b6060818060200190516040811015613e9c57600080fd5b815160208301805160405192949293830192919084640100000000821115613ec357600080fd5b908301906020820185811115613ed857600080fd5b8251866020820283011164010000000082111715613ef557600080fd5b82525081516020918201928201910280838360005b83811015613f22578181015183820152602001613f0a565b505050509190910160405250929695505050505050565b613f4560008383611f79565b600254613f5290826124f5565b6002556001600160a01b038216600090815260208190526040902054613f7890826124f5565b6001600160a01b0383166000818152602081815260408083209490945583518581529351929391927fddf252ad1be2c89b69c2b068fc378daa952ba7f163c4a11628f55a4df523b3ef9281900390910190a35050565b61095f816223aca960e91b6143c1565b6000613ff0631c74c91760e11b611441565b82148061087357506140086350dd6ed960e01b611441565b909114919050565b60006140206000831360646121cf565b670c7d713b49da00008213801561403e5750670f43fc2c04ee000082125b1561406457670de0b6b3a764000061405583614422565b8161405c57fe5b05905061104f565b61406d82614540565b905061104f565b623fffff828116821b90821b198416179392505050565b60008060008060008060008061409f6148df565b935093509350935083600014156140c4576000975087965090945092506140eb915050565b6000806140db8c8c6140d4610962565b8989614b4e565b909a509850929650909450505050505b92959194509250565b8315614104576141048285613674565b8215610c2157610c218184613674565b60006060600061412384614be9565b905060006141398683614134610962565b614c0b565b9196919550909350505050565b600082820183811015610b6b57610b6b6000806121cf565b600082820283158061417857508284828161417557fe5b04145b613e5757613e57600060036121cf565b600082821c661fffffffffffff16660fffffffffffff81136141aa57806129f1565b661fffffffffffff19179392505050565b6000610b6b83836001613865565b6000606060006141d884614be9565b9050600061413986836141e9610962565b614ca6565b6000806141fa876123c2565b83039050600081870261420c89613a4a565b019050600082870261421d8a613a64565b019050600083870261422e8b613a7e565b01905061424089848a858b868c612360565b9a9950505050505050505050565b6000610873826001614d41565b6103ff811b1992909216911b1790565b637fffffff811b1992909216911b1790565b6000816142935750670de0b6b3a7640000610873565b826142a057506000610873565b6142b1600160ff1b841060066121cf565b826142d7770bce5086492111aea88f4bb1ca6bcf584181ea8059f76532841060076121cf565b826000670c7d713b49da0000831380156142f85750670f43fc2c04ee000083125b1561432f57600061430884614422565b9050670de0b6b3a764000080820784020583670de0b6b3a76400008305020191505061433d565b8161433984614540565b0290505b670de0b6b3a76400009005614375680238fd42c5cf03ffff19821280159061436e575068070c1cc73b00c800008213155b60086121cf565b613a1381614d49565b60008282026143988415806128ff5750838583816128fc57fe5b806143a7576000915050610873565b670de0b6b3a7640000600019820104600101915050610873565b62461bcd60e51b600090815260206004526007602452600a808404818106603090810160081b958390069590950190829004918206850160101b01602363ffffff0060e086901c160160181b0190930160c81b60445260e882901c90606490fd5b670de0b6b3a7640000026000806a0c097ce7bc90715b34b9f160241b808401906ec097ce7bc90715b34b9f0fffffffff198501028161445d57fe5b05905060006a0c097ce7bc90715b34b9f160241b82800205905081806a0c097ce7bc90715b34b9f160241b81840205915060038205016a0c097ce7bc90715b34b9f160241b82840205915060058205016a0c097ce7bc90715b34b9f160241b82840205915060078205016a0c097ce7bc90715b34b9f160241b82840205915060098205016a0c097ce7bc90715b34b9f160241b828402059150600b8205016a0c097ce7bc90715b34b9f160241b828402059150600d8205016a0c097ce7bc90715b34b9f160241b828402059150600f826002919005919091010295945050505050565b6000670de0b6b3a764000082121561457c57614572826a0c097ce7bc90715b34b9f160241b8161456c57fe5b05614540565b600003905061104f565b60007e1600ef3172e58d2e933ec884fde10064c63b5372d805e203c000000000000083126145cd57770195e54c5dd42177f53a27172fa9ec630262827000000000830592506806f05b59d3b2000000015b73011798004d755d3c8bc8e03204cf44619e0000008312614605576b1425982cf597cd205cef7380830592506803782dace9d9000000015b606492830292026e01855144814a7ff805980ff0084000831261464d576e01855144814a7ff805980ff008400068056bc75e2d63100000840205925068ad78ebc5ac62000000015b6b02df0ab5a80a22c61ab5a7008312614688576b02df0ab5a80a22c61ab5a70068056bc75e2d6310000084020592506856bc75e2d631000000015b693f1fce3da636ea5cf85083126146bf57693f1fce3da636ea5cf85068056bc75e2d631000008402059250682b5e3af16b18800000015b690127fa27722cc06cc5e283126146f657690127fa27722cc06cc5e268056bc75e2d6310000084020592506815af1d78b58c400000015b68280e60114edb805d03831261472b5768280e60114edb805d0368056bc75e2d631000008402059250680ad78ebc5ac6200000015b680ebc5fb41746121110831261475657680ebc5fb4174612111068056bc75e2d631000009384020592015b6808f00f760a4b2db55d831261478b576808f00f760a4b2db55d68056bc75e2d6310000084020592506802b5e3af16b1880000015b6806f5f177578893793783126147c0576806f5f177578893793768056bc75e2d63100000840205925068015af1d78b58c40000015b6806248f33704b28660383126147f4576806248f33704b28660368056bc75e2d63100000840205925067ad78ebc5ac620000015b6805c548670b9510e7ac8312614828576805c548670b9510e7ac68056bc75e2d6310000084020592506756bc75e2d6310000015b600068056bc75e2d63100000840168056bc75e2d63100000808603028161484b57fe5b059050600068056bc75e2d63100000828002059050818068056bc75e2d63100000818402059150600382050168056bc75e2d63100000828402059150600582050168056bc75e2d63100000828402059150600782050168056bc75e2d63100000828402059150600982050168056bc75e2d63100000828402059150600b820501600202606485820105979650505050505050565b600e5460405163bd02d0f560e01b81526000918291829182916001600160a01b039091169063bd02d0f590614931907550524f544f434f4c5f535741505f4645455f5045524360501b90600401615c7d565b60206040518083038186803b15801561494957600080fd5b505afa15801561495d573d6000803e3d6000fd5b505050506040513d601f19601f8201168201806040525081019061498191906157fd565b600e5460405163bd02d0f560e01b81526001600160a01b039091169063bd02d0f5906149d1907f50524f544f434f4c5f4645455f4759524f5f504f5254494f4e0000000000000090600401615c7d565b60206040518083038186803b1580156149e957600080fd5b505afa1580156149fd573d6000803e3d6000fd5b505050506040513d601f19601f82011682018060405250810190614a2191906157fd565b600e546040516321f8a72160e01b81526001600160a01b03909116906321f8a72190614a61906c4759524f5f545245415355525960981b90600401615c7d565b60206040518083038186803b158015614a7957600080fd5b505afa158015614a8d573d6000803e3d6000fd5b505050506040513d601f19601f82011682018060405250810190614ab1919061530c565b600e546040516321f8a72160e01b81526001600160a01b03909116906321f8a72190614af0906b42414c5f545245415355525960a01b90600401615c7d565b60206040518083038186803b158015614b0857600080fd5b505afa158015614b1c573d6000803e3d6000fd5b505050506040513d601f19601f82011682018060405250810190614b40919061530c565b935093509350935090919293565b600080868611614b6357506000905080614bdf565b6000614b8385614b7d614b768a8c6131ee565b899061415e565b9061415e565b90506000614b9b614b94898b6131ee565b879061415e565b90506000614ba989836131ee565b90506000614bb78483612906565b90506000614bc5888361415e565b90506000614bd383836131ee565b91975090955050505050505b9550959350505050565b6000818060200190516040811015614c0057600080fd5b506020015192915050565b606083516001600160401b0381118015614c2457600080fd5b50604051908082528060200260200182016040528015614c4e578160200160208202803683370190505b50905060005b845181101561191b57614c8783610f6a86888581518110614c7157fe5b602002602001015161415e90919063ffffffff16565b828281518110614c9357fe5b6020908102919091010152600101614c54565b606083516001600160401b0381118015614cbf57600080fd5b50604051908082528060200260200182016040528015614ce9578160200160208202803683370190505b50905060005b845181101561191b57614d22836139dd86888581518110614d0c57fe5b602002602001015161319990919063ffffffff16565b828281518110614d2e57fe5b6020908102919091010152600101614cef565b016103ff1690565b6000614d78680238fd42c5cf03ffff198312158015614d71575068070c1cc73b00c800008313155b60096121cf565b6000821215614da357614d8d82600003614d49565b6a0c097ce7bc90715b34b9f160241b8161405c57fe5b60006806f05b59d3b20000008312614de357506806f05b59d3b1ffffff1990910190770195e54c5dd42177f53a27172fa9ec630262827000000000614e19565b6803782dace9d90000008312614e1557506803782dace9d8ffffff19909101906b1425982cf597cd205cef7380614e19565b5060015b6064929092029168056bc75e2d6310000068ad78ebc5ac620000008412614e695768ad78ebc5ac61ffffff199093019268056bc75e2d631000006e01855144814a7ff805980ff008400082020590505b6856bc75e2d6310000008412614ea5576856bc75e2d630ffffff199093019268056bc75e2d631000006b02df0ab5a80a22c61ab5a70082020590505b682b5e3af16b188000008412614edf57682b5e3af16b187fffff199093019268056bc75e2d63100000693f1fce3da636ea5cf85082020590505b6815af1d78b58c4000008412614f19576815af1d78b58c3fffff199093019268056bc75e2d63100000690127fa27722cc06cc5e282020590505b680ad78ebc5ac62000008412614f5257680ad78ebc5ac61fffff199093019268056bc75e2d6310000068280e60114edb805d0382020590505b68056bc75e2d631000008412614f8b5768056bc75e2d630fffff199093019268056bc75e2d63100000680ebc5fb4174612111082020590505b6802b5e3af16b18800008412614fc4576802b5e3af16b187ffff199093019268056bc75e2d631000006808f00f760a4b2db55d82020590505b68015af1d78b58c400008412614ffd5768015af1d78b58c3ffff199093019268056bc75e2d631000006806f5f177578893793782020590505b68056bc75e2d631000008481019085906002908280020505918201919050600368056bc75e2d631000008783020505918201919050600468056bc75e2d631000008783020505918201919050600568056bc75e2d631000008783020505918201919050600668056bc75e2d631000008783020505918201919050600768056bc75e2d631000008783020505918201919050600868056bc75e2d631000008783020505918201919050600968056bc75e2d631000008783020505918201919050600a68056bc75e2d631000008783020505918201919050600b68056bc75e2d631000008783020505918201919050600c68056bc75e2d631000008783020505918201919050606468056bc75e2d63100000848402058502059695505050505050565b604080516060810182526000808252602082018190529181019190915290565b604080518082019091526000808252602082015290565b6040518060a0016040528060008152602001600081526020016000815260200160008152602001600081525090565b6040518060e001604052806151976151cd565b81526020016151a46151cd565b815260200160008152602001600081526020016000815260200160008152602001600081525090565b604051806040016040528060008152602001600081525090565b803561104f81615ef7565b600082601f830112615202578081fd5b8151602061521761521283615eda565b615eb7565b8281528181019085830183850287018401881015615233578586fd5b855b8581101561525157815184529284019290840190600101615235565b5090979650505050505050565b8035801515811461104f57600080fd5b600082601f83011261527e578081fd5b81356001600160401b0381111561529157fe5b6152a4601f8201601f1916602001615eb7565b8181528460208386010111156152b8578283fd5b816020850160208301379081016020019190915292915050565b80356002811061104f57600080fd5b80356003811061104f57600080fd5b600060208284031215615301578081fd5b8135610b6b81615ef7565b60006020828403121561531d578081fd5b8151610b6b81615ef7565b6000806040838503121561533a578081fd5b823561534581615ef7565b9150602083013561535581615ef7565b809150509250929050565b600080600060608486031215615374578081fd5b833561537f81615ef7565b9250602084013561538f81615ef7565b929592945050506040919091013590565b600080600080600080600060e0888a0312156153ba578485fd5b87356153c581615ef7565b965060208801356153d581615ef7565b95506040880135945060608801359350608088013560ff811681146153f8578384fd5b9699959850939692959460a0840135945060c09093013592915050565b60008060408385031215615427578182fd5b823561543281615ef7565b946020939093013593505050565b600080600060608486031215615454578081fd5b83516001600160401b038082111561546a578283fd5b818601915086601f83011261547d578283fd5b8151602061548d61521283615eda565b82815281810190858301838502870184018c10156154a9578788fd5b8796505b848710156154d45780516154c081615ef7565b8352600196909601959183019183016154ad565b50918901519197509093505050808211156154ed578283fd5b506154fa868287016151f2565b925050604084015190509250925092565b6000602080838503121561551d578182fd5b82356001600160401b0380821115615533578384fd5b818501915085601f830112615546578384fd5b813561555461521282615eda565b818152848101908486016040808502870188018b1015615572578889fd5b8896505b848710156155ca5780828c03121561558c578889fd5b8051818101818110888211171561559f57fe5b82526155aa836152e1565b815282890135898201528452600196909601959287019290810190615576565b50909998505050505050505050565b600060208083850312156155eb578182fd5b82356001600160401b0380821115615601578384fd5b818501915085601f830112615614578384fd5b813561562261521282615eda565b818152848101908486016060808502870188018b1015615640578889fd5b8896505b848710156155ca5780828c03121561565a578889fd5b60408051828101818110898211171561566f57fe5b825261567a846152e1565b8152838a01358a82015281840135918101919091528452600196909601959287019290810190615644565b6000602082840312156156b6578081fd5b610b6b8261525e565b600080600080600080600060e0888a0312156156d9578081fd5b873596506020808901356156ec81615ef7565b965060408901356156fc81615ef7565b955060608901356001600160401b0380821115615717578384fd5b818b0191508b601f83011261572a578384fd5b813561573861521282615eda565b8082825285820191508585018f878886028801011115615756578788fd5b8795505b8386101561577857803583526001959095019491860191860161575a565b509850505060808b0135955060a08b0135945060c08b013592508083111561579e578384fd5b50506157ac8a828b0161526e565b91505092959891949750929550565b6000602082840312156157cc578081fd5b81356001600160e01b031981168114610b6b578182fd5b6000602082840312156157f4578081fd5b610b6b826152e1565b60006020828403121561580e578081fd5b5051919050565b60008060408385031215615827578182fd5b505080516020909101519092909150565b600060608284031215615849578081fd5b604051606081018181106001600160401b038211171561586557fe5b6040526158718361525e565b815260208301356001600160781b038116811461588c578283fd5b602082015260408301356001600160801b03811681146158aa578283fd5b60408201529392505050565b6000806000606084860312156158ca578081fd5b83356001600160401b03808211156158e0578283fd5b81860191506101208083890312156158f6578384fd5b6158ff81615eb7565b905061590a836152d2565b8152615918602084016151e7565b6020820152615929604084016151e7565b6040820152606083013560608201526080830135608082015260a083013560a082015261595860c084016151e7565b60c082015261596960e084016151e7565b60e08201526101008084013583811115615981578586fd5b61598d8a82870161526e565b9183019190915250976020870135975060409096013595945050505050565b6000602082840312156159bd578081fd5b5035919050565b600080604083850312156159d6578182fd5b50508035926020909101359150565b6000815180845260208085019450808401835b83811015615a14578151875295820195908201906001016159f8565b509495945050505050565b60038110615a2957fe5b9052565b615a38828251615ab2565b6020810151615a4a6040840182615ab2565b5060408101516080830152606081015160a0830152608081015160c083015260a081015160e083015260c08101516101008301525050565b80518252602081015160208301526040810151604083015260608101516060830152608081015160808301525050565b80518252602090810151910152565b6000828483379101908152919050565b6001600160a01b0391909116815260200190565b6020808252825182820181905260009190848201906040850190845b81811015615b1d57835183529284019291840191600101615b01565b50909695505050505050565b600060208252610b6b60208301846159e5565b600060408252615b4f60408301856159e5565b8281036020840152615b6181856159e5565b95945050505050565b60006101e0808352615b7e818401876159e5565b915050615b8e6020830185615a82565b6129f160c0830184615a2d565b6000610200808352615baf818401886159e5565b915050615bbf6020830186615a82565b615bcc60c0830185615a2d565b826101e083015295945050505050565b600060808252615bef60808301866159e5565b9050615bfe6020830185615ab2565b826060830152949350505050565b6000610260808352615c208184018a6159e5565b9150508660208301528515156040830152615c3e6060830186615a82565b615c4c610100830185615a2d565b6123b7610220830184615ab2565b901515815260200190565b92151583526020830191909152604082015260600190565b90815260200190565b968752602087019590955260408601939093526060850191909152608084015260a083015260c082015260e00190565b9586526020860194909452604085019290925260608401521515608083015260a082015260c00190565b83815260608101615cf46020830185615a1f565b826040830152949350505050565b84815260808101615d166020830186615a1f565b60408201939093526060015292915050565b600060a082019050848252615d41602083018551615a1f565b602084015160408381019190915290930151606082015260800152919050565b6000602080835283518082850152825b81811015615d8d57858101830151858201604001528201615d71565b81811115615d9e5783604083870101525b50601f01601f1916929092016040019392505050565b8151151581526020808301516001600160781b0316908201526040918201516001600160801b03169181019190915260600190565b905460ff811615158252600881901c6001600160781b0316602083015260801c604082015260600190565b6101c08101615e238285615a82565b615e3160a083018451615ab2565b6020830151615e4360e0840182615ab2565b5060408301516101208301526060830151610140830152608083015161016083015260a083015161018083015260c08301516101a08301529392505050565b6000838252604060208301526129f160408301846159e5565b918252602082015260400190565b60ff91909116815260200190565b6040518181016001600160401b0381118282101715615ed257fe5b604052919050565b60006001600160401b03821115615eed57fe5b5060209081020190565b6001600160a01b038116811461095f57600080fdfe53616665436173743a2076616c756520646f65736e27742066697420696e20616e20696e74323536a2646970667358221220e772c64a965ba1623ee2a51aa861ec2382ab2ed3578f0505d8d66f8b49edd97464736f6c63430007060033","bytecodeSha1":"1794f378a548a8502b4a1984df385c747b49c1bc","compiler":{"evm_version":"berlin","optimizer":{"enabled":true,"runs":200},"version":"0.7.6+commit.7338295f"},"contractName":"GyroECLPPoolFactory","language":"Solidity","natspec":{"kind":"dev","methods":{"create(string,string,address[],(int256,int256,int256,int256,int256),((int256,int256),(int256,int256),int256,int256,int256,int256,int256),uint256,bool,address,address,(bool,uint120,uint128),address)":{"details":"Deploys a new `GyroECLPPool`."},"getCreationCode()":{"details":"Returns the creation code of the contract this factory creates."},"getCreationCodeContracts()":{"details":"Returns the two addresses where the creation code of the contract crated by this factory is stored."},"getPauseConfiguration()":{"details":"Returns the current `TemporarilyPausable` configuration that will be applied to Pools created by this factory. `pauseWindowDuration` will decrease over time until it reaches zero, at which point both it and `bufferPeriodDuration` will be zero forever, meaning deployed Pools will not be pausable."},"getVault()":{"details":"Returns the Vault's address."},"isPoolFromFactory(address)":{"details":"Returns true if `pool` was created by this factory."}},"version":1},"opcodes":"PUSH1 0x80 PUSH1 0x40 MSTORE CALLVALUE DUP1 ISZERO PUSH2 0x10 JUMPI PUSH1 0x0 DUP1 REVERT JUMPDEST POP PUSH1 0x4 CALLDATASIZE LT PUSH2 0x92 JUMPI PUSH1 0x0 CALLDATALOAD PUSH1 0xE0 SHR DUP1 PUSH4 0x35371819 GT PUSH2 0x66 JUMPI DUP1 PUSH4 0x35371819 EQ PUSH2 0xF6 JUMPI DUP1 PUSH4 0x45BE0BD4 EQ PUSH2 0x109 JUMPI DUP1 PUSH4 0x6634B753 EQ PUSH2 0x11E JUMPI DUP1 PUSH4 0x8D928AF8 EQ PUSH2 0x13E JUMPI DUP1 PUSH4 0xD1464686 EQ PUSH2 0x146 JUMPI PUSH2 0x92 JUMP JUMPDEST DUP1 PUSH3 0xC194DB EQ PUSH2 0x97 JUMPI DUP1 PUSH4 0xBC7B4C4 EQ PUSH2 0xB5 JUMPI DUP1 PUSH4 0x174481FA EQ PUSH2 0xCA JUMPI DUP1 PUSH4 0x2DA47C40 EQ PUSH2 0xE0 JUMPI JUMPDEST PUSH1 0x0 DUP1 REVERT JUMPDEST PUSH2 0x9F PUSH2 0x14E JUMP JUMPDEST PUSH1 0x40 MLOAD PUSH2 0xAC SWAP2 SWAP1 PUSH2 0xC27 JUMP JUMPDEST PUSH1 0x40 MLOAD DUP1 SWAP2 SUB SWAP1 RETURN JUMPDEST PUSH2 0xBD PUSH2 0x16D JUMP JUMPDEST PUSH1 0x40 MLOAD PUSH2 0xAC SWAP2 SWAP1 PUSH2 0xBEE JUMP JUMPDEST PUSH2 0xD2 PUSH2 0x191 JUMP JUMPDEST PUSH1 0x40 MLOAD PUSH2 0xAC SWAP3 SWAP2 SWAP1 PUSH2 0xC02 JUMP JUMPDEST PUSH2 0xE8 PUSH2 0x1D7 JUMP JUMPDEST PUSH1 0x40 MLOAD PUSH2 0xAC SWAP3 SWAP2 SWAP1 PUSH2 0xD8D JUMP JUMPDEST PUSH2 0xBD PUSH2 0x104 CALLDATASIZE PUSH1 0x4 PUSH2 0x9C1 JUMP JUMPDEST PUSH2 0x241 JUMP JUMPDEST PUSH2 0x111 PUSH2 0x2F3 JUMP JUMPDEST PUSH1 0x40 MLOAD PUSH2 0xAC SWAP2 SWAP1 PUSH2 0xD84 JUMP JUMPDEST PUSH2 0x131 PUSH2 0x12C CALLDATASIZE PUSH1 0x4 PUSH2 0x9A5 JUMP JUMPDEST PUSH2 0x2FA JUMP JUMPDEST PUSH1 0x40 MLOAD PUSH2 0xAC SWAP2 SWAP1 PUSH2 0xC1C JUMP JUMPDEST PUSH2 0xBD PUSH2 0x31C JUMP JUMPDEST PUSH2 0x111 PUSH2 0x340 JUMP JUMPDEST PUSH1 0x60 PUSH2 0x168 PUSH1 0x40 MLOAD DUP1 PUSH1 0x20 ADD PUSH1 0x40 MSTORE DUP1 PUSH1 0x0 DUP2 MSTORE POP PUSH2 0x399 JUMP JUMPDEST SWAP1 POP SWAP1 JUMP JUMPDEST PUSH32 0x0 DUP2 JUMP JUMPDEST PUSH32 0x0 PUSH32 0x0 SWAP1 SWAP2 JUMP JUMPDEST PUSH1 0x0 DUP1 TIMESTAMP PUSH32 0x0 DUP2 LT ISZERO PUSH2 0x233 JUMPI DUP1 PUSH32 0x0 SUB SWAP3 POP PUSH3 0x278D00 SWAP2 POP PUSH2 0x23C JUMP JUMPDEST PUSH1 0x0 SWAP3 POP PUSH1 0x0 SWAP2 POP JUMPDEST POP SWAP1 SWAP2 JUMP JUMPDEST PUSH1 0x0 DUP1 PUSH2 0x252 DUP14 DUP14 DUP14 DUP12 DUP12 DUP12 PUSH2 0x472 JUMP JUMPDEST SWAP1 POP PUSH1 0x0 PUSH1 0x40 MLOAD DUP1 PUSH1 0xC0 ADD PUSH1 0x40 MSTORE DUP1 DUP4 DUP2 MSTORE PUSH1 0x20 ADD DUP13 DUP2 MSTORE PUSH1 0x20 ADD DUP12 DUP2 MSTORE PUSH1 0x20 ADD DUP8 PUSH1 0x1 PUSH1 0x1 PUSH1 0xA0 SHL SUB AND DUP2 MSTORE PUSH1 0x20 ADD DUP7 DUP2 MSTORE PUSH1 0x20 ADD DUP6 PUSH1 0x1 PUSH1 0x1 PUSH1 0xA0 SHL SUB AND DUP2 MSTORE POP SWAP1 POP PUSH2 0x2E1 DUP2 PUSH32 0x0 PUSH1 0x40 MLOAD PUSH1 0x20 ADD PUSH2 0x2CD SWAP3 SWAP2 SWAP1 PUSH2 0xC3A JUMP JUMPDEST PUSH1 0x40 MLOAD PUSH1 0x20 DUP2 DUP4 SUB SUB DUP2 MSTORE SWAP1 PUSH1 0x40 MSTORE PUSH2 0x527 JUMP JUMPDEST SWAP15 SWAP14 POP POP POP POP POP POP POP POP POP POP POP POP POP POP JUMP JUMPDEST PUSH3 0x76A700 DUP2 JUMP JUMPDEST PUSH1 0x1 PUSH1 0x1 PUSH1 0xA0 SHL SUB DUP2 AND PUSH1 0x0 SWAP1 DUP2 MSTORE PUSH1 0x20 DUP2 SWAP1 MSTORE PUSH1 0x40 SWAP1 KECCAK256 SLOAD PUSH1 0xFF AND JUMPDEST SWAP2 SWAP1 POP JUMP JUMPDEST PUSH32 0x0 SWAP1 JUMP JUMPDEST PUSH3 0x278D00 DUP2 JUMP JUMPDEST DUP1 MLOAD PUSH32 0x602038038060206000396000F3FEFEFEFEFEFEFEFEFEFEFEFEFEFEFEFEFEFEFE DUP1 DUP4 MSTORE PUSH1 0x0 SWAP2 PUSH1 0x20 DUP2 ADD DUP5 DUP5 CREATE SWAP1 DUP5 MSTORE SWAP2 POP PUSH2 0x393 PUSH1 0x1 PUSH1 0x1 PUSH1 0xA0 SHL SUB DUP4 AND ISZERO ISZERO PUSH2 0x1AC PUSH2 0x587 JUMP JUMPDEST POP SWAP2 SWAP1 POP JUMP JUMPDEST DUP1 MLOAD PUSH1 0x40 DUP1 MLOAD PUSH32 0x0 PUSH32 0x0 DUP2 DUP2 ADD DUP6 DUP2 ADD DUP5 DUP2 ADD PUSH1 0x20 SWAP1 DUP2 ADD SWAP1 SWAP7 MSTORE DUP1 DUP6 MSTORE SWAP4 SWAP6 PUSH32 0x0 SWAP6 SWAP3 SWAP5 PUSH32 0x0 SWAP5 SWAP4 DUP9 ADD DUP7 PUSH1 0x0 DUP3 DUP11 EXTCODECOPY DUP5 PUSH1 0x0 DUP9 DUP4 ADD DUP9 EXTCODECOPY POP PUSH1 0x20 DUP10 DUP2 ADD SWAP1 DUP10 DUP6 ADD ADD PUSH2 0x464 DUP2 DUP4 DUP7 PUSH2 0x599 JUMP JUMPDEST POP POP POP POP POP POP POP POP POP SWAP2 SWAP1 POP JUMP JUMPDEST PUSH2 0x47A PUSH2 0x664 JUMP JUMPDEST PUSH1 0x40 MLOAD DUP1 PUSH2 0x140 ADD PUSH1 0x40 MSTORE DUP1 PUSH2 0x48E PUSH2 0x31C JUMP JUMPDEST PUSH1 0x1 PUSH1 0x1 PUSH1 0xA0 SHL SUB AND DUP2 MSTORE PUSH1 0x20 ADD DUP9 DUP2 MSTORE PUSH1 0x20 ADD DUP8 DUP2 MSTORE PUSH1 0x20 ADD DUP7 PUSH1 0x0 DUP2 MLOAD DUP2 LT PUSH2 0x4B5 JUMPI INVALID JUMPDEST PUSH1 0x20 MUL PUSH1 0x20 ADD ADD MLOAD PUSH1 0x1 PUSH1 0x1 PUSH1 0xA0 SHL SUB AND DUP2 MSTORE PUSH1 0x20 ADD DUP7 PUSH1 0x1 DUP2 MLOAD DUP2 LT PUSH2 0x4D8 JUMPI INVALID JUMPDEST PUSH1 0x20 MUL PUSH1 0x20 ADD ADD MLOAD PUSH1 0x1 PUSH1 0x1 PUSH1 0xA0 SHL SUB AND DUP2 MSTORE PUSH1 0x20 ADD DUP6 DUP2 MSTORE PUSH1 0x20 ADD PUSH3 0x76A700 DUP2 MSTORE PUSH1 0x20 ADD PUSH3 0x278D00 DUP2 MSTORE PUSH1 0x20 ADD DUP5 ISZERO ISZERO DUP2 MSTORE PUSH1 0x20 ADD DUP4 PUSH1 0x1 PUSH1 0x1 PUSH1 0xA0 SHL SUB AND DUP2 MSTORE POP SWAP1 POP SWAP7 SWAP6 POP POP POP POP POP POP JUMP JUMPDEST PUSH1 0x0 DUP1 PUSH2 0x533 DUP4 PUSH2 0x5D7 JUMP JUMPDEST PUSH1 0x1 PUSH1 0x1 PUSH1 0xA0 SHL SUB DUP2 AND PUSH1 0x0 DUP2 DUP2 MSTORE PUSH1 0x20 DUP2 SWAP1 MSTORE PUSH1 0x40 DUP1 DUP3 KECCAK256 DUP1 SLOAD PUSH1 0xFF NOT AND PUSH1 0x1 OR SWAP1 SSTORE MLOAD SWAP3 SWAP4 POP SWAP1 SWAP2 PUSH32 0x83A48FBCFC991335314E74D0496AAB6A1987E992DDC85DDDBCC4D6DD6EF2E9FC SWAP2 SWAP1 LOG2 SWAP3 SWAP2 POP POP JUMP JUMPDEST DUP2 PUSH2 0x595 JUMPI PUSH2 0x595 DUP2 PUSH2 0x611 JUMP JUMPDEST POP POP JUMP JUMPDEST JUMPDEST PUSH1 0x20 DUP2 LT PUSH2 0x5B9 JUMPI DUP2 MLOAD DUP4 MSTORE PUSH1 0x20 SWAP3 DUP4 ADD SWAP3 SWAP1 SWAP2 ADD SWAP1 PUSH1 0x1F NOT ADD PUSH2 0x59A JUMP JUMPDEST SWAP1 MLOAD DUP3 MLOAD PUSH1 0x20 SWAP3 SWAP1 SWAP3 SUB PUSH2 0x100 EXP PUSH1 0x0 NOT ADD DUP1 NOT SWAP1 SWAP2 AND SWAP2 AND OR SWAP1 MSTORE JUMP JUMPDEST PUSH1 0x0 DUP1 PUSH2 0x5E3 DUP4 PUSH2 0x399 JUMP JUMPDEST SWAP1 POP PUSH1 0x0 DUP2 MLOAD PUSH1 0x20 DUP4 ADD PUSH1 0x0 CREATE SWAP1 POP PUSH1 0x1 PUSH1 0x1 PUSH1 0xA0 SHL SUB DUP2 AND PUSH2 0x60A JUMPI RETURNDATASIZE PUSH1 0x0 DUP1 RETURNDATACOPY RETURNDATASIZE PUSH1 0x0 REVERT JUMPDEST SWAP4 SWAP3 POP POP POP JUMP JUMPDEST PUSH3 0x461BCD PUSH1 0xE5 SHL PUSH1 0x0 SWAP1 DUP2 MSTORE PUSH1 0x20 PUSH1 0x4 MSTORE PUSH1 0x7 PUSH1 0x24 MSTORE PUSH7 0x42414C23000030 PUSH1 0xA DUP1 DUP5 DIV DUP2 DUP2 MOD PUSH1 0x30 SWAP1 DUP2 ADD PUSH1 0x8 SHL SWAP6 DUP4 SWAP1 MOD SWAP6 SWAP1 SWAP6 ADD SWAP1 DUP3 SWAP1 DIV SWAP2 DUP3 MOD SWAP1 SWAP5 ADD PUSH1 0x10 SHL SWAP4 SWAP1 SWAP4 ADD ADD PUSH1 0xC8 SHL PUSH1 0x44 MSTORE PUSH1 0x64 SWAP1 REVERT JUMPDEST PUSH1 0x40 MLOAD DUP1 PUSH2 0x140 ADD PUSH1 0x40 MSTORE DUP1 PUSH1 0x0 PUSH1 0x1 PUSH1 0x1 PUSH1 0xA0 SHL SUB AND DUP2 MSTORE PUSH1 0x20 ADD PUSH1 0x60 DUP2 MSTORE PUSH1 0x20 ADD PUSH1 0x60 DUP2 MSTORE PUSH1 0x20 ADD PUSH1 0x0 PUSH1 0x1 PUSH1 0x1 PUSH1 0xA0 SHL SUB AND DUP2 MSTORE PUSH1 0x20 ADD PUSH1 0x0 PUSH1 0x1 PUSH1 0x1 PUSH1 0xA0 SHL SUB AND DUP2 MSTORE PUSH1 0x20 ADD PUSH1 0x0 DUP2 MSTORE PUSH1 0x20 ADD PUSH1 0x0 DUP2 MSTORE PUSH1 0x20 ADD PUSH1 0x0 DUP2 MSTORE PUSH1 0x20 ADD PUSH1 0x0 ISZERO ISZERO DUP2 MSTORE PUSH1 0x20 ADD PUSH1 0x0 PUSH1 0x1 PUSH1 0x1 PUSH1 0xA0 SHL SUB AND DUP2 MSTORE POP SWAP1 JUMP JUMPDEST DUP1 CALLDATALOAD PUSH2 0x317 DUP2 PUSH2 0xDBF JUMP JUMPDEST PUSH1 0x0 DUP3 PUSH1 0x1F DUP4 ADD SLT PUSH2 0x6F8 JUMPI DUP1 DUP2 REVERT JUMPDEST DUP2 CALLDATALOAD PUSH1 0x20 PUSH8 0xFFFFFFFFFFFFFFFF DUP3 GT ISZERO PUSH2 0x70E JUMPI INVALID JUMPDEST DUP1 DUP3 MUL PUSH2 0x71C DUP3 DUP3 ADD PUSH2 0xD9B JUMP JUMPDEST DUP4 DUP2 MSTORE DUP3 DUP2 ADD SWAP1 DUP7 DUP5 ADD DUP4 DUP9 ADD DUP6 ADD DUP10 LT ISZERO PUSH2 0x736 JUMPI DUP7 DUP8 REVERT JUMPDEST DUP7 SWAP4 POP JUMPDEST DUP6 DUP5 LT ISZERO PUSH2 0x761 JUMPI DUP1 CALLDATALOAD PUSH2 0x74D DUP2 PUSH2 0xDBF JUMP JUMPDEST DUP4 MSTORE PUSH1 0x1 SWAP4 SWAP1 SWAP4 ADD SWAP3 SWAP2 DUP5 ADD SWAP2 DUP5 ADD PUSH2 0x73A JUMP JUMPDEST POP SWAP8 SWAP7 POP POP POP POP POP POP POP JUMP JUMPDEST DUP1 CALLDATALOAD DUP1 ISZERO ISZERO DUP2 EQ PUSH2 0x317 JUMPI PUSH1 0x0 DUP1 REVERT JUMPDEST PUSH1 0x0 DUP3 PUSH1 0x1F DUP4 ADD SLT PUSH2 0x78D JUMPI DUP1 DUP2 REVERT JUMPDEST DUP2 CALLDATALOAD PUSH8 0xFFFFFFFFFFFFFFFF DUP2 GT ISZERO PUSH2 0x7A1 JUMPI INVALID JUMPDEST PUSH2 0x7B4 PUSH1 0x1F DUP3 ADD PUSH1 0x1F NOT AND PUSH1 0x20 ADD PUSH2 0xD9B JUMP JUMPDEST DUP2 DUP2 MSTORE DUP5 PUSH1 0x20 DUP4 DUP7 ADD ADD GT ISZERO PUSH2 0x7C8 JUMPI DUP3 DUP4 REVERT JUMPDEST DUP2 PUSH1 0x20 DUP6 ADD PUSH1 0x20 DUP4 ADD CALLDATACOPY SWAP1 DUP2 ADD PUSH1 0x20 ADD SWAP2 SWAP1 SWAP2 MSTORE SWAP3 SWAP2 POP POP JUMP JUMPDEST PUSH1 0x0 PUSH1 0x60 DUP3 DUP5 SUB SLT ISZERO PUSH2 0x7F3 JUMPI DUP1 DUP2 REVERT JUMPDEST PUSH1 0x40 MLOAD PUSH1 0x60 DUP2 ADD DUP2 DUP2 LT PUSH8 0xFFFFFFFFFFFFFFFF DUP3 GT OR ISZERO PUSH2 0x810 JUMPI INVALID JUMPDEST PUSH1 0x40 MSTORE SWAP1 POP DUP1 PUSH2 0x81F DUP4 PUSH2 0x76D JUMP JUMPDEST DUP2 MSTORE PUSH1 0x20 DUP4 ADD CALLDATALOAD PUSH1 0x1 PUSH1 0x1 PUSH1 0x78 SHL SUB DUP2 AND DUP2 EQ PUSH2 0x83B JUMPI PUSH1 0x0 DUP1 REVERT JUMPDEST PUSH1 0x20 DUP3 ADD MSTORE PUSH1 0x40 DUP4 ADD CALLDATALOAD PUSH1 0x1 PUSH1 0x1 PUSH1 0x80 SHL SUB DUP2 AND DUP2 EQ PUSH2 0x85A JUMPI PUSH1 0x0 DUP1 REVERT JUMPDEST PUSH1 0x40 SWAP2 SWAP1 SWAP2 ADD MSTORE SWAP3 SWAP2 POP POP JUMP JUMPDEST PUSH1 0x0 PUSH2 0x120 DUP3 DUP5 SUB SLT ISZERO PUSH2 0x879 JUMPI DUP1 DUP2 REVERT JUMPDEST PUSH1 0x40 MLOAD PUSH1 0xE0 DUP2 ADD DUP2 DUP2 LT PUSH8 0xFFFFFFFFFFFFFFFF DUP3 GT OR ISZERO PUSH2 0x896 JUMPI INVALID JUMPDEST PUSH1 0x40 MSTORE SWAP1 POP DUP1 PUSH2 0x8A6 DUP5 DUP5 PUSH2 0x95D JUMP JUMPDEST DUP2 MSTORE PUSH2 0x8B5 DUP5 PUSH1 0x40 DUP6 ADD PUSH2 0x95D JUMP JUMPDEST PUSH1 0x20 DUP3 ADD MSTORE PUSH1 0x80 DUP4 ADD CALLDATALOAD PUSH1 0x40 DUP3 ADD MSTORE PUSH1 0xA0 DUP4 ADD CALLDATALOAD PUSH1 0x60 DUP3 ADD MSTORE PUSH1 0xC0 DUP4 ADD CALLDATALOAD PUSH1 0x80 DUP3 ADD MSTORE PUSH1 0xE0 DUP4 ADD CALLDATALOAD PUSH1 0xA0 DUP3 ADD MSTORE PUSH2 0x100 DUP4 ADD CALLDATALOAD PUSH1 0xC0 DUP3 ADD MSTORE POP SWAP3 SWAP2 POP POP JUMP JUMPDEST PUSH1 0x0 PUSH1 0xA0 DUP3 DUP5 SUB SLT ISZERO PUSH2 0x905 JUMPI DUP1 DUP2 REVERT JUMPDEST PUSH1 0x40 MLOAD PUSH1 0xA0 DUP2 ADD DUP2 DUP2 LT PUSH8 0xFFFFFFFFFFFFFFFF DUP3 GT OR ISZERO PUSH2 0x922 JUMPI INVALID JUMPDEST DUP1 PUSH1 0x40 MSTORE POP DUP1 SWAP2 POP DUP3 CALLDATALOAD DUP2 MSTORE PUSH1 0x20 DUP4 ADD CALLDATALOAD PUSH1 0x20 DUP3 ADD MSTORE PUSH1 0x40 DUP4 ADD CALLDATALOAD PUSH1 0x40 DUP3 ADD MSTORE PUSH1 0x60 DUP4 ADD CALLDATALOAD PUSH1 0x60 DUP3 ADD MSTORE PUSH1 0x80 DUP4 ADD CALLDATALOAD PUSH1 0x80 DUP3 ADD MSTORE POP SWAP3 SWAP2 POP POP JUMP JUMPDEST PUSH1 0x0 PUSH1 0x40 DUP3 DUP5 SUB SLT ISZERO PUSH2 0x96E JUMPI DUP1 DUP2 REVERT JUMPDEST PUSH1 0x40 MLOAD PUSH1 0x40 DUP2 ADD DUP2 DUP2 LT PUSH8 0xFFFFFFFFFFFFFFFF DUP3 GT OR ISZERO PUSH2 0x98B JUMPI INVALID JUMPDEST PUSH1 0x40 MSTORE DUP3 CALLDATALOAD DUP2 MSTORE PUSH1 0x20 SWAP3 DUP4 ADD CALLDATALOAD SWAP3 DUP2 ADD SWAP3 SWAP1 SWAP3 MSTORE POP SWAP2 SWAP1 POP JUMP JUMPDEST PUSH1 0x0 PUSH1 0x20 DUP3 DUP5 SUB SLT ISZERO PUSH2 0x9B6 JUMPI DUP1 DUP2 REVERT JUMPDEST DUP2 CALLDATALOAD PUSH2 0x60A DUP2 PUSH2 0xDBF JUMP JUMPDEST PUSH1 0x0 DUP1 PUSH1 0x0 DUP1 PUSH1 0x0 DUP1 PUSH1 0x0 DUP1 PUSH1 0x0 DUP1 PUSH1 0x0 PUSH2 0x320 DUP13 DUP15 SUB SLT ISZERO PUSH2 0x9E2 JUMPI DUP7 DUP8 REVERT JUMPDEST PUSH8 0xFFFFFFFFFFFFFFFF DUP1 DUP14 CALLDATALOAD GT ISZERO PUSH2 0x9F8 JUMPI DUP8 DUP9 REVERT JUMPDEST PUSH2 0xA05 DUP15 DUP15 CALLDATALOAD DUP16 ADD PUSH2 0x77D JUMP JUMPDEST SWAP12 POP DUP1 PUSH1 0x20 DUP15 ADD CALLDATALOAD GT ISZERO PUSH2 0xA17 JUMPI DUP8 DUP9 REVERT JUMPDEST PUSH2 0xA27 DUP15 PUSH1 0x20 DUP16 ADD CALLDATALOAD DUP16 ADD PUSH2 0x77D JUMP JUMPDEST SWAP11 POP DUP1 PUSH1 0x40 DUP15 ADD CALLDATALOAD GT ISZERO PUSH2 0xA39 JUMPI DUP8 DUP9 REVERT JUMPDEST POP PUSH2 0xA4A DUP14 PUSH1 0x40 DUP15 ADD CALLDATALOAD DUP15 ADD PUSH2 0x6E8 JUMP JUMPDEST SWAP9 POP PUSH2 0xA59 DUP14 PUSH1 0x60 DUP15 ADD PUSH2 0x8F4 JUMP JUMPDEST SWAP8 POP PUSH2 0xA69 DUP14 PUSH2 0x100 DUP15 ADD PUSH2 0x867 JUMP JUMPDEST SWAP7 POP PUSH2 0x220 DUP13 ADD CALLDATALOAD SWAP6 POP PUSH2 0xA80 PUSH2 0x240 DUP14 ADD PUSH2 0x76D JUMP JUMPDEST SWAP5 POP PUSH2 0xA8F PUSH2 0x260 DUP14 ADD PUSH2 0x6DD JUMP JUMPDEST SWAP4 POP PUSH2 0xA9E PUSH2 0x280 DUP14 ADD PUSH2 0x6DD JUMP JUMPDEST SWAP3 POP PUSH2 0xAAE DUP14 PUSH2 0x2A0 DUP15 ADD PUSH2 0x7E2 JUMP JUMPDEST SWAP2 POP PUSH2 0xABD PUSH2 0x300 DUP14 ADD PUSH2 0x6DD JUMP JUMPDEST SWAP1 POP SWAP3 SWAP6 SWAP9 SWAP12 POP SWAP3 SWAP6 SWAP9 SWAP12 SWAP1 SWAP4 SWAP7 SWAP10 POP JUMP JUMPDEST PUSH1 0x1 PUSH1 0x1 PUSH1 0xA0 SHL SUB AND SWAP1 MSTORE JUMP JUMPDEST ISZERO ISZERO SWAP1 MSTORE JUMP JUMPDEST PUSH1 0x0 DUP2 MLOAD DUP1 DUP5 MSTORE DUP2 JUMPDEST DUP2 DUP2 LT ISZERO PUSH2 0xB07 JUMPI PUSH1 0x20 DUP2 DUP6 ADD DUP2 ADD MLOAD DUP7 DUP4 ADD DUP3 ADD MSTORE ADD PUSH2 0xAEB JUMP JUMPDEST DUP2 DUP2 GT ISZERO PUSH2 0xB18 JUMPI DUP3 PUSH1 0x20 DUP4 DUP8 ADD ADD MSTORE JUMPDEST POP PUSH1 0x1F ADD PUSH1 0x1F NOT AND SWAP3 SWAP1 SWAP3 ADD PUSH1 0x20 ADD SWAP3 SWAP2 POP POP JUMP JUMPDEST DUP1 MLOAD ISZERO ISZERO DUP3 MSTORE PUSH1 0x20 DUP1 DUP3 ADD MLOAD PUSH1 0x1 PUSH1 0x1 PUSH1 0x78 SHL SUB AND SWAP1 DUP4 ADD MSTORE PUSH1 0x40 SWAP1 DUP2 ADD MLOAD PUSH1 0x1 PUSH1 0x1 PUSH1 0x80 SHL SUB AND SWAP2 ADD MSTORE JUMP JUMPDEST PUSH2 0xB65 DUP3 DUP3 MLOAD PUSH2 0xBDF JUMP JUMPDEST PUSH1 0x20 DUP2 ADD MLOAD PUSH2 0xB77 PUSH1 0x40 DUP5 ADD DUP3 PUSH2 0xBDF JUMP JUMPDEST POP PUSH1 0x40 DUP2 ADD MLOAD PUSH1 0x80 DUP4 ADD MSTORE PUSH1 0x60 DUP2 ADD MLOAD PUSH1 0xA0 DUP4 ADD MSTORE PUSH1 0x80 DUP2 ADD MLOAD PUSH1 0xC0 DUP4 ADD MSTORE PUSH1 0xA0 DUP2 ADD MLOAD PUSH1 0xE0 DUP4 ADD MSTORE PUSH1 0xC0 DUP2 ADD MLOAD PUSH2 0x100 DUP4 ADD MSTORE POP POP JUMP JUMPDEST DUP1 MLOAD DUP3 MSTORE PUSH1 0x20 DUP2 ADD MLOAD PUSH1 0x20 DUP4 ADD MSTORE PUSH1 0x40 DUP2 ADD MLOAD PUSH1 0x40 DUP4 ADD MSTORE PUSH1 0x60 DUP2 ADD MLOAD PUSH1 0x60 DUP4 ADD MSTORE PUSH1 0x80 DUP2 ADD MLOAD PUSH1 0x80 DUP4 ADD MSTORE POP POP JUMP JUMPDEST DUP1 MLOAD DUP3 MSTORE PUSH1 0x20 SWAP1 DUP2 ADD MLOAD SWAP2 ADD MSTORE JUMP JUMPDEST PUSH1 0x1 PUSH1 0x1 PUSH1 0xA0 SHL SUB SWAP2 SWAP1 SWAP2 AND DUP2 MSTORE PUSH1 0x20 ADD SWAP1 JUMP JUMPDEST PUSH1 0x1 PUSH1 0x1 PUSH1 0xA0 SHL SUB SWAP3 DUP4 AND DUP2 MSTORE SWAP2 AND PUSH1 0x20 DUP3 ADD MSTORE PUSH1 0x40 ADD SWAP1 JUMP JUMPDEST SWAP1 ISZERO ISZERO DUP2 MSTORE PUSH1 0x20 ADD SWAP1 JUMP JUMPDEST PUSH1 0x0 PUSH1 0x20 DUP3 MSTORE PUSH2 0x60A PUSH1 0x20 DUP4 ADD DUP5 PUSH2 0xAE2 JUMP JUMPDEST PUSH1 0x0 PUSH1 0x40 DUP3 MSTORE DUP4 MLOAD PUSH2 0x280 PUSH1 0x40 DUP5 ADD MSTORE PUSH2 0xC59 PUSH2 0x2C0 DUP5 ADD DUP3 MLOAD PUSH2 0xACF JUMP JUMPDEST PUSH1 0x20 DUP2 ADD MLOAD PUSH2 0x140 PUSH2 0x2E0 DUP6 ADD MSTORE PUSH2 0xC75 PUSH2 0x400 DUP6 ADD DUP3 PUSH2 0xAE2 JUMP JUMPDEST SWAP1 POP PUSH1 0x40 DUP3 ADD MLOAD PUSH2 0x2BF NOT DUP6 DUP4 SUB ADD PUSH2 0x300 DUP7 ADD MSTORE PUSH2 0xC94 DUP3 DUP3 PUSH2 0xAE2 JUMP JUMPDEST SWAP2 POP POP PUSH1 0x60 DUP3 ADD MLOAD PUSH2 0xCAA PUSH2 0x320 DUP7 ADD DUP3 PUSH2 0xACF JUMP JUMPDEST POP PUSH1 0x80 DUP3 ADD MLOAD PUSH2 0xCBE PUSH2 0x340 DUP7 ADD DUP3 PUSH2 0xACF JUMP JUMPDEST POP PUSH1 0xA0 DUP3 ADD MLOAD PUSH2 0x360 DUP6 ADD MSTORE PUSH1 0xC0 DUP3 ADD MLOAD PUSH2 0x380 DUP6 ADD MSTORE PUSH1 0xE0 DUP3 ADD MLOAD PUSH2 0x3A0 DUP6 ADD MSTORE PUSH2 0x100 DUP1 DUP4 ADD MLOAD PUSH2 0xCF5 PUSH2 0x3C0 DUP8 ADD DUP3 PUSH2 0xADC JUMP JUMPDEST POP PUSH2 0x120 DUP4 ADD MLOAD SWAP3 POP PUSH2 0xD0C PUSH2 0x3E0 DUP7 ADD DUP5 PUSH2 0xACF JUMP JUMPDEST PUSH1 0x20 DUP8 ADD MLOAD SWAP3 POP PUSH2 0xD20 PUSH1 0x60 DUP7 ADD DUP5 PUSH2 0xBAF JUMP JUMPDEST PUSH1 0x40 DUP8 ADD MLOAD SWAP3 POP PUSH2 0xD33 DUP2 DUP7 ADD DUP5 PUSH2 0xB5A JUMP JUMPDEST POP PUSH1 0x60 DUP7 ADD MLOAD SWAP2 POP PUSH2 0xD49 PUSH2 0x220 DUP6 ADD DUP4 PUSH2 0xACF JUMP JUMPDEST PUSH1 0x80 DUP7 ADD MLOAD SWAP2 POP PUSH2 0xD5E PUSH2 0x240 DUP6 ADD DUP4 PUSH2 0xB2D JUMP JUMPDEST PUSH1 0xA0 DUP7 ADD MLOAD SWAP2 POP PUSH2 0xD73 PUSH2 0x2A0 DUP6 ADD DUP4 PUSH2 0xACF JUMP JUMPDEST SWAP2 POP PUSH2 0x60A SWAP1 POP PUSH1 0x20 DUP4 ADD DUP5 PUSH2 0xACF JUMP JUMPDEST SWAP1 DUP2 MSTORE PUSH1 0x20 ADD SWAP1 JUMP JUMPDEST SWAP2 DUP3 MSTORE PUSH1 0x20 DUP3 ADD MSTORE PUSH1 0x40 ADD SWAP1 JUMP JUMPDEST PUSH1 0x40 MLOAD DUP2 DUP2 ADD PUSH8 0xFFFFFFFFFFFFFFFF DUP2 GT DUP3 DUP3 LT OR ISZERO PUSH2 0xDB7 JUMPI INVALID JUMPDEST PUSH1 0x40 MSTORE SWAP2 SWAP1 POP JUMP JUMPDEST PUSH1 0x1 PUSH1 0x1 PUSH1 0xA0 SHL SUB DUP2 AND DUP2 EQ PUSH2 0xDD4 JUMPI PUSH1 0x0 DUP1 REVERT JUMPDEST POP JUMP INVALID LOG2 PUSH5 0x6970667358 0x22 SLT KECCAK256 PUSH5 0x946D422647 SUB CODESIZE MULMOD 0xBD 0x5F 0xC2 DUP2 LOG0 0x49 STATICCALL BLOCKHASH 0x4D 0xA5 0xB8 ADD 0x26 0xB7 REVERT GASPRICE PUSH26 0x3439E0012EF464736F6C63430007060033000000000000000000 ","sha1":"e8a0f193abb3131118b1d29c3f9d9e37121e235d","source":"// SPDX-License-Identifier: LicenseRef-Gyro-1.0\n// for information on licensing please see the README in the GitHub repository <https://github.com/gyrostable/concentrated-lps>.\n\npragma solidity 0.7.6;\npragma experimental ABIEncoderV2;\n\nimport \"@balancer-labs/v2-vault/contracts/interfaces/IVault.sol\";\n\nimport \"@balancer-labs/v2-pool-utils/contracts/factories/BasePoolSplitCodeFactory.sol\";\nimport \"@balancer-labs/v2-pool-utils/contracts/factories/FactoryWidePauseWindow.sol\";\n\nimport \"../../interfaces/IGyroECLPPoolFactory.sol\";\nimport \"../../interfaces/ICappedLiquidity.sol\";\nimport \"./GyroECLPPool.sol\";\n\ncontract GyroECLPPoolFactory is IGyroECLPPoolFactory, BasePoolSplitCodeFactory, FactoryWidePauseWindow {\n    address public immutable gyroConfigAddress;\n\n    uint256 public constant PAUSE_WINDOW_DURATION = 90 days;\n    uint256 public constant BUFFER_PERIOD_DURATION = 30 days;\n\n    constructor(IVault vault, address _gyroConfigAddress) BasePoolSplitCodeFactory(vault, type(GyroECLPPool).creationCode) {\n        _grequire(_gyroConfigAddress != address(0), GyroErrors.ZERO_ADDRESS);\n        _grequire(address(vault) != address(0), GyroErrors.ZERO_ADDRESS);\n        gyroConfigAddress = _gyroConfigAddress;\n    }\n\n    /**\n     * @dev Deploys a new `GyroECLPPool`.\n     */\n    function create(\n        string memory name,\n        string memory symbol,\n        IERC20[] memory tokens,\n        GyroECLPMath.Params memory eclpParams,\n        GyroECLPMath.DerivedParams memory derivedECLPParams,\n        uint256 swapFeePercentage,\n        bool oracleEnabled,\n        address owner,\n        address capManager,\n        ICappedLiquidity.CapParams memory capParams,\n        address pauseManager\n    ) external override returns (address) {\n        ExtensibleWeightedPool2Tokens.NewPoolParams memory baseParams = _makePoolParams(\n            name,\n            symbol,\n            tokens,\n            swapFeePercentage,\n            oracleEnabled,\n            owner\n        );\n\n        GyroECLPPool.GyroParams memory params = GyroECLPPool.GyroParams({\n            baseParams: baseParams,\n            eclpParams: eclpParams,\n            derivedEclpParams: derivedECLPParams,\n            capManager: capManager,\n            capParams: capParams,\n            pauseManager: pauseManager\n        });\n\n        return _create(abi.encode(params, gyroConfigAddress));\n    }\n\n    function _makePoolParams(\n        string memory name,\n        string memory symbol,\n        IERC20[] memory tokens,\n        uint256 swapFeePercentage,\n        bool oracleEnabled,\n        address owner\n    ) internal view returns (ExtensibleWeightedPool2Tokens.NewPoolParams memory) {\n        return\n            ExtensibleWeightedPool2Tokens.NewPoolParams({\n                vault: getVault(),\n                name: name,\n                symbol: symbol,\n                token0: tokens[0],\n                token1: tokens[1],\n                swapFeePercentage: swapFeePercentage,\n                pauseWindowDuration: PAUSE_WINDOW_DURATION,\n                bufferPeriodDuration: BUFFER_PERIOD_DURATION,\n                oracleEnabled: oracleEnabled,\n                owner: owner\n            });\n    }\n}\n","sourcePath":"contracts/eclp/GyroECLPPoolFactory.sol","type":"contract","deployment":{"address":"0x4C818c579431052E92b89434E00AE729D8aDDF17","chainid":"137","blockHeight":35699521}}