{"abi":[{"inputs":[{"internalType":"contract IVault","name":"vault","type":"address"},{"internalType":"address","name":"_gyroConfigAddress","type":"address"}],"stateMutability":"nonpayable","type":"constructor","name":"constructor"},{"anonymous":false,"inputs":[{"indexed":true,"internalType":"address","name":"pool","type":"address"}],"name":"PoolCreated","type":"event"},{"inputs":[],"name":"BUFFER_PERIOD_DURATION","outputs":[{"internalType":"uint256","name":"","type":"uint256"}],"stateMutability":"view","type":"function"},{"inputs":[],"name":"PAUSE_WINDOW_DURATION","outputs":[{"internalType":"uint256","name":"","type":"uint256"}],"stateMutability":"view","type":"function"},{"inputs":[{"internalType":"string","name":"name","type":"string"},{"internalType":"string","name":"symbol","type":"string"},{"internalType":"contract IERC20[]","name":"tokens","type":"address[]"},{"components":[{"internalType":"int256","name":"alpha","type":"int256"},{"internalType":"int256","name":"beta","type":"int256"},{"internalType":"int256","name":"c","type":"int256"},{"internalType":"int256","name":"s","type":"int256"},{"internalType":"int256","name":"lambda","type":"int256"}],"internalType":"struct GyroECLPMath.Params","name":"eclpParams","type":"tuple"},{"components":[{"components":[{"internalType":"int256","name":"x","type":"int256"},{"internalType":"int256","name":"y","type":"int256"}],"internalType":"struct GyroECLPMath.Vector2","name":"tauAlpha","type":"tuple"},{"components":[{"internalType":"int256","name":"x","type":"int256"},{"internalType":"int256","name":"y","type":"int256"}],"internalType":"struct GyroECLPMath.Vector2","name":"tauBeta","type":"tuple"},{"internalType":"int256","name":"u","type":"int256"},{"internalType":"int256","name":"v","type":"int256"},{"internalType":"int256","name":"w","type":"int256"},{"internalType":"int256","name":"z","type":"int256"},{"internalType":"int256","name":"dSq","type":"int256"}],"internalType":"struct GyroECLPMath.DerivedParams","name":"derivedECLPParams","type":"tuple"},{"internalType":"address[]","name":"rateProviders","type":"address[]"},{"internalType":"uint256","name":"swapFeePercentage","type":"uint256"},{"internalType":"address","name":"owner","type":"address"},{"internalType":"address","name":"capManager","type":"address"},{"components":[{"internalType":"bool","name":"capEnabled","type":"bool"},{"internalType":"uint120","name":"perAddressCap","type":"uint120"},{"internalType":"uint128","name":"globalCap","type":"uint128"}],"internalType":"struct ICappedLiquidity.CapParams","name":"capParams","type":"tuple"},{"internalType":"address","name":"pauseManager","type":"address"}],"name":"create","outputs":[{"internalType":"address","name":"","type":"address"}],"stateMutability":"nonpayable","type":"function"},{"inputs":[],"name":"getCreationCode","outputs":[{"internalType":"bytes","name":"","type":"bytes"}],"stateMutability":"view","type":"function"},{"inputs":[],"name":"getCreationCodeContracts","outputs":[{"internalType":"address","name":"contractA","type":"address"},{"internalType":"address","name":"contractB","type":"address"}],"stateMutability":"view","type":"function"},{"inputs":[],"name":"getPauseConfiguration","outputs":[{"internalType":"uint256","name":"pauseWindowDuration","type":"uint256"},{"internalType":"uint256","name":"bufferPeriodDuration","type":"uint256"}],"stateMutability":"view","type":"function"},{"inputs":[],"name":"getVault","outputs":[{"internalType":"contract IVault","name":"","type":"address"}],"stateMutability":"view","type":"function"},{"inputs":[],"name":"gyroConfigAddress","outputs":[{"internalType":"address","name":"","type":"address"}],"stateMutability":"view","type":"function"},{"inputs":[{"internalType":"address","name":"pool","type":"address"}],"name":"isPoolFromFactory","outputs":[{"internalType":"bool","name":"","type":"bool"}],"stateMutability":"view","type":"function"}],"bytecode":"6101606040523480156200001257600080fd5b50604051620071a3380380620071a383398101604081905262000035916200028a565b816040518060200162000048906200027c565b601f1982820381018352601f909101166040528051819060006002820460a081905280830360e081905281855290915083620000908162000139602090811b6200038d17901c565b60601b6001600160601b0319166080528285018051838252620000bf8262000139602090811b6200038d17901c565b6001600160601b0319606091821b811660c0529690935290529590951b90911661010052505050426276a700016101205250620001096001600160a01b038216151560696200018d565b620001216001600160a01b038316151560696200018d565b60601b6001600160601b0319166101405250620002de565b80517f602038038060206000396000f3fefefefefefefefefefefefefefefefefefefe808352600091602081018484f09084529150620001876001600160a01b03831615156101ac620001a2565b50919050565b816200019e576200019e81620001b3565b5050565b816200019e576200019e81620001c8565b620001c5816223aca960e91b6200021b565b50565b62461bcd60e51b6000908152602060045260076024526642414c23000030600a808404818106603090810160081b95839006959095019082900491820690940160101b939093010160c81b604452606490fd5b62461bcd60e51b600090815260206004526007602452600a808404818106603090810160081b958390069590950190829004918206850160101b01602363ffffff0060e086901c160160181b0190930160c81b60445260e882901c90606490fd5b615f84806200121f83390190565b600080604083850312156200029d578182fd5b8251620002aa81620002c8565b6020840151909250620002bd81620002c8565b809150509250929050565b6001600160a01b0381168114620001c557600080fd5b60805160601c60a05160c05160601c60e0516101005160601c610120516101405160601c610ecd620003526000398061016f52806103305250806101dd528061020652508061026c5250806103e75250806101b45280610463525080610408525080610193528061043f5250610ecd6000f3fe608060405234801561001057600080fd5b50600436106100925760003560e01c806345be0bd41161006657806345be0bd4146100f65780636634b7531461010b5780638d928af81461012b57806390ca668414610133578063d14646861461014657610092565b8062c194db146100975780630bc7b4c4146100b5578063174481fa146100ca5780632da47c40146100e0575b600080fd5b61009f61014e565b6040516100ac9190610d59565b60405180910390f35b6100bd61016d565b6040516100ac9190610d20565b6100d2610191565b6040516100ac929190610d34565b6100e86101d7565b6040516100ac929190610e2f565b6100fe610241565b6040516100ac9190610e26565b61011e610119366004610a23565b610248565b6040516100ac9190610d4e565b6100bd61026a565b6100bd610141366004610a3f565b61028e565b6100fe610386565b6060610168604051806020016040528060008152506103df565b905090565b7f000000000000000000000000000000000000000000000000000000000000000081565b7f00000000000000000000000000000000000000000000000000000000000000007f00000000000000000000000000000000000000000000000000000000000000009091565b600080427f000000000000000000000000000000000000000000000000000000000000000081101561023357807f000000000000000000000000000000000000000000000000000000000000000003925062278d00915061023c565b60009250600091505b509091565b6276a70081565b6001600160a01b03811660009081526020819052604090205460ff165b919050565b7f000000000000000000000000000000000000000000000000000000000000000090565b60008061029e8d8d8d8a8a6104b8565b905060006040518061010001604052808381526020018c81526020018b81526020018a6000815181106102cd57fe5b60200260200101516001600160a01b031681526020018a6001815181106102f057fe5b60200260200101516001600160a01b03168152602001876001600160a01b03168152602001868152602001856001600160a01b03168152509050610374817f0000000000000000000000000000000000000000000000000000000000000000604051602001610360929190610d6c565b604051602081830303815290604052610564565b9e9d5050505050505050505050505050565b62278d0081565b80517f602038038060206000396000f3fefefefefefefefefefefefefefefefefefefe808352600091602081018484f090845291506103d96001600160a01b03831615156101ac6105c4565b50919050565b8051604080517f00000000000000000000000000000000000000000000000000000000000000007f0000000000000000000000000000000000000000000000000000000000000000818101858101848101602090810190965280855293957f00000000000000000000000000000000000000000000000000000000000000009592947f000000000000000000000000000000000000000000000000000000000000000094938801866000828a3c846000888301883c50602089810190898501016104aa8183866105d6565b505050505050505050919050565b6104c06106a1565b6040518061012001604052806104d461026a565b6001600160a01b03168152602001878152602001868152602001856000815181106104fb57fe5b60200260200101516001600160a01b031681526020018560018151811061051e57fe5b60200260200101516001600160a01b031681526020018481526020016276a700815260200162278d008152602001836001600160a01b0316815250905095945050505050565b60008061057083610614565b6001600160a01b038116600081815260208190526040808220805460ff191660011790555192935090917f83a48fbcfc991335314e74d0496aab6a1987e992ddc85dddbcc4d6dd6ef2e9fc9190a292915050565b816105d2576105d28161064e565b5050565b5b602081106105f6578151835260209283019290910190601f19016105d7565b905182516020929092036101000a6000190180199091169116179052565b600080610620836103df565b905060008151602083016000f090506001600160a01b038116610647573d6000803e3d6000fd5b9392505050565b62461bcd60e51b6000908152602060045260076024526642414c23000030600a808404818106603090810160081b95839006959095019082900491820690940160101b939093010160c81b604452606490fd5b60405180610120016040528060006001600160a01b03168152602001606081526020016060815260200160006001600160a01b0316815260200160006001600160a01b0316815260200160008152602001600081526020016000815260200160006001600160a01b031681525090565b803561026581610e7f565b600082601f83011261072c578081fd5b8135602061074161073c83610e61565b610e3d565b828152818101908583018385028701840188101561075d578586fd5b855b8581101561078457813561077281610e7f565b8452928401929084019060010161075f565b5090979650505050505050565b600082601f8301126107a1578081fd5b813560206107b161073c83610e61565b82815281810190858301838502870184018810156107cd578586fd5b855b858110156107845781356107e281610e7f565b845292840192908401906001016107cf565b600082601f830112610804578081fd5b813567ffffffffffffffff81111561081857fe5b61082b601f8201601f1916602001610e3d565b81815284602083860101111561083f578283fd5b816020850160208301379081016020019190915292915050565b60006060828403121561086a578081fd5b6040516060810181811067ffffffffffffffff8211171561088757fe5b6040529050808235801515811461089d57600080fd5b815260208301356001600160781b03811681146108b957600080fd5b602082015260408301356001600160801b03811681146108d857600080fd5b6040919091015292915050565b600061012082840312156108f7578081fd5b60405160e0810181811067ffffffffffffffff8211171561091457fe5b60405290508061092484846109db565b815261093384604085016109db565b60208201526080830135604082015260a0830135606082015260c0830135608082015260e083013560a082015261010083013560c08201525092915050565b600060a08284031215610983578081fd5b60405160a0810181811067ffffffffffffffff821117156109a057fe5b806040525080915082358152602083013560208201526040830135604082015260608301356060820152608083013560808201525092915050565b6000604082840312156109ec578081fd5b6040516040810181811067ffffffffffffffff82111715610a0957fe5b604052823581526020928301359281019290925250919050565b600060208284031215610a34578081fd5b813561064781610e7f565b60008060008060008060008060008060006103208c8e031215610a60578687fd5b67ffffffffffffffff808d351115610a76578788fd5b610a838e8e358f016107f4565b9b508060208e01351115610a95578788fd5b610aa58e60208f01358f016107f4565b9a508060408e01351115610ab7578788fd5b610ac78e60408f01358f01610791565b9950610ad68e60608f01610972565b9850610ae68e6101008f016108e5565b9750806102208e01351115610af9578687fd5b50610b0b8d6102208e01358e0161071c565b95506102408c01359450610b226102608d01610711565b9350610b316102808d01610711565b9250610b418d6102a08e01610859565b9150610b506103008d01610711565b90509295989b509295989b9093969950565b6001600160a01b03169052565b60008151808452815b81811015610b9457602081850181015186830182015201610b78565b81811115610ba55782602083870101525b50601f01601f19169290920160200192915050565b8051151582526020808201516001600160781b0316908301526040908101516001600160801b0316910152565b610bf2828251610d11565b6020810151610c046040840182610d11565b5060408101516080830152606081015160a0830152608081015160c083015260a081015160e083015260c08101516101008301525050565b6000610120610c4c848451610b62565b6020830151816020860152610c6382860182610b6f565b91505060408301518482036040860152610c7d8282610b6f565b9150506060830151610c926060860182610b62565b506080830151610ca56080860182610b62565b5060a083015160a085015260c083015160c085015260e083015160e085015261010080840151610cd782870182610b62565b5090949350505050565b80518252602081015160208301526040810151604083015260608101516060830152608081015160808301525050565b80518252602090810151910152565b6001600160a01b0391909116815260200190565b6001600160a01b0392831681529116602082015260400190565b901515815260200190565b6000602082526106476020830184610b6f565b60006040825283516102c06040840152610d8a610300840182610c3c565b90506020850151610d9e6060850182610ce1565b506040850151610db2610100850182610be7565b506060850151610dc6610220850182610b62565b506080850151610dda610240850182610b62565b5060a0850151610dee610260850182610b62565b5060c0850151610e02610280850182610bba565b5060e0850151610e166102e0850182610b62565b5090506106476020830184610b62565b90815260200190565b918252602082015260400190565b60405181810167ffffffffffffffff81118282101715610e5957fe5b604052919050565b600067ffffffffffffffff821115610e7557fe5b5060209081020190565b6001600160a01b0381168114610e9457600080fd5b5056fea26469706673582212201d711e779cc3722084ea6d9cb7939f0597fcf15100f6df9e4459b36f40ad045064736f6c634300070600336104a06040527f6e71edae12b1b97f4d1f60370fef10105fa2faae0126114a169c64845d6126c9610120526706f05b59d3b20000610200819052610220526000610240523480156200005057600080fd5b5060405162005f8438038062005f84833981016040819052620000739162000f8a565b8160e001518260a001518360c0015184600001518060c001518160e001518260200151836040015184600001518280604051806040016040528060018152602001603160f81b81525085858a6101000151336001600160a01b031660001b806080818152505050806001600160a01b031660a0816001600160a01b031660601b815250505081600390805190602001906200011092919062000b87565b5080516200012690600490602084019062000b87565b505060058054601260ff1990911617905550815160209283012060c052805191012060e052507f8b73c3c69bb8fe3d512ecc4cf759cc79239f7b179b0ffacaa9a75d522b39400f6101005260601b6001600160601b03191661014052506200019990506276a700831115610194620006ca565b620001ad62278d00821115610195620006ca565b42919091016101608190520161018052604080516002808252606082018352600092602083019080368337019050509050816060015181600081518110620001f157fe5b60200260200101906001600160a01b031690816001600160a01b0316815250508160800151816001815181106200022457fe5b60200260200101906001600160a01b031690816001600160a01b0316815250506200025a81620006df60201b620019531760201c565b60a08201516200026a90620006eb565b81516040516309b2760f60e01b81526000916001600160a01b0316906309b2760f906200029d9060029060040162001176565b602060405180830381600087803b158015620002b857600080fd5b505af1158015620002cd573d6000803e3d6000fd5b505050506040513d601f19601f82011682018060405250810190620002f3919062000f71565b83516040805160028082526060820183529394506001600160a01b03909216926366a9c7d2928592879290602083019080368337019050506040518463ffffffff1660e01b81526004016200034b93929190620010dc565b600060405180830381600087803b1580156200036657600080fd5b505af11580156200037b573d6000803e3d6000fd5b5050506101a082905250606080840180516001600160601b031990831b81166101c052608086015190921b9091166101e05251620003b99062000774565b610260526080830151620003cd9062000774565b61028052505060408051808201909152600e81526d1b9bdd08185d5d1a1bdc9a5e995960921b602082015290506001600160a01b0383166200042d5760405162461bcd60e51b81526004016200042491906200118b565b60405180910390fd5b50600b80546001600160a01b0319166001600160a01b039384161790558051600a8054602084015160409094015160ff1990911692151592909217610100600160801b0319166101006001600160781b0390941693909302929092176001600160801b03908116600160801b9190921602179055620004b29082161515606962000822565b600c80546001600160a01b0319166001600160a01b03928316179055620004df9082161515607862000822565b620004f982602001516200083360201b620019611760201c565b7ff468331437e1ec2fec64fc27f23a28b085a09e90f385338d4b58cb638607977760016040516200052b9190620010d1565b60405180910390a160208201516040808401519051636e70c2ef60e01b815273__GyroECLPMath__________________________92636e70c2ef926200057492600401620011c0565b60006040518083038186803b1580156200058d57600080fd5b505af4158015620005a2573d6000803e3d6000fd5b505050507f614fd1489cdee8181582fbbc1933d6870cd06c6f22d314b97a650ffa547c6ccd6001604051620005d89190620010d1565b60405180910390a160208281015180518183015160408084015160608086015160809687015161032052610300526102e0919091526102c0929092526102a09290925281860151805180519086015182870151805197015194830151838501518488015160a086015160c0909601516104405261042095909552610400949094526103e0939093526103c0929092526103a093909352610380949094526103609390935261034052600d80546001600160a01b0319166001600160a01b03949094169390931790925580830151811b6001600160601b031990811661046052919092015190911b1661048052620012b8565b81620006db57620006db816200091e565b5050565b80620006db8162000971565b6200070064e8d4a5100082101560cb620006ca565b6200071867016345785d8a000082111560ca620006ca565b6200073481600854620009fb60201b62001a3e1790919060201c565b6008556040517fa9ba3ffe0b6c366b81232caab38605a0699ad5398d6cce76f91ee809e322dafc906200076990839062001258565b60405180910390a150565b600080826001600160a01b031663313ce5676040518163ffffffff1660e01b815260040160206040518083038186803b158015620007b157600080fd5b505afa158015620007c6573d6000803e3d6000fd5b505050506040513d601f19601f82011682018060405250810190620007ec91906200109f565b60ff16905060006200080b60128362000a2160201b62001a4c1760201c565b600a0a670de0b6b3a764000002925050505b919050565b81620006db57620006db8162000a39565b620008628160600151600013158015620008595750670de0b6b3a7640000826060015113155b61016362000822565b620008908160400151600013158015620008595750670de0b6b3a76400008260400151131561016362000822565b604080518082018252606083015181529082015160208201526000620008b7828062000a4b565b9050620008e7670de0b6b3a763fc188212801590620008de5750670de0b6b3a76403e88213155b61016462000822565b6200091983608001516000131580156200091057506a52b7d2dcc80cd2e4000000846080015113155b61016862000822565b505050565b62461bcd60e51b6000908152602060045260076024526642414c23000030600a808404818106603090810160081b95839006959095019082900491820690940160101b939093010160c81b604452606490fd5b6002815110156200098257620009f8565b6000816000815181106200099257fe5b602002602001015190506000600190505b825181101562000919576000838281518110620009bc57fe5b60200260200101519050620009ed816001600160a01b0316846001600160a01b0316106065620006ca60201b60201c565b9150600101620009a3565b50565b600062000a1a8260568562000aa260201b62001a62179092919060201c565b9392505050565b600062000a33838311156001620006ca565b50900390565b620009f8816223aca960e91b62000ab7565b600062000a1a62000a738360200151856020015162000b1860201b62001a781790919060201c565b8351855162000a8e9162000b18602090811b62001a7817901c565b62000b5960201b62001ab41790919060201c565b6001600160401b03811b1992909216911b1790565b62461bcd60e51b600090815260206004526007602452600a808404818106603090810160081b958390069590950190829004918206850160101b01602363ffffff0060e086901c160160181b0190930160c81b60445260e882901c90606490fd5b600082820283158062000b3457508284828162000b3157fe5b05145b62000b475762000b4760006003620006ca565b670de0b6b3a764000090059392505050565b60008282018183121562000b705783811262000b75565b838112155b62000a1a5762000a1a600080620006ca565b828054600181600116156101000203166002900490600052602060002090601f01602090048101928262000bbf576000855562000c0a565b82601f1062000bda57805160ff191683800117855562000c0a565b8280016001018555821562000c0a579182015b8281111562000c0a57825182559160200191906001019062000bed565b5062000c1892915062000c1c565b5090565b5b8082111562000c18576000815560010162000c1d565b80516001600160a01b03811681146200081d57600080fd5b600082601f83011262000c5c578081fd5b81516001600160401b0381111562000c7057fe5b62000c85601f8201601f191660200162001261565b81815284602083860101111562000c9a578283fd5b62000cad82602083016020870162001285565b949350505050565b60006060828403121562000cc7578081fd5b604051606081016001600160401b038111828210171562000ce457fe5b80604052508091508251801515811462000cfd57600080fd5b815260208301516001600160781b038116811462000d1a57600080fd5b602082015260408301516001600160801b038116811462000d3a57600080fd5b6040919091015292915050565b6000610120828403121562000d5a578081fd5b60405160e081016001600160401b038111828210171562000d7757fe5b60405290508062000d89848462000f28565b815262000d9a846040850162000f28565b60208201526080830151604082015260a0830151606082015260c0830151608082015260e083015160a082015261010083015160c08201525092915050565b600061012080838503121562000ded578182fd5b62000df88162001261565b91505062000e068262000c33565b815260208201516001600160401b038082111562000e2357600080fd5b62000e318583860162000c4b565b6020840152604084015191508082111562000e4b57600080fd5b5062000e5a8482850162000c4b565b60408301525062000e6e6060830162000c33565b606082015262000e816080830162000c33565b608082015260a082015160a082015260c082015160c082015260e082015160e082015261010062000eb481840162000c33565b9082015292915050565b600060a0828403121562000ed0578081fd5b60405160a081016001600160401b038111828210171562000eed57fe5b806040525080915082518152602083015160208201526040830151604082015260608301516060820152608083015160808201525092915050565b60006040828403121562000f3a578081fd5b604080519081016001600160401b038111828210171562000f5757fe5b604052825181526020928301519281019290925250919050565b60006020828403121562000f83578081fd5b5051919050565b6000806040838503121562000f9d578081fd5b82516001600160401b038082111562000fb4578283fd5b908401906102c0828703121562000fc9578283fd5b62000fd661010062001261565b82518281111562000fe5578485fd5b62000ff38882860162000dd9565b82525062001005876020850162000ebe565b6020820152620010198760c0850162000d47565b60408201526200102d6101e0840162000c33565b606082015262001041610200840162000c33565b608082015262001055610220840162000c33565b60a08201526200106a87610240850162000cb5565b60c08201526200107e6102a0840162000c33565b60e08201529350620010969150506020840162000c33565b90509250929050565b600060208284031215620010b1578081fd5b815160ff8116811462000a1a578182fd5b80518252602090810151910152565b901515815260200190565b60006060820185835260206060818501528186518084526080860191508288019350845b81811015620011275784516001600160a01b03168352938301939183019160010162001100565b505084810360408601528551808252908201925081860190845b81811015620011685782516001600160a01b03168552938301939183019160010162001141565b509298975050505050505050565b60208101600383106200118557fe5b91905290565b6000602082528251806020840152620011ac81604085016020870162001285565b601f01601f19169190910160400192915050565b60006101c08201905083518252602084015160208301526040840151604083015260608401516060830152608084015160808301526200120560a083018451620010c2565b60208301516200121960e0840182620010c2565b5060408301516101208301526060830151610140830152608083015161016083015260a083015161018083015260c08301516101a08301529392505050565b90815260200190565b6040518181016001600160401b03811182821017156200127d57fe5b604052919050565b60005b83811015620012a257818101518382015260200162001288565b83811115620012b2576000848401525b50505050565b60805160a05160601c60c05160e05161010051610120516101405160601c61016051610180516101a0516101c05160601c6101e05160601c61020051610220516102405161026051610280516102a0516102c0516102e05161030051610320516103405161036051610380516103a0516103c0516103e0516104005161042051610440516104605160601c6104805160601c614b216200146360003980610a3e5280610b685280610ba4528061290352806129355280612a7d525080610a995280610ad55280610f32528061283652806128685280612a3352508061244b5250806124715250806124975250806124bf5250806124e45250806123b85250806123dd5250806124005250806124285250806122e752508061231152508061233b52508061236552508061238f525080612aa0525080612a565250508061387c5250806138a352508061126d52806112b4528061274d52508061122d52806112f452806127015250806107f7525080611c2c525080611c085250806110b05250806116e6525080611d48525080611d8a525080611d6952508061108c5250806110125250614b216000f3fe608060405234801561001057600080fd5b50600436106102955760003560e01c806374f3b0091161016757806398d5fdca116100ce578063abd13afe11610087578063abd13afe1461054f578063c0ff1a1514610557578063d505accf1461055f578063d5c096c414610572578063dd62ed3e14610585578063f89f27ed1461059857610295565b806398d5fdca146104fe5780639b02cdde146105065780639d2c110c1461050e578063a457c2d714610521578063a9059cbb14610534578063aaabadc51461054757610295565b80638456cb59116101205780638456cb59146104b8578063851c1bb3146104c057806387ec6817146104d3578063893d20e8146104e65780638d928af8146104ee57806395d89b41146104f657610295565b806374f3b0091461044057806376e54a46146104615780637be219a2146104745780637ecebe001461048a5780638002df181461049d578063828a7c34146104b057610295565b8063395093511161020b5780636028bfd4116101c45780636028bfd4146103de57806362ced092146103ff578063679aefce146104075780636d785a871461040f578063702ec0911461041757806370a082311461042d57610295565b806339509351146103775780633aeae0d31461038a5780633f4ba83a1461039f57806344bbdb55146103a75780634a6b0b15146103bc57806355c67628146103d657610295565b80631c0de0511161025d5780631c0de0511461031557806323b872dd1461032c578063313ce5671461033f5780633644e5151461035457806338e9922e1461035c57806338fff2d01461036f57610295565b806306fdde031461029a578063095ea7b3146102b85780630e608b30146102d857806316c38b3c146102ed57806318160ddd14610300575b600080fd5b6102a26105ad565b6040516102af9190614934565b60405180910390f35b6102cb6102c636600461432b565b610643565b6040516102af91906148c7565b6102eb6102e6366004614206565b61065a565b005b6102eb6102fb366004614356565b61070b565b61030861071f565b6040516102af91906148ea565b61031d610725565b6040516102af939291906148d2565b6102cb61033a366004614276565b61074e565b6103476107c4565b6040516102af9190614a7c565b6103086107cd565b6102eb61036a36600461463d565b6107dc565b6103086107f5565b6102cb61038536600461432b565b610819565b610392610854565b6040516102af9190614987565b6102eb61089f565b6103af610994565b6040516102af919061478b565b6103c46109a3565b6040516102af9695949392919061490a565b6103086109fe565b6103f16103ec366004614370565b610a0b565b6040516102af929190614a55565b6103af610a3c565b610308610a60565b6103af610a85565b61041f610a94565b6040516102af929190614a6e565b61030861043b366004614206565b610c39565b61045361044e366004614370565b610c58565b6040516102af9291906147b2565b6102eb61046f3660046144c7565b610ce8565b61047c610e0f565b6040516102af9291906149e7565b610308610498366004614206565b610e2f565b6102eb6104ab366004614206565b610e4a565b6103af610f30565b6102eb610f54565b6103086104ce36600461447c565b61100c565b6103f16104e1366004614370565b611065565b6103af61108a565b6103af6110ae565b6102a26110d2565b610308611133565b6103086111fe565b61030861051c366004614546565b611204565b6102cb61052f36600461432b565b6115a3565b6102cb61054236600461432b565b6115e1565b6103af6115ee565b6103af6115f8565b610308611607565b6102eb61056d3660046142b6565b6116b7565b610453610580366004614370565b611827565b61030861059336600461423e565b61190c565b6105a0611949565b6040516102af919061479f565b60038054604080516020601f60026000196101006001881615020190951694909404938401819004810282018101909252828152606093909290918301828280156106395780601f1061060e57610100808354040283529160200191610639565b820191906000526020600020905b81548152906001019060200180831161061c57829003601f168201915b5050505050905090565b6000610650338484611add565b5060015b92915050565b600b5460408051808201909152600e81526d1b9bdd08185d5d1a1bdc9a5e995960921b6020820152906001600160a01b031633146106b45760405162461bcd60e51b81526004016106ab9190614934565b60405180910390fd5b50600b80546001600160a01b0319166001600160a01b0383161790556040517fb8fd9afc34c38fcd13b9a3b7646482eb1fddcefb40af2c70609972816eba32089061070090839061478b565b60405180910390a150565b610713611b3f565b61071c81611b6d565b50565b60025490565b6000806000610732611be9565b15925061073d611c06565b9150610747611c2a565b9050909192565b60008061075b853361190c565b905061077f336001600160a01b03871614806107775750838210155b61019e611c4e565b61078a858585611c5c565b336001600160a01b038616148015906107a557506000198114155b156107b7576107b78533858403611add565b60019150505b9392505050565b60055460ff1690565b60006107d7611d44565b905090565b6107e4611b3f565b6107ec611e02565b61071c81611e17565b7f000000000000000000000000000000000000000000000000000000000000000090565b3360008181526001602090815260408083206001600160a01b0387168452909152812054909161065091859061084f9086611e80565b611add565b61085c6140c5565b5060408051606081018252600a5460ff81161515825261010081046001600160781b03166020830152600160801b90046001600160801b03169181019190915290565b600c546040805180820190915260118152703737ba103830bab9b29036b0b730b3b2b960791b6020820152906001600160a01b0316331461095e5760405162461bcd60e51b81526004018080602001828103825283818151815260200191508051906020019080838360005b8381101561092357818101518382015260200161090b565b50505050905090810190601f1680156109505780820380516001836020036101000a031916815260200191505b509250505060405180910390fd5b506109696000610713565b6040517f215385c8bfc731925ec8068d7baa50f6b6f34417cc7804f7273dc2c0b3db279090600090a1565b600d546001600160a01b031681565b600080600080600080600060085490506109bc81611e92565b96506109c781611e9e565b95506109d281611eab565b94506109dd81611eb8565b93506109e881611ec5565b92506109f381611ed2565b915050909192939495565b60006107d7600854611ed2565b60006060610a1b86516002611edf565b610a3089898989898989611eec61205a6120d8565b97509795505050505050565b7f000000000000000000000000000000000000000000000000000000000000000081565b60006107d7610a6d61071f565b610a7f610a78611607565b60026121eb565b9061220f565b600b546001600160a01b031681565b6000807f00000000000000000000000000000000000000000000000000000000000000006001600160a01b0316610ad357670de0b6b3a7640000610b64565b7f00000000000000000000000000000000000000000000000000000000000000006001600160a01b031663679aefce6040518163ffffffff1660e01b815260040160206040518083038186803b158015610b2c57600080fd5b505afa158015610b40573d6000803e3d6000fd5b505050506040513d601f19601f82011682018060405250810190610b649190614655565b91507f00000000000000000000000000000000000000000000000000000000000000006001600160a01b0316610ba257670de0b6b3a7640000610c33565b7f00000000000000000000000000000000000000000000000000000000000000006001600160a01b031663679aefce6040518163ffffffff1660e01b815260040160206040518083038186803b158015610bfb57600080fd5b505afa158015610c0f573d6000803e3d6000fd5b505050506040513d601f19601f82011682018060405250810190610c339190614655565b90509091565b6001600160a01b0381166000908152602081905260409020545b919050565b60608088610c82610c676110ae565b6001600160a01b0316336001600160a01b03161460cd611c4e565b610c97610c8d6107f5565b82146101f4611c4e565b610ca087612269565b6000806000610cb48d8d8d8d8d8d8d611eec565b925092509250610cc48c846122cb565b610ccd8261205a565b610cd68161205a565b909c909b509950505050505050505050565b600b5460408051808201909152600e81526d1b9bdd08185d5d1a1bdc9a5e995960921b6020820152906001600160a01b03163314610d395760405162461bcd60e51b81526004016106ab9190614934565b50600a5460408051808201909152601081526f1c1bdbdb081a5cc81d5b98d85c1c195960821b60208201529060ff16610d855760405162461bcd60e51b81526004016106ab9190614934565b508051600a8054602084015160408086015160ff19909316941515949094176fffffffffffffffffffffffffffffff0019166101006001600160781b0390921691909102176001600160801b03908116600160801b919092160217815590517f2abf5970d7bc1a2b36eaae52dd2cc353edb0337c7284ef8a01973081b4e0442491610700916149bc565b610e176140e5565b610e1f614114565b610e276122d5565b915091509091565b6001600160a01b031660009081526006602052604090205490565b600c546040805180820190915260118152703737ba103830bab9b29036b0b730b3b2b960791b60208201526001600160a01b0390911690338214610ecf5760405162461bcd60e51b815260206004820181815283516024840152835190928392604490910191908501908083836000831561092357818101518382015260200161090b565b50600c80546001600160a01b0319166001600160a01b03848116918217909255604080519284168352602083019190915280517f1ffccd1fa96f4fb3415df8048a0fd107344e262d2d246c85105e2a3f8f3e81989281900390910190a15050565b7f000000000000000000000000000000000000000000000000000000000000000081565b600c546040805180820190915260118152703737ba103830bab9b29036b0b730b3b2b960791b6020820152906001600160a01b03163314610fd65760405162461bcd60e51b815260206004820181815283516024840152835190928392604490910191908501908083836000831561092357818101518382015260200161090b565b50610fe16001610713565b6040517f681eace576127d0553b224436a09801fb47d042942cbff59d7d4ff04d8fa03d790600090a1565b604080517f00000000000000000000000000000000000000000000000000000000000000006020808301919091526001600160e01b03198416828401528251602481840301815260449092019092528051910120919050565b6000606061107586516002611edf565b610a308989898989898961250b61267a6120d8565b7f000000000000000000000000000000000000000000000000000000000000000090565b7f000000000000000000000000000000000000000000000000000000000000000090565b60048054604080516020601f60026000196101006001881615020190951694909404938401819004810282018101909252828152606093909290918301828280156106395780601f1061060e57610100808354040283529160200191610639565b60008061113e6126dc565b905060008061114b6122d5565b91509150600073__GyroECLPMath__________________________63d83ca8628585856040518463ffffffff1660e01b815260040161118c939291906147d7565b60206040518083038186803b1580156111a457600080fd5b505af41580156111b8573d6000803e3d6000fd5b505050506040513d601f19601f820116820180604052508101906111dc9190614655565b90506111ea84828585612792565b94506111f585612832565b94505050505090565b60095490565b600061120e611e02565b836080015161121e610c676110ae565b611229610c8d6107f5565b60007f00000000000000000000000000000000000000000000000000000000000000006001600160a01b031686602001516001600160a01b03161480156112a557507f00000000000000000000000000000000000000000000000000000000000000006001600160a01b031686604001516001600160a01b0316145b156112b257506001611343565b7f00000000000000000000000000000000000000000000000000000000000000006001600160a01b031686602001516001600160a01b031614801561132c57507f00000000000000000000000000000000000000000000000000000000000000006001600160a01b031686604001516001600160a01b0316145b1561133957506000611343565b61134360796129d2565b600061134e82612a25565b9050600061135c8315612a25565b90506113688783612b52565b96506113748682612b52565b95506000611383888886612b5e565b90506000806113906122d5565b9150915061139c61415d565b60008073__GyroECLPMath__________________________6378ace8578787876040518463ffffffff1660e01b81526004016113da939291906147d7565b604080518083038186803b1580156113f157600080fd5b505af4158015611405573d6000803e3d6000fd5b505050506040513d601f19601f8201168201806040525081019061142991906144a4565b6040805180820190915260029091028201815260208101919091529250600091506114519050565b8c51600181111561145e57fe5b141561150a57600061147c6114716109fe565b60608f015190612bf8565b905061149e611498828f60600151612c4d90919063ffffffff16565b88612b52565b60608e015260006114b38e878b888888612c63565b90507f4e1d56f7310a8c32b2267f756b19ba65019b4890068ce114a25009abe54de5ba8684836040516114e893929190614849565b60405180910390a16114fa8188612d06565b9a5050505050505050505061159b565b6115188c6060015186612b52565b60608d0152600061152d8d868a878787612d12565b90507f4e1d56f7310a8c32b2267f756b19ba65019b4890068ce114a25009abe54de5ba85838360405161156293929190614849565b60405180910390a16115748188612d5a565b90506115906115896115846109fe565b612d66565b8290612d8c565b995050505050505050505b509392505050565b6000806115b0338561190c565b90508083106115ca576115c533856000611add565b6115d7565b6115d73385858403611add565b5060019392505050565b6000610650338484611c5c565b60006107d7612df2565b600c546001600160a01b031681565b6000806116126126dc565b905060008061161f6122d5565b604051636c1e543160e11b8152919350915073__GyroECLPMath__________________________9063d83ca8629061165f908690869086906004016147d7565b60206040518083038186803b15801561167757600080fd5b505af415801561168b573d6000803e3d6000fd5b505050506040513d601f19601f820116820180604052508101906116af9190614655565b935050505090565b6116c58442111560d1611c4e565b6001600160a01b0380881660008181526006602090815260408083205481517f00000000000000000000000000000000000000000000000000000000000000008185015280830195909552948b166060850152608084018a905260a0840185905260c08085018a90528151808603909101815260e0909401905282519201919091209061175182612e6c565b9050600060018288888860405160008152602001604052604051808581526020018460ff1681526020018381526020018281526020019450505050506020604051602081039080840390855afa1580156117af573d6000803e3d6000fd5b5050604051601f19015191506117f190506001600160a01b038216158015906117e957508b6001600160a01b0316826001600160a01b0316145b6101f8611c4e565b6001600160a01b038b16600090815260066020526040902060018501905561181a8b8b8b611add565b5050505050505050505050565b60608088611836610c676110ae565b611841610c8d6107f5565b611849611e02565b600061185361071f565b6118c3576118638b8b8b88612eb8565b94509050611878620f424082101560cc611c4e565b6118866000620f4240613048565b61189589620f42408303613048565b61189e8461267a565b60408051600280825260608201835290916020830190803683370190505092506118fe565b6118cc88612269565b6118db8b8b8b8b8b8b8b61250b565b909550935090506118ec8982613048565b6118f58461267a565b6118fe8361205a565b505097509795505050505050565b60006119166110ae565b6001600160a01b0316826001600160a01b031614156119385750600019610654565b6119428383613052565b9050610654565b60606107d761307d565b8061195d816130ec565b5050565b61198d81606001516000131580156119855750670de0b6b3a7640000826060015113155b610163613165565b6119b881604001516000131580156119855750670de0b6b3a764000082604001511315610163613165565b6040805180820182526060830151815290820151602082015260006119dd8280613173565b9050611a0a670de0b6b3a763fc188212801590611a025750670de0b6b3a76403e88213155b610164613165565b611a398360800151600013158015611a3157506a52b7d2dcc80cd2e4000000846080015113155b610168613165565b505050565b60006107bd83836056611a62565b6000611a5c838311156001611c4e565b50900390565b67ffffffffffffffff811b1992909216911b1790565b6000828202831580611a92575082848281611a8f57fe5b05145b611aa257611aa260006003611c4e565b670de0b6b3a764000090059392505050565b600082820181831215611ac957838112611ace565b838112155b6107bd576107bd600080611c4e565b6001600160a01b03808416600081815260016020908152604080832094871680845294825291829020859055815185815291517f8c5be1e5ebec7d5bd14f71427d1e84f3dd0314c0f7b2291e5b200ac8c7c3b9259281900390910190a3505050565b6000611b566000356001600160e01b03191661100c565b905061071c611b6582336131a6565b610191611c4e565b8015611b8d57611b88611b7e611c06565b4210610193611c4e565b611ba2565b611ba2611b98611c2a565b42106101a9611c4e565b6007805482151560ff19909116811790915560408051918252517f9e3a5e37224532dea67b89face185703738a228a6e8a23dee546960180d3be649181900360200190a150565b6000611bf3611c2a565b4211806107d757505060075460ff161590565b7f000000000000000000000000000000000000000000000000000000000000000090565b7f000000000000000000000000000000000000000000000000000000000000000090565b8161195d5761195d816129d2565b611c736001600160a01b0384161515610198611c4e565b611c8a6001600160a01b0383161515610199611c4e565b611c95838383611a39565b6001600160a01b038316600090815260208190526040902054611cbb90826101a06132a8565b6001600160a01b038085166000908152602081905260408082209390935590841681522054611cea9082611e80565b6001600160a01b038084166000818152602081815260409182902094909455805185815290519193928716927fddf252ad1be2c89b69c2b068fc378daa952ba7f163c4a11628f55a4df523b3ef92918290030190a3505050565b60007f00000000000000000000000000000000000000000000000000000000000000007f00000000000000000000000000000000000000000000000000000000000000007f0000000000000000000000000000000000000000000000000000000000000000611db16132be565b3060405160200180868152602001858152602001848152602001838152602001826001600160a01b031681526020019550505050505060405160208183030381529060405280519060200120905090565b611e15611e0d611be9565b610192611c4e565b565b611e2a64e8d4a5100082101560cb611c4e565b611e4067016345785d8a000082111560ca611c4e565b600854611e4d9082611a3e565b6008556040517fa9ba3ffe0b6c366b81232caab38605a0699ad5398d6cce76f91ee809e322dafc906107009083906148ea565b60008282016107bd8482101583611c4e565b600061065482826132c2565b60006106548260166132c2565b600061065482602c6132e9565b600061065482604b6132f3565b60006106548260556132fb565b6000610654826056613305565b61195d8183146067611c4e565b6000606080600080611efc6122d5565b91509150611f08611be9565b1561200d57604051636c1e543160e11b815260009073__GyroECLPMath__________________________9063d83ca86290611f4b908d90879087906004016147d7565b60206040518083038186803b158015611f6357600080fd5b505af4158015611f77573d6000803e3d6000fd5b505050506040513d601f19601f82011682018060405250810190611f9b9190614655565b9050611fa681613313565b611fb08a88613340565b9096509450611fc98187611fc261071f565b600061338c565b60098190556040517fe1d39caf039c7dc6f364b1e29d1e67c4e330003a43f4991d50cf3e8840d95eac91611fff91849190614a6e565b60405180910390a150612023565b6120178987613340565b60001960095590955093505b6040805160028082526060820183528792879291906020830190803683370190505094509450945050509750975097945050505050565b6120818160008151811061206a57fe5b602002602001015161207c6001612a25565b61220f565b8160008151811061208e57fe5b6020026020010181815250506120bc816001815181106120aa57fe5b602002602001015161207c6000612a25565b816001815181106120c957fe5b60200260200101818152505050565b333014612196576000306001600160a01b03166000366040516120fc92919061477b565b6000604051808303816000865af19150503d8060008114612139576040519150601f19603f3d011682016040523d82523d6000602084013e61213e565b606091505b50509050806000811461214d57fe5b60046000803e6000516001600160e01b0319166343adbafb60e01b8114612178573d6000803e3d6000fd5b506020600460003e604060205260243d03602460403e601c3d016000f35b61219f86612269565b6000806121b58b8b8b8b8b8b8b8b63ffffffff16565b50915091506121c7818463ffffffff16565b8051601f1982018390526343adbafb603f1983015260200260231982016044820181fd5b60008282026107bd84158061220857508385838161220557fe5b04145b6003611c4e565b6000816122225761222260006004611c4e565b8261222f57506000610654565b670de0b6b3a76400008381029084828161224557fe5b04146122575761225760006005611c4e565b82818161226057fe5b04949350505050565b6122908160008151811061227957fe5b602002602001015161228b6001612a25565b6133e4565b8160008151811061229d57fe5b6020026020010181815250506120bc816001815181106122b957fe5b602002602001015161228b6000612a25565b61195d828261341d565b6122dd6140e5565b6122e5614114565b7f00000000000000000000000000000000000000000000000000000000000000006080808401919091527f00000000000000000000000000000000000000000000000000000000000000006060808501919091527f00000000000000000000000000000000000000000000000000000000000000006040808601919091527f00000000000000000000000000000000000000000000000000000000000000006020808701919091527f000000000000000000000000000000000000000000000000000000000000000086528451858201517f0000000000000000000000000000000000000000000000000000000000000000818401527f000000000000000000000000000000000000000000000000000000000000000090527f0000000000000000000000000000000000000000000000000000000000000000918101919091527f000000000000000000000000000000000000000000000000000000000000000090527f000000000000000000000000000000000000000000000000000000000000000060c08501527f000000000000000000000000000000000000000000000000000000000000000060a08501527f0000000000000000000000000000000000000000000000000000000000000000928401929092527f0000000000000000000000000000000000000000000000000000000000000000908301527f0000000000000000000000000000000000000000000000000000000000000000908201529091565b600060608060008061251b6122d5565b91509150600073__GyroECLPMath__________________________63d83ca8628b85856040518463ffffffff1660e01b815260040161255c939291906147d7565b60206040518083038186803b15801561257457600080fd5b505af4158015612588573d6000803e3d6000fd5b505050506040513d601f19601f820116820180604052508101906125ac9190614655565b90506125b781613313565b6000806125c48c8a6134d4565b600a54919350915060ff16156125ee576125ee826125e18f610c39565b6125e961071f565b61350e565b61260283836125fb61071f565b600161338c565b60098190556040517fe1d39caf039c7dc6f364b1e29d1e67c4e330003a43f4991d50cf3e8840d95eac9161263891869190614a6e565b60405180910390a16040805160028082526060820183528492849291906020830190803683370190505097509750975050505050509750975097945050505050565b6126a18160008151811061268a57fe5b602002602001015161269c6001612a25565b612d8c565b816000815181106126ae57fe5b6020026020010181815250506120bc816001815181106126ca57fe5b602002602001015161269c6000612a25565b604080516002808252606080830184529260208301908036833701905050905061272f7f000000000000000000000000000000000000000000000000000000000000000061272a6001612a25565b613620565b8160008151811061273c57fe5b6020026020010181815250506127767f000000000000000000000000000000000000000000000000000000000000000061272a6000612a25565b8160018151811061278357fe5b60200260200101818152505090565b600073__GyroECLPMath__________________________63c7fe78d08685856127ba896136c7565b6040518563ffffffff1660e01b81526004016127d99493929190614808565b60206040518083038186803b1580156127f157600080fd5b505af4158015612805573d6000803e3d6000fd5b505050506040513d601f19601f820116820180604052508101906128299190614655565b95945050505050565b60007f00000000000000000000000000000000000000000000000000000000000000006001600160a01b031615612901576128fe7f00000000000000000000000000000000000000000000000000000000000000006001600160a01b031663679aefce6040518163ffffffff1660e01b815260040160206040518083038186803b1580156128bf57600080fd5b505afa1580156128d3573d6000803e3d6000fd5b505050506040513d601f19601f820116820180604052508101906128f79190614655565b83906133e4565b91505b7f00000000000000000000000000000000000000000000000000000000000000006001600160a01b0316156129ce576129cb7f00000000000000000000000000000000000000000000000000000000000000006001600160a01b031663679aefce6040518163ffffffff1660e01b815260040160206040518083038186803b15801561298c57600080fd5b505afa1580156129a0573d6000803e3d6000fd5b505050506040513d601f19601f820116820180604052508101906129c49190614655565b839061220f565b91505b5090565b62461bcd60e51b6000908152602060045260076024526642414c23000030600a808404818106603090810160081b95839006959095019082900491820690940160101b939093010160c81b604452606490fd5b60008060008315612a7a57507f000000000000000000000000000000000000000000000000000000000000000090507f0000000000000000000000000000000000000000000000000000000000000000612ac0565b507f000000000000000000000000000000000000000000000000000000000000000090507f00000000000000000000000000000000000000000000000000000000000000005b6001600160a01b038216156107bd57612b4a826001600160a01b031663679aefce6040518163ffffffff1660e01b815260040160206040518083038186803b158015612b0b57600080fd5b505afa158015612b1f573d6000803e3d6000fd5b505050506040513d601f19601f82011682018060405250810190612b439190614655565b82906133e4565b949350505050565b60006107bd83836133e4565b60408051600280825260608083018452926020830190803683370190505090508115612bbd578381600081518110612b9257fe5b6020026020010181815250508281600181518110612bac57fe5b6020026020010181815250506107bd565b8281600081518110612bcb57fe5b6020026020010181815250508381600181518110612be557fe5b6020026020010181815250509392505050565b6000828202831580612c12575082848281612c0f57fe5b04145b612c2257612c2260006003611c4e565b80612c31576000915050610654565b670de0b6b3a764000060001982015b0460010191505092915050565b600082821115611a5c57611a5c60006001611c4e565b60608601516040516330ffa11b60e11b815260009173__GyroECLPMath__________________________916361ff423691612cab918a91908a908a908a908a90600401614879565b60206040518083038186803b158015612cc357600080fd5b505af4158015612cd7573d6000803e3d6000fd5b505050506040513d601f19601f82011682018060405250810190612cfb9190614655565b979650505050505050565b60006107bd838361220f565b6060860151604051633b18ce7b60e21b815260009173__GyroECLPMath__________________________9163ec6339ec91612cab918a91908a908a908a908a90600401614879565b60006107bd8383612d8c565b6000670de0b6b3a76400008210612d7e576000610654565b50670de0b6b3a76400000390565b600081612d9f57612d9f60006004611c4e565b82612dac57506000610654565b670de0b6b3a764000083810290848281612dc257fe5b0414612de657612de6670de0b6b3a7640000858381612ddd57fe5b04146005611c4e565b826001820381612c4057fe5b6000612dfc6110ae565b6001600160a01b031663aaabadc56040518163ffffffff1660e01b815260040160206040518083038186803b158015612e3457600080fd5b505afa158015612e48573d6000803e3d6000fd5b505050506040513d601f19601f820116820180604052508101906107d79190614222565b6000612e76611d44565b82604051602001808061190160f01b81525060020183815260200182815260200192505050604051602081830303815290604052805190602001209050919050565b600060606000612ec78461370b565b9050612ee26000826003811115612eda57fe5b1460ce611c4e565b6000612eed8561372a565b9050612efb81516002611edf565b612f0481612269565b600080612f0f6122d5565b91509150600073__GyroECLPMath__________________________63d83ca8628585856040518463ffffffff1660e01b8152600401612f50939291906147d7565b60206040518083038186803b158015612f6857600080fd5b505af4158015612f7c573d6000803e3d6000fd5b505050506040513d601f19601f82011682018060405250810190612fa09190614655565b90507faf65f1a72bf4f8bc48e8153858e1f7b307ce39c88361a677c0a79c2a1ae571ef81604051612fd191906148ea565b60405180910390a16000612fe785838686612792565b9050600061302f6130158388600081518110612fff57fe5b60200260200101516133e490919063ffffffff16565b8760018151811061302257fe5b6020026020010151611e80565b60099390935550909b939a509298505050505050505050565b61195d82826137de565b6001600160a01b03918216600090815260016020908152604080832093909416825291909152205490565b604080516002808252606080830184529260009291906020830190803683370190505090506130ac6001613873565b816000815181106130b957fe5b6020026020010181815250506130cf6000613873565b816001815181106130dc57fe5b6020908102919091010152905090565b6002815110156130fb5761071c565b60008160008151811061310a57fe5b602002602001015190506000600190505b8251811015611a3957600083828151811061313257fe5b6020026020010151905061315b816001600160a01b0316846001600160a01b0316106065611c4e565b915060010161311b565b8161195d5761195d816138c7565b60006107bd61319383602001518560200151611a7890919063ffffffff16565b835185516131a091611a78565b90611ab4565b600073ba1ba1ba1ba1ba1ba1ba1ba1ba1ba1ba1ba1ba1b6131c561108a565b6001600160a01b0316141580156131e057506131e0836138d7565b15613208576131ed61108a565b6001600160a01b0316336001600160a01b0316149050610654565b613210612df2565b6001600160a01b0316639be2a8848484306040518463ffffffff1660e01b815260040180848152602001836001600160a01b03168152602001826001600160a01b03168152602001935050505060206040518083038186803b15801561327557600080fd5b505afa158015613289573d6000803e3d6000fd5b505050506040513d602081101561329f57600080fd5b50519050610654565b60006132b78484111583611c4e565b5050900390565b4690565b600082821c623fffff16621fffff81136132dc5780612b4a565b623fffff19179392505050565b1c637fffffff1690565b1c6103ff1690565b1c60019081161490565b1c67ffffffffffffffff1690565b60008060008061332560095486613909565b935093509350935061333984848484613972565b5050505050565b60006060600061334f8461370b565b9050600181600381111561335f57fe5b14156133795761336f8585613998565b9093509150613384565b6133846101506129d2565b509250929050565b600081156133be5760006133aa846133a48888612bf8565b90612d8c565b90506133b686826139ca565b915050612b4a565b60006133ce84610a7f88886133e4565b90506133da8682612c4d565b9695505050505050565b60008282028315806133fe5750828482816133fb57fe5b04145b61340e5761340e60006003611c4e565b670de0b6b3a764000081612260565b6134346001600160a01b038316151561019b611c4e565b61344082600083611a39565b6001600160a01b03821660009081526020819052604090205461346690826101a16132a8565b6001600160a01b03831660009081526020819052604090205560025461348c90826139e2565b6002556040805182815290516000916001600160a01b038516917fddf252ad1be2c89b69c2b068fc378daa952ba7f163c4a11628f55a4df523b3ef9181900360200190a35050565b6000606060006134e38461370b565b905060038160038111156134f357fe5b14156135035761336f85856139f0565b6133846101366129d2565b60408051606081018252600a5460ff81161515825261010081046001600160781b031660208301819052600160801b9091046001600160801b0316928201929092529061355b85856139ca565b11156040518060400160405280601a81526020017f6f7665722061646472657373206c697175696469747920636170000000000000815250906135b15760405162461bcd60e51b81526004016106ab9190614934565b5060408101516001600160801b03166135ca85846139ca565b11156040518060400160405280601981526020017f6f76657220676c6f62616c206c69717569646974792063617000000000000000815250906133395760405162461bcd60e51b81526004016106ab9190614934565b600080600061362d6110ae565b6001600160a01b031663b05f8e486136436107f5565b876040518363ffffffff1660e01b81526004016136619291906148f3565b60806040518083038186803b15801561367957600080fd5b505afa15801561368d573d6000803e3d6000fd5b505050506040513d601f19601f820116820180604052508101906136b1919061466d565b50508181019450909250905061282983856133e4565b6000600160ff1b82106129ce5760405162461bcd60e51b8152600401808060200182810382526028815260200180614ac46028913960400191505060405180910390fd5b600081806020019051602081101561372257600080fd5b505192915050565b606081806020019051604081101561374157600080fd5b81516020830180516040519294929383019291908464010000000082111561376857600080fd5b90830190602082018581111561377d57600080fd5b825186602082028301116401000000008211171561379a57600080fd5b82525081516020918201928201910280838360005b838110156137c75781810151838201526020016137af565b505050509190910160405250929695505050505050565b6137ea60008383611a39565b6002546137f79082611e80565b6002556001600160a01b03821660009081526020819052604090205461381d9082611e80565b6001600160a01b0383166000818152602081815260408083209490945583518581529351929391927fddf252ad1be2c89b69c2b068fc378daa952ba7f163c4a11628f55a4df523b3ef9281900390910190a35050565b6000816138a0577f0000000000000000000000000000000000000000000000000000000000000000610654565b507f0000000000000000000000000000000000000000000000000000000000000000919050565b61071c816223aca960e91b613a15565b60006138e9631c74c91760e11b61100c565b82148061065457506139016350dd6ed960e01b61100c565b909114919050565b60008060008060008060008061391d613a76565b9350935093509350836000141561394257600097508796509094509250613969915050565b6000806139598c8c61395261071f565b8989613be8565b909a509850929650909450505050505b92959194509250565b8315613982576139828285613048565b8215613992576139928184613048565b50505050565b6000606060006139a784613c83565b905060006139bd86836139b861071f565b613ca5565b9196919550909350505050565b6000828201838110156107bd576107bd600080611c4e565b60006107bd838360016132a8565b6000606060006139ff84613c83565b905060006139bd8683613a1061071f565b613d2b565b62461bcd60e51b600090815260206004526007602452600a808404818106603090810160081b958390069590950190829004918206850160101b01602363ffffff0060e086901c160160181b0190930160c81b60445260e882901c90606490fd5b600d54600090819081908190613a9d906001600160a01b03163063045434c560e41b613dc7565b600d54613abb906001600160a01b03163063045434c560e41b613dee565b600d546040516321f8a72160e01b81526001600160a01b03909116906321f8a72190613afb906c4759524f5f545245415355525960981b906004016148ea565b60206040518083038186803b158015613b1357600080fd5b505afa158015613b27573d6000803e3d6000fd5b505050506040513d601f19601f82011682018060405250810190613b4b9190614222565b600d546040516321f8a72160e01b81526001600160a01b03909116906321f8a72190613b8a906b42414c5f545245415355525960a01b906004016148ea565b60206040518083038186803b158015613ba257600080fd5b505afa158015613bb6573d6000803e3d6000fd5b505050506040513d601f19601f82011682018060405250810190613bda9190614222565b935093509350935090919293565b600080868611613bfd57506000905080613c79565b6000613c1d85613c17613c108a8c612c4d565b89906133e4565b906133e4565b90506000613c35613c2e898b612c4d565b87906133e4565b90506000613c438983612c4d565b90506000613c51848361220f565b90506000613c5f88836133e4565b90506000613c6d8383612c4d565b91975090955050505050505b9550959350505050565b6000818060200190516040811015613c9a57600080fd5b506020015192915050565b6060835167ffffffffffffffff81118015613cbf57600080fd5b50604051908082528060200260200182016040528015613ce9578160200160208202803683370190505b50905060005b845181101561159b57613d0c83610a7f86888581518110612fff57fe5b828281518110613d1857fe5b6020908102919091010152600101613cef565b6060835167ffffffffffffffff81118015613d4557600080fd5b50604051908082528060200260200182016040528015613d6f578160200160208202803683370190505b50905060005b845181101561159b57613da8836133a486888581518110613d9257fe5b6020026020010151612bf890919063ffffffff16565b828281518110613db457fe5b6020908102919091010152600101613d75565b6000612b4a847550524f544f434f4c5f535741505f4645455f5045524360501b8486613e18565b6000612b4a847f50524f544f434f4c5f4645455f4759524f5f504f5254494f4e0000000000000084865b6040805160208082018690526001600160a01b03808516838501528351808403850181526060840180865281519184019190912063696eb37560e01b909152606484018190529351600094939189169263696eb3759260848082019391829003018186803b158015613e8957600080fd5b505afa158015613e9d573d6000803e3d6000fd5b505050506040513d6020811015613eb357600080fd5b505115613f3357856001600160a01b031663bd02d0f5826040518263ffffffff1660e01b81526004018082815260200191505060206040518083038186803b158015613efe57600080fd5b505afa158015613f12573d6000803e3d6000fd5b505050506040513d6020811015613f2857600080fd5b50519150612b4a9050565b6040805160208082018890528183018790528251808303840181526060830180855281519183019190912063696eb37560e01b9091526064830181905292516001600160a01b038a169263696eb375926084808301939192829003018186803b158015613f9f57600080fd5b505afa158015613fb3573d6000803e3d6000fd5b505050506040513d6020811015613fc957600080fd5b50511561404a57866001600160a01b031663bd02d0f5826040518263ffffffff1660e01b81526004018082815260200191505060206040518083038186803b15801561401457600080fd5b505afa158015614028573d6000803e3d6000fd5b505050506040513d602081101561403e57600080fd5b50519250612b4a915050565b866001600160a01b031663bd02d0f5876040518263ffffffff1660e01b81526004018082815260200191505060206040518083038186803b15801561408e57600080fd5b505afa1580156140a2573d6000803e3d6000fd5b505050506040513d60208110156140b857600080fd5b5051979650505050505050565b604080516060810182526000808252602082018190529181019190915290565b6040518060a0016040528060008152602001600081526020016000815260200160008152602001600081525090565b6040518060e0016040528061412761415d565b815260200161413461415d565b815260200160008152602001600081526020016000815260200160008152602001600081525090565b604051806040016040528060008152602001600081525090565b8035610c5381614aae565b80358015158114610c5357600080fd5b600082601f8301126141a2578081fd5b813567ffffffffffffffff8111156141b657fe5b6141c9601f8201601f1916602001614a8a565b8181528460208386010111156141dd578283fd5b816020850160208301379081016020019190915292915050565b803560028110610c5357600080fd5b600060208284031215614217578081fd5b81356107bd81614aae565b600060208284031215614233578081fd5b81516107bd81614aae565b60008060408385031215614250578081fd5b823561425b81614aae565b9150602083013561426b81614aae565b809150509250929050565b60008060006060848603121561428a578081fd5b833561429581614aae565b925060208401356142a581614aae565b929592945050506040919091013590565b600080600080600080600060e0888a0312156142d0578283fd5b87356142db81614aae565b965060208801356142eb81614aae565b95506040880135945060608801359350608088013560ff8116811461430e578384fd5b9699959850939692959460a0840135945060c09093013592915050565b6000806040838503121561433d578182fd5b823561434881614aae565b946020939093013593505050565b600060208284031215614367578081fd5b6107bd82614182565b600080600080600080600060e0888a03121561438a578081fd5b87359650602088013561439c81614aae565b955060408801356143ac81614aae565b9450606088013567ffffffffffffffff808211156143c8578283fd5b818a0191508a601f8301126143db578283fd5b8135818111156143e757fe5b602081026143f760208201614a8a565b80838252602082019150602086018f6020858901011115614416578788fd5b8796505b848710156144395780358352600196909601956020928301920161441a565b50985050505060808a0135945060a08a0135935060c08a0135915080821115614460578283fd5b5061446d8a828b01614192565b91505092959891949750929550565b60006020828403121561448d578081fd5b81356001600160e01b0319811681146107bd578182fd5b600080604083850312156144b6578182fd5b505080516020909101519092909150565b6000606082840312156144d8578081fd5b6040516060810181811067ffffffffffffffff821117156144f557fe5b60405261450183614182565b815260208301356001600160781b038116811461451c578283fd5b602082015260408301356001600160801b038116811461453a578283fd5b60408201529392505050565b60008060006060848603121561455a578081fd5b833567ffffffffffffffff80821115614571578283fd5b8186019150610120808389031215614587578384fd5b61459081614a8a565b905061459b836141f7565b81526145a960208401614177565b60208201526145ba60408401614177565b6040820152606083013560608201526080830135608082015260a083013560a08201526145e960c08401614177565b60c08201526145fa60e08401614177565b60e08201526101008084013583811115614612578586fd5b61461e8a828701614192565b9183019190915250976020870135975060409096013595945050505050565b60006020828403121561464e578081fd5b5035919050565b600060208284031215614666578081fd5b5051919050565b60008060008060808587031215614682578182fd5b84519350602085015192506040850151915060608501516146a281614aae565b939692955090935050565b6000815180845260208085019450808401835b838110156146dc578151875295820195908201906001016146c0565b509495945050505050565b6146f282825161476c565b6020810151614704604084018261476c565b5060408101516080830152606081015160a0830152608081015160c083015260a081015160e083015260c08101516101008301525050565b80518252602081015160208301526040810151604083015260608101516060830152608081015160808301525050565b80518252602090810151910152565b6000828483379101908152919050565b6001600160a01b0391909116815260200190565b6000602082526107bd60208301846146ad565b6000604082526147c560408301856146ad565b828103602084015261282981856146ad565b60006101e08083526147eb818401876146ad565b9150506147fb602083018561473c565b612b4a60c08301846146e7565b600061020080835261481c818401886146ad565b91505061482c602083018661473c565b61483960c08301856146e7565b826101e083015295945050505050565b60006080825261485c60808301866146ad565b905061486b602083018561476c565b826060830152949350505050565b600061026080835261488d8184018a6146ad565b91505086602083015285151560408301526148ab606083018661473c565b6148b96101008301856146e7565b612cfb61022083018461476c565b901515815260200190565b92151583526020830191909152604082015260600190565b90815260200190565b9182526001600160a01b0316602082015260400190565b9586526020860194909452604085019290925260608401521515608083015260a082015260c00190565b6000602080835283518082850152825b8181101561496057858101830151858201604001528201614944565b818111156149715783604083870101525b50601f01601f1916929092016040019392505050565b8151151581526020808301516001600160781b0316908201526040918201516001600160801b03169181019190915260600190565b905460ff811615158252600881901c6001600160781b0316602083015260801c604082015260600190565b6101c081016149f6828561473c565b614a0460a08301845161476c565b6020830151614a1660e084018261476c565b5060408301516101208301526060830151610140830152608083015161016083015260a083015161018083015260c08301516101a08301529392505050565b600083825260406020830152612b4a60408301846146ad565b918252602082015260400190565b60ff91909116815260200190565b60405181810167ffffffffffffffff81118282101715614aa657fe5b604052919050565b6001600160a01b038116811461071c57600080fdfe53616665436173743a2076616c756520646f65736e27742066697420696e20616e20696e74323536a2646970667358221220d791fac87b08543f4d57391f0cf0642b2059d11b73ea3a3650794e3d7863d23064736f6c63430007060033","bytecodeSha1":"71804a3cd85a8ff82b8355b8a12e1a0c48ba55b7","compiler":{"evm_version":"berlin","optimizer":{"enabled":true,"runs":200},"version":"0.7.6+commit.7338295f"},"contractName":"GyroECLPPoolFactory","language":"Solidity","natspec":{"kind":"dev","methods":{"create(string,string,address[],(int256,int256,int256,int256,int256),((int256,int256),(int256,int256),int256,int256,int256,int256,int256),address[],uint256,address,address,(bool,uint120,uint128),address)":{"details":"Deploys a new `GyroECLPPool`."},"getCreationCode()":{"details":"Returns the creation code of the contract this factory creates."},"getCreationCodeContracts()":{"details":"Returns the two addresses where the creation code of the contract crated by this factory is stored."},"getPauseConfiguration()":{"details":"Returns the current `TemporarilyPausable` configuration that will be applied to Pools created by this factory. `pauseWindowDuration` will decrease over time until it reaches zero, at which point both it and `bufferPeriodDuration` will be zero forever, meaning deployed Pools will not be pausable."},"getVault()":{"details":"Returns the Vault's address."},"isPoolFromFactory(address)":{"details":"Returns true if `pool` was created by this factory."}},"version":1},"opcodes":"PUSH1 0x80 PUSH1 0x40 MSTORE CALLVALUE DUP1 ISZERO PUSH2 0x10 JUMPI PUSH1 0x0 DUP1 REVERT JUMPDEST POP PUSH1 0x4 CALLDATASIZE LT PUSH2 0x92 JUMPI PUSH1 0x0 CALLDATALOAD PUSH1 0xE0 SHR DUP1 PUSH4 0x45BE0BD4 GT PUSH2 0x66 JUMPI DUP1 PUSH4 0x45BE0BD4 EQ PUSH2 0xF6 JUMPI DUP1 PUSH4 0x6634B753 EQ PUSH2 0x10B JUMPI DUP1 PUSH4 0x8D928AF8 EQ PUSH2 0x12B JUMPI DUP1 PUSH4 0x90CA6684 EQ PUSH2 0x133 JUMPI DUP1 PUSH4 0xD1464686 EQ PUSH2 0x146 JUMPI PUSH2 0x92 JUMP JUMPDEST DUP1 PUSH3 0xC194DB EQ PUSH2 0x97 JUMPI DUP1 PUSH4 0xBC7B4C4 EQ PUSH2 0xB5 JUMPI DUP1 PUSH4 0x174481FA EQ PUSH2 0xCA JUMPI DUP1 PUSH4 0x2DA47C40 EQ PUSH2 0xE0 JUMPI JUMPDEST PUSH1 0x0 DUP1 REVERT JUMPDEST PUSH2 0x9F PUSH2 0x14E JUMP JUMPDEST PUSH1 0x40 MLOAD PUSH2 0xAC SWAP2 SWAP1 PUSH2 0xD59 JUMP JUMPDEST PUSH1 0x40 MLOAD DUP1 SWAP2 SUB SWAP1 RETURN JUMPDEST PUSH2 0xBD PUSH2 0x16D JUMP JUMPDEST PUSH1 0x40 MLOAD PUSH2 0xAC SWAP2 SWAP1 PUSH2 0xD20 JUMP JUMPDEST PUSH2 0xD2 PUSH2 0x191 JUMP JUMPDEST PUSH1 0x40 MLOAD PUSH2 0xAC SWAP3 SWAP2 SWAP1 PUSH2 0xD34 JUMP JUMPDEST PUSH2 0xE8 PUSH2 0x1D7 JUMP JUMPDEST PUSH1 0x40 MLOAD PUSH2 0xAC SWAP3 SWAP2 SWAP1 PUSH2 0xE2F JUMP JUMPDEST PUSH2 0xFE PUSH2 0x241 JUMP JUMPDEST PUSH1 0x40 MLOAD PUSH2 0xAC SWAP2 SWAP1 PUSH2 0xE26 JUMP JUMPDEST PUSH2 0x11E PUSH2 0x119 CALLDATASIZE PUSH1 0x4 PUSH2 0xA23 JUMP JUMPDEST PUSH2 0x248 JUMP JUMPDEST PUSH1 0x40 MLOAD PUSH2 0xAC SWAP2 SWAP1 PUSH2 0xD4E JUMP JUMPDEST PUSH2 0xBD PUSH2 0x26A JUMP JUMPDEST PUSH2 0xBD PUSH2 0x141 CALLDATASIZE PUSH1 0x4 PUSH2 0xA3F JUMP JUMPDEST PUSH2 0x28E JUMP JUMPDEST PUSH2 0xFE PUSH2 0x386 JUMP JUMPDEST PUSH1 0x60 PUSH2 0x168 PUSH1 0x40 MLOAD DUP1 PUSH1 0x20 ADD PUSH1 0x40 MSTORE DUP1 PUSH1 0x0 DUP2 MSTORE POP PUSH2 0x3DF JUMP JUMPDEST SWAP1 POP SWAP1 JUMP JUMPDEST PUSH32 0x0 DUP2 JUMP JUMPDEST PUSH32 0x0 PUSH32 0x0 SWAP1 SWAP2 JUMP JUMPDEST PUSH1 0x0 DUP1 TIMESTAMP PUSH32 0x0 DUP2 LT ISZERO PUSH2 0x233 JUMPI DUP1 PUSH32 0x0 SUB SWAP3 POP PUSH3 0x278D00 SWAP2 POP PUSH2 0x23C JUMP JUMPDEST PUSH1 0x0 SWAP3 POP PUSH1 0x0 SWAP2 POP JUMPDEST POP SWAP1 SWAP2 JUMP JUMPDEST PUSH3 0x76A700 DUP2 JUMP JUMPDEST PUSH1 0x1 PUSH1 0x1 PUSH1 0xA0 SHL SUB DUP2 AND PUSH1 0x0 SWAP1 DUP2 MSTORE PUSH1 0x20 DUP2 SWAP1 MSTORE PUSH1 0x40 SWAP1 KECCAK256 SLOAD PUSH1 0xFF AND JUMPDEST SWAP2 SWAP1 POP JUMP JUMPDEST PUSH32 0x0 SWAP1 JUMP JUMPDEST PUSH1 0x0 DUP1 PUSH2 0x29E DUP14 DUP14 DUP14 DUP11 DUP11 PUSH2 0x4B8 JUMP JUMPDEST SWAP1 POP PUSH1 0x0 PUSH1 0x40 MLOAD DUP1 PUSH2 0x100 ADD PUSH1 0x40 MSTORE DUP1 DUP4 DUP2 MSTORE PUSH1 0x20 ADD DUP13 DUP2 MSTORE PUSH1 0x20 ADD DUP12 DUP2 MSTORE PUSH1 0x20 ADD DUP11 PUSH1 0x0 DUP2 MLOAD DUP2 LT PUSH2 0x2CD JUMPI INVALID JUMPDEST PUSH1 0x20 MUL PUSH1 0x20 ADD ADD MLOAD PUSH1 0x1 PUSH1 0x1 PUSH1 0xA0 SHL SUB AND DUP2 MSTORE PUSH1 0x20 ADD DUP11 PUSH1 0x1 DUP2 MLOAD DUP2 LT PUSH2 0x2F0 JUMPI INVALID JUMPDEST PUSH1 0x20 MUL PUSH1 0x20 ADD ADD MLOAD PUSH1 0x1 PUSH1 0x1 PUSH1 0xA0 SHL SUB AND DUP2 MSTORE PUSH1 0x20 ADD DUP8 PUSH1 0x1 PUSH1 0x1 PUSH1 0xA0 SHL SUB AND DUP2 MSTORE PUSH1 0x20 ADD DUP7 DUP2 MSTORE PUSH1 0x20 ADD DUP6 PUSH1 0x1 PUSH1 0x1 PUSH1 0xA0 SHL SUB AND DUP2 MSTORE POP SWAP1 POP PUSH2 0x374 DUP2 PUSH32 0x0 PUSH1 0x40 MLOAD PUSH1 0x20 ADD PUSH2 0x360 SWAP3 SWAP2 SWAP1 PUSH2 0xD6C JUMP JUMPDEST PUSH1 0x40 MLOAD PUSH1 0x20 DUP2 DUP4 SUB SUB DUP2 MSTORE SWAP1 PUSH1 0x40 MSTORE PUSH2 0x564 JUMP JUMPDEST SWAP15 SWAP14 POP POP POP POP POP POP POP POP POP POP POP POP POP POP JUMP JUMPDEST PUSH3 0x278D00 DUP2 JUMP JUMPDEST DUP1 MLOAD PUSH32 0x602038038060206000396000F3FEFEFEFEFEFEFEFEFEFEFEFEFEFEFEFEFEFEFE DUP1 DUP4 MSTORE PUSH1 0x0 SWAP2 PUSH1 0x20 DUP2 ADD DUP5 DUP5 CREATE SWAP1 DUP5 MSTORE SWAP2 POP PUSH2 0x3D9 PUSH1 0x1 PUSH1 0x1 PUSH1 0xA0 SHL SUB DUP4 AND ISZERO ISZERO PUSH2 0x1AC PUSH2 0x5C4 JUMP JUMPDEST POP SWAP2 SWAP1 POP JUMP JUMPDEST DUP1 MLOAD PUSH1 0x40 DUP1 MLOAD PUSH32 0x0 PUSH32 0x0 DUP2 DUP2 ADD DUP6 DUP2 ADD DUP5 DUP2 ADD PUSH1 0x20 SWAP1 DUP2 ADD SWAP1 SWAP7 MSTORE DUP1 DUP6 MSTORE SWAP4 SWAP6 PUSH32 0x0 SWAP6 SWAP3 SWAP5 PUSH32 0x0 SWAP5 SWAP4 DUP9 ADD DUP7 PUSH1 0x0 DUP3 DUP11 EXTCODECOPY DUP5 PUSH1 0x0 DUP9 DUP4 ADD DUP9 EXTCODECOPY POP PUSH1 0x20 DUP10 DUP2 ADD SWAP1 DUP10 DUP6 ADD ADD PUSH2 0x4AA DUP2 DUP4 DUP7 PUSH2 0x5D6 JUMP JUMPDEST POP POP POP POP POP POP POP POP POP SWAP2 SWAP1 POP JUMP JUMPDEST PUSH2 0x4C0 PUSH2 0x6A1 JUMP JUMPDEST PUSH1 0x40 MLOAD DUP1 PUSH2 0x120 ADD PUSH1 0x40 MSTORE DUP1 PUSH2 0x4D4 PUSH2 0x26A JUMP JUMPDEST PUSH1 0x1 PUSH1 0x1 PUSH1 0xA0 SHL SUB AND DUP2 MSTORE PUSH1 0x20 ADD DUP8 DUP2 MSTORE PUSH1 0x20 ADD DUP7 DUP2 MSTORE PUSH1 0x20 ADD DUP6 PUSH1 0x0 DUP2 MLOAD DUP2 LT PUSH2 0x4FB JUMPI INVALID JUMPDEST PUSH1 0x20 MUL PUSH1 0x20 ADD ADD MLOAD PUSH1 0x1 PUSH1 0x1 PUSH1 0xA0 SHL SUB AND DUP2 MSTORE PUSH1 0x20 ADD DUP6 PUSH1 0x1 DUP2 MLOAD DUP2 LT PUSH2 0x51E JUMPI INVALID JUMPDEST PUSH1 0x20 MUL PUSH1 0x20 ADD ADD MLOAD PUSH1 0x1 PUSH1 0x1 PUSH1 0xA0 SHL SUB AND DUP2 MSTORE PUSH1 0x20 ADD DUP5 DUP2 MSTORE PUSH1 0x20 ADD PUSH3 0x76A700 DUP2 MSTORE PUSH1 0x20 ADD PUSH3 0x278D00 DUP2 MSTORE PUSH1 0x20 ADD DUP4 PUSH1 0x1 PUSH1 0x1 PUSH1 0xA0 SHL SUB AND DUP2 MSTORE POP SWAP1 POP SWAP6 SWAP5 POP POP POP POP POP JUMP JUMPDEST PUSH1 0x0 DUP1 PUSH2 0x570 DUP4 PUSH2 0x614 JUMP JUMPDEST PUSH1 0x1 PUSH1 0x1 PUSH1 0xA0 SHL SUB DUP2 AND PUSH1 0x0 DUP2 DUP2 MSTORE PUSH1 0x20 DUP2 SWAP1 MSTORE PUSH1 0x40 DUP1 DUP3 KECCAK256 DUP1 SLOAD PUSH1 0xFF NOT AND PUSH1 0x1 OR SWAP1 SSTORE MLOAD SWAP3 SWAP4 POP SWAP1 SWAP2 PUSH32 0x83A48FBCFC991335314E74D0496AAB6A1987E992DDC85DDDBCC4D6DD6EF2E9FC SWAP2 SWAP1 LOG2 SWAP3 SWAP2 POP POP JUMP JUMPDEST DUP2 PUSH2 0x5D2 JUMPI PUSH2 0x5D2 DUP2 PUSH2 0x64E JUMP JUMPDEST POP POP JUMP JUMPDEST JUMPDEST PUSH1 0x20 DUP2 LT PUSH2 0x5F6 JUMPI DUP2 MLOAD DUP4 MSTORE PUSH1 0x20 SWAP3 DUP4 ADD SWAP3 SWAP1 SWAP2 ADD SWAP1 PUSH1 0x1F NOT ADD PUSH2 0x5D7 JUMP JUMPDEST SWAP1 MLOAD DUP3 MLOAD PUSH1 0x20 SWAP3 SWAP1 SWAP3 SUB PUSH2 0x100 EXP PUSH1 0x0 NOT ADD DUP1 NOT SWAP1 SWAP2 AND SWAP2 AND OR SWAP1 MSTORE JUMP JUMPDEST PUSH1 0x0 DUP1 PUSH2 0x620 DUP4 PUSH2 0x3DF JUMP JUMPDEST SWAP1 POP PUSH1 0x0 DUP2 MLOAD PUSH1 0x20 DUP4 ADD PUSH1 0x0 CREATE SWAP1 POP PUSH1 0x1 PUSH1 0x1 PUSH1 0xA0 SHL SUB DUP2 AND PUSH2 0x647 JUMPI RETURNDATASIZE PUSH1 0x0 DUP1 RETURNDATACOPY RETURNDATASIZE PUSH1 0x0 REVERT JUMPDEST SWAP4 SWAP3 POP POP POP JUMP JUMPDEST PUSH3 0x461BCD PUSH1 0xE5 SHL PUSH1 0x0 SWAP1 DUP2 MSTORE PUSH1 0x20 PUSH1 0x4 MSTORE PUSH1 0x7 PUSH1 0x24 MSTORE PUSH7 0x42414C23000030 PUSH1 0xA DUP1 DUP5 DIV DUP2 DUP2 MOD PUSH1 0x30 SWAP1 DUP2 ADD PUSH1 0x8 SHL SWAP6 DUP4 SWAP1 MOD SWAP6 SWAP1 SWAP6 ADD SWAP1 DUP3 SWAP1 DIV SWAP2 DUP3 MOD SWAP1 SWAP5 ADD PUSH1 0x10 SHL SWAP4 SWAP1 SWAP4 ADD ADD PUSH1 0xC8 SHL PUSH1 0x44 MSTORE PUSH1 0x64 SWAP1 REVERT JUMPDEST PUSH1 0x40 MLOAD DUP1 PUSH2 0x120 ADD PUSH1 0x40 MSTORE DUP1 PUSH1 0x0 PUSH1 0x1 PUSH1 0x1 PUSH1 0xA0 SHL SUB AND DUP2 MSTORE PUSH1 0x20 ADD PUSH1 0x60 DUP2 MSTORE PUSH1 0x20 ADD PUSH1 0x60 DUP2 MSTORE PUSH1 0x20 ADD PUSH1 0x0 PUSH1 0x1 PUSH1 0x1 PUSH1 0xA0 SHL SUB AND DUP2 MSTORE PUSH1 0x20 ADD PUSH1 0x0 PUSH1 0x1 PUSH1 0x1 PUSH1 0xA0 SHL SUB AND DUP2 MSTORE PUSH1 0x20 ADD PUSH1 0x0 DUP2 MSTORE PUSH1 0x20 ADD PUSH1 0x0 DUP2 MSTORE PUSH1 0x20 ADD PUSH1 0x0 DUP2 MSTORE PUSH1 0x20 ADD PUSH1 0x0 PUSH1 0x1 PUSH1 0x1 PUSH1 0xA0 SHL SUB AND DUP2 MSTORE POP SWAP1 JUMP JUMPDEST DUP1 CALLDATALOAD PUSH2 0x265 DUP2 PUSH2 0xE7F JUMP JUMPDEST PUSH1 0x0 DUP3 PUSH1 0x1F DUP4 ADD SLT PUSH2 0x72C JUMPI DUP1 DUP2 REVERT JUMPDEST DUP2 CALLDATALOAD PUSH1 0x20 PUSH2 0x741 PUSH2 0x73C DUP4 PUSH2 0xE61 JUMP JUMPDEST PUSH2 0xE3D JUMP JUMPDEST DUP3 DUP2 MSTORE DUP2 DUP2 ADD SWAP1 DUP6 DUP4 ADD DUP4 DUP6 MUL DUP8 ADD DUP5 ADD DUP9 LT ISZERO PUSH2 0x75D JUMPI DUP6 DUP7 REVERT JUMPDEST DUP6 JUMPDEST DUP6 DUP2 LT ISZERO PUSH2 0x784 JUMPI DUP2 CALLDATALOAD PUSH2 0x772 DUP2 PUSH2 0xE7F JUMP JUMPDEST DUP5 MSTORE SWAP3 DUP5 ADD SWAP3 SWAP1 DUP5 ADD SWAP1 PUSH1 0x1 ADD PUSH2 0x75F JUMP JUMPDEST POP SWAP1 SWAP8 SWAP7 POP POP POP POP POP POP POP JUMP JUMPDEST PUSH1 0x0 DUP3 PUSH1 0x1F DUP4 ADD SLT PUSH2 0x7A1 JUMPI DUP1 DUP2 REVERT JUMPDEST DUP2 CALLDATALOAD PUSH1 0x20 PUSH2 0x7B1 PUSH2 0x73C DUP4 PUSH2 0xE61 JUMP JUMPDEST DUP3 DUP2 MSTORE DUP2 DUP2 ADD SWAP1 DUP6 DUP4 ADD DUP4 DUP6 MUL DUP8 ADD DUP5 ADD DUP9 LT ISZERO PUSH2 0x7CD JUMPI DUP6 DUP7 REVERT JUMPDEST DUP6 JUMPDEST DUP6 DUP2 LT ISZERO PUSH2 0x784 JUMPI DUP2 CALLDATALOAD PUSH2 0x7E2 DUP2 PUSH2 0xE7F JUMP JUMPDEST DUP5 MSTORE SWAP3 DUP5 ADD SWAP3 SWAP1 DUP5 ADD SWAP1 PUSH1 0x1 ADD PUSH2 0x7CF JUMP JUMPDEST PUSH1 0x0 DUP3 PUSH1 0x1F DUP4 ADD SLT PUSH2 0x804 JUMPI DUP1 DUP2 REVERT JUMPDEST DUP2 CALLDATALOAD PUSH8 0xFFFFFFFFFFFFFFFF DUP2 GT ISZERO PUSH2 0x818 JUMPI INVALID JUMPDEST PUSH2 0x82B PUSH1 0x1F DUP3 ADD PUSH1 0x1F NOT AND PUSH1 0x20 ADD PUSH2 0xE3D JUMP JUMPDEST DUP2 DUP2 MSTORE DUP5 PUSH1 0x20 DUP4 DUP7 ADD ADD GT ISZERO PUSH2 0x83F JUMPI DUP3 DUP4 REVERT JUMPDEST DUP2 PUSH1 0x20 DUP6 ADD PUSH1 0x20 DUP4 ADD CALLDATACOPY SWAP1 DUP2 ADD PUSH1 0x20 ADD SWAP2 SWAP1 SWAP2 MSTORE SWAP3 SWAP2 POP POP JUMP JUMPDEST PUSH1 0x0 PUSH1 0x60 DUP3 DUP5 SUB SLT ISZERO PUSH2 0x86A JUMPI DUP1 DUP2 REVERT JUMPDEST PUSH1 0x40 MLOAD PUSH1 0x60 DUP2 ADD DUP2 DUP2 LT PUSH8 0xFFFFFFFFFFFFFFFF DUP3 GT OR ISZERO PUSH2 0x887 JUMPI INVALID JUMPDEST PUSH1 0x40 MSTORE SWAP1 POP DUP1 DUP3 CALLDATALOAD DUP1 ISZERO ISZERO DUP2 EQ PUSH2 0x89D JUMPI PUSH1 0x0 DUP1 REVERT JUMPDEST DUP2 MSTORE PUSH1 0x20 DUP4 ADD CALLDATALOAD PUSH1 0x1 PUSH1 0x1 PUSH1 0x78 SHL SUB DUP2 AND DUP2 EQ PUSH2 0x8B9 JUMPI PUSH1 0x0 DUP1 REVERT JUMPDEST PUSH1 0x20 DUP3 ADD MSTORE PUSH1 0x40 DUP4 ADD CALLDATALOAD PUSH1 0x1 PUSH1 0x1 PUSH1 0x80 SHL SUB DUP2 AND DUP2 EQ PUSH2 0x8D8 JUMPI PUSH1 0x0 DUP1 REVERT JUMPDEST PUSH1 0x40 SWAP2 SWAP1 SWAP2 ADD MSTORE SWAP3 SWAP2 POP POP JUMP JUMPDEST PUSH1 0x0 PUSH2 0x120 DUP3 DUP5 SUB SLT ISZERO PUSH2 0x8F7 JUMPI DUP1 DUP2 REVERT JUMPDEST PUSH1 0x40 MLOAD PUSH1 0xE0 DUP2 ADD DUP2 DUP2 LT PUSH8 0xFFFFFFFFFFFFFFFF DUP3 GT OR ISZERO PUSH2 0x914 JUMPI INVALID JUMPDEST PUSH1 0x40 MSTORE SWAP1 POP DUP1 PUSH2 0x924 DUP5 DUP5 PUSH2 0x9DB JUMP JUMPDEST DUP2 MSTORE PUSH2 0x933 DUP5 PUSH1 0x40 DUP6 ADD PUSH2 0x9DB JUMP JUMPDEST PUSH1 0x20 DUP3 ADD MSTORE PUSH1 0x80 DUP4 ADD CALLDATALOAD PUSH1 0x40 DUP3 ADD MSTORE PUSH1 0xA0 DUP4 ADD CALLDATALOAD PUSH1 0x60 DUP3 ADD MSTORE PUSH1 0xC0 DUP4 ADD CALLDATALOAD PUSH1 0x80 DUP3 ADD MSTORE PUSH1 0xE0 DUP4 ADD CALLDATALOAD PUSH1 0xA0 DUP3 ADD MSTORE PUSH2 0x100 DUP4 ADD CALLDATALOAD PUSH1 0xC0 DUP3 ADD MSTORE POP SWAP3 SWAP2 POP POP JUMP JUMPDEST PUSH1 0x0 PUSH1 0xA0 DUP3 DUP5 SUB SLT ISZERO PUSH2 0x983 JUMPI DUP1 DUP2 REVERT JUMPDEST PUSH1 0x40 MLOAD PUSH1 0xA0 DUP2 ADD DUP2 DUP2 LT PUSH8 0xFFFFFFFFFFFFFFFF DUP3 GT OR ISZERO PUSH2 0x9A0 JUMPI INVALID JUMPDEST DUP1 PUSH1 0x40 MSTORE POP DUP1 SWAP2 POP DUP3 CALLDATALOAD DUP2 MSTORE PUSH1 0x20 DUP4 ADD CALLDATALOAD PUSH1 0x20 DUP3 ADD MSTORE PUSH1 0x40 DUP4 ADD CALLDATALOAD PUSH1 0x40 DUP3 ADD MSTORE PUSH1 0x60 DUP4 ADD CALLDATALOAD PUSH1 0x60 DUP3 ADD MSTORE PUSH1 0x80 DUP4 ADD CALLDATALOAD PUSH1 0x80 DUP3 ADD MSTORE POP SWAP3 SWAP2 POP POP JUMP JUMPDEST PUSH1 0x0 PUSH1 0x40 DUP3 DUP5 SUB SLT ISZERO PUSH2 0x9EC JUMPI DUP1 DUP2 REVERT JUMPDEST PUSH1 0x40 MLOAD PUSH1 0x40 DUP2 ADD DUP2 DUP2 LT PUSH8 0xFFFFFFFFFFFFFFFF DUP3 GT OR ISZERO PUSH2 0xA09 JUMPI INVALID JUMPDEST PUSH1 0x40 MSTORE DUP3 CALLDATALOAD DUP2 MSTORE PUSH1 0x20 SWAP3 DUP4 ADD CALLDATALOAD SWAP3 DUP2 ADD SWAP3 SWAP1 SWAP3 MSTORE POP SWAP2 SWAP1 POP JUMP JUMPDEST PUSH1 0x0 PUSH1 0x20 DUP3 DUP5 SUB SLT ISZERO PUSH2 0xA34 JUMPI DUP1 DUP2 REVERT JUMPDEST DUP2 CALLDATALOAD PUSH2 0x647 DUP2 PUSH2 0xE7F JUMP JUMPDEST PUSH1 0x0 DUP1 PUSH1 0x0 DUP1 PUSH1 0x0 DUP1 PUSH1 0x0 DUP1 PUSH1 0x0 DUP1 PUSH1 0x0 PUSH2 0x320 DUP13 DUP15 SUB SLT ISZERO PUSH2 0xA60 JUMPI DUP7 DUP8 REVERT JUMPDEST PUSH8 0xFFFFFFFFFFFFFFFF DUP1 DUP14 CALLDATALOAD GT ISZERO PUSH2 0xA76 JUMPI DUP8 DUP9 REVERT JUMPDEST PUSH2 0xA83 DUP15 DUP15 CALLDATALOAD DUP16 ADD PUSH2 0x7F4 JUMP JUMPDEST SWAP12 POP DUP1 PUSH1 0x20 DUP15 ADD CALLDATALOAD GT ISZERO PUSH2 0xA95 JUMPI DUP8 DUP9 REVERT JUMPDEST PUSH2 0xAA5 DUP15 PUSH1 0x20 DUP16 ADD CALLDATALOAD DUP16 ADD PUSH2 0x7F4 JUMP JUMPDEST SWAP11 POP DUP1 PUSH1 0x40 DUP15 ADD CALLDATALOAD GT ISZERO PUSH2 0xAB7 JUMPI DUP8 DUP9 REVERT JUMPDEST PUSH2 0xAC7 DUP15 PUSH1 0x40 DUP16 ADD CALLDATALOAD DUP16 ADD PUSH2 0x791 JUMP JUMPDEST SWAP10 POP PUSH2 0xAD6 DUP15 PUSH1 0x60 DUP16 ADD PUSH2 0x972 JUMP JUMPDEST SWAP9 POP PUSH2 0xAE6 DUP15 PUSH2 0x100 DUP16 ADD PUSH2 0x8E5 JUMP JUMPDEST SWAP8 POP DUP1 PUSH2 0x220 DUP15 ADD CALLDATALOAD GT ISZERO PUSH2 0xAF9 JUMPI DUP7 DUP8 REVERT JUMPDEST POP PUSH2 0xB0B DUP14 PUSH2 0x220 DUP15 ADD CALLDATALOAD DUP15 ADD PUSH2 0x71C JUMP JUMPDEST SWAP6 POP PUSH2 0x240 DUP13 ADD CALLDATALOAD SWAP5 POP PUSH2 0xB22 PUSH2 0x260 DUP14 ADD PUSH2 0x711 JUMP JUMPDEST SWAP4 POP PUSH2 0xB31 PUSH2 0x280 DUP14 ADD PUSH2 0x711 JUMP JUMPDEST SWAP3 POP PUSH2 0xB41 DUP14 PUSH2 0x2A0 DUP15 ADD PUSH2 0x859 JUMP JUMPDEST SWAP2 POP PUSH2 0xB50 PUSH2 0x300 DUP14 ADD PUSH2 0x711 JUMP JUMPDEST SWAP1 POP SWAP3 SWAP6 SWAP9 SWAP12 POP SWAP3 SWAP6 SWAP9 SWAP12 SWAP1 SWAP4 SWAP7 SWAP10 POP JUMP JUMPDEST PUSH1 0x1 PUSH1 0x1 PUSH1 0xA0 SHL SUB AND SWAP1 MSTORE JUMP JUMPDEST PUSH1 0x0 DUP2 MLOAD DUP1 DUP5 MSTORE DUP2 JUMPDEST DUP2 DUP2 LT ISZERO PUSH2 0xB94 JUMPI PUSH1 0x20 DUP2 DUP6 ADD DUP2 ADD MLOAD DUP7 DUP4 ADD DUP3 ADD MSTORE ADD PUSH2 0xB78 JUMP JUMPDEST DUP2 DUP2 GT ISZERO PUSH2 0xBA5 JUMPI DUP3 PUSH1 0x20 DUP4 DUP8 ADD ADD MSTORE JUMPDEST POP PUSH1 0x1F ADD PUSH1 0x1F NOT AND SWAP3 SWAP1 SWAP3 ADD PUSH1 0x20 ADD SWAP3 SWAP2 POP POP JUMP JUMPDEST DUP1 MLOAD ISZERO ISZERO DUP3 MSTORE PUSH1 0x20 DUP1 DUP3 ADD MLOAD PUSH1 0x1 PUSH1 0x1 PUSH1 0x78 SHL SUB AND SWAP1 DUP4 ADD MSTORE PUSH1 0x40 SWAP1 DUP2 ADD MLOAD PUSH1 0x1 PUSH1 0x1 PUSH1 0x80 SHL SUB AND SWAP2 ADD MSTORE JUMP JUMPDEST PUSH2 0xBF2 DUP3 DUP3 MLOAD PUSH2 0xD11 JUMP JUMPDEST PUSH1 0x20 DUP2 ADD MLOAD PUSH2 0xC04 PUSH1 0x40 DUP5 ADD DUP3 PUSH2 0xD11 JUMP JUMPDEST POP PUSH1 0x40 DUP2 ADD MLOAD PUSH1 0x80 DUP4 ADD MSTORE PUSH1 0x60 DUP2 ADD MLOAD PUSH1 0xA0 DUP4 ADD MSTORE PUSH1 0x80 DUP2 ADD MLOAD PUSH1 0xC0 DUP4 ADD MSTORE PUSH1 0xA0 DUP2 ADD MLOAD PUSH1 0xE0 DUP4 ADD MSTORE PUSH1 0xC0 DUP2 ADD MLOAD PUSH2 0x100 DUP4 ADD MSTORE POP POP JUMP JUMPDEST PUSH1 0x0 PUSH2 0x120 PUSH2 0xC4C DUP5 DUP5 MLOAD PUSH2 0xB62 JUMP JUMPDEST PUSH1 0x20 DUP4 ADD MLOAD DUP2 PUSH1 0x20 DUP7 ADD MSTORE PUSH2 0xC63 DUP3 DUP7 ADD DUP3 PUSH2 0xB6F JUMP JUMPDEST SWAP2 POP POP PUSH1 0x40 DUP4 ADD MLOAD DUP5 DUP3 SUB PUSH1 0x40 DUP7 ADD MSTORE PUSH2 0xC7D DUP3 DUP3 PUSH2 0xB6F JUMP JUMPDEST SWAP2 POP POP PUSH1 0x60 DUP4 ADD MLOAD PUSH2 0xC92 PUSH1 0x60 DUP7 ADD DUP3 PUSH2 0xB62 JUMP JUMPDEST POP PUSH1 0x80 DUP4 ADD MLOAD PUSH2 0xCA5 PUSH1 0x80 DUP7 ADD DUP3 PUSH2 0xB62 JUMP JUMPDEST POP PUSH1 0xA0 DUP4 ADD MLOAD PUSH1 0xA0 DUP6 ADD MSTORE PUSH1 0xC0 DUP4 ADD MLOAD PUSH1 0xC0 DUP6 ADD MSTORE PUSH1 0xE0 DUP4 ADD MLOAD PUSH1 0xE0 DUP6 ADD MSTORE PUSH2 0x100 DUP1 DUP5 ADD MLOAD PUSH2 0xCD7 DUP3 DUP8 ADD DUP3 PUSH2 0xB62 JUMP JUMPDEST POP SWAP1 SWAP5 SWAP4 POP POP POP POP JUMP JUMPDEST DUP1 MLOAD DUP3 MSTORE PUSH1 0x20 DUP2 ADD MLOAD PUSH1 0x20 DUP4 ADD MSTORE PUSH1 0x40 DUP2 ADD MLOAD PUSH1 0x40 DUP4 ADD MSTORE PUSH1 0x60 DUP2 ADD MLOAD PUSH1 0x60 DUP4 ADD MSTORE PUSH1 0x80 DUP2 ADD MLOAD PUSH1 0x80 DUP4 ADD MSTORE POP POP JUMP JUMPDEST DUP1 MLOAD DUP3 MSTORE PUSH1 0x20 SWAP1 DUP2 ADD MLOAD SWAP2 ADD MSTORE JUMP JUMPDEST PUSH1 0x1 PUSH1 0x1 PUSH1 0xA0 SHL SUB SWAP2 SWAP1 SWAP2 AND DUP2 MSTORE PUSH1 0x20 ADD SWAP1 JUMP JUMPDEST PUSH1 0x1 PUSH1 0x1 PUSH1 0xA0 SHL SUB SWAP3 DUP4 AND DUP2 MSTORE SWAP2 AND PUSH1 0x20 DUP3 ADD MSTORE PUSH1 0x40 ADD SWAP1 JUMP JUMPDEST SWAP1 ISZERO ISZERO DUP2 MSTORE PUSH1 0x20 ADD SWAP1 JUMP JUMPDEST PUSH1 0x0 PUSH1 0x20 DUP3 MSTORE PUSH2 0x647 PUSH1 0x20 DUP4 ADD DUP5 PUSH2 0xB6F JUMP JUMPDEST PUSH1 0x0 PUSH1 0x40 DUP3 MSTORE DUP4 MLOAD PUSH2 0x2C0 PUSH1 0x40 DUP5 ADD MSTORE PUSH2 0xD8A PUSH2 0x300 DUP5 ADD DUP3 PUSH2 0xC3C JUMP JUMPDEST SWAP1 POP PUSH1 0x20 DUP6 ADD MLOAD PUSH2 0xD9E PUSH1 0x60 DUP6 ADD DUP3 PUSH2 0xCE1 JUMP JUMPDEST POP PUSH1 0x40 DUP6 ADD MLOAD PUSH2 0xDB2 PUSH2 0x100 DUP6 ADD DUP3 PUSH2 0xBE7 JUMP JUMPDEST POP PUSH1 0x60 DUP6 ADD MLOAD PUSH2 0xDC6 PUSH2 0x220 DUP6 ADD DUP3 PUSH2 0xB62 JUMP JUMPDEST POP PUSH1 0x80 DUP6 ADD MLOAD PUSH2 0xDDA PUSH2 0x240 DUP6 ADD DUP3 PUSH2 0xB62 JUMP JUMPDEST POP PUSH1 0xA0 DUP6 ADD MLOAD PUSH2 0xDEE PUSH2 0x260 DUP6 ADD DUP3 PUSH2 0xB62 JUMP JUMPDEST POP PUSH1 0xC0 DUP6 ADD MLOAD PUSH2 0xE02 PUSH2 0x280 DUP6 ADD DUP3 PUSH2 0xBBA JUMP JUMPDEST POP PUSH1 0xE0 DUP6 ADD MLOAD PUSH2 0xE16 PUSH2 0x2E0 DUP6 ADD DUP3 PUSH2 0xB62 JUMP JUMPDEST POP SWAP1 POP PUSH2 0x647 PUSH1 0x20 DUP4 ADD DUP5 PUSH2 0xB62 JUMP JUMPDEST SWAP1 DUP2 MSTORE PUSH1 0x20 ADD SWAP1 JUMP JUMPDEST SWAP2 DUP3 MSTORE PUSH1 0x20 DUP3 ADD MSTORE PUSH1 0x40 ADD SWAP1 JUMP JUMPDEST PUSH1 0x40 MLOAD DUP2 DUP2 ADD PUSH8 0xFFFFFFFFFFFFFFFF DUP2 GT DUP3 DUP3 LT OR ISZERO PUSH2 0xE59 JUMPI INVALID JUMPDEST PUSH1 0x40 MSTORE SWAP2 SWAP1 POP JUMP JUMPDEST PUSH1 0x0 PUSH8 0xFFFFFFFFFFFFFFFF DUP3 GT ISZERO PUSH2 0xE75 JUMPI INVALID JUMPDEST POP PUSH1 0x20 SWAP1 DUP2 MUL ADD SWAP1 JUMP JUMPDEST PUSH1 0x1 PUSH1 0x1 PUSH1 0xA0 SHL SUB DUP2 AND DUP2 EQ PUSH2 0xE94 JUMPI PUSH1 0x0 DUP1 REVERT JUMPDEST POP JUMP INVALID LOG2 PUSH5 0x6970667358 0x22 SLT KECCAK256 SAR PUSH18 0x1E779CC3722084EA6D9CB7939F0597FCF151 STOP 0xF6 0xDF SWAP15 DIFFICULTY MSIZE 0xB3 PUSH16 0x40AD045064736F6C6343000706003300 ","sha1":"2f7ec8f58ca7b0039b14353949cc84d26fe2744a","source":"// SPDX-License-Identifier: LicenseRef-Gyro-1.0\n// for information on licensing please see the README in the GitHub repository <https://github.com/gyrostable/concentrated-lps>.\n\npragma solidity 0.7.6;\npragma experimental ABIEncoderV2;\n\nimport \"@balancer-labs/v2-vault/contracts/interfaces/IVault.sol\";\n\nimport \"@balancer-labs/v2-pool-utils/contracts/factories/BasePoolSplitCodeFactory.sol\";\nimport \"@balancer-labs/v2-pool-utils/contracts/factories/FactoryWidePauseWindow.sol\";\n\nimport \"../../interfaces/IGyroECLPPoolFactory.sol\";\nimport \"../../interfaces/ICappedLiquidity.sol\";\nimport \"./GyroECLPPool.sol\";\n\ncontract GyroECLPPoolFactory is IGyroECLPPoolFactory, BasePoolSplitCodeFactory, FactoryWidePauseWindow {\n    address public immutable gyroConfigAddress;\n\n    uint256 public constant PAUSE_WINDOW_DURATION = 90 days;\n    uint256 public constant BUFFER_PERIOD_DURATION = 30 days;\n\n    constructor(IVault vault, address _gyroConfigAddress) BasePoolSplitCodeFactory(vault, type(GyroECLPPool).creationCode) {\n        _grequire(_gyroConfigAddress != address(0), GyroErrors.ZERO_ADDRESS);\n        _grequire(address(vault) != address(0), GyroErrors.ZERO_ADDRESS);\n        gyroConfigAddress = _gyroConfigAddress;\n    }\n\n    /**\n     * @dev Deploys a new `GyroECLPPool`.\n     */\n    function create(\n        string memory name,\n        string memory symbol,\n        IERC20[] memory tokens,\n        GyroECLPMath.Params memory eclpParams,\n        GyroECLPMath.DerivedParams memory derivedECLPParams,\n        address[] memory rateProviders,\n        uint256 swapFeePercentage,\n        address owner,\n        address capManager,\n        ICappedLiquidity.CapParams memory capParams,\n        address pauseManager\n    ) external override returns (address) {\n        ExtensibleWeightedPool2Tokens.NewPoolParams memory baseParams = _makePoolParams(name, symbol, tokens, swapFeePercentage, owner);\n\n        GyroECLPPool.GyroParams memory params = GyroECLPPool.GyroParams({\n            baseParams: baseParams,\n            eclpParams: eclpParams,\n            derivedEclpParams: derivedECLPParams,\n            rateProvider0: rateProviders[0],\n            rateProvider1: rateProviders[1],\n            capManager: capManager,\n            capParams: capParams,\n            pauseManager: pauseManager\n        });\n\n        return _create(abi.encode(params, gyroConfigAddress));\n    }\n\n    function _makePoolParams(\n        string memory name,\n        string memory symbol,\n        IERC20[] memory tokens,\n        uint256 swapFeePercentage,\n        address owner\n    ) internal view returns (ExtensibleWeightedPool2Tokens.NewPoolParams memory) {\n        return\n            ExtensibleWeightedPool2Tokens.NewPoolParams({\n                vault: getVault(),\n                name: name,\n                symbol: symbol,\n                token0: tokens[0],\n                token1: tokens[1],\n                swapFeePercentage: swapFeePercentage,\n                pauseWindowDuration: PAUSE_WINDOW_DURATION,\n                bufferPeriodDuration: BUFFER_PERIOD_DURATION,\n                owner: owner\n            });\n    }\n}\n","sourcePath":"contracts/eclp/GyroECLPPoolFactory.sol","type":"contract","deployment":{"address":"0x6878Aa76988a88d42b9000EFC249972222E31a89","chainid":"137","blockHeight":41715552}}