{"abi":[{"inputs":[{"internalType":"contract IVault","name":"vault","type":"address"},{"internalType":"address","name":"_gyroConfigAddress","type":"address"}],"stateMutability":"nonpayable","type":"constructor","name":"constructor"},{"anonymous":false,"inputs":[{"indexed":true,"internalType":"address","name":"pool","type":"address"}],"name":"PoolCreated","type":"event"},{"inputs":[{"internalType":"string","name":"name","type":"string"},{"internalType":"string","name":"symbol","type":"string"},{"internalType":"contract IERC20[]","name":"tokens","type":"address[]"},{"internalType":"uint256[]","name":"sqrts","type":"uint256[]"},{"internalType":"uint256","name":"swapFeePercentage","type":"uint256"},{"internalType":"address","name":"owner","type":"address"},{"internalType":"address","name":"capManager","type":"address"},{"components":[{"internalType":"bool","name":"capEnabled","type":"bool"},{"internalType":"uint120","name":"perAddressCap","type":"uint120"},{"internalType":"uint128","name":"globalCap","type":"uint128"}],"internalType":"struct ICappedLiquidity.CapParams","name":"capParams","type":"tuple"},{"internalType":"address","name":"pauseManager","type":"address"},{"components":[{"internalType":"uint256","name":"pauseWindowDuration","type":"uint256"},{"internalType":"uint256","name":"bufferPeriodDuration","type":"uint256"}],"internalType":"struct ILocallyPausable.PauseParams","name":"pauseParams","type":"tuple"}],"name":"create","outputs":[{"internalType":"address","name":"","type":"address"}],"stateMutability":"nonpayable","type":"function"},{"inputs":[],"name":"getCreationCode","outputs":[{"internalType":"bytes","name":"","type":"bytes"}],"stateMutability":"view","type":"function"},{"inputs":[],"name":"getCreationCodeContracts","outputs":[{"internalType":"address","name":"contractA","type":"address"},{"internalType":"address","name":"contractB","type":"address"}],"stateMutability":"view","type":"function"},{"inputs":[],"name":"getVault","outputs":[{"internalType":"contract IVault","name":"","type":"address"}],"stateMutability":"view","type":"function"},{"inputs":[],"name":"gyroConfigAddress","outputs":[{"internalType":"address","name":"","type":"address"}],"stateMutability":"view","type":"function"},{"inputs":[{"internalType":"address","name":"pool","type":"address"}],"name":"isPoolFromFactory","outputs":[{"internalType":"bool","name":"","type":"bool"}],"stateMutability":"view","type":"function"}],"bytecode":"6101406040523480156200001257600080fd5b50604051620060c8380380620060c8833981016040819052620000359162000281565b8160405180602001620000489062000273565b601f1982820381018352601f909101166040528051819060006002820460a081905280830360e081905281855290915083620000908162000130602090811b6200029217901c565b60601b6001600160601b0319166080528285018051838252620000bf8262000130602090811b6200029217901c565b6001600160601b0319606091821b811660c0529690935290529590951b909116610100525062000100925050506001600160a01b0382161515606962000184565b620001186001600160a01b0383161515606962000184565b60601b6001600160601b0319166101205250620002d5565b80517f602038038060206000396000f3fefefefefefefefefefefefefefefefefefefe808352600091602081018484f090845291506200017e6001600160a01b03831615156101ac62000199565b50919050565b8162000195576200019581620001aa565b5050565b8162000195576200019581620001bf565b620001bc816223aca960e91b62000212565b50565b62461bcd60e51b6000908152602060045260076024526642414c23000030600a808404818106603090810160081b95839006959095019082900491820690940160101b939093010160c81b604452606490fd5b62461bcd60e51b600090815260206004526007602452600a808404818106603090810160081b958390069590950190829004918206850160101b01602363ffffff0060e086901c160160181b0190930160c81b60445260e882901c90606490fd5b6151bf8062000f0983390190565b6000806040838503121562000294578182fd5b8251620002a181620002bf565b6020840151909250620002b481620002bf565b809150509250929050565b6001600160a01b0381168114620001bc57600080fd5b60805160601c60a05160c05160601c60e0516101005160601c6101205160601c610bcf6200033a6000398061010b528061023d5250806101975250806102ec525080610150528061036852508061030d52508061012f52806103445250610bcf6000f3fe608060405234801561001057600080fd5b50600436106100615760003560e01c8062c194db146100665780630bc7b4c414610084578063174481fa146100995780636634b753146100af5780638d928af8146100cf578063ead6c671146100d7575b600080fd5b61006e6100ea565b60405161007b9190610a0f565b60405180910390f35b61008c610109565b60405161007b91906109d6565b6100a161012d565b60405161007b9291906109ea565b6100c26100bd36600461082c565b610173565b60405161007b9190610a04565b61008c610195565b61008c6100e5366004610848565b6101b9565b6060610104604051806020016040528060008152506102e4565b905090565b7f000000000000000000000000000000000000000000000000000000000000000081565b7f00000000000000000000000000000000000000000000000000000000000000007f00000000000000000000000000000000000000000000000000000000000000009091565b6001600160a01b03811660009081526020819052604090205460ff165b919050565b7f000000000000000000000000000000000000000000000000000000000000000090565b6000806101ca8c8c8c8b8b886103bd565b905060006040518060c001604052808381526020018b6000815181106101ec57fe5b602002602001015181526020018b60018151811061020657fe5b60200260200101518152602001886001600160a01b03168152602001878152602001866001600160a01b03168152509050610281817f000000000000000000000000000000000000000000000000000000000000000060405160200161026d929190610a22565b60405160208183030381529060405261046c565b9d9c50505050505050505050505050565b80517f602038038060206000396000f3fefefefefefefefefefefefefefefefefefefe808352600091602081018484f090845291506102de6001600160a01b03831615156101ac6104cc565b50919050565b8051604080517f00000000000000000000000000000000000000000000000000000000000000007f0000000000000000000000000000000000000000000000000000000000000000818101858101848101602090810190965280855293957f00000000000000000000000000000000000000000000000000000000000000009592947f000000000000000000000000000000000000000000000000000000000000000094938801866000828a3c846000888301883c50602089810190898501016103af8183866104de565b505050505050505050919050565b6103c56105a9565b6040518061012001604052806103d9610195565b6001600160a01b031681526020018881526020018781526020018660008151811061040057fe5b60200260200101516001600160a01b031681526020018660018151811061042357fe5b60200260200101516001600160a01b031681526020018581526020018360000151815260200183602001518152602001846001600160a01b031681525090509695505050505050565b6000806104788361051c565b6001600160a01b038116600081815260208190526040808220805460ff191660011790555192935090917f83a48fbcfc991335314e74d0496aab6a1987e992ddc85dddbcc4d6dd6ef2e9fc9190a292915050565b816104da576104da81610556565b5050565b5b602081106104fe578151835260209283019290910190601f19016104df565b905182516020929092036101000a6000190180199091169116179052565b600080610528836102e4565b905060008151602083016000f090506001600160a01b03811661054f573d6000803e3d6000fd5b9392505050565b62461bcd60e51b6000908152602060045260076024526642414c23000030600a808404818106603090810160081b95839006959095019082900491820690940160101b939093010160c81b604452606490fd5b60405180610120016040528060006001600160a01b03168152602001606081526020016060815260200160006001600160a01b0316815260200160006001600160a01b0316815260200160008152602001600081526020016000815260200160006001600160a01b031681525090565b803561019081610b81565b600082601f830112610634578081fd5b8135602061064961064483610b63565b610b3f565b8281528181019085830183850287018401881015610665578586fd5b855b8581101561068c57813561067a81610b81565b84529284019290840190600101610667565b5090979650505050505050565b600082601f8301126106a9578081fd5b813560206106b961064483610b63565b82815281810190858301838502870184018810156106d5578586fd5b855b8581101561068c578135845292840192908401906001016106d7565b600082601f830112610703578081fd5b813567ffffffffffffffff81111561071757fe5b61072a601f8201601f1916602001610b3f565b81815284602083860101111561073e578283fd5b816020850160208301379081016020019190915292915050565b600060608284031215610769578081fd5b6040516060810181811067ffffffffffffffff8211171561078657fe5b6040529050808235801515811461079c57600080fd5b815260208301356001600160781b03811681146107b857600080fd5b602082015260408301356001600160801b03811681146107d757600080fd5b6040919091015292915050565b6000604082840312156107f5578081fd5b6040516040810181811067ffffffffffffffff8211171561081257fe5b604052823581526020928301359281019290925250919050565b60006020828403121561083d578081fd5b813561054f81610b81565b6000806000806000806000806000806101a08b8d031215610867578586fd5b8a3567ffffffffffffffff8082111561087e578788fd5b61088a8e838f016106f3565b9b5060208d013591508082111561089f578788fd5b6108ab8e838f016106f3565b9a5060408d01359150808211156108c0578788fd5b6108cc8e838f01610624565b995060608d01359150808211156108e1578788fd5b506108ee8d828e01610699565b97505060808b0135955061090460a08c01610619565b945061091260c08c01610619565b93506109218c60e08d01610758565b92506109306101408c01610619565b91506109408c6101608d016107e4565b90509295989b9194979a5092959850565b6001600160a01b03169052565b60008151808452815b8181101561098357602081850181015186830182015201610967565b818111156109945782602083870101525b50601f01601f19169290920160200192915050565b8051151582526020808201516001600160781b0316908301526040908101516001600160801b0316910152565b6001600160a01b0391909116815260200190565b6001600160a01b0392831681529116602082015260400190565b901515815260200190565b60006020825261054f602083018461095e565b6000604082528351610100806040850152610a4261014085018351610951565b602082015161012080610160870152610a5f61026087018361095e565b9150604084015161013f1987840301610180880152610a7e838261095e565b9250506060840151610a946101a0880182610951565b506080840151610aa86101c0880182610951565b5060a08401516101e087015260c084015161020087015260e08401516102208701529282015192610add610240870185610951565b602088015160608701526040880151608087015260608801519350610b0560a0870185610951565b60808801519350610b1960c08701856109a9565b60a08801519350610b2c81870185610951565b50925061054f9150506020830184610951565b60405181810167ffffffffffffffff81118282101715610b5b57fe5b604052919050565b600067ffffffffffffffff821115610b7757fe5b5060209081020190565b6001600160a01b0381168114610b9657600080fd5b5056fea2646970667358221220c9f4ad7855c88f5f3c46816aab4c6aeb0092f9f673a32605ed1a75d0971602f064736f6c634300070600336102e06040527f6e71edae12b1b97f4d1f60370fef10105fa2faae0126114a169c64845d6126c9610120526706f05b59d3b20000610200819052610220526000610240523480156200005057600080fd5b50604051620051bf380380620051bf833981016040819052620000739162000ae6565b8160a001518260600151836080015184600001518060c001518160e001518260200151836040015184600001518280604051806040016040528060018152602001603160f81b81525085858a6101000151336001600160a01b031660001b806080818152505050806001600160a01b031660a0816001600160a01b031660601b815250505081600390805190602001906200011092919062000828565b5080516200012690600490602084019062000828565b505060058054601260ff1990911617905550815160209283012060c052805191012060e052507f8b73c3c69bb8fe3d512ecc4cf759cc79239f7b179b0ffacaa9a75d522b39400f61010052606090811b6001600160601b031916610140524294909401610160819052909201610180525050604080516002808252928101909152600091816020016020820280368337019050509050816060015181600081518110620001cf57fe5b60200260200101906001600160a01b031690816001600160a01b0316815250508160800151816001815181106200020257fe5b60200260200101906001600160a01b031690816001600160a01b03168152505062000238816200051960201b620015f41760201c565b60a0820151620002489062000529565b81516040516309b2760f60e01b81526000916001600160a01b0316906309b2760f906200027b9060029060040162000c85565b602060405180830381600087803b1580156200029657600080fd5b505af1158015620002ab573d6000803e3d6000fd5b505050506040513d601f19601f82011682018060405250810190620002d1919062000acd565b83516040805160028082526060820183529394506001600160a01b03909216926366a9c7d2928592879290602083019080368337019050506040518463ffffffff1660e01b8152600401620003299392919062000beb565b600060405180830381600087803b1580156200034457600080fd5b505af115801562000359573d6000803e3d6000fd5b5050506101a082905250606080840180516001600160601b031990831b81166101c052608086015190921b9091166101e052516200039790620005b2565b610260526080830151620003ab90620005b2565b61028052505060408051808201909152600e81526d1b9bdd08185d5d1a1bdc9a5e995960921b602082015290506001600160a01b0383166200040b5760405162461bcd60e51b815260040162000402919062000c9a565b60405180910390fd5b50600b80546001600160a01b0319166001600160a01b039384161790558051600a8054602084015160409094015160ff1990911692151592909217610100600160801b0319166101006001600160781b0390941693909302929092176001600160801b03908116600160801b9190921602179055620004909082161515606962000660565b600c80546001600160a01b0319166001600160a01b039290921691909117905560408201516020830151620004c9911161015e62000660565b620004e16001600160a01b0382161515606962000660565b60208201516102a0526040909101516102c052600d80546001600160a01b0319166001600160a01b0390921691909117905562000d2f565b80620005258162000671565b5050565b6200053e64e8d4a5100082101560cb620006fe565b6200055667016345785d8a000082111560ca620006fe565b62000572816008546200070f60201b620016021790919060201c565b6008556040517fa9ba3ffe0b6c366b81232caab38605a0699ad5398d6cce76f91ee809e322dafc90620005a790839062000ccf565b60405180910390a150565b600080826001600160a01b031663313ce5676040518163ffffffff1660e01b815260040160206040518083038186803b158015620005ef57600080fd5b505afa15801562000604573d6000803e3d6000fd5b505050506040513d601f19601f820116820180604052508101906200062a919062000bc8565b60ff1690506000620006496012836200073560201b620016171760201c565b600a0a670de0b6b3a764000002925050505b919050565b81620005255762000525816200074d565b6002815110156200068257620006fb565b6000816000815181106200069257fe5b602002602001015190506000600190505b8251811015620006f8576000838281518110620006bc57fe5b60200260200101519050620006ed816001600160a01b0316846001600160a01b0316106065620006fe60201b60201c565b9150600101620006a3565b50505b50565b81620005255762000525816200075f565b60006200072e82605685620007b260201b6200162d179092919060201c565b9392505050565b600062000747838311156001620006fe565b50900390565b620006fb816223aca960e91b620007c7565b62461bcd60e51b6000908152602060045260076024526642414c23000030600a808404818106603090810160081b95839006959095019082900491820690940160101b939093010160c81b604452606490fd5b6001600160401b03811b1992909216911b1790565b62461bcd60e51b600090815260206004526007602452600a808404818106603090810160081b958390069590950190829004918206850160101b01602363ffffff0060e086901c160160181b0190930160c81b60445260e882901c90606490fd5b828054600181600116156101000203166002900490600052602060002090601f016020900481019282620008605760008555620008ab565b82601f106200087b57805160ff1916838001178555620008ab565b82800160010185558215620008ab579182015b82811115620008ab5782518255916020019190600101906200088e565b50620008b9929150620008bd565b5090565b5b80821115620008b95760008155600101620008be565b80516001600160a01b03811681146200065b57600080fd5b600082601f830112620008fd578081fd5b81516001600160401b038111156200091157fe5b62000926601f8201601f191660200162000cd8565b8181528460208386010111156200093b578283fd5b6200094e82602083016020870162000cfc565b949350505050565b60006060828403121562000968578081fd5b604051606081016001600160401b03811182821017156200098557fe5b8060405250809150825180151581146200099e57600080fd5b815260208301516001600160781b0381168114620009bb57600080fd5b602082015260408301516001600160801b0381168114620009db57600080fd5b6040919091015292915050565b6000610120808385031215620009fc578182fd5b62000a078162000cd8565b91505062000a1582620008d4565b815260208201516001600160401b038082111562000a3257600080fd5b62000a4085838601620008ec565b6020840152604084015191508082111562000a5a57600080fd5b5062000a6984828501620008ec565b60408301525062000a7d60608301620008d4565b606082015262000a9060808301620008d4565b608082015260a082015160a082015260c082015160c082015260e082015160e082015261010062000ac3818401620008d4565b9082015292915050565b60006020828403121562000adf578081fd5b5051919050565b6000806040838503121562000af9578081fd5b82516001600160401b038082111562000b10578283fd5b90840190610100828703121562000b25578283fd5b60405160c08101818110838211171562000b3b57fe5b60405282518281111562000b4d578485fd5b62000b5b88828601620009e8565b825250602083015160208201526040830151604082015262000b8060608401620008d4565b606082015262000b94876080850162000956565b608082015262000ba760e08401620008d4565b60a0820152935062000bbf91505060208401620008d4565b90509250929050565b60006020828403121562000bda578081fd5b815160ff811681146200072e578182fd5b60006060820185835260206060818501528186518084526080860191508288019350845b8181101562000c365784516001600160a01b03168352938301939183019160010162000c0f565b505084810360408601528551808252908201925081860190845b8181101562000c775782516001600160a01b03168552938301939183019160010162000c50565b509298975050505050505050565b602081016003831062000c9457fe5b91905290565b600060208252825180602084015262000cbb81604085016020870162000cfc565b601f01601f19169190910160400192915050565b90815260200190565b6040518181016001600160401b038111828210171562000cf457fe5b604052919050565b60005b8381101562000d1957818101518382015260200162000cff565b8381111562000d29576000848401525b50505050565b60805160a05160601c60c05160e05161010051610120516101405160601c61016051610180516101a0516101c05160601c6101e05160601c61020051610220516102405161026051610280516102a0516102c0516143b862000e0760003980612ac4525080612aeb525080611a01525080611a27525050806131d95250806132005250806120fc52508061115c52806120b052508061081352508061179252508061176e525080610fbf5250806113875250806118ae5250806118f05250806118cf525080610f9b525080610ee052506143b86000f3fe608060405234801561001057600080fd5b50600436106102a05760003560e01c806374f3b0091161016757806398d5fdca116100ce578063abd13afe11610087578063abd13afe1461057a578063c0ff1a1514610582578063d505accf1461058a578063d5c096c41461059d578063dd62ed3e146105b0578063f89f27ed146105c3576102a0565b806398d5fdca146105295780639b02cdde146105315780639d2c110c14610539578063a457c2d71461054c578063a9059cbb1461055f578063aaabadc514610572576102a0565b8063876f303b11610120578063876f303b146104e157806387ec6817146104e9578063893d20e8146104fc5780638d928af8146105045780638dd9f89d1461050c57806395d89b4114610521576102a0565b806374f3b0091461046c57806376e54a461461048d5780637ecebe00146104a05780638002df18146104b35780638456cb59146104c6578063851c1bb3146104ce576102a0565b80633aeae0d31161020b5780636028bfd4116101c45780636028bfd41461040b578063623a2e751461042c578063679aefce146104345780636d785a871461043c578063707dcd1e1461044457806370a0823114610459576102a0565b80633aeae0d3146103955780633c4dd5bb146103aa5780633f4ba83a146103cc57806344bbdb55146103d45780634a6b0b15146103e957806355c6762814610403576102a0565b806323b872dd1161025d57806323b872dd14610337578063313ce5671461034a5780633644e5151461035f57806338e9922e1461036757806338fff2d01461037a5780633950935114610382576102a0565b806306fdde03146102a5578063095ea7b3146102c35780630e608b30146102e357806316c38b3c146102f857806318160ddd1461030b5780631c0de05114610320575b600080fd5b6102ad6105cb565b6040516102ba9190614259565b60405180910390f35b6102d66102d1366004613dae565b610661565b6040516102ba91906141ec565b6102f66102f1366004613c89565b610678565b005b6102f6610306366004613dd9565b610729565b61031361073d565b6040516102ba919061420f565b610328610743565b6040516102ba939291906141f7565b6102d6610345366004613cf9565b61076c565b6103526107e0565b6040516102ba919061433b565b6103136107e9565b6102f6610375366004614099565b6107f8565b610313610811565b6102d6610390366004613dae565b610835565b61039d610870565b6040516102ba91906142ac565b6103bd6103b83660046140b1565b6108bb565b6040516102ba93929190614325565b6102f661090e565b6103dc610a03565b6040516102ba919061416f565b6103f1610a12565b6040516102ba9695949392919061422f565b610313610a6d565b61041e610419366004613df3565b610a7a565b6040516102ba92919061430c565b610313610aab565b610313610b07565b6103dc610b2c565b61044c610b3b565b6040516102ba9190614183565b610313610467366004613c89565b610b4b565b61047f61047a366004613df3565b610b6a565b6040516102ba9291906141c7565b6102f661049b366004613f23565b610bfa565b6103136104ae366004613c89565b610d21565b6102f66104c1366004613c89565b610d3c565b6102f6610e22565b6103136104dc366004613efb565b610eda565b610313610f33565b61041e6104f7366004613df3565b610f74565b6103dc610f99565b6103dc610fbd565b610514610fe1565b6040516102ba91906141b4565b6102ad61107b565b6103136110dc565b61031361112d565b610313610547366004613fa2565b611133565b6102d661055a366004613dae565b6112b9565b6102d661056d366004613dae565b6112f7565b6103dc611304565b6103dc61130e565b61031361131d565b6102f6610598366004613d39565b611358565b61047f6105ab366004613df3565b6114c8565b6103136105be366004613cc1565b6115ad565b6105146115ea565b60038054604080516020601f60026000196101006001881615020190951694909404938401819004810282018101909252828152606093909290918301828280156106575780601f1061062c57610100808354040283529160200191610657565b820191906000526020600020905b81548152906001019060200180831161063a57829003601f168201915b5050505050905090565b600061066e338484611643565b5060015b92915050565b600b5460408051808201909152600e81526d1b9bdd08185d5d1a1bdc9a5e995960921b6020820152906001600160a01b031633146106d25760405162461bcd60e51b81526004016106c99190614259565b60405180910390fd5b50600b80546001600160a01b0319166001600160a01b0383161790556040517fb8fd9afc34c38fcd13b9a3b7646482eb1fddcefb40af2c70609972816eba32089061071e90839061416f565b60405180910390a150565b6107316116a5565b61073a816116d3565b50565b60025490565b600080600061075061174f565b15925061075b61176c565b9150610765611790565b9050909192565b60008061077985336115ad565b905061079d336001600160a01b03871614806107955750838210155b61019e6117b4565b6107a88585856117c2565b336001600160a01b038616148015906107c357506000198114155b156107d5576107d58533858403611643565b506001949350505050565b60055460ff1690565b60006107f36118aa565b905090565b6108006116a5565b610808611968565b61073a8161197d565b7f000000000000000000000000000000000000000000000000000000000000000090565b3360008181526001602090815260408083206001600160a01b0387168452909152812054909161066e91859061086b90866119e6565b611643565b610878613bbc565b5060408051606081018252600a5460ff81161515825261010081046001600160781b03166020830152600160801b90046001600160801b03169181019190915290565b6000806000806108ca856119f8565b905060006108d886156119f8565b90506108e48883611a4c565b97506108f08782611a4c565b96506108fd888888611a58565b945094509450505093509350939050565b600c546040805180820190915260118152703737ba103830bab9b29036b0b730b3b2b960791b6020820152906001600160a01b031633146109cd5760405162461bcd60e51b81526004018080602001828103825283818151815260200191508051906020019080838360005b8381101561099257818101518382015260200161097a565b50505050905090810190601f1680156109bf5780820380516001836020036101000a031916815260200191505b509250505060405180910390fd5b506109d86000610731565b6040517f215385c8bfc731925ec8068d7baa50f6b6f34417cc7804f7273dc2c0b3db279090600090a1565b600d546001600160a01b031681565b60008060008060008060006008549050610a2b81611b27565b9650610a3681611b33565b9550610a4181611b40565b9450610a4c81611b4d565b9350610a5781611b5a565b9250610a6281611b67565b915050909192939495565b60006107f3600854611b67565b60006060610a8a86516002611b74565b610a9f89898989898989611b81611c48611cc6565b97509795505050505050565b600080610ab661131d565b90506000610ac261073d565b9050600080610ad360095485611dd9565b50919350915060009050610af182610aeb8686611e42565b90611e42565b9050610afd8582611e5a565b9550505050505090565b60006107f3610b1461073d565b610b26610b1f61131d565b6002611eb4565b90611e5a565b600b546001600160a01b031681565b610b43613bdc565b6107f3611ed8565b6001600160a01b0381166000908152602081905260409020545b919050565b60608088610b94610b79610fbd565b6001600160a01b0316336001600160a01b03161460cd6117b4565b610ba9610b9f610811565b82146101f46117b4565b610bb287611efe565b6000806000610bc68d8d8d8d8d8d8d611b81565b925092509250610bd68c84611f60565b610bdf82611c48565b610be881611c48565b909c909b509950505050505050505050565b600b5460408051808201909152600e81526d1b9bdd08185d5d1a1bdc9a5e995960921b6020820152906001600160a01b03163314610c4b5760405162461bcd60e51b81526004016106c99190614259565b50600a5460408051808201909152601081526f1c1bdbdb081a5cc81d5b98d85c1c195960821b60208201529060ff16610c975760405162461bcd60e51b81526004016106c99190614259565b508051600a8054602084015160408086015160ff19909316941515949094176fffffffffffffffffffffffffffffff0019166101006001600160781b0390921691909102176001600160801b03908116600160801b919092160217815590517f2abf5970d7bc1a2b36eaae52dd2cc353edb0337c7284ef8a01973081b4e044249161071e916142e1565b6001600160a01b031660009081526006602052604090205490565b600c546040805180820190915260118152703737ba103830bab9b29036b0b730b3b2b960791b60208201526001600160a01b0390911690338214610dc15760405162461bcd60e51b815260206004820181815283516024840152835190928392604490910191908501908083836000831561099257818101518382015260200161097a565b50600c80546001600160a01b0319166001600160a01b03848116918217909255604080519284168352602083019190915280517f1ffccd1fa96f4fb3415df8048a0fd107344e262d2d246c85105e2a3f8f3e81989281900390910190a15050565b600c546040805180820190915260118152703737ba103830bab9b29036b0b730b3b2b960791b6020820152906001600160a01b03163314610ea45760405162461bcd60e51b815260206004820181815283516024840152835190928392604490910191908501908083836000831561099257818101518382015260200161097a565b50610eaf6001610731565b6040517f681eace576127d0553b224436a09801fb47d042942cbff59d7d4ff04d8fa03d790600090a1565b604080517f00000000000000000000000000000000000000000000000000000000000000006020808301919091526001600160e01b03198416828401528251602481840301815260449092019092528051910120919050565b600080610f3e61073d565b9050600080610f56600954610f5161131d565b611dd9565b509193509150610f6c905081610aeb8585611e42565b935050505090565b60006060610f8486516002611b74565b610a9f89898989898989611f6a612029611cc6565b7f000000000000000000000000000000000000000000000000000000000000000090565b7f000000000000000000000000000000000000000000000000000000000000000090565b60606000610fed61208b565b60408051600280825260608201835292935091906020830190803683370190505091506110448160008151811061102057fe5b60200260200101518260018151811061103557fe5b60200260200101516001611a58565b9091508360008151811061105457fe5b602002602001018460018151811061106857fe5b6020908102919091010191909152525090565b60048054604080516020601f60026000196101006001881615020190951694909404938401819004810282018101909252828152606093909290918301828280156106575780601f1061062c57610100808354040283529160200191610657565b6000806110e761208b565b90506000806000611113846000815181106110fe57fe5b60200260200101518560018151811061103557fe5b925092509250611124848383612141565b94505050505090565b60095490565b600061113d611968565b836080015161114d610b79610fbd565b611158610b9f610811565b60007f00000000000000000000000000000000000000000000000000000000000000006001600160a01b031686602001516001600160a01b031614905060006111a0826119f8565b905060006111ae83156119f8565b90506111ba8783611a4c565b96506111c68682611a4c565b955060008060006111d88a8a88611a58565b9194509250905060008b5160018111156111ee57fe5b141561125d57600061120c611201610a6d565b60608e01519061217f565b905061122e611228828e606001516121d490919063ffffffff16565b87611a4c565b60608d015260006112428d8d8d87876121ea565b905061124e8187612209565b995050505050505050506112b1565b61126b8b6060015185611a4c565b60608c0152600061127f8c8c8c8686612215565b905061128b8187612228565b90506112a76112a061129b610a6d565b612234565b829061225a565b9850505050505050505b509392505050565b6000806112c633856115ad565b90508083106112e0576112db33856000611643565b6112ed565b6112ed3385858403611643565b5060019392505050565b600061066e3384846117c2565b60006107f36122c0565b600c546001600160a01b031681565b60008061132861208b565b90506000611334611ed8565b9050611351828260005b60200201518360015b602002015161233a565b9250505090565b6113668442111560d16117b4565b6001600160a01b0380881660008181526006602090815260408083205481517f00000000000000000000000000000000000000000000000000000000000000008185015280830195909552948b166060850152608084018a905260a0840185905260c08085018a90528151808603909101815260e090940190528251920191909120906113f28261236d565b9050600060018288888860405160008152602001604052604051808581526020018460ff1681526020018381526020018281526020019450505050506020604051602081039080840390855afa158015611450573d6000803e3d6000fd5b5050604051601f190151915061149290506001600160a01b0382161580159061148a57508b6001600160a01b0316826001600160a01b0316145b6101f86117b4565b6001600160a01b038b1660009081526006602052604090206001850190556114bb8b8b8b611643565b5050505050505050505050565b606080886114d7610b79610fbd565b6114e2610b9f610811565b6114ea611968565b60006114f461073d565b611564576115048b8b8b886123b9565b94509050611519620f424082101560cc6117b4565b6115276000620f424061248e565b61153689620f4240830361248e565b61153f84612029565b604080516002808252606082018352909160208301908036833701905050925061159f565b61156d88611efe565b61157c8b8b8b8b8b8b8b611f6a565b9095509350905061158d898261248e565b61159684612029565b61159f83611c48565b505097509795505050505050565b60006115b7610fbd565b6001600160a01b0316826001600160a01b031614156115d95750600019610672565b6115e38383612498565b9050610672565b60606107f36124c3565b806115fe81612532565b5050565b60006116108383605661162d565b9392505050565b60006116278383111560016117b4565b50900390565b67ffffffffffffffff811b1992909216911b1790565b6001600160a01b03808416600081815260016020908152604080832094871680845294825291829020859055815185815291517f8c5be1e5ebec7d5bd14f71427d1e84f3dd0314c0f7b2291e5b200ac8c7c3b9259281900390910190a3505050565b60006116bc6000356001600160e01b031916610eda565b905061073a6116cb82336125b0565b6101916117b4565b80156116f3576116ee6116e461176c565b42106101936117b4565b611708565b6117086116fe611790565b42106101a96117b4565b6007805482151560ff19909116811790915560408051918252517f9e3a5e37224532dea67b89face185703738a228a6e8a23dee546960180d3be649181900360200190a150565b6000611759611790565b4211806107f357505060075460ff161590565b7f000000000000000000000000000000000000000000000000000000000000000090565b7f000000000000000000000000000000000000000000000000000000000000000090565b816115fe576115fe816126b2565b6117d96001600160a01b03841615156101986117b4565b6117f06001600160a01b03831615156101996117b4565b6117fb8383836125ab565b6001600160a01b03831660009081526020819052604090205461182190826101a0612705565b6001600160a01b03808516600090815260208190526040808220939093559084168152205461185090826119e6565b6001600160a01b038084166000818152602081815260409182902094909455805185815290519193928716927fddf252ad1be2c89b69c2b068fc378daa952ba7f163c4a11628f55a4df523b3ef92918290030190a3505050565b60007f00000000000000000000000000000000000000000000000000000000000000007f00000000000000000000000000000000000000000000000000000000000000007f000000000000000000000000000000000000000000000000000000000000000061191761271b565b3060405160200180868152602001858152602001848152602001838152602001826001600160a01b031681526020019550505050505060405160208183030381529060405280519060200120905090565b61197b61197361174f565b6101926117b4565b565b61199064e8d4a5100082101560cb6117b4565b6119a667016345785d8a000082111560ca6117b4565b6008546119b39082611602565b6008556040517fa9ba3ffe0b6c366b81232caab38605a0699ad5398d6cce76f91ee809e322dafc9061071e90839061420f565b600082820161161084821015836117b4565b600081611a25577f0000000000000000000000000000000000000000000000000000000000000000610672565b7f000000000000000000000000000000000000000000000000000000000000000092915050565b6000611610838361271f565b60408051600280825260608201835260009283928392839260208301908036833701905050905084611a8a5785611a8c565b865b81600081518110611a9957fe5b60200260200101818152505084611ab05786611ab2565b855b81600181518110611abf57fe5b6020026020010181815250506000611ad5611ed8565b9050611ae38282600061133e565b94506000611af18287612758565b905086611b02576020810151611b05565b80515b945086611b13578051611b19565b60208101515b935050505093509350939050565b6000610672828261278c565b600061067282601661278c565b600061067282602c6127b3565b600061067282604b6127bd565b60006106728260556127c5565b60006106728260566127cf565b6115fe81831460676117b4565b60006060806000611b90611ed8565b9050611b9a61174f565b15611bfc576000611bb58983835b6020020151846001611347565b90506000611bc38383612758565b9050611bce826127dd565b611bd88a8861280a565b9096509450611bf18287611bea61073d565b6000612856565b60095550611c129050565b611c06888661280a565b60001960095590945092505b60408051600280825260608201835286928692919060208301908036833701905050935093509350509750975097945050505050565b611c6f81600081518110611c5857fe5b6020026020010151611c6a60016119f8565b611e5a565b81600081518110611c7c57fe5b602002602001018181525050611caa81600181518110611c9857fe5b6020026020010151611c6a60006119f8565b81600181518110611cb757fe5b60200260200101818152505050565b333014611d84576000306001600160a01b0316600036604051611cea92919061415f565b6000604051808303816000865af19150503d8060008114611d27576040519150601f19603f3d011682016040523d82523d6000602084013e611d2c565b606091505b505090508060008114611d3b57fe5b60046000803e6000516001600160e01b0319166343adbafb60e01b8114611d66573d6000803e3d6000fd5b506020600460003e604060205260243d03602460403e601c3d016000f35b611d8d86611efe565b600080611da38b8b8b8b8b8b8b8b63ffffffff16565b5091509150611db5818463ffffffff16565b8051601f1982018390526343adbafb603f1983015260200260231982016044820181fd5b600080600080600080600080611ded6128ae565b93509350935093508360001415611e1257600097508796509094509250611e39915050565b600080611e298c8c611e2261073d565b8989612a20565b909a509850929650909450505050505b92959194509250565b600082820183811015611610576116106000806117b4565b600081611e6d57611e6d600060046117b4565b82611e7a57506000610672565b670de0b6b3a764000083810290848281611e9057fe5b0414611ea257611ea2600060056117b4565b828181611eab57fe5b04949350505050565b6000828202611610841580611ed1575083858381611ece57fe5b04145b60036117b4565b611ee0613bdc565b611eea6001612abb565b8152611ef66000612abb565b602082015290565b611f2581600081518110611f0e57fe5b6020026020010151611f2060016119f8565b61271f565b81600081518110611f3257fe5b602002602001018181525050611caa81600181518110611f4e57fe5b6020026020010151611f2060006119f8565b6115fe8282612b0f565b60006060806000611f79611ed8565b90506000611f88898383611ba8565b90506000611f968383612758565b9050611fa1826127dd565b600080611fae8c8a612bc6565b600a54919350915060ff1615611fd857611fd882611fcb8f610b4b565b611fd361073d565b612c00565b611fec8483611fe561073d565b6001612856565b6009556040805160028082526060820183528492849291906020830190803683370190505097509750975050505050509750975097945050505050565b6120508160008151811061203957fe5b602002602001015161204b60016119f8565b61225a565b8160008151811061205d57fe5b602002602001018181525050611caa8160018151811061207957fe5b602002602001015161204b60006119f8565b60408051600280825260608083018452926020830190803683370190505090506120de7f00000000000000000000000000000000000000000000000000000000000000006120d960016119f8565b612d12565b816000815181106120eb57fe5b6020026020010181815250506121257f00000000000000000000000000000000000000000000000000000000000000006120d960006119f8565b8160018151811061213257fe5b60200260200101818152505090565b60006121778460008151811061215357fe5b6020026020010151848660018151811061216957fe5b602002602001015185612db9565b949350505050565b600082820283158061219957508284828161219657fe5b04145b6121a9576121a9600060036117b4565b806121b8576000915050610672565b670de0b6b3a764000060001982015b0460010191505092915050565b60008282111561162757611627600060016117b4565b60006121fd858588606001518686612dd2565b90505b95945050505050565b60006116108383611e5a565b60006121fd858588606001518686612e3c565b6000611610838361225a565b6000670de0b6b3a7640000821061224c576000610672565b50670de0b6b3a76400000390565b60008161226d5761226d600060046117b4565b8261227a57506000610672565b670de0b6b3a76400008381029084828161229057fe5b04146122b4576122b4670de0b6b3a76400008583816122ab57fe5b041460056117b4565b8260018203816121c757fe5b60006122ca610fbd565b6001600160a01b031663aaabadc56040518163ffffffff1660e01b815260040160206040518083038186803b15801561230257600080fd5b505afa158015612316573d6000803e3d6000fd5b505050506040513d601f19601f820116820180604052508101906107f39190613ca5565b600080600080600061234d888888612e9c565b935093509350935061236184848484612ff4565b98975050505050505050565b60006123776118aa565b82604051602001808061190160f01b81525060020183815260200182815260200192505050604051602081830303815290604052805190602001209050919050565b6000606060006123c884613068565b90506123e360008260038111156123db57fe5b1460ce6117b4565b60006123ee85613087565b90506123fc81516002611b74565b61240581611efe565b600080600061241a846000815181106110fe57fe5b925092509250600061242d858484612141565b9050600061247561245b838860008151811061244557fe5b602002602001015161271f90919063ffffffff16565b8760018151811061246857fe5b60200260200101516119e6565b60099590955550929b939a509298505050505050505050565b6115fe828261313b565b6001600160a01b03918216600090815260016020908152604080832093909416825291909152205490565b604080516002808252606080830184529260009291906020830190803683370190505090506124f260016131d0565b816000815181106124ff57fe5b60200260200101818152505061251560006131d0565b8160018151811061252257fe5b6020908102919091010152905090565b6002815110156125415761073a565b60008160008151811061255057fe5b602002602001015190506000600190505b82518110156125ab57600083828151811061257857fe5b602002602001015190506125a1816001600160a01b0316846001600160a01b03161060656117b4565b9150600101612561565b505050565b600073ba1ba1ba1ba1ba1ba1ba1ba1ba1ba1ba1ba1ba1b6125cf610f99565b6001600160a01b0316141580156125ea57506125ea83613224565b15612612576125f7610f99565b6001600160a01b0316336001600160a01b0316149050610672565b61261a6122c0565b6001600160a01b0316639be2a8848484306040518463ffffffff1660e01b815260040180848152602001836001600160a01b03168152602001826001600160a01b03168152602001935050505060206040518083038186803b15801561267f57600080fd5b505afa158015612693573d6000803e3d6000fd5b505050506040513d60208110156126a957600080fd5b50519050610672565b62461bcd60e51b6000908152602060045260076024526642414c23000030600a808404818106603090810160081b95839006959095019082900491820690940160101b939093010160c81b604452606490fd5b600061271484841115836117b4565b5050900390565b4690565b600082820283158061273957508284828161273657fe5b04145b61274957612749600060036117b4565b670de0b6b3a764000081611eab565b612760613bdc565b612773600184815b602002015184613256565b815261278160008481612768565b602082015292915050565b600082821c623fffff16621fffff81136127a65780612177565b623fffff19179392505050565b1c637fffffff1690565b1c6103ff1690565b1c60019081161490565b1c67ffffffffffffffff1690565b6000806000806127ef60095486611dd9565b935093509350935061280384848484613276565b5050505050565b60006060600061281984613068565b9050600181600381111561282957fe5b141561284357612839858561329c565b909350915061284e565b61284e6101506126b2565b509250929050565b600081156128885760006128748461286e888861217f565b9061225a565b90506128808682611e42565b915050612177565b600061289884610b26888861271f565b90506128a486826121d4565b9695505050505050565b600d546000908190819081906128d5906001600160a01b03163063032434c560e41b6132ce565b600d546128f3906001600160a01b03163063032434c560e41b6132f5565b600d546040516321f8a72160e01b81526001600160a01b03909116906321f8a72190612933906c4759524f5f545245415355525960981b9060040161420f565b60206040518083038186803b15801561294b57600080fd5b505afa15801561295f573d6000803e3d6000fd5b505050506040513d601f19601f820116820180604052508101906129839190613ca5565b600d546040516321f8a72160e01b81526001600160a01b03909116906321f8a721906129c2906b42414c5f545245415355525960a01b9060040161420f565b60206040518083038186803b1580156129da57600080fd5b505afa1580156129ee573d6000803e3d6000fd5b505050506040513d601f19601f82011682018060405250810190612a129190613ca5565b935093509350935090919293565b600080868611612a3557506000905080612ab1565b6000612a5585612a4f612a488a8c6121d4565b899061271f565b9061271f565b90506000612a6d612a66898b6121d4565b879061271f565b90506000612a7b89836121d4565b90506000612a898483611e5a565b90506000612a97888361271f565b90506000612aa583836121d4565b91975090955050505050505b9550959350505050565b600081612ae8577f0000000000000000000000000000000000000000000000000000000000000000610672565b507f0000000000000000000000000000000000000000000000000000000000000000919050565b612b266001600160a01b038316151561019b6117b4565b612b32826000836125ab565b6001600160a01b038216600090815260208190526040902054612b5890826101a1612705565b6001600160a01b038316600090815260208190526040902055600254612b7e9082613323565b6002556040805182815290516000916001600160a01b038516917fddf252ad1be2c89b69c2b068fc378daa952ba7f163c4a11628f55a4df523b3ef9181900360200190a35050565b600060606000612bd584613068565b90506003816003811115612be557fe5b1415612bf5576128398585613331565b61284e6101366126b2565b60408051606081018252600a5460ff81161515825261010081046001600160781b031660208301819052600160801b9091046001600160801b03169282019290925290612c4d8585611e42565b11156040518060400160405280601a81526020017f6f7665722061646472657373206c69717569646974792063617000000000000081525090612ca35760405162461bcd60e51b81526004016106c99190614259565b5060408101516001600160801b0316612cbc8584611e42565b11156040518060400160405280601981526020017f6f76657220676c6f62616c206c69717569646974792063617000000000000000815250906128035760405162461bcd60e51b81526004016106c99190614259565b6000806000612d1f610fbd565b6001600160a01b031663b05f8e48612d35610811565b876040518363ffffffff1660e01b8152600401612d53929190614218565b60806040518083038186803b158015612d6b57600080fd5b505afa158015612d7f573d6000803e3d6000fd5b505050506040513d601f19601f82011682018060405250810190612da391906140e5565b505081810194509092509050612200838561271f565b6000612200612dc88686611e42565b61286e8585611e42565b600080612df1612dea85670de0b6b3a764000261217f565b8890611e42565b90506000612e0a612dea85670de0b6b3a763ffff61271f565b9050612e23612e198388611e42565b610b26838961271f565b9250505084811115612200576122006000610165613356565b600084841115612e5357612e536000610165613356565b6000612e6a612dea85670de0b6b3a764000261217f565b90506000612e83612dea85670de0b6b3a763ffff61271f565b9050612361612e9282886121d4565b61286e848961217f565b6000808080612ebd612eae8787611e5a565b670de0b6b3a7640000906121d4565b93506000612ee88689600181518110612ed257fe5b6020026020010151611e5a90919063ffffffff16565b90506000612efd888a60008151811061244557fe5b9050612f098282611e42565b9450612f3089600181518110612f1b57fe5b60200260200101518a60008151811061244557fe5b92505050612f6186612a4f88612a4f8b600081518110612f4c57fe5b60200260200101518c60008151811061244557fe5b91506000612fa186610b2689612a4f670de0b6b3a7640000600202612a4f8e600181518110612f8c57fe5b60200260200101518f60008151811061244557fe5b90506000612fd7612fb2888061217f565b610b268b600181518110612fc257fe5b60200260200101518c60018151811061244557fe5b9050612fe781610aeb8685611e42565b9350505093509350935093565b60008061300986671bc16d674ec8000061217f565b9050600061302387612a4f86673782dace9d90000061271f565b905060006130318683611e42565b90506000613040826005613364565b9050600061304e8983611e42565b905061305a8186611e5a565b9a9950505050505050505050565b600081806020019051602081101561307f57600080fd5b505192915050565b606081806020019051604081101561309e57600080fd5b8151602083018051604051929492938301929190846401000000008211156130c557600080fd5b9083019060208201858111156130da57600080fd5b82518660208202830111640100000000821117156130f757600080fd5b82525081516020918201928201910280838360005b8381101561312457818101518382015260200161310c565b505050509190910160405250929695505050505050565b613147600083836125ab565b60025461315490826119e6565b6002556001600160a01b03821660009081526020819052604090205461317a90826119e6565b6001600160a01b0383166000818152602081815260408083209490945583518581529351929391927fddf252ad1be2c89b69c2b068fc378daa952ba7f163c4a11628f55a4df523b3ef9281900390910190a35050565b6000816131fd577f0000000000000000000000000000000000000000000000000000000000000000610672565b507f0000000000000000000000000000000000000000000000000000000000000000919050565b6000613236631c74c91760e11b610eda565b821480610672575061324e6350dd6ed960e01b610eda565b909114919050565b60008361326c576132678284611a4c565b612177565b6121778284612209565b831561328657613286828561248e565b821561329657613296818461248e565b50505050565b6000606060006132ab846134f2565b905060006132c186836132bc61073d565b613514565b9196919550909350505050565b6000612177847550524f544f434f4c5f535741505f4645455f5045524360501b848661359a565b6000612177847f50524f544f434f4c5f4645455f4759524f5f504f5254494f4e00000000000000848661359a565b600061161083836001612705565b600060606000613340846134f2565b905060006132c1868361335161073d565b613847565b816115fe576115fe816138e3565b60008261337357506000610672565b600061337e846138f3565b9050600281670de0b6b3a764000086028161339557fe5b0482018161339f57fe5b049050600281670de0b6b3a76400008602816133b757fe5b048201816133c157fe5b049050600281670de0b6b3a76400008602816133d957fe5b048201816133e357fe5b049050600281670de0b6b3a76400008602816133fb57fe5b0482018161340557fe5b049050600281670de0b6b3a764000086028161341d57fe5b0482018161342757fe5b049050600281670de0b6b3a764000086028161343f57fe5b0482018161344957fe5b049050600281670de0b6b3a764000086028161346157fe5b0482018161346b57fe5b049050600061347a828061271f565b9050613490613489838661217f565b8690611e42565b81111580156134b257506134ae6134a7838661217f565b86906121d4565b8110155b6112b1576040805162461bcd60e51b815260206004820152600c60248201526b17dcdc5c9d0811905253115160a21b604482015290519081900360640190fd5b600081806020019051604081101561350957600080fd5b506020015192915050565b6060835167ffffffffffffffff8111801561352e57600080fd5b50604051908082528060200260200182016040528015613558578160200160208202803683370190505b50905060005b84518110156112b15761357b83610b268688858151811061244557fe5b82828151811061358757fe5b602090810291909101015260010161355e565b6040805160208082018690526001600160a01b03808516838501528351808403850181526060840180865281519184019190912063696eb37560e01b909152606484018190529351600094939189169263696eb3759260848082019391829003018186803b15801561360b57600080fd5b505afa15801561361f573d6000803e3d6000fd5b505050506040513d602081101561363557600080fd5b5051156136b557856001600160a01b031663bd02d0f5826040518263ffffffff1660e01b81526004018082815260200191505060206040518083038186803b15801561368057600080fd5b505afa158015613694573d6000803e3d6000fd5b505050506040513d60208110156136aa57600080fd5b505191506121779050565b6040805160208082018890528183018790528251808303840181526060830180855281519183019190912063696eb37560e01b9091526064830181905292516001600160a01b038a169263696eb375926084808301939192829003018186803b15801561372157600080fd5b505afa158015613735573d6000803e3d6000fd5b505050506040513d602081101561374b57600080fd5b5051156137cc57866001600160a01b031663bd02d0f5826040518263ffffffff1660e01b81526004018082815260200191505060206040518083038186803b15801561379657600080fd5b505afa1580156137aa573d6000803e3d6000fd5b505050506040513d60208110156137c057600080fd5b50519250612177915050565b866001600160a01b031663bd02d0f5876040518263ffffffff1660e01b81526004018082815260200191505060206040518083038186803b15801561381057600080fd5b505afa158015613824573d6000803e3d6000fd5b505050506040513d602081101561383a57600080fd5b5051979650505050505050565b6060835167ffffffffffffffff8111801561386157600080fd5b5060405190808252806020026020018201604052801561388b578160200160208202803683370190505b50905060005b84518110156112b1576138c48361286e868885815181106138ae57fe5b602002602001015161217f90919063ffffffff16565b8282815181106138d057fe5b6020908102919091010152600101613891565b61073a816223aca960e91b613ac5565b6000670de0b6b3a7640000821061392057670de0b6b3a7640000613918818404613b26565b1b9050610b65565b600a8211613933575063bc7c871c610b65565b6064821161394757506402540be400610b65565b6103e8821161395c575064075cdd4719610b65565b6127108211613971575064174876e800610b65565b620186a0821161398757506449a0a4c700610b65565b620f4240821161399d575064e8d4a51000610b65565b6298968082116139b457506502e0466fc608610b65565b6305f5e10082116139cc57506509184e72a000610b65565b633b9aca0082116139e45750651cc2c05dbc53610b65565b6402540be40082116139fd5750655af3107a4000610b65565b64174876e8008211613a17575066011f9b83a95b45610b65565b64e8d4a510008211613a31575066038d7ea4c68000610b65565b6509184e72a0008211613a4c5750660b3c13249d90bb610b65565b655af3107a40008211613a675750662386f26fc10000610b65565b66038d7ea4c680008211613a835750667058bf6e27a751610b65565b662386f26fc100008211613aa0575067016345785d8a0000610b65565b67016345785d8a00008211613abe5750670463777a4d8c892d610b65565b5080610b65565b62461bcd60e51b600090815260206004526007602452600a808404818106603090810160081b958390069590950190829004918206850160101b01602363ffffff0060e086901c160160181b0190930160c81b60445260e882901c90606490fd5b6000600160801b8210613b3e5760809190911c906040015b680100000000000000008210613b595760409190911c906020015b6401000000008210613b705760209190911c906010015b620100008210613b855760109190911c906008015b6101008210613b995760089190911c906004015b60108210613bac5760049190911c906002015b60048210610b6557600101919050565b604080516060810182526000808252602082018190529181019190915290565b60405180604001604052806002906020820280368337509192915050565b8035610b658161436d565b80358015158114610b6557600080fd5b600082601f830112613c25578081fd5b813567ffffffffffffffff811115613c3957fe5b613c4c601f8201601f1916602001614349565b818152846020838601011115613c60578283fd5b816020850160208301379081016020019190915292915050565b803560028110610b6557600080fd5b600060208284031215613c9a578081fd5b81356116108161436d565b600060208284031215613cb6578081fd5b81516116108161436d565b60008060408385031215613cd3578081fd5b8235613cde8161436d565b91506020830135613cee8161436d565b809150509250929050565b600080600060608486031215613d0d578081fd5b8335613d188161436d565b92506020840135613d288161436d565b929592945050506040919091013590565b600080600080600080600060e0888a031215613d53578283fd5b8735613d5e8161436d565b96506020880135613d6e8161436d565b95506040880135945060608801359350608088013560ff81168114613d91578384fd5b9699959850939692959460a0840135945060c09093013592915050565b60008060408385031215613dc0578182fd5b8235613dcb8161436d565b946020939093013593505050565b600060208284031215613dea578081fd5b61161082613c05565b600080600080600080600060e0888a031215613e0d578081fd5b87359650602080890135613e208161436d565b96506040890135613e308161436d565b9550606089013567ffffffffffffffff80821115613e4c578384fd5b818b0191508b601f830112613e5f578384fd5b813581811115613e6b57fe5b613e788485830201614349565b8082825285820191508585018f878886028801011115613e96578788fd5b8795505b83861015613eb8578035835260019590950194918601918601613e9a565b509850505060808b0135955060a08b0135945060c08b0135925080831115613ede578384fd5b5050613eec8a828b01613c15565b91505092959891949750929550565b600060208284031215613f0c578081fd5b81356001600160e01b031981168114611610578182fd5b600060608284031215613f34578081fd5b6040516060810181811067ffffffffffffffff82111715613f5157fe5b604052613f5d83613c05565b815260208301356001600160781b0381168114613f78578283fd5b602082015260408301356001600160801b0381168114613f96578283fd5b60408201529392505050565b600080600060608486031215613fb6578081fd5b833567ffffffffffffffff80821115613fcd578283fd5b8186019150610120808389031215613fe3578384fd5b613fec81614349565b9050613ff783613c7a565b815261400560208401613bfa565b602082015261401660408401613bfa565b6040820152606083013560608201526080830135608082015260a083013560a082015261404560c08401613bfa565b60c082015261405660e08401613bfa565b60e0820152610100808401358381111561406e578586fd5b61407a8a828701613c15565b9183019190915250976020870135975060409096013595945050505050565b6000602082840312156140aa578081fd5b5035919050565b6000806000606084860312156140c5578081fd5b83359250602084013591506140dc60408501613c05565b90509250925092565b600080600080608085870312156140fa578182fd5b845193506020850151925060408501519150606085015161411a8161436d565b939692955090935050565b6000815180845260208085019450808401835b8381101561415457815187529582019590820190600101614138565b509495945050505050565b6000828483379101908152919050565b6001600160a01b0391909116815260200190565b60408101818360005b60028110156141ab57815183526020928301929091019060010161418c565b50505092915050565b6000602082526116106020830184614125565b6000604082526141da6040830185614125565b82810360208401526122008185614125565b901515815260200190565b92151583526020830191909152604082015260600190565b90815260200190565b9182526001600160a01b0316602082015260400190565b9586526020860194909452604085019290925260608401521515608083015260a082015260c00190565b6000602080835283518082850152825b8181101561428557858101830151858201604001528201614269565b818111156142965783604083870101525b50601f01601f1916929092016040019392505050565b8151151581526020808301516001600160781b0316908201526040918201516001600160801b03169181019190915260600190565b905460ff811615158252600881901c6001600160781b0316602083015260801c604082015260600190565b6000838252604060208301526121776040830184614125565b9283526020830191909152604082015260600190565b60ff91909116815260200190565b60405181810167ffffffffffffffff8111828210171561436557fe5b604052919050565b6001600160a01b038116811461073a57600080fdfea2646970667358221220a45352f14fca6a73fc204bf62716172b9fb00a4effeb2dd683dab6b961c3007e64736f6c63430007060033","bytecodeSha1":"89b4d51e26a32d7aab53c667dab5f7ca02584684","compiler":{"evm_version":"berlin","optimizer":{"enabled":true,"runs":200},"version":"0.7.6+commit.7338295f"},"contractName":"Gyro2CLPPoolFactory","language":"Solidity","natspec":{"kind":"dev","methods":{"create(string,string,address[],uint256[],uint256,address,address,(bool,uint120,uint128),address,(uint256,uint256))":{"details":"Deploys a new `Gyro2CLPPool`."},"getCreationCode()":{"details":"Returns the creation code of the contract this factory creates."},"getCreationCodeContracts()":{"details":"Returns the two addresses where the creation code of the contract crated by this factory is stored."},"getVault()":{"details":"Returns the Vault's address."},"isPoolFromFactory(address)":{"details":"Returns true if `pool` was created by this factory."}},"version":1},"opcodes":"PUSH1 0x80 PUSH1 0x40 MSTORE CALLVALUE DUP1 ISZERO PUSH2 0x10 JUMPI PUSH1 0x0 DUP1 REVERT JUMPDEST POP PUSH1 0x4 CALLDATASIZE LT PUSH2 0x61 JUMPI PUSH1 0x0 CALLDATALOAD PUSH1 0xE0 SHR DUP1 PUSH3 0xC194DB EQ PUSH2 0x66 JUMPI DUP1 PUSH4 0xBC7B4C4 EQ PUSH2 0x84 JUMPI DUP1 PUSH4 0x174481FA EQ PUSH2 0x99 JUMPI DUP1 PUSH4 0x6634B753 EQ PUSH2 0xAF JUMPI DUP1 PUSH4 0x8D928AF8 EQ PUSH2 0xCF JUMPI DUP1 PUSH4 0xEAD6C671 EQ PUSH2 0xD7 JUMPI JUMPDEST PUSH1 0x0 DUP1 REVERT JUMPDEST PUSH2 0x6E PUSH2 0xEA JUMP JUMPDEST PUSH1 0x40 MLOAD PUSH2 0x7B SWAP2 SWAP1 PUSH2 0xA0F JUMP JUMPDEST PUSH1 0x40 MLOAD DUP1 SWAP2 SUB SWAP1 RETURN JUMPDEST PUSH2 0x8C PUSH2 0x109 JUMP JUMPDEST PUSH1 0x40 MLOAD PUSH2 0x7B SWAP2 SWAP1 PUSH2 0x9D6 JUMP JUMPDEST PUSH2 0xA1 PUSH2 0x12D JUMP JUMPDEST PUSH1 0x40 MLOAD PUSH2 0x7B SWAP3 SWAP2 SWAP1 PUSH2 0x9EA JUMP JUMPDEST PUSH2 0xC2 PUSH2 0xBD CALLDATASIZE PUSH1 0x4 PUSH2 0x82C JUMP JUMPDEST PUSH2 0x173 JUMP JUMPDEST PUSH1 0x40 MLOAD PUSH2 0x7B SWAP2 SWAP1 PUSH2 0xA04 JUMP JUMPDEST PUSH2 0x8C PUSH2 0x195 JUMP JUMPDEST PUSH2 0x8C PUSH2 0xE5 CALLDATASIZE PUSH1 0x4 PUSH2 0x848 JUMP JUMPDEST PUSH2 0x1B9 JUMP JUMPDEST PUSH1 0x60 PUSH2 0x104 PUSH1 0x40 MLOAD DUP1 PUSH1 0x20 ADD PUSH1 0x40 MSTORE DUP1 PUSH1 0x0 DUP2 MSTORE POP PUSH2 0x2E4 JUMP JUMPDEST SWAP1 POP SWAP1 JUMP JUMPDEST PUSH32 0x0 DUP2 JUMP JUMPDEST PUSH32 0x0 PUSH32 0x0 SWAP1 SWAP2 JUMP JUMPDEST PUSH1 0x1 PUSH1 0x1 PUSH1 0xA0 SHL SUB DUP2 AND PUSH1 0x0 SWAP1 DUP2 MSTORE PUSH1 0x20 DUP2 SWAP1 MSTORE PUSH1 0x40 SWAP1 KECCAK256 SLOAD PUSH1 0xFF AND JUMPDEST SWAP2 SWAP1 POP JUMP JUMPDEST PUSH32 0x0 SWAP1 JUMP JUMPDEST PUSH1 0x0 DUP1 PUSH2 0x1CA DUP13 DUP13 DUP13 DUP12 DUP12 DUP9 PUSH2 0x3BD JUMP JUMPDEST SWAP1 POP PUSH1 0x0 PUSH1 0x40 MLOAD DUP1 PUSH1 0xC0 ADD PUSH1 0x40 MSTORE DUP1 DUP4 DUP2 MSTORE PUSH1 0x20 ADD DUP12 PUSH1 0x0 DUP2 MLOAD DUP2 LT PUSH2 0x1EC JUMPI INVALID JUMPDEST PUSH1 0x20 MUL PUSH1 0x20 ADD ADD MLOAD DUP2 MSTORE PUSH1 0x20 ADD DUP12 PUSH1 0x1 DUP2 MLOAD DUP2 LT PUSH2 0x206 JUMPI INVALID JUMPDEST PUSH1 0x20 MUL PUSH1 0x20 ADD ADD MLOAD DUP2 MSTORE PUSH1 0x20 ADD DUP9 PUSH1 0x1 PUSH1 0x1 PUSH1 0xA0 SHL SUB AND DUP2 MSTORE PUSH1 0x20 ADD DUP8 DUP2 MSTORE PUSH1 0x20 ADD DUP7 PUSH1 0x1 PUSH1 0x1 PUSH1 0xA0 SHL SUB AND DUP2 MSTORE POP SWAP1 POP PUSH2 0x281 DUP2 PUSH32 0x0 PUSH1 0x40 MLOAD PUSH1 0x20 ADD PUSH2 0x26D SWAP3 SWAP2 SWAP1 PUSH2 0xA22 JUMP JUMPDEST PUSH1 0x40 MLOAD PUSH1 0x20 DUP2 DUP4 SUB SUB DUP2 MSTORE SWAP1 PUSH1 0x40 MSTORE PUSH2 0x46C JUMP JUMPDEST SWAP14 SWAP13 POP POP POP POP POP POP POP POP POP POP POP POP POP JUMP JUMPDEST DUP1 MLOAD PUSH32 0x602038038060206000396000F3FEFEFEFEFEFEFEFEFEFEFEFEFEFEFEFEFEFEFE DUP1 DUP4 MSTORE PUSH1 0x0 SWAP2 PUSH1 0x20 DUP2 ADD DUP5 DUP5 CREATE SWAP1 DUP5 MSTORE SWAP2 POP PUSH2 0x2DE PUSH1 0x1 PUSH1 0x1 PUSH1 0xA0 SHL SUB DUP4 AND ISZERO ISZERO PUSH2 0x1AC PUSH2 0x4CC JUMP JUMPDEST POP SWAP2 SWAP1 POP JUMP JUMPDEST DUP1 MLOAD PUSH1 0x40 DUP1 MLOAD PUSH32 0x0 PUSH32 0x0 DUP2 DUP2 ADD DUP6 DUP2 ADD DUP5 DUP2 ADD PUSH1 0x20 SWAP1 DUP2 ADD SWAP1 SWAP7 MSTORE DUP1 DUP6 MSTORE SWAP4 SWAP6 PUSH32 0x0 SWAP6 SWAP3 SWAP5 PUSH32 0x0 SWAP5 SWAP4 DUP9 ADD DUP7 PUSH1 0x0 DUP3 DUP11 EXTCODECOPY DUP5 PUSH1 0x0 DUP9 DUP4 ADD DUP9 EXTCODECOPY POP PUSH1 0x20 DUP10 DUP2 ADD SWAP1 DUP10 DUP6 ADD ADD PUSH2 0x3AF DUP2 DUP4 DUP7 PUSH2 0x4DE JUMP JUMPDEST POP POP POP POP POP POP POP POP POP SWAP2 SWAP1 POP JUMP JUMPDEST PUSH2 0x3C5 PUSH2 0x5A9 JUMP JUMPDEST PUSH1 0x40 MLOAD DUP1 PUSH2 0x120 ADD PUSH1 0x40 MSTORE DUP1 PUSH2 0x3D9 PUSH2 0x195 JUMP JUMPDEST PUSH1 0x1 PUSH1 0x1 PUSH1 0xA0 SHL SUB AND DUP2 MSTORE PUSH1 0x20 ADD DUP9 DUP2 MSTORE PUSH1 0x20 ADD DUP8 DUP2 MSTORE PUSH1 0x20 ADD DUP7 PUSH1 0x0 DUP2 MLOAD DUP2 LT PUSH2 0x400 JUMPI INVALID JUMPDEST PUSH1 0x20 MUL PUSH1 0x20 ADD ADD MLOAD PUSH1 0x1 PUSH1 0x1 PUSH1 0xA0 SHL SUB AND DUP2 MSTORE PUSH1 0x20 ADD DUP7 PUSH1 0x1 DUP2 MLOAD DUP2 LT PUSH2 0x423 JUMPI INVALID JUMPDEST PUSH1 0x20 MUL PUSH1 0x20 ADD ADD MLOAD PUSH1 0x1 PUSH1 0x1 PUSH1 0xA0 SHL SUB AND DUP2 MSTORE PUSH1 0x20 ADD DUP6 DUP2 MSTORE PUSH1 0x20 ADD DUP4 PUSH1 0x0 ADD MLOAD DUP2 MSTORE PUSH1 0x20 ADD DUP4 PUSH1 0x20 ADD MLOAD DUP2 MSTORE PUSH1 0x20 ADD DUP5 PUSH1 0x1 PUSH1 0x1 PUSH1 0xA0 SHL SUB AND DUP2 MSTORE POP SWAP1 POP SWAP7 SWAP6 POP POP POP POP POP POP JUMP JUMPDEST PUSH1 0x0 DUP1 PUSH2 0x478 DUP4 PUSH2 0x51C JUMP JUMPDEST PUSH1 0x1 PUSH1 0x1 PUSH1 0xA0 SHL SUB DUP2 AND PUSH1 0x0 DUP2 DUP2 MSTORE PUSH1 0x20 DUP2 SWAP1 MSTORE PUSH1 0x40 DUP1 DUP3 KECCAK256 DUP1 SLOAD PUSH1 0xFF NOT AND PUSH1 0x1 OR SWAP1 SSTORE MLOAD SWAP3 SWAP4 POP SWAP1 SWAP2 PUSH32 0x83A48FBCFC991335314E74D0496AAB6A1987E992DDC85DDDBCC4D6DD6EF2E9FC SWAP2 SWAP1 LOG2 SWAP3 SWAP2 POP POP JUMP JUMPDEST DUP2 PUSH2 0x4DA JUMPI PUSH2 0x4DA DUP2 PUSH2 0x556 JUMP JUMPDEST POP POP JUMP JUMPDEST JUMPDEST PUSH1 0x20 DUP2 LT PUSH2 0x4FE JUMPI DUP2 MLOAD DUP4 MSTORE PUSH1 0x20 SWAP3 DUP4 ADD SWAP3 SWAP1 SWAP2 ADD SWAP1 PUSH1 0x1F NOT ADD PUSH2 0x4DF JUMP JUMPDEST SWAP1 MLOAD DUP3 MLOAD PUSH1 0x20 SWAP3 SWAP1 SWAP3 SUB PUSH2 0x100 EXP PUSH1 0x0 NOT ADD DUP1 NOT SWAP1 SWAP2 AND SWAP2 AND OR SWAP1 MSTORE JUMP JUMPDEST PUSH1 0x0 DUP1 PUSH2 0x528 DUP4 PUSH2 0x2E4 JUMP JUMPDEST SWAP1 POP PUSH1 0x0 DUP2 MLOAD PUSH1 0x20 DUP4 ADD PUSH1 0x0 CREATE SWAP1 POP PUSH1 0x1 PUSH1 0x1 PUSH1 0xA0 SHL SUB DUP2 AND PUSH2 0x54F JUMPI RETURNDATASIZE PUSH1 0x0 DUP1 RETURNDATACOPY RETURNDATASIZE PUSH1 0x0 REVERT JUMPDEST SWAP4 SWAP3 POP POP POP JUMP JUMPDEST PUSH3 0x461BCD PUSH1 0xE5 SHL PUSH1 0x0 SWAP1 DUP2 MSTORE PUSH1 0x20 PUSH1 0x4 MSTORE PUSH1 0x7 PUSH1 0x24 MSTORE PUSH7 0x42414C23000030 PUSH1 0xA DUP1 DUP5 DIV DUP2 DUP2 MOD PUSH1 0x30 SWAP1 DUP2 ADD PUSH1 0x8 SHL SWAP6 DUP4 SWAP1 MOD SWAP6 SWAP1 SWAP6 ADD SWAP1 DUP3 SWAP1 DIV SWAP2 DUP3 MOD SWAP1 SWAP5 ADD PUSH1 0x10 SHL SWAP4 SWAP1 SWAP4 ADD ADD PUSH1 0xC8 SHL PUSH1 0x44 MSTORE PUSH1 0x64 SWAP1 REVERT JUMPDEST PUSH1 0x40 MLOAD DUP1 PUSH2 0x120 ADD PUSH1 0x40 MSTORE DUP1 PUSH1 0x0 PUSH1 0x1 PUSH1 0x1 PUSH1 0xA0 SHL SUB AND DUP2 MSTORE PUSH1 0x20 ADD PUSH1 0x60 DUP2 MSTORE PUSH1 0x20 ADD PUSH1 0x60 DUP2 MSTORE PUSH1 0x20 ADD PUSH1 0x0 PUSH1 0x1 PUSH1 0x1 PUSH1 0xA0 SHL SUB AND DUP2 MSTORE PUSH1 0x20 ADD PUSH1 0x0 PUSH1 0x1 PUSH1 0x1 PUSH1 0xA0 SHL SUB AND DUP2 MSTORE PUSH1 0x20 ADD PUSH1 0x0 DUP2 MSTORE PUSH1 0x20 ADD PUSH1 0x0 DUP2 MSTORE PUSH1 0x20 ADD PUSH1 0x0 DUP2 MSTORE PUSH1 0x20 ADD PUSH1 0x0 PUSH1 0x1 PUSH1 0x1 PUSH1 0xA0 SHL SUB AND DUP2 MSTORE POP SWAP1 JUMP JUMPDEST DUP1 CALLDATALOAD PUSH2 0x190 DUP2 PUSH2 0xB81 JUMP JUMPDEST PUSH1 0x0 DUP3 PUSH1 0x1F DUP4 ADD SLT PUSH2 0x634 JUMPI DUP1 DUP2 REVERT JUMPDEST DUP2 CALLDATALOAD PUSH1 0x20 PUSH2 0x649 PUSH2 0x644 DUP4 PUSH2 0xB63 JUMP JUMPDEST PUSH2 0xB3F JUMP JUMPDEST DUP3 DUP2 MSTORE DUP2 DUP2 ADD SWAP1 DUP6 DUP4 ADD DUP4 DUP6 MUL DUP8 ADD DUP5 ADD DUP9 LT ISZERO PUSH2 0x665 JUMPI DUP6 DUP7 REVERT JUMPDEST DUP6 JUMPDEST DUP6 DUP2 LT ISZERO PUSH2 0x68C JUMPI DUP2 CALLDATALOAD PUSH2 0x67A DUP2 PUSH2 0xB81 JUMP JUMPDEST DUP5 MSTORE SWAP3 DUP5 ADD SWAP3 SWAP1 DUP5 ADD SWAP1 PUSH1 0x1 ADD PUSH2 0x667 JUMP JUMPDEST POP SWAP1 SWAP8 SWAP7 POP POP POP POP POP POP POP JUMP JUMPDEST PUSH1 0x0 DUP3 PUSH1 0x1F DUP4 ADD SLT PUSH2 0x6A9 JUMPI DUP1 DUP2 REVERT JUMPDEST DUP2 CALLDATALOAD PUSH1 0x20 PUSH2 0x6B9 PUSH2 0x644 DUP4 PUSH2 0xB63 JUMP JUMPDEST DUP3 DUP2 MSTORE DUP2 DUP2 ADD SWAP1 DUP6 DUP4 ADD DUP4 DUP6 MUL DUP8 ADD DUP5 ADD DUP9 LT ISZERO PUSH2 0x6D5 JUMPI DUP6 DUP7 REVERT JUMPDEST DUP6 JUMPDEST DUP6 DUP2 LT ISZERO PUSH2 0x68C JUMPI DUP2 CALLDATALOAD DUP5 MSTORE SWAP3 DUP5 ADD SWAP3 SWAP1 DUP5 ADD SWAP1 PUSH1 0x1 ADD PUSH2 0x6D7 JUMP JUMPDEST PUSH1 0x0 DUP3 PUSH1 0x1F DUP4 ADD SLT PUSH2 0x703 JUMPI DUP1 DUP2 REVERT JUMPDEST DUP2 CALLDATALOAD PUSH8 0xFFFFFFFFFFFFFFFF DUP2 GT ISZERO PUSH2 0x717 JUMPI INVALID JUMPDEST PUSH2 0x72A PUSH1 0x1F DUP3 ADD PUSH1 0x1F NOT AND PUSH1 0x20 ADD PUSH2 0xB3F JUMP JUMPDEST DUP2 DUP2 MSTORE DUP5 PUSH1 0x20 DUP4 DUP7 ADD ADD GT ISZERO PUSH2 0x73E JUMPI DUP3 DUP4 REVERT JUMPDEST DUP2 PUSH1 0x20 DUP6 ADD PUSH1 0x20 DUP4 ADD CALLDATACOPY SWAP1 DUP2 ADD PUSH1 0x20 ADD SWAP2 SWAP1 SWAP2 MSTORE SWAP3 SWAP2 POP POP JUMP JUMPDEST PUSH1 0x0 PUSH1 0x60 DUP3 DUP5 SUB SLT ISZERO PUSH2 0x769 JUMPI DUP1 DUP2 REVERT JUMPDEST PUSH1 0x40 MLOAD PUSH1 0x60 DUP2 ADD DUP2 DUP2 LT PUSH8 0xFFFFFFFFFFFFFFFF DUP3 GT OR ISZERO PUSH2 0x786 JUMPI INVALID JUMPDEST PUSH1 0x40 MSTORE SWAP1 POP DUP1 DUP3 CALLDATALOAD DUP1 ISZERO ISZERO DUP2 EQ PUSH2 0x79C JUMPI PUSH1 0x0 DUP1 REVERT JUMPDEST DUP2 MSTORE PUSH1 0x20 DUP4 ADD CALLDATALOAD PUSH1 0x1 PUSH1 0x1 PUSH1 0x78 SHL SUB DUP2 AND DUP2 EQ PUSH2 0x7B8 JUMPI PUSH1 0x0 DUP1 REVERT JUMPDEST PUSH1 0x20 DUP3 ADD MSTORE PUSH1 0x40 DUP4 ADD CALLDATALOAD PUSH1 0x1 PUSH1 0x1 PUSH1 0x80 SHL SUB DUP2 AND DUP2 EQ PUSH2 0x7D7 JUMPI PUSH1 0x0 DUP1 REVERT JUMPDEST PUSH1 0x40 SWAP2 SWAP1 SWAP2 ADD MSTORE SWAP3 SWAP2 POP POP JUMP JUMPDEST PUSH1 0x0 PUSH1 0x40 DUP3 DUP5 SUB SLT ISZERO PUSH2 0x7F5 JUMPI DUP1 DUP2 REVERT JUMPDEST PUSH1 0x40 MLOAD PUSH1 0x40 DUP2 ADD DUP2 DUP2 LT PUSH8 0xFFFFFFFFFFFFFFFF DUP3 GT OR ISZERO PUSH2 0x812 JUMPI INVALID JUMPDEST PUSH1 0x40 MSTORE DUP3 CALLDATALOAD DUP2 MSTORE PUSH1 0x20 SWAP3 DUP4 ADD CALLDATALOAD SWAP3 DUP2 ADD SWAP3 SWAP1 SWAP3 MSTORE POP SWAP2 SWAP1 POP JUMP JUMPDEST PUSH1 0x0 PUSH1 0x20 DUP3 DUP5 SUB SLT ISZERO PUSH2 0x83D JUMPI DUP1 DUP2 REVERT JUMPDEST DUP2 CALLDATALOAD PUSH2 0x54F DUP2 PUSH2 0xB81 JUMP JUMPDEST PUSH1 0x0 DUP1 PUSH1 0x0 DUP1 PUSH1 0x0 DUP1 PUSH1 0x0 DUP1 PUSH1 0x0 DUP1 PUSH2 0x1A0 DUP12 DUP14 SUB SLT ISZERO PUSH2 0x867 JUMPI DUP6 DUP7 REVERT JUMPDEST DUP11 CALLDATALOAD PUSH8 0xFFFFFFFFFFFFFFFF DUP1 DUP3 GT ISZERO PUSH2 0x87E JUMPI DUP8 DUP9 REVERT JUMPDEST PUSH2 0x88A DUP15 DUP4 DUP16 ADD PUSH2 0x6F3 JUMP JUMPDEST SWAP12 POP PUSH1 0x20 DUP14 ADD CALLDATALOAD SWAP2 POP DUP1 DUP3 GT ISZERO PUSH2 0x89F JUMPI DUP8 DUP9 REVERT JUMPDEST PUSH2 0x8AB DUP15 DUP4 DUP16 ADD PUSH2 0x6F3 JUMP JUMPDEST SWAP11 POP PUSH1 0x40 DUP14 ADD CALLDATALOAD SWAP2 POP DUP1 DUP3 GT ISZERO PUSH2 0x8C0 JUMPI DUP8 DUP9 REVERT JUMPDEST PUSH2 0x8CC DUP15 DUP4 DUP16 ADD PUSH2 0x624 JUMP JUMPDEST SWAP10 POP PUSH1 0x60 DUP14 ADD CALLDATALOAD SWAP2 POP DUP1 DUP3 GT ISZERO PUSH2 0x8E1 JUMPI DUP8 DUP9 REVERT JUMPDEST POP PUSH2 0x8EE DUP14 DUP3 DUP15 ADD PUSH2 0x699 JUMP JUMPDEST SWAP8 POP POP PUSH1 0x80 DUP12 ADD CALLDATALOAD SWAP6 POP PUSH2 0x904 PUSH1 0xA0 DUP13 ADD PUSH2 0x619 JUMP JUMPDEST SWAP5 POP PUSH2 0x912 PUSH1 0xC0 DUP13 ADD PUSH2 0x619 JUMP JUMPDEST SWAP4 POP PUSH2 0x921 DUP13 PUSH1 0xE0 DUP14 ADD PUSH2 0x758 JUMP JUMPDEST SWAP3 POP PUSH2 0x930 PUSH2 0x140 DUP13 ADD PUSH2 0x619 JUMP JUMPDEST SWAP2 POP PUSH2 0x940 DUP13 PUSH2 0x160 DUP14 ADD PUSH2 0x7E4 JUMP JUMPDEST SWAP1 POP SWAP3 SWAP6 SWAP9 SWAP12 SWAP2 SWAP5 SWAP8 SWAP11 POP SWAP3 SWAP6 SWAP9 POP JUMP JUMPDEST PUSH1 0x1 PUSH1 0x1 PUSH1 0xA0 SHL SUB AND SWAP1 MSTORE JUMP JUMPDEST PUSH1 0x0 DUP2 MLOAD DUP1 DUP5 MSTORE DUP2 JUMPDEST DUP2 DUP2 LT ISZERO PUSH2 0x983 JUMPI PUSH1 0x20 DUP2 DUP6 ADD DUP2 ADD MLOAD DUP7 DUP4 ADD DUP3 ADD MSTORE ADD PUSH2 0x967 JUMP JUMPDEST DUP2 DUP2 GT ISZERO PUSH2 0x994 JUMPI DUP3 PUSH1 0x20 DUP4 DUP8 ADD ADD MSTORE JUMPDEST POP PUSH1 0x1F ADD PUSH1 0x1F NOT AND SWAP3 SWAP1 SWAP3 ADD PUSH1 0x20 ADD SWAP3 SWAP2 POP POP JUMP JUMPDEST DUP1 MLOAD ISZERO ISZERO DUP3 MSTORE PUSH1 0x20 DUP1 DUP3 ADD MLOAD PUSH1 0x1 PUSH1 0x1 PUSH1 0x78 SHL SUB AND SWAP1 DUP4 ADD MSTORE PUSH1 0x40 SWAP1 DUP2 ADD MLOAD PUSH1 0x1 PUSH1 0x1 PUSH1 0x80 SHL SUB AND SWAP2 ADD MSTORE JUMP JUMPDEST PUSH1 0x1 PUSH1 0x1 PUSH1 0xA0 SHL SUB SWAP2 SWAP1 SWAP2 AND DUP2 MSTORE PUSH1 0x20 ADD SWAP1 JUMP JUMPDEST PUSH1 0x1 PUSH1 0x1 PUSH1 0xA0 SHL SUB SWAP3 DUP4 AND DUP2 MSTORE SWAP2 AND PUSH1 0x20 DUP3 ADD MSTORE PUSH1 0x40 ADD SWAP1 JUMP JUMPDEST SWAP1 ISZERO ISZERO DUP2 MSTORE PUSH1 0x20 ADD SWAP1 JUMP JUMPDEST PUSH1 0x0 PUSH1 0x20 DUP3 MSTORE PUSH2 0x54F PUSH1 0x20 DUP4 ADD DUP5 PUSH2 0x95E JUMP JUMPDEST PUSH1 0x0 PUSH1 0x40 DUP3 MSTORE DUP4 MLOAD PUSH2 0x100 DUP1 PUSH1 0x40 DUP6 ADD MSTORE PUSH2 0xA42 PUSH2 0x140 DUP6 ADD DUP4 MLOAD PUSH2 0x951 JUMP JUMPDEST PUSH1 0x20 DUP3 ADD MLOAD PUSH2 0x120 DUP1 PUSH2 0x160 DUP8 ADD MSTORE PUSH2 0xA5F PUSH2 0x260 DUP8 ADD DUP4 PUSH2 0x95E JUMP JUMPDEST SWAP2 POP PUSH1 0x40 DUP5 ADD MLOAD PUSH2 0x13F NOT DUP8 DUP5 SUB ADD PUSH2 0x180 DUP9 ADD MSTORE PUSH2 0xA7E DUP4 DUP3 PUSH2 0x95E JUMP JUMPDEST SWAP3 POP POP PUSH1 0x60 DUP5 ADD MLOAD PUSH2 0xA94 PUSH2 0x1A0 DUP9 ADD DUP3 PUSH2 0x951 JUMP JUMPDEST POP PUSH1 0x80 DUP5 ADD MLOAD PUSH2 0xAA8 PUSH2 0x1C0 DUP9 ADD DUP3 PUSH2 0x951 JUMP JUMPDEST POP PUSH1 0xA0 DUP5 ADD MLOAD PUSH2 0x1E0 DUP8 ADD MSTORE PUSH1 0xC0 DUP5 ADD MLOAD PUSH2 0x200 DUP8 ADD MSTORE PUSH1 0xE0 DUP5 ADD MLOAD PUSH2 0x220 DUP8 ADD MSTORE SWAP3 DUP3 ADD MLOAD SWAP3 PUSH2 0xADD PUSH2 0x240 DUP8 ADD DUP6 PUSH2 0x951 JUMP JUMPDEST PUSH1 0x20 DUP9 ADD MLOAD PUSH1 0x60 DUP8 ADD MSTORE PUSH1 0x40 DUP9 ADD MLOAD PUSH1 0x80 DUP8 ADD MSTORE PUSH1 0x60 DUP9 ADD MLOAD SWAP4 POP PUSH2 0xB05 PUSH1 0xA0 DUP8 ADD DUP6 PUSH2 0x951 JUMP JUMPDEST PUSH1 0x80 DUP9 ADD MLOAD SWAP4 POP PUSH2 0xB19 PUSH1 0xC0 DUP8 ADD DUP6 PUSH2 0x9A9 JUMP JUMPDEST PUSH1 0xA0 DUP9 ADD MLOAD SWAP4 POP PUSH2 0xB2C DUP2 DUP8 ADD DUP6 PUSH2 0x951 JUMP JUMPDEST POP SWAP3 POP PUSH2 0x54F SWAP2 POP POP PUSH1 0x20 DUP4 ADD DUP5 PUSH2 0x951 JUMP JUMPDEST PUSH1 0x40 MLOAD DUP2 DUP2 ADD PUSH8 0xFFFFFFFFFFFFFFFF DUP2 GT DUP3 DUP3 LT OR ISZERO PUSH2 0xB5B JUMPI INVALID JUMPDEST PUSH1 0x40 MSTORE SWAP2 SWAP1 POP JUMP JUMPDEST PUSH1 0x0 PUSH8 0xFFFFFFFFFFFFFFFF DUP3 GT ISZERO PUSH2 0xB77 JUMPI INVALID JUMPDEST POP PUSH1 0x20 SWAP1 DUP2 MUL ADD SWAP1 JUMP JUMPDEST PUSH1 0x1 PUSH1 0x1 PUSH1 0xA0 SHL SUB DUP2 AND DUP2 EQ PUSH2 0xB96 JUMPI PUSH1 0x0 DUP1 REVERT JUMPDEST POP JUMP INVALID LOG2 PUSH5 0x6970667358 0x22 SLT KECCAK256 0xC9 DELEGATECALL 0xAD PUSH25 0x55C88F5F3C46816AAB4C6AEB0092F9F673A32605ED1A75D097 AND MUL CREATE PUSH5 0x736F6C6343 STOP SMOD MOD STOP CALLER ","sha1":"717dde8895aa27f7efa8d6ba9090b9569d0da53f","source":"// SPDX-License-Identifier: LicenseRef-Gyro-1.0\n// for information on licensing please see the README in the GitHub repository <https://github.com/gyrostable/concentrated-lps>.\n\npragma solidity 0.7.6;\npragma experimental ABIEncoderV2;\n\nimport \"@balancer-labs/v2-vault/contracts/interfaces/IVault.sol\";\n\nimport \"@balancer-labs/v2-pool-utils/contracts/factories/BasePoolSplitCodeFactory.sol\";\n\nimport \"../../interfaces/IGyro2CLPPoolFactory.sol\";\nimport \"../../interfaces/ICappedLiquidity.sol\";\nimport \"../../interfaces/ILocallyPausable.sol\";\nimport \"./Gyro2CLPPool.sol\";\n\ncontract Gyro2CLPPoolFactory is IGyro2CLPPoolFactory, BasePoolSplitCodeFactory {\n    address public immutable gyroConfigAddress;\n\n    constructor(IVault vault, address _gyroConfigAddress) BasePoolSplitCodeFactory(vault, type(Gyro2CLPPool).creationCode) {\n        _grequire(_gyroConfigAddress != address(0), GyroErrors.ZERO_ADDRESS);\n        _grequire(address(vault) != address(0), GyroErrors.ZERO_ADDRESS);\n        gyroConfigAddress = _gyroConfigAddress;\n    }\n\n    /**\n     * @dev Deploys a new `Gyro2CLPPool`.\n     */\n    function create(\n        string memory name,\n        string memory symbol,\n        IERC20[] memory tokens,\n        uint256[] memory sqrts,\n        uint256 swapFeePercentage,\n        address owner,\n        address capManager,\n        ICappedLiquidity.CapParams memory capParams,\n        address pauseManager,\n        ILocallyPausable.PauseParams memory pauseParams\n    ) external override returns (address) {\n        ExtensibleWeightedPool2Tokens.NewPoolParams memory baseParams = _makePoolParams(name, symbol, tokens, swapFeePercentage, owner, pauseParams);\n\n        Gyro2CLPPool.GyroParams memory params = Gyro2CLPPool.GyroParams({\n            baseParams: baseParams,\n            sqrtAlpha: sqrts[0],\n            sqrtBeta: sqrts[1],\n            capManager: capManager,\n            capParams: capParams,\n            pauseManager: pauseManager\n        });\n\n        return _create(abi.encode(params, gyroConfigAddress));\n    }\n\n    function _makePoolParams(\n        string memory name,\n        string memory symbol,\n        IERC20[] memory tokens,\n        uint256 swapFeePercentage,\n        address owner,\n        ILocallyPausable.PauseParams memory pauseParams\n    ) internal view returns (ExtensibleWeightedPool2Tokens.NewPoolParams memory) {\n        return\n            ExtensibleWeightedPool2Tokens.NewPoolParams({\n                vault: getVault(),\n                name: name,\n                symbol: symbol,\n                token0: tokens[0],\n                token1: tokens[1],\n                swapFeePercentage: swapFeePercentage,\n                pauseWindowDuration: pauseParams.pauseWindowDuration,\n                bufferPeriodDuration: pauseParams.bufferPeriodDuration,\n                owner: owner\n            });\n    }\n}\n","sourcePath":"contracts/2clp/Gyro2CLPPoolFactory.sol","type":"contract","deployment":{"address":"0x8bf612C7ab9063CB979a3CEC2bC3f786f769DEE0","chainid":"137","blockHeight":49854191}}