{"abi":[{"inputs":[{"components":[{"components":[{"internalType":"contract IVault","name":"vault","type":"address"},{"internalType":"string","name":"name","type":"string"},{"internalType":"string","name":"symbol","type":"string"},{"internalType":"contract IERC20","name":"token0","type":"address"},{"internalType":"contract IERC20","name":"token1","type":"address"},{"internalType":"uint256","name":"swapFeePercentage","type":"uint256"},{"internalType":"uint256","name":"pauseWindowDuration","type":"uint256"},{"internalType":"uint256","name":"bufferPeriodDuration","type":"uint256"},{"internalType":"address","name":"owner","type":"address"}],"internalType":"struct ExtensibleWeightedPool2Tokens.NewPoolParams","name":"baseParams","type":"tuple"},{"internalType":"uint256","name":"sqrtAlpha","type":"uint256"},{"internalType":"uint256","name":"sqrtBeta","type":"uint256"},{"internalType":"address","name":"capManager","type":"address"},{"components":[{"internalType":"bool","name":"capEnabled","type":"bool"},{"internalType":"uint120","name":"perAddressCap","type":"uint120"},{"internalType":"uint128","name":"globalCap","type":"uint128"}],"internalType":"struct ICappedLiquidity.CapParams","name":"capParams","type":"tuple"},{"internalType":"address","name":"pauseManager","type":"address"}],"internalType":"struct Gyro2CLPPool.GyroParams","name":"params","type":"tuple"},{"internalType":"address","name":"configAddress","type":"address"}],"stateMutability":"nonpayable","type":"constructor","name":"constructor"},{"anonymous":false,"inputs":[{"indexed":true,"internalType":"address","name":"owner","type":"address"},{"indexed":true,"internalType":"address","name":"spender","type":"address"},{"indexed":false,"internalType":"uint256","name":"value","type":"uint256"}],"name":"Approval","type":"event"},{"anonymous":false,"inputs":[{"indexed":false,"internalType":"address","name":"capManager","type":"address"}],"name":"CapManagerUpdated","type":"event"},{"anonymous":false,"inputs":[{"components":[{"internalType":"bool","name":"capEnabled","type":"bool"},{"internalType":"uint120","name":"perAddressCap","type":"uint120"},{"internalType":"uint128","name":"globalCap","type":"uint128"}],"indexed":false,"internalType":"struct ICappedLiquidity.CapParams","name":"params","type":"tuple"}],"name":"CapParamsUpdated","type":"event"},{"anonymous":false,"inputs":[{"indexed":false,"internalType":"address","name":"oldPauseManager","type":"address"},{"indexed":false,"internalType":"address","name":"newPauseManager","type":"address"}],"name":"PauseManagerChanged","type":"event"},{"anonymous":false,"inputs":[],"name":"PausedLocally","type":"event"},{"anonymous":false,"inputs":[{"indexed":false,"internalType":"bool","name":"paused","type":"bool"}],"name":"PausedStateChanged","type":"event"},{"anonymous":false,"inputs":[{"indexed":false,"internalType":"uint256","name":"swapFeePercentage","type":"uint256"}],"name":"SwapFeePercentageChanged","type":"event"},{"anonymous":false,"inputs":[{"indexed":true,"internalType":"address","name":"from","type":"address"},{"indexed":true,"internalType":"address","name":"to","type":"address"},{"indexed":false,"internalType":"uint256","name":"value","type":"uint256"}],"name":"Transfer","type":"event"},{"anonymous":false,"inputs":[],"name":"UnpausedLocally","type":"event"},{"inputs":[],"name":"DOMAIN_SEPARATOR","outputs":[{"internalType":"bytes32","name":"","type":"bytes32"}],"stateMutability":"view","type":"function"},{"inputs":[{"internalType":"address","name":"owner","type":"address"},{"internalType":"address","name":"spender","type":"address"}],"name":"allowance","outputs":[{"internalType":"uint256","name":"","type":"uint256"}],"stateMutability":"view","type":"function"},{"inputs":[{"internalType":"address","name":"spender","type":"address"},{"internalType":"uint256","name":"amount","type":"uint256"}],"name":"approve","outputs":[{"internalType":"bool","name":"","type":"bool"}],"stateMutability":"nonpayable","type":"function"},{"inputs":[{"internalType":"address","name":"account","type":"address"}],"name":"balanceOf","outputs":[{"internalType":"uint256","name":"","type":"uint256"}],"stateMutability":"view","type":"function"},{"inputs":[{"internalType":"uint256","name":"balanceTokenIn","type":"uint256"},{"internalType":"uint256","name":"balanceTokenOut","type":"uint256"},{"internalType":"bool","name":"tokenInIsToken0","type":"bool"}],"name":"calculateCurrentValues","outputs":[{"internalType":"uint256","name":"currentInvariant","type":"uint256"},{"internalType":"uint256","name":"virtualParamIn","type":"uint256"},{"internalType":"uint256","name":"virtualParamOut","type":"uint256"}],"stateMutability":"view","type":"function"},{"inputs":[],"name":"capManager","outputs":[{"internalType":"address","name":"","type":"address"}],"stateMutability":"view","type":"function"},{"inputs":[],"name":"capParams","outputs":[{"components":[{"internalType":"bool","name":"capEnabled","type":"bool"},{"internalType":"uint120","name":"perAddressCap","type":"uint120"},{"internalType":"uint128","name":"globalCap","type":"uint128"}],"internalType":"struct ICappedLiquidity.CapParams","name":"","type":"tuple"}],"stateMutability":"view","type":"function"},{"inputs":[{"internalType":"address","name":"_pauseManager","type":"address"}],"name":"changePauseManager","outputs":[],"stateMutability":"nonpayable","type":"function"},{"inputs":[],"name":"decimals","outputs":[{"internalType":"uint8","name":"","type":"uint8"}],"stateMutability":"view","type":"function"},{"inputs":[{"internalType":"address","name":"spender","type":"address"},{"internalType":"uint256","name":"amount","type":"uint256"}],"name":"decreaseAllowance","outputs":[{"internalType":"bool","name":"","type":"bool"}],"stateMutability":"nonpayable","type":"function"},{"inputs":[{"internalType":"bytes4","name":"selector","type":"bytes4"}],"name":"getActionId","outputs":[{"internalType":"bytes32","name":"","type":"bytes32"}],"stateMutability":"view","type":"function"},{"inputs":[],"name":"getActualSupply","outputs":[{"internalType":"uint256","name":"","type":"uint256"}],"stateMutability":"view","type":"function"},{"inputs":[],"name":"getAuthorizer","outputs":[{"internalType":"contract IAuthorizer","name":"","type":"address"}],"stateMutability":"view","type":"function"},{"inputs":[],"name":"getInvariant","outputs":[{"internalType":"uint256","name":"","type":"uint256"}],"stateMutability":"view","type":"function"},{"inputs":[],"name":"getInvariantDivActualSupply","outputs":[{"internalType":"uint256","name":"","type":"uint256"}],"stateMutability":"view","type":"function"},{"inputs":[],"name":"getLastInvariant","outputs":[{"internalType":"uint256","name":"","type":"uint256"}],"stateMutability":"view","type":"function"},{"inputs":[],"name":"getMiscData","outputs":[{"internalType":"int256","name":"logInvariant","type":"int256"},{"internalType":"int256","name":"logTotalSupply","type":"int256"},{"internalType":"uint256","name":"oracleSampleCreationTimestamp","type":"uint256"},{"internalType":"uint256","name":"oracleIndex","type":"uint256"},{"internalType":"bool","name":"oracleEnabled","type":"bool"},{"internalType":"uint256","name":"swapFeePercentage","type":"uint256"}],"stateMutability":"view","type":"function"},{"inputs":[],"name":"getNormalizedWeights","outputs":[{"internalType":"uint256[]","name":"","type":"uint256[]"}],"stateMutability":"view","type":"function"},{"inputs":[],"name":"getOwner","outputs":[{"internalType":"address","name":"","type":"address"}],"stateMutability":"view","type":"function"},{"inputs":[],"name":"getPausedState","outputs":[{"internalType":"bool","name":"paused","type":"bool"},{"internalType":"uint256","name":"pauseWindowEndTime","type":"uint256"},{"internalType":"uint256","name":"bufferPeriodEndTime","type":"uint256"}],"stateMutability":"view","type":"function"},{"inputs":[],"name":"getPoolId","outputs":[{"internalType":"bytes32","name":"","type":"bytes32"}],"stateMutability":"view","type":"function"},{"inputs":[],"name":"getPrice","outputs":[{"internalType":"uint256","name":"spotPrice","type":"uint256"}],"stateMutability":"view","type":"function"},{"inputs":[],"name":"getRate","outputs":[{"internalType":"uint256","name":"","type":"uint256"}],"stateMutability":"view","type":"function"},{"inputs":[],"name":"getSqrtParameters","outputs":[{"internalType":"uint256[2]","name":"","type":"uint256[2]"}],"stateMutability":"view","type":"function"},{"inputs":[],"name":"getSwapFeePercentage","outputs":[{"internalType":"uint256","name":"","type":"uint256"}],"stateMutability":"view","type":"function"},{"inputs":[],"name":"getVault","outputs":[{"internalType":"contract IVault","name":"","type":"address"}],"stateMutability":"view","type":"function"},{"inputs":[],"name":"getVirtualParameters","outputs":[{"internalType":"uint256[]","name":"virtualParams","type":"uint256[]"}],"stateMutability":"view","type":"function"},{"inputs":[],"name":"gyroConfig","outputs":[{"internalType":"contract IGyroConfig","name":"","type":"address"}],"stateMutability":"view","type":"function"},{"inputs":[{"internalType":"address","name":"spender","type":"address"},{"internalType":"uint256","name":"addedValue","type":"uint256"}],"name":"increaseAllowance","outputs":[{"internalType":"bool","name":"","type":"bool"}],"stateMutability":"nonpayable","type":"function"},{"inputs":[],"name":"name","outputs":[{"internalType":"string","name":"","type":"string"}],"stateMutability":"view","type":"function"},{"inputs":[{"internalType":"address","name":"owner","type":"address"}],"name":"nonces","outputs":[{"internalType":"uint256","name":"","type":"uint256"}],"stateMutability":"view","type":"function"},{"inputs":[{"internalType":"bytes32","name":"poolId","type":"bytes32"},{"internalType":"address","name":"sender","type":"address"},{"internalType":"address","name":"recipient","type":"address"},{"internalType":"uint256[]","name":"balances","type":"uint256[]"},{"internalType":"uint256","name":"lastChangeBlock","type":"uint256"},{"internalType":"uint256","name":"protocolSwapFeePercentage","type":"uint256"},{"internalType":"bytes","name":"userData","type":"bytes"}],"name":"onExitPool","outputs":[{"internalType":"uint256[]","name":"","type":"uint256[]"},{"internalType":"uint256[]","name":"","type":"uint256[]"}],"stateMutability":"nonpayable","type":"function"},{"inputs":[{"internalType":"bytes32","name":"poolId","type":"bytes32"},{"internalType":"address","name":"sender","type":"address"},{"internalType":"address","name":"recipient","type":"address"},{"internalType":"uint256[]","name":"balances","type":"uint256[]"},{"internalType":"uint256","name":"lastChangeBlock","type":"uint256"},{"internalType":"uint256","name":"protocolSwapFeePercentage","type":"uint256"},{"internalType":"bytes","name":"userData","type":"bytes"}],"name":"onJoinPool","outputs":[{"internalType":"uint256[]","name":"amountsIn","type":"uint256[]"},{"internalType":"uint256[]","name":"dueProtocolFeeAmounts","type":"uint256[]"}],"stateMutability":"nonpayable","type":"function"},{"inputs":[{"components":[{"internalType":"enum IVault.SwapKind","name":"kind","type":"uint8"},{"internalType":"contract IERC20","name":"tokenIn","type":"address"},{"internalType":"contract IERC20","name":"tokenOut","type":"address"},{"internalType":"uint256","name":"amount","type":"uint256"},{"internalType":"bytes32","name":"poolId","type":"bytes32"},{"internalType":"uint256","name":"lastChangeBlock","type":"uint256"},{"internalType":"address","name":"from","type":"address"},{"internalType":"address","name":"to","type":"address"},{"internalType":"bytes","name":"userData","type":"bytes"}],"internalType":"struct IPoolSwapStructs.SwapRequest","name":"request","type":"tuple"},{"internalType":"uint256","name":"balanceTokenIn","type":"uint256"},{"internalType":"uint256","name":"balanceTokenOut","type":"uint256"}],"name":"onSwap","outputs":[{"internalType":"uint256","name":"","type":"uint256"}],"stateMutability":"nonpayable","type":"function"},{"inputs":[],"name":"pause","outputs":[],"stateMutability":"nonpayable","type":"function"},{"inputs":[],"name":"pauseManager","outputs":[{"internalType":"address","name":"","type":"address"}],"stateMutability":"view","type":"function"},{"inputs":[{"internalType":"address","name":"owner","type":"address"},{"internalType":"address","name":"spender","type":"address"},{"internalType":"uint256","name":"value","type":"uint256"},{"internalType":"uint256","name":"deadline","type":"uint256"},{"internalType":"uint8","name":"v","type":"uint8"},{"internalType":"bytes32","name":"r","type":"bytes32"},{"internalType":"bytes32","name":"s","type":"bytes32"}],"name":"permit","outputs":[],"stateMutability":"nonpayable","type":"function"},{"inputs":[{"internalType":"bytes32","name":"poolId","type":"bytes32"},{"internalType":"address","name":"sender","type":"address"},{"internalType":"address","name":"recipient","type":"address"},{"internalType":"uint256[]","name":"balances","type":"uint256[]"},{"internalType":"uint256","name":"lastChangeBlock","type":"uint256"},{"internalType":"uint256","name":"protocolSwapFeePercentage","type":"uint256"},{"internalType":"bytes","name":"userData","type":"bytes"}],"name":"queryExit","outputs":[{"internalType":"uint256","name":"bptIn","type":"uint256"},{"internalType":"uint256[]","name":"amountsOut","type":"uint256[]"}],"stateMutability":"nonpayable","type":"function"},{"inputs":[{"internalType":"bytes32","name":"poolId","type":"bytes32"},{"internalType":"address","name":"sender","type":"address"},{"internalType":"address","name":"recipient","type":"address"},{"internalType":"uint256[]","name":"balances","type":"uint256[]"},{"internalType":"uint256","name":"lastChangeBlock","type":"uint256"},{"internalType":"uint256","name":"protocolSwapFeePercentage","type":"uint256"},{"internalType":"bytes","name":"userData","type":"bytes"}],"name":"queryJoin","outputs":[{"internalType":"uint256","name":"bptOut","type":"uint256"},{"internalType":"uint256[]","name":"amountsIn","type":"uint256[]"}],"stateMutability":"nonpayable","type":"function"},{"inputs":[{"internalType":"address","name":"_capManager","type":"address"}],"name":"setCapManager","outputs":[],"stateMutability":"nonpayable","type":"function"},{"inputs":[{"components":[{"internalType":"bool","name":"capEnabled","type":"bool"},{"internalType":"uint120","name":"perAddressCap","type":"uint120"},{"internalType":"uint128","name":"globalCap","type":"uint128"}],"internalType":"struct ICappedLiquidity.CapParams","name":"params","type":"tuple"}],"name":"setCapParams","outputs":[],"stateMutability":"nonpayable","type":"function"},{"inputs":[{"internalType":"bool","name":"paused","type":"bool"}],"name":"setPaused","outputs":[],"stateMutability":"nonpayable","type":"function"},{"inputs":[{"internalType":"uint256","name":"swapFeePercentage","type":"uint256"}],"name":"setSwapFeePercentage","outputs":[],"stateMutability":"nonpayable","type":"function"},{"inputs":[],"name":"symbol","outputs":[{"internalType":"string","name":"","type":"string"}],"stateMutability":"view","type":"function"},{"inputs":[],"name":"totalSupply","outputs":[{"internalType":"uint256","name":"","type":"uint256"}],"stateMutability":"view","type":"function"},{"inputs":[{"internalType":"address","name":"recipient","type":"address"},{"internalType":"uint256","name":"amount","type":"uint256"}],"name":"transfer","outputs":[{"internalType":"bool","name":"","type":"bool"}],"stateMutability":"nonpayable","type":"function"},{"inputs":[{"internalType":"address","name":"sender","type":"address"},{"internalType":"address","name":"recipient","type":"address"},{"internalType":"uint256","name":"amount","type":"uint256"}],"name":"transferFrom","outputs":[{"internalType":"bool","name":"","type":"bool"}],"stateMutability":"nonpayable","type":"function"},{"inputs":[],"name":"unpause","outputs":[],"stateMutability":"nonpayable","type":"function"}],"bytecode":"6102e06040527f6e71edae12b1b97f4d1f60370fef10105fa2faae0126114a169c64845d6126c9610120526706f05b59d3b20000610200819052610220526000610240523480156200005057600080fd5b50604051620051bf380380620051bf833981016040819052620000739162000ae6565b8160a001518260600151836080015184600001518060c001518160e001518260200151836040015184600001518280604051806040016040528060018152602001603160f81b81525085858a6101000151336001600160a01b031660001b806080818152505050806001600160a01b031660a0816001600160a01b031660601b815250505081600390805190602001906200011092919062000828565b5080516200012690600490602084019062000828565b505060058054601260ff1990911617905550815160209283012060c052805191012060e052507f8b73c3c69bb8fe3d512ecc4cf759cc79239f7b179b0ffacaa9a75d522b39400f61010052606090811b6001600160601b031916610140524294909401610160819052909201610180525050604080516002808252928101909152600091816020016020820280368337019050509050816060015181600081518110620001cf57fe5b60200260200101906001600160a01b031690816001600160a01b0316815250508160800151816001815181106200020257fe5b60200260200101906001600160a01b031690816001600160a01b03168152505062000238816200051960201b620015f41760201c565b60a0820151620002489062000529565b81516040516309b2760f60e01b81526000916001600160a01b0316906309b2760f906200027b9060029060040162000c85565b602060405180830381600087803b1580156200029657600080fd5b505af1158015620002ab573d6000803e3d6000fd5b505050506040513d601f19601f82011682018060405250810190620002d1919062000acd565b83516040805160028082526060820183529394506001600160a01b03909216926366a9c7d2928592879290602083019080368337019050506040518463ffffffff1660e01b8152600401620003299392919062000beb565b600060405180830381600087803b1580156200034457600080fd5b505af115801562000359573d6000803e3d6000fd5b5050506101a082905250606080840180516001600160601b031990831b81166101c052608086015190921b9091166101e052516200039790620005b2565b610260526080830151620003ab90620005b2565b61028052505060408051808201909152600e81526d1b9bdd08185d5d1a1bdc9a5e995960921b602082015290506001600160a01b0383166200040b5760405162461bcd60e51b815260040162000402919062000c9a565b60405180910390fd5b50600b80546001600160a01b0319166001600160a01b039384161790558051600a8054602084015160409094015160ff1990911692151592909217610100600160801b0319166101006001600160781b0390941693909302929092176001600160801b03908116600160801b9190921602179055620004909082161515606962000660565b600c80546001600160a01b0319166001600160a01b039290921691909117905560408201516020830151620004c9911161015e62000660565b620004e16001600160a01b0382161515606962000660565b60208201516102a0526040909101516102c052600d80546001600160a01b0319166001600160a01b0390921691909117905562000d2f565b80620005258162000671565b5050565b6200053e64e8d4a5100082101560cb620006fe565b6200055667016345785d8a000082111560ca620006fe565b62000572816008546200070f60201b620016021790919060201c565b6008556040517fa9ba3ffe0b6c366b81232caab38605a0699ad5398d6cce76f91ee809e322dafc90620005a790839062000ccf565b60405180910390a150565b600080826001600160a01b031663313ce5676040518163ffffffff1660e01b815260040160206040518083038186803b158015620005ef57600080fd5b505afa15801562000604573d6000803e3d6000fd5b505050506040513d601f19601f820116820180604052508101906200062a919062000bc8565b60ff1690506000620006496012836200073560201b620016171760201c565b600a0a670de0b6b3a764000002925050505b919050565b81620005255762000525816200074d565b6002815110156200068257620006fb565b6000816000815181106200069257fe5b602002602001015190506000600190505b8251811015620006f8576000838281518110620006bc57fe5b60200260200101519050620006ed816001600160a01b0316846001600160a01b0316106065620006fe60201b60201c565b9150600101620006a3565b50505b50565b81620005255762000525816200075f565b60006200072e82605685620007b260201b6200162d179092919060201c565b9392505050565b600062000747838311156001620006fe565b50900390565b620006fb816223aca960e91b620007c7565b62461bcd60e51b6000908152602060045260076024526642414c23000030600a808404818106603090810160081b95839006959095019082900491820690940160101b939093010160c81b604452606490fd5b6001600160401b03811b1992909216911b1790565b62461bcd60e51b600090815260206004526007602452600a808404818106603090810160081b958390069590950190829004918206850160101b01602363ffffff0060e086901c160160181b0190930160c81b60445260e882901c90606490fd5b828054600181600116156101000203166002900490600052602060002090601f016020900481019282620008605760008555620008ab565b82601f106200087b57805160ff1916838001178555620008ab565b82800160010185558215620008ab579182015b82811115620008ab5782518255916020019190600101906200088e565b50620008b9929150620008bd565b5090565b5b80821115620008b95760008155600101620008be565b80516001600160a01b03811681146200065b57600080fd5b600082601f830112620008fd578081fd5b81516001600160401b038111156200091157fe5b62000926601f8201601f191660200162000cd8565b8181528460208386010111156200093b578283fd5b6200094e82602083016020870162000cfc565b949350505050565b60006060828403121562000968578081fd5b604051606081016001600160401b03811182821017156200098557fe5b8060405250809150825180151581146200099e57600080fd5b815260208301516001600160781b0381168114620009bb57600080fd5b602082015260408301516001600160801b0381168114620009db57600080fd5b6040919091015292915050565b6000610120808385031215620009fc578182fd5b62000a078162000cd8565b91505062000a1582620008d4565b815260208201516001600160401b038082111562000a3257600080fd5b62000a4085838601620008ec565b6020840152604084015191508082111562000a5a57600080fd5b5062000a6984828501620008ec565b60408301525062000a7d60608301620008d4565b606082015262000a9060808301620008d4565b608082015260a082015160a082015260c082015160c082015260e082015160e082015261010062000ac3818401620008d4565b9082015292915050565b60006020828403121562000adf578081fd5b5051919050565b6000806040838503121562000af9578081fd5b82516001600160401b038082111562000b10578283fd5b90840190610100828703121562000b25578283fd5b60405160c08101818110838211171562000b3b57fe5b60405282518281111562000b4d578485fd5b62000b5b88828601620009e8565b825250602083015160208201526040830151604082015262000b8060608401620008d4565b606082015262000b94876080850162000956565b608082015262000ba760e08401620008d4565b60a0820152935062000bbf91505060208401620008d4565b90509250929050565b60006020828403121562000bda578081fd5b815160ff811681146200072e578182fd5b60006060820185835260206060818501528186518084526080860191508288019350845b8181101562000c365784516001600160a01b03168352938301939183019160010162000c0f565b505084810360408601528551808252908201925081860190845b8181101562000c775782516001600160a01b03168552938301939183019160010162000c50565b509298975050505050505050565b602081016003831062000c9457fe5b91905290565b600060208252825180602084015262000cbb81604085016020870162000cfc565b601f01601f19169190910160400192915050565b90815260200190565b6040518181016001600160401b038111828210171562000cf457fe5b604052919050565b60005b8381101562000d1957818101518382015260200162000cff565b8381111562000d29576000848401525b50505050565b60805160a05160601c60c05160e05161010051610120516101405160601c61016051610180516101a0516101c05160601c6101e05160601c61020051610220516102405161026051610280516102a0516102c0516143b862000e0760003980612ac4525080612aeb525080611a01525080611a27525050806131d95250806132005250806120fc52508061115c52806120b052508061081352508061179252508061176e525080610fbf5250806113875250806118ae5250806118f05250806118cf525080610f9b525080610ee052506143b86000f3fe608060405234801561001057600080fd5b50600436106102a05760003560e01c806374f3b0091161016757806398d5fdca116100ce578063abd13afe11610087578063abd13afe1461057a578063c0ff1a1514610582578063d505accf1461058a578063d5c096c41461059d578063dd62ed3e146105b0578063f89f27ed146105c3576102a0565b806398d5fdca146105295780639b02cdde146105315780639d2c110c14610539578063a457c2d71461054c578063a9059cbb1461055f578063aaabadc514610572576102a0565b8063876f303b11610120578063876f303b146104e157806387ec6817146104e9578063893d20e8146104fc5780638d928af8146105045780638dd9f89d1461050c57806395d89b4114610521576102a0565b806374f3b0091461046c57806376e54a461461048d5780637ecebe00146104a05780638002df18146104b35780638456cb59146104c6578063851c1bb3146104ce576102a0565b80633aeae0d31161020b5780636028bfd4116101c45780636028bfd41461040b578063623a2e751461042c578063679aefce146104345780636d785a871461043c578063707dcd1e1461044457806370a0823114610459576102a0565b80633aeae0d3146103955780633c4dd5bb146103aa5780633f4ba83a146103cc57806344bbdb55146103d45780634a6b0b15146103e957806355c6762814610403576102a0565b806323b872dd1161025d57806323b872dd14610337578063313ce5671461034a5780633644e5151461035f57806338e9922e1461036757806338fff2d01461037a5780633950935114610382576102a0565b806306fdde03146102a5578063095ea7b3146102c35780630e608b30146102e357806316c38b3c146102f857806318160ddd1461030b5780631c0de05114610320575b600080fd5b6102ad6105cb565b6040516102ba9190614259565b60405180910390f35b6102d66102d1366004613dae565b610661565b6040516102ba91906141ec565b6102f66102f1366004613c89565b610678565b005b6102f6610306366004613dd9565b610729565b61031361073d565b6040516102ba919061420f565b610328610743565b6040516102ba939291906141f7565b6102d6610345366004613cf9565b61076c565b6103526107e0565b6040516102ba919061433b565b6103136107e9565b6102f6610375366004614099565b6107f8565b610313610811565b6102d6610390366004613dae565b610835565b61039d610870565b6040516102ba91906142ac565b6103bd6103b83660046140b1565b6108bb565b6040516102ba93929190614325565b6102f661090e565b6103dc610a03565b6040516102ba919061416f565b6103f1610a12565b6040516102ba9695949392919061422f565b610313610a6d565b61041e610419366004613df3565b610a7a565b6040516102ba92919061430c565b610313610aab565b610313610b07565b6103dc610b2c565b61044c610b3b565b6040516102ba9190614183565b610313610467366004613c89565b610b4b565b61047f61047a366004613df3565b610b6a565b6040516102ba9291906141c7565b6102f661049b366004613f23565b610bfa565b6103136104ae366004613c89565b610d21565b6102f66104c1366004613c89565b610d3c565b6102f6610e22565b6103136104dc366004613efb565b610eda565b610313610f33565b61041e6104f7366004613df3565b610f74565b6103dc610f99565b6103dc610fbd565b610514610fe1565b6040516102ba91906141b4565b6102ad61107b565b6103136110dc565b61031361112d565b610313610547366004613fa2565b611133565b6102d661055a366004613dae565b6112b9565b6102d661056d366004613dae565b6112f7565b6103dc611304565b6103dc61130e565b61031361131d565b6102f6610598366004613d39565b611358565b61047f6105ab366004613df3565b6114c8565b6103136105be366004613cc1565b6115ad565b6105146115ea565b60038054604080516020601f60026000196101006001881615020190951694909404938401819004810282018101909252828152606093909290918301828280156106575780601f1061062c57610100808354040283529160200191610657565b820191906000526020600020905b81548152906001019060200180831161063a57829003601f168201915b5050505050905090565b600061066e338484611643565b5060015b92915050565b600b5460408051808201909152600e81526d1b9bdd08185d5d1a1bdc9a5e995960921b6020820152906001600160a01b031633146106d25760405162461bcd60e51b81526004016106c99190614259565b60405180910390fd5b50600b80546001600160a01b0319166001600160a01b0383161790556040517fb8fd9afc34c38fcd13b9a3b7646482eb1fddcefb40af2c70609972816eba32089061071e90839061416f565b60405180910390a150565b6107316116a5565b61073a816116d3565b50565b60025490565b600080600061075061174f565b15925061075b61176c565b9150610765611790565b9050909192565b60008061077985336115ad565b905061079d336001600160a01b03871614806107955750838210155b61019e6117b4565b6107a88585856117c2565b336001600160a01b038616148015906107c357506000198114155b156107d5576107d58533858403611643565b506001949350505050565b60055460ff1690565b60006107f36118aa565b905090565b6108006116a5565b610808611968565b61073a8161197d565b7f000000000000000000000000000000000000000000000000000000000000000090565b3360008181526001602090815260408083206001600160a01b0387168452909152812054909161066e91859061086b90866119e6565b611643565b610878613bbc565b5060408051606081018252600a5460ff81161515825261010081046001600160781b03166020830152600160801b90046001600160801b03169181019190915290565b6000806000806108ca856119f8565b905060006108d886156119f8565b90506108e48883611a4c565b97506108f08782611a4c565b96506108fd888888611a58565b945094509450505093509350939050565b600c546040805180820190915260118152703737ba103830bab9b29036b0b730b3b2b960791b6020820152906001600160a01b031633146109cd5760405162461bcd60e51b81526004018080602001828103825283818151815260200191508051906020019080838360005b8381101561099257818101518382015260200161097a565b50505050905090810190601f1680156109bf5780820380516001836020036101000a031916815260200191505b509250505060405180910390fd5b506109d86000610731565b6040517f215385c8bfc731925ec8068d7baa50f6b6f34417cc7804f7273dc2c0b3db279090600090a1565b600d546001600160a01b031681565b60008060008060008060006008549050610a2b81611b27565b9650610a3681611b33565b9550610a4181611b40565b9450610a4c81611b4d565b9350610a5781611b5a565b9250610a6281611b67565b915050909192939495565b60006107f3600854611b67565b60006060610a8a86516002611b74565b610a9f89898989898989611b81611c48611cc6565b97509795505050505050565b600080610ab661131d565b90506000610ac261073d565b9050600080610ad360095485611dd9565b50919350915060009050610af182610aeb8686611e42565b90611e42565b9050610afd8582611e5a565b9550505050505090565b60006107f3610b1461073d565b610b26610b1f61131d565b6002611eb4565b90611e5a565b600b546001600160a01b031681565b610b43613bdc565b6107f3611ed8565b6001600160a01b0381166000908152602081905260409020545b919050565b60608088610b94610b79610fbd565b6001600160a01b0316336001600160a01b03161460cd6117b4565b610ba9610b9f610811565b82146101f46117b4565b610bb287611efe565b6000806000610bc68d8d8d8d8d8d8d611b81565b925092509250610bd68c84611f60565b610bdf82611c48565b610be881611c48565b909c909b509950505050505050505050565b600b5460408051808201909152600e81526d1b9bdd08185d5d1a1bdc9a5e995960921b6020820152906001600160a01b03163314610c4b5760405162461bcd60e51b81526004016106c99190614259565b50600a5460408051808201909152601081526f1c1bdbdb081a5cc81d5b98d85c1c195960821b60208201529060ff16610c975760405162461bcd60e51b81526004016106c99190614259565b508051600a8054602084015160408086015160ff19909316941515949094176fffffffffffffffffffffffffffffff0019166101006001600160781b0390921691909102176001600160801b03908116600160801b919092160217815590517f2abf5970d7bc1a2b36eaae52dd2cc353edb0337c7284ef8a01973081b4e044249161071e916142e1565b6001600160a01b031660009081526006602052604090205490565b600c546040805180820190915260118152703737ba103830bab9b29036b0b730b3b2b960791b60208201526001600160a01b0390911690338214610dc15760405162461bcd60e51b815260206004820181815283516024840152835190928392604490910191908501908083836000831561099257818101518382015260200161097a565b50600c80546001600160a01b0319166001600160a01b03848116918217909255604080519284168352602083019190915280517f1ffccd1fa96f4fb3415df8048a0fd107344e262d2d246c85105e2a3f8f3e81989281900390910190a15050565b600c546040805180820190915260118152703737ba103830bab9b29036b0b730b3b2b960791b6020820152906001600160a01b03163314610ea45760405162461bcd60e51b815260206004820181815283516024840152835190928392604490910191908501908083836000831561099257818101518382015260200161097a565b50610eaf6001610731565b6040517f681eace576127d0553b224436a09801fb47d042942cbff59d7d4ff04d8fa03d790600090a1565b604080517f00000000000000000000000000000000000000000000000000000000000000006020808301919091526001600160e01b03198416828401528251602481840301815260449092019092528051910120919050565b600080610f3e61073d565b9050600080610f56600954610f5161131d565b611dd9565b509193509150610f6c905081610aeb8585611e42565b935050505090565b60006060610f8486516002611b74565b610a9f89898989898989611f6a612029611cc6565b7f000000000000000000000000000000000000000000000000000000000000000090565b7f000000000000000000000000000000000000000000000000000000000000000090565b60606000610fed61208b565b60408051600280825260608201835292935091906020830190803683370190505091506110448160008151811061102057fe5b60200260200101518260018151811061103557fe5b60200260200101516001611a58565b9091508360008151811061105457fe5b602002602001018460018151811061106857fe5b6020908102919091010191909152525090565b60048054604080516020601f60026000196101006001881615020190951694909404938401819004810282018101909252828152606093909290918301828280156106575780601f1061062c57610100808354040283529160200191610657565b6000806110e761208b565b90506000806000611113846000815181106110fe57fe5b60200260200101518560018151811061103557fe5b925092509250611124848383612141565b94505050505090565b60095490565b600061113d611968565b836080015161114d610b79610fbd565b611158610b9f610811565b60007f00000000000000000000000000000000000000000000000000000000000000006001600160a01b031686602001516001600160a01b031614905060006111a0826119f8565b905060006111ae83156119f8565b90506111ba8783611a4c565b96506111c68682611a4c565b955060008060006111d88a8a88611a58565b9194509250905060008b5160018111156111ee57fe5b141561125d57600061120c611201610a6d565b60608e01519061217f565b905061122e611228828e606001516121d490919063ffffffff16565b87611a4c565b60608d015260006112428d8d8d87876121ea565b905061124e8187612209565b995050505050505050506112b1565b61126b8b6060015185611a4c565b60608c0152600061127f8c8c8c8686612215565b905061128b8187612228565b90506112a76112a061129b610a6d565b612234565b829061225a565b9850505050505050505b509392505050565b6000806112c633856115ad565b90508083106112e0576112db33856000611643565b6112ed565b6112ed3385858403611643565b5060019392505050565b600061066e3384846117c2565b60006107f36122c0565b600c546001600160a01b031681565b60008061132861208b565b90506000611334611ed8565b9050611351828260005b60200201518360015b602002015161233a565b9250505090565b6113668442111560d16117b4565b6001600160a01b0380881660008181526006602090815260408083205481517f00000000000000000000000000000000000000000000000000000000000000008185015280830195909552948b166060850152608084018a905260a0840185905260c08085018a90528151808603909101815260e090940190528251920191909120906113f28261236d565b9050600060018288888860405160008152602001604052604051808581526020018460ff1681526020018381526020018281526020019450505050506020604051602081039080840390855afa158015611450573d6000803e3d6000fd5b5050604051601f190151915061149290506001600160a01b0382161580159061148a57508b6001600160a01b0316826001600160a01b0316145b6101f86117b4565b6001600160a01b038b1660009081526006602052604090206001850190556114bb8b8b8b611643565b5050505050505050505050565b606080886114d7610b79610fbd565b6114e2610b9f610811565b6114ea611968565b60006114f461073d565b611564576115048b8b8b886123b9565b94509050611519620f424082101560cc6117b4565b6115276000620f424061248e565b61153689620f4240830361248e565b61153f84612029565b604080516002808252606082018352909160208301908036833701905050925061159f565b61156d88611efe565b61157c8b8b8b8b8b8b8b611f6a565b9095509350905061158d898261248e565b61159684612029565b61159f83611c48565b505097509795505050505050565b60006115b7610fbd565b6001600160a01b0316826001600160a01b031614156115d95750600019610672565b6115e38383612498565b9050610672565b60606107f36124c3565b806115fe81612532565b5050565b60006116108383605661162d565b9392505050565b60006116278383111560016117b4565b50900390565b67ffffffffffffffff811b1992909216911b1790565b6001600160a01b03808416600081815260016020908152604080832094871680845294825291829020859055815185815291517f8c5be1e5ebec7d5bd14f71427d1e84f3dd0314c0f7b2291e5b200ac8c7c3b9259281900390910190a3505050565b60006116bc6000356001600160e01b031916610eda565b905061073a6116cb82336125b0565b6101916117b4565b80156116f3576116ee6116e461176c565b42106101936117b4565b611708565b6117086116fe611790565b42106101a96117b4565b6007805482151560ff19909116811790915560408051918252517f9e3a5e37224532dea67b89face185703738a228a6e8a23dee546960180d3be649181900360200190a150565b6000611759611790565b4211806107f357505060075460ff161590565b7f000000000000000000000000000000000000000000000000000000000000000090565b7f000000000000000000000000000000000000000000000000000000000000000090565b816115fe576115fe816126b2565b6117d96001600160a01b03841615156101986117b4565b6117f06001600160a01b03831615156101996117b4565b6117fb8383836125ab565b6001600160a01b03831660009081526020819052604090205461182190826101a0612705565b6001600160a01b03808516600090815260208190526040808220939093559084168152205461185090826119e6565b6001600160a01b038084166000818152602081815260409182902094909455805185815290519193928716927fddf252ad1be2c89b69c2b068fc378daa952ba7f163c4a11628f55a4df523b3ef92918290030190a3505050565b60007f00000000000000000000000000000000000000000000000000000000000000007f00000000000000000000000000000000000000000000000000000000000000007f000000000000000000000000000000000000000000000000000000000000000061191761271b565b3060405160200180868152602001858152602001848152602001838152602001826001600160a01b031681526020019550505050505060405160208183030381529060405280519060200120905090565b61197b61197361174f565b6101926117b4565b565b61199064e8d4a5100082101560cb6117b4565b6119a667016345785d8a000082111560ca6117b4565b6008546119b39082611602565b6008556040517fa9ba3ffe0b6c366b81232caab38605a0699ad5398d6cce76f91ee809e322dafc9061071e90839061420f565b600082820161161084821015836117b4565b600081611a25577f0000000000000000000000000000000000000000000000000000000000000000610672565b7f000000000000000000000000000000000000000000000000000000000000000092915050565b6000611610838361271f565b60408051600280825260608201835260009283928392839260208301908036833701905050905084611a8a5785611a8c565b865b81600081518110611a9957fe5b60200260200101818152505084611ab05786611ab2565b855b81600181518110611abf57fe5b6020026020010181815250506000611ad5611ed8565b9050611ae38282600061133e565b94506000611af18287612758565b905086611b02576020810151611b05565b80515b945086611b13578051611b19565b60208101515b935050505093509350939050565b6000610672828261278c565b600061067282601661278c565b600061067282602c6127b3565b600061067282604b6127bd565b60006106728260556127c5565b60006106728260566127cf565b6115fe81831460676117b4565b60006060806000611b90611ed8565b9050611b9a61174f565b15611bfc576000611bb58983835b6020020151846001611347565b90506000611bc38383612758565b9050611bce826127dd565b611bd88a8861280a565b9096509450611bf18287611bea61073d565b6000612856565b60095550611c129050565b611c06888661280a565b60001960095590945092505b60408051600280825260608201835286928692919060208301908036833701905050935093509350509750975097945050505050565b611c6f81600081518110611c5857fe5b6020026020010151611c6a60016119f8565b611e5a565b81600081518110611c7c57fe5b602002602001018181525050611caa81600181518110611c9857fe5b6020026020010151611c6a60006119f8565b81600181518110611cb757fe5b60200260200101818152505050565b333014611d84576000306001600160a01b0316600036604051611cea92919061415f565b6000604051808303816000865af19150503d8060008114611d27576040519150601f19603f3d011682016040523d82523d6000602084013e611d2c565b606091505b505090508060008114611d3b57fe5b60046000803e6000516001600160e01b0319166343adbafb60e01b8114611d66573d6000803e3d6000fd5b506020600460003e604060205260243d03602460403e601c3d016000f35b611d8d86611efe565b600080611da38b8b8b8b8b8b8b8b63ffffffff16565b5091509150611db5818463ffffffff16565b8051601f1982018390526343adbafb603f1983015260200260231982016044820181fd5b600080600080600080600080611ded6128ae565b93509350935093508360001415611e1257600097508796509094509250611e39915050565b600080611e298c8c611e2261073d565b8989612a20565b909a509850929650909450505050505b92959194509250565b600082820183811015611610576116106000806117b4565b600081611e6d57611e6d600060046117b4565b82611e7a57506000610672565b670de0b6b3a764000083810290848281611e9057fe5b0414611ea257611ea2600060056117b4565b828181611eab57fe5b04949350505050565b6000828202611610841580611ed1575083858381611ece57fe5b04145b60036117b4565b611ee0613bdc565b611eea6001612abb565b8152611ef66000612abb565b602082015290565b611f2581600081518110611f0e57fe5b6020026020010151611f2060016119f8565b61271f565b81600081518110611f3257fe5b602002602001018181525050611caa81600181518110611f4e57fe5b6020026020010151611f2060006119f8565b6115fe8282612b0f565b60006060806000611f79611ed8565b90506000611f88898383611ba8565b90506000611f968383612758565b9050611fa1826127dd565b600080611fae8c8a612bc6565b600a54919350915060ff1615611fd857611fd882611fcb8f610b4b565b611fd361073d565b612c00565b611fec8483611fe561073d565b6001612856565b6009556040805160028082526060820183528492849291906020830190803683370190505097509750975050505050509750975097945050505050565b6120508160008151811061203957fe5b602002602001015161204b60016119f8565b61225a565b8160008151811061205d57fe5b602002602001018181525050611caa8160018151811061207957fe5b602002602001015161204b60006119f8565b60408051600280825260608083018452926020830190803683370190505090506120de7f00000000000000000000000000000000000000000000000000000000000000006120d960016119f8565b612d12565b816000815181106120eb57fe5b6020026020010181815250506121257f00000000000000000000000000000000000000000000000000000000000000006120d960006119f8565b8160018151811061213257fe5b60200260200101818152505090565b60006121778460008151811061215357fe5b6020026020010151848660018151811061216957fe5b602002602001015185612db9565b949350505050565b600082820283158061219957508284828161219657fe5b04145b6121a9576121a9600060036117b4565b806121b8576000915050610672565b670de0b6b3a764000060001982015b0460010191505092915050565b60008282111561162757611627600060016117b4565b60006121fd858588606001518686612dd2565b90505b95945050505050565b60006116108383611e5a565b60006121fd858588606001518686612e3c565b6000611610838361225a565b6000670de0b6b3a7640000821061224c576000610672565b50670de0b6b3a76400000390565b60008161226d5761226d600060046117b4565b8261227a57506000610672565b670de0b6b3a76400008381029084828161229057fe5b04146122b4576122b4670de0b6b3a76400008583816122ab57fe5b041460056117b4565b8260018203816121c757fe5b60006122ca610fbd565b6001600160a01b031663aaabadc56040518163ffffffff1660e01b815260040160206040518083038186803b15801561230257600080fd5b505afa158015612316573d6000803e3d6000fd5b505050506040513d601f19601f820116820180604052508101906107f39190613ca5565b600080600080600061234d888888612e9c565b935093509350935061236184848484612ff4565b98975050505050505050565b60006123776118aa565b82604051602001808061190160f01b81525060020183815260200182815260200192505050604051602081830303815290604052805190602001209050919050565b6000606060006123c884613068565b90506123e360008260038111156123db57fe5b1460ce6117b4565b60006123ee85613087565b90506123fc81516002611b74565b61240581611efe565b600080600061241a846000815181106110fe57fe5b925092509250600061242d858484612141565b9050600061247561245b838860008151811061244557fe5b602002602001015161271f90919063ffffffff16565b8760018151811061246857fe5b60200260200101516119e6565b60099590955550929b939a509298505050505050505050565b6115fe828261313b565b6001600160a01b03918216600090815260016020908152604080832093909416825291909152205490565b604080516002808252606080830184529260009291906020830190803683370190505090506124f260016131d0565b816000815181106124ff57fe5b60200260200101818152505061251560006131d0565b8160018151811061252257fe5b6020908102919091010152905090565b6002815110156125415761073a565b60008160008151811061255057fe5b602002602001015190506000600190505b82518110156125ab57600083828151811061257857fe5b602002602001015190506125a1816001600160a01b0316846001600160a01b03161060656117b4565b9150600101612561565b505050565b600073ba1ba1ba1ba1ba1ba1ba1ba1ba1ba1ba1ba1ba1b6125cf610f99565b6001600160a01b0316141580156125ea57506125ea83613224565b15612612576125f7610f99565b6001600160a01b0316336001600160a01b0316149050610672565b61261a6122c0565b6001600160a01b0316639be2a8848484306040518463ffffffff1660e01b815260040180848152602001836001600160a01b03168152602001826001600160a01b03168152602001935050505060206040518083038186803b15801561267f57600080fd5b505afa158015612693573d6000803e3d6000fd5b505050506040513d60208110156126a957600080fd5b50519050610672565b62461bcd60e51b6000908152602060045260076024526642414c23000030600a808404818106603090810160081b95839006959095019082900491820690940160101b939093010160c81b604452606490fd5b600061271484841115836117b4565b5050900390565b4690565b600082820283158061273957508284828161273657fe5b04145b61274957612749600060036117b4565b670de0b6b3a764000081611eab565b612760613bdc565b612773600184815b602002015184613256565b815261278160008481612768565b602082015292915050565b600082821c623fffff16621fffff81136127a65780612177565b623fffff19179392505050565b1c637fffffff1690565b1c6103ff1690565b1c60019081161490565b1c67ffffffffffffffff1690565b6000806000806127ef60095486611dd9565b935093509350935061280384848484613276565b5050505050565b60006060600061281984613068565b9050600181600381111561282957fe5b141561284357612839858561329c565b909350915061284e565b61284e6101506126b2565b509250929050565b600081156128885760006128748461286e888861217f565b9061225a565b90506128808682611e42565b915050612177565b600061289884610b26888861271f565b90506128a486826121d4565b9695505050505050565b600d546000908190819081906128d5906001600160a01b03163063032434c560e41b6132ce565b600d546128f3906001600160a01b03163063032434c560e41b6132f5565b600d546040516321f8a72160e01b81526001600160a01b03909116906321f8a72190612933906c4759524f5f545245415355525960981b9060040161420f565b60206040518083038186803b15801561294b57600080fd5b505afa15801561295f573d6000803e3d6000fd5b505050506040513d601f19601f820116820180604052508101906129839190613ca5565b600d546040516321f8a72160e01b81526001600160a01b03909116906321f8a721906129c2906b42414c5f545245415355525960a01b9060040161420f565b60206040518083038186803b1580156129da57600080fd5b505afa1580156129ee573d6000803e3d6000fd5b505050506040513d601f19601f82011682018060405250810190612a129190613ca5565b935093509350935090919293565b600080868611612a3557506000905080612ab1565b6000612a5585612a4f612a488a8c6121d4565b899061271f565b9061271f565b90506000612a6d612a66898b6121d4565b879061271f565b90506000612a7b89836121d4565b90506000612a898483611e5a565b90506000612a97888361271f565b90506000612aa583836121d4565b91975090955050505050505b9550959350505050565b600081612ae8577f0000000000000000000000000000000000000000000000000000000000000000610672565b507f0000000000000000000000000000000000000000000000000000000000000000919050565b612b266001600160a01b038316151561019b6117b4565b612b32826000836125ab565b6001600160a01b038216600090815260208190526040902054612b5890826101a1612705565b6001600160a01b038316600090815260208190526040902055600254612b7e9082613323565b6002556040805182815290516000916001600160a01b038516917fddf252ad1be2c89b69c2b068fc378daa952ba7f163c4a11628f55a4df523b3ef9181900360200190a35050565b600060606000612bd584613068565b90506003816003811115612be557fe5b1415612bf5576128398585613331565b61284e6101366126b2565b60408051606081018252600a5460ff81161515825261010081046001600160781b031660208301819052600160801b9091046001600160801b03169282019290925290612c4d8585611e42565b11156040518060400160405280601a81526020017f6f7665722061646472657373206c69717569646974792063617000000000000081525090612ca35760405162461bcd60e51b81526004016106c99190614259565b5060408101516001600160801b0316612cbc8584611e42565b11156040518060400160405280601981526020017f6f76657220676c6f62616c206c69717569646974792063617000000000000000815250906128035760405162461bcd60e51b81526004016106c99190614259565b6000806000612d1f610fbd565b6001600160a01b031663b05f8e48612d35610811565b876040518363ffffffff1660e01b8152600401612d53929190614218565b60806040518083038186803b158015612d6b57600080fd5b505afa158015612d7f573d6000803e3d6000fd5b505050506040513d601f19601f82011682018060405250810190612da391906140e5565b505081810194509092509050612200838561271f565b6000612200612dc88686611e42565b61286e8585611e42565b600080612df1612dea85670de0b6b3a764000261217f565b8890611e42565b90506000612e0a612dea85670de0b6b3a763ffff61271f565b9050612e23612e198388611e42565b610b26838961271f565b9250505084811115612200576122006000610165613356565b600084841115612e5357612e536000610165613356565b6000612e6a612dea85670de0b6b3a764000261217f565b90506000612e83612dea85670de0b6b3a763ffff61271f565b9050612361612e9282886121d4565b61286e848961217f565b6000808080612ebd612eae8787611e5a565b670de0b6b3a7640000906121d4565b93506000612ee88689600181518110612ed257fe5b6020026020010151611e5a90919063ffffffff16565b90506000612efd888a60008151811061244557fe5b9050612f098282611e42565b9450612f3089600181518110612f1b57fe5b60200260200101518a60008151811061244557fe5b92505050612f6186612a4f88612a4f8b600081518110612f4c57fe5b60200260200101518c60008151811061244557fe5b91506000612fa186610b2689612a4f670de0b6b3a7640000600202612a4f8e600181518110612f8c57fe5b60200260200101518f60008151811061244557fe5b90506000612fd7612fb2888061217f565b610b268b600181518110612fc257fe5b60200260200101518c60018151811061244557fe5b9050612fe781610aeb8685611e42565b9350505093509350935093565b60008061300986671bc16d674ec8000061217f565b9050600061302387612a4f86673782dace9d90000061271f565b905060006130318683611e42565b90506000613040826005613364565b9050600061304e8983611e42565b905061305a8186611e5a565b9a9950505050505050505050565b600081806020019051602081101561307f57600080fd5b505192915050565b606081806020019051604081101561309e57600080fd5b8151602083018051604051929492938301929190846401000000008211156130c557600080fd5b9083019060208201858111156130da57600080fd5b82518660208202830111640100000000821117156130f757600080fd5b82525081516020918201928201910280838360005b8381101561312457818101518382015260200161310c565b505050509190910160405250929695505050505050565b613147600083836125ab565b60025461315490826119e6565b6002556001600160a01b03821660009081526020819052604090205461317a90826119e6565b6001600160a01b0383166000818152602081815260408083209490945583518581529351929391927fddf252ad1be2c89b69c2b068fc378daa952ba7f163c4a11628f55a4df523b3ef9281900390910190a35050565b6000816131fd577f0000000000000000000000000000000000000000000000000000000000000000610672565b507f0000000000000000000000000000000000000000000000000000000000000000919050565b6000613236631c74c91760e11b610eda565b821480610672575061324e6350dd6ed960e01b610eda565b909114919050565b60008361326c576132678284611a4c565b612177565b6121778284612209565b831561328657613286828561248e565b821561329657613296818461248e565b50505050565b6000606060006132ab846134f2565b905060006132c186836132bc61073d565b613514565b9196919550909350505050565b6000612177847550524f544f434f4c5f535741505f4645455f5045524360501b848661359a565b6000612177847f50524f544f434f4c5f4645455f4759524f5f504f5254494f4e00000000000000848661359a565b600061161083836001612705565b600060606000613340846134f2565b905060006132c1868361335161073d565b613847565b816115fe576115fe816138e3565b60008261337357506000610672565b600061337e846138f3565b9050600281670de0b6b3a764000086028161339557fe5b0482018161339f57fe5b049050600281670de0b6b3a76400008602816133b757fe5b048201816133c157fe5b049050600281670de0b6b3a76400008602816133d957fe5b048201816133e357fe5b049050600281670de0b6b3a76400008602816133fb57fe5b0482018161340557fe5b049050600281670de0b6b3a764000086028161341d57fe5b0482018161342757fe5b049050600281670de0b6b3a764000086028161343f57fe5b0482018161344957fe5b049050600281670de0b6b3a764000086028161346157fe5b0482018161346b57fe5b049050600061347a828061271f565b9050613490613489838661217f565b8690611e42565b81111580156134b257506134ae6134a7838661217f565b86906121d4565b8110155b6112b1576040805162461bcd60e51b815260206004820152600c60248201526b17dcdc5c9d0811905253115160a21b604482015290519081900360640190fd5b600081806020019051604081101561350957600080fd5b506020015192915050565b6060835167ffffffffffffffff8111801561352e57600080fd5b50604051908082528060200260200182016040528015613558578160200160208202803683370190505b50905060005b84518110156112b15761357b83610b268688858151811061244557fe5b82828151811061358757fe5b602090810291909101015260010161355e565b6040805160208082018690526001600160a01b03808516838501528351808403850181526060840180865281519184019190912063696eb37560e01b909152606484018190529351600094939189169263696eb3759260848082019391829003018186803b15801561360b57600080fd5b505afa15801561361f573d6000803e3d6000fd5b505050506040513d602081101561363557600080fd5b5051156136b557856001600160a01b031663bd02d0f5826040518263ffffffff1660e01b81526004018082815260200191505060206040518083038186803b15801561368057600080fd5b505afa158015613694573d6000803e3d6000fd5b505050506040513d60208110156136aa57600080fd5b505191506121779050565b6040805160208082018890528183018790528251808303840181526060830180855281519183019190912063696eb37560e01b9091526064830181905292516001600160a01b038a169263696eb375926084808301939192829003018186803b15801561372157600080fd5b505afa158015613735573d6000803e3d6000fd5b505050506040513d602081101561374b57600080fd5b5051156137cc57866001600160a01b031663bd02d0f5826040518263ffffffff1660e01b81526004018082815260200191505060206040518083038186803b15801561379657600080fd5b505afa1580156137aa573d6000803e3d6000fd5b505050506040513d60208110156137c057600080fd5b50519250612177915050565b866001600160a01b031663bd02d0f5876040518263ffffffff1660e01b81526004018082815260200191505060206040518083038186803b15801561381057600080fd5b505afa158015613824573d6000803e3d6000fd5b505050506040513d602081101561383a57600080fd5b5051979650505050505050565b6060835167ffffffffffffffff8111801561386157600080fd5b5060405190808252806020026020018201604052801561388b578160200160208202803683370190505b50905060005b84518110156112b1576138c48361286e868885815181106138ae57fe5b602002602001015161217f90919063ffffffff16565b8282815181106138d057fe5b6020908102919091010152600101613891565b61073a816223aca960e91b613ac5565b6000670de0b6b3a7640000821061392057670de0b6b3a7640000613918818404613b26565b1b9050610b65565b600a8211613933575063bc7c871c610b65565b6064821161394757506402540be400610b65565b6103e8821161395c575064075cdd4719610b65565b6127108211613971575064174876e800610b65565b620186a0821161398757506449a0a4c700610b65565b620f4240821161399d575064e8d4a51000610b65565b6298968082116139b457506502e0466fc608610b65565b6305f5e10082116139cc57506509184e72a000610b65565b633b9aca0082116139e45750651cc2c05dbc53610b65565b6402540be40082116139fd5750655af3107a4000610b65565b64174876e8008211613a17575066011f9b83a95b45610b65565b64e8d4a510008211613a31575066038d7ea4c68000610b65565b6509184e72a0008211613a4c5750660b3c13249d90bb610b65565b655af3107a40008211613a675750662386f26fc10000610b65565b66038d7ea4c680008211613a835750667058bf6e27a751610b65565b662386f26fc100008211613aa0575067016345785d8a0000610b65565b67016345785d8a00008211613abe5750670463777a4d8c892d610b65565b5080610b65565b62461bcd60e51b600090815260206004526007602452600a808404818106603090810160081b958390069590950190829004918206850160101b01602363ffffff0060e086901c160160181b0190930160c81b60445260e882901c90606490fd5b6000600160801b8210613b3e5760809190911c906040015b680100000000000000008210613b595760409190911c906020015b6401000000008210613b705760209190911c906010015b620100008210613b855760109190911c906008015b6101008210613b995760089190911c906004015b60108210613bac5760049190911c906002015b60048210610b6557600101919050565b604080516060810182526000808252602082018190529181019190915290565b60405180604001604052806002906020820280368337509192915050565b8035610b658161436d565b80358015158114610b6557600080fd5b600082601f830112613c25578081fd5b813567ffffffffffffffff811115613c3957fe5b613c4c601f8201601f1916602001614349565b818152846020838601011115613c60578283fd5b816020850160208301379081016020019190915292915050565b803560028110610b6557600080fd5b600060208284031215613c9a578081fd5b81356116108161436d565b600060208284031215613cb6578081fd5b81516116108161436d565b60008060408385031215613cd3578081fd5b8235613cde8161436d565b91506020830135613cee8161436d565b809150509250929050565b600080600060608486031215613d0d578081fd5b8335613d188161436d565b92506020840135613d288161436d565b929592945050506040919091013590565b600080600080600080600060e0888a031215613d53578283fd5b8735613d5e8161436d565b96506020880135613d6e8161436d565b95506040880135945060608801359350608088013560ff81168114613d91578384fd5b9699959850939692959460a0840135945060c09093013592915050565b60008060408385031215613dc0578182fd5b8235613dcb8161436d565b946020939093013593505050565b600060208284031215613dea578081fd5b61161082613c05565b600080600080600080600060e0888a031215613e0d578081fd5b87359650602080890135613e208161436d565b96506040890135613e308161436d565b9550606089013567ffffffffffffffff80821115613e4c578384fd5b818b0191508b601f830112613e5f578384fd5b813581811115613e6b57fe5b613e788485830201614349565b8082825285820191508585018f878886028801011115613e96578788fd5b8795505b83861015613eb8578035835260019590950194918601918601613e9a565b509850505060808b0135955060a08b0135945060c08b0135925080831115613ede578384fd5b5050613eec8a828b01613c15565b91505092959891949750929550565b600060208284031215613f0c578081fd5b81356001600160e01b031981168114611610578182fd5b600060608284031215613f34578081fd5b6040516060810181811067ffffffffffffffff82111715613f5157fe5b604052613f5d83613c05565b815260208301356001600160781b0381168114613f78578283fd5b602082015260408301356001600160801b0381168114613f96578283fd5b60408201529392505050565b600080600060608486031215613fb6578081fd5b833567ffffffffffffffff80821115613fcd578283fd5b8186019150610120808389031215613fe3578384fd5b613fec81614349565b9050613ff783613c7a565b815261400560208401613bfa565b602082015261401660408401613bfa565b6040820152606083013560608201526080830135608082015260a083013560a082015261404560c08401613bfa565b60c082015261405660e08401613bfa565b60e0820152610100808401358381111561406e578586fd5b61407a8a828701613c15565b9183019190915250976020870135975060409096013595945050505050565b6000602082840312156140aa578081fd5b5035919050565b6000806000606084860312156140c5578081fd5b83359250602084013591506140dc60408501613c05565b90509250925092565b600080600080608085870312156140fa578182fd5b845193506020850151925060408501519150606085015161411a8161436d565b939692955090935050565b6000815180845260208085019450808401835b8381101561415457815187529582019590820190600101614138565b509495945050505050565b6000828483379101908152919050565b6001600160a01b0391909116815260200190565b60408101818360005b60028110156141ab57815183526020928301929091019060010161418c565b50505092915050565b6000602082526116106020830184614125565b6000604082526141da6040830185614125565b82810360208401526122008185614125565b901515815260200190565b92151583526020830191909152604082015260600190565b90815260200190565b9182526001600160a01b0316602082015260400190565b9586526020860194909452604085019290925260608401521515608083015260a082015260c00190565b6000602080835283518082850152825b8181101561428557858101830151858201604001528201614269565b818111156142965783604083870101525b50601f01601f1916929092016040019392505050565b8151151581526020808301516001600160781b0316908201526040918201516001600160801b03169181019190915260600190565b905460ff811615158252600881901c6001600160781b0316602083015260801c604082015260600190565b6000838252604060208301526121776040830184614125565b9283526020830191909152604082015260600190565b60ff91909116815260200190565b60405181810167ffffffffffffffff8111828210171561436557fe5b604052919050565b6001600160a01b038116811461073a57600080fdfea2646970667358221220be0c442d0fe25fc0fc1a982d83b0eb75bb31050eb8a81b36f1b06a0b5ac56c4964736f6c63430007060033","bytecodeSha1":"097be57c70810ac902d0a2b05fc86fa6b56902b7","compiler":{"evm_version":"berlin","optimizer":{"enabled":true,"runs":200},"version":"0.7.6+commit.7338295f"},"contractName":"Gyro2CLPPool","language":"Solidity","natspec":{"kind":"dev","methods":{"DOMAIN_SEPARATOR()":{"details":"See {IERC20Permit-DOMAIN_SEPARATOR}."},"allowance(address,address)":{"details":"Override to grant the Vault infinite allowance, causing for Pool Tokens to not require approval. This is sound as the Vault already provides authorization mechanisms when initiation token transfers, which this contract inherits."},"approve(address,uint256)":{"details":"See {IERC20-approve}. Requirements: - `spender` cannot be the zero address."},"balanceOf(address)":{"details":"See {IERC20-balanceOf}."},"calculateCurrentValues(uint256,uint256,bool)":{"details":"invariant and virtual offsets."},"changePauseManager(address)":{"notice":"Changes the account that is allowed to pause a pool."},"decimals()":{"details":"Returns the number of decimals used to get its user representation. For example, if `decimals` equals `2`, a balance of `505` tokens should be displayed to a user as `5,05` (`505 / 10 ** 2`). Tokens usually opt for a value of 18, imitating the relationship between Ether and Wei. This is the value {ERC20} uses, unless {_setupDecimals} is called. NOTE: This information is only used for _display_ purposes: it in no way affects any of the arithmetic of the contract, including {IERC20-balanceOf} and {IERC20-transfer}."},"decreaseAllowance(address,uint256)":{"details":"Override to allow decreasing allowance by more than the current amount (setting it to zero)"},"getActionId(bytes4)":{"details":"Returns the action identifier associated with the external function described by `selector`."},"getActualSupply()":{"notice":"Effective BPT supply.  This is the same as `totalSupply()` but also accounts for the fact that the pool owes  protocol fees to the pool in the form of unminted LP shares created on the next join/exit,  diluting LPers. Thus, this is the totalSupply() that the next join/exit operation will see.  Equivalent to the respective function in, e.g., WeightedPool, see:  https://github.com/balancer/balancer-v2-monorepo/blob/master/pkg/pool-weighted/contracts/WeightedPool.sol#L325-L344"},"getInvariant()":{"details":"Returns the current value of the invariant."},"getInvariantDivActualSupply()":{"notice":"Equivalent to but more efficient than `getInvariant().divDown(getActualSupply())`."},"getMiscData()":{"details":"Only `swapFeePercentage` is non-trivial; everything else is 0/false because the oracle is not used. These variables are returned to keep the call signature compatible."},"getPausedState()":{"details":"Returns the current contract pause status, as well as the end times of the Pause Window and Buffer Period."},"getPrice()":{"details":"Returns the current spot price of token0 quoted in units of token1."},"getRate()":{"details":"This function returns the appreciation of one BPT relative to the underlying tokens. This starts at 1 when the pool is created and grows over time"},"getSqrtParameters()":{"details":"Returns sqrtAlpha and sqrtBeta (square roots of lower and upper price bounds of p_x respectively)"},"getVirtualParameters()":{"details":"Returns virtual offsets a and b for reserves x and y respectively, as in (x+a)*(y+b)=L^2"},"increaseAllowance(address,uint256)":{"details":"Atomically increases the allowance granted to `spender` by the caller. This is an alternative to {approve} that can be used as a mitigation for problems described in {IERC20-approve}. Emits an {Approval} event indicating the updated allowance. Requirements: - `spender` cannot be the zero address."},"name()":{"details":"Returns the name of the token."},"nonces(address)":{"details":"See {IERC20Permit-nonces}."},"onExitPool(bytes32,address,address,uint256[],uint256,uint256,bytes)":{"details":"Called by the Vault when a user calls `IVault.exitPool` to remove liquidity from this Pool. Returns how many tokens the Vault should deduct from the Pool's balances, as well as the amount of protocol fees the Pool owes to the Vault. The Vault will then take tokens from the Pool's balances and send them to `recipient`, as well as collect the reported amount in protocol fees, which the Pool should calculate based on `protocolSwapFeePercentage`. Protocol fees are charged on exit events to guarantee that users exiting the Pool have paid their share. `sender` is the account performing the exit (typically the pool shareholder), and `recipient` is the account to which the Vault will send the proceeds. `balances` contains the total token balances for each token the Pool registered in the Vault, in the same order that `IVault.getPoolTokens` would return. `lastChangeBlock` is the last block in which *any* of the Pool's registered tokens last changed its total balance. `userData` contains any pool-specific instructions needed to perform the calculations, such as the type of exit (e.g., proportional given an amount of pool shares, single-asset, multi-asset, etc.) Contracts implementing this function should check that the caller is indeed the Vault before performing any state-changing operations, such as burning pool shares."},"onJoinPool(bytes32,address,address,uint256[],uint256,uint256,bytes)":{"details":"Called by the Vault when a user calls `IVault.joinPool` to add liquidity to this Pool. Returns how many of each registered token the user should provide, as well as the amount of protocol fees the Pool owes to the Vault. The Vault will then take tokens from `sender` and add them to the Pool's balances, as well as collect the reported amount in protocol fees, which the pool should calculate based on `protocolSwapFeePercentage`. Protocol fees are reported and charged on join events so that the Pool is free of debt whenever new users join. `sender` is the account performing the join (from which tokens will be withdrawn), and `recipient` is the account designated to receive any benefits (typically pool shares). `balances` contains the total balances for each token the Pool registered in the Vault, in the same order that `IVault.getPoolTokens` would return. `lastChangeBlock` is the last block in which *any* of the Pool's registered tokens last changed its total balance. `userData` contains any pool-specific instructions needed to perform the calculations, such as the type of join (e.g., proportional given an amount of pool shares, single-asset, multi-asset, etc.) Contracts implementing this function should check that the caller is indeed the Vault before performing any state-changing operations, such as minting pool shares."},"pause()":{"notice":"Pauses the pool. Can only be called by the pause manager."},"permit(address,address,uint256,uint256,uint8,bytes32,bytes32)":{"details":"See {IERC20Permit-permit}."},"queryExit(bytes32,address,address,uint256[],uint256,uint256,bytes)":{"details":"Returns the amount of BPT that would be burned from `sender` if the `onExitPool` hook were called by the Vault with the same arguments, along with the number of tokens `recipient` would receive. This function is not meant to be called directly, but rather from a helper contract that fetches current Vault data, such as the protocol swap fee percentage and Pool balances. Like `IVault.queryBatchSwap`, this function is not view due to internal implementation details: the caller must explicitly use eth_call instead of eth_sendTransaction."},"queryJoin(bytes32,address,address,uint256[],uint256,uint256,bytes)":{"details":"Returns the amount of BPT that would be granted to `recipient` if the `onJoinPool` hook were called by the Vault with the same arguments, along with the number of tokens `sender` would have to supply. This function is not meant to be called directly, but rather from a helper contract that fetches current Vault data, such as the protocol swap fee percentage and Pool balances. Like `IVault.queryBatchSwap`, this function is not view due to internal implementation details: the caller must explicitly use eth_call instead of eth_sendTransaction."},"symbol()":{"details":"Returns the symbol of the token, usually a shorter version of the name."},"totalSupply()":{"details":"See {IERC20-totalSupply}."},"transfer(address,uint256)":{"details":"See {IERC20-transfer}. Requirements: - `recipient` cannot be the zero address. - the caller must have a balance of at least `amount`."},"transferFrom(address,address,uint256)":{"details":"Override to allow for 'infinite allowance' and let the token owner use `transferFrom` with no self-allowance"},"unpause()":{"notice":"Unpauses the pool. Can only be called by the pause manager."}},"version":1},"opcodes":"PUSH1 0x80 PUSH1 0x40 MSTORE CALLVALUE DUP1 ISZERO PUSH2 0x10 JUMPI PUSH1 0x0 DUP1 REVERT JUMPDEST POP PUSH1 0x4 CALLDATASIZE LT PUSH2 0x2A0 JUMPI PUSH1 0x0 CALLDATALOAD PUSH1 0xE0 SHR DUP1 PUSH4 0x74F3B009 GT PUSH2 0x167 JUMPI DUP1 PUSH4 0x98D5FDCA GT PUSH2 0xCE JUMPI DUP1 PUSH4 0xABD13AFE GT PUSH2 0x87 JUMPI DUP1 PUSH4 0xABD13AFE EQ PUSH2 0x57A JUMPI DUP1 PUSH4 0xC0FF1A15 EQ PUSH2 0x582 JUMPI DUP1 PUSH4 0xD505ACCF EQ PUSH2 0x58A JUMPI DUP1 PUSH4 0xD5C096C4 EQ PUSH2 0x59D JUMPI DUP1 PUSH4 0xDD62ED3E EQ PUSH2 0x5B0 JUMPI DUP1 PUSH4 0xF89F27ED EQ PUSH2 0x5C3 JUMPI PUSH2 0x2A0 JUMP JUMPDEST DUP1 PUSH4 0x98D5FDCA EQ PUSH2 0x529 JUMPI DUP1 PUSH4 0x9B02CDDE EQ PUSH2 0x531 JUMPI DUP1 PUSH4 0x9D2C110C EQ PUSH2 0x539 JUMPI DUP1 PUSH4 0xA457C2D7 EQ PUSH2 0x54C JUMPI DUP1 PUSH4 0xA9059CBB EQ PUSH2 0x55F JUMPI DUP1 PUSH4 0xAAABADC5 EQ PUSH2 0x572 JUMPI PUSH2 0x2A0 JUMP JUMPDEST DUP1 PUSH4 0x876F303B GT PUSH2 0x120 JUMPI DUP1 PUSH4 0x876F303B EQ PUSH2 0x4E1 JUMPI DUP1 PUSH4 0x87EC6817 EQ PUSH2 0x4E9 JUMPI DUP1 PUSH4 0x893D20E8 EQ PUSH2 0x4FC JUMPI DUP1 PUSH4 0x8D928AF8 EQ PUSH2 0x504 JUMPI DUP1 PUSH4 0x8DD9F89D EQ PUSH2 0x50C JUMPI DUP1 PUSH4 0x95D89B41 EQ PUSH2 0x521 JUMPI PUSH2 0x2A0 JUMP JUMPDEST DUP1 PUSH4 0x74F3B009 EQ PUSH2 0x46C JUMPI DUP1 PUSH4 0x76E54A46 EQ PUSH2 0x48D JUMPI DUP1 PUSH4 0x7ECEBE00 EQ PUSH2 0x4A0 JUMPI DUP1 PUSH4 0x8002DF18 EQ PUSH2 0x4B3 JUMPI DUP1 PUSH4 0x8456CB59 EQ PUSH2 0x4C6 JUMPI DUP1 PUSH4 0x851C1BB3 EQ PUSH2 0x4CE JUMPI PUSH2 0x2A0 JUMP JUMPDEST DUP1 PUSH4 0x3AEAE0D3 GT PUSH2 0x20B JUMPI DUP1 PUSH4 0x6028BFD4 GT PUSH2 0x1C4 JUMPI DUP1 PUSH4 0x6028BFD4 EQ PUSH2 0x40B JUMPI DUP1 PUSH4 0x623A2E75 EQ PUSH2 0x42C JUMPI DUP1 PUSH4 0x679AEFCE EQ PUSH2 0x434 JUMPI DUP1 PUSH4 0x6D785A87 EQ PUSH2 0x43C JUMPI DUP1 PUSH4 0x707DCD1E EQ PUSH2 0x444 JUMPI DUP1 PUSH4 0x70A08231 EQ PUSH2 0x459 JUMPI PUSH2 0x2A0 JUMP JUMPDEST DUP1 PUSH4 0x3AEAE0D3 EQ PUSH2 0x395 JUMPI DUP1 PUSH4 0x3C4DD5BB EQ PUSH2 0x3AA JUMPI DUP1 PUSH4 0x3F4BA83A EQ PUSH2 0x3CC JUMPI DUP1 PUSH4 0x44BBDB55 EQ PUSH2 0x3D4 JUMPI DUP1 PUSH4 0x4A6B0B15 EQ PUSH2 0x3E9 JUMPI DUP1 PUSH4 0x55C67628 EQ PUSH2 0x403 JUMPI PUSH2 0x2A0 JUMP JUMPDEST DUP1 PUSH4 0x23B872DD GT PUSH2 0x25D JUMPI DUP1 PUSH4 0x23B872DD EQ PUSH2 0x337 JUMPI DUP1 PUSH4 0x313CE567 EQ PUSH2 0x34A JUMPI DUP1 PUSH4 0x3644E515 EQ PUSH2 0x35F JUMPI DUP1 PUSH4 0x38E9922E EQ PUSH2 0x367 JUMPI DUP1 PUSH4 0x38FFF2D0 EQ PUSH2 0x37A JUMPI DUP1 PUSH4 0x39509351 EQ PUSH2 0x382 JUMPI PUSH2 0x2A0 JUMP JUMPDEST DUP1 PUSH4 0x6FDDE03 EQ PUSH2 0x2A5 JUMPI DUP1 PUSH4 0x95EA7B3 EQ PUSH2 0x2C3 JUMPI DUP1 PUSH4 0xE608B30 EQ PUSH2 0x2E3 JUMPI DUP1 PUSH4 0x16C38B3C EQ PUSH2 0x2F8 JUMPI DUP1 PUSH4 0x18160DDD EQ PUSH2 0x30B JUMPI DUP1 PUSH4 0x1C0DE051 EQ PUSH2 0x320 JUMPI JUMPDEST PUSH1 0x0 DUP1 REVERT JUMPDEST PUSH2 0x2AD PUSH2 0x5CB JUMP JUMPDEST PUSH1 0x40 MLOAD PUSH2 0x2BA SWAP2 SWAP1 PUSH2 0x4259 JUMP JUMPDEST PUSH1 0x40 MLOAD DUP1 SWAP2 SUB SWAP1 RETURN JUMPDEST PUSH2 0x2D6 PUSH2 0x2D1 CALLDATASIZE PUSH1 0x4 PUSH2 0x3DAE JUMP JUMPDEST PUSH2 0x661 JUMP JUMPDEST PUSH1 0x40 MLOAD PUSH2 0x2BA SWAP2 SWAP1 PUSH2 0x41EC JUMP JUMPDEST PUSH2 0x2F6 PUSH2 0x2F1 CALLDATASIZE PUSH1 0x4 PUSH2 0x3C89 JUMP JUMPDEST PUSH2 0x678 JUMP JUMPDEST STOP JUMPDEST PUSH2 0x2F6 PUSH2 0x306 CALLDATASIZE PUSH1 0x4 PUSH2 0x3DD9 JUMP JUMPDEST PUSH2 0x729 JUMP JUMPDEST PUSH2 0x313 PUSH2 0x73D JUMP JUMPDEST PUSH1 0x40 MLOAD PUSH2 0x2BA SWAP2 SWAP1 PUSH2 0x420F JUMP JUMPDEST PUSH2 0x328 PUSH2 0x743 JUMP JUMPDEST PUSH1 0x40 MLOAD PUSH2 0x2BA SWAP4 SWAP3 SWAP2 SWAP1 PUSH2 0x41F7 JUMP JUMPDEST PUSH2 0x2D6 PUSH2 0x345 CALLDATASIZE PUSH1 0x4 PUSH2 0x3CF9 JUMP JUMPDEST PUSH2 0x76C JUMP JUMPDEST PUSH2 0x352 PUSH2 0x7E0 JUMP JUMPDEST PUSH1 0x40 MLOAD PUSH2 0x2BA SWAP2 SWAP1 PUSH2 0x433B JUMP JUMPDEST PUSH2 0x313 PUSH2 0x7E9 JUMP JUMPDEST PUSH2 0x2F6 PUSH2 0x375 CALLDATASIZE PUSH1 0x4 PUSH2 0x4099 JUMP JUMPDEST PUSH2 0x7F8 JUMP JUMPDEST PUSH2 0x313 PUSH2 0x811 JUMP JUMPDEST PUSH2 0x2D6 PUSH2 0x390 CALLDATASIZE PUSH1 0x4 PUSH2 0x3DAE JUMP JUMPDEST PUSH2 0x835 JUMP JUMPDEST PUSH2 0x39D PUSH2 0x870 JUMP JUMPDEST PUSH1 0x40 MLOAD PUSH2 0x2BA SWAP2 SWAP1 PUSH2 0x42AC JUMP JUMPDEST PUSH2 0x3BD PUSH2 0x3B8 CALLDATASIZE PUSH1 0x4 PUSH2 0x40B1 JUMP JUMPDEST PUSH2 0x8BB JUMP JUMPDEST PUSH1 0x40 MLOAD PUSH2 0x2BA SWAP4 SWAP3 SWAP2 SWAP1 PUSH2 0x4325 JUMP JUMPDEST PUSH2 0x2F6 PUSH2 0x90E JUMP JUMPDEST PUSH2 0x3DC PUSH2 0xA03 JUMP JUMPDEST PUSH1 0x40 MLOAD PUSH2 0x2BA SWAP2 SWAP1 PUSH2 0x416F JUMP JUMPDEST PUSH2 0x3F1 PUSH2 0xA12 JUMP JUMPDEST PUSH1 0x40 MLOAD PUSH2 0x2BA SWAP7 SWAP6 SWAP5 SWAP4 SWAP3 SWAP2 SWAP1 PUSH2 0x422F JUMP JUMPDEST PUSH2 0x313 PUSH2 0xA6D JUMP JUMPDEST PUSH2 0x41E PUSH2 0x419 CALLDATASIZE PUSH1 0x4 PUSH2 0x3DF3 JUMP JUMPDEST PUSH2 0xA7A JUMP JUMPDEST PUSH1 0x40 MLOAD PUSH2 0x2BA SWAP3 SWAP2 SWAP1 PUSH2 0x430C JUMP JUMPDEST PUSH2 0x313 PUSH2 0xAAB JUMP JUMPDEST PUSH2 0x313 PUSH2 0xB07 JUMP JUMPDEST PUSH2 0x3DC PUSH2 0xB2C JUMP JUMPDEST PUSH2 0x44C PUSH2 0xB3B JUMP JUMPDEST PUSH1 0x40 MLOAD PUSH2 0x2BA SWAP2 SWAP1 PUSH2 0x4183 JUMP JUMPDEST PUSH2 0x313 PUSH2 0x467 CALLDATASIZE PUSH1 0x4 PUSH2 0x3C89 JUMP JUMPDEST PUSH2 0xB4B JUMP JUMPDEST PUSH2 0x47F PUSH2 0x47A CALLDATASIZE PUSH1 0x4 PUSH2 0x3DF3 JUMP JUMPDEST PUSH2 0xB6A JUMP JUMPDEST PUSH1 0x40 MLOAD PUSH2 0x2BA SWAP3 SWAP2 SWAP1 PUSH2 0x41C7 JUMP JUMPDEST PUSH2 0x2F6 PUSH2 0x49B CALLDATASIZE PUSH1 0x4 PUSH2 0x3F23 JUMP JUMPDEST PUSH2 0xBFA JUMP JUMPDEST PUSH2 0x313 PUSH2 0x4AE CALLDATASIZE PUSH1 0x4 PUSH2 0x3C89 JUMP JUMPDEST PUSH2 0xD21 JUMP JUMPDEST PUSH2 0x2F6 PUSH2 0x4C1 CALLDATASIZE PUSH1 0x4 PUSH2 0x3C89 JUMP JUMPDEST PUSH2 0xD3C JUMP JUMPDEST PUSH2 0x2F6 PUSH2 0xE22 JUMP JUMPDEST PUSH2 0x313 PUSH2 0x4DC CALLDATASIZE PUSH1 0x4 PUSH2 0x3EFB JUMP JUMPDEST PUSH2 0xEDA JUMP JUMPDEST PUSH2 0x313 PUSH2 0xF33 JUMP JUMPDEST PUSH2 0x41E PUSH2 0x4F7 CALLDATASIZE PUSH1 0x4 PUSH2 0x3DF3 JUMP JUMPDEST PUSH2 0xF74 JUMP JUMPDEST PUSH2 0x3DC PUSH2 0xF99 JUMP JUMPDEST PUSH2 0x3DC PUSH2 0xFBD JUMP JUMPDEST PUSH2 0x514 PUSH2 0xFE1 JUMP JUMPDEST PUSH1 0x40 MLOAD PUSH2 0x2BA SWAP2 SWAP1 PUSH2 0x41B4 JUMP JUMPDEST PUSH2 0x2AD PUSH2 0x107B JUMP JUMPDEST PUSH2 0x313 PUSH2 0x10DC JUMP JUMPDEST PUSH2 0x313 PUSH2 0x112D JUMP JUMPDEST PUSH2 0x313 PUSH2 0x547 CALLDATASIZE PUSH1 0x4 PUSH2 0x3FA2 JUMP JUMPDEST PUSH2 0x1133 JUMP JUMPDEST PUSH2 0x2D6 PUSH2 0x55A CALLDATASIZE PUSH1 0x4 PUSH2 0x3DAE JUMP JUMPDEST PUSH2 0x12B9 JUMP JUMPDEST PUSH2 0x2D6 PUSH2 0x56D CALLDATASIZE PUSH1 0x4 PUSH2 0x3DAE JUMP JUMPDEST PUSH2 0x12F7 JUMP JUMPDEST PUSH2 0x3DC PUSH2 0x1304 JUMP JUMPDEST PUSH2 0x3DC PUSH2 0x130E JUMP JUMPDEST PUSH2 0x313 PUSH2 0x131D JUMP JUMPDEST PUSH2 0x2F6 PUSH2 0x598 CALLDATASIZE PUSH1 0x4 PUSH2 0x3D39 JUMP JUMPDEST PUSH2 0x1358 JUMP JUMPDEST PUSH2 0x47F PUSH2 0x5AB CALLDATASIZE PUSH1 0x4 PUSH2 0x3DF3 JUMP JUMPDEST PUSH2 0x14C8 JUMP JUMPDEST PUSH2 0x313 PUSH2 0x5BE CALLDATASIZE PUSH1 0x4 PUSH2 0x3CC1 JUMP JUMPDEST PUSH2 0x15AD JUMP JUMPDEST PUSH2 0x514 PUSH2 0x15EA JUMP JUMPDEST PUSH1 0x3 DUP1 SLOAD PUSH1 0x40 DUP1 MLOAD PUSH1 0x20 PUSH1 0x1F PUSH1 0x2 PUSH1 0x0 NOT PUSH2 0x100 PUSH1 0x1 DUP9 AND ISZERO MUL ADD SWAP1 SWAP6 AND SWAP5 SWAP1 SWAP5 DIV SWAP4 DUP5 ADD DUP2 SWAP1 DIV DUP2 MUL DUP3 ADD DUP2 ADD SWAP1 SWAP3 MSTORE DUP3 DUP2 MSTORE PUSH1 0x60 SWAP4 SWAP1 SWAP3 SWAP1 SWAP2 DUP4 ADD DUP3 DUP3 DUP1 ISZERO PUSH2 0x657 JUMPI DUP1 PUSH1 0x1F LT PUSH2 0x62C JUMPI PUSH2 0x100 DUP1 DUP4 SLOAD DIV MUL DUP4 MSTORE SWAP2 PUSH1 0x20 ADD SWAP2 PUSH2 0x657 JUMP JUMPDEST DUP3 ADD SWAP2 SWAP1 PUSH1 0x0 MSTORE PUSH1 0x20 PUSH1 0x0 KECCAK256 SWAP1 JUMPDEST DUP2 SLOAD DUP2 MSTORE SWAP1 PUSH1 0x1 ADD SWAP1 PUSH1 0x20 ADD DUP1 DUP4 GT PUSH2 0x63A JUMPI DUP3 SWAP1 SUB PUSH1 0x1F AND DUP3 ADD SWAP2 JUMPDEST POP POP POP POP POP SWAP1 POP SWAP1 JUMP JUMPDEST PUSH1 0x0 PUSH2 0x66E CALLER DUP5 DUP5 PUSH2 0x1643 JUMP JUMPDEST POP PUSH1 0x1 JUMPDEST SWAP3 SWAP2 POP POP JUMP JUMPDEST PUSH1 0xB SLOAD PUSH1 0x40 DUP1 MLOAD DUP1 DUP3 ADD SWAP1 SWAP2 MSTORE PUSH1 0xE DUP2 MSTORE PUSH14 0x1B9BDD08185D5D1A1BDC9A5E9959 PUSH1 0x92 SHL PUSH1 0x20 DUP3 ADD MSTORE SWAP1 PUSH1 0x1 PUSH1 0x1 PUSH1 0xA0 SHL SUB AND CALLER EQ PUSH2 0x6D2 JUMPI PUSH1 0x40 MLOAD PUSH3 0x461BCD PUSH1 0xE5 SHL DUP2 MSTORE PUSH1 0x4 ADD PUSH2 0x6C9 SWAP2 SWAP1 PUSH2 0x4259 JUMP JUMPDEST PUSH1 0x40 MLOAD DUP1 SWAP2 SUB SWAP1 REVERT JUMPDEST POP PUSH1 0xB DUP1 SLOAD PUSH1 0x1 PUSH1 0x1 PUSH1 0xA0 SHL SUB NOT AND PUSH1 0x1 PUSH1 0x1 PUSH1 0xA0 SHL SUB DUP4 AND OR SWAP1 SSTORE PUSH1 0x40 MLOAD PUSH32 0xB8FD9AFC34C38FCD13B9A3B7646482EB1FDDCEFB40AF2C70609972816EBA3208 SWAP1 PUSH2 0x71E SWAP1 DUP4 SWAP1 PUSH2 0x416F JUMP JUMPDEST PUSH1 0x40 MLOAD DUP1 SWAP2 SUB SWAP1 LOG1 POP JUMP JUMPDEST PUSH2 0x731 PUSH2 0x16A5 JUMP JUMPDEST PUSH2 0x73A DUP2 PUSH2 0x16D3 JUMP JUMPDEST POP JUMP JUMPDEST PUSH1 0x2 SLOAD SWAP1 JUMP JUMPDEST PUSH1 0x0 DUP1 PUSH1 0x0 PUSH2 0x750 PUSH2 0x174F JUMP JUMPDEST ISZERO SWAP3 POP PUSH2 0x75B PUSH2 0x176C JUMP JUMPDEST SWAP2 POP PUSH2 0x765 PUSH2 0x1790 JUMP JUMPDEST SWAP1 POP SWAP1 SWAP2 SWAP3 JUMP JUMPDEST PUSH1 0x0 DUP1 PUSH2 0x779 DUP6 CALLER PUSH2 0x15AD JUMP JUMPDEST SWAP1 POP PUSH2 0x79D CALLER PUSH1 0x1 PUSH1 0x1 PUSH1 0xA0 SHL SUB DUP8 AND EQ DUP1 PUSH2 0x795 JUMPI POP DUP4 DUP3 LT ISZERO JUMPDEST PUSH2 0x19E PUSH2 0x17B4 JUMP JUMPDEST PUSH2 0x7A8 DUP6 DUP6 DUP6 PUSH2 0x17C2 JUMP JUMPDEST CALLER PUSH1 0x1 PUSH1 0x1 PUSH1 0xA0 SHL SUB DUP7 AND EQ DUP1 ISZERO SWAP1 PUSH2 0x7C3 JUMPI POP PUSH1 0x0 NOT DUP2 EQ ISZERO JUMPDEST ISZERO PUSH2 0x7D5 JUMPI PUSH2 0x7D5 DUP6 CALLER DUP6 DUP5 SUB PUSH2 0x1643 JUMP JUMPDEST POP PUSH1 0x1 SWAP5 SWAP4 POP POP POP POP JUMP JUMPDEST PUSH1 0x5 SLOAD PUSH1 0xFF AND SWAP1 JUMP JUMPDEST PUSH1 0x0 PUSH2 0x7F3 PUSH2 0x18AA JUMP JUMPDEST SWAP1 POP SWAP1 JUMP JUMPDEST PUSH2 0x800 PUSH2 0x16A5 JUMP JUMPDEST PUSH2 0x808 PUSH2 0x1968 JUMP JUMPDEST PUSH2 0x73A DUP2 PUSH2 0x197D JUMP JUMPDEST PUSH32 0x0 SWAP1 JUMP JUMPDEST CALLER PUSH1 0x0 DUP2 DUP2 MSTORE PUSH1 0x1 PUSH1 0x20 SWAP1 DUP2 MSTORE PUSH1 0x40 DUP1 DUP4 KECCAK256 PUSH1 0x1 PUSH1 0x1 PUSH1 0xA0 SHL SUB DUP8 AND DUP5 MSTORE SWAP1 SWAP2 MSTORE DUP2 KECCAK256 SLOAD SWAP1 SWAP2 PUSH2 0x66E SWAP2 DUP6 SWAP1 PUSH2 0x86B SWAP1 DUP7 PUSH2 0x19E6 JUMP JUMPDEST PUSH2 0x1643 JUMP JUMPDEST PUSH2 0x878 PUSH2 0x3BBC JUMP JUMPDEST POP PUSH1 0x40 DUP1 MLOAD PUSH1 0x60 DUP2 ADD DUP3 MSTORE PUSH1 0xA SLOAD PUSH1 0xFF DUP2 AND ISZERO ISZERO DUP3 MSTORE PUSH2 0x100 DUP2 DIV PUSH1 0x1 PUSH1 0x1 PUSH1 0x78 SHL SUB AND PUSH1 0x20 DUP4 ADD MSTORE PUSH1 0x1 PUSH1 0x80 SHL SWAP1 DIV PUSH1 0x1 PUSH1 0x1 PUSH1 0x80 SHL SUB AND SWAP2 DUP2 ADD SWAP2 SWAP1 SWAP2 MSTORE SWAP1 JUMP JUMPDEST PUSH1 0x0 DUP1 PUSH1 0x0 DUP1 PUSH2 0x8CA DUP6 PUSH2 0x19F8 JUMP JUMPDEST SWAP1 POP PUSH1 0x0 PUSH2 0x8D8 DUP7 ISZERO PUSH2 0x19F8 JUMP JUMPDEST SWAP1 POP PUSH2 0x8E4 DUP9 DUP4 PUSH2 0x1A4C JUMP JUMPDEST SWAP8 POP PUSH2 0x8F0 DUP8 DUP3 PUSH2 0x1A4C JUMP JUMPDEST SWAP7 POP PUSH2 0x8FD DUP9 DUP9 DUP9 PUSH2 0x1A58 JUMP JUMPDEST SWAP5 POP SWAP5 POP SWAP5 POP POP POP SWAP4 POP SWAP4 POP SWAP4 SWAP1 POP JUMP JUMPDEST PUSH1 0xC SLOAD PUSH1 0x40 DUP1 MLOAD DUP1 DUP3 ADD SWAP1 SWAP2 MSTORE PUSH1 0x11 DUP2 MSTORE PUSH17 0x3737BA103830BAB9B29036B0B730B3B2B9 PUSH1 0x79 SHL PUSH1 0x20 DUP3 ADD MSTORE SWAP1 PUSH1 0x1 PUSH1 0x1 PUSH1 0xA0 SHL SUB AND CALLER EQ PUSH2 0x9CD JUMPI PUSH1 0x40 MLOAD PUSH3 0x461BCD PUSH1 0xE5 SHL DUP2 MSTORE PUSH1 0x4 ADD DUP1 DUP1 PUSH1 0x20 ADD DUP3 DUP2 SUB DUP3 MSTORE DUP4 DUP2 DUP2 MLOAD DUP2 MSTORE PUSH1 0x20 ADD SWAP2 POP DUP1 MLOAD SWAP1 PUSH1 0x20 ADD SWAP1 DUP1 DUP4 DUP4 PUSH1 0x0 JUMPDEST DUP4 DUP2 LT ISZERO PUSH2 0x992 JUMPI DUP2 DUP2 ADD MLOAD DUP4 DUP3 ADD MSTORE PUSH1 0x20 ADD PUSH2 0x97A JUMP JUMPDEST POP POP POP POP SWAP1 POP SWAP1 DUP2 ADD SWAP1 PUSH1 0x1F AND DUP1 ISZERO PUSH2 0x9BF JUMPI DUP1 DUP3 SUB DUP1 MLOAD PUSH1 0x1 DUP4 PUSH1 0x20 SUB PUSH2 0x100 EXP SUB NOT AND DUP2 MSTORE PUSH1 0x20 ADD SWAP2 POP JUMPDEST POP SWAP3 POP POP POP PUSH1 0x40 MLOAD DUP1 SWAP2 SUB SWAP1 REVERT JUMPDEST POP PUSH2 0x9D8 PUSH1 0x0 PUSH2 0x731 JUMP JUMPDEST PUSH1 0x40 MLOAD PUSH32 0x215385C8BFC731925EC8068D7BAA50F6B6F34417CC7804F7273DC2C0B3DB2790 SWAP1 PUSH1 0x0 SWAP1 LOG1 JUMP JUMPDEST PUSH1 0xD SLOAD PUSH1 0x1 PUSH1 0x1 PUSH1 0xA0 SHL SUB AND DUP2 JUMP JUMPDEST PUSH1 0x0 DUP1 PUSH1 0x0 DUP1 PUSH1 0x0 DUP1 PUSH1 0x0 PUSH1 0x8 SLOAD SWAP1 POP PUSH2 0xA2B DUP2 PUSH2 0x1B27 JUMP JUMPDEST SWAP7 POP PUSH2 0xA36 DUP2 PUSH2 0x1B33 JUMP JUMPDEST SWAP6 POP PUSH2 0xA41 DUP2 PUSH2 0x1B40 JUMP JUMPDEST SWAP5 POP PUSH2 0xA4C DUP2 PUSH2 0x1B4D JUMP JUMPDEST SWAP4 POP PUSH2 0xA57 DUP2 PUSH2 0x1B5A JUMP JUMPDEST SWAP3 POP PUSH2 0xA62 DUP2 PUSH2 0x1B67 JUMP JUMPDEST SWAP2 POP POP SWAP1 SWAP2 SWAP3 SWAP4 SWAP5 SWAP6 JUMP JUMPDEST PUSH1 0x0 PUSH2 0x7F3 PUSH1 0x8 SLOAD PUSH2 0x1B67 JUMP JUMPDEST PUSH1 0x0 PUSH1 0x60 PUSH2 0xA8A DUP7 MLOAD PUSH1 0x2 PUSH2 0x1B74 JUMP JUMPDEST PUSH2 0xA9F DUP10 DUP10 DUP10 DUP10 DUP10 DUP10 DUP10 PUSH2 0x1B81 PUSH2 0x1C48 PUSH2 0x1CC6 JUMP JUMPDEST SWAP8 POP SWAP8 SWAP6 POP POP POP POP POP POP JUMP JUMPDEST PUSH1 0x0 DUP1 PUSH2 0xAB6 PUSH2 0x131D JUMP JUMPDEST SWAP1 POP PUSH1 0x0 PUSH2 0xAC2 PUSH2 0x73D JUMP JUMPDEST SWAP1 POP PUSH1 0x0 DUP1 PUSH2 0xAD3 PUSH1 0x9 SLOAD DUP6 PUSH2 0x1DD9 JUMP JUMPDEST POP SWAP2 SWAP4 POP SWAP2 POP PUSH1 0x0 SWAP1 POP PUSH2 0xAF1 DUP3 PUSH2 0xAEB DUP7 DUP7 PUSH2 0x1E42 JUMP JUMPDEST SWAP1 PUSH2 0x1E42 JUMP JUMPDEST SWAP1 POP PUSH2 0xAFD DUP6 DUP3 PUSH2 0x1E5A JUMP JUMPDEST SWAP6 POP POP POP POP POP POP SWAP1 JUMP JUMPDEST PUSH1 0x0 PUSH2 0x7F3 PUSH2 0xB14 PUSH2 0x73D JUMP JUMPDEST PUSH2 0xB26 PUSH2 0xB1F PUSH2 0x131D JUMP JUMPDEST PUSH1 0x2 PUSH2 0x1EB4 JUMP JUMPDEST SWAP1 PUSH2 0x1E5A JUMP JUMPDEST PUSH1 0xB SLOAD PUSH1 0x1 PUSH1 0x1 PUSH1 0xA0 SHL SUB AND DUP2 JUMP JUMPDEST PUSH2 0xB43 PUSH2 0x3BDC JUMP JUMPDEST PUSH2 0x7F3 PUSH2 0x1ED8 JUMP JUMPDEST PUSH1 0x1 PUSH1 0x1 PUSH1 0xA0 SHL SUB DUP2 AND PUSH1 0x0 SWAP1 DUP2 MSTORE PUSH1 0x20 DUP2 SWAP1 MSTORE PUSH1 0x40 SWAP1 KECCAK256 SLOAD JUMPDEST SWAP2 SWAP1 POP JUMP JUMPDEST PUSH1 0x60 DUP1 DUP9 PUSH2 0xB94 PUSH2 0xB79 PUSH2 0xFBD JUMP JUMPDEST PUSH1 0x1 PUSH1 0x1 PUSH1 0xA0 SHL SUB AND CALLER PUSH1 0x1 PUSH1 0x1 PUSH1 0xA0 SHL SUB AND EQ PUSH1 0xCD PUSH2 0x17B4 JUMP JUMPDEST PUSH2 0xBA9 PUSH2 0xB9F PUSH2 0x811 JUMP JUMPDEST DUP3 EQ PUSH2 0x1F4 PUSH2 0x17B4 JUMP JUMPDEST PUSH2 0xBB2 DUP8 PUSH2 0x1EFE JUMP JUMPDEST PUSH1 0x0 DUP1 PUSH1 0x0 PUSH2 0xBC6 DUP14 DUP14 DUP14 DUP14 DUP14 DUP14 DUP14 PUSH2 0x1B81 JUMP JUMPDEST SWAP3 POP SWAP3 POP SWAP3 POP PUSH2 0xBD6 DUP13 DUP5 PUSH2 0x1F60 JUMP JUMPDEST PUSH2 0xBDF DUP3 PUSH2 0x1C48 JUMP JUMPDEST PUSH2 0xBE8 DUP2 PUSH2 0x1C48 JUMP JUMPDEST SWAP1 SWAP13 SWAP1 SWAP12 POP SWAP10 POP POP POP POP POP POP POP POP POP POP JUMP JUMPDEST PUSH1 0xB SLOAD PUSH1 0x40 DUP1 MLOAD DUP1 DUP3 ADD SWAP1 SWAP2 MSTORE PUSH1 0xE DUP2 MSTORE PUSH14 0x1B9BDD08185D5D1A1BDC9A5E9959 PUSH1 0x92 SHL PUSH1 0x20 DUP3 ADD MSTORE SWAP1 PUSH1 0x1 PUSH1 0x1 PUSH1 0xA0 SHL SUB AND CALLER EQ PUSH2 0xC4B JUMPI PUSH1 0x40 MLOAD PUSH3 0x461BCD PUSH1 0xE5 SHL DUP2 MSTORE PUSH1 0x4 ADD PUSH2 0x6C9 SWAP2 SWAP1 PUSH2 0x4259 JUMP JUMPDEST POP PUSH1 0xA SLOAD PUSH1 0x40 DUP1 MLOAD DUP1 DUP3 ADD SWAP1 SWAP2 MSTORE PUSH1 0x10 DUP2 MSTORE PUSH16 0x1C1BDBDB081A5CC81D5B98D85C1C1959 PUSH1 0x82 SHL PUSH1 0x20 DUP3 ADD MSTORE SWAP1 PUSH1 0xFF AND PUSH2 0xC97 JUMPI PUSH1 0x40 MLOAD PUSH3 0x461BCD PUSH1 0xE5 SHL DUP2 MSTORE PUSH1 0x4 ADD PUSH2 0x6C9 SWAP2 SWAP1 PUSH2 0x4259 JUMP JUMPDEST POP DUP1 MLOAD PUSH1 0xA DUP1 SLOAD PUSH1 0x20 DUP5 ADD MLOAD PUSH1 0x40 DUP1 DUP7 ADD MLOAD PUSH1 0xFF NOT SWAP1 SWAP4 AND SWAP5 ISZERO ISZERO SWAP5 SWAP1 SWAP5 OR PUSH16 0xFFFFFFFFFFFFFFFFFFFFFFFFFFFFFF00 NOT AND PUSH2 0x100 PUSH1 0x1 PUSH1 0x1 PUSH1 0x78 SHL SUB SWAP1 SWAP3 AND SWAP2 SWAP1 SWAP2 MUL OR PUSH1 0x1 PUSH1 0x1 PUSH1 0x80 SHL SUB SWAP1 DUP2 AND PUSH1 0x1 PUSH1 0x80 SHL SWAP2 SWAP1 SWAP3 AND MUL OR DUP2 SSTORE SWAP1 MLOAD PUSH32 0x2ABF5970D7BC1A2B36EAAE52DD2CC353EDB0337C7284EF8A01973081B4E04424 SWAP2 PUSH2 0x71E SWAP2 PUSH2 0x42E1 JUMP JUMPDEST PUSH1 0x1 PUSH1 0x1 PUSH1 0xA0 SHL SUB AND PUSH1 0x0 SWAP1 DUP2 MSTORE PUSH1 0x6 PUSH1 0x20 MSTORE PUSH1 0x40 SWAP1 KECCAK256 SLOAD SWAP1 JUMP JUMPDEST PUSH1 0xC SLOAD PUSH1 0x40 DUP1 MLOAD DUP1 DUP3 ADD SWAP1 SWAP2 MSTORE PUSH1 0x11 DUP2 MSTORE PUSH17 0x3737BA103830BAB9B29036B0B730B3B2B9 PUSH1 0x79 SHL PUSH1 0x20 DUP3 ADD MSTORE PUSH1 0x1 PUSH1 0x1 PUSH1 0xA0 SHL SUB SWAP1 SWAP2 AND SWAP1 CALLER DUP3 EQ PUSH2 0xDC1 JUMPI PUSH1 0x40 MLOAD PUSH3 0x461BCD PUSH1 0xE5 SHL DUP2 MSTORE PUSH1 0x20 PUSH1 0x4 DUP3 ADD DUP2 DUP2 MSTORE DUP4 MLOAD PUSH1 0x24 DUP5 ADD MSTORE DUP4 MLOAD SWAP1 SWAP3 DUP4 SWAP3 PUSH1 0x44 SWAP1 SWAP2 ADD SWAP2 SWAP1 DUP6 ADD SWAP1 DUP1 DUP4 DUP4 PUSH1 0x0 DUP4 ISZERO PUSH2 0x992 JUMPI DUP2 DUP2 ADD MLOAD DUP4 DUP3 ADD MSTORE PUSH1 0x20 ADD PUSH2 0x97A JUMP JUMPDEST POP PUSH1 0xC DUP1 SLOAD PUSH1 0x1 PUSH1 0x1 PUSH1 0xA0 SHL SUB NOT AND PUSH1 0x1 PUSH1 0x1 PUSH1 0xA0 SHL SUB DUP5 DUP2 AND SWAP2 DUP3 OR SWAP1 SWAP3 SSTORE PUSH1 0x40 DUP1 MLOAD SWAP3 DUP5 AND DUP4 MSTORE PUSH1 0x20 DUP4 ADD SWAP2 SWAP1 SWAP2 MSTORE DUP1 MLOAD PUSH32 0x1FFCCD1FA96F4FB3415DF8048A0FD107344E262D2D246C85105E2A3F8F3E8198 SWAP3 DUP2 SWAP1 SUB SWAP1 SWAP2 ADD SWAP1 LOG1 POP POP JUMP JUMPDEST PUSH1 0xC SLOAD PUSH1 0x40 DUP1 MLOAD DUP1 DUP3 ADD SWAP1 SWAP2 MSTORE PUSH1 0x11 DUP2 MSTORE PUSH17 0x3737BA103830BAB9B29036B0B730B3B2B9 PUSH1 0x79 SHL PUSH1 0x20 DUP3 ADD MSTORE SWAP1 PUSH1 0x1 PUSH1 0x1 PUSH1 0xA0 SHL SUB AND CALLER EQ PUSH2 0xEA4 JUMPI PUSH1 0x40 MLOAD PUSH3 0x461BCD PUSH1 0xE5 SHL DUP2 MSTORE PUSH1 0x20 PUSH1 0x4 DUP3 ADD DUP2 DUP2 MSTORE DUP4 MLOAD PUSH1 0x24 DUP5 ADD MSTORE DUP4 MLOAD SWAP1 SWAP3 DUP4 SWAP3 PUSH1 0x44 SWAP1 SWAP2 ADD SWAP2 SWAP1 DUP6 ADD SWAP1 DUP1 DUP4 DUP4 PUSH1 0x0 DUP4 ISZERO PUSH2 0x992 JUMPI DUP2 DUP2 ADD MLOAD DUP4 DUP3 ADD MSTORE PUSH1 0x20 ADD PUSH2 0x97A JUMP JUMPDEST POP PUSH2 0xEAF PUSH1 0x1 PUSH2 0x731 JUMP JUMPDEST PUSH1 0x40 MLOAD PUSH32 0x681EACE576127D0553B224436A09801FB47D042942CBFF59D7D4FF04D8FA03D7 SWAP1 PUSH1 0x0 SWAP1 LOG1 JUMP JUMPDEST PUSH1 0x40 DUP1 MLOAD PUSH32 0x0 PUSH1 0x20 DUP1 DUP4 ADD SWAP2 SWAP1 SWAP2 MSTORE PUSH1 0x1 PUSH1 0x1 PUSH1 0xE0 SHL SUB NOT DUP5 AND DUP3 DUP5 ADD MSTORE DUP3 MLOAD PUSH1 0x24 DUP2 DUP5 SUB ADD DUP2 MSTORE PUSH1 0x44 SWAP1 SWAP3 ADD SWAP1 SWAP3 MSTORE DUP1 MLOAD SWAP2 ADD KECCAK256 SWAP2 SWAP1 POP JUMP JUMPDEST PUSH1 0x0 DUP1 PUSH2 0xF3E PUSH2 0x73D JUMP JUMPDEST SWAP1 POP PUSH1 0x0 DUP1 PUSH2 0xF56 PUSH1 0x9 SLOAD PUSH2 0xF51 PUSH2 0x131D JUMP JUMPDEST PUSH2 0x1DD9 JUMP JUMPDEST POP SWAP2 SWAP4 POP SWAP2 POP PUSH2 0xF6C SWAP1 POP DUP2 PUSH2 0xAEB DUP6 DUP6 PUSH2 0x1E42 JUMP JUMPDEST SWAP4 POP POP POP POP SWAP1 JUMP JUMPDEST PUSH1 0x0 PUSH1 0x60 PUSH2 0xF84 DUP7 MLOAD PUSH1 0x2 PUSH2 0x1B74 JUMP JUMPDEST PUSH2 0xA9F DUP10 DUP10 DUP10 DUP10 DUP10 DUP10 DUP10 PUSH2 0x1F6A PUSH2 0x2029 PUSH2 0x1CC6 JUMP JUMPDEST PUSH32 0x0 SWAP1 JUMP JUMPDEST PUSH32 0x0 SWAP1 JUMP JUMPDEST PUSH1 0x60 PUSH1 0x0 PUSH2 0xFED PUSH2 0x208B JUMP JUMPDEST PUSH1 0x40 DUP1 MLOAD PUSH1 0x2 DUP1 DUP3 MSTORE PUSH1 0x60 DUP3 ADD DUP4 MSTORE SWAP3 SWAP4 POP SWAP2 SWAP1 PUSH1 0x20 DUP4 ADD SWAP1 DUP1 CALLDATASIZE DUP4 CALLDATACOPY ADD SWAP1 POP POP SWAP2 POP PUSH2 0x1044 DUP2 PUSH1 0x0 DUP2 MLOAD DUP2 LT PUSH2 0x1020 JUMPI INVALID JUMPDEST PUSH1 0x20 MUL PUSH1 0x20 ADD ADD MLOAD DUP3 PUSH1 0x1 DUP2 MLOAD DUP2 LT PUSH2 0x1035 JUMPI INVALID JUMPDEST PUSH1 0x20 MUL PUSH1 0x20 ADD ADD MLOAD PUSH1 0x1 PUSH2 0x1A58 JUMP JUMPDEST SWAP1 SWAP2 POP DUP4 PUSH1 0x0 DUP2 MLOAD DUP2 LT PUSH2 0x1054 JUMPI INVALID JUMPDEST PUSH1 0x20 MUL PUSH1 0x20 ADD ADD DUP5 PUSH1 0x1 DUP2 MLOAD DUP2 LT PUSH2 0x1068 JUMPI INVALID JUMPDEST PUSH1 0x20 SWAP1 DUP2 MUL SWAP2 SWAP1 SWAP2 ADD ADD SWAP2 SWAP1 SWAP2 MSTORE MSTORE POP SWAP1 JUMP JUMPDEST PUSH1 0x4 DUP1 SLOAD PUSH1 0x40 DUP1 MLOAD PUSH1 0x20 PUSH1 0x1F PUSH1 0x2 PUSH1 0x0 NOT PUSH2 0x100 PUSH1 0x1 DUP9 AND ISZERO MUL ADD SWAP1 SWAP6 AND SWAP5 SWAP1 SWAP5 DIV SWAP4 DUP5 ADD DUP2 SWAP1 DIV DUP2 MUL DUP3 ADD DUP2 ADD SWAP1 SWAP3 MSTORE DUP3 DUP2 MSTORE PUSH1 0x60 SWAP4 SWAP1 SWAP3 SWAP1 SWAP2 DUP4 ADD DUP3 DUP3 DUP1 ISZERO PUSH2 0x657 JUMPI DUP1 PUSH1 0x1F LT PUSH2 0x62C JUMPI PUSH2 0x100 DUP1 DUP4 SLOAD DIV MUL DUP4 MSTORE SWAP2 PUSH1 0x20 ADD SWAP2 PUSH2 0x657 JUMP JUMPDEST PUSH1 0x0 DUP1 PUSH2 0x10E7 PUSH2 0x208B JUMP JUMPDEST SWAP1 POP PUSH1 0x0 DUP1 PUSH1 0x0 PUSH2 0x1113 DUP5 PUSH1 0x0 DUP2 MLOAD DUP2 LT PUSH2 0x10FE JUMPI INVALID JUMPDEST PUSH1 0x20 MUL PUSH1 0x20 ADD ADD MLOAD DUP6 PUSH1 0x1 DUP2 MLOAD DUP2 LT PUSH2 0x1035 JUMPI INVALID JUMPDEST SWAP3 POP SWAP3 POP SWAP3 POP PUSH2 0x1124 DUP5 DUP4 DUP4 PUSH2 0x2141 JUMP JUMPDEST SWAP5 POP POP POP POP POP SWAP1 JUMP JUMPDEST PUSH1 0x9 SLOAD SWAP1 JUMP JUMPDEST PUSH1 0x0 PUSH2 0x113D PUSH2 0x1968 JUMP JUMPDEST DUP4 PUSH1 0x80 ADD MLOAD PUSH2 0x114D PUSH2 0xB79 PUSH2 0xFBD JUMP JUMPDEST PUSH2 0x1158 PUSH2 0xB9F PUSH2 0x811 JUMP JUMPDEST PUSH1 0x0 PUSH32 0x0 PUSH1 0x1 PUSH1 0x1 PUSH1 0xA0 SHL SUB AND DUP7 PUSH1 0x20 ADD MLOAD PUSH1 0x1 PUSH1 0x1 PUSH1 0xA0 SHL SUB AND EQ SWAP1 POP PUSH1 0x0 PUSH2 0x11A0 DUP3 PUSH2 0x19F8 JUMP JUMPDEST SWAP1 POP PUSH1 0x0 PUSH2 0x11AE DUP4 ISZERO PUSH2 0x19F8 JUMP JUMPDEST SWAP1 POP PUSH2 0x11BA DUP8 DUP4 PUSH2 0x1A4C JUMP JUMPDEST SWAP7 POP PUSH2 0x11C6 DUP7 DUP3 PUSH2 0x1A4C JUMP JUMPDEST SWAP6 POP PUSH1 0x0 DUP1 PUSH1 0x0 PUSH2 0x11D8 DUP11 DUP11 DUP9 PUSH2 0x1A58 JUMP JUMPDEST SWAP2 SWAP5 POP SWAP3 POP SWAP1 POP PUSH1 0x0 DUP12 MLOAD PUSH1 0x1 DUP2 GT ISZERO PUSH2 0x11EE JUMPI INVALID JUMPDEST EQ ISZERO PUSH2 0x125D JUMPI PUSH1 0x0 PUSH2 0x120C PUSH2 0x1201 PUSH2 0xA6D JUMP JUMPDEST PUSH1 0x60 DUP15 ADD MLOAD SWAP1 PUSH2 0x217F JUMP JUMPDEST SWAP1 POP PUSH2 0x122E PUSH2 0x1228 DUP3 DUP15 PUSH1 0x60 ADD MLOAD PUSH2 0x21D4 SWAP1 SWAP2 SWAP1 PUSH4 0xFFFFFFFF AND JUMP JUMPDEST DUP8 PUSH2 0x1A4C JUMP JUMPDEST PUSH1 0x60 DUP14 ADD MSTORE PUSH1 0x0 PUSH2 0x1242 DUP14 DUP14 DUP14 DUP8 DUP8 PUSH2 0x21EA JUMP JUMPDEST SWAP1 POP PUSH2 0x124E DUP2 DUP8 PUSH2 0x2209 JUMP JUMPDEST SWAP10 POP POP POP POP POP POP POP POP POP PUSH2 0x12B1 JUMP JUMPDEST PUSH2 0x126B DUP12 PUSH1 0x60 ADD MLOAD DUP6 PUSH2 0x1A4C JUMP JUMPDEST PUSH1 0x60 DUP13 ADD MSTORE PUSH1 0x0 PUSH2 0x127F DUP13 DUP13 DUP13 DUP7 DUP7 PUSH2 0x2215 JUMP JUMPDEST SWAP1 POP PUSH2 0x128B DUP2 DUP8 PUSH2 0x2228 JUMP JUMPDEST SWAP1 POP PUSH2 0x12A7 PUSH2 0x12A0 PUSH2 0x129B PUSH2 0xA6D JUMP JUMPDEST PUSH2 0x2234 JUMP JUMPDEST DUP3 SWAP1 PUSH2 0x225A JUMP JUMPDEST SWAP9 POP POP POP POP POP POP POP POP JUMPDEST POP SWAP4 SWAP3 POP POP POP JUMP JUMPDEST PUSH1 0x0 DUP1 PUSH2 0x12C6 CALLER DUP6 PUSH2 0x15AD JUMP JUMPDEST SWAP1 POP DUP1 DUP4 LT PUSH2 0x12E0 JUMPI PUSH2 0x12DB CALLER DUP6 PUSH1 0x0 PUSH2 0x1643 JUMP JUMPDEST PUSH2 0x12ED JUMP JUMPDEST PUSH2 0x12ED CALLER DUP6 DUP6 DUP5 SUB PUSH2 0x1643 JUMP JUMPDEST POP PUSH1 0x1 SWAP4 SWAP3 POP POP POP JUMP JUMPDEST PUSH1 0x0 PUSH2 0x66E CALLER DUP5 DUP5 PUSH2 0x17C2 JUMP JUMPDEST PUSH1 0x0 PUSH2 0x7F3 PUSH2 0x22C0 JUMP JUMPDEST PUSH1 0xC SLOAD PUSH1 0x1 PUSH1 0x1 PUSH1 0xA0 SHL SUB AND DUP2 JUMP JUMPDEST PUSH1 0x0 DUP1 PUSH2 0x1328 PUSH2 0x208B JUMP JUMPDEST SWAP1 POP PUSH1 0x0 PUSH2 0x1334 PUSH2 0x1ED8 JUMP JUMPDEST SWAP1 POP PUSH2 0x1351 DUP3 DUP3 PUSH1 0x0 JUMPDEST PUSH1 0x20 MUL ADD MLOAD DUP4 PUSH1 0x1 JUMPDEST PUSH1 0x20 MUL ADD MLOAD PUSH2 0x233A JUMP JUMPDEST SWAP3 POP POP POP SWAP1 JUMP JUMPDEST PUSH2 0x1366 DUP5 TIMESTAMP GT ISZERO PUSH1 0xD1 PUSH2 0x17B4 JUMP JUMPDEST PUSH1 0x1 PUSH1 0x1 PUSH1 0xA0 SHL SUB DUP1 DUP9 AND PUSH1 0x0 DUP2 DUP2 MSTORE PUSH1 0x6 PUSH1 0x20 SWAP1 DUP2 MSTORE PUSH1 0x40 DUP1 DUP4 KECCAK256 SLOAD DUP2 MLOAD PUSH32 0x0 DUP2 DUP6 ADD MSTORE DUP1 DUP4 ADD SWAP6 SWAP1 SWAP6 MSTORE SWAP5 DUP12 AND PUSH1 0x60 DUP6 ADD MSTORE PUSH1 0x80 DUP5 ADD DUP11 SWAP1 MSTORE PUSH1 0xA0 DUP5 ADD DUP6 SWAP1 MSTORE PUSH1 0xC0 DUP1 DUP6 ADD DUP11 SWAP1 MSTORE DUP2 MLOAD DUP1 DUP7 SUB SWAP1 SWAP2 ADD DUP2 MSTORE PUSH1 0xE0 SWAP1 SWAP5 ADD SWAP1 MSTORE DUP3 MLOAD SWAP3 ADD SWAP2 SWAP1 SWAP2 KECCAK256 SWAP1 PUSH2 0x13F2 DUP3 PUSH2 0x236D JUMP JUMPDEST SWAP1 POP PUSH1 0x0 PUSH1 0x1 DUP3 DUP9 DUP9 DUP9 PUSH1 0x40 MLOAD PUSH1 0x0 DUP2 MSTORE PUSH1 0x20 ADD PUSH1 0x40 MSTORE PUSH1 0x40 MLOAD DUP1 DUP6 DUP2 MSTORE PUSH1 0x20 ADD DUP5 PUSH1 0xFF AND DUP2 MSTORE PUSH1 0x20 ADD DUP4 DUP2 MSTORE PUSH1 0x20 ADD DUP3 DUP2 MSTORE PUSH1 0x20 ADD SWAP5 POP POP POP POP POP PUSH1 0x20 PUSH1 0x40 MLOAD PUSH1 0x20 DUP2 SUB SWAP1 DUP1 DUP5 SUB SWAP1 DUP6 GAS STATICCALL ISZERO DUP1 ISZERO PUSH2 0x1450 JUMPI RETURNDATASIZE PUSH1 0x0 DUP1 RETURNDATACOPY RETURNDATASIZE PUSH1 0x0 REVERT JUMPDEST POP POP PUSH1 0x40 MLOAD PUSH1 0x1F NOT ADD MLOAD SWAP2 POP PUSH2 0x1492 SWAP1 POP PUSH1 0x1 PUSH1 0x1 PUSH1 0xA0 SHL SUB DUP3 AND ISZERO DUP1 ISZERO SWAP1 PUSH2 0x148A JUMPI POP DUP12 PUSH1 0x1 PUSH1 0x1 PUSH1 0xA0 SHL SUB AND DUP3 PUSH1 0x1 PUSH1 0x1 PUSH1 0xA0 SHL SUB AND EQ JUMPDEST PUSH2 0x1F8 PUSH2 0x17B4 JUMP JUMPDEST PUSH1 0x1 PUSH1 0x1 PUSH1 0xA0 SHL SUB DUP12 AND PUSH1 0x0 SWAP1 DUP2 MSTORE PUSH1 0x6 PUSH1 0x20 MSTORE PUSH1 0x40 SWAP1 KECCAK256 PUSH1 0x1 DUP6 ADD SWAP1 SSTORE PUSH2 0x14BB DUP12 DUP12 DUP12 PUSH2 0x1643 JUMP JUMPDEST POP POP POP POP POP POP POP POP POP POP POP JUMP JUMPDEST PUSH1 0x60 DUP1 DUP9 PUSH2 0x14D7 PUSH2 0xB79 PUSH2 0xFBD JUMP JUMPDEST PUSH2 0x14E2 PUSH2 0xB9F PUSH2 0x811 JUMP JUMPDEST PUSH2 0x14EA PUSH2 0x1968 JUMP JUMPDEST PUSH1 0x0 PUSH2 0x14F4 PUSH2 0x73D JUMP JUMPDEST PUSH2 0x1564 JUMPI PUSH2 0x1504 DUP12 DUP12 DUP12 DUP9 PUSH2 0x23B9 JUMP JUMPDEST SWAP5 POP SWAP1 POP PUSH2 0x1519 PUSH3 0xF4240 DUP3 LT ISZERO PUSH1 0xCC PUSH2 0x17B4 JUMP JUMPDEST PUSH2 0x1527 PUSH1 0x0 PUSH3 0xF4240 PUSH2 0x248E JUMP JUMPDEST PUSH2 0x1536 DUP10 PUSH3 0xF4240 DUP4 SUB PUSH2 0x248E JUMP JUMPDEST PUSH2 0x153F DUP5 PUSH2 0x2029 JUMP JUMPDEST PUSH1 0x40 DUP1 MLOAD PUSH1 0x2 DUP1 DUP3 MSTORE PUSH1 0x60 DUP3 ADD DUP4 MSTORE SWAP1 SWAP2 PUSH1 0x20 DUP4 ADD SWAP1 DUP1 CALLDATASIZE DUP4 CALLDATACOPY ADD SWAP1 POP POP SWAP3 POP PUSH2 0x159F JUMP JUMPDEST PUSH2 0x156D DUP9 PUSH2 0x1EFE JUMP JUMPDEST PUSH2 0x157C DUP12 DUP12 DUP12 DUP12 DUP12 DUP12 DUP12 PUSH2 0x1F6A JUMP JUMPDEST SWAP1 SWAP6 POP SWAP4 POP SWAP1 POP PUSH2 0x158D DUP10 DUP3 PUSH2 0x248E JUMP JUMPDEST PUSH2 0x1596 DUP5 PUSH2 0x2029 JUMP JUMPDEST PUSH2 0x159F DUP4 PUSH2 0x1C48 JUMP JUMPDEST POP POP SWAP8 POP SWAP8 SWAP6 POP POP POP POP POP POP JUMP JUMPDEST PUSH1 0x0 PUSH2 0x15B7 PUSH2 0xFBD JUMP JUMPDEST PUSH1 0x1 PUSH1 0x1 PUSH1 0xA0 SHL SUB AND DUP3 PUSH1 0x1 PUSH1 0x1 PUSH1 0xA0 SHL SUB AND EQ ISZERO PUSH2 0x15D9 JUMPI POP PUSH1 0x0 NOT PUSH2 0x672 JUMP JUMPDEST PUSH2 0x15E3 DUP4 DUP4 PUSH2 0x2498 JUMP JUMPDEST SWAP1 POP PUSH2 0x672 JUMP JUMPDEST PUSH1 0x60 PUSH2 0x7F3 PUSH2 0x24C3 JUMP JUMPDEST DUP1 PUSH2 0x15FE DUP2 PUSH2 0x2532 JUMP JUMPDEST POP POP JUMP JUMPDEST PUSH1 0x0 PUSH2 0x1610 DUP4 DUP4 PUSH1 0x56 PUSH2 0x162D JUMP JUMPDEST SWAP4 SWAP3 POP POP POP JUMP JUMPDEST PUSH1 0x0 PUSH2 0x1627 DUP4 DUP4 GT ISZERO PUSH1 0x1 PUSH2 0x17B4 JUMP JUMPDEST POP SWAP1 SUB SWAP1 JUMP JUMPDEST PUSH8 0xFFFFFFFFFFFFFFFF DUP2 SHL NOT SWAP3 SWAP1 SWAP3 AND SWAP2 SHL OR SWAP1 JUMP JUMPDEST PUSH1 0x1 PUSH1 0x1 PUSH1 0xA0 SHL SUB DUP1 DUP5 AND PUSH1 0x0 DUP2 DUP2 MSTORE PUSH1 0x1 PUSH1 0x20 SWAP1 DUP2 MSTORE PUSH1 0x40 DUP1 DUP4 KECCAK256 SWAP5 DUP8 AND DUP1 DUP5 MSTORE SWAP5 DUP3 MSTORE SWAP2 DUP3 SWAP1 KECCAK256 DUP6 SWAP1 SSTORE DUP2 MLOAD DUP6 DUP2 MSTORE SWAP2 MLOAD PUSH32 0x8C5BE1E5EBEC7D5BD14F71427D1E84F3DD0314C0F7B2291E5B200AC8C7C3B925 SWAP3 DUP2 SWAP1 SUB SWAP1 SWAP2 ADD SWAP1 LOG3 POP POP POP JUMP JUMPDEST PUSH1 0x0 PUSH2 0x16BC PUSH1 0x0 CALLDATALOAD PUSH1 0x1 PUSH1 0x1 PUSH1 0xE0 SHL SUB NOT AND PUSH2 0xEDA JUMP JUMPDEST SWAP1 POP PUSH2 0x73A PUSH2 0x16CB DUP3 CALLER PUSH2 0x25B0 JUMP JUMPDEST PUSH2 0x191 PUSH2 0x17B4 JUMP JUMPDEST DUP1 ISZERO PUSH2 0x16F3 JUMPI PUSH2 0x16EE PUSH2 0x16E4 PUSH2 0x176C JUMP JUMPDEST TIMESTAMP LT PUSH2 0x193 PUSH2 0x17B4 JUMP JUMPDEST PUSH2 0x1708 JUMP JUMPDEST PUSH2 0x1708 PUSH2 0x16FE PUSH2 0x1790 JUMP JUMPDEST TIMESTAMP LT PUSH2 0x1A9 PUSH2 0x17B4 JUMP JUMPDEST PUSH1 0x7 DUP1 SLOAD DUP3 ISZERO ISZERO PUSH1 0xFF NOT SWAP1 SWAP2 AND DUP2 OR SWAP1 SWAP2 SSTORE PUSH1 0x40 DUP1 MLOAD SWAP2 DUP3 MSTORE MLOAD PUSH32 0x9E3A5E37224532DEA67B89FACE185703738A228A6E8A23DEE546960180D3BE64 SWAP2 DUP2 SWAP1 SUB PUSH1 0x20 ADD SWAP1 LOG1 POP JUMP JUMPDEST PUSH1 0x0 PUSH2 0x1759 PUSH2 0x1790 JUMP JUMPDEST TIMESTAMP GT DUP1 PUSH2 0x7F3 JUMPI POP POP PUSH1 0x7 SLOAD PUSH1 0xFF AND ISZERO SWAP1 JUMP JUMPDEST PUSH32 0x0 SWAP1 JUMP JUMPDEST PUSH32 0x0 SWAP1 JUMP JUMPDEST DUP2 PUSH2 0x15FE JUMPI PUSH2 0x15FE DUP2 PUSH2 0x26B2 JUMP JUMPDEST PUSH2 0x17D9 PUSH1 0x1 PUSH1 0x1 PUSH1 0xA0 SHL SUB DUP5 AND ISZERO ISZERO PUSH2 0x198 PUSH2 0x17B4 JUMP JUMPDEST PUSH2 0x17F0 PUSH1 0x1 PUSH1 0x1 PUSH1 0xA0 SHL SUB DUP4 AND ISZERO ISZERO PUSH2 0x199 PUSH2 0x17B4 JUMP JUMPDEST PUSH2 0x17FB DUP4 DUP4 DUP4 PUSH2 0x25AB JUMP JUMPDEST PUSH1 0x1 PUSH1 0x1 PUSH1 0xA0 SHL SUB DUP4 AND PUSH1 0x0 SWAP1 DUP2 MSTORE PUSH1 0x20 DUP2 SWAP1 MSTORE PUSH1 0x40 SWAP1 KECCAK256 SLOAD PUSH2 0x1821 SWAP1 DUP3 PUSH2 0x1A0 PUSH2 0x2705 JUMP JUMPDEST PUSH1 0x1 PUSH1 0x1 PUSH1 0xA0 SHL SUB DUP1 DUP6 AND PUSH1 0x0 SWAP1 DUP2 MSTORE PUSH1 0x20 DUP2 SWAP1 MSTORE PUSH1 0x40 DUP1 DUP3 KECCAK256 SWAP4 SWAP1 SWAP4 SSTORE SWAP1 DUP5 AND DUP2 MSTORE KECCAK256 SLOAD PUSH2 0x1850 SWAP1 DUP3 PUSH2 0x19E6 JUMP JUMPDEST PUSH1 0x1 PUSH1 0x1 PUSH1 0xA0 SHL SUB DUP1 DUP5 AND PUSH1 0x0 DUP2 DUP2 MSTORE PUSH1 0x20 DUP2 DUP2 MSTORE PUSH1 0x40 SWAP2 DUP3 SWAP1 KECCAK256 SWAP5 SWAP1 SWAP5 SSTORE DUP1 MLOAD DUP6 DUP2 MSTORE SWAP1 MLOAD SWAP2 SWAP4 SWAP3 DUP8 AND SWAP3 PUSH32 0xDDF252AD1BE2C89B69C2B068FC378DAA952BA7F163C4A11628F55A4DF523B3EF SWAP3 SWAP2 DUP3 SWAP1 SUB ADD SWAP1 LOG3 POP POP POP JUMP JUMPDEST PUSH1 0x0 PUSH32 0x0 PUSH32 0x0 PUSH32 0x0 PUSH2 0x1917 PUSH2 0x271B JUMP JUMPDEST ADDRESS PUSH1 0x40 MLOAD PUSH1 0x20 ADD DUP1 DUP7 DUP2 MSTORE PUSH1 0x20 ADD DUP6 DUP2 MSTORE PUSH1 0x20 ADD DUP5 DUP2 MSTORE PUSH1 0x20 ADD DUP4 DUP2 MSTORE PUSH1 0x20 ADD DUP3 PUSH1 0x1 PUSH1 0x1 PUSH1 0xA0 SHL SUB AND DUP2 MSTORE PUSH1 0x20 ADD SWAP6 POP POP POP POP POP POP PUSH1 0x40 MLOAD PUSH1 0x20 DUP2 DUP4 SUB SUB DUP2 MSTORE SWAP1 PUSH1 0x40 MSTORE DUP1 MLOAD SWAP1 PUSH1 0x20 ADD KECCAK256 SWAP1 POP SWAP1 JUMP JUMPDEST PUSH2 0x197B PUSH2 0x1973 PUSH2 0x174F JUMP JUMPDEST PUSH2 0x192 PUSH2 0x17B4 JUMP JUMPDEST JUMP JUMPDEST PUSH2 0x1990 PUSH5 0xE8D4A51000 DUP3 LT ISZERO PUSH1 0xCB PUSH2 0x17B4 JUMP JUMPDEST PUSH2 0x19A6 PUSH8 0x16345785D8A0000 DUP3 GT ISZERO PUSH1 0xCA PUSH2 0x17B4 JUMP JUMPDEST PUSH1 0x8 SLOAD PUSH2 0x19B3 SWAP1 DUP3 PUSH2 0x1602 JUMP JUMPDEST PUSH1 0x8 SSTORE PUSH1 0x40 MLOAD PUSH32 0xA9BA3FFE0B6C366B81232CAAB38605A0699AD5398D6CCE76F91EE809E322DAFC SWAP1 PUSH2 0x71E SWAP1 DUP4 SWAP1 PUSH2 0x420F JUMP JUMPDEST PUSH1 0x0 DUP3 DUP3 ADD PUSH2 0x1610 DUP5 DUP3 LT ISZERO DUP4 PUSH2 0x17B4 JUMP JUMPDEST PUSH1 0x0 DUP2 PUSH2 0x1A25 JUMPI PUSH32 0x0 PUSH2 0x672 JUMP JUMPDEST PUSH32 0x0 SWAP3 SWAP2 POP POP JUMP JUMPDEST PUSH1 0x0 PUSH2 0x1610 DUP4 DUP4 PUSH2 0x271F JUMP JUMPDEST PUSH1 0x40 DUP1 MLOAD PUSH1 0x2 DUP1 DUP3 MSTORE PUSH1 0x60 DUP3 ADD DUP4 MSTORE PUSH1 0x0 SWAP3 DUP4 SWAP3 DUP4 SWAP3 DUP4 SWAP3 PUSH1 0x20 DUP4 ADD SWAP1 DUP1 CALLDATASIZE DUP4 CALLDATACOPY ADD SWAP1 POP POP SWAP1 POP DUP5 PUSH2 0x1A8A JUMPI DUP6 PUSH2 0x1A8C JUMP JUMPDEST DUP7 JUMPDEST DUP2 PUSH1 0x0 DUP2 MLOAD DUP2 LT PUSH2 0x1A99 JUMPI INVALID JUMPDEST PUSH1 0x20 MUL PUSH1 0x20 ADD ADD DUP2 DUP2 MSTORE POP POP DUP5 PUSH2 0x1AB0 JUMPI DUP7 PUSH2 0x1AB2 JUMP JUMPDEST DUP6 JUMPDEST DUP2 PUSH1 0x1 DUP2 MLOAD DUP2 LT PUSH2 0x1ABF JUMPI INVALID JUMPDEST PUSH1 0x20 MUL PUSH1 0x20 ADD ADD DUP2 DUP2 MSTORE POP POP PUSH1 0x0 PUSH2 0x1AD5 PUSH2 0x1ED8 JUMP JUMPDEST SWAP1 POP PUSH2 0x1AE3 DUP3 DUP3 PUSH1 0x0 PUSH2 0x133E JUMP JUMPDEST SWAP5 POP PUSH1 0x0 PUSH2 0x1AF1 DUP3 DUP8 PUSH2 0x2758 JUMP JUMPDEST SWAP1 POP DUP7 PUSH2 0x1B02 JUMPI PUSH1 0x20 DUP2 ADD MLOAD PUSH2 0x1B05 JUMP JUMPDEST DUP1 MLOAD JUMPDEST SWAP5 POP DUP7 PUSH2 0x1B13 JUMPI DUP1 MLOAD PUSH2 0x1B19 JUMP JUMPDEST PUSH1 0x20 DUP2 ADD MLOAD JUMPDEST SWAP4 POP POP POP POP SWAP4 POP SWAP4 POP SWAP4 SWAP1 POP JUMP JUMPDEST PUSH1 0x0 PUSH2 0x672 DUP3 DUP3 PUSH2 0x278C JUMP JUMPDEST PUSH1 0x0 PUSH2 0x672 DUP3 PUSH1 0x16 PUSH2 0x278C JUMP JUMPDEST PUSH1 0x0 PUSH2 0x672 DUP3 PUSH1 0x2C PUSH2 0x27B3 JUMP JUMPDEST PUSH1 0x0 PUSH2 0x672 DUP3 PUSH1 0x4B PUSH2 0x27BD JUMP JUMPDEST PUSH1 0x0 PUSH2 0x672 DUP3 PUSH1 0x55 PUSH2 0x27C5 JUMP JUMPDEST PUSH1 0x0 PUSH2 0x672 DUP3 PUSH1 0x56 PUSH2 0x27CF JUMP JUMPDEST PUSH2 0x15FE DUP2 DUP4 EQ PUSH1 0x67 PUSH2 0x17B4 JUMP JUMPDEST PUSH1 0x0 PUSH1 0x60 DUP1 PUSH1 0x0 PUSH2 0x1B90 PUSH2 0x1ED8 JUMP JUMPDEST SWAP1 POP PUSH2 0x1B9A PUSH2 0x174F JUMP JUMPDEST ISZERO PUSH2 0x1BFC JUMPI PUSH1 0x0 PUSH2 0x1BB5 DUP10 DUP4 DUP4 JUMPDEST PUSH1 0x20 MUL ADD MLOAD DUP5 PUSH1 0x1 PUSH2 0x1347 JUMP JUMPDEST SWAP1 POP PUSH1 0x0 PUSH2 0x1BC3 DUP4 DUP4 PUSH2 0x2758 JUMP JUMPDEST SWAP1 POP PUSH2 0x1BCE DUP3 PUSH2 0x27DD JUMP JUMPDEST PUSH2 0x1BD8 DUP11 DUP9 PUSH2 0x280A JUMP JUMPDEST SWAP1 SWAP7 POP SWAP5 POP PUSH2 0x1BF1 DUP3 DUP8 PUSH2 0x1BEA PUSH2 0x73D JUMP JUMPDEST PUSH1 0x0 PUSH2 0x2856 JUMP JUMPDEST PUSH1 0x9 SSTORE POP PUSH2 0x1C12 SWAP1 POP JUMP JUMPDEST PUSH2 0x1C06 DUP9 DUP7 PUSH2 0x280A JUMP JUMPDEST PUSH1 0x0 NOT PUSH1 0x9 SSTORE SWAP1 SWAP5 POP SWAP3 POP JUMPDEST PUSH1 0x40 DUP1 MLOAD PUSH1 0x2 DUP1 DUP3 MSTORE PUSH1 0x60 DUP3 ADD DUP4 MSTORE DUP7 SWAP3 DUP7 SWAP3 SWAP2 SWAP1 PUSH1 0x20 DUP4 ADD SWAP1 DUP1 CALLDATASIZE DUP4 CALLDATACOPY ADD SWAP1 POP POP SWAP4 POP SWAP4 POP SWAP4 POP POP SWAP8 POP SWAP8 POP SWAP8 SWAP5 POP POP POP POP POP JUMP JUMPDEST PUSH2 0x1C6F DUP2 PUSH1 0x0 DUP2 MLOAD DUP2 LT PUSH2 0x1C58 JUMPI INVALID JUMPDEST PUSH1 0x20 MUL PUSH1 0x20 ADD ADD MLOAD PUSH2 0x1C6A PUSH1 0x1 PUSH2 0x19F8 JUMP JUMPDEST PUSH2 0x1E5A JUMP JUMPDEST DUP2 PUSH1 0x0 DUP2 MLOAD DUP2 LT PUSH2 0x1C7C JUMPI INVALID JUMPDEST PUSH1 0x20 MUL PUSH1 0x20 ADD ADD DUP2 DUP2 MSTORE POP POP PUSH2 0x1CAA DUP2 PUSH1 0x1 DUP2 MLOAD DUP2 LT PUSH2 0x1C98 JUMPI INVALID JUMPDEST PUSH1 0x20 MUL PUSH1 0x20 ADD ADD MLOAD PUSH2 0x1C6A PUSH1 0x0 PUSH2 0x19F8 JUMP JUMPDEST DUP2 PUSH1 0x1 DUP2 MLOAD DUP2 LT PUSH2 0x1CB7 JUMPI INVALID JUMPDEST PUSH1 0x20 MUL PUSH1 0x20 ADD ADD DUP2 DUP2 MSTORE POP POP POP JUMP JUMPDEST CALLER ADDRESS EQ PUSH2 0x1D84 JUMPI PUSH1 0x0 ADDRESS PUSH1 0x1 PUSH1 0x1 PUSH1 0xA0 SHL SUB AND PUSH1 0x0 CALLDATASIZE PUSH1 0x40 MLOAD PUSH2 0x1CEA SWAP3 SWAP2 SWAP1 PUSH2 0x415F JUMP JUMPDEST PUSH1 0x0 PUSH1 0x40 MLOAD DUP1 DUP4 SUB DUP2 PUSH1 0x0 DUP7 GAS CALL SWAP2 POP POP RETURNDATASIZE DUP1 PUSH1 0x0 DUP2 EQ PUSH2 0x1D27 JUMPI PUSH1 0x40 MLOAD SWAP2 POP PUSH1 0x1F NOT PUSH1 0x3F RETURNDATASIZE ADD AND DUP3 ADD PUSH1 0x40 MSTORE RETURNDATASIZE DUP3 MSTORE RETURNDATASIZE PUSH1 0x0 PUSH1 0x20 DUP5 ADD RETURNDATACOPY PUSH2 0x1D2C JUMP JUMPDEST PUSH1 0x60 SWAP2 POP JUMPDEST POP POP SWAP1 POP DUP1 PUSH1 0x0 DUP2 EQ PUSH2 0x1D3B JUMPI INVALID JUMPDEST PUSH1 0x4 PUSH1 0x0 DUP1 RETURNDATACOPY PUSH1 0x0 MLOAD PUSH1 0x1 PUSH1 0x1 PUSH1 0xE0 SHL SUB NOT AND PUSH4 0x43ADBAFB PUSH1 0xE0 SHL DUP2 EQ PUSH2 0x1D66 JUMPI RETURNDATASIZE PUSH1 0x0 DUP1 RETURNDATACOPY RETURNDATASIZE PUSH1 0x0 REVERT JUMPDEST POP PUSH1 0x20 PUSH1 0x4 PUSH1 0x0 RETURNDATACOPY PUSH1 0x40 PUSH1 0x20 MSTORE PUSH1 0x24 RETURNDATASIZE SUB PUSH1 0x24 PUSH1 0x40 RETURNDATACOPY PUSH1 0x1C RETURNDATASIZE ADD PUSH1 0x0 RETURN JUMPDEST PUSH2 0x1D8D DUP7 PUSH2 0x1EFE JUMP JUMPDEST PUSH1 0x0 DUP1 PUSH2 0x1DA3 DUP12 DUP12 DUP12 DUP12 DUP12 DUP12 DUP12 DUP12 PUSH4 0xFFFFFFFF AND JUMP JUMPDEST POP SWAP2 POP SWAP2 POP PUSH2 0x1DB5 DUP2 DUP5 PUSH4 0xFFFFFFFF AND JUMP JUMPDEST DUP1 MLOAD PUSH1 0x1F NOT DUP3 ADD DUP4 SWAP1 MSTORE PUSH4 0x43ADBAFB PUSH1 0x3F NOT DUP4 ADD MSTORE PUSH1 0x20 MUL PUSH1 0x23 NOT DUP3 ADD PUSH1 0x44 DUP3 ADD DUP2 REVERT JUMPDEST PUSH1 0x0 DUP1 PUSH1 0x0 DUP1 PUSH1 0x0 DUP1 PUSH1 0x0 DUP1 PUSH2 0x1DED PUSH2 0x28AE JUMP JUMPDEST SWAP4 POP SWAP4 POP SWAP4 POP SWAP4 POP DUP4 PUSH1 0x0 EQ ISZERO PUSH2 0x1E12 JUMPI PUSH1 0x0 SWAP8 POP DUP8 SWAP7 POP SWAP1 SWAP5 POP SWAP3 POP PUSH2 0x1E39 SWAP2 POP POP JUMP JUMPDEST PUSH1 0x0 DUP1 PUSH2 0x1E29 DUP13 DUP13 PUSH2 0x1E22 PUSH2 0x73D JUMP JUMPDEST DUP10 DUP10 PUSH2 0x2A20 JUMP JUMPDEST SWAP1 SWAP11 POP SWAP9 POP SWAP3 SWAP7 POP SWAP1 SWAP5 POP POP POP POP POP JUMPDEST SWAP3 SWAP6 SWAP2 SWAP5 POP SWAP3 POP JUMP JUMPDEST PUSH1 0x0 DUP3 DUP3 ADD DUP4 DUP2 LT ISZERO PUSH2 0x1610 JUMPI PUSH2 0x1610 PUSH1 0x0 DUP1 PUSH2 0x17B4 JUMP JUMPDEST PUSH1 0x0 DUP2 PUSH2 0x1E6D JUMPI PUSH2 0x1E6D PUSH1 0x0 PUSH1 0x4 PUSH2 0x17B4 JUMP JUMPDEST DUP3 PUSH2 0x1E7A JUMPI POP PUSH1 0x0 PUSH2 0x672 JUMP JUMPDEST PUSH8 0xDE0B6B3A7640000 DUP4 DUP2 MUL SWAP1 DUP5 DUP3 DUP2 PUSH2 0x1E90 JUMPI INVALID JUMPDEST DIV EQ PUSH2 0x1EA2 JUMPI PUSH2 0x1EA2 PUSH1 0x0 PUSH1 0x5 PUSH2 0x17B4 JUMP JUMPDEST DUP3 DUP2 DUP2 PUSH2 0x1EAB JUMPI INVALID JUMPDEST DIV SWAP5 SWAP4 POP POP POP POP JUMP JUMPDEST PUSH1 0x0 DUP3 DUP3 MUL PUSH2 0x1610 DUP5 ISZERO DUP1 PUSH2 0x1ED1 JUMPI POP DUP4 DUP6 DUP4 DUP2 PUSH2 0x1ECE JUMPI INVALID JUMPDEST DIV EQ JUMPDEST PUSH1 0x3 PUSH2 0x17B4 JUMP JUMPDEST PUSH2 0x1EE0 PUSH2 0x3BDC JUMP JUMPDEST PUSH2 0x1EEA PUSH1 0x1 PUSH2 0x2ABB JUMP JUMPDEST DUP2 MSTORE PUSH2 0x1EF6 PUSH1 0x0 PUSH2 0x2ABB JUMP JUMPDEST PUSH1 0x20 DUP3 ADD MSTORE SWAP1 JUMP JUMPDEST PUSH2 0x1F25 DUP2 PUSH1 0x0 DUP2 MLOAD DUP2 LT PUSH2 0x1F0E JUMPI INVALID JUMPDEST PUSH1 0x20 MUL PUSH1 0x20 ADD ADD MLOAD PUSH2 0x1F20 PUSH1 0x1 PUSH2 0x19F8 JUMP JUMPDEST PUSH2 0x271F JUMP JUMPDEST DUP2 PUSH1 0x0 DUP2 MLOAD DUP2 LT PUSH2 0x1F32 JUMPI INVALID JUMPDEST PUSH1 0x20 MUL PUSH1 0x20 ADD ADD DUP2 DUP2 MSTORE POP POP PUSH2 0x1CAA DUP2 PUSH1 0x1 DUP2 MLOAD DUP2 LT PUSH2 0x1F4E JUMPI INVALID JUMPDEST PUSH1 0x20 MUL PUSH1 0x20 ADD ADD MLOAD PUSH2 0x1F20 PUSH1 0x0 PUSH2 0x19F8 JUMP JUMPDEST PUSH2 0x15FE DUP3 DUP3 PUSH2 0x2B0F JUMP JUMPDEST PUSH1 0x0 PUSH1 0x60 DUP1 PUSH1 0x0 PUSH2 0x1F79 PUSH2 0x1ED8 JUMP JUMPDEST SWAP1 POP PUSH1 0x0 PUSH2 0x1F88 DUP10 DUP4 DUP4 PUSH2 0x1BA8 JUMP JUMPDEST SWAP1 POP PUSH1 0x0 PUSH2 0x1F96 DUP4 DUP4 PUSH2 0x2758 JUMP JUMPDEST SWAP1 POP PUSH2 0x1FA1 DUP3 PUSH2 0x27DD JUMP JUMPDEST PUSH1 0x0 DUP1 PUSH2 0x1FAE DUP13 DUP11 PUSH2 0x2BC6 JUMP JUMPDEST PUSH1 0xA SLOAD SWAP2 SWAP4 POP SWAP2 POP PUSH1 0xFF AND ISZERO PUSH2 0x1FD8 JUMPI PUSH2 0x1FD8 DUP3 PUSH2 0x1FCB DUP16 PUSH2 0xB4B JUMP JUMPDEST PUSH2 0x1FD3 PUSH2 0x73D JUMP JUMPDEST PUSH2 0x2C00 JUMP JUMPDEST PUSH2 0x1FEC DUP5 DUP4 PUSH2 0x1FE5 PUSH2 0x73D JUMP JUMPDEST PUSH1 0x1 PUSH2 0x2856 JUMP JUMPDEST PUSH1 0x9 SSTORE PUSH1 0x40 DUP1 MLOAD PUSH1 0x2 DUP1 DUP3 MSTORE PUSH1 0x60 DUP3 ADD DUP4 MSTORE DUP5 SWAP3 DUP5 SWAP3 SWAP2 SWAP1 PUSH1 0x20 DUP4 ADD SWAP1 DUP1 CALLDATASIZE DUP4 CALLDATACOPY ADD SWAP1 POP POP SWAP8 POP SWAP8 POP SWAP8 POP POP POP POP POP POP SWAP8 POP SWAP8 POP SWAP8 SWAP5 POP POP POP POP POP JUMP JUMPDEST PUSH2 0x2050 DUP2 PUSH1 0x0 DUP2 MLOAD DUP2 LT PUSH2 0x2039 JUMPI INVALID JUMPDEST PUSH1 0x20 MUL PUSH1 0x20 ADD ADD MLOAD PUSH2 0x204B PUSH1 0x1 PUSH2 0x19F8 JUMP JUMPDEST PUSH2 0x225A JUMP JUMPDEST DUP2 PUSH1 0x0 DUP2 MLOAD DUP2 LT PUSH2 0x205D JUMPI INVALID JUMPDEST PUSH1 0x20 MUL PUSH1 0x20 ADD ADD DUP2 DUP2 MSTORE POP POP PUSH2 0x1CAA DUP2 PUSH1 0x1 DUP2 MLOAD DUP2 LT PUSH2 0x2079 JUMPI INVALID JUMPDEST PUSH1 0x20 MUL PUSH1 0x20 ADD ADD MLOAD PUSH2 0x204B PUSH1 0x0 PUSH2 0x19F8 JUMP JUMPDEST PUSH1 0x40 DUP1 MLOAD PUSH1 0x2 DUP1 DUP3 MSTORE PUSH1 0x60 DUP1 DUP4 ADD DUP5 MSTORE SWAP3 PUSH1 0x20 DUP4 ADD SWAP1 DUP1 CALLDATASIZE DUP4 CALLDATACOPY ADD SWAP1 POP POP SWAP1 POP PUSH2 0x20DE PUSH32 0x0 PUSH2 0x20D9 PUSH1 0x1 PUSH2 0x19F8 JUMP JUMPDEST PUSH2 0x2D12 JUMP JUMPDEST DUP2 PUSH1 0x0 DUP2 MLOAD DUP2 LT PUSH2 0x20EB JUMPI INVALID JUMPDEST PUSH1 0x20 MUL PUSH1 0x20 ADD ADD DUP2 DUP2 MSTORE POP POP PUSH2 0x2125 PUSH32 0x0 PUSH2 0x20D9 PUSH1 0x0 PUSH2 0x19F8 JUMP JUMPDEST DUP2 PUSH1 0x1 DUP2 MLOAD DUP2 LT PUSH2 0x2132 JUMPI INVALID JUMPDEST PUSH1 0x20 MUL PUSH1 0x20 ADD ADD DUP2 DUP2 MSTORE POP POP SWAP1 JUMP JUMPDEST PUSH1 0x0 PUSH2 0x2177 DUP5 PUSH1 0x0 DUP2 MLOAD DUP2 LT PUSH2 0x2153 JUMPI INVALID JUMPDEST PUSH1 0x20 MUL PUSH1 0x20 ADD ADD MLOAD DUP5 DUP7 PUSH1 0x1 DUP2 MLOAD DUP2 LT PUSH2 0x2169 JUMPI INVALID JUMPDEST PUSH1 0x20 MUL PUSH1 0x20 ADD ADD MLOAD DUP6 PUSH2 0x2DB9 JUMP JUMPDEST SWAP5 SWAP4 POP POP POP POP JUMP JUMPDEST PUSH1 0x0 DUP3 DUP3 MUL DUP4 ISZERO DUP1 PUSH2 0x2199 JUMPI POP DUP3 DUP5 DUP3 DUP2 PUSH2 0x2196 JUMPI INVALID JUMPDEST DIV EQ JUMPDEST PUSH2 0x21A9 JUMPI PUSH2 0x21A9 PUSH1 0x0 PUSH1 0x3 PUSH2 0x17B4 JUMP JUMPDEST DUP1 PUSH2 0x21B8 JUMPI PUSH1 0x0 SWAP2 POP POP PUSH2 0x672 JUMP JUMPDEST PUSH8 0xDE0B6B3A7640000 PUSH1 0x0 NOT DUP3 ADD JUMPDEST DIV PUSH1 0x1 ADD SWAP2 POP POP SWAP3 SWAP2 POP POP JUMP JUMPDEST PUSH1 0x0 DUP3 DUP3 GT ISZERO PUSH2 0x1627 JUMPI PUSH2 0x1627 PUSH1 0x0 PUSH1 0x1 PUSH2 0x17B4 JUMP JUMPDEST PUSH1 0x0 PUSH2 0x21FD DUP6 DUP6 DUP9 PUSH1 0x60 ADD MLOAD DUP7 DUP7 PUSH2 0x2DD2 JUMP JUMPDEST SWAP1 POP JUMPDEST SWAP6 SWAP5 POP POP POP POP POP JUMP JUMPDEST PUSH1 0x0 PUSH2 0x1610 DUP4 DUP4 PUSH2 0x1E5A JUMP JUMPDEST PUSH1 0x0 PUSH2 0x21FD DUP6 DUP6 DUP9 PUSH1 0x60 ADD MLOAD DUP7 DUP7 PUSH2 0x2E3C JUMP JUMPDEST PUSH1 0x0 PUSH2 0x1610 DUP4 DUP4 PUSH2 0x225A JUMP JUMPDEST PUSH1 0x0 PUSH8 0xDE0B6B3A7640000 DUP3 LT PUSH2 0x224C JUMPI PUSH1 0x0 PUSH2 0x672 JUMP JUMPDEST POP PUSH8 0xDE0B6B3A7640000 SUB SWAP1 JUMP JUMPDEST PUSH1 0x0 DUP2 PUSH2 0x226D JUMPI PUSH2 0x226D PUSH1 0x0 PUSH1 0x4 PUSH2 0x17B4 JUMP JUMPDEST DUP3 PUSH2 0x227A JUMPI POP PUSH1 0x0 PUSH2 0x672 JUMP JUMPDEST PUSH8 0xDE0B6B3A7640000 DUP4 DUP2 MUL SWAP1 DUP5 DUP3 DUP2 PUSH2 0x2290 JUMPI INVALID JUMPDEST DIV EQ PUSH2 0x22B4 JUMPI PUSH2 0x22B4 PUSH8 0xDE0B6B3A7640000 DUP6 DUP4 DUP2 PUSH2 0x22AB JUMPI INVALID JUMPDEST DIV EQ PUSH1 0x5 PUSH2 0x17B4 JUMP JUMPDEST DUP3 PUSH1 0x1 DUP3 SUB DUP2 PUSH2 0x21C7 JUMPI INVALID JUMPDEST PUSH1 0x0 PUSH2 0x22CA PUSH2 0xFBD JUMP JUMPDEST PUSH1 0x1 PUSH1 0x1 PUSH1 0xA0 SHL SUB AND PUSH4 0xAAABADC5 PUSH1 0x40 MLOAD DUP2 PUSH4 0xFFFFFFFF AND PUSH1 0xE0 SHL DUP2 MSTORE PUSH1 0x4 ADD PUSH1 0x20 PUSH1 0x40 MLOAD DUP1 DUP4 SUB DUP2 DUP7 DUP1 EXTCODESIZE ISZERO DUP1 ISZERO PUSH2 0x2302 JUMPI PUSH1 0x0 DUP1 REVERT JUMPDEST POP GAS STATICCALL ISZERO DUP1 ISZERO PUSH2 0x2316 JUMPI RETURNDATASIZE PUSH1 0x0 DUP1 RETURNDATACOPY RETURNDATASIZE PUSH1 0x0 REVERT JUMPDEST POP POP POP POP PUSH1 0x40 MLOAD RETURNDATASIZE PUSH1 0x1F NOT PUSH1 0x1F DUP3 ADD AND DUP3 ADD DUP1 PUSH1 0x40 MSTORE POP DUP2 ADD SWAP1 PUSH2 0x7F3 SWAP2 SWAP1 PUSH2 0x3CA5 JUMP JUMPDEST PUSH1 0x0 DUP1 PUSH1 0x0 DUP1 PUSH1 0x0 PUSH2 0x234D DUP9 DUP9 DUP9 PUSH2 0x2E9C JUMP JUMPDEST SWAP4 POP SWAP4 POP SWAP4 POP SWAP4 POP PUSH2 0x2361 DUP5 DUP5 DUP5 DUP5 PUSH2 0x2FF4 JUMP JUMPDEST SWAP9 SWAP8 POP POP POP POP POP POP POP POP JUMP JUMPDEST PUSH1 0x0 PUSH2 0x2377 PUSH2 0x18AA JUMP JUMPDEST DUP3 PUSH1 0x40 MLOAD PUSH1 0x20 ADD DUP1 DUP1 PUSH2 0x1901 PUSH1 0xF0 SHL DUP2 MSTORE POP PUSH1 0x2 ADD DUP4 DUP2 MSTORE PUSH1 0x20 ADD DUP3 DUP2 MSTORE PUSH1 0x20 ADD SWAP3 POP POP POP PUSH1 0x40 MLOAD PUSH1 0x20 DUP2 DUP4 SUB SUB DUP2 MSTORE SWAP1 PUSH1 0x40 MSTORE DUP1 MLOAD SWAP1 PUSH1 0x20 ADD KECCAK256 SWAP1 POP SWAP2 SWAP1 POP JUMP JUMPDEST PUSH1 0x0 PUSH1 0x60 PUSH1 0x0 PUSH2 0x23C8 DUP5 PUSH2 0x3068 JUMP JUMPDEST SWAP1 POP PUSH2 0x23E3 PUSH1 0x0 DUP3 PUSH1 0x3 DUP2 GT ISZERO PUSH2 0x23DB JUMPI INVALID JUMPDEST EQ PUSH1 0xCE PUSH2 0x17B4 JUMP JUMPDEST PUSH1 0x0 PUSH2 0x23EE DUP6 PUSH2 0x3087 JUMP JUMPDEST SWAP1 POP PUSH2 0x23FC DUP2 MLOAD PUSH1 0x2 PUSH2 0x1B74 JUMP JUMPDEST PUSH2 0x2405 DUP2 PUSH2 0x1EFE JUMP JUMPDEST PUSH1 0x0 DUP1 PUSH1 0x0 PUSH2 0x241A DUP5 PUSH1 0x0 DUP2 MLOAD DUP2 LT PUSH2 0x10FE JUMPI INVALID JUMPDEST SWAP3 POP SWAP3 POP SWAP3 POP PUSH1 0x0 PUSH2 0x242D DUP6 DUP5 DUP5 PUSH2 0x2141 JUMP JUMPDEST SWAP1 POP PUSH1 0x0 PUSH2 0x2475 PUSH2 0x245B DUP4 DUP9 PUSH1 0x0 DUP2 MLOAD DUP2 LT PUSH2 0x2445 JUMPI INVALID JUMPDEST PUSH1 0x20 MUL PUSH1 0x20 ADD ADD MLOAD PUSH2 0x271F SWAP1 SWAP2 SWAP1 PUSH4 0xFFFFFFFF AND JUMP JUMPDEST DUP8 PUSH1 0x1 DUP2 MLOAD DUP2 LT PUSH2 0x2468 JUMPI INVALID JUMPDEST PUSH1 0x20 MUL PUSH1 0x20 ADD ADD MLOAD PUSH2 0x19E6 JUMP JUMPDEST PUSH1 0x9 SWAP6 SWAP1 SWAP6 SSTORE POP SWAP3 SWAP12 SWAP4 SWAP11 POP SWAP3 SWAP9 POP POP POP POP POP POP POP POP POP JUMP JUMPDEST PUSH2 0x15FE DUP3 DUP3 PUSH2 0x313B JUMP JUMPDEST PUSH1 0x1 PUSH1 0x1 PUSH1 0xA0 SHL SUB SWAP2 DUP3 AND PUSH1 0x0 SWAP1 DUP2 MSTORE PUSH1 0x1 PUSH1 0x20 SWAP1 DUP2 MSTORE PUSH1 0x40 DUP1 DUP4 KECCAK256 SWAP4 SWAP1 SWAP5 AND DUP3 MSTORE SWAP2 SWAP1 SWAP2 MSTORE KECCAK256 SLOAD SWAP1 JUMP JUMPDEST PUSH1 0x40 DUP1 MLOAD PUSH1 0x2 DUP1 DUP3 MSTORE PUSH1 0x60 DUP1 DUP4 ADD DUP5 MSTORE SWAP3 PUSH1 0x0 SWAP3 SWAP2 SWAP1 PUSH1 0x20 DUP4 ADD SWAP1 DUP1 CALLDATASIZE DUP4 CALLDATACOPY ADD SWAP1 POP POP SWAP1 POP PUSH2 0x24F2 PUSH1 0x1 PUSH2 0x31D0 JUMP JUMPDEST DUP2 PUSH1 0x0 DUP2 MLOAD DUP2 LT PUSH2 0x24FF JUMPI INVALID JUMPDEST PUSH1 0x20 MUL PUSH1 0x20 ADD ADD DUP2 DUP2 MSTORE POP POP PUSH2 0x2515 PUSH1 0x0 PUSH2 0x31D0 JUMP JUMPDEST DUP2 PUSH1 0x1 DUP2 MLOAD DUP2 LT PUSH2 0x2522 JUMPI INVALID JUMPDEST PUSH1 0x20 SWAP1 DUP2 MUL SWAP2 SWAP1 SWAP2 ADD ADD MSTORE SWAP1 POP SWAP1 JUMP JUMPDEST PUSH1 0x2 DUP2 MLOAD LT ISZERO PUSH2 0x2541 JUMPI PUSH2 0x73A JUMP JUMPDEST PUSH1 0x0 DUP2 PUSH1 0x0 DUP2 MLOAD DUP2 LT PUSH2 0x2550 JUMPI INVALID JUMPDEST PUSH1 0x20 MUL PUSH1 0x20 ADD ADD MLOAD SWAP1 POP PUSH1 0x0 PUSH1 0x1 SWAP1 POP JUMPDEST DUP3 MLOAD DUP2 LT ISZERO PUSH2 0x25AB JUMPI PUSH1 0x0 DUP4 DUP3 DUP2 MLOAD DUP2 LT PUSH2 0x2578 JUMPI INVALID JUMPDEST PUSH1 0x20 MUL PUSH1 0x20 ADD ADD MLOAD SWAP1 POP PUSH2 0x25A1 DUP2 PUSH1 0x1 PUSH1 0x1 PUSH1 0xA0 SHL SUB AND DUP5 PUSH1 0x1 PUSH1 0x1 PUSH1 0xA0 SHL SUB AND LT PUSH1 0x65 PUSH2 0x17B4 JUMP JUMPDEST SWAP2 POP PUSH1 0x1 ADD PUSH2 0x2561 JUMP JUMPDEST POP POP POP JUMP JUMPDEST PUSH1 0x0 PUSH20 0xBA1BA1BA1BA1BA1BA1BA1BA1BA1BA1BA1BA1BA1B PUSH2 0x25CF PUSH2 0xF99 JUMP JUMPDEST PUSH1 0x1 PUSH1 0x1 PUSH1 0xA0 SHL SUB AND EQ ISZERO DUP1 ISZERO PUSH2 0x25EA JUMPI POP PUSH2 0x25EA DUP4 PUSH2 0x3224 JUMP JUMPDEST ISZERO PUSH2 0x2612 JUMPI PUSH2 0x25F7 PUSH2 0xF99 JUMP JUMPDEST PUSH1 0x1 PUSH1 0x1 PUSH1 0xA0 SHL SUB AND CALLER PUSH1 0x1 PUSH1 0x1 PUSH1 0xA0 SHL SUB AND EQ SWAP1 POP PUSH2 0x672 JUMP JUMPDEST PUSH2 0x261A PUSH2 0x22C0 JUMP JUMPDEST PUSH1 0x1 PUSH1 0x1 PUSH1 0xA0 SHL SUB AND PUSH4 0x9BE2A884 DUP5 DUP5 ADDRESS PUSH1 0x40 MLOAD DUP5 PUSH4 0xFFFFFFFF AND PUSH1 0xE0 SHL DUP2 MSTORE PUSH1 0x4 ADD DUP1 DUP5 DUP2 MSTORE PUSH1 0x20 ADD DUP4 PUSH1 0x1 PUSH1 0x1 PUSH1 0xA0 SHL SUB AND DUP2 MSTORE PUSH1 0x20 ADD DUP3 PUSH1 0x1 PUSH1 0x1 PUSH1 0xA0 SHL SUB AND DUP2 MSTORE PUSH1 0x20 ADD SWAP4 POP POP POP POP PUSH1 0x20 PUSH1 0x40 MLOAD DUP1 DUP4 SUB DUP2 DUP7 DUP1 EXTCODESIZE ISZERO DUP1 ISZERO PUSH2 0x267F JUMPI PUSH1 0x0 DUP1 REVERT JUMPDEST POP GAS STATICCALL ISZERO DUP1 ISZERO PUSH2 0x2693 JUMPI RETURNDATASIZE PUSH1 0x0 DUP1 RETURNDATACOPY RETURNDATASIZE PUSH1 0x0 REVERT JUMPDEST POP POP POP POP PUSH1 0x40 MLOAD RETURNDATASIZE PUSH1 0x20 DUP2 LT ISZERO PUSH2 0x26A9 JUMPI PUSH1 0x0 DUP1 REVERT JUMPDEST POP MLOAD SWAP1 POP PUSH2 0x672 JUMP JUMPDEST PUSH3 0x461BCD PUSH1 0xE5 SHL PUSH1 0x0 SWAP1 DUP2 MSTORE PUSH1 0x20 PUSH1 0x4 MSTORE PUSH1 0x7 PUSH1 0x24 MSTORE PUSH7 0x42414C23000030 PUSH1 0xA DUP1 DUP5 DIV DUP2 DUP2 MOD PUSH1 0x30 SWAP1 DUP2 ADD PUSH1 0x8 SHL SWAP6 DUP4 SWAP1 MOD SWAP6 SWAP1 SWAP6 ADD SWAP1 DUP3 SWAP1 DIV SWAP2 DUP3 MOD SWAP1 SWAP5 ADD PUSH1 0x10 SHL SWAP4 SWAP1 SWAP4 ADD ADD PUSH1 0xC8 SHL PUSH1 0x44 MSTORE PUSH1 0x64 SWAP1 REVERT JUMPDEST PUSH1 0x0 PUSH2 0x2714 DUP5 DUP5 GT ISZERO DUP4 PUSH2 0x17B4 JUMP JUMPDEST POP POP SWAP1 SUB SWAP1 JUMP JUMPDEST CHAINID SWAP1 JUMP JUMPDEST PUSH1 0x0 DUP3 DUP3 MUL DUP4 ISZERO DUP1 PUSH2 0x2739 JUMPI POP DUP3 DUP5 DUP3 DUP2 PUSH2 0x2736 JUMPI INVALID JUMPDEST DIV EQ JUMPDEST PUSH2 0x2749 JUMPI PUSH2 0x2749 PUSH1 0x0 PUSH1 0x3 PUSH2 0x17B4 JUMP JUMPDEST PUSH8 0xDE0B6B3A7640000 DUP2 PUSH2 0x1EAB JUMP JUMPDEST PUSH2 0x2760 PUSH2 0x3BDC JUMP JUMPDEST PUSH2 0x2773 PUSH1 0x1 DUP5 DUP2 JUMPDEST PUSH1 0x20 MUL ADD MLOAD DUP5 PUSH2 0x3256 JUMP JUMPDEST DUP2 MSTORE PUSH2 0x2781 PUSH1 0x0 DUP5 DUP2 PUSH2 0x2768 JUMP JUMPDEST PUSH1 0x20 DUP3 ADD MSTORE SWAP3 SWAP2 POP POP JUMP JUMPDEST PUSH1 0x0 DUP3 DUP3 SHR PUSH3 0x3FFFFF AND PUSH3 0x1FFFFF DUP2 SGT PUSH2 0x27A6 JUMPI DUP1 PUSH2 0x2177 JUMP JUMPDEST PUSH3 0x3FFFFF NOT OR SWAP4 SWAP3 POP POP POP JUMP JUMPDEST SHR PUSH4 0x7FFFFFFF AND SWAP1 JUMP JUMPDEST SHR PUSH2 0x3FF AND SWAP1 JUMP JUMPDEST SHR PUSH1 0x1 SWAP1 DUP2 AND EQ SWAP1 JUMP JUMPDEST SHR PUSH8 0xFFFFFFFFFFFFFFFF AND SWAP1 JUMP JUMPDEST PUSH1 0x0 DUP1 PUSH1 0x0 DUP1 PUSH2 0x27EF PUSH1 0x9 SLOAD DUP7 PUSH2 0x1DD9 JUMP JUMPDEST SWAP4 POP SWAP4 POP SWAP4 POP SWAP4 POP PUSH2 0x2803 DUP5 DUP5 DUP5 DUP5 PUSH2 0x3276 JUMP JUMPDEST POP POP POP POP POP JUMP JUMPDEST PUSH1 0x0 PUSH1 0x60 PUSH1 0x0 PUSH2 0x2819 DUP5 PUSH2 0x3068 JUMP JUMPDEST SWAP1 POP PUSH1 0x1 DUP2 PUSH1 0x3 DUP2 GT ISZERO PUSH2 0x2829 JUMPI INVALID JUMPDEST EQ ISZERO PUSH2 0x2843 JUMPI PUSH2 0x2839 DUP6 DUP6 PUSH2 0x329C JUMP JUMPDEST SWAP1 SWAP4 POP SWAP2 POP PUSH2 0x284E JUMP JUMPDEST PUSH2 0x284E PUSH2 0x150 PUSH2 0x26B2 JUMP JUMPDEST POP SWAP3 POP SWAP3 SWAP1 POP JUMP JUMPDEST PUSH1 0x0 DUP2 ISZERO PUSH2 0x2888 JUMPI PUSH1 0x0 PUSH2 0x2874 DUP5 PUSH2 0x286E DUP9 DUP9 PUSH2 0x217F JUMP JUMPDEST SWAP1 PUSH2 0x225A JUMP JUMPDEST SWAP1 POP PUSH2 0x2880 DUP7 DUP3 PUSH2 0x1E42 JUMP JUMPDEST SWAP2 POP POP PUSH2 0x2177 JUMP JUMPDEST PUSH1 0x0 PUSH2 0x2898 DUP5 PUSH2 0xB26 DUP9 DUP9 PUSH2 0x271F JUMP JUMPDEST SWAP1 POP PUSH2 0x28A4 DUP7 DUP3 PUSH2 0x21D4 JUMP JUMPDEST SWAP7 SWAP6 POP POP POP POP POP POP JUMP JUMPDEST PUSH1 0xD SLOAD PUSH1 0x0 SWAP1 DUP2 SWAP1 DUP2 SWAP1 DUP2 SWAP1 PUSH2 0x28D5 SWAP1 PUSH1 0x1 PUSH1 0x1 PUSH1 0xA0 SHL SUB AND ADDRESS PUSH4 0x32434C5 PUSH1 0xE4 SHL PUSH2 0x32CE JUMP JUMPDEST PUSH1 0xD SLOAD PUSH2 0x28F3 SWAP1 PUSH1 0x1 PUSH1 0x1 PUSH1 0xA0 SHL SUB AND ADDRESS PUSH4 0x32434C5 PUSH1 0xE4 SHL PUSH2 0x32F5 JUMP JUMPDEST PUSH1 0xD SLOAD PUSH1 0x40 MLOAD PUSH4 0x21F8A721 PUSH1 0xE0 SHL DUP2 MSTORE PUSH1 0x1 PUSH1 0x1 PUSH1 0xA0 SHL SUB SWAP1 SWAP2 AND SWAP1 PUSH4 0x21F8A721 SWAP1 PUSH2 0x2933 SWAP1 PUSH13 0x4759524F5F5452454153555259 PUSH1 0x98 SHL SWAP1 PUSH1 0x4 ADD PUSH2 0x420F JUMP JUMPDEST PUSH1 0x20 PUSH1 0x40 MLOAD DUP1 DUP4 SUB DUP2 DUP7 DUP1 EXTCODESIZE ISZERO DUP1 ISZERO PUSH2 0x294B JUMPI PUSH1 0x0 DUP1 REVERT JUMPDEST POP GAS STATICCALL ISZERO DUP1 ISZERO PUSH2 0x295F JUMPI RETURNDATASIZE PUSH1 0x0 DUP1 RETURNDATACOPY RETURNDATASIZE PUSH1 0x0 REVERT JUMPDEST POP POP POP POP PUSH1 0x40 MLOAD RETURNDATASIZE PUSH1 0x1F NOT PUSH1 0x1F DUP3 ADD AND DUP3 ADD DUP1 PUSH1 0x40 MSTORE POP DUP2 ADD SWAP1 PUSH2 0x2983 SWAP2 SWAP1 PUSH2 0x3CA5 JUMP JUMPDEST PUSH1 0xD SLOAD PUSH1 0x40 MLOAD PUSH4 0x21F8A721 PUSH1 0xE0 SHL DUP2 MSTORE PUSH1 0x1 PUSH1 0x1 PUSH1 0xA0 SHL SUB SWAP1 SWAP2 AND SWAP1 PUSH4 0x21F8A721 SWAP1 PUSH2 0x29C2 SWAP1 PUSH12 0x42414C5F5452454153555259 PUSH1 0xA0 SHL SWAP1 PUSH1 0x4 ADD PUSH2 0x420F JUMP JUMPDEST PUSH1 0x20 PUSH1 0x40 MLOAD DUP1 DUP4 SUB DUP2 DUP7 DUP1 EXTCODESIZE ISZERO DUP1 ISZERO PUSH2 0x29DA JUMPI PUSH1 0x0 DUP1 REVERT JUMPDEST POP GAS STATICCALL ISZERO DUP1 ISZERO PUSH2 0x29EE JUMPI RETURNDATASIZE PUSH1 0x0 DUP1 RETURNDATACOPY RETURNDATASIZE PUSH1 0x0 REVERT JUMPDEST POP POP POP POP PUSH1 0x40 MLOAD RETURNDATASIZE PUSH1 0x1F NOT PUSH1 0x1F DUP3 ADD AND DUP3 ADD DUP1 PUSH1 0x40 MSTORE POP DUP2 ADD SWAP1 PUSH2 0x2A12 SWAP2 SWAP1 PUSH2 0x3CA5 JUMP JUMPDEST SWAP4 POP SWAP4 POP SWAP4 POP SWAP4 POP SWAP1 SWAP2 SWAP3 SWAP4 JUMP JUMPDEST PUSH1 0x0 DUP1 DUP7 DUP7 GT PUSH2 0x2A35 JUMPI POP PUSH1 0x0 SWAP1 POP DUP1 PUSH2 0x2AB1 JUMP JUMPDEST PUSH1 0x0 PUSH2 0x2A55 DUP6 PUSH2 0x2A4F PUSH2 0x2A48 DUP11 DUP13 PUSH2 0x21D4 JUMP JUMPDEST DUP10 SWAP1 PUSH2 0x271F JUMP JUMPDEST SWAP1 PUSH2 0x271F JUMP JUMPDEST SWAP1 POP PUSH1 0x0 PUSH2 0x2A6D PUSH2 0x2A66 DUP10 DUP12 PUSH2 0x21D4 JUMP JUMPDEST DUP8 SWAP1 PUSH2 0x271F JUMP JUMPDEST SWAP1 POP PUSH1 0x0 PUSH2 0x2A7B DUP10 DUP4 PUSH2 0x21D4 JUMP JUMPDEST SWAP1 POP PUSH1 0x0 PUSH2 0x2A89 DUP5 DUP4 PUSH2 0x1E5A JUMP JUMPDEST SWAP1 POP PUSH1 0x0 PUSH2 0x2A97 DUP9 DUP4 PUSH2 0x271F JUMP JUMPDEST SWAP1 POP PUSH1 0x0 PUSH2 0x2AA5 DUP4 DUP4 PUSH2 0x21D4 JUMP JUMPDEST SWAP2 SWAP8 POP SWAP1 SWAP6 POP POP POP POP POP POP JUMPDEST SWAP6 POP SWAP6 SWAP4 POP POP POP POP JUMP JUMPDEST PUSH1 0x0 DUP2 PUSH2 0x2AE8 JUMPI PUSH32 0x0 PUSH2 0x672 JUMP JUMPDEST POP PUSH32 0x0 SWAP2 SWAP1 POP JUMP JUMPDEST PUSH2 0x2B26 PUSH1 0x1 PUSH1 0x1 PUSH1 0xA0 SHL SUB DUP4 AND ISZERO ISZERO PUSH2 0x19B PUSH2 0x17B4 JUMP JUMPDEST PUSH2 0x2B32 DUP3 PUSH1 0x0 DUP4 PUSH2 0x25AB JUMP JUMPDEST PUSH1 0x1 PUSH1 0x1 PUSH1 0xA0 SHL SUB DUP3 AND PUSH1 0x0 SWAP1 DUP2 MSTORE PUSH1 0x20 DUP2 SWAP1 MSTORE PUSH1 0x40 SWAP1 KECCAK256 SLOAD PUSH2 0x2B58 SWAP1 DUP3 PUSH2 0x1A1 PUSH2 0x2705 JUMP JUMPDEST PUSH1 0x1 PUSH1 0x1 PUSH1 0xA0 SHL SUB DUP4 AND PUSH1 0x0 SWAP1 DUP2 MSTORE PUSH1 0x20 DUP2 SWAP1 MSTORE PUSH1 0x40 SWAP1 KECCAK256 SSTORE PUSH1 0x2 SLOAD PUSH2 0x2B7E SWAP1 DUP3 PUSH2 0x3323 JUMP JUMPDEST PUSH1 0x2 SSTORE PUSH1 0x40 DUP1 MLOAD DUP3 DUP2 MSTORE SWAP1 MLOAD PUSH1 0x0 SWAP2 PUSH1 0x1 PUSH1 0x1 PUSH1 0xA0 SHL SUB DUP6 AND SWAP2 PUSH32 0xDDF252AD1BE2C89B69C2B068FC378DAA952BA7F163C4A11628F55A4DF523B3EF SWAP2 DUP2 SWAP1 SUB PUSH1 0x20 ADD SWAP1 LOG3 POP POP JUMP JUMPDEST PUSH1 0x0 PUSH1 0x60 PUSH1 0x0 PUSH2 0x2BD5 DUP5 PUSH2 0x3068 JUMP JUMPDEST SWAP1 POP PUSH1 0x3 DUP2 PUSH1 0x3 DUP2 GT ISZERO PUSH2 0x2BE5 JUMPI INVALID JUMPDEST EQ ISZERO PUSH2 0x2BF5 JUMPI PUSH2 0x2839 DUP6 DUP6 PUSH2 0x3331 JUMP JUMPDEST PUSH2 0x284E PUSH2 0x136 PUSH2 0x26B2 JUMP JUMPDEST PUSH1 0x40 DUP1 MLOAD PUSH1 0x60 DUP2 ADD DUP3 MSTORE PUSH1 0xA SLOAD PUSH1 0xFF DUP2 AND ISZERO ISZERO DUP3 MSTORE PUSH2 0x100 DUP2 DIV PUSH1 0x1 PUSH1 0x1 PUSH1 0x78 SHL SUB AND PUSH1 0x20 DUP4 ADD DUP2 SWAP1 MSTORE PUSH1 0x1 PUSH1 0x80 SHL SWAP1 SWAP2 DIV PUSH1 0x1 PUSH1 0x1 PUSH1 0x80 SHL SUB AND SWAP3 DUP3 ADD SWAP3 SWAP1 SWAP3 MSTORE SWAP1 PUSH2 0x2C4D DUP6 DUP6 PUSH2 0x1E42 JUMP JUMPDEST GT ISZERO PUSH1 0x40 MLOAD DUP1 PUSH1 0x40 ADD PUSH1 0x40 MSTORE DUP1 PUSH1 0x1A DUP2 MSTORE PUSH1 0x20 ADD PUSH32 0x6F7665722061646472657373206C697175696469747920636170000000000000 DUP2 MSTORE POP SWAP1 PUSH2 0x2CA3 JUMPI PUSH1 0x40 MLOAD PUSH3 0x461BCD PUSH1 0xE5 SHL DUP2 MSTORE PUSH1 0x4 ADD PUSH2 0x6C9 SWAP2 SWAP1 PUSH2 0x4259 JUMP JUMPDEST POP PUSH1 0x40 DUP2 ADD MLOAD PUSH1 0x1 PUSH1 0x1 PUSH1 0x80 SHL SUB AND PUSH2 0x2CBC DUP6 DUP5 PUSH2 0x1E42 JUMP JUMPDEST GT ISZERO PUSH1 0x40 MLOAD DUP1 PUSH1 0x40 ADD PUSH1 0x40 MSTORE DUP1 PUSH1 0x19 DUP2 MSTORE PUSH1 0x20 ADD PUSH32 0x6F76657220676C6F62616C206C69717569646974792063617000000000000000 DUP2 MSTORE POP SWAP1 PUSH2 0x2803 JUMPI PUSH1 0x40 MLOAD PUSH3 0x461BCD PUSH1 0xE5 SHL DUP2 MSTORE PUSH1 0x4 ADD PUSH2 0x6C9 SWAP2 SWAP1 PUSH2 0x4259 JUMP JUMPDEST PUSH1 0x0 DUP1 PUSH1 0x0 PUSH2 0x2D1F PUSH2 0xFBD JUMP JUMPDEST PUSH1 0x1 PUSH1 0x1 PUSH1 0xA0 SHL SUB AND PUSH4 0xB05F8E48 PUSH2 0x2D35 PUSH2 0x811 JUMP JUMPDEST DUP8 PUSH1 0x40 MLOAD DUP4 PUSH4 0xFFFFFFFF AND PUSH1 0xE0 SHL DUP2 MSTORE PUSH1 0x4 ADD PUSH2 0x2D53 SWAP3 SWAP2 SWAP1 PUSH2 0x4218 JUMP JUMPDEST PUSH1 0x80 PUSH1 0x40 MLOAD DUP1 DUP4 SUB DUP2 DUP7 DUP1 EXTCODESIZE ISZERO DUP1 ISZERO PUSH2 0x2D6B JUMPI PUSH1 0x0 DUP1 REVERT JUMPDEST POP GAS STATICCALL ISZERO DUP1 ISZERO PUSH2 0x2D7F JUMPI RETURNDATASIZE PUSH1 0x0 DUP1 RETURNDATACOPY RETURNDATASIZE PUSH1 0x0 REVERT JUMPDEST POP POP POP POP PUSH1 0x40 MLOAD RETURNDATASIZE PUSH1 0x1F NOT PUSH1 0x1F DUP3 ADD AND DUP3 ADD DUP1 PUSH1 0x40 MSTORE POP DUP2 ADD SWAP1 PUSH2 0x2DA3 SWAP2 SWAP1 PUSH2 0x40E5 JUMP JUMPDEST POP POP DUP2 DUP2 ADD SWAP5 POP SWAP1 SWAP3 POP SWAP1 POP PUSH2 0x2200 DUP4 DUP6 PUSH2 0x271F JUMP JUMPDEST PUSH1 0x0 PUSH2 0x2200 PUSH2 0x2DC8 DUP7 DUP7 PUSH2 0x1E42 JUMP JUMPDEST PUSH2 0x286E DUP6 DUP6 PUSH2 0x1E42 JUMP JUMPDEST PUSH1 0x0 DUP1 PUSH2 0x2DF1 PUSH2 0x2DEA DUP6 PUSH8 0xDE0B6B3A7640002 PUSH2 0x217F JUMP JUMPDEST DUP9 SWAP1 PUSH2 0x1E42 JUMP JUMPDEST SWAP1 POP PUSH1 0x0 PUSH2 0x2E0A PUSH2 0x2DEA DUP6 PUSH8 0xDE0B6B3A763FFFF PUSH2 0x271F JUMP JUMPDEST SWAP1 POP PUSH2 0x2E23 PUSH2 0x2E19 DUP4 DUP9 PUSH2 0x1E42 JUMP JUMPDEST PUSH2 0xB26 DUP4 DUP10 PUSH2 0x271F JUMP JUMPDEST SWAP3 POP POP POP DUP5 DUP2 GT ISZERO PUSH2 0x2200 JUMPI PUSH2 0x2200 PUSH1 0x0 PUSH2 0x165 PUSH2 0x3356 JUMP JUMPDEST PUSH1 0x0 DUP5 DUP5 GT ISZERO PUSH2 0x2E53 JUMPI PUSH2 0x2E53 PUSH1 0x0 PUSH2 0x165 PUSH2 0x3356 JUMP JUMPDEST PUSH1 0x0 PUSH2 0x2E6A PUSH2 0x2DEA DUP6 PUSH8 0xDE0B6B3A7640002 PUSH2 0x217F JUMP JUMPDEST SWAP1 POP PUSH1 0x0 PUSH2 0x2E83 PUSH2 0x2DEA DUP6 PUSH8 0xDE0B6B3A763FFFF PUSH2 0x271F JUMP JUMPDEST SWAP1 POP PUSH2 0x2361 PUSH2 0x2E92 DUP3 DUP9 PUSH2 0x21D4 JUMP JUMPDEST PUSH2 0x286E DUP5 DUP10 PUSH2 0x217F JUMP JUMPDEST PUSH1 0x0 DUP1 DUP1 DUP1 PUSH2 0x2EBD PUSH2 0x2EAE DUP8 DUP8 PUSH2 0x1E5A JUMP JUMPDEST PUSH8 0xDE0B6B3A7640000 SWAP1 PUSH2 0x21D4 JUMP JUMPDEST SWAP4 POP PUSH1 0x0 PUSH2 0x2EE8 DUP7 DUP10 PUSH1 0x1 DUP2 MLOAD DUP2 LT PUSH2 0x2ED2 JUMPI INVALID JUMPDEST PUSH1 0x20 MUL PUSH1 0x20 ADD ADD MLOAD PUSH2 0x1E5A SWAP1 SWAP2 SWAP1 PUSH4 0xFFFFFFFF AND JUMP JUMPDEST SWAP1 POP PUSH1 0x0 PUSH2 0x2EFD DUP9 DUP11 PUSH1 0x0 DUP2 MLOAD DUP2 LT PUSH2 0x2445 JUMPI INVALID JUMPDEST SWAP1 POP PUSH2 0x2F09 DUP3 DUP3 PUSH2 0x1E42 JUMP JUMPDEST SWAP5 POP PUSH2 0x2F30 DUP10 PUSH1 0x1 DUP2 MLOAD DUP2 LT PUSH2 0x2F1B JUMPI INVALID JUMPDEST PUSH1 0x20 MUL PUSH1 0x20 ADD ADD MLOAD DUP11 PUSH1 0x0 DUP2 MLOAD DUP2 LT PUSH2 0x2445 JUMPI INVALID JUMPDEST SWAP3 POP POP POP PUSH2 0x2F61 DUP7 PUSH2 0x2A4F DUP9 PUSH2 0x2A4F DUP12 PUSH1 0x0 DUP2 MLOAD DUP2 LT PUSH2 0x2F4C JUMPI INVALID JUMPDEST PUSH1 0x20 MUL PUSH1 0x20 ADD ADD MLOAD DUP13 PUSH1 0x0 DUP2 MLOAD DUP2 LT PUSH2 0x2445 JUMPI INVALID JUMPDEST SWAP2 POP PUSH1 0x0 PUSH2 0x2FA1 DUP7 PUSH2 0xB26 DUP10 PUSH2 0x2A4F PUSH8 0xDE0B6B3A7640000 PUSH1 0x2 MUL PUSH2 0x2A4F DUP15 PUSH1 0x1 DUP2 MLOAD DUP2 LT PUSH2 0x2F8C JUMPI INVALID JUMPDEST PUSH1 0x20 MUL PUSH1 0x20 ADD ADD MLOAD DUP16 PUSH1 0x0 DUP2 MLOAD DUP2 LT PUSH2 0x2445 JUMPI INVALID JUMPDEST SWAP1 POP PUSH1 0x0 PUSH2 0x2FD7 PUSH2 0x2FB2 DUP9 DUP1 PUSH2 0x217F JUMP JUMPDEST PUSH2 0xB26 DUP12 PUSH1 0x1 DUP2 MLOAD DUP2 LT PUSH2 0x2FC2 JUMPI INVALID JUMPDEST PUSH1 0x20 MUL PUSH1 0x20 ADD ADD MLOAD DUP13 PUSH1 0x1 DUP2 MLOAD DUP2 LT PUSH2 0x2445 JUMPI INVALID JUMPDEST SWAP1 POP PUSH2 0x2FE7 DUP2 PUSH2 0xAEB DUP7 DUP6 PUSH2 0x1E42 JUMP JUMPDEST SWAP4 POP POP POP SWAP4 POP SWAP4 POP SWAP4 POP SWAP4 JUMP JUMPDEST PUSH1 0x0 DUP1 PUSH2 0x3009 DUP7 PUSH8 0x1BC16D674EC80000 PUSH2 0x217F JUMP JUMPDEST SWAP1 POP PUSH1 0x0 PUSH2 0x3023 DUP8 PUSH2 0x2A4F DUP7 PUSH8 0x3782DACE9D900000 PUSH2 0x271F JUMP JUMPDEST SWAP1 POP PUSH1 0x0 PUSH2 0x3031 DUP7 DUP4 PUSH2 0x1E42 JUMP JUMPDEST SWAP1 POP PUSH1 0x0 PUSH2 0x3040 DUP3 PUSH1 0x5 PUSH2 0x3364 JUMP JUMPDEST SWAP1 POP PUSH1 0x0 PUSH2 0x304E DUP10 DUP4 PUSH2 0x1E42 JUMP JUMPDEST SWAP1 POP PUSH2 0x305A DUP2 DUP7 PUSH2 0x1E5A JUMP JUMPDEST SWAP11 SWAP10 POP POP POP POP POP POP POP POP POP POP JUMP JUMPDEST PUSH1 0x0 DUP2 DUP1 PUSH1 0x20 ADD SWAP1 MLOAD PUSH1 0x20 DUP2 LT ISZERO PUSH2 0x307F JUMPI PUSH1 0x0 DUP1 REVERT JUMPDEST POP MLOAD SWAP3 SWAP2 POP POP JUMP JUMPDEST PUSH1 0x60 DUP2 DUP1 PUSH1 0x20 ADD SWAP1 MLOAD PUSH1 0x40 DUP2 LT ISZERO PUSH2 0x309E JUMPI PUSH1 0x0 DUP1 REVERT JUMPDEST DUP2 MLOAD PUSH1 0x20 DUP4 ADD DUP1 MLOAD PUSH1 0x40 MLOAD SWAP3 SWAP5 SWAP3 SWAP4 DUP4 ADD SWAP3 SWAP2 SWAP1 DUP5 PUSH5 0x100000000 DUP3 GT ISZERO PUSH2 0x30C5 JUMPI PUSH1 0x0 DUP1 REVERT JUMPDEST SWAP1 DUP4 ADD SWAP1 PUSH1 0x20 DUP3 ADD DUP6 DUP2 GT ISZERO PUSH2 0x30DA JUMPI PUSH1 0x0 DUP1 REVERT JUMPDEST DUP3 MLOAD DUP7 PUSH1 0x20 DUP3 MUL DUP4 ADD GT PUSH5 0x100000000 DUP3 GT OR ISZERO PUSH2 0x30F7 JUMPI PUSH1 0x0 DUP1 REVERT JUMPDEST DUP3 MSTORE POP DUP2 MLOAD PUSH1 0x20 SWAP2 DUP3 ADD SWAP3 DUP3 ADD SWAP2 MUL DUP1 DUP4 DUP4 PUSH1 0x0 JUMPDEST DUP4 DUP2 LT ISZERO PUSH2 0x3124 JUMPI DUP2 DUP2 ADD MLOAD DUP4 DUP3 ADD MSTORE PUSH1 0x20 ADD PUSH2 0x310C JUMP JUMPDEST POP POP POP POP SWAP2 SWAP1 SWAP2 ADD PUSH1 0x40 MSTORE POP SWAP3 SWAP7 SWAP6 POP POP POP POP POP POP JUMP JUMPDEST PUSH2 0x3147 PUSH1 0x0 DUP4 DUP4 PUSH2 0x25AB JUMP JUMPDEST PUSH1 0x2 SLOAD PUSH2 0x3154 SWAP1 DUP3 PUSH2 0x19E6 JUMP JUMPDEST PUSH1 0x2 SSTORE PUSH1 0x1 PUSH1 0x1 PUSH1 0xA0 SHL SUB DUP3 AND PUSH1 0x0 SWAP1 DUP2 MSTORE PUSH1 0x20 DUP2 SWAP1 MSTORE PUSH1 0x40 SWAP1 KECCAK256 SLOAD PUSH2 0x317A SWAP1 DUP3 PUSH2 0x19E6 JUMP JUMPDEST PUSH1 0x1 PUSH1 0x1 PUSH1 0xA0 SHL SUB DUP4 AND PUSH1 0x0 DUP2 DUP2 MSTORE PUSH1 0x20 DUP2 DUP2 MSTORE PUSH1 0x40 DUP1 DUP4 KECCAK256 SWAP5 SWAP1 SWAP5 SSTORE DUP4 MLOAD DUP6 DUP2 MSTORE SWAP4 MLOAD SWAP3 SWAP4 SWAP2 SWAP3 PUSH32 0xDDF252AD1BE2C89B69C2B068FC378DAA952BA7F163C4A11628F55A4DF523B3EF SWAP3 DUP2 SWAP1 SUB SWAP1 SWAP2 ADD SWAP1 LOG3 POP POP JUMP JUMPDEST PUSH1 0x0 DUP2 PUSH2 0x31FD JUMPI PUSH32 0x0 PUSH2 0x672 JUMP JUMPDEST POP PUSH32 0x0 SWAP2 SWAP1 POP JUMP JUMPDEST PUSH1 0x0 PUSH2 0x3236 PUSH4 0x1C74C917 PUSH1 0xE1 SHL PUSH2 0xEDA JUMP JUMPDEST DUP3 EQ DUP1 PUSH2 0x672 JUMPI POP PUSH2 0x324E PUSH4 0x50DD6ED9 PUSH1 0xE0 SHL PUSH2 0xEDA JUMP JUMPDEST SWAP1 SWAP2 EQ SWAP2 SWAP1 POP JUMP JUMPDEST PUSH1 0x0 DUP4 PUSH2 0x326C JUMPI PUSH2 0x3267 DUP3 DUP5 PUSH2 0x1A4C JUMP JUMPDEST PUSH2 0x2177 JUMP JUMPDEST PUSH2 0x2177 DUP3 DUP5 PUSH2 0x2209 JUMP JUMPDEST DUP4 ISZERO PUSH2 0x3286 JUMPI PUSH2 0x3286 DUP3 DUP6 PUSH2 0x248E JUMP JUMPDEST DUP3 ISZERO PUSH2 0x3296 JUMPI PUSH2 0x3296 DUP2 DUP5 PUSH2 0x248E JUMP JUMPDEST POP POP POP POP JUMP JUMPDEST PUSH1 0x0 PUSH1 0x60 PUSH1 0x0 PUSH2 0x32AB DUP5 PUSH2 0x34F2 JUMP JUMPDEST SWAP1 POP PUSH1 0x0 PUSH2 0x32C1 DUP7 DUP4 PUSH2 0x32BC PUSH2 0x73D JUMP JUMPDEST PUSH2 0x3514 JUMP JUMPDEST SWAP2 SWAP7 SWAP2 SWAP6 POP SWAP1 SWAP4 POP POP POP POP JUMP JUMPDEST PUSH1 0x0 PUSH2 0x2177 DUP5 PUSH22 0x50524F544F434F4C5F535741505F4645455F50455243 PUSH1 0x50 SHL DUP5 DUP7 PUSH2 0x359A JUMP JUMPDEST PUSH1 0x0 PUSH2 0x2177 DUP5 PUSH32 0x50524F544F434F4C5F4645455F4759524F5F504F5254494F4E00000000000000 DUP5 DUP7 PUSH2 0x359A JUMP JUMPDEST PUSH1 0x0 PUSH2 0x1610 DUP4 DUP4 PUSH1 0x1 PUSH2 0x2705 JUMP JUMPDEST PUSH1 0x0 PUSH1 0x60 PUSH1 0x0 PUSH2 0x3340 DUP5 PUSH2 0x34F2 JUMP JUMPDEST SWAP1 POP PUSH1 0x0 PUSH2 0x32C1 DUP7 DUP4 PUSH2 0x3351 PUSH2 0x73D JUMP JUMPDEST PUSH2 0x3847 JUMP JUMPDEST DUP2 PUSH2 0x15FE JUMPI PUSH2 0x15FE DUP2 PUSH2 0x38E3 JUMP JUMPDEST PUSH1 0x0 DUP3 PUSH2 0x3373 JUMPI POP PUSH1 0x0 PUSH2 0x672 JUMP JUMPDEST PUSH1 0x0 PUSH2 0x337E DUP5 PUSH2 0x38F3 JUMP JUMPDEST SWAP1 POP PUSH1 0x2 DUP2 PUSH8 0xDE0B6B3A7640000 DUP7 MUL DUP2 PUSH2 0x3395 JUMPI INVALID JUMPDEST DIV DUP3 ADD DUP2 PUSH2 0x339F JUMPI INVALID JUMPDEST DIV SWAP1 POP PUSH1 0x2 DUP2 PUSH8 0xDE0B6B3A7640000 DUP7 MUL DUP2 PUSH2 0x33B7 JUMPI INVALID JUMPDEST DIV DUP3 ADD DUP2 PUSH2 0x33C1 JUMPI INVALID JUMPDEST DIV SWAP1 POP PUSH1 0x2 DUP2 PUSH8 0xDE0B6B3A7640000 DUP7 MUL DUP2 PUSH2 0x33D9 JUMPI INVALID JUMPDEST DIV DUP3 ADD DUP2 PUSH2 0x33E3 JUMPI INVALID JUMPDEST DIV SWAP1 POP PUSH1 0x2 DUP2 PUSH8 0xDE0B6B3A7640000 DUP7 MUL DUP2 PUSH2 0x33FB JUMPI INVALID JUMPDEST DIV DUP3 ADD DUP2 PUSH2 0x3405 JUMPI INVALID JUMPDEST DIV SWAP1 POP PUSH1 0x2 DUP2 PUSH8 0xDE0B6B3A7640000 DUP7 MUL DUP2 PUSH2 0x341D JUMPI INVALID JUMPDEST DIV DUP3 ADD DUP2 PUSH2 0x3427 JUMPI INVALID JUMPDEST DIV SWAP1 POP PUSH1 0x2 DUP2 PUSH8 0xDE0B6B3A7640000 DUP7 MUL DUP2 PUSH2 0x343F JUMPI INVALID JUMPDEST DIV DUP3 ADD DUP2 PUSH2 0x3449 JUMPI INVALID JUMPDEST DIV SWAP1 POP PUSH1 0x2 DUP2 PUSH8 0xDE0B6B3A7640000 DUP7 MUL DUP2 PUSH2 0x3461 JUMPI INVALID JUMPDEST DIV DUP3 ADD DUP2 PUSH2 0x346B JUMPI INVALID JUMPDEST DIV SWAP1 POP PUSH1 0x0 PUSH2 0x347A DUP3 DUP1 PUSH2 0x271F JUMP JUMPDEST SWAP1 POP PUSH2 0x3490 PUSH2 0x3489 DUP4 DUP7 PUSH2 0x217F JUMP JUMPDEST DUP7 SWAP1 PUSH2 0x1E42 JUMP JUMPDEST DUP2 GT ISZERO DUP1 ISZERO PUSH2 0x34B2 JUMPI POP PUSH2 0x34AE PUSH2 0x34A7 DUP4 DUP7 PUSH2 0x217F JUMP JUMPDEST DUP7 SWAP1 PUSH2 0x21D4 JUMP JUMPDEST DUP2 LT ISZERO JUMPDEST PUSH2 0x12B1 JUMPI PUSH1 0x40 DUP1 MLOAD PUSH3 0x461BCD PUSH1 0xE5 SHL DUP2 MSTORE PUSH1 0x20 PUSH1 0x4 DUP3 ADD MSTORE PUSH1 0xC PUSH1 0x24 DUP3 ADD MSTORE PUSH12 0x17DCDC5C9D08119052531151 PUSH1 0xA2 SHL PUSH1 0x44 DUP3 ADD MSTORE SWAP1 MLOAD SWAP1 DUP2 SWAP1 SUB PUSH1 0x64 ADD SWAP1 REVERT JUMPDEST PUSH1 0x0 DUP2 DUP1 PUSH1 0x20 ADD SWAP1 MLOAD PUSH1 0x40 DUP2 LT ISZERO PUSH2 0x3509 JUMPI PUSH1 0x0 DUP1 REVERT JUMPDEST POP PUSH1 0x20 ADD MLOAD SWAP3 SWAP2 POP POP JUMP JUMPDEST PUSH1 0x60 DUP4 MLOAD PUSH8 0xFFFFFFFFFFFFFFFF DUP2 GT DUP1 ISZERO PUSH2 0x352E JUMPI PUSH1 0x0 DUP1 REVERT JUMPDEST POP PUSH1 0x40 MLOAD SWAP1 DUP1 DUP3 MSTORE DUP1 PUSH1 0x20 MUL PUSH1 0x20 ADD DUP3 ADD PUSH1 0x40 MSTORE DUP1 ISZERO PUSH2 0x3558 JUMPI DUP2 PUSH1 0x20 ADD PUSH1 0x20 DUP3 MUL DUP1 CALLDATASIZE DUP4 CALLDATACOPY ADD SWAP1 POP JUMPDEST POP SWAP1 POP PUSH1 0x0 JUMPDEST DUP5 MLOAD DUP2 LT ISZERO PUSH2 0x12B1 JUMPI PUSH2 0x357B DUP4 PUSH2 0xB26 DUP7 DUP9 DUP6 DUP2 MLOAD DUP2 LT PUSH2 0x2445 JUMPI INVALID JUMPDEST DUP3 DUP3 DUP2 MLOAD DUP2 LT PUSH2 0x3587 JUMPI INVALID JUMPDEST PUSH1 0x20 SWAP1 DUP2 MUL SWAP2 SWAP1 SWAP2 ADD ADD MSTORE PUSH1 0x1 ADD PUSH2 0x355E JUMP JUMPDEST PUSH1 0x40 DUP1 MLOAD PUSH1 0x20 DUP1 DUP3 ADD DUP7 SWAP1 MSTORE PUSH1 0x1 PUSH1 0x1 PUSH1 0xA0 SHL SUB DUP1 DUP6 AND DUP4 DUP6 ADD MSTORE DUP4 MLOAD DUP1 DUP5 SUB DUP6 ADD DUP2 MSTORE PUSH1 0x60 DUP5 ADD DUP1 DUP7 MSTORE DUP2 MLOAD SWAP2 DUP5 ADD SWAP2 SWAP1 SWAP2 KECCAK256 PUSH4 0x696EB375 PUSH1 0xE0 SHL SWAP1 SWAP2 MSTORE PUSH1 0x64 DUP5 ADD DUP2 SWAP1 MSTORE SWAP4 MLOAD PUSH1 0x0 SWAP5 SWAP4 SWAP2 DUP10 AND SWAP3 PUSH4 0x696EB375 SWAP3 PUSH1 0x84 DUP1 DUP3 ADD SWAP4 SWAP2 DUP3 SWAP1 SUB ADD DUP2 DUP7 DUP1 EXTCODESIZE ISZERO DUP1 ISZERO PUSH2 0x360B JUMPI PUSH1 0x0 DUP1 REVERT JUMPDEST POP GAS STATICCALL ISZERO DUP1 ISZERO PUSH2 0x361F JUMPI RETURNDATASIZE PUSH1 0x0 DUP1 RETURNDATACOPY RETURNDATASIZE PUSH1 0x0 REVERT JUMPDEST POP POP POP POP PUSH1 0x40 MLOAD RETURNDATASIZE PUSH1 0x20 DUP2 LT ISZERO PUSH2 0x3635 JUMPI PUSH1 0x0 DUP1 REVERT JUMPDEST POP MLOAD ISZERO PUSH2 0x36B5 JUMPI DUP6 PUSH1 0x1 PUSH1 0x1 PUSH1 0xA0 SHL SUB AND PUSH4 0xBD02D0F5 DUP3 PUSH1 0x40 MLOAD DUP3 PUSH4 0xFFFFFFFF AND PUSH1 0xE0 SHL DUP2 MSTORE PUSH1 0x4 ADD DUP1 DUP3 DUP2 MSTORE PUSH1 0x20 ADD SWAP2 POP POP PUSH1 0x20 PUSH1 0x40 MLOAD DUP1 DUP4 SUB DUP2 DUP7 DUP1 EXTCODESIZE ISZERO DUP1 ISZERO PUSH2 0x3680 JUMPI PUSH1 0x0 DUP1 REVERT JUMPDEST POP GAS STATICCALL ISZERO DUP1 ISZERO PUSH2 0x3694 JUMPI RETURNDATASIZE PUSH1 0x0 DUP1 RETURNDATACOPY RETURNDATASIZE PUSH1 0x0 REVERT JUMPDEST POP POP POP POP PUSH1 0x40 MLOAD RETURNDATASIZE PUSH1 0x20 DUP2 LT ISZERO PUSH2 0x36AA JUMPI PUSH1 0x0 DUP1 REVERT JUMPDEST POP MLOAD SWAP2 POP PUSH2 0x2177 SWAP1 POP JUMP JUMPDEST PUSH1 0x40 DUP1 MLOAD PUSH1 0x20 DUP1 DUP3 ADD DUP9 SWAP1 MSTORE DUP2 DUP4 ADD DUP8 SWAP1 MSTORE DUP3 MLOAD DUP1 DUP4 SUB DUP5 ADD DUP2 MSTORE PUSH1 0x60 DUP4 ADD DUP1 DUP6 MSTORE DUP2 MLOAD SWAP2 DUP4 ADD SWAP2 SWAP1 SWAP2 KECCAK256 PUSH4 0x696EB375 PUSH1 0xE0 SHL SWAP1 SWAP2 MSTORE PUSH1 0x64 DUP4 ADD DUP2 SWAP1 MSTORE SWAP3 MLOAD PUSH1 0x1 PUSH1 0x1 PUSH1 0xA0 SHL SUB DUP11 AND SWAP3 PUSH4 0x696EB375 SWAP3 PUSH1 0x84 DUP1 DUP4 ADD SWAP4 SWAP2 SWAP3 DUP3 SWAP1 SUB ADD DUP2 DUP7 DUP1 EXTCODESIZE ISZERO DUP1 ISZERO PUSH2 0x3721 JUMPI PUSH1 0x0 DUP1 REVERT JUMPDEST POP GAS STATICCALL ISZERO DUP1 ISZERO PUSH2 0x3735 JUMPI RETURNDATASIZE PUSH1 0x0 DUP1 RETURNDATACOPY RETURNDATASIZE PUSH1 0x0 REVERT JUMPDEST POP POP POP POP PUSH1 0x40 MLOAD RETURNDATASIZE PUSH1 0x20 DUP2 LT ISZERO PUSH2 0x374B JUMPI PUSH1 0x0 DUP1 REVERT JUMPDEST POP MLOAD ISZERO PUSH2 0x37CC JUMPI DUP7 PUSH1 0x1 PUSH1 0x1 PUSH1 0xA0 SHL SUB AND PUSH4 0xBD02D0F5 DUP3 PUSH1 0x40 MLOAD DUP3 PUSH4 0xFFFFFFFF AND PUSH1 0xE0 SHL DUP2 MSTORE PUSH1 0x4 ADD DUP1 DUP3 DUP2 MSTORE PUSH1 0x20 ADD SWAP2 POP POP PUSH1 0x20 PUSH1 0x40 MLOAD DUP1 DUP4 SUB DUP2 DUP7 DUP1 EXTCODESIZE ISZERO DUP1 ISZERO PUSH2 0x3796 JUMPI PUSH1 0x0 DUP1 REVERT JUMPDEST POP GAS STATICCALL ISZERO DUP1 ISZERO PUSH2 0x37AA JUMPI RETURNDATASIZE PUSH1 0x0 DUP1 RETURNDATACOPY RETURNDATASIZE PUSH1 0x0 REVERT JUMPDEST POP POP POP POP PUSH1 0x40 MLOAD RETURNDATASIZE PUSH1 0x20 DUP2 LT ISZERO PUSH2 0x37C0 JUMPI PUSH1 0x0 DUP1 REVERT JUMPDEST POP MLOAD SWAP3 POP PUSH2 0x2177 SWAP2 POP POP JUMP JUMPDEST DUP7 PUSH1 0x1 PUSH1 0x1 PUSH1 0xA0 SHL SUB AND PUSH4 0xBD02D0F5 DUP8 PUSH1 0x40 MLOAD DUP3 PUSH4 0xFFFFFFFF AND PUSH1 0xE0 SHL DUP2 MSTORE PUSH1 0x4 ADD DUP1 DUP3 DUP2 MSTORE PUSH1 0x20 ADD SWAP2 POP POP PUSH1 0x20 PUSH1 0x40 MLOAD DUP1 DUP4 SUB DUP2 DUP7 DUP1 EXTCODESIZE ISZERO DUP1 ISZERO PUSH2 0x3810 JUMPI PUSH1 0x0 DUP1 REVERT JUMPDEST POP GAS STATICCALL ISZERO DUP1 ISZERO PUSH2 0x3824 JUMPI RETURNDATASIZE PUSH1 0x0 DUP1 RETURNDATACOPY RETURNDATASIZE PUSH1 0x0 REVERT JUMPDEST POP POP POP POP PUSH1 0x40 MLOAD RETURNDATASIZE PUSH1 0x20 DUP2 LT ISZERO PUSH2 0x383A JUMPI PUSH1 0x0 DUP1 REVERT JUMPDEST POP MLOAD SWAP8 SWAP7 POP POP POP POP POP POP POP JUMP JUMPDEST PUSH1 0x60 DUP4 MLOAD PUSH8 0xFFFFFFFFFFFFFFFF DUP2 GT DUP1 ISZERO PUSH2 0x3861 JUMPI PUSH1 0x0 DUP1 REVERT JUMPDEST POP PUSH1 0x40 MLOAD SWAP1 DUP1 DUP3 MSTORE DUP1 PUSH1 0x20 MUL PUSH1 0x20 ADD DUP3 ADD PUSH1 0x40 MSTORE DUP1 ISZERO PUSH2 0x388B JUMPI DUP2 PUSH1 0x20 ADD PUSH1 0x20 DUP3 MUL DUP1 CALLDATASIZE DUP4 CALLDATACOPY ADD SWAP1 POP JUMPDEST POP SWAP1 POP PUSH1 0x0 JUMPDEST DUP5 MLOAD DUP2 LT ISZERO PUSH2 0x12B1 JUMPI PUSH2 0x38C4 DUP4 PUSH2 0x286E DUP7 DUP9 DUP6 DUP2 MLOAD DUP2 LT PUSH2 0x38AE JUMPI INVALID JUMPDEST PUSH1 0x20 MUL PUSH1 0x20 ADD ADD MLOAD PUSH2 0x217F SWAP1 SWAP2 SWAP1 PUSH4 0xFFFFFFFF AND JUMP JUMPDEST DUP3 DUP3 DUP2 MLOAD DUP2 LT PUSH2 0x38D0 JUMPI INVALID JUMPDEST PUSH1 0x20 SWAP1 DUP2 MUL SWAP2 SWAP1 SWAP2 ADD ADD MSTORE PUSH1 0x1 ADD PUSH2 0x3891 JUMP JUMPDEST PUSH2 0x73A DUP2 PUSH3 0x23ACA9 PUSH1 0xE9 SHL PUSH2 0x3AC5 JUMP JUMPDEST PUSH1 0x0 PUSH8 0xDE0B6B3A7640000 DUP3 LT PUSH2 0x3920 JUMPI PUSH8 0xDE0B6B3A7640000 PUSH2 0x3918 DUP2 DUP5 DIV PUSH2 0x3B26 JUMP JUMPDEST SHL SWAP1 POP PUSH2 0xB65 JUMP JUMPDEST PUSH1 0xA DUP3 GT PUSH2 0x3933 JUMPI POP PUSH4 0xBC7C871C PUSH2 0xB65 JUMP JUMPDEST PUSH1 0x64 DUP3 GT PUSH2 0x3947 JUMPI POP PUSH5 0x2540BE400 PUSH2 0xB65 JUMP JUMPDEST PUSH2 0x3E8 DUP3 GT PUSH2 0x395C JUMPI POP PUSH5 0x75CDD4719 PUSH2 0xB65 JUMP JUMPDEST PUSH2 0x2710 DUP3 GT PUSH2 0x3971 JUMPI POP PUSH5 0x174876E800 PUSH2 0xB65 JUMP JUMPDEST PUSH3 0x186A0 DUP3 GT PUSH2 0x3987 JUMPI POP PUSH5 0x49A0A4C700 PUSH2 0xB65 JUMP JUMPDEST PUSH3 0xF4240 DUP3 GT PUSH2 0x399D JUMPI POP PUSH5 0xE8D4A51000 PUSH2 0xB65 JUMP JUMPDEST PUSH3 0x989680 DUP3 GT PUSH2 0x39B4 JUMPI POP PUSH6 0x2E0466FC608 PUSH2 0xB65 JUMP JUMPDEST PUSH4 0x5F5E100 DUP3 GT PUSH2 0x39CC JUMPI POP PUSH6 0x9184E72A000 PUSH2 0xB65 JUMP JUMPDEST PUSH4 0x3B9ACA00 DUP3 GT PUSH2 0x39E4 JUMPI POP PUSH6 0x1CC2C05DBC53 PUSH2 0xB65 JUMP JUMPDEST PUSH5 0x2540BE400 DUP3 GT PUSH2 0x39FD JUMPI POP PUSH6 0x5AF3107A4000 PUSH2 0xB65 JUMP JUMPDEST PUSH5 0x174876E800 DUP3 GT PUSH2 0x3A17 JUMPI POP PUSH7 0x11F9B83A95B45 PUSH2 0xB65 JUMP JUMPDEST PUSH5 0xE8D4A51000 DUP3 GT PUSH2 0x3A31 JUMPI POP PUSH7 0x38D7EA4C68000 PUSH2 0xB65 JUMP JUMPDEST PUSH6 0x9184E72A000 DUP3 GT PUSH2 0x3A4C JUMPI POP PUSH7 0xB3C13249D90BB PUSH2 0xB65 JUMP JUMPDEST PUSH6 0x5AF3107A4000 DUP3 GT PUSH2 0x3A67 JUMPI POP PUSH7 0x2386F26FC10000 PUSH2 0xB65 JUMP JUMPDEST PUSH7 0x38D7EA4C68000 DUP3 GT PUSH2 0x3A83 JUMPI POP PUSH7 0x7058BF6E27A751 PUSH2 0xB65 JUMP JUMPDEST PUSH7 0x2386F26FC10000 DUP3 GT PUSH2 0x3AA0 JUMPI POP PUSH8 0x16345785D8A0000 PUSH2 0xB65 JUMP JUMPDEST PUSH8 0x16345785D8A0000 DUP3 GT PUSH2 0x3ABE JUMPI POP PUSH8 0x463777A4D8C892D PUSH2 0xB65 JUMP JUMPDEST POP DUP1 PUSH2 0xB65 JUMP JUMPDEST PUSH3 0x461BCD PUSH1 0xE5 SHL PUSH1 0x0 SWAP1 DUP2 MSTORE PUSH1 0x20 PUSH1 0x4 MSTORE PUSH1 0x7 PUSH1 0x24 MSTORE PUSH1 0xA DUP1 DUP5 DIV DUP2 DUP2 MOD PUSH1 0x30 SWAP1 DUP2 ADD PUSH1 0x8 SHL SWAP6 DUP4 SWAP1 MOD SWAP6 SWAP1 SWAP6 ADD SWAP1 DUP3 SWAP1 DIV SWAP2 DUP3 MOD DUP6 ADD PUSH1 0x10 SHL ADD PUSH1 0x23 PUSH4 0xFFFFFF00 PUSH1 0xE0 DUP7 SWAP1 SHR AND ADD PUSH1 0x18 SHL ADD SWAP1 SWAP4 ADD PUSH1 0xC8 SHL PUSH1 0x44 MSTORE PUSH1 0xE8 DUP3 SWAP1 SHR SWAP1 PUSH1 0x64 SWAP1 REVERT JUMPDEST PUSH1 0x0 PUSH1 0x1 PUSH1 0x80 SHL DUP3 LT PUSH2 0x3B3E JUMPI PUSH1 0x80 SWAP2 SWAP1 SWAP2 SHR SWAP1 PUSH1 0x40 ADD JUMPDEST PUSH9 0x10000000000000000 DUP3 LT PUSH2 0x3B59 JUMPI PUSH1 0x40 SWAP2 SWAP1 SWAP2 SHR SWAP1 PUSH1 0x20 ADD JUMPDEST PUSH5 0x100000000 DUP3 LT PUSH2 0x3B70 JUMPI PUSH1 0x20 SWAP2 SWAP1 SWAP2 SHR SWAP1 PUSH1 0x10 ADD JUMPDEST PUSH3 0x10000 DUP3 LT PUSH2 0x3B85 JUMPI PUSH1 0x10 SWAP2 SWAP1 SWAP2 SHR SWAP1 PUSH1 0x8 ADD JUMPDEST PUSH2 0x100 DUP3 LT PUSH2 0x3B99 JUMPI PUSH1 0x8 SWAP2 SWAP1 SWAP2 SHR SWAP1 PUSH1 0x4 ADD JUMPDEST PUSH1 0x10 DUP3 LT PUSH2 0x3BAC JUMPI PUSH1 0x4 SWAP2 SWAP1 SWAP2 SHR SWAP1 PUSH1 0x2 ADD JUMPDEST PUSH1 0x4 DUP3 LT PUSH2 0xB65 JUMPI PUSH1 0x1 ADD SWAP2 SWAP1 POP JUMP JUMPDEST PUSH1 0x40 DUP1 MLOAD PUSH1 0x60 DUP2 ADD DUP3 MSTORE PUSH1 0x0 DUP1 DUP3 MSTORE PUSH1 0x20 DUP3 ADD DUP2 SWAP1 MSTORE SWAP2 DUP2 ADD SWAP2 SWAP1 SWAP2 MSTORE SWAP1 JUMP JUMPDEST PUSH1 0x40 MLOAD DUP1 PUSH1 0x40 ADD PUSH1 0x40 MSTORE DUP1 PUSH1 0x2 SWAP1 PUSH1 0x20 DUP3 MUL DUP1 CALLDATASIZE DUP4 CALLDATACOPY POP SWAP2 SWAP3 SWAP2 POP POP JUMP JUMPDEST DUP1 CALLDATALOAD PUSH2 0xB65 DUP2 PUSH2 0x436D JUMP JUMPDEST DUP1 CALLDATALOAD DUP1 ISZERO ISZERO DUP2 EQ PUSH2 0xB65 JUMPI PUSH1 0x0 DUP1 REVERT JUMPDEST PUSH1 0x0 DUP3 PUSH1 0x1F DUP4 ADD SLT PUSH2 0x3C25 JUMPI DUP1 DUP2 REVERT JUMPDEST DUP2 CALLDATALOAD PUSH8 0xFFFFFFFFFFFFFFFF DUP2 GT ISZERO PUSH2 0x3C39 JUMPI INVALID JUMPDEST PUSH2 0x3C4C PUSH1 0x1F DUP3 ADD PUSH1 0x1F NOT AND PUSH1 0x20 ADD PUSH2 0x4349 JUMP JUMPDEST DUP2 DUP2 MSTORE DUP5 PUSH1 0x20 DUP4 DUP7 ADD ADD GT ISZERO PUSH2 0x3C60 JUMPI DUP3 DUP4 REVERT JUMPDEST DUP2 PUSH1 0x20 DUP6 ADD PUSH1 0x20 DUP4 ADD CALLDATACOPY SWAP1 DUP2 ADD PUSH1 0x20 ADD SWAP2 SWAP1 SWAP2 MSTORE SWAP3 SWAP2 POP POP JUMP JUMPDEST DUP1 CALLDATALOAD PUSH1 0x2 DUP2 LT PUSH2 0xB65 JUMPI PUSH1 0x0 DUP1 REVERT JUMPDEST PUSH1 0x0 PUSH1 0x20 DUP3 DUP5 SUB SLT ISZERO PUSH2 0x3C9A JUMPI DUP1 DUP2 REVERT JUMPDEST DUP2 CALLDATALOAD PUSH2 0x1610 DUP2 PUSH2 0x436D JUMP JUMPDEST PUSH1 0x0 PUSH1 0x20 DUP3 DUP5 SUB SLT ISZERO PUSH2 0x3CB6 JUMPI DUP1 DUP2 REVERT JUMPDEST DUP2 MLOAD PUSH2 0x1610 DUP2 PUSH2 0x436D JUMP JUMPDEST PUSH1 0x0 DUP1 PUSH1 0x40 DUP4 DUP6 SUB SLT ISZERO PUSH2 0x3CD3 JUMPI DUP1 DUP2 REVERT JUMPDEST DUP3 CALLDATALOAD PUSH2 0x3CDE DUP2 PUSH2 0x436D JUMP JUMPDEST SWAP2 POP PUSH1 0x20 DUP4 ADD CALLDATALOAD PUSH2 0x3CEE DUP2 PUSH2 0x436D JUMP JUMPDEST DUP1 SWAP2 POP POP SWAP3 POP SWAP3 SWAP1 POP JUMP JUMPDEST PUSH1 0x0 DUP1 PUSH1 0x0 PUSH1 0x60 DUP5 DUP7 SUB SLT ISZERO PUSH2 0x3D0D JUMPI DUP1 DUP2 REVERT JUMPDEST DUP4 CALLDATALOAD PUSH2 0x3D18 DUP2 PUSH2 0x436D JUMP JUMPDEST SWAP3 POP PUSH1 0x20 DUP5 ADD CALLDATALOAD PUSH2 0x3D28 DUP2 PUSH2 0x436D JUMP JUMPDEST SWAP3 SWAP6 SWAP3 SWAP5 POP POP POP PUSH1 0x40 SWAP2 SWAP1 SWAP2 ADD CALLDATALOAD SWAP1 JUMP JUMPDEST PUSH1 0x0 DUP1 PUSH1 0x0 DUP1 PUSH1 0x0 DUP1 PUSH1 0x0 PUSH1 0xE0 DUP9 DUP11 SUB SLT ISZERO PUSH2 0x3D53 JUMPI DUP3 DUP4 REVERT JUMPDEST DUP8 CALLDATALOAD PUSH2 0x3D5E DUP2 PUSH2 0x436D JUMP JUMPDEST SWAP7 POP PUSH1 0x20 DUP9 ADD CALLDATALOAD PUSH2 0x3D6E DUP2 PUSH2 0x436D JUMP JUMPDEST SWAP6 POP PUSH1 0x40 DUP9 ADD CALLDATALOAD SWAP5 POP PUSH1 0x60 DUP9 ADD CALLDATALOAD SWAP4 POP PUSH1 0x80 DUP9 ADD CALLDATALOAD PUSH1 0xFF DUP2 AND DUP2 EQ PUSH2 0x3D91 JUMPI DUP4 DUP5 REVERT JUMPDEST SWAP7 SWAP10 SWAP6 SWAP9 POP SWAP4 SWAP7 SWAP3 SWAP6 SWAP5 PUSH1 0xA0 DUP5 ADD CALLDATALOAD SWAP5 POP PUSH1 0xC0 SWAP1 SWAP4 ADD CALLDATALOAD SWAP3 SWAP2 POP POP JUMP JUMPDEST PUSH1 0x0 DUP1 PUSH1 0x40 DUP4 DUP6 SUB SLT ISZERO PUSH2 0x3DC0 JUMPI DUP2 DUP3 REVERT JUMPDEST DUP3 CALLDATALOAD PUSH2 0x3DCB DUP2 PUSH2 0x436D JUMP JUMPDEST SWAP5 PUSH1 0x20 SWAP4 SWAP1 SWAP4 ADD CALLDATALOAD SWAP4 POP POP POP JUMP JUMPDEST PUSH1 0x0 PUSH1 0x20 DUP3 DUP5 SUB SLT ISZERO PUSH2 0x3DEA JUMPI DUP1 DUP2 REVERT JUMPDEST PUSH2 0x1610 DUP3 PUSH2 0x3C05 JUMP JUMPDEST PUSH1 0x0 DUP1 PUSH1 0x0 DUP1 PUSH1 0x0 DUP1 PUSH1 0x0 PUSH1 0xE0 DUP9 DUP11 SUB SLT ISZERO PUSH2 0x3E0D JUMPI DUP1 DUP2 REVERT JUMPDEST DUP8 CALLDATALOAD SWAP7 POP PUSH1 0x20 DUP1 DUP10 ADD CALLDATALOAD PUSH2 0x3E20 DUP2 PUSH2 0x436D JUMP JUMPDEST SWAP7 POP PUSH1 0x40 DUP10 ADD CALLDATALOAD PUSH2 0x3E30 DUP2 PUSH2 0x436D JUMP JUMPDEST SWAP6 POP PUSH1 0x60 DUP10 ADD CALLDATALOAD PUSH8 0xFFFFFFFFFFFFFFFF DUP1 DUP3 GT ISZERO PUSH2 0x3E4C JUMPI DUP4 DUP5 REVERT JUMPDEST DUP2 DUP12 ADD SWAP2 POP DUP12 PUSH1 0x1F DUP4 ADD SLT PUSH2 0x3E5F JUMPI DUP4 DUP5 REVERT JUMPDEST DUP2 CALLDATALOAD DUP2 DUP2 GT ISZERO PUSH2 0x3E6B JUMPI INVALID JUMPDEST PUSH2 0x3E78 DUP5 DUP6 DUP4 MUL ADD PUSH2 0x4349 JUMP JUMPDEST DUP1 DUP3 DUP3 MSTORE DUP6 DUP3 ADD SWAP2 POP DUP6 DUP6 ADD DUP16 DUP8 DUP9 DUP7 MUL DUP9 ADD ADD GT ISZERO PUSH2 0x3E96 JUMPI DUP8 DUP9 REVERT JUMPDEST DUP8 SWAP6 POP JUMPDEST DUP4 DUP7 LT ISZERO PUSH2 0x3EB8 JUMPI DUP1 CALLDATALOAD DUP4 MSTORE PUSH1 0x1 SWAP6 SWAP1 SWAP6 ADD SWAP5 SWAP2 DUP7 ADD SWAP2 DUP7 ADD PUSH2 0x3E9A JUMP JUMPDEST POP SWAP9 POP POP POP PUSH1 0x80 DUP12 ADD CALLDATALOAD SWAP6 POP PUSH1 0xA0 DUP12 ADD CALLDATALOAD SWAP5 POP PUSH1 0xC0 DUP12 ADD CALLDATALOAD SWAP3 POP DUP1 DUP4 GT ISZERO PUSH2 0x3EDE JUMPI DUP4 DUP5 REVERT JUMPDEST POP POP PUSH2 0x3EEC DUP11 DUP3 DUP12 ADD PUSH2 0x3C15 JUMP JUMPDEST SWAP2 POP POP SWAP3 SWAP6 SWAP9 SWAP2 SWAP5 SWAP8 POP SWAP3 SWAP6 POP JUMP JUMPDEST PUSH1 0x0 PUSH1 0x20 DUP3 DUP5 SUB SLT ISZERO PUSH2 0x3F0C JUMPI DUP1 DUP2 REVERT JUMPDEST DUP2 CALLDATALOAD PUSH1 0x1 PUSH1 0x1 PUSH1 0xE0 SHL SUB NOT DUP2 AND DUP2 EQ PUSH2 0x1610 JUMPI DUP2 DUP3 REVERT JUMPDEST PUSH1 0x0 PUSH1 0x60 DUP3 DUP5 SUB SLT ISZERO PUSH2 0x3F34 JUMPI DUP1 DUP2 REVERT JUMPDEST PUSH1 0x40 MLOAD PUSH1 0x60 DUP2 ADD DUP2 DUP2 LT PUSH8 0xFFFFFFFFFFFFFFFF DUP3 GT OR ISZERO PUSH2 0x3F51 JUMPI INVALID JUMPDEST PUSH1 0x40 MSTORE PUSH2 0x3F5D DUP4 PUSH2 0x3C05 JUMP JUMPDEST DUP2 MSTORE PUSH1 0x20 DUP4 ADD CALLDATALOAD PUSH1 0x1 PUSH1 0x1 PUSH1 0x78 SHL SUB DUP2 AND DUP2 EQ PUSH2 0x3F78 JUMPI DUP3 DUP4 REVERT JUMPDEST PUSH1 0x20 DUP3 ADD MSTORE PUSH1 0x40 DUP4 ADD CALLDATALOAD PUSH1 0x1 PUSH1 0x1 PUSH1 0x80 SHL SUB DUP2 AND DUP2 EQ PUSH2 0x3F96 JUMPI DUP3 DUP4 REVERT JUMPDEST PUSH1 0x40 DUP3 ADD MSTORE SWAP4 SWAP3 POP POP POP JUMP JUMPDEST PUSH1 0x0 DUP1 PUSH1 0x0 PUSH1 0x60 DUP5 DUP7 SUB SLT ISZERO PUSH2 0x3FB6 JUMPI DUP1 DUP2 REVERT JUMPDEST DUP4 CALLDATALOAD PUSH8 0xFFFFFFFFFFFFFFFF DUP1 DUP3 GT ISZERO PUSH2 0x3FCD JUMPI DUP3 DUP4 REVERT JUMPDEST DUP2 DUP7 ADD SWAP2 POP PUSH2 0x120 DUP1 DUP4 DUP10 SUB SLT ISZERO PUSH2 0x3FE3 JUMPI DUP4 DUP5 REVERT JUMPDEST PUSH2 0x3FEC DUP2 PUSH2 0x4349 JUMP JUMPDEST SWAP1 POP PUSH2 0x3FF7 DUP4 PUSH2 0x3C7A JUMP JUMPDEST DUP2 MSTORE PUSH2 0x4005 PUSH1 0x20 DUP5 ADD PUSH2 0x3BFA JUMP JUMPDEST PUSH1 0x20 DUP3 ADD MSTORE PUSH2 0x4016 PUSH1 0x40 DUP5 ADD PUSH2 0x3BFA JUMP JUMPDEST PUSH1 0x40 DUP3 ADD MSTORE PUSH1 0x60 DUP4 ADD CALLDATALOAD PUSH1 0x60 DUP3 ADD MSTORE PUSH1 0x80 DUP4 ADD CALLDATALOAD PUSH1 0x80 DUP3 ADD MSTORE PUSH1 0xA0 DUP4 ADD CALLDATALOAD PUSH1 0xA0 DUP3 ADD MSTORE PUSH2 0x4045 PUSH1 0xC0 DUP5 ADD PUSH2 0x3BFA JUMP JUMPDEST PUSH1 0xC0 DUP3 ADD MSTORE PUSH2 0x4056 PUSH1 0xE0 DUP5 ADD PUSH2 0x3BFA JUMP JUMPDEST PUSH1 0xE0 DUP3 ADD MSTORE PUSH2 0x100 DUP1 DUP5 ADD CALLDATALOAD DUP4 DUP2 GT ISZERO PUSH2 0x406E JUMPI DUP6 DUP7 REVERT JUMPDEST PUSH2 0x407A DUP11 DUP3 DUP8 ADD PUSH2 0x3C15 JUMP JUMPDEST SWAP2 DUP4 ADD SWAP2 SWAP1 SWAP2 MSTORE POP SWAP8 PUSH1 0x20 DUP8 ADD CALLDATALOAD SWAP8 POP PUSH1 0x40 SWAP1 SWAP7 ADD CALLDATALOAD SWAP6 SWAP5 POP POP POP POP POP JUMP JUMPDEST PUSH1 0x0 PUSH1 0x20 DUP3 DUP5 SUB SLT ISZERO PUSH2 0x40AA JUMPI DUP1 DUP2 REVERT JUMPDEST POP CALLDATALOAD SWAP2 SWAP1 POP JUMP JUMPDEST PUSH1 0x0 DUP1 PUSH1 0x0 PUSH1 0x60 DUP5 DUP7 SUB SLT ISZERO PUSH2 0x40C5 JUMPI DUP1 DUP2 REVERT JUMPDEST DUP4 CALLDATALOAD SWAP3 POP PUSH1 0x20 DUP5 ADD CALLDATALOAD SWAP2 POP PUSH2 0x40DC PUSH1 0x40 DUP6 ADD PUSH2 0x3C05 JUMP JUMPDEST SWAP1 POP SWAP3 POP SWAP3 POP SWAP3 JUMP JUMPDEST PUSH1 0x0 DUP1 PUSH1 0x0 DUP1 PUSH1 0x80 DUP6 DUP8 SUB SLT ISZERO PUSH2 0x40FA JUMPI DUP2 DUP3 REVERT JUMPDEST DUP5 MLOAD SWAP4 POP PUSH1 0x20 DUP6 ADD MLOAD SWAP3 POP PUSH1 0x40 DUP6 ADD MLOAD SWAP2 POP PUSH1 0x60 DUP6 ADD MLOAD PUSH2 0x411A DUP2 PUSH2 0x436D JUMP JUMPDEST SWAP4 SWAP7 SWAP3 SWAP6 POP SWAP1 SWAP4 POP POP JUMP JUMPDEST PUSH1 0x0 DUP2 MLOAD DUP1 DUP5 MSTORE PUSH1 0x20 DUP1 DUP6 ADD SWAP5 POP DUP1 DUP5 ADD DUP4 JUMPDEST DUP4 DUP2 LT ISZERO PUSH2 0x4154 JUMPI DUP2 MLOAD DUP8 MSTORE SWAP6 DUP3 ADD SWAP6 SWAP1 DUP3 ADD SWAP1 PUSH1 0x1 ADD PUSH2 0x4138 JUMP JUMPDEST POP SWAP5 SWAP6 SWAP5 POP POP POP POP POP JUMP JUMPDEST PUSH1 0x0 DUP3 DUP5 DUP4 CALLDATACOPY SWAP2 ADD SWAP1 DUP2 MSTORE SWAP2 SWAP1 POP JUMP JUMPDEST PUSH1 0x1 PUSH1 0x1 PUSH1 0xA0 SHL SUB SWAP2 SWAP1 SWAP2 AND DUP2 MSTORE PUSH1 0x20 ADD SWAP1 JUMP JUMPDEST PUSH1 0x40 DUP2 ADD DUP2 DUP4 PUSH1 0x0 JUMPDEST PUSH1 0x2 DUP2 LT ISZERO PUSH2 0x41AB JUMPI DUP2 MLOAD DUP4 MSTORE PUSH1 0x20 SWAP3 DUP4 ADD SWAP3 SWAP1 SWAP2 ADD SWAP1 PUSH1 0x1 ADD PUSH2 0x418C JUMP JUMPDEST POP POP POP SWAP3 SWAP2 POP POP JUMP JUMPDEST PUSH1 0x0 PUSH1 0x20 DUP3 MSTORE PUSH2 0x1610 PUSH1 0x20 DUP4 ADD DUP5 PUSH2 0x4125 JUMP JUMPDEST PUSH1 0x0 PUSH1 0x40 DUP3 MSTORE PUSH2 0x41DA PUSH1 0x40 DUP4 ADD DUP6 PUSH2 0x4125 JUMP JUMPDEST DUP3 DUP2 SUB PUSH1 0x20 DUP5 ADD MSTORE PUSH2 0x2200 DUP2 DUP6 PUSH2 0x4125 JUMP JUMPDEST SWAP1 ISZERO ISZERO DUP2 MSTORE PUSH1 0x20 ADD SWAP1 JUMP JUMPDEST SWAP3 ISZERO ISZERO DUP4 MSTORE PUSH1 0x20 DUP4 ADD SWAP2 SWAP1 SWAP2 MSTORE PUSH1 0x40 DUP3 ADD MSTORE PUSH1 0x60 ADD SWAP1 JUMP JUMPDEST SWAP1 DUP2 MSTORE PUSH1 0x20 ADD SWAP1 JUMP JUMPDEST SWAP2 DUP3 MSTORE PUSH1 0x1 PUSH1 0x1 PUSH1 0xA0 SHL SUB AND PUSH1 0x20 DUP3 ADD MSTORE PUSH1 0x40 ADD SWAP1 JUMP JUMPDEST SWAP6 DUP7 MSTORE PUSH1 0x20 DUP7 ADD SWAP5 SWAP1 SWAP5 MSTORE PUSH1 0x40 DUP6 ADD SWAP3 SWAP1 SWAP3 MSTORE PUSH1 0x60 DUP5 ADD MSTORE ISZERO ISZERO PUSH1 0x80 DUP4 ADD MSTORE PUSH1 0xA0 DUP3 ADD MSTORE PUSH1 0xC0 ADD SWAP1 JUMP JUMPDEST PUSH1 0x0 PUSH1 0x20 DUP1 DUP4 MSTORE DUP4 MLOAD DUP1 DUP3 DUP6 ADD MSTORE DUP3 JUMPDEST DUP2 DUP2 LT ISZERO PUSH2 0x4285 JUMPI DUP6 DUP2 ADD DUP4 ADD MLOAD DUP6 DUP3 ADD PUSH1 0x40 ADD MSTORE DUP3 ADD PUSH2 0x4269 JUMP JUMPDEST DUP2 DUP2 GT ISZERO PUSH2 0x4296 JUMPI DUP4 PUSH1 0x40 DUP4 DUP8 ADD ADD MSTORE JUMPDEST POP PUSH1 0x1F ADD PUSH1 0x1F NOT AND SWAP3 SWAP1 SWAP3 ADD PUSH1 0x40 ADD SWAP4 SWAP3 POP POP POP JUMP JUMPDEST DUP2 MLOAD ISZERO ISZERO DUP2 MSTORE PUSH1 0x20 DUP1 DUP4 ADD MLOAD PUSH1 0x1 PUSH1 0x1 PUSH1 0x78 SHL SUB AND SWAP1 DUP3 ADD MSTORE PUSH1 0x40 SWAP2 DUP3 ADD MLOAD PUSH1 0x1 PUSH1 0x1 PUSH1 0x80 SHL SUB AND SWAP2 DUP2 ADD SWAP2 SWAP1 SWAP2 MSTORE PUSH1 0x60 ADD SWAP1 JUMP JUMPDEST SWAP1 SLOAD PUSH1 0xFF DUP2 AND ISZERO ISZERO DUP3 MSTORE PUSH1 0x8 DUP2 SWAP1 SHR PUSH1 0x1 PUSH1 0x1 PUSH1 0x78 SHL SUB AND PUSH1 0x20 DUP4 ADD MSTORE PUSH1 0x80 SHR PUSH1 0x40 DUP3 ADD MSTORE PUSH1 0x60 ADD SWAP1 JUMP JUMPDEST PUSH1 0x0 DUP4 DUP3 MSTORE PUSH1 0x40 PUSH1 0x20 DUP4 ADD MSTORE PUSH2 0x2177 PUSH1 0x40 DUP4 ADD DUP5 PUSH2 0x4125 JUMP JUMPDEST SWAP3 DUP4 MSTORE PUSH1 0x20 DUP4 ADD SWAP2 SWAP1 SWAP2 MSTORE PUSH1 0x40 DUP3 ADD MSTORE PUSH1 0x60 ADD SWAP1 JUMP JUMPDEST PUSH1 0xFF SWAP2 SWAP1 SWAP2 AND DUP2 MSTORE PUSH1 0x20 ADD SWAP1 JUMP JUMPDEST PUSH1 0x40 MLOAD DUP2 DUP2 ADD PUSH8 0xFFFFFFFFFFFFFFFF DUP2 GT DUP3 DUP3 LT OR ISZERO PUSH2 0x4365 JUMPI INVALID JUMPDEST PUSH1 0x40 MSTORE SWAP2 SWAP1 POP JUMP JUMPDEST PUSH1 0x1 PUSH1 0x1 PUSH1 0xA0 SHL SUB DUP2 AND DUP2 EQ PUSH2 0x73A JUMPI PUSH1 0x0 DUP1 REVERT INVALID LOG2 PUSH5 0x6970667358 0x22 SLT KECCAK256 0xBE 0xC DIFFICULTY 0x2D 0xF 0xE2 0x5F 0xC0 0xFC BYTE SWAP9 0x2D DUP4 0xB0 0xEB PUSH22 0xBB31050EB8A81B36F1B06A0B5AC56C4964736F6C6343 STOP SMOD MOD STOP CALLER ","sha1":"79b4ba688ea34e34c8d6d5acf317c8211473f1b8","source":"// SPDX-License-Identifier: LicenseRef-Gyro-1.0\n// for information on licensing please see the README in the GitHub repository <https://github.com/gyrostable/concentrated-lps>.\n\npragma solidity 0.7.6;\npragma experimental ABIEncoderV2;\n\n// import \"@balancer-labs/v2-solidity-utils/contracts/math/FixedPoint.sol\";\nimport \"../../libraries/GyroFixedPoint.sol\";\n\nimport \"@balancer-labs/v2-pool-weighted/contracts/WeightedPoolUserDataHelpers.sol\";\nimport \"@balancer-labs/v2-pool-weighted/contracts/WeightedPool2TokensMiscData.sol\";\n\nimport \"../../libraries/GyroConfigKeys.sol\";\nimport \"../../libraries/GyroConfigHelpers.sol\";\nimport \"../../interfaces/IGyroConfig.sol\";\nimport \"../../libraries/GyroPoolMath.sol\";\nimport \"../../libraries/GyroErrors.sol\";\n\nimport \"../CappedLiquidity.sol\";\nimport \"../LocallyPausable.sol\";\nimport \"../ExtensibleWeightedPool2Tokens.sol\";\nimport \"./Gyro2CLPPoolErrors.sol\";\nimport \"./Gyro2CLPMath.sol\";\n\ncontract Gyro2CLPPool is ExtensibleWeightedPool2Tokens, CappedLiquidity, LocallyPausable {\n    using GyroFixedPoint for uint256;\n    using WeightedPoolUserDataHelpers for bytes;\n    using WeightedPool2TokensMiscData for bytes32;\n    using GyroConfigHelpers for IGyroConfig;\n\n    uint256 private immutable _sqrtAlpha;\n    uint256 private immutable _sqrtBeta;\n    bytes32 private constant POOL_TYPE = \"2CLP\";\n\n    IGyroConfig public gyroConfig;\n\n    struct GyroParams {\n        NewPoolParams baseParams;\n        uint256 sqrtAlpha; // A: Should already be upscaled\n        uint256 sqrtBeta; // A: Should already be upscaled. Could be passed as an array[](2)\n        address capManager;\n        CapParams capParams;\n        address pauseManager;\n    }\n\n    constructor(GyroParams memory params, address configAddress)\n        ExtensibleWeightedPool2Tokens(params.baseParams)\n        CappedLiquidity(params.capManager, params.capParams)\n        LocallyPausable(params.pauseManager)\n    {\n        _grequire(params.sqrtAlpha < params.sqrtBeta, Gyro2CLPPoolErrors.SQRT_PARAMS_WRONG);\n        _grequire(configAddress != address(0), GyroErrors.ZERO_ADDRESS);\n        _sqrtAlpha = params.sqrtAlpha;\n        _sqrtBeta = params.sqrtBeta;\n\n        gyroConfig = IGyroConfig(configAddress);\n    }\n\n    /// @dev Returns sqrtAlpha and sqrtBeta (square roots of lower and upper price bounds of p_x respectively)\n    function getSqrtParameters() external view returns (uint256[2] memory) {\n        return _sqrtParameters();\n    }\n\n    function _sqrtParameters() internal view virtual returns (uint256[2] memory virtualParameters) {\n        virtualParameters[0] = _sqrtParameters(true);\n        virtualParameters[1] = _sqrtParameters(false);\n        return virtualParameters;\n    }\n\n    function _sqrtParameters(bool parameter0) internal view virtual returns (uint256) {\n        return parameter0 ? _sqrtAlpha : _sqrtBeta;\n    }\n\n    /** @dev Reads the balance of a token from the balancer vault and returns the scaled amount. Smaller storage access\n     * compared to getVault().getPoolTokens().\n     * Copied from the 3CLP *except* that for the 2CLP, the scalingFactor is interpreted as a regular integer, not a\n     * FixedPoint number. This is an inconsistency between the base contracts.\n     */\n    function _getScaledTokenBalance(IERC20 token, uint256 scalingFactor) internal view returns (uint256 balance) {\n        // Signature of getPoolTokenInfo(): (pool id, token) -> (cash, managed, lastChangeBlock, assetManager)\n        // and total amount = cash + managed. See balancer repo, PoolTokens.sol and BalanceAllocation.sol\n        (uint256 cash, uint256 managed, , ) = getVault().getPoolTokenInfo(getPoolId(), token);\n        balance = cash + managed; // can't overflow, see BalanceAllocation.sol::total() in the Balancer repo.\n        balance = balance.mulDown(scalingFactor);\n    }\n\n    /** @dev Get all balances in the pool, scaled by the appropriate scaling factors, in a relatively gas-efficient way.\n     * Essentially copied from the 3CLP.\n     */\n    function _getAllBalances() internal view returns (uint256[] memory balances) {\n        // The below is more gas-efficient than the following line because the token slots don't have to be read in the\n        // vault.\n        // (, uint256[] memory balances, ) = getVault().getPoolTokens(getPoolId());\n        balances = new uint256[](2);\n        balances[0] = _getScaledTokenBalance(_token0, _scalingFactor(true));\n        balances[1] = _getScaledTokenBalance(_token1, _scalingFactor(false));\n        return balances;\n    }\n\n    /// @dev Returns virtual offsets a and b for reserves x and y respectively, as in (x+a)*(y+b)=L^2\n    function getVirtualParameters() external view returns (uint256[] memory virtualParams) {\n        uint256[] memory balances = _getAllBalances();\n        // _calculateCurrentValues() is defined in terms of an in/out pair, but we just map this to the 0/1 (x/y) pair.\n        virtualParams = new uint256[](2);\n        (, virtualParams[0], virtualParams[1]) = _calculateCurrentValues(balances[0], balances[1], true);\n    }\n\n    function _getVirtualParameters(uint256[2] memory sqrtParams, uint256 invariant)\n        internal\n        view\n        virtual\n        returns (uint256[2] memory virtualParameters)\n    {\n        virtualParameters[0] = _virtualParameters(true, sqrtParams[1], invariant);\n        virtualParameters[1] = _virtualParameters(false, sqrtParams[0], invariant);\n        return virtualParameters;\n    }\n\n    function _virtualParameters(\n        bool parameter0,\n        uint256 sqrtParam,\n        uint256 invariant\n    ) internal view virtual returns (uint256) {\n        return\n            parameter0\n                ? (Gyro2CLPMath._calculateVirtualParameter0(invariant, sqrtParam))\n                : (Gyro2CLPMath._calculateVirtualParameter1(invariant, sqrtParam));\n    }\n\n    /**\n     * @dev Returns the current value of the invariant.\n     */\n    function getInvariant() public view override returns (uint256) {\n        uint256[] memory balances = _getAllBalances();\n        uint256[2] memory sqrtParams = _sqrtParameters();\n\n        return Gyro2CLPMath._calculateInvariant(balances, sqrtParams[0], sqrtParams[1]);\n    }\n\n    function _getPrice(\n        uint256[] memory balances,\n        uint256 virtualParam0,\n        uint256 virtualParam1\n    ) internal pure returns (uint256 spotPrice) {\n        return Gyro2CLPMath._calcSpotPriceAinB(balances[0], virtualParam0, balances[1], virtualParam1);\n    }\n\n    /** @dev Returns the current spot price of token0 quoted in units of token1.\n     */\n    function getPrice() external view returns (uint256 spotPrice) {\n        uint256[] memory balances = _getAllBalances();\n        (uint256 invariant, uint256 virtualParam0, uint256 virtualParam1) = _calculateCurrentValues(balances[0], balances[1], true);\n        return _getPrice(balances, virtualParam0, virtualParam1);\n    }\n\n    // Swap Hooks\n\n    function onSwap(\n        SwapRequest memory request,\n        uint256 balanceTokenIn,\n        uint256 balanceTokenOut\n    ) public virtual override whenNotPaused onlyVault(request.poolId) returns (uint256) {\n        bool tokenInIsToken0 = request.tokenIn == _token0;\n\n        uint256 scalingFactorTokenIn = _scalingFactor(tokenInIsToken0);\n        uint256 scalingFactorTokenOut = _scalingFactor(!tokenInIsToken0);\n\n        // All token amounts are upscaled.\n        balanceTokenIn = _upscale(balanceTokenIn, scalingFactorTokenIn);\n        balanceTokenOut = _upscale(balanceTokenOut, scalingFactorTokenOut);\n\n        // All the calculations in one function to avoid Error Stack Too Deep\n        (uint256 currentInvariant, uint256 virtualParamIn, uint256 virtualParamOut) = _calculateCurrentValues(\n            balanceTokenIn,\n            balanceTokenOut,\n            tokenInIsToken0\n        );\n\n        if (request.kind == IVault.SwapKind.GIVEN_IN) {\n            // Fees are subtracted before scaling, to reduce the complexity of the rounding direction analysis.\n            // This is amount - fee amount, so we round up (favoring a higher fee amount).\n            uint256 feeAmount = request.amount.mulUp(getSwapFeePercentage());\n            // subtract fee and upscale so request.amount is appropriate for the following pool math.\n            request.amount = _upscale(request.amount.sub(feeAmount), scalingFactorTokenIn);\n\n            uint256 amountOut = _onSwapGivenIn(request, balanceTokenIn, balanceTokenOut, virtualParamIn, virtualParamOut);\n\n            // amountOut tokens are exiting the Pool, so we round down.\n            return _downscaleDown(amountOut, scalingFactorTokenOut);\n        } else {\n            request.amount = _upscale(request.amount, scalingFactorTokenOut);\n\n            uint256 amountIn = _onSwapGivenOut(request, balanceTokenIn, balanceTokenOut, virtualParamIn, virtualParamOut);\n\n            // amountIn tokens are entering the Pool, so we round up.\n            amountIn = _downscaleUp(amountIn, scalingFactorTokenIn);\n\n            // Fees are added after scaling happens, to reduce the complexity of the rounding direction analysis.\n            // This is amount + fee amount, so we round up (favoring a higher fee amount).\n            return amountIn.divUp(getSwapFeePercentage().complement());\n        }\n    }\n\n    // We assume all amounts to be upscaled correctly\n    function _onSwapGivenIn(\n        SwapRequest memory swapRequest,\n        uint256 currentBalanceTokenIn,\n        uint256 currentBalanceTokenOut,\n        uint256 virtualParamIn,\n        uint256 virtualParamOut\n    ) internal pure override returns (uint256) {\n        // NB: Swaps are disabled while the contract is paused.\n        return Gyro2CLPMath._calcOutGivenIn(currentBalanceTokenIn, currentBalanceTokenOut, swapRequest.amount, virtualParamIn, virtualParamOut);\n    }\n\n    function _onSwapGivenOut(\n        SwapRequest memory swapRequest,\n        uint256 currentBalanceTokenIn,\n        uint256 currentBalanceTokenOut,\n        uint256 virtualParamIn,\n        uint256 virtualParamOut\n    ) internal pure override returns (uint256) {\n        // NB: Swaps are disabled while the contract is paused.\n        return Gyro2CLPMath._calcInGivenOut(currentBalanceTokenIn, currentBalanceTokenOut, swapRequest.amount, virtualParamIn, virtualParamOut);\n    }\n\n    /// @dev invariant and virtual offsets.\n    function calculateCurrentValues(\n        uint256 balanceTokenIn, // not scaled\n        uint256 balanceTokenOut, // not scaled\n        bool tokenInIsToken0\n    )\n        public\n        view\n        returns (\n            uint256 currentInvariant,\n            uint256 virtualParamIn,\n            uint256 virtualParamOut\n        )\n    {\n        uint256 scalingFactorTokenIn = _scalingFactor(tokenInIsToken0);\n        uint256 scalingFactorTokenOut = _scalingFactor(!tokenInIsToken0);\n        balanceTokenIn = _upscale(balanceTokenIn, scalingFactorTokenIn);\n        balanceTokenOut = _upscale(balanceTokenOut, scalingFactorTokenOut);\n        return _calculateCurrentValues(balanceTokenIn, balanceTokenOut, tokenInIsToken0);\n    }\n\n    function _calculateCurrentValues(\n        uint256 balanceTokenIn, // scaled\n        uint256 balanceTokenOut, // scaled\n        bool tokenInIsToken0\n    )\n        internal\n        view\n        returns (\n            uint256 currentInvariant,\n            uint256 virtualParamIn,\n            uint256 virtualParamOut\n        )\n    {\n        uint256[] memory balances = new uint256[](2);\n        balances[0] = tokenInIsToken0 ? balanceTokenIn : balanceTokenOut;\n        balances[1] = tokenInIsToken0 ? balanceTokenOut : balanceTokenIn;\n\n        uint256[2] memory sqrtParams = _sqrtParameters();\n\n        currentInvariant = Gyro2CLPMath._calculateInvariant(balances, sqrtParams[0], sqrtParams[1]);\n\n        uint256[2] memory virtualParam = _getVirtualParameters(sqrtParams, currentInvariant);\n\n        virtualParamIn = tokenInIsToken0 ? virtualParam[0] : virtualParam[1];\n        virtualParamOut = tokenInIsToken0 ? virtualParam[1] : virtualParam[0];\n    }\n\n    /**\n     * @dev Called when the Pool is joined for the first time; that is, when the BPT total supply is zero.\n     *\n     * Returns the amount of BPT to mint, and the token amounts the Pool will receive in return.\n     *\n     * Minted BPT will be sent to `recipient`, except for _MINIMUM_BPT, which will be deducted from this amount and sent\n     * to the zero address instead. This will cause that BPT to remain forever locked there, preventing total BPT from\n     * ever dropping below that value, and ensuring `_onInitializePool` can only be called once in the entire Pool's\n     * lifetime.\n     *\n     * The tokens granted to the Pool will be transferred from `sender`. These amounts are considered upscaled and will\n     * be downscaled (rounding up) before being returned to the Vault.\n     */\n    function _onInitializePool(\n        bytes32,\n        address,\n        address,\n        bytes memory userData\n    ) internal override returns (uint256, uint256[] memory) {\n        BaseWeightedPool.JoinKind kind = userData.joinKind();\n        _require(kind == BaseWeightedPool.JoinKind.INIT, Errors.UNINITIALIZED);\n\n        uint256[] memory amountsIn = userData.initialAmountsIn();\n        InputHelpers.ensureInputLengthMatch(amountsIn.length, 2);\n        _upscaleArray(amountsIn);\n\n        (uint256 invariantAfterJoin, uint256 virtualParam0, uint256 virtualParam1) = _calculateCurrentValues(amountsIn[0], amountsIn[1], true);\n\n        /* We initialize the number of BPT tokens such that one BPT token corresponds to one unit of token1 at the initialized pool price. This makes BPT tokens comparable across pools with different parameters. Note that the invariant does *not* have this property!\n         */\n        uint256 spotPrice = _getPrice(amountsIn, virtualParam0, virtualParam1);\n        uint256 bptAmountOut = Math.add(amountsIn[0].mulDown(spotPrice), amountsIn[1]);\n\n        _lastInvariant = invariantAfterJoin;\n\n        return (bptAmountOut, amountsIn);\n    }\n\n    /**\n     * @dev Called whenever the Pool is joined after the first initialization join (see `_onInitializePool`).\n     *\n     * Returns the amount of BPT to mint, the token amounts that the Pool will receive in return, and the number of\n     * tokens to pay in protocol swap fees.\n     *\n     * Implementations of this function might choose to mutate the `balances` array to save gas (e.g. when\n     * performing intermediate calculations, such as subtraction of due protocol fees). This can be done safely.\n     *\n     * Minted BPT will be sent to `recipient`.\n     *\n     * The tokens granted to the Pool will be transferred from `sender`. These amounts are considered upscaled and will\n     * be downscaled (rounding up) before being returned to the Vault.\n     *\n     * Due protocol swap fees will be taken from the Pool's balance in the Vault (see `IBasePool.onJoinPool`). These\n     * amounts are considered upscaled and will be downscaled (rounding down) before being returned to the Vault.\n     *\n     * protocolSwapFeePercentage argument is intentionally unused as protocol fees are handled in a different way\n     *\n     */\n    function _onJoinPool(\n        bytes32,\n        address,\n        address recipient,\n        uint256[] memory balances,\n        uint256 lastChangeBlock,\n        uint256, //protocolSwapFeePercentage,\n        bytes memory userData\n    )\n        internal\n        override\n        returns (\n            uint256,\n            uint256[] memory,\n            uint256[] memory\n        )\n    {\n        // NB Joins are disabled when the pool is paused.\n\n        uint256[2] memory sqrtParams = _sqrtParameters();\n\n        // Due protocol swap fee amounts are computed by measuring the growth of the invariant between the previous\n        // join or exit event and now - the invariant's growth is due exclusively to swap fees. This avoids\n        // spending gas accounting for fees on each individual swap.\n        uint256 invariantBeforeAction = Gyro2CLPMath._calculateInvariant(balances, sqrtParams[0], sqrtParams[1]);\n        uint256[2] memory virtualParam = _getVirtualParameters(sqrtParams, invariantBeforeAction);\n\n        _distributeFees(invariantBeforeAction);\n\n        (uint256 bptAmountOut, uint256[] memory amountsIn) = _doJoin(balances, userData);\n\n        if (_capParams.capEnabled) {\n            _ensureCap(bptAmountOut, balanceOf(recipient), totalSupply());\n        }\n\n        // Since we pay fees in BPT, they have not changed the invariant and 'invariantBeforeAction' is still consistent\n        // with  'balances'. Therefore, we can use a simplified method to update the invariant that does not require a\n        // full re-computation.\n        // Note: Should this be changed in the future, we also need to reduce the invariant proportionally by the total\n        // protocol fee factor.\n        _lastInvariant = GyroPoolMath.liquidityInvariantUpdate(invariantBeforeAction, bptAmountOut, totalSupply(), true);\n\n        // returns a new uint256[](2) b/c Balancer vault is expecting a fee array, but fees paid in BPT instead\n        return (bptAmountOut, amountsIn, new uint256[](2));\n    }\n\n    function _doJoin(uint256[] memory balances, bytes memory userData) internal view returns (uint256 bptAmountOut, uint256[] memory amountsIn) {\n        BaseWeightedPool.JoinKind kind = userData.joinKind();\n\n        // We do NOT currently support unbalanced update, i.e., EXACT_TOKENS_IN_FOR_BPT_OUT or TOKEN_IN_FOR_EXACT_BPT_OUT\n        if (kind == BaseWeightedPool.JoinKind.ALL_TOKENS_IN_FOR_EXACT_BPT_OUT) {\n            (bptAmountOut, amountsIn) = _joinAllTokensInForExactBPTOut(balances, userData);\n        } else {\n            _revert(Errors.UNHANDLED_JOIN_KIND);\n        }\n    }\n\n    function _joinAllTokensInForExactBPTOut(uint256[] memory balances, bytes memory userData)\n        internal\n        view\n        override\n        returns (uint256, uint256[] memory)\n    {\n        uint256 bptAmountOut = userData.allTokensInForExactBptOut();\n        // Note that there is no maximum amountsIn parameter: this is handled by `IVault.joinPool`.\n\n        uint256[] memory amountsIn = GyroPoolMath._calcAllTokensInGivenExactBptOut(balances, bptAmountOut, totalSupply());\n\n        return (bptAmountOut, amountsIn);\n    }\n\n    /**\n     * @dev Called whenever the Pool is exited.\n     *\n     * Returns the amount of BPT to burn, the token amounts for each Pool token that the Pool will grant in return, and\n     * the number of tokens to pay in protocol swap fees.\n     *\n     * Implementations of this function might choose to mutate the `balances` array to save gas (e.g. when\n     * performing intermediate calculations, such as subtraction of due protocol fees). This can be done safely.\n     *\n     * BPT will be burnt from `sender`.\n     *\n     * The Pool will grant tokens to `recipient`. These amounts are considered upscaled and will be downscaled\n     * (rounding down) before being returned to the Vault.\n     *\n     * Due protocol swap fees will be taken from the Pool's balance in the Vault (see `IBasePool.onExitPool`). These\n     * amounts are considered upscaled and will be downscaled (rounding down) before being returned to the Vault.\n     *\n     * protocolSwapFeePercentage argument is intentionally unused as protocol fees are handled in a different way\n     */\n    function _onExitPool(\n        bytes32,\n        address,\n        address,\n        uint256[] memory balances,\n        uint256 lastChangeBlock,\n        uint256, // protocolSwapFeePercentage,\n        bytes memory userData\n    )\n        internal\n        override\n        returns (\n            uint256 bptAmountIn,\n            uint256[] memory amountsOut,\n            uint256[] memory dueProtocolFeeAmounts\n        )\n    {\n        // Exits are not completely disabled while the contract is paused: proportional exits (exact BPT in for tokens\n        // out) remain functional.\n\n        uint256[2] memory sqrtParams = _sqrtParameters();\n\n        if (_isNotPaused()) {\n            // Due protocol swap fee amounts are computed by measuring the growth of the invariant between the previous\n            // join or exit event and now - the invariant's growth is due exclusively to swap fees. This avoids\n            // spending gas calculating the fees on each individual swap.\n            uint256 invariantBeforeAction = Gyro2CLPMath._calculateInvariant(balances, sqrtParams[0], sqrtParams[1]);\n            uint256[2] memory virtualParam = _getVirtualParameters(sqrtParams, invariantBeforeAction);\n\n            _distributeFees(invariantBeforeAction);\n\n            (bptAmountIn, amountsOut) = _doExit(balances, userData);\n\n            // Since we pay fees in BPT, they have not changed the invariant and 'invariantBeforeAction' is still\n            // consistent with 'balances'. Therefore, we can use a simplified method to update the invariant that does\n            // not require a full re-computation.\n            // Note: Should this be changed in the future, we also need to reduce the invariant proportionally by the\n            // total protocol fee factor.\n            _lastInvariant = GyroPoolMath.liquidityInvariantUpdate(invariantBeforeAction, bptAmountIn, totalSupply(), false);\n        } else {\n            // Note: If the contract is paused, swap protocol fee amounts are not charged\n            // to avoid extra calculations and reduce the potential for errors.\n            (bptAmountIn, amountsOut) = _doExit(balances, userData);\n\n            // Invalidate _lastInvariant. We do not compute the invariant to reduce the potential for errors or lockup.\n            // Instead, we set the invariant such that any following (non-paused) join/exit will ignore and recompute\n            // it. (see GyroPoolMath._calcProtocolFees())\n            _lastInvariant = type(uint256).max;\n        }\n\n        // returns a new uint256[](2) b/c Balancer vault is expecting a fee array, but fees paid in BPT instead\n        return (bptAmountIn, amountsOut, new uint256[](2));\n    }\n\n    function _doExit(uint256[] memory balances, bytes memory userData) internal view returns (uint256 bptAmountIn, uint256[] memory amountsOut) {\n        BaseWeightedPool.ExitKind kind = userData.exitKind();\n\n        // We do NOT support unbalanced exit at the moment, i.e., EXACT_BPT_IN_FOR_ONE_TOKEN_OUT or\n        // BPT_IN_FOR_EXACT_TOKENS_OUT.\n        if (kind == BaseWeightedPool.ExitKind.EXACT_BPT_IN_FOR_TOKENS_OUT) {\n            (bptAmountIn, amountsOut) = _exitExactBPTInForTokensOut(balances, userData);\n        } else {\n            _revert(Errors.UNHANDLED_EXIT_KIND);\n        }\n    }\n\n    function _exitExactBPTInForTokensOut(uint256[] memory balances, bytes memory userData)\n        internal\n        view\n        override\n        returns (uint256, uint256[] memory)\n    {\n        // This exit function is the only one that is not disabled if the contract is paused: it remains unrestricted\n        // in an attempt to provide users with a mechanism to retrieve their tokens in case of an emergency.\n        // This particular exit function is the only one that remains available because it is the simplest one, and\n        // therefore the one with the lowest likelihood of errors.\n\n        uint256 bptAmountIn = userData.exactBptInForTokensOut();\n        // Note that there is no minimum amountOut parameter: this is handled by `IVault.exitPool`.\n\n        uint256[] memory amountsOut = GyroPoolMath._calcTokensOutGivenExactBptIn(balances, bptAmountIn, totalSupply());\n        return (bptAmountIn, amountsOut);\n    }\n\n    // Helpers\n\n    /**\n     * @dev Computes and distributes fees between the Balancer and the Gyro treasury\n     * The fees are computed and distributed in BPT rather than using the\n     * Balancer regular distribution mechanism which would pay these in underlying\n     */\n\n    function _distributeFees(uint256 invariantBeforeAction) internal {\n        // calculate Protocol fees in BPT\n        // lastInvariant is the invariant logged at the end of the last liquidity update\n        // protocol fees are calculated on swap fees earned between liquidity updates\n        (uint256 gyroFees, uint256 balancerFees, address gyroTreasury, address balTreasury) = _getDueProtocolFeeAmounts(\n            _lastInvariant,\n            invariantBeforeAction\n        );\n\n        // Pay fees in BPT\n        _payFeesBpt(gyroFees, balancerFees, gyroTreasury, balTreasury);\n    }\n\n    /**\n     * @dev this function overrides inherited function to make sure it is never used\n     */\n    function _getDueProtocolFeeAmounts(\n        uint256[] memory, // balances,\n        uint256[] memory, // normalizedWeights,\n        uint256, // previousInvariant,\n        uint256, // currentInvariant,\n        uint256 // protocolSwapFeePercentage\n    ) internal pure override returns (uint256[] memory) {\n        revert(\"Not implemented\");\n    }\n\n    /**\n     * @dev Calculates protocol fee amounts in BPT terms.\n     * protocolSwapFeePercentage is not used here b/c we take parameters from GyroConfig instead.\n     * Returns: BPT due to Gyro, BPT due to Balancer, receiving address for Gyro fees, receiving address for Balancer\n     * fees.\n     */\n    function _getDueProtocolFeeAmounts(uint256 previousInvariant, uint256 currentInvariant)\n        internal\n        view\n        returns (\n            uint256,\n            uint256,\n            address,\n            address\n        )\n    {\n        (uint256 protocolSwapFeePerc, uint256 protocolFeeGyroPortion, address gyroTreasury, address balTreasury) = _getFeesMetadata();\n\n        // Early return if the protocol swap fee percentage is zero, saving gas.\n        if (protocolSwapFeePerc == 0) {\n            return (0, 0, gyroTreasury, balTreasury);\n        }\n\n        // Calculate fees in BPT\n        (uint256 gyroFees, uint256 balancerFees) = GyroPoolMath._calcProtocolFees(\n            previousInvariant,\n            currentInvariant,\n            totalSupply(),\n            protocolSwapFeePerc,\n            protocolFeeGyroPortion\n        );\n\n        return (gyroFees, balancerFees, gyroTreasury, balTreasury);\n    }\n\n    function _payFeesBpt(\n        uint256 gyroFees,\n        uint256 balancerFees,\n        address gyroTreasury,\n        address balTreasury\n    ) internal {\n        // Pay fees in BPT to gyro treasury\n        if (gyroFees > 0) {\n            _mintPoolTokens(gyroTreasury, gyroFees);\n        }\n        // Pay fees in BPT to bal treasury\n        if (balancerFees > 0) {\n            _mintPoolTokens(balTreasury, balancerFees);\n        }\n    }\n\n    function _getFeesMetadata()\n        internal\n        view\n        returns (\n            uint256,\n            uint256,\n            address,\n            address\n        )\n    {\n        return (\n            gyroConfig.getSwapFeePercForPool(address(this), POOL_TYPE),\n            gyroConfig.getProtocolFeeGyroPortionForPool(address(this), POOL_TYPE),\n            gyroConfig.getAddress(GyroConfigKeys.GYRO_TREASURY_KEY),\n            gyroConfig.getAddress(GyroConfigKeys.BAL_TREASURY_KEY)\n        );\n    }\n\n    /** @notice Effective BPT supply.\n     *\n     *  This is the same as `totalSupply()` but also accounts for the fact that the pool owes\n     *  protocol fees to the pool in the form of unminted LP shares created on the next join/exit,\n     *  diluting LPers. Thus, this is the totalSupply() that the next join/exit operation will see.\n     *\n     *  Equivalent to the respective function in, e.g., WeightedPool, see:\n     *  https://github.com/balancer/balancer-v2-monorepo/blob/master/pkg/pool-weighted/contracts/WeightedPool.sol#L325-L344\n     */\n    function getActualSupply() external view returns (uint256) {\n        uint256 supply = totalSupply();\n        (uint256 gyroFees, uint256 balancerFees, , ) = _getDueProtocolFeeAmounts(_lastInvariant, getInvariant());\n        return supply.add(gyroFees).add(balancerFees);\n    }\n\n    /// @notice Equivalent to but more efficient than `getInvariant().divDown(getActualSupply())`.\n    function getInvariantDivActualSupply() external view returns (uint256) {\n        uint256 invariant = getInvariant();\n        uint256 supply = totalSupply();\n        (uint256 gyroFees, uint256 balancerFees, , ) = _getDueProtocolFeeAmounts(_lastInvariant, invariant);\n        uint256 actualSupply = supply.add(gyroFees).add(balancerFees);\n        return invariant.divDown(actualSupply);\n    }\n\n    function _setPausedState(bool paused) internal override {\n        _setPaused(paused);\n    }\n}\n","sourcePath":"contracts/2clp/Gyro2CLPPool.sol","type":"contract","deployment":{"address":"0x918390Ee7D83E79E3020A7f72df3f181cc9c029D","chainid":"137","blockHeight":45579527}}