{"abi":[{"inputs":[{"internalType":"contract IVault","name":"vault","type":"address"},{"internalType":"address","name":"_gyroConfigAddress","type":"address"}],"stateMutability":"nonpayable","type":"constructor","name":"constructor"},{"anonymous":false,"inputs":[{"indexed":true,"internalType":"address","name":"pool","type":"address"}],"name":"PoolCreated","type":"event"},{"inputs":[],"name":"BUFFER_PERIOD_DURATION","outputs":[{"internalType":"uint256","name":"","type":"uint256"}],"stateMutability":"view","type":"function"},{"inputs":[],"name":"PAUSE_WINDOW_DURATION","outputs":[{"internalType":"uint256","name":"","type":"uint256"}],"stateMutability":"view","type":"function"},{"inputs":[{"internalType":"string","name":"name","type":"string"},{"internalType":"string","name":"symbol","type":"string"},{"internalType":"contract IERC20[]","name":"tokens","type":"address[]"},{"components":[{"internalType":"int256","name":"alpha","type":"int256"},{"internalType":"int256","name":"beta","type":"int256"},{"internalType":"int256","name":"c","type":"int256"},{"internalType":"int256","name":"s","type":"int256"},{"internalType":"int256","name":"lambda","type":"int256"}],"internalType":"struct GyroECLPMath.Params","name":"eclpParams","type":"tuple"},{"components":[{"components":[{"internalType":"int256","name":"x","type":"int256"},{"internalType":"int256","name":"y","type":"int256"}],"internalType":"struct GyroECLPMath.Vector2","name":"tauAlpha","type":"tuple"},{"components":[{"internalType":"int256","name":"x","type":"int256"},{"internalType":"int256","name":"y","type":"int256"}],"internalType":"struct GyroECLPMath.Vector2","name":"tauBeta","type":"tuple"},{"internalType":"int256","name":"u","type":"int256"},{"internalType":"int256","name":"v","type":"int256"},{"internalType":"int256","name":"w","type":"int256"},{"internalType":"int256","name":"z","type":"int256"},{"internalType":"int256","name":"dSq","type":"int256"}],"internalType":"struct GyroECLPMath.DerivedParams","name":"derivedECLPParams","type":"tuple"},{"internalType":"address[]","name":"rateProviders","type":"address[]"},{"internalType":"uint256","name":"swapFeePercentage","type":"uint256"},{"internalType":"bool","name":"oracleEnabled","type":"bool"},{"internalType":"address","name":"owner","type":"address"},{"internalType":"address","name":"capManager","type":"address"},{"components":[{"internalType":"bool","name":"capEnabled","type":"bool"},{"internalType":"uint120","name":"perAddressCap","type":"uint120"},{"internalType":"uint128","name":"globalCap","type":"uint128"}],"internalType":"struct ICappedLiquidity.CapParams","name":"capParams","type":"tuple"},{"internalType":"address","name":"pauseManager","type":"address"}],"name":"create","outputs":[{"internalType":"address","name":"","type":"address"}],"stateMutability":"nonpayable","type":"function"},{"inputs":[],"name":"getCreationCode","outputs":[{"internalType":"bytes","name":"","type":"bytes"}],"stateMutability":"view","type":"function"},{"inputs":[],"name":"getCreationCodeContracts","outputs":[{"internalType":"address","name":"contractA","type":"address"},{"internalType":"address","name":"contractB","type":"address"}],"stateMutability":"view","type":"function"},{"inputs":[],"name":"getPauseConfiguration","outputs":[{"internalType":"uint256","name":"pauseWindowDuration","type":"uint256"},{"internalType":"uint256","name":"bufferPeriodDuration","type":"uint256"}],"stateMutability":"view","type":"function"},{"inputs":[],"name":"getVault","outputs":[{"internalType":"contract IVault","name":"","type":"address"}],"stateMutability":"view","type":"function"},{"inputs":[],"name":"gyroConfigAddress","outputs":[{"internalType":"address","name":"","type":"address"}],"stateMutability":"view","type":"function"},{"inputs":[{"internalType":"address","name":"pool","type":"address"}],"name":"isPoolFromFactory","outputs":[{"internalType":"bool","name":"","type":"bool"}],"stateMutability":"view","type":"function"}],"bytecode":"6101606040523480156200001257600080fd5b50604051620085ba380380620085ba83398101604081905262000035916200028a565b816040518060200162000048906200027c565b601f1982820381018352601f909101166040528051819060006002820460a081905280830360e081905281855290915083620000908162000139602090811b6200038f17901c565b60601b6001600160601b0319166080528285018051838252620000bf8262000139602090811b6200038f17901c565b6001600160601b0319606091821b811660c0529690935290529590951b90911661010052505050426276a700016101205250620001096001600160a01b038216151560696200018d565b620001216001600160a01b038316151560696200018d565b60601b6001600160601b0319166101405250620002de565b80517f602038038060206000396000f3fefefefefefefefefefefefefefefefefefefe808352600091602081018484f09084529150620001876001600160a01b03831615156101ac620001a2565b50919050565b816200019e576200019e81620001b3565b5050565b816200019e576200019e81620001c8565b620001c5816223aca960e91b6200021b565b50565b62461bcd60e51b6000908152602060045260076024526642414c23000030600a808404818106603090810160081b95839006959095019082900491820690940160101b939093010160c81b604452606490fd5b62461bcd60e51b600090815260206004526007602452600a808404818106603090810160081b958390069590950190829004918206850160101b01602363ffffff0060e086901c160160181b0190930160c81b60445260e882901c90606490fd5b61733d806200127d83390190565b600080604083850312156200029d578182fd5b8251620002aa81620002c8565b6020840151909250620002bd81620002c8565b809150509250929050565b6001600160a01b0381168114620001c557600080fd5b60805160601c60a05160c05160601c60e0516101005160601c610120516101405160601c610f2b620003526000398061016f52806103315250806101dd528061020652508061026c5250806103e95250806101b4528061046552508061040a52508061019352806104415250610f2b6000f3fe608060405234801561001057600080fd5b50600436106100925760003560e01c806345be0bd41161006657806345be0bd4146100f65780636634b7531461010b5780638d928af81461012b5780638e062d2114610133578063d14646861461014657610092565b8062c194db146100975780630bc7b4c4146100b5578063174481fa146100ca5780632da47c40146100e0575b600080fd5b61009f61014e565b6040516100ac9190610db7565b60405180910390f35b6100bd61016d565b6040516100ac9190610d7e565b6100d2610191565b6040516100ac929190610d92565b6100e86101d7565b6040516100ac929190610e8d565b6100fe610241565b6040516100ac9190610e84565b61011e610119366004610a40565b610248565b6040516100ac9190610dac565b6100bd61026a565b6100bd610141366004610a5c565b61028e565b6100fe610388565b6060610168604051806020016040528060008152506103e1565b905090565b7f000000000000000000000000000000000000000000000000000000000000000081565b7f00000000000000000000000000000000000000000000000000000000000000007f00000000000000000000000000000000000000000000000000000000000000009091565b600080427f000000000000000000000000000000000000000000000000000000000000000081101561023357807f000000000000000000000000000000000000000000000000000000000000000003925062278d00915061023c565b60009250600091505b509091565b6276a70081565b6001600160a01b03811660009081526020819052604090205460ff165b919050565b7f000000000000000000000000000000000000000000000000000000000000000090565b60008061029f8e8e8e8b8b8b6104ba565b905060006040518061010001604052808381526020018d81526020018c81526020018b6000815181106102ce57fe5b60200260200101516001600160a01b031681526020018b6001815181106102f157fe5b60200260200101516001600160a01b03168152602001876001600160a01b03168152602001868152602001856001600160a01b03168152509050610375817f0000000000000000000000000000000000000000000000000000000000000000604051602001610361929190610dca565b60405160208183030381529060405261056f565b9f9e505050505050505050505050505050565b62278d0081565b80517f602038038060206000396000f3fefefefefefefefefefefefefefefefefefefe808352600091602081018484f090845291506103db6001600160a01b03831615156101ac6105cf565b50919050565b8051604080517f00000000000000000000000000000000000000000000000000000000000000007f0000000000000000000000000000000000000000000000000000000000000000818101858101848101602090810190965280855293957f00000000000000000000000000000000000000000000000000000000000000009592947f000000000000000000000000000000000000000000000000000000000000000094938801866000828a3c846000888301883c50602089810190898501016104ac8183866105e1565b505050505050505050919050565b6104c26106ac565b6040518061014001604052806104d661026a565b6001600160a01b03168152602001888152602001878152602001866000815181106104fd57fe5b60200260200101516001600160a01b031681526020018660018151811061052057fe5b60200260200101516001600160a01b031681526020018581526020016276a700815260200162278d0081526020018415158152602001836001600160a01b031681525090509695505050505050565b60008061057b8361061f565b6001600160a01b038116600081815260208190526040808220805460ff191660011790555192935090917f83a48fbcfc991335314e74d0496aab6a1987e992ddc85dddbcc4d6dd6ef2e9fc9190a292915050565b816105dd576105dd81610659565b5050565b5b60208110610601578151835260209283019290910190601f19016105e2565b905182516020929092036101000a6000190180199091169116179052565b60008061062b836103e1565b905060008151602083016000f090506001600160a01b038116610652573d6000803e3d6000fd5b9392505050565b62461bcd60e51b6000908152602060045260076024526642414c23000030600a808404818106603090810160081b95839006959095019082900491820690940160101b939093010160c81b604452606490fd5b60405180610140016040528060006001600160a01b03168152602001606081526020016060815260200160006001600160a01b0316815260200160006001600160a01b0316815260200160008152602001600081526020016000815260200160001515815260200160006001600160a01b031681525090565b803561026581610edd565b600082601f830112610740578081fd5b8135602061075561075083610ebf565b610e9b565b8281528181019085830183850287018401881015610771578586fd5b855b8581101561079857813561078681610edd565b84529284019290840190600101610773565b5090979650505050505050565b600082601f8301126107b5578081fd5b813560206107c561075083610ebf565b82815281810190858301838502870184018810156107e1578586fd5b855b858110156107985781356107f681610edd565b845292840192908401906001016107e3565b8035801515811461026557600080fd5b600082601f830112610828578081fd5b813567ffffffffffffffff81111561083c57fe5b61084f601f8201601f1916602001610e9b565b818152846020838601011115610863578283fd5b816020850160208301379081016020019190915292915050565b60006060828403121561088e578081fd5b6040516060810181811067ffffffffffffffff821117156108ab57fe5b6040529050806108ba83610808565b815260208301356001600160781b03811681146108d657600080fd5b602082015260408301356001600160801b03811681146108f557600080fd5b6040919091015292915050565b60006101208284031215610914578081fd5b60405160e0810181811067ffffffffffffffff8211171561093157fe5b60405290508061094184846109f8565b815261095084604085016109f8565b60208201526080830135604082015260a0830135606082015260c0830135608082015260e083013560a082015261010083013560c08201525092915050565b600060a082840312156109a0578081fd5b60405160a0810181811067ffffffffffffffff821117156109bd57fe5b806040525080915082358152602083013560208201526040830135604082015260608301356060820152608083013560808201525092915050565b600060408284031215610a09578081fd5b6040516040810181811067ffffffffffffffff82111715610a2657fe5b604052823581526020928301359281019290925250919050565b600060208284031215610a51578081fd5b813561065281610edd565b6000806000806000806000806000806000806103408d8f031215610a7e578788fd5b67ffffffffffffffff8d351115610a93578788fd5b610aa08e8e358f01610818565b9b5067ffffffffffffffff60208e01351115610aba578788fd5b610aca8e60208f01358f01610818565b9a5067ffffffffffffffff60408e01351115610ae4578788fd5b610af48e60408f01358f016107a5565b9950610b038e60608f0161098f565b9850610b138e6101008f01610902565b975067ffffffffffffffff6102208e01351115610b2e578687fd5b610b3f8e6102208f01358f01610730565b96506102408d01359550610b566102608e01610808565b9450610b656102808e01610725565b9350610b746102a08e01610725565b9250610b848e6102c08f0161087d565b9150610b936103208e01610725565b90509295989b509295989b509295989b565b6001600160a01b03169052565b15159052565b60008151808452815b81811015610bdd57602081850181015186830182015201610bc1565b81811115610bee5782602083870101525b50601f01601f19169290920160200192915050565b8051151582526020808201516001600160781b0316908301526040908101516001600160801b0316910152565b610c3b828251610d6f565b6020810151610c4d6040840182610d6f565b5060408101516080830152606081015160a0830152608081015160c083015260a081015160e083015260c08101516101008301525050565b6000610140610c95848451610ba5565b6020830151816020860152610cac82860182610bb8565b91505060408301518482036040860152610cc68282610bb8565b9150506060830151610cdb6060860182610ba5565b506080830151610cee6080860182610ba5565b5060a083015160a085015260c083015160c085015260e083015160e085015261010080840151610d2082870182610bb2565b505061012080840151610d3582870182610ba5565b5090949350505050565b80518252602081015160208301526040810151604083015260608101516060830152608081015160808301525050565b80518252602090810151910152565b6001600160a01b0391909116815260200190565b6001600160a01b0392831681529116602082015260400190565b901515815260200190565b6000602082526106526020830184610bb8565b60006040825283516102c06040840152610de8610300840182610c85565b90506020850151610dfc6060850182610d3f565b506040850151610e10610100850182610c30565b506060850151610e24610220850182610ba5565b506080850151610e38610240850182610ba5565b5060a0850151610e4c610260850182610ba5565b5060c0850151610e60610280850182610c03565b5060e0850151610e746102e0850182610ba5565b5090506106526020830184610ba5565b90815260200190565b918252602082015260400190565b60405181810167ffffffffffffffff81118282101715610eb757fe5b604052919050565b600067ffffffffffffffff821115610ed357fe5b5060209081020190565b6001600160a01b0381168114610ef257600080fd5b5056fea2646970667358221220182ebd0dd7b6e52c5f45ed1ff525daca2c85b5dac4eaffd2f4f3df67df2f756964736f6c634300070600336104a06040527f6e71edae12b1b97f4d1f60370fef10105fa2faae0126114a169c64845d6126c9610120526706f05b59d3b20000610200819052610220526000610240523480156200005057600080fd5b506040516200733d3803806200733d833981016040819052620000739162001051565b8160e001518260a001518360c0015184600001518060c001518160e001518260200151836040015184600001518280604051806040016040528060018152602001603160f81b81525085858a6101200151336001600160a01b031660001b806080818152505050806001600160a01b031660a0816001600160a01b031660601b815250505081600390805190602001906200011092919062000c31565b5080516200012690600490602084019062000c31565b505060058054601260ff1990911617905550815160209283012060c052805191012060e052507f8b73c3c69bb8fe3d512ecc4cf759cc79239f7b179b0ffacaa9a75d522b39400f6101005260601b6001600160601b03191661014052506200019990506276a700831115610194620006db565b620001ad62278d00821115610195620006db565b42919091016101608190520161018052604080516002808252606082018352600092602083019080368337019050509050816060015181600081518110620001f157fe5b60200260200101906001600160a01b031690816001600160a01b0316815250508160800151816001815181106200022457fe5b60200260200101906001600160a01b031690816001600160a01b0316815250506200025a81620006f060201b62001e7d1760201c565b6101008201516200026b90620006fc565b60a08201516200027b9062000758565b81516040516309b2760f60e01b81526000916001600160a01b0316906309b2760f90620002ae906002906004016200123d565b602060405180830381600087803b158015620002c957600080fd5b505af1158015620002de573d6000803e3d6000fd5b505050506040513d601f19601f8201168201806040525081019062000304919062001038565b83516040805160028082526060820183529394506001600160a01b03909216926366a9c7d2928592879290602083019080368337019050506040518463ffffffff1660e01b81526004016200035c93929190620011a3565b600060405180830381600087803b1580156200037757600080fd5b505af11580156200038c573d6000803e3d6000fd5b5050506101a082905250606080840180516001600160601b031990831b81166101c052608086015190921b9091166101e05251620003ca90620007d6565b610260526080830151620003de90620007d6565b61028052505060408051808201909152600e81526d1b9bdd08185d5d1a1bdc9a5e995960921b602082015290506001600160a01b0383166200043e5760405162461bcd60e51b815260040162000435919062001252565b60405180910390fd5b50600c80546001600160a01b0319166001600160a01b039384161790558051600b8054602084015160409094015160ff1990911692151592909217610100600160801b0319166101006001600160781b0390941693909302929092176001600160801b03908116600160801b9190921602179055620004c39082161515606962000884565b600d80546001600160a01b0319166001600160a01b03928316179055620004f09082161515607862000884565b6200050a82602001516200089560201b62001e8b1760201c565b7ff468331437e1ec2fec64fc27f23a28b085a09e90f385338d4b58cb638607977760016040516200053c919062001198565b60405180910390a160208201516040808401519051636e70c2ef60e01b815273__GyroECLPMath__________________________92636e70c2ef92620005859260040162001287565b60006040518083038186803b1580156200059e57600080fd5b505af4158015620005b3573d6000803e3d6000fd5b505050507f614fd1489cdee8181582fbbc1933d6870cd06c6f22d314b97a650ffa547c6ccd6001604051620005e9919062001198565b60405180910390a160208281015180518183015160408084015160608086015160809687015161032052610300526102e0919091526102c0929092526102a09290925281860151805180519086015182870151805197015194830151838501518488015160a086015160c0909601516104405261042095909552610400949094526103e0939093526103c0929092526103a093909352610380949094526103609390935261034052600e80546001600160a01b0319166001600160a01b03949094169390931790925580830151811b6001600160601b031990811661046052919092015190911b16610480526200137f565b81620006ec57620006ec8162000980565b5050565b80620006ec81620009d3565b620007188160095462000a5d60201b62001f681790919060201c565b6009556040517f3e350b41e86a8e10f804ade6d35340d620be35569cc75ac943e8bb14ab80ead1906200074d90839062001198565b60405180910390a150565b6200076d64e8d4a5100082101560cb620006db565b6200078567016345785d8a000082111560ca620006db565b620007a18160095462000a8360201b62001f761790919060201c565b6009556040517fa9ba3ffe0b6c366b81232caab38605a0699ad5398d6cce76f91ee809e322dafc906200074d9083906200131f565b600080826001600160a01b031663313ce5676040518163ffffffff1660e01b815260040160206040518083038186803b1580156200081357600080fd5b505afa15801562000828573d6000803e3d6000fd5b505050506040513d601f19601f820116820180604052508101906200084e919062001166565b60ff16905060006200086d60128362000aa260201b62001f841760201c565b600a0a670de0b6b3a764000002925050505b919050565b81620006ec57620006ec8162000aba565b620008c48160600151600013158015620008bb5750670de0b6b3a7640000826060015113155b61016362000884565b620008f28160400151600013158015620008bb5750670de0b6b3a76400008260400151131561016362000884565b60408051808201825260608301518152908201516020820152600062000919828062000acc565b905062000949670de0b6b3a763fc188212801590620009405750670de0b6b3a76403e88213155b61016462000884565b6200097b83608001516000131580156200097257506a52b7d2dcc80cd2e4000000846080015113155b61016862000884565b505050565b62461bcd60e51b6000908152602060045260076024526642414c23000030600a808404818106603090810160081b95839006959095019082900491820690940160101b939093010160c81b604452606490fd5b600281511015620009e45762000a5a565b600081600081518110620009f457fe5b602002602001015190506000600190505b82518110156200097b57600083828151811062000a1e57fe5b6020026020010151905062000a4f816001600160a01b0316846001600160a01b0316106065620006db60201b60201c565b915060010162000a05565b50565b600062000a7c8260558562000b2360201b62001f9a179092919060201c565b9392505050565b600062000a7c8260568562000b4c60201b62001fc1179092919060201c565b600062000ab4838311156001620006db565b50900390565b62000a5a816223aca960e91b62000b61565b600062000a7c62000af48360200151856020015162000bc260201b62001fd61790919060201c565b8351855162000b0f9162000bc2602090811b62001fd617901c565b62000c0360201b620020121790919060201c565b60006001821b198416828462000b3b57600062000b3e565b60015b60ff16901b17949350505050565b6001600160401b03811b1992909216911b1790565b62461bcd60e51b600090815260206004526007602452600a808404818106603090810160081b958390069590950190829004918206850160101b01602363ffffff0060e086901c160160181b0190930160c81b60445260e882901c90606490fd5b600082820283158062000bde57508284828162000bdb57fe5b05145b62000bf15762000bf160006003620006db565b670de0b6b3a764000090059392505050565b60008282018183121562000c1a5783811262000c1f565b838112155b62000a7c5762000a7c600080620006db565b828054600181600116156101000203166002900490600052602060002090601f01602090048101928262000c69576000855562000cb4565b82601f1062000c8457805160ff191683800117855562000cb4565b8280016001018555821562000cb4579182015b8281111562000cb457825182559160200191906001019062000c97565b5062000cc292915062000cc6565b5090565b5b8082111562000cc2576000815560010162000cc7565b80516001600160a01b03811681146200087f57600080fd5b805180151581146200087f57600080fd5b600082601f83011262000d17578081fd5b81516001600160401b0381111562000d2b57fe5b62000d40601f8201601f191660200162001328565b81815284602083860101111562000d55578283fd5b62000d688260208301602087016200134c565b949350505050565b60006060828403121562000d82578081fd5b604051606081016001600160401b038111828210171562000d9f57fe5b60405290508062000db08362000cf5565b815260208301516001600160781b038116811462000dcd57600080fd5b602082015260408301516001600160801b038116811462000ded57600080fd5b6040919091015292915050565b6000610120828403121562000e0d578081fd5b60405160e081016001600160401b038111828210171562000e2a57fe5b60405290508062000e3c848462000fef565b815262000e4d846040850162000fef565b60208201526080830151604082015260a0830151606082015260c0830151608082015260e083015160a082015261010083015160c08201525092915050565b600061014080838503121562000ea0578182fd5b62000eab8162001328565b91505062000eb98262000cdd565b815260208201516001600160401b038082111562000ed657600080fd5b62000ee48583860162000d06565b6020840152604084015191508082111562000efe57600080fd5b5062000f0d8482850162000d06565b60408301525062000f216060830162000cdd565b606082015262000f346080830162000cdd565b608082015260a082015160a082015260c082015160c082015260e082015160e082015261010062000f6781840162000cf5565b9082015261012062000f7b83820162000cdd565b9082015292915050565b600060a0828403121562000f97578081fd5b60405160a081016001600160401b038111828210171562000fb457fe5b806040525080915082518152602083015160208201526040830151604082015260608301516060820152608083015160808201525092915050565b60006040828403121562001001578081fd5b604080519081016001600160401b03811182821017156200101e57fe5b604052825181526020928301519281019290925250919050565b6000602082840312156200104a578081fd5b5051919050565b6000806040838503121562001064578081fd5b82516001600160401b03808211156200107b578283fd5b908401906102c0828703121562001090578283fd5b6200109d61010062001328565b825182811115620010ac578485fd5b620010ba8882860162000e8c565b825250620010cc876020850162000f85565b6020820152620010e08760c0850162000dfa565b6040820152620010f46101e0840162000cdd565b606082015262001108610200840162000cdd565b60808201526200111c610220840162000cdd565b60a08201526200113187610240850162000d70565b60c0820152620011456102a0840162000cdd565b60e082015293506200115d9150506020840162000cdd565b90509250929050565b60006020828403121562001178578081fd5b815160ff8116811462000a7c578182fd5b80518252602090810151910152565b901515815260200190565b60006060820185835260206060818501528186518084526080860191508288019350845b81811015620011ee5784516001600160a01b031683529383019391830191600101620011c7565b505084810360408601528551808252908201925081860190845b818110156200122f5782516001600160a01b03168552938301939183019160010162001208565b509298975050505050505050565b60208101600383106200124c57fe5b91905290565b6000602082528251806020840152620012738160408501602087016200134c565b601f01601f19169190910160400192915050565b60006101c0820190508351825260208401516020830152604084015160408301526060840151606083015260808401516080830152620012cc60a08301845162001189565b6020830151620012e060e084018262001189565b5060408301516101208301526060830151610140830152608083015161016083015260a083015161018083015260c08301516101a08301529392505050565b90815260200190565b6040518181016001600160401b03811182821017156200134457fe5b604052919050565b60005b83811015620013695781810151838201526020016200134f565b8381111562001379576000848401525b50505050565b60805160a05160601c60c05160e05161010051610120516101405160601c61016051610180516101a0516101c05160601c6101e05160601c61020051610220516102405161026051610280516102a0516102c0516102e05161030051610320516103405161036051610380516103a0516103c0516103e0516104005161042051610440516104605160601c6104805160601c615e136200152a60003980610db55280610f955280610fd1528061306f5280613f845280613fb6525080610ec65280610f02528061137452806130255280613eb75280613ee9525080612bc5525080612beb525080612c11525080612c39525080612c5e525080612b32525080612b57525080612b7a525080612ba2525080612a61525080612a8b525080612ab5525080612adf525080612b09525080613092525080613048525050806142525250806142795250806116a452806116eb5280612ed4525080611664528061172b5280612e88525080610b2552508061218a5250806121665250806114f2525080611bce5250806123bc5250806123fe5250806123dd5250806114ce5250806114545250615e136000f3fe608060405234801561001057600080fd5b506004361061035d5760003560e01c806370a08231116101d35780639b02cdde11610104578063b48b5b40116100a2578063d5c096c41161007c578063d5c096c4146106d6578063dd62ed3e146106e9578063f89f27ed146106fc578063ffd088eb146107045761035d565b8063b48b5b40146106b3578063c0ff1a15146106bb578063d505accf146106c35761035d565b8063a9059cbb116100de578063a9059cbb1461067d578063aaabadc514610690578063abd13afe14610698578063b10be739146106a05761035d565b80639b02cdde1461064f5780639d2c110c14610657578063a457c2d71461066a5761035d565b80638456cb5911610171578063893d20e81161014b578063893d20e81461062f5780638d928af81461063757806395d89b411461063f57806398d5fdca146106475761035d565b80638456cb5914610601578063851c1bb31461060957806387ec68171461061c5761035d565b80637be219a2116101ad5780637be219a2146105bd5780637ecebe00146105d35780638002df18146105e6578063828a7c34146105f95761035d565b806370a082311461057657806374f3b0091461058957806376e54a46146105aa5761035d565b806338fff2d0116102ad5780636028bfd41161024b578063679aefce11610225578063679aefce146105305780636b843239146105385780636d785a8714610558578063702ec091146105605761035d565b80636028bfd4146104e157806360d1507c1461050257806362ced092146105285761035d565b80633f4ba83a116102875780633f4ba83a146104a257806344bbdb55146104aa5780634a6b0b15146104bf57806355c67628146104d95761035d565b806338fff2d014610472578063395093511461047a5780633aeae0d31461048d5761035d565b80631dccd8301161031a578063313ce567116102f4578063313ce5671461042f5780633331bc36146104445780633644e5151461045757806338e9922e1461045f5761035d565b80631dccd830146103f457806323b872dd14610414578063292c914a146104275761035d565b806306fdde0314610362578063095ea7b3146103805780630e608b30146103a057806316c38b3c146103b557806318160ddd146103c85780631c0de051146103dd575b600080fd5b61036a61070c565b6040516103779190615c0a565b60405180910390f35b61039361038e366004615336565b6107a2565b6040516103779190615aec565b6103b36103ae366004615211565b6107b9565b005b6103b36103c3366004615500565b61086a565b6103d061087e565b6040516103779190615b0f565b6103e5610884565b60405161037793929190615af7565b610407610402366004615434565b6108ad565b60405161037791906159c4565b610393610422366004615281565b6109d0565b6103b3610a46565b610437610a7a565b6040516103779190615d52565b6103b361045236600461581f565b610a83565b6103d0610afb565b6103b361046d366004615807565b610b0a565b6103d0610b23565b610393610488366004615336565b610b47565b610495610b82565b6040516103779190615c5d565b6103b3610bcd565b6104b2610cc2565b604051610377919061596c565b6104c7610cd1565b60405161037796959493929190615b5f565b6103d0610d2c565b6104f46104ef36600461551a565b610d39565b604051610377929190615d2b565b610515610510366004615807565b610d6a565b6040516103779796959493929190615b2f565b6104b2610db3565b6103d0610dd7565b61054b610546366004615361565b610dfc565b6040516103779190615980565b6104b2610eb2565b610568610ec1565b604051610377929190615d44565b6103d0610584366004615211565b611066565b61059c61059736600461551a565b611085565b6040516103779291906159d7565b6103b36105b8366004615693565b61112a565b6105c5611251565b604051610377929190615cbd565b6103d06105e1366004615211565b611271565b6103b36105f4366004615211565b61128c565b6104b2611372565b6103b3611396565b6103d0610617366004615616565b61144e565b6104f461062a36600461551a565b6114a7565b6104b26114cc565b6104b26114f0565b61036a611514565b6103d0611575565b6103d0611635565b6103d0610665366004615711565b61163b565b610393610678366004615336565b6119f0565b61039361068b366004615336565b611a2e565b6104b2611a3b565b6104b2611a45565b6103d06106ae36600461563e565b611a54565b6103d0611ae9565b6103d0611aef565b6103b36106d13660046152c1565b611b9f565b61059c6106e436600461551a565b611d0f565b6103d06106f7366004615249565b611e2f565b610407611e6c565b6103d0611e76565b60038054604080516020601f60026000196101006001881615020190951694909404938401819004810282018101909252828152606093909290918301828280156107985780601f1061076d57610100808354040283529160200191610798565b820191906000526020600020905b81548152906001019060200180831161077b57829003601f168201915b5050505050905090565b60006107af33848461203b565b5060015b92915050565b600c5460408051808201909152600e81526d1b9bdd08185d5d1a1bdc9a5e995960921b6020820152906001600160a01b031633146108135760405162461bcd60e51b815260040161080a9190615c0a565b60405180910390fd5b50600c80546001600160a01b0319166001600160a01b0383161790556040517fb8fd9afc34c38fcd13b9a3b7646482eb1fddcefb40af2c70609972816eba32089061085f90839061596c565b60405180910390a150565b61087261209d565b61087b816120cb565b50565b60025490565b6000806000610891612147565b15925061089c612164565b91506108a6612188565b9050909192565b606081516001600160401b03811180156108c657600080fd5b506040519080825280602002602001820160405280156108f0578160200160208202803683370190505b50905060006108fd6121ac565b905060005b83518110156109c95773__QueryProcessor________________________6379eaef82600886848151811061093357fe5b6020026020010151856040518463ffffffff1660e01b815260040161095a93929190615bd1565b60206040518083038186803b15801561097257600080fd5b505af4158015610986573d6000803e3d6000fd5b505050506040513d601f19601f820116820180604052508101906109aa9190615658565b8382815181106109b657fe5b6020908102919091010152600101610902565b5050919050565b6000806109dd8533611e2f565b9050610a01336001600160a01b03871614806109f95750838210155b61019e6121b9565b610a0c8585856121c7565b336001600160a01b03861614801590610a2757506000198114155b15610a3957610a39853385840361203b565b60019150505b9392505050565b610a4e6122af565b610a5661209d565b610a6060016122c2565b6000610a6a61087e565b1115610a7857610a78612302565b565b60055460ff1690565b610a9e8183108015610a9757506104008211155b60646121b9565b6000610ab3600160008060008060008061234a565b9050825b82811015610af557600081815260086020526040902054610ad7906123ac565b610aed5760008181526008602052604090208290555b600101610ab7565b50505050565b6000610b056123b8565b905090565b610b1261209d565b610b1a6122af565b61087b81612476565b7f000000000000000000000000000000000000000000000000000000000000000090565b3360008181526001602090815260408083206001600160a01b038716845290915281205490916107af918590610b7d90866124df565b61203b565b610b8a6150ab565b5060408051606081018252600b5460ff81161515825261010081046001600160781b03166020830152600160801b90046001600160801b03169181019190915290565b600d546040805180820190915260118152703737ba103830bab9b29036b0b730b3b2b960791b6020820152906001600160a01b03163314610c8c5760405162461bcd60e51b81526004018080602001828103825283818151815260200191508051906020019080838360005b83811015610c51578181015183820152602001610c39565b50505050905090810190601f168015610c7e5780820380516001836020036101000a031916815260200191505b509250505060405180910390fd5b50610c976000610872565b6040517f215385c8bfc731925ec8068d7baa50f6b6f34417cc7804f7273dc2c0b3db279090600090a1565b600e546001600160a01b031681565b60008060008060008060006009549050610cea816124f1565b9650610cf5816124fd565b9550610d008161250a565b9450610d0b81612517565b9350610d1681612524565b9250610d2181612531565b915050909192939495565b6000610b05600954612531565b60006060610d498651600261253e565b610d5e8989898989898961254b6126c6612744565b97509795505050505050565b6000806000806000806000610d85610400891061013b6121b9565b6000610d9089612857565b9050610d9b81612869565b959f949e50929c50909a509850965090945092505050565b7f000000000000000000000000000000000000000000000000000000000000000081565b6000610b05610de461087e565b610df6610def611aef565b60026128cc565b906128f0565b606081516001600160401b0381118015610e1557600080fd5b50604051908082528060200260200182016040528015610e3f578160200160208202803683370190505b5090506000610e4c6121ac565b9050610e566150cb565b60005b8451811015610eaa57848181518110610e6e57fe5b60200260200101519150610e8b826000015184846020015161294a565b848281518110610e9757fe5b6020908102919091010152600101610e59565b505050919050565b600c546001600160a01b031681565b6000807f00000000000000000000000000000000000000000000000000000000000000006001600160a01b0316610f0057670de0b6b3a7640000610f91565b7f00000000000000000000000000000000000000000000000000000000000000006001600160a01b031663679aefce6040518163ffffffff1660e01b815260040160206040518083038186803b158015610f5957600080fd5b505afa158015610f6d573d6000803e3d6000fd5b505050506040513d601f19601f82011682018060405250810190610f919190615658565b91507f00000000000000000000000000000000000000000000000000000000000000006001600160a01b0316610fcf57670de0b6b3a7640000611060565b7f00000000000000000000000000000000000000000000000000000000000000006001600160a01b031663679aefce6040518163ffffffff1660e01b815260040160206040518083038186803b15801561102857600080fd5b505afa15801561103c573d6000803e3d6000fd5b505050506040513d601f19601f820116820180604052508101906110609190615658565b90509091565b6001600160a01b0381166000908152602081905260409020545b919050565b606080886110af6110946114f0565b6001600160a01b0316336001600160a01b03161460cd6121b9565b6110c46110ba610b23565b82146101f46121b9565b6110cd876129e3565b60008060006110e18d8d8d8d8d8d8d61254b565b9250925092506110f18c84612a45565b6110fa826126c6565b611103816126c6565b61110b612147565b1561111857611118612302565b909c909b509950505050505050505050565b600c5460408051808201909152600e81526d1b9bdd08185d5d1a1bdc9a5e995960921b6020820152906001600160a01b0316331461117b5760405162461bcd60e51b815260040161080a9190615c0a565b50600b5460408051808201909152601081526f1c1bdbdb081a5cc81d5b98d85c1c195960821b60208201529060ff166111c75760405162461bcd60e51b815260040161080a9190615c0a565b508051600b8054602084015160408086015160ff19909316941515949094176fffffffffffffffffffffffffffffff0019166101006001600160781b0390921691909102176001600160801b03908116600160801b919092160217815590517f2abf5970d7bc1a2b36eaae52dd2cc353edb0337c7284ef8a01973081b4e044249161085f91615c92565b6112596150e2565b611261615111565b611269612a4f565b915091509091565b6001600160a01b031660009081526006602052604090205490565b600d546040805180820190915260118152703737ba103830bab9b29036b0b730b3b2b960791b60208201526001600160a01b03909116903382146113115760405162461bcd60e51b8152602060048201818152835160248401528351909283926044909101919085019080838360008315610c51578181015183820152602001610c39565b50600d80546001600160a01b0319166001600160a01b03848116918217909255604080519284168352602083019190915280517f1ffccd1fa96f4fb3415df8048a0fd107344e262d2d246c85105e2a3f8f3e81989281900390910190a15050565b7f000000000000000000000000000000000000000000000000000000000000000081565b600d546040805180820190915260118152703737ba103830bab9b29036b0b730b3b2b960791b6020820152906001600160a01b031633146114185760405162461bcd60e51b8152602060048201818152835160248401528351909283926044909101919085019080838360008315610c51578181015183820152602001610c39565b506114236001610872565b6040517f681eace576127d0553b224436a09801fb47d042942cbff59d7d4ff04d8fa03d790600090a1565b604080517f00000000000000000000000000000000000000000000000000000000000000006020808301919091526001600160e01b03198416828401528251602481840301815260449092019092528051910120919050565b600060606114b78651600261253e565b610d5e89898989898989612c85612e01612744565b7f000000000000000000000000000000000000000000000000000000000000000090565b7f000000000000000000000000000000000000000000000000000000000000000090565b60048054604080516020601f60026000196101006001881615020190951694909404938401819004810282018101909252828152606093909290918301828280156107985780601f1061076d57610100808354040283529160200191610798565b600080611580612e63565b905060008061158d612a4f565b91509150600073__GyroECLPMath__________________________63d83ca8628585856040518463ffffffff1660e01b81526004016115ce939291906159fc565b60206040518083038186803b1580156115e657600080fd5b505af41580156115fa573d6000803e3d6000fd5b505050506040513d601f19601f8201168201806040525081019061161e9190615658565b905061162c84828585612f19565b94505050505090565b600a5490565b60006116456122af565b83608001516116556110946114f0565b6116606110ba610b23565b60007f00000000000000000000000000000000000000000000000000000000000000006001600160a01b031686602001516001600160a01b03161480156116dc57507f00000000000000000000000000000000000000000000000000000000000000006001600160a01b031686604001516001600160a01b0316145b156116e95750600161177a565b7f00000000000000000000000000000000000000000000000000000000000000006001600160a01b031686602001516001600160a01b031614801561176357507f00000000000000000000000000000000000000000000000000000000000000006001600160a01b031686604001516001600160a01b0316145b156117705750600061177a565b61177a6079612fc4565b600061178582613017565b905060006117938315613017565b905061179f878361313c565b96506117ab868261313c565b955060006117ba888886613148565b90506000806117c7612a4f565b915091506117d361515a565b60008073__GyroECLPMath__________________________6378ace8578787876040518463ffffffff1660e01b8152600401611811939291906159fc565b604080518083038186803b15801561182857600080fd5b505af415801561183c573d6000803e3d6000fd5b505050506040513d601f19601f820116820180604052508101906118609190615670565b91509150604051806040016040528082600202840181526020018381525092506118998e60a0015187611892856131e2565b888861323d565b50600090508c5160018111156118ab57fe5b14156119575760006118c96118be610d2c565b60608f01519061332c565b90506118eb6118e5828f6060015161338190919063ffffffff16565b8861313c565b60608e015260006119008e878b888888613397565b90507f4e1d56f7310a8c32b2267f756b19ba65019b4890068ce114a25009abe54de5ba86848360405161193593929190615a6e565b60405180910390a1611947818861342f565b9a505050505050505050506119e8565b6119658c606001518661313c565b60608d0152600061197a8d868a87878761343b565b90507f4e1d56f7310a8c32b2267f756b19ba65019b4890068ce114a25009abe54de5ba8583836040516119af93929190615a6e565b60405180910390a16119c18188613483565b90506119dd6119d66119d1610d2c565b61348f565b82906134b5565b995050505050505050505b509392505050565b6000806119fd3385611e2f565b9050808310611a1757611a123385600061203b565b611a24565b611a24338585840361203b565b5060019392505050565b60006107af3384846121c7565b6000610b0561351b565b600d546001600160a01b031681565b600073__QueryProcessor________________________630397bee0600884611a7b6121ac565b6040518463ffffffff1660e01b8152600401611a9993929190615b89565b60206040518083038186803b158015611ab157600080fd5b505af4158015611ac5573d6000803e3d6000fd5b505050506040513d601f19601f820116820180604052508101906107b39190615658565b61040090565b600080611afa612e63565b9050600080611b07612a4f565b604051636c1e543160e11b8152919350915073__GyroECLPMath__________________________9063d83ca86290611b47908690869086906004016159fc565b60206040518083038186803b158015611b5f57600080fd5b505af4158015611b73573d6000803e3d6000fd5b505050506040513d601f19601f82011682018060405250810190611b979190615658565b935050505090565b611bad8442111560d16121b9565b6001600160a01b0380881660008181526006602090815260408083205481517f00000000000000000000000000000000000000000000000000000000000000008185015280830195909552948b166060850152608084018a905260a0840185905260c08085018a90528151808603909101815260e09094019052825192019190912090611c3982613595565b9050600060018288888860405160008152602001604052604051808581526020018460ff1681526020018381526020018281526020019450505050506020604051602081039080840390855afa158015611c97573d6000803e3d6000fd5b5050604051601f1901519150611cd990506001600160a01b03821615801590611cd157508b6001600160a01b0316826001600160a01b0316145b6101f86121b9565b6001600160a01b038b166000908152600660205260409020600185019055611d028b8b8b61203b565b5050505050505050505050565b60608088611d1e6110946114f0565b611d296110ba610b23565b611d316122af565b6000611d3b61087e565b611dab57611d4b8b8b8b886135e1565b94509050611d60620f424082101560cc6121b9565b611d6e6000620f4240613726565b611d7d89620f42408303613726565b611d8684612e01565b6040805160028082526060820183529091602083019080368337019050509250611e19565b611db4886129e3565b611de78789600081518110611dc557fe5b60200260200101518a600181518110611dda57fe5b6020026020010151611f63565b611df68b8b8b8b8b8b8b612c85565b90955093509050611e078982613726565b611e1084612e01565b611e19836126c6565b611e21612302565b505097509795505050505050565b6000611e396114f0565b6001600160a01b0316826001600160a01b03161415611e5b57506000196107b3565b611e658383613730565b90506107b3565b6060610b0561375b565b6201de2090565b80611e87816137ca565b5050565b611eb78160600151600013158015611eaf5750670de0b6b3a7640000826060015113155b610163613843565b611ee28160400151600013158015611eaf5750670de0b6b3a764000082604001511315610163613843565b604080518082018252606083015181529082015160208201526000611f078280613851565b9050611f34670de0b6b3a763fc188212801590611f2c5750670de0b6b3a76403e88213155b610164613843565b611f638360800151600013158015611f5b57506a52b7d2dcc80cd2e4000000846080015113155b610168613843565b505050565b6000610a3f83836055611f9a565b6000610a3f83836056611fc1565b6000611f948383111560016121b9565b50900390565b60006001821b1984168284611fb0576000611fb3565b60015b60ff16901b17949350505050565b6001600160401b03811b1992909216911b1790565b6000828202831580611ff0575082848281611fed57fe5b05145b61200057612000600060036121b9565b670de0b6b3a764000090059392505050565b6000828201818312156120275783811261202c565b838112155b610a3f57610a3f6000806121b9565b6001600160a01b03808416600081815260016020908152604080832094871680845294825291829020859055815185815291517f8c5be1e5ebec7d5bd14f71427d1e84f3dd0314c0f7b2291e5b200ac8c7c3b9259281900390910190a3505050565b60006120b46000356001600160e01b03191661144e565b905061087b6120c38233613884565b6101916121b9565b80156120eb576120e66120dc612164565b42106101936121b9565b612100565b6121006120f6612188565b42106101a96121b9565b6007805482151560ff19909116811790915560408051918252517f9e3a5e37224532dea67b89face185703738a228a6e8a23dee546960180d3be649181900360200190a150565b6000612151612188565b421180610b0557505060075460ff161590565b7f000000000000000000000000000000000000000000000000000000000000000090565b7f000000000000000000000000000000000000000000000000000000000000000090565b6000610b05600954612517565b81611e8757611e8781612fc4565b6121de6001600160a01b03841615156101986121b9565b6121f56001600160a01b03831615156101996121b9565b612200838383611f63565b6001600160a01b03831660009081526020819052604090205461222690826101a0613986565b6001600160a01b03808516600090815260208190526040808220939093559084168152205461225590826124df565b6001600160a01b038084166000818152602081815260409182902094909455805185815290519193928716927fddf252ad1be2c89b69c2b068fc378daa952ba7f163c4a11628f55a4df523b3ef92918290030190a3505050565b610a786122ba612147565b6101926121b9565b6009546122cf9082611f68565b6009556040517f3e350b41e86a8e10f804ade6d35340d620be35569cc75ac943e8bb14ab80ead19061085f908390615aec565b60095461230e81612524565b1561087b57612328612321600a5461399c565b82906139dc565b905061234461233d61233861087e565b61399c565b82906139e9565b60095550565b600061235682826139f7565b61236184601f6139fb565b61236c866054613a0c565b61237788606a6139fb565b6123828a609f613a0c565b61238d8c60b56139fb565b6123988e60ea613a0c565b17171717171790505b979650505050505050565b60006107b38282613a19565b60007f00000000000000000000000000000000000000000000000000000000000000007f00000000000000000000000000000000000000000000000000000000000000007f0000000000000000000000000000000000000000000000000000000000000000612425613a23565b3060405160200180868152602001858152602001848152602001838152602001826001600160a01b031681526020019550505050505060405160208183030381529060405280519060200120905090565b61248964e8d4a5100082101560cb6121b9565b61249f67016345785d8a000082111560ca6121b9565b6009546124ac9082611f76565b6009556040517fa9ba3ffe0b6c366b81232caab38605a0699ad5398d6cce76f91ee809e322dafc9061085f908390615b0f565b6000828201610a3f84821015836121b9565b60006107b38282613a27565b60006107b3826016613a27565b60006107b382602c613a19565b60006107b382604b613a4e565b60006107b3826055613a56565b60006107b3826056613a60565b611e8781831460676121b9565b600060608060008061255b612a4f565b91509150612567612147565b1561267957604051636c1e543160e11b815260009073__GyroECLPMath__________________________9063d83ca862906125aa908d90879087906004016159fc565b60206040518083038186803b1580156125c257600080fd5b505af41580156125d6573d6000803e3d6000fd5b505050506040513d601f19601f820116820180604052508101906125fa9190615658565b9050612609898b83868661323d565b61261281613a6d565b61261c8a88613a9a565b9096509450612635818761262e61087e565b6000613ae6565b600a8190556040517fe1d39caf039c7dc6f364b1e29d1e67c4e330003a43f4991d50cf3e8840d95eac9161266b91849190615d44565b60405180910390a15061268f565b6126838987613a9a565b600019600a5590955093505b6040805160028082526060820183528792879291906020830190803683370190505094509450945050509750975097945050505050565b6126ed816000815181106126d657fe5b60200260200101516126e86001613017565b6128f0565b816000815181106126fa57fe5b6020026020010181815250506127288160018151811061271657fe5b60200260200101516126e86000613017565b8160018151811061273557fe5b60200260200101818152505050565b333014612802576000306001600160a01b031660003660405161276892919061595c565b6000604051808303816000865af19150503d80600081146127a5576040519150601f19603f3d011682016040523d82523d6000602084013e6127aa565b606091505b5050905080600081146127b957fe5b60046000803e6000516001600160e01b0319166343adbafb60e01b81146127e4573d6000803e3d6000fd5b506020600460003e604060205260243d03602460403e601c3d016000f35b61280b866129e3565b6000806128218b8b8b8b8b8b8b8b63ffffffff16565b5091509150612833818463ffffffff16565b8051601f1982018390526343adbafb603f1983015260200260231982016044820181fd5b60009081526008602052604090205490565b600080600080600080600061287d88613b3e565b965061288888613b4b565b955061289388613b58565b945061289e88613b65565b93506128a988613b72565b92506128b488613b7f565b91506128bf886123ac565b9050919395979092949650565b6000828202610a3f8415806128e95750838583816128e657fe5b04145b60036121b9565b60008161290357612903600060046121b9565b82612910575060006107b3565b670de0b6b3a76400008381029084828161292657fe5b041461293857612938600060056121b9565b82818161294157fe5b04949350505050565b6040516334171a8560e01b815260009073__QueryProcessor________________________906334171a859061298b90600890889088908890600401615bab565b60206040518083038186803b1580156129a357600080fd5b505af41580156129b7573d6000803e3d6000fd5b505050506040513d601f19601f820116820180604052508101906129db9190615658565b949350505050565b612a0a816000815181106129f357fe5b6020026020010151612a056001613017565b613b8c565b81600081518110612a1757fe5b60200260200101818152505061272881600181518110612a3357fe5b6020026020010151612a056000613017565b611e878282613bc5565b612a576150e2565b612a5f615111565b7f00000000000000000000000000000000000000000000000000000000000000006080808401919091527f00000000000000000000000000000000000000000000000000000000000000006060808501919091527f00000000000000000000000000000000000000000000000000000000000000006040808601919091527f00000000000000000000000000000000000000000000000000000000000000006020808701919091527f000000000000000000000000000000000000000000000000000000000000000086528451858201517f0000000000000000000000000000000000000000000000000000000000000000818401527f000000000000000000000000000000000000000000000000000000000000000090527f0000000000000000000000000000000000000000000000000000000000000000918101919091527f000000000000000000000000000000000000000000000000000000000000000090527f000000000000000000000000000000000000000000000000000000000000000060c08501527f000000000000000000000000000000000000000000000000000000000000000060a08501527f0000000000000000000000000000000000000000000000000000000000000000928401929092527f0000000000000000000000000000000000000000000000000000000000000000908301527f0000000000000000000000000000000000000000000000000000000000000000908201529091565b6000606080600080612c95612a4f565b91509150600073__GyroECLPMath__________________________63d83ca8628b85856040518463ffffffff1660e01b8152600401612cd6939291906159fc565b60206040518083038186803b158015612cee57600080fd5b505af4158015612d02573d6000803e3d6000fd5b505050506040513d601f19601f82011682018060405250810190612d269190615658565b9050612d35898b83868661323d565b612d3e81613a6d565b600080612d4b8c8a613c7c565b600b54919350915060ff1615612d7557612d7582612d688f611066565b612d7061087e565b613cb6565b612d898383612d8261087e565b6001613ae6565b600a8190556040517fe1d39caf039c7dc6f364b1e29d1e67c4e330003a43f4991d50cf3e8840d95eac91612dbf91869190615d44565b60405180910390a16040805160028082526060820183528492849291906020830190803683370190505097509750975050505050509750975097945050505050565b612e2881600081518110612e1157fe5b6020026020010151612e236001613017565b6134b5565b81600081518110612e3557fe5b60200260200101818152505061272881600181518110612e5157fe5b6020026020010151612e236000613017565b6040805160028082526060808301845292602083019080368337019050509050612eb67f0000000000000000000000000000000000000000000000000000000000000000612eb16001613017565b613dc8565b81600081518110612ec357fe5b602002602001018181525050612efd7f0000000000000000000000000000000000000000000000000000000000000000612eb16000613017565b81600181518110612f0a57fe5b60200260200101818152505090565b600073__GyroECLPMath__________________________63b0a208a7868585612f4189613e6f565b6040518563ffffffff1660e01b8152600401612f609493929190615a2d565b60206040518083038186803b158015612f7857600080fd5b505af4158015612f8c573d6000803e3d6000fd5b505050506040513d601f19601f82011682018060405250810190612fb09190615658565b9050612fbb81613eb3565b95945050505050565b62461bcd60e51b6000908152602060045260076024526642414c23000030600a808404818106603090810160081b95839006959095019082900491820690940160101b939093010160c81b604452606490fd5b6000806000831561306c57507f000000000000000000000000000000000000000000000000000000000000000090507f00000000000000000000000000000000000000000000000000000000000000006130b2565b507f000000000000000000000000000000000000000000000000000000000000000090507f00000000000000000000000000000000000000000000000000000000000000005b6001600160a01b03821615610a3f576129db826001600160a01b031663679aefce6040518163ffffffff1660e01b815260040160206040518083038186803b1580156130fd57600080fd5b505afa158015613111573d6000803e3d6000fd5b505050506040513d601f19601f820116820180604052508101906131359190615658565b8290613b8c565b6000610a3f8383613b8c565b604080516002808252606080830184529260208301908036833701905050905081156131a757838160008151811061317c57fe5b602002602001018181525050828160018151811061319657fe5b602002602001018181525050610a3f565b82816000815181106131b557fe5b60200260200101818152505083816001815181106131cf57fe5b6020026020010181815250509392505050565b600080821215613239576040805162461bcd60e51b815260206004820181905260248201527f53616665436173743a2076616c7565206d75737420626520706f736974697665604482015290519081900360640190fd5b5090565b60095461324981612524565b801561325457508543115b1561332457600061326786868686612f19565b905060006132748261404c565b9050600061328a87613285866124fd565b614057565b9050600061329785612517565b905060006132a48661250a565b905060006132bd828487876132b88c6124f1565b61406e565b905080831461331d576132d087826140c5565b96506132dc87426140d3565b9650866009819055507f12ade7b7dd29c5e3df1e883f0a092467d851b06c52f3c4484a443d40b9cd6601816040516133149190615b0f565b60405180910390a15b5050505050505b505050505050565b600082820283158061334657508284828161334357fe5b04145b61335657613356600060036121b9565b806133655760009150506107b3565b670de0b6b3a764000060001982015b0460010191505092915050565b600082821115611f9457611f94600060016121b9565b60608601516040516330ffa11b60e11b815260009173__GyroECLPMath__________________________916361ff4236916133df918a91908a908a908a908a90600401615a9e565b60206040518083038186803b1580156133f757600080fd5b505af415801561340b573d6000803e3d6000fd5b505050506040513d601f19601f820116820180604052508101906123a19190615658565b6000610a3f83836128f0565b6060860151604051633b18ce7b60e21b815260009173__GyroECLPMath__________________________9163ec6339ec916133df918a91908a908a908a908a90600401615a9e565b6000610a3f83836134b5565b6000670de0b6b3a764000082106134a75760006107b3565b50670de0b6b3a76400000390565b6000816134c8576134c8600060046121b9565b826134d5575060006107b3565b670de0b6b3a7640000838102908482816134eb57fe5b041461350f5761350f670de0b6b3a764000085838161350657fe5b041460056121b9565b82600182038161337457fe5b60006135256114f0565b6001600160a01b031663aaabadc56040518163ffffffff1660e01b815260040160206040518083038186803b15801561355d57600080fd5b505afa158015613571573d6000803e3d6000fd5b505050506040513d601f19601f82011682018060405250810190610b05919061522d565b600061359f6123b8565b82604051602001808061190160f01b81525060020183815260200182815260200192505050604051602081830303815290604052805190602001209050919050565b6000606060006135f0846140e1565b905061360b600082600381111561360357fe5b1460ce6121b9565b600061361685614100565b90506136248151600261253e565b61362d816129e3565b600080613638612a4f565b91509150600073__GyroECLPMath__________________________63d83ca8628585856040518463ffffffff1660e01b8152600401613679939291906159fc565b60206040518083038186803b15801561369157600080fd5b505af41580156136a5573d6000803e3d6000fd5b505050506040513d601f19601f820116820180604052508101906136c99190615658565b90507faf65f1a72bf4f8bc48e8153858e1f7b307ce39c88361a677c0a79c2a1ae571ef816040516136fa9190615b0f565b60405180910390a1600061370f8260026128cc565b600a92909255509a92995091975050505050505050565b611e8782826141b4565b6001600160a01b03918216600090815260016020908152604080832093909416825291909152205490565b6040805160028082526060808301845292600092919060208301908036833701905050905061378a6001614249565b8160008151811061379757fe5b6020026020010181815250506137ad6000614249565b816001815181106137ba57fe5b6020908102919091010152905090565b6002815110156137d95761087b565b6000816000815181106137e857fe5b602002602001015190506000600190505b8251811015611f6357600083828151811061381057fe5b60200260200101519050613839816001600160a01b0316846001600160a01b03161060656121b9565b91506001016137f9565b81611e8757611e878161429d565b6000610a3f61387183602001518560200151611fd690919063ffffffff16565b8351855161387e91611fd6565b90612012565b600073ba1ba1ba1ba1ba1ba1ba1ba1ba1ba1ba1ba1ba1b6138a36114cc565b6001600160a01b0316141580156138be57506138be836142ad565b156138e6576138cb6114cc565b6001600160a01b0316336001600160a01b03161490506107b3565b6138ee61351b565b6001600160a01b0316639be2a8848484306040518463ffffffff1660e01b815260040180848152602001836001600160a01b03168152602001826001600160a01b03168152602001935050505060206040518083038186803b15801561395357600080fd5b505afa158015613967573d6000803e3d6000fd5b505050506040513d602081101561397d57600080fd5b505190506107b3565b600061399584841115836121b9565b5050900390565b6000806139a8836142df565b905060008082136139c157652d79883d200082036139cb565b652d79883d200082015b655af3107a40009005949350505050565b6000610a3f838383614343565b6000610a3f83836016614343565b1b90565b661fffffffffffff91909116901b90565b623fffff91909116901b90565b1c637fffffff1690565b4690565b600082821c623fffff16621fffff8113613a4157806129db565b623fffff19179392505050565b1c6103ff1690565b1c60019081161490565b1c6001600160401b031690565b600080600080613a7f600a548661435a565b9350935093509350613a93848484846143c3565b5050505050565b600060606000613aa9846140e1565b90506001816003811115613ab957fe5b1415613ad357613ac985856143e3565b9093509150613ade565b613ade610150612fc4565b509250929050565b60008115613b18576000613b0484613afe888861332c565b906134b5565b9050613b108682614415565b9150506129db565b6000613b2884610df68888613b8c565b9050613b348682613381565b9695505050505050565b60006107b38260ea613a27565b60006107b38260b561442d565b60006107b382609f613a27565b60006107b382606a61442d565b60006107b3826054613a27565b60006107b382601f61442d565b6000828202831580613ba6575082848281613ba357fe5b04145b613bb657613bb6600060036121b9565b670de0b6b3a764000081612941565b613bdc6001600160a01b038316151561019b6121b9565b613be882600083611f63565b6001600160a01b038216600090815260208190526040902054613c0e90826101a1613986565b6001600160a01b038316600090815260208190526040902055600254613c349082614460565b6002556040805182815290516000916001600160a01b038516917fddf252ad1be2c89b69c2b068fc378daa952ba7f163c4a11628f55a4df523b3ef9181900360200190a35050565b600060606000613c8b846140e1565b90506003816003811115613c9b57fe5b1415613cab57613ac9858561446e565b613ade610136612fc4565b60408051606081018252600b5460ff81161515825261010081046001600160781b031660208301819052600160801b9091046001600160801b03169282019290925290613d038585614415565b11156040518060400160405280601a81526020017f6f7665722061646472657373206c69717569646974792063617000000000000081525090613d595760405162461bcd60e51b815260040161080a9190615c0a565b5060408101516001600160801b0316613d728584614415565b11156040518060400160405280601981526020017f6f76657220676c6f62616c206c6971756964697479206361700000000000000081525090613a935760405162461bcd60e51b815260040161080a9190615c0a565b6000806000613dd56114f0565b6001600160a01b031663b05f8e48613deb610b23565b876040518363ffffffff1660e01b8152600401613e09929190615b18565b60806040518083038186803b158015613e2157600080fd5b505afa158015613e35573d6000803e3d6000fd5b505050506040513d601f19601f82011682018060405250810190613e599190615840565b505081810194509092509050612fbb8385613b8c565b6000600160ff1b82106132395760405162461bcd60e51b8152600401808060200182810382526028815260200180615db66028913960400191505060405180910390fd5b60007f00000000000000000000000000000000000000000000000000000000000000006001600160a01b031615613f8257613f7f7f00000000000000000000000000000000000000000000000000000000000000006001600160a01b031663679aefce6040518163ffffffff1660e01b815260040160206040518083038186803b158015613f4057600080fd5b505afa158015613f54573d6000803e3d6000fd5b505050506040513d601f19601f82011682018060405250810190613f789190615658565b8390613b8c565b91505b7f00000000000000000000000000000000000000000000000000000000000000006001600160a01b031615613239576107b37f00000000000000000000000000000000000000000000000000000000000000006001600160a01b031663679aefce6040518163ffffffff1660e01b815260040160206040518083038186803b15801561400d57600080fd5b505afa158015614021573d6000803e3d6000fd5b505050506040513d601f19601f820116820180604052508101906140459190615658565b83906128f0565b60006107b38261399c565b6000806140638461399c565b929092039392505050565b60008061408a858585426140818b612857565b93929190614493565b905060784288900310158061409f57866140a8565b6140a8876144f3565b600081815260086020526040902092909255509695505050505050565b6000610a3f8383604b614500565b6000610a3f8383602c614510565b60008180602001905160208110156140f857600080fd5b505192915050565b606081806020019051604081101561411757600080fd5b81516020830180516040519294929383019291908464010000000082111561413e57600080fd5b90830190602082018581111561415357600080fd5b825186602082028301116401000000008211171561417057600080fd5b82525081516020918201928201910280838360005b8381101561419d578181015183820152602001614185565b505050509190910160405250929695505050505050565b6141c060008383611f63565b6002546141cd90826124df565b6002556001600160a01b0382166000908152602081905260409020546141f390826124df565b6001600160a01b0383166000818152602081815260408083209490945583518581529351929391927fddf252ad1be2c89b69c2b068fc378daa952ba7f163c4a11628f55a4df523b3ef9281900390910190a35050565b600081614276577f00000000000000000000000000000000000000000000000000000000000000006107b3565b507f0000000000000000000000000000000000000000000000000000000000000000919050565b61087b816223aca960e91b614522565b60006142bf631c74c91760e11b61144e565b8214806107b357506142d76350dd6ed960e01b61144e565b909114919050565b60006142ef6000831360646121b9565b670c7d713b49da00008213801561430d5750670f43fc2c04ee000082125b1561433357670de0b6b3a764000061432483614583565b8161432b57fe5b059050611080565b61433c826146a1565b9050611080565b623fffff828116821b90821b198416179392505050565b60008060008060008060008061436e614a40565b93509350935093508360001415614393576000975087965090945092506143ba915050565b6000806143aa8c8c6143a361087e565b8989614bb2565b909a509850929650909450505050505b92959194509250565b83156143d3576143d38285613726565b8215610af557610af58184613726565b6000606060006143f284614c4d565b90506000614408868361440361087e565b614c6f565b9196919550909350505050565b600082820183811015610a3f57610a3f6000806121b9565b600082821c661fffffffffffff16660fffffffffffff811361444f57806129db565b661fffffffffffff19179392505050565b6000610a3f83836001613986565b60006060600061447d84614c4d565b90506000614408868361448e61087e565b614d0a565b60008061449f876123ac565b8303905060008187026144b189613b4b565b01905060008287026144c28a613b65565b01905060008387026144d38b613b7f565b0190506144e589848a858b868c61234a565b9a9950505050505050505050565b60006107b3826001614da5565b6103ff811b1992909216911b1790565b637fffffff811b1992909216911b1790565b62461bcd60e51b600090815260206004526007602452600a808404818106603090810160081b958390069590950190829004918206850160101b01602363ffffff0060e086901c160160181b0190930160c81b60445260e882901c90606490fd5b670de0b6b3a7640000026000806a0c097ce7bc90715b34b9f160241b808401906ec097ce7bc90715b34b9f0fffffffff19850102816145be57fe5b05905060006a0c097ce7bc90715b34b9f160241b82800205905081806a0c097ce7bc90715b34b9f160241b81840205915060038205016a0c097ce7bc90715b34b9f160241b82840205915060058205016a0c097ce7bc90715b34b9f160241b82840205915060078205016a0c097ce7bc90715b34b9f160241b82840205915060098205016a0c097ce7bc90715b34b9f160241b828402059150600b8205016a0c097ce7bc90715b34b9f160241b828402059150600d8205016a0c097ce7bc90715b34b9f160241b828402059150600f826002919005919091010295945050505050565b6000670de0b6b3a76400008212156146dd576146d3826a0c097ce7bc90715b34b9f160241b816146cd57fe5b056146a1565b6000039050611080565b60007e1600ef3172e58d2e933ec884fde10064c63b5372d805e203c0000000000000831261472e57770195e54c5dd42177f53a27172fa9ec630262827000000000830592506806f05b59d3b2000000015b73011798004d755d3c8bc8e03204cf44619e0000008312614766576b1425982cf597cd205cef7380830592506803782dace9d9000000015b606492830292026e01855144814a7ff805980ff008400083126147ae576e01855144814a7ff805980ff008400068056bc75e2d63100000840205925068ad78ebc5ac62000000015b6b02df0ab5a80a22c61ab5a70083126147e9576b02df0ab5a80a22c61ab5a70068056bc75e2d6310000084020592506856bc75e2d631000000015b693f1fce3da636ea5cf850831261482057693f1fce3da636ea5cf85068056bc75e2d631000008402059250682b5e3af16b18800000015b690127fa27722cc06cc5e2831261485757690127fa27722cc06cc5e268056bc75e2d6310000084020592506815af1d78b58c400000015b68280e60114edb805d03831261488c5768280e60114edb805d0368056bc75e2d631000008402059250680ad78ebc5ac6200000015b680ebc5fb4174612111083126148b757680ebc5fb4174612111068056bc75e2d631000009384020592015b6808f00f760a4b2db55d83126148ec576808f00f760a4b2db55d68056bc75e2d6310000084020592506802b5e3af16b1880000015b6806f5f17757889379378312614921576806f5f177578893793768056bc75e2d63100000840205925068015af1d78b58c40000015b6806248f33704b2866038312614955576806248f33704b28660368056bc75e2d63100000840205925067ad78ebc5ac620000015b6805c548670b9510e7ac8312614989576805c548670b9510e7ac68056bc75e2d6310000084020592506756bc75e2d6310000015b600068056bc75e2d63100000840168056bc75e2d6310000080860302816149ac57fe5b059050600068056bc75e2d63100000828002059050818068056bc75e2d63100000818402059150600382050168056bc75e2d63100000828402059150600582050168056bc75e2d63100000828402059150600782050168056bc75e2d63100000828402059150600982050168056bc75e2d63100000828402059150600b820501600202606485820105979650505050505050565b600e54600090819081908190614a67906001600160a01b03163063045434c560e41b614dad565b600e54614a85906001600160a01b03163063045434c560e41b614dd4565b600e546040516321f8a72160e01b81526001600160a01b03909116906321f8a72190614ac5906c4759524f5f545245415355525960981b90600401615b0f565b60206040518083038186803b158015614add57600080fd5b505afa158015614af1573d6000803e3d6000fd5b505050506040513d601f19601f82011682018060405250810190614b15919061522d565b600e546040516321f8a72160e01b81526001600160a01b03909116906321f8a72190614b54906b42414c5f545245415355525960a01b90600401615b0f565b60206040518083038186803b158015614b6c57600080fd5b505afa158015614b80573d6000803e3d6000fd5b505050506040513d601f19601f82011682018060405250810190614ba4919061522d565b935093509350935090919293565b600080868611614bc757506000905080614c43565b6000614be785614be1614bda8a8c613381565b8990613b8c565b90613b8c565b90506000614bff614bf8898b613381565b8790613b8c565b90506000614c0d8983613381565b90506000614c1b84836128f0565b90506000614c298883613b8c565b90506000614c378383613381565b91975090955050505050505b9550959350505050565b6000818060200190516040811015614c6457600080fd5b506020015192915050565b606083516001600160401b0381118015614c8857600080fd5b50604051908082528060200260200182016040528015614cb2578160200160208202803683370190505b50905060005b84518110156119e857614ceb83610df686888581518110614cd557fe5b6020026020010151613b8c90919063ffffffff16565b828281518110614cf757fe5b6020908102919091010152600101614cb8565b606083516001600160401b0381118015614d2357600080fd5b50604051908082528060200260200182016040528015614d4d578160200160208202803683370190505b50905060005b84518110156119e857614d8683613afe86888581518110614d7057fe5b602002602001015161332c90919063ffffffff16565b828281518110614d9257fe5b6020908102919091010152600101614d53565b016103ff1690565b60006129db847550524f544f434f4c5f535741505f4645455f5045524360501b8486614dfe565b60006129db847f50524f544f434f4c5f4645455f4759524f5f504f5254494f4e0000000000000084865b6040805160208082018690526001600160a01b03808516838501528351808403850181526060840180865281519184019190912063696eb37560e01b909152606484018190529351600094939189169263696eb3759260848082019391829003018186803b158015614e6f57600080fd5b505afa158015614e83573d6000803e3d6000fd5b505050506040513d6020811015614e9957600080fd5b505115614f1957856001600160a01b031663bd02d0f5826040518263ffffffff1660e01b81526004018082815260200191505060206040518083038186803b158015614ee457600080fd5b505afa158015614ef8573d6000803e3d6000fd5b505050506040513d6020811015614f0e57600080fd5b505191506129db9050565b6040805160208082018890528183018790528251808303840181526060830180855281519183019190912063696eb37560e01b9091526064830181905292516001600160a01b038a169263696eb375926084808301939192829003018186803b158015614f8557600080fd5b505afa158015614f99573d6000803e3d6000fd5b505050506040513d6020811015614faf57600080fd5b50511561503057866001600160a01b031663bd02d0f5826040518263ffffffff1660e01b81526004018082815260200191505060206040518083038186803b158015614ffa57600080fd5b505afa15801561500e573d6000803e3d6000fd5b505050506040513d602081101561502457600080fd5b505192506129db915050565b866001600160a01b031663bd02d0f5876040518263ffffffff1660e01b81526004018082815260200191505060206040518083038186803b15801561507457600080fd5b505afa158015615088573d6000803e3d6000fd5b505050506040513d602081101561509e57600080fd5b5051979650505050505050565b604080516060810182526000808252602082018190529181019190915290565b604080518082019091526000808252602082015290565b6040518060a0016040528060008152602001600081526020016000815260200160008152602001600081525090565b6040518060e0016040528061512461515a565b815260200161513161515a565b815260200160008152602001600081526020016000815260200160008152602001600081525090565b604051806040016040528060008152602001600081525090565b803561108081615da0565b8035801515811461108057600080fd5b600082601f83011261519f578081fd5b81356001600160401b038111156151b257fe5b6151c5601f8201601f1916602001615d60565b8181528460208386010111156151d9578283fd5b816020850160208301379081016020019190915292915050565b80356002811061108057600080fd5b80356003811061108057600080fd5b600060208284031215615222578081fd5b8135610a3f81615da0565b60006020828403121561523e578081fd5b8151610a3f81615da0565b6000806040838503121561525b578081fd5b823561526681615da0565b9150602083013561527681615da0565b809150509250929050565b600080600060608486031215615295578081fd5b83356152a081615da0565b925060208401356152b081615da0565b929592945050506040919091013590565b600080600080600080600060e0888a0312156152db578485fd5b87356152e681615da0565b965060208801356152f681615da0565b95506040880135945060608801359350608088013560ff81168114615319578384fd5b9699959850939692959460a0840135945060c09093013592915050565b60008060408385031215615348578182fd5b823561535381615da0565b946020939093013593505050565b60006020808385031215615373578182fd5b82356001600160401b0380821115615389578384fd5b818501915085601f83011261539c578384fd5b81356153af6153aa82615d83565b615d60565b818152848101908486016040808502870188018b10156153cd578889fd5b8896505b848710156154255780828c0312156153e7578889fd5b805181810181811088821117156153fa57fe5b825261540583615202565b8152828901358982015284526001969096019592870192908101906153d1565b50909998505050505050505050565b60006020808385031215615446578182fd5b82356001600160401b038082111561545c578384fd5b818501915085601f83011261546f578384fd5b813561547d6153aa82615d83565b818152848101908486016060808502870188018b101561549b578889fd5b8896505b848710156154255780828c0312156154b5578889fd5b6040805182810181811089821117156154ca57fe5b82526154d584615202565b8152838a01358a8201528184013591810191909152845260019690960195928701929081019061549f565b600060208284031215615511578081fd5b610a3f8261517f565b600080600080600080600060e0888a031215615534578081fd5b8735965060208089013561554781615da0565b9650604089013561555781615da0565b955060608901356001600160401b0380821115615572578384fd5b818b0191508b601f830112615585578384fd5b81356155936153aa82615d83565b8082825285820191508585018f8788860288010111156155b1578788fd5b8795505b838610156155d35780358352600195909501949186019186016155b5565b509850505060808b0135955060a08b0135945060c08b01359250808311156155f9578384fd5b50506156078a828b0161518f565b91505092959891949750929550565b600060208284031215615627578081fd5b81356001600160e01b031981168114610a3f578182fd5b60006020828403121561564f578081fd5b610a3f82615202565b600060208284031215615669578081fd5b5051919050565b60008060408385031215615682578182fd5b505080516020909101519092909150565b6000606082840312156156a4578081fd5b604051606081018181106001600160401b03821117156156c057fe5b6040526156cc8361517f565b815260208301356001600160781b03811681146156e7578283fd5b602082015260408301356001600160801b0381168114615705578283fd5b60408201529392505050565b600080600060608486031215615725578081fd5b83356001600160401b038082111561573b578283fd5b8186019150610120808389031215615751578384fd5b61575a81615d60565b9050615765836151f3565b815261577360208401615174565b602082015261578460408401615174565b6040820152606083013560608201526080830135608082015260a083013560a08201526157b360c08401615174565b60c08201526157c460e08401615174565b60e082015261010080840135838111156157dc578586fd5b6157e88a82870161518f565b9183019190915250976020870135975060409096013595945050505050565b600060208284031215615818578081fd5b5035919050565b60008060408385031215615831578182fd5b50508035926020909101359150565b60008060008060808587031215615855578182fd5b845193506020850151925060408501519150606085015161587581615da0565b939692955090935050565b6000815180845260208085019450808401835b838110156158af57815187529582019590820190600101615893565b509495945050505050565b600381106158c457fe5b9052565b6158d382825161594d565b60208101516158e5604084018261594d565b5060408101516080830152606081015160a0830152608081015160c083015260a081015160e083015260c08101516101008301525050565b80518252602081015160208301526040810151604083015260608101516060830152608081015160808301525050565b80518252602090810151910152565b6000828483379101908152919050565b6001600160a01b0391909116815260200190565b6020808252825182820181905260009190848201906040850190845b818110156159b85783518352928401929184019160010161599c565b50909695505050505050565b600060208252610a3f6020830184615880565b6000604082526159ea6040830185615880565b8281036020840152612fbb8185615880565b60006101e0808352615a1081840187615880565b915050615a20602083018561591d565b6129db60c08301846158c8565b6000610200808352615a4181840188615880565b915050615a51602083018661591d565b615a5e60c08301856158c8565b826101e083015295945050505050565b600060808252615a816080830186615880565b9050615a90602083018561594d565b826060830152949350505050565b6000610260808352615ab28184018a615880565b9150508660208301528515156040830152615ad0606083018661591d565b615ade6101008301856158c8565b6123a161022083018461594d565b901515815260200190565b92151583526020830191909152604082015260600190565b90815260200190565b9182526001600160a01b0316602082015260400190565b968752602087019590955260408601939093526060850191909152608084015260a083015260c082015260e00190565b9586526020860194909452604085019290925260608401521515608083015260a082015260c00190565b83815260608101615b9d60208301856158ba565b826040830152949350505050565b84815260808101615bbf60208301866158ba565b60408201939093526060015292915050565b600060a082019050848252615bea6020830185516158ba565b602084015160408381019190915290930151606082015260800152919050565b6000602080835283518082850152825b81811015615c3657858101830151858201604001528201615c1a565b81811115615c475783604083870101525b50601f01601f1916929092016040019392505050565b8151151581526020808301516001600160781b0316908201526040918201516001600160801b03169181019190915260600190565b905460ff811615158252600881901c6001600160781b0316602083015260801c604082015260600190565b6101c08101615ccc828561591d565b615cda60a08301845161594d565b6020830151615cec60e084018261594d565b5060408301516101208301526060830151610140830152608083015161016083015260a083015161018083015260c08301516101a08301529392505050565b6000838252604060208301526129db6040830184615880565b918252602082015260400190565b60ff91909116815260200190565b6040518181016001600160401b0381118282101715615d7b57fe5b604052919050565b60006001600160401b03821115615d9657fe5b5060209081020190565b6001600160a01b038116811461087b57600080fdfe53616665436173743a2076616c756520646f65736e27742066697420696e20616e20696e74323536a264697066735822122079d0aa21bd3476a13eea8fd55ab990141c0c68501767043fb2cbf7991eda87ae64736f6c63430007060033","bytecodeSha1":"8a28970331616a1ce5e5901daa25a45d41befde1","compiler":{"evm_version":"berlin","optimizer":{"enabled":true,"runs":200},"version":"0.7.6+commit.7338295f"},"contractName":"GyroECLPPoolFactory","language":"Solidity","natspec":{"kind":"dev","methods":{"create(string,string,address[],(int256,int256,int256,int256,int256),((int256,int256),(int256,int256),int256,int256,int256,int256,int256),address[],uint256,bool,address,address,(bool,uint120,uint128),address)":{"details":"Deploys a new `GyroECLPPool`."},"getCreationCode()":{"details":"Returns the creation code of the contract this factory creates."},"getCreationCodeContracts()":{"details":"Returns the two addresses where the creation code of the contract crated by this factory is stored."},"getPauseConfiguration()":{"details":"Returns the current `TemporarilyPausable` configuration that will be applied to Pools created by this factory. `pauseWindowDuration` will decrease over time until it reaches zero, at which point both it and `bufferPeriodDuration` will be zero forever, meaning deployed Pools will not be pausable."},"getVault()":{"details":"Returns the Vault's address."},"isPoolFromFactory(address)":{"details":"Returns true if `pool` was created by this factory."}},"version":1},"opcodes":"PUSH1 0x80 PUSH1 0x40 MSTORE CALLVALUE DUP1 ISZERO PUSH2 0x10 JUMPI PUSH1 0x0 DUP1 REVERT JUMPDEST POP PUSH1 0x4 CALLDATASIZE LT PUSH2 0x92 JUMPI PUSH1 0x0 CALLDATALOAD PUSH1 0xE0 SHR DUP1 PUSH4 0x45BE0BD4 GT PUSH2 0x66 JUMPI DUP1 PUSH4 0x45BE0BD4 EQ PUSH2 0xF6 JUMPI DUP1 PUSH4 0x6634B753 EQ PUSH2 0x10B JUMPI DUP1 PUSH4 0x8D928AF8 EQ PUSH2 0x12B JUMPI DUP1 PUSH4 0x8E062D21 EQ PUSH2 0x133 JUMPI DUP1 PUSH4 0xD1464686 EQ PUSH2 0x146 JUMPI PUSH2 0x92 JUMP JUMPDEST DUP1 PUSH3 0xC194DB EQ PUSH2 0x97 JUMPI DUP1 PUSH4 0xBC7B4C4 EQ PUSH2 0xB5 JUMPI DUP1 PUSH4 0x174481FA EQ PUSH2 0xCA JUMPI DUP1 PUSH4 0x2DA47C40 EQ PUSH2 0xE0 JUMPI JUMPDEST PUSH1 0x0 DUP1 REVERT JUMPDEST PUSH2 0x9F PUSH2 0x14E JUMP JUMPDEST PUSH1 0x40 MLOAD PUSH2 0xAC SWAP2 SWAP1 PUSH2 0xDB7 JUMP JUMPDEST PUSH1 0x40 MLOAD DUP1 SWAP2 SUB SWAP1 RETURN JUMPDEST PUSH2 0xBD PUSH2 0x16D JUMP JUMPDEST PUSH1 0x40 MLOAD PUSH2 0xAC SWAP2 SWAP1 PUSH2 0xD7E JUMP JUMPDEST PUSH2 0xD2 PUSH2 0x191 JUMP JUMPDEST PUSH1 0x40 MLOAD PUSH2 0xAC SWAP3 SWAP2 SWAP1 PUSH2 0xD92 JUMP JUMPDEST PUSH2 0xE8 PUSH2 0x1D7 JUMP JUMPDEST PUSH1 0x40 MLOAD PUSH2 0xAC SWAP3 SWAP2 SWAP1 PUSH2 0xE8D JUMP JUMPDEST PUSH2 0xFE PUSH2 0x241 JUMP JUMPDEST PUSH1 0x40 MLOAD PUSH2 0xAC SWAP2 SWAP1 PUSH2 0xE84 JUMP JUMPDEST PUSH2 0x11E PUSH2 0x119 CALLDATASIZE PUSH1 0x4 PUSH2 0xA40 JUMP JUMPDEST PUSH2 0x248 JUMP JUMPDEST PUSH1 0x40 MLOAD PUSH2 0xAC SWAP2 SWAP1 PUSH2 0xDAC JUMP JUMPDEST PUSH2 0xBD PUSH2 0x26A JUMP JUMPDEST PUSH2 0xBD PUSH2 0x141 CALLDATASIZE PUSH1 0x4 PUSH2 0xA5C JUMP JUMPDEST PUSH2 0x28E JUMP JUMPDEST PUSH2 0xFE PUSH2 0x388 JUMP JUMPDEST PUSH1 0x60 PUSH2 0x168 PUSH1 0x40 MLOAD DUP1 PUSH1 0x20 ADD PUSH1 0x40 MSTORE DUP1 PUSH1 0x0 DUP2 MSTORE POP PUSH2 0x3E1 JUMP JUMPDEST SWAP1 POP SWAP1 JUMP JUMPDEST PUSH32 0x0 DUP2 JUMP JUMPDEST PUSH32 0x0 PUSH32 0x0 SWAP1 SWAP2 JUMP JUMPDEST PUSH1 0x0 DUP1 TIMESTAMP PUSH32 0x0 DUP2 LT ISZERO PUSH2 0x233 JUMPI DUP1 PUSH32 0x0 SUB SWAP3 POP PUSH3 0x278D00 SWAP2 POP PUSH2 0x23C JUMP JUMPDEST PUSH1 0x0 SWAP3 POP PUSH1 0x0 SWAP2 POP JUMPDEST POP SWAP1 SWAP2 JUMP JUMPDEST PUSH3 0x76A700 DUP2 JUMP JUMPDEST PUSH1 0x1 PUSH1 0x1 PUSH1 0xA0 SHL SUB DUP2 AND PUSH1 0x0 SWAP1 DUP2 MSTORE PUSH1 0x20 DUP2 SWAP1 MSTORE PUSH1 0x40 SWAP1 KECCAK256 SLOAD PUSH1 0xFF AND JUMPDEST SWAP2 SWAP1 POP JUMP JUMPDEST PUSH32 0x0 SWAP1 JUMP JUMPDEST PUSH1 0x0 DUP1 PUSH2 0x29F DUP15 DUP15 DUP15 DUP12 DUP12 DUP12 PUSH2 0x4BA JUMP JUMPDEST SWAP1 POP PUSH1 0x0 PUSH1 0x40 MLOAD DUP1 PUSH2 0x100 ADD PUSH1 0x40 MSTORE DUP1 DUP4 DUP2 MSTORE PUSH1 0x20 ADD DUP14 DUP2 MSTORE PUSH1 0x20 ADD DUP13 DUP2 MSTORE PUSH1 0x20 ADD DUP12 PUSH1 0x0 DUP2 MLOAD DUP2 LT PUSH2 0x2CE JUMPI INVALID JUMPDEST PUSH1 0x20 MUL PUSH1 0x20 ADD ADD MLOAD PUSH1 0x1 PUSH1 0x1 PUSH1 0xA0 SHL SUB AND DUP2 MSTORE PUSH1 0x20 ADD DUP12 PUSH1 0x1 DUP2 MLOAD DUP2 LT PUSH2 0x2F1 JUMPI INVALID JUMPDEST PUSH1 0x20 MUL PUSH1 0x20 ADD ADD MLOAD PUSH1 0x1 PUSH1 0x1 PUSH1 0xA0 SHL SUB AND DUP2 MSTORE PUSH1 0x20 ADD DUP8 PUSH1 0x1 PUSH1 0x1 PUSH1 0xA0 SHL SUB AND DUP2 MSTORE PUSH1 0x20 ADD DUP7 DUP2 MSTORE PUSH1 0x20 ADD DUP6 PUSH1 0x1 PUSH1 0x1 PUSH1 0xA0 SHL SUB AND DUP2 MSTORE POP SWAP1 POP PUSH2 0x375 DUP2 PUSH32 0x0 PUSH1 0x40 MLOAD PUSH1 0x20 ADD PUSH2 0x361 SWAP3 SWAP2 SWAP1 PUSH2 0xDCA JUMP JUMPDEST PUSH1 0x40 MLOAD PUSH1 0x20 DUP2 DUP4 SUB SUB DUP2 MSTORE SWAP1 PUSH1 0x40 MSTORE PUSH2 0x56F JUMP JUMPDEST SWAP16 SWAP15 POP POP POP POP POP POP POP POP POP POP POP POP POP POP POP JUMP JUMPDEST PUSH3 0x278D00 DUP2 JUMP JUMPDEST DUP1 MLOAD PUSH32 0x602038038060206000396000F3FEFEFEFEFEFEFEFEFEFEFEFEFEFEFEFEFEFEFE DUP1 DUP4 MSTORE PUSH1 0x0 SWAP2 PUSH1 0x20 DUP2 ADD DUP5 DUP5 CREATE SWAP1 DUP5 MSTORE SWAP2 POP PUSH2 0x3DB PUSH1 0x1 PUSH1 0x1 PUSH1 0xA0 SHL SUB DUP4 AND ISZERO ISZERO PUSH2 0x1AC PUSH2 0x5CF JUMP JUMPDEST POP SWAP2 SWAP1 POP JUMP JUMPDEST DUP1 MLOAD PUSH1 0x40 DUP1 MLOAD PUSH32 0x0 PUSH32 0x0 DUP2 DUP2 ADD DUP6 DUP2 ADD DUP5 DUP2 ADD PUSH1 0x20 SWAP1 DUP2 ADD SWAP1 SWAP7 MSTORE DUP1 DUP6 MSTORE SWAP4 SWAP6 PUSH32 0x0 SWAP6 SWAP3 SWAP5 PUSH32 0x0 SWAP5 SWAP4 DUP9 ADD DUP7 PUSH1 0x0 DUP3 DUP11 EXTCODECOPY DUP5 PUSH1 0x0 DUP9 DUP4 ADD DUP9 EXTCODECOPY POP PUSH1 0x20 DUP10 DUP2 ADD SWAP1 DUP10 DUP6 ADD ADD PUSH2 0x4AC DUP2 DUP4 DUP7 PUSH2 0x5E1 JUMP JUMPDEST POP POP POP POP POP POP POP POP POP SWAP2 SWAP1 POP JUMP JUMPDEST PUSH2 0x4C2 PUSH2 0x6AC JUMP JUMPDEST PUSH1 0x40 MLOAD DUP1 PUSH2 0x140 ADD PUSH1 0x40 MSTORE DUP1 PUSH2 0x4D6 PUSH2 0x26A JUMP JUMPDEST PUSH1 0x1 PUSH1 0x1 PUSH1 0xA0 SHL SUB AND DUP2 MSTORE PUSH1 0x20 ADD DUP9 DUP2 MSTORE PUSH1 0x20 ADD DUP8 DUP2 MSTORE PUSH1 0x20 ADD DUP7 PUSH1 0x0 DUP2 MLOAD DUP2 LT PUSH2 0x4FD JUMPI INVALID JUMPDEST PUSH1 0x20 MUL PUSH1 0x20 ADD ADD MLOAD PUSH1 0x1 PUSH1 0x1 PUSH1 0xA0 SHL SUB AND DUP2 MSTORE PUSH1 0x20 ADD DUP7 PUSH1 0x1 DUP2 MLOAD DUP2 LT PUSH2 0x520 JUMPI INVALID JUMPDEST PUSH1 0x20 MUL PUSH1 0x20 ADD ADD MLOAD PUSH1 0x1 PUSH1 0x1 PUSH1 0xA0 SHL SUB AND DUP2 MSTORE PUSH1 0x20 ADD DUP6 DUP2 MSTORE PUSH1 0x20 ADD PUSH3 0x76A700 DUP2 MSTORE PUSH1 0x20 ADD PUSH3 0x278D00 DUP2 MSTORE PUSH1 0x20 ADD DUP5 ISZERO ISZERO DUP2 MSTORE PUSH1 0x20 ADD DUP4 PUSH1 0x1 PUSH1 0x1 PUSH1 0xA0 SHL SUB AND DUP2 MSTORE POP SWAP1 POP SWAP7 SWAP6 POP POP POP POP POP POP JUMP JUMPDEST PUSH1 0x0 DUP1 PUSH2 0x57B DUP4 PUSH2 0x61F JUMP JUMPDEST PUSH1 0x1 PUSH1 0x1 PUSH1 0xA0 SHL SUB DUP2 AND PUSH1 0x0 DUP2 DUP2 MSTORE PUSH1 0x20 DUP2 SWAP1 MSTORE PUSH1 0x40 DUP1 DUP3 KECCAK256 DUP1 SLOAD PUSH1 0xFF NOT AND PUSH1 0x1 OR SWAP1 SSTORE MLOAD SWAP3 SWAP4 POP SWAP1 SWAP2 PUSH32 0x83A48FBCFC991335314E74D0496AAB6A1987E992DDC85DDDBCC4D6DD6EF2E9FC SWAP2 SWAP1 LOG2 SWAP3 SWAP2 POP POP JUMP JUMPDEST DUP2 PUSH2 0x5DD JUMPI PUSH2 0x5DD DUP2 PUSH2 0x659 JUMP JUMPDEST POP POP JUMP JUMPDEST JUMPDEST PUSH1 0x20 DUP2 LT PUSH2 0x601 JUMPI DUP2 MLOAD DUP4 MSTORE PUSH1 0x20 SWAP3 DUP4 ADD SWAP3 SWAP1 SWAP2 ADD SWAP1 PUSH1 0x1F NOT ADD PUSH2 0x5E2 JUMP JUMPDEST SWAP1 MLOAD DUP3 MLOAD PUSH1 0x20 SWAP3 SWAP1 SWAP3 SUB PUSH2 0x100 EXP PUSH1 0x0 NOT ADD DUP1 NOT SWAP1 SWAP2 AND SWAP2 AND OR SWAP1 MSTORE JUMP JUMPDEST PUSH1 0x0 DUP1 PUSH2 0x62B DUP4 PUSH2 0x3E1 JUMP JUMPDEST SWAP1 POP PUSH1 0x0 DUP2 MLOAD PUSH1 0x20 DUP4 ADD PUSH1 0x0 CREATE SWAP1 POP PUSH1 0x1 PUSH1 0x1 PUSH1 0xA0 SHL SUB DUP2 AND PUSH2 0x652 JUMPI RETURNDATASIZE PUSH1 0x0 DUP1 RETURNDATACOPY RETURNDATASIZE PUSH1 0x0 REVERT JUMPDEST SWAP4 SWAP3 POP POP POP JUMP JUMPDEST PUSH3 0x461BCD PUSH1 0xE5 SHL PUSH1 0x0 SWAP1 DUP2 MSTORE PUSH1 0x20 PUSH1 0x4 MSTORE PUSH1 0x7 PUSH1 0x24 MSTORE PUSH7 0x42414C23000030 PUSH1 0xA DUP1 DUP5 DIV DUP2 DUP2 MOD PUSH1 0x30 SWAP1 DUP2 ADD PUSH1 0x8 SHL SWAP6 DUP4 SWAP1 MOD SWAP6 SWAP1 SWAP6 ADD SWAP1 DUP3 SWAP1 DIV SWAP2 DUP3 MOD SWAP1 SWAP5 ADD PUSH1 0x10 SHL SWAP4 SWAP1 SWAP4 ADD ADD PUSH1 0xC8 SHL PUSH1 0x44 MSTORE PUSH1 0x64 SWAP1 REVERT JUMPDEST PUSH1 0x40 MLOAD DUP1 PUSH2 0x140 ADD PUSH1 0x40 MSTORE DUP1 PUSH1 0x0 PUSH1 0x1 PUSH1 0x1 PUSH1 0xA0 SHL SUB AND DUP2 MSTORE PUSH1 0x20 ADD PUSH1 0x60 DUP2 MSTORE PUSH1 0x20 ADD PUSH1 0x60 DUP2 MSTORE PUSH1 0x20 ADD PUSH1 0x0 PUSH1 0x1 PUSH1 0x1 PUSH1 0xA0 SHL SUB AND DUP2 MSTORE PUSH1 0x20 ADD PUSH1 0x0 PUSH1 0x1 PUSH1 0x1 PUSH1 0xA0 SHL SUB AND DUP2 MSTORE PUSH1 0x20 ADD PUSH1 0x0 DUP2 MSTORE PUSH1 0x20 ADD PUSH1 0x0 DUP2 MSTORE PUSH1 0x20 ADD PUSH1 0x0 DUP2 MSTORE PUSH1 0x20 ADD PUSH1 0x0 ISZERO ISZERO DUP2 MSTORE PUSH1 0x20 ADD PUSH1 0x0 PUSH1 0x1 PUSH1 0x1 PUSH1 0xA0 SHL SUB AND DUP2 MSTORE POP SWAP1 JUMP JUMPDEST DUP1 CALLDATALOAD PUSH2 0x265 DUP2 PUSH2 0xEDD JUMP JUMPDEST PUSH1 0x0 DUP3 PUSH1 0x1F DUP4 ADD SLT PUSH2 0x740 JUMPI DUP1 DUP2 REVERT JUMPDEST DUP2 CALLDATALOAD PUSH1 0x20 PUSH2 0x755 PUSH2 0x750 DUP4 PUSH2 0xEBF JUMP JUMPDEST PUSH2 0xE9B JUMP JUMPDEST DUP3 DUP2 MSTORE DUP2 DUP2 ADD SWAP1 DUP6 DUP4 ADD DUP4 DUP6 MUL DUP8 ADD DUP5 ADD DUP9 LT ISZERO PUSH2 0x771 JUMPI DUP6 DUP7 REVERT JUMPDEST DUP6 JUMPDEST DUP6 DUP2 LT ISZERO PUSH2 0x798 JUMPI DUP2 CALLDATALOAD PUSH2 0x786 DUP2 PUSH2 0xEDD JUMP JUMPDEST DUP5 MSTORE SWAP3 DUP5 ADD SWAP3 SWAP1 DUP5 ADD SWAP1 PUSH1 0x1 ADD PUSH2 0x773 JUMP JUMPDEST POP SWAP1 SWAP8 SWAP7 POP POP POP POP POP POP POP JUMP JUMPDEST PUSH1 0x0 DUP3 PUSH1 0x1F DUP4 ADD SLT PUSH2 0x7B5 JUMPI DUP1 DUP2 REVERT JUMPDEST DUP2 CALLDATALOAD PUSH1 0x20 PUSH2 0x7C5 PUSH2 0x750 DUP4 PUSH2 0xEBF JUMP JUMPDEST DUP3 DUP2 MSTORE DUP2 DUP2 ADD SWAP1 DUP6 DUP4 ADD DUP4 DUP6 MUL DUP8 ADD DUP5 ADD DUP9 LT ISZERO PUSH2 0x7E1 JUMPI DUP6 DUP7 REVERT JUMPDEST DUP6 JUMPDEST DUP6 DUP2 LT ISZERO PUSH2 0x798 JUMPI DUP2 CALLDATALOAD PUSH2 0x7F6 DUP2 PUSH2 0xEDD JUMP JUMPDEST DUP5 MSTORE SWAP3 DUP5 ADD SWAP3 SWAP1 DUP5 ADD SWAP1 PUSH1 0x1 ADD PUSH2 0x7E3 JUMP JUMPDEST DUP1 CALLDATALOAD DUP1 ISZERO ISZERO DUP2 EQ PUSH2 0x265 JUMPI PUSH1 0x0 DUP1 REVERT JUMPDEST PUSH1 0x0 DUP3 PUSH1 0x1F DUP4 ADD SLT PUSH2 0x828 JUMPI DUP1 DUP2 REVERT JUMPDEST DUP2 CALLDATALOAD PUSH8 0xFFFFFFFFFFFFFFFF DUP2 GT ISZERO PUSH2 0x83C JUMPI INVALID JUMPDEST PUSH2 0x84F PUSH1 0x1F DUP3 ADD PUSH1 0x1F NOT AND PUSH1 0x20 ADD PUSH2 0xE9B JUMP JUMPDEST DUP2 DUP2 MSTORE DUP5 PUSH1 0x20 DUP4 DUP7 ADD ADD GT ISZERO PUSH2 0x863 JUMPI DUP3 DUP4 REVERT JUMPDEST DUP2 PUSH1 0x20 DUP6 ADD PUSH1 0x20 DUP4 ADD CALLDATACOPY SWAP1 DUP2 ADD PUSH1 0x20 ADD SWAP2 SWAP1 SWAP2 MSTORE SWAP3 SWAP2 POP POP JUMP JUMPDEST PUSH1 0x0 PUSH1 0x60 DUP3 DUP5 SUB SLT ISZERO PUSH2 0x88E JUMPI DUP1 DUP2 REVERT JUMPDEST PUSH1 0x40 MLOAD PUSH1 0x60 DUP2 ADD DUP2 DUP2 LT PUSH8 0xFFFFFFFFFFFFFFFF DUP3 GT OR ISZERO PUSH2 0x8AB JUMPI INVALID JUMPDEST PUSH1 0x40 MSTORE SWAP1 POP DUP1 PUSH2 0x8BA DUP4 PUSH2 0x808 JUMP JUMPDEST DUP2 MSTORE PUSH1 0x20 DUP4 ADD CALLDATALOAD PUSH1 0x1 PUSH1 0x1 PUSH1 0x78 SHL SUB DUP2 AND DUP2 EQ PUSH2 0x8D6 JUMPI PUSH1 0x0 DUP1 REVERT JUMPDEST PUSH1 0x20 DUP3 ADD MSTORE PUSH1 0x40 DUP4 ADD CALLDATALOAD PUSH1 0x1 PUSH1 0x1 PUSH1 0x80 SHL SUB DUP2 AND DUP2 EQ PUSH2 0x8F5 JUMPI PUSH1 0x0 DUP1 REVERT JUMPDEST PUSH1 0x40 SWAP2 SWAP1 SWAP2 ADD MSTORE SWAP3 SWAP2 POP POP JUMP JUMPDEST PUSH1 0x0 PUSH2 0x120 DUP3 DUP5 SUB SLT ISZERO PUSH2 0x914 JUMPI DUP1 DUP2 REVERT JUMPDEST PUSH1 0x40 MLOAD PUSH1 0xE0 DUP2 ADD DUP2 DUP2 LT PUSH8 0xFFFFFFFFFFFFFFFF DUP3 GT OR ISZERO PUSH2 0x931 JUMPI INVALID JUMPDEST PUSH1 0x40 MSTORE SWAP1 POP DUP1 PUSH2 0x941 DUP5 DUP5 PUSH2 0x9F8 JUMP JUMPDEST DUP2 MSTORE PUSH2 0x950 DUP5 PUSH1 0x40 DUP6 ADD PUSH2 0x9F8 JUMP JUMPDEST PUSH1 0x20 DUP3 ADD MSTORE PUSH1 0x80 DUP4 ADD CALLDATALOAD PUSH1 0x40 DUP3 ADD MSTORE PUSH1 0xA0 DUP4 ADD CALLDATALOAD PUSH1 0x60 DUP3 ADD MSTORE PUSH1 0xC0 DUP4 ADD CALLDATALOAD PUSH1 0x80 DUP3 ADD MSTORE PUSH1 0xE0 DUP4 ADD CALLDATALOAD PUSH1 0xA0 DUP3 ADD MSTORE PUSH2 0x100 DUP4 ADD CALLDATALOAD PUSH1 0xC0 DUP3 ADD MSTORE POP SWAP3 SWAP2 POP POP JUMP JUMPDEST PUSH1 0x0 PUSH1 0xA0 DUP3 DUP5 SUB SLT ISZERO PUSH2 0x9A0 JUMPI DUP1 DUP2 REVERT JUMPDEST PUSH1 0x40 MLOAD PUSH1 0xA0 DUP2 ADD DUP2 DUP2 LT PUSH8 0xFFFFFFFFFFFFFFFF DUP3 GT OR ISZERO PUSH2 0x9BD JUMPI INVALID JUMPDEST DUP1 PUSH1 0x40 MSTORE POP DUP1 SWAP2 POP DUP3 CALLDATALOAD DUP2 MSTORE PUSH1 0x20 DUP4 ADD CALLDATALOAD PUSH1 0x20 DUP3 ADD MSTORE PUSH1 0x40 DUP4 ADD CALLDATALOAD PUSH1 0x40 DUP3 ADD MSTORE PUSH1 0x60 DUP4 ADD CALLDATALOAD PUSH1 0x60 DUP3 ADD MSTORE PUSH1 0x80 DUP4 ADD CALLDATALOAD PUSH1 0x80 DUP3 ADD MSTORE POP SWAP3 SWAP2 POP POP JUMP JUMPDEST PUSH1 0x0 PUSH1 0x40 DUP3 DUP5 SUB SLT ISZERO PUSH2 0xA09 JUMPI DUP1 DUP2 REVERT JUMPDEST PUSH1 0x40 MLOAD PUSH1 0x40 DUP2 ADD DUP2 DUP2 LT PUSH8 0xFFFFFFFFFFFFFFFF DUP3 GT OR ISZERO PUSH2 0xA26 JUMPI INVALID JUMPDEST PUSH1 0x40 MSTORE DUP3 CALLDATALOAD DUP2 MSTORE PUSH1 0x20 SWAP3 DUP4 ADD CALLDATALOAD SWAP3 DUP2 ADD SWAP3 SWAP1 SWAP3 MSTORE POP SWAP2 SWAP1 POP JUMP JUMPDEST PUSH1 0x0 PUSH1 0x20 DUP3 DUP5 SUB SLT ISZERO PUSH2 0xA51 JUMPI DUP1 DUP2 REVERT JUMPDEST DUP2 CALLDATALOAD PUSH2 0x652 DUP2 PUSH2 0xEDD JUMP JUMPDEST PUSH1 0x0 DUP1 PUSH1 0x0 DUP1 PUSH1 0x0 DUP1 PUSH1 0x0 DUP1 PUSH1 0x0 DUP1 PUSH1 0x0 DUP1 PUSH2 0x340 DUP14 DUP16 SUB SLT ISZERO PUSH2 0xA7E JUMPI DUP8 DUP9 REVERT JUMPDEST PUSH8 0xFFFFFFFFFFFFFFFF DUP14 CALLDATALOAD GT ISZERO PUSH2 0xA93 JUMPI DUP8 DUP9 REVERT JUMPDEST PUSH2 0xAA0 DUP15 DUP15 CALLDATALOAD DUP16 ADD PUSH2 0x818 JUMP JUMPDEST SWAP12 POP PUSH8 0xFFFFFFFFFFFFFFFF PUSH1 0x20 DUP15 ADD CALLDATALOAD GT ISZERO PUSH2 0xABA JUMPI DUP8 DUP9 REVERT JUMPDEST PUSH2 0xACA DUP15 PUSH1 0x20 DUP16 ADD CALLDATALOAD DUP16 ADD PUSH2 0x818 JUMP JUMPDEST SWAP11 POP PUSH8 0xFFFFFFFFFFFFFFFF PUSH1 0x40 DUP15 ADD CALLDATALOAD GT ISZERO PUSH2 0xAE4 JUMPI DUP8 DUP9 REVERT JUMPDEST PUSH2 0xAF4 DUP15 PUSH1 0x40 DUP16 ADD CALLDATALOAD DUP16 ADD PUSH2 0x7A5 JUMP JUMPDEST SWAP10 POP PUSH2 0xB03 DUP15 PUSH1 0x60 DUP16 ADD PUSH2 0x98F JUMP JUMPDEST SWAP9 POP PUSH2 0xB13 DUP15 PUSH2 0x100 DUP16 ADD PUSH2 0x902 JUMP JUMPDEST SWAP8 POP PUSH8 0xFFFFFFFFFFFFFFFF PUSH2 0x220 DUP15 ADD CALLDATALOAD GT ISZERO PUSH2 0xB2E JUMPI DUP7 DUP8 REVERT JUMPDEST PUSH2 0xB3F DUP15 PUSH2 0x220 DUP16 ADD CALLDATALOAD DUP16 ADD PUSH2 0x730 JUMP JUMPDEST SWAP7 POP PUSH2 0x240 DUP14 ADD CALLDATALOAD SWAP6 POP PUSH2 0xB56 PUSH2 0x260 DUP15 ADD PUSH2 0x808 JUMP JUMPDEST SWAP5 POP PUSH2 0xB65 PUSH2 0x280 DUP15 ADD PUSH2 0x725 JUMP JUMPDEST SWAP4 POP PUSH2 0xB74 PUSH2 0x2A0 DUP15 ADD PUSH2 0x725 JUMP JUMPDEST SWAP3 POP PUSH2 0xB84 DUP15 PUSH2 0x2C0 DUP16 ADD PUSH2 0x87D JUMP JUMPDEST SWAP2 POP PUSH2 0xB93 PUSH2 0x320 DUP15 ADD PUSH2 0x725 JUMP JUMPDEST SWAP1 POP SWAP3 SWAP6 SWAP9 SWAP12 POP SWAP3 SWAP6 SWAP9 SWAP12 POP SWAP3 SWAP6 SWAP9 SWAP12 JUMP JUMPDEST PUSH1 0x1 PUSH1 0x1 PUSH1 0xA0 SHL SUB AND SWAP1 MSTORE JUMP JUMPDEST ISZERO ISZERO SWAP1 MSTORE JUMP JUMPDEST PUSH1 0x0 DUP2 MLOAD DUP1 DUP5 MSTORE DUP2 JUMPDEST DUP2 DUP2 LT ISZERO PUSH2 0xBDD JUMPI PUSH1 0x20 DUP2 DUP6 ADD DUP2 ADD MLOAD DUP7 DUP4 ADD DUP3 ADD MSTORE ADD PUSH2 0xBC1 JUMP JUMPDEST DUP2 DUP2 GT ISZERO PUSH2 0xBEE JUMPI DUP3 PUSH1 0x20 DUP4 DUP8 ADD ADD MSTORE JUMPDEST POP PUSH1 0x1F ADD PUSH1 0x1F NOT AND SWAP3 SWAP1 SWAP3 ADD PUSH1 0x20 ADD SWAP3 SWAP2 POP POP JUMP JUMPDEST DUP1 MLOAD ISZERO ISZERO DUP3 MSTORE PUSH1 0x20 DUP1 DUP3 ADD MLOAD PUSH1 0x1 PUSH1 0x1 PUSH1 0x78 SHL SUB AND SWAP1 DUP4 ADD MSTORE PUSH1 0x40 SWAP1 DUP2 ADD MLOAD PUSH1 0x1 PUSH1 0x1 PUSH1 0x80 SHL SUB AND SWAP2 ADD MSTORE JUMP JUMPDEST PUSH2 0xC3B DUP3 DUP3 MLOAD PUSH2 0xD6F JUMP JUMPDEST PUSH1 0x20 DUP2 ADD MLOAD PUSH2 0xC4D PUSH1 0x40 DUP5 ADD DUP3 PUSH2 0xD6F JUMP JUMPDEST POP PUSH1 0x40 DUP2 ADD MLOAD PUSH1 0x80 DUP4 ADD MSTORE PUSH1 0x60 DUP2 ADD MLOAD PUSH1 0xA0 DUP4 ADD MSTORE PUSH1 0x80 DUP2 ADD MLOAD PUSH1 0xC0 DUP4 ADD MSTORE PUSH1 0xA0 DUP2 ADD MLOAD PUSH1 0xE0 DUP4 ADD MSTORE PUSH1 0xC0 DUP2 ADD MLOAD PUSH2 0x100 DUP4 ADD MSTORE POP POP JUMP JUMPDEST PUSH1 0x0 PUSH2 0x140 PUSH2 0xC95 DUP5 DUP5 MLOAD PUSH2 0xBA5 JUMP JUMPDEST PUSH1 0x20 DUP4 ADD MLOAD DUP2 PUSH1 0x20 DUP7 ADD MSTORE PUSH2 0xCAC DUP3 DUP7 ADD DUP3 PUSH2 0xBB8 JUMP JUMPDEST SWAP2 POP POP PUSH1 0x40 DUP4 ADD MLOAD DUP5 DUP3 SUB PUSH1 0x40 DUP7 ADD MSTORE PUSH2 0xCC6 DUP3 DUP3 PUSH2 0xBB8 JUMP JUMPDEST SWAP2 POP POP PUSH1 0x60 DUP4 ADD MLOAD PUSH2 0xCDB PUSH1 0x60 DUP7 ADD DUP3 PUSH2 0xBA5 JUMP JUMPDEST POP PUSH1 0x80 DUP4 ADD MLOAD PUSH2 0xCEE PUSH1 0x80 DUP7 ADD DUP3 PUSH2 0xBA5 JUMP JUMPDEST POP PUSH1 0xA0 DUP4 ADD MLOAD PUSH1 0xA0 DUP6 ADD MSTORE PUSH1 0xC0 DUP4 ADD MLOAD PUSH1 0xC0 DUP6 ADD MSTORE PUSH1 0xE0 DUP4 ADD MLOAD PUSH1 0xE0 DUP6 ADD MSTORE PUSH2 0x100 DUP1 DUP5 ADD MLOAD PUSH2 0xD20 DUP3 DUP8 ADD DUP3 PUSH2 0xBB2 JUMP JUMPDEST POP POP PUSH2 0x120 DUP1 DUP5 ADD MLOAD PUSH2 0xD35 DUP3 DUP8 ADD DUP3 PUSH2 0xBA5 JUMP JUMPDEST POP SWAP1 SWAP5 SWAP4 POP POP POP POP JUMP JUMPDEST DUP1 MLOAD DUP3 MSTORE PUSH1 0x20 DUP2 ADD MLOAD PUSH1 0x20 DUP4 ADD MSTORE PUSH1 0x40 DUP2 ADD MLOAD PUSH1 0x40 DUP4 ADD MSTORE PUSH1 0x60 DUP2 ADD MLOAD PUSH1 0x60 DUP4 ADD MSTORE PUSH1 0x80 DUP2 ADD MLOAD PUSH1 0x80 DUP4 ADD MSTORE POP POP JUMP JUMPDEST DUP1 MLOAD DUP3 MSTORE PUSH1 0x20 SWAP1 DUP2 ADD MLOAD SWAP2 ADD MSTORE JUMP JUMPDEST PUSH1 0x1 PUSH1 0x1 PUSH1 0xA0 SHL SUB SWAP2 SWAP1 SWAP2 AND DUP2 MSTORE PUSH1 0x20 ADD SWAP1 JUMP JUMPDEST PUSH1 0x1 PUSH1 0x1 PUSH1 0xA0 SHL SUB SWAP3 DUP4 AND DUP2 MSTORE SWAP2 AND PUSH1 0x20 DUP3 ADD MSTORE PUSH1 0x40 ADD SWAP1 JUMP JUMPDEST SWAP1 ISZERO ISZERO DUP2 MSTORE PUSH1 0x20 ADD SWAP1 JUMP JUMPDEST PUSH1 0x0 PUSH1 0x20 DUP3 MSTORE PUSH2 0x652 PUSH1 0x20 DUP4 ADD DUP5 PUSH2 0xBB8 JUMP JUMPDEST PUSH1 0x0 PUSH1 0x40 DUP3 MSTORE DUP4 MLOAD PUSH2 0x2C0 PUSH1 0x40 DUP5 ADD MSTORE PUSH2 0xDE8 PUSH2 0x300 DUP5 ADD DUP3 PUSH2 0xC85 JUMP JUMPDEST SWAP1 POP PUSH1 0x20 DUP6 ADD MLOAD PUSH2 0xDFC PUSH1 0x60 DUP6 ADD DUP3 PUSH2 0xD3F JUMP JUMPDEST POP PUSH1 0x40 DUP6 ADD MLOAD PUSH2 0xE10 PUSH2 0x100 DUP6 ADD DUP3 PUSH2 0xC30 JUMP JUMPDEST POP PUSH1 0x60 DUP6 ADD MLOAD PUSH2 0xE24 PUSH2 0x220 DUP6 ADD DUP3 PUSH2 0xBA5 JUMP JUMPDEST POP PUSH1 0x80 DUP6 ADD MLOAD PUSH2 0xE38 PUSH2 0x240 DUP6 ADD DUP3 PUSH2 0xBA5 JUMP JUMPDEST POP PUSH1 0xA0 DUP6 ADD MLOAD PUSH2 0xE4C PUSH2 0x260 DUP6 ADD DUP3 PUSH2 0xBA5 JUMP JUMPDEST POP PUSH1 0xC0 DUP6 ADD MLOAD PUSH2 0xE60 PUSH2 0x280 DUP6 ADD DUP3 PUSH2 0xC03 JUMP JUMPDEST POP PUSH1 0xE0 DUP6 ADD MLOAD PUSH2 0xE74 PUSH2 0x2E0 DUP6 ADD DUP3 PUSH2 0xBA5 JUMP JUMPDEST POP SWAP1 POP PUSH2 0x652 PUSH1 0x20 DUP4 ADD DUP5 PUSH2 0xBA5 JUMP JUMPDEST SWAP1 DUP2 MSTORE PUSH1 0x20 ADD SWAP1 JUMP JUMPDEST SWAP2 DUP3 MSTORE PUSH1 0x20 DUP3 ADD MSTORE PUSH1 0x40 ADD SWAP1 JUMP JUMPDEST PUSH1 0x40 MLOAD DUP2 DUP2 ADD PUSH8 0xFFFFFFFFFFFFFFFF DUP2 GT DUP3 DUP3 LT OR ISZERO PUSH2 0xEB7 JUMPI INVALID JUMPDEST PUSH1 0x40 MSTORE SWAP2 SWAP1 POP JUMP JUMPDEST PUSH1 0x0 PUSH8 0xFFFFFFFFFFFFFFFF DUP3 GT ISZERO PUSH2 0xED3 JUMPI INVALID JUMPDEST POP PUSH1 0x20 SWAP1 DUP2 MUL ADD SWAP1 JUMP JUMPDEST PUSH1 0x1 PUSH1 0x1 PUSH1 0xA0 SHL SUB DUP2 AND DUP2 EQ PUSH2 0xEF2 JUMPI PUSH1 0x0 DUP1 REVERT JUMPDEST POP JUMP INVALID LOG2 PUSH5 0x6970667358 0x22 SLT KECCAK256 XOR 0x2E 0xBD 0xD 0xD7 0xB6 0xE5 0x2C 0x5F GASLIMIT 0xED 0x1F CREATE2 0x25 0xDA 0xCA 0x2C DUP6 0xB5 0xDA 0xC4 0xEA SELFDESTRUCT 0xD2 DELEGATECALL RETURN 0xDF PUSH8 0xDF2F756964736F6C PUSH4 0x43000706 STOP CALLER ","sha1":"98f918feee02d2de486dad032ea267b39ad8ccb2","source":"// SPDX-License-Identifier: LicenseRef-Gyro-1.0\n// for information on licensing please see the README in the GitHub repository <https://github.com/gyrostable/concentrated-lps>.\n\npragma solidity 0.7.6;\npragma experimental ABIEncoderV2;\n\nimport \"@balancer-labs/v2-vault/contracts/interfaces/IVault.sol\";\n\nimport \"@balancer-labs/v2-pool-utils/contracts/factories/BasePoolSplitCodeFactory.sol\";\nimport \"@balancer-labs/v2-pool-utils/contracts/factories/FactoryWidePauseWindow.sol\";\n\nimport \"../../interfaces/IGyroECLPPoolFactory.sol\";\nimport \"../../interfaces/ICappedLiquidity.sol\";\nimport \"./GyroECLPPool.sol\";\n\ncontract GyroECLPPoolFactory is IGyroECLPPoolFactory, BasePoolSplitCodeFactory, FactoryWidePauseWindow {\n    address public immutable gyroConfigAddress;\n\n    uint256 public constant PAUSE_WINDOW_DURATION = 90 days;\n    uint256 public constant BUFFER_PERIOD_DURATION = 30 days;\n\n    constructor(IVault vault, address _gyroConfigAddress) BasePoolSplitCodeFactory(vault, type(GyroECLPPool).creationCode) {\n        _grequire(_gyroConfigAddress != address(0), GyroErrors.ZERO_ADDRESS);\n        _grequire(address(vault) != address(0), GyroErrors.ZERO_ADDRESS);\n        gyroConfigAddress = _gyroConfigAddress;\n    }\n\n    /**\n     * @dev Deploys a new `GyroECLPPool`.\n     */\n    function create(\n        string memory name,\n        string memory symbol,\n        IERC20[] memory tokens,\n        GyroECLPMath.Params memory eclpParams,\n        GyroECLPMath.DerivedParams memory derivedECLPParams,\n        address[] memory rateProviders,\n        uint256 swapFeePercentage,\n        bool oracleEnabled,\n        address owner,\n        address capManager,\n        ICappedLiquidity.CapParams memory capParams,\n        address pauseManager\n    ) external override returns (address) {\n        ExtensibleWeightedPool2Tokens.NewPoolParams memory baseParams = _makePoolParams(\n            name,\n            symbol,\n            tokens,\n            swapFeePercentage,\n            oracleEnabled,\n            owner\n        );\n\n        GyroECLPPool.GyroParams memory params = GyroECLPPool.GyroParams({\n            baseParams: baseParams,\n            eclpParams: eclpParams,\n            derivedEclpParams: derivedECLPParams,\n            rateProvider0: rateProviders[0],\n            rateProvider1: rateProviders[1],\n            capManager: capManager,\n            capParams: capParams,\n            pauseManager: pauseManager\n        });\n\n        return _create(abi.encode(params, gyroConfigAddress));\n    }\n\n    function _makePoolParams(\n        string memory name,\n        string memory symbol,\n        IERC20[] memory tokens,\n        uint256 swapFeePercentage,\n        bool oracleEnabled,\n        address owner\n    ) internal view returns (ExtensibleWeightedPool2Tokens.NewPoolParams memory) {\n        return\n            ExtensibleWeightedPool2Tokens.NewPoolParams({\n                vault: getVault(),\n                name: name,\n                symbol: symbol,\n                token0: tokens[0],\n                token1: tokens[1],\n                swapFeePercentage: swapFeePercentage,\n                pauseWindowDuration: PAUSE_WINDOW_DURATION,\n                bufferPeriodDuration: BUFFER_PERIOD_DURATION,\n                oracleEnabled: oracleEnabled,\n                owner: owner\n            });\n    }\n}\n","sourcePath":"contracts/eclp/GyroECLPPoolFactory.sol","type":"contract","deployment":{"address":"0x949af2Fc2a04761F2a0A921507EcEE91A1F9d02f","chainid":"137","blockHeight":41209480}}