{"abi":[{"inputs":[{"internalType":"contract IAuthorizer","name":"authorizer","type":"address"},{"internalType":"contract IWETH","name":"weth","type":"address"},{"internalType":"uint256","name":"pauseWindowDuration","type":"uint256"},{"internalType":"uint256","name":"bufferPeriodDuration","type":"uint256"}],"stateMutability":"nonpayable","type":"constructor","name":"constructor"},{"anonymous":false,"inputs":[{"indexed":true,"internalType":"contract IAuthorizer","name":"newAuthorizer","type":"address"}],"name":"AuthorizerChanged","type":"event"},{"anonymous":false,"inputs":[{"indexed":true,"internalType":"contract IERC20","name":"token","type":"address"},{"indexed":true,"internalType":"address","name":"sender","type":"address"},{"indexed":false,"internalType":"address","name":"recipient","type":"address"},{"indexed":false,"internalType":"uint256","name":"amount","type":"uint256"}],"name":"ExternalBalanceTransfer","type":"event"},{"anonymous":false,"inputs":[{"indexed":true,"internalType":"contract IFlashLoanRecipient","name":"recipient","type":"address"},{"indexed":true,"internalType":"contract IERC20","name":"token","type":"address"},{"indexed":false,"internalType":"uint256","name":"amount","type":"uint256"},{"indexed":false,"internalType":"uint256","name":"feeAmount","type":"uint256"}],"name":"FlashLoan","type":"event"},{"anonymous":false,"inputs":[{"indexed":true,"internalType":"address","name":"user","type":"address"},{"indexed":true,"internalType":"contract IERC20","name":"token","type":"address"},{"indexed":false,"internalType":"int256","name":"delta","type":"int256"}],"name":"InternalBalanceChanged","type":"event"},{"anonymous":false,"inputs":[{"indexed":false,"internalType":"bool","name":"paused","type":"bool"}],"name":"PausedStateChanged","type":"event"},{"anonymous":false,"inputs":[{"indexed":true,"internalType":"bytes32","name":"poolId","type":"bytes32"},{"indexed":true,"internalType":"address","name":"liquidityProvider","type":"address"},{"indexed":false,"internalType":"contract IERC20[]","name":"tokens","type":"address[]"},{"indexed":false,"internalType":"int256[]","name":"deltas","type":"int256[]"},{"indexed":false,"internalType":"uint256[]","name":"protocolFeeAmounts","type":"uint256[]"}],"name":"PoolBalanceChanged","type":"event"},{"anonymous":false,"inputs":[{"indexed":true,"internalType":"bytes32","name":"poolId","type":"bytes32"},{"indexed":true,"internalType":"address","name":"assetManager","type":"address"},{"indexed":true,"internalType":"contract IERC20","name":"token","type":"address"},{"indexed":false,"internalType":"int256","name":"cashDelta","type":"int256"},{"indexed":false,"internalType":"int256","name":"managedDelta","type":"int256"}],"name":"PoolBalanceManaged","type":"event"},{"anonymous":false,"inputs":[{"indexed":true,"internalType":"bytes32","name":"poolId","type":"bytes32"},{"indexed":true,"internalType":"address","name":"poolAddress","type":"address"},{"indexed":false,"internalType":"enum IVault.PoolSpecialization","name":"specialization","type":"uint8"}],"name":"PoolRegistered","type":"event"},{"anonymous":false,"inputs":[{"indexed":true,"internalType":"address","name":"relayer","type":"address"},{"indexed":true,"internalType":"address","name":"sender","type":"address"},{"indexed":false,"internalType":"bool","name":"approved","type":"bool"}],"name":"RelayerApprovalChanged","type":"event"},{"anonymous":false,"inputs":[{"indexed":true,"internalType":"bytes32","name":"poolId","type":"bytes32"},{"indexed":true,"internalType":"contract IERC20","name":"tokenIn","type":"address"},{"indexed":true,"internalType":"contract IERC20","name":"tokenOut","type":"address"},{"indexed":false,"internalType":"uint256","name":"amountIn","type":"uint256"},{"indexed":false,"internalType":"uint256","name":"amountOut","type":"uint256"}],"name":"Swap","type":"event"},{"anonymous":false,"inputs":[{"indexed":true,"internalType":"bytes32","name":"poolId","type":"bytes32"},{"indexed":false,"internalType":"contract IERC20[]","name":"tokens","type":"address[]"}],"name":"TokensDeregistered","type":"event"},{"anonymous":false,"inputs":[{"indexed":true,"internalType":"bytes32","name":"poolId","type":"bytes32"},{"indexed":false,"internalType":"contract IERC20[]","name":"tokens","type":"address[]"},{"indexed":false,"internalType":"address[]","name":"assetManagers","type":"address[]"}],"name":"TokensRegistered","type":"event"},{"inputs":[],"name":"WETH","outputs":[{"internalType":"contract IWETH","name":"","type":"address"}],"stateMutability":"view","type":"function"},{"inputs":[{"internalType":"enum IVault.SwapKind","name":"kind","type":"uint8"},{"components":[{"internalType":"bytes32","name":"poolId","type":"bytes32"},{"internalType":"uint256","name":"assetInIndex","type":"uint256"},{"internalType":"uint256","name":"assetOutIndex","type":"uint256"},{"internalType":"uint256","name":"amount","type":"uint256"},{"internalType":"bytes","name":"userData","type":"bytes"}],"internalType":"struct IVault.BatchSwapStep[]","name":"swaps","type":"tuple[]"},{"internalType":"contract IAsset[]","name":"assets","type":"address[]"},{"components":[{"internalType":"address","name":"sender","type":"address"},{"internalType":"bool","name":"fromInternalBalance","type":"bool"},{"internalType":"address payable","name":"recipient","type":"address"},{"internalType":"bool","name":"toInternalBalance","type":"bool"}],"internalType":"struct IVault.FundManagement","name":"funds","type":"tuple"},{"internalType":"int256[]","name":"limits","type":"int256[]"},{"internalType":"uint256","name":"deadline","type":"uint256"}],"name":"batchSwap","outputs":[{"internalType":"int256[]","name":"assetDeltas","type":"int256[]"}],"stateMutability":"payable","type":"function"},{"inputs":[{"internalType":"bytes32","name":"poolId","type":"bytes32"},{"internalType":"contract IERC20[]","name":"tokens","type":"address[]"}],"name":"deregisterTokens","outputs":[],"stateMutability":"nonpayable","type":"function"},{"inputs":[{"internalType":"bytes32","name":"poolId","type":"bytes32"},{"internalType":"address","name":"sender","type":"address"},{"internalType":"address payable","name":"recipient","type":"address"},{"components":[{"internalType":"contract IAsset[]","name":"assets","type":"address[]"},{"internalType":"uint256[]","name":"minAmountsOut","type":"uint256[]"},{"internalType":"bytes","name":"userData","type":"bytes"},{"internalType":"bool","name":"toInternalBalance","type":"bool"}],"internalType":"struct IVault.ExitPoolRequest","name":"request","type":"tuple"}],"name":"exitPool","outputs":[],"stateMutability":"nonpayable","type":"function"},{"inputs":[{"internalType":"contract IFlashLoanRecipient","name":"recipient","type":"address"},{"internalType":"contract IERC20[]","name":"tokens","type":"address[]"},{"internalType":"uint256[]","name":"amounts","type":"uint256[]"},{"internalType":"bytes","name":"userData","type":"bytes"}],"name":"flashLoan","outputs":[],"stateMutability":"nonpayable","type":"function"},{"inputs":[{"internalType":"bytes4","name":"selector","type":"bytes4"}],"name":"getActionId","outputs":[{"internalType":"bytes32","name":"","type":"bytes32"}],"stateMutability":"view","type":"function"},{"inputs":[],"name":"getAuthorizer","outputs":[{"internalType":"contract IAuthorizer","name":"","type":"address"}],"stateMutability":"view","type":"function"},{"inputs":[],"name":"getDomainSeparator","outputs":[{"internalType":"bytes32","name":"","type":"bytes32"}],"stateMutability":"view","type":"function"},{"inputs":[{"internalType":"address","name":"user","type":"address"},{"internalType":"contract IERC20[]","name":"tokens","type":"address[]"}],"name":"getInternalBalance","outputs":[{"internalType":"uint256[]","name":"balances","type":"uint256[]"}],"stateMutability":"view","type":"function"},{"inputs":[{"internalType":"address","name":"user","type":"address"}],"name":"getNextNonce","outputs":[{"internalType":"uint256","name":"","type":"uint256"}],"stateMutability":"view","type":"function"},{"inputs":[],"name":"getPausedState","outputs":[{"internalType":"bool","name":"paused","type":"bool"},{"internalType":"uint256","name":"pauseWindowEndTime","type":"uint256"},{"internalType":"uint256","name":"bufferPeriodEndTime","type":"uint256"}],"stateMutability":"view","type":"function"},{"inputs":[{"internalType":"bytes32","name":"poolId","type":"bytes32"}],"name":"getPool","outputs":[{"internalType":"address","name":"","type":"address"},{"internalType":"enum IVault.PoolSpecialization","name":"","type":"uint8"}],"stateMutability":"view","type":"function"},{"inputs":[{"internalType":"bytes32","name":"poolId","type":"bytes32"},{"internalType":"contract IERC20","name":"token","type":"address"}],"name":"getPoolTokenInfo","outputs":[{"internalType":"uint256","name":"cash","type":"uint256"},{"internalType":"uint256","name":"managed","type":"uint256"},{"internalType":"uint256","name":"lastChangeBlock","type":"uint256"},{"internalType":"address","name":"assetManager","type":"address"}],"stateMutability":"view","type":"function"},{"inputs":[{"internalType":"bytes32","name":"poolId","type":"bytes32"}],"name":"getPoolTokens","outputs":[{"internalType":"contract IERC20[]","name":"tokens","type":"address[]"},{"internalType":"uint256[]","name":"balances","type":"uint256[]"},{"internalType":"uint256","name":"lastChangeBlock","type":"uint256"}],"stateMutability":"view","type":"function"},{"inputs":[],"name":"getProtocolFeesCollector","outputs":[{"internalType":"contract IProtocolFeesCollector","name":"","type":"address"}],"stateMutability":"view","type":"function"},{"inputs":[{"internalType":"address","name":"user","type":"address"},{"internalType":"address","name":"relayer","type":"address"}],"name":"hasApprovedRelayer","outputs":[{"internalType":"bool","name":"","type":"bool"}],"stateMutability":"view","type":"function"},{"inputs":[{"internalType":"bytes32","name":"poolId","type":"bytes32"},{"internalType":"address","name":"sender","type":"address"},{"internalType":"address","name":"recipient","type":"address"},{"components":[{"internalType":"contract IAsset[]","name":"assets","type":"address[]"},{"internalType":"uint256[]","name":"maxAmountsIn","type":"uint256[]"},{"internalType":"bytes","name":"userData","type":"bytes"},{"internalType":"bool","name":"fromInternalBalance","type":"bool"}],"internalType":"struct IVault.JoinPoolRequest","name":"request","type":"tuple"}],"name":"joinPool","outputs":[],"stateMutability":"payable","type":"function"},{"inputs":[{"components":[{"internalType":"enum IVault.PoolBalanceOpKind","name":"kind","type":"uint8"},{"internalType":"bytes32","name":"poolId","type":"bytes32"},{"internalType":"contract IERC20","name":"token","type":"address"},{"internalType":"uint256","name":"amount","type":"uint256"}],"internalType":"struct IVault.PoolBalanceOp[]","name":"ops","type":"tuple[]"}],"name":"managePoolBalance","outputs":[],"stateMutability":"nonpayable","type":"function"},{"inputs":[{"components":[{"internalType":"enum IVault.UserBalanceOpKind","name":"kind","type":"uint8"},{"internalType":"contract IAsset","name":"asset","type":"address"},{"internalType":"uint256","name":"amount","type":"uint256"},{"internalType":"address","name":"sender","type":"address"},{"internalType":"address payable","name":"recipient","type":"address"}],"internalType":"struct IVault.UserBalanceOp[]","name":"ops","type":"tuple[]"}],"name":"manageUserBalance","outputs":[],"stateMutability":"payable","type":"function"},{"inputs":[{"internalType":"enum IVault.SwapKind","name":"kind","type":"uint8"},{"components":[{"internalType":"bytes32","name":"poolId","type":"bytes32"},{"internalType":"uint256","name":"assetInIndex","type":"uint256"},{"internalType":"uint256","name":"assetOutIndex","type":"uint256"},{"internalType":"uint256","name":"amount","type":"uint256"},{"internalType":"bytes","name":"userData","type":"bytes"}],"internalType":"struct IVault.BatchSwapStep[]","name":"swaps","type":"tuple[]"},{"internalType":"contract IAsset[]","name":"assets","type":"address[]"},{"components":[{"internalType":"address","name":"sender","type":"address"},{"internalType":"bool","name":"fromInternalBalance","type":"bool"},{"internalType":"address payable","name":"recipient","type":"address"},{"internalType":"bool","name":"toInternalBalance","type":"bool"}],"internalType":"struct IVault.FundManagement","name":"funds","type":"tuple"}],"name":"queryBatchSwap","outputs":[{"internalType":"int256[]","name":"","type":"int256[]"}],"stateMutability":"nonpayable","type":"function"},{"inputs":[{"internalType":"enum IVault.PoolSpecialization","name":"specialization","type":"uint8"}],"name":"registerPool","outputs":[{"internalType":"bytes32","name":"","type":"bytes32"}],"stateMutability":"nonpayable","type":"function"},{"inputs":[{"internalType":"bytes32","name":"poolId","type":"bytes32"},{"internalType":"contract IERC20[]","name":"tokens","type":"address[]"},{"internalType":"address[]","name":"assetManagers","type":"address[]"}],"name":"registerTokens","outputs":[],"stateMutability":"nonpayable","type":"function"},{"inputs":[{"internalType":"contract IAuthorizer","name":"newAuthorizer","type":"address"}],"name":"setAuthorizer","outputs":[],"stateMutability":"nonpayable","type":"function"},{"inputs":[{"internalType":"bool","name":"paused","type":"bool"}],"name":"setPaused","outputs":[],"stateMutability":"nonpayable","type":"function"},{"inputs":[{"internalType":"address","name":"sender","type":"address"},{"internalType":"address","name":"relayer","type":"address"},{"internalType":"bool","name":"approved","type":"bool"}],"name":"setRelayerApproval","outputs":[],"stateMutability":"nonpayable","type":"function"},{"inputs":[{"components":[{"internalType":"bytes32","name":"poolId","type":"bytes32"},{"internalType":"enum IVault.SwapKind","name":"kind","type":"uint8"},{"internalType":"contract IAsset","name":"assetIn","type":"address"},{"internalType":"contract IAsset","name":"assetOut","type":"address"},{"internalType":"uint256","name":"amount","type":"uint256"},{"internalType":"bytes","name":"userData","type":"bytes"}],"internalType":"struct IVault.SingleSwap","name":"singleSwap","type":"tuple"},{"components":[{"internalType":"address","name":"sender","type":"address"},{"internalType":"bool","name":"fromInternalBalance","type":"bool"},{"internalType":"address payable","name":"recipient","type":"address"},{"internalType":"bool","name":"toInternalBalance","type":"bool"}],"internalType":"struct IVault.FundManagement","name":"funds","type":"tuple"},{"internalType":"uint256","name":"limit","type":"uint256"},{"internalType":"uint256","name":"deadline","type":"uint256"}],"name":"swap","outputs":[{"internalType":"uint256","name":"amountCalculated","type":"uint256"}],"stateMutability":"payable","type":"function"},{"stateMutability":"payable","type":"receive"}],"bytecode":"6101806040523480156200001257600080fd5b5060405162006d5038038062006d5083398101604081905262000035916200025b565b838383838382826040518060400160405280601181526020017010985b185b98d95c88158c8815985d5b1d607a1b81525080604051806040016040528060018152602001603160f81b815250306001600160a01b031660001b89806001600160a01b03166080816001600160a01b031660601b815250505030604051620000bc906200024d565b620000c89190620002a7565b604051809103906000f080158015620000e5573d6000803e3d6000fd5b5060601b6001600160601b03191660a052600160005560c052815160209283012060e052805191012061010052507f8b73c3c69bb8fe3d512ecc4cf759cc79239f7b179b0ffacaa9a75d522b39400f610120526200014c6276a70083111561019462000189565b6200016062278d0082111561019562000189565b4290910161014081905201610160526200017a816200019e565b505050505050505050620002d4565b816200019a576200019a81620001fa565b5050565b6040516001600160a01b038216907f94b979b6831a51293e2641426f97747feed46f17779fed9cd18d1ecefcfe92ef90600090a2600380546001600160a01b0390921661010002610100600160a81b0319909216919091179055565b62461bcd60e51b6000908152602060045260076024526642414c23000030600a808404818106603090810160081b95839006959095019082900491820690940160101b939093010160c81b604452606490fd5b610b05806200624b83390190565b6000806000806080858703121562000271578384fd5b84516200027e81620002bb565b60208601519094506200029181620002bb565b6040860151606090960151949790965092505050565b6001600160a01b0391909116815260200190565b6001600160a01b0381168114620002d157600080fd5b50565b60805160601c60a05160601c60c05160e05161010051610120516101405161016051615f136200033860003980611a6c525080611a485250806127f65250806128385250806128175250806110c352508061137c5250806105085250615f136000f3fe6080604052600436106101855760003560e01c8063945bcec9116100d1578063e6c460921161008a578063f84d066e11610064578063f84d066e1461046a578063f94d46681461048a578063fa6e671d146104b9578063fec90d72146104d9576101b3565b8063e6c4609214610407578063ed24911d14610427578063f6c009271461043c576101b3565b8063945bcec914610365578063aaabadc514610378578063ad5c46481461039a578063b05f8e48146103af578063b95cac28146103df578063d2946c2b146103f2576101b3565b806352bbbe291161013e5780637d3aeb96116101185780637d3aeb96146102e5578063851c1bb3146103055780638bdb39131461032557806390193b7c14610345576101b3565b806352bbbe29146102925780635c38449e146102a557806366a9c7d2146102c5576101b3565b8063058a628f146101b857806309b2760f146101d85780630e8e3e841461020e5780630f5a6efa1461022157806316c38b3c1461024e5780631c0de0511461026e576101b3565b366101b3576101b1610195610506565b6001600160a01b0316336001600160a01b03161461020661052b565b005b600080fd5b3480156101c457600080fd5b506101b16101d33660046151ae565b61053d565b3480156101e457600080fd5b506101f86101f3366004615763565b610561565b6040516102059190615d49565b60405180910390f35b6101b161021c366004615389565b610614565b34801561022d57600080fd5b5061024161023c36600461524c565b610750565b6040516102059190615d13565b34801561025a57600080fd5b506101b16102693660046154dd565b6107e5565b34801561027a57600080fd5b506102836107fe565b60405161020593929190615d31565b6101f86102a0366004615908565b610827565b3480156102b157600080fd5b506101b16102c03660046156d9565b6109c8565b3480156102d157600080fd5b506101b16102e03660046155c4565b610dca565b3480156102f157600080fd5b506101b1610300366004615596565b610f69565b34801561031157600080fd5b506101f86103203660046156b1565b6110bd565b34801561033157600080fd5b506101b161034036600461552d565b611116565b34801561035157600080fd5b506101f86103603660046151ae565b61112c565b610241610373366004615801565b611147565b34801561038457600080fd5b5061038d61127b565b6040516102059190615ba8565b3480156103a657600080fd5b5061038d61128f565b3480156103bb57600080fd5b506103cf6103ca36600461568d565b61129e565b6040516102059493929190615e49565b6101b16103ed36600461552d565b611361565b3480156103fe57600080fd5b5061038d61137a565b34801561041357600080fd5b506101b1610422366004615299565b61139e565b34801561043357600080fd5b506101f86114ba565b34801561044857600080fd5b5061045c610457366004615515565b6114c4565b604051610205929190615bbc565b34801561047657600080fd5b5061024161048536600461577f565b6114ee565b34801561049657600080fd5b506104aa6104a5366004615515565b6115d2565b60405161020593929190615cdd565b3480156104c557600080fd5b506101b16104d4366004615202565b611606565b3480156104e557600080fd5b506104f96104f43660046151ca565b611698565b6040516102059190615d26565b7f00000000000000000000000000000000000000000000000000000000000000005b90565b8161053957610539816116ad565b5050565b610545611700565b61054d611719565b61055681611747565b61055e6117a3565b50565b600061056b611700565b6105736117aa565b600061058233846006546117bf565b6000818152600560205260409020549091506105a49060ff16156101f461052b565b60008181526005602052604090819020805460ff1916600190811790915560068054909101905551339082907f3c13bc30b8e878c53fd2a36b679409c073afd75950be43d8858768e956fbc20e906105fd908790615dcf565b60405180910390a3905061060f6117a3565b919050565b61061c611700565b6000806000805b845181101561073b5760008060008060006106518a878151811061064357fe5b6020026020010151896117fe565b9c50939850919650945092509050600185600381111561066d57fe5b14156106845761067f84838386611876565b61072a565b86610696576106916117aa565b600196505b60008560038111156106a457fe5b14156106d5576106b684838386611899565b6106bf846118b9565b1561067f576106ce89846118c6565b985061072a565b6106ea6106e1856118b9565b1561020761052b565b60006106f585610528565b9050600286600381111561070557fe5b141561071c57610717818484876118d8565b610728565b610728818484876118f1565b505b505060019093019250610623915050565b506107458361195f565b50505061055e6117a3565b606081516001600160401b038111801561076957600080fd5b50604051908082528060200260200182016040528015610793578160200160208202803683370190505b50905060005b82518110156107de576107bf848483815181106107b257fe5b6020026020010151611982565b8282815181106107cb57fe5b6020908102919091010152600101610799565b5092915050565b6107ed611700565b6107f5611719565b610556816119ad565b600080600061080b611a29565b159250610816611a46565b9150610820611a6a565b9050909192565b6000610831611700565b6108396117aa565b835161084481611a8e565b610853834211156101fc61052b565b61086660008760800151116101fe61052b565b60006108758760400151611ac0565b905060006108868860600151611ac0565b90506108a9816001600160a01b0316836001600160a01b031614156101fd61052b565b6108b1614ccf565b885160808201526020890151819060018111156108ca57fe5b908160018111156108d757fe5b9052506001600160a01b03808416602083015282811660408084019190915260808b0151606084015260a08b01516101008401528951821660c08401528901511660e082015260008061092983611ae5565b9198509250905061096060008c60200151600181111561094557fe5b146109535789831115610958565b898210155b6101fb61052b565b6109788b60400151838c600001518d60200151611bd9565b6109908b60600151828c604001518d60600151611cb7565b6109b26109a08c604001516118b9565b6109ab5760006109ad565b825b61195f565b5050505050506109c06117a3565b949350505050565b6109d0611700565b6109d86117aa565b6109e483518351611d91565b600083516001600160401b03811180156109fd57600080fd5b50604051908082528060200260200182016040528015610a27578160200160208202803683370190505b509050600084516001600160401b0381118015610a4357600080fd5b50604051908082528060200260200182016040528015610a6d578160200160208202803683370190505b5090506000805b8651811015610be6576000878281518110610a8b57fe5b602002602001015190506000878381518110610aa357fe5b60200260200101519050610aee846001600160a01b0316836001600160a01b03161160006001600160a01b0316846001600160a01b031614610ae6576066610ae9565b60685b61052b565b819350816001600160a01b03166370a08231306040518263ffffffff1660e01b8152600401610b1d9190615ba8565b60206040518083038186803b158015610b3557600080fd5b505afa158015610b49573d6000803e3d6000fd5b505050506040513d601f19601f82011682018060405250810190610b6d91906159ea565b858481518110610b7957fe5b602002602001018181525050610b8e81611d9e565b868481518110610b9a57fe5b602002602001018181525050610bc881868581518110610bb657fe5b6020026020010151101561021061052b565b610bdc6001600160a01b0383168b83611e25565b5050600101610a74565b5060405163f04f270760e01b81526001600160a01b0388169063f04f270790610c19908990899088908a90600401615c90565b600060405180830381600087803b158015610c3357600080fd5b505af1158015610c47573d6000803e3d6000fd5b5050505060005b8651811015610db8576000878281518110610c6557fe5b602002602001015190506000848381518110610c7d57fe5b602002602001015190506000826001600160a01b03166370a08231306040518263ffffffff1660e01b8152600401610cb59190615ba8565b60206040518083038186803b158015610ccd57600080fd5b505afa158015610ce1573d6000803e3d6000fd5b505050506040513d601f19601f82011682018060405250810190610d0591906159ea565b9050610d168282101561020361052b565b60008282039050610d3f888681518110610d2c57fe5b602002602001015182101561025a61052b565b610d498482611e77565b836001600160a01b03168c6001600160a01b03167f0d7d75e01ab95780d3cd1c8ec0dd6c2ce19e3a20427eec8bf53283b6fb8e95f08c8881518110610d8a57fe5b602002602001015184604051610da1929190615ddd565b60405180910390a350505050806001019050610c4e565b50505050610dc46117a3565b50505050565b610dd2611700565b610dda6117aa565b82610de481611e99565b610df083518351611d91565b60005b8351811015610e8e576000848281518110610e0a57fe5b60200260200101519050610e3660006001600160a01b0316826001600160a01b0316141561013561052b565b838281518110610e4257fe5b6020908102919091018101516000888152600a835260408082206001600160a01b0395861683529093529190912080546001600160a01b03191692909116919091179055600101610df3565b506000610e9a85611eca565b90506002816002811115610eaa57fe5b1415610ef857610ec0845160021461020c61052b565b610ef38585600081518110610ed157fe5b602002602001015186600181518110610ee657fe5b6020026020010151611ee4565b610f20565b6001816002811115610f0657fe5b1415610f1657610ef38585611f90565b610f208585611fe8565b847ff5847d3f2197b16cdcd2098ec95d0905cd1abdaf415f07bb7cef2bba8ac5dec48585604051610f52929190615c05565b60405180910390a25050610f646117a3565b505050565b610f71611700565b610f796117aa565b81610f8381611e99565b6000610f8e84611eca565b90506002816002811115610f9e57fe5b1415610fec57610fb4835160021461020c61052b565b610fe78484600081518110610fc557fe5b602002602001015185600181518110610fda57fe5b602002602001015161203d565b611014565b6001816002811115610ffa57fe5b141561100a57610fe784846120ab565b6110148484612165565b60005b835181101561107a57600a6000868152602001908152602001600020600085838151811061104157fe5b6020908102919091018101516001600160a01b0316825281019190915260400160002080546001600160a01b0319169055600101611017565b50837f7dcdc6d02ef40c7c1a7046a011b058bd7f988fa14e20a66344f9d4e60657d610846040516110ab9190615bf2565b60405180910390a250506105396117a3565b604080517f00000000000000000000000000000000000000000000000000000000000000006020808301919091526001600160e01b03198416828401528251602481840301815260449092019092528051910120919050565b610dc46001858585611127866121c8565b6121d4565b6001600160a01b031660009081526002602052604090205490565b6060611151611700565b6111596117aa565b835161116481611a8e565b611173834211156101fc61052b565b61117f86518551611d91565b61118b8787878b61235a565b91506000805b875181101561125d5760008882815181106111a857fe5b6020026020010151905060008583815181106111c057fe5b602002602001015190506111ec8884815181106111d957fe5b60200260200101518213156101fb61052b565b600081131561122c57885160208a0151829161120b9185918491611bd9565b611214836118b9565b156112265761122385826118c6565b94505b50611253565b600081121561125357600081600003905061125183828c604001518d60600151611cb7565b505b5050600101611191565b506112678161195f565b50506112716117a3565b9695505050505050565b60035461010090046001600160a01b031690565b6000611299610506565b905090565b600080600080856112ae816125e8565b6000806112ba89611eca565b905060028160028111156112ca57fe5b14156112e1576112da8989612606565b915061130c565b60018160028111156112ef57fe5b14156112ff576112da8989612680565b61130989896126ee565b91505b61131582612706565b965061132082612712565b955061132b82612721565b6000998a52600a60209081526040808c206001600160a01b039b8c168d5290915290992054969995989796909616955050505050565b6113696117aa565b610dc46000858585611127866121c8565b7f000000000000000000000000000000000000000000000000000000000000000090565b6113a6611700565b6113ae6117aa565b6113b6614d1f565b60005b82518110156114b0578281815181106113ce57fe5b602002602001015191506000826020015190506113ea816125e8565b60408301516114046113fc8383612727565b61020961052b565b6000828152600a602090815260408083206001600160a01b038581168552925290912054611437911633146101f661052b565b8351606085015160008061144d84878786612783565b91509150846001600160a01b0316336001600160a01b0316877f6edcaf6241105b4c94c2efdbf3a6b12458eb3d07be3a0e81d24b13c44045fe7a8585604051611497929190615ddd565b60405180910390a45050505050508060010190506113b9565b505061055e6117a3565b60006112996127f2565b600080826114d1816125e8565b6114da846128b0565b6114e385611eca565b925092505b50915091565b60603330146115a8576000306001600160a01b0316600036604051611514929190615b71565b6000604051808303816000865af19150503d8060008114611551576040519150601f19603f3d011682016040523d82523d6000602084013e611556565b606091505b50509050806000811461156557fe5b60046000803e6000516001600160e01b031916637d30e60960e11b8114611590573d6000803e3d6000fd5b50602060005260043d0380600460203e602081016000f35b60006115b68585858961235a565b9050602081510263fa61cc126020830352600482036024820181fd5b6060806000836115e1816125e8565b60606115ec866128b6565b90955090506115fa81612918565b95979096509350505050565b61160e611700565b6116166117aa565b8261162081611a8e565b6001600160a01b0384811660008181526004602090815260408083209488168084529490915290819020805460ff1916861515179055519091907f46961fdb4502b646d5095fba7600486a8ac05041d55cdf0f16ed677180b5cad890611687908690615d26565b60405180910390a350610f646117a3565b60006116a483836129c6565b90505b92915050565b62461bcd60e51b6000908152602060045260076024526642414c23000030600a808404818106603090810160081b95839006959095019082900491820690940160101b939093010160c81b604452606490fd5b6117126002600054141561019061052b565b6002600055565b60006117306000356001600160e01b0319166110bd565b905061055e61173f82336129f4565b61019161052b565b6040516001600160a01b038216907f94b979b6831a51293e2641426f97747feed46f17779fed9cd18d1ecefcfe92ef90600090a2600380546001600160a01b0390921661010002610100600160a81b0319909216919091179055565b6001600055565b6117bd6117b5611a29565b61019261052b565b565b600069ffffffffffffffffffff821660508460028111156117dc57fe5b901b17606085901b6bffffffffffffffffffffffff19161790505b9392505050565b600080600080600080600088606001519050336001600160a01b0316816001600160a01b031614611850578761183b57611836611719565b600197505b61185061184882336129c6565b6101f761052b565b885160208a015160408b01516080909b0151919b909a9992985090965090945092505050565b61188b8361188386611ac0565b836000612a7e565b50610dc48482846000611cb7565b6118ac826118a686611ac0565b83612ad4565b610dc48482856000611bd9565b6001600160a01b03161590565b60008282016116a4848210158361052b565b6118e58385836000612a7e565b50610dc4828583612ad4565b8015610dc45761190c6001600160a01b038516848484612b04565b826001600160a01b0316846001600160a01b03167f540a1a3f28340caec336c81d8d7b3df139ee5cdc1839a4f283d7ebb7eaae2d5c8484604051611951929190615bd9565b60405180910390a350505050565b61196e8134101561020461052b565b348190038015610539576105393382612b5e565b6001600160a01b039182166000908152600b6020908152604080832093909416825291909152205490565b80156119cd576119c86119be611a46565b421061019361052b565b6119e2565b6119e26119d8611a6a565b42106101a961052b565b6003805482151560ff19909116811790915560408051918252517f9e3a5e37224532dea67b89face185703738a228a6e8a23dee546960180d3be649181900360200190a150565b6000611a33611a6a565b42118061129957505060035460ff161590565b7f000000000000000000000000000000000000000000000000000000000000000090565b7f000000000000000000000000000000000000000000000000000000000000000090565b336001600160a01b0382161461055e57611aa6611719565b611ab081336129c6565b61055e5761055e816101f7612bcd565b6000611acb826118b9565b611add57611ad882610528565b6116a7565b6116a7610506565b600080600080611af885608001516128b0565b90506000611b098660800151611eca565b90506002816002811115611b1957fe5b1415611b3057611b298683612c01565b9450611b5b565b6001816002811115611b3e57fe5b1415611b4e57611b298683612cb1565b611b588683612d44565b94505b611b6e8660000151876060015187612f68565b809450819550505085604001516001600160a01b031686602001516001600160a01b031687608001517f2170c741c41531aec20e7c107c24eecfdd15e69c9bb0a8dd37b1840b9e0b207b8787604051611bc8929190615ddd565b60405180910390a450509193909250565b82611be357610dc4565b611bec846118b9565b15611c6d57611bfe811561020261052b565b611c0d8347101561020461052b565b611c15610506565b6001600160a01b031663d0e30db0846040518263ffffffff1660e01b81526004016000604051808303818588803b158015611c4f57600080fd5b505af1158015611c63573d6000803e3d6000fd5b5050505050610dc4565b6000611c7885610528565b90508115611c95576000611c8f8483876001612a7e565b90940393505b8315611cb057611cb06001600160a01b038216843087612b04565b5050505050565b82611cc157610dc4565b611cca846118b9565b15611d5a57611cdc811561020261052b565b611ce4610506565b6001600160a01b0316632e1a7d4d846040518263ffffffff1660e01b8152600401611d0f9190615d49565b600060405180830381600087803b158015611d2957600080fd5b505af1158015611d3d573d6000803e3d6000fd5b50611d55925050506001600160a01b03831684612b5e565b610dc4565b6000611d6585610528565b90508115611d7d57611d78838286612ad4565b611cb0565b611cb06001600160a01b0382168486611e25565b610539818314606761052b565b600080611da961137a565b6001600160a01b031663d877845c6040518163ffffffff1660e01b815260040160206040518083038186803b158015611de157600080fd5b505afa158015611df5573d6000803e3d6000fd5b505050506040513d601f19601f82011682018060405250810190611e1991906159ea565b90506117f78382612f96565b604080516001600160a01b038416602482015260448082018490528251808303909101815260649091019091526020810180516001600160e01b031663a9059cbb60e01b179052610f64908490612fe3565b801561053957610539611e8861137a565b6001600160a01b0384169083611e25565b611ea2816125e8565b61055e611eae826128b0565b6001600160a01b0316336001600160a01b0316146101f561052b565b600061ffff605083901c166116a7600382106101f461052b565b611f05816001600160a01b0316836001600160a01b0316141561020a61052b565b611f24816001600160a01b0316836001600160a01b031610606661052b565b60008381526009602052604090208054611f61906001600160a01b0316158015611f59575060018201546001600160a01b0316155b61020b61052b565b80546001600160a01b039384166001600160a01b03199182161782556001909101805492909316911617905550565b6000828152600860205260408120905b8251811015610dc4576000611fd1848381518110611fba57fe5b6020026020010151846130cd90919063ffffffff16565b9050611fdf8161020a61052b565b50600101611fa0565b6000828152600160205260408120905b8251811015610dc457600061202684838151811061201257fe5b602090810291909101015184906000613130565b90506120348161020a61052b565b50600101611ff8565b600080600061204d8686866131dd565b92509250925061207761205f846132a4565b801561206f575061206f836132a4565b61020d61052b565b600095865260096020526040862080546001600160a01b031990811682556001909101805490911690559490945550505050565b6000828152600860205260408120905b8251811015610dc45760008382815181106120d257fe5b6020026020010151905061211e61206f600760008881526020019081526020016000206000846001600160a01b03166001600160a01b03168152602001908152602001600020546132a4565b60008581526007602090815260408083206001600160a01b0385168452909152812081905561214d84836132b1565b905061215b8161020961052b565b50506001016120bb565b6000828152600160205260408120905b8251811015610dc457600083828151811061218c57fe5b6020026020010151905060006121a284836133bf565b90506121b061206f826132a4565b6121ba84836133ce565b505050806001019050612175565b6121d0614d48565b5090565b6121dc611700565b836121e6816125e8565b836121f081611a8e565b612204836000015151846020015151611d91565b600061221384600001516134a0565b90506000612221888361352f565b905060008060006122368c8c8c8c8c896135c0565b92509250925060006122478c611eca565b9050600281600281111561225757fe5b14156122bf576122ba8c8760008151811061226e57fe5b60200260200101518660008151811061228357fe5b60200260200101518960018151811061229857fe5b6020026020010151886001815181106122ad57fe5b6020026020010151613785565b6122e8565b60018160028111156122cd57fe5b14156122de576122ba8c87866137c4565b6122e88c85613831565b6000808e60018111156122f757fe5b1490508b6001600160a01b03168d7fe5ce249087ce04f05a957192435400fd97868dba0e6a4b4c049abf8af80dae7889612331888661387a565b8760405161234193929190615c57565b60405180910390a3505050505050505050611cb06117a3565b606083516001600160401b038111801561237357600080fd5b5060405190808252806020026020018201604052801561239d578160200160208202803683370190505b5090506123a8614d72565b6123b0614ccf565b60008060005b89518110156125db578981815181106123cb57fe5b602002602001015194506000895186602001511080156123ef575089518660400151105b90506123fc81606461052b565b600061241e8b88602001518151811061241157fe5b6020026020010151611ac0565b905060006124358c89604001518151811061241157fe5b9050612458816001600160a01b0316836001600160a01b031614156101fd61052b565b60608801516124a857612470600085116101fe61052b565b600061247d8b8484613921565b6001600160a01b0316876001600160a01b031614905061249f816101ff61052b565b50606088018590525b87516080880152868a60018111156124bc57fe5b908160018111156124c957fe5b9052506001600160a01b0380831660208901528181166040808a01919091526060808b0151908a015260808a01516101008a01528c51821660c08a01528c01511660e088015260008061251b89611ae5565b9198509250905061252d8c8585613943565b975061256161253b8361395d565b8c8c602001518151811061254b57fe5b602002602001015161397190919063ffffffff16565b8b8b602001518151811061257157fe5b6020026020010181815250506125af6125898261395d565b8c8c604001518151811061259957fe5b60200260200101516139a590919063ffffffff16565b8b8b60400151815181106125bf57fe5b60200260200101818152505050505050508060010190506123b6565b5050505050949350505050565b60008181526005602052604090205461055e9060ff166101f461052b565b6000806000806000612617876139d9565b945094509450945050836001600160a01b0316866001600160a01b0316141561264657829450505050506116a7565b816001600160a01b0316866001600160a01b0316141561266b5793506116a792505050565b6126766102096116ad565b5050505092915050565b60008281526007602090815260408083206001600160a01b0385168452909152812054816126ad82613a4f565b806126cb575060008581526008602052604090206126cb9085613a61565b9050806126e6576126db856125e8565b6126e66102096116ad565b509392505050565b60008281526001602052604081206109c081846133bf565b6001600160701b031690565b60701c6001600160701b031690565b60e01c90565b60008061273384611eca565b9050600281600281111561274357fe5b141561275b576127538484613a82565b9150506116a7565b600181600281111561276957fe5b1415612779576127538484613ad3565b6127538484613aeb565b600080600061279186611eca565b905060008760028111156127a157fe5b14156127bd576127b386828787613b03565b92509250506127e9565b60018760028111156127cb57fe5b14156127dd576127b386828787613b7e565b6127b386828787613bfa565b94509492505050565b60007f00000000000000000000000000000000000000000000000000000000000000007f00000000000000000000000000000000000000000000000000000000000000007f000000000000000000000000000000000000000000000000000000000000000061285f613c5d565b3060405160200180868152602001858152602001848152602001838152602001826001600160a01b031681526020019550505050505060405160208183030381529060405280519060200120905090565b60601c90565b60608060006128c484611eca565b905060028160028111156128d457fe5b14156128ed576128e384613c61565b9250925050612913565b60018160028111156128fb57fe5b141561290a576128e384613d96565b6128e384613ebb565b915091565b6060600082516001600160401b038111801561293357600080fd5b5060405190808252806020026020018201604052801561295d578160200160208202803683370190505b5091506000905060005b82518110156114e857600084828151811061297e57fe5b6020026020010151905061299181613fb5565b84838151811061299d57fe5b6020026020010181815250506129bb836129b683612721565b613fd0565b925050600101612967565b6001600160a01b03918216600090815260046020908152604080832093909416825291909152205460ff1690565b6003546040516326f8aa2160e21b815260009161010090046001600160a01b031690639be2a88490612a2e90869086903090600401615d52565b60206040518083038186803b158015612a4657600080fd5b505afa158015612a5a573d6000803e3d6000fd5b505050506040513d601f19601f820116820180604052508101906116a491906154f9565b600080612a8b8686611982565b9050612aa48380612a9c5750848210155b61020161052b565b612aae8185613fe7565b9150818103612aca878783612ac28761395d565b600003613ff6565b5050949350505050565b6000612ae08484611982565b90506000612aee82846118c6565b9050611cb0858583612aff8761395d565b613ff6565b604080516001600160a01b0380861660248301528416604482015260648082018490528251808303909101815260849091019091526020810180516001600160e01b03166323b872dd60e01b179052610dc4908590612fe3565b612b6d814710156101a361052b565b6040516000906001600160a01b0384169083908381818185875af1925050503d8060008114612bb8576040519150601f19603f3d011682016040523d82523d6000602084013e612bbd565b606091505b50509050610f64816101a461052b565b6001600160a01b0382166000908152600260205260409020805460018101909155610f64612bfb8483614051565b8361052b565b600080600080612c1e8660800151876020015188604001516131dd565b92509250925060008087604001516001600160a01b031688602001516001600160a01b03161015612c53575083905082612c59565b50829050835b612c658888848461419f565b60408b015160208c01519199509294509092506001600160a01b03918216911610612c9957612c94818361429c565b612ca3565b612ca3828261429c565b909255509295945050505050565b600080612cc684608001518560200151612680565b90506000612cdc85608001518660400151612680565b9050612cea8585848461419f565b6080880180516000908152600760208181526040808420828e01516001600160a01b03908116865290835281852098909855935183529081528282209a830151909516815298909352919096209590955550929392505050565b60808201516000908152600160209081526040822090840151829182918290612d6e9083906142d7565b90506000612d898860400151846142d790919063ffffffff16565b9050811580612d96575080155b15612db357612da888608001516125e8565b612db36102096116ad565b60001991820191016000612dc6846142f6565b90506000816001600160401b0381118015612de057600080fd5b50604051908082528060200260200182016040528015612e0a578160200160208202803683370190505b50600060a08c018190529091505b82811015612e8a576000612e2c87836142fa565b9050612e3781613fb5565b838381518110612e4357fe5b602002602001018181525050612e608c60a001516129b683612721565b60a08d015281861415612e7557809850612e81565b84821415612e81578097505b50600101612e18565b5060405162f64aa560e11b81526001600160a01b038a16906301ec954a90612ebc908d90859089908990600401615deb565b602060405180830381600087803b158015612ed657600080fd5b505af1158015612eea573d6000803e3d6000fd5b505050506040513d601f19601f82011682018060405250810190612f0e91906159ea565b9750600080612f268c600001518d606001518c612f68565b9092509050612f358983614310565b9850612f418882614341565b9750612f4e87878b614357565b612f5987868a614357565b50505050505050505092915050565b60008080856001811115612f7857fe5b1415612f88575082905081612f8e565b50819050825b935093915050565b6000828202612fba841580612fb3575083858381612fb057fe5b04145b600361052b565b80612fc95760009150506116a7565b670de0b6b3a76400006000198201046001019150506116a7565b600080836001600160a01b0316836040518082805190602001908083835b602083106130205780518252601f199092019160209182019101613001565b6001836020036101000a0380198251168184511680821785525050505050509050019150506000604051808303816000865af19150503d8060008114613082576040519150601f19603f3d011682016040523d82523d6000602084013e613087565b606091505b5091509150600082141561309f573d6000803e3d6000fd5b610dc48151600014806130c557508180602001905160208110156130c257600080fd5b50515b6101a261052b565b60006130d98383613a61565b61312857508154600180820184556000848152602080822090930180546001600160a01b0319166001600160a01b038616908117909155855490825282860190935260409020919091556116a7565b5060006116a7565b6001600160a01b0382166000908152600284016020526040812054806131bd57505082546040805180820182526001600160a01b03858116808352602080840187815260008781526001808c018452878220965187546001600160a01b031916961695909517865590519484019490945594820180895590835260028801909452919020919091556117f7565b6000190160009081526001808601602052604082200183905590506117f7565b60008060008060006131ef878761436f565b9150915060006131ff83836143a0565b60008a81526009602090815260408083208484526002019091528120805460018201549197509293509061323283613a4f565b80613241575061324182613a4f565b8061326257506132518c87613a82565b801561326257506132628c86613a82565b90508061327d576132728c6125e8565b61327d6102096116ad565b61328783836143d3565b985061329383836143f8565b975050505050505093509350939050565b6001600160e01b03161590565b6001600160a01b038116600090815260018301602052604081205480156133b5578354600019808301910180821461335d5760008660000182815481106132f457fe5b60009182526020909120015487546001600160a01b039091169150819088908590811061331d57fe5b600091825260208083209190910180546001600160a01b0319166001600160a01b0394851617905592909116815260018881019092526040902090830190555b855486908061336857fe5b60008281526020808220830160001990810180546001600160a01b03191690559092019092556001600160a01b03871682526001888101909152604082209190915593506116a792505050565b60009150506116a7565b60006116a4838361020961440f565b6001600160a01b038116600090815260028301602052604081205480156133b55783546000198083019101808214613456576000818152600180880160209081526040808420868552818520815481546001600160a01b0319166001600160a01b039182161782558286015491860191909155905416845260028a0190915290912090830190555b600081815260018088016020908152604080842080546001600160a01b031916815583018490559389556001600160a01b03881683526002890190529181205592506116a7915050565b6060600082516001600160401b03811180156134bb57600080fd5b506040519080825280602002602001820160405280156134e5578160200160208202803683370190505b50905060005b83518110156107de5761350384828151811061241157fe5b82828151811061350f57fe5b6001600160a01b03909216602092830291909101909101526001016134eb565b606060008061353d856128b6565b9150915061354d82518551611d91565b61355d600083511161020f61052b565b60005b82518110156135b7576135af85828151811061357857fe5b60200260200101516001600160a01b031684838151811061359557fe5b60200260200101516001600160a01b03161461020861052b565b600101613560565b50949350505050565b60608060606000806135d186612918565b9150915060006135e08b6128b0565b905060008c60018111156135f057fe5b1461369357806001600160a01b03166374f3b0098c8c8c878761361161444c565b8f604001516040518863ffffffff1660e01b81526004016136389796959493929190615d71565b600060405180830381600087803b15801561365257600080fd5b505af1158015613666573d6000803e3d6000fd5b505050506040513d6000823e601f3d908101601f1916820160405261368e9190810190615487565b61372c565b806001600160a01b031663d5c096c48c8c8c87876136af61444c565b8f604001516040518863ffffffff1660e01b81526004016136d69796959493929190615d71565b600060405180830381600087803b1580156136f057600080fd5b505af1158015613704573d6000803e3d6000fd5b505050506040513d6000823e601f3d908101601f1916820160405261372c9190810190615487565b80955081965050506137428751865186516144c6565b60008c600181111561375057fe5b146137675761376289898988886144de565b613774565b6137748a89898888614624565b955050505096509650969350505050565b600061379185846143a0565b600087815260096020908152604080832084845260020190915290209091506137ba858461429c565b9055505050505050565b60005b8251811015610dc4578181815181106137dc57fe5b602002602001015160076000868152602001908152602001600020600085848151811061380557fe5b6020908102919091018101516001600160a01b03168252810191909152604001600020556001016137c7565b6000828152600160205260408120905b8251811015610dc4576138728184838151811061385a57fe5b6020026020010151846143579092919063ffffffff16565b600101613841565b606082516001600160401b038111801561389357600080fd5b506040519080825280602002602001820160405280156138bd578160200160208202803683370190505b50905060005b83518110156107de57826138ed578381815181106138dd57fe5b6020026020010151600003613902565b8381815181106138f957fe5b60200260200101515b82828151811061390e57fe5b60209081029190910101526001016138c3565b60008084600181111561393057fe5b1461393b57816109c0565b509092915050565b60008084600181111561395257fe5b146107de57826109c0565b60006121d0600160ff1b83106101a561052b565b60008282016116a48284128015906139895750848212155b8061399e575060008412801561399e57508482125b600061052b565b60008183036116a48284128015906139bd5750848213155b806139d257506000841280156139d257508482135b600161052b565b6000818152600960205260408120805460018201546001600160a01b0391821692849290911690829081613a0d86856143a0565b6000818152600284016020526040902080546001820154919950919250613a3482826143d3565b9650613a4082826143f8565b94505050505091939590929450565b6000613a5a826132a4565b1592915050565b6001600160a01b031660009081526001919091016020526040902054151590565b600082815260096020526040812080546001600160a01b0384811691161480613aba575060018101546001600160a01b038481169116145b80156109c0575050506001600160a01b03161515919050565b60008281526008602052604081206109c08184613a61565b60008281526001602052604081206109c08184614799565b6000806002856002811115613b1457fe5b1415613b2a57613b258685856147ba565b613b54565b6001856002811115613b3857fe5b1415613b4957613b258685856147c8565b613b548685856147d6565b8215613b6e57613b6e6001600160a01b0385163385611e25565b5050600081900394909350915050565b6000806002856002811115613b8f57fe5b1415613ba557613ba08685856147e4565b613bcf565b6001856002811115613bb357fe5b1415613bc457613ba08685856147f2565b613bcf868585614800565b8215613bea57613bea6001600160a01b038516333086612b04565b5090946000869003945092505050565b6000806002856002811115613c0b57fe5b1415613c2357613c1c86858561480e565b9050613c50565b6001856002811115613c3157fe5b1415613c4257613c1c86858561481e565b613c4d86858561482e565b90505b6000915094509492505050565b4690565b606080600080600080613c73876139d9565b92975090955093509150506001600160a01b0384161580613c9b57506001600160a01b038216155b15613cc45750506040805160008082526020820190815281830190925294509250612913915050565b60408051600280825260608201835290916020830190803683370190505095508386600081518110613cf257fe5b60200260200101906001600160a01b031690816001600160a01b0316815250508186600181518110613d2057fe5b6001600160a01b03929092166020928302919091018201526040805160028082526060820183529092909190830190803683370190505094508285600081518110613d6757fe5b6020026020010181815250508085600181518110613d8157fe5b60200260200101818152505050505050915091565b60008181526008602052604090206060908190613db2816142f6565b6001600160401b0381118015613dc757600080fd5b50604051908082528060200260200182016040528015613df1578160200160208202803683370190505b50925082516001600160401b0381118015613e0b57600080fd5b50604051908082528060200260200182016040528015613e35578160200160208202803683370190505b50915060005b8351811015613eb4576000613e50838361483e565b905080858381518110613e5f57fe5b6001600160a01b03928316602091820292909201810191909152600088815260078252604080822093851682529290915220548451859084908110613ea057fe5b602090810291909101015250600101613e3b565b5050915091565b60008181526001602052604090206060908190613ed7816142f6565b6001600160401b0381118015613eec57600080fd5b50604051908082528060200260200182016040528015613f16578160200160208202803683370190505b50925082516001600160401b0381118015613f3057600080fd5b50604051908082528060200260200182016040528015613f5a578160200160208202803683370190505b50915060005b8351811015613eb457613f73828261486b565b858381518110613f7f57fe5b60200260200101858481518110613f9257fe5b60209081029190910101919091526001600160a01b039091169052600101613f60565b6000613fc082612712565b613fc983612706565b0192915050565b600081831015613fe057816116a4565b5090919050565b6000818310613fe057816116a4565b6001600160a01b038085166000818152600b602090815260408083209488168084529490915290819020859055517f18e1ea4139e68413d7d08aa752e71568e36b2c5bf940893314c2c5b01eaa0c4290611951908590615d49565b60008061405c61488f565b9050428110156140705760009150506116a7565b600061407a61489b565b90508061408c576000925050506116a7565b6000816140976149ac565b80516020918201206040805180840194909452838101919091523360608401526080830188905260a08084018790528151808503909101815260c090930190528151910120905060006140e9826149fb565b905060008060006140f8614a47565b925092509250600060018585858560405160008152602001604052604051808581526020018460ff1681526020018381526020018281526020019450505050506020604051602081039080840390855afa15801561415a573d6000803e3d6000fd5b5050604051601f1901519150506001600160a01b0381161580159061419057508a6001600160a01b0316816001600160a01b0316145b9b9a5050505050505050505050565b6000806000806141ae86613fb5565b905060006141bb86613fb5565b90506141d26141c988612721565b6129b688612721565b60a08a015260405163274b044360e21b81526001600160a01b03891690639d2c110c90614207908c9086908690600401615e24565b602060405180830381600087803b15801561422157600080fd5b505af1158015614235573d6000803e3d6000fd5b505050506040513d601f19601f8201168201806040525081019061425991906159ea565b92506000806142718b600001518c6060015187612f68565b90925090506142808983614310565b965061428c8882614341565b9550505050509450945094915050565b6000806142b46142ab85612721565b6129b685612721565b90506109c06142c285612706565b6142cb85612706565b8363ffffffff16614a6e565b6001600160a01b03166000908152600291909101602052604090205490565b5490565b6000908152600191820160205260409020015490565b6000806143268361432086612706565b906118c6565b9050600061433385612712565b905043611271838383614a7c565b6000806143268361435186612706565b90614aaa565b60009182526001928301602052604090912090910155565b600080826001600160a01b0316846001600160a01b031610614392578284614395565b83835b915091509250929050565b600082826040516020016143b5929190615b81565b60405160208183030381529060405280519060200120905092915050565b60006116a46143e184612706565b6143ea84612706565b6143f386612721565b614a7c565b60006116a461440684612712565b6143ea84612712565b6001600160a01b03821660009081526002840160205260408120546144368115158461052b565b61444385600183036142fa565b95945050505050565b600061445661137a565b6001600160a01b03166355c676286040518163ffffffff1660e01b815260040160206040518083038186803b15801561448e57600080fd5b505afa1580156144a2573d6000803e3d6000fd5b505050506040513d601f19601f8201168201806040525081019061129991906159ea565b610f6482841480156144d757508183145b606761052b565b606083516001600160401b03811180156144f757600080fd5b50604051908082528060200260200182016040528015614521578160200160208202803683370190505b50905060005b85515181101561461a57600084828151811061453f57fe5b6020026020010151905061456f8760200151838151811061455c57fe5b60200260200101518210156101f961052b565b60008760000151838151811061458157fe5b6020026020010151905061459b81838b8b60600151611cb7565b60008584815181106145a957fe5b602002602001015190506145c56145bf83611ac0565b82611e77565b6145f46145d284836118c6565b8986815181106145de57fe5b602002602001015161434190919063ffffffff16565b85858151811061460057fe5b602002602001018181525050505050806001019050614527565b5095945050505050565b6060600084516001600160401b038111801561463f57600080fd5b50604051908082528060200260200182016040528015614669578160200160208202803683370190505b50915060005b86515181101561478f57600085828151811061468757fe5b602002602001015190506146b7886020015183815181106146a457fe5b60200260200101518211156101fa61052b565b6000886000015183815181106146c957fe5b602002602001015190506146e381838c8c60600151611bd9565b6146ec816118b9565b156146fe576146fb84836118c6565b93505b600086848151811061470c57fe5b602002602001015190506147226145bf83611ac0565b808310156147415761473c8382038a86815181106145de57fe5b614769565b6147698184038a868151811061475357fe5b602002602001015161431090919063ffffffff16565b86858151811061477557fe5b60200260200101818152505050505080600101905061466f565b5061461a8161195f565b6001600160a01b031660009081526002919091016020526040902054151590565b610dc48383614ac084614afb565b610dc48383614ac084614ba6565b610dc48383614ac084614c01565b610dc48383614c5084614afb565b610dc48383614c5084614ba6565b610dc48383614c5084614c01565b60006109c08484614c7185614afb565b60006109c08484614c7185614ba6565b60006109c08484614c7185614c01565b600082600001828154811061484f57fe5b6000918252602090912001546001600160a01b03169392505050565b600090815260019182016020526040902080549101546001600160a01b0390911691565b60006112996000614c8b565b6000803560e01c8063b95cac2881146148e357638bdb3913811461490b576352bbbe2981146149335763945bcec9811461495b5763fa6e671d811461498357600092506149a7565b7f3f7b71252bd19113ff48c19c6e004a9bcfcca320a0d74d58e85877cbd7dcae5892506149a7565b7f8bbc57f66ea936902f50a71ce12b92c43f3c5340bb40c27c4e90ab84eeae335392506149a7565b7fe192dcbc143b1e244ad73b813fd3c097b832ad260a157340b4e5e5beda067abe92506149a7565b7f9bfc43a4d98313c6766986ffd7c916c7481566d9f224c6819af0a53388aced3a92506149a7565b7fa3f865aa351e51cfeb40f5178d1564bb629fe9030b83caf6361d1baaf5b90b5a92505b505090565b60606000368080601f0160208091040260200160405190810160405280939291908181526020018383808284376000920191909152505082519293505050608010156105285760803603815290565b6000614a056127f2565b82604051602001808061190160f01b81525060020183815260200182815260200192505050604051602081830303815290604052805190602001209050919050565b6000806000614a566020614c8b565b9250614a626040614c8b565b91506108206060614c8b565b60e01b60709190911b010190565b6000838301614a9f858210801590614a975750600160701b82105b61020e61052b565b614443858585614a6e565b6000614aba83831115600161052b565b50900390565b600080614ad08361435186612706565b90506000614ae18461432087612712565b90506000614aee86612721565b9050611271838383614a7c565b6000806000806000614b0c896139d9565b9450509350935093506000836001600160a01b0316896001600160a01b03161415614b57576000614b4184898b63ffffffff16565b9050614b4d8185614c95565b9093509050614b79565b6000614b6783898b63ffffffff16565b9050614b738184614c95565b90925090505b614b83838361429c565b8555614b8f8383614cb1565b600190950194909455509192505050949350505050565b600080614bb38686612680565b90506000614bc582858763ffffffff16565b60008881526007602090815260408083206001600160a01b038b16845290915290208190559050614bf68183614c95565b979650505050505050565b600084815260016020526040812081614c1a82876133bf565b90506000614c2c82868863ffffffff16565b9050614c39838883613130565b50614c448183614c95565b98975050505050505050565b600080614c608361432086612706565b90506000614ae18461435187612712565b600080614c7d84612706565b905043614443828583614a7c565b3601607f19013590565b6000614ca082612712565b614ca984612712565b039392505050565b60006116a4614cbf84612712565b614cc884612712565b6000614a6e565b60408051610120810190915280600081526000602082018190526040820181905260608083018290526080830182905260a0830182905260c0830182905260e08301919091526101009091015290565b604080516080810190915280600081526000602082018190526040820181905260609091015290565b60405180608001604052806060815260200160608152602001606081526020016000151581525090565b6040518060a0016040528060008019168152602001600081526020016000815260200160008152602001606081525090565b803561060f81615ead565b600082601f830112614dbf578081fd5b81356020614dd4614dcf83615e90565b615e6d565b8281528181019085830183850287018401881015614df0578586fd5b855b85811015614e17578135614e0581615ead565b84529284019290840190600101614df2565b5090979650505050505050565b600082601f830112614e34578081fd5b81356020614e44614dcf83615e90565b8281528181019085830183850287018401881015614e60578586fd5b855b85811015614e17578135614e7581615ead565b84529284019290840190600101614e62565b600082601f830112614e97578081fd5b81356020614ea7614dcf83615e90565b82815281810190858301855b85811015614e17578135880160a080601f19838d03011215614ed3578889fd5b604080518281016001600160401b038282108183111715614ef057fe5b8184528a8601358352838601358b84015260609150818601358484015260809350838601358284015284860135945080851115614f2b578c8dfd5b5050614f3b8d8a85870101615015565b91810191909152865250509284019290840190600101614eb3565b600082601f830112614f66578081fd5b81356020614f76614dcf83615e90565b8281528181019085830183850287018401881015614f92578586fd5b855b85811015614e1757813584529284019290840190600101614f94565b600082601f830112614fc0578081fd5b81516020614fd0614dcf83615e90565b8281528181019085830183850287018401881015614fec578586fd5b855b85811015614e1757815184529284019290840190600101614fee565b803561060f81615ec2565b600082601f830112615025578081fd5b81356001600160401b0381111561503857fe5b61504b601f8201601f1916602001615e6d565b81815284602083860101111561505f578283fd5b816020850160208301379081016020019190915292915050565b80356002811061060f57600080fd5b600060808284031215615099578081fd5b6150a36080615e6d565b905081356001600160401b03808211156150bc57600080fd5b6150c885838601614daf565b835260208401359150808211156150de57600080fd5b6150ea85838601614f56565b6020840152604084013591508082111561510357600080fd5b5061511084828501615015565b6040830152506151226060830161500a565b606082015292915050565b60006080828403121561513e578081fd5b604051608081018181106001600160401b038211171561515a57fe5b604052905080823561516b81615ead565b8152602083013561517b81615ec2565b6020820152604083013561518e81615ead565b604082015260608301356151a181615ec2565b6060919091015292915050565b6000602082840312156151bf578081fd5b81356116a481615ead565b600080604083850312156151dc578081fd5b82356151e781615ead565b915060208301356151f781615ead565b809150509250929050565b600080600060608486031215615216578081fd5b833561522181615ead565b9250602084013561523181615ead565b9150604084013561524181615ec2565b809150509250925092565b6000806040838503121561525e578182fd5b823561526981615ead565b915060208301356001600160401b03811115615283578182fd5b61528f85828601614e24565b9150509250929050565b600060208083850312156152ab578182fd5b82356001600160401b03808211156152c1578384fd5b818501915085601f8301126152d4578384fd5b81356152e2614dcf82615e90565b818152848101908486016080808502870188018b1015615300578889fd5b8896505b8487101561537a5780828c03121561531a578889fd5b60408051828101818110898211171561532f57fe5b8252833561533c81615ed0565b8152838a01358a8201528184013561535381615ead565b91810191909152606083810135908201528452600196909601959287019290810190615304565b50909998505050505050505050565b6000602080838503121561539b578182fd5b82356001600160401b03808211156153b1578384fd5b818501915085601f8301126153c4578384fd5b81356153d2614dcf82615e90565b8181528481019084860160a0808502870188018b10156153f0578889fd5b8896505b8487101561537a5780828c03121561540a578889fd5b60408051828101818110898211171561541f57fe5b825283356004811061542f578b8cfd5b815261543c848b01614da4565b8a820152818401358282015260609150615457828501614da4565b828201526080915061546a828501614da4565b9181019190915284526001969096019592870192908101906153f4565b60008060408385031215615499578182fd5b82516001600160401b03808211156154af578384fd5b6154bb86838701614fb0565b935060208501519150808211156154d0578283fd5b5061528f85828601614fb0565b6000602082840312156154ee578081fd5b81356116a481615ec2565b60006020828403121561550a578081fd5b81516116a481615ec2565b600060208284031215615526578081fd5b5035919050565b60008060008060808587031215615542578182fd5b84359350602085013561555481615ead565b9250604085013561556481615ead565b915060608501356001600160401b0381111561557e578182fd5b61558a87828801615088565b91505092959194509250565b600080604083850312156155a8578182fd5b8235915060208301356001600160401b03811115615283578182fd5b6000806000606084860312156155d8578081fd5b833592506020808501356001600160401b03808211156155f6578384fd5b61560288838901614e24565b94506040870135915080821115615617578384fd5b508501601f81018713615628578283fd5b8035615636614dcf82615e90565b81815283810190838501858402850186018b1015615652578687fd5b8694505b8385101561567d57803561566981615ead565b835260019490940193918501918501615656565b5080955050505050509250925092565b6000806040838503121561569f578182fd5b8235915060208301356151f781615ead565b6000602082840312156156c2578081fd5b81356001600160e01b0319811681146116a4578182fd5b600080600080608085870312156156ee578182fd5b84356156f981615ead565b935060208501356001600160401b0380821115615714578384fd5b61572088838901614e24565b94506040870135915080821115615735578384fd5b61574188838901614f56565b93506060870135915080821115615756578283fd5b5061558a87828801615015565b600060208284031215615774578081fd5b81356116a481615ed0565b60008060008060e08587031215615794578182fd5b61579d85615079565b935060208501356001600160401b03808211156157b8578384fd5b6157c488838901614e87565b945060408701359150808211156157d9578384fd5b506157e687828801614daf565b9250506157f6866060870161512d565b905092959194509250565b600080600080600080610120878903121561581a578384fd5b61582387615079565b95506020808801356001600160401b038082111561583f578687fd5b61584b8b838c01614e87565b975060408a0135915080821115615860578687fd5b61586c8b838c01614daf565b965061587b8b60608c0161512d565b955060e08a0135915080821115615890578485fd5b508801601f81018a136158a1578384fd5b80356158af614dcf82615e90565b81815283810190838501858402850186018e10156158cb578788fd5b8794505b838510156158ed5780358352600194909401939185019185016158cf565b50809650505050505061010087013590509295509295509295565b60008060008060e0858703121561591d578182fd5b84356001600160401b0380821115615933578384fd5b9086019060c08289031215615946578384fd5b60405160c08101818110838211171561595b57fe5b6040528235815261596e60208401615079565b602082015261597f60408401614da4565b604082015261599060608401614da4565b60608201526080830135608082015260a0830135828111156159b0578586fd5b6159bc8a828601615015565b60a0830152508096505050506159d5866020870161512d565b939693955050505060a08201359160c0013590565b6000602082840312156159fb578081fd5b5051919050565b6001600160a01b03169052565b6000815180845260208085019450808401835b83811015615a475781516001600160a01b031687529582019590820190600101615a22565b509495945050505050565b6000815180845260208085019450808401835b83811015615a4757815187529582019590820190600101615a65565b60008151808452815b81811015615aa657602081850181015186830182015201615a8a565b81811115615ab75782602083870101525b50601f01601f19169290920160200192915050565b60038110615ad657fe5b9052565b6000610120825160028110615aeb57fe5b808552506020830151615b016020860182615a02565b506040830151615b146040860182615a02565b50606083015160608501526080830151608085015260a083015160a085015260c0830151615b4560c0860182615a02565b5060e0830151615b5860e0860182615a02565b5061010080840151828287015261127183870182615a81565b6000828483379101908152919050565b6bffffffffffffffffffffffff19606093841b811682529190921b16601482015260280190565b6001600160a01b0391909116815260200190565b6001600160a01b0383168152604081016117f76020830184615acc565b6001600160a01b03929092168252602082015260400190565b6000602082526116a46020830184615a0f565b600060408252615c186040830185615a0f565b828103602084810191909152845180835285820192820190845b81811015614e175784516001600160a01b031683529383019391830191600101615c32565b600060608252615c6a6060830186615a0f565b8281036020840152615c7c8186615a52565b905082810360408401526112718185615a52565b600060808252615ca36080830187615a0f565b8281036020840152615cb58187615a52565b90508281036040840152615cc98186615a52565b90508281036060840152614bf68185615a81565b600060608252615cf06060830186615a0f565b8281036020840152615d028186615a52565b915050826040830152949350505050565b6000602082526116a46020830184615a52565b901515815260200190565b92151583526020830191909152604082015260600190565b90815260200190565b9283526001600160a01b03918216602084015216604082015260600190565b8781526001600160a01b0387811660208301528616604082015260e060608201819052600090615da390830187615a52565b8560808401528460a084015282810360c0840152615dc18185615a81565b9a9950505050505050505050565b602081016116a78284615acc565b918252602082015260400190565b600060808252615dfe6080830187615ada565b8281036020840152615e108187615a52565b604084019590955250506060015292915050565b600060608252615e376060830186615ada565b60208301949094525060400152919050565b938452602084019290925260408301526001600160a01b0316606082015260800190565b6040518181016001600160401b0381118282101715615e8857fe5b604052919050565b60006001600160401b03821115615ea357fe5b5060209081020190565b6001600160a01b038116811461055e57600080fd5b801515811461055e57600080fd5b6003811061055e57600080fdfea2646970667358221220bf7776f0dd01282fea86e769e5106535d04e65618ad60b5ddfd283be90de6dac64736f6c6343000706003360c060405234801561001057600080fd5b50604051610b05380380610b0583398101604081905261002f9161004d565b30608052600160005560601b6001600160601b03191660a05261007b565b60006020828403121561005e578081fd5b81516001600160a01b0381168114610074578182fd5b9392505050565b60805160a05160601c610a5f6100a66000398061040b52806104f85250806102995250610a5f6000f3fe608060405234801561001057600080fd5b50600436106100935760003560e01c8063851c1bb311610066578063851c1bb3146100f1578063aaabadc514610104578063d877845c14610119578063e42abf3514610121578063fbfa77cf1461014157610093565b806338e9922e1461009857806355c67628146100ad5780636b6b9f69146100cb5780636daefab6146100de575b600080fd5b6100ab6100a6366004610964565b610149565b005b6100b56101a8565b6040516100c291906109ec565b60405180910390f35b6100ab6100d9366004610964565b6101ae565b6100ab6100ec3660046107ae565b610201565b6100b56100ff366004610904565b610293565b61010c6102ed565b6040516100c29190610994565b6100b56102fc565b61013461012f36600461082f565b610302565b6040516100c291906109a8565b61010c610409565b61015161042d565b6101686706f05b59d3b2000082111561025861045e565b60018190556040517fa9ba3ffe0b6c366b81232caab38605a0699ad5398d6cce76f91ee809e322dafc9061019d9083906109ec565b60405180910390a150565b60015490565b6101b661042d565b6101cc662386f26fc1000082111561025961045e565b60028190556040517f5a0b7386237e7f07fa741efc64e59c9387d2cccafec760efed4d53387f20e19a9061019d9083906109ec565b610209610470565b61021161042d565b61021b8483610489565b60005b8481101561028357600086868381811061023457fe5b90506020020160208101906102499190610948565b9050600085858481811061025957fe5b6020029190910135915061027990506001600160a01b0383168583610496565b505060010161021e565b5061028c6104ed565b5050505050565b604080517f00000000000000000000000000000000000000000000000000000000000000006020808301919091526001600160e01b031984168284015282516024818403018152604490920190925280519101205b919050565b60006102f76104f4565b905090565b60025490565b6060815167ffffffffffffffff8111801561031c57600080fd5b50604051908082528060200260200182016040528015610346578160200160208202803683370190505b50905060005b82518110156104035782818151811061036157fe5b60200260200101516001600160a01b03166370a08231306040518263ffffffff1660e01b81526004016103949190610994565b60206040518083038186803b1580156103ac57600080fd5b505afa1580156103c0573d6000803e3d6000fd5b505050506040513d601f19601f820116820180604052508101906103e4919061097c565b8282815181106103f057fe5b602090810291909101015260010161034c565b50919050565b7f000000000000000000000000000000000000000000000000000000000000000081565b60006104446000356001600160e01b031916610293565b905061045b6104538233610587565b61019161045e565b50565b8161046c5761046c81610617565b5050565b6104826002600054141561019061045e565b6002600055565b61046c818314606761045e565b604080516001600160a01b038416602482015260448082018490528251808303909101815260649091019091526020810180516001600160e01b031663a9059cbb60e01b1790526104e890849061066a565b505050565b6001600055565b60007f00000000000000000000000000000000000000000000000000000000000000006001600160a01b031663aaabadc56040518163ffffffff1660e01b815260040160206040518083038186803b15801561054f57600080fd5b505afa158015610563573d6000803e3d6000fd5b505050506040513d601f19601f820116820180604052508101906102f7919061092c565b60006105916104f4565b6001600160a01b0316639be2a8848484306040518463ffffffff1660e01b81526004016105c0939291906109f5565b60206040518083038186803b1580156105d857600080fd5b505afa1580156105ec573d6000803e3d6000fd5b505050506040513d601f19601f8201168201806040525081019061061091906108e4565b9392505050565b62461bcd60e51b6000908152602060045260076024526642414c23000030600a808404818106603090810160081b95839006959095019082900491820690940160101b939093010160c81b604452606490fd5b600080836001600160a01b0316836040518082805190602001908083835b602083106106a75780518252601f199092019160209182019101610688565b6001836020036101000a0380198251168184511680821785525050505050509050019150506000604051808303816000865af19150503d8060008114610709576040519150601f19603f3d011682016040523d82523d6000602084013e61070e565b606091505b50915091506000821415610726573d6000803e3d6000fd5b61075481516000148061074c575081806020019051602081101561074957600080fd5b50515b6101a261045e565b50505050565b60008083601f84011261076b578081fd5b50813567ffffffffffffffff811115610782578182fd5b602083019150836020808302850101111561079c57600080fd5b9250929050565b80356102e881610a14565b6000806000806000606086880312156107c5578081fd5b853567ffffffffffffffff808211156107dc578283fd5b6107e889838a0161075a565b90975095506020880135915080821115610800578283fd5b5061080d8882890161075a565b909450925050604086013561082181610a14565b809150509295509295909350565b60006020808385031215610841578182fd5b823567ffffffffffffffff80821115610858578384fd5b818501915085601f83011261086b578384fd5b81358181111561087757fe5b8381026040518582820101818110858211171561089057fe5b604052828152858101935084860182860187018a10156108ae578788fd5b8795505b838610156108d7576108c3816107a3565b8552600195909501949386019386016108b2565b5098975050505050505050565b6000602082840312156108f5578081fd5b81518015158114610610578182fd5b600060208284031215610915578081fd5b81356001600160e01b031981168114610610578182fd5b60006020828403121561093d578081fd5b815161061081610a14565b600060208284031215610959578081fd5b813561061081610a14565b600060208284031215610975578081fd5b5035919050565b60006020828403121561098d578081fd5b5051919050565b6001600160a01b0391909116815260200190565b6020808252825182820181905260009190848201906040850190845b818110156109e0578351835292840192918401916001016109c4565b50909695505050505050565b90815260200190565b9283526001600160a01b03918216602084015216604082015260600190565b6001600160a01b038116811461045b57600080fdfea26469706673582212207a29e82fd1dc0ba282dbf057afc1cb5a9b6d83621ae4872848206e840723fc4464736f6c63430007060033","bytecodeSha1":"2f404220dd9c8989afaddb1d6da5b5b5454e30f8","compiler":{"evm_version":"berlin","optimizer":{"enabled":true,"runs":200},"version":"0.7.6+commit.7338295f"},"contractName":"BalancerVault","language":"Solidity","natspec":{"kind":"dev","methods":{"WETH()":{"details":"Returns the Vault's WETH instance."},"batchSwap(uint8,(bytes32,uint256,uint256,uint256,bytes)[],address[],(address,bool,address,bool),int256[],uint256)":{"details":"Performs a series of swaps with one or multiple Pools. In each individual swap, the caller determines either the amount of tokens sent to or received from the Pool, depending on the `kind` value. Returns an array with the net Vault asset balance deltas. Positive amounts represent tokens (or ETH) sent to the Vault, and negative amounts represent tokens (or ETH) sent by the Vault. Each delta corresponds to the asset at the same index in the `assets` array. Swaps are executed sequentially, in the order specified by the `swaps` array. Each array element describes a Pool, the token to be sent to this Pool, the token to receive from it, and an amount that is either `amountIn` or `amountOut` depending on the swap kind. Multihop swaps can be executed by passing an `amount` value of zero for a swap. This will cause the amount in/out of the previous swap to be used as the amount in for the current one. In a 'given in' swap, 'tokenIn' must equal the previous swap's `tokenOut`. For a 'given out' swap, `tokenOut` must equal the previous swap's `tokenIn`. The `assets` array contains the addresses of all assets involved in the swaps. These are either token addresses, or the IAsset sentinel value for ETH (the zero address). Each entry in the `swaps` array specifies tokens in and out by referencing an index in `assets`. Note that Pools never interact with ETH directly: it will be wrapped to or unwrapped from WETH by the Vault. Internal Balance usage, sender, and recipient are determined by the `funds` struct. The `limits` array specifies the minimum or maximum amount of each token the vault is allowed to transfer. `batchSwap` can be used to make a single swap, like `swap` does, but doing so requires more gas than the equivalent `swap` call. Emits `Swap` events."},"deregisterTokens(bytes32,address[])":{"details":"Deregisters `tokens` for the `poolId` Pool. Must be called by the Pool's contract. Only registered tokens (via `registerTokens`) can be deregistered. Additionally, they must have zero total balance. For Pools with the Two Token specialization, `tokens` must have a length of two, that is, both tokens must be deregistered in the same `deregisterTokens` call. A deregistered token can be re-registered later on, possibly with a different Asset Manager. Emits a `TokensDeregistered` event."},"exitPool(bytes32,address,address,(address[],uint256[],bytes,bool))":{"details":"Called by users to exit a Pool, which transfers tokens from the Pool's balance to `recipient`. This will trigger custom Pool behavior, which will typically ask for something in return from `sender` - often tokenized Pool shares. The amount of tokens that can be withdrawn is limited by the Pool's `cash` balance (see `getPoolTokenInfo`). If the caller is not `sender`, it must be an authorized relayer for them. The `tokens` and `minAmountsOut` arrays must have the same length, and each entry in these indicates the minimum token amount to receive for each token contract. The amounts to send are decided by the Pool and not the Vault: it just enforces these minimums. If exiting a Pool that holds WETH, it is possible to receive ETH directly: the Vault will do the unwrapping. To enable this mechanism, the IAsset sentinel value (the zero address) must be passed in the `assets` array instead of the WETH address. Note that it is not possible to combine ETH and WETH in the same exit. `assets` must have the same length and order as the array returned by `getPoolTokens`. This prevents issues when interacting with Pools that register and deregister tokens frequently. If receiving ETH however, the array must be sorted *before* replacing the WETH address with the ETH sentinel value (the zero address), which means the final `assets` array might not be sorted. Pools with no registered tokens cannot be exited. If `toInternalBalance` is true, the tokens will be deposited to `recipient`'s Internal Balance. Otherwise, an ERC20 transfer will be performed. Note that ETH cannot be deposited to Internal Balance: attempting to do so will trigger a revert. `minAmountsOut` is the minimum amount of tokens the user expects to get out of the Pool, for each token in the `tokens` array. This array must match the Pool's registered tokens. This causes the Vault to call the `IBasePool.onExitPool` hook on the Pool's contract, where Pools implement their own custom logic. This typically requires additional information from the user (such as the expected number of Pool shares to return). This can be encoded in the `userData` argument, which is ignored by the Vault and passed directly to the Pool's contract. Emits a `PoolBalanceChanged` event."},"flashLoan(address,address[],uint256[],bytes)":{"details":"Performs a 'flash loan', sending tokens to `recipient`, executing the `receiveFlashLoan` hook on it, and then reverting unless the tokens plus a proportional protocol fee have been returned. The `tokens` and `amounts` arrays must have the same length, and each entry in these indicates the loan amount for each token contract. `tokens` must be sorted in ascending order. The 'userData' field is ignored by the Vault, and forwarded as-is to `recipient` as part of the `receiveFlashLoan` call. Emits `FlashLoan` events."},"getActionId(bytes4)":{"details":"Returns the action identifier associated with the external function described by `selector`."},"getAuthorizer()":{"details":"Returns the Vault's Authorizer."},"getDomainSeparator()":{"details":"Returns the EIP712 domain separator."},"getInternalBalance(address,address[])":{"details":"Returns `user`'s Internal Balance for a set of tokens."},"getNextNonce(address)":{"details":"Returns the next nonce used by an address to sign messages."},"getPausedState()":{"details":"Returns the current contract pause status, as well as the end times of the Pause Window and Buffer Period."},"getPool(bytes32)":{"details":"Returns a Pool's contract address and specialization setting."},"getPoolTokenInfo(bytes32,address)":{"details":"Returns detailed information for a Pool's registered token. `cash` is the number of tokens the Vault currently holds for the Pool. `managed` is the number of tokens withdrawn and held outside the Vault by the Pool's token Asset Manager. The Pool's total balance for `token` equals the sum of `cash` and `managed`. Internally, `cash` and `managed` are stored using 112 bits. No action can ever cause a Pool's token `cash`, `managed` or `total` balance to be greater than 2^112 - 1. `lastChangeBlock` is the number of the block in which `token`'s total balance was last modified (via either a join, exit, swap, or Asset Manager update). This value is useful to avoid so-called 'sandwich attacks', for example when developing price oracles. A change of zero (e.g. caused by a swap with amount zero) is considered a change for this purpose, and will update `lastChangeBlock`. `assetManager` is the Pool's token Asset Manager."},"getPoolTokens(bytes32)":{"details":"Returns a Pool's registered tokens, the total balance for each, and the latest block when *any* of the tokens' `balances` changed. The order of the `tokens` array is the same order that will be used in `joinPool`, `exitPool`, as well as in all Pool hooks (where applicable). Calls to `registerTokens` and `deregisterTokens` may change this order. If a Pool only registers tokens once, and these are sorted in ascending order, they will be stored in the same order as passed to `registerTokens`. Total balances include both tokens held by the Vault and those withdrawn by the Pool's Asset Managers. These are the amounts used by joins, exits and swaps. For a detailed breakdown of token balances, use `getPoolTokenInfo` instead."},"getProtocolFeesCollector()":{"details":"Returns the current protocol fee module."},"hasApprovedRelayer(address,address)":{"details":"Returns true if `user` has approved `relayer` to act as a relayer for them."},"joinPool(bytes32,address,address,(address[],uint256[],bytes,bool))":{"details":"Called by users to join a Pool, which transfers tokens from `sender` into the Pool's balance. This will trigger custom Pool behavior, which will typically grant something in return to `recipient` - often tokenized Pool shares. If the caller is not `sender`, it must be an authorized relayer for them. The `assets` and `maxAmountsIn` arrays must have the same length, and each entry indicates the maximum amount to send for each asset. The amounts to send are decided by the Pool and not the Vault: it just enforces these maximums. If joining a Pool that holds WETH, it is possible to send ETH directly: the Vault will do the wrapping. To enable this mechanism, the IAsset sentinel value (the zero address) must be passed in the `assets` array instead of the WETH address. Note that it is not possible to combine ETH and WETH in the same join. Any excess ETH will be sent back to the caller (not the sender, which is important for relayers). `assets` must have the same length and order as the array returned by `getPoolTokens`. This prevents issues when interacting with Pools that register and deregister tokens frequently. If sending ETH however, the array must be sorted *before* replacing the WETH address with the ETH sentinel value (the zero address), which means the final `assets` array might not be sorted. Pools with no registered tokens cannot be joined. If `fromInternalBalance` is true, the caller's Internal Balance will be preferred: ERC20 transfers will only be made for the difference between the requested amount and Internal Balance (if any). Note that ETH cannot be withdrawn from Internal Balance: attempting to do so will trigger a revert. This causes the Vault to call the `IBasePool.onJoinPool` hook on the Pool's contract, where Pools implement their own custom logic. This typically requires additional information from the user (such as the expected number of Pool shares). This can be encoded in the `userData` argument, which is ignored by the Vault and passed directly to the Pool's contract, as is `recipient`. Emits a `PoolBalanceChanged` event."},"managePoolBalance((uint8,bytes32,address,uint256)[])":{"details":"Performs a set of Pool balance operations, which may be either withdrawals, deposits or updates. Pool Balance management features batching, which means a single contract call can be used to perform multiple operations of different kinds, with different Pools and tokens, at once. For each operation, the caller must be registered as the Asset Manager for `token` in `poolId`."},"manageUserBalance((uint8,address,uint256,address,address)[])":{"details":"Performs a set of user balance operations, which involve Internal Balance (deposit, withdraw or transfer) and plain ERC20 transfers using the Vault's allowance. This last feature is particularly useful for relayers, as it lets integrators reuse a user's Vault allowance. For each operation, if the caller is not `sender`, it must be an authorized relayer for them."},"queryBatchSwap(uint8,(bytes32,uint256,uint256,uint256,bytes)[],address[],(address,bool,address,bool))":{"details":"Simulates a call to `batchSwap`, returning an array of Vault asset deltas. Calls to `swap` cannot be simulated directly, but an equivalent `batchSwap` call can and will yield the exact same result. Each element in the array corresponds to the asset at the same index, and indicates the number of tokens (or ETH) the Vault would take from the sender (if positive) or send to the recipient (if negative). The arguments it receives are the same that an equivalent `batchSwap` call would receive. Unlike `batchSwap`, this function performs no checks on the sender or recipient field in the `funds` struct. This makes it suitable to be called by off-chain applications via eth_call without needing to hold tokens, approve them for the Vault, or even know a user's address. Note that this function is not 'view' (due to implementation details): the client code must explicitly execute eth_call instead of eth_sendTransaction."},"registerPool(uint8)":{"details":"Registers the caller account as a Pool with a given specialization setting. Returns the Pool's ID, which is used in all Pool-related functions. Pools cannot be deregistered, nor can the Pool's specialization be changed. The caller is expected to be a smart contract that implements either `IGeneralPool` or `IMinimalSwapInfoPool`, depending on the chosen specialization setting. This contract is known as the Pool's contract. Note that the same contract may register itself as multiple Pools with unique Pool IDs, or in other words, multiple Pools may share the same contract. Emits a `PoolRegistered` event."},"registerTokens(bytes32,address[],address[])":{"details":"Registers `tokens` for the `poolId` Pool. Must be called by the Pool's contract. Pools can only interact with tokens they have registered. Users join a Pool by transferring registered tokens, exit by receiving registered tokens, and can only swap registered tokens. Each token can only be registered once. For Pools with the Two Token specialization, `tokens` must have a length of two, that is, both tokens must be registered in the same `registerTokens` call, and they must be sorted in ascending order. The `tokens` and `assetManagers` arrays must have the same length, and each entry in these indicates the Asset Manager for the corresponding token. Asset Managers can manage a Pool's tokens via `managePoolBalance`, depositing and withdrawing them directly, and can even set their balance to arbitrary amounts. They are therefore expected to be highly secured smart contracts with sound design principles, and the decision to register an Asset Manager should not be made lightly. Pools can choose not to assign an Asset Manager to a given token by passing in the zero address. Once an Asset Manager is set, it cannot be changed except by deregistering the associated token and registering again with a different Asset Manager. Emits a `TokensRegistered` event."},"setAuthorizer(address)":{"details":"Sets a new Authorizer for the Vault. The caller must be allowed by the current Authorizer to do this. Emits an `AuthorizerChanged` event."},"setPaused(bool)":{"details":"Safety mechanism to pause most Vault operations in the event of an emergency - typically detection of an error in some part of the system. The Vault can only be paused during an initial time period, after which pausing is forever disabled. While the contract is paused, the following features are disabled: - depositing and transferring internal balance - transferring external balance (using the Vault's allowance) - swaps - joining Pools - Asset Manager interactions Internal Balance can still be withdrawn, and Pools exited."},"setRelayerApproval(address,address,bool)":{"details":"Allows `relayer` to act as a relayer for `sender` if `approved` is true, and disallows it otherwise. Emits a `RelayerApprovalChanged` event."},"swap((bytes32,uint8,address,address,uint256,bytes),(address,bool,address,bool),uint256,uint256)":{"details":"Performs a swap with a single Pool. If the swap is 'given in' (the number of tokens to send to the Pool is known), it returns the amount of tokens taken from the Pool, which must be greater than or equal to `limit`. If the swap is 'given out' (the number of tokens to take from the Pool is known), it returns the amount of tokens sent to the Pool, which must be less than or equal to `limit`. Internal Balance usage and the recipient are determined by the `funds` struct. Emits a `Swap` event."}},"version":1},"opcodes":"PUSH1 0x80 PUSH1 0x40 MSTORE PUSH1 0x4 CALLDATASIZE LT PUSH2 0x185 JUMPI PUSH1 0x0 CALLDATALOAD PUSH1 0xE0 SHR DUP1 PUSH4 0x945BCEC9 GT PUSH2 0xD1 JUMPI DUP1 PUSH4 0xE6C46092 GT PUSH2 0x8A JUMPI DUP1 PUSH4 0xF84D066E GT PUSH2 0x64 JUMPI DUP1 PUSH4 0xF84D066E EQ PUSH2 0x46A JUMPI DUP1 PUSH4 0xF94D4668 EQ PUSH2 0x48A JUMPI DUP1 PUSH4 0xFA6E671D EQ PUSH2 0x4B9 JUMPI DUP1 PUSH4 0xFEC90D72 EQ PUSH2 0x4D9 JUMPI PUSH2 0x1B3 JUMP JUMPDEST DUP1 PUSH4 0xE6C46092 EQ PUSH2 0x407 JUMPI DUP1 PUSH4 0xED24911D EQ PUSH2 0x427 JUMPI DUP1 PUSH4 0xF6C00927 EQ PUSH2 0x43C JUMPI PUSH2 0x1B3 JUMP JUMPDEST DUP1 PUSH4 0x945BCEC9 EQ PUSH2 0x365 JUMPI DUP1 PUSH4 0xAAABADC5 EQ PUSH2 0x378 JUMPI DUP1 PUSH4 0xAD5C4648 EQ PUSH2 0x39A JUMPI DUP1 PUSH4 0xB05F8E48 EQ PUSH2 0x3AF JUMPI DUP1 PUSH4 0xB95CAC28 EQ PUSH2 0x3DF JUMPI DUP1 PUSH4 0xD2946C2B EQ PUSH2 0x3F2 JUMPI PUSH2 0x1B3 JUMP JUMPDEST DUP1 PUSH4 0x52BBBE29 GT PUSH2 0x13E JUMPI DUP1 PUSH4 0x7D3AEB96 GT PUSH2 0x118 JUMPI DUP1 PUSH4 0x7D3AEB96 EQ PUSH2 0x2E5 JUMPI DUP1 PUSH4 0x851C1BB3 EQ PUSH2 0x305 JUMPI DUP1 PUSH4 0x8BDB3913 EQ PUSH2 0x325 JUMPI DUP1 PUSH4 0x90193B7C EQ PUSH2 0x345 JUMPI PUSH2 0x1B3 JUMP JUMPDEST DUP1 PUSH4 0x52BBBE29 EQ PUSH2 0x292 JUMPI DUP1 PUSH4 0x5C38449E EQ PUSH2 0x2A5 JUMPI DUP1 PUSH4 0x66A9C7D2 EQ PUSH2 0x2C5 JUMPI PUSH2 0x1B3 JUMP JUMPDEST DUP1 PUSH4 0x58A628F EQ PUSH2 0x1B8 JUMPI DUP1 PUSH4 0x9B2760F EQ PUSH2 0x1D8 JUMPI DUP1 PUSH4 0xE8E3E84 EQ PUSH2 0x20E JUMPI DUP1 PUSH4 0xF5A6EFA EQ PUSH2 0x221 JUMPI DUP1 PUSH4 0x16C38B3C EQ PUSH2 0x24E JUMPI DUP1 PUSH4 0x1C0DE051 EQ PUSH2 0x26E JUMPI PUSH2 0x1B3 JUMP JUMPDEST CALLDATASIZE PUSH2 0x1B3 JUMPI PUSH2 0x1B1 PUSH2 0x195 PUSH2 0x506 JUMP JUMPDEST PUSH1 0x1 PUSH1 0x1 PUSH1 0xA0 SHL SUB AND CALLER PUSH1 0x1 PUSH1 0x1 PUSH1 0xA0 SHL SUB AND EQ PUSH2 0x206 PUSH2 0x52B JUMP JUMPDEST STOP JUMPDEST PUSH1 0x0 DUP1 REVERT JUMPDEST CALLVALUE DUP1 ISZERO PUSH2 0x1C4 JUMPI PUSH1 0x0 DUP1 REVERT JUMPDEST POP PUSH2 0x1B1 PUSH2 0x1D3 CALLDATASIZE PUSH1 0x4 PUSH2 0x51AE JUMP JUMPDEST PUSH2 0x53D JUMP JUMPDEST CALLVALUE DUP1 ISZERO PUSH2 0x1E4 JUMPI PUSH1 0x0 DUP1 REVERT JUMPDEST POP PUSH2 0x1F8 PUSH2 0x1F3 CALLDATASIZE PUSH1 0x4 PUSH2 0x5763 JUMP JUMPDEST PUSH2 0x561 JUMP JUMPDEST PUSH1 0x40 MLOAD PUSH2 0x205 SWAP2 SWAP1 PUSH2 0x5D49 JUMP JUMPDEST PUSH1 0x40 MLOAD DUP1 SWAP2 SUB SWAP1 RETURN JUMPDEST PUSH2 0x1B1 PUSH2 0x21C CALLDATASIZE PUSH1 0x4 PUSH2 0x5389 JUMP JUMPDEST PUSH2 0x614 JUMP JUMPDEST CALLVALUE DUP1 ISZERO PUSH2 0x22D JUMPI PUSH1 0x0 DUP1 REVERT JUMPDEST POP PUSH2 0x241 PUSH2 0x23C CALLDATASIZE PUSH1 0x4 PUSH2 0x524C JUMP JUMPDEST PUSH2 0x750 JUMP JUMPDEST PUSH1 0x40 MLOAD PUSH2 0x205 SWAP2 SWAP1 PUSH2 0x5D13 JUMP JUMPDEST CALLVALUE DUP1 ISZERO PUSH2 0x25A JUMPI PUSH1 0x0 DUP1 REVERT JUMPDEST POP PUSH2 0x1B1 PUSH2 0x269 CALLDATASIZE PUSH1 0x4 PUSH2 0x54DD JUMP JUMPDEST PUSH2 0x7E5 JUMP JUMPDEST CALLVALUE DUP1 ISZERO PUSH2 0x27A JUMPI PUSH1 0x0 DUP1 REVERT JUMPDEST POP PUSH2 0x283 PUSH2 0x7FE JUMP JUMPDEST PUSH1 0x40 MLOAD PUSH2 0x205 SWAP4 SWAP3 SWAP2 SWAP1 PUSH2 0x5D31 JUMP JUMPDEST PUSH2 0x1F8 PUSH2 0x2A0 CALLDATASIZE PUSH1 0x4 PUSH2 0x5908 JUMP JUMPDEST PUSH2 0x827 JUMP JUMPDEST CALLVALUE DUP1 ISZERO PUSH2 0x2B1 JUMPI PUSH1 0x0 DUP1 REVERT JUMPDEST POP PUSH2 0x1B1 PUSH2 0x2C0 CALLDATASIZE PUSH1 0x4 PUSH2 0x56D9 JUMP JUMPDEST PUSH2 0x9C8 JUMP JUMPDEST CALLVALUE DUP1 ISZERO PUSH2 0x2D1 JUMPI PUSH1 0x0 DUP1 REVERT JUMPDEST POP PUSH2 0x1B1 PUSH2 0x2E0 CALLDATASIZE PUSH1 0x4 PUSH2 0x55C4 JUMP JUMPDEST PUSH2 0xDCA JUMP JUMPDEST CALLVALUE DUP1 ISZERO PUSH2 0x2F1 JUMPI PUSH1 0x0 DUP1 REVERT JUMPDEST POP PUSH2 0x1B1 PUSH2 0x300 CALLDATASIZE PUSH1 0x4 PUSH2 0x5596 JUMP JUMPDEST PUSH2 0xF69 JUMP JUMPDEST CALLVALUE DUP1 ISZERO PUSH2 0x311 JUMPI PUSH1 0x0 DUP1 REVERT JUMPDEST POP PUSH2 0x1F8 PUSH2 0x320 CALLDATASIZE PUSH1 0x4 PUSH2 0x56B1 JUMP JUMPDEST PUSH2 0x10BD JUMP JUMPDEST CALLVALUE DUP1 ISZERO PUSH2 0x331 JUMPI PUSH1 0x0 DUP1 REVERT JUMPDEST POP PUSH2 0x1B1 PUSH2 0x340 CALLDATASIZE PUSH1 0x4 PUSH2 0x552D JUMP JUMPDEST PUSH2 0x1116 JUMP JUMPDEST CALLVALUE DUP1 ISZERO PUSH2 0x351 JUMPI PUSH1 0x0 DUP1 REVERT JUMPDEST POP PUSH2 0x1F8 PUSH2 0x360 CALLDATASIZE PUSH1 0x4 PUSH2 0x51AE JUMP JUMPDEST PUSH2 0x112C JUMP JUMPDEST PUSH2 0x241 PUSH2 0x373 CALLDATASIZE PUSH1 0x4 PUSH2 0x5801 JUMP JUMPDEST PUSH2 0x1147 JUMP JUMPDEST CALLVALUE DUP1 ISZERO PUSH2 0x384 JUMPI PUSH1 0x0 DUP1 REVERT JUMPDEST POP PUSH2 0x38D PUSH2 0x127B JUMP JUMPDEST PUSH1 0x40 MLOAD PUSH2 0x205 SWAP2 SWAP1 PUSH2 0x5BA8 JUMP JUMPDEST CALLVALUE DUP1 ISZERO PUSH2 0x3A6 JUMPI PUSH1 0x0 DUP1 REVERT JUMPDEST POP PUSH2 0x38D PUSH2 0x128F JUMP JUMPDEST CALLVALUE DUP1 ISZERO PUSH2 0x3BB JUMPI PUSH1 0x0 DUP1 REVERT JUMPDEST POP PUSH2 0x3CF PUSH2 0x3CA CALLDATASIZE PUSH1 0x4 PUSH2 0x568D JUMP JUMPDEST PUSH2 0x129E JUMP JUMPDEST PUSH1 0x40 MLOAD PUSH2 0x205 SWAP5 SWAP4 SWAP3 SWAP2 SWAP1 PUSH2 0x5E49 JUMP JUMPDEST PUSH2 0x1B1 PUSH2 0x3ED CALLDATASIZE PUSH1 0x4 PUSH2 0x552D JUMP JUMPDEST PUSH2 0x1361 JUMP JUMPDEST CALLVALUE DUP1 ISZERO PUSH2 0x3FE JUMPI PUSH1 0x0 DUP1 REVERT JUMPDEST POP PUSH2 0x38D PUSH2 0x137A JUMP JUMPDEST CALLVALUE DUP1 ISZERO PUSH2 0x413 JUMPI PUSH1 0x0 DUP1 REVERT JUMPDEST POP PUSH2 0x1B1 PUSH2 0x422 CALLDATASIZE PUSH1 0x4 PUSH2 0x5299 JUMP JUMPDEST PUSH2 0x139E JUMP JUMPDEST CALLVALUE DUP1 ISZERO PUSH2 0x433 JUMPI PUSH1 0x0 DUP1 REVERT JUMPDEST POP PUSH2 0x1F8 PUSH2 0x14BA JUMP JUMPDEST CALLVALUE DUP1 ISZERO PUSH2 0x448 JUMPI PUSH1 0x0 DUP1 REVERT JUMPDEST POP PUSH2 0x45C PUSH2 0x457 CALLDATASIZE PUSH1 0x4 PUSH2 0x5515 JUMP JUMPDEST PUSH2 0x14C4 JUMP JUMPDEST PUSH1 0x40 MLOAD PUSH2 0x205 SWAP3 SWAP2 SWAP1 PUSH2 0x5BBC JUMP JUMPDEST CALLVALUE DUP1 ISZERO PUSH2 0x476 JUMPI PUSH1 0x0 DUP1 REVERT JUMPDEST POP PUSH2 0x241 PUSH2 0x485 CALLDATASIZE PUSH1 0x4 PUSH2 0x577F JUMP JUMPDEST PUSH2 0x14EE JUMP JUMPDEST CALLVALUE DUP1 ISZERO PUSH2 0x496 JUMPI PUSH1 0x0 DUP1 REVERT JUMPDEST POP PUSH2 0x4AA PUSH2 0x4A5 CALLDATASIZE PUSH1 0x4 PUSH2 0x5515 JUMP JUMPDEST PUSH2 0x15D2 JUMP JUMPDEST PUSH1 0x40 MLOAD PUSH2 0x205 SWAP4 SWAP3 SWAP2 SWAP1 PUSH2 0x5CDD JUMP JUMPDEST CALLVALUE DUP1 ISZERO PUSH2 0x4C5 JUMPI PUSH1 0x0 DUP1 REVERT JUMPDEST POP PUSH2 0x1B1 PUSH2 0x4D4 CALLDATASIZE PUSH1 0x4 PUSH2 0x5202 JUMP JUMPDEST PUSH2 0x1606 JUMP JUMPDEST CALLVALUE DUP1 ISZERO PUSH2 0x4E5 JUMPI PUSH1 0x0 DUP1 REVERT JUMPDEST POP PUSH2 0x4F9 PUSH2 0x4F4 CALLDATASIZE PUSH1 0x4 PUSH2 0x51CA JUMP JUMPDEST PUSH2 0x1698 JUMP JUMPDEST PUSH1 0x40 MLOAD PUSH2 0x205 SWAP2 SWAP1 PUSH2 0x5D26 JUMP JUMPDEST PUSH32 0x0 JUMPDEST SWAP1 JUMP JUMPDEST DUP2 PUSH2 0x539 JUMPI PUSH2 0x539 DUP2 PUSH2 0x16AD JUMP JUMPDEST POP POP JUMP JUMPDEST PUSH2 0x545 PUSH2 0x1700 JUMP JUMPDEST PUSH2 0x54D PUSH2 0x1719 JUMP JUMPDEST PUSH2 0x556 DUP2 PUSH2 0x1747 JUMP JUMPDEST PUSH2 0x55E PUSH2 0x17A3 JUMP JUMPDEST POP JUMP JUMPDEST PUSH1 0x0 PUSH2 0x56B PUSH2 0x1700 JUMP JUMPDEST PUSH2 0x573 PUSH2 0x17AA JUMP JUMPDEST PUSH1 0x0 PUSH2 0x582 CALLER DUP5 PUSH1 0x6 SLOAD PUSH2 0x17BF JUMP JUMPDEST PUSH1 0x0 DUP2 DUP2 MSTORE PUSH1 0x5 PUSH1 0x20 MSTORE PUSH1 0x40 SWAP1 KECCAK256 SLOAD SWAP1 SWAP2 POP PUSH2 0x5A4 SWAP1 PUSH1 0xFF AND ISZERO PUSH2 0x1F4 PUSH2 0x52B JUMP JUMPDEST PUSH1 0x0 DUP2 DUP2 MSTORE PUSH1 0x5 PUSH1 0x20 MSTORE PUSH1 0x40 SWAP1 DUP2 SWAP1 KECCAK256 DUP1 SLOAD PUSH1 0xFF NOT AND PUSH1 0x1 SWAP1 DUP2 OR SWAP1 SWAP2 SSTORE PUSH1 0x6 DUP1 SLOAD SWAP1 SWAP2 ADD SWAP1 SSTORE MLOAD CALLER SWAP1 DUP3 SWAP1 PUSH32 0x3C13BC30B8E878C53FD2A36B679409C073AFD75950BE43D8858768E956FBC20E SWAP1 PUSH2 0x5FD SWAP1 DUP8 SWAP1 PUSH2 0x5DCF JUMP JUMPDEST PUSH1 0x40 MLOAD DUP1 SWAP2 SUB SWAP1 LOG3 SWAP1 POP PUSH2 0x60F PUSH2 0x17A3 JUMP JUMPDEST SWAP2 SWAP1 POP JUMP JUMPDEST PUSH2 0x61C PUSH2 0x1700 JUMP JUMPDEST PUSH1 0x0 DUP1 PUSH1 0x0 DUP1 JUMPDEST DUP5 MLOAD DUP2 LT ISZERO PUSH2 0x73B JUMPI PUSH1 0x0 DUP1 PUSH1 0x0 DUP1 PUSH1 0x0 PUSH2 0x651 DUP11 DUP8 DUP2 MLOAD DUP2 LT PUSH2 0x643 JUMPI INVALID JUMPDEST PUSH1 0x20 MUL PUSH1 0x20 ADD ADD MLOAD DUP10 PUSH2 0x17FE JUMP JUMPDEST SWAP13 POP SWAP4 SWAP9 POP SWAP2 SWAP7 POP SWAP5 POP SWAP3 POP SWAP1 POP PUSH1 0x1 DUP6 PUSH1 0x3 DUP2 GT ISZERO PUSH2 0x66D JUMPI INVALID JUMPDEST EQ ISZERO PUSH2 0x684 JUMPI PUSH2 0x67F DUP5 DUP4 DUP4 DUP7 PUSH2 0x1876 JUMP JUMPDEST PUSH2 0x72A JUMP JUMPDEST DUP7 PUSH2 0x696 JUMPI PUSH2 0x691 PUSH2 0x17AA JUMP JUMPDEST PUSH1 0x1 SWAP7 POP JUMPDEST PUSH1 0x0 DUP6 PUSH1 0x3 DUP2 GT ISZERO PUSH2 0x6A4 JUMPI INVALID JUMPDEST EQ ISZERO PUSH2 0x6D5 JUMPI PUSH2 0x6B6 DUP5 DUP4 DUP4 DUP7 PUSH2 0x1899 JUMP JUMPDEST PUSH2 0x6BF DUP5 PUSH2 0x18B9 JUMP JUMPDEST ISZERO PUSH2 0x67F JUMPI PUSH2 0x6CE DUP10 DUP5 PUSH2 0x18C6 JUMP JUMPDEST SWAP9 POP PUSH2 0x72A JUMP JUMPDEST PUSH2 0x6EA PUSH2 0x6E1 DUP6 PUSH2 0x18B9 JUMP JUMPDEST ISZERO PUSH2 0x207 PUSH2 0x52B JUMP JUMPDEST PUSH1 0x0 PUSH2 0x6F5 DUP6 PUSH2 0x528 JUMP JUMPDEST SWAP1 POP PUSH1 0x2 DUP7 PUSH1 0x3 DUP2 GT ISZERO PUSH2 0x705 JUMPI INVALID JUMPDEST EQ ISZERO PUSH2 0x71C JUMPI PUSH2 0x717 DUP2 DUP5 DUP5 DUP8 PUSH2 0x18D8 JUMP JUMPDEST PUSH2 0x728 JUMP JUMPDEST PUSH2 0x728 DUP2 DUP5 DUP5 DUP8 PUSH2 0x18F1 JUMP JUMPDEST POP JUMPDEST POP POP PUSH1 0x1 SWAP1 SWAP4 ADD SWAP3 POP PUSH2 0x623 SWAP2 POP POP JUMP JUMPDEST POP PUSH2 0x745 DUP4 PUSH2 0x195F JUMP JUMPDEST POP POP POP PUSH2 0x55E PUSH2 0x17A3 JUMP JUMPDEST PUSH1 0x60 DUP2 MLOAD PUSH1 0x1 PUSH1 0x1 PUSH1 0x40 SHL SUB DUP2 GT DUP1 ISZERO PUSH2 0x769 JUMPI PUSH1 0x0 DUP1 REVERT JUMPDEST POP PUSH1 0x40 MLOAD SWAP1 DUP1 DUP3 MSTORE DUP1 PUSH1 0x20 MUL PUSH1 0x20 ADD DUP3 ADD PUSH1 0x40 MSTORE DUP1 ISZERO PUSH2 0x793 JUMPI DUP2 PUSH1 0x20 ADD PUSH1 0x20 DUP3 MUL DUP1 CALLDATASIZE DUP4 CALLDATACOPY ADD SWAP1 POP JUMPDEST POP SWAP1 POP PUSH1 0x0 JUMPDEST DUP3 MLOAD DUP2 LT ISZERO PUSH2 0x7DE JUMPI PUSH2 0x7BF DUP5 DUP5 DUP4 DUP2 MLOAD DUP2 LT PUSH2 0x7B2 JUMPI INVALID JUMPDEST PUSH1 0x20 MUL PUSH1 0x20 ADD ADD MLOAD PUSH2 0x1982 JUMP JUMPDEST DUP3 DUP3 DUP2 MLOAD DUP2 LT PUSH2 0x7CB JUMPI INVALID JUMPDEST PUSH1 0x20 SWAP1 DUP2 MUL SWAP2 SWAP1 SWAP2 ADD ADD MSTORE PUSH1 0x1 ADD PUSH2 0x799 JUMP JUMPDEST POP SWAP3 SWAP2 POP POP JUMP JUMPDEST PUSH2 0x7ED PUSH2 0x1700 JUMP JUMPDEST PUSH2 0x7F5 PUSH2 0x1719 JUMP JUMPDEST PUSH2 0x556 DUP2 PUSH2 0x19AD JUMP JUMPDEST PUSH1 0x0 DUP1 PUSH1 0x0 PUSH2 0x80B PUSH2 0x1A29 JUMP JUMPDEST ISZERO SWAP3 POP PUSH2 0x816 PUSH2 0x1A46 JUMP JUMPDEST SWAP2 POP PUSH2 0x820 PUSH2 0x1A6A JUMP JUMPDEST SWAP1 POP SWAP1 SWAP2 SWAP3 JUMP JUMPDEST PUSH1 0x0 PUSH2 0x831 PUSH2 0x1700 JUMP JUMPDEST PUSH2 0x839 PUSH2 0x17AA JUMP JUMPDEST DUP4 MLOAD PUSH2 0x844 DUP2 PUSH2 0x1A8E JUMP JUMPDEST PUSH2 0x853 DUP4 TIMESTAMP GT ISZERO PUSH2 0x1FC PUSH2 0x52B JUMP JUMPDEST PUSH2 0x866 PUSH1 0x0 DUP8 PUSH1 0x80 ADD MLOAD GT PUSH2 0x1FE PUSH2 0x52B JUMP JUMPDEST PUSH1 0x0 PUSH2 0x875 DUP8 PUSH1 0x40 ADD MLOAD PUSH2 0x1AC0 JUMP JUMPDEST SWAP1 POP PUSH1 0x0 PUSH2 0x886 DUP9 PUSH1 0x60 ADD MLOAD PUSH2 0x1AC0 JUMP JUMPDEST SWAP1 POP PUSH2 0x8A9 DUP2 PUSH1 0x1 PUSH1 0x1 PUSH1 0xA0 SHL SUB AND DUP4 PUSH1 0x1 PUSH1 0x1 PUSH1 0xA0 SHL SUB AND EQ ISZERO PUSH2 0x1FD PUSH2 0x52B JUMP JUMPDEST PUSH2 0x8B1 PUSH2 0x4CCF JUMP JUMPDEST DUP9 MLOAD PUSH1 0x80 DUP3 ADD MSTORE PUSH1 0x20 DUP10 ADD MLOAD DUP2 SWAP1 PUSH1 0x1 DUP2 GT ISZERO PUSH2 0x8CA JUMPI INVALID JUMPDEST SWAP1 DUP2 PUSH1 0x1 DUP2 GT ISZERO PUSH2 0x8D7 JUMPI INVALID JUMPDEST SWAP1 MSTORE POP PUSH1 0x1 PUSH1 0x1 PUSH1 0xA0 SHL SUB DUP1 DUP5 AND PUSH1 0x20 DUP4 ADD MSTORE DUP3 DUP2 AND PUSH1 0x40 DUP1 DUP5 ADD SWAP2 SWAP1 SWAP2 MSTORE PUSH1 0x80 DUP12 ADD MLOAD PUSH1 0x60 DUP5 ADD MSTORE PUSH1 0xA0 DUP12 ADD MLOAD PUSH2 0x100 DUP5 ADD MSTORE DUP10 MLOAD DUP3 AND PUSH1 0xC0 DUP5 ADD MSTORE DUP10 ADD MLOAD AND PUSH1 0xE0 DUP3 ADD MSTORE PUSH1 0x0 DUP1 PUSH2 0x929 DUP4 PUSH2 0x1AE5 JUMP JUMPDEST SWAP2 SWAP9 POP SWAP3 POP SWAP1 POP PUSH2 0x960 PUSH1 0x0 DUP13 PUSH1 0x20 ADD MLOAD PUSH1 0x1 DUP2 GT ISZERO PUSH2 0x945 JUMPI INVALID JUMPDEST EQ PUSH2 0x953 JUMPI DUP10 DUP4 GT ISZERO PUSH2 0x958 JUMP JUMPDEST DUP10 DUP3 LT ISZERO JUMPDEST PUSH2 0x1FB PUSH2 0x52B JUMP JUMPDEST PUSH2 0x978 DUP12 PUSH1 0x40 ADD MLOAD DUP4 DUP13 PUSH1 0x0 ADD MLOAD DUP14 PUSH1 0x20 ADD MLOAD PUSH2 0x1BD9 JUMP JUMPDEST PUSH2 0x990 DUP12 PUSH1 0x60 ADD MLOAD DUP3 DUP13 PUSH1 0x40 ADD MLOAD DUP14 PUSH1 0x60 ADD MLOAD PUSH2 0x1CB7 JUMP JUMPDEST PUSH2 0x9B2 PUSH2 0x9A0 DUP13 PUSH1 0x40 ADD MLOAD PUSH2 0x18B9 JUMP JUMPDEST PUSH2 0x9AB JUMPI PUSH1 0x0 PUSH2 0x9AD JUMP JUMPDEST DUP3 JUMPDEST PUSH2 0x195F JUMP JUMPDEST POP POP POP POP POP POP PUSH2 0x9C0 PUSH2 0x17A3 JUMP JUMPDEST SWAP5 SWAP4 POP POP POP POP JUMP JUMPDEST PUSH2 0x9D0 PUSH2 0x1700 JUMP JUMPDEST PUSH2 0x9D8 PUSH2 0x17AA JUMP JUMPDEST PUSH2 0x9E4 DUP4 MLOAD DUP4 MLOAD PUSH2 0x1D91 JUMP JUMPDEST PUSH1 0x0 DUP4 MLOAD PUSH1 0x1 PUSH1 0x1 PUSH1 0x40 SHL SUB DUP2 GT DUP1 ISZERO PUSH2 0x9FD JUMPI PUSH1 0x0 DUP1 REVERT JUMPDEST POP PUSH1 0x40 MLOAD SWAP1 DUP1 DUP3 MSTORE DUP1 PUSH1 0x20 MUL PUSH1 0x20 ADD DUP3 ADD PUSH1 0x40 MSTORE DUP1 ISZERO PUSH2 0xA27 JUMPI DUP2 PUSH1 0x20 ADD PUSH1 0x20 DUP3 MUL DUP1 CALLDATASIZE DUP4 CALLDATACOPY ADD SWAP1 POP JUMPDEST POP SWAP1 POP PUSH1 0x0 DUP5 MLOAD PUSH1 0x1 PUSH1 0x1 PUSH1 0x40 SHL SUB DUP2 GT DUP1 ISZERO PUSH2 0xA43 JUMPI PUSH1 0x0 DUP1 REVERT JUMPDEST POP PUSH1 0x40 MLOAD SWAP1 DUP1 DUP3 MSTORE DUP1 PUSH1 0x20 MUL PUSH1 0x20 ADD DUP3 ADD PUSH1 0x40 MSTORE DUP1 ISZERO PUSH2 0xA6D JUMPI DUP2 PUSH1 0x20 ADD PUSH1 0x20 DUP3 MUL DUP1 CALLDATASIZE DUP4 CALLDATACOPY ADD SWAP1 POP JUMPDEST POP SWAP1 POP PUSH1 0x0 DUP1 JUMPDEST DUP7 MLOAD DUP2 LT ISZERO PUSH2 0xBE6 JUMPI PUSH1 0x0 DUP8 DUP3 DUP2 MLOAD DUP2 LT PUSH2 0xA8B JUMPI INVALID JUMPDEST PUSH1 0x20 MUL PUSH1 0x20 ADD ADD MLOAD SWAP1 POP PUSH1 0x0 DUP8 DUP4 DUP2 MLOAD DUP2 LT PUSH2 0xAA3 JUMPI INVALID JUMPDEST PUSH1 0x20 MUL PUSH1 0x20 ADD ADD MLOAD SWAP1 POP PUSH2 0xAEE DUP5 PUSH1 0x1 PUSH1 0x1 PUSH1 0xA0 SHL SUB AND DUP4 PUSH1 0x1 PUSH1 0x1 PUSH1 0xA0 SHL SUB AND GT PUSH1 0x0 PUSH1 0x1 PUSH1 0x1 PUSH1 0xA0 SHL SUB AND DUP5 PUSH1 0x1 PUSH1 0x1 PUSH1 0xA0 SHL SUB AND EQ PUSH2 0xAE6 JUMPI PUSH1 0x66 PUSH2 0xAE9 JUMP JUMPDEST PUSH1 0x68 JUMPDEST PUSH2 0x52B JUMP JUMPDEST DUP2 SWAP4 POP DUP2 PUSH1 0x1 PUSH1 0x1 PUSH1 0xA0 SHL SUB AND PUSH4 0x70A08231 ADDRESS PUSH1 0x40 MLOAD DUP3 PUSH4 0xFFFFFFFF AND PUSH1 0xE0 SHL DUP2 MSTORE PUSH1 0x4 ADD PUSH2 0xB1D SWAP2 SWAP1 PUSH2 0x5BA8 JUMP JUMPDEST PUSH1 0x20 PUSH1 0x40 MLOAD DUP1 DUP4 SUB DUP2 DUP7 DUP1 EXTCODESIZE ISZERO DUP1 ISZERO PUSH2 0xB35 JUMPI PUSH1 0x0 DUP1 REVERT JUMPDEST POP GAS STATICCALL ISZERO DUP1 ISZERO PUSH2 0xB49 JUMPI RETURNDATASIZE PUSH1 0x0 DUP1 RETURNDATACOPY RETURNDATASIZE PUSH1 0x0 REVERT JUMPDEST POP POP POP POP PUSH1 0x40 MLOAD RETURNDATASIZE PUSH1 0x1F NOT PUSH1 0x1F DUP3 ADD AND DUP3 ADD DUP1 PUSH1 0x40 MSTORE POP DUP2 ADD SWAP1 PUSH2 0xB6D SWAP2 SWAP1 PUSH2 0x59EA JUMP JUMPDEST DUP6 DUP5 DUP2 MLOAD DUP2 LT PUSH2 0xB79 JUMPI INVALID JUMPDEST PUSH1 0x20 MUL PUSH1 0x20 ADD ADD DUP2 DUP2 MSTORE POP POP PUSH2 0xB8E DUP2 PUSH2 0x1D9E JUMP JUMPDEST DUP7 DUP5 DUP2 MLOAD DUP2 LT PUSH2 0xB9A JUMPI INVALID JUMPDEST PUSH1 0x20 MUL PUSH1 0x20 ADD ADD DUP2 DUP2 MSTORE POP POP PUSH2 0xBC8 DUP2 DUP7 DUP6 DUP2 MLOAD DUP2 LT PUSH2 0xBB6 JUMPI INVALID JUMPDEST PUSH1 0x20 MUL PUSH1 0x20 ADD ADD MLOAD LT ISZERO PUSH2 0x210 PUSH2 0x52B JUMP JUMPDEST PUSH2 0xBDC PUSH1 0x1 PUSH1 0x1 PUSH1 0xA0 SHL SUB DUP4 AND DUP12 DUP4 PUSH2 0x1E25 JUMP JUMPDEST POP POP PUSH1 0x1 ADD PUSH2 0xA74 JUMP JUMPDEST POP PUSH1 0x40 MLOAD PUSH4 0xF04F2707 PUSH1 0xE0 SHL DUP2 MSTORE PUSH1 0x1 PUSH1 0x1 PUSH1 0xA0 SHL SUB DUP9 AND SWAP1 PUSH4 0xF04F2707 SWAP1 PUSH2 0xC19 SWAP1 DUP10 SWAP1 DUP10 SWAP1 DUP9 SWAP1 DUP11 SWAP1 PUSH1 0x4 ADD PUSH2 0x5C90 JUMP JUMPDEST PUSH1 0x0 PUSH1 0x40 MLOAD DUP1 DUP4 SUB DUP2 PUSH1 0x0 DUP8 DUP1 EXTCODESIZE ISZERO DUP1 ISZERO PUSH2 0xC33 JUMPI PUSH1 0x0 DUP1 REVERT JUMPDEST POP GAS CALL ISZERO DUP1 ISZERO PUSH2 0xC47 JUMPI RETURNDATASIZE PUSH1 0x0 DUP1 RETURNDATACOPY RETURNDATASIZE PUSH1 0x0 REVERT JUMPDEST POP POP POP POP PUSH1 0x0 JUMPDEST DUP7 MLOAD DUP2 LT ISZERO PUSH2 0xDB8 JUMPI PUSH1 0x0 DUP8 DUP3 DUP2 MLOAD DUP2 LT PUSH2 0xC65 JUMPI INVALID JUMPDEST PUSH1 0x20 MUL PUSH1 0x20 ADD ADD MLOAD SWAP1 POP PUSH1 0x0 DUP5 DUP4 DUP2 MLOAD DUP2 LT PUSH2 0xC7D JUMPI INVALID JUMPDEST PUSH1 0x20 MUL PUSH1 0x20 ADD ADD MLOAD SWAP1 POP PUSH1 0x0 DUP3 PUSH1 0x1 PUSH1 0x1 PUSH1 0xA0 SHL SUB AND PUSH4 0x70A08231 ADDRESS PUSH1 0x40 MLOAD DUP3 PUSH4 0xFFFFFFFF AND PUSH1 0xE0 SHL DUP2 MSTORE PUSH1 0x4 ADD PUSH2 0xCB5 SWAP2 SWAP1 PUSH2 0x5BA8 JUMP JUMPDEST PUSH1 0x20 PUSH1 0x40 MLOAD DUP1 DUP4 SUB DUP2 DUP7 DUP1 EXTCODESIZE ISZERO DUP1 ISZERO PUSH2 0xCCD JUMPI PUSH1 0x0 DUP1 REVERT JUMPDEST POP GAS STATICCALL ISZERO DUP1 ISZERO PUSH2 0xCE1 JUMPI RETURNDATASIZE PUSH1 0x0 DUP1 RETURNDATACOPY RETURNDATASIZE PUSH1 0x0 REVERT JUMPDEST POP POP POP POP PUSH1 0x40 MLOAD RETURNDATASIZE PUSH1 0x1F NOT PUSH1 0x1F DUP3 ADD AND DUP3 ADD DUP1 PUSH1 0x40 MSTORE POP DUP2 ADD SWAP1 PUSH2 0xD05 SWAP2 SWAP1 PUSH2 0x59EA JUMP JUMPDEST SWAP1 POP PUSH2 0xD16 DUP3 DUP3 LT ISZERO PUSH2 0x203 PUSH2 0x52B JUMP JUMPDEST PUSH1 0x0 DUP3 DUP3 SUB SWAP1 POP PUSH2 0xD3F DUP9 DUP7 DUP2 MLOAD DUP2 LT PUSH2 0xD2C JUMPI INVALID JUMPDEST PUSH1 0x20 MUL PUSH1 0x20 ADD ADD MLOAD DUP3 LT ISZERO PUSH2 0x25A PUSH2 0x52B JUMP JUMPDEST PUSH2 0xD49 DUP5 DUP3 PUSH2 0x1E77 JUMP JUMPDEST DUP4 PUSH1 0x1 PUSH1 0x1 PUSH1 0xA0 SHL SUB AND DUP13 PUSH1 0x1 PUSH1 0x1 PUSH1 0xA0 SHL SUB AND PUSH32 0xD7D75E01AB95780D3CD1C8EC0DD6C2CE19E3A20427EEC8BF53283B6FB8E95F0 DUP13 DUP9 DUP2 MLOAD DUP2 LT PUSH2 0xD8A JUMPI INVALID JUMPDEST PUSH1 0x20 MUL PUSH1 0x20 ADD ADD MLOAD DUP5 PUSH1 0x40 MLOAD PUSH2 0xDA1 SWAP3 SWAP2 SWAP1 PUSH2 0x5DDD JUMP JUMPDEST PUSH1 0x40 MLOAD DUP1 SWAP2 SUB SWAP1 LOG3 POP POP POP POP DUP1 PUSH1 0x1 ADD SWAP1 POP PUSH2 0xC4E JUMP JUMPDEST POP POP POP POP PUSH2 0xDC4 PUSH2 0x17A3 JUMP JUMPDEST POP POP POP POP JUMP JUMPDEST PUSH2 0xDD2 PUSH2 0x1700 JUMP JUMPDEST PUSH2 0xDDA PUSH2 0x17AA JUMP JUMPDEST DUP3 PUSH2 0xDE4 DUP2 PUSH2 0x1E99 JUMP JUMPDEST PUSH2 0xDF0 DUP4 MLOAD DUP4 MLOAD PUSH2 0x1D91 JUMP JUMPDEST PUSH1 0x0 JUMPDEST DUP4 MLOAD DUP2 LT ISZERO PUSH2 0xE8E JUMPI PUSH1 0x0 DUP5 DUP3 DUP2 MLOAD DUP2 LT PUSH2 0xE0A JUMPI INVALID JUMPDEST PUSH1 0x20 MUL PUSH1 0x20 ADD ADD MLOAD SWAP1 POP PUSH2 0xE36 PUSH1 0x0 PUSH1 0x1 PUSH1 0x1 PUSH1 0xA0 SHL SUB AND DUP3 PUSH1 0x1 PUSH1 0x1 PUSH1 0xA0 SHL SUB AND EQ ISZERO PUSH2 0x135 PUSH2 0x52B JUMP JUMPDEST DUP4 DUP3 DUP2 MLOAD DUP2 LT PUSH2 0xE42 JUMPI INVALID JUMPDEST PUSH1 0x20 SWAP1 DUP2 MUL SWAP2 SWAP1 SWAP2 ADD DUP2 ADD MLOAD PUSH1 0x0 DUP9 DUP2 MSTORE PUSH1 0xA DUP4 MSTORE PUSH1 0x40 DUP1 DUP3 KECCAK256 PUSH1 0x1 PUSH1 0x1 PUSH1 0xA0 SHL SUB SWAP6 DUP7 AND DUP4 MSTORE SWAP1 SWAP4 MSTORE SWAP2 SWAP1 SWAP2 KECCAK256 DUP1 SLOAD PUSH1 0x1 PUSH1 0x1 PUSH1 0xA0 SHL SUB NOT AND SWAP3 SWAP1 SWAP2 AND SWAP2 SWAP1 SWAP2 OR SWAP1 SSTORE PUSH1 0x1 ADD PUSH2 0xDF3 JUMP JUMPDEST POP PUSH1 0x0 PUSH2 0xE9A DUP6 PUSH2 0x1ECA JUMP JUMPDEST SWAP1 POP PUSH1 0x2 DUP2 PUSH1 0x2 DUP2 GT ISZERO PUSH2 0xEAA JUMPI INVALID JUMPDEST EQ ISZERO PUSH2 0xEF8 JUMPI PUSH2 0xEC0 DUP5 MLOAD PUSH1 0x2 EQ PUSH2 0x20C PUSH2 0x52B JUMP JUMPDEST PUSH2 0xEF3 DUP6 DUP6 PUSH1 0x0 DUP2 MLOAD DUP2 LT PUSH2 0xED1 JUMPI INVALID JUMPDEST PUSH1 0x20 MUL PUSH1 0x20 ADD ADD MLOAD DUP7 PUSH1 0x1 DUP2 MLOAD DUP2 LT PUSH2 0xEE6 JUMPI INVALID JUMPDEST PUSH1 0x20 MUL PUSH1 0x20 ADD ADD MLOAD PUSH2 0x1EE4 JUMP JUMPDEST PUSH2 0xF20 JUMP JUMPDEST PUSH1 0x1 DUP2 PUSH1 0x2 DUP2 GT ISZERO PUSH2 0xF06 JUMPI INVALID JUMPDEST EQ ISZERO PUSH2 0xF16 JUMPI PUSH2 0xEF3 DUP6 DUP6 PUSH2 0x1F90 JUMP JUMPDEST PUSH2 0xF20 DUP6 DUP6 PUSH2 0x1FE8 JUMP JUMPDEST DUP5 PUSH32 0xF5847D3F2197B16CDCD2098EC95D0905CD1ABDAF415F07BB7CEF2BBA8AC5DEC4 DUP6 DUP6 PUSH1 0x40 MLOAD PUSH2 0xF52 SWAP3 SWAP2 SWAP1 PUSH2 0x5C05 JUMP JUMPDEST PUSH1 0x40 MLOAD DUP1 SWAP2 SUB SWAP1 LOG2 POP POP PUSH2 0xF64 PUSH2 0x17A3 JUMP JUMPDEST POP POP POP JUMP JUMPDEST PUSH2 0xF71 PUSH2 0x1700 JUMP JUMPDEST PUSH2 0xF79 PUSH2 0x17AA JUMP JUMPDEST DUP2 PUSH2 0xF83 DUP2 PUSH2 0x1E99 JUMP JUMPDEST PUSH1 0x0 PUSH2 0xF8E DUP5 PUSH2 0x1ECA JUMP JUMPDEST SWAP1 POP PUSH1 0x2 DUP2 PUSH1 0x2 DUP2 GT ISZERO PUSH2 0xF9E JUMPI INVALID JUMPDEST EQ ISZERO PUSH2 0xFEC JUMPI PUSH2 0xFB4 DUP4 MLOAD PUSH1 0x2 EQ PUSH2 0x20C PUSH2 0x52B JUMP JUMPDEST PUSH2 0xFE7 DUP5 DUP5 PUSH1 0x0 DUP2 MLOAD DUP2 LT PUSH2 0xFC5 JUMPI INVALID JUMPDEST PUSH1 0x20 MUL PUSH1 0x20 ADD ADD MLOAD DUP6 PUSH1 0x1 DUP2 MLOAD DUP2 LT PUSH2 0xFDA JUMPI INVALID JUMPDEST PUSH1 0x20 MUL PUSH1 0x20 ADD ADD MLOAD PUSH2 0x203D JUMP JUMPDEST PUSH2 0x1014 JUMP JUMPDEST PUSH1 0x1 DUP2 PUSH1 0x2 DUP2 GT ISZERO PUSH2 0xFFA JUMPI INVALID JUMPDEST EQ ISZERO PUSH2 0x100A JUMPI PUSH2 0xFE7 DUP5 DUP5 PUSH2 0x20AB JUMP JUMPDEST PUSH2 0x1014 DUP5 DUP5 PUSH2 0x2165 JUMP JUMPDEST PUSH1 0x0 JUMPDEST DUP4 MLOAD DUP2 LT ISZERO PUSH2 0x107A JUMPI PUSH1 0xA PUSH1 0x0 DUP7 DUP2 MSTORE PUSH1 0x20 ADD SWAP1 DUP2 MSTORE PUSH1 0x20 ADD PUSH1 0x0 KECCAK256 PUSH1 0x0 DUP6 DUP4 DUP2 MLOAD DUP2 LT PUSH2 0x1041 JUMPI INVALID JUMPDEST PUSH1 0x20 SWAP1 DUP2 MUL SWAP2 SWAP1 SWAP2 ADD DUP2 ADD MLOAD PUSH1 0x1 PUSH1 0x1 PUSH1 0xA0 SHL SUB AND DUP3 MSTORE DUP2 ADD SWAP2 SWAP1 SWAP2 MSTORE PUSH1 0x40 ADD PUSH1 0x0 KECCAK256 DUP1 SLOAD PUSH1 0x1 PUSH1 0x1 PUSH1 0xA0 SHL SUB NOT AND SWAP1 SSTORE PUSH1 0x1 ADD PUSH2 0x1017 JUMP JUMPDEST POP DUP4 PUSH32 0x7DCDC6D02EF40C7C1A7046A011B058BD7F988FA14E20A66344F9D4E60657D610 DUP5 PUSH1 0x40 MLOAD PUSH2 0x10AB SWAP2 SWAP1 PUSH2 0x5BF2 JUMP JUMPDEST PUSH1 0x40 MLOAD DUP1 SWAP2 SUB SWAP1 LOG2 POP POP PUSH2 0x539 PUSH2 0x17A3 JUMP JUMPDEST PUSH1 0x40 DUP1 MLOAD PUSH32 0x0 PUSH1 0x20 DUP1 DUP4 ADD SWAP2 SWAP1 SWAP2 MSTORE PUSH1 0x1 PUSH1 0x1 PUSH1 0xE0 SHL SUB NOT DUP5 AND DUP3 DUP5 ADD MSTORE DUP3 MLOAD PUSH1 0x24 DUP2 DUP5 SUB ADD DUP2 MSTORE PUSH1 0x44 SWAP1 SWAP3 ADD SWAP1 SWAP3 MSTORE DUP1 MLOAD SWAP2 ADD KECCAK256 SWAP2 SWAP1 POP JUMP JUMPDEST PUSH2 0xDC4 PUSH1 0x1 DUP6 DUP6 DUP6 PUSH2 0x1127 DUP7 PUSH2 0x21C8 JUMP JUMPDEST PUSH2 0x21D4 JUMP JUMPDEST PUSH1 0x1 PUSH1 0x1 PUSH1 0xA0 SHL SUB AND PUSH1 0x0 SWAP1 DUP2 MSTORE PUSH1 0x2 PUSH1 0x20 MSTORE PUSH1 0x40 SWAP1 KECCAK256 SLOAD SWAP1 JUMP JUMPDEST PUSH1 0x60 PUSH2 0x1151 PUSH2 0x1700 JUMP JUMPDEST PUSH2 0x1159 PUSH2 0x17AA JUMP JUMPDEST DUP4 MLOAD PUSH2 0x1164 DUP2 PUSH2 0x1A8E JUMP JUMPDEST PUSH2 0x1173 DUP4 TIMESTAMP GT ISZERO PUSH2 0x1FC PUSH2 0x52B JUMP JUMPDEST PUSH2 0x117F DUP7 MLOAD DUP6 MLOAD PUSH2 0x1D91 JUMP JUMPDEST PUSH2 0x118B DUP8 DUP8 DUP8 DUP12 PUSH2 0x235A JUMP JUMPDEST SWAP2 POP PUSH1 0x0 DUP1 JUMPDEST DUP8 MLOAD DUP2 LT ISZERO PUSH2 0x125D JUMPI PUSH1 0x0 DUP9 DUP3 DUP2 MLOAD DUP2 LT PUSH2 0x11A8 JUMPI INVALID JUMPDEST PUSH1 0x20 MUL PUSH1 0x20 ADD ADD MLOAD SWAP1 POP PUSH1 0x0 DUP6 DUP4 DUP2 MLOAD DUP2 LT PUSH2 0x11C0 JUMPI INVALID JUMPDEST PUSH1 0x20 MUL PUSH1 0x20 ADD ADD MLOAD SWAP1 POP PUSH2 0x11EC DUP9 DUP5 DUP2 MLOAD DUP2 LT PUSH2 0x11D9 JUMPI INVALID JUMPDEST PUSH1 0x20 MUL PUSH1 0x20 ADD ADD MLOAD DUP3 SGT ISZERO PUSH2 0x1FB PUSH2 0x52B JUMP JUMPDEST PUSH1 0x0 DUP2 SGT ISZERO PUSH2 0x122C JUMPI DUP9 MLOAD PUSH1 0x20 DUP11 ADD MLOAD DUP3 SWAP2 PUSH2 0x120B SWAP2 DUP6 SWAP2 DUP5 SWAP2 PUSH2 0x1BD9 JUMP JUMPDEST PUSH2 0x1214 DUP4 PUSH2 0x18B9 JUMP JUMPDEST ISZERO PUSH2 0x1226 JUMPI PUSH2 0x1223 DUP6 DUP3 PUSH2 0x18C6 JUMP JUMPDEST SWAP5 POP JUMPDEST POP PUSH2 0x1253 JUMP JUMPDEST PUSH1 0x0 DUP2 SLT ISZERO PUSH2 0x1253 JUMPI PUSH1 0x0 DUP2 PUSH1 0x0 SUB SWAP1 POP PUSH2 0x1251 DUP4 DUP3 DUP13 PUSH1 0x40 ADD MLOAD DUP14 PUSH1 0x60 ADD MLOAD PUSH2 0x1CB7 JUMP JUMPDEST POP JUMPDEST POP POP PUSH1 0x1 ADD PUSH2 0x1191 JUMP JUMPDEST POP PUSH2 0x1267 DUP2 PUSH2 0x195F JUMP JUMPDEST POP POP PUSH2 0x1271 PUSH2 0x17A3 JUMP JUMPDEST SWAP7 SWAP6 POP POP POP POP POP POP JUMP JUMPDEST PUSH1 0x3 SLOAD PUSH2 0x100 SWAP1 DIV PUSH1 0x1 PUSH1 0x1 PUSH1 0xA0 SHL SUB AND SWAP1 JUMP JUMPDEST PUSH1 0x0 PUSH2 0x1299 PUSH2 0x506 JUMP JUMPDEST SWAP1 POP SWAP1 JUMP JUMPDEST PUSH1 0x0 DUP1 PUSH1 0x0 DUP1 DUP6 PUSH2 0x12AE DUP2 PUSH2 0x25E8 JUMP JUMPDEST PUSH1 0x0 DUP1 PUSH2 0x12BA DUP10 PUSH2 0x1ECA JUMP JUMPDEST SWAP1 POP PUSH1 0x2 DUP2 PUSH1 0x2 DUP2 GT ISZERO PUSH2 0x12CA JUMPI INVALID JUMPDEST EQ ISZERO PUSH2 0x12E1 JUMPI PUSH2 0x12DA DUP10 DUP10 PUSH2 0x2606 JUMP JUMPDEST SWAP2 POP PUSH2 0x130C JUMP JUMPDEST PUSH1 0x1 DUP2 PUSH1 0x2 DUP2 GT ISZERO PUSH2 0x12EF JUMPI INVALID JUMPDEST EQ ISZERO PUSH2 0x12FF JUMPI PUSH2 0x12DA DUP10 DUP10 PUSH2 0x2680 JUMP JUMPDEST PUSH2 0x1309 DUP10 DUP10 PUSH2 0x26EE JUMP JUMPDEST SWAP2 POP JUMPDEST PUSH2 0x1315 DUP3 PUSH2 0x2706 JUMP JUMPDEST SWAP7 POP PUSH2 0x1320 DUP3 PUSH2 0x2712 JUMP JUMPDEST SWAP6 POP PUSH2 0x132B DUP3 PUSH2 0x2721 JUMP JUMPDEST PUSH1 0x0 SWAP10 DUP11 MSTORE PUSH1 0xA PUSH1 0x20 SWAP1 DUP2 MSTORE PUSH1 0x40 DUP1 DUP13 KECCAK256 PUSH1 0x1 PUSH1 0x1 PUSH1 0xA0 SHL SUB SWAP12 DUP13 AND DUP14 MSTORE SWAP1 SWAP2 MSTORE SWAP1 SWAP10 KECCAK256 SLOAD SWAP7 SWAP10 SWAP6 SWAP9 SWAP8 SWAP7 SWAP1 SWAP7 AND SWAP6 POP POP POP POP POP JUMP JUMPDEST PUSH2 0x1369 PUSH2 0x17AA JUMP JUMPDEST PUSH2 0xDC4 PUSH1 0x0 DUP6 DUP6 DUP6 PUSH2 0x1127 DUP7 PUSH2 0x21C8 JUMP JUMPDEST PUSH32 0x0 SWAP1 JUMP JUMPDEST PUSH2 0x13A6 PUSH2 0x1700 JUMP JUMPDEST PUSH2 0x13AE PUSH2 0x17AA JUMP JUMPDEST PUSH2 0x13B6 PUSH2 0x4D1F JUMP JUMPDEST PUSH1 0x0 JUMPDEST DUP3 MLOAD DUP2 LT ISZERO PUSH2 0x14B0 JUMPI DUP3 DUP2 DUP2 MLOAD DUP2 LT PUSH2 0x13CE JUMPI INVALID JUMPDEST PUSH1 0x20 MUL PUSH1 0x20 ADD ADD MLOAD SWAP2 POP PUSH1 0x0 DUP3 PUSH1 0x20 ADD MLOAD SWAP1 POP PUSH2 0x13EA DUP2 PUSH2 0x25E8 JUMP JUMPDEST PUSH1 0x40 DUP4 ADD MLOAD PUSH2 0x1404 PUSH2 0x13FC DUP4 DUP4 PUSH2 0x2727 JUMP JUMPDEST PUSH2 0x209 PUSH2 0x52B JUMP JUMPDEST PUSH1 0x0 DUP3 DUP2 MSTORE PUSH1 0xA PUSH1 0x20 SWAP1 DUP2 MSTORE PUSH1 0x40 DUP1 DUP4 KECCAK256 PUSH1 0x1 PUSH1 0x1 PUSH1 0xA0 SHL SUB DUP6 DUP2 AND DUP6 MSTORE SWAP3 MSTORE SWAP1 SWAP2 KECCAK256 SLOAD PUSH2 0x1437 SWAP2 AND CALLER EQ PUSH2 0x1F6 PUSH2 0x52B JUMP JUMPDEST DUP4 MLOAD PUSH1 0x60 DUP6 ADD MLOAD PUSH1 0x0 DUP1 PUSH2 0x144D DUP5 DUP8 DUP8 DUP7 PUSH2 0x2783 JUMP JUMPDEST SWAP2 POP SWAP2 POP DUP5 PUSH1 0x1 PUSH1 0x1 PUSH1 0xA0 SHL SUB AND CALLER PUSH1 0x1 PUSH1 0x1 PUSH1 0xA0 SHL SUB AND DUP8 PUSH32 0x6EDCAF6241105B4C94C2EFDBF3A6B12458EB3D07BE3A0E81D24B13C44045FE7A DUP6 DUP6 PUSH1 0x40 MLOAD PUSH2 0x1497 SWAP3 SWAP2 SWAP1 PUSH2 0x5DDD JUMP JUMPDEST PUSH1 0x40 MLOAD DUP1 SWAP2 SUB SWAP1 LOG4 POP POP POP POP POP POP DUP1 PUSH1 0x1 ADD SWAP1 POP PUSH2 0x13B9 JUMP JUMPDEST POP POP PUSH2 0x55E PUSH2 0x17A3 JUMP JUMPDEST PUSH1 0x0 PUSH2 0x1299 PUSH2 0x27F2 JUMP JUMPDEST PUSH1 0x0 DUP1 DUP3 PUSH2 0x14D1 DUP2 PUSH2 0x25E8 JUMP JUMPDEST PUSH2 0x14DA DUP5 PUSH2 0x28B0 JUMP JUMPDEST PUSH2 0x14E3 DUP6 PUSH2 0x1ECA JUMP JUMPDEST SWAP3 POP SWAP3 POP JUMPDEST POP SWAP2 POP SWAP2 JUMP JUMPDEST PUSH1 0x60 CALLER ADDRESS EQ PUSH2 0x15A8 JUMPI PUSH1 0x0 ADDRESS PUSH1 0x1 PUSH1 0x1 PUSH1 0xA0 SHL SUB AND PUSH1 0x0 CALLDATASIZE PUSH1 0x40 MLOAD PUSH2 0x1514 SWAP3 SWAP2 SWAP1 PUSH2 0x5B71 JUMP JUMPDEST PUSH1 0x0 PUSH1 0x40 MLOAD DUP1 DUP4 SUB DUP2 PUSH1 0x0 DUP7 GAS CALL SWAP2 POP POP RETURNDATASIZE DUP1 PUSH1 0x0 DUP2 EQ PUSH2 0x1551 JUMPI PUSH1 0x40 MLOAD SWAP2 POP PUSH1 0x1F NOT PUSH1 0x3F RETURNDATASIZE ADD AND DUP3 ADD PUSH1 0x40 MSTORE RETURNDATASIZE DUP3 MSTORE RETURNDATASIZE PUSH1 0x0 PUSH1 0x20 DUP5 ADD RETURNDATACOPY PUSH2 0x1556 JUMP JUMPDEST PUSH1 0x60 SWAP2 POP JUMPDEST POP POP SWAP1 POP DUP1 PUSH1 0x0 DUP2 EQ PUSH2 0x1565 JUMPI INVALID JUMPDEST PUSH1 0x4 PUSH1 0x0 DUP1 RETURNDATACOPY PUSH1 0x0 MLOAD PUSH1 0x1 PUSH1 0x1 PUSH1 0xE0 SHL SUB NOT AND PUSH4 0x7D30E609 PUSH1 0xE1 SHL DUP2 EQ PUSH2 0x1590 JUMPI RETURNDATASIZE PUSH1 0x0 DUP1 RETURNDATACOPY RETURNDATASIZE PUSH1 0x0 REVERT JUMPDEST POP PUSH1 0x20 PUSH1 0x0 MSTORE PUSH1 0x4 RETURNDATASIZE SUB DUP1 PUSH1 0x4 PUSH1 0x20 RETURNDATACOPY PUSH1 0x20 DUP2 ADD PUSH1 0x0 RETURN JUMPDEST PUSH1 0x0 PUSH2 0x15B6 DUP6 DUP6 DUP6 DUP10 PUSH2 0x235A JUMP JUMPDEST SWAP1 POP PUSH1 0x20 DUP2 MLOAD MUL PUSH4 0xFA61CC12 PUSH1 0x20 DUP4 SUB MSTORE PUSH1 0x4 DUP3 SUB PUSH1 0x24 DUP3 ADD DUP2 REVERT JUMPDEST PUSH1 0x60 DUP1 PUSH1 0x0 DUP4 PUSH2 0x15E1 DUP2 PUSH2 0x25E8 JUMP JUMPDEST PUSH1 0x60 PUSH2 0x15EC DUP7 PUSH2 0x28B6 JUMP JUMPDEST SWAP1 SWAP6 POP SWAP1 POP PUSH2 0x15FA DUP2 PUSH2 0x2918 JUMP JUMPDEST SWAP6 SWAP8 SWAP1 SWAP7 POP SWAP4 POP POP POP POP JUMP JUMPDEST PUSH2 0x160E PUSH2 0x1700 JUMP JUMPDEST PUSH2 0x1616 PUSH2 0x17AA JUMP JUMPDEST DUP3 PUSH2 0x1620 DUP2 PUSH2 0x1A8E JUMP JUMPDEST PUSH1 0x1 PUSH1 0x1 PUSH1 0xA0 SHL SUB DUP5 DUP2 AND PUSH1 0x0 DUP2 DUP2 MSTORE PUSH1 0x4 PUSH1 0x20 SWAP1 DUP2 MSTORE PUSH1 0x40 DUP1 DUP4 KECCAK256 SWAP5 DUP9 AND DUP1 DUP5 MSTORE SWAP5 SWAP1 SWAP2 MSTORE SWAP1 DUP2 SWAP1 KECCAK256 DUP1 SLOAD PUSH1 0xFF NOT AND DUP7 ISZERO ISZERO OR SWAP1 SSTORE MLOAD SWAP1 SWAP2 SWAP1 PUSH32 0x46961FDB4502B646D5095FBA7600486A8AC05041D55CDF0F16ED677180B5CAD8 SWAP1 PUSH2 0x1687 SWAP1 DUP7 SWAP1 PUSH2 0x5D26 JUMP JUMPDEST PUSH1 0x40 MLOAD DUP1 SWAP2 SUB SWAP1 LOG3 POP PUSH2 0xF64 PUSH2 0x17A3 JUMP JUMPDEST PUSH1 0x0 PUSH2 0x16A4 DUP4 DUP4 PUSH2 0x29C6 JUMP JUMPDEST SWAP1 POP JUMPDEST SWAP3 SWAP2 POP POP JUMP JUMPDEST PUSH3 0x461BCD PUSH1 0xE5 SHL PUSH1 0x0 SWAP1 DUP2 MSTORE PUSH1 0x20 PUSH1 0x4 MSTORE PUSH1 0x7 PUSH1 0x24 MSTORE PUSH7 0x42414C23000030 PUSH1 0xA DUP1 DUP5 DIV DUP2 DUP2 MOD PUSH1 0x30 SWAP1 DUP2 ADD PUSH1 0x8 SHL SWAP6 DUP4 SWAP1 MOD SWAP6 SWAP1 SWAP6 ADD SWAP1 DUP3 SWAP1 DIV SWAP2 DUP3 MOD SWAP1 SWAP5 ADD PUSH1 0x10 SHL SWAP4 SWAP1 SWAP4 ADD ADD PUSH1 0xC8 SHL PUSH1 0x44 MSTORE PUSH1 0x64 SWAP1 REVERT JUMPDEST PUSH2 0x1712 PUSH1 0x2 PUSH1 0x0 SLOAD EQ ISZERO PUSH2 0x190 PUSH2 0x52B JUMP JUMPDEST PUSH1 0x2 PUSH1 0x0 SSTORE JUMP JUMPDEST PUSH1 0x0 PUSH2 0x1730 PUSH1 0x0 CALLDATALOAD PUSH1 0x1 PUSH1 0x1 PUSH1 0xE0 SHL SUB NOT AND PUSH2 0x10BD JUMP JUMPDEST SWAP1 POP PUSH2 0x55E PUSH2 0x173F DUP3 CALLER PUSH2 0x29F4 JUMP JUMPDEST PUSH2 0x191 PUSH2 0x52B JUMP JUMPDEST PUSH1 0x40 MLOAD PUSH1 0x1 PUSH1 0x1 PUSH1 0xA0 SHL SUB DUP3 AND SWAP1 PUSH32 0x94B979B6831A51293E2641426F97747FEED46F17779FED9CD18D1ECEFCFE92EF SWAP1 PUSH1 0x0 SWAP1 LOG2 PUSH1 0x3 DUP1 SLOAD PUSH1 0x1 PUSH1 0x1 PUSH1 0xA0 SHL SUB SWAP1 SWAP3 AND PUSH2 0x100 MUL PUSH2 0x100 PUSH1 0x1 PUSH1 0xA8 SHL SUB NOT SWAP1 SWAP3 AND SWAP2 SWAP1 SWAP2 OR SWAP1 SSTORE JUMP JUMPDEST PUSH1 0x1 PUSH1 0x0 SSTORE JUMP JUMPDEST PUSH2 0x17BD PUSH2 0x17B5 PUSH2 0x1A29 JUMP JUMPDEST PUSH2 0x192 PUSH2 0x52B JUMP JUMPDEST JUMP JUMPDEST PUSH1 0x0 PUSH10 0xFFFFFFFFFFFFFFFFFFFF DUP3 AND PUSH1 0x50 DUP5 PUSH1 0x2 DUP2 GT ISZERO PUSH2 0x17DC JUMPI INVALID JUMPDEST SWAP1 SHL OR PUSH1 0x60 DUP6 SWAP1 SHL PUSH12 0xFFFFFFFFFFFFFFFFFFFFFFFF NOT AND OR SWAP1 POP JUMPDEST SWAP4 SWAP3 POP POP POP JUMP JUMPDEST PUSH1 0x0 DUP1 PUSH1 0x0 DUP1 PUSH1 0x0 DUP1 PUSH1 0x0 DUP9 PUSH1 0x60 ADD MLOAD SWAP1 POP CALLER PUSH1 0x1 PUSH1 0x1 PUSH1 0xA0 SHL SUB AND DUP2 PUSH1 0x1 PUSH1 0x1 PUSH1 0xA0 SHL SUB AND EQ PUSH2 0x1850 JUMPI DUP8 PUSH2 0x183B JUMPI PUSH2 0x1836 PUSH2 0x1719 JUMP JUMPDEST PUSH1 0x1 SWAP8 POP JUMPDEST PUSH2 0x1850 PUSH2 0x1848 DUP3 CALLER PUSH2 0x29C6 JUMP JUMPDEST PUSH2 0x1F7 PUSH2 0x52B JUMP JUMPDEST DUP9 MLOAD PUSH1 0x20 DUP11 ADD MLOAD PUSH1 0x40 DUP12 ADD MLOAD PUSH1 0x80 SWAP1 SWAP12 ADD MLOAD SWAP2 SWAP12 SWAP1 SWAP11 SWAP10 SWAP3 SWAP9 POP SWAP1 SWAP7 POP SWAP1 SWAP5 POP SWAP3 POP POP POP JUMP JUMPDEST PUSH2 0x188B DUP4 PUSH2 0x1883 DUP7 PUSH2 0x1AC0 JUMP JUMPDEST DUP4 PUSH1 0x0 PUSH2 0x2A7E JUMP JUMPDEST POP PUSH2 0xDC4 DUP5 DUP3 DUP5 PUSH1 0x0 PUSH2 0x1CB7 JUMP JUMPDEST PUSH2 0x18AC DUP3 PUSH2 0x18A6 DUP7 PUSH2 0x1AC0 JUMP JUMPDEST DUP4 PUSH2 0x2AD4 JUMP JUMPDEST PUSH2 0xDC4 DUP5 DUP3 DUP6 PUSH1 0x0 PUSH2 0x1BD9 JUMP JUMPDEST PUSH1 0x1 PUSH1 0x1 PUSH1 0xA0 SHL SUB AND ISZERO SWAP1 JUMP JUMPDEST PUSH1 0x0 DUP3 DUP3 ADD PUSH2 0x16A4 DUP5 DUP3 LT ISZERO DUP4 PUSH2 0x52B JUMP JUMPDEST PUSH2 0x18E5 DUP4 DUP6 DUP4 PUSH1 0x0 PUSH2 0x2A7E JUMP JUMPDEST POP PUSH2 0xDC4 DUP3 DUP6 DUP4 PUSH2 0x2AD4 JUMP JUMPDEST DUP1 ISZERO PUSH2 0xDC4 JUMPI PUSH2 0x190C PUSH1 0x1 PUSH1 0x1 PUSH1 0xA0 SHL SUB DUP6 AND DUP5 DUP5 DUP5 PUSH2 0x2B04 JUMP JUMPDEST DUP3 PUSH1 0x1 PUSH1 0x1 PUSH1 0xA0 SHL SUB AND DUP5 PUSH1 0x1 PUSH1 0x1 PUSH1 0xA0 SHL SUB AND PUSH32 0x540A1A3F28340CAEC336C81D8D7B3DF139EE5CDC1839A4F283D7EBB7EAAE2D5C DUP5 DUP5 PUSH1 0x40 MLOAD PUSH2 0x1951 SWAP3 SWAP2 SWAP1 PUSH2 0x5BD9 JUMP JUMPDEST PUSH1 0x40 MLOAD DUP1 SWAP2 SUB SWAP1 LOG3 POP POP POP POP JUMP JUMPDEST PUSH2 0x196E DUP2 CALLVALUE LT ISZERO PUSH2 0x204 PUSH2 0x52B JUMP JUMPDEST CALLVALUE DUP2 SWAP1 SUB DUP1 ISZERO PUSH2 0x539 JUMPI PUSH2 0x539 CALLER DUP3 PUSH2 0x2B5E JUMP JUMPDEST PUSH1 0x1 PUSH1 0x1 PUSH1 0xA0 SHL SUB SWAP2 DUP3 AND PUSH1 0x0 SWAP1 DUP2 MSTORE PUSH1 0xB PUSH1 0x20 SWAP1 DUP2 MSTORE PUSH1 0x40 DUP1 DUP4 KECCAK256 SWAP4 SWAP1 SWAP5 AND DUP3 MSTORE SWAP2 SWAP1 SWAP2 MSTORE KECCAK256 SLOAD SWAP1 JUMP JUMPDEST DUP1 ISZERO PUSH2 0x19CD JUMPI PUSH2 0x19C8 PUSH2 0x19BE PUSH2 0x1A46 JUMP JUMPDEST TIMESTAMP LT PUSH2 0x193 PUSH2 0x52B JUMP JUMPDEST PUSH2 0x19E2 JUMP JUMPDEST PUSH2 0x19E2 PUSH2 0x19D8 PUSH2 0x1A6A JUMP JUMPDEST TIMESTAMP LT PUSH2 0x1A9 PUSH2 0x52B JUMP JUMPDEST PUSH1 0x3 DUP1 SLOAD DUP3 ISZERO ISZERO PUSH1 0xFF NOT SWAP1 SWAP2 AND DUP2 OR SWAP1 SWAP2 SSTORE PUSH1 0x40 DUP1 MLOAD SWAP2 DUP3 MSTORE MLOAD PUSH32 0x9E3A5E37224532DEA67B89FACE185703738A228A6E8A23DEE546960180D3BE64 SWAP2 DUP2 SWAP1 SUB PUSH1 0x20 ADD SWAP1 LOG1 POP JUMP JUMPDEST PUSH1 0x0 PUSH2 0x1A33 PUSH2 0x1A6A JUMP JUMPDEST TIMESTAMP GT DUP1 PUSH2 0x1299 JUMPI POP POP PUSH1 0x3 SLOAD PUSH1 0xFF AND ISZERO SWAP1 JUMP JUMPDEST PUSH32 0x0 SWAP1 JUMP JUMPDEST PUSH32 0x0 SWAP1 JUMP JUMPDEST CALLER PUSH1 0x1 PUSH1 0x1 PUSH1 0xA0 SHL SUB DUP3 AND EQ PUSH2 0x55E JUMPI PUSH2 0x1AA6 PUSH2 0x1719 JUMP JUMPDEST PUSH2 0x1AB0 DUP2 CALLER PUSH2 0x29C6 JUMP JUMPDEST PUSH2 0x55E JUMPI PUSH2 0x55E DUP2 PUSH2 0x1F7 PUSH2 0x2BCD JUMP JUMPDEST PUSH1 0x0 PUSH2 0x1ACB DUP3 PUSH2 0x18B9 JUMP JUMPDEST PUSH2 0x1ADD JUMPI PUSH2 0x1AD8 DUP3 PUSH2 0x528 JUMP JUMPDEST PUSH2 0x16A7 JUMP JUMPDEST PUSH2 0x16A7 PUSH2 0x506 JUMP JUMPDEST PUSH1 0x0 DUP1 PUSH1 0x0 DUP1 PUSH2 0x1AF8 DUP6 PUSH1 0x80 ADD MLOAD PUSH2 0x28B0 JUMP JUMPDEST SWAP1 POP PUSH1 0x0 PUSH2 0x1B09 DUP7 PUSH1 0x80 ADD MLOAD PUSH2 0x1ECA JUMP JUMPDEST SWAP1 POP PUSH1 0x2 DUP2 PUSH1 0x2 DUP2 GT ISZERO PUSH2 0x1B19 JUMPI INVALID JUMPDEST EQ ISZERO PUSH2 0x1B30 JUMPI PUSH2 0x1B29 DUP7 DUP4 PUSH2 0x2C01 JUMP JUMPDEST SWAP5 POP PUSH2 0x1B5B JUMP JUMPDEST PUSH1 0x1 DUP2 PUSH1 0x2 DUP2 GT ISZERO PUSH2 0x1B3E JUMPI INVALID JUMPDEST EQ ISZERO PUSH2 0x1B4E JUMPI PUSH2 0x1B29 DUP7 DUP4 PUSH2 0x2CB1 JUMP JUMPDEST PUSH2 0x1B58 DUP7 DUP4 PUSH2 0x2D44 JUMP JUMPDEST SWAP5 POP JUMPDEST PUSH2 0x1B6E DUP7 PUSH1 0x0 ADD MLOAD DUP8 PUSH1 0x60 ADD MLOAD DUP8 PUSH2 0x2F68 JUMP JUMPDEST DUP1 SWAP5 POP DUP2 SWAP6 POP POP POP DUP6 PUSH1 0x40 ADD MLOAD PUSH1 0x1 PUSH1 0x1 PUSH1 0xA0 SHL SUB AND DUP7 PUSH1 0x20 ADD MLOAD PUSH1 0x1 PUSH1 0x1 PUSH1 0xA0 SHL SUB AND DUP8 PUSH1 0x80 ADD MLOAD PUSH32 0x2170C741C41531AEC20E7C107C24EECFDD15E69C9BB0A8DD37B1840B9E0B207B DUP8 DUP8 PUSH1 0x40 MLOAD PUSH2 0x1BC8 SWAP3 SWAP2 SWAP1 PUSH2 0x5DDD JUMP JUMPDEST PUSH1 0x40 MLOAD DUP1 SWAP2 SUB SWAP1 LOG4 POP POP SWAP2 SWAP4 SWAP1 SWAP3 POP JUMP JUMPDEST DUP3 PUSH2 0x1BE3 JUMPI PUSH2 0xDC4 JUMP JUMPDEST PUSH2 0x1BEC DUP5 PUSH2 0x18B9 JUMP JUMPDEST ISZERO PUSH2 0x1C6D JUMPI PUSH2 0x1BFE DUP2 ISZERO PUSH2 0x202 PUSH2 0x52B JUMP JUMPDEST PUSH2 0x1C0D DUP4 SELFBALANCE LT ISZERO PUSH2 0x204 PUSH2 0x52B JUMP JUMPDEST PUSH2 0x1C15 PUSH2 0x506 JUMP JUMPDEST PUSH1 0x1 PUSH1 0x1 PUSH1 0xA0 SHL SUB AND PUSH4 0xD0E30DB0 DUP5 PUSH1 0x40 MLOAD DUP3 PUSH4 0xFFFFFFFF AND PUSH1 0xE0 SHL DUP2 MSTORE PUSH1 0x4 ADD PUSH1 0x0 PUSH1 0x40 MLOAD DUP1 DUP4 SUB DUP2 DUP6 DUP9 DUP1 EXTCODESIZE ISZERO DUP1 ISZERO PUSH2 0x1C4F JUMPI PUSH1 0x0 DUP1 REVERT JUMPDEST POP GAS CALL ISZERO DUP1 ISZERO PUSH2 0x1C63 JUMPI RETURNDATASIZE PUSH1 0x0 DUP1 RETURNDATACOPY RETURNDATASIZE PUSH1 0x0 REVERT JUMPDEST POP POP POP POP POP PUSH2 0xDC4 JUMP JUMPDEST PUSH1 0x0 PUSH2 0x1C78 DUP6 PUSH2 0x528 JUMP JUMPDEST SWAP1 POP DUP2 ISZERO PUSH2 0x1C95 JUMPI PUSH1 0x0 PUSH2 0x1C8F DUP5 DUP4 DUP8 PUSH1 0x1 PUSH2 0x2A7E JUMP JUMPDEST SWAP1 SWAP5 SUB SWAP4 POP JUMPDEST DUP4 ISZERO PUSH2 0x1CB0 JUMPI PUSH2 0x1CB0 PUSH1 0x1 PUSH1 0x1 PUSH1 0xA0 SHL SUB DUP3 AND DUP5 ADDRESS DUP8 PUSH2 0x2B04 JUMP JUMPDEST POP POP POP POP POP JUMP JUMPDEST DUP3 PUSH2 0x1CC1 JUMPI PUSH2 0xDC4 JUMP JUMPDEST PUSH2 0x1CCA DUP5 PUSH2 0x18B9 JUMP JUMPDEST ISZERO PUSH2 0x1D5A JUMPI PUSH2 0x1CDC DUP2 ISZERO PUSH2 0x202 PUSH2 0x52B JUMP JUMPDEST PUSH2 0x1CE4 PUSH2 0x506 JUMP JUMPDEST PUSH1 0x1 PUSH1 0x1 PUSH1 0xA0 SHL SUB AND PUSH4 0x2E1A7D4D DUP5 PUSH1 0x40 MLOAD DUP3 PUSH4 0xFFFFFFFF AND PUSH1 0xE0 SHL DUP2 MSTORE PUSH1 0x4 ADD PUSH2 0x1D0F SWAP2 SWAP1 PUSH2 0x5D49 JUMP JUMPDEST PUSH1 0x0 PUSH1 0x40 MLOAD DUP1 DUP4 SUB DUP2 PUSH1 0x0 DUP8 DUP1 EXTCODESIZE ISZERO DUP1 ISZERO PUSH2 0x1D29 JUMPI PUSH1 0x0 DUP1 REVERT JUMPDEST POP GAS CALL ISZERO DUP1 ISZERO PUSH2 0x1D3D JUMPI RETURNDATASIZE PUSH1 0x0 DUP1 RETURNDATACOPY RETURNDATASIZE PUSH1 0x0 REVERT JUMPDEST POP PUSH2 0x1D55 SWAP3 POP POP POP PUSH1 0x1 PUSH1 0x1 PUSH1 0xA0 SHL SUB DUP4 AND DUP5 PUSH2 0x2B5E JUMP JUMPDEST PUSH2 0xDC4 JUMP JUMPDEST PUSH1 0x0 PUSH2 0x1D65 DUP6 PUSH2 0x528 JUMP JUMPDEST SWAP1 POP DUP2 ISZERO PUSH2 0x1D7D JUMPI PUSH2 0x1D78 DUP4 DUP3 DUP7 PUSH2 0x2AD4 JUMP JUMPDEST PUSH2 0x1CB0 JUMP JUMPDEST PUSH2 0x1CB0 PUSH1 0x1 PUSH1 0x1 PUSH1 0xA0 SHL SUB DUP3 AND DUP5 DUP7 PUSH2 0x1E25 JUMP JUMPDEST PUSH2 0x539 DUP2 DUP4 EQ PUSH1 0x67 PUSH2 0x52B JUMP JUMPDEST PUSH1 0x0 DUP1 PUSH2 0x1DA9 PUSH2 0x137A JUMP JUMPDEST PUSH1 0x1 PUSH1 0x1 PUSH1 0xA0 SHL SUB AND PUSH4 0xD877845C PUSH1 0x40 MLOAD DUP2 PUSH4 0xFFFFFFFF AND PUSH1 0xE0 SHL DUP2 MSTORE PUSH1 0x4 ADD PUSH1 0x20 PUSH1 0x40 MLOAD DUP1 DUP4 SUB DUP2 DUP7 DUP1 EXTCODESIZE ISZERO DUP1 ISZERO PUSH2 0x1DE1 JUMPI PUSH1 0x0 DUP1 REVERT JUMPDEST POP GAS STATICCALL ISZERO DUP1 ISZERO PUSH2 0x1DF5 JUMPI RETURNDATASIZE PUSH1 0x0 DUP1 RETURNDATACOPY RETURNDATASIZE PUSH1 0x0 REVERT JUMPDEST POP POP POP POP PUSH1 0x40 MLOAD RETURNDATASIZE PUSH1 0x1F NOT PUSH1 0x1F DUP3 ADD AND DUP3 ADD DUP1 PUSH1 0x40 MSTORE POP DUP2 ADD SWAP1 PUSH2 0x1E19 SWAP2 SWAP1 PUSH2 0x59EA JUMP JUMPDEST SWAP1 POP PUSH2 0x17F7 DUP4 DUP3 PUSH2 0x2F96 JUMP JUMPDEST PUSH1 0x40 DUP1 MLOAD PUSH1 0x1 PUSH1 0x1 PUSH1 0xA0 SHL SUB DUP5 AND PUSH1 0x24 DUP3 ADD MSTORE PUSH1 0x44 DUP1 DUP3 ADD DUP5 SWAP1 MSTORE DUP3 MLOAD DUP1 DUP4 SUB SWAP1 SWAP2 ADD DUP2 MSTORE PUSH1 0x64 SWAP1 SWAP2 ADD SWAP1 SWAP2 MSTORE PUSH1 0x20 DUP2 ADD DUP1 MLOAD PUSH1 0x1 PUSH1 0x1 PUSH1 0xE0 SHL SUB AND PUSH4 0xA9059CBB PUSH1 0xE0 SHL OR SWAP1 MSTORE PUSH2 0xF64 SWAP1 DUP5 SWAP1 PUSH2 0x2FE3 JUMP JUMPDEST DUP1 ISZERO PUSH2 0x539 JUMPI PUSH2 0x539 PUSH2 0x1E88 PUSH2 0x137A JUMP JUMPDEST PUSH1 0x1 PUSH1 0x1 PUSH1 0xA0 SHL SUB DUP5 AND SWAP1 DUP4 PUSH2 0x1E25 JUMP JUMPDEST PUSH2 0x1EA2 DUP2 PUSH2 0x25E8 JUMP JUMPDEST PUSH2 0x55E PUSH2 0x1EAE DUP3 PUSH2 0x28B0 JUMP JUMPDEST PUSH1 0x1 PUSH1 0x1 PUSH1 0xA0 SHL SUB AND CALLER PUSH1 0x1 PUSH1 0x1 PUSH1 0xA0 SHL SUB AND EQ PUSH2 0x1F5 PUSH2 0x52B JUMP JUMPDEST PUSH1 0x0 PUSH2 0xFFFF PUSH1 0x50 DUP4 SWAP1 SHR AND PUSH2 0x16A7 PUSH1 0x3 DUP3 LT PUSH2 0x1F4 PUSH2 0x52B JUMP JUMPDEST PUSH2 0x1F05 DUP2 PUSH1 0x1 PUSH1 0x1 PUSH1 0xA0 SHL SUB AND DUP4 PUSH1 0x1 PUSH1 0x1 PUSH1 0xA0 SHL SUB AND EQ ISZERO PUSH2 0x20A PUSH2 0x52B JUMP JUMPDEST PUSH2 0x1F24 DUP2 PUSH1 0x1 PUSH1 0x1 PUSH1 0xA0 SHL SUB AND DUP4 PUSH1 0x1 PUSH1 0x1 PUSH1 0xA0 SHL SUB AND LT PUSH1 0x66 PUSH2 0x52B JUMP JUMPDEST PUSH1 0x0 DUP4 DUP2 MSTORE PUSH1 0x9 PUSH1 0x20 MSTORE PUSH1 0x40 SWAP1 KECCAK256 DUP1 SLOAD PUSH2 0x1F61 SWAP1 PUSH1 0x1 PUSH1 0x1 PUSH1 0xA0 SHL SUB AND ISZERO DUP1 ISZERO PUSH2 0x1F59 JUMPI POP PUSH1 0x1 DUP3 ADD SLOAD PUSH1 0x1 PUSH1 0x1 PUSH1 0xA0 SHL SUB AND ISZERO JUMPDEST PUSH2 0x20B PUSH2 0x52B JUMP JUMPDEST DUP1 SLOAD PUSH1 0x1 PUSH1 0x1 PUSH1 0xA0 SHL SUB SWAP4 DUP5 AND PUSH1 0x1 PUSH1 0x1 PUSH1 0xA0 SHL SUB NOT SWAP2 DUP3 AND OR DUP3 SSTORE PUSH1 0x1 SWAP1 SWAP2 ADD DUP1 SLOAD SWAP3 SWAP1 SWAP4 AND SWAP2 AND OR SWAP1 SSTORE POP JUMP JUMPDEST PUSH1 0x0 DUP3 DUP2 MSTORE PUSH1 0x8 PUSH1 0x20 MSTORE PUSH1 0x40 DUP2 KECCAK256 SWAP1 JUMPDEST DUP3 MLOAD DUP2 LT ISZERO PUSH2 0xDC4 JUMPI PUSH1 0x0 PUSH2 0x1FD1 DUP5 DUP4 DUP2 MLOAD DUP2 LT PUSH2 0x1FBA JUMPI INVALID JUMPDEST PUSH1 0x20 MUL PUSH1 0x20 ADD ADD MLOAD DUP5 PUSH2 0x30CD SWAP1 SWAP2 SWAP1 PUSH4 0xFFFFFFFF AND JUMP JUMPDEST SWAP1 POP PUSH2 0x1FDF DUP2 PUSH2 0x20A PUSH2 0x52B JUMP JUMPDEST POP PUSH1 0x1 ADD PUSH2 0x1FA0 JUMP JUMPDEST PUSH1 0x0 DUP3 DUP2 MSTORE PUSH1 0x1 PUSH1 0x20 MSTORE PUSH1 0x40 DUP2 KECCAK256 SWAP1 JUMPDEST DUP3 MLOAD DUP2 LT ISZERO PUSH2 0xDC4 JUMPI PUSH1 0x0 PUSH2 0x2026 DUP5 DUP4 DUP2 MLOAD DUP2 LT PUSH2 0x2012 JUMPI INVALID JUMPDEST PUSH1 0x20 SWAP1 DUP2 MUL SWAP2 SWAP1 SWAP2 ADD ADD MLOAD DUP5 SWAP1 PUSH1 0x0 PUSH2 0x3130 JUMP JUMPDEST SWAP1 POP PUSH2 0x2034 DUP2 PUSH2 0x20A PUSH2 0x52B JUMP JUMPDEST POP PUSH1 0x1 ADD PUSH2 0x1FF8 JUMP JUMPDEST PUSH1 0x0 DUP1 PUSH1 0x0 PUSH2 0x204D DUP7 DUP7 DUP7 PUSH2 0x31DD JUMP JUMPDEST SWAP3 POP SWAP3 POP SWAP3 POP PUSH2 0x2077 PUSH2 0x205F DUP5 PUSH2 0x32A4 JUMP JUMPDEST DUP1 ISZERO PUSH2 0x206F JUMPI POP PUSH2 0x206F DUP4 PUSH2 0x32A4 JUMP JUMPDEST PUSH2 0x20D PUSH2 0x52B JUMP JUMPDEST PUSH1 0x0 SWAP6 DUP7 MSTORE PUSH1 0x9 PUSH1 0x20 MSTORE PUSH1 0x40 DUP7 KECCAK256 DUP1 SLOAD PUSH1 0x1 PUSH1 0x1 PUSH1 0xA0 SHL SUB NOT SWAP1 DUP2 AND DUP3 SSTORE PUSH1 0x1 SWAP1 SWAP2 ADD DUP1 SLOAD SWAP1 SWAP2 AND SWAP1 SSTORE SWAP5 SWAP1 SWAP5 SSTORE POP POP POP POP JUMP JUMPDEST PUSH1 0x0 DUP3 DUP2 MSTORE PUSH1 0x8 PUSH1 0x20 MSTORE PUSH1 0x40 DUP2 KECCAK256 SWAP1 JUMPDEST DUP3 MLOAD DUP2 LT ISZERO PUSH2 0xDC4 JUMPI PUSH1 0x0 DUP4 DUP3 DUP2 MLOAD DUP2 LT PUSH2 0x20D2 JUMPI INVALID JUMPDEST PUSH1 0x20 MUL PUSH1 0x20 ADD ADD MLOAD SWAP1 POP PUSH2 0x211E PUSH2 0x206F PUSH1 0x7 PUSH1 0x0 DUP9 DUP2 MSTORE PUSH1 0x20 ADD SWAP1 DUP2 MSTORE PUSH1 0x20 ADD PUSH1 0x0 KECCAK256 PUSH1 0x0 DUP5 PUSH1 0x1 PUSH1 0x1 PUSH1 0xA0 SHL SUB AND PUSH1 0x1 PUSH1 0x1 PUSH1 0xA0 SHL SUB AND DUP2 MSTORE PUSH1 0x20 ADD SWAP1 DUP2 MSTORE PUSH1 0x20 ADD PUSH1 0x0 KECCAK256 SLOAD PUSH2 0x32A4 JUMP JUMPDEST PUSH1 0x0 DUP6 DUP2 MSTORE PUSH1 0x7 PUSH1 0x20 SWAP1 DUP2 MSTORE PUSH1 0x40 DUP1 DUP4 KECCAK256 PUSH1 0x1 PUSH1 0x1 PUSH1 0xA0 SHL SUB DUP6 AND DUP5 MSTORE SWAP1 SWAP2 MSTORE DUP2 KECCAK256 DUP2 SWAP1 SSTORE PUSH2 0x214D DUP5 DUP4 PUSH2 0x32B1 JUMP JUMPDEST SWAP1 POP PUSH2 0x215B DUP2 PUSH2 0x209 PUSH2 0x52B JUMP JUMPDEST POP POP PUSH1 0x1 ADD PUSH2 0x20BB JUMP JUMPDEST PUSH1 0x0 DUP3 DUP2 MSTORE PUSH1 0x1 PUSH1 0x20 MSTORE PUSH1 0x40 DUP2 KECCAK256 SWAP1 JUMPDEST DUP3 MLOAD DUP2 LT ISZERO PUSH2 0xDC4 JUMPI PUSH1 0x0 DUP4 DUP3 DUP2 MLOAD DUP2 LT PUSH2 0x218C JUMPI INVALID JUMPDEST PUSH1 0x20 MUL PUSH1 0x20 ADD ADD MLOAD SWAP1 POP PUSH1 0x0 PUSH2 0x21A2 DUP5 DUP4 PUSH2 0x33BF JUMP JUMPDEST SWAP1 POP PUSH2 0x21B0 PUSH2 0x206F DUP3 PUSH2 0x32A4 JUMP JUMPDEST PUSH2 0x21BA DUP5 DUP4 PUSH2 0x33CE JUMP JUMPDEST POP POP POP DUP1 PUSH1 0x1 ADD SWAP1 POP PUSH2 0x2175 JUMP JUMPDEST PUSH2 0x21D0 PUSH2 0x4D48 JUMP JUMPDEST POP SWAP1 JUMP JUMPDEST PUSH2 0x21DC PUSH2 0x1700 JUMP JUMPDEST DUP4 PUSH2 0x21E6 DUP2 PUSH2 0x25E8 JUMP JUMPDEST DUP4 PUSH2 0x21F0 DUP2 PUSH2 0x1A8E JUMP JUMPDEST PUSH2 0x2204 DUP4 PUSH1 0x0 ADD MLOAD MLOAD DUP5 PUSH1 0x20 ADD MLOAD MLOAD PUSH2 0x1D91 JUMP JUMPDEST PUSH1 0x0 PUSH2 0x2213 DUP5 PUSH1 0x0 ADD MLOAD PUSH2 0x34A0 JUMP JUMPDEST SWAP1 POP PUSH1 0x0 PUSH2 0x2221 DUP9 DUP4 PUSH2 0x352F JUMP JUMPDEST SWAP1 POP PUSH1 0x0 DUP1 PUSH1 0x0 PUSH2 0x2236 DUP13 DUP13 DUP13 DUP13 DUP13 DUP10 PUSH2 0x35C0 JUMP JUMPDEST SWAP3 POP SWAP3 POP SWAP3 POP PUSH1 0x0 PUSH2 0x2247 DUP13 PUSH2 0x1ECA JUMP JUMPDEST SWAP1 POP PUSH1 0x2 DUP2 PUSH1 0x2 DUP2 GT ISZERO PUSH2 0x2257 JUMPI INVALID JUMPDEST EQ ISZERO PUSH2 0x22BF JUMPI PUSH2 0x22BA DUP13 DUP8 PUSH1 0x0 DUP2 MLOAD DUP2 LT PUSH2 0x226E JUMPI INVALID JUMPDEST PUSH1 0x20 MUL PUSH1 0x20 ADD ADD MLOAD DUP7 PUSH1 0x0 DUP2 MLOAD DUP2 LT PUSH2 0x2283 JUMPI INVALID JUMPDEST PUSH1 0x20 MUL PUSH1 0x20 ADD ADD MLOAD DUP10 PUSH1 0x1 DUP2 MLOAD DUP2 LT PUSH2 0x2298 JUMPI INVALID JUMPDEST PUSH1 0x20 MUL PUSH1 0x20 ADD ADD MLOAD DUP9 PUSH1 0x1 DUP2 MLOAD DUP2 LT PUSH2 0x22AD JUMPI INVALID JUMPDEST PUSH1 0x20 MUL PUSH1 0x20 ADD ADD MLOAD PUSH2 0x3785 JUMP JUMPDEST PUSH2 0x22E8 JUMP JUMPDEST PUSH1 0x1 DUP2 PUSH1 0x2 DUP2 GT ISZERO PUSH2 0x22CD JUMPI INVALID JUMPDEST EQ ISZERO PUSH2 0x22DE JUMPI PUSH2 0x22BA DUP13 DUP8 DUP7 PUSH2 0x37C4 JUMP JUMPDEST PUSH2 0x22E8 DUP13 DUP6 PUSH2 0x3831 JUMP JUMPDEST PUSH1 0x0 DUP1 DUP15 PUSH1 0x1 DUP2 GT ISZERO PUSH2 0x22F7 JUMPI INVALID JUMPDEST EQ SWAP1 POP DUP12 PUSH1 0x1 PUSH1 0x1 PUSH1 0xA0 SHL SUB AND DUP14 PUSH32 0xE5CE249087CE04F05A957192435400FD97868DBA0E6A4B4C049ABF8AF80DAE78 DUP10 PUSH2 0x2331 DUP9 DUP7 PUSH2 0x387A JUMP JUMPDEST DUP8 PUSH1 0x40 MLOAD PUSH2 0x2341 SWAP4 SWAP3 SWAP2 SWAP1 PUSH2 0x5C57 JUMP JUMPDEST PUSH1 0x40 MLOAD DUP1 SWAP2 SUB SWAP1 LOG3 POP POP POP POP POP POP POP POP POP PUSH2 0x1CB0 PUSH2 0x17A3 JUMP JUMPDEST PUSH1 0x60 DUP4 MLOAD PUSH1 0x1 PUSH1 0x1 PUSH1 0x40 SHL SUB DUP2 GT DUP1 ISZERO PUSH2 0x2373 JUMPI PUSH1 0x0 DUP1 REVERT JUMPDEST POP PUSH1 0x40 MLOAD SWAP1 DUP1 DUP3 MSTORE DUP1 PUSH1 0x20 MUL PUSH1 0x20 ADD DUP3 ADD PUSH1 0x40 MSTORE DUP1 ISZERO PUSH2 0x239D JUMPI DUP2 PUSH1 0x20 ADD PUSH1 0x20 DUP3 MUL DUP1 CALLDATASIZE DUP4 CALLDATACOPY ADD SWAP1 POP JUMPDEST POP SWAP1 POP PUSH2 0x23A8 PUSH2 0x4D72 JUMP JUMPDEST PUSH2 0x23B0 PUSH2 0x4CCF JUMP JUMPDEST PUSH1 0x0 DUP1 PUSH1 0x0 JUMPDEST DUP10 MLOAD DUP2 LT ISZERO PUSH2 0x25DB JUMPI DUP10 DUP2 DUP2 MLOAD DUP2 LT PUSH2 0x23CB JUMPI INVALID JUMPDEST PUSH1 0x20 MUL PUSH1 0x20 ADD ADD MLOAD SWAP5 POP PUSH1 0x0 DUP10 MLOAD DUP7 PUSH1 0x20 ADD MLOAD LT DUP1 ISZERO PUSH2 0x23EF JUMPI POP DUP10 MLOAD DUP7 PUSH1 0x40 ADD MLOAD LT JUMPDEST SWAP1 POP PUSH2 0x23FC DUP2 PUSH1 0x64 PUSH2 0x52B JUMP JUMPDEST PUSH1 0x0 PUSH2 0x241E DUP12 DUP9 PUSH1 0x20 ADD MLOAD DUP2 MLOAD DUP2 LT PUSH2 0x2411 JUMPI INVALID JUMPDEST PUSH1 0x20 MUL PUSH1 0x20 ADD ADD MLOAD PUSH2 0x1AC0 JUMP JUMPDEST SWAP1 POP PUSH1 0x0 PUSH2 0x2435 DUP13 DUP10 PUSH1 0x40 ADD MLOAD DUP2 MLOAD DUP2 LT PUSH2 0x2411 JUMPI INVALID JUMPDEST SWAP1 POP PUSH2 0x2458 DUP2 PUSH1 0x1 PUSH1 0x1 PUSH1 0xA0 SHL SUB AND DUP4 PUSH1 0x1 PUSH1 0x1 PUSH1 0xA0 SHL SUB AND EQ ISZERO PUSH2 0x1FD PUSH2 0x52B JUMP JUMPDEST PUSH1 0x60 DUP9 ADD MLOAD PUSH2 0x24A8 JUMPI PUSH2 0x2470 PUSH1 0x0 DUP6 GT PUSH2 0x1FE PUSH2 0x52B JUMP JUMPDEST PUSH1 0x0 PUSH2 0x247D DUP12 DUP5 DUP5 PUSH2 0x3921 JUMP JUMPDEST PUSH1 0x1 PUSH1 0x1 PUSH1 0xA0 SHL SUB AND DUP8 PUSH1 0x1 PUSH1 0x1 PUSH1 0xA0 SHL SUB AND EQ SWAP1 POP PUSH2 0x249F DUP2 PUSH2 0x1FF PUSH2 0x52B JUMP JUMPDEST POP PUSH1 0x60 DUP9 ADD DUP6 SWAP1 MSTORE JUMPDEST DUP8 MLOAD PUSH1 0x80 DUP9 ADD MSTORE DUP7 DUP11 PUSH1 0x1 DUP2 GT ISZERO PUSH2 0x24BC JUMPI INVALID JUMPDEST SWAP1 DUP2 PUSH1 0x1 DUP2 GT ISZERO PUSH2 0x24C9 JUMPI INVALID JUMPDEST SWAP1 MSTORE POP PUSH1 0x1 PUSH1 0x1 PUSH1 0xA0 SHL SUB DUP1 DUP4 AND PUSH1 0x20 DUP10 ADD MSTORE DUP2 DUP2 AND PUSH1 0x40 DUP1 DUP11 ADD SWAP2 SWAP1 SWAP2 MSTORE PUSH1 0x60 DUP1 DUP12 ADD MLOAD SWAP1 DUP11 ADD MSTORE PUSH1 0x80 DUP11 ADD MLOAD PUSH2 0x100 DUP11 ADD MSTORE DUP13 MLOAD DUP3 AND PUSH1 0xC0 DUP11 ADD MSTORE DUP13 ADD MLOAD AND PUSH1 0xE0 DUP9 ADD MSTORE PUSH1 0x0 DUP1 PUSH2 0x251B DUP10 PUSH2 0x1AE5 JUMP JUMPDEST SWAP2 SWAP9 POP SWAP3 POP SWAP1 POP PUSH2 0x252D DUP13 DUP6 DUP6 PUSH2 0x3943 JUMP JUMPDEST SWAP8 POP PUSH2 0x2561 PUSH2 0x253B DUP4 PUSH2 0x395D JUMP JUMPDEST DUP13 DUP13 PUSH1 0x20 ADD MLOAD DUP2 MLOAD DUP2 LT PUSH2 0x254B JUMPI INVALID JUMPDEST PUSH1 0x20 MUL PUSH1 0x20 ADD ADD MLOAD PUSH2 0x3971 SWAP1 SWAP2 SWAP1 PUSH4 0xFFFFFFFF AND JUMP JUMPDEST DUP12 DUP12 PUSH1 0x20 ADD MLOAD DUP2 MLOAD DUP2 LT PUSH2 0x2571 JUMPI INVALID JUMPDEST PUSH1 0x20 MUL PUSH1 0x20 ADD ADD DUP2 DUP2 MSTORE POP POP PUSH2 0x25AF PUSH2 0x2589 DUP3 PUSH2 0x395D JUMP JUMPDEST DUP13 DUP13 PUSH1 0x40 ADD MLOAD DUP2 MLOAD DUP2 LT PUSH2 0x2599 JUMPI INVALID JUMPDEST PUSH1 0x20 MUL PUSH1 0x20 ADD ADD MLOAD PUSH2 0x39A5 SWAP1 SWAP2 SWAP1 PUSH4 0xFFFFFFFF AND JUMP JUMPDEST DUP12 DUP12 PUSH1 0x40 ADD MLOAD DUP2 MLOAD DUP2 LT PUSH2 0x25BF JUMPI INVALID JUMPDEST PUSH1 0x20 MUL PUSH1 0x20 ADD ADD DUP2 DUP2 MSTORE POP POP POP POP POP POP POP DUP1 PUSH1 0x1 ADD SWAP1 POP PUSH2 0x23B6 JUMP JUMPDEST POP POP POP POP POP SWAP5 SWAP4 POP POP POP POP JUMP JUMPDEST PUSH1 0x0 DUP2 DUP2 MSTORE PUSH1 0x5 PUSH1 0x20 MSTORE PUSH1 0x40 SWAP1 KECCAK256 SLOAD PUSH2 0x55E SWAP1 PUSH1 0xFF AND PUSH2 0x1F4 PUSH2 0x52B JUMP JUMPDEST PUSH1 0x0 DUP1 PUSH1 0x0 DUP1 PUSH1 0x0 PUSH2 0x2617 DUP8 PUSH2 0x39D9 JUMP JUMPDEST SWAP5 POP SWAP5 POP SWAP5 POP SWAP5 POP POP DUP4 PUSH1 0x1 PUSH1 0x1 PUSH1 0xA0 SHL SUB AND DUP7 PUSH1 0x1 PUSH1 0x1 PUSH1 0xA0 SHL SUB AND EQ ISZERO PUSH2 0x2646 JUMPI DUP3 SWAP5 POP POP POP POP POP PUSH2 0x16A7 JUMP JUMPDEST DUP2 PUSH1 0x1 PUSH1 0x1 PUSH1 0xA0 SHL SUB AND DUP7 PUSH1 0x1 PUSH1 0x1 PUSH1 0xA0 SHL SUB AND EQ ISZERO PUSH2 0x266B JUMPI SWAP4 POP PUSH2 0x16A7 SWAP3 POP POP POP JUMP JUMPDEST PUSH2 0x2676 PUSH2 0x209 PUSH2 0x16AD JUMP JUMPDEST POP POP POP POP SWAP3 SWAP2 POP POP JUMP JUMPDEST PUSH1 0x0 DUP3 DUP2 MSTORE PUSH1 0x7 PUSH1 0x20 SWAP1 DUP2 MSTORE PUSH1 0x40 DUP1 DUP4 KECCAK256 PUSH1 0x1 PUSH1 0x1 PUSH1 0xA0 SHL SUB DUP6 AND DUP5 MSTORE SWAP1 SWAP2 MSTORE DUP2 KECCAK256 SLOAD DUP2 PUSH2 0x26AD DUP3 PUSH2 0x3A4F JUMP JUMPDEST DUP1 PUSH2 0x26CB JUMPI POP PUSH1 0x0 DUP6 DUP2 MSTORE PUSH1 0x8 PUSH1 0x20 MSTORE PUSH1 0x40 SWAP1 KECCAK256 PUSH2 0x26CB SWAP1 DUP6 PUSH2 0x3A61 JUMP JUMPDEST SWAP1 POP DUP1 PUSH2 0x26E6 JUMPI PUSH2 0x26DB DUP6 PUSH2 0x25E8 JUMP JUMPDEST PUSH2 0x26E6 PUSH2 0x209 PUSH2 0x16AD JUMP JUMPDEST POP SWAP4 SWAP3 POP POP POP JUMP JUMPDEST PUSH1 0x0 DUP3 DUP2 MSTORE PUSH1 0x1 PUSH1 0x20 MSTORE PUSH1 0x40 DUP2 KECCAK256 PUSH2 0x9C0 DUP2 DUP5 PUSH2 0x33BF JUMP JUMPDEST PUSH1 0x1 PUSH1 0x1 PUSH1 0x70 SHL SUB AND SWAP1 JUMP JUMPDEST PUSH1 0x70 SHR PUSH1 0x1 PUSH1 0x1 PUSH1 0x70 SHL SUB AND SWAP1 JUMP JUMPDEST PUSH1 0xE0 SHR SWAP1 JUMP JUMPDEST PUSH1 0x0 DUP1 PUSH2 0x2733 DUP5 PUSH2 0x1ECA JUMP JUMPDEST SWAP1 POP PUSH1 0x2 DUP2 PUSH1 0x2 DUP2 GT ISZERO PUSH2 0x2743 JUMPI INVALID JUMPDEST EQ ISZERO PUSH2 0x275B JUMPI PUSH2 0x2753 DUP5 DUP5 PUSH2 0x3A82 JUMP JUMPDEST SWAP2 POP POP PUSH2 0x16A7 JUMP JUMPDEST PUSH1 0x1 DUP2 PUSH1 0x2 DUP2 GT ISZERO PUSH2 0x2769 JUMPI INVALID JUMPDEST EQ ISZERO PUSH2 0x2779 JUMPI PUSH2 0x2753 DUP5 DUP5 PUSH2 0x3AD3 JUMP JUMPDEST PUSH2 0x2753 DUP5 DUP5 PUSH2 0x3AEB JUMP JUMPDEST PUSH1 0x0 DUP1 PUSH1 0x0 PUSH2 0x2791 DUP7 PUSH2 0x1ECA JUMP JUMPDEST SWAP1 POP PUSH1 0x0 DUP8 PUSH1 0x2 DUP2 GT ISZERO PUSH2 0x27A1 JUMPI INVALID JUMPDEST EQ ISZERO PUSH2 0x27BD JUMPI PUSH2 0x27B3 DUP7 DUP3 DUP8 DUP8 PUSH2 0x3B03 JUMP JUMPDEST SWAP3 POP SWAP3 POP POP PUSH2 0x27E9 JUMP JUMPDEST PUSH1 0x1 DUP8 PUSH1 0x2 DUP2 GT ISZERO PUSH2 0x27CB JUMPI INVALID JUMPDEST EQ ISZERO PUSH2 0x27DD JUMPI PUSH2 0x27B3 DUP7 DUP3 DUP8 DUP8 PUSH2 0x3B7E JUMP JUMPDEST PUSH2 0x27B3 DUP7 DUP3 DUP8 DUP8 PUSH2 0x3BFA JUMP JUMPDEST SWAP5 POP SWAP5 SWAP3 POP POP POP JUMP JUMPDEST PUSH1 0x0 PUSH32 0x0 PUSH32 0x0 PUSH32 0x0 PUSH2 0x285F PUSH2 0x3C5D JUMP JUMPDEST ADDRESS PUSH1 0x40 MLOAD PUSH1 0x20 ADD DUP1 DUP7 DUP2 MSTORE PUSH1 0x20 ADD DUP6 DUP2 MSTORE PUSH1 0x20 ADD DUP5 DUP2 MSTORE PUSH1 0x20 ADD DUP4 DUP2 MSTORE PUSH1 0x20 ADD DUP3 PUSH1 0x1 PUSH1 0x1 PUSH1 0xA0 SHL SUB AND DUP2 MSTORE PUSH1 0x20 ADD SWAP6 POP POP POP POP POP POP PUSH1 0x40 MLOAD PUSH1 0x20 DUP2 DUP4 SUB SUB DUP2 MSTORE SWAP1 PUSH1 0x40 MSTORE DUP1 MLOAD SWAP1 PUSH1 0x20 ADD KECCAK256 SWAP1 POP SWAP1 JUMP JUMPDEST PUSH1 0x60 SHR SWAP1 JUMP JUMPDEST PUSH1 0x60 DUP1 PUSH1 0x0 PUSH2 0x28C4 DUP5 PUSH2 0x1ECA JUMP JUMPDEST SWAP1 POP PUSH1 0x2 DUP2 PUSH1 0x2 DUP2 GT ISZERO PUSH2 0x28D4 JUMPI INVALID JUMPDEST EQ ISZERO PUSH2 0x28ED JUMPI PUSH2 0x28E3 DUP5 PUSH2 0x3C61 JUMP JUMPDEST SWAP3 POP SWAP3 POP POP PUSH2 0x2913 JUMP JUMPDEST PUSH1 0x1 DUP2 PUSH1 0x2 DUP2 GT ISZERO PUSH2 0x28FB JUMPI INVALID JUMPDEST EQ ISZERO PUSH2 0x290A JUMPI PUSH2 0x28E3 DUP5 PUSH2 0x3D96 JUMP JUMPDEST PUSH2 0x28E3 DUP5 PUSH2 0x3EBB JUMP JUMPDEST SWAP2 POP SWAP2 JUMP JUMPDEST PUSH1 0x60 PUSH1 0x0 DUP3 MLOAD PUSH1 0x1 PUSH1 0x1 PUSH1 0x40 SHL SUB DUP2 GT DUP1 ISZERO PUSH2 0x2933 JUMPI PUSH1 0x0 DUP1 REVERT JUMPDEST POP PUSH1 0x40 MLOAD SWAP1 DUP1 DUP3 MSTORE DUP1 PUSH1 0x20 MUL PUSH1 0x20 ADD DUP3 ADD PUSH1 0x40 MSTORE DUP1 ISZERO PUSH2 0x295D JUMPI DUP2 PUSH1 0x20 ADD PUSH1 0x20 DUP3 MUL DUP1 CALLDATASIZE DUP4 CALLDATACOPY ADD SWAP1 POP JUMPDEST POP SWAP2 POP PUSH1 0x0 SWAP1 POP PUSH1 0x0 JUMPDEST DUP3 MLOAD DUP2 LT ISZERO PUSH2 0x14E8 JUMPI PUSH1 0x0 DUP5 DUP3 DUP2 MLOAD DUP2 LT PUSH2 0x297E JUMPI INVALID JUMPDEST PUSH1 0x20 MUL PUSH1 0x20 ADD ADD MLOAD SWAP1 POP PUSH2 0x2991 DUP2 PUSH2 0x3FB5 JUMP JUMPDEST DUP5 DUP4 DUP2 MLOAD DUP2 LT PUSH2 0x299D JUMPI INVALID JUMPDEST PUSH1 0x20 MUL PUSH1 0x20 ADD ADD DUP2 DUP2 MSTORE POP POP PUSH2 0x29BB DUP4 PUSH2 0x29B6 DUP4 PUSH2 0x2721 JUMP JUMPDEST PUSH2 0x3FD0 JUMP JUMPDEST SWAP3 POP POP PUSH1 0x1 ADD PUSH2 0x2967 JUMP JUMPDEST PUSH1 0x1 PUSH1 0x1 PUSH1 0xA0 SHL SUB SWAP2 DUP3 AND PUSH1 0x0 SWAP1 DUP2 MSTORE PUSH1 0x4 PUSH1 0x20 SWAP1 DUP2 MSTORE PUSH1 0x40 DUP1 DUP4 KECCAK256 SWAP4 SWAP1 SWAP5 AND DUP3 MSTORE SWAP2 SWAP1 SWAP2 MSTORE KECCAK256 SLOAD PUSH1 0xFF AND SWAP1 JUMP JUMPDEST PUSH1 0x3 SLOAD PUSH1 0x40 MLOAD PUSH4 0x26F8AA21 PUSH1 0xE2 SHL DUP2 MSTORE PUSH1 0x0 SWAP2 PUSH2 0x100 SWAP1 DIV PUSH1 0x1 PUSH1 0x1 PUSH1 0xA0 SHL SUB AND SWAP1 PUSH4 0x9BE2A884 SWAP1 PUSH2 0x2A2E SWAP1 DUP7 SWAP1 DUP7 SWAP1 ADDRESS SWAP1 PUSH1 0x4 ADD PUSH2 0x5D52 JUMP JUMPDEST PUSH1 0x20 PUSH1 0x40 MLOAD DUP1 DUP4 SUB DUP2 DUP7 DUP1 EXTCODESIZE ISZERO DUP1 ISZERO PUSH2 0x2A46 JUMPI PUSH1 0x0 DUP1 REVERT JUMPDEST POP GAS STATICCALL ISZERO DUP1 ISZERO PUSH2 0x2A5A JUMPI RETURNDATASIZE PUSH1 0x0 DUP1 RETURNDATACOPY RETURNDATASIZE PUSH1 0x0 REVERT JUMPDEST POP POP POP POP PUSH1 0x40 MLOAD RETURNDATASIZE PUSH1 0x1F NOT PUSH1 0x1F DUP3 ADD AND DUP3 ADD DUP1 PUSH1 0x40 MSTORE POP DUP2 ADD SWAP1 PUSH2 0x16A4 SWAP2 SWAP1 PUSH2 0x54F9 JUMP JUMPDEST PUSH1 0x0 DUP1 PUSH2 0x2A8B DUP7 DUP7 PUSH2 0x1982 JUMP JUMPDEST SWAP1 POP PUSH2 0x2AA4 DUP4 DUP1 PUSH2 0x2A9C JUMPI POP DUP5 DUP3 LT ISZERO JUMPDEST PUSH2 0x201 PUSH2 0x52B JUMP JUMPDEST PUSH2 0x2AAE DUP2 DUP6 PUSH2 0x3FE7 JUMP JUMPDEST SWAP2 POP DUP2 DUP2 SUB PUSH2 0x2ACA DUP8 DUP8 DUP4 PUSH2 0x2AC2 DUP8 PUSH2 0x395D JUMP JUMPDEST PUSH1 0x0 SUB PUSH2 0x3FF6 JUMP JUMPDEST POP POP SWAP5 SWAP4 POP POP POP POP JUMP JUMPDEST PUSH1 0x0 PUSH2 0x2AE0 DUP5 DUP5 PUSH2 0x1982 JUMP JUMPDEST SWAP1 POP PUSH1 0x0 PUSH2 0x2AEE DUP3 DUP5 PUSH2 0x18C6 JUMP JUMPDEST SWAP1 POP PUSH2 0x1CB0 DUP6 DUP6 DUP4 PUSH2 0x2AFF DUP8 PUSH2 0x395D JUMP JUMPDEST PUSH2 0x3FF6 JUMP JUMPDEST PUSH1 0x40 DUP1 MLOAD PUSH1 0x1 PUSH1 0x1 PUSH1 0xA0 SHL SUB DUP1 DUP7 AND PUSH1 0x24 DUP4 ADD MSTORE DUP5 AND PUSH1 0x44 DUP3 ADD MSTORE PUSH1 0x64 DUP1 DUP3 ADD DUP5 SWAP1 MSTORE DUP3 MLOAD DUP1 DUP4 SUB SWAP1 SWAP2 ADD DUP2 MSTORE PUSH1 0x84 SWAP1 SWAP2 ADD SWAP1 SWAP2 MSTORE PUSH1 0x20 DUP2 ADD DUP1 MLOAD PUSH1 0x1 PUSH1 0x1 PUSH1 0xE0 SHL SUB AND PUSH4 0x23B872DD PUSH1 0xE0 SHL OR SWAP1 MSTORE PUSH2 0xDC4 SWAP1 DUP6 SWAP1 PUSH2 0x2FE3 JUMP JUMPDEST PUSH2 0x2B6D DUP2 SELFBALANCE LT ISZERO PUSH2 0x1A3 PUSH2 0x52B JUMP JUMPDEST PUSH1 0x40 MLOAD PUSH1 0x0 SWAP1 PUSH1 0x1 PUSH1 0x1 PUSH1 0xA0 SHL SUB DUP5 AND SWAP1 DUP4 SWAP1 DUP4 DUP2 DUP2 DUP2 DUP6 DUP8 GAS CALL SWAP3 POP POP POP RETURNDATASIZE DUP1 PUSH1 0x0 DUP2 EQ PUSH2 0x2BB8 JUMPI PUSH1 0x40 MLOAD SWAP2 POP PUSH1 0x1F NOT PUSH1 0x3F RETURNDATASIZE ADD AND DUP3 ADD PUSH1 0x40 MSTORE RETURNDATASIZE DUP3 MSTORE RETURNDATASIZE PUSH1 0x0 PUSH1 0x20 DUP5 ADD RETURNDATACOPY PUSH2 0x2BBD JUMP JUMPDEST PUSH1 0x60 SWAP2 POP JUMPDEST POP POP SWAP1 POP PUSH2 0xF64 DUP2 PUSH2 0x1A4 PUSH2 0x52B JUMP JUMPDEST PUSH1 0x1 PUSH1 0x1 PUSH1 0xA0 SHL SUB DUP3 AND PUSH1 0x0 SWAP1 DUP2 MSTORE PUSH1 0x2 PUSH1 0x20 MSTORE PUSH1 0x40 SWAP1 KECCAK256 DUP1 SLOAD PUSH1 0x1 DUP2 ADD SWAP1 SWAP2 SSTORE PUSH2 0xF64 PUSH2 0x2BFB DUP5 DUP4 PUSH2 0x4051 JUMP JUMPDEST DUP4 PUSH2 0x52B JUMP JUMPDEST PUSH1 0x0 DUP1 PUSH1 0x0 DUP1 PUSH2 0x2C1E DUP7 PUSH1 0x80 ADD MLOAD DUP8 PUSH1 0x20 ADD MLOAD DUP9 PUSH1 0x40 ADD MLOAD PUSH2 0x31DD JUMP JUMPDEST SWAP3 POP SWAP3 POP SWAP3 POP PUSH1 0x0 DUP1 DUP8 PUSH1 0x40 ADD MLOAD PUSH1 0x1 PUSH1 0x1 PUSH1 0xA0 SHL SUB AND DUP9 PUSH1 0x20 ADD MLOAD PUSH1 0x1 PUSH1 0x1 PUSH1 0xA0 SHL SUB AND LT ISZERO PUSH2 0x2C53 JUMPI POP DUP4 SWAP1 POP DUP3 PUSH2 0x2C59 JUMP JUMPDEST POP DUP3 SWAP1 POP DUP4 JUMPDEST PUSH2 0x2C65 DUP9 DUP9 DUP5 DUP5 PUSH2 0x419F JUMP JUMPDEST PUSH1 0x40 DUP12 ADD MLOAD PUSH1 0x20 DUP13 ADD MLOAD SWAP2 SWAP10 POP SWAP3 SWAP5 POP SWAP1 SWAP3 POP PUSH1 0x1 PUSH1 0x1 PUSH1 0xA0 SHL SUB SWAP2 DUP3 AND SWAP2 AND LT PUSH2 0x2C99 JUMPI PUSH2 0x2C94 DUP2 DUP4 PUSH2 0x429C JUMP JUMPDEST PUSH2 0x2CA3 JUMP JUMPDEST PUSH2 0x2CA3 DUP3 DUP3 PUSH2 0x429C JUMP JUMPDEST SWAP1 SWAP3 SSTORE POP SWAP3 SWAP6 SWAP5 POP POP POP POP POP JUMP JUMPDEST PUSH1 0x0 DUP1 PUSH2 0x2CC6 DUP5 PUSH1 0x80 ADD MLOAD DUP6 PUSH1 0x20 ADD MLOAD PUSH2 0x2680 JUMP JUMPDEST SWAP1 POP PUSH1 0x0 PUSH2 0x2CDC DUP6 PUSH1 0x80 ADD MLOAD DUP7 PUSH1 0x40 ADD MLOAD PUSH2 0x2680 JUMP JUMPDEST SWAP1 POP PUSH2 0x2CEA DUP6 DUP6 DUP5 DUP5 PUSH2 0x419F JUMP JUMPDEST PUSH1 0x80 DUP9 ADD DUP1 MLOAD PUSH1 0x0 SWAP1 DUP2 MSTORE PUSH1 0x7 PUSH1 0x20 DUP2 DUP2 MSTORE PUSH1 0x40 DUP1 DUP5 KECCAK256 DUP3 DUP15 ADD MLOAD PUSH1 0x1 PUSH1 0x1 PUSH1 0xA0 SHL SUB SWAP1 DUP2 AND DUP7 MSTORE SWAP1 DUP4 MSTORE DUP2 DUP6 KECCAK256 SWAP9 SWAP1 SWAP9 SSTORE SWAP4 MLOAD DUP4 MSTORE SWAP1 DUP2 MSTORE DUP3 DUP3 KECCAK256 SWAP11 DUP4 ADD MLOAD SWAP1 SWAP6 AND DUP2 MSTORE SWAP9 SWAP1 SWAP4 MSTORE SWAP2 SWAP1 SWAP7 KECCAK256 SWAP6 SWAP1 SWAP6 SSTORE POP SWAP3 SWAP4 SWAP3 POP POP POP JUMP JUMPDEST PUSH1 0x80 DUP3 ADD MLOAD PUSH1 0x0 SWAP1 DUP2 MSTORE PUSH1 0x1 PUSH1 0x20 SWAP1 DUP2 MSTORE PUSH1 0x40 DUP3 KECCAK256 SWAP1 DUP5 ADD MLOAD DUP3 SWAP2 DUP3 SWAP2 DUP3 SWAP1 PUSH2 0x2D6E SWAP1 DUP4 SWAP1 PUSH2 0x42D7 JUMP JUMPDEST SWAP1 POP PUSH1 0x0 PUSH2 0x2D89 DUP9 PUSH1 0x40 ADD MLOAD DUP5 PUSH2 0x42D7 SWAP1 SWAP2 SWAP1 PUSH4 0xFFFFFFFF AND JUMP JUMPDEST SWAP1 POP DUP2 ISZERO DUP1 PUSH2 0x2D96 JUMPI POP DUP1 ISZERO JUMPDEST ISZERO PUSH2 0x2DB3 JUMPI PUSH2 0x2DA8 DUP9 PUSH1 0x80 ADD MLOAD PUSH2 0x25E8 JUMP JUMPDEST PUSH2 0x2DB3 PUSH2 0x209 PUSH2 0x16AD JUMP JUMPDEST PUSH1 0x0 NOT SWAP2 DUP3 ADD SWAP2 ADD PUSH1 0x0 PUSH2 0x2DC6 DUP5 PUSH2 0x42F6 JUMP JUMPDEST SWAP1 POP PUSH1 0x0 DUP2 PUSH1 0x1 PUSH1 0x1 PUSH1 0x40 SHL SUB DUP2 GT DUP1 ISZERO PUSH2 0x2DE0 JUMPI PUSH1 0x0 DUP1 REVERT JUMPDEST POP PUSH1 0x40 MLOAD SWAP1 DUP1 DUP3 MSTORE DUP1 PUSH1 0x20 MUL PUSH1 0x20 ADD DUP3 ADD PUSH1 0x40 MSTORE DUP1 ISZERO PUSH2 0x2E0A JUMPI DUP2 PUSH1 0x20 ADD PUSH1 0x20 DUP3 MUL DUP1 CALLDATASIZE DUP4 CALLDATACOPY ADD SWAP1 POP JUMPDEST POP PUSH1 0x0 PUSH1 0xA0 DUP13 ADD DUP2 SWAP1 MSTORE SWAP1 SWAP2 POP JUMPDEST DUP3 DUP2 LT ISZERO PUSH2 0x2E8A JUMPI PUSH1 0x0 PUSH2 0x2E2C DUP8 DUP4 PUSH2 0x42FA JUMP JUMPDEST SWAP1 POP PUSH2 0x2E37 DUP2 PUSH2 0x3FB5 JUMP JUMPDEST DUP4 DUP4 DUP2 MLOAD DUP2 LT PUSH2 0x2E43 JUMPI INVALID JUMPDEST PUSH1 0x20 MUL PUSH1 0x20 ADD ADD DUP2 DUP2 MSTORE POP POP PUSH2 0x2E60 DUP13 PUSH1 0xA0 ADD MLOAD PUSH2 0x29B6 DUP4 PUSH2 0x2721 JUMP JUMPDEST PUSH1 0xA0 DUP14 ADD MSTORE DUP2 DUP7 EQ ISZERO PUSH2 0x2E75 JUMPI DUP1 SWAP9 POP PUSH2 0x2E81 JUMP JUMPDEST DUP5 DUP3 EQ ISZERO PUSH2 0x2E81 JUMPI DUP1 SWAP8 POP JUMPDEST POP PUSH1 0x1 ADD PUSH2 0x2E18 JUMP JUMPDEST POP PUSH1 0x40 MLOAD PUSH3 0xF64AA5 PUSH1 0xE1 SHL DUP2 MSTORE PUSH1 0x1 PUSH1 0x1 PUSH1 0xA0 SHL SUB DUP11 AND SWAP1 PUSH4 0x1EC954A SWAP1 PUSH2 0x2EBC SWAP1 DUP14 SWAP1 DUP6 SWAP1 DUP10 SWAP1 DUP10 SWAP1 PUSH1 0x4 ADD PUSH2 0x5DEB JUMP JUMPDEST PUSH1 0x20 PUSH1 0x40 MLOAD DUP1 DUP4 SUB DUP2 PUSH1 0x0 DUP8 DUP1 EXTCODESIZE ISZERO DUP1 ISZERO PUSH2 0x2ED6 JUMPI PUSH1 0x0 DUP1 REVERT JUMPDEST POP GAS CALL ISZERO DUP1 ISZERO PUSH2 0x2EEA JUMPI RETURNDATASIZE PUSH1 0x0 DUP1 RETURNDATACOPY RETURNDATASIZE PUSH1 0x0 REVERT JUMPDEST POP POP POP POP PUSH1 0x40 MLOAD RETURNDATASIZE PUSH1 0x1F NOT PUSH1 0x1F DUP3 ADD AND DUP3 ADD DUP1 PUSH1 0x40 MSTORE POP DUP2 ADD SWAP1 PUSH2 0x2F0E SWAP2 SWAP1 PUSH2 0x59EA JUMP JUMPDEST SWAP8 POP PUSH1 0x0 DUP1 PUSH2 0x2F26 DUP13 PUSH1 0x0 ADD MLOAD DUP14 PUSH1 0x60 ADD MLOAD DUP13 PUSH2 0x2F68 JUMP JUMPDEST SWAP1 SWAP3 POP SWAP1 POP PUSH2 0x2F35 DUP10 DUP4 PUSH2 0x4310 JUMP JUMPDEST SWAP9 POP PUSH2 0x2F41 DUP9 DUP3 PUSH2 0x4341 JUMP JUMPDEST SWAP8 POP PUSH2 0x2F4E DUP8 DUP8 DUP12 PUSH2 0x4357 JUMP JUMPDEST PUSH2 0x2F59 DUP8 DUP7 DUP11 PUSH2 0x4357 JUMP JUMPDEST POP POP POP POP POP POP POP POP POP SWAP3 SWAP2 POP POP JUMP JUMPDEST PUSH1 0x0 DUP1 DUP1 DUP6 PUSH1 0x1 DUP2 GT ISZERO PUSH2 0x2F78 JUMPI INVALID JUMPDEST EQ ISZERO PUSH2 0x2F88 JUMPI POP DUP3 SWAP1 POP DUP2 PUSH2 0x2F8E JUMP JUMPDEST POP DUP2 SWAP1 POP DUP3 JUMPDEST SWAP4 POP SWAP4 SWAP2 POP POP JUMP JUMPDEST PUSH1 0x0 DUP3 DUP3 MUL PUSH2 0x2FBA DUP5 ISZERO DUP1 PUSH2 0x2FB3 JUMPI POP DUP4 DUP6 DUP4 DUP2 PUSH2 0x2FB0 JUMPI INVALID JUMPDEST DIV EQ JUMPDEST PUSH1 0x3 PUSH2 0x52B JUMP JUMPDEST DUP1 PUSH2 0x2FC9 JUMPI PUSH1 0x0 SWAP2 POP POP PUSH2 0x16A7 JUMP JUMPDEST PUSH8 0xDE0B6B3A7640000 PUSH1 0x0 NOT DUP3 ADD DIV PUSH1 0x1 ADD SWAP2 POP POP PUSH2 0x16A7 JUMP JUMPDEST PUSH1 0x0 DUP1 DUP4 PUSH1 0x1 PUSH1 0x1 PUSH1 0xA0 SHL SUB AND DUP4 PUSH1 0x40 MLOAD DUP1 DUP3 DUP1 MLOAD SWAP1 PUSH1 0x20 ADD SWAP1 DUP1 DUP4 DUP4 JUMPDEST PUSH1 0x20 DUP4 LT PUSH2 0x3020 JUMPI DUP1 MLOAD DUP3 MSTORE PUSH1 0x1F NOT SWAP1 SWAP3 ADD SWAP2 PUSH1 0x20 SWAP2 DUP3 ADD SWAP2 ADD PUSH2 0x3001 JUMP JUMPDEST PUSH1 0x1 DUP4 PUSH1 0x20 SUB PUSH2 0x100 EXP SUB DUP1 NOT DUP3 MLOAD AND DUP2 DUP5 MLOAD AND DUP1 DUP3 OR DUP6 MSTORE POP POP POP POP POP POP SWAP1 POP ADD SWAP2 POP POP PUSH1 0x0 PUSH1 0x40 MLOAD DUP1 DUP4 SUB DUP2 PUSH1 0x0 DUP7 GAS CALL SWAP2 POP POP RETURNDATASIZE DUP1 PUSH1 0x0 DUP2 EQ PUSH2 0x3082 JUMPI PUSH1 0x40 MLOAD SWAP2 POP PUSH1 0x1F NOT PUSH1 0x3F RETURNDATASIZE ADD AND DUP3 ADD PUSH1 0x40 MSTORE RETURNDATASIZE DUP3 MSTORE RETURNDATASIZE PUSH1 0x0 PUSH1 0x20 DUP5 ADD RETURNDATACOPY PUSH2 0x3087 JUMP JUMPDEST PUSH1 0x60 SWAP2 POP JUMPDEST POP SWAP2 POP SWAP2 POP PUSH1 0x0 DUP3 EQ ISZERO PUSH2 0x309F JUMPI RETURNDATASIZE PUSH1 0x0 DUP1 RETURNDATACOPY RETURNDATASIZE PUSH1 0x0 REVERT JUMPDEST PUSH2 0xDC4 DUP2 MLOAD PUSH1 0x0 EQ DUP1 PUSH2 0x30C5 JUMPI POP DUP2 DUP1 PUSH1 0x20 ADD SWAP1 MLOAD PUSH1 0x20 DUP2 LT ISZERO PUSH2 0x30C2 JUMPI PUSH1 0x0 DUP1 REVERT JUMPDEST POP MLOAD JUMPDEST PUSH2 0x1A2 PUSH2 0x52B JUMP JUMPDEST PUSH1 0x0 PUSH2 0x30D9 DUP4 DUP4 PUSH2 0x3A61 JUMP JUMPDEST PUSH2 0x3128 JUMPI POP DUP2 SLOAD PUSH1 0x1 DUP1 DUP3 ADD DUP5 SSTORE PUSH1 0x0 DUP5 DUP2 MSTORE PUSH1 0x20 DUP1 DUP3 KECCAK256 SWAP1 SWAP4 ADD DUP1 SLOAD PUSH1 0x1 PUSH1 0x1 PUSH1 0xA0 SHL SUB NOT AND PUSH1 0x1 PUSH1 0x1 PUSH1 0xA0 SHL SUB DUP7 AND SWAP1 DUP2 OR SWAP1 SWAP2 SSTORE DUP6 SLOAD SWAP1 DUP3 MSTORE DUP3 DUP7 ADD SWAP1 SWAP4 MSTORE PUSH1 0x40 SWAP1 KECCAK256 SWAP2 SWAP1 SWAP2 SSTORE PUSH2 0x16A7 JUMP JUMPDEST POP PUSH1 0x0 PUSH2 0x16A7 JUMP JUMPDEST PUSH1 0x1 PUSH1 0x1 PUSH1 0xA0 SHL SUB DUP3 AND PUSH1 0x0 SWAP1 DUP2 MSTORE PUSH1 0x2 DUP5 ADD PUSH1 0x20 MSTORE PUSH1 0x40 DUP2 KECCAK256 SLOAD DUP1 PUSH2 0x31BD JUMPI POP POP DUP3 SLOAD PUSH1 0x40 DUP1 MLOAD DUP1 DUP3 ADD DUP3 MSTORE PUSH1 0x1 PUSH1 0x1 PUSH1 0xA0 SHL SUB DUP6 DUP2 AND DUP1 DUP4 MSTORE PUSH1 0x20 DUP1 DUP5 ADD DUP8 DUP2 MSTORE PUSH1 0x0 DUP8 DUP2 MSTORE PUSH1 0x1 DUP1 DUP13 ADD DUP5 MSTORE DUP8 DUP3 KECCAK256 SWAP7 MLOAD DUP8 SLOAD PUSH1 0x1 PUSH1 0x1 PUSH1 0xA0 SHL SUB NOT AND SWAP7 AND SWAP6 SWAP1 SWAP6 OR DUP7 SSTORE SWAP1 MLOAD SWAP5 DUP5 ADD SWAP5 SWAP1 SWAP5 SSTORE SWAP5 DUP3 ADD DUP1 DUP10 SSTORE SWAP1 DUP4 MSTORE PUSH1 0x2 DUP9 ADD SWAP1 SWAP5 MSTORE SWAP2 SWAP1 KECCAK256 SWAP2 SWAP1 SWAP2 SSTORE PUSH2 0x17F7 JUMP JUMPDEST PUSH1 0x0 NOT ADD PUSH1 0x0 SWAP1 DUP2 MSTORE PUSH1 0x1 DUP1 DUP7 ADD PUSH1 0x20 MSTORE PUSH1 0x40 DUP3 KECCAK256 ADD DUP4 SWAP1 SSTORE SWAP1 POP PUSH2 0x17F7 JUMP JUMPDEST PUSH1 0x0 DUP1 PUSH1 0x0 DUP1 PUSH1 0x0 PUSH2 0x31EF DUP8 DUP8 PUSH2 0x436F JUMP JUMPDEST SWAP2 POP SWAP2 POP PUSH1 0x0 PUSH2 0x31FF DUP4 DUP4 PUSH2 0x43A0 JUMP JUMPDEST PUSH1 0x0 DUP11 DUP2 MSTORE PUSH1 0x9 PUSH1 0x20 SWAP1 DUP2 MSTORE PUSH1 0x40 DUP1 DUP4 KECCAK256 DUP5 DUP5 MSTORE PUSH1 0x2 ADD SWAP1 SWAP2 MSTORE DUP2 KECCAK256 DUP1 SLOAD PUSH1 0x1 DUP3 ADD SLOAD SWAP2 SWAP8 POP SWAP3 SWAP4 POP SWAP1 PUSH2 0x3232 DUP4 PUSH2 0x3A4F JUMP JUMPDEST DUP1 PUSH2 0x3241 JUMPI POP PUSH2 0x3241 DUP3 PUSH2 0x3A4F JUMP JUMPDEST DUP1 PUSH2 0x3262 JUMPI POP PUSH2 0x3251 DUP13 DUP8 PUSH2 0x3A82 JUMP JUMPDEST DUP1 ISZERO PUSH2 0x3262 JUMPI POP PUSH2 0x3262 DUP13 DUP7 PUSH2 0x3A82 JUMP JUMPDEST SWAP1 POP DUP1 PUSH2 0x327D JUMPI PUSH2 0x3272 DUP13 PUSH2 0x25E8 JUMP JUMPDEST PUSH2 0x327D PUSH2 0x209 PUSH2 0x16AD JUMP JUMPDEST PUSH2 0x3287 DUP4 DUP4 PUSH2 0x43D3 JUMP JUMPDEST SWAP9 POP PUSH2 0x3293 DUP4 DUP4 PUSH2 0x43F8 JUMP JUMPDEST SWAP8 POP POP POP POP POP POP POP SWAP4 POP SWAP4 POP SWAP4 SWAP1 POP JUMP JUMPDEST PUSH1 0x1 PUSH1 0x1 PUSH1 0xE0 SHL SUB AND ISZERO SWAP1 JUMP JUMPDEST PUSH1 0x1 PUSH1 0x1 PUSH1 0xA0 SHL SUB DUP2 AND PUSH1 0x0 SWAP1 DUP2 MSTORE PUSH1 0x1 DUP4 ADD PUSH1 0x20 MSTORE PUSH1 0x40 DUP2 KECCAK256 SLOAD DUP1 ISZERO PUSH2 0x33B5 JUMPI DUP4 SLOAD PUSH1 0x0 NOT DUP1 DUP4 ADD SWAP2 ADD DUP1 DUP3 EQ PUSH2 0x335D JUMPI PUSH1 0x0 DUP7 PUSH1 0x0 ADD DUP3 DUP2 SLOAD DUP2 LT PUSH2 0x32F4 JUMPI INVALID JUMPDEST PUSH1 0x0 SWAP2 DUP3 MSTORE PUSH1 0x20 SWAP1 SWAP2 KECCAK256 ADD SLOAD DUP8 SLOAD PUSH1 0x1 PUSH1 0x1 PUSH1 0xA0 SHL SUB SWAP1 SWAP2 AND SWAP2 POP DUP2 SWAP1 DUP9 SWAP1 DUP6 SWAP1 DUP2 LT PUSH2 0x331D JUMPI INVALID JUMPDEST PUSH1 0x0 SWAP2 DUP3 MSTORE PUSH1 0x20 DUP1 DUP4 KECCAK256 SWAP2 SWAP1 SWAP2 ADD DUP1 SLOAD PUSH1 0x1 PUSH1 0x1 PUSH1 0xA0 SHL SUB NOT AND PUSH1 0x1 PUSH1 0x1 PUSH1 0xA0 SHL SUB SWAP5 DUP6 AND OR SWAP1 SSTORE SWAP3 SWAP1 SWAP2 AND DUP2 MSTORE PUSH1 0x1 DUP9 DUP2 ADD SWAP1 SWAP3 MSTORE PUSH1 0x40 SWAP1 KECCAK256 SWAP1 DUP4 ADD SWAP1 SSTORE JUMPDEST DUP6 SLOAD DUP7 SWAP1 DUP1 PUSH2 0x3368 JUMPI INVALID JUMPDEST PUSH1 0x0 DUP3 DUP2 MSTORE PUSH1 0x20 DUP1 DUP3 KECCAK256 DUP4 ADD PUSH1 0x0 NOT SWAP1 DUP2 ADD DUP1 SLOAD PUSH1 0x1 PUSH1 0x1 PUSH1 0xA0 SHL SUB NOT AND SWAP1 SSTORE SWAP1 SWAP3 ADD SWAP1 SWAP3 SSTORE PUSH1 0x1 PUSH1 0x1 PUSH1 0xA0 SHL SUB DUP8 AND DUP3 MSTORE PUSH1 0x1 DUP9 DUP2 ADD SWAP1 SWAP2 MSTORE PUSH1 0x40 DUP3 KECCAK256 SWAP2 SWAP1 SWAP2 SSTORE SWAP4 POP PUSH2 0x16A7 SWAP3 POP POP POP JUMP JUMPDEST PUSH1 0x0 SWAP2 POP POP PUSH2 0x16A7 JUMP JUMPDEST PUSH1 0x0 PUSH2 0x16A4 DUP4 DUP4 PUSH2 0x209 PUSH2 0x440F JUMP JUMPDEST PUSH1 0x1 PUSH1 0x1 PUSH1 0xA0 SHL SUB DUP2 AND PUSH1 0x0 SWAP1 DUP2 MSTORE PUSH1 0x2 DUP4 ADD PUSH1 0x20 MSTORE PUSH1 0x40 DUP2 KECCAK256 SLOAD DUP1 ISZERO PUSH2 0x33B5 JUMPI DUP4 SLOAD PUSH1 0x0 NOT DUP1 DUP4 ADD SWAP2 ADD DUP1 DUP3 EQ PUSH2 0x3456 JUMPI PUSH1 0x0 DUP2 DUP2 MSTORE PUSH1 0x1 DUP1 DUP9 ADD PUSH1 0x20 SWAP1 DUP2 MSTORE PUSH1 0x40 DUP1 DUP5 KECCAK256 DUP7 DUP6 MSTORE DUP2 DUP6 KECCAK256 DUP2 SLOAD DUP2 SLOAD PUSH1 0x1 PUSH1 0x1 PUSH1 0xA0 SHL SUB NOT AND PUSH1 0x1 PUSH1 0x1 PUSH1 0xA0 SHL SUB SWAP2 DUP3 AND OR DUP3 SSTORE DUP3 DUP7 ADD SLOAD SWAP2 DUP7 ADD SWAP2 SWAP1 SWAP2 SSTORE SWAP1 SLOAD AND DUP5 MSTORE PUSH1 0x2 DUP11 ADD SWAP1 SWAP2 MSTORE SWAP1 SWAP2 KECCAK256 SWAP1 DUP4 ADD SWAP1 SSTORE JUMPDEST PUSH1 0x0 DUP2 DUP2 MSTORE PUSH1 0x1 DUP1 DUP9 ADD PUSH1 0x20 SWAP1 DUP2 MSTORE PUSH1 0x40 DUP1 DUP5 KECCAK256 DUP1 SLOAD PUSH1 0x1 PUSH1 0x1 PUSH1 0xA0 SHL SUB NOT AND DUP2 SSTORE DUP4 ADD DUP5 SWAP1 SSTORE SWAP4 DUP10 SSTORE PUSH1 0x1 PUSH1 0x1 PUSH1 0xA0 SHL SUB DUP9 AND DUP4 MSTORE PUSH1 0x2 DUP10 ADD SWAP1 MSTORE SWAP2 DUP2 KECCAK256 SSTORE SWAP3 POP PUSH2 0x16A7 SWAP2 POP POP JUMP JUMPDEST PUSH1 0x60 PUSH1 0x0 DUP3 MLOAD PUSH1 0x1 PUSH1 0x1 PUSH1 0x40 SHL SUB DUP2 GT DUP1 ISZERO PUSH2 0x34BB JUMPI PUSH1 0x0 DUP1 REVERT JUMPDEST POP PUSH1 0x40 MLOAD SWAP1 DUP1 DUP3 MSTORE DUP1 PUSH1 0x20 MUL PUSH1 0x20 ADD DUP3 ADD PUSH1 0x40 MSTORE DUP1 ISZERO PUSH2 0x34E5 JUMPI DUP2 PUSH1 0x20 ADD PUSH1 0x20 DUP3 MUL DUP1 CALLDATASIZE DUP4 CALLDATACOPY ADD SWAP1 POP JUMPDEST POP SWAP1 POP PUSH1 0x0 JUMPDEST DUP4 MLOAD DUP2 LT ISZERO PUSH2 0x7DE JUMPI PUSH2 0x3503 DUP5 DUP3 DUP2 MLOAD DUP2 LT PUSH2 0x2411 JUMPI INVALID JUMPDEST DUP3 DUP3 DUP2 MLOAD DUP2 LT PUSH2 0x350F JUMPI INVALID JUMPDEST PUSH1 0x1 PUSH1 0x1 PUSH1 0xA0 SHL SUB SWAP1 SWAP3 AND PUSH1 0x20 SWAP3 DUP4 MUL SWAP2 SWAP1 SWAP2 ADD SWAP1 SWAP2 ADD MSTORE PUSH1 0x1 ADD PUSH2 0x34EB JUMP JUMPDEST PUSH1 0x60 PUSH1 0x0 DUP1 PUSH2 0x353D DUP6 PUSH2 0x28B6 JUMP JUMPDEST SWAP2 POP SWAP2 POP PUSH2 0x354D DUP3 MLOAD DUP6 MLOAD PUSH2 0x1D91 JUMP JUMPDEST PUSH2 0x355D PUSH1 0x0 DUP4 MLOAD GT PUSH2 0x20F PUSH2 0x52B JUMP JUMPDEST PUSH1 0x0 JUMPDEST DUP3 MLOAD DUP2 LT ISZERO PUSH2 0x35B7 JUMPI PUSH2 0x35AF DUP6 DUP3 DUP2 MLOAD DUP2 LT PUSH2 0x3578 JUMPI INVALID JUMPDEST PUSH1 0x20 MUL PUSH1 0x20 ADD ADD MLOAD PUSH1 0x1 PUSH1 0x1 PUSH1 0xA0 SHL SUB AND DUP5 DUP4 DUP2 MLOAD DUP2 LT PUSH2 0x3595 JUMPI INVALID JUMPDEST PUSH1 0x20 MUL PUSH1 0x20 ADD ADD MLOAD PUSH1 0x1 PUSH1 0x1 PUSH1 0xA0 SHL SUB AND EQ PUSH2 0x208 PUSH2 0x52B JUMP JUMPDEST PUSH1 0x1 ADD PUSH2 0x3560 JUMP JUMPDEST POP SWAP5 SWAP4 POP POP POP POP JUMP JUMPDEST PUSH1 0x60 DUP1 PUSH1 0x60 PUSH1 0x0 DUP1 PUSH2 0x35D1 DUP7 PUSH2 0x2918 JUMP JUMPDEST SWAP2 POP SWAP2 POP PUSH1 0x0 PUSH2 0x35E0 DUP12 PUSH2 0x28B0 JUMP JUMPDEST SWAP1 POP PUSH1 0x0 DUP13 PUSH1 0x1 DUP2 GT ISZERO PUSH2 0x35F0 JUMPI INVALID JUMPDEST EQ PUSH2 0x3693 JUMPI DUP1 PUSH1 0x1 PUSH1 0x1 PUSH1 0xA0 SHL SUB AND PUSH4 0x74F3B009 DUP13 DUP13 DUP13 DUP8 DUP8 PUSH2 0x3611 PUSH2 0x444C JUMP JUMPDEST DUP16 PUSH1 0x40 ADD MLOAD PUSH1 0x40 MLOAD DUP9 PUSH4 0xFFFFFFFF AND PUSH1 0xE0 SHL DUP2 MSTORE PUSH1 0x4 ADD PUSH2 0x3638 SWAP8 SWAP7 SWAP6 SWAP5 SWAP4 SWAP3 SWAP2 SWAP1 PUSH2 0x5D71 JUMP JUMPDEST PUSH1 0x0 PUSH1 0x40 MLOAD DUP1 DUP4 SUB DUP2 PUSH1 0x0 DUP8 DUP1 EXTCODESIZE ISZERO DUP1 ISZERO PUSH2 0x3652 JUMPI PUSH1 0x0 DUP1 REVERT JUMPDEST POP GAS CALL ISZERO DUP1 ISZERO PUSH2 0x3666 JUMPI RETURNDATASIZE PUSH1 0x0 DUP1 RETURNDATACOPY RETURNDATASIZE PUSH1 0x0 REVERT JUMPDEST POP POP POP POP PUSH1 0x40 MLOAD RETURNDATASIZE PUSH1 0x0 DUP3 RETURNDATACOPY PUSH1 0x1F RETURNDATASIZE SWAP1 DUP2 ADD PUSH1 0x1F NOT AND DUP3 ADD PUSH1 0x40 MSTORE PUSH2 0x368E SWAP2 SWAP1 DUP2 ADD SWAP1 PUSH2 0x5487 JUMP JUMPDEST PUSH2 0x372C JUMP JUMPDEST DUP1 PUSH1 0x1 PUSH1 0x1 PUSH1 0xA0 SHL SUB AND PUSH4 0xD5C096C4 DUP13 DUP13 DUP13 DUP8 DUP8 PUSH2 0x36AF PUSH2 0x444C JUMP JUMPDEST DUP16 PUSH1 0x40 ADD MLOAD PUSH1 0x40 MLOAD DUP9 PUSH4 0xFFFFFFFF AND PUSH1 0xE0 SHL DUP2 MSTORE PUSH1 0x4 ADD PUSH2 0x36D6 SWAP8 SWAP7 SWAP6 SWAP5 SWAP4 SWAP3 SWAP2 SWAP1 PUSH2 0x5D71 JUMP JUMPDEST PUSH1 0x0 PUSH1 0x40 MLOAD DUP1 DUP4 SUB DUP2 PUSH1 0x0 DUP8 DUP1 EXTCODESIZE ISZERO DUP1 ISZERO PUSH2 0x36F0 JUMPI PUSH1 0x0 DUP1 REVERT JUMPDEST POP GAS CALL ISZERO DUP1 ISZERO PUSH2 0x3704 JUMPI RETURNDATASIZE PUSH1 0x0 DUP1 RETURNDATACOPY RETURNDATASIZE PUSH1 0x0 REVERT JUMPDEST POP POP POP POP PUSH1 0x40 MLOAD RETURNDATASIZE PUSH1 0x0 DUP3 RETURNDATACOPY PUSH1 0x1F RETURNDATASIZE SWAP1 DUP2 ADD PUSH1 0x1F NOT AND DUP3 ADD PUSH1 0x40 MSTORE PUSH2 0x372C SWAP2 SWAP1 DUP2 ADD SWAP1 PUSH2 0x5487 JUMP JUMPDEST DUP1 SWAP6 POP DUP2 SWAP7 POP POP POP PUSH2 0x3742 DUP8 MLOAD DUP7 MLOAD DUP7 MLOAD PUSH2 0x44C6 JUMP JUMPDEST PUSH1 0x0 DUP13 PUSH1 0x1 DUP2 GT ISZERO PUSH2 0x3750 JUMPI INVALID JUMPDEST EQ PUSH2 0x3767 JUMPI PUSH2 0x3762 DUP10 DUP10 DUP10 DUP9 DUP9 PUSH2 0x44DE JUMP JUMPDEST PUSH2 0x3774 JUMP JUMPDEST PUSH2 0x3774 DUP11 DUP10 DUP10 DUP9 DUP9 PUSH2 0x4624 JUMP JUMPDEST SWAP6 POP POP POP POP SWAP7 POP SWAP7 POP SWAP7 SWAP4 POP POP POP POP JUMP JUMPDEST PUSH1 0x0 PUSH2 0x3791 DUP6 DUP5 PUSH2 0x43A0 JUMP JUMPDEST PUSH1 0x0 DUP8 DUP2 MSTORE PUSH1 0x9 PUSH1 0x20 SWAP1 DUP2 MSTORE PUSH1 0x40 DUP1 DUP4 KECCAK256 DUP5 DUP5 MSTORE PUSH1 0x2 ADD SWAP1 SWAP2 MSTORE SWAP1 KECCAK256 SWAP1 SWAP2 POP PUSH2 0x37BA DUP6 DUP5 PUSH2 0x429C JUMP JUMPDEST SWAP1 SSTORE POP POP POP POP POP POP JUMP JUMPDEST PUSH1 0x0 JUMPDEST DUP3 MLOAD DUP2 LT ISZERO PUSH2 0xDC4 JUMPI DUP2 DUP2 DUP2 MLOAD DUP2 LT PUSH2 0x37DC JUMPI INVALID JUMPDEST PUSH1 0x20 MUL PUSH1 0x20 ADD ADD MLOAD PUSH1 0x7 PUSH1 0x0 DUP7 DUP2 MSTORE PUSH1 0x20 ADD SWAP1 DUP2 MSTORE PUSH1 0x20 ADD PUSH1 0x0 KECCAK256 PUSH1 0x0 DUP6 DUP5 DUP2 MLOAD DUP2 LT PUSH2 0x3805 JUMPI INVALID JUMPDEST PUSH1 0x20 SWAP1 DUP2 MUL SWAP2 SWAP1 SWAP2 ADD DUP2 ADD MLOAD PUSH1 0x1 PUSH1 0x1 PUSH1 0xA0 SHL SUB AND DUP3 MSTORE DUP2 ADD SWAP2 SWAP1 SWAP2 MSTORE PUSH1 0x40 ADD PUSH1 0x0 KECCAK256 SSTORE PUSH1 0x1 ADD PUSH2 0x37C7 JUMP JUMPDEST PUSH1 0x0 DUP3 DUP2 MSTORE PUSH1 0x1 PUSH1 0x20 MSTORE PUSH1 0x40 DUP2 KECCAK256 SWAP1 JUMPDEST DUP3 MLOAD DUP2 LT ISZERO PUSH2 0xDC4 JUMPI PUSH2 0x3872 DUP2 DUP5 DUP4 DUP2 MLOAD DUP2 LT PUSH2 0x385A JUMPI INVALID JUMPDEST PUSH1 0x20 MUL PUSH1 0x20 ADD ADD MLOAD DUP5 PUSH2 0x4357 SWAP1 SWAP3 SWAP2 SWAP1 PUSH4 0xFFFFFFFF AND JUMP JUMPDEST PUSH1 0x1 ADD PUSH2 0x3841 JUMP JUMPDEST PUSH1 0x60 DUP3 MLOAD PUSH1 0x1 PUSH1 0x1 PUSH1 0x40 SHL SUB DUP2 GT DUP1 ISZERO PUSH2 0x3893 JUMPI PUSH1 0x0 DUP1 REVERT JUMPDEST POP PUSH1 0x40 MLOAD SWAP1 DUP1 DUP3 MSTORE DUP1 PUSH1 0x20 MUL PUSH1 0x20 ADD DUP3 ADD PUSH1 0x40 MSTORE DUP1 ISZERO PUSH2 0x38BD JUMPI DUP2 PUSH1 0x20 ADD PUSH1 0x20 DUP3 MUL DUP1 CALLDATASIZE DUP4 CALLDATACOPY ADD SWAP1 POP JUMPDEST POP SWAP1 POP PUSH1 0x0 JUMPDEST DUP4 MLOAD DUP2 LT ISZERO PUSH2 0x7DE JUMPI DUP3 PUSH2 0x38ED JUMPI DUP4 DUP2 DUP2 MLOAD DUP2 LT PUSH2 0x38DD JUMPI INVALID JUMPDEST PUSH1 0x20 MUL PUSH1 0x20 ADD ADD MLOAD PUSH1 0x0 SUB PUSH2 0x3902 JUMP JUMPDEST DUP4 DUP2 DUP2 MLOAD DUP2 LT PUSH2 0x38F9 JUMPI INVALID JUMPDEST PUSH1 0x20 MUL PUSH1 0x20 ADD ADD MLOAD JUMPDEST DUP3 DUP3 DUP2 MLOAD DUP2 LT PUSH2 0x390E JUMPI INVALID JUMPDEST PUSH1 0x20 SWAP1 DUP2 MUL SWAP2 SWAP1 SWAP2 ADD ADD MSTORE PUSH1 0x1 ADD PUSH2 0x38C3 JUMP JUMPDEST PUSH1 0x0 DUP1 DUP5 PUSH1 0x1 DUP2 GT ISZERO PUSH2 0x3930 JUMPI INVALID JUMPDEST EQ PUSH2 0x393B JUMPI DUP2 PUSH2 0x9C0 JUMP JUMPDEST POP SWAP1 SWAP3 SWAP2 POP POP JUMP JUMPDEST PUSH1 0x0 DUP1 DUP5 PUSH1 0x1 DUP2 GT ISZERO PUSH2 0x3952 JUMPI INVALID JUMPDEST EQ PUSH2 0x7DE JUMPI DUP3 PUSH2 0x9C0 JUMP JUMPDEST PUSH1 0x0 PUSH2 0x21D0 PUSH1 0x1 PUSH1 0xFF SHL DUP4 LT PUSH2 0x1A5 PUSH2 0x52B JUMP JUMPDEST PUSH1 0x0 DUP3 DUP3 ADD PUSH2 0x16A4 DUP3 DUP5 SLT DUP1 ISZERO SWAP1 PUSH2 0x3989 JUMPI POP DUP5 DUP3 SLT ISZERO JUMPDEST DUP1 PUSH2 0x399E JUMPI POP PUSH1 0x0 DUP5 SLT DUP1 ISZERO PUSH2 0x399E JUMPI POP DUP5 DUP3 SLT JUMPDEST PUSH1 0x0 PUSH2 0x52B JUMP JUMPDEST PUSH1 0x0 DUP2 DUP4 SUB PUSH2 0x16A4 DUP3 DUP5 SLT DUP1 ISZERO SWAP1 PUSH2 0x39BD JUMPI POP DUP5 DUP3 SGT ISZERO JUMPDEST DUP1 PUSH2 0x39D2 JUMPI POP PUSH1 0x0 DUP5 SLT DUP1 ISZERO PUSH2 0x39D2 JUMPI POP DUP5 DUP3 SGT JUMPDEST PUSH1 0x1 PUSH2 0x52B JUMP JUMPDEST PUSH1 0x0 DUP2 DUP2 MSTORE PUSH1 0x9 PUSH1 0x20 MSTORE PUSH1 0x40 DUP2 KECCAK256 DUP1 SLOAD PUSH1 0x1 DUP3 ADD SLOAD PUSH1 0x1 PUSH1 0x1 PUSH1 0xA0 SHL SUB SWAP2 DUP3 AND SWAP3 DUP5 SWAP3 SWAP1 SWAP2 AND SWAP1 DUP3 SWAP1 DUP2 PUSH2 0x3A0D DUP7 DUP6 PUSH2 0x43A0 JUMP JUMPDEST PUSH1 0x0 DUP2 DUP2 MSTORE PUSH1 0x2 DUP5 ADD PUSH1 0x20 MSTORE PUSH1 0x40 SWAP1 KECCAK256 DUP1 SLOAD PUSH1 0x1 DUP3 ADD SLOAD SWAP2 SWAP10 POP SWAP2 SWAP3 POP PUSH2 0x3A34 DUP3 DUP3 PUSH2 0x43D3 JUMP JUMPDEST SWAP7 POP PUSH2 0x3A40 DUP3 DUP3 PUSH2 0x43F8 JUMP JUMPDEST SWAP5 POP POP POP POP POP SWAP2 SWAP4 SWAP6 SWAP1 SWAP3 SWAP5 POP JUMP JUMPDEST PUSH1 0x0 PUSH2 0x3A5A DUP3 PUSH2 0x32A4 JUMP JUMPDEST ISZERO SWAP3 SWAP2 POP POP JUMP JUMPDEST PUSH1 0x1 PUSH1 0x1 PUSH1 0xA0 SHL SUB AND PUSH1 0x0 SWAP1 DUP2 MSTORE PUSH1 0x1 SWAP2 SWAP1 SWAP2 ADD PUSH1 0x20 MSTORE PUSH1 0x40 SWAP1 KECCAK256 SLOAD ISZERO ISZERO SWAP1 JUMP JUMPDEST PUSH1 0x0 DUP3 DUP2 MSTORE PUSH1 0x9 PUSH1 0x20 MSTORE PUSH1 0x40 DUP2 KECCAK256 DUP1 SLOAD PUSH1 0x1 PUSH1 0x1 PUSH1 0xA0 SHL SUB DUP5 DUP2 AND SWAP2 AND EQ DUP1 PUSH2 0x3ABA JUMPI POP PUSH1 0x1 DUP2 ADD SLOAD PUSH1 0x1 PUSH1 0x1 PUSH1 0xA0 SHL SUB DUP5 DUP2 AND SWAP2 AND EQ JUMPDEST DUP1 ISZERO PUSH2 0x9C0 JUMPI POP POP POP PUSH1 0x1 PUSH1 0x1 PUSH1 0xA0 SHL SUB AND ISZERO ISZERO SWAP2 SWAP1 POP JUMP JUMPDEST PUSH1 0x0 DUP3 DUP2 MSTORE PUSH1 0x8 PUSH1 0x20 MSTORE PUSH1 0x40 DUP2 KECCAK256 PUSH2 0x9C0 DUP2 DUP5 PUSH2 0x3A61 JUMP JUMPDEST PUSH1 0x0 DUP3 DUP2 MSTORE PUSH1 0x1 PUSH1 0x20 MSTORE PUSH1 0x40 DUP2 KECCAK256 PUSH2 0x9C0 DUP2 DUP5 PUSH2 0x4799 JUMP JUMPDEST PUSH1 0x0 DUP1 PUSH1 0x2 DUP6 PUSH1 0x2 DUP2 GT ISZERO PUSH2 0x3B14 JUMPI INVALID JUMPDEST EQ ISZERO PUSH2 0x3B2A JUMPI PUSH2 0x3B25 DUP7 DUP6 DUP6 PUSH2 0x47BA JUMP JUMPDEST PUSH2 0x3B54 JUMP JUMPDEST PUSH1 0x1 DUP6 PUSH1 0x2 DUP2 GT ISZERO PUSH2 0x3B38 JUMPI INVALID JUMPDEST EQ ISZERO PUSH2 0x3B49 JUMPI PUSH2 0x3B25 DUP7 DUP6 DUP6 PUSH2 0x47C8 JUMP JUMPDEST PUSH2 0x3B54 DUP7 DUP6 DUP6 PUSH2 0x47D6 JUMP JUMPDEST DUP3 ISZERO PUSH2 0x3B6E JUMPI PUSH2 0x3B6E PUSH1 0x1 PUSH1 0x1 PUSH1 0xA0 SHL SUB DUP6 AND CALLER DUP6 PUSH2 0x1E25 JUMP JUMPDEST POP POP PUSH1 0x0 DUP2 SWAP1 SUB SWAP5 SWAP1 SWAP4 POP SWAP2 POP POP JUMP JUMPDEST PUSH1 0x0 DUP1 PUSH1 0x2 DUP6 PUSH1 0x2 DUP2 GT ISZERO PUSH2 0x3B8F JUMPI INVALID JUMPDEST EQ ISZERO PUSH2 0x3BA5 JUMPI PUSH2 0x3BA0 DUP7 DUP6 DUP6 PUSH2 0x47E4 JUMP JUMPDEST PUSH2 0x3BCF JUMP JUMPDEST PUSH1 0x1 DUP6 PUSH1 0x2 DUP2 GT ISZERO PUSH2 0x3BB3 JUMPI INVALID JUMPDEST EQ ISZERO PUSH2 0x3BC4 JUMPI PUSH2 0x3BA0 DUP7 DUP6 DUP6 PUSH2 0x47F2 JUMP JUMPDEST PUSH2 0x3BCF DUP7 DUP6 DUP6 PUSH2 0x4800 JUMP JUMPDEST DUP3 ISZERO PUSH2 0x3BEA JUMPI PUSH2 0x3BEA PUSH1 0x1 PUSH1 0x1 PUSH1 0xA0 SHL SUB DUP6 AND CALLER ADDRESS DUP7 PUSH2 0x2B04 JUMP JUMPDEST POP SWAP1 SWAP5 PUSH1 0x0 DUP7 SWAP1 SUB SWAP5 POP SWAP3 POP POP POP JUMP JUMPDEST PUSH1 0x0 DUP1 PUSH1 0x2 DUP6 PUSH1 0x2 DUP2 GT ISZERO PUSH2 0x3C0B JUMPI INVALID JUMPDEST EQ ISZERO PUSH2 0x3C23 JUMPI PUSH2 0x3C1C DUP7 DUP6 DUP6 PUSH2 0x480E JUMP JUMPDEST SWAP1 POP PUSH2 0x3C50 JUMP JUMPDEST PUSH1 0x1 DUP6 PUSH1 0x2 DUP2 GT ISZERO PUSH2 0x3C31 JUMPI INVALID JUMPDEST EQ ISZERO PUSH2 0x3C42 JUMPI PUSH2 0x3C1C DUP7 DUP6 DUP6 PUSH2 0x481E JUMP JUMPDEST PUSH2 0x3C4D DUP7 DUP6 DUP6 PUSH2 0x482E JUMP JUMPDEST SWAP1 POP JUMPDEST PUSH1 0x0 SWAP2 POP SWAP5 POP SWAP5 SWAP3 POP POP POP JUMP JUMPDEST CHAINID SWAP1 JUMP JUMPDEST PUSH1 0x60 DUP1 PUSH1 0x0 DUP1 PUSH1 0x0 DUP1 PUSH2 0x3C73 DUP8 PUSH2 0x39D9 JUMP JUMPDEST SWAP3 SWAP8 POP SWAP1 SWAP6 POP SWAP4 POP SWAP2 POP POP PUSH1 0x1 PUSH1 0x1 PUSH1 0xA0 SHL SUB DUP5 AND ISZERO DUP1 PUSH2 0x3C9B JUMPI POP PUSH1 0x1 PUSH1 0x1 PUSH1 0xA0 SHL SUB DUP3 AND ISZERO JUMPDEST ISZERO PUSH2 0x3CC4 JUMPI POP POP PUSH1 0x40 DUP1 MLOAD PUSH1 0x0 DUP1 DUP3 MSTORE PUSH1 0x20 DUP3 ADD SWAP1 DUP2 MSTORE DUP2 DUP4 ADD SWAP1 SWAP3 MSTORE SWAP5 POP SWAP3 POP PUSH2 0x2913 SWAP2 POP POP JUMP JUMPDEST PUSH1 0x40 DUP1 MLOAD PUSH1 0x2 DUP1 DUP3 MSTORE PUSH1 0x60 DUP3 ADD DUP4 MSTORE SWAP1 SWAP2 PUSH1 0x20 DUP4 ADD SWAP1 DUP1 CALLDATASIZE DUP4 CALLDATACOPY ADD SWAP1 POP POP SWAP6 POP DUP4 DUP7 PUSH1 0x0 DUP2 MLOAD DUP2 LT PUSH2 0x3CF2 JUMPI INVALID JUMPDEST PUSH1 0x20 MUL PUSH1 0x20 ADD ADD SWAP1 PUSH1 0x1 PUSH1 0x1 PUSH1 0xA0 SHL SUB AND SWAP1 DUP2 PUSH1 0x1 PUSH1 0x1 PUSH1 0xA0 SHL SUB AND DUP2 MSTORE POP POP DUP2 DUP7 PUSH1 0x1 DUP2 MLOAD DUP2 LT PUSH2 0x3D20 JUMPI INVALID JUMPDEST PUSH1 0x1 PUSH1 0x1 PUSH1 0xA0 SHL SUB SWAP3 SWAP1 SWAP3 AND PUSH1 0x20 SWAP3 DUP4 MUL SWAP2 SWAP1 SWAP2 ADD DUP3 ADD MSTORE PUSH1 0x40 DUP1 MLOAD PUSH1 0x2 DUP1 DUP3 MSTORE PUSH1 0x60 DUP3 ADD DUP4 MSTORE SWAP1 SWAP3 SWAP1 SWAP2 SWAP1 DUP4 ADD SWAP1 DUP1 CALLDATASIZE DUP4 CALLDATACOPY ADD SWAP1 POP POP SWAP5 POP DUP3 DUP6 PUSH1 0x0 DUP2 MLOAD DUP2 LT PUSH2 0x3D67 JUMPI INVALID JUMPDEST PUSH1 0x20 MUL PUSH1 0x20 ADD ADD DUP2 DUP2 MSTORE POP POP DUP1 DUP6 PUSH1 0x1 DUP2 MLOAD DUP2 LT PUSH2 0x3D81 JUMPI INVALID JUMPDEST PUSH1 0x20 MUL PUSH1 0x20 ADD ADD DUP2 DUP2 MSTORE POP POP POP POP POP POP SWAP2 POP SWAP2 JUMP JUMPDEST PUSH1 0x0 DUP2 DUP2 MSTORE PUSH1 0x8 PUSH1 0x20 MSTORE PUSH1 0x40 SWAP1 KECCAK256 PUSH1 0x60 SWAP1 DUP2 SWAP1 PUSH2 0x3DB2 DUP2 PUSH2 0x42F6 JUMP JUMPDEST PUSH1 0x1 PUSH1 0x1 PUSH1 0x40 SHL SUB DUP2 GT DUP1 ISZERO PUSH2 0x3DC7 JUMPI PUSH1 0x0 DUP1 REVERT JUMPDEST POP PUSH1 0x40 MLOAD SWAP1 DUP1 DUP3 MSTORE DUP1 PUSH1 0x20 MUL PUSH1 0x20 ADD DUP3 ADD PUSH1 0x40 MSTORE DUP1 ISZERO PUSH2 0x3DF1 JUMPI DUP2 PUSH1 0x20 ADD PUSH1 0x20 DUP3 MUL DUP1 CALLDATASIZE DUP4 CALLDATACOPY ADD SWAP1 POP JUMPDEST POP SWAP3 POP DUP3 MLOAD PUSH1 0x1 PUSH1 0x1 PUSH1 0x40 SHL SUB DUP2 GT DUP1 ISZERO PUSH2 0x3E0B JUMPI PUSH1 0x0 DUP1 REVERT JUMPDEST POP PUSH1 0x40 MLOAD SWAP1 DUP1 DUP3 MSTORE DUP1 PUSH1 0x20 MUL PUSH1 0x20 ADD DUP3 ADD PUSH1 0x40 MSTORE DUP1 ISZERO PUSH2 0x3E35 JUMPI DUP2 PUSH1 0x20 ADD PUSH1 0x20 DUP3 MUL DUP1 CALLDATASIZE DUP4 CALLDATACOPY ADD SWAP1 POP JUMPDEST POP SWAP2 POP PUSH1 0x0 JUMPDEST DUP4 MLOAD DUP2 LT ISZERO PUSH2 0x3EB4 JUMPI PUSH1 0x0 PUSH2 0x3E50 DUP4 DUP4 PUSH2 0x483E JUMP JUMPDEST SWAP1 POP DUP1 DUP6 DUP4 DUP2 MLOAD DUP2 LT PUSH2 0x3E5F JUMPI INVALID JUMPDEST PUSH1 0x1 PUSH1 0x1 PUSH1 0xA0 SHL SUB SWAP3 DUP4 AND PUSH1 0x20 SWAP2 DUP3 MUL SWAP3 SWAP1 SWAP3 ADD DUP2 ADD SWAP2 SWAP1 SWAP2 MSTORE PUSH1 0x0 DUP9 DUP2 MSTORE PUSH1 0x7 DUP3 MSTORE PUSH1 0x40 DUP1 DUP3 KECCAK256 SWAP4 DUP6 AND DUP3 MSTORE SWAP3 SWAP1 SWAP2 MSTORE KECCAK256 SLOAD DUP5 MLOAD DUP6 SWAP1 DUP5 SWAP1 DUP2 LT PUSH2 0x3EA0 JUMPI INVALID JUMPDEST PUSH1 0x20 SWAP1 DUP2 MUL SWAP2 SWAP1 SWAP2 ADD ADD MSTORE POP PUSH1 0x1 ADD PUSH2 0x3E3B JUMP JUMPDEST POP POP SWAP2 POP SWAP2 JUMP JUMPDEST PUSH1 0x0 DUP2 DUP2 MSTORE PUSH1 0x1 PUSH1 0x20 MSTORE PUSH1 0x40 SWAP1 KECCAK256 PUSH1 0x60 SWAP1 DUP2 SWAP1 PUSH2 0x3ED7 DUP2 PUSH2 0x42F6 JUMP JUMPDEST PUSH1 0x1 PUSH1 0x1 PUSH1 0x40 SHL SUB DUP2 GT DUP1 ISZERO PUSH2 0x3EEC JUMPI PUSH1 0x0 DUP1 REVERT JUMPDEST POP PUSH1 0x40 MLOAD SWAP1 DUP1 DUP3 MSTORE DUP1 PUSH1 0x20 MUL PUSH1 0x20 ADD DUP3 ADD PUSH1 0x40 MSTORE DUP1 ISZERO PUSH2 0x3F16 JUMPI DUP2 PUSH1 0x20 ADD PUSH1 0x20 DUP3 MUL DUP1 CALLDATASIZE DUP4 CALLDATACOPY ADD SWAP1 POP JUMPDEST POP SWAP3 POP DUP3 MLOAD PUSH1 0x1 PUSH1 0x1 PUSH1 0x40 SHL SUB DUP2 GT DUP1 ISZERO PUSH2 0x3F30 JUMPI PUSH1 0x0 DUP1 REVERT JUMPDEST POP PUSH1 0x40 MLOAD SWAP1 DUP1 DUP3 MSTORE DUP1 PUSH1 0x20 MUL PUSH1 0x20 ADD DUP3 ADD PUSH1 0x40 MSTORE DUP1 ISZERO PUSH2 0x3F5A JUMPI DUP2 PUSH1 0x20 ADD PUSH1 0x20 DUP3 MUL DUP1 CALLDATASIZE DUP4 CALLDATACOPY ADD SWAP1 POP JUMPDEST POP SWAP2 POP PUSH1 0x0 JUMPDEST DUP4 MLOAD DUP2 LT ISZERO PUSH2 0x3EB4 JUMPI PUSH2 0x3F73 DUP3 DUP3 PUSH2 0x486B JUMP JUMPDEST DUP6 DUP4 DUP2 MLOAD DUP2 LT PUSH2 0x3F7F JUMPI INVALID JUMPDEST PUSH1 0x20 MUL PUSH1 0x20 ADD ADD DUP6 DUP5 DUP2 MLOAD DUP2 LT PUSH2 0x3F92 JUMPI INVALID JUMPDEST PUSH1 0x20 SWAP1 DUP2 MUL SWAP2 SWAP1 SWAP2 ADD ADD SWAP2 SWAP1 SWAP2 MSTORE PUSH1 0x1 PUSH1 0x1 PUSH1 0xA0 SHL SUB SWAP1 SWAP2 AND SWAP1 MSTORE PUSH1 0x1 ADD PUSH2 0x3F60 JUMP JUMPDEST PUSH1 0x0 PUSH2 0x3FC0 DUP3 PUSH2 0x2712 JUMP JUMPDEST PUSH2 0x3FC9 DUP4 PUSH2 0x2706 JUMP JUMPDEST ADD SWAP3 SWAP2 POP POP JUMP JUMPDEST PUSH1 0x0 DUP2 DUP4 LT ISZERO PUSH2 0x3FE0 JUMPI DUP2 PUSH2 0x16A4 JUMP JUMPDEST POP SWAP1 SWAP2 SWAP1 POP JUMP JUMPDEST PUSH1 0x0 DUP2 DUP4 LT PUSH2 0x3FE0 JUMPI DUP2 PUSH2 0x16A4 JUMP JUMPDEST PUSH1 0x1 PUSH1 0x1 PUSH1 0xA0 SHL SUB DUP1 DUP6 AND PUSH1 0x0 DUP2 DUP2 MSTORE PUSH1 0xB PUSH1 0x20 SWAP1 DUP2 MSTORE PUSH1 0x40 DUP1 DUP4 KECCAK256 SWAP5 DUP9 AND DUP1 DUP5 MSTORE SWAP5 SWAP1 SWAP2 MSTORE SWAP1 DUP2 SWAP1 KECCAK256 DUP6 SWAP1 SSTORE MLOAD PUSH32 0x18E1EA4139E68413D7D08AA752E71568E36B2C5BF940893314C2C5B01EAA0C42 SWAP1 PUSH2 0x1951 SWAP1 DUP6 SWAP1 PUSH2 0x5D49 JUMP JUMPDEST PUSH1 0x0 DUP1 PUSH2 0x405C PUSH2 0x488F JUMP JUMPDEST SWAP1 POP TIMESTAMP DUP2 LT ISZERO PUSH2 0x4070 JUMPI PUSH1 0x0 SWAP2 POP POP PUSH2 0x16A7 JUMP JUMPDEST PUSH1 0x0 PUSH2 0x407A PUSH2 0x489B JUMP JUMPDEST SWAP1 POP DUP1 PUSH2 0x408C JUMPI PUSH1 0x0 SWAP3 POP POP POP PUSH2 0x16A7 JUMP JUMPDEST PUSH1 0x0 DUP2 PUSH2 0x4097 PUSH2 0x49AC JUMP JUMPDEST DUP1 MLOAD PUSH1 0x20 SWAP2 DUP3 ADD KECCAK256 PUSH1 0x40 DUP1 MLOAD DUP1 DUP5 ADD SWAP5 SWAP1 SWAP5 MSTORE DUP4 DUP2 ADD SWAP2 SWAP1 SWAP2 MSTORE CALLER PUSH1 0x60 DUP5 ADD MSTORE PUSH1 0x80 DUP4 ADD DUP9 SWAP1 MSTORE PUSH1 0xA0 DUP1 DUP5 ADD DUP8 SWAP1 MSTORE DUP2 MLOAD DUP1 DUP6 SUB SWAP1 SWAP2 ADD DUP2 MSTORE PUSH1 0xC0 SWAP1 SWAP4 ADD SWAP1 MSTORE DUP2 MLOAD SWAP2 ADD KECCAK256 SWAP1 POP PUSH1 0x0 PUSH2 0x40E9 DUP3 PUSH2 0x49FB JUMP JUMPDEST SWAP1 POP PUSH1 0x0 DUP1 PUSH1 0x0 PUSH2 0x40F8 PUSH2 0x4A47 JUMP JUMPDEST SWAP3 POP SWAP3 POP SWAP3 POP PUSH1 0x0 PUSH1 0x1 DUP6 DUP6 DUP6 DUP6 PUSH1 0x40 MLOAD PUSH1 0x0 DUP2 MSTORE PUSH1 0x20 ADD PUSH1 0x40 MSTORE PUSH1 0x40 MLOAD DUP1 DUP6 DUP2 MSTORE PUSH1 0x20 ADD DUP5 PUSH1 0xFF AND DUP2 MSTORE PUSH1 0x20 ADD DUP4 DUP2 MSTORE PUSH1 0x20 ADD DUP3 DUP2 MSTORE PUSH1 0x20 ADD SWAP5 POP POP POP POP POP PUSH1 0x20 PUSH1 0x40 MLOAD PUSH1 0x20 DUP2 SUB SWAP1 DUP1 DUP5 SUB SWAP1 DUP6 GAS STATICCALL ISZERO DUP1 ISZERO PUSH2 0x415A JUMPI RETURNDATASIZE PUSH1 0x0 DUP1 RETURNDATACOPY RETURNDATASIZE PUSH1 0x0 REVERT JUMPDEST POP POP PUSH1 0x40 MLOAD PUSH1 0x1F NOT ADD MLOAD SWAP2 POP POP PUSH1 0x1 PUSH1 0x1 PUSH1 0xA0 SHL SUB DUP2 AND ISZERO DUP1 ISZERO SWAP1 PUSH2 0x4190 JUMPI POP DUP11 PUSH1 0x1 PUSH1 0x1 PUSH1 0xA0 SHL SUB AND DUP2 PUSH1 0x1 PUSH1 0x1 PUSH1 0xA0 SHL SUB AND EQ JUMPDEST SWAP12 SWAP11 POP POP POP POP POP POP POP POP POP POP POP JUMP JUMPDEST PUSH1 0x0 DUP1 PUSH1 0x0 DUP1 PUSH2 0x41AE DUP7 PUSH2 0x3FB5 JUMP JUMPDEST SWAP1 POP PUSH1 0x0 PUSH2 0x41BB DUP7 PUSH2 0x3FB5 JUMP JUMPDEST SWAP1 POP PUSH2 0x41D2 PUSH2 0x41C9 DUP9 PUSH2 0x2721 JUMP JUMPDEST PUSH2 0x29B6 DUP9 PUSH2 0x2721 JUMP JUMPDEST PUSH1 0xA0 DUP11 ADD MSTORE PUSH1 0x40 MLOAD PUSH4 0x274B0443 PUSH1 0xE2 SHL DUP2 MSTORE PUSH1 0x1 PUSH1 0x1 PUSH1 0xA0 SHL SUB DUP10 AND SWAP1 PUSH4 0x9D2C110C SWAP1 PUSH2 0x4207 SWAP1 DUP13 SWAP1 DUP7 SWAP1 DUP7 SWAP1 PUSH1 0x4 ADD PUSH2 0x5E24 JUMP JUMPDEST PUSH1 0x20 PUSH1 0x40 MLOAD DUP1 DUP4 SUB DUP2 PUSH1 0x0 DUP8 DUP1 EXTCODESIZE ISZERO DUP1 ISZERO PUSH2 0x4221 JUMPI PUSH1 0x0 DUP1 REVERT JUMPDEST POP GAS CALL ISZERO DUP1 ISZERO PUSH2 0x4235 JUMPI RETURNDATASIZE PUSH1 0x0 DUP1 RETURNDATACOPY RETURNDATASIZE PUSH1 0x0 REVERT JUMPDEST POP POP POP POP PUSH1 0x40 MLOAD RETURNDATASIZE PUSH1 0x1F NOT PUSH1 0x1F DUP3 ADD AND DUP3 ADD DUP1 PUSH1 0x40 MSTORE POP DUP2 ADD SWAP1 PUSH2 0x4259 SWAP2 SWAP1 PUSH2 0x59EA JUMP JUMPDEST SWAP3 POP PUSH1 0x0 DUP1 PUSH2 0x4271 DUP12 PUSH1 0x0 ADD MLOAD DUP13 PUSH1 0x60 ADD MLOAD DUP8 PUSH2 0x2F68 JUMP JUMPDEST SWAP1 SWAP3 POP SWAP1 POP PUSH2 0x4280 DUP10 DUP4 PUSH2 0x4310 JUMP JUMPDEST SWAP7 POP PUSH2 0x428C DUP9 DUP3 PUSH2 0x4341 JUMP JUMPDEST SWAP6 POP POP POP POP POP SWAP5 POP SWAP5 POP SWAP5 SWAP2 POP POP JUMP JUMPDEST PUSH1 0x0 DUP1 PUSH2 0x42B4 PUSH2 0x42AB DUP6 PUSH2 0x2721 JUMP JUMPDEST PUSH2 0x29B6 DUP6 PUSH2 0x2721 JUMP JUMPDEST SWAP1 POP PUSH2 0x9C0 PUSH2 0x42C2 DUP6 PUSH2 0x2706 JUMP JUMPDEST PUSH2 0x42CB DUP6 PUSH2 0x2706 JUMP JUMPDEST DUP4 PUSH4 0xFFFFFFFF AND PUSH2 0x4A6E JUMP JUMPDEST PUSH1 0x1 PUSH1 0x1 PUSH1 0xA0 SHL SUB AND PUSH1 0x0 SWAP1 DUP2 MSTORE PUSH1 0x2 SWAP2 SWAP1 SWAP2 ADD PUSH1 0x20 MSTORE PUSH1 0x40 SWAP1 KECCAK256 SLOAD SWAP1 JUMP JUMPDEST SLOAD SWAP1 JUMP JUMPDEST PUSH1 0x0 SWAP1 DUP2 MSTORE PUSH1 0x1 SWAP2 DUP3 ADD PUSH1 0x20 MSTORE PUSH1 0x40 SWAP1 KECCAK256 ADD SLOAD SWAP1 JUMP JUMPDEST PUSH1 0x0 DUP1 PUSH2 0x4326 DUP4 PUSH2 0x4320 DUP7 PUSH2 0x2706 JUMP JUMPDEST SWAP1 PUSH2 0x18C6 JUMP JUMPDEST SWAP1 POP PUSH1 0x0 PUSH2 0x4333 DUP6 PUSH2 0x2712 JUMP JUMPDEST SWAP1 POP NUMBER PUSH2 0x1271 DUP4 DUP4 DUP4 PUSH2 0x4A7C JUMP JUMPDEST PUSH1 0x0 DUP1 PUSH2 0x4326 DUP4 PUSH2 0x4351 DUP7 PUSH2 0x2706 JUMP JUMPDEST SWAP1 PUSH2 0x4AAA JUMP JUMPDEST PUSH1 0x0 SWAP2 DUP3 MSTORE PUSH1 0x1 SWAP3 DUP4 ADD PUSH1 0x20 MSTORE PUSH1 0x40 SWAP1 SWAP2 KECCAK256 SWAP1 SWAP2 ADD SSTORE JUMP JUMPDEST PUSH1 0x0 DUP1 DUP3 PUSH1 0x1 PUSH1 0x1 PUSH1 0xA0 SHL SUB AND DUP5 PUSH1 0x1 PUSH1 0x1 PUSH1 0xA0 SHL SUB AND LT PUSH2 0x4392 JUMPI DUP3 DUP5 PUSH2 0x4395 JUMP JUMPDEST DUP4 DUP4 JUMPDEST SWAP2 POP SWAP2 POP SWAP3 POP SWAP3 SWAP1 POP JUMP JUMPDEST PUSH1 0x0 DUP3 DUP3 PUSH1 0x40 MLOAD PUSH1 0x20 ADD PUSH2 0x43B5 SWAP3 SWAP2 SWAP1 PUSH2 0x5B81 JUMP JUMPDEST PUSH1 0x40 MLOAD PUSH1 0x20 DUP2 DUP4 SUB SUB DUP2 MSTORE SWAP1 PUSH1 0x40 MSTORE DUP1 MLOAD SWAP1 PUSH1 0x20 ADD KECCAK256 SWAP1 POP SWAP3 SWAP2 POP POP JUMP JUMPDEST PUSH1 0x0 PUSH2 0x16A4 PUSH2 0x43E1 DUP5 PUSH2 0x2706 JUMP JUMPDEST PUSH2 0x43EA DUP5 PUSH2 0x2706 JUMP JUMPDEST PUSH2 0x43F3 DUP7 PUSH2 0x2721 JUMP JUMPDEST PUSH2 0x4A7C JUMP JUMPDEST PUSH1 0x0 PUSH2 0x16A4 PUSH2 0x4406 DUP5 PUSH2 0x2712 JUMP JUMPDEST PUSH2 0x43EA DUP5 PUSH2 0x2712 JUMP JUMPDEST PUSH1 0x1 PUSH1 0x1 PUSH1 0xA0 SHL SUB DUP3 AND PUSH1 0x0 SWAP1 DUP2 MSTORE PUSH1 0x2 DUP5 ADD PUSH1 0x20 MSTORE PUSH1 0x40 DUP2 KECCAK256 SLOAD PUSH2 0x4436 DUP2 ISZERO ISZERO DUP5 PUSH2 0x52B JUMP JUMPDEST PUSH2 0x4443 DUP6 PUSH1 0x1 DUP4 SUB PUSH2 0x42FA JUMP JUMPDEST SWAP6 SWAP5 POP POP POP POP POP JUMP JUMPDEST PUSH1 0x0 PUSH2 0x4456 PUSH2 0x137A JUMP JUMPDEST PUSH1 0x1 PUSH1 0x1 PUSH1 0xA0 SHL SUB AND PUSH4 0x55C67628 PUSH1 0x40 MLOAD DUP2 PUSH4 0xFFFFFFFF AND PUSH1 0xE0 SHL DUP2 MSTORE PUSH1 0x4 ADD PUSH1 0x20 PUSH1 0x40 MLOAD DUP1 DUP4 SUB DUP2 DUP7 DUP1 EXTCODESIZE ISZERO DUP1 ISZERO PUSH2 0x448E JUMPI PUSH1 0x0 DUP1 REVERT JUMPDEST POP GAS STATICCALL ISZERO DUP1 ISZERO PUSH2 0x44A2 JUMPI RETURNDATASIZE PUSH1 0x0 DUP1 RETURNDATACOPY RETURNDATASIZE PUSH1 0x0 REVERT JUMPDEST POP POP POP POP PUSH1 0x40 MLOAD RETURNDATASIZE PUSH1 0x1F NOT PUSH1 0x1F DUP3 ADD AND DUP3 ADD DUP1 PUSH1 0x40 MSTORE POP DUP2 ADD SWAP1 PUSH2 0x1299 SWAP2 SWAP1 PUSH2 0x59EA JUMP JUMPDEST PUSH2 0xF64 DUP3 DUP5 EQ DUP1 ISZERO PUSH2 0x44D7 JUMPI POP DUP2 DUP4 EQ JUMPDEST PUSH1 0x67 PUSH2 0x52B JUMP JUMPDEST PUSH1 0x60 DUP4 MLOAD PUSH1 0x1 PUSH1 0x1 PUSH1 0x40 SHL SUB DUP2 GT DUP1 ISZERO PUSH2 0x44F7 JUMPI PUSH1 0x0 DUP1 REVERT JUMPDEST POP PUSH1 0x40 MLOAD SWAP1 DUP1 DUP3 MSTORE DUP1 PUSH1 0x20 MUL PUSH1 0x20 ADD DUP3 ADD PUSH1 0x40 MSTORE DUP1 ISZERO PUSH2 0x4521 JUMPI DUP2 PUSH1 0x20 ADD PUSH1 0x20 DUP3 MUL DUP1 CALLDATASIZE DUP4 CALLDATACOPY ADD SWAP1 POP JUMPDEST POP SWAP1 POP PUSH1 0x0 JUMPDEST DUP6 MLOAD MLOAD DUP2 LT ISZERO PUSH2 0x461A JUMPI PUSH1 0x0 DUP5 DUP3 DUP2 MLOAD DUP2 LT PUSH2 0x453F JUMPI INVALID JUMPDEST PUSH1 0x20 MUL PUSH1 0x20 ADD ADD MLOAD SWAP1 POP PUSH2 0x456F DUP8 PUSH1 0x20 ADD MLOAD DUP4 DUP2 MLOAD DUP2 LT PUSH2 0x455C JUMPI INVALID JUMPDEST PUSH1 0x20 MUL PUSH1 0x20 ADD ADD MLOAD DUP3 LT ISZERO PUSH2 0x1F9 PUSH2 0x52B JUMP JUMPDEST PUSH1 0x0 DUP8 PUSH1 0x0 ADD MLOAD DUP4 DUP2 MLOAD DUP2 LT PUSH2 0x4581 JUMPI INVALID JUMPDEST PUSH1 0x20 MUL PUSH1 0x20 ADD ADD MLOAD SWAP1 POP PUSH2 0x459B DUP2 DUP4 DUP12 DUP12 PUSH1 0x60 ADD MLOAD PUSH2 0x1CB7 JUMP JUMPDEST PUSH1 0x0 DUP6 DUP5 DUP2 MLOAD DUP2 LT PUSH2 0x45A9 JUMPI INVALID JUMPDEST PUSH1 0x20 MUL PUSH1 0x20 ADD ADD MLOAD SWAP1 POP PUSH2 0x45C5 PUSH2 0x45BF DUP4 PUSH2 0x1AC0 JUMP JUMPDEST DUP3 PUSH2 0x1E77 JUMP JUMPDEST PUSH2 0x45F4 PUSH2 0x45D2 DUP5 DUP4 PUSH2 0x18C6 JUMP JUMPDEST DUP10 DUP7 DUP2 MLOAD DUP2 LT PUSH2 0x45DE JUMPI INVALID JUMPDEST PUSH1 0x20 MUL PUSH1 0x20 ADD ADD MLOAD PUSH2 0x4341 SWAP1 SWAP2 SWAP1 PUSH4 0xFFFFFFFF AND JUMP JUMPDEST DUP6 DUP6 DUP2 MLOAD DUP2 LT PUSH2 0x4600 JUMPI INVALID JUMPDEST PUSH1 0x20 MUL PUSH1 0x20 ADD ADD DUP2 DUP2 MSTORE POP POP POP POP POP DUP1 PUSH1 0x1 ADD SWAP1 POP PUSH2 0x4527 JUMP JUMPDEST POP SWAP6 SWAP5 POP POP POP POP POP JUMP JUMPDEST PUSH1 0x60 PUSH1 0x0 DUP5 MLOAD PUSH1 0x1 PUSH1 0x1 PUSH1 0x40 SHL SUB DUP2 GT DUP1 ISZERO PUSH2 0x463F JUMPI PUSH1 0x0 DUP1 REVERT JUMPDEST POP PUSH1 0x40 MLOAD SWAP1 DUP1 DUP3 MSTORE DUP1 PUSH1 0x20 MUL PUSH1 0x20 ADD DUP3 ADD PUSH1 0x40 MSTORE DUP1 ISZERO PUSH2 0x4669 JUMPI DUP2 PUSH1 0x20 ADD PUSH1 0x20 DUP3 MUL DUP1 CALLDATASIZE DUP4 CALLDATACOPY ADD SWAP1 POP JUMPDEST POP SWAP2 POP PUSH1 0x0 JUMPDEST DUP7 MLOAD MLOAD DUP2 LT ISZERO PUSH2 0x478F JUMPI PUSH1 0x0 DUP6 DUP3 DUP2 MLOAD DUP2 LT PUSH2 0x4687 JUMPI INVALID JUMPDEST PUSH1 0x20 MUL PUSH1 0x20 ADD ADD MLOAD SWAP1 POP PUSH2 0x46B7 DUP9 PUSH1 0x20 ADD MLOAD DUP4 DUP2 MLOAD DUP2 LT PUSH2 0x46A4 JUMPI INVALID JUMPDEST PUSH1 0x20 MUL PUSH1 0x20 ADD ADD MLOAD DUP3 GT ISZERO PUSH2 0x1FA PUSH2 0x52B JUMP JUMPDEST PUSH1 0x0 DUP9 PUSH1 0x0 ADD MLOAD DUP4 DUP2 MLOAD DUP2 LT PUSH2 0x46C9 JUMPI INVALID JUMPDEST PUSH1 0x20 MUL PUSH1 0x20 ADD ADD MLOAD SWAP1 POP PUSH2 0x46E3 DUP2 DUP4 DUP13 DUP13 PUSH1 0x60 ADD MLOAD PUSH2 0x1BD9 JUMP JUMPDEST PUSH2 0x46EC DUP2 PUSH2 0x18B9 JUMP JUMPDEST ISZERO PUSH2 0x46FE JUMPI PUSH2 0x46FB DUP5 DUP4 PUSH2 0x18C6 JUMP JUMPDEST SWAP4 POP JUMPDEST PUSH1 0x0 DUP7 DUP5 DUP2 MLOAD DUP2 LT PUSH2 0x470C JUMPI INVALID JUMPDEST PUSH1 0x20 MUL PUSH1 0x20 ADD ADD MLOAD SWAP1 POP PUSH2 0x4722 PUSH2 0x45BF DUP4 PUSH2 0x1AC0 JUMP JUMPDEST DUP1 DUP4 LT ISZERO PUSH2 0x4741 JUMPI PUSH2 0x473C DUP4 DUP3 SUB DUP11 DUP7 DUP2 MLOAD DUP2 LT PUSH2 0x45DE JUMPI INVALID JUMPDEST PUSH2 0x4769 JUMP JUMPDEST PUSH2 0x4769 DUP2 DUP5 SUB DUP11 DUP7 DUP2 MLOAD DUP2 LT PUSH2 0x4753 JUMPI INVALID JUMPDEST PUSH1 0x20 MUL PUSH1 0x20 ADD ADD MLOAD PUSH2 0x4310 SWAP1 SWAP2 SWAP1 PUSH4 0xFFFFFFFF AND JUMP JUMPDEST DUP7 DUP6 DUP2 MLOAD DUP2 LT PUSH2 0x4775 JUMPI INVALID JUMPDEST PUSH1 0x20 MUL PUSH1 0x20 ADD ADD DUP2 DUP2 MSTORE POP POP POP POP POP DUP1 PUSH1 0x1 ADD SWAP1 POP PUSH2 0x466F JUMP JUMPDEST POP PUSH2 0x461A DUP2 PUSH2 0x195F JUMP JUMPDEST PUSH1 0x1 PUSH1 0x1 PUSH1 0xA0 SHL SUB AND PUSH1 0x0 SWAP1 DUP2 MSTORE PUSH1 0x2 SWAP2 SWAP1 SWAP2 ADD PUSH1 0x20 MSTORE PUSH1 0x40 SWAP1 KECCAK256 SLOAD ISZERO ISZERO SWAP1 JUMP JUMPDEST PUSH2 0xDC4 DUP4 DUP4 PUSH2 0x4AC0 DUP5 PUSH2 0x4AFB JUMP JUMPDEST PUSH2 0xDC4 DUP4 DUP4 PUSH2 0x4AC0 DUP5 PUSH2 0x4BA6 JUMP JUMPDEST PUSH2 0xDC4 DUP4 DUP4 PUSH2 0x4AC0 DUP5 PUSH2 0x4C01 JUMP JUMPDEST PUSH2 0xDC4 DUP4 DUP4 PUSH2 0x4C50 DUP5 PUSH2 0x4AFB JUMP JUMPDEST PUSH2 0xDC4 DUP4 DUP4 PUSH2 0x4C50 DUP5 PUSH2 0x4BA6 JUMP JUMPDEST PUSH2 0xDC4 DUP4 DUP4 PUSH2 0x4C50 DUP5 PUSH2 0x4C01 JUMP JUMPDEST PUSH1 0x0 PUSH2 0x9C0 DUP5 DUP5 PUSH2 0x4C71 DUP6 PUSH2 0x4AFB JUMP JUMPDEST PUSH1 0x0 PUSH2 0x9C0 DUP5 DUP5 PUSH2 0x4C71 DUP6 PUSH2 0x4BA6 JUMP JUMPDEST PUSH1 0x0 PUSH2 0x9C0 DUP5 DUP5 PUSH2 0x4C71 DUP6 PUSH2 0x4C01 JUMP JUMPDEST PUSH1 0x0 DUP3 PUSH1 0x0 ADD DUP3 DUP2 SLOAD DUP2 LT PUSH2 0x484F JUMPI INVALID JUMPDEST PUSH1 0x0 SWAP2 DUP3 MSTORE PUSH1 0x20 SWAP1 SWAP2 KECCAK256 ADD SLOAD PUSH1 0x1 PUSH1 0x1 PUSH1 0xA0 SHL SUB AND SWAP4 SWAP3 POP POP POP JUMP JUMPDEST PUSH1 0x0 SWAP1 DUP2 MSTORE PUSH1 0x1 SWAP2 DUP3 ADD PUSH1 0x20 MSTORE PUSH1 0x40 SWAP1 KECCAK256 DUP1 SLOAD SWAP2 ADD SLOAD PUSH1 0x1 PUSH1 0x1 PUSH1 0xA0 SHL SUB SWAP1 SWAP2 AND SWAP2 JUMP JUMPDEST PUSH1 0x0 PUSH2 0x1299 PUSH1 0x0 PUSH2 0x4C8B JUMP JUMPDEST PUSH1 0x0 DUP1 CALLDATALOAD PUSH1 0xE0 SHR DUP1 PUSH4 0xB95CAC28 DUP2 EQ PUSH2 0x48E3 JUMPI PUSH4 0x8BDB3913 DUP2 EQ PUSH2 0x490B JUMPI PUSH4 0x52BBBE29 DUP2 EQ PUSH2 0x4933 JUMPI PUSH4 0x945BCEC9 DUP2 EQ PUSH2 0x495B JUMPI PUSH4 0xFA6E671D DUP2 EQ PUSH2 0x4983 JUMPI PUSH1 0x0 SWAP3 POP PUSH2 0x49A7 JUMP JUMPDEST PUSH32 0x3F7B71252BD19113FF48C19C6E004A9BCFCCA320A0D74D58E85877CBD7DCAE58 SWAP3 POP PUSH2 0x49A7 JUMP JUMPDEST PUSH32 0x8BBC57F66EA936902F50A71CE12B92C43F3C5340BB40C27C4E90AB84EEAE3353 SWAP3 POP PUSH2 0x49A7 JUMP JUMPDEST PUSH32 0xE192DCBC143B1E244AD73B813FD3C097B832AD260A157340B4E5E5BEDA067ABE SWAP3 POP PUSH2 0x49A7 JUMP JUMPDEST PUSH32 0x9BFC43A4D98313C6766986FFD7C916C7481566D9F224C6819AF0A53388ACED3A SWAP3 POP PUSH2 0x49A7 JUMP JUMPDEST PUSH32 0xA3F865AA351E51CFEB40F5178D1564BB629FE9030B83CAF6361D1BAAF5B90B5A SWAP3 POP JUMPDEST POP POP SWAP1 JUMP JUMPDEST PUSH1 0x60 PUSH1 0x0 CALLDATASIZE DUP1 DUP1 PUSH1 0x1F ADD PUSH1 0x20 DUP1 SWAP2 DIV MUL PUSH1 0x20 ADD PUSH1 0x40 MLOAD SWAP1 DUP2 ADD PUSH1 0x40 MSTORE DUP1 SWAP4 SWAP3 SWAP2 SWAP1 DUP2 DUP2 MSTORE PUSH1 0x20 ADD DUP4 DUP4 DUP1 DUP3 DUP5 CALLDATACOPY PUSH1 0x0 SWAP3 ADD SWAP2 SWAP1 SWAP2 MSTORE POP POP DUP3 MLOAD SWAP3 SWAP4 POP POP POP PUSH1 0x80 LT ISZERO PUSH2 0x528 JUMPI PUSH1 0x80 CALLDATASIZE SUB DUP2 MSTORE SWAP1 JUMP JUMPDEST PUSH1 0x0 PUSH2 0x4A05 PUSH2 0x27F2 JUMP JUMPDEST DUP3 PUSH1 0x40 MLOAD PUSH1 0x20 ADD DUP1 DUP1 PUSH2 0x1901 PUSH1 0xF0 SHL DUP2 MSTORE POP PUSH1 0x2 ADD DUP4 DUP2 MSTORE PUSH1 0x20 ADD DUP3 DUP2 MSTORE PUSH1 0x20 ADD SWAP3 POP POP POP PUSH1 0x40 MLOAD PUSH1 0x20 DUP2 DUP4 SUB SUB DUP2 MSTORE SWAP1 PUSH1 0x40 MSTORE DUP1 MLOAD SWAP1 PUSH1 0x20 ADD KECCAK256 SWAP1 POP SWAP2 SWAP1 POP JUMP JUMPDEST PUSH1 0x0 DUP1 PUSH1 0x0 PUSH2 0x4A56 PUSH1 0x20 PUSH2 0x4C8B JUMP JUMPDEST SWAP3 POP PUSH2 0x4A62 PUSH1 0x40 PUSH2 0x4C8B JUMP JUMPDEST SWAP2 POP PUSH2 0x820 PUSH1 0x60 PUSH2 0x4C8B JUMP JUMPDEST PUSH1 0xE0 SHL PUSH1 0x70 SWAP2 SWAP1 SWAP2 SHL ADD ADD SWAP1 JUMP JUMPDEST PUSH1 0x0 DUP4 DUP4 ADD PUSH2 0x4A9F DUP6 DUP3 LT DUP1 ISZERO SWAP1 PUSH2 0x4A97 JUMPI POP PUSH1 0x1 PUSH1 0x70 SHL DUP3 LT JUMPDEST PUSH2 0x20E PUSH2 0x52B JUMP JUMPDEST PUSH2 0x4443 DUP6 DUP6 DUP6 PUSH2 0x4A6E JUMP JUMPDEST PUSH1 0x0 PUSH2 0x4ABA DUP4 DUP4 GT ISZERO PUSH1 0x1 PUSH2 0x52B JUMP JUMPDEST POP SWAP1 SUB SWAP1 JUMP JUMPDEST PUSH1 0x0 DUP1 PUSH2 0x4AD0 DUP4 PUSH2 0x4351 DUP7 PUSH2 0x2706 JUMP JUMPDEST SWAP1 POP PUSH1 0x0 PUSH2 0x4AE1 DUP5 PUSH2 0x4320 DUP8 PUSH2 0x2712 JUMP JUMPDEST SWAP1 POP PUSH1 0x0 PUSH2 0x4AEE DUP7 PUSH2 0x2721 JUMP JUMPDEST SWAP1 POP PUSH2 0x1271 DUP4 DUP4 DUP4 PUSH2 0x4A7C JUMP JUMPDEST PUSH1 0x0 DUP1 PUSH1 0x0 DUP1 PUSH1 0x0 PUSH2 0x4B0C DUP10 PUSH2 0x39D9 JUMP JUMPDEST SWAP5 POP POP SWAP4 POP SWAP4 POP SWAP4 POP PUSH1 0x0 DUP4 PUSH1 0x1 PUSH1 0x1 PUSH1 0xA0 SHL SUB AND DUP10 PUSH1 0x1 PUSH1 0x1 PUSH1 0xA0 SHL SUB AND EQ ISZERO PUSH2 0x4B57 JUMPI PUSH1 0x0 PUSH2 0x4B41 DUP5 DUP10 DUP12 PUSH4 0xFFFFFFFF AND JUMP JUMPDEST SWAP1 POP PUSH2 0x4B4D DUP2 DUP6 PUSH2 0x4C95 JUMP JUMPDEST SWAP1 SWAP4 POP SWAP1 POP PUSH2 0x4B79 JUMP JUMPDEST PUSH1 0x0 PUSH2 0x4B67 DUP4 DUP10 DUP12 PUSH4 0xFFFFFFFF AND JUMP JUMPDEST SWAP1 POP PUSH2 0x4B73 DUP2 DUP5 PUSH2 0x4C95 JUMP JUMPDEST SWAP1 SWAP3 POP SWAP1 POP JUMPDEST PUSH2 0x4B83 DUP4 DUP4 PUSH2 0x429C JUMP JUMPDEST DUP6 SSTORE PUSH2 0x4B8F DUP4 DUP4 PUSH2 0x4CB1 JUMP JUMPDEST PUSH1 0x1 SWAP1 SWAP6 ADD SWAP5 SWAP1 SWAP5 SSTORE POP SWAP2 SWAP3 POP POP POP SWAP5 SWAP4 POP POP POP POP JUMP JUMPDEST PUSH1 0x0 DUP1 PUSH2 0x4BB3 DUP7 DUP7 PUSH2 0x2680 JUMP JUMPDEST SWAP1 POP PUSH1 0x0 PUSH2 0x4BC5 DUP3 DUP6 DUP8 PUSH4 0xFFFFFFFF AND JUMP JUMPDEST PUSH1 0x0 DUP9 DUP2 MSTORE PUSH1 0x7 PUSH1 0x20 SWAP1 DUP2 MSTORE PUSH1 0x40 DUP1 DUP4 KECCAK256 PUSH1 0x1 PUSH1 0x1 PUSH1 0xA0 SHL SUB DUP12 AND DUP5 MSTORE SWAP1 SWAP2 MSTORE SWAP1 KECCAK256 DUP2 SWAP1 SSTORE SWAP1 POP PUSH2 0x4BF6 DUP2 DUP4 PUSH2 0x4C95 JUMP JUMPDEST SWAP8 SWAP7 POP POP POP POP POP POP POP JUMP JUMPDEST PUSH1 0x0 DUP5 DUP2 MSTORE PUSH1 0x1 PUSH1 0x20 MSTORE PUSH1 0x40 DUP2 KECCAK256 DUP2 PUSH2 0x4C1A DUP3 DUP8 PUSH2 0x33BF JUMP JUMPDEST SWAP1 POP PUSH1 0x0 PUSH2 0x4C2C DUP3 DUP7 DUP9 PUSH4 0xFFFFFFFF AND JUMP JUMPDEST SWAP1 POP PUSH2 0x4C39 DUP4 DUP9 DUP4 PUSH2 0x3130 JUMP JUMPDEST POP PUSH2 0x4C44 DUP2 DUP4 PUSH2 0x4C95 JUMP JUMPDEST SWAP9 SWAP8 POP POP POP POP POP POP POP POP JUMP JUMPDEST PUSH1 0x0 DUP1 PUSH2 0x4C60 DUP4 PUSH2 0x4320 DUP7 PUSH2 0x2706 JUMP JUMPDEST SWAP1 POP PUSH1 0x0 PUSH2 0x4AE1 DUP5 PUSH2 0x4351 DUP8 PUSH2 0x2712 JUMP JUMPDEST PUSH1 0x0 DUP1 PUSH2 0x4C7D DUP5 PUSH2 0x2706 JUMP JUMPDEST SWAP1 POP NUMBER PUSH2 0x4443 DUP3 DUP6 DUP4 PUSH2 0x4A7C JUMP JUMPDEST CALLDATASIZE ADD PUSH1 0x7F NOT ADD CALLDATALOAD SWAP1 JUMP JUMPDEST PUSH1 0x0 PUSH2 0x4CA0 DUP3 PUSH2 0x2712 JUMP JUMPDEST PUSH2 0x4CA9 DUP5 PUSH2 0x2712 JUMP JUMPDEST SUB SWAP4 SWAP3 POP POP POP JUMP JUMPDEST PUSH1 0x0 PUSH2 0x16A4 PUSH2 0x4CBF DUP5 PUSH2 0x2712 JUMP JUMPDEST PUSH2 0x4CC8 DUP5 PUSH2 0x2712 JUMP JUMPDEST PUSH1 0x0 PUSH2 0x4A6E JUMP JUMPDEST PUSH1 0x40 DUP1 MLOAD PUSH2 0x120 DUP2 ADD SWAP1 SWAP2 MSTORE DUP1 PUSH1 0x0 DUP2 MSTORE PUSH1 0x0 PUSH1 0x20 DUP3 ADD DUP2 SWAP1 MSTORE PUSH1 0x40 DUP3 ADD DUP2 SWAP1 MSTORE PUSH1 0x60 DUP1 DUP4 ADD DUP3 SWAP1 MSTORE PUSH1 0x80 DUP4 ADD DUP3 SWAP1 MSTORE PUSH1 0xA0 DUP4 ADD DUP3 SWAP1 MSTORE PUSH1 0xC0 DUP4 ADD DUP3 SWAP1 MSTORE PUSH1 0xE0 DUP4 ADD SWAP2 SWAP1 SWAP2 MSTORE PUSH2 0x100 SWAP1 SWAP2 ADD MSTORE SWAP1 JUMP JUMPDEST PUSH1 0x40 DUP1 MLOAD PUSH1 0x80 DUP2 ADD SWAP1 SWAP2 MSTORE DUP1 PUSH1 0x0 DUP2 MSTORE PUSH1 0x0 PUSH1 0x20 DUP3 ADD DUP2 SWAP1 MSTORE PUSH1 0x40 DUP3 ADD DUP2 SWAP1 MSTORE PUSH1 0x60 SWAP1 SWAP2 ADD MSTORE SWAP1 JUMP JUMPDEST PUSH1 0x40 MLOAD DUP1 PUSH1 0x80 ADD PUSH1 0x40 MSTORE DUP1 PUSH1 0x60 DUP2 MSTORE PUSH1 0x20 ADD PUSH1 0x60 DUP2 MSTORE PUSH1 0x20 ADD PUSH1 0x60 DUP2 MSTORE PUSH1 0x20 ADD PUSH1 0x0 ISZERO ISZERO DUP2 MSTORE POP SWAP1 JUMP JUMPDEST PUSH1 0x40 MLOAD DUP1 PUSH1 0xA0 ADD PUSH1 0x40 MSTORE DUP1 PUSH1 0x0 DUP1 NOT AND DUP2 MSTORE PUSH1 0x20 ADD PUSH1 0x0 DUP2 MSTORE PUSH1 0x20 ADD PUSH1 0x0 DUP2 MSTORE PUSH1 0x20 ADD PUSH1 0x0 DUP2 MSTORE PUSH1 0x20 ADD PUSH1 0x60 DUP2 MSTORE POP SWAP1 JUMP JUMPDEST DUP1 CALLDATALOAD PUSH2 0x60F DUP2 PUSH2 0x5EAD JUMP JUMPDEST PUSH1 0x0 DUP3 PUSH1 0x1F DUP4 ADD SLT PUSH2 0x4DBF JUMPI DUP1 DUP2 REVERT JUMPDEST DUP2 CALLDATALOAD PUSH1 0x20 PUSH2 0x4DD4 PUSH2 0x4DCF DUP4 PUSH2 0x5E90 JUMP JUMPDEST PUSH2 0x5E6D JUMP JUMPDEST DUP3 DUP2 MSTORE DUP2 DUP2 ADD SWAP1 DUP6 DUP4 ADD DUP4 DUP6 MUL DUP8 ADD DUP5 ADD DUP9 LT ISZERO PUSH2 0x4DF0 JUMPI DUP6 DUP7 REVERT JUMPDEST DUP6 JUMPDEST DUP6 DUP2 LT ISZERO PUSH2 0x4E17 JUMPI DUP2 CALLDATALOAD PUSH2 0x4E05 DUP2 PUSH2 0x5EAD JUMP JUMPDEST DUP5 MSTORE SWAP3 DUP5 ADD SWAP3 SWAP1 DUP5 ADD SWAP1 PUSH1 0x1 ADD PUSH2 0x4DF2 JUMP JUMPDEST POP SWAP1 SWAP8 SWAP7 POP POP POP POP POP POP POP JUMP JUMPDEST PUSH1 0x0 DUP3 PUSH1 0x1F DUP4 ADD SLT PUSH2 0x4E34 JUMPI DUP1 DUP2 REVERT JUMPDEST DUP2 CALLDATALOAD PUSH1 0x20 PUSH2 0x4E44 PUSH2 0x4DCF DUP4 PUSH2 0x5E90 JUMP JUMPDEST DUP3 DUP2 MSTORE DUP2 DUP2 ADD SWAP1 DUP6 DUP4 ADD DUP4 DUP6 MUL DUP8 ADD DUP5 ADD DUP9 LT ISZERO PUSH2 0x4E60 JUMPI DUP6 DUP7 REVERT JUMPDEST DUP6 JUMPDEST DUP6 DUP2 LT ISZERO PUSH2 0x4E17 JUMPI DUP2 CALLDATALOAD PUSH2 0x4E75 DUP2 PUSH2 0x5EAD JUMP JUMPDEST DUP5 MSTORE SWAP3 DUP5 ADD SWAP3 SWAP1 DUP5 ADD SWAP1 PUSH1 0x1 ADD PUSH2 0x4E62 JUMP JUMPDEST PUSH1 0x0 DUP3 PUSH1 0x1F DUP4 ADD SLT PUSH2 0x4E97 JUMPI DUP1 DUP2 REVERT JUMPDEST DUP2 CALLDATALOAD PUSH1 0x20 PUSH2 0x4EA7 PUSH2 0x4DCF DUP4 PUSH2 0x5E90 JUMP JUMPDEST DUP3 DUP2 MSTORE DUP2 DUP2 ADD SWAP1 DUP6 DUP4 ADD DUP6 JUMPDEST DUP6 DUP2 LT ISZERO PUSH2 0x4E17 JUMPI DUP2 CALLDATALOAD DUP9 ADD PUSH1 0xA0 DUP1 PUSH1 0x1F NOT DUP4 DUP14 SUB ADD SLT ISZERO PUSH2 0x4ED3 JUMPI DUP9 DUP10 REVERT JUMPDEST PUSH1 0x40 DUP1 MLOAD DUP3 DUP2 ADD PUSH1 0x1 PUSH1 0x1 PUSH1 0x40 SHL SUB DUP3 DUP3 LT DUP2 DUP4 GT OR ISZERO PUSH2 0x4EF0 JUMPI INVALID JUMPDEST DUP2 DUP5 MSTORE DUP11 DUP7 ADD CALLDATALOAD DUP4 MSTORE DUP4 DUP7 ADD CALLDATALOAD DUP12 DUP5 ADD MSTORE PUSH1 0x60 SWAP2 POP DUP2 DUP7 ADD CALLDATALOAD DUP5 DUP5 ADD MSTORE PUSH1 0x80 SWAP4 POP DUP4 DUP7 ADD CALLDATALOAD DUP3 DUP5 ADD MSTORE DUP5 DUP7 ADD CALLDATALOAD SWAP5 POP DUP1 DUP6 GT ISZERO PUSH2 0x4F2B JUMPI DUP13 DUP14 REVERT JUMPDEST POP POP PUSH2 0x4F3B DUP14 DUP11 DUP6 DUP8 ADD ADD PUSH2 0x5015 JUMP JUMPDEST SWAP2 DUP2 ADD SWAP2 SWAP1 SWAP2 MSTORE DUP7 MSTORE POP POP SWAP3 DUP5 ADD SWAP3 SWAP1 DUP5 ADD SWAP1 PUSH1 0x1 ADD PUSH2 0x4EB3 JUMP JUMPDEST PUSH1 0x0 DUP3 PUSH1 0x1F DUP4 ADD SLT PUSH2 0x4F66 JUMPI DUP1 DUP2 REVERT JUMPDEST DUP2 CALLDATALOAD PUSH1 0x20 PUSH2 0x4F76 PUSH2 0x4DCF DUP4 PUSH2 0x5E90 JUMP JUMPDEST DUP3 DUP2 MSTORE DUP2 DUP2 ADD SWAP1 DUP6 DUP4 ADD DUP4 DUP6 MUL DUP8 ADD DUP5 ADD DUP9 LT ISZERO PUSH2 0x4F92 JUMPI DUP6 DUP7 REVERT JUMPDEST DUP6 JUMPDEST DUP6 DUP2 LT ISZERO PUSH2 0x4E17 JUMPI DUP2 CALLDATALOAD DUP5 MSTORE SWAP3 DUP5 ADD SWAP3 SWAP1 DUP5 ADD SWAP1 PUSH1 0x1 ADD PUSH2 0x4F94 JUMP JUMPDEST PUSH1 0x0 DUP3 PUSH1 0x1F DUP4 ADD SLT PUSH2 0x4FC0 JUMPI DUP1 DUP2 REVERT JUMPDEST DUP2 MLOAD PUSH1 0x20 PUSH2 0x4FD0 PUSH2 0x4DCF DUP4 PUSH2 0x5E90 JUMP JUMPDEST DUP3 DUP2 MSTORE DUP2 DUP2 ADD SWAP1 DUP6 DUP4 ADD DUP4 DUP6 MUL DUP8 ADD DUP5 ADD DUP9 LT ISZERO PUSH2 0x4FEC JUMPI DUP6 DUP7 REVERT JUMPDEST DUP6 JUMPDEST DUP6 DUP2 LT ISZERO PUSH2 0x4E17 JUMPI DUP2 MLOAD DUP5 MSTORE SWAP3 DUP5 ADD SWAP3 SWAP1 DUP5 ADD SWAP1 PUSH1 0x1 ADD PUSH2 0x4FEE JUMP JUMPDEST DUP1 CALLDATALOAD PUSH2 0x60F DUP2 PUSH2 0x5EC2 JUMP JUMPDEST PUSH1 0x0 DUP3 PUSH1 0x1F DUP4 ADD SLT PUSH2 0x5025 JUMPI DUP1 DUP2 REVERT JUMPDEST DUP2 CALLDATALOAD PUSH1 0x1 PUSH1 0x1 PUSH1 0x40 SHL SUB DUP2 GT ISZERO PUSH2 0x5038 JUMPI INVALID JUMPDEST PUSH2 0x504B PUSH1 0x1F DUP3 ADD PUSH1 0x1F NOT AND PUSH1 0x20 ADD PUSH2 0x5E6D JUMP JUMPDEST DUP2 DUP2 MSTORE DUP5 PUSH1 0x20 DUP4 DUP7 ADD ADD GT ISZERO PUSH2 0x505F JUMPI DUP3 DUP4 REVERT JUMPDEST DUP2 PUSH1 0x20 DUP6 ADD PUSH1 0x20 DUP4 ADD CALLDATACOPY SWAP1 DUP2 ADD PUSH1 0x20 ADD SWAP2 SWAP1 SWAP2 MSTORE SWAP3 SWAP2 POP POP JUMP JUMPDEST DUP1 CALLDATALOAD PUSH1 0x2 DUP2 LT PUSH2 0x60F JUMPI PUSH1 0x0 DUP1 REVERT JUMPDEST PUSH1 0x0 PUSH1 0x80 DUP3 DUP5 SUB SLT ISZERO PUSH2 0x5099 JUMPI DUP1 DUP2 REVERT JUMPDEST PUSH2 0x50A3 PUSH1 0x80 PUSH2 0x5E6D JUMP JUMPDEST SWAP1 POP DUP2 CALLDATALOAD PUSH1 0x1 PUSH1 0x1 PUSH1 0x40 SHL SUB DUP1 DUP3 GT ISZERO PUSH2 0x50BC JUMPI PUSH1 0x0 DUP1 REVERT JUMPDEST PUSH2 0x50C8 DUP6 DUP4 DUP7 ADD PUSH2 0x4DAF JUMP JUMPDEST DUP4 MSTORE PUSH1 0x20 DUP5 ADD CALLDATALOAD SWAP2 POP DUP1 DUP3 GT ISZERO PUSH2 0x50DE JUMPI PUSH1 0x0 DUP1 REVERT JUMPDEST PUSH2 0x50EA DUP6 DUP4 DUP7 ADD PUSH2 0x4F56 JUMP JUMPDEST PUSH1 0x20 DUP5 ADD MSTORE PUSH1 0x40 DUP5 ADD CALLDATALOAD SWAP2 POP DUP1 DUP3 GT ISZERO PUSH2 0x5103 JUMPI PUSH1 0x0 DUP1 REVERT JUMPDEST POP PUSH2 0x5110 DUP5 DUP3 DUP6 ADD PUSH2 0x5015 JUMP JUMPDEST PUSH1 0x40 DUP4 ADD MSTORE POP PUSH2 0x5122 PUSH1 0x60 DUP4 ADD PUSH2 0x500A JUMP JUMPDEST PUSH1 0x60 DUP3 ADD MSTORE SWAP3 SWAP2 POP POP JUMP JUMPDEST PUSH1 0x0 PUSH1 0x80 DUP3 DUP5 SUB SLT ISZERO PUSH2 0x513E JUMPI DUP1 DUP2 REVERT JUMPDEST PUSH1 0x40 MLOAD PUSH1 0x80 DUP2 ADD DUP2 DUP2 LT PUSH1 0x1 PUSH1 0x1 PUSH1 0x40 SHL SUB DUP3 GT OR ISZERO PUSH2 0x515A JUMPI INVALID JUMPDEST PUSH1 0x40 MSTORE SWAP1 POP DUP1 DUP3 CALLDATALOAD PUSH2 0x516B DUP2 PUSH2 0x5EAD JUMP JUMPDEST DUP2 MSTORE PUSH1 0x20 DUP4 ADD CALLDATALOAD PUSH2 0x517B DUP2 PUSH2 0x5EC2 JUMP JUMPDEST PUSH1 0x20 DUP3 ADD MSTORE PUSH1 0x40 DUP4 ADD CALLDATALOAD PUSH2 0x518E DUP2 PUSH2 0x5EAD JUMP JUMPDEST PUSH1 0x40 DUP3 ADD MSTORE PUSH1 0x60 DUP4 ADD CALLDATALOAD PUSH2 0x51A1 DUP2 PUSH2 0x5EC2 JUMP JUMPDEST PUSH1 0x60 SWAP2 SWAP1 SWAP2 ADD MSTORE SWAP3 SWAP2 POP POP JUMP JUMPDEST PUSH1 0x0 PUSH1 0x20 DUP3 DUP5 SUB SLT ISZERO PUSH2 0x51BF JUMPI DUP1 DUP2 REVERT JUMPDEST DUP2 CALLDATALOAD PUSH2 0x16A4 DUP2 PUSH2 0x5EAD JUMP JUMPDEST PUSH1 0x0 DUP1 PUSH1 0x40 DUP4 DUP6 SUB SLT ISZERO PUSH2 0x51DC JUMPI DUP1 DUP2 REVERT JUMPDEST DUP3 CALLDATALOAD PUSH2 0x51E7 DUP2 PUSH2 0x5EAD JUMP JUMPDEST SWAP2 POP PUSH1 0x20 DUP4 ADD CALLDATALOAD PUSH2 0x51F7 DUP2 PUSH2 0x5EAD JUMP JUMPDEST DUP1 SWAP2 POP POP SWAP3 POP SWAP3 SWAP1 POP JUMP JUMPDEST PUSH1 0x0 DUP1 PUSH1 0x0 PUSH1 0x60 DUP5 DUP7 SUB SLT ISZERO PUSH2 0x5216 JUMPI DUP1 DUP2 REVERT JUMPDEST DUP4 CALLDATALOAD PUSH2 0x5221 DUP2 PUSH2 0x5EAD JUMP JUMPDEST SWAP3 POP PUSH1 0x20 DUP5 ADD CALLDATALOAD PUSH2 0x5231 DUP2 PUSH2 0x5EAD JUMP JUMPDEST SWAP2 POP PUSH1 0x40 DUP5 ADD CALLDATALOAD PUSH2 0x5241 DUP2 PUSH2 0x5EC2 JUMP JUMPDEST DUP1 SWAP2 POP POP SWAP3 POP SWAP3 POP SWAP3 JUMP JUMPDEST PUSH1 0x0 DUP1 PUSH1 0x40 DUP4 DUP6 SUB SLT ISZERO PUSH2 0x525E JUMPI DUP2 DUP3 REVERT JUMPDEST DUP3 CALLDATALOAD PUSH2 0x5269 DUP2 PUSH2 0x5EAD JUMP JUMPDEST SWAP2 POP PUSH1 0x20 DUP4 ADD CALLDATALOAD PUSH1 0x1 PUSH1 0x1 PUSH1 0x40 SHL SUB DUP2 GT ISZERO PUSH2 0x5283 JUMPI DUP2 DUP3 REVERT JUMPDEST PUSH2 0x528F DUP6 DUP3 DUP7 ADD PUSH2 0x4E24 JUMP JUMPDEST SWAP2 POP POP SWAP3 POP SWAP3 SWAP1 POP JUMP JUMPDEST PUSH1 0x0 PUSH1 0x20 DUP1 DUP4 DUP6 SUB SLT ISZERO PUSH2 0x52AB JUMPI DUP2 DUP3 REVERT JUMPDEST DUP3 CALLDATALOAD PUSH1 0x1 PUSH1 0x1 PUSH1 0x40 SHL SUB DUP1 DUP3 GT ISZERO PUSH2 0x52C1 JUMPI DUP4 DUP5 REVERT JUMPDEST DUP2 DUP6 ADD SWAP2 POP DUP6 PUSH1 0x1F DUP4 ADD SLT PUSH2 0x52D4 JUMPI DUP4 DUP5 REVERT JUMPDEST DUP2 CALLDATALOAD PUSH2 0x52E2 PUSH2 0x4DCF DUP3 PUSH2 0x5E90 JUMP JUMPDEST DUP2 DUP2 MSTORE DUP5 DUP2 ADD SWAP1 DUP5 DUP7 ADD PUSH1 0x80 DUP1 DUP6 MUL DUP8 ADD DUP9 ADD DUP12 LT ISZERO PUSH2 0x5300 JUMPI DUP9 DUP10 REVERT JUMPDEST DUP9 SWAP7 POP JUMPDEST DUP5 DUP8 LT ISZERO PUSH2 0x537A JUMPI DUP1 DUP3 DUP13 SUB SLT ISZERO PUSH2 0x531A JUMPI DUP9 DUP10 REVERT JUMPDEST PUSH1 0x40 DUP1 MLOAD DUP3 DUP2 ADD DUP2 DUP2 LT DUP10 DUP3 GT OR ISZERO PUSH2 0x532F JUMPI INVALID JUMPDEST DUP3 MSTORE DUP4 CALLDATALOAD PUSH2 0x533C DUP2 PUSH2 0x5ED0 JUMP JUMPDEST DUP2 MSTORE DUP4 DUP11 ADD CALLDATALOAD DUP11 DUP3 ADD MSTORE DUP2 DUP5 ADD CALLDATALOAD PUSH2 0x5353 DUP2 PUSH2 0x5EAD JUMP JUMPDEST SWAP2 DUP2 ADD SWAP2 SWAP1 SWAP2 MSTORE PUSH1 0x60 DUP4 DUP2 ADD CALLDATALOAD SWAP1 DUP3 ADD MSTORE DUP5 MSTORE PUSH1 0x1 SWAP7 SWAP1 SWAP7 ADD SWAP6 SWAP3 DUP8 ADD SWAP3 SWAP1 DUP2 ADD SWAP1 PUSH2 0x5304 JUMP JUMPDEST POP SWAP1 SWAP10 SWAP9 POP POP POP POP POP POP POP POP POP JUMP JUMPDEST PUSH1 0x0 PUSH1 0x20 DUP1 DUP4 DUP6 SUB SLT ISZERO PUSH2 0x539B JUMPI DUP2 DUP3 REVERT JUMPDEST DUP3 CALLDATALOAD PUSH1 0x1 PUSH1 0x1 PUSH1 0x40 SHL SUB DUP1 DUP3 GT ISZERO PUSH2 0x53B1 JUMPI DUP4 DUP5 REVERT JUMPDEST DUP2 DUP6 ADD SWAP2 POP DUP6 PUSH1 0x1F DUP4 ADD SLT PUSH2 0x53C4 JUMPI DUP4 DUP5 REVERT JUMPDEST DUP2 CALLDATALOAD PUSH2 0x53D2 PUSH2 0x4DCF DUP3 PUSH2 0x5E90 JUMP JUMPDEST DUP2 DUP2 MSTORE DUP5 DUP2 ADD SWAP1 DUP5 DUP7 ADD PUSH1 0xA0 DUP1 DUP6 MUL DUP8 ADD DUP9 ADD DUP12 LT ISZERO PUSH2 0x53F0 JUMPI DUP9 DUP10 REVERT JUMPDEST DUP9 SWAP7 POP JUMPDEST DUP5 DUP8 LT ISZERO PUSH2 0x537A JUMPI DUP1 DUP3 DUP13 SUB SLT ISZERO PUSH2 0x540A JUMPI DUP9 DUP10 REVERT JUMPDEST PUSH1 0x40 DUP1 MLOAD DUP3 DUP2 ADD DUP2 DUP2 LT DUP10 DUP3 GT OR ISZERO PUSH2 0x541F JUMPI INVALID JUMPDEST DUP3 MSTORE DUP4 CALLDATALOAD PUSH1 0x4 DUP2 LT PUSH2 0x542F JUMPI DUP12 DUP13 REVERT JUMPDEST DUP2 MSTORE PUSH2 0x543C DUP5 DUP12 ADD PUSH2 0x4DA4 JUMP JUMPDEST DUP11 DUP3 ADD MSTORE DUP2 DUP5 ADD CALLDATALOAD DUP3 DUP3 ADD MSTORE PUSH1 0x60 SWAP2 POP PUSH2 0x5457 DUP3 DUP6 ADD PUSH2 0x4DA4 JUMP JUMPDEST DUP3 DUP3 ADD MSTORE PUSH1 0x80 SWAP2 POP PUSH2 0x546A DUP3 DUP6 ADD PUSH2 0x4DA4 JUMP JUMPDEST SWAP2 DUP2 ADD SWAP2 SWAP1 SWAP2 MSTORE DUP5 MSTORE PUSH1 0x1 SWAP7 SWAP1 SWAP7 ADD SWAP6 SWAP3 DUP8 ADD SWAP3 SWAP1 DUP2 ADD SWAP1 PUSH2 0x53F4 JUMP JUMPDEST PUSH1 0x0 DUP1 PUSH1 0x40 DUP4 DUP6 SUB SLT ISZERO PUSH2 0x5499 JUMPI DUP2 DUP3 REVERT JUMPDEST DUP3 MLOAD PUSH1 0x1 PUSH1 0x1 PUSH1 0x40 SHL SUB DUP1 DUP3 GT ISZERO PUSH2 0x54AF JUMPI DUP4 DUP5 REVERT JUMPDEST PUSH2 0x54BB DUP7 DUP4 DUP8 ADD PUSH2 0x4FB0 JUMP JUMPDEST SWAP4 POP PUSH1 0x20 DUP6 ADD MLOAD SWAP2 POP DUP1 DUP3 GT ISZERO PUSH2 0x54D0 JUMPI DUP3 DUP4 REVERT JUMPDEST POP PUSH2 0x528F DUP6 DUP3 DUP7 ADD PUSH2 0x4FB0 JUMP JUMPDEST PUSH1 0x0 PUSH1 0x20 DUP3 DUP5 SUB SLT ISZERO PUSH2 0x54EE JUMPI DUP1 DUP2 REVERT JUMPDEST DUP2 CALLDATALOAD PUSH2 0x16A4 DUP2 PUSH2 0x5EC2 JUMP JUMPDEST PUSH1 0x0 PUSH1 0x20 DUP3 DUP5 SUB SLT ISZERO PUSH2 0x550A JUMPI DUP1 DUP2 REVERT JUMPDEST DUP2 MLOAD PUSH2 0x16A4 DUP2 PUSH2 0x5EC2 JUMP JUMPDEST PUSH1 0x0 PUSH1 0x20 DUP3 DUP5 SUB SLT ISZERO PUSH2 0x5526 JUMPI DUP1 DUP2 REVERT JUMPDEST POP CALLDATALOAD SWAP2 SWAP1 POP JUMP JUMPDEST PUSH1 0x0 DUP1 PUSH1 0x0 DUP1 PUSH1 0x80 DUP6 DUP8 SUB SLT ISZERO PUSH2 0x5542 JUMPI DUP2 DUP3 REVERT JUMPDEST DUP5 CALLDATALOAD SWAP4 POP PUSH1 0x20 DUP6 ADD CALLDATALOAD PUSH2 0x5554 DUP2 PUSH2 0x5EAD JUMP JUMPDEST SWAP3 POP PUSH1 0x40 DUP6 ADD CALLDATALOAD PUSH2 0x5564 DUP2 PUSH2 0x5EAD JUMP JUMPDEST SWAP2 POP PUSH1 0x60 DUP6 ADD CALLDATALOAD PUSH1 0x1 PUSH1 0x1 PUSH1 0x40 SHL SUB DUP2 GT ISZERO PUSH2 0x557E JUMPI DUP2 DUP3 REVERT JUMPDEST PUSH2 0x558A DUP8 DUP3 DUP9 ADD PUSH2 0x5088 JUMP JUMPDEST SWAP2 POP POP SWAP3 SWAP6 SWAP2 SWAP5 POP SWAP3 POP JUMP JUMPDEST PUSH1 0x0 DUP1 PUSH1 0x40 DUP4 DUP6 SUB SLT ISZERO PUSH2 0x55A8 JUMPI DUP2 DUP3 REVERT JUMPDEST DUP3 CALLDATALOAD SWAP2 POP PUSH1 0x20 DUP4 ADD CALLDATALOAD PUSH1 0x1 PUSH1 0x1 PUSH1 0x40 SHL SUB DUP2 GT ISZERO PUSH2 0x5283 JUMPI DUP2 DUP3 REVERT JUMPDEST PUSH1 0x0 DUP1 PUSH1 0x0 PUSH1 0x60 DUP5 DUP7 SUB SLT ISZERO PUSH2 0x55D8 JUMPI DUP1 DUP2 REVERT JUMPDEST DUP4 CALLDATALOAD SWAP3 POP PUSH1 0x20 DUP1 DUP6 ADD CALLDATALOAD PUSH1 0x1 PUSH1 0x1 PUSH1 0x40 SHL SUB DUP1 DUP3 GT ISZERO PUSH2 0x55F6 JUMPI DUP4 DUP5 REVERT JUMPDEST PUSH2 0x5602 DUP9 DUP4 DUP10 ADD PUSH2 0x4E24 JUMP JUMPDEST SWAP5 POP PUSH1 0x40 DUP8 ADD CALLDATALOAD SWAP2 POP DUP1 DUP3 GT ISZERO PUSH2 0x5617 JUMPI DUP4 DUP5 REVERT JUMPDEST POP DUP6 ADD PUSH1 0x1F DUP2 ADD DUP8 SGT PUSH2 0x5628 JUMPI DUP3 DUP4 REVERT JUMPDEST DUP1 CALLDATALOAD PUSH2 0x5636 PUSH2 0x4DCF DUP3 PUSH2 0x5E90 JUMP JUMPDEST DUP2 DUP2 MSTORE DUP4 DUP2 ADD SWAP1 DUP4 DUP6 ADD DUP6 DUP5 MUL DUP6 ADD DUP7 ADD DUP12 LT ISZERO PUSH2 0x5652 JUMPI DUP7 DUP8 REVERT JUMPDEST DUP7 SWAP5 POP JUMPDEST DUP4 DUP6 LT ISZERO PUSH2 0x567D JUMPI DUP1 CALLDATALOAD PUSH2 0x5669 DUP2 PUSH2 0x5EAD JUMP JUMPDEST DUP4 MSTORE PUSH1 0x1 SWAP5 SWAP1 SWAP5 ADD SWAP4 SWAP2 DUP6 ADD SWAP2 DUP6 ADD PUSH2 0x5656 JUMP JUMPDEST POP DUP1 SWAP6 POP POP POP POP POP POP SWAP3 POP SWAP3 POP SWAP3 JUMP JUMPDEST PUSH1 0x0 DUP1 PUSH1 0x40 DUP4 DUP6 SUB SLT ISZERO PUSH2 0x569F JUMPI DUP2 DUP3 REVERT JUMPDEST DUP3 CALLDATALOAD SWAP2 POP PUSH1 0x20 DUP4 ADD CALLDATALOAD PUSH2 0x51F7 DUP2 PUSH2 0x5EAD JUMP JUMPDEST PUSH1 0x0 PUSH1 0x20 DUP3 DUP5 SUB SLT ISZERO PUSH2 0x56C2 JUMPI DUP1 DUP2 REVERT JUMPDEST DUP2 CALLDATALOAD PUSH1 0x1 PUSH1 0x1 PUSH1 0xE0 SHL SUB NOT DUP2 AND DUP2 EQ PUSH2 0x16A4 JUMPI DUP2 DUP3 REVERT JUMPDEST PUSH1 0x0 DUP1 PUSH1 0x0 DUP1 PUSH1 0x80 DUP6 DUP8 SUB SLT ISZERO PUSH2 0x56EE JUMPI DUP2 DUP3 REVERT JUMPDEST DUP5 CALLDATALOAD PUSH2 0x56F9 DUP2 PUSH2 0x5EAD JUMP JUMPDEST SWAP4 POP PUSH1 0x20 DUP6 ADD CALLDATALOAD PUSH1 0x1 PUSH1 0x1 PUSH1 0x40 SHL SUB DUP1 DUP3 GT ISZERO PUSH2 0x5714 JUMPI DUP4 DUP5 REVERT JUMPDEST PUSH2 0x5720 DUP9 DUP4 DUP10 ADD PUSH2 0x4E24 JUMP JUMPDEST SWAP5 POP PUSH1 0x40 DUP8 ADD CALLDATALOAD SWAP2 POP DUP1 DUP3 GT ISZERO PUSH2 0x5735 JUMPI DUP4 DUP5 REVERT JUMPDEST PUSH2 0x5741 DUP9 DUP4 DUP10 ADD PUSH2 0x4F56 JUMP JUMPDEST SWAP4 POP PUSH1 0x60 DUP8 ADD CALLDATALOAD SWAP2 POP DUP1 DUP3 GT ISZERO PUSH2 0x5756 JUMPI DUP3 DUP4 REVERT JUMPDEST POP PUSH2 0x558A DUP8 DUP3 DUP9 ADD PUSH2 0x5015 JUMP JUMPDEST PUSH1 0x0 PUSH1 0x20 DUP3 DUP5 SUB SLT ISZERO PUSH2 0x5774 JUMPI DUP1 DUP2 REVERT JUMPDEST DUP2 CALLDATALOAD PUSH2 0x16A4 DUP2 PUSH2 0x5ED0 JUMP JUMPDEST PUSH1 0x0 DUP1 PUSH1 0x0 DUP1 PUSH1 0xE0 DUP6 DUP8 SUB SLT ISZERO PUSH2 0x5794 JUMPI DUP2 DUP3 REVERT JUMPDEST PUSH2 0x579D DUP6 PUSH2 0x5079 JUMP JUMPDEST SWAP4 POP PUSH1 0x20 DUP6 ADD CALLDATALOAD PUSH1 0x1 PUSH1 0x1 PUSH1 0x40 SHL SUB DUP1 DUP3 GT ISZERO PUSH2 0x57B8 JUMPI DUP4 DUP5 REVERT JUMPDEST PUSH2 0x57C4 DUP9 DUP4 DUP10 ADD PUSH2 0x4E87 JUMP JUMPDEST SWAP5 POP PUSH1 0x40 DUP8 ADD CALLDATALOAD SWAP2 POP DUP1 DUP3 GT ISZERO PUSH2 0x57D9 JUMPI DUP4 DUP5 REVERT JUMPDEST POP PUSH2 0x57E6 DUP8 DUP3 DUP9 ADD PUSH2 0x4DAF JUMP JUMPDEST SWAP3 POP POP PUSH2 0x57F6 DUP7 PUSH1 0x60 DUP8 ADD PUSH2 0x512D JUMP JUMPDEST SWAP1 POP SWAP3 SWAP6 SWAP2 SWAP5 POP SWAP3 POP JUMP JUMPDEST PUSH1 0x0 DUP1 PUSH1 0x0 DUP1 PUSH1 0x0 DUP1 PUSH2 0x120 DUP8 DUP10 SUB SLT ISZERO PUSH2 0x581A JUMPI DUP4 DUP5 REVERT JUMPDEST PUSH2 0x5823 DUP8 PUSH2 0x5079 JUMP JUMPDEST SWAP6 POP PUSH1 0x20 DUP1 DUP9 ADD CALLDATALOAD PUSH1 0x1 PUSH1 0x1 PUSH1 0x40 SHL SUB DUP1 DUP3 GT ISZERO PUSH2 0x583F JUMPI DUP7 DUP8 REVERT JUMPDEST PUSH2 0x584B DUP12 DUP4 DUP13 ADD PUSH2 0x4E87 JUMP JUMPDEST SWAP8 POP PUSH1 0x40 DUP11 ADD CALLDATALOAD SWAP2 POP DUP1 DUP3 GT ISZERO PUSH2 0x5860 JUMPI DUP7 DUP8 REVERT JUMPDEST PUSH2 0x586C DUP12 DUP4 DUP13 ADD PUSH2 0x4DAF JUMP JUMPDEST SWAP7 POP PUSH2 0x587B DUP12 PUSH1 0x60 DUP13 ADD PUSH2 0x512D JUMP JUMPDEST SWAP6 POP PUSH1 0xE0 DUP11 ADD CALLDATALOAD SWAP2 POP DUP1 DUP3 GT ISZERO PUSH2 0x5890 JUMPI DUP5 DUP6 REVERT JUMPDEST POP DUP9 ADD PUSH1 0x1F DUP2 ADD DUP11 SGT PUSH2 0x58A1 JUMPI DUP4 DUP5 REVERT JUMPDEST DUP1 CALLDATALOAD PUSH2 0x58AF PUSH2 0x4DCF DUP3 PUSH2 0x5E90 JUMP JUMPDEST DUP2 DUP2 MSTORE DUP4 DUP2 ADD SWAP1 DUP4 DUP6 ADD DUP6 DUP5 MUL DUP6 ADD DUP7 ADD DUP15 LT ISZERO PUSH2 0x58CB JUMPI DUP8 DUP9 REVERT JUMPDEST DUP8 SWAP5 POP JUMPDEST DUP4 DUP6 LT ISZERO PUSH2 0x58ED JUMPI DUP1 CALLDATALOAD DUP4 MSTORE PUSH1 0x1 SWAP5 SWAP1 SWAP5 ADD SWAP4 SWAP2 DUP6 ADD SWAP2 DUP6 ADD PUSH2 0x58CF JUMP JUMPDEST POP DUP1 SWAP7 POP POP POP POP POP POP PUSH2 0x100 DUP8 ADD CALLDATALOAD SWAP1 POP SWAP3 SWAP6 POP SWAP3 SWAP6 POP SWAP3 SWAP6 JUMP JUMPDEST PUSH1 0x0 DUP1 PUSH1 0x0 DUP1 PUSH1 0xE0 DUP6 DUP8 SUB SLT ISZERO PUSH2 0x591D JUMPI DUP2 DUP3 REVERT JUMPDEST DUP5 CALLDATALOAD PUSH1 0x1 PUSH1 0x1 PUSH1 0x40 SHL SUB DUP1 DUP3 GT ISZERO PUSH2 0x5933 JUMPI DUP4 DUP5 REVERT JUMPDEST SWAP1 DUP7 ADD SWAP1 PUSH1 0xC0 DUP3 DUP10 SUB SLT ISZERO PUSH2 0x5946 JUMPI DUP4 DUP5 REVERT JUMPDEST PUSH1 0x40 MLOAD PUSH1 0xC0 DUP2 ADD DUP2 DUP2 LT DUP4 DUP3 GT OR ISZERO PUSH2 0x595B JUMPI INVALID JUMPDEST PUSH1 0x40 MSTORE DUP3 CALLDATALOAD DUP2 MSTORE PUSH2 0x596E PUSH1 0x20 DUP5 ADD PUSH2 0x5079 JUMP JUMPDEST PUSH1 0x20 DUP3 ADD MSTORE PUSH2 0x597F PUSH1 0x40 DUP5 ADD PUSH2 0x4DA4 JUMP JUMPDEST PUSH1 0x40 DUP3 ADD MSTORE PUSH2 0x5990 PUSH1 0x60 DUP5 ADD PUSH2 0x4DA4 JUMP JUMPDEST PUSH1 0x60 DUP3 ADD MSTORE PUSH1 0x80 DUP4 ADD CALLDATALOAD PUSH1 0x80 DUP3 ADD MSTORE PUSH1 0xA0 DUP4 ADD CALLDATALOAD DUP3 DUP2 GT ISZERO PUSH2 0x59B0 JUMPI DUP6 DUP7 REVERT JUMPDEST PUSH2 0x59BC DUP11 DUP3 DUP7 ADD PUSH2 0x5015 JUMP JUMPDEST PUSH1 0xA0 DUP4 ADD MSTORE POP DUP1 SWAP7 POP POP POP POP PUSH2 0x59D5 DUP7 PUSH1 0x20 DUP8 ADD PUSH2 0x512D JUMP JUMPDEST SWAP4 SWAP7 SWAP4 SWAP6 POP POP POP POP PUSH1 0xA0 DUP3 ADD CALLDATALOAD SWAP2 PUSH1 0xC0 ADD CALLDATALOAD SWAP1 JUMP JUMPDEST PUSH1 0x0 PUSH1 0x20 DUP3 DUP5 SUB SLT ISZERO PUSH2 0x59FB JUMPI DUP1 DUP2 REVERT JUMPDEST POP MLOAD SWAP2 SWAP1 POP JUMP JUMPDEST PUSH1 0x1 PUSH1 0x1 PUSH1 0xA0 SHL SUB AND SWAP1 MSTORE JUMP JUMPDEST PUSH1 0x0 DUP2 MLOAD DUP1 DUP5 MSTORE PUSH1 0x20 DUP1 DUP6 ADD SWAP5 POP DUP1 DUP5 ADD DUP4 JUMPDEST DUP4 DUP2 LT ISZERO PUSH2 0x5A47 JUMPI DUP2 MLOAD PUSH1 0x1 PUSH1 0x1 PUSH1 0xA0 SHL SUB AND DUP8 MSTORE SWAP6 DUP3 ADD SWAP6 SWAP1 DUP3 ADD SWAP1 PUSH1 0x1 ADD PUSH2 0x5A22 JUMP JUMPDEST POP SWAP5 SWAP6 SWAP5 POP POP POP POP POP JUMP JUMPDEST PUSH1 0x0 DUP2 MLOAD DUP1 DUP5 MSTORE PUSH1 0x20 DUP1 DUP6 ADD SWAP5 POP DUP1 DUP5 ADD DUP4 JUMPDEST DUP4 DUP2 LT ISZERO PUSH2 0x5A47 JUMPI DUP2 MLOAD DUP8 MSTORE SWAP6 DUP3 ADD SWAP6 SWAP1 DUP3 ADD SWAP1 PUSH1 0x1 ADD PUSH2 0x5A65 JUMP JUMPDEST PUSH1 0x0 DUP2 MLOAD DUP1 DUP5 MSTORE DUP2 JUMPDEST DUP2 DUP2 LT ISZERO PUSH2 0x5AA6 JUMPI PUSH1 0x20 DUP2 DUP6 ADD DUP2 ADD MLOAD DUP7 DUP4 ADD DUP3 ADD MSTORE ADD PUSH2 0x5A8A JUMP JUMPDEST DUP2 DUP2 GT ISZERO PUSH2 0x5AB7 JUMPI DUP3 PUSH1 0x20 DUP4 DUP8 ADD ADD MSTORE JUMPDEST POP PUSH1 0x1F ADD PUSH1 0x1F NOT AND SWAP3 SWAP1 SWAP3 ADD PUSH1 0x20 ADD SWAP3 SWAP2 POP POP JUMP JUMPDEST PUSH1 0x3 DUP2 LT PUSH2 0x5AD6 JUMPI INVALID JUMPDEST SWAP1 MSTORE JUMP JUMPDEST PUSH1 0x0 PUSH2 0x120 DUP3 MLOAD PUSH1 0x2 DUP2 LT PUSH2 0x5AEB JUMPI INVALID JUMPDEST DUP1 DUP6 MSTORE POP PUSH1 0x20 DUP4 ADD MLOAD PUSH2 0x5B01 PUSH1 0x20 DUP7 ADD DUP3 PUSH2 0x5A02 JUMP JUMPDEST POP PUSH1 0x40 DUP4 ADD MLOAD PUSH2 0x5B14 PUSH1 0x40 DUP7 ADD DUP3 PUSH2 0x5A02 JUMP JUMPDEST POP PUSH1 0x60 DUP4 ADD MLOAD PUSH1 0x60 DUP6 ADD MSTORE PUSH1 0x80 DUP4 ADD MLOAD PUSH1 0x80 DUP6 ADD MSTORE PUSH1 0xA0 DUP4 ADD MLOAD PUSH1 0xA0 DUP6 ADD MSTORE PUSH1 0xC0 DUP4 ADD MLOAD PUSH2 0x5B45 PUSH1 0xC0 DUP7 ADD DUP3 PUSH2 0x5A02 JUMP JUMPDEST POP PUSH1 0xE0 DUP4 ADD MLOAD PUSH2 0x5B58 PUSH1 0xE0 DUP7 ADD DUP3 PUSH2 0x5A02 JUMP JUMPDEST POP PUSH2 0x100 DUP1 DUP5 ADD MLOAD DUP3 DUP3 DUP8 ADD MSTORE PUSH2 0x1271 DUP4 DUP8 ADD DUP3 PUSH2 0x5A81 JUMP JUMPDEST PUSH1 0x0 DUP3 DUP5 DUP4 CALLDATACOPY SWAP2 ADD SWAP1 DUP2 MSTORE SWAP2 SWAP1 POP JUMP JUMPDEST PUSH12 0xFFFFFFFFFFFFFFFFFFFFFFFF NOT PUSH1 0x60 SWAP4 DUP5 SHL DUP2 AND DUP3 MSTORE SWAP2 SWAP1 SWAP3 SHL AND PUSH1 0x14 DUP3 ADD MSTORE PUSH1 0x28 ADD SWAP1 JUMP JUMPDEST PUSH1 0x1 PUSH1 0x1 PUSH1 0xA0 SHL SUB SWAP2 SWAP1 SWAP2 AND DUP2 MSTORE PUSH1 0x20 ADD SWAP1 JUMP JUMPDEST PUSH1 0x1 PUSH1 0x1 PUSH1 0xA0 SHL SUB DUP4 AND DUP2 MSTORE PUSH1 0x40 DUP2 ADD PUSH2 0x17F7 PUSH1 0x20 DUP4 ADD DUP5 PUSH2 0x5ACC JUMP JUMPDEST PUSH1 0x1 PUSH1 0x1 PUSH1 0xA0 SHL SUB SWAP3 SWAP1 SWAP3 AND DUP3 MSTORE PUSH1 0x20 DUP3 ADD MSTORE PUSH1 0x40 ADD SWAP1 JUMP JUMPDEST PUSH1 0x0 PUSH1 0x20 DUP3 MSTORE PUSH2 0x16A4 PUSH1 0x20 DUP4 ADD DUP5 PUSH2 0x5A0F JUMP JUMPDEST PUSH1 0x0 PUSH1 0x40 DUP3 MSTORE PUSH2 0x5C18 PUSH1 0x40 DUP4 ADD DUP6 PUSH2 0x5A0F JUMP JUMPDEST DUP3 DUP2 SUB PUSH1 0x20 DUP5 DUP2 ADD SWAP2 SWAP1 SWAP2 MSTORE DUP5 MLOAD DUP1 DUP4 MSTORE DUP6 DUP3 ADD SWAP3 DUP3 ADD SWAP1 DUP5 JUMPDEST DUP2 DUP2 LT ISZERO PUSH2 0x4E17 JUMPI DUP5 MLOAD PUSH1 0x1 PUSH1 0x1 PUSH1 0xA0 SHL SUB AND DUP4 MSTORE SWAP4 DUP4 ADD SWAP4 SWAP2 DUP4 ADD SWAP2 PUSH1 0x1 ADD PUSH2 0x5C32 JUMP JUMPDEST PUSH1 0x0 PUSH1 0x60 DUP3 MSTORE PUSH2 0x5C6A PUSH1 0x60 DUP4 ADD DUP7 PUSH2 0x5A0F JUMP JUMPDEST DUP3 DUP2 SUB PUSH1 0x20 DUP5 ADD MSTORE PUSH2 0x5C7C DUP2 DUP7 PUSH2 0x5A52 JUMP JUMPDEST SWAP1 POP DUP3 DUP2 SUB PUSH1 0x40 DUP5 ADD MSTORE PUSH2 0x1271 DUP2 DUP6 PUSH2 0x5A52 JUMP JUMPDEST PUSH1 0x0 PUSH1 0x80 DUP3 MSTORE PUSH2 0x5CA3 PUSH1 0x80 DUP4 ADD DUP8 PUSH2 0x5A0F JUMP JUMPDEST DUP3 DUP2 SUB PUSH1 0x20 DUP5 ADD MSTORE PUSH2 0x5CB5 DUP2 DUP8 PUSH2 0x5A52 JUMP JUMPDEST SWAP1 POP DUP3 DUP2 SUB PUSH1 0x40 DUP5 ADD MSTORE PUSH2 0x5CC9 DUP2 DUP7 PUSH2 0x5A52 JUMP JUMPDEST SWAP1 POP DUP3 DUP2 SUB PUSH1 0x60 DUP5 ADD MSTORE PUSH2 0x4BF6 DUP2 DUP6 PUSH2 0x5A81 JUMP JUMPDEST PUSH1 0x0 PUSH1 0x60 DUP3 MSTORE PUSH2 0x5CF0 PUSH1 0x60 DUP4 ADD DUP7 PUSH2 0x5A0F JUMP JUMPDEST DUP3 DUP2 SUB PUSH1 0x20 DUP5 ADD MSTORE PUSH2 0x5D02 DUP2 DUP7 PUSH2 0x5A52 JUMP JUMPDEST SWAP2 POP POP DUP3 PUSH1 0x40 DUP4 ADD MSTORE SWAP5 SWAP4 POP POP POP POP JUMP JUMPDEST PUSH1 0x0 PUSH1 0x20 DUP3 MSTORE PUSH2 0x16A4 PUSH1 0x20 DUP4 ADD DUP5 PUSH2 0x5A52 JUMP JUMPDEST SWAP1 ISZERO ISZERO DUP2 MSTORE PUSH1 0x20 ADD SWAP1 JUMP JUMPDEST SWAP3 ISZERO ISZERO DUP4 MSTORE PUSH1 0x20 DUP4 ADD SWAP2 SWAP1 SWAP2 MSTORE PUSH1 0x40 DUP3 ADD MSTORE PUSH1 0x60 ADD SWAP1 JUMP JUMPDEST SWAP1 DUP2 MSTORE PUSH1 0x20 ADD SWAP1 JUMP JUMPDEST SWAP3 DUP4 MSTORE PUSH1 0x1 PUSH1 0x1 PUSH1 0xA0 SHL SUB SWAP2 DUP3 AND PUSH1 0x20 DUP5 ADD MSTORE AND PUSH1 0x40 DUP3 ADD MSTORE PUSH1 0x60 ADD SWAP1 JUMP JUMPDEST DUP8 DUP2 MSTORE PUSH1 0x1 PUSH1 0x1 PUSH1 0xA0 SHL SUB DUP8 DUP2 AND PUSH1 0x20 DUP4 ADD MSTORE DUP7 AND PUSH1 0x40 DUP3 ADD MSTORE PUSH1 0xE0 PUSH1 0x60 DUP3 ADD DUP2 SWAP1 MSTORE PUSH1 0x0 SWAP1 PUSH2 0x5DA3 SWAP1 DUP4 ADD DUP8 PUSH2 0x5A52 JUMP JUMPDEST DUP6 PUSH1 0x80 DUP5 ADD MSTORE DUP5 PUSH1 0xA0 DUP5 ADD MSTORE DUP3 DUP2 SUB PUSH1 0xC0 DUP5 ADD MSTORE PUSH2 0x5DC1 DUP2 DUP6 PUSH2 0x5A81 JUMP JUMPDEST SWAP11 SWAP10 POP POP POP POP POP POP POP POP POP POP JUMP JUMPDEST PUSH1 0x20 DUP2 ADD PUSH2 0x16A7 DUP3 DUP5 PUSH2 0x5ACC JUMP JUMPDEST SWAP2 DUP3 MSTORE PUSH1 0x20 DUP3 ADD MSTORE PUSH1 0x40 ADD SWAP1 JUMP JUMPDEST PUSH1 0x0 PUSH1 0x80 DUP3 MSTORE PUSH2 0x5DFE PUSH1 0x80 DUP4 ADD DUP8 PUSH2 0x5ADA JUMP JUMPDEST DUP3 DUP2 SUB PUSH1 0x20 DUP5 ADD MSTORE PUSH2 0x5E10 DUP2 DUP8 PUSH2 0x5A52 JUMP JUMPDEST PUSH1 0x40 DUP5 ADD SWAP6 SWAP1 SWAP6 MSTORE POP POP PUSH1 0x60 ADD MSTORE SWAP3 SWAP2 POP POP JUMP JUMPDEST PUSH1 0x0 PUSH1 0x60 DUP3 MSTORE PUSH2 0x5E37 PUSH1 0x60 DUP4 ADD DUP7 PUSH2 0x5ADA JUMP JUMPDEST PUSH1 0x20 DUP4 ADD SWAP5 SWAP1 SWAP5 MSTORE POP PUSH1 0x40 ADD MSTORE SWAP2 SWAP1 POP JUMP JUMPDEST SWAP4 DUP5 MSTORE PUSH1 0x20 DUP5 ADD SWAP3 SWAP1 SWAP3 MSTORE PUSH1 0x40 DUP4 ADD MSTORE PUSH1 0x1 PUSH1 0x1 PUSH1 0xA0 SHL SUB AND PUSH1 0x60 DUP3 ADD MSTORE PUSH1 0x80 ADD SWAP1 JUMP JUMPDEST PUSH1 0x40 MLOAD DUP2 DUP2 ADD PUSH1 0x1 PUSH1 0x1 PUSH1 0x40 SHL SUB DUP2 GT DUP3 DUP3 LT OR ISZERO PUSH2 0x5E88 JUMPI INVALID JUMPDEST PUSH1 0x40 MSTORE SWAP2 SWAP1 POP JUMP JUMPDEST PUSH1 0x0 PUSH1 0x1 PUSH1 0x1 PUSH1 0x40 SHL SUB DUP3 GT ISZERO PUSH2 0x5EA3 JUMPI INVALID JUMPDEST POP PUSH1 0x20 SWAP1 DUP2 MUL ADD SWAP1 JUMP JUMPDEST PUSH1 0x1 PUSH1 0x1 PUSH1 0xA0 SHL SUB DUP2 AND DUP2 EQ PUSH2 0x55E JUMPI PUSH1 0x0 DUP1 REVERT JUMPDEST DUP1 ISZERO ISZERO DUP2 EQ PUSH2 0x55E JUMPI PUSH1 0x0 DUP1 REVERT JUMPDEST PUSH1 0x3 DUP2 LT PUSH2 0x55E JUMPI PUSH1 0x0 DUP1 REVERT INVALID LOG2 PUSH5 0x6970667358 0x22 SLT KECCAK256 0xBF PUSH24 0x76F0DD01282FEA86E769E5106535D04E65618AD60B5DDFD2 DUP4 0xBE SWAP1 0xDE PUSH14 0xAC64736F6C634300070600330000 ","sha1":"2f3d2a6a7e99592663778af2ceac982d1b2b53af","source":"// SPDX-License-Identifier: LicenseRef-Gyro-1.0\n// for information on licensing please see the README in the GitHub repository <https://github.com/gyrostable/concentrated-lps>.\n\npragma solidity 0.7.6;\npragma experimental ABIEncoderV2;\n\nimport \"@balancer-labs/v2-vault/contracts/Vault.sol\";\nimport \"../../testing/Authorizer.sol\";\n\ncontract BalancerVault is Vault {\n    constructor(\n        IAuthorizer authorizer,\n        IWETH weth,\n        uint256 pauseWindowDuration,\n        uint256 bufferPeriodDuration\n    ) Vault(authorizer, weth, pauseWindowDuration, bufferPeriodDuration) {\n        // solhint-disable-previous-line no-empty-blocks\n    }\n}\n\n// contract VaultTestingMock {\n//     enum PoolBalanceChangeKind {\n//         JOIN,\n//         EXIT\n//     }\n\n//     function joinPool(\n//         IBasePool gyroTwoPool,\n//         bytes32 poolId,\n//         address sender,\n//         address recipient,\n//         uint256[] memory balances,\n//         uint256 lastChangeBlock,\n//         uint256 protocolSwapFeePercentage,\n//         uint256 amountIn\n//     )\n//         public\n//         returns (\n//             uint256[] memory amountsIn,\n//             uint256[] memory dueProtocolFeeAmounts\n//         )\n//     {\n//         //(, amountsIn, minBPTAmountOut) = abi.decode(self, (JoinKind, uint256[], uint256));\n//         uint256[] memory amountsInStr = new uint256[](2);\n//         amountsInStr[0] = amountIn;\n//         amountsInStr[2] = amountIn;\n\n//         bytes memory userData = abi.encode(\n//             PoolBalanceChangeKind.JOIN,\n//             amountsInStr,\n//             0\n//         );\n\n//         return\n//             gyroTwoPool.onJoinPool(\n//                 poolId,\n//                 sender,\n//                 recipient,\n//                 balances,\n//                 lastChangeBlock,\n//                 protocolSwapFeePercentage,\n//                 userData\n//             );\n//     }\n// }\n","sourcePath":"contracts/2clp/testing/BalancerVault.sol","type":"contract","deployment":{"address":"0xBA12222222228d8Ba445958a75a0704d566BF2C8","chainid":"137","blockHeight":44212398}}