{"abi":[{"inputs":[{"internalType":"contract IVault","name":"vault","type":"address"},{"internalType":"string","name":"name","type":"string"},{"internalType":"string","name":"symbol","type":"string"},{"internalType":"contract IERC20[]","name":"tokens","type":"address[]"},{"internalType":"uint256","name":"root3Alpha","type":"uint256"},{"internalType":"uint256","name":"swapFeePercentage","type":"uint256"},{"internalType":"uint256","name":"pauseWindowDuration","type":"uint256"},{"internalType":"uint256","name":"bufferPeriodDuration","type":"uint256"},{"internalType":"address","name":"owner","type":"address"},{"internalType":"address","name":"configAddress","type":"address"}],"stateMutability":"nonpayable","type":"constructor","name":"constructor"},{"anonymous":false,"inputs":[{"indexed":true,"internalType":"address","name":"owner","type":"address"},{"indexed":true,"internalType":"address","name":"spender","type":"address"},{"indexed":false,"internalType":"uint256","name":"value","type":"uint256"}],"name":"Approval","type":"event"},{"anonymous":false,"inputs":[{"indexed":false,"internalType":"bool","name":"paused","type":"bool"}],"name":"PausedStateChanged","type":"event"},{"anonymous":false,"inputs":[{"indexed":false,"internalType":"uint256","name":"swapFeePercentage","type":"uint256"}],"name":"SwapFeePercentageChanged","type":"event"},{"anonymous":false,"inputs":[{"indexed":true,"internalType":"address","name":"from","type":"address"},{"indexed":true,"internalType":"address","name":"to","type":"address"},{"indexed":false,"internalType":"uint256","name":"value","type":"uint256"}],"name":"Transfer","type":"event"},{"inputs":[],"name":"DOMAIN_SEPARATOR","outputs":[{"internalType":"bytes32","name":"","type":"bytes32"}],"stateMutability":"view","type":"function"},{"inputs":[{"internalType":"address","name":"owner","type":"address"},{"internalType":"address","name":"spender","type":"address"}],"name":"allowance","outputs":[{"internalType":"uint256","name":"","type":"uint256"}],"stateMutability":"view","type":"function"},{"inputs":[{"internalType":"address","name":"spender","type":"address"},{"internalType":"uint256","name":"amount","type":"uint256"}],"name":"approve","outputs":[{"internalType":"bool","name":"","type":"bool"}],"stateMutability":"nonpayable","type":"function"},{"inputs":[{"internalType":"address","name":"account","type":"address"}],"name":"balanceOf","outputs":[{"internalType":"uint256","name":"","type":"uint256"}],"stateMutability":"view","type":"function"},{"inputs":[],"name":"decimals","outputs":[{"internalType":"uint8","name":"","type":"uint8"}],"stateMutability":"view","type":"function"},{"inputs":[{"internalType":"address","name":"spender","type":"address"},{"internalType":"uint256","name":"amount","type":"uint256"}],"name":"decreaseAllowance","outputs":[{"internalType":"bool","name":"","type":"bool"}],"stateMutability":"nonpayable","type":"function"},{"inputs":[{"internalType":"bytes4","name":"selector","type":"bytes4"}],"name":"getActionId","outputs":[{"internalType":"bytes32","name":"","type":"bytes32"}],"stateMutability":"view","type":"function"},{"inputs":[],"name":"getAuthorizer","outputs":[{"internalType":"contract IAuthorizer","name":"","type":"address"}],"stateMutability":"view","type":"function"},{"inputs":[],"name":"getInvariant","outputs":[{"internalType":"uint256","name":"invariant","type":"uint256"}],"stateMutability":"view","type":"function"},{"inputs":[],"name":"getLastInvariant","outputs":[{"internalType":"uint256","name":"","type":"uint256"}],"stateMutability":"view","type":"function"},{"inputs":[],"name":"getNormalizedWeights","outputs":[{"internalType":"uint256[]","name":"","type":"uint256[]"}],"stateMutability":"view","type":"function"},{"inputs":[],"name":"getOwner","outputs":[{"internalType":"address","name":"","type":"address"}],"stateMutability":"view","type":"function"},{"inputs":[],"name":"getPausedState","outputs":[{"internalType":"bool","name":"paused","type":"bool"},{"internalType":"uint256","name":"pauseWindowEndTime","type":"uint256"},{"internalType":"uint256","name":"bufferPeriodEndTime","type":"uint256"}],"stateMutability":"view","type":"function"},{"inputs":[],"name":"getPoolId","outputs":[{"internalType":"bytes32","name":"","type":"bytes32"}],"stateMutability":"view","type":"function"},{"inputs":[],"name":"getRate","outputs":[{"internalType":"uint256","name":"","type":"uint256"}],"stateMutability":"view","type":"function"},{"inputs":[],"name":"getRoot3Alpha","outputs":[{"internalType":"uint256","name":"","type":"uint256"}],"stateMutability":"view","type":"function"},{"inputs":[],"name":"getScalingFactors","outputs":[{"internalType":"uint256[]","name":"","type":"uint256[]"}],"stateMutability":"view","type":"function"},{"inputs":[],"name":"getSwapFeePercentage","outputs":[{"internalType":"uint256","name":"","type":"uint256"}],"stateMutability":"view","type":"function"},{"inputs":[],"name":"getVault","outputs":[{"internalType":"contract IVault","name":"","type":"address"}],"stateMutability":"view","type":"function"},{"inputs":[],"name":"gyroConfig","outputs":[{"internalType":"contract IGyroConfig","name":"","type":"address"}],"stateMutability":"view","type":"function"},{"inputs":[{"internalType":"address","name":"spender","type":"address"},{"internalType":"uint256","name":"addedValue","type":"uint256"}],"name":"increaseAllowance","outputs":[{"internalType":"bool","name":"","type":"bool"}],"stateMutability":"nonpayable","type":"function"},{"inputs":[],"name":"name","outputs":[{"internalType":"string","name":"","type":"string"}],"stateMutability":"view","type":"function"},{"inputs":[{"internalType":"address","name":"owner","type":"address"}],"name":"nonces","outputs":[{"internalType":"uint256","name":"","type":"uint256"}],"stateMutability":"view","type":"function"},{"inputs":[{"internalType":"bytes32","name":"poolId","type":"bytes32"},{"internalType":"address","name":"sender","type":"address"},{"internalType":"address","name":"recipient","type":"address"},{"internalType":"uint256[]","name":"balances","type":"uint256[]"},{"internalType":"uint256","name":"lastChangeBlock","type":"uint256"},{"internalType":"uint256","name":"protocolSwapFeePercentage","type":"uint256"},{"internalType":"bytes","name":"userData","type":"bytes"}],"name":"onExitPool","outputs":[{"internalType":"uint256[]","name":"","type":"uint256[]"},{"internalType":"uint256[]","name":"","type":"uint256[]"}],"stateMutability":"nonpayable","type":"function"},{"inputs":[{"internalType":"bytes32","name":"poolId","type":"bytes32"},{"internalType":"address","name":"sender","type":"address"},{"internalType":"address","name":"recipient","type":"address"},{"internalType":"uint256[]","name":"balances","type":"uint256[]"},{"internalType":"uint256","name":"lastChangeBlock","type":"uint256"},{"internalType":"uint256","name":"protocolSwapFeePercentage","type":"uint256"},{"internalType":"bytes","name":"userData","type":"bytes"}],"name":"onJoinPool","outputs":[{"internalType":"uint256[]","name":"","type":"uint256[]"},{"internalType":"uint256[]","name":"","type":"uint256[]"}],"stateMutability":"nonpayable","type":"function"},{"inputs":[{"components":[{"internalType":"enum IVault.SwapKind","name":"kind","type":"uint8"},{"internalType":"contract IERC20","name":"tokenIn","type":"address"},{"internalType":"contract IERC20","name":"tokenOut","type":"address"},{"internalType":"uint256","name":"amount","type":"uint256"},{"internalType":"bytes32","name":"poolId","type":"bytes32"},{"internalType":"uint256","name":"lastChangeBlock","type":"uint256"},{"internalType":"address","name":"from","type":"address"},{"internalType":"address","name":"to","type":"address"},{"internalType":"bytes","name":"userData","type":"bytes"}],"internalType":"struct IPoolSwapStructs.SwapRequest","name":"request","type":"tuple"},{"internalType":"uint256","name":"balanceTokenIn","type":"uint256"},{"internalType":"uint256","name":"balanceTokenOut","type":"uint256"}],"name":"onSwap","outputs":[{"internalType":"uint256","name":"","type":"uint256"}],"stateMutability":"nonpayable","type":"function"},{"inputs":[{"internalType":"address","name":"owner","type":"address"},{"internalType":"address","name":"spender","type":"address"},{"internalType":"uint256","name":"value","type":"uint256"},{"internalType":"uint256","name":"deadline","type":"uint256"},{"internalType":"uint8","name":"v","type":"uint8"},{"internalType":"bytes32","name":"r","type":"bytes32"},{"internalType":"bytes32","name":"s","type":"bytes32"}],"name":"permit","outputs":[],"stateMutability":"nonpayable","type":"function"},{"inputs":[{"internalType":"bytes32","name":"poolId","type":"bytes32"},{"internalType":"address","name":"sender","type":"address"},{"internalType":"address","name":"recipient","type":"address"},{"internalType":"uint256[]","name":"balances","type":"uint256[]"},{"internalType":"uint256","name":"lastChangeBlock","type":"uint256"},{"internalType":"uint256","name":"protocolSwapFeePercentage","type":"uint256"},{"internalType":"bytes","name":"userData","type":"bytes"}],"name":"queryExit","outputs":[{"internalType":"uint256","name":"bptIn","type":"uint256"},{"internalType":"uint256[]","name":"amountsOut","type":"uint256[]"}],"stateMutability":"nonpayable","type":"function"},{"inputs":[{"internalType":"bytes32","name":"poolId","type":"bytes32"},{"internalType":"address","name":"sender","type":"address"},{"internalType":"address","name":"recipient","type":"address"},{"internalType":"uint256[]","name":"balances","type":"uint256[]"},{"internalType":"uint256","name":"lastChangeBlock","type":"uint256"},{"internalType":"uint256","name":"protocolSwapFeePercentage","type":"uint256"},{"internalType":"bytes","name":"userData","type":"bytes"}],"name":"queryJoin","outputs":[{"internalType":"uint256","name":"bptOut","type":"uint256"},{"internalType":"uint256[]","name":"amountsIn","type":"uint256[]"}],"stateMutability":"nonpayable","type":"function"},{"inputs":[{"internalType":"contract IERC20","name":"token","type":"address"},{"internalType":"bytes","name":"poolConfig","type":"bytes"}],"name":"setAssetManagerPoolConfig","outputs":[],"stateMutability":"nonpayable","type":"function"},{"inputs":[{"internalType":"bool","name":"paused","type":"bool"}],"name":"setPaused","outputs":[],"stateMutability":"nonpayable","type":"function"},{"inputs":[{"internalType":"uint256","name":"swapFeePercentage","type":"uint256"}],"name":"setSwapFeePercentage","outputs":[],"stateMutability":"nonpayable","type":"function"},{"inputs":[],"name":"symbol","outputs":[{"internalType":"string","name":"","type":"string"}],"stateMutability":"view","type":"function"},{"inputs":[],"name":"totalSupply","outputs":[{"internalType":"uint256","name":"","type":"uint256"}],"stateMutability":"view","type":"function"},{"inputs":[{"internalType":"address","name":"recipient","type":"address"},{"internalType":"uint256","name":"amount","type":"uint256"}],"name":"transfer","outputs":[{"internalType":"bool","name":"","type":"bool"}],"stateMutability":"nonpayable","type":"function"},{"inputs":[{"internalType":"address","name":"sender","type":"address"},{"internalType":"address","name":"recipient","type":"address"},{"internalType":"uint256","name":"amount","type":"uint256"}],"name":"transferFrom","outputs":[{"internalType":"bool","name":"","type":"bool"}],"stateMutability":"nonpayable","type":"function"}],"bytecode":"6102a06040527f6e71edae12b1b97f4d1f60370fef10105fa2faae0126114a169c64845d6126c9610120523480156200003757600080fd5b5060405162004891380380620048918339810160408190526200005a91620008ef565b604080516003808252608082019092528b918b918b918b9190602082016060803683370190505089898989888651600214620000985760016200009b565b60025b8989898989898989828289898d8280604051806040016040528060018152602001603160f81b81525085858a336001600160a01b031660001b806080818152505050806001600160a01b031660a0816001600160a01b031660601b81525050508160039080519060200190620001139291906200070d565b508051620001299060049060208401906200070d565b505060058054601260ff1990911617905550815160209283012060c052805191012060e052507f8b73c3c69bb8fe3d512ecc4cf759cc79239f7b179b0ffacaa9a75d522b39400f6101005260601b6001600160601b03191661014052506200019c90506276a70083111561019462000475565b620001b062278d0082111561019562000475565b4290910161016081905201610180528551620001d2906002111560c862000475565b620001ec620001e06200048a565b8751111560c962000475565b62000202866200048f60201b62000dd01760201c565b6200020d846200049b565b6040516309b2760f60e01b81526000906001600160a01b038c16906309b2760f906200023e908d9060040162000aa7565b602060405180830381600087803b1580156200025957600080fd5b505af11580156200026e573d6000803e3d6000fd5b505050506040513d601f19601f82011682018060405250810190620002949190620008d6565b604051633354e3e960e11b81529091506001600160a01b038c16906366a9c7d290620002c99084908b908b9060040162000a0b565b600060405180830381600087803b158015620002e457600080fd5b505af1158015620002f9573d6000803e3d6000fd5b50505050806101a0818152505050505050505050505050505050505050505050506200033287516003146101616200047560201b60201c565b866000815181106200034057fe5b60200260200101516001600160a01b03166101e0816001600160a01b031660601b81525050866001815181106200037357fe5b60200260200101516001600160a01b0316610200816001600160a01b031660601b8152505086600281518110620003a657fe5b60200260200101516001600160a01b0316610220816001600160a01b031660601b81525050620003f187600081518110620003dd57fe5b60200260200101516200052760201b60201c565b6102405286516200040a9088906001908110620003dd57fe5b610260528651620004239088906002908110620003dd57fe5b610280526200043f670de0b6b3a7640000871061015f62000475565b6101c0959095525050600a80546001600160a01b0319166001600160a01b03909416939093179092555062000b0e945050505050565b8162000486576200048681620005fb565b5050565b600390565b8062000486816200064e565b620004b064e8d4a5100082101560cb62000475565b620004c867016345785d8a000082111560ca62000475565b620004e78160c0600854620006db60201b62000dda179092919060201c565b6008556040517fa9ba3ffe0b6c366b81232caab38605a0699ad5398d6cce76f91ee809e322dafc906200051c90839062000abc565b60405180910390a150565b60006001600160a01b0382163014156200054b5750670de0b6b3a7640000620005f6565b6000826001600160a01b031663313ce5676040518163ffffffff1660e01b815260040160206040518083038186803b1580156200058757600080fd5b505afa1580156200059c573d6000803e3d6000fd5b505050506040513d601f19601f82011682018060405250810190620005c29190620009e1565b60ff1690506000620005e1601283620006f060201b62000def1760201c565b905080600a0a670de0b6b3a764000002925050505b919050565b62461bcd60e51b6000908152602060045260076024526642414c23000030600a808404818106603090810160081b95839006959095019082900491820690940160101b939093010160c81b604452606490fd5b6002815110156200065f57620006d8565b6000816000815181106200066f57fe5b602002602001015190506000600190505b8251811015620006d55760008382815181106200069957fe5b60200260200101519050620006ca816001600160a01b0316846001600160a01b03161060656200047560201b60201c565b915060010162000680565b50505b50565b6001600160401b03811b1992909216911b1790565b60006200070283831115600162000475565b508082035b92915050565b828054600181600116156101000203166002900490600052602060002090601f016020900481019282601f106200075057805160ff191683800117855562000780565b8280016001018555821562000780579182015b828111156200078057825182559160200191906001019062000763565b506200078e92915062000792565b5090565b5b808211156200078e576000815560010162000793565b8051620007078162000af8565b600082601f830112620007c7578081fd5b81516001600160401b03811115620007dd578182fd5b6020808202620007ef82820162000ac5565b838152935081840185830182870184018810156200080c57600080fd5b600092505b848310156200083c578051620008278162000af8565b82526001929092019190830190830162000811565b505050505092915050565b600082601f83011262000858578081fd5b81516001600160401b038111156200086e578182fd5b602062000884601f8301601f1916820162000ac5565b925081835284818386010111156200089b57600080fd5b60005b82811015620008bb5784810182015184820183015281016200089e565b82811115620008cd5760008284860101525b50505092915050565b600060208284031215620008e8578081fd5b5051919050565b6000806000806000806000806000806101408b8d0312156200090f578586fd5b6200091b8c8c620007a9565b60208c0151909a506001600160401b038082111562000938578788fd5b620009468e838f0162000847565b9a5060408d01519150808211156200095c578788fd5b6200096a8e838f0162000847565b995060608d015191508082111562000980578788fd5b506200098f8d828e01620007b6565b97505060808b0151955060a08b0151945060c08b0151935060e08b01519250620009be8c6101008d01620007a9565b9150620009d08c6101208d01620007a9565b90509295989b9194979a5092959850565b600060208284031215620009f3578081fd5b815160ff8116811462000a04578182fd5b9392505050565b60006060820185835260206060818501528186518084526080860191508288019350845b8181101562000a575762000a44855162000aec565b8352938301939183019160010162000a2f565b505084810360408601528551808252908201925081860190845b8181101562000a995762000a86835162000aec565b8552938301939183019160010162000a71565b509298975050505050505050565b602081016003831062000ab657fe5b91905290565b90815260200190565b6040518181016001600160401b038111828210171562000ae457600080fd5b604052919050565b6001600160a01b031690565b6001600160a01b0381168114620006d857600080fd5b60805160a05160601c60c05160e05161010051610120516101405160601c61016051610180516101a0516101c0516101e05160601c6102005160601c6102205160601c610240516102605161028051613c9462000bfd6000398061104752806118d752508061100d5280611876525080610fd3528061181552508061189c52508061183b5250806117da525080610d6752806113c652806116e15280611af75280611b9a52806121f152508061062e525080610f5c525080610f385250806108a6525080610b215250806111765250806111b852508061119752508061088252508061080c5250613c946000f3fe608060405234801561001057600080fd5b506004361061021c5760003560e01c806374f3b00911610125578063a457c2d7116100ad578063d505accf1161007c578063d505accf14610442578063d5c096c414610455578063d60ca60314610468578063dd62ed3e14610470578063f89f27ed146104835761021c565b8063a457c2d71461040c578063a9059cbb1461041f578063aaabadc514610432578063c0ff1a151461043a5761021c565b8063893d20e8116100f4578063893d20e8146103d95780638d928af8146103e157806395d89b41146103e95780639b02cdde146103f15780639d2c110c146103f95761021c565b806374f3b0091461037f5780637ecebe00146103a0578063851c1bb3146103b357806387ec6817146103c65761021c565b806338e9922e116101a857806350dd6ed91161017757806350dd6ed91461032857806355c676281461033b5780636028bfd414610343578063679aefce1461036457806370a082311461036c5761021c565b806338e9922e146102e557806338fff2d0146102f8578063395093511461030057806344bbdb55146103135761021c565b80631c0de051116101ef5780631c0de051146102895780631dd746ea146102a057806323b872dd146102b5578063313ce567146102c85780633644e515146102dd5761021c565b806306fdde0314610221578063095ea7b31461023f57806316c38b3c1461025f57806318160ddd14610274575b600080fd5b61022961048b565b6040516102369190613b89565b60405180910390f35b61025261024d3660046134e5565b610521565b6040516102369190613a90565b61027261026d3660046135db565b610538565b005b61027c61054c565b6040516102369190613ab3565b610291610552565b60405161023693929190613a9b565b6102a861057b565b6040516102369190613a58565b6102526102c3366004613430565b61058a565b6102d0610600565b6040516102369190613bdb565b61027c610609565b6102726102f336600461390c565b610613565b61027c61062c565b61025261030e3660046134e5565b610650565b61031b61068b565b6040516102369190613a44565b610272610336366004613737565b61069a565b61027c6106b8565b610356610351366004613613565b6106c9565b604051610236929190613bc2565b61027c610700565b61027c61037a3660046133c0565b61072b565b61039261038d366004613613565b61074a565b604051610236929190613a6b565b61027c6103ae3660046133c0565b6107ed565b61027c6103c136600461370f565b610808565b6103566103d4366004613613565b61085a565b61031b610880565b61031b6108a4565b6102296108c8565b61027c610929565b61027c610407366004613811565b61092f565b61025261041a3660046134e5565b610a8d565b61025261042d3660046134e5565b610acb565b61031b610ad8565b61027c610ae2565b610272610450366004613470565b610aec565b610392610463366004613613565b610c35565b61027c610d65565b61027c61047e3660046133f8565b610d89565b6102a8610dc6565b60038054604080516020601f60026000196101006001881615020190951694909404938401819004810282018101909252828152606093909290918301828280156105175780601f106104ec57610100808354040283529160200191610517565b820191906000526020600020905b8154815290600101906020018083116104fa57829003601f168201915b5050505050905090565b600061052e338484610e05565b5060015b92915050565b610540610e6d565b61054981610e9b565b50565b60025490565b600080600061055f610f19565b15925061056a610f36565b9150610574610f5a565b9050909192565b6060610585610f7e565b905090565b6000806105978533610d89565b90506105bb336001600160a01b03871614806105b35750838210155b61019e611084565b6105c6858585611092565b336001600160a01b038616148015906105e157506000198114155b156105f3576105f38533858403610e05565b60019150505b9392505050565b60055460ff1690565b6000610585611172565b61061b610e6d565b61062361120f565b61054981611224565b7f000000000000000000000000000000000000000000000000000000000000000090565b3360008181526001602090815260408083206001600160a01b0387168452909152812054909161052e918590610686908661128f565b610e05565b600a546001600160a01b031681565b6106a2610e6d565b6106aa61120f565b6106b482826112a1565b5050565b6008546000906105859060c06113a0565b600060606106df86516106da6113ad565b6113b2565b6106f4898989898989896113bf6114836114e9565b97509795505050505050565b600061058561070d61054c565b610725610718610ae2565b6107206113ad565b61160c565b90611630565b6001600160a01b0381166000908152602081905260409020545b919050565b606080886107746107596108a4565b6001600160a01b0316336001600160a01b03161460cd611084565b61078961077f61062c565b82146101f4611084565b6060610793610f7e565b905061079f888261166f565b60006060806107b48e8e8e8e8e8e8a8f6113bf565b9250925092506107c48d846116d0565b6107ce8285611483565b6107d88185611483565b909550935050505b5097509795505050505050565b6001600160a01b031660009081526006602052604090205490565b60007f00000000000000000000000000000000000000000000000000000000000000008260405160200161083d929190613a01565b604051602081830303815290604052805190602001209050919050565b6000606061086b86516106da6113ad565b6106f4898989898989896116da6117756114e9565b7f000000000000000000000000000000000000000000000000000000000000000090565b7f000000000000000000000000000000000000000000000000000000000000000090565b60048054604080516020601f60026000196101006001881615020190951694909404938401819004810282018101909252828152606093909290918301828280156105175780601f106104ec57610100808354040283529160200191610517565b60095490565b600083608001516109416107596108a4565b61094c61077f61062c565b600061095b86602001516117d6565b9050600061096c87604001516117d6565b905060008751600181111561097d57fe5b1415610a0d5760006109928860600151611906565b905060008189606001510390506109b689602001516109b18387611927565b611933565b606089018290526109c78885611927565b97506109d38784611927565b96506109e3896060015185611927565b60608a015260006109f58a8a8a611945565b9050610a018185611970565b96505050505050610a85565b610a178683611927565b9550610a238582611927565b9450610a33876060015182611927565b60608801526000610a4588888861197c565b9050610a51818461199e565b90506000610a5e826119aa565b905060008282039050610a798a602001516109b18388611927565b509450610a8592505050565b509392505050565b600080610a9a3385610d89565b9050808310610ab457610aaf33856000610e05565b610ac1565b610ac13385858403610e05565b5060019392505050565b600061052e338484611092565b60006105856119d0565b6000610585611a4a565b610afa8442111560d1611084565b6001600160a01b0387166000908152600660209081526040808320549051909291610b51917f0000000000000000000000000000000000000000000000000000000000000000918c918c918c9188918d9101613adb565b6040516020818303038152906040528051906020012090506000610b7482611b21565b9050600060018288888860405160008152602001604052604051610b9b9493929190613b6b565b6020604051602081039080840390855afa158015610bbd573d6000803e3d6000fd5b5050604051601f1901519150610bff90506001600160a01b03821615801590610bf757508b6001600160a01b0316826001600160a01b0316145b6101f8611084565b6001600160a01b038b166000908152600660205260409020600185019055610c288b8b8b610e05565b5050505050505050505050565b60608088610c446107596108a4565b610c4f61077f61062c565b6060610c59610f7e565b9050610c6361054c565b610d155760006060610c788d8d8d868b611b3d565b91509150610c91610c87611be4565b83101560cc611084565b610ca36000610c9e611be4565b611beb565b610cb68b610caf611be4565b8403611beb565b610cc08184611775565b80610cc96113ad565b6001600160401b0381118015610cde57600080fd5b50604051908082528060200260200182016040528015610d08578160200160208202803683370190505b50955095505050506107e0565b610d1f888261166f565b6000606080610d348e8e8e8e8e8e8a8f6116da565b925092509250610d448c84611beb565b610d4e8285611775565b610d588185611483565b90955093506107e0915050565b7f000000000000000000000000000000000000000000000000000000000000000090565b6000610d936108a4565b6001600160a01b0316826001600160a01b03161415610db55750600019610532565b610dbf8383611bf5565b9050610532565b6060610585611c20565b806106b481611cb6565b6001600160401b03811b1992909216911b1790565b6000610dff838311156001611084565b50900390565b6001600160a01b0380841660008181526001602090815260408083209487168084529490915290819020849055517f8c5be1e5ebec7d5bd14f71427d1e84f3dd0314c0f7b2291e5b200ac8c7c3b92590610e60908590613ab3565b60405180910390a3505050565b6000610e846000356001600160e01b031916610808565b9050610549610e938233611d2f565b610191611084565b8015610ebb57610eb6610eac610f36565b4210610193611084565b610ed0565b610ed0610ec6610f5a565b42106101a9611084565b6007805460ff19168215151790556040517f9e3a5e37224532dea67b89face185703738a228a6e8a23dee546960180d3be6490610f0e908390613a90565b60405180910390a150565b6000610f23610f5a565b42118061058557505060075460ff161590565b7f000000000000000000000000000000000000000000000000000000000000000090565b7f000000000000000000000000000000000000000000000000000000000000000090565b60606000610f8a6113ad565b90506060816001600160401b0381118015610fa457600080fd5b50604051908082528060200260200182016040528015610fce578160200160208202803683370190505b5090507f000000000000000000000000000000000000000000000000000000000000000081600081518110610fff57fe5b6020026020010181815250507f00000000000000000000000000000000000000000000000000000000000000008160018151811061103957fe5b6020026020010181815250507f00000000000000000000000000000000000000000000000000000000000000008160028151811061107357fe5b602090810291909101015291505090565b816106b4576106b481611e18565b6110a96001600160a01b0384161515610198611084565b6110c06001600160a01b0383161515610199611084565b6110cb8383836114e4565b6001600160a01b0383166000908152602081905260409020546110f190826101a0611e6b565b6001600160a01b038085166000908152602081905260408082209390935590841681522054611120908261128f565b6001600160a01b0380841660008181526020819052604090819020939093559151908516907fddf252ad1be2c89b69c2b068fc378daa952ba7f163c4a11628f55a4df523b3ef90610e60908590613ab3565b60007f00000000000000000000000000000000000000000000000000000000000000007f00000000000000000000000000000000000000000000000000000000000000007f00000000000000000000000000000000000000000000000000000000000000006111df611e81565b306040516020016111f4959493929190613b0f565b60405160208183030381529060405280519060200120905090565b61122261121a610f19565b610192611084565b565b61123764e8d4a5100082101560cb611084565b61124d67016345785d8a000082111560ca611084565b60085461125c908260c0610dda565b6008556040517fa9ba3ffe0b6c366b81232caab38605a0699ad5398d6cce76f91ee809e322dafc90610f0e908390613ab3565b60008282016105f98482101583611084565b60006112ab61062c565b905060006112b76108a4565b6001600160a01b031663b05f8e4883866040518363ffffffff1660e01b81526004016112e4929190613b54565b60806040518083038186803b1580156112fc57600080fd5b505afa158015611310573d6000803e3d6000fd5b505050506040513d601f19601f82011682018060405250810190611334919061393c565b604051630639cdb560e21b81529094506001600160a01b03851693506318e736d49250611368915085908790600401613b3b565b600060405180830381600087803b15801561138257600080fd5b505af1158015611396573d6000803e3d6000fd5b5050505050505050565b1c6001600160401b031690565b600390565b6106b48183146067611084565b60006060807f00000000000000000000000000000000000000000000000000000000000000006113ed610f19565b156114355760006113fe8a83611e85565b905061140981611eb7565b6114138a87611ee4565b909550935061142c818661142561054c565b6000611f31565b6009555061144b565b61143f8986611ee4565b60001960095590945092505b604080516003808252608082019092528591859190602082016060803683370190505093509350935050985098509895505050505050565b60005b61148e6113ad565b8110156114e4576114c58382815181106114a457fe5b60200260200101518383815181106114b857fe5b6020026020010151611630565b8382815181106114d157fe5b6020908102919091010152600101611486565b505050565b3330146115a7576000306001600160a01b031660003660405161150d929190613a19565b6000604051808303816000865af19150503d806000811461154a576040519150601f19603f3d011682016040523d82523d6000602084013e61154f565b606091505b50509050806000811461155e57fe5b60046000803e6000516001600160e01b0319166343adbafb60e01b8114611589573d6000803e3d6000fd5b506020600460003e604060205260243d03602460403e601c3d016000f35b60606115b1610f7e565b90506115bd878261166f565b600060606115d58c8c8c8c8c8c898d8d63ffffffff16565b50915091506115e881848663ffffffff16565b8051601f1982018390526343adbafb603f1983015260200260231982016044820181fd5b60008282026105f984158061162957508385838161162657fe5b04145b6003611084565b60008161163c57600080fd5b670de0b6b3a76400008381029084828161165257fe5b041461165d57600080fd5b82818161166657fe5b04949350505050565b60005b61167a6113ad565b8110156114e4576116b183828151811061169057fe5b60200260200101518383815181106116a457fe5b6020026020010151611f8b565b8382815181106116bd57fe5b6020908102919091010152600101611672565b6106b48282611fb4565b60006060807f00000000000000000000000000000000000000000000000000000000000000008361170b8a83611e85565b905061171681611eb7565b6117208a87612070565b9095509350611739818661173261054c565b6001611f31565b60095560408051600380825260808201909252869186919060208201606080368337019050509450945094505050985098509895505050505050565b60005b6117806113ad565b8110156114e4576117b783828151811061179657fe5b60200260200101518383815181106117aa57fe5b60200260200101516120b4565b8382815181106117c357fe5b6020908102919091010152600101611778565b60007f00000000000000000000000000000000000000000000000000000000000000006001600160a01b0316826001600160a01b0316141561183957507f0000000000000000000000000000000000000000000000000000000000000000610745565b7f00000000000000000000000000000000000000000000000000000000000000006001600160a01b0316826001600160a01b0316141561189a57507f0000000000000000000000000000000000000000000000000000000000000000610745565b7f00000000000000000000000000000000000000000000000000000000000000006001600160a01b0316826001600160a01b031614156118fb57507f0000000000000000000000000000000000000000000000000000000000000000610745565b610745610135611e18565b60008061191b6119146106b8565b849061210b565b90506105f98382610def565b60006105f98383611f8b565b6106b461193f83612147565b826106b4565b600061194f61120f565b600061195961214d565b905061196785858584612230565b95945050505050565b60006105f98383611630565b600061198661120f565b600061199061214d565b905061196785858584612242565b60006105f983836120b4565b60006105326119c96119ba6106b8565b670de0b6b3a764000090610def565b83906120b4565b60006119da6108a4565b6001600160a01b031663aaabadc56040518163ffffffff1660e01b815260040160206040518083038186803b158015611a1257600080fd5b505afa158015611a26573d6000803e3d6000fd5b505050506040513d601f19601f8201168201806040525081019061058591906133dc565b60006060611a566108a4565b6001600160a01b031663f94d4668611a6c61062c565b6040518263ffffffff1660e01b8152600401611a889190613ab3565b60006040518083038186803b158015611aa057600080fd5b505afa158015611ab4573d6000803e3d6000fd5b505050506040513d6000823e601f3d908101601f19168201604052611adc9190810190613510565b50915050611af181611aec610f7e565b61166f565b611b1b817f0000000000000000000000000000000000000000000000000000000000000000611e85565b91505090565b6000611b2b611172565b8260405160200161083d929190613a29565b60006060611b4961120f565b6000611b5484612254565b9050611b6f6000826003811115611b6757fe5b1460ce611084565b6060611b7a8561226a565b9050611b88815160036113b2565b611b92818761166f565b6000611bbe827f0000000000000000000000000000000000000000000000000000000000000000611e85565b90506000611bcd82600361160c565b6009929092555093509150505b9550959350505050565b620f424090565b6106b48282612280565b6001600160a01b03918216600090815260016020908152604080832093909416825291909152205490565b604080516003808252608082019092526060918291906020820183803683370190505090506003670de0b6b3a76400000481600081518110611c5e57fe5b60209081029190910101526003670de0b6b3a76400000481600181518110611c8257fe5b60209081029190910101526003670de0b6b3a76400000481600281518110611ca657fe5b6020908102919091010152905090565b600281511015611cc557610549565b600081600081518110611cd457fe5b602002602001015190506000600190505b82518110156114e4576000838281518110611cfc57fe5b60200260200101519050611d25816001600160a01b0316846001600160a01b0316106065611084565b9150600101611ce5565b600073ba1ba1ba1ba1ba1ba1ba1ba1ba1ba1ba1ba1ba1b611d4e610880565b6001600160a01b031614158015611d695750611d698361230e565b15611d9157611d76610880565b6001600160a01b0316336001600160a01b0316149050610532565b611d996119d0565b6001600160a01b0316639be2a8848484306040518463ffffffff1660e01b8152600401611dc893929190613abc565b60206040518083038186803b158015611de057600080fd5b505afa158015611df4573d6000803e3d6000fd5b505050506040513d601f19601f82011682018060405250810190610dbf91906135f7565b62461bcd60e51b6000908152602060045260076024526642414c23000030600a808404818106603090810160081b95839006959095019082900491820690940160101b939093010160c81b604452606490fd5b6000611e7a8484111583611084565b5050900390565b4690565b6000806000806000611e978787612340565b9350935093509350611eac848484848a6124b0565b979650505050505050565b600080600080611ec9600954866124d8565b9350935093509350611edd84848484612541565b5050505050565b600060606000611ef384612254565b90506001816003811115611f0357fe5b1415611f1d57611f138585612567565b9250925050611f2a565b611f28610150611e18565b505b9250929050565b60008115611f63576000611f4f84611f49888861210b565b906120b4565b9050611f5b868261128f565b915050611f83565b6000611f73846107258888611f8b565b9050611f7f8682610def565b9150505b949350505050565b6000828202611fa584158061162957508385838161162657fe5b670de0b6b3a764000081611666565b611fcb6001600160a01b038316151561019b611084565b611fd7826000836114e4565b6001600160a01b038216600090815260208190526040902054611ffd90826101a1611e6b565b6001600160a01b0383166000908152602081905260409020556002546120239082612599565b6002556040516000906001600160a01b038416907fddf252ad1be2c89b69c2b068fc378daa952ba7f163c4a11628f55a4df523b3ef90612064908590613ab3565b60405180910390a35050565b60006060600061207f84612254565b9050600381600381111561208f57fe5b14156120a95761209f85856125a7565b9093509150611f28565b611f28610136611e18565b60006120c38215156004611084565b826120d057506000610532565b670de0b6b3a7640000838102906120f3908583816120ea57fe5b04146005611084565b8260018203816120ff57fe5b04600101915050610532565b600082820261212584158061162957508385838161162657fe5b80612134576000915050610532565b670de0b6b3a764000060001982016120ff565b50600090565b600060606121596108a4565b6001600160a01b031663f94d466861216f61062c565b6040518263ffffffff1660e01b815260040161218b9190613ab3565b60006040518083038186803b1580156121a357600080fd5b505afa1580156121b7573d6000803e3d6000fd5b505050506040513d6000823e601f3d908101601f191682016040526121df9190810190613510565b509150506121ef81611aec610f7e565b7f0000000000000000000000000000000000000000000000000000000000000000600061221c8383611e85565b90506122288183611f8b565b935050505090565b600061196784848760600151856125cc565b60006119678484876060015185612664565b6000818060200190518101906105329190613784565b6060818060200190518101906105f991906137cd565b61228c600083836114e4565b600254612299908261128f565b6002556001600160a01b0382166000908152602081905260409020546122bf908261128f565b6001600160a01b0383166000818152602081905260408082209390935591519091907fddf252ad1be2c89b69c2b068fc378daa952ba7f163c4a11628f55a4df523b3ef90612064908590613ab3565b6000612320631c74c91760e11b610808565b82148061053257506123386350dd6ed960e01b610808565b909114919050565b600080808061235c6119ba866123568180611f8b565b90611f8b565b935060006123b98760028151811061237057fe5b60200260200101516123b38960018151811061238857fe5b60200260200101518a60008151811061239d57fe5b602002602001015161128f90919063ffffffff16565b9061128f565b90506123c9866123568382611f8b565b9350600061245861240b896000815181106123e057fe5b60200260200101518a6002815181106123f557fe5b6020026020010151611f8b90919063ffffffff16565b6123b36124338b60028151811061241e57fe5b60200260200101518c6001815181106123f557fe5b6123b38c60018151811061244357fe5b60200260200101518d6000815181106123f557fe5b90506124648188611f8b565b93506124a38860028151811061247657fe5b60200260200101516123568a60018151811061248e57fe5b60200260200101518b6000815181106123f557fe5b9250505092959194509250565b60006124be868686866126f5565b90506124ce8686868686866127ab565b9695505050505050565b6000806000806000806000806124ec61286e565b9350935093509350836000141561251157600097508796509094509250612538915050565b6000806125288c8c61252161054c565b8989612add565b909a509850929650909450505050505b92959194509250565b8315612551576125518285611beb565b8215612561576125618184611beb565b50505050565b60006060600061257684612b70565b9050606061258c868361258761054c565b612b86565b9196919550909350505050565b60006105f983836001611e6b565b6000606060006125b684612b70565b9050606061258c86836125c761054c565b612c21565b60006125ee6125e386670429d069189e0000611f8b565b841115610130611084565b600061260c61260584670de0b6b3a764000261210b565b879061128f565b9050600061262561260585670de0b6b3a763ffff611f8b565b905061263e612634838761128f565b6107258388611f8b565b9250611f839150612659905085670429d069189e0000611f8b565b821115610131611084565b600061268661267b85670429d069189e0000611f8b565b841115610131611084565b600061269d61260584670de0b6b3a764000261210b565b905060006126b661260585670de0b6b3a763ffff611f8b565b90506126cf6126c58287610def565b611f49848861210b565b9250611f8391506126ea905086670429d069189e0000611f8b565b821115610130611084565b6000806127216127176729a2241af62c0000612711898861210b565b9061210b565b6123b3878061210b565b9050600061274761273a60038902611f49856005612cc8565b6123b38860038b026120b4565b9050600061275d670de0b6b3a764000089610def565b905060006706f05b59d3b2000082101561277f57671bc16d674ec80000612789565b6714d1120d7b1600005b6001600160401b0316905061279e838261210b565b9998505050505050505050565b600080805b60ff811015612857576000806127ca8b8b8b8b8b8b612e3b565b91509150600182116127e257859450505050506124ce565b600583108015906127f05750805b1561280157859450505050506124ce565b600583108015906128155750600884048210155b1561282657859450505050506124ce565b819350801561284057612839868361128f565b955061284d565b61284a8683610def565b95505b50506001016127b0565b50612863610160611e18565b509695505050505050565b600a5460405163bd02d0f560e01b81526000918291829182916001600160a01b039091169063bd02d0f5906128c0907550524f544f434f4c5f535741505f4645455f5045524360501b90600401613ab3565b60206040518083038186803b1580156128d857600080fd5b505afa1580156128ec573d6000803e3d6000fd5b505050506040513d601f19601f820116820180604052508101906129109190613924565b600a5460405163bd02d0f560e01b81526001600160a01b039091169063bd02d0f590612960907f50524f544f434f4c5f4645455f4759524f5f504f5254494f4e0000000000000090600401613ab3565b60206040518083038186803b15801561297857600080fd5b505afa15801561298c573d6000803e3d6000fd5b505050506040513d601f19601f820116820180604052508101906129b09190613924565b600a546040516321f8a72160e01b81526001600160a01b03909116906321f8a721906129f0906c4759524f5f545245415355525960981b90600401613ab3565b60206040518083038186803b158015612a0857600080fd5b505afa158015612a1c573d6000803e3d6000fd5b505050506040513d601f19601f82011682018060405250810190612a4091906133dc565b600a546040516321f8a72160e01b81526001600160a01b03909116906321f8a72190612a7f906b42414c5f545245415355525960a01b90600401613ab3565b60206040518083038186803b158015612a9757600080fd5b505afa158015612aab573d6000803e3d6000fd5b505050506040513d601f19601f82011682018060405250810190612acf91906133dc565b935093509350935090919293565b600080868611612af257506000905080611bda565b6000612b0c85612356612b058a8c610def565b8990611f8b565b90506000612b24612b1d898b610def565b8790611f8b565b90506000612b328983610def565b90506000612b408483611630565b90506000612b4e8883611f8b565b90506000612b5c8383610def565b919d919c50909a5050505050505050505050565b6000818060200190518101906105f991906137a0565b60606000612b948484611630565b9050606085516001600160401b0381118015612baf57600080fd5b50604051908082528060200260200182016040528015612bd9578160200160208202803683370190505b50905060005b8651811015612c1757612bf8838883815181106123f557fe5b828281518110612c0457fe5b6020908102919091010152600101612bdf565b5095945050505050565b60606000612c2f84846120b4565b9050606085516001600160401b0381118015612c4a57600080fd5b50604051908082528060200260200182016040528015612c74578160200160208202803683370190505b50905060005b8651811015612c1757612ca983888381518110612c9357fe5b602002602001015161210b90919063ffffffff16565b828281518110612cb557fe5b6020908102919091010152600101612c7a565b600082612cd757506000610532565b6000612ce284612f20565b9050600281670de0b6b3a7640000860281612cf957fe5b04820181612d0357fe5b049050600281670de0b6b3a7640000860281612d1b57fe5b04820181612d2557fe5b049050600281670de0b6b3a7640000860281612d3d57fe5b04820181612d4757fe5b049050600281670de0b6b3a7640000860281612d5f57fe5b04820181612d6957fe5b049050600281670de0b6b3a7640000860281612d8157fe5b04820181612d8b57fe5b049050600281670de0b6b3a7640000860281612da357fe5b04820181612dad57fe5b049050600281670de0b6b3a7640000860281612dc557fe5b04820181612dcf57fe5b0490506000612dde8280611f8b565b9050612df4612ded838661210b565b869061128f565b8111158015612e165750612e12612e0b838661210b565b8690610def565b8110155b610a855760405162461bcd60e51b8152600401612e3290613b9c565b60405180910390fd5b6000808080612e4a8580611f8b565b9050612e5760038261160c565b9150612e73612e6c8761235681818782611f8b565b8390610def565b9150612e9888612e92612e8b60026107208a8f611f8b565b8590610def565b90610def565b9150506000612ea8858784613103565b90506000612eba8a6123568880611f8b565b9050612ed483610725612ecd898d611f8b565b849061128f565b9050612eea612ee38985611630565b829061128f565b905081811015935083612f0657612f018282610def565b612f10565b612f108183610def565b9450505050965096945050505050565b6000670de0b6b3a76400008210612f4d57670de0b6b3a7640000612f4581840461321a565b1b9050610745565b600a821015612f6157506312d940b6610745565b6064821015612f7657506402540be400610745565b6103e8821015612f8c575064075cdd4719610745565b612710821015612fa2575064174876e800610745565b620186a0821015612fb957506449a0a4c700610745565b620f4240821015612fd0575064e8d4a51000610745565b62989680821015612fe857506502e0466fc608610745565b6305f5e10082101561300157506509184e72a000610745565b633b9aca0082101561301a5750651cc2c05dbc53610745565b6402540be4008210156130345750655af3107a4000610745565b64174876e80082101561304f575066011f9b83a95b45610745565b64e8d4a5100082101561306a575066038d7ea4c68000610745565b6509184e72a0008210156130865750660b3c13249d90bb610745565b655af3107a40008210156130a25750662386f26fc10000610745565b66038d7ea4c680008210156130bf5750667058bf6e27a751610745565b662386f26fc100008210156130dd575067016345785d8a0000610745565b67016345785d8a00008210156130fc5750670463777a4d8c892d610745565b5080610745565b60006d0266ae2fd4d2340b427660000000841161315757613128846123568180611f8b565b905061314461313d8461235681818682611f8b565b8290610def565b90506131508183611630565b90506105f9565b6131618480611f8b565b905061319261317d670de0b6b3a7640000865b84919006611f8b565b6123b383670de0b6b3a7640000885b0461160c565b9050806131c26131a6633b9aca0086613174565b6123b36131b884633b9aca008961318c565b633b9aca006132b0565b90506131d56131a6633b9aca0086613174565b90506131e86131a6633b9aca0086613174565b90506131f48282610def565b915061196761320783633b9aca0061160c565b61321585633b9aca006132b0565b6132b0565b6000600160801b82106132325760809190911c906040015b68010000000000000000821061324d5760409190911c906020015b64010000000082106132645760209190911c906010015b6201000082106132795760109190911c906008015b610100821061328d5760089190911c906004015b601082106132a05760049190911c906002015b6004821061074557600101919050565b60006132bf8215156004611084565b8183816132c857fe5b049392505050565b803561053281613c2e565b600082601f8301126132eb578081fd5b81516132fe6132f982613c0f565b613be9565b81815291506020808301908481018184028601820187101561331f57600080fd5b60005b8481101561333e57815184529282019290820190600101613322565b505050505092915050565b600082601f830112613359578081fd5b81356001600160401b0381111561336e578182fd5b613381601f8201601f1916602001613be9565b915080825283602082850101111561339857600080fd5b8060208401602084013760009082016020015292915050565b80356002811061053257600080fd5b6000602082840312156133d1578081fd5b81356105f981613c2e565b6000602082840312156133ed578081fd5b81516105f981613c2e565b6000806040838503121561340a578081fd5b823561341581613c2e565b9150602083013561342581613c2e565b809150509250929050565b600080600060608486031215613444578081fd5b833561344f81613c2e565b9250602084013561345f81613c2e565b929592945050506040919091013590565b600080600080600080600060e0888a03121561348a578485fd5b873561349581613c2e565b965060208801356134a581613c2e565b95506040880135945060608801359350608088013560ff811681146134c8578384fd5b9699959850939692959460a0840135945060c09093013592915050565b600080604083850312156134f7578182fd5b823561350281613c2e565b946020939093013593505050565b600080600060608486031215613524578081fd5b83516001600160401b038082111561353a578283fd5b818601915086601f83011261354d578283fd5b815161355b6132f982613c0f565b80828252602080830192508086018b82838702890101111561357b578788fd5b8796505b848710156135a657805161359281613c2e565b84526001969096019592810192810161357f565b5089015190975093505050808211156135bd578283fd5b506135ca868287016132db565b925050604084015190509250925092565b6000602082840312156135ec578081fd5b81356105f981613c43565b600060208284031215613608578081fd5b81516105f981613c43565b600080600080600080600060e0888a03121561362d578081fd5b8735965060208089013561364081613c2e565b9650604089013561365081613c2e565b955060608901356001600160401b038082111561366b578384fd5b818b0191508b601f83011261367e578384fd5b813561368c6132f982613c0f565b8082825285820191508585018f8788860288010111156136aa578788fd5b8795505b838610156136cc5780358352600195909501949186019186016136ae565b509850505060808b0135955060a08b0135945060c08b01359250808311156136f2578384fd5b50506137008a828b01613349565b91505092959891949750929550565b600060208284031215613720578081fd5b81356001600160e01b0319811681146105f9578182fd5b60008060408385031215613749578182fd5b823561375481613c2e565b915060208301356001600160401b0381111561376e578182fd5b61377a85828601613349565b9150509250929050565b600060208284031215613795578081fd5b81516105f981613c51565b600080604083850312156137b2578182fd5b82516137bd81613c51565b6020939093015192949293505050565b600080604083850312156137df578182fd5b82516137ea81613c51565b60208401519092506001600160401b03811115613805578182fd5b61377a858286016132db565b600080600060608486031215613825578081fd5b83356001600160401b038082111561383b578283fd5b8186019150610120808389031215613851578384fd5b61385a81613be9565b905061386688846133b1565b815261387588602085016132d0565b602082015261388788604085016132d0565b6040820152606083013560608201526080830135608082015260a083013560a08201526138b78860c085016132d0565b60c08201526138c98860e085016132d0565b60e082015261010080840135838111156138e1578586fd5b6138ed8a828701613349565b9183019190915250976020870135975060409096013595945050505050565b60006020828403121561391d578081fd5b5035919050565b600060208284031215613935578081fd5b5051919050565b60008060008060808587031215613951578182fd5b845193506020850151925060408501519150606085015161397181613c2e565b939692955090935050565b6000815180845260208085019450808401835b838110156139ab5781518752958201959082019060010161398f565b509495945050505050565b60008151808452815b818110156139db576020818501810151868301820152016139bf565b818111156139ec5782602083870101525b50601f01601f19169290920160200192915050565b9182526001600160e01b031916602082015260240190565b6000828483379101908152919050565b61190160f01b81526002810192909252602282015260420190565b6001600160a01b0391909116815260200190565b6000602082526105f9602083018461397c565b600060408252613a7e604083018561397c565b8281036020840152611967818561397c565b901515815260200190565b92151583526020830191909152604082015260600190565b90815260200190565b9283526001600160a01b03918216602084015216604082015260600190565b9586526001600160a01b0394851660208701529290931660408501526060840152608083019190915260a082015260c00190565b9485526020850193909352604084019190915260608301526001600160a01b0316608082015260a00190565b600083825260406020830152611f8360408301846139b6565b9182526001600160a01b0316602082015260400190565b93845260ff9290921660208401526040830152606082015260800190565b6000602082526105f960208301846139b6565b6020808252600c908201526b17dcdc5c9d0811905253115160a21b604082015260600190565b600083825260406020830152611f83604083018461397c565b60ff91909116815260200190565b6040518181016001600160401b0381118282101715613c0757600080fd5b604052919050565b60006001600160401b03821115613c24578081fd5b5060209081020190565b6001600160a01b038116811461054957600080fd5b801515811461054957600080fd5b6004811061054957600080fdfea2646970667358221220125dbc85d77bc9bc166ecfe9badffee4c9b73c130595b2dd212686ac103ef38b64736f6c63430007010033","bytecodeSha1":"68516c91bde254189f965643bacf97143761eab0","compiler":{"evm_version":"istanbul","optimizer":{"enabled":true,"runs":200},"version":"0.7.1+commit.f4a555be"},"contractName":"GyroThreePool","language":"Solidity","natspec":{"details":"Gyro Three Pool with immutable weights.","kind":"dev","methods":{"DOMAIN_SEPARATOR()":{"details":"See {IERC20Permit-DOMAIN_SEPARATOR}."},"allowance(address,address)":{"details":"Override to grant the Vault infinite allowance, causing for Pool Tokens to not require approval. This is sound as the Vault already provides authorization mechanisms when initiation token transfers, which this contract inherits."},"approve(address,uint256)":{"details":"See {IERC20-approve}. Requirements: - `spender` cannot be the zero address."},"balanceOf(address)":{"details":"See {IERC20-balanceOf}."},"decimals()":{"details":"Returns the number of decimals used to get its user representation. For example, if `decimals` equals `2`, a balance of `505` tokens should be displayed to a user as `5,05` (`505 / 10 ** 2`). Tokens usually opt for a value of 18, imitating the relationship between Ether and Wei. This is the value {ERC20} uses, unless {_setupDecimals} is called. NOTE: This information is only used for _display_ purposes: it in no way affects any of the arithmetic of the contract, including {IERC20-balanceOf} and {IERC20-transfer}."},"decreaseAllowance(address,uint256)":{"details":"Override to allow decreasing allowance by more than the current amount (setting it to zero)"},"getActionId(bytes4)":{"details":"Returns the action identifier associated with the external function described by `selector`."},"getInvariant()":{"details":"Returns the current value of the invariant."},"getPausedState()":{"details":"Returns the current contract pause status, as well as the end times of the Pause Window and Buffer Period."},"getRate()":{"details":"This function returns the appreciation of one BPT relative to the underlying tokens. This starts at 1 when the pool is created and grows over time"},"increaseAllowance(address,uint256)":{"details":"Atomically increases the allowance granted to `spender` by the caller. This is an alternative to {approve} that can be used as a mitigation for problems described in {IERC20-approve}. Emits an {Approval} event indicating the updated allowance. Requirements: - `spender` cannot be the zero address."},"name()":{"details":"Returns the name of the token."},"nonces(address)":{"details":"See {IERC20Permit-nonces}."},"onExitPool(bytes32,address,address,uint256[],uint256,uint256,bytes)":{"details":"Called by the Vault when a user calls `IVault.exitPool` to remove liquidity from this Pool. Returns how many tokens the Vault should deduct from the Pool's balances, as well as the amount of protocol fees the Pool owes to the Vault. The Vault will then take tokens from the Pool's balances and send them to `recipient`, as well as collect the reported amount in protocol fees, which the Pool should calculate based on `protocolSwapFeePercentage`. Protocol fees are charged on exit events to guarantee that users exiting the Pool have paid their share. `sender` is the account performing the exit (typically the pool shareholder), and `recipient` is the account to which the Vault will send the proceeds. `balances` contains the total token balances for each token the Pool registered in the Vault, in the same order that `IVault.getPoolTokens` would return. `lastChangeBlock` is the last block in which *any* of the Pool's registered tokens last changed its total balance. `userData` contains any pool-specific instructions needed to perform the calculations, such as the type of exit (e.g., proportional given an amount of pool shares, single-asset, multi-asset, etc.) Contracts implementing this function should check that the caller is indeed the Vault before performing any state-changing operations, such as burning pool shares."},"onJoinPool(bytes32,address,address,uint256[],uint256,uint256,bytes)":{"details":"Called by the Vault when a user calls `IVault.joinPool` to add liquidity to this Pool. Returns how many of each registered token the user should provide, as well as the amount of protocol fees the Pool owes to the Vault. The Vault will then take tokens from `sender` and add them to the Pool's balances, as well as collect the reported amount in protocol fees, which the pool should calculate based on `protocolSwapFeePercentage`. Protocol fees are reported and charged on join events so that the Pool is free of debt whenever new users join. `sender` is the account performing the join (from which tokens will be withdrawn), and `recipient` is the account designated to receive any benefits (typically pool shares). `balances` contains the total balances for each token the Pool registered in the Vault, in the same order that `IVault.getPoolTokens` would return. `lastChangeBlock` is the last block in which *any* of the Pool's registered tokens last changed its total balance. `userData` contains any pool-specific instructions needed to perform the calculations, such as the type of join (e.g., proportional given an amount of pool shares, single-asset, multi-asset, etc.) Contracts implementing this function should check that the caller is indeed the Vault before performing any state-changing operations, such as minting pool shares."},"permit(address,address,uint256,uint256,uint8,bytes32,bytes32)":{"details":"See {IERC20Permit-permit}."},"queryExit(bytes32,address,address,uint256[],uint256,uint256,bytes)":{"details":"Returns the amount of BPT that would be burned from `sender` if the `onExitPool` hook were called by the Vault with the same arguments, along with the number of tokens `recipient` would receive. This function is not meant to be called directly, but rather from a helper contract that fetches current Vault data, such as the protocol swap fee percentage and Pool balances. Like `IVault.queryBatchSwap`, this function is not view due to internal implementation details: the caller must explicitly use eth_call instead of eth_sendTransaction."},"queryJoin(bytes32,address,address,uint256[],uint256,uint256,bytes)":{"details":"Returns the amount of BPT that would be granted to `recipient` if the `onJoinPool` hook were called by the Vault with the same arguments, along with the number of tokens `sender` would have to supply. This function is not meant to be called directly, but rather from a helper contract that fetches current Vault data, such as the protocol swap fee percentage and Pool balances. Like `IVault.queryBatchSwap`, this function is not view due to internal implementation details: the caller must explicitly use eth_call instead of eth_sendTransaction."},"symbol()":{"details":"Returns the symbol of the token, usually a shorter version of the name."},"totalSupply()":{"details":"See {IERC20-totalSupply}."},"transfer(address,uint256)":{"details":"See {IERC20-transfer}. Requirements: - `recipient` cannot be the zero address. - the caller must have a balance of at least `amount`."},"transferFrom(address,address,uint256)":{"details":"Override to allow for 'infinite allowance' and let the token owner use `transferFrom` with no self-allowance"}},"version":1},"opcodes":"PUSH1 0x80 PUSH1 0x40 MSTORE CALLVALUE DUP1 ISZERO PUSH2 0x10 JUMPI PUSH1 0x0 DUP1 REVERT JUMPDEST POP PUSH1 0x4 CALLDATASIZE LT PUSH2 0x21C JUMPI PUSH1 0x0 CALLDATALOAD PUSH1 0xE0 SHR DUP1 PUSH4 0x74F3B009 GT PUSH2 0x125 JUMPI DUP1 PUSH4 0xA457C2D7 GT PUSH2 0xAD JUMPI DUP1 PUSH4 0xD505ACCF GT PUSH2 0x7C JUMPI DUP1 PUSH4 0xD505ACCF EQ PUSH2 0x442 JUMPI DUP1 PUSH4 0xD5C096C4 EQ PUSH2 0x455 JUMPI DUP1 PUSH4 0xD60CA603 EQ PUSH2 0x468 JUMPI DUP1 PUSH4 0xDD62ED3E EQ PUSH2 0x470 JUMPI DUP1 PUSH4 0xF89F27ED EQ PUSH2 0x483 JUMPI PUSH2 0x21C JUMP JUMPDEST DUP1 PUSH4 0xA457C2D7 EQ PUSH2 0x40C JUMPI DUP1 PUSH4 0xA9059CBB EQ PUSH2 0x41F JUMPI DUP1 PUSH4 0xAAABADC5 EQ PUSH2 0x432 JUMPI DUP1 PUSH4 0xC0FF1A15 EQ PUSH2 0x43A JUMPI PUSH2 0x21C JUMP JUMPDEST DUP1 PUSH4 0x893D20E8 GT PUSH2 0xF4 JUMPI DUP1 PUSH4 0x893D20E8 EQ PUSH2 0x3D9 JUMPI DUP1 PUSH4 0x8D928AF8 EQ PUSH2 0x3E1 JUMPI DUP1 PUSH4 0x95D89B41 EQ PUSH2 0x3E9 JUMPI DUP1 PUSH4 0x9B02CDDE EQ PUSH2 0x3F1 JUMPI DUP1 PUSH4 0x9D2C110C EQ PUSH2 0x3F9 JUMPI PUSH2 0x21C JUMP JUMPDEST DUP1 PUSH4 0x74F3B009 EQ PUSH2 0x37F JUMPI DUP1 PUSH4 0x7ECEBE00 EQ PUSH2 0x3A0 JUMPI DUP1 PUSH4 0x851C1BB3 EQ PUSH2 0x3B3 JUMPI DUP1 PUSH4 0x87EC6817 EQ PUSH2 0x3C6 JUMPI PUSH2 0x21C JUMP JUMPDEST DUP1 PUSH4 0x38E9922E GT PUSH2 0x1A8 JUMPI DUP1 PUSH4 0x50DD6ED9 GT PUSH2 0x177 JUMPI DUP1 PUSH4 0x50DD6ED9 EQ PUSH2 0x328 JUMPI DUP1 PUSH4 0x55C67628 EQ PUSH2 0x33B JUMPI DUP1 PUSH4 0x6028BFD4 EQ PUSH2 0x343 JUMPI DUP1 PUSH4 0x679AEFCE EQ PUSH2 0x364 JUMPI DUP1 PUSH4 0x70A08231 EQ PUSH2 0x36C JUMPI PUSH2 0x21C JUMP JUMPDEST DUP1 PUSH4 0x38E9922E EQ PUSH2 0x2E5 JUMPI DUP1 PUSH4 0x38FFF2D0 EQ PUSH2 0x2F8 JUMPI DUP1 PUSH4 0x39509351 EQ PUSH2 0x300 JUMPI DUP1 PUSH4 0x44BBDB55 EQ PUSH2 0x313 JUMPI PUSH2 0x21C JUMP JUMPDEST DUP1 PUSH4 0x1C0DE051 GT PUSH2 0x1EF JUMPI DUP1 PUSH4 0x1C0DE051 EQ PUSH2 0x289 JUMPI DUP1 PUSH4 0x1DD746EA EQ PUSH2 0x2A0 JUMPI DUP1 PUSH4 0x23B872DD EQ PUSH2 0x2B5 JUMPI DUP1 PUSH4 0x313CE567 EQ PUSH2 0x2C8 JUMPI DUP1 PUSH4 0x3644E515 EQ PUSH2 0x2DD JUMPI PUSH2 0x21C JUMP JUMPDEST DUP1 PUSH4 0x6FDDE03 EQ PUSH2 0x221 JUMPI DUP1 PUSH4 0x95EA7B3 EQ PUSH2 0x23F JUMPI DUP1 PUSH4 0x16C38B3C EQ PUSH2 0x25F JUMPI DUP1 PUSH4 0x18160DDD EQ PUSH2 0x274 JUMPI JUMPDEST PUSH1 0x0 DUP1 REVERT JUMPDEST PUSH2 0x229 PUSH2 0x48B JUMP JUMPDEST PUSH1 0x40 MLOAD PUSH2 0x236 SWAP2 SWAP1 PUSH2 0x3B89 JUMP JUMPDEST PUSH1 0x40 MLOAD DUP1 SWAP2 SUB SWAP1 RETURN JUMPDEST PUSH2 0x252 PUSH2 0x24D CALLDATASIZE PUSH1 0x4 PUSH2 0x34E5 JUMP JUMPDEST PUSH2 0x521 JUMP JUMPDEST PUSH1 0x40 MLOAD PUSH2 0x236 SWAP2 SWAP1 PUSH2 0x3A90 JUMP JUMPDEST PUSH2 0x272 PUSH2 0x26D CALLDATASIZE PUSH1 0x4 PUSH2 0x35DB JUMP JUMPDEST PUSH2 0x538 JUMP JUMPDEST STOP JUMPDEST PUSH2 0x27C PUSH2 0x54C JUMP JUMPDEST PUSH1 0x40 MLOAD PUSH2 0x236 SWAP2 SWAP1 PUSH2 0x3AB3 JUMP JUMPDEST PUSH2 0x291 PUSH2 0x552 JUMP JUMPDEST PUSH1 0x40 MLOAD PUSH2 0x236 SWAP4 SWAP3 SWAP2 SWAP1 PUSH2 0x3A9B JUMP JUMPDEST PUSH2 0x2A8 PUSH2 0x57B JUMP JUMPDEST PUSH1 0x40 MLOAD PUSH2 0x236 SWAP2 SWAP1 PUSH2 0x3A58 JUMP JUMPDEST PUSH2 0x252 PUSH2 0x2C3 CALLDATASIZE PUSH1 0x4 PUSH2 0x3430 JUMP JUMPDEST PUSH2 0x58A JUMP JUMPDEST PUSH2 0x2D0 PUSH2 0x600 JUMP JUMPDEST PUSH1 0x40 MLOAD PUSH2 0x236 SWAP2 SWAP1 PUSH2 0x3BDB JUMP JUMPDEST PUSH2 0x27C PUSH2 0x609 JUMP JUMPDEST PUSH2 0x272 PUSH2 0x2F3 CALLDATASIZE PUSH1 0x4 PUSH2 0x390C JUMP JUMPDEST PUSH2 0x613 JUMP JUMPDEST PUSH2 0x27C PUSH2 0x62C JUMP JUMPDEST PUSH2 0x252 PUSH2 0x30E CALLDATASIZE PUSH1 0x4 PUSH2 0x34E5 JUMP JUMPDEST PUSH2 0x650 JUMP JUMPDEST PUSH2 0x31B PUSH2 0x68B JUMP JUMPDEST PUSH1 0x40 MLOAD PUSH2 0x236 SWAP2 SWAP1 PUSH2 0x3A44 JUMP JUMPDEST PUSH2 0x272 PUSH2 0x336 CALLDATASIZE PUSH1 0x4 PUSH2 0x3737 JUMP JUMPDEST PUSH2 0x69A JUMP JUMPDEST PUSH2 0x27C PUSH2 0x6B8 JUMP JUMPDEST PUSH2 0x356 PUSH2 0x351 CALLDATASIZE PUSH1 0x4 PUSH2 0x3613 JUMP JUMPDEST PUSH2 0x6C9 JUMP JUMPDEST PUSH1 0x40 MLOAD PUSH2 0x236 SWAP3 SWAP2 SWAP1 PUSH2 0x3BC2 JUMP JUMPDEST PUSH2 0x27C PUSH2 0x700 JUMP JUMPDEST PUSH2 0x27C PUSH2 0x37A CALLDATASIZE PUSH1 0x4 PUSH2 0x33C0 JUMP JUMPDEST PUSH2 0x72B JUMP JUMPDEST PUSH2 0x392 PUSH2 0x38D CALLDATASIZE PUSH1 0x4 PUSH2 0x3613 JUMP JUMPDEST PUSH2 0x74A JUMP JUMPDEST PUSH1 0x40 MLOAD PUSH2 0x236 SWAP3 SWAP2 SWAP1 PUSH2 0x3A6B JUMP JUMPDEST PUSH2 0x27C PUSH2 0x3AE CALLDATASIZE PUSH1 0x4 PUSH2 0x33C0 JUMP JUMPDEST PUSH2 0x7ED JUMP JUMPDEST PUSH2 0x27C PUSH2 0x3C1 CALLDATASIZE PUSH1 0x4 PUSH2 0x370F JUMP JUMPDEST PUSH2 0x808 JUMP JUMPDEST PUSH2 0x356 PUSH2 0x3D4 CALLDATASIZE PUSH1 0x4 PUSH2 0x3613 JUMP JUMPDEST PUSH2 0x85A JUMP JUMPDEST PUSH2 0x31B PUSH2 0x880 JUMP JUMPDEST PUSH2 0x31B PUSH2 0x8A4 JUMP JUMPDEST PUSH2 0x229 PUSH2 0x8C8 JUMP JUMPDEST PUSH2 0x27C PUSH2 0x929 JUMP JUMPDEST PUSH2 0x27C PUSH2 0x407 CALLDATASIZE PUSH1 0x4 PUSH2 0x3811 JUMP JUMPDEST PUSH2 0x92F JUMP JUMPDEST PUSH2 0x252 PUSH2 0x41A CALLDATASIZE PUSH1 0x4 PUSH2 0x34E5 JUMP JUMPDEST PUSH2 0xA8D JUMP JUMPDEST PUSH2 0x252 PUSH2 0x42D CALLDATASIZE PUSH1 0x4 PUSH2 0x34E5 JUMP JUMPDEST PUSH2 0xACB JUMP JUMPDEST PUSH2 0x31B PUSH2 0xAD8 JUMP JUMPDEST PUSH2 0x27C PUSH2 0xAE2 JUMP JUMPDEST PUSH2 0x272 PUSH2 0x450 CALLDATASIZE PUSH1 0x4 PUSH2 0x3470 JUMP JUMPDEST PUSH2 0xAEC JUMP JUMPDEST PUSH2 0x392 PUSH2 0x463 CALLDATASIZE PUSH1 0x4 PUSH2 0x3613 JUMP JUMPDEST PUSH2 0xC35 JUMP JUMPDEST PUSH2 0x27C PUSH2 0xD65 JUMP JUMPDEST PUSH2 0x27C PUSH2 0x47E CALLDATASIZE PUSH1 0x4 PUSH2 0x33F8 JUMP JUMPDEST PUSH2 0xD89 JUMP JUMPDEST PUSH2 0x2A8 PUSH2 0xDC6 JUMP JUMPDEST PUSH1 0x3 DUP1 SLOAD PUSH1 0x40 DUP1 MLOAD PUSH1 0x20 PUSH1 0x1F PUSH1 0x2 PUSH1 0x0 NOT PUSH2 0x100 PUSH1 0x1 DUP9 AND ISZERO MUL ADD SWAP1 SWAP6 AND SWAP5 SWAP1 SWAP5 DIV SWAP4 DUP5 ADD DUP2 SWAP1 DIV DUP2 MUL DUP3 ADD DUP2 ADD SWAP1 SWAP3 MSTORE DUP3 DUP2 MSTORE PUSH1 0x60 SWAP4 SWAP1 SWAP3 SWAP1 SWAP2 DUP4 ADD DUP3 DUP3 DUP1 ISZERO PUSH2 0x517 JUMPI DUP1 PUSH1 0x1F LT PUSH2 0x4EC JUMPI PUSH2 0x100 DUP1 DUP4 SLOAD DIV MUL DUP4 MSTORE SWAP2 PUSH1 0x20 ADD SWAP2 PUSH2 0x517 JUMP JUMPDEST DUP3 ADD SWAP2 SWAP1 PUSH1 0x0 MSTORE PUSH1 0x20 PUSH1 0x0 KECCAK256 SWAP1 JUMPDEST DUP2 SLOAD DUP2 MSTORE SWAP1 PUSH1 0x1 ADD SWAP1 PUSH1 0x20 ADD DUP1 DUP4 GT PUSH2 0x4FA JUMPI DUP3 SWAP1 SUB PUSH1 0x1F AND DUP3 ADD SWAP2 JUMPDEST POP POP POP POP POP SWAP1 POP SWAP1 JUMP JUMPDEST PUSH1 0x0 PUSH2 0x52E CALLER DUP5 DUP5 PUSH2 0xE05 JUMP JUMPDEST POP PUSH1 0x1 JUMPDEST SWAP3 SWAP2 POP POP JUMP JUMPDEST PUSH2 0x540 PUSH2 0xE6D JUMP JUMPDEST PUSH2 0x549 DUP2 PUSH2 0xE9B JUMP JUMPDEST POP JUMP JUMPDEST PUSH1 0x2 SLOAD SWAP1 JUMP JUMPDEST PUSH1 0x0 DUP1 PUSH1 0x0 PUSH2 0x55F PUSH2 0xF19 JUMP JUMPDEST ISZERO SWAP3 POP PUSH2 0x56A PUSH2 0xF36 JUMP JUMPDEST SWAP2 POP PUSH2 0x574 PUSH2 0xF5A JUMP JUMPDEST SWAP1 POP SWAP1 SWAP2 SWAP3 JUMP JUMPDEST PUSH1 0x60 PUSH2 0x585 PUSH2 0xF7E JUMP JUMPDEST SWAP1 POP SWAP1 JUMP JUMPDEST PUSH1 0x0 DUP1 PUSH2 0x597 DUP6 CALLER PUSH2 0xD89 JUMP JUMPDEST SWAP1 POP PUSH2 0x5BB CALLER PUSH1 0x1 PUSH1 0x1 PUSH1 0xA0 SHL SUB DUP8 AND EQ DUP1 PUSH2 0x5B3 JUMPI POP DUP4 DUP3 LT ISZERO JUMPDEST PUSH2 0x19E PUSH2 0x1084 JUMP JUMPDEST PUSH2 0x5C6 DUP6 DUP6 DUP6 PUSH2 0x1092 JUMP JUMPDEST CALLER PUSH1 0x1 PUSH1 0x1 PUSH1 0xA0 SHL SUB DUP7 AND EQ DUP1 ISZERO SWAP1 PUSH2 0x5E1 JUMPI POP PUSH1 0x0 NOT DUP2 EQ ISZERO JUMPDEST ISZERO PUSH2 0x5F3 JUMPI PUSH2 0x5F3 DUP6 CALLER DUP6 DUP5 SUB PUSH2 0xE05 JUMP JUMPDEST PUSH1 0x1 SWAP2 POP POP JUMPDEST SWAP4 SWAP3 POP POP POP JUMP JUMPDEST PUSH1 0x5 SLOAD PUSH1 0xFF AND SWAP1 JUMP JUMPDEST PUSH1 0x0 PUSH2 0x585 PUSH2 0x1172 JUMP JUMPDEST PUSH2 0x61B PUSH2 0xE6D JUMP JUMPDEST PUSH2 0x623 PUSH2 0x120F JUMP JUMPDEST PUSH2 0x549 DUP2 PUSH2 0x1224 JUMP JUMPDEST PUSH32 0x0 SWAP1 JUMP JUMPDEST CALLER PUSH1 0x0 DUP2 DUP2 MSTORE PUSH1 0x1 PUSH1 0x20 SWAP1 DUP2 MSTORE PUSH1 0x40 DUP1 DUP4 KECCAK256 PUSH1 0x1 PUSH1 0x1 PUSH1 0xA0 SHL SUB DUP8 AND DUP5 MSTORE SWAP1 SWAP2 MSTORE DUP2 KECCAK256 SLOAD SWAP1 SWAP2 PUSH2 0x52E SWAP2 DUP6 SWAP1 PUSH2 0x686 SWAP1 DUP7 PUSH2 0x128F JUMP JUMPDEST PUSH2 0xE05 JUMP JUMPDEST PUSH1 0xA SLOAD PUSH1 0x1 PUSH1 0x1 PUSH1 0xA0 SHL SUB AND DUP2 JUMP JUMPDEST PUSH2 0x6A2 PUSH2 0xE6D JUMP JUMPDEST PUSH2 0x6AA PUSH2 0x120F JUMP JUMPDEST PUSH2 0x6B4 DUP3 DUP3 PUSH2 0x12A1 JUMP JUMPDEST POP POP JUMP JUMPDEST PUSH1 0x8 SLOAD PUSH1 0x0 SWAP1 PUSH2 0x585 SWAP1 PUSH1 0xC0 PUSH2 0x13A0 JUMP JUMPDEST PUSH1 0x0 PUSH1 0x60 PUSH2 0x6DF DUP7 MLOAD PUSH2 0x6DA PUSH2 0x13AD JUMP JUMPDEST PUSH2 0x13B2 JUMP JUMPDEST PUSH2 0x6F4 DUP10 DUP10 DUP10 DUP10 DUP10 DUP10 DUP10 PUSH2 0x13BF PUSH2 0x1483 PUSH2 0x14E9 JUMP JUMPDEST SWAP8 POP SWAP8 SWAP6 POP POP POP POP POP POP JUMP JUMPDEST PUSH1 0x0 PUSH2 0x585 PUSH2 0x70D PUSH2 0x54C JUMP JUMPDEST PUSH2 0x725 PUSH2 0x718 PUSH2 0xAE2 JUMP JUMPDEST PUSH2 0x720 PUSH2 0x13AD JUMP JUMPDEST PUSH2 0x160C JUMP JUMPDEST SWAP1 PUSH2 0x1630 JUMP JUMPDEST PUSH1 0x1 PUSH1 0x1 PUSH1 0xA0 SHL SUB DUP2 AND PUSH1 0x0 SWAP1 DUP2 MSTORE PUSH1 0x20 DUP2 SWAP1 MSTORE PUSH1 0x40 SWAP1 KECCAK256 SLOAD JUMPDEST SWAP2 SWAP1 POP JUMP JUMPDEST PUSH1 0x60 DUP1 DUP9 PUSH2 0x774 PUSH2 0x759 PUSH2 0x8A4 JUMP JUMPDEST PUSH1 0x1 PUSH1 0x1 PUSH1 0xA0 SHL SUB AND CALLER PUSH1 0x1 PUSH1 0x1 PUSH1 0xA0 SHL SUB AND EQ PUSH1 0xCD PUSH2 0x1084 JUMP JUMPDEST PUSH2 0x789 PUSH2 0x77F PUSH2 0x62C JUMP JUMPDEST DUP3 EQ PUSH2 0x1F4 PUSH2 0x1084 JUMP JUMPDEST PUSH1 0x60 PUSH2 0x793 PUSH2 0xF7E JUMP JUMPDEST SWAP1 POP PUSH2 0x79F DUP9 DUP3 PUSH2 0x166F JUMP JUMPDEST PUSH1 0x0 PUSH1 0x60 DUP1 PUSH2 0x7B4 DUP15 DUP15 DUP15 DUP15 DUP15 DUP15 DUP11 DUP16 PUSH2 0x13BF JUMP JUMPDEST SWAP3 POP SWAP3 POP SWAP3 POP PUSH2 0x7C4 DUP14 DUP5 PUSH2 0x16D0 JUMP JUMPDEST PUSH2 0x7CE DUP3 DUP6 PUSH2 0x1483 JUMP JUMPDEST PUSH2 0x7D8 DUP2 DUP6 PUSH2 0x1483 JUMP JUMPDEST SWAP1 SWAP6 POP SWAP4 POP POP POP JUMPDEST POP SWAP8 POP SWAP8 SWAP6 POP POP POP POP POP POP JUMP JUMPDEST PUSH1 0x1 PUSH1 0x1 PUSH1 0xA0 SHL SUB AND PUSH1 0x0 SWAP1 DUP2 MSTORE PUSH1 0x6 PUSH1 0x20 MSTORE PUSH1 0x40 SWAP1 KECCAK256 SLOAD SWAP1 JUMP JUMPDEST PUSH1 0x0 PUSH32 0x0 DUP3 PUSH1 0x40 MLOAD PUSH1 0x20 ADD PUSH2 0x83D SWAP3 SWAP2 SWAP1 PUSH2 0x3A01 JUMP JUMPDEST PUSH1 0x40 MLOAD PUSH1 0x20 DUP2 DUP4 SUB SUB DUP2 MSTORE SWAP1 PUSH1 0x40 MSTORE DUP1 MLOAD SWAP1 PUSH1 0x20 ADD KECCAK256 SWAP1 POP SWAP2 SWAP1 POP JUMP JUMPDEST PUSH1 0x0 PUSH1 0x60 PUSH2 0x86B DUP7 MLOAD PUSH2 0x6DA PUSH2 0x13AD JUMP JUMPDEST PUSH2 0x6F4 DUP10 DUP10 DUP10 DUP10 DUP10 DUP10 DUP10 PUSH2 0x16DA PUSH2 0x1775 PUSH2 0x14E9 JUMP JUMPDEST PUSH32 0x0 SWAP1 JUMP JUMPDEST PUSH32 0x0 SWAP1 JUMP JUMPDEST PUSH1 0x4 DUP1 SLOAD PUSH1 0x40 DUP1 MLOAD PUSH1 0x20 PUSH1 0x1F PUSH1 0x2 PUSH1 0x0 NOT PUSH2 0x100 PUSH1 0x1 DUP9 AND ISZERO MUL ADD SWAP1 SWAP6 AND SWAP5 SWAP1 SWAP5 DIV SWAP4 DUP5 ADD DUP2 SWAP1 DIV DUP2 MUL DUP3 ADD DUP2 ADD SWAP1 SWAP3 MSTORE DUP3 DUP2 MSTORE PUSH1 0x60 SWAP4 SWAP1 SWAP3 SWAP1 SWAP2 DUP4 ADD DUP3 DUP3 DUP1 ISZERO PUSH2 0x517 JUMPI DUP1 PUSH1 0x1F LT PUSH2 0x4EC JUMPI PUSH2 0x100 DUP1 DUP4 SLOAD DIV MUL DUP4 MSTORE SWAP2 PUSH1 0x20 ADD SWAP2 PUSH2 0x517 JUMP JUMPDEST PUSH1 0x9 SLOAD SWAP1 JUMP JUMPDEST PUSH1 0x0 DUP4 PUSH1 0x80 ADD MLOAD PUSH2 0x941 PUSH2 0x759 PUSH2 0x8A4 JUMP JUMPDEST PUSH2 0x94C PUSH2 0x77F PUSH2 0x62C JUMP JUMPDEST PUSH1 0x0 PUSH2 0x95B DUP7 PUSH1 0x20 ADD MLOAD PUSH2 0x17D6 JUMP JUMPDEST SWAP1 POP PUSH1 0x0 PUSH2 0x96C DUP8 PUSH1 0x40 ADD MLOAD PUSH2 0x17D6 JUMP JUMPDEST SWAP1 POP PUSH1 0x0 DUP8 MLOAD PUSH1 0x1 DUP2 GT ISZERO PUSH2 0x97D JUMPI INVALID JUMPDEST EQ ISZERO PUSH2 0xA0D JUMPI PUSH1 0x0 PUSH2 0x992 DUP9 PUSH1 0x60 ADD MLOAD PUSH2 0x1906 JUMP JUMPDEST SWAP1 POP PUSH1 0x0 DUP2 DUP10 PUSH1 0x60 ADD MLOAD SUB SWAP1 POP PUSH2 0x9B6 DUP10 PUSH1 0x20 ADD MLOAD PUSH2 0x9B1 DUP4 DUP8 PUSH2 0x1927 JUMP JUMPDEST PUSH2 0x1933 JUMP JUMPDEST PUSH1 0x60 DUP10 ADD DUP3 SWAP1 MSTORE PUSH2 0x9C7 DUP9 DUP6 PUSH2 0x1927 JUMP JUMPDEST SWAP8 POP PUSH2 0x9D3 DUP8 DUP5 PUSH2 0x1927 JUMP JUMPDEST SWAP7 POP PUSH2 0x9E3 DUP10 PUSH1 0x60 ADD MLOAD DUP6 PUSH2 0x1927 JUMP JUMPDEST PUSH1 0x60 DUP11 ADD MSTORE PUSH1 0x0 PUSH2 0x9F5 DUP11 DUP11 DUP11 PUSH2 0x1945 JUMP JUMPDEST SWAP1 POP PUSH2 0xA01 DUP2 DUP6 PUSH2 0x1970 JUMP JUMPDEST SWAP7 POP POP POP POP POP POP PUSH2 0xA85 JUMP JUMPDEST PUSH2 0xA17 DUP7 DUP4 PUSH2 0x1927 JUMP JUMPDEST SWAP6 POP PUSH2 0xA23 DUP6 DUP3 PUSH2 0x1927 JUMP JUMPDEST SWAP5 POP PUSH2 0xA33 DUP8 PUSH1 0x60 ADD MLOAD DUP3 PUSH2 0x1927 JUMP JUMPDEST PUSH1 0x60 DUP9 ADD MSTORE PUSH1 0x0 PUSH2 0xA45 DUP9 DUP9 DUP9 PUSH2 0x197C JUMP JUMPDEST SWAP1 POP PUSH2 0xA51 DUP2 DUP5 PUSH2 0x199E JUMP JUMPDEST SWAP1 POP PUSH1 0x0 PUSH2 0xA5E DUP3 PUSH2 0x19AA JUMP JUMPDEST SWAP1 POP PUSH1 0x0 DUP3 DUP3 SUB SWAP1 POP PUSH2 0xA79 DUP11 PUSH1 0x20 ADD MLOAD PUSH2 0x9B1 DUP4 DUP9 PUSH2 0x1927 JUMP JUMPDEST POP SWAP5 POP PUSH2 0xA85 SWAP3 POP POP POP JUMP JUMPDEST POP SWAP4 SWAP3 POP POP POP JUMP JUMPDEST PUSH1 0x0 DUP1 PUSH2 0xA9A CALLER DUP6 PUSH2 0xD89 JUMP JUMPDEST SWAP1 POP DUP1 DUP4 LT PUSH2 0xAB4 JUMPI PUSH2 0xAAF CALLER DUP6 PUSH1 0x0 PUSH2 0xE05 JUMP JUMPDEST PUSH2 0xAC1 JUMP JUMPDEST PUSH2 0xAC1 CALLER DUP6 DUP6 DUP5 SUB PUSH2 0xE05 JUMP JUMPDEST POP PUSH1 0x1 SWAP4 SWAP3 POP POP POP JUMP JUMPDEST PUSH1 0x0 PUSH2 0x52E CALLER DUP5 DUP5 PUSH2 0x1092 JUMP JUMPDEST PUSH1 0x0 PUSH2 0x585 PUSH2 0x19D0 JUMP JUMPDEST PUSH1 0x0 PUSH2 0x585 PUSH2 0x1A4A JUMP JUMPDEST PUSH2 0xAFA DUP5 TIMESTAMP GT ISZERO PUSH1 0xD1 PUSH2 0x1084 JUMP JUMPDEST PUSH1 0x1 PUSH1 0x1 PUSH1 0xA0 SHL SUB DUP8 AND PUSH1 0x0 SWAP1 DUP2 MSTORE PUSH1 0x6 PUSH1 0x20 SWAP1 DUP2 MSTORE PUSH1 0x40 DUP1 DUP4 KECCAK256 SLOAD SWAP1 MLOAD SWAP1 SWAP3 SWAP2 PUSH2 0xB51 SWAP2 PUSH32 0x0 SWAP2 DUP13 SWAP2 DUP13 SWAP2 DUP13 SWAP2 DUP9 SWAP2 DUP14 SWAP2 ADD PUSH2 0x3ADB JUMP JUMPDEST PUSH1 0x40 MLOAD PUSH1 0x20 DUP2 DUP4 SUB SUB DUP2 MSTORE SWAP1 PUSH1 0x40 MSTORE DUP1 MLOAD SWAP1 PUSH1 0x20 ADD KECCAK256 SWAP1 POP PUSH1 0x0 PUSH2 0xB74 DUP3 PUSH2 0x1B21 JUMP JUMPDEST SWAP1 POP PUSH1 0x0 PUSH1 0x1 DUP3 DUP9 DUP9 DUP9 PUSH1 0x40 MLOAD PUSH1 0x0 DUP2 MSTORE PUSH1 0x20 ADD PUSH1 0x40 MSTORE PUSH1 0x40 MLOAD PUSH2 0xB9B SWAP5 SWAP4 SWAP3 SWAP2 SWAP1 PUSH2 0x3B6B JUMP JUMPDEST PUSH1 0x20 PUSH1 0x40 MLOAD PUSH1 0x20 DUP2 SUB SWAP1 DUP1 DUP5 SUB SWAP1 DUP6 GAS STATICCALL ISZERO DUP1 ISZERO PUSH2 0xBBD JUMPI RETURNDATASIZE PUSH1 0x0 DUP1 RETURNDATACOPY RETURNDATASIZE PUSH1 0x0 REVERT JUMPDEST POP POP PUSH1 0x40 MLOAD PUSH1 0x1F NOT ADD MLOAD SWAP2 POP PUSH2 0xBFF SWAP1 POP PUSH1 0x1 PUSH1 0x1 PUSH1 0xA0 SHL SUB DUP3 AND ISZERO DUP1 ISZERO SWAP1 PUSH2 0xBF7 JUMPI POP DUP12 PUSH1 0x1 PUSH1 0x1 PUSH1 0xA0 SHL SUB AND DUP3 PUSH1 0x1 PUSH1 0x1 PUSH1 0xA0 SHL SUB AND EQ JUMPDEST PUSH2 0x1F8 PUSH2 0x1084 JUMP JUMPDEST PUSH1 0x1 PUSH1 0x1 PUSH1 0xA0 SHL SUB DUP12 AND PUSH1 0x0 SWAP1 DUP2 MSTORE PUSH1 0x6 PUSH1 0x20 MSTORE PUSH1 0x40 SWAP1 KECCAK256 PUSH1 0x1 DUP6 ADD SWAP1 SSTORE PUSH2 0xC28 DUP12 DUP12 DUP12 PUSH2 0xE05 JUMP JUMPDEST POP POP POP POP POP POP POP POP POP POP POP JUMP JUMPDEST PUSH1 0x60 DUP1 DUP9 PUSH2 0xC44 PUSH2 0x759 PUSH2 0x8A4 JUMP JUMPDEST PUSH2 0xC4F PUSH2 0x77F PUSH2 0x62C JUMP JUMPDEST PUSH1 0x60 PUSH2 0xC59 PUSH2 0xF7E JUMP JUMPDEST SWAP1 POP PUSH2 0xC63 PUSH2 0x54C JUMP JUMPDEST PUSH2 0xD15 JUMPI PUSH1 0x0 PUSH1 0x60 PUSH2 0xC78 DUP14 DUP14 DUP14 DUP7 DUP12 PUSH2 0x1B3D JUMP JUMPDEST SWAP2 POP SWAP2 POP PUSH2 0xC91 PUSH2 0xC87 PUSH2 0x1BE4 JUMP JUMPDEST DUP4 LT ISZERO PUSH1 0xCC PUSH2 0x1084 JUMP JUMPDEST PUSH2 0xCA3 PUSH1 0x0 PUSH2 0xC9E PUSH2 0x1BE4 JUMP JUMPDEST PUSH2 0x1BEB JUMP JUMPDEST PUSH2 0xCB6 DUP12 PUSH2 0xCAF PUSH2 0x1BE4 JUMP JUMPDEST DUP5 SUB PUSH2 0x1BEB JUMP JUMPDEST PUSH2 0xCC0 DUP2 DUP5 PUSH2 0x1775 JUMP JUMPDEST DUP1 PUSH2 0xCC9 PUSH2 0x13AD JUMP JUMPDEST PUSH1 0x1 PUSH1 0x1 PUSH1 0x40 SHL SUB DUP2 GT DUP1 ISZERO PUSH2 0xCDE JUMPI PUSH1 0x0 DUP1 REVERT JUMPDEST POP PUSH1 0x40 MLOAD SWAP1 DUP1 DUP3 MSTORE DUP1 PUSH1 0x20 MUL PUSH1 0x20 ADD DUP3 ADD PUSH1 0x40 MSTORE DUP1 ISZERO PUSH2 0xD08 JUMPI DUP2 PUSH1 0x20 ADD PUSH1 0x20 DUP3 MUL DUP1 CALLDATASIZE DUP4 CALLDATACOPY ADD SWAP1 POP JUMPDEST POP SWAP6 POP SWAP6 POP POP POP POP PUSH2 0x7E0 JUMP JUMPDEST PUSH2 0xD1F DUP9 DUP3 PUSH2 0x166F JUMP JUMPDEST PUSH1 0x0 PUSH1 0x60 DUP1 PUSH2 0xD34 DUP15 DUP15 DUP15 DUP15 DUP15 DUP15 DUP11 DUP16 PUSH2 0x16DA JUMP JUMPDEST SWAP3 POP SWAP3 POP SWAP3 POP PUSH2 0xD44 DUP13 DUP5 PUSH2 0x1BEB JUMP JUMPDEST PUSH2 0xD4E DUP3 DUP6 PUSH2 0x1775 JUMP JUMPDEST PUSH2 0xD58 DUP2 DUP6 PUSH2 0x1483 JUMP JUMPDEST SWAP1 SWAP6 POP SWAP4 POP PUSH2 0x7E0 SWAP2 POP POP JUMP JUMPDEST PUSH32 0x0 SWAP1 JUMP JUMPDEST PUSH1 0x0 PUSH2 0xD93 PUSH2 0x8A4 JUMP JUMPDEST PUSH1 0x1 PUSH1 0x1 PUSH1 0xA0 SHL SUB AND DUP3 PUSH1 0x1 PUSH1 0x1 PUSH1 0xA0 SHL SUB AND EQ ISZERO PUSH2 0xDB5 JUMPI POP PUSH1 0x0 NOT PUSH2 0x532 JUMP JUMPDEST PUSH2 0xDBF DUP4 DUP4 PUSH2 0x1BF5 JUMP JUMPDEST SWAP1 POP PUSH2 0x532 JUMP JUMPDEST PUSH1 0x60 PUSH2 0x585 PUSH2 0x1C20 JUMP JUMPDEST DUP1 PUSH2 0x6B4 DUP2 PUSH2 0x1CB6 JUMP JUMPDEST PUSH1 0x1 PUSH1 0x1 PUSH1 0x40 SHL SUB DUP2 SHL NOT SWAP3 SWAP1 SWAP3 AND SWAP2 SHL OR SWAP1 JUMP JUMPDEST PUSH1 0x0 PUSH2 0xDFF DUP4 DUP4 GT ISZERO PUSH1 0x1 PUSH2 0x1084 JUMP JUMPDEST POP SWAP1 SUB SWAP1 JUMP JUMPDEST PUSH1 0x1 PUSH1 0x1 PUSH1 0xA0 SHL SUB DUP1 DUP5 AND PUSH1 0x0 DUP2 DUP2 MSTORE PUSH1 0x1 PUSH1 0x20 SWAP1 DUP2 MSTORE PUSH1 0x40 DUP1 DUP4 KECCAK256 SWAP5 DUP8 AND DUP1 DUP5 MSTORE SWAP5 SWAP1 SWAP2 MSTORE SWAP1 DUP2 SWAP1 KECCAK256 DUP5 SWAP1 SSTORE MLOAD PUSH32 0x8C5BE1E5EBEC7D5BD14F71427D1E84F3DD0314C0F7B2291E5B200AC8C7C3B925 SWAP1 PUSH2 0xE60 SWAP1 DUP6 SWAP1 PUSH2 0x3AB3 JUMP JUMPDEST PUSH1 0x40 MLOAD DUP1 SWAP2 SUB SWAP1 LOG3 POP POP POP JUMP JUMPDEST PUSH1 0x0 PUSH2 0xE84 PUSH1 0x0 CALLDATALOAD PUSH1 0x1 PUSH1 0x1 PUSH1 0xE0 SHL SUB NOT AND PUSH2 0x808 JUMP JUMPDEST SWAP1 POP PUSH2 0x549 PUSH2 0xE93 DUP3 CALLER PUSH2 0x1D2F JUMP JUMPDEST PUSH2 0x191 PUSH2 0x1084 JUMP JUMPDEST DUP1 ISZERO PUSH2 0xEBB JUMPI PUSH2 0xEB6 PUSH2 0xEAC PUSH2 0xF36 JUMP JUMPDEST TIMESTAMP LT PUSH2 0x193 PUSH2 0x1084 JUMP JUMPDEST PUSH2 0xED0 JUMP JUMPDEST PUSH2 0xED0 PUSH2 0xEC6 PUSH2 0xF5A JUMP JUMPDEST TIMESTAMP LT PUSH2 0x1A9 PUSH2 0x1084 JUMP JUMPDEST PUSH1 0x7 DUP1 SLOAD PUSH1 0xFF NOT AND DUP3 ISZERO ISZERO OR SWAP1 SSTORE PUSH1 0x40 MLOAD PUSH32 0x9E3A5E37224532DEA67B89FACE185703738A228A6E8A23DEE546960180D3BE64 SWAP1 PUSH2 0xF0E SWAP1 DUP4 SWAP1 PUSH2 0x3A90 JUMP JUMPDEST PUSH1 0x40 MLOAD DUP1 SWAP2 SUB SWAP1 LOG1 POP JUMP JUMPDEST PUSH1 0x0 PUSH2 0xF23 PUSH2 0xF5A JUMP JUMPDEST TIMESTAMP GT DUP1 PUSH2 0x585 JUMPI POP POP PUSH1 0x7 SLOAD PUSH1 0xFF AND ISZERO SWAP1 JUMP JUMPDEST PUSH32 0x0 SWAP1 JUMP JUMPDEST PUSH32 0x0 SWAP1 JUMP JUMPDEST PUSH1 0x60 PUSH1 0x0 PUSH2 0xF8A PUSH2 0x13AD JUMP JUMPDEST SWAP1 POP PUSH1 0x60 DUP2 PUSH1 0x1 PUSH1 0x1 PUSH1 0x40 SHL SUB DUP2 GT DUP1 ISZERO PUSH2 0xFA4 JUMPI PUSH1 0x0 DUP1 REVERT JUMPDEST POP PUSH1 0x40 MLOAD SWAP1 DUP1 DUP3 MSTORE DUP1 PUSH1 0x20 MUL PUSH1 0x20 ADD DUP3 ADD PUSH1 0x40 MSTORE DUP1 ISZERO PUSH2 0xFCE JUMPI DUP2 PUSH1 0x20 ADD PUSH1 0x20 DUP3 MUL DUP1 CALLDATASIZE DUP4 CALLDATACOPY ADD SWAP1 POP JUMPDEST POP SWAP1 POP PUSH32 0x0 DUP2 PUSH1 0x0 DUP2 MLOAD DUP2 LT PUSH2 0xFFF JUMPI INVALID JUMPDEST PUSH1 0x20 MUL PUSH1 0x20 ADD ADD DUP2 DUP2 MSTORE POP POP PUSH32 0x0 DUP2 PUSH1 0x1 DUP2 MLOAD DUP2 LT PUSH2 0x1039 JUMPI INVALID JUMPDEST PUSH1 0x20 MUL PUSH1 0x20 ADD ADD DUP2 DUP2 MSTORE POP POP PUSH32 0x0 DUP2 PUSH1 0x2 DUP2 MLOAD DUP2 LT PUSH2 0x1073 JUMPI INVALID JUMPDEST PUSH1 0x20 SWAP1 DUP2 MUL SWAP2 SWAP1 SWAP2 ADD ADD MSTORE SWAP2 POP POP SWAP1 JUMP JUMPDEST DUP2 PUSH2 0x6B4 JUMPI PUSH2 0x6B4 DUP2 PUSH2 0x1E18 JUMP JUMPDEST PUSH2 0x10A9 PUSH1 0x1 PUSH1 0x1 PUSH1 0xA0 SHL SUB DUP5 AND ISZERO ISZERO PUSH2 0x198 PUSH2 0x1084 JUMP JUMPDEST PUSH2 0x10C0 PUSH1 0x1 PUSH1 0x1 PUSH1 0xA0 SHL SUB DUP4 AND ISZERO ISZERO PUSH2 0x199 PUSH2 0x1084 JUMP JUMPDEST PUSH2 0x10CB DUP4 DUP4 DUP4 PUSH2 0x14E4 JUMP JUMPDEST PUSH1 0x1 PUSH1 0x1 PUSH1 0xA0 SHL SUB DUP4 AND PUSH1 0x0 SWAP1 DUP2 MSTORE PUSH1 0x20 DUP2 SWAP1 MSTORE PUSH1 0x40 SWAP1 KECCAK256 SLOAD PUSH2 0x10F1 SWAP1 DUP3 PUSH2 0x1A0 PUSH2 0x1E6B JUMP JUMPDEST PUSH1 0x1 PUSH1 0x1 PUSH1 0xA0 SHL SUB DUP1 DUP6 AND PUSH1 0x0 SWAP1 DUP2 MSTORE PUSH1 0x20 DUP2 SWAP1 MSTORE PUSH1 0x40 DUP1 DUP3 KECCAK256 SWAP4 SWAP1 SWAP4 SSTORE SWAP1 DUP5 AND DUP2 MSTORE KECCAK256 SLOAD PUSH2 0x1120 SWAP1 DUP3 PUSH2 0x128F JUMP JUMPDEST PUSH1 0x1 PUSH1 0x1 PUSH1 0xA0 SHL SUB DUP1 DUP5 AND PUSH1 0x0 DUP2 DUP2 MSTORE PUSH1 0x20 DUP2 SWAP1 MSTORE PUSH1 0x40 SWAP1 DUP2 SWAP1 KECCAK256 SWAP4 SWAP1 SWAP4 SSTORE SWAP2 MLOAD SWAP1 DUP6 AND SWAP1 PUSH32 0xDDF252AD1BE2C89B69C2B068FC378DAA952BA7F163C4A11628F55A4DF523B3EF SWAP1 PUSH2 0xE60 SWAP1 DUP6 SWAP1 PUSH2 0x3AB3 JUMP JUMPDEST PUSH1 0x0 PUSH32 0x0 PUSH32 0x0 PUSH32 0x0 PUSH2 0x11DF PUSH2 0x1E81 JUMP JUMPDEST ADDRESS PUSH1 0x40 MLOAD PUSH1 0x20 ADD PUSH2 0x11F4 SWAP6 SWAP5 SWAP4 SWAP3 SWAP2 SWAP1 PUSH2 0x3B0F JUMP JUMPDEST PUSH1 0x40 MLOAD PUSH1 0x20 DUP2 DUP4 SUB SUB DUP2 MSTORE SWAP1 PUSH1 0x40 MSTORE DUP1 MLOAD SWAP1 PUSH1 0x20 ADD KECCAK256 SWAP1 POP SWAP1 JUMP JUMPDEST PUSH2 0x1222 PUSH2 0x121A PUSH2 0xF19 JUMP JUMPDEST PUSH2 0x192 PUSH2 0x1084 JUMP JUMPDEST JUMP JUMPDEST PUSH2 0x1237 PUSH5 0xE8D4A51000 DUP3 LT ISZERO PUSH1 0xCB PUSH2 0x1084 JUMP JUMPDEST PUSH2 0x124D PUSH8 0x16345785D8A0000 DUP3 GT ISZERO PUSH1 0xCA PUSH2 0x1084 JUMP JUMPDEST PUSH1 0x8 SLOAD PUSH2 0x125C SWAP1 DUP3 PUSH1 0xC0 PUSH2 0xDDA JUMP JUMPDEST PUSH1 0x8 SSTORE PUSH1 0x40 MLOAD PUSH32 0xA9BA3FFE0B6C366B81232CAAB38605A0699AD5398D6CCE76F91EE809E322DAFC SWAP1 PUSH2 0xF0E SWAP1 DUP4 SWAP1 PUSH2 0x3AB3 JUMP JUMPDEST PUSH1 0x0 DUP3 DUP3 ADD PUSH2 0x5F9 DUP5 DUP3 LT ISZERO DUP4 PUSH2 0x1084 JUMP JUMPDEST PUSH1 0x0 PUSH2 0x12AB PUSH2 0x62C JUMP JUMPDEST SWAP1 POP PUSH1 0x0 PUSH2 0x12B7 PUSH2 0x8A4 JUMP JUMPDEST PUSH1 0x1 PUSH1 0x1 PUSH1 0xA0 SHL SUB AND PUSH4 0xB05F8E48 DUP4 DUP7 PUSH1 0x40 MLOAD DUP4 PUSH4 0xFFFFFFFF AND PUSH1 0xE0 SHL DUP2 MSTORE PUSH1 0x4 ADD PUSH2 0x12E4 SWAP3 SWAP2 SWAP1 PUSH2 0x3B54 JUMP JUMPDEST PUSH1 0x80 PUSH1 0x40 MLOAD DUP1 DUP4 SUB DUP2 DUP7 DUP1 EXTCODESIZE ISZERO DUP1 ISZERO PUSH2 0x12FC JUMPI PUSH1 0x0 DUP1 REVERT JUMPDEST POP GAS STATICCALL ISZERO DUP1 ISZERO PUSH2 0x1310 JUMPI RETURNDATASIZE PUSH1 0x0 DUP1 RETURNDATACOPY RETURNDATASIZE PUSH1 0x0 REVERT JUMPDEST POP POP POP POP PUSH1 0x40 MLOAD RETURNDATASIZE PUSH1 0x1F NOT PUSH1 0x1F DUP3 ADD AND DUP3 ADD DUP1 PUSH1 0x40 MSTORE POP DUP2 ADD SWAP1 PUSH2 0x1334 SWAP2 SWAP1 PUSH2 0x393C JUMP JUMPDEST PUSH1 0x40 MLOAD PUSH4 0x639CDB5 PUSH1 0xE2 SHL DUP2 MSTORE SWAP1 SWAP5 POP PUSH1 0x1 PUSH1 0x1 PUSH1 0xA0 SHL SUB DUP6 AND SWAP4 POP PUSH4 0x18E736D4 SWAP3 POP PUSH2 0x1368 SWAP2 POP DUP6 SWAP1 DUP8 SWAP1 PUSH1 0x4 ADD PUSH2 0x3B3B JUMP JUMPDEST PUSH1 0x0 PUSH1 0x40 MLOAD DUP1 DUP4 SUB DUP2 PUSH1 0x0 DUP8 DUP1 EXTCODESIZE ISZERO DUP1 ISZERO PUSH2 0x1382 JUMPI PUSH1 0x0 DUP1 REVERT JUMPDEST POP GAS CALL ISZERO DUP1 ISZERO PUSH2 0x1396 JUMPI RETURNDATASIZE PUSH1 0x0 DUP1 RETURNDATACOPY RETURNDATASIZE PUSH1 0x0 REVERT JUMPDEST POP POP POP POP POP POP POP POP JUMP JUMPDEST SHR PUSH1 0x1 PUSH1 0x1 PUSH1 0x40 SHL SUB AND SWAP1 JUMP JUMPDEST PUSH1 0x3 SWAP1 JUMP JUMPDEST PUSH2 0x6B4 DUP2 DUP4 EQ PUSH1 0x67 PUSH2 0x1084 JUMP JUMPDEST PUSH1 0x0 PUSH1 0x60 DUP1 PUSH32 0x0 PUSH2 0x13ED PUSH2 0xF19 JUMP JUMPDEST ISZERO PUSH2 0x1435 JUMPI PUSH1 0x0 PUSH2 0x13FE DUP11 DUP4 PUSH2 0x1E85 JUMP JUMPDEST SWAP1 POP PUSH2 0x1409 DUP2 PUSH2 0x1EB7 JUMP JUMPDEST PUSH2 0x1413 DUP11 DUP8 PUSH2 0x1EE4 JUMP JUMPDEST SWAP1 SWAP6 POP SWAP4 POP PUSH2 0x142C DUP2 DUP7 PUSH2 0x1425 PUSH2 0x54C JUMP JUMPDEST PUSH1 0x0 PUSH2 0x1F31 JUMP JUMPDEST PUSH1 0x9 SSTORE POP PUSH2 0x144B JUMP JUMPDEST PUSH2 0x143F DUP10 DUP7 PUSH2 0x1EE4 JUMP JUMPDEST PUSH1 0x0 NOT PUSH1 0x9 SSTORE SWAP1 SWAP5 POP SWAP3 POP JUMPDEST PUSH1 0x40 DUP1 MLOAD PUSH1 0x3 DUP1 DUP3 MSTORE PUSH1 0x80 DUP3 ADD SWAP1 SWAP3 MSTORE DUP6 SWAP2 DUP6 SWAP2 SWAP1 PUSH1 0x20 DUP3 ADD PUSH1 0x60 DUP1 CALLDATASIZE DUP4 CALLDATACOPY ADD SWAP1 POP POP SWAP4 POP SWAP4 POP SWAP4 POP POP SWAP9 POP SWAP9 POP SWAP9 SWAP6 POP POP POP POP POP POP JUMP JUMPDEST PUSH1 0x0 JUMPDEST PUSH2 0x148E PUSH2 0x13AD JUMP JUMPDEST DUP2 LT ISZERO PUSH2 0x14E4 JUMPI PUSH2 0x14C5 DUP4 DUP3 DUP2 MLOAD DUP2 LT PUSH2 0x14A4 JUMPI INVALID JUMPDEST PUSH1 0x20 MUL PUSH1 0x20 ADD ADD MLOAD DUP4 DUP4 DUP2 MLOAD DUP2 LT PUSH2 0x14B8 JUMPI INVALID JUMPDEST PUSH1 0x20 MUL PUSH1 0x20 ADD ADD MLOAD PUSH2 0x1630 JUMP JUMPDEST DUP4 DUP3 DUP2 MLOAD DUP2 LT PUSH2 0x14D1 JUMPI INVALID JUMPDEST PUSH1 0x20 SWAP1 DUP2 MUL SWAP2 SWAP1 SWAP2 ADD ADD MSTORE PUSH1 0x1 ADD PUSH2 0x1486 JUMP JUMPDEST POP POP POP JUMP JUMPDEST CALLER ADDRESS EQ PUSH2 0x15A7 JUMPI PUSH1 0x0 ADDRESS PUSH1 0x1 PUSH1 0x1 PUSH1 0xA0 SHL SUB AND PUSH1 0x0 CALLDATASIZE PUSH1 0x40 MLOAD PUSH2 0x150D SWAP3 SWAP2 SWAP1 PUSH2 0x3A19 JUMP JUMPDEST PUSH1 0x0 PUSH1 0x40 MLOAD DUP1 DUP4 SUB DUP2 PUSH1 0x0 DUP7 GAS CALL SWAP2 POP POP RETURNDATASIZE DUP1 PUSH1 0x0 DUP2 EQ PUSH2 0x154A JUMPI PUSH1 0x40 MLOAD SWAP2 POP PUSH1 0x1F NOT PUSH1 0x3F RETURNDATASIZE ADD AND DUP3 ADD PUSH1 0x40 MSTORE RETURNDATASIZE DUP3 MSTORE RETURNDATASIZE PUSH1 0x0 PUSH1 0x20 DUP5 ADD RETURNDATACOPY PUSH2 0x154F JUMP JUMPDEST PUSH1 0x60 SWAP2 POP JUMPDEST POP POP SWAP1 POP DUP1 PUSH1 0x0 DUP2 EQ PUSH2 0x155E JUMPI INVALID JUMPDEST PUSH1 0x4 PUSH1 0x0 DUP1 RETURNDATACOPY PUSH1 0x0 MLOAD PUSH1 0x1 PUSH1 0x1 PUSH1 0xE0 SHL SUB NOT AND PUSH4 0x43ADBAFB PUSH1 0xE0 SHL DUP2 EQ PUSH2 0x1589 JUMPI RETURNDATASIZE PUSH1 0x0 DUP1 RETURNDATACOPY RETURNDATASIZE PUSH1 0x0 REVERT JUMPDEST POP PUSH1 0x20 PUSH1 0x4 PUSH1 0x0 RETURNDATACOPY PUSH1 0x40 PUSH1 0x20 MSTORE PUSH1 0x24 RETURNDATASIZE SUB PUSH1 0x24 PUSH1 0x40 RETURNDATACOPY PUSH1 0x1C RETURNDATASIZE ADD PUSH1 0x0 RETURN JUMPDEST PUSH1 0x60 PUSH2 0x15B1 PUSH2 0xF7E JUMP JUMPDEST SWAP1 POP PUSH2 0x15BD DUP8 DUP3 PUSH2 0x166F JUMP JUMPDEST PUSH1 0x0 PUSH1 0x60 PUSH2 0x15D5 DUP13 DUP13 DUP13 DUP13 DUP13 DUP13 DUP10 DUP14 DUP14 PUSH4 0xFFFFFFFF AND JUMP JUMPDEST POP SWAP2 POP SWAP2 POP PUSH2 0x15E8 DUP2 DUP5 DUP7 PUSH4 0xFFFFFFFF AND JUMP JUMPDEST DUP1 MLOAD PUSH1 0x1F NOT DUP3 ADD DUP4 SWAP1 MSTORE PUSH4 0x43ADBAFB PUSH1 0x3F NOT DUP4 ADD MSTORE PUSH1 0x20 MUL PUSH1 0x23 NOT DUP3 ADD PUSH1 0x44 DUP3 ADD DUP2 REVERT JUMPDEST PUSH1 0x0 DUP3 DUP3 MUL PUSH2 0x5F9 DUP5 ISZERO DUP1 PUSH2 0x1629 JUMPI POP DUP4 DUP6 DUP4 DUP2 PUSH2 0x1626 JUMPI INVALID JUMPDEST DIV EQ JUMPDEST PUSH1 0x3 PUSH2 0x1084 JUMP JUMPDEST PUSH1 0x0 DUP2 PUSH2 0x163C JUMPI PUSH1 0x0 DUP1 REVERT JUMPDEST PUSH8 0xDE0B6B3A7640000 DUP4 DUP2 MUL SWAP1 DUP5 DUP3 DUP2 PUSH2 0x1652 JUMPI INVALID JUMPDEST DIV EQ PUSH2 0x165D JUMPI PUSH1 0x0 DUP1 REVERT JUMPDEST DUP3 DUP2 DUP2 PUSH2 0x1666 JUMPI INVALID JUMPDEST DIV SWAP5 SWAP4 POP POP POP POP JUMP JUMPDEST PUSH1 0x0 JUMPDEST PUSH2 0x167A PUSH2 0x13AD JUMP JUMPDEST DUP2 LT ISZERO PUSH2 0x14E4 JUMPI PUSH2 0x16B1 DUP4 DUP3 DUP2 MLOAD DUP2 LT PUSH2 0x1690 JUMPI INVALID JUMPDEST PUSH1 0x20 MUL PUSH1 0x20 ADD ADD MLOAD DUP4 DUP4 DUP2 MLOAD DUP2 LT PUSH2 0x16A4 JUMPI INVALID JUMPDEST PUSH1 0x20 MUL PUSH1 0x20 ADD ADD MLOAD PUSH2 0x1F8B JUMP JUMPDEST DUP4 DUP3 DUP2 MLOAD DUP2 LT PUSH2 0x16BD JUMPI INVALID JUMPDEST PUSH1 0x20 SWAP1 DUP2 MUL SWAP2 SWAP1 SWAP2 ADD ADD MSTORE PUSH1 0x1 ADD PUSH2 0x1672 JUMP JUMPDEST PUSH2 0x6B4 DUP3 DUP3 PUSH2 0x1FB4 JUMP JUMPDEST PUSH1 0x0 PUSH1 0x60 DUP1 PUSH32 0x0 DUP4 PUSH2 0x170B DUP11 DUP4 PUSH2 0x1E85 JUMP JUMPDEST SWAP1 POP PUSH2 0x1716 DUP2 PUSH2 0x1EB7 JUMP JUMPDEST PUSH2 0x1720 DUP11 DUP8 PUSH2 0x2070 JUMP JUMPDEST SWAP1 SWAP6 POP SWAP4 POP PUSH2 0x1739 DUP2 DUP7 PUSH2 0x1732 PUSH2 0x54C JUMP JUMPDEST PUSH1 0x1 PUSH2 0x1F31 JUMP JUMPDEST PUSH1 0x9 SSTORE PUSH1 0x40 DUP1 MLOAD PUSH1 0x3 DUP1 DUP3 MSTORE PUSH1 0x80 DUP3 ADD SWAP1 SWAP3 MSTORE DUP7 SWAP2 DUP7 SWAP2 SWAP1 PUSH1 0x20 DUP3 ADD PUSH1 0x60 DUP1 CALLDATASIZE DUP4 CALLDATACOPY ADD SWAP1 POP POP SWAP5 POP SWAP5 POP SWAP5 POP POP POP SWAP9 POP SWAP9 POP SWAP9 SWAP6 POP POP POP POP POP POP JUMP JUMPDEST PUSH1 0x0 JUMPDEST PUSH2 0x1780 PUSH2 0x13AD JUMP JUMPDEST DUP2 LT ISZERO PUSH2 0x14E4 JUMPI PUSH2 0x17B7 DUP4 DUP3 DUP2 MLOAD DUP2 LT PUSH2 0x1796 JUMPI INVALID JUMPDEST PUSH1 0x20 MUL PUSH1 0x20 ADD ADD MLOAD DUP4 DUP4 DUP2 MLOAD DUP2 LT PUSH2 0x17AA JUMPI INVALID JUMPDEST PUSH1 0x20 MUL PUSH1 0x20 ADD ADD MLOAD PUSH2 0x20B4 JUMP JUMPDEST DUP4 DUP3 DUP2 MLOAD DUP2 LT PUSH2 0x17C3 JUMPI INVALID JUMPDEST PUSH1 0x20 SWAP1 DUP2 MUL SWAP2 SWAP1 SWAP2 ADD ADD MSTORE PUSH1 0x1 ADD PUSH2 0x1778 JUMP JUMPDEST PUSH1 0x0 PUSH32 0x0 PUSH1 0x1 PUSH1 0x1 PUSH1 0xA0 SHL SUB AND DUP3 PUSH1 0x1 PUSH1 0x1 PUSH1 0xA0 SHL SUB AND EQ ISZERO PUSH2 0x1839 JUMPI POP PUSH32 0x0 PUSH2 0x745 JUMP JUMPDEST PUSH32 0x0 PUSH1 0x1 PUSH1 0x1 PUSH1 0xA0 SHL SUB AND DUP3 PUSH1 0x1 PUSH1 0x1 PUSH1 0xA0 SHL SUB AND EQ ISZERO PUSH2 0x189A JUMPI POP PUSH32 0x0 PUSH2 0x745 JUMP JUMPDEST PUSH32 0x0 PUSH1 0x1 PUSH1 0x1 PUSH1 0xA0 SHL SUB AND DUP3 PUSH1 0x1 PUSH1 0x1 PUSH1 0xA0 SHL SUB AND EQ ISZERO PUSH2 0x18FB JUMPI POP PUSH32 0x0 PUSH2 0x745 JUMP JUMPDEST PUSH2 0x745 PUSH2 0x135 PUSH2 0x1E18 JUMP JUMPDEST PUSH1 0x0 DUP1 PUSH2 0x191B PUSH2 0x1914 PUSH2 0x6B8 JUMP JUMPDEST DUP5 SWAP1 PUSH2 0x210B JUMP JUMPDEST SWAP1 POP PUSH2 0x5F9 DUP4 DUP3 PUSH2 0xDEF JUMP JUMPDEST PUSH1 0x0 PUSH2 0x5F9 DUP4 DUP4 PUSH2 0x1F8B JUMP JUMPDEST PUSH2 0x6B4 PUSH2 0x193F DUP4 PUSH2 0x2147 JUMP JUMPDEST DUP3 PUSH2 0x6B4 JUMP JUMPDEST PUSH1 0x0 PUSH2 0x194F PUSH2 0x120F JUMP JUMPDEST PUSH1 0x0 PUSH2 0x1959 PUSH2 0x214D JUMP JUMPDEST SWAP1 POP PUSH2 0x1967 DUP6 DUP6 DUP6 DUP5 PUSH2 0x2230 JUMP JUMPDEST SWAP6 SWAP5 POP POP POP POP POP JUMP JUMPDEST PUSH1 0x0 PUSH2 0x5F9 DUP4 DUP4 PUSH2 0x1630 JUMP JUMPDEST PUSH1 0x0 PUSH2 0x1986 PUSH2 0x120F JUMP JUMPDEST PUSH1 0x0 PUSH2 0x1990 PUSH2 0x214D JUMP JUMPDEST SWAP1 POP PUSH2 0x1967 DUP6 DUP6 DUP6 DUP5 PUSH2 0x2242 JUMP JUMPDEST PUSH1 0x0 PUSH2 0x5F9 DUP4 DUP4 PUSH2 0x20B4 JUMP JUMPDEST PUSH1 0x0 PUSH2 0x532 PUSH2 0x19C9 PUSH2 0x19BA PUSH2 0x6B8 JUMP JUMPDEST PUSH8 0xDE0B6B3A7640000 SWAP1 PUSH2 0xDEF JUMP JUMPDEST DUP4 SWAP1 PUSH2 0x20B4 JUMP JUMPDEST PUSH1 0x0 PUSH2 0x19DA PUSH2 0x8A4 JUMP JUMPDEST PUSH1 0x1 PUSH1 0x1 PUSH1 0xA0 SHL SUB AND PUSH4 0xAAABADC5 PUSH1 0x40 MLOAD DUP2 PUSH4 0xFFFFFFFF AND PUSH1 0xE0 SHL DUP2 MSTORE PUSH1 0x4 ADD PUSH1 0x20 PUSH1 0x40 MLOAD DUP1 DUP4 SUB DUP2 DUP7 DUP1 EXTCODESIZE ISZERO DUP1 ISZERO PUSH2 0x1A12 JUMPI PUSH1 0x0 DUP1 REVERT JUMPDEST POP GAS STATICCALL ISZERO DUP1 ISZERO PUSH2 0x1A26 JUMPI RETURNDATASIZE PUSH1 0x0 DUP1 RETURNDATACOPY RETURNDATASIZE PUSH1 0x0 REVERT JUMPDEST POP POP POP POP PUSH1 0x40 MLOAD RETURNDATASIZE PUSH1 0x1F NOT PUSH1 0x1F DUP3 ADD AND DUP3 ADD DUP1 PUSH1 0x40 MSTORE POP DUP2 ADD SWAP1 PUSH2 0x585 SWAP2 SWAP1 PUSH2 0x33DC JUMP JUMPDEST PUSH1 0x0 PUSH1 0x60 PUSH2 0x1A56 PUSH2 0x8A4 JUMP JUMPDEST PUSH1 0x1 PUSH1 0x1 PUSH1 0xA0 SHL SUB AND PUSH4 0xF94D4668 PUSH2 0x1A6C PUSH2 0x62C JUMP JUMPDEST PUSH1 0x40 MLOAD DUP3 PUSH4 0xFFFFFFFF AND PUSH1 0xE0 SHL DUP2 MSTORE PUSH1 0x4 ADD PUSH2 0x1A88 SWAP2 SWAP1 PUSH2 0x3AB3 JUMP JUMPDEST PUSH1 0x0 PUSH1 0x40 MLOAD DUP1 DUP4 SUB DUP2 DUP7 DUP1 EXTCODESIZE ISZERO DUP1 ISZERO PUSH2 0x1AA0 JUMPI PUSH1 0x0 DUP1 REVERT JUMPDEST POP GAS STATICCALL ISZERO DUP1 ISZERO PUSH2 0x1AB4 JUMPI RETURNDATASIZE PUSH1 0x0 DUP1 RETURNDATACOPY RETURNDATASIZE PUSH1 0x0 REVERT JUMPDEST POP POP POP POP PUSH1 0x40 MLOAD RETURNDATASIZE PUSH1 0x0 DUP3 RETURNDATACOPY PUSH1 0x1F RETURNDATASIZE SWAP1 DUP2 ADD PUSH1 0x1F NOT AND DUP3 ADD PUSH1 0x40 MSTORE PUSH2 0x1ADC SWAP2 SWAP1 DUP2 ADD SWAP1 PUSH2 0x3510 JUMP JUMPDEST POP SWAP2 POP POP PUSH2 0x1AF1 DUP2 PUSH2 0x1AEC PUSH2 0xF7E JUMP JUMPDEST PUSH2 0x166F JUMP JUMPDEST PUSH2 0x1B1B DUP2 PUSH32 0x0 PUSH2 0x1E85 JUMP JUMPDEST SWAP2 POP POP SWAP1 JUMP JUMPDEST PUSH1 0x0 PUSH2 0x1B2B PUSH2 0x1172 JUMP JUMPDEST DUP3 PUSH1 0x40 MLOAD PUSH1 0x20 ADD PUSH2 0x83D SWAP3 SWAP2 SWAP1 PUSH2 0x3A29 JUMP JUMPDEST PUSH1 0x0 PUSH1 0x60 PUSH2 0x1B49 PUSH2 0x120F JUMP JUMPDEST PUSH1 0x0 PUSH2 0x1B54 DUP5 PUSH2 0x2254 JUMP JUMPDEST SWAP1 POP PUSH2 0x1B6F PUSH1 0x0 DUP3 PUSH1 0x3 DUP2 GT ISZERO PUSH2 0x1B67 JUMPI INVALID JUMPDEST EQ PUSH1 0xCE PUSH2 0x1084 JUMP JUMPDEST PUSH1 0x60 PUSH2 0x1B7A DUP6 PUSH2 0x226A JUMP JUMPDEST SWAP1 POP PUSH2 0x1B88 DUP2 MLOAD PUSH1 0x3 PUSH2 0x13B2 JUMP JUMPDEST PUSH2 0x1B92 DUP2 DUP8 PUSH2 0x166F JUMP JUMPDEST PUSH1 0x0 PUSH2 0x1BBE DUP3 PUSH32 0x0 PUSH2 0x1E85 JUMP JUMPDEST SWAP1 POP PUSH1 0x0 PUSH2 0x1BCD DUP3 PUSH1 0x3 PUSH2 0x160C JUMP JUMPDEST PUSH1 0x9 SWAP3 SWAP1 SWAP3 SSTORE POP SWAP4 POP SWAP2 POP POP JUMPDEST SWAP6 POP SWAP6 SWAP4 POP POP POP POP JUMP JUMPDEST PUSH3 0xF4240 SWAP1 JUMP JUMPDEST PUSH2 0x6B4 DUP3 DUP3 PUSH2 0x2280 JUMP JUMPDEST PUSH1 0x1 PUSH1 0x1 PUSH1 0xA0 SHL SUB SWAP2 DUP3 AND PUSH1 0x0 SWAP1 DUP2 MSTORE PUSH1 0x1 PUSH1 0x20 SWAP1 DUP2 MSTORE PUSH1 0x40 DUP1 DUP4 KECCAK256 SWAP4 SWAP1 SWAP5 AND DUP3 MSTORE SWAP2 SWAP1 SWAP2 MSTORE KECCAK256 SLOAD SWAP1 JUMP JUMPDEST PUSH1 0x40 DUP1 MLOAD PUSH1 0x3 DUP1 DUP3 MSTORE PUSH1 0x80 DUP3 ADD SWAP1 SWAP3 MSTORE PUSH1 0x60 SWAP2 DUP3 SWAP2 SWAP1 PUSH1 0x20 DUP3 ADD DUP4 DUP1 CALLDATASIZE DUP4 CALLDATACOPY ADD SWAP1 POP POP SWAP1 POP PUSH1 0x3 PUSH8 0xDE0B6B3A7640000 DIV DUP2 PUSH1 0x0 DUP2 MLOAD DUP2 LT PUSH2 0x1C5E JUMPI INVALID JUMPDEST PUSH1 0x20 SWAP1 DUP2 MUL SWAP2 SWAP1 SWAP2 ADD ADD MSTORE PUSH1 0x3 PUSH8 0xDE0B6B3A7640000 DIV DUP2 PUSH1 0x1 DUP2 MLOAD DUP2 LT PUSH2 0x1C82 JUMPI INVALID JUMPDEST PUSH1 0x20 SWAP1 DUP2 MUL SWAP2 SWAP1 SWAP2 ADD ADD MSTORE PUSH1 0x3 PUSH8 0xDE0B6B3A7640000 DIV DUP2 PUSH1 0x2 DUP2 MLOAD DUP2 LT PUSH2 0x1CA6 JUMPI INVALID JUMPDEST PUSH1 0x20 SWAP1 DUP2 MUL SWAP2 SWAP1 SWAP2 ADD ADD MSTORE SWAP1 POP SWAP1 JUMP JUMPDEST PUSH1 0x2 DUP2 MLOAD LT ISZERO PUSH2 0x1CC5 JUMPI PUSH2 0x549 JUMP JUMPDEST PUSH1 0x0 DUP2 PUSH1 0x0 DUP2 MLOAD DUP2 LT PUSH2 0x1CD4 JUMPI INVALID JUMPDEST PUSH1 0x20 MUL PUSH1 0x20 ADD ADD MLOAD SWAP1 POP PUSH1 0x0 PUSH1 0x1 SWAP1 POP JUMPDEST DUP3 MLOAD DUP2 LT ISZERO PUSH2 0x14E4 JUMPI PUSH1 0x0 DUP4 DUP3 DUP2 MLOAD DUP2 LT PUSH2 0x1CFC JUMPI INVALID JUMPDEST PUSH1 0x20 MUL PUSH1 0x20 ADD ADD MLOAD SWAP1 POP PUSH2 0x1D25 DUP2 PUSH1 0x1 PUSH1 0x1 PUSH1 0xA0 SHL SUB AND DUP5 PUSH1 0x1 PUSH1 0x1 PUSH1 0xA0 SHL SUB AND LT PUSH1 0x65 PUSH2 0x1084 JUMP JUMPDEST SWAP2 POP PUSH1 0x1 ADD PUSH2 0x1CE5 JUMP JUMPDEST PUSH1 0x0 PUSH20 0xBA1BA1BA1BA1BA1BA1BA1BA1BA1BA1BA1BA1BA1B PUSH2 0x1D4E PUSH2 0x880 JUMP JUMPDEST PUSH1 0x1 PUSH1 0x1 PUSH1 0xA0 SHL SUB AND EQ ISZERO DUP1 ISZERO PUSH2 0x1D69 JUMPI POP PUSH2 0x1D69 DUP4 PUSH2 0x230E JUMP JUMPDEST ISZERO PUSH2 0x1D91 JUMPI PUSH2 0x1D76 PUSH2 0x880 JUMP JUMPDEST PUSH1 0x1 PUSH1 0x1 PUSH1 0xA0 SHL SUB AND CALLER PUSH1 0x1 PUSH1 0x1 PUSH1 0xA0 SHL SUB AND EQ SWAP1 POP PUSH2 0x532 JUMP JUMPDEST PUSH2 0x1D99 PUSH2 0x19D0 JUMP JUMPDEST PUSH1 0x1 PUSH1 0x1 PUSH1 0xA0 SHL SUB AND PUSH4 0x9BE2A884 DUP5 DUP5 ADDRESS PUSH1 0x40 MLOAD DUP5 PUSH4 0xFFFFFFFF AND PUSH1 0xE0 SHL DUP2 MSTORE PUSH1 0x4 ADD PUSH2 0x1DC8 SWAP4 SWAP3 SWAP2 SWAP1 PUSH2 0x3ABC JUMP JUMPDEST PUSH1 0x20 PUSH1 0x40 MLOAD DUP1 DUP4 SUB DUP2 DUP7 DUP1 EXTCODESIZE ISZERO DUP1 ISZERO PUSH2 0x1DE0 JUMPI PUSH1 0x0 DUP1 REVERT JUMPDEST POP GAS STATICCALL ISZERO DUP1 ISZERO PUSH2 0x1DF4 JUMPI RETURNDATASIZE PUSH1 0x0 DUP1 RETURNDATACOPY RETURNDATASIZE PUSH1 0x0 REVERT JUMPDEST POP POP POP POP PUSH1 0x40 MLOAD RETURNDATASIZE PUSH1 0x1F NOT PUSH1 0x1F DUP3 ADD AND DUP3 ADD DUP1 PUSH1 0x40 MSTORE POP DUP2 ADD SWAP1 PUSH2 0xDBF SWAP2 SWAP1 PUSH2 0x35F7 JUMP JUMPDEST PUSH3 0x461BCD PUSH1 0xE5 SHL PUSH1 0x0 SWAP1 DUP2 MSTORE PUSH1 0x20 PUSH1 0x4 MSTORE PUSH1 0x7 PUSH1 0x24 MSTORE PUSH7 0x42414C23000030 PUSH1 0xA DUP1 DUP5 DIV DUP2 DUP2 MOD PUSH1 0x30 SWAP1 DUP2 ADD PUSH1 0x8 SHL SWAP6 DUP4 SWAP1 MOD SWAP6 SWAP1 SWAP6 ADD SWAP1 DUP3 SWAP1 DIV SWAP2 DUP3 MOD SWAP1 SWAP5 ADD PUSH1 0x10 SHL SWAP4 SWAP1 SWAP4 ADD ADD PUSH1 0xC8 SHL PUSH1 0x44 MSTORE PUSH1 0x64 SWAP1 REVERT JUMPDEST PUSH1 0x0 PUSH2 0x1E7A DUP5 DUP5 GT ISZERO DUP4 PUSH2 0x1084 JUMP JUMPDEST POP POP SWAP1 SUB SWAP1 JUMP JUMPDEST CHAINID SWAP1 JUMP JUMPDEST PUSH1 0x0 DUP1 PUSH1 0x0 DUP1 PUSH1 0x0 PUSH2 0x1E97 DUP8 DUP8 PUSH2 0x2340 JUMP JUMPDEST SWAP4 POP SWAP4 POP SWAP4 POP SWAP4 POP PUSH2 0x1EAC DUP5 DUP5 DUP5 DUP5 DUP11 PUSH2 0x24B0 JUMP JUMPDEST SWAP8 SWAP7 POP POP POP POP POP POP POP JUMP JUMPDEST PUSH1 0x0 DUP1 PUSH1 0x0 DUP1 PUSH2 0x1EC9 PUSH1 0x9 SLOAD DUP7 PUSH2 0x24D8 JUMP JUMPDEST SWAP4 POP SWAP4 POP SWAP4 POP SWAP4 POP PUSH2 0x1EDD DUP5 DUP5 DUP5 DUP5 PUSH2 0x2541 JUMP JUMPDEST POP POP POP POP POP JUMP JUMPDEST PUSH1 0x0 PUSH1 0x60 PUSH1 0x0 PUSH2 0x1EF3 DUP5 PUSH2 0x2254 JUMP JUMPDEST SWAP1 POP PUSH1 0x1 DUP2 PUSH1 0x3 DUP2 GT ISZERO PUSH2 0x1F03 JUMPI INVALID JUMPDEST EQ ISZERO PUSH2 0x1F1D JUMPI PUSH2 0x1F13 DUP6 DUP6 PUSH2 0x2567 JUMP JUMPDEST SWAP3 POP SWAP3 POP POP PUSH2 0x1F2A JUMP JUMPDEST PUSH2 0x1F28 PUSH2 0x150 PUSH2 0x1E18 JUMP JUMPDEST POP JUMPDEST SWAP3 POP SWAP3 SWAP1 POP JUMP JUMPDEST PUSH1 0x0 DUP2 ISZERO PUSH2 0x1F63 JUMPI PUSH1 0x0 PUSH2 0x1F4F DUP5 PUSH2 0x1F49 DUP9 DUP9 PUSH2 0x210B JUMP JUMPDEST SWAP1 PUSH2 0x20B4 JUMP JUMPDEST SWAP1 POP PUSH2 0x1F5B DUP7 DUP3 PUSH2 0x128F JUMP JUMPDEST SWAP2 POP POP PUSH2 0x1F83 JUMP JUMPDEST PUSH1 0x0 PUSH2 0x1F73 DUP5 PUSH2 0x725 DUP9 DUP9 PUSH2 0x1F8B JUMP JUMPDEST SWAP1 POP PUSH2 0x1F7F DUP7 DUP3 PUSH2 0xDEF JUMP JUMPDEST SWAP2 POP POP JUMPDEST SWAP5 SWAP4 POP POP POP POP JUMP JUMPDEST PUSH1 0x0 DUP3 DUP3 MUL PUSH2 0x1FA5 DUP5 ISZERO DUP1 PUSH2 0x1629 JUMPI POP DUP4 DUP6 DUP4 DUP2 PUSH2 0x1626 JUMPI INVALID JUMPDEST PUSH8 0xDE0B6B3A7640000 DUP2 PUSH2 0x1666 JUMP JUMPDEST PUSH2 0x1FCB PUSH1 0x1 PUSH1 0x1 PUSH1 0xA0 SHL SUB DUP4 AND ISZERO ISZERO PUSH2 0x19B PUSH2 0x1084 JUMP JUMPDEST PUSH2 0x1FD7 DUP3 PUSH1 0x0 DUP4 PUSH2 0x14E4 JUMP JUMPDEST PUSH1 0x1 PUSH1 0x1 PUSH1 0xA0 SHL SUB DUP3 AND PUSH1 0x0 SWAP1 DUP2 MSTORE PUSH1 0x20 DUP2 SWAP1 MSTORE PUSH1 0x40 SWAP1 KECCAK256 SLOAD PUSH2 0x1FFD SWAP1 DUP3 PUSH2 0x1A1 PUSH2 0x1E6B JUMP JUMPDEST PUSH1 0x1 PUSH1 0x1 PUSH1 0xA0 SHL SUB DUP4 AND PUSH1 0x0 SWAP1 DUP2 MSTORE PUSH1 0x20 DUP2 SWAP1 MSTORE PUSH1 0x40 SWAP1 KECCAK256 SSTORE PUSH1 0x2 SLOAD PUSH2 0x2023 SWAP1 DUP3 PUSH2 0x2599 JUMP JUMPDEST PUSH1 0x2 SSTORE PUSH1 0x40 MLOAD PUSH1 0x0 SWAP1 PUSH1 0x1 PUSH1 0x1 PUSH1 0xA0 SHL SUB DUP5 AND SWAP1 PUSH32 0xDDF252AD1BE2C89B69C2B068FC378DAA952BA7F163C4A11628F55A4DF523B3EF SWAP1 PUSH2 0x2064 SWAP1 DUP6 SWAP1 PUSH2 0x3AB3 JUMP JUMPDEST PUSH1 0x40 MLOAD DUP1 SWAP2 SUB SWAP1 LOG3 POP POP JUMP JUMPDEST PUSH1 0x0 PUSH1 0x60 PUSH1 0x0 PUSH2 0x207F DUP5 PUSH2 0x2254 JUMP JUMPDEST SWAP1 POP PUSH1 0x3 DUP2 PUSH1 0x3 DUP2 GT ISZERO PUSH2 0x208F JUMPI INVALID JUMPDEST EQ ISZERO PUSH2 0x20A9 JUMPI PUSH2 0x209F DUP6 DUP6 PUSH2 0x25A7 JUMP JUMPDEST SWAP1 SWAP4 POP SWAP2 POP PUSH2 0x1F28 JUMP JUMPDEST PUSH2 0x1F28 PUSH2 0x136 PUSH2 0x1E18 JUMP JUMPDEST PUSH1 0x0 PUSH2 0x20C3 DUP3 ISZERO ISZERO PUSH1 0x4 PUSH2 0x1084 JUMP JUMPDEST DUP3 PUSH2 0x20D0 JUMPI POP PUSH1 0x0 PUSH2 0x532 JUMP JUMPDEST PUSH8 0xDE0B6B3A7640000 DUP4 DUP2 MUL SWAP1 PUSH2 0x20F3 SWAP1 DUP6 DUP4 DUP2 PUSH2 0x20EA JUMPI INVALID JUMPDEST DIV EQ PUSH1 0x5 PUSH2 0x1084 JUMP JUMPDEST DUP3 PUSH1 0x1 DUP3 SUB DUP2 PUSH2 0x20FF JUMPI INVALID JUMPDEST DIV PUSH1 0x1 ADD SWAP2 POP POP PUSH2 0x532 JUMP JUMPDEST PUSH1 0x0 DUP3 DUP3 MUL PUSH2 0x2125 DUP5 ISZERO DUP1 PUSH2 0x1629 JUMPI POP DUP4 DUP6 DUP4 DUP2 PUSH2 0x1626 JUMPI INVALID JUMPDEST DUP1 PUSH2 0x2134 JUMPI PUSH1 0x0 SWAP2 POP POP PUSH2 0x532 JUMP JUMPDEST PUSH8 0xDE0B6B3A7640000 PUSH1 0x0 NOT DUP3 ADD PUSH2 0x20FF JUMP JUMPDEST POP PUSH1 0x0 SWAP1 JUMP JUMPDEST PUSH1 0x0 PUSH1 0x60 PUSH2 0x2159 PUSH2 0x8A4 JUMP JUMPDEST PUSH1 0x1 PUSH1 0x1 PUSH1 0xA0 SHL SUB AND PUSH4 0xF94D4668 PUSH2 0x216F PUSH2 0x62C JUMP JUMPDEST PUSH1 0x40 MLOAD DUP3 PUSH4 0xFFFFFFFF AND PUSH1 0xE0 SHL DUP2 MSTORE PUSH1 0x4 ADD PUSH2 0x218B SWAP2 SWAP1 PUSH2 0x3AB3 JUMP JUMPDEST PUSH1 0x0 PUSH1 0x40 MLOAD DUP1 DUP4 SUB DUP2 DUP7 DUP1 EXTCODESIZE ISZERO DUP1 ISZERO PUSH2 0x21A3 JUMPI PUSH1 0x0 DUP1 REVERT JUMPDEST POP GAS STATICCALL ISZERO DUP1 ISZERO PUSH2 0x21B7 JUMPI RETURNDATASIZE PUSH1 0x0 DUP1 RETURNDATACOPY RETURNDATASIZE PUSH1 0x0 REVERT JUMPDEST POP POP POP POP PUSH1 0x40 MLOAD RETURNDATASIZE PUSH1 0x0 DUP3 RETURNDATACOPY PUSH1 0x1F RETURNDATASIZE SWAP1 DUP2 ADD PUSH1 0x1F NOT AND DUP3 ADD PUSH1 0x40 MSTORE PUSH2 0x21DF SWAP2 SWAP1 DUP2 ADD SWAP1 PUSH2 0x3510 JUMP JUMPDEST POP SWAP2 POP POP PUSH2 0x21EF DUP2 PUSH2 0x1AEC PUSH2 0xF7E JUMP JUMPDEST PUSH32 0x0 PUSH1 0x0 PUSH2 0x221C DUP4 DUP4 PUSH2 0x1E85 JUMP JUMPDEST SWAP1 POP PUSH2 0x2228 DUP2 DUP4 PUSH2 0x1F8B JUMP JUMPDEST SWAP4 POP POP POP POP SWAP1 JUMP JUMPDEST PUSH1 0x0 PUSH2 0x1967 DUP5 DUP5 DUP8 PUSH1 0x60 ADD MLOAD DUP6 PUSH2 0x25CC JUMP JUMPDEST PUSH1 0x0 PUSH2 0x1967 DUP5 DUP5 DUP8 PUSH1 0x60 ADD MLOAD DUP6 PUSH2 0x2664 JUMP JUMPDEST PUSH1 0x0 DUP2 DUP1 PUSH1 0x20 ADD SWAP1 MLOAD DUP2 ADD SWAP1 PUSH2 0x532 SWAP2 SWAP1 PUSH2 0x3784 JUMP JUMPDEST PUSH1 0x60 DUP2 DUP1 PUSH1 0x20 ADD SWAP1 MLOAD DUP2 ADD SWAP1 PUSH2 0x5F9 SWAP2 SWAP1 PUSH2 0x37CD JUMP JUMPDEST PUSH2 0x228C PUSH1 0x0 DUP4 DUP4 PUSH2 0x14E4 JUMP JUMPDEST PUSH1 0x2 SLOAD PUSH2 0x2299 SWAP1 DUP3 PUSH2 0x128F JUMP JUMPDEST PUSH1 0x2 SSTORE PUSH1 0x1 PUSH1 0x1 PUSH1 0xA0 SHL SUB DUP3 AND PUSH1 0x0 SWAP1 DUP2 MSTORE PUSH1 0x20 DUP2 SWAP1 MSTORE PUSH1 0x40 SWAP1 KECCAK256 SLOAD PUSH2 0x22BF SWAP1 DUP3 PUSH2 0x128F JUMP JUMPDEST PUSH1 0x1 PUSH1 0x1 PUSH1 0xA0 SHL SUB DUP4 AND PUSH1 0x0 DUP2 DUP2 MSTORE PUSH1 0x20 DUP2 SWAP1 MSTORE PUSH1 0x40 DUP1 DUP3 KECCAK256 SWAP4 SWAP1 SWAP4 SSTORE SWAP2 MLOAD SWAP1 SWAP2 SWAP1 PUSH32 0xDDF252AD1BE2C89B69C2B068FC378DAA952BA7F163C4A11628F55A4DF523B3EF SWAP1 PUSH2 0x2064 SWAP1 DUP6 SWAP1 PUSH2 0x3AB3 JUMP JUMPDEST PUSH1 0x0 PUSH2 0x2320 PUSH4 0x1C74C917 PUSH1 0xE1 SHL PUSH2 0x808 JUMP JUMPDEST DUP3 EQ DUP1 PUSH2 0x532 JUMPI POP PUSH2 0x2338 PUSH4 0x50DD6ED9 PUSH1 0xE0 SHL PUSH2 0x808 JUMP JUMPDEST SWAP1 SWAP2 EQ SWAP2 SWAP1 POP JUMP JUMPDEST PUSH1 0x0 DUP1 DUP1 DUP1 PUSH2 0x235C PUSH2 0x19BA DUP7 PUSH2 0x2356 DUP2 DUP1 PUSH2 0x1F8B JUMP JUMPDEST SWAP1 PUSH2 0x1F8B JUMP JUMPDEST SWAP4 POP PUSH1 0x0 PUSH2 0x23B9 DUP8 PUSH1 0x2 DUP2 MLOAD DUP2 LT PUSH2 0x2370 JUMPI INVALID JUMPDEST PUSH1 0x20 MUL PUSH1 0x20 ADD ADD MLOAD PUSH2 0x23B3 DUP10 PUSH1 0x1 DUP2 MLOAD DUP2 LT PUSH2 0x2388 JUMPI INVALID JUMPDEST PUSH1 0x20 MUL PUSH1 0x20 ADD ADD MLOAD DUP11 PUSH1 0x0 DUP2 MLOAD DUP2 LT PUSH2 0x239D JUMPI INVALID JUMPDEST PUSH1 0x20 MUL PUSH1 0x20 ADD ADD MLOAD PUSH2 0x128F SWAP1 SWAP2 SWAP1 PUSH4 0xFFFFFFFF AND JUMP JUMPDEST SWAP1 PUSH2 0x128F JUMP JUMPDEST SWAP1 POP PUSH2 0x23C9 DUP7 PUSH2 0x2356 DUP4 DUP3 PUSH2 0x1F8B JUMP JUMPDEST SWAP4 POP PUSH1 0x0 PUSH2 0x2458 PUSH2 0x240B DUP10 PUSH1 0x0 DUP2 MLOAD DUP2 LT PUSH2 0x23E0 JUMPI INVALID JUMPDEST PUSH1 0x20 MUL PUSH1 0x20 ADD ADD MLOAD DUP11 PUSH1 0x2 DUP2 MLOAD DUP2 LT PUSH2 0x23F5 JUMPI INVALID JUMPDEST PUSH1 0x20 MUL PUSH1 0x20 ADD ADD MLOAD PUSH2 0x1F8B SWAP1 SWAP2 SWAP1 PUSH4 0xFFFFFFFF AND JUMP JUMPDEST PUSH2 0x23B3 PUSH2 0x2433 DUP12 PUSH1 0x2 DUP2 MLOAD DUP2 LT PUSH2 0x241E JUMPI INVALID JUMPDEST PUSH1 0x20 MUL PUSH1 0x20 ADD ADD MLOAD DUP13 PUSH1 0x1 DUP2 MLOAD DUP2 LT PUSH2 0x23F5 JUMPI INVALID JUMPDEST PUSH2 0x23B3 DUP13 PUSH1 0x1 DUP2 MLOAD DUP2 LT PUSH2 0x2443 JUMPI INVALID JUMPDEST PUSH1 0x20 MUL PUSH1 0x20 ADD ADD MLOAD DUP14 PUSH1 0x0 DUP2 MLOAD DUP2 LT PUSH2 0x23F5 JUMPI INVALID JUMPDEST SWAP1 POP PUSH2 0x2464 DUP2 DUP9 PUSH2 0x1F8B JUMP JUMPDEST SWAP4 POP PUSH2 0x24A3 DUP9 PUSH1 0x2 DUP2 MLOAD DUP2 LT PUSH2 0x2476 JUMPI INVALID JUMPDEST PUSH1 0x20 MUL PUSH1 0x20 ADD ADD MLOAD PUSH2 0x2356 DUP11 PUSH1 0x1 DUP2 MLOAD DUP2 LT PUSH2 0x248E JUMPI INVALID JUMPDEST PUSH1 0x20 MUL PUSH1 0x20 ADD ADD MLOAD DUP12 PUSH1 0x0 DUP2 MLOAD DUP2 LT PUSH2 0x23F5 JUMPI INVALID JUMPDEST SWAP3 POP POP POP SWAP3 SWAP6 SWAP2 SWAP5 POP SWAP3 POP JUMP JUMPDEST PUSH1 0x0 PUSH2 0x24BE DUP7 DUP7 DUP7 DUP7 PUSH2 0x26F5 JUMP JUMPDEST SWAP1 POP PUSH2 0x24CE DUP7 DUP7 DUP7 DUP7 DUP7 DUP7 PUSH2 0x27AB JUMP JUMPDEST SWAP7 SWAP6 POP POP POP POP POP POP JUMP JUMPDEST PUSH1 0x0 DUP1 PUSH1 0x0 DUP1 PUSH1 0x0 DUP1 PUSH1 0x0 DUP1 PUSH2 0x24EC PUSH2 0x286E JUMP JUMPDEST SWAP4 POP SWAP4 POP SWAP4 POP SWAP4 POP DUP4 PUSH1 0x0 EQ ISZERO PUSH2 0x2511 JUMPI PUSH1 0x0 SWAP8 POP DUP8 SWAP7 POP SWAP1 SWAP5 POP SWAP3 POP PUSH2 0x2538 SWAP2 POP POP JUMP JUMPDEST PUSH1 0x0 DUP1 PUSH2 0x2528 DUP13 DUP13 PUSH2 0x2521 PUSH2 0x54C JUMP JUMPDEST DUP10 DUP10 PUSH2 0x2ADD JUMP JUMPDEST SWAP1 SWAP11 POP SWAP9 POP SWAP3 SWAP7 POP SWAP1 SWAP5 POP POP POP POP POP JUMPDEST SWAP3 SWAP6 SWAP2 SWAP5 POP SWAP3 POP JUMP JUMPDEST DUP4 ISZERO PUSH2 0x2551 JUMPI PUSH2 0x2551 DUP3 DUP6 PUSH2 0x1BEB JUMP JUMPDEST DUP3 ISZERO PUSH2 0x2561 JUMPI PUSH2 0x2561 DUP2 DUP5 PUSH2 0x1BEB JUMP JUMPDEST POP POP POP POP JUMP JUMPDEST PUSH1 0x0 PUSH1 0x60 PUSH1 0x0 PUSH2 0x2576 DUP5 PUSH2 0x2B70 JUMP JUMPDEST SWAP1 POP PUSH1 0x60 PUSH2 0x258C DUP7 DUP4 PUSH2 0x2587 PUSH2 0x54C JUMP JUMPDEST PUSH2 0x2B86 JUMP JUMPDEST SWAP2 SWAP7 SWAP2 SWAP6 POP SWAP1 SWAP4 POP POP POP POP JUMP JUMPDEST PUSH1 0x0 PUSH2 0x5F9 DUP4 DUP4 PUSH1 0x1 PUSH2 0x1E6B JUMP JUMPDEST PUSH1 0x0 PUSH1 0x60 PUSH1 0x0 PUSH2 0x25B6 DUP5 PUSH2 0x2B70 JUMP JUMPDEST SWAP1 POP PUSH1 0x60 PUSH2 0x258C DUP7 DUP4 PUSH2 0x25C7 PUSH2 0x54C JUMP JUMPDEST PUSH2 0x2C21 JUMP JUMPDEST PUSH1 0x0 PUSH2 0x25EE PUSH2 0x25E3 DUP7 PUSH8 0x429D069189E0000 PUSH2 0x1F8B JUMP JUMPDEST DUP5 GT ISZERO PUSH2 0x130 PUSH2 0x1084 JUMP JUMPDEST PUSH1 0x0 PUSH2 0x260C PUSH2 0x2605 DUP5 PUSH8 0xDE0B6B3A7640002 PUSH2 0x210B JUMP JUMPDEST DUP8 SWAP1 PUSH2 0x128F JUMP JUMPDEST SWAP1 POP PUSH1 0x0 PUSH2 0x2625 PUSH2 0x2605 DUP6 PUSH8 0xDE0B6B3A763FFFF PUSH2 0x1F8B JUMP JUMPDEST SWAP1 POP PUSH2 0x263E PUSH2 0x2634 DUP4 DUP8 PUSH2 0x128F JUMP JUMPDEST PUSH2 0x725 DUP4 DUP9 PUSH2 0x1F8B JUMP JUMPDEST SWAP3 POP PUSH2 0x1F83 SWAP2 POP PUSH2 0x2659 SWAP1 POP DUP6 PUSH8 0x429D069189E0000 PUSH2 0x1F8B JUMP JUMPDEST DUP3 GT ISZERO PUSH2 0x131 PUSH2 0x1084 JUMP JUMPDEST PUSH1 0x0 PUSH2 0x2686 PUSH2 0x267B DUP6 PUSH8 0x429D069189E0000 PUSH2 0x1F8B JUMP JUMPDEST DUP5 GT ISZERO PUSH2 0x131 PUSH2 0x1084 JUMP JUMPDEST PUSH1 0x0 PUSH2 0x269D PUSH2 0x2605 DUP5 PUSH8 0xDE0B6B3A7640002 PUSH2 0x210B JUMP JUMPDEST SWAP1 POP PUSH1 0x0 PUSH2 0x26B6 PUSH2 0x2605 DUP6 PUSH8 0xDE0B6B3A763FFFF PUSH2 0x1F8B JUMP JUMPDEST SWAP1 POP PUSH2 0x26CF PUSH2 0x26C5 DUP3 DUP8 PUSH2 0xDEF JUMP JUMPDEST PUSH2 0x1F49 DUP5 DUP9 PUSH2 0x210B JUMP JUMPDEST SWAP3 POP PUSH2 0x1F83 SWAP2 POP PUSH2 0x26EA SWAP1 POP DUP7 PUSH8 0x429D069189E0000 PUSH2 0x1F8B JUMP JUMPDEST DUP3 GT ISZERO PUSH2 0x130 PUSH2 0x1084 JUMP JUMPDEST PUSH1 0x0 DUP1 PUSH2 0x2721 PUSH2 0x2717 PUSH8 0x29A2241AF62C0000 PUSH2 0x2711 DUP10 DUP9 PUSH2 0x210B JUMP JUMPDEST SWAP1 PUSH2 0x210B JUMP JUMPDEST PUSH2 0x23B3 DUP8 DUP1 PUSH2 0x210B JUMP JUMPDEST SWAP1 POP PUSH1 0x0 PUSH2 0x2747 PUSH2 0x273A PUSH1 0x3 DUP10 MUL PUSH2 0x1F49 DUP6 PUSH1 0x5 PUSH2 0x2CC8 JUMP JUMPDEST PUSH2 0x23B3 DUP9 PUSH1 0x3 DUP12 MUL PUSH2 0x20B4 JUMP JUMPDEST SWAP1 POP PUSH1 0x0 PUSH2 0x275D PUSH8 0xDE0B6B3A7640000 DUP10 PUSH2 0xDEF JUMP JUMPDEST SWAP1 POP PUSH1 0x0 PUSH8 0x6F05B59D3B20000 DUP3 LT ISZERO PUSH2 0x277F JUMPI PUSH8 0x1BC16D674EC80000 PUSH2 0x2789 JUMP JUMPDEST PUSH8 0x14D1120D7B160000 JUMPDEST PUSH1 0x1 PUSH1 0x1 PUSH1 0x40 SHL SUB AND SWAP1 POP PUSH2 0x279E DUP4 DUP3 PUSH2 0x210B JUMP JUMPDEST SWAP10 SWAP9 POP POP POP POP POP POP POP POP POP JUMP JUMPDEST PUSH1 0x0 DUP1 DUP1 JUMPDEST PUSH1 0xFF DUP2 LT ISZERO PUSH2 0x2857 JUMPI PUSH1 0x0 DUP1 PUSH2 0x27CA DUP12 DUP12 DUP12 DUP12 DUP12 DUP12 PUSH2 0x2E3B JUMP JUMPDEST SWAP2 POP SWAP2 POP PUSH1 0x1 DUP3 GT PUSH2 0x27E2 JUMPI DUP6 SWAP5 POP POP POP POP POP PUSH2 0x24CE JUMP JUMPDEST PUSH1 0x5 DUP4 LT DUP1 ISZERO SWAP1 PUSH2 0x27F0 JUMPI POP DUP1 JUMPDEST ISZERO PUSH2 0x2801 JUMPI DUP6 SWAP5 POP POP POP POP POP PUSH2 0x24CE JUMP JUMPDEST PUSH1 0x5 DUP4 LT DUP1 ISZERO SWAP1 PUSH2 0x2815 JUMPI POP PUSH1 0x8 DUP5 DIV DUP3 LT ISZERO JUMPDEST ISZERO PUSH2 0x2826 JUMPI DUP6 SWAP5 POP POP POP POP POP PUSH2 0x24CE JUMP JUMPDEST DUP2 SWAP4 POP DUP1 ISZERO PUSH2 0x2840 JUMPI PUSH2 0x2839 DUP7 DUP4 PUSH2 0x128F JUMP JUMPDEST SWAP6 POP PUSH2 0x284D JUMP JUMPDEST PUSH2 0x284A DUP7 DUP4 PUSH2 0xDEF JUMP JUMPDEST SWAP6 POP JUMPDEST POP POP PUSH1 0x1 ADD PUSH2 0x27B0 JUMP JUMPDEST POP PUSH2 0x2863 PUSH2 0x160 PUSH2 0x1E18 JUMP JUMPDEST POP SWAP7 SWAP6 POP POP POP POP POP POP JUMP JUMPDEST PUSH1 0xA SLOAD PUSH1 0x40 MLOAD PUSH4 0xBD02D0F5 PUSH1 0xE0 SHL DUP2 MSTORE PUSH1 0x0 SWAP2 DUP3 SWAP2 DUP3 SWAP2 DUP3 SWAP2 PUSH1 0x1 PUSH1 0x1 PUSH1 0xA0 SHL SUB SWAP1 SWAP2 AND SWAP1 PUSH4 0xBD02D0F5 SWAP1 PUSH2 0x28C0 SWAP1 PUSH22 0x50524F544F434F4C5F535741505F4645455F50455243 PUSH1 0x50 SHL SWAP1 PUSH1 0x4 ADD PUSH2 0x3AB3 JUMP JUMPDEST PUSH1 0x20 PUSH1 0x40 MLOAD DUP1 DUP4 SUB DUP2 DUP7 DUP1 EXTCODESIZE ISZERO DUP1 ISZERO PUSH2 0x28D8 JUMPI PUSH1 0x0 DUP1 REVERT JUMPDEST POP GAS STATICCALL ISZERO DUP1 ISZERO PUSH2 0x28EC JUMPI RETURNDATASIZE PUSH1 0x0 DUP1 RETURNDATACOPY RETURNDATASIZE PUSH1 0x0 REVERT JUMPDEST POP POP POP POP PUSH1 0x40 MLOAD RETURNDATASIZE PUSH1 0x1F NOT PUSH1 0x1F DUP3 ADD AND DUP3 ADD DUP1 PUSH1 0x40 MSTORE POP DUP2 ADD SWAP1 PUSH2 0x2910 SWAP2 SWAP1 PUSH2 0x3924 JUMP JUMPDEST PUSH1 0xA SLOAD PUSH1 0x40 MLOAD PUSH4 0xBD02D0F5 PUSH1 0xE0 SHL DUP2 MSTORE PUSH1 0x1 PUSH1 0x1 PUSH1 0xA0 SHL SUB SWAP1 SWAP2 AND SWAP1 PUSH4 0xBD02D0F5 SWAP1 PUSH2 0x2960 SWAP1 PUSH32 0x50524F544F434F4C5F4645455F4759524F5F504F5254494F4E00000000000000 SWAP1 PUSH1 0x4 ADD PUSH2 0x3AB3 JUMP JUMPDEST PUSH1 0x20 PUSH1 0x40 MLOAD DUP1 DUP4 SUB DUP2 DUP7 DUP1 EXTCODESIZE ISZERO DUP1 ISZERO PUSH2 0x2978 JUMPI PUSH1 0x0 DUP1 REVERT JUMPDEST POP GAS STATICCALL ISZERO DUP1 ISZERO PUSH2 0x298C JUMPI RETURNDATASIZE PUSH1 0x0 DUP1 RETURNDATACOPY RETURNDATASIZE PUSH1 0x0 REVERT JUMPDEST POP POP POP POP PUSH1 0x40 MLOAD RETURNDATASIZE PUSH1 0x1F NOT PUSH1 0x1F DUP3 ADD AND DUP3 ADD DUP1 PUSH1 0x40 MSTORE POP DUP2 ADD SWAP1 PUSH2 0x29B0 SWAP2 SWAP1 PUSH2 0x3924 JUMP JUMPDEST PUSH1 0xA SLOAD PUSH1 0x40 MLOAD PUSH4 0x21F8A721 PUSH1 0xE0 SHL DUP2 MSTORE PUSH1 0x1 PUSH1 0x1 PUSH1 0xA0 SHL SUB SWAP1 SWAP2 AND SWAP1 PUSH4 0x21F8A721 SWAP1 PUSH2 0x29F0 SWAP1 PUSH13 0x4759524F5F5452454153555259 PUSH1 0x98 SHL SWAP1 PUSH1 0x4 ADD PUSH2 0x3AB3 JUMP JUMPDEST PUSH1 0x20 PUSH1 0x40 MLOAD DUP1 DUP4 SUB DUP2 DUP7 DUP1 EXTCODESIZE ISZERO DUP1 ISZERO PUSH2 0x2A08 JUMPI PUSH1 0x0 DUP1 REVERT JUMPDEST POP GAS STATICCALL ISZERO DUP1 ISZERO PUSH2 0x2A1C JUMPI RETURNDATASIZE PUSH1 0x0 DUP1 RETURNDATACOPY RETURNDATASIZE PUSH1 0x0 REVERT JUMPDEST POP POP POP POP PUSH1 0x40 MLOAD RETURNDATASIZE PUSH1 0x1F NOT PUSH1 0x1F DUP3 ADD AND DUP3 ADD DUP1 PUSH1 0x40 MSTORE POP DUP2 ADD SWAP1 PUSH2 0x2A40 SWAP2 SWAP1 PUSH2 0x33DC JUMP JUMPDEST PUSH1 0xA SLOAD PUSH1 0x40 MLOAD PUSH4 0x21F8A721 PUSH1 0xE0 SHL DUP2 MSTORE PUSH1 0x1 PUSH1 0x1 PUSH1 0xA0 SHL SUB SWAP1 SWAP2 AND SWAP1 PUSH4 0x21F8A721 SWAP1 PUSH2 0x2A7F SWAP1 PUSH12 0x42414C5F5452454153555259 PUSH1 0xA0 SHL SWAP1 PUSH1 0x4 ADD PUSH2 0x3AB3 JUMP JUMPDEST PUSH1 0x20 PUSH1 0x40 MLOAD DUP1 DUP4 SUB DUP2 DUP7 DUP1 EXTCODESIZE ISZERO DUP1 ISZERO PUSH2 0x2A97 JUMPI PUSH1 0x0 DUP1 REVERT JUMPDEST POP GAS STATICCALL ISZERO DUP1 ISZERO PUSH2 0x2AAB JUMPI RETURNDATASIZE PUSH1 0x0 DUP1 RETURNDATACOPY RETURNDATASIZE PUSH1 0x0 REVERT JUMPDEST POP POP POP POP PUSH1 0x40 MLOAD RETURNDATASIZE PUSH1 0x1F NOT PUSH1 0x1F DUP3 ADD AND DUP3 ADD DUP1 PUSH1 0x40 MSTORE POP DUP2 ADD SWAP1 PUSH2 0x2ACF SWAP2 SWAP1 PUSH2 0x33DC JUMP JUMPDEST SWAP4 POP SWAP4 POP SWAP4 POP SWAP4 POP SWAP1 SWAP2 SWAP3 SWAP4 JUMP JUMPDEST PUSH1 0x0 DUP1 DUP7 DUP7 GT PUSH2 0x2AF2 JUMPI POP PUSH1 0x0 SWAP1 POP DUP1 PUSH2 0x1BDA JUMP JUMPDEST PUSH1 0x0 PUSH2 0x2B0C DUP6 PUSH2 0x2356 PUSH2 0x2B05 DUP11 DUP13 PUSH2 0xDEF JUMP JUMPDEST DUP10 SWAP1 PUSH2 0x1F8B JUMP JUMPDEST SWAP1 POP PUSH1 0x0 PUSH2 0x2B24 PUSH2 0x2B1D DUP10 DUP12 PUSH2 0xDEF JUMP JUMPDEST DUP8 SWAP1 PUSH2 0x1F8B JUMP JUMPDEST SWAP1 POP PUSH1 0x0 PUSH2 0x2B32 DUP10 DUP4 PUSH2 0xDEF JUMP JUMPDEST SWAP1 POP PUSH1 0x0 PUSH2 0x2B40 DUP5 DUP4 PUSH2 0x1630 JUMP JUMPDEST SWAP1 POP PUSH1 0x0 PUSH2 0x2B4E DUP9 DUP4 PUSH2 0x1F8B JUMP JUMPDEST SWAP1 POP PUSH1 0x0 PUSH2 0x2B5C DUP4 DUP4 PUSH2 0xDEF JUMP JUMPDEST SWAP2 SWAP14 SWAP2 SWAP13 POP SWAP1 SWAP11 POP POP POP POP POP POP POP POP POP POP POP JUMP JUMPDEST PUSH1 0x0 DUP2 DUP1 PUSH1 0x20 ADD SWAP1 MLOAD DUP2 ADD SWAP1 PUSH2 0x5F9 SWAP2 SWAP1 PUSH2 0x37A0 JUMP JUMPDEST PUSH1 0x60 PUSH1 0x0 PUSH2 0x2B94 DUP5 DUP5 PUSH2 0x1630 JUMP JUMPDEST SWAP1 POP PUSH1 0x60 DUP6 MLOAD PUSH1 0x1 PUSH1 0x1 PUSH1 0x40 SHL SUB DUP2 GT DUP1 ISZERO PUSH2 0x2BAF JUMPI PUSH1 0x0 DUP1 REVERT JUMPDEST POP PUSH1 0x40 MLOAD SWAP1 DUP1 DUP3 MSTORE DUP1 PUSH1 0x20 MUL PUSH1 0x20 ADD DUP3 ADD PUSH1 0x40 MSTORE DUP1 ISZERO PUSH2 0x2BD9 JUMPI DUP2 PUSH1 0x20 ADD PUSH1 0x20 DUP3 MUL DUP1 CALLDATASIZE DUP4 CALLDATACOPY ADD SWAP1 POP JUMPDEST POP SWAP1 POP PUSH1 0x0 JUMPDEST DUP7 MLOAD DUP2 LT ISZERO PUSH2 0x2C17 JUMPI PUSH2 0x2BF8 DUP4 DUP9 DUP4 DUP2 MLOAD DUP2 LT PUSH2 0x23F5 JUMPI INVALID JUMPDEST DUP3 DUP3 DUP2 MLOAD DUP2 LT PUSH2 0x2C04 JUMPI INVALID JUMPDEST PUSH1 0x20 SWAP1 DUP2 MUL SWAP2 SWAP1 SWAP2 ADD ADD MSTORE PUSH1 0x1 ADD PUSH2 0x2BDF JUMP JUMPDEST POP SWAP6 SWAP5 POP POP POP POP POP JUMP JUMPDEST PUSH1 0x60 PUSH1 0x0 PUSH2 0x2C2F DUP5 DUP5 PUSH2 0x20B4 JUMP JUMPDEST SWAP1 POP PUSH1 0x60 DUP6 MLOAD PUSH1 0x1 PUSH1 0x1 PUSH1 0x40 SHL SUB DUP2 GT DUP1 ISZERO PUSH2 0x2C4A JUMPI PUSH1 0x0 DUP1 REVERT JUMPDEST POP PUSH1 0x40 MLOAD SWAP1 DUP1 DUP3 MSTORE DUP1 PUSH1 0x20 MUL PUSH1 0x20 ADD DUP3 ADD PUSH1 0x40 MSTORE DUP1 ISZERO PUSH2 0x2C74 JUMPI DUP2 PUSH1 0x20 ADD PUSH1 0x20 DUP3 MUL DUP1 CALLDATASIZE DUP4 CALLDATACOPY ADD SWAP1 POP JUMPDEST POP SWAP1 POP PUSH1 0x0 JUMPDEST DUP7 MLOAD DUP2 LT ISZERO PUSH2 0x2C17 JUMPI PUSH2 0x2CA9 DUP4 DUP9 DUP4 DUP2 MLOAD DUP2 LT PUSH2 0x2C93 JUMPI INVALID JUMPDEST PUSH1 0x20 MUL PUSH1 0x20 ADD ADD MLOAD PUSH2 0x210B SWAP1 SWAP2 SWAP1 PUSH4 0xFFFFFFFF AND JUMP JUMPDEST DUP3 DUP3 DUP2 MLOAD DUP2 LT PUSH2 0x2CB5 JUMPI INVALID JUMPDEST PUSH1 0x20 SWAP1 DUP2 MUL SWAP2 SWAP1 SWAP2 ADD ADD MSTORE PUSH1 0x1 ADD PUSH2 0x2C7A JUMP JUMPDEST PUSH1 0x0 DUP3 PUSH2 0x2CD7 JUMPI POP PUSH1 0x0 PUSH2 0x532 JUMP JUMPDEST PUSH1 0x0 PUSH2 0x2CE2 DUP5 PUSH2 0x2F20 JUMP JUMPDEST SWAP1 POP PUSH1 0x2 DUP2 PUSH8 0xDE0B6B3A7640000 DUP7 MUL DUP2 PUSH2 0x2CF9 JUMPI INVALID JUMPDEST DIV DUP3 ADD DUP2 PUSH2 0x2D03 JUMPI INVALID JUMPDEST DIV SWAP1 POP PUSH1 0x2 DUP2 PUSH8 0xDE0B6B3A7640000 DUP7 MUL DUP2 PUSH2 0x2D1B JUMPI INVALID JUMPDEST DIV DUP3 ADD DUP2 PUSH2 0x2D25 JUMPI INVALID JUMPDEST DIV SWAP1 POP PUSH1 0x2 DUP2 PUSH8 0xDE0B6B3A7640000 DUP7 MUL DUP2 PUSH2 0x2D3D JUMPI INVALID JUMPDEST DIV DUP3 ADD DUP2 PUSH2 0x2D47 JUMPI INVALID JUMPDEST DIV SWAP1 POP PUSH1 0x2 DUP2 PUSH8 0xDE0B6B3A7640000 DUP7 MUL DUP2 PUSH2 0x2D5F JUMPI INVALID JUMPDEST DIV DUP3 ADD DUP2 PUSH2 0x2D69 JUMPI INVALID JUMPDEST DIV SWAP1 POP PUSH1 0x2 DUP2 PUSH8 0xDE0B6B3A7640000 DUP7 MUL DUP2 PUSH2 0x2D81 JUMPI INVALID JUMPDEST DIV DUP3 ADD DUP2 PUSH2 0x2D8B JUMPI INVALID JUMPDEST DIV SWAP1 POP PUSH1 0x2 DUP2 PUSH8 0xDE0B6B3A7640000 DUP7 MUL DUP2 PUSH2 0x2DA3 JUMPI INVALID JUMPDEST DIV DUP3 ADD DUP2 PUSH2 0x2DAD JUMPI INVALID JUMPDEST DIV SWAP1 POP PUSH1 0x2 DUP2 PUSH8 0xDE0B6B3A7640000 DUP7 MUL DUP2 PUSH2 0x2DC5 JUMPI INVALID JUMPDEST DIV DUP3 ADD DUP2 PUSH2 0x2DCF JUMPI INVALID JUMPDEST DIV SWAP1 POP PUSH1 0x0 PUSH2 0x2DDE DUP3 DUP1 PUSH2 0x1F8B JUMP JUMPDEST SWAP1 POP PUSH2 0x2DF4 PUSH2 0x2DED DUP4 DUP7 PUSH2 0x210B JUMP JUMPDEST DUP7 SWAP1 PUSH2 0x128F JUMP JUMPDEST DUP2 GT ISZERO DUP1 ISZERO PUSH2 0x2E16 JUMPI POP PUSH2 0x2E12 PUSH2 0x2E0B DUP4 DUP7 PUSH2 0x210B JUMP JUMPDEST DUP7 SWAP1 PUSH2 0xDEF JUMP JUMPDEST DUP2 LT ISZERO JUMPDEST PUSH2 0xA85 JUMPI PUSH1 0x40 MLOAD PUSH3 0x461BCD PUSH1 0xE5 SHL DUP2 MSTORE PUSH1 0x4 ADD PUSH2 0x2E32 SWAP1 PUSH2 0x3B9C JUMP JUMPDEST PUSH1 0x40 MLOAD DUP1 SWAP2 SUB SWAP1 REVERT JUMPDEST PUSH1 0x0 DUP1 DUP1 DUP1 PUSH2 0x2E4A DUP6 DUP1 PUSH2 0x1F8B JUMP JUMPDEST SWAP1 POP PUSH2 0x2E57 PUSH1 0x3 DUP3 PUSH2 0x160C JUMP JUMPDEST SWAP2 POP PUSH2 0x2E73 PUSH2 0x2E6C DUP8 PUSH2 0x2356 DUP2 DUP2 DUP8 DUP3 PUSH2 0x1F8B JUMP JUMPDEST DUP4 SWAP1 PUSH2 0xDEF JUMP JUMPDEST SWAP2 POP PUSH2 0x2E98 DUP9 PUSH2 0x2E92 PUSH2 0x2E8B PUSH1 0x2 PUSH2 0x720 DUP11 DUP16 PUSH2 0x1F8B JUMP JUMPDEST DUP6 SWAP1 PUSH2 0xDEF JUMP JUMPDEST SWAP1 PUSH2 0xDEF JUMP JUMPDEST SWAP2 POP POP PUSH1 0x0 PUSH2 0x2EA8 DUP6 DUP8 DUP5 PUSH2 0x3103 JUMP JUMPDEST SWAP1 POP PUSH1 0x0 PUSH2 0x2EBA DUP11 PUSH2 0x2356 DUP9 DUP1 PUSH2 0x1F8B JUMP JUMPDEST SWAP1 POP PUSH2 0x2ED4 DUP4 PUSH2 0x725 PUSH2 0x2ECD DUP10 DUP14 PUSH2 0x1F8B JUMP JUMPDEST DUP5 SWAP1 PUSH2 0x128F JUMP JUMPDEST SWAP1 POP PUSH2 0x2EEA PUSH2 0x2EE3 DUP10 DUP6 PUSH2 0x1630 JUMP JUMPDEST DUP3 SWAP1 PUSH2 0x128F JUMP JUMPDEST SWAP1 POP DUP2 DUP2 LT ISZERO SWAP4 POP DUP4 PUSH2 0x2F06 JUMPI PUSH2 0x2F01 DUP3 DUP3 PUSH2 0xDEF JUMP JUMPDEST PUSH2 0x2F10 JUMP JUMPDEST PUSH2 0x2F10 DUP2 DUP4 PUSH2 0xDEF JUMP JUMPDEST SWAP5 POP POP POP POP SWAP7 POP SWAP7 SWAP5 POP POP POP POP POP JUMP JUMPDEST PUSH1 0x0 PUSH8 0xDE0B6B3A7640000 DUP3 LT PUSH2 0x2F4D JUMPI PUSH8 0xDE0B6B3A7640000 PUSH2 0x2F45 DUP2 DUP5 DIV PUSH2 0x321A JUMP JUMPDEST SHL SWAP1 POP PUSH2 0x745 JUMP JUMPDEST PUSH1 0xA DUP3 LT ISZERO PUSH2 0x2F61 JUMPI POP PUSH4 0x12D940B6 PUSH2 0x745 JUMP JUMPDEST PUSH1 0x64 DUP3 LT ISZERO PUSH2 0x2F76 JUMPI POP PUSH5 0x2540BE400 PUSH2 0x745 JUMP JUMPDEST PUSH2 0x3E8 DUP3 LT ISZERO PUSH2 0x2F8C JUMPI POP PUSH5 0x75CDD4719 PUSH2 0x745 JUMP JUMPDEST PUSH2 0x2710 DUP3 LT ISZERO PUSH2 0x2FA2 JUMPI POP PUSH5 0x174876E800 PUSH2 0x745 JUMP JUMPDEST PUSH3 0x186A0 DUP3 LT ISZERO PUSH2 0x2FB9 JUMPI POP PUSH5 0x49A0A4C700 PUSH2 0x745 JUMP JUMPDEST PUSH3 0xF4240 DUP3 LT ISZERO PUSH2 0x2FD0 JUMPI POP PUSH5 0xE8D4A51000 PUSH2 0x745 JUMP JUMPDEST PUSH3 0x989680 DUP3 LT ISZERO PUSH2 0x2FE8 JUMPI POP PUSH6 0x2E0466FC608 PUSH2 0x745 JUMP JUMPDEST PUSH4 0x5F5E100 DUP3 LT ISZERO PUSH2 0x3001 JUMPI POP PUSH6 0x9184E72A000 PUSH2 0x745 JUMP JUMPDEST PUSH4 0x3B9ACA00 DUP3 LT ISZERO PUSH2 0x301A JUMPI POP PUSH6 0x1CC2C05DBC53 PUSH2 0x745 JUMP JUMPDEST PUSH5 0x2540BE400 DUP3 LT ISZERO PUSH2 0x3034 JUMPI POP PUSH6 0x5AF3107A4000 PUSH2 0x745 JUMP JUMPDEST PUSH5 0x174876E800 DUP3 LT ISZERO PUSH2 0x304F JUMPI POP PUSH7 0x11F9B83A95B45 PUSH2 0x745 JUMP JUMPDEST PUSH5 0xE8D4A51000 DUP3 LT ISZERO PUSH2 0x306A JUMPI POP PUSH7 0x38D7EA4C68000 PUSH2 0x745 JUMP JUMPDEST PUSH6 0x9184E72A000 DUP3 LT ISZERO PUSH2 0x3086 JUMPI POP PUSH7 0xB3C13249D90BB PUSH2 0x745 JUMP JUMPDEST PUSH6 0x5AF3107A4000 DUP3 LT ISZERO PUSH2 0x30A2 JUMPI POP PUSH7 0x2386F26FC10000 PUSH2 0x745 JUMP JUMPDEST PUSH7 0x38D7EA4C68000 DUP3 LT ISZERO PUSH2 0x30BF JUMPI POP PUSH7 0x7058BF6E27A751 PUSH2 0x745 JUMP JUMPDEST PUSH7 0x2386F26FC10000 DUP3 LT ISZERO PUSH2 0x30DD JUMPI POP PUSH8 0x16345785D8A0000 PUSH2 0x745 JUMP JUMPDEST PUSH8 0x16345785D8A0000 DUP3 LT ISZERO PUSH2 0x30FC JUMPI POP PUSH8 0x463777A4D8C892D PUSH2 0x745 JUMP JUMPDEST POP DUP1 PUSH2 0x745 JUMP JUMPDEST PUSH1 0x0 PUSH14 0x266AE2FD4D2340B427660000000 DUP5 GT PUSH2 0x3157 JUMPI PUSH2 0x3128 DUP5 PUSH2 0x2356 DUP2 DUP1 PUSH2 0x1F8B JUMP JUMPDEST SWAP1 POP PUSH2 0x3144 PUSH2 0x313D DUP5 PUSH2 0x2356 DUP2 DUP2 DUP7 DUP3 PUSH2 0x1F8B JUMP JUMPDEST DUP3 SWAP1 PUSH2 0xDEF JUMP JUMPDEST SWAP1 POP PUSH2 0x3150 DUP2 DUP4 PUSH2 0x1630 JUMP JUMPDEST SWAP1 POP PUSH2 0x5F9 JUMP JUMPDEST PUSH2 0x3161 DUP5 DUP1 PUSH2 0x1F8B JUMP JUMPDEST SWAP1 POP PUSH2 0x3192 PUSH2 0x317D PUSH8 0xDE0B6B3A7640000 DUP7 JUMPDEST DUP5 SWAP2 SWAP1 MOD PUSH2 0x1F8B JUMP JUMPDEST PUSH2 0x23B3 DUP4 PUSH8 0xDE0B6B3A7640000 DUP9 JUMPDEST DIV PUSH2 0x160C JUMP JUMPDEST SWAP1 POP DUP1 PUSH2 0x31C2 PUSH2 0x31A6 PUSH4 0x3B9ACA00 DUP7 PUSH2 0x3174 JUMP JUMPDEST PUSH2 0x23B3 PUSH2 0x31B8 DUP5 PUSH4 0x3B9ACA00 DUP10 PUSH2 0x318C JUMP JUMPDEST PUSH4 0x3B9ACA00 PUSH2 0x32B0 JUMP JUMPDEST SWAP1 POP PUSH2 0x31D5 PUSH2 0x31A6 PUSH4 0x3B9ACA00 DUP7 PUSH2 0x3174 JUMP JUMPDEST SWAP1 POP PUSH2 0x31E8 PUSH2 0x31A6 PUSH4 0x3B9ACA00 DUP7 PUSH2 0x3174 JUMP JUMPDEST SWAP1 POP PUSH2 0x31F4 DUP3 DUP3 PUSH2 0xDEF JUMP JUMPDEST SWAP2 POP PUSH2 0x1967 PUSH2 0x3207 DUP4 PUSH4 0x3B9ACA00 PUSH2 0x160C JUMP JUMPDEST PUSH2 0x3215 DUP6 PUSH4 0x3B9ACA00 PUSH2 0x32B0 JUMP JUMPDEST PUSH2 0x32B0 JUMP JUMPDEST PUSH1 0x0 PUSH1 0x1 PUSH1 0x80 SHL DUP3 LT PUSH2 0x3232 JUMPI PUSH1 0x80 SWAP2 SWAP1 SWAP2 SHR SWAP1 PUSH1 0x40 ADD JUMPDEST PUSH9 0x10000000000000000 DUP3 LT PUSH2 0x324D JUMPI PUSH1 0x40 SWAP2 SWAP1 SWAP2 SHR SWAP1 PUSH1 0x20 ADD JUMPDEST PUSH5 0x100000000 DUP3 LT PUSH2 0x3264 JUMPI PUSH1 0x20 SWAP2 SWAP1 SWAP2 SHR SWAP1 PUSH1 0x10 ADD JUMPDEST PUSH3 0x10000 DUP3 LT PUSH2 0x3279 JUMPI PUSH1 0x10 SWAP2 SWAP1 SWAP2 SHR SWAP1 PUSH1 0x8 ADD JUMPDEST PUSH2 0x100 DUP3 LT PUSH2 0x328D JUMPI PUSH1 0x8 SWAP2 SWAP1 SWAP2 SHR SWAP1 PUSH1 0x4 ADD JUMPDEST PUSH1 0x10 DUP3 LT PUSH2 0x32A0 JUMPI PUSH1 0x4 SWAP2 SWAP1 SWAP2 SHR SWAP1 PUSH1 0x2 ADD JUMPDEST PUSH1 0x4 DUP3 LT PUSH2 0x745 JUMPI PUSH1 0x1 ADD SWAP2 SWAP1 POP JUMP JUMPDEST PUSH1 0x0 PUSH2 0x32BF DUP3 ISZERO ISZERO PUSH1 0x4 PUSH2 0x1084 JUMP JUMPDEST DUP2 DUP4 DUP2 PUSH2 0x32C8 JUMPI INVALID JUMPDEST DIV SWAP4 SWAP3 POP POP POP JUMP JUMPDEST DUP1 CALLDATALOAD PUSH2 0x532 DUP2 PUSH2 0x3C2E JUMP JUMPDEST PUSH1 0x0 DUP3 PUSH1 0x1F DUP4 ADD SLT PUSH2 0x32EB JUMPI DUP1 DUP2 REVERT JUMPDEST DUP2 MLOAD PUSH2 0x32FE PUSH2 0x32F9 DUP3 PUSH2 0x3C0F JUMP JUMPDEST PUSH2 0x3BE9 JUMP JUMPDEST DUP2 DUP2 MSTORE SWAP2 POP PUSH1 0x20 DUP1 DUP4 ADD SWAP1 DUP5 DUP2 ADD DUP2 DUP5 MUL DUP7 ADD DUP3 ADD DUP8 LT ISZERO PUSH2 0x331F JUMPI PUSH1 0x0 DUP1 REVERT JUMPDEST PUSH1 0x0 JUMPDEST DUP5 DUP2 LT ISZERO PUSH2 0x333E JUMPI DUP2 MLOAD DUP5 MSTORE SWAP3 DUP3 ADD SWAP3 SWAP1 DUP3 ADD SWAP1 PUSH1 0x1 ADD PUSH2 0x3322 JUMP JUMPDEST POP POP POP POP POP SWAP3 SWAP2 POP POP JUMP JUMPDEST PUSH1 0x0 DUP3 PUSH1 0x1F DUP4 ADD SLT PUSH2 0x3359 JUMPI DUP1 DUP2 REVERT JUMPDEST DUP2 CALLDATALOAD PUSH1 0x1 PUSH1 0x1 PUSH1 0x40 SHL SUB DUP2 GT ISZERO PUSH2 0x336E JUMPI DUP2 DUP3 REVERT JUMPDEST PUSH2 0x3381 PUSH1 0x1F DUP3 ADD PUSH1 0x1F NOT AND PUSH1 0x20 ADD PUSH2 0x3BE9 JUMP JUMPDEST SWAP2 POP DUP1 DUP3 MSTORE DUP4 PUSH1 0x20 DUP3 DUP6 ADD ADD GT ISZERO PUSH2 0x3398 JUMPI PUSH1 0x0 DUP1 REVERT JUMPDEST DUP1 PUSH1 0x20 DUP5 ADD PUSH1 0x20 DUP5 ADD CALLDATACOPY PUSH1 0x0 SWAP1 DUP3 ADD PUSH1 0x20 ADD MSTORE SWAP3 SWAP2 POP POP JUMP JUMPDEST DUP1 CALLDATALOAD PUSH1 0x2 DUP2 LT PUSH2 0x532 JUMPI PUSH1 0x0 DUP1 REVERT JUMPDEST PUSH1 0x0 PUSH1 0x20 DUP3 DUP5 SUB SLT ISZERO PUSH2 0x33D1 JUMPI DUP1 DUP2 REVERT JUMPDEST DUP2 CALLDATALOAD PUSH2 0x5F9 DUP2 PUSH2 0x3C2E JUMP JUMPDEST PUSH1 0x0 PUSH1 0x20 DUP3 DUP5 SUB SLT ISZERO PUSH2 0x33ED JUMPI DUP1 DUP2 REVERT JUMPDEST DUP2 MLOAD PUSH2 0x5F9 DUP2 PUSH2 0x3C2E JUMP JUMPDEST PUSH1 0x0 DUP1 PUSH1 0x40 DUP4 DUP6 SUB SLT ISZERO PUSH2 0x340A JUMPI DUP1 DUP2 REVERT JUMPDEST DUP3 CALLDATALOAD PUSH2 0x3415 DUP2 PUSH2 0x3C2E JUMP JUMPDEST SWAP2 POP PUSH1 0x20 DUP4 ADD CALLDATALOAD PUSH2 0x3425 DUP2 PUSH2 0x3C2E JUMP JUMPDEST DUP1 SWAP2 POP POP SWAP3 POP SWAP3 SWAP1 POP JUMP JUMPDEST PUSH1 0x0 DUP1 PUSH1 0x0 PUSH1 0x60 DUP5 DUP7 SUB SLT ISZERO PUSH2 0x3444 JUMPI DUP1 DUP2 REVERT JUMPDEST DUP4 CALLDATALOAD PUSH2 0x344F DUP2 PUSH2 0x3C2E JUMP JUMPDEST SWAP3 POP PUSH1 0x20 DUP5 ADD CALLDATALOAD PUSH2 0x345F DUP2 PUSH2 0x3C2E JUMP JUMPDEST SWAP3 SWAP6 SWAP3 SWAP5 POP POP POP PUSH1 0x40 SWAP2 SWAP1 SWAP2 ADD CALLDATALOAD SWAP1 JUMP JUMPDEST PUSH1 0x0 DUP1 PUSH1 0x0 DUP1 PUSH1 0x0 DUP1 PUSH1 0x0 PUSH1 0xE0 DUP9 DUP11 SUB SLT ISZERO PUSH2 0x348A JUMPI DUP5 DUP6 REVERT JUMPDEST DUP8 CALLDATALOAD PUSH2 0x3495 DUP2 PUSH2 0x3C2E JUMP JUMPDEST SWAP7 POP PUSH1 0x20 DUP9 ADD CALLDATALOAD PUSH2 0x34A5 DUP2 PUSH2 0x3C2E JUMP JUMPDEST SWAP6 POP PUSH1 0x40 DUP9 ADD CALLDATALOAD SWAP5 POP PUSH1 0x60 DUP9 ADD CALLDATALOAD SWAP4 POP PUSH1 0x80 DUP9 ADD CALLDATALOAD PUSH1 0xFF DUP2 AND DUP2 EQ PUSH2 0x34C8 JUMPI DUP4 DUP5 REVERT JUMPDEST SWAP7 SWAP10 SWAP6 SWAP9 POP SWAP4 SWAP7 SWAP3 SWAP6 SWAP5 PUSH1 0xA0 DUP5 ADD CALLDATALOAD SWAP5 POP PUSH1 0xC0 SWAP1 SWAP4 ADD CALLDATALOAD SWAP3 SWAP2 POP POP JUMP JUMPDEST PUSH1 0x0 DUP1 PUSH1 0x40 DUP4 DUP6 SUB SLT ISZERO PUSH2 0x34F7 JUMPI DUP2 DUP3 REVERT JUMPDEST DUP3 CALLDATALOAD PUSH2 0x3502 DUP2 PUSH2 0x3C2E JUMP JUMPDEST SWAP5 PUSH1 0x20 SWAP4 SWAP1 SWAP4 ADD CALLDATALOAD SWAP4 POP POP POP JUMP JUMPDEST PUSH1 0x0 DUP1 PUSH1 0x0 PUSH1 0x60 DUP5 DUP7 SUB SLT ISZERO PUSH2 0x3524 JUMPI DUP1 DUP2 REVERT JUMPDEST DUP4 MLOAD PUSH1 0x1 PUSH1 0x1 PUSH1 0x40 SHL SUB DUP1 DUP3 GT ISZERO PUSH2 0x353A JUMPI DUP3 DUP4 REVERT JUMPDEST DUP2 DUP7 ADD SWAP2 POP DUP7 PUSH1 0x1F DUP4 ADD SLT PUSH2 0x354D JUMPI DUP3 DUP4 REVERT JUMPDEST DUP2 MLOAD PUSH2 0x355B PUSH2 0x32F9 DUP3 PUSH2 0x3C0F JUMP JUMPDEST DUP1 DUP3 DUP3 MSTORE PUSH1 0x20 DUP1 DUP4 ADD SWAP3 POP DUP1 DUP7 ADD DUP12 DUP3 DUP4 DUP8 MUL DUP10 ADD ADD GT ISZERO PUSH2 0x357B JUMPI DUP8 DUP9 REVERT JUMPDEST DUP8 SWAP7 POP JUMPDEST DUP5 DUP8 LT ISZERO PUSH2 0x35A6 JUMPI DUP1 MLOAD PUSH2 0x3592 DUP2 PUSH2 0x3C2E JUMP JUMPDEST DUP5 MSTORE PUSH1 0x1 SWAP7 SWAP1 SWAP7 ADD SWAP6 SWAP3 DUP2 ADD SWAP3 DUP2 ADD PUSH2 0x357F JUMP JUMPDEST POP DUP10 ADD MLOAD SWAP1 SWAP8 POP SWAP4 POP POP POP DUP1 DUP3 GT ISZERO PUSH2 0x35BD JUMPI DUP3 DUP4 REVERT JUMPDEST POP PUSH2 0x35CA DUP7 DUP3 DUP8 ADD PUSH2 0x32DB JUMP JUMPDEST SWAP3 POP POP PUSH1 0x40 DUP5 ADD MLOAD SWAP1 POP SWAP3 POP SWAP3 POP SWAP3 JUMP JUMPDEST PUSH1 0x0 PUSH1 0x20 DUP3 DUP5 SUB SLT ISZERO PUSH2 0x35EC JUMPI DUP1 DUP2 REVERT JUMPDEST DUP2 CALLDATALOAD PUSH2 0x5F9 DUP2 PUSH2 0x3C43 JUMP JUMPDEST PUSH1 0x0 PUSH1 0x20 DUP3 DUP5 SUB SLT ISZERO PUSH2 0x3608 JUMPI DUP1 DUP2 REVERT JUMPDEST DUP2 MLOAD PUSH2 0x5F9 DUP2 PUSH2 0x3C43 JUMP JUMPDEST PUSH1 0x0 DUP1 PUSH1 0x0 DUP1 PUSH1 0x0 DUP1 PUSH1 0x0 PUSH1 0xE0 DUP9 DUP11 SUB SLT ISZERO PUSH2 0x362D JUMPI DUP1 DUP2 REVERT JUMPDEST DUP8 CALLDATALOAD SWAP7 POP PUSH1 0x20 DUP1 DUP10 ADD CALLDATALOAD PUSH2 0x3640 DUP2 PUSH2 0x3C2E JUMP JUMPDEST SWAP7 POP PUSH1 0x40 DUP10 ADD CALLDATALOAD PUSH2 0x3650 DUP2 PUSH2 0x3C2E JUMP JUMPDEST SWAP6 POP PUSH1 0x60 DUP10 ADD CALLDATALOAD PUSH1 0x1 PUSH1 0x1 PUSH1 0x40 SHL SUB DUP1 DUP3 GT ISZERO PUSH2 0x366B JUMPI DUP4 DUP5 REVERT JUMPDEST DUP2 DUP12 ADD SWAP2 POP DUP12 PUSH1 0x1F DUP4 ADD SLT PUSH2 0x367E JUMPI DUP4 DUP5 REVERT JUMPDEST DUP2 CALLDATALOAD PUSH2 0x368C PUSH2 0x32F9 DUP3 PUSH2 0x3C0F JUMP JUMPDEST DUP1 DUP3 DUP3 MSTORE DUP6 DUP3 ADD SWAP2 POP DUP6 DUP6 ADD DUP16 DUP8 DUP9 DUP7 MUL DUP9 ADD ADD GT ISZERO PUSH2 0x36AA JUMPI DUP8 DUP9 REVERT JUMPDEST DUP8 SWAP6 POP JUMPDEST DUP4 DUP7 LT ISZERO PUSH2 0x36CC JUMPI DUP1 CALLDATALOAD DUP4 MSTORE PUSH1 0x1 SWAP6 SWAP1 SWAP6 ADD SWAP5 SWAP2 DUP7 ADD SWAP2 DUP7 ADD PUSH2 0x36AE JUMP JUMPDEST POP SWAP9 POP POP POP PUSH1 0x80 DUP12 ADD CALLDATALOAD SWAP6 POP PUSH1 0xA0 DUP12 ADD CALLDATALOAD SWAP5 POP PUSH1 0xC0 DUP12 ADD CALLDATALOAD SWAP3 POP DUP1 DUP4 GT ISZERO PUSH2 0x36F2 JUMPI DUP4 DUP5 REVERT JUMPDEST POP POP PUSH2 0x3700 DUP11 DUP3 DUP12 ADD PUSH2 0x3349 JUMP JUMPDEST SWAP2 POP POP SWAP3 SWAP6 SWAP9 SWAP2 SWAP5 SWAP8 POP SWAP3 SWAP6 POP JUMP JUMPDEST PUSH1 0x0 PUSH1 0x20 DUP3 DUP5 SUB SLT ISZERO PUSH2 0x3720 JUMPI DUP1 DUP2 REVERT JUMPDEST DUP2 CALLDATALOAD PUSH1 0x1 PUSH1 0x1 PUSH1 0xE0 SHL SUB NOT DUP2 AND DUP2 EQ PUSH2 0x5F9 JUMPI DUP2 DUP3 REVERT JUMPDEST PUSH1 0x0 DUP1 PUSH1 0x40 DUP4 DUP6 SUB SLT ISZERO PUSH2 0x3749 JUMPI DUP2 DUP3 REVERT JUMPDEST DUP3 CALLDATALOAD PUSH2 0x3754 DUP2 PUSH2 0x3C2E JUMP JUMPDEST SWAP2 POP PUSH1 0x20 DUP4 ADD CALLDATALOAD PUSH1 0x1 PUSH1 0x1 PUSH1 0x40 SHL SUB DUP2 GT ISZERO PUSH2 0x376E JUMPI DUP2 DUP3 REVERT JUMPDEST PUSH2 0x377A DUP6 DUP3 DUP7 ADD PUSH2 0x3349 JUMP JUMPDEST SWAP2 POP POP SWAP3 POP SWAP3 SWAP1 POP JUMP JUMPDEST PUSH1 0x0 PUSH1 0x20 DUP3 DUP5 SUB SLT ISZERO PUSH2 0x3795 JUMPI DUP1 DUP2 REVERT JUMPDEST DUP2 MLOAD PUSH2 0x5F9 DUP2 PUSH2 0x3C51 JUMP JUMPDEST PUSH1 0x0 DUP1 PUSH1 0x40 DUP4 DUP6 SUB SLT ISZERO PUSH2 0x37B2 JUMPI DUP2 DUP3 REVERT JUMPDEST DUP3 MLOAD PUSH2 0x37BD DUP2 PUSH2 0x3C51 JUMP JUMPDEST PUSH1 0x20 SWAP4 SWAP1 SWAP4 ADD MLOAD SWAP3 SWAP5 SWAP3 SWAP4 POP POP POP JUMP JUMPDEST PUSH1 0x0 DUP1 PUSH1 0x40 DUP4 DUP6 SUB SLT ISZERO PUSH2 0x37DF JUMPI DUP2 DUP3 REVERT JUMPDEST DUP3 MLOAD PUSH2 0x37EA DUP2 PUSH2 0x3C51 JUMP JUMPDEST PUSH1 0x20 DUP5 ADD MLOAD SWAP1 SWAP3 POP PUSH1 0x1 PUSH1 0x1 PUSH1 0x40 SHL SUB DUP2 GT ISZERO PUSH2 0x3805 JUMPI DUP2 DUP3 REVERT JUMPDEST PUSH2 0x377A DUP6 DUP3 DUP7 ADD PUSH2 0x32DB JUMP JUMPDEST PUSH1 0x0 DUP1 PUSH1 0x0 PUSH1 0x60 DUP5 DUP7 SUB SLT ISZERO PUSH2 0x3825 JUMPI DUP1 DUP2 REVERT JUMPDEST DUP4 CALLDATALOAD PUSH1 0x1 PUSH1 0x1 PUSH1 0x40 SHL SUB DUP1 DUP3 GT ISZERO PUSH2 0x383B JUMPI DUP3 DUP4 REVERT JUMPDEST DUP2 DUP7 ADD SWAP2 POP PUSH2 0x120 DUP1 DUP4 DUP10 SUB SLT ISZERO PUSH2 0x3851 JUMPI DUP4 DUP5 REVERT JUMPDEST PUSH2 0x385A DUP2 PUSH2 0x3BE9 JUMP JUMPDEST SWAP1 POP PUSH2 0x3866 DUP9 DUP5 PUSH2 0x33B1 JUMP JUMPDEST DUP2 MSTORE PUSH2 0x3875 DUP9 PUSH1 0x20 DUP6 ADD PUSH2 0x32D0 JUMP JUMPDEST PUSH1 0x20 DUP3 ADD MSTORE PUSH2 0x3887 DUP9 PUSH1 0x40 DUP6 ADD PUSH2 0x32D0 JUMP JUMPDEST PUSH1 0x40 DUP3 ADD MSTORE PUSH1 0x60 DUP4 ADD CALLDATALOAD PUSH1 0x60 DUP3 ADD MSTORE PUSH1 0x80 DUP4 ADD CALLDATALOAD PUSH1 0x80 DUP3 ADD MSTORE PUSH1 0xA0 DUP4 ADD CALLDATALOAD PUSH1 0xA0 DUP3 ADD MSTORE PUSH2 0x38B7 DUP9 PUSH1 0xC0 DUP6 ADD PUSH2 0x32D0 JUMP JUMPDEST PUSH1 0xC0 DUP3 ADD MSTORE PUSH2 0x38C9 DUP9 PUSH1 0xE0 DUP6 ADD PUSH2 0x32D0 JUMP JUMPDEST PUSH1 0xE0 DUP3 ADD MSTORE PUSH2 0x100 DUP1 DUP5 ADD CALLDATALOAD DUP4 DUP2 GT ISZERO PUSH2 0x38E1 JUMPI DUP6 DUP7 REVERT JUMPDEST PUSH2 0x38ED DUP11 DUP3 DUP8 ADD PUSH2 0x3349 JUMP JUMPDEST SWAP2 DUP4 ADD SWAP2 SWAP1 SWAP2 MSTORE POP SWAP8 PUSH1 0x20 DUP8 ADD CALLDATALOAD SWAP8 POP PUSH1 0x40 SWAP1 SWAP7 ADD CALLDATALOAD SWAP6 SWAP5 POP POP POP POP POP JUMP JUMPDEST PUSH1 0x0 PUSH1 0x20 DUP3 DUP5 SUB SLT ISZERO PUSH2 0x391D JUMPI DUP1 DUP2 REVERT JUMPDEST POP CALLDATALOAD SWAP2 SWAP1 POP JUMP JUMPDEST PUSH1 0x0 PUSH1 0x20 DUP3 DUP5 SUB SLT ISZERO PUSH2 0x3935 JUMPI DUP1 DUP2 REVERT JUMPDEST POP MLOAD SWAP2 SWAP1 POP JUMP JUMPDEST PUSH1 0x0 DUP1 PUSH1 0x0 DUP1 PUSH1 0x80 DUP6 DUP8 SUB SLT ISZERO PUSH2 0x3951 JUMPI DUP2 DUP3 REVERT JUMPDEST DUP5 MLOAD SWAP4 POP PUSH1 0x20 DUP6 ADD MLOAD SWAP3 POP PUSH1 0x40 DUP6 ADD MLOAD SWAP2 POP PUSH1 0x60 DUP6 ADD MLOAD PUSH2 0x3971 DUP2 PUSH2 0x3C2E JUMP JUMPDEST SWAP4 SWAP7 SWAP3 SWAP6 POP SWAP1 SWAP4 POP POP JUMP JUMPDEST PUSH1 0x0 DUP2 MLOAD DUP1 DUP5 MSTORE PUSH1 0x20 DUP1 DUP6 ADD SWAP5 POP DUP1 DUP5 ADD DUP4 JUMPDEST DUP4 DUP2 LT ISZERO PUSH2 0x39AB JUMPI DUP2 MLOAD DUP8 MSTORE SWAP6 DUP3 ADD SWAP6 SWAP1 DUP3 ADD SWAP1 PUSH1 0x1 ADD PUSH2 0x398F JUMP JUMPDEST POP SWAP5 SWAP6 SWAP5 POP POP POP POP POP JUMP JUMPDEST PUSH1 0x0 DUP2 MLOAD DUP1 DUP5 MSTORE DUP2 JUMPDEST DUP2 DUP2 LT ISZERO PUSH2 0x39DB JUMPI PUSH1 0x20 DUP2 DUP6 ADD DUP2 ADD MLOAD DUP7 DUP4 ADD DUP3 ADD MSTORE ADD PUSH2 0x39BF JUMP JUMPDEST DUP2 DUP2 GT ISZERO PUSH2 0x39EC JUMPI DUP3 PUSH1 0x20 DUP4 DUP8 ADD ADD MSTORE JUMPDEST POP PUSH1 0x1F ADD PUSH1 0x1F NOT AND SWAP3 SWAP1 SWAP3 ADD PUSH1 0x20 ADD SWAP3 SWAP2 POP POP JUMP JUMPDEST SWAP2 DUP3 MSTORE PUSH1 0x1 PUSH1 0x1 PUSH1 0xE0 SHL SUB NOT AND PUSH1 0x20 DUP3 ADD MSTORE PUSH1 0x24 ADD SWAP1 JUMP JUMPDEST PUSH1 0x0 DUP3 DUP5 DUP4 CALLDATACOPY SWAP2 ADD SWAP1 DUP2 MSTORE SWAP2 SWAP1 POP JUMP JUMPDEST PUSH2 0x1901 PUSH1 0xF0 SHL DUP2 MSTORE PUSH1 0x2 DUP2 ADD SWAP3 SWAP1 SWAP3 MSTORE PUSH1 0x22 DUP3 ADD MSTORE PUSH1 0x42 ADD SWAP1 JUMP JUMPDEST PUSH1 0x1 PUSH1 0x1 PUSH1 0xA0 SHL SUB SWAP2 SWAP1 SWAP2 AND DUP2 MSTORE PUSH1 0x20 ADD SWAP1 JUMP JUMPDEST PUSH1 0x0 PUSH1 0x20 DUP3 MSTORE PUSH2 0x5F9 PUSH1 0x20 DUP4 ADD DUP5 PUSH2 0x397C JUMP JUMPDEST PUSH1 0x0 PUSH1 0x40 DUP3 MSTORE PUSH2 0x3A7E PUSH1 0x40 DUP4 ADD DUP6 PUSH2 0x397C JUMP JUMPDEST DUP3 DUP2 SUB PUSH1 0x20 DUP5 ADD MSTORE PUSH2 0x1967 DUP2 DUP6 PUSH2 0x397C JUMP JUMPDEST SWAP1 ISZERO ISZERO DUP2 MSTORE PUSH1 0x20 ADD SWAP1 JUMP JUMPDEST SWAP3 ISZERO ISZERO DUP4 MSTORE PUSH1 0x20 DUP4 ADD SWAP2 SWAP1 SWAP2 MSTORE PUSH1 0x40 DUP3 ADD MSTORE PUSH1 0x60 ADD SWAP1 JUMP JUMPDEST SWAP1 DUP2 MSTORE PUSH1 0x20 ADD SWAP1 JUMP JUMPDEST SWAP3 DUP4 MSTORE PUSH1 0x1 PUSH1 0x1 PUSH1 0xA0 SHL SUB SWAP2 DUP3 AND PUSH1 0x20 DUP5 ADD MSTORE AND PUSH1 0x40 DUP3 ADD MSTORE PUSH1 0x60 ADD SWAP1 JUMP JUMPDEST SWAP6 DUP7 MSTORE PUSH1 0x1 PUSH1 0x1 PUSH1 0xA0 SHL SUB SWAP5 DUP6 AND PUSH1 0x20 DUP8 ADD MSTORE SWAP3 SWAP1 SWAP4 AND PUSH1 0x40 DUP6 ADD MSTORE PUSH1 0x60 DUP5 ADD MSTORE PUSH1 0x80 DUP4 ADD SWAP2 SWAP1 SWAP2 MSTORE PUSH1 0xA0 DUP3 ADD MSTORE PUSH1 0xC0 ADD SWAP1 JUMP JUMPDEST SWAP5 DUP6 MSTORE PUSH1 0x20 DUP6 ADD SWAP4 SWAP1 SWAP4 MSTORE PUSH1 0x40 DUP5 ADD SWAP2 SWAP1 SWAP2 MSTORE PUSH1 0x60 DUP4 ADD MSTORE PUSH1 0x1 PUSH1 0x1 PUSH1 0xA0 SHL SUB AND PUSH1 0x80 DUP3 ADD MSTORE PUSH1 0xA0 ADD SWAP1 JUMP JUMPDEST PUSH1 0x0 DUP4 DUP3 MSTORE PUSH1 0x40 PUSH1 0x20 DUP4 ADD MSTORE PUSH2 0x1F83 PUSH1 0x40 DUP4 ADD DUP5 PUSH2 0x39B6 JUMP JUMPDEST SWAP2 DUP3 MSTORE PUSH1 0x1 PUSH1 0x1 PUSH1 0xA0 SHL SUB AND PUSH1 0x20 DUP3 ADD MSTORE PUSH1 0x40 ADD SWAP1 JUMP JUMPDEST SWAP4 DUP5 MSTORE PUSH1 0xFF SWAP3 SWAP1 SWAP3 AND PUSH1 0x20 DUP5 ADD MSTORE PUSH1 0x40 DUP4 ADD MSTORE PUSH1 0x60 DUP3 ADD MSTORE PUSH1 0x80 ADD SWAP1 JUMP JUMPDEST PUSH1 0x0 PUSH1 0x20 DUP3 MSTORE PUSH2 0x5F9 PUSH1 0x20 DUP4 ADD DUP5 PUSH2 0x39B6 JUMP JUMPDEST PUSH1 0x20 DUP1 DUP3 MSTORE PUSH1 0xC SWAP1 DUP3 ADD MSTORE PUSH12 0x17DCDC5C9D08119052531151 PUSH1 0xA2 SHL PUSH1 0x40 DUP3 ADD MSTORE PUSH1 0x60 ADD SWAP1 JUMP JUMPDEST PUSH1 0x0 DUP4 DUP3 MSTORE PUSH1 0x40 PUSH1 0x20 DUP4 ADD MSTORE PUSH2 0x1F83 PUSH1 0x40 DUP4 ADD DUP5 PUSH2 0x397C JUMP JUMPDEST PUSH1 0xFF SWAP2 SWAP1 SWAP2 AND DUP2 MSTORE PUSH1 0x20 ADD SWAP1 JUMP JUMPDEST PUSH1 0x40 MLOAD DUP2 DUP2 ADD PUSH1 0x1 PUSH1 0x1 PUSH1 0x40 SHL SUB DUP2 GT DUP3 DUP3 LT OR ISZERO PUSH2 0x3C07 JUMPI PUSH1 0x0 DUP1 REVERT JUMPDEST PUSH1 0x40 MSTORE SWAP2 SWAP1 POP JUMP JUMPDEST PUSH1 0x0 PUSH1 0x1 PUSH1 0x1 PUSH1 0x40 SHL SUB DUP3 GT ISZERO PUSH2 0x3C24 JUMPI DUP1 DUP2 REVERT JUMPDEST POP PUSH1 0x20 SWAP1 DUP2 MUL ADD SWAP1 JUMP JUMPDEST PUSH1 0x1 PUSH1 0x1 PUSH1 0xA0 SHL SUB DUP2 AND DUP2 EQ PUSH2 0x549 JUMPI PUSH1 0x0 DUP1 REVERT JUMPDEST DUP1 ISZERO ISZERO DUP2 EQ PUSH2 0x549 JUMPI PUSH1 0x0 DUP1 REVERT JUMPDEST PUSH1 0x4 DUP2 LT PUSH2 0x549 JUMPI PUSH1 0x0 DUP1 REVERT INVALID LOG2 PUSH5 0x6970667358 0x22 SLT KECCAK256 SLT 0x5D 0xBC DUP6 0xD7 PUSH28 0xC9BC166ECFE9BADFFEE4C9B73C130595B2DD212686AC103EF38B6473 PUSH16 0x6C634300070100330000000000000000 ","sha1":"94c8f2ec6112b926880e011453fbc8d9a0e745a9","source":"// SPDX-License-Identifier: GPL-3.0-or-later\n// This program is free software: you can redistribute it and/or modify\n// it under the terms of the GNU General Public License as published by\n// the Free Software Foundation, either version 3 of the License, or\n// (at your option) any later version.\n\n// This program is distributed in the hope that it will be useful,\n// but WITHOUT ANY WARRANTY; without even the implied warranty of\n// MERCHANTABILITY or FITNESS FOR A PARTICULAR PURPOSE.  See the\n// GNU General Public License for more details.\n\n// You should have received a copy of the GNU General Public License\n// along with this program.  If not, see <http://www.gnu.org/licenses/>.\n\npragma solidity ^0.7.0;\npragma experimental ABIEncoderV2;\n\nimport \"@balancer-labs/v2-solidity-utils/contracts/helpers/BalancerErrors.sol\";\n\nimport \"../../libraries/GyroConfigKeys.sol\";\nimport \"../../interfaces/IGyroConfig.sol\";\nimport \"../../libraries/GyroPoolMath.sol\";\n\nimport \"./ExtensibleBaseWeightedPool.sol\";\nimport \"./GyroThreeMath.sol\";\nimport \"./GyroThreePoolErrors.sol\";\n\n/**\n * @dev Gyro Three Pool with immutable weights.\n */\ncontract GyroThreePool is ExtensibleBaseWeightedPool {\n    using FixedPoint for uint256;\n    using WeightedPoolUserDataHelpers for bytes;\n\n    uint256 private immutable _root3Alpha;\n\n    IGyroConfig public gyroConfig;\n\n    uint256 private constant _MAX_TOKENS = 3;\n\n    IERC20 internal immutable _token0;\n    IERC20 internal immutable _token1;\n    IERC20 internal immutable _token2;\n\n    // All token balances are normalized to behave as if the token had 18 decimals. We assume a token's decimals will\n    // not change throughout its lifetime, and store the corresponding scaling factor for each at construction time.\n    // These factors are always greater than or equal to one: tokens with more than 18 decimals are not supported.\n    uint256 internal immutable _scalingFactor0;\n    uint256 internal immutable _scalingFactor1;\n    uint256 internal immutable _scalingFactor2;\n\n    constructor(\n        IVault vault,\n        string memory name,\n        string memory symbol,\n        IERC20[] memory tokens,\n        uint256 root3Alpha,\n        uint256 swapFeePercentage,\n        uint256 pauseWindowDuration,\n        uint256 bufferPeriodDuration,\n        address owner,\n        address configAddress\n    ) ExtensibleBaseWeightedPool(vault, name, symbol, tokens, new address[](3), swapFeePercentage, pauseWindowDuration, bufferPeriodDuration, owner) {\n        _require(tokens.length == 3, GyroThreePoolErrors.TOKENS_LENGTH_MUST_BE_3);\n\n        _token0 = tokens[0];\n        _token1 = tokens[1];\n        _token2 = tokens[2];\n\n        _scalingFactor0 = _computeScalingFactor(tokens[0]);\n        _scalingFactor1 = _computeScalingFactor(tokens[1]);\n        _scalingFactor2 = _computeScalingFactor(tokens[2]);\n\n        _require(root3Alpha < FixedPoint.ONE, GyroThreePoolErrors.PRICE_BOUNDS_WRONG);\n        _root3Alpha = root3Alpha;\n        gyroConfig = IGyroConfig(configAddress);\n    }\n\n    function getRoot3Alpha() external view returns (uint256) {\n        return _root3Alpha;\n    }\n\n    // We don't support weights at the moment; in other words, all tokens are always weighted equally and thus their\n    // normalized weights are all 1/3. This is what the functions return.\n\n    function _getNormalizedWeight(IERC20) internal view virtual override returns (uint256) {\n        return FixedPoint.ONE / 3;\n    }\n\n    function _getNormalizedWeights() internal view virtual override returns (uint256[] memory) {\n        uint256[] memory normalizedWeights = new uint256[](3);\n\n        // prettier-ignore\n        {\n            normalizedWeights[0] = FixedPoint.ONE/3;\n            normalizedWeights[1] = FixedPoint.ONE/3;\n            normalizedWeights[2] = FixedPoint.ONE/3;\n        }\n\n        return normalizedWeights;\n    }\n\n    /// @dev Since all weights are always the same, the max-weight token is arbitrary. We return token 0.\n    function _getNormalizedWeightsAndMaxWeightIndex() internal view virtual override returns (uint256[] memory, uint256) {\n        return (_getNormalizedWeights(), 0);\n    }\n\n    function _getMaxTokens() internal pure virtual override returns (uint256) {\n        return _MAX_TOKENS;\n    }\n\n    function _getTotalTokens() internal pure virtual override returns (uint256) {\n        return 3;\n    }\n\n    /**\n     * @dev Returns the scaling factor for one of the Pool's tokens. Reverts if `token` is not a token registered by the\n     * Pool.\n     */\n    function _scalingFactor(IERC20 token) internal view virtual override returns (uint256 scalingFactor) {\n        if (token == _token0) {\n            scalingFactor = _scalingFactor0;\n        } else if (token == _token1) {\n            scalingFactor = _scalingFactor1;\n        } else if (token == _token2) {\n            scalingFactor = _scalingFactor2;\n        } else {\n            _revert(Errors.INVALID_TOKEN);\n        }\n    }\n\n    function _scalingFactors() internal view virtual override returns (uint256[] memory) {\n        uint256 totalTokens = _getTotalTokens();\n        uint256[] memory scalingFactors = new uint256[](totalTokens);\n\n        // prettier-ignore\n        {\n            scalingFactors[0] = _scalingFactor0;\n            scalingFactors[1] = _scalingFactor1;\n            scalingFactors[2] = _scalingFactor2;\n        }\n\n        return scalingFactors;\n    }\n\n    function _onSwapGivenIn(\n        SwapRequest memory swapRequest,\n        uint256 currentBalanceTokenIn,\n        uint256 currentBalanceTokenOut\n    ) internal view virtual override whenNotPaused returns (uint256) {\n        uint256 virtualOffset = _calculateVirtualOffset();\n        return _onSwapGivenIn(swapRequest, currentBalanceTokenIn, currentBalanceTokenOut, virtualOffset);\n    }\n\n    function _onSwapGivenOut(\n        SwapRequest memory swapRequest,\n        uint256 currentBalanceTokenIn,\n        uint256 currentBalanceTokenOut\n    ) internal view virtual override whenNotPaused returns (uint256) {\n        uint256 virtualOffset = _calculateVirtualOffset();\n        return _onSwapGivenOut(swapRequest, currentBalanceTokenIn, currentBalanceTokenOut, virtualOffset);\n    }\n\n    /** @dev Calculate the offset that that takes real reserves to virtual reserves.\n     */\n    function _calculateVirtualOffset() private view returns (uint256 virtualOffset) {\n        (, uint256[] memory balances, ) = getVault().getPoolTokens(getPoolId());\n        _upscaleArray(balances, _scalingFactors());\n        uint256 root3Alpha = _root3Alpha;\n        uint256 invariant = GyroThreeMath._calculateInvariant(balances, root3Alpha);\n        virtualOffset = invariant.mulDown(root3Alpha);\n    }\n\n    /** @dev Calculate the invariant. */\n    function _calculateInvariant() private view returns (uint256 invariant) {\n        (, uint256[] memory balances, ) = getVault().getPoolTokens(getPoolId());\n        _upscaleArray(balances, _scalingFactors());\n        return GyroThreeMath._calculateInvariant(balances, _root3Alpha);\n    }\n\n    function _onSwapGivenIn(\n        SwapRequest memory swapRequest,\n        uint256 currentBalanceTokenIn,\n        uint256 currentBalanceTokenOut,\n        uint256 virtualOffset\n    ) private pure returns (uint256) {\n        return GyroThreeMath._calcOutGivenIn(currentBalanceTokenIn, currentBalanceTokenOut, swapRequest.amount, virtualOffset);\n    }\n\n    function _onSwapGivenOut(\n        SwapRequest memory swapRequest,\n        uint256 currentBalanceTokenIn,\n        uint256 currentBalanceTokenOut,\n        uint256 virtualOffset\n    ) private pure returns (uint256) {\n        return GyroThreeMath._calcInGivenOut(currentBalanceTokenIn, currentBalanceTokenOut, swapRequest.amount, virtualOffset);\n    }\n\n    /**\n     * @dev Called when the Pool is joined for the first time; that is, when the BPT total supply is zero.\n     *\n     * Returns the amount of BPT to mint and the token amounts the Pool will receive in return.\n     *\n     * Minted BPT will be sent to `recipient`, except for _MINIMUM_BPT, which will be deducted from this amount and sent\n     * to the zero address instead. This will cause that BPT to remain forever locked there, preventing total BTP from\n     * ever dropping below that value, and ensuring `_onInitializePool` can only be called once in the entire Pool's\n     * lifetime.\n     *\n     * The tokens granted to the Pool will be transferred from `sender`. These amounts are considered upscaled and will\n     * be downscaled (rounding up) before being returned to the Vault.\n     */\n    function _onInitializePool(\n        bytes32,\n        address,\n        address,\n        uint256[] memory scalingFactors,\n        bytes memory userData\n    ) internal override whenNotPaused returns (uint256, uint256[] memory) {\n        BaseWeightedPool.JoinKind kind = userData.joinKind();\n        _require(kind == BaseWeightedPool.JoinKind.INIT, Errors.UNINITIALIZED);\n\n        uint256[] memory amountsIn = userData.initialAmountsIn();\n        InputHelpers.ensureInputLengthMatch(amountsIn.length, 3);\n        _upscaleArray(amountsIn, scalingFactors);\n\n        // uint256[] memory sqrtParams = _sqrtParameters();\n\n        uint256 invariantAfterJoin = GyroThreeMath._calculateInvariant(amountsIn, _root3Alpha);\n\n        // Set the initial BPT to the value of the invariant times the number of tokens. This makes BPT supply more\n        // consistent in Pools with similar compositions but different number of tokens.\n        uint256 bptAmountOut = Math.mul(invariantAfterJoin, 3);\n\n        _lastInvariant = invariantAfterJoin;\n\n        return (bptAmountOut, amountsIn);\n    }\n\n    /**\n     * @dev Called whenever the Pool is joined after the first initialization join (see `_onInitializePool`).\n     *\n     * Returns the amount of BPT to mint, the token amounts that the Pool will receive in return, and the number of\n     * tokens to pay in protocol swap fees.\n     *\n     * Implementations of this function might choose to mutate the `balances` array to save gas (e.g. when\n     * performing intermediate calculations, such as subtraction of due protocol fees). This can be done safely.\n     *\n     * Minted BPT will be sent to `recipient`.\n     *\n     * The tokens granted to the Pool will be transferred from `sender`. These amounts are considered upscaled and will\n     * be downscaled (rounding up) before being returned to the Vault.\n     *\n     * protocolSwapFeePercentage argument is intentionally unused as protocol fees are handled in a different way\n     */\n    function _onJoinPool(\n        bytes32,\n        address,\n        address,\n        uint256[] memory balances,\n        uint256,\n        uint256, // protocolSwapFeePercentage, not used\n        uint256[] memory,\n        bytes memory userData\n    )\n        internal\n        override\n        returns (\n            uint256 bptAmountOut,\n            uint256[] memory amountsIn,\n            uint256[] memory dueProtocolFeeAmounts\n        )\n    {\n        // Due protocol swap fee amounts are computed by measuring the growth of the invariant between the previous join\n        // or exit event and now - the invariant's growth is due exclusively to swap fees. This avoids spending gas\n        // computing them on each individual swap\n\n        uint256 root3Alpha = _root3Alpha;\n\n        uint256 invariantBeforeJoin = GyroThreeMath._calculateInvariant(balances, root3Alpha);\n\n        _distributeFees(invariantBeforeJoin);\n\n        (bptAmountOut, amountsIn) = _doJoin(balances, userData);\n\n        // Since we pay fees in BPT, they have not changed the invariant and 'lastInvariant' is still consistent with\n        // 'balances'. Therefore, we can use a simplified method to update the invariant that does not require a full\n        // re-computation.\n        // Note: Should this be changed in the future, we also need to reduce the invariant proportionally by the total\n        // protocol fee factor.\n        _lastInvariant = GyroPoolMath.liquidityInvariantUpdate(invariantBeforeJoin, bptAmountOut, totalSupply(), true);\n\n        // returns a new uint256[](3) b/c Balancer vault is expecting a fee array, but fees paid in BPT instead\n        return (bptAmountOut, amountsIn, new uint256[](3));\n    }\n\n    function _doJoin(uint256[] memory balances, bytes memory userData) internal view returns (uint256 bptAmountOut, uint256[] memory amountsIn) {\n        BaseWeightedPool.JoinKind kind = userData.joinKind();\n\n        // We do NOT currently support unbalanced update, i.e., EXACT_TOKENS_IN_FOR_BPT_OUT or TOKEN_IN_FOR_EXACT_BPT_OUT\n        if (kind == BaseWeightedPool.JoinKind.ALL_TOKENS_IN_FOR_EXACT_BPT_OUT) {\n            (bptAmountOut, amountsIn) = _joinAllTokensInForExactBPTOut(balances, userData);\n        } else {\n            _revert(Errors.UNHANDLED_JOIN_KIND);\n        }\n    }\n\n    /**\n     * @dev Called whenever the Pool is exited.\n     *\n     * Returns the amount of BPT to burn, the token amounts for each Pool token that the Pool will grant in return, and\n     * the number of tokens to pay in protocol swap fees.\n     *\n     * Implementations of this function might choose to mutate the `balances` array to save gas (e.g. when\n     * performing intermediate calculations, such as subtraction of due protocol fees). This can be done safely.\n     *\n     * BPT will be burnt from `sender`.\n     *\n     * The Pool will grant tokens to `recipient`. These amounts are considered upscaled and will be downscaled\n     * (rounding down) before being returned to the Vault.\n     *\n     * protocolSwapFeePercentage argument is intentionally unused as protocol fees are handled in a different way\n     */\n    function _onExitPool(\n        bytes32,\n        address,\n        address,\n        uint256[] memory balances,\n        uint256,\n        uint256, // protocolSwapFeePercentage\n        uint256[] memory,\n        bytes memory userData\n    )\n        internal\n        override\n        returns (\n            uint256 bptAmountIn,\n            uint256[] memory amountsOut,\n            uint256[] memory dueProtocolFeeAmounts\n        )\n    {\n        // Exits are not completely disabled while the contract is paused: proportional exits (exact BPT in for tokens\n        // out) remain functional.\n\n        uint256 root3Alpha = _root3Alpha;\n\n        if (_isNotPaused()) {\n            // Due protocol swap fee amounts are computed by measuring the growth of the invariant between the previous\n            // join or exit event and now - the invariant's growth is due exclusively to swap fees. This avoids\n            // spending gas calculating the fees on each individual swap.\n            uint256 invariantBeforeExit = GyroThreeMath._calculateInvariant(balances, root3Alpha);\n\n            _distributeFees(invariantBeforeExit);\n\n            (bptAmountIn, amountsOut) = _doExit(balances, userData);\n\n            // Since we pay fees in BPT, they have not changed the invariant and 'lastInvariant' is still consistent with\n            // 'balances'. Therefore, we can use a simplified method to update the invariant that does not require a full\n            // re-computation.\n            // Note: Should this be changed in the future, we also need to reduce the invariant proportionally by the\n            // total protocol fee factor.\n            _lastInvariant = GyroPoolMath.liquidityInvariantUpdate(invariantBeforeExit, bptAmountIn, totalSupply(), false);\n        } else {\n            // Note: If the contract is paused, swap protocol fee amounts are not charged and the oracle is not updated\n            // to avoid extra calculations and reduce the potential for errors.\n            (bptAmountIn, amountsOut) = _doExit(balances, userData);\n\n            // In the paused state, we do not recompute the invariant to reduce the potential for errors and to avoid\n            // lock-up in case the pool is in a state where the involved numerical method does not converge.\n            // Instead, we set the invariant such that any following (non-paused) join/exit will ignore and recompute it\n            // (see GyroThreeMath._calcProtocolFees())\n            _lastInvariant = type(uint256).max;\n        }\n\n        // returns a new uint256[](3) b/c Balancer vault is expecting a fee array, but fees paid in BPT instead\n        return (bptAmountIn, amountsOut, new uint256[](3));\n    }\n\n    /**\n     * @dev Returns the current value of the invariant.\n     */\n    function getInvariant() public view override returns (uint256 invariant) {\n        return _calculateInvariant();\n    }\n\n    function _joinAllTokensInForExactBPTOut(uint256[] memory balances, bytes memory userData)\n        internal\n        view\n        override\n        returns (uint256, uint256[] memory)\n    {\n        uint256 bptAmountOut = userData.allTokensInForExactBptOut();\n\n        uint256[] memory amountsIn = GyroPoolMath._calcAllTokensInGivenExactBptOut(balances, bptAmountOut, totalSupply());\n\n        return (bptAmountOut, amountsIn);\n    }\n\n    function _doExit(uint256[] memory balances, bytes memory userData) internal view returns (uint256 bptAmountIn, uint256[] memory amountsOut) {\n        BaseWeightedPool.ExitKind kind = userData.exitKind();\n\n        // We do NOT support unbalanced exit at the moment, i.e., EXACT_BPT_IN_FOR_ONE_TOKEN_OUT or\n        // BPT_IN_FOR_EXACT_TOKENS_OUT.\n        if (kind == BaseWeightedPool.ExitKind.EXACT_BPT_IN_FOR_TOKENS_OUT) {\n            return _exitExactBPTInForTokensOut(balances, userData);\n        } else {\n            _revert(Errors.UNHANDLED_EXIT_KIND);\n        }\n    }\n\n    function _exitExactBPTInForTokensOut(uint256[] memory balances, bytes memory userData)\n        internal\n        view\n        override\n        returns (uint256, uint256[] memory)\n    {\n        // This exit function is the only one that is not disabled if the contract is paused: it remains unrestricted\n        // in an attempt to provide users with a mechanism to retrieve their tokens in case of an emergency.\n        // This particular exit function is the only one that remains available because it is the simplest one, and\n        // therefore the one with the lowest likelihood of errors.\n\n        uint256 bptAmountIn = userData.exactBptInForTokensOut();\n        // Note that there is no minimum amountOut parameter: this is handled by `IVault.exitPool`.\n\n        uint256[] memory amountsOut = GyroPoolMath._calcTokensOutGivenExactBptIn(balances, bptAmountIn, totalSupply());\n        return (bptAmountIn, amountsOut);\n    }\n\n    // Helpers\n\n    // Protocol Fee Helpers. These are the same functions as in GyroTwoPool.\n\n    /**\n     * @dev Computes and distributes fees between the Balancer and the Gyro treasury\n     * The fees are computed and distributed in BPT rather than using the\n     * Balancer regular distribution mechanism which would pay these in underlying\n     */\n    function _distributeFees(uint256 invariantBeforeAction) internal {\n        // calculate Protocol fees in BPT\n        // _lastInvariant is the invariant logged at the end of the last liquidity update\n        // protocol fees are calculated on swap fees earned between liquidity updates\n        (uint256 gyroFees, uint256 balancerFees, address gyroTreasury, address balTreasury) = _getDueProtocolFeeAmounts(\n            _lastInvariant,\n            invariantBeforeAction\n        );\n\n        // Pay fees in BPT\n        _payFeesBpt(gyroFees, balancerFees, gyroTreasury, balTreasury);\n    }\n\n    /**\n     * @dev this function overrides inherited function to make sure it is never used\n     */\n    function _getDueProtocolFeeAmounts(\n        uint256[] memory, // balances,\n        uint256[] memory, // normalizedWeights,\n        uint256, // maxWeightTokenIndex,\n        uint256, // previousInvariant,\n        uint256, // currentInvariant,\n        uint256 // protocolSwapFeePercentage\n    ) internal pure override returns (uint256[] memory) {\n        revert(\"Not implemented\");\n    }\n\n    /**\n     * Note: This function is identical to that used in GyroTwoPool.sol\n     * @dev Calculates protocol fee amounts in BPT terms\n     * Overrides an inherited function and some arguments are intentionally not used (balances, normalizedWeights)\n     * protocolSwapFeePercentage is not used b/c we take parameters from GyroConfig instead\n     * Returns dueFees, where dueFees[0] = BPT due to Gyro, and dueFees[1] = BPT due to Balancer\n     */\n    function _getDueProtocolFeeAmounts(uint256 previousInvariant, uint256 currentInvariant)\n        internal\n        view\n        returns (\n            uint256,\n            uint256,\n            address,\n            address\n        )\n    {\n        (uint256 protocolSwapFeePerc, uint256 protocolFeeGyroPortion, address gyroTreasury, address balTreasury) = _getFeesMetadata();\n\n        // Early return if the protocol swap fee percentage is zero, saving gas.\n        if (protocolSwapFeePerc == 0) {\n            return (0, 0, gyroTreasury, balTreasury);\n        }\n\n        // Calculate fees in BPT\n        (uint256 gyroFees, uint256 balancerFees) = GyroPoolMath._calcProtocolFees(\n            previousInvariant,\n            currentInvariant,\n            totalSupply(),\n            protocolSwapFeePerc,\n            protocolFeeGyroPortion\n        );\n\n        return (gyroFees, balancerFees, gyroTreasury, balTreasury);\n    }\n\n    // Note: This function is identical to that used in GyroTwoPool.sol\n    function _payFeesBpt(\n        uint256 gyroFees,\n        uint256 balancerFees,\n        address gyroTreasury,\n        address balTreasury\n    ) internal {\n        // Pay fees in BPT to gyro treasury\n        if (gyroFees > 0) {\n            _mintPoolTokens(gyroTreasury, gyroFees);\n        }\n        // Pay fees in BPT to bal treasury\n        if (balancerFees > 0) {\n            _mintPoolTokens(balTreasury, balancerFees);\n        }\n    }\n\n    // Note: This function is identical to that used in GyroTwoPool.sol\n    function _getFeesMetadata()\n        internal\n        view\n        returns (\n            uint256,\n            uint256,\n            address,\n            address\n        )\n    {\n        return (\n            gyroConfig.getUint(GyroConfigKeys.PROTOCOL_SWAP_FEE_PERC_KEY),\n            gyroConfig.getUint(GyroConfigKeys.PROTOCOL_FEE_GYRO_PORTION_KEY),\n            gyroConfig.getAddress(GyroConfigKeys.GYRO_TREASURY_KEY),\n            gyroConfig.getAddress(GyroConfigKeys.BAL_TREASURY_KEY)\n        );\n    }\n}\n","sourcePath":"contracts/cpmmv-3/GyroThreePool.sol","type":"contract","deployment":{"address":"0xbC9bC9dC07a3C860da97693D94B0F12D6Dccf4b1","chainid":"137","blockHeight":26860012}}