{"bytecode":"6101606040523480156200001257600080fd5b50604051620066ee380380620066ee8339810160408190526200003591620001cc565b81604051806020016200004890620001be565b601f1982820381018352601f909101166040528051819060006002820460a081905280830360e081905281855290915083620000908162000102602090811b620003b817901c565b60601b6001600160601b0319166080528285018051838252620000bf8262000102602090811b620003b817901c565b6001600160601b0319606091821b811660c05296909352905295861b8316610100525050426276a70001610120529390921b909216610140525062000223915050565b80517f602038038060206000396000f3fefefefefefefefefefefefefefefefefefefe808352600091602081018484f09084529150620001506001600160a01b03831615156101ac62000156565b50919050565b81620001675762000167816200016b565b5050565b62461bcd60e51b6000908152602060045260076024526642414c23000030600a808404818106603090810160081b95839006959095019082900491820690940160101b939093010160c81b604452606490fd5b6158d98062000e1583390190565b60008060408385031215620001df578182fd5b8251620001ec816200020a565b6020840151909250620001ff816200020a565b809150509250929050565b6001600160a01b03811681146200022057600080fd5b50565b60805160601c60a05160c05160601c60e0516101005160601c610120516101405160601c610b7e620002976000398061013c5280610273525080610312528061033b5250806103965250806104125250806102e9528061048e5250806104335250806102c8528061046a5250610b7e6000f3fe608060405234801561001057600080fd5b506004361061007c5760003560e01c8063174481fa1161005b578063174481fa146100c75780632da47c40146100dd5780636634b753146100f35780638d928af8146101135761007c565b8062c194db146100815780630bc7b4c41461009f5780631596019b146100b4575b600080fd5b61008961011b565b60405161009691906109b6565b60405180910390f35b6100a761013a565b604051610096919061097d565b6100a76100c236600461084a565b61015e565b6100cf6102c6565b604051610096929190610991565b6100e561030c565b604051610096929190610adb565b61010661010136600461082e565b610376565b60405161009691906109ab565b6100a7610394565b60606101356040518060200160405280600081525061040a565b905090565b7f000000000000000000000000000000000000000000000000000000000000000081565b600080600061016b61030c565b91509150610177610621565b604080516101e08101909152806060810180610191610394565b6001600160a01b031681526020018e81526020018d81526020018c6000815181106101b857fe5b60200260200101516001600160a01b031681526020018c6001815181106101db57fe5b60200260200101516001600160a01b031681526020016706f05b59d3b2000081526020016706f05b59d3b2000081526020018a81526020018681526020018581526020018915158152602001886001600160a01b031681525081526020018960008151811061024657fe5b602002602001015181526020018960018151811061026057fe5b602002602001015181525090506102b7817f00000000000000000000000000000000000000000000000000000000000000006040516020016102a39291906109c9565b6040516020818303038152906040526104e3565b9b9a5050505050505050505050565b7f00000000000000000000000000000000000000000000000000000000000000007f00000000000000000000000000000000000000000000000000000000000000009091565b600080427f000000000000000000000000000000000000000000000000000000000000000081101561036857807f000000000000000000000000000000000000000000000000000000000000000003925062278d009150610371565b60009250600091505b509091565b6001600160a01b031660009081526020819052604090205460ff1690565b7f000000000000000000000000000000000000000000000000000000000000000090565b80517f602038038060206000396000f3fefefefefefefefefefefefefefefefefefefe808352600091602081018484f090845291506104046001600160a01b03831615156101ac610543565b50919050565b8051604080517f00000000000000000000000000000000000000000000000000000000000000007f0000000000000000000000000000000000000000000000000000000000000000818101858101848101602090810190965280855293957f00000000000000000000000000000000000000000000000000000000000000009592947f000000000000000000000000000000000000000000000000000000000000000094938801866000828a3c846000888301883c50602089810190898501016104d5818386610555565b505050505050505050919050565b6000806104ef83610593565b6001600160a01b038116600081815260208190526040808220805460ff191660011790555192935090917f83a48fbcfc991335314e74d0496aab6a1987e992ddc85dddbcc4d6dd6ef2e9fc9190a292915050565b8161055157610551816105ce565b5050565b5b60208110610575578151835260209283019290910190601f1901610556565b905182516020929092036101000a6000190180199091169116179052565b600060606105a08361040a565b905060008151602083016000f090506001600160a01b0381166105c7573d6000803e3d6000fd5b9392505050565b62461bcd60e51b6000908152602060045260076024526642414c23000030600a808404818106603090810160081b95839006959095019082900491820690940160101b939093010160c81b604452606490fd5b6040518060600160405280610634610648565b815260200160008152602001600081525090565b60405180610180016040528060006001600160a01b03168152602001606081526020016060815260200160006001600160a01b0316815260200160006001600160a01b03168152602001600081526020016000815260200160008152602001600081526020016000815260200160001515815260200160006001600160a01b031681525090565b80356106da81610b30565b92915050565b600082601f8301126106f0578081fd5b81356107036106fe82610b10565b610ae9565b81815291506020808301908481018184028601820187101561072457600080fd5b60005b8481101561074c57813561073a81610b30565b84529282019290820190600101610727565b505050505092915050565b600082601f830112610767578081fd5b81356107756106fe82610b10565b81815291506020808301908481018184028601820187101561079657600080fd5b60005b8481101561074c57813584529282019290820190600101610799565b803580151581146106da57600080fd5b600082601f8301126107d5578081fd5b813567ffffffffffffffff8111156107eb578182fd5b6107fe601f8201601f1916602001610ae9565b915080825283602082850101111561081557600080fd5b8060208401602084013760009082016020015292915050565b60006020828403121561083f578081fd5b81356105c781610b30565b600080600080600080600060e0888a031215610864578283fd5b873567ffffffffffffffff8082111561087b578485fd5b6108878b838c016107c5565b985060208a013591508082111561089c578485fd5b6108a88b838c016107c5565b975060408a01359150808211156108bd578485fd5b6108c98b838c016106e0565b965060608a01359150808211156108de578485fd5b506108eb8a828b01610757565b945050608088013592506109028960a08a016107b5565b91506109118960c08a016106cf565b905092959891949750929550565b6001600160a01b03169052565b15159052565b60008151808452815b818110156109575760208185018101518683018201520161093b565b818111156109685782602083870101525b50601f01601f19169290920160200192915050565b6001600160a01b0391909116815260200190565b6001600160a01b0392831681529116602082015260400190565b901515815260200190565b6000602082526105c76020830184610932565b6000604082528351606060408401526109e660a08401825161091f565b60208101516101808060c0860152610a02610220860183610932565b91506040830151609f198684030160e0870152610a1f8382610932565b9250506060830151610100610a368188018361091f565b60808501519150610120610a4c8189018461091f565b60a0860151925061014083818a015260c0870151935061016084818b015260e0880151868b0152838801516101a08b0152828801516101c08b0152818801519550610a9b6101e08b018761092c565b808801519750505050505050610ab561020085018361091f565b602086015160608501526040860151608085015280925050506105c7602083018461091f565b918252602082015260400190565b60405181810167ffffffffffffffff81118282101715610b0857600080fd5b604052919050565b600067ffffffffffffffff821115610b26578081fd5b5060209081020190565b6001600160a01b0381168114610b4557600080fd5b5056fea26469706673582212202698c7d5cac97948b58da5b8f7cc7c2ffaffe5d827c902a0b995ac1cc7d1417564736f6c634300070100336102e06040527f6e71edae12b1b97f4d1f60370fef10105fa2faae0126114a169c64845d6126c9610120523480156200003757600080fd5b50604051620058d9380380620058d98339810160408190526200005a916200087e565b81516101008101516101208201516020808401516040808601518651825180840190935260018352603160f81b838601526101608801513360805260601b6001600160601b03191660a05283519394919390928592839283918791620000c7916003919085019062000711565b508051620000dd90600490602084019062000711565b505060058054601260ff1990911617905550815160209283012060c052805191012060e052507f8b73c3c69bb8fe3d512ecc4cf759cc79239f7b179b0ffacaa9a75d522b39400f6101005260601b6001600160601b03191661014052506200015090506276a7008311156101946200047c565b6200016462278d008211156101956200047c565b429091016101608190520161018052610140810151620001849062000491565b60e08101516200019490620004ed565b80516040516309b2760f60e01b81526000916001600160a01b0316906309b2760f90620001c79060029060040162000add565b602060405180830381600087803b158015620001e257600080fd5b505af1158015620001f7573d6000803e3d6000fd5b505050506040513d601f19601f820116820180604052508101906200021d919062000865565b6040805160028082526060808301845293945090916020830190803683370190505090508260600151816000815181106200025457fe5b60200260200101906001600160a01b031690816001600160a01b0316815250508260800151816001815181106200028757fe5b6001600160a01b0392831660209182029290920101528351166366a9c7d283836002604051908082528060200260200182016040528015620002d3578160200160208202803683370190505b506040518463ffffffff1660e01b8152600401620002f49392919062000a41565b600060405180830381600087803b1580156200030f57600080fd5b505af115801562000324573d6000803e3d6000fd5b5050506101a083905250606080840180516001600160601b031990831b81166101c052608086015190921b9091166101e0525162000362906200056b565b61026052608083015162000376906200056b565b6102805260a08301516200039790662386f26fc10000111561012e6200047c565b620003b9662386f26fc100008460c00151101561012e6200047c60201b60201c565b6000620003dd8460c001518560a001516200060d60201b620014bf1790919060201c565b9050620003f7670de0b6b3a764000082146101346200047c565b60a0840180516102005260c0850180516102205251905110156200041d57600162000420565b60005b60ff1661024052505050604083015160208401516200044492501061015e6200047c565b60208201516102a0526040909101516102c052600b80546001600160a01b0319166001600160a01b0390921691909117905562000b2e565b816200048d576200048d816200062a565b5050565b620004ad816009546200067d60201b620014d81790919060201c565b6009556040517f3e350b41e86a8e10f804ade6d35340d620be35569cc75ac943e8bb14ab80ead190620004e290839062000a36565b60405180910390a150565b6200050264e8d4a5100082101560cb6200047c565b6200051a67016345785d8a000082111560ca6200047c565b62000536816009546200069c60201b620014e61790919060201c565b6009556040517fa9ba3ffe0b6c366b81232caab38605a0699ad5398d6cce76f91ee809e322dafc90620004e290839062000af2565b600080826001600160a01b031663313ce5676040518163ffffffff1660e01b815260040160206040518083038186803b158015620005a857600080fd5b505afa158015620005bd573d6000803e3d6000fd5b505050506040513d601f19601f82011682018060405250810190620005e3919062000a13565b60ff169050600062000602601283620006bb60201b620014f41760201c565b600a0a949350505050565b60008282016200062184821015836200047c565b90505b92915050565b62461bcd60e51b6000908152602060045260076024526642414c23000030600a808404818106603090810160081b95839006959095019082900491820690940160101b939093010160c81b604452606490fd5b60006200062182605585620006d360201b6200150a179092919060201c565b60006200062182605685620006fc60201b62001531179092919060201c565b6000620006cd8383111560016200047c565b50900390565b60006001821b1984168284620006eb576000620006ee565b60015b60ff16901b17949350505050565b6001600160401b03811b1992909216911b1790565b828054600181600116156101000203166002900490600052602060002090601f016020900481019282601f106200075457805160ff191683800117855562000784565b8280016001018555821562000784579182015b828111156200078457825182559160200191906001019062000767565b506200079292915062000796565b5090565b5b8082111562000792576000815560010162000797565b80516001600160a01b03811681146200062457600080fd5b805180151581146200062457600080fd5b600082601f830112620007e7578081fd5b81516001600160401b03811115620007fd578182fd5b602062000813601f8301601f1916820162000afb565b925081835284818386010111156200082a57600080fd5b60005b828110156200084a5784810182015184820183015281016200082d565b828111156200085c5760008284860101525b50505092915050565b60006020828403121562000877578081fd5b5051919050565b6000806040838503121562000891578081fd5b82516001600160401b0380821115620008a8578283fd5b9084019060608287031215620008bc578283fd5b620008c8606062000afb565b825182811115620008d7578485fd5b8301610180818903811315620008eb578586fd5b620008f68162000afb565b9050620009048983620007ad565b815260208201518481111562000918578687fd5b620009268a828501620007d6565b6020830152506040820151848111156200093e578687fd5b6200094c8a828501620007d6565b604083015250620009618960608401620007ad565b6060820152620009758960808401620007ad565b608082015260a0828101519082015260c0808301519082015260e08083015190820152610100808301519082015261012080830151908201526101409350620009c189858401620007c5565b848201526101609350620009d889858401620007ad565b848201528083525050602083015160208201526040830151604082015280945050505062000a0a8460208501620007ad565b90509250929050565b60006020828403121562000a25578081fd5b815160ff8116811462000621578182fd5b901515815260200190565b60006060820185835260206060818501528186518084526080860191508288019350845b8181101562000a8d5762000a7a855162000b22565b8352938301939183019160010162000a65565b505084810360408601528551808252908201925081860190845b8181101562000acf5762000abc835162000b22565b8552938301939183019160010162000aa7565b509298975050505050505050565b602081016003831062000aec57fe5b91905290565b90815260200190565b6040518181016001600160401b038111828210171562000b1a57600080fd5b604052919050565b6001600160a01b031690565b60805160a05160601c60c05160e05161010051610120516101405160601c61016051610180516101a0516101c05160601c6101e05160601c61020051610220516102405161026051610280516102a0516102c051614cdd62000bfc60003980612a14525080612a3b5250806121a65250806121cd5250508061304f52508061307652505080610e9452508061091452508061169d525080611679525080610ce252508061123d5250806118c952508061190b5250806118ea525080610cbe525080610c495250614cdd6000f3fe608060405234801561001057600080fd5b506004361061027f5760003560e01c8063707dcd1e1161015c5780639d2c110c116100ce578063c0ff1a1511610087578063c0ff1a151461055d578063d505accf14610565578063d5c096c414610578578063dd62ed3e1461058b578063f89f27ed1461059e578063ffd088eb146105a65761027f565b80639d2c110c14610501578063a457c2d714610514578063a9059cbb14610527578063aaabadc51461053a578063b10be73914610542578063b48b5b40146105555761027f565b806387ec68171161012057806387ec6817146104c6578063893d20e8146104d95780638d928af8146104e15780638dd9f89d146104e957806395d89b41146104f15780639b02cdde146104f95761027f565b8063707dcd1e1461046457806370a082311461046c57806374f3b0091461047f5780637ecebe00146104a0578063851c1bb3146104b35761027f565b806338e9922e116101f55780634a6b0b15116101b95780634a6b0b15146103d357806355c67628146103ed5780636028bfd4146103f557806360d1507c14610416578063679aefce1461043c5780636b843239146104445761027f565b806338e9922e1461036e57806338fff2d01461038157806339509351146103895780633c4dd5bb1461039c57806344bbdb55146103be5761027f565b80631dccd830116102475780631dccd8301461030357806323b872dd14610323578063292c914a14610336578063313ce5671461033e5780633331bc36146103535780633644e515146103665761027f565b806306fdde0314610284578063095ea7b3146102a257806316c38b3c146102c257806318160ddd146102d75780631c0de051146102ec575b600080fd5b61028c6105ae565b6040516102999190614b72565b60405180910390f35b6102b56102b03660046142ba565b610644565b60405161029991906149c7565b6102d56102d0366004614528565b61065b565b005b6102df61066f565b60405161029991906149ea565b6102f4610675565b604051610299939291906149d2565b61031661031136600461446e565b61069e565b604051610299919061498f565b6102b5610331366004614205565b6107c1565b6102d5610835565b610346610869565b6040516102999190614c1a565b6102d5610361366004614861565b610872565b6102df6108ea565b6102d561037c366004614849565b6108f9565b6102df610912565b6102b56103973660046142ba565b610936565b6103af6103aa366004614882565b610971565b60405161029993929190614c04565b6103c6610990565b6040516102999190614937565b6103db61099f565b60405161029996959493929190614ac0565b6102df6109fa565b610408610403366004614560565b610a07565b604051610299929190614beb565b610429610424366004614849565b610a38565b6040516102999796959493929190614a90565b6102df610a81565b6104576104523660046143b0565b610aa6565b604051610299919061494b565b610316610b5c565b6102df61047a366004614195565b610b66565b61049261048d366004614560565b610b85565b6040516102999291906149a2565b6102df6104ae366004614195565b610c2a565b6102df6104c136600461465c565b610c45565b6104086104d4366004614560565b610c97565b6103c6610cbc565b6103c6610ce0565b610316610d04565b61028c610e04565b6102df610e65565b6102df61050f36600461474e565b610e6b565b6102b56105223660046142ba565b611033565b6102b56105353660046142ba565b611071565b6103c661107e565b6102df61055036600461471b565b611088565b6102df61111d565b6102df611123565b6102d5610573366004614245565b611208565b610492610586366004614560565b611351565b6102df6105993660046141cd565b611471565b6103166114ae565b6102df6114b8565b60038054604080516020601f600260001961010060018816150201909516949094049384018190048102820181019092528281526060939092909183018282801561063a5780601f1061060f5761010080835404028352916020019161063a565b820191906000526020600020905b81548152906001019060200180831161061d57829003601f168201915b5050505050905090565b6000610651338484611546565b5060015b92915050565b6106636115ae565b61066c816115dc565b50565b60025490565b600080600061068261165a565b15925061068d611677565b915061069761169b565b9050909192565b606081516001600160401b03811180156106b757600080fd5b506040519080825280602002602001820160405280156106e1578160200160208202803683370190505b50905060006106ee6116bf565b905060005b83518110156107ba5773__QueryProcessor________________________6379eaef82600886848151811061072457fe5b6020026020010151856040518463ffffffff1660e01b815260040161074b93929190614b36565b60206040518083038186803b15801561076357600080fd5b505af4158015610777573d6000803e3d6000fd5b505050506040513d601f19601f8201168201806040525081019061079b9190614736565b8382815181106107a757fe5b60209081029190910101526001016106f3565b5050919050565b6000806107ce8533611471565b90506107f2336001600160a01b03871614806107ea5750838210155b61019e6116cc565b6107fd8585856116de565b336001600160a01b0386161480159061081857506000198114155b1561082a5761082a8533858403611546565b506001949350505050565b61083d6117be565b6108456115ae565b61084f60016117d1565b600061085961066f565b111561086757610867611811565b565b60055460ff1690565b61088d818310801561088657506104008211155b60646116cc565b60006108a26001600080600080600080611859565b9050825b828110156108e4576000818152600860205260409020546108c6906118b9565b6108dc5760008181526008602052604090208290555b6001016108a6565b50505050565b60006108f46118c5565b905090565b6109016115ae565b6109096117be565b61066c81611962565b7f000000000000000000000000000000000000000000000000000000000000000090565b3360008181526001602090815260408083206001600160a01b0387168452909152812054909161065191859061096c90866114bf565b611546565b60008060006109818686866119cb565b92509250925093509350939050565b600b546001600160a01b031681565b600080600080600080600060095490506109b881611b06565b96506109c381611b12565b95506109ce81611b1f565b94506109d981611b2c565b93506109e481611b39565b92506109ef81611b46565b915050909192939495565b60006108f4600954611b46565b60006060610a1786516002611b53565b610a2c89898989898989611b60611cb1611d2f565b97509795505050505050565b6000806000806000806000610a53610400891061013b6116cc565b6000610a5e89611e43565b9050610a6981611e55565b959f949e50929c50909a509850965090945092505050565b60006108f4610a8e61066f565b610aa0610a99611123565b6002611eb8565b90611edc565b606081516001600160401b0381118015610abf57600080fd5b50604051908082528060200260200182016040528015610ae9578160200160208202803683370190505b5090506000610af66116bf565b9050610b0061407f565b60005b8451811015610b5457848181518110610b1857fe5b60200260200101519150610b358260000151848460200151611f1b565b848281518110610b4157fe5b6020908102919091010152600101610b03565b505050919050565b60606108f4611fb4565b6001600160a01b0381166000908152602081905260409020545b919050565b60608088610baf610b94610ce0565b6001600160a01b0316336001600160a01b03161460cd6116cc565b610bc4610bba610912565b82146101f46116cc565b610bcd87612022565b6000606080610be18d8d8d8d8d8d8d611b60565b925092509250610bf18c84612084565b610bfa82611cb1565b610c0381611cb1565b610c0b61165a565b15610c1857610c18611811565b909c909b509950505050505050505050565b6001600160a01b031660009081526006602052604090205490565b60007f000000000000000000000000000000000000000000000000000000000000000082604051602001610c7a9291906148f4565b604051602081830303815290604052805190602001209050919050565b60006060610ca786516002611b53565b610a2c8989898989898961208e61213f611d2f565b7f000000000000000000000000000000000000000000000000000000000000000090565b7f000000000000000000000000000000000000000000000000000000000000000090565b606080610d0f610ce0565b6001600160a01b031663f94d4668610d25610912565b6040518263ffffffff1660e01b8152600401610d4191906149ea565b60006040518083038186803b158015610d5957600080fd5b505afa158015610d6d573d6000803e3d6000fd5b505050506040513d6000823e601f3d908101601f19168201604052610d9591908101906142e5565b50915050610dcd81600081518110610da957fe5b602002602001015182600181518110610dbe57fe5b602002602001015160016119cb565b90915083600081518110610ddd57fe5b6020026020010184600181518110610df157fe5b6020908102919091010191909152525090565b60048054604080516020601f600260001961010060018816150201909516949094049384018190048102820181019092528281526060939092909183018282801561063a5780601f1061060f5761010080835404028352916020019161063a565b600a5490565b6000610e756117be565b8360800151610e85610b94610ce0565b610e90610bba610912565b60007f00000000000000000000000000000000000000000000000000000000000000006001600160a01b031686602001516001600160a01b03161490506000610ed88261219d565b90506000610ee6831561219d565b9050610ef287836121f1565b9650610efe86826121f1565b95506000806000610f108a8a886119cb565b925092509250610f578b60a0015187610f29578a610f2b565b8b5b88610f36578c610f38565b8b5b89610f435784610f45565b855b8a610f505786610f52565b855b6121fd565b60008b516001811115610f6657fe5b1415610fd6576000610f84610f796109fa565b60608e0151906122a7565b9050610fa6610fa0828e606001516114f490919063ffffffff16565b876121f1565b60608d01526000610fbb8d8d8d87878a6122eb565b9050610fc78187612309565b9950505050505050505061102b565b610fe48b60600151856121f1565b60608c01526000610ff98c8c8c868689612315565b90506110058187612328565b905061102161101a6110156109fa565b612334565b829061235a565b9850505050505050505b509392505050565b6000806110403385611471565b905080831061105a5761105533856000611546565b611067565b6110673385858403611546565b5060019392505050565b60006106513384846116de565b60006108f46123a5565b600073__QueryProcessor________________________630397bee06008846110af6116bf565b6040518463ffffffff1660e01b81526004016110cd93929190614aea565b60206040518083038186803b1580156110e557600080fd5b505af41580156110f9573d6000803e3d6000fd5b505050506040513d601f19601f820116820180604052508101906106559190614736565b61040090565b6000606061112f610ce0565b6001600160a01b031663f94d4668611145610912565b6040518263ffffffff1660e01b815260040161116191906149ea565b60006040518083038186803b15801561117957600080fd5b505afa15801561118d573d6000803e3d6000fd5b505050506040513d6000823e601f3d908101601f191682016040526111b591908101906142e5565b5091505060606111c3611fb4565b90506111ce82612022565b61120182826000815181106111df57fe5b6020026020010151836001815181106111f457fe5b602002602001015161241f565b9250505090565b6112168442111560d16116cc565b6001600160a01b038716600090815260066020908152604080832054905190929161126d917f0000000000000000000000000000000000000000000000000000000000000000918c918c918c9188918d9101614a12565b604051602081830303815290604052805190602001209050600061129082612452565b90506000600182888888604051600081526020016040526040516112b79493929190614a72565b6020604051602081039080840390855afa1580156112d9573d6000803e3d6000fd5b5050604051601f190151915061131b90506001600160a01b0382161580159061131357508b6001600160a01b0316826001600160a01b0316145b6101f86116cc565b6001600160a01b038b1660009081526006602052604090206001850190556113448b8b8b611546565b5050505050505050505050565b60608088611360610b94610ce0565b61136b610bba610912565b6113736117be565b600061137d61066f565b6113ed5761138d8b8b8b8861246e565b945090506113a2620f424082101560cc6116cc565b6113b06000620f42406124fe565b6113bf89620f424083036124fe565b6113c88461213f565b604080516002808252606082018352909160208301908036833701905050925061145b565b6113f688612022565b611429878960008151811061140757fe5b60200260200101518a60018151811061141c57fe5b6020026020010151612508565b6114388b8b8b8b8b8b8b61208e565b9095509350905061144989826124fe565b6114528461213f565b61145b83611cb1565b611463611811565b505097509795505050505050565b600061147b610ce0565b6001600160a01b0316826001600160a01b0316141561149d5750600019610655565b6114a7838361250d565b9050610655565b60606108f4612538565b6201de2090565b60008282016114d184821015836116cc565b9392505050565b60006114d18383605561150a565b60006114d183836056611531565b60006115048383111560016116cc565b50900390565b60006001821b1984168284611520576000611523565b60015b60ff16901b17949350505050565b6001600160401b03811b1992909216911b1790565b6001600160a01b0380841660008181526001602090815260408083209487168084529490915290819020849055517f8c5be1e5ebec7d5bd14f71427d1e84f3dd0314c0f7b2291e5b200ac8c7c3b925906115a19085906149ea565b60405180910390a3505050565b60006115c56000356001600160e01b031916610c45565b905061066c6115d48233612589565b6101916116cc565b80156115fc576115f76115ed611677565b42106101936116cc565b611611565b61161161160761169b565b42106101a96116cc565b6007805460ff19168215151790556040517f9e3a5e37224532dea67b89face185703738a228a6e8a23dee546960180d3be649061164f9083906149c7565b60405180910390a150565b600061166461169b565b4211806108f457505060075460ff161590565b7f000000000000000000000000000000000000000000000000000000000000000090565b7f000000000000000000000000000000000000000000000000000000000000000090565b60006108f4600954611b2c565b816116da576116da81612672565b5050565b6116f56001600160a01b03841615156101986116cc565b61170c6001600160a01b03831615156101996116cc565b611717838383612508565b6001600160a01b03831660009081526020819052604090205461173d90826101a06126c5565b6001600160a01b03808516600090815260208190526040808220939093559084168152205461176c90826114bf565b6001600160a01b0380841660008181526020819052604090819020939093559151908516907fddf252ad1be2c89b69c2b068fc378daa952ba7f163c4a11628f55a4df523b3ef906115a19085906149ea565b6108676117c961165a565b6101926116cc565b6009546117de90826114d8565b6009556040517f3e350b41e86a8e10f804ade6d35340d620be35569cc75ac943e8bb14ab80ead19061164f9083906149c7565b60095461181d81611b39565b1561066c57611837611830600a546126db565b829061271b565b905061185361184c61184761066f565b6126db565b8290612728565b60095550565b60006118658282612736565b61187084601f61273a565b61187b86605461274b565b61188688606a61273a565b6118918a609f61274b565b61189c8c60b561273a565b6118a78e60ea61274b565b17171717171798975050505050505050565b60006106558282612758565b60007f00000000000000000000000000000000000000000000000000000000000000007f00000000000000000000000000000000000000000000000000000000000000007f0000000000000000000000000000000000000000000000000000000000000000611932612762565b30604051602001611947959493929190614a46565b60405160208183030381529060405280519060200120905090565b61197564e8d4a5100082101560cb6116cc565b61198b67016345785d8a000082111560ca6116cc565b60095461199890826114e6565b6009556040517fa9ba3ffe0b6c366b81232caab38605a0699ad5398d6cce76f91ee809e322dafc9061164f9083906149ea565b60408051600280825260608083018452600093849384939091602083019080368337019050509050846119fe5785611a00565b865b81600081518110611a0d57fe5b60200260200101818152505084611a245786611a26565b855b81600181518110611a3357fe5b6020026020010181815250506060611a49611fb4565b9050611a5c82826000815181106111df57fe5b604080516002808252606080830184529398509091602083019080368337019050509050611a8a8287612766565b905086611aab5780600181518110611a9e57fe5b6020026020010151611ac1565b80600081518110611ab857fe5b60200260200101515b945086611ae25780600081518110611ad557fe5b6020026020010151611af8565b80600181518110611aef57fe5b60200260200101515b935050505093509350939050565b600061065582826127f4565b60006106558260166127f4565b600061065582602c612758565b600061065582604b61281b565b6000610655826055612823565b600061065582605661282d565b6116da81831460676116cc565b60006060806060611b6f611fb4565b9050611b7961165a565b15611c4a576000611ba68983600081518110611b9157fe5b6020026020010151846001815181106111f457fe5b90506060611bb48383612766565b9050611c13898b600081518110611bc757fe5b60200260200101518c600181518110611bdc57fe5b602002602001015184600081518110611bf157fe5b602002602001015185600181518110611c0657fe5b60200260200101516121fd565b611c1c8261283a565b611c268a88612867565b9096509450611c3f8287611c3861066f565b60006128b3565b600a5550611c7b9050565b611c548886612867565b9094509250611c6688846114f461290b565b611c7788826000815181106111df57fe5b600a555b60408051600280825260608201835286928692919060208301908036833701905050935093509350509750975097945050505050565b611cd881600081518110611cc157fe5b6020026020010151611cd3600161219d565b61299d565b81600081518110611ce557fe5b602002602001018181525050611d1381600181518110611d0157fe5b6020026020010151611cd3600061219d565b81600181518110611d2057fe5b60200260200101818152505050565b333014611ded576000306001600160a01b0316600036604051611d5392919061490c565b6000604051808303816000865af19150503d8060008114611d90576040519150601f19603f3d011682016040523d82523d6000602084013e611d95565b606091505b505090508060008114611da457fe5b60046000803e6000516001600160e01b0319166343adbafb60e01b8114611dcf573d6000803e3d6000fd5b506020600460003e604060205260243d03602460403e601c3d016000f35b611df686612022565b60006060611e0d8b8b8b8b8b8b8b8b63ffffffff16565b5091509150611e1f818463ffffffff16565b8051601f1982018390526343adbafb603f1983015260200260231982016044820181fd5b60009081526008602052604090205490565b6000806000806000806000611e69886129bd565b9650611e74886129ca565b9550611e7f886129d7565b9450611e8a886129e4565b9350611e95886129f1565b9250611ea0886129fe565b9150611eab886118b9565b9050919395979092949650565b60008282026114d1841580611ed5575083858381611ed257fe5b04145b60036116cc565b600081611ee857600080fd5b670de0b6b3a764000083810290848281611efe57fe5b0414611f0957600080fd5b828181611f1257fe5b04949350505050565b6040516334171a8560e01b815260009073__QueryProcessor________________________906334171a8590611f5c90600890889088908890600401614b0b565b60206040518083038186803b158015611f7457600080fd5b505af4158015611f88573d6000803e3d6000fd5b505050506040513d601f19601f82011682018060405250810190611fac9190614736565b949350505050565b604080516002808252606080830184529283929190602083019080368337019050509050611fe26001612a0b565b81600081518110611fef57fe5b6020026020010181815250506120056000612a0b565b8160018151811061201257fe5b6020908102919091010152905090565b6120498160008151811061203257fe5b6020026020010151612044600161219d565b611eb8565b8160008151811061205657fe5b602002602001018181525050611d138160018151811061207257fe5b6020026020010151612044600061219d565b6116da8282612a5f565b6000606080606061209d611fb4565b905060006120b28983600081518110611b9157fe5b905060606120c08383612766565b90506120d3898b600081518110611bc757fe5b6120dc8261283a565b600060606120ea8c8a612b1b565b9150915061210284836120fb61066f565b60016128b3565b600a556040805160028082526060820183528492849291906020830190803683370190505097509750975050505050509750975097945050505050565b6121668160008151811061214f57fe5b6020026020010151612161600161219d565b612b55565b8160008151811061217357fe5b602002602001018181525050611d138160018151811061218f57fe5b602002602001015161216160005b6000816121ca577f0000000000000000000000000000000000000000000000000000000000000000610655565b507f0000000000000000000000000000000000000000000000000000000000000000919050565b60006114d18383611eb8565b60095461220981611b39565b801561221457508543115b1561229f57600061222786858786612b88565b905060006122408786888761223b88611b12565b612ba2565b9050600061224d84611b2c565b9050600061225a85611b1f565b905060006122738284878761226e8b611b06565b612be8565b9050808314611344576122868682612c3f565b95506122928642612c4d565b6009819055955050505050505b505050505050565b60008282026122c1841580611ed5575083858381611ed257fe5b806122d0576000915050610655565b670de0b6b3a764000060001982015b04600101915050610655565b60006122fe868689606001518787612c5b565b979650505050505050565b60006114d1838361299d565b60006122fe868689606001518787612cff565b60006114d18383612b55565b6000670de0b6b3a7640000821061234c576000610655565b50670de0b6b3a76400000390565b600061236982151560046116cc565b8261237657506000610655565b670de0b6b3a7640000838102906123999085838161239057fe5b041460056116cc565b8260018203816122df57fe5b60006123af610ce0565b6001600160a01b031663aaabadc56040518163ffffffff1660e01b815260040160206040518083038186803b1580156123e757600080fd5b505afa1580156123fb573d6000803e3d6000fd5b505050506040513d601f19601f820116820180604052508101906108f491906141b1565b6000806000806000612432888888612d9e565b935093509350935061244684848484612f18565b98975050505050505050565b600061245c6118c5565b82604051602001610c7a92919061491c565b60006060600061247d84612f8c565b9050612498600082600381111561249057fe5b1460ce6116cc565b60606124a385612fa2565b90506124b181516002611b53565b6124ba81612022565b60606124c4611fb4565b905060006124d98383600081518110611b9157fe5b905060006124e8826002611eb8565b600a929092555099919850909650505050505050565b6116da8282612fb8565b505050565b6001600160a01b03918216600090815260016020908152604080832093909416825291909152205490565b6040805160028082526060808301845292839291906020830190803683370190505090506125666001613046565b8160008151811061257357fe5b6020026020010181815250506120056000613046565b600073ba1ba1ba1ba1ba1ba1ba1ba1ba1ba1ba1ba1ba1b6125a8610cbc565b6001600160a01b0316141580156125c357506125c38361309a565b156125eb576125d0610cbc565b6001600160a01b0316336001600160a01b0316149050610655565b6125f36123a5565b6001600160a01b0316639be2a8848484306040518463ffffffff1660e01b8152600401612622939291906149f3565b60206040518083038186803b15801561263a57600080fd5b505afa15801561264e573d6000803e3d6000fd5b505050506040513d601f19601f820116820180604052508101906114a79190614544565b62461bcd60e51b6000908152602060045260076024526642414c23000030600a808404818106603090810160081b95839006959095019082900491820690940160101b939093010160c81b604452606490fd5b60006126d484841115836116cc565b5050900390565b6000806126e7836130cc565b9050600080821361270057652d79883d2000820361270a565b652d79883d200082015b655af3107a40009005949350505050565b60006114d1838383613130565b60006114d183836016613130565b1b90565b661fffffffffffff91909116901b90565b623fffff91909116901b90565b1c637fffffff1690565b4690565b6040805160028082526060808301845292839291906020830190803683370190505090506127aa60018560018151811061279c57fe5b602002602001015185613147565b816000815181106127b757fe5b6020026020010181815250506127d560008560008151811061279c57fe5b816001815181106127e257fe5b60209081029190910101529392505050565b600082821c623fffff16621fffff811361280e5780611fac565b623fffff19179392505050565b1c6103ff1690565b1c60019081161490565b1c6001600160401b031690565b60008060008061284c600a5486613167565b9350935093509350612860848484846131d0565b5050505050565b60006060600061287684612f8c565b9050600181600381111561288657fe5b14156128a05761289685856131f0565b90935091506128ab565b6128ab610150612672565b509250929050565b600081156128e55760006128d1846128cb88886122a7565b9061235a565b90506128dd86826114bf565b915050611fac565b60006128f584610aa08888613222565b905061290186826114f4565b9695505050505050565b6129418360008151811061291b57fe5b60200260200101518360008151811061293057fe5b60200260200101518363ffffffff16565b8360008151811061294e57fe5b60200260200101818152505061297f8360018151811061296a57fe5b60200260200101518360018151811061293057fe5b8360018151811061298c57fe5b602002602001018181525050505050565b60006129ac82151560046116cc565b8183816129b557fe5b049392505050565b60006106558260ea6127f4565b60006106558260b561324b565b600061065582609f6127f4565b600061065582606a61324b565b60006106558260546127f4565b600061065582601f61324b565b600081612a38577f0000000000000000000000000000000000000000000000000000000000000000610655565b507f0000000000000000000000000000000000000000000000000000000000000000919050565b612a766001600160a01b038316151561019b6116cc565b612a8282600083612508565b6001600160a01b038216600090815260208190526040902054612aa890826101a16126c5565b6001600160a01b038316600090815260208190526040902055600254612ace908261327e565b6002556040516000906001600160a01b038416907fddf252ad1be2c89b69c2b068fc378daa952ba7f163c4a11628f55a4df523b3ef90612b0f9085906149ea565b60405180910390a35050565b600060606000612b2a84612f8c565b90506003816003811115612b3a57fe5b1415612b4a57612896858561328c565b6128ab610136612672565b6000612b6482151560046116cc565b82612b7157506000610655565b816001840381612b7d57fe5b046001019050610655565b600080612b97868686866132b1565b9050612901816126db565b600080612bb1878787876132b1565b90506000612bc9612bc287846122a7565b89906114bf565b90506000612bd6826126db565b85900393505050505b95945050505050565b600080612c0485858542612bfb8b611e43565b939291906132d9565b9050607842889003101580612c195786612c22565b612c228761332b565b600081815260086020526040902092909255509695505050505050565b60006114d18383604b613338565b60006114d18383602c613348565b6000612c7d612c7287670429d069189e0000613222565b8511156101306116cc565b6000612c9b612c9485670de0b6b3a76400026122a7565b88906114bf565b90506000612cb4612c9485670de0b6b3a763ffff613222565b9050612ccd612cc383886114bf565b610aa08389613222565b92505050612cdf8582106101656116cc565b612bdf612cf486670429d069189e0000613222565b8211156101316116cc565b6000612d0f8585106101656116cc565b612d2f612d2486670429d069189e0000613222565b8511156101316116cc565b6000612d46612c9485670de0b6b3a76400026122a7565b90506000612d5f612c9485670de0b6b3a763ffff613222565b9050612d78612d6e82886114f4565b6128cb84896122a7565b9250612bdf9150612d93905087670429d069189e0000613222565b8211156101306116cc565b6000808080612dbf612db08787611edc565b670de0b6b3a7640000906114f4565b93506000612dea8689600181518110612dd457fe5b6020026020010151611edc90919063ffffffff16565b90506000612e15888a600081518110612dff57fe5b602002602001015161322290919063ffffffff16565b9050612e2182826114bf565b9450612e4889600181518110612e3357fe5b60200260200101518a600081518110612dff57fe5b92505050612e7f86612e7988612e798b600081518110612e6457fe5b60200260200101518c600081518110612dff57fe5b90613222565b91506000612ebf86610aa089612e79670de0b6b3a7640000600202612e798e600181518110612eaa57fe5b60200260200101518f600081518110612dff57fe5b90506000612ef5612ed088806122a7565b610aa08b600181518110612ee057fe5b60200260200101518c600181518110612dff57fe5b9050612f0b81612f0586856114bf565b906114bf565b9350505093509350935093565b600080612f2d86671bc16d674ec800006122a7565b90506000612f4787612e7986673782dace9d900000613222565b90506000612f5586836114bf565b90506000612f6482600561335a565b90506000612f7289836114bf565b9050612f7e8186611edc565b9a9950505050505050505050565b6000818060200190518101906106559190614684565b6060818060200190518101906114d191906146cd565b612fc460008383612508565b600254612fd190826114bf565b6002556001600160a01b038216600090815260208190526040902054612ff790826114bf565b6001600160a01b0383166000818152602081905260408082209390935591519091907fddf252ad1be2c89b69c2b068fc378daa952ba7f163c4a11628f55a4df523b3ef90612b0f9085906149ea565b600081613073577f0000000000000000000000000000000000000000000000000000000000000000610655565b507f0000000000000000000000000000000000000000000000000000000000000000919050565b60006130ac631c74c91760e11b610c45565b82148061065557506130c46350dd6ed960e01b610c45565b909114919050565b60006130dc6000831360646116cc565b670c7d713b49da0000821380156130fa5750670f43fc2c04ee000082125b1561312057670de0b6b3a7640000613111836134cd565b8161311857fe5b059050610b80565b613129826135eb565b9050610b80565b623fffff828116821b90821b198416179392505050565b60008361315d57613158828461398a565b611fac565b611fac8284613996565b60008060008060008060008061317b6139a2565b935093509350935083600014156131a0576000975087965090945092506131c7915050565b6000806131b78c8c6131b061066f565b8989613c11565b909a509850929650909450505050505b92959194509250565b83156131e0576131e082856124fe565b82156108e4576108e481846124fe565b6000606060006131ff84613ca6565b90506060613215868361321061066f565b613cbc565b9196919550909350505050565b600082820261323c841580611ed5575083858381611ed257fe5b670de0b6b3a764000081611f12565b600082821c661fffffffffffff16660fffffffffffff811361326d5780611fac565b661fffffffffffff19179392505050565b60006114d1838360016126c5565b60006060600061329b84613ca6565b9050606061321586836132ac61066f565b613d57565b60006706f05b59d3b200006129016132cd826128cb87876114bf565b6128cb83818a8a6114bf565b6000806132e5876118b9565b8303905060008187026132f7896129ca565b01905060008287026133088a6129e4565b01905060008387026133198b6129fe565b019050612f7e89848a858b868c611859565b6000610655826001613dfe565b6103ff811b1992909216911b1790565b637fffffff811b1992909216911b1790565b60008261336957506000610655565b600061337484613e06565b9050600281670de0b6b3a764000086028161338b57fe5b0482018161339557fe5b049050600281670de0b6b3a76400008602816133ad57fe5b048201816133b757fe5b049050600281670de0b6b3a76400008602816133cf57fe5b048201816133d957fe5b049050600281670de0b6b3a76400008602816133f157fe5b048201816133fb57fe5b049050600281670de0b6b3a764000086028161341357fe5b0482018161341d57fe5b049050600281670de0b6b3a764000086028161343557fe5b0482018161343f57fe5b049050600281670de0b6b3a764000086028161345757fe5b0482018161346157fe5b04905060006134708280613222565b905061348661347f83866122a7565b86906114bf565b81111580156134a857506134a461349d83866122a7565b86906114f4565b8110155b61102b5760405162461bcd60e51b81526004016134c490614bc5565b60405180910390fd5b670de0b6b3a7640000026000806a0c097ce7bc90715b34b9f160241b808401906ec097ce7bc90715b34b9f0fffffffff198501028161350857fe5b05905060006a0c097ce7bc90715b34b9f160241b82800205905081806a0c097ce7bc90715b34b9f160241b81840205915060038205016a0c097ce7bc90715b34b9f160241b82840205915060058205016a0c097ce7bc90715b34b9f160241b82840205915060078205016a0c097ce7bc90715b34b9f160241b82840205915060098205016a0c097ce7bc90715b34b9f160241b828402059150600b8205016a0c097ce7bc90715b34b9f160241b828402059150600d8205016a0c097ce7bc90715b34b9f160241b828402059150600f826002919005919091010295945050505050565b6000670de0b6b3a76400008212156136275761361d826a0c097ce7bc90715b34b9f160241b8161361757fe5b056135eb565b6000039050610b80565b60007e1600ef3172e58d2e933ec884fde10064c63b5372d805e203c0000000000000831261367857770195e54c5dd42177f53a27172fa9ec630262827000000000830592506806f05b59d3b2000000015b73011798004d755d3c8bc8e03204cf44619e00000083126136b0576b1425982cf597cd205cef7380830592506803782dace9d9000000015b606492830292026e01855144814a7ff805980ff008400083126136f8576e01855144814a7ff805980ff008400068056bc75e2d63100000840205925068ad78ebc5ac62000000015b6b02df0ab5a80a22c61ab5a7008312613733576b02df0ab5a80a22c61ab5a70068056bc75e2d6310000084020592506856bc75e2d631000000015b693f1fce3da636ea5cf850831261376a57693f1fce3da636ea5cf85068056bc75e2d631000008402059250682b5e3af16b18800000015b690127fa27722cc06cc5e283126137a157690127fa27722cc06cc5e268056bc75e2d6310000084020592506815af1d78b58c400000015b68280e60114edb805d0383126137d65768280e60114edb805d0368056bc75e2d631000008402059250680ad78ebc5ac6200000015b680ebc5fb41746121110831261380157680ebc5fb4174612111068056bc75e2d631000009384020592015b6808f00f760a4b2db55d8312613836576808f00f760a4b2db55d68056bc75e2d6310000084020592506802b5e3af16b1880000015b6806f5f1775788937937831261386b576806f5f177578893793768056bc75e2d63100000840205925068015af1d78b58c40000015b6806248f33704b286603831261389f576806248f33704b28660368056bc75e2d63100000840205925067ad78ebc5ac620000015b6805c548670b9510e7ac83126138d3576805c548670b9510e7ac68056bc75e2d6310000084020592506756bc75e2d6310000015b600068056bc75e2d63100000840168056bc75e2d6310000080860302816138f657fe5b059050600068056bc75e2d63100000828002059050818068056bc75e2d63100000818402059150600382050168056bc75e2d63100000828402059150600582050168056bc75e2d63100000828402059150600782050168056bc75e2d63100000828402059150600982050168056bc75e2d63100000828402059150600b820501600202606485820105979650505050505050565b60006114d18383613222565b60006114d18383611edc565b600b5460405163bd02d0f560e01b81526000918291829182916001600160a01b039091169063bd02d0f5906139f4907550524f544f434f4c5f535741505f4645455f5045524360501b906004016149ea565b60206040518083038186803b158015613a0c57600080fd5b505afa158015613a20573d6000803e3d6000fd5b505050506040513d601f19601f82011682018060405250810190613a449190614736565b600b5460405163bd02d0f560e01b81526001600160a01b039091169063bd02d0f590613a94907f50524f544f434f4c5f4645455f4759524f5f504f5254494f4e00000000000000906004016149ea565b60206040518083038186803b158015613aac57600080fd5b505afa158015613ac0573d6000803e3d6000fd5b505050506040513d601f19601f82011682018060405250810190613ae49190614736565b600b546040516321f8a72160e01b81526001600160a01b03909116906321f8a72190613b24906c4759524f5f545245415355525960981b906004016149ea565b60206040518083038186803b158015613b3c57600080fd5b505afa158015613b50573d6000803e3d6000fd5b505050506040513d601f19601f82011682018060405250810190613b7491906141b1565b600b546040516321f8a72160e01b81526001600160a01b03909116906321f8a72190613bb3906b42414c5f545245415355525960a01b906004016149ea565b60206040518083038186803b158015613bcb57600080fd5b505afa158015613bdf573d6000803e3d6000fd5b505050506040513d601f19601f82011682018060405250810190613c0391906141b1565b935093509350935090919293565b600080868611613c2657506000905080613c9c565b6000613c4085612e79613c398a8c6114f4565b8990613222565b90506000613c58613c51898b6114f4565b8790613222565b90506000613c6689836114f4565b90506000613c748483611edc565b90506000613c828883613222565b90506000613c9083836114f4565b91975090955050505050505b9550959350505050565b6000818060200190518101906114d191906146a0565b60606000613cca8484611edc565b9050606085516001600160401b0381118015613ce557600080fd5b50604051908082528060200260200182016040528015613d0f578160200160208202803683370190505b50905060005b8651811015613d4d57613d2e83888381518110612dff57fe5b828281518110613d3a57fe5b6020908102919091010152600101613d15565b5095945050505050565b60606000613d65848461235a565b9050606085516001600160401b0381118015613d8057600080fd5b50604051908082528060200260200182016040528015613daa578160200160208202803683370190505b50905060005b8651811015613d4d57613ddf83888381518110613dc957fe5b60200260200101516122a790919063ffffffff16565b828281518110613deb57fe5b6020908102919091010152600101613db0565b016103ff1690565b6000670de0b6b3a76400008210613e3357670de0b6b3a7640000613e2b818404613fe9565b1b9050610b80565b600a821015613e4757506312d940b6610b80565b6064821015613e5c57506402540be400610b80565b6103e8821015613e72575064075cdd4719610b80565b612710821015613e88575064174876e800610b80565b620186a0821015613e9f57506449a0a4c700610b80565b620f4240821015613eb6575064e8d4a51000610b80565b62989680821015613ece57506502e0466fc608610b80565b6305f5e100821015613ee757506509184e72a000610b80565b633b9aca00821015613f005750651cc2c05dbc53610b80565b6402540be400821015613f1a5750655af3107a4000610b80565b64174876e800821015613f35575066011f9b83a95b45610b80565b64e8d4a51000821015613f50575066038d7ea4c68000610b80565b6509184e72a000821015613f6c5750660b3c13249d90bb610b80565b655af3107a4000821015613f885750662386f26fc10000610b80565b66038d7ea4c68000821015613fa55750667058bf6e27a751610b80565b662386f26fc10000821015613fc3575067016345785d8a0000610b80565b67016345785d8a0000821015613fe25750670463777a4d8c892d610b80565b5080610b80565b6000600160801b82106140015760809190911c906040015b68010000000000000000821061401c5760409190911c906020015b64010000000082106140335760209190911c906010015b6201000082106140485760109190911c906008015b610100821061405c5760089190911c906004015b6010821061406f5760049190911c906002015b60048210610b8057600101919050565b604080518082019091526000808252602082015290565b803561065581614c77565b600082601f8301126140b1578081fd5b81516140c46140bf82614c4e565b614c28565b8181529150602080830190848101818402860182018710156140e557600080fd5b60005b84811015614104578151845292820192908201906001016140e8565b505050505092915050565b600082601f83011261411f578081fd5b81356001600160401b03811115614134578182fd5b614147601f8201601f1916602001614c28565b915080825283602082850101111561415e57600080fd5b8060208401602084013760009082016020015292915050565b80356002811061065557600080fd5b80356003811061065557600080fd5b6000602082840312156141a6578081fd5b81356114d181614c77565b6000602082840312156141c2578081fd5b81516114d181614c77565b600080604083850312156141df578081fd5b82356141ea81614c77565b915060208301356141fa81614c77565b809150509250929050565b600080600060608486031215614219578081fd5b833561422481614c77565b9250602084013561423481614c77565b929592945050506040919091013590565b600080600080600080600060e0888a03121561425f578485fd5b873561426a81614c77565b9650602088013561427a81614c77565b95506040880135945060608801359350608088013560ff8116811461429d578384fd5b9699959850939692959460a0840135945060c09093013592915050565b600080604083850312156142cc578182fd5b82356142d781614c77565b946020939093013593505050565b6000806000606084860312156142f9578081fd5b83516001600160401b038082111561430f578283fd5b818601915086601f830112614322578283fd5b81516143306140bf82614c4e565b80828252602080830192508086018b828387028901011115614350578788fd5b8796505b8487101561437b57805161436781614c77565b845260019690960195928101928101614354565b508901519097509350505080821115614392578283fd5b5061439f868287016140a1565b925050604084015190509250925092565b600060208083850312156143c2578182fd5b82356001600160401b038111156143d7578283fd5b8301601f810185136143e7578283fd5b80356143f56140bf82614c4e565b818152838101908385016040808502860187018a1015614413578788fd5b8795505b848610156144605780828b03121561442d578788fd5b61443681614c28565b6144408b84614186565b815282880135888201528452600195909501949286019290810190614417565b509098975050505050505050565b60006020808385031215614480578182fd5b82356001600160401b03811115614495578283fd5b8301601f810185136144a5578283fd5b80356144b36140bf82614c4e565b818152838101908385016060808502860187018a10156144d1578788fd5b8795505b848610156144605780828b0312156144eb578788fd5b6144f481614c28565b6144fe8b84614186565b815282880135888201526040808401359082015284526001959095019492860192908101906144d5565b600060208284031215614539578081fd5b81356114d181614c8c565b600060208284031215614555578081fd5b81516114d181614c8c565b600080600080600080600060e0888a03121561457a578081fd5b8735965060208089013561458d81614c77565b9650604089013561459d81614c77565b955060608901356001600160401b03808211156145b8578384fd5b818b0191508b601f8301126145cb578384fd5b81356145d96140bf82614c4e565b8082825285820191508585018f8788860288010111156145f7578788fd5b8795505b838610156146195780358352600195909501949186019186016145fb565b509850505060808b0135955060a08b0135945060c08b013592508083111561463f578384fd5b505061464d8a828b0161410f565b91505092959891949750929550565b60006020828403121561466d578081fd5b81356001600160e01b0319811681146114d1578182fd5b600060208284031215614695578081fd5b81516114d181614c9a565b600080604083850312156146b2578182fd5b82516146bd81614c9a565b6020939093015192949293505050565b600080604083850312156146df578182fd5b82516146ea81614c9a565b60208401519092506001600160401b03811115614705578182fd5b614711858286016140a1565b9150509250929050565b60006020828403121561472c578081fd5b6114d18383614186565b600060208284031215614747578081fd5b5051919050565b600080600060608486031215614762578081fd5b83356001600160401b0380821115614778578283fd5b818601915061012080838903121561478e578384fd5b61479781614c28565b90506147a38884614177565b81526147b28860208501614096565b60208201526147c48860408501614096565b6040820152606083013560608201526080830135608082015260a083013560a08201526147f48860c08501614096565b60c08201526148068860e08501614096565b60e0820152610100808401358381111561481e578586fd5b61482a8a82870161410f565b9183019190915250976020870135975060409096013595945050505050565b60006020828403121561485a578081fd5b5035919050565b60008060408385031215614873578182fd5b50508035926020909101359150565b600080600060608486031215614896578081fd5b833592506020840135915060408401356148af81614c8c565b809150509250925092565b6000815180845260208085019450808401835b838110156148e9578151875295820195908201906001016148cd565b509495945050505050565b9182526001600160e01b031916602082015260240190565b6000828483379101908152919050565b61190160f01b81526002810192909252602282015260420190565b6001600160a01b0391909116815260200190565b6020808252825182820181905260009190848201906040850190845b8181101561498357835183529284019291840191600101614967565b50909695505050505050565b6000602082526114d160208301846148ba565b6000604082526149b560408301856148ba565b8281036020840152612bdf81856148ba565b901515815260200190565b92151583526020830191909152604082015260600190565b90815260200190565b9283526001600160a01b03918216602084015216604082015260600190565b9586526001600160a01b0394851660208701529290931660408501526060840152608083019190915260a082015260c00190565b9485526020850193909352604084019190915260608301526001600160a01b0316608082015260a00190565b93845260ff9290921660208401526040830152606082015260800190565b968752602087019590955260408601939093526060850191909152608084015260a083015260c082015260e00190565b9586526020860194909452604085019290925260608401521515608083015260a082015260c00190565b83815260608101614afa84614c6d565b602082019390935260400152919050565b84815260808101614b1b85614c6d565b84602083015283604083015282606083015295945050505050565b838152825160a0820190614b4981614c6d565b806020840152506020840151604083015260408401516060830152826080830152949350505050565b6000602080835283518082850152825b81811015614b9e57858101830151858201604001528201614b82565b81811115614baf5783604083870101525b50601f01601f1916929092016040019392505050565b6020808252600c908201526b17dcdc5c9d0811905253115160a21b604082015260600190565b600083825260406020830152611fac60408301846148ba565b9283526020830191909152604082015260600190565b60ff91909116815260200190565b6040518181016001600160401b0381118282101715614c4657600080fd5b604052919050565b60006001600160401b03821115614c63578081fd5b5060209081020190565b6003811061066c57fe5b6001600160a01b038116811461066c57600080fd5b801515811461066c57600080fd5b6004811061066c57600080fdfea2646970667358221220aac763e46c6ded7f138ef24a7bca19ca00123477927b5c41d802a4885764bc8064736f6c63430007010033","bytecodeSha1":"ae5e9ac73dbeea365982fbd567e3e4a73de59841","type":"contract","abi":[{"inputs":[{"internalType":"contract IVault","name":"vault","type":"address"},{"internalType":"address","name":"_gyroConfigAddress","type":"address"}],"stateMutability":"nonpayable","type":"constructor","name":"constructor"},{"anonymous":false,"inputs":[{"indexed":true,"internalType":"address","name":"pool","type":"address"}],"name":"PoolCreated","type":"event"},{"inputs":[{"internalType":"string","name":"name","type":"string"},{"internalType":"string","name":"symbol","type":"string"},{"internalType":"contract IERC20[]","name":"tokens","type":"address[]"},{"internalType":"uint256[]","name":"sqrts","type":"uint256[]"},{"internalType":"uint256","name":"swapFeePercentage","type":"uint256"},{"internalType":"bool","name":"oracleEnabled","type":"bool"},{"internalType":"address","name":"owner","type":"address"}],"name":"create","outputs":[{"internalType":"address","name":"","type":"address"}],"stateMutability":"nonpayable","type":"function"},{"inputs":[],"name":"getCreationCode","outputs":[{"internalType":"bytes","name":"","type":"bytes"}],"stateMutability":"view","type":"function"},{"inputs":[],"name":"getCreationCodeContracts","outputs":[{"internalType":"address","name":"contractA","type":"address"},{"internalType":"address","name":"contractB","type":"address"}],"stateMutability":"view","type":"function"},{"inputs":[],"name":"getPauseConfiguration","outputs":[{"internalType":"uint256","name":"pauseWindowDuration","type":"uint256"},{"internalType":"uint256","name":"bufferPeriodDuration","type":"uint256"}],"stateMutability":"view","type":"function"},{"inputs":[],"name":"getVault","outputs":[{"internalType":"contract IVault","name":"","type":"address"}],"stateMutability":"view","type":"function"},{"inputs":[],"name":"gyroConfigAddress","outputs":[{"internalType":"address","name":"","type":"address"}],"stateMutability":"view","type":"function"},{"inputs":[{"internalType":"address","name":"pool","type":"address"}],"name":"isPoolFromFactory","outputs":[{"internalType":"bool","name":"","type":"bool"}],"stateMutability":"view","type":"function"}],"compiler":{"version":"0.7.1+commit.f4a555be","evm_version":"istanbul","optimizer":{"enabled":true,"runs":200}},"contractName":"GyroTwoPoolFactory","language":"Solidity","natspec":{"methods":{"create(string,string,address[],uint256[],uint256,bool,address)":{"details":"Deploys a new `GyroTwoPool`."},"getCreationCode()":{"details":"Returns the creation code of the contract this factory creates."},"getCreationCodeContracts()":{"details":"Returns the two addresses where the creation code of the contract crated by this factory is stored."},"getPauseConfiguration()":{"details":"Returns the current `TemporarilyPausable` configuration that will be applied to Pools created by this factory. `pauseWindowDuration` will decrease over time until it reaches zero, at which point both it and `bufferPeriodDuration` will be zero forever, meaning deployed Pools will not be pausable."},"getVault()":{"details":"Returns the Vault's address."},"isPoolFromFactory(address)":{"details":"Returns true if `pool` was created by this factory."}},"kind":"dev","version":1},"opcodes":"PUSH1 0x80 PUSH1 0x40 MSTORE CALLVALUE DUP1 ISZERO PUSH2 0x10 JUMPI PUSH1 0x0 DUP1 REVERT JUMPDEST POP PUSH1 0x4 CALLDATASIZE LT PUSH2 0x7C JUMPI PUSH1 0x0 CALLDATALOAD PUSH1 0xE0 SHR DUP1 PUSH4 0x174481FA GT PUSH2 0x5B JUMPI DUP1 PUSH4 0x174481FA EQ PUSH2 0xC7 JUMPI DUP1 PUSH4 0x2DA47C40 EQ PUSH2 0xDD JUMPI DUP1 PUSH4 0x6634B753 EQ PUSH2 0xF3 JUMPI DUP1 PUSH4 0x8D928AF8 EQ PUSH2 0x113 JUMPI PUSH2 0x7C JUMP JUMPDEST DUP1 PUSH3 0xC194DB EQ PUSH2 0x81 JUMPI DUP1 PUSH4 0xBC7B4C4 EQ PUSH2 0x9F JUMPI DUP1 PUSH4 0x1596019B EQ PUSH2 0xB4 JUMPI JUMPDEST PUSH1 0x0 DUP1 REVERT JUMPDEST PUSH2 0x89 PUSH2 0x11B JUMP JUMPDEST PUSH1 0x40 MLOAD PUSH2 0x96 SWAP2 SWAP1 PUSH2 0x9B6 JUMP JUMPDEST PUSH1 0x40 MLOAD DUP1 SWAP2 SUB SWAP1 RETURN JUMPDEST PUSH2 0xA7 PUSH2 0x13A JUMP JUMPDEST PUSH1 0x40 MLOAD PUSH2 0x96 SWAP2 SWAP1 PUSH2 0x97D JUMP JUMPDEST PUSH2 0xA7 PUSH2 0xC2 CALLDATASIZE PUSH1 0x4 PUSH2 0x84A JUMP JUMPDEST PUSH2 0x15E JUMP JUMPDEST PUSH2 0xCF PUSH2 0x2C6 JUMP JUMPDEST PUSH1 0x40 MLOAD PUSH2 0x96 SWAP3 SWAP2 SWAP1 PUSH2 0x991 JUMP JUMPDEST PUSH2 0xE5 PUSH2 0x30C JUMP JUMPDEST PUSH1 0x40 MLOAD PUSH2 0x96 SWAP3 SWAP2 SWAP1 PUSH2 0xADB JUMP JUMPDEST PUSH2 0x106 PUSH2 0x101 CALLDATASIZE PUSH1 0x4 PUSH2 0x82E JUMP JUMPDEST PUSH2 0x376 JUMP JUMPDEST PUSH1 0x40 MLOAD PUSH2 0x96 SWAP2 SWAP1 PUSH2 0x9AB JUMP JUMPDEST PUSH2 0xA7 PUSH2 0x394 JUMP JUMPDEST PUSH1 0x60 PUSH2 0x135 PUSH1 0x40 MLOAD DUP1 PUSH1 0x20 ADD PUSH1 0x40 MSTORE DUP1 PUSH1 0x0 DUP2 MSTORE POP PUSH2 0x40A JUMP JUMPDEST SWAP1 POP SWAP1 JUMP JUMPDEST PUSH32 0x0 DUP2 JUMP JUMPDEST PUSH1 0x0 DUP1 PUSH1 0x0 PUSH2 0x16B PUSH2 0x30C JUMP JUMPDEST SWAP2 POP SWAP2 POP PUSH2 0x177 PUSH2 0x621 JUMP JUMPDEST PUSH1 0x40 DUP1 MLOAD PUSH2 0x1E0 DUP2 ADD SWAP1 SWAP2 MSTORE DUP1 PUSH1 0x60 DUP2 ADD DUP1 PUSH2 0x191 PUSH2 0x394 JUMP JUMPDEST PUSH1 0x1 PUSH1 0x1 PUSH1 0xA0 SHL SUB AND DUP2 MSTORE PUSH1 0x20 ADD DUP15 DUP2 MSTORE PUSH1 0x20 ADD DUP14 DUP2 MSTORE PUSH1 0x20 ADD DUP13 PUSH1 0x0 DUP2 MLOAD DUP2 LT PUSH2 0x1B8 JUMPI INVALID JUMPDEST PUSH1 0x20 MUL PUSH1 0x20 ADD ADD MLOAD PUSH1 0x1 PUSH1 0x1 PUSH1 0xA0 SHL SUB AND DUP2 MSTORE PUSH1 0x20 ADD DUP13 PUSH1 0x1 DUP2 MLOAD DUP2 LT PUSH2 0x1DB JUMPI INVALID JUMPDEST PUSH1 0x20 MUL PUSH1 0x20 ADD ADD MLOAD PUSH1 0x1 PUSH1 0x1 PUSH1 0xA0 SHL SUB AND DUP2 MSTORE PUSH1 0x20 ADD PUSH8 0x6F05B59D3B20000 DUP2 MSTORE PUSH1 0x20 ADD PUSH8 0x6F05B59D3B20000 DUP2 MSTORE PUSH1 0x20 ADD DUP11 DUP2 MSTORE PUSH1 0x20 ADD DUP7 DUP2 MSTORE PUSH1 0x20 ADD DUP6 DUP2 MSTORE PUSH1 0x20 ADD DUP10 ISZERO ISZERO DUP2 MSTORE PUSH1 0x20 ADD DUP9 PUSH1 0x1 PUSH1 0x1 PUSH1 0xA0 SHL SUB AND DUP2 MSTORE POP DUP2 MSTORE PUSH1 0x20 ADD DUP10 PUSH1 0x0 DUP2 MLOAD DUP2 LT PUSH2 0x246 JUMPI INVALID JUMPDEST PUSH1 0x20 MUL PUSH1 0x20 ADD ADD MLOAD DUP2 MSTORE PUSH1 0x20 ADD DUP10 PUSH1 0x1 DUP2 MLOAD DUP2 LT PUSH2 0x260 JUMPI INVALID JUMPDEST PUSH1 0x20 MUL PUSH1 0x20 ADD ADD MLOAD DUP2 MSTORE POP SWAP1 POP PUSH2 0x2B7 DUP2 PUSH32 0x0 PUSH1 0x40 MLOAD PUSH1 0x20 ADD PUSH2 0x2A3 SWAP3 SWAP2 SWAP1 PUSH2 0x9C9 JUMP JUMPDEST PUSH1 0x40 MLOAD PUSH1 0x20 DUP2 DUP4 SUB SUB DUP2 MSTORE SWAP1 PUSH1 0x40 MSTORE PUSH2 0x4E3 JUMP JUMPDEST SWAP12 SWAP11 POP POP POP POP POP POP POP POP POP POP POP JUMP JUMPDEST PUSH32 0x0 PUSH32 0x0 SWAP1 SWAP2 JUMP JUMPDEST PUSH1 0x0 DUP1 TIMESTAMP PUSH32 0x0 DUP2 LT ISZERO PUSH2 0x368 JUMPI DUP1 PUSH32 0x0 SUB SWAP3 POP PUSH3 0x278D00 SWAP2 POP PUSH2 0x371 JUMP JUMPDEST PUSH1 0x0 SWAP3 POP PUSH1 0x0 SWAP2 POP JUMPDEST POP SWAP1 SWAP2 JUMP JUMPDEST PUSH1 0x1 PUSH1 0x1 PUSH1 0xA0 SHL SUB AND PUSH1 0x0 SWAP1 DUP2 MSTORE PUSH1 0x20 DUP2 SWAP1 MSTORE PUSH1 0x40 SWAP1 KECCAK256 SLOAD PUSH1 0xFF AND SWAP1 JUMP JUMPDEST PUSH32 0x0 SWAP1 JUMP JUMPDEST DUP1 MLOAD PUSH32 0x602038038060206000396000F3FEFEFEFEFEFEFEFEFEFEFEFEFEFEFEFEFEFEFE DUP1 DUP4 MSTORE PUSH1 0x0 SWAP2 PUSH1 0x20 DUP2 ADD DUP5 DUP5 CREATE SWAP1 DUP5 MSTORE SWAP2 POP PUSH2 0x404 PUSH1 0x1 PUSH1 0x1 PUSH1 0xA0 SHL SUB DUP4 AND ISZERO ISZERO PUSH2 0x1AC PUSH2 0x543 JUMP JUMPDEST POP SWAP2 SWAP1 POP JUMP JUMPDEST DUP1 MLOAD PUSH1 0x40 DUP1 MLOAD PUSH32 0x0 PUSH32 0x0 DUP2 DUP2 ADD DUP6 DUP2 ADD DUP5 DUP2 ADD PUSH1 0x20 SWAP1 DUP2 ADD SWAP1 SWAP7 MSTORE DUP1 DUP6 MSTORE SWAP4 SWAP6 PUSH32 0x0 SWAP6 SWAP3 SWAP5 PUSH32 0x0 SWAP5 SWAP4 DUP9 ADD DUP7 PUSH1 0x0 DUP3 DUP11 EXTCODECOPY DUP5 PUSH1 0x0 DUP9 DUP4 ADD DUP9 EXTCODECOPY POP PUSH1 0x20 DUP10 DUP2 ADD SWAP1 DUP10 DUP6 ADD ADD PUSH2 0x4D5 DUP2 DUP4 DUP7 PUSH2 0x555 JUMP JUMPDEST POP POP POP POP POP POP POP POP POP SWAP2 SWAP1 POP JUMP JUMPDEST PUSH1 0x0 DUP1 PUSH2 0x4EF DUP4 PUSH2 0x593 JUMP JUMPDEST PUSH1 0x1 PUSH1 0x1 PUSH1 0xA0 SHL SUB DUP2 AND PUSH1 0x0 DUP2 DUP2 MSTORE PUSH1 0x20 DUP2 SWAP1 MSTORE PUSH1 0x40 DUP1 DUP3 KECCAK256 DUP1 SLOAD PUSH1 0xFF NOT AND PUSH1 0x1 OR SWAP1 SSTORE MLOAD SWAP3 SWAP4 POP SWAP1 SWAP2 PUSH32 0x83A48FBCFC991335314E74D0496AAB6A1987E992DDC85DDDBCC4D6DD6EF2E9FC SWAP2 SWAP1 LOG2 SWAP3 SWAP2 POP POP JUMP JUMPDEST DUP2 PUSH2 0x551 JUMPI PUSH2 0x551 DUP2 PUSH2 0x5CE JUMP JUMPDEST POP POP JUMP JUMPDEST JUMPDEST PUSH1 0x20 DUP2 LT PUSH2 0x575 JUMPI DUP2 MLOAD DUP4 MSTORE PUSH1 0x20 SWAP3 DUP4 ADD SWAP3 SWAP1 SWAP2 ADD SWAP1 PUSH1 0x1F NOT ADD PUSH2 0x556 JUMP JUMPDEST SWAP1 MLOAD DUP3 MLOAD PUSH1 0x20 SWAP3 SWAP1 SWAP3 SUB PUSH2 0x100 EXP PUSH1 0x0 NOT ADD DUP1 NOT SWAP1 SWAP2 AND SWAP2 AND OR SWAP1 MSTORE JUMP JUMPDEST PUSH1 0x0 PUSH1 0x60 PUSH2 0x5A0 DUP4 PUSH2 0x40A JUMP JUMPDEST SWAP1 POP PUSH1 0x0 DUP2 MLOAD PUSH1 0x20 DUP4 ADD PUSH1 0x0 CREATE SWAP1 POP PUSH1 0x1 PUSH1 0x1 PUSH1 0xA0 SHL SUB DUP2 AND PUSH2 0x5C7 JUMPI RETURNDATASIZE PUSH1 0x0 DUP1 RETURNDATACOPY RETURNDATASIZE PUSH1 0x0 REVERT JUMPDEST SWAP4 SWAP3 POP POP POP JUMP JUMPDEST PUSH3 0x461BCD PUSH1 0xE5 SHL PUSH1 0x0 SWAP1 DUP2 MSTORE PUSH1 0x20 PUSH1 0x4 MSTORE PUSH1 0x7 PUSH1 0x24 MSTORE PUSH7 0x42414C23000030 PUSH1 0xA DUP1 DUP5 DIV DUP2 DUP2 MOD PUSH1 0x30 SWAP1 DUP2 ADD PUSH1 0x8 SHL SWAP6 DUP4 SWAP1 MOD SWAP6 SWAP1 SWAP6 ADD SWAP1 DUP3 SWAP1 DIV SWAP2 DUP3 MOD SWAP1 SWAP5 ADD PUSH1 0x10 SHL SWAP4 SWAP1 SWAP4 ADD ADD PUSH1 0xC8 SHL PUSH1 0x44 MSTORE PUSH1 0x64 SWAP1 REVERT JUMPDEST PUSH1 0x40 MLOAD DUP1 PUSH1 0x60 ADD PUSH1 0x40 MSTORE DUP1 PUSH2 0x634 PUSH2 0x648 JUMP JUMPDEST DUP2 MSTORE PUSH1 0x20 ADD PUSH1 0x0 DUP2 MSTORE PUSH1 0x20 ADD PUSH1 0x0 DUP2 MSTORE POP SWAP1 JUMP JUMPDEST PUSH1 0x40 MLOAD DUP1 PUSH2 0x180 ADD PUSH1 0x40 MSTORE DUP1 PUSH1 0x0 PUSH1 0x1 PUSH1 0x1 PUSH1 0xA0 SHL SUB AND DUP2 MSTORE PUSH1 0x20 ADD PUSH1 0x60 DUP2 MSTORE PUSH1 0x20 ADD PUSH1 0x60 DUP2 MSTORE PUSH1 0x20 ADD PUSH1 0x0 PUSH1 0x1 PUSH1 0x1 PUSH1 0xA0 SHL SUB AND DUP2 MSTORE PUSH1 0x20 ADD PUSH1 0x0 PUSH1 0x1 PUSH1 0x1 PUSH1 0xA0 SHL SUB AND DUP2 MSTORE PUSH1 0x20 ADD PUSH1 0x0 DUP2 MSTORE PUSH1 0x20 ADD PUSH1 0x0 DUP2 MSTORE PUSH1 0x20 ADD PUSH1 0x0 DUP2 MSTORE PUSH1 0x20 ADD PUSH1 0x0 DUP2 MSTORE PUSH1 0x20 ADD PUSH1 0x0 DUP2 MSTORE PUSH1 0x20 ADD PUSH1 0x0 ISZERO ISZERO DUP2 MSTORE PUSH1 0x20 ADD PUSH1 0x0 PUSH1 0x1 PUSH1 0x1 PUSH1 0xA0 SHL SUB AND DUP2 MSTORE POP SWAP1 JUMP JUMPDEST DUP1 CALLDATALOAD PUSH2 0x6DA DUP2 PUSH2 0xB30 JUMP JUMPDEST SWAP3 SWAP2 POP POP JUMP JUMPDEST PUSH1 0x0 DUP3 PUSH1 0x1F DUP4 ADD SLT PUSH2 0x6F0 JUMPI DUP1 DUP2 REVERT JUMPDEST DUP2 CALLDATALOAD PUSH2 0x703 PUSH2 0x6FE DUP3 PUSH2 0xB10 JUMP JUMPDEST PUSH2 0xAE9 JUMP JUMPDEST DUP2 DUP2 MSTORE SWAP2 POP PUSH1 0x20 DUP1 DUP4 ADD SWAP1 DUP5 DUP2 ADD DUP2 DUP5 MUL DUP7 ADD DUP3 ADD DUP8 LT ISZERO PUSH2 0x724 JUMPI PUSH1 0x0 DUP1 REVERT JUMPDEST PUSH1 0x0 JUMPDEST DUP5 DUP2 LT ISZERO PUSH2 0x74C JUMPI DUP2 CALLDATALOAD PUSH2 0x73A DUP2 PUSH2 0xB30 JUMP JUMPDEST DUP5 MSTORE SWAP3 DUP3 ADD SWAP3 SWAP1 DUP3 ADD SWAP1 PUSH1 0x1 ADD PUSH2 0x727 JUMP JUMPDEST POP POP POP POP POP SWAP3 SWAP2 POP POP JUMP JUMPDEST PUSH1 0x0 DUP3 PUSH1 0x1F DUP4 ADD SLT PUSH2 0x767 JUMPI DUP1 DUP2 REVERT JUMPDEST DUP2 CALLDATALOAD PUSH2 0x775 PUSH2 0x6FE DUP3 PUSH2 0xB10 JUMP JUMPDEST DUP2 DUP2 MSTORE SWAP2 POP PUSH1 0x20 DUP1 DUP4 ADD SWAP1 DUP5 DUP2 ADD DUP2 DUP5 MUL DUP7 ADD DUP3 ADD DUP8 LT ISZERO PUSH2 0x796 JUMPI PUSH1 0x0 DUP1 REVERT JUMPDEST PUSH1 0x0 JUMPDEST DUP5 DUP2 LT ISZERO PUSH2 0x74C JUMPI DUP2 CALLDATALOAD DUP5 MSTORE SWAP3 DUP3 ADD SWAP3 SWAP1 DUP3 ADD SWAP1 PUSH1 0x1 ADD PUSH2 0x799 JUMP JUMPDEST DUP1 CALLDATALOAD DUP1 ISZERO ISZERO DUP2 EQ PUSH2 0x6DA JUMPI PUSH1 0x0 DUP1 REVERT JUMPDEST PUSH1 0x0 DUP3 PUSH1 0x1F DUP4 ADD SLT PUSH2 0x7D5 JUMPI DUP1 DUP2 REVERT JUMPDEST DUP2 CALLDATALOAD PUSH8 0xFFFFFFFFFFFFFFFF DUP2 GT ISZERO PUSH2 0x7EB JUMPI DUP2 DUP3 REVERT JUMPDEST PUSH2 0x7FE PUSH1 0x1F DUP3 ADD PUSH1 0x1F NOT AND PUSH1 0x20 ADD PUSH2 0xAE9 JUMP JUMPDEST SWAP2 POP DUP1 DUP3 MSTORE DUP4 PUSH1 0x20 DUP3 DUP6 ADD ADD GT ISZERO PUSH2 0x815 JUMPI PUSH1 0x0 DUP1 REVERT JUMPDEST DUP1 PUSH1 0x20 DUP5 ADD PUSH1 0x20 DUP5 ADD CALLDATACOPY PUSH1 0x0 SWAP1 DUP3 ADD PUSH1 0x20 ADD MSTORE SWAP3 SWAP2 POP POP JUMP JUMPDEST PUSH1 0x0 PUSH1 0x20 DUP3 DUP5 SUB SLT ISZERO PUSH2 0x83F JUMPI DUP1 DUP2 REVERT JUMPDEST DUP2 CALLDATALOAD PUSH2 0x5C7 DUP2 PUSH2 0xB30 JUMP JUMPDEST PUSH1 0x0 DUP1 PUSH1 0x0 DUP1 PUSH1 0x0 DUP1 PUSH1 0x0 PUSH1 0xE0 DUP9 DUP11 SUB SLT ISZERO PUSH2 0x864 JUMPI DUP3 DUP4 REVERT JUMPDEST DUP8 CALLDATALOAD PUSH8 0xFFFFFFFFFFFFFFFF DUP1 DUP3 GT ISZERO PUSH2 0x87B JUMPI DUP5 DUP6 REVERT JUMPDEST PUSH2 0x887 DUP12 DUP4 DUP13 ADD PUSH2 0x7C5 JUMP JUMPDEST SWAP9 POP PUSH1 0x20 DUP11 ADD CALLDATALOAD SWAP2 POP DUP1 DUP3 GT ISZERO PUSH2 0x89C JUMPI DUP5 DUP6 REVERT JUMPDEST PUSH2 0x8A8 DUP12 DUP4 DUP13 ADD PUSH2 0x7C5 JUMP JUMPDEST SWAP8 POP PUSH1 0x40 DUP11 ADD CALLDATALOAD SWAP2 POP DUP1 DUP3 GT ISZERO PUSH2 0x8BD JUMPI DUP5 DUP6 REVERT JUMPDEST PUSH2 0x8C9 DUP12 DUP4 DUP13 ADD PUSH2 0x6E0 JUMP JUMPDEST SWAP7 POP PUSH1 0x60 DUP11 ADD CALLDATALOAD SWAP2 POP DUP1 DUP3 GT ISZERO PUSH2 0x8DE JUMPI DUP5 DUP6 REVERT JUMPDEST POP PUSH2 0x8EB DUP11 DUP3 DUP12 ADD PUSH2 0x757 JUMP JUMPDEST SWAP5 POP POP PUSH1 0x80 DUP9 ADD CALLDATALOAD SWAP3 POP PUSH2 0x902 DUP10 PUSH1 0xA0 DUP11 ADD PUSH2 0x7B5 JUMP JUMPDEST SWAP2 POP PUSH2 0x911 DUP10 PUSH1 0xC0 DUP11 ADD PUSH2 0x6CF JUMP JUMPDEST SWAP1 POP SWAP3 SWAP6 SWAP9 SWAP2 SWAP5 SWAP8 POP SWAP3 SWAP6 POP JUMP JUMPDEST PUSH1 0x1 PUSH1 0x1 PUSH1 0xA0 SHL SUB AND SWAP1 MSTORE JUMP JUMPDEST ISZERO ISZERO SWAP1 MSTORE JUMP JUMPDEST PUSH1 0x0 DUP2 MLOAD DUP1 DUP5 MSTORE DUP2 JUMPDEST DUP2 DUP2 LT ISZERO PUSH2 0x957 JUMPI PUSH1 0x20 DUP2 DUP6 ADD DUP2 ADD MLOAD DUP7 DUP4 ADD DUP3 ADD MSTORE ADD PUSH2 0x93B JUMP JUMPDEST DUP2 DUP2 GT ISZERO PUSH2 0x968 JUMPI DUP3 PUSH1 0x20 DUP4 DUP8 ADD ADD MSTORE JUMPDEST POP PUSH1 0x1F ADD PUSH1 0x1F NOT AND SWAP3 SWAP1 SWAP3 ADD PUSH1 0x20 ADD SWAP3 SWAP2 POP POP JUMP JUMPDEST PUSH1 0x1 PUSH1 0x1 PUSH1 0xA0 SHL SUB SWAP2 SWAP1 SWAP2 AND DUP2 MSTORE PUSH1 0x20 ADD SWAP1 JUMP JUMPDEST PUSH1 0x1 PUSH1 0x1 PUSH1 0xA0 SHL SUB SWAP3 DUP4 AND DUP2 MSTORE SWAP2 AND PUSH1 0x20 DUP3 ADD MSTORE PUSH1 0x40 ADD SWAP1 JUMP JUMPDEST SWAP1 ISZERO ISZERO DUP2 MSTORE PUSH1 0x20 ADD SWAP1 JUMP JUMPDEST PUSH1 0x0 PUSH1 0x20 DUP3 MSTORE PUSH2 0x5C7 PUSH1 0x20 DUP4 ADD DUP5 PUSH2 0x932 JUMP JUMPDEST PUSH1 0x0 PUSH1 0x40 DUP3 MSTORE DUP4 MLOAD PUSH1 0x60 PUSH1 0x40 DUP5 ADD MSTORE PUSH2 0x9E6 PUSH1 0xA0 DUP5 ADD DUP3 MLOAD PUSH2 0x91F JUMP JUMPDEST PUSH1 0x20 DUP2 ADD MLOAD PUSH2 0x180 DUP1 PUSH1 0xC0 DUP7 ADD MSTORE PUSH2 0xA02 PUSH2 0x220 DUP7 ADD DUP4 PUSH2 0x932 JUMP JUMPDEST SWAP2 POP PUSH1 0x40 DUP4 ADD MLOAD PUSH1 0x9F NOT DUP7 DUP5 SUB ADD PUSH1 0xE0 DUP8 ADD MSTORE PUSH2 0xA1F DUP4 DUP3 PUSH2 0x932 JUMP JUMPDEST SWAP3 POP POP PUSH1 0x60 DUP4 ADD MLOAD PUSH2 0x100 PUSH2 0xA36 DUP2 DUP9 ADD DUP4 PUSH2 0x91F JUMP JUMPDEST PUSH1 0x80 DUP6 ADD MLOAD SWAP2 POP PUSH2 0x120 PUSH2 0xA4C DUP2 DUP10 ADD DUP5 PUSH2 0x91F JUMP JUMPDEST PUSH1 0xA0 DUP7 ADD MLOAD SWAP3 POP PUSH2 0x140 DUP4 DUP2 DUP11 ADD MSTORE PUSH1 0xC0 DUP8 ADD MLOAD SWAP4 POP PUSH2 0x160 DUP5 DUP2 DUP12 ADD MSTORE PUSH1 0xE0 DUP9 ADD MLOAD DUP7 DUP12 ADD MSTORE DUP4 DUP9 ADD MLOAD PUSH2 0x1A0 DUP12 ADD MSTORE DUP3 DUP9 ADD MLOAD PUSH2 0x1C0 DUP12 ADD MSTORE DUP2 DUP9 ADD MLOAD SWAP6 POP PUSH2 0xA9B PUSH2 0x1E0 DUP12 ADD DUP8 PUSH2 0x92C JUMP JUMPDEST DUP1 DUP9 ADD MLOAD SWAP8 POP POP POP POP POP POP POP PUSH2 0xAB5 PUSH2 0x200 DUP6 ADD DUP4 PUSH2 0x91F JUMP JUMPDEST PUSH1 0x20 DUP7 ADD MLOAD PUSH1 0x60 DUP6 ADD MSTORE PUSH1 0x40 DUP7 ADD MLOAD PUSH1 0x80 DUP6 ADD MSTORE DUP1 SWAP3 POP POP POP PUSH2 0x5C7 PUSH1 0x20 DUP4 ADD DUP5 PUSH2 0x91F JUMP JUMPDEST SWAP2 DUP3 MSTORE PUSH1 0x20 DUP3 ADD MSTORE PUSH1 0x40 ADD SWAP1 JUMP JUMPDEST PUSH1 0x40 MLOAD DUP2 DUP2 ADD PUSH8 0xFFFFFFFFFFFFFFFF DUP2 GT DUP3 DUP3 LT OR ISZERO PUSH2 0xB08 JUMPI PUSH1 0x0 DUP1 REVERT JUMPDEST PUSH1 0x40 MSTORE SWAP2 SWAP1 POP JUMP JUMPDEST PUSH1 0x0 PUSH8 0xFFFFFFFFFFFFFFFF DUP3 GT ISZERO PUSH2 0xB26 JUMPI DUP1 DUP2 REVERT JUMPDEST POP PUSH1 0x20 SWAP1 DUP2 MUL ADD SWAP1 JUMP JUMPDEST PUSH1 0x1 PUSH1 0x1 PUSH1 0xA0 SHL SUB DUP2 AND DUP2 EQ PUSH2 0xB45 JUMPI PUSH1 0x0 DUP1 REVERT JUMPDEST POP JUMP INVALID LOG2 PUSH5 0x6970667358 0x22 SLT KECCAK256 0x26 SWAP9 0xC7 0xD5 0xCA 0xC9 PUSH26 0x48B58DA5B8F7CC7C2FFAFFE5D827C902A0B995AC1CC7D1417564 PUSH20 0x6F6C634300070100330000000000000000000000 ","sha1":"67f0f4146491ba633b45b81d404aea667ae32257","source":"// SPDX-License-Identifier: GPL-3.0-or-later\n// This program is free software: you can redistribute it and/or modify\n// it under the terms of the GNU General Public License as published by\n// the Free Software Foundation, either version 3 of the License, or\n// (at your option) any later version.\n\n// This program is distributed in the hope that it will be useful,\n// but WITHOUT ANY WARRANTY; without even the implied warranty of\n// MERCHANTABILITY or FITNESS FOR A PARTICULAR PURPOSE.  See the\n// GNU General Public License for more details.\n\n// You should have received a copy of the GNU General Public License\n// along with this program.  If not, see <http://www.gnu.org/licenses/>.\n\npragma solidity ^0.7.0;\npragma experimental ABIEncoderV2;\n\nimport \"@balancer-labs/v2-vault/contracts/interfaces/IVault.sol\";\n\nimport \"@balancer-labs/v2-pool-utils/contracts/factories/BasePoolSplitCodeFactory.sol\";\nimport \"@balancer-labs/v2-pool-utils/contracts/factories/FactoryWidePauseWindow.sol\";\n\nimport \"./GyroTwoPool.sol\";\n\ncontract GyroTwoPoolFactory is BasePoolSplitCodeFactory, FactoryWidePauseWindow {\n    address public immutable gyroConfigAddress;\n\n    constructor(IVault vault, address _gyroConfigAddress) BasePoolSplitCodeFactory(vault, type(GyroTwoPool).creationCode) {\n        gyroConfigAddress = _gyroConfigAddress;\n    }\n\n    /**\n     * @dev Deploys a new `GyroTwoPool`.\n     */\n    function create(\n        string memory name,\n        string memory symbol,\n        IERC20[] memory tokens,\n        uint256[] memory sqrts,\n        uint256 swapFeePercentage,\n        bool oracleEnabled,\n        address owner\n    ) external returns (address) {\n        (uint256 pauseWindowDuration, uint256 bufferPeriodDuration) = getPauseConfiguration();\n\n        GyroTwoPool.GyroParams memory params = GyroTwoPool.GyroParams({\n            baseParams: ExtensibleWeightedPool2Tokens.NewPoolParams({\n                vault: getVault(),\n                name: name,\n                symbol: symbol,\n                token0: tokens[0],\n                token1: tokens[1],\n                normalizedWeight0: 0.5e18,\n                normalizedWeight1: 0.5e18,\n                swapFeePercentage: swapFeePercentage,\n                pauseWindowDuration: pauseWindowDuration,\n                bufferPeriodDuration: bufferPeriodDuration,\n                oracleEnabled: oracleEnabled,\n                owner: owner\n            }),\n            sqrtAlpha: sqrts[0],\n            sqrtBeta: sqrts[1]\n        });\n\n        return _create(abi.encode(params, gyroConfigAddress));\n    }\n}\n","sourcePath":"contracts/cpmmv-2/GyroTwoPoolFactory.sol","deployment":{"address":"0xBfa5d9669d6C3d5156bEFb9E101F33B015199c35","chainid":"137","blockHeight":26857111}}