{"abi":[{"inputs":[{"internalType":"contract IVault","name":"vault","type":"address"},{"internalType":"address","name":"_gyroConfigAddress","type":"address"}],"stateMutability":"nonpayable","type":"constructor","name":"constructor"},{"anonymous":false,"inputs":[{"indexed":true,"internalType":"address","name":"pool","type":"address"}],"name":"PoolCreated","type":"event"},{"inputs":[{"internalType":"string","name":"name","type":"string"},{"internalType":"string","name":"symbol","type":"string"},{"internalType":"contract IERC20[]","name":"tokens","type":"address[]"},{"internalType":"uint256","name":"root3Alpha","type":"uint256"},{"internalType":"uint256","name":"swapFeePercentage","type":"uint256"},{"internalType":"address","name":"owner","type":"address"}],"name":"create","outputs":[{"internalType":"address","name":"","type":"address"}],"stateMutability":"nonpayable","type":"function"},{"inputs":[],"name":"getCreationCode","outputs":[{"internalType":"bytes","name":"","type":"bytes"}],"stateMutability":"view","type":"function"},{"inputs":[],"name":"getCreationCodeContracts","outputs":[{"internalType":"address","name":"contractA","type":"address"},{"internalType":"address","name":"contractB","type":"address"}],"stateMutability":"view","type":"function"},{"inputs":[],"name":"getPauseConfiguration","outputs":[{"internalType":"uint256","name":"pauseWindowDuration","type":"uint256"},{"internalType":"uint256","name":"bufferPeriodDuration","type":"uint256"}],"stateMutability":"view","type":"function"},{"inputs":[],"name":"getVault","outputs":[{"internalType":"contract IVault","name":"","type":"address"}],"stateMutability":"view","type":"function"},{"inputs":[],"name":"gyroConfigAddress","outputs":[{"internalType":"address","name":"","type":"address"}],"stateMutability":"view","type":"function"},{"inputs":[{"internalType":"address","name":"pool","type":"address"}],"name":"isPoolFromFactory","outputs":[{"internalType":"bool","name":"","type":"bool"}],"stateMutability":"view","type":"function"}],"bytecode":"6101606040523480156200001257600080fd5b50604051620053fd380380620053fd8339810160408190526200003591620001cc565b81604051806020016200004890620001be565b601f1982820381018352601f909101166040528051819060006002820460a081905280830360e081905281855290915083620000908162000102602090811b620002cf17901c565b60601b6001600160601b0319166080528285018051838252620000bf8262000102602090811b620002cf17901c565b6001600160601b0319606091821b811660c05296909352905295861b8316610100525050426276a70001610120529390921b909216610140525062000223915050565b80517f602038038060206000396000f3fefefefefefefefefefefefefefefefefefefe808352600091602081018484f09084529150620001506001600160a01b03831615156101ac62000156565b50919050565b81620001675762000167816200016b565b5050565b62461bcd60e51b6000908152602060045260076024526642414c23000030600a808404818106603090810160081b95839006959095019082900491820690940160101b939093010160c81b604452606490fd5b6148918062000b6c83390190565b60008060408385031215620001df578182fd5b8251620001ec816200020a565b6020840151909250620001ff816200020a565b809150509250929050565b6001600160a01b03811681146200022057600080fd5b50565b60805160601c60a05160c05160601c60e0516101005160601c610120516101405160601c6108d5620002976000398061013c52806102525250806101aa52806101d35250806102ad52508061032952508061018152806103a552508061034a525080610160528061038152506108d56000f3fe608060405234801561001057600080fd5b506004361061007c5760003560e01c80632da47c401161005b5780632da47c40146100ca5780636634b753146100e05780637932c7f3146101005780638d928af8146101135761007c565b8062c194db146100815780630bc7b4c41461009f578063174481fa146100b4575b600080fd5b61008961011b565b6040516100969190610771565b60405180910390f35b6100a761013a565b6040516100969190610738565b6100bc61015e565b60405161009692919061074c565b6100d26101a4565b604051610096929190610846565b6100f36100ee3660046105b2565b61020e565b6040516100969190610766565b6100a761010e3660046105ce565b61022c565b6100a76102ab565b606061013560405180602001604052806000815250610321565b905090565b7f000000000000000000000000000000000000000000000000000000000000000081565b7f00000000000000000000000000000000000000000000000000000000000000007f00000000000000000000000000000000000000000000000000000000000000009091565b600080427f000000000000000000000000000000000000000000000000000000000000000081101561020057807f000000000000000000000000000000000000000000000000000000000000000003925062278d009150610209565b60009250600091505b509091565b6001600160a01b031660009081526020819052604090205460ff1690565b60008060006102396101a4565b9150915061029e6102486102ab565b8a8a8a8a8a88888c7f000000000000000000000000000000000000000000000000000000000000000060405160200161028a9a99989796959493929190610784565b6040516020818303038152906040526103fa565b9998505050505050505050565b7f000000000000000000000000000000000000000000000000000000000000000090565b80517f602038038060206000396000f3fefefefefefefefefefefefefefefefefefefe808352600091602081018484f0908452915061031b6001600160a01b03831615156101ac61045a565b50919050565b8051604080517f00000000000000000000000000000000000000000000000000000000000000007f0000000000000000000000000000000000000000000000000000000000000000818101858101848101602090810190965280855293957f00000000000000000000000000000000000000000000000000000000000000009592947f000000000000000000000000000000000000000000000000000000000000000094938801866000828a3c846000888301883c50602089810190898501016103ec81838661046c565b505050505050505050919050565b600080610406836104aa565b6001600160a01b038116600081815260208190526040808220805460ff191660011790555192935090917f83a48fbcfc991335314e74d0496aab6a1987e992ddc85dddbcc4d6dd6ef2e9fc9190a292915050565b8161046857610468816104e5565b5050565b5b6020811061048c578151835260209283019290910190601f190161046d565b905182516020929092036101000a6000190180199091169116179052565b600060606104b783610321565b905060008151602083016000f090506001600160a01b0381166104de573d6000803e3d6000fd5b9392505050565b62461bcd60e51b6000908152602060045260076024526642414c23000030600a808404818106603090810160081b95839006959095019082900491820690940160101b939093010160c81b604452606490fd5b803561054381610887565b92915050565b600082601f830112610559578081fd5b813567ffffffffffffffff81111561056f578182fd5b610582601f8201601f1916602001610854565b915080825283602082850101111561059957600080fd5b8060208401602084013760009082016020015292915050565b6000602082840312156105c3578081fd5b81356104de81610887565b60008060008060008060c087890312156105e6578182fd5b863567ffffffffffffffff808211156105fd578384fd5b6106098a838b01610549565b975060209150818901358181111561061f578485fd5b61062b8b828c01610549565b97505060408901358181111561063f578485fd5b8901601f81018b1361064f578485fd5b80358281111561065d578586fd5b838102925061066d848401610854565b8181528481019083860185850187018f1015610687578889fd5b8895505b838610156106b15761069d8f82610538565b83526001959095019491860191860161068b565b509850505050606089013594505050608087013591506106d48860a08901610538565b90509295509295509295565b6001600160a01b03169052565b60008151808452815b81811015610712576020818501810151868301820152016106f6565b818111156107235782602083870101525b50601f01601f19169290920160200192915050565b6001600160a01b0391909116815260200190565b6001600160a01b0392831681529116602082015260400190565b901515815260200190565b6000602082526104de60208301846106ed565b6001600160a01b038b1681526101406020808301829052600091906107ab8483018e6106ed565b915083820360408501526107bf828d6106ed565b84810360608601528b51808252828d01935090820190845b818110156107fb576107e9855161087b565b835293830193918301916001016107d7565b50508093505050508760808301528660a08301528560c08301528460e08301526108296101008301856106e0565b6108376101208301846106e0565b9b9a5050505050505050505050565b918252602082015260400190565b60405181810167ffffffffffffffff8111828210171561087357600080fd5b604052919050565b6001600160a01b031690565b6001600160a01b038116811461089c57600080fd5b5056fea26469706673582212208616452c115aa84ed592c2d63c85740d9cd1dde611aa31cad027ee3b98a9a7ef64736f6c634300070100336102a06040527f6e71edae12b1b97f4d1f60370fef10105fa2faae0126114a169c64845d6126c9610120523480156200003757600080fd5b5060405162004891380380620048918339810160408190526200005a91620008ef565b604080516003808252608082019092528b918b918b918b9190602082016060803683370190505089898989888651600214620000985760016200009b565b60025b8989898989898989828289898d8280604051806040016040528060018152602001603160f81b81525085858a336001600160a01b031660001b806080818152505050806001600160a01b031660a0816001600160a01b031660601b81525050508160039080519060200190620001139291906200070d565b508051620001299060049060208401906200070d565b505060058054601260ff1990911617905550815160209283012060c052805191012060e052507f8b73c3c69bb8fe3d512ecc4cf759cc79239f7b179b0ffacaa9a75d522b39400f6101005260601b6001600160601b03191661014052506200019c90506276a70083111561019462000475565b620001b062278d0082111561019562000475565b4290910161016081905201610180528551620001d2906002111560c862000475565b620001ec620001e06200048a565b8751111560c962000475565b62000202866200048f60201b62000dd01760201c565b6200020d846200049b565b6040516309b2760f60e01b81526000906001600160a01b038c16906309b2760f906200023e908d9060040162000aa7565b602060405180830381600087803b1580156200025957600080fd5b505af11580156200026e573d6000803e3d6000fd5b505050506040513d601f19601f82011682018060405250810190620002949190620008d6565b604051633354e3e960e11b81529091506001600160a01b038c16906366a9c7d290620002c99084908b908b9060040162000a0b565b600060405180830381600087803b158015620002e457600080fd5b505af1158015620002f9573d6000803e3d6000fd5b50505050806101a0818152505050505050505050505050505050505050505050506200033287516003146101616200047560201b60201c565b866000815181106200034057fe5b60200260200101516001600160a01b03166101e0816001600160a01b031660601b81525050866001815181106200037357fe5b60200260200101516001600160a01b0316610200816001600160a01b031660601b8152505086600281518110620003a657fe5b60200260200101516001600160a01b0316610220816001600160a01b031660601b81525050620003f187600081518110620003dd57fe5b60200260200101516200052760201b60201c565b6102405286516200040a9088906001908110620003dd57fe5b610260528651620004239088906002908110620003dd57fe5b610280526200043f670de0b6b3a7640000871061015f62000475565b6101c0959095525050600a80546001600160a01b0319166001600160a01b03909416939093179092555062000b0e945050505050565b8162000486576200048681620005fb565b5050565b600390565b8062000486816200064e565b620004b064e8d4a5100082101560cb62000475565b620004c867016345785d8a000082111560ca62000475565b620004e78160c0600854620006db60201b62000dda179092919060201c565b6008556040517fa9ba3ffe0b6c366b81232caab38605a0699ad5398d6cce76f91ee809e322dafc906200051c90839062000abc565b60405180910390a150565b60006001600160a01b0382163014156200054b5750670de0b6b3a7640000620005f6565b6000826001600160a01b031663313ce5676040518163ffffffff1660e01b815260040160206040518083038186803b1580156200058757600080fd5b505afa1580156200059c573d6000803e3d6000fd5b505050506040513d601f19601f82011682018060405250810190620005c29190620009e1565b60ff1690506000620005e1601283620006f060201b62000def1760201c565b905080600a0a670de0b6b3a764000002925050505b919050565b62461bcd60e51b6000908152602060045260076024526642414c23000030600a808404818106603090810160081b95839006959095019082900491820690940160101b939093010160c81b604452606490fd5b6002815110156200065f57620006d8565b6000816000815181106200066f57fe5b602002602001015190506000600190505b8251811015620006d55760008382815181106200069957fe5b60200260200101519050620006ca816001600160a01b0316846001600160a01b03161060656200047560201b60201c565b915060010162000680565b50505b50565b6001600160401b03811b1992909216911b1790565b60006200070283831115600162000475565b508082035b92915050565b828054600181600116156101000203166002900490600052602060002090601f016020900481019282601f106200075057805160ff191683800117855562000780565b8280016001018555821562000780579182015b828111156200078057825182559160200191906001019062000763565b506200078e92915062000792565b5090565b5b808211156200078e576000815560010162000793565b8051620007078162000af8565b600082601f830112620007c7578081fd5b81516001600160401b03811115620007dd578182fd5b6020808202620007ef82820162000ac5565b838152935081840185830182870184018810156200080c57600080fd5b600092505b848310156200083c578051620008278162000af8565b82526001929092019190830190830162000811565b505050505092915050565b600082601f83011262000858578081fd5b81516001600160401b038111156200086e578182fd5b602062000884601f8301601f1916820162000ac5565b925081835284818386010111156200089b57600080fd5b60005b82811015620008bb5784810182015184820183015281016200089e565b82811115620008cd5760008284860101525b50505092915050565b600060208284031215620008e8578081fd5b5051919050565b6000806000806000806000806000806101408b8d0312156200090f578586fd5b6200091b8c8c620007a9565b60208c0151909a506001600160401b038082111562000938578788fd5b620009468e838f0162000847565b9a5060408d01519150808211156200095c578788fd5b6200096a8e838f0162000847565b995060608d015191508082111562000980578788fd5b506200098f8d828e01620007b6565b97505060808b0151955060a08b0151945060c08b0151935060e08b01519250620009be8c6101008d01620007a9565b9150620009d08c6101208d01620007a9565b90509295989b9194979a5092959850565b600060208284031215620009f3578081fd5b815160ff8116811462000a04578182fd5b9392505050565b60006060820185835260206060818501528186518084526080860191508288019350845b8181101562000a575762000a44855162000aec565b8352938301939183019160010162000a2f565b505084810360408601528551808252908201925081860190845b8181101562000a995762000a86835162000aec565b8552938301939183019160010162000a71565b509298975050505050505050565b602081016003831062000ab657fe5b91905290565b90815260200190565b6040518181016001600160401b038111828210171562000ae457600080fd5b604052919050565b6001600160a01b031690565b6001600160a01b0381168114620006d857600080fd5b60805160a05160601c60c05160e05161010051610120516101405160601c61016051610180516101a0516101c0516101e05160601c6102005160601c6102205160601c610240516102605161028051613c9462000bfd6000398061104752806118d752508061100d5280611876525080610fd3528061181552508061189c52508061183b5250806117da525080610d6752806113c652806116e15280611af75280611b9a52806121f152508061062e525080610f5c525080610f385250806108a6525080610b215250806111765250806111b852508061119752508061088252508061080c5250613c946000f3fe608060405234801561001057600080fd5b506004361061021c5760003560e01c806374f3b00911610125578063a457c2d7116100ad578063d505accf1161007c578063d505accf14610442578063d5c096c414610455578063d60ca60314610468578063dd62ed3e14610470578063f89f27ed146104835761021c565b8063a457c2d71461040c578063a9059cbb1461041f578063aaabadc514610432578063c0ff1a151461043a5761021c565b8063893d20e8116100f4578063893d20e8146103d95780638d928af8146103e157806395d89b41146103e95780639b02cdde146103f15780639d2c110c146103f95761021c565b806374f3b0091461037f5780637ecebe00146103a0578063851c1bb3146103b357806387ec6817146103c65761021c565b806338e9922e116101a857806350dd6ed91161017757806350dd6ed91461032857806355c676281461033b5780636028bfd414610343578063679aefce1461036457806370a082311461036c5761021c565b806338e9922e146102e557806338fff2d0146102f8578063395093511461030057806344bbdb55146103135761021c565b80631c0de051116101ef5780631c0de051146102895780631dd746ea146102a057806323b872dd146102b5578063313ce567146102c85780633644e515146102dd5761021c565b806306fdde0314610221578063095ea7b31461023f57806316c38b3c1461025f57806318160ddd14610274575b600080fd5b61022961048b565b6040516102369190613b89565b60405180910390f35b61025261024d3660046134e5565b610521565b6040516102369190613a90565b61027261026d3660046135db565b610538565b005b61027c61054c565b6040516102369190613ab3565b610291610552565b60405161023693929190613a9b565b6102a861057b565b6040516102369190613a58565b6102526102c3366004613430565b61058a565b6102d0610600565b6040516102369190613bdb565b61027c610609565b6102726102f336600461390c565b610613565b61027c61062c565b61025261030e3660046134e5565b610650565b61031b61068b565b6040516102369190613a44565b610272610336366004613737565b61069a565b61027c6106b8565b610356610351366004613613565b6106c9565b604051610236929190613bc2565b61027c610700565b61027c61037a3660046133c0565b61072b565b61039261038d366004613613565b61074a565b604051610236929190613a6b565b61027c6103ae3660046133c0565b6107ed565b61027c6103c136600461370f565b610808565b6103566103d4366004613613565b61085a565b61031b610880565b61031b6108a4565b6102296108c8565b61027c610929565b61027c610407366004613811565b61092f565b61025261041a3660046134e5565b610a8d565b61025261042d3660046134e5565b610acb565b61031b610ad8565b61027c610ae2565b610272610450366004613470565b610aec565b610392610463366004613613565b610c35565b61027c610d65565b61027c61047e3660046133f8565b610d89565b6102a8610dc6565b60038054604080516020601f60026000196101006001881615020190951694909404938401819004810282018101909252828152606093909290918301828280156105175780601f106104ec57610100808354040283529160200191610517565b820191906000526020600020905b8154815290600101906020018083116104fa57829003601f168201915b5050505050905090565b600061052e338484610e05565b5060015b92915050565b610540610e6d565b61054981610e9b565b50565b60025490565b600080600061055f610f19565b15925061056a610f36565b9150610574610f5a565b9050909192565b6060610585610f7e565b905090565b6000806105978533610d89565b90506105bb336001600160a01b03871614806105b35750838210155b61019e611084565b6105c6858585611092565b336001600160a01b038616148015906105e157506000198114155b156105f3576105f38533858403610e05565b60019150505b9392505050565b60055460ff1690565b6000610585611172565b61061b610e6d565b61062361120f565b61054981611224565b7f000000000000000000000000000000000000000000000000000000000000000090565b3360008181526001602090815260408083206001600160a01b0387168452909152812054909161052e918590610686908661128f565b610e05565b600a546001600160a01b031681565b6106a2610e6d565b6106aa61120f565b6106b482826112a1565b5050565b6008546000906105859060c06113a0565b600060606106df86516106da6113ad565b6113b2565b6106f4898989898989896113bf6114836114e9565b97509795505050505050565b600061058561070d61054c565b610725610718610ae2565b6107206113ad565b61160c565b90611630565b6001600160a01b0381166000908152602081905260409020545b919050565b606080886107746107596108a4565b6001600160a01b0316336001600160a01b03161460cd611084565b61078961077f61062c565b82146101f4611084565b6060610793610f7e565b905061079f888261166f565b60006060806107b48e8e8e8e8e8e8a8f6113bf565b9250925092506107c48d846116d0565b6107ce8285611483565b6107d88185611483565b909550935050505b5097509795505050505050565b6001600160a01b031660009081526006602052604090205490565b60007f00000000000000000000000000000000000000000000000000000000000000008260405160200161083d929190613a01565b604051602081830303815290604052805190602001209050919050565b6000606061086b86516106da6113ad565b6106f4898989898989896116da6117756114e9565b7f000000000000000000000000000000000000000000000000000000000000000090565b7f000000000000000000000000000000000000000000000000000000000000000090565b60048054604080516020601f60026000196101006001881615020190951694909404938401819004810282018101909252828152606093909290918301828280156105175780601f106104ec57610100808354040283529160200191610517565b60095490565b600083608001516109416107596108a4565b61094c61077f61062c565b600061095b86602001516117d6565b9050600061096c87604001516117d6565b905060008751600181111561097d57fe5b1415610a0d5760006109928860600151611906565b905060008189606001510390506109b689602001516109b18387611927565b611933565b606089018290526109c78885611927565b97506109d38784611927565b96506109e3896060015185611927565b60608a015260006109f58a8a8a611945565b9050610a018185611970565b96505050505050610a85565b610a178683611927565b9550610a238582611927565b9450610a33876060015182611927565b60608801526000610a4588888861197c565b9050610a51818461199e565b90506000610a5e826119aa565b905060008282039050610a798a602001516109b18388611927565b509450610a8592505050565b509392505050565b600080610a9a3385610d89565b9050808310610ab457610aaf33856000610e05565b610ac1565b610ac13385858403610e05565b5060019392505050565b600061052e338484611092565b60006105856119d0565b6000610585611a4a565b610afa8442111560d1611084565b6001600160a01b0387166000908152600660209081526040808320549051909291610b51917f0000000000000000000000000000000000000000000000000000000000000000918c918c918c9188918d9101613adb565b6040516020818303038152906040528051906020012090506000610b7482611b21565b9050600060018288888860405160008152602001604052604051610b9b9493929190613b6b565b6020604051602081039080840390855afa158015610bbd573d6000803e3d6000fd5b5050604051601f1901519150610bff90506001600160a01b03821615801590610bf757508b6001600160a01b0316826001600160a01b0316145b6101f8611084565b6001600160a01b038b166000908152600660205260409020600185019055610c288b8b8b610e05565b5050505050505050505050565b60608088610c446107596108a4565b610c4f61077f61062c565b6060610c59610f7e565b9050610c6361054c565b610d155760006060610c788d8d8d868b611b3d565b91509150610c91610c87611be4565b83101560cc611084565b610ca36000610c9e611be4565b611beb565b610cb68b610caf611be4565b8403611beb565b610cc08184611775565b80610cc96113ad565b6001600160401b0381118015610cde57600080fd5b50604051908082528060200260200182016040528015610d08578160200160208202803683370190505b50955095505050506107e0565b610d1f888261166f565b6000606080610d348e8e8e8e8e8e8a8f6116da565b925092509250610d448c84611beb565b610d4e8285611775565b610d588185611483565b90955093506107e0915050565b7f000000000000000000000000000000000000000000000000000000000000000090565b6000610d936108a4565b6001600160a01b0316826001600160a01b03161415610db55750600019610532565b610dbf8383611bf5565b9050610532565b6060610585611c20565b806106b481611cb6565b6001600160401b03811b1992909216911b1790565b6000610dff838311156001611084565b50900390565b6001600160a01b0380841660008181526001602090815260408083209487168084529490915290819020849055517f8c5be1e5ebec7d5bd14f71427d1e84f3dd0314c0f7b2291e5b200ac8c7c3b92590610e60908590613ab3565b60405180910390a3505050565b6000610e846000356001600160e01b031916610808565b9050610549610e938233611d2f565b610191611084565b8015610ebb57610eb6610eac610f36565b4210610193611084565b610ed0565b610ed0610ec6610f5a565b42106101a9611084565b6007805460ff19168215151790556040517f9e3a5e37224532dea67b89face185703738a228a6e8a23dee546960180d3be6490610f0e908390613a90565b60405180910390a150565b6000610f23610f5a565b42118061058557505060075460ff161590565b7f000000000000000000000000000000000000000000000000000000000000000090565b7f000000000000000000000000000000000000000000000000000000000000000090565b60606000610f8a6113ad565b90506060816001600160401b0381118015610fa457600080fd5b50604051908082528060200260200182016040528015610fce578160200160208202803683370190505b5090507f000000000000000000000000000000000000000000000000000000000000000081600081518110610fff57fe5b6020026020010181815250507f00000000000000000000000000000000000000000000000000000000000000008160018151811061103957fe5b6020026020010181815250507f00000000000000000000000000000000000000000000000000000000000000008160028151811061107357fe5b602090810291909101015291505090565b816106b4576106b481611e18565b6110a96001600160a01b0384161515610198611084565b6110c06001600160a01b0383161515610199611084565b6110cb8383836114e4565b6001600160a01b0383166000908152602081905260409020546110f190826101a0611e6b565b6001600160a01b038085166000908152602081905260408082209390935590841681522054611120908261128f565b6001600160a01b0380841660008181526020819052604090819020939093559151908516907fddf252ad1be2c89b69c2b068fc378daa952ba7f163c4a11628f55a4df523b3ef90610e60908590613ab3565b60007f00000000000000000000000000000000000000000000000000000000000000007f00000000000000000000000000000000000000000000000000000000000000007f00000000000000000000000000000000000000000000000000000000000000006111df611e81565b306040516020016111f4959493929190613b0f565b60405160208183030381529060405280519060200120905090565b61122261121a610f19565b610192611084565b565b61123764e8d4a5100082101560cb611084565b61124d67016345785d8a000082111560ca611084565b60085461125c908260c0610dda565b6008556040517fa9ba3ffe0b6c366b81232caab38605a0699ad5398d6cce76f91ee809e322dafc90610f0e908390613ab3565b60008282016105f98482101583611084565b60006112ab61062c565b905060006112b76108a4565b6001600160a01b031663b05f8e4883866040518363ffffffff1660e01b81526004016112e4929190613b54565b60806040518083038186803b1580156112fc57600080fd5b505afa158015611310573d6000803e3d6000fd5b505050506040513d601f19601f82011682018060405250810190611334919061393c565b604051630639cdb560e21b81529094506001600160a01b03851693506318e736d49250611368915085908790600401613b3b565b600060405180830381600087803b15801561138257600080fd5b505af1158015611396573d6000803e3d6000fd5b5050505050505050565b1c6001600160401b031690565b600390565b6106b48183146067611084565b60006060807f00000000000000000000000000000000000000000000000000000000000000006113ed610f19565b156114355760006113fe8a83611e85565b905061140981611eb7565b6114138a87611ee4565b909550935061142c818661142561054c565b6000611f31565b6009555061144b565b61143f8986611ee4565b60001960095590945092505b604080516003808252608082019092528591859190602082016060803683370190505093509350935050985098509895505050505050565b60005b61148e6113ad565b8110156114e4576114c58382815181106114a457fe5b60200260200101518383815181106114b857fe5b6020026020010151611630565b8382815181106114d157fe5b6020908102919091010152600101611486565b505050565b3330146115a7576000306001600160a01b031660003660405161150d929190613a19565b6000604051808303816000865af19150503d806000811461154a576040519150601f19603f3d011682016040523d82523d6000602084013e61154f565b606091505b50509050806000811461155e57fe5b60046000803e6000516001600160e01b0319166343adbafb60e01b8114611589573d6000803e3d6000fd5b506020600460003e604060205260243d03602460403e601c3d016000f35b60606115b1610f7e565b90506115bd878261166f565b600060606115d58c8c8c8c8c8c898d8d63ffffffff16565b50915091506115e881848663ffffffff16565b8051601f1982018390526343adbafb603f1983015260200260231982016044820181fd5b60008282026105f984158061162957508385838161162657fe5b04145b6003611084565b60008161163c57600080fd5b670de0b6b3a76400008381029084828161165257fe5b041461165d57600080fd5b82818161166657fe5b04949350505050565b60005b61167a6113ad565b8110156114e4576116b183828151811061169057fe5b60200260200101518383815181106116a457fe5b6020026020010151611f8b565b8382815181106116bd57fe5b6020908102919091010152600101611672565b6106b48282611fb4565b60006060807f00000000000000000000000000000000000000000000000000000000000000008361170b8a83611e85565b905061171681611eb7565b6117208a87612070565b9095509350611739818661173261054c565b6001611f31565b60095560408051600380825260808201909252869186919060208201606080368337019050509450945094505050985098509895505050505050565b60005b6117806113ad565b8110156114e4576117b783828151811061179657fe5b60200260200101518383815181106117aa57fe5b60200260200101516120b4565b8382815181106117c357fe5b6020908102919091010152600101611778565b60007f00000000000000000000000000000000000000000000000000000000000000006001600160a01b0316826001600160a01b0316141561183957507f0000000000000000000000000000000000000000000000000000000000000000610745565b7f00000000000000000000000000000000000000000000000000000000000000006001600160a01b0316826001600160a01b0316141561189a57507f0000000000000000000000000000000000000000000000000000000000000000610745565b7f00000000000000000000000000000000000000000000000000000000000000006001600160a01b0316826001600160a01b031614156118fb57507f0000000000000000000000000000000000000000000000000000000000000000610745565b610745610135611e18565b60008061191b6119146106b8565b849061210b565b90506105f98382610def565b60006105f98383611f8b565b6106b461193f83612147565b826106b4565b600061194f61120f565b600061195961214d565b905061196785858584612230565b95945050505050565b60006105f98383611630565b600061198661120f565b600061199061214d565b905061196785858584612242565b60006105f983836120b4565b60006105326119c96119ba6106b8565b670de0b6b3a764000090610def565b83906120b4565b60006119da6108a4565b6001600160a01b031663aaabadc56040518163ffffffff1660e01b815260040160206040518083038186803b158015611a1257600080fd5b505afa158015611a26573d6000803e3d6000fd5b505050506040513d601f19601f8201168201806040525081019061058591906133dc565b60006060611a566108a4565b6001600160a01b031663f94d4668611a6c61062c565b6040518263ffffffff1660e01b8152600401611a889190613ab3565b60006040518083038186803b158015611aa057600080fd5b505afa158015611ab4573d6000803e3d6000fd5b505050506040513d6000823e601f3d908101601f19168201604052611adc9190810190613510565b50915050611af181611aec610f7e565b61166f565b611b1b817f0000000000000000000000000000000000000000000000000000000000000000611e85565b91505090565b6000611b2b611172565b8260405160200161083d929190613a29565b60006060611b4961120f565b6000611b5484612254565b9050611b6f6000826003811115611b6757fe5b1460ce611084565b6060611b7a8561226a565b9050611b88815160036113b2565b611b92818761166f565b6000611bbe827f0000000000000000000000000000000000000000000000000000000000000000611e85565b90506000611bcd82600361160c565b6009929092555093509150505b9550959350505050565b620f424090565b6106b48282612280565b6001600160a01b03918216600090815260016020908152604080832093909416825291909152205490565b604080516003808252608082019092526060918291906020820183803683370190505090506003670de0b6b3a76400000481600081518110611c5e57fe5b60209081029190910101526003670de0b6b3a76400000481600181518110611c8257fe5b60209081029190910101526003670de0b6b3a76400000481600281518110611ca657fe5b6020908102919091010152905090565b600281511015611cc557610549565b600081600081518110611cd457fe5b602002602001015190506000600190505b82518110156114e4576000838281518110611cfc57fe5b60200260200101519050611d25816001600160a01b0316846001600160a01b0316106065611084565b9150600101611ce5565b600073ba1ba1ba1ba1ba1ba1ba1ba1ba1ba1ba1ba1ba1b611d4e610880565b6001600160a01b031614158015611d695750611d698361230e565b15611d9157611d76610880565b6001600160a01b0316336001600160a01b0316149050610532565b611d996119d0565b6001600160a01b0316639be2a8848484306040518463ffffffff1660e01b8152600401611dc893929190613abc565b60206040518083038186803b158015611de057600080fd5b505afa158015611df4573d6000803e3d6000fd5b505050506040513d601f19601f82011682018060405250810190610dbf91906135f7565b62461bcd60e51b6000908152602060045260076024526642414c23000030600a808404818106603090810160081b95839006959095019082900491820690940160101b939093010160c81b604452606490fd5b6000611e7a8484111583611084565b5050900390565b4690565b6000806000806000611e978787612340565b9350935093509350611eac848484848a6124b0565b979650505050505050565b600080600080611ec9600954866124d8565b9350935093509350611edd84848484612541565b5050505050565b600060606000611ef384612254565b90506001816003811115611f0357fe5b1415611f1d57611f138585612567565b9250925050611f2a565b611f28610150611e18565b505b9250929050565b60008115611f63576000611f4f84611f49888861210b565b906120b4565b9050611f5b868261128f565b915050611f83565b6000611f73846107258888611f8b565b9050611f7f8682610def565b9150505b949350505050565b6000828202611fa584158061162957508385838161162657fe5b670de0b6b3a764000081611666565b611fcb6001600160a01b038316151561019b611084565b611fd7826000836114e4565b6001600160a01b038216600090815260208190526040902054611ffd90826101a1611e6b565b6001600160a01b0383166000908152602081905260409020556002546120239082612599565b6002556040516000906001600160a01b038416907fddf252ad1be2c89b69c2b068fc378daa952ba7f163c4a11628f55a4df523b3ef90612064908590613ab3565b60405180910390a35050565b60006060600061207f84612254565b9050600381600381111561208f57fe5b14156120a95761209f85856125a7565b9093509150611f28565b611f28610136611e18565b60006120c38215156004611084565b826120d057506000610532565b670de0b6b3a7640000838102906120f3908583816120ea57fe5b04146005611084565b8260018203816120ff57fe5b04600101915050610532565b600082820261212584158061162957508385838161162657fe5b80612134576000915050610532565b670de0b6b3a764000060001982016120ff565b50600090565b600060606121596108a4565b6001600160a01b031663f94d466861216f61062c565b6040518263ffffffff1660e01b815260040161218b9190613ab3565b60006040518083038186803b1580156121a357600080fd5b505afa1580156121b7573d6000803e3d6000fd5b505050506040513d6000823e601f3d908101601f191682016040526121df9190810190613510565b509150506121ef81611aec610f7e565b7f0000000000000000000000000000000000000000000000000000000000000000600061221c8383611e85565b90506122288183611f8b565b935050505090565b600061196784848760600151856125cc565b60006119678484876060015185612664565b6000818060200190518101906105329190613784565b6060818060200190518101906105f991906137cd565b61228c600083836114e4565b600254612299908261128f565b6002556001600160a01b0382166000908152602081905260409020546122bf908261128f565b6001600160a01b0383166000818152602081905260408082209390935591519091907fddf252ad1be2c89b69c2b068fc378daa952ba7f163c4a11628f55a4df523b3ef90612064908590613ab3565b6000612320631c74c91760e11b610808565b82148061053257506123386350dd6ed960e01b610808565b909114919050565b600080808061235c6119ba866123568180611f8b565b90611f8b565b935060006123b98760028151811061237057fe5b60200260200101516123b38960018151811061238857fe5b60200260200101518a60008151811061239d57fe5b602002602001015161128f90919063ffffffff16565b9061128f565b90506123c9866123568382611f8b565b9350600061245861240b896000815181106123e057fe5b60200260200101518a6002815181106123f557fe5b6020026020010151611f8b90919063ffffffff16565b6123b36124338b60028151811061241e57fe5b60200260200101518c6001815181106123f557fe5b6123b38c60018151811061244357fe5b60200260200101518d6000815181106123f557fe5b90506124648188611f8b565b93506124a38860028151811061247657fe5b60200260200101516123568a60018151811061248e57fe5b60200260200101518b6000815181106123f557fe5b9250505092959194509250565b60006124be868686866126f5565b90506124ce8686868686866127ab565b9695505050505050565b6000806000806000806000806124ec61286e565b9350935093509350836000141561251157600097508796509094509250612538915050565b6000806125288c8c61252161054c565b8989612add565b909a509850929650909450505050505b92959194509250565b8315612551576125518285611beb565b8215612561576125618184611beb565b50505050565b60006060600061257684612b70565b9050606061258c868361258761054c565b612b86565b9196919550909350505050565b60006105f983836001611e6b565b6000606060006125b684612b70565b9050606061258c86836125c761054c565b612c21565b60006125ee6125e386670429d069189e0000611f8b565b841115610130611084565b600061260c61260584670de0b6b3a764000261210b565b879061128f565b9050600061262561260585670de0b6b3a763ffff611f8b565b905061263e612634838761128f565b6107258388611f8b565b9250611f839150612659905085670429d069189e0000611f8b565b821115610131611084565b600061268661267b85670429d069189e0000611f8b565b841115610131611084565b600061269d61260584670de0b6b3a764000261210b565b905060006126b661260585670de0b6b3a763ffff611f8b565b90506126cf6126c58287610def565b611f49848861210b565b9250611f8391506126ea905086670429d069189e0000611f8b565b821115610130611084565b6000806127216127176729a2241af62c0000612711898861210b565b9061210b565b6123b3878061210b565b9050600061274761273a60038902611f49856005612cc8565b6123b38860038b026120b4565b9050600061275d670de0b6b3a764000089610def565b905060006706f05b59d3b2000082101561277f57671bc16d674ec80000612789565b6714d1120d7b1600005b6001600160401b0316905061279e838261210b565b9998505050505050505050565b600080805b60ff811015612857576000806127ca8b8b8b8b8b8b612e3b565b91509150600182116127e257859450505050506124ce565b600583108015906127f05750805b1561280157859450505050506124ce565b600583108015906128155750600884048210155b1561282657859450505050506124ce565b819350801561284057612839868361128f565b955061284d565b61284a8683610def565b95505b50506001016127b0565b50612863610160611e18565b509695505050505050565b600a5460405163bd02d0f560e01b81526000918291829182916001600160a01b039091169063bd02d0f5906128c0907550524f544f434f4c5f535741505f4645455f5045524360501b90600401613ab3565b60206040518083038186803b1580156128d857600080fd5b505afa1580156128ec573d6000803e3d6000fd5b505050506040513d601f19601f820116820180604052508101906129109190613924565b600a5460405163bd02d0f560e01b81526001600160a01b039091169063bd02d0f590612960907f50524f544f434f4c5f4645455f4759524f5f504f5254494f4e0000000000000090600401613ab3565b60206040518083038186803b15801561297857600080fd5b505afa15801561298c573d6000803e3d6000fd5b505050506040513d601f19601f820116820180604052508101906129b09190613924565b600a546040516321f8a72160e01b81526001600160a01b03909116906321f8a721906129f0906c4759524f5f545245415355525960981b90600401613ab3565b60206040518083038186803b158015612a0857600080fd5b505afa158015612a1c573d6000803e3d6000fd5b505050506040513d601f19601f82011682018060405250810190612a4091906133dc565b600a546040516321f8a72160e01b81526001600160a01b03909116906321f8a72190612a7f906b42414c5f545245415355525960a01b90600401613ab3565b60206040518083038186803b158015612a9757600080fd5b505afa158015612aab573d6000803e3d6000fd5b505050506040513d601f19601f82011682018060405250810190612acf91906133dc565b935093509350935090919293565b600080868611612af257506000905080611bda565b6000612b0c85612356612b058a8c610def565b8990611f8b565b90506000612b24612b1d898b610def565b8790611f8b565b90506000612b328983610def565b90506000612b408483611630565b90506000612b4e8883611f8b565b90506000612b5c8383610def565b919d919c50909a5050505050505050505050565b6000818060200190518101906105f991906137a0565b60606000612b948484611630565b9050606085516001600160401b0381118015612baf57600080fd5b50604051908082528060200260200182016040528015612bd9578160200160208202803683370190505b50905060005b8651811015612c1757612bf8838883815181106123f557fe5b828281518110612c0457fe5b6020908102919091010152600101612bdf565b5095945050505050565b60606000612c2f84846120b4565b9050606085516001600160401b0381118015612c4a57600080fd5b50604051908082528060200260200182016040528015612c74578160200160208202803683370190505b50905060005b8651811015612c1757612ca983888381518110612c9357fe5b602002602001015161210b90919063ffffffff16565b828281518110612cb557fe5b6020908102919091010152600101612c7a565b600082612cd757506000610532565b6000612ce284612f20565b9050600281670de0b6b3a7640000860281612cf957fe5b04820181612d0357fe5b049050600281670de0b6b3a7640000860281612d1b57fe5b04820181612d2557fe5b049050600281670de0b6b3a7640000860281612d3d57fe5b04820181612d4757fe5b049050600281670de0b6b3a7640000860281612d5f57fe5b04820181612d6957fe5b049050600281670de0b6b3a7640000860281612d8157fe5b04820181612d8b57fe5b049050600281670de0b6b3a7640000860281612da357fe5b04820181612dad57fe5b049050600281670de0b6b3a7640000860281612dc557fe5b04820181612dcf57fe5b0490506000612dde8280611f8b565b9050612df4612ded838661210b565b869061128f565b8111158015612e165750612e12612e0b838661210b565b8690610def565b8110155b610a855760405162461bcd60e51b8152600401612e3290613b9c565b60405180910390fd5b6000808080612e4a8580611f8b565b9050612e5760038261160c565b9150612e73612e6c8761235681818782611f8b565b8390610def565b9150612e9888612e92612e8b60026107208a8f611f8b565b8590610def565b90610def565b9150506000612ea8858784613103565b90506000612eba8a6123568880611f8b565b9050612ed483610725612ecd898d611f8b565b849061128f565b9050612eea612ee38985611630565b829061128f565b905081811015935083612f0657612f018282610def565b612f10565b612f108183610def565b9450505050965096945050505050565b6000670de0b6b3a76400008210612f4d57670de0b6b3a7640000612f4581840461321a565b1b9050610745565b600a821015612f6157506312d940b6610745565b6064821015612f7657506402540be400610745565b6103e8821015612f8c575064075cdd4719610745565b612710821015612fa2575064174876e800610745565b620186a0821015612fb957506449a0a4c700610745565b620f4240821015612fd0575064e8d4a51000610745565b62989680821015612fe857506502e0466fc608610745565b6305f5e10082101561300157506509184e72a000610745565b633b9aca0082101561301a5750651cc2c05dbc53610745565b6402540be4008210156130345750655af3107a4000610745565b64174876e80082101561304f575066011f9b83a95b45610745565b64e8d4a5100082101561306a575066038d7ea4c68000610745565b6509184e72a0008210156130865750660b3c13249d90bb610745565b655af3107a40008210156130a25750662386f26fc10000610745565b66038d7ea4c680008210156130bf5750667058bf6e27a751610745565b662386f26fc100008210156130dd575067016345785d8a0000610745565b67016345785d8a00008210156130fc5750670463777a4d8c892d610745565b5080610745565b60006d0266ae2fd4d2340b427660000000841161315757613128846123568180611f8b565b905061314461313d8461235681818682611f8b565b8290610def565b90506131508183611630565b90506105f9565b6131618480611f8b565b905061319261317d670de0b6b3a7640000865b84919006611f8b565b6123b383670de0b6b3a7640000885b0461160c565b9050806131c26131a6633b9aca0086613174565b6123b36131b884633b9aca008961318c565b633b9aca006132b0565b90506131d56131a6633b9aca0086613174565b90506131e86131a6633b9aca0086613174565b90506131f48282610def565b915061196761320783633b9aca0061160c565b61321585633b9aca006132b0565b6132b0565b6000600160801b82106132325760809190911c906040015b68010000000000000000821061324d5760409190911c906020015b64010000000082106132645760209190911c906010015b6201000082106132795760109190911c906008015b610100821061328d5760089190911c906004015b601082106132a05760049190911c906002015b6004821061074557600101919050565b60006132bf8215156004611084565b8183816132c857fe5b049392505050565b803561053281613c2e565b600082601f8301126132eb578081fd5b81516132fe6132f982613c0f565b613be9565b81815291506020808301908481018184028601820187101561331f57600080fd5b60005b8481101561333e57815184529282019290820190600101613322565b505050505092915050565b600082601f830112613359578081fd5b81356001600160401b0381111561336e578182fd5b613381601f8201601f1916602001613be9565b915080825283602082850101111561339857600080fd5b8060208401602084013760009082016020015292915050565b80356002811061053257600080fd5b6000602082840312156133d1578081fd5b81356105f981613c2e565b6000602082840312156133ed578081fd5b81516105f981613c2e565b6000806040838503121561340a578081fd5b823561341581613c2e565b9150602083013561342581613c2e565b809150509250929050565b600080600060608486031215613444578081fd5b833561344f81613c2e565b9250602084013561345f81613c2e565b929592945050506040919091013590565b600080600080600080600060e0888a03121561348a578485fd5b873561349581613c2e565b965060208801356134a581613c2e565b95506040880135945060608801359350608088013560ff811681146134c8578384fd5b9699959850939692959460a0840135945060c09093013592915050565b600080604083850312156134f7578182fd5b823561350281613c2e565b946020939093013593505050565b600080600060608486031215613524578081fd5b83516001600160401b038082111561353a578283fd5b818601915086601f83011261354d578283fd5b815161355b6132f982613c0f565b80828252602080830192508086018b82838702890101111561357b578788fd5b8796505b848710156135a657805161359281613c2e565b84526001969096019592810192810161357f565b5089015190975093505050808211156135bd578283fd5b506135ca868287016132db565b925050604084015190509250925092565b6000602082840312156135ec578081fd5b81356105f981613c43565b600060208284031215613608578081fd5b81516105f981613c43565b600080600080600080600060e0888a03121561362d578081fd5b8735965060208089013561364081613c2e565b9650604089013561365081613c2e565b955060608901356001600160401b038082111561366b578384fd5b818b0191508b601f83011261367e578384fd5b813561368c6132f982613c0f565b8082825285820191508585018f8788860288010111156136aa578788fd5b8795505b838610156136cc5780358352600195909501949186019186016136ae565b509850505060808b0135955060a08b0135945060c08b01359250808311156136f2578384fd5b50506137008a828b01613349565b91505092959891949750929550565b600060208284031215613720578081fd5b81356001600160e01b0319811681146105f9578182fd5b60008060408385031215613749578182fd5b823561375481613c2e565b915060208301356001600160401b0381111561376e578182fd5b61377a85828601613349565b9150509250929050565b600060208284031215613795578081fd5b81516105f981613c51565b600080604083850312156137b2578182fd5b82516137bd81613c51565b6020939093015192949293505050565b600080604083850312156137df578182fd5b82516137ea81613c51565b60208401519092506001600160401b03811115613805578182fd5b61377a858286016132db565b600080600060608486031215613825578081fd5b83356001600160401b038082111561383b578283fd5b8186019150610120808389031215613851578384fd5b61385a81613be9565b905061386688846133b1565b815261387588602085016132d0565b602082015261388788604085016132d0565b6040820152606083013560608201526080830135608082015260a083013560a08201526138b78860c085016132d0565b60c08201526138c98860e085016132d0565b60e082015261010080840135838111156138e1578586fd5b6138ed8a828701613349565b9183019190915250976020870135975060409096013595945050505050565b60006020828403121561391d578081fd5b5035919050565b600060208284031215613935578081fd5b5051919050565b60008060008060808587031215613951578182fd5b845193506020850151925060408501519150606085015161397181613c2e565b939692955090935050565b6000815180845260208085019450808401835b838110156139ab5781518752958201959082019060010161398f565b509495945050505050565b60008151808452815b818110156139db576020818501810151868301820152016139bf565b818111156139ec5782602083870101525b50601f01601f19169290920160200192915050565b9182526001600160e01b031916602082015260240190565b6000828483379101908152919050565b61190160f01b81526002810192909252602282015260420190565b6001600160a01b0391909116815260200190565b6000602082526105f9602083018461397c565b600060408252613a7e604083018561397c565b8281036020840152611967818561397c565b901515815260200190565b92151583526020830191909152604082015260600190565b90815260200190565b9283526001600160a01b03918216602084015216604082015260600190565b9586526001600160a01b0394851660208701529290931660408501526060840152608083019190915260a082015260c00190565b9485526020850193909352604084019190915260608301526001600160a01b0316608082015260a00190565b600083825260406020830152611f8360408301846139b6565b9182526001600160a01b0316602082015260400190565b93845260ff9290921660208401526040830152606082015260800190565b6000602082526105f960208301846139b6565b6020808252600c908201526b17dcdc5c9d0811905253115160a21b604082015260600190565b600083825260406020830152611f83604083018461397c565b60ff91909116815260200190565b6040518181016001600160401b0381118282101715613c0757600080fd5b604052919050565b60006001600160401b03821115613c24578081fd5b5060209081020190565b6001600160a01b038116811461054957600080fd5b801515811461054957600080fd5b6004811061054957600080fdfea2646970667358221220125dbc85d77bc9bc166ecfe9badffee4c9b73c130595b2dd212686ac103ef38b64736f6c63430007010033","bytecodeSha1":"b8ea78cd9ff31f9cb680d4d2afae60a68c082da3","compiler":{"evm_version":"istanbul","optimizer":{"enabled":true,"runs":200},"version":"0.7.1+commit.f4a555be"},"contractName":"GyroThreePoolFactory","language":"Solidity","natspec":{"kind":"dev","methods":{"create(string,string,address[],uint256,uint256,address)":{"details":"Deploys a new `GyroThreePool`."},"getCreationCode()":{"details":"Returns the creation code of the contract this factory creates."},"getCreationCodeContracts()":{"details":"Returns the two addresses where the creation code of the contract crated by this factory is stored."},"getPauseConfiguration()":{"details":"Returns the current `TemporarilyPausable` configuration that will be applied to Pools created by this factory. `pauseWindowDuration` will decrease over time until it reaches zero, at which point both it and `bufferPeriodDuration` will be zero forever, meaning deployed Pools will not be pausable."},"getVault()":{"details":"Returns the Vault's address."},"isPoolFromFactory(address)":{"details":"Returns true if `pool` was created by this factory."}},"version":1},"opcodes":"PUSH1 0x80 PUSH1 0x40 MSTORE CALLVALUE DUP1 ISZERO PUSH2 0x10 JUMPI PUSH1 0x0 DUP1 REVERT JUMPDEST POP PUSH1 0x4 CALLDATASIZE LT PUSH2 0x7C JUMPI PUSH1 0x0 CALLDATALOAD PUSH1 0xE0 SHR DUP1 PUSH4 0x2DA47C40 GT PUSH2 0x5B JUMPI DUP1 PUSH4 0x2DA47C40 EQ PUSH2 0xCA JUMPI DUP1 PUSH4 0x6634B753 EQ PUSH2 0xE0 JUMPI DUP1 PUSH4 0x7932C7F3 EQ PUSH2 0x100 JUMPI DUP1 PUSH4 0x8D928AF8 EQ PUSH2 0x113 JUMPI PUSH2 0x7C JUMP JUMPDEST DUP1 PUSH3 0xC194DB EQ PUSH2 0x81 JUMPI DUP1 PUSH4 0xBC7B4C4 EQ PUSH2 0x9F JUMPI DUP1 PUSH4 0x174481FA EQ PUSH2 0xB4 JUMPI JUMPDEST PUSH1 0x0 DUP1 REVERT JUMPDEST PUSH2 0x89 PUSH2 0x11B JUMP JUMPDEST PUSH1 0x40 MLOAD PUSH2 0x96 SWAP2 SWAP1 PUSH2 0x771 JUMP JUMPDEST PUSH1 0x40 MLOAD DUP1 SWAP2 SUB SWAP1 RETURN JUMPDEST PUSH2 0xA7 PUSH2 0x13A JUMP JUMPDEST PUSH1 0x40 MLOAD PUSH2 0x96 SWAP2 SWAP1 PUSH2 0x738 JUMP JUMPDEST PUSH2 0xBC PUSH2 0x15E JUMP JUMPDEST PUSH1 0x40 MLOAD PUSH2 0x96 SWAP3 SWAP2 SWAP1 PUSH2 0x74C JUMP JUMPDEST PUSH2 0xD2 PUSH2 0x1A4 JUMP JUMPDEST PUSH1 0x40 MLOAD PUSH2 0x96 SWAP3 SWAP2 SWAP1 PUSH2 0x846 JUMP JUMPDEST PUSH2 0xF3 PUSH2 0xEE CALLDATASIZE PUSH1 0x4 PUSH2 0x5B2 JUMP JUMPDEST PUSH2 0x20E JUMP JUMPDEST PUSH1 0x40 MLOAD PUSH2 0x96 SWAP2 SWAP1 PUSH2 0x766 JUMP JUMPDEST PUSH2 0xA7 PUSH2 0x10E CALLDATASIZE PUSH1 0x4 PUSH2 0x5CE JUMP JUMPDEST PUSH2 0x22C JUMP JUMPDEST PUSH2 0xA7 PUSH2 0x2AB JUMP JUMPDEST PUSH1 0x60 PUSH2 0x135 PUSH1 0x40 MLOAD DUP1 PUSH1 0x20 ADD PUSH1 0x40 MSTORE DUP1 PUSH1 0x0 DUP2 MSTORE POP PUSH2 0x321 JUMP JUMPDEST SWAP1 POP SWAP1 JUMP JUMPDEST PUSH32 0x0 DUP2 JUMP JUMPDEST PUSH32 0x0 PUSH32 0x0 SWAP1 SWAP2 JUMP JUMPDEST PUSH1 0x0 DUP1 TIMESTAMP PUSH32 0x0 DUP2 LT ISZERO PUSH2 0x200 JUMPI DUP1 PUSH32 0x0 SUB SWAP3 POP PUSH3 0x278D00 SWAP2 POP PUSH2 0x209 JUMP JUMPDEST PUSH1 0x0 SWAP3 POP PUSH1 0x0 SWAP2 POP JUMPDEST POP SWAP1 SWAP2 JUMP JUMPDEST PUSH1 0x1 PUSH1 0x1 PUSH1 0xA0 SHL SUB AND PUSH1 0x0 SWAP1 DUP2 MSTORE PUSH1 0x20 DUP2 SWAP1 MSTORE PUSH1 0x40 SWAP1 KECCAK256 SLOAD PUSH1 0xFF AND SWAP1 JUMP JUMPDEST PUSH1 0x0 DUP1 PUSH1 0x0 PUSH2 0x239 PUSH2 0x1A4 JUMP JUMPDEST SWAP2 POP SWAP2 POP PUSH2 0x29E PUSH2 0x248 PUSH2 0x2AB JUMP JUMPDEST DUP11 DUP11 DUP11 DUP11 DUP11 DUP9 DUP9 DUP13 PUSH32 0x0 PUSH1 0x40 MLOAD PUSH1 0x20 ADD PUSH2 0x28A SWAP11 SWAP10 SWAP9 SWAP8 SWAP7 SWAP6 SWAP5 SWAP4 SWAP3 SWAP2 SWAP1 PUSH2 0x784 JUMP JUMPDEST PUSH1 0x40 MLOAD PUSH1 0x20 DUP2 DUP4 SUB SUB DUP2 MSTORE SWAP1 PUSH1 0x40 MSTORE PUSH2 0x3FA JUMP JUMPDEST SWAP10 SWAP9 POP POP POP POP POP POP POP POP POP JUMP JUMPDEST PUSH32 0x0 SWAP1 JUMP JUMPDEST DUP1 MLOAD PUSH32 0x602038038060206000396000F3FEFEFEFEFEFEFEFEFEFEFEFEFEFEFEFEFEFEFE DUP1 DUP4 MSTORE PUSH1 0x0 SWAP2 PUSH1 0x20 DUP2 ADD DUP5 DUP5 CREATE SWAP1 DUP5 MSTORE SWAP2 POP PUSH2 0x31B PUSH1 0x1 PUSH1 0x1 PUSH1 0xA0 SHL SUB DUP4 AND ISZERO ISZERO PUSH2 0x1AC PUSH2 0x45A JUMP JUMPDEST POP SWAP2 SWAP1 POP JUMP JUMPDEST DUP1 MLOAD PUSH1 0x40 DUP1 MLOAD PUSH32 0x0 PUSH32 0x0 DUP2 DUP2 ADD DUP6 DUP2 ADD DUP5 DUP2 ADD PUSH1 0x20 SWAP1 DUP2 ADD SWAP1 SWAP7 MSTORE DUP1 DUP6 MSTORE SWAP4 SWAP6 PUSH32 0x0 SWAP6 SWAP3 SWAP5 PUSH32 0x0 SWAP5 SWAP4 DUP9 ADD DUP7 PUSH1 0x0 DUP3 DUP11 EXTCODECOPY DUP5 PUSH1 0x0 DUP9 DUP4 ADD DUP9 EXTCODECOPY POP PUSH1 0x20 DUP10 DUP2 ADD SWAP1 DUP10 DUP6 ADD ADD PUSH2 0x3EC DUP2 DUP4 DUP7 PUSH2 0x46C JUMP JUMPDEST POP POP POP POP POP POP POP POP POP SWAP2 SWAP1 POP JUMP JUMPDEST PUSH1 0x0 DUP1 PUSH2 0x406 DUP4 PUSH2 0x4AA JUMP JUMPDEST PUSH1 0x1 PUSH1 0x1 PUSH1 0xA0 SHL SUB DUP2 AND PUSH1 0x0 DUP2 DUP2 MSTORE PUSH1 0x20 DUP2 SWAP1 MSTORE PUSH1 0x40 DUP1 DUP3 KECCAK256 DUP1 SLOAD PUSH1 0xFF NOT AND PUSH1 0x1 OR SWAP1 SSTORE MLOAD SWAP3 SWAP4 POP SWAP1 SWAP2 PUSH32 0x83A48FBCFC991335314E74D0496AAB6A1987E992DDC85DDDBCC4D6DD6EF2E9FC SWAP2 SWAP1 LOG2 SWAP3 SWAP2 POP POP JUMP JUMPDEST DUP2 PUSH2 0x468 JUMPI PUSH2 0x468 DUP2 PUSH2 0x4E5 JUMP JUMPDEST POP POP JUMP JUMPDEST JUMPDEST PUSH1 0x20 DUP2 LT PUSH2 0x48C JUMPI DUP2 MLOAD DUP4 MSTORE PUSH1 0x20 SWAP3 DUP4 ADD SWAP3 SWAP1 SWAP2 ADD SWAP1 PUSH1 0x1F NOT ADD PUSH2 0x46D JUMP JUMPDEST SWAP1 MLOAD DUP3 MLOAD PUSH1 0x20 SWAP3 SWAP1 SWAP3 SUB PUSH2 0x100 EXP PUSH1 0x0 NOT ADD DUP1 NOT SWAP1 SWAP2 AND SWAP2 AND OR SWAP1 MSTORE JUMP JUMPDEST PUSH1 0x0 PUSH1 0x60 PUSH2 0x4B7 DUP4 PUSH2 0x321 JUMP JUMPDEST SWAP1 POP PUSH1 0x0 DUP2 MLOAD PUSH1 0x20 DUP4 ADD PUSH1 0x0 CREATE SWAP1 POP PUSH1 0x1 PUSH1 0x1 PUSH1 0xA0 SHL SUB DUP2 AND PUSH2 0x4DE JUMPI RETURNDATASIZE PUSH1 0x0 DUP1 RETURNDATACOPY RETURNDATASIZE PUSH1 0x0 REVERT JUMPDEST SWAP4 SWAP3 POP POP POP JUMP JUMPDEST PUSH3 0x461BCD PUSH1 0xE5 SHL PUSH1 0x0 SWAP1 DUP2 MSTORE PUSH1 0x20 PUSH1 0x4 MSTORE PUSH1 0x7 PUSH1 0x24 MSTORE PUSH7 0x42414C23000030 PUSH1 0xA DUP1 DUP5 DIV DUP2 DUP2 MOD PUSH1 0x30 SWAP1 DUP2 ADD PUSH1 0x8 SHL SWAP6 DUP4 SWAP1 MOD SWAP6 SWAP1 SWAP6 ADD SWAP1 DUP3 SWAP1 DIV SWAP2 DUP3 MOD SWAP1 SWAP5 ADD PUSH1 0x10 SHL SWAP4 SWAP1 SWAP4 ADD ADD PUSH1 0xC8 SHL PUSH1 0x44 MSTORE PUSH1 0x64 SWAP1 REVERT JUMPDEST DUP1 CALLDATALOAD PUSH2 0x543 DUP2 PUSH2 0x887 JUMP JUMPDEST SWAP3 SWAP2 POP POP JUMP JUMPDEST PUSH1 0x0 DUP3 PUSH1 0x1F DUP4 ADD SLT PUSH2 0x559 JUMPI DUP1 DUP2 REVERT JUMPDEST DUP2 CALLDATALOAD PUSH8 0xFFFFFFFFFFFFFFFF DUP2 GT ISZERO PUSH2 0x56F JUMPI DUP2 DUP3 REVERT JUMPDEST PUSH2 0x582 PUSH1 0x1F DUP3 ADD PUSH1 0x1F NOT AND PUSH1 0x20 ADD PUSH2 0x854 JUMP JUMPDEST SWAP2 POP DUP1 DUP3 MSTORE DUP4 PUSH1 0x20 DUP3 DUP6 ADD ADD GT ISZERO PUSH2 0x599 JUMPI PUSH1 0x0 DUP1 REVERT JUMPDEST DUP1 PUSH1 0x20 DUP5 ADD PUSH1 0x20 DUP5 ADD CALLDATACOPY PUSH1 0x0 SWAP1 DUP3 ADD PUSH1 0x20 ADD MSTORE SWAP3 SWAP2 POP POP JUMP JUMPDEST PUSH1 0x0 PUSH1 0x20 DUP3 DUP5 SUB SLT ISZERO PUSH2 0x5C3 JUMPI DUP1 DUP2 REVERT JUMPDEST DUP2 CALLDATALOAD PUSH2 0x4DE DUP2 PUSH2 0x887 JUMP JUMPDEST PUSH1 0x0 DUP1 PUSH1 0x0 DUP1 PUSH1 0x0 DUP1 PUSH1 0xC0 DUP8 DUP10 SUB SLT ISZERO PUSH2 0x5E6 JUMPI DUP2 DUP3 REVERT JUMPDEST DUP7 CALLDATALOAD PUSH8 0xFFFFFFFFFFFFFFFF DUP1 DUP3 GT ISZERO PUSH2 0x5FD JUMPI DUP4 DUP5 REVERT JUMPDEST PUSH2 0x609 DUP11 DUP4 DUP12 ADD PUSH2 0x549 JUMP JUMPDEST SWAP8 POP PUSH1 0x20 SWAP2 POP DUP2 DUP10 ADD CALLDATALOAD DUP2 DUP2 GT ISZERO PUSH2 0x61F JUMPI DUP5 DUP6 REVERT JUMPDEST PUSH2 0x62B DUP12 DUP3 DUP13 ADD PUSH2 0x549 JUMP JUMPDEST SWAP8 POP POP PUSH1 0x40 DUP10 ADD CALLDATALOAD DUP2 DUP2 GT ISZERO PUSH2 0x63F JUMPI DUP5 DUP6 REVERT JUMPDEST DUP10 ADD PUSH1 0x1F DUP2 ADD DUP12 SGT PUSH2 0x64F JUMPI DUP5 DUP6 REVERT JUMPDEST DUP1 CALLDATALOAD DUP3 DUP2 GT ISZERO PUSH2 0x65D JUMPI DUP6 DUP7 REVERT JUMPDEST DUP4 DUP2 MUL SWAP3 POP PUSH2 0x66D DUP5 DUP5 ADD PUSH2 0x854 JUMP JUMPDEST DUP2 DUP2 MSTORE DUP5 DUP2 ADD SWAP1 DUP4 DUP7 ADD DUP6 DUP6 ADD DUP8 ADD DUP16 LT ISZERO PUSH2 0x687 JUMPI DUP9 DUP10 REVERT JUMPDEST DUP9 SWAP6 POP JUMPDEST DUP4 DUP7 LT ISZERO PUSH2 0x6B1 JUMPI PUSH2 0x69D DUP16 DUP3 PUSH2 0x538 JUMP JUMPDEST DUP4 MSTORE PUSH1 0x1 SWAP6 SWAP1 SWAP6 ADD SWAP5 SWAP2 DUP7 ADD SWAP2 DUP7 ADD PUSH2 0x68B JUMP JUMPDEST POP SWAP9 POP POP POP POP PUSH1 0x60 DUP10 ADD CALLDATALOAD SWAP5 POP POP POP PUSH1 0x80 DUP8 ADD CALLDATALOAD SWAP2 POP PUSH2 0x6D4 DUP9 PUSH1 0xA0 DUP10 ADD PUSH2 0x538 JUMP JUMPDEST SWAP1 POP SWAP3 SWAP6 POP SWAP3 SWAP6 POP SWAP3 SWAP6 JUMP JUMPDEST PUSH1 0x1 PUSH1 0x1 PUSH1 0xA0 SHL SUB AND SWAP1 MSTORE JUMP JUMPDEST PUSH1 0x0 DUP2 MLOAD DUP1 DUP5 MSTORE DUP2 JUMPDEST DUP2 DUP2 LT ISZERO PUSH2 0x712 JUMPI PUSH1 0x20 DUP2 DUP6 ADD DUP2 ADD MLOAD DUP7 DUP4 ADD DUP3 ADD MSTORE ADD PUSH2 0x6F6 JUMP JUMPDEST DUP2 DUP2 GT ISZERO PUSH2 0x723 JUMPI DUP3 PUSH1 0x20 DUP4 DUP8 ADD ADD MSTORE JUMPDEST POP PUSH1 0x1F ADD PUSH1 0x1F NOT AND SWAP3 SWAP1 SWAP3 ADD PUSH1 0x20 ADD SWAP3 SWAP2 POP POP JUMP JUMPDEST PUSH1 0x1 PUSH1 0x1 PUSH1 0xA0 SHL SUB SWAP2 SWAP1 SWAP2 AND DUP2 MSTORE PUSH1 0x20 ADD SWAP1 JUMP JUMPDEST PUSH1 0x1 PUSH1 0x1 PUSH1 0xA0 SHL SUB SWAP3 DUP4 AND DUP2 MSTORE SWAP2 AND PUSH1 0x20 DUP3 ADD MSTORE PUSH1 0x40 ADD SWAP1 JUMP JUMPDEST SWAP1 ISZERO ISZERO DUP2 MSTORE PUSH1 0x20 ADD SWAP1 JUMP JUMPDEST PUSH1 0x0 PUSH1 0x20 DUP3 MSTORE PUSH2 0x4DE PUSH1 0x20 DUP4 ADD DUP5 PUSH2 0x6ED JUMP JUMPDEST PUSH1 0x1 PUSH1 0x1 PUSH1 0xA0 SHL SUB DUP12 AND DUP2 MSTORE PUSH2 0x140 PUSH1 0x20 DUP1 DUP4 ADD DUP3 SWAP1 MSTORE PUSH1 0x0 SWAP2 SWAP1 PUSH2 0x7AB DUP5 DUP4 ADD DUP15 PUSH2 0x6ED JUMP JUMPDEST SWAP2 POP DUP4 DUP3 SUB PUSH1 0x40 DUP6 ADD MSTORE PUSH2 0x7BF DUP3 DUP14 PUSH2 0x6ED JUMP JUMPDEST DUP5 DUP2 SUB PUSH1 0x60 DUP7 ADD MSTORE DUP12 MLOAD DUP1 DUP3 MSTORE DUP3 DUP14 ADD SWAP4 POP SWAP1 DUP3 ADD SWAP1 DUP5 JUMPDEST DUP2 DUP2 LT ISZERO PUSH2 0x7FB JUMPI PUSH2 0x7E9 DUP6 MLOAD PUSH2 0x87B JUMP JUMPDEST DUP4 MSTORE SWAP4 DUP4 ADD SWAP4 SWAP2 DUP4 ADD SWAP2 PUSH1 0x1 ADD PUSH2 0x7D7 JUMP JUMPDEST POP POP DUP1 SWAP4 POP POP POP POP DUP8 PUSH1 0x80 DUP4 ADD MSTORE DUP7 PUSH1 0xA0 DUP4 ADD MSTORE DUP6 PUSH1 0xC0 DUP4 ADD MSTORE DUP5 PUSH1 0xE0 DUP4 ADD MSTORE PUSH2 0x829 PUSH2 0x100 DUP4 ADD DUP6 PUSH2 0x6E0 JUMP JUMPDEST PUSH2 0x837 PUSH2 0x120 DUP4 ADD DUP5 PUSH2 0x6E0 JUMP JUMPDEST SWAP12 SWAP11 POP POP POP POP POP POP POP POP POP POP POP JUMP JUMPDEST SWAP2 DUP3 MSTORE PUSH1 0x20 DUP3 ADD MSTORE PUSH1 0x40 ADD SWAP1 JUMP JUMPDEST PUSH1 0x40 MLOAD DUP2 DUP2 ADD PUSH8 0xFFFFFFFFFFFFFFFF DUP2 GT DUP3 DUP3 LT OR ISZERO PUSH2 0x873 JUMPI PUSH1 0x0 DUP1 REVERT JUMPDEST PUSH1 0x40 MSTORE SWAP2 SWAP1 POP JUMP JUMPDEST PUSH1 0x1 PUSH1 0x1 PUSH1 0xA0 SHL SUB AND SWAP1 JUMP JUMPDEST PUSH1 0x1 PUSH1 0x1 PUSH1 0xA0 SHL SUB DUP2 AND DUP2 EQ PUSH2 0x89C JUMPI PUSH1 0x0 DUP1 REVERT JUMPDEST POP JUMP INVALID LOG2 PUSH5 0x6970667358 0x22 SLT KECCAK256 DUP7 AND GASLIMIT 0x2C GT GAS 0xA8 0x4E 0xD5 SWAP3 0xC2 0xD6 EXTCODECOPY DUP6 PUSH21 0xD9CD1DDE611AA31CAD027EE3B98A9A7EF64736F6C PUSH4 0x43000701 STOP CALLER ","sha1":"06f8721148e1393eedf4adc8ea0891c337bd213c","source":"// SPDX-License-Identifier: GPL-3.0-or-later\n// This program is free software: you can redistribute it and/or modify\n// it under the terms of the GNU General Public License as published by\n// the Free Software Foundation, either version 3 of the License, or\n// (at your option) any later version.\n\n// This program is distributed in the hope that it will be useful,\n// but WITHOUT ANY WARRANTY; without even the implied warranty of\n// MERCHANTABILITY or FITNESS FOR A PARTICULAR PURPOSE.  See the\n// GNU General Public License for more details.\n\n// You should have received a copy of the GNU General Public License\n// along with this program.  If not, see <http://www.gnu.org/licenses/>.\n\npragma solidity ^0.7.0;\npragma experimental ABIEncoderV2;\n\nimport \"@balancer-labs/v2-vault/contracts/interfaces/IVault.sol\";\n\nimport \"@balancer-labs/v2-pool-utils/contracts/factories/BasePoolSplitCodeFactory.sol\";\nimport \"@balancer-labs/v2-pool-utils/contracts/factories/FactoryWidePauseWindow.sol\";\n\nimport \"./GyroThreePool.sol\";\n\ncontract GyroThreePoolFactory is BasePoolSplitCodeFactory, FactoryWidePauseWindow {\n    address public immutable gyroConfigAddress;\n\n    constructor(IVault vault, address _gyroConfigAddress) BasePoolSplitCodeFactory(vault, type(GyroThreePool).creationCode) {\n        gyroConfigAddress = _gyroConfigAddress;\n    }\n\n    /**\n     * @dev Deploys a new `GyroThreePool`.\n     */\n    function create(\n        string memory name,\n        string memory symbol,\n        IERC20[] memory tokens,\n        uint256 root3Alpha,\n        uint256 swapFeePercentage,\n        address owner\n    ) external returns (address) {\n        (uint256 pauseWindowDuration, uint256 bufferPeriodDuration) = getPauseConfiguration();\n\n        return\n            _create(\n                abi.encode(\n                    getVault(),\n                    name,\n                    symbol,\n                    tokens,\n                    root3Alpha,\n                    swapFeePercentage,\n                    pauseWindowDuration,\n                    bufferPeriodDuration,\n                    owner,\n                    gyroConfigAddress\n                )\n            );\n    }\n}\n","sourcePath":"contracts/cpmmv-3/GyroThreePoolFactory.sol","type":"contract","deployment":{"address":"0xC2Fd661cED12D2aaC91CD904bE268FAe7982ca6C","chainid":"137","blockHeight":26859748}}