{"abi":[{"inputs":[{"internalType":"contract IVault","name":"vault","type":"address"},{"internalType":"address","name":"_gyroConfigAddress","type":"address"}],"stateMutability":"nonpayable","type":"constructor","name":"constructor"},{"anonymous":false,"inputs":[{"indexed":true,"internalType":"address","name":"pool","type":"address"}],"name":"PoolCreated","type":"event"},{"inputs":[],"name":"BUFFER_PERIOD_DURATION","outputs":[{"internalType":"uint256","name":"","type":"uint256"}],"stateMutability":"view","type":"function"},{"inputs":[],"name":"PAUSE_WINDOW_DURATION","outputs":[{"internalType":"uint256","name":"","type":"uint256"}],"stateMutability":"view","type":"function"},{"inputs":[{"internalType":"string","name":"name","type":"string"},{"internalType":"string","name":"symbol","type":"string"},{"internalType":"contract IERC20[]","name":"tokens","type":"address[]"},{"internalType":"uint256[]","name":"sqrts","type":"uint256[]"},{"internalType":"uint256","name":"swapFeePercentage","type":"uint256"},{"internalType":"bool","name":"oracleEnabled","type":"bool"},{"internalType":"address","name":"owner","type":"address"},{"internalType":"address","name":"capManager","type":"address"},{"components":[{"internalType":"bool","name":"capEnabled","type":"bool"},{"internalType":"uint120","name":"perAddressCap","type":"uint120"},{"internalType":"uint128","name":"globalCap","type":"uint128"}],"internalType":"struct ICappedLiquidity.CapParams","name":"capParams","type":"tuple"},{"internalType":"address","name":"pauseManager","type":"address"}],"name":"create","outputs":[{"internalType":"address","name":"","type":"address"}],"stateMutability":"nonpayable","type":"function"},{"inputs":[],"name":"getCreationCode","outputs":[{"internalType":"bytes","name":"","type":"bytes"}],"stateMutability":"view","type":"function"},{"inputs":[],"name":"getCreationCodeContracts","outputs":[{"internalType":"address","name":"contractA","type":"address"},{"internalType":"address","name":"contractB","type":"address"}],"stateMutability":"view","type":"function"},{"inputs":[],"name":"getPauseConfiguration","outputs":[{"internalType":"uint256","name":"pauseWindowDuration","type":"uint256"},{"internalType":"uint256","name":"bufferPeriodDuration","type":"uint256"}],"stateMutability":"view","type":"function"},{"inputs":[],"name":"getVault","outputs":[{"internalType":"contract IVault","name":"","type":"address"}],"stateMutability":"view","type":"function"},{"inputs":[],"name":"gyroConfigAddress","outputs":[{"internalType":"address","name":"","type":"address"}],"stateMutability":"view","type":"function"},{"inputs":[{"internalType":"address","name":"pool","type":"address"}],"name":"isPoolFromFactory","outputs":[{"internalType":"bool","name":"","type":"bool"}],"stateMutability":"view","type":"function"}],"bytecode":"6101606040523480156200001257600080fd5b50604051620073243803806200732483398101604081905262000035916200028a565b816040518060200162000048906200027c565b601f1982820381018352601f909101166040528051819060006002820460a081905280830360e081905281855290915083620000908162000139602090811b6200036e17901c565b60601b6001600160601b0319166080528285018051838252620000bf8262000139602090811b6200036e17901c565b6001600160601b0319606091821b811660c0529690935290529590951b90911661010052505050426276a700016101205250620001096001600160a01b038216151560696200018d565b620001216001600160a01b038316151560696200018d565b60601b6001600160601b0319166101405250620002de565b80517f602038038060206000396000f3fefefefefefefefefefefefefefefefefefefe808352600091602081018484f09084529150620001876001600160a01b03831615156101ac620001a2565b50919050565b816200019e576200019e81620001b3565b5050565b816200019e576200019e81620001c8565b620001c5816223aca960e91b6200021b565b50565b62461bcd60e51b6000908152602060045260076024526642414c23000030600a808404818106603090810160081b95839006959095019082900491820690940160101b939093010160c81b604452606490fd5b62461bcd60e51b600090815260206004526007602452600a808404818106603090810160081b958390069590950190829004918206850160101b01602363ffffff0060e086901c160160181b0190930160c81b60445260e882901c90606490fd5b6163278062000ffd83390190565b600080604083850312156200029d578182fd5b8251620002aa81620002c8565b6020840151909250620002bd81620002c8565b809150509250929050565b6001600160a01b0381168114620001c557600080fd5b60805160601c60a05160c05160601c60e0516101005160601c610120516101405160601c610cab620003526000398061016f52806103195250806101dd528061020652508061026c5250806103c85250806101b452806104445250806103e952508061019352806104205250610cab6000f3fe608060405234801561001057600080fd5b50600436106100925760003560e01c806345be0bd41161006657806345be0bd4146100f65780636634b7531461010b5780638d928af81461012b578063d146468614610133578063f4abb15c1461013b57610092565b8062c194db146100975780630bc7b4c4146100b5578063174481fa146100ca5780632da47c40146100e0575b600080fd5b61009f61014e565b6040516100ac9190610ac0565b60405180910390f35b6100bd61016d565b6040516100ac9190610a87565b6100d2610191565b6040516100ac929190610a9b565b6100e86101d7565b6040516100ac929190610c0d565b6100fe610241565b6040516100ac9190610c04565b61011e6101193660046108d8565b610248565b6040516100ac9190610ab5565b6100bd61026a565b6100fe61028e565b6100bd6101493660046108f4565b610295565b6060610168604051806020016040528060008152506103c0565b905090565b7f000000000000000000000000000000000000000000000000000000000000000081565b7f00000000000000000000000000000000000000000000000000000000000000007f00000000000000000000000000000000000000000000000000000000000000009091565b600080427f000000000000000000000000000000000000000000000000000000000000000081101561023357807f000000000000000000000000000000000000000000000000000000000000000003925062278d00915061023c565b60009250600091505b509091565b6276a70081565b6001600160a01b03811660009081526020819052604090205460ff165b919050565b7f000000000000000000000000000000000000000000000000000000000000000090565b62278d0081565b6000806102a68c8c8c8b8b8b610499565b905060006040518060c001604052808381526020018b6000815181106102c857fe5b602002602001015181526020018b6001815181106102e257fe5b60200260200101518152602001876001600160a01b03168152602001868152602001856001600160a01b0316815250905061035d817f0000000000000000000000000000000000000000000000000000000000000000604051602001610349929190610ad3565b60405160208183030381529060405261054e565b9d9c50505050505050505050505050565b80517f602038038060206000396000f3fefefefefefefefefefefefefefefefefefefe808352600091602081018484f090845291506103ba6001600160a01b03831615156101ac6105ae565b50919050565b8051604080517f00000000000000000000000000000000000000000000000000000000000000007f0000000000000000000000000000000000000000000000000000000000000000818101858101848101602090810190965280855293957f00000000000000000000000000000000000000000000000000000000000000009592947f000000000000000000000000000000000000000000000000000000000000000094938801866000828a3c846000888301883c506020898101908985010161048b8183866105c0565b505050505050505050919050565b6104a161068b565b6040518061014001604052806104b561026a565b6001600160a01b03168152602001888152602001878152602001866000815181106104dc57fe5b60200260200101516001600160a01b03168152602001866001815181106104ff57fe5b60200260200101516001600160a01b031681526020018581526020016276a700815260200162278d0081526020018415158152602001836001600160a01b031681525090509695505050505050565b60008061055a836105fe565b6001600160a01b038116600081815260208190526040808220805460ff191660011790555192935090917f83a48fbcfc991335314e74d0496aab6a1987e992ddc85dddbcc4d6dd6ef2e9fc9190a292915050565b816105bc576105bc81610638565b5050565b5b602081106105e0578151835260209283019290910190601f19016105c1565b905182516020929092036101000a6000190180199091169116179052565b60008061060a836103c0565b905060008151602083016000f090506001600160a01b038116610631573d6000803e3d6000fd5b9392505050565b62461bcd60e51b6000908152602060045260076024526642414c23000030600a808404818106603090810160081b95839006959095019082900491820690940160101b939093010160c81b604452606490fd5b60405180610140016040528060006001600160a01b03168152602001606081526020016060815260200160006001600160a01b0316815260200160006001600160a01b0316815260200160008152602001600081526020016000815260200160001515815260200160006001600160a01b031681525090565b803561026581610c5d565b600082601f83011261071f578081fd5b8135602061073461072f83610c3f565b610c1b565b8281528181019085830183850287018401881015610750578586fd5b855b8581101561077757813561076581610c5d565b84529284019290840190600101610752565b5090979650505050505050565b600082601f830112610794578081fd5b813560206107a461072f83610c3f565b82815281810190858301838502870184018810156107c0578586fd5b855b85811015610777578135845292840192908401906001016107c2565b8035801515811461026557600080fd5b600082601f8301126107fe578081fd5b813567ffffffffffffffff81111561081257fe5b610825601f8201601f1916602001610c1b565b818152846020838601011115610839578283fd5b816020850160208301379081016020019190915292915050565b600060608284031215610864578081fd5b6040516060810181811067ffffffffffffffff8211171561088157fe5b604052905080610890836107de565b815260208301356001600160781b03811681146108ac57600080fd5b602082015260408301356001600160801b03811681146108cb57600080fd5b6040919091015292915050565b6000602082840312156108e9578081fd5b813561063181610c5d565b6000806000806000806000806000806101808b8d031215610913578586fd5b8a3567ffffffffffffffff8082111561092a578788fd5b6109368e838f016107ee565b9b5060208d013591508082111561094b578788fd5b6109578e838f016107ee565b9a5060408d013591508082111561096c578788fd5b6109788e838f0161070f565b995060608d013591508082111561098d578788fd5b5061099a8d828e01610784565b97505060808b013595506109b060a08c016107de565b94506109be60c08c01610704565b93506109cc60e08c01610704565b92506109dc8c6101008d01610853565b91506109eb6101608c01610704565b90509295989b9194979a5092959850565b6001600160a01b03169052565b15159052565b60008151808452815b81811015610a3457602081850181015186830182015201610a18565b81811115610a455782602083870101525b50601f01601f19169290920160200192915050565b8051151582526020808201516001600160781b0316908301526040908101516001600160801b0316910152565b6001600160a01b0391909116815260200190565b6001600160a01b0392831681529116602082015260400190565b901515815260200190565b6000602082526106316020830184610a0f565b6000604082526101408451610100806040860152610af483860183516109fc565b602082015183610160870152610b0e610280870182610a0f565b935050604082015161013f1986850301610180870152610b2e8482610a0f565b9350506060820151610b446101a08701826109fc565b506080820151610b586101c08701826109fc565b5060a08201516101e086015260c082015161020086015260e0820151610220860152810151610b8b610240860182610a09565b506101209081015190610ba26102608601836109fc565b602087015160608601526040870151608086015260608701519150610bca60a08601836109fc565b60808701519150610bde60c0860183610a5a565b60a08701519150610bf1818601836109fc565b50508091505061063160208301846109fc565b90815260200190565b918252602082015260400190565b60405181810167ffffffffffffffff81118282101715610c3757fe5b604052919050565b600067ffffffffffffffff821115610c5357fe5b5060209081020190565b6001600160a01b0381168114610c7257600080fd5b5056fea26469706673582212209c97e7d69e0105790f1537c40ad4a3be4f1b618ff53d48af378f96ef69a7f48164736f6c634300070600336102e06040527f6e71edae12b1b97f4d1f60370fef10105fa2faae0126114a169c64845d6126c9610120526706f05b59d3b20000610200819052610220526000610240523480156200005057600080fd5b506040516200632738038062006327833981016040819052620000739162000bc5565b8160a001518260600151836080015184600001518060c001518160e001518260200151836040015184600001518280604051806040016040528060018152602001603160f81b81525085858a6101200151336001600160a01b031660001b806080818152505050806001600160a01b031660a0816001600160a01b031660601b8152505050816003908051906020019062000110929190620008ea565b50805162000126906004906020840190620008ea565b505060058054601260ff1990911617905550815160209283012060c052805191012060e052507f8b73c3c69bb8fe3d512ecc4cf759cc79239f7b179b0ffacaa9a75d522b39400f6101005260601b6001600160601b03191661014052506200019990506276a7008311156101946200054c565b620001ad62278d008211156101956200054c565b42919091016101608190520161018052604080516002808252606082018352600092602083019080368337019050509050816060015181600081518110620001f157fe5b60200260200101906001600160a01b031690816001600160a01b0316815250508160800151816001815181106200022457fe5b60200260200101906001600160a01b031690816001600160a01b0316815250506200025a816200056160201b62001b0d1760201c565b6101008201516200026b906200056d565b60a08201516200027b90620005c9565b81516040516309b2760f60e01b81526000916001600160a01b0316906309b2760f90620002ae9060029060040162000d6f565b602060405180830381600087803b158015620002c957600080fd5b505af1158015620002de573d6000803e3d6000fd5b505050506040513d601f19601f8201168201806040525081019062000304919062000bac565b83516040805160028082526060820183529394506001600160a01b03909216926366a9c7d2928592879290602083019080368337019050506040518463ffffffff1660e01b81526004016200035c9392919062000cd5565b600060405180830381600087803b1580156200037757600080fd5b505af11580156200038c573d6000803e3d6000fd5b5050506101a082905250606080840180516001600160601b031990831b81166101c052608086015190921b9091166101e05251620003ca9062000647565b610260526080830151620003de9062000647565b61028052505060408051808201909152600e81526d1b9bdd08185d5d1a1bdc9a5e995960921b602082015290506001600160a01b0383166200043e5760405162461bcd60e51b815260040162000435919062000d84565b60405180910390fd5b50600c80546001600160a01b0319166001600160a01b039384161790558051600b8054602084015160409094015160ff1990911692151592909217610100600160801b0319166101006001600160781b0390941693909302929092176001600160801b03908116600160801b9190921602179055620004c390821615156069620006eb565b600d80546001600160a01b0319166001600160a01b039290921691909117905560408201516020830151620004fc911161015e620006eb565b620005146001600160a01b03821615156069620006eb565b60208201516102a0526040909101516102c052600e80546001600160a01b0319166001600160a01b0390921691909117905562000e19565b816200055d576200055d81620006fc565b5050565b806200055d816200074f565b6200058981600954620007dc60201b62001b1b1790919060201c565b6009556040517f3e350b41e86a8e10f804ade6d35340d620be35569cc75ac943e8bb14ab80ead190620005be90839062000cca565b60405180910390a150565b620005de64e8d4a5100082101560cb6200054c565b620005f667016345785d8a000082111560ca6200054c565b62000612816009546200080260201b62001b301790919060201c565b6009556040517fa9ba3ffe0b6c366b81232caab38605a0699ad5398d6cce76f91ee809e322dafc90620005be90839062000db9565b600080826001600160a01b031663313ce5676040518163ffffffff1660e01b815260040160206040518083038186803b1580156200068457600080fd5b505afa15801562000699573d6000803e3d6000fd5b505050506040513d601f19601f82011682018060405250810190620006bf919062000ca7565b60ff1690506000620006de6012836200082160201b62001b3e1760201c565b600a0a925050505b919050565b816200055d576200055d8162000839565b62461bcd60e51b6000908152602060045260076024526642414c23000030600a808404818106603090810160081b95839006959095019082900491820690940160101b939093010160c81b604452606490fd5b6002815110156200076057620007d9565b6000816000815181106200077057fe5b602002602001015190506000600190505b8251811015620007d65760008382815181106200079a57fe5b60200260200101519050620007cb816001600160a01b0316846001600160a01b03161060656200054c60201b60201c565b915060010162000781565b50505b50565b6000620007fb826055856200084b60201b62001b54179092919060201c565b9392505050565b6000620007fb826056856200087460201b62001b7b179092919060201c565b6000620008338383111560016200054c565b50900390565b620007d9816223aca960e91b62000889565b60006001821b19841682846200086357600062000866565b60015b60ff16901b17949350505050565b6001600160401b03811b1992909216911b1790565b62461bcd60e51b600090815260206004526007602452600a808404818106603090810160081b958390069590950190829004918206850160101b01602363ffffff0060e086901c160160181b0190930160c81b60445260e882901c90606490fd5b828054600181600116156101000203166002900490600052602060002090601f0160209004810192826200092257600085556200096d565b82601f106200093d57805160ff19168380011785556200096d565b828001600101855582156200096d579182015b828111156200096d57825182559160200191906001019062000950565b506200097b9291506200097f565b5090565b5b808211156200097b576000815560010162000980565b80516001600160a01b0381168114620006e657600080fd5b80518015158114620006e657600080fd5b600082601f830112620009d0578081fd5b81516001600160401b03811115620009e457fe5b620009f9601f8201601f191660200162000dc2565b81815284602083860101111562000a0e578283fd5b62000a2182602083016020870162000de6565b949350505050565b60006060828403121562000a3b578081fd5b604051606081016001600160401b038111828210171562000a5857fe5b60405290508062000a6983620009ae565b815260208301516001600160781b038116811462000a8657600080fd5b602082015260408301516001600160801b038116811462000aa657600080fd5b6040919091015292915050565b600061014080838503121562000ac7578182fd5b62000ad28162000dc2565b91505062000ae08262000996565b815260208201516001600160401b038082111562000afd57600080fd5b62000b0b85838601620009bf565b6020840152604084015191508082111562000b2557600080fd5b5062000b3484828501620009bf565b60408301525062000b486060830162000996565b606082015262000b5b6080830162000996565b608082015260a082015160a082015260c082015160c082015260e082015160e082015261010062000b8e818401620009ae565b9082015261012062000ba283820162000996565b9082015292915050565b60006020828403121562000bbe578081fd5b5051919050565b6000806040838503121562000bd8578081fd5b82516001600160401b038082111562000bef578283fd5b90840190610100828703121562000c04578283fd5b60405160c08101818110838211171562000c1a57fe5b60405282518281111562000c2c578485fd5b62000c3a8882860162000ab3565b825250602083015160208201526040830151604082015262000c5f6060840162000996565b606082015262000c73876080850162000a29565b608082015262000c8660e0840162000996565b60a0820152935062000c9e9150506020840162000996565b90509250929050565b60006020828403121562000cb9578081fd5b815160ff81168114620007fb578182fd5b901515815260200190565b60006060820185835260206060818501528186518084526080860191508288019350845b8181101562000d205784516001600160a01b03168352938301939183019160010162000cf9565b505084810360408601528551808252908201925081860190845b8181101562000d615782516001600160a01b03168552938301939183019160010162000d3a565b509298975050505050505050565b602081016003831062000d7e57fe5b91905290565b600060208252825180602084015262000da581604085016020870162000de6565b601f01601f19169190910160400192915050565b90815260200190565b6040518181016001600160401b038111828210171562000dde57fe5b604052919050565b60005b8381101562000e0357818101518382015260200162000de9565b8381111562000e13576000848401525b50505050565b60805160a05160601c60c05160e05161010051610120516101405160601c61016051610180516101a0516101c05160601c6101e05160601c61020051610220516102405161026051610280516102a0516102c05161544062000ee76000398061300a52508061303152508061204d525080612074525050806137855250806137ac525050806114c7525080610ae8525080611cdf525080611cbb52508061130b52508061185e525080611f0f525080611f51525080611f305250806112e752508061126d52506154406000f3fe608060405234801561001057600080fd5b50600436106103275760003560e01c8063707dcd1e116101b85780639b02cdde11610104578063b48b5b40116100a2578063d5c096c41161007c578063d5c096c41461069b578063dd62ed3e146106ae578063f89f27ed146106c1578063ffd088eb146106c957610327565b8063b48b5b4014610678578063c0ff1a1514610680578063d505accf1461068857610327565b8063a9059cbb116100de578063a9059cbb14610642578063aaabadc514610655578063abd13afe1461065d578063b10be7391461066557610327565b80639b02cdde146106145780639d2c110c1461061c578063a457c2d71461062f57610327565b80638456cb5911610171578063893d20e81161014b578063893d20e8146105f45780638d928af8146105fc5780638dd9f89d1461060457806395d89b411461060c57610327565b80638456cb59146105c6578063851c1bb3146105ce57806387ec6817146105e157610327565b8063707dcd1e1461054457806370a082311461055957806374f3b0091461056c57806376e54a461461058d5780637ecebe00146105a05780638002df18146105b357610327565b806338fff2d0116102775780634a6b0b151161023057806360d1507c1161020a57806360d1507c146104ee578063679aefce146105145780636b8432391461051c5780636d785a871461053c57610327565b80634a6b0b15146104ab57806355c67628146104c55780636028bfd4146104cd57610327565b806338fff2d01461043c57806339509351146104445780633aeae0d3146104575780633c4dd5bb1461046c5780633f4ba83a1461048e57806344bbdb551461049657610327565b80631dccd830116102e4578063313ce567116102be578063313ce567146103f95780633331bc361461040e5780633644e5151461042157806338e9922e1461042957610327565b80631dccd830146103be57806323b872dd146103de578063292c914a146103f157610327565b806306fdde031461032c578063095ea7b31461034a5780630e608b301461036a57806316c38b3c1461037f57806318160ddd146103925780631c0de051146103a7575b600080fd5b6103346106d1565b60405161034191906152c5565b60405180910390f35b61035d610358366004614ac4565b610767565b60405161034191906151be565b61037d61037836600461499f565b61077e565b005b61037d61038d366004614d54565b61082f565b61039a610843565b60405161034191906151e1565b6103af610849565b604051610341939291906151c9565b6103d16103cc366004614c88565b610872565b6040516103419190615186565b61035d6103ec366004614a0f565b610995565b61037d610a09565b610401610a3d565b60405161034191906153a7565b61037d61041c366004615050565b610a46565b61039a610abe565b61037d610437366004615038565b610acd565b61039a610ae6565b61035d610452366004614ac4565b610b0a565b61045f610b45565b6040516103419190615318565b61047f61047a366004615071565b610b90565b60405161034193929190615391565b61037d610be3565b61049e610cd8565b60405161034191906150fd565b6104b3610ce7565b6040516103419695949392919061521a565b61039a610d42565b6104e06104db366004614d6e565b610d4f565b604051610341929190615378565b6105016104fc366004615038565b610d80565b60405161034197969594939291906151ea565b61039a610dc9565b61052f61052a366004614bba565b610dee565b6040516103419190615111565b61049e610ea4565b61054c610eb3565b6040516103419190615155565b61039a61056736600461499f565b610ec3565b61057f61057a366004614d6e565b610ee2565b604051610341929190615199565b61037d61059b366004614ec4565b610f87565b61039a6105ae36600461499f565b6110ae565b61037d6105c136600461499f565b6110c9565b61037d6111af565b61039a6105dc366004614e6a565b611267565b6104e06105ef366004614d6e565b6112c0565b61049e6112e5565b61049e611309565b6103d161132d565b610334611437565b61039a611498565b61039a61062a366004614f42565b61149e565b61035d61063d366004614ac4565b611664565b61035d610650366004614ac4565b6116a2565b61049e6116af565b61049e6116b9565b61039a610673366004614e92565b6116c8565b61039a61175d565b61039a611763565b61037d610696366004614a4f565b61182f565b61057f6106a9366004614d6e565b61199f565b61039a6106bc3660046149d7565b611abf565b6103d1611afc565b61039a611b06565b60038054604080516020601f600260001961010060018816150201909516949094049384018190048102820181019092528281526060939092909183018282801561075d5780601f106107325761010080835404028352916020019161075d565b820191906000526020600020905b81548152906001019060200180831161074057829003601f168201915b5050505050905090565b6000610774338484611b90565b5060015b92915050565b600c5460408051808201909152600e81526d1b9bdd08185d5d1a1bdc9a5e995960921b6020820152906001600160a01b031633146107d85760405162461bcd60e51b81526004016107cf91906152c5565b60405180910390fd5b50600c80546001600160a01b0319166001600160a01b0383161790556040517fb8fd9afc34c38fcd13b9a3b7646482eb1fddcefb40af2c70609972816eba3208906108249083906150fd565b60405180910390a150565b610837611bf2565b61084081611c20565b50565b60025490565b6000806000610856611c9c565b159250610861611cb9565b915061086b611cdd565b9050909192565b606081516001600160401b038111801561088b57600080fd5b506040519080825280602002602001820160405280156108b5578160200160208202803683370190505b50905060006108c2611d01565b905060005b835181101561098e5773__QueryProcessor________________________6379eaef8260088684815181106108f857fe5b6020026020010151856040518463ffffffff1660e01b815260040161091f9392919061528c565b60206040518083038186803b15801561093757600080fd5b505af415801561094b573d6000803e3d6000fd5b505050506040513d601f19601f8201168201806040525081019061096f9190614eac565b83828151811061097b57fe5b60209081029190910101526001016108c7565b5050919050565b6000806109a28533611abf565b90506109c6336001600160a01b03871614806109be5750838210155b61019e611d0e565b6109d1858585611d1c565b336001600160a01b038616148015906109ec57506000198114155b156109fe576109fe8533858403611b90565b506001949350505050565b610a11611e04565b610a19611bf2565b610a236001611e17565b6000610a2d610843565b1115610a3b57610a3b611e57565b565b60055460ff1690565b610a618183108015610a5a57506104008211155b6064611d0e565b6000610a766001600080600080600080611e9f565b9050825b82811015610ab857600081815260086020526040902054610a9a90611eff565b610ab05760008181526008602052604090208290555b600101610a7a565b50505050565b6000610ac8611f0b565b905090565b610ad5611bf2565b610add611e04565b61084081611fc9565b7f000000000000000000000000000000000000000000000000000000000000000090565b3360008181526001602090815260408083206001600160a01b03871684529091528120549091610774918590610b409086612032565b611b90565b610b4d614841565b5060408051606081018252600b5460ff81161515825261010081046001600160781b03166020830152600160801b90046001600160801b03169181019190915290565b600080600080610b9f85612044565b90506000610bad8615612044565b9050610bb98883612098565b9750610bc58782612098565b9650610bd28888886120a4565b945094509450505093509350939050565b600d546040805180820190915260118152703737ba103830bab9b29036b0b730b3b2b960791b6020820152906001600160a01b03163314610ca25760405162461bcd60e51b81526004018080602001828103825283818151815260200191508051906020019080838360005b83811015610c67578181015183820152602001610c4f565b50505050905090810190601f168015610c945780820380516001836020036101000a031916815260200191505b509250505060405180910390fd5b50610cad6000610837565b6040517f215385c8bfc731925ec8068d7baa50f6b6f34417cc7804f7273dc2c0b3db279090600090a1565b600e546001600160a01b031681565b60008060008060008060006009549050610d0081612173565b9650610d0b8161217f565b9550610d168161218c565b9450610d2181612199565b9350610d2c816121a6565b9250610d37816121b3565b915050909192939495565b6000610ac86009546121b3565b60006060610d5f865160026121c0565b610d74898989898989896121cd6122e161235f565b97509795505050505050565b6000806000806000806000610d9b610400891061013b611d0e565b6000610da689612472565b9050610db181612484565b959f949e50929c50909a509850965090945092505050565b6000610ac8610dd6610843565b610de8610de1611763565b60026124e7565b9061250b565b606081516001600160401b0381118015610e0757600080fd5b50604051908082528060200260200182016040528015610e31578160200160208202803683370190505b5090506000610e3e611d01565b9050610e48614861565b60005b8451811015610e9c57848181518110610e6057fe5b60200260200101519150610e7d8260000151848460200151612565565b848281518110610e8957fe5b6020908102919091010152600101610e4b565b505050919050565b600c546001600160a01b031681565b610ebb614878565b610ac86125fe565b6001600160a01b0381166000908152602081905260409020545b919050565b60608088610f0c610ef1611309565b6001600160a01b0316336001600160a01b03161460cd611d0e565b610f21610f17610ae6565b82146101f4611d0e565b610f2a87612624565b6000806000610f3e8d8d8d8d8d8d8d6121cd565b925092509250610f4e8c84612686565b610f57826122e1565b610f60816122e1565b610f68611c9c565b15610f7557610f75611e57565b909c909b509950505050505050505050565b600c5460408051808201909152600e81526d1b9bdd08185d5d1a1bdc9a5e995960921b6020820152906001600160a01b03163314610fd85760405162461bcd60e51b81526004016107cf91906152c5565b50600b5460408051808201909152601081526f1c1bdbdb081a5cc81d5b98d85c1c195960821b60208201529060ff166110245760405162461bcd60e51b81526004016107cf91906152c5565b508051600b8054602084015160408086015160ff19909316941515949094176fffffffffffffffffffffffffffffff0019166101006001600160781b0390921691909102176001600160801b03908116600160801b919092160217815590517f2abf5970d7bc1a2b36eaae52dd2cc353edb0337c7284ef8a01973081b4e04424916108249161534d565b6001600160a01b031660009081526006602052604090205490565b600d546040805180820190915260118152703737ba103830bab9b29036b0b730b3b2b960791b60208201526001600160a01b039091169033821461114e5760405162461bcd60e51b8152602060048201818152835160248401528351909283926044909101919085019080838360008315610c67578181015183820152602001610c4f565b50600d80546001600160a01b0319166001600160a01b03848116918217909255604080519284168352602083019190915280517f1ffccd1fa96f4fb3415df8048a0fd107344e262d2d246c85105e2a3f8f3e81989281900390910190a15050565b600d546040805180820190915260118152703737ba103830bab9b29036b0b730b3b2b960791b6020820152906001600160a01b031633146112315760405162461bcd60e51b8152602060048201818152835160248401528351909283926044909101919085019080838360008315610c67578181015183820152602001610c4f565b5061123c6001610837565b6040517f681eace576127d0553b224436a09801fb47d042942cbff59d7d4ff04d8fa03d790600090a1565b604080517f00000000000000000000000000000000000000000000000000000000000000006020808301919091526001600160e01b03198416828401528251602481840301815260449092019092528051910120919050565b600060606112d0865160026121c0565b610d748989898989898961269061276061235f565b7f000000000000000000000000000000000000000000000000000000000000000090565b7f000000000000000000000000000000000000000000000000000000000000000090565b60606000611339611309565b6001600160a01b031663f94d466861134f610ae6565b6040518263ffffffff1660e01b815260040161136b91906151e1565b60006040518083038186803b15801561138357600080fd5b505afa158015611397573d6000803e3d6000fd5b505050506040513d6000823e601f3d908101601f191682016040526113bf9190810190614aef565b509150506113cc81612624565b611400816000815181106113dc57fe5b6020026020010151826001815181106113f157fe5b602002602001015160016120a4565b9091508360008151811061141057fe5b602002602001018460018151811061142457fe5b6020908102919091010191909152525090565b60048054604080516020601f600260001961010060018816150201909516949094049384018190048102820181019092528281526060939092909183018282801561075d5780601f106107325761010080835404028352916020019161075d565b600a5490565b60006114a8611e04565b83608001516114b8610ef1611309565b6114c3610f17610ae6565b60007f00000000000000000000000000000000000000000000000000000000000000006001600160a01b031686602001516001600160a01b0316149050600061150b82612044565b905060006115198315612044565b90506115258783612098565b96506115318682612098565b955060008060006115438a8a886120a4565b92509250925061158a8b60a001518761155c578a61155e565b8b5b88611569578c61156b565b8b5b896115765784611578565b855b8a6115835786611585565b855b6127c2565b60008b51600181111561159957fe5b14156116085760006115b76115ac610d42565b60608e01519061286c565b90506115d96115d3828e606001516128c190919063ffffffff16565b87612098565b60608d015260006115ed8d8d8d87876128d7565b90506115f981876128f6565b9950505050505050505061165c565b6116168b6060015185612098565b60608c0152600061162a8c8c8c8686612902565b90506116368187612915565b905061165261164b611646610d42565b612921565b8290612947565b9850505050505050505b509392505050565b6000806116713385611abf565b905080831061168b5761168633856000611b90565b611698565b6116983385858403611b90565b5060019392505050565b6000610774338484611d1c565b6000610ac86129ad565b600d546001600160a01b031681565b600073__QueryProcessor________________________630397bee06008846116ef611d01565b6040518463ffffffff1660e01b815260040161170d93929190615244565b60206040518083038186803b15801561172557600080fd5b505af4158015611739573d6000803e3d6000fd5b505050506040513d601f19601f820116820180604052508101906107789190614eac565b61040090565b60008061176e611309565b6001600160a01b031663f94d4668611784610ae6565b6040518263ffffffff1660e01b81526004016117a091906151e1565b60006040518083038186803b1580156117b857600080fd5b505afa1580156117cc573d6000803e3d6000fd5b505050506040513d6000823e601f3d908101601f191682016040526117f49190810190614aef565b5091505060006118026125fe565b905061180d82612624565b611828828260005b60200201518360015b6020020151612a27565b9250505090565b61183d8442111560d1611d0e565b6001600160a01b0380881660008181526006602090815260408083205481517f00000000000000000000000000000000000000000000000000000000000000008185015280830195909552948b166060850152608084018a905260a0840185905260c08085018a90528151808603909101815260e090940190528251920191909120906118c982612a5a565b9050600060018288888860405160008152602001604052604051808581526020018460ff1681526020018381526020018281526020019450505050506020604051602081039080840390855afa158015611927573d6000803e3d6000fd5b5050604051601f190151915061196990506001600160a01b0382161580159061196157508b6001600160a01b0316826001600160a01b0316145b6101f8611d0e565b6001600160a01b038b1660009081526006602052604090206001850190556119928b8b8b611b90565b5050505050505050505050565b606080886119ae610ef1611309565b6119b9610f17610ae6565b6119c1611e04565b60006119cb610843565b611a3b576119db8b8b8b88612aa6565b945090506119f0620f424082101560cc611d0e565b6119fe6000620f4240612b30565b611a0d89620f42408303612b30565b611a1684612760565b6040805160028082526060820183529091602083019080368337019050509250611aa9565b611a4488612624565b611a778789600081518110611a5557fe5b60200260200101518a600181518110611a6a57fe5b6020026020010151612b3a565b611a868b8b8b8b8b8b8b612690565b90955093509050611a978982612b30565b611aa084612760565b611aa9836122e1565b611ab1611e57565b505097509795505050505050565b6000611ac9611309565b6001600160a01b0316826001600160a01b03161415611aeb5750600019610778565b611af58383612b3f565b9050610778565b6060610ac8612b6a565b6201de2090565b80611b1781612bd9565b5050565b6000611b2983836055611b54565b9392505050565b6000611b2983836056611b7b565b6000611b4e838311156001611d0e565b50900390565b60006001821b1984168284611b6a576000611b6d565b60015b60ff16901b17949350505050565b6001600160401b03811b1992909216911b1790565b6001600160a01b03808416600081815260016020908152604080832094871680845294825291829020859055815185815291517f8c5be1e5ebec7d5bd14f71427d1e84f3dd0314c0f7b2291e5b200ac8c7c3b9259281900390910190a3505050565b6000611c096000356001600160e01b031916611267565b9050610840611c188233612c52565b610191611d0e565b8015611c4057611c3b611c31611cb9565b4210610193611d0e565b611c55565b611c55611c4b611cdd565b42106101a9611d0e565b6007805482151560ff19909116811790915560408051918252517f9e3a5e37224532dea67b89face185703738a228a6e8a23dee546960180d3be649181900360200190a150565b6000611ca6611cdd565b421180610ac857505060075460ff161590565b7f000000000000000000000000000000000000000000000000000000000000000090565b7f000000000000000000000000000000000000000000000000000000000000000090565b6000610ac8600954612199565b81611b1757611b1781612d54565b611d336001600160a01b0384161515610198611d0e565b611d4a6001600160a01b0383161515610199611d0e565b611d55838383612b3a565b6001600160a01b038316600090815260208190526040902054611d7b90826101a0612da7565b6001600160a01b038085166000908152602081905260408082209390935590841681522054611daa9082612032565b6001600160a01b038084166000818152602081815260409182902094909455805185815290519193928716927fddf252ad1be2c89b69c2b068fc378daa952ba7f163c4a11628f55a4df523b3ef92918290030190a3505050565b610a3b611e0f611c9c565b610192611d0e565b600954611e249082611b1b565b6009556040517f3e350b41e86a8e10f804ade6d35340d620be35569cc75ac943e8bb14ab80ead1906108249083906151be565b600954611e63816121a6565b1561084057611e7d611e76600a54612dbd565b8290612dfd565b9050611e99611e92611e8d610843565b612dbd565b8290612e0a565b60095550565b6000611eab8282612e18565b611eb684601f612e1c565b611ec1866054612e2d565b611ecc88606a612e1c565b611ed78a609f612e2d565b611ee28c60b5612e1c565b611eed8e60ea612e2d565b17171717171798975050505050505050565b60006107788282612e3a565b60007f00000000000000000000000000000000000000000000000000000000000000007f00000000000000000000000000000000000000000000000000000000000000007f0000000000000000000000000000000000000000000000000000000000000000611f78612e44565b3060405160200180868152602001858152602001848152602001838152602001826001600160a01b031681526020019550505050505060405160208183030381529060405280519060200120905090565b611fdc64e8d4a5100082101560cb611d0e565b611ff267016345785d8a000082111560ca611d0e565b600954611fff9082611b30565b6009556040517fa9ba3ffe0b6c366b81232caab38605a0699ad5398d6cce76f91ee809e322dafc906108249083906151e1565b6000828201611b298482101583611d0e565b600081612071577f0000000000000000000000000000000000000000000000000000000000000000610778565b507f0000000000000000000000000000000000000000000000000000000000000000919050565b6000611b2983836124e7565b604080516002808252606082018352600092839283928392602083019080368337019050509050846120d657856120d8565b865b816000815181106120e557fe5b602002602001018181525050846120fc57866120fe565b855b8160018151811061210b57fe5b60200260200101818152505060006121216125fe565b905061212f82826000611815565b9450600061213d8287612e48565b90508661214e576020810151612151565b80515b94508661215f578051612165565b60208101515b935050505093509350939050565b60006107788282612e7c565b6000610778826016612e7c565b600061077882602c612e3a565b600061077882604b612ea3565b6000610778826055612eab565b6000610778826056612eb5565b611b178183146067611d0e565b600060608060006121dc6125fe565b90506121e6611c9c565b156122955760006122018983835b602002015184600161181e565b9050600061220f8383612e48565b905061225e898b60008151811061222257fe5b60200260200101518c60018151811061223757fe5b60200260200101518460006002811061224c57fe5b602002015185600160200201516127c2565b61226782612ec2565b6122718a88612eef565b909650945061228a8287612283610843565b6000612f3b565b600a55506122ab9050565b61229f8886612eef565b600019600a5590945092505b60408051600280825260608201835286928692919060208301908036833701905050935093509350509750975097945050505050565b612308816000815181106122f157fe5b60200260200101516123036001612044565b612f93565b8160008151811061231557fe5b6020026020010181815250506123438160018151811061233157fe5b60200260200101516123036000612044565b8160018151811061235057fe5b60200260200101818152505050565b33301461241d576000306001600160a01b03166000366040516123839291906150ed565b6000604051808303816000865af19150503d80600081146123c0576040519150601f19603f3d011682016040523d82523d6000602084013e6123c5565b606091505b5050905080600081146123d457fe5b60046000803e6000516001600160e01b0319166343adbafb60e01b81146123ff573d6000803e3d6000fd5b506020600460003e604060205260243d03602460403e601c3d016000f35b61242686612624565b60008061243c8b8b8b8b8b8b8b8b63ffffffff16565b509150915061244e818463ffffffff16565b8051601f1982018390526343adbafb603f1983015260200260231982016044820181fd5b60009081526008602052604090205490565b600080600080600080600061249888612fb3565b96506124a388612fc0565b95506124ae88612fcd565b94506124b988612fda565b93506124c488612fe7565b92506124cf88612ff4565b91506124da88611eff565b9050919395979092949650565b6000828202611b2984158061250457508385838161250157fe5b04145b6003611d0e565b60008161251e5761251e60006004611d0e565b8261252b57506000610778565b670de0b6b3a76400008381029084828161254157fe5b04146125535761255360006005611d0e565b82818161255c57fe5b04949350505050565b6040516334171a8560e01b815260009073__QueryProcessor________________________906334171a85906125a690600890889088908890600401615266565b60206040518083038186803b1580156125be57600080fd5b505af41580156125d2573d6000803e3d6000fd5b505050506040513d601f19601f820116820180604052508101906125f69190614eac565b949350505050565b612606614878565b6126106001613001565b815261261c6000613001565b602082015290565b61264b8160008151811061263457fe5b60200260200101516126466001612044565b6124e7565b8160008151811061265857fe5b6020026020010181815250506123438160018151811061267457fe5b60200260200101516126466000612044565b611b178282613055565b6000606080600061269f6125fe565b905060006126ae8983836121f4565b905060006126bc8383612e48565b90506126cf898b60008151811061222257fe5b6126d882612ec2565b6000806126e58c8a61310c565b600b54919350915060ff161561270f5761270f826127028f610ec3565b61270a610843565b613146565b612723848361271c610843565b6001612f3b565b600a556040805160028082526060820183528492849291906020830190803683370190505097509750975050505050509750975097945050505050565b6127878160008151811061277057fe5b60200260200101516127826001612044565b613258565b8160008151811061279457fe5b602002602001018181525050612343816001815181106127b057fe5b60200260200101516127826000612044565b6009546127ce816121a6565b80156127d957508543115b156128645760006127ec8685878661328b565b90506000612805878688876128008861217f565b6132a5565b9050600061281284612199565b9050600061281f8561218c565b90506000612838828487876128338b612173565b6132e9565b90508083146119925761284b8682613340565b9550612857864261334e565b6009819055955050505050505b505050505050565b600082820283158061288657508284828161288357fe5b04145b6128965761289660006003611d0e565b806128a5576000915050610778565b670de0b6b3a764000060001982015b0460010191505092915050565b600082821115611b4e57611b4e60006001611d0e565b60006128ea85858860600151868661335c565b90505b95945050505050565b6000611b298383612f93565b60006128ea8585886060015186866133c6565b6000611b298383613258565b6000670de0b6b3a76400008210612939576000610778565b50670de0b6b3a76400000390565b60008161295a5761295a60006004611d0e565b8261296757506000610778565b670de0b6b3a76400008381029084828161297d57fe5b04146129a1576129a1670de0b6b3a764000085838161299857fe5b04146005611d0e565b8260018203816128b457fe5b60006129b7611309565b6001600160a01b031663aaabadc56040518163ffffffff1660e01b815260040160206040518083038186803b1580156129ef57600080fd5b505afa158015612a03573d6000803e3d6000fd5b505050506040513d601f19601f82011682018060405250810190610ac891906149bb565b6000806000806000612a3a888888613426565b9350935093509350612a4e848484846135a0565b98975050505050505050565b6000612a64611f0b565b82604051602001808061190160f01b81525060020183815260200182815260200192505050604051602081830303815290604052805190602001209050919050565b600060606000612ab584613614565b9050612ad06000826003811115612ac857fe5b1460ce611d0e565b6000612adb85613633565b9050612ae9815160026121c0565b612af281612624565b6000612afc6125fe565b90506000612b0b8383836121f4565b90506000612b1a8260026124e7565b600a929092555099919850909650505050505050565b611b1782826136e7565b505050565b6001600160a01b03918216600090815260016020908152604080832093909416825291909152205490565b60408051600280825260608083018452926000929190602083019080368337019050509050612b99600161377c565b81600081518110612ba657fe5b602002602001018181525050612bbc600061377c565b81600181518110612bc957fe5b6020908102919091010152905090565b600281511015612be857610840565b600081600081518110612bf757fe5b602002602001015190506000600190505b8251811015612b3a576000838281518110612c1f57fe5b60200260200101519050612c48816001600160a01b0316846001600160a01b0316106065611d0e565b9150600101612c08565b600073ba1ba1ba1ba1ba1ba1ba1ba1ba1ba1ba1ba1ba1b612c716112e5565b6001600160a01b031614158015612c8c5750612c8c836137d0565b15612cb457612c996112e5565b6001600160a01b0316336001600160a01b0316149050610778565b612cbc6129ad565b6001600160a01b0316639be2a8848484306040518463ffffffff1660e01b815260040180848152602001836001600160a01b03168152602001826001600160a01b03168152602001935050505060206040518083038186803b158015612d2157600080fd5b505afa158015612d35573d6000803e3d6000fd5b505050506040513d6020811015612d4b57600080fd5b50519050610778565b62461bcd60e51b6000908152602060045260076024526642414c23000030600a808404818106603090810160081b95839006959095019082900491820690940160101b939093010160c81b604452606490fd5b6000612db68484111583611d0e565b5050900390565b600080612dc983613802565b90506000808213612de257652d79883d20008203612dec565b652d79883d200082015b655af3107a40009005949350505050565b6000611b29838383613866565b6000611b2983836016613866565b1b90565b661fffffffffffff91909116901b90565b623fffff91909116901b90565b1c637fffffff1690565b4690565b612e50614878565b612e63600184815b60200201518461387d565b8152612e7160008481612e58565b602082015292915050565b600082821c623fffff16621fffff8113612e9657806125f6565b623fffff19179392505050565b1c6103ff1690565b1c60019081161490565b1c6001600160401b031690565b600080600080612ed4600a548661389d565b9350935093509350612ee884848484613906565b5050505050565b600060606000612efe84613614565b90506001816003811115612f0e57fe5b1415612f2857612f1e8585613926565b9093509150612f33565b612f33610150612d54565b509250929050565b60008115612f6d576000612f5984612f53888861286c565b90612947565b9050612f658682613958565b9150506125f6565b6000612f7d84610de88888613970565b9050612f8986826128c1565b9695505050505050565b6000612fa28215156004611d0e565b818381612fab57fe5b049392505050565b60006107788260ea612e7c565b60006107788260b56139a9565b600061077882609f612e7c565b600061077882606a6139a9565b6000610778826054612e7c565b600061077882601f6139a9565b60008161302e577f0000000000000000000000000000000000000000000000000000000000000000610778565b507f0000000000000000000000000000000000000000000000000000000000000000919050565b61306c6001600160a01b038316151561019b611d0e565b61307882600083612b3a565b6001600160a01b03821660009081526020819052604090205461309e90826101a1612da7565b6001600160a01b0383166000908152602081905260409020556002546130c490826139dc565b6002556040805182815290516000916001600160a01b038516917fddf252ad1be2c89b69c2b068fc378daa952ba7f163c4a11628f55a4df523b3ef9181900360200190a35050565b60006060600061311b84613614565b9050600381600381111561312b57fe5b141561313b57612f1e85856139ea565b612f33610136612d54565b60408051606081018252600b5460ff81161515825261010081046001600160781b031660208301819052600160801b9091046001600160801b031692820192909252906131938585613958565b11156040518060400160405280601a81526020017f6f7665722061646472657373206c697175696469747920636170000000000000815250906131e95760405162461bcd60e51b81526004016107cf91906152c5565b5060408101516001600160801b03166132028584613958565b11156040518060400160405280601981526020017f6f76657220676c6f62616c206c6971756964697479206361700000000000000081525090612ee85760405162461bcd60e51b81526004016107cf91906152c5565b60006132678215156004611d0e565b8261327457506000610778565b81600184038161328057fe5b046001019050610778565b60008061329a86868686613a0f565b9050612f8981612dbd565b6000806132b487878787613a0f565b905060006132cc6132c5878461286c565b8990613958565b905060006132d982612dbd565b9490940398975050505050505050565b600080613305858585426132fc8b612472565b93929190613a28565b905060784288900310158061331a5786613323565b61332387613a7a565b600081815260086020526040902092909255509695505050505050565b6000611b298383604b613a87565b6000611b298383602c613a97565b60008061337b61337485670de0b6b3a764000261286c565b8890613958565b9050600061339461337485670de0b6b3a763ffff613970565b90506133ad6133a38388613958565b610de88389613970565b92505050848111156128ed576128ed6000610165613aa9565b6000848411156133dd576133dd6000610165613aa9565b60006133f461337485670de0b6b3a764000261286c565b9050600061340d61337485670de0b6b3a763ffff613970565b9050612a4e61341c82886128c1565b612f53848961286c565b6000808080613447613438878761250b565b670de0b6b3a7640000906128c1565b93506000613472868960018151811061345c57fe5b602002602001015161250b90919063ffffffff16565b9050600061349d888a60008151811061348757fe5b602002602001015161397090919063ffffffff16565b90506134a98282613958565b94506134d0896001815181106134bb57fe5b60200260200101518a60008151811061348757fe5b9250505061350786613501886135018b6000815181106134ec57fe5b60200260200101518c60008151811061348757fe5b90613970565b9150600061354786610de889613501670de0b6b3a76400006002026135018e60018151811061353257fe5b60200260200101518f60008151811061348757fe5b9050600061357d613558888061286c565b610de88b60018151811061356857fe5b60200260200101518c60018151811061348757fe5b90506135938161358d8685613958565b90613958565b9350505093509350935093565b6000806135b586671bc16d674ec8000061286c565b905060006135cf8761350186673782dace9d900000613970565b905060006135dd8683613958565b905060006135ec826005613ab7565b905060006135fa8983613958565b9050613606818661250b565b9a9950505050505050505050565b600081806020019051602081101561362b57600080fd5b505192915050565b606081806020019051604081101561364a57600080fd5b81516020830180516040519294929383019291908464010000000082111561367157600080fd5b90830190602082018581111561368657600080fd5b82518660208202830111640100000000821117156136a357600080fd5b82525081516020918201928201910280838360005b838110156136d05781810151838201526020016136b8565b505050509190910160405250929695505050505050565b6136f360008383612b3a565b6002546137009082612032565b6002556001600160a01b0382166000908152602081905260409020546137269082612032565b6001600160a01b0383166000818152602081815260408083209490945583518581529351929391927fddf252ad1be2c89b69c2b068fc378daa952ba7f163c4a11628f55a4df523b3ef9281900390910190a35050565b6000816137a9577f0000000000000000000000000000000000000000000000000000000000000000610778565b507f0000000000000000000000000000000000000000000000000000000000000000919050565b60006137e2631c74c91760e11b611267565b82148061077857506137fa6350dd6ed960e01b611267565b909114919050565b6000613812600083136064611d0e565b670c7d713b49da0000821380156138305750670f43fc2c04ee000082125b1561385657670de0b6b3a764000061384783613c45565b8161384e57fe5b059050610edd565b61385f82613d63565b9050610edd565b623fffff828116821b90821b198416179392505050565b6000836138935761388e8284614102565b6125f6565b6125f6828461410e565b6000806000806000806000806138b161411a565b935093509350935083600014156138d6576000975087965090945092506138fd915050565b6000806138ed8c8c6138e6610843565b8989614389565b909a509850929650909450505050505b92959194509250565b8315613916576139168285612b30565b8215610ab857610ab88184612b30565b6000606060006139358461441e565b9050600061394b8683613946610843565b614440565b9196919550909350505050565b600082820183811015611b2957611b29600080611d0e565b600082820283158061398a57508284828161398757fe5b04145b61399a5761399a60006003611d0e565b670de0b6b3a76400008161255c565b600082821c661fffffffffffff16660fffffffffffff81136139cb57806125f6565b661fffffffffffff19179392505050565b6000611b2983836001612da7565b6000606060006139f98461441e565b9050600061394b8683613a0a610843565b6144c5565b60006128ed613a1e8484613958565b612f538787613958565b600080613a3487611eff565b830390506000818702613a4689612fc0565b0190506000828702613a578a612fda565b0190506000838702613a688b612ff4565b01905061360689848a858b868c611e9f565b6000610778826001614560565b6103ff811b1992909216911b1790565b637fffffff811b1992909216911b1790565b81611b1757611b1781614568565b600082613ac657506000610778565b6000613ad184614578565b9050600281670de0b6b3a7640000860281613ae857fe5b04820181613af257fe5b049050600281670de0b6b3a7640000860281613b0a57fe5b04820181613b1457fe5b049050600281670de0b6b3a7640000860281613b2c57fe5b04820181613b3657fe5b049050600281670de0b6b3a7640000860281613b4e57fe5b04820181613b5857fe5b049050600281670de0b6b3a7640000860281613b7057fe5b04820181613b7a57fe5b049050600281670de0b6b3a7640000860281613b9257fe5b04820181613b9c57fe5b049050600281670de0b6b3a7640000860281613bb457fe5b04820181613bbe57fe5b0490506000613bcd8280613970565b9050613be3613bdc838661286c565b8690613958565b8111158015613c055750613c01613bfa838661286c565b86906128c1565b8110155b61165c576040805162461bcd60e51b815260206004820152600c60248201526b17dcdc5c9d0811905253115160a21b604482015290519081900360640190fd5b670de0b6b3a7640000026000806a0c097ce7bc90715b34b9f160241b808401906ec097ce7bc90715b34b9f0fffffffff1985010281613c8057fe5b05905060006a0c097ce7bc90715b34b9f160241b82800205905081806a0c097ce7bc90715b34b9f160241b81840205915060038205016a0c097ce7bc90715b34b9f160241b82840205915060058205016a0c097ce7bc90715b34b9f160241b82840205915060078205016a0c097ce7bc90715b34b9f160241b82840205915060098205016a0c097ce7bc90715b34b9f160241b828402059150600b8205016a0c097ce7bc90715b34b9f160241b828402059150600d8205016a0c097ce7bc90715b34b9f160241b828402059150600f826002919005919091010295945050505050565b6000670de0b6b3a7640000821215613d9f57613d95826a0c097ce7bc90715b34b9f160241b81613d8f57fe5b05613d63565b6000039050610edd565b60007e1600ef3172e58d2e933ec884fde10064c63b5372d805e203c00000000000008312613df057770195e54c5dd42177f53a27172fa9ec630262827000000000830592506806f05b59d3b2000000015b73011798004d755d3c8bc8e03204cf44619e0000008312613e28576b1425982cf597cd205cef7380830592506803782dace9d9000000015b606492830292026e01855144814a7ff805980ff00840008312613e70576e01855144814a7ff805980ff008400068056bc75e2d63100000840205925068ad78ebc5ac62000000015b6b02df0ab5a80a22c61ab5a7008312613eab576b02df0ab5a80a22c61ab5a70068056bc75e2d6310000084020592506856bc75e2d631000000015b693f1fce3da636ea5cf8508312613ee257693f1fce3da636ea5cf85068056bc75e2d631000008402059250682b5e3af16b18800000015b690127fa27722cc06cc5e28312613f1957690127fa27722cc06cc5e268056bc75e2d6310000084020592506815af1d78b58c400000015b68280e60114edb805d038312613f4e5768280e60114edb805d0368056bc75e2d631000008402059250680ad78ebc5ac6200000015b680ebc5fb417461211108312613f7957680ebc5fb4174612111068056bc75e2d631000009384020592015b6808f00f760a4b2db55d8312613fae576808f00f760a4b2db55d68056bc75e2d6310000084020592506802b5e3af16b1880000015b6806f5f17757889379378312613fe3576806f5f177578893793768056bc75e2d63100000840205925068015af1d78b58c40000015b6806248f33704b2866038312614017576806248f33704b28660368056bc75e2d63100000840205925067ad78ebc5ac620000015b6805c548670b9510e7ac831261404b576805c548670b9510e7ac68056bc75e2d6310000084020592506756bc75e2d6310000015b600068056bc75e2d63100000840168056bc75e2d63100000808603028161406e57fe5b059050600068056bc75e2d63100000828002059050818068056bc75e2d63100000818402059150600382050168056bc75e2d63100000828402059150600582050168056bc75e2d63100000828402059150600782050168056bc75e2d63100000828402059150600982050168056bc75e2d63100000828402059150600b820501600202606485820105979650505050505050565b6000611b298383613970565b6000611b29838361250b565b600e5460405163bd02d0f560e01b81526000918291829182916001600160a01b039091169063bd02d0f59061416c907550524f544f434f4c5f535741505f4645455f5045524360501b906004016151e1565b60206040518083038186803b15801561418457600080fd5b505afa158015614198573d6000803e3d6000fd5b505050506040513d601f19601f820116820180604052508101906141bc9190614eac565b600e5460405163bd02d0f560e01b81526001600160a01b039091169063bd02d0f59061420c907f50524f544f434f4c5f4645455f4759524f5f504f5254494f4e00000000000000906004016151e1565b60206040518083038186803b15801561422457600080fd5b505afa158015614238573d6000803e3d6000fd5b505050506040513d601f19601f8201168201806040525081019061425c9190614eac565b600e546040516321f8a72160e01b81526001600160a01b03909116906321f8a7219061429c906c4759524f5f545245415355525960981b906004016151e1565b60206040518083038186803b1580156142b457600080fd5b505afa1580156142c8573d6000803e3d6000fd5b505050506040513d601f19601f820116820180604052508101906142ec91906149bb565b600e546040516321f8a72160e01b81526001600160a01b03909116906321f8a7219061432b906b42414c5f545245415355525960a01b906004016151e1565b60206040518083038186803b15801561434357600080fd5b505afa158015614357573d6000803e3d6000fd5b505050506040513d601f19601f8201168201806040525081019061437b91906149bb565b935093509350935090919293565b60008086861161439e57506000905080614414565b60006143b8856135016143b18a8c6128c1565b8990613970565b905060006143d06143c9898b6128c1565b8790613970565b905060006143de89836128c1565b905060006143ec848361250b565b905060006143fa8883613970565b9050600061440883836128c1565b91975090955050505050505b9550959350505050565b600081806020019051604081101561443557600080fd5b506020015192915050565b606083516001600160401b038111801561445957600080fd5b50604051908082528060200260200182016040528015614483578160200160208202803683370190505b50905060005b845181101561165c576144a683610de88688858151811061348757fe5b8282815181106144b257fe5b6020908102919091010152600101614489565b606083516001600160401b03811180156144de57600080fd5b50604051908082528060200260200182016040528015614508578160200160208202803683370190505b50905060005b845181101561165c5761454183612f538688858151811061452b57fe5b602002602001015161286c90919063ffffffff16565b82828151811061454d57fe5b602090810291909101015260010161450e565b016103ff1690565b610840816223aca960e91b61474a565b6000670de0b6b3a764000082106145a557670de0b6b3a764000061459d8184046147ab565b1b9050610edd565b600a82116145b8575063bc7c871c610edd565b606482116145cc57506402540be400610edd565b6103e882116145e1575064075cdd4719610edd565b61271082116145f6575064174876e800610edd565b620186a0821161460c57506449a0a4c700610edd565b620f42408211614622575064e8d4a51000610edd565b62989680821161463957506502e0466fc608610edd565b6305f5e100821161465157506509184e72a000610edd565b633b9aca0082116146695750651cc2c05dbc53610edd565b6402540be40082116146825750655af3107a4000610edd565b64174876e800821161469c575066011f9b83a95b45610edd565b64e8d4a5100082116146b6575066038d7ea4c68000610edd565b6509184e72a00082116146d15750660b3c13249d90bb610edd565b655af3107a400082116146ec5750662386f26fc10000610edd565b66038d7ea4c6800082116147085750667058bf6e27a751610edd565b662386f26fc100008211614725575067016345785d8a0000610edd565b67016345785d8a000082116147435750670463777a4d8c892d610edd565b5080610edd565b62461bcd60e51b600090815260206004526007602452600a808404818106603090810160081b958390069590950190829004918206850160101b01602363ffffff0060e086901c160160181b0190930160c81b60445260e882901c90606490fd5b6000600160801b82106147c35760809190911c906040015b6801000000000000000082106147de5760409190911c906020015b64010000000082106147f55760209190911c906010015b62010000821061480a5760109190911c906008015b610100821061481e5760089190911c906004015b601082106148315760049190911c906002015b60048210610edd57600101919050565b604080516060810182526000808252602082018190529181019190915290565b604080518082019091526000808252602082015290565b60405180604001604052806002906020820280368337509192915050565b8035610edd816153f5565b600082601f8301126148b1578081fd5b815160206148c66148c1836153d8565b6153b5565b82815281810190858301838502870184018810156148e2578586fd5b855b85811015614900578151845292840192908401906001016148e4565b5090979650505050505050565b80358015158114610edd57600080fd5b600082601f83011261492d578081fd5b81356001600160401b0381111561494057fe5b614953601f8201601f19166020016153b5565b818152846020838601011115614967578283fd5b816020850160208301379081016020019190915292915050565b803560028110610edd57600080fd5b803560038110610edd57600080fd5b6000602082840312156149b0578081fd5b8135611b29816153f5565b6000602082840312156149cc578081fd5b8151611b29816153f5565b600080604083850312156149e9578081fd5b82356149f4816153f5565b91506020830135614a04816153f5565b809150509250929050565b600080600060608486031215614a23578081fd5b8335614a2e816153f5565b92506020840135614a3e816153f5565b929592945050506040919091013590565b600080600080600080600060e0888a031215614a69578485fd5b8735614a74816153f5565b96506020880135614a84816153f5565b95506040880135945060608801359350608088013560ff81168114614aa7578384fd5b9699959850939692959460a0840135945060c09093013592915050565b60008060408385031215614ad6578182fd5b8235614ae1816153f5565b946020939093013593505050565b600080600060608486031215614b03578081fd5b83516001600160401b0380821115614b19578283fd5b818601915086601f830112614b2c578283fd5b81516020614b3c6148c1836153d8565b82815281810190858301838502870184018c1015614b58578788fd5b8796505b84871015614b83578051614b6f816153f5565b835260019690960195918301918301614b5c565b5091890151919750909350505080821115614b9c578283fd5b50614ba9868287016148a1565b925050604084015190509250925092565b60006020808385031215614bcc578182fd5b82356001600160401b0380821115614be2578384fd5b818501915085601f830112614bf5578384fd5b8135614c036148c1826153d8565b818152848101908486016040808502870188018b1015614c21578889fd5b8896505b84871015614c795780828c031215614c3b578889fd5b80518181018181108882111715614c4e57fe5b8252614c5983614990565b815282890135898201528452600196909601959287019290810190614c25565b50909998505050505050505050565b60006020808385031215614c9a578182fd5b82356001600160401b0380821115614cb0578384fd5b818501915085601f830112614cc3578384fd5b8135614cd16148c1826153d8565b818152848101908486016060808502870188018b1015614cef578889fd5b8896505b84871015614c795780828c031215614d09578889fd5b604080518281018181108982111715614d1e57fe5b8252614d2984614990565b8152838a01358a82015281840135918101919091528452600196909601959287019290810190614cf3565b600060208284031215614d65578081fd5b611b298261490d565b600080600080600080600060e0888a031215614d88578081fd5b87359650602080890135614d9b816153f5565b96506040890135614dab816153f5565b955060608901356001600160401b0380821115614dc6578384fd5b818b0191508b601f830112614dd9578384fd5b8135614de76148c1826153d8565b8082825285820191508585018f878886028801011115614e05578788fd5b8795505b83861015614e27578035835260019590950194918601918601614e09565b509850505060808b0135955060a08b0135945060c08b0135925080831115614e4d578384fd5b5050614e5b8a828b0161491d565b91505092959891949750929550565b600060208284031215614e7b578081fd5b81356001600160e01b031981168114611b29578182fd5b600060208284031215614ea3578081fd5b611b2982614990565b600060208284031215614ebd578081fd5b5051919050565b600060608284031215614ed5578081fd5b604051606081018181106001600160401b0382111715614ef157fe5b604052614efd8361490d565b815260208301356001600160781b0381168114614f18578283fd5b602082015260408301356001600160801b0381168114614f36578283fd5b60408201529392505050565b600080600060608486031215614f56578081fd5b83356001600160401b0380821115614f6c578283fd5b8186019150610120808389031215614f82578384fd5b614f8b816153b5565b9050614f9683614981565b8152614fa460208401614896565b6020820152614fb560408401614896565b6040820152606083013560608201526080830135608082015260a083013560a0820152614fe460c08401614896565b60c0820152614ff560e08401614896565b60e0820152610100808401358381111561500d578586fd5b6150198a82870161491d565b9183019190915250976020870135975060409096013595945050505050565b600060208284031215615049578081fd5b5035919050565b60008060408385031215615062578182fd5b50508035926020909101359150565b600080600060608486031215615085578081fd5b833592506020840135915061509c6040850161490d565b90509250925092565b6000815180845260208085019450808401835b838110156150d4578151875295820195908201906001016150b8565b509495945050505050565b600381106150e957fe5b9052565b6000828483379101908152919050565b6001600160a01b0391909116815260200190565b6020808252825182820181905260009190848201906040850190845b818110156151495783518352928401929184019160010161512d565b50909695505050505050565b60408101818360005b600281101561517d57815183526020928301929091019060010161515e565b50505092915050565b600060208252611b2960208301846150a5565b6000604082526151ac60408301856150a5565b82810360208401526128ed81856150a5565b901515815260200190565b92151583526020830191909152604082015260600190565b90815260200190565b968752602087019590955260408601939093526060850191909152608084015260a083015260c082015260e00190565b9586526020860194909452604085019290925260608401521515608083015260a082015260c00190565b8381526060810161525860208301856150df565b826040830152949350505050565b8481526080810161527a60208301866150df565b60408201939093526060015292915050565b600060a0820190508482526152a56020830185516150df565b602084015160408381019190915290930151606082015260800152919050565b6000602080835283518082850152825b818110156152f1578581018301518582016040015282016152d5565b818111156153025783604083870101525b50601f01601f1916929092016040019392505050565b8151151581526020808301516001600160781b0316908201526040918201516001600160801b03169181019190915260600190565b905460ff811615158252600881901c6001600160781b0316602083015260801c604082015260600190565b6000838252604060208301526125f660408301846150a5565b9283526020830191909152604082015260600190565b60ff91909116815260200190565b6040518181016001600160401b03811182821017156153d057fe5b604052919050565b60006001600160401b038211156153eb57fe5b5060209081020190565b6001600160a01b038116811461084057600080fdfea2646970667358221220c8d97d7f49844729234ae2675fecc67fe794821322967e066ae3d3ded8ad90fa64736f6c63430007060033","bytecodeSha1":"a4ce1795c13449cbc475b518fb08c4a647b0c3ee","compiler":{"evm_version":"berlin","optimizer":{"enabled":true,"runs":200},"version":"0.7.6+commit.7338295f"},"contractName":"Gyro2CLPPoolFactory","language":"Solidity","natspec":{"kind":"dev","methods":{"create(string,string,address[],uint256[],uint256,bool,address,address,(bool,uint120,uint128),address)":{"details":"Deploys a new `Gyro2CLPPool`."},"getCreationCode()":{"details":"Returns the creation code of the contract this factory creates."},"getCreationCodeContracts()":{"details":"Returns the two addresses where the creation code of the contract crated by this factory is stored."},"getPauseConfiguration()":{"details":"Returns the current `TemporarilyPausable` configuration that will be applied to Pools created by this factory. `pauseWindowDuration` will decrease over time until it reaches zero, at which point both it and `bufferPeriodDuration` will be zero forever, meaning deployed Pools will not be pausable."},"getVault()":{"details":"Returns the Vault's address."},"isPoolFromFactory(address)":{"details":"Returns true if `pool` was created by this factory."}},"version":1},"opcodes":"PUSH1 0x80 PUSH1 0x40 MSTORE CALLVALUE DUP1 ISZERO PUSH2 0x10 JUMPI PUSH1 0x0 DUP1 REVERT JUMPDEST POP PUSH1 0x4 CALLDATASIZE LT PUSH2 0x92 JUMPI PUSH1 0x0 CALLDATALOAD PUSH1 0xE0 SHR DUP1 PUSH4 0x45BE0BD4 GT PUSH2 0x66 JUMPI DUP1 PUSH4 0x45BE0BD4 EQ PUSH2 0xF6 JUMPI DUP1 PUSH4 0x6634B753 EQ PUSH2 0x10B JUMPI DUP1 PUSH4 0x8D928AF8 EQ PUSH2 0x12B JUMPI DUP1 PUSH4 0xD1464686 EQ PUSH2 0x133 JUMPI DUP1 PUSH4 0xF4ABB15C EQ PUSH2 0x13B JUMPI PUSH2 0x92 JUMP JUMPDEST DUP1 PUSH3 0xC194DB EQ PUSH2 0x97 JUMPI DUP1 PUSH4 0xBC7B4C4 EQ PUSH2 0xB5 JUMPI DUP1 PUSH4 0x174481FA EQ PUSH2 0xCA JUMPI DUP1 PUSH4 0x2DA47C40 EQ PUSH2 0xE0 JUMPI JUMPDEST PUSH1 0x0 DUP1 REVERT JUMPDEST PUSH2 0x9F PUSH2 0x14E JUMP JUMPDEST PUSH1 0x40 MLOAD PUSH2 0xAC SWAP2 SWAP1 PUSH2 0xAC0 JUMP JUMPDEST PUSH1 0x40 MLOAD DUP1 SWAP2 SUB SWAP1 RETURN JUMPDEST PUSH2 0xBD PUSH2 0x16D JUMP JUMPDEST PUSH1 0x40 MLOAD PUSH2 0xAC SWAP2 SWAP1 PUSH2 0xA87 JUMP JUMPDEST PUSH2 0xD2 PUSH2 0x191 JUMP JUMPDEST PUSH1 0x40 MLOAD PUSH2 0xAC SWAP3 SWAP2 SWAP1 PUSH2 0xA9B JUMP JUMPDEST PUSH2 0xE8 PUSH2 0x1D7 JUMP JUMPDEST PUSH1 0x40 MLOAD PUSH2 0xAC SWAP3 SWAP2 SWAP1 PUSH2 0xC0D JUMP JUMPDEST PUSH2 0xFE PUSH2 0x241 JUMP JUMPDEST PUSH1 0x40 MLOAD PUSH2 0xAC SWAP2 SWAP1 PUSH2 0xC04 JUMP JUMPDEST PUSH2 0x11E PUSH2 0x119 CALLDATASIZE PUSH1 0x4 PUSH2 0x8D8 JUMP JUMPDEST PUSH2 0x248 JUMP JUMPDEST PUSH1 0x40 MLOAD PUSH2 0xAC SWAP2 SWAP1 PUSH2 0xAB5 JUMP JUMPDEST PUSH2 0xBD PUSH2 0x26A JUMP JUMPDEST PUSH2 0xFE PUSH2 0x28E JUMP JUMPDEST PUSH2 0xBD PUSH2 0x149 CALLDATASIZE PUSH1 0x4 PUSH2 0x8F4 JUMP JUMPDEST PUSH2 0x295 JUMP JUMPDEST PUSH1 0x60 PUSH2 0x168 PUSH1 0x40 MLOAD DUP1 PUSH1 0x20 ADD PUSH1 0x40 MSTORE DUP1 PUSH1 0x0 DUP2 MSTORE POP PUSH2 0x3C0 JUMP JUMPDEST SWAP1 POP SWAP1 JUMP JUMPDEST PUSH32 0x0 DUP2 JUMP JUMPDEST PUSH32 0x0 PUSH32 0x0 SWAP1 SWAP2 JUMP JUMPDEST PUSH1 0x0 DUP1 TIMESTAMP PUSH32 0x0 DUP2 LT ISZERO PUSH2 0x233 JUMPI DUP1 PUSH32 0x0 SUB SWAP3 POP PUSH3 0x278D00 SWAP2 POP PUSH2 0x23C JUMP JUMPDEST PUSH1 0x0 SWAP3 POP PUSH1 0x0 SWAP2 POP JUMPDEST POP SWAP1 SWAP2 JUMP JUMPDEST PUSH3 0x76A700 DUP2 JUMP JUMPDEST PUSH1 0x1 PUSH1 0x1 PUSH1 0xA0 SHL SUB DUP2 AND PUSH1 0x0 SWAP1 DUP2 MSTORE PUSH1 0x20 DUP2 SWAP1 MSTORE PUSH1 0x40 SWAP1 KECCAK256 SLOAD PUSH1 0xFF AND JUMPDEST SWAP2 SWAP1 POP JUMP JUMPDEST PUSH32 0x0 SWAP1 JUMP JUMPDEST PUSH3 0x278D00 DUP2 JUMP JUMPDEST PUSH1 0x0 DUP1 PUSH2 0x2A6 DUP13 DUP13 DUP13 DUP12 DUP12 DUP12 PUSH2 0x499 JUMP JUMPDEST SWAP1 POP PUSH1 0x0 PUSH1 0x40 MLOAD DUP1 PUSH1 0xC0 ADD PUSH1 0x40 MSTORE DUP1 DUP4 DUP2 MSTORE PUSH1 0x20 ADD DUP12 PUSH1 0x0 DUP2 MLOAD DUP2 LT PUSH2 0x2C8 JUMPI INVALID JUMPDEST PUSH1 0x20 MUL PUSH1 0x20 ADD ADD MLOAD DUP2 MSTORE PUSH1 0x20 ADD DUP12 PUSH1 0x1 DUP2 MLOAD DUP2 LT PUSH2 0x2E2 JUMPI INVALID JUMPDEST PUSH1 0x20 MUL PUSH1 0x20 ADD ADD MLOAD DUP2 MSTORE PUSH1 0x20 ADD DUP8 PUSH1 0x1 PUSH1 0x1 PUSH1 0xA0 SHL SUB AND DUP2 MSTORE PUSH1 0x20 ADD DUP7 DUP2 MSTORE PUSH1 0x20 ADD DUP6 PUSH1 0x1 PUSH1 0x1 PUSH1 0xA0 SHL SUB AND DUP2 MSTORE POP SWAP1 POP PUSH2 0x35D DUP2 PUSH32 0x0 PUSH1 0x40 MLOAD PUSH1 0x20 ADD PUSH2 0x349 SWAP3 SWAP2 SWAP1 PUSH2 0xAD3 JUMP JUMPDEST PUSH1 0x40 MLOAD PUSH1 0x20 DUP2 DUP4 SUB SUB DUP2 MSTORE SWAP1 PUSH1 0x40 MSTORE PUSH2 0x54E JUMP JUMPDEST SWAP14 SWAP13 POP POP POP POP POP POP POP POP POP POP POP POP POP JUMP JUMPDEST DUP1 MLOAD PUSH32 0x602038038060206000396000F3FEFEFEFEFEFEFEFEFEFEFEFEFEFEFEFEFEFEFE DUP1 DUP4 MSTORE PUSH1 0x0 SWAP2 PUSH1 0x20 DUP2 ADD DUP5 DUP5 CREATE SWAP1 DUP5 MSTORE SWAP2 POP PUSH2 0x3BA PUSH1 0x1 PUSH1 0x1 PUSH1 0xA0 SHL SUB DUP4 AND ISZERO ISZERO PUSH2 0x1AC PUSH2 0x5AE JUMP JUMPDEST POP SWAP2 SWAP1 POP JUMP JUMPDEST DUP1 MLOAD PUSH1 0x40 DUP1 MLOAD PUSH32 0x0 PUSH32 0x0 DUP2 DUP2 ADD DUP6 DUP2 ADD DUP5 DUP2 ADD PUSH1 0x20 SWAP1 DUP2 ADD SWAP1 SWAP7 MSTORE DUP1 DUP6 MSTORE SWAP4 SWAP6 PUSH32 0x0 SWAP6 SWAP3 SWAP5 PUSH32 0x0 SWAP5 SWAP4 DUP9 ADD DUP7 PUSH1 0x0 DUP3 DUP11 EXTCODECOPY DUP5 PUSH1 0x0 DUP9 DUP4 ADD DUP9 EXTCODECOPY POP PUSH1 0x20 DUP10 DUP2 ADD SWAP1 DUP10 DUP6 ADD ADD PUSH2 0x48B DUP2 DUP4 DUP7 PUSH2 0x5C0 JUMP JUMPDEST POP POP POP POP POP POP POP POP POP SWAP2 SWAP1 POP JUMP JUMPDEST PUSH2 0x4A1 PUSH2 0x68B JUMP JUMPDEST PUSH1 0x40 MLOAD DUP1 PUSH2 0x140 ADD PUSH1 0x40 MSTORE DUP1 PUSH2 0x4B5 PUSH2 0x26A JUMP JUMPDEST PUSH1 0x1 PUSH1 0x1 PUSH1 0xA0 SHL SUB AND DUP2 MSTORE PUSH1 0x20 ADD DUP9 DUP2 MSTORE PUSH1 0x20 ADD DUP8 DUP2 MSTORE PUSH1 0x20 ADD DUP7 PUSH1 0x0 DUP2 MLOAD DUP2 LT PUSH2 0x4DC JUMPI INVALID JUMPDEST PUSH1 0x20 MUL PUSH1 0x20 ADD ADD MLOAD PUSH1 0x1 PUSH1 0x1 PUSH1 0xA0 SHL SUB AND DUP2 MSTORE PUSH1 0x20 ADD DUP7 PUSH1 0x1 DUP2 MLOAD DUP2 LT PUSH2 0x4FF JUMPI INVALID JUMPDEST PUSH1 0x20 MUL PUSH1 0x20 ADD ADD MLOAD PUSH1 0x1 PUSH1 0x1 PUSH1 0xA0 SHL SUB AND DUP2 MSTORE PUSH1 0x20 ADD DUP6 DUP2 MSTORE PUSH1 0x20 ADD PUSH3 0x76A700 DUP2 MSTORE PUSH1 0x20 ADD PUSH3 0x278D00 DUP2 MSTORE PUSH1 0x20 ADD DUP5 ISZERO ISZERO DUP2 MSTORE PUSH1 0x20 ADD DUP4 PUSH1 0x1 PUSH1 0x1 PUSH1 0xA0 SHL SUB AND DUP2 MSTORE POP SWAP1 POP SWAP7 SWAP6 POP POP POP POP POP POP JUMP JUMPDEST PUSH1 0x0 DUP1 PUSH2 0x55A DUP4 PUSH2 0x5FE JUMP JUMPDEST PUSH1 0x1 PUSH1 0x1 PUSH1 0xA0 SHL SUB DUP2 AND PUSH1 0x0 DUP2 DUP2 MSTORE PUSH1 0x20 DUP2 SWAP1 MSTORE PUSH1 0x40 DUP1 DUP3 KECCAK256 DUP1 SLOAD PUSH1 0xFF NOT AND PUSH1 0x1 OR SWAP1 SSTORE MLOAD SWAP3 SWAP4 POP SWAP1 SWAP2 PUSH32 0x83A48FBCFC991335314E74D0496AAB6A1987E992DDC85DDDBCC4D6DD6EF2E9FC SWAP2 SWAP1 LOG2 SWAP3 SWAP2 POP POP JUMP JUMPDEST DUP2 PUSH2 0x5BC JUMPI PUSH2 0x5BC DUP2 PUSH2 0x638 JUMP JUMPDEST POP POP JUMP JUMPDEST JUMPDEST PUSH1 0x20 DUP2 LT PUSH2 0x5E0 JUMPI DUP2 MLOAD DUP4 MSTORE PUSH1 0x20 SWAP3 DUP4 ADD SWAP3 SWAP1 SWAP2 ADD SWAP1 PUSH1 0x1F NOT ADD PUSH2 0x5C1 JUMP JUMPDEST SWAP1 MLOAD DUP3 MLOAD PUSH1 0x20 SWAP3 SWAP1 SWAP3 SUB PUSH2 0x100 EXP PUSH1 0x0 NOT ADD DUP1 NOT SWAP1 SWAP2 AND SWAP2 AND OR SWAP1 MSTORE JUMP JUMPDEST PUSH1 0x0 DUP1 PUSH2 0x60A DUP4 PUSH2 0x3C0 JUMP JUMPDEST SWAP1 POP PUSH1 0x0 DUP2 MLOAD PUSH1 0x20 DUP4 ADD PUSH1 0x0 CREATE SWAP1 POP PUSH1 0x1 PUSH1 0x1 PUSH1 0xA0 SHL SUB DUP2 AND PUSH2 0x631 JUMPI RETURNDATASIZE PUSH1 0x0 DUP1 RETURNDATACOPY RETURNDATASIZE PUSH1 0x0 REVERT JUMPDEST SWAP4 SWAP3 POP POP POP JUMP JUMPDEST PUSH3 0x461BCD PUSH1 0xE5 SHL PUSH1 0x0 SWAP1 DUP2 MSTORE PUSH1 0x20 PUSH1 0x4 MSTORE PUSH1 0x7 PUSH1 0x24 MSTORE PUSH7 0x42414C23000030 PUSH1 0xA DUP1 DUP5 DIV DUP2 DUP2 MOD PUSH1 0x30 SWAP1 DUP2 ADD PUSH1 0x8 SHL SWAP6 DUP4 SWAP1 MOD SWAP6 SWAP1 SWAP6 ADD SWAP1 DUP3 SWAP1 DIV SWAP2 DUP3 MOD SWAP1 SWAP5 ADD PUSH1 0x10 SHL SWAP4 SWAP1 SWAP4 ADD ADD PUSH1 0xC8 SHL PUSH1 0x44 MSTORE PUSH1 0x64 SWAP1 REVERT JUMPDEST PUSH1 0x40 MLOAD DUP1 PUSH2 0x140 ADD PUSH1 0x40 MSTORE DUP1 PUSH1 0x0 PUSH1 0x1 PUSH1 0x1 PUSH1 0xA0 SHL SUB AND DUP2 MSTORE PUSH1 0x20 ADD PUSH1 0x60 DUP2 MSTORE PUSH1 0x20 ADD PUSH1 0x60 DUP2 MSTORE PUSH1 0x20 ADD PUSH1 0x0 PUSH1 0x1 PUSH1 0x1 PUSH1 0xA0 SHL SUB AND DUP2 MSTORE PUSH1 0x20 ADD PUSH1 0x0 PUSH1 0x1 PUSH1 0x1 PUSH1 0xA0 SHL SUB AND DUP2 MSTORE PUSH1 0x20 ADD PUSH1 0x0 DUP2 MSTORE PUSH1 0x20 ADD PUSH1 0x0 DUP2 MSTORE PUSH1 0x20 ADD PUSH1 0x0 DUP2 MSTORE PUSH1 0x20 ADD PUSH1 0x0 ISZERO ISZERO DUP2 MSTORE PUSH1 0x20 ADD PUSH1 0x0 PUSH1 0x1 PUSH1 0x1 PUSH1 0xA0 SHL SUB AND DUP2 MSTORE POP SWAP1 JUMP JUMPDEST DUP1 CALLDATALOAD PUSH2 0x265 DUP2 PUSH2 0xC5D JUMP JUMPDEST PUSH1 0x0 DUP3 PUSH1 0x1F DUP4 ADD SLT PUSH2 0x71F JUMPI DUP1 DUP2 REVERT JUMPDEST DUP2 CALLDATALOAD PUSH1 0x20 PUSH2 0x734 PUSH2 0x72F DUP4 PUSH2 0xC3F JUMP JUMPDEST PUSH2 0xC1B JUMP JUMPDEST DUP3 DUP2 MSTORE DUP2 DUP2 ADD SWAP1 DUP6 DUP4 ADD DUP4 DUP6 MUL DUP8 ADD DUP5 ADD DUP9 LT ISZERO PUSH2 0x750 JUMPI DUP6 DUP7 REVERT JUMPDEST DUP6 JUMPDEST DUP6 DUP2 LT ISZERO PUSH2 0x777 JUMPI DUP2 CALLDATALOAD PUSH2 0x765 DUP2 PUSH2 0xC5D JUMP JUMPDEST DUP5 MSTORE SWAP3 DUP5 ADD SWAP3 SWAP1 DUP5 ADD SWAP1 PUSH1 0x1 ADD PUSH2 0x752 JUMP JUMPDEST POP SWAP1 SWAP8 SWAP7 POP POP POP POP POP POP POP JUMP JUMPDEST PUSH1 0x0 DUP3 PUSH1 0x1F DUP4 ADD SLT PUSH2 0x794 JUMPI DUP1 DUP2 REVERT JUMPDEST DUP2 CALLDATALOAD PUSH1 0x20 PUSH2 0x7A4 PUSH2 0x72F DUP4 PUSH2 0xC3F JUMP JUMPDEST DUP3 DUP2 MSTORE DUP2 DUP2 ADD SWAP1 DUP6 DUP4 ADD DUP4 DUP6 MUL DUP8 ADD DUP5 ADD DUP9 LT ISZERO PUSH2 0x7C0 JUMPI DUP6 DUP7 REVERT JUMPDEST DUP6 JUMPDEST DUP6 DUP2 LT ISZERO PUSH2 0x777 JUMPI DUP2 CALLDATALOAD DUP5 MSTORE SWAP3 DUP5 ADD SWAP3 SWAP1 DUP5 ADD SWAP1 PUSH1 0x1 ADD PUSH2 0x7C2 JUMP JUMPDEST DUP1 CALLDATALOAD DUP1 ISZERO ISZERO DUP2 EQ PUSH2 0x265 JUMPI PUSH1 0x0 DUP1 REVERT JUMPDEST PUSH1 0x0 DUP3 PUSH1 0x1F DUP4 ADD SLT PUSH2 0x7FE JUMPI DUP1 DUP2 REVERT JUMPDEST DUP2 CALLDATALOAD PUSH8 0xFFFFFFFFFFFFFFFF DUP2 GT ISZERO PUSH2 0x812 JUMPI INVALID JUMPDEST PUSH2 0x825 PUSH1 0x1F DUP3 ADD PUSH1 0x1F NOT AND PUSH1 0x20 ADD PUSH2 0xC1B JUMP JUMPDEST DUP2 DUP2 MSTORE DUP5 PUSH1 0x20 DUP4 DUP7 ADD ADD GT ISZERO PUSH2 0x839 JUMPI DUP3 DUP4 REVERT JUMPDEST DUP2 PUSH1 0x20 DUP6 ADD PUSH1 0x20 DUP4 ADD CALLDATACOPY SWAP1 DUP2 ADD PUSH1 0x20 ADD SWAP2 SWAP1 SWAP2 MSTORE SWAP3 SWAP2 POP POP JUMP JUMPDEST PUSH1 0x0 PUSH1 0x60 DUP3 DUP5 SUB SLT ISZERO PUSH2 0x864 JUMPI DUP1 DUP2 REVERT JUMPDEST PUSH1 0x40 MLOAD PUSH1 0x60 DUP2 ADD DUP2 DUP2 LT PUSH8 0xFFFFFFFFFFFFFFFF DUP3 GT OR ISZERO PUSH2 0x881 JUMPI INVALID JUMPDEST PUSH1 0x40 MSTORE SWAP1 POP DUP1 PUSH2 0x890 DUP4 PUSH2 0x7DE JUMP JUMPDEST DUP2 MSTORE PUSH1 0x20 DUP4 ADD CALLDATALOAD PUSH1 0x1 PUSH1 0x1 PUSH1 0x78 SHL SUB DUP2 AND DUP2 EQ PUSH2 0x8AC JUMPI PUSH1 0x0 DUP1 REVERT JUMPDEST PUSH1 0x20 DUP3 ADD MSTORE PUSH1 0x40 DUP4 ADD CALLDATALOAD PUSH1 0x1 PUSH1 0x1 PUSH1 0x80 SHL SUB DUP2 AND DUP2 EQ PUSH2 0x8CB JUMPI PUSH1 0x0 DUP1 REVERT JUMPDEST PUSH1 0x40 SWAP2 SWAP1 SWAP2 ADD MSTORE SWAP3 SWAP2 POP POP JUMP JUMPDEST PUSH1 0x0 PUSH1 0x20 DUP3 DUP5 SUB SLT ISZERO PUSH2 0x8E9 JUMPI DUP1 DUP2 REVERT JUMPDEST DUP2 CALLDATALOAD PUSH2 0x631 DUP2 PUSH2 0xC5D JUMP JUMPDEST PUSH1 0x0 DUP1 PUSH1 0x0 DUP1 PUSH1 0x0 DUP1 PUSH1 0x0 DUP1 PUSH1 0x0 DUP1 PUSH2 0x180 DUP12 DUP14 SUB SLT ISZERO PUSH2 0x913 JUMPI DUP6 DUP7 REVERT JUMPDEST DUP11 CALLDATALOAD PUSH8 0xFFFFFFFFFFFFFFFF DUP1 DUP3 GT ISZERO PUSH2 0x92A JUMPI DUP8 DUP9 REVERT JUMPDEST PUSH2 0x936 DUP15 DUP4 DUP16 ADD PUSH2 0x7EE JUMP JUMPDEST SWAP12 POP PUSH1 0x20 DUP14 ADD CALLDATALOAD SWAP2 POP DUP1 DUP3 GT ISZERO PUSH2 0x94B JUMPI DUP8 DUP9 REVERT JUMPDEST PUSH2 0x957 DUP15 DUP4 DUP16 ADD PUSH2 0x7EE JUMP JUMPDEST SWAP11 POP PUSH1 0x40 DUP14 ADD CALLDATALOAD SWAP2 POP DUP1 DUP3 GT ISZERO PUSH2 0x96C JUMPI DUP8 DUP9 REVERT JUMPDEST PUSH2 0x978 DUP15 DUP4 DUP16 ADD PUSH2 0x70F JUMP JUMPDEST SWAP10 POP PUSH1 0x60 DUP14 ADD CALLDATALOAD SWAP2 POP DUP1 DUP3 GT ISZERO PUSH2 0x98D JUMPI DUP8 DUP9 REVERT JUMPDEST POP PUSH2 0x99A DUP14 DUP3 DUP15 ADD PUSH2 0x784 JUMP JUMPDEST SWAP8 POP POP PUSH1 0x80 DUP12 ADD CALLDATALOAD SWAP6 POP PUSH2 0x9B0 PUSH1 0xA0 DUP13 ADD PUSH2 0x7DE JUMP JUMPDEST SWAP5 POP PUSH2 0x9BE PUSH1 0xC0 DUP13 ADD PUSH2 0x704 JUMP JUMPDEST SWAP4 POP PUSH2 0x9CC PUSH1 0xE0 DUP13 ADD PUSH2 0x704 JUMP JUMPDEST SWAP3 POP PUSH2 0x9DC DUP13 PUSH2 0x100 DUP14 ADD PUSH2 0x853 JUMP JUMPDEST SWAP2 POP PUSH2 0x9EB PUSH2 0x160 DUP13 ADD PUSH2 0x704 JUMP JUMPDEST SWAP1 POP SWAP3 SWAP6 SWAP9 SWAP12 SWAP2 SWAP5 SWAP8 SWAP11 POP SWAP3 SWAP6 SWAP9 POP JUMP JUMPDEST PUSH1 0x1 PUSH1 0x1 PUSH1 0xA0 SHL SUB AND SWAP1 MSTORE JUMP JUMPDEST ISZERO ISZERO SWAP1 MSTORE JUMP JUMPDEST PUSH1 0x0 DUP2 MLOAD DUP1 DUP5 MSTORE DUP2 JUMPDEST DUP2 DUP2 LT ISZERO PUSH2 0xA34 JUMPI PUSH1 0x20 DUP2 DUP6 ADD DUP2 ADD MLOAD DUP7 DUP4 ADD DUP3 ADD MSTORE ADD PUSH2 0xA18 JUMP JUMPDEST DUP2 DUP2 GT ISZERO PUSH2 0xA45 JUMPI DUP3 PUSH1 0x20 DUP4 DUP8 ADD ADD MSTORE JUMPDEST POP PUSH1 0x1F ADD PUSH1 0x1F NOT AND SWAP3 SWAP1 SWAP3 ADD PUSH1 0x20 ADD SWAP3 SWAP2 POP POP JUMP JUMPDEST DUP1 MLOAD ISZERO ISZERO DUP3 MSTORE PUSH1 0x20 DUP1 DUP3 ADD MLOAD PUSH1 0x1 PUSH1 0x1 PUSH1 0x78 SHL SUB AND SWAP1 DUP4 ADD MSTORE PUSH1 0x40 SWAP1 DUP2 ADD MLOAD PUSH1 0x1 PUSH1 0x1 PUSH1 0x80 SHL SUB AND SWAP2 ADD MSTORE JUMP JUMPDEST PUSH1 0x1 PUSH1 0x1 PUSH1 0xA0 SHL SUB SWAP2 SWAP1 SWAP2 AND DUP2 MSTORE PUSH1 0x20 ADD SWAP1 JUMP JUMPDEST PUSH1 0x1 PUSH1 0x1 PUSH1 0xA0 SHL SUB SWAP3 DUP4 AND DUP2 MSTORE SWAP2 AND PUSH1 0x20 DUP3 ADD MSTORE PUSH1 0x40 ADD SWAP1 JUMP JUMPDEST SWAP1 ISZERO ISZERO DUP2 MSTORE PUSH1 0x20 ADD SWAP1 JUMP JUMPDEST PUSH1 0x0 PUSH1 0x20 DUP3 MSTORE PUSH2 0x631 PUSH1 0x20 DUP4 ADD DUP5 PUSH2 0xA0F JUMP JUMPDEST PUSH1 0x0 PUSH1 0x40 DUP3 MSTORE PUSH2 0x140 DUP5 MLOAD PUSH2 0x100 DUP1 PUSH1 0x40 DUP7 ADD MSTORE PUSH2 0xAF4 DUP4 DUP7 ADD DUP4 MLOAD PUSH2 0x9FC JUMP JUMPDEST PUSH1 0x20 DUP3 ADD MLOAD DUP4 PUSH2 0x160 DUP8 ADD MSTORE PUSH2 0xB0E PUSH2 0x280 DUP8 ADD DUP3 PUSH2 0xA0F JUMP JUMPDEST SWAP4 POP POP PUSH1 0x40 DUP3 ADD MLOAD PUSH2 0x13F NOT DUP7 DUP6 SUB ADD PUSH2 0x180 DUP8 ADD MSTORE PUSH2 0xB2E DUP5 DUP3 PUSH2 0xA0F JUMP JUMPDEST SWAP4 POP POP PUSH1 0x60 DUP3 ADD MLOAD PUSH2 0xB44 PUSH2 0x1A0 DUP8 ADD DUP3 PUSH2 0x9FC JUMP JUMPDEST POP PUSH1 0x80 DUP3 ADD MLOAD PUSH2 0xB58 PUSH2 0x1C0 DUP8 ADD DUP3 PUSH2 0x9FC JUMP JUMPDEST POP PUSH1 0xA0 DUP3 ADD MLOAD PUSH2 0x1E0 DUP7 ADD MSTORE PUSH1 0xC0 DUP3 ADD MLOAD PUSH2 0x200 DUP7 ADD MSTORE PUSH1 0xE0 DUP3 ADD MLOAD PUSH2 0x220 DUP7 ADD MSTORE DUP2 ADD MLOAD PUSH2 0xB8B PUSH2 0x240 DUP7 ADD DUP3 PUSH2 0xA09 JUMP JUMPDEST POP PUSH2 0x120 SWAP1 DUP2 ADD MLOAD SWAP1 PUSH2 0xBA2 PUSH2 0x260 DUP7 ADD DUP4 PUSH2 0x9FC JUMP JUMPDEST PUSH1 0x20 DUP8 ADD MLOAD PUSH1 0x60 DUP7 ADD MSTORE PUSH1 0x40 DUP8 ADD MLOAD PUSH1 0x80 DUP7 ADD MSTORE PUSH1 0x60 DUP8 ADD MLOAD SWAP2 POP PUSH2 0xBCA PUSH1 0xA0 DUP7 ADD DUP4 PUSH2 0x9FC JUMP JUMPDEST PUSH1 0x80 DUP8 ADD MLOAD SWAP2 POP PUSH2 0xBDE PUSH1 0xC0 DUP7 ADD DUP4 PUSH2 0xA5A JUMP JUMPDEST PUSH1 0xA0 DUP8 ADD MLOAD SWAP2 POP PUSH2 0xBF1 DUP2 DUP7 ADD DUP4 PUSH2 0x9FC JUMP JUMPDEST POP POP DUP1 SWAP2 POP POP PUSH2 0x631 PUSH1 0x20 DUP4 ADD DUP5 PUSH2 0x9FC JUMP JUMPDEST SWAP1 DUP2 MSTORE PUSH1 0x20 ADD SWAP1 JUMP JUMPDEST SWAP2 DUP3 MSTORE PUSH1 0x20 DUP3 ADD MSTORE PUSH1 0x40 ADD SWAP1 JUMP JUMPDEST PUSH1 0x40 MLOAD DUP2 DUP2 ADD PUSH8 0xFFFFFFFFFFFFFFFF DUP2 GT DUP3 DUP3 LT OR ISZERO PUSH2 0xC37 JUMPI INVALID JUMPDEST PUSH1 0x40 MSTORE SWAP2 SWAP1 POP JUMP JUMPDEST PUSH1 0x0 PUSH8 0xFFFFFFFFFFFFFFFF DUP3 GT ISZERO PUSH2 0xC53 JUMPI INVALID JUMPDEST POP PUSH1 0x20 SWAP1 DUP2 MUL ADD SWAP1 JUMP JUMPDEST PUSH1 0x1 PUSH1 0x1 PUSH1 0xA0 SHL SUB DUP2 AND DUP2 EQ PUSH2 0xC72 JUMPI PUSH1 0x0 DUP1 REVERT JUMPDEST POP JUMP INVALID LOG2 PUSH5 0x6970667358 0x22 SLT KECCAK256 SWAP13 SWAP8 0xE7 0xD6 SWAP15 ADD SDIV PUSH26 0xF1537C40AD4A3BE4F1B618FF53D48AF378F96EF69A7F4816473 PUSH16 0x6C634300070600330000000000000000 ","sha1":"92aceef0fcc73e55e1cc436f2691ab1080535e14","source":"// SPDX-License-Identifier: GPL-3.0-or-later\n// This program is free software: you can redistribute it and/or modify\n// it under the terms of the GNU General Public License as published by\n// the Free Software Foundation, either version 3 of the License, or\n// (at your option) any later version.\n\n// This program is distributed in the hope that it will be useful,\n// but WITHOUT ANY WARRANTY; without even the implied warranty of\n// MERCHANTABILITY or FITNESS FOR A PARTICULAR PURPOSE.  See the\n// GNU General Public License for more details.\n\n// You should have received a copy of the GNU General Public License\n// along with this program.  If not, see <http://www.gnu.org/licenses/>.\n\npragma solidity 0.7.6;\npragma experimental ABIEncoderV2;\n\nimport \"@balancer-labs/v2-vault/contracts/interfaces/IVault.sol\";\n\nimport \"@balancer-labs/v2-pool-utils/contracts/factories/BasePoolSplitCodeFactory.sol\";\nimport \"@balancer-labs/v2-pool-utils/contracts/factories/FactoryWidePauseWindow.sol\";\n\nimport \"../../interfaces/IGyro2CLPPoolFactory.sol\";\nimport \"../../interfaces/ICappedLiquidity.sol\";\nimport \"./Gyro2CLPPool.sol\";\n\ncontract Gyro2CLPPoolFactory is IGyro2CLPPoolFactory, BasePoolSplitCodeFactory, FactoryWidePauseWindow {\n    address public immutable gyroConfigAddress;\n\n    uint256 public constant PAUSE_WINDOW_DURATION = 90 days;\n    uint256 public constant BUFFER_PERIOD_DURATION = 30 days;\n\n    constructor(IVault vault, address _gyroConfigAddress) BasePoolSplitCodeFactory(vault, type(Gyro2CLPPool).creationCode) {\n        _grequire(_gyroConfigAddress != address(0), GyroErrors.ZERO_ADDRESS);\n        _grequire(address(vault) != address(0), GyroErrors.ZERO_ADDRESS);\n        gyroConfigAddress = _gyroConfigAddress;\n    }\n\n    /**\n     * @dev Deploys a new `Gyro2CLPPool`.\n     */\n    function create(\n        string memory name,\n        string memory symbol,\n        IERC20[] memory tokens,\n        uint256[] memory sqrts,\n        uint256 swapFeePercentage,\n        bool oracleEnabled,\n        address owner,\n        address capManager,\n        ICappedLiquidity.CapParams memory capParams,\n        address pauseManager\n    ) external override returns (address) {\n        ExtensibleWeightedPool2Tokens.NewPoolParams memory baseParams = _makePoolParams(\n            name,\n            symbol,\n            tokens,\n            swapFeePercentage,\n            oracleEnabled,\n            owner\n        );\n\n        Gyro2CLPPool.GyroParams memory params = Gyro2CLPPool.GyroParams({\n            baseParams: baseParams,\n            sqrtAlpha: sqrts[0],\n            sqrtBeta: sqrts[1],\n            capManager: capManager,\n            capParams: capParams,\n            pauseManager: pauseManager\n        });\n\n        return _create(abi.encode(params, gyroConfigAddress));\n    }\n\n    function _makePoolParams(\n        string memory name,\n        string memory symbol,\n        IERC20[] memory tokens,\n        uint256 swapFeePercentage,\n        bool oracleEnabled,\n        address owner\n    ) internal view returns (ExtensibleWeightedPool2Tokens.NewPoolParams memory) {\n        return\n            ExtensibleWeightedPool2Tokens.NewPoolParams({\n                vault: getVault(),\n                name: name,\n                symbol: symbol,\n                token0: tokens[0],\n                token1: tokens[1],\n                swapFeePercentage: swapFeePercentage,\n                pauseWindowDuration: PAUSE_WINDOW_DURATION,\n                bufferPeriodDuration: BUFFER_PERIOD_DURATION,\n                oracleEnabled: oracleEnabled,\n                owner: owner\n            });\n    }\n}\n","sourcePath":"contracts/2clp/Gyro2CLPPoolFactory.sol","type":"contract","deployment":{"address":"0xe3246E5b1F05E3Af805eBC5E3526d63944D0a90a","chainid":"137","blockHeight":33047973}}