{"abi":[{"inputs":[{"components":[{"components":[{"internalType":"contract IVault","name":"vault","type":"address"},{"internalType":"string","name":"name","type":"string"},{"internalType":"string","name":"symbol","type":"string"},{"internalType":"contract IERC20","name":"token0","type":"address"},{"internalType":"contract IERC20","name":"token1","type":"address"},{"internalType":"uint256","name":"swapFeePercentage","type":"uint256"},{"internalType":"uint256","name":"pauseWindowDuration","type":"uint256"},{"internalType":"uint256","name":"bufferPeriodDuration","type":"uint256"},{"internalType":"address","name":"owner","type":"address"}],"internalType":"struct ExtensibleWeightedPool2Tokens.NewPoolParams","name":"baseParams","type":"tuple"},{"internalType":"uint256","name":"sqrtAlpha","type":"uint256"},{"internalType":"uint256","name":"sqrtBeta","type":"uint256"},{"internalType":"address","name":"rateProvider0","type":"address"},{"internalType":"address","name":"rateProvider1","type":"address"},{"internalType":"address","name":"capManager","type":"address"},{"components":[{"internalType":"bool","name":"capEnabled","type":"bool"},{"internalType":"uint120","name":"perAddressCap","type":"uint120"},{"internalType":"uint128","name":"globalCap","type":"uint128"}],"internalType":"struct ICappedLiquidity.CapParams","name":"capParams","type":"tuple"},{"internalType":"address","name":"pauseManager","type":"address"}],"internalType":"struct Gyro2CLPPool.GyroParams","name":"params","type":"tuple"},{"internalType":"address","name":"configAddress","type":"address"}],"stateMutability":"nonpayable","type":"constructor","name":"constructor"},{"anonymous":false,"inputs":[{"indexed":true,"internalType":"address","name":"owner","type":"address"},{"indexed":true,"internalType":"address","name":"spender","type":"address"},{"indexed":false,"internalType":"uint256","name":"value","type":"uint256"}],"name":"Approval","type":"event"},{"anonymous":false,"inputs":[{"indexed":false,"internalType":"address","name":"capManager","type":"address"}],"name":"CapManagerUpdated","type":"event"},{"anonymous":false,"inputs":[{"components":[{"internalType":"bool","name":"capEnabled","type":"bool"},{"internalType":"uint120","name":"perAddressCap","type":"uint120"},{"internalType":"uint128","name":"globalCap","type":"uint128"}],"indexed":false,"internalType":"struct ICappedLiquidity.CapParams","name":"params","type":"tuple"}],"name":"CapParamsUpdated","type":"event"},{"anonymous":false,"inputs":[{"indexed":false,"internalType":"address","name":"oldPauseManager","type":"address"},{"indexed":false,"internalType":"address","name":"newPauseManager","type":"address"}],"name":"PauseManagerChanged","type":"event"},{"anonymous":false,"inputs":[],"name":"PausedLocally","type":"event"},{"anonymous":false,"inputs":[{"indexed":false,"internalType":"bool","name":"paused","type":"bool"}],"name":"PausedStateChanged","type":"event"},{"anonymous":false,"inputs":[{"indexed":false,"internalType":"uint256","name":"swapFeePercentage","type":"uint256"}],"name":"SwapFeePercentageChanged","type":"event"},{"anonymous":false,"inputs":[{"indexed":true,"internalType":"address","name":"from","type":"address"},{"indexed":true,"internalType":"address","name":"to","type":"address"},{"indexed":false,"internalType":"uint256","name":"value","type":"uint256"}],"name":"Transfer","type":"event"},{"anonymous":false,"inputs":[],"name":"UnpausedLocally","type":"event"},{"inputs":[],"name":"DOMAIN_SEPARATOR","outputs":[{"internalType":"bytes32","name":"","type":"bytes32"}],"stateMutability":"view","type":"function"},{"inputs":[{"internalType":"address","name":"owner","type":"address"},{"internalType":"address","name":"spender","type":"address"}],"name":"allowance","outputs":[{"internalType":"uint256","name":"","type":"uint256"}],"stateMutability":"view","type":"function"},{"inputs":[{"internalType":"address","name":"spender","type":"address"},{"internalType":"uint256","name":"amount","type":"uint256"}],"name":"approve","outputs":[{"internalType":"bool","name":"","type":"bool"}],"stateMutability":"nonpayable","type":"function"},{"inputs":[{"internalType":"address","name":"account","type":"address"}],"name":"balanceOf","outputs":[{"internalType":"uint256","name":"","type":"uint256"}],"stateMutability":"view","type":"function"},{"inputs":[{"internalType":"uint256","name":"balanceTokenIn","type":"uint256"},{"internalType":"uint256","name":"balanceTokenOut","type":"uint256"},{"internalType":"bool","name":"tokenInIsToken0","type":"bool"}],"name":"calculateCurrentValues","outputs":[{"internalType":"uint256","name":"currentInvariant","type":"uint256"},{"internalType":"uint256","name":"virtualParamIn","type":"uint256"},{"internalType":"uint256","name":"virtualParamOut","type":"uint256"}],"stateMutability":"view","type":"function"},{"inputs":[],"name":"capManager","outputs":[{"internalType":"address","name":"","type":"address"}],"stateMutability":"view","type":"function"},{"inputs":[],"name":"capParams","outputs":[{"components":[{"internalType":"bool","name":"capEnabled","type":"bool"},{"internalType":"uint120","name":"perAddressCap","type":"uint120"},{"internalType":"uint128","name":"globalCap","type":"uint128"}],"internalType":"struct ICappedLiquidity.CapParams","name":"","type":"tuple"}],"stateMutability":"view","type":"function"},{"inputs":[{"internalType":"address","name":"_pauseManager","type":"address"}],"name":"changePauseManager","outputs":[],"stateMutability":"nonpayable","type":"function"},{"inputs":[],"name":"decimals","outputs":[{"internalType":"uint8","name":"","type":"uint8"}],"stateMutability":"view","type":"function"},{"inputs":[{"internalType":"address","name":"spender","type":"address"},{"internalType":"uint256","name":"amount","type":"uint256"}],"name":"decreaseAllowance","outputs":[{"internalType":"bool","name":"","type":"bool"}],"stateMutability":"nonpayable","type":"function"},{"inputs":[{"internalType":"bytes4","name":"selector","type":"bytes4"}],"name":"getActionId","outputs":[{"internalType":"bytes32","name":"","type":"bytes32"}],"stateMutability":"view","type":"function"},{"inputs":[],"name":"getActualSupply","outputs":[{"internalType":"uint256","name":"","type":"uint256"}],"stateMutability":"view","type":"function"},{"inputs":[],"name":"getAuthorizer","outputs":[{"internalType":"contract IAuthorizer","name":"","type":"address"}],"stateMutability":"view","type":"function"},{"inputs":[],"name":"getInvariant","outputs":[{"internalType":"uint256","name":"","type":"uint256"}],"stateMutability":"view","type":"function"},{"inputs":[],"name":"getInvariantDivActualSupply","outputs":[{"internalType":"uint256","name":"","type":"uint256"}],"stateMutability":"view","type":"function"},{"inputs":[],"name":"getLastInvariant","outputs":[{"internalType":"uint256","name":"","type":"uint256"}],"stateMutability":"view","type":"function"},{"inputs":[],"name":"getMiscData","outputs":[{"internalType":"int256","name":"logInvariant","type":"int256"},{"internalType":"int256","name":"logTotalSupply","type":"int256"},{"internalType":"uint256","name":"oracleSampleCreationTimestamp","type":"uint256"},{"internalType":"uint256","name":"oracleIndex","type":"uint256"},{"internalType":"bool","name":"oracleEnabled","type":"bool"},{"internalType":"uint256","name":"swapFeePercentage","type":"uint256"}],"stateMutability":"view","type":"function"},{"inputs":[],"name":"getNormalizedWeights","outputs":[{"internalType":"uint256[]","name":"","type":"uint256[]"}],"stateMutability":"view","type":"function"},{"inputs":[],"name":"getOwner","outputs":[{"internalType":"address","name":"","type":"address"}],"stateMutability":"view","type":"function"},{"inputs":[],"name":"getPausedState","outputs":[{"internalType":"bool","name":"paused","type":"bool"},{"internalType":"uint256","name":"pauseWindowEndTime","type":"uint256"},{"internalType":"uint256","name":"bufferPeriodEndTime","type":"uint256"}],"stateMutability":"view","type":"function"},{"inputs":[],"name":"getPoolId","outputs":[{"internalType":"bytes32","name":"","type":"bytes32"}],"stateMutability":"view","type":"function"},{"inputs":[],"name":"getPrice","outputs":[{"internalType":"uint256","name":"spotPrice","type":"uint256"}],"stateMutability":"view","type":"function"},{"inputs":[],"name":"getRate","outputs":[{"internalType":"uint256","name":"","type":"uint256"}],"stateMutability":"view","type":"function"},{"inputs":[],"name":"getSqrtParameters","outputs":[{"internalType":"uint256[2]","name":"","type":"uint256[2]"}],"stateMutability":"view","type":"function"},{"inputs":[],"name":"getSwapFeePercentage","outputs":[{"internalType":"uint256","name":"","type":"uint256"}],"stateMutability":"view","type":"function"},{"inputs":[],"name":"getTokenRates","outputs":[{"internalType":"uint256","name":"rate0","type":"uint256"},{"internalType":"uint256","name":"rate1","type":"uint256"}],"stateMutability":"view","type":"function"},{"inputs":[],"name":"getVault","outputs":[{"internalType":"contract IVault","name":"","type":"address"}],"stateMutability":"view","type":"function"},{"inputs":[],"name":"getVirtualParameters","outputs":[{"internalType":"uint256[]","name":"virtualParams","type":"uint256[]"}],"stateMutability":"view","type":"function"},{"inputs":[],"name":"gyroConfig","outputs":[{"internalType":"contract IGyroConfig","name":"","type":"address"}],"stateMutability":"view","type":"function"},{"inputs":[{"internalType":"address","name":"spender","type":"address"},{"internalType":"uint256","name":"addedValue","type":"uint256"}],"name":"increaseAllowance","outputs":[{"internalType":"bool","name":"","type":"bool"}],"stateMutability":"nonpayable","type":"function"},{"inputs":[],"name":"name","outputs":[{"internalType":"string","name":"","type":"string"}],"stateMutability":"view","type":"function"},{"inputs":[{"internalType":"address","name":"owner","type":"address"}],"name":"nonces","outputs":[{"internalType":"uint256","name":"","type":"uint256"}],"stateMutability":"view","type":"function"},{"inputs":[{"internalType":"bytes32","name":"poolId","type":"bytes32"},{"internalType":"address","name":"sender","type":"address"},{"internalType":"address","name":"recipient","type":"address"},{"internalType":"uint256[]","name":"balances","type":"uint256[]"},{"internalType":"uint256","name":"lastChangeBlock","type":"uint256"},{"internalType":"uint256","name":"protocolSwapFeePercentage","type":"uint256"},{"internalType":"bytes","name":"userData","type":"bytes"}],"name":"onExitPool","outputs":[{"internalType":"uint256[]","name":"","type":"uint256[]"},{"internalType":"uint256[]","name":"","type":"uint256[]"}],"stateMutability":"nonpayable","type":"function"},{"inputs":[{"internalType":"bytes32","name":"poolId","type":"bytes32"},{"internalType":"address","name":"sender","type":"address"},{"internalType":"address","name":"recipient","type":"address"},{"internalType":"uint256[]","name":"balances","type":"uint256[]"},{"internalType":"uint256","name":"lastChangeBlock","type":"uint256"},{"internalType":"uint256","name":"protocolSwapFeePercentage","type":"uint256"},{"internalType":"bytes","name":"userData","type":"bytes"}],"name":"onJoinPool","outputs":[{"internalType":"uint256[]","name":"amountsIn","type":"uint256[]"},{"internalType":"uint256[]","name":"dueProtocolFeeAmounts","type":"uint256[]"}],"stateMutability":"nonpayable","type":"function"},{"inputs":[{"components":[{"internalType":"enum IVault.SwapKind","name":"kind","type":"uint8"},{"internalType":"contract IERC20","name":"tokenIn","type":"address"},{"internalType":"contract IERC20","name":"tokenOut","type":"address"},{"internalType":"uint256","name":"amount","type":"uint256"},{"internalType":"bytes32","name":"poolId","type":"bytes32"},{"internalType":"uint256","name":"lastChangeBlock","type":"uint256"},{"internalType":"address","name":"from","type":"address"},{"internalType":"address","name":"to","type":"address"},{"internalType":"bytes","name":"userData","type":"bytes"}],"internalType":"struct IPoolSwapStructs.SwapRequest","name":"request","type":"tuple"},{"internalType":"uint256","name":"balanceTokenIn","type":"uint256"},{"internalType":"uint256","name":"balanceTokenOut","type":"uint256"}],"name":"onSwap","outputs":[{"internalType":"uint256","name":"","type":"uint256"}],"stateMutability":"nonpayable","type":"function"},{"inputs":[],"name":"pause","outputs":[],"stateMutability":"nonpayable","type":"function"},{"inputs":[],"name":"pauseManager","outputs":[{"internalType":"address","name":"","type":"address"}],"stateMutability":"view","type":"function"},{"inputs":[{"internalType":"address","name":"owner","type":"address"},{"internalType":"address","name":"spender","type":"address"},{"internalType":"uint256","name":"value","type":"uint256"},{"internalType":"uint256","name":"deadline","type":"uint256"},{"internalType":"uint8","name":"v","type":"uint8"},{"internalType":"bytes32","name":"r","type":"bytes32"},{"internalType":"bytes32","name":"s","type":"bytes32"}],"name":"permit","outputs":[],"stateMutability":"nonpayable","type":"function"},{"inputs":[{"internalType":"bytes32","name":"poolId","type":"bytes32"},{"internalType":"address","name":"sender","type":"address"},{"internalType":"address","name":"recipient","type":"address"},{"internalType":"uint256[]","name":"balances","type":"uint256[]"},{"internalType":"uint256","name":"lastChangeBlock","type":"uint256"},{"internalType":"uint256","name":"protocolSwapFeePercentage","type":"uint256"},{"internalType":"bytes","name":"userData","type":"bytes"}],"name":"queryExit","outputs":[{"internalType":"uint256","name":"bptIn","type":"uint256"},{"internalType":"uint256[]","name":"amountsOut","type":"uint256[]"}],"stateMutability":"nonpayable","type":"function"},{"inputs":[{"internalType":"bytes32","name":"poolId","type":"bytes32"},{"internalType":"address","name":"sender","type":"address"},{"internalType":"address","name":"recipient","type":"address"},{"internalType":"uint256[]","name":"balances","type":"uint256[]"},{"internalType":"uint256","name":"lastChangeBlock","type":"uint256"},{"internalType":"uint256","name":"protocolSwapFeePercentage","type":"uint256"},{"internalType":"bytes","name":"userData","type":"bytes"}],"name":"queryJoin","outputs":[{"internalType":"uint256","name":"bptOut","type":"uint256"},{"internalType":"uint256[]","name":"amountsIn","type":"uint256[]"}],"stateMutability":"nonpayable","type":"function"},{"inputs":[],"name":"rateProvider0","outputs":[{"internalType":"contract IRateProvider","name":"","type":"address"}],"stateMutability":"view","type":"function"},{"inputs":[],"name":"rateProvider1","outputs":[{"internalType":"contract IRateProvider","name":"","type":"address"}],"stateMutability":"view","type":"function"},{"inputs":[{"internalType":"address","name":"_capManager","type":"address"}],"name":"setCapManager","outputs":[],"stateMutability":"nonpayable","type":"function"},{"inputs":[{"components":[{"internalType":"bool","name":"capEnabled","type":"bool"},{"internalType":"uint120","name":"perAddressCap","type":"uint120"},{"internalType":"uint128","name":"globalCap","type":"uint128"}],"internalType":"struct ICappedLiquidity.CapParams","name":"params","type":"tuple"}],"name":"setCapParams","outputs":[],"stateMutability":"nonpayable","type":"function"},{"inputs":[{"internalType":"bool","name":"paused","type":"bool"}],"name":"setPaused","outputs":[],"stateMutability":"nonpayable","type":"function"},{"inputs":[{"internalType":"uint256","name":"swapFeePercentage","type":"uint256"}],"name":"setSwapFeePercentage","outputs":[],"stateMutability":"nonpayable","type":"function"},{"inputs":[],"name":"symbol","outputs":[{"internalType":"string","name":"","type":"string"}],"stateMutability":"view","type":"function"},{"inputs":[],"name":"totalSupply","outputs":[{"internalType":"uint256","name":"","type":"uint256"}],"stateMutability":"view","type":"function"},{"inputs":[{"internalType":"address","name":"recipient","type":"address"},{"internalType":"uint256","name":"amount","type":"uint256"}],"name":"transfer","outputs":[{"internalType":"bool","name":"","type":"bool"}],"stateMutability":"nonpayable","type":"function"},{"inputs":[{"internalType":"address","name":"sender","type":"address"},{"internalType":"address","name":"recipient","type":"address"},{"internalType":"uint256","name":"amount","type":"uint256"}],"name":"transferFrom","outputs":[{"internalType":"bool","name":"","type":"bool"}],"stateMutability":"nonpayable","type":"function"},{"inputs":[],"name":"unpause","outputs":[],"stateMutability":"nonpayable","type":"function"}],"bytecode":"6103206040527f6e71edae12b1b97f4d1f60370fef10105fa2faae0126114a169c64845d6126c9610120526706f05b59d3b20000610200819052610220526000610240523480156200005057600080fd5b506040516200575538038062005755833981016040819052620000739162000b0b565b8160e001518260a001518360c0015184600001518060c001518160e001518260200151836040015184600001518280604051806040016040528060018152602001603160f81b81525085858a6101000151336001600160a01b031660001b806080818152505050806001600160a01b031660a0816001600160a01b031660601b81525050508160039080519060200190620001109291906200084d565b508051620001269060049060208401906200084d565b505060058054601260ff1990911617905550815160209283012060c052805191012060e052507f8b73c3c69bb8fe3d512ecc4cf759cc79239f7b179b0ffacaa9a75d522b39400f61010052606090811b6001600160601b031916610140524294909401610160819052909201610180525050604080516002808252928101909152600091816020016020820280368337019050509050816060015181600081518110620001cf57fe5b60200260200101906001600160a01b031690816001600160a01b0316815250508160800151816001815181106200020257fe5b60200260200101906001600160a01b031690816001600160a01b03168152505062000238816200053e60201b620018631760201c565b60a082015162000248906200054e565b81516040516309b2760f60e01b81526000916001600160a01b0316906309b2760f906200027b9060029060040162000cc5565b602060405180830381600087803b1580156200029657600080fd5b505af1158015620002ab573d6000803e3d6000fd5b505050506040513d601f19601f82011682018060405250810190620002d1919062000af2565b83516040805160028082526060820183529394506001600160a01b03909216926366a9c7d2928592879290602083019080368337019050506040518463ffffffff1660e01b8152600401620003299392919062000c2b565b600060405180830381600087803b1580156200034457600080fd5b505af115801562000359573d6000803e3d6000fd5b5050506101a082905250606080840180516001600160601b031990831b81166101c052608086015190921b9091166101e052516200039790620005d7565b610260526080830151620003ab90620005d7565b61028052505060408051808201909152600e81526d1b9bdd08185d5d1a1bdc9a5e995960921b602082015290506001600160a01b0383166200040b5760405162461bcd60e51b815260040162000402919062000cda565b60405180910390fd5b50600b80546001600160a01b0319166001600160a01b039384161790558051600a8054602084015160409094015160ff1990911692151592909217610100600160801b0319166101006001600160781b0390941693909302929092176001600160801b03908116600160801b9190921602179055620004909082161515606962000685565b600c80546001600160a01b0319166001600160a01b039290921691909117905560408201516020830151620004c9911161015e62000685565b620004e16001600160a01b0382161515606962000685565b60208201516102a05260408201516102c052600d80546001600160a01b0319166001600160a01b0392909216919091179055606080820151811b6001600160601b03199081166102e052608090920151901b166103005262000d6f565b806200054a8162000696565b5050565b6200056364e8d4a5100082101560cb62000723565b6200057b67016345785d8a000082111560ca62000723565b62000597816008546200073460201b620018711790919060201c565b6008556040517fa9ba3ffe0b6c366b81232caab38605a0699ad5398d6cce76f91ee809e322dafc90620005cc90839062000d0f565b60405180910390a150565b600080826001600160a01b031663313ce5676040518163ffffffff1660e01b815260040160206040518083038186803b1580156200061457600080fd5b505afa15801562000629573d6000803e3d6000fd5b505050506040513d601f19601f820116820180604052508101906200064f919062000c08565b60ff16905060006200066e6012836200075a60201b620018861760201c565b600a0a670de0b6b3a764000002925050505b919050565b816200054a576200054a8162000772565b600281511015620006a75762000720565b600081600081518110620006b757fe5b602002602001015190506000600190505b82518110156200071d576000838281518110620006e157fe5b6020026020010151905062000712816001600160a01b0316846001600160a01b03161060656200072360201b60201c565b9150600101620006c8565b50505b50565b816200054a576200054a8162000784565b60006200075382605685620007d760201b6200189c179092919060201c565b9392505050565b60006200076c83831115600162000723565b50900390565b62000720816223aca960e91b620007ec565b62461bcd60e51b6000908152602060045260076024526642414c23000030600a808404818106603090810160081b95839006959095019082900491820690940160101b939093010160c81b604452606490fd5b6001600160401b03811b1992909216911b1790565b62461bcd60e51b600090815260206004526007602452600a808404818106603090810160081b958390069590950190829004918206850160101b01602363ffffff0060e086901c160160181b0190930160c81b60445260e882901c90606490fd5b828054600181600116156101000203166002900490600052602060002090601f016020900481019282620008855760008555620008d0565b82601f10620008a057805160ff1916838001178555620008d0565b82800160010185558215620008d0579182015b82811115620008d0578251825591602001919060010190620008b3565b50620008de929150620008e2565b5090565b5b80821115620008de5760008155600101620008e3565b80516001600160a01b03811681146200068057600080fd5b600082601f83011262000922578081fd5b81516001600160401b038111156200093657fe5b6200094b601f8201601f191660200162000d18565b81815284602083860101111562000960578283fd5b6200097382602083016020870162000d3c565b949350505050565b6000606082840312156200098d578081fd5b604051606081016001600160401b0381118282101715620009aa57fe5b806040525080915082518015158114620009c357600080fd5b815260208301516001600160781b0381168114620009e057600080fd5b602082015260408301516001600160801b038116811462000a0057600080fd5b6040919091015292915050565b600061012080838503121562000a21578182fd5b62000a2c8162000d18565b91505062000a3a82620008f9565b815260208201516001600160401b038082111562000a5757600080fd5b62000a658583860162000911565b6020840152604084015191508082111562000a7f57600080fd5b5062000a8e8482850162000911565b60408301525062000aa260608301620008f9565b606082015262000ab560808301620008f9565b608082015260a082015160a082015260c082015160c082015260e082015160e082015261010062000ae8818401620008f9565b9082015292915050565b60006020828403121562000b04578081fd5b5051919050565b6000806040838503121562000b1e578081fd5b82516001600160401b038082111562000b35578283fd5b90840190610140828703121562000b4a578283fd5b62000b5761010062000d18565b82518281111562000b66578485fd5b62000b748882860162000a0d565b825250602083015160208201526040830151604082015262000b9960608401620008f9565b606082015262000bac60808401620008f9565b608082015262000bbf60a08401620008f9565b60a082015262000bd38760c085016200097b565b60c082015262000be76101208401620008f9565b60e0820152935062000bff91505060208401620008f9565b90509250929050565b60006020828403121562000c1a578081fd5b815160ff8116811462000753578182fd5b60006060820185835260206060818501528186518084526080860191508288019350845b8181101562000c765784516001600160a01b03168352938301939183019160010162000c4f565b505084810360408601528551808252908201925081860190845b8181101562000cb75782516001600160a01b03168552938301939183019160010162000c90565b509298975050505050505050565b602081016003831062000cd457fe5b91905290565b600060208252825180602084015262000cfb81604085016020870162000d3c565b601f01601f19169190910160400192915050565b90815260200190565b6040518181016001600160401b038111828210171562000d3457fe5b604052919050565b60005b8381101562000d5957818101518382015260200162000d3f565b8381111562000d69576000848401525b50505050565b60805160a05160601c60c05160e05161010051610120516101405160601c61016051610180516101a0516101c05160601c6101e05160601c61020051610220516102405161026051610280516102a0516102c0516102e05160601c6103005160601c6148c262000e9360003980610b805280610caa5280610ce65280611cbf528061259052806125c2525080610bdb5280610c1752806110645280611c7552806124c352806124f5525080612fa4525080612fcb525080611ce2525080611c98525050806136b95250806136e05250806124445250806113cb52806123f852508061088a525080611a015250806119dd5250806112235250806115f6525080611b1d525080611b5f525080611b3e5250806111ff52508061114452506148c26000f3fe608060405234801561001057600080fd5b50600436106102f15760003560e01c806370a082311161019d57806395d89b41116100e9578063aaabadc5116100a2578063d505accf1161007c578063d505accf14610601578063d5c096c414610614578063dd62ed3e14610627578063f89f27ed1461063a576102f1565b8063aaabadc5146105e9578063abd13afe146105f1578063c0ff1a15146105f9576102f1565b806395d89b411461059857806398d5fdca146105a05780639b02cdde146105a85780639d2c110c146105b0578063a457c2d7146105c3578063a9059cbb146105d6576102f1565b80638456cb591161015657806387ec68171161013057806387ec681714610560578063893d20e8146105735780638d928af81461057b5780638dd9f89d14610583576102f1565b80638456cb591461053d578063851c1bb314610545578063876f303b14610558576102f1565b806370a08231146104c857806374f3b009146104db57806376e54a46146104fc5780637ecebe001461050f5780638002df1814610522578063828a7c3414610535576102f1565b80633aeae0d31161025c5780636028bfd411610215578063679aefce116101ef578063679aefce1461048d5780636d785a8714610495578063702ec0911461049d578063707dcd1e146104b3576102f1565b80636028bfd41461045c578063623a2e751461047d57806362ced09214610485576102f1565b80633aeae0d3146103e65780633c4dd5bb146103fb5780633f4ba83a1461041d57806344bbdb55146104255780634a6b0b151461043a57806355c6762814610454576102f1565b806323b872dd116102ae57806323b872dd14610388578063313ce5671461039b5780633644e515146103b057806338e9922e146103b857806338fff2d0146103cb57806339509351146103d3576102f1565b806306fdde03146102f6578063095ea7b3146103145780630e608b301461033457806316c38b3c1461034957806318160ddd1461035c5780631c0de05114610371575b600080fd5b6102fe610642565b60405161030b9190614755565b60405180910390f35b61032761032236600461428e565b6106d8565b60405161030b91906146e8565b610347610342366004614169565b6106ef565b005b6103476103573660046142b9565b6107a0565b6103646107b4565b60405161030b919061470b565b6103796107ba565b60405161030b939291906146f3565b6103276103963660046141d9565b6107e3565b6103a3610857565b60405161030b9190614845565b610364610860565b6103476103c636600461457d565b61086f565b610364610888565b6103276103e136600461428e565b6108ac565b6103ee6108e7565b60405161030b91906147a8565b61040e6104093660046145ad565b610932565b60405161030b9392919061482f565b610347610985565b61042d610a7a565b60405161030b919061466b565b610442610a89565b60405161030b9695949392919061472b565b610364610ae4565b61046f61046a3660046142d3565b610af1565b60405161030b929190614808565b610364610b22565b61042d610b7e565b610364610ba2565b61042d610bc7565b6104a5610bd6565b60405161030b929190614821565b6104bb610d7b565b60405161030b919061467f565b6103646104d6366004614169565b610d8b565b6104ee6104e93660046142d3565b610daa565b60405161030b9291906146c3565b61034761050a366004614407565b610e3a565b61036461051d366004614169565b610f61565b610347610530366004614169565b610f7c565b61042d611062565b610347611086565b6103646105533660046143df565b61113e565b610364611197565b61046f61056e3660046142d3565b6111d8565b61042d6111fd565b61042d611221565b61058b611245565b60405161030b91906146b0565b6102fe6112df565b610364611340565b61036461139c565b6103646105be366004614486565b6113a2565b6103276105d136600461428e565b611528565b6103276105e436600461428e565b611566565b61042d611573565b61042d61157d565b61036461158c565b61034761060f366004614219565b6115c7565b6104ee6106223660046142d3565b611737565b6103646106353660046141a1565b61181c565b61058b611859565b60038054604080516020601f60026000196101006001881615020190951694909404938401819004810282018101909252828152606093909290918301828280156106ce5780601f106106a3576101008083540402835291602001916106ce565b820191906000526020600020905b8154815290600101906020018083116106b157829003601f168201915b5050505050905090565b60006106e53384846118b2565b5060015b92915050565b600b5460408051808201909152600e81526d1b9bdd08185d5d1a1bdc9a5e995960921b6020820152906001600160a01b031633146107495760405162461bcd60e51b81526004016107409190614755565b60405180910390fd5b50600b80546001600160a01b0319166001600160a01b0383161790556040517fb8fd9afc34c38fcd13b9a3b7646482eb1fddcefb40af2c70609972816eba32089061079590839061466b565b60405180910390a150565b6107a8611914565b6107b181611942565b50565b60025490565b60008060006107c76119be565b1592506107d26119db565b91506107dc6119ff565b9050909192565b6000806107f0853361181c565b9050610814336001600160a01b038716148061080c5750838210155b61019e611a23565b61081f858585611a31565b336001600160a01b0386161480159061083a57506000198114155b1561084c5761084c85338584036118b2565b506001949350505050565b60055460ff1690565b600061086a611b19565b905090565b610877611914565b61087f611bd7565b6107b181611bec565b7f000000000000000000000000000000000000000000000000000000000000000090565b3360008181526001602090815260408083206001600160a01b038716845290915281205490916106e59185906108e29086611c55565b6118b2565b6108ef61409c565b5060408051606081018252600a5460ff81161515825261010081046001600160781b03166020830152600160801b90046001600160801b03169181019190915290565b60008060008061094185611c67565b9050600061094f8615611c67565b905061095b8883611d94565b97506109678782611d94565b9650610974888888611da0565b945094509450505093509350939050565b600c546040805180820190915260118152703737ba103830bab9b29036b0b730b3b2b960791b6020820152906001600160a01b03163314610a445760405162461bcd60e51b81526004018080602001828103825283818151815260200191508051906020019080838360005b83811015610a095781810151838201526020016109f1565b50505050905090810190601f168015610a365780820380516001836020036101000a031916815260200191505b509250505060405180910390fd5b50610a4f60006107a8565b6040517f215385c8bfc731925ec8068d7baa50f6b6f34417cc7804f7273dc2c0b3db279090600090a1565b600d546001600160a01b031681565b60008060008060008060006008549050610aa281611e6f565b9650610aad81611e7b565b9550610ab881611e88565b9450610ac381611e95565b9350610ace81611ea2565b9250610ad981611eaf565b915050909192939495565b600061086a600854611eaf565b60006060610b0186516002611ebc565b610b1689898989898989611ec9611f9061200e565b97509795505050505050565b600080610b2d61158c565b90506000610b396107b4565b9050600080610b4a60095485612121565b50919350915060009050610b6882610b62868661218a565b9061218a565b9050610b7485826121a2565b9550505050505090565b7f000000000000000000000000000000000000000000000000000000000000000081565b600061086a610baf6107b4565b610bc1610bba61158c565b60026121fc565b906121a2565b600b546001600160a01b031681565b6000807f00000000000000000000000000000000000000000000000000000000000000006001600160a01b0316610c1557670de0b6b3a7640000610ca6565b7f00000000000000000000000000000000000000000000000000000000000000006001600160a01b031663679aefce6040518163ffffffff1660e01b815260040160206040518083038186803b158015610c6e57600080fd5b505afa158015610c82573d6000803e3d6000fd5b505050506040513d601f19601f82011682018060405250810190610ca69190614595565b91507f00000000000000000000000000000000000000000000000000000000000000006001600160a01b0316610ce457670de0b6b3a7640000610d75565b7f00000000000000000000000000000000000000000000000000000000000000006001600160a01b031663679aefce6040518163ffffffff1660e01b815260040160206040518083038186803b158015610d3d57600080fd5b505afa158015610d51573d6000803e3d6000fd5b505050506040513d601f19601f82011682018060405250810190610d759190614595565b90509091565b610d836140bc565b61086a612220565b6001600160a01b0381166000908152602081905260409020545b919050565b60608088610dd4610db9611221565b6001600160a01b0316336001600160a01b03161460cd611a23565b610de9610ddf610888565b82146101f4611a23565b610df287612246565b6000806000610e068d8d8d8d8d8d8d611ec9565b925092509250610e168c846122a8565b610e1f82611f90565b610e2881611f90565b909c909b509950505050505050505050565b600b5460408051808201909152600e81526d1b9bdd08185d5d1a1bdc9a5e995960921b6020820152906001600160a01b03163314610e8b5760405162461bcd60e51b81526004016107409190614755565b50600a5460408051808201909152601081526f1c1bdbdb081a5cc81d5b98d85c1c195960821b60208201529060ff16610ed75760405162461bcd60e51b81526004016107409190614755565b508051600a8054602084015160408086015160ff19909316941515949094176fffffffffffffffffffffffffffffff0019166101006001600160781b0390921691909102176001600160801b03908116600160801b919092160217815590517f2abf5970d7bc1a2b36eaae52dd2cc353edb0337c7284ef8a01973081b4e0442491610795916147dd565b6001600160a01b031660009081526006602052604090205490565b600c546040805180820190915260118152703737ba103830bab9b29036b0b730b3b2b960791b60208201526001600160a01b03909116903382146110015760405162461bcd60e51b8152602060048201818152835160248401528351909283926044909101919085019080838360008315610a095781810151838201526020016109f1565b50600c80546001600160a01b0319166001600160a01b03848116918217909255604080519284168352602083019190915280517f1ffccd1fa96f4fb3415df8048a0fd107344e262d2d246c85105e2a3f8f3e81989281900390910190a15050565b7f000000000000000000000000000000000000000000000000000000000000000081565b600c546040805180820190915260118152703737ba103830bab9b29036b0b730b3b2b960791b6020820152906001600160a01b031633146111085760405162461bcd60e51b8152602060048201818152835160248401528351909283926044909101919085019080838360008315610a095781810151838201526020016109f1565b5061111360016107a8565b6040517f681eace576127d0553b224436a09801fb47d042942cbff59d7d4ff04d8fa03d790600090a1565b604080517f00000000000000000000000000000000000000000000000000000000000000006020808301919091526001600160e01b03198416828401528251602481840301815260449092019092528051910120919050565b6000806111a26107b4565b90506000806111ba6009546111b561158c565b612121565b5091935091506111d0905081610b62858561218a565b935050505090565b600060606111e886516002611ebc565b610b16898989898989896122b261237161200e565b7f000000000000000000000000000000000000000000000000000000000000000090565b7f000000000000000000000000000000000000000000000000000000000000000090565b606060006112516123d3565b60408051600280825260608201835292935091906020830190803683370190505091506112a88160008151811061128457fe5b60200260200101518260018151811061129957fe5b60200260200101516001611da0565b909150836000815181106112b857fe5b60200260200101846001815181106112cc57fe5b6020908102919091010191909152525090565b60048054604080516020601f60026000196101006001881615020190951694909404938401819004810282018101909252828152606093909290918301828280156106ce5780601f106106a3576101008083540402835291602001916106ce565b60008061134b6123d3565b905060008060006113778460008151811061136257fe5b60200260200101518560018151811061129957fe5b925092509250611388848383612489565b9450611393856124bf565b94505050505090565b60095490565b60006113ac611bd7565b83608001516113bc610db9611221565b6113c7610ddf610888565b60007f00000000000000000000000000000000000000000000000000000000000000006001600160a01b031686602001516001600160a01b0316149050600061140f82611c67565b9050600061141d8315611c67565b90506114298783611d94565b96506114358682611d94565b955060008060006114478a8a88611da0565b9194509250905060008b51600181111561145d57fe5b14156114cc57600061147b611470610ae4565b60608e01519061265f565b905061149d611497828e606001516126b490919063ffffffff16565b87611d94565b60608d015260006114b18d8d8d87876126ca565b90506114bd81876126e9565b99505050505050505050611520565b6114da8b6060015185611d94565b60608c015260006114ee8c8c8c86866126f5565b90506114fa8187612708565b905061151661150f61150a610ae4565b612714565b829061273a565b9850505050505050505b509392505050565b600080611535338561181c565b905080831061154f5761154a338560006118b2565b61155c565b61155c33858584036118b2565b5060019392505050565b60006106e5338484611a31565b600061086a6127a0565b600c546001600160a01b031681565b6000806115976123d3565b905060006115a3612220565b90506115c0828260005b60200201518360015b602002015161281a565b9250505090565b6115d58442111560d1611a23565b6001600160a01b0380881660008181526006602090815260408083205481517f00000000000000000000000000000000000000000000000000000000000000008185015280830195909552948b166060850152608084018a905260a0840185905260c08085018a90528151808603909101815260e090940190528251920191909120906116618261284d565b9050600060018288888860405160008152602001604052604051808581526020018460ff1681526020018381526020018281526020019450505050506020604051602081039080840390855afa1580156116bf573d6000803e3d6000fd5b5050604051601f190151915061170190506001600160a01b038216158015906116f957508b6001600160a01b0316826001600160a01b0316145b6101f8611a23565b6001600160a01b038b16600090815260066020526040902060018501905561172a8b8b8b6118b2565b5050505050505050505050565b60608088611746610db9611221565b611751610ddf610888565b611759611bd7565b60006117636107b4565b6117d3576117738b8b8b88612899565b94509050611788620f424082101560cc611a23565b6117966000620f424061296e565b6117a589620f4240830361296e565b6117ae84612371565b604080516002808252606082018352909160208301908036833701905050925061180e565b6117dc88612246565b6117eb8b8b8b8b8b8b8b6122b2565b909550935090506117fc898261296e565b61180584612371565b61180e83611f90565b505097509795505050505050565b6000611826611221565b6001600160a01b0316826001600160a01b0316141561184857506000196106e9565b6118528383612978565b90506106e9565b606061086a6129a3565b8061186d81612a12565b5050565b600061187f8383605661189c565b9392505050565b6000611896838311156001611a23565b50900390565b67ffffffffffffffff811b1992909216911b1790565b6001600160a01b03808416600081815260016020908152604080832094871680845294825291829020859055815185815291517f8c5be1e5ebec7d5bd14f71427d1e84f3dd0314c0f7b2291e5b200ac8c7c3b9259281900390910190a3505050565b600061192b6000356001600160e01b03191661113e565b90506107b161193a8233612a90565b610191611a23565b80156119625761195d6119536119db565b4210610193611a23565b611977565b61197761196d6119ff565b42106101a9611a23565b6007805482151560ff19909116811790915560408051918252517f9e3a5e37224532dea67b89face185703738a228a6e8a23dee546960180d3be649181900360200190a150565b60006119c86119ff565b42118061086a57505060075460ff161590565b7f000000000000000000000000000000000000000000000000000000000000000090565b7f000000000000000000000000000000000000000000000000000000000000000090565b8161186d5761186d81612b92565b611a486001600160a01b0384161515610198611a23565b611a5f6001600160a01b0383161515610199611a23565b611a6a838383612a8b565b6001600160a01b038316600090815260208190526040902054611a9090826101a0612be5565b6001600160a01b038085166000908152602081905260408082209390935590841681522054611abf9082611c55565b6001600160a01b038084166000818152602081815260409182902094909455805185815290519193928716927fddf252ad1be2c89b69c2b068fc378daa952ba7f163c4a11628f55a4df523b3ef92918290030190a3505050565b60007f00000000000000000000000000000000000000000000000000000000000000007f00000000000000000000000000000000000000000000000000000000000000007f0000000000000000000000000000000000000000000000000000000000000000611b86612bfb565b3060405160200180868152602001858152602001848152602001838152602001826001600160a01b031681526020019550505050505060405160208183030381529060405280519060200120905090565b611bea611be26119be565b610192611a23565b565b611bff64e8d4a5100082101560cb611a23565b611c1567016345785d8a000082111560ca611a23565b600854611c229082611871565b6008556040517fa9ba3ffe0b6c366b81232caab38605a0699ad5398d6cce76f91ee809e322dafc9061079590839061470b565b600082820161187f8482101583611a23565b60008060008315611cbc57507f000000000000000000000000000000000000000000000000000000000000000090507f0000000000000000000000000000000000000000000000000000000000000000611d02565b507f000000000000000000000000000000000000000000000000000000000000000090507f00000000000000000000000000000000000000000000000000000000000000005b6001600160a01b0382161561187f57611d8c826001600160a01b031663679aefce6040518163ffffffff1660e01b815260040160206040518083038186803b158015611d4d57600080fd5b505afa158015611d61573d6000803e3d6000fd5b505050506040513d601f19601f82011682018060405250810190611d859190614595565b8290612bff565b949350505050565b600061187f8383612bff565b60408051600280825260608201835260009283928392839260208301908036833701905050905084611dd25785611dd4565b865b81600081518110611de157fe5b60200260200101818152505084611df85786611dfa565b855b81600181518110611e0757fe5b6020026020010181815250506000611e1d612220565b9050611e2b828260006115ad565b94506000611e398287612c38565b905086611e4a576020810151611e4d565b80515b945086611e5b578051611e61565b60208101515b935050505093509350939050565b60006106e98282612c6c565b60006106e9826016612c6c565b60006106e982602c612c93565b60006106e982604b612c9d565b60006106e9826055612ca5565b60006106e9826056612caf565b61186d8183146067611a23565b60006060806000611ed8612220565b9050611ee26119be565b15611f44576000611efd8983835b60200201518460016115b6565b90506000611f0b8383612c38565b9050611f1682612cbd565b611f208a88612cea565b9096509450611f398287611f326107b4565b6000612d36565b60095550611f5a9050565b611f4e8886612cea565b60001960095590945092505b60408051600280825260608201835286928692919060208301908036833701905050935093509350509750975097945050505050565b611fb781600081518110611fa057fe5b6020026020010151611fb26001611c67565b6121a2565b81600081518110611fc457fe5b602002602001018181525050611ff281600181518110611fe057fe5b6020026020010151611fb26000611c67565b81600181518110611fff57fe5b60200260200101818152505050565b3330146120cc576000306001600160a01b031660003660405161203292919061465b565b6000604051808303816000865af19150503d806000811461206f576040519150601f19603f3d011682016040523d82523d6000602084013e612074565b606091505b50509050806000811461208357fe5b60046000803e6000516001600160e01b0319166343adbafb60e01b81146120ae573d6000803e3d6000fd5b506020600460003e604060205260243d03602460403e601c3d016000f35b6120d586612246565b6000806120eb8b8b8b8b8b8b8b8b63ffffffff16565b50915091506120fd818463ffffffff16565b8051601f1982018390526343adbafb603f1983015260200260231982016044820181fd5b600080600080600080600080612135612d8e565b9350935093509350836000141561215a57600097508796509094509250612181915050565b6000806121718c8c61216a6107b4565b8989612f00565b909a509850929650909450505050505b92959194509250565b60008282018381101561187f5761187f600080611a23565b6000816121b5576121b560006004611a23565b826121c2575060006106e9565b670de0b6b3a7640000838102908482816121d857fe5b04146121ea576121ea60006005611a23565b8281816121f357fe5b04949350505050565b600082820261187f84158061221957508385838161221657fe5b04145b6003611a23565b6122286140bc565b6122326001612f9b565b815261223e6000612f9b565b602082015290565b61226d8160008151811061225657fe5b60200260200101516122686001611c67565b612bff565b8160008151811061227a57fe5b602002602001018181525050611ff28160018151811061229657fe5b60200260200101516122686000611c67565b61186d8282612fef565b600060608060006122c1612220565b905060006122d0898383611ef0565b905060006122de8383612c38565b90506122e982612cbd565b6000806122f68c8a6130a6565b600a54919350915060ff161561232057612320826123138f610d8b565b61231b6107b4565b6130e0565b612334848361232d6107b4565b6001612d36565b6009556040805160028082526060820183528492849291906020830190803683370190505097509750975050505050509750975097945050505050565b6123988160008151811061238157fe5b60200260200101516123936001611c67565b61273a565b816000815181106123a557fe5b602002602001018181525050611ff2816001815181106123c157fe5b60200260200101516123936000611c67565b60408051600280825260608083018452926020830190803683370190505090506124267f00000000000000000000000000000000000000000000000000000000000000006124216001611c67565b6131f2565b8160008151811061243357fe5b60200260200101818152505061246d7f00000000000000000000000000000000000000000000000000000000000000006124216000611c67565b8160018151811061247a57fe5b60200260200101818152505090565b6000611d8c8460008151811061249b57fe5b602002602001015184866001815181106124b157fe5b602002602001015185613299565b60007f00000000000000000000000000000000000000000000000000000000000000006001600160a01b03161561258e5761258b7f00000000000000000000000000000000000000000000000000000000000000006001600160a01b031663679aefce6040518163ffffffff1660e01b815260040160206040518083038186803b15801561254c57600080fd5b505afa158015612560573d6000803e3d6000fd5b505050506040513d601f19601f820116820180604052508101906125849190614595565b8390612bff565b91505b7f00000000000000000000000000000000000000000000000000000000000000006001600160a01b03161561265b576126587f00000000000000000000000000000000000000000000000000000000000000006001600160a01b031663679aefce6040518163ffffffff1660e01b815260040160206040518083038186803b15801561261957600080fd5b505afa15801561262d573d6000803e3d6000fd5b505050506040513d601f19601f820116820180604052508101906126519190614595565b83906121a2565b91505b5090565b600082820283158061267957508284828161267657fe5b04145b6126895761268960006003611a23565b806126985760009150506106e9565b670de0b6b3a764000060001982015b0460010191505092915050565b6000828211156118965761189660006001611a23565b60006126dd8585886060015186866132b2565b90505b95945050505050565b600061187f83836121a2565b60006126dd85858860600151868661331c565b600061187f838361273a565b6000670de0b6b3a7640000821061272c5760006106e9565b50670de0b6b3a76400000390565b60008161274d5761274d60006004611a23565b8261275a575060006106e9565b670de0b6b3a76400008381029084828161277057fe5b041461279457612794670de0b6b3a764000085838161278b57fe5b04146005611a23565b8260018203816126a757fe5b60006127aa611221565b6001600160a01b031663aaabadc56040518163ffffffff1660e01b815260040160206040518083038186803b1580156127e257600080fd5b505afa1580156127f6573d6000803e3d6000fd5b505050506040513d601f19601f8201168201806040525081019061086a9190614185565b600080600080600061282d88888861337c565b9350935093509350612841848484846134d4565b98975050505050505050565b6000612857611b19565b82604051602001808061190160f01b81525060020183815260200182815260200192505050604051602081830303815290604052805190602001209050919050565b6000606060006128a884613548565b90506128c360008260038111156128bb57fe5b1460ce611a23565b60006128ce85613567565b90506128dc81516002611ebc565b6128e581612246565b60008060006128fa8460008151811061136257fe5b925092509250600061290d858484612489565b9050600061295561293b838860008151811061292557fe5b6020026020010151612bff90919063ffffffff16565b8760018151811061294857fe5b6020026020010151611c55565b60099590955550929b939a509298505050505050505050565b61186d828261361b565b6001600160a01b03918216600090815260016020908152604080832093909416825291909152205490565b604080516002808252606080830184529260009291906020830190803683370190505090506129d260016136b0565b816000815181106129df57fe5b6020026020010181815250506129f560006136b0565b81600181518110612a0257fe5b6020908102919091010152905090565b600281511015612a21576107b1565b600081600081518110612a3057fe5b602002602001015190506000600190505b8251811015612a8b576000838281518110612a5857fe5b60200260200101519050612a81816001600160a01b0316846001600160a01b0316106065611a23565b9150600101612a41565b505050565b600073ba1ba1ba1ba1ba1ba1ba1ba1ba1ba1ba1ba1ba1b612aaf6111fd565b6001600160a01b031614158015612aca5750612aca83613704565b15612af257612ad76111fd565b6001600160a01b0316336001600160a01b03161490506106e9565b612afa6127a0565b6001600160a01b0316639be2a8848484306040518463ffffffff1660e01b815260040180848152602001836001600160a01b03168152602001826001600160a01b03168152602001935050505060206040518083038186803b158015612b5f57600080fd5b505afa158015612b73573d6000803e3d6000fd5b505050506040513d6020811015612b8957600080fd5b505190506106e9565b62461bcd60e51b6000908152602060045260076024526642414c23000030600a808404818106603090810160081b95839006959095019082900491820690940160101b939093010160c81b604452606490fd5b6000612bf48484111583611a23565b5050900390565b4690565b6000828202831580612c19575082848281612c1657fe5b04145b612c2957612c2960006003611a23565b670de0b6b3a7640000816121f3565b612c406140bc565b612c53600184815b602002015184613736565b8152612c6160008481612c48565b602082015292915050565b600082821c623fffff16621fffff8113612c865780611d8c565b623fffff19179392505050565b1c637fffffff1690565b1c6103ff1690565b1c60019081161490565b1c67ffffffffffffffff1690565b600080600080612ccf60095486612121565b9350935093509350612ce384848484613756565b5050505050565b600060606000612cf984613548565b90506001816003811115612d0957fe5b1415612d2357612d19858561377c565b9093509150612d2e565b612d2e610150612b92565b509250929050565b60008115612d68576000612d5484612d4e888861265f565b9061273a565b9050612d60868261218a565b915050611d8c565b6000612d7884610bc18888612bff565b9050612d8486826126b4565b9695505050505050565b600d54600090819081908190612db5906001600160a01b03163063032434c560e41b6137ae565b600d54612dd3906001600160a01b03163063032434c560e41b6137d5565b600d546040516321f8a72160e01b81526001600160a01b03909116906321f8a72190612e13906c4759524f5f545245415355525960981b9060040161470b565b60206040518083038186803b158015612e2b57600080fd5b505afa158015612e3f573d6000803e3d6000fd5b505050506040513d601f19601f82011682018060405250810190612e639190614185565b600d546040516321f8a72160e01b81526001600160a01b03909116906321f8a72190612ea2906b42414c5f545245415355525960a01b9060040161470b565b60206040518083038186803b158015612eba57600080fd5b505afa158015612ece573d6000803e3d6000fd5b505050506040513d601f19601f82011682018060405250810190612ef29190614185565b935093509350935090919293565b600080868611612f1557506000905080612f91565b6000612f3585612f2f612f288a8c6126b4565b8990612bff565b90612bff565b90506000612f4d612f46898b6126b4565b8790612bff565b90506000612f5b89836126b4565b90506000612f6984836121a2565b90506000612f778883612bff565b90506000612f8583836126b4565b91975090955050505050505b9550959350505050565b600081612fc8577f00000000000000000000000000000000000000000000000000000000000000006106e9565b507f0000000000000000000000000000000000000000000000000000000000000000919050565b6130066001600160a01b038316151561019b611a23565b61301282600083612a8b565b6001600160a01b03821660009081526020819052604090205461303890826101a1612be5565b6001600160a01b03831660009081526020819052604090205560025461305e9082613803565b6002556040805182815290516000916001600160a01b038516917fddf252ad1be2c89b69c2b068fc378daa952ba7f163c4a11628f55a4df523b3ef9181900360200190a35050565b6000606060006130b584613548565b905060038160038111156130c557fe5b14156130d557612d198585613811565b612d2e610136612b92565b60408051606081018252600a5460ff81161515825261010081046001600160781b031660208301819052600160801b9091046001600160801b0316928201929092529061312d858561218a565b11156040518060400160405280601a81526020017f6f7665722061646472657373206c697175696469747920636170000000000000815250906131835760405162461bcd60e51b81526004016107409190614755565b5060408101516001600160801b031661319c858461218a565b11156040518060400160405280601981526020017f6f76657220676c6f62616c206c6971756964697479206361700000000000000081525090612ce35760405162461bcd60e51b81526004016107409190614755565b60008060006131ff611221565b6001600160a01b031663b05f8e48613215610888565b876040518363ffffffff1660e01b8152600401613233929190614714565b60806040518083038186803b15801561324b57600080fd5b505afa15801561325f573d6000803e3d6000fd5b505050506040513d601f19601f8201168201806040525081019061328391906145e1565b5050818101945090925090506126e08385612bff565b60006126e06132a8868661218a565b612d4e858561218a565b6000806132d16132ca85670de0b6b3a764000261265f565b889061218a565b905060006132ea6132ca85670de0b6b3a763ffff612bff565b90506133036132f9838861218a565b610bc18389612bff565b92505050848111156126e0576126e06000610165613836565b600084841115613333576133336000610165613836565b600061334a6132ca85670de0b6b3a764000261265f565b905060006133636132ca85670de0b6b3a763ffff612bff565b905061284161337282886126b4565b612d4e848961265f565b600080808061339d61338e87876121a2565b670de0b6b3a7640000906126b4565b935060006133c886896001815181106133b257fe5b60200260200101516121a290919063ffffffff16565b905060006133dd888a60008151811061292557fe5b90506133e9828261218a565b9450613410896001815181106133fb57fe5b60200260200101518a60008151811061292557fe5b9250505061344186612f2f88612f2f8b60008151811061342c57fe5b60200260200101518c60008151811061292557fe5b9150600061348186610bc189612f2f670de0b6b3a7640000600202612f2f8e60018151811061346c57fe5b60200260200101518f60008151811061292557fe5b905060006134b7613492888061265f565b610bc18b6001815181106134a257fe5b60200260200101518c60018151811061292557fe5b90506134c781610b62868561218a565b9350505093509350935093565b6000806134e986671bc16d674ec8000061265f565b9050600061350387612f2f86673782dace9d900000612bff565b90506000613511868361218a565b90506000613520826005613844565b9050600061352e898361218a565b905061353a81866121a2565b9a9950505050505050505050565b600081806020019051602081101561355f57600080fd5b505192915050565b606081806020019051604081101561357e57600080fd5b8151602083018051604051929492938301929190846401000000008211156135a557600080fd5b9083019060208201858111156135ba57600080fd5b82518660208202830111640100000000821117156135d757600080fd5b82525081516020918201928201910280838360005b838110156136045781810151838201526020016135ec565b505050509190910160405250929695505050505050565b61362760008383612a8b565b6002546136349082611c55565b6002556001600160a01b03821660009081526020819052604090205461365a9082611c55565b6001600160a01b0383166000818152602081815260408083209490945583518581529351929391927fddf252ad1be2c89b69c2b068fc378daa952ba7f163c4a11628f55a4df523b3ef9281900390910190a35050565b6000816136dd577f00000000000000000000000000000000000000000000000000000000000000006106e9565b507f0000000000000000000000000000000000000000000000000000000000000000919050565b6000613716631c74c91760e11b61113e565b8214806106e9575061372e6350dd6ed960e01b61113e565b909114919050565b60008361374c576137478284611d94565b611d8c565b611d8c82846126e9565b831561376657613766828561296e565b821561377657613776818461296e565b50505050565b60006060600061378b846139d2565b905060006137a1868361379c6107b4565b6139f4565b9196919550909350505050565b6000611d8c847550524f544f434f4c5f535741505f4645455f5045524360501b8486613a7a565b6000611d8c847f50524f544f434f4c5f4645455f4759524f5f504f5254494f4e000000000000008486613a7a565b600061187f83836001612be5565b600060606000613820846139d2565b905060006137a186836138316107b4565b613d27565b8161186d5761186d81613dc3565b600082613853575060006106e9565b600061385e84613dd3565b9050600281670de0b6b3a764000086028161387557fe5b0482018161387f57fe5b049050600281670de0b6b3a764000086028161389757fe5b048201816138a157fe5b049050600281670de0b6b3a76400008602816138b957fe5b048201816138c357fe5b049050600281670de0b6b3a76400008602816138db57fe5b048201816138e557fe5b049050600281670de0b6b3a76400008602816138fd57fe5b0482018161390757fe5b049050600281670de0b6b3a764000086028161391f57fe5b0482018161392957fe5b049050600281670de0b6b3a764000086028161394157fe5b0482018161394b57fe5b049050600061395a8280612bff565b9050613970613969838661265f565b869061218a565b8111158015613992575061398e613987838661265f565b86906126b4565b8110155b611520576040805162461bcd60e51b815260206004820152600c60248201526b17dcdc5c9d0811905253115160a21b604482015290519081900360640190fd5b60008180602001905160408110156139e957600080fd5b506020015192915050565b6060835167ffffffffffffffff81118015613a0e57600080fd5b50604051908082528060200260200182016040528015613a38578160200160208202803683370190505b50905060005b845181101561152057613a5b83610bc18688858151811061292557fe5b828281518110613a6757fe5b6020908102919091010152600101613a3e565b6040805160208082018690526001600160a01b03808516838501528351808403850181526060840180865281519184019190912063696eb37560e01b909152606484018190529351600094939189169263696eb3759260848082019391829003018186803b158015613aeb57600080fd5b505afa158015613aff573d6000803e3d6000fd5b505050506040513d6020811015613b1557600080fd5b505115613b9557856001600160a01b031663bd02d0f5826040518263ffffffff1660e01b81526004018082815260200191505060206040518083038186803b158015613b6057600080fd5b505afa158015613b74573d6000803e3d6000fd5b505050506040513d6020811015613b8a57600080fd5b50519150611d8c9050565b6040805160208082018890528183018790528251808303840181526060830180855281519183019190912063696eb37560e01b9091526064830181905292516001600160a01b038a169263696eb375926084808301939192829003018186803b158015613c0157600080fd5b505afa158015613c15573d6000803e3d6000fd5b505050506040513d6020811015613c2b57600080fd5b505115613cac57866001600160a01b031663bd02d0f5826040518263ffffffff1660e01b81526004018082815260200191505060206040518083038186803b158015613c7657600080fd5b505afa158015613c8a573d6000803e3d6000fd5b505050506040513d6020811015613ca057600080fd5b50519250611d8c915050565b866001600160a01b031663bd02d0f5876040518263ffffffff1660e01b81526004018082815260200191505060206040518083038186803b158015613cf057600080fd5b505afa158015613d04573d6000803e3d6000fd5b505050506040513d6020811015613d1a57600080fd5b5051979650505050505050565b6060835167ffffffffffffffff81118015613d4157600080fd5b50604051908082528060200260200182016040528015613d6b578160200160208202803683370190505b50905060005b845181101561152057613da483612d4e86888581518110613d8e57fe5b602002602001015161265f90919063ffffffff16565b828281518110613db057fe5b6020908102919091010152600101613d71565b6107b1816223aca960e91b613fa5565b6000670de0b6b3a76400008210613e0057670de0b6b3a7640000613df8818404614006565b1b9050610da5565b600a8211613e13575063bc7c871c610da5565b60648211613e2757506402540be400610da5565b6103e88211613e3c575064075cdd4719610da5565b6127108211613e51575064174876e800610da5565b620186a08211613e6757506449a0a4c700610da5565b620f42408211613e7d575064e8d4a51000610da5565b629896808211613e9457506502e0466fc608610da5565b6305f5e1008211613eac57506509184e72a000610da5565b633b9aca008211613ec45750651cc2c05dbc53610da5565b6402540be4008211613edd5750655af3107a4000610da5565b64174876e8008211613ef7575066011f9b83a95b45610da5565b64e8d4a510008211613f11575066038d7ea4c68000610da5565b6509184e72a0008211613f2c5750660b3c13249d90bb610da5565b655af3107a40008211613f475750662386f26fc10000610da5565b66038d7ea4c680008211613f635750667058bf6e27a751610da5565b662386f26fc100008211613f80575067016345785d8a0000610da5565b67016345785d8a00008211613f9e5750670463777a4d8c892d610da5565b5080610da5565b62461bcd60e51b600090815260206004526007602452600a808404818106603090810160081b958390069590950190829004918206850160101b01602363ffffff0060e086901c160160181b0190930160c81b60445260e882901c90606490fd5b6000600160801b821061401e5760809190911c906040015b6801000000000000000082106140395760409190911c906020015b64010000000082106140505760209190911c906010015b6201000082106140655760109190911c906008015b61010082106140795760089190911c906004015b6010821061408c5760049190911c906002015b60048210610da557600101919050565b604080516060810182526000808252602082018190529181019190915290565b60405180604001604052806002906020820280368337509192915050565b8035610da581614877565b80358015158114610da557600080fd5b600082601f830112614105578081fd5b813567ffffffffffffffff81111561411957fe5b61412c601f8201601f1916602001614853565b818152846020838601011115614140578283fd5b816020850160208301379081016020019190915292915050565b803560028110610da557600080fd5b60006020828403121561417a578081fd5b813561187f81614877565b600060208284031215614196578081fd5b815161187f81614877565b600080604083850312156141b3578081fd5b82356141be81614877565b915060208301356141ce81614877565b809150509250929050565b6000806000606084860312156141ed578081fd5b83356141f881614877565b9250602084013561420881614877565b929592945050506040919091013590565b600080600080600080600060e0888a031215614233578283fd5b873561423e81614877565b9650602088013561424e81614877565b95506040880135945060608801359350608088013560ff81168114614271578384fd5b9699959850939692959460a0840135945060c09093013592915050565b600080604083850312156142a0578182fd5b82356142ab81614877565b946020939093013593505050565b6000602082840312156142ca578081fd5b61187f826140e5565b600080600080600080600060e0888a0312156142ed578081fd5b8735965060208801356142ff81614877565b9550604088013561430f81614877565b9450606088013567ffffffffffffffff8082111561432b578283fd5b818a0191508a601f83011261433e578283fd5b81358181111561434a57fe5b6020810261435a60208201614853565b80838252602082019150602086018f6020858901011115614379578788fd5b8796505b8487101561439c5780358352600196909601956020928301920161437d565b50985050505060808a0135945060a08a0135935060c08a01359150808211156143c3578283fd5b506143d08a828b016140f5565b91505092959891949750929550565b6000602082840312156143f0578081fd5b81356001600160e01b03198116811461187f578182fd5b600060608284031215614418578081fd5b6040516060810181811067ffffffffffffffff8211171561443557fe5b604052614441836140e5565b815260208301356001600160781b038116811461445c578283fd5b602082015260408301356001600160801b038116811461447a578283fd5b60408201529392505050565b60008060006060848603121561449a578081fd5b833567ffffffffffffffff808211156144b1578283fd5b81860191506101208083890312156144c7578384fd5b6144d081614853565b90506144db8361415a565b81526144e9602084016140da565b60208201526144fa604084016140da565b6040820152606083013560608201526080830135608082015260a083013560a082015261452960c084016140da565b60c082015261453a60e084016140da565b60e08201526101008084013583811115614552578586fd5b61455e8a8287016140f5565b9183019190915250976020870135975060409096013595945050505050565b60006020828403121561458e578081fd5b5035919050565b6000602082840312156145a6578081fd5b5051919050565b6000806000606084860312156145c1578081fd5b83359250602084013591506145d8604085016140e5565b90509250925092565b600080600080608085870312156145f6578182fd5b845193506020850151925060408501519150606085015161461681614877565b939692955090935050565b6000815180845260208085019450808401835b8381101561465057815187529582019590820190600101614634565b509495945050505050565b6000828483379101908152919050565b6001600160a01b0391909116815260200190565b60408101818360005b60028110156146a7578151835260209283019290910190600101614688565b50505092915050565b60006020825261187f6020830184614621565b6000604082526146d66040830185614621565b82810360208401526126e08185614621565b901515815260200190565b92151583526020830191909152604082015260600190565b90815260200190565b9182526001600160a01b0316602082015260400190565b9586526020860194909452604085019290925260608401521515608083015260a082015260c00190565b6000602080835283518082850152825b8181101561478157858101830151858201604001528201614765565b818111156147925783604083870101525b50601f01601f1916929092016040019392505050565b8151151581526020808301516001600160781b0316908201526040918201516001600160801b03169181019190915260600190565b905460ff811615158252600881901c6001600160781b0316602083015260801c604082015260600190565b600083825260406020830152611d8c6040830184614621565b918252602082015260400190565b9283526020830191909152604082015260600190565b60ff91909116815260200190565b60405181810167ffffffffffffffff8111828210171561486f57fe5b604052919050565b6001600160a01b03811681146107b157600080fdfea26469706673582212207b7356194bfaa5996b936a7cea25ab4327f37b07ee358aa7520bebe7e1c3bb2a64736f6c63430007060033","bytecodeSha1":"468b764257a99a6584d9d4939b47d359ebedb489","compiler":{"evm_version":"berlin","optimizer":{"enabled":true,"runs":200},"version":"0.7.6+commit.7338295f"},"contractName":"Gyro2CLPPool","language":"Solidity","natspec":{"kind":"dev","methods":{"DOMAIN_SEPARATOR()":{"details":"See {IERC20Permit-DOMAIN_SEPARATOR}."},"allowance(address,address)":{"details":"Override to grant the Vault infinite allowance, causing for Pool Tokens to not require approval. This is sound as the Vault already provides authorization mechanisms when initiation token transfers, which this contract inherits."},"approve(address,uint256)":{"details":"See {IERC20-approve}. Requirements: - `spender` cannot be the zero address."},"balanceOf(address)":{"details":"See {IERC20-balanceOf}."},"calculateCurrentValues(uint256,uint256,bool)":{"details":"invariant and virtual offsets."},"changePauseManager(address)":{"notice":"Changes the account that is allowed to pause a pool."},"decimals()":{"details":"Returns the number of decimals used to get its user representation. For example, if `decimals` equals `2`, a balance of `505` tokens should be displayed to a user as `5,05` (`505 / 10 ** 2`). Tokens usually opt for a value of 18, imitating the relationship between Ether and Wei. This is the value {ERC20} uses, unless {_setupDecimals} is called. NOTE: This information is only used for _display_ purposes: it in no way affects any of the arithmetic of the contract, including {IERC20-balanceOf} and {IERC20-transfer}."},"decreaseAllowance(address,uint256)":{"details":"Override to allow decreasing allowance by more than the current amount (setting it to zero)"},"getActionId(bytes4)":{"details":"Returns the action identifier associated with the external function described by `selector`."},"getActualSupply()":{"notice":"Effective BPT supply.  This is the same as `totalSupply()` but also accounts for the fact that the pool owes  protocol fees to the pool in the form of unminted LP shares created on the next join/exit,  diluting LPers. Thus, this is the totalSupply() that the next join/exit operation will see.  Equivalent to the respective function in, e.g., WeightedPool, see:  https://github.com/balancer/balancer-v2-monorepo/blob/master/pkg/pool-weighted/contracts/WeightedPool.sol#L325-L344"},"getInvariant()":{"details":"Returns the current value of the invariant."},"getInvariantDivActualSupply()":{"notice":"Equivalent to but more efficient than `getInvariant().divDown(getActualSupply())`."},"getMiscData()":{"details":"Only `swapFeePercentage` is non-trivial; everything else is 0/false because the oracle is not used. These variables are returned to keep the call signature compatible."},"getPausedState()":{"details":"Returns the current contract pause status, as well as the end times of the Pause Window and Buffer Period."},"getPrice()":{"notice":"Returns the current spot price of token0 quoted in units of token1. When rateProvider{0,1} is provided, the returned price corresponds to tokens *before* rate scaling."},"getRate()":{"details":"This function returns the appreciation of one BPT relative to the underlying tokens. This starts at 1 when the pool is created and grows over time"},"getSqrtParameters()":{"details":"Returns sqrtAlpha and sqrtBeta (square roots of lower and upper price bounds of p_x respectively)"},"getTokenRates()":{"notice":"Convenience function to fetch the two rates used for scaling the two tokens, as of rateProvider{0,1}. Note that these rates do *not* contain scaling to account for differences in the number of decimals. The rates themselves are always 18-decimals."},"getVirtualParameters()":{"details":"Returns virtual offsets a and b for reserves x and y respectively, as in (x+a)*(y+b)=L^2"},"increaseAllowance(address,uint256)":{"details":"Atomically increases the allowance granted to `spender` by the caller. This is an alternative to {approve} that can be used as a mitigation for problems described in {IERC20-approve}. Emits an {Approval} event indicating the updated allowance. Requirements: - `spender` cannot be the zero address."},"name()":{"details":"Returns the name of the token."},"nonces(address)":{"details":"See {IERC20Permit-nonces}."},"onExitPool(bytes32,address,address,uint256[],uint256,uint256,bytes)":{"details":"Called by the Vault when a user calls `IVault.exitPool` to remove liquidity from this Pool. Returns how many tokens the Vault should deduct from the Pool's balances, as well as the amount of protocol fees the Pool owes to the Vault. The Vault will then take tokens from the Pool's balances and send them to `recipient`, as well as collect the reported amount in protocol fees, which the Pool should calculate based on `protocolSwapFeePercentage`. Protocol fees are charged on exit events to guarantee that users exiting the Pool have paid their share. `sender` is the account performing the exit (typically the pool shareholder), and `recipient` is the account to which the Vault will send the proceeds. `balances` contains the total token balances for each token the Pool registered in the Vault, in the same order that `IVault.getPoolTokens` would return. `lastChangeBlock` is the last block in which *any* of the Pool's registered tokens last changed its total balance. `userData` contains any pool-specific instructions needed to perform the calculations, such as the type of exit (e.g., proportional given an amount of pool shares, single-asset, multi-asset, etc.) Contracts implementing this function should check that the caller is indeed the Vault before performing any state-changing operations, such as burning pool shares."},"onJoinPool(bytes32,address,address,uint256[],uint256,uint256,bytes)":{"details":"Called by the Vault when a user calls `IVault.joinPool` to add liquidity to this Pool. Returns how many of each registered token the user should provide, as well as the amount of protocol fees the Pool owes to the Vault. The Vault will then take tokens from `sender` and add them to the Pool's balances, as well as collect the reported amount in protocol fees, which the pool should calculate based on `protocolSwapFeePercentage`. Protocol fees are reported and charged on join events so that the Pool is free of debt whenever new users join. `sender` is the account performing the join (from which tokens will be withdrawn), and `recipient` is the account designated to receive any benefits (typically pool shares). `balances` contains the total balances for each token the Pool registered in the Vault, in the same order that `IVault.getPoolTokens` would return. `lastChangeBlock` is the last block in which *any* of the Pool's registered tokens last changed its total balance. `userData` contains any pool-specific instructions needed to perform the calculations, such as the type of join (e.g., proportional given an amount of pool shares, single-asset, multi-asset, etc.) Contracts implementing this function should check that the caller is indeed the Vault before performing any state-changing operations, such as minting pool shares."},"pause()":{"notice":"Pauses the pool. Can only be called by the pause manager."},"permit(address,address,uint256,uint256,uint8,bytes32,bytes32)":{"details":"See {IERC20Permit-permit}."},"queryExit(bytes32,address,address,uint256[],uint256,uint256,bytes)":{"details":"Returns the amount of BPT that would be burned from `sender` if the `onExitPool` hook were called by the Vault with the same arguments, along with the number of tokens `recipient` would receive. This function is not meant to be called directly, but rather from a helper contract that fetches current Vault data, such as the protocol swap fee percentage and Pool balances. Like `IVault.queryBatchSwap`, this function is not view due to internal implementation details: the caller must explicitly use eth_call instead of eth_sendTransaction."},"queryJoin(bytes32,address,address,uint256[],uint256,uint256,bytes)":{"details":"Returns the amount of BPT that would be granted to `recipient` if the `onJoinPool` hook were called by the Vault with the same arguments, along with the number of tokens `sender` would have to supply. This function is not meant to be called directly, but rather from a helper contract that fetches current Vault data, such as the protocol swap fee percentage and Pool balances. Like `IVault.queryBatchSwap`, this function is not view due to internal implementation details: the caller must explicitly use eth_call instead of eth_sendTransaction."},"symbol()":{"details":"Returns the symbol of the token, usually a shorter version of the name."},"totalSupply()":{"details":"See {IERC20-totalSupply}."},"transfer(address,uint256)":{"details":"See {IERC20-transfer}. Requirements: - `recipient` cannot be the zero address. - the caller must have a balance of at least `amount`."},"transferFrom(address,address,uint256)":{"details":"Override to allow for 'infinite allowance' and let the token owner use `transferFrom` with no self-allowance"},"unpause()":{"notice":"Unpauses the pool. Can only be called by the pause manager."}},"stateVariables":{"rateProvider0":{"details":"for rate scaling"}},"version":1},"opcodes":"PUSH1 0x80 PUSH1 0x40 MSTORE CALLVALUE DUP1 ISZERO PUSH2 0x10 JUMPI PUSH1 0x0 DUP1 REVERT JUMPDEST POP PUSH1 0x4 CALLDATASIZE LT PUSH2 0x2F1 JUMPI PUSH1 0x0 CALLDATALOAD PUSH1 0xE0 SHR DUP1 PUSH4 0x70A08231 GT PUSH2 0x19D JUMPI DUP1 PUSH4 0x95D89B41 GT PUSH2 0xE9 JUMPI DUP1 PUSH4 0xAAABADC5 GT PUSH2 0xA2 JUMPI DUP1 PUSH4 0xD505ACCF GT PUSH2 0x7C JUMPI DUP1 PUSH4 0xD505ACCF EQ PUSH2 0x601 JUMPI DUP1 PUSH4 0xD5C096C4 EQ PUSH2 0x614 JUMPI DUP1 PUSH4 0xDD62ED3E EQ PUSH2 0x627 JUMPI DUP1 PUSH4 0xF89F27ED EQ PUSH2 0x63A JUMPI PUSH2 0x2F1 JUMP JUMPDEST DUP1 PUSH4 0xAAABADC5 EQ PUSH2 0x5E9 JUMPI DUP1 PUSH4 0xABD13AFE EQ PUSH2 0x5F1 JUMPI DUP1 PUSH4 0xC0FF1A15 EQ PUSH2 0x5F9 JUMPI PUSH2 0x2F1 JUMP JUMPDEST DUP1 PUSH4 0x95D89B41 EQ PUSH2 0x598 JUMPI DUP1 PUSH4 0x98D5FDCA EQ PUSH2 0x5A0 JUMPI DUP1 PUSH4 0x9B02CDDE EQ PUSH2 0x5A8 JUMPI DUP1 PUSH4 0x9D2C110C EQ PUSH2 0x5B0 JUMPI DUP1 PUSH4 0xA457C2D7 EQ PUSH2 0x5C3 JUMPI DUP1 PUSH4 0xA9059CBB EQ PUSH2 0x5D6 JUMPI PUSH2 0x2F1 JUMP JUMPDEST DUP1 PUSH4 0x8456CB59 GT PUSH2 0x156 JUMPI DUP1 PUSH4 0x87EC6817 GT PUSH2 0x130 JUMPI DUP1 PUSH4 0x87EC6817 EQ PUSH2 0x560 JUMPI DUP1 PUSH4 0x893D20E8 EQ PUSH2 0x573 JUMPI DUP1 PUSH4 0x8D928AF8 EQ PUSH2 0x57B JUMPI DUP1 PUSH4 0x8DD9F89D EQ PUSH2 0x583 JUMPI PUSH2 0x2F1 JUMP JUMPDEST DUP1 PUSH4 0x8456CB59 EQ PUSH2 0x53D JUMPI DUP1 PUSH4 0x851C1BB3 EQ PUSH2 0x545 JUMPI DUP1 PUSH4 0x876F303B EQ PUSH2 0x558 JUMPI PUSH2 0x2F1 JUMP JUMPDEST DUP1 PUSH4 0x70A08231 EQ PUSH2 0x4C8 JUMPI DUP1 PUSH4 0x74F3B009 EQ PUSH2 0x4DB JUMPI DUP1 PUSH4 0x76E54A46 EQ PUSH2 0x4FC JUMPI DUP1 PUSH4 0x7ECEBE00 EQ PUSH2 0x50F JUMPI DUP1 PUSH4 0x8002DF18 EQ PUSH2 0x522 JUMPI DUP1 PUSH4 0x828A7C34 EQ PUSH2 0x535 JUMPI PUSH2 0x2F1 JUMP JUMPDEST DUP1 PUSH4 0x3AEAE0D3 GT PUSH2 0x25C JUMPI DUP1 PUSH4 0x6028BFD4 GT PUSH2 0x215 JUMPI DUP1 PUSH4 0x679AEFCE GT PUSH2 0x1EF JUMPI DUP1 PUSH4 0x679AEFCE EQ PUSH2 0x48D JUMPI DUP1 PUSH4 0x6D785A87 EQ PUSH2 0x495 JUMPI DUP1 PUSH4 0x702EC091 EQ PUSH2 0x49D JUMPI DUP1 PUSH4 0x707DCD1E EQ PUSH2 0x4B3 JUMPI PUSH2 0x2F1 JUMP JUMPDEST DUP1 PUSH4 0x6028BFD4 EQ PUSH2 0x45C JUMPI DUP1 PUSH4 0x623A2E75 EQ PUSH2 0x47D JUMPI DUP1 PUSH4 0x62CED092 EQ PUSH2 0x485 JUMPI PUSH2 0x2F1 JUMP JUMPDEST DUP1 PUSH4 0x3AEAE0D3 EQ PUSH2 0x3E6 JUMPI DUP1 PUSH4 0x3C4DD5BB EQ PUSH2 0x3FB JUMPI DUP1 PUSH4 0x3F4BA83A EQ PUSH2 0x41D JUMPI DUP1 PUSH4 0x44BBDB55 EQ PUSH2 0x425 JUMPI DUP1 PUSH4 0x4A6B0B15 EQ PUSH2 0x43A JUMPI DUP1 PUSH4 0x55C67628 EQ PUSH2 0x454 JUMPI PUSH2 0x2F1 JUMP JUMPDEST DUP1 PUSH4 0x23B872DD GT PUSH2 0x2AE JUMPI DUP1 PUSH4 0x23B872DD EQ PUSH2 0x388 JUMPI DUP1 PUSH4 0x313CE567 EQ PUSH2 0x39B JUMPI DUP1 PUSH4 0x3644E515 EQ PUSH2 0x3B0 JUMPI DUP1 PUSH4 0x38E9922E EQ PUSH2 0x3B8 JUMPI DUP1 PUSH4 0x38FFF2D0 EQ PUSH2 0x3CB JUMPI DUP1 PUSH4 0x39509351 EQ PUSH2 0x3D3 JUMPI PUSH2 0x2F1 JUMP JUMPDEST DUP1 PUSH4 0x6FDDE03 EQ PUSH2 0x2F6 JUMPI DUP1 PUSH4 0x95EA7B3 EQ PUSH2 0x314 JUMPI DUP1 PUSH4 0xE608B30 EQ PUSH2 0x334 JUMPI DUP1 PUSH4 0x16C38B3C EQ PUSH2 0x349 JUMPI DUP1 PUSH4 0x18160DDD EQ PUSH2 0x35C JUMPI DUP1 PUSH4 0x1C0DE051 EQ PUSH2 0x371 JUMPI JUMPDEST PUSH1 0x0 DUP1 REVERT JUMPDEST PUSH2 0x2FE PUSH2 0x642 JUMP JUMPDEST PUSH1 0x40 MLOAD PUSH2 0x30B SWAP2 SWAP1 PUSH2 0x4755 JUMP JUMPDEST PUSH1 0x40 MLOAD DUP1 SWAP2 SUB SWAP1 RETURN JUMPDEST PUSH2 0x327 PUSH2 0x322 CALLDATASIZE PUSH1 0x4 PUSH2 0x428E JUMP JUMPDEST PUSH2 0x6D8 JUMP JUMPDEST PUSH1 0x40 MLOAD PUSH2 0x30B SWAP2 SWAP1 PUSH2 0x46E8 JUMP JUMPDEST PUSH2 0x347 PUSH2 0x342 CALLDATASIZE PUSH1 0x4 PUSH2 0x4169 JUMP JUMPDEST PUSH2 0x6EF JUMP JUMPDEST STOP JUMPDEST PUSH2 0x347 PUSH2 0x357 CALLDATASIZE PUSH1 0x4 PUSH2 0x42B9 JUMP JUMPDEST PUSH2 0x7A0 JUMP JUMPDEST PUSH2 0x364 PUSH2 0x7B4 JUMP JUMPDEST PUSH1 0x40 MLOAD PUSH2 0x30B SWAP2 SWAP1 PUSH2 0x470B JUMP JUMPDEST PUSH2 0x379 PUSH2 0x7BA JUMP JUMPDEST PUSH1 0x40 MLOAD PUSH2 0x30B SWAP4 SWAP3 SWAP2 SWAP1 PUSH2 0x46F3 JUMP JUMPDEST PUSH2 0x327 PUSH2 0x396 CALLDATASIZE PUSH1 0x4 PUSH2 0x41D9 JUMP JUMPDEST PUSH2 0x7E3 JUMP JUMPDEST PUSH2 0x3A3 PUSH2 0x857 JUMP JUMPDEST PUSH1 0x40 MLOAD PUSH2 0x30B SWAP2 SWAP1 PUSH2 0x4845 JUMP JUMPDEST PUSH2 0x364 PUSH2 0x860 JUMP JUMPDEST PUSH2 0x347 PUSH2 0x3C6 CALLDATASIZE PUSH1 0x4 PUSH2 0x457D JUMP JUMPDEST PUSH2 0x86F JUMP JUMPDEST PUSH2 0x364 PUSH2 0x888 JUMP JUMPDEST PUSH2 0x327 PUSH2 0x3E1 CALLDATASIZE PUSH1 0x4 PUSH2 0x428E JUMP JUMPDEST PUSH2 0x8AC JUMP JUMPDEST PUSH2 0x3EE PUSH2 0x8E7 JUMP JUMPDEST PUSH1 0x40 MLOAD PUSH2 0x30B SWAP2 SWAP1 PUSH2 0x47A8 JUMP JUMPDEST PUSH2 0x40E PUSH2 0x409 CALLDATASIZE PUSH1 0x4 PUSH2 0x45AD JUMP JUMPDEST PUSH2 0x932 JUMP JUMPDEST PUSH1 0x40 MLOAD PUSH2 0x30B SWAP4 SWAP3 SWAP2 SWAP1 PUSH2 0x482F JUMP JUMPDEST PUSH2 0x347 PUSH2 0x985 JUMP JUMPDEST PUSH2 0x42D PUSH2 0xA7A JUMP JUMPDEST PUSH1 0x40 MLOAD PUSH2 0x30B SWAP2 SWAP1 PUSH2 0x466B JUMP JUMPDEST PUSH2 0x442 PUSH2 0xA89 JUMP JUMPDEST PUSH1 0x40 MLOAD PUSH2 0x30B SWAP7 SWAP6 SWAP5 SWAP4 SWAP3 SWAP2 SWAP1 PUSH2 0x472B JUMP JUMPDEST PUSH2 0x364 PUSH2 0xAE4 JUMP JUMPDEST PUSH2 0x46F PUSH2 0x46A CALLDATASIZE PUSH1 0x4 PUSH2 0x42D3 JUMP JUMPDEST PUSH2 0xAF1 JUMP JUMPDEST PUSH1 0x40 MLOAD PUSH2 0x30B SWAP3 SWAP2 SWAP1 PUSH2 0x4808 JUMP JUMPDEST PUSH2 0x364 PUSH2 0xB22 JUMP JUMPDEST PUSH2 0x42D PUSH2 0xB7E JUMP JUMPDEST PUSH2 0x364 PUSH2 0xBA2 JUMP JUMPDEST PUSH2 0x42D PUSH2 0xBC7 JUMP JUMPDEST PUSH2 0x4A5 PUSH2 0xBD6 JUMP JUMPDEST PUSH1 0x40 MLOAD PUSH2 0x30B SWAP3 SWAP2 SWAP1 PUSH2 0x4821 JUMP JUMPDEST PUSH2 0x4BB PUSH2 0xD7B JUMP JUMPDEST PUSH1 0x40 MLOAD PUSH2 0x30B SWAP2 SWAP1 PUSH2 0x467F JUMP JUMPDEST PUSH2 0x364 PUSH2 0x4D6 CALLDATASIZE PUSH1 0x4 PUSH2 0x4169 JUMP JUMPDEST PUSH2 0xD8B JUMP JUMPDEST PUSH2 0x4EE PUSH2 0x4E9 CALLDATASIZE PUSH1 0x4 PUSH2 0x42D3 JUMP JUMPDEST PUSH2 0xDAA JUMP JUMPDEST PUSH1 0x40 MLOAD PUSH2 0x30B SWAP3 SWAP2 SWAP1 PUSH2 0x46C3 JUMP JUMPDEST PUSH2 0x347 PUSH2 0x50A CALLDATASIZE PUSH1 0x4 PUSH2 0x4407 JUMP JUMPDEST PUSH2 0xE3A JUMP JUMPDEST PUSH2 0x364 PUSH2 0x51D CALLDATASIZE PUSH1 0x4 PUSH2 0x4169 JUMP JUMPDEST PUSH2 0xF61 JUMP JUMPDEST PUSH2 0x347 PUSH2 0x530 CALLDATASIZE PUSH1 0x4 PUSH2 0x4169 JUMP JUMPDEST PUSH2 0xF7C JUMP JUMPDEST PUSH2 0x42D PUSH2 0x1062 JUMP JUMPDEST PUSH2 0x347 PUSH2 0x1086 JUMP JUMPDEST PUSH2 0x364 PUSH2 0x553 CALLDATASIZE PUSH1 0x4 PUSH2 0x43DF JUMP JUMPDEST PUSH2 0x113E JUMP JUMPDEST PUSH2 0x364 PUSH2 0x1197 JUMP JUMPDEST PUSH2 0x46F PUSH2 0x56E CALLDATASIZE PUSH1 0x4 PUSH2 0x42D3 JUMP JUMPDEST PUSH2 0x11D8 JUMP JUMPDEST PUSH2 0x42D PUSH2 0x11FD JUMP JUMPDEST PUSH2 0x42D PUSH2 0x1221 JUMP JUMPDEST PUSH2 0x58B PUSH2 0x1245 JUMP JUMPDEST PUSH1 0x40 MLOAD PUSH2 0x30B SWAP2 SWAP1 PUSH2 0x46B0 JUMP JUMPDEST PUSH2 0x2FE PUSH2 0x12DF JUMP JUMPDEST PUSH2 0x364 PUSH2 0x1340 JUMP JUMPDEST PUSH2 0x364 PUSH2 0x139C JUMP JUMPDEST PUSH2 0x364 PUSH2 0x5BE CALLDATASIZE PUSH1 0x4 PUSH2 0x4486 JUMP JUMPDEST PUSH2 0x13A2 JUMP JUMPDEST PUSH2 0x327 PUSH2 0x5D1 CALLDATASIZE PUSH1 0x4 PUSH2 0x428E JUMP JUMPDEST PUSH2 0x1528 JUMP JUMPDEST PUSH2 0x327 PUSH2 0x5E4 CALLDATASIZE PUSH1 0x4 PUSH2 0x428E JUMP JUMPDEST PUSH2 0x1566 JUMP JUMPDEST PUSH2 0x42D PUSH2 0x1573 JUMP JUMPDEST PUSH2 0x42D PUSH2 0x157D JUMP JUMPDEST PUSH2 0x364 PUSH2 0x158C JUMP JUMPDEST PUSH2 0x347 PUSH2 0x60F CALLDATASIZE PUSH1 0x4 PUSH2 0x4219 JUMP JUMPDEST PUSH2 0x15C7 JUMP JUMPDEST PUSH2 0x4EE PUSH2 0x622 CALLDATASIZE PUSH1 0x4 PUSH2 0x42D3 JUMP JUMPDEST PUSH2 0x1737 JUMP JUMPDEST PUSH2 0x364 PUSH2 0x635 CALLDATASIZE PUSH1 0x4 PUSH2 0x41A1 JUMP JUMPDEST PUSH2 0x181C JUMP JUMPDEST PUSH2 0x58B PUSH2 0x1859 JUMP JUMPDEST PUSH1 0x3 DUP1 SLOAD PUSH1 0x40 DUP1 MLOAD PUSH1 0x20 PUSH1 0x1F PUSH1 0x2 PUSH1 0x0 NOT PUSH2 0x100 PUSH1 0x1 DUP9 AND ISZERO MUL ADD SWAP1 SWAP6 AND SWAP5 SWAP1 SWAP5 DIV SWAP4 DUP5 ADD DUP2 SWAP1 DIV DUP2 MUL DUP3 ADD DUP2 ADD SWAP1 SWAP3 MSTORE DUP3 DUP2 MSTORE PUSH1 0x60 SWAP4 SWAP1 SWAP3 SWAP1 SWAP2 DUP4 ADD DUP3 DUP3 DUP1 ISZERO PUSH2 0x6CE JUMPI DUP1 PUSH1 0x1F LT PUSH2 0x6A3 JUMPI PUSH2 0x100 DUP1 DUP4 SLOAD DIV MUL DUP4 MSTORE SWAP2 PUSH1 0x20 ADD SWAP2 PUSH2 0x6CE JUMP JUMPDEST DUP3 ADD SWAP2 SWAP1 PUSH1 0x0 MSTORE PUSH1 0x20 PUSH1 0x0 KECCAK256 SWAP1 JUMPDEST DUP2 SLOAD DUP2 MSTORE SWAP1 PUSH1 0x1 ADD SWAP1 PUSH1 0x20 ADD DUP1 DUP4 GT PUSH2 0x6B1 JUMPI DUP3 SWAP1 SUB PUSH1 0x1F AND DUP3 ADD SWAP2 JUMPDEST POP POP POP POP POP SWAP1 POP SWAP1 JUMP JUMPDEST PUSH1 0x0 PUSH2 0x6E5 CALLER DUP5 DUP5 PUSH2 0x18B2 JUMP JUMPDEST POP PUSH1 0x1 JUMPDEST SWAP3 SWAP2 POP POP JUMP JUMPDEST PUSH1 0xB SLOAD PUSH1 0x40 DUP1 MLOAD DUP1 DUP3 ADD SWAP1 SWAP2 MSTORE PUSH1 0xE DUP2 MSTORE PUSH14 0x1B9BDD08185D5D1A1BDC9A5E9959 PUSH1 0x92 SHL PUSH1 0x20 DUP3 ADD MSTORE SWAP1 PUSH1 0x1 PUSH1 0x1 PUSH1 0xA0 SHL SUB AND CALLER EQ PUSH2 0x749 JUMPI PUSH1 0x40 MLOAD PUSH3 0x461BCD PUSH1 0xE5 SHL DUP2 MSTORE PUSH1 0x4 ADD PUSH2 0x740 SWAP2 SWAP1 PUSH2 0x4755 JUMP JUMPDEST PUSH1 0x40 MLOAD DUP1 SWAP2 SUB SWAP1 REVERT JUMPDEST POP PUSH1 0xB DUP1 SLOAD PUSH1 0x1 PUSH1 0x1 PUSH1 0xA0 SHL SUB NOT AND PUSH1 0x1 PUSH1 0x1 PUSH1 0xA0 SHL SUB DUP4 AND OR SWAP1 SSTORE PUSH1 0x40 MLOAD PUSH32 0xB8FD9AFC34C38FCD13B9A3B7646482EB1FDDCEFB40AF2C70609972816EBA3208 SWAP1 PUSH2 0x795 SWAP1 DUP4 SWAP1 PUSH2 0x466B JUMP JUMPDEST PUSH1 0x40 MLOAD DUP1 SWAP2 SUB SWAP1 LOG1 POP JUMP JUMPDEST PUSH2 0x7A8 PUSH2 0x1914 JUMP JUMPDEST PUSH2 0x7B1 DUP2 PUSH2 0x1942 JUMP JUMPDEST POP JUMP JUMPDEST PUSH1 0x2 SLOAD SWAP1 JUMP JUMPDEST PUSH1 0x0 DUP1 PUSH1 0x0 PUSH2 0x7C7 PUSH2 0x19BE JUMP JUMPDEST ISZERO SWAP3 POP PUSH2 0x7D2 PUSH2 0x19DB JUMP JUMPDEST SWAP2 POP PUSH2 0x7DC PUSH2 0x19FF JUMP JUMPDEST SWAP1 POP SWAP1 SWAP2 SWAP3 JUMP JUMPDEST PUSH1 0x0 DUP1 PUSH2 0x7F0 DUP6 CALLER PUSH2 0x181C JUMP JUMPDEST SWAP1 POP PUSH2 0x814 CALLER PUSH1 0x1 PUSH1 0x1 PUSH1 0xA0 SHL SUB DUP8 AND EQ DUP1 PUSH2 0x80C JUMPI POP DUP4 DUP3 LT ISZERO JUMPDEST PUSH2 0x19E PUSH2 0x1A23 JUMP JUMPDEST PUSH2 0x81F DUP6 DUP6 DUP6 PUSH2 0x1A31 JUMP JUMPDEST CALLER PUSH1 0x1 PUSH1 0x1 PUSH1 0xA0 SHL SUB DUP7 AND EQ DUP1 ISZERO SWAP1 PUSH2 0x83A JUMPI POP PUSH1 0x0 NOT DUP2 EQ ISZERO JUMPDEST ISZERO PUSH2 0x84C JUMPI PUSH2 0x84C DUP6 CALLER DUP6 DUP5 SUB PUSH2 0x18B2 JUMP JUMPDEST POP PUSH1 0x1 SWAP5 SWAP4 POP POP POP POP JUMP JUMPDEST PUSH1 0x5 SLOAD PUSH1 0xFF AND SWAP1 JUMP JUMPDEST PUSH1 0x0 PUSH2 0x86A PUSH2 0x1B19 JUMP JUMPDEST SWAP1 POP SWAP1 JUMP JUMPDEST PUSH2 0x877 PUSH2 0x1914 JUMP JUMPDEST PUSH2 0x87F PUSH2 0x1BD7 JUMP JUMPDEST PUSH2 0x7B1 DUP2 PUSH2 0x1BEC JUMP JUMPDEST PUSH32 0x0 SWAP1 JUMP JUMPDEST CALLER PUSH1 0x0 DUP2 DUP2 MSTORE PUSH1 0x1 PUSH1 0x20 SWAP1 DUP2 MSTORE PUSH1 0x40 DUP1 DUP4 KECCAK256 PUSH1 0x1 PUSH1 0x1 PUSH1 0xA0 SHL SUB DUP8 AND DUP5 MSTORE SWAP1 SWAP2 MSTORE DUP2 KECCAK256 SLOAD SWAP1 SWAP2 PUSH2 0x6E5 SWAP2 DUP6 SWAP1 PUSH2 0x8E2 SWAP1 DUP7 PUSH2 0x1C55 JUMP JUMPDEST PUSH2 0x18B2 JUMP JUMPDEST PUSH2 0x8EF PUSH2 0x409C JUMP JUMPDEST POP PUSH1 0x40 DUP1 MLOAD PUSH1 0x60 DUP2 ADD DUP3 MSTORE PUSH1 0xA SLOAD PUSH1 0xFF DUP2 AND ISZERO ISZERO DUP3 MSTORE PUSH2 0x100 DUP2 DIV PUSH1 0x1 PUSH1 0x1 PUSH1 0x78 SHL SUB AND PUSH1 0x20 DUP4 ADD MSTORE PUSH1 0x1 PUSH1 0x80 SHL SWAP1 DIV PUSH1 0x1 PUSH1 0x1 PUSH1 0x80 SHL SUB AND SWAP2 DUP2 ADD SWAP2 SWAP1 SWAP2 MSTORE SWAP1 JUMP JUMPDEST PUSH1 0x0 DUP1 PUSH1 0x0 DUP1 PUSH2 0x941 DUP6 PUSH2 0x1C67 JUMP JUMPDEST SWAP1 POP PUSH1 0x0 PUSH2 0x94F DUP7 ISZERO PUSH2 0x1C67 JUMP JUMPDEST SWAP1 POP PUSH2 0x95B DUP9 DUP4 PUSH2 0x1D94 JUMP JUMPDEST SWAP8 POP PUSH2 0x967 DUP8 DUP3 PUSH2 0x1D94 JUMP JUMPDEST SWAP7 POP PUSH2 0x974 DUP9 DUP9 DUP9 PUSH2 0x1DA0 JUMP JUMPDEST SWAP5 POP SWAP5 POP SWAP5 POP POP POP SWAP4 POP SWAP4 POP SWAP4 SWAP1 POP JUMP JUMPDEST PUSH1 0xC SLOAD PUSH1 0x40 DUP1 MLOAD DUP1 DUP3 ADD SWAP1 SWAP2 MSTORE PUSH1 0x11 DUP2 MSTORE PUSH17 0x3737BA103830BAB9B29036B0B730B3B2B9 PUSH1 0x79 SHL PUSH1 0x20 DUP3 ADD MSTORE SWAP1 PUSH1 0x1 PUSH1 0x1 PUSH1 0xA0 SHL SUB AND CALLER EQ PUSH2 0xA44 JUMPI PUSH1 0x40 MLOAD PUSH3 0x461BCD PUSH1 0xE5 SHL DUP2 MSTORE PUSH1 0x4 ADD DUP1 DUP1 PUSH1 0x20 ADD DUP3 DUP2 SUB DUP3 MSTORE DUP4 DUP2 DUP2 MLOAD DUP2 MSTORE PUSH1 0x20 ADD SWAP2 POP DUP1 MLOAD SWAP1 PUSH1 0x20 ADD SWAP1 DUP1 DUP4 DUP4 PUSH1 0x0 JUMPDEST DUP4 DUP2 LT ISZERO PUSH2 0xA09 JUMPI DUP2 DUP2 ADD MLOAD DUP4 DUP3 ADD MSTORE PUSH1 0x20 ADD PUSH2 0x9F1 JUMP JUMPDEST POP POP POP POP SWAP1 POP SWAP1 DUP2 ADD SWAP1 PUSH1 0x1F AND DUP1 ISZERO PUSH2 0xA36 JUMPI DUP1 DUP3 SUB DUP1 MLOAD PUSH1 0x1 DUP4 PUSH1 0x20 SUB PUSH2 0x100 EXP SUB NOT AND DUP2 MSTORE PUSH1 0x20 ADD SWAP2 POP JUMPDEST POP SWAP3 POP POP POP PUSH1 0x40 MLOAD DUP1 SWAP2 SUB SWAP1 REVERT JUMPDEST POP PUSH2 0xA4F PUSH1 0x0 PUSH2 0x7A8 JUMP JUMPDEST PUSH1 0x40 MLOAD PUSH32 0x215385C8BFC731925EC8068D7BAA50F6B6F34417CC7804F7273DC2C0B3DB2790 SWAP1 PUSH1 0x0 SWAP1 LOG1 JUMP JUMPDEST PUSH1 0xD SLOAD PUSH1 0x1 PUSH1 0x1 PUSH1 0xA0 SHL SUB AND DUP2 JUMP JUMPDEST PUSH1 0x0 DUP1 PUSH1 0x0 DUP1 PUSH1 0x0 DUP1 PUSH1 0x0 PUSH1 0x8 SLOAD SWAP1 POP PUSH2 0xAA2 DUP2 PUSH2 0x1E6F JUMP JUMPDEST SWAP7 POP PUSH2 0xAAD DUP2 PUSH2 0x1E7B JUMP JUMPDEST SWAP6 POP PUSH2 0xAB8 DUP2 PUSH2 0x1E88 JUMP JUMPDEST SWAP5 POP PUSH2 0xAC3 DUP2 PUSH2 0x1E95 JUMP JUMPDEST SWAP4 POP PUSH2 0xACE DUP2 PUSH2 0x1EA2 JUMP JUMPDEST SWAP3 POP PUSH2 0xAD9 DUP2 PUSH2 0x1EAF JUMP JUMPDEST SWAP2 POP POP SWAP1 SWAP2 SWAP3 SWAP4 SWAP5 SWAP6 JUMP JUMPDEST PUSH1 0x0 PUSH2 0x86A PUSH1 0x8 SLOAD PUSH2 0x1EAF JUMP JUMPDEST PUSH1 0x0 PUSH1 0x60 PUSH2 0xB01 DUP7 MLOAD PUSH1 0x2 PUSH2 0x1EBC JUMP JUMPDEST PUSH2 0xB16 DUP10 DUP10 DUP10 DUP10 DUP10 DUP10 DUP10 PUSH2 0x1EC9 PUSH2 0x1F90 PUSH2 0x200E JUMP JUMPDEST SWAP8 POP SWAP8 SWAP6 POP POP POP POP POP POP JUMP JUMPDEST PUSH1 0x0 DUP1 PUSH2 0xB2D PUSH2 0x158C JUMP JUMPDEST SWAP1 POP PUSH1 0x0 PUSH2 0xB39 PUSH2 0x7B4 JUMP JUMPDEST SWAP1 POP PUSH1 0x0 DUP1 PUSH2 0xB4A PUSH1 0x9 SLOAD DUP6 PUSH2 0x2121 JUMP JUMPDEST POP SWAP2 SWAP4 POP SWAP2 POP PUSH1 0x0 SWAP1 POP PUSH2 0xB68 DUP3 PUSH2 0xB62 DUP7 DUP7 PUSH2 0x218A JUMP JUMPDEST SWAP1 PUSH2 0x218A JUMP JUMPDEST SWAP1 POP PUSH2 0xB74 DUP6 DUP3 PUSH2 0x21A2 JUMP JUMPDEST SWAP6 POP POP POP POP POP POP SWAP1 JUMP JUMPDEST PUSH32 0x0 DUP2 JUMP JUMPDEST PUSH1 0x0 PUSH2 0x86A PUSH2 0xBAF PUSH2 0x7B4 JUMP JUMPDEST PUSH2 0xBC1 PUSH2 0xBBA PUSH2 0x158C JUMP JUMPDEST PUSH1 0x2 PUSH2 0x21FC JUMP JUMPDEST SWAP1 PUSH2 0x21A2 JUMP JUMPDEST PUSH1 0xB SLOAD PUSH1 0x1 PUSH1 0x1 PUSH1 0xA0 SHL SUB AND DUP2 JUMP JUMPDEST PUSH1 0x0 DUP1 PUSH32 0x0 PUSH1 0x1 PUSH1 0x1 PUSH1 0xA0 SHL SUB AND PUSH2 0xC15 JUMPI PUSH8 0xDE0B6B3A7640000 PUSH2 0xCA6 JUMP JUMPDEST PUSH32 0x0 PUSH1 0x1 PUSH1 0x1 PUSH1 0xA0 SHL SUB AND PUSH4 0x679AEFCE PUSH1 0x40 MLOAD DUP2 PUSH4 0xFFFFFFFF AND PUSH1 0xE0 SHL DUP2 MSTORE PUSH1 0x4 ADD PUSH1 0x20 PUSH1 0x40 MLOAD DUP1 DUP4 SUB DUP2 DUP7 DUP1 EXTCODESIZE ISZERO DUP1 ISZERO PUSH2 0xC6E JUMPI PUSH1 0x0 DUP1 REVERT JUMPDEST POP GAS STATICCALL ISZERO DUP1 ISZERO PUSH2 0xC82 JUMPI RETURNDATASIZE PUSH1 0x0 DUP1 RETURNDATACOPY RETURNDATASIZE PUSH1 0x0 REVERT JUMPDEST POP POP POP POP PUSH1 0x40 MLOAD RETURNDATASIZE PUSH1 0x1F NOT PUSH1 0x1F DUP3 ADD AND DUP3 ADD DUP1 PUSH1 0x40 MSTORE POP DUP2 ADD SWAP1 PUSH2 0xCA6 SWAP2 SWAP1 PUSH2 0x4595 JUMP JUMPDEST SWAP2 POP PUSH32 0x0 PUSH1 0x1 PUSH1 0x1 PUSH1 0xA0 SHL SUB AND PUSH2 0xCE4 JUMPI PUSH8 0xDE0B6B3A7640000 PUSH2 0xD75 JUMP JUMPDEST PUSH32 0x0 PUSH1 0x1 PUSH1 0x1 PUSH1 0xA0 SHL SUB AND PUSH4 0x679AEFCE PUSH1 0x40 MLOAD DUP2 PUSH4 0xFFFFFFFF AND PUSH1 0xE0 SHL DUP2 MSTORE PUSH1 0x4 ADD PUSH1 0x20 PUSH1 0x40 MLOAD DUP1 DUP4 SUB DUP2 DUP7 DUP1 EXTCODESIZE ISZERO DUP1 ISZERO PUSH2 0xD3D JUMPI PUSH1 0x0 DUP1 REVERT JUMPDEST POP GAS STATICCALL ISZERO DUP1 ISZERO PUSH2 0xD51 JUMPI RETURNDATASIZE PUSH1 0x0 DUP1 RETURNDATACOPY RETURNDATASIZE PUSH1 0x0 REVERT JUMPDEST POP POP POP POP PUSH1 0x40 MLOAD RETURNDATASIZE PUSH1 0x1F NOT PUSH1 0x1F DUP3 ADD AND DUP3 ADD DUP1 PUSH1 0x40 MSTORE POP DUP2 ADD SWAP1 PUSH2 0xD75 SWAP2 SWAP1 PUSH2 0x4595 JUMP JUMPDEST SWAP1 POP SWAP1 SWAP2 JUMP JUMPDEST PUSH2 0xD83 PUSH2 0x40BC JUMP JUMPDEST PUSH2 0x86A PUSH2 0x2220 JUMP JUMPDEST PUSH1 0x1 PUSH1 0x1 PUSH1 0xA0 SHL SUB DUP2 AND PUSH1 0x0 SWAP1 DUP2 MSTORE PUSH1 0x20 DUP2 SWAP1 MSTORE PUSH1 0x40 SWAP1 KECCAK256 SLOAD JUMPDEST SWAP2 SWAP1 POP JUMP JUMPDEST PUSH1 0x60 DUP1 DUP9 PUSH2 0xDD4 PUSH2 0xDB9 PUSH2 0x1221 JUMP JUMPDEST PUSH1 0x1 PUSH1 0x1 PUSH1 0xA0 SHL SUB AND CALLER PUSH1 0x1 PUSH1 0x1 PUSH1 0xA0 SHL SUB AND EQ PUSH1 0xCD PUSH2 0x1A23 JUMP JUMPDEST PUSH2 0xDE9 PUSH2 0xDDF PUSH2 0x888 JUMP JUMPDEST DUP3 EQ PUSH2 0x1F4 PUSH2 0x1A23 JUMP JUMPDEST PUSH2 0xDF2 DUP8 PUSH2 0x2246 JUMP JUMPDEST PUSH1 0x0 DUP1 PUSH1 0x0 PUSH2 0xE06 DUP14 DUP14 DUP14 DUP14 DUP14 DUP14 DUP14 PUSH2 0x1EC9 JUMP JUMPDEST SWAP3 POP SWAP3 POP SWAP3 POP PUSH2 0xE16 DUP13 DUP5 PUSH2 0x22A8 JUMP JUMPDEST PUSH2 0xE1F DUP3 PUSH2 0x1F90 JUMP JUMPDEST PUSH2 0xE28 DUP2 PUSH2 0x1F90 JUMP JUMPDEST SWAP1 SWAP13 SWAP1 SWAP12 POP SWAP10 POP POP POP POP POP POP POP POP POP POP JUMP JUMPDEST PUSH1 0xB SLOAD PUSH1 0x40 DUP1 MLOAD DUP1 DUP3 ADD SWAP1 SWAP2 MSTORE PUSH1 0xE DUP2 MSTORE PUSH14 0x1B9BDD08185D5D1A1BDC9A5E9959 PUSH1 0x92 SHL PUSH1 0x20 DUP3 ADD MSTORE SWAP1 PUSH1 0x1 PUSH1 0x1 PUSH1 0xA0 SHL SUB AND CALLER EQ PUSH2 0xE8B JUMPI PUSH1 0x40 MLOAD PUSH3 0x461BCD PUSH1 0xE5 SHL DUP2 MSTORE PUSH1 0x4 ADD PUSH2 0x740 SWAP2 SWAP1 PUSH2 0x4755 JUMP JUMPDEST POP PUSH1 0xA SLOAD PUSH1 0x40 DUP1 MLOAD DUP1 DUP3 ADD SWAP1 SWAP2 MSTORE PUSH1 0x10 DUP2 MSTORE PUSH16 0x1C1BDBDB081A5CC81D5B98D85C1C1959 PUSH1 0x82 SHL PUSH1 0x20 DUP3 ADD MSTORE SWAP1 PUSH1 0xFF AND PUSH2 0xED7 JUMPI PUSH1 0x40 MLOAD PUSH3 0x461BCD PUSH1 0xE5 SHL DUP2 MSTORE PUSH1 0x4 ADD PUSH2 0x740 SWAP2 SWAP1 PUSH2 0x4755 JUMP JUMPDEST POP DUP1 MLOAD PUSH1 0xA DUP1 SLOAD PUSH1 0x20 DUP5 ADD MLOAD PUSH1 0x40 DUP1 DUP7 ADD MLOAD PUSH1 0xFF NOT SWAP1 SWAP4 AND SWAP5 ISZERO ISZERO SWAP5 SWAP1 SWAP5 OR PUSH16 0xFFFFFFFFFFFFFFFFFFFFFFFFFFFFFF00 NOT AND PUSH2 0x100 PUSH1 0x1 PUSH1 0x1 PUSH1 0x78 SHL SUB SWAP1 SWAP3 AND SWAP2 SWAP1 SWAP2 MUL OR PUSH1 0x1 PUSH1 0x1 PUSH1 0x80 SHL SUB SWAP1 DUP2 AND PUSH1 0x1 PUSH1 0x80 SHL SWAP2 SWAP1 SWAP3 AND MUL OR DUP2 SSTORE SWAP1 MLOAD PUSH32 0x2ABF5970D7BC1A2B36EAAE52DD2CC353EDB0337C7284EF8A01973081B4E04424 SWAP2 PUSH2 0x795 SWAP2 PUSH2 0x47DD JUMP JUMPDEST PUSH1 0x1 PUSH1 0x1 PUSH1 0xA0 SHL SUB AND PUSH1 0x0 SWAP1 DUP2 MSTORE PUSH1 0x6 PUSH1 0x20 MSTORE PUSH1 0x40 SWAP1 KECCAK256 SLOAD SWAP1 JUMP JUMPDEST PUSH1 0xC SLOAD PUSH1 0x40 DUP1 MLOAD DUP1 DUP3 ADD SWAP1 SWAP2 MSTORE PUSH1 0x11 DUP2 MSTORE PUSH17 0x3737BA103830BAB9B29036B0B730B3B2B9 PUSH1 0x79 SHL PUSH1 0x20 DUP3 ADD MSTORE PUSH1 0x1 PUSH1 0x1 PUSH1 0xA0 SHL SUB SWAP1 SWAP2 AND SWAP1 CALLER DUP3 EQ PUSH2 0x1001 JUMPI PUSH1 0x40 MLOAD PUSH3 0x461BCD PUSH1 0xE5 SHL DUP2 MSTORE PUSH1 0x20 PUSH1 0x4 DUP3 ADD DUP2 DUP2 MSTORE DUP4 MLOAD PUSH1 0x24 DUP5 ADD MSTORE DUP4 MLOAD SWAP1 SWAP3 DUP4 SWAP3 PUSH1 0x44 SWAP1 SWAP2 ADD SWAP2 SWAP1 DUP6 ADD SWAP1 DUP1 DUP4 DUP4 PUSH1 0x0 DUP4 ISZERO PUSH2 0xA09 JUMPI DUP2 DUP2 ADD MLOAD DUP4 DUP3 ADD MSTORE PUSH1 0x20 ADD PUSH2 0x9F1 JUMP JUMPDEST POP PUSH1 0xC DUP1 SLOAD PUSH1 0x1 PUSH1 0x1 PUSH1 0xA0 SHL SUB NOT AND PUSH1 0x1 PUSH1 0x1 PUSH1 0xA0 SHL SUB DUP5 DUP2 AND SWAP2 DUP3 OR SWAP1 SWAP3 SSTORE PUSH1 0x40 DUP1 MLOAD SWAP3 DUP5 AND DUP4 MSTORE PUSH1 0x20 DUP4 ADD SWAP2 SWAP1 SWAP2 MSTORE DUP1 MLOAD PUSH32 0x1FFCCD1FA96F4FB3415DF8048A0FD107344E262D2D246C85105E2A3F8F3E8198 SWAP3 DUP2 SWAP1 SUB SWAP1 SWAP2 ADD SWAP1 LOG1 POP POP JUMP JUMPDEST PUSH32 0x0 DUP2 JUMP JUMPDEST PUSH1 0xC SLOAD PUSH1 0x40 DUP1 MLOAD DUP1 DUP3 ADD SWAP1 SWAP2 MSTORE PUSH1 0x11 DUP2 MSTORE PUSH17 0x3737BA103830BAB9B29036B0B730B3B2B9 PUSH1 0x79 SHL PUSH1 0x20 DUP3 ADD MSTORE SWAP1 PUSH1 0x1 PUSH1 0x1 PUSH1 0xA0 SHL SUB AND CALLER EQ PUSH2 0x1108 JUMPI PUSH1 0x40 MLOAD PUSH3 0x461BCD PUSH1 0xE5 SHL DUP2 MSTORE PUSH1 0x20 PUSH1 0x4 DUP3 ADD DUP2 DUP2 MSTORE DUP4 MLOAD PUSH1 0x24 DUP5 ADD MSTORE DUP4 MLOAD SWAP1 SWAP3 DUP4 SWAP3 PUSH1 0x44 SWAP1 SWAP2 ADD SWAP2 SWAP1 DUP6 ADD SWAP1 DUP1 DUP4 DUP4 PUSH1 0x0 DUP4 ISZERO PUSH2 0xA09 JUMPI DUP2 DUP2 ADD MLOAD DUP4 DUP3 ADD MSTORE PUSH1 0x20 ADD PUSH2 0x9F1 JUMP JUMPDEST POP PUSH2 0x1113 PUSH1 0x1 PUSH2 0x7A8 JUMP JUMPDEST PUSH1 0x40 MLOAD PUSH32 0x681EACE576127D0553B224436A09801FB47D042942CBFF59D7D4FF04D8FA03D7 SWAP1 PUSH1 0x0 SWAP1 LOG1 JUMP JUMPDEST PUSH1 0x40 DUP1 MLOAD PUSH32 0x0 PUSH1 0x20 DUP1 DUP4 ADD SWAP2 SWAP1 SWAP2 MSTORE PUSH1 0x1 PUSH1 0x1 PUSH1 0xE0 SHL SUB NOT DUP5 AND DUP3 DUP5 ADD MSTORE DUP3 MLOAD PUSH1 0x24 DUP2 DUP5 SUB ADD DUP2 MSTORE PUSH1 0x44 SWAP1 SWAP3 ADD SWAP1 SWAP3 MSTORE DUP1 MLOAD SWAP2 ADD KECCAK256 SWAP2 SWAP1 POP JUMP JUMPDEST PUSH1 0x0 DUP1 PUSH2 0x11A2 PUSH2 0x7B4 JUMP JUMPDEST SWAP1 POP PUSH1 0x0 DUP1 PUSH2 0x11BA PUSH1 0x9 SLOAD PUSH2 0x11B5 PUSH2 0x158C JUMP JUMPDEST PUSH2 0x2121 JUMP JUMPDEST POP SWAP2 SWAP4 POP SWAP2 POP PUSH2 0x11D0 SWAP1 POP DUP2 PUSH2 0xB62 DUP6 DUP6 PUSH2 0x218A JUMP JUMPDEST SWAP4 POP POP POP POP SWAP1 JUMP JUMPDEST PUSH1 0x0 PUSH1 0x60 PUSH2 0x11E8 DUP7 MLOAD PUSH1 0x2 PUSH2 0x1EBC JUMP JUMPDEST PUSH2 0xB16 DUP10 DUP10 DUP10 DUP10 DUP10 DUP10 DUP10 PUSH2 0x22B2 PUSH2 0x2371 PUSH2 0x200E JUMP JUMPDEST PUSH32 0x0 SWAP1 JUMP JUMPDEST PUSH32 0x0 SWAP1 JUMP JUMPDEST PUSH1 0x60 PUSH1 0x0 PUSH2 0x1251 PUSH2 0x23D3 JUMP JUMPDEST PUSH1 0x40 DUP1 MLOAD PUSH1 0x2 DUP1 DUP3 MSTORE PUSH1 0x60 DUP3 ADD DUP4 MSTORE SWAP3 SWAP4 POP SWAP2 SWAP1 PUSH1 0x20 DUP4 ADD SWAP1 DUP1 CALLDATASIZE DUP4 CALLDATACOPY ADD SWAP1 POP POP SWAP2 POP PUSH2 0x12A8 DUP2 PUSH1 0x0 DUP2 MLOAD DUP2 LT PUSH2 0x1284 JUMPI INVALID JUMPDEST PUSH1 0x20 MUL PUSH1 0x20 ADD ADD MLOAD DUP3 PUSH1 0x1 DUP2 MLOAD DUP2 LT PUSH2 0x1299 JUMPI INVALID JUMPDEST PUSH1 0x20 MUL PUSH1 0x20 ADD ADD MLOAD PUSH1 0x1 PUSH2 0x1DA0 JUMP JUMPDEST SWAP1 SWAP2 POP DUP4 PUSH1 0x0 DUP2 MLOAD DUP2 LT PUSH2 0x12B8 JUMPI INVALID JUMPDEST PUSH1 0x20 MUL PUSH1 0x20 ADD ADD DUP5 PUSH1 0x1 DUP2 MLOAD DUP2 LT PUSH2 0x12CC JUMPI INVALID JUMPDEST PUSH1 0x20 SWAP1 DUP2 MUL SWAP2 SWAP1 SWAP2 ADD ADD SWAP2 SWAP1 SWAP2 MSTORE MSTORE POP SWAP1 JUMP JUMPDEST PUSH1 0x4 DUP1 SLOAD PUSH1 0x40 DUP1 MLOAD PUSH1 0x20 PUSH1 0x1F PUSH1 0x2 PUSH1 0x0 NOT PUSH2 0x100 PUSH1 0x1 DUP9 AND ISZERO MUL ADD SWAP1 SWAP6 AND SWAP5 SWAP1 SWAP5 DIV SWAP4 DUP5 ADD DUP2 SWAP1 DIV DUP2 MUL DUP3 ADD DUP2 ADD SWAP1 SWAP3 MSTORE DUP3 DUP2 MSTORE PUSH1 0x60 SWAP4 SWAP1 SWAP3 SWAP1 SWAP2 DUP4 ADD DUP3 DUP3 DUP1 ISZERO PUSH2 0x6CE JUMPI DUP1 PUSH1 0x1F LT PUSH2 0x6A3 JUMPI PUSH2 0x100 DUP1 DUP4 SLOAD DIV MUL DUP4 MSTORE SWAP2 PUSH1 0x20 ADD SWAP2 PUSH2 0x6CE JUMP JUMPDEST PUSH1 0x0 DUP1 PUSH2 0x134B PUSH2 0x23D3 JUMP JUMPDEST SWAP1 POP PUSH1 0x0 DUP1 PUSH1 0x0 PUSH2 0x1377 DUP5 PUSH1 0x0 DUP2 MLOAD DUP2 LT PUSH2 0x1362 JUMPI INVALID JUMPDEST PUSH1 0x20 MUL PUSH1 0x20 ADD ADD MLOAD DUP6 PUSH1 0x1 DUP2 MLOAD DUP2 LT PUSH2 0x1299 JUMPI INVALID JUMPDEST SWAP3 POP SWAP3 POP SWAP3 POP PUSH2 0x1388 DUP5 DUP4 DUP4 PUSH2 0x2489 JUMP JUMPDEST SWAP5 POP PUSH2 0x1393 DUP6 PUSH2 0x24BF JUMP JUMPDEST SWAP5 POP POP POP POP POP SWAP1 JUMP JUMPDEST PUSH1 0x9 SLOAD SWAP1 JUMP JUMPDEST PUSH1 0x0 PUSH2 0x13AC PUSH2 0x1BD7 JUMP JUMPDEST DUP4 PUSH1 0x80 ADD MLOAD PUSH2 0x13BC PUSH2 0xDB9 PUSH2 0x1221 JUMP JUMPDEST PUSH2 0x13C7 PUSH2 0xDDF PUSH2 0x888 JUMP JUMPDEST PUSH1 0x0 PUSH32 0x0 PUSH1 0x1 PUSH1 0x1 PUSH1 0xA0 SHL SUB AND DUP7 PUSH1 0x20 ADD MLOAD PUSH1 0x1 PUSH1 0x1 PUSH1 0xA0 SHL SUB AND EQ SWAP1 POP PUSH1 0x0 PUSH2 0x140F DUP3 PUSH2 0x1C67 JUMP JUMPDEST SWAP1 POP PUSH1 0x0 PUSH2 0x141D DUP4 ISZERO PUSH2 0x1C67 JUMP JUMPDEST SWAP1 POP PUSH2 0x1429 DUP8 DUP4 PUSH2 0x1D94 JUMP JUMPDEST SWAP7 POP PUSH2 0x1435 DUP7 DUP3 PUSH2 0x1D94 JUMP JUMPDEST SWAP6 POP PUSH1 0x0 DUP1 PUSH1 0x0 PUSH2 0x1447 DUP11 DUP11 DUP9 PUSH2 0x1DA0 JUMP JUMPDEST SWAP2 SWAP5 POP SWAP3 POP SWAP1 POP PUSH1 0x0 DUP12 MLOAD PUSH1 0x1 DUP2 GT ISZERO PUSH2 0x145D JUMPI INVALID JUMPDEST EQ ISZERO PUSH2 0x14CC JUMPI PUSH1 0x0 PUSH2 0x147B PUSH2 0x1470 PUSH2 0xAE4 JUMP JUMPDEST PUSH1 0x60 DUP15 ADD MLOAD SWAP1 PUSH2 0x265F JUMP JUMPDEST SWAP1 POP PUSH2 0x149D PUSH2 0x1497 DUP3 DUP15 PUSH1 0x60 ADD MLOAD PUSH2 0x26B4 SWAP1 SWAP2 SWAP1 PUSH4 0xFFFFFFFF AND JUMP JUMPDEST DUP8 PUSH2 0x1D94 JUMP JUMPDEST PUSH1 0x60 DUP14 ADD MSTORE PUSH1 0x0 PUSH2 0x14B1 DUP14 DUP14 DUP14 DUP8 DUP8 PUSH2 0x26CA JUMP JUMPDEST SWAP1 POP PUSH2 0x14BD DUP2 DUP8 PUSH2 0x26E9 JUMP JUMPDEST SWAP10 POP POP POP POP POP POP POP POP POP PUSH2 0x1520 JUMP JUMPDEST PUSH2 0x14DA DUP12 PUSH1 0x60 ADD MLOAD DUP6 PUSH2 0x1D94 JUMP JUMPDEST PUSH1 0x60 DUP13 ADD MSTORE PUSH1 0x0 PUSH2 0x14EE DUP13 DUP13 DUP13 DUP7 DUP7 PUSH2 0x26F5 JUMP JUMPDEST SWAP1 POP PUSH2 0x14FA DUP2 DUP8 PUSH2 0x2708 JUMP JUMPDEST SWAP1 POP PUSH2 0x1516 PUSH2 0x150F PUSH2 0x150A PUSH2 0xAE4 JUMP JUMPDEST PUSH2 0x2714 JUMP JUMPDEST DUP3 SWAP1 PUSH2 0x273A JUMP JUMPDEST SWAP9 POP POP POP POP POP POP POP POP JUMPDEST POP SWAP4 SWAP3 POP POP POP JUMP JUMPDEST PUSH1 0x0 DUP1 PUSH2 0x1535 CALLER DUP6 PUSH2 0x181C JUMP JUMPDEST SWAP1 POP DUP1 DUP4 LT PUSH2 0x154F JUMPI PUSH2 0x154A CALLER DUP6 PUSH1 0x0 PUSH2 0x18B2 JUMP JUMPDEST PUSH2 0x155C JUMP JUMPDEST PUSH2 0x155C CALLER DUP6 DUP6 DUP5 SUB PUSH2 0x18B2 JUMP JUMPDEST POP PUSH1 0x1 SWAP4 SWAP3 POP POP POP JUMP JUMPDEST PUSH1 0x0 PUSH2 0x6E5 CALLER DUP5 DUP5 PUSH2 0x1A31 JUMP JUMPDEST PUSH1 0x0 PUSH2 0x86A PUSH2 0x27A0 JUMP JUMPDEST PUSH1 0xC SLOAD PUSH1 0x1 PUSH1 0x1 PUSH1 0xA0 SHL SUB AND DUP2 JUMP JUMPDEST PUSH1 0x0 DUP1 PUSH2 0x1597 PUSH2 0x23D3 JUMP JUMPDEST SWAP1 POP PUSH1 0x0 PUSH2 0x15A3 PUSH2 0x2220 JUMP JUMPDEST SWAP1 POP PUSH2 0x15C0 DUP3 DUP3 PUSH1 0x0 JUMPDEST PUSH1 0x20 MUL ADD MLOAD DUP4 PUSH1 0x1 JUMPDEST PUSH1 0x20 MUL ADD MLOAD PUSH2 0x281A JUMP JUMPDEST SWAP3 POP POP POP SWAP1 JUMP JUMPDEST PUSH2 0x15D5 DUP5 TIMESTAMP GT ISZERO PUSH1 0xD1 PUSH2 0x1A23 JUMP JUMPDEST PUSH1 0x1 PUSH1 0x1 PUSH1 0xA0 SHL SUB DUP1 DUP9 AND PUSH1 0x0 DUP2 DUP2 MSTORE PUSH1 0x6 PUSH1 0x20 SWAP1 DUP2 MSTORE PUSH1 0x40 DUP1 DUP4 KECCAK256 SLOAD DUP2 MLOAD PUSH32 0x0 DUP2 DUP6 ADD MSTORE DUP1 DUP4 ADD SWAP6 SWAP1 SWAP6 MSTORE SWAP5 DUP12 AND PUSH1 0x60 DUP6 ADD MSTORE PUSH1 0x80 DUP5 ADD DUP11 SWAP1 MSTORE PUSH1 0xA0 DUP5 ADD DUP6 SWAP1 MSTORE PUSH1 0xC0 DUP1 DUP6 ADD DUP11 SWAP1 MSTORE DUP2 MLOAD DUP1 DUP7 SUB SWAP1 SWAP2 ADD DUP2 MSTORE PUSH1 0xE0 SWAP1 SWAP5 ADD SWAP1 MSTORE DUP3 MLOAD SWAP3 ADD SWAP2 SWAP1 SWAP2 KECCAK256 SWAP1 PUSH2 0x1661 DUP3 PUSH2 0x284D JUMP JUMPDEST SWAP1 POP PUSH1 0x0 PUSH1 0x1 DUP3 DUP9 DUP9 DUP9 PUSH1 0x40 MLOAD PUSH1 0x0 DUP2 MSTORE PUSH1 0x20 ADD PUSH1 0x40 MSTORE PUSH1 0x40 MLOAD DUP1 DUP6 DUP2 MSTORE PUSH1 0x20 ADD DUP5 PUSH1 0xFF AND DUP2 MSTORE PUSH1 0x20 ADD DUP4 DUP2 MSTORE PUSH1 0x20 ADD DUP3 DUP2 MSTORE PUSH1 0x20 ADD SWAP5 POP POP POP POP POP PUSH1 0x20 PUSH1 0x40 MLOAD PUSH1 0x20 DUP2 SUB SWAP1 DUP1 DUP5 SUB SWAP1 DUP6 GAS STATICCALL ISZERO DUP1 ISZERO PUSH2 0x16BF JUMPI RETURNDATASIZE PUSH1 0x0 DUP1 RETURNDATACOPY RETURNDATASIZE PUSH1 0x0 REVERT JUMPDEST POP POP PUSH1 0x40 MLOAD PUSH1 0x1F NOT ADD MLOAD SWAP2 POP PUSH2 0x1701 SWAP1 POP PUSH1 0x1 PUSH1 0x1 PUSH1 0xA0 SHL SUB DUP3 AND ISZERO DUP1 ISZERO SWAP1 PUSH2 0x16F9 JUMPI POP DUP12 PUSH1 0x1 PUSH1 0x1 PUSH1 0xA0 SHL SUB AND DUP3 PUSH1 0x1 PUSH1 0x1 PUSH1 0xA0 SHL SUB AND EQ JUMPDEST PUSH2 0x1F8 PUSH2 0x1A23 JUMP JUMPDEST PUSH1 0x1 PUSH1 0x1 PUSH1 0xA0 SHL SUB DUP12 AND PUSH1 0x0 SWAP1 DUP2 MSTORE PUSH1 0x6 PUSH1 0x20 MSTORE PUSH1 0x40 SWAP1 KECCAK256 PUSH1 0x1 DUP6 ADD SWAP1 SSTORE PUSH2 0x172A DUP12 DUP12 DUP12 PUSH2 0x18B2 JUMP JUMPDEST POP POP POP POP POP POP POP POP POP POP POP JUMP JUMPDEST PUSH1 0x60 DUP1 DUP9 PUSH2 0x1746 PUSH2 0xDB9 PUSH2 0x1221 JUMP JUMPDEST PUSH2 0x1751 PUSH2 0xDDF PUSH2 0x888 JUMP JUMPDEST PUSH2 0x1759 PUSH2 0x1BD7 JUMP JUMPDEST PUSH1 0x0 PUSH2 0x1763 PUSH2 0x7B4 JUMP JUMPDEST PUSH2 0x17D3 JUMPI PUSH2 0x1773 DUP12 DUP12 DUP12 DUP9 PUSH2 0x2899 JUMP JUMPDEST SWAP5 POP SWAP1 POP PUSH2 0x1788 PUSH3 0xF4240 DUP3 LT ISZERO PUSH1 0xCC PUSH2 0x1A23 JUMP JUMPDEST PUSH2 0x1796 PUSH1 0x0 PUSH3 0xF4240 PUSH2 0x296E JUMP JUMPDEST PUSH2 0x17A5 DUP10 PUSH3 0xF4240 DUP4 SUB PUSH2 0x296E JUMP JUMPDEST PUSH2 0x17AE DUP5 PUSH2 0x2371 JUMP JUMPDEST PUSH1 0x40 DUP1 MLOAD PUSH1 0x2 DUP1 DUP3 MSTORE PUSH1 0x60 DUP3 ADD DUP4 MSTORE SWAP1 SWAP2 PUSH1 0x20 DUP4 ADD SWAP1 DUP1 CALLDATASIZE DUP4 CALLDATACOPY ADD SWAP1 POP POP SWAP3 POP PUSH2 0x180E JUMP JUMPDEST PUSH2 0x17DC DUP9 PUSH2 0x2246 JUMP JUMPDEST PUSH2 0x17EB DUP12 DUP12 DUP12 DUP12 DUP12 DUP12 DUP12 PUSH2 0x22B2 JUMP JUMPDEST SWAP1 SWAP6 POP SWAP4 POP SWAP1 POP PUSH2 0x17FC DUP10 DUP3 PUSH2 0x296E JUMP JUMPDEST PUSH2 0x1805 DUP5 PUSH2 0x2371 JUMP JUMPDEST PUSH2 0x180E DUP4 PUSH2 0x1F90 JUMP JUMPDEST POP POP SWAP8 POP SWAP8 SWAP6 POP POP POP POP POP POP JUMP JUMPDEST PUSH1 0x0 PUSH2 0x1826 PUSH2 0x1221 JUMP JUMPDEST PUSH1 0x1 PUSH1 0x1 PUSH1 0xA0 SHL SUB AND DUP3 PUSH1 0x1 PUSH1 0x1 PUSH1 0xA0 SHL SUB AND EQ ISZERO PUSH2 0x1848 JUMPI POP PUSH1 0x0 NOT PUSH2 0x6E9 JUMP JUMPDEST PUSH2 0x1852 DUP4 DUP4 PUSH2 0x2978 JUMP JUMPDEST SWAP1 POP PUSH2 0x6E9 JUMP JUMPDEST PUSH1 0x60 PUSH2 0x86A PUSH2 0x29A3 JUMP JUMPDEST DUP1 PUSH2 0x186D DUP2 PUSH2 0x2A12 JUMP JUMPDEST POP POP JUMP JUMPDEST PUSH1 0x0 PUSH2 0x187F DUP4 DUP4 PUSH1 0x56 PUSH2 0x189C JUMP JUMPDEST SWAP4 SWAP3 POP POP POP JUMP JUMPDEST PUSH1 0x0 PUSH2 0x1896 DUP4 DUP4 GT ISZERO PUSH1 0x1 PUSH2 0x1A23 JUMP JUMPDEST POP SWAP1 SUB SWAP1 JUMP JUMPDEST PUSH8 0xFFFFFFFFFFFFFFFF DUP2 SHL NOT SWAP3 SWAP1 SWAP3 AND SWAP2 SHL OR SWAP1 JUMP JUMPDEST PUSH1 0x1 PUSH1 0x1 PUSH1 0xA0 SHL SUB DUP1 DUP5 AND PUSH1 0x0 DUP2 DUP2 MSTORE PUSH1 0x1 PUSH1 0x20 SWAP1 DUP2 MSTORE PUSH1 0x40 DUP1 DUP4 KECCAK256 SWAP5 DUP8 AND DUP1 DUP5 MSTORE SWAP5 DUP3 MSTORE SWAP2 DUP3 SWAP1 KECCAK256 DUP6 SWAP1 SSTORE DUP2 MLOAD DUP6 DUP2 MSTORE SWAP2 MLOAD PUSH32 0x8C5BE1E5EBEC7D5BD14F71427D1E84F3DD0314C0F7B2291E5B200AC8C7C3B925 SWAP3 DUP2 SWAP1 SUB SWAP1 SWAP2 ADD SWAP1 LOG3 POP POP POP JUMP JUMPDEST PUSH1 0x0 PUSH2 0x192B PUSH1 0x0 CALLDATALOAD PUSH1 0x1 PUSH1 0x1 PUSH1 0xE0 SHL SUB NOT AND PUSH2 0x113E JUMP JUMPDEST SWAP1 POP PUSH2 0x7B1 PUSH2 0x193A DUP3 CALLER PUSH2 0x2A90 JUMP JUMPDEST PUSH2 0x191 PUSH2 0x1A23 JUMP JUMPDEST DUP1 ISZERO PUSH2 0x1962 JUMPI PUSH2 0x195D PUSH2 0x1953 PUSH2 0x19DB JUMP JUMPDEST TIMESTAMP LT PUSH2 0x193 PUSH2 0x1A23 JUMP JUMPDEST PUSH2 0x1977 JUMP JUMPDEST PUSH2 0x1977 PUSH2 0x196D PUSH2 0x19FF JUMP JUMPDEST TIMESTAMP LT PUSH2 0x1A9 PUSH2 0x1A23 JUMP JUMPDEST PUSH1 0x7 DUP1 SLOAD DUP3 ISZERO ISZERO PUSH1 0xFF NOT SWAP1 SWAP2 AND DUP2 OR SWAP1 SWAP2 SSTORE PUSH1 0x40 DUP1 MLOAD SWAP2 DUP3 MSTORE MLOAD PUSH32 0x9E3A5E37224532DEA67B89FACE185703738A228A6E8A23DEE546960180D3BE64 SWAP2 DUP2 SWAP1 SUB PUSH1 0x20 ADD SWAP1 LOG1 POP JUMP JUMPDEST PUSH1 0x0 PUSH2 0x19C8 PUSH2 0x19FF JUMP JUMPDEST TIMESTAMP GT DUP1 PUSH2 0x86A JUMPI POP POP PUSH1 0x7 SLOAD PUSH1 0xFF AND ISZERO SWAP1 JUMP JUMPDEST PUSH32 0x0 SWAP1 JUMP JUMPDEST PUSH32 0x0 SWAP1 JUMP JUMPDEST DUP2 PUSH2 0x186D JUMPI PUSH2 0x186D DUP2 PUSH2 0x2B92 JUMP JUMPDEST PUSH2 0x1A48 PUSH1 0x1 PUSH1 0x1 PUSH1 0xA0 SHL SUB DUP5 AND ISZERO ISZERO PUSH2 0x198 PUSH2 0x1A23 JUMP JUMPDEST PUSH2 0x1A5F PUSH1 0x1 PUSH1 0x1 PUSH1 0xA0 SHL SUB DUP4 AND ISZERO ISZERO PUSH2 0x199 PUSH2 0x1A23 JUMP JUMPDEST PUSH2 0x1A6A DUP4 DUP4 DUP4 PUSH2 0x2A8B JUMP JUMPDEST PUSH1 0x1 PUSH1 0x1 PUSH1 0xA0 SHL SUB DUP4 AND PUSH1 0x0 SWAP1 DUP2 MSTORE PUSH1 0x20 DUP2 SWAP1 MSTORE PUSH1 0x40 SWAP1 KECCAK256 SLOAD PUSH2 0x1A90 SWAP1 DUP3 PUSH2 0x1A0 PUSH2 0x2BE5 JUMP JUMPDEST PUSH1 0x1 PUSH1 0x1 PUSH1 0xA0 SHL SUB DUP1 DUP6 AND PUSH1 0x0 SWAP1 DUP2 MSTORE PUSH1 0x20 DUP2 SWAP1 MSTORE PUSH1 0x40 DUP1 DUP3 KECCAK256 SWAP4 SWAP1 SWAP4 SSTORE SWAP1 DUP5 AND DUP2 MSTORE KECCAK256 SLOAD PUSH2 0x1ABF SWAP1 DUP3 PUSH2 0x1C55 JUMP JUMPDEST PUSH1 0x1 PUSH1 0x1 PUSH1 0xA0 SHL SUB DUP1 DUP5 AND PUSH1 0x0 DUP2 DUP2 MSTORE PUSH1 0x20 DUP2 DUP2 MSTORE PUSH1 0x40 SWAP2 DUP3 SWAP1 KECCAK256 SWAP5 SWAP1 SWAP5 SSTORE DUP1 MLOAD DUP6 DUP2 MSTORE SWAP1 MLOAD SWAP2 SWAP4 SWAP3 DUP8 AND SWAP3 PUSH32 0xDDF252AD1BE2C89B69C2B068FC378DAA952BA7F163C4A11628F55A4DF523B3EF SWAP3 SWAP2 DUP3 SWAP1 SUB ADD SWAP1 LOG3 POP POP POP JUMP JUMPDEST PUSH1 0x0 PUSH32 0x0 PUSH32 0x0 PUSH32 0x0 PUSH2 0x1B86 PUSH2 0x2BFB JUMP JUMPDEST ADDRESS PUSH1 0x40 MLOAD PUSH1 0x20 ADD DUP1 DUP7 DUP2 MSTORE PUSH1 0x20 ADD DUP6 DUP2 MSTORE PUSH1 0x20 ADD DUP5 DUP2 MSTORE PUSH1 0x20 ADD DUP4 DUP2 MSTORE PUSH1 0x20 ADD DUP3 PUSH1 0x1 PUSH1 0x1 PUSH1 0xA0 SHL SUB AND DUP2 MSTORE PUSH1 0x20 ADD SWAP6 POP POP POP POP POP POP PUSH1 0x40 MLOAD PUSH1 0x20 DUP2 DUP4 SUB SUB DUP2 MSTORE SWAP1 PUSH1 0x40 MSTORE DUP1 MLOAD SWAP1 PUSH1 0x20 ADD KECCAK256 SWAP1 POP SWAP1 JUMP JUMPDEST PUSH2 0x1BEA PUSH2 0x1BE2 PUSH2 0x19BE JUMP JUMPDEST PUSH2 0x192 PUSH2 0x1A23 JUMP JUMPDEST JUMP JUMPDEST PUSH2 0x1BFF PUSH5 0xE8D4A51000 DUP3 LT ISZERO PUSH1 0xCB PUSH2 0x1A23 JUMP JUMPDEST PUSH2 0x1C15 PUSH8 0x16345785D8A0000 DUP3 GT ISZERO PUSH1 0xCA PUSH2 0x1A23 JUMP JUMPDEST PUSH1 0x8 SLOAD PUSH2 0x1C22 SWAP1 DUP3 PUSH2 0x1871 JUMP JUMPDEST PUSH1 0x8 SSTORE PUSH1 0x40 MLOAD PUSH32 0xA9BA3FFE0B6C366B81232CAAB38605A0699AD5398D6CCE76F91EE809E322DAFC SWAP1 PUSH2 0x795 SWAP1 DUP4 SWAP1 PUSH2 0x470B JUMP JUMPDEST PUSH1 0x0 DUP3 DUP3 ADD PUSH2 0x187F DUP5 DUP3 LT ISZERO DUP4 PUSH2 0x1A23 JUMP JUMPDEST PUSH1 0x0 DUP1 PUSH1 0x0 DUP4 ISZERO PUSH2 0x1CBC JUMPI POP PUSH32 0x0 SWAP1 POP PUSH32 0x0 PUSH2 0x1D02 JUMP JUMPDEST POP PUSH32 0x0 SWAP1 POP PUSH32 0x0 JUMPDEST PUSH1 0x1 PUSH1 0x1 PUSH1 0xA0 SHL SUB DUP3 AND ISZERO PUSH2 0x187F JUMPI PUSH2 0x1D8C DUP3 PUSH1 0x1 PUSH1 0x1 PUSH1 0xA0 SHL SUB AND PUSH4 0x679AEFCE PUSH1 0x40 MLOAD DUP2 PUSH4 0xFFFFFFFF AND PUSH1 0xE0 SHL DUP2 MSTORE PUSH1 0x4 ADD PUSH1 0x20 PUSH1 0x40 MLOAD DUP1 DUP4 SUB DUP2 DUP7 DUP1 EXTCODESIZE ISZERO DUP1 ISZERO PUSH2 0x1D4D JUMPI PUSH1 0x0 DUP1 REVERT JUMPDEST POP GAS STATICCALL ISZERO DUP1 ISZERO PUSH2 0x1D61 JUMPI RETURNDATASIZE PUSH1 0x0 DUP1 RETURNDATACOPY RETURNDATASIZE PUSH1 0x0 REVERT JUMPDEST POP POP POP POP PUSH1 0x40 MLOAD RETURNDATASIZE PUSH1 0x1F NOT PUSH1 0x1F DUP3 ADD AND DUP3 ADD DUP1 PUSH1 0x40 MSTORE POP DUP2 ADD SWAP1 PUSH2 0x1D85 SWAP2 SWAP1 PUSH2 0x4595 JUMP JUMPDEST DUP3 SWAP1 PUSH2 0x2BFF JUMP JUMPDEST SWAP5 SWAP4 POP POP POP POP JUMP JUMPDEST PUSH1 0x0 PUSH2 0x187F DUP4 DUP4 PUSH2 0x2BFF JUMP JUMPDEST PUSH1 0x40 DUP1 MLOAD PUSH1 0x2 DUP1 DUP3 MSTORE PUSH1 0x60 DUP3 ADD DUP4 MSTORE PUSH1 0x0 SWAP3 DUP4 SWAP3 DUP4 SWAP3 DUP4 SWAP3 PUSH1 0x20 DUP4 ADD SWAP1 DUP1 CALLDATASIZE DUP4 CALLDATACOPY ADD SWAP1 POP POP SWAP1 POP DUP5 PUSH2 0x1DD2 JUMPI DUP6 PUSH2 0x1DD4 JUMP JUMPDEST DUP7 JUMPDEST DUP2 PUSH1 0x0 DUP2 MLOAD DUP2 LT PUSH2 0x1DE1 JUMPI INVALID JUMPDEST PUSH1 0x20 MUL PUSH1 0x20 ADD ADD DUP2 DUP2 MSTORE POP POP DUP5 PUSH2 0x1DF8 JUMPI DUP7 PUSH2 0x1DFA JUMP JUMPDEST DUP6 JUMPDEST DUP2 PUSH1 0x1 DUP2 MLOAD DUP2 LT PUSH2 0x1E07 JUMPI INVALID JUMPDEST PUSH1 0x20 MUL PUSH1 0x20 ADD ADD DUP2 DUP2 MSTORE POP POP PUSH1 0x0 PUSH2 0x1E1D PUSH2 0x2220 JUMP JUMPDEST SWAP1 POP PUSH2 0x1E2B DUP3 DUP3 PUSH1 0x0 PUSH2 0x15AD JUMP JUMPDEST SWAP5 POP PUSH1 0x0 PUSH2 0x1E39 DUP3 DUP8 PUSH2 0x2C38 JUMP JUMPDEST SWAP1 POP DUP7 PUSH2 0x1E4A JUMPI PUSH1 0x20 DUP2 ADD MLOAD PUSH2 0x1E4D JUMP JUMPDEST DUP1 MLOAD JUMPDEST SWAP5 POP DUP7 PUSH2 0x1E5B JUMPI DUP1 MLOAD PUSH2 0x1E61 JUMP JUMPDEST PUSH1 0x20 DUP2 ADD MLOAD JUMPDEST SWAP4 POP POP POP POP SWAP4 POP SWAP4 POP SWAP4 SWAP1 POP JUMP JUMPDEST PUSH1 0x0 PUSH2 0x6E9 DUP3 DUP3 PUSH2 0x2C6C JUMP JUMPDEST PUSH1 0x0 PUSH2 0x6E9 DUP3 PUSH1 0x16 PUSH2 0x2C6C JUMP JUMPDEST PUSH1 0x0 PUSH2 0x6E9 DUP3 PUSH1 0x2C PUSH2 0x2C93 JUMP JUMPDEST PUSH1 0x0 PUSH2 0x6E9 DUP3 PUSH1 0x4B PUSH2 0x2C9D JUMP JUMPDEST PUSH1 0x0 PUSH2 0x6E9 DUP3 PUSH1 0x55 PUSH2 0x2CA5 JUMP JUMPDEST PUSH1 0x0 PUSH2 0x6E9 DUP3 PUSH1 0x56 PUSH2 0x2CAF JUMP JUMPDEST PUSH2 0x186D DUP2 DUP4 EQ PUSH1 0x67 PUSH2 0x1A23 JUMP JUMPDEST PUSH1 0x0 PUSH1 0x60 DUP1 PUSH1 0x0 PUSH2 0x1ED8 PUSH2 0x2220 JUMP JUMPDEST SWAP1 POP PUSH2 0x1EE2 PUSH2 0x19BE JUMP JUMPDEST ISZERO PUSH2 0x1F44 JUMPI PUSH1 0x0 PUSH2 0x1EFD DUP10 DUP4 DUP4 JUMPDEST PUSH1 0x20 MUL ADD MLOAD DUP5 PUSH1 0x1 PUSH2 0x15B6 JUMP JUMPDEST SWAP1 POP PUSH1 0x0 PUSH2 0x1F0B DUP4 DUP4 PUSH2 0x2C38 JUMP JUMPDEST SWAP1 POP PUSH2 0x1F16 DUP3 PUSH2 0x2CBD JUMP JUMPDEST PUSH2 0x1F20 DUP11 DUP9 PUSH2 0x2CEA JUMP JUMPDEST SWAP1 SWAP7 POP SWAP5 POP PUSH2 0x1F39 DUP3 DUP8 PUSH2 0x1F32 PUSH2 0x7B4 JUMP JUMPDEST PUSH1 0x0 PUSH2 0x2D36 JUMP JUMPDEST PUSH1 0x9 SSTORE POP PUSH2 0x1F5A SWAP1 POP JUMP JUMPDEST PUSH2 0x1F4E DUP9 DUP7 PUSH2 0x2CEA JUMP JUMPDEST PUSH1 0x0 NOT PUSH1 0x9 SSTORE SWAP1 SWAP5 POP SWAP3 POP JUMPDEST PUSH1 0x40 DUP1 MLOAD PUSH1 0x2 DUP1 DUP3 MSTORE PUSH1 0x60 DUP3 ADD DUP4 MSTORE DUP7 SWAP3 DUP7 SWAP3 SWAP2 SWAP1 PUSH1 0x20 DUP4 ADD SWAP1 DUP1 CALLDATASIZE DUP4 CALLDATACOPY ADD SWAP1 POP POP SWAP4 POP SWAP4 POP SWAP4 POP POP SWAP8 POP SWAP8 POP SWAP8 SWAP5 POP POP POP POP POP JUMP JUMPDEST PUSH2 0x1FB7 DUP2 PUSH1 0x0 DUP2 MLOAD DUP2 LT PUSH2 0x1FA0 JUMPI INVALID JUMPDEST PUSH1 0x20 MUL PUSH1 0x20 ADD ADD MLOAD PUSH2 0x1FB2 PUSH1 0x1 PUSH2 0x1C67 JUMP JUMPDEST PUSH2 0x21A2 JUMP JUMPDEST DUP2 PUSH1 0x0 DUP2 MLOAD DUP2 LT PUSH2 0x1FC4 JUMPI INVALID JUMPDEST PUSH1 0x20 MUL PUSH1 0x20 ADD ADD DUP2 DUP2 MSTORE POP POP PUSH2 0x1FF2 DUP2 PUSH1 0x1 DUP2 MLOAD DUP2 LT PUSH2 0x1FE0 JUMPI INVALID JUMPDEST PUSH1 0x20 MUL PUSH1 0x20 ADD ADD MLOAD PUSH2 0x1FB2 PUSH1 0x0 PUSH2 0x1C67 JUMP JUMPDEST DUP2 PUSH1 0x1 DUP2 MLOAD DUP2 LT PUSH2 0x1FFF JUMPI INVALID JUMPDEST PUSH1 0x20 MUL PUSH1 0x20 ADD ADD DUP2 DUP2 MSTORE POP POP POP JUMP JUMPDEST CALLER ADDRESS EQ PUSH2 0x20CC JUMPI PUSH1 0x0 ADDRESS PUSH1 0x1 PUSH1 0x1 PUSH1 0xA0 SHL SUB AND PUSH1 0x0 CALLDATASIZE PUSH1 0x40 MLOAD PUSH2 0x2032 SWAP3 SWAP2 SWAP1 PUSH2 0x465B JUMP JUMPDEST PUSH1 0x0 PUSH1 0x40 MLOAD DUP1 DUP4 SUB DUP2 PUSH1 0x0 DUP7 GAS CALL SWAP2 POP POP RETURNDATASIZE DUP1 PUSH1 0x0 DUP2 EQ PUSH2 0x206F JUMPI PUSH1 0x40 MLOAD SWAP2 POP PUSH1 0x1F NOT PUSH1 0x3F RETURNDATASIZE ADD AND DUP3 ADD PUSH1 0x40 MSTORE RETURNDATASIZE DUP3 MSTORE RETURNDATASIZE PUSH1 0x0 PUSH1 0x20 DUP5 ADD RETURNDATACOPY PUSH2 0x2074 JUMP JUMPDEST PUSH1 0x60 SWAP2 POP JUMPDEST POP POP SWAP1 POP DUP1 PUSH1 0x0 DUP2 EQ PUSH2 0x2083 JUMPI INVALID JUMPDEST PUSH1 0x4 PUSH1 0x0 DUP1 RETURNDATACOPY PUSH1 0x0 MLOAD PUSH1 0x1 PUSH1 0x1 PUSH1 0xE0 SHL SUB NOT AND PUSH4 0x43ADBAFB PUSH1 0xE0 SHL DUP2 EQ PUSH2 0x20AE JUMPI RETURNDATASIZE PUSH1 0x0 DUP1 RETURNDATACOPY RETURNDATASIZE PUSH1 0x0 REVERT JUMPDEST POP PUSH1 0x20 PUSH1 0x4 PUSH1 0x0 RETURNDATACOPY PUSH1 0x40 PUSH1 0x20 MSTORE PUSH1 0x24 RETURNDATASIZE SUB PUSH1 0x24 PUSH1 0x40 RETURNDATACOPY PUSH1 0x1C RETURNDATASIZE ADD PUSH1 0x0 RETURN JUMPDEST PUSH2 0x20D5 DUP7 PUSH2 0x2246 JUMP JUMPDEST PUSH1 0x0 DUP1 PUSH2 0x20EB DUP12 DUP12 DUP12 DUP12 DUP12 DUP12 DUP12 DUP12 PUSH4 0xFFFFFFFF AND JUMP JUMPDEST POP SWAP2 POP SWAP2 POP PUSH2 0x20FD DUP2 DUP5 PUSH4 0xFFFFFFFF AND JUMP JUMPDEST DUP1 MLOAD PUSH1 0x1F NOT DUP3 ADD DUP4 SWAP1 MSTORE PUSH4 0x43ADBAFB PUSH1 0x3F NOT DUP4 ADD MSTORE PUSH1 0x20 MUL PUSH1 0x23 NOT DUP3 ADD PUSH1 0x44 DUP3 ADD DUP2 REVERT JUMPDEST PUSH1 0x0 DUP1 PUSH1 0x0 DUP1 PUSH1 0x0 DUP1 PUSH1 0x0 DUP1 PUSH2 0x2135 PUSH2 0x2D8E JUMP JUMPDEST SWAP4 POP SWAP4 POP SWAP4 POP SWAP4 POP DUP4 PUSH1 0x0 EQ ISZERO PUSH2 0x215A JUMPI PUSH1 0x0 SWAP8 POP DUP8 SWAP7 POP SWAP1 SWAP5 POP SWAP3 POP PUSH2 0x2181 SWAP2 POP POP JUMP JUMPDEST PUSH1 0x0 DUP1 PUSH2 0x2171 DUP13 DUP13 PUSH2 0x216A PUSH2 0x7B4 JUMP JUMPDEST DUP10 DUP10 PUSH2 0x2F00 JUMP JUMPDEST SWAP1 SWAP11 POP SWAP9 POP SWAP3 SWAP7 POP SWAP1 SWAP5 POP POP POP POP POP JUMPDEST SWAP3 SWAP6 SWAP2 SWAP5 POP SWAP3 POP JUMP JUMPDEST PUSH1 0x0 DUP3 DUP3 ADD DUP4 DUP2 LT ISZERO PUSH2 0x187F JUMPI PUSH2 0x187F PUSH1 0x0 DUP1 PUSH2 0x1A23 JUMP JUMPDEST PUSH1 0x0 DUP2 PUSH2 0x21B5 JUMPI PUSH2 0x21B5 PUSH1 0x0 PUSH1 0x4 PUSH2 0x1A23 JUMP JUMPDEST DUP3 PUSH2 0x21C2 JUMPI POP PUSH1 0x0 PUSH2 0x6E9 JUMP JUMPDEST PUSH8 0xDE0B6B3A7640000 DUP4 DUP2 MUL SWAP1 DUP5 DUP3 DUP2 PUSH2 0x21D8 JUMPI INVALID JUMPDEST DIV EQ PUSH2 0x21EA JUMPI PUSH2 0x21EA PUSH1 0x0 PUSH1 0x5 PUSH2 0x1A23 JUMP JUMPDEST DUP3 DUP2 DUP2 PUSH2 0x21F3 JUMPI INVALID JUMPDEST DIV SWAP5 SWAP4 POP POP POP POP JUMP JUMPDEST PUSH1 0x0 DUP3 DUP3 MUL PUSH2 0x187F DUP5 ISZERO DUP1 PUSH2 0x2219 JUMPI POP DUP4 DUP6 DUP4 DUP2 PUSH2 0x2216 JUMPI INVALID JUMPDEST DIV EQ JUMPDEST PUSH1 0x3 PUSH2 0x1A23 JUMP JUMPDEST PUSH2 0x2228 PUSH2 0x40BC JUMP JUMPDEST PUSH2 0x2232 PUSH1 0x1 PUSH2 0x2F9B JUMP JUMPDEST DUP2 MSTORE PUSH2 0x223E PUSH1 0x0 PUSH2 0x2F9B JUMP JUMPDEST PUSH1 0x20 DUP3 ADD MSTORE SWAP1 JUMP JUMPDEST PUSH2 0x226D DUP2 PUSH1 0x0 DUP2 MLOAD DUP2 LT PUSH2 0x2256 JUMPI INVALID JUMPDEST PUSH1 0x20 MUL PUSH1 0x20 ADD ADD MLOAD PUSH2 0x2268 PUSH1 0x1 PUSH2 0x1C67 JUMP JUMPDEST PUSH2 0x2BFF JUMP JUMPDEST DUP2 PUSH1 0x0 DUP2 MLOAD DUP2 LT PUSH2 0x227A JUMPI INVALID JUMPDEST PUSH1 0x20 MUL PUSH1 0x20 ADD ADD DUP2 DUP2 MSTORE POP POP PUSH2 0x1FF2 DUP2 PUSH1 0x1 DUP2 MLOAD DUP2 LT PUSH2 0x2296 JUMPI INVALID JUMPDEST PUSH1 0x20 MUL PUSH1 0x20 ADD ADD MLOAD PUSH2 0x2268 PUSH1 0x0 PUSH2 0x1C67 JUMP JUMPDEST PUSH2 0x186D DUP3 DUP3 PUSH2 0x2FEF JUMP JUMPDEST PUSH1 0x0 PUSH1 0x60 DUP1 PUSH1 0x0 PUSH2 0x22C1 PUSH2 0x2220 JUMP JUMPDEST SWAP1 POP PUSH1 0x0 PUSH2 0x22D0 DUP10 DUP4 DUP4 PUSH2 0x1EF0 JUMP JUMPDEST SWAP1 POP PUSH1 0x0 PUSH2 0x22DE DUP4 DUP4 PUSH2 0x2C38 JUMP JUMPDEST SWAP1 POP PUSH2 0x22E9 DUP3 PUSH2 0x2CBD JUMP JUMPDEST PUSH1 0x0 DUP1 PUSH2 0x22F6 DUP13 DUP11 PUSH2 0x30A6 JUMP JUMPDEST PUSH1 0xA SLOAD SWAP2 SWAP4 POP SWAP2 POP PUSH1 0xFF AND ISZERO PUSH2 0x2320 JUMPI PUSH2 0x2320 DUP3 PUSH2 0x2313 DUP16 PUSH2 0xD8B JUMP JUMPDEST PUSH2 0x231B PUSH2 0x7B4 JUMP JUMPDEST PUSH2 0x30E0 JUMP JUMPDEST PUSH2 0x2334 DUP5 DUP4 PUSH2 0x232D PUSH2 0x7B4 JUMP JUMPDEST PUSH1 0x1 PUSH2 0x2D36 JUMP JUMPDEST PUSH1 0x9 SSTORE PUSH1 0x40 DUP1 MLOAD PUSH1 0x2 DUP1 DUP3 MSTORE PUSH1 0x60 DUP3 ADD DUP4 MSTORE DUP5 SWAP3 DUP5 SWAP3 SWAP2 SWAP1 PUSH1 0x20 DUP4 ADD SWAP1 DUP1 CALLDATASIZE DUP4 CALLDATACOPY ADD SWAP1 POP POP SWAP8 POP SWAP8 POP SWAP8 POP POP POP POP POP POP SWAP8 POP SWAP8 POP SWAP8 SWAP5 POP POP POP POP POP JUMP JUMPDEST PUSH2 0x2398 DUP2 PUSH1 0x0 DUP2 MLOAD DUP2 LT PUSH2 0x2381 JUMPI INVALID JUMPDEST PUSH1 0x20 MUL PUSH1 0x20 ADD ADD MLOAD PUSH2 0x2393 PUSH1 0x1 PUSH2 0x1C67 JUMP JUMPDEST PUSH2 0x273A JUMP JUMPDEST DUP2 PUSH1 0x0 DUP2 MLOAD DUP2 LT PUSH2 0x23A5 JUMPI INVALID JUMPDEST PUSH1 0x20 MUL PUSH1 0x20 ADD ADD DUP2 DUP2 MSTORE POP POP PUSH2 0x1FF2 DUP2 PUSH1 0x1 DUP2 MLOAD DUP2 LT PUSH2 0x23C1 JUMPI INVALID JUMPDEST PUSH1 0x20 MUL PUSH1 0x20 ADD ADD MLOAD PUSH2 0x2393 PUSH1 0x0 PUSH2 0x1C67 JUMP JUMPDEST PUSH1 0x40 DUP1 MLOAD PUSH1 0x2 DUP1 DUP3 MSTORE PUSH1 0x60 DUP1 DUP4 ADD DUP5 MSTORE SWAP3 PUSH1 0x20 DUP4 ADD SWAP1 DUP1 CALLDATASIZE DUP4 CALLDATACOPY ADD SWAP1 POP POP SWAP1 POP PUSH2 0x2426 PUSH32 0x0 PUSH2 0x2421 PUSH1 0x1 PUSH2 0x1C67 JUMP JUMPDEST PUSH2 0x31F2 JUMP JUMPDEST DUP2 PUSH1 0x0 DUP2 MLOAD DUP2 LT PUSH2 0x2433 JUMPI INVALID JUMPDEST PUSH1 0x20 MUL PUSH1 0x20 ADD ADD DUP2 DUP2 MSTORE POP POP PUSH2 0x246D PUSH32 0x0 PUSH2 0x2421 PUSH1 0x0 PUSH2 0x1C67 JUMP JUMPDEST DUP2 PUSH1 0x1 DUP2 MLOAD DUP2 LT PUSH2 0x247A JUMPI INVALID JUMPDEST PUSH1 0x20 MUL PUSH1 0x20 ADD ADD DUP2 DUP2 MSTORE POP POP SWAP1 JUMP JUMPDEST PUSH1 0x0 PUSH2 0x1D8C DUP5 PUSH1 0x0 DUP2 MLOAD DUP2 LT PUSH2 0x249B JUMPI INVALID JUMPDEST PUSH1 0x20 MUL PUSH1 0x20 ADD ADD MLOAD DUP5 DUP7 PUSH1 0x1 DUP2 MLOAD DUP2 LT PUSH2 0x24B1 JUMPI INVALID JUMPDEST PUSH1 0x20 MUL PUSH1 0x20 ADD ADD MLOAD DUP6 PUSH2 0x3299 JUMP JUMPDEST PUSH1 0x0 PUSH32 0x0 PUSH1 0x1 PUSH1 0x1 PUSH1 0xA0 SHL SUB AND ISZERO PUSH2 0x258E JUMPI PUSH2 0x258B PUSH32 0x0 PUSH1 0x1 PUSH1 0x1 PUSH1 0xA0 SHL SUB AND PUSH4 0x679AEFCE PUSH1 0x40 MLOAD DUP2 PUSH4 0xFFFFFFFF AND PUSH1 0xE0 SHL DUP2 MSTORE PUSH1 0x4 ADD PUSH1 0x20 PUSH1 0x40 MLOAD DUP1 DUP4 SUB DUP2 DUP7 DUP1 EXTCODESIZE ISZERO DUP1 ISZERO PUSH2 0x254C JUMPI PUSH1 0x0 DUP1 REVERT JUMPDEST POP GAS STATICCALL ISZERO DUP1 ISZERO PUSH2 0x2560 JUMPI RETURNDATASIZE PUSH1 0x0 DUP1 RETURNDATACOPY RETURNDATASIZE PUSH1 0x0 REVERT JUMPDEST POP POP POP POP PUSH1 0x40 MLOAD RETURNDATASIZE PUSH1 0x1F NOT PUSH1 0x1F DUP3 ADD AND DUP3 ADD DUP1 PUSH1 0x40 MSTORE POP DUP2 ADD SWAP1 PUSH2 0x2584 SWAP2 SWAP1 PUSH2 0x4595 JUMP JUMPDEST DUP4 SWAP1 PUSH2 0x2BFF JUMP JUMPDEST SWAP2 POP JUMPDEST PUSH32 0x0 PUSH1 0x1 PUSH1 0x1 PUSH1 0xA0 SHL SUB AND ISZERO PUSH2 0x265B JUMPI PUSH2 0x2658 PUSH32 0x0 PUSH1 0x1 PUSH1 0x1 PUSH1 0xA0 SHL SUB AND PUSH4 0x679AEFCE PUSH1 0x40 MLOAD DUP2 PUSH4 0xFFFFFFFF AND PUSH1 0xE0 SHL DUP2 MSTORE PUSH1 0x4 ADD PUSH1 0x20 PUSH1 0x40 MLOAD DUP1 DUP4 SUB DUP2 DUP7 DUP1 EXTCODESIZE ISZERO DUP1 ISZERO PUSH2 0x2619 JUMPI PUSH1 0x0 DUP1 REVERT JUMPDEST POP GAS STATICCALL ISZERO DUP1 ISZERO PUSH2 0x262D JUMPI RETURNDATASIZE PUSH1 0x0 DUP1 RETURNDATACOPY RETURNDATASIZE PUSH1 0x0 REVERT JUMPDEST POP POP POP POP PUSH1 0x40 MLOAD RETURNDATASIZE PUSH1 0x1F NOT PUSH1 0x1F DUP3 ADD AND DUP3 ADD DUP1 PUSH1 0x40 MSTORE POP DUP2 ADD SWAP1 PUSH2 0x2651 SWAP2 SWAP1 PUSH2 0x4595 JUMP JUMPDEST DUP4 SWAP1 PUSH2 0x21A2 JUMP JUMPDEST SWAP2 POP JUMPDEST POP SWAP1 JUMP JUMPDEST PUSH1 0x0 DUP3 DUP3 MUL DUP4 ISZERO DUP1 PUSH2 0x2679 JUMPI POP DUP3 DUP5 DUP3 DUP2 PUSH2 0x2676 JUMPI INVALID JUMPDEST DIV EQ JUMPDEST PUSH2 0x2689 JUMPI PUSH2 0x2689 PUSH1 0x0 PUSH1 0x3 PUSH2 0x1A23 JUMP JUMPDEST DUP1 PUSH2 0x2698 JUMPI PUSH1 0x0 SWAP2 POP POP PUSH2 0x6E9 JUMP JUMPDEST PUSH8 0xDE0B6B3A7640000 PUSH1 0x0 NOT DUP3 ADD JUMPDEST DIV PUSH1 0x1 ADD SWAP2 POP POP SWAP3 SWAP2 POP POP JUMP JUMPDEST PUSH1 0x0 DUP3 DUP3 GT ISZERO PUSH2 0x1896 JUMPI PUSH2 0x1896 PUSH1 0x0 PUSH1 0x1 PUSH2 0x1A23 JUMP JUMPDEST PUSH1 0x0 PUSH2 0x26DD DUP6 DUP6 DUP9 PUSH1 0x60 ADD MLOAD DUP7 DUP7 PUSH2 0x32B2 JUMP JUMPDEST SWAP1 POP JUMPDEST SWAP6 SWAP5 POP POP POP POP POP JUMP JUMPDEST PUSH1 0x0 PUSH2 0x187F DUP4 DUP4 PUSH2 0x21A2 JUMP JUMPDEST PUSH1 0x0 PUSH2 0x26DD DUP6 DUP6 DUP9 PUSH1 0x60 ADD MLOAD DUP7 DUP7 PUSH2 0x331C JUMP JUMPDEST PUSH1 0x0 PUSH2 0x187F DUP4 DUP4 PUSH2 0x273A JUMP JUMPDEST PUSH1 0x0 PUSH8 0xDE0B6B3A7640000 DUP3 LT PUSH2 0x272C JUMPI PUSH1 0x0 PUSH2 0x6E9 JUMP JUMPDEST POP PUSH8 0xDE0B6B3A7640000 SUB SWAP1 JUMP JUMPDEST PUSH1 0x0 DUP2 PUSH2 0x274D JUMPI PUSH2 0x274D PUSH1 0x0 PUSH1 0x4 PUSH2 0x1A23 JUMP JUMPDEST DUP3 PUSH2 0x275A JUMPI POP PUSH1 0x0 PUSH2 0x6E9 JUMP JUMPDEST PUSH8 0xDE0B6B3A7640000 DUP4 DUP2 MUL SWAP1 DUP5 DUP3 DUP2 PUSH2 0x2770 JUMPI INVALID JUMPDEST DIV EQ PUSH2 0x2794 JUMPI PUSH2 0x2794 PUSH8 0xDE0B6B3A7640000 DUP6 DUP4 DUP2 PUSH2 0x278B JUMPI INVALID JUMPDEST DIV EQ PUSH1 0x5 PUSH2 0x1A23 JUMP JUMPDEST DUP3 PUSH1 0x1 DUP3 SUB DUP2 PUSH2 0x26A7 JUMPI INVALID JUMPDEST PUSH1 0x0 PUSH2 0x27AA PUSH2 0x1221 JUMP JUMPDEST PUSH1 0x1 PUSH1 0x1 PUSH1 0xA0 SHL SUB AND PUSH4 0xAAABADC5 PUSH1 0x40 MLOAD DUP2 PUSH4 0xFFFFFFFF AND PUSH1 0xE0 SHL DUP2 MSTORE PUSH1 0x4 ADD PUSH1 0x20 PUSH1 0x40 MLOAD DUP1 DUP4 SUB DUP2 DUP7 DUP1 EXTCODESIZE ISZERO DUP1 ISZERO PUSH2 0x27E2 JUMPI PUSH1 0x0 DUP1 REVERT JUMPDEST POP GAS STATICCALL ISZERO DUP1 ISZERO PUSH2 0x27F6 JUMPI RETURNDATASIZE PUSH1 0x0 DUP1 RETURNDATACOPY RETURNDATASIZE PUSH1 0x0 REVERT JUMPDEST POP POP POP POP PUSH1 0x40 MLOAD RETURNDATASIZE PUSH1 0x1F NOT PUSH1 0x1F DUP3 ADD AND DUP3 ADD DUP1 PUSH1 0x40 MSTORE POP DUP2 ADD SWAP1 PUSH2 0x86A SWAP2 SWAP1 PUSH2 0x4185 JUMP JUMPDEST PUSH1 0x0 DUP1 PUSH1 0x0 DUP1 PUSH1 0x0 PUSH2 0x282D DUP9 DUP9 DUP9 PUSH2 0x337C JUMP JUMPDEST SWAP4 POP SWAP4 POP SWAP4 POP SWAP4 POP PUSH2 0x2841 DUP5 DUP5 DUP5 DUP5 PUSH2 0x34D4 JUMP JUMPDEST SWAP9 SWAP8 POP POP POP POP POP POP POP POP JUMP JUMPDEST PUSH1 0x0 PUSH2 0x2857 PUSH2 0x1B19 JUMP JUMPDEST DUP3 PUSH1 0x40 MLOAD PUSH1 0x20 ADD DUP1 DUP1 PUSH2 0x1901 PUSH1 0xF0 SHL DUP2 MSTORE POP PUSH1 0x2 ADD DUP4 DUP2 MSTORE PUSH1 0x20 ADD DUP3 DUP2 MSTORE PUSH1 0x20 ADD SWAP3 POP POP POP PUSH1 0x40 MLOAD PUSH1 0x20 DUP2 DUP4 SUB SUB DUP2 MSTORE SWAP1 PUSH1 0x40 MSTORE DUP1 MLOAD SWAP1 PUSH1 0x20 ADD KECCAK256 SWAP1 POP SWAP2 SWAP1 POP JUMP JUMPDEST PUSH1 0x0 PUSH1 0x60 PUSH1 0x0 PUSH2 0x28A8 DUP5 PUSH2 0x3548 JUMP JUMPDEST SWAP1 POP PUSH2 0x28C3 PUSH1 0x0 DUP3 PUSH1 0x3 DUP2 GT ISZERO PUSH2 0x28BB JUMPI INVALID JUMPDEST EQ PUSH1 0xCE PUSH2 0x1A23 JUMP JUMPDEST PUSH1 0x0 PUSH2 0x28CE DUP6 PUSH2 0x3567 JUMP JUMPDEST SWAP1 POP PUSH2 0x28DC DUP2 MLOAD PUSH1 0x2 PUSH2 0x1EBC JUMP JUMPDEST PUSH2 0x28E5 DUP2 PUSH2 0x2246 JUMP JUMPDEST PUSH1 0x0 DUP1 PUSH1 0x0 PUSH2 0x28FA DUP5 PUSH1 0x0 DUP2 MLOAD DUP2 LT PUSH2 0x1362 JUMPI INVALID JUMPDEST SWAP3 POP SWAP3 POP SWAP3 POP PUSH1 0x0 PUSH2 0x290D DUP6 DUP5 DUP5 PUSH2 0x2489 JUMP JUMPDEST SWAP1 POP PUSH1 0x0 PUSH2 0x2955 PUSH2 0x293B DUP4 DUP9 PUSH1 0x0 DUP2 MLOAD DUP2 LT PUSH2 0x2925 JUMPI INVALID JUMPDEST PUSH1 0x20 MUL PUSH1 0x20 ADD ADD MLOAD PUSH2 0x2BFF SWAP1 SWAP2 SWAP1 PUSH4 0xFFFFFFFF AND JUMP JUMPDEST DUP8 PUSH1 0x1 DUP2 MLOAD DUP2 LT PUSH2 0x2948 JUMPI INVALID JUMPDEST PUSH1 0x20 MUL PUSH1 0x20 ADD ADD MLOAD PUSH2 0x1C55 JUMP JUMPDEST PUSH1 0x9 SWAP6 SWAP1 SWAP6 SSTORE POP SWAP3 SWAP12 SWAP4 SWAP11 POP SWAP3 SWAP9 POP POP POP POP POP POP POP POP POP JUMP JUMPDEST PUSH2 0x186D DUP3 DUP3 PUSH2 0x361B JUMP JUMPDEST PUSH1 0x1 PUSH1 0x1 PUSH1 0xA0 SHL SUB SWAP2 DUP3 AND PUSH1 0x0 SWAP1 DUP2 MSTORE PUSH1 0x1 PUSH1 0x20 SWAP1 DUP2 MSTORE PUSH1 0x40 DUP1 DUP4 KECCAK256 SWAP4 SWAP1 SWAP5 AND DUP3 MSTORE SWAP2 SWAP1 SWAP2 MSTORE KECCAK256 SLOAD SWAP1 JUMP JUMPDEST PUSH1 0x40 DUP1 MLOAD PUSH1 0x2 DUP1 DUP3 MSTORE PUSH1 0x60 DUP1 DUP4 ADD DUP5 MSTORE SWAP3 PUSH1 0x0 SWAP3 SWAP2 SWAP1 PUSH1 0x20 DUP4 ADD SWAP1 DUP1 CALLDATASIZE DUP4 CALLDATACOPY ADD SWAP1 POP POP SWAP1 POP PUSH2 0x29D2 PUSH1 0x1 PUSH2 0x36B0 JUMP JUMPDEST DUP2 PUSH1 0x0 DUP2 MLOAD DUP2 LT PUSH2 0x29DF JUMPI INVALID JUMPDEST PUSH1 0x20 MUL PUSH1 0x20 ADD ADD DUP2 DUP2 MSTORE POP POP PUSH2 0x29F5 PUSH1 0x0 PUSH2 0x36B0 JUMP JUMPDEST DUP2 PUSH1 0x1 DUP2 MLOAD DUP2 LT PUSH2 0x2A02 JUMPI INVALID JUMPDEST PUSH1 0x20 SWAP1 DUP2 MUL SWAP2 SWAP1 SWAP2 ADD ADD MSTORE SWAP1 POP SWAP1 JUMP JUMPDEST PUSH1 0x2 DUP2 MLOAD LT ISZERO PUSH2 0x2A21 JUMPI PUSH2 0x7B1 JUMP JUMPDEST PUSH1 0x0 DUP2 PUSH1 0x0 DUP2 MLOAD DUP2 LT PUSH2 0x2A30 JUMPI INVALID JUMPDEST PUSH1 0x20 MUL PUSH1 0x20 ADD ADD MLOAD SWAP1 POP PUSH1 0x0 PUSH1 0x1 SWAP1 POP JUMPDEST DUP3 MLOAD DUP2 LT ISZERO PUSH2 0x2A8B JUMPI PUSH1 0x0 DUP4 DUP3 DUP2 MLOAD DUP2 LT PUSH2 0x2A58 JUMPI INVALID JUMPDEST PUSH1 0x20 MUL PUSH1 0x20 ADD ADD MLOAD SWAP1 POP PUSH2 0x2A81 DUP2 PUSH1 0x1 PUSH1 0x1 PUSH1 0xA0 SHL SUB AND DUP5 PUSH1 0x1 PUSH1 0x1 PUSH1 0xA0 SHL SUB AND LT PUSH1 0x65 PUSH2 0x1A23 JUMP JUMPDEST SWAP2 POP PUSH1 0x1 ADD PUSH2 0x2A41 JUMP JUMPDEST POP POP POP JUMP JUMPDEST PUSH1 0x0 PUSH20 0xBA1BA1BA1BA1BA1BA1BA1BA1BA1BA1BA1BA1BA1B PUSH2 0x2AAF PUSH2 0x11FD JUMP JUMPDEST PUSH1 0x1 PUSH1 0x1 PUSH1 0xA0 SHL SUB AND EQ ISZERO DUP1 ISZERO PUSH2 0x2ACA JUMPI POP PUSH2 0x2ACA DUP4 PUSH2 0x3704 JUMP JUMPDEST ISZERO PUSH2 0x2AF2 JUMPI PUSH2 0x2AD7 PUSH2 0x11FD JUMP JUMPDEST PUSH1 0x1 PUSH1 0x1 PUSH1 0xA0 SHL SUB AND CALLER PUSH1 0x1 PUSH1 0x1 PUSH1 0xA0 SHL SUB AND EQ SWAP1 POP PUSH2 0x6E9 JUMP JUMPDEST PUSH2 0x2AFA PUSH2 0x27A0 JUMP JUMPDEST PUSH1 0x1 PUSH1 0x1 PUSH1 0xA0 SHL SUB AND PUSH4 0x9BE2A884 DUP5 DUP5 ADDRESS PUSH1 0x40 MLOAD DUP5 PUSH4 0xFFFFFFFF AND PUSH1 0xE0 SHL DUP2 MSTORE PUSH1 0x4 ADD DUP1 DUP5 DUP2 MSTORE PUSH1 0x20 ADD DUP4 PUSH1 0x1 PUSH1 0x1 PUSH1 0xA0 SHL SUB AND DUP2 MSTORE PUSH1 0x20 ADD DUP3 PUSH1 0x1 PUSH1 0x1 PUSH1 0xA0 SHL SUB AND DUP2 MSTORE PUSH1 0x20 ADD SWAP4 POP POP POP POP PUSH1 0x20 PUSH1 0x40 MLOAD DUP1 DUP4 SUB DUP2 DUP7 DUP1 EXTCODESIZE ISZERO DUP1 ISZERO PUSH2 0x2B5F JUMPI PUSH1 0x0 DUP1 REVERT JUMPDEST POP GAS STATICCALL ISZERO DUP1 ISZERO PUSH2 0x2B73 JUMPI RETURNDATASIZE PUSH1 0x0 DUP1 RETURNDATACOPY RETURNDATASIZE PUSH1 0x0 REVERT JUMPDEST POP POP POP POP PUSH1 0x40 MLOAD RETURNDATASIZE PUSH1 0x20 DUP2 LT ISZERO PUSH2 0x2B89 JUMPI PUSH1 0x0 DUP1 REVERT JUMPDEST POP MLOAD SWAP1 POP PUSH2 0x6E9 JUMP JUMPDEST PUSH3 0x461BCD PUSH1 0xE5 SHL PUSH1 0x0 SWAP1 DUP2 MSTORE PUSH1 0x20 PUSH1 0x4 MSTORE PUSH1 0x7 PUSH1 0x24 MSTORE PUSH7 0x42414C23000030 PUSH1 0xA DUP1 DUP5 DIV DUP2 DUP2 MOD PUSH1 0x30 SWAP1 DUP2 ADD PUSH1 0x8 SHL SWAP6 DUP4 SWAP1 MOD SWAP6 SWAP1 SWAP6 ADD SWAP1 DUP3 SWAP1 DIV SWAP2 DUP3 MOD SWAP1 SWAP5 ADD PUSH1 0x10 SHL SWAP4 SWAP1 SWAP4 ADD ADD PUSH1 0xC8 SHL PUSH1 0x44 MSTORE PUSH1 0x64 SWAP1 REVERT JUMPDEST PUSH1 0x0 PUSH2 0x2BF4 DUP5 DUP5 GT ISZERO DUP4 PUSH2 0x1A23 JUMP JUMPDEST POP POP SWAP1 SUB SWAP1 JUMP JUMPDEST CHAINID SWAP1 JUMP JUMPDEST PUSH1 0x0 DUP3 DUP3 MUL DUP4 ISZERO DUP1 PUSH2 0x2C19 JUMPI POP DUP3 DUP5 DUP3 DUP2 PUSH2 0x2C16 JUMPI INVALID JUMPDEST DIV EQ JUMPDEST PUSH2 0x2C29 JUMPI PUSH2 0x2C29 PUSH1 0x0 PUSH1 0x3 PUSH2 0x1A23 JUMP JUMPDEST PUSH8 0xDE0B6B3A7640000 DUP2 PUSH2 0x21F3 JUMP JUMPDEST PUSH2 0x2C40 PUSH2 0x40BC JUMP JUMPDEST PUSH2 0x2C53 PUSH1 0x1 DUP5 DUP2 JUMPDEST PUSH1 0x20 MUL ADD MLOAD DUP5 PUSH2 0x3736 JUMP JUMPDEST DUP2 MSTORE PUSH2 0x2C61 PUSH1 0x0 DUP5 DUP2 PUSH2 0x2C48 JUMP JUMPDEST PUSH1 0x20 DUP3 ADD MSTORE SWAP3 SWAP2 POP POP JUMP JUMPDEST PUSH1 0x0 DUP3 DUP3 SHR PUSH3 0x3FFFFF AND PUSH3 0x1FFFFF DUP2 SGT PUSH2 0x2C86 JUMPI DUP1 PUSH2 0x1D8C JUMP JUMPDEST PUSH3 0x3FFFFF NOT OR SWAP4 SWAP3 POP POP POP JUMP JUMPDEST SHR PUSH4 0x7FFFFFFF AND SWAP1 JUMP JUMPDEST SHR PUSH2 0x3FF AND SWAP1 JUMP JUMPDEST SHR PUSH1 0x1 SWAP1 DUP2 AND EQ SWAP1 JUMP JUMPDEST SHR PUSH8 0xFFFFFFFFFFFFFFFF AND SWAP1 JUMP JUMPDEST PUSH1 0x0 DUP1 PUSH1 0x0 DUP1 PUSH2 0x2CCF PUSH1 0x9 SLOAD DUP7 PUSH2 0x2121 JUMP JUMPDEST SWAP4 POP SWAP4 POP SWAP4 POP SWAP4 POP PUSH2 0x2CE3 DUP5 DUP5 DUP5 DUP5 PUSH2 0x3756 JUMP JUMPDEST POP POP POP POP POP JUMP JUMPDEST PUSH1 0x0 PUSH1 0x60 PUSH1 0x0 PUSH2 0x2CF9 DUP5 PUSH2 0x3548 JUMP JUMPDEST SWAP1 POP PUSH1 0x1 DUP2 PUSH1 0x3 DUP2 GT ISZERO PUSH2 0x2D09 JUMPI INVALID JUMPDEST EQ ISZERO PUSH2 0x2D23 JUMPI PUSH2 0x2D19 DUP6 DUP6 PUSH2 0x377C JUMP JUMPDEST SWAP1 SWAP4 POP SWAP2 POP PUSH2 0x2D2E JUMP JUMPDEST PUSH2 0x2D2E PUSH2 0x150 PUSH2 0x2B92 JUMP JUMPDEST POP SWAP3 POP SWAP3 SWAP1 POP JUMP JUMPDEST PUSH1 0x0 DUP2 ISZERO PUSH2 0x2D68 JUMPI PUSH1 0x0 PUSH2 0x2D54 DUP5 PUSH2 0x2D4E DUP9 DUP9 PUSH2 0x265F JUMP JUMPDEST SWAP1 PUSH2 0x273A JUMP JUMPDEST SWAP1 POP PUSH2 0x2D60 DUP7 DUP3 PUSH2 0x218A JUMP JUMPDEST SWAP2 POP POP PUSH2 0x1D8C JUMP JUMPDEST PUSH1 0x0 PUSH2 0x2D78 DUP5 PUSH2 0xBC1 DUP9 DUP9 PUSH2 0x2BFF JUMP JUMPDEST SWAP1 POP PUSH2 0x2D84 DUP7 DUP3 PUSH2 0x26B4 JUMP JUMPDEST SWAP7 SWAP6 POP POP POP POP POP POP JUMP JUMPDEST PUSH1 0xD SLOAD PUSH1 0x0 SWAP1 DUP2 SWAP1 DUP2 SWAP1 DUP2 SWAP1 PUSH2 0x2DB5 SWAP1 PUSH1 0x1 PUSH1 0x1 PUSH1 0xA0 SHL SUB AND ADDRESS PUSH4 0x32434C5 PUSH1 0xE4 SHL PUSH2 0x37AE JUMP JUMPDEST PUSH1 0xD SLOAD PUSH2 0x2DD3 SWAP1 PUSH1 0x1 PUSH1 0x1 PUSH1 0xA0 SHL SUB AND ADDRESS PUSH4 0x32434C5 PUSH1 0xE4 SHL PUSH2 0x37D5 JUMP JUMPDEST PUSH1 0xD SLOAD PUSH1 0x40 MLOAD PUSH4 0x21F8A721 PUSH1 0xE0 SHL DUP2 MSTORE PUSH1 0x1 PUSH1 0x1 PUSH1 0xA0 SHL SUB SWAP1 SWAP2 AND SWAP1 PUSH4 0x21F8A721 SWAP1 PUSH2 0x2E13 SWAP1 PUSH13 0x4759524F5F5452454153555259 PUSH1 0x98 SHL SWAP1 PUSH1 0x4 ADD PUSH2 0x470B JUMP JUMPDEST PUSH1 0x20 PUSH1 0x40 MLOAD DUP1 DUP4 SUB DUP2 DUP7 DUP1 EXTCODESIZE ISZERO DUP1 ISZERO PUSH2 0x2E2B JUMPI PUSH1 0x0 DUP1 REVERT JUMPDEST POP GAS STATICCALL ISZERO DUP1 ISZERO PUSH2 0x2E3F JUMPI RETURNDATASIZE PUSH1 0x0 DUP1 RETURNDATACOPY RETURNDATASIZE PUSH1 0x0 REVERT JUMPDEST POP POP POP POP PUSH1 0x40 MLOAD RETURNDATASIZE PUSH1 0x1F NOT PUSH1 0x1F DUP3 ADD AND DUP3 ADD DUP1 PUSH1 0x40 MSTORE POP DUP2 ADD SWAP1 PUSH2 0x2E63 SWAP2 SWAP1 PUSH2 0x4185 JUMP JUMPDEST PUSH1 0xD SLOAD PUSH1 0x40 MLOAD PUSH4 0x21F8A721 PUSH1 0xE0 SHL DUP2 MSTORE PUSH1 0x1 PUSH1 0x1 PUSH1 0xA0 SHL SUB SWAP1 SWAP2 AND SWAP1 PUSH4 0x21F8A721 SWAP1 PUSH2 0x2EA2 SWAP1 PUSH12 0x42414C5F5452454153555259 PUSH1 0xA0 SHL SWAP1 PUSH1 0x4 ADD PUSH2 0x470B JUMP JUMPDEST PUSH1 0x20 PUSH1 0x40 MLOAD DUP1 DUP4 SUB DUP2 DUP7 DUP1 EXTCODESIZE ISZERO DUP1 ISZERO PUSH2 0x2EBA JUMPI PUSH1 0x0 DUP1 REVERT JUMPDEST POP GAS STATICCALL ISZERO DUP1 ISZERO PUSH2 0x2ECE JUMPI RETURNDATASIZE PUSH1 0x0 DUP1 RETURNDATACOPY RETURNDATASIZE PUSH1 0x0 REVERT JUMPDEST POP POP POP POP PUSH1 0x40 MLOAD RETURNDATASIZE PUSH1 0x1F NOT PUSH1 0x1F DUP3 ADD AND DUP3 ADD DUP1 PUSH1 0x40 MSTORE POP DUP2 ADD SWAP1 PUSH2 0x2EF2 SWAP2 SWAP1 PUSH2 0x4185 JUMP JUMPDEST SWAP4 POP SWAP4 POP SWAP4 POP SWAP4 POP SWAP1 SWAP2 SWAP3 SWAP4 JUMP JUMPDEST PUSH1 0x0 DUP1 DUP7 DUP7 GT PUSH2 0x2F15 JUMPI POP PUSH1 0x0 SWAP1 POP DUP1 PUSH2 0x2F91 JUMP JUMPDEST PUSH1 0x0 PUSH2 0x2F35 DUP6 PUSH2 0x2F2F PUSH2 0x2F28 DUP11 DUP13 PUSH2 0x26B4 JUMP JUMPDEST DUP10 SWAP1 PUSH2 0x2BFF JUMP JUMPDEST SWAP1 PUSH2 0x2BFF JUMP JUMPDEST SWAP1 POP PUSH1 0x0 PUSH2 0x2F4D PUSH2 0x2F46 DUP10 DUP12 PUSH2 0x26B4 JUMP JUMPDEST DUP8 SWAP1 PUSH2 0x2BFF JUMP JUMPDEST SWAP1 POP PUSH1 0x0 PUSH2 0x2F5B DUP10 DUP4 PUSH2 0x26B4 JUMP JUMPDEST SWAP1 POP PUSH1 0x0 PUSH2 0x2F69 DUP5 DUP4 PUSH2 0x21A2 JUMP JUMPDEST SWAP1 POP PUSH1 0x0 PUSH2 0x2F77 DUP9 DUP4 PUSH2 0x2BFF JUMP JUMPDEST SWAP1 POP PUSH1 0x0 PUSH2 0x2F85 DUP4 DUP4 PUSH2 0x26B4 JUMP JUMPDEST SWAP2 SWAP8 POP SWAP1 SWAP6 POP POP POP POP POP POP JUMPDEST SWAP6 POP SWAP6 SWAP4 POP POP POP POP JUMP JUMPDEST PUSH1 0x0 DUP2 PUSH2 0x2FC8 JUMPI PUSH32 0x0 PUSH2 0x6E9 JUMP JUMPDEST POP PUSH32 0x0 SWAP2 SWAP1 POP JUMP JUMPDEST PUSH2 0x3006 PUSH1 0x1 PUSH1 0x1 PUSH1 0xA0 SHL SUB DUP4 AND ISZERO ISZERO PUSH2 0x19B PUSH2 0x1A23 JUMP JUMPDEST PUSH2 0x3012 DUP3 PUSH1 0x0 DUP4 PUSH2 0x2A8B JUMP JUMPDEST PUSH1 0x1 PUSH1 0x1 PUSH1 0xA0 SHL SUB DUP3 AND PUSH1 0x0 SWAP1 DUP2 MSTORE PUSH1 0x20 DUP2 SWAP1 MSTORE PUSH1 0x40 SWAP1 KECCAK256 SLOAD PUSH2 0x3038 SWAP1 DUP3 PUSH2 0x1A1 PUSH2 0x2BE5 JUMP JUMPDEST PUSH1 0x1 PUSH1 0x1 PUSH1 0xA0 SHL SUB DUP4 AND PUSH1 0x0 SWAP1 DUP2 MSTORE PUSH1 0x20 DUP2 SWAP1 MSTORE PUSH1 0x40 SWAP1 KECCAK256 SSTORE PUSH1 0x2 SLOAD PUSH2 0x305E SWAP1 DUP3 PUSH2 0x3803 JUMP JUMPDEST PUSH1 0x2 SSTORE PUSH1 0x40 DUP1 MLOAD DUP3 DUP2 MSTORE SWAP1 MLOAD PUSH1 0x0 SWAP2 PUSH1 0x1 PUSH1 0x1 PUSH1 0xA0 SHL SUB DUP6 AND SWAP2 PUSH32 0xDDF252AD1BE2C89B69C2B068FC378DAA952BA7F163C4A11628F55A4DF523B3EF SWAP2 DUP2 SWAP1 SUB PUSH1 0x20 ADD SWAP1 LOG3 POP POP JUMP JUMPDEST PUSH1 0x0 PUSH1 0x60 PUSH1 0x0 PUSH2 0x30B5 DUP5 PUSH2 0x3548 JUMP JUMPDEST SWAP1 POP PUSH1 0x3 DUP2 PUSH1 0x3 DUP2 GT ISZERO PUSH2 0x30C5 JUMPI INVALID JUMPDEST EQ ISZERO PUSH2 0x30D5 JUMPI PUSH2 0x2D19 DUP6 DUP6 PUSH2 0x3811 JUMP JUMPDEST PUSH2 0x2D2E PUSH2 0x136 PUSH2 0x2B92 JUMP JUMPDEST PUSH1 0x40 DUP1 MLOAD PUSH1 0x60 DUP2 ADD DUP3 MSTORE PUSH1 0xA SLOAD PUSH1 0xFF DUP2 AND ISZERO ISZERO DUP3 MSTORE PUSH2 0x100 DUP2 DIV PUSH1 0x1 PUSH1 0x1 PUSH1 0x78 SHL SUB AND PUSH1 0x20 DUP4 ADD DUP2 SWAP1 MSTORE PUSH1 0x1 PUSH1 0x80 SHL SWAP1 SWAP2 DIV PUSH1 0x1 PUSH1 0x1 PUSH1 0x80 SHL SUB AND SWAP3 DUP3 ADD SWAP3 SWAP1 SWAP3 MSTORE SWAP1 PUSH2 0x312D DUP6 DUP6 PUSH2 0x218A JUMP JUMPDEST GT ISZERO PUSH1 0x40 MLOAD DUP1 PUSH1 0x40 ADD PUSH1 0x40 MSTORE DUP1 PUSH1 0x1A DUP2 MSTORE PUSH1 0x20 ADD PUSH32 0x6F7665722061646472657373206C697175696469747920636170000000000000 DUP2 MSTORE POP SWAP1 PUSH2 0x3183 JUMPI PUSH1 0x40 MLOAD PUSH3 0x461BCD PUSH1 0xE5 SHL DUP2 MSTORE PUSH1 0x4 ADD PUSH2 0x740 SWAP2 SWAP1 PUSH2 0x4755 JUMP JUMPDEST POP PUSH1 0x40 DUP2 ADD MLOAD PUSH1 0x1 PUSH1 0x1 PUSH1 0x80 SHL SUB AND PUSH2 0x319C DUP6 DUP5 PUSH2 0x218A JUMP JUMPDEST GT ISZERO PUSH1 0x40 MLOAD DUP1 PUSH1 0x40 ADD PUSH1 0x40 MSTORE DUP1 PUSH1 0x19 DUP2 MSTORE PUSH1 0x20 ADD PUSH32 0x6F76657220676C6F62616C206C69717569646974792063617000000000000000 DUP2 MSTORE POP SWAP1 PUSH2 0x2CE3 JUMPI PUSH1 0x40 MLOAD PUSH3 0x461BCD PUSH1 0xE5 SHL DUP2 MSTORE PUSH1 0x4 ADD PUSH2 0x740 SWAP2 SWAP1 PUSH2 0x4755 JUMP JUMPDEST PUSH1 0x0 DUP1 PUSH1 0x0 PUSH2 0x31FF PUSH2 0x1221 JUMP JUMPDEST PUSH1 0x1 PUSH1 0x1 PUSH1 0xA0 SHL SUB AND PUSH4 0xB05F8E48 PUSH2 0x3215 PUSH2 0x888 JUMP JUMPDEST DUP8 PUSH1 0x40 MLOAD DUP4 PUSH4 0xFFFFFFFF AND PUSH1 0xE0 SHL DUP2 MSTORE PUSH1 0x4 ADD PUSH2 0x3233 SWAP3 SWAP2 SWAP1 PUSH2 0x4714 JUMP JUMPDEST PUSH1 0x80 PUSH1 0x40 MLOAD DUP1 DUP4 SUB DUP2 DUP7 DUP1 EXTCODESIZE ISZERO DUP1 ISZERO PUSH2 0x324B JUMPI PUSH1 0x0 DUP1 REVERT JUMPDEST POP GAS STATICCALL ISZERO DUP1 ISZERO PUSH2 0x325F JUMPI RETURNDATASIZE PUSH1 0x0 DUP1 RETURNDATACOPY RETURNDATASIZE PUSH1 0x0 REVERT JUMPDEST POP POP POP POP PUSH1 0x40 MLOAD RETURNDATASIZE PUSH1 0x1F NOT PUSH1 0x1F DUP3 ADD AND DUP3 ADD DUP1 PUSH1 0x40 MSTORE POP DUP2 ADD SWAP1 PUSH2 0x3283 SWAP2 SWAP1 PUSH2 0x45E1 JUMP JUMPDEST POP POP DUP2 DUP2 ADD SWAP5 POP SWAP1 SWAP3 POP SWAP1 POP PUSH2 0x26E0 DUP4 DUP6 PUSH2 0x2BFF JUMP JUMPDEST PUSH1 0x0 PUSH2 0x26E0 PUSH2 0x32A8 DUP7 DUP7 PUSH2 0x218A JUMP JUMPDEST PUSH2 0x2D4E DUP6 DUP6 PUSH2 0x218A JUMP JUMPDEST PUSH1 0x0 DUP1 PUSH2 0x32D1 PUSH2 0x32CA DUP6 PUSH8 0xDE0B6B3A7640002 PUSH2 0x265F JUMP JUMPDEST DUP9 SWAP1 PUSH2 0x218A JUMP JUMPDEST SWAP1 POP PUSH1 0x0 PUSH2 0x32EA PUSH2 0x32CA DUP6 PUSH8 0xDE0B6B3A763FFFF PUSH2 0x2BFF JUMP JUMPDEST SWAP1 POP PUSH2 0x3303 PUSH2 0x32F9 DUP4 DUP9 PUSH2 0x218A JUMP JUMPDEST PUSH2 0xBC1 DUP4 DUP10 PUSH2 0x2BFF JUMP JUMPDEST SWAP3 POP POP POP DUP5 DUP2 GT ISZERO PUSH2 0x26E0 JUMPI PUSH2 0x26E0 PUSH1 0x0 PUSH2 0x165 PUSH2 0x3836 JUMP JUMPDEST PUSH1 0x0 DUP5 DUP5 GT ISZERO PUSH2 0x3333 JUMPI PUSH2 0x3333 PUSH1 0x0 PUSH2 0x165 PUSH2 0x3836 JUMP JUMPDEST PUSH1 0x0 PUSH2 0x334A PUSH2 0x32CA DUP6 PUSH8 0xDE0B6B3A7640002 PUSH2 0x265F JUMP JUMPDEST SWAP1 POP PUSH1 0x0 PUSH2 0x3363 PUSH2 0x32CA DUP6 PUSH8 0xDE0B6B3A763FFFF PUSH2 0x2BFF JUMP JUMPDEST SWAP1 POP PUSH2 0x2841 PUSH2 0x3372 DUP3 DUP9 PUSH2 0x26B4 JUMP JUMPDEST PUSH2 0x2D4E DUP5 DUP10 PUSH2 0x265F JUMP JUMPDEST PUSH1 0x0 DUP1 DUP1 DUP1 PUSH2 0x339D PUSH2 0x338E DUP8 DUP8 PUSH2 0x21A2 JUMP JUMPDEST PUSH8 0xDE0B6B3A7640000 SWAP1 PUSH2 0x26B4 JUMP JUMPDEST SWAP4 POP PUSH1 0x0 PUSH2 0x33C8 DUP7 DUP10 PUSH1 0x1 DUP2 MLOAD DUP2 LT PUSH2 0x33B2 JUMPI INVALID JUMPDEST PUSH1 0x20 MUL PUSH1 0x20 ADD ADD MLOAD PUSH2 0x21A2 SWAP1 SWAP2 SWAP1 PUSH4 0xFFFFFFFF AND JUMP JUMPDEST SWAP1 POP PUSH1 0x0 PUSH2 0x33DD DUP9 DUP11 PUSH1 0x0 DUP2 MLOAD DUP2 LT PUSH2 0x2925 JUMPI INVALID JUMPDEST SWAP1 POP PUSH2 0x33E9 DUP3 DUP3 PUSH2 0x218A JUMP JUMPDEST SWAP5 POP PUSH2 0x3410 DUP10 PUSH1 0x1 DUP2 MLOAD DUP2 LT PUSH2 0x33FB JUMPI INVALID JUMPDEST PUSH1 0x20 MUL PUSH1 0x20 ADD ADD MLOAD DUP11 PUSH1 0x0 DUP2 MLOAD DUP2 LT PUSH2 0x2925 JUMPI INVALID JUMPDEST SWAP3 POP POP POP PUSH2 0x3441 DUP7 PUSH2 0x2F2F DUP9 PUSH2 0x2F2F DUP12 PUSH1 0x0 DUP2 MLOAD DUP2 LT PUSH2 0x342C JUMPI INVALID JUMPDEST PUSH1 0x20 MUL PUSH1 0x20 ADD ADD MLOAD DUP13 PUSH1 0x0 DUP2 MLOAD DUP2 LT PUSH2 0x2925 JUMPI INVALID JUMPDEST SWAP2 POP PUSH1 0x0 PUSH2 0x3481 DUP7 PUSH2 0xBC1 DUP10 PUSH2 0x2F2F PUSH8 0xDE0B6B3A7640000 PUSH1 0x2 MUL PUSH2 0x2F2F DUP15 PUSH1 0x1 DUP2 MLOAD DUP2 LT PUSH2 0x346C JUMPI INVALID JUMPDEST PUSH1 0x20 MUL PUSH1 0x20 ADD ADD MLOAD DUP16 PUSH1 0x0 DUP2 MLOAD DUP2 LT PUSH2 0x2925 JUMPI INVALID JUMPDEST SWAP1 POP PUSH1 0x0 PUSH2 0x34B7 PUSH2 0x3492 DUP9 DUP1 PUSH2 0x265F JUMP JUMPDEST PUSH2 0xBC1 DUP12 PUSH1 0x1 DUP2 MLOAD DUP2 LT PUSH2 0x34A2 JUMPI INVALID JUMPDEST PUSH1 0x20 MUL PUSH1 0x20 ADD ADD MLOAD DUP13 PUSH1 0x1 DUP2 MLOAD DUP2 LT PUSH2 0x2925 JUMPI INVALID JUMPDEST SWAP1 POP PUSH2 0x34C7 DUP2 PUSH2 0xB62 DUP7 DUP6 PUSH2 0x218A JUMP JUMPDEST SWAP4 POP POP POP SWAP4 POP SWAP4 POP SWAP4 POP SWAP4 JUMP JUMPDEST PUSH1 0x0 DUP1 PUSH2 0x34E9 DUP7 PUSH8 0x1BC16D674EC80000 PUSH2 0x265F JUMP JUMPDEST SWAP1 POP PUSH1 0x0 PUSH2 0x3503 DUP8 PUSH2 0x2F2F DUP7 PUSH8 0x3782DACE9D900000 PUSH2 0x2BFF JUMP JUMPDEST SWAP1 POP PUSH1 0x0 PUSH2 0x3511 DUP7 DUP4 PUSH2 0x218A JUMP JUMPDEST SWAP1 POP PUSH1 0x0 PUSH2 0x3520 DUP3 PUSH1 0x5 PUSH2 0x3844 JUMP JUMPDEST SWAP1 POP PUSH1 0x0 PUSH2 0x352E DUP10 DUP4 PUSH2 0x218A JUMP JUMPDEST SWAP1 POP PUSH2 0x353A DUP2 DUP7 PUSH2 0x21A2 JUMP JUMPDEST SWAP11 SWAP10 POP POP POP POP POP POP POP POP POP POP JUMP JUMPDEST PUSH1 0x0 DUP2 DUP1 PUSH1 0x20 ADD SWAP1 MLOAD PUSH1 0x20 DUP2 LT ISZERO PUSH2 0x355F JUMPI PUSH1 0x0 DUP1 REVERT JUMPDEST POP MLOAD SWAP3 SWAP2 POP POP JUMP JUMPDEST PUSH1 0x60 DUP2 DUP1 PUSH1 0x20 ADD SWAP1 MLOAD PUSH1 0x40 DUP2 LT ISZERO PUSH2 0x357E JUMPI PUSH1 0x0 DUP1 REVERT JUMPDEST DUP2 MLOAD PUSH1 0x20 DUP4 ADD DUP1 MLOAD PUSH1 0x40 MLOAD SWAP3 SWAP5 SWAP3 SWAP4 DUP4 ADD SWAP3 SWAP2 SWAP1 DUP5 PUSH5 0x100000000 DUP3 GT ISZERO PUSH2 0x35A5 JUMPI PUSH1 0x0 DUP1 REVERT JUMPDEST SWAP1 DUP4 ADD SWAP1 PUSH1 0x20 DUP3 ADD DUP6 DUP2 GT ISZERO PUSH2 0x35BA JUMPI PUSH1 0x0 DUP1 REVERT JUMPDEST DUP3 MLOAD DUP7 PUSH1 0x20 DUP3 MUL DUP4 ADD GT PUSH5 0x100000000 DUP3 GT OR ISZERO PUSH2 0x35D7 JUMPI PUSH1 0x0 DUP1 REVERT JUMPDEST DUP3 MSTORE POP DUP2 MLOAD PUSH1 0x20 SWAP2 DUP3 ADD SWAP3 DUP3 ADD SWAP2 MUL DUP1 DUP4 DUP4 PUSH1 0x0 JUMPDEST DUP4 DUP2 LT ISZERO PUSH2 0x3604 JUMPI DUP2 DUP2 ADD MLOAD DUP4 DUP3 ADD MSTORE PUSH1 0x20 ADD PUSH2 0x35EC JUMP JUMPDEST POP POP POP POP SWAP2 SWAP1 SWAP2 ADD PUSH1 0x40 MSTORE POP SWAP3 SWAP7 SWAP6 POP POP POP POP POP POP JUMP JUMPDEST PUSH2 0x3627 PUSH1 0x0 DUP4 DUP4 PUSH2 0x2A8B JUMP JUMPDEST PUSH1 0x2 SLOAD PUSH2 0x3634 SWAP1 DUP3 PUSH2 0x1C55 JUMP JUMPDEST PUSH1 0x2 SSTORE PUSH1 0x1 PUSH1 0x1 PUSH1 0xA0 SHL SUB DUP3 AND PUSH1 0x0 SWAP1 DUP2 MSTORE PUSH1 0x20 DUP2 SWAP1 MSTORE PUSH1 0x40 SWAP1 KECCAK256 SLOAD PUSH2 0x365A SWAP1 DUP3 PUSH2 0x1C55 JUMP JUMPDEST PUSH1 0x1 PUSH1 0x1 PUSH1 0xA0 SHL SUB DUP4 AND PUSH1 0x0 DUP2 DUP2 MSTORE PUSH1 0x20 DUP2 DUP2 MSTORE PUSH1 0x40 DUP1 DUP4 KECCAK256 SWAP5 SWAP1 SWAP5 SSTORE DUP4 MLOAD DUP6 DUP2 MSTORE SWAP4 MLOAD SWAP3 SWAP4 SWAP2 SWAP3 PUSH32 0xDDF252AD1BE2C89B69C2B068FC378DAA952BA7F163C4A11628F55A4DF523B3EF SWAP3 DUP2 SWAP1 SUB SWAP1 SWAP2 ADD SWAP1 LOG3 POP POP JUMP JUMPDEST PUSH1 0x0 DUP2 PUSH2 0x36DD JUMPI PUSH32 0x0 PUSH2 0x6E9 JUMP JUMPDEST POP PUSH32 0x0 SWAP2 SWAP1 POP JUMP JUMPDEST PUSH1 0x0 PUSH2 0x3716 PUSH4 0x1C74C917 PUSH1 0xE1 SHL PUSH2 0x113E JUMP JUMPDEST DUP3 EQ DUP1 PUSH2 0x6E9 JUMPI POP PUSH2 0x372E PUSH4 0x50DD6ED9 PUSH1 0xE0 SHL PUSH2 0x113E JUMP JUMPDEST SWAP1 SWAP2 EQ SWAP2 SWAP1 POP JUMP JUMPDEST PUSH1 0x0 DUP4 PUSH2 0x374C JUMPI PUSH2 0x3747 DUP3 DUP5 PUSH2 0x1D94 JUMP JUMPDEST PUSH2 0x1D8C JUMP JUMPDEST PUSH2 0x1D8C DUP3 DUP5 PUSH2 0x26E9 JUMP JUMPDEST DUP4 ISZERO PUSH2 0x3766 JUMPI PUSH2 0x3766 DUP3 DUP6 PUSH2 0x296E JUMP JUMPDEST DUP3 ISZERO PUSH2 0x3776 JUMPI PUSH2 0x3776 DUP2 DUP5 PUSH2 0x296E JUMP JUMPDEST POP POP POP POP JUMP JUMPDEST PUSH1 0x0 PUSH1 0x60 PUSH1 0x0 PUSH2 0x378B DUP5 PUSH2 0x39D2 JUMP JUMPDEST SWAP1 POP PUSH1 0x0 PUSH2 0x37A1 DUP7 DUP4 PUSH2 0x379C PUSH2 0x7B4 JUMP JUMPDEST PUSH2 0x39F4 JUMP JUMPDEST SWAP2 SWAP7 SWAP2 SWAP6 POP SWAP1 SWAP4 POP POP POP POP JUMP JUMPDEST PUSH1 0x0 PUSH2 0x1D8C DUP5 PUSH22 0x50524F544F434F4C5F535741505F4645455F50455243 PUSH1 0x50 SHL DUP5 DUP7 PUSH2 0x3A7A JUMP JUMPDEST PUSH1 0x0 PUSH2 0x1D8C DUP5 PUSH32 0x50524F544F434F4C5F4645455F4759524F5F504F5254494F4E00000000000000 DUP5 DUP7 PUSH2 0x3A7A JUMP JUMPDEST PUSH1 0x0 PUSH2 0x187F DUP4 DUP4 PUSH1 0x1 PUSH2 0x2BE5 JUMP JUMPDEST PUSH1 0x0 PUSH1 0x60 PUSH1 0x0 PUSH2 0x3820 DUP5 PUSH2 0x39D2 JUMP JUMPDEST SWAP1 POP PUSH1 0x0 PUSH2 0x37A1 DUP7 DUP4 PUSH2 0x3831 PUSH2 0x7B4 JUMP JUMPDEST PUSH2 0x3D27 JUMP JUMPDEST DUP2 PUSH2 0x186D JUMPI PUSH2 0x186D DUP2 PUSH2 0x3DC3 JUMP JUMPDEST PUSH1 0x0 DUP3 PUSH2 0x3853 JUMPI POP PUSH1 0x0 PUSH2 0x6E9 JUMP JUMPDEST PUSH1 0x0 PUSH2 0x385E DUP5 PUSH2 0x3DD3 JUMP JUMPDEST SWAP1 POP PUSH1 0x2 DUP2 PUSH8 0xDE0B6B3A7640000 DUP7 MUL DUP2 PUSH2 0x3875 JUMPI INVALID JUMPDEST DIV DUP3 ADD DUP2 PUSH2 0x387F JUMPI INVALID JUMPDEST DIV SWAP1 POP PUSH1 0x2 DUP2 PUSH8 0xDE0B6B3A7640000 DUP7 MUL DUP2 PUSH2 0x3897 JUMPI INVALID JUMPDEST DIV DUP3 ADD DUP2 PUSH2 0x38A1 JUMPI INVALID JUMPDEST DIV SWAP1 POP PUSH1 0x2 DUP2 PUSH8 0xDE0B6B3A7640000 DUP7 MUL DUP2 PUSH2 0x38B9 JUMPI INVALID JUMPDEST DIV DUP3 ADD DUP2 PUSH2 0x38C3 JUMPI INVALID JUMPDEST DIV SWAP1 POP PUSH1 0x2 DUP2 PUSH8 0xDE0B6B3A7640000 DUP7 MUL DUP2 PUSH2 0x38DB JUMPI INVALID JUMPDEST DIV DUP3 ADD DUP2 PUSH2 0x38E5 JUMPI INVALID JUMPDEST DIV SWAP1 POP PUSH1 0x2 DUP2 PUSH8 0xDE0B6B3A7640000 DUP7 MUL DUP2 PUSH2 0x38FD JUMPI INVALID JUMPDEST DIV DUP3 ADD DUP2 PUSH2 0x3907 JUMPI INVALID JUMPDEST DIV SWAP1 POP PUSH1 0x2 DUP2 PUSH8 0xDE0B6B3A7640000 DUP7 MUL DUP2 PUSH2 0x391F JUMPI INVALID JUMPDEST DIV DUP3 ADD DUP2 PUSH2 0x3929 JUMPI INVALID JUMPDEST DIV SWAP1 POP PUSH1 0x2 DUP2 PUSH8 0xDE0B6B3A7640000 DUP7 MUL DUP2 PUSH2 0x3941 JUMPI INVALID JUMPDEST DIV DUP3 ADD DUP2 PUSH2 0x394B JUMPI INVALID JUMPDEST DIV SWAP1 POP PUSH1 0x0 PUSH2 0x395A DUP3 DUP1 PUSH2 0x2BFF JUMP JUMPDEST SWAP1 POP PUSH2 0x3970 PUSH2 0x3969 DUP4 DUP7 PUSH2 0x265F JUMP JUMPDEST DUP7 SWAP1 PUSH2 0x218A JUMP JUMPDEST DUP2 GT ISZERO DUP1 ISZERO PUSH2 0x3992 JUMPI POP PUSH2 0x398E PUSH2 0x3987 DUP4 DUP7 PUSH2 0x265F JUMP JUMPDEST DUP7 SWAP1 PUSH2 0x26B4 JUMP JUMPDEST DUP2 LT ISZERO JUMPDEST PUSH2 0x1520 JUMPI PUSH1 0x40 DUP1 MLOAD PUSH3 0x461BCD PUSH1 0xE5 SHL DUP2 MSTORE PUSH1 0x20 PUSH1 0x4 DUP3 ADD MSTORE PUSH1 0xC PUSH1 0x24 DUP3 ADD MSTORE PUSH12 0x17DCDC5C9D08119052531151 PUSH1 0xA2 SHL PUSH1 0x44 DUP3 ADD MSTORE SWAP1 MLOAD SWAP1 DUP2 SWAP1 SUB PUSH1 0x64 ADD SWAP1 REVERT JUMPDEST PUSH1 0x0 DUP2 DUP1 PUSH1 0x20 ADD SWAP1 MLOAD PUSH1 0x40 DUP2 LT ISZERO PUSH2 0x39E9 JUMPI PUSH1 0x0 DUP1 REVERT JUMPDEST POP PUSH1 0x20 ADD MLOAD SWAP3 SWAP2 POP POP JUMP JUMPDEST PUSH1 0x60 DUP4 MLOAD PUSH8 0xFFFFFFFFFFFFFFFF DUP2 GT DUP1 ISZERO PUSH2 0x3A0E JUMPI PUSH1 0x0 DUP1 REVERT JUMPDEST POP PUSH1 0x40 MLOAD SWAP1 DUP1 DUP3 MSTORE DUP1 PUSH1 0x20 MUL PUSH1 0x20 ADD DUP3 ADD PUSH1 0x40 MSTORE DUP1 ISZERO PUSH2 0x3A38 JUMPI DUP2 PUSH1 0x20 ADD PUSH1 0x20 DUP3 MUL DUP1 CALLDATASIZE DUP4 CALLDATACOPY ADD SWAP1 POP JUMPDEST POP SWAP1 POP PUSH1 0x0 JUMPDEST DUP5 MLOAD DUP2 LT ISZERO PUSH2 0x1520 JUMPI PUSH2 0x3A5B DUP4 PUSH2 0xBC1 DUP7 DUP9 DUP6 DUP2 MLOAD DUP2 LT PUSH2 0x2925 JUMPI INVALID JUMPDEST DUP3 DUP3 DUP2 MLOAD DUP2 LT PUSH2 0x3A67 JUMPI INVALID JUMPDEST PUSH1 0x20 SWAP1 DUP2 MUL SWAP2 SWAP1 SWAP2 ADD ADD MSTORE PUSH1 0x1 ADD PUSH2 0x3A3E JUMP JUMPDEST PUSH1 0x40 DUP1 MLOAD PUSH1 0x20 DUP1 DUP3 ADD DUP7 SWAP1 MSTORE PUSH1 0x1 PUSH1 0x1 PUSH1 0xA0 SHL SUB DUP1 DUP6 AND DUP4 DUP6 ADD MSTORE DUP4 MLOAD DUP1 DUP5 SUB DUP6 ADD DUP2 MSTORE PUSH1 0x60 DUP5 ADD DUP1 DUP7 MSTORE DUP2 MLOAD SWAP2 DUP5 ADD SWAP2 SWAP1 SWAP2 KECCAK256 PUSH4 0x696EB375 PUSH1 0xE0 SHL SWAP1 SWAP2 MSTORE PUSH1 0x64 DUP5 ADD DUP2 SWAP1 MSTORE SWAP4 MLOAD PUSH1 0x0 SWAP5 SWAP4 SWAP2 DUP10 AND SWAP3 PUSH4 0x696EB375 SWAP3 PUSH1 0x84 DUP1 DUP3 ADD SWAP4 SWAP2 DUP3 SWAP1 SUB ADD DUP2 DUP7 DUP1 EXTCODESIZE ISZERO DUP1 ISZERO PUSH2 0x3AEB JUMPI PUSH1 0x0 DUP1 REVERT JUMPDEST POP GAS STATICCALL ISZERO DUP1 ISZERO PUSH2 0x3AFF JUMPI RETURNDATASIZE PUSH1 0x0 DUP1 RETURNDATACOPY RETURNDATASIZE PUSH1 0x0 REVERT JUMPDEST POP POP POP POP PUSH1 0x40 MLOAD RETURNDATASIZE PUSH1 0x20 DUP2 LT ISZERO PUSH2 0x3B15 JUMPI PUSH1 0x0 DUP1 REVERT JUMPDEST POP MLOAD ISZERO PUSH2 0x3B95 JUMPI DUP6 PUSH1 0x1 PUSH1 0x1 PUSH1 0xA0 SHL SUB AND PUSH4 0xBD02D0F5 DUP3 PUSH1 0x40 MLOAD DUP3 PUSH4 0xFFFFFFFF AND PUSH1 0xE0 SHL DUP2 MSTORE PUSH1 0x4 ADD DUP1 DUP3 DUP2 MSTORE PUSH1 0x20 ADD SWAP2 POP POP PUSH1 0x20 PUSH1 0x40 MLOAD DUP1 DUP4 SUB DUP2 DUP7 DUP1 EXTCODESIZE ISZERO DUP1 ISZERO PUSH2 0x3B60 JUMPI PUSH1 0x0 DUP1 REVERT JUMPDEST POP GAS STATICCALL ISZERO DUP1 ISZERO PUSH2 0x3B74 JUMPI RETURNDATASIZE PUSH1 0x0 DUP1 RETURNDATACOPY RETURNDATASIZE PUSH1 0x0 REVERT JUMPDEST POP POP POP POP PUSH1 0x40 MLOAD RETURNDATASIZE PUSH1 0x20 DUP2 LT ISZERO PUSH2 0x3B8A JUMPI PUSH1 0x0 DUP1 REVERT JUMPDEST POP MLOAD SWAP2 POP PUSH2 0x1D8C SWAP1 POP JUMP JUMPDEST PUSH1 0x40 DUP1 MLOAD PUSH1 0x20 DUP1 DUP3 ADD DUP9 SWAP1 MSTORE DUP2 DUP4 ADD DUP8 SWAP1 MSTORE DUP3 MLOAD DUP1 DUP4 SUB DUP5 ADD DUP2 MSTORE PUSH1 0x60 DUP4 ADD DUP1 DUP6 MSTORE DUP2 MLOAD SWAP2 DUP4 ADD SWAP2 SWAP1 SWAP2 KECCAK256 PUSH4 0x696EB375 PUSH1 0xE0 SHL SWAP1 SWAP2 MSTORE PUSH1 0x64 DUP4 ADD DUP2 SWAP1 MSTORE SWAP3 MLOAD PUSH1 0x1 PUSH1 0x1 PUSH1 0xA0 SHL SUB DUP11 AND SWAP3 PUSH4 0x696EB375 SWAP3 PUSH1 0x84 DUP1 DUP4 ADD SWAP4 SWAP2 SWAP3 DUP3 SWAP1 SUB ADD DUP2 DUP7 DUP1 EXTCODESIZE ISZERO DUP1 ISZERO PUSH2 0x3C01 JUMPI PUSH1 0x0 DUP1 REVERT JUMPDEST POP GAS STATICCALL ISZERO DUP1 ISZERO PUSH2 0x3C15 JUMPI RETURNDATASIZE PUSH1 0x0 DUP1 RETURNDATACOPY RETURNDATASIZE PUSH1 0x0 REVERT JUMPDEST POP POP POP POP PUSH1 0x40 MLOAD RETURNDATASIZE PUSH1 0x20 DUP2 LT ISZERO PUSH2 0x3C2B JUMPI PUSH1 0x0 DUP1 REVERT JUMPDEST POP MLOAD ISZERO PUSH2 0x3CAC JUMPI DUP7 PUSH1 0x1 PUSH1 0x1 PUSH1 0xA0 SHL SUB AND PUSH4 0xBD02D0F5 DUP3 PUSH1 0x40 MLOAD DUP3 PUSH4 0xFFFFFFFF AND PUSH1 0xE0 SHL DUP2 MSTORE PUSH1 0x4 ADD DUP1 DUP3 DUP2 MSTORE PUSH1 0x20 ADD SWAP2 POP POP PUSH1 0x20 PUSH1 0x40 MLOAD DUP1 DUP4 SUB DUP2 DUP7 DUP1 EXTCODESIZE ISZERO DUP1 ISZERO PUSH2 0x3C76 JUMPI PUSH1 0x0 DUP1 REVERT JUMPDEST POP GAS STATICCALL ISZERO DUP1 ISZERO PUSH2 0x3C8A JUMPI RETURNDATASIZE PUSH1 0x0 DUP1 RETURNDATACOPY RETURNDATASIZE PUSH1 0x0 REVERT JUMPDEST POP POP POP POP PUSH1 0x40 MLOAD RETURNDATASIZE PUSH1 0x20 DUP2 LT ISZERO PUSH2 0x3CA0 JUMPI PUSH1 0x0 DUP1 REVERT JUMPDEST POP MLOAD SWAP3 POP PUSH2 0x1D8C SWAP2 POP POP JUMP JUMPDEST DUP7 PUSH1 0x1 PUSH1 0x1 PUSH1 0xA0 SHL SUB AND PUSH4 0xBD02D0F5 DUP8 PUSH1 0x40 MLOAD DUP3 PUSH4 0xFFFFFFFF AND PUSH1 0xE0 SHL DUP2 MSTORE PUSH1 0x4 ADD DUP1 DUP3 DUP2 MSTORE PUSH1 0x20 ADD SWAP2 POP POP PUSH1 0x20 PUSH1 0x40 MLOAD DUP1 DUP4 SUB DUP2 DUP7 DUP1 EXTCODESIZE ISZERO DUP1 ISZERO PUSH2 0x3CF0 JUMPI PUSH1 0x0 DUP1 REVERT JUMPDEST POP GAS STATICCALL ISZERO DUP1 ISZERO PUSH2 0x3D04 JUMPI RETURNDATASIZE PUSH1 0x0 DUP1 RETURNDATACOPY RETURNDATASIZE PUSH1 0x0 REVERT JUMPDEST POP POP POP POP PUSH1 0x40 MLOAD RETURNDATASIZE PUSH1 0x20 DUP2 LT ISZERO PUSH2 0x3D1A JUMPI PUSH1 0x0 DUP1 REVERT JUMPDEST POP MLOAD SWAP8 SWAP7 POP POP POP POP POP POP POP JUMP JUMPDEST PUSH1 0x60 DUP4 MLOAD PUSH8 0xFFFFFFFFFFFFFFFF DUP2 GT DUP1 ISZERO PUSH2 0x3D41 JUMPI PUSH1 0x0 DUP1 REVERT JUMPDEST POP PUSH1 0x40 MLOAD SWAP1 DUP1 DUP3 MSTORE DUP1 PUSH1 0x20 MUL PUSH1 0x20 ADD DUP3 ADD PUSH1 0x40 MSTORE DUP1 ISZERO PUSH2 0x3D6B JUMPI DUP2 PUSH1 0x20 ADD PUSH1 0x20 DUP3 MUL DUP1 CALLDATASIZE DUP4 CALLDATACOPY ADD SWAP1 POP JUMPDEST POP SWAP1 POP PUSH1 0x0 JUMPDEST DUP5 MLOAD DUP2 LT ISZERO PUSH2 0x1520 JUMPI PUSH2 0x3DA4 DUP4 PUSH2 0x2D4E DUP7 DUP9 DUP6 DUP2 MLOAD DUP2 LT PUSH2 0x3D8E JUMPI INVALID JUMPDEST PUSH1 0x20 MUL PUSH1 0x20 ADD ADD MLOAD PUSH2 0x265F SWAP1 SWAP2 SWAP1 PUSH4 0xFFFFFFFF AND JUMP JUMPDEST DUP3 DUP3 DUP2 MLOAD DUP2 LT PUSH2 0x3DB0 JUMPI INVALID JUMPDEST PUSH1 0x20 SWAP1 DUP2 MUL SWAP2 SWAP1 SWAP2 ADD ADD MSTORE PUSH1 0x1 ADD PUSH2 0x3D71 JUMP JUMPDEST PUSH2 0x7B1 DUP2 PUSH3 0x23ACA9 PUSH1 0xE9 SHL PUSH2 0x3FA5 JUMP JUMPDEST PUSH1 0x0 PUSH8 0xDE0B6B3A7640000 DUP3 LT PUSH2 0x3E00 JUMPI PUSH8 0xDE0B6B3A7640000 PUSH2 0x3DF8 DUP2 DUP5 DIV PUSH2 0x4006 JUMP JUMPDEST SHL SWAP1 POP PUSH2 0xDA5 JUMP JUMPDEST PUSH1 0xA DUP3 GT PUSH2 0x3E13 JUMPI POP PUSH4 0xBC7C871C PUSH2 0xDA5 JUMP JUMPDEST PUSH1 0x64 DUP3 GT PUSH2 0x3E27 JUMPI POP PUSH5 0x2540BE400 PUSH2 0xDA5 JUMP JUMPDEST PUSH2 0x3E8 DUP3 GT PUSH2 0x3E3C JUMPI POP PUSH5 0x75CDD4719 PUSH2 0xDA5 JUMP JUMPDEST PUSH2 0x2710 DUP3 GT PUSH2 0x3E51 JUMPI POP PUSH5 0x174876E800 PUSH2 0xDA5 JUMP JUMPDEST PUSH3 0x186A0 DUP3 GT PUSH2 0x3E67 JUMPI POP PUSH5 0x49A0A4C700 PUSH2 0xDA5 JUMP JUMPDEST PUSH3 0xF4240 DUP3 GT PUSH2 0x3E7D JUMPI POP PUSH5 0xE8D4A51000 PUSH2 0xDA5 JUMP JUMPDEST PUSH3 0x989680 DUP3 GT PUSH2 0x3E94 JUMPI POP PUSH6 0x2E0466FC608 PUSH2 0xDA5 JUMP JUMPDEST PUSH4 0x5F5E100 DUP3 GT PUSH2 0x3EAC JUMPI POP PUSH6 0x9184E72A000 PUSH2 0xDA5 JUMP JUMPDEST PUSH4 0x3B9ACA00 DUP3 GT PUSH2 0x3EC4 JUMPI POP PUSH6 0x1CC2C05DBC53 PUSH2 0xDA5 JUMP JUMPDEST PUSH5 0x2540BE400 DUP3 GT PUSH2 0x3EDD JUMPI POP PUSH6 0x5AF3107A4000 PUSH2 0xDA5 JUMP JUMPDEST PUSH5 0x174876E800 DUP3 GT PUSH2 0x3EF7 JUMPI POP PUSH7 0x11F9B83A95B45 PUSH2 0xDA5 JUMP JUMPDEST PUSH5 0xE8D4A51000 DUP3 GT PUSH2 0x3F11 JUMPI POP PUSH7 0x38D7EA4C68000 PUSH2 0xDA5 JUMP JUMPDEST PUSH6 0x9184E72A000 DUP3 GT PUSH2 0x3F2C JUMPI POP PUSH7 0xB3C13249D90BB PUSH2 0xDA5 JUMP JUMPDEST PUSH6 0x5AF3107A4000 DUP3 GT PUSH2 0x3F47 JUMPI POP PUSH7 0x2386F26FC10000 PUSH2 0xDA5 JUMP JUMPDEST PUSH7 0x38D7EA4C68000 DUP3 GT PUSH2 0x3F63 JUMPI POP PUSH7 0x7058BF6E27A751 PUSH2 0xDA5 JUMP JUMPDEST PUSH7 0x2386F26FC10000 DUP3 GT PUSH2 0x3F80 JUMPI POP PUSH8 0x16345785D8A0000 PUSH2 0xDA5 JUMP JUMPDEST PUSH8 0x16345785D8A0000 DUP3 GT PUSH2 0x3F9E JUMPI POP PUSH8 0x463777A4D8C892D PUSH2 0xDA5 JUMP JUMPDEST POP DUP1 PUSH2 0xDA5 JUMP JUMPDEST PUSH3 0x461BCD PUSH1 0xE5 SHL PUSH1 0x0 SWAP1 DUP2 MSTORE PUSH1 0x20 PUSH1 0x4 MSTORE PUSH1 0x7 PUSH1 0x24 MSTORE PUSH1 0xA DUP1 DUP5 DIV DUP2 DUP2 MOD PUSH1 0x30 SWAP1 DUP2 ADD PUSH1 0x8 SHL SWAP6 DUP4 SWAP1 MOD SWAP6 SWAP1 SWAP6 ADD SWAP1 DUP3 SWAP1 DIV SWAP2 DUP3 MOD DUP6 ADD PUSH1 0x10 SHL ADD PUSH1 0x23 PUSH4 0xFFFFFF00 PUSH1 0xE0 DUP7 SWAP1 SHR AND ADD PUSH1 0x18 SHL ADD SWAP1 SWAP4 ADD PUSH1 0xC8 SHL PUSH1 0x44 MSTORE PUSH1 0xE8 DUP3 SWAP1 SHR SWAP1 PUSH1 0x64 SWAP1 REVERT JUMPDEST PUSH1 0x0 PUSH1 0x1 PUSH1 0x80 SHL DUP3 LT PUSH2 0x401E JUMPI PUSH1 0x80 SWAP2 SWAP1 SWAP2 SHR SWAP1 PUSH1 0x40 ADD JUMPDEST PUSH9 0x10000000000000000 DUP3 LT PUSH2 0x4039 JUMPI PUSH1 0x40 SWAP2 SWAP1 SWAP2 SHR SWAP1 PUSH1 0x20 ADD JUMPDEST PUSH5 0x100000000 DUP3 LT PUSH2 0x4050 JUMPI PUSH1 0x20 SWAP2 SWAP1 SWAP2 SHR SWAP1 PUSH1 0x10 ADD JUMPDEST PUSH3 0x10000 DUP3 LT PUSH2 0x4065 JUMPI PUSH1 0x10 SWAP2 SWAP1 SWAP2 SHR SWAP1 PUSH1 0x8 ADD JUMPDEST PUSH2 0x100 DUP3 LT PUSH2 0x4079 JUMPI PUSH1 0x8 SWAP2 SWAP1 SWAP2 SHR SWAP1 PUSH1 0x4 ADD JUMPDEST PUSH1 0x10 DUP3 LT PUSH2 0x408C JUMPI PUSH1 0x4 SWAP2 SWAP1 SWAP2 SHR SWAP1 PUSH1 0x2 ADD JUMPDEST PUSH1 0x4 DUP3 LT PUSH2 0xDA5 JUMPI PUSH1 0x1 ADD SWAP2 SWAP1 POP JUMP JUMPDEST PUSH1 0x40 DUP1 MLOAD PUSH1 0x60 DUP2 ADD DUP3 MSTORE PUSH1 0x0 DUP1 DUP3 MSTORE PUSH1 0x20 DUP3 ADD DUP2 SWAP1 MSTORE SWAP2 DUP2 ADD SWAP2 SWAP1 SWAP2 MSTORE SWAP1 JUMP JUMPDEST PUSH1 0x40 MLOAD DUP1 PUSH1 0x40 ADD PUSH1 0x40 MSTORE DUP1 PUSH1 0x2 SWAP1 PUSH1 0x20 DUP3 MUL DUP1 CALLDATASIZE DUP4 CALLDATACOPY POP SWAP2 SWAP3 SWAP2 POP POP JUMP JUMPDEST DUP1 CALLDATALOAD PUSH2 0xDA5 DUP2 PUSH2 0x4877 JUMP JUMPDEST DUP1 CALLDATALOAD DUP1 ISZERO ISZERO DUP2 EQ PUSH2 0xDA5 JUMPI PUSH1 0x0 DUP1 REVERT JUMPDEST PUSH1 0x0 DUP3 PUSH1 0x1F DUP4 ADD SLT PUSH2 0x4105 JUMPI DUP1 DUP2 REVERT JUMPDEST DUP2 CALLDATALOAD PUSH8 0xFFFFFFFFFFFFFFFF DUP2 GT ISZERO PUSH2 0x4119 JUMPI INVALID JUMPDEST PUSH2 0x412C PUSH1 0x1F DUP3 ADD PUSH1 0x1F NOT AND PUSH1 0x20 ADD PUSH2 0x4853 JUMP JUMPDEST DUP2 DUP2 MSTORE DUP5 PUSH1 0x20 DUP4 DUP7 ADD ADD GT ISZERO PUSH2 0x4140 JUMPI DUP3 DUP4 REVERT JUMPDEST DUP2 PUSH1 0x20 DUP6 ADD PUSH1 0x20 DUP4 ADD CALLDATACOPY SWAP1 DUP2 ADD PUSH1 0x20 ADD SWAP2 SWAP1 SWAP2 MSTORE SWAP3 SWAP2 POP POP JUMP JUMPDEST DUP1 CALLDATALOAD PUSH1 0x2 DUP2 LT PUSH2 0xDA5 JUMPI PUSH1 0x0 DUP1 REVERT JUMPDEST PUSH1 0x0 PUSH1 0x20 DUP3 DUP5 SUB SLT ISZERO PUSH2 0x417A JUMPI DUP1 DUP2 REVERT JUMPDEST DUP2 CALLDATALOAD PUSH2 0x187F DUP2 PUSH2 0x4877 JUMP JUMPDEST PUSH1 0x0 PUSH1 0x20 DUP3 DUP5 SUB SLT ISZERO PUSH2 0x4196 JUMPI DUP1 DUP2 REVERT JUMPDEST DUP2 MLOAD PUSH2 0x187F DUP2 PUSH2 0x4877 JUMP JUMPDEST PUSH1 0x0 DUP1 PUSH1 0x40 DUP4 DUP6 SUB SLT ISZERO PUSH2 0x41B3 JUMPI DUP1 DUP2 REVERT JUMPDEST DUP3 CALLDATALOAD PUSH2 0x41BE DUP2 PUSH2 0x4877 JUMP JUMPDEST SWAP2 POP PUSH1 0x20 DUP4 ADD CALLDATALOAD PUSH2 0x41CE DUP2 PUSH2 0x4877 JUMP JUMPDEST DUP1 SWAP2 POP POP SWAP3 POP SWAP3 SWAP1 POP JUMP JUMPDEST PUSH1 0x0 DUP1 PUSH1 0x0 PUSH1 0x60 DUP5 DUP7 SUB SLT ISZERO PUSH2 0x41ED JUMPI DUP1 DUP2 REVERT JUMPDEST DUP4 CALLDATALOAD PUSH2 0x41F8 DUP2 PUSH2 0x4877 JUMP JUMPDEST SWAP3 POP PUSH1 0x20 DUP5 ADD CALLDATALOAD PUSH2 0x4208 DUP2 PUSH2 0x4877 JUMP JUMPDEST SWAP3 SWAP6 SWAP3 SWAP5 POP POP POP PUSH1 0x40 SWAP2 SWAP1 SWAP2 ADD CALLDATALOAD SWAP1 JUMP JUMPDEST PUSH1 0x0 DUP1 PUSH1 0x0 DUP1 PUSH1 0x0 DUP1 PUSH1 0x0 PUSH1 0xE0 DUP9 DUP11 SUB SLT ISZERO PUSH2 0x4233 JUMPI DUP3 DUP4 REVERT JUMPDEST DUP8 CALLDATALOAD PUSH2 0x423E DUP2 PUSH2 0x4877 JUMP JUMPDEST SWAP7 POP PUSH1 0x20 DUP9 ADD CALLDATALOAD PUSH2 0x424E DUP2 PUSH2 0x4877 JUMP JUMPDEST SWAP6 POP PUSH1 0x40 DUP9 ADD CALLDATALOAD SWAP5 POP PUSH1 0x60 DUP9 ADD CALLDATALOAD SWAP4 POP PUSH1 0x80 DUP9 ADD CALLDATALOAD PUSH1 0xFF DUP2 AND DUP2 EQ PUSH2 0x4271 JUMPI DUP4 DUP5 REVERT JUMPDEST SWAP7 SWAP10 SWAP6 SWAP9 POP SWAP4 SWAP7 SWAP3 SWAP6 SWAP5 PUSH1 0xA0 DUP5 ADD CALLDATALOAD SWAP5 POP PUSH1 0xC0 SWAP1 SWAP4 ADD CALLDATALOAD SWAP3 SWAP2 POP POP JUMP JUMPDEST PUSH1 0x0 DUP1 PUSH1 0x40 DUP4 DUP6 SUB SLT ISZERO PUSH2 0x42A0 JUMPI DUP2 DUP3 REVERT JUMPDEST DUP3 CALLDATALOAD PUSH2 0x42AB DUP2 PUSH2 0x4877 JUMP JUMPDEST SWAP5 PUSH1 0x20 SWAP4 SWAP1 SWAP4 ADD CALLDATALOAD SWAP4 POP POP POP JUMP JUMPDEST PUSH1 0x0 PUSH1 0x20 DUP3 DUP5 SUB SLT ISZERO PUSH2 0x42CA JUMPI DUP1 DUP2 REVERT JUMPDEST PUSH2 0x187F DUP3 PUSH2 0x40E5 JUMP JUMPDEST PUSH1 0x0 DUP1 PUSH1 0x0 DUP1 PUSH1 0x0 DUP1 PUSH1 0x0 PUSH1 0xE0 DUP9 DUP11 SUB SLT ISZERO PUSH2 0x42ED JUMPI DUP1 DUP2 REVERT JUMPDEST DUP8 CALLDATALOAD SWAP7 POP PUSH1 0x20 DUP9 ADD CALLDATALOAD PUSH2 0x42FF DUP2 PUSH2 0x4877 JUMP JUMPDEST SWAP6 POP PUSH1 0x40 DUP9 ADD CALLDATALOAD PUSH2 0x430F DUP2 PUSH2 0x4877 JUMP JUMPDEST SWAP5 POP PUSH1 0x60 DUP9 ADD CALLDATALOAD PUSH8 0xFFFFFFFFFFFFFFFF DUP1 DUP3 GT ISZERO PUSH2 0x432B JUMPI DUP3 DUP4 REVERT JUMPDEST DUP2 DUP11 ADD SWAP2 POP DUP11 PUSH1 0x1F DUP4 ADD SLT PUSH2 0x433E JUMPI DUP3 DUP4 REVERT JUMPDEST DUP2 CALLDATALOAD DUP2 DUP2 GT ISZERO PUSH2 0x434A JUMPI INVALID JUMPDEST PUSH1 0x20 DUP2 MUL PUSH2 0x435A PUSH1 0x20 DUP3 ADD PUSH2 0x4853 JUMP JUMPDEST DUP1 DUP4 DUP3 MSTORE PUSH1 0x20 DUP3 ADD SWAP2 POP PUSH1 0x20 DUP7 ADD DUP16 PUSH1 0x20 DUP6 DUP10 ADD ADD GT ISZERO PUSH2 0x4379 JUMPI DUP8 DUP9 REVERT JUMPDEST DUP8 SWAP7 POP JUMPDEST DUP5 DUP8 LT ISZERO PUSH2 0x439C JUMPI DUP1 CALLDATALOAD DUP4 MSTORE PUSH1 0x1 SWAP7 SWAP1 SWAP7 ADD SWAP6 PUSH1 0x20 SWAP3 DUP4 ADD SWAP3 ADD PUSH2 0x437D JUMP JUMPDEST POP SWAP9 POP POP POP POP PUSH1 0x80 DUP11 ADD CALLDATALOAD SWAP5 POP PUSH1 0xA0 DUP11 ADD CALLDATALOAD SWAP4 POP PUSH1 0xC0 DUP11 ADD CALLDATALOAD SWAP2 POP DUP1 DUP3 GT ISZERO PUSH2 0x43C3 JUMPI DUP3 DUP4 REVERT JUMPDEST POP PUSH2 0x43D0 DUP11 DUP3 DUP12 ADD PUSH2 0x40F5 JUMP JUMPDEST SWAP2 POP POP SWAP3 SWAP6 SWAP9 SWAP2 SWAP5 SWAP8 POP SWAP3 SWAP6 POP JUMP JUMPDEST PUSH1 0x0 PUSH1 0x20 DUP3 DUP5 SUB SLT ISZERO PUSH2 0x43F0 JUMPI DUP1 DUP2 REVERT JUMPDEST DUP2 CALLDATALOAD PUSH1 0x1 PUSH1 0x1 PUSH1 0xE0 SHL SUB NOT DUP2 AND DUP2 EQ PUSH2 0x187F JUMPI DUP2 DUP3 REVERT JUMPDEST PUSH1 0x0 PUSH1 0x60 DUP3 DUP5 SUB SLT ISZERO PUSH2 0x4418 JUMPI DUP1 DUP2 REVERT JUMPDEST PUSH1 0x40 MLOAD PUSH1 0x60 DUP2 ADD DUP2 DUP2 LT PUSH8 0xFFFFFFFFFFFFFFFF DUP3 GT OR ISZERO PUSH2 0x4435 JUMPI INVALID JUMPDEST PUSH1 0x40 MSTORE PUSH2 0x4441 DUP4 PUSH2 0x40E5 JUMP JUMPDEST DUP2 MSTORE PUSH1 0x20 DUP4 ADD CALLDATALOAD PUSH1 0x1 PUSH1 0x1 PUSH1 0x78 SHL SUB DUP2 AND DUP2 EQ PUSH2 0x445C JUMPI DUP3 DUP4 REVERT JUMPDEST PUSH1 0x20 DUP3 ADD MSTORE PUSH1 0x40 DUP4 ADD CALLDATALOAD PUSH1 0x1 PUSH1 0x1 PUSH1 0x80 SHL SUB DUP2 AND DUP2 EQ PUSH2 0x447A JUMPI DUP3 DUP4 REVERT JUMPDEST PUSH1 0x40 DUP3 ADD MSTORE SWAP4 SWAP3 POP POP POP JUMP JUMPDEST PUSH1 0x0 DUP1 PUSH1 0x0 PUSH1 0x60 DUP5 DUP7 SUB SLT ISZERO PUSH2 0x449A JUMPI DUP1 DUP2 REVERT JUMPDEST DUP4 CALLDATALOAD PUSH8 0xFFFFFFFFFFFFFFFF DUP1 DUP3 GT ISZERO PUSH2 0x44B1 JUMPI DUP3 DUP4 REVERT JUMPDEST DUP2 DUP7 ADD SWAP2 POP PUSH2 0x120 DUP1 DUP4 DUP10 SUB SLT ISZERO PUSH2 0x44C7 JUMPI DUP4 DUP5 REVERT JUMPDEST PUSH2 0x44D0 DUP2 PUSH2 0x4853 JUMP JUMPDEST SWAP1 POP PUSH2 0x44DB DUP4 PUSH2 0x415A JUMP JUMPDEST DUP2 MSTORE PUSH2 0x44E9 PUSH1 0x20 DUP5 ADD PUSH2 0x40DA JUMP JUMPDEST PUSH1 0x20 DUP3 ADD MSTORE PUSH2 0x44FA PUSH1 0x40 DUP5 ADD PUSH2 0x40DA JUMP JUMPDEST PUSH1 0x40 DUP3 ADD MSTORE PUSH1 0x60 DUP4 ADD CALLDATALOAD PUSH1 0x60 DUP3 ADD MSTORE PUSH1 0x80 DUP4 ADD CALLDATALOAD PUSH1 0x80 DUP3 ADD MSTORE PUSH1 0xA0 DUP4 ADD CALLDATALOAD PUSH1 0xA0 DUP3 ADD MSTORE PUSH2 0x4529 PUSH1 0xC0 DUP5 ADD PUSH2 0x40DA JUMP JUMPDEST PUSH1 0xC0 DUP3 ADD MSTORE PUSH2 0x453A PUSH1 0xE0 DUP5 ADD PUSH2 0x40DA JUMP JUMPDEST PUSH1 0xE0 DUP3 ADD MSTORE PUSH2 0x100 DUP1 DUP5 ADD CALLDATALOAD DUP4 DUP2 GT ISZERO PUSH2 0x4552 JUMPI DUP6 DUP7 REVERT JUMPDEST PUSH2 0x455E DUP11 DUP3 DUP8 ADD PUSH2 0x40F5 JUMP JUMPDEST SWAP2 DUP4 ADD SWAP2 SWAP1 SWAP2 MSTORE POP SWAP8 PUSH1 0x20 DUP8 ADD CALLDATALOAD SWAP8 POP PUSH1 0x40 SWAP1 SWAP7 ADD CALLDATALOAD SWAP6 SWAP5 POP POP POP POP POP JUMP JUMPDEST PUSH1 0x0 PUSH1 0x20 DUP3 DUP5 SUB SLT ISZERO PUSH2 0x458E JUMPI DUP1 DUP2 REVERT JUMPDEST POP CALLDATALOAD SWAP2 SWAP1 POP JUMP JUMPDEST PUSH1 0x0 PUSH1 0x20 DUP3 DUP5 SUB SLT ISZERO PUSH2 0x45A6 JUMPI DUP1 DUP2 REVERT JUMPDEST POP MLOAD SWAP2 SWAP1 POP JUMP JUMPDEST PUSH1 0x0 DUP1 PUSH1 0x0 PUSH1 0x60 DUP5 DUP7 SUB SLT ISZERO PUSH2 0x45C1 JUMPI DUP1 DUP2 REVERT JUMPDEST DUP4 CALLDATALOAD SWAP3 POP PUSH1 0x20 DUP5 ADD CALLDATALOAD SWAP2 POP PUSH2 0x45D8 PUSH1 0x40 DUP6 ADD PUSH2 0x40E5 JUMP JUMPDEST SWAP1 POP SWAP3 POP SWAP3 POP SWAP3 JUMP JUMPDEST PUSH1 0x0 DUP1 PUSH1 0x0 DUP1 PUSH1 0x80 DUP6 DUP8 SUB SLT ISZERO PUSH2 0x45F6 JUMPI DUP2 DUP3 REVERT JUMPDEST DUP5 MLOAD SWAP4 POP PUSH1 0x20 DUP6 ADD MLOAD SWAP3 POP PUSH1 0x40 DUP6 ADD MLOAD SWAP2 POP PUSH1 0x60 DUP6 ADD MLOAD PUSH2 0x4616 DUP2 PUSH2 0x4877 JUMP JUMPDEST SWAP4 SWAP7 SWAP3 SWAP6 POP SWAP1 SWAP4 POP POP JUMP JUMPDEST PUSH1 0x0 DUP2 MLOAD DUP1 DUP5 MSTORE PUSH1 0x20 DUP1 DUP6 ADD SWAP5 POP DUP1 DUP5 ADD DUP4 JUMPDEST DUP4 DUP2 LT ISZERO PUSH2 0x4650 JUMPI DUP2 MLOAD DUP8 MSTORE SWAP6 DUP3 ADD SWAP6 SWAP1 DUP3 ADD SWAP1 PUSH1 0x1 ADD PUSH2 0x4634 JUMP JUMPDEST POP SWAP5 SWAP6 SWAP5 POP POP POP POP POP JUMP JUMPDEST PUSH1 0x0 DUP3 DUP5 DUP4 CALLDATACOPY SWAP2 ADD SWAP1 DUP2 MSTORE SWAP2 SWAP1 POP JUMP JUMPDEST PUSH1 0x1 PUSH1 0x1 PUSH1 0xA0 SHL SUB SWAP2 SWAP1 SWAP2 AND DUP2 MSTORE PUSH1 0x20 ADD SWAP1 JUMP JUMPDEST PUSH1 0x40 DUP2 ADD DUP2 DUP4 PUSH1 0x0 JUMPDEST PUSH1 0x2 DUP2 LT ISZERO PUSH2 0x46A7 JUMPI DUP2 MLOAD DUP4 MSTORE PUSH1 0x20 SWAP3 DUP4 ADD SWAP3 SWAP1 SWAP2 ADD SWAP1 PUSH1 0x1 ADD PUSH2 0x4688 JUMP JUMPDEST POP POP POP SWAP3 SWAP2 POP POP JUMP JUMPDEST PUSH1 0x0 PUSH1 0x20 DUP3 MSTORE PUSH2 0x187F PUSH1 0x20 DUP4 ADD DUP5 PUSH2 0x4621 JUMP JUMPDEST PUSH1 0x0 PUSH1 0x40 DUP3 MSTORE PUSH2 0x46D6 PUSH1 0x40 DUP4 ADD DUP6 PUSH2 0x4621 JUMP JUMPDEST DUP3 DUP2 SUB PUSH1 0x20 DUP5 ADD MSTORE PUSH2 0x26E0 DUP2 DUP6 PUSH2 0x4621 JUMP JUMPDEST SWAP1 ISZERO ISZERO DUP2 MSTORE PUSH1 0x20 ADD SWAP1 JUMP JUMPDEST SWAP3 ISZERO ISZERO DUP4 MSTORE PUSH1 0x20 DUP4 ADD SWAP2 SWAP1 SWAP2 MSTORE PUSH1 0x40 DUP3 ADD MSTORE PUSH1 0x60 ADD SWAP1 JUMP JUMPDEST SWAP1 DUP2 MSTORE PUSH1 0x20 ADD SWAP1 JUMP JUMPDEST SWAP2 DUP3 MSTORE PUSH1 0x1 PUSH1 0x1 PUSH1 0xA0 SHL SUB AND PUSH1 0x20 DUP3 ADD MSTORE PUSH1 0x40 ADD SWAP1 JUMP JUMPDEST SWAP6 DUP7 MSTORE PUSH1 0x20 DUP7 ADD SWAP5 SWAP1 SWAP5 MSTORE PUSH1 0x40 DUP6 ADD SWAP3 SWAP1 SWAP3 MSTORE PUSH1 0x60 DUP5 ADD MSTORE ISZERO ISZERO PUSH1 0x80 DUP4 ADD MSTORE PUSH1 0xA0 DUP3 ADD MSTORE PUSH1 0xC0 ADD SWAP1 JUMP JUMPDEST PUSH1 0x0 PUSH1 0x20 DUP1 DUP4 MSTORE DUP4 MLOAD DUP1 DUP3 DUP6 ADD MSTORE DUP3 JUMPDEST DUP2 DUP2 LT ISZERO PUSH2 0x4781 JUMPI DUP6 DUP2 ADD DUP4 ADD MLOAD DUP6 DUP3 ADD PUSH1 0x40 ADD MSTORE DUP3 ADD PUSH2 0x4765 JUMP JUMPDEST DUP2 DUP2 GT ISZERO PUSH2 0x4792 JUMPI DUP4 PUSH1 0x40 DUP4 DUP8 ADD ADD MSTORE JUMPDEST POP PUSH1 0x1F ADD PUSH1 0x1F NOT AND SWAP3 SWAP1 SWAP3 ADD PUSH1 0x40 ADD SWAP4 SWAP3 POP POP POP JUMP JUMPDEST DUP2 MLOAD ISZERO ISZERO DUP2 MSTORE PUSH1 0x20 DUP1 DUP4 ADD MLOAD PUSH1 0x1 PUSH1 0x1 PUSH1 0x78 SHL SUB AND SWAP1 DUP3 ADD MSTORE PUSH1 0x40 SWAP2 DUP3 ADD MLOAD PUSH1 0x1 PUSH1 0x1 PUSH1 0x80 SHL SUB AND SWAP2 DUP2 ADD SWAP2 SWAP1 SWAP2 MSTORE PUSH1 0x60 ADD SWAP1 JUMP JUMPDEST SWAP1 SLOAD PUSH1 0xFF DUP2 AND ISZERO ISZERO DUP3 MSTORE PUSH1 0x8 DUP2 SWAP1 SHR PUSH1 0x1 PUSH1 0x1 PUSH1 0x78 SHL SUB AND PUSH1 0x20 DUP4 ADD MSTORE PUSH1 0x80 SHR PUSH1 0x40 DUP3 ADD MSTORE PUSH1 0x60 ADD SWAP1 JUMP JUMPDEST PUSH1 0x0 DUP4 DUP3 MSTORE PUSH1 0x40 PUSH1 0x20 DUP4 ADD MSTORE PUSH2 0x1D8C PUSH1 0x40 DUP4 ADD DUP5 PUSH2 0x4621 JUMP JUMPDEST SWAP2 DUP3 MSTORE PUSH1 0x20 DUP3 ADD MSTORE PUSH1 0x40 ADD SWAP1 JUMP JUMPDEST SWAP3 DUP4 MSTORE PUSH1 0x20 DUP4 ADD SWAP2 SWAP1 SWAP2 MSTORE PUSH1 0x40 DUP3 ADD MSTORE PUSH1 0x60 ADD SWAP1 JUMP JUMPDEST PUSH1 0xFF SWAP2 SWAP1 SWAP2 AND DUP2 MSTORE PUSH1 0x20 ADD SWAP1 JUMP JUMPDEST PUSH1 0x40 MLOAD DUP2 DUP2 ADD PUSH8 0xFFFFFFFFFFFFFFFF DUP2 GT DUP3 DUP3 LT OR ISZERO PUSH2 0x486F JUMPI INVALID JUMPDEST PUSH1 0x40 MSTORE SWAP2 SWAP1 POP JUMP JUMPDEST PUSH1 0x1 PUSH1 0x1 PUSH1 0xA0 SHL SUB DUP2 AND DUP2 EQ PUSH2 0x7B1 JUMPI PUSH1 0x0 DUP1 REVERT INVALID LOG2 PUSH5 0x6970667358 0x22 SLT KECCAK256 PUSH28 0x7356194BFAA5996B936A7CEA25AB4327F37B07EE358AA7520BEBE7E1 0xC3 0xBB 0x2A PUSH5 0x736F6C6343 STOP SMOD MOD STOP CALLER ","sha1":"3c8347e141f8f6944cd5c91dead333a3c8d4171d","source":"// SPDX-License-Identifier: LicenseRef-Gyro-1.0\n// for information on licensing please see the README in the GitHub repository <https://github.com/gyrostable/concentrated-lps>.\n\npragma solidity 0.7.6;\npragma experimental ABIEncoderV2;\n\n// import \"@balancer-labs/v2-solidity-utils/contracts/math/FixedPoint.sol\";\nimport \"../../libraries/GyroFixedPoint.sol\";\n\nimport \"@balancer-labs/v2-pool-weighted/contracts/WeightedPoolUserDataHelpers.sol\";\nimport \"@balancer-labs/v2-pool-weighted/contracts/WeightedPool2TokensMiscData.sol\";\nimport \"@balancer-labs/v2-pool-utils/contracts/interfaces/IRateProvider.sol\";\n\nimport \"../../libraries/GyroConfigKeys.sol\";\nimport \"../../libraries/GyroConfigHelpers.sol\";\nimport \"../../interfaces/IGyroConfig.sol\";\nimport \"../../libraries/GyroPoolMath.sol\";\nimport \"../../libraries/GyroErrors.sol\";\n\nimport \"../CappedLiquidity.sol\";\nimport \"../LocallyPausable.sol\";\nimport \"../ExtensibleWeightedPool2Tokens.sol\";\nimport \"./Gyro2CLPPoolErrors.sol\";\nimport \"./Gyro2CLPMath.sol\";\n\ncontract Gyro2CLPPool is ExtensibleWeightedPool2Tokens, CappedLiquidity, LocallyPausable {\n    using GyroFixedPoint for uint256;\n    using WeightedPoolUserDataHelpers for bytes;\n    using WeightedPool2TokensMiscData for bytes32;\n    using GyroConfigHelpers for IGyroConfig;\n\n    uint256 private immutable _sqrtAlpha;\n    uint256 private immutable _sqrtBeta;\n    bytes32 private constant POOL_TYPE = \"2CLP\";\n\n    IGyroConfig public gyroConfig;\n\n    /// @dev for rate scaling\n    IRateProvider public immutable rateProvider0;\n    IRateProvider public immutable rateProvider1;\n\n    struct GyroParams {\n        NewPoolParams baseParams;\n        uint256 sqrtAlpha; // A: Should already be upscaled\n        uint256 sqrtBeta; // A: Should already be upscaled. Could be passed as an array[](2)\n        address rateProvider0;\n        address rateProvider1;\n        address capManager;\n        CapParams capParams;\n        address pauseManager;\n    }\n\n    constructor(GyroParams memory params, address configAddress)\n        ExtensibleWeightedPool2Tokens(params.baseParams)\n        CappedLiquidity(params.capManager, params.capParams)\n        LocallyPausable(params.pauseManager)\n    {\n        _grequire(params.sqrtAlpha < params.sqrtBeta, Gyro2CLPPoolErrors.SQRT_PARAMS_WRONG);\n        _grequire(configAddress != address(0), GyroErrors.ZERO_ADDRESS);\n        _sqrtAlpha = params.sqrtAlpha;\n        _sqrtBeta = params.sqrtBeta;\n\n        gyroConfig = IGyroConfig(configAddress);\n\n        rateProvider0 = IRateProvider(params.rateProvider0);\n        rateProvider1 = IRateProvider(params.rateProvider1);\n    }\n\n    /// @dev Returns sqrtAlpha and sqrtBeta (square roots of lower and upper price bounds of p_x respectively)\n    function getSqrtParameters() external view returns (uint256[2] memory) {\n        return _sqrtParameters();\n    }\n\n    function _sqrtParameters() internal view virtual returns (uint256[2] memory virtualParameters) {\n        virtualParameters[0] = _sqrtParameters(true);\n        virtualParameters[1] = _sqrtParameters(false);\n        return virtualParameters;\n    }\n\n    function _sqrtParameters(bool parameter0) internal view virtual returns (uint256) {\n        return parameter0 ? _sqrtAlpha : _sqrtBeta;\n    }\n\n    /** @dev Reads the balance of a token from the balancer vault and returns the scaled amount. Smaller storage access\n     * compared to getVault().getPoolTokens().\n     * Copied from the 3CLP *except* that for the 2CLP, the scalingFactor is interpreted as a regular integer, not a\n     * FixedPoint number. This is an inconsistency between the base contracts.\n     */\n    function _getScaledTokenBalance(IERC20 token, uint256 scalingFactor) internal view returns (uint256 balance) {\n        // Signature of getPoolTokenInfo(): (pool id, token) -> (cash, managed, lastChangeBlock, assetManager)\n        // and total amount = cash + managed. See balancer repo, PoolTokens.sol and BalanceAllocation.sol\n        (uint256 cash, uint256 managed, , ) = getVault().getPoolTokenInfo(getPoolId(), token);\n        balance = cash + managed; // can't overflow, see BalanceAllocation.sol::total() in the Balancer repo.\n        balance = balance.mulDown(scalingFactor);\n    }\n\n    /** @dev Get all balances in the pool, scaled by the appropriate scaling factors, in a relatively gas-efficient way.\n     * Essentially copied from the 3CLP.\n     */\n    function _getAllBalances() internal view returns (uint256[] memory balances) {\n        // The below is more gas-efficient than the following line because the token slots don't have to be read in the\n        // vault.\n        // (, uint256[] memory balances, ) = getVault().getPoolTokens(getPoolId());\n        balances = new uint256[](2);\n        balances[0] = _getScaledTokenBalance(_token0, _scalingFactor(true));\n        balances[1] = _getScaledTokenBalance(_token1, _scalingFactor(false));\n        return balances;\n    }\n\n    /// @dev Returns virtual offsets a and b for reserves x and y respectively, as in (x+a)*(y+b)=L^2\n    function getVirtualParameters() external view returns (uint256[] memory virtualParams) {\n        uint256[] memory balances = _getAllBalances();\n        // _calculateCurrentValues() is defined in terms of an in/out pair, but we just map this to the 0/1 (x/y) pair.\n        virtualParams = new uint256[](2);\n        (, virtualParams[0], virtualParams[1]) = _calculateCurrentValues(balances[0], balances[1], true);\n    }\n\n    function _getVirtualParameters(uint256[2] memory sqrtParams, uint256 invariant)\n        internal\n        view\n        virtual\n        returns (uint256[2] memory virtualParameters)\n    {\n        virtualParameters[0] = _virtualParameters(true, sqrtParams[1], invariant);\n        virtualParameters[1] = _virtualParameters(false, sqrtParams[0], invariant);\n        return virtualParameters;\n    }\n\n    function _virtualParameters(\n        bool parameter0,\n        uint256 sqrtParam,\n        uint256 invariant\n    ) internal view virtual returns (uint256) {\n        return\n            parameter0\n                ? (Gyro2CLPMath._calculateVirtualParameter0(invariant, sqrtParam))\n                : (Gyro2CLPMath._calculateVirtualParameter1(invariant, sqrtParam));\n    }\n\n    /**\n     * @dev Returns the current value of the invariant.\n     */\n    function getInvariant() public view override returns (uint256) {\n        uint256[] memory balances = _getAllBalances();\n        uint256[2] memory sqrtParams = _sqrtParameters();\n\n        return Gyro2CLPMath._calculateInvariant(balances, sqrtParams[0], sqrtParams[1]);\n    }\n\n    /** When rateProvider{0,1} is provided, this returns the *scaled* price, suitable to compare *rate scaled* balances.\n     *  To compare (decimal- but) not-rate-scaled balances, apply _adjustPrice() to the result.\n     */\n    function _getPrice(\n        uint256[] memory balances,\n        uint256 virtualParam0,\n        uint256 virtualParam1\n    ) internal pure returns (uint256 spotPrice) {\n        return Gyro2CLPMath._calcSpotPriceAinB(balances[0], virtualParam0, balances[1], virtualParam1);\n    }\n\n    /** Returns the current spot price of token0 quoted in units of token1. When rateProvider{0,1} is provided, the\n     * returned price corresponds to tokens *before* rate scaling.\n     */\n    function getPrice() external view returns (uint256 spotPrice) {\n        uint256[] memory balances = _getAllBalances();\n        (uint256 invariant, uint256 virtualParam0, uint256 virtualParam1) = _calculateCurrentValues(balances[0], balances[1], true);\n        spotPrice = _getPrice(balances, virtualParam0, virtualParam1);\n        spotPrice = _adjustPrice(spotPrice);\n    }\n\n    // Swap Hooks\n\n    function onSwap(\n        SwapRequest memory request,\n        uint256 balanceTokenIn,\n        uint256 balanceTokenOut\n    ) public virtual override whenNotPaused onlyVault(request.poolId) returns (uint256) {\n        bool tokenInIsToken0 = request.tokenIn == _token0;\n\n        uint256 scalingFactorTokenIn = _scalingFactor(tokenInIsToken0);\n        uint256 scalingFactorTokenOut = _scalingFactor(!tokenInIsToken0);\n\n        // All token amounts are upscaled.\n        balanceTokenIn = _upscale(balanceTokenIn, scalingFactorTokenIn);\n        balanceTokenOut = _upscale(balanceTokenOut, scalingFactorTokenOut);\n\n        // All the calculations in one function to avoid Error Stack Too Deep\n        (uint256 currentInvariant, uint256 virtualParamIn, uint256 virtualParamOut) = _calculateCurrentValues(\n            balanceTokenIn,\n            balanceTokenOut,\n            tokenInIsToken0\n        );\n\n        if (request.kind == IVault.SwapKind.GIVEN_IN) {\n            // Fees are subtracted before scaling, to reduce the complexity of the rounding direction analysis.\n            // This is amount - fee amount, so we round up (favoring a higher fee amount).\n            uint256 feeAmount = request.amount.mulUp(getSwapFeePercentage());\n            // subtract fee and upscale so request.amount is appropriate for the following pool math.\n            request.amount = _upscale(request.amount.sub(feeAmount), scalingFactorTokenIn);\n\n            uint256 amountOut = _onSwapGivenIn(request, balanceTokenIn, balanceTokenOut, virtualParamIn, virtualParamOut);\n\n            // amountOut tokens are exiting the Pool, so we round down.\n            return _downscaleDown(amountOut, scalingFactorTokenOut);\n        } else {\n            request.amount = _upscale(request.amount, scalingFactorTokenOut);\n\n            uint256 amountIn = _onSwapGivenOut(request, balanceTokenIn, balanceTokenOut, virtualParamIn, virtualParamOut);\n\n            // amountIn tokens are entering the Pool, so we round up.\n            amountIn = _downscaleUp(amountIn, scalingFactorTokenIn);\n\n            // Fees are added after scaling happens, to reduce the complexity of the rounding direction analysis.\n            // This is amount + fee amount, so we round up (favoring a higher fee amount).\n            return amountIn.divUp(getSwapFeePercentage().complement());\n        }\n    }\n\n    // We assume all amounts to be upscaled correctly\n    function _onSwapGivenIn(\n        SwapRequest memory swapRequest,\n        uint256 currentBalanceTokenIn,\n        uint256 currentBalanceTokenOut,\n        uint256 virtualParamIn,\n        uint256 virtualParamOut\n    ) internal pure override returns (uint256) {\n        // NB: Swaps are disabled while the contract is paused.\n        return Gyro2CLPMath._calcOutGivenIn(currentBalanceTokenIn, currentBalanceTokenOut, swapRequest.amount, virtualParamIn, virtualParamOut);\n    }\n\n    function _onSwapGivenOut(\n        SwapRequest memory swapRequest,\n        uint256 currentBalanceTokenIn,\n        uint256 currentBalanceTokenOut,\n        uint256 virtualParamIn,\n        uint256 virtualParamOut\n    ) internal pure override returns (uint256) {\n        // NB: Swaps are disabled while the contract is paused.\n        return Gyro2CLPMath._calcInGivenOut(currentBalanceTokenIn, currentBalanceTokenOut, swapRequest.amount, virtualParamIn, virtualParamOut);\n    }\n\n    /// @dev invariant and virtual offsets.\n    function calculateCurrentValues(\n        uint256 balanceTokenIn, // not scaled\n        uint256 balanceTokenOut, // not scaled\n        bool tokenInIsToken0\n    )\n        public\n        view\n        returns (\n            uint256 currentInvariant,\n            uint256 virtualParamIn,\n            uint256 virtualParamOut\n        )\n    {\n        uint256 scalingFactorTokenIn = _scalingFactor(tokenInIsToken0);\n        uint256 scalingFactorTokenOut = _scalingFactor(!tokenInIsToken0);\n        balanceTokenIn = _upscale(balanceTokenIn, scalingFactorTokenIn);\n        balanceTokenOut = _upscale(balanceTokenOut, scalingFactorTokenOut);\n        return _calculateCurrentValues(balanceTokenIn, balanceTokenOut, tokenInIsToken0);\n    }\n\n    function _calculateCurrentValues(\n        uint256 balanceTokenIn, // scaled\n        uint256 balanceTokenOut, // scaled\n        bool tokenInIsToken0\n    )\n        internal\n        view\n        returns (\n            uint256 currentInvariant,\n            uint256 virtualParamIn,\n            uint256 virtualParamOut\n        )\n    {\n        uint256[] memory balances = new uint256[](2);\n        balances[0] = tokenInIsToken0 ? balanceTokenIn : balanceTokenOut;\n        balances[1] = tokenInIsToken0 ? balanceTokenOut : balanceTokenIn;\n\n        uint256[2] memory sqrtParams = _sqrtParameters();\n\n        currentInvariant = Gyro2CLPMath._calculateInvariant(balances, sqrtParams[0], sqrtParams[1]);\n\n        uint256[2] memory virtualParam = _getVirtualParameters(sqrtParams, currentInvariant);\n\n        virtualParamIn = tokenInIsToken0 ? virtualParam[0] : virtualParam[1];\n        virtualParamOut = tokenInIsToken0 ? virtualParam[1] : virtualParam[0];\n    }\n\n    /**\n     * @dev Called when the Pool is joined for the first time; that is, when the BPT total supply is zero.\n     *\n     * Returns the amount of BPT to mint, and the token amounts the Pool will receive in return.\n     *\n     * Minted BPT will be sent to `recipient`, except for _MINIMUM_BPT, which will be deducted from this amount and sent\n     * to the zero address instead. This will cause that BPT to remain forever locked there, preventing total BPT from\n     * ever dropping below that value, and ensuring `_onInitializePool` can only be called once in the entire Pool's\n     * lifetime.\n     *\n     * The tokens granted to the Pool will be transferred from `sender`. These amounts are considered upscaled and will\n     * be downscaled (rounding up) before being returned to the Vault.\n     */\n    function _onInitializePool(\n        bytes32,\n        address,\n        address,\n        bytes memory userData\n    ) internal override returns (uint256, uint256[] memory) {\n        BaseWeightedPool.JoinKind kind = userData.joinKind();\n        _require(kind == BaseWeightedPool.JoinKind.INIT, Errors.UNINITIALIZED);\n\n        uint256[] memory amountsIn = userData.initialAmountsIn();\n        InputHelpers.ensureInputLengthMatch(amountsIn.length, 2);\n        _upscaleArray(amountsIn);\n\n        (uint256 invariantAfterJoin, uint256 virtualParam0, uint256 virtualParam1) = _calculateCurrentValues(amountsIn[0], amountsIn[1], true);\n\n        /* We initialize the number of BPT tokens such that one BPT token corresponds to one unit of token1 at the initialized pool price. This makes BPT tokens comparable across pools with different parameters. Note that the invariant does *not* have this property!\n         */\n        uint256 spotPrice = _getPrice(amountsIn, virtualParam0, virtualParam1);\n        uint256 bptAmountOut = Math.add(amountsIn[0].mulDown(spotPrice), amountsIn[1]);\n\n        _lastInvariant = invariantAfterJoin;\n\n        return (bptAmountOut, amountsIn);\n    }\n\n    /**\n     * @dev Called whenever the Pool is joined after the first initialization join (see `_onInitializePool`).\n     *\n     * Returns the amount of BPT to mint, the token amounts that the Pool will receive in return, and the number of\n     * tokens to pay in protocol swap fees.\n     *\n     * Implementations of this function might choose to mutate the `balances` array to save gas (e.g. when\n     * performing intermediate calculations, such as subtraction of due protocol fees). This can be done safely.\n     *\n     * Minted BPT will be sent to `recipient`.\n     *\n     * The tokens granted to the Pool will be transferred from `sender`. These amounts are considered upscaled and will\n     * be downscaled (rounding up) before being returned to the Vault.\n     *\n     * Due protocol swap fees will be taken from the Pool's balance in the Vault (see `IBasePool.onJoinPool`). These\n     * amounts are considered upscaled and will be downscaled (rounding down) before being returned to the Vault.\n     *\n     * protocolSwapFeePercentage argument is intentionally unused as protocol fees are handled in a different way\n     *\n     */\n    function _onJoinPool(\n        bytes32,\n        address,\n        address recipient,\n        uint256[] memory balances,\n        uint256 lastChangeBlock,\n        uint256, //protocolSwapFeePercentage,\n        bytes memory userData\n    )\n        internal\n        override\n        returns (\n            uint256,\n            uint256[] memory,\n            uint256[] memory\n        )\n    {\n        // NB Joins are disabled when the pool is paused.\n\n        uint256[2] memory sqrtParams = _sqrtParameters();\n\n        // Due protocol swap fee amounts are computed by measuring the growth of the invariant between the previous\n        // join or exit event and now - the invariant's growth is due exclusively to swap fees. This avoids\n        // spending gas accounting for fees on each individual swap.\n        uint256 invariantBeforeAction = Gyro2CLPMath._calculateInvariant(balances, sqrtParams[0], sqrtParams[1]);\n        uint256[2] memory virtualParam = _getVirtualParameters(sqrtParams, invariantBeforeAction);\n\n        _distributeFees(invariantBeforeAction);\n\n        (uint256 bptAmountOut, uint256[] memory amountsIn) = _doJoin(balances, userData);\n\n        if (_capParams.capEnabled) {\n            _ensureCap(bptAmountOut, balanceOf(recipient), totalSupply());\n        }\n\n        // Since we pay fees in BPT, they have not changed the invariant and 'invariantBeforeAction' is still consistent\n        // with  'balances'. Therefore, we can use a simplified method to update the invariant that does not require a\n        // full re-computation.\n        // Note: Should this be changed in the future, we also need to reduce the invariant proportionally by the total\n        // protocol fee factor.\n        _lastInvariant = GyroPoolMath.liquidityInvariantUpdate(invariantBeforeAction, bptAmountOut, totalSupply(), true);\n\n        // returns a new uint256[](2) b/c Balancer vault is expecting a fee array, but fees paid in BPT instead\n        return (bptAmountOut, amountsIn, new uint256[](2));\n    }\n\n    function _doJoin(uint256[] memory balances, bytes memory userData) internal view returns (uint256 bptAmountOut, uint256[] memory amountsIn) {\n        BaseWeightedPool.JoinKind kind = userData.joinKind();\n\n        // We do NOT currently support unbalanced update, i.e., EXACT_TOKENS_IN_FOR_BPT_OUT or TOKEN_IN_FOR_EXACT_BPT_OUT\n        if (kind == BaseWeightedPool.JoinKind.ALL_TOKENS_IN_FOR_EXACT_BPT_OUT) {\n            (bptAmountOut, amountsIn) = _joinAllTokensInForExactBPTOut(balances, userData);\n        } else {\n            _revert(Errors.UNHANDLED_JOIN_KIND);\n        }\n    }\n\n    function _joinAllTokensInForExactBPTOut(uint256[] memory balances, bytes memory userData)\n        internal\n        view\n        override\n        returns (uint256, uint256[] memory)\n    {\n        uint256 bptAmountOut = userData.allTokensInForExactBptOut();\n        // Note that there is no maximum amountsIn parameter: this is handled by `IVault.joinPool`.\n\n        uint256[] memory amountsIn = GyroPoolMath._calcAllTokensInGivenExactBptOut(balances, bptAmountOut, totalSupply());\n\n        return (bptAmountOut, amountsIn);\n    }\n\n    /**\n     * @dev Called whenever the Pool is exited.\n     *\n     * Returns the amount of BPT to burn, the token amounts for each Pool token that the Pool will grant in return, and\n     * the number of tokens to pay in protocol swap fees.\n     *\n     * Implementations of this function might choose to mutate the `balances` array to save gas (e.g. when\n     * performing intermediate calculations, such as subtraction of due protocol fees). This can be done safely.\n     *\n     * BPT will be burnt from `sender`.\n     *\n     * The Pool will grant tokens to `recipient`. These amounts are considered upscaled and will be downscaled\n     * (rounding down) before being returned to the Vault.\n     *\n     * Due protocol swap fees will be taken from the Pool's balance in the Vault (see `IBasePool.onExitPool`). These\n     * amounts are considered upscaled and will be downscaled (rounding down) before being returned to the Vault.\n     *\n     * protocolSwapFeePercentage argument is intentionally unused as protocol fees are handled in a different way\n     */\n    function _onExitPool(\n        bytes32,\n        address,\n        address,\n        uint256[] memory balances,\n        uint256 lastChangeBlock,\n        uint256, // protocolSwapFeePercentage,\n        bytes memory userData\n    )\n        internal\n        override\n        returns (\n            uint256 bptAmountIn,\n            uint256[] memory amountsOut,\n            uint256[] memory dueProtocolFeeAmounts\n        )\n    {\n        // Exits are not completely disabled while the contract is paused: proportional exits (exact BPT in for tokens\n        // out) remain functional.\n\n        uint256[2] memory sqrtParams = _sqrtParameters();\n\n        if (_isNotPaused()) {\n            // Due protocol swap fee amounts are computed by measuring the growth of the invariant between the previous\n            // join or exit event and now - the invariant's growth is due exclusively to swap fees. This avoids\n            // spending gas calculating the fees on each individual swap.\n            uint256 invariantBeforeAction = Gyro2CLPMath._calculateInvariant(balances, sqrtParams[0], sqrtParams[1]);\n            uint256[2] memory virtualParam = _getVirtualParameters(sqrtParams, invariantBeforeAction);\n\n            _distributeFees(invariantBeforeAction);\n\n            (bptAmountIn, amountsOut) = _doExit(balances, userData);\n\n            // Since we pay fees in BPT, they have not changed the invariant and 'invariantBeforeAction' is still\n            // consistent with 'balances'. Therefore, we can use a simplified method to update the invariant that does\n            // not require a full re-computation.\n            // Note: Should this be changed in the future, we also need to reduce the invariant proportionally by the\n            // total protocol fee factor.\n            _lastInvariant = GyroPoolMath.liquidityInvariantUpdate(invariantBeforeAction, bptAmountIn, totalSupply(), false);\n        } else {\n            // Note: If the contract is paused, swap protocol fee amounts are not charged\n            // to avoid extra calculations and reduce the potential for errors.\n            (bptAmountIn, amountsOut) = _doExit(balances, userData);\n\n            // Invalidate _lastInvariant. We do not compute the invariant to reduce the potential for errors or lockup.\n            // Instead, we set the invariant such that any following (non-paused) join/exit will ignore and recompute\n            // it. (see GyroPoolMath._calcProtocolFees())\n            _lastInvariant = type(uint256).max;\n        }\n\n        // returns a new uint256[](2) b/c Balancer vault is expecting a fee array, but fees paid in BPT instead\n        return (bptAmountIn, amountsOut, new uint256[](2));\n    }\n\n    function _doExit(uint256[] memory balances, bytes memory userData) internal view returns (uint256 bptAmountIn, uint256[] memory amountsOut) {\n        BaseWeightedPool.ExitKind kind = userData.exitKind();\n\n        // We do NOT support unbalanced exit at the moment, i.e., EXACT_BPT_IN_FOR_ONE_TOKEN_OUT or\n        // BPT_IN_FOR_EXACT_TOKENS_OUT.\n        if (kind == BaseWeightedPool.ExitKind.EXACT_BPT_IN_FOR_TOKENS_OUT) {\n            (bptAmountIn, amountsOut) = _exitExactBPTInForTokensOut(balances, userData);\n        } else {\n            _revert(Errors.UNHANDLED_EXIT_KIND);\n        }\n    }\n\n    function _exitExactBPTInForTokensOut(uint256[] memory balances, bytes memory userData)\n        internal\n        view\n        override\n        returns (uint256, uint256[] memory)\n    {\n        // This exit function is the only one that is not disabled if the contract is paused: it remains unrestricted\n        // in an attempt to provide users with a mechanism to retrieve their tokens in case of an emergency.\n        // This particular exit function is the only one that remains available because it is the simplest one, and\n        // therefore the one with the lowest likelihood of errors.\n\n        uint256 bptAmountIn = userData.exactBptInForTokensOut();\n        // Note that there is no minimum amountOut parameter: this is handled by `IVault.exitPool`.\n\n        uint256[] memory amountsOut = GyroPoolMath._calcTokensOutGivenExactBptIn(balances, bptAmountIn, totalSupply());\n        return (bptAmountIn, amountsOut);\n    }\n\n    // Helpers\n\n    /**\n     * @dev Computes and distributes fees between the Balancer and the Gyro treasury\n     * The fees are computed and distributed in BPT rather than using the\n     * Balancer regular distribution mechanism which would pay these in underlying\n     */\n\n    function _distributeFees(uint256 invariantBeforeAction) internal {\n        // calculate Protocol fees in BPT\n        // lastInvariant is the invariant logged at the end of the last liquidity update\n        // protocol fees are calculated on swap fees earned between liquidity updates\n        (uint256 gyroFees, uint256 balancerFees, address gyroTreasury, address balTreasury) = _getDueProtocolFeeAmounts(\n            _lastInvariant,\n            invariantBeforeAction\n        );\n\n        // Pay fees in BPT\n        _payFeesBpt(gyroFees, balancerFees, gyroTreasury, balTreasury);\n    }\n\n    /**\n     * @dev this function overrides inherited function to make sure it is never used\n     */\n    function _getDueProtocolFeeAmounts(\n        uint256[] memory, // balances,\n        uint256[] memory, // normalizedWeights,\n        uint256, // previousInvariant,\n        uint256, // currentInvariant,\n        uint256 // protocolSwapFeePercentage\n    ) internal pure override returns (uint256[] memory) {\n        revert(\"Not implemented\");\n    }\n\n    /**\n     * @dev Calculates protocol fee amounts in BPT terms.\n     * protocolSwapFeePercentage is not used here b/c we take parameters from GyroConfig instead.\n     * Returns: BPT due to Gyro, BPT due to Balancer, receiving address for Gyro fees, receiving address for Balancer\n     * fees.\n     */\n    function _getDueProtocolFeeAmounts(uint256 previousInvariant, uint256 currentInvariant)\n        internal\n        view\n        returns (\n            uint256,\n            uint256,\n            address,\n            address\n        )\n    {\n        (uint256 protocolSwapFeePerc, uint256 protocolFeeGyroPortion, address gyroTreasury, address balTreasury) = _getFeesMetadata();\n\n        // Early return if the protocol swap fee percentage is zero, saving gas.\n        if (protocolSwapFeePerc == 0) {\n            return (0, 0, gyroTreasury, balTreasury);\n        }\n\n        // Calculate fees in BPT\n        (uint256 gyroFees, uint256 balancerFees) = GyroPoolMath._calcProtocolFees(\n            previousInvariant,\n            currentInvariant,\n            totalSupply(),\n            protocolSwapFeePerc,\n            protocolFeeGyroPortion\n        );\n\n        return (gyroFees, balancerFees, gyroTreasury, balTreasury);\n    }\n\n    function _payFeesBpt(\n        uint256 gyroFees,\n        uint256 balancerFees,\n        address gyroTreasury,\n        address balTreasury\n    ) internal {\n        // Pay fees in BPT to gyro treasury\n        if (gyroFees > 0) {\n            _mintPoolTokens(gyroTreasury, gyroFees);\n        }\n        // Pay fees in BPT to bal treasury\n        if (balancerFees > 0) {\n            _mintPoolTokens(balTreasury, balancerFees);\n        }\n    }\n\n    function _getFeesMetadata()\n        internal\n        view\n        returns (\n            uint256,\n            uint256,\n            address,\n            address\n        )\n    {\n        return (\n            gyroConfig.getSwapFeePercForPool(address(this), POOL_TYPE),\n            gyroConfig.getProtocolFeeGyroPortionForPool(address(this), POOL_TYPE),\n            gyroConfig.getAddress(GyroConfigKeys.GYRO_TREASURY_KEY),\n            gyroConfig.getAddress(GyroConfigKeys.BAL_TREASURY_KEY)\n        );\n    }\n\n    /** @notice Effective BPT supply.\n     *\n     *  This is the same as `totalSupply()` but also accounts for the fact that the pool owes\n     *  protocol fees to the pool in the form of unminted LP shares created on the next join/exit,\n     *  diluting LPers. Thus, this is the totalSupply() that the next join/exit operation will see.\n     *\n     *  Equivalent to the respective function in, e.g., WeightedPool, see:\n     *  https://github.com/balancer/balancer-v2-monorepo/blob/master/pkg/pool-weighted/contracts/WeightedPool.sol#L325-L344\n     */\n    function getActualSupply() external view returns (uint256) {\n        uint256 supply = totalSupply();\n        (uint256 gyroFees, uint256 balancerFees, , ) = _getDueProtocolFeeAmounts(_lastInvariant, getInvariant());\n        return supply.add(gyroFees).add(balancerFees);\n    }\n\n    /// @notice Equivalent to but more efficient than `getInvariant().divDown(getActualSupply())`.\n    function getInvariantDivActualSupply() external view returns (uint256) {\n        uint256 invariant = getInvariant();\n        uint256 supply = totalSupply();\n        (uint256 gyroFees, uint256 balancerFees, , ) = _getDueProtocolFeeAmounts(_lastInvariant, invariant);\n        uint256 actualSupply = supply.add(gyroFees).add(balancerFees);\n        return invariant.divDown(actualSupply);\n    }\n\n    function _setPausedState(bool paused) internal override {\n        _setPaused(paused);\n    }\n\n    // Rate scaling\n    // Same as for ECLP\n    // SOMEDAY ECLP's code and this code could be moved to ExtensibleWeightedPool2Tokens.\n\n    function _scalingFactor(bool token0) internal view override returns (uint256) {\n        IRateProvider rateProvider;\n        uint256 scalingFactor;\n        if (token0) {\n            rateProvider = rateProvider0;\n            scalingFactor = _scalingFactor0;\n        } else {\n            rateProvider = rateProvider1;\n            scalingFactor = _scalingFactor1;\n        }\n        if (address(rateProvider) != address(0)) scalingFactor = scalingFactor.mulDown(rateProvider.getRate());\n        return scalingFactor;\n    }\n\n    function _adjustPrice(uint256 spotPrice) internal view override returns (uint256) {\n        if (address(rateProvider0) != address(0)) spotPrice = spotPrice.mulDown(rateProvider0.getRate());\n        if (address(rateProvider1) != address(0)) spotPrice = spotPrice.divDown(rateProvider1.getRate());\n        return spotPrice;\n    }\n\n    /// @notice Convenience function to fetch the two rates used for scaling the two tokens, as of rateProvider{0,1}.\n    /// Note that these rates do *not* contain scaling to account for differences in the number of decimals. The rates\n    /// themselves are always 18-decimals.\n    function getTokenRates() public view returns (uint256 rate0, uint256 rate1) {\n        rate0 = address(rateProvider0) != address(0) ? rateProvider0.getRate() : GyroFixedPoint.ONE;\n        rate1 = address(rateProvider1) != address(0) ? rateProvider1.getRate() : GyroFixedPoint.ONE;\n    }\n}\n","sourcePath":"contracts/2clp/Gyro2CLPPool.sol","type":"contract","deployment":{"address":"0xeD6850f0400c111e49Ee3F4bEa44d19b438B4611","chainid":"137","blockHeight":49901550}}