{"abi":[{"inputs":[{"components":[{"components":[{"internalType":"contract IVault","name":"vault","type":"address"},{"internalType":"string","name":"name","type":"string"},{"internalType":"string","name":"symbol","type":"string"},{"internalType":"contract IERC20","name":"token0","type":"address"},{"internalType":"contract IERC20","name":"token1","type":"address"},{"internalType":"uint256","name":"normalizedWeight0","type":"uint256"},{"internalType":"uint256","name":"normalizedWeight1","type":"uint256"},{"internalType":"uint256","name":"swapFeePercentage","type":"uint256"},{"internalType":"uint256","name":"pauseWindowDuration","type":"uint256"},{"internalType":"uint256","name":"bufferPeriodDuration","type":"uint256"},{"internalType":"bool","name":"oracleEnabled","type":"bool"},{"internalType":"address","name":"owner","type":"address"}],"internalType":"struct ExtensibleWeightedPool2Tokens.NewPoolParams","name":"baseParams","type":"tuple"},{"internalType":"uint256","name":"sqrtAlpha","type":"uint256"},{"internalType":"uint256","name":"sqrtBeta","type":"uint256"}],"internalType":"struct GyroTwoPool.GyroParams","name":"params","type":"tuple"},{"internalType":"address","name":"configAddress","type":"address"}],"stateMutability":"nonpayable","type":"constructor","name":"constructor"},{"anonymous":false,"inputs":[{"indexed":true,"internalType":"address","name":"owner","type":"address"},{"indexed":true,"internalType":"address","name":"spender","type":"address"},{"indexed":false,"internalType":"uint256","name":"value","type":"uint256"}],"name":"Approval","type":"event"},{"anonymous":false,"inputs":[{"indexed":false,"internalType":"bool","name":"enabled","type":"bool"}],"name":"OracleEnabledChanged","type":"event"},{"anonymous":false,"inputs":[{"indexed":false,"internalType":"bool","name":"paused","type":"bool"}],"name":"PausedStateChanged","type":"event"},{"anonymous":false,"inputs":[{"indexed":false,"internalType":"uint256","name":"swapFeePercentage","type":"uint256"}],"name":"SwapFeePercentageChanged","type":"event"},{"anonymous":false,"inputs":[{"indexed":true,"internalType":"address","name":"from","type":"address"},{"indexed":true,"internalType":"address","name":"to","type":"address"},{"indexed":false,"internalType":"uint256","name":"value","type":"uint256"}],"name":"Transfer","type":"event"},{"inputs":[],"name":"DOMAIN_SEPARATOR","outputs":[{"internalType":"bytes32","name":"","type":"bytes32"}],"stateMutability":"view","type":"function"},{"inputs":[{"internalType":"address","name":"owner","type":"address"},{"internalType":"address","name":"spender","type":"address"}],"name":"allowance","outputs":[{"internalType":"uint256","name":"","type":"uint256"}],"stateMutability":"view","type":"function"},{"inputs":[{"internalType":"address","name":"spender","type":"address"},{"internalType":"uint256","name":"amount","type":"uint256"}],"name":"approve","outputs":[{"internalType":"bool","name":"","type":"bool"}],"stateMutability":"nonpayable","type":"function"},{"inputs":[{"internalType":"address","name":"account","type":"address"}],"name":"balanceOf","outputs":[{"internalType":"uint256","name":"","type":"uint256"}],"stateMutability":"view","type":"function"},{"inputs":[{"internalType":"uint256","name":"balanceTokenIn","type":"uint256"},{"internalType":"uint256","name":"balanceTokenOut","type":"uint256"},{"internalType":"bool","name":"tokenInIsToken0","type":"bool"}],"name":"calculateCurrentValues","outputs":[{"internalType":"uint256","name":"currentInvariant","type":"uint256"},{"internalType":"uint256","name":"virtualParamIn","type":"uint256"},{"internalType":"uint256","name":"virtualParamOut","type":"uint256"}],"stateMutability":"view","type":"function"},{"inputs":[],"name":"decimals","outputs":[{"internalType":"uint8","name":"","type":"uint8"}],"stateMutability":"view","type":"function"},{"inputs":[{"internalType":"address","name":"spender","type":"address"},{"internalType":"uint256","name":"amount","type":"uint256"}],"name":"decreaseAllowance","outputs":[{"internalType":"bool","name":"","type":"bool"}],"stateMutability":"nonpayable","type":"function"},{"inputs":[{"internalType":"uint256","name":"startIndex","type":"uint256"},{"internalType":"uint256","name":"endIndex","type":"uint256"}],"name":"dirtyUninitializedOracleSamples","outputs":[],"stateMutability":"nonpayable","type":"function"},{"inputs":[],"name":"enableOracle","outputs":[],"stateMutability":"nonpayable","type":"function"},{"inputs":[{"internalType":"bytes4","name":"selector","type":"bytes4"}],"name":"getActionId","outputs":[{"internalType":"bytes32","name":"","type":"bytes32"}],"stateMutability":"view","type":"function"},{"inputs":[],"name":"getAuthorizer","outputs":[{"internalType":"contract IAuthorizer","name":"","type":"address"}],"stateMutability":"view","type":"function"},{"inputs":[],"name":"getInvariant","outputs":[{"internalType":"uint256","name":"","type":"uint256"}],"stateMutability":"view","type":"function"},{"inputs":[],"name":"getLargestSafeQueryWindow","outputs":[{"internalType":"uint256","name":"","type":"uint256"}],"stateMutability":"pure","type":"function"},{"inputs":[],"name":"getLastInvariant","outputs":[{"internalType":"uint256","name":"","type":"uint256"}],"stateMutability":"view","type":"function"},{"inputs":[{"internalType":"enum IPriceOracle.Variable","name":"variable","type":"uint8"}],"name":"getLatest","outputs":[{"internalType":"uint256","name":"","type":"uint256"}],"stateMutability":"view","type":"function"},{"inputs":[],"name":"getMiscData","outputs":[{"internalType":"int256","name":"logInvariant","type":"int256"},{"internalType":"int256","name":"logTotalSupply","type":"int256"},{"internalType":"uint256","name":"oracleSampleCreationTimestamp","type":"uint256"},{"internalType":"uint256","name":"oracleIndex","type":"uint256"},{"internalType":"bool","name":"oracleEnabled","type":"bool"},{"internalType":"uint256","name":"swapFeePercentage","type":"uint256"}],"stateMutability":"view","type":"function"},{"inputs":[],"name":"getNormalizedWeights","outputs":[{"internalType":"uint256[]","name":"","type":"uint256[]"}],"stateMutability":"view","type":"function"},{"inputs":[],"name":"getOwner","outputs":[{"internalType":"address","name":"","type":"address"}],"stateMutability":"view","type":"function"},{"inputs":[{"components":[{"internalType":"enum IPriceOracle.Variable","name":"variable","type":"uint8"},{"internalType":"uint256","name":"ago","type":"uint256"}],"internalType":"struct IPriceOracle.OracleAccumulatorQuery[]","name":"queries","type":"tuple[]"}],"name":"getPastAccumulators","outputs":[{"internalType":"int256[]","name":"results","type":"int256[]"}],"stateMutability":"view","type":"function"},{"inputs":[],"name":"getPausedState","outputs":[{"internalType":"bool","name":"paused","type":"bool"},{"internalType":"uint256","name":"pauseWindowEndTime","type":"uint256"},{"internalType":"uint256","name":"bufferPeriodEndTime","type":"uint256"}],"stateMutability":"view","type":"function"},{"inputs":[],"name":"getPoolId","outputs":[{"internalType":"bytes32","name":"","type":"bytes32"}],"stateMutability":"view","type":"function"},{"inputs":[],"name":"getRate","outputs":[{"internalType":"uint256","name":"","type":"uint256"}],"stateMutability":"view","type":"function"},{"inputs":[{"internalType":"uint256","name":"index","type":"uint256"}],"name":"getSample","outputs":[{"internalType":"int256","name":"logPairPrice","type":"int256"},{"internalType":"int256","name":"accLogPairPrice","type":"int256"},{"internalType":"int256","name":"logBptPrice","type":"int256"},{"internalType":"int256","name":"accLogBptPrice","type":"int256"},{"internalType":"int256","name":"logInvariant","type":"int256"},{"internalType":"int256","name":"accLogInvariant","type":"int256"},{"internalType":"uint256","name":"timestamp","type":"uint256"}],"stateMutability":"view","type":"function"},{"inputs":[],"name":"getSqrtParameters","outputs":[{"internalType":"uint256[]","name":"","type":"uint256[]"}],"stateMutability":"view","type":"function"},{"inputs":[],"name":"getSwapFeePercentage","outputs":[{"internalType":"uint256","name":"","type":"uint256"}],"stateMutability":"view","type":"function"},{"inputs":[{"components":[{"internalType":"enum IPriceOracle.Variable","name":"variable","type":"uint8"},{"internalType":"uint256","name":"secs","type":"uint256"},{"internalType":"uint256","name":"ago","type":"uint256"}],"internalType":"struct IPriceOracle.OracleAverageQuery[]","name":"queries","type":"tuple[]"}],"name":"getTimeWeightedAverage","outputs":[{"internalType":"uint256[]","name":"results","type":"uint256[]"}],"stateMutability":"view","type":"function"},{"inputs":[],"name":"getTotalSamples","outputs":[{"internalType":"uint256","name":"","type":"uint256"}],"stateMutability":"pure","type":"function"},{"inputs":[],"name":"getVault","outputs":[{"internalType":"contract IVault","name":"","type":"address"}],"stateMutability":"view","type":"function"},{"inputs":[],"name":"getVirtualParameters","outputs":[{"internalType":"uint256[]","name":"virtualParams","type":"uint256[]"}],"stateMutability":"view","type":"function"},{"inputs":[],"name":"gyroConfig","outputs":[{"internalType":"contract IGyroConfig","name":"","type":"address"}],"stateMutability":"view","type":"function"},{"inputs":[{"internalType":"address","name":"spender","type":"address"},{"internalType":"uint256","name":"addedValue","type":"uint256"}],"name":"increaseAllowance","outputs":[{"internalType":"bool","name":"","type":"bool"}],"stateMutability":"nonpayable","type":"function"},{"inputs":[],"name":"name","outputs":[{"internalType":"string","name":"","type":"string"}],"stateMutability":"view","type":"function"},{"inputs":[{"internalType":"address","name":"owner","type":"address"}],"name":"nonces","outputs":[{"internalType":"uint256","name":"","type":"uint256"}],"stateMutability":"view","type":"function"},{"inputs":[{"internalType":"bytes32","name":"poolId","type":"bytes32"},{"internalType":"address","name":"sender","type":"address"},{"internalType":"address","name":"recipient","type":"address"},{"internalType":"uint256[]","name":"balances","type":"uint256[]"},{"internalType":"uint256","name":"lastChangeBlock","type":"uint256"},{"internalType":"uint256","name":"protocolSwapFeePercentage","type":"uint256"},{"internalType":"bytes","name":"userData","type":"bytes"}],"name":"onExitPool","outputs":[{"internalType":"uint256[]","name":"","type":"uint256[]"},{"internalType":"uint256[]","name":"","type":"uint256[]"}],"stateMutability":"nonpayable","type":"function"},{"inputs":[{"internalType":"bytes32","name":"poolId","type":"bytes32"},{"internalType":"address","name":"sender","type":"address"},{"internalType":"address","name":"recipient","type":"address"},{"internalType":"uint256[]","name":"balances","type":"uint256[]"},{"internalType":"uint256","name":"lastChangeBlock","type":"uint256"},{"internalType":"uint256","name":"protocolSwapFeePercentage","type":"uint256"},{"internalType":"bytes","name":"userData","type":"bytes"}],"name":"onJoinPool","outputs":[{"internalType":"uint256[]","name":"amountsIn","type":"uint256[]"},{"internalType":"uint256[]","name":"dueProtocolFeeAmounts","type":"uint256[]"}],"stateMutability":"nonpayable","type":"function"},{"inputs":[{"components":[{"internalType":"enum IVault.SwapKind","name":"kind","type":"uint8"},{"internalType":"contract IERC20","name":"tokenIn","type":"address"},{"internalType":"contract IERC20","name":"tokenOut","type":"address"},{"internalType":"uint256","name":"amount","type":"uint256"},{"internalType":"bytes32","name":"poolId","type":"bytes32"},{"internalType":"uint256","name":"lastChangeBlock","type":"uint256"},{"internalType":"address","name":"from","type":"address"},{"internalType":"address","name":"to","type":"address"},{"internalType":"bytes","name":"userData","type":"bytes"}],"internalType":"struct IPoolSwapStructs.SwapRequest","name":"request","type":"tuple"},{"internalType":"uint256","name":"balanceTokenIn","type":"uint256"},{"internalType":"uint256","name":"balanceTokenOut","type":"uint256"}],"name":"onSwap","outputs":[{"internalType":"uint256","name":"","type":"uint256"}],"stateMutability":"nonpayable","type":"function"},{"inputs":[{"internalType":"address","name":"owner","type":"address"},{"internalType":"address","name":"spender","type":"address"},{"internalType":"uint256","name":"value","type":"uint256"},{"internalType":"uint256","name":"deadline","type":"uint256"},{"internalType":"uint8","name":"v","type":"uint8"},{"internalType":"bytes32","name":"r","type":"bytes32"},{"internalType":"bytes32","name":"s","type":"bytes32"}],"name":"permit","outputs":[],"stateMutability":"nonpayable","type":"function"},{"inputs":[{"internalType":"bytes32","name":"poolId","type":"bytes32"},{"internalType":"address","name":"sender","type":"address"},{"internalType":"address","name":"recipient","type":"address"},{"internalType":"uint256[]","name":"balances","type":"uint256[]"},{"internalType":"uint256","name":"lastChangeBlock","type":"uint256"},{"internalType":"uint256","name":"protocolSwapFeePercentage","type":"uint256"},{"internalType":"bytes","name":"userData","type":"bytes"}],"name":"queryExit","outputs":[{"internalType":"uint256","name":"bptIn","type":"uint256"},{"internalType":"uint256[]","name":"amountsOut","type":"uint256[]"}],"stateMutability":"nonpayable","type":"function"},{"inputs":[{"internalType":"bytes32","name":"poolId","type":"bytes32"},{"internalType":"address","name":"sender","type":"address"},{"internalType":"address","name":"recipient","type":"address"},{"internalType":"uint256[]","name":"balances","type":"uint256[]"},{"internalType":"uint256","name":"lastChangeBlock","type":"uint256"},{"internalType":"uint256","name":"protocolSwapFeePercentage","type":"uint256"},{"internalType":"bytes","name":"userData","type":"bytes"}],"name":"queryJoin","outputs":[{"internalType":"uint256","name":"bptOut","type":"uint256"},{"internalType":"uint256[]","name":"amountsIn","type":"uint256[]"}],"stateMutability":"nonpayable","type":"function"},{"inputs":[{"internalType":"bool","name":"paused","type":"bool"}],"name":"setPaused","outputs":[],"stateMutability":"nonpayable","type":"function"},{"inputs":[{"internalType":"uint256","name":"swapFeePercentage","type":"uint256"}],"name":"setSwapFeePercentage","outputs":[],"stateMutability":"nonpayable","type":"function"},{"inputs":[],"name":"symbol","outputs":[{"internalType":"string","name":"","type":"string"}],"stateMutability":"view","type":"function"},{"inputs":[],"name":"totalSupply","outputs":[{"internalType":"uint256","name":"","type":"uint256"}],"stateMutability":"view","type":"function"},{"inputs":[{"internalType":"address","name":"recipient","type":"address"},{"internalType":"uint256","name":"amount","type":"uint256"}],"name":"transfer","outputs":[{"internalType":"bool","name":"","type":"bool"}],"stateMutability":"nonpayable","type":"function"},{"inputs":[{"internalType":"address","name":"sender","type":"address"},{"internalType":"address","name":"recipient","type":"address"},{"internalType":"uint256","name":"amount","type":"uint256"}],"name":"transferFrom","outputs":[{"internalType":"bool","name":"","type":"bool"}],"stateMutability":"nonpayable","type":"function"}],"bytecode":"6102e06040527f6e71edae12b1b97f4d1f60370fef10105fa2faae0126114a169c64845d6126c9610120523480156200003757600080fd5b50604051620058d9380380620058d98339810160408190526200005a916200087e565b81516101008101516101208201516020808401516040808601518651825180840190935260018352603160f81b838601526101608801513360805260601b6001600160601b03191660a05283519394919390928592839283918791620000c7916003919085019062000711565b508051620000dd90600490602084019062000711565b505060058054601260ff1990911617905550815160209283012060c052805191012060e052507f8b73c3c69bb8fe3d512ecc4cf759cc79239f7b179b0ffacaa9a75d522b39400f6101005260601b6001600160601b03191661014052506200015090506276a7008311156101946200047c565b6200016462278d008211156101956200047c565b429091016101608190520161018052610140810151620001849062000491565b60e08101516200019490620004ed565b80516040516309b2760f60e01b81526000916001600160a01b0316906309b2760f90620001c79060029060040162000add565b602060405180830381600087803b158015620001e257600080fd5b505af1158015620001f7573d6000803e3d6000fd5b505050506040513d601f19601f820116820180604052508101906200021d919062000865565b6040805160028082526060808301845293945090916020830190803683370190505090508260600151816000815181106200025457fe5b60200260200101906001600160a01b031690816001600160a01b0316815250508260800151816001815181106200028757fe5b6001600160a01b0392831660209182029290920101528351166366a9c7d283836002604051908082528060200260200182016040528015620002d3578160200160208202803683370190505b506040518463ffffffff1660e01b8152600401620002f49392919062000a41565b600060405180830381600087803b1580156200030f57600080fd5b505af115801562000324573d6000803e3d6000fd5b5050506101a083905250606080840180516001600160601b031990831b81166101c052608086015190921b9091166101e0525162000362906200056b565b61026052608083015162000376906200056b565b6102805260a08301516200039790662386f26fc10000111561012e6200047c565b620003b9662386f26fc100008460c00151101561012e6200047c60201b60201c565b6000620003dd8460c001518560a001516200060d60201b620014bf1790919060201c565b9050620003f7670de0b6b3a764000082146101346200047c565b60a0840180516102005260c0850180516102205251905110156200041d57600162000420565b60005b60ff1661024052505050604083015160208401516200044492501061015e6200047c565b60208201516102a0526040909101516102c052600b80546001600160a01b0319166001600160a01b0390921691909117905562000b2e565b816200048d576200048d816200062a565b5050565b620004ad816009546200067d60201b620014d81790919060201c565b6009556040517f3e350b41e86a8e10f804ade6d35340d620be35569cc75ac943e8bb14ab80ead190620004e290839062000a36565b60405180910390a150565b6200050264e8d4a5100082101560cb6200047c565b6200051a67016345785d8a000082111560ca6200047c565b62000536816009546200069c60201b620014e61790919060201c565b6009556040517fa9ba3ffe0b6c366b81232caab38605a0699ad5398d6cce76f91ee809e322dafc90620004e290839062000af2565b600080826001600160a01b031663313ce5676040518163ffffffff1660e01b815260040160206040518083038186803b158015620005a857600080fd5b505afa158015620005bd573d6000803e3d6000fd5b505050506040513d601f19601f82011682018060405250810190620005e3919062000a13565b60ff169050600062000602601283620006bb60201b620014f41760201c565b600a0a949350505050565b60008282016200062184821015836200047c565b90505b92915050565b62461bcd60e51b6000908152602060045260076024526642414c23000030600a808404818106603090810160081b95839006959095019082900491820690940160101b939093010160c81b604452606490fd5b60006200062182605585620006d360201b6200150a179092919060201c565b60006200062182605685620006fc60201b62001531179092919060201c565b6000620006cd8383111560016200047c565b50900390565b60006001821b1984168284620006eb576000620006ee565b60015b60ff16901b17949350505050565b6001600160401b03811b1992909216911b1790565b828054600181600116156101000203166002900490600052602060002090601f016020900481019282601f106200075457805160ff191683800117855562000784565b8280016001018555821562000784579182015b828111156200078457825182559160200191906001019062000767565b506200079292915062000796565b5090565b5b8082111562000792576000815560010162000797565b80516001600160a01b03811681146200062457600080fd5b805180151581146200062457600080fd5b600082601f830112620007e7578081fd5b81516001600160401b03811115620007fd578182fd5b602062000813601f8301601f1916820162000afb565b925081835284818386010111156200082a57600080fd5b60005b828110156200084a5784810182015184820183015281016200082d565b828111156200085c5760008284860101525b50505092915050565b60006020828403121562000877578081fd5b5051919050565b6000806040838503121562000891578081fd5b82516001600160401b0380821115620008a8578283fd5b9084019060608287031215620008bc578283fd5b620008c8606062000afb565b825182811115620008d7578485fd5b8301610180818903811315620008eb578586fd5b620008f68162000afb565b9050620009048983620007ad565b815260208201518481111562000918578687fd5b620009268a828501620007d6565b6020830152506040820151848111156200093e578687fd5b6200094c8a828501620007d6565b604083015250620009618960608401620007ad565b6060820152620009758960808401620007ad565b608082015260a0828101519082015260c0808301519082015260e08083015190820152610100808301519082015261012080830151908201526101409350620009c189858401620007c5565b848201526101609350620009d889858401620007ad565b848201528083525050602083015160208201526040830151604082015280945050505062000a0a8460208501620007ad565b90509250929050565b60006020828403121562000a25578081fd5b815160ff8116811462000621578182fd5b901515815260200190565b60006060820185835260206060818501528186518084526080860191508288019350845b8181101562000a8d5762000a7a855162000b22565b8352938301939183019160010162000a65565b505084810360408601528551808252908201925081860190845b8181101562000acf5762000abc835162000b22565b8552938301939183019160010162000aa7565b509298975050505050505050565b602081016003831062000aec57fe5b91905290565b90815260200190565b6040518181016001600160401b038111828210171562000b1a57600080fd5b604052919050565b6001600160a01b031690565b60805160a05160601c60c05160e05161010051610120516101405160601c61016051610180516101a0516101c05160601c6101e05160601c61020051610220516102405161026051610280516102a0516102c051614cdd62000bfc60003980612a14525080612a3b5250806121a65250806121cd5250508061304f52508061307652505080610e9452508061091452508061169d525080611679525080610ce252508061123d5250806118c952508061190b5250806118ea525080610cbe525080610c495250614cdd6000f3fe608060405234801561001057600080fd5b506004361061027f5760003560e01c8063707dcd1e1161015c5780639d2c110c116100ce578063c0ff1a1511610087578063c0ff1a151461055d578063d505accf14610565578063d5c096c414610578578063dd62ed3e1461058b578063f89f27ed1461059e578063ffd088eb146105a65761027f565b80639d2c110c14610501578063a457c2d714610514578063a9059cbb14610527578063aaabadc51461053a578063b10be73914610542578063b48b5b40146105555761027f565b806387ec68171161012057806387ec6817146104c6578063893d20e8146104d95780638d928af8146104e15780638dd9f89d146104e957806395d89b41146104f15780639b02cdde146104f95761027f565b8063707dcd1e1461046457806370a082311461046c57806374f3b0091461047f5780637ecebe00146104a0578063851c1bb3146104b35761027f565b806338e9922e116101f55780634a6b0b15116101b95780634a6b0b15146103d357806355c67628146103ed5780636028bfd4146103f557806360d1507c14610416578063679aefce1461043c5780636b843239146104445761027f565b806338e9922e1461036e57806338fff2d01461038157806339509351146103895780633c4dd5bb1461039c57806344bbdb55146103be5761027f565b80631dccd830116102475780631dccd8301461030357806323b872dd14610323578063292c914a14610336578063313ce5671461033e5780633331bc36146103535780633644e515146103665761027f565b806306fdde0314610284578063095ea7b3146102a257806316c38b3c146102c257806318160ddd146102d75780631c0de051146102ec575b600080fd5b61028c6105ae565b6040516102999190614b72565b60405180910390f35b6102b56102b03660046142ba565b610644565b60405161029991906149c7565b6102d56102d0366004614528565b61065b565b005b6102df61066f565b60405161029991906149ea565b6102f4610675565b604051610299939291906149d2565b61031661031136600461446e565b61069e565b604051610299919061498f565b6102b5610331366004614205565b6107c1565b6102d5610835565b610346610869565b6040516102999190614c1a565b6102d5610361366004614861565b610872565b6102df6108ea565b6102d561037c366004614849565b6108f9565b6102df610912565b6102b56103973660046142ba565b610936565b6103af6103aa366004614882565b610971565b60405161029993929190614c04565b6103c6610990565b6040516102999190614937565b6103db61099f565b60405161029996959493929190614ac0565b6102df6109fa565b610408610403366004614560565b610a07565b604051610299929190614beb565b610429610424366004614849565b610a38565b6040516102999796959493929190614a90565b6102df610a81565b6104576104523660046143b0565b610aa6565b604051610299919061494b565b610316610b5c565b6102df61047a366004614195565b610b66565b61049261048d366004614560565b610b85565b6040516102999291906149a2565b6102df6104ae366004614195565b610c2a565b6102df6104c136600461465c565b610c45565b6104086104d4366004614560565b610c97565b6103c6610cbc565b6103c6610ce0565b610316610d04565b61028c610e04565b6102df610e65565b6102df61050f36600461474e565b610e6b565b6102b56105223660046142ba565b611033565b6102b56105353660046142ba565b611071565b6103c661107e565b6102df61055036600461471b565b611088565b6102df61111d565b6102df611123565b6102d5610573366004614245565b611208565b610492610586366004614560565b611351565b6102df6105993660046141cd565b611471565b6103166114ae565b6102df6114b8565b60038054604080516020601f600260001961010060018816150201909516949094049384018190048102820181019092528281526060939092909183018282801561063a5780601f1061060f5761010080835404028352916020019161063a565b820191906000526020600020905b81548152906001019060200180831161061d57829003601f168201915b5050505050905090565b6000610651338484611546565b5060015b92915050565b6106636115ae565b61066c816115dc565b50565b60025490565b600080600061068261165a565b15925061068d611677565b915061069761169b565b9050909192565b606081516001600160401b03811180156106b757600080fd5b506040519080825280602002602001820160405280156106e1578160200160208202803683370190505b50905060006106ee6116bf565b905060005b83518110156107ba5773__QueryProcessor________________________6379eaef82600886848151811061072457fe5b6020026020010151856040518463ffffffff1660e01b815260040161074b93929190614b36565b60206040518083038186803b15801561076357600080fd5b505af4158015610777573d6000803e3d6000fd5b505050506040513d601f19601f8201168201806040525081019061079b9190614736565b8382815181106107a757fe5b60209081029190910101526001016106f3565b5050919050565b6000806107ce8533611471565b90506107f2336001600160a01b03871614806107ea5750838210155b61019e6116cc565b6107fd8585856116de565b336001600160a01b0386161480159061081857506000198114155b1561082a5761082a8533858403611546565b506001949350505050565b61083d6117be565b6108456115ae565b61084f60016117d1565b600061085961066f565b111561086757610867611811565b565b60055460ff1690565b61088d818310801561088657506104008211155b60646116cc565b60006108a26001600080600080600080611859565b9050825b828110156108e4576000818152600860205260409020546108c6906118b9565b6108dc5760008181526008602052604090208290555b6001016108a6565b50505050565b60006108f46118c5565b905090565b6109016115ae565b6109096117be565b61066c81611962565b7f000000000000000000000000000000000000000000000000000000000000000090565b3360008181526001602090815260408083206001600160a01b0387168452909152812054909161065191859061096c90866114bf565b611546565b60008060006109818686866119cb565b92509250925093509350939050565b600b546001600160a01b031681565b600080600080600080600060095490506109b881611b06565b96506109c381611b12565b95506109ce81611b1f565b94506109d981611b2c565b93506109e481611b39565b92506109ef81611b46565b915050909192939495565b60006108f4600954611b46565b60006060610a1786516002611b53565b610a2c89898989898989611b60611cb1611d2f565b97509795505050505050565b6000806000806000806000610a53610400891061013b6116cc565b6000610a5e89611e43565b9050610a6981611e55565b959f949e50929c50909a509850965090945092505050565b60006108f4610a8e61066f565b610aa0610a99611123565b6002611eb8565b90611edc565b606081516001600160401b0381118015610abf57600080fd5b50604051908082528060200260200182016040528015610ae9578160200160208202803683370190505b5090506000610af66116bf565b9050610b0061407f565b60005b8451811015610b5457848181518110610b1857fe5b60200260200101519150610b358260000151848460200151611f1b565b848281518110610b4157fe5b6020908102919091010152600101610b03565b505050919050565b60606108f4611fb4565b6001600160a01b0381166000908152602081905260409020545b919050565b60608088610baf610b94610ce0565b6001600160a01b0316336001600160a01b03161460cd6116cc565b610bc4610bba610912565b82146101f46116cc565b610bcd87612022565b6000606080610be18d8d8d8d8d8d8d611b60565b925092509250610bf18c84612084565b610bfa82611cb1565b610c0381611cb1565b610c0b61165a565b15610c1857610c18611811565b909c909b509950505050505050505050565b6001600160a01b031660009081526006602052604090205490565b60007f000000000000000000000000000000000000000000000000000000000000000082604051602001610c7a9291906148f4565b604051602081830303815290604052805190602001209050919050565b60006060610ca786516002611b53565b610a2c8989898989898961208e61213f611d2f565b7f000000000000000000000000000000000000000000000000000000000000000090565b7f000000000000000000000000000000000000000000000000000000000000000090565b606080610d0f610ce0565b6001600160a01b031663f94d4668610d25610912565b6040518263ffffffff1660e01b8152600401610d4191906149ea565b60006040518083038186803b158015610d5957600080fd5b505afa158015610d6d573d6000803e3d6000fd5b505050506040513d6000823e601f3d908101601f19168201604052610d9591908101906142e5565b50915050610dcd81600081518110610da957fe5b602002602001015182600181518110610dbe57fe5b602002602001015160016119cb565b90915083600081518110610ddd57fe5b6020026020010184600181518110610df157fe5b6020908102919091010191909152525090565b60048054604080516020601f600260001961010060018816150201909516949094049384018190048102820181019092528281526060939092909183018282801561063a5780601f1061060f5761010080835404028352916020019161063a565b600a5490565b6000610e756117be565b8360800151610e85610b94610ce0565b610e90610bba610912565b60007f00000000000000000000000000000000000000000000000000000000000000006001600160a01b031686602001516001600160a01b03161490506000610ed88261219d565b90506000610ee6831561219d565b9050610ef287836121f1565b9650610efe86826121f1565b95506000806000610f108a8a886119cb565b925092509250610f578b60a0015187610f29578a610f2b565b8b5b88610f36578c610f38565b8b5b89610f435784610f45565b855b8a610f505786610f52565b855b6121fd565b60008b516001811115610f6657fe5b1415610fd6576000610f84610f796109fa565b60608e0151906122a7565b9050610fa6610fa0828e606001516114f490919063ffffffff16565b876121f1565b60608d01526000610fbb8d8d8d87878a6122eb565b9050610fc78187612309565b9950505050505050505061102b565b610fe48b60600151856121f1565b60608c01526000610ff98c8c8c868689612315565b90506110058187612328565b905061102161101a6110156109fa565b612334565b829061235a565b9850505050505050505b509392505050565b6000806110403385611471565b905080831061105a5761105533856000611546565b611067565b6110673385858403611546565b5060019392505050565b60006106513384846116de565b60006108f46123a5565b600073__QueryProcessor________________________630397bee06008846110af6116bf565b6040518463ffffffff1660e01b81526004016110cd93929190614aea565b60206040518083038186803b1580156110e557600080fd5b505af41580156110f9573d6000803e3d6000fd5b505050506040513d601f19601f820116820180604052508101906106559190614736565b61040090565b6000606061112f610ce0565b6001600160a01b031663f94d4668611145610912565b6040518263ffffffff1660e01b815260040161116191906149ea565b60006040518083038186803b15801561117957600080fd5b505afa15801561118d573d6000803e3d6000fd5b505050506040513d6000823e601f3d908101601f191682016040526111b591908101906142e5565b5091505060606111c3611fb4565b90506111ce82612022565b61120182826000815181106111df57fe5b6020026020010151836001815181106111f457fe5b602002602001015161241f565b9250505090565b6112168442111560d16116cc565b6001600160a01b038716600090815260066020908152604080832054905190929161126d917f0000000000000000000000000000000000000000000000000000000000000000918c918c918c9188918d9101614a12565b604051602081830303815290604052805190602001209050600061129082612452565b90506000600182888888604051600081526020016040526040516112b79493929190614a72565b6020604051602081039080840390855afa1580156112d9573d6000803e3d6000fd5b5050604051601f190151915061131b90506001600160a01b0382161580159061131357508b6001600160a01b0316826001600160a01b0316145b6101f86116cc565b6001600160a01b038b1660009081526006602052604090206001850190556113448b8b8b611546565b5050505050505050505050565b60608088611360610b94610ce0565b61136b610bba610912565b6113736117be565b600061137d61066f565b6113ed5761138d8b8b8b8861246e565b945090506113a2620f424082101560cc6116cc565b6113b06000620f42406124fe565b6113bf89620f424083036124fe565b6113c88461213f565b604080516002808252606082018352909160208301908036833701905050925061145b565b6113f688612022565b611429878960008151811061140757fe5b60200260200101518a60018151811061141c57fe5b6020026020010151612508565b6114388b8b8b8b8b8b8b61208e565b9095509350905061144989826124fe565b6114528461213f565b61145b83611cb1565b611463611811565b505097509795505050505050565b600061147b610ce0565b6001600160a01b0316826001600160a01b0316141561149d5750600019610655565b6114a7838361250d565b9050610655565b60606108f4612538565b6201de2090565b60008282016114d184821015836116cc565b9392505050565b60006114d18383605561150a565b60006114d183836056611531565b60006115048383111560016116cc565b50900390565b60006001821b1984168284611520576000611523565b60015b60ff16901b17949350505050565b6001600160401b03811b1992909216911b1790565b6001600160a01b0380841660008181526001602090815260408083209487168084529490915290819020849055517f8c5be1e5ebec7d5bd14f71427d1e84f3dd0314c0f7b2291e5b200ac8c7c3b925906115a19085906149ea565b60405180910390a3505050565b60006115c56000356001600160e01b031916610c45565b905061066c6115d48233612589565b6101916116cc565b80156115fc576115f76115ed611677565b42106101936116cc565b611611565b61161161160761169b565b42106101a96116cc565b6007805460ff19168215151790556040517f9e3a5e37224532dea67b89face185703738a228a6e8a23dee546960180d3be649061164f9083906149c7565b60405180910390a150565b600061166461169b565b4211806108f457505060075460ff161590565b7f000000000000000000000000000000000000000000000000000000000000000090565b7f000000000000000000000000000000000000000000000000000000000000000090565b60006108f4600954611b2c565b816116da576116da81612672565b5050565b6116f56001600160a01b03841615156101986116cc565b61170c6001600160a01b03831615156101996116cc565b611717838383612508565b6001600160a01b03831660009081526020819052604090205461173d90826101a06126c5565b6001600160a01b03808516600090815260208190526040808220939093559084168152205461176c90826114bf565b6001600160a01b0380841660008181526020819052604090819020939093559151908516907fddf252ad1be2c89b69c2b068fc378daa952ba7f163c4a11628f55a4df523b3ef906115a19085906149ea565b6108676117c961165a565b6101926116cc565b6009546117de90826114d8565b6009556040517f3e350b41e86a8e10f804ade6d35340d620be35569cc75ac943e8bb14ab80ead19061164f9083906149c7565b60095461181d81611b39565b1561066c57611837611830600a546126db565b829061271b565b905061185361184c61184761066f565b6126db565b8290612728565b60095550565b60006118658282612736565b61187084601f61273a565b61187b86605461274b565b61188688606a61273a565b6118918a609f61274b565b61189c8c60b561273a565b6118a78e60ea61274b565b17171717171798975050505050505050565b60006106558282612758565b60007f00000000000000000000000000000000000000000000000000000000000000007f00000000000000000000000000000000000000000000000000000000000000007f0000000000000000000000000000000000000000000000000000000000000000611932612762565b30604051602001611947959493929190614a46565b60405160208183030381529060405280519060200120905090565b61197564e8d4a5100082101560cb6116cc565b61198b67016345785d8a000082111560ca6116cc565b60095461199890826114e6565b6009556040517fa9ba3ffe0b6c366b81232caab38605a0699ad5398d6cce76f91ee809e322dafc9061164f9083906149ea565b60408051600280825260608083018452600093849384939091602083019080368337019050509050846119fe5785611a00565b865b81600081518110611a0d57fe5b60200260200101818152505084611a245786611a26565b855b81600181518110611a3357fe5b6020026020010181815250506060611a49611fb4565b9050611a5c82826000815181106111df57fe5b604080516002808252606080830184529398509091602083019080368337019050509050611a8a8287612766565b905086611aab5780600181518110611a9e57fe5b6020026020010151611ac1565b80600081518110611ab857fe5b60200260200101515b945086611ae25780600081518110611ad557fe5b6020026020010151611af8565b80600181518110611aef57fe5b60200260200101515b935050505093509350939050565b600061065582826127f4565b60006106558260166127f4565b600061065582602c612758565b600061065582604b61281b565b6000610655826055612823565b600061065582605661282d565b6116da81831460676116cc565b60006060806060611b6f611fb4565b9050611b7961165a565b15611c4a576000611ba68983600081518110611b9157fe5b6020026020010151846001815181106111f457fe5b90506060611bb48383612766565b9050611c13898b600081518110611bc757fe5b60200260200101518c600181518110611bdc57fe5b602002602001015184600081518110611bf157fe5b602002602001015185600181518110611c0657fe5b60200260200101516121fd565b611c1c8261283a565b611c268a88612867565b9096509450611c3f8287611c3861066f565b60006128b3565b600a5550611c7b9050565b611c548886612867565b9094509250611c6688846114f461290b565b611c7788826000815181106111df57fe5b600a555b60408051600280825260608201835286928692919060208301908036833701905050935093509350509750975097945050505050565b611cd881600081518110611cc157fe5b6020026020010151611cd3600161219d565b61299d565b81600081518110611ce557fe5b602002602001018181525050611d1381600181518110611d0157fe5b6020026020010151611cd3600061219d565b81600181518110611d2057fe5b60200260200101818152505050565b333014611ded576000306001600160a01b0316600036604051611d5392919061490c565b6000604051808303816000865af19150503d8060008114611d90576040519150601f19603f3d011682016040523d82523d6000602084013e611d95565b606091505b505090508060008114611da457fe5b60046000803e6000516001600160e01b0319166343adbafb60e01b8114611dcf573d6000803e3d6000fd5b506020600460003e604060205260243d03602460403e601c3d016000f35b611df686612022565b60006060611e0d8b8b8b8b8b8b8b8b63ffffffff16565b5091509150611e1f818463ffffffff16565b8051601f1982018390526343adbafb603f1983015260200260231982016044820181fd5b60009081526008602052604090205490565b6000806000806000806000611e69886129bd565b9650611e74886129ca565b9550611e7f886129d7565b9450611e8a886129e4565b9350611e95886129f1565b9250611ea0886129fe565b9150611eab886118b9565b9050919395979092949650565b60008282026114d1841580611ed5575083858381611ed257fe5b04145b60036116cc565b600081611ee857600080fd5b670de0b6b3a764000083810290848281611efe57fe5b0414611f0957600080fd5b828181611f1257fe5b04949350505050565b6040516334171a8560e01b815260009073__QueryProcessor________________________906334171a8590611f5c90600890889088908890600401614b0b565b60206040518083038186803b158015611f7457600080fd5b505af4158015611f88573d6000803e3d6000fd5b505050506040513d601f19601f82011682018060405250810190611fac9190614736565b949350505050565b604080516002808252606080830184529283929190602083019080368337019050509050611fe26001612a0b565b81600081518110611fef57fe5b6020026020010181815250506120056000612a0b565b8160018151811061201257fe5b6020908102919091010152905090565b6120498160008151811061203257fe5b6020026020010151612044600161219d565b611eb8565b8160008151811061205657fe5b602002602001018181525050611d138160018151811061207257fe5b6020026020010151612044600061219d565b6116da8282612a5f565b6000606080606061209d611fb4565b905060006120b28983600081518110611b9157fe5b905060606120c08383612766565b90506120d3898b600081518110611bc757fe5b6120dc8261283a565b600060606120ea8c8a612b1b565b9150915061210284836120fb61066f565b60016128b3565b600a556040805160028082526060820183528492849291906020830190803683370190505097509750975050505050509750975097945050505050565b6121668160008151811061214f57fe5b6020026020010151612161600161219d565b612b55565b8160008151811061217357fe5b602002602001018181525050611d138160018151811061218f57fe5b602002602001015161216160005b6000816121ca577f0000000000000000000000000000000000000000000000000000000000000000610655565b507f0000000000000000000000000000000000000000000000000000000000000000919050565b60006114d18383611eb8565b60095461220981611b39565b801561221457508543115b1561229f57600061222786858786612b88565b905060006122408786888761223b88611b12565b612ba2565b9050600061224d84611b2c565b9050600061225a85611b1f565b905060006122738284878761226e8b611b06565b612be8565b9050808314611344576122868682612c3f565b95506122928642612c4d565b6009819055955050505050505b505050505050565b60008282026122c1841580611ed5575083858381611ed257fe5b806122d0576000915050610655565b670de0b6b3a764000060001982015b04600101915050610655565b60006122fe868689606001518787612c5b565b979650505050505050565b60006114d1838361299d565b60006122fe868689606001518787612cff565b60006114d18383612b55565b6000670de0b6b3a7640000821061234c576000610655565b50670de0b6b3a76400000390565b600061236982151560046116cc565b8261237657506000610655565b670de0b6b3a7640000838102906123999085838161239057fe5b041460056116cc565b8260018203816122df57fe5b60006123af610ce0565b6001600160a01b031663aaabadc56040518163ffffffff1660e01b815260040160206040518083038186803b1580156123e757600080fd5b505afa1580156123fb573d6000803e3d6000fd5b505050506040513d601f19601f820116820180604052508101906108f491906141b1565b6000806000806000612432888888612d9e565b935093509350935061244684848484612f18565b98975050505050505050565b600061245c6118c5565b82604051602001610c7a92919061491c565b60006060600061247d84612f8c565b9050612498600082600381111561249057fe5b1460ce6116cc565b60606124a385612fa2565b90506124b181516002611b53565b6124ba81612022565b60606124c4611fb4565b905060006124d98383600081518110611b9157fe5b905060006124e8826002611eb8565b600a929092555099919850909650505050505050565b6116da8282612fb8565b505050565b6001600160a01b03918216600090815260016020908152604080832093909416825291909152205490565b6040805160028082526060808301845292839291906020830190803683370190505090506125666001613046565b8160008151811061257357fe5b6020026020010181815250506120056000613046565b600073ba1ba1ba1ba1ba1ba1ba1ba1ba1ba1ba1ba1ba1b6125a8610cbc565b6001600160a01b0316141580156125c357506125c38361309a565b156125eb576125d0610cbc565b6001600160a01b0316336001600160a01b0316149050610655565b6125f36123a5565b6001600160a01b0316639be2a8848484306040518463ffffffff1660e01b8152600401612622939291906149f3565b60206040518083038186803b15801561263a57600080fd5b505afa15801561264e573d6000803e3d6000fd5b505050506040513d601f19601f820116820180604052508101906114a79190614544565b62461bcd60e51b6000908152602060045260076024526642414c23000030600a808404818106603090810160081b95839006959095019082900491820690940160101b939093010160c81b604452606490fd5b60006126d484841115836116cc565b5050900390565b6000806126e7836130cc565b9050600080821361270057652d79883d2000820361270a565b652d79883d200082015b655af3107a40009005949350505050565b60006114d1838383613130565b60006114d183836016613130565b1b90565b661fffffffffffff91909116901b90565b623fffff91909116901b90565b1c637fffffff1690565b4690565b6040805160028082526060808301845292839291906020830190803683370190505090506127aa60018560018151811061279c57fe5b602002602001015185613147565b816000815181106127b757fe5b6020026020010181815250506127d560008560008151811061279c57fe5b816001815181106127e257fe5b60209081029190910101529392505050565b600082821c623fffff16621fffff811361280e5780611fac565b623fffff19179392505050565b1c6103ff1690565b1c60019081161490565b1c6001600160401b031690565b60008060008061284c600a5486613167565b9350935093509350612860848484846131d0565b5050505050565b60006060600061287684612f8c565b9050600181600381111561288657fe5b14156128a05761289685856131f0565b90935091506128ab565b6128ab610150612672565b509250929050565b600081156128e55760006128d1846128cb88886122a7565b9061235a565b90506128dd86826114bf565b915050611fac565b60006128f584610aa08888613222565b905061290186826114f4565b9695505050505050565b6129418360008151811061291b57fe5b60200260200101518360008151811061293057fe5b60200260200101518363ffffffff16565b8360008151811061294e57fe5b60200260200101818152505061297f8360018151811061296a57fe5b60200260200101518360018151811061293057fe5b8360018151811061298c57fe5b602002602001018181525050505050565b60006129ac82151560046116cc565b8183816129b557fe5b049392505050565b60006106558260ea6127f4565b60006106558260b561324b565b600061065582609f6127f4565b600061065582606a61324b565b60006106558260546127f4565b600061065582601f61324b565b600081612a38577f0000000000000000000000000000000000000000000000000000000000000000610655565b507f0000000000000000000000000000000000000000000000000000000000000000919050565b612a766001600160a01b038316151561019b6116cc565b612a8282600083612508565b6001600160a01b038216600090815260208190526040902054612aa890826101a16126c5565b6001600160a01b038316600090815260208190526040902055600254612ace908261327e565b6002556040516000906001600160a01b038416907fddf252ad1be2c89b69c2b068fc378daa952ba7f163c4a11628f55a4df523b3ef90612b0f9085906149ea565b60405180910390a35050565b600060606000612b2a84612f8c565b90506003816003811115612b3a57fe5b1415612b4a57612896858561328c565b6128ab610136612672565b6000612b6482151560046116cc565b82612b7157506000610655565b816001840381612b7d57fe5b046001019050610655565b600080612b97868686866132b1565b9050612901816126db565b600080612bb1878787876132b1565b90506000612bc9612bc287846122a7565b89906114bf565b90506000612bd6826126db565b85900393505050505b95945050505050565b600080612c0485858542612bfb8b611e43565b939291906132d9565b9050607842889003101580612c195786612c22565b612c228761332b565b600081815260086020526040902092909255509695505050505050565b60006114d18383604b613338565b60006114d18383602c613348565b6000612c7d612c7287670429d069189e0000613222565b8511156101306116cc565b6000612c9b612c9485670de0b6b3a76400026122a7565b88906114bf565b90506000612cb4612c9485670de0b6b3a763ffff613222565b9050612ccd612cc383886114bf565b610aa08389613222565b92505050612cdf8582106101656116cc565b612bdf612cf486670429d069189e0000613222565b8211156101316116cc565b6000612d0f8585106101656116cc565b612d2f612d2486670429d069189e0000613222565b8511156101316116cc565b6000612d46612c9485670de0b6b3a76400026122a7565b90506000612d5f612c9485670de0b6b3a763ffff613222565b9050612d78612d6e82886114f4565b6128cb84896122a7565b9250612bdf9150612d93905087670429d069189e0000613222565b8211156101306116cc565b6000808080612dbf612db08787611edc565b670de0b6b3a7640000906114f4565b93506000612dea8689600181518110612dd457fe5b6020026020010151611edc90919063ffffffff16565b90506000612e15888a600081518110612dff57fe5b602002602001015161322290919063ffffffff16565b9050612e2182826114bf565b9450612e4889600181518110612e3357fe5b60200260200101518a600081518110612dff57fe5b92505050612e7f86612e7988612e798b600081518110612e6457fe5b60200260200101518c600081518110612dff57fe5b90613222565b91506000612ebf86610aa089612e79670de0b6b3a7640000600202612e798e600181518110612eaa57fe5b60200260200101518f600081518110612dff57fe5b90506000612ef5612ed088806122a7565b610aa08b600181518110612ee057fe5b60200260200101518c600181518110612dff57fe5b9050612f0b81612f0586856114bf565b906114bf565b9350505093509350935093565b600080612f2d86671bc16d674ec800006122a7565b90506000612f4787612e7986673782dace9d900000613222565b90506000612f5586836114bf565b90506000612f6482600561335a565b90506000612f7289836114bf565b9050612f7e8186611edc565b9a9950505050505050505050565b6000818060200190518101906106559190614684565b6060818060200190518101906114d191906146cd565b612fc460008383612508565b600254612fd190826114bf565b6002556001600160a01b038216600090815260208190526040902054612ff790826114bf565b6001600160a01b0383166000818152602081905260408082209390935591519091907fddf252ad1be2c89b69c2b068fc378daa952ba7f163c4a11628f55a4df523b3ef90612b0f9085906149ea565b600081613073577f0000000000000000000000000000000000000000000000000000000000000000610655565b507f0000000000000000000000000000000000000000000000000000000000000000919050565b60006130ac631c74c91760e11b610c45565b82148061065557506130c46350dd6ed960e01b610c45565b909114919050565b60006130dc6000831360646116cc565b670c7d713b49da0000821380156130fa5750670f43fc2c04ee000082125b1561312057670de0b6b3a7640000613111836134cd565b8161311857fe5b059050610b80565b613129826135eb565b9050610b80565b623fffff828116821b90821b198416179392505050565b60008361315d57613158828461398a565b611fac565b611fac8284613996565b60008060008060008060008061317b6139a2565b935093509350935083600014156131a0576000975087965090945092506131c7915050565b6000806131b78c8c6131b061066f565b8989613c11565b909a509850929650909450505050505b92959194509250565b83156131e0576131e082856124fe565b82156108e4576108e481846124fe565b6000606060006131ff84613ca6565b90506060613215868361321061066f565b613cbc565b9196919550909350505050565b600082820261323c841580611ed5575083858381611ed257fe5b670de0b6b3a764000081611f12565b600082821c661fffffffffffff16660fffffffffffff811361326d5780611fac565b661fffffffffffff19179392505050565b60006114d1838360016126c5565b60006060600061329b84613ca6565b9050606061321586836132ac61066f565b613d57565b60006706f05b59d3b200006129016132cd826128cb87876114bf565b6128cb83818a8a6114bf565b6000806132e5876118b9565b8303905060008187026132f7896129ca565b01905060008287026133088a6129e4565b01905060008387026133198b6129fe565b019050612f7e89848a858b868c611859565b6000610655826001613dfe565b6103ff811b1992909216911b1790565b637fffffff811b1992909216911b1790565b60008261336957506000610655565b600061337484613e06565b9050600281670de0b6b3a764000086028161338b57fe5b0482018161339557fe5b049050600281670de0b6b3a76400008602816133ad57fe5b048201816133b757fe5b049050600281670de0b6b3a76400008602816133cf57fe5b048201816133d957fe5b049050600281670de0b6b3a76400008602816133f157fe5b048201816133fb57fe5b049050600281670de0b6b3a764000086028161341357fe5b0482018161341d57fe5b049050600281670de0b6b3a764000086028161343557fe5b0482018161343f57fe5b049050600281670de0b6b3a764000086028161345757fe5b0482018161346157fe5b04905060006134708280613222565b905061348661347f83866122a7565b86906114bf565b81111580156134a857506134a461349d83866122a7565b86906114f4565b8110155b61102b5760405162461bcd60e51b81526004016134c490614bc5565b60405180910390fd5b670de0b6b3a7640000026000806a0c097ce7bc90715b34b9f160241b808401906ec097ce7bc90715b34b9f0fffffffff198501028161350857fe5b05905060006a0c097ce7bc90715b34b9f160241b82800205905081806a0c097ce7bc90715b34b9f160241b81840205915060038205016a0c097ce7bc90715b34b9f160241b82840205915060058205016a0c097ce7bc90715b34b9f160241b82840205915060078205016a0c097ce7bc90715b34b9f160241b82840205915060098205016a0c097ce7bc90715b34b9f160241b828402059150600b8205016a0c097ce7bc90715b34b9f160241b828402059150600d8205016a0c097ce7bc90715b34b9f160241b828402059150600f826002919005919091010295945050505050565b6000670de0b6b3a76400008212156136275761361d826a0c097ce7bc90715b34b9f160241b8161361757fe5b056135eb565b6000039050610b80565b60007e1600ef3172e58d2e933ec884fde10064c63b5372d805e203c0000000000000831261367857770195e54c5dd42177f53a27172fa9ec630262827000000000830592506806f05b59d3b2000000015b73011798004d755d3c8bc8e03204cf44619e00000083126136b0576b1425982cf597cd205cef7380830592506803782dace9d9000000015b606492830292026e01855144814a7ff805980ff008400083126136f8576e01855144814a7ff805980ff008400068056bc75e2d63100000840205925068ad78ebc5ac62000000015b6b02df0ab5a80a22c61ab5a7008312613733576b02df0ab5a80a22c61ab5a70068056bc75e2d6310000084020592506856bc75e2d631000000015b693f1fce3da636ea5cf850831261376a57693f1fce3da636ea5cf85068056bc75e2d631000008402059250682b5e3af16b18800000015b690127fa27722cc06cc5e283126137a157690127fa27722cc06cc5e268056bc75e2d6310000084020592506815af1d78b58c400000015b68280e60114edb805d0383126137d65768280e60114edb805d0368056bc75e2d631000008402059250680ad78ebc5ac6200000015b680ebc5fb41746121110831261380157680ebc5fb4174612111068056bc75e2d631000009384020592015b6808f00f760a4b2db55d8312613836576808f00f760a4b2db55d68056bc75e2d6310000084020592506802b5e3af16b1880000015b6806f5f1775788937937831261386b576806f5f177578893793768056bc75e2d63100000840205925068015af1d78b58c40000015b6806248f33704b286603831261389f576806248f33704b28660368056bc75e2d63100000840205925067ad78ebc5ac620000015b6805c548670b9510e7ac83126138d3576805c548670b9510e7ac68056bc75e2d6310000084020592506756bc75e2d6310000015b600068056bc75e2d63100000840168056bc75e2d6310000080860302816138f657fe5b059050600068056bc75e2d63100000828002059050818068056bc75e2d63100000818402059150600382050168056bc75e2d63100000828402059150600582050168056bc75e2d63100000828402059150600782050168056bc75e2d63100000828402059150600982050168056bc75e2d63100000828402059150600b820501600202606485820105979650505050505050565b60006114d18383613222565b60006114d18383611edc565b600b5460405163bd02d0f560e01b81526000918291829182916001600160a01b039091169063bd02d0f5906139f4907550524f544f434f4c5f535741505f4645455f5045524360501b906004016149ea565b60206040518083038186803b158015613a0c57600080fd5b505afa158015613a20573d6000803e3d6000fd5b505050506040513d601f19601f82011682018060405250810190613a449190614736565b600b5460405163bd02d0f560e01b81526001600160a01b039091169063bd02d0f590613a94907f50524f544f434f4c5f4645455f4759524f5f504f5254494f4e00000000000000906004016149ea565b60206040518083038186803b158015613aac57600080fd5b505afa158015613ac0573d6000803e3d6000fd5b505050506040513d601f19601f82011682018060405250810190613ae49190614736565b600b546040516321f8a72160e01b81526001600160a01b03909116906321f8a72190613b24906c4759524f5f545245415355525960981b906004016149ea565b60206040518083038186803b158015613b3c57600080fd5b505afa158015613b50573d6000803e3d6000fd5b505050506040513d601f19601f82011682018060405250810190613b7491906141b1565b600b546040516321f8a72160e01b81526001600160a01b03909116906321f8a72190613bb3906b42414c5f545245415355525960a01b906004016149ea565b60206040518083038186803b158015613bcb57600080fd5b505afa158015613bdf573d6000803e3d6000fd5b505050506040513d601f19601f82011682018060405250810190613c0391906141b1565b935093509350935090919293565b600080868611613c2657506000905080613c9c565b6000613c4085612e79613c398a8c6114f4565b8990613222565b90506000613c58613c51898b6114f4565b8790613222565b90506000613c6689836114f4565b90506000613c748483611edc565b90506000613c828883613222565b90506000613c9083836114f4565b91975090955050505050505b9550959350505050565b6000818060200190518101906114d191906146a0565b60606000613cca8484611edc565b9050606085516001600160401b0381118015613ce557600080fd5b50604051908082528060200260200182016040528015613d0f578160200160208202803683370190505b50905060005b8651811015613d4d57613d2e83888381518110612dff57fe5b828281518110613d3a57fe5b6020908102919091010152600101613d15565b5095945050505050565b60606000613d65848461235a565b9050606085516001600160401b0381118015613d8057600080fd5b50604051908082528060200260200182016040528015613daa578160200160208202803683370190505b50905060005b8651811015613d4d57613ddf83888381518110613dc957fe5b60200260200101516122a790919063ffffffff16565b828281518110613deb57fe5b6020908102919091010152600101613db0565b016103ff1690565b6000670de0b6b3a76400008210613e3357670de0b6b3a7640000613e2b818404613fe9565b1b9050610b80565b600a821015613e4757506312d940b6610b80565b6064821015613e5c57506402540be400610b80565b6103e8821015613e72575064075cdd4719610b80565b612710821015613e88575064174876e800610b80565b620186a0821015613e9f57506449a0a4c700610b80565b620f4240821015613eb6575064e8d4a51000610b80565b62989680821015613ece57506502e0466fc608610b80565b6305f5e100821015613ee757506509184e72a000610b80565b633b9aca00821015613f005750651cc2c05dbc53610b80565b6402540be400821015613f1a5750655af3107a4000610b80565b64174876e800821015613f35575066011f9b83a95b45610b80565b64e8d4a51000821015613f50575066038d7ea4c68000610b80565b6509184e72a000821015613f6c5750660b3c13249d90bb610b80565b655af3107a4000821015613f885750662386f26fc10000610b80565b66038d7ea4c68000821015613fa55750667058bf6e27a751610b80565b662386f26fc10000821015613fc3575067016345785d8a0000610b80565b67016345785d8a0000821015613fe25750670463777a4d8c892d610b80565b5080610b80565b6000600160801b82106140015760809190911c906040015b68010000000000000000821061401c5760409190911c906020015b64010000000082106140335760209190911c906010015b6201000082106140485760109190911c906008015b610100821061405c5760089190911c906004015b6010821061406f5760049190911c906002015b60048210610b8057600101919050565b604080518082019091526000808252602082015290565b803561065581614c77565b600082601f8301126140b1578081fd5b81516140c46140bf82614c4e565b614c28565b8181529150602080830190848101818402860182018710156140e557600080fd5b60005b84811015614104578151845292820192908201906001016140e8565b505050505092915050565b600082601f83011261411f578081fd5b81356001600160401b03811115614134578182fd5b614147601f8201601f1916602001614c28565b915080825283602082850101111561415e57600080fd5b8060208401602084013760009082016020015292915050565b80356002811061065557600080fd5b80356003811061065557600080fd5b6000602082840312156141a6578081fd5b81356114d181614c77565b6000602082840312156141c2578081fd5b81516114d181614c77565b600080604083850312156141df578081fd5b82356141ea81614c77565b915060208301356141fa81614c77565b809150509250929050565b600080600060608486031215614219578081fd5b833561422481614c77565b9250602084013561423481614c77565b929592945050506040919091013590565b600080600080600080600060e0888a03121561425f578485fd5b873561426a81614c77565b9650602088013561427a81614c77565b95506040880135945060608801359350608088013560ff8116811461429d578384fd5b9699959850939692959460a0840135945060c09093013592915050565b600080604083850312156142cc578182fd5b82356142d781614c77565b946020939093013593505050565b6000806000606084860312156142f9578081fd5b83516001600160401b038082111561430f578283fd5b818601915086601f830112614322578283fd5b81516143306140bf82614c4e565b80828252602080830192508086018b828387028901011115614350578788fd5b8796505b8487101561437b57805161436781614c77565b845260019690960195928101928101614354565b508901519097509350505080821115614392578283fd5b5061439f868287016140a1565b925050604084015190509250925092565b600060208083850312156143c2578182fd5b82356001600160401b038111156143d7578283fd5b8301601f810185136143e7578283fd5b80356143f56140bf82614c4e565b818152838101908385016040808502860187018a1015614413578788fd5b8795505b848610156144605780828b03121561442d578788fd5b61443681614c28565b6144408b84614186565b815282880135888201528452600195909501949286019290810190614417565b509098975050505050505050565b60006020808385031215614480578182fd5b82356001600160401b03811115614495578283fd5b8301601f810185136144a5578283fd5b80356144b36140bf82614c4e565b818152838101908385016060808502860187018a10156144d1578788fd5b8795505b848610156144605780828b0312156144eb578788fd5b6144f481614c28565b6144fe8b84614186565b815282880135888201526040808401359082015284526001959095019492860192908101906144d5565b600060208284031215614539578081fd5b81356114d181614c8c565b600060208284031215614555578081fd5b81516114d181614c8c565b600080600080600080600060e0888a03121561457a578081fd5b8735965060208089013561458d81614c77565b9650604089013561459d81614c77565b955060608901356001600160401b03808211156145b8578384fd5b818b0191508b601f8301126145cb578384fd5b81356145d96140bf82614c4e565b8082825285820191508585018f8788860288010111156145f7578788fd5b8795505b838610156146195780358352600195909501949186019186016145fb565b509850505060808b0135955060a08b0135945060c08b013592508083111561463f578384fd5b505061464d8a828b0161410f565b91505092959891949750929550565b60006020828403121561466d578081fd5b81356001600160e01b0319811681146114d1578182fd5b600060208284031215614695578081fd5b81516114d181614c9a565b600080604083850312156146b2578182fd5b82516146bd81614c9a565b6020939093015192949293505050565b600080604083850312156146df578182fd5b82516146ea81614c9a565b60208401519092506001600160401b03811115614705578182fd5b614711858286016140a1565b9150509250929050565b60006020828403121561472c578081fd5b6114d18383614186565b600060208284031215614747578081fd5b5051919050565b600080600060608486031215614762578081fd5b83356001600160401b0380821115614778578283fd5b818601915061012080838903121561478e578384fd5b61479781614c28565b90506147a38884614177565b81526147b28860208501614096565b60208201526147c48860408501614096565b6040820152606083013560608201526080830135608082015260a083013560a08201526147f48860c08501614096565b60c08201526148068860e08501614096565b60e0820152610100808401358381111561481e578586fd5b61482a8a82870161410f565b9183019190915250976020870135975060409096013595945050505050565b60006020828403121561485a578081fd5b5035919050565b60008060408385031215614873578182fd5b50508035926020909101359150565b600080600060608486031215614896578081fd5b833592506020840135915060408401356148af81614c8c565b809150509250925092565b6000815180845260208085019450808401835b838110156148e9578151875295820195908201906001016148cd565b509495945050505050565b9182526001600160e01b031916602082015260240190565b6000828483379101908152919050565b61190160f01b81526002810192909252602282015260420190565b6001600160a01b0391909116815260200190565b6020808252825182820181905260009190848201906040850190845b8181101561498357835183529284019291840191600101614967565b50909695505050505050565b6000602082526114d160208301846148ba565b6000604082526149b560408301856148ba565b8281036020840152612bdf81856148ba565b901515815260200190565b92151583526020830191909152604082015260600190565b90815260200190565b9283526001600160a01b03918216602084015216604082015260600190565b9586526001600160a01b0394851660208701529290931660408501526060840152608083019190915260a082015260c00190565b9485526020850193909352604084019190915260608301526001600160a01b0316608082015260a00190565b93845260ff9290921660208401526040830152606082015260800190565b968752602087019590955260408601939093526060850191909152608084015260a083015260c082015260e00190565b9586526020860194909452604085019290925260608401521515608083015260a082015260c00190565b83815260608101614afa84614c6d565b602082019390935260400152919050565b84815260808101614b1b85614c6d565b84602083015283604083015282606083015295945050505050565b838152825160a0820190614b4981614c6d565b806020840152506020840151604083015260408401516060830152826080830152949350505050565b6000602080835283518082850152825b81811015614b9e57858101830151858201604001528201614b82565b81811115614baf5783604083870101525b50601f01601f1916929092016040019392505050565b6020808252600c908201526b17dcdc5c9d0811905253115160a21b604082015260600190565b600083825260406020830152611fac60408301846148ba565b9283526020830191909152604082015260600190565b60ff91909116815260200190565b6040518181016001600160401b0381118282101715614c4657600080fd5b604052919050565b60006001600160401b03821115614c63578081fd5b5060209081020190565b6003811061066c57fe5b6001600160a01b038116811461066c57600080fd5b801515811461066c57600080fd5b6004811061066c57600080fdfea2646970667358221220aac763e46c6ded7f138ef24a7bca19ca00123477927b5c41d802a4885764bc8064736f6c63430007010033","bytecodeSha1":"49a80ff94aa893c0082cf54801646a25e6c188b0","compiler":{"evm_version":"istanbul","optimizer":{"enabled":true,"runs":200},"version":"0.7.1+commit.f4a555be"},"contractName":"GyroTwoPool","deployedBytecode":"608060405234801561001057600080fd5b506004361061027f5760003560e01c8063707dcd1e1161015c5780639d2c110c116100ce578063c0ff1a1511610087578063c0ff1a151461055d578063d505accf14610565578063d5c096c414610578578063dd62ed3e1461058b578063f89f27ed1461059e578063ffd088eb146105a65761027f565b80639d2c110c14610501578063a457c2d714610514578063a9059cbb14610527578063aaabadc51461053a578063b10be73914610542578063b48b5b40146105555761027f565b806387ec68171161012057806387ec6817146104c6578063893d20e8146104d95780638d928af8146104e15780638dd9f89d146104e957806395d89b41146104f15780639b02cdde146104f95761027f565b8063707dcd1e1461046457806370a082311461046c57806374f3b0091461047f5780637ecebe00146104a0578063851c1bb3146104b35761027f565b806338e9922e116101f55780634a6b0b15116101b95780634a6b0b15146103d357806355c67628146103ed5780636028bfd4146103f557806360d1507c14610416578063679aefce1461043c5780636b843239146104445761027f565b806338e9922e1461036e57806338fff2d01461038157806339509351146103895780633c4dd5bb1461039c57806344bbdb55146103be5761027f565b80631dccd830116102475780631dccd8301461030357806323b872dd14610323578063292c914a14610336578063313ce5671461033e5780633331bc36146103535780633644e515146103665761027f565b806306fdde0314610284578063095ea7b3146102a257806316c38b3c146102c257806318160ddd146102d75780631c0de051146102ec575b600080fd5b61028c6105ae565b6040516102999190614b72565b60405180910390f35b6102b56102b03660046142ba565b610644565b60405161029991906149c7565b6102d56102d0366004614528565b61065b565b005b6102df61066f565b60405161029991906149ea565b6102f4610675565b604051610299939291906149d2565b61031661031136600461446e565b61069e565b604051610299919061498f565b6102b5610331366004614205565b6107c1565b6102d5610835565b610346610869565b6040516102999190614c1a565b6102d5610361366004614861565b610872565b6102df6108ea565b6102d561037c366004614849565b6108f9565b6102df610912565b6102b56103973660046142ba565b610936565b6103af6103aa366004614882565b610971565b60405161029993929190614c04565b6103c6610990565b6040516102999190614937565b6103db61099f565b60405161029996959493929190614ac0565b6102df6109fa565b610408610403366004614560565b610a07565b604051610299929190614beb565b610429610424366004614849565b610a38565b6040516102999796959493929190614a90565b6102df610a81565b6104576104523660046143b0565b610aa6565b604051610299919061494b565b610316610b5c565b6102df61047a366004614195565b610b66565b61049261048d366004614560565b610b85565b6040516102999291906149a2565b6102df6104ae366004614195565b610c2a565b6102df6104c136600461465c565b610c45565b6104086104d4366004614560565b610c97565b6103c6610cbc565b6103c6610ce0565b610316610d04565b61028c610e04565b6102df610e65565b6102df61050f36600461474e565b610e6b565b6102b56105223660046142ba565b611033565b6102b56105353660046142ba565b611071565b6103c661107e565b6102df61055036600461471b565b611088565b6102df61111d565b6102df611123565b6102d5610573366004614245565b611208565b610492610586366004614560565b611351565b6102df6105993660046141cd565b611471565b6103166114ae565b6102df6114b8565b60038054604080516020601f600260001961010060018816150201909516949094049384018190048102820181019092528281526060939092909183018282801561063a5780601f1061060f5761010080835404028352916020019161063a565b820191906000526020600020905b81548152906001019060200180831161061d57829003601f168201915b5050505050905090565b6000610651338484611546565b5060015b92915050565b6106636115ae565b61066c816115dc565b50565b60025490565b600080600061068261165a565b15925061068d611677565b915061069761169b565b9050909192565b606081516001600160401b03811180156106b757600080fd5b506040519080825280602002602001820160405280156106e1578160200160208202803683370190505b50905060006106ee6116bf565b905060005b83518110156107ba5773__$85f042f43089d976c21d0d184f206dc395$__6379eaef82600886848151811061072457fe5b6020026020010151856040518463ffffffff1660e01b815260040161074b93929190614b36565b60206040518083038186803b15801561076357600080fd5b505af4158015610777573d6000803e3d6000fd5b505050506040513d601f19601f8201168201806040525081019061079b9190614736565b8382815181106107a757fe5b60209081029190910101526001016106f3565b5050919050565b6000806107ce8533611471565b90506107f2336001600160a01b03871614806107ea5750838210155b61019e6116cc565b6107fd8585856116de565b336001600160a01b0386161480159061081857506000198114155b1561082a5761082a8533858403611546565b506001949350505050565b61083d6117be565b6108456115ae565b61084f60016117d1565b600061085961066f565b111561086757610867611811565b565b60055460ff1690565b61088d818310801561088657506104008211155b60646116cc565b60006108a26001600080600080600080611859565b9050825b828110156108e4576000818152600860205260409020546108c6906118b9565b6108dc5760008181526008602052604090208290555b6001016108a6565b50505050565b60006108f46118c5565b905090565b6109016115ae565b6109096117be565b61066c81611962565b7f000000000000000000000000000000000000000000000000000000000000000090565b3360008181526001602090815260408083206001600160a01b0387168452909152812054909161065191859061096c90866114bf565b611546565b60008060006109818686866119cb565b92509250925093509350939050565b600b546001600160a01b031681565b600080600080600080600060095490506109b881611b06565b96506109c381611b12565b95506109ce81611b1f565b94506109d981611b2c565b93506109e481611b39565b92506109ef81611b46565b915050909192939495565b60006108f4600954611b46565b60006060610a1786516002611b53565b610a2c89898989898989611b60611cb1611d2f565b97509795505050505050565b6000806000806000806000610a53610400891061013b6116cc565b6000610a5e89611e43565b9050610a6981611e55565b959f949e50929c50909a509850965090945092505050565b60006108f4610a8e61066f565b610aa0610a99611123565b6002611eb8565b90611edc565b606081516001600160401b0381118015610abf57600080fd5b50604051908082528060200260200182016040528015610ae9578160200160208202803683370190505b5090506000610af66116bf565b9050610b0061407f565b60005b8451811015610b5457848181518110610b1857fe5b60200260200101519150610b358260000151848460200151611f1b565b848281518110610b4157fe5b6020908102919091010152600101610b03565b505050919050565b60606108f4611fb4565b6001600160a01b0381166000908152602081905260409020545b919050565b60608088610baf610b94610ce0565b6001600160a01b0316336001600160a01b03161460cd6116cc565b610bc4610bba610912565b82146101f46116cc565b610bcd87612022565b6000606080610be18d8d8d8d8d8d8d611b60565b925092509250610bf18c84612084565b610bfa82611cb1565b610c0381611cb1565b610c0b61165a565b15610c1857610c18611811565b909c909b509950505050505050505050565b6001600160a01b031660009081526006602052604090205490565b60007f000000000000000000000000000000000000000000000000000000000000000082604051602001610c7a9291906148f4565b604051602081830303815290604052805190602001209050919050565b60006060610ca786516002611b53565b610a2c8989898989898961208e61213f611d2f565b7f000000000000000000000000000000000000000000000000000000000000000090565b7f000000000000000000000000000000000000000000000000000000000000000090565b606080610d0f610ce0565b6001600160a01b031663f94d4668610d25610912565b6040518263ffffffff1660e01b8152600401610d4191906149ea565b60006040518083038186803b158015610d5957600080fd5b505afa158015610d6d573d6000803e3d6000fd5b505050506040513d6000823e601f3d908101601f19168201604052610d9591908101906142e5565b50915050610dcd81600081518110610da957fe5b602002602001015182600181518110610dbe57fe5b602002602001015160016119cb565b90915083600081518110610ddd57fe5b6020026020010184600181518110610df157fe5b6020908102919091010191909152525090565b60048054604080516020601f600260001961010060018816150201909516949094049384018190048102820181019092528281526060939092909183018282801561063a5780601f1061060f5761010080835404028352916020019161063a565b600a5490565b6000610e756117be565b8360800151610e85610b94610ce0565b610e90610bba610912565b60007f00000000000000000000000000000000000000000000000000000000000000006001600160a01b031686602001516001600160a01b03161490506000610ed88261219d565b90506000610ee6831561219d565b9050610ef287836121f1565b9650610efe86826121f1565b95506000806000610f108a8a886119cb565b925092509250610f578b60a0015187610f29578a610f2b565b8b5b88610f36578c610f38565b8b5b89610f435784610f45565b855b8a610f505786610f52565b855b6121fd565b60008b516001811115610f6657fe5b1415610fd6576000610f84610f796109fa565b60608e0151906122a7565b9050610fa6610fa0828e606001516114f490919063ffffffff16565b876121f1565b60608d01526000610fbb8d8d8d87878a6122eb565b9050610fc78187612309565b9950505050505050505061102b565b610fe48b60600151856121f1565b60608c01526000610ff98c8c8c868689612315565b90506110058187612328565b905061102161101a6110156109fa565b612334565b829061235a565b9850505050505050505b509392505050565b6000806110403385611471565b905080831061105a5761105533856000611546565b611067565b6110673385858403611546565b5060019392505050565b60006106513384846116de565b60006108f46123a5565b600073__$85f042f43089d976c21d0d184f206dc395$__630397bee06008846110af6116bf565b6040518463ffffffff1660e01b81526004016110cd93929190614aea565b60206040518083038186803b1580156110e557600080fd5b505af41580156110f9573d6000803e3d6000fd5b505050506040513d601f19601f820116820180604052508101906106559190614736565b61040090565b6000606061112f610ce0565b6001600160a01b031663f94d4668611145610912565b6040518263ffffffff1660e01b815260040161116191906149ea565b60006040518083038186803b15801561117957600080fd5b505afa15801561118d573d6000803e3d6000fd5b505050506040513d6000823e601f3d908101601f191682016040526111b591908101906142e5565b5091505060606111c3611fb4565b90506111ce82612022565b61120182826000815181106111df57fe5b6020026020010151836001815181106111f457fe5b602002602001015161241f565b9250505090565b6112168442111560d16116cc565b6001600160a01b038716600090815260066020908152604080832054905190929161126d917f0000000000000000000000000000000000000000000000000000000000000000918c918c918c9188918d9101614a12565b604051602081830303815290604052805190602001209050600061129082612452565b90506000600182888888604051600081526020016040526040516112b79493929190614a72565b6020604051602081039080840390855afa1580156112d9573d6000803e3d6000fd5b5050604051601f190151915061131b90506001600160a01b0382161580159061131357508b6001600160a01b0316826001600160a01b0316145b6101f86116cc565b6001600160a01b038b1660009081526006602052604090206001850190556113448b8b8b611546565b5050505050505050505050565b60608088611360610b94610ce0565b61136b610bba610912565b6113736117be565b600061137d61066f565b6113ed5761138d8b8b8b8861246e565b945090506113a2620f424082101560cc6116cc565b6113b06000620f42406124fe565b6113bf89620f424083036124fe565b6113c88461213f565b604080516002808252606082018352909160208301908036833701905050925061145b565b6113f688612022565b611429878960008151811061140757fe5b60200260200101518a60018151811061141c57fe5b6020026020010151612508565b6114388b8b8b8b8b8b8b61208e565b9095509350905061144989826124fe565b6114528461213f565b61145b83611cb1565b611463611811565b505097509795505050505050565b600061147b610ce0565b6001600160a01b0316826001600160a01b0316141561149d5750600019610655565b6114a7838361250d565b9050610655565b60606108f4612538565b6201de2090565b60008282016114d184821015836116cc565b9392505050565b60006114d18383605561150a565b60006114d183836056611531565b60006115048383111560016116cc565b50900390565b60006001821b1984168284611520576000611523565b60015b60ff16901b17949350505050565b6001600160401b03811b1992909216911b1790565b6001600160a01b0380841660008181526001602090815260408083209487168084529490915290819020849055517f8c5be1e5ebec7d5bd14f71427d1e84f3dd0314c0f7b2291e5b200ac8c7c3b925906115a19085906149ea565b60405180910390a3505050565b60006115c56000356001600160e01b031916610c45565b905061066c6115d48233612589565b6101916116cc565b80156115fc576115f76115ed611677565b42106101936116cc565b611611565b61161161160761169b565b42106101a96116cc565b6007805460ff19168215151790556040517f9e3a5e37224532dea67b89face185703738a228a6e8a23dee546960180d3be649061164f9083906149c7565b60405180910390a150565b600061166461169b565b4211806108f457505060075460ff161590565b7f000000000000000000000000000000000000000000000000000000000000000090565b7f000000000000000000000000000000000000000000000000000000000000000090565b60006108f4600954611b2c565b816116da576116da81612672565b5050565b6116f56001600160a01b03841615156101986116cc565b61170c6001600160a01b03831615156101996116cc565b611717838383612508565b6001600160a01b03831660009081526020819052604090205461173d90826101a06126c5565b6001600160a01b03808516600090815260208190526040808220939093559084168152205461176c90826114bf565b6001600160a01b0380841660008181526020819052604090819020939093559151908516907fddf252ad1be2c89b69c2b068fc378daa952ba7f163c4a11628f55a4df523b3ef906115a19085906149ea565b6108676117c961165a565b6101926116cc565b6009546117de90826114d8565b6009556040517f3e350b41e86a8e10f804ade6d35340d620be35569cc75ac943e8bb14ab80ead19061164f9083906149c7565b60095461181d81611b39565b1561066c57611837611830600a546126db565b829061271b565b905061185361184c61184761066f565b6126db565b8290612728565b60095550565b60006118658282612736565b61187084601f61273a565b61187b86605461274b565b61188688606a61273a565b6118918a609f61274b565b61189c8c60b561273a565b6118a78e60ea61274b565b17171717171798975050505050505050565b60006106558282612758565b60007f00000000000000000000000000000000000000000000000000000000000000007f00000000000000000000000000000000000000000000000000000000000000007f0000000000000000000000000000000000000000000000000000000000000000611932612762565b30604051602001611947959493929190614a46565b60405160208183030381529060405280519060200120905090565b61197564e8d4a5100082101560cb6116cc565b61198b67016345785d8a000082111560ca6116cc565b60095461199890826114e6565b6009556040517fa9ba3ffe0b6c366b81232caab38605a0699ad5398d6cce76f91ee809e322dafc9061164f9083906149ea565b60408051600280825260608083018452600093849384939091602083019080368337019050509050846119fe5785611a00565b865b81600081518110611a0d57fe5b60200260200101818152505084611a245786611a26565b855b81600181518110611a3357fe5b6020026020010181815250506060611a49611fb4565b9050611a5c82826000815181106111df57fe5b604080516002808252606080830184529398509091602083019080368337019050509050611a8a8287612766565b905086611aab5780600181518110611a9e57fe5b6020026020010151611ac1565b80600081518110611ab857fe5b60200260200101515b945086611ae25780600081518110611ad557fe5b6020026020010151611af8565b80600181518110611aef57fe5b60200260200101515b935050505093509350939050565b600061065582826127f4565b60006106558260166127f4565b600061065582602c612758565b600061065582604b61281b565b6000610655826055612823565b600061065582605661282d565b6116da81831460676116cc565b60006060806060611b6f611fb4565b9050611b7961165a565b15611c4a576000611ba68983600081518110611b9157fe5b6020026020010151846001815181106111f457fe5b90506060611bb48383612766565b9050611c13898b600081518110611bc757fe5b60200260200101518c600181518110611bdc57fe5b602002602001015184600081518110611bf157fe5b602002602001015185600181518110611c0657fe5b60200260200101516121fd565b611c1c8261283a565b611c268a88612867565b9096509450611c3f8287611c3861066f565b60006128b3565b600a5550611c7b9050565b611c548886612867565b9094509250611c6688846114f461290b565b611c7788826000815181106111df57fe5b600a555b60408051600280825260608201835286928692919060208301908036833701905050935093509350509750975097945050505050565b611cd881600081518110611cc157fe5b6020026020010151611cd3600161219d565b61299d565b81600081518110611ce557fe5b602002602001018181525050611d1381600181518110611d0157fe5b6020026020010151611cd3600061219d565b81600181518110611d2057fe5b60200260200101818152505050565b333014611ded576000306001600160a01b0316600036604051611d5392919061490c565b6000604051808303816000865af19150503d8060008114611d90576040519150601f19603f3d011682016040523d82523d6000602084013e611d95565b606091505b505090508060008114611da457fe5b60046000803e6000516001600160e01b0319166343adbafb60e01b8114611dcf573d6000803e3d6000fd5b506020600460003e604060205260243d03602460403e601c3d016000f35b611df686612022565b60006060611e0d8b8b8b8b8b8b8b8b63ffffffff16565b5091509150611e1f818463ffffffff16565b8051601f1982018390526343adbafb603f1983015260200260231982016044820181fd5b60009081526008602052604090205490565b6000806000806000806000611e69886129bd565b9650611e74886129ca565b9550611e7f886129d7565b9450611e8a886129e4565b9350611e95886129f1565b9250611ea0886129fe565b9150611eab886118b9565b9050919395979092949650565b60008282026114d1841580611ed5575083858381611ed257fe5b04145b60036116cc565b600081611ee857600080fd5b670de0b6b3a764000083810290848281611efe57fe5b0414611f0957600080fd5b828181611f1257fe5b04949350505050565b6040516334171a8560e01b815260009073__$85f042f43089d976c21d0d184f206dc395$__906334171a8590611f5c90600890889088908890600401614b0b565b60206040518083038186803b158015611f7457600080fd5b505af4158015611f88573d6000803e3d6000fd5b505050506040513d601f19601f82011682018060405250810190611fac9190614736565b949350505050565b604080516002808252606080830184529283929190602083019080368337019050509050611fe26001612a0b565b81600081518110611fef57fe5b6020026020010181815250506120056000612a0b565b8160018151811061201257fe5b6020908102919091010152905090565b6120498160008151811061203257fe5b6020026020010151612044600161219d565b611eb8565b8160008151811061205657fe5b602002602001018181525050611d138160018151811061207257fe5b6020026020010151612044600061219d565b6116da8282612a5f565b6000606080606061209d611fb4565b905060006120b28983600081518110611b9157fe5b905060606120c08383612766565b90506120d3898b600081518110611bc757fe5b6120dc8261283a565b600060606120ea8c8a612b1b565b9150915061210284836120fb61066f565b60016128b3565b600a556040805160028082526060820183528492849291906020830190803683370190505097509750975050505050509750975097945050505050565b6121668160008151811061214f57fe5b6020026020010151612161600161219d565b612b55565b8160008151811061217357fe5b602002602001018181525050611d138160018151811061218f57fe5b602002602001015161216160005b6000816121ca577f0000000000000000000000000000000000000000000000000000000000000000610655565b507f0000000000000000000000000000000000000000000000000000000000000000919050565b60006114d18383611eb8565b60095461220981611b39565b801561221457508543115b1561229f57600061222786858786612b88565b905060006122408786888761223b88611b12565b612ba2565b9050600061224d84611b2c565b9050600061225a85611b1f565b905060006122738284878761226e8b611b06565b612be8565b9050808314611344576122868682612c3f565b95506122928642612c4d565b6009819055955050505050505b505050505050565b60008282026122c1841580611ed5575083858381611ed257fe5b806122d0576000915050610655565b670de0b6b3a764000060001982015b04600101915050610655565b60006122fe868689606001518787612c5b565b979650505050505050565b60006114d1838361299d565b60006122fe868689606001518787612cff565b60006114d18383612b55565b6000670de0b6b3a7640000821061234c576000610655565b50670de0b6b3a76400000390565b600061236982151560046116cc565b8261237657506000610655565b670de0b6b3a7640000838102906123999085838161239057fe5b041460056116cc565b8260018203816122df57fe5b60006123af610ce0565b6001600160a01b031663aaabadc56040518163ffffffff1660e01b815260040160206040518083038186803b1580156123e757600080fd5b505afa1580156123fb573d6000803e3d6000fd5b505050506040513d601f19601f820116820180604052508101906108f491906141b1565b6000806000806000612432888888612d9e565b935093509350935061244684848484612f18565b98975050505050505050565b600061245c6118c5565b82604051602001610c7a92919061491c565b60006060600061247d84612f8c565b9050612498600082600381111561249057fe5b1460ce6116cc565b60606124a385612fa2565b90506124b181516002611b53565b6124ba81612022565b60606124c4611fb4565b905060006124d98383600081518110611b9157fe5b905060006124e8826002611eb8565b600a929092555099919850909650505050505050565b6116da8282612fb8565b505050565b6001600160a01b03918216600090815260016020908152604080832093909416825291909152205490565b6040805160028082526060808301845292839291906020830190803683370190505090506125666001613046565b8160008151811061257357fe5b6020026020010181815250506120056000613046565b600073ba1ba1ba1ba1ba1ba1ba1ba1ba1ba1ba1ba1ba1b6125a8610cbc565b6001600160a01b0316141580156125c357506125c38361309a565b156125eb576125d0610cbc565b6001600160a01b0316336001600160a01b0316149050610655565b6125f36123a5565b6001600160a01b0316639be2a8848484306040518463ffffffff1660e01b8152600401612622939291906149f3565b60206040518083038186803b15801561263a57600080fd5b505afa15801561264e573d6000803e3d6000fd5b505050506040513d601f19601f820116820180604052508101906114a79190614544565b62461bcd60e51b6000908152602060045260076024526642414c23000030600a808404818106603090810160081b95839006959095019082900491820690940160101b939093010160c81b604452606490fd5b60006126d484841115836116cc565b5050900390565b6000806126e7836130cc565b9050600080821361270057652d79883d2000820361270a565b652d79883d200082015b655af3107a40009005949350505050565b60006114d1838383613130565b60006114d183836016613130565b1b90565b661fffffffffffff91909116901b90565b623fffff91909116901b90565b1c637fffffff1690565b4690565b6040805160028082526060808301845292839291906020830190803683370190505090506127aa60018560018151811061279c57fe5b602002602001015185613147565b816000815181106127b757fe5b6020026020010181815250506127d560008560008151811061279c57fe5b816001815181106127e257fe5b60209081029190910101529392505050565b600082821c623fffff16621fffff811361280e5780611fac565b623fffff19179392505050565b1c6103ff1690565b1c60019081161490565b1c6001600160401b031690565b60008060008061284c600a5486613167565b9350935093509350612860848484846131d0565b5050505050565b60006060600061287684612f8c565b9050600181600381111561288657fe5b14156128a05761289685856131f0565b90935091506128ab565b6128ab610150612672565b509250929050565b600081156128e55760006128d1846128cb88886122a7565b9061235a565b90506128dd86826114bf565b915050611fac565b60006128f584610aa08888613222565b905061290186826114f4565b9695505050505050565b6129418360008151811061291b57fe5b60200260200101518360008151811061293057fe5b60200260200101518363ffffffff16565b8360008151811061294e57fe5b60200260200101818152505061297f8360018151811061296a57fe5b60200260200101518360018151811061293057fe5b8360018151811061298c57fe5b602002602001018181525050505050565b60006129ac82151560046116cc565b8183816129b557fe5b049392505050565b60006106558260ea6127f4565b60006106558260b561324b565b600061065582609f6127f4565b600061065582606a61324b565b60006106558260546127f4565b600061065582601f61324b565b600081612a38577f0000000000000000000000000000000000000000000000000000000000000000610655565b507f0000000000000000000000000000000000000000000000000000000000000000919050565b612a766001600160a01b038316151561019b6116cc565b612a8282600083612508565b6001600160a01b038216600090815260208190526040902054612aa890826101a16126c5565b6001600160a01b038316600090815260208190526040902055600254612ace908261327e565b6002556040516000906001600160a01b038416907fddf252ad1be2c89b69c2b068fc378daa952ba7f163c4a11628f55a4df523b3ef90612b0f9085906149ea565b60405180910390a35050565b600060606000612b2a84612f8c565b90506003816003811115612b3a57fe5b1415612b4a57612896858561328c565b6128ab610136612672565b6000612b6482151560046116cc565b82612b7157506000610655565b816001840381612b7d57fe5b046001019050610655565b600080612b97868686866132b1565b9050612901816126db565b600080612bb1878787876132b1565b90506000612bc9612bc287846122a7565b89906114bf565b90506000612bd6826126db565b85900393505050505b95945050505050565b600080612c0485858542612bfb8b611e43565b939291906132d9565b9050607842889003101580612c195786612c22565b612c228761332b565b600081815260086020526040902092909255509695505050505050565b60006114d18383604b613338565b60006114d18383602c613348565b6000612c7d612c7287670429d069189e0000613222565b8511156101306116cc565b6000612c9b612c9485670de0b6b3a76400026122a7565b88906114bf565b90506000612cb4612c9485670de0b6b3a763ffff613222565b9050612ccd612cc383886114bf565b610aa08389613222565b92505050612cdf8582106101656116cc565b612bdf612cf486670429d069189e0000613222565b8211156101316116cc565b6000612d0f8585106101656116cc565b612d2f612d2486670429d069189e0000613222565b8511156101316116cc565b6000612d46612c9485670de0b6b3a76400026122a7565b90506000612d5f612c9485670de0b6b3a763ffff613222565b9050612d78612d6e82886114f4565b6128cb84896122a7565b9250612bdf9150612d93905087670429d069189e0000613222565b8211156101306116cc565b6000808080612dbf612db08787611edc565b670de0b6b3a7640000906114f4565b93506000612dea8689600181518110612dd457fe5b6020026020010151611edc90919063ffffffff16565b90506000612e15888a600081518110612dff57fe5b602002602001015161322290919063ffffffff16565b9050612e2182826114bf565b9450612e4889600181518110612e3357fe5b60200260200101518a600081518110612dff57fe5b92505050612e7f86612e7988612e798b600081518110612e6457fe5b60200260200101518c600081518110612dff57fe5b90613222565b91506000612ebf86610aa089612e79670de0b6b3a7640000600202612e798e600181518110612eaa57fe5b60200260200101518f600081518110612dff57fe5b90506000612ef5612ed088806122a7565b610aa08b600181518110612ee057fe5b60200260200101518c600181518110612dff57fe5b9050612f0b81612f0586856114bf565b906114bf565b9350505093509350935093565b600080612f2d86671bc16d674ec800006122a7565b90506000612f4787612e7986673782dace9d900000613222565b90506000612f5586836114bf565b90506000612f6482600561335a565b90506000612f7289836114bf565b9050612f7e8186611edc565b9a9950505050505050505050565b6000818060200190518101906106559190614684565b6060818060200190518101906114d191906146cd565b612fc460008383612508565b600254612fd190826114bf565b6002556001600160a01b038216600090815260208190526040902054612ff790826114bf565b6001600160a01b0383166000818152602081905260408082209390935591519091907fddf252ad1be2c89b69c2b068fc378daa952ba7f163c4a11628f55a4df523b3ef90612b0f9085906149ea565b600081613073577f0000000000000000000000000000000000000000000000000000000000000000610655565b507f0000000000000000000000000000000000000000000000000000000000000000919050565b60006130ac631c74c91760e11b610c45565b82148061065557506130c46350dd6ed960e01b610c45565b909114919050565b60006130dc6000831360646116cc565b670c7d713b49da0000821380156130fa5750670f43fc2c04ee000082125b1561312057670de0b6b3a7640000613111836134cd565b8161311857fe5b059050610b80565b613129826135eb565b9050610b80565b623fffff828116821b90821b198416179392505050565b60008361315d57613158828461398a565b611fac565b611fac8284613996565b60008060008060008060008061317b6139a2565b935093509350935083600014156131a0576000975087965090945092506131c7915050565b6000806131b78c8c6131b061066f565b8989613c11565b909a509850929650909450505050505b92959194509250565b83156131e0576131e082856124fe565b82156108e4576108e481846124fe565b6000606060006131ff84613ca6565b90506060613215868361321061066f565b613cbc565b9196919550909350505050565b600082820261323c841580611ed5575083858381611ed257fe5b670de0b6b3a764000081611f12565b600082821c661fffffffffffff16660fffffffffffff811361326d5780611fac565b661fffffffffffff19179392505050565b60006114d1838360016126c5565b60006060600061329b84613ca6565b9050606061321586836132ac61066f565b613d57565b60006706f05b59d3b200006129016132cd826128cb87876114bf565b6128cb83818a8a6114bf565b6000806132e5876118b9565b8303905060008187026132f7896129ca565b01905060008287026133088a6129e4565b01905060008387026133198b6129fe565b019050612f7e89848a858b868c611859565b6000610655826001613dfe565b6103ff811b1992909216911b1790565b637fffffff811b1992909216911b1790565b60008261336957506000610655565b600061337484613e06565b9050600281670de0b6b3a764000086028161338b57fe5b0482018161339557fe5b049050600281670de0b6b3a76400008602816133ad57fe5b048201816133b757fe5b049050600281670de0b6b3a76400008602816133cf57fe5b048201816133d957fe5b049050600281670de0b6b3a76400008602816133f157fe5b048201816133fb57fe5b049050600281670de0b6b3a764000086028161341357fe5b0482018161341d57fe5b049050600281670de0b6b3a764000086028161343557fe5b0482018161343f57fe5b049050600281670de0b6b3a764000086028161345757fe5b0482018161346157fe5b04905060006134708280613222565b905061348661347f83866122a7565b86906114bf565b81111580156134a857506134a461349d83866122a7565b86906114f4565b8110155b61102b5760405162461bcd60e51b81526004016134c490614bc5565b60405180910390fd5b670de0b6b3a7640000026000806a0c097ce7bc90715b34b9f160241b808401906ec097ce7bc90715b34b9f0fffffffff198501028161350857fe5b05905060006a0c097ce7bc90715b34b9f160241b82800205905081806a0c097ce7bc90715b34b9f160241b81840205915060038205016a0c097ce7bc90715b34b9f160241b82840205915060058205016a0c097ce7bc90715b34b9f160241b82840205915060078205016a0c097ce7bc90715b34b9f160241b82840205915060098205016a0c097ce7bc90715b34b9f160241b828402059150600b8205016a0c097ce7bc90715b34b9f160241b828402059150600d8205016a0c097ce7bc90715b34b9f160241b828402059150600f826002919005919091010295945050505050565b6000670de0b6b3a76400008212156136275761361d826a0c097ce7bc90715b34b9f160241b8161361757fe5b056135eb565b6000039050610b80565b60007e1600ef3172e58d2e933ec884fde10064c63b5372d805e203c0000000000000831261367857770195e54c5dd42177f53a27172fa9ec630262827000000000830592506806f05b59d3b2000000015b73011798004d755d3c8bc8e03204cf44619e00000083126136b0576b1425982cf597cd205cef7380830592506803782dace9d9000000015b606492830292026e01855144814a7ff805980ff008400083126136f8576e01855144814a7ff805980ff008400068056bc75e2d63100000840205925068ad78ebc5ac62000000015b6b02df0ab5a80a22c61ab5a7008312613733576b02df0ab5a80a22c61ab5a70068056bc75e2d6310000084020592506856bc75e2d631000000015b693f1fce3da636ea5cf850831261376a57693f1fce3da636ea5cf85068056bc75e2d631000008402059250682b5e3af16b18800000015b690127fa27722cc06cc5e283126137a157690127fa27722cc06cc5e268056bc75e2d6310000084020592506815af1d78b58c400000015b68280e60114edb805d0383126137d65768280e60114edb805d0368056bc75e2d631000008402059250680ad78ebc5ac6200000015b680ebc5fb41746121110831261380157680ebc5fb4174612111068056bc75e2d631000009384020592015b6808f00f760a4b2db55d8312613836576808f00f760a4b2db55d68056bc75e2d6310000084020592506802b5e3af16b1880000015b6806f5f1775788937937831261386b576806f5f177578893793768056bc75e2d63100000840205925068015af1d78b58c40000015b6806248f33704b286603831261389f576806248f33704b28660368056bc75e2d63100000840205925067ad78ebc5ac620000015b6805c548670b9510e7ac83126138d3576805c548670b9510e7ac68056bc75e2d6310000084020592506756bc75e2d6310000015b600068056bc75e2d63100000840168056bc75e2d6310000080860302816138f657fe5b059050600068056bc75e2d63100000828002059050818068056bc75e2d63100000818402059150600382050168056bc75e2d63100000828402059150600582050168056bc75e2d63100000828402059150600782050168056bc75e2d63100000828402059150600982050168056bc75e2d63100000828402059150600b820501600202606485820105979650505050505050565b60006114d18383613222565b60006114d18383611edc565b600b5460405163bd02d0f560e01b81526000918291829182916001600160a01b039091169063bd02d0f5906139f4907550524f544f434f4c5f535741505f4645455f5045524360501b906004016149ea565b60206040518083038186803b158015613a0c57600080fd5b505afa158015613a20573d6000803e3d6000fd5b505050506040513d601f19601f82011682018060405250810190613a449190614736565b600b5460405163bd02d0f560e01b81526001600160a01b039091169063bd02d0f590613a94907f50524f544f434f4c5f4645455f4759524f5f504f5254494f4e00000000000000906004016149ea565b60206040518083038186803b158015613aac57600080fd5b505afa158015613ac0573d6000803e3d6000fd5b505050506040513d601f19601f82011682018060405250810190613ae49190614736565b600b546040516321f8a72160e01b81526001600160a01b03909116906321f8a72190613b24906c4759524f5f545245415355525960981b906004016149ea565b60206040518083038186803b158015613b3c57600080fd5b505afa158015613b50573d6000803e3d6000fd5b505050506040513d601f19601f82011682018060405250810190613b7491906141b1565b600b546040516321f8a72160e01b81526001600160a01b03909116906321f8a72190613bb3906b42414c5f545245415355525960a01b906004016149ea565b60206040518083038186803b158015613bcb57600080fd5b505afa158015613bdf573d6000803e3d6000fd5b505050506040513d601f19601f82011682018060405250810190613c0391906141b1565b935093509350935090919293565b600080868611613c2657506000905080613c9c565b6000613c4085612e79613c398a8c6114f4565b8990613222565b90506000613c58613c51898b6114f4565b8790613222565b90506000613c6689836114f4565b90506000613c748483611edc565b90506000613c828883613222565b90506000613c9083836114f4565b91975090955050505050505b9550959350505050565b6000818060200190518101906114d191906146a0565b60606000613cca8484611edc565b9050606085516001600160401b0381118015613ce557600080fd5b50604051908082528060200260200182016040528015613d0f578160200160208202803683370190505b50905060005b8651811015613d4d57613d2e83888381518110612dff57fe5b828281518110613d3a57fe5b6020908102919091010152600101613d15565b5095945050505050565b60606000613d65848461235a565b9050606085516001600160401b0381118015613d8057600080fd5b50604051908082528060200260200182016040528015613daa578160200160208202803683370190505b50905060005b8651811015613d4d57613ddf83888381518110613dc957fe5b60200260200101516122a790919063ffffffff16565b828281518110613deb57fe5b6020908102919091010152600101613db0565b016103ff1690565b6000670de0b6b3a76400008210613e3357670de0b6b3a7640000613e2b818404613fe9565b1b9050610b80565b600a821015613e4757506312d940b6610b80565b6064821015613e5c57506402540be400610b80565b6103e8821015613e72575064075cdd4719610b80565b612710821015613e88575064174876e800610b80565b620186a0821015613e9f57506449a0a4c700610b80565b620f4240821015613eb6575064e8d4a51000610b80565b62989680821015613ece57506502e0466fc608610b80565b6305f5e100821015613ee757506509184e72a000610b80565b633b9aca00821015613f005750651cc2c05dbc53610b80565b6402540be400821015613f1a5750655af3107a4000610b80565b64174876e800821015613f35575066011f9b83a95b45610b80565b64e8d4a51000821015613f50575066038d7ea4c68000610b80565b6509184e72a000821015613f6c5750660b3c13249d90bb610b80565b655af3107a4000821015613f885750662386f26fc10000610b80565b66038d7ea4c68000821015613fa55750667058bf6e27a751610b80565b662386f26fc10000821015613fc3575067016345785d8a0000610b80565b67016345785d8a0000821015613fe25750670463777a4d8c892d610b80565b5080610b80565b6000600160801b82106140015760809190911c906040015b68010000000000000000821061401c5760409190911c906020015b64010000000082106140335760209190911c906010015b6201000082106140485760109190911c906008015b610100821061405c5760089190911c906004015b6010821061406f5760049190911c906002015b60048210610b8057600101919050565b604080518082019091526000808252602082015290565b803561065581614c77565b600082601f8301126140b1578081fd5b81516140c46140bf82614c4e565b614c28565b8181529150602080830190848101818402860182018710156140e557600080fd5b60005b84811015614104578151845292820192908201906001016140e8565b505050505092915050565b600082601f83011261411f578081fd5b81356001600160401b03811115614134578182fd5b614147601f8201601f1916602001614c28565b915080825283602082850101111561415e57600080fd5b8060208401602084013760009082016020015292915050565b80356002811061065557600080fd5b80356003811061065557600080fd5b6000602082840312156141a6578081fd5b81356114d181614c77565b6000602082840312156141c2578081fd5b81516114d181614c77565b600080604083850312156141df578081fd5b82356141ea81614c77565b915060208301356141fa81614c77565b809150509250929050565b600080600060608486031215614219578081fd5b833561422481614c77565b9250602084013561423481614c77565b929592945050506040919091013590565b600080600080600080600060e0888a03121561425f578485fd5b873561426a81614c77565b9650602088013561427a81614c77565b95506040880135945060608801359350608088013560ff8116811461429d578384fd5b9699959850939692959460a0840135945060c09093013592915050565b600080604083850312156142cc578182fd5b82356142d781614c77565b946020939093013593505050565b6000806000606084860312156142f9578081fd5b83516001600160401b038082111561430f578283fd5b818601915086601f830112614322578283fd5b81516143306140bf82614c4e565b80828252602080830192508086018b828387028901011115614350578788fd5b8796505b8487101561437b57805161436781614c77565b845260019690960195928101928101614354565b508901519097509350505080821115614392578283fd5b5061439f868287016140a1565b925050604084015190509250925092565b600060208083850312156143c2578182fd5b82356001600160401b038111156143d7578283fd5b8301601f810185136143e7578283fd5b80356143f56140bf82614c4e565b818152838101908385016040808502860187018a1015614413578788fd5b8795505b848610156144605780828b03121561442d578788fd5b61443681614c28565b6144408b84614186565b815282880135888201528452600195909501949286019290810190614417565b509098975050505050505050565b60006020808385031215614480578182fd5b82356001600160401b03811115614495578283fd5b8301601f810185136144a5578283fd5b80356144b36140bf82614c4e565b818152838101908385016060808502860187018a10156144d1578788fd5b8795505b848610156144605780828b0312156144eb578788fd5b6144f481614c28565b6144fe8b84614186565b815282880135888201526040808401359082015284526001959095019492860192908101906144d5565b600060208284031215614539578081fd5b81356114d181614c8c565b600060208284031215614555578081fd5b81516114d181614c8c565b600080600080600080600060e0888a03121561457a578081fd5b8735965060208089013561458d81614c77565b9650604089013561459d81614c77565b955060608901356001600160401b03808211156145b8578384fd5b818b0191508b601f8301126145cb578384fd5b81356145d96140bf82614c4e565b8082825285820191508585018f8788860288010111156145f7578788fd5b8795505b838610156146195780358352600195909501949186019186016145fb565b509850505060808b0135955060a08b0135945060c08b013592508083111561463f578384fd5b505061464d8a828b0161410f565b91505092959891949750929550565b60006020828403121561466d578081fd5b81356001600160e01b0319811681146114d1578182fd5b600060208284031215614695578081fd5b81516114d181614c9a565b600080604083850312156146b2578182fd5b82516146bd81614c9a565b6020939093015192949293505050565b600080604083850312156146df578182fd5b82516146ea81614c9a565b60208401519092506001600160401b03811115614705578182fd5b614711858286016140a1565b9150509250929050565b60006020828403121561472c578081fd5b6114d18383614186565b600060208284031215614747578081fd5b5051919050565b600080600060608486031215614762578081fd5b83356001600160401b0380821115614778578283fd5b818601915061012080838903121561478e578384fd5b61479781614c28565b90506147a38884614177565b81526147b28860208501614096565b60208201526147c48860408501614096565b6040820152606083013560608201526080830135608082015260a083013560a08201526147f48860c08501614096565b60c08201526148068860e08501614096565b60e0820152610100808401358381111561481e578586fd5b61482a8a82870161410f565b9183019190915250976020870135975060409096013595945050505050565b60006020828403121561485a578081fd5b5035919050565b60008060408385031215614873578182fd5b50508035926020909101359150565b600080600060608486031215614896578081fd5b833592506020840135915060408401356148af81614c8c565b809150509250925092565b6000815180845260208085019450808401835b838110156148e9578151875295820195908201906001016148cd565b509495945050505050565b9182526001600160e01b031916602082015260240190565b6000828483379101908152919050565b61190160f01b81526002810192909252602282015260420190565b6001600160a01b0391909116815260200190565b6020808252825182820181905260009190848201906040850190845b8181101561498357835183529284019291840191600101614967565b50909695505050505050565b6000602082526114d160208301846148ba565b6000604082526149b560408301856148ba565b8281036020840152612bdf81856148ba565b901515815260200190565b92151583526020830191909152604082015260600190565b90815260200190565b9283526001600160a01b03918216602084015216604082015260600190565b9586526001600160a01b0394851660208701529290931660408501526060840152608083019190915260a082015260c00190565b9485526020850193909352604084019190915260608301526001600160a01b0316608082015260a00190565b93845260ff9290921660208401526040830152606082015260800190565b968752602087019590955260408601939093526060850191909152608084015260a083015260c082015260e00190565b9586526020860194909452604085019290925260608401521515608083015260a082015260c00190565b83815260608101614afa84614c6d565b602082019390935260400152919050565b84815260808101614b1b85614c6d565b84602083015283604083015282606083015295945050505050565b838152825160a0820190614b4981614c6d565b806020840152506020840151604083015260408401516060830152826080830152949350505050565b6000602080835283518082850152825b81811015614b9e57858101830151858201604001528201614b82565b81811115614baf5783604083870101525b50601f01601f1916929092016040019392505050565b6020808252600c908201526b17dcdc5c9d0811905253115160a21b604082015260600190565b600083825260406020830152611fac60408301846148ba565b9283526020830191909152604082015260600190565b60ff91909116815260200190565b6040518181016001600160401b0381118282101715614c4657600080fd5b604052919050565b60006001600160401b03821115614c63578081fd5b5060209081020190565b6003811061066c57fe5b6001600160a01b038116811461066c57600080fd5b801515811461066c57600080fd5b6004811061066c57600080fdfea2646970667358221220aac763e46c6ded7f138ef24a7bca19ca00123477927b5c41d802a4885764bc8064736f6c63430007010033","language":"Solidity","natspec":{"kind":"dev","methods":{"DOMAIN_SEPARATOR()":{"details":"See {IERC20Permit-DOMAIN_SEPARATOR}."},"allowance(address,address)":{"details":"Override to grant the Vault infinite allowance, causing for Pool Tokens to not require approval. This is sound as the Vault already provides authorization mechanisms when initiation token transfers, which this contract inherits."},"approve(address,uint256)":{"details":"See {IERC20-approve}. Requirements: - `spender` cannot be the zero address."},"balanceOf(address)":{"details":"See {IERC20-balanceOf}."},"decimals()":{"details":"Returns the number of decimals used to get its user representation. For example, if `decimals` equals `2`, a balance of `505` tokens should be displayed to a user as `5,05` (`505 / 10 ** 2`). Tokens usually opt for a value of 18, imitating the relationship between Ether and Wei. This is the value {ERC20} uses, unless {_setupDecimals} is called. NOTE: This information is only used for _display_ purposes: it in no way affects any of the arithmetic of the contract, including {IERC20-balanceOf} and {IERC20-transfer}."},"decreaseAllowance(address,uint256)":{"details":"Override to allow decreasing allowance by more than the current amount (setting it to zero)"},"dirtyUninitializedOracleSamples(uint256,uint256)":{"details":"Manually dirty oracle sample storage slots with dummy data, to reduce the gas cost of the future swaps that will initialize them. This function is only useful before the oracle has been fully initialized. `endIndex` is non-inclusive."},"enableOracle()":{"details":"Balancer Governance can always enable the Oracle, even if it was originally not enabled. This allows for Pools that unexpectedly drive much more volume and liquidity than expected to serve as Price Oracles. Note that the Oracle can only be enabled - it can never be disabled."},"getActionId(bytes4)":{"details":"Returns the action identifier associated with the external function described by `selector`."},"getInvariant()":{"details":"Returns the current value of the invariant."},"getLargestSafeQueryWindow()":{"details":"Returns largest time window that can be safely queried, where 'safely' means the Oracle is guaranteed to be able to produce a result and not revert. If a query has a non-zero `ago` value, then `secs + ago` (the oldest point in time) must be smaller than this value for 'safe' queries."},"getLatest(uint8)":{"details":"Returns latest sample of `variable`. Prices are represented as 18 decimal fixed point values."},"getPastAccumulators((uint8,uint256)[])":{"details":"Returns the accumulators corresponding to each of `queries`."},"getPausedState()":{"details":"Returns the current contract pause status, as well as the end times of the Pause Window and Buffer Period."},"getRate()":{"details":"This function returns the appreciation of one BPT relative to the underlying tokens. This starts at 1 when the pool is created and grows over time"},"getSample(uint256)":{"details":"Returns the raw data of the sample at `index`."},"getTimeWeightedAverage((uint8,uint256,uint256)[])":{"details":"Returns the time average weighted price corresponding to each of `queries`. Prices are represented as 18 decimal fixed point values."},"getTotalSamples()":{"details":"Returns the total number of samples."},"getVirtualParameters()":{"details":"Returns virtual offsets a and b for reserves x and y respectively, as in (x+a)*(y+b)=L^2"},"increaseAllowance(address,uint256)":{"details":"Atomically increases the allowance granted to `spender` by the caller. This is an alternative to {approve} that can be used as a mitigation for problems described in {IERC20-approve}. Emits an {Approval} event indicating the updated allowance. Requirements: - `spender` cannot be the zero address."},"name()":{"details":"Returns the name of the token."},"nonces(address)":{"details":"See {IERC20Permit-nonces}."},"onExitPool(bytes32,address,address,uint256[],uint256,uint256,bytes)":{"details":"Called by the Vault when a user calls `IVault.exitPool` to remove liquidity from this Pool. Returns how many tokens the Vault should deduct from the Pool's balances, as well as the amount of protocol fees the Pool owes to the Vault. The Vault will then take tokens from the Pool's balances and send them to `recipient`, as well as collect the reported amount in protocol fees, which the Pool should calculate based on `protocolSwapFeePercentage`. Protocol fees are charged on exit events to guarantee that users exiting the Pool have paid their share. `sender` is the account performing the exit (typically the pool shareholder), and `recipient` is the account to which the Vault will send the proceeds. `balances` contains the total token balances for each token the Pool registered in the Vault, in the same order that `IVault.getPoolTokens` would return. `lastChangeBlock` is the last block in which *any* of the Pool's registered tokens last changed its total balance. `userData` contains any pool-specific instructions needed to perform the calculations, such as the type of exit (e.g., proportional given an amount of pool shares, single-asset, multi-asset, etc.) Contracts implementing this function should check that the caller is indeed the Vault before performing any state-changing operations, such as burning pool shares."},"onJoinPool(bytes32,address,address,uint256[],uint256,uint256,bytes)":{"details":"Called by the Vault when a user calls `IVault.joinPool` to add liquidity to this Pool. Returns how many of each registered token the user should provide, as well as the amount of protocol fees the Pool owes to the Vault. The Vault will then take tokens from `sender` and add them to the Pool's balances, as well as collect the reported amount in protocol fees, which the pool should calculate based on `protocolSwapFeePercentage`. Protocol fees are reported and charged on join events so that the Pool is free of debt whenever new users join. `sender` is the account performing the join (from which tokens will be withdrawn), and `recipient` is the account designated to receive any benefits (typically pool shares). `balances` contains the total balances for each token the Pool registered in the Vault, in the same order that `IVault.getPoolTokens` would return. `lastChangeBlock` is the last block in which *any* of the Pool's registered tokens last changed its total balance. `userData` contains any pool-specific instructions needed to perform the calculations, such as the type of join (e.g., proportional given an amount of pool shares, single-asset, multi-asset, etc.) Contracts implementing this function should check that the caller is indeed the Vault before performing any state-changing operations, such as minting pool shares."},"permit(address,address,uint256,uint256,uint8,bytes32,bytes32)":{"details":"See {IERC20Permit-permit}."},"queryExit(bytes32,address,address,uint256[],uint256,uint256,bytes)":{"details":"Returns the amount of BPT that would be burned from `sender` if the `onExitPool` hook were called by the Vault with the same arguments, along with the number of tokens `recipient` would receive. This function is not meant to be called directly, but rather from a helper contract that fetches current Vault data, such as the protocol swap fee percentage and Pool balances. Like `IVault.queryBatchSwap`, this function is not view due to internal implementation details: the caller must explicitly use eth_call instead of eth_sendTransaction."},"queryJoin(bytes32,address,address,uint256[],uint256,uint256,bytes)":{"details":"Returns the amount of BPT that would be granted to `recipient` if the `onJoinPool` hook were called by the Vault with the same arguments, along with the number of tokens `sender` would have to supply. This function is not meant to be called directly, but rather from a helper contract that fetches current Vault data, such as the protocol swap fee percentage and Pool balances. Like `IVault.queryBatchSwap`, this function is not view due to internal implementation details: the caller must explicitly use eth_call instead of eth_sendTransaction."},"symbol()":{"details":"Returns the symbol of the token, usually a shorter version of the name."},"totalSupply()":{"details":"See {IERC20-totalSupply}."},"transfer(address,uint256)":{"details":"See {IERC20-transfer}. Requirements: - `recipient` cannot be the zero address. - the caller must have a balance of at least `amount`."},"transferFrom(address,address,uint256)":{"details":"Override to allow for 'infinite allowance' and let the token owner use `transferFrom` with no self-allowance"}},"version":1},"opcodes":"PUSH1 0x80 PUSH1 0x40 MSTORE CALLVALUE DUP1 ISZERO PUSH2 0x10 JUMPI PUSH1 0x0 DUP1 REVERT JUMPDEST POP PUSH1 0x4 CALLDATASIZE LT PUSH2 0x27F JUMPI PUSH1 0x0 CALLDATALOAD PUSH1 0xE0 SHR DUP1 PUSH4 0x707DCD1E GT PUSH2 0x15C JUMPI DUP1 PUSH4 0x9D2C110C GT PUSH2 0xCE JUMPI DUP1 PUSH4 0xC0FF1A15 GT PUSH2 0x87 JUMPI DUP1 PUSH4 0xC0FF1A15 EQ PUSH2 0x55D JUMPI DUP1 PUSH4 0xD505ACCF EQ PUSH2 0x565 JUMPI DUP1 PUSH4 0xD5C096C4 EQ PUSH2 0x578 JUMPI DUP1 PUSH4 0xDD62ED3E EQ PUSH2 0x58B JUMPI DUP1 PUSH4 0xF89F27ED EQ PUSH2 0x59E JUMPI DUP1 PUSH4 0xFFD088EB EQ PUSH2 0x5A6 JUMPI PUSH2 0x27F JUMP JUMPDEST DUP1 PUSH4 0x9D2C110C EQ PUSH2 0x501 JUMPI DUP1 PUSH4 0xA457C2D7 EQ PUSH2 0x514 JUMPI DUP1 PUSH4 0xA9059CBB EQ PUSH2 0x527 JUMPI DUP1 PUSH4 0xAAABADC5 EQ PUSH2 0x53A JUMPI DUP1 PUSH4 0xB10BE739 EQ PUSH2 0x542 JUMPI DUP1 PUSH4 0xB48B5B40 EQ PUSH2 0x555 JUMPI PUSH2 0x27F JUMP JUMPDEST DUP1 PUSH4 0x87EC6817 GT PUSH2 0x120 JUMPI DUP1 PUSH4 0x87EC6817 EQ PUSH2 0x4C6 JUMPI DUP1 PUSH4 0x893D20E8 EQ PUSH2 0x4D9 JUMPI DUP1 PUSH4 0x8D928AF8 EQ PUSH2 0x4E1 JUMPI DUP1 PUSH4 0x8DD9F89D EQ PUSH2 0x4E9 JUMPI DUP1 PUSH4 0x95D89B41 EQ PUSH2 0x4F1 JUMPI DUP1 PUSH4 0x9B02CDDE EQ PUSH2 0x4F9 JUMPI PUSH2 0x27F JUMP JUMPDEST DUP1 PUSH4 0x707DCD1E EQ PUSH2 0x464 JUMPI DUP1 PUSH4 0x70A08231 EQ PUSH2 0x46C JUMPI DUP1 PUSH4 0x74F3B009 EQ PUSH2 0x47F JUMPI DUP1 PUSH4 0x7ECEBE00 EQ PUSH2 0x4A0 JUMPI DUP1 PUSH4 0x851C1BB3 EQ PUSH2 0x4B3 JUMPI PUSH2 0x27F JUMP JUMPDEST DUP1 PUSH4 0x38E9922E GT PUSH2 0x1F5 JUMPI DUP1 PUSH4 0x4A6B0B15 GT PUSH2 0x1B9 JUMPI DUP1 PUSH4 0x4A6B0B15 EQ PUSH2 0x3D3 JUMPI DUP1 PUSH4 0x55C67628 EQ PUSH2 0x3ED JUMPI DUP1 PUSH4 0x6028BFD4 EQ PUSH2 0x3F5 JUMPI DUP1 PUSH4 0x60D1507C EQ PUSH2 0x416 JUMPI DUP1 PUSH4 0x679AEFCE EQ PUSH2 0x43C JUMPI DUP1 PUSH4 0x6B843239 EQ PUSH2 0x444 JUMPI PUSH2 0x27F JUMP JUMPDEST DUP1 PUSH4 0x38E9922E EQ PUSH2 0x36E JUMPI DUP1 PUSH4 0x38FFF2D0 EQ PUSH2 0x381 JUMPI DUP1 PUSH4 0x39509351 EQ PUSH2 0x389 JUMPI DUP1 PUSH4 0x3C4DD5BB EQ PUSH2 0x39C JUMPI DUP1 PUSH4 0x44BBDB55 EQ PUSH2 0x3BE JUMPI PUSH2 0x27F JUMP JUMPDEST DUP1 PUSH4 0x1DCCD830 GT PUSH2 0x247 JUMPI DUP1 PUSH4 0x1DCCD830 EQ PUSH2 0x303 JUMPI DUP1 PUSH4 0x23B872DD EQ PUSH2 0x323 JUMPI DUP1 PUSH4 0x292C914A EQ PUSH2 0x336 JUMPI DUP1 PUSH4 0x313CE567 EQ PUSH2 0x33E JUMPI DUP1 PUSH4 0x3331BC36 EQ PUSH2 0x353 JUMPI DUP1 PUSH4 0x3644E515 EQ PUSH2 0x366 JUMPI PUSH2 0x27F JUMP JUMPDEST DUP1 PUSH4 0x6FDDE03 EQ PUSH2 0x284 JUMPI DUP1 PUSH4 0x95EA7B3 EQ PUSH2 0x2A2 JUMPI DUP1 PUSH4 0x16C38B3C EQ PUSH2 0x2C2 JUMPI DUP1 PUSH4 0x18160DDD EQ PUSH2 0x2D7 JUMPI DUP1 PUSH4 0x1C0DE051 EQ PUSH2 0x2EC JUMPI JUMPDEST PUSH1 0x0 DUP1 REVERT JUMPDEST PUSH2 0x28C PUSH2 0x5AE JUMP JUMPDEST PUSH1 0x40 MLOAD PUSH2 0x299 SWAP2 SWAP1 PUSH2 0x4B72 JUMP JUMPDEST PUSH1 0x40 MLOAD DUP1 SWAP2 SUB SWAP1 RETURN JUMPDEST PUSH2 0x2B5 PUSH2 0x2B0 CALLDATASIZE PUSH1 0x4 PUSH2 0x42BA JUMP JUMPDEST PUSH2 0x644 JUMP JUMPDEST PUSH1 0x40 MLOAD PUSH2 0x299 SWAP2 SWAP1 PUSH2 0x49C7 JUMP JUMPDEST PUSH2 0x2D5 PUSH2 0x2D0 CALLDATASIZE PUSH1 0x4 PUSH2 0x4528 JUMP JUMPDEST PUSH2 0x65B JUMP JUMPDEST STOP JUMPDEST PUSH2 0x2DF PUSH2 0x66F JUMP JUMPDEST PUSH1 0x40 MLOAD PUSH2 0x299 SWAP2 SWAP1 PUSH2 0x49EA JUMP JUMPDEST PUSH2 0x2F4 PUSH2 0x675 JUMP JUMPDEST PUSH1 0x40 MLOAD PUSH2 0x299 SWAP4 SWAP3 SWAP2 SWAP1 PUSH2 0x49D2 JUMP JUMPDEST PUSH2 0x316 PUSH2 0x311 CALLDATASIZE PUSH1 0x4 PUSH2 0x446E JUMP JUMPDEST PUSH2 0x69E JUMP JUMPDEST PUSH1 0x40 MLOAD PUSH2 0x299 SWAP2 SWAP1 PUSH2 0x498F JUMP JUMPDEST PUSH2 0x2B5 PUSH2 0x331 CALLDATASIZE PUSH1 0x4 PUSH2 0x4205 JUMP JUMPDEST PUSH2 0x7C1 JUMP JUMPDEST PUSH2 0x2D5 PUSH2 0x835 JUMP JUMPDEST PUSH2 0x346 PUSH2 0x869 JUMP JUMPDEST PUSH1 0x40 MLOAD PUSH2 0x299 SWAP2 SWAP1 PUSH2 0x4C1A JUMP JUMPDEST PUSH2 0x2D5 PUSH2 0x361 CALLDATASIZE PUSH1 0x4 PUSH2 0x4861 JUMP JUMPDEST PUSH2 0x872 JUMP JUMPDEST PUSH2 0x2DF PUSH2 0x8EA JUMP JUMPDEST PUSH2 0x2D5 PUSH2 0x37C CALLDATASIZE PUSH1 0x4 PUSH2 0x4849 JUMP JUMPDEST PUSH2 0x8F9 JUMP JUMPDEST PUSH2 0x2DF PUSH2 0x912 JUMP JUMPDEST PUSH2 0x2B5 PUSH2 0x397 CALLDATASIZE PUSH1 0x4 PUSH2 0x42BA JUMP JUMPDEST PUSH2 0x936 JUMP JUMPDEST PUSH2 0x3AF PUSH2 0x3AA CALLDATASIZE PUSH1 0x4 PUSH2 0x4882 JUMP JUMPDEST PUSH2 0x971 JUMP JUMPDEST PUSH1 0x40 MLOAD PUSH2 0x299 SWAP4 SWAP3 SWAP2 SWAP1 PUSH2 0x4C04 JUMP JUMPDEST PUSH2 0x3C6 PUSH2 0x990 JUMP JUMPDEST PUSH1 0x40 MLOAD PUSH2 0x299 SWAP2 SWAP1 PUSH2 0x4937 JUMP JUMPDEST PUSH2 0x3DB PUSH2 0x99F JUMP JUMPDEST PUSH1 0x40 MLOAD PUSH2 0x299 SWAP7 SWAP6 SWAP5 SWAP4 SWAP3 SWAP2 SWAP1 PUSH2 0x4AC0 JUMP JUMPDEST PUSH2 0x2DF PUSH2 0x9FA JUMP JUMPDEST PUSH2 0x408 PUSH2 0x403 CALLDATASIZE PUSH1 0x4 PUSH2 0x4560 JUMP JUMPDEST PUSH2 0xA07 JUMP JUMPDEST PUSH1 0x40 MLOAD PUSH2 0x299 SWAP3 SWAP2 SWAP1 PUSH2 0x4BEB JUMP JUMPDEST PUSH2 0x429 PUSH2 0x424 CALLDATASIZE PUSH1 0x4 PUSH2 0x4849 JUMP JUMPDEST PUSH2 0xA38 JUMP JUMPDEST PUSH1 0x40 MLOAD PUSH2 0x299 SWAP8 SWAP7 SWAP6 SWAP5 SWAP4 SWAP3 SWAP2 SWAP1 PUSH2 0x4A90 JUMP JUMPDEST PUSH2 0x2DF PUSH2 0xA81 JUMP JUMPDEST PUSH2 0x457 PUSH2 0x452 CALLDATASIZE PUSH1 0x4 PUSH2 0x43B0 JUMP JUMPDEST PUSH2 0xAA6 JUMP JUMPDEST PUSH1 0x40 MLOAD PUSH2 0x299 SWAP2 SWAP1 PUSH2 0x494B JUMP JUMPDEST PUSH2 0x316 PUSH2 0xB5C JUMP JUMPDEST PUSH2 0x2DF PUSH2 0x47A CALLDATASIZE PUSH1 0x4 PUSH2 0x4195 JUMP JUMPDEST PUSH2 0xB66 JUMP JUMPDEST PUSH2 0x492 PUSH2 0x48D CALLDATASIZE PUSH1 0x4 PUSH2 0x4560 JUMP JUMPDEST PUSH2 0xB85 JUMP JUMPDEST PUSH1 0x40 MLOAD PUSH2 0x299 SWAP3 SWAP2 SWAP1 PUSH2 0x49A2 JUMP JUMPDEST PUSH2 0x2DF PUSH2 0x4AE CALLDATASIZE PUSH1 0x4 PUSH2 0x4195 JUMP JUMPDEST PUSH2 0xC2A JUMP JUMPDEST PUSH2 0x2DF PUSH2 0x4C1 CALLDATASIZE PUSH1 0x4 PUSH2 0x465C JUMP JUMPDEST PUSH2 0xC45 JUMP JUMPDEST PUSH2 0x408 PUSH2 0x4D4 CALLDATASIZE PUSH1 0x4 PUSH2 0x4560 JUMP JUMPDEST PUSH2 0xC97 JUMP JUMPDEST PUSH2 0x3C6 PUSH2 0xCBC JUMP JUMPDEST PUSH2 0x3C6 PUSH2 0xCE0 JUMP JUMPDEST PUSH2 0x316 PUSH2 0xD04 JUMP JUMPDEST PUSH2 0x28C PUSH2 0xE04 JUMP JUMPDEST PUSH2 0x2DF PUSH2 0xE65 JUMP JUMPDEST PUSH2 0x2DF PUSH2 0x50F CALLDATASIZE PUSH1 0x4 PUSH2 0x474E JUMP JUMPDEST PUSH2 0xE6B JUMP JUMPDEST PUSH2 0x2B5 PUSH2 0x522 CALLDATASIZE PUSH1 0x4 PUSH2 0x42BA JUMP JUMPDEST PUSH2 0x1033 JUMP JUMPDEST PUSH2 0x2B5 PUSH2 0x535 CALLDATASIZE PUSH1 0x4 PUSH2 0x42BA JUMP JUMPDEST PUSH2 0x1071 JUMP JUMPDEST PUSH2 0x3C6 PUSH2 0x107E JUMP JUMPDEST PUSH2 0x2DF PUSH2 0x550 CALLDATASIZE PUSH1 0x4 PUSH2 0x471B JUMP JUMPDEST PUSH2 0x1088 JUMP JUMPDEST PUSH2 0x2DF PUSH2 0x111D JUMP JUMPDEST PUSH2 0x2DF PUSH2 0x1123 JUMP JUMPDEST PUSH2 0x2D5 PUSH2 0x573 CALLDATASIZE PUSH1 0x4 PUSH2 0x4245 JUMP JUMPDEST PUSH2 0x1208 JUMP JUMPDEST PUSH2 0x492 PUSH2 0x586 CALLDATASIZE PUSH1 0x4 PUSH2 0x4560 JUMP JUMPDEST PUSH2 0x1351 JUMP JUMPDEST PUSH2 0x2DF PUSH2 0x599 CALLDATASIZE PUSH1 0x4 PUSH2 0x41CD JUMP JUMPDEST PUSH2 0x1471 JUMP JUMPDEST PUSH2 0x316 PUSH2 0x14AE JUMP JUMPDEST PUSH2 0x2DF PUSH2 0x14B8 JUMP JUMPDEST PUSH1 0x3 DUP1 SLOAD PUSH1 0x40 DUP1 MLOAD PUSH1 0x20 PUSH1 0x1F PUSH1 0x2 PUSH1 0x0 NOT PUSH2 0x100 PUSH1 0x1 DUP9 AND ISZERO MUL ADD SWAP1 SWAP6 AND SWAP5 SWAP1 SWAP5 DIV SWAP4 DUP5 ADD DUP2 SWAP1 DIV DUP2 MUL DUP3 ADD DUP2 ADD SWAP1 SWAP3 MSTORE DUP3 DUP2 MSTORE PUSH1 0x60 SWAP4 SWAP1 SWAP3 SWAP1 SWAP2 DUP4 ADD DUP3 DUP3 DUP1 ISZERO PUSH2 0x63A JUMPI DUP1 PUSH1 0x1F LT PUSH2 0x60F JUMPI PUSH2 0x100 DUP1 DUP4 SLOAD DIV MUL DUP4 MSTORE SWAP2 PUSH1 0x20 ADD SWAP2 PUSH2 0x63A JUMP JUMPDEST DUP3 ADD SWAP2 SWAP1 PUSH1 0x0 MSTORE PUSH1 0x20 PUSH1 0x0 KECCAK256 SWAP1 JUMPDEST DUP2 SLOAD DUP2 MSTORE SWAP1 PUSH1 0x1 ADD SWAP1 PUSH1 0x20 ADD DUP1 DUP4 GT PUSH2 0x61D JUMPI DUP3 SWAP1 SUB PUSH1 0x1F AND DUP3 ADD SWAP2 JUMPDEST POP POP POP POP POP SWAP1 POP SWAP1 JUMP JUMPDEST PUSH1 0x0 PUSH2 0x651 CALLER DUP5 DUP5 PUSH2 0x1546 JUMP JUMPDEST POP PUSH1 0x1 JUMPDEST SWAP3 SWAP2 POP POP JUMP JUMPDEST PUSH2 0x663 PUSH2 0x15AE JUMP JUMPDEST PUSH2 0x66C DUP2 PUSH2 0x15DC JUMP JUMPDEST POP JUMP JUMPDEST PUSH1 0x2 SLOAD SWAP1 JUMP JUMPDEST PUSH1 0x0 DUP1 PUSH1 0x0 PUSH2 0x682 PUSH2 0x165A JUMP JUMPDEST ISZERO SWAP3 POP PUSH2 0x68D PUSH2 0x1677 JUMP JUMPDEST SWAP2 POP PUSH2 0x697 PUSH2 0x169B JUMP JUMPDEST SWAP1 POP SWAP1 SWAP2 SWAP3 JUMP JUMPDEST PUSH1 0x60 DUP2 MLOAD PUSH1 0x1 PUSH1 0x1 PUSH1 0x40 SHL SUB DUP2 GT DUP1 ISZERO PUSH2 0x6B7 JUMPI PUSH1 0x0 DUP1 REVERT JUMPDEST POP PUSH1 0x40 MLOAD SWAP1 DUP1 DUP3 MSTORE DUP1 PUSH1 0x20 MUL PUSH1 0x20 ADD DUP3 ADD PUSH1 0x40 MSTORE DUP1 ISZERO PUSH2 0x6E1 JUMPI DUP2 PUSH1 0x20 ADD PUSH1 0x20 DUP3 MUL DUP1 CALLDATASIZE DUP4 CALLDATACOPY ADD SWAP1 POP JUMPDEST POP SWAP1 POP PUSH1 0x0 PUSH2 0x6EE PUSH2 0x16BF JUMP JUMPDEST SWAP1 POP PUSH1 0x0 JUMPDEST DUP4 MLOAD DUP2 LT ISZERO PUSH2 0x7BA JUMPI PUSH20 0x0 PUSH4 0x79EAEF82 PUSH1 0x8 DUP7 DUP5 DUP2 MLOAD DUP2 LT PUSH2 0x724 JUMPI INVALID JUMPDEST PUSH1 0x20 MUL PUSH1 0x20 ADD ADD MLOAD DUP6 PUSH1 0x40 MLOAD DUP5 PUSH4 0xFFFFFFFF AND PUSH1 0xE0 SHL DUP2 MSTORE PUSH1 0x4 ADD PUSH2 0x74B SWAP4 SWAP3 SWAP2 SWAP1 PUSH2 0x4B36 JUMP JUMPDEST PUSH1 0x20 PUSH1 0x40 MLOAD DUP1 DUP4 SUB DUP2 DUP7 DUP1 EXTCODESIZE ISZERO DUP1 ISZERO PUSH2 0x763 JUMPI PUSH1 0x0 DUP1 REVERT JUMPDEST POP GAS DELEGATECALL ISZERO DUP1 ISZERO PUSH2 0x777 JUMPI RETURNDATASIZE PUSH1 0x0 DUP1 RETURNDATACOPY RETURNDATASIZE PUSH1 0x0 REVERT JUMPDEST POP POP POP POP PUSH1 0x40 MLOAD RETURNDATASIZE PUSH1 0x1F NOT PUSH1 0x1F DUP3 ADD AND DUP3 ADD DUP1 PUSH1 0x40 MSTORE POP DUP2 ADD SWAP1 PUSH2 0x79B SWAP2 SWAP1 PUSH2 0x4736 JUMP JUMPDEST DUP4 DUP3 DUP2 MLOAD DUP2 LT PUSH2 0x7A7 JUMPI INVALID JUMPDEST PUSH1 0x20 SWAP1 DUP2 MUL SWAP2 SWAP1 SWAP2 ADD ADD MSTORE PUSH1 0x1 ADD PUSH2 0x6F3 JUMP JUMPDEST POP POP SWAP2 SWAP1 POP JUMP JUMPDEST PUSH1 0x0 DUP1 PUSH2 0x7CE DUP6 CALLER PUSH2 0x1471 JUMP JUMPDEST SWAP1 POP PUSH2 0x7F2 CALLER PUSH1 0x1 PUSH1 0x1 PUSH1 0xA0 SHL SUB DUP8 AND EQ DUP1 PUSH2 0x7EA JUMPI POP DUP4 DUP3 LT ISZERO JUMPDEST PUSH2 0x19E PUSH2 0x16CC JUMP JUMPDEST PUSH2 0x7FD DUP6 DUP6 DUP6 PUSH2 0x16DE JUMP JUMPDEST CALLER PUSH1 0x1 PUSH1 0x1 PUSH1 0xA0 SHL SUB DUP7 AND EQ DUP1 ISZERO SWAP1 PUSH2 0x818 JUMPI POP PUSH1 0x0 NOT DUP2 EQ ISZERO JUMPDEST ISZERO PUSH2 0x82A JUMPI PUSH2 0x82A DUP6 CALLER DUP6 DUP5 SUB PUSH2 0x1546 JUMP JUMPDEST POP PUSH1 0x1 SWAP5 SWAP4 POP POP POP POP JUMP JUMPDEST PUSH2 0x83D PUSH2 0x17BE JUMP JUMPDEST PUSH2 0x845 PUSH2 0x15AE JUMP JUMPDEST PUSH2 0x84F PUSH1 0x1 PUSH2 0x17D1 JUMP JUMPDEST PUSH1 0x0 PUSH2 0x859 PUSH2 0x66F JUMP JUMPDEST GT ISZERO PUSH2 0x867 JUMPI PUSH2 0x867 PUSH2 0x1811 JUMP JUMPDEST JUMP JUMPDEST PUSH1 0x5 SLOAD PUSH1 0xFF AND SWAP1 JUMP JUMPDEST PUSH2 0x88D DUP2 DUP4 LT DUP1 ISZERO PUSH2 0x886 JUMPI POP PUSH2 0x400 DUP3 GT ISZERO JUMPDEST PUSH1 0x64 PUSH2 0x16CC JUMP JUMPDEST PUSH1 0x0 PUSH2 0x8A2 PUSH1 0x1 PUSH1 0x0 DUP1 PUSH1 0x0 DUP1 PUSH1 0x0 DUP1 PUSH2 0x1859 JUMP JUMPDEST SWAP1 POP DUP3 JUMPDEST DUP3 DUP2 LT ISZERO PUSH2 0x8E4 JUMPI PUSH1 0x0 DUP2 DUP2 MSTORE PUSH1 0x8 PUSH1 0x20 MSTORE PUSH1 0x40 SWAP1 KECCAK256 SLOAD PUSH2 0x8C6 SWAP1 PUSH2 0x18B9 JUMP JUMPDEST PUSH2 0x8DC JUMPI PUSH1 0x0 DUP2 DUP2 MSTORE PUSH1 0x8 PUSH1 0x20 MSTORE PUSH1 0x40 SWAP1 KECCAK256 DUP3 SWAP1 SSTORE JUMPDEST PUSH1 0x1 ADD PUSH2 0x8A6 JUMP JUMPDEST POP POP POP POP JUMP JUMPDEST PUSH1 0x0 PUSH2 0x8F4 PUSH2 0x18C5 JUMP JUMPDEST SWAP1 POP SWAP1 JUMP JUMPDEST PUSH2 0x901 PUSH2 0x15AE JUMP JUMPDEST PUSH2 0x909 PUSH2 0x17BE JUMP JUMPDEST PUSH2 0x66C DUP2 PUSH2 0x1962 JUMP JUMPDEST PUSH32 0x0 SWAP1 JUMP JUMPDEST CALLER PUSH1 0x0 DUP2 DUP2 MSTORE PUSH1 0x1 PUSH1 0x20 SWAP1 DUP2 MSTORE PUSH1 0x40 DUP1 DUP4 KECCAK256 PUSH1 0x1 PUSH1 0x1 PUSH1 0xA0 SHL SUB DUP8 AND DUP5 MSTORE SWAP1 SWAP2 MSTORE DUP2 KECCAK256 SLOAD SWAP1 SWAP2 PUSH2 0x651 SWAP2 DUP6 SWAP1 PUSH2 0x96C SWAP1 DUP7 PUSH2 0x14BF JUMP JUMPDEST PUSH2 0x1546 JUMP JUMPDEST PUSH1 0x0 DUP1 PUSH1 0x0 PUSH2 0x981 DUP7 DUP7 DUP7 PUSH2 0x19CB JUMP JUMPDEST SWAP3 POP SWAP3 POP SWAP3 POP SWAP4 POP SWAP4 POP SWAP4 SWAP1 POP JUMP JUMPDEST PUSH1 0xB SLOAD PUSH1 0x1 PUSH1 0x1 PUSH1 0xA0 SHL SUB AND DUP2 JUMP JUMPDEST PUSH1 0x0 DUP1 PUSH1 0x0 DUP1 PUSH1 0x0 DUP1 PUSH1 0x0 PUSH1 0x9 SLOAD SWAP1 POP PUSH2 0x9B8 DUP2 PUSH2 0x1B06 JUMP JUMPDEST SWAP7 POP PUSH2 0x9C3 DUP2 PUSH2 0x1B12 JUMP JUMPDEST SWAP6 POP PUSH2 0x9CE DUP2 PUSH2 0x1B1F JUMP JUMPDEST SWAP5 POP PUSH2 0x9D9 DUP2 PUSH2 0x1B2C JUMP JUMPDEST SWAP4 POP PUSH2 0x9E4 DUP2 PUSH2 0x1B39 JUMP JUMPDEST SWAP3 POP PUSH2 0x9EF DUP2 PUSH2 0x1B46 JUMP JUMPDEST SWAP2 POP POP SWAP1 SWAP2 SWAP3 SWAP4 SWAP5 SWAP6 JUMP JUMPDEST PUSH1 0x0 PUSH2 0x8F4 PUSH1 0x9 SLOAD PUSH2 0x1B46 JUMP JUMPDEST PUSH1 0x0 PUSH1 0x60 PUSH2 0xA17 DUP7 MLOAD PUSH1 0x2 PUSH2 0x1B53 JUMP JUMPDEST PUSH2 0xA2C DUP10 DUP10 DUP10 DUP10 DUP10 DUP10 DUP10 PUSH2 0x1B60 PUSH2 0x1CB1 PUSH2 0x1D2F JUMP JUMPDEST SWAP8 POP SWAP8 SWAP6 POP POP POP POP POP POP JUMP JUMPDEST PUSH1 0x0 DUP1 PUSH1 0x0 DUP1 PUSH1 0x0 DUP1 PUSH1 0x0 PUSH2 0xA53 PUSH2 0x400 DUP10 LT PUSH2 0x13B PUSH2 0x16CC JUMP JUMPDEST PUSH1 0x0 PUSH2 0xA5E DUP10 PUSH2 0x1E43 JUMP JUMPDEST SWAP1 POP PUSH2 0xA69 DUP2 PUSH2 0x1E55 JUMP JUMPDEST SWAP6 SWAP16 SWAP5 SWAP15 POP SWAP3 SWAP13 POP SWAP1 SWAP11 POP SWAP9 POP SWAP7 POP SWAP1 SWAP5 POP SWAP3 POP POP POP JUMP JUMPDEST PUSH1 0x0 PUSH2 0x8F4 PUSH2 0xA8E PUSH2 0x66F JUMP JUMPDEST PUSH2 0xAA0 PUSH2 0xA99 PUSH2 0x1123 JUMP JUMPDEST PUSH1 0x2 PUSH2 0x1EB8 JUMP JUMPDEST SWAP1 PUSH2 0x1EDC JUMP JUMPDEST PUSH1 0x60 DUP2 MLOAD PUSH1 0x1 PUSH1 0x1 PUSH1 0x40 SHL SUB DUP2 GT DUP1 ISZERO PUSH2 0xABF JUMPI PUSH1 0x0 DUP1 REVERT JUMPDEST POP PUSH1 0x40 MLOAD SWAP1 DUP1 DUP3 MSTORE DUP1 PUSH1 0x20 MUL PUSH1 0x20 ADD DUP3 ADD PUSH1 0x40 MSTORE DUP1 ISZERO PUSH2 0xAE9 JUMPI DUP2 PUSH1 0x20 ADD PUSH1 0x20 DUP3 MUL DUP1 CALLDATASIZE DUP4 CALLDATACOPY ADD SWAP1 POP JUMPDEST POP SWAP1 POP PUSH1 0x0 PUSH2 0xAF6 PUSH2 0x16BF JUMP JUMPDEST SWAP1 POP PUSH2 0xB00 PUSH2 0x407F JUMP JUMPDEST PUSH1 0x0 JUMPDEST DUP5 MLOAD DUP2 LT ISZERO PUSH2 0xB54 JUMPI DUP5 DUP2 DUP2 MLOAD DUP2 LT PUSH2 0xB18 JUMPI INVALID JUMPDEST PUSH1 0x20 MUL PUSH1 0x20 ADD ADD MLOAD SWAP2 POP PUSH2 0xB35 DUP3 PUSH1 0x0 ADD MLOAD DUP5 DUP5 PUSH1 0x20 ADD MLOAD PUSH2 0x1F1B JUMP JUMPDEST DUP5 DUP3 DUP2 MLOAD DUP2 LT PUSH2 0xB41 JUMPI INVALID JUMPDEST PUSH1 0x20 SWAP1 DUP2 MUL SWAP2 SWAP1 SWAP2 ADD ADD MSTORE PUSH1 0x1 ADD PUSH2 0xB03 JUMP JUMPDEST POP POP POP SWAP2 SWAP1 POP JUMP JUMPDEST PUSH1 0x60 PUSH2 0x8F4 PUSH2 0x1FB4 JUMP JUMPDEST PUSH1 0x1 PUSH1 0x1 PUSH1 0xA0 SHL SUB DUP2 AND PUSH1 0x0 SWAP1 DUP2 MSTORE PUSH1 0x20 DUP2 SWAP1 MSTORE PUSH1 0x40 SWAP1 KECCAK256 SLOAD JUMPDEST SWAP2 SWAP1 POP JUMP JUMPDEST PUSH1 0x60 DUP1 DUP9 PUSH2 0xBAF PUSH2 0xB94 PUSH2 0xCE0 JUMP JUMPDEST PUSH1 0x1 PUSH1 0x1 PUSH1 0xA0 SHL SUB AND CALLER PUSH1 0x1 PUSH1 0x1 PUSH1 0xA0 SHL SUB AND EQ PUSH1 0xCD PUSH2 0x16CC JUMP JUMPDEST PUSH2 0xBC4 PUSH2 0xBBA PUSH2 0x912 JUMP JUMPDEST DUP3 EQ PUSH2 0x1F4 PUSH2 0x16CC JUMP JUMPDEST PUSH2 0xBCD DUP8 PUSH2 0x2022 JUMP JUMPDEST PUSH1 0x0 PUSH1 0x60 DUP1 PUSH2 0xBE1 DUP14 DUP14 DUP14 DUP14 DUP14 DUP14 DUP14 PUSH2 0x1B60 JUMP JUMPDEST SWAP3 POP SWAP3 POP SWAP3 POP PUSH2 0xBF1 DUP13 DUP5 PUSH2 0x2084 JUMP JUMPDEST PUSH2 0xBFA DUP3 PUSH2 0x1CB1 JUMP JUMPDEST PUSH2 0xC03 DUP2 PUSH2 0x1CB1 JUMP JUMPDEST PUSH2 0xC0B PUSH2 0x165A JUMP JUMPDEST ISZERO PUSH2 0xC18 JUMPI PUSH2 0xC18 PUSH2 0x1811 JUMP JUMPDEST SWAP1 SWAP13 SWAP1 SWAP12 POP SWAP10 POP POP POP POP POP POP POP POP POP POP JUMP JUMPDEST PUSH1 0x1 PUSH1 0x1 PUSH1 0xA0 SHL SUB AND PUSH1 0x0 SWAP1 DUP2 MSTORE PUSH1 0x6 PUSH1 0x20 MSTORE PUSH1 0x40 SWAP1 KECCAK256 SLOAD SWAP1 JUMP JUMPDEST PUSH1 0x0 PUSH32 0x0 DUP3 PUSH1 0x40 MLOAD PUSH1 0x20 ADD PUSH2 0xC7A SWAP3 SWAP2 SWAP1 PUSH2 0x48F4 JUMP JUMPDEST PUSH1 0x40 MLOAD PUSH1 0x20 DUP2 DUP4 SUB SUB DUP2 MSTORE SWAP1 PUSH1 0x40 MSTORE DUP1 MLOAD SWAP1 PUSH1 0x20 ADD KECCAK256 SWAP1 POP SWAP2 SWAP1 POP JUMP JUMPDEST PUSH1 0x0 PUSH1 0x60 PUSH2 0xCA7 DUP7 MLOAD PUSH1 0x2 PUSH2 0x1B53 JUMP JUMPDEST PUSH2 0xA2C DUP10 DUP10 DUP10 DUP10 DUP10 DUP10 DUP10 PUSH2 0x208E PUSH2 0x213F PUSH2 0x1D2F JUMP JUMPDEST PUSH32 0x0 SWAP1 JUMP JUMPDEST PUSH32 0x0 SWAP1 JUMP JUMPDEST PUSH1 0x60 DUP1 PUSH2 0xD0F PUSH2 0xCE0 JUMP JUMPDEST PUSH1 0x1 PUSH1 0x1 PUSH1 0xA0 SHL SUB AND PUSH4 0xF94D4668 PUSH2 0xD25 PUSH2 0x912 JUMP JUMPDEST PUSH1 0x40 MLOAD DUP3 PUSH4 0xFFFFFFFF AND PUSH1 0xE0 SHL DUP2 MSTORE PUSH1 0x4 ADD PUSH2 0xD41 SWAP2 SWAP1 PUSH2 0x49EA JUMP JUMPDEST PUSH1 0x0 PUSH1 0x40 MLOAD DUP1 DUP4 SUB DUP2 DUP7 DUP1 EXTCODESIZE ISZERO DUP1 ISZERO PUSH2 0xD59 JUMPI PUSH1 0x0 DUP1 REVERT JUMPDEST POP GAS STATICCALL ISZERO DUP1 ISZERO PUSH2 0xD6D JUMPI RETURNDATASIZE PUSH1 0x0 DUP1 RETURNDATACOPY RETURNDATASIZE PUSH1 0x0 REVERT JUMPDEST POP POP POP POP PUSH1 0x40 MLOAD RETURNDATASIZE PUSH1 0x0 DUP3 RETURNDATACOPY PUSH1 0x1F RETURNDATASIZE SWAP1 DUP2 ADD PUSH1 0x1F NOT AND DUP3 ADD PUSH1 0x40 MSTORE PUSH2 0xD95 SWAP2 SWAP1 DUP2 ADD SWAP1 PUSH2 0x42E5 JUMP JUMPDEST POP SWAP2 POP POP PUSH2 0xDCD DUP2 PUSH1 0x0 DUP2 MLOAD DUP2 LT PUSH2 0xDA9 JUMPI INVALID JUMPDEST PUSH1 0x20 MUL PUSH1 0x20 ADD ADD MLOAD DUP3 PUSH1 0x1 DUP2 MLOAD DUP2 LT PUSH2 0xDBE JUMPI INVALID JUMPDEST PUSH1 0x20 MUL PUSH1 0x20 ADD ADD MLOAD PUSH1 0x1 PUSH2 0x19CB JUMP JUMPDEST SWAP1 SWAP2 POP DUP4 PUSH1 0x0 DUP2 MLOAD DUP2 LT PUSH2 0xDDD JUMPI INVALID JUMPDEST PUSH1 0x20 MUL PUSH1 0x20 ADD ADD DUP5 PUSH1 0x1 DUP2 MLOAD DUP2 LT PUSH2 0xDF1 JUMPI INVALID JUMPDEST PUSH1 0x20 SWAP1 DUP2 MUL SWAP2 SWAP1 SWAP2 ADD ADD SWAP2 SWAP1 SWAP2 MSTORE MSTORE POP SWAP1 JUMP JUMPDEST PUSH1 0x4 DUP1 SLOAD PUSH1 0x40 DUP1 MLOAD PUSH1 0x20 PUSH1 0x1F PUSH1 0x2 PUSH1 0x0 NOT PUSH2 0x100 PUSH1 0x1 DUP9 AND ISZERO MUL ADD SWAP1 SWAP6 AND SWAP5 SWAP1 SWAP5 DIV SWAP4 DUP5 ADD DUP2 SWAP1 DIV DUP2 MUL DUP3 ADD DUP2 ADD SWAP1 SWAP3 MSTORE DUP3 DUP2 MSTORE PUSH1 0x60 SWAP4 SWAP1 SWAP3 SWAP1 SWAP2 DUP4 ADD DUP3 DUP3 DUP1 ISZERO PUSH2 0x63A JUMPI DUP1 PUSH1 0x1F LT PUSH2 0x60F JUMPI PUSH2 0x100 DUP1 DUP4 SLOAD DIV MUL DUP4 MSTORE SWAP2 PUSH1 0x20 ADD SWAP2 PUSH2 0x63A JUMP JUMPDEST PUSH1 0xA SLOAD SWAP1 JUMP JUMPDEST PUSH1 0x0 PUSH2 0xE75 PUSH2 0x17BE JUMP JUMPDEST DUP4 PUSH1 0x80 ADD MLOAD PUSH2 0xE85 PUSH2 0xB94 PUSH2 0xCE0 JUMP JUMPDEST PUSH2 0xE90 PUSH2 0xBBA PUSH2 0x912 JUMP JUMPDEST PUSH1 0x0 PUSH32 0x0 PUSH1 0x1 PUSH1 0x1 PUSH1 0xA0 SHL SUB AND DUP7 PUSH1 0x20 ADD MLOAD PUSH1 0x1 PUSH1 0x1 PUSH1 0xA0 SHL SUB AND EQ SWAP1 POP PUSH1 0x0 PUSH2 0xED8 DUP3 PUSH2 0x219D JUMP JUMPDEST SWAP1 POP PUSH1 0x0 PUSH2 0xEE6 DUP4 ISZERO PUSH2 0x219D JUMP JUMPDEST SWAP1 POP PUSH2 0xEF2 DUP8 DUP4 PUSH2 0x21F1 JUMP JUMPDEST SWAP7 POP PUSH2 0xEFE DUP7 DUP3 PUSH2 0x21F1 JUMP JUMPDEST SWAP6 POP PUSH1 0x0 DUP1 PUSH1 0x0 PUSH2 0xF10 DUP11 DUP11 DUP9 PUSH2 0x19CB JUMP JUMPDEST SWAP3 POP SWAP3 POP SWAP3 POP PUSH2 0xF57 DUP12 PUSH1 0xA0 ADD MLOAD DUP8 PUSH2 0xF29 JUMPI DUP11 PUSH2 0xF2B JUMP JUMPDEST DUP12 JUMPDEST DUP9 PUSH2 0xF36 JUMPI DUP13 PUSH2 0xF38 JUMP JUMPDEST DUP12 JUMPDEST DUP10 PUSH2 0xF43 JUMPI DUP5 PUSH2 0xF45 JUMP JUMPDEST DUP6 JUMPDEST DUP11 PUSH2 0xF50 JUMPI DUP7 PUSH2 0xF52 JUMP JUMPDEST DUP6 JUMPDEST PUSH2 0x21FD JUMP JUMPDEST PUSH1 0x0 DUP12 MLOAD PUSH1 0x1 DUP2 GT ISZERO PUSH2 0xF66 JUMPI INVALID JUMPDEST EQ ISZERO PUSH2 0xFD6 JUMPI PUSH1 0x0 PUSH2 0xF84 PUSH2 0xF79 PUSH2 0x9FA JUMP JUMPDEST PUSH1 0x60 DUP15 ADD MLOAD SWAP1 PUSH2 0x22A7 JUMP JUMPDEST SWAP1 POP PUSH2 0xFA6 PUSH2 0xFA0 DUP3 DUP15 PUSH1 0x60 ADD MLOAD PUSH2 0x14F4 SWAP1 SWAP2 SWAP1 PUSH4 0xFFFFFFFF AND JUMP JUMPDEST DUP8 PUSH2 0x21F1 JUMP JUMPDEST PUSH1 0x60 DUP14 ADD MSTORE PUSH1 0x0 PUSH2 0xFBB DUP14 DUP14 DUP14 DUP8 DUP8 DUP11 PUSH2 0x22EB JUMP JUMPDEST SWAP1 POP PUSH2 0xFC7 DUP2 DUP8 PUSH2 0x2309 JUMP JUMPDEST SWAP10 POP POP POP POP POP POP POP POP POP PUSH2 0x102B JUMP JUMPDEST PUSH2 0xFE4 DUP12 PUSH1 0x60 ADD MLOAD DUP6 PUSH2 0x21F1 JUMP JUMPDEST PUSH1 0x60 DUP13 ADD MSTORE PUSH1 0x0 PUSH2 0xFF9 DUP13 DUP13 DUP13 DUP7 DUP7 DUP10 PUSH2 0x2315 JUMP JUMPDEST SWAP1 POP PUSH2 0x1005 DUP2 DUP8 PUSH2 0x2328 JUMP JUMPDEST SWAP1 POP PUSH2 0x1021 PUSH2 0x101A PUSH2 0x1015 PUSH2 0x9FA JUMP JUMPDEST PUSH2 0x2334 JUMP JUMPDEST DUP3 SWAP1 PUSH2 0x235A JUMP JUMPDEST SWAP9 POP POP POP POP POP POP POP POP JUMPDEST POP SWAP4 SWAP3 POP POP POP JUMP JUMPDEST PUSH1 0x0 DUP1 PUSH2 0x1040 CALLER DUP6 PUSH2 0x1471 JUMP JUMPDEST SWAP1 POP DUP1 DUP4 LT PUSH2 0x105A JUMPI PUSH2 0x1055 CALLER DUP6 PUSH1 0x0 PUSH2 0x1546 JUMP JUMPDEST PUSH2 0x1067 JUMP JUMPDEST PUSH2 0x1067 CALLER DUP6 DUP6 DUP5 SUB PUSH2 0x1546 JUMP JUMPDEST POP PUSH1 0x1 SWAP4 SWAP3 POP POP POP JUMP JUMPDEST PUSH1 0x0 PUSH2 0x651 CALLER DUP5 DUP5 PUSH2 0x16DE JUMP JUMPDEST PUSH1 0x0 PUSH2 0x8F4 PUSH2 0x23A5 JUMP JUMPDEST PUSH1 0x0 PUSH20 0x0 PUSH4 0x397BEE0 PUSH1 0x8 DUP5 PUSH2 0x10AF PUSH2 0x16BF JUMP JUMPDEST PUSH1 0x40 MLOAD DUP5 PUSH4 0xFFFFFFFF AND PUSH1 0xE0 SHL DUP2 MSTORE PUSH1 0x4 ADD PUSH2 0x10CD SWAP4 SWAP3 SWAP2 SWAP1 PUSH2 0x4AEA JUMP JUMPDEST PUSH1 0x20 PUSH1 0x40 MLOAD DUP1 DUP4 SUB DUP2 DUP7 DUP1 EXTCODESIZE ISZERO DUP1 ISZERO PUSH2 0x10E5 JUMPI PUSH1 0x0 DUP1 REVERT JUMPDEST POP GAS DELEGATECALL ISZERO DUP1 ISZERO PUSH2 0x10F9 JUMPI RETURNDATASIZE PUSH1 0x0 DUP1 RETURNDATACOPY RETURNDATASIZE PUSH1 0x0 REVERT JUMPDEST POP POP POP POP PUSH1 0x40 MLOAD RETURNDATASIZE PUSH1 0x1F NOT PUSH1 0x1F DUP3 ADD AND DUP3 ADD DUP1 PUSH1 0x40 MSTORE POP DUP2 ADD SWAP1 PUSH2 0x655 SWAP2 SWAP1 PUSH2 0x4736 JUMP JUMPDEST PUSH2 0x400 SWAP1 JUMP JUMPDEST PUSH1 0x0 PUSH1 0x60 PUSH2 0x112F PUSH2 0xCE0 JUMP JUMPDEST PUSH1 0x1 PUSH1 0x1 PUSH1 0xA0 SHL SUB AND PUSH4 0xF94D4668 PUSH2 0x1145 PUSH2 0x912 JUMP JUMPDEST PUSH1 0x40 MLOAD DUP3 PUSH4 0xFFFFFFFF AND PUSH1 0xE0 SHL DUP2 MSTORE PUSH1 0x4 ADD PUSH2 0x1161 SWAP2 SWAP1 PUSH2 0x49EA JUMP JUMPDEST PUSH1 0x0 PUSH1 0x40 MLOAD DUP1 DUP4 SUB DUP2 DUP7 DUP1 EXTCODESIZE ISZERO DUP1 ISZERO PUSH2 0x1179 JUMPI PUSH1 0x0 DUP1 REVERT JUMPDEST POP GAS STATICCALL ISZERO DUP1 ISZERO PUSH2 0x118D JUMPI RETURNDATASIZE PUSH1 0x0 DUP1 RETURNDATACOPY RETURNDATASIZE PUSH1 0x0 REVERT JUMPDEST POP POP POP POP PUSH1 0x40 MLOAD RETURNDATASIZE PUSH1 0x0 DUP3 RETURNDATACOPY PUSH1 0x1F RETURNDATASIZE SWAP1 DUP2 ADD PUSH1 0x1F NOT AND DUP3 ADD PUSH1 0x40 MSTORE PUSH2 0x11B5 SWAP2 SWAP1 DUP2 ADD SWAP1 PUSH2 0x42E5 JUMP JUMPDEST POP SWAP2 POP POP PUSH1 0x60 PUSH2 0x11C3 PUSH2 0x1FB4 JUMP JUMPDEST SWAP1 POP PUSH2 0x11CE DUP3 PUSH2 0x2022 JUMP JUMPDEST PUSH2 0x1201 DUP3 DUP3 PUSH1 0x0 DUP2 MLOAD DUP2 LT PUSH2 0x11DF JUMPI INVALID JUMPDEST PUSH1 0x20 MUL PUSH1 0x20 ADD ADD MLOAD DUP4 PUSH1 0x1 DUP2 MLOAD DUP2 LT PUSH2 0x11F4 JUMPI INVALID JUMPDEST PUSH1 0x20 MUL PUSH1 0x20 ADD ADD MLOAD PUSH2 0x241F JUMP JUMPDEST SWAP3 POP POP POP SWAP1 JUMP JUMPDEST PUSH2 0x1216 DUP5 TIMESTAMP GT ISZERO PUSH1 0xD1 PUSH2 0x16CC JUMP JUMPDEST PUSH1 0x1 PUSH1 0x1 PUSH1 0xA0 SHL SUB DUP8 AND PUSH1 0x0 SWAP1 DUP2 MSTORE PUSH1 0x6 PUSH1 0x20 SWAP1 DUP2 MSTORE PUSH1 0x40 DUP1 DUP4 KECCAK256 SLOAD SWAP1 MLOAD SWAP1 SWAP3 SWAP2 PUSH2 0x126D SWAP2 PUSH32 0x0 SWAP2 DUP13 SWAP2 DUP13 SWAP2 DUP13 SWAP2 DUP9 SWAP2 DUP14 SWAP2 ADD PUSH2 0x4A12 JUMP JUMPDEST PUSH1 0x40 MLOAD PUSH1 0x20 DUP2 DUP4 SUB SUB DUP2 MSTORE SWAP1 PUSH1 0x40 MSTORE DUP1 MLOAD SWAP1 PUSH1 0x20 ADD KECCAK256 SWAP1 POP PUSH1 0x0 PUSH2 0x1290 DUP3 PUSH2 0x2452 JUMP JUMPDEST SWAP1 POP PUSH1 0x0 PUSH1 0x1 DUP3 DUP9 DUP9 DUP9 PUSH1 0x40 MLOAD PUSH1 0x0 DUP2 MSTORE PUSH1 0x20 ADD PUSH1 0x40 MSTORE PUSH1 0x40 MLOAD PUSH2 0x12B7 SWAP5 SWAP4 SWAP3 SWAP2 SWAP1 PUSH2 0x4A72 JUMP JUMPDEST PUSH1 0x20 PUSH1 0x40 MLOAD PUSH1 0x20 DUP2 SUB SWAP1 DUP1 DUP5 SUB SWAP1 DUP6 GAS STATICCALL ISZERO DUP1 ISZERO PUSH2 0x12D9 JUMPI RETURNDATASIZE PUSH1 0x0 DUP1 RETURNDATACOPY RETURNDATASIZE PUSH1 0x0 REVERT JUMPDEST POP POP PUSH1 0x40 MLOAD PUSH1 0x1F NOT ADD MLOAD SWAP2 POP PUSH2 0x131B SWAP1 POP PUSH1 0x1 PUSH1 0x1 PUSH1 0xA0 SHL SUB DUP3 AND ISZERO DUP1 ISZERO SWAP1 PUSH2 0x1313 JUMPI POP DUP12 PUSH1 0x1 PUSH1 0x1 PUSH1 0xA0 SHL SUB AND DUP3 PUSH1 0x1 PUSH1 0x1 PUSH1 0xA0 SHL SUB AND EQ JUMPDEST PUSH2 0x1F8 PUSH2 0x16CC JUMP JUMPDEST PUSH1 0x1 PUSH1 0x1 PUSH1 0xA0 SHL SUB DUP12 AND PUSH1 0x0 SWAP1 DUP2 MSTORE PUSH1 0x6 PUSH1 0x20 MSTORE PUSH1 0x40 SWAP1 KECCAK256 PUSH1 0x1 DUP6 ADD SWAP1 SSTORE PUSH2 0x1344 DUP12 DUP12 DUP12 PUSH2 0x1546 JUMP JUMPDEST POP POP POP POP POP POP POP POP POP POP POP JUMP JUMPDEST PUSH1 0x60 DUP1 DUP9 PUSH2 0x1360 PUSH2 0xB94 PUSH2 0xCE0 JUMP JUMPDEST PUSH2 0x136B PUSH2 0xBBA PUSH2 0x912 JUMP JUMPDEST PUSH2 0x1373 PUSH2 0x17BE JUMP JUMPDEST PUSH1 0x0 PUSH2 0x137D PUSH2 0x66F JUMP JUMPDEST PUSH2 0x13ED JUMPI PUSH2 0x138D DUP12 DUP12 DUP12 DUP9 PUSH2 0x246E JUMP JUMPDEST SWAP5 POP SWAP1 POP PUSH2 0x13A2 PUSH3 0xF4240 DUP3 LT ISZERO PUSH1 0xCC PUSH2 0x16CC JUMP JUMPDEST PUSH2 0x13B0 PUSH1 0x0 PUSH3 0xF4240 PUSH2 0x24FE JUMP JUMPDEST PUSH2 0x13BF DUP10 PUSH3 0xF4240 DUP4 SUB PUSH2 0x24FE JUMP JUMPDEST PUSH2 0x13C8 DUP5 PUSH2 0x213F JUMP JUMPDEST PUSH1 0x40 DUP1 MLOAD PUSH1 0x2 DUP1 DUP3 MSTORE PUSH1 0x60 DUP3 ADD DUP4 MSTORE SWAP1 SWAP2 PUSH1 0x20 DUP4 ADD SWAP1 DUP1 CALLDATASIZE DUP4 CALLDATACOPY ADD SWAP1 POP POP SWAP3 POP PUSH2 0x145B JUMP JUMPDEST PUSH2 0x13F6 DUP9 PUSH2 0x2022 JUMP JUMPDEST PUSH2 0x1429 DUP8 DUP10 PUSH1 0x0 DUP2 MLOAD DUP2 LT PUSH2 0x1407 JUMPI INVALID JUMPDEST PUSH1 0x20 MUL PUSH1 0x20 ADD ADD MLOAD DUP11 PUSH1 0x1 DUP2 MLOAD DUP2 LT PUSH2 0x141C JUMPI INVALID JUMPDEST PUSH1 0x20 MUL PUSH1 0x20 ADD ADD MLOAD PUSH2 0x2508 JUMP JUMPDEST PUSH2 0x1438 DUP12 DUP12 DUP12 DUP12 DUP12 DUP12 DUP12 PUSH2 0x208E JUMP JUMPDEST SWAP1 SWAP6 POP SWAP4 POP SWAP1 POP PUSH2 0x1449 DUP10 DUP3 PUSH2 0x24FE JUMP JUMPDEST PUSH2 0x1452 DUP5 PUSH2 0x213F JUMP JUMPDEST PUSH2 0x145B DUP4 PUSH2 0x1CB1 JUMP JUMPDEST PUSH2 0x1463 PUSH2 0x1811 JUMP JUMPDEST POP POP SWAP8 POP SWAP8 SWAP6 POP POP POP POP POP POP JUMP JUMPDEST PUSH1 0x0 PUSH2 0x147B PUSH2 0xCE0 JUMP JUMPDEST PUSH1 0x1 PUSH1 0x1 PUSH1 0xA0 SHL SUB AND DUP3 PUSH1 0x1 PUSH1 0x1 PUSH1 0xA0 SHL SUB AND EQ ISZERO PUSH2 0x149D JUMPI POP PUSH1 0x0 NOT PUSH2 0x655 JUMP JUMPDEST PUSH2 0x14A7 DUP4 DUP4 PUSH2 0x250D JUMP JUMPDEST SWAP1 POP PUSH2 0x655 JUMP JUMPDEST PUSH1 0x60 PUSH2 0x8F4 PUSH2 0x2538 JUMP JUMPDEST PUSH3 0x1DE20 SWAP1 JUMP JUMPDEST PUSH1 0x0 DUP3 DUP3 ADD PUSH2 0x14D1 DUP5 DUP3 LT ISZERO DUP4 PUSH2 0x16CC JUMP JUMPDEST SWAP4 SWAP3 POP POP POP JUMP JUMPDEST PUSH1 0x0 PUSH2 0x14D1 DUP4 DUP4 PUSH1 0x55 PUSH2 0x150A JUMP JUMPDEST PUSH1 0x0 PUSH2 0x14D1 DUP4 DUP4 PUSH1 0x56 PUSH2 0x1531 JUMP JUMPDEST PUSH1 0x0 PUSH2 0x1504 DUP4 DUP4 GT ISZERO PUSH1 0x1 PUSH2 0x16CC JUMP JUMPDEST POP SWAP1 SUB SWAP1 JUMP JUMPDEST PUSH1 0x0 PUSH1 0x1 DUP3 SHL NOT DUP5 AND DUP3 DUP5 PUSH2 0x1520 JUMPI PUSH1 0x0 PUSH2 0x1523 JUMP JUMPDEST PUSH1 0x1 JUMPDEST PUSH1 0xFF AND SWAP1 SHL OR SWAP5 SWAP4 POP POP POP POP JUMP JUMPDEST PUSH1 0x1 PUSH1 0x1 PUSH1 0x40 SHL SUB DUP2 SHL NOT SWAP3 SWAP1 SWAP3 AND SWAP2 SHL OR SWAP1 JUMP JUMPDEST PUSH1 0x1 PUSH1 0x1 PUSH1 0xA0 SHL SUB DUP1 DUP5 AND PUSH1 0x0 DUP2 DUP2 MSTORE PUSH1 0x1 PUSH1 0x20 SWAP1 DUP2 MSTORE PUSH1 0x40 DUP1 DUP4 KECCAK256 SWAP5 DUP8 AND DUP1 DUP5 MSTORE SWAP5 SWAP1 SWAP2 MSTORE SWAP1 DUP2 SWAP1 KECCAK256 DUP5 SWAP1 SSTORE MLOAD PUSH32 0x8C5BE1E5EBEC7D5BD14F71427D1E84F3DD0314C0F7B2291E5B200AC8C7C3B925 SWAP1 PUSH2 0x15A1 SWAP1 DUP6 SWAP1 PUSH2 0x49EA JUMP JUMPDEST PUSH1 0x40 MLOAD DUP1 SWAP2 SUB SWAP1 LOG3 POP POP POP JUMP JUMPDEST PUSH1 0x0 PUSH2 0x15C5 PUSH1 0x0 CALLDATALOAD PUSH1 0x1 PUSH1 0x1 PUSH1 0xE0 SHL SUB NOT AND PUSH2 0xC45 JUMP JUMPDEST SWAP1 POP PUSH2 0x66C PUSH2 0x15D4 DUP3 CALLER PUSH2 0x2589 JUMP JUMPDEST PUSH2 0x191 PUSH2 0x16CC JUMP JUMPDEST DUP1 ISZERO PUSH2 0x15FC JUMPI PUSH2 0x15F7 PUSH2 0x15ED PUSH2 0x1677 JUMP JUMPDEST TIMESTAMP LT PUSH2 0x193 PUSH2 0x16CC JUMP JUMPDEST PUSH2 0x1611 JUMP JUMPDEST PUSH2 0x1611 PUSH2 0x1607 PUSH2 0x169B JUMP JUMPDEST TIMESTAMP LT PUSH2 0x1A9 PUSH2 0x16CC JUMP JUMPDEST PUSH1 0x7 DUP1 SLOAD PUSH1 0xFF NOT AND DUP3 ISZERO ISZERO OR SWAP1 SSTORE PUSH1 0x40 MLOAD PUSH32 0x9E3A5E37224532DEA67B89FACE185703738A228A6E8A23DEE546960180D3BE64 SWAP1 PUSH2 0x164F SWAP1 DUP4 SWAP1 PUSH2 0x49C7 JUMP JUMPDEST PUSH1 0x40 MLOAD DUP1 SWAP2 SUB SWAP1 LOG1 POP JUMP JUMPDEST PUSH1 0x0 PUSH2 0x1664 PUSH2 0x169B JUMP JUMPDEST TIMESTAMP GT DUP1 PUSH2 0x8F4 JUMPI POP POP PUSH1 0x7 SLOAD PUSH1 0xFF AND ISZERO SWAP1 JUMP JUMPDEST PUSH32 0x0 SWAP1 JUMP JUMPDEST PUSH32 0x0 SWAP1 JUMP JUMPDEST PUSH1 0x0 PUSH2 0x8F4 PUSH1 0x9 SLOAD PUSH2 0x1B2C JUMP JUMPDEST DUP2 PUSH2 0x16DA JUMPI PUSH2 0x16DA DUP2 PUSH2 0x2672 JUMP JUMPDEST POP POP JUMP JUMPDEST PUSH2 0x16F5 PUSH1 0x1 PUSH1 0x1 PUSH1 0xA0 SHL SUB DUP5 AND ISZERO ISZERO PUSH2 0x198 PUSH2 0x16CC JUMP JUMPDEST PUSH2 0x170C PUSH1 0x1 PUSH1 0x1 PUSH1 0xA0 SHL SUB DUP4 AND ISZERO ISZERO PUSH2 0x199 PUSH2 0x16CC JUMP JUMPDEST PUSH2 0x1717 DUP4 DUP4 DUP4 PUSH2 0x2508 JUMP JUMPDEST PUSH1 0x1 PUSH1 0x1 PUSH1 0xA0 SHL SUB DUP4 AND PUSH1 0x0 SWAP1 DUP2 MSTORE PUSH1 0x20 DUP2 SWAP1 MSTORE PUSH1 0x40 SWAP1 KECCAK256 SLOAD PUSH2 0x173D SWAP1 DUP3 PUSH2 0x1A0 PUSH2 0x26C5 JUMP JUMPDEST PUSH1 0x1 PUSH1 0x1 PUSH1 0xA0 SHL SUB DUP1 DUP6 AND PUSH1 0x0 SWAP1 DUP2 MSTORE PUSH1 0x20 DUP2 SWAP1 MSTORE PUSH1 0x40 DUP1 DUP3 KECCAK256 SWAP4 SWAP1 SWAP4 SSTORE SWAP1 DUP5 AND DUP2 MSTORE KECCAK256 SLOAD PUSH2 0x176C SWAP1 DUP3 PUSH2 0x14BF JUMP JUMPDEST PUSH1 0x1 PUSH1 0x1 PUSH1 0xA0 SHL SUB DUP1 DUP5 AND PUSH1 0x0 DUP2 DUP2 MSTORE PUSH1 0x20 DUP2 SWAP1 MSTORE PUSH1 0x40 SWAP1 DUP2 SWAP1 KECCAK256 SWAP4 SWAP1 SWAP4 SSTORE SWAP2 MLOAD SWAP1 DUP6 AND SWAP1 PUSH32 0xDDF252AD1BE2C89B69C2B068FC378DAA952BA7F163C4A11628F55A4DF523B3EF SWAP1 PUSH2 0x15A1 SWAP1 DUP6 SWAP1 PUSH2 0x49EA JUMP JUMPDEST PUSH2 0x867 PUSH2 0x17C9 PUSH2 0x165A JUMP JUMPDEST PUSH2 0x192 PUSH2 0x16CC JUMP JUMPDEST PUSH1 0x9 SLOAD PUSH2 0x17DE SWAP1 DUP3 PUSH2 0x14D8 JUMP JUMPDEST PUSH1 0x9 SSTORE PUSH1 0x40 MLOAD PUSH32 0x3E350B41E86A8E10F804ADE6D35340D620BE35569CC75AC943E8BB14AB80EAD1 SWAP1 PUSH2 0x164F SWAP1 DUP4 SWAP1 PUSH2 0x49C7 JUMP JUMPDEST PUSH1 0x9 SLOAD PUSH2 0x181D DUP2 PUSH2 0x1B39 JUMP JUMPDEST ISZERO PUSH2 0x66C JUMPI PUSH2 0x1837 PUSH2 0x1830 PUSH1 0xA SLOAD PUSH2 0x26DB JUMP JUMPDEST DUP3 SWAP1 PUSH2 0x271B JUMP JUMPDEST SWAP1 POP PUSH2 0x1853 PUSH2 0x184C PUSH2 0x1847 PUSH2 0x66F JUMP JUMPDEST PUSH2 0x26DB JUMP JUMPDEST DUP3 SWAP1 PUSH2 0x2728 JUMP JUMPDEST PUSH1 0x9 SSTORE POP JUMP JUMPDEST PUSH1 0x0 PUSH2 0x1865 DUP3 DUP3 PUSH2 0x2736 JUMP JUMPDEST PUSH2 0x1870 DUP5 PUSH1 0x1F PUSH2 0x273A JUMP JUMPDEST PUSH2 0x187B DUP7 PUSH1 0x54 PUSH2 0x274B JUMP JUMPDEST PUSH2 0x1886 DUP9 PUSH1 0x6A PUSH2 0x273A JUMP JUMPDEST PUSH2 0x1891 DUP11 PUSH1 0x9F PUSH2 0x274B JUMP JUMPDEST PUSH2 0x189C DUP13 PUSH1 0xB5 PUSH2 0x273A JUMP JUMPDEST PUSH2 0x18A7 DUP15 PUSH1 0xEA PUSH2 0x274B JUMP JUMPDEST OR OR OR OR OR OR SWAP9 SWAP8 POP POP POP POP POP POP POP POP JUMP JUMPDEST PUSH1 0x0 PUSH2 0x655 DUP3 DUP3 PUSH2 0x2758 JUMP JUMPDEST PUSH1 0x0 PUSH32 0x0 PUSH32 0x0 PUSH32 0x0 PUSH2 0x1932 PUSH2 0x2762 JUMP JUMPDEST ADDRESS PUSH1 0x40 MLOAD PUSH1 0x20 ADD PUSH2 0x1947 SWAP6 SWAP5 SWAP4 SWAP3 SWAP2 SWAP1 PUSH2 0x4A46 JUMP JUMPDEST PUSH1 0x40 MLOAD PUSH1 0x20 DUP2 DUP4 SUB SUB DUP2 MSTORE SWAP1 PUSH1 0x40 MSTORE DUP1 MLOAD SWAP1 PUSH1 0x20 ADD KECCAK256 SWAP1 POP SWAP1 JUMP JUMPDEST PUSH2 0x1975 PUSH5 0xE8D4A51000 DUP3 LT ISZERO PUSH1 0xCB PUSH2 0x16CC JUMP JUMPDEST PUSH2 0x198B PUSH8 0x16345785D8A0000 DUP3 GT ISZERO PUSH1 0xCA PUSH2 0x16CC JUMP JUMPDEST PUSH1 0x9 SLOAD PUSH2 0x1998 SWAP1 DUP3 PUSH2 0x14E6 JUMP JUMPDEST PUSH1 0x9 SSTORE PUSH1 0x40 MLOAD PUSH32 0xA9BA3FFE0B6C366B81232CAAB38605A0699AD5398D6CCE76F91EE809E322DAFC SWAP1 PUSH2 0x164F SWAP1 DUP4 SWAP1 PUSH2 0x49EA JUMP JUMPDEST PUSH1 0x40 DUP1 MLOAD PUSH1 0x2 DUP1 DUP3 MSTORE PUSH1 0x60 DUP1 DUP4 ADD DUP5 MSTORE PUSH1 0x0 SWAP4 DUP5 SWAP4 DUP5 SWAP4 SWAP1 SWAP2 PUSH1 0x20 DUP4 ADD SWAP1 DUP1 CALLDATASIZE DUP4 CALLDATACOPY ADD SWAP1 POP POP SWAP1 POP DUP5 PUSH2 0x19FE JUMPI DUP6 PUSH2 0x1A00 JUMP JUMPDEST DUP7 JUMPDEST DUP2 PUSH1 0x0 DUP2 MLOAD DUP2 LT PUSH2 0x1A0D JUMPI INVALID JUMPDEST PUSH1 0x20 MUL PUSH1 0x20 ADD ADD DUP2 DUP2 MSTORE POP POP DUP5 PUSH2 0x1A24 JUMPI DUP7 PUSH2 0x1A26 JUMP JUMPDEST DUP6 JUMPDEST DUP2 PUSH1 0x1 DUP2 MLOAD DUP2 LT PUSH2 0x1A33 JUMPI INVALID JUMPDEST PUSH1 0x20 MUL PUSH1 0x20 ADD ADD DUP2 DUP2 MSTORE POP POP PUSH1 0x60 PUSH2 0x1A49 PUSH2 0x1FB4 JUMP JUMPDEST SWAP1 POP PUSH2 0x1A5C DUP3 DUP3 PUSH1 0x0 DUP2 MLOAD DUP2 LT PUSH2 0x11DF JUMPI INVALID JUMPDEST PUSH1 0x40 DUP1 MLOAD PUSH1 0x2 DUP1 DUP3 MSTORE PUSH1 0x60 DUP1 DUP4 ADD DUP5 MSTORE SWAP4 SWAP9 POP SWAP1 SWAP2 PUSH1 0x20 DUP4 ADD SWAP1 DUP1 CALLDATASIZE DUP4 CALLDATACOPY ADD SWAP1 POP POP SWAP1 POP PUSH2 0x1A8A DUP3 DUP8 PUSH2 0x2766 JUMP JUMPDEST SWAP1 POP DUP7 PUSH2 0x1AAB JUMPI DUP1 PUSH1 0x1 DUP2 MLOAD DUP2 LT PUSH2 0x1A9E JUMPI INVALID JUMPDEST PUSH1 0x20 MUL PUSH1 0x20 ADD ADD MLOAD PUSH2 0x1AC1 JUMP JUMPDEST DUP1 PUSH1 0x0 DUP2 MLOAD DUP2 LT PUSH2 0x1AB8 JUMPI INVALID JUMPDEST PUSH1 0x20 MUL PUSH1 0x20 ADD ADD MLOAD JUMPDEST SWAP5 POP DUP7 PUSH2 0x1AE2 JUMPI DUP1 PUSH1 0x0 DUP2 MLOAD DUP2 LT PUSH2 0x1AD5 JUMPI INVALID JUMPDEST PUSH1 0x20 MUL PUSH1 0x20 ADD ADD MLOAD PUSH2 0x1AF8 JUMP JUMPDEST DUP1 PUSH1 0x1 DUP2 MLOAD DUP2 LT PUSH2 0x1AEF JUMPI INVALID JUMPDEST PUSH1 0x20 MUL PUSH1 0x20 ADD ADD MLOAD JUMPDEST SWAP4 POP POP POP POP SWAP4 POP SWAP4 POP SWAP4 SWAP1 POP JUMP JUMPDEST PUSH1 0x0 PUSH2 0x655 DUP3 DUP3 PUSH2 0x27F4 JUMP JUMPDEST PUSH1 0x0 PUSH2 0x655 DUP3 PUSH1 0x16 PUSH2 0x27F4 JUMP JUMPDEST PUSH1 0x0 PUSH2 0x655 DUP3 PUSH1 0x2C PUSH2 0x2758 JUMP JUMPDEST PUSH1 0x0 PUSH2 0x655 DUP3 PUSH1 0x4B PUSH2 0x281B JUMP JUMPDEST PUSH1 0x0 PUSH2 0x655 DUP3 PUSH1 0x55 PUSH2 0x2823 JUMP JUMPDEST PUSH1 0x0 PUSH2 0x655 DUP3 PUSH1 0x56 PUSH2 0x282D JUMP JUMPDEST PUSH2 0x16DA DUP2 DUP4 EQ PUSH1 0x67 PUSH2 0x16CC JUMP JUMPDEST PUSH1 0x0 PUSH1 0x60 DUP1 PUSH1 0x60 PUSH2 0x1B6F PUSH2 0x1FB4 JUMP JUMPDEST SWAP1 POP PUSH2 0x1B79 PUSH2 0x165A JUMP JUMPDEST ISZERO PUSH2 0x1C4A JUMPI PUSH1 0x0 PUSH2 0x1BA6 DUP10 DUP4 PUSH1 0x0 DUP2 MLOAD DUP2 LT PUSH2 0x1B91 JUMPI INVALID JUMPDEST PUSH1 0x20 MUL PUSH1 0x20 ADD ADD MLOAD DUP5 PUSH1 0x1 DUP2 MLOAD DUP2 LT PUSH2 0x11F4 JUMPI INVALID JUMPDEST SWAP1 POP PUSH1 0x60 PUSH2 0x1BB4 DUP4 DUP4 PUSH2 0x2766 JUMP JUMPDEST SWAP1 POP PUSH2 0x1C13 DUP10 DUP12 PUSH1 0x0 DUP2 MLOAD DUP2 LT PUSH2 0x1BC7 JUMPI INVALID JUMPDEST PUSH1 0x20 MUL PUSH1 0x20 ADD ADD MLOAD DUP13 PUSH1 0x1 DUP2 MLOAD DUP2 LT PUSH2 0x1BDC JUMPI INVALID JUMPDEST PUSH1 0x20 MUL PUSH1 0x20 ADD ADD MLOAD DUP5 PUSH1 0x0 DUP2 MLOAD DUP2 LT PUSH2 0x1BF1 JUMPI INVALID JUMPDEST PUSH1 0x20 MUL PUSH1 0x20 ADD ADD MLOAD DUP6 PUSH1 0x1 DUP2 MLOAD DUP2 LT PUSH2 0x1C06 JUMPI INVALID JUMPDEST PUSH1 0x20 MUL PUSH1 0x20 ADD ADD MLOAD PUSH2 0x21FD JUMP JUMPDEST PUSH2 0x1C1C DUP3 PUSH2 0x283A JUMP JUMPDEST PUSH2 0x1C26 DUP11 DUP9 PUSH2 0x2867 JUMP JUMPDEST SWAP1 SWAP7 POP SWAP5 POP PUSH2 0x1C3F DUP3 DUP8 PUSH2 0x1C38 PUSH2 0x66F JUMP JUMPDEST PUSH1 0x0 PUSH2 0x28B3 JUMP JUMPDEST PUSH1 0xA SSTORE POP PUSH2 0x1C7B SWAP1 POP JUMP JUMPDEST PUSH2 0x1C54 DUP9 DUP7 PUSH2 0x2867 JUMP JUMPDEST SWAP1 SWAP5 POP SWAP3 POP PUSH2 0x1C66 DUP9 DUP5 PUSH2 0x14F4 PUSH2 0x290B JUMP JUMPDEST PUSH2 0x1C77 DUP9 DUP3 PUSH1 0x0 DUP2 MLOAD DUP2 LT PUSH2 0x11DF JUMPI INVALID JUMPDEST PUSH1 0xA SSTORE JUMPDEST PUSH1 0x40 DUP1 MLOAD PUSH1 0x2 DUP1 DUP3 MSTORE PUSH1 0x60 DUP3 ADD DUP4 MSTORE DUP7 SWAP3 DUP7 SWAP3 SWAP2 SWAP1 PUSH1 0x20 DUP4 ADD SWAP1 DUP1 CALLDATASIZE DUP4 CALLDATACOPY ADD SWAP1 POP POP SWAP4 POP SWAP4 POP SWAP4 POP POP SWAP8 POP SWAP8 POP SWAP8 SWAP5 POP POP POP POP POP JUMP JUMPDEST PUSH2 0x1CD8 DUP2 PUSH1 0x0 DUP2 MLOAD DUP2 LT PUSH2 0x1CC1 JUMPI INVALID JUMPDEST PUSH1 0x20 MUL PUSH1 0x20 ADD ADD MLOAD PUSH2 0x1CD3 PUSH1 0x1 PUSH2 0x219D JUMP JUMPDEST PUSH2 0x299D JUMP JUMPDEST DUP2 PUSH1 0x0 DUP2 MLOAD DUP2 LT PUSH2 0x1CE5 JUMPI INVALID JUMPDEST PUSH1 0x20 MUL PUSH1 0x20 ADD ADD DUP2 DUP2 MSTORE POP POP PUSH2 0x1D13 DUP2 PUSH1 0x1 DUP2 MLOAD DUP2 LT PUSH2 0x1D01 JUMPI INVALID JUMPDEST PUSH1 0x20 MUL PUSH1 0x20 ADD ADD MLOAD PUSH2 0x1CD3 PUSH1 0x0 PUSH2 0x219D JUMP JUMPDEST DUP2 PUSH1 0x1 DUP2 MLOAD DUP2 LT PUSH2 0x1D20 JUMPI INVALID JUMPDEST PUSH1 0x20 MUL PUSH1 0x20 ADD ADD DUP2 DUP2 MSTORE POP POP POP JUMP JUMPDEST CALLER ADDRESS EQ PUSH2 0x1DED JUMPI PUSH1 0x0 ADDRESS PUSH1 0x1 PUSH1 0x1 PUSH1 0xA0 SHL SUB AND PUSH1 0x0 CALLDATASIZE PUSH1 0x40 MLOAD PUSH2 0x1D53 SWAP3 SWAP2 SWAP1 PUSH2 0x490C JUMP JUMPDEST PUSH1 0x0 PUSH1 0x40 MLOAD DUP1 DUP4 SUB DUP2 PUSH1 0x0 DUP7 GAS CALL SWAP2 POP POP RETURNDATASIZE DUP1 PUSH1 0x0 DUP2 EQ PUSH2 0x1D90 JUMPI PUSH1 0x40 MLOAD SWAP2 POP PUSH1 0x1F NOT PUSH1 0x3F RETURNDATASIZE ADD AND DUP3 ADD PUSH1 0x40 MSTORE RETURNDATASIZE DUP3 MSTORE RETURNDATASIZE PUSH1 0x0 PUSH1 0x20 DUP5 ADD RETURNDATACOPY PUSH2 0x1D95 JUMP JUMPDEST PUSH1 0x60 SWAP2 POP JUMPDEST POP POP SWAP1 POP DUP1 PUSH1 0x0 DUP2 EQ PUSH2 0x1DA4 JUMPI INVALID JUMPDEST PUSH1 0x4 PUSH1 0x0 DUP1 RETURNDATACOPY PUSH1 0x0 MLOAD PUSH1 0x1 PUSH1 0x1 PUSH1 0xE0 SHL SUB NOT AND PUSH4 0x43ADBAFB PUSH1 0xE0 SHL DUP2 EQ PUSH2 0x1DCF JUMPI RETURNDATASIZE PUSH1 0x0 DUP1 RETURNDATACOPY RETURNDATASIZE PUSH1 0x0 REVERT JUMPDEST POP PUSH1 0x20 PUSH1 0x4 PUSH1 0x0 RETURNDATACOPY PUSH1 0x40 PUSH1 0x20 MSTORE PUSH1 0x24 RETURNDATASIZE SUB PUSH1 0x24 PUSH1 0x40 RETURNDATACOPY PUSH1 0x1C RETURNDATASIZE ADD PUSH1 0x0 RETURN JUMPDEST PUSH2 0x1DF6 DUP7 PUSH2 0x2022 JUMP JUMPDEST PUSH1 0x0 PUSH1 0x60 PUSH2 0x1E0D DUP12 DUP12 DUP12 DUP12 DUP12 DUP12 DUP12 DUP12 PUSH4 0xFFFFFFFF AND JUMP JUMPDEST POP SWAP2 POP SWAP2 POP PUSH2 0x1E1F DUP2 DUP5 PUSH4 0xFFFFFFFF AND JUMP JUMPDEST DUP1 MLOAD PUSH1 0x1F NOT DUP3 ADD DUP4 SWAP1 MSTORE PUSH4 0x43ADBAFB PUSH1 0x3F NOT DUP4 ADD MSTORE PUSH1 0x20 MUL PUSH1 0x23 NOT DUP3 ADD PUSH1 0x44 DUP3 ADD DUP2 REVERT JUMPDEST PUSH1 0x0 SWAP1 DUP2 MSTORE PUSH1 0x8 PUSH1 0x20 MSTORE PUSH1 0x40 SWAP1 KECCAK256 SLOAD SWAP1 JUMP JUMPDEST PUSH1 0x0 DUP1 PUSH1 0x0 DUP1 PUSH1 0x0 DUP1 PUSH1 0x0 PUSH2 0x1E69 DUP9 PUSH2 0x29BD JUMP JUMPDEST SWAP7 POP PUSH2 0x1E74 DUP9 PUSH2 0x29CA JUMP JUMPDEST SWAP6 POP PUSH2 0x1E7F DUP9 PUSH2 0x29D7 JUMP JUMPDEST SWAP5 POP PUSH2 0x1E8A DUP9 PUSH2 0x29E4 JUMP JUMPDEST SWAP4 POP PUSH2 0x1E95 DUP9 PUSH2 0x29F1 JUMP JUMPDEST SWAP3 POP PUSH2 0x1EA0 DUP9 PUSH2 0x29FE JUMP JUMPDEST SWAP2 POP PUSH2 0x1EAB DUP9 PUSH2 0x18B9 JUMP JUMPDEST SWAP1 POP SWAP2 SWAP4 SWAP6 SWAP8 SWAP1 SWAP3 SWAP5 SWAP7 POP JUMP JUMPDEST PUSH1 0x0 DUP3 DUP3 MUL PUSH2 0x14D1 DUP5 ISZERO DUP1 PUSH2 0x1ED5 JUMPI POP DUP4 DUP6 DUP4 DUP2 PUSH2 0x1ED2 JUMPI INVALID JUMPDEST DIV EQ JUMPDEST PUSH1 0x3 PUSH2 0x16CC JUMP JUMPDEST PUSH1 0x0 DUP2 PUSH2 0x1EE8 JUMPI PUSH1 0x0 DUP1 REVERT JUMPDEST PUSH8 0xDE0B6B3A7640000 DUP4 DUP2 MUL SWAP1 DUP5 DUP3 DUP2 PUSH2 0x1EFE JUMPI INVALID JUMPDEST DIV EQ PUSH2 0x1F09 JUMPI PUSH1 0x0 DUP1 REVERT JUMPDEST DUP3 DUP2 DUP2 PUSH2 0x1F12 JUMPI INVALID JUMPDEST DIV SWAP5 SWAP4 POP POP POP POP JUMP JUMPDEST PUSH1 0x40 MLOAD PUSH4 0x34171A85 PUSH1 0xE0 SHL DUP2 MSTORE PUSH1 0x0 SWAP1 PUSH20 0x0 SWAP1 PUSH4 0x34171A85 SWAP1 PUSH2 0x1F5C SWAP1 PUSH1 0x8 SWAP1 DUP9 SWAP1 DUP9 SWAP1 DUP9 SWAP1 PUSH1 0x4 ADD PUSH2 0x4B0B JUMP JUMPDEST PUSH1 0x20 PUSH1 0x40 MLOAD DUP1 DUP4 SUB DUP2 DUP7 DUP1 EXTCODESIZE ISZERO DUP1 ISZERO PUSH2 0x1F74 JUMPI PUSH1 0x0 DUP1 REVERT JUMPDEST POP GAS DELEGATECALL ISZERO DUP1 ISZERO PUSH2 0x1F88 JUMPI RETURNDATASIZE PUSH1 0x0 DUP1 RETURNDATACOPY RETURNDATASIZE PUSH1 0x0 REVERT JUMPDEST POP POP POP POP PUSH1 0x40 MLOAD RETURNDATASIZE PUSH1 0x1F NOT PUSH1 0x1F DUP3 ADD AND DUP3 ADD DUP1 PUSH1 0x40 MSTORE POP DUP2 ADD SWAP1 PUSH2 0x1FAC SWAP2 SWAP1 PUSH2 0x4736 JUMP JUMPDEST SWAP5 SWAP4 POP POP POP POP JUMP JUMPDEST PUSH1 0x40 DUP1 MLOAD PUSH1 0x2 DUP1 DUP3 MSTORE PUSH1 0x60 DUP1 DUP4 ADD DUP5 MSTORE SWAP3 DUP4 SWAP3 SWAP2 SWAP1 PUSH1 0x20 DUP4 ADD SWAP1 DUP1 CALLDATASIZE DUP4 CALLDATACOPY ADD SWAP1 POP POP SWAP1 POP PUSH2 0x1FE2 PUSH1 0x1 PUSH2 0x2A0B JUMP JUMPDEST DUP2 PUSH1 0x0 DUP2 MLOAD DUP2 LT PUSH2 0x1FEF JUMPI INVALID JUMPDEST PUSH1 0x20 MUL PUSH1 0x20 ADD ADD DUP2 DUP2 MSTORE POP POP PUSH2 0x2005 PUSH1 0x0 PUSH2 0x2A0B JUMP JUMPDEST DUP2 PUSH1 0x1 DUP2 MLOAD DUP2 LT PUSH2 0x2012 JUMPI INVALID JUMPDEST PUSH1 0x20 SWAP1 DUP2 MUL SWAP2 SWAP1 SWAP2 ADD ADD MSTORE SWAP1 POP SWAP1 JUMP JUMPDEST PUSH2 0x2049 DUP2 PUSH1 0x0 DUP2 MLOAD DUP2 LT PUSH2 0x2032 JUMPI INVALID JUMPDEST PUSH1 0x20 MUL PUSH1 0x20 ADD ADD MLOAD PUSH2 0x2044 PUSH1 0x1 PUSH2 0x219D JUMP JUMPDEST PUSH2 0x1EB8 JUMP JUMPDEST DUP2 PUSH1 0x0 DUP2 MLOAD DUP2 LT PUSH2 0x2056 JUMPI INVALID JUMPDEST PUSH1 0x20 MUL PUSH1 0x20 ADD ADD DUP2 DUP2 MSTORE POP POP PUSH2 0x1D13 DUP2 PUSH1 0x1 DUP2 MLOAD DUP2 LT PUSH2 0x2072 JUMPI INVALID JUMPDEST PUSH1 0x20 MUL PUSH1 0x20 ADD ADD MLOAD PUSH2 0x2044 PUSH1 0x0 PUSH2 0x219D JUMP JUMPDEST PUSH2 0x16DA DUP3 DUP3 PUSH2 0x2A5F JUMP JUMPDEST PUSH1 0x0 PUSH1 0x60 DUP1 PUSH1 0x60 PUSH2 0x209D PUSH2 0x1FB4 JUMP JUMPDEST SWAP1 POP PUSH1 0x0 PUSH2 0x20B2 DUP10 DUP4 PUSH1 0x0 DUP2 MLOAD DUP2 LT PUSH2 0x1B91 JUMPI INVALID JUMPDEST SWAP1 POP PUSH1 0x60 PUSH2 0x20C0 DUP4 DUP4 PUSH2 0x2766 JUMP JUMPDEST SWAP1 POP PUSH2 0x20D3 DUP10 DUP12 PUSH1 0x0 DUP2 MLOAD DUP2 LT PUSH2 0x1BC7 JUMPI INVALID JUMPDEST PUSH2 0x20DC DUP3 PUSH2 0x283A JUMP JUMPDEST PUSH1 0x0 PUSH1 0x60 PUSH2 0x20EA DUP13 DUP11 PUSH2 0x2B1B JUMP JUMPDEST SWAP2 POP SWAP2 POP PUSH2 0x2102 DUP5 DUP4 PUSH2 0x20FB PUSH2 0x66F JUMP JUMPDEST PUSH1 0x1 PUSH2 0x28B3 JUMP JUMPDEST PUSH1 0xA SSTORE PUSH1 0x40 DUP1 MLOAD PUSH1 0x2 DUP1 DUP3 MSTORE PUSH1 0x60 DUP3 ADD DUP4 MSTORE DUP5 SWAP3 DUP5 SWAP3 SWAP2 SWAP1 PUSH1 0x20 DUP4 ADD SWAP1 DUP1 CALLDATASIZE DUP4 CALLDATACOPY ADD SWAP1 POP POP SWAP8 POP SWAP8 POP SWAP8 POP POP POP POP POP POP SWAP8 POP SWAP8 POP SWAP8 SWAP5 POP POP POP POP POP JUMP JUMPDEST PUSH2 0x2166 DUP2 PUSH1 0x0 DUP2 MLOAD DUP2 LT PUSH2 0x214F JUMPI INVALID JUMPDEST PUSH1 0x20 MUL PUSH1 0x20 ADD ADD MLOAD PUSH2 0x2161 PUSH1 0x1 PUSH2 0x219D JUMP JUMPDEST PUSH2 0x2B55 JUMP JUMPDEST DUP2 PUSH1 0x0 DUP2 MLOAD DUP2 LT PUSH2 0x2173 JUMPI INVALID JUMPDEST PUSH1 0x20 MUL PUSH1 0x20 ADD ADD DUP2 DUP2 MSTORE POP POP PUSH2 0x1D13 DUP2 PUSH1 0x1 DUP2 MLOAD DUP2 LT PUSH2 0x218F JUMPI INVALID JUMPDEST PUSH1 0x20 MUL PUSH1 0x20 ADD ADD MLOAD PUSH2 0x2161 PUSH1 0x0 JUMPDEST PUSH1 0x0 DUP2 PUSH2 0x21CA JUMPI PUSH32 0x0 PUSH2 0x655 JUMP JUMPDEST POP PUSH32 0x0 SWAP2 SWAP1 POP JUMP JUMPDEST PUSH1 0x0 PUSH2 0x14D1 DUP4 DUP4 PUSH2 0x1EB8 JUMP JUMPDEST PUSH1 0x9 SLOAD PUSH2 0x2209 DUP2 PUSH2 0x1B39 JUMP JUMPDEST DUP1 ISZERO PUSH2 0x2214 JUMPI POP DUP6 NUMBER GT JUMPDEST ISZERO PUSH2 0x229F JUMPI PUSH1 0x0 PUSH2 0x2227 DUP7 DUP6 DUP8 DUP7 PUSH2 0x2B88 JUMP JUMPDEST SWAP1 POP PUSH1 0x0 PUSH2 0x2240 DUP8 DUP7 DUP9 DUP8 PUSH2 0x223B DUP9 PUSH2 0x1B12 JUMP JUMPDEST PUSH2 0x2BA2 JUMP JUMPDEST SWAP1 POP PUSH1 0x0 PUSH2 0x224D DUP5 PUSH2 0x1B2C JUMP JUMPDEST SWAP1 POP PUSH1 0x0 PUSH2 0x225A DUP6 PUSH2 0x1B1F JUMP JUMPDEST SWAP1 POP PUSH1 0x0 PUSH2 0x2273 DUP3 DUP5 DUP8 DUP8 PUSH2 0x226E DUP12 PUSH2 0x1B06 JUMP JUMPDEST PUSH2 0x2BE8 JUMP JUMPDEST SWAP1 POP DUP1 DUP4 EQ PUSH2 0x1344 JUMPI PUSH2 0x2286 DUP7 DUP3 PUSH2 0x2C3F JUMP JUMPDEST SWAP6 POP PUSH2 0x2292 DUP7 TIMESTAMP PUSH2 0x2C4D JUMP JUMPDEST PUSH1 0x9 DUP2 SWAP1 SSTORE SWAP6 POP POP POP POP POP POP JUMPDEST POP POP POP POP POP POP JUMP JUMPDEST PUSH1 0x0 DUP3 DUP3 MUL PUSH2 0x22C1 DUP5 ISZERO DUP1 PUSH2 0x1ED5 JUMPI POP DUP4 DUP6 DUP4 DUP2 PUSH2 0x1ED2 JUMPI INVALID JUMPDEST DUP1 PUSH2 0x22D0 JUMPI PUSH1 0x0 SWAP2 POP POP PUSH2 0x655 JUMP JUMPDEST PUSH8 0xDE0B6B3A7640000 PUSH1 0x0 NOT DUP3 ADD JUMPDEST DIV PUSH1 0x1 ADD SWAP2 POP POP PUSH2 0x655 JUMP JUMPDEST PUSH1 0x0 PUSH2 0x22FE DUP7 DUP7 DUP10 PUSH1 0x60 ADD MLOAD DUP8 DUP8 PUSH2 0x2C5B JUMP JUMPDEST SWAP8 SWAP7 POP POP POP POP POP POP POP JUMP JUMPDEST PUSH1 0x0 PUSH2 0x14D1 DUP4 DUP4 PUSH2 0x299D JUMP JUMPDEST PUSH1 0x0 PUSH2 0x22FE DUP7 DUP7 DUP10 PUSH1 0x60 ADD MLOAD DUP8 DUP8 PUSH2 0x2CFF JUMP JUMPDEST PUSH1 0x0 PUSH2 0x14D1 DUP4 DUP4 PUSH2 0x2B55 JUMP JUMPDEST PUSH1 0x0 PUSH8 0xDE0B6B3A7640000 DUP3 LT PUSH2 0x234C JUMPI PUSH1 0x0 PUSH2 0x655 JUMP JUMPDEST POP PUSH8 0xDE0B6B3A7640000 SUB SWAP1 JUMP JUMPDEST PUSH1 0x0 PUSH2 0x2369 DUP3 ISZERO ISZERO PUSH1 0x4 PUSH2 0x16CC JUMP JUMPDEST DUP3 PUSH2 0x2376 JUMPI POP PUSH1 0x0 PUSH2 0x655 JUMP JUMPDEST PUSH8 0xDE0B6B3A7640000 DUP4 DUP2 MUL SWAP1 PUSH2 0x2399 SWAP1 DUP6 DUP4 DUP2 PUSH2 0x2390 JUMPI INVALID JUMPDEST DIV EQ PUSH1 0x5 PUSH2 0x16CC JUMP JUMPDEST DUP3 PUSH1 0x1 DUP3 SUB DUP2 PUSH2 0x22DF JUMPI INVALID JUMPDEST PUSH1 0x0 PUSH2 0x23AF PUSH2 0xCE0 JUMP JUMPDEST PUSH1 0x1 PUSH1 0x1 PUSH1 0xA0 SHL SUB AND PUSH4 0xAAABADC5 PUSH1 0x40 MLOAD DUP2 PUSH4 0xFFFFFFFF AND PUSH1 0xE0 SHL DUP2 MSTORE PUSH1 0x4 ADD PUSH1 0x20 PUSH1 0x40 MLOAD DUP1 DUP4 SUB DUP2 DUP7 DUP1 EXTCODESIZE ISZERO DUP1 ISZERO PUSH2 0x23E7 JUMPI PUSH1 0x0 DUP1 REVERT JUMPDEST POP GAS STATICCALL ISZERO DUP1 ISZERO PUSH2 0x23FB JUMPI RETURNDATASIZE PUSH1 0x0 DUP1 RETURNDATACOPY RETURNDATASIZE PUSH1 0x0 REVERT JUMPDEST POP POP POP POP PUSH1 0x40 MLOAD RETURNDATASIZE PUSH1 0x1F NOT PUSH1 0x1F DUP3 ADD AND DUP3 ADD DUP1 PUSH1 0x40 MSTORE POP DUP2 ADD SWAP1 PUSH2 0x8F4 SWAP2 SWAP1 PUSH2 0x41B1 JUMP JUMPDEST PUSH1 0x0 DUP1 PUSH1 0x0 DUP1 PUSH1 0x0 PUSH2 0x2432 DUP9 DUP9 DUP9 PUSH2 0x2D9E JUMP JUMPDEST SWAP4 POP SWAP4 POP SWAP4 POP SWAP4 POP PUSH2 0x2446 DUP5 DUP5 DUP5 DUP5 PUSH2 0x2F18 JUMP JUMPDEST SWAP9 SWAP8 POP POP POP POP POP POP POP POP JUMP JUMPDEST PUSH1 0x0 PUSH2 0x245C PUSH2 0x18C5 JUMP JUMPDEST DUP3 PUSH1 0x40 MLOAD PUSH1 0x20 ADD PUSH2 0xC7A SWAP3 SWAP2 SWAP1 PUSH2 0x491C JUMP JUMPDEST PUSH1 0x0 PUSH1 0x60 PUSH1 0x0 PUSH2 0x247D DUP5 PUSH2 0x2F8C JUMP JUMPDEST SWAP1 POP PUSH2 0x2498 PUSH1 0x0 DUP3 PUSH1 0x3 DUP2 GT ISZERO PUSH2 0x2490 JUMPI INVALID JUMPDEST EQ PUSH1 0xCE PUSH2 0x16CC JUMP JUMPDEST PUSH1 0x60 PUSH2 0x24A3 DUP6 PUSH2 0x2FA2 JUMP JUMPDEST SWAP1 POP PUSH2 0x24B1 DUP2 MLOAD PUSH1 0x2 PUSH2 0x1B53 JUMP JUMPDEST PUSH2 0x24BA DUP2 PUSH2 0x2022 JUMP JUMPDEST PUSH1 0x60 PUSH2 0x24C4 PUSH2 0x1FB4 JUMP JUMPDEST SWAP1 POP PUSH1 0x0 PUSH2 0x24D9 DUP4 DUP4 PUSH1 0x0 DUP2 MLOAD DUP2 LT PUSH2 0x1B91 JUMPI INVALID JUMPDEST SWAP1 POP PUSH1 0x0 PUSH2 0x24E8 DUP3 PUSH1 0x2 PUSH2 0x1EB8 JUMP JUMPDEST PUSH1 0xA SWAP3 SWAP1 SWAP3 SSTORE POP SWAP10 SWAP2 SWAP9 POP SWAP1 SWAP7 POP POP POP POP POP POP POP JUMP JUMPDEST PUSH2 0x16DA DUP3 DUP3 PUSH2 0x2FB8 JUMP JUMPDEST POP POP POP JUMP JUMPDEST PUSH1 0x1 PUSH1 0x1 PUSH1 0xA0 SHL SUB SWAP2 DUP3 AND PUSH1 0x0 SWAP1 DUP2 MSTORE PUSH1 0x1 PUSH1 0x20 SWAP1 DUP2 MSTORE PUSH1 0x40 DUP1 DUP4 KECCAK256 SWAP4 SWAP1 SWAP5 AND DUP3 MSTORE SWAP2 SWAP1 SWAP2 MSTORE KECCAK256 SLOAD SWAP1 JUMP JUMPDEST PUSH1 0x40 DUP1 MLOAD PUSH1 0x2 DUP1 DUP3 MSTORE PUSH1 0x60 DUP1 DUP4 ADD DUP5 MSTORE SWAP3 DUP4 SWAP3 SWAP2 SWAP1 PUSH1 0x20 DUP4 ADD SWAP1 DUP1 CALLDATASIZE DUP4 CALLDATACOPY ADD SWAP1 POP POP SWAP1 POP PUSH2 0x2566 PUSH1 0x1 PUSH2 0x3046 JUMP JUMPDEST DUP2 PUSH1 0x0 DUP2 MLOAD DUP2 LT PUSH2 0x2573 JUMPI INVALID JUMPDEST PUSH1 0x20 MUL PUSH1 0x20 ADD ADD DUP2 DUP2 MSTORE POP POP PUSH2 0x2005 PUSH1 0x0 PUSH2 0x3046 JUMP JUMPDEST PUSH1 0x0 PUSH20 0xBA1BA1BA1BA1BA1BA1BA1BA1BA1BA1BA1BA1BA1B PUSH2 0x25A8 PUSH2 0xCBC JUMP JUMPDEST PUSH1 0x1 PUSH1 0x1 PUSH1 0xA0 SHL SUB AND EQ ISZERO DUP1 ISZERO PUSH2 0x25C3 JUMPI POP PUSH2 0x25C3 DUP4 PUSH2 0x309A JUMP JUMPDEST ISZERO PUSH2 0x25EB JUMPI PUSH2 0x25D0 PUSH2 0xCBC JUMP JUMPDEST PUSH1 0x1 PUSH1 0x1 PUSH1 0xA0 SHL SUB AND CALLER PUSH1 0x1 PUSH1 0x1 PUSH1 0xA0 SHL SUB AND EQ SWAP1 POP PUSH2 0x655 JUMP JUMPDEST PUSH2 0x25F3 PUSH2 0x23A5 JUMP JUMPDEST PUSH1 0x1 PUSH1 0x1 PUSH1 0xA0 SHL SUB AND PUSH4 0x9BE2A884 DUP5 DUP5 ADDRESS PUSH1 0x40 MLOAD DUP5 PUSH4 0xFFFFFFFF AND PUSH1 0xE0 SHL DUP2 MSTORE PUSH1 0x4 ADD PUSH2 0x2622 SWAP4 SWAP3 SWAP2 SWAP1 PUSH2 0x49F3 JUMP JUMPDEST PUSH1 0x20 PUSH1 0x40 MLOAD DUP1 DUP4 SUB DUP2 DUP7 DUP1 EXTCODESIZE ISZERO DUP1 ISZERO PUSH2 0x263A JUMPI PUSH1 0x0 DUP1 REVERT JUMPDEST POP GAS STATICCALL ISZERO DUP1 ISZERO PUSH2 0x264E JUMPI RETURNDATASIZE PUSH1 0x0 DUP1 RETURNDATACOPY RETURNDATASIZE PUSH1 0x0 REVERT JUMPDEST POP POP POP POP PUSH1 0x40 MLOAD RETURNDATASIZE PUSH1 0x1F NOT PUSH1 0x1F DUP3 ADD AND DUP3 ADD DUP1 PUSH1 0x40 MSTORE POP DUP2 ADD SWAP1 PUSH2 0x14A7 SWAP2 SWAP1 PUSH2 0x4544 JUMP JUMPDEST PUSH3 0x461BCD PUSH1 0xE5 SHL PUSH1 0x0 SWAP1 DUP2 MSTORE PUSH1 0x20 PUSH1 0x4 MSTORE PUSH1 0x7 PUSH1 0x24 MSTORE PUSH7 0x42414C23000030 PUSH1 0xA DUP1 DUP5 DIV DUP2 DUP2 MOD PUSH1 0x30 SWAP1 DUP2 ADD PUSH1 0x8 SHL SWAP6 DUP4 SWAP1 MOD SWAP6 SWAP1 SWAP6 ADD SWAP1 DUP3 SWAP1 DIV SWAP2 DUP3 MOD SWAP1 SWAP5 ADD PUSH1 0x10 SHL SWAP4 SWAP1 SWAP4 ADD ADD PUSH1 0xC8 SHL PUSH1 0x44 MSTORE PUSH1 0x64 SWAP1 REVERT JUMPDEST PUSH1 0x0 PUSH2 0x26D4 DUP5 DUP5 GT ISZERO DUP4 PUSH2 0x16CC JUMP JUMPDEST POP POP SWAP1 SUB SWAP1 JUMP JUMPDEST PUSH1 0x0 DUP1 PUSH2 0x26E7 DUP4 PUSH2 0x30CC JUMP JUMPDEST SWAP1 POP PUSH1 0x0 DUP1 DUP3 SGT PUSH2 0x2700 JUMPI PUSH6 0x2D79883D2000 DUP3 SUB PUSH2 0x270A JUMP JUMPDEST PUSH6 0x2D79883D2000 DUP3 ADD JUMPDEST PUSH6 0x5AF3107A4000 SWAP1 SDIV SWAP5 SWAP4 POP POP POP POP JUMP JUMPDEST PUSH1 0x0 PUSH2 0x14D1 DUP4 DUP4 DUP4 PUSH2 0x3130 JUMP JUMPDEST PUSH1 0x0 PUSH2 0x14D1 DUP4 DUP4 PUSH1 0x16 PUSH2 0x3130 JUMP JUMPDEST SHL SWAP1 JUMP JUMPDEST PUSH7 0x1FFFFFFFFFFFFF SWAP2 SWAP1 SWAP2 AND SWAP1 SHL SWAP1 JUMP JUMPDEST PUSH3 0x3FFFFF SWAP2 SWAP1 SWAP2 AND SWAP1 SHL SWAP1 JUMP JUMPDEST SHR PUSH4 0x7FFFFFFF AND SWAP1 JUMP JUMPDEST CHAINID SWAP1 JUMP JUMPDEST PUSH1 0x40 DUP1 MLOAD PUSH1 0x2 DUP1 DUP3 MSTORE PUSH1 0x60 DUP1 DUP4 ADD DUP5 MSTORE SWAP3 DUP4 SWAP3 SWAP2 SWAP1 PUSH1 0x20 DUP4 ADD SWAP1 DUP1 CALLDATASIZE DUP4 CALLDATACOPY ADD SWAP1 POP POP SWAP1 POP PUSH2 0x27AA PUSH1 0x1 DUP6 PUSH1 0x1 DUP2 MLOAD DUP2 LT PUSH2 0x279C JUMPI INVALID JUMPDEST PUSH1 0x20 MUL PUSH1 0x20 ADD ADD MLOAD DUP6 PUSH2 0x3147 JUMP JUMPDEST DUP2 PUSH1 0x0 DUP2 MLOAD DUP2 LT PUSH2 0x27B7 JUMPI INVALID JUMPDEST PUSH1 0x20 MUL PUSH1 0x20 ADD ADD DUP2 DUP2 MSTORE POP POP PUSH2 0x27D5 PUSH1 0x0 DUP6 PUSH1 0x0 DUP2 MLOAD DUP2 LT PUSH2 0x279C JUMPI INVALID JUMPDEST DUP2 PUSH1 0x1 DUP2 MLOAD DUP2 LT PUSH2 0x27E2 JUMPI INVALID JUMPDEST PUSH1 0x20 SWAP1 DUP2 MUL SWAP2 SWAP1 SWAP2 ADD ADD MSTORE SWAP4 SWAP3 POP POP POP JUMP JUMPDEST PUSH1 0x0 DUP3 DUP3 SHR PUSH3 0x3FFFFF AND PUSH3 0x1FFFFF DUP2 SGT PUSH2 0x280E JUMPI DUP1 PUSH2 0x1FAC JUMP JUMPDEST PUSH3 0x3FFFFF NOT OR SWAP4 SWAP3 POP POP POP JUMP JUMPDEST SHR PUSH2 0x3FF AND SWAP1 JUMP JUMPDEST SHR PUSH1 0x1 SWAP1 DUP2 AND EQ SWAP1 JUMP JUMPDEST SHR PUSH1 0x1 PUSH1 0x1 PUSH1 0x40 SHL SUB AND SWAP1 JUMP JUMPDEST PUSH1 0x0 DUP1 PUSH1 0x0 DUP1 PUSH2 0x284C PUSH1 0xA SLOAD DUP7 PUSH2 0x3167 JUMP JUMPDEST SWAP4 POP SWAP4 POP SWAP4 POP SWAP4 POP PUSH2 0x2860 DUP5 DUP5 DUP5 DUP5 PUSH2 0x31D0 JUMP JUMPDEST POP POP POP POP POP JUMP JUMPDEST PUSH1 0x0 PUSH1 0x60 PUSH1 0x0 PUSH2 0x2876 DUP5 PUSH2 0x2F8C JUMP JUMPDEST SWAP1 POP PUSH1 0x1 DUP2 PUSH1 0x3 DUP2 GT ISZERO PUSH2 0x2886 JUMPI INVALID JUMPDEST EQ ISZERO PUSH2 0x28A0 JUMPI PUSH2 0x2896 DUP6 DUP6 PUSH2 0x31F0 JUMP JUMPDEST SWAP1 SWAP4 POP SWAP2 POP PUSH2 0x28AB JUMP JUMPDEST PUSH2 0x28AB PUSH2 0x150 PUSH2 0x2672 JUMP JUMPDEST POP SWAP3 POP SWAP3 SWAP1 POP JUMP JUMPDEST PUSH1 0x0 DUP2 ISZERO PUSH2 0x28E5 JUMPI PUSH1 0x0 PUSH2 0x28D1 DUP5 PUSH2 0x28CB DUP9 DUP9 PUSH2 0x22A7 JUMP JUMPDEST SWAP1 PUSH2 0x235A JUMP JUMPDEST SWAP1 POP PUSH2 0x28DD DUP7 DUP3 PUSH2 0x14BF JUMP JUMPDEST SWAP2 POP POP PUSH2 0x1FAC JUMP JUMPDEST PUSH1 0x0 PUSH2 0x28F5 DUP5 PUSH2 0xAA0 DUP9 DUP9 PUSH2 0x3222 JUMP JUMPDEST SWAP1 POP PUSH2 0x2901 DUP7 DUP3 PUSH2 0x14F4 JUMP JUMPDEST SWAP7 SWAP6 POP POP POP POP POP POP JUMP JUMPDEST PUSH2 0x2941 DUP4 PUSH1 0x0 DUP2 MLOAD DUP2 LT PUSH2 0x291B JUMPI INVALID JUMPDEST PUSH1 0x20 MUL PUSH1 0x20 ADD ADD MLOAD DUP4 PUSH1 0x0 DUP2 MLOAD DUP2 LT PUSH2 0x2930 JUMPI INVALID JUMPDEST PUSH1 0x20 MUL PUSH1 0x20 ADD ADD MLOAD DUP4 PUSH4 0xFFFFFFFF AND JUMP JUMPDEST DUP4 PUSH1 0x0 DUP2 MLOAD DUP2 LT PUSH2 0x294E JUMPI INVALID JUMPDEST PUSH1 0x20 MUL PUSH1 0x20 ADD ADD DUP2 DUP2 MSTORE POP POP PUSH2 0x297F DUP4 PUSH1 0x1 DUP2 MLOAD DUP2 LT PUSH2 0x296A JUMPI INVALID JUMPDEST PUSH1 0x20 MUL PUSH1 0x20 ADD ADD MLOAD DUP4 PUSH1 0x1 DUP2 MLOAD DUP2 LT PUSH2 0x2930 JUMPI INVALID JUMPDEST DUP4 PUSH1 0x1 DUP2 MLOAD DUP2 LT PUSH2 0x298C JUMPI INVALID JUMPDEST PUSH1 0x20 MUL PUSH1 0x20 ADD ADD DUP2 DUP2 MSTORE POP POP POP POP POP JUMP JUMPDEST PUSH1 0x0 PUSH2 0x29AC DUP3 ISZERO ISZERO PUSH1 0x4 PUSH2 0x16CC JUMP JUMPDEST DUP2 DUP4 DUP2 PUSH2 0x29B5 JUMPI INVALID JUMPDEST DIV SWAP4 SWAP3 POP POP POP JUMP JUMPDEST PUSH1 0x0 PUSH2 0x655 DUP3 PUSH1 0xEA PUSH2 0x27F4 JUMP JUMPDEST PUSH1 0x0 PUSH2 0x655 DUP3 PUSH1 0xB5 PUSH2 0x324B JUMP JUMPDEST PUSH1 0x0 PUSH2 0x655 DUP3 PUSH1 0x9F PUSH2 0x27F4 JUMP JUMPDEST PUSH1 0x0 PUSH2 0x655 DUP3 PUSH1 0x6A PUSH2 0x324B JUMP JUMPDEST PUSH1 0x0 PUSH2 0x655 DUP3 PUSH1 0x54 PUSH2 0x27F4 JUMP JUMPDEST PUSH1 0x0 PUSH2 0x655 DUP3 PUSH1 0x1F PUSH2 0x324B JUMP JUMPDEST PUSH1 0x0 DUP2 PUSH2 0x2A38 JUMPI PUSH32 0x0 PUSH2 0x655 JUMP JUMPDEST POP PUSH32 0x0 SWAP2 SWAP1 POP JUMP JUMPDEST PUSH2 0x2A76 PUSH1 0x1 PUSH1 0x1 PUSH1 0xA0 SHL SUB DUP4 AND ISZERO ISZERO PUSH2 0x19B PUSH2 0x16CC JUMP JUMPDEST PUSH2 0x2A82 DUP3 PUSH1 0x0 DUP4 PUSH2 0x2508 JUMP JUMPDEST PUSH1 0x1 PUSH1 0x1 PUSH1 0xA0 SHL SUB DUP3 AND PUSH1 0x0 SWAP1 DUP2 MSTORE PUSH1 0x20 DUP2 SWAP1 MSTORE PUSH1 0x40 SWAP1 KECCAK256 SLOAD PUSH2 0x2AA8 SWAP1 DUP3 PUSH2 0x1A1 PUSH2 0x26C5 JUMP JUMPDEST PUSH1 0x1 PUSH1 0x1 PUSH1 0xA0 SHL SUB DUP4 AND PUSH1 0x0 SWAP1 DUP2 MSTORE PUSH1 0x20 DUP2 SWAP1 MSTORE PUSH1 0x40 SWAP1 KECCAK256 SSTORE PUSH1 0x2 SLOAD PUSH2 0x2ACE SWAP1 DUP3 PUSH2 0x327E JUMP JUMPDEST PUSH1 0x2 SSTORE PUSH1 0x40 MLOAD PUSH1 0x0 SWAP1 PUSH1 0x1 PUSH1 0x1 PUSH1 0xA0 SHL SUB DUP5 AND SWAP1 PUSH32 0xDDF252AD1BE2C89B69C2B068FC378DAA952BA7F163C4A11628F55A4DF523B3EF SWAP1 PUSH2 0x2B0F SWAP1 DUP6 SWAP1 PUSH2 0x49EA JUMP JUMPDEST PUSH1 0x40 MLOAD DUP1 SWAP2 SUB SWAP1 LOG3 POP POP JUMP JUMPDEST PUSH1 0x0 PUSH1 0x60 PUSH1 0x0 PUSH2 0x2B2A DUP5 PUSH2 0x2F8C JUMP JUMPDEST SWAP1 POP PUSH1 0x3 DUP2 PUSH1 0x3 DUP2 GT ISZERO PUSH2 0x2B3A JUMPI INVALID JUMPDEST EQ ISZERO PUSH2 0x2B4A JUMPI PUSH2 0x2896 DUP6 DUP6 PUSH2 0x328C JUMP JUMPDEST PUSH2 0x28AB PUSH2 0x136 PUSH2 0x2672 JUMP JUMPDEST PUSH1 0x0 PUSH2 0x2B64 DUP3 ISZERO ISZERO PUSH1 0x4 PUSH2 0x16CC JUMP JUMPDEST DUP3 PUSH2 0x2B71 JUMPI POP PUSH1 0x0 PUSH2 0x655 JUMP JUMPDEST DUP2 PUSH1 0x1 DUP5 SUB DUP2 PUSH2 0x2B7D JUMPI INVALID JUMPDEST DIV PUSH1 0x1 ADD SWAP1 POP PUSH2 0x655 JUMP JUMPDEST PUSH1 0x0 DUP1 PUSH2 0x2B97 DUP7 DUP7 DUP7 DUP7 PUSH2 0x32B1 JUMP JUMPDEST SWAP1 POP PUSH2 0x2901 DUP2 PUSH2 0x26DB JUMP JUMPDEST PUSH1 0x0 DUP1 PUSH2 0x2BB1 DUP8 DUP8 DUP8 DUP8 PUSH2 0x32B1 JUMP JUMPDEST SWAP1 POP PUSH1 0x0 PUSH2 0x2BC9 PUSH2 0x2BC2 DUP8 DUP5 PUSH2 0x22A7 JUMP JUMPDEST DUP10 SWAP1 PUSH2 0x14BF JUMP JUMPDEST SWAP1 POP PUSH1 0x0 PUSH2 0x2BD6 DUP3 PUSH2 0x26DB JUMP JUMPDEST DUP6 SWAP1 SUB SWAP4 POP POP POP POP JUMPDEST SWAP6 SWAP5 POP POP POP POP POP JUMP JUMPDEST PUSH1 0x0 DUP1 PUSH2 0x2C04 DUP6 DUP6 DUP6 TIMESTAMP PUSH2 0x2BFB DUP12 PUSH2 0x1E43 JUMP JUMPDEST SWAP4 SWAP3 SWAP2 SWAP1 PUSH2 0x32D9 JUMP JUMPDEST SWAP1 POP PUSH1 0x78 TIMESTAMP DUP9 SWAP1 SUB LT ISZERO DUP1 PUSH2 0x2C19 JUMPI DUP7 PUSH2 0x2C22 JUMP JUMPDEST PUSH2 0x2C22 DUP8 PUSH2 0x332B JUMP JUMPDEST PUSH1 0x0 DUP2 DUP2 MSTORE PUSH1 0x8 PUSH1 0x20 MSTORE PUSH1 0x40 SWAP1 KECCAK256 SWAP3 SWAP1 SWAP3 SSTORE POP SWAP7 SWAP6 POP POP POP POP POP POP JUMP JUMPDEST PUSH1 0x0 PUSH2 0x14D1 DUP4 DUP4 PUSH1 0x4B PUSH2 0x3338 JUMP JUMPDEST PUSH1 0x0 PUSH2 0x14D1 DUP4 DUP4 PUSH1 0x2C PUSH2 0x3348 JUMP JUMPDEST PUSH1 0x0 PUSH2 0x2C7D PUSH2 0x2C72 DUP8 PUSH8 0x429D069189E0000 PUSH2 0x3222 JUMP JUMPDEST DUP6 GT ISZERO PUSH2 0x130 PUSH2 0x16CC JUMP JUMPDEST PUSH1 0x0 PUSH2 0x2C9B PUSH2 0x2C94 DUP6 PUSH8 0xDE0B6B3A7640002 PUSH2 0x22A7 JUMP JUMPDEST DUP9 SWAP1 PUSH2 0x14BF JUMP JUMPDEST SWAP1 POP PUSH1 0x0 PUSH2 0x2CB4 PUSH2 0x2C94 DUP6 PUSH8 0xDE0B6B3A763FFFF PUSH2 0x3222 JUMP JUMPDEST SWAP1 POP PUSH2 0x2CCD PUSH2 0x2CC3 DUP4 DUP9 PUSH2 0x14BF JUMP JUMPDEST PUSH2 0xAA0 DUP4 DUP10 PUSH2 0x3222 JUMP JUMPDEST SWAP3 POP POP POP PUSH2 0x2CDF DUP6 DUP3 LT PUSH2 0x165 PUSH2 0x16CC JUMP JUMPDEST PUSH2 0x2BDF PUSH2 0x2CF4 DUP7 PUSH8 0x429D069189E0000 PUSH2 0x3222 JUMP JUMPDEST DUP3 GT ISZERO PUSH2 0x131 PUSH2 0x16CC JUMP JUMPDEST PUSH1 0x0 PUSH2 0x2D0F DUP6 DUP6 LT PUSH2 0x165 PUSH2 0x16CC JUMP JUMPDEST PUSH2 0x2D2F PUSH2 0x2D24 DUP7 PUSH8 0x429D069189E0000 PUSH2 0x3222 JUMP JUMPDEST DUP6 GT ISZERO PUSH2 0x131 PUSH2 0x16CC JUMP JUMPDEST PUSH1 0x0 PUSH2 0x2D46 PUSH2 0x2C94 DUP6 PUSH8 0xDE0B6B3A7640002 PUSH2 0x22A7 JUMP JUMPDEST SWAP1 POP PUSH1 0x0 PUSH2 0x2D5F PUSH2 0x2C94 DUP6 PUSH8 0xDE0B6B3A763FFFF PUSH2 0x3222 JUMP JUMPDEST SWAP1 POP PUSH2 0x2D78 PUSH2 0x2D6E DUP3 DUP9 PUSH2 0x14F4 JUMP JUMPDEST PUSH2 0x28CB DUP5 DUP10 PUSH2 0x22A7 JUMP JUMPDEST SWAP3 POP PUSH2 0x2BDF SWAP2 POP PUSH2 0x2D93 SWAP1 POP DUP8 PUSH8 0x429D069189E0000 PUSH2 0x3222 JUMP JUMPDEST DUP3 GT ISZERO PUSH2 0x130 PUSH2 0x16CC JUMP JUMPDEST PUSH1 0x0 DUP1 DUP1 DUP1 PUSH2 0x2DBF PUSH2 0x2DB0 DUP8 DUP8 PUSH2 0x1EDC JUMP JUMPDEST PUSH8 0xDE0B6B3A7640000 SWAP1 PUSH2 0x14F4 JUMP JUMPDEST SWAP4 POP PUSH1 0x0 PUSH2 0x2DEA DUP7 DUP10 PUSH1 0x1 DUP2 MLOAD DUP2 LT PUSH2 0x2DD4 JUMPI INVALID JUMPDEST PUSH1 0x20 MUL PUSH1 0x20 ADD ADD MLOAD PUSH2 0x1EDC SWAP1 SWAP2 SWAP1 PUSH4 0xFFFFFFFF AND JUMP JUMPDEST SWAP1 POP PUSH1 0x0 PUSH2 0x2E15 DUP9 DUP11 PUSH1 0x0 DUP2 MLOAD DUP2 LT PUSH2 0x2DFF JUMPI INVALID JUMPDEST PUSH1 0x20 MUL PUSH1 0x20 ADD ADD MLOAD PUSH2 0x3222 SWAP1 SWAP2 SWAP1 PUSH4 0xFFFFFFFF AND JUMP JUMPDEST SWAP1 POP PUSH2 0x2E21 DUP3 DUP3 PUSH2 0x14BF JUMP JUMPDEST SWAP5 POP PUSH2 0x2E48 DUP10 PUSH1 0x1 DUP2 MLOAD DUP2 LT PUSH2 0x2E33 JUMPI INVALID JUMPDEST PUSH1 0x20 MUL PUSH1 0x20 ADD ADD MLOAD DUP11 PUSH1 0x0 DUP2 MLOAD DUP2 LT PUSH2 0x2DFF JUMPI INVALID JUMPDEST SWAP3 POP POP POP PUSH2 0x2E7F DUP7 PUSH2 0x2E79 DUP9 PUSH2 0x2E79 DUP12 PUSH1 0x0 DUP2 MLOAD DUP2 LT PUSH2 0x2E64 JUMPI INVALID JUMPDEST PUSH1 0x20 MUL PUSH1 0x20 ADD ADD MLOAD DUP13 PUSH1 0x0 DUP2 MLOAD DUP2 LT PUSH2 0x2DFF JUMPI INVALID JUMPDEST SWAP1 PUSH2 0x3222 JUMP JUMPDEST SWAP2 POP PUSH1 0x0 PUSH2 0x2EBF DUP7 PUSH2 0xAA0 DUP10 PUSH2 0x2E79 PUSH8 0xDE0B6B3A7640000 PUSH1 0x2 MUL PUSH2 0x2E79 DUP15 PUSH1 0x1 DUP2 MLOAD DUP2 LT PUSH2 0x2EAA JUMPI INVALID JUMPDEST PUSH1 0x20 MUL PUSH1 0x20 ADD ADD MLOAD DUP16 PUSH1 0x0 DUP2 MLOAD DUP2 LT PUSH2 0x2DFF JUMPI INVALID JUMPDEST SWAP1 POP PUSH1 0x0 PUSH2 0x2EF5 PUSH2 0x2ED0 DUP9 DUP1 PUSH2 0x22A7 JUMP JUMPDEST PUSH2 0xAA0 DUP12 PUSH1 0x1 DUP2 MLOAD DUP2 LT PUSH2 0x2EE0 JUMPI INVALID JUMPDEST PUSH1 0x20 MUL PUSH1 0x20 ADD ADD MLOAD DUP13 PUSH1 0x1 DUP2 MLOAD DUP2 LT PUSH2 0x2DFF JUMPI INVALID JUMPDEST SWAP1 POP PUSH2 0x2F0B DUP2 PUSH2 0x2F05 DUP7 DUP6 PUSH2 0x14BF JUMP JUMPDEST SWAP1 PUSH2 0x14BF JUMP JUMPDEST SWAP4 POP POP POP SWAP4 POP SWAP4 POP SWAP4 POP SWAP4 JUMP JUMPDEST PUSH1 0x0 DUP1 PUSH2 0x2F2D DUP7 PUSH8 0x1BC16D674EC80000 PUSH2 0x22A7 JUMP JUMPDEST SWAP1 POP PUSH1 0x0 PUSH2 0x2F47 DUP8 PUSH2 0x2E79 DUP7 PUSH8 0x3782DACE9D900000 PUSH2 0x3222 JUMP JUMPDEST SWAP1 POP PUSH1 0x0 PUSH2 0x2F55 DUP7 DUP4 PUSH2 0x14BF JUMP JUMPDEST SWAP1 POP PUSH1 0x0 PUSH2 0x2F64 DUP3 PUSH1 0x5 PUSH2 0x335A JUMP JUMPDEST SWAP1 POP PUSH1 0x0 PUSH2 0x2F72 DUP10 DUP4 PUSH2 0x14BF JUMP JUMPDEST SWAP1 POP PUSH2 0x2F7E DUP2 DUP7 PUSH2 0x1EDC JUMP JUMPDEST SWAP11 SWAP10 POP POP POP POP POP POP POP POP POP POP JUMP JUMPDEST PUSH1 0x0 DUP2 DUP1 PUSH1 0x20 ADD SWAP1 MLOAD DUP2 ADD SWAP1 PUSH2 0x655 SWAP2 SWAP1 PUSH2 0x4684 JUMP JUMPDEST PUSH1 0x60 DUP2 DUP1 PUSH1 0x20 ADD SWAP1 MLOAD DUP2 ADD SWAP1 PUSH2 0x14D1 SWAP2 SWAP1 PUSH2 0x46CD JUMP JUMPDEST PUSH2 0x2FC4 PUSH1 0x0 DUP4 DUP4 PUSH2 0x2508 JUMP JUMPDEST PUSH1 0x2 SLOAD PUSH2 0x2FD1 SWAP1 DUP3 PUSH2 0x14BF JUMP JUMPDEST PUSH1 0x2 SSTORE PUSH1 0x1 PUSH1 0x1 PUSH1 0xA0 SHL SUB DUP3 AND PUSH1 0x0 SWAP1 DUP2 MSTORE PUSH1 0x20 DUP2 SWAP1 MSTORE PUSH1 0x40 SWAP1 KECCAK256 SLOAD PUSH2 0x2FF7 SWAP1 DUP3 PUSH2 0x14BF JUMP JUMPDEST PUSH1 0x1 PUSH1 0x1 PUSH1 0xA0 SHL SUB DUP4 AND PUSH1 0x0 DUP2 DUP2 MSTORE PUSH1 0x20 DUP2 SWAP1 MSTORE PUSH1 0x40 DUP1 DUP3 KECCAK256 SWAP4 SWAP1 SWAP4 SSTORE SWAP2 MLOAD SWAP1 SWAP2 SWAP1 PUSH32 0xDDF252AD1BE2C89B69C2B068FC378DAA952BA7F163C4A11628F55A4DF523B3EF SWAP1 PUSH2 0x2B0F SWAP1 DUP6 SWAP1 PUSH2 0x49EA JUMP JUMPDEST PUSH1 0x0 DUP2 PUSH2 0x3073 JUMPI PUSH32 0x0 PUSH2 0x655 JUMP JUMPDEST POP PUSH32 0x0 SWAP2 SWAP1 POP JUMP JUMPDEST PUSH1 0x0 PUSH2 0x30AC PUSH4 0x1C74C917 PUSH1 0xE1 SHL PUSH2 0xC45 JUMP JUMPDEST DUP3 EQ DUP1 PUSH2 0x655 JUMPI POP PUSH2 0x30C4 PUSH4 0x50DD6ED9 PUSH1 0xE0 SHL PUSH2 0xC45 JUMP JUMPDEST SWAP1 SWAP2 EQ SWAP2 SWAP1 POP JUMP JUMPDEST PUSH1 0x0 PUSH2 0x30DC PUSH1 0x0 DUP4 SGT PUSH1 0x64 PUSH2 0x16CC JUMP JUMPDEST PUSH8 0xC7D713B49DA0000 DUP3 SGT DUP1 ISZERO PUSH2 0x30FA JUMPI POP PUSH8 0xF43FC2C04EE0000 DUP3 SLT JUMPDEST ISZERO PUSH2 0x3120 JUMPI PUSH8 0xDE0B6B3A7640000 PUSH2 0x3111 DUP4 PUSH2 0x34CD JUMP JUMPDEST DUP2 PUSH2 0x3118 JUMPI INVALID JUMPDEST SDIV SWAP1 POP PUSH2 0xB80 JUMP JUMPDEST PUSH2 0x3129 DUP3 PUSH2 0x35EB JUMP JUMPDEST SWAP1 POP PUSH2 0xB80 JUMP JUMPDEST PUSH3 0x3FFFFF DUP3 DUP2 AND DUP3 SHL SWAP1 DUP3 SHL NOT DUP5 AND OR SWAP4 SWAP3 POP POP POP JUMP JUMPDEST PUSH1 0x0 DUP4 PUSH2 0x315D JUMPI PUSH2 0x3158 DUP3 DUP5 PUSH2 0x398A JUMP JUMPDEST PUSH2 0x1FAC JUMP JUMPDEST PUSH2 0x1FAC DUP3 DUP5 PUSH2 0x3996 JUMP JUMPDEST PUSH1 0x0 DUP1 PUSH1 0x0 DUP1 PUSH1 0x0 DUP1 PUSH1 0x0 DUP1 PUSH2 0x317B PUSH2 0x39A2 JUMP JUMPDEST SWAP4 POP SWAP4 POP SWAP4 POP SWAP4 POP DUP4 PUSH1 0x0 EQ ISZERO PUSH2 0x31A0 JUMPI PUSH1 0x0 SWAP8 POP DUP8 SWAP7 POP SWAP1 SWAP5 POP SWAP3 POP PUSH2 0x31C7 SWAP2 POP POP JUMP JUMPDEST PUSH1 0x0 DUP1 PUSH2 0x31B7 DUP13 DUP13 PUSH2 0x31B0 PUSH2 0x66F JUMP JUMPDEST DUP10 DUP10 PUSH2 0x3C11 JUMP JUMPDEST SWAP1 SWAP11 POP SWAP9 POP SWAP3 SWAP7 POP SWAP1 SWAP5 POP POP POP POP POP JUMPDEST SWAP3 SWAP6 SWAP2 SWAP5 POP SWAP3 POP JUMP JUMPDEST DUP4 ISZERO PUSH2 0x31E0 JUMPI PUSH2 0x31E0 DUP3 DUP6 PUSH2 0x24FE JUMP JUMPDEST DUP3 ISZERO PUSH2 0x8E4 JUMPI PUSH2 0x8E4 DUP2 DUP5 PUSH2 0x24FE JUMP JUMPDEST PUSH1 0x0 PUSH1 0x60 PUSH1 0x0 PUSH2 0x31FF DUP5 PUSH2 0x3CA6 JUMP JUMPDEST SWAP1 POP PUSH1 0x60 PUSH2 0x3215 DUP7 DUP4 PUSH2 0x3210 PUSH2 0x66F JUMP JUMPDEST PUSH2 0x3CBC JUMP JUMPDEST SWAP2 SWAP7 SWAP2 SWAP6 POP SWAP1 SWAP4 POP POP POP POP JUMP JUMPDEST PUSH1 0x0 DUP3 DUP3 MUL PUSH2 0x323C DUP5 ISZERO DUP1 PUSH2 0x1ED5 JUMPI POP DUP4 DUP6 DUP4 DUP2 PUSH2 0x1ED2 JUMPI INVALID JUMPDEST PUSH8 0xDE0B6B3A7640000 DUP2 PUSH2 0x1F12 JUMP JUMPDEST PUSH1 0x0 DUP3 DUP3 SHR PUSH7 0x1FFFFFFFFFFFFF AND PUSH7 0xFFFFFFFFFFFFF DUP2 SGT PUSH2 0x326D JUMPI DUP1 PUSH2 0x1FAC JUMP JUMPDEST PUSH7 0x1FFFFFFFFFFFFF NOT OR SWAP4 SWAP3 POP POP POP JUMP JUMPDEST PUSH1 0x0 PUSH2 0x14D1 DUP4 DUP4 PUSH1 0x1 PUSH2 0x26C5 JUMP JUMPDEST PUSH1 0x0 PUSH1 0x60 PUSH1 0x0 PUSH2 0x329B DUP5 PUSH2 0x3CA6 JUMP JUMPDEST SWAP1 POP PUSH1 0x60 PUSH2 0x3215 DUP7 DUP4 PUSH2 0x32AC PUSH2 0x66F JUMP JUMPDEST PUSH2 0x3D57 JUMP JUMPDEST PUSH1 0x0 PUSH8 0x6F05B59D3B20000 PUSH2 0x2901 PUSH2 0x32CD DUP3 PUSH2 0x28CB DUP8 DUP8 PUSH2 0x14BF JUMP JUMPDEST PUSH2 0x28CB DUP4 DUP2 DUP11 DUP11 PUSH2 0x14BF JUMP JUMPDEST PUSH1 0x0 DUP1 PUSH2 0x32E5 DUP8 PUSH2 0x18B9 JUMP JUMPDEST DUP4 SUB SWAP1 POP PUSH1 0x0 DUP2 DUP8 MUL PUSH2 0x32F7 DUP10 PUSH2 0x29CA JUMP JUMPDEST ADD SWAP1 POP PUSH1 0x0 DUP3 DUP8 MUL PUSH2 0x3308 DUP11 PUSH2 0x29E4 JUMP JUMPDEST ADD SWAP1 POP PUSH1 0x0 DUP4 DUP8 MUL PUSH2 0x3319 DUP12 PUSH2 0x29FE JUMP JUMPDEST ADD SWAP1 POP PUSH2 0x2F7E DUP10 DUP5 DUP11 DUP6 DUP12 DUP7 DUP13 PUSH2 0x1859 JUMP JUMPDEST PUSH1 0x0 PUSH2 0x655 DUP3 PUSH1 0x1 PUSH2 0x3DFE JUMP JUMPDEST PUSH2 0x3FF DUP2 SHL NOT SWAP3 SWAP1 SWAP3 AND SWAP2 SHL OR SWAP1 JUMP JUMPDEST PUSH4 0x7FFFFFFF DUP2 SHL NOT SWAP3 SWAP1 SWAP3 AND SWAP2 SHL OR SWAP1 JUMP JUMPDEST PUSH1 0x0 DUP3 PUSH2 0x3369 JUMPI POP PUSH1 0x0 PUSH2 0x655 JUMP JUMPDEST PUSH1 0x0 PUSH2 0x3374 DUP5 PUSH2 0x3E06 JUMP JUMPDEST SWAP1 POP PUSH1 0x2 DUP2 PUSH8 0xDE0B6B3A7640000 DUP7 MUL DUP2 PUSH2 0x338B JUMPI INVALID JUMPDEST DIV DUP3 ADD DUP2 PUSH2 0x3395 JUMPI INVALID JUMPDEST DIV SWAP1 POP PUSH1 0x2 DUP2 PUSH8 0xDE0B6B3A7640000 DUP7 MUL DUP2 PUSH2 0x33AD JUMPI INVALID JUMPDEST DIV DUP3 ADD DUP2 PUSH2 0x33B7 JUMPI INVALID JUMPDEST DIV SWAP1 POP PUSH1 0x2 DUP2 PUSH8 0xDE0B6B3A7640000 DUP7 MUL DUP2 PUSH2 0x33CF JUMPI INVALID JUMPDEST DIV DUP3 ADD DUP2 PUSH2 0x33D9 JUMPI INVALID JUMPDEST DIV SWAP1 POP PUSH1 0x2 DUP2 PUSH8 0xDE0B6B3A7640000 DUP7 MUL DUP2 PUSH2 0x33F1 JUMPI INVALID JUMPDEST DIV DUP3 ADD DUP2 PUSH2 0x33FB JUMPI INVALID JUMPDEST DIV SWAP1 POP PUSH1 0x2 DUP2 PUSH8 0xDE0B6B3A7640000 DUP7 MUL DUP2 PUSH2 0x3413 JUMPI INVALID JUMPDEST DIV DUP3 ADD DUP2 PUSH2 0x341D JUMPI INVALID JUMPDEST DIV SWAP1 POP PUSH1 0x2 DUP2 PUSH8 0xDE0B6B3A7640000 DUP7 MUL DUP2 PUSH2 0x3435 JUMPI INVALID JUMPDEST DIV DUP3 ADD DUP2 PUSH2 0x343F JUMPI INVALID JUMPDEST DIV SWAP1 POP PUSH1 0x2 DUP2 PUSH8 0xDE0B6B3A7640000 DUP7 MUL DUP2 PUSH2 0x3457 JUMPI INVALID JUMPDEST DIV DUP3 ADD DUP2 PUSH2 0x3461 JUMPI INVALID JUMPDEST DIV SWAP1 POP PUSH1 0x0 PUSH2 0x3470 DUP3 DUP1 PUSH2 0x3222 JUMP JUMPDEST SWAP1 POP PUSH2 0x3486 PUSH2 0x347F DUP4 DUP7 PUSH2 0x22A7 JUMP JUMPDEST DUP7 SWAP1 PUSH2 0x14BF JUMP JUMPDEST DUP2 GT ISZERO DUP1 ISZERO PUSH2 0x34A8 JUMPI POP PUSH2 0x34A4 PUSH2 0x349D DUP4 DUP7 PUSH2 0x22A7 JUMP JUMPDEST DUP7 SWAP1 PUSH2 0x14F4 JUMP JUMPDEST DUP2 LT ISZERO JUMPDEST PUSH2 0x102B JUMPI PUSH1 0x40 MLOAD PUSH3 0x461BCD PUSH1 0xE5 SHL DUP2 MSTORE PUSH1 0x4 ADD PUSH2 0x34C4 SWAP1 PUSH2 0x4BC5 JUMP JUMPDEST PUSH1 0x40 MLOAD DUP1 SWAP2 SUB SWAP1 REVERT JUMPDEST PUSH8 0xDE0B6B3A7640000 MUL PUSH1 0x0 DUP1 PUSH11 0xC097CE7BC90715B34B9F1 PUSH1 0x24 SHL DUP1 DUP5 ADD SWAP1 PUSH15 0xC097CE7BC90715B34B9F0FFFFFFFFF NOT DUP6 ADD MUL DUP2 PUSH2 0x3508 JUMPI INVALID JUMPDEST SDIV SWAP1 POP PUSH1 0x0 PUSH11 0xC097CE7BC90715B34B9F1 PUSH1 0x24 SHL DUP3 DUP1 MUL SDIV SWAP1 POP DUP2 DUP1 PUSH11 0xC097CE7BC90715B34B9F1 PUSH1 0x24 SHL DUP2 DUP5 MUL SDIV SWAP2 POP PUSH1 0x3 DUP3 SDIV ADD PUSH11 0xC097CE7BC90715B34B9F1 PUSH1 0x24 SHL DUP3 DUP5 MUL SDIV SWAP2 POP PUSH1 0x5 DUP3 SDIV ADD PUSH11 0xC097CE7BC90715B34B9F1 PUSH1 0x24 SHL DUP3 DUP5 MUL SDIV SWAP2 POP PUSH1 0x7 DUP3 SDIV ADD PUSH11 0xC097CE7BC90715B34B9F1 PUSH1 0x24 SHL DUP3 DUP5 MUL SDIV SWAP2 POP PUSH1 0x9 DUP3 SDIV ADD PUSH11 0xC097CE7BC90715B34B9F1 PUSH1 0x24 SHL DUP3 DUP5 MUL SDIV SWAP2 POP PUSH1 0xB DUP3 SDIV ADD PUSH11 0xC097CE7BC90715B34B9F1 PUSH1 0x24 SHL DUP3 DUP5 MUL SDIV SWAP2 POP PUSH1 0xD DUP3 SDIV ADD PUSH11 0xC097CE7BC90715B34B9F1 PUSH1 0x24 SHL DUP3 DUP5 MUL SDIV SWAP2 POP PUSH1 0xF DUP3 PUSH1 0x2 SWAP2 SWAP1 SDIV SWAP2 SWAP1 SWAP2 ADD MUL SWAP6 SWAP5 POP POP POP POP POP JUMP JUMPDEST PUSH1 0x0 PUSH8 0xDE0B6B3A7640000 DUP3 SLT ISZERO PUSH2 0x3627 JUMPI PUSH2 0x361D DUP3 PUSH11 0xC097CE7BC90715B34B9F1 PUSH1 0x24 SHL DUP2 PUSH2 0x3617 JUMPI INVALID JUMPDEST SDIV PUSH2 0x35EB JUMP JUMPDEST PUSH1 0x0 SUB SWAP1 POP PUSH2 0xB80 JUMP JUMPDEST PUSH1 0x0 PUSH31 0x1600EF3172E58D2E933EC884FDE10064C63B5372D805E203C0000000000000 DUP4 SLT PUSH2 0x3678 JUMPI PUSH24 0x195E54C5DD42177F53A27172FA9EC630262827000000000 DUP4 SDIV SWAP3 POP PUSH9 0x6F05B59D3B2000000 ADD JUMPDEST PUSH20 0x11798004D755D3C8BC8E03204CF44619E000000 DUP4 SLT PUSH2 0x36B0 JUMPI PUSH12 0x1425982CF597CD205CEF7380 DUP4 SDIV SWAP3 POP PUSH9 0x3782DACE9D9000000 ADD JUMPDEST PUSH1 0x64 SWAP3 DUP4 MUL SWAP3 MUL PUSH15 0x1855144814A7FF805980FF0084000 DUP4 SLT PUSH2 0x36F8 JUMPI PUSH15 0x1855144814A7FF805980FF0084000 PUSH9 0x56BC75E2D63100000 DUP5 MUL SDIV SWAP3 POP PUSH9 0xAD78EBC5AC62000000 ADD JUMPDEST PUSH12 0x2DF0AB5A80A22C61AB5A700 DUP4 SLT PUSH2 0x3733 JUMPI PUSH12 0x2DF0AB5A80A22C61AB5A700 PUSH9 0x56BC75E2D63100000 DUP5 MUL SDIV SWAP3 POP PUSH9 0x56BC75E2D631000000 ADD JUMPDEST PUSH10 0x3F1FCE3DA636EA5CF850 DUP4 SLT PUSH2 0x376A JUMPI PUSH10 0x3F1FCE3DA636EA5CF850 PUSH9 0x56BC75E2D63100000 DUP5 MUL SDIV SWAP3 POP PUSH9 0x2B5E3AF16B18800000 ADD JUMPDEST PUSH10 0x127FA27722CC06CC5E2 DUP4 SLT PUSH2 0x37A1 JUMPI PUSH10 0x127FA27722CC06CC5E2 PUSH9 0x56BC75E2D63100000 DUP5 MUL SDIV SWAP3 POP PUSH9 0x15AF1D78B58C400000 ADD JUMPDEST PUSH9 0x280E60114EDB805D03 DUP4 SLT PUSH2 0x37D6 JUMPI PUSH9 0x280E60114EDB805D03 PUSH9 0x56BC75E2D63100000 DUP5 MUL SDIV SWAP3 POP PUSH9 0xAD78EBC5AC6200000 ADD JUMPDEST PUSH9 0xEBC5FB41746121110 DUP4 SLT PUSH2 0x3801 JUMPI PUSH9 0xEBC5FB41746121110 PUSH9 0x56BC75E2D63100000 SWAP4 DUP5 MUL SDIV SWAP3 ADD JUMPDEST PUSH9 0x8F00F760A4B2DB55D DUP4 SLT PUSH2 0x3836 JUMPI PUSH9 0x8F00F760A4B2DB55D PUSH9 0x56BC75E2D63100000 DUP5 MUL SDIV SWAP3 POP PUSH9 0x2B5E3AF16B1880000 ADD JUMPDEST PUSH9 0x6F5F1775788937937 DUP4 SLT PUSH2 0x386B JUMPI PUSH9 0x6F5F1775788937937 PUSH9 0x56BC75E2D63100000 DUP5 MUL SDIV SWAP3 POP PUSH9 0x15AF1D78B58C40000 ADD JUMPDEST PUSH9 0x6248F33704B286603 DUP4 SLT PUSH2 0x389F JUMPI PUSH9 0x6248F33704B286603 PUSH9 0x56BC75E2D63100000 DUP5 MUL SDIV SWAP3 POP PUSH8 0xAD78EBC5AC620000 ADD JUMPDEST PUSH9 0x5C548670B9510E7AC DUP4 SLT PUSH2 0x38D3 JUMPI PUSH9 0x5C548670B9510E7AC PUSH9 0x56BC75E2D63100000 DUP5 MUL SDIV SWAP3 POP PUSH8 0x56BC75E2D6310000 ADD JUMPDEST PUSH1 0x0 PUSH9 0x56BC75E2D63100000 DUP5 ADD PUSH9 0x56BC75E2D63100000 DUP1 DUP7 SUB MUL DUP2 PUSH2 0x38F6 JUMPI INVALID JUMPDEST SDIV SWAP1 POP PUSH1 0x0 PUSH9 0x56BC75E2D63100000 DUP3 DUP1 MUL SDIV SWAP1 POP DUP2 DUP1 PUSH9 0x56BC75E2D63100000 DUP2 DUP5 MUL SDIV SWAP2 POP PUSH1 0x3 DUP3 SDIV ADD PUSH9 0x56BC75E2D63100000 DUP3 DUP5 MUL SDIV SWAP2 POP PUSH1 0x5 DUP3 SDIV ADD PUSH9 0x56BC75E2D63100000 DUP3 DUP5 MUL SDIV SWAP2 POP PUSH1 0x7 DUP3 SDIV ADD PUSH9 0x56BC75E2D63100000 DUP3 DUP5 MUL SDIV SWAP2 POP PUSH1 0x9 DUP3 SDIV ADD PUSH9 0x56BC75E2D63100000 DUP3 DUP5 MUL SDIV SWAP2 POP PUSH1 0xB DUP3 SDIV ADD PUSH1 0x2 MUL PUSH1 0x64 DUP6 DUP3 ADD SDIV SWAP8 SWAP7 POP POP POP POP POP POP POP JUMP JUMPDEST PUSH1 0x0 PUSH2 0x14D1 DUP4 DUP4 PUSH2 0x3222 JUMP JUMPDEST PUSH1 0x0 PUSH2 0x14D1 DUP4 DUP4 PUSH2 0x1EDC JUMP JUMPDEST PUSH1 0xB SLOAD PUSH1 0x40 MLOAD PUSH4 0xBD02D0F5 PUSH1 0xE0 SHL DUP2 MSTORE PUSH1 0x0 SWAP2 DUP3 SWAP2 DUP3 SWAP2 DUP3 SWAP2 PUSH1 0x1 PUSH1 0x1 PUSH1 0xA0 SHL SUB SWAP1 SWAP2 AND SWAP1 PUSH4 0xBD02D0F5 SWAP1 PUSH2 0x39F4 SWAP1 PUSH22 0x50524F544F434F4C5F535741505F4645455F50455243 PUSH1 0x50 SHL SWAP1 PUSH1 0x4 ADD PUSH2 0x49EA JUMP JUMPDEST PUSH1 0x20 PUSH1 0x40 MLOAD DUP1 DUP4 SUB DUP2 DUP7 DUP1 EXTCODESIZE ISZERO DUP1 ISZERO PUSH2 0x3A0C JUMPI PUSH1 0x0 DUP1 REVERT JUMPDEST POP GAS STATICCALL ISZERO DUP1 ISZERO PUSH2 0x3A20 JUMPI RETURNDATASIZE PUSH1 0x0 DUP1 RETURNDATACOPY RETURNDATASIZE PUSH1 0x0 REVERT JUMPDEST POP POP POP POP PUSH1 0x40 MLOAD RETURNDATASIZE PUSH1 0x1F NOT PUSH1 0x1F DUP3 ADD AND DUP3 ADD DUP1 PUSH1 0x40 MSTORE POP DUP2 ADD SWAP1 PUSH2 0x3A44 SWAP2 SWAP1 PUSH2 0x4736 JUMP JUMPDEST PUSH1 0xB SLOAD PUSH1 0x40 MLOAD PUSH4 0xBD02D0F5 PUSH1 0xE0 SHL DUP2 MSTORE PUSH1 0x1 PUSH1 0x1 PUSH1 0xA0 SHL SUB SWAP1 SWAP2 AND SWAP1 PUSH4 0xBD02D0F5 SWAP1 PUSH2 0x3A94 SWAP1 PUSH32 0x50524F544F434F4C5F4645455F4759524F5F504F5254494F4E00000000000000 SWAP1 PUSH1 0x4 ADD PUSH2 0x49EA JUMP JUMPDEST PUSH1 0x20 PUSH1 0x40 MLOAD DUP1 DUP4 SUB DUP2 DUP7 DUP1 EXTCODESIZE ISZERO DUP1 ISZERO PUSH2 0x3AAC JUMPI PUSH1 0x0 DUP1 REVERT JUMPDEST POP GAS STATICCALL ISZERO DUP1 ISZERO PUSH2 0x3AC0 JUMPI RETURNDATASIZE PUSH1 0x0 DUP1 RETURNDATACOPY RETURNDATASIZE PUSH1 0x0 REVERT JUMPDEST POP POP POP POP PUSH1 0x40 MLOAD RETURNDATASIZE PUSH1 0x1F NOT PUSH1 0x1F DUP3 ADD AND DUP3 ADD DUP1 PUSH1 0x40 MSTORE POP DUP2 ADD SWAP1 PUSH2 0x3AE4 SWAP2 SWAP1 PUSH2 0x4736 JUMP JUMPDEST PUSH1 0xB SLOAD PUSH1 0x40 MLOAD PUSH4 0x21F8A721 PUSH1 0xE0 SHL DUP2 MSTORE PUSH1 0x1 PUSH1 0x1 PUSH1 0xA0 SHL SUB SWAP1 SWAP2 AND SWAP1 PUSH4 0x21F8A721 SWAP1 PUSH2 0x3B24 SWAP1 PUSH13 0x4759524F5F5452454153555259 PUSH1 0x98 SHL SWAP1 PUSH1 0x4 ADD PUSH2 0x49EA JUMP JUMPDEST PUSH1 0x20 PUSH1 0x40 MLOAD DUP1 DUP4 SUB DUP2 DUP7 DUP1 EXTCODESIZE ISZERO DUP1 ISZERO PUSH2 0x3B3C JUMPI PUSH1 0x0 DUP1 REVERT JUMPDEST POP GAS STATICCALL ISZERO DUP1 ISZERO PUSH2 0x3B50 JUMPI RETURNDATASIZE PUSH1 0x0 DUP1 RETURNDATACOPY RETURNDATASIZE PUSH1 0x0 REVERT JUMPDEST POP POP POP POP PUSH1 0x40 MLOAD RETURNDATASIZE PUSH1 0x1F NOT PUSH1 0x1F DUP3 ADD AND DUP3 ADD DUP1 PUSH1 0x40 MSTORE POP DUP2 ADD SWAP1 PUSH2 0x3B74 SWAP2 SWAP1 PUSH2 0x41B1 JUMP JUMPDEST PUSH1 0xB SLOAD PUSH1 0x40 MLOAD PUSH4 0x21F8A721 PUSH1 0xE0 SHL DUP2 MSTORE PUSH1 0x1 PUSH1 0x1 PUSH1 0xA0 SHL SUB SWAP1 SWAP2 AND SWAP1 PUSH4 0x21F8A721 SWAP1 PUSH2 0x3BB3 SWAP1 PUSH12 0x42414C5F5452454153555259 PUSH1 0xA0 SHL SWAP1 PUSH1 0x4 ADD PUSH2 0x49EA JUMP JUMPDEST PUSH1 0x20 PUSH1 0x40 MLOAD DUP1 DUP4 SUB DUP2 DUP7 DUP1 EXTCODESIZE ISZERO DUP1 ISZERO PUSH2 0x3BCB JUMPI PUSH1 0x0 DUP1 REVERT JUMPDEST POP GAS STATICCALL ISZERO DUP1 ISZERO PUSH2 0x3BDF JUMPI RETURNDATASIZE PUSH1 0x0 DUP1 RETURNDATACOPY RETURNDATASIZE PUSH1 0x0 REVERT JUMPDEST POP POP POP POP PUSH1 0x40 MLOAD RETURNDATASIZE PUSH1 0x1F NOT PUSH1 0x1F DUP3 ADD AND DUP3 ADD DUP1 PUSH1 0x40 MSTORE POP DUP2 ADD SWAP1 PUSH2 0x3C03 SWAP2 SWAP1 PUSH2 0x41B1 JUMP JUMPDEST SWAP4 POP SWAP4 POP SWAP4 POP SWAP4 POP SWAP1 SWAP2 SWAP3 SWAP4 JUMP JUMPDEST PUSH1 0x0 DUP1 DUP7 DUP7 GT PUSH2 0x3C26 JUMPI POP PUSH1 0x0 SWAP1 POP DUP1 PUSH2 0x3C9C JUMP JUMPDEST PUSH1 0x0 PUSH2 0x3C40 DUP6 PUSH2 0x2E79 PUSH2 0x3C39 DUP11 DUP13 PUSH2 0x14F4 JUMP JUMPDEST DUP10 SWAP1 PUSH2 0x3222 JUMP JUMPDEST SWAP1 POP PUSH1 0x0 PUSH2 0x3C58 PUSH2 0x3C51 DUP10 DUP12 PUSH2 0x14F4 JUMP JUMPDEST DUP8 SWAP1 PUSH2 0x3222 JUMP JUMPDEST SWAP1 POP PUSH1 0x0 PUSH2 0x3C66 DUP10 DUP4 PUSH2 0x14F4 JUMP JUMPDEST SWAP1 POP PUSH1 0x0 PUSH2 0x3C74 DUP5 DUP4 PUSH2 0x1EDC JUMP JUMPDEST SWAP1 POP PUSH1 0x0 PUSH2 0x3C82 DUP9 DUP4 PUSH2 0x3222 JUMP JUMPDEST SWAP1 POP PUSH1 0x0 PUSH2 0x3C90 DUP4 DUP4 PUSH2 0x14F4 JUMP JUMPDEST SWAP2 SWAP8 POP SWAP1 SWAP6 POP POP POP POP POP POP JUMPDEST SWAP6 POP SWAP6 SWAP4 POP POP POP POP JUMP JUMPDEST PUSH1 0x0 DUP2 DUP1 PUSH1 0x20 ADD SWAP1 MLOAD DUP2 ADD SWAP1 PUSH2 0x14D1 SWAP2 SWAP1 PUSH2 0x46A0 JUMP JUMPDEST PUSH1 0x60 PUSH1 0x0 PUSH2 0x3CCA DUP5 DUP5 PUSH2 0x1EDC JUMP JUMPDEST SWAP1 POP PUSH1 0x60 DUP6 MLOAD PUSH1 0x1 PUSH1 0x1 PUSH1 0x40 SHL SUB DUP2 GT DUP1 ISZERO PUSH2 0x3CE5 JUMPI PUSH1 0x0 DUP1 REVERT JUMPDEST POP PUSH1 0x40 MLOAD SWAP1 DUP1 DUP3 MSTORE DUP1 PUSH1 0x20 MUL PUSH1 0x20 ADD DUP3 ADD PUSH1 0x40 MSTORE DUP1 ISZERO PUSH2 0x3D0F JUMPI DUP2 PUSH1 0x20 ADD PUSH1 0x20 DUP3 MUL DUP1 CALLDATASIZE DUP4 CALLDATACOPY ADD SWAP1 POP JUMPDEST POP SWAP1 POP PUSH1 0x0 JUMPDEST DUP7 MLOAD DUP2 LT ISZERO PUSH2 0x3D4D JUMPI PUSH2 0x3D2E DUP4 DUP9 DUP4 DUP2 MLOAD DUP2 LT PUSH2 0x2DFF JUMPI INVALID JUMPDEST DUP3 DUP3 DUP2 MLOAD DUP2 LT PUSH2 0x3D3A JUMPI INVALID JUMPDEST PUSH1 0x20 SWAP1 DUP2 MUL SWAP2 SWAP1 SWAP2 ADD ADD MSTORE PUSH1 0x1 ADD PUSH2 0x3D15 JUMP JUMPDEST POP SWAP6 SWAP5 POP POP POP POP POP JUMP JUMPDEST PUSH1 0x60 PUSH1 0x0 PUSH2 0x3D65 DUP5 DUP5 PUSH2 0x235A JUMP JUMPDEST SWAP1 POP PUSH1 0x60 DUP6 MLOAD PUSH1 0x1 PUSH1 0x1 PUSH1 0x40 SHL SUB DUP2 GT DUP1 ISZERO PUSH2 0x3D80 JUMPI PUSH1 0x0 DUP1 REVERT JUMPDEST POP PUSH1 0x40 MLOAD SWAP1 DUP1 DUP3 MSTORE DUP1 PUSH1 0x20 MUL PUSH1 0x20 ADD DUP3 ADD PUSH1 0x40 MSTORE DUP1 ISZERO PUSH2 0x3DAA JUMPI DUP2 PUSH1 0x20 ADD PUSH1 0x20 DUP3 MUL DUP1 CALLDATASIZE DUP4 CALLDATACOPY ADD SWAP1 POP JUMPDEST POP SWAP1 POP PUSH1 0x0 JUMPDEST DUP7 MLOAD DUP2 LT ISZERO PUSH2 0x3D4D JUMPI PUSH2 0x3DDF DUP4 DUP9 DUP4 DUP2 MLOAD DUP2 LT PUSH2 0x3DC9 JUMPI INVALID JUMPDEST PUSH1 0x20 MUL PUSH1 0x20 ADD ADD MLOAD PUSH2 0x22A7 SWAP1 SWAP2 SWAP1 PUSH4 0xFFFFFFFF AND JUMP JUMPDEST DUP3 DUP3 DUP2 MLOAD DUP2 LT PUSH2 0x3DEB JUMPI INVALID JUMPDEST PUSH1 0x20 SWAP1 DUP2 MUL SWAP2 SWAP1 SWAP2 ADD ADD MSTORE PUSH1 0x1 ADD PUSH2 0x3DB0 JUMP JUMPDEST ADD PUSH2 0x3FF AND SWAP1 JUMP JUMPDEST PUSH1 0x0 PUSH8 0xDE0B6B3A7640000 DUP3 LT PUSH2 0x3E33 JUMPI PUSH8 0xDE0B6B3A7640000 PUSH2 0x3E2B DUP2 DUP5 DIV PUSH2 0x3FE9 JUMP JUMPDEST SHL SWAP1 POP PUSH2 0xB80 JUMP JUMPDEST PUSH1 0xA DUP3 LT ISZERO PUSH2 0x3E47 JUMPI POP PUSH4 0x12D940B6 PUSH2 0xB80 JUMP JUMPDEST PUSH1 0x64 DUP3 LT ISZERO PUSH2 0x3E5C JUMPI POP PUSH5 0x2540BE400 PUSH2 0xB80 JUMP JUMPDEST PUSH2 0x3E8 DUP3 LT ISZERO PUSH2 0x3E72 JUMPI POP PUSH5 0x75CDD4719 PUSH2 0xB80 JUMP JUMPDEST PUSH2 0x2710 DUP3 LT ISZERO PUSH2 0x3E88 JUMPI POP PUSH5 0x174876E800 PUSH2 0xB80 JUMP JUMPDEST PUSH3 0x186A0 DUP3 LT ISZERO PUSH2 0x3E9F JUMPI POP PUSH5 0x49A0A4C700 PUSH2 0xB80 JUMP JUMPDEST PUSH3 0xF4240 DUP3 LT ISZERO PUSH2 0x3EB6 JUMPI POP PUSH5 0xE8D4A51000 PUSH2 0xB80 JUMP JUMPDEST PUSH3 0x989680 DUP3 LT ISZERO PUSH2 0x3ECE JUMPI POP PUSH6 0x2E0466FC608 PUSH2 0xB80 JUMP JUMPDEST PUSH4 0x5F5E100 DUP3 LT ISZERO PUSH2 0x3EE7 JUMPI POP PUSH6 0x9184E72A000 PUSH2 0xB80 JUMP JUMPDEST PUSH4 0x3B9ACA00 DUP3 LT ISZERO PUSH2 0x3F00 JUMPI POP PUSH6 0x1CC2C05DBC53 PUSH2 0xB80 JUMP JUMPDEST PUSH5 0x2540BE400 DUP3 LT ISZERO PUSH2 0x3F1A JUMPI POP PUSH6 0x5AF3107A4000 PUSH2 0xB80 JUMP JUMPDEST PUSH5 0x174876E800 DUP3 LT ISZERO PUSH2 0x3F35 JUMPI POP PUSH7 0x11F9B83A95B45 PUSH2 0xB80 JUMP JUMPDEST PUSH5 0xE8D4A51000 DUP3 LT ISZERO PUSH2 0x3F50 JUMPI POP PUSH7 0x38D7EA4C68000 PUSH2 0xB80 JUMP JUMPDEST PUSH6 0x9184E72A000 DUP3 LT ISZERO PUSH2 0x3F6C JUMPI POP PUSH7 0xB3C13249D90BB PUSH2 0xB80 JUMP JUMPDEST PUSH6 0x5AF3107A4000 DUP3 LT ISZERO PUSH2 0x3F88 JUMPI POP PUSH7 0x2386F26FC10000 PUSH2 0xB80 JUMP JUMPDEST PUSH7 0x38D7EA4C68000 DUP3 LT ISZERO PUSH2 0x3FA5 JUMPI POP PUSH7 0x7058BF6E27A751 PUSH2 0xB80 JUMP JUMPDEST PUSH7 0x2386F26FC10000 DUP3 LT ISZERO PUSH2 0x3FC3 JUMPI POP PUSH8 0x16345785D8A0000 PUSH2 0xB80 JUMP JUMPDEST PUSH8 0x16345785D8A0000 DUP3 LT ISZERO PUSH2 0x3FE2 JUMPI POP PUSH8 0x463777A4D8C892D PUSH2 0xB80 JUMP JUMPDEST POP DUP1 PUSH2 0xB80 JUMP JUMPDEST PUSH1 0x0 PUSH1 0x1 PUSH1 0x80 SHL DUP3 LT PUSH2 0x4001 JUMPI PUSH1 0x80 SWAP2 SWAP1 SWAP2 SHR SWAP1 PUSH1 0x40 ADD JUMPDEST PUSH9 0x10000000000000000 DUP3 LT PUSH2 0x401C JUMPI PUSH1 0x40 SWAP2 SWAP1 SWAP2 SHR SWAP1 PUSH1 0x20 ADD JUMPDEST PUSH5 0x100000000 DUP3 LT PUSH2 0x4033 JUMPI PUSH1 0x20 SWAP2 SWAP1 SWAP2 SHR SWAP1 PUSH1 0x10 ADD JUMPDEST PUSH3 0x10000 DUP3 LT PUSH2 0x4048 JUMPI PUSH1 0x10 SWAP2 SWAP1 SWAP2 SHR SWAP1 PUSH1 0x8 ADD JUMPDEST PUSH2 0x100 DUP3 LT PUSH2 0x405C JUMPI PUSH1 0x8 SWAP2 SWAP1 SWAP2 SHR SWAP1 PUSH1 0x4 ADD JUMPDEST PUSH1 0x10 DUP3 LT PUSH2 0x406F JUMPI PUSH1 0x4 SWAP2 SWAP1 SWAP2 SHR SWAP1 PUSH1 0x2 ADD JUMPDEST PUSH1 0x4 DUP3 LT PUSH2 0xB80 JUMPI PUSH1 0x1 ADD SWAP2 SWAP1 POP JUMP JUMPDEST PUSH1 0x40 DUP1 MLOAD DUP1 DUP3 ADD SWAP1 SWAP2 MSTORE PUSH1 0x0 DUP1 DUP3 MSTORE PUSH1 0x20 DUP3 ADD MSTORE SWAP1 JUMP JUMPDEST DUP1 CALLDATALOAD PUSH2 0x655 DUP2 PUSH2 0x4C77 JUMP JUMPDEST PUSH1 0x0 DUP3 PUSH1 0x1F DUP4 ADD SLT PUSH2 0x40B1 JUMPI DUP1 DUP2 REVERT JUMPDEST DUP2 MLOAD PUSH2 0x40C4 PUSH2 0x40BF DUP3 PUSH2 0x4C4E JUMP JUMPDEST PUSH2 0x4C28 JUMP JUMPDEST DUP2 DUP2 MSTORE SWAP2 POP PUSH1 0x20 DUP1 DUP4 ADD SWAP1 DUP5 DUP2 ADD DUP2 DUP5 MUL DUP7 ADD DUP3 ADD DUP8 LT ISZERO PUSH2 0x40E5 JUMPI PUSH1 0x0 DUP1 REVERT JUMPDEST PUSH1 0x0 JUMPDEST DUP5 DUP2 LT ISZERO PUSH2 0x4104 JUMPI DUP2 MLOAD DUP5 MSTORE SWAP3 DUP3 ADD SWAP3 SWAP1 DUP3 ADD SWAP1 PUSH1 0x1 ADD PUSH2 0x40E8 JUMP JUMPDEST POP POP POP POP POP SWAP3 SWAP2 POP POP JUMP JUMPDEST PUSH1 0x0 DUP3 PUSH1 0x1F DUP4 ADD SLT PUSH2 0x411F JUMPI DUP1 DUP2 REVERT JUMPDEST DUP2 CALLDATALOAD PUSH1 0x1 PUSH1 0x1 PUSH1 0x40 SHL SUB DUP2 GT ISZERO PUSH2 0x4134 JUMPI DUP2 DUP3 REVERT JUMPDEST PUSH2 0x4147 PUSH1 0x1F DUP3 ADD PUSH1 0x1F NOT AND PUSH1 0x20 ADD PUSH2 0x4C28 JUMP JUMPDEST SWAP2 POP DUP1 DUP3 MSTORE DUP4 PUSH1 0x20 DUP3 DUP6 ADD ADD GT ISZERO PUSH2 0x415E JUMPI PUSH1 0x0 DUP1 REVERT JUMPDEST DUP1 PUSH1 0x20 DUP5 ADD PUSH1 0x20 DUP5 ADD CALLDATACOPY PUSH1 0x0 SWAP1 DUP3 ADD PUSH1 0x20 ADD MSTORE SWAP3 SWAP2 POP POP JUMP JUMPDEST DUP1 CALLDATALOAD PUSH1 0x2 DUP2 LT PUSH2 0x655 JUMPI PUSH1 0x0 DUP1 REVERT JUMPDEST DUP1 CALLDATALOAD PUSH1 0x3 DUP2 LT PUSH2 0x655 JUMPI PUSH1 0x0 DUP1 REVERT JUMPDEST PUSH1 0x0 PUSH1 0x20 DUP3 DUP5 SUB SLT ISZERO PUSH2 0x41A6 JUMPI DUP1 DUP2 REVERT JUMPDEST DUP2 CALLDATALOAD PUSH2 0x14D1 DUP2 PUSH2 0x4C77 JUMP JUMPDEST PUSH1 0x0 PUSH1 0x20 DUP3 DUP5 SUB SLT ISZERO PUSH2 0x41C2 JUMPI DUP1 DUP2 REVERT JUMPDEST DUP2 MLOAD PUSH2 0x14D1 DUP2 PUSH2 0x4C77 JUMP JUMPDEST PUSH1 0x0 DUP1 PUSH1 0x40 DUP4 DUP6 SUB SLT ISZERO PUSH2 0x41DF JUMPI DUP1 DUP2 REVERT JUMPDEST DUP3 CALLDATALOAD PUSH2 0x41EA DUP2 PUSH2 0x4C77 JUMP JUMPDEST SWAP2 POP PUSH1 0x20 DUP4 ADD CALLDATALOAD PUSH2 0x41FA DUP2 PUSH2 0x4C77 JUMP JUMPDEST DUP1 SWAP2 POP POP SWAP3 POP SWAP3 SWAP1 POP JUMP JUMPDEST PUSH1 0x0 DUP1 PUSH1 0x0 PUSH1 0x60 DUP5 DUP7 SUB SLT ISZERO PUSH2 0x4219 JUMPI DUP1 DUP2 REVERT JUMPDEST DUP4 CALLDATALOAD PUSH2 0x4224 DUP2 PUSH2 0x4C77 JUMP JUMPDEST SWAP3 POP PUSH1 0x20 DUP5 ADD CALLDATALOAD PUSH2 0x4234 DUP2 PUSH2 0x4C77 JUMP JUMPDEST SWAP3 SWAP6 SWAP3 SWAP5 POP POP POP PUSH1 0x40 SWAP2 SWAP1 SWAP2 ADD CALLDATALOAD SWAP1 JUMP JUMPDEST PUSH1 0x0 DUP1 PUSH1 0x0 DUP1 PUSH1 0x0 DUP1 PUSH1 0x0 PUSH1 0xE0 DUP9 DUP11 SUB SLT ISZERO PUSH2 0x425F JUMPI DUP5 DUP6 REVERT JUMPDEST DUP8 CALLDATALOAD PUSH2 0x426A DUP2 PUSH2 0x4C77 JUMP JUMPDEST SWAP7 POP PUSH1 0x20 DUP9 ADD CALLDATALOAD PUSH2 0x427A DUP2 PUSH2 0x4C77 JUMP JUMPDEST SWAP6 POP PUSH1 0x40 DUP9 ADD CALLDATALOAD SWAP5 POP PUSH1 0x60 DUP9 ADD CALLDATALOAD SWAP4 POP PUSH1 0x80 DUP9 ADD CALLDATALOAD PUSH1 0xFF DUP2 AND DUP2 EQ PUSH2 0x429D JUMPI DUP4 DUP5 REVERT JUMPDEST SWAP7 SWAP10 SWAP6 SWAP9 POP SWAP4 SWAP7 SWAP3 SWAP6 SWAP5 PUSH1 0xA0 DUP5 ADD CALLDATALOAD SWAP5 POP PUSH1 0xC0 SWAP1 SWAP4 ADD CALLDATALOAD SWAP3 SWAP2 POP POP JUMP JUMPDEST PUSH1 0x0 DUP1 PUSH1 0x40 DUP4 DUP6 SUB SLT ISZERO PUSH2 0x42CC JUMPI DUP2 DUP3 REVERT JUMPDEST DUP3 CALLDATALOAD PUSH2 0x42D7 DUP2 PUSH2 0x4C77 JUMP JUMPDEST SWAP5 PUSH1 0x20 SWAP4 SWAP1 SWAP4 ADD CALLDATALOAD SWAP4 POP POP POP JUMP JUMPDEST PUSH1 0x0 DUP1 PUSH1 0x0 PUSH1 0x60 DUP5 DUP7 SUB SLT ISZERO PUSH2 0x42F9 JUMPI DUP1 DUP2 REVERT JUMPDEST DUP4 MLOAD PUSH1 0x1 PUSH1 0x1 PUSH1 0x40 SHL SUB DUP1 DUP3 GT ISZERO PUSH2 0x430F JUMPI DUP3 DUP4 REVERT JUMPDEST DUP2 DUP7 ADD SWAP2 POP DUP7 PUSH1 0x1F DUP4 ADD SLT PUSH2 0x4322 JUMPI DUP3 DUP4 REVERT JUMPDEST DUP2 MLOAD PUSH2 0x4330 PUSH2 0x40BF DUP3 PUSH2 0x4C4E JUMP JUMPDEST DUP1 DUP3 DUP3 MSTORE PUSH1 0x20 DUP1 DUP4 ADD SWAP3 POP DUP1 DUP7 ADD DUP12 DUP3 DUP4 DUP8 MUL DUP10 ADD ADD GT ISZERO PUSH2 0x4350 JUMPI DUP8 DUP9 REVERT JUMPDEST DUP8 SWAP7 POP JUMPDEST DUP5 DUP8 LT ISZERO PUSH2 0x437B JUMPI DUP1 MLOAD PUSH2 0x4367 DUP2 PUSH2 0x4C77 JUMP JUMPDEST DUP5 MSTORE PUSH1 0x1 SWAP7 SWAP1 SWAP7 ADD SWAP6 SWAP3 DUP2 ADD SWAP3 DUP2 ADD PUSH2 0x4354 JUMP JUMPDEST POP DUP10 ADD MLOAD SWAP1 SWAP8 POP SWAP4 POP POP POP DUP1 DUP3 GT ISZERO PUSH2 0x4392 JUMPI DUP3 DUP4 REVERT JUMPDEST POP PUSH2 0x439F DUP7 DUP3 DUP8 ADD PUSH2 0x40A1 JUMP JUMPDEST SWAP3 POP POP PUSH1 0x40 DUP5 ADD MLOAD SWAP1 POP SWAP3 POP SWAP3 POP SWAP3 JUMP JUMPDEST PUSH1 0x0 PUSH1 0x20 DUP1 DUP4 DUP6 SUB SLT ISZERO PUSH2 0x43C2 JUMPI DUP2 DUP3 REVERT JUMPDEST DUP3 CALLDATALOAD PUSH1 0x1 PUSH1 0x1 PUSH1 0x40 SHL SUB DUP2 GT ISZERO PUSH2 0x43D7 JUMPI DUP3 DUP4 REVERT JUMPDEST DUP4 ADD PUSH1 0x1F DUP2 ADD DUP6 SGT PUSH2 0x43E7 JUMPI DUP3 DUP4 REVERT JUMPDEST DUP1 CALLDATALOAD PUSH2 0x43F5 PUSH2 0x40BF DUP3 PUSH2 0x4C4E JUMP JUMPDEST DUP2 DUP2 MSTORE DUP4 DUP2 ADD SWAP1 DUP4 DUP6 ADD PUSH1 0x40 DUP1 DUP6 MUL DUP7 ADD DUP8 ADD DUP11 LT ISZERO PUSH2 0x4413 JUMPI DUP8 DUP9 REVERT JUMPDEST DUP8 SWAP6 POP JUMPDEST DUP5 DUP7 LT ISZERO PUSH2 0x4460 JUMPI DUP1 DUP3 DUP12 SUB SLT ISZERO PUSH2 0x442D JUMPI DUP8 DUP9 REVERT JUMPDEST PUSH2 0x4436 DUP2 PUSH2 0x4C28 JUMP JUMPDEST PUSH2 0x4440 DUP12 DUP5 PUSH2 0x4186 JUMP JUMPDEST DUP2 MSTORE DUP3 DUP9 ADD CALLDATALOAD DUP9 DUP3 ADD MSTORE DUP5 MSTORE PUSH1 0x1 SWAP6 SWAP1 SWAP6 ADD SWAP5 SWAP3 DUP7 ADD SWAP3 SWAP1 DUP2 ADD SWAP1 PUSH2 0x4417 JUMP JUMPDEST POP SWAP1 SWAP9 SWAP8 POP POP POP POP POP POP POP POP JUMP JUMPDEST PUSH1 0x0 PUSH1 0x20 DUP1 DUP4 DUP6 SUB SLT ISZERO PUSH2 0x4480 JUMPI DUP2 DUP3 REVERT JUMPDEST DUP3 CALLDATALOAD PUSH1 0x1 PUSH1 0x1 PUSH1 0x40 SHL SUB DUP2 GT ISZERO PUSH2 0x4495 JUMPI DUP3 DUP4 REVERT JUMPDEST DUP4 ADD PUSH1 0x1F DUP2 ADD DUP6 SGT PUSH2 0x44A5 JUMPI DUP3 DUP4 REVERT JUMPDEST DUP1 CALLDATALOAD PUSH2 0x44B3 PUSH2 0x40BF DUP3 PUSH2 0x4C4E JUMP JUMPDEST DUP2 DUP2 MSTORE DUP4 DUP2 ADD SWAP1 DUP4 DUP6 ADD PUSH1 0x60 DUP1 DUP6 MUL DUP7 ADD DUP8 ADD DUP11 LT ISZERO PUSH2 0x44D1 JUMPI DUP8 DUP9 REVERT JUMPDEST DUP8 SWAP6 POP JUMPDEST DUP5 DUP7 LT ISZERO PUSH2 0x4460 JUMPI DUP1 DUP3 DUP12 SUB SLT ISZERO PUSH2 0x44EB JUMPI DUP8 DUP9 REVERT JUMPDEST PUSH2 0x44F4 DUP2 PUSH2 0x4C28 JUMP JUMPDEST PUSH2 0x44FE DUP12 DUP5 PUSH2 0x4186 JUMP JUMPDEST DUP2 MSTORE DUP3 DUP9 ADD CALLDATALOAD DUP9 DUP3 ADD MSTORE PUSH1 0x40 DUP1 DUP5 ADD CALLDATALOAD SWAP1 DUP3 ADD MSTORE DUP5 MSTORE PUSH1 0x1 SWAP6 SWAP1 SWAP6 ADD SWAP5 SWAP3 DUP7 ADD SWAP3 SWAP1 DUP2 ADD SWAP1 PUSH2 0x44D5 JUMP JUMPDEST PUSH1 0x0 PUSH1 0x20 DUP3 DUP5 SUB SLT ISZERO PUSH2 0x4539 JUMPI DUP1 DUP2 REVERT JUMPDEST DUP2 CALLDATALOAD PUSH2 0x14D1 DUP2 PUSH2 0x4C8C JUMP JUMPDEST PUSH1 0x0 PUSH1 0x20 DUP3 DUP5 SUB SLT ISZERO PUSH2 0x4555 JUMPI DUP1 DUP2 REVERT JUMPDEST DUP2 MLOAD PUSH2 0x14D1 DUP2 PUSH2 0x4C8C JUMP JUMPDEST PUSH1 0x0 DUP1 PUSH1 0x0 DUP1 PUSH1 0x0 DUP1 PUSH1 0x0 PUSH1 0xE0 DUP9 DUP11 SUB SLT ISZERO PUSH2 0x457A JUMPI DUP1 DUP2 REVERT JUMPDEST DUP8 CALLDATALOAD SWAP7 POP PUSH1 0x20 DUP1 DUP10 ADD CALLDATALOAD PUSH2 0x458D DUP2 PUSH2 0x4C77 JUMP JUMPDEST SWAP7 POP PUSH1 0x40 DUP10 ADD CALLDATALOAD PUSH2 0x459D DUP2 PUSH2 0x4C77 JUMP JUMPDEST SWAP6 POP PUSH1 0x60 DUP10 ADD CALLDATALOAD PUSH1 0x1 PUSH1 0x1 PUSH1 0x40 SHL SUB DUP1 DUP3 GT ISZERO PUSH2 0x45B8 JUMPI DUP4 DUP5 REVERT JUMPDEST DUP2 DUP12 ADD SWAP2 POP DUP12 PUSH1 0x1F DUP4 ADD SLT PUSH2 0x45CB JUMPI DUP4 DUP5 REVERT JUMPDEST DUP2 CALLDATALOAD PUSH2 0x45D9 PUSH2 0x40BF DUP3 PUSH2 0x4C4E JUMP JUMPDEST DUP1 DUP3 DUP3 MSTORE DUP6 DUP3 ADD SWAP2 POP DUP6 DUP6 ADD DUP16 DUP8 DUP9 DUP7 MUL DUP9 ADD ADD GT ISZERO PUSH2 0x45F7 JUMPI DUP8 DUP9 REVERT JUMPDEST DUP8 SWAP6 POP JUMPDEST DUP4 DUP7 LT ISZERO PUSH2 0x4619 JUMPI DUP1 CALLDATALOAD DUP4 MSTORE PUSH1 0x1 SWAP6 SWAP1 SWAP6 ADD SWAP5 SWAP2 DUP7 ADD SWAP2 DUP7 ADD PUSH2 0x45FB JUMP JUMPDEST POP SWAP9 POP POP POP PUSH1 0x80 DUP12 ADD CALLDATALOAD SWAP6 POP PUSH1 0xA0 DUP12 ADD CALLDATALOAD SWAP5 POP PUSH1 0xC0 DUP12 ADD CALLDATALOAD SWAP3 POP DUP1 DUP4 GT ISZERO PUSH2 0x463F JUMPI DUP4 DUP5 REVERT JUMPDEST POP POP PUSH2 0x464D DUP11 DUP3 DUP12 ADD PUSH2 0x410F JUMP JUMPDEST SWAP2 POP POP SWAP3 SWAP6 SWAP9 SWAP2 SWAP5 SWAP8 POP SWAP3 SWAP6 POP JUMP JUMPDEST PUSH1 0x0 PUSH1 0x20 DUP3 DUP5 SUB SLT ISZERO PUSH2 0x466D JUMPI DUP1 DUP2 REVERT JUMPDEST DUP2 CALLDATALOAD PUSH1 0x1 PUSH1 0x1 PUSH1 0xE0 SHL SUB NOT DUP2 AND DUP2 EQ PUSH2 0x14D1 JUMPI DUP2 DUP3 REVERT JUMPDEST PUSH1 0x0 PUSH1 0x20 DUP3 DUP5 SUB SLT ISZERO PUSH2 0x4695 JUMPI DUP1 DUP2 REVERT JUMPDEST DUP2 MLOAD PUSH2 0x14D1 DUP2 PUSH2 0x4C9A JUMP JUMPDEST PUSH1 0x0 DUP1 PUSH1 0x40 DUP4 DUP6 SUB SLT ISZERO PUSH2 0x46B2 JUMPI DUP2 DUP3 REVERT JUMPDEST DUP3 MLOAD PUSH2 0x46BD DUP2 PUSH2 0x4C9A JUMP JUMPDEST PUSH1 0x20 SWAP4 SWAP1 SWAP4 ADD MLOAD SWAP3 SWAP5 SWAP3 SWAP4 POP POP POP JUMP JUMPDEST PUSH1 0x0 DUP1 PUSH1 0x40 DUP4 DUP6 SUB SLT ISZERO PUSH2 0x46DF JUMPI DUP2 DUP3 REVERT JUMPDEST DUP3 MLOAD PUSH2 0x46EA DUP2 PUSH2 0x4C9A JUMP JUMPDEST PUSH1 0x20 DUP5 ADD MLOAD SWAP1 SWAP3 POP PUSH1 0x1 PUSH1 0x1 PUSH1 0x40 SHL SUB DUP2 GT ISZERO PUSH2 0x4705 JUMPI DUP2 DUP3 REVERT JUMPDEST PUSH2 0x4711 DUP6 DUP3 DUP7 ADD PUSH2 0x40A1 JUMP JUMPDEST SWAP2 POP POP SWAP3 POP SWAP3 SWAP1 POP JUMP JUMPDEST PUSH1 0x0 PUSH1 0x20 DUP3 DUP5 SUB SLT ISZERO PUSH2 0x472C JUMPI DUP1 DUP2 REVERT JUMPDEST PUSH2 0x14D1 DUP4 DUP4 PUSH2 0x4186 JUMP JUMPDEST PUSH1 0x0 PUSH1 0x20 DUP3 DUP5 SUB SLT ISZERO PUSH2 0x4747 JUMPI DUP1 DUP2 REVERT JUMPDEST POP MLOAD SWAP2 SWAP1 POP JUMP JUMPDEST PUSH1 0x0 DUP1 PUSH1 0x0 PUSH1 0x60 DUP5 DUP7 SUB SLT ISZERO PUSH2 0x4762 JUMPI DUP1 DUP2 REVERT JUMPDEST DUP4 CALLDATALOAD PUSH1 0x1 PUSH1 0x1 PUSH1 0x40 SHL SUB DUP1 DUP3 GT ISZERO PUSH2 0x4778 JUMPI DUP3 DUP4 REVERT JUMPDEST DUP2 DUP7 ADD SWAP2 POP PUSH2 0x120 DUP1 DUP4 DUP10 SUB SLT ISZERO PUSH2 0x478E JUMPI DUP4 DUP5 REVERT JUMPDEST PUSH2 0x4797 DUP2 PUSH2 0x4C28 JUMP JUMPDEST SWAP1 POP PUSH2 0x47A3 DUP9 DUP5 PUSH2 0x4177 JUMP JUMPDEST DUP2 MSTORE PUSH2 0x47B2 DUP9 PUSH1 0x20 DUP6 ADD PUSH2 0x4096 JUMP JUMPDEST PUSH1 0x20 DUP3 ADD MSTORE PUSH2 0x47C4 DUP9 PUSH1 0x40 DUP6 ADD PUSH2 0x4096 JUMP JUMPDEST PUSH1 0x40 DUP3 ADD MSTORE PUSH1 0x60 DUP4 ADD CALLDATALOAD PUSH1 0x60 DUP3 ADD MSTORE PUSH1 0x80 DUP4 ADD CALLDATALOAD PUSH1 0x80 DUP3 ADD MSTORE PUSH1 0xA0 DUP4 ADD CALLDATALOAD PUSH1 0xA0 DUP3 ADD MSTORE PUSH2 0x47F4 DUP9 PUSH1 0xC0 DUP6 ADD PUSH2 0x4096 JUMP JUMPDEST PUSH1 0xC0 DUP3 ADD MSTORE PUSH2 0x4806 DUP9 PUSH1 0xE0 DUP6 ADD PUSH2 0x4096 JUMP JUMPDEST PUSH1 0xE0 DUP3 ADD MSTORE PUSH2 0x100 DUP1 DUP5 ADD CALLDATALOAD DUP4 DUP2 GT ISZERO PUSH2 0x481E JUMPI DUP6 DUP7 REVERT JUMPDEST PUSH2 0x482A DUP11 DUP3 DUP8 ADD PUSH2 0x410F JUMP JUMPDEST SWAP2 DUP4 ADD SWAP2 SWAP1 SWAP2 MSTORE POP SWAP8 PUSH1 0x20 DUP8 ADD CALLDATALOAD SWAP8 POP PUSH1 0x40 SWAP1 SWAP7 ADD CALLDATALOAD SWAP6 SWAP5 POP POP POP POP POP JUMP JUMPDEST PUSH1 0x0 PUSH1 0x20 DUP3 DUP5 SUB SLT ISZERO PUSH2 0x485A JUMPI DUP1 DUP2 REVERT JUMPDEST POP CALLDATALOAD SWAP2 SWAP1 POP JUMP JUMPDEST PUSH1 0x0 DUP1 PUSH1 0x40 DUP4 DUP6 SUB SLT ISZERO PUSH2 0x4873 JUMPI DUP2 DUP3 REVERT JUMPDEST POP POP DUP1 CALLDATALOAD SWAP3 PUSH1 0x20 SWAP1 SWAP2 ADD CALLDATALOAD SWAP2 POP JUMP JUMPDEST PUSH1 0x0 DUP1 PUSH1 0x0 PUSH1 0x60 DUP5 DUP7 SUB SLT ISZERO PUSH2 0x4896 JUMPI DUP1 DUP2 REVERT JUMPDEST DUP4 CALLDATALOAD SWAP3 POP PUSH1 0x20 DUP5 ADD CALLDATALOAD SWAP2 POP PUSH1 0x40 DUP5 ADD CALLDATALOAD PUSH2 0x48AF DUP2 PUSH2 0x4C8C JUMP JUMPDEST DUP1 SWAP2 POP POP SWAP3 POP SWAP3 POP SWAP3 JUMP JUMPDEST PUSH1 0x0 DUP2 MLOAD DUP1 DUP5 MSTORE PUSH1 0x20 DUP1 DUP6 ADD SWAP5 POP DUP1 DUP5 ADD DUP4 JUMPDEST DUP4 DUP2 LT ISZERO PUSH2 0x48E9 JUMPI DUP2 MLOAD DUP8 MSTORE SWAP6 DUP3 ADD SWAP6 SWAP1 DUP3 ADD SWAP1 PUSH1 0x1 ADD PUSH2 0x48CD JUMP JUMPDEST POP SWAP5 SWAP6 SWAP5 POP POP POP POP POP JUMP JUMPDEST SWAP2 DUP3 MSTORE PUSH1 0x1 PUSH1 0x1 PUSH1 0xE0 SHL SUB NOT AND PUSH1 0x20 DUP3 ADD MSTORE PUSH1 0x24 ADD SWAP1 JUMP JUMPDEST PUSH1 0x0 DUP3 DUP5 DUP4 CALLDATACOPY SWAP2 ADD SWAP1 DUP2 MSTORE SWAP2 SWAP1 POP JUMP JUMPDEST PUSH2 0x1901 PUSH1 0xF0 SHL DUP2 MSTORE PUSH1 0x2 DUP2 ADD SWAP3 SWAP1 SWAP3 MSTORE PUSH1 0x22 DUP3 ADD MSTORE PUSH1 0x42 ADD SWAP1 JUMP JUMPDEST PUSH1 0x1 PUSH1 0x1 PUSH1 0xA0 SHL SUB SWAP2 SWAP1 SWAP2 AND DUP2 MSTORE PUSH1 0x20 ADD SWAP1 JUMP JUMPDEST PUSH1 0x20 DUP1 DUP3 MSTORE DUP3 MLOAD DUP3 DUP3 ADD DUP2 SWAP1 MSTORE PUSH1 0x0 SWAP2 SWAP1 DUP5 DUP3 ADD SWAP1 PUSH1 0x40 DUP6 ADD SWAP1 DUP5 JUMPDEST DUP2 DUP2 LT ISZERO PUSH2 0x4983 JUMPI DUP4 MLOAD DUP4 MSTORE SWAP3 DUP5 ADD SWAP3 SWAP2 DUP5 ADD SWAP2 PUSH1 0x1 ADD PUSH2 0x4967 JUMP JUMPDEST POP SWAP1 SWAP7 SWAP6 POP POP POP POP POP POP JUMP JUMPDEST PUSH1 0x0 PUSH1 0x20 DUP3 MSTORE PUSH2 0x14D1 PUSH1 0x20 DUP4 ADD DUP5 PUSH2 0x48BA JUMP JUMPDEST PUSH1 0x0 PUSH1 0x40 DUP3 MSTORE PUSH2 0x49B5 PUSH1 0x40 DUP4 ADD DUP6 PUSH2 0x48BA JUMP JUMPDEST DUP3 DUP2 SUB PUSH1 0x20 DUP5 ADD MSTORE PUSH2 0x2BDF DUP2 DUP6 PUSH2 0x48BA JUMP JUMPDEST SWAP1 ISZERO ISZERO DUP2 MSTORE PUSH1 0x20 ADD SWAP1 JUMP JUMPDEST SWAP3 ISZERO ISZERO DUP4 MSTORE PUSH1 0x20 DUP4 ADD SWAP2 SWAP1 SWAP2 MSTORE PUSH1 0x40 DUP3 ADD MSTORE PUSH1 0x60 ADD SWAP1 JUMP JUMPDEST SWAP1 DUP2 MSTORE PUSH1 0x20 ADD SWAP1 JUMP JUMPDEST SWAP3 DUP4 MSTORE PUSH1 0x1 PUSH1 0x1 PUSH1 0xA0 SHL SUB SWAP2 DUP3 AND PUSH1 0x20 DUP5 ADD MSTORE AND PUSH1 0x40 DUP3 ADD MSTORE PUSH1 0x60 ADD SWAP1 JUMP JUMPDEST SWAP6 DUP7 MSTORE PUSH1 0x1 PUSH1 0x1 PUSH1 0xA0 SHL SUB SWAP5 DUP6 AND PUSH1 0x20 DUP8 ADD MSTORE SWAP3 SWAP1 SWAP4 AND PUSH1 0x40 DUP6 ADD MSTORE PUSH1 0x60 DUP5 ADD MSTORE PUSH1 0x80 DUP4 ADD SWAP2 SWAP1 SWAP2 MSTORE PUSH1 0xA0 DUP3 ADD MSTORE PUSH1 0xC0 ADD SWAP1 JUMP JUMPDEST SWAP5 DUP6 MSTORE PUSH1 0x20 DUP6 ADD SWAP4 SWAP1 SWAP4 MSTORE PUSH1 0x40 DUP5 ADD SWAP2 SWAP1 SWAP2 MSTORE PUSH1 0x60 DUP4 ADD MSTORE PUSH1 0x1 PUSH1 0x1 PUSH1 0xA0 SHL SUB AND PUSH1 0x80 DUP3 ADD MSTORE PUSH1 0xA0 ADD SWAP1 JUMP JUMPDEST SWAP4 DUP5 MSTORE PUSH1 0xFF SWAP3 SWAP1 SWAP3 AND PUSH1 0x20 DUP5 ADD MSTORE PUSH1 0x40 DUP4 ADD MSTORE PUSH1 0x60 DUP3 ADD MSTORE PUSH1 0x80 ADD SWAP1 JUMP JUMPDEST SWAP7 DUP8 MSTORE PUSH1 0x20 DUP8 ADD SWAP6 SWAP1 SWAP6 MSTORE PUSH1 0x40 DUP7 ADD SWAP4 SWAP1 SWAP4 MSTORE PUSH1 0x60 DUP6 ADD SWAP2 SWAP1 SWAP2 MSTORE PUSH1 0x80 DUP5 ADD MSTORE PUSH1 0xA0 DUP4 ADD MSTORE PUSH1 0xC0 DUP3 ADD MSTORE PUSH1 0xE0 ADD SWAP1 JUMP JUMPDEST SWAP6 DUP7 MSTORE PUSH1 0x20 DUP7 ADD SWAP5 SWAP1 SWAP5 MSTORE PUSH1 0x40 DUP6 ADD SWAP3 SWAP1 SWAP3 MSTORE PUSH1 0x60 DUP5 ADD MSTORE ISZERO ISZERO PUSH1 0x80 DUP4 ADD MSTORE PUSH1 0xA0 DUP3 ADD MSTORE PUSH1 0xC0 ADD SWAP1 JUMP JUMPDEST DUP4 DUP2 MSTORE PUSH1 0x60 DUP2 ADD PUSH2 0x4AFA DUP5 PUSH2 0x4C6D JUMP JUMPDEST PUSH1 0x20 DUP3 ADD SWAP4 SWAP1 SWAP4 MSTORE PUSH1 0x40 ADD MSTORE SWAP2 SWAP1 POP JUMP JUMPDEST DUP5 DUP2 MSTORE PUSH1 0x80 DUP2 ADD PUSH2 0x4B1B DUP6 PUSH2 0x4C6D JUMP JUMPDEST DUP5 PUSH1 0x20 DUP4 ADD MSTORE DUP4 PUSH1 0x40 DUP4 ADD MSTORE DUP3 PUSH1 0x60 DUP4 ADD MSTORE SWAP6 SWAP5 POP POP POP POP POP JUMP JUMPDEST DUP4 DUP2 MSTORE DUP3 MLOAD PUSH1 0xA0 DUP3 ADD SWAP1 PUSH2 0x4B49 DUP2 PUSH2 0x4C6D JUMP JUMPDEST DUP1 PUSH1 0x20 DUP5 ADD MSTORE POP PUSH1 0x20 DUP5 ADD MLOAD PUSH1 0x40 DUP4 ADD MSTORE PUSH1 0x40 DUP5 ADD MLOAD PUSH1 0x60 DUP4 ADD MSTORE DUP3 PUSH1 0x80 DUP4 ADD MSTORE SWAP5 SWAP4 POP POP POP POP JUMP JUMPDEST PUSH1 0x0 PUSH1 0x20 DUP1 DUP4 MSTORE DUP4 MLOAD DUP1 DUP3 DUP6 ADD MSTORE DUP3 JUMPDEST DUP2 DUP2 LT ISZERO PUSH2 0x4B9E JUMPI DUP6 DUP2 ADD DUP4 ADD MLOAD DUP6 DUP3 ADD PUSH1 0x40 ADD MSTORE DUP3 ADD PUSH2 0x4B82 JUMP JUMPDEST DUP2 DUP2 GT ISZERO PUSH2 0x4BAF JUMPI DUP4 PUSH1 0x40 DUP4 DUP8 ADD ADD MSTORE JUMPDEST POP PUSH1 0x1F ADD PUSH1 0x1F NOT AND SWAP3 SWAP1 SWAP3 ADD PUSH1 0x40 ADD SWAP4 SWAP3 POP POP POP JUMP JUMPDEST PUSH1 0x20 DUP1 DUP3 MSTORE PUSH1 0xC SWAP1 DUP3 ADD MSTORE PUSH12 0x17DCDC5C9D08119052531151 PUSH1 0xA2 SHL PUSH1 0x40 DUP3 ADD MSTORE PUSH1 0x60 ADD SWAP1 JUMP JUMPDEST PUSH1 0x0 DUP4 DUP3 MSTORE PUSH1 0x40 PUSH1 0x20 DUP4 ADD MSTORE PUSH2 0x1FAC PUSH1 0x40 DUP4 ADD DUP5 PUSH2 0x48BA JUMP JUMPDEST SWAP3 DUP4 MSTORE PUSH1 0x20 DUP4 ADD SWAP2 SWAP1 SWAP2 MSTORE PUSH1 0x40 DUP3 ADD MSTORE PUSH1 0x60 ADD SWAP1 JUMP JUMPDEST PUSH1 0xFF SWAP2 SWAP1 SWAP2 AND DUP2 MSTORE PUSH1 0x20 ADD SWAP1 JUMP JUMPDEST PUSH1 0x40 MLOAD DUP2 DUP2 ADD PUSH1 0x1 PUSH1 0x1 PUSH1 0x40 SHL SUB DUP2 GT DUP3 DUP3 LT OR ISZERO PUSH2 0x4C46 JUMPI PUSH1 0x0 DUP1 REVERT JUMPDEST PUSH1 0x40 MSTORE SWAP2 SWAP1 POP JUMP JUMPDEST PUSH1 0x0 PUSH1 0x1 PUSH1 0x1 PUSH1 0x40 SHL SUB DUP3 GT ISZERO PUSH2 0x4C63 JUMPI DUP1 DUP2 REVERT JUMPDEST POP PUSH1 0x20 SWAP1 DUP2 MUL ADD SWAP1 JUMP JUMPDEST PUSH1 0x3 DUP2 LT PUSH2 0x66C JUMPI INVALID JUMPDEST PUSH1 0x1 PUSH1 0x1 PUSH1 0xA0 SHL SUB DUP2 AND DUP2 EQ PUSH2 0x66C JUMPI PUSH1 0x0 DUP1 REVERT JUMPDEST DUP1 ISZERO ISZERO DUP2 EQ PUSH2 0x66C JUMPI PUSH1 0x0 DUP1 REVERT JUMPDEST PUSH1 0x4 DUP2 LT PUSH2 0x66C JUMPI PUSH1 0x0 DUP1 REVERT INVALID LOG2 PUSH5 0x6970667358 0x22 SLT KECCAK256 0xAA 0xC7 PUSH4 0xE46C6DED PUSH32 0x138EF24A7BCA19CA00123477927B5C41D802A4885764BC8064736F6C63430007 ADD STOP CALLER ","sha1":"d44bf9429d1f7a44b3da0a3994eb230e1e2d3520","source":"// SPDX-License-Identifier: GPL-3.0-or-later\n// This program is free software: you can redistribute it and/or modify\n// it under the terms of the GNU General Public License as published by\n// the Free Software Foundation, either version 3 of the License, or\n// (at your option) any later version.\n\n// This program is distributed in the hope that it will be useful,\n// but WITHOUT ANY WARRANTY; without even the implied warranty of\n// MERCHANTABILITY or FITNESS FOR A PARTICULAR PURPOSE.  See the\n// GNU General Public License for more details.\n\n// You should have received a copy of the GNU General Public License\n// along with this program.  If not, see <http://www.gnu.org/licenses/>.\n\npragma solidity ^0.7.0;\npragma experimental ABIEncoderV2;\n\nimport \"@balancer-labs/v2-solidity-utils/contracts/math/FixedPoint.sol\";\n\nimport \"@balancer-labs/v2-pool-weighted/contracts/WeightedPoolUserDataHelpers.sol\";\nimport \"@balancer-labs/v2-pool-weighted/contracts/WeightedPool2TokensMiscData.sol\";\n\nimport \"../../libraries/GyroConfigKeys.sol\";\nimport \"../../interfaces/IGyroConfig.sol\";\nimport \"../../libraries/GyroPoolMath.sol\";\n\nimport \"./ExtensibleWeightedPool2Tokens.sol\";\nimport \"./Gyro2PoolErrors.sol\";\nimport \"./GyroTwoMath.sol\";\nimport \"./GyroTwoOracleMath.sol\";\n\ncontract GyroTwoPool is ExtensibleWeightedPool2Tokens, GyroTwoOracleMath {\n    using FixedPoint for uint256;\n    using WeightedPoolUserDataHelpers for bytes;\n    using WeightedPool2TokensMiscData for bytes32;\n\n    uint256 private immutable _sqrtAlpha;\n    uint256 private immutable _sqrtBeta;\n\n    IGyroConfig public gyroConfig;\n\n    struct GyroParams {\n        NewPoolParams baseParams;\n        uint256 sqrtAlpha; // A: Should already be upscaled\n        uint256 sqrtBeta; // A: Should already be upscaled. Could be passed as an array[](2)\n    }\n\n    constructor(GyroParams memory params, address configAddress) ExtensibleWeightedPool2Tokens(params.baseParams) {\n        _require(params.sqrtAlpha < params.sqrtBeta, Gyro2PoolErrors.SQRT_PARAMS_WRONG);\n        _sqrtAlpha = params.sqrtAlpha;\n        _sqrtBeta = params.sqrtBeta;\n\n        gyroConfig = IGyroConfig(configAddress);\n    }\n\n    // Returns sqrtAlpha and sqrtBeta (square roots of lower and upper price bounds of p_x respectively)\n\n    function getSqrtParameters() external view returns (uint256[] memory) {\n        return _sqrtParameters();\n    }\n\n    function _sqrtParameters() internal view virtual returns (uint256[] memory) {\n        uint256[] memory virtualParameters = new uint256[](2);\n        virtualParameters[0] = _sqrtParameters(true);\n        virtualParameters[1] = _sqrtParameters(false);\n        return virtualParameters;\n    }\n\n    function _sqrtParameters(bool parameter0) internal view virtual returns (uint256) {\n        return parameter0 ? _sqrtAlpha : _sqrtBeta;\n    }\n\n    /// @dev Returns virtual offsets a and b for reserves x and y respectively, as in (x+a)*(y+b)=L^2\n    function getVirtualParameters() external view returns (uint256[] memory virtualParams) {\n        (, uint256[] memory balances, ) = getVault().getPoolTokens(getPoolId());\n        // _calculateCurrentValues() is defined in terms of an in/out pair, but we just map this to the 0/1 (x/y) pair.\n        (, virtualParams[0], virtualParams[1]) = _calculateCurrentValues(balances[0], balances[1], true);\n    }\n\n    function _getVirtualParameters(uint256[] memory sqrtParams, uint256 invariant) internal view virtual returns (uint256[] memory) {\n        uint256[] memory virtualParameters = new uint256[](2);\n\n        virtualParameters[0] = _virtualParameters(true, sqrtParams[1], invariant);\n        virtualParameters[1] = _virtualParameters(false, sqrtParams[0], invariant);\n        return virtualParameters;\n    }\n\n    function _virtualParameters(\n        bool parameter0,\n        uint256 sqrtParam,\n        uint256 invariant\n    ) internal view virtual returns (uint256) {\n        return\n            parameter0\n                ? (GyroTwoMath._calculateVirtualParameter0(invariant, sqrtParam))\n                : (GyroTwoMath._calculateVirtualParameter1(invariant, sqrtParam));\n    }\n\n    /**\n     * @dev Returns the current value of the invariant.\n     */\n    function getInvariant() public view override returns (uint256) {\n        (, uint256[] memory balances, ) = getVault().getPoolTokens(getPoolId());\n        uint256[] memory sqrtParams = _sqrtParameters();\n\n        // Since the Pool hooks always work with upscaled balances, we manually\n        // upscale here for consistency\n        _upscaleArray(balances);\n\n        return GyroTwoMath._calculateInvariant(balances, sqrtParams[0], sqrtParams[1]);\n    }\n\n    // Swap Hooks\n\n    function onSwap(\n        SwapRequest memory request,\n        uint256 balanceTokenIn,\n        uint256 balanceTokenOut\n    ) public virtual override whenNotPaused onlyVault(request.poolId) returns (uint256) {\n        bool tokenInIsToken0 = request.tokenIn == _token0;\n\n        uint256 scalingFactorTokenIn = _scalingFactor(tokenInIsToken0);\n        uint256 scalingFactorTokenOut = _scalingFactor(!tokenInIsToken0);\n\n        // All token amounts are upscaled.\n        balanceTokenIn = _upscale(balanceTokenIn, scalingFactorTokenIn);\n        balanceTokenOut = _upscale(balanceTokenOut, scalingFactorTokenOut);\n\n        // All the calculations in one function to avoid Error Stack Too Deep\n        (uint256 currentInvariant, uint256 virtualParamIn, uint256 virtualParamOut) = _calculateCurrentValues(\n            balanceTokenIn,\n            balanceTokenOut,\n            tokenInIsToken0\n        );\n\n        // Update price oracle with the pre-swap balances\n        _updateOracle(\n            request.lastChangeBlock,\n            tokenInIsToken0 ? balanceTokenIn : balanceTokenOut,\n            tokenInIsToken0 ? balanceTokenOut : balanceTokenIn,\n            tokenInIsToken0 ? virtualParamIn : virtualParamOut,\n            tokenInIsToken0 ? virtualParamOut : virtualParamIn\n        );\n\n        if (request.kind == IVault.SwapKind.GIVEN_IN) {\n            // Fees are subtracted before scaling, to reduce the complexity of the rounding direction analysis.\n            // This is amount - fee amount, so we round up (favoring a higher fee amount).\n            uint256 feeAmount = request.amount.mulUp(getSwapFeePercentage());\n            // TODO check this call: why do we need to upscale? Should we downscale??\n            request.amount = _upscale(request.amount.sub(feeAmount), scalingFactorTokenIn);\n\n            uint256 amountOut = _onSwapGivenIn(request, balanceTokenIn, balanceTokenOut, virtualParamIn, virtualParamOut, currentInvariant);\n\n            // amountOut tokens are exiting the Pool, so we round down.\n            return _downscaleDown(amountOut, scalingFactorTokenOut);\n        } else {\n            request.amount = _upscale(request.amount, scalingFactorTokenOut);\n\n            uint256 amountIn = _onSwapGivenOut(request, balanceTokenIn, balanceTokenOut, virtualParamIn, virtualParamOut, currentInvariant);\n\n            // amountIn tokens are entering the Pool, so we round up.\n            amountIn = _downscaleUp(amountIn, scalingFactorTokenIn);\n\n            // Fees are added after scaling happens, to reduce the complexity of the rounding direction analysis.\n            // This is amount + fee amount, so we round up (favoring a higher fee amount).\n            return amountIn.divUp(getSwapFeePercentage().complement());\n        }\n    }\n\n    function _onSwapGivenIn(\n        SwapRequest memory swapRequest,\n        uint256 currentBalanceTokenIn,\n        uint256 currentBalanceTokenOut,\n        uint256 virtualParamIn,\n        uint256 virtualParamOut,\n        uint256 // not used but avoids collision with inherited private fn\n    ) private pure returns (uint256) {\n        // Swaps are disabled while the contract is paused.\n        return GyroTwoMath._calcOutGivenIn(currentBalanceTokenIn, currentBalanceTokenOut, swapRequest.amount, virtualParamIn, virtualParamOut);\n    }\n\n    function _onSwapGivenOut(\n        SwapRequest memory swapRequest,\n        uint256 currentBalanceTokenIn,\n        uint256 currentBalanceTokenOut,\n        uint256 virtualParamIn,\n        uint256 virtualParamOut,\n        uint256 // not used but avoids collision with inherited private fn\n    ) private pure returns (uint256) {\n        // Swaps are disabled while the contract is paused.\n        return GyroTwoMath._calcInGivenOut(currentBalanceTokenIn, currentBalanceTokenOut, swapRequest.amount, virtualParamIn, virtualParamOut);\n    }\n\n    function calculateCurrentValues(\n        uint256 balanceTokenIn,\n        uint256 balanceTokenOut,\n        bool tokenInIsToken0\n    )\n        public\n        view\n        returns (\n            uint256 currentInvariant,\n            uint256 virtualParamIn,\n            uint256 virtualParamOut\n        )\n    {\n        return _calculateCurrentValues(balanceTokenIn, balanceTokenOut, tokenInIsToken0);\n    }\n\n    function _calculateCurrentValues(\n        uint256 balanceTokenIn,\n        uint256 balanceTokenOut,\n        bool tokenInIsToken0\n    )\n        internal\n        view\n        returns (\n            uint256 currentInvariant,\n            uint256 virtualParamIn,\n            uint256 virtualParamOut\n        )\n    {\n        // if we have more tokens we might need to get the balances from the Vault\n        uint256[] memory balances = new uint256[](2);\n        balances[0] = tokenInIsToken0 ? balanceTokenIn : balanceTokenOut;\n        balances[1] = tokenInIsToken0 ? balanceTokenOut : balanceTokenIn;\n\n        uint256[] memory sqrtParams = _sqrtParameters();\n\n        currentInvariant = GyroTwoMath._calculateInvariant(balances, sqrtParams[0], sqrtParams[1]);\n\n        uint256[] memory virtualParam = new uint256[](2);\n        virtualParam = _getVirtualParameters(sqrtParams, currentInvariant);\n\n        virtualParamIn = tokenInIsToken0 ? virtualParam[0] : virtualParam[1];\n        virtualParamOut = tokenInIsToken0 ? virtualParam[1] : virtualParam[0];\n    }\n\n    //Note: is public visibility ok for the following function?\n\n    /**\n     * @dev Called when the Pool is joined for the first time; that is, when the BPT total supply is zero.\n     *\n     * Returns the amount of BPT to mint, and the token amounts the Pool will receive in return.\n     *\n     * Minted BPT will be sent to `recipient`, except for _MINIMUM_BPT, which will be deducted from this amount and sent\n     * to the zero address instead. This will cause that BPT to remain forever locked there, preventing total BTP from\n     * ever dropping below that value, and ensuring `_onInitializePool` can only be called once in the entire Pool's\n     * lifetime.\n     *\n     * The tokens granted to the Pool will be transferred from `sender`. These amounts are considered upscaled and will\n     * be downscaled (rounding up) before being returned to the Vault.\n     */\n    function _onInitializePool(\n        bytes32,\n        address,\n        address,\n        bytes memory userData\n    ) internal override returns (uint256, uint256[] memory) {\n        BaseWeightedPool.JoinKind kind = userData.joinKind();\n        _require(kind == BaseWeightedPool.JoinKind.INIT, Errors.UNINITIALIZED);\n\n        uint256[] memory amountsIn = userData.initialAmountsIn();\n        InputHelpers.ensureInputLengthMatch(amountsIn.length, 2);\n        _upscaleArray(amountsIn);\n\n        uint256[] memory sqrtParams = _sqrtParameters();\n\n        uint256 invariantAfterJoin = GyroTwoMath._calculateInvariant(amountsIn, sqrtParams[0], sqrtParams[1]);\n\n        // Set the initial BPT to the value of the invariant times the number of tokens. This makes BPT supply more\n        // consistent in Pools with similar compositions but different number of tokens.\n\n        uint256 bptAmountOut = Math.mul(invariantAfterJoin, 2);\n\n        _lastInvariant = invariantAfterJoin;\n\n        return (bptAmountOut, amountsIn);\n    }\n\n    /**\n     * @dev Called whenever the Pool is joined after the first initialization join (see `_onInitializePool`).\n     *\n     * Returns the amount of BPT to mint, the token amounts that the Pool will receive in return, and the number of\n     * tokens to pay in protocol swap fees.\n     *\n     * Implementations of this function might choose to mutate the `balances` array to save gas (e.g. when\n     * performing intermediate calculations, such as subtraction of due protocol fees). This can be done safely.\n     *\n     * Minted BPT will be sent to `recipient`.\n     *\n     * The tokens granted to the Pool will be transferred from `sender`. These amounts are considered upscaled and will\n     * be downscaled (rounding up) before being returned to the Vault.\n     *\n     * Due protocol swap fees will be taken from the Pool's balance in the Vault (see `IBasePool.onJoinPool`). These\n     * amounts are considered upscaled and will be downscaled (rounding down) before being returned to the Vault.\n     *\n     * protocolSwapFeePercentage argument is intentionally unused as protocol fees are handled in a different way\n     *\n     * Responsibility for updating the oracle has been moved from `onJoinPool()` (without the underscore) to this function. That is because both this function and `_updateOracle()` need access to the invariant and this way we can share the computation.\n     */\n    function _onJoinPool(\n        bytes32,\n        address,\n        address,\n        uint256[] memory balances,\n        uint256 lastChangeBlock,\n        uint256, //protocolSwapFeePercentage,\n        bytes memory userData\n    )\n        internal\n        override\n        returns (\n            uint256,\n            uint256[] memory,\n            uint256[] memory\n        )\n    {\n        // Due protocol swap fee amounts are computed by measuring the growth of the invariant between the previous join\n        // or exit event and now - the invariant's growth is due exclusively to swap fees. This avoids spending gas\n        // computing them on each individual swap\n\n        uint256[] memory sqrtParams = _sqrtParameters();\n\n        // Due protocol swap fee amounts are computed by measuring the growth of the invariant between the previous\n        // join or exit event and now - the invariant's growth is due exclusively to swap fees. This avoids\n        // spending gas calculating the fees on each individual swap.\n        uint256 invariantBeforeAction = GyroTwoMath._calculateInvariant(balances, sqrtParams[0], sqrtParams[1]);\n        uint256[] memory virtualParam = _getVirtualParameters(sqrtParams, invariantBeforeAction);\n\n        // Update price oracle with pre-join balances\n        _updateOracle(lastChangeBlock, balances[0], balances[1], virtualParam[0], virtualParam[1]);\n\n        _distributeFees(invariantBeforeAction);\n\n        (uint256 bptAmountOut, uint256[] memory amountsIn) = _doJoin(balances, userData);\n\n        // Since we pay fees in BPT, they have not changed the invariant and 'invariantBeforeAction' is still consistent with\n        // 'balances'. Therefore, we can use a simplified method to update the invariant that does not require a full\n        // re-computation.\n        // Note: Should this be changed in the future, we also need to reduce the invariant proportionally by the total\n        // protocol fee factor.\n        _lastInvariant = GyroPoolMath.liquidityInvariantUpdate(invariantBeforeAction, bptAmountOut, totalSupply(), true);\n\n        // returns a new uint256[](2) b/c Balancer vault is expecting a fee array, but fees paid in BPT instead\n        return (bptAmountOut, amountsIn, new uint256[](2));\n    }\n\n    function _doJoin(uint256[] memory balances, bytes memory userData) internal view returns (uint256 bptAmountOut, uint256[] memory amountsIn) {\n        BaseWeightedPool.JoinKind kind = userData.joinKind();\n\n        // We do NOT currently support unbalanced update, i.e., EXACT_TOKENS_IN_FOR_BPT_OUT or TOKEN_IN_FOR_EXACT_BPT_OUT\n        if (kind == BaseWeightedPool.JoinKind.ALL_TOKENS_IN_FOR_EXACT_BPT_OUT) {\n            (bptAmountOut, amountsIn) = _joinAllTokensInForExactBPTOut(balances, userData);\n        } else {\n            _revert(Errors.UNHANDLED_JOIN_KIND);\n        }\n    }\n\n    function _joinAllTokensInForExactBPTOut(uint256[] memory balances, bytes memory userData)\n        internal\n        view\n        override\n        returns (uint256, uint256[] memory)\n    {\n        uint256 bptAmountOut = userData.allTokensInForExactBptOut();\n        // Note that there is no maximum amountsIn parameter: this is handled by `IVault.joinPool`.\n\n        uint256[] memory amountsIn = GyroPoolMath._calcAllTokensInGivenExactBptOut(balances, bptAmountOut, totalSupply());\n\n        return (bptAmountOut, amountsIn);\n    }\n\n    /**\n     * @dev Called whenever the Pool is exited.\n     *\n     * Returns the amount of BPT to burn, the token amounts for each Pool token that the Pool will grant in return, and\n     * the number of tokens to pay in protocol swap fees.\n     *\n     * Implementations of this function might choose to mutate the `balances` array to save gas (e.g. when\n     * performing intermediate calculations, such as subtraction of due protocol fees). This can be done safely.\n     *\n     * BPT will be burnt from `sender`.\n     *\n     * The Pool will grant tokens to `recipient`. These amounts are considered upscaled and will be downscaled\n     * (rounding down) before being returned to the Vault.\n     *\n     * Due protocol swap fees will be taken from the Pool's balance in the Vault (see `IBasePool.onExitPool`). These\n     * amounts are considered upscaled and will be downscaled (rounding down) before being returned to the Vault.\n     *\n     * protocolSwapFeePercentage argument is intentionally unused as protocol fees are handled in a different way\n     */\n    function _onExitPool(\n        bytes32,\n        address,\n        address,\n        uint256[] memory balances,\n        uint256 lastChangeBlock,\n        uint256, // protocolSwapFeePercentage,\n        bytes memory userData\n    )\n        internal\n        override\n        returns (\n            uint256 bptAmountIn,\n            uint256[] memory amountsOut,\n            uint256[] memory dueProtocolFeeAmounts\n        )\n    {\n        // Exits are not completely disabled while the contract is paused: proportional exits (exact BPT in for tokens\n        // out) remain functional.\n\n        uint256[] memory sqrtParams = _sqrtParameters();\n\n        // Note: If the contract is paused, swap protocol fee amounts are not charged and the oracle is not updated\n        // to avoid extra calculations and reduce the potential for errors.\n        if (_isNotPaused()) {\n            // Due protocol swap fee amounts are computed by measuring the growth of the invariant between the previous\n            // join or exit event and now - the invariant's growth is due exclusively to swap fees. This avoids\n            // spending gas calculating the fees on each individual swap.\n            uint256 invariantBeforeAction = GyroTwoMath._calculateInvariant(balances, sqrtParams[0], sqrtParams[1]);\n            uint256[] memory virtualParam = _getVirtualParameters(sqrtParams, invariantBeforeAction);\n\n            // Update price oracle with the pre-exit balances\n            _updateOracle(lastChangeBlock, balances[0], balances[1], virtualParam[0], virtualParam[1]);\n\n            _distributeFees(invariantBeforeAction);\n\n            (bptAmountIn, amountsOut) = _doExit(balances, userData);\n\n            // Since we pay fees in BPT, they have not changed the invariant and 'invariantBeforeAction' is still consistent with\n            // 'balances'. Therefore, we can use a simplified method to update the invariant that does not require a full\n            // re-computation.\n            // Note: Should this be changed in the future, we also need to reduce the invariant proportionally by the total\n            // protocol fee factor.\n            _lastInvariant = GyroPoolMath.liquidityInvariantUpdate(invariantBeforeAction, bptAmountIn, totalSupply(), false);\n        } else {\n            // Note: If the contract is paused, swap protocol fee amounts are not charged and the oracle is not updated\n            // to avoid extra calculations and reduce the potential for errors.\n            (bptAmountIn, amountsOut) = _doExit(balances, userData);\n\n            // We need to re-calculate the invariant with the updated balances from scratch in this case.\n            _mutateAmounts(balances, amountsOut, FixedPoint.sub);\n            _lastInvariant = GyroTwoMath._calculateInvariant(balances, sqrtParams[0], sqrtParams[1]);\n        }\n\n        // returns a new uint256[](2) b/c Balancer vault is expecting a fee array, but fees paid in BPT instead\n        return (bptAmountIn, amountsOut, new uint256[](2));\n    }\n\n    function _doExit(uint256[] memory balances, bytes memory userData) internal view returns (uint256 bptAmountIn, uint256[] memory amountsOut) {\n        BaseWeightedPool.ExitKind kind = userData.exitKind();\n\n        // We do NOT support unbalanced exit at the moment, i.e., EXACT_BPT_IN_FOR_ONE_TOKEN_OUT or\n        // BPT_IN_FOR_EXACT_TOKENS_OUT.\n        if (kind == BaseWeightedPool.ExitKind.EXACT_BPT_IN_FOR_TOKENS_OUT) {\n            (bptAmountIn, amountsOut) = _exitExactBPTInForTokensOut(balances, userData);\n        } else {\n            _revert(Errors.UNHANDLED_EXIT_KIND);\n        }\n    }\n\n    function _exitExactBPTInForTokensOut(uint256[] memory balances, bytes memory userData)\n        internal\n        view\n        override\n        returns (uint256, uint256[] memory)\n    {\n        // This exit function is the only one that is not disabled if the contract is paused: it remains unrestricted\n        // in an attempt to provide users with a mechanism to retrieve their tokens in case of an emergency.\n        // This particular exit function is the only one that remains available because it is the simplest one, and\n        // therefore the one with the lowest likelihood of errors.\n\n        uint256 bptAmountIn = userData.exactBptInForTokensOut();\n        // Note that there is no minimum amountOut parameter: this is handled by `IVault.exitPool`.\n\n        uint256[] memory amountsOut = GyroPoolMath._calcTokensOutGivenExactBptIn(balances, bptAmountIn, totalSupply());\n        return (bptAmountIn, amountsOut);\n    }\n\n    // Helpers\n\n    /**\n     * @dev Computes and distributes fees between the Balancer and the Gyro treasury\n     * The fees are computed and distributed in BPT rather than using the\n     * Balancer regular distribution mechanism which would pay these in underlying\n     */\n\n    function _distributeFees(uint256 invariantBeforeAction) internal {\n        // calculate Protocol fees in BPT\n        // lastInvariant is the invariant logged at the end of the last liquidity update\n        // protocol fees are calculated on swap fees earned between liquidity updates\n        (uint256 gyroFees, uint256 balancerFees, address gyroTreasury, address balTreasury) = _getDueProtocolFeeAmounts(\n            _lastInvariant,\n            invariantBeforeAction\n        );\n\n        // Pay fees in BPT\n        _payFeesBpt(gyroFees, balancerFees, gyroTreasury, balTreasury);\n    }\n\n    /**\n     * @dev this function overrides inherited function to make sure it is never used\n     */\n    function _getDueProtocolFeeAmounts(\n        uint256[] memory, // balances,\n        uint256[] memory, // normalizedWeights,\n        uint256, // previousInvariant,\n        uint256, // currentInvariant,\n        uint256 // protocolSwapFeePercentage\n    ) internal pure override returns (uint256[] memory) {\n        revert(\"Not implemented\");\n    }\n\n    /**\n     * @dev Calculates protocol fee amounts in BPT terms\n     * Overrides an inherited function and some arguments are intentionally not used (balances, normalizedWeights)\n     * protocolSwapFeePercentage is not used b/c we take parameters from GyroConfig instead\n     * Returns dueFees, where dueFees[0] = BPT due to Gyro, and dueFees[1] = BPT due to Balancer\n     */\n    function _getDueProtocolFeeAmounts(uint256 previousInvariant, uint256 currentInvariant)\n        internal\n        view\n        returns (\n            uint256,\n            uint256,\n            address,\n            address\n        )\n    {\n        (uint256 protocolSwapFeePerc, uint256 protocolFeeGyroPortion, address gyroTreasury, address balTreasury) = _getFeesMetadata();\n\n        // Early return if the protocol swap fee percentage is zero, saving gas.\n        if (protocolSwapFeePerc == 0) {\n            return (0, 0, gyroTreasury, balTreasury);\n        }\n\n        // Calculate fees in BPT\n        (uint256 gyroFees, uint256 balancerFees) = GyroPoolMath._calcProtocolFees(\n            previousInvariant,\n            currentInvariant,\n            totalSupply(),\n            protocolSwapFeePerc,\n            protocolFeeGyroPortion\n        );\n\n        return (gyroFees, balancerFees, gyroTreasury, balTreasury);\n    }\n\n    function _payFeesBpt(\n        uint256 gyroFees,\n        uint256 balancerFees,\n        address gyroTreasury,\n        address balTreasury\n    ) internal {\n        // Pay fees in BPT to gyro treasury\n        if (gyroFees > 0) {\n            _mintPoolTokens(gyroTreasury, gyroFees);\n        }\n        // Pay fees in BPT to bal treasury\n        if (balancerFees > 0) {\n            _mintPoolTokens(balTreasury, balancerFees);\n        }\n    }\n\n    function _getFeesMetadata()\n        internal\n        view\n        returns (\n            uint256,\n            uint256,\n            address,\n            address\n        )\n    {\n        return (\n            gyroConfig.getUint(GyroConfigKeys.PROTOCOL_SWAP_FEE_PERC_KEY),\n            gyroConfig.getUint(GyroConfigKeys.PROTOCOL_FEE_GYRO_PORTION_KEY),\n            gyroConfig.getAddress(GyroConfigKeys.GYRO_TREASURY_KEY),\n            gyroConfig.getAddress(GyroConfigKeys.BAL_TREASURY_KEY)\n        );\n    }\n\n    /**\n     * @dev Updates the Price Oracle based on the Pool's current state (balances, BPT supply and invariant). Must be\n     * called on *all* state-changing functions with the balances *before* the state change happens, and with\n     * `lastChangeBlock` as the number of the block in which any of the balances last changed.\n     */\n    function _updateOracle(\n        uint256 lastChangeBlock,\n        uint256 balanceToken0,\n        uint256 balanceToken1,\n        uint256 virtualParam0,\n        uint256 virtualParam1\n    ) internal {\n        bytes32 miscData = _miscData;\n        if (miscData.oracleEnabled() && block.number > lastChangeBlock) {\n            int256 logSpotPrice = GyroTwoOracleMath._calcLogSpotPrice(balanceToken0, virtualParam0, balanceToken1, virtualParam1);\n\n            int256 logBPTPrice = GyroTwoOracleMath._calcLogBPTPrice(\n                balanceToken0,\n                virtualParam0,\n                balanceToken1,\n                virtualParam1,\n                miscData.logTotalSupply()\n            );\n\n            uint256 oracleCurrentIndex = miscData.oracleIndex();\n            uint256 oracleCurrentSampleInitialTimestamp = miscData.oracleSampleCreationTimestamp();\n            uint256 oracleUpdatedIndex = _processPriceData(\n                oracleCurrentSampleInitialTimestamp,\n                oracleCurrentIndex,\n                logSpotPrice,\n                logBPTPrice,\n                miscData.logInvariant()\n            );\n\n            if (oracleCurrentIndex != oracleUpdatedIndex) {\n                // solhint-disable not-rely-on-time\n                miscData = miscData.setOracleIndex(oracleUpdatedIndex);\n                miscData = miscData.setOracleSampleCreationTimestamp(block.timestamp);\n                _miscData = miscData;\n            }\n        }\n    }\n\n    /**\n     * @dev this variant of the function, called from `onJoinPool()` and `onExitPool()`, which we inherit, is a no-op. We instead have moved responsibility for updating the oracle to `_onJoinPool()` and `_onExitPool()` and the above version is called from there.\n     */\n    function _updateOracle(\n        uint256 lastChangeBlock,\n        uint256 balanceToken0,\n        uint256 balanceToken1\n    ) internal override {\n        // Do nothing.\n    }\n}\n","sourcePath":"contracts/cpmmv-2/GyroTwoPool.sol","type":"contract","deployment":{"address":"0xf353Be94205776387c0C8162b424806b00fCa93f","chainid":"137","blockHeight":26860028}}