{"abi":[{"inputs":[{"components":[{"components":[{"internalType":"contract IVault","name":"vault","type":"address"},{"internalType":"string","name":"name","type":"string"},{"internalType":"string","name":"symbol","type":"string"},{"internalType":"contract IERC20","name":"token0","type":"address"},{"internalType":"contract IERC20","name":"token1","type":"address"},{"internalType":"uint256","name":"swapFeePercentage","type":"uint256"},{"internalType":"uint256","name":"pauseWindowDuration","type":"uint256"},{"internalType":"uint256","name":"bufferPeriodDuration","type":"uint256"},{"internalType":"bool","name":"oracleEnabled","type":"bool"},{"internalType":"address","name":"owner","type":"address"}],"internalType":"struct ExtensibleWeightedPool2Tokens.NewPoolParams","name":"baseParams","type":"tuple"},{"internalType":"uint256","name":"sqrtAlpha","type":"uint256"},{"internalType":"uint256","name":"sqrtBeta","type":"uint256"},{"internalType":"address","name":"capManager","type":"address"},{"components":[{"internalType":"bool","name":"capEnabled","type":"bool"},{"internalType":"uint120","name":"perAddressCap","type":"uint120"},{"internalType":"uint128","name":"globalCap","type":"uint128"}],"internalType":"struct ICappedLiquidity.CapParams","name":"capParams","type":"tuple"},{"internalType":"address","name":"pauseManager","type":"address"}],"internalType":"struct Gyro2CLPPool.GyroParams","name":"params","type":"tuple"},{"internalType":"address","name":"configAddress","type":"address"}],"stateMutability":"nonpayable","type":"constructor","name":"constructor"},{"anonymous":false,"inputs":[{"indexed":true,"internalType":"address","name":"owner","type":"address"},{"indexed":true,"internalType":"address","name":"spender","type":"address"},{"indexed":false,"internalType":"uint256","name":"value","type":"uint256"}],"name":"Approval","type":"event"},{"anonymous":false,"inputs":[{"indexed":false,"internalType":"address","name":"capManager","type":"address"}],"name":"CapManagerUpdated","type":"event"},{"anonymous":false,"inputs":[{"components":[{"internalType":"bool","name":"capEnabled","type":"bool"},{"internalType":"uint120","name":"perAddressCap","type":"uint120"},{"internalType":"uint128","name":"globalCap","type":"uint128"}],"indexed":false,"internalType":"struct ICappedLiquidity.CapParams","name":"params","type":"tuple"}],"name":"CapParamsUpdated","type":"event"},{"anonymous":false,"inputs":[{"indexed":false,"internalType":"bool","name":"enabled","type":"bool"}],"name":"OracleEnabledChanged","type":"event"},{"anonymous":false,"inputs":[{"indexed":false,"internalType":"address","name":"oldPauseManager","type":"address"},{"indexed":false,"internalType":"address","name":"newPauseManager","type":"address"}],"name":"PauseManagerChanged","type":"event"},{"anonymous":false,"inputs":[],"name":"PausedLocally","type":"event"},{"anonymous":false,"inputs":[{"indexed":false,"internalType":"bool","name":"paused","type":"bool"}],"name":"PausedStateChanged","type":"event"},{"anonymous":false,"inputs":[{"indexed":false,"internalType":"uint256","name":"swapFeePercentage","type":"uint256"}],"name":"SwapFeePercentageChanged","type":"event"},{"anonymous":false,"inputs":[{"indexed":true,"internalType":"address","name":"from","type":"address"},{"indexed":true,"internalType":"address","name":"to","type":"address"},{"indexed":false,"internalType":"uint256","name":"value","type":"uint256"}],"name":"Transfer","type":"event"},{"anonymous":false,"inputs":[],"name":"UnpausedLocally","type":"event"},{"inputs":[],"name":"DOMAIN_SEPARATOR","outputs":[{"internalType":"bytes32","name":"","type":"bytes32"}],"stateMutability":"view","type":"function"},{"inputs":[{"internalType":"address","name":"owner","type":"address"},{"internalType":"address","name":"spender","type":"address"}],"name":"allowance","outputs":[{"internalType":"uint256","name":"","type":"uint256"}],"stateMutability":"view","type":"function"},{"inputs":[{"internalType":"address","name":"spender","type":"address"},{"internalType":"uint256","name":"amount","type":"uint256"}],"name":"approve","outputs":[{"internalType":"bool","name":"","type":"bool"}],"stateMutability":"nonpayable","type":"function"},{"inputs":[{"internalType":"address","name":"account","type":"address"}],"name":"balanceOf","outputs":[{"internalType":"uint256","name":"","type":"uint256"}],"stateMutability":"view","type":"function"},{"inputs":[{"internalType":"uint256","name":"balanceTokenIn","type":"uint256"},{"internalType":"uint256","name":"balanceTokenOut","type":"uint256"},{"internalType":"bool","name":"tokenInIsToken0","type":"bool"}],"name":"calculateCurrentValues","outputs":[{"internalType":"uint256","name":"currentInvariant","type":"uint256"},{"internalType":"uint256","name":"virtualParamIn","type":"uint256"},{"internalType":"uint256","name":"virtualParamOut","type":"uint256"}],"stateMutability":"view","type":"function"},{"inputs":[],"name":"capManager","outputs":[{"internalType":"address","name":"","type":"address"}],"stateMutability":"view","type":"function"},{"inputs":[],"name":"capParams","outputs":[{"components":[{"internalType":"bool","name":"capEnabled","type":"bool"},{"internalType":"uint120","name":"perAddressCap","type":"uint120"},{"internalType":"uint128","name":"globalCap","type":"uint128"}],"internalType":"struct ICappedLiquidity.CapParams","name":"","type":"tuple"}],"stateMutability":"view","type":"function"},{"inputs":[{"internalType":"address","name":"_pauseManager","type":"address"}],"name":"changePauseManager","outputs":[],"stateMutability":"nonpayable","type":"function"},{"inputs":[],"name":"decimals","outputs":[{"internalType":"uint8","name":"","type":"uint8"}],"stateMutability":"view","type":"function"},{"inputs":[{"internalType":"address","name":"spender","type":"address"},{"internalType":"uint256","name":"amount","type":"uint256"}],"name":"decreaseAllowance","outputs":[{"internalType":"bool","name":"","type":"bool"}],"stateMutability":"nonpayable","type":"function"},{"inputs":[{"internalType":"uint256","name":"startIndex","type":"uint256"},{"internalType":"uint256","name":"endIndex","type":"uint256"}],"name":"dirtyUninitializedOracleSamples","outputs":[],"stateMutability":"nonpayable","type":"function"},{"inputs":[],"name":"enableOracle","outputs":[],"stateMutability":"nonpayable","type":"function"},{"inputs":[{"internalType":"bytes4","name":"selector","type":"bytes4"}],"name":"getActionId","outputs":[{"internalType":"bytes32","name":"","type":"bytes32"}],"stateMutability":"view","type":"function"},{"inputs":[],"name":"getAuthorizer","outputs":[{"internalType":"contract IAuthorizer","name":"","type":"address"}],"stateMutability":"view","type":"function"},{"inputs":[],"name":"getInvariant","outputs":[{"internalType":"uint256","name":"","type":"uint256"}],"stateMutability":"view","type":"function"},{"inputs":[],"name":"getLargestSafeQueryWindow","outputs":[{"internalType":"uint256","name":"","type":"uint256"}],"stateMutability":"pure","type":"function"},{"inputs":[],"name":"getLastInvariant","outputs":[{"internalType":"uint256","name":"","type":"uint256"}],"stateMutability":"view","type":"function"},{"inputs":[{"internalType":"enum IPriceOracle.Variable","name":"variable","type":"uint8"}],"name":"getLatest","outputs":[{"internalType":"uint256","name":"","type":"uint256"}],"stateMutability":"view","type":"function"},{"inputs":[],"name":"getMiscData","outputs":[{"internalType":"int256","name":"logInvariant","type":"int256"},{"internalType":"int256","name":"logTotalSupply","type":"int256"},{"internalType":"uint256","name":"oracleSampleCreationTimestamp","type":"uint256"},{"internalType":"uint256","name":"oracleIndex","type":"uint256"},{"internalType":"bool","name":"oracleEnabled","type":"bool"},{"internalType":"uint256","name":"swapFeePercentage","type":"uint256"}],"stateMutability":"view","type":"function"},{"inputs":[],"name":"getNormalizedWeights","outputs":[{"internalType":"uint256[]","name":"","type":"uint256[]"}],"stateMutability":"view","type":"function"},{"inputs":[],"name":"getOwner","outputs":[{"internalType":"address","name":"","type":"address"}],"stateMutability":"view","type":"function"},{"inputs":[{"components":[{"internalType":"enum IPriceOracle.Variable","name":"variable","type":"uint8"},{"internalType":"uint256","name":"ago","type":"uint256"}],"internalType":"struct IPriceOracle.OracleAccumulatorQuery[]","name":"queries","type":"tuple[]"}],"name":"getPastAccumulators","outputs":[{"internalType":"int256[]","name":"results","type":"int256[]"}],"stateMutability":"view","type":"function"},{"inputs":[],"name":"getPausedState","outputs":[{"internalType":"bool","name":"paused","type":"bool"},{"internalType":"uint256","name":"pauseWindowEndTime","type":"uint256"},{"internalType":"uint256","name":"bufferPeriodEndTime","type":"uint256"}],"stateMutability":"view","type":"function"},{"inputs":[],"name":"getPoolId","outputs":[{"internalType":"bytes32","name":"","type":"bytes32"}],"stateMutability":"view","type":"function"},{"inputs":[],"name":"getRate","outputs":[{"internalType":"uint256","name":"","type":"uint256"}],"stateMutability":"view","type":"function"},{"inputs":[{"internalType":"uint256","name":"index","type":"uint256"}],"name":"getSample","outputs":[{"internalType":"int256","name":"logPairPrice","type":"int256"},{"internalType":"int256","name":"accLogPairPrice","type":"int256"},{"internalType":"int256","name":"logBptPrice","type":"int256"},{"internalType":"int256","name":"accLogBptPrice","type":"int256"},{"internalType":"int256","name":"logInvariant","type":"int256"},{"internalType":"int256","name":"accLogInvariant","type":"int256"},{"internalType":"uint256","name":"timestamp","type":"uint256"}],"stateMutability":"view","type":"function"},{"inputs":[],"name":"getSqrtParameters","outputs":[{"internalType":"uint256[2]","name":"","type":"uint256[2]"}],"stateMutability":"view","type":"function"},{"inputs":[],"name":"getSwapFeePercentage","outputs":[{"internalType":"uint256","name":"","type":"uint256"}],"stateMutability":"view","type":"function"},{"inputs":[{"components":[{"internalType":"enum IPriceOracle.Variable","name":"variable","type":"uint8"},{"internalType":"uint256","name":"secs","type":"uint256"},{"internalType":"uint256","name":"ago","type":"uint256"}],"internalType":"struct IPriceOracle.OracleAverageQuery[]","name":"queries","type":"tuple[]"}],"name":"getTimeWeightedAverage","outputs":[{"internalType":"uint256[]","name":"results","type":"uint256[]"}],"stateMutability":"view","type":"function"},{"inputs":[],"name":"getTotalSamples","outputs":[{"internalType":"uint256","name":"","type":"uint256"}],"stateMutability":"pure","type":"function"},{"inputs":[],"name":"getVault","outputs":[{"internalType":"contract IVault","name":"","type":"address"}],"stateMutability":"view","type":"function"},{"inputs":[],"name":"getVirtualParameters","outputs":[{"internalType":"uint256[]","name":"virtualParams","type":"uint256[]"}],"stateMutability":"view","type":"function"},{"inputs":[],"name":"gyroConfig","outputs":[{"internalType":"contract IGyroConfig","name":"","type":"address"}],"stateMutability":"view","type":"function"},{"inputs":[{"internalType":"address","name":"spender","type":"address"},{"internalType":"uint256","name":"addedValue","type":"uint256"}],"name":"increaseAllowance","outputs":[{"internalType":"bool","name":"","type":"bool"}],"stateMutability":"nonpayable","type":"function"},{"inputs":[],"name":"name","outputs":[{"internalType":"string","name":"","type":"string"}],"stateMutability":"view","type":"function"},{"inputs":[{"internalType":"address","name":"owner","type":"address"}],"name":"nonces","outputs":[{"internalType":"uint256","name":"","type":"uint256"}],"stateMutability":"view","type":"function"},{"inputs":[{"internalType":"bytes32","name":"poolId","type":"bytes32"},{"internalType":"address","name":"sender","type":"address"},{"internalType":"address","name":"recipient","type":"address"},{"internalType":"uint256[]","name":"balances","type":"uint256[]"},{"internalType":"uint256","name":"lastChangeBlock","type":"uint256"},{"internalType":"uint256","name":"protocolSwapFeePercentage","type":"uint256"},{"internalType":"bytes","name":"userData","type":"bytes"}],"name":"onExitPool","outputs":[{"internalType":"uint256[]","name":"","type":"uint256[]"},{"internalType":"uint256[]","name":"","type":"uint256[]"}],"stateMutability":"nonpayable","type":"function"},{"inputs":[{"internalType":"bytes32","name":"poolId","type":"bytes32"},{"internalType":"address","name":"sender","type":"address"},{"internalType":"address","name":"recipient","type":"address"},{"internalType":"uint256[]","name":"balances","type":"uint256[]"},{"internalType":"uint256","name":"lastChangeBlock","type":"uint256"},{"internalType":"uint256","name":"protocolSwapFeePercentage","type":"uint256"},{"internalType":"bytes","name":"userData","type":"bytes"}],"name":"onJoinPool","outputs":[{"internalType":"uint256[]","name":"amountsIn","type":"uint256[]"},{"internalType":"uint256[]","name":"dueProtocolFeeAmounts","type":"uint256[]"}],"stateMutability":"nonpayable","type":"function"},{"inputs":[{"components":[{"internalType":"enum IVault.SwapKind","name":"kind","type":"uint8"},{"internalType":"contract IERC20","name":"tokenIn","type":"address"},{"internalType":"contract IERC20","name":"tokenOut","type":"address"},{"internalType":"uint256","name":"amount","type":"uint256"},{"internalType":"bytes32","name":"poolId","type":"bytes32"},{"internalType":"uint256","name":"lastChangeBlock","type":"uint256"},{"internalType":"address","name":"from","type":"address"},{"internalType":"address","name":"to","type":"address"},{"internalType":"bytes","name":"userData","type":"bytes"}],"internalType":"struct IPoolSwapStructs.SwapRequest","name":"request","type":"tuple"},{"internalType":"uint256","name":"balanceTokenIn","type":"uint256"},{"internalType":"uint256","name":"balanceTokenOut","type":"uint256"}],"name":"onSwap","outputs":[{"internalType":"uint256","name":"","type":"uint256"}],"stateMutability":"nonpayable","type":"function"},{"inputs":[],"name":"pause","outputs":[],"stateMutability":"nonpayable","type":"function"},{"inputs":[],"name":"pauseManager","outputs":[{"internalType":"address","name":"","type":"address"}],"stateMutability":"view","type":"function"},{"inputs":[{"internalType":"address","name":"owner","type":"address"},{"internalType":"address","name":"spender","type":"address"},{"internalType":"uint256","name":"value","type":"uint256"},{"internalType":"uint256","name":"deadline","type":"uint256"},{"internalType":"uint8","name":"v","type":"uint8"},{"internalType":"bytes32","name":"r","type":"bytes32"},{"internalType":"bytes32","name":"s","type":"bytes32"}],"name":"permit","outputs":[],"stateMutability":"nonpayable","type":"function"},{"inputs":[{"internalType":"bytes32","name":"poolId","type":"bytes32"},{"internalType":"address","name":"sender","type":"address"},{"internalType":"address","name":"recipient","type":"address"},{"internalType":"uint256[]","name":"balances","type":"uint256[]"},{"internalType":"uint256","name":"lastChangeBlock","type":"uint256"},{"internalType":"uint256","name":"protocolSwapFeePercentage","type":"uint256"},{"internalType":"bytes","name":"userData","type":"bytes"}],"name":"queryExit","outputs":[{"internalType":"uint256","name":"bptIn","type":"uint256"},{"internalType":"uint256[]","name":"amountsOut","type":"uint256[]"}],"stateMutability":"nonpayable","type":"function"},{"inputs":[{"internalType":"bytes32","name":"poolId","type":"bytes32"},{"internalType":"address","name":"sender","type":"address"},{"internalType":"address","name":"recipient","type":"address"},{"internalType":"uint256[]","name":"balances","type":"uint256[]"},{"internalType":"uint256","name":"lastChangeBlock","type":"uint256"},{"internalType":"uint256","name":"protocolSwapFeePercentage","type":"uint256"},{"internalType":"bytes","name":"userData","type":"bytes"}],"name":"queryJoin","outputs":[{"internalType":"uint256","name":"bptOut","type":"uint256"},{"internalType":"uint256[]","name":"amountsIn","type":"uint256[]"}],"stateMutability":"nonpayable","type":"function"},{"inputs":[{"internalType":"address","name":"_capManager","type":"address"}],"name":"setCapManager","outputs":[],"stateMutability":"nonpayable","type":"function"},{"inputs":[{"components":[{"internalType":"bool","name":"capEnabled","type":"bool"},{"internalType":"uint120","name":"perAddressCap","type":"uint120"},{"internalType":"uint128","name":"globalCap","type":"uint128"}],"internalType":"struct ICappedLiquidity.CapParams","name":"params","type":"tuple"}],"name":"setCapParams","outputs":[],"stateMutability":"nonpayable","type":"function"},{"inputs":[{"internalType":"bool","name":"paused","type":"bool"}],"name":"setPaused","outputs":[],"stateMutability":"nonpayable","type":"function"},{"inputs":[{"internalType":"uint256","name":"swapFeePercentage","type":"uint256"}],"name":"setSwapFeePercentage","outputs":[],"stateMutability":"nonpayable","type":"function"},{"inputs":[],"name":"symbol","outputs":[{"internalType":"string","name":"","type":"string"}],"stateMutability":"view","type":"function"},{"inputs":[],"name":"totalSupply","outputs":[{"internalType":"uint256","name":"","type":"uint256"}],"stateMutability":"view","type":"function"},{"inputs":[{"internalType":"address","name":"recipient","type":"address"},{"internalType":"uint256","name":"amount","type":"uint256"}],"name":"transfer","outputs":[{"internalType":"bool","name":"","type":"bool"}],"stateMutability":"nonpayable","type":"function"},{"inputs":[{"internalType":"address","name":"sender","type":"address"},{"internalType":"address","name":"recipient","type":"address"},{"internalType":"uint256","name":"amount","type":"uint256"}],"name":"transferFrom","outputs":[{"internalType":"bool","name":"","type":"bool"}],"stateMutability":"nonpayable","type":"function"},{"inputs":[],"name":"unpause","outputs":[],"stateMutability":"nonpayable","type":"function"}],"bytecode":"6102e06040527f6e71edae12b1b97f4d1f60370fef10105fa2faae0126114a169c64845d6126c9610120526706f05b59d3b20000610200819052610220526000610240523480156200005057600080fd5b50604051620062e8380380620062e8833981016040819052620000739162000bc5565b8160a001518260600151836080015184600001518060c001518160e001518260200151836040015184600001518280604051806040016040528060018152602001603160f81b81525085858a6101200151336001600160a01b031660001b806080818152505050806001600160a01b031660a0816001600160a01b031660601b8152505050816003908051906020019062000110929190620008ea565b50805162000126906004906020840190620008ea565b505060058054601260ff1990911617905550815160209283012060c052805191012060e052507f8b73c3c69bb8fe3d512ecc4cf759cc79239f7b179b0ffacaa9a75d522b39400f6101005260601b6001600160601b03191661014052506200019990506276a7008311156101946200054c565b620001ad62278d008211156101956200054c565b42919091016101608190520161018052604080516002808252606082018352600092602083019080368337019050509050816060015181600081518110620001f157fe5b60200260200101906001600160a01b031690816001600160a01b0316815250508160800151816001815181106200022457fe5b60200260200101906001600160a01b031690816001600160a01b0316815250506200025a816200056160201b62001a0c1760201c565b6101008201516200026b906200056d565b60a08201516200027b90620005c9565b81516040516309b2760f60e01b81526000916001600160a01b0316906309b2760f90620002ae9060029060040162000d6f565b602060405180830381600087803b158015620002c957600080fd5b505af1158015620002de573d6000803e3d6000fd5b505050506040513d601f19601f8201168201806040525081019062000304919062000bac565b83516040805160028082526060820183529394506001600160a01b03909216926366a9c7d2928592879290602083019080368337019050506040518463ffffffff1660e01b81526004016200035c9392919062000cd5565b600060405180830381600087803b1580156200037757600080fd5b505af11580156200038c573d6000803e3d6000fd5b5050506101a082905250606080840180516001600160601b031990831b81166101c052608086015190921b9091166101e05251620003ca9062000647565b610260526080830151620003de9062000647565b61028052505060408051808201909152600e81526d1b9bdd08185d5d1a1bdc9a5e995960921b602082015290506001600160a01b0383166200043e5760405162461bcd60e51b815260040162000435919062000d84565b60405180910390fd5b50600c80546001600160a01b0319166001600160a01b039384161790558051600b8054602084015160409094015160ff1990911692151592909217610100600160801b0319166101006001600160781b0390941693909302929092176001600160801b03908116600160801b9190921602179055620004c390821615156069620006eb565b600d80546001600160a01b0319166001600160a01b039290921691909117905560408201516020830151620004fc911161015e620006eb565b620005146001600160a01b03821615156069620006eb565b60208201516102a0526040909101516102c052600e80546001600160a01b0319166001600160a01b0390921691909117905562000e19565b816200055d576200055d81620006fc565b5050565b806200055d816200074f565b6200058981600954620007dc60201b62001a1a1790919060201c565b6009556040517f3e350b41e86a8e10f804ade6d35340d620be35569cc75ac943e8bb14ab80ead190620005be90839062000cca565b60405180910390a150565b620005de64e8d4a5100082101560cb6200054c565b620005f667016345785d8a000082111560ca6200054c565b62000612816009546200080260201b62001a2f1790919060201c565b6009556040517fa9ba3ffe0b6c366b81232caab38605a0699ad5398d6cce76f91ee809e322dafc90620005be90839062000db9565b600080826001600160a01b031663313ce5676040518163ffffffff1660e01b815260040160206040518083038186803b1580156200068457600080fd5b505afa15801562000699573d6000803e3d6000fd5b505050506040513d601f19601f82011682018060405250810190620006bf919062000ca7565b60ff1690506000620006de6012836200082160201b62001a3d1760201c565b600a0a925050505b919050565b816200055d576200055d8162000839565b62461bcd60e51b6000908152602060045260076024526642414c23000030600a808404818106603090810160081b95839006959095019082900491820690940160101b939093010160c81b604452606490fd5b6002815110156200076057620007d9565b6000816000815181106200077057fe5b602002602001015190506000600190505b8251811015620007d65760008382815181106200079a57fe5b60200260200101519050620007cb816001600160a01b0316846001600160a01b03161060656200054c60201b60201c565b915060010162000781565b50505b50565b6000620007fb826055856200084b60201b62001a53179092919060201c565b9392505050565b6000620007fb826056856200087460201b62001a7a179092919060201c565b6000620008338383111560016200054c565b50900390565b620007d9816223aca960e91b62000889565b60006001821b19841682846200086357600062000866565b60015b60ff16901b17949350505050565b6001600160401b03811b1992909216911b1790565b62461bcd60e51b600090815260206004526007602452600a808404818106603090810160081b958390069590950190829004918206850160101b01602363ffffff0060e086901c160160181b0190930160c81b60445260e882901c90606490fd5b828054600181600116156101000203166002900490600052602060002090601f0160209004810192826200092257600085556200096d565b82601f106200093d57805160ff19168380011785556200096d565b828001600101855582156200096d579182015b828111156200096d57825182559160200191906001019062000950565b506200097b9291506200097f565b5090565b5b808211156200097b576000815560010162000980565b80516001600160a01b0381168114620006e657600080fd5b80518015158114620006e657600080fd5b600082601f830112620009d0578081fd5b81516001600160401b03811115620009e457fe5b620009f9601f8201601f191660200162000dc2565b81815284602083860101111562000a0e578283fd5b62000a2182602083016020870162000de6565b949350505050565b60006060828403121562000a3b578081fd5b604051606081016001600160401b038111828210171562000a5857fe5b60405290508062000a6983620009ae565b815260208301516001600160781b038116811462000a8657600080fd5b602082015260408301516001600160801b038116811462000aa657600080fd5b6040919091015292915050565b600061014080838503121562000ac7578182fd5b62000ad28162000dc2565b91505062000ae08262000996565b815260208201516001600160401b038082111562000afd57600080fd5b62000b0b85838601620009bf565b6020840152604084015191508082111562000b2557600080fd5b5062000b3484828501620009bf565b60408301525062000b486060830162000996565b606082015262000b5b6080830162000996565b608082015260a082015160a082015260c082015160c082015260e082015160e082015261010062000b8e818401620009ae565b9082015261012062000ba283820162000996565b9082015292915050565b60006020828403121562000bbe578081fd5b5051919050565b6000806040838503121562000bd8578081fd5b82516001600160401b038082111562000bef578283fd5b90840190610100828703121562000c04578283fd5b60405160c08101818110838211171562000c1a57fe5b60405282518281111562000c2c578485fd5b62000c3a8882860162000ab3565b825250602083015160208201526040830151604082015262000c5f6060840162000996565b606082015262000c73876080850162000a29565b608082015262000c8660e0840162000996565b60a0820152935062000c9e9150506020840162000996565b90509250929050565b60006020828403121562000cb9578081fd5b815160ff81168114620007fb578182fd5b901515815260200190565b60006060820185835260206060818501528186518084526080860191508288019350845b8181101562000d205784516001600160a01b03168352938301939183019160010162000cf9565b505084810360408601528551808252908201925081860190845b8181101562000d615782516001600160a01b03168552938301939183019160010162000d3a565b509298975050505050505050565b602081016003831062000d7e57fe5b91905290565b600060208252825180602084015262000da581604085016020870162000de6565b601f01601f19169190910160400192915050565b90815260200190565b6040518181016001600160401b038111828210171562000dde57fe5b604052919050565b60005b8381101562000e0357818101518382015260200162000de9565b8381111562000e13576000848401525b50505050565b60805160a05160601c60c05160e05161010051610120516101405160601c61016051610180516101a0516101c05160601c6101e05160601c61020051610220516102405161026051610280516102a0516102c0516153ed62000efb60003980612ff2525080613019525080611f4c528061276a525080611f7352806127075250508061380d52508061383452508061274952508061145752806126e6525080610ae8525080611bde525080611bba52508061130b52508061175d525080611e0e525080611e50525080611e2f5250806112e752508061126d52506153ed6000f3fe608060405234801561001057600080fd5b50600436106103275760003560e01c8063707dcd1e116101b85780639b02cdde11610104578063b48b5b40116100a2578063d5c096c41161007c578063d5c096c41461069b578063dd62ed3e146106ae578063f89f27ed146106c1578063ffd088eb146106c957610327565b8063b48b5b4014610678578063c0ff1a1514610680578063d505accf1461068857610327565b8063a9059cbb116100de578063a9059cbb14610642578063aaabadc514610655578063abd13afe1461065d578063b10be7391461066557610327565b80639b02cdde146106145780639d2c110c1461061c578063a457c2d71461062f57610327565b80638456cb5911610171578063893d20e81161014b578063893d20e8146105f45780638d928af8146105fc5780638dd9f89d1461060457806395d89b411461060c57610327565b80638456cb59146105c6578063851c1bb3146105ce57806387ec6817146105e157610327565b8063707dcd1e1461054457806370a082311461055957806374f3b0091461056c57806376e54a461461058d5780637ecebe00146105a05780638002df18146105b357610327565b806338fff2d0116102775780634a6b0b151161023057806360d1507c1161020a57806360d1507c146104ee578063679aefce146105145780636b8432391461051c5780636d785a871461053c57610327565b80634a6b0b15146104ab57806355c67628146104c55780636028bfd4146104cd57610327565b806338fff2d01461043c57806339509351146104445780633aeae0d3146104575780633c4dd5bb1461046c5780633f4ba83a1461048e57806344bbdb551461049657610327565b80631dccd830116102e4578063313ce567116102be578063313ce567146103f95780633331bc361461040e5780633644e5151461042157806338e9922e1461042957610327565b80631dccd830146103be57806323b872dd146103de578063292c914a146103f157610327565b806306fdde031461032c578063095ea7b31461034a5780630e608b301461036a57806316c38b3c1461037f57806318160ddd146103925780631c0de051146103a7575b600080fd5b6103346106d1565b6040516103419190615272565b60405180910390f35b61035d610358366004614ae0565b610767565b6040516103419190615154565b61037d6103783660046149bb565b61077e565b005b61037d61038d366004614caa565b61082f565b61039a610843565b6040516103419190615177565b6103af610849565b6040516103419392919061515f565b6103d16103cc366004614bde565b610872565b604051610341919061511c565b61035d6103ec366004614a2b565b610995565b61037d610a09565b610401610a3d565b6040516103419190615354565b61037d61041c366004614fa6565b610a46565b61039a610abe565b61037d610437366004614f8e565b610acd565b61039a610ae6565b61035d610452366004614ae0565b610b0a565b61045f610b45565b60405161034191906152c5565b61047f61047a366004614fc7565b610b90565b6040516103419392919061533e565b61037d610be3565b61049e610cd8565b6040516103419190615093565b6104b3610ce7565b604051610341969594939291906151c7565b61039a610d42565b6104e06104db366004614cc4565b610d4f565b604051610341929190615325565b6105016104fc366004614f8e565b610d80565b6040516103419796959493929190615197565b61039a610dc9565b61052f61052a366004614b0b565b610dee565b60405161034191906150a7565b61049e610ea4565b61054c610eb3565b60405161034191906150eb565b61039a6105673660046149bb565b610ec3565b61057f61057a366004614cc4565b610ee2565b60405161034192919061512f565b61037d61059b366004614e1a565b610f87565b61039a6105ae3660046149bb565b6110ae565b61037d6105c13660046149bb565b6110c9565b61037d6111af565b61039a6105dc366004614dc0565b611267565b6104e06105ef366004614cc4565b6112c0565b61049e6112e5565b61049e611309565b6103d161132d565b6103346113c7565b61039a611428565b61039a61062a366004614e98565b61142e565b61035d61063d366004614ae0565b6115f4565b61035d610650366004614ae0565b611632565b61049e61163f565b61049e611649565b61039a610673366004614de8565b611658565b61039a6116ed565b61039a6116f3565b61037d610696366004614a6b565b61172e565b61057f6106a9366004614cc4565b61189e565b61039a6106bc3660046149f3565b6119be565b6103d16119fb565b61039a611a05565b60038054604080516020601f600260001961010060018816150201909516949094049384018190048102820181019092528281526060939092909183018282801561075d5780601f106107325761010080835404028352916020019161075d565b820191906000526020600020905b81548152906001019060200180831161074057829003601f168201915b5050505050905090565b6000610774338484611a8f565b5060015b92915050565b600c5460408051808201909152600e81526d1b9bdd08185d5d1a1bdc9a5e995960921b6020820152906001600160a01b031633146107d85760405162461bcd60e51b81526004016107cf9190615272565b60405180910390fd5b50600c80546001600160a01b0319166001600160a01b0383161790556040517fb8fd9afc34c38fcd13b9a3b7646482eb1fddcefb40af2c70609972816eba320890610824908390615093565b60405180910390a150565b610837611af1565b61084081611b1f565b50565b60025490565b6000806000610856611b9b565b159250610861611bb8565b915061086b611bdc565b9050909192565b606081516001600160401b038111801561088b57600080fd5b506040519080825280602002602001820160405280156108b5578160200160208202803683370190505b50905060006108c2611c00565b905060005b835181101561098e5773__QueryProcessor________________________6379eaef8260088684815181106108f857fe5b6020026020010151856040518463ffffffff1660e01b815260040161091f93929190615239565b60206040518083038186803b15801561093757600080fd5b505af415801561094b573d6000803e3d6000fd5b505050506040513d601f19601f8201168201806040525081019061096f9190614e02565b83828151811061097b57fe5b60209081029190910101526001016108c7565b5050919050565b6000806109a285336119be565b90506109c6336001600160a01b03871614806109be5750838210155b61019e611c0d565b6109d1858585611c1b565b336001600160a01b038616148015906109ec57506000198114155b156109fe576109fe8533858403611a8f565b506001949350505050565b610a11611d03565b610a19611af1565b610a236001611d16565b6000610a2d610843565b1115610a3b57610a3b611d56565b565b60055460ff1690565b610a618183108015610a5a57506104008211155b6064611c0d565b6000610a766001600080600080600080611d9e565b9050825b82811015610ab857600081815260086020526040902054610a9a90611dfe565b610ab05760008181526008602052604090208290555b600101610a7a565b50505050565b6000610ac8611e0a565b905090565b610ad5611af1565b610add611d03565b61084081611ec8565b7f000000000000000000000000000000000000000000000000000000000000000090565b3360008181526001602090815260408083206001600160a01b03871684529091528120549091610774918590610b409086611f31565b611a8f565b610b4d6148c9565b5060408051606081018252600b5460ff81161515825261010081046001600160781b03166020830152600160801b90046001600160801b03169181019190915290565b600080600080610b9f85611f43565b90506000610bad8615611f43565b9050610bb98883611f97565b9750610bc58782611f97565b9650610bd2888888611fa3565b945094509450505093509350939050565b600d546040805180820190915260118152703737ba103830bab9b29036b0b730b3b2b960791b6020820152906001600160a01b03163314610ca25760405162461bcd60e51b81526004018080602001828103825283818151815260200191508051906020019080838360005b83811015610c67578181015183820152602001610c4f565b50505050905090810190601f168015610c945780820380516001836020036101000a031916815260200191505b509250505060405180910390fd5b50610cad6000610837565b6040517f215385c8bfc731925ec8068d7baa50f6b6f34417cc7804f7273dc2c0b3db279090600090a1565b600e546001600160a01b031681565b60008060008060008060006009549050610d0081612072565b9650610d0b8161207e565b9550610d168161208b565b9450610d2181612098565b9350610d2c816120a5565b9250610d37816120b2565b915050909192939495565b6000610ac86009546120b2565b60006060610d5f865160026120bf565b610d74898989898989896120cc6121e061225e565b97509795505050505050565b6000806000806000806000610d9b610400891061013b611c0d565b6000610da689612371565b9050610db181612383565b959f949e50929c50909a509850965090945092505050565b6000610ac8610dd6610843565b610de8610de16116f3565b60026123e6565b9061240a565b606081516001600160401b0381118015610e0757600080fd5b50604051908082528060200260200182016040528015610e31578160200160208202803683370190505b5090506000610e3e611c00565b9050610e486148e9565b60005b8451811015610e9c57848181518110610e6057fe5b60200260200101519150610e7d8260000151848460200151612464565b848281518110610e8957fe5b6020908102919091010152600101610e4b565b505050919050565b600c546001600160a01b031681565b610ebb614900565b610ac86124fd565b6001600160a01b0381166000908152602081905260409020545b919050565b60608088610f0c610ef1611309565b6001600160a01b0316336001600160a01b03161460cd611c0d565b610f21610f17610ae6565b82146101f4611c0d565b610f2a87612523565b6000806000610f3e8d8d8d8d8d8d8d6120cc565b925092509250610f4e8c84612585565b610f57826121e0565b610f60816121e0565b610f68611b9b565b15610f7557610f75611d56565b909c909b509950505050505050505050565b600c5460408051808201909152600e81526d1b9bdd08185d5d1a1bdc9a5e995960921b6020820152906001600160a01b03163314610fd85760405162461bcd60e51b81526004016107cf9190615272565b50600b5460408051808201909152601081526f1c1bdbdb081a5cc81d5b98d85c1c195960821b60208201529060ff166110245760405162461bcd60e51b81526004016107cf9190615272565b508051600b8054602084015160408086015160ff19909316941515949094176fffffffffffffffffffffffffffffff0019166101006001600160781b0390921691909102176001600160801b03908116600160801b919092160217815590517f2abf5970d7bc1a2b36eaae52dd2cc353edb0337c7284ef8a01973081b4e0442491610824916152fa565b6001600160a01b031660009081526006602052604090205490565b600d546040805180820190915260118152703737ba103830bab9b29036b0b730b3b2b960791b60208201526001600160a01b039091169033821461114e5760405162461bcd60e51b8152602060048201818152835160248401528351909283926044909101919085019080838360008315610c67578181015183820152602001610c4f565b50600d80546001600160a01b0319166001600160a01b03848116918217909255604080519284168352602083019190915280517f1ffccd1fa96f4fb3415df8048a0fd107344e262d2d246c85105e2a3f8f3e81989281900390910190a15050565b600d546040805180820190915260118152703737ba103830bab9b29036b0b730b3b2b960791b6020820152906001600160a01b031633146112315760405162461bcd60e51b8152602060048201818152835160248401528351909283926044909101919085019080838360008315610c67578181015183820152602001610c4f565b5061123c6001610837565b6040517f681eace576127d0553b224436a09801fb47d042942cbff59d7d4ff04d8fa03d790600090a1565b604080517f00000000000000000000000000000000000000000000000000000000000000006020808301919091526001600160e01b03198416828401528251602481840301815260449092019092528051910120919050565b600060606112d0865160026120bf565b610d748989898989898961258f61265f61225e565b7f000000000000000000000000000000000000000000000000000000000000000090565b7f000000000000000000000000000000000000000000000000000000000000000090565b606060006113396126c1565b60408051600280825260608201835292935091906020830190803683370190505091506113908160008151811061136c57fe5b60200260200101518260018151811061138157fe5b60200260200101516001611fa3565b909150836000815181106113a057fe5b60200260200101846001815181106113b457fe5b6020908102919091010191909152525090565b60048054604080516020601f600260001961010060018816150201909516949094049384018190048102820181019092528281526060939092909183018282801561075d5780601f106107325761010080835404028352916020019161075d565b600a5490565b6000611438611d03565b8360800151611448610ef1611309565b611453610f17610ae6565b60007f00000000000000000000000000000000000000000000000000000000000000006001600160a01b031686602001516001600160a01b0316149050600061149b82611f43565b905060006114a98315611f43565b90506114b58783611f97565b96506114c18682611f97565b955060008060006114d38a8a88611fa3565b92509250925061151a8b60a00151876114ec578a6114ee565b8b5b886114f9578c6114fb565b8b5b896115065784611508565b855b8a6115135786611515565b855b6127aa565b60008b51600181111561152957fe5b141561159857600061154761153c610d42565b60608e015190612854565b9050611569611563828e606001516128a990919063ffffffff16565b87611f97565b60608d0152600061157d8d8d8d87876128bf565b905061158981876128de565b995050505050505050506115ec565b6115a68b6060015185611f97565b60608c015260006115ba8c8c8c86866128ea565b90506115c681876128fd565b90506115e26115db6115d6610d42565b612909565b829061292f565b9850505050505050505b509392505050565b60008061160133856119be565b905080831061161b5761161633856000611a8f565b611628565b6116283385858403611a8f565b5060019392505050565b6000610774338484611c1b565b6000610ac8612995565b600d546001600160a01b031681565b600073__QueryProcessor________________________630397bee060088461167f611c00565b6040518463ffffffff1660e01b815260040161169d939291906151f1565b60206040518083038186803b1580156116b557600080fd5b505af41580156116c9573d6000803e3d6000fd5b505050506040513d601f19601f820116820180604052508101906107789190614e02565b61040090565b6000806116fe6126c1565b9050600061170a6124fd565b9050611727828260005b60200201518360015b6020020151612a0f565b9250505090565b61173c8442111560d1611c0d565b6001600160a01b0380881660008181526006602090815260408083205481517f00000000000000000000000000000000000000000000000000000000000000008185015280830195909552948b166060850152608084018a905260a0840185905260c08085018a90528151808603909101815260e090940190528251920191909120906117c882612a42565b9050600060018288888860405160008152602001604052604051808581526020018460ff1681526020018381526020018281526020019450505050506020604051602081039080840390855afa158015611826573d6000803e3d6000fd5b5050604051601f190151915061186890506001600160a01b0382161580159061186057508b6001600160a01b0316826001600160a01b0316145b6101f8611c0d565b6001600160a01b038b1660009081526006602052604090206001850190556118918b8b8b611a8f565b5050505050505050505050565b606080886118ad610ef1611309565b6118b8610f17610ae6565b6118c0611d03565b60006118ca610843565b61193a576118da8b8b8b88612a8e565b945090506118ef620f424082101560cc611c0d565b6118fd6000620f4240612b18565b61190c89620f42408303612b18565b6119158461265f565b60408051600280825260608201835290916020830190803683370190505092506119a8565b61194388612523565b611976878960008151811061195457fe5b60200260200101518a60018151811061196957fe5b6020026020010151612b22565b6119858b8b8b8b8b8b8b61258f565b909550935090506119968982612b18565b61199f8461265f565b6119a8836121e0565b6119b0611d56565b505097509795505050505050565b60006119c8611309565b6001600160a01b0316826001600160a01b031614156119ea5750600019610778565b6119f48383612b27565b9050610778565b6060610ac8612b52565b6201de2090565b80611a1681612bc1565b5050565b6000611a2883836055611a53565b9392505050565b6000611a2883836056611a7a565b6000611a4d838311156001611c0d565b50900390565b60006001821b1984168284611a69576000611a6c565b60015b60ff16901b17949350505050565b6001600160401b03811b1992909216911b1790565b6001600160a01b03808416600081815260016020908152604080832094871680845294825291829020859055815185815291517f8c5be1e5ebec7d5bd14f71427d1e84f3dd0314c0f7b2291e5b200ac8c7c3b9259281900390910190a3505050565b6000611b086000356001600160e01b031916611267565b9050610840611b178233612c3a565b610191611c0d565b8015611b3f57611b3a611b30611bb8565b4210610193611c0d565b611b54565b611b54611b4a611bdc565b42106101a9611c0d565b6007805482151560ff19909116811790915560408051918252517f9e3a5e37224532dea67b89face185703738a228a6e8a23dee546960180d3be649181900360200190a150565b6000611ba5611bdc565b421180610ac857505060075460ff161590565b7f000000000000000000000000000000000000000000000000000000000000000090565b7f000000000000000000000000000000000000000000000000000000000000000090565b6000610ac8600954612098565b81611a1657611a1681612d3c565b611c326001600160a01b0384161515610198611c0d565b611c496001600160a01b0383161515610199611c0d565b611c54838383612b22565b6001600160a01b038316600090815260208190526040902054611c7a90826101a0612d8f565b6001600160a01b038085166000908152602081905260408082209390935590841681522054611ca99082611f31565b6001600160a01b038084166000818152602081815260409182902094909455805185815290519193928716927fddf252ad1be2c89b69c2b068fc378daa952ba7f163c4a11628f55a4df523b3ef92918290030190a3505050565b610a3b611d0e611b9b565b610192611c0d565b600954611d239082611a1a565b6009556040517f3e350b41e86a8e10f804ade6d35340d620be35569cc75ac943e8bb14ab80ead190610824908390615154565b600954611d62816120a5565b1561084057611d7c611d75600a54612da5565b8290612de5565b9050611d98611d91611d8c610843565b612da5565b8290612df2565b60095550565b6000611daa8282612e00565b611db584601f612e04565b611dc0866054612e15565b611dcb88606a612e04565b611dd68a609f612e15565b611de18c60b5612e04565b611dec8e60ea612e15565b17171717171798975050505050505050565b60006107788282612e22565b60007f00000000000000000000000000000000000000000000000000000000000000007f00000000000000000000000000000000000000000000000000000000000000007f0000000000000000000000000000000000000000000000000000000000000000611e77612e2c565b3060405160200180868152602001858152602001848152602001838152602001826001600160a01b031681526020019550505050505060405160208183030381529060405280519060200120905090565b611edb64e8d4a5100082101560cb611c0d565b611ef167016345785d8a000082111560ca611c0d565b600954611efe9082611a2f565b6009556040517fa9ba3ffe0b6c366b81232caab38605a0699ad5398d6cce76f91ee809e322dafc90610824908390615177565b6000828201611a288482101583611c0d565b600081611f70577f0000000000000000000000000000000000000000000000000000000000000000610778565b507f0000000000000000000000000000000000000000000000000000000000000000919050565b6000611a2883836123e6565b60408051600280825260608201835260009283928392839260208301908036833701905050905084611fd55785611fd7565b865b81600081518110611fe457fe5b60200260200101818152505084611ffb5786611ffd565b855b8160018151811061200a57fe5b60200260200101818152505060006120206124fd565b905061202e82826000611714565b9450600061203c8287612e30565b90508661204d576020810151612050565b80515b94508661205e578051612064565b60208101515b935050505093509350939050565b60006107788282612e64565b6000610778826016612e64565b600061077882602c612e22565b600061077882604b612e8b565b6000610778826055612e93565b6000610778826056612e9d565b611a168183146067611c0d565b600060608060006120db6124fd565b90506120e5611b9b565b156121945760006121008983835b602002015184600161171d565b9050600061210e8383612e30565b905061215d898b60008151811061212157fe5b60200260200101518c60018151811061213657fe5b60200260200101518460006002811061214b57fe5b602002015185600160200201516127aa565b61216682612eaa565b6121708a88612ed7565b90965094506121898287612182610843565b6000612f23565b600a55506121aa9050565b61219e8886612ed7565b600019600a5590945092505b60408051600280825260608201835286928692919060208301908036833701905050935093509350509750975097945050505050565b612207816000815181106121f057fe5b60200260200101516122026001611f43565b612f7b565b8160008151811061221457fe5b6020026020010181815250506122428160018151811061223057fe5b60200260200101516122026000611f43565b8160018151811061224f57fe5b60200260200101818152505050565b33301461231c576000306001600160a01b0316600036604051612282929190615083565b6000604051808303816000865af19150503d80600081146122bf576040519150601f19603f3d011682016040523d82523d6000602084013e6122c4565b606091505b5050905080600081146122d357fe5b60046000803e6000516001600160e01b0319166343adbafb60e01b81146122fe573d6000803e3d6000fd5b506020600460003e604060205260243d03602460403e601c3d016000f35b61232586612523565b60008061233b8b8b8b8b8b8b8b8b63ffffffff16565b509150915061234d818463ffffffff16565b8051601f1982018390526343adbafb603f1983015260200260231982016044820181fd5b60009081526008602052604090205490565b600080600080600080600061239788612f9b565b96506123a288612fa8565b95506123ad88612fb5565b94506123b888612fc2565b93506123c388612fcf565b92506123ce88612fdc565b91506123d988611dfe565b9050919395979092949650565b6000828202611a2884158061240357508385838161240057fe5b04145b6003611c0d565b60008161241d5761241d60006004611c0d565b8261242a57506000610778565b670de0b6b3a76400008381029084828161244057fe5b04146124525761245260006005611c0d565b82818161245b57fe5b04949350505050565b6040516334171a8560e01b815260009073__QueryProcessor________________________906334171a85906124a590600890889088908890600401615213565b60206040518083038186803b1580156124bd57600080fd5b505af41580156124d1573d6000803e3d6000fd5b505050506040513d601f19601f820116820180604052508101906124f59190614e02565b949350505050565b612505614900565b61250f6001612fe9565b815261251b6000612fe9565b602082015290565b61254a8160008151811061253357fe5b60200260200101516125456001611f43565b6123e6565b8160008151811061255757fe5b6020026020010181815250506122428160018151811061257357fe5b60200260200101516125456000611f43565b611a16828261303d565b6000606080600061259e6124fd565b905060006125ad8983836120f3565b905060006125bb8383612e30565b90506125ce898b60008151811061212157fe5b6125d782612eaa565b6000806125e48c8a6130f4565b600b54919350915060ff161561260e5761260e826126018f610ec3565b612609610843565b61312e565b612622848361261b610843565b6001612f23565b600a556040805160028082526060820183528492849291906020830190803683370190505097509750975050505050509750975097945050505050565b6126868160008151811061266f57fe5b60200260200101516126816001611f43565b613240565b8160008151811061269357fe5b602002602001018181525050612242816001815181106126af57fe5b60200260200101516126816000611f43565b604080516002808252606080830184529260208301908036833701905050905061272b7f00000000000000000000000000000000000000000000000000000000000000007f0000000000000000000000000000000000000000000000000000000000000000613273565b8160008151811061273857fe5b60200260200101818152505061278e7f00000000000000000000000000000000000000000000000000000000000000007f0000000000000000000000000000000000000000000000000000000000000000613273565b8160018151811061279b57fe5b60200260200101818152505090565b6009546127b6816120a5565b80156127c157508543115b1561284c5760006127d486858786613313565b905060006127ed878688876127e88861207e565b61332d565b905060006127fa84612098565b905060006128078561208b565b905060006128208284878761281b8b612072565b613371565b90508083146118915761283386826133c8565b955061283f86426133d6565b6009819055955050505050505b505050505050565b600082820283158061286e57508284828161286b57fe5b04145b61287e5761287e60006003611c0d565b8061288d576000915050610778565b670de0b6b3a764000060001982015b0460010191505092915050565b600082821115611a4d57611a4d60006001611c0d565b60006128d28585886060015186866133e4565b90505b95945050505050565b6000611a288383612f7b565b60006128d285858860600151868661344e565b6000611a288383613240565b6000670de0b6b3a76400008210612921576000610778565b50670de0b6b3a76400000390565b6000816129425761294260006004611c0d565b8261294f57506000610778565b670de0b6b3a76400008381029084828161296557fe5b041461298957612989670de0b6b3a764000085838161298057fe5b04146005611c0d565b82600182038161289c57fe5b600061299f611309565b6001600160a01b031663aaabadc56040518163ffffffff1660e01b815260040160206040518083038186803b1580156129d757600080fd5b505afa1580156129eb573d6000803e3d6000fd5b505050506040513d601f19601f82011682018060405250810190610ac891906149d7565b6000806000806000612a228888886134ae565b9350935093509350612a3684848484613628565b98975050505050505050565b6000612a4c611e0a565b82604051602001808061190160f01b81525060020183815260200182815260200192505050604051602081830303815290604052805190602001209050919050565b600060606000612a9d8461369c565b9050612ab86000826003811115612ab057fe5b1460ce611c0d565b6000612ac3856136bb565b9050612ad1815160026120bf565b612ada81612523565b6000612ae46124fd565b90506000612af38383836120f3565b90506000612b028260026123e6565b600a929092555099919850909650505050505050565b611a16828261376f565b505050565b6001600160a01b03918216600090815260016020908152604080832093909416825291909152205490565b60408051600280825260608083018452926000929190602083019080368337019050509050612b816001613804565b81600081518110612b8e57fe5b602002602001018181525050612ba46000613804565b81600181518110612bb157fe5b6020908102919091010152905090565b600281511015612bd057610840565b600081600081518110612bdf57fe5b602002602001015190506000600190505b8251811015612b22576000838281518110612c0757fe5b60200260200101519050612c30816001600160a01b0316846001600160a01b0316106065611c0d565b9150600101612bf0565b600073ba1ba1ba1ba1ba1ba1ba1ba1ba1ba1ba1ba1ba1b612c596112e5565b6001600160a01b031614158015612c745750612c7483613858565b15612c9c57612c816112e5565b6001600160a01b0316336001600160a01b0316149050610778565b612ca4612995565b6001600160a01b0316639be2a8848484306040518463ffffffff1660e01b815260040180848152602001836001600160a01b03168152602001826001600160a01b03168152602001935050505060206040518083038186803b158015612d0957600080fd5b505afa158015612d1d573d6000803e3d6000fd5b505050506040513d6020811015612d3357600080fd5b50519050610778565b62461bcd60e51b6000908152602060045260076024526642414c23000030600a808404818106603090810160081b95839006959095019082900491820690940160101b939093010160c81b604452606490fd5b6000612d9e8484111583611c0d565b5050900390565b600080612db18361388a565b90506000808213612dca57652d79883d20008203612dd4565b652d79883d200082015b655af3107a40009005949350505050565b6000611a288383836138ee565b6000611a28838360166138ee565b1b90565b661fffffffffffff91909116901b90565b623fffff91909116901b90565b1c637fffffff1690565b4690565b612e38614900565b612e4b600184815b602002015184613905565b8152612e5960008481612e40565b602082015292915050565b600082821c623fffff16621fffff8113612e7e57806124f5565b623fffff19179392505050565b1c6103ff1690565b1c60019081161490565b1c6001600160401b031690565b600080600080612ebc600a5486613925565b9350935093509350612ed08484848461398e565b5050505050565b600060606000612ee68461369c565b90506001816003811115612ef657fe5b1415612f1057612f0685856139ae565b9093509150612f1b565b612f1b610150612d3c565b509250929050565b60008115612f55576000612f4184612f3b8888612854565b9061292f565b9050612f4d86826139e0565b9150506124f5565b6000612f6584610de888886139f8565b9050612f7186826128a9565b9695505050505050565b6000612f8a8215156004611c0d565b818381612f9357fe5b049392505050565b60006107788260ea612e64565b60006107788260b5613a31565b600061077882609f612e64565b600061077882606a613a31565b6000610778826054612e64565b600061077882601f613a31565b600081613016577f0000000000000000000000000000000000000000000000000000000000000000610778565b507f0000000000000000000000000000000000000000000000000000000000000000919050565b6130546001600160a01b038316151561019b611c0d565b61306082600083612b22565b6001600160a01b03821660009081526020819052604090205461308690826101a1612d8f565b6001600160a01b0383166000908152602081905260409020556002546130ac9082613a64565b6002556040805182815290516000916001600160a01b038516917fddf252ad1be2c89b69c2b068fc378daa952ba7f163c4a11628f55a4df523b3ef9181900360200190a35050565b6000606060006131038461369c565b9050600381600381111561311357fe5b141561312357612f068585613a72565b612f1b610136612d3c565b60408051606081018252600b5460ff81161515825261010081046001600160781b031660208301819052600160801b9091046001600160801b0316928201929092529061317b85856139e0565b11156040518060400160405280601a81526020017f6f7665722061646472657373206c697175696469747920636170000000000000815250906131d15760405162461bcd60e51b81526004016107cf9190615272565b5060408101516001600160801b03166131ea85846139e0565b11156040518060400160405280601981526020017f6f76657220676c6f62616c206c6971756964697479206361700000000000000081525090612ed05760405162461bcd60e51b81526004016107cf9190615272565b600061324f8215156004611c0d565b8261325c57506000610778565b81600184038161326857fe5b046001019050610778565b6000806000613280611309565b6001600160a01b031663b05f8e48613296610ae6565b876040518363ffffffff1660e01b81526004016132b4929190615180565b60806040518083038186803b1580156132cc57600080fd5b505afa1580156132e0573d6000803e3d6000fd5b505050506040513d601f19601f820116820180604052508101906133049190614ffb565b50500193909302949350505050565b60008061332286868686613a97565b9050612f7181612da5565b60008061333c87878787613a97565b9050600061335461334d8784612854565b89906139e0565b9050600061336182612da5565b9490940398975050505050505050565b60008061338d858585426133848b612371565b93929190613ab0565b90506078428890031015806133a257866133ab565b6133ab87613b02565b600081815260086020526040902092909255509695505050505050565b6000611a288383604b613b0f565b6000611a288383602c613b1f565b6000806134036133fc85670de0b6b3a7640002612854565b88906139e0565b9050600061341c6133fc85670de0b6b3a763ffff6139f8565b905061343561342b83886139e0565b610de883896139f8565b92505050848111156128d5576128d56000610165613b31565b600084841115613465576134656000610165613b31565b600061347c6133fc85670de0b6b3a7640002612854565b905060006134956133fc85670de0b6b3a763ffff6139f8565b9050612a366134a482886128a9565b612f3b8489612854565b60008080806134cf6134c0878761240a565b670de0b6b3a7640000906128a9565b935060006134fa86896001815181106134e457fe5b602002602001015161240a90919063ffffffff16565b90506000613525888a60008151811061350f57fe5b60200260200101516139f890919063ffffffff16565b905061353182826139e0565b94506135588960018151811061354357fe5b60200260200101518a60008151811061350f57fe5b9250505061358f86613589886135898b60008151811061357457fe5b60200260200101518c60008151811061350f57fe5b906139f8565b915060006135cf86610de889613589670de0b6b3a76400006002026135898e6001815181106135ba57fe5b60200260200101518f60008151811061350f57fe5b905060006136056135e08880612854565b610de88b6001815181106135f057fe5b60200260200101518c60018151811061350f57fe5b905061361b8161361586856139e0565b906139e0565b9350505093509350935093565b60008061363d86671bc16d674ec80000612854565b905060006136578761358986673782dace9d9000006139f8565b9050600061366586836139e0565b90506000613674826005613b3f565b9050600061368289836139e0565b905061368e818661240a565b9a9950505050505050505050565b60008180602001905160208110156136b357600080fd5b505192915050565b60608180602001905160408110156136d257600080fd5b8151602083018051604051929492938301929190846401000000008211156136f957600080fd5b90830190602082018581111561370e57600080fd5b825186602082028301116401000000008211171561372b57600080fd5b82525081516020918201928201910280838360005b83811015613758578181015183820152602001613740565b505050509190910160405250929695505050505050565b61377b60008383612b22565b6002546137889082611f31565b6002556001600160a01b0382166000908152602081905260409020546137ae9082611f31565b6001600160a01b0383166000818152602081815260408083209490945583518581529351929391927fddf252ad1be2c89b69c2b068fc378daa952ba7f163c4a11628f55a4df523b3ef9281900390910190a35050565b600081613831577f0000000000000000000000000000000000000000000000000000000000000000610778565b507f0000000000000000000000000000000000000000000000000000000000000000919050565b600061386a631c74c91760e11b611267565b82148061077857506138826350dd6ed960e01b611267565b909114919050565b600061389a600083136064611c0d565b670c7d713b49da0000821380156138b85750670f43fc2c04ee000082125b156138de57670de0b6b3a76400006138cf83613ccd565b816138d657fe5b059050610edd565b6138e782613deb565b9050610edd565b623fffff828116821b90821b198416179392505050565b60008361391b57613916828461418a565b6124f5565b6124f58284614196565b6000806000806000806000806139396141a2565b9350935093509350836000141561395e57600097508796509094509250613985915050565b6000806139758c8c61396e610843565b8989614411565b909a509850929650909450505050505b92959194509250565b831561399e5761399e8285612b18565b8215610ab857610ab88184612b18565b6000606060006139bd846144a6565b905060006139d386836139ce610843565b6144c8565b9196919550909350505050565b600082820183811015611a2857611a28600080611c0d565b6000828202831580613a12575082848281613a0f57fe5b04145b613a2257613a2260006003611c0d565b670de0b6b3a76400008161245b565b600082821c661fffffffffffff16660fffffffffffff8113613a5357806124f5565b661fffffffffffff19179392505050565b6000611a2883836001612d8f565b600060606000613a81846144a6565b905060006139d38683613a92610843565b61454d565b60006128d5613aa684846139e0565b612f3b87876139e0565b600080613abc87611dfe565b830390506000818702613ace89612fa8565b0190506000828702613adf8a612fc2565b0190506000838702613af08b612fdc565b01905061368e89848a858b868c611d9e565b60006107788260016145e8565b6103ff811b1992909216911b1790565b637fffffff811b1992909216911b1790565b81611a1657611a16816145f0565b600082613b4e57506000610778565b6000613b5984614600565b9050600281670de0b6b3a7640000860281613b7057fe5b04820181613b7a57fe5b049050600281670de0b6b3a7640000860281613b9257fe5b04820181613b9c57fe5b049050600281670de0b6b3a7640000860281613bb457fe5b04820181613bbe57fe5b049050600281670de0b6b3a7640000860281613bd657fe5b04820181613be057fe5b049050600281670de0b6b3a7640000860281613bf857fe5b04820181613c0257fe5b049050600281670de0b6b3a7640000860281613c1a57fe5b04820181613c2457fe5b049050600281670de0b6b3a7640000860281613c3c57fe5b04820181613c4657fe5b0490506000613c5582806139f8565b9050613c6b613c648386612854565b86906139e0565b8111158015613c8d5750613c89613c828386612854565b86906128a9565b8110155b6115ec576040805162461bcd60e51b815260206004820152600c60248201526b17dcdc5c9d0811905253115160a21b604482015290519081900360640190fd5b670de0b6b3a7640000026000806a0c097ce7bc90715b34b9f160241b808401906ec097ce7bc90715b34b9f0fffffffff1985010281613d0857fe5b05905060006a0c097ce7bc90715b34b9f160241b82800205905081806a0c097ce7bc90715b34b9f160241b81840205915060038205016a0c097ce7bc90715b34b9f160241b82840205915060058205016a0c097ce7bc90715b34b9f160241b82840205915060078205016a0c097ce7bc90715b34b9f160241b82840205915060098205016a0c097ce7bc90715b34b9f160241b828402059150600b8205016a0c097ce7bc90715b34b9f160241b828402059150600d8205016a0c097ce7bc90715b34b9f160241b828402059150600f826002919005919091010295945050505050565b6000670de0b6b3a7640000821215613e2757613e1d826a0c097ce7bc90715b34b9f160241b81613e1757fe5b05613deb565b6000039050610edd565b60007e1600ef3172e58d2e933ec884fde10064c63b5372d805e203c00000000000008312613e7857770195e54c5dd42177f53a27172fa9ec630262827000000000830592506806f05b59d3b2000000015b73011798004d755d3c8bc8e03204cf44619e0000008312613eb0576b1425982cf597cd205cef7380830592506803782dace9d9000000015b606492830292026e01855144814a7ff805980ff00840008312613ef8576e01855144814a7ff805980ff008400068056bc75e2d63100000840205925068ad78ebc5ac62000000015b6b02df0ab5a80a22c61ab5a7008312613f33576b02df0ab5a80a22c61ab5a70068056bc75e2d6310000084020592506856bc75e2d631000000015b693f1fce3da636ea5cf8508312613f6a57693f1fce3da636ea5cf85068056bc75e2d631000008402059250682b5e3af16b18800000015b690127fa27722cc06cc5e28312613fa157690127fa27722cc06cc5e268056bc75e2d6310000084020592506815af1d78b58c400000015b68280e60114edb805d038312613fd65768280e60114edb805d0368056bc75e2d631000008402059250680ad78ebc5ac6200000015b680ebc5fb41746121110831261400157680ebc5fb4174612111068056bc75e2d631000009384020592015b6808f00f760a4b2db55d8312614036576808f00f760a4b2db55d68056bc75e2d6310000084020592506802b5e3af16b1880000015b6806f5f1775788937937831261406b576806f5f177578893793768056bc75e2d63100000840205925068015af1d78b58c40000015b6806248f33704b286603831261409f576806248f33704b28660368056bc75e2d63100000840205925067ad78ebc5ac620000015b6805c548670b9510e7ac83126140d3576805c548670b9510e7ac68056bc75e2d6310000084020592506756bc75e2d6310000015b600068056bc75e2d63100000840168056bc75e2d6310000080860302816140f657fe5b059050600068056bc75e2d63100000828002059050818068056bc75e2d63100000818402059150600382050168056bc75e2d63100000828402059150600582050168056bc75e2d63100000828402059150600782050168056bc75e2d63100000828402059150600982050168056bc75e2d63100000828402059150600b820501600202606485820105979650505050505050565b6000611a2883836139f8565b6000611a28838361240a565b600e5460405163bd02d0f560e01b81526000918291829182916001600160a01b039091169063bd02d0f5906141f4907550524f544f434f4c5f535741505f4645455f5045524360501b90600401615177565b60206040518083038186803b15801561420c57600080fd5b505afa158015614220573d6000803e3d6000fd5b505050506040513d601f19601f820116820180604052508101906142449190614e02565b600e5460405163bd02d0f560e01b81526001600160a01b039091169063bd02d0f590614294907f50524f544f434f4c5f4645455f4759524f5f504f5254494f4e0000000000000090600401615177565b60206040518083038186803b1580156142ac57600080fd5b505afa1580156142c0573d6000803e3d6000fd5b505050506040513d601f19601f820116820180604052508101906142e49190614e02565b600e546040516321f8a72160e01b81526001600160a01b03909116906321f8a72190614324906c4759524f5f545245415355525960981b90600401615177565b60206040518083038186803b15801561433c57600080fd5b505afa158015614350573d6000803e3d6000fd5b505050506040513d601f19601f8201168201806040525081019061437491906149d7565b600e546040516321f8a72160e01b81526001600160a01b03909116906321f8a721906143b3906b42414c5f545245415355525960a01b90600401615177565b60206040518083038186803b1580156143cb57600080fd5b505afa1580156143df573d6000803e3d6000fd5b505050506040513d601f19601f8201168201806040525081019061440391906149d7565b935093509350935090919293565b6000808686116144265750600090508061449c565b6000614440856135896144398a8c6128a9565b89906139f8565b90506000614458614451898b6128a9565b87906139f8565b9050600061446689836128a9565b90506000614474848361240a565b9050600061448288836139f8565b9050600061449083836128a9565b91975090955050505050505b9550959350505050565b60008180602001905160408110156144bd57600080fd5b506020015192915050565b606083516001600160401b03811180156144e157600080fd5b5060405190808252806020026020018201604052801561450b578160200160208202803683370190505b50905060005b84518110156115ec5761452e83610de88688858151811061350f57fe5b82828151811061453a57fe5b6020908102919091010152600101614511565b606083516001600160401b038111801561456657600080fd5b50604051908082528060200260200182016040528015614590578160200160208202803683370190505b50905060005b84518110156115ec576145c983612f3b868885815181106145b357fe5b602002602001015161285490919063ffffffff16565b8282815181106145d557fe5b6020908102919091010152600101614596565b016103ff1690565b610840816223aca960e91b6147d2565b6000670de0b6b3a7640000821061462d57670de0b6b3a7640000614625818404614833565b1b9050610edd565b600a8211614640575063bc7c871c610edd565b6064821161465457506402540be400610edd565b6103e88211614669575064075cdd4719610edd565b612710821161467e575064174876e800610edd565b620186a0821161469457506449a0a4c700610edd565b620f424082116146aa575064e8d4a51000610edd565b6298968082116146c157506502e0466fc608610edd565b6305f5e10082116146d957506509184e72a000610edd565b633b9aca0082116146f15750651cc2c05dbc53610edd565b6402540be400821161470a5750655af3107a4000610edd565b64174876e8008211614724575066011f9b83a95b45610edd565b64e8d4a51000821161473e575066038d7ea4c68000610edd565b6509184e72a00082116147595750660b3c13249d90bb610edd565b655af3107a400082116147745750662386f26fc10000610edd565b66038d7ea4c6800082116147905750667058bf6e27a751610edd565b662386f26fc1000082116147ad575067016345785d8a0000610edd565b67016345785d8a000082116147cb5750670463777a4d8c892d610edd565b5080610edd565b62461bcd60e51b600090815260206004526007602452600a808404818106603090810160081b958390069590950190829004918206850160101b01602363ffffff0060e086901c160160181b0190930160c81b60445260e882901c90606490fd5b6000600160801b821061484b5760809190911c906040015b6801000000000000000082106148665760409190911c906020015b640100000000821061487d5760209190911c906010015b6201000082106148925760109190911c906008015b61010082106148a65760089190911c906004015b601082106148b95760049190911c906002015b60048210610edd57600101919050565b604080516060810182526000808252602082018190529181019190915290565b604080518082019091526000808252602082015290565b60405180604001604052806002906020820280368337509192915050565b8035610edd816153a2565b80358015158114610edd57600080fd5b600082601f830112614949578081fd5b81356001600160401b0381111561495c57fe5b61496f601f8201601f1916602001615362565b818152846020838601011115614983578283fd5b816020850160208301379081016020019190915292915050565b803560028110610edd57600080fd5b803560038110610edd57600080fd5b6000602082840312156149cc578081fd5b8135611a28816153a2565b6000602082840312156149e8578081fd5b8151611a28816153a2565b60008060408385031215614a05578081fd5b8235614a10816153a2565b91506020830135614a20816153a2565b809150509250929050565b600080600060608486031215614a3f578081fd5b8335614a4a816153a2565b92506020840135614a5a816153a2565b929592945050506040919091013590565b600080600080600080600060e0888a031215614a85578485fd5b8735614a90816153a2565b96506020880135614aa0816153a2565b95506040880135945060608801359350608088013560ff81168114614ac3578384fd5b9699959850939692959460a0840135945060c09093013592915050565b60008060408385031215614af2578182fd5b8235614afd816153a2565b946020939093013593505050565b60006020808385031215614b1d578182fd5b82356001600160401b0380821115614b33578384fd5b818501915085601f830112614b46578384fd5b8135614b59614b5482615385565b615362565b818152848101908486016040808502870188018b1015614b77578889fd5b8896505b84871015614bcf5780828c031215614b91578889fd5b80518181018181108882111715614ba457fe5b8252614baf836149ac565b815282890135898201528452600196909601959287019290810190614b7b565b50909998505050505050505050565b60006020808385031215614bf0578182fd5b82356001600160401b0380821115614c06578384fd5b818501915085601f830112614c19578384fd5b8135614c27614b5482615385565b818152848101908486016060808502870188018b1015614c45578889fd5b8896505b84871015614bcf5780828c031215614c5f578889fd5b604080518281018181108982111715614c7457fe5b8252614c7f846149ac565b8152838a01358a82015281840135918101919091528452600196909601959287019290810190614c49565b600060208284031215614cbb578081fd5b611a2882614929565b600080600080600080600060e0888a031215614cde578081fd5b87359650602080890135614cf1816153a2565b96506040890135614d01816153a2565b955060608901356001600160401b0380821115614d1c578384fd5b818b0191508b601f830112614d2f578384fd5b8135614d3d614b5482615385565b8082825285820191508585018f878886028801011115614d5b578788fd5b8795505b83861015614d7d578035835260019590950194918601918601614d5f565b509850505060808b0135955060a08b0135945060c08b0135925080831115614da3578384fd5b5050614db18a828b01614939565b91505092959891949750929550565b600060208284031215614dd1578081fd5b81356001600160e01b031981168114611a28578182fd5b600060208284031215614df9578081fd5b611a28826149ac565b600060208284031215614e13578081fd5b5051919050565b600060608284031215614e2b578081fd5b604051606081018181106001600160401b0382111715614e4757fe5b604052614e5383614929565b815260208301356001600160781b0381168114614e6e578283fd5b602082015260408301356001600160801b0381168114614e8c578283fd5b60408201529392505050565b600080600060608486031215614eac578081fd5b83356001600160401b0380821115614ec2578283fd5b8186019150610120808389031215614ed8578384fd5b614ee181615362565b9050614eec8361499d565b8152614efa6020840161491e565b6020820152614f0b6040840161491e565b6040820152606083013560608201526080830135608082015260a083013560a0820152614f3a60c0840161491e565b60c0820152614f4b60e0840161491e565b60e08201526101008084013583811115614f63578586fd5b614f6f8a828701614939565b9183019190915250976020870135975060409096013595945050505050565b600060208284031215614f9f578081fd5b5035919050565b60008060408385031215614fb8578182fd5b50508035926020909101359150565b600080600060608486031215614fdb578081fd5b8335925060208401359150614ff260408501614929565b90509250925092565b60008060008060808587031215615010578182fd5b8451935060208501519250604085015191506060850151615030816153a2565b939692955090935050565b6000815180845260208085019450808401835b8381101561506a5781518752958201959082019060010161504e565b509495945050505050565b6003811061507f57fe5b9052565b6000828483379101908152919050565b6001600160a01b0391909116815260200190565b6020808252825182820181905260009190848201906040850190845b818110156150df578351835292840192918401916001016150c3565b50909695505050505050565b60408101818360005b60028110156151135781518352602092830192909101906001016150f4565b50505092915050565b600060208252611a28602083018461503b565b600060408252615142604083018561503b565b82810360208401526128d5818561503b565b901515815260200190565b92151583526020830191909152604082015260600190565b90815260200190565b9182526001600160a01b0316602082015260400190565b968752602087019590955260408601939093526060850191909152608084015260a083015260c082015260e00190565b9586526020860194909452604085019290925260608401521515608083015260a082015260c00190565b838152606081016152056020830185615075565b826040830152949350505050565b848152608081016152276020830186615075565b60408201939093526060015292915050565b600060a082019050848252615252602083018551615075565b602084015160408381019190915290930151606082015260800152919050565b6000602080835283518082850152825b8181101561529e57858101830151858201604001528201615282565b818111156152af5783604083870101525b50601f01601f1916929092016040019392505050565b8151151581526020808301516001600160781b0316908201526040918201516001600160801b03169181019190915260600190565b905460ff811615158252600881901c6001600160781b0316602083015260801c604082015260600190565b6000838252604060208301526124f5604083018461503b565b9283526020830191909152604082015260600190565b60ff91909116815260200190565b6040518181016001600160401b038111828210171561537d57fe5b604052919050565b60006001600160401b0382111561539857fe5b5060209081020190565b6001600160a01b038116811461084057600080fdfea26469706673582212202f53fdb05bd0962b95a66cdefc384c0a5c26cdad2ae535ab00ee32b2e0cf008464736f6c63430007060033","bytecodeSha1":"0dc12d8c7dbe1fdd647cc798ea4d3c984005dee7","compiler":{"evm_version":"berlin","optimizer":{"enabled":true,"runs":200},"version":"0.7.6+commit.7338295f"},"contractName":"Gyro2CLPPool","deployedBytecode":"608060405234801561001057600080fd5b50600436106103275760003560e01c8063707dcd1e116101b85780639b02cdde11610104578063b48b5b40116100a2578063d5c096c41161007c578063d5c096c41461069b578063dd62ed3e146106ae578063f89f27ed146106c1578063ffd088eb146106c957610327565b8063b48b5b4014610678578063c0ff1a1514610680578063d505accf1461068857610327565b8063a9059cbb116100de578063a9059cbb14610642578063aaabadc514610655578063abd13afe1461065d578063b10be7391461066557610327565b80639b02cdde146106145780639d2c110c1461061c578063a457c2d71461062f57610327565b80638456cb5911610171578063893d20e81161014b578063893d20e8146105f45780638d928af8146105fc5780638dd9f89d1461060457806395d89b411461060c57610327565b80638456cb59146105c6578063851c1bb3146105ce57806387ec6817146105e157610327565b8063707dcd1e1461054457806370a082311461055957806374f3b0091461056c57806376e54a461461058d5780637ecebe00146105a05780638002df18146105b357610327565b806338fff2d0116102775780634a6b0b151161023057806360d1507c1161020a57806360d1507c146104ee578063679aefce146105145780636b8432391461051c5780636d785a871461053c57610327565b80634a6b0b15146104ab57806355c67628146104c55780636028bfd4146104cd57610327565b806338fff2d01461043c57806339509351146104445780633aeae0d3146104575780633c4dd5bb1461046c5780633f4ba83a1461048e57806344bbdb551461049657610327565b80631dccd830116102e4578063313ce567116102be578063313ce567146103f95780633331bc361461040e5780633644e5151461042157806338e9922e1461042957610327565b80631dccd830146103be57806323b872dd146103de578063292c914a146103f157610327565b806306fdde031461032c578063095ea7b31461034a5780630e608b301461036a57806316c38b3c1461037f57806318160ddd146103925780631c0de051146103a7575b600080fd5b6103346106d1565b6040516103419190615272565b60405180910390f35b61035d610358366004614ae0565b610767565b6040516103419190615154565b61037d6103783660046149bb565b61077e565b005b61037d61038d366004614caa565b61082f565b61039a610843565b6040516103419190615177565b6103af610849565b6040516103419392919061515f565b6103d16103cc366004614bde565b610872565b604051610341919061511c565b61035d6103ec366004614a2b565b610995565b61037d610a09565b610401610a3d565b6040516103419190615354565b61037d61041c366004614fa6565b610a46565b61039a610abe565b61037d610437366004614f8e565b610acd565b61039a610ae6565b61035d610452366004614ae0565b610b0a565b61045f610b45565b60405161034191906152c5565b61047f61047a366004614fc7565b610b90565b6040516103419392919061533e565b61037d610be3565b61049e610cd8565b6040516103419190615093565b6104b3610ce7565b604051610341969594939291906151c7565b61039a610d42565b6104e06104db366004614cc4565b610d4f565b604051610341929190615325565b6105016104fc366004614f8e565b610d80565b6040516103419796959493929190615197565b61039a610dc9565b61052f61052a366004614b0b565b610dee565b60405161034191906150a7565b61049e610ea4565b61054c610eb3565b60405161034191906150eb565b61039a6105673660046149bb565b610ec3565b61057f61057a366004614cc4565b610ee2565b60405161034192919061512f565b61037d61059b366004614e1a565b610f87565b61039a6105ae3660046149bb565b6110ae565b61037d6105c13660046149bb565b6110c9565b61037d6111af565b61039a6105dc366004614dc0565b611267565b6104e06105ef366004614cc4565b6112c0565b61049e6112e5565b61049e611309565b6103d161132d565b6103346113c7565b61039a611428565b61039a61062a366004614e98565b61142e565b61035d61063d366004614ae0565b6115f4565b61035d610650366004614ae0565b611632565b61049e61163f565b61049e611649565b61039a610673366004614de8565b611658565b61039a6116ed565b61039a6116f3565b61037d610696366004614a6b565b61172e565b61057f6106a9366004614cc4565b61189e565b61039a6106bc3660046149f3565b6119be565b6103d16119fb565b61039a611a05565b60038054604080516020601f600260001961010060018816150201909516949094049384018190048102820181019092528281526060939092909183018282801561075d5780601f106107325761010080835404028352916020019161075d565b820191906000526020600020905b81548152906001019060200180831161074057829003601f168201915b5050505050905090565b6000610774338484611a8f565b5060015b92915050565b600c5460408051808201909152600e81526d1b9bdd08185d5d1a1bdc9a5e995960921b6020820152906001600160a01b031633146107d85760405162461bcd60e51b81526004016107cf9190615272565b60405180910390fd5b50600c80546001600160a01b0319166001600160a01b0383161790556040517fb8fd9afc34c38fcd13b9a3b7646482eb1fddcefb40af2c70609972816eba320890610824908390615093565b60405180910390a150565b610837611af1565b61084081611b1f565b50565b60025490565b6000806000610856611b9b565b159250610861611bb8565b915061086b611bdc565b9050909192565b606081516001600160401b038111801561088b57600080fd5b506040519080825280602002602001820160405280156108b5578160200160208202803683370190505b50905060006108c2611c00565b905060005b835181101561098e5773__$85f042f43089d976c21d0d184f206dc395$__6379eaef8260088684815181106108f857fe5b6020026020010151856040518463ffffffff1660e01b815260040161091f93929190615239565b60206040518083038186803b15801561093757600080fd5b505af415801561094b573d6000803e3d6000fd5b505050506040513d601f19601f8201168201806040525081019061096f9190614e02565b83828151811061097b57fe5b60209081029190910101526001016108c7565b5050919050565b6000806109a285336119be565b90506109c6336001600160a01b03871614806109be5750838210155b61019e611c0d565b6109d1858585611c1b565b336001600160a01b038616148015906109ec57506000198114155b156109fe576109fe8533858403611a8f565b506001949350505050565b610a11611d03565b610a19611af1565b610a236001611d16565b6000610a2d610843565b1115610a3b57610a3b611d56565b565b60055460ff1690565b610a618183108015610a5a57506104008211155b6064611c0d565b6000610a766001600080600080600080611d9e565b9050825b82811015610ab857600081815260086020526040902054610a9a90611dfe565b610ab05760008181526008602052604090208290555b600101610a7a565b50505050565b6000610ac8611e0a565b905090565b610ad5611af1565b610add611d03565b61084081611ec8565b7f000000000000000000000000000000000000000000000000000000000000000090565b3360008181526001602090815260408083206001600160a01b03871684529091528120549091610774918590610b409086611f31565b611a8f565b610b4d6148c9565b5060408051606081018252600b5460ff81161515825261010081046001600160781b03166020830152600160801b90046001600160801b03169181019190915290565b600080600080610b9f85611f43565b90506000610bad8615611f43565b9050610bb98883611f97565b9750610bc58782611f97565b9650610bd2888888611fa3565b945094509450505093509350939050565b600d546040805180820190915260118152703737ba103830bab9b29036b0b730b3b2b960791b6020820152906001600160a01b03163314610ca25760405162461bcd60e51b81526004018080602001828103825283818151815260200191508051906020019080838360005b83811015610c67578181015183820152602001610c4f565b50505050905090810190601f168015610c945780820380516001836020036101000a031916815260200191505b509250505060405180910390fd5b50610cad6000610837565b6040517f215385c8bfc731925ec8068d7baa50f6b6f34417cc7804f7273dc2c0b3db279090600090a1565b600e546001600160a01b031681565b60008060008060008060006009549050610d0081612072565b9650610d0b8161207e565b9550610d168161208b565b9450610d2181612098565b9350610d2c816120a5565b9250610d37816120b2565b915050909192939495565b6000610ac86009546120b2565b60006060610d5f865160026120bf565b610d74898989898989896120cc6121e061225e565b97509795505050505050565b6000806000806000806000610d9b610400891061013b611c0d565b6000610da689612371565b9050610db181612383565b959f949e50929c50909a509850965090945092505050565b6000610ac8610dd6610843565b610de8610de16116f3565b60026123e6565b9061240a565b606081516001600160401b0381118015610e0757600080fd5b50604051908082528060200260200182016040528015610e31578160200160208202803683370190505b5090506000610e3e611c00565b9050610e486148e9565b60005b8451811015610e9c57848181518110610e6057fe5b60200260200101519150610e7d8260000151848460200151612464565b848281518110610e8957fe5b6020908102919091010152600101610e4b565b505050919050565b600c546001600160a01b031681565b610ebb614900565b610ac86124fd565b6001600160a01b0381166000908152602081905260409020545b919050565b60608088610f0c610ef1611309565b6001600160a01b0316336001600160a01b03161460cd611c0d565b610f21610f17610ae6565b82146101f4611c0d565b610f2a87612523565b6000806000610f3e8d8d8d8d8d8d8d6120cc565b925092509250610f4e8c84612585565b610f57826121e0565b610f60816121e0565b610f68611b9b565b15610f7557610f75611d56565b909c909b509950505050505050505050565b600c5460408051808201909152600e81526d1b9bdd08185d5d1a1bdc9a5e995960921b6020820152906001600160a01b03163314610fd85760405162461bcd60e51b81526004016107cf9190615272565b50600b5460408051808201909152601081526f1c1bdbdb081a5cc81d5b98d85c1c195960821b60208201529060ff166110245760405162461bcd60e51b81526004016107cf9190615272565b508051600b8054602084015160408086015160ff19909316941515949094176fffffffffffffffffffffffffffffff0019166101006001600160781b0390921691909102176001600160801b03908116600160801b919092160217815590517f2abf5970d7bc1a2b36eaae52dd2cc353edb0337c7284ef8a01973081b4e0442491610824916152fa565b6001600160a01b031660009081526006602052604090205490565b600d546040805180820190915260118152703737ba103830bab9b29036b0b730b3b2b960791b60208201526001600160a01b039091169033821461114e5760405162461bcd60e51b8152602060048201818152835160248401528351909283926044909101919085019080838360008315610c67578181015183820152602001610c4f565b50600d80546001600160a01b0319166001600160a01b03848116918217909255604080519284168352602083019190915280517f1ffccd1fa96f4fb3415df8048a0fd107344e262d2d246c85105e2a3f8f3e81989281900390910190a15050565b600d546040805180820190915260118152703737ba103830bab9b29036b0b730b3b2b960791b6020820152906001600160a01b031633146112315760405162461bcd60e51b8152602060048201818152835160248401528351909283926044909101919085019080838360008315610c67578181015183820152602001610c4f565b5061123c6001610837565b6040517f681eace576127d0553b224436a09801fb47d042942cbff59d7d4ff04d8fa03d790600090a1565b604080517f00000000000000000000000000000000000000000000000000000000000000006020808301919091526001600160e01b03198416828401528251602481840301815260449092019092528051910120919050565b600060606112d0865160026120bf565b610d748989898989898961258f61265f61225e565b7f000000000000000000000000000000000000000000000000000000000000000090565b7f000000000000000000000000000000000000000000000000000000000000000090565b606060006113396126c1565b60408051600280825260608201835292935091906020830190803683370190505091506113908160008151811061136c57fe5b60200260200101518260018151811061138157fe5b60200260200101516001611fa3565b909150836000815181106113a057fe5b60200260200101846001815181106113b457fe5b6020908102919091010191909152525090565b60048054604080516020601f600260001961010060018816150201909516949094049384018190048102820181019092528281526060939092909183018282801561075d5780601f106107325761010080835404028352916020019161075d565b600a5490565b6000611438611d03565b8360800151611448610ef1611309565b611453610f17610ae6565b60007f00000000000000000000000000000000000000000000000000000000000000006001600160a01b031686602001516001600160a01b0316149050600061149b82611f43565b905060006114a98315611f43565b90506114b58783611f97565b96506114c18682611f97565b955060008060006114d38a8a88611fa3565b92509250925061151a8b60a00151876114ec578a6114ee565b8b5b886114f9578c6114fb565b8b5b896115065784611508565b855b8a6115135786611515565b855b6127aa565b60008b51600181111561152957fe5b141561159857600061154761153c610d42565b60608e015190612854565b9050611569611563828e606001516128a990919063ffffffff16565b87611f97565b60608d0152600061157d8d8d8d87876128bf565b905061158981876128de565b995050505050505050506115ec565b6115a68b6060015185611f97565b60608c015260006115ba8c8c8c86866128ea565b90506115c681876128fd565b90506115e26115db6115d6610d42565b612909565b829061292f565b9850505050505050505b509392505050565b60008061160133856119be565b905080831061161b5761161633856000611a8f565b611628565b6116283385858403611a8f565b5060019392505050565b6000610774338484611c1b565b6000610ac8612995565b600d546001600160a01b031681565b600073__$85f042f43089d976c21d0d184f206dc395$__630397bee060088461167f611c00565b6040518463ffffffff1660e01b815260040161169d939291906151f1565b60206040518083038186803b1580156116b557600080fd5b505af41580156116c9573d6000803e3d6000fd5b505050506040513d601f19601f820116820180604052508101906107789190614e02565b61040090565b6000806116fe6126c1565b9050600061170a6124fd565b9050611727828260005b60200201518360015b6020020151612a0f565b9250505090565b61173c8442111560d1611c0d565b6001600160a01b0380881660008181526006602090815260408083205481517f00000000000000000000000000000000000000000000000000000000000000008185015280830195909552948b166060850152608084018a905260a0840185905260c08085018a90528151808603909101815260e090940190528251920191909120906117c882612a42565b9050600060018288888860405160008152602001604052604051808581526020018460ff1681526020018381526020018281526020019450505050506020604051602081039080840390855afa158015611826573d6000803e3d6000fd5b5050604051601f190151915061186890506001600160a01b0382161580159061186057508b6001600160a01b0316826001600160a01b0316145b6101f8611c0d565b6001600160a01b038b1660009081526006602052604090206001850190556118918b8b8b611a8f565b5050505050505050505050565b606080886118ad610ef1611309565b6118b8610f17610ae6565b6118c0611d03565b60006118ca610843565b61193a576118da8b8b8b88612a8e565b945090506118ef620f424082101560cc611c0d565b6118fd6000620f4240612b18565b61190c89620f42408303612b18565b6119158461265f565b60408051600280825260608201835290916020830190803683370190505092506119a8565b61194388612523565b611976878960008151811061195457fe5b60200260200101518a60018151811061196957fe5b6020026020010151612b22565b6119858b8b8b8b8b8b8b61258f565b909550935090506119968982612b18565b61199f8461265f565b6119a8836121e0565b6119b0611d56565b505097509795505050505050565b60006119c8611309565b6001600160a01b0316826001600160a01b031614156119ea5750600019610778565b6119f48383612b27565b9050610778565b6060610ac8612b52565b6201de2090565b80611a1681612bc1565b5050565b6000611a2883836055611a53565b9392505050565b6000611a2883836056611a7a565b6000611a4d838311156001611c0d565b50900390565b60006001821b1984168284611a69576000611a6c565b60015b60ff16901b17949350505050565b6001600160401b03811b1992909216911b1790565b6001600160a01b03808416600081815260016020908152604080832094871680845294825291829020859055815185815291517f8c5be1e5ebec7d5bd14f71427d1e84f3dd0314c0f7b2291e5b200ac8c7c3b9259281900390910190a3505050565b6000611b086000356001600160e01b031916611267565b9050610840611b178233612c3a565b610191611c0d565b8015611b3f57611b3a611b30611bb8565b4210610193611c0d565b611b54565b611b54611b4a611bdc565b42106101a9611c0d565b6007805482151560ff19909116811790915560408051918252517f9e3a5e37224532dea67b89face185703738a228a6e8a23dee546960180d3be649181900360200190a150565b6000611ba5611bdc565b421180610ac857505060075460ff161590565b7f000000000000000000000000000000000000000000000000000000000000000090565b7f000000000000000000000000000000000000000000000000000000000000000090565b6000610ac8600954612098565b81611a1657611a1681612d3c565b611c326001600160a01b0384161515610198611c0d565b611c496001600160a01b0383161515610199611c0d565b611c54838383612b22565b6001600160a01b038316600090815260208190526040902054611c7a90826101a0612d8f565b6001600160a01b038085166000908152602081905260408082209390935590841681522054611ca99082611f31565b6001600160a01b038084166000818152602081815260409182902094909455805185815290519193928716927fddf252ad1be2c89b69c2b068fc378daa952ba7f163c4a11628f55a4df523b3ef92918290030190a3505050565b610a3b611d0e611b9b565b610192611c0d565b600954611d239082611a1a565b6009556040517f3e350b41e86a8e10f804ade6d35340d620be35569cc75ac943e8bb14ab80ead190610824908390615154565b600954611d62816120a5565b1561084057611d7c611d75600a54612da5565b8290612de5565b9050611d98611d91611d8c610843565b612da5565b8290612df2565b60095550565b6000611daa8282612e00565b611db584601f612e04565b611dc0866054612e15565b611dcb88606a612e04565b611dd68a609f612e15565b611de18c60b5612e04565b611dec8e60ea612e15565b17171717171798975050505050505050565b60006107788282612e22565b60007f00000000000000000000000000000000000000000000000000000000000000007f00000000000000000000000000000000000000000000000000000000000000007f0000000000000000000000000000000000000000000000000000000000000000611e77612e2c565b3060405160200180868152602001858152602001848152602001838152602001826001600160a01b031681526020019550505050505060405160208183030381529060405280519060200120905090565b611edb64e8d4a5100082101560cb611c0d565b611ef167016345785d8a000082111560ca611c0d565b600954611efe9082611a2f565b6009556040517fa9ba3ffe0b6c366b81232caab38605a0699ad5398d6cce76f91ee809e322dafc90610824908390615177565b6000828201611a288482101583611c0d565b600081611f70577f0000000000000000000000000000000000000000000000000000000000000000610778565b507f0000000000000000000000000000000000000000000000000000000000000000919050565b6000611a2883836123e6565b60408051600280825260608201835260009283928392839260208301908036833701905050905084611fd55785611fd7565b865b81600081518110611fe457fe5b60200260200101818152505084611ffb5786611ffd565b855b8160018151811061200a57fe5b60200260200101818152505060006120206124fd565b905061202e82826000611714565b9450600061203c8287612e30565b90508661204d576020810151612050565b80515b94508661205e578051612064565b60208101515b935050505093509350939050565b60006107788282612e64565b6000610778826016612e64565b600061077882602c612e22565b600061077882604b612e8b565b6000610778826055612e93565b6000610778826056612e9d565b611a168183146067611c0d565b600060608060006120db6124fd565b90506120e5611b9b565b156121945760006121008983835b602002015184600161171d565b9050600061210e8383612e30565b905061215d898b60008151811061212157fe5b60200260200101518c60018151811061213657fe5b60200260200101518460006002811061214b57fe5b602002015185600160200201516127aa565b61216682612eaa565b6121708a88612ed7565b90965094506121898287612182610843565b6000612f23565b600a55506121aa9050565b61219e8886612ed7565b600019600a5590945092505b60408051600280825260608201835286928692919060208301908036833701905050935093509350509750975097945050505050565b612207816000815181106121f057fe5b60200260200101516122026001611f43565b612f7b565b8160008151811061221457fe5b6020026020010181815250506122428160018151811061223057fe5b60200260200101516122026000611f43565b8160018151811061224f57fe5b60200260200101818152505050565b33301461231c576000306001600160a01b0316600036604051612282929190615083565b6000604051808303816000865af19150503d80600081146122bf576040519150601f19603f3d011682016040523d82523d6000602084013e6122c4565b606091505b5050905080600081146122d357fe5b60046000803e6000516001600160e01b0319166343adbafb60e01b81146122fe573d6000803e3d6000fd5b506020600460003e604060205260243d03602460403e601c3d016000f35b61232586612523565b60008061233b8b8b8b8b8b8b8b8b63ffffffff16565b509150915061234d818463ffffffff16565b8051601f1982018390526343adbafb603f1983015260200260231982016044820181fd5b60009081526008602052604090205490565b600080600080600080600061239788612f9b565b96506123a288612fa8565b95506123ad88612fb5565b94506123b888612fc2565b93506123c388612fcf565b92506123ce88612fdc565b91506123d988611dfe565b9050919395979092949650565b6000828202611a2884158061240357508385838161240057fe5b04145b6003611c0d565b60008161241d5761241d60006004611c0d565b8261242a57506000610778565b670de0b6b3a76400008381029084828161244057fe5b04146124525761245260006005611c0d565b82818161245b57fe5b04949350505050565b6040516334171a8560e01b815260009073__$85f042f43089d976c21d0d184f206dc395$__906334171a85906124a590600890889088908890600401615213565b60206040518083038186803b1580156124bd57600080fd5b505af41580156124d1573d6000803e3d6000fd5b505050506040513d601f19601f820116820180604052508101906124f59190614e02565b949350505050565b612505614900565b61250f6001612fe9565b815261251b6000612fe9565b602082015290565b61254a8160008151811061253357fe5b60200260200101516125456001611f43565b6123e6565b8160008151811061255757fe5b6020026020010181815250506122428160018151811061257357fe5b60200260200101516125456000611f43565b611a16828261303d565b6000606080600061259e6124fd565b905060006125ad8983836120f3565b905060006125bb8383612e30565b90506125ce898b60008151811061212157fe5b6125d782612eaa565b6000806125e48c8a6130f4565b600b54919350915060ff161561260e5761260e826126018f610ec3565b612609610843565b61312e565b612622848361261b610843565b6001612f23565b600a556040805160028082526060820183528492849291906020830190803683370190505097509750975050505050509750975097945050505050565b6126868160008151811061266f57fe5b60200260200101516126816001611f43565b613240565b8160008151811061269357fe5b602002602001018181525050612242816001815181106126af57fe5b60200260200101516126816000611f43565b604080516002808252606080830184529260208301908036833701905050905061272b7f00000000000000000000000000000000000000000000000000000000000000007f0000000000000000000000000000000000000000000000000000000000000000613273565b8160008151811061273857fe5b60200260200101818152505061278e7f00000000000000000000000000000000000000000000000000000000000000007f0000000000000000000000000000000000000000000000000000000000000000613273565b8160018151811061279b57fe5b60200260200101818152505090565b6009546127b6816120a5565b80156127c157508543115b1561284c5760006127d486858786613313565b905060006127ed878688876127e88861207e565b61332d565b905060006127fa84612098565b905060006128078561208b565b905060006128208284878761281b8b612072565b613371565b90508083146118915761283386826133c8565b955061283f86426133d6565b6009819055955050505050505b505050505050565b600082820283158061286e57508284828161286b57fe5b04145b61287e5761287e60006003611c0d565b8061288d576000915050610778565b670de0b6b3a764000060001982015b0460010191505092915050565b600082821115611a4d57611a4d60006001611c0d565b60006128d28585886060015186866133e4565b90505b95945050505050565b6000611a288383612f7b565b60006128d285858860600151868661344e565b6000611a288383613240565b6000670de0b6b3a76400008210612921576000610778565b50670de0b6b3a76400000390565b6000816129425761294260006004611c0d565b8261294f57506000610778565b670de0b6b3a76400008381029084828161296557fe5b041461298957612989670de0b6b3a764000085838161298057fe5b04146005611c0d565b82600182038161289c57fe5b600061299f611309565b6001600160a01b031663aaabadc56040518163ffffffff1660e01b815260040160206040518083038186803b1580156129d757600080fd5b505afa1580156129eb573d6000803e3d6000fd5b505050506040513d601f19601f82011682018060405250810190610ac891906149d7565b6000806000806000612a228888886134ae565b9350935093509350612a3684848484613628565b98975050505050505050565b6000612a4c611e0a565b82604051602001808061190160f01b81525060020183815260200182815260200192505050604051602081830303815290604052805190602001209050919050565b600060606000612a9d8461369c565b9050612ab86000826003811115612ab057fe5b1460ce611c0d565b6000612ac3856136bb565b9050612ad1815160026120bf565b612ada81612523565b6000612ae46124fd565b90506000612af38383836120f3565b90506000612b028260026123e6565b600a929092555099919850909650505050505050565b611a16828261376f565b505050565b6001600160a01b03918216600090815260016020908152604080832093909416825291909152205490565b60408051600280825260608083018452926000929190602083019080368337019050509050612b816001613804565b81600081518110612b8e57fe5b602002602001018181525050612ba46000613804565b81600181518110612bb157fe5b6020908102919091010152905090565b600281511015612bd057610840565b600081600081518110612bdf57fe5b602002602001015190506000600190505b8251811015612b22576000838281518110612c0757fe5b60200260200101519050612c30816001600160a01b0316846001600160a01b0316106065611c0d565b9150600101612bf0565b600073ba1ba1ba1ba1ba1ba1ba1ba1ba1ba1ba1ba1ba1b612c596112e5565b6001600160a01b031614158015612c745750612c7483613858565b15612c9c57612c816112e5565b6001600160a01b0316336001600160a01b0316149050610778565b612ca4612995565b6001600160a01b0316639be2a8848484306040518463ffffffff1660e01b815260040180848152602001836001600160a01b03168152602001826001600160a01b03168152602001935050505060206040518083038186803b158015612d0957600080fd5b505afa158015612d1d573d6000803e3d6000fd5b505050506040513d6020811015612d3357600080fd5b50519050610778565b62461bcd60e51b6000908152602060045260076024526642414c23000030600a808404818106603090810160081b95839006959095019082900491820690940160101b939093010160c81b604452606490fd5b6000612d9e8484111583611c0d565b5050900390565b600080612db18361388a565b90506000808213612dca57652d79883d20008203612dd4565b652d79883d200082015b655af3107a40009005949350505050565b6000611a288383836138ee565b6000611a28838360166138ee565b1b90565b661fffffffffffff91909116901b90565b623fffff91909116901b90565b1c637fffffff1690565b4690565b612e38614900565b612e4b600184815b602002015184613905565b8152612e5960008481612e40565b602082015292915050565b600082821c623fffff16621fffff8113612e7e57806124f5565b623fffff19179392505050565b1c6103ff1690565b1c60019081161490565b1c6001600160401b031690565b600080600080612ebc600a5486613925565b9350935093509350612ed08484848461398e565b5050505050565b600060606000612ee68461369c565b90506001816003811115612ef657fe5b1415612f1057612f0685856139ae565b9093509150612f1b565b612f1b610150612d3c565b509250929050565b60008115612f55576000612f4184612f3b8888612854565b9061292f565b9050612f4d86826139e0565b9150506124f5565b6000612f6584610de888886139f8565b9050612f7186826128a9565b9695505050505050565b6000612f8a8215156004611c0d565b818381612f9357fe5b049392505050565b60006107788260ea612e64565b60006107788260b5613a31565b600061077882609f612e64565b600061077882606a613a31565b6000610778826054612e64565b600061077882601f613a31565b600081613016577f0000000000000000000000000000000000000000000000000000000000000000610778565b507f0000000000000000000000000000000000000000000000000000000000000000919050565b6130546001600160a01b038316151561019b611c0d565b61306082600083612b22565b6001600160a01b03821660009081526020819052604090205461308690826101a1612d8f565b6001600160a01b0383166000908152602081905260409020556002546130ac9082613a64565b6002556040805182815290516000916001600160a01b038516917fddf252ad1be2c89b69c2b068fc378daa952ba7f163c4a11628f55a4df523b3ef9181900360200190a35050565b6000606060006131038461369c565b9050600381600381111561311357fe5b141561312357612f068585613a72565b612f1b610136612d3c565b60408051606081018252600b5460ff81161515825261010081046001600160781b031660208301819052600160801b9091046001600160801b0316928201929092529061317b85856139e0565b11156040518060400160405280601a81526020017f6f7665722061646472657373206c697175696469747920636170000000000000815250906131d15760405162461bcd60e51b81526004016107cf9190615272565b5060408101516001600160801b03166131ea85846139e0565b11156040518060400160405280601981526020017f6f76657220676c6f62616c206c6971756964697479206361700000000000000081525090612ed05760405162461bcd60e51b81526004016107cf9190615272565b600061324f8215156004611c0d565b8261325c57506000610778565b81600184038161326857fe5b046001019050610778565b6000806000613280611309565b6001600160a01b031663b05f8e48613296610ae6565b876040518363ffffffff1660e01b81526004016132b4929190615180565b60806040518083038186803b1580156132cc57600080fd5b505afa1580156132e0573d6000803e3d6000fd5b505050506040513d601f19601f820116820180604052508101906133049190614ffb565b50500193909302949350505050565b60008061332286868686613a97565b9050612f7181612da5565b60008061333c87878787613a97565b9050600061335461334d8784612854565b89906139e0565b9050600061336182612da5565b9490940398975050505050505050565b60008061338d858585426133848b612371565b93929190613ab0565b90506078428890031015806133a257866133ab565b6133ab87613b02565b600081815260086020526040902092909255509695505050505050565b6000611a288383604b613b0f565b6000611a288383602c613b1f565b6000806134036133fc85670de0b6b3a7640002612854565b88906139e0565b9050600061341c6133fc85670de0b6b3a763ffff6139f8565b905061343561342b83886139e0565b610de883896139f8565b92505050848111156128d5576128d56000610165613b31565b600084841115613465576134656000610165613b31565b600061347c6133fc85670de0b6b3a7640002612854565b905060006134956133fc85670de0b6b3a763ffff6139f8565b9050612a366134a482886128a9565b612f3b8489612854565b60008080806134cf6134c0878761240a565b670de0b6b3a7640000906128a9565b935060006134fa86896001815181106134e457fe5b602002602001015161240a90919063ffffffff16565b90506000613525888a60008151811061350f57fe5b60200260200101516139f890919063ffffffff16565b905061353182826139e0565b94506135588960018151811061354357fe5b60200260200101518a60008151811061350f57fe5b9250505061358f86613589886135898b60008151811061357457fe5b60200260200101518c60008151811061350f57fe5b906139f8565b915060006135cf86610de889613589670de0b6b3a76400006002026135898e6001815181106135ba57fe5b60200260200101518f60008151811061350f57fe5b905060006136056135e08880612854565b610de88b6001815181106135f057fe5b60200260200101518c60018151811061350f57fe5b905061361b8161361586856139e0565b906139e0565b9350505093509350935093565b60008061363d86671bc16d674ec80000612854565b905060006136578761358986673782dace9d9000006139f8565b9050600061366586836139e0565b90506000613674826005613b3f565b9050600061368289836139e0565b905061368e818661240a565b9a9950505050505050505050565b60008180602001905160208110156136b357600080fd5b505192915050565b60608180602001905160408110156136d257600080fd5b8151602083018051604051929492938301929190846401000000008211156136f957600080fd5b90830190602082018581111561370e57600080fd5b825186602082028301116401000000008211171561372b57600080fd5b82525081516020918201928201910280838360005b83811015613758578181015183820152602001613740565b505050509190910160405250929695505050505050565b61377b60008383612b22565b6002546137889082611f31565b6002556001600160a01b0382166000908152602081905260409020546137ae9082611f31565b6001600160a01b0383166000818152602081815260408083209490945583518581529351929391927fddf252ad1be2c89b69c2b068fc378daa952ba7f163c4a11628f55a4df523b3ef9281900390910190a35050565b600081613831577f0000000000000000000000000000000000000000000000000000000000000000610778565b507f0000000000000000000000000000000000000000000000000000000000000000919050565b600061386a631c74c91760e11b611267565b82148061077857506138826350dd6ed960e01b611267565b909114919050565b600061389a600083136064611c0d565b670c7d713b49da0000821380156138b85750670f43fc2c04ee000082125b156138de57670de0b6b3a76400006138cf83613ccd565b816138d657fe5b059050610edd565b6138e782613deb565b9050610edd565b623fffff828116821b90821b198416179392505050565b60008361391b57613916828461418a565b6124f5565b6124f58284614196565b6000806000806000806000806139396141a2565b9350935093509350836000141561395e57600097508796509094509250613985915050565b6000806139758c8c61396e610843565b8989614411565b909a509850929650909450505050505b92959194509250565b831561399e5761399e8285612b18565b8215610ab857610ab88184612b18565b6000606060006139bd846144a6565b905060006139d386836139ce610843565b6144c8565b9196919550909350505050565b600082820183811015611a2857611a28600080611c0d565b6000828202831580613a12575082848281613a0f57fe5b04145b613a2257613a2260006003611c0d565b670de0b6b3a76400008161245b565b600082821c661fffffffffffff16660fffffffffffff8113613a5357806124f5565b661fffffffffffff19179392505050565b6000611a2883836001612d8f565b600060606000613a81846144a6565b905060006139d38683613a92610843565b61454d565b60006128d5613aa684846139e0565b612f3b87876139e0565b600080613abc87611dfe565b830390506000818702613ace89612fa8565b0190506000828702613adf8a612fc2565b0190506000838702613af08b612fdc565b01905061368e89848a858b868c611d9e565b60006107788260016145e8565b6103ff811b1992909216911b1790565b637fffffff811b1992909216911b1790565b81611a1657611a16816145f0565b600082613b4e57506000610778565b6000613b5984614600565b9050600281670de0b6b3a7640000860281613b7057fe5b04820181613b7a57fe5b049050600281670de0b6b3a7640000860281613b9257fe5b04820181613b9c57fe5b049050600281670de0b6b3a7640000860281613bb457fe5b04820181613bbe57fe5b049050600281670de0b6b3a7640000860281613bd657fe5b04820181613be057fe5b049050600281670de0b6b3a7640000860281613bf857fe5b04820181613c0257fe5b049050600281670de0b6b3a7640000860281613c1a57fe5b04820181613c2457fe5b049050600281670de0b6b3a7640000860281613c3c57fe5b04820181613c4657fe5b0490506000613c5582806139f8565b9050613c6b613c648386612854565b86906139e0565b8111158015613c8d5750613c89613c828386612854565b86906128a9565b8110155b6115ec576040805162461bcd60e51b815260206004820152600c60248201526b17dcdc5c9d0811905253115160a21b604482015290519081900360640190fd5b670de0b6b3a7640000026000806a0c097ce7bc90715b34b9f160241b808401906ec097ce7bc90715b34b9f0fffffffff1985010281613d0857fe5b05905060006a0c097ce7bc90715b34b9f160241b82800205905081806a0c097ce7bc90715b34b9f160241b81840205915060038205016a0c097ce7bc90715b34b9f160241b82840205915060058205016a0c097ce7bc90715b34b9f160241b82840205915060078205016a0c097ce7bc90715b34b9f160241b82840205915060098205016a0c097ce7bc90715b34b9f160241b828402059150600b8205016a0c097ce7bc90715b34b9f160241b828402059150600d8205016a0c097ce7bc90715b34b9f160241b828402059150600f826002919005919091010295945050505050565b6000670de0b6b3a7640000821215613e2757613e1d826a0c097ce7bc90715b34b9f160241b81613e1757fe5b05613deb565b6000039050610edd565b60007e1600ef3172e58d2e933ec884fde10064c63b5372d805e203c00000000000008312613e7857770195e54c5dd42177f53a27172fa9ec630262827000000000830592506806f05b59d3b2000000015b73011798004d755d3c8bc8e03204cf44619e0000008312613eb0576b1425982cf597cd205cef7380830592506803782dace9d9000000015b606492830292026e01855144814a7ff805980ff00840008312613ef8576e01855144814a7ff805980ff008400068056bc75e2d63100000840205925068ad78ebc5ac62000000015b6b02df0ab5a80a22c61ab5a7008312613f33576b02df0ab5a80a22c61ab5a70068056bc75e2d6310000084020592506856bc75e2d631000000015b693f1fce3da636ea5cf8508312613f6a57693f1fce3da636ea5cf85068056bc75e2d631000008402059250682b5e3af16b18800000015b690127fa27722cc06cc5e28312613fa157690127fa27722cc06cc5e268056bc75e2d6310000084020592506815af1d78b58c400000015b68280e60114edb805d038312613fd65768280e60114edb805d0368056bc75e2d631000008402059250680ad78ebc5ac6200000015b680ebc5fb41746121110831261400157680ebc5fb4174612111068056bc75e2d631000009384020592015b6808f00f760a4b2db55d8312614036576808f00f760a4b2db55d68056bc75e2d6310000084020592506802b5e3af16b1880000015b6806f5f1775788937937831261406b576806f5f177578893793768056bc75e2d63100000840205925068015af1d78b58c40000015b6806248f33704b286603831261409f576806248f33704b28660368056bc75e2d63100000840205925067ad78ebc5ac620000015b6805c548670b9510e7ac83126140d3576805c548670b9510e7ac68056bc75e2d6310000084020592506756bc75e2d6310000015b600068056bc75e2d63100000840168056bc75e2d6310000080860302816140f657fe5b059050600068056bc75e2d63100000828002059050818068056bc75e2d63100000818402059150600382050168056bc75e2d63100000828402059150600582050168056bc75e2d63100000828402059150600782050168056bc75e2d63100000828402059150600982050168056bc75e2d63100000828402059150600b820501600202606485820105979650505050505050565b6000611a2883836139f8565b6000611a28838361240a565b600e5460405163bd02d0f560e01b81526000918291829182916001600160a01b039091169063bd02d0f5906141f4907550524f544f434f4c5f535741505f4645455f5045524360501b90600401615177565b60206040518083038186803b15801561420c57600080fd5b505afa158015614220573d6000803e3d6000fd5b505050506040513d601f19601f820116820180604052508101906142449190614e02565b600e5460405163bd02d0f560e01b81526001600160a01b039091169063bd02d0f590614294907f50524f544f434f4c5f4645455f4759524f5f504f5254494f4e0000000000000090600401615177565b60206040518083038186803b1580156142ac57600080fd5b505afa1580156142c0573d6000803e3d6000fd5b505050506040513d601f19601f820116820180604052508101906142e49190614e02565b600e546040516321f8a72160e01b81526001600160a01b03909116906321f8a72190614324906c4759524f5f545245415355525960981b90600401615177565b60206040518083038186803b15801561433c57600080fd5b505afa158015614350573d6000803e3d6000fd5b505050506040513d601f19601f8201168201806040525081019061437491906149d7565b600e546040516321f8a72160e01b81526001600160a01b03909116906321f8a721906143b3906b42414c5f545245415355525960a01b90600401615177565b60206040518083038186803b1580156143cb57600080fd5b505afa1580156143df573d6000803e3d6000fd5b505050506040513d601f19601f8201168201806040525081019061440391906149d7565b935093509350935090919293565b6000808686116144265750600090508061449c565b6000614440856135896144398a8c6128a9565b89906139f8565b90506000614458614451898b6128a9565b87906139f8565b9050600061446689836128a9565b90506000614474848361240a565b9050600061448288836139f8565b9050600061449083836128a9565b91975090955050505050505b9550959350505050565b60008180602001905160408110156144bd57600080fd5b506020015192915050565b606083516001600160401b03811180156144e157600080fd5b5060405190808252806020026020018201604052801561450b578160200160208202803683370190505b50905060005b84518110156115ec5761452e83610de88688858151811061350f57fe5b82828151811061453a57fe5b6020908102919091010152600101614511565b606083516001600160401b038111801561456657600080fd5b50604051908082528060200260200182016040528015614590578160200160208202803683370190505b50905060005b84518110156115ec576145c983612f3b868885815181106145b357fe5b602002602001015161285490919063ffffffff16565b8282815181106145d557fe5b6020908102919091010152600101614596565b016103ff1690565b610840816223aca960e91b6147d2565b6000670de0b6b3a7640000821061462d57670de0b6b3a7640000614625818404614833565b1b9050610edd565b600a8211614640575063bc7c871c610edd565b6064821161465457506402540be400610edd565b6103e88211614669575064075cdd4719610edd565b612710821161467e575064174876e800610edd565b620186a0821161469457506449a0a4c700610edd565b620f424082116146aa575064e8d4a51000610edd565b6298968082116146c157506502e0466fc608610edd565b6305f5e10082116146d957506509184e72a000610edd565b633b9aca0082116146f15750651cc2c05dbc53610edd565b6402540be400821161470a5750655af3107a4000610edd565b64174876e8008211614724575066011f9b83a95b45610edd565b64e8d4a51000821161473e575066038d7ea4c68000610edd565b6509184e72a00082116147595750660b3c13249d90bb610edd565b655af3107a400082116147745750662386f26fc10000610edd565b66038d7ea4c6800082116147905750667058bf6e27a751610edd565b662386f26fc1000082116147ad575067016345785d8a0000610edd565b67016345785d8a000082116147cb5750670463777a4d8c892d610edd565b5080610edd565b62461bcd60e51b600090815260206004526007602452600a808404818106603090810160081b958390069590950190829004918206850160101b01602363ffffff0060e086901c160160181b0190930160c81b60445260e882901c90606490fd5b6000600160801b821061484b5760809190911c906040015b6801000000000000000082106148665760409190911c906020015b640100000000821061487d5760209190911c906010015b6201000082106148925760109190911c906008015b61010082106148a65760089190911c906004015b601082106148b95760049190911c906002015b60048210610edd57600101919050565b604080516060810182526000808252602082018190529181019190915290565b604080518082019091526000808252602082015290565b60405180604001604052806002906020820280368337509192915050565b8035610edd816153a2565b80358015158114610edd57600080fd5b600082601f830112614949578081fd5b81356001600160401b0381111561495c57fe5b61496f601f8201601f1916602001615362565b818152846020838601011115614983578283fd5b816020850160208301379081016020019190915292915050565b803560028110610edd57600080fd5b803560038110610edd57600080fd5b6000602082840312156149cc578081fd5b8135611a28816153a2565b6000602082840312156149e8578081fd5b8151611a28816153a2565b60008060408385031215614a05578081fd5b8235614a10816153a2565b91506020830135614a20816153a2565b809150509250929050565b600080600060608486031215614a3f578081fd5b8335614a4a816153a2565b92506020840135614a5a816153a2565b929592945050506040919091013590565b600080600080600080600060e0888a031215614a85578485fd5b8735614a90816153a2565b96506020880135614aa0816153a2565b95506040880135945060608801359350608088013560ff81168114614ac3578384fd5b9699959850939692959460a0840135945060c09093013592915050565b60008060408385031215614af2578182fd5b8235614afd816153a2565b946020939093013593505050565b60006020808385031215614b1d578182fd5b82356001600160401b0380821115614b33578384fd5b818501915085601f830112614b46578384fd5b8135614b59614b5482615385565b615362565b818152848101908486016040808502870188018b1015614b77578889fd5b8896505b84871015614bcf5780828c031215614b91578889fd5b80518181018181108882111715614ba457fe5b8252614baf836149ac565b815282890135898201528452600196909601959287019290810190614b7b565b50909998505050505050505050565b60006020808385031215614bf0578182fd5b82356001600160401b0380821115614c06578384fd5b818501915085601f830112614c19578384fd5b8135614c27614b5482615385565b818152848101908486016060808502870188018b1015614c45578889fd5b8896505b84871015614bcf5780828c031215614c5f578889fd5b604080518281018181108982111715614c7457fe5b8252614c7f846149ac565b8152838a01358a82015281840135918101919091528452600196909601959287019290810190614c49565b600060208284031215614cbb578081fd5b611a2882614929565b600080600080600080600060e0888a031215614cde578081fd5b87359650602080890135614cf1816153a2565b96506040890135614d01816153a2565b955060608901356001600160401b0380821115614d1c578384fd5b818b0191508b601f830112614d2f578384fd5b8135614d3d614b5482615385565b8082825285820191508585018f878886028801011115614d5b578788fd5b8795505b83861015614d7d578035835260019590950194918601918601614d5f565b509850505060808b0135955060a08b0135945060c08b0135925080831115614da3578384fd5b5050614db18a828b01614939565b91505092959891949750929550565b600060208284031215614dd1578081fd5b81356001600160e01b031981168114611a28578182fd5b600060208284031215614df9578081fd5b611a28826149ac565b600060208284031215614e13578081fd5b5051919050565b600060608284031215614e2b578081fd5b604051606081018181106001600160401b0382111715614e4757fe5b604052614e5383614929565b815260208301356001600160781b0381168114614e6e578283fd5b602082015260408301356001600160801b0381168114614e8c578283fd5b60408201529392505050565b600080600060608486031215614eac578081fd5b83356001600160401b0380821115614ec2578283fd5b8186019150610120808389031215614ed8578384fd5b614ee181615362565b9050614eec8361499d565b8152614efa6020840161491e565b6020820152614f0b6040840161491e565b6040820152606083013560608201526080830135608082015260a083013560a0820152614f3a60c0840161491e565b60c0820152614f4b60e0840161491e565b60e08201526101008084013583811115614f63578586fd5b614f6f8a828701614939565b9183019190915250976020870135975060409096013595945050505050565b600060208284031215614f9f578081fd5b5035919050565b60008060408385031215614fb8578182fd5b50508035926020909101359150565b600080600060608486031215614fdb578081fd5b8335925060208401359150614ff260408501614929565b90509250925092565b60008060008060808587031215615010578182fd5b8451935060208501519250604085015191506060850151615030816153a2565b939692955090935050565b6000815180845260208085019450808401835b8381101561506a5781518752958201959082019060010161504e565b509495945050505050565b6003811061507f57fe5b9052565b6000828483379101908152919050565b6001600160a01b0391909116815260200190565b6020808252825182820181905260009190848201906040850190845b818110156150df578351835292840192918401916001016150c3565b50909695505050505050565b60408101818360005b60028110156151135781518352602092830192909101906001016150f4565b50505092915050565b600060208252611a28602083018461503b565b600060408252615142604083018561503b565b82810360208401526128d5818561503b565b901515815260200190565b92151583526020830191909152604082015260600190565b90815260200190565b9182526001600160a01b0316602082015260400190565b968752602087019590955260408601939093526060850191909152608084015260a083015260c082015260e00190565b9586526020860194909452604085019290925260608401521515608083015260a082015260c00190565b838152606081016152056020830185615075565b826040830152949350505050565b848152608081016152276020830186615075565b60408201939093526060015292915050565b600060a082019050848252615252602083018551615075565b602084015160408381019190915290930151606082015260800152919050565b6000602080835283518082850152825b8181101561529e57858101830151858201604001528201615282565b818111156152af5783604083870101525b50601f01601f1916929092016040019392505050565b8151151581526020808301516001600160781b0316908201526040918201516001600160801b03169181019190915260600190565b905460ff811615158252600881901c6001600160781b0316602083015260801c604082015260600190565b6000838252604060208301526124f5604083018461503b565b9283526020830191909152604082015260600190565b60ff91909116815260200190565b6040518181016001600160401b038111828210171561537d57fe5b604052919050565b60006001600160401b0382111561539857fe5b5060209081020190565b6001600160a01b038116811461084057600080fdfea26469706673582212202f53fdb05bd0962b95a66cdefc384c0a5c26cdad2ae535ab00ee32b2e0cf008464736f6c63430007060033","language":"Solidity","natspec":{"kind":"dev","methods":{"DOMAIN_SEPARATOR()":{"details":"See {IERC20Permit-DOMAIN_SEPARATOR}."},"allowance(address,address)":{"details":"Override to grant the Vault infinite allowance, causing for Pool Tokens to not require approval. This is sound as the Vault already provides authorization mechanisms when initiation token transfers, which this contract inherits."},"approve(address,uint256)":{"details":"See {IERC20-approve}. Requirements: - `spender` cannot be the zero address."},"balanceOf(address)":{"details":"See {IERC20-balanceOf}."},"calculateCurrentValues(uint256,uint256,bool)":{"details":"invariant and virtual offsets."},"changePauseManager(address)":{"notice":"Changes the account that is allowed to pause a pool."},"decimals()":{"details":"Returns the number of decimals used to get its user representation. For example, if `decimals` equals `2`, a balance of `505` tokens should be displayed to a user as `5,05` (`505 / 10 ** 2`). Tokens usually opt for a value of 18, imitating the relationship between Ether and Wei. This is the value {ERC20} uses, unless {_setupDecimals} is called. NOTE: This information is only used for _display_ purposes: it in no way affects any of the arithmetic of the contract, including {IERC20-balanceOf} and {IERC20-transfer}."},"decreaseAllowance(address,uint256)":{"details":"Override to allow decreasing allowance by more than the current amount (setting it to zero)"},"dirtyUninitializedOracleSamples(uint256,uint256)":{"details":"Manually dirty oracle sample storage slots with dummy data, to reduce the gas cost of the future swaps that will initialize them. This function is only useful before the oracle has been fully initialized. `endIndex` is non-inclusive."},"enableOracle()":{"details":"Balancer Governance can always enable the Oracle, even if it was originally not enabled. This allows for Pools that unexpectedly drive much more volume and liquidity than expected to serve as Price Oracles. Note that the Oracle can only be enabled - it can never be disabled."},"getActionId(bytes4)":{"details":"Returns the action identifier associated with the external function described by `selector`."},"getInvariant()":{"details":"Returns the current value of the invariant."},"getLargestSafeQueryWindow()":{"details":"Returns largest time window that can be safely queried, where 'safely' means the Oracle is guaranteed to be able to produce a result and not revert. If a query has a non-zero `ago` value, then `secs + ago` (the oldest point in time) must be smaller than this value for 'safe' queries."},"getLatest(uint8)":{"details":"Returns latest sample of `variable`. Prices are represented as 18 decimal fixed point values."},"getPastAccumulators((uint8,uint256)[])":{"details":"Returns the accumulators corresponding to each of `queries`."},"getPausedState()":{"details":"Returns the current contract pause status, as well as the end times of the Pause Window and Buffer Period."},"getRate()":{"details":"This function returns the appreciation of one BPT relative to the underlying tokens. This starts at 1 when the pool is created and grows over time"},"getSample(uint256)":{"details":"Returns the raw data of the sample at `index`."},"getSqrtParameters()":{"details":"Returns sqrtAlpha and sqrtBeta (square roots of lower and upper price bounds of p_x respectively)"},"getTimeWeightedAverage((uint8,uint256,uint256)[])":{"details":"Returns the time average weighted price corresponding to each of `queries`. Prices are represented as 18 decimal fixed point values."},"getTotalSamples()":{"details":"Returns the total number of samples."},"getVirtualParameters()":{"details":"Returns virtual offsets a and b for reserves x and y respectively, as in (x+a)*(y+b)=L^2"},"increaseAllowance(address,uint256)":{"details":"Atomically increases the allowance granted to `spender` by the caller. This is an alternative to {approve} that can be used as a mitigation for problems described in {IERC20-approve}. Emits an {Approval} event indicating the updated allowance. Requirements: - `spender` cannot be the zero address."},"name()":{"details":"Returns the name of the token."},"nonces(address)":{"details":"See {IERC20Permit-nonces}."},"onExitPool(bytes32,address,address,uint256[],uint256,uint256,bytes)":{"details":"Called by the Vault when a user calls `IVault.exitPool` to remove liquidity from this Pool. Returns how many tokens the Vault should deduct from the Pool's balances, as well as the amount of protocol fees the Pool owes to the Vault. The Vault will then take tokens from the Pool's balances and send them to `recipient`, as well as collect the reported amount in protocol fees, which the Pool should calculate based on `protocolSwapFeePercentage`. Protocol fees are charged on exit events to guarantee that users exiting the Pool have paid their share. `sender` is the account performing the exit (typically the pool shareholder), and `recipient` is the account to which the Vault will send the proceeds. `balances` contains the total token balances for each token the Pool registered in the Vault, in the same order that `IVault.getPoolTokens` would return. `lastChangeBlock` is the last block in which *any* of the Pool's registered tokens last changed its total balance. `userData` contains any pool-specific instructions needed to perform the calculations, such as the type of exit (e.g., proportional given an amount of pool shares, single-asset, multi-asset, etc.) Contracts implementing this function should check that the caller is indeed the Vault before performing any state-changing operations, such as burning pool shares."},"onJoinPool(bytes32,address,address,uint256[],uint256,uint256,bytes)":{"details":"Called by the Vault when a user calls `IVault.joinPool` to add liquidity to this Pool. Returns how many of each registered token the user should provide, as well as the amount of protocol fees the Pool owes to the Vault. The Vault will then take tokens from `sender` and add them to the Pool's balances, as well as collect the reported amount in protocol fees, which the pool should calculate based on `protocolSwapFeePercentage`. Protocol fees are reported and charged on join events so that the Pool is free of debt whenever new users join. `sender` is the account performing the join (from which tokens will be withdrawn), and `recipient` is the account designated to receive any benefits (typically pool shares). `balances` contains the total balances for each token the Pool registered in the Vault, in the same order that `IVault.getPoolTokens` would return. `lastChangeBlock` is the last block in which *any* of the Pool's registered tokens last changed its total balance. `userData` contains any pool-specific instructions needed to perform the calculations, such as the type of join (e.g., proportional given an amount of pool shares, single-asset, multi-asset, etc.) Contracts implementing this function should check that the caller is indeed the Vault before performing any state-changing operations, such as minting pool shares."},"pause()":{"notice":"Pauses the pool. Can only be called by the pause manager."},"permit(address,address,uint256,uint256,uint8,bytes32,bytes32)":{"details":"See {IERC20Permit-permit}."},"queryExit(bytes32,address,address,uint256[],uint256,uint256,bytes)":{"details":"Returns the amount of BPT that would be burned from `sender` if the `onExitPool` hook were called by the Vault with the same arguments, along with the number of tokens `recipient` would receive. This function is not meant to be called directly, but rather from a helper contract that fetches current Vault data, such as the protocol swap fee percentage and Pool balances. Like `IVault.queryBatchSwap`, this function is not view due to internal implementation details: the caller must explicitly use eth_call instead of eth_sendTransaction."},"queryJoin(bytes32,address,address,uint256[],uint256,uint256,bytes)":{"details":"Returns the amount of BPT that would be granted to `recipient` if the `onJoinPool` hook were called by the Vault with the same arguments, along with the number of tokens `sender` would have to supply. This function is not meant to be called directly, but rather from a helper contract that fetches current Vault data, such as the protocol swap fee percentage and Pool balances. Like `IVault.queryBatchSwap`, this function is not view due to internal implementation details: the caller must explicitly use eth_call instead of eth_sendTransaction."},"symbol()":{"details":"Returns the symbol of the token, usually a shorter version of the name."},"totalSupply()":{"details":"See {IERC20-totalSupply}."},"transfer(address,uint256)":{"details":"See {IERC20-transfer}. Requirements: - `recipient` cannot be the zero address. - the caller must have a balance of at least `amount`."},"transferFrom(address,address,uint256)":{"details":"Override to allow for 'infinite allowance' and let the token owner use `transferFrom` with no self-allowance"},"unpause()":{"notice":"Unpauses the pool. Can only be called by the pause manager."}},"version":1},"opcodes":"PUSH1 0x80 PUSH1 0x40 MSTORE CALLVALUE DUP1 ISZERO PUSH2 0x10 JUMPI PUSH1 0x0 DUP1 REVERT JUMPDEST POP PUSH1 0x4 CALLDATASIZE LT PUSH2 0x327 JUMPI PUSH1 0x0 CALLDATALOAD PUSH1 0xE0 SHR DUP1 PUSH4 0x707DCD1E GT PUSH2 0x1B8 JUMPI DUP1 PUSH4 0x9B02CDDE GT PUSH2 0x104 JUMPI DUP1 PUSH4 0xB48B5B40 GT PUSH2 0xA2 JUMPI DUP1 PUSH4 0xD5C096C4 GT PUSH2 0x7C JUMPI DUP1 PUSH4 0xD5C096C4 EQ PUSH2 0x69B JUMPI DUP1 PUSH4 0xDD62ED3E EQ PUSH2 0x6AE JUMPI DUP1 PUSH4 0xF89F27ED EQ PUSH2 0x6C1 JUMPI DUP1 PUSH4 0xFFD088EB EQ PUSH2 0x6C9 JUMPI PUSH2 0x327 JUMP JUMPDEST DUP1 PUSH4 0xB48B5B40 EQ PUSH2 0x678 JUMPI DUP1 PUSH4 0xC0FF1A15 EQ PUSH2 0x680 JUMPI DUP1 PUSH4 0xD505ACCF EQ PUSH2 0x688 JUMPI PUSH2 0x327 JUMP JUMPDEST DUP1 PUSH4 0xA9059CBB GT PUSH2 0xDE JUMPI DUP1 PUSH4 0xA9059CBB EQ PUSH2 0x642 JUMPI DUP1 PUSH4 0xAAABADC5 EQ PUSH2 0x655 JUMPI DUP1 PUSH4 0xABD13AFE EQ PUSH2 0x65D JUMPI DUP1 PUSH4 0xB10BE739 EQ PUSH2 0x665 JUMPI PUSH2 0x327 JUMP JUMPDEST DUP1 PUSH4 0x9B02CDDE EQ PUSH2 0x614 JUMPI DUP1 PUSH4 0x9D2C110C EQ PUSH2 0x61C JUMPI DUP1 PUSH4 0xA457C2D7 EQ PUSH2 0x62F JUMPI PUSH2 0x327 JUMP JUMPDEST DUP1 PUSH4 0x8456CB59 GT PUSH2 0x171 JUMPI DUP1 PUSH4 0x893D20E8 GT PUSH2 0x14B JUMPI DUP1 PUSH4 0x893D20E8 EQ PUSH2 0x5F4 JUMPI DUP1 PUSH4 0x8D928AF8 EQ PUSH2 0x5FC JUMPI DUP1 PUSH4 0x8DD9F89D EQ PUSH2 0x604 JUMPI DUP1 PUSH4 0x95D89B41 EQ PUSH2 0x60C JUMPI PUSH2 0x327 JUMP JUMPDEST DUP1 PUSH4 0x8456CB59 EQ PUSH2 0x5C6 JUMPI DUP1 PUSH4 0x851C1BB3 EQ PUSH2 0x5CE JUMPI DUP1 PUSH4 0x87EC6817 EQ PUSH2 0x5E1 JUMPI PUSH2 0x327 JUMP JUMPDEST DUP1 PUSH4 0x707DCD1E EQ PUSH2 0x544 JUMPI DUP1 PUSH4 0x70A08231 EQ PUSH2 0x559 JUMPI DUP1 PUSH4 0x74F3B009 EQ PUSH2 0x56C JUMPI DUP1 PUSH4 0x76E54A46 EQ PUSH2 0x58D JUMPI DUP1 PUSH4 0x7ECEBE00 EQ PUSH2 0x5A0 JUMPI DUP1 PUSH4 0x8002DF18 EQ PUSH2 0x5B3 JUMPI PUSH2 0x327 JUMP JUMPDEST DUP1 PUSH4 0x38FFF2D0 GT PUSH2 0x277 JUMPI DUP1 PUSH4 0x4A6B0B15 GT PUSH2 0x230 JUMPI DUP1 PUSH4 0x60D1507C GT PUSH2 0x20A JUMPI DUP1 PUSH4 0x60D1507C EQ PUSH2 0x4EE JUMPI DUP1 PUSH4 0x679AEFCE EQ PUSH2 0x514 JUMPI DUP1 PUSH4 0x6B843239 EQ PUSH2 0x51C JUMPI DUP1 PUSH4 0x6D785A87 EQ PUSH2 0x53C JUMPI PUSH2 0x327 JUMP JUMPDEST DUP1 PUSH4 0x4A6B0B15 EQ PUSH2 0x4AB JUMPI DUP1 PUSH4 0x55C67628 EQ PUSH2 0x4C5 JUMPI DUP1 PUSH4 0x6028BFD4 EQ PUSH2 0x4CD JUMPI PUSH2 0x327 JUMP JUMPDEST DUP1 PUSH4 0x38FFF2D0 EQ PUSH2 0x43C JUMPI DUP1 PUSH4 0x39509351 EQ PUSH2 0x444 JUMPI DUP1 PUSH4 0x3AEAE0D3 EQ PUSH2 0x457 JUMPI DUP1 PUSH4 0x3C4DD5BB EQ PUSH2 0x46C JUMPI DUP1 PUSH4 0x3F4BA83A EQ PUSH2 0x48E JUMPI DUP1 PUSH4 0x44BBDB55 EQ PUSH2 0x496 JUMPI PUSH2 0x327 JUMP JUMPDEST DUP1 PUSH4 0x1DCCD830 GT PUSH2 0x2E4 JUMPI DUP1 PUSH4 0x313CE567 GT PUSH2 0x2BE JUMPI DUP1 PUSH4 0x313CE567 EQ PUSH2 0x3F9 JUMPI DUP1 PUSH4 0x3331BC36 EQ PUSH2 0x40E JUMPI DUP1 PUSH4 0x3644E515 EQ PUSH2 0x421 JUMPI DUP1 PUSH4 0x38E9922E EQ PUSH2 0x429 JUMPI PUSH2 0x327 JUMP JUMPDEST DUP1 PUSH4 0x1DCCD830 EQ PUSH2 0x3BE JUMPI DUP1 PUSH4 0x23B872DD EQ PUSH2 0x3DE JUMPI DUP1 PUSH4 0x292C914A EQ PUSH2 0x3F1 JUMPI PUSH2 0x327 JUMP JUMPDEST DUP1 PUSH4 0x6FDDE03 EQ PUSH2 0x32C JUMPI DUP1 PUSH4 0x95EA7B3 EQ PUSH2 0x34A JUMPI DUP1 PUSH4 0xE608B30 EQ PUSH2 0x36A JUMPI DUP1 PUSH4 0x16C38B3C EQ PUSH2 0x37F JUMPI DUP1 PUSH4 0x18160DDD EQ PUSH2 0x392 JUMPI DUP1 PUSH4 0x1C0DE051 EQ PUSH2 0x3A7 JUMPI JUMPDEST PUSH1 0x0 DUP1 REVERT JUMPDEST PUSH2 0x334 PUSH2 0x6D1 JUMP JUMPDEST PUSH1 0x40 MLOAD PUSH2 0x341 SWAP2 SWAP1 PUSH2 0x5272 JUMP JUMPDEST PUSH1 0x40 MLOAD DUP1 SWAP2 SUB SWAP1 RETURN JUMPDEST PUSH2 0x35D PUSH2 0x358 CALLDATASIZE PUSH1 0x4 PUSH2 0x4AE0 JUMP JUMPDEST PUSH2 0x767 JUMP JUMPDEST PUSH1 0x40 MLOAD PUSH2 0x341 SWAP2 SWAP1 PUSH2 0x5154 JUMP JUMPDEST PUSH2 0x37D PUSH2 0x378 CALLDATASIZE PUSH1 0x4 PUSH2 0x49BB JUMP JUMPDEST PUSH2 0x77E JUMP JUMPDEST STOP JUMPDEST PUSH2 0x37D PUSH2 0x38D CALLDATASIZE PUSH1 0x4 PUSH2 0x4CAA JUMP JUMPDEST PUSH2 0x82F JUMP JUMPDEST PUSH2 0x39A PUSH2 0x843 JUMP JUMPDEST PUSH1 0x40 MLOAD PUSH2 0x341 SWAP2 SWAP1 PUSH2 0x5177 JUMP JUMPDEST PUSH2 0x3AF PUSH2 0x849 JUMP JUMPDEST PUSH1 0x40 MLOAD PUSH2 0x341 SWAP4 SWAP3 SWAP2 SWAP1 PUSH2 0x515F JUMP JUMPDEST PUSH2 0x3D1 PUSH2 0x3CC CALLDATASIZE PUSH1 0x4 PUSH2 0x4BDE JUMP JUMPDEST PUSH2 0x872 JUMP JUMPDEST PUSH1 0x40 MLOAD PUSH2 0x341 SWAP2 SWAP1 PUSH2 0x511C JUMP JUMPDEST PUSH2 0x35D PUSH2 0x3EC CALLDATASIZE PUSH1 0x4 PUSH2 0x4A2B JUMP JUMPDEST PUSH2 0x995 JUMP JUMPDEST PUSH2 0x37D PUSH2 0xA09 JUMP JUMPDEST PUSH2 0x401 PUSH2 0xA3D JUMP JUMPDEST PUSH1 0x40 MLOAD PUSH2 0x341 SWAP2 SWAP1 PUSH2 0x5354 JUMP JUMPDEST PUSH2 0x37D PUSH2 0x41C CALLDATASIZE PUSH1 0x4 PUSH2 0x4FA6 JUMP JUMPDEST PUSH2 0xA46 JUMP JUMPDEST PUSH2 0x39A PUSH2 0xABE JUMP JUMPDEST PUSH2 0x37D PUSH2 0x437 CALLDATASIZE PUSH1 0x4 PUSH2 0x4F8E JUMP JUMPDEST PUSH2 0xACD JUMP JUMPDEST PUSH2 0x39A PUSH2 0xAE6 JUMP JUMPDEST PUSH2 0x35D PUSH2 0x452 CALLDATASIZE PUSH1 0x4 PUSH2 0x4AE0 JUMP JUMPDEST PUSH2 0xB0A JUMP JUMPDEST PUSH2 0x45F PUSH2 0xB45 JUMP JUMPDEST PUSH1 0x40 MLOAD PUSH2 0x341 SWAP2 SWAP1 PUSH2 0x52C5 JUMP JUMPDEST PUSH2 0x47F PUSH2 0x47A CALLDATASIZE PUSH1 0x4 PUSH2 0x4FC7 JUMP JUMPDEST PUSH2 0xB90 JUMP JUMPDEST PUSH1 0x40 MLOAD PUSH2 0x341 SWAP4 SWAP3 SWAP2 SWAP1 PUSH2 0x533E JUMP JUMPDEST PUSH2 0x37D PUSH2 0xBE3 JUMP JUMPDEST PUSH2 0x49E PUSH2 0xCD8 JUMP JUMPDEST PUSH1 0x40 MLOAD PUSH2 0x341 SWAP2 SWAP1 PUSH2 0x5093 JUMP JUMPDEST PUSH2 0x4B3 PUSH2 0xCE7 JUMP JUMPDEST PUSH1 0x40 MLOAD PUSH2 0x341 SWAP7 SWAP6 SWAP5 SWAP4 SWAP3 SWAP2 SWAP1 PUSH2 0x51C7 JUMP JUMPDEST PUSH2 0x39A PUSH2 0xD42 JUMP JUMPDEST PUSH2 0x4E0 PUSH2 0x4DB CALLDATASIZE PUSH1 0x4 PUSH2 0x4CC4 JUMP JUMPDEST PUSH2 0xD4F JUMP JUMPDEST PUSH1 0x40 MLOAD PUSH2 0x341 SWAP3 SWAP2 SWAP1 PUSH2 0x5325 JUMP JUMPDEST PUSH2 0x501 PUSH2 0x4FC CALLDATASIZE PUSH1 0x4 PUSH2 0x4F8E JUMP JUMPDEST PUSH2 0xD80 JUMP JUMPDEST PUSH1 0x40 MLOAD PUSH2 0x341 SWAP8 SWAP7 SWAP6 SWAP5 SWAP4 SWAP3 SWAP2 SWAP1 PUSH2 0x5197 JUMP JUMPDEST PUSH2 0x39A PUSH2 0xDC9 JUMP JUMPDEST PUSH2 0x52F PUSH2 0x52A CALLDATASIZE PUSH1 0x4 PUSH2 0x4B0B JUMP JUMPDEST PUSH2 0xDEE JUMP JUMPDEST PUSH1 0x40 MLOAD PUSH2 0x341 SWAP2 SWAP1 PUSH2 0x50A7 JUMP JUMPDEST PUSH2 0x49E PUSH2 0xEA4 JUMP JUMPDEST PUSH2 0x54C PUSH2 0xEB3 JUMP JUMPDEST PUSH1 0x40 MLOAD PUSH2 0x341 SWAP2 SWAP1 PUSH2 0x50EB JUMP JUMPDEST PUSH2 0x39A PUSH2 0x567 CALLDATASIZE PUSH1 0x4 PUSH2 0x49BB JUMP JUMPDEST PUSH2 0xEC3 JUMP JUMPDEST PUSH2 0x57F PUSH2 0x57A CALLDATASIZE PUSH1 0x4 PUSH2 0x4CC4 JUMP JUMPDEST PUSH2 0xEE2 JUMP JUMPDEST PUSH1 0x40 MLOAD PUSH2 0x341 SWAP3 SWAP2 SWAP1 PUSH2 0x512F JUMP JUMPDEST PUSH2 0x37D PUSH2 0x59B CALLDATASIZE PUSH1 0x4 PUSH2 0x4E1A JUMP JUMPDEST PUSH2 0xF87 JUMP JUMPDEST PUSH2 0x39A PUSH2 0x5AE CALLDATASIZE PUSH1 0x4 PUSH2 0x49BB JUMP JUMPDEST PUSH2 0x10AE JUMP JUMPDEST PUSH2 0x37D PUSH2 0x5C1 CALLDATASIZE PUSH1 0x4 PUSH2 0x49BB JUMP JUMPDEST PUSH2 0x10C9 JUMP JUMPDEST PUSH2 0x37D PUSH2 0x11AF JUMP JUMPDEST PUSH2 0x39A PUSH2 0x5DC CALLDATASIZE PUSH1 0x4 PUSH2 0x4DC0 JUMP JUMPDEST PUSH2 0x1267 JUMP JUMPDEST PUSH2 0x4E0 PUSH2 0x5EF CALLDATASIZE PUSH1 0x4 PUSH2 0x4CC4 JUMP JUMPDEST PUSH2 0x12C0 JUMP JUMPDEST PUSH2 0x49E PUSH2 0x12E5 JUMP JUMPDEST PUSH2 0x49E PUSH2 0x1309 JUMP JUMPDEST PUSH2 0x3D1 PUSH2 0x132D JUMP JUMPDEST PUSH2 0x334 PUSH2 0x13C7 JUMP JUMPDEST PUSH2 0x39A PUSH2 0x1428 JUMP JUMPDEST PUSH2 0x39A PUSH2 0x62A CALLDATASIZE PUSH1 0x4 PUSH2 0x4E98 JUMP JUMPDEST PUSH2 0x142E JUMP JUMPDEST PUSH2 0x35D PUSH2 0x63D CALLDATASIZE PUSH1 0x4 PUSH2 0x4AE0 JUMP JUMPDEST PUSH2 0x15F4 JUMP JUMPDEST PUSH2 0x35D PUSH2 0x650 CALLDATASIZE PUSH1 0x4 PUSH2 0x4AE0 JUMP JUMPDEST PUSH2 0x1632 JUMP JUMPDEST PUSH2 0x49E PUSH2 0x163F JUMP JUMPDEST PUSH2 0x49E PUSH2 0x1649 JUMP JUMPDEST PUSH2 0x39A PUSH2 0x673 CALLDATASIZE PUSH1 0x4 PUSH2 0x4DE8 JUMP JUMPDEST PUSH2 0x1658 JUMP JUMPDEST PUSH2 0x39A PUSH2 0x16ED JUMP JUMPDEST PUSH2 0x39A PUSH2 0x16F3 JUMP JUMPDEST PUSH2 0x37D PUSH2 0x696 CALLDATASIZE PUSH1 0x4 PUSH2 0x4A6B JUMP JUMPDEST PUSH2 0x172E JUMP JUMPDEST PUSH2 0x57F PUSH2 0x6A9 CALLDATASIZE PUSH1 0x4 PUSH2 0x4CC4 JUMP JUMPDEST PUSH2 0x189E JUMP JUMPDEST PUSH2 0x39A PUSH2 0x6BC CALLDATASIZE PUSH1 0x4 PUSH2 0x49F3 JUMP JUMPDEST PUSH2 0x19BE JUMP JUMPDEST PUSH2 0x3D1 PUSH2 0x19FB JUMP JUMPDEST PUSH2 0x39A PUSH2 0x1A05 JUMP JUMPDEST PUSH1 0x3 DUP1 SLOAD PUSH1 0x40 DUP1 MLOAD PUSH1 0x20 PUSH1 0x1F PUSH1 0x2 PUSH1 0x0 NOT PUSH2 0x100 PUSH1 0x1 DUP9 AND ISZERO MUL ADD SWAP1 SWAP6 AND SWAP5 SWAP1 SWAP5 DIV SWAP4 DUP5 ADD DUP2 SWAP1 DIV DUP2 MUL DUP3 ADD DUP2 ADD SWAP1 SWAP3 MSTORE DUP3 DUP2 MSTORE PUSH1 0x60 SWAP4 SWAP1 SWAP3 SWAP1 SWAP2 DUP4 ADD DUP3 DUP3 DUP1 ISZERO PUSH2 0x75D JUMPI DUP1 PUSH1 0x1F LT PUSH2 0x732 JUMPI PUSH2 0x100 DUP1 DUP4 SLOAD DIV MUL DUP4 MSTORE SWAP2 PUSH1 0x20 ADD SWAP2 PUSH2 0x75D JUMP JUMPDEST DUP3 ADD SWAP2 SWAP1 PUSH1 0x0 MSTORE PUSH1 0x20 PUSH1 0x0 KECCAK256 SWAP1 JUMPDEST DUP2 SLOAD DUP2 MSTORE SWAP1 PUSH1 0x1 ADD SWAP1 PUSH1 0x20 ADD DUP1 DUP4 GT PUSH2 0x740 JUMPI DUP3 SWAP1 SUB PUSH1 0x1F AND DUP3 ADD SWAP2 JUMPDEST POP POP POP POP POP SWAP1 POP SWAP1 JUMP JUMPDEST PUSH1 0x0 PUSH2 0x774 CALLER DUP5 DUP5 PUSH2 0x1A8F JUMP JUMPDEST POP PUSH1 0x1 JUMPDEST SWAP3 SWAP2 POP POP JUMP JUMPDEST PUSH1 0xC SLOAD PUSH1 0x40 DUP1 MLOAD DUP1 DUP3 ADD SWAP1 SWAP2 MSTORE PUSH1 0xE DUP2 MSTORE PUSH14 0x1B9BDD08185D5D1A1BDC9A5E9959 PUSH1 0x92 SHL PUSH1 0x20 DUP3 ADD MSTORE SWAP1 PUSH1 0x1 PUSH1 0x1 PUSH1 0xA0 SHL SUB AND CALLER EQ PUSH2 0x7D8 JUMPI PUSH1 0x40 MLOAD PUSH3 0x461BCD PUSH1 0xE5 SHL DUP2 MSTORE PUSH1 0x4 ADD PUSH2 0x7CF SWAP2 SWAP1 PUSH2 0x5272 JUMP JUMPDEST PUSH1 0x40 MLOAD DUP1 SWAP2 SUB SWAP1 REVERT JUMPDEST POP PUSH1 0xC DUP1 SLOAD PUSH1 0x1 PUSH1 0x1 PUSH1 0xA0 SHL SUB NOT AND PUSH1 0x1 PUSH1 0x1 PUSH1 0xA0 SHL SUB DUP4 AND OR SWAP1 SSTORE PUSH1 0x40 MLOAD PUSH32 0xB8FD9AFC34C38FCD13B9A3B7646482EB1FDDCEFB40AF2C70609972816EBA3208 SWAP1 PUSH2 0x824 SWAP1 DUP4 SWAP1 PUSH2 0x5093 JUMP JUMPDEST PUSH1 0x40 MLOAD DUP1 SWAP2 SUB SWAP1 LOG1 POP JUMP JUMPDEST PUSH2 0x837 PUSH2 0x1AF1 JUMP JUMPDEST PUSH2 0x840 DUP2 PUSH2 0x1B1F JUMP JUMPDEST POP JUMP JUMPDEST PUSH1 0x2 SLOAD SWAP1 JUMP JUMPDEST PUSH1 0x0 DUP1 PUSH1 0x0 PUSH2 0x856 PUSH2 0x1B9B JUMP JUMPDEST ISZERO SWAP3 POP PUSH2 0x861 PUSH2 0x1BB8 JUMP JUMPDEST SWAP2 POP PUSH2 0x86B PUSH2 0x1BDC JUMP JUMPDEST SWAP1 POP SWAP1 SWAP2 SWAP3 JUMP JUMPDEST PUSH1 0x60 DUP2 MLOAD PUSH1 0x1 PUSH1 0x1 PUSH1 0x40 SHL SUB DUP2 GT DUP1 ISZERO PUSH2 0x88B JUMPI PUSH1 0x0 DUP1 REVERT JUMPDEST POP PUSH1 0x40 MLOAD SWAP1 DUP1 DUP3 MSTORE DUP1 PUSH1 0x20 MUL PUSH1 0x20 ADD DUP3 ADD PUSH1 0x40 MSTORE DUP1 ISZERO PUSH2 0x8B5 JUMPI DUP2 PUSH1 0x20 ADD PUSH1 0x20 DUP3 MUL DUP1 CALLDATASIZE DUP4 CALLDATACOPY ADD SWAP1 POP JUMPDEST POP SWAP1 POP PUSH1 0x0 PUSH2 0x8C2 PUSH2 0x1C00 JUMP JUMPDEST SWAP1 POP PUSH1 0x0 JUMPDEST DUP4 MLOAD DUP2 LT ISZERO PUSH2 0x98E JUMPI PUSH20 0x0 PUSH4 0x79EAEF82 PUSH1 0x8 DUP7 DUP5 DUP2 MLOAD DUP2 LT PUSH2 0x8F8 JUMPI INVALID JUMPDEST PUSH1 0x20 MUL PUSH1 0x20 ADD ADD MLOAD DUP6 PUSH1 0x40 MLOAD DUP5 PUSH4 0xFFFFFFFF AND PUSH1 0xE0 SHL DUP2 MSTORE PUSH1 0x4 ADD PUSH2 0x91F SWAP4 SWAP3 SWAP2 SWAP1 PUSH2 0x5239 JUMP JUMPDEST PUSH1 0x20 PUSH1 0x40 MLOAD DUP1 DUP4 SUB DUP2 DUP7 DUP1 EXTCODESIZE ISZERO DUP1 ISZERO PUSH2 0x937 JUMPI PUSH1 0x0 DUP1 REVERT JUMPDEST POP GAS DELEGATECALL ISZERO DUP1 ISZERO PUSH2 0x94B JUMPI RETURNDATASIZE PUSH1 0x0 DUP1 RETURNDATACOPY RETURNDATASIZE PUSH1 0x0 REVERT JUMPDEST POP POP POP POP PUSH1 0x40 MLOAD RETURNDATASIZE PUSH1 0x1F NOT PUSH1 0x1F DUP3 ADD AND DUP3 ADD DUP1 PUSH1 0x40 MSTORE POP DUP2 ADD SWAP1 PUSH2 0x96F SWAP2 SWAP1 PUSH2 0x4E02 JUMP JUMPDEST DUP4 DUP3 DUP2 MLOAD DUP2 LT PUSH2 0x97B JUMPI INVALID JUMPDEST PUSH1 0x20 SWAP1 DUP2 MUL SWAP2 SWAP1 SWAP2 ADD ADD MSTORE PUSH1 0x1 ADD PUSH2 0x8C7 JUMP JUMPDEST POP POP SWAP2 SWAP1 POP JUMP JUMPDEST PUSH1 0x0 DUP1 PUSH2 0x9A2 DUP6 CALLER PUSH2 0x19BE JUMP JUMPDEST SWAP1 POP PUSH2 0x9C6 CALLER PUSH1 0x1 PUSH1 0x1 PUSH1 0xA0 SHL SUB DUP8 AND EQ DUP1 PUSH2 0x9BE JUMPI POP DUP4 DUP3 LT ISZERO JUMPDEST PUSH2 0x19E PUSH2 0x1C0D JUMP JUMPDEST PUSH2 0x9D1 DUP6 DUP6 DUP6 PUSH2 0x1C1B JUMP JUMPDEST CALLER PUSH1 0x1 PUSH1 0x1 PUSH1 0xA0 SHL SUB DUP7 AND EQ DUP1 ISZERO SWAP1 PUSH2 0x9EC JUMPI POP PUSH1 0x0 NOT DUP2 EQ ISZERO JUMPDEST ISZERO PUSH2 0x9FE JUMPI PUSH2 0x9FE DUP6 CALLER DUP6 DUP5 SUB PUSH2 0x1A8F JUMP JUMPDEST POP PUSH1 0x1 SWAP5 SWAP4 POP POP POP POP JUMP JUMPDEST PUSH2 0xA11 PUSH2 0x1D03 JUMP JUMPDEST PUSH2 0xA19 PUSH2 0x1AF1 JUMP JUMPDEST PUSH2 0xA23 PUSH1 0x1 PUSH2 0x1D16 JUMP JUMPDEST PUSH1 0x0 PUSH2 0xA2D PUSH2 0x843 JUMP JUMPDEST GT ISZERO PUSH2 0xA3B JUMPI PUSH2 0xA3B PUSH2 0x1D56 JUMP JUMPDEST JUMP JUMPDEST PUSH1 0x5 SLOAD PUSH1 0xFF AND SWAP1 JUMP JUMPDEST PUSH2 0xA61 DUP2 DUP4 LT DUP1 ISZERO PUSH2 0xA5A JUMPI POP PUSH2 0x400 DUP3 GT ISZERO JUMPDEST PUSH1 0x64 PUSH2 0x1C0D JUMP JUMPDEST PUSH1 0x0 PUSH2 0xA76 PUSH1 0x1 PUSH1 0x0 DUP1 PUSH1 0x0 DUP1 PUSH1 0x0 DUP1 PUSH2 0x1D9E JUMP JUMPDEST SWAP1 POP DUP3 JUMPDEST DUP3 DUP2 LT ISZERO PUSH2 0xAB8 JUMPI PUSH1 0x0 DUP2 DUP2 MSTORE PUSH1 0x8 PUSH1 0x20 MSTORE PUSH1 0x40 SWAP1 KECCAK256 SLOAD PUSH2 0xA9A SWAP1 PUSH2 0x1DFE JUMP JUMPDEST PUSH2 0xAB0 JUMPI PUSH1 0x0 DUP2 DUP2 MSTORE PUSH1 0x8 PUSH1 0x20 MSTORE PUSH1 0x40 SWAP1 KECCAK256 DUP3 SWAP1 SSTORE JUMPDEST PUSH1 0x1 ADD PUSH2 0xA7A JUMP JUMPDEST POP POP POP POP JUMP JUMPDEST PUSH1 0x0 PUSH2 0xAC8 PUSH2 0x1E0A JUMP JUMPDEST SWAP1 POP SWAP1 JUMP JUMPDEST PUSH2 0xAD5 PUSH2 0x1AF1 JUMP JUMPDEST PUSH2 0xADD PUSH2 0x1D03 JUMP JUMPDEST PUSH2 0x840 DUP2 PUSH2 0x1EC8 JUMP JUMPDEST PUSH32 0x0 SWAP1 JUMP JUMPDEST CALLER PUSH1 0x0 DUP2 DUP2 MSTORE PUSH1 0x1 PUSH1 0x20 SWAP1 DUP2 MSTORE PUSH1 0x40 DUP1 DUP4 KECCAK256 PUSH1 0x1 PUSH1 0x1 PUSH1 0xA0 SHL SUB DUP8 AND DUP5 MSTORE SWAP1 SWAP2 MSTORE DUP2 KECCAK256 SLOAD SWAP1 SWAP2 PUSH2 0x774 SWAP2 DUP6 SWAP1 PUSH2 0xB40 SWAP1 DUP7 PUSH2 0x1F31 JUMP JUMPDEST PUSH2 0x1A8F JUMP JUMPDEST PUSH2 0xB4D PUSH2 0x48C9 JUMP JUMPDEST POP PUSH1 0x40 DUP1 MLOAD PUSH1 0x60 DUP2 ADD DUP3 MSTORE PUSH1 0xB SLOAD PUSH1 0xFF DUP2 AND ISZERO ISZERO DUP3 MSTORE PUSH2 0x100 DUP2 DIV PUSH1 0x1 PUSH1 0x1 PUSH1 0x78 SHL SUB AND PUSH1 0x20 DUP4 ADD MSTORE PUSH1 0x1 PUSH1 0x80 SHL SWAP1 DIV PUSH1 0x1 PUSH1 0x1 PUSH1 0x80 SHL SUB AND SWAP2 DUP2 ADD SWAP2 SWAP1 SWAP2 MSTORE SWAP1 JUMP JUMPDEST PUSH1 0x0 DUP1 PUSH1 0x0 DUP1 PUSH2 0xB9F DUP6 PUSH2 0x1F43 JUMP JUMPDEST SWAP1 POP PUSH1 0x0 PUSH2 0xBAD DUP7 ISZERO PUSH2 0x1F43 JUMP JUMPDEST SWAP1 POP PUSH2 0xBB9 DUP9 DUP4 PUSH2 0x1F97 JUMP JUMPDEST SWAP8 POP PUSH2 0xBC5 DUP8 DUP3 PUSH2 0x1F97 JUMP JUMPDEST SWAP7 POP PUSH2 0xBD2 DUP9 DUP9 DUP9 PUSH2 0x1FA3 JUMP JUMPDEST SWAP5 POP SWAP5 POP SWAP5 POP POP POP SWAP4 POP SWAP4 POP SWAP4 SWAP1 POP JUMP JUMPDEST PUSH1 0xD SLOAD PUSH1 0x40 DUP1 MLOAD DUP1 DUP3 ADD SWAP1 SWAP2 MSTORE PUSH1 0x11 DUP2 MSTORE PUSH17 0x3737BA103830BAB9B29036B0B730B3B2B9 PUSH1 0x79 SHL PUSH1 0x20 DUP3 ADD MSTORE SWAP1 PUSH1 0x1 PUSH1 0x1 PUSH1 0xA0 SHL SUB AND CALLER EQ PUSH2 0xCA2 JUMPI PUSH1 0x40 MLOAD PUSH3 0x461BCD PUSH1 0xE5 SHL DUP2 MSTORE PUSH1 0x4 ADD DUP1 DUP1 PUSH1 0x20 ADD DUP3 DUP2 SUB DUP3 MSTORE DUP4 DUP2 DUP2 MLOAD DUP2 MSTORE PUSH1 0x20 ADD SWAP2 POP DUP1 MLOAD SWAP1 PUSH1 0x20 ADD SWAP1 DUP1 DUP4 DUP4 PUSH1 0x0 JUMPDEST DUP4 DUP2 LT ISZERO PUSH2 0xC67 JUMPI DUP2 DUP2 ADD MLOAD DUP4 DUP3 ADD MSTORE PUSH1 0x20 ADD PUSH2 0xC4F JUMP JUMPDEST POP POP POP POP SWAP1 POP SWAP1 DUP2 ADD SWAP1 PUSH1 0x1F AND DUP1 ISZERO PUSH2 0xC94 JUMPI DUP1 DUP3 SUB DUP1 MLOAD PUSH1 0x1 DUP4 PUSH1 0x20 SUB PUSH2 0x100 EXP SUB NOT AND DUP2 MSTORE PUSH1 0x20 ADD SWAP2 POP JUMPDEST POP SWAP3 POP POP POP PUSH1 0x40 MLOAD DUP1 SWAP2 SUB SWAP1 REVERT JUMPDEST POP PUSH2 0xCAD PUSH1 0x0 PUSH2 0x837 JUMP JUMPDEST PUSH1 0x40 MLOAD PUSH32 0x215385C8BFC731925EC8068D7BAA50F6B6F34417CC7804F7273DC2C0B3DB2790 SWAP1 PUSH1 0x0 SWAP1 LOG1 JUMP JUMPDEST PUSH1 0xE SLOAD PUSH1 0x1 PUSH1 0x1 PUSH1 0xA0 SHL SUB AND DUP2 JUMP JUMPDEST PUSH1 0x0 DUP1 PUSH1 0x0 DUP1 PUSH1 0x0 DUP1 PUSH1 0x0 PUSH1 0x9 SLOAD SWAP1 POP PUSH2 0xD00 DUP2 PUSH2 0x2072 JUMP JUMPDEST SWAP7 POP PUSH2 0xD0B DUP2 PUSH2 0x207E JUMP JUMPDEST SWAP6 POP PUSH2 0xD16 DUP2 PUSH2 0x208B JUMP JUMPDEST SWAP5 POP PUSH2 0xD21 DUP2 PUSH2 0x2098 JUMP JUMPDEST SWAP4 POP PUSH2 0xD2C DUP2 PUSH2 0x20A5 JUMP JUMPDEST SWAP3 POP PUSH2 0xD37 DUP2 PUSH2 0x20B2 JUMP JUMPDEST SWAP2 POP POP SWAP1 SWAP2 SWAP3 SWAP4 SWAP5 SWAP6 JUMP JUMPDEST PUSH1 0x0 PUSH2 0xAC8 PUSH1 0x9 SLOAD PUSH2 0x20B2 JUMP JUMPDEST PUSH1 0x0 PUSH1 0x60 PUSH2 0xD5F DUP7 MLOAD PUSH1 0x2 PUSH2 0x20BF JUMP JUMPDEST PUSH2 0xD74 DUP10 DUP10 DUP10 DUP10 DUP10 DUP10 DUP10 PUSH2 0x20CC PUSH2 0x21E0 PUSH2 0x225E JUMP JUMPDEST SWAP8 POP SWAP8 SWAP6 POP POP POP POP POP POP JUMP JUMPDEST PUSH1 0x0 DUP1 PUSH1 0x0 DUP1 PUSH1 0x0 DUP1 PUSH1 0x0 PUSH2 0xD9B PUSH2 0x400 DUP10 LT PUSH2 0x13B PUSH2 0x1C0D JUMP JUMPDEST PUSH1 0x0 PUSH2 0xDA6 DUP10 PUSH2 0x2371 JUMP JUMPDEST SWAP1 POP PUSH2 0xDB1 DUP2 PUSH2 0x2383 JUMP JUMPDEST SWAP6 SWAP16 SWAP5 SWAP15 POP SWAP3 SWAP13 POP SWAP1 SWAP11 POP SWAP9 POP SWAP7 POP SWAP1 SWAP5 POP SWAP3 POP POP POP JUMP JUMPDEST PUSH1 0x0 PUSH2 0xAC8 PUSH2 0xDD6 PUSH2 0x843 JUMP JUMPDEST PUSH2 0xDE8 PUSH2 0xDE1 PUSH2 0x16F3 JUMP JUMPDEST PUSH1 0x2 PUSH2 0x23E6 JUMP JUMPDEST SWAP1 PUSH2 0x240A JUMP JUMPDEST PUSH1 0x60 DUP2 MLOAD PUSH1 0x1 PUSH1 0x1 PUSH1 0x40 SHL SUB DUP2 GT DUP1 ISZERO PUSH2 0xE07 JUMPI PUSH1 0x0 DUP1 REVERT JUMPDEST POP PUSH1 0x40 MLOAD SWAP1 DUP1 DUP3 MSTORE DUP1 PUSH1 0x20 MUL PUSH1 0x20 ADD DUP3 ADD PUSH1 0x40 MSTORE DUP1 ISZERO PUSH2 0xE31 JUMPI DUP2 PUSH1 0x20 ADD PUSH1 0x20 DUP3 MUL DUP1 CALLDATASIZE DUP4 CALLDATACOPY ADD SWAP1 POP JUMPDEST POP SWAP1 POP PUSH1 0x0 PUSH2 0xE3E PUSH2 0x1C00 JUMP JUMPDEST SWAP1 POP PUSH2 0xE48 PUSH2 0x48E9 JUMP JUMPDEST PUSH1 0x0 JUMPDEST DUP5 MLOAD DUP2 LT ISZERO PUSH2 0xE9C JUMPI DUP5 DUP2 DUP2 MLOAD DUP2 LT PUSH2 0xE60 JUMPI INVALID JUMPDEST PUSH1 0x20 MUL PUSH1 0x20 ADD ADD MLOAD SWAP2 POP PUSH2 0xE7D DUP3 PUSH1 0x0 ADD MLOAD DUP5 DUP5 PUSH1 0x20 ADD MLOAD PUSH2 0x2464 JUMP JUMPDEST DUP5 DUP3 DUP2 MLOAD DUP2 LT PUSH2 0xE89 JUMPI INVALID JUMPDEST PUSH1 0x20 SWAP1 DUP2 MUL SWAP2 SWAP1 SWAP2 ADD ADD MSTORE PUSH1 0x1 ADD PUSH2 0xE4B JUMP JUMPDEST POP POP POP SWAP2 SWAP1 POP JUMP JUMPDEST PUSH1 0xC SLOAD PUSH1 0x1 PUSH1 0x1 PUSH1 0xA0 SHL SUB AND DUP2 JUMP JUMPDEST PUSH2 0xEBB PUSH2 0x4900 JUMP JUMPDEST PUSH2 0xAC8 PUSH2 0x24FD JUMP JUMPDEST PUSH1 0x1 PUSH1 0x1 PUSH1 0xA0 SHL SUB DUP2 AND PUSH1 0x0 SWAP1 DUP2 MSTORE PUSH1 0x20 DUP2 SWAP1 MSTORE PUSH1 0x40 SWAP1 KECCAK256 SLOAD JUMPDEST SWAP2 SWAP1 POP JUMP JUMPDEST PUSH1 0x60 DUP1 DUP9 PUSH2 0xF0C PUSH2 0xEF1 PUSH2 0x1309 JUMP JUMPDEST PUSH1 0x1 PUSH1 0x1 PUSH1 0xA0 SHL SUB AND CALLER PUSH1 0x1 PUSH1 0x1 PUSH1 0xA0 SHL SUB AND EQ PUSH1 0xCD PUSH2 0x1C0D JUMP JUMPDEST PUSH2 0xF21 PUSH2 0xF17 PUSH2 0xAE6 JUMP JUMPDEST DUP3 EQ PUSH2 0x1F4 PUSH2 0x1C0D JUMP JUMPDEST PUSH2 0xF2A DUP8 PUSH2 0x2523 JUMP JUMPDEST PUSH1 0x0 DUP1 PUSH1 0x0 PUSH2 0xF3E DUP14 DUP14 DUP14 DUP14 DUP14 DUP14 DUP14 PUSH2 0x20CC JUMP JUMPDEST SWAP3 POP SWAP3 POP SWAP3 POP PUSH2 0xF4E DUP13 DUP5 PUSH2 0x2585 JUMP JUMPDEST PUSH2 0xF57 DUP3 PUSH2 0x21E0 JUMP JUMPDEST PUSH2 0xF60 DUP2 PUSH2 0x21E0 JUMP JUMPDEST PUSH2 0xF68 PUSH2 0x1B9B JUMP JUMPDEST ISZERO PUSH2 0xF75 JUMPI PUSH2 0xF75 PUSH2 0x1D56 JUMP JUMPDEST SWAP1 SWAP13 SWAP1 SWAP12 POP SWAP10 POP POP POP POP POP POP POP POP POP POP JUMP JUMPDEST PUSH1 0xC SLOAD PUSH1 0x40 DUP1 MLOAD DUP1 DUP3 ADD SWAP1 SWAP2 MSTORE PUSH1 0xE DUP2 MSTORE PUSH14 0x1B9BDD08185D5D1A1BDC9A5E9959 PUSH1 0x92 SHL PUSH1 0x20 DUP3 ADD MSTORE SWAP1 PUSH1 0x1 PUSH1 0x1 PUSH1 0xA0 SHL SUB AND CALLER EQ PUSH2 0xFD8 JUMPI PUSH1 0x40 MLOAD PUSH3 0x461BCD PUSH1 0xE5 SHL DUP2 MSTORE PUSH1 0x4 ADD PUSH2 0x7CF SWAP2 SWAP1 PUSH2 0x5272 JUMP JUMPDEST POP PUSH1 0xB SLOAD PUSH1 0x40 DUP1 MLOAD DUP1 DUP3 ADD SWAP1 SWAP2 MSTORE PUSH1 0x10 DUP2 MSTORE PUSH16 0x1C1BDBDB081A5CC81D5B98D85C1C1959 PUSH1 0x82 SHL PUSH1 0x20 DUP3 ADD MSTORE SWAP1 PUSH1 0xFF AND PUSH2 0x1024 JUMPI PUSH1 0x40 MLOAD PUSH3 0x461BCD PUSH1 0xE5 SHL DUP2 MSTORE PUSH1 0x4 ADD PUSH2 0x7CF SWAP2 SWAP1 PUSH2 0x5272 JUMP JUMPDEST POP DUP1 MLOAD PUSH1 0xB DUP1 SLOAD PUSH1 0x20 DUP5 ADD MLOAD PUSH1 0x40 DUP1 DUP7 ADD MLOAD PUSH1 0xFF NOT SWAP1 SWAP4 AND SWAP5 ISZERO ISZERO SWAP5 SWAP1 SWAP5 OR PUSH16 0xFFFFFFFFFFFFFFFFFFFFFFFFFFFFFF00 NOT AND PUSH2 0x100 PUSH1 0x1 PUSH1 0x1 PUSH1 0x78 SHL SUB SWAP1 SWAP3 AND SWAP2 SWAP1 SWAP2 MUL OR PUSH1 0x1 PUSH1 0x1 PUSH1 0x80 SHL SUB SWAP1 DUP2 AND PUSH1 0x1 PUSH1 0x80 SHL SWAP2 SWAP1 SWAP3 AND MUL OR DUP2 SSTORE SWAP1 MLOAD PUSH32 0x2ABF5970D7BC1A2B36EAAE52DD2CC353EDB0337C7284EF8A01973081B4E04424 SWAP2 PUSH2 0x824 SWAP2 PUSH2 0x52FA JUMP JUMPDEST PUSH1 0x1 PUSH1 0x1 PUSH1 0xA0 SHL SUB AND PUSH1 0x0 SWAP1 DUP2 MSTORE PUSH1 0x6 PUSH1 0x20 MSTORE PUSH1 0x40 SWAP1 KECCAK256 SLOAD SWAP1 JUMP JUMPDEST PUSH1 0xD SLOAD PUSH1 0x40 DUP1 MLOAD DUP1 DUP3 ADD SWAP1 SWAP2 MSTORE PUSH1 0x11 DUP2 MSTORE PUSH17 0x3737BA103830BAB9B29036B0B730B3B2B9 PUSH1 0x79 SHL PUSH1 0x20 DUP3 ADD MSTORE PUSH1 0x1 PUSH1 0x1 PUSH1 0xA0 SHL SUB SWAP1 SWAP2 AND SWAP1 CALLER DUP3 EQ PUSH2 0x114E JUMPI PUSH1 0x40 MLOAD PUSH3 0x461BCD PUSH1 0xE5 SHL DUP2 MSTORE PUSH1 0x20 PUSH1 0x4 DUP3 ADD DUP2 DUP2 MSTORE DUP4 MLOAD PUSH1 0x24 DUP5 ADD MSTORE DUP4 MLOAD SWAP1 SWAP3 DUP4 SWAP3 PUSH1 0x44 SWAP1 SWAP2 ADD SWAP2 SWAP1 DUP6 ADD SWAP1 DUP1 DUP4 DUP4 PUSH1 0x0 DUP4 ISZERO PUSH2 0xC67 JUMPI DUP2 DUP2 ADD MLOAD DUP4 DUP3 ADD MSTORE PUSH1 0x20 ADD PUSH2 0xC4F JUMP JUMPDEST POP PUSH1 0xD DUP1 SLOAD PUSH1 0x1 PUSH1 0x1 PUSH1 0xA0 SHL SUB NOT AND PUSH1 0x1 PUSH1 0x1 PUSH1 0xA0 SHL SUB DUP5 DUP2 AND SWAP2 DUP3 OR SWAP1 SWAP3 SSTORE PUSH1 0x40 DUP1 MLOAD SWAP3 DUP5 AND DUP4 MSTORE PUSH1 0x20 DUP4 ADD SWAP2 SWAP1 SWAP2 MSTORE DUP1 MLOAD PUSH32 0x1FFCCD1FA96F4FB3415DF8048A0FD107344E262D2D246C85105E2A3F8F3E8198 SWAP3 DUP2 SWAP1 SUB SWAP1 SWAP2 ADD SWAP1 LOG1 POP POP JUMP JUMPDEST PUSH1 0xD SLOAD PUSH1 0x40 DUP1 MLOAD DUP1 DUP3 ADD SWAP1 SWAP2 MSTORE PUSH1 0x11 DUP2 MSTORE PUSH17 0x3737BA103830BAB9B29036B0B730B3B2B9 PUSH1 0x79 SHL PUSH1 0x20 DUP3 ADD MSTORE SWAP1 PUSH1 0x1 PUSH1 0x1 PUSH1 0xA0 SHL SUB AND CALLER EQ PUSH2 0x1231 JUMPI PUSH1 0x40 MLOAD PUSH3 0x461BCD PUSH1 0xE5 SHL DUP2 MSTORE PUSH1 0x20 PUSH1 0x4 DUP3 ADD DUP2 DUP2 MSTORE DUP4 MLOAD PUSH1 0x24 DUP5 ADD MSTORE DUP4 MLOAD SWAP1 SWAP3 DUP4 SWAP3 PUSH1 0x44 SWAP1 SWAP2 ADD SWAP2 SWAP1 DUP6 ADD SWAP1 DUP1 DUP4 DUP4 PUSH1 0x0 DUP4 ISZERO PUSH2 0xC67 JUMPI DUP2 DUP2 ADD MLOAD DUP4 DUP3 ADD MSTORE PUSH1 0x20 ADD PUSH2 0xC4F JUMP JUMPDEST POP PUSH2 0x123C PUSH1 0x1 PUSH2 0x837 JUMP JUMPDEST PUSH1 0x40 MLOAD PUSH32 0x681EACE576127D0553B224436A09801FB47D042942CBFF59D7D4FF04D8FA03D7 SWAP1 PUSH1 0x0 SWAP1 LOG1 JUMP JUMPDEST PUSH1 0x40 DUP1 MLOAD PUSH32 0x0 PUSH1 0x20 DUP1 DUP4 ADD SWAP2 SWAP1 SWAP2 MSTORE PUSH1 0x1 PUSH1 0x1 PUSH1 0xE0 SHL SUB NOT DUP5 AND DUP3 DUP5 ADD MSTORE DUP3 MLOAD PUSH1 0x24 DUP2 DUP5 SUB ADD DUP2 MSTORE PUSH1 0x44 SWAP1 SWAP3 ADD SWAP1 SWAP3 MSTORE DUP1 MLOAD SWAP2 ADD KECCAK256 SWAP2 SWAP1 POP JUMP JUMPDEST PUSH1 0x0 PUSH1 0x60 PUSH2 0x12D0 DUP7 MLOAD PUSH1 0x2 PUSH2 0x20BF JUMP JUMPDEST PUSH2 0xD74 DUP10 DUP10 DUP10 DUP10 DUP10 DUP10 DUP10 PUSH2 0x258F PUSH2 0x265F PUSH2 0x225E JUMP JUMPDEST PUSH32 0x0 SWAP1 JUMP JUMPDEST PUSH32 0x0 SWAP1 JUMP JUMPDEST PUSH1 0x60 PUSH1 0x0 PUSH2 0x1339 PUSH2 0x26C1 JUMP JUMPDEST PUSH1 0x40 DUP1 MLOAD PUSH1 0x2 DUP1 DUP3 MSTORE PUSH1 0x60 DUP3 ADD DUP4 MSTORE SWAP3 SWAP4 POP SWAP2 SWAP1 PUSH1 0x20 DUP4 ADD SWAP1 DUP1 CALLDATASIZE DUP4 CALLDATACOPY ADD SWAP1 POP POP SWAP2 POP PUSH2 0x1390 DUP2 PUSH1 0x0 DUP2 MLOAD DUP2 LT PUSH2 0x136C JUMPI INVALID JUMPDEST PUSH1 0x20 MUL PUSH1 0x20 ADD ADD MLOAD DUP3 PUSH1 0x1 DUP2 MLOAD DUP2 LT PUSH2 0x1381 JUMPI INVALID JUMPDEST PUSH1 0x20 MUL PUSH1 0x20 ADD ADD MLOAD PUSH1 0x1 PUSH2 0x1FA3 JUMP JUMPDEST SWAP1 SWAP2 POP DUP4 PUSH1 0x0 DUP2 MLOAD DUP2 LT PUSH2 0x13A0 JUMPI INVALID JUMPDEST PUSH1 0x20 MUL PUSH1 0x20 ADD ADD DUP5 PUSH1 0x1 DUP2 MLOAD DUP2 LT PUSH2 0x13B4 JUMPI INVALID JUMPDEST PUSH1 0x20 SWAP1 DUP2 MUL SWAP2 SWAP1 SWAP2 ADD ADD SWAP2 SWAP1 SWAP2 MSTORE MSTORE POP SWAP1 JUMP JUMPDEST PUSH1 0x4 DUP1 SLOAD PUSH1 0x40 DUP1 MLOAD PUSH1 0x20 PUSH1 0x1F PUSH1 0x2 PUSH1 0x0 NOT PUSH2 0x100 PUSH1 0x1 DUP9 AND ISZERO MUL ADD SWAP1 SWAP6 AND SWAP5 SWAP1 SWAP5 DIV SWAP4 DUP5 ADD DUP2 SWAP1 DIV DUP2 MUL DUP3 ADD DUP2 ADD SWAP1 SWAP3 MSTORE DUP3 DUP2 MSTORE PUSH1 0x60 SWAP4 SWAP1 SWAP3 SWAP1 SWAP2 DUP4 ADD DUP3 DUP3 DUP1 ISZERO PUSH2 0x75D JUMPI DUP1 PUSH1 0x1F LT PUSH2 0x732 JUMPI PUSH2 0x100 DUP1 DUP4 SLOAD DIV MUL DUP4 MSTORE SWAP2 PUSH1 0x20 ADD SWAP2 PUSH2 0x75D JUMP JUMPDEST PUSH1 0xA SLOAD SWAP1 JUMP JUMPDEST PUSH1 0x0 PUSH2 0x1438 PUSH2 0x1D03 JUMP JUMPDEST DUP4 PUSH1 0x80 ADD MLOAD PUSH2 0x1448 PUSH2 0xEF1 PUSH2 0x1309 JUMP JUMPDEST PUSH2 0x1453 PUSH2 0xF17 PUSH2 0xAE6 JUMP JUMPDEST PUSH1 0x0 PUSH32 0x0 PUSH1 0x1 PUSH1 0x1 PUSH1 0xA0 SHL SUB AND DUP7 PUSH1 0x20 ADD MLOAD PUSH1 0x1 PUSH1 0x1 PUSH1 0xA0 SHL SUB AND EQ SWAP1 POP PUSH1 0x0 PUSH2 0x149B DUP3 PUSH2 0x1F43 JUMP JUMPDEST SWAP1 POP PUSH1 0x0 PUSH2 0x14A9 DUP4 ISZERO PUSH2 0x1F43 JUMP JUMPDEST SWAP1 POP PUSH2 0x14B5 DUP8 DUP4 PUSH2 0x1F97 JUMP JUMPDEST SWAP7 POP PUSH2 0x14C1 DUP7 DUP3 PUSH2 0x1F97 JUMP JUMPDEST SWAP6 POP PUSH1 0x0 DUP1 PUSH1 0x0 PUSH2 0x14D3 DUP11 DUP11 DUP9 PUSH2 0x1FA3 JUMP JUMPDEST SWAP3 POP SWAP3 POP SWAP3 POP PUSH2 0x151A DUP12 PUSH1 0xA0 ADD MLOAD DUP8 PUSH2 0x14EC JUMPI DUP11 PUSH2 0x14EE JUMP JUMPDEST DUP12 JUMPDEST DUP9 PUSH2 0x14F9 JUMPI DUP13 PUSH2 0x14FB JUMP JUMPDEST DUP12 JUMPDEST DUP10 PUSH2 0x1506 JUMPI DUP5 PUSH2 0x1508 JUMP JUMPDEST DUP6 JUMPDEST DUP11 PUSH2 0x1513 JUMPI DUP7 PUSH2 0x1515 JUMP JUMPDEST DUP6 JUMPDEST PUSH2 0x27AA JUMP JUMPDEST PUSH1 0x0 DUP12 MLOAD PUSH1 0x1 DUP2 GT ISZERO PUSH2 0x1529 JUMPI INVALID JUMPDEST EQ ISZERO PUSH2 0x1598 JUMPI PUSH1 0x0 PUSH2 0x1547 PUSH2 0x153C PUSH2 0xD42 JUMP JUMPDEST PUSH1 0x60 DUP15 ADD MLOAD SWAP1 PUSH2 0x2854 JUMP JUMPDEST SWAP1 POP PUSH2 0x1569 PUSH2 0x1563 DUP3 DUP15 PUSH1 0x60 ADD MLOAD PUSH2 0x28A9 SWAP1 SWAP2 SWAP1 PUSH4 0xFFFFFFFF AND JUMP JUMPDEST DUP8 PUSH2 0x1F97 JUMP JUMPDEST PUSH1 0x60 DUP14 ADD MSTORE PUSH1 0x0 PUSH2 0x157D DUP14 DUP14 DUP14 DUP8 DUP8 PUSH2 0x28BF JUMP JUMPDEST SWAP1 POP PUSH2 0x1589 DUP2 DUP8 PUSH2 0x28DE JUMP JUMPDEST SWAP10 POP POP POP POP POP POP POP POP POP PUSH2 0x15EC JUMP JUMPDEST PUSH2 0x15A6 DUP12 PUSH1 0x60 ADD MLOAD DUP6 PUSH2 0x1F97 JUMP JUMPDEST PUSH1 0x60 DUP13 ADD MSTORE PUSH1 0x0 PUSH2 0x15BA DUP13 DUP13 DUP13 DUP7 DUP7 PUSH2 0x28EA JUMP JUMPDEST SWAP1 POP PUSH2 0x15C6 DUP2 DUP8 PUSH2 0x28FD JUMP JUMPDEST SWAP1 POP PUSH2 0x15E2 PUSH2 0x15DB PUSH2 0x15D6 PUSH2 0xD42 JUMP JUMPDEST PUSH2 0x2909 JUMP JUMPDEST DUP3 SWAP1 PUSH2 0x292F JUMP JUMPDEST SWAP9 POP POP POP POP POP POP POP POP JUMPDEST POP SWAP4 SWAP3 POP POP POP JUMP JUMPDEST PUSH1 0x0 DUP1 PUSH2 0x1601 CALLER DUP6 PUSH2 0x19BE JUMP JUMPDEST SWAP1 POP DUP1 DUP4 LT PUSH2 0x161B JUMPI PUSH2 0x1616 CALLER DUP6 PUSH1 0x0 PUSH2 0x1A8F JUMP JUMPDEST PUSH2 0x1628 JUMP JUMPDEST PUSH2 0x1628 CALLER DUP6 DUP6 DUP5 SUB PUSH2 0x1A8F JUMP JUMPDEST POP PUSH1 0x1 SWAP4 SWAP3 POP POP POP JUMP JUMPDEST PUSH1 0x0 PUSH2 0x774 CALLER DUP5 DUP5 PUSH2 0x1C1B JUMP JUMPDEST PUSH1 0x0 PUSH2 0xAC8 PUSH2 0x2995 JUMP JUMPDEST PUSH1 0xD SLOAD PUSH1 0x1 PUSH1 0x1 PUSH1 0xA0 SHL SUB AND DUP2 JUMP JUMPDEST PUSH1 0x0 PUSH20 0x0 PUSH4 0x397BEE0 PUSH1 0x8 DUP5 PUSH2 0x167F PUSH2 0x1C00 JUMP JUMPDEST PUSH1 0x40 MLOAD DUP5 PUSH4 0xFFFFFFFF AND PUSH1 0xE0 SHL DUP2 MSTORE PUSH1 0x4 ADD PUSH2 0x169D SWAP4 SWAP3 SWAP2 SWAP1 PUSH2 0x51F1 JUMP JUMPDEST PUSH1 0x20 PUSH1 0x40 MLOAD DUP1 DUP4 SUB DUP2 DUP7 DUP1 EXTCODESIZE ISZERO DUP1 ISZERO PUSH2 0x16B5 JUMPI PUSH1 0x0 DUP1 REVERT JUMPDEST POP GAS DELEGATECALL ISZERO DUP1 ISZERO PUSH2 0x16C9 JUMPI RETURNDATASIZE PUSH1 0x0 DUP1 RETURNDATACOPY RETURNDATASIZE PUSH1 0x0 REVERT JUMPDEST POP POP POP POP PUSH1 0x40 MLOAD RETURNDATASIZE PUSH1 0x1F NOT PUSH1 0x1F DUP3 ADD AND DUP3 ADD DUP1 PUSH1 0x40 MSTORE POP DUP2 ADD SWAP1 PUSH2 0x778 SWAP2 SWAP1 PUSH2 0x4E02 JUMP JUMPDEST PUSH2 0x400 SWAP1 JUMP JUMPDEST PUSH1 0x0 DUP1 PUSH2 0x16FE PUSH2 0x26C1 JUMP JUMPDEST SWAP1 POP PUSH1 0x0 PUSH2 0x170A PUSH2 0x24FD JUMP JUMPDEST SWAP1 POP PUSH2 0x1727 DUP3 DUP3 PUSH1 0x0 JUMPDEST PUSH1 0x20 MUL ADD MLOAD DUP4 PUSH1 0x1 JUMPDEST PUSH1 0x20 MUL ADD MLOAD PUSH2 0x2A0F JUMP JUMPDEST SWAP3 POP POP POP SWAP1 JUMP JUMPDEST PUSH2 0x173C DUP5 TIMESTAMP GT ISZERO PUSH1 0xD1 PUSH2 0x1C0D JUMP JUMPDEST PUSH1 0x1 PUSH1 0x1 PUSH1 0xA0 SHL SUB DUP1 DUP9 AND PUSH1 0x0 DUP2 DUP2 MSTORE PUSH1 0x6 PUSH1 0x20 SWAP1 DUP2 MSTORE PUSH1 0x40 DUP1 DUP4 KECCAK256 SLOAD DUP2 MLOAD PUSH32 0x0 DUP2 DUP6 ADD MSTORE DUP1 DUP4 ADD SWAP6 SWAP1 SWAP6 MSTORE SWAP5 DUP12 AND PUSH1 0x60 DUP6 ADD MSTORE PUSH1 0x80 DUP5 ADD DUP11 SWAP1 MSTORE PUSH1 0xA0 DUP5 ADD DUP6 SWAP1 MSTORE PUSH1 0xC0 DUP1 DUP6 ADD DUP11 SWAP1 MSTORE DUP2 MLOAD DUP1 DUP7 SUB SWAP1 SWAP2 ADD DUP2 MSTORE PUSH1 0xE0 SWAP1 SWAP5 ADD SWAP1 MSTORE DUP3 MLOAD SWAP3 ADD SWAP2 SWAP1 SWAP2 KECCAK256 SWAP1 PUSH2 0x17C8 DUP3 PUSH2 0x2A42 JUMP JUMPDEST SWAP1 POP PUSH1 0x0 PUSH1 0x1 DUP3 DUP9 DUP9 DUP9 PUSH1 0x40 MLOAD PUSH1 0x0 DUP2 MSTORE PUSH1 0x20 ADD PUSH1 0x40 MSTORE PUSH1 0x40 MLOAD DUP1 DUP6 DUP2 MSTORE PUSH1 0x20 ADD DUP5 PUSH1 0xFF AND DUP2 MSTORE PUSH1 0x20 ADD DUP4 DUP2 MSTORE PUSH1 0x20 ADD DUP3 DUP2 MSTORE PUSH1 0x20 ADD SWAP5 POP POP POP POP POP PUSH1 0x20 PUSH1 0x40 MLOAD PUSH1 0x20 DUP2 SUB SWAP1 DUP1 DUP5 SUB SWAP1 DUP6 GAS STATICCALL ISZERO DUP1 ISZERO PUSH2 0x1826 JUMPI RETURNDATASIZE PUSH1 0x0 DUP1 RETURNDATACOPY RETURNDATASIZE PUSH1 0x0 REVERT JUMPDEST POP POP PUSH1 0x40 MLOAD PUSH1 0x1F NOT ADD MLOAD SWAP2 POP PUSH2 0x1868 SWAP1 POP PUSH1 0x1 PUSH1 0x1 PUSH1 0xA0 SHL SUB DUP3 AND ISZERO DUP1 ISZERO SWAP1 PUSH2 0x1860 JUMPI POP DUP12 PUSH1 0x1 PUSH1 0x1 PUSH1 0xA0 SHL SUB AND DUP3 PUSH1 0x1 PUSH1 0x1 PUSH1 0xA0 SHL SUB AND EQ JUMPDEST PUSH2 0x1F8 PUSH2 0x1C0D JUMP JUMPDEST PUSH1 0x1 PUSH1 0x1 PUSH1 0xA0 SHL SUB DUP12 AND PUSH1 0x0 SWAP1 DUP2 MSTORE PUSH1 0x6 PUSH1 0x20 MSTORE PUSH1 0x40 SWAP1 KECCAK256 PUSH1 0x1 DUP6 ADD SWAP1 SSTORE PUSH2 0x1891 DUP12 DUP12 DUP12 PUSH2 0x1A8F JUMP JUMPDEST POP POP POP POP POP POP POP POP POP POP POP JUMP JUMPDEST PUSH1 0x60 DUP1 DUP9 PUSH2 0x18AD PUSH2 0xEF1 PUSH2 0x1309 JUMP JUMPDEST PUSH2 0x18B8 PUSH2 0xF17 PUSH2 0xAE6 JUMP JUMPDEST PUSH2 0x18C0 PUSH2 0x1D03 JUMP JUMPDEST PUSH1 0x0 PUSH2 0x18CA PUSH2 0x843 JUMP JUMPDEST PUSH2 0x193A JUMPI PUSH2 0x18DA DUP12 DUP12 DUP12 DUP9 PUSH2 0x2A8E JUMP JUMPDEST SWAP5 POP SWAP1 POP PUSH2 0x18EF PUSH3 0xF4240 DUP3 LT ISZERO PUSH1 0xCC PUSH2 0x1C0D JUMP JUMPDEST PUSH2 0x18FD PUSH1 0x0 PUSH3 0xF4240 PUSH2 0x2B18 JUMP JUMPDEST PUSH2 0x190C DUP10 PUSH3 0xF4240 DUP4 SUB PUSH2 0x2B18 JUMP JUMPDEST PUSH2 0x1915 DUP5 PUSH2 0x265F JUMP JUMPDEST PUSH1 0x40 DUP1 MLOAD PUSH1 0x2 DUP1 DUP3 MSTORE PUSH1 0x60 DUP3 ADD DUP4 MSTORE SWAP1 SWAP2 PUSH1 0x20 DUP4 ADD SWAP1 DUP1 CALLDATASIZE DUP4 CALLDATACOPY ADD SWAP1 POP POP SWAP3 POP PUSH2 0x19A8 JUMP JUMPDEST PUSH2 0x1943 DUP9 PUSH2 0x2523 JUMP JUMPDEST PUSH2 0x1976 DUP8 DUP10 PUSH1 0x0 DUP2 MLOAD DUP2 LT PUSH2 0x1954 JUMPI INVALID JUMPDEST PUSH1 0x20 MUL PUSH1 0x20 ADD ADD MLOAD DUP11 PUSH1 0x1 DUP2 MLOAD DUP2 LT PUSH2 0x1969 JUMPI INVALID JUMPDEST PUSH1 0x20 MUL PUSH1 0x20 ADD ADD MLOAD PUSH2 0x2B22 JUMP JUMPDEST PUSH2 0x1985 DUP12 DUP12 DUP12 DUP12 DUP12 DUP12 DUP12 PUSH2 0x258F JUMP JUMPDEST SWAP1 SWAP6 POP SWAP4 POP SWAP1 POP PUSH2 0x1996 DUP10 DUP3 PUSH2 0x2B18 JUMP JUMPDEST PUSH2 0x199F DUP5 PUSH2 0x265F JUMP JUMPDEST PUSH2 0x19A8 DUP4 PUSH2 0x21E0 JUMP JUMPDEST PUSH2 0x19B0 PUSH2 0x1D56 JUMP JUMPDEST POP POP SWAP8 POP SWAP8 SWAP6 POP POP POP POP POP POP JUMP JUMPDEST PUSH1 0x0 PUSH2 0x19C8 PUSH2 0x1309 JUMP JUMPDEST PUSH1 0x1 PUSH1 0x1 PUSH1 0xA0 SHL SUB AND DUP3 PUSH1 0x1 PUSH1 0x1 PUSH1 0xA0 SHL SUB AND EQ ISZERO PUSH2 0x19EA JUMPI POP PUSH1 0x0 NOT PUSH2 0x778 JUMP JUMPDEST PUSH2 0x19F4 DUP4 DUP4 PUSH2 0x2B27 JUMP JUMPDEST SWAP1 POP PUSH2 0x778 JUMP JUMPDEST PUSH1 0x60 PUSH2 0xAC8 PUSH2 0x2B52 JUMP JUMPDEST PUSH3 0x1DE20 SWAP1 JUMP JUMPDEST DUP1 PUSH2 0x1A16 DUP2 PUSH2 0x2BC1 JUMP JUMPDEST POP POP JUMP JUMPDEST PUSH1 0x0 PUSH2 0x1A28 DUP4 DUP4 PUSH1 0x55 PUSH2 0x1A53 JUMP JUMPDEST SWAP4 SWAP3 POP POP POP JUMP JUMPDEST PUSH1 0x0 PUSH2 0x1A28 DUP4 DUP4 PUSH1 0x56 PUSH2 0x1A7A JUMP JUMPDEST PUSH1 0x0 PUSH2 0x1A4D DUP4 DUP4 GT ISZERO PUSH1 0x1 PUSH2 0x1C0D JUMP JUMPDEST POP SWAP1 SUB SWAP1 JUMP JUMPDEST PUSH1 0x0 PUSH1 0x1 DUP3 SHL NOT DUP5 AND DUP3 DUP5 PUSH2 0x1A69 JUMPI PUSH1 0x0 PUSH2 0x1A6C JUMP JUMPDEST PUSH1 0x1 JUMPDEST PUSH1 0xFF AND SWAP1 SHL OR SWAP5 SWAP4 POP POP POP POP JUMP JUMPDEST PUSH1 0x1 PUSH1 0x1 PUSH1 0x40 SHL SUB DUP2 SHL NOT SWAP3 SWAP1 SWAP3 AND SWAP2 SHL OR SWAP1 JUMP JUMPDEST PUSH1 0x1 PUSH1 0x1 PUSH1 0xA0 SHL SUB DUP1 DUP5 AND PUSH1 0x0 DUP2 DUP2 MSTORE PUSH1 0x1 PUSH1 0x20 SWAP1 DUP2 MSTORE PUSH1 0x40 DUP1 DUP4 KECCAK256 SWAP5 DUP8 AND DUP1 DUP5 MSTORE SWAP5 DUP3 MSTORE SWAP2 DUP3 SWAP1 KECCAK256 DUP6 SWAP1 SSTORE DUP2 MLOAD DUP6 DUP2 MSTORE SWAP2 MLOAD PUSH32 0x8C5BE1E5EBEC7D5BD14F71427D1E84F3DD0314C0F7B2291E5B200AC8C7C3B925 SWAP3 DUP2 SWAP1 SUB SWAP1 SWAP2 ADD SWAP1 LOG3 POP POP POP JUMP JUMPDEST PUSH1 0x0 PUSH2 0x1B08 PUSH1 0x0 CALLDATALOAD PUSH1 0x1 PUSH1 0x1 PUSH1 0xE0 SHL SUB NOT AND PUSH2 0x1267 JUMP JUMPDEST SWAP1 POP PUSH2 0x840 PUSH2 0x1B17 DUP3 CALLER PUSH2 0x2C3A JUMP JUMPDEST PUSH2 0x191 PUSH2 0x1C0D JUMP JUMPDEST DUP1 ISZERO PUSH2 0x1B3F JUMPI PUSH2 0x1B3A PUSH2 0x1B30 PUSH2 0x1BB8 JUMP JUMPDEST TIMESTAMP LT PUSH2 0x193 PUSH2 0x1C0D JUMP JUMPDEST PUSH2 0x1B54 JUMP JUMPDEST PUSH2 0x1B54 PUSH2 0x1B4A PUSH2 0x1BDC JUMP JUMPDEST TIMESTAMP LT PUSH2 0x1A9 PUSH2 0x1C0D JUMP JUMPDEST PUSH1 0x7 DUP1 SLOAD DUP3 ISZERO ISZERO PUSH1 0xFF NOT SWAP1 SWAP2 AND DUP2 OR SWAP1 SWAP2 SSTORE PUSH1 0x40 DUP1 MLOAD SWAP2 DUP3 MSTORE MLOAD PUSH32 0x9E3A5E37224532DEA67B89FACE185703738A228A6E8A23DEE546960180D3BE64 SWAP2 DUP2 SWAP1 SUB PUSH1 0x20 ADD SWAP1 LOG1 POP JUMP JUMPDEST PUSH1 0x0 PUSH2 0x1BA5 PUSH2 0x1BDC JUMP JUMPDEST TIMESTAMP GT DUP1 PUSH2 0xAC8 JUMPI POP POP PUSH1 0x7 SLOAD PUSH1 0xFF AND ISZERO SWAP1 JUMP JUMPDEST PUSH32 0x0 SWAP1 JUMP JUMPDEST PUSH32 0x0 SWAP1 JUMP JUMPDEST PUSH1 0x0 PUSH2 0xAC8 PUSH1 0x9 SLOAD PUSH2 0x2098 JUMP JUMPDEST DUP2 PUSH2 0x1A16 JUMPI PUSH2 0x1A16 DUP2 PUSH2 0x2D3C JUMP JUMPDEST PUSH2 0x1C32 PUSH1 0x1 PUSH1 0x1 PUSH1 0xA0 SHL SUB DUP5 AND ISZERO ISZERO PUSH2 0x198 PUSH2 0x1C0D JUMP JUMPDEST PUSH2 0x1C49 PUSH1 0x1 PUSH1 0x1 PUSH1 0xA0 SHL SUB DUP4 AND ISZERO ISZERO PUSH2 0x199 PUSH2 0x1C0D JUMP JUMPDEST PUSH2 0x1C54 DUP4 DUP4 DUP4 PUSH2 0x2B22 JUMP JUMPDEST PUSH1 0x1 PUSH1 0x1 PUSH1 0xA0 SHL SUB DUP4 AND PUSH1 0x0 SWAP1 DUP2 MSTORE PUSH1 0x20 DUP2 SWAP1 MSTORE PUSH1 0x40 SWAP1 KECCAK256 SLOAD PUSH2 0x1C7A SWAP1 DUP3 PUSH2 0x1A0 PUSH2 0x2D8F JUMP JUMPDEST PUSH1 0x1 PUSH1 0x1 PUSH1 0xA0 SHL SUB DUP1 DUP6 AND PUSH1 0x0 SWAP1 DUP2 MSTORE PUSH1 0x20 DUP2 SWAP1 MSTORE PUSH1 0x40 DUP1 DUP3 KECCAK256 SWAP4 SWAP1 SWAP4 SSTORE SWAP1 DUP5 AND DUP2 MSTORE KECCAK256 SLOAD PUSH2 0x1CA9 SWAP1 DUP3 PUSH2 0x1F31 JUMP JUMPDEST PUSH1 0x1 PUSH1 0x1 PUSH1 0xA0 SHL SUB DUP1 DUP5 AND PUSH1 0x0 DUP2 DUP2 MSTORE PUSH1 0x20 DUP2 DUP2 MSTORE PUSH1 0x40 SWAP2 DUP3 SWAP1 KECCAK256 SWAP5 SWAP1 SWAP5 SSTORE DUP1 MLOAD DUP6 DUP2 MSTORE SWAP1 MLOAD SWAP2 SWAP4 SWAP3 DUP8 AND SWAP3 PUSH32 0xDDF252AD1BE2C89B69C2B068FC378DAA952BA7F163C4A11628F55A4DF523B3EF SWAP3 SWAP2 DUP3 SWAP1 SUB ADD SWAP1 LOG3 POP POP POP JUMP JUMPDEST PUSH2 0xA3B PUSH2 0x1D0E PUSH2 0x1B9B JUMP JUMPDEST PUSH2 0x192 PUSH2 0x1C0D JUMP JUMPDEST PUSH1 0x9 SLOAD PUSH2 0x1D23 SWAP1 DUP3 PUSH2 0x1A1A JUMP JUMPDEST PUSH1 0x9 SSTORE PUSH1 0x40 MLOAD PUSH32 0x3E350B41E86A8E10F804ADE6D35340D620BE35569CC75AC943E8BB14AB80EAD1 SWAP1 PUSH2 0x824 SWAP1 DUP4 SWAP1 PUSH2 0x5154 JUMP JUMPDEST PUSH1 0x9 SLOAD PUSH2 0x1D62 DUP2 PUSH2 0x20A5 JUMP JUMPDEST ISZERO PUSH2 0x840 JUMPI PUSH2 0x1D7C PUSH2 0x1D75 PUSH1 0xA SLOAD PUSH2 0x2DA5 JUMP JUMPDEST DUP3 SWAP1 PUSH2 0x2DE5 JUMP JUMPDEST SWAP1 POP PUSH2 0x1D98 PUSH2 0x1D91 PUSH2 0x1D8C PUSH2 0x843 JUMP JUMPDEST PUSH2 0x2DA5 JUMP JUMPDEST DUP3 SWAP1 PUSH2 0x2DF2 JUMP JUMPDEST PUSH1 0x9 SSTORE POP JUMP JUMPDEST PUSH1 0x0 PUSH2 0x1DAA DUP3 DUP3 PUSH2 0x2E00 JUMP JUMPDEST PUSH2 0x1DB5 DUP5 PUSH1 0x1F PUSH2 0x2E04 JUMP JUMPDEST PUSH2 0x1DC0 DUP7 PUSH1 0x54 PUSH2 0x2E15 JUMP JUMPDEST PUSH2 0x1DCB DUP9 PUSH1 0x6A PUSH2 0x2E04 JUMP JUMPDEST PUSH2 0x1DD6 DUP11 PUSH1 0x9F PUSH2 0x2E15 JUMP JUMPDEST PUSH2 0x1DE1 DUP13 PUSH1 0xB5 PUSH2 0x2E04 JUMP JUMPDEST PUSH2 0x1DEC DUP15 PUSH1 0xEA PUSH2 0x2E15 JUMP JUMPDEST OR OR OR OR OR OR SWAP9 SWAP8 POP POP POP POP POP POP POP POP JUMP JUMPDEST PUSH1 0x0 PUSH2 0x778 DUP3 DUP3 PUSH2 0x2E22 JUMP JUMPDEST PUSH1 0x0 PUSH32 0x0 PUSH32 0x0 PUSH32 0x0 PUSH2 0x1E77 PUSH2 0x2E2C JUMP JUMPDEST ADDRESS PUSH1 0x40 MLOAD PUSH1 0x20 ADD DUP1 DUP7 DUP2 MSTORE PUSH1 0x20 ADD DUP6 DUP2 MSTORE PUSH1 0x20 ADD DUP5 DUP2 MSTORE PUSH1 0x20 ADD DUP4 DUP2 MSTORE PUSH1 0x20 ADD DUP3 PUSH1 0x1 PUSH1 0x1 PUSH1 0xA0 SHL SUB AND DUP2 MSTORE PUSH1 0x20 ADD SWAP6 POP POP POP POP POP POP PUSH1 0x40 MLOAD PUSH1 0x20 DUP2 DUP4 SUB SUB DUP2 MSTORE SWAP1 PUSH1 0x40 MSTORE DUP1 MLOAD SWAP1 PUSH1 0x20 ADD KECCAK256 SWAP1 POP SWAP1 JUMP JUMPDEST PUSH2 0x1EDB PUSH5 0xE8D4A51000 DUP3 LT ISZERO PUSH1 0xCB PUSH2 0x1C0D JUMP JUMPDEST PUSH2 0x1EF1 PUSH8 0x16345785D8A0000 DUP3 GT ISZERO PUSH1 0xCA PUSH2 0x1C0D JUMP JUMPDEST PUSH1 0x9 SLOAD PUSH2 0x1EFE SWAP1 DUP3 PUSH2 0x1A2F JUMP JUMPDEST PUSH1 0x9 SSTORE PUSH1 0x40 MLOAD PUSH32 0xA9BA3FFE0B6C366B81232CAAB38605A0699AD5398D6CCE76F91EE809E322DAFC SWAP1 PUSH2 0x824 SWAP1 DUP4 SWAP1 PUSH2 0x5177 JUMP JUMPDEST PUSH1 0x0 DUP3 DUP3 ADD PUSH2 0x1A28 DUP5 DUP3 LT ISZERO DUP4 PUSH2 0x1C0D JUMP JUMPDEST PUSH1 0x0 DUP2 PUSH2 0x1F70 JUMPI PUSH32 0x0 PUSH2 0x778 JUMP JUMPDEST POP PUSH32 0x0 SWAP2 SWAP1 POP JUMP JUMPDEST PUSH1 0x0 PUSH2 0x1A28 DUP4 DUP4 PUSH2 0x23E6 JUMP JUMPDEST PUSH1 0x40 DUP1 MLOAD PUSH1 0x2 DUP1 DUP3 MSTORE PUSH1 0x60 DUP3 ADD DUP4 MSTORE PUSH1 0x0 SWAP3 DUP4 SWAP3 DUP4 SWAP3 DUP4 SWAP3 PUSH1 0x20 DUP4 ADD SWAP1 DUP1 CALLDATASIZE DUP4 CALLDATACOPY ADD SWAP1 POP POP SWAP1 POP DUP5 PUSH2 0x1FD5 JUMPI DUP6 PUSH2 0x1FD7 JUMP JUMPDEST DUP7 JUMPDEST DUP2 PUSH1 0x0 DUP2 MLOAD DUP2 LT PUSH2 0x1FE4 JUMPI INVALID JUMPDEST PUSH1 0x20 MUL PUSH1 0x20 ADD ADD DUP2 DUP2 MSTORE POP POP DUP5 PUSH2 0x1FFB JUMPI DUP7 PUSH2 0x1FFD JUMP JUMPDEST DUP6 JUMPDEST DUP2 PUSH1 0x1 DUP2 MLOAD DUP2 LT PUSH2 0x200A JUMPI INVALID JUMPDEST PUSH1 0x20 MUL PUSH1 0x20 ADD ADD DUP2 DUP2 MSTORE POP POP PUSH1 0x0 PUSH2 0x2020 PUSH2 0x24FD JUMP JUMPDEST SWAP1 POP PUSH2 0x202E DUP3 DUP3 PUSH1 0x0 PUSH2 0x1714 JUMP JUMPDEST SWAP5 POP PUSH1 0x0 PUSH2 0x203C DUP3 DUP8 PUSH2 0x2E30 JUMP JUMPDEST SWAP1 POP DUP7 PUSH2 0x204D JUMPI PUSH1 0x20 DUP2 ADD MLOAD PUSH2 0x2050 JUMP JUMPDEST DUP1 MLOAD JUMPDEST SWAP5 POP DUP7 PUSH2 0x205E JUMPI DUP1 MLOAD PUSH2 0x2064 JUMP JUMPDEST PUSH1 0x20 DUP2 ADD MLOAD JUMPDEST SWAP4 POP POP POP POP SWAP4 POP SWAP4 POP SWAP4 SWAP1 POP JUMP JUMPDEST PUSH1 0x0 PUSH2 0x778 DUP3 DUP3 PUSH2 0x2E64 JUMP JUMPDEST PUSH1 0x0 PUSH2 0x778 DUP3 PUSH1 0x16 PUSH2 0x2E64 JUMP JUMPDEST PUSH1 0x0 PUSH2 0x778 DUP3 PUSH1 0x2C PUSH2 0x2E22 JUMP JUMPDEST PUSH1 0x0 PUSH2 0x778 DUP3 PUSH1 0x4B PUSH2 0x2E8B JUMP JUMPDEST PUSH1 0x0 PUSH2 0x778 DUP3 PUSH1 0x55 PUSH2 0x2E93 JUMP JUMPDEST PUSH1 0x0 PUSH2 0x778 DUP3 PUSH1 0x56 PUSH2 0x2E9D JUMP JUMPDEST PUSH2 0x1A16 DUP2 DUP4 EQ PUSH1 0x67 PUSH2 0x1C0D JUMP JUMPDEST PUSH1 0x0 PUSH1 0x60 DUP1 PUSH1 0x0 PUSH2 0x20DB PUSH2 0x24FD JUMP JUMPDEST SWAP1 POP PUSH2 0x20E5 PUSH2 0x1B9B JUMP JUMPDEST ISZERO PUSH2 0x2194 JUMPI PUSH1 0x0 PUSH2 0x2100 DUP10 DUP4 DUP4 JUMPDEST PUSH1 0x20 MUL ADD MLOAD DUP5 PUSH1 0x1 PUSH2 0x171D JUMP JUMPDEST SWAP1 POP PUSH1 0x0 PUSH2 0x210E DUP4 DUP4 PUSH2 0x2E30 JUMP JUMPDEST SWAP1 POP PUSH2 0x215D DUP10 DUP12 PUSH1 0x0 DUP2 MLOAD DUP2 LT PUSH2 0x2121 JUMPI INVALID JUMPDEST PUSH1 0x20 MUL PUSH1 0x20 ADD ADD MLOAD DUP13 PUSH1 0x1 DUP2 MLOAD DUP2 LT PUSH2 0x2136 JUMPI INVALID JUMPDEST PUSH1 0x20 MUL PUSH1 0x20 ADD ADD MLOAD DUP5 PUSH1 0x0 PUSH1 0x2 DUP2 LT PUSH2 0x214B JUMPI INVALID JUMPDEST PUSH1 0x20 MUL ADD MLOAD DUP6 PUSH1 0x1 PUSH1 0x20 MUL ADD MLOAD PUSH2 0x27AA JUMP JUMPDEST PUSH2 0x2166 DUP3 PUSH2 0x2EAA JUMP JUMPDEST PUSH2 0x2170 DUP11 DUP9 PUSH2 0x2ED7 JUMP JUMPDEST SWAP1 SWAP7 POP SWAP5 POP PUSH2 0x2189 DUP3 DUP8 PUSH2 0x2182 PUSH2 0x843 JUMP JUMPDEST PUSH1 0x0 PUSH2 0x2F23 JUMP JUMPDEST PUSH1 0xA SSTORE POP PUSH2 0x21AA SWAP1 POP JUMP JUMPDEST PUSH2 0x219E DUP9 DUP7 PUSH2 0x2ED7 JUMP JUMPDEST PUSH1 0x0 NOT PUSH1 0xA SSTORE SWAP1 SWAP5 POP SWAP3 POP JUMPDEST PUSH1 0x40 DUP1 MLOAD PUSH1 0x2 DUP1 DUP3 MSTORE PUSH1 0x60 DUP3 ADD DUP4 MSTORE DUP7 SWAP3 DUP7 SWAP3 SWAP2 SWAP1 PUSH1 0x20 DUP4 ADD SWAP1 DUP1 CALLDATASIZE DUP4 CALLDATACOPY ADD SWAP1 POP POP SWAP4 POP SWAP4 POP SWAP4 POP POP SWAP8 POP SWAP8 POP SWAP8 SWAP5 POP POP POP POP POP JUMP JUMPDEST PUSH2 0x2207 DUP2 PUSH1 0x0 DUP2 MLOAD DUP2 LT PUSH2 0x21F0 JUMPI INVALID JUMPDEST PUSH1 0x20 MUL PUSH1 0x20 ADD ADD MLOAD PUSH2 0x2202 PUSH1 0x1 PUSH2 0x1F43 JUMP JUMPDEST PUSH2 0x2F7B JUMP JUMPDEST DUP2 PUSH1 0x0 DUP2 MLOAD DUP2 LT PUSH2 0x2214 JUMPI INVALID JUMPDEST PUSH1 0x20 MUL PUSH1 0x20 ADD ADD DUP2 DUP2 MSTORE POP POP PUSH2 0x2242 DUP2 PUSH1 0x1 DUP2 MLOAD DUP2 LT PUSH2 0x2230 JUMPI INVALID JUMPDEST PUSH1 0x20 MUL PUSH1 0x20 ADD ADD MLOAD PUSH2 0x2202 PUSH1 0x0 PUSH2 0x1F43 JUMP JUMPDEST DUP2 PUSH1 0x1 DUP2 MLOAD DUP2 LT PUSH2 0x224F JUMPI INVALID JUMPDEST PUSH1 0x20 MUL PUSH1 0x20 ADD ADD DUP2 DUP2 MSTORE POP POP POP JUMP JUMPDEST CALLER ADDRESS EQ PUSH2 0x231C JUMPI PUSH1 0x0 ADDRESS PUSH1 0x1 PUSH1 0x1 PUSH1 0xA0 SHL SUB AND PUSH1 0x0 CALLDATASIZE PUSH1 0x40 MLOAD PUSH2 0x2282 SWAP3 SWAP2 SWAP1 PUSH2 0x5083 JUMP JUMPDEST PUSH1 0x0 PUSH1 0x40 MLOAD DUP1 DUP4 SUB DUP2 PUSH1 0x0 DUP7 GAS CALL SWAP2 POP POP RETURNDATASIZE DUP1 PUSH1 0x0 DUP2 EQ PUSH2 0x22BF JUMPI PUSH1 0x40 MLOAD SWAP2 POP PUSH1 0x1F NOT PUSH1 0x3F RETURNDATASIZE ADD AND DUP3 ADD PUSH1 0x40 MSTORE RETURNDATASIZE DUP3 MSTORE RETURNDATASIZE PUSH1 0x0 PUSH1 0x20 DUP5 ADD RETURNDATACOPY PUSH2 0x22C4 JUMP JUMPDEST PUSH1 0x60 SWAP2 POP JUMPDEST POP POP SWAP1 POP DUP1 PUSH1 0x0 DUP2 EQ PUSH2 0x22D3 JUMPI INVALID JUMPDEST PUSH1 0x4 PUSH1 0x0 DUP1 RETURNDATACOPY PUSH1 0x0 MLOAD PUSH1 0x1 PUSH1 0x1 PUSH1 0xE0 SHL SUB NOT AND PUSH4 0x43ADBAFB PUSH1 0xE0 SHL DUP2 EQ PUSH2 0x22FE JUMPI RETURNDATASIZE PUSH1 0x0 DUP1 RETURNDATACOPY RETURNDATASIZE PUSH1 0x0 REVERT JUMPDEST POP PUSH1 0x20 PUSH1 0x4 PUSH1 0x0 RETURNDATACOPY PUSH1 0x40 PUSH1 0x20 MSTORE PUSH1 0x24 RETURNDATASIZE SUB PUSH1 0x24 PUSH1 0x40 RETURNDATACOPY PUSH1 0x1C RETURNDATASIZE ADD PUSH1 0x0 RETURN JUMPDEST PUSH2 0x2325 DUP7 PUSH2 0x2523 JUMP JUMPDEST PUSH1 0x0 DUP1 PUSH2 0x233B DUP12 DUP12 DUP12 DUP12 DUP12 DUP12 DUP12 DUP12 PUSH4 0xFFFFFFFF AND JUMP JUMPDEST POP SWAP2 POP SWAP2 POP PUSH2 0x234D DUP2 DUP5 PUSH4 0xFFFFFFFF AND JUMP JUMPDEST DUP1 MLOAD PUSH1 0x1F NOT DUP3 ADD DUP4 SWAP1 MSTORE PUSH4 0x43ADBAFB PUSH1 0x3F NOT DUP4 ADD MSTORE PUSH1 0x20 MUL PUSH1 0x23 NOT DUP3 ADD PUSH1 0x44 DUP3 ADD DUP2 REVERT JUMPDEST PUSH1 0x0 SWAP1 DUP2 MSTORE PUSH1 0x8 PUSH1 0x20 MSTORE PUSH1 0x40 SWAP1 KECCAK256 SLOAD SWAP1 JUMP JUMPDEST PUSH1 0x0 DUP1 PUSH1 0x0 DUP1 PUSH1 0x0 DUP1 PUSH1 0x0 PUSH2 0x2397 DUP9 PUSH2 0x2F9B JUMP JUMPDEST SWAP7 POP PUSH2 0x23A2 DUP9 PUSH2 0x2FA8 JUMP JUMPDEST SWAP6 POP PUSH2 0x23AD DUP9 PUSH2 0x2FB5 JUMP JUMPDEST SWAP5 POP PUSH2 0x23B8 DUP9 PUSH2 0x2FC2 JUMP JUMPDEST SWAP4 POP PUSH2 0x23C3 DUP9 PUSH2 0x2FCF JUMP JUMPDEST SWAP3 POP PUSH2 0x23CE DUP9 PUSH2 0x2FDC JUMP JUMPDEST SWAP2 POP PUSH2 0x23D9 DUP9 PUSH2 0x1DFE JUMP JUMPDEST SWAP1 POP SWAP2 SWAP4 SWAP6 SWAP8 SWAP1 SWAP3 SWAP5 SWAP7 POP JUMP JUMPDEST PUSH1 0x0 DUP3 DUP3 MUL PUSH2 0x1A28 DUP5 ISZERO DUP1 PUSH2 0x2403 JUMPI POP DUP4 DUP6 DUP4 DUP2 PUSH2 0x2400 JUMPI INVALID JUMPDEST DIV EQ JUMPDEST PUSH1 0x3 PUSH2 0x1C0D JUMP JUMPDEST PUSH1 0x0 DUP2 PUSH2 0x241D JUMPI PUSH2 0x241D PUSH1 0x0 PUSH1 0x4 PUSH2 0x1C0D JUMP JUMPDEST DUP3 PUSH2 0x242A JUMPI POP PUSH1 0x0 PUSH2 0x778 JUMP JUMPDEST PUSH8 0xDE0B6B3A7640000 DUP4 DUP2 MUL SWAP1 DUP5 DUP3 DUP2 PUSH2 0x2440 JUMPI INVALID JUMPDEST DIV EQ PUSH2 0x2452 JUMPI PUSH2 0x2452 PUSH1 0x0 PUSH1 0x5 PUSH2 0x1C0D JUMP JUMPDEST DUP3 DUP2 DUP2 PUSH2 0x245B JUMPI INVALID JUMPDEST DIV SWAP5 SWAP4 POP POP POP POP JUMP JUMPDEST PUSH1 0x40 MLOAD PUSH4 0x34171A85 PUSH1 0xE0 SHL DUP2 MSTORE PUSH1 0x0 SWAP1 PUSH20 0x0 SWAP1 PUSH4 0x34171A85 SWAP1 PUSH2 0x24A5 SWAP1 PUSH1 0x8 SWAP1 DUP9 SWAP1 DUP9 SWAP1 DUP9 SWAP1 PUSH1 0x4 ADD PUSH2 0x5213 JUMP JUMPDEST PUSH1 0x20 PUSH1 0x40 MLOAD DUP1 DUP4 SUB DUP2 DUP7 DUP1 EXTCODESIZE ISZERO DUP1 ISZERO PUSH2 0x24BD JUMPI PUSH1 0x0 DUP1 REVERT JUMPDEST POP GAS DELEGATECALL ISZERO DUP1 ISZERO PUSH2 0x24D1 JUMPI RETURNDATASIZE PUSH1 0x0 DUP1 RETURNDATACOPY RETURNDATASIZE PUSH1 0x0 REVERT JUMPDEST POP POP POP POP PUSH1 0x40 MLOAD RETURNDATASIZE PUSH1 0x1F NOT PUSH1 0x1F DUP3 ADD AND DUP3 ADD DUP1 PUSH1 0x40 MSTORE POP DUP2 ADD SWAP1 PUSH2 0x24F5 SWAP2 SWAP1 PUSH2 0x4E02 JUMP JUMPDEST SWAP5 SWAP4 POP POP POP POP JUMP JUMPDEST PUSH2 0x2505 PUSH2 0x4900 JUMP JUMPDEST PUSH2 0x250F PUSH1 0x1 PUSH2 0x2FE9 JUMP JUMPDEST DUP2 MSTORE PUSH2 0x251B PUSH1 0x0 PUSH2 0x2FE9 JUMP JUMPDEST PUSH1 0x20 DUP3 ADD MSTORE SWAP1 JUMP JUMPDEST PUSH2 0x254A DUP2 PUSH1 0x0 DUP2 MLOAD DUP2 LT PUSH2 0x2533 JUMPI INVALID JUMPDEST PUSH1 0x20 MUL PUSH1 0x20 ADD ADD MLOAD PUSH2 0x2545 PUSH1 0x1 PUSH2 0x1F43 JUMP JUMPDEST PUSH2 0x23E6 JUMP JUMPDEST DUP2 PUSH1 0x0 DUP2 MLOAD DUP2 LT PUSH2 0x2557 JUMPI INVALID JUMPDEST PUSH1 0x20 MUL PUSH1 0x20 ADD ADD DUP2 DUP2 MSTORE POP POP PUSH2 0x2242 DUP2 PUSH1 0x1 DUP2 MLOAD DUP2 LT PUSH2 0x2573 JUMPI INVALID JUMPDEST PUSH1 0x20 MUL PUSH1 0x20 ADD ADD MLOAD PUSH2 0x2545 PUSH1 0x0 PUSH2 0x1F43 JUMP JUMPDEST PUSH2 0x1A16 DUP3 DUP3 PUSH2 0x303D JUMP JUMPDEST PUSH1 0x0 PUSH1 0x60 DUP1 PUSH1 0x0 PUSH2 0x259E PUSH2 0x24FD JUMP JUMPDEST SWAP1 POP PUSH1 0x0 PUSH2 0x25AD DUP10 DUP4 DUP4 PUSH2 0x20F3 JUMP JUMPDEST SWAP1 POP PUSH1 0x0 PUSH2 0x25BB DUP4 DUP4 PUSH2 0x2E30 JUMP JUMPDEST SWAP1 POP PUSH2 0x25CE DUP10 DUP12 PUSH1 0x0 DUP2 MLOAD DUP2 LT PUSH2 0x2121 JUMPI INVALID JUMPDEST PUSH2 0x25D7 DUP3 PUSH2 0x2EAA JUMP JUMPDEST PUSH1 0x0 DUP1 PUSH2 0x25E4 DUP13 DUP11 PUSH2 0x30F4 JUMP JUMPDEST PUSH1 0xB SLOAD SWAP2 SWAP4 POP SWAP2 POP PUSH1 0xFF AND ISZERO PUSH2 0x260E JUMPI PUSH2 0x260E DUP3 PUSH2 0x2601 DUP16 PUSH2 0xEC3 JUMP JUMPDEST PUSH2 0x2609 PUSH2 0x843 JUMP JUMPDEST PUSH2 0x312E JUMP JUMPDEST PUSH2 0x2622 DUP5 DUP4 PUSH2 0x261B PUSH2 0x843 JUMP JUMPDEST PUSH1 0x1 PUSH2 0x2F23 JUMP JUMPDEST PUSH1 0xA SSTORE PUSH1 0x40 DUP1 MLOAD PUSH1 0x2 DUP1 DUP3 MSTORE PUSH1 0x60 DUP3 ADD DUP4 MSTORE DUP5 SWAP3 DUP5 SWAP3 SWAP2 SWAP1 PUSH1 0x20 DUP4 ADD SWAP1 DUP1 CALLDATASIZE DUP4 CALLDATACOPY ADD SWAP1 POP POP SWAP8 POP SWAP8 POP SWAP8 POP POP POP POP POP POP SWAP8 POP SWAP8 POP SWAP8 SWAP5 POP POP POP POP POP JUMP JUMPDEST PUSH2 0x2686 DUP2 PUSH1 0x0 DUP2 MLOAD DUP2 LT PUSH2 0x266F JUMPI INVALID JUMPDEST PUSH1 0x20 MUL PUSH1 0x20 ADD ADD MLOAD PUSH2 0x2681 PUSH1 0x1 PUSH2 0x1F43 JUMP JUMPDEST PUSH2 0x3240 JUMP JUMPDEST DUP2 PUSH1 0x0 DUP2 MLOAD DUP2 LT PUSH2 0x2693 JUMPI INVALID JUMPDEST PUSH1 0x20 MUL PUSH1 0x20 ADD ADD DUP2 DUP2 MSTORE POP POP PUSH2 0x2242 DUP2 PUSH1 0x1 DUP2 MLOAD DUP2 LT PUSH2 0x26AF JUMPI INVALID JUMPDEST PUSH1 0x20 MUL PUSH1 0x20 ADD ADD MLOAD PUSH2 0x2681 PUSH1 0x0 PUSH2 0x1F43 JUMP JUMPDEST PUSH1 0x40 DUP1 MLOAD PUSH1 0x2 DUP1 DUP3 MSTORE PUSH1 0x60 DUP1 DUP4 ADD DUP5 MSTORE SWAP3 PUSH1 0x20 DUP4 ADD SWAP1 DUP1 CALLDATASIZE DUP4 CALLDATACOPY ADD SWAP1 POP POP SWAP1 POP PUSH2 0x272B PUSH32 0x0 PUSH32 0x0 PUSH2 0x3273 JUMP JUMPDEST DUP2 PUSH1 0x0 DUP2 MLOAD DUP2 LT PUSH2 0x2738 JUMPI INVALID JUMPDEST PUSH1 0x20 MUL PUSH1 0x20 ADD ADD DUP2 DUP2 MSTORE POP POP PUSH2 0x278E PUSH32 0x0 PUSH32 0x0 PUSH2 0x3273 JUMP JUMPDEST DUP2 PUSH1 0x1 DUP2 MLOAD DUP2 LT PUSH2 0x279B JUMPI INVALID JUMPDEST PUSH1 0x20 MUL PUSH1 0x20 ADD ADD DUP2 DUP2 MSTORE POP POP SWAP1 JUMP JUMPDEST PUSH1 0x9 SLOAD PUSH2 0x27B6 DUP2 PUSH2 0x20A5 JUMP JUMPDEST DUP1 ISZERO PUSH2 0x27C1 JUMPI POP DUP6 NUMBER GT JUMPDEST ISZERO PUSH2 0x284C JUMPI PUSH1 0x0 PUSH2 0x27D4 DUP7 DUP6 DUP8 DUP7 PUSH2 0x3313 JUMP JUMPDEST SWAP1 POP PUSH1 0x0 PUSH2 0x27ED DUP8 DUP7 DUP9 DUP8 PUSH2 0x27E8 DUP9 PUSH2 0x207E JUMP JUMPDEST PUSH2 0x332D JUMP JUMPDEST SWAP1 POP PUSH1 0x0 PUSH2 0x27FA DUP5 PUSH2 0x2098 JUMP JUMPDEST SWAP1 POP PUSH1 0x0 PUSH2 0x2807 DUP6 PUSH2 0x208B JUMP JUMPDEST SWAP1 POP PUSH1 0x0 PUSH2 0x2820 DUP3 DUP5 DUP8 DUP8 PUSH2 0x281B DUP12 PUSH2 0x2072 JUMP JUMPDEST PUSH2 0x3371 JUMP JUMPDEST SWAP1 POP DUP1 DUP4 EQ PUSH2 0x1891 JUMPI PUSH2 0x2833 DUP7 DUP3 PUSH2 0x33C8 JUMP JUMPDEST SWAP6 POP PUSH2 0x283F DUP7 TIMESTAMP PUSH2 0x33D6 JUMP JUMPDEST PUSH1 0x9 DUP2 SWAP1 SSTORE SWAP6 POP POP POP POP POP POP JUMPDEST POP POP POP POP POP POP JUMP JUMPDEST PUSH1 0x0 DUP3 DUP3 MUL DUP4 ISZERO DUP1 PUSH2 0x286E JUMPI POP DUP3 DUP5 DUP3 DUP2 PUSH2 0x286B JUMPI INVALID JUMPDEST DIV EQ JUMPDEST PUSH2 0x287E JUMPI PUSH2 0x287E PUSH1 0x0 PUSH1 0x3 PUSH2 0x1C0D JUMP JUMPDEST DUP1 PUSH2 0x288D JUMPI PUSH1 0x0 SWAP2 POP POP PUSH2 0x778 JUMP JUMPDEST PUSH8 0xDE0B6B3A7640000 PUSH1 0x0 NOT DUP3 ADD JUMPDEST DIV PUSH1 0x1 ADD SWAP2 POP POP SWAP3 SWAP2 POP POP JUMP JUMPDEST PUSH1 0x0 DUP3 DUP3 GT ISZERO PUSH2 0x1A4D JUMPI PUSH2 0x1A4D PUSH1 0x0 PUSH1 0x1 PUSH2 0x1C0D JUMP JUMPDEST PUSH1 0x0 PUSH2 0x28D2 DUP6 DUP6 DUP9 PUSH1 0x60 ADD MLOAD DUP7 DUP7 PUSH2 0x33E4 JUMP JUMPDEST SWAP1 POP JUMPDEST SWAP6 SWAP5 POP POP POP POP POP JUMP JUMPDEST PUSH1 0x0 PUSH2 0x1A28 DUP4 DUP4 PUSH2 0x2F7B JUMP JUMPDEST PUSH1 0x0 PUSH2 0x28D2 DUP6 DUP6 DUP9 PUSH1 0x60 ADD MLOAD DUP7 DUP7 PUSH2 0x344E JUMP JUMPDEST PUSH1 0x0 PUSH2 0x1A28 DUP4 DUP4 PUSH2 0x3240 JUMP JUMPDEST PUSH1 0x0 PUSH8 0xDE0B6B3A7640000 DUP3 LT PUSH2 0x2921 JUMPI PUSH1 0x0 PUSH2 0x778 JUMP JUMPDEST POP PUSH8 0xDE0B6B3A7640000 SUB SWAP1 JUMP JUMPDEST PUSH1 0x0 DUP2 PUSH2 0x2942 JUMPI PUSH2 0x2942 PUSH1 0x0 PUSH1 0x4 PUSH2 0x1C0D JUMP JUMPDEST DUP3 PUSH2 0x294F JUMPI POP PUSH1 0x0 PUSH2 0x778 JUMP JUMPDEST PUSH8 0xDE0B6B3A7640000 DUP4 DUP2 MUL SWAP1 DUP5 DUP3 DUP2 PUSH2 0x2965 JUMPI INVALID JUMPDEST DIV EQ PUSH2 0x2989 JUMPI PUSH2 0x2989 PUSH8 0xDE0B6B3A7640000 DUP6 DUP4 DUP2 PUSH2 0x2980 JUMPI INVALID JUMPDEST DIV EQ PUSH1 0x5 PUSH2 0x1C0D JUMP JUMPDEST DUP3 PUSH1 0x1 DUP3 SUB DUP2 PUSH2 0x289C JUMPI INVALID JUMPDEST PUSH1 0x0 PUSH2 0x299F PUSH2 0x1309 JUMP JUMPDEST PUSH1 0x1 PUSH1 0x1 PUSH1 0xA0 SHL SUB AND PUSH4 0xAAABADC5 PUSH1 0x40 MLOAD DUP2 PUSH4 0xFFFFFFFF AND PUSH1 0xE0 SHL DUP2 MSTORE PUSH1 0x4 ADD PUSH1 0x20 PUSH1 0x40 MLOAD DUP1 DUP4 SUB DUP2 DUP7 DUP1 EXTCODESIZE ISZERO DUP1 ISZERO PUSH2 0x29D7 JUMPI PUSH1 0x0 DUP1 REVERT JUMPDEST POP GAS STATICCALL ISZERO DUP1 ISZERO PUSH2 0x29EB JUMPI RETURNDATASIZE PUSH1 0x0 DUP1 RETURNDATACOPY RETURNDATASIZE PUSH1 0x0 REVERT JUMPDEST POP POP POP POP PUSH1 0x40 MLOAD RETURNDATASIZE PUSH1 0x1F NOT PUSH1 0x1F DUP3 ADD AND DUP3 ADD DUP1 PUSH1 0x40 MSTORE POP DUP2 ADD SWAP1 PUSH2 0xAC8 SWAP2 SWAP1 PUSH2 0x49D7 JUMP JUMPDEST PUSH1 0x0 DUP1 PUSH1 0x0 DUP1 PUSH1 0x0 PUSH2 0x2A22 DUP9 DUP9 DUP9 PUSH2 0x34AE JUMP JUMPDEST SWAP4 POP SWAP4 POP SWAP4 POP SWAP4 POP PUSH2 0x2A36 DUP5 DUP5 DUP5 DUP5 PUSH2 0x3628 JUMP JUMPDEST SWAP9 SWAP8 POP POP POP POP POP POP POP POP JUMP JUMPDEST PUSH1 0x0 PUSH2 0x2A4C PUSH2 0x1E0A JUMP JUMPDEST DUP3 PUSH1 0x40 MLOAD PUSH1 0x20 ADD DUP1 DUP1 PUSH2 0x1901 PUSH1 0xF0 SHL DUP2 MSTORE POP PUSH1 0x2 ADD DUP4 DUP2 MSTORE PUSH1 0x20 ADD DUP3 DUP2 MSTORE PUSH1 0x20 ADD SWAP3 POP POP POP PUSH1 0x40 MLOAD PUSH1 0x20 DUP2 DUP4 SUB SUB DUP2 MSTORE SWAP1 PUSH1 0x40 MSTORE DUP1 MLOAD SWAP1 PUSH1 0x20 ADD KECCAK256 SWAP1 POP SWAP2 SWAP1 POP JUMP JUMPDEST PUSH1 0x0 PUSH1 0x60 PUSH1 0x0 PUSH2 0x2A9D DUP5 PUSH2 0x369C JUMP JUMPDEST SWAP1 POP PUSH2 0x2AB8 PUSH1 0x0 DUP3 PUSH1 0x3 DUP2 GT ISZERO PUSH2 0x2AB0 JUMPI INVALID JUMPDEST EQ PUSH1 0xCE PUSH2 0x1C0D JUMP JUMPDEST PUSH1 0x0 PUSH2 0x2AC3 DUP6 PUSH2 0x36BB JUMP JUMPDEST SWAP1 POP PUSH2 0x2AD1 DUP2 MLOAD PUSH1 0x2 PUSH2 0x20BF JUMP JUMPDEST PUSH2 0x2ADA DUP2 PUSH2 0x2523 JUMP JUMPDEST PUSH1 0x0 PUSH2 0x2AE4 PUSH2 0x24FD JUMP JUMPDEST SWAP1 POP PUSH1 0x0 PUSH2 0x2AF3 DUP4 DUP4 DUP4 PUSH2 0x20F3 JUMP JUMPDEST SWAP1 POP PUSH1 0x0 PUSH2 0x2B02 DUP3 PUSH1 0x2 PUSH2 0x23E6 JUMP JUMPDEST PUSH1 0xA SWAP3 SWAP1 SWAP3 SSTORE POP SWAP10 SWAP2 SWAP9 POP SWAP1 SWAP7 POP POP POP POP POP POP POP JUMP JUMPDEST PUSH2 0x1A16 DUP3 DUP3 PUSH2 0x376F JUMP JUMPDEST POP POP POP JUMP JUMPDEST PUSH1 0x1 PUSH1 0x1 PUSH1 0xA0 SHL SUB SWAP2 DUP3 AND PUSH1 0x0 SWAP1 DUP2 MSTORE PUSH1 0x1 PUSH1 0x20 SWAP1 DUP2 MSTORE PUSH1 0x40 DUP1 DUP4 KECCAK256 SWAP4 SWAP1 SWAP5 AND DUP3 MSTORE SWAP2 SWAP1 SWAP2 MSTORE KECCAK256 SLOAD SWAP1 JUMP JUMPDEST PUSH1 0x40 DUP1 MLOAD PUSH1 0x2 DUP1 DUP3 MSTORE PUSH1 0x60 DUP1 DUP4 ADD DUP5 MSTORE SWAP3 PUSH1 0x0 SWAP3 SWAP2 SWAP1 PUSH1 0x20 DUP4 ADD SWAP1 DUP1 CALLDATASIZE DUP4 CALLDATACOPY ADD SWAP1 POP POP SWAP1 POP PUSH2 0x2B81 PUSH1 0x1 PUSH2 0x3804 JUMP JUMPDEST DUP2 PUSH1 0x0 DUP2 MLOAD DUP2 LT PUSH2 0x2B8E JUMPI INVALID JUMPDEST PUSH1 0x20 MUL PUSH1 0x20 ADD ADD DUP2 DUP2 MSTORE POP POP PUSH2 0x2BA4 PUSH1 0x0 PUSH2 0x3804 JUMP JUMPDEST DUP2 PUSH1 0x1 DUP2 MLOAD DUP2 LT PUSH2 0x2BB1 JUMPI INVALID JUMPDEST PUSH1 0x20 SWAP1 DUP2 MUL SWAP2 SWAP1 SWAP2 ADD ADD MSTORE SWAP1 POP SWAP1 JUMP JUMPDEST PUSH1 0x2 DUP2 MLOAD LT ISZERO PUSH2 0x2BD0 JUMPI PUSH2 0x840 JUMP JUMPDEST PUSH1 0x0 DUP2 PUSH1 0x0 DUP2 MLOAD DUP2 LT PUSH2 0x2BDF JUMPI INVALID JUMPDEST PUSH1 0x20 MUL PUSH1 0x20 ADD ADD MLOAD SWAP1 POP PUSH1 0x0 PUSH1 0x1 SWAP1 POP JUMPDEST DUP3 MLOAD DUP2 LT ISZERO PUSH2 0x2B22 JUMPI PUSH1 0x0 DUP4 DUP3 DUP2 MLOAD DUP2 LT PUSH2 0x2C07 JUMPI INVALID JUMPDEST PUSH1 0x20 MUL PUSH1 0x20 ADD ADD MLOAD SWAP1 POP PUSH2 0x2C30 DUP2 PUSH1 0x1 PUSH1 0x1 PUSH1 0xA0 SHL SUB AND DUP5 PUSH1 0x1 PUSH1 0x1 PUSH1 0xA0 SHL SUB AND LT PUSH1 0x65 PUSH2 0x1C0D JUMP JUMPDEST SWAP2 POP PUSH1 0x1 ADD PUSH2 0x2BF0 JUMP JUMPDEST PUSH1 0x0 PUSH20 0xBA1BA1BA1BA1BA1BA1BA1BA1BA1BA1BA1BA1BA1B PUSH2 0x2C59 PUSH2 0x12E5 JUMP JUMPDEST PUSH1 0x1 PUSH1 0x1 PUSH1 0xA0 SHL SUB AND EQ ISZERO DUP1 ISZERO PUSH2 0x2C74 JUMPI POP PUSH2 0x2C74 DUP4 PUSH2 0x3858 JUMP JUMPDEST ISZERO PUSH2 0x2C9C JUMPI PUSH2 0x2C81 PUSH2 0x12E5 JUMP JUMPDEST PUSH1 0x1 PUSH1 0x1 PUSH1 0xA0 SHL SUB AND CALLER PUSH1 0x1 PUSH1 0x1 PUSH1 0xA0 SHL SUB AND EQ SWAP1 POP PUSH2 0x778 JUMP JUMPDEST PUSH2 0x2CA4 PUSH2 0x2995 JUMP JUMPDEST PUSH1 0x1 PUSH1 0x1 PUSH1 0xA0 SHL SUB AND PUSH4 0x9BE2A884 DUP5 DUP5 ADDRESS PUSH1 0x40 MLOAD DUP5 PUSH4 0xFFFFFFFF AND PUSH1 0xE0 SHL DUP2 MSTORE PUSH1 0x4 ADD DUP1 DUP5 DUP2 MSTORE PUSH1 0x20 ADD DUP4 PUSH1 0x1 PUSH1 0x1 PUSH1 0xA0 SHL SUB AND DUP2 MSTORE PUSH1 0x20 ADD DUP3 PUSH1 0x1 PUSH1 0x1 PUSH1 0xA0 SHL SUB AND DUP2 MSTORE PUSH1 0x20 ADD SWAP4 POP POP POP POP PUSH1 0x20 PUSH1 0x40 MLOAD DUP1 DUP4 SUB DUP2 DUP7 DUP1 EXTCODESIZE ISZERO DUP1 ISZERO PUSH2 0x2D09 JUMPI PUSH1 0x0 DUP1 REVERT JUMPDEST POP GAS STATICCALL ISZERO DUP1 ISZERO PUSH2 0x2D1D JUMPI RETURNDATASIZE PUSH1 0x0 DUP1 RETURNDATACOPY RETURNDATASIZE PUSH1 0x0 REVERT JUMPDEST POP POP POP POP PUSH1 0x40 MLOAD RETURNDATASIZE PUSH1 0x20 DUP2 LT ISZERO PUSH2 0x2D33 JUMPI PUSH1 0x0 DUP1 REVERT JUMPDEST POP MLOAD SWAP1 POP PUSH2 0x778 JUMP JUMPDEST PUSH3 0x461BCD PUSH1 0xE5 SHL PUSH1 0x0 SWAP1 DUP2 MSTORE PUSH1 0x20 PUSH1 0x4 MSTORE PUSH1 0x7 PUSH1 0x24 MSTORE PUSH7 0x42414C23000030 PUSH1 0xA DUP1 DUP5 DIV DUP2 DUP2 MOD PUSH1 0x30 SWAP1 DUP2 ADD PUSH1 0x8 SHL SWAP6 DUP4 SWAP1 MOD SWAP6 SWAP1 SWAP6 ADD SWAP1 DUP3 SWAP1 DIV SWAP2 DUP3 MOD SWAP1 SWAP5 ADD PUSH1 0x10 SHL SWAP4 SWAP1 SWAP4 ADD ADD PUSH1 0xC8 SHL PUSH1 0x44 MSTORE PUSH1 0x64 SWAP1 REVERT JUMPDEST PUSH1 0x0 PUSH2 0x2D9E DUP5 DUP5 GT ISZERO DUP4 PUSH2 0x1C0D JUMP JUMPDEST POP POP SWAP1 SUB SWAP1 JUMP JUMPDEST PUSH1 0x0 DUP1 PUSH2 0x2DB1 DUP4 PUSH2 0x388A JUMP JUMPDEST SWAP1 POP PUSH1 0x0 DUP1 DUP3 SGT PUSH2 0x2DCA JUMPI PUSH6 0x2D79883D2000 DUP3 SUB PUSH2 0x2DD4 JUMP JUMPDEST PUSH6 0x2D79883D2000 DUP3 ADD JUMPDEST PUSH6 0x5AF3107A4000 SWAP1 SDIV SWAP5 SWAP4 POP POP POP POP JUMP JUMPDEST PUSH1 0x0 PUSH2 0x1A28 DUP4 DUP4 DUP4 PUSH2 0x38EE JUMP JUMPDEST PUSH1 0x0 PUSH2 0x1A28 DUP4 DUP4 PUSH1 0x16 PUSH2 0x38EE JUMP JUMPDEST SHL SWAP1 JUMP JUMPDEST PUSH7 0x1FFFFFFFFFFFFF SWAP2 SWAP1 SWAP2 AND SWAP1 SHL SWAP1 JUMP JUMPDEST PUSH3 0x3FFFFF SWAP2 SWAP1 SWAP2 AND SWAP1 SHL SWAP1 JUMP JUMPDEST SHR PUSH4 0x7FFFFFFF AND SWAP1 JUMP JUMPDEST CHAINID SWAP1 JUMP JUMPDEST PUSH2 0x2E38 PUSH2 0x4900 JUMP JUMPDEST PUSH2 0x2E4B PUSH1 0x1 DUP5 DUP2 JUMPDEST PUSH1 0x20 MUL ADD MLOAD DUP5 PUSH2 0x3905 JUMP JUMPDEST DUP2 MSTORE PUSH2 0x2E59 PUSH1 0x0 DUP5 DUP2 PUSH2 0x2E40 JUMP JUMPDEST PUSH1 0x20 DUP3 ADD MSTORE SWAP3 SWAP2 POP POP JUMP JUMPDEST PUSH1 0x0 DUP3 DUP3 SHR PUSH3 0x3FFFFF AND PUSH3 0x1FFFFF DUP2 SGT PUSH2 0x2E7E JUMPI DUP1 PUSH2 0x24F5 JUMP JUMPDEST PUSH3 0x3FFFFF NOT OR SWAP4 SWAP3 POP POP POP JUMP JUMPDEST SHR PUSH2 0x3FF AND SWAP1 JUMP JUMPDEST SHR PUSH1 0x1 SWAP1 DUP2 AND EQ SWAP1 JUMP JUMPDEST SHR PUSH1 0x1 PUSH1 0x1 PUSH1 0x40 SHL SUB AND SWAP1 JUMP JUMPDEST PUSH1 0x0 DUP1 PUSH1 0x0 DUP1 PUSH2 0x2EBC PUSH1 0xA SLOAD DUP7 PUSH2 0x3925 JUMP JUMPDEST SWAP4 POP SWAP4 POP SWAP4 POP SWAP4 POP PUSH2 0x2ED0 DUP5 DUP5 DUP5 DUP5 PUSH2 0x398E JUMP JUMPDEST POP POP POP POP POP JUMP JUMPDEST PUSH1 0x0 PUSH1 0x60 PUSH1 0x0 PUSH2 0x2EE6 DUP5 PUSH2 0x369C JUMP JUMPDEST SWAP1 POP PUSH1 0x1 DUP2 PUSH1 0x3 DUP2 GT ISZERO PUSH2 0x2EF6 JUMPI INVALID JUMPDEST EQ ISZERO PUSH2 0x2F10 JUMPI PUSH2 0x2F06 DUP6 DUP6 PUSH2 0x39AE JUMP JUMPDEST SWAP1 SWAP4 POP SWAP2 POP PUSH2 0x2F1B JUMP JUMPDEST PUSH2 0x2F1B PUSH2 0x150 PUSH2 0x2D3C JUMP JUMPDEST POP SWAP3 POP SWAP3 SWAP1 POP JUMP JUMPDEST PUSH1 0x0 DUP2 ISZERO PUSH2 0x2F55 JUMPI PUSH1 0x0 PUSH2 0x2F41 DUP5 PUSH2 0x2F3B DUP9 DUP9 PUSH2 0x2854 JUMP JUMPDEST SWAP1 PUSH2 0x292F JUMP JUMPDEST SWAP1 POP PUSH2 0x2F4D DUP7 DUP3 PUSH2 0x39E0 JUMP JUMPDEST SWAP2 POP POP PUSH2 0x24F5 JUMP JUMPDEST PUSH1 0x0 PUSH2 0x2F65 DUP5 PUSH2 0xDE8 DUP9 DUP9 PUSH2 0x39F8 JUMP JUMPDEST SWAP1 POP PUSH2 0x2F71 DUP7 DUP3 PUSH2 0x28A9 JUMP JUMPDEST SWAP7 SWAP6 POP POP POP POP POP POP JUMP JUMPDEST PUSH1 0x0 PUSH2 0x2F8A DUP3 ISZERO ISZERO PUSH1 0x4 PUSH2 0x1C0D JUMP JUMPDEST DUP2 DUP4 DUP2 PUSH2 0x2F93 JUMPI INVALID JUMPDEST DIV SWAP4 SWAP3 POP POP POP JUMP JUMPDEST PUSH1 0x0 PUSH2 0x778 DUP3 PUSH1 0xEA PUSH2 0x2E64 JUMP JUMPDEST PUSH1 0x0 PUSH2 0x778 DUP3 PUSH1 0xB5 PUSH2 0x3A31 JUMP JUMPDEST PUSH1 0x0 PUSH2 0x778 DUP3 PUSH1 0x9F PUSH2 0x2E64 JUMP JUMPDEST PUSH1 0x0 PUSH2 0x778 DUP3 PUSH1 0x6A PUSH2 0x3A31 JUMP JUMPDEST PUSH1 0x0 PUSH2 0x778 DUP3 PUSH1 0x54 PUSH2 0x2E64 JUMP JUMPDEST PUSH1 0x0 PUSH2 0x778 DUP3 PUSH1 0x1F PUSH2 0x3A31 JUMP JUMPDEST PUSH1 0x0 DUP2 PUSH2 0x3016 JUMPI PUSH32 0x0 PUSH2 0x778 JUMP JUMPDEST POP PUSH32 0x0 SWAP2 SWAP1 POP JUMP JUMPDEST PUSH2 0x3054 PUSH1 0x1 PUSH1 0x1 PUSH1 0xA0 SHL SUB DUP4 AND ISZERO ISZERO PUSH2 0x19B PUSH2 0x1C0D JUMP JUMPDEST PUSH2 0x3060 DUP3 PUSH1 0x0 DUP4 PUSH2 0x2B22 JUMP JUMPDEST PUSH1 0x1 PUSH1 0x1 PUSH1 0xA0 SHL SUB DUP3 AND PUSH1 0x0 SWAP1 DUP2 MSTORE PUSH1 0x20 DUP2 SWAP1 MSTORE PUSH1 0x40 SWAP1 KECCAK256 SLOAD PUSH2 0x3086 SWAP1 DUP3 PUSH2 0x1A1 PUSH2 0x2D8F JUMP JUMPDEST PUSH1 0x1 PUSH1 0x1 PUSH1 0xA0 SHL SUB DUP4 AND PUSH1 0x0 SWAP1 DUP2 MSTORE PUSH1 0x20 DUP2 SWAP1 MSTORE PUSH1 0x40 SWAP1 KECCAK256 SSTORE PUSH1 0x2 SLOAD PUSH2 0x30AC SWAP1 DUP3 PUSH2 0x3A64 JUMP JUMPDEST PUSH1 0x2 SSTORE PUSH1 0x40 DUP1 MLOAD DUP3 DUP2 MSTORE SWAP1 MLOAD PUSH1 0x0 SWAP2 PUSH1 0x1 PUSH1 0x1 PUSH1 0xA0 SHL SUB DUP6 AND SWAP2 PUSH32 0xDDF252AD1BE2C89B69C2B068FC378DAA952BA7F163C4A11628F55A4DF523B3EF SWAP2 DUP2 SWAP1 SUB PUSH1 0x20 ADD SWAP1 LOG3 POP POP JUMP JUMPDEST PUSH1 0x0 PUSH1 0x60 PUSH1 0x0 PUSH2 0x3103 DUP5 PUSH2 0x369C JUMP JUMPDEST SWAP1 POP PUSH1 0x3 DUP2 PUSH1 0x3 DUP2 GT ISZERO PUSH2 0x3113 JUMPI INVALID JUMPDEST EQ ISZERO PUSH2 0x3123 JUMPI PUSH2 0x2F06 DUP6 DUP6 PUSH2 0x3A72 JUMP JUMPDEST PUSH2 0x2F1B PUSH2 0x136 PUSH2 0x2D3C JUMP JUMPDEST PUSH1 0x40 DUP1 MLOAD PUSH1 0x60 DUP2 ADD DUP3 MSTORE PUSH1 0xB SLOAD PUSH1 0xFF DUP2 AND ISZERO ISZERO DUP3 MSTORE PUSH2 0x100 DUP2 DIV PUSH1 0x1 PUSH1 0x1 PUSH1 0x78 SHL SUB AND PUSH1 0x20 DUP4 ADD DUP2 SWAP1 MSTORE PUSH1 0x1 PUSH1 0x80 SHL SWAP1 SWAP2 DIV PUSH1 0x1 PUSH1 0x1 PUSH1 0x80 SHL SUB AND SWAP3 DUP3 ADD SWAP3 SWAP1 SWAP3 MSTORE SWAP1 PUSH2 0x317B DUP6 DUP6 PUSH2 0x39E0 JUMP JUMPDEST GT ISZERO PUSH1 0x40 MLOAD DUP1 PUSH1 0x40 ADD PUSH1 0x40 MSTORE DUP1 PUSH1 0x1A DUP2 MSTORE PUSH1 0x20 ADD PUSH32 0x6F7665722061646472657373206C697175696469747920636170000000000000 DUP2 MSTORE POP SWAP1 PUSH2 0x31D1 JUMPI PUSH1 0x40 MLOAD PUSH3 0x461BCD PUSH1 0xE5 SHL DUP2 MSTORE PUSH1 0x4 ADD PUSH2 0x7CF SWAP2 SWAP1 PUSH2 0x5272 JUMP JUMPDEST POP PUSH1 0x40 DUP2 ADD MLOAD PUSH1 0x1 PUSH1 0x1 PUSH1 0x80 SHL SUB AND PUSH2 0x31EA DUP6 DUP5 PUSH2 0x39E0 JUMP JUMPDEST GT ISZERO PUSH1 0x40 MLOAD DUP1 PUSH1 0x40 ADD PUSH1 0x40 MSTORE DUP1 PUSH1 0x19 DUP2 MSTORE PUSH1 0x20 ADD PUSH32 0x6F76657220676C6F62616C206C69717569646974792063617000000000000000 DUP2 MSTORE POP SWAP1 PUSH2 0x2ED0 JUMPI PUSH1 0x40 MLOAD PUSH3 0x461BCD PUSH1 0xE5 SHL DUP2 MSTORE PUSH1 0x4 ADD PUSH2 0x7CF SWAP2 SWAP1 PUSH2 0x5272 JUMP JUMPDEST PUSH1 0x0 PUSH2 0x324F DUP3 ISZERO ISZERO PUSH1 0x4 PUSH2 0x1C0D JUMP JUMPDEST DUP3 PUSH2 0x325C JUMPI POP PUSH1 0x0 PUSH2 0x778 JUMP JUMPDEST DUP2 PUSH1 0x1 DUP5 SUB DUP2 PUSH2 0x3268 JUMPI INVALID JUMPDEST DIV PUSH1 0x1 ADD SWAP1 POP PUSH2 0x778 JUMP JUMPDEST PUSH1 0x0 DUP1 PUSH1 0x0 PUSH2 0x3280 PUSH2 0x1309 JUMP JUMPDEST PUSH1 0x1 PUSH1 0x1 PUSH1 0xA0 SHL SUB AND PUSH4 0xB05F8E48 PUSH2 0x3296 PUSH2 0xAE6 JUMP JUMPDEST DUP8 PUSH1 0x40 MLOAD DUP4 PUSH4 0xFFFFFFFF AND PUSH1 0xE0 SHL DUP2 MSTORE PUSH1 0x4 ADD PUSH2 0x32B4 SWAP3 SWAP2 SWAP1 PUSH2 0x5180 JUMP JUMPDEST PUSH1 0x80 PUSH1 0x40 MLOAD DUP1 DUP4 SUB DUP2 DUP7 DUP1 EXTCODESIZE ISZERO DUP1 ISZERO PUSH2 0x32CC JUMPI PUSH1 0x0 DUP1 REVERT JUMPDEST POP GAS STATICCALL ISZERO DUP1 ISZERO PUSH2 0x32E0 JUMPI RETURNDATASIZE PUSH1 0x0 DUP1 RETURNDATACOPY RETURNDATASIZE PUSH1 0x0 REVERT JUMPDEST POP POP POP POP PUSH1 0x40 MLOAD RETURNDATASIZE PUSH1 0x1F NOT PUSH1 0x1F DUP3 ADD AND DUP3 ADD DUP1 PUSH1 0x40 MSTORE POP DUP2 ADD SWAP1 PUSH2 0x3304 SWAP2 SWAP1 PUSH2 0x4FFB JUMP JUMPDEST POP POP ADD SWAP4 SWAP1 SWAP4 MUL SWAP5 SWAP4 POP POP POP POP JUMP JUMPDEST PUSH1 0x0 DUP1 PUSH2 0x3322 DUP7 DUP7 DUP7 DUP7 PUSH2 0x3A97 JUMP JUMPDEST SWAP1 POP PUSH2 0x2F71 DUP2 PUSH2 0x2DA5 JUMP JUMPDEST PUSH1 0x0 DUP1 PUSH2 0x333C DUP8 DUP8 DUP8 DUP8 PUSH2 0x3A97 JUMP JUMPDEST SWAP1 POP PUSH1 0x0 PUSH2 0x3354 PUSH2 0x334D DUP8 DUP5 PUSH2 0x2854 JUMP JUMPDEST DUP10 SWAP1 PUSH2 0x39E0 JUMP JUMPDEST SWAP1 POP PUSH1 0x0 PUSH2 0x3361 DUP3 PUSH2 0x2DA5 JUMP JUMPDEST SWAP5 SWAP1 SWAP5 SUB SWAP9 SWAP8 POP POP POP POP POP POP POP POP JUMP JUMPDEST PUSH1 0x0 DUP1 PUSH2 0x338D DUP6 DUP6 DUP6 TIMESTAMP PUSH2 0x3384 DUP12 PUSH2 0x2371 JUMP JUMPDEST SWAP4 SWAP3 SWAP2 SWAP1 PUSH2 0x3AB0 JUMP JUMPDEST SWAP1 POP PUSH1 0x78 TIMESTAMP DUP9 SWAP1 SUB LT ISZERO DUP1 PUSH2 0x33A2 JUMPI DUP7 PUSH2 0x33AB JUMP JUMPDEST PUSH2 0x33AB DUP8 PUSH2 0x3B02 JUMP JUMPDEST PUSH1 0x0 DUP2 DUP2 MSTORE PUSH1 0x8 PUSH1 0x20 MSTORE PUSH1 0x40 SWAP1 KECCAK256 SWAP3 SWAP1 SWAP3 SSTORE POP SWAP7 SWAP6 POP POP POP POP POP POP JUMP JUMPDEST PUSH1 0x0 PUSH2 0x1A28 DUP4 DUP4 PUSH1 0x4B PUSH2 0x3B0F JUMP JUMPDEST PUSH1 0x0 PUSH2 0x1A28 DUP4 DUP4 PUSH1 0x2C PUSH2 0x3B1F JUMP JUMPDEST PUSH1 0x0 DUP1 PUSH2 0x3403 PUSH2 0x33FC DUP6 PUSH8 0xDE0B6B3A7640002 PUSH2 0x2854 JUMP JUMPDEST DUP9 SWAP1 PUSH2 0x39E0 JUMP JUMPDEST SWAP1 POP PUSH1 0x0 PUSH2 0x341C PUSH2 0x33FC DUP6 PUSH8 0xDE0B6B3A763FFFF PUSH2 0x39F8 JUMP JUMPDEST SWAP1 POP PUSH2 0x3435 PUSH2 0x342B DUP4 DUP9 PUSH2 0x39E0 JUMP JUMPDEST PUSH2 0xDE8 DUP4 DUP10 PUSH2 0x39F8 JUMP JUMPDEST SWAP3 POP POP POP DUP5 DUP2 GT ISZERO PUSH2 0x28D5 JUMPI PUSH2 0x28D5 PUSH1 0x0 PUSH2 0x165 PUSH2 0x3B31 JUMP JUMPDEST PUSH1 0x0 DUP5 DUP5 GT ISZERO PUSH2 0x3465 JUMPI PUSH2 0x3465 PUSH1 0x0 PUSH2 0x165 PUSH2 0x3B31 JUMP JUMPDEST PUSH1 0x0 PUSH2 0x347C PUSH2 0x33FC DUP6 PUSH8 0xDE0B6B3A7640002 PUSH2 0x2854 JUMP JUMPDEST SWAP1 POP PUSH1 0x0 PUSH2 0x3495 PUSH2 0x33FC DUP6 PUSH8 0xDE0B6B3A763FFFF PUSH2 0x39F8 JUMP JUMPDEST SWAP1 POP PUSH2 0x2A36 PUSH2 0x34A4 DUP3 DUP9 PUSH2 0x28A9 JUMP JUMPDEST PUSH2 0x2F3B DUP5 DUP10 PUSH2 0x2854 JUMP JUMPDEST PUSH1 0x0 DUP1 DUP1 DUP1 PUSH2 0x34CF PUSH2 0x34C0 DUP8 DUP8 PUSH2 0x240A JUMP JUMPDEST PUSH8 0xDE0B6B3A7640000 SWAP1 PUSH2 0x28A9 JUMP JUMPDEST SWAP4 POP PUSH1 0x0 PUSH2 0x34FA DUP7 DUP10 PUSH1 0x1 DUP2 MLOAD DUP2 LT PUSH2 0x34E4 JUMPI INVALID JUMPDEST PUSH1 0x20 MUL PUSH1 0x20 ADD ADD MLOAD PUSH2 0x240A SWAP1 SWAP2 SWAP1 PUSH4 0xFFFFFFFF AND JUMP JUMPDEST SWAP1 POP PUSH1 0x0 PUSH2 0x3525 DUP9 DUP11 PUSH1 0x0 DUP2 MLOAD DUP2 LT PUSH2 0x350F JUMPI INVALID JUMPDEST PUSH1 0x20 MUL PUSH1 0x20 ADD ADD MLOAD PUSH2 0x39F8 SWAP1 SWAP2 SWAP1 PUSH4 0xFFFFFFFF AND JUMP JUMPDEST SWAP1 POP PUSH2 0x3531 DUP3 DUP3 PUSH2 0x39E0 JUMP JUMPDEST SWAP5 POP PUSH2 0x3558 DUP10 PUSH1 0x1 DUP2 MLOAD DUP2 LT PUSH2 0x3543 JUMPI INVALID JUMPDEST PUSH1 0x20 MUL PUSH1 0x20 ADD ADD MLOAD DUP11 PUSH1 0x0 DUP2 MLOAD DUP2 LT PUSH2 0x350F JUMPI INVALID JUMPDEST SWAP3 POP POP POP PUSH2 0x358F DUP7 PUSH2 0x3589 DUP9 PUSH2 0x3589 DUP12 PUSH1 0x0 DUP2 MLOAD DUP2 LT PUSH2 0x3574 JUMPI INVALID JUMPDEST PUSH1 0x20 MUL PUSH1 0x20 ADD ADD MLOAD DUP13 PUSH1 0x0 DUP2 MLOAD DUP2 LT PUSH2 0x350F JUMPI INVALID JUMPDEST SWAP1 PUSH2 0x39F8 JUMP JUMPDEST SWAP2 POP PUSH1 0x0 PUSH2 0x35CF DUP7 PUSH2 0xDE8 DUP10 PUSH2 0x3589 PUSH8 0xDE0B6B3A7640000 PUSH1 0x2 MUL PUSH2 0x3589 DUP15 PUSH1 0x1 DUP2 MLOAD DUP2 LT PUSH2 0x35BA JUMPI INVALID JUMPDEST PUSH1 0x20 MUL PUSH1 0x20 ADD ADD MLOAD DUP16 PUSH1 0x0 DUP2 MLOAD DUP2 LT PUSH2 0x350F JUMPI INVALID JUMPDEST SWAP1 POP PUSH1 0x0 PUSH2 0x3605 PUSH2 0x35E0 DUP9 DUP1 PUSH2 0x2854 JUMP JUMPDEST PUSH2 0xDE8 DUP12 PUSH1 0x1 DUP2 MLOAD DUP2 LT PUSH2 0x35F0 JUMPI INVALID JUMPDEST PUSH1 0x20 MUL PUSH1 0x20 ADD ADD MLOAD DUP13 PUSH1 0x1 DUP2 MLOAD DUP2 LT PUSH2 0x350F JUMPI INVALID JUMPDEST SWAP1 POP PUSH2 0x361B DUP2 PUSH2 0x3615 DUP7 DUP6 PUSH2 0x39E0 JUMP JUMPDEST SWAP1 PUSH2 0x39E0 JUMP JUMPDEST SWAP4 POP POP POP SWAP4 POP SWAP4 POP SWAP4 POP SWAP4 JUMP JUMPDEST PUSH1 0x0 DUP1 PUSH2 0x363D DUP7 PUSH8 0x1BC16D674EC80000 PUSH2 0x2854 JUMP JUMPDEST SWAP1 POP PUSH1 0x0 PUSH2 0x3657 DUP8 PUSH2 0x3589 DUP7 PUSH8 0x3782DACE9D900000 PUSH2 0x39F8 JUMP JUMPDEST SWAP1 POP PUSH1 0x0 PUSH2 0x3665 DUP7 DUP4 PUSH2 0x39E0 JUMP JUMPDEST SWAP1 POP PUSH1 0x0 PUSH2 0x3674 DUP3 PUSH1 0x5 PUSH2 0x3B3F JUMP JUMPDEST SWAP1 POP PUSH1 0x0 PUSH2 0x3682 DUP10 DUP4 PUSH2 0x39E0 JUMP JUMPDEST SWAP1 POP PUSH2 0x368E DUP2 DUP7 PUSH2 0x240A JUMP JUMPDEST SWAP11 SWAP10 POP POP POP POP POP POP POP POP POP POP JUMP JUMPDEST PUSH1 0x0 DUP2 DUP1 PUSH1 0x20 ADD SWAP1 MLOAD PUSH1 0x20 DUP2 LT ISZERO PUSH2 0x36B3 JUMPI PUSH1 0x0 DUP1 REVERT JUMPDEST POP MLOAD SWAP3 SWAP2 POP POP JUMP JUMPDEST PUSH1 0x60 DUP2 DUP1 PUSH1 0x20 ADD SWAP1 MLOAD PUSH1 0x40 DUP2 LT ISZERO PUSH2 0x36D2 JUMPI PUSH1 0x0 DUP1 REVERT JUMPDEST DUP2 MLOAD PUSH1 0x20 DUP4 ADD DUP1 MLOAD PUSH1 0x40 MLOAD SWAP3 SWAP5 SWAP3 SWAP4 DUP4 ADD SWAP3 SWAP2 SWAP1 DUP5 PUSH5 0x100000000 DUP3 GT ISZERO PUSH2 0x36F9 JUMPI PUSH1 0x0 DUP1 REVERT JUMPDEST SWAP1 DUP4 ADD SWAP1 PUSH1 0x20 DUP3 ADD DUP6 DUP2 GT ISZERO PUSH2 0x370E JUMPI PUSH1 0x0 DUP1 REVERT JUMPDEST DUP3 MLOAD DUP7 PUSH1 0x20 DUP3 MUL DUP4 ADD GT PUSH5 0x100000000 DUP3 GT OR ISZERO PUSH2 0x372B JUMPI PUSH1 0x0 DUP1 REVERT JUMPDEST DUP3 MSTORE POP DUP2 MLOAD PUSH1 0x20 SWAP2 DUP3 ADD SWAP3 DUP3 ADD SWAP2 MUL DUP1 DUP4 DUP4 PUSH1 0x0 JUMPDEST DUP4 DUP2 LT ISZERO PUSH2 0x3758 JUMPI DUP2 DUP2 ADD MLOAD DUP4 DUP3 ADD MSTORE PUSH1 0x20 ADD PUSH2 0x3740 JUMP JUMPDEST POP POP POP POP SWAP2 SWAP1 SWAP2 ADD PUSH1 0x40 MSTORE POP SWAP3 SWAP7 SWAP6 POP POP POP POP POP POP JUMP JUMPDEST PUSH2 0x377B PUSH1 0x0 DUP4 DUP4 PUSH2 0x2B22 JUMP JUMPDEST PUSH1 0x2 SLOAD PUSH2 0x3788 SWAP1 DUP3 PUSH2 0x1F31 JUMP JUMPDEST PUSH1 0x2 SSTORE PUSH1 0x1 PUSH1 0x1 PUSH1 0xA0 SHL SUB DUP3 AND PUSH1 0x0 SWAP1 DUP2 MSTORE PUSH1 0x20 DUP2 SWAP1 MSTORE PUSH1 0x40 SWAP1 KECCAK256 SLOAD PUSH2 0x37AE SWAP1 DUP3 PUSH2 0x1F31 JUMP JUMPDEST PUSH1 0x1 PUSH1 0x1 PUSH1 0xA0 SHL SUB DUP4 AND PUSH1 0x0 DUP2 DUP2 MSTORE PUSH1 0x20 DUP2 DUP2 MSTORE PUSH1 0x40 DUP1 DUP4 KECCAK256 SWAP5 SWAP1 SWAP5 SSTORE DUP4 MLOAD DUP6 DUP2 MSTORE SWAP4 MLOAD SWAP3 SWAP4 SWAP2 SWAP3 PUSH32 0xDDF252AD1BE2C89B69C2B068FC378DAA952BA7F163C4A11628F55A4DF523B3EF SWAP3 DUP2 SWAP1 SUB SWAP1 SWAP2 ADD SWAP1 LOG3 POP POP JUMP JUMPDEST PUSH1 0x0 DUP2 PUSH2 0x3831 JUMPI PUSH32 0x0 PUSH2 0x778 JUMP JUMPDEST POP PUSH32 0x0 SWAP2 SWAP1 POP JUMP JUMPDEST PUSH1 0x0 PUSH2 0x386A PUSH4 0x1C74C917 PUSH1 0xE1 SHL PUSH2 0x1267 JUMP JUMPDEST DUP3 EQ DUP1 PUSH2 0x778 JUMPI POP PUSH2 0x3882 PUSH4 0x50DD6ED9 PUSH1 0xE0 SHL PUSH2 0x1267 JUMP JUMPDEST SWAP1 SWAP2 EQ SWAP2 SWAP1 POP JUMP JUMPDEST PUSH1 0x0 PUSH2 0x389A PUSH1 0x0 DUP4 SGT PUSH1 0x64 PUSH2 0x1C0D JUMP JUMPDEST PUSH8 0xC7D713B49DA0000 DUP3 SGT DUP1 ISZERO PUSH2 0x38B8 JUMPI POP PUSH8 0xF43FC2C04EE0000 DUP3 SLT JUMPDEST ISZERO PUSH2 0x38DE JUMPI PUSH8 0xDE0B6B3A7640000 PUSH2 0x38CF DUP4 PUSH2 0x3CCD JUMP JUMPDEST DUP2 PUSH2 0x38D6 JUMPI INVALID JUMPDEST SDIV SWAP1 POP PUSH2 0xEDD JUMP JUMPDEST PUSH2 0x38E7 DUP3 PUSH2 0x3DEB JUMP JUMPDEST SWAP1 POP PUSH2 0xEDD JUMP JUMPDEST PUSH3 0x3FFFFF DUP3 DUP2 AND DUP3 SHL SWAP1 DUP3 SHL NOT DUP5 AND OR SWAP4 SWAP3 POP POP POP JUMP JUMPDEST PUSH1 0x0 DUP4 PUSH2 0x391B JUMPI PUSH2 0x3916 DUP3 DUP5 PUSH2 0x418A JUMP JUMPDEST PUSH2 0x24F5 JUMP JUMPDEST PUSH2 0x24F5 DUP3 DUP5 PUSH2 0x4196 JUMP JUMPDEST PUSH1 0x0 DUP1 PUSH1 0x0 DUP1 PUSH1 0x0 DUP1 PUSH1 0x0 DUP1 PUSH2 0x3939 PUSH2 0x41A2 JUMP JUMPDEST SWAP4 POP SWAP4 POP SWAP4 POP SWAP4 POP DUP4 PUSH1 0x0 EQ ISZERO PUSH2 0x395E JUMPI PUSH1 0x0 SWAP8 POP DUP8 SWAP7 POP SWAP1 SWAP5 POP SWAP3 POP PUSH2 0x3985 SWAP2 POP POP JUMP JUMPDEST PUSH1 0x0 DUP1 PUSH2 0x3975 DUP13 DUP13 PUSH2 0x396E PUSH2 0x843 JUMP JUMPDEST DUP10 DUP10 PUSH2 0x4411 JUMP JUMPDEST SWAP1 SWAP11 POP SWAP9 POP SWAP3 SWAP7 POP SWAP1 SWAP5 POP POP POP POP POP JUMPDEST SWAP3 SWAP6 SWAP2 SWAP5 POP SWAP3 POP JUMP JUMPDEST DUP4 ISZERO PUSH2 0x399E JUMPI PUSH2 0x399E DUP3 DUP6 PUSH2 0x2B18 JUMP JUMPDEST DUP3 ISZERO PUSH2 0xAB8 JUMPI PUSH2 0xAB8 DUP2 DUP5 PUSH2 0x2B18 JUMP JUMPDEST PUSH1 0x0 PUSH1 0x60 PUSH1 0x0 PUSH2 0x39BD DUP5 PUSH2 0x44A6 JUMP JUMPDEST SWAP1 POP PUSH1 0x0 PUSH2 0x39D3 DUP7 DUP4 PUSH2 0x39CE PUSH2 0x843 JUMP JUMPDEST PUSH2 0x44C8 JUMP JUMPDEST SWAP2 SWAP7 SWAP2 SWAP6 POP SWAP1 SWAP4 POP POP POP POP JUMP JUMPDEST PUSH1 0x0 DUP3 DUP3 ADD DUP4 DUP2 LT ISZERO PUSH2 0x1A28 JUMPI PUSH2 0x1A28 PUSH1 0x0 DUP1 PUSH2 0x1C0D JUMP JUMPDEST PUSH1 0x0 DUP3 DUP3 MUL DUP4 ISZERO DUP1 PUSH2 0x3A12 JUMPI POP DUP3 DUP5 DUP3 DUP2 PUSH2 0x3A0F JUMPI INVALID JUMPDEST DIV EQ JUMPDEST PUSH2 0x3A22 JUMPI PUSH2 0x3A22 PUSH1 0x0 PUSH1 0x3 PUSH2 0x1C0D JUMP JUMPDEST PUSH8 0xDE0B6B3A7640000 DUP2 PUSH2 0x245B JUMP JUMPDEST PUSH1 0x0 DUP3 DUP3 SHR PUSH7 0x1FFFFFFFFFFFFF AND PUSH7 0xFFFFFFFFFFFFF DUP2 SGT PUSH2 0x3A53 JUMPI DUP1 PUSH2 0x24F5 JUMP JUMPDEST PUSH7 0x1FFFFFFFFFFFFF NOT OR SWAP4 SWAP3 POP POP POP JUMP JUMPDEST PUSH1 0x0 PUSH2 0x1A28 DUP4 DUP4 PUSH1 0x1 PUSH2 0x2D8F JUMP JUMPDEST PUSH1 0x0 PUSH1 0x60 PUSH1 0x0 PUSH2 0x3A81 DUP5 PUSH2 0x44A6 JUMP JUMPDEST SWAP1 POP PUSH1 0x0 PUSH2 0x39D3 DUP7 DUP4 PUSH2 0x3A92 PUSH2 0x843 JUMP JUMPDEST PUSH2 0x454D JUMP JUMPDEST PUSH1 0x0 PUSH2 0x28D5 PUSH2 0x3AA6 DUP5 DUP5 PUSH2 0x39E0 JUMP JUMPDEST PUSH2 0x2F3B DUP8 DUP8 PUSH2 0x39E0 JUMP JUMPDEST PUSH1 0x0 DUP1 PUSH2 0x3ABC DUP8 PUSH2 0x1DFE JUMP JUMPDEST DUP4 SUB SWAP1 POP PUSH1 0x0 DUP2 DUP8 MUL PUSH2 0x3ACE DUP10 PUSH2 0x2FA8 JUMP JUMPDEST ADD SWAP1 POP PUSH1 0x0 DUP3 DUP8 MUL PUSH2 0x3ADF DUP11 PUSH2 0x2FC2 JUMP JUMPDEST ADD SWAP1 POP PUSH1 0x0 DUP4 DUP8 MUL PUSH2 0x3AF0 DUP12 PUSH2 0x2FDC JUMP JUMPDEST ADD SWAP1 POP PUSH2 0x368E DUP10 DUP5 DUP11 DUP6 DUP12 DUP7 DUP13 PUSH2 0x1D9E JUMP JUMPDEST PUSH1 0x0 PUSH2 0x778 DUP3 PUSH1 0x1 PUSH2 0x45E8 JUMP JUMPDEST PUSH2 0x3FF DUP2 SHL NOT SWAP3 SWAP1 SWAP3 AND SWAP2 SHL OR SWAP1 JUMP JUMPDEST PUSH4 0x7FFFFFFF DUP2 SHL NOT SWAP3 SWAP1 SWAP3 AND SWAP2 SHL OR SWAP1 JUMP JUMPDEST DUP2 PUSH2 0x1A16 JUMPI PUSH2 0x1A16 DUP2 PUSH2 0x45F0 JUMP JUMPDEST PUSH1 0x0 DUP3 PUSH2 0x3B4E JUMPI POP PUSH1 0x0 PUSH2 0x778 JUMP JUMPDEST PUSH1 0x0 PUSH2 0x3B59 DUP5 PUSH2 0x4600 JUMP JUMPDEST SWAP1 POP PUSH1 0x2 DUP2 PUSH8 0xDE0B6B3A7640000 DUP7 MUL DUP2 PUSH2 0x3B70 JUMPI INVALID JUMPDEST DIV DUP3 ADD DUP2 PUSH2 0x3B7A JUMPI INVALID JUMPDEST DIV SWAP1 POP PUSH1 0x2 DUP2 PUSH8 0xDE0B6B3A7640000 DUP7 MUL DUP2 PUSH2 0x3B92 JUMPI INVALID JUMPDEST DIV DUP3 ADD DUP2 PUSH2 0x3B9C JUMPI INVALID JUMPDEST DIV SWAP1 POP PUSH1 0x2 DUP2 PUSH8 0xDE0B6B3A7640000 DUP7 MUL DUP2 PUSH2 0x3BB4 JUMPI INVALID JUMPDEST DIV DUP3 ADD DUP2 PUSH2 0x3BBE JUMPI INVALID JUMPDEST DIV SWAP1 POP PUSH1 0x2 DUP2 PUSH8 0xDE0B6B3A7640000 DUP7 MUL DUP2 PUSH2 0x3BD6 JUMPI INVALID JUMPDEST DIV DUP3 ADD DUP2 PUSH2 0x3BE0 JUMPI INVALID JUMPDEST DIV SWAP1 POP PUSH1 0x2 DUP2 PUSH8 0xDE0B6B3A7640000 DUP7 MUL DUP2 PUSH2 0x3BF8 JUMPI INVALID JUMPDEST DIV DUP3 ADD DUP2 PUSH2 0x3C02 JUMPI INVALID JUMPDEST DIV SWAP1 POP PUSH1 0x2 DUP2 PUSH8 0xDE0B6B3A7640000 DUP7 MUL DUP2 PUSH2 0x3C1A JUMPI INVALID JUMPDEST DIV DUP3 ADD DUP2 PUSH2 0x3C24 JUMPI INVALID JUMPDEST DIV SWAP1 POP PUSH1 0x2 DUP2 PUSH8 0xDE0B6B3A7640000 DUP7 MUL DUP2 PUSH2 0x3C3C JUMPI INVALID JUMPDEST DIV DUP3 ADD DUP2 PUSH2 0x3C46 JUMPI INVALID JUMPDEST DIV SWAP1 POP PUSH1 0x0 PUSH2 0x3C55 DUP3 DUP1 PUSH2 0x39F8 JUMP JUMPDEST SWAP1 POP PUSH2 0x3C6B PUSH2 0x3C64 DUP4 DUP7 PUSH2 0x2854 JUMP JUMPDEST DUP7 SWAP1 PUSH2 0x39E0 JUMP JUMPDEST DUP2 GT ISZERO DUP1 ISZERO PUSH2 0x3C8D JUMPI POP PUSH2 0x3C89 PUSH2 0x3C82 DUP4 DUP7 PUSH2 0x2854 JUMP JUMPDEST DUP7 SWAP1 PUSH2 0x28A9 JUMP JUMPDEST DUP2 LT ISZERO JUMPDEST PUSH2 0x15EC JUMPI PUSH1 0x40 DUP1 MLOAD PUSH3 0x461BCD PUSH1 0xE5 SHL DUP2 MSTORE PUSH1 0x20 PUSH1 0x4 DUP3 ADD MSTORE PUSH1 0xC PUSH1 0x24 DUP3 ADD MSTORE PUSH12 0x17DCDC5C9D08119052531151 PUSH1 0xA2 SHL PUSH1 0x44 DUP3 ADD MSTORE SWAP1 MLOAD SWAP1 DUP2 SWAP1 SUB PUSH1 0x64 ADD SWAP1 REVERT JUMPDEST PUSH8 0xDE0B6B3A7640000 MUL PUSH1 0x0 DUP1 PUSH11 0xC097CE7BC90715B34B9F1 PUSH1 0x24 SHL DUP1 DUP5 ADD SWAP1 PUSH15 0xC097CE7BC90715B34B9F0FFFFFFFFF NOT DUP6 ADD MUL DUP2 PUSH2 0x3D08 JUMPI INVALID JUMPDEST SDIV SWAP1 POP PUSH1 0x0 PUSH11 0xC097CE7BC90715B34B9F1 PUSH1 0x24 SHL DUP3 DUP1 MUL SDIV SWAP1 POP DUP2 DUP1 PUSH11 0xC097CE7BC90715B34B9F1 PUSH1 0x24 SHL DUP2 DUP5 MUL SDIV SWAP2 POP PUSH1 0x3 DUP3 SDIV ADD PUSH11 0xC097CE7BC90715B34B9F1 PUSH1 0x24 SHL DUP3 DUP5 MUL SDIV SWAP2 POP PUSH1 0x5 DUP3 SDIV ADD PUSH11 0xC097CE7BC90715B34B9F1 PUSH1 0x24 SHL DUP3 DUP5 MUL SDIV SWAP2 POP PUSH1 0x7 DUP3 SDIV ADD PUSH11 0xC097CE7BC90715B34B9F1 PUSH1 0x24 SHL DUP3 DUP5 MUL SDIV SWAP2 POP PUSH1 0x9 DUP3 SDIV ADD PUSH11 0xC097CE7BC90715B34B9F1 PUSH1 0x24 SHL DUP3 DUP5 MUL SDIV SWAP2 POP PUSH1 0xB DUP3 SDIV ADD PUSH11 0xC097CE7BC90715B34B9F1 PUSH1 0x24 SHL DUP3 DUP5 MUL SDIV SWAP2 POP PUSH1 0xD DUP3 SDIV ADD PUSH11 0xC097CE7BC90715B34B9F1 PUSH1 0x24 SHL DUP3 DUP5 MUL SDIV SWAP2 POP PUSH1 0xF DUP3 PUSH1 0x2 SWAP2 SWAP1 SDIV SWAP2 SWAP1 SWAP2 ADD MUL SWAP6 SWAP5 POP POP POP POP POP JUMP JUMPDEST PUSH1 0x0 PUSH8 0xDE0B6B3A7640000 DUP3 SLT ISZERO PUSH2 0x3E27 JUMPI PUSH2 0x3E1D DUP3 PUSH11 0xC097CE7BC90715B34B9F1 PUSH1 0x24 SHL DUP2 PUSH2 0x3E17 JUMPI INVALID JUMPDEST SDIV PUSH2 0x3DEB JUMP JUMPDEST PUSH1 0x0 SUB SWAP1 POP PUSH2 0xEDD JUMP JUMPDEST PUSH1 0x0 PUSH31 0x1600EF3172E58D2E933EC884FDE10064C63B5372D805E203C0000000000000 DUP4 SLT PUSH2 0x3E78 JUMPI PUSH24 0x195E54C5DD42177F53A27172FA9EC630262827000000000 DUP4 SDIV SWAP3 POP PUSH9 0x6F05B59D3B2000000 ADD JUMPDEST PUSH20 0x11798004D755D3C8BC8E03204CF44619E000000 DUP4 SLT PUSH2 0x3EB0 JUMPI PUSH12 0x1425982CF597CD205CEF7380 DUP4 SDIV SWAP3 POP PUSH9 0x3782DACE9D9000000 ADD JUMPDEST PUSH1 0x64 SWAP3 DUP4 MUL SWAP3 MUL PUSH15 0x1855144814A7FF805980FF0084000 DUP4 SLT PUSH2 0x3EF8 JUMPI PUSH15 0x1855144814A7FF805980FF0084000 PUSH9 0x56BC75E2D63100000 DUP5 MUL SDIV SWAP3 POP PUSH9 0xAD78EBC5AC62000000 ADD JUMPDEST PUSH12 0x2DF0AB5A80A22C61AB5A700 DUP4 SLT PUSH2 0x3F33 JUMPI PUSH12 0x2DF0AB5A80A22C61AB5A700 PUSH9 0x56BC75E2D63100000 DUP5 MUL SDIV SWAP3 POP PUSH9 0x56BC75E2D631000000 ADD JUMPDEST PUSH10 0x3F1FCE3DA636EA5CF850 DUP4 SLT PUSH2 0x3F6A JUMPI PUSH10 0x3F1FCE3DA636EA5CF850 PUSH9 0x56BC75E2D63100000 DUP5 MUL SDIV SWAP3 POP PUSH9 0x2B5E3AF16B18800000 ADD JUMPDEST PUSH10 0x127FA27722CC06CC5E2 DUP4 SLT PUSH2 0x3FA1 JUMPI PUSH10 0x127FA27722CC06CC5E2 PUSH9 0x56BC75E2D63100000 DUP5 MUL SDIV SWAP3 POP PUSH9 0x15AF1D78B58C400000 ADD JUMPDEST PUSH9 0x280E60114EDB805D03 DUP4 SLT PUSH2 0x3FD6 JUMPI PUSH9 0x280E60114EDB805D03 PUSH9 0x56BC75E2D63100000 DUP5 MUL SDIV SWAP3 POP PUSH9 0xAD78EBC5AC6200000 ADD JUMPDEST PUSH9 0xEBC5FB41746121110 DUP4 SLT PUSH2 0x4001 JUMPI PUSH9 0xEBC5FB41746121110 PUSH9 0x56BC75E2D63100000 SWAP4 DUP5 MUL SDIV SWAP3 ADD JUMPDEST PUSH9 0x8F00F760A4B2DB55D DUP4 SLT PUSH2 0x4036 JUMPI PUSH9 0x8F00F760A4B2DB55D PUSH9 0x56BC75E2D63100000 DUP5 MUL SDIV SWAP3 POP PUSH9 0x2B5E3AF16B1880000 ADD JUMPDEST PUSH9 0x6F5F1775788937937 DUP4 SLT PUSH2 0x406B JUMPI PUSH9 0x6F5F1775788937937 PUSH9 0x56BC75E2D63100000 DUP5 MUL SDIV SWAP3 POP PUSH9 0x15AF1D78B58C40000 ADD JUMPDEST PUSH9 0x6248F33704B286603 DUP4 SLT PUSH2 0x409F JUMPI PUSH9 0x6248F33704B286603 PUSH9 0x56BC75E2D63100000 DUP5 MUL SDIV SWAP3 POP PUSH8 0xAD78EBC5AC620000 ADD JUMPDEST PUSH9 0x5C548670B9510E7AC DUP4 SLT PUSH2 0x40D3 JUMPI PUSH9 0x5C548670B9510E7AC PUSH9 0x56BC75E2D63100000 DUP5 MUL SDIV SWAP3 POP PUSH8 0x56BC75E2D6310000 ADD JUMPDEST PUSH1 0x0 PUSH9 0x56BC75E2D63100000 DUP5 ADD PUSH9 0x56BC75E2D63100000 DUP1 DUP7 SUB MUL DUP2 PUSH2 0x40F6 JUMPI INVALID JUMPDEST SDIV SWAP1 POP PUSH1 0x0 PUSH9 0x56BC75E2D63100000 DUP3 DUP1 MUL SDIV SWAP1 POP DUP2 DUP1 PUSH9 0x56BC75E2D63100000 DUP2 DUP5 MUL SDIV SWAP2 POP PUSH1 0x3 DUP3 SDIV ADD PUSH9 0x56BC75E2D63100000 DUP3 DUP5 MUL SDIV SWAP2 POP PUSH1 0x5 DUP3 SDIV ADD PUSH9 0x56BC75E2D63100000 DUP3 DUP5 MUL SDIV SWAP2 POP PUSH1 0x7 DUP3 SDIV ADD PUSH9 0x56BC75E2D63100000 DUP3 DUP5 MUL SDIV SWAP2 POP PUSH1 0x9 DUP3 SDIV ADD PUSH9 0x56BC75E2D63100000 DUP3 DUP5 MUL SDIV SWAP2 POP PUSH1 0xB DUP3 SDIV ADD PUSH1 0x2 MUL PUSH1 0x64 DUP6 DUP3 ADD SDIV SWAP8 SWAP7 POP POP POP POP POP POP POP JUMP JUMPDEST PUSH1 0x0 PUSH2 0x1A28 DUP4 DUP4 PUSH2 0x39F8 JUMP JUMPDEST PUSH1 0x0 PUSH2 0x1A28 DUP4 DUP4 PUSH2 0x240A JUMP JUMPDEST PUSH1 0xE SLOAD PUSH1 0x40 MLOAD PUSH4 0xBD02D0F5 PUSH1 0xE0 SHL DUP2 MSTORE PUSH1 0x0 SWAP2 DUP3 SWAP2 DUP3 SWAP2 DUP3 SWAP2 PUSH1 0x1 PUSH1 0x1 PUSH1 0xA0 SHL SUB SWAP1 SWAP2 AND SWAP1 PUSH4 0xBD02D0F5 SWAP1 PUSH2 0x41F4 SWAP1 PUSH22 0x50524F544F434F4C5F535741505F4645455F50455243 PUSH1 0x50 SHL SWAP1 PUSH1 0x4 ADD PUSH2 0x5177 JUMP JUMPDEST PUSH1 0x20 PUSH1 0x40 MLOAD DUP1 DUP4 SUB DUP2 DUP7 DUP1 EXTCODESIZE ISZERO DUP1 ISZERO PUSH2 0x420C JUMPI PUSH1 0x0 DUP1 REVERT JUMPDEST POP GAS STATICCALL ISZERO DUP1 ISZERO PUSH2 0x4220 JUMPI RETURNDATASIZE PUSH1 0x0 DUP1 RETURNDATACOPY RETURNDATASIZE PUSH1 0x0 REVERT JUMPDEST POP POP POP POP PUSH1 0x40 MLOAD RETURNDATASIZE PUSH1 0x1F NOT PUSH1 0x1F DUP3 ADD AND DUP3 ADD DUP1 PUSH1 0x40 MSTORE POP DUP2 ADD SWAP1 PUSH2 0x4244 SWAP2 SWAP1 PUSH2 0x4E02 JUMP JUMPDEST PUSH1 0xE SLOAD PUSH1 0x40 MLOAD PUSH4 0xBD02D0F5 PUSH1 0xE0 SHL DUP2 MSTORE PUSH1 0x1 PUSH1 0x1 PUSH1 0xA0 SHL SUB SWAP1 SWAP2 AND SWAP1 PUSH4 0xBD02D0F5 SWAP1 PUSH2 0x4294 SWAP1 PUSH32 0x50524F544F434F4C5F4645455F4759524F5F504F5254494F4E00000000000000 SWAP1 PUSH1 0x4 ADD PUSH2 0x5177 JUMP JUMPDEST PUSH1 0x20 PUSH1 0x40 MLOAD DUP1 DUP4 SUB DUP2 DUP7 DUP1 EXTCODESIZE ISZERO DUP1 ISZERO PUSH2 0x42AC JUMPI PUSH1 0x0 DUP1 REVERT JUMPDEST POP GAS STATICCALL ISZERO DUP1 ISZERO PUSH2 0x42C0 JUMPI RETURNDATASIZE PUSH1 0x0 DUP1 RETURNDATACOPY RETURNDATASIZE PUSH1 0x0 REVERT JUMPDEST POP POP POP POP PUSH1 0x40 MLOAD RETURNDATASIZE PUSH1 0x1F NOT PUSH1 0x1F DUP3 ADD AND DUP3 ADD DUP1 PUSH1 0x40 MSTORE POP DUP2 ADD SWAP1 PUSH2 0x42E4 SWAP2 SWAP1 PUSH2 0x4E02 JUMP JUMPDEST PUSH1 0xE SLOAD PUSH1 0x40 MLOAD PUSH4 0x21F8A721 PUSH1 0xE0 SHL DUP2 MSTORE PUSH1 0x1 PUSH1 0x1 PUSH1 0xA0 SHL SUB SWAP1 SWAP2 AND SWAP1 PUSH4 0x21F8A721 SWAP1 PUSH2 0x4324 SWAP1 PUSH13 0x4759524F5F5452454153555259 PUSH1 0x98 SHL SWAP1 PUSH1 0x4 ADD PUSH2 0x5177 JUMP JUMPDEST PUSH1 0x20 PUSH1 0x40 MLOAD DUP1 DUP4 SUB DUP2 DUP7 DUP1 EXTCODESIZE ISZERO DUP1 ISZERO PUSH2 0x433C JUMPI PUSH1 0x0 DUP1 REVERT JUMPDEST POP GAS STATICCALL ISZERO DUP1 ISZERO PUSH2 0x4350 JUMPI RETURNDATASIZE PUSH1 0x0 DUP1 RETURNDATACOPY RETURNDATASIZE PUSH1 0x0 REVERT JUMPDEST POP POP POP POP PUSH1 0x40 MLOAD RETURNDATASIZE PUSH1 0x1F NOT PUSH1 0x1F DUP3 ADD AND DUP3 ADD DUP1 PUSH1 0x40 MSTORE POP DUP2 ADD SWAP1 PUSH2 0x4374 SWAP2 SWAP1 PUSH2 0x49D7 JUMP JUMPDEST PUSH1 0xE SLOAD PUSH1 0x40 MLOAD PUSH4 0x21F8A721 PUSH1 0xE0 SHL DUP2 MSTORE PUSH1 0x1 PUSH1 0x1 PUSH1 0xA0 SHL SUB SWAP1 SWAP2 AND SWAP1 PUSH4 0x21F8A721 SWAP1 PUSH2 0x43B3 SWAP1 PUSH12 0x42414C5F5452454153555259 PUSH1 0xA0 SHL SWAP1 PUSH1 0x4 ADD PUSH2 0x5177 JUMP JUMPDEST PUSH1 0x20 PUSH1 0x40 MLOAD DUP1 DUP4 SUB DUP2 DUP7 DUP1 EXTCODESIZE ISZERO DUP1 ISZERO PUSH2 0x43CB JUMPI PUSH1 0x0 DUP1 REVERT JUMPDEST POP GAS STATICCALL ISZERO DUP1 ISZERO PUSH2 0x43DF JUMPI RETURNDATASIZE PUSH1 0x0 DUP1 RETURNDATACOPY RETURNDATASIZE PUSH1 0x0 REVERT JUMPDEST POP POP POP POP PUSH1 0x40 MLOAD RETURNDATASIZE PUSH1 0x1F NOT PUSH1 0x1F DUP3 ADD AND DUP3 ADD DUP1 PUSH1 0x40 MSTORE POP DUP2 ADD SWAP1 PUSH2 0x4403 SWAP2 SWAP1 PUSH2 0x49D7 JUMP JUMPDEST SWAP4 POP SWAP4 POP SWAP4 POP SWAP4 POP SWAP1 SWAP2 SWAP3 SWAP4 JUMP JUMPDEST PUSH1 0x0 DUP1 DUP7 DUP7 GT PUSH2 0x4426 JUMPI POP PUSH1 0x0 SWAP1 POP DUP1 PUSH2 0x449C JUMP JUMPDEST PUSH1 0x0 PUSH2 0x4440 DUP6 PUSH2 0x3589 PUSH2 0x4439 DUP11 DUP13 PUSH2 0x28A9 JUMP JUMPDEST DUP10 SWAP1 PUSH2 0x39F8 JUMP JUMPDEST SWAP1 POP PUSH1 0x0 PUSH2 0x4458 PUSH2 0x4451 DUP10 DUP12 PUSH2 0x28A9 JUMP JUMPDEST DUP8 SWAP1 PUSH2 0x39F8 JUMP JUMPDEST SWAP1 POP PUSH1 0x0 PUSH2 0x4466 DUP10 DUP4 PUSH2 0x28A9 JUMP JUMPDEST SWAP1 POP PUSH1 0x0 PUSH2 0x4474 DUP5 DUP4 PUSH2 0x240A JUMP JUMPDEST SWAP1 POP PUSH1 0x0 PUSH2 0x4482 DUP9 DUP4 PUSH2 0x39F8 JUMP JUMPDEST SWAP1 POP PUSH1 0x0 PUSH2 0x4490 DUP4 DUP4 PUSH2 0x28A9 JUMP JUMPDEST SWAP2 SWAP8 POP SWAP1 SWAP6 POP POP POP POP POP POP JUMPDEST SWAP6 POP SWAP6 SWAP4 POP POP POP POP JUMP JUMPDEST PUSH1 0x0 DUP2 DUP1 PUSH1 0x20 ADD SWAP1 MLOAD PUSH1 0x40 DUP2 LT ISZERO PUSH2 0x44BD JUMPI PUSH1 0x0 DUP1 REVERT JUMPDEST POP PUSH1 0x20 ADD MLOAD SWAP3 SWAP2 POP POP JUMP JUMPDEST PUSH1 0x60 DUP4 MLOAD PUSH1 0x1 PUSH1 0x1 PUSH1 0x40 SHL SUB DUP2 GT DUP1 ISZERO PUSH2 0x44E1 JUMPI PUSH1 0x0 DUP1 REVERT JUMPDEST POP PUSH1 0x40 MLOAD SWAP1 DUP1 DUP3 MSTORE DUP1 PUSH1 0x20 MUL PUSH1 0x20 ADD DUP3 ADD PUSH1 0x40 MSTORE DUP1 ISZERO PUSH2 0x450B JUMPI DUP2 PUSH1 0x20 ADD PUSH1 0x20 DUP3 MUL DUP1 CALLDATASIZE DUP4 CALLDATACOPY ADD SWAP1 POP JUMPDEST POP SWAP1 POP PUSH1 0x0 JUMPDEST DUP5 MLOAD DUP2 LT ISZERO PUSH2 0x15EC JUMPI PUSH2 0x452E DUP4 PUSH2 0xDE8 DUP7 DUP9 DUP6 DUP2 MLOAD DUP2 LT PUSH2 0x350F JUMPI INVALID JUMPDEST DUP3 DUP3 DUP2 MLOAD DUP2 LT PUSH2 0x453A JUMPI INVALID JUMPDEST PUSH1 0x20 SWAP1 DUP2 MUL SWAP2 SWAP1 SWAP2 ADD ADD MSTORE PUSH1 0x1 ADD PUSH2 0x4511 JUMP JUMPDEST PUSH1 0x60 DUP4 MLOAD PUSH1 0x1 PUSH1 0x1 PUSH1 0x40 SHL SUB DUP2 GT DUP1 ISZERO PUSH2 0x4566 JUMPI PUSH1 0x0 DUP1 REVERT JUMPDEST POP PUSH1 0x40 MLOAD SWAP1 DUP1 DUP3 MSTORE DUP1 PUSH1 0x20 MUL PUSH1 0x20 ADD DUP3 ADD PUSH1 0x40 MSTORE DUP1 ISZERO PUSH2 0x4590 JUMPI DUP2 PUSH1 0x20 ADD PUSH1 0x20 DUP3 MUL DUP1 CALLDATASIZE DUP4 CALLDATACOPY ADD SWAP1 POP JUMPDEST POP SWAP1 POP PUSH1 0x0 JUMPDEST DUP5 MLOAD DUP2 LT ISZERO PUSH2 0x15EC JUMPI PUSH2 0x45C9 DUP4 PUSH2 0x2F3B DUP7 DUP9 DUP6 DUP2 MLOAD DUP2 LT PUSH2 0x45B3 JUMPI INVALID JUMPDEST PUSH1 0x20 MUL PUSH1 0x20 ADD ADD MLOAD PUSH2 0x2854 SWAP1 SWAP2 SWAP1 PUSH4 0xFFFFFFFF AND JUMP JUMPDEST DUP3 DUP3 DUP2 MLOAD DUP2 LT PUSH2 0x45D5 JUMPI INVALID JUMPDEST PUSH1 0x20 SWAP1 DUP2 MUL SWAP2 SWAP1 SWAP2 ADD ADD MSTORE PUSH1 0x1 ADD PUSH2 0x4596 JUMP JUMPDEST ADD PUSH2 0x3FF AND SWAP1 JUMP JUMPDEST PUSH2 0x840 DUP2 PUSH3 0x23ACA9 PUSH1 0xE9 SHL PUSH2 0x47D2 JUMP JUMPDEST PUSH1 0x0 PUSH8 0xDE0B6B3A7640000 DUP3 LT PUSH2 0x462D JUMPI PUSH8 0xDE0B6B3A7640000 PUSH2 0x4625 DUP2 DUP5 DIV PUSH2 0x4833 JUMP JUMPDEST SHL SWAP1 POP PUSH2 0xEDD JUMP JUMPDEST PUSH1 0xA DUP3 GT PUSH2 0x4640 JUMPI POP PUSH4 0xBC7C871C PUSH2 0xEDD JUMP JUMPDEST PUSH1 0x64 DUP3 GT PUSH2 0x4654 JUMPI POP PUSH5 0x2540BE400 PUSH2 0xEDD JUMP JUMPDEST PUSH2 0x3E8 DUP3 GT PUSH2 0x4669 JUMPI POP PUSH5 0x75CDD4719 PUSH2 0xEDD JUMP JUMPDEST PUSH2 0x2710 DUP3 GT PUSH2 0x467E JUMPI POP PUSH5 0x174876E800 PUSH2 0xEDD JUMP JUMPDEST PUSH3 0x186A0 DUP3 GT PUSH2 0x4694 JUMPI POP PUSH5 0x49A0A4C700 PUSH2 0xEDD JUMP JUMPDEST PUSH3 0xF4240 DUP3 GT PUSH2 0x46AA JUMPI POP PUSH5 0xE8D4A51000 PUSH2 0xEDD JUMP JUMPDEST PUSH3 0x989680 DUP3 GT PUSH2 0x46C1 JUMPI POP PUSH6 0x2E0466FC608 PUSH2 0xEDD JUMP JUMPDEST PUSH4 0x5F5E100 DUP3 GT PUSH2 0x46D9 JUMPI POP PUSH6 0x9184E72A000 PUSH2 0xEDD JUMP JUMPDEST PUSH4 0x3B9ACA00 DUP3 GT PUSH2 0x46F1 JUMPI POP PUSH6 0x1CC2C05DBC53 PUSH2 0xEDD JUMP JUMPDEST PUSH5 0x2540BE400 DUP3 GT PUSH2 0x470A JUMPI POP PUSH6 0x5AF3107A4000 PUSH2 0xEDD JUMP JUMPDEST PUSH5 0x174876E800 DUP3 GT PUSH2 0x4724 JUMPI POP PUSH7 0x11F9B83A95B45 PUSH2 0xEDD JUMP JUMPDEST PUSH5 0xE8D4A51000 DUP3 GT PUSH2 0x473E JUMPI POP PUSH7 0x38D7EA4C68000 PUSH2 0xEDD JUMP JUMPDEST PUSH6 0x9184E72A000 DUP3 GT PUSH2 0x4759 JUMPI POP PUSH7 0xB3C13249D90BB PUSH2 0xEDD JUMP JUMPDEST PUSH6 0x5AF3107A4000 DUP3 GT PUSH2 0x4774 JUMPI POP PUSH7 0x2386F26FC10000 PUSH2 0xEDD JUMP JUMPDEST PUSH7 0x38D7EA4C68000 DUP3 GT PUSH2 0x4790 JUMPI POP PUSH7 0x7058BF6E27A751 PUSH2 0xEDD JUMP JUMPDEST PUSH7 0x2386F26FC10000 DUP3 GT PUSH2 0x47AD JUMPI POP PUSH8 0x16345785D8A0000 PUSH2 0xEDD JUMP JUMPDEST PUSH8 0x16345785D8A0000 DUP3 GT PUSH2 0x47CB JUMPI POP PUSH8 0x463777A4D8C892D PUSH2 0xEDD JUMP JUMPDEST POP DUP1 PUSH2 0xEDD JUMP JUMPDEST PUSH3 0x461BCD PUSH1 0xE5 SHL PUSH1 0x0 SWAP1 DUP2 MSTORE PUSH1 0x20 PUSH1 0x4 MSTORE PUSH1 0x7 PUSH1 0x24 MSTORE PUSH1 0xA DUP1 DUP5 DIV DUP2 DUP2 MOD PUSH1 0x30 SWAP1 DUP2 ADD PUSH1 0x8 SHL SWAP6 DUP4 SWAP1 MOD SWAP6 SWAP1 SWAP6 ADD SWAP1 DUP3 SWAP1 DIV SWAP2 DUP3 MOD DUP6 ADD PUSH1 0x10 SHL ADD PUSH1 0x23 PUSH4 0xFFFFFF00 PUSH1 0xE0 DUP7 SWAP1 SHR AND ADD PUSH1 0x18 SHL ADD SWAP1 SWAP4 ADD PUSH1 0xC8 SHL PUSH1 0x44 MSTORE PUSH1 0xE8 DUP3 SWAP1 SHR SWAP1 PUSH1 0x64 SWAP1 REVERT JUMPDEST PUSH1 0x0 PUSH1 0x1 PUSH1 0x80 SHL DUP3 LT PUSH2 0x484B JUMPI PUSH1 0x80 SWAP2 SWAP1 SWAP2 SHR SWAP1 PUSH1 0x40 ADD JUMPDEST PUSH9 0x10000000000000000 DUP3 LT PUSH2 0x4866 JUMPI PUSH1 0x40 SWAP2 SWAP1 SWAP2 SHR SWAP1 PUSH1 0x20 ADD JUMPDEST PUSH5 0x100000000 DUP3 LT PUSH2 0x487D JUMPI PUSH1 0x20 SWAP2 SWAP1 SWAP2 SHR SWAP1 PUSH1 0x10 ADD JUMPDEST PUSH3 0x10000 DUP3 LT PUSH2 0x4892 JUMPI PUSH1 0x10 SWAP2 SWAP1 SWAP2 SHR SWAP1 PUSH1 0x8 ADD JUMPDEST PUSH2 0x100 DUP3 LT PUSH2 0x48A6 JUMPI PUSH1 0x8 SWAP2 SWAP1 SWAP2 SHR SWAP1 PUSH1 0x4 ADD JUMPDEST PUSH1 0x10 DUP3 LT PUSH2 0x48B9 JUMPI PUSH1 0x4 SWAP2 SWAP1 SWAP2 SHR SWAP1 PUSH1 0x2 ADD JUMPDEST PUSH1 0x4 DUP3 LT PUSH2 0xEDD JUMPI PUSH1 0x1 ADD SWAP2 SWAP1 POP JUMP JUMPDEST PUSH1 0x40 DUP1 MLOAD PUSH1 0x60 DUP2 ADD DUP3 MSTORE PUSH1 0x0 DUP1 DUP3 MSTORE PUSH1 0x20 DUP3 ADD DUP2 SWAP1 MSTORE SWAP2 DUP2 ADD SWAP2 SWAP1 SWAP2 MSTORE SWAP1 JUMP JUMPDEST PUSH1 0x40 DUP1 MLOAD DUP1 DUP3 ADD SWAP1 SWAP2 MSTORE PUSH1 0x0 DUP1 DUP3 MSTORE PUSH1 0x20 DUP3 ADD MSTORE SWAP1 JUMP JUMPDEST PUSH1 0x40 MLOAD DUP1 PUSH1 0x40 ADD PUSH1 0x40 MSTORE DUP1 PUSH1 0x2 SWAP1 PUSH1 0x20 DUP3 MUL DUP1 CALLDATASIZE DUP4 CALLDATACOPY POP SWAP2 SWAP3 SWAP2 POP POP JUMP JUMPDEST DUP1 CALLDATALOAD PUSH2 0xEDD DUP2 PUSH2 0x53A2 JUMP JUMPDEST DUP1 CALLDATALOAD DUP1 ISZERO ISZERO DUP2 EQ PUSH2 0xEDD JUMPI PUSH1 0x0 DUP1 REVERT JUMPDEST PUSH1 0x0 DUP3 PUSH1 0x1F DUP4 ADD SLT PUSH2 0x4949 JUMPI DUP1 DUP2 REVERT JUMPDEST DUP2 CALLDATALOAD PUSH1 0x1 PUSH1 0x1 PUSH1 0x40 SHL SUB DUP2 GT ISZERO PUSH2 0x495C JUMPI INVALID JUMPDEST PUSH2 0x496F PUSH1 0x1F DUP3 ADD PUSH1 0x1F NOT AND PUSH1 0x20 ADD PUSH2 0x5362 JUMP JUMPDEST DUP2 DUP2 MSTORE DUP5 PUSH1 0x20 DUP4 DUP7 ADD ADD GT ISZERO PUSH2 0x4983 JUMPI DUP3 DUP4 REVERT JUMPDEST DUP2 PUSH1 0x20 DUP6 ADD PUSH1 0x20 DUP4 ADD CALLDATACOPY SWAP1 DUP2 ADD PUSH1 0x20 ADD SWAP2 SWAP1 SWAP2 MSTORE SWAP3 SWAP2 POP POP JUMP JUMPDEST DUP1 CALLDATALOAD PUSH1 0x2 DUP2 LT PUSH2 0xEDD JUMPI PUSH1 0x0 DUP1 REVERT JUMPDEST DUP1 CALLDATALOAD PUSH1 0x3 DUP2 LT PUSH2 0xEDD JUMPI PUSH1 0x0 DUP1 REVERT JUMPDEST PUSH1 0x0 PUSH1 0x20 DUP3 DUP5 SUB SLT ISZERO PUSH2 0x49CC JUMPI DUP1 DUP2 REVERT JUMPDEST DUP2 CALLDATALOAD PUSH2 0x1A28 DUP2 PUSH2 0x53A2 JUMP JUMPDEST PUSH1 0x0 PUSH1 0x20 DUP3 DUP5 SUB SLT ISZERO PUSH2 0x49E8 JUMPI DUP1 DUP2 REVERT JUMPDEST DUP2 MLOAD PUSH2 0x1A28 DUP2 PUSH2 0x53A2 JUMP JUMPDEST PUSH1 0x0 DUP1 PUSH1 0x40 DUP4 DUP6 SUB SLT ISZERO PUSH2 0x4A05 JUMPI DUP1 DUP2 REVERT JUMPDEST DUP3 CALLDATALOAD PUSH2 0x4A10 DUP2 PUSH2 0x53A2 JUMP JUMPDEST SWAP2 POP PUSH1 0x20 DUP4 ADD CALLDATALOAD PUSH2 0x4A20 DUP2 PUSH2 0x53A2 JUMP JUMPDEST DUP1 SWAP2 POP POP SWAP3 POP SWAP3 SWAP1 POP JUMP JUMPDEST PUSH1 0x0 DUP1 PUSH1 0x0 PUSH1 0x60 DUP5 DUP7 SUB SLT ISZERO PUSH2 0x4A3F JUMPI DUP1 DUP2 REVERT JUMPDEST DUP4 CALLDATALOAD PUSH2 0x4A4A DUP2 PUSH2 0x53A2 JUMP JUMPDEST SWAP3 POP PUSH1 0x20 DUP5 ADD CALLDATALOAD PUSH2 0x4A5A DUP2 PUSH2 0x53A2 JUMP JUMPDEST SWAP3 SWAP6 SWAP3 SWAP5 POP POP POP PUSH1 0x40 SWAP2 SWAP1 SWAP2 ADD CALLDATALOAD SWAP1 JUMP JUMPDEST PUSH1 0x0 DUP1 PUSH1 0x0 DUP1 PUSH1 0x0 DUP1 PUSH1 0x0 PUSH1 0xE0 DUP9 DUP11 SUB SLT ISZERO PUSH2 0x4A85 JUMPI DUP5 DUP6 REVERT JUMPDEST DUP8 CALLDATALOAD PUSH2 0x4A90 DUP2 PUSH2 0x53A2 JUMP JUMPDEST SWAP7 POP PUSH1 0x20 DUP9 ADD CALLDATALOAD PUSH2 0x4AA0 DUP2 PUSH2 0x53A2 JUMP JUMPDEST SWAP6 POP PUSH1 0x40 DUP9 ADD CALLDATALOAD SWAP5 POP PUSH1 0x60 DUP9 ADD CALLDATALOAD SWAP4 POP PUSH1 0x80 DUP9 ADD CALLDATALOAD PUSH1 0xFF DUP2 AND DUP2 EQ PUSH2 0x4AC3 JUMPI DUP4 DUP5 REVERT JUMPDEST SWAP7 SWAP10 SWAP6 SWAP9 POP SWAP4 SWAP7 SWAP3 SWAP6 SWAP5 PUSH1 0xA0 DUP5 ADD CALLDATALOAD SWAP5 POP PUSH1 0xC0 SWAP1 SWAP4 ADD CALLDATALOAD SWAP3 SWAP2 POP POP JUMP JUMPDEST PUSH1 0x0 DUP1 PUSH1 0x40 DUP4 DUP6 SUB SLT ISZERO PUSH2 0x4AF2 JUMPI DUP2 DUP3 REVERT JUMPDEST DUP3 CALLDATALOAD PUSH2 0x4AFD DUP2 PUSH2 0x53A2 JUMP JUMPDEST SWAP5 PUSH1 0x20 SWAP4 SWAP1 SWAP4 ADD CALLDATALOAD SWAP4 POP POP POP JUMP JUMPDEST PUSH1 0x0 PUSH1 0x20 DUP1 DUP4 DUP6 SUB SLT ISZERO PUSH2 0x4B1D JUMPI DUP2 DUP3 REVERT JUMPDEST DUP3 CALLDATALOAD PUSH1 0x1 PUSH1 0x1 PUSH1 0x40 SHL SUB DUP1 DUP3 GT ISZERO PUSH2 0x4B33 JUMPI DUP4 DUP5 REVERT JUMPDEST DUP2 DUP6 ADD SWAP2 POP DUP6 PUSH1 0x1F DUP4 ADD SLT PUSH2 0x4B46 JUMPI DUP4 DUP5 REVERT JUMPDEST DUP2 CALLDATALOAD PUSH2 0x4B59 PUSH2 0x4B54 DUP3 PUSH2 0x5385 JUMP JUMPDEST PUSH2 0x5362 JUMP JUMPDEST DUP2 DUP2 MSTORE DUP5 DUP2 ADD SWAP1 DUP5 DUP7 ADD PUSH1 0x40 DUP1 DUP6 MUL DUP8 ADD DUP9 ADD DUP12 LT ISZERO PUSH2 0x4B77 JUMPI DUP9 DUP10 REVERT JUMPDEST DUP9 SWAP7 POP JUMPDEST DUP5 DUP8 LT ISZERO PUSH2 0x4BCF JUMPI DUP1 DUP3 DUP13 SUB SLT ISZERO PUSH2 0x4B91 JUMPI DUP9 DUP10 REVERT JUMPDEST DUP1 MLOAD DUP2 DUP2 ADD DUP2 DUP2 LT DUP9 DUP3 GT OR ISZERO PUSH2 0x4BA4 JUMPI INVALID JUMPDEST DUP3 MSTORE PUSH2 0x4BAF DUP4 PUSH2 0x49AC JUMP JUMPDEST DUP2 MSTORE DUP3 DUP10 ADD CALLDATALOAD DUP10 DUP3 ADD MSTORE DUP5 MSTORE PUSH1 0x1 SWAP7 SWAP1 SWAP7 ADD SWAP6 SWAP3 DUP8 ADD SWAP3 SWAP1 DUP2 ADD SWAP1 PUSH2 0x4B7B JUMP JUMPDEST POP SWAP1 SWAP10 SWAP9 POP POP POP POP POP POP POP POP POP JUMP JUMPDEST PUSH1 0x0 PUSH1 0x20 DUP1 DUP4 DUP6 SUB SLT ISZERO PUSH2 0x4BF0 JUMPI DUP2 DUP3 REVERT JUMPDEST DUP3 CALLDATALOAD PUSH1 0x1 PUSH1 0x1 PUSH1 0x40 SHL SUB DUP1 DUP3 GT ISZERO PUSH2 0x4C06 JUMPI DUP4 DUP5 REVERT JUMPDEST DUP2 DUP6 ADD SWAP2 POP DUP6 PUSH1 0x1F DUP4 ADD SLT PUSH2 0x4C19 JUMPI DUP4 DUP5 REVERT JUMPDEST DUP2 CALLDATALOAD PUSH2 0x4C27 PUSH2 0x4B54 DUP3 PUSH2 0x5385 JUMP JUMPDEST DUP2 DUP2 MSTORE DUP5 DUP2 ADD SWAP1 DUP5 DUP7 ADD PUSH1 0x60 DUP1 DUP6 MUL DUP8 ADD DUP9 ADD DUP12 LT ISZERO PUSH2 0x4C45 JUMPI DUP9 DUP10 REVERT JUMPDEST DUP9 SWAP7 POP JUMPDEST DUP5 DUP8 LT ISZERO PUSH2 0x4BCF JUMPI DUP1 DUP3 DUP13 SUB SLT ISZERO PUSH2 0x4C5F JUMPI DUP9 DUP10 REVERT JUMPDEST PUSH1 0x40 DUP1 MLOAD DUP3 DUP2 ADD DUP2 DUP2 LT DUP10 DUP3 GT OR ISZERO PUSH2 0x4C74 JUMPI INVALID JUMPDEST DUP3 MSTORE PUSH2 0x4C7F DUP5 PUSH2 0x49AC JUMP JUMPDEST DUP2 MSTORE DUP4 DUP11 ADD CALLDATALOAD DUP11 DUP3 ADD MSTORE DUP2 DUP5 ADD CALLDATALOAD SWAP2 DUP2 ADD SWAP2 SWAP1 SWAP2 MSTORE DUP5 MSTORE PUSH1 0x1 SWAP7 SWAP1 SWAP7 ADD SWAP6 SWAP3 DUP8 ADD SWAP3 SWAP1 DUP2 ADD SWAP1 PUSH2 0x4C49 JUMP JUMPDEST PUSH1 0x0 PUSH1 0x20 DUP3 DUP5 SUB SLT ISZERO PUSH2 0x4CBB JUMPI DUP1 DUP2 REVERT JUMPDEST PUSH2 0x1A28 DUP3 PUSH2 0x4929 JUMP JUMPDEST PUSH1 0x0 DUP1 PUSH1 0x0 DUP1 PUSH1 0x0 DUP1 PUSH1 0x0 PUSH1 0xE0 DUP9 DUP11 SUB SLT ISZERO PUSH2 0x4CDE JUMPI DUP1 DUP2 REVERT JUMPDEST DUP8 CALLDATALOAD SWAP7 POP PUSH1 0x20 DUP1 DUP10 ADD CALLDATALOAD PUSH2 0x4CF1 DUP2 PUSH2 0x53A2 JUMP JUMPDEST SWAP7 POP PUSH1 0x40 DUP10 ADD CALLDATALOAD PUSH2 0x4D01 DUP2 PUSH2 0x53A2 JUMP JUMPDEST SWAP6 POP PUSH1 0x60 DUP10 ADD CALLDATALOAD PUSH1 0x1 PUSH1 0x1 PUSH1 0x40 SHL SUB DUP1 DUP3 GT ISZERO PUSH2 0x4D1C JUMPI DUP4 DUP5 REVERT JUMPDEST DUP2 DUP12 ADD SWAP2 POP DUP12 PUSH1 0x1F DUP4 ADD SLT PUSH2 0x4D2F JUMPI DUP4 DUP5 REVERT JUMPDEST DUP2 CALLDATALOAD PUSH2 0x4D3D PUSH2 0x4B54 DUP3 PUSH2 0x5385 JUMP JUMPDEST DUP1 DUP3 DUP3 MSTORE DUP6 DUP3 ADD SWAP2 POP DUP6 DUP6 ADD DUP16 DUP8 DUP9 DUP7 MUL DUP9 ADD ADD GT ISZERO PUSH2 0x4D5B JUMPI DUP8 DUP9 REVERT JUMPDEST DUP8 SWAP6 POP JUMPDEST DUP4 DUP7 LT ISZERO PUSH2 0x4D7D JUMPI DUP1 CALLDATALOAD DUP4 MSTORE PUSH1 0x1 SWAP6 SWAP1 SWAP6 ADD SWAP5 SWAP2 DUP7 ADD SWAP2 DUP7 ADD PUSH2 0x4D5F JUMP JUMPDEST POP SWAP9 POP POP POP PUSH1 0x80 DUP12 ADD CALLDATALOAD SWAP6 POP PUSH1 0xA0 DUP12 ADD CALLDATALOAD SWAP5 POP PUSH1 0xC0 DUP12 ADD CALLDATALOAD SWAP3 POP DUP1 DUP4 GT ISZERO PUSH2 0x4DA3 JUMPI DUP4 DUP5 REVERT JUMPDEST POP POP PUSH2 0x4DB1 DUP11 DUP3 DUP12 ADD PUSH2 0x4939 JUMP JUMPDEST SWAP2 POP POP SWAP3 SWAP6 SWAP9 SWAP2 SWAP5 SWAP8 POP SWAP3 SWAP6 POP JUMP JUMPDEST PUSH1 0x0 PUSH1 0x20 DUP3 DUP5 SUB SLT ISZERO PUSH2 0x4DD1 JUMPI DUP1 DUP2 REVERT JUMPDEST DUP2 CALLDATALOAD PUSH1 0x1 PUSH1 0x1 PUSH1 0xE0 SHL SUB NOT DUP2 AND DUP2 EQ PUSH2 0x1A28 JUMPI DUP2 DUP3 REVERT JUMPDEST PUSH1 0x0 PUSH1 0x20 DUP3 DUP5 SUB SLT ISZERO PUSH2 0x4DF9 JUMPI DUP1 DUP2 REVERT JUMPDEST PUSH2 0x1A28 DUP3 PUSH2 0x49AC JUMP JUMPDEST PUSH1 0x0 PUSH1 0x20 DUP3 DUP5 SUB SLT ISZERO PUSH2 0x4E13 JUMPI DUP1 DUP2 REVERT JUMPDEST POP MLOAD SWAP2 SWAP1 POP JUMP JUMPDEST PUSH1 0x0 PUSH1 0x60 DUP3 DUP5 SUB SLT ISZERO PUSH2 0x4E2B JUMPI DUP1 DUP2 REVERT JUMPDEST PUSH1 0x40 MLOAD PUSH1 0x60 DUP2 ADD DUP2 DUP2 LT PUSH1 0x1 PUSH1 0x1 PUSH1 0x40 SHL SUB DUP3 GT OR ISZERO PUSH2 0x4E47 JUMPI INVALID JUMPDEST PUSH1 0x40 MSTORE PUSH2 0x4E53 DUP4 PUSH2 0x4929 JUMP JUMPDEST DUP2 MSTORE PUSH1 0x20 DUP4 ADD CALLDATALOAD PUSH1 0x1 PUSH1 0x1 PUSH1 0x78 SHL SUB DUP2 AND DUP2 EQ PUSH2 0x4E6E JUMPI DUP3 DUP4 REVERT JUMPDEST PUSH1 0x20 DUP3 ADD MSTORE PUSH1 0x40 DUP4 ADD CALLDATALOAD PUSH1 0x1 PUSH1 0x1 PUSH1 0x80 SHL SUB DUP2 AND DUP2 EQ PUSH2 0x4E8C JUMPI DUP3 DUP4 REVERT JUMPDEST PUSH1 0x40 DUP3 ADD MSTORE SWAP4 SWAP3 POP POP POP JUMP JUMPDEST PUSH1 0x0 DUP1 PUSH1 0x0 PUSH1 0x60 DUP5 DUP7 SUB SLT ISZERO PUSH2 0x4EAC JUMPI DUP1 DUP2 REVERT JUMPDEST DUP4 CALLDATALOAD PUSH1 0x1 PUSH1 0x1 PUSH1 0x40 SHL SUB DUP1 DUP3 GT ISZERO PUSH2 0x4EC2 JUMPI DUP3 DUP4 REVERT JUMPDEST DUP2 DUP7 ADD SWAP2 POP PUSH2 0x120 DUP1 DUP4 DUP10 SUB SLT ISZERO PUSH2 0x4ED8 JUMPI DUP4 DUP5 REVERT JUMPDEST PUSH2 0x4EE1 DUP2 PUSH2 0x5362 JUMP JUMPDEST SWAP1 POP PUSH2 0x4EEC DUP4 PUSH2 0x499D JUMP JUMPDEST DUP2 MSTORE PUSH2 0x4EFA PUSH1 0x20 DUP5 ADD PUSH2 0x491E JUMP JUMPDEST PUSH1 0x20 DUP3 ADD MSTORE PUSH2 0x4F0B PUSH1 0x40 DUP5 ADD PUSH2 0x491E JUMP JUMPDEST PUSH1 0x40 DUP3 ADD MSTORE PUSH1 0x60 DUP4 ADD CALLDATALOAD PUSH1 0x60 DUP3 ADD MSTORE PUSH1 0x80 DUP4 ADD CALLDATALOAD PUSH1 0x80 DUP3 ADD MSTORE PUSH1 0xA0 DUP4 ADD CALLDATALOAD PUSH1 0xA0 DUP3 ADD MSTORE PUSH2 0x4F3A PUSH1 0xC0 DUP5 ADD PUSH2 0x491E JUMP JUMPDEST PUSH1 0xC0 DUP3 ADD MSTORE PUSH2 0x4F4B PUSH1 0xE0 DUP5 ADD PUSH2 0x491E JUMP JUMPDEST PUSH1 0xE0 DUP3 ADD MSTORE PUSH2 0x100 DUP1 DUP5 ADD CALLDATALOAD DUP4 DUP2 GT ISZERO PUSH2 0x4F63 JUMPI DUP6 DUP7 REVERT JUMPDEST PUSH2 0x4F6F DUP11 DUP3 DUP8 ADD PUSH2 0x4939 JUMP JUMPDEST SWAP2 DUP4 ADD SWAP2 SWAP1 SWAP2 MSTORE POP SWAP8 PUSH1 0x20 DUP8 ADD CALLDATALOAD SWAP8 POP PUSH1 0x40 SWAP1 SWAP7 ADD CALLDATALOAD SWAP6 SWAP5 POP POP POP POP POP JUMP JUMPDEST PUSH1 0x0 PUSH1 0x20 DUP3 DUP5 SUB SLT ISZERO PUSH2 0x4F9F JUMPI DUP1 DUP2 REVERT JUMPDEST POP CALLDATALOAD SWAP2 SWAP1 POP JUMP JUMPDEST PUSH1 0x0 DUP1 PUSH1 0x40 DUP4 DUP6 SUB SLT ISZERO PUSH2 0x4FB8 JUMPI DUP2 DUP3 REVERT JUMPDEST POP POP DUP1 CALLDATALOAD SWAP3 PUSH1 0x20 SWAP1 SWAP2 ADD CALLDATALOAD SWAP2 POP JUMP JUMPDEST PUSH1 0x0 DUP1 PUSH1 0x0 PUSH1 0x60 DUP5 DUP7 SUB SLT ISZERO PUSH2 0x4FDB JUMPI DUP1 DUP2 REVERT JUMPDEST DUP4 CALLDATALOAD SWAP3 POP PUSH1 0x20 DUP5 ADD CALLDATALOAD SWAP2 POP PUSH2 0x4FF2 PUSH1 0x40 DUP6 ADD PUSH2 0x4929 JUMP JUMPDEST SWAP1 POP SWAP3 POP SWAP3 POP SWAP3 JUMP JUMPDEST PUSH1 0x0 DUP1 PUSH1 0x0 DUP1 PUSH1 0x80 DUP6 DUP8 SUB SLT ISZERO PUSH2 0x5010 JUMPI DUP2 DUP3 REVERT JUMPDEST DUP5 MLOAD SWAP4 POP PUSH1 0x20 DUP6 ADD MLOAD SWAP3 POP PUSH1 0x40 DUP6 ADD MLOAD SWAP2 POP PUSH1 0x60 DUP6 ADD MLOAD PUSH2 0x5030 DUP2 PUSH2 0x53A2 JUMP JUMPDEST SWAP4 SWAP7 SWAP3 SWAP6 POP SWAP1 SWAP4 POP POP JUMP JUMPDEST PUSH1 0x0 DUP2 MLOAD DUP1 DUP5 MSTORE PUSH1 0x20 DUP1 DUP6 ADD SWAP5 POP DUP1 DUP5 ADD DUP4 JUMPDEST DUP4 DUP2 LT ISZERO PUSH2 0x506A JUMPI DUP2 MLOAD DUP8 MSTORE SWAP6 DUP3 ADD SWAP6 SWAP1 DUP3 ADD SWAP1 PUSH1 0x1 ADD PUSH2 0x504E JUMP JUMPDEST POP SWAP5 SWAP6 SWAP5 POP POP POP POP POP JUMP JUMPDEST PUSH1 0x3 DUP2 LT PUSH2 0x507F JUMPI INVALID JUMPDEST SWAP1 MSTORE JUMP JUMPDEST PUSH1 0x0 DUP3 DUP5 DUP4 CALLDATACOPY SWAP2 ADD SWAP1 DUP2 MSTORE SWAP2 SWAP1 POP JUMP JUMPDEST PUSH1 0x1 PUSH1 0x1 PUSH1 0xA0 SHL SUB SWAP2 SWAP1 SWAP2 AND DUP2 MSTORE PUSH1 0x20 ADD SWAP1 JUMP JUMPDEST PUSH1 0x20 DUP1 DUP3 MSTORE DUP3 MLOAD DUP3 DUP3 ADD DUP2 SWAP1 MSTORE PUSH1 0x0 SWAP2 SWAP1 DUP5 DUP3 ADD SWAP1 PUSH1 0x40 DUP6 ADD SWAP1 DUP5 JUMPDEST DUP2 DUP2 LT ISZERO PUSH2 0x50DF JUMPI DUP4 MLOAD DUP4 MSTORE SWAP3 DUP5 ADD SWAP3 SWAP2 DUP5 ADD SWAP2 PUSH1 0x1 ADD PUSH2 0x50C3 JUMP JUMPDEST POP SWAP1 SWAP7 SWAP6 POP POP POP POP POP POP JUMP JUMPDEST PUSH1 0x40 DUP2 ADD DUP2 DUP4 PUSH1 0x0 JUMPDEST PUSH1 0x2 DUP2 LT ISZERO PUSH2 0x5113 JUMPI DUP2 MLOAD DUP4 MSTORE PUSH1 0x20 SWAP3 DUP4 ADD SWAP3 SWAP1 SWAP2 ADD SWAP1 PUSH1 0x1 ADD PUSH2 0x50F4 JUMP JUMPDEST POP POP POP SWAP3 SWAP2 POP POP JUMP JUMPDEST PUSH1 0x0 PUSH1 0x20 DUP3 MSTORE PUSH2 0x1A28 PUSH1 0x20 DUP4 ADD DUP5 PUSH2 0x503B JUMP JUMPDEST PUSH1 0x0 PUSH1 0x40 DUP3 MSTORE PUSH2 0x5142 PUSH1 0x40 DUP4 ADD DUP6 PUSH2 0x503B JUMP JUMPDEST DUP3 DUP2 SUB PUSH1 0x20 DUP5 ADD MSTORE PUSH2 0x28D5 DUP2 DUP6 PUSH2 0x503B JUMP JUMPDEST SWAP1 ISZERO ISZERO DUP2 MSTORE PUSH1 0x20 ADD SWAP1 JUMP JUMPDEST SWAP3 ISZERO ISZERO DUP4 MSTORE PUSH1 0x20 DUP4 ADD SWAP2 SWAP1 SWAP2 MSTORE PUSH1 0x40 DUP3 ADD MSTORE PUSH1 0x60 ADD SWAP1 JUMP JUMPDEST SWAP1 DUP2 MSTORE PUSH1 0x20 ADD SWAP1 JUMP JUMPDEST SWAP2 DUP3 MSTORE PUSH1 0x1 PUSH1 0x1 PUSH1 0xA0 SHL SUB AND PUSH1 0x20 DUP3 ADD MSTORE PUSH1 0x40 ADD SWAP1 JUMP JUMPDEST SWAP7 DUP8 MSTORE PUSH1 0x20 DUP8 ADD SWAP6 SWAP1 SWAP6 MSTORE PUSH1 0x40 DUP7 ADD SWAP4 SWAP1 SWAP4 MSTORE PUSH1 0x60 DUP6 ADD SWAP2 SWAP1 SWAP2 MSTORE PUSH1 0x80 DUP5 ADD MSTORE PUSH1 0xA0 DUP4 ADD MSTORE PUSH1 0xC0 DUP3 ADD MSTORE PUSH1 0xE0 ADD SWAP1 JUMP JUMPDEST SWAP6 DUP7 MSTORE PUSH1 0x20 DUP7 ADD SWAP5 SWAP1 SWAP5 MSTORE PUSH1 0x40 DUP6 ADD SWAP3 SWAP1 SWAP3 MSTORE PUSH1 0x60 DUP5 ADD MSTORE ISZERO ISZERO PUSH1 0x80 DUP4 ADD MSTORE PUSH1 0xA0 DUP3 ADD MSTORE PUSH1 0xC0 ADD SWAP1 JUMP JUMPDEST DUP4 DUP2 MSTORE PUSH1 0x60 DUP2 ADD PUSH2 0x5205 PUSH1 0x20 DUP4 ADD DUP6 PUSH2 0x5075 JUMP JUMPDEST DUP3 PUSH1 0x40 DUP4 ADD MSTORE SWAP5 SWAP4 POP POP POP POP JUMP JUMPDEST DUP5 DUP2 MSTORE PUSH1 0x80 DUP2 ADD PUSH2 0x5227 PUSH1 0x20 DUP4 ADD DUP7 PUSH2 0x5075 JUMP JUMPDEST PUSH1 0x40 DUP3 ADD SWAP4 SWAP1 SWAP4 MSTORE PUSH1 0x60 ADD MSTORE SWAP3 SWAP2 POP POP JUMP JUMPDEST PUSH1 0x0 PUSH1 0xA0 DUP3 ADD SWAP1 POP DUP5 DUP3 MSTORE PUSH2 0x5252 PUSH1 0x20 DUP4 ADD DUP6 MLOAD PUSH2 0x5075 JUMP JUMPDEST PUSH1 0x20 DUP5 ADD MLOAD PUSH1 0x40 DUP4 DUP2 ADD SWAP2 SWAP1 SWAP2 MSTORE SWAP1 SWAP4 ADD MLOAD PUSH1 0x60 DUP3 ADD MSTORE PUSH1 0x80 ADD MSTORE SWAP2 SWAP1 POP JUMP JUMPDEST PUSH1 0x0 PUSH1 0x20 DUP1 DUP4 MSTORE DUP4 MLOAD DUP1 DUP3 DUP6 ADD MSTORE DUP3 JUMPDEST DUP2 DUP2 LT ISZERO PUSH2 0x529E JUMPI DUP6 DUP2 ADD DUP4 ADD MLOAD DUP6 DUP3 ADD PUSH1 0x40 ADD MSTORE DUP3 ADD PUSH2 0x5282 JUMP JUMPDEST DUP2 DUP2 GT ISZERO PUSH2 0x52AF JUMPI DUP4 PUSH1 0x40 DUP4 DUP8 ADD ADD MSTORE JUMPDEST POP PUSH1 0x1F ADD PUSH1 0x1F NOT AND SWAP3 SWAP1 SWAP3 ADD PUSH1 0x40 ADD SWAP4 SWAP3 POP POP POP JUMP JUMPDEST DUP2 MLOAD ISZERO ISZERO DUP2 MSTORE PUSH1 0x20 DUP1 DUP4 ADD MLOAD PUSH1 0x1 PUSH1 0x1 PUSH1 0x78 SHL SUB AND SWAP1 DUP3 ADD MSTORE PUSH1 0x40 SWAP2 DUP3 ADD MLOAD PUSH1 0x1 PUSH1 0x1 PUSH1 0x80 SHL SUB AND SWAP2 DUP2 ADD SWAP2 SWAP1 SWAP2 MSTORE PUSH1 0x60 ADD SWAP1 JUMP JUMPDEST SWAP1 SLOAD PUSH1 0xFF DUP2 AND ISZERO ISZERO DUP3 MSTORE PUSH1 0x8 DUP2 SWAP1 SHR PUSH1 0x1 PUSH1 0x1 PUSH1 0x78 SHL SUB AND PUSH1 0x20 DUP4 ADD MSTORE PUSH1 0x80 SHR PUSH1 0x40 DUP3 ADD MSTORE PUSH1 0x60 ADD SWAP1 JUMP JUMPDEST PUSH1 0x0 DUP4 DUP3 MSTORE PUSH1 0x40 PUSH1 0x20 DUP4 ADD MSTORE PUSH2 0x24F5 PUSH1 0x40 DUP4 ADD DUP5 PUSH2 0x503B JUMP JUMPDEST SWAP3 DUP4 MSTORE PUSH1 0x20 DUP4 ADD SWAP2 SWAP1 SWAP2 MSTORE PUSH1 0x40 DUP3 ADD MSTORE PUSH1 0x60 ADD SWAP1 JUMP JUMPDEST PUSH1 0xFF SWAP2 SWAP1 SWAP2 AND DUP2 MSTORE PUSH1 0x20 ADD SWAP1 JUMP JUMPDEST PUSH1 0x40 MLOAD DUP2 DUP2 ADD PUSH1 0x1 PUSH1 0x1 PUSH1 0x40 SHL SUB DUP2 GT DUP3 DUP3 LT OR ISZERO PUSH2 0x537D JUMPI INVALID JUMPDEST PUSH1 0x40 MSTORE SWAP2 SWAP1 POP JUMP JUMPDEST PUSH1 0x0 PUSH1 0x1 PUSH1 0x1 PUSH1 0x40 SHL SUB DUP3 GT ISZERO PUSH2 0x5398 JUMPI INVALID JUMPDEST POP PUSH1 0x20 SWAP1 DUP2 MUL ADD SWAP1 JUMP JUMPDEST PUSH1 0x1 PUSH1 0x1 PUSH1 0xA0 SHL SUB DUP2 AND DUP2 EQ PUSH2 0x840 JUMPI PUSH1 0x0 DUP1 REVERT INVALID LOG2 PUSH5 0x6970667358 0x22 SLT KECCAK256 0x2F MSTORE8 REVERT 0xB0 JUMPDEST 0xD0 SWAP7 0x2B SWAP6 0xA6 PUSH13 0xDEFC384C0A5C26CDAD2AE535AB STOP 0xEE ORIGIN 0xB2 0xE0 0xCF STOP DUP5 PUSH5 0x736F6C6343 STOP SMOD MOD STOP CALLER ","sha1":"4d19bafefda1df51938c0a209b2f613f3beb14e3","source":"// SPDX-License-Identifier: GPL-3.0-or-later\n// This program is free software: you can redistribute it and/or modify\n// it under the terms of the GNU General Public License as published by\n// the Free Software Foundation, either version 3 of the License, or\n// (at your option) any later version.\n\n// This program is distributed in the hope that it will be useful,\n// but WITHOUT ANY WARRANTY; without even the implied warranty of\n// MERCHANTABILITY or FITNESS FOR A PARTICULAR PURPOSE.  See the\n// GNU General Public License for more details.\n\n// You should have received a copy of the GNU General Public License\n// along with this program.  If not, see <http://www.gnu.org/licenses/>.\n\npragma solidity 0.7.6;\npragma experimental ABIEncoderV2;\n\n// import \"@balancer-labs/v2-solidity-utils/contracts/math/FixedPoint.sol\";\nimport \"../../libraries/GyroFixedPoint.sol\";\n\nimport \"@balancer-labs/v2-pool-weighted/contracts/WeightedPoolUserDataHelpers.sol\";\nimport \"@balancer-labs/v2-pool-weighted/contracts/WeightedPool2TokensMiscData.sol\";\n\nimport \"../../libraries/GyroConfigKeys.sol\";\nimport \"../../interfaces/IGyroConfig.sol\";\nimport \"../../libraries/GyroPoolMath.sol\";\nimport \"../../libraries/GyroErrors.sol\";\n\nimport \"../CappedLiquidity.sol\";\nimport \"../LocallyPausable.sol\";\nimport \"../ExtensibleWeightedPool2Tokens.sol\";\nimport \"./Gyro2CLPPoolErrors.sol\";\nimport \"./Gyro2CLPMath.sol\";\nimport \"./Gyro2CLPOracleMath.sol\";\n\ncontract Gyro2CLPPool is ExtensibleWeightedPool2Tokens, Gyro2CLPOracleMath, CappedLiquidity, LocallyPausable {\n    using GyroFixedPoint for uint256;\n    using WeightedPoolUserDataHelpers for bytes;\n    using WeightedPool2TokensMiscData for bytes32;\n\n    uint256 private immutable _sqrtAlpha;\n    uint256 private immutable _sqrtBeta;\n\n    IGyroConfig public gyroConfig;\n\n    struct GyroParams {\n        NewPoolParams baseParams;\n        uint256 sqrtAlpha; // A: Should already be upscaled\n        uint256 sqrtBeta; // A: Should already be upscaled. Could be passed as an array[](2)\n        address capManager;\n        CapParams capParams;\n        address pauseManager;\n    }\n\n    constructor(GyroParams memory params, address configAddress)\n        ExtensibleWeightedPool2Tokens(params.baseParams)\n        CappedLiquidity(params.capManager, params.capParams)\n        LocallyPausable(params.pauseManager)\n    {\n        _grequire(params.sqrtAlpha < params.sqrtBeta, Gyro2CLPPoolErrors.SQRT_PARAMS_WRONG);\n        _grequire(configAddress != address(0), GyroErrors.ZERO_ADDRESS);\n        _sqrtAlpha = params.sqrtAlpha;\n        _sqrtBeta = params.sqrtBeta;\n\n        gyroConfig = IGyroConfig(configAddress);\n    }\n\n    /// @dev Returns sqrtAlpha and sqrtBeta (square roots of lower and upper price bounds of p_x respectively)\n    function getSqrtParameters() external view returns (uint256[2] memory) {\n        return _sqrtParameters();\n    }\n\n    function _sqrtParameters() internal view virtual returns (uint256[2] memory virtualParameters) {\n        virtualParameters[0] = _sqrtParameters(true);\n        virtualParameters[1] = _sqrtParameters(false);\n        return virtualParameters;\n    }\n\n    function _sqrtParameters(bool parameter0) internal view virtual returns (uint256) {\n        return parameter0 ? _sqrtAlpha : _sqrtBeta;\n    }\n\n    /** @dev Reads the balance of a token from the balancer vault and returns the scaled amount. Smaller storage access\n     * compared to getVault().getPoolTokens().\n     * Copied from the 3CLP *except* that for the 2CLP, the scalingFactor is interpreted as a regular integer, not a\n     * FixedPoint number. This is an inconsistency between the base contracts.\n     */\n    function _getScaledTokenBalance(IERC20 token, uint256 scalingFactor) internal view returns (uint256 balance) {\n        // Signature of getPoolTokenInfo(): (pool id, token) -> (cash, managed, lastChangeBlock, assetManager)\n        // and total amount = cash + managed. See balancer repo, PoolTokens.sol and BalanceAllocation.sol\n        (uint256 cash, uint256 managed, , ) = getVault().getPoolTokenInfo(getPoolId(), token);\n        balance = cash + managed; // can't overflow, see BalanceAllocation.sol::total() in the Balancer repo.\n        balance = balance * scalingFactor;\n    }\n\n    /** @dev Get all balances in the pool, scaled by the appropriate scaling factors, in a relatively gas-efficient way.\n     * Essentially copied from the 3CLP.\n     */\n    function _getAllBalances() private view returns (uint256[] memory balances) {\n        // The below is more gas-efficient than the following line because the token slots don't have to be read in the\n        // vault.\n        // (, uint256[] memory balances, ) = getVault().getPoolTokens(getPoolId());\n        balances = new uint256[](2);\n        balances[0] = _getScaledTokenBalance(_token0, _scalingFactor0);\n        balances[1] = _getScaledTokenBalance(_token1, _scalingFactor1);\n        return balances;\n    }\n\n    /// @dev Returns virtual offsets a and b for reserves x and y respectively, as in (x+a)*(y+b)=L^2\n    function getVirtualParameters() external view returns (uint256[] memory virtualParams) {\n        uint256[] memory balances = _getAllBalances();\n        // _calculateCurrentValues() is defined in terms of an in/out pair, but we just map this to the 0/1 (x/y) pair.\n        virtualParams = new uint256[](2);\n        (, virtualParams[0], virtualParams[1]) = _calculateCurrentValues(balances[0], balances[1], true);\n    }\n\n    function _getVirtualParameters(uint256[2] memory sqrtParams, uint256 invariant)\n        internal\n        view\n        virtual\n        returns (uint256[2] memory virtualParameters)\n    {\n        virtualParameters[0] = _virtualParameters(true, sqrtParams[1], invariant);\n        virtualParameters[1] = _virtualParameters(false, sqrtParams[0], invariant);\n        return virtualParameters;\n    }\n\n    function _virtualParameters(\n        bool parameter0,\n        uint256 sqrtParam,\n        uint256 invariant\n    ) internal view virtual returns (uint256) {\n        return\n            parameter0\n                ? (Gyro2CLPMath._calculateVirtualParameter0(invariant, sqrtParam))\n                : (Gyro2CLPMath._calculateVirtualParameter1(invariant, sqrtParam));\n    }\n\n    /**\n     * @dev Returns the current value of the invariant.\n     */\n    function getInvariant() public view override returns (uint256) {\n        uint256[] memory balances = _getAllBalances();\n        uint256[2] memory sqrtParams = _sqrtParameters();\n\n        return Gyro2CLPMath._calculateInvariant(balances, sqrtParams[0], sqrtParams[1]);\n    }\n\n    // Swap Hooks\n\n    function onSwap(\n        SwapRequest memory request,\n        uint256 balanceTokenIn,\n        uint256 balanceTokenOut\n    ) public virtual override whenNotPaused onlyVault(request.poolId) returns (uint256) {\n        bool tokenInIsToken0 = request.tokenIn == _token0;\n\n        uint256 scalingFactorTokenIn = _scalingFactor(tokenInIsToken0);\n        uint256 scalingFactorTokenOut = _scalingFactor(!tokenInIsToken0);\n\n        // All token amounts are upscaled.\n        balanceTokenIn = _upscale(balanceTokenIn, scalingFactorTokenIn);\n        balanceTokenOut = _upscale(balanceTokenOut, scalingFactorTokenOut);\n\n        // All the calculations in one function to avoid Error Stack Too Deep\n        (uint256 currentInvariant, uint256 virtualParamIn, uint256 virtualParamOut) = _calculateCurrentValues(\n            balanceTokenIn,\n            balanceTokenOut,\n            tokenInIsToken0\n        );\n\n        // Update price oracle with the pre-swap balances\n        _updateOracle(\n            request.lastChangeBlock,\n            tokenInIsToken0 ? balanceTokenIn : balanceTokenOut,\n            tokenInIsToken0 ? balanceTokenOut : balanceTokenIn,\n            tokenInIsToken0 ? virtualParamIn : virtualParamOut,\n            tokenInIsToken0 ? virtualParamOut : virtualParamIn\n        );\n\n        if (request.kind == IVault.SwapKind.GIVEN_IN) {\n            // Fees are subtracted before scaling, to reduce the complexity of the rounding direction analysis.\n            // This is amount - fee amount, so we round up (favoring a higher fee amount).\n            uint256 feeAmount = request.amount.mulUp(getSwapFeePercentage());\n            // subtract fee and upscale so request.amount is appropriate for the following pool math.\n            request.amount = _upscale(request.amount.sub(feeAmount), scalingFactorTokenIn);\n\n            uint256 amountOut = _onSwapGivenIn(request, balanceTokenIn, balanceTokenOut, virtualParamIn, virtualParamOut);\n\n            // amountOut tokens are exiting the Pool, so we round down.\n            return _downscaleDown(amountOut, scalingFactorTokenOut);\n        } else {\n            request.amount = _upscale(request.amount, scalingFactorTokenOut);\n\n            uint256 amountIn = _onSwapGivenOut(request, balanceTokenIn, balanceTokenOut, virtualParamIn, virtualParamOut);\n\n            // amountIn tokens are entering the Pool, so we round up.\n            amountIn = _downscaleUp(amountIn, scalingFactorTokenIn);\n\n            // Fees are added after scaling happens, to reduce the complexity of the rounding direction analysis.\n            // This is amount + fee amount, so we round up (favoring a higher fee amount).\n            return amountIn.divUp(getSwapFeePercentage().complement());\n        }\n    }\n\n    // We assume all amounts to be upscaled correctly\n    function _onSwapGivenIn(\n        SwapRequest memory swapRequest,\n        uint256 currentBalanceTokenIn,\n        uint256 currentBalanceTokenOut,\n        uint256 virtualParamIn,\n        uint256 virtualParamOut\n    ) internal pure override returns (uint256) {\n        // NB: Swaps are disabled while the contract is paused.\n        return Gyro2CLPMath._calcOutGivenIn(currentBalanceTokenIn, currentBalanceTokenOut, swapRequest.amount, virtualParamIn, virtualParamOut);\n    }\n\n    function _onSwapGivenOut(\n        SwapRequest memory swapRequest,\n        uint256 currentBalanceTokenIn,\n        uint256 currentBalanceTokenOut,\n        uint256 virtualParamIn,\n        uint256 virtualParamOut\n    ) internal pure override returns (uint256) {\n        // NB: Swaps are disabled while the contract is paused.\n        return Gyro2CLPMath._calcInGivenOut(currentBalanceTokenIn, currentBalanceTokenOut, swapRequest.amount, virtualParamIn, virtualParamOut);\n    }\n\n    /// @dev invariant and virtual offsets.\n    function calculateCurrentValues(\n        uint256 balanceTokenIn, // not scaled\n        uint256 balanceTokenOut, // not scaled\n        bool tokenInIsToken0\n    )\n        public\n        view\n        returns (\n            uint256 currentInvariant,\n            uint256 virtualParamIn,\n            uint256 virtualParamOut\n        )\n    {\n        uint256 scalingFactorTokenIn = _scalingFactor(tokenInIsToken0);\n        uint256 scalingFactorTokenOut = _scalingFactor(!tokenInIsToken0);\n        balanceTokenIn = _upscale(balanceTokenIn, scalingFactorTokenIn);\n        balanceTokenOut = _upscale(balanceTokenOut, scalingFactorTokenOut);\n        return _calculateCurrentValues(balanceTokenIn, balanceTokenOut, tokenInIsToken0);\n    }\n\n    function _calculateCurrentValues(\n        uint256 balanceTokenIn, // scaled\n        uint256 balanceTokenOut, // scaled\n        bool tokenInIsToken0\n    )\n        internal\n        view\n        returns (\n            uint256 currentInvariant,\n            uint256 virtualParamIn,\n            uint256 virtualParamOut\n        )\n    {\n        uint256[] memory balances = new uint256[](2);\n        balances[0] = tokenInIsToken0 ? balanceTokenIn : balanceTokenOut;\n        balances[1] = tokenInIsToken0 ? balanceTokenOut : balanceTokenIn;\n\n        uint256[2] memory sqrtParams = _sqrtParameters();\n\n        currentInvariant = Gyro2CLPMath._calculateInvariant(balances, sqrtParams[0], sqrtParams[1]);\n\n        uint256[2] memory virtualParam = _getVirtualParameters(sqrtParams, currentInvariant);\n\n        virtualParamIn = tokenInIsToken0 ? virtualParam[0] : virtualParam[1];\n        virtualParamOut = tokenInIsToken0 ? virtualParam[1] : virtualParam[0];\n    }\n\n    /**\n     * @dev Called when the Pool is joined for the first time; that is, when the BPT total supply is zero.\n     *\n     * Returns the amount of BPT to mint, and the token amounts the Pool will receive in return.\n     *\n     * Minted BPT will be sent to `recipient`, except for _MINIMUM_BPT, which will be deducted from this amount and sent\n     * to the zero address instead. This will cause that BPT to remain forever locked there, preventing total BPT from\n     * ever dropping below that value, and ensuring `_onInitializePool` can only be called once in the entire Pool's\n     * lifetime.\n     *\n     * The tokens granted to the Pool will be transferred from `sender`. These amounts are considered upscaled and will\n     * be downscaled (rounding up) before being returned to the Vault.\n     */\n    function _onInitializePool(\n        bytes32,\n        address,\n        address,\n        bytes memory userData\n    ) internal override returns (uint256, uint256[] memory) {\n        BaseWeightedPool.JoinKind kind = userData.joinKind();\n        _require(kind == BaseWeightedPool.JoinKind.INIT, Errors.UNINITIALIZED);\n\n        uint256[] memory amountsIn = userData.initialAmountsIn();\n        InputHelpers.ensureInputLengthMatch(amountsIn.length, 2);\n        _upscaleArray(amountsIn);\n\n        uint256[2] memory sqrtParams = _sqrtParameters();\n\n        uint256 invariantAfterJoin = Gyro2CLPMath._calculateInvariant(amountsIn, sqrtParams[0], sqrtParams[1]);\n\n        // Set the initial BPT to the value of the invariant times the number of tokens. This makes BPT supply more\n        // consistent in Pools with similar compositions but different number of tokens.\n        // Note that the BPT supply also depends on the parameters of the pool.\n\n        uint256 bptAmountOut = Math.mul(invariantAfterJoin, 2);\n\n        _lastInvariant = invariantAfterJoin;\n\n        return (bptAmountOut, amountsIn);\n    }\n\n    /**\n     * @dev Called whenever the Pool is joined after the first initialization join (see `_onInitializePool`).\n     *\n     * Returns the amount of BPT to mint, the token amounts that the Pool will receive in return, and the number of\n     * tokens to pay in protocol swap fees.\n     *\n     * Implementations of this function might choose to mutate the `balances` array to save gas (e.g. when\n     * performing intermediate calculations, such as subtraction of due protocol fees). This can be done safely.\n     *\n     * Minted BPT will be sent to `recipient`.\n     *\n     * The tokens granted to the Pool will be transferred from `sender`. These amounts are considered upscaled and will\n     * be downscaled (rounding up) before being returned to the Vault.\n     *\n     * Due protocol swap fees will be taken from the Pool's balance in the Vault (see `IBasePool.onJoinPool`). These\n     * amounts are considered upscaled and will be downscaled (rounding down) before being returned to the Vault.\n     *\n     * protocolSwapFeePercentage argument is intentionally unused as protocol fees are handled in a different way\n     *\n     * Responsibility for updating the oracle has been moved from `onJoinPool()` (without the underscore) to this\n     * function. That is because both this function and `_updateOracle()` need access to the invariant and this way we\n     * can share the computation.\n     */\n    function _onJoinPool(\n        bytes32,\n        address,\n        address recipient,\n        uint256[] memory balances,\n        uint256 lastChangeBlock,\n        uint256, //protocolSwapFeePercentage,\n        bytes memory userData\n    )\n        internal\n        override\n        returns (\n            uint256,\n            uint256[] memory,\n            uint256[] memory\n        )\n    {\n        // NB Joins are disabled when the pool is paused.\n\n        uint256[2] memory sqrtParams = _sqrtParameters();\n\n        // Due protocol swap fee amounts are computed by measuring the growth of the invariant between the previous\n        // join or exit event and now - the invariant's growth is due exclusively to swap fees. This avoids\n        // spending gas accounting for fees on each individual swap.\n        uint256 invariantBeforeAction = Gyro2CLPMath._calculateInvariant(balances, sqrtParams[0], sqrtParams[1]);\n        uint256[2] memory virtualParam = _getVirtualParameters(sqrtParams, invariantBeforeAction);\n\n        // Update price oracle with pre-join balances\n        _updateOracle(lastChangeBlock, balances[0], balances[1], virtualParam[0], virtualParam[1]);\n\n        _distributeFees(invariantBeforeAction);\n\n        (uint256 bptAmountOut, uint256[] memory amountsIn) = _doJoin(balances, userData);\n\n        if (_capParams.capEnabled) {\n            _ensureCap(bptAmountOut, balanceOf(recipient), totalSupply());\n        }\n\n        // Since we pay fees in BPT, they have not changed the invariant and 'invariantBeforeAction' is still consistent\n        // with  'balances'. Therefore, we can use a simplified method to update the invariant that does not require a\n        // full re-computation.\n        // Note: Should this be changed in the future, we also need to reduce the invariant proportionally by the total\n        // protocol fee factor.\n        _lastInvariant = GyroPoolMath.liquidityInvariantUpdate(invariantBeforeAction, bptAmountOut, totalSupply(), true);\n\n        // returns a new uint256[](2) b/c Balancer vault is expecting a fee array, but fees paid in BPT instead\n        return (bptAmountOut, amountsIn, new uint256[](2));\n    }\n\n    function _doJoin(uint256[] memory balances, bytes memory userData) internal view returns (uint256 bptAmountOut, uint256[] memory amountsIn) {\n        BaseWeightedPool.JoinKind kind = userData.joinKind();\n\n        // We do NOT currently support unbalanced update, i.e., EXACT_TOKENS_IN_FOR_BPT_OUT or TOKEN_IN_FOR_EXACT_BPT_OUT\n        if (kind == BaseWeightedPool.JoinKind.ALL_TOKENS_IN_FOR_EXACT_BPT_OUT) {\n            (bptAmountOut, amountsIn) = _joinAllTokensInForExactBPTOut(balances, userData);\n        } else {\n            _revert(Errors.UNHANDLED_JOIN_KIND);\n        }\n    }\n\n    function _joinAllTokensInForExactBPTOut(uint256[] memory balances, bytes memory userData)\n        internal\n        view\n        override\n        returns (uint256, uint256[] memory)\n    {\n        uint256 bptAmountOut = userData.allTokensInForExactBptOut();\n        // Note that there is no maximum amountsIn parameter: this is handled by `IVault.joinPool`.\n\n        uint256[] memory amountsIn = GyroPoolMath._calcAllTokensInGivenExactBptOut(balances, bptAmountOut, totalSupply());\n\n        return (bptAmountOut, amountsIn);\n    }\n\n    /**\n     * @dev Called whenever the Pool is exited.\n     *\n     * Returns the amount of BPT to burn, the token amounts for each Pool token that the Pool will grant in return, and\n     * the number of tokens to pay in protocol swap fees.\n     *\n     * Implementations of this function might choose to mutate the `balances` array to save gas (e.g. when\n     * performing intermediate calculations, such as subtraction of due protocol fees). This can be done safely.\n     *\n     * BPT will be burnt from `sender`.\n     *\n     * The Pool will grant tokens to `recipient`. These amounts are considered upscaled and will be downscaled\n     * (rounding down) before being returned to the Vault.\n     *\n     * Due protocol swap fees will be taken from the Pool's balance in the Vault (see `IBasePool.onExitPool`). These\n     * amounts are considered upscaled and will be downscaled (rounding down) before being returned to the Vault.\n     *\n     * protocolSwapFeePercentage argument is intentionally unused as protocol fees are handled in a different way\n     */\n    function _onExitPool(\n        bytes32,\n        address,\n        address,\n        uint256[] memory balances,\n        uint256 lastChangeBlock,\n        uint256, // protocolSwapFeePercentage,\n        bytes memory userData\n    )\n        internal\n        override\n        returns (\n            uint256 bptAmountIn,\n            uint256[] memory amountsOut,\n            uint256[] memory dueProtocolFeeAmounts\n        )\n    {\n        // Exits are not completely disabled while the contract is paused: proportional exits (exact BPT in for tokens\n        // out) remain functional.\n\n        uint256[2] memory sqrtParams = _sqrtParameters();\n\n        if (_isNotPaused()) {\n            // Due protocol swap fee amounts are computed by measuring the growth of the invariant between the previous\n            // join or exit event and now - the invariant's growth is due exclusively to swap fees. This avoids\n            // spending gas calculating the fees on each individual swap.\n            uint256 invariantBeforeAction = Gyro2CLPMath._calculateInvariant(balances, sqrtParams[0], sqrtParams[1]);\n            uint256[2] memory virtualParam = _getVirtualParameters(sqrtParams, invariantBeforeAction);\n\n            // Update price oracle with the pre-exit balances\n            _updateOracle(lastChangeBlock, balances[0], balances[1], virtualParam[0], virtualParam[1]);\n\n            _distributeFees(invariantBeforeAction);\n\n            (bptAmountIn, amountsOut) = _doExit(balances, userData);\n\n            // Since we pay fees in BPT, they have not changed the invariant and 'invariantBeforeAction' is still\n            // consistent with 'balances'. Therefore, we can use a simplified method to update the invariant that does\n            // not require a full re-computation.\n            // Note: Should this be changed in the future, we also need to reduce the invariant proportionally by the\n            // total protocol fee factor.\n            _lastInvariant = GyroPoolMath.liquidityInvariantUpdate(invariantBeforeAction, bptAmountIn, totalSupply(), false);\n        } else {\n            // Note: If the contract is paused, swap protocol fee amounts are not charged and the oracle is not updated\n            // to avoid extra calculations and reduce the potential for errors.\n            (bptAmountIn, amountsOut) = _doExit(balances, userData);\n\n            // Invalidate _lastInvariant. We do not compute the invariant to reduce the potential for errors or lockup.\n            // Instead, we set the invariant such that any following (non-paused) join/exit will ignore and recompute\n            // it. (see GyroPoolMath._calcProtocolFees())\n            _lastInvariant = type(uint256).max;\n        }\n\n        // returns a new uint256[](2) b/c Balancer vault is expecting a fee array, but fees paid in BPT instead\n        return (bptAmountIn, amountsOut, new uint256[](2));\n    }\n\n    function _doExit(uint256[] memory balances, bytes memory userData) internal view returns (uint256 bptAmountIn, uint256[] memory amountsOut) {\n        BaseWeightedPool.ExitKind kind = userData.exitKind();\n\n        // We do NOT support unbalanced exit at the moment, i.e., EXACT_BPT_IN_FOR_ONE_TOKEN_OUT or\n        // BPT_IN_FOR_EXACT_TOKENS_OUT.\n        if (kind == BaseWeightedPool.ExitKind.EXACT_BPT_IN_FOR_TOKENS_OUT) {\n            (bptAmountIn, amountsOut) = _exitExactBPTInForTokensOut(balances, userData);\n        } else {\n            _revert(Errors.UNHANDLED_EXIT_KIND);\n        }\n    }\n\n    function _exitExactBPTInForTokensOut(uint256[] memory balances, bytes memory userData)\n        internal\n        view\n        override\n        returns (uint256, uint256[] memory)\n    {\n        // This exit function is the only one that is not disabled if the contract is paused: it remains unrestricted\n        // in an attempt to provide users with a mechanism to retrieve their tokens in case of an emergency.\n        // This particular exit function is the only one that remains available because it is the simplest one, and\n        // therefore the one with the lowest likelihood of errors.\n\n        uint256 bptAmountIn = userData.exactBptInForTokensOut();\n        // Note that there is no minimum amountOut parameter: this is handled by `IVault.exitPool`.\n\n        uint256[] memory amountsOut = GyroPoolMath._calcTokensOutGivenExactBptIn(balances, bptAmountIn, totalSupply());\n        return (bptAmountIn, amountsOut);\n    }\n\n    // Helpers\n\n    /**\n     * @dev Computes and distributes fees between the Balancer and the Gyro treasury\n     * The fees are computed and distributed in BPT rather than using the\n     * Balancer regular distribution mechanism which would pay these in underlying\n     */\n\n    function _distributeFees(uint256 invariantBeforeAction) internal {\n        // calculate Protocol fees in BPT\n        // lastInvariant is the invariant logged at the end of the last liquidity update\n        // protocol fees are calculated on swap fees earned between liquidity updates\n        (uint256 gyroFees, uint256 balancerFees, address gyroTreasury, address balTreasury) = _getDueProtocolFeeAmounts(\n            _lastInvariant,\n            invariantBeforeAction\n        );\n\n        // Pay fees in BPT\n        _payFeesBpt(gyroFees, balancerFees, gyroTreasury, balTreasury);\n    }\n\n    /**\n     * @dev this function overrides inherited function to make sure it is never used\n     */\n    function _getDueProtocolFeeAmounts(\n        uint256[] memory, // balances,\n        uint256[] memory, // normalizedWeights,\n        uint256, // previousInvariant,\n        uint256, // currentInvariant,\n        uint256 // protocolSwapFeePercentage\n    ) internal pure override returns (uint256[] memory) {\n        revert(\"Not implemented\");\n    }\n\n    /**\n     * @dev Calculates protocol fee amounts in BPT terms.\n     * protocolSwapFeePercentage is not used here b/c we take parameters from GyroConfig instead.\n     * Returns: BPT due to Gyro, BPT due to Balancer, receiving address for Gyro fees, receiving address for Balancer\n     * fees.\n     */\n    function _getDueProtocolFeeAmounts(uint256 previousInvariant, uint256 currentInvariant)\n        internal\n        view\n        returns (\n            uint256,\n            uint256,\n            address,\n            address\n        )\n    {\n        (uint256 protocolSwapFeePerc, uint256 protocolFeeGyroPortion, address gyroTreasury, address balTreasury) = _getFeesMetadata();\n\n        // Early return if the protocol swap fee percentage is zero, saving gas.\n        if (protocolSwapFeePerc == 0) {\n            return (0, 0, gyroTreasury, balTreasury);\n        }\n\n        // Calculate fees in BPT\n        (uint256 gyroFees, uint256 balancerFees) = GyroPoolMath._calcProtocolFees(\n            previousInvariant,\n            currentInvariant,\n            totalSupply(),\n            protocolSwapFeePerc,\n            protocolFeeGyroPortion\n        );\n\n        return (gyroFees, balancerFees, gyroTreasury, balTreasury);\n    }\n\n    function _payFeesBpt(\n        uint256 gyroFees,\n        uint256 balancerFees,\n        address gyroTreasury,\n        address balTreasury\n    ) internal {\n        // Pay fees in BPT to gyro treasury\n        if (gyroFees > 0) {\n            _mintPoolTokens(gyroTreasury, gyroFees);\n        }\n        // Pay fees in BPT to bal treasury\n        if (balancerFees > 0) {\n            _mintPoolTokens(balTreasury, balancerFees);\n        }\n    }\n\n    function _getFeesMetadata()\n        internal\n        view\n        returns (\n            uint256,\n            uint256,\n            address,\n            address\n        )\n    {\n        return (\n            gyroConfig.getUint(GyroConfigKeys.PROTOCOL_SWAP_FEE_PERC_KEY),\n            gyroConfig.getUint(GyroConfigKeys.PROTOCOL_FEE_GYRO_PORTION_KEY),\n            gyroConfig.getAddress(GyroConfigKeys.GYRO_TREASURY_KEY),\n            gyroConfig.getAddress(GyroConfigKeys.BAL_TREASURY_KEY)\n        );\n    }\n\n    /**\n     * @dev Updates the Price Oracle based on the Pool's current state (balances, BPT supply and invariant). Must be\n     * called on *all* state-changing functions with the balances *before* the state change happens, and with\n     * `lastChangeBlock` as the number of the block in which any of the balances last changed.\n     */\n    function _updateOracle(\n        uint256 lastChangeBlock,\n        uint256 balanceToken0,\n        uint256 balanceToken1,\n        uint256 virtualParam0,\n        uint256 virtualParam1\n    ) internal {\n        bytes32 miscData = _miscData;\n        if (miscData.oracleEnabled() && block.number > lastChangeBlock) {\n            int256 logSpotPrice = Gyro2CLPOracleMath._calcLogSpotPrice(balanceToken0, virtualParam0, balanceToken1, virtualParam1);\n\n            int256 logBPTPrice = Gyro2CLPOracleMath._calcLogBPTPrice(\n                balanceToken0,\n                virtualParam0,\n                balanceToken1,\n                virtualParam1,\n                miscData.logTotalSupply()\n            );\n\n            uint256 oracleCurrentIndex = miscData.oracleIndex();\n            uint256 oracleCurrentSampleInitialTimestamp = miscData.oracleSampleCreationTimestamp();\n            uint256 oracleUpdatedIndex = _processPriceData(\n                oracleCurrentSampleInitialTimestamp,\n                oracleCurrentIndex,\n                logSpotPrice,\n                logBPTPrice,\n                miscData.logInvariant()\n            );\n\n            if (oracleCurrentIndex != oracleUpdatedIndex) {\n                // solhint-disable not-rely-on-time\n                miscData = miscData.setOracleIndex(oracleUpdatedIndex);\n                miscData = miscData.setOracleSampleCreationTimestamp(block.timestamp);\n                _miscData = miscData;\n            }\n        }\n    }\n\n    /**\n     * @dev this variant of the function, called from `onJoinPool()` and `onExitPool()`, which we inherit, is a no-op.\n     * We instead have moved responsibility for updating the oracle to `_onJoinPool()` and `_onExitPool()` and the above\n     * version is called from there.\n     */\n    function _updateOracle(\n        uint256 lastChangeBlock,\n        uint256 balanceToken0,\n        uint256 balanceToken1\n    ) internal override {\n        // Do nothing.\n    }\n\n    function _setPausedState(bool paused) internal override {\n        _setPaused(paused);\n    }\n}\n","sourcePath":"contracts/2clp/Gyro2CLPPool.sol","type":"contract","deployment":{"address":"0xFA9Ee04a5545D8e0a26B30F5cA5CbecD75eA645F","chainid":"137","blockHeight":33346210}}