{"abi":[{"inputs":[{"internalType":"contract IVault","name":"vault","type":"address"},{"internalType":"address","name":"_gyroConfigAddress","type":"address"}],"stateMutability":"nonpayable","type":"constructor","name":"constructor"},{"anonymous":false,"inputs":[{"indexed":true,"internalType":"address","name":"pool","type":"address"}],"name":"PoolCreated","type":"event"},{"inputs":[],"name":"BUFFER_PERIOD_DURATION","outputs":[{"internalType":"uint256","name":"","type":"uint256"}],"stateMutability":"view","type":"function"},{"inputs":[],"name":"PAUSE_WINDOW_DURATION","outputs":[{"internalType":"uint256","name":"","type":"uint256"}],"stateMutability":"view","type":"function"},{"inputs":[{"components":[{"internalType":"string","name":"name","type":"string"},{"internalType":"string","name":"symbol","type":"string"},{"internalType":"contract IERC20[]","name":"tokens","type":"address[]"},{"internalType":"uint256","name":"swapFeePercentage","type":"uint256"},{"internalType":"uint256","name":"root3Alpha","type":"uint256"},{"internalType":"address","name":"owner","type":"address"},{"internalType":"address","name":"capManager","type":"address"},{"components":[{"internalType":"bool","name":"capEnabled","type":"bool"},{"internalType":"uint120","name":"perAddressCap","type":"uint120"},{"internalType":"uint128","name":"globalCap","type":"uint128"}],"internalType":"struct ICappedLiquidity.CapParams","name":"capParams","type":"tuple"},{"internalType":"address","name":"pauseManager","type":"address"}],"internalType":"struct Gyro3CLPPool.NewPoolConfigParams","name":"config","type":"tuple"}],"name":"create","outputs":[{"internalType":"address","name":"","type":"address"}],"stateMutability":"nonpayable","type":"function"},{"inputs":[],"name":"getCreationCode","outputs":[{"internalType":"bytes","name":"","type":"bytes"}],"stateMutability":"view","type":"function"},{"inputs":[],"name":"getCreationCodeContracts","outputs":[{"internalType":"address","name":"contractA","type":"address"},{"internalType":"address","name":"contractB","type":"address"}],"stateMutability":"view","type":"function"},{"inputs":[],"name":"getPauseConfiguration","outputs":[{"internalType":"uint256","name":"pauseWindowDuration","type":"uint256"},{"internalType":"uint256","name":"bufferPeriodDuration","type":"uint256"}],"stateMutability":"view","type":"function"},{"inputs":[],"name":"getVault","outputs":[{"internalType":"contract IVault","name":"","type":"address"}],"stateMutability":"view","type":"function"},{"inputs":[],"name":"gyroConfigAddress","outputs":[{"internalType":"address","name":"","type":"address"}],"stateMutability":"view","type":"function"},{"inputs":[{"internalType":"address","name":"pool","type":"address"}],"name":"isPoolFromFactory","outputs":[{"internalType":"bool","name":"","type":"bool"}],"stateMutability":"view","type":"function"}],"bytecode":"6101606040523480156200001257600080fd5b5060405162006658380380620066588339810160408190526200003591620001cc565b81604051806020016200004890620001be565b601f1982820381018352601f909101166040528051819060006002820460a081905280830360e081905281855290915083620000908162000102602090811b6200032d17901c565b60601b6001600160601b0319166080528285018051838252620000bf8262000102602090811b6200032d17901c565b6001600160601b0319606091821b811660c05296909352905295861b8316610100525050426276a70001610120529390921b909216610140525062000223915050565b80517f602038038060206000396000f3fefefefefefefefefefefefefefefefefefefe808352600091602081018484f09084529150620001506001600160a01b03831615156101ac62000156565b50919050565b81620001675762000167816200016b565b5050565b62461bcd60e51b6000908152602060045260076024526642414c23000030600a808404818106603090810160081b95839006959095019082900491820690940160101b939093010160c81b604452606490fd5b6158d38062000d8583390190565b60008060408385031215620001df578182fd5b8251620001ec816200020a565b6020840151909250620001ff816200020a565b809150509250929050565b6001600160a01b03811681146200022057600080fd5b50565b60805160601c60a05160c05160601c60e0516101005160601c610120516101405160601c610aee620002976000398061016f52806101fd52508061027952806102a25250806103045250806103875250806101b452806104035250806103a852508061019352806103df5250610aee6000f3fe608060405234801561001057600080fd5b50600436106100925760003560e01c80632da47c40116100665780632da47c40146100f357806345be0bd4146101095780636634b7531461011e5780638d928af81461013e578063d14646861461014657610092565b8062c194db146100975780630bc7b4c4146100b5578063174481fa146100ca578063286f6cf0146100e0575b600080fd5b61009f61014e565b6040516100ac9190610941565b60405180910390f35b6100bd61016d565b6040516100ac9190610908565b6100d2610191565b6040516100ac92919061091c565b6100bd6100ee366004610732565b6101d7565b6100fb610273565b6040516100ac929190610a6e565b6101116102dd565b6040516100ac9190610a65565b61013161012c36600461070f565b6102e4565b6040516100ac9190610936565b6100bd610302565b610111610326565b60606101686040518060200160405280600081525061037f565b905090565b7f000000000000000000000000000000000000000000000000000000000000000081565b7f00000000000000000000000000000000000000000000000000000000000000007f00000000000000000000000000000000000000000000000000000000000000009091565b6000806040518060a001604052806101ed610302565b6001600160a01b031681526020017f00000000000000000000000000000000000000000000000000000000000000006001600160a01b031681526020018481526020016276a700815260200162278d00815250905061026a816040516020016102569190610954565b604051602081830303815290604052610458565b9150505b919050565b600080427f00000000000000000000000000000000000000000000000000000000000000008110156102cf57807f000000000000000000000000000000000000000000000000000000000000000003925062278d0091506102d8565b60009250600091505b509091565b6276a70081565b6001600160a01b031660009081526020819052604090205460ff1690565b7f000000000000000000000000000000000000000000000000000000000000000090565b62278d0081565b80517f602038038060206000396000f3fefefefefefefefefefefefefefefefefefefe808352600091602081018484f090845291506103796001600160a01b03831615156101ac6104b8565b50919050565b8051604080517f00000000000000000000000000000000000000000000000000000000000000007f0000000000000000000000000000000000000000000000000000000000000000818101858101848101602090810190965280855293957f00000000000000000000000000000000000000000000000000000000000000009592947f000000000000000000000000000000000000000000000000000000000000000094938801866000828a3c846000888301883c506020898101908985010161044a8183866104ca565b505050505050505050919050565b60008061046483610508565b6001600160a01b038116600081815260208190526040808220805460ff191660011790555192935090917f83a48fbcfc991335314e74d0496aab6a1987e992ddc85dddbcc4d6dd6ef2e9fc9190a292915050565b816104c6576104c68161053b565b5050565b5b602081106104ea578151835260209283019290910190601f19016104cb565b905182516020929092036101000a6000190180199091169116179052565b6000806105148361037f565b905060008151602083016000f090506001600160a01b03811661026a573d6000803e3d6000fd5b62461bcd60e51b6000908152602060045260076024526642414c23000030600a808404818106603090810160081b95839006959095019082900491820690940160101b939093010160c81b604452606490fd5b803561026e81610aa0565b600082601f8301126105a9578081fd5b8135602067ffffffffffffffff8211156105bf57fe5b8082026105cd828201610a7c565b8381528281019086840183880185018910156105e7578687fd5b8693505b858410156106125780356105fe81610aa0565b8352600193909301929184019184016105eb565b50979650505050505050565b600082601f83011261062e578081fd5b813567ffffffffffffffff81111561064257fe5b610655601f8201601f1916602001610a7c565b818152846020838601011115610669578283fd5b816020850160208301379081016020019190915292915050565b600060608284031215610694578081fd5b6040516060810181811067ffffffffffffffff821117156106b157fe5b604052905080823580151581146106c757600080fd5b815260208301356001600160781b03811681146106e357600080fd5b602082015260408301356001600160801b038116811461070257600080fd5b6040919091015292915050565b600060208284031215610720578081fd5b813561072b81610aa0565b9392505050565b600060208284031215610743578081fd5b813567ffffffffffffffff8082111561075a578283fd5b90830190610160828603121561076e578283fd5b610779610120610a7c565b823582811115610787578485fd5b6107938782860161061e565b8252506020830135828111156107a7578485fd5b6107b38782860161061e565b6020830152506040830135828111156107ca578485fd5b6107d687828601610599565b60408301525060608301356060820152608083013560808201526107fc60a0840161058e565b60a082015261080d60c0840161058e565b60c082015261081f8660e08501610683565b60e0820152610831610140840161058e565b61010082015295945050505050565b6001600160a01b03169052565b6000815180845260208085019450808401835b838110156108855781516001600160a01b031687529582019590820190600101610860565b509495945050505050565b60008151808452815b818110156108b557602081850181015186830182015201610899565b818111156108c65782602083870101525b50601f01601f19169290920160200192915050565b8051151582526020808201516001600160781b0316908301526040908101516001600160801b0316910152565b6001600160a01b0391909116815260200190565b6001600160a01b0392831681529116602082015260400190565b901515815260200190565b60006020825261072b6020830184610890565b60006020825260018060a01b0380845116602084015280602085015116604084015250604083015160a0606084015280516101608060c086015261099c610220860183610890565b9150602083015160bf19808785030160e08801526109ba8483610890565b9350604085015191506101008188860301818901526109d9858461084d565b94506060860151610120890152608086015161014089015260a08601519250610a0484890184610840565b60c08601519350610a19610180890185610840565b60e08601519350610a2e6101a08901856108db565b80860151955050505050610a46610200850183610840565b60608501516080850152608085015160a0850152809250505092915050565b90815260200190565b918252602082015260400190565b60405181810167ffffffffffffffff81118282101715610a9857fe5b604052919050565b6001600160a01b0381168114610ab557600080fd5b5056fea2646970667358221220086f394a3ae026f4f5b099d9d45e1e6bbd5c77eed987716aac5683d15e47bccb64736f6c634300070600336102a06040527f6e71edae12b1b97f4d1f60370fef10105fa2faae0126114a169c64845d6126c9610120523480156200003757600080fd5b50604051620058d3380380620058d38339810160408190526200005a9162000c97565b60408181015161010081015160c082015160e0830151855184516020860151958701518751600380825260808201909952959794969395929491939290918160200160208202803683370190505088604001516060015189606001518a608001518b6040015160a00151888651600214620000d7576001620000da565b60025b8989898989898989828289898d8280604051806040016040528060018152602001603160f81b81525085858a336001600160a01b031660001b806080818152505050806001600160a01b031660a0816001600160a01b031660601b815250505081600390805190602001906200015292919062000936565b5080516200016890600490602084019062000936565b505060058054601260ff1990911617905550815160209283012060c052805191012060e052507f8b73c3c69bb8fe3d512ecc4cf759cc79239f7b179b0ffacaa9a75d522b39400f6101005260601b6001600160601b0319166101405250620001db90506276a7008311156101946200061f565b620001ef62278d008211156101956200061f565b429091016101608190520161018052855162000211906002111560c86200061f565b6200022b6200021f62000634565b8751111560c96200061f565b62000241866200063960201b620013951760201c565b6200024c8462000645565b6040516309b2760f60e01b81526000906001600160a01b038c16906309b2760f906200027d908d9060040162000e17565b602060405180830381600087803b1580156200029857600080fd5b505af1158015620002ad573d6000803e3d6000fd5b505050506040513d601f19601f82011682018060405250810190620002d3919062000c7e565b604051633354e3e960e11b81529091506001600160a01b038c16906366a9c7d290620003089084908b908b9060040162000d7d565b600060405180830381600087803b1580156200032357600080fd5b505af115801562000338573d6000803e3d6000fd5b50505050806101a08181525050505050505050505050505050505050505050505060006001600160a01b0316826001600160a01b031614156040518060400160405280600e81526020016d1b9bdd08185d5d1a1bdc9a5e995960921b81525090620003c15760405162461bcd60e51b8152600401620003b8919062000e2c565b60405180910390fd5b50600b80546001600160a01b0319166001600160a01b039384161790558051600a8054602084015160409094015160ff1990911692151592909217610100600160801b0319166101006001600160781b0390941693909302929092176001600160801b03908116600160801b91909216021790556200044690821615156069620006d1565b600c80546001600160a01b0319166001600160a01b0392909216919091179055604081810151015180516200048190600314610161620006d1565b62000497816200063960201b620013951760201c565b6020820151620004b4906001600160a01b031615156069620006d1565b80600081518110620004c257fe5b60200260200101516001600160a01b03166101e0816001600160a01b031660601b8152505080600181518110620004f557fe5b60200260200101516001600160a01b0316610200816001600160a01b031660601b81525050806002815181106200052857fe5b60200260200101516001600160a01b0316610220816001600160a01b031660601b8152505062000573816000815181106200055f57fe5b6020026020010151620006e260201b60201c565b6102405280516200058c90829060019081106200055f57fe5b610260528051620005a590829060029081106200055f57fe5b61028052604082015160800151620005e890670233f548dddd560211801590620005df5750670de098625faac3a883604001516080015111155b61015f620006d1565b506040810151608001516101c05260200151600d80546001600160a01b0319166001600160a01b0390921691909117905562000ed7565b8162000630576200063081620007b6565b5050565b600390565b80620006308162000809565b6200065a64e8d4a5100082101560cb6200061f565b6200067267016345785d8a000082111560ca6200061f565b620006918160c06008546200089660201b6200139f179092919060201c565b6008556040517fa9ba3ffe0b6c366b81232caab38605a0699ad5398d6cce76f91ee809e322dafc90620006c690839062000e61565b60405180910390a150565b8162000630576200063081620008ab565b60006001600160a01b038216301415620007065750670de0b6b3a7640000620007b1565b6000826001600160a01b031663313ce5676040518163ffffffff1660e01b815260040160206040518083038186803b1580156200074257600080fd5b505afa15801562000757573d6000803e3d6000fd5b505050506040513d601f19601f820116820180604052508101906200077d919062000d53565b60ff16905060006200079c601283620008bd60201b620013b41760201c565b905080600a0a670de0b6b3a764000002925050505b919050565b62461bcd60e51b6000908152602060045260076024526642414c23000030600a808404818106603090810160081b95839006959095019082900491820690940160101b939093010160c81b604452606490fd5b6002815110156200081a5762000893565b6000816000815181106200082a57fe5b602002602001015190506000600190505b8251811015620008905760008382815181106200085457fe5b6020026020010151905062000885816001600160a01b0316846001600160a01b03161060656200061f60201b60201c565b91506001016200083b565b50505b50565b6001600160401b03811b1992909216911b1790565b62000893816223aca960e91b620008d5565b6000620008cf8383111560016200061f565b50900390565b62461bcd60e51b600090815260206004526007602452600a808404818106603090810160081b958390069590950190829004918206850160101b01602363ffffff0060e086901c160160181b0190930160c81b60445260e882901c90606490fd5b828054600181600116156101000203166002900490600052602060002090601f0160209004810192826200096e5760008555620009b9565b82601f106200098957805160ff1916838001178555620009b9565b82800160010185558215620009b9579182015b82811115620009b95782518255916020019190600101906200099c565b50620009c7929150620009cb565b5090565b5b80821115620009c75760008155600101620009cc565b8051620007b18162000ec1565b600082601f83011262000a00578081fd5b815160206001600160401b0382111562000a1657fe5b80820262000a2682820162000e6a565b83815282810190868401838801850189101562000a41578687fd5b8693505b8584101562000a7057805162000a5b8162000ec1565b83526001939093019291840191840162000a45565b50979650505050505050565b600082601f83011262000a8d578081fd5b81516001600160401b0381111562000aa157fe5b62000ab6601f8201601f191660200162000e6a565b81815284602083860101111562000acb578283fd5b62000ade82602083016020870162000e8e565b949350505050565b60006060828403121562000af8578081fd5b604051606081016001600160401b038111828210171562000b1557fe5b80604052508091508251801515811462000b2e57600080fd5b815260208301516001600160781b038116811462000b4b57600080fd5b602082015260408301516001600160801b038116811462000b6b57600080fd5b6040919091015292915050565b6000610160828403121562000b8b578081fd5b62000b9861012062000e6a565b82519091506001600160401b038082111562000bb357600080fd5b62000bc18583860162000a7c565b8352602084015191508082111562000bd857600080fd5b62000be68583860162000a7c565b6020840152604084015191508082111562000c0057600080fd5b5062000c0f84828501620009ef565b604083015250606082015160608201526080820151608082015262000c3760a08301620009e2565b60a082015262000c4a60c08301620009e2565b60c082015262000c5e8360e0840162000ae6565b60e082015262000c726101408301620009e2565b61010082015292915050565b60006020828403121562000c90578081fd5b5051919050565b60006020828403121562000ca9578081fd5b81516001600160401b038082111562000cc0578283fd5b9083019060a0828603121562000cd4578283fd5b60405160a08101818110838211171562000cea57fe5b60405262000cf883620009e2565b815262000d0860208401620009e2565b602082015260408301518281111562000d1f578485fd5b62000d2d8782860162000b78565b604083015250606083015160608201526080830151608082015280935050505092915050565b60006020828403121562000d65578081fd5b815160ff8116811462000d76578182fd5b9392505050565b60006060820185835260206060818501528186518084526080860191508288019350845b8181101562000dc85784516001600160a01b03168352938301939183019160010162000da1565b505084810360408601528551808252908201925081860190845b8181101562000e095782516001600160a01b03168552938301939183019160010162000de2565b509298975050505050505050565b602081016003831062000e2657fe5b91905290565b600060208252825180602084015262000e4d81604085016020870162000e8e565b601f01601f19169190910160400192915050565b90815260200190565b6040518181016001600160401b038111828210171562000e8657fe5b604052919050565b60005b8381101562000eab57818101518382015260200162000e91565b8381111562000ebb576000848401525b50505050565b6001600160a01b03811681146200089357600080fd5b60805160a05160601c60c05160e05161010051610120516101405160601c61016051610180516101a0516101c0516101e05160601c6102005160601c6102205160601c6102405161026051610280516148b86200101b600039806116045280611f035280612ad252806131135250806115ca5280611ea25280612a6f52806131a35250806115905280611e415280612a0c528061326f525080611ec85280612ab152806130f052806131395280613205525080611e675280612a4e52806130b5528061318052806131c9525080611e0652806129eb528061307b528061324d52508061132c52806119b35280611ce8528061208b528061215852806133405250806107a35250806115195250806114f5525080610e365250806110ba52508061173b52508061177d52508061175c525080610e12525080610d9752506148b86000f3fe608060405234801561001057600080fd5b50600436106102745760003560e01c806374f3b009116101515780639d2c110c116100c3578063c0ff1a1511610087578063c0ff1a1514610500578063d505accf14610508578063d5c096c41461051b578063d60ca6031461052e578063dd62ed3e14610536578063f89f27ed1461054957610274565b80639d2c110c146104b7578063a457c2d7146104ca578063a9059cbb146104dd578063aaabadc5146104f0578063abd13afe146104f857610274565b8063851c1bb311610115578063851c1bb31461047157806387ec681714610484578063893d20e8146104975780638d928af81461049f57806395d89b41146104a75780639b02cdde146104af57610274565b806374f3b0091461040f57806376e54a46146104305780637ecebe00146104435780638002df18146104565780638456cb591461046957610274565b806338fff2d0116101ea57806350dd6ed9116101ae57806350dd6ed9146103b057806355c67628146103c35780636028bfd4146103cb578063679aefce146103ec5780636d785a87146103f457806370a08231146103fc57610274565b806338fff2d014610363578063395093511461036b5780633aeae0d31461037e5780633f4ba83a1461039357806344bbdb551461039b57610274565b80631c0de0511161023c5780631c0de051146102f45780631dd746ea1461030b57806323b872dd14610320578063313ce567146103335780633644e5151461034857806338e9922e1461035057610274565b806306fdde0314610279578063095ea7b3146102975780630e608b30146102b757806316c38b3c146102cc57806318160ddd146102df575b600080fd5b610281610551565b60405161028e91906147b0565b60405180910390f35b6102aa6102a53660046142ca565b6105e7565b60405161028e9190614754565b6102ca6102c53660046141a5565b6105fe565b005b6102ca6102da3660046142f5565b6106af565b6102e76106c3565b60405161028e9190614777565b6102fc6106c9565b60405161028e9392919061475f565b6103136106f2565b60405161028e919061471c565b6102aa61032e366004614215565b610701565b61033b610775565b60405161028e919061483c565b6102e761077e565b6102ca61035e366004614603565b610788565b6102e76107a1565b6102aa6103793660046142ca565b6107c5565b610386610800565b60405161028e91906147c3565b6102ca61084b565b6103a3610940565b60405161028e9190614708565b6102ca6103be366004614442565b61094f565b6102e761096d565b6103de6103d936600461430f565b61097e565b60405161028e929190614823565b6102e76109b5565b6103a36109e0565b6102e761040a3660046141a5565b6109ef565b61042261041d36600461430f565b610a0e565b60405161028e92919061472f565b6102ca61043e36600461448f565b610ab1565b6102e76104513660046141a5565b610bd8565b6102ca6104643660046141a5565b610bf3565b6102ca610cd9565b6102e761047f36600461441a565b610d91565b6103de61049236600461430f565b610dea565b6103a3610e10565b6103a3610e34565b610281610e58565b6102e7610eb9565b6102e76104c536600461450d565b610ebf565b6102aa6104d83660046142ca565b61101d565b6102aa6104eb3660046142ca565b61105b565b6103a3611068565b6103a3611072565b6102e7611081565b6102ca610516366004614255565b61108b565b61042261052936600461430f565b6111fb565b6102e761132a565b6102e76105443660046141dd565b61134e565b61031361138b565b60038054604080516020601f60026000196101006001881615020190951694909404938401819004810282018101909252828152606093909290918301828280156105dd5780601f106105b2576101008083540402835291602001916105dd565b820191906000526020600020905b8154815290600101906020018083116105c057829003601f168201915b5050505050905090565b60006105f43384846113ca565b5060015b92915050565b600b5460408051808201909152600e81526d1b9bdd08185d5d1a1bdc9a5e995960921b6020820152906001600160a01b031633146106585760405162461bcd60e51b815260040161064f91906147b0565b60405180910390fd5b50600b80546001600160a01b0319166001600160a01b0383161790556040517fb8fd9afc34c38fcd13b9a3b7646482eb1fddcefb40af2c70609972816eba3208906106a4908390614708565b60405180910390a150565b6106b761142c565b6106c08161145a565b50565b60025490565b60008060006106d66114d6565b1592506106e16114f3565b91506106eb611517565b9050909192565b60606106fc61153b565b905090565b60008061070e853361134e565b9050610732336001600160a01b038716148061072a5750838210155b61019e611641565b61073d85858561164f565b336001600160a01b0386161480159061075857506000198114155b1561076a5761076a85338584036113ca565b506001949350505050565b60055460ff1690565b60006106fc611737565b61079061142c565b6107986117f5565b6106c08161180a565b7f000000000000000000000000000000000000000000000000000000000000000090565b3360008181526001602090815260408083206001600160a01b038716845290915281205490916105f49185906107fb9086611875565b6113ca565b6108086140f7565b5060408051606081018252600a5460ff81161515825261010081046001600160781b03166020830152600160801b90046001600160801b03169181019190915290565b600c546040805180820190915260118152703737ba103830bab9b29036b0b730b3b2b960791b6020820152906001600160a01b0316331461090a5760405162461bcd60e51b81526004018080602001828103825283818151815260200191508051906020019080838360005b838110156108cf5781810151838201526020016108b7565b50505050905090810190601f1680156108fc5780820380516001836020036101000a031916815260200191505b509250505060405180910390fd5b5061091560006106b7565b6040517f215385c8bfc731925ec8068d7baa50f6b6f34417cc7804f7273dc2c0b3db279090600090a1565b600d546001600160a01b031681565b61095761142c565b61095f6117f5565b610969828261188e565b5050565b6008546000906106fc9060c061198d565b60006060610994865161098f61199a565b61199f565b6109a9898989898989896119ac611a70611ad6565b97509795505050505050565b60006106fc6109c26106c3565b6109da6109cd611081565b6109d561199a565b611bf8565b90611c1c565b600b546001600160a01b031681565b6001600160a01b0381166000908152602081905260409020545b919050565b60608088610a38610a1d610e34565b6001600160a01b0316336001600160a01b03161460cd611641565b610a4d610a436107a1565b82146101f4611641565b6000610a5761153b565b9050610a638882611c76565b6000806000610a788e8e8e8e8e8e8a8f6119ac565b925092509250610a888d84611cd7565b610a928285611a70565b610a9c8185611a70565b909550935050505b5097509795505050505050565b600b5460408051808201909152600e81526d1b9bdd08185d5d1a1bdc9a5e995960921b6020820152906001600160a01b03163314610b025760405162461bcd60e51b815260040161064f91906147b0565b50600a5460408051808201909152601081526f1c1bdbdb081a5cc81d5b98d85c1c195960821b60208201529060ff16610b4e5760405162461bcd60e51b815260040161064f91906147b0565b508051600a8054602084015160408086015160ff19909316941515949094176fffffffffffffffffffffffffffffff0019166101006001600160781b0390921691909102176001600160801b03908116600160801b919092160217815590517f2abf5970d7bc1a2b36eaae52dd2cc353edb0337c7284ef8a01973081b4e04424916106a4916147f8565b6001600160a01b031660009081526006602052604090205490565b600c546040805180820190915260118152703737ba103830bab9b29036b0b730b3b2b960791b60208201526001600160a01b0390911690338214610c785760405162461bcd60e51b81526020600482018181528351602484015283519092839260449091019190850190808383600083156108cf5781810151838201526020016108b7565b50600c80546001600160a01b0319166001600160a01b03848116918217909255604080519284168352602083019190915280517f1ffccd1fa96f4fb3415df8048a0fd107344e262d2d246c85105e2a3f8f3e81989281900390910190a15050565b600c546040805180820190915260118152703737ba103830bab9b29036b0b730b3b2b960791b6020820152906001600160a01b03163314610d5b5760405162461bcd60e51b81526020600482018181528351602484015283519092839260449091019190850190808383600083156108cf5781810151838201526020016108b7565b50610d6660016106b7565b6040517f681eace576127d0553b224436a09801fb47d042942cbff59d7d4ff04d8fa03d790600090a1565b604080517f00000000000000000000000000000000000000000000000000000000000000006020808301919091526001600160e01b03198416828401528251602481840301815260449092019092528051910120919050565b60006060610dfb865161098f61199a565b6109a989898989898989611ce1611da1611ad6565b7f000000000000000000000000000000000000000000000000000000000000000090565b7f000000000000000000000000000000000000000000000000000000000000000090565b60048054604080516020601f60026000196101006001881615020190951694909404938401819004810282018101909252828152606093909290918301828280156105dd5780601f106105b2576101008083540402835291602001916105dd565b60095490565b60008360800151610ed1610a1d610e34565b610edc610a436107a1565b6000610eeb8660200151611e02565b90506000610efc8760400151611e02565b9050600087516001811115610f0d57fe5b1415610f9d576000610f228860600151611f32565b90506000818960600151039050610f468960200151610f418387611f53565b611f5f565b60608901829052610f578885611f53565b9750610f638784611f53565b9650610f73896060015185611f53565b60608a01526000610f858a8a8a611f71565b9050610f918185611f9f565b96505050505050611015565b610fa78683611f53565b9550610fb38582611f53565b9450610fc3876060015182611f53565b60608801526000610fd5888888611fab565b9050610fe18184611fd0565b90506000610fee82611fdc565b9050600082820390506110098a60200151610f418388611f53565b50945061101592505050565b509392505050565b60008061102a338561134e565b90508083106110445761103f338560006113ca565b611051565b61105133858584036113ca565b5060019392505050565b60006105f433848461164f565b60006106fc612002565b600c546001600160a01b031681565b60006106fc61207c565b6110998442111560d1611641565b6001600160a01b0380881660008181526006602090815260408083205481517f00000000000000000000000000000000000000000000000000000000000000008185015280830195909552948b166060850152608084018a905260a0840185905260c08085018a90528151808603909101815260e09094019052825192019190912090611125826120af565b9050600060018288888860405160008152602001604052604051808581526020018460ff1681526020018381526020018281526020019450505050506020604051602081039080840390855afa158015611183573d6000803e3d6000fd5b5050604051601f19015191506111c590506001600160a01b038216158015906111bd57508b6001600160a01b0316826001600160a01b0316145b6101f8611641565b6001600160a01b038b1660009081526006602052604090206001850190556111ee8b8b8b6113ca565b5050505050505050505050565b6060808861120a610a1d610e34565b611215610a436107a1565b600061121f61153b565b90506112296106c3565b6112da5760008061123d8d8d8d868b6120fb565b9150915061125661124c6121a2565b83101560cc611641565b61126860006112636121a2565b6121a9565b61127b8b6112746121a2565b84036121a9565b6112858184611da1565b8061128e61199a565b6001600160401b03811180156112a357600080fd5b506040519080825280602002602001820160405280156112cd578160200160208202803683370190505b5095509550505050610aa4565b6112e48882611c76565b60008060006112f98e8e8e8e8e8e8a8f611ce1565b9250925092506113098c846121a9565b6113138285611da1565b61131d8185611a70565b9095509350610aa4915050565b7f000000000000000000000000000000000000000000000000000000000000000090565b6000611358610e34565b6001600160a01b0316826001600160a01b0316141561137a57506000196105f8565b61138483836121b3565b90506105f8565b60606106fc6121de565b8061096981612275565b6001600160401b03811b1992909216911b1790565b60006113c4838311156001611641565b50900390565b6001600160a01b03808416600081815260016020908152604080832094871680845294825291829020859055815185815291517f8c5be1e5ebec7d5bd14f71427d1e84f3dd0314c0f7b2291e5b200ac8c7c3b9259281900390910190a3505050565b60006114436000356001600160e01b031916610d91565b90506106c061145282336122ee565b610191611641565b801561147a5761147561146b6114f3565b4210610193611641565b61148f565b61148f611485611517565b42106101a9611641565b6007805482151560ff19909116811790915560408051918252517f9e3a5e37224532dea67b89face185703738a228a6e8a23dee546960180d3be649181900360200190a150565b60006114e0611517565b4211806106fc57505060075460ff161590565b7f000000000000000000000000000000000000000000000000000000000000000090565b7f000000000000000000000000000000000000000000000000000000000000000090565b6060600061154761199a565b90506000816001600160401b038111801561156157600080fd5b5060405190808252806020026020018201604052801561158b578160200160208202803683370190505b5090507f0000000000000000000000000000000000000000000000000000000000000000816000815181106115bc57fe5b6020026020010181815250507f0000000000000000000000000000000000000000000000000000000000000000816001815181106115f657fe5b6020026020010181815250507f00000000000000000000000000000000000000000000000000000000000000008160028151811061163057fe5b602090810291909101015291505090565b8161096957610969816123f0565b6116666001600160a01b0384161515610198611641565b61167d6001600160a01b0383161515610199611641565b611688838383611ad1565b6001600160a01b0383166000908152602081905260409020546116ae90826101a0612443565b6001600160a01b0380851660009081526020819052604080822093909355908416815220546116dd9082611875565b6001600160a01b038084166000818152602081815260409182902094909455805185815290519193928716927fddf252ad1be2c89b69c2b068fc378daa952ba7f163c4a11628f55a4df523b3ef92918290030190a3505050565b60007f00000000000000000000000000000000000000000000000000000000000000007f00000000000000000000000000000000000000000000000000000000000000007f00000000000000000000000000000000000000000000000000000000000000006117a4612459565b3060405160200180868152602001858152602001848152602001838152602001826001600160a01b031681526020019550505050505060405160208183030381529060405280519060200120905090565b6118086118006114d6565b610192611641565b565b61181d64e8d4a5100082101560cb611641565b61183367016345785d8a000082111560ca611641565b600854611842908260c061139f565b6008556040517fa9ba3ffe0b6c366b81232caab38605a0699ad5398d6cce76f91ee809e322dafc906106a4908390614777565b60008282016118878482101583611641565b9392505050565b60006118986107a1565b905060006118a4610e34565b6001600160a01b031663b05f8e4883866040518363ffffffff1660e01b81526004016118d1929190614799565b60806040518083038186803b1580156118e957600080fd5b505afa1580156118fd573d6000803e3d6000fd5b505050506040513d601f19601f820116820180604052508101906119219190614633565b604051630639cdb560e21b81529094506001600160a01b03851693506318e736d49250611955915085908790600401614780565b600060405180830381600087803b15801561196f57600080fd5b505af1158015611983573d6000803e3d6000fd5b5050505050505050565b1c6001600160401b031690565b600390565b6109698183146067611641565b60006060807f00000000000000000000000000000000000000000000000000000000000000006119da6114d6565b15611a225760006119eb8a8361245d565b90506119f681612531565b611a008a8761255e565b9095509350611a198186611a126106c3565b60006125ab565b60095550611a38565b611a2c898661255e565b60001960095590945092505b604080516003808252608082019092528591859190602082016060803683370190505093509350935050985098509895505050505050565b60005b611a7b61199a565b811015611ad157611ab2838281518110611a9157fe5b6020026020010151838381518110611aa557fe5b6020026020010151612605565b838281518110611abe57fe5b6020908102919091010152600101611a73565b505050565b333014611b94576000306001600160a01b0316600036604051611afa9291906146f8565b6000604051808303816000865af19150503d8060008114611b37576040519150601f19603f3d011682016040523d82523d6000602084013e611b3c565b606091505b505090508060008114611b4b57fe5b60046000803e6000516001600160e01b0319166343adbafb60e01b8114611b76573d6000803e3d6000fd5b506020600460003e604060205260243d03602460403e601c3d016000f35b6000611b9e61153b565b9050611baa8782611c76565b600080611bc18c8c8c8c8c8c898d8d63ffffffff16565b5091509150611bd481848663ffffffff16565b8051601f1982018390526343adbafb603f1983015260200260231982016044820181fd5b6000828202611887841580611c15575083858381611c1257fe5b04145b6003611641565b600081611c2f57611c2f60006004611641565b82611c3c575060006105f8565b670de0b6b3a764000083810290848281611c5257fe5b0414611c6457611c6460006005611641565b828181611c6d57fe5b04949350505050565b60005b611c8161199a565b811015611ad157611cb8838281518110611c9757fe5b6020026020010151838381518110611cab57fe5b6020026020010151612632565b838281518110611cc457fe5b6020908102919091010152600101611c79565b610969828261265b565b60006060807f000000000000000000000000000000000000000000000000000000000000000083611d128a8361245d565b9050611d1d81612531565b611d278a87612712565b600a54919650945060ff1615611d5157611d5185611d448d6109ef565b611d4c6106c3565b612756565b611d658186611d5e6106c3565b60016125ab565b60095560408051600380825260808201909252869186919060208201606080368337019050509450945094505050985098509895505050505050565b60005b611dac61199a565b811015611ad157611de3838281518110611dc257fe5b6020026020010151838381518110611dd657fe5b6020026020010151612868565b838281518110611def57fe5b6020908102919091010152600101611da4565b60007f00000000000000000000000000000000000000000000000000000000000000006001600160a01b0316826001600160a01b03161415611e6557507f0000000000000000000000000000000000000000000000000000000000000000610a09565b7f00000000000000000000000000000000000000000000000000000000000000006001600160a01b0316826001600160a01b03161415611ec657507f0000000000000000000000000000000000000000000000000000000000000000610a09565b7f00000000000000000000000000000000000000000000000000000000000000006001600160a01b0316826001600160a01b03161415611f2757507f0000000000000000000000000000000000000000000000000000000000000000610a09565b610a096101356123f0565b600080611f47611f4061096d565b84906128bf565b905061188783826113b4565b60006118878383612632565b610969611f6b836128fb565b82610969565b6000611f7b6117f5565b6000611f88858585612901565b9050611f96858585846129a0565b95945050505050565b60006118878383612605565b6000611fb56117f5565b6000611fc2858585612901565b9050611f96858585846129b2565b60006118878383612868565b60006105f8611ffb611fec61096d565b670de0b6b3a7640000906113b4565b8390612868565b600061200c610e34565b6001600160a01b031663aaabadc56040518163ffffffff1660e01b815260040160206040518083038186803b15801561204457600080fd5b505afa158015612058573d6000803e3d6000fd5b505050506040513d601f19601f820116820180604052508101906106fc91906141c1565b60006106fc6120896129c4565b7f000000000000000000000000000000000000000000000000000000000000000061245d565b60006120b9611737565b82604051602001808061190160f01b81525060020183815260200182815260200192505050604051602081830303815290604052805190602001209050919050565b600060606121076117f5565b600061211284612b12565b905061212d600082600381111561212557fe5b1460ce611641565b600061213885612b31565b90506121468151600361199f565b6121508187611c76565b600061217c827f000000000000000000000000000000000000000000000000000000000000000061245d565b9050600061218b826003611bf8565b6009929092555093509150505b9550959350505050565b620f424090565b6109698282612be5565b6001600160a01b03918216600090815260016020908152604080832093909416825291909152205490565b60408051600380825260808201909252606091600091906020820184803683370190505090506003670de0b6b3a7640000048160008151811061221d57fe5b60209081029190910101526003670de0b6b3a7640000048160018151811061224157fe5b60209081029190910101526003670de0b6b3a7640000048160028151811061226557fe5b6020908102919091010152905090565b600281511015612284576106c0565b60008160008151811061229357fe5b602002602001015190506000600190505b8251811015611ad15760008382815181106122bb57fe5b602002602001015190506122e4816001600160a01b0316846001600160a01b0316106065611641565b91506001016122a4565b600073ba1ba1ba1ba1ba1ba1ba1ba1ba1ba1ba1ba1ba1b61230d610e10565b6001600160a01b031614158015612328575061232883612c7a565b1561235057612335610e10565b6001600160a01b0316336001600160a01b03161490506105f8565b612358612002565b6001600160a01b0316639be2a8848484306040518463ffffffff1660e01b815260040180848152602001836001600160a01b03168152602001826001600160a01b03168152602001935050505060206040518083038186803b1580156123bd57600080fd5b505afa1580156123d1573d6000803e3d6000fd5b505050506040513d60208110156123e757600080fd5b505190506105f8565b62461bcd60e51b6000908152602060045260076024526642414c23000030600a808404818106603090810160081b95839006959095019082900491820690940160101b939093010160c81b604452606490fd5b60006124528484111583611641565b5050900390565b4690565b60006c01431e0fae6d7217caa00000008360008151811061247a57fe5b6020026020010151111561249557612495600061016a612cac565b6c01431e0fae6d7217caa0000000836001815181106124b057fe5b602002602001015111156124cb576124cb600061016a612cac565b6c01431e0fae6d7217caa0000000836002815181106124e657fe5b6020026020010151111561250157612501600061016a612cac565b6000806000806125118787612cba565b9350935093509350612526848484848a612e09565b979650505050505050565b60008060008061254360095486612e5a565b935093509350935061255784848484612ec3565b5050505050565b60006060600061256d84612b12565b9050600181600381111561257d57fe5b14156125975761258d8585612ee9565b92509250506125a4565b6125a26101506123f0565b505b9250929050565b600081156125dd5760006125c9846125c38888612f1b565b90612f70565b90506125d58682612fcd565b9150506125fd565b60006125ed846109da8888612fe5565b90506125f9868261300f565b9150505b949350505050565b60008161261157600080fd5b670de0b6b3a76400008381029084828161262757fe5b0414611c6457600080fd5b600082820261264c841580611c15575083858381611c1257fe5b670de0b6b3a764000081611c6d565b6126726001600160a01b038316151561019b611641565b61267e82600083611ad1565b6001600160a01b0382166000908152602081905260409020546126a490826101a1612443565b6001600160a01b0383166000908152602081905260409020556002546126ca9082613025565b6002556040805182815290516000916001600160a01b038516917fddf252ad1be2c89b69c2b068fc378daa952ba7f163c4a11628f55a4df523b3ef9181900360200190a35050565b60006060600061272184612b12565b9050600381600381111561273157fe5b141561274b576127418585613033565b90935091506125a2565b6125a26101366123f0565b60408051606081018252600a5460ff81161515825261010081046001600160781b031660208301819052600160801b9091046001600160801b031692820192909252906127a38585612fcd565b11156040518060400160405280601a81526020017f6f7665722061646472657373206c697175696469747920636170000000000000815250906127f95760405162461bcd60e51b815260040161064f91906147b0565b5060408101516001600160801b03166128128584612fcd565b11156040518060400160405280601981526020017f6f76657220676c6f62616c206c69717569646974792063617000000000000000815250906125575760405162461bcd60e51b815260040161064f91906147b0565b60006128778215156004611641565b82612884575060006105f8565b670de0b6b3a7640000838102906128a79085838161289e57fe5b04146005611641565b8260018203816128b357fe5b046001019150506105f8565b60008282026128d9841580611c15575083858381611c1257fe5b806128e85760009150506105f8565b670de0b6b3a764000060001982016128b3565b50600090565b6040805160038082526080820190925260009182919060208201606080368337019050509050838160008151811061293557fe5b602002602001018181525050828160018151811061294f57fe5b60200260200101818152505060008061297087602001518860400151613058565b9150915061297e8282613295565b8360028151811061298b57fe5b6020026020010181815250506125268361333c565b6000611f968484876060015185613376565b6000611f9684848760600151856133d7565b60408051600380825260808201909252606091602082018380368337019050509050612a307f00000000000000000000000000000000000000000000000000000000000000007f0000000000000000000000000000000000000000000000000000000000000000613295565b81600081518110612a3d57fe5b602002602001018181525050612a937f00000000000000000000000000000000000000000000000000000000000000007f0000000000000000000000000000000000000000000000000000000000000000613295565b81600181518110612aa057fe5b602002602001018181525050612af67f00000000000000000000000000000000000000000000000000000000000000007f0000000000000000000000000000000000000000000000000000000000000000613295565b81600281518110612b0357fe5b60200260200101818152505090565b6000818060200190516020811015612b2957600080fd5b505192915050565b6060818060200190516040811015612b4857600080fd5b815160208301805160405192949293830192919084640100000000821115612b6f57600080fd5b908301906020820185811115612b8457600080fd5b8251866020820283011164010000000082111715612ba157600080fd5b82525081516020918201928201910280838360005b83811015612bce578181015183820152602001612bb6565b505050509190910160405250929695505050505050565b612bf160008383611ad1565b600254612bfe9082611875565b6002556001600160a01b038216600090815260208190526040902054612c249082611875565b6001600160a01b0383166000818152602081815260408083209490945583518581529351929391927fddf252ad1be2c89b69c2b068fc378daa952ba7f163c4a11628f55a4df523b3ef9281900390910190a35050565b6000612c8c631c74c91760e11b610d91565b8214806105f85750612ca46350dd6ed960e01b610d91565b909114919050565b816109695761096981613435565b6000808080612cd385612ccd8180613445565b90613445565b670de0b6b3a7640000039350600086600281518110612cee57fe5b602002602001015187600181518110612d0357fe5b602002602001015188600081518110612d1857fe5b602002602001015101019050612d3b86612ccd888461344590919063ffffffff16565b93506000612d7a88600081518110612d4f57fe5b602002602001015189600281518110612d6457fe5b602002602001015161344590919063ffffffff16565b612d9f89600281518110612d8a57fe5b60200260200101518a600181518110612d6457fe5b612dc48a600181518110612daf57fe5b60200260200101518b600081518110612d6457fe5b01019050612dd28188613445565b9350612dfc88600281518110612de457fe5b6020026020010151612ccd8a600181518110612daf57fe5b9250505092959194509250565b600080612e188787878761345c565b92509050612e2a868686868587613501565b91506e01ed09bead87c0378d8e6400000000821115612e5057612e506000610169612cac565b5095945050505050565b600080600080600080600080612e6e6135c5565b93509350935093508360001415612e9357600097508796509094509250612eba915050565b600080612eaa8c8c612ea36106c3565b8989613834565b909a509850929650909450505050505b92959194509250565b8315612ed357612ed382856121a9565b8215612ee357612ee381846121a9565b50505050565b600060606000612ef8846138cd565b90506000612f0e8683612f096106c3565b6138ef565b9196919550909350505050565b6000828202831580612f35575082848281612f3257fe5b04145b612f4557612f4560006003611641565b80612f545760009150506105f8565b670de0b6b3a764000060001982015b0460010191505092915050565b600081612f8357612f8360006004611641565b82612f90575060006105f8565b670de0b6b3a764000083810290848281612fa657fe5b0414612fc157612fc1670de0b6b3a764000085838161289e57fe5b826001820381612f6357fe5b60008282018381101561188757611887600080611641565b6000828202831580612fff575082848281612ffc57fe5b04145b61264c5761264c60006003611641565b6000828211156113c4576113c460006001611641565b600061188783836001612443565b600060606000613042846138cd565b90506000612f0e86836130536106c3565b61398a565b600080826001600160a01b0316846001600160a01b03161115613079579192915b7f00000000000000000000000000000000000000000000000000000000000000006001600160a01b0316846001600160a01b031614156131c7577f00000000000000000000000000000000000000000000000000000000000000006001600160a01b0316836001600160a01b0316141561313757507f000000000000000000000000000000000000000000000000000000000000000090507f00000000000000000000000000000000000000000000000000000000000000006125a4565b7f00000000000000000000000000000000000000000000000000000000000000006001600160a01b0316836001600160a01b03161461317d5761317d6000610162612cac565b507f000000000000000000000000000000000000000000000000000000000000000090507f00000000000000000000000000000000000000000000000000000000000000006125a4565b7f00000000000000000000000000000000000000000000000000000000000000006001600160a01b0316846001600160a01b031614801561323957507f00000000000000000000000000000000000000000000000000000000000000006001600160a01b0316836001600160a01b0316145b61324a5761324a6000610162612cac565b507f0000000000000000000000000000000000000000000000000000000000000000937f00000000000000000000000000000000000000000000000000000000000000009350915050565b60008060006132a2610e34565b6001600160a01b031663b05f8e486132b86107a1565b876040518363ffffffff1660e01b81526004016132d6929190614799565b60806040518083038186803b1580156132ee57600080fd5b505afa158015613302573d6000803e3d6000fd5b505050506040513d601f19601f820116820180604052508101906133269190614633565b505081810194509092509050611f968385612fe5565b60007f00000000000000000000000000000000000000000000000000000000000000008161336a848361245d565b90506125fd8183612fe5565b60008061338b83670de0b6b3a7640002613a25565b8601905060006133a384670de0b6b3a763ffff613445565b860190506133be6133b48387612fcd565b6109da8388612fe5565b92505050838111156125fd576125fd6000610165612cac565b6000838311156133ee576133ee6000610165612cac565b600061340283670de0b6b3a7640002613a25565b86019050600061341a84670de0b6b3a763ffff613445565b8601905061252661342b828761300f565b6125c38488612f1b565b6106c0816223aca960e91b613a39565b6000670de0b6b3a76400008383025b049392505050565b6000808061346d8760038702613a25565b6134778780613a25565b01905060006134966003890261348e846005613a9a565b890190613c28565b9050670de0b6b3a76400008890036134df6706f05b59d3b200008210156134c557671bc16d674ec800006134cf565b6714d1120d7b1600005b83906001600160401b0316613a25565b93506134f38267120a871cc0020000613a25565b945050505094509492505050565b600080805b60ff8110156135ad576000806135208b8b8b8b8b8b613c6a565b915091506001821161353857859450505050506135bb565b600583108015906135465750805b1561355757859450505050506135bb565b6005831080159061356b5750600884048210155b1561357c57859450505050506135bb565b81935080156135965761358f8683612fcd565b95506135a3565b6135a0868361300f565b95505b5050600101613506565b506135b9610160613435565b505b9695505050505050565b600d5460405163bd02d0f560e01b81526000918291829182916001600160a01b039091169063bd02d0f590613617907550524f544f434f4c5f535741505f4645455f5045524360501b90600401614777565b60206040518083038186803b15801561362f57600080fd5b505afa158015613643573d6000803e3d6000fd5b505050506040513d601f19601f82011682018060405250810190613667919061461b565b600d5460405163bd02d0f560e01b81526001600160a01b039091169063bd02d0f5906136b7907f50524f544f434f4c5f4645455f4759524f5f504f5254494f4e0000000000000090600401614777565b60206040518083038186803b1580156136cf57600080fd5b505afa1580156136e3573d6000803e3d6000fd5b505050506040513d601f19601f82011682018060405250810190613707919061461b565b600d546040516321f8a72160e01b81526001600160a01b03909116906321f8a72190613747906c4759524f5f545245415355525960981b90600401614777565b60206040518083038186803b15801561375f57600080fd5b505afa158015613773573d6000803e3d6000fd5b505050506040513d601f19601f8201168201806040525081019061379791906141c1565b600d546040516321f8a72160e01b81526001600160a01b03909116906321f8a721906137d6906b42414c5f545245415355525960a01b90600401614777565b60206040518083038186803b1580156137ee57600080fd5b505afa158015613802573d6000803e3d6000fd5b505050506040513d601f19601f8201168201806040525081019061382691906141c1565b935093509350935090919293565b60008086861161384957506000905080612198565b60006138698561386361385c8a8c61300f565b8990612fe5565b90612fe5565b9050600061388161387a898b61300f565b8790612fe5565b9050600061388f898361300f565b9050600061389d8483611c1c565b905060006138ab8883612fe5565b905060006138b9838361300f565b919d919c50909a5050505050505050505050565b60008180602001905160408110156138e457600080fd5b506020015192915050565b606083516001600160401b038111801561390857600080fd5b50604051908082528060200260200182016040528015613932578160200160208202803683370190505b50905060005b84518110156110155761396b836109da8688858151811061395557fe5b6020026020010151612fe590919063ffffffff16565b82828151811061397757fe5b6020908102919091010152600101613938565b606083516001600160401b03811180156139a357600080fd5b506040519080825280602002602001820160405280156139cd578160200160208202803683370190505b50905060005b845181101561101557613a06836125c3868885815181106139f057fe5b6020026020010151612f1b90919063ffffffff16565b828281518110613a1257fe5b60209081029190910101526001016139d3565b600082820280612f545760009150506105f8565b62461bcd60e51b600090815260206004526007602452600a808404818106603090810160081b958390069590950190829004918206850160101b01602363ffffff0060e086901c160160181b0190930160c81b60445260e882901c90606490fd5b600082613aa9575060006105f8565b6000613ab484613df3565b9050600281670de0b6b3a7640000860281613acb57fe5b04820181613ad557fe5b049050600281670de0b6b3a7640000860281613aed57fe5b04820181613af757fe5b049050600281670de0b6b3a7640000860281613b0f57fe5b04820181613b1957fe5b049050600281670de0b6b3a7640000860281613b3157fe5b04820181613b3b57fe5b049050600281670de0b6b3a7640000860281613b5357fe5b04820181613b5d57fe5b049050600281670de0b6b3a7640000860281613b7557fe5b04820181613b7f57fe5b049050600281670de0b6b3a7640000860281613b9757fe5b04820181613ba157fe5b0490506000613bb08280612fe5565b9050613bc6613bbf8386612f1b565b8690612fcd565b8111158015613be85750613be4613bdd8386612f1b565b869061300f565b8110155b611015576040805162461bcd60e51b815260206004820152600c60248201526b17dcdc5c9d0811905253115160a21b604482015290519081900360640190fd5b600081613c3b57613c3b60006004611641565b82613c48575060006105f8565b816001670de0b6b3a764000085020381613c5e57fe5b04600101905092915050565b6000806e01ed09bead87c0378d8e6400000000831115613c9157613c916000610169612cac565b83831015613ca657613ca6600061016b612cac565b6000613cb28480613445565b90506000613cc36003860286612fe5565b9050613cd587612ccd81818582613445565b900388613ce2868c613445565b600202909103036000806cfc6f7c40458122964d000000008711613d6057613d0a8488613445565b9150613d1c89612ccd81818682613445565b90910390613d2a8284613fc5565b9150613d36848d613445565b9050613d4e83613d46898e613445565b830190613fc5565b9050613d5a8a84613fc5565b01613dcb565b613d6a8488613feb565b9150613d8289613d7c81818682613feb565b90613feb565b90910390613d908284614016565b9150613d9c848d613feb565b9050613da88b88613445565b01613dbd818464e8d4a51000620f4240614024565b9050613dc98a84613fc5565b015b81811015945084613dde57808203613de2565b8181035b955050505050965096945050505050565b6000670de0b6b3a76400008210613e2057670de0b6b3a7640000613e18818404614061565b1b9050610a09565b600a8211613e33575063bc7c871c610a09565b60648211613e4757506402540be400610a09565b6103e88211613e5c575064075cdd4719610a09565b6127108211613e71575064174876e800610a09565b620186a08211613e8757506449a0a4c700610a09565b620f42408211613e9d575064e8d4a51000610a09565b629896808211613eb457506502e0466fc608610a09565b6305f5e1008211613ecc57506509184e72a000610a09565b633b9aca008211613ee45750651cc2c05dbc53610a09565b6402540be4008211613efd5750655af3107a4000610a09565b64174876e8008211613f17575066011f9b83a95b45610a09565b64e8d4a510008211613f31575066038d7ea4c68000610a09565b6509184e72a0008211613f4c5750660b3c13249d90bb610a09565b655af3107a40008211613f675750662386f26fc10000610a09565b66038d7ea4c680008211613f835750667058bf6e27a751610a09565b662386f26fc100008211613fa0575067016345785d8a0000610a09565b67016345785d8a00008211613fbe5750670463777a4d8c892d610a09565b5080610a09565b600081613fd857613fd860006004611641565b81670de0b6b3a764000084028161345457fe5b6000614001670de0b6b3a7640000840683613445565b82670de0b6b3a7640000850402019392505050565b60006118878383633b9aca00805b6000836140375761403760006004611641565b600082600186038161404557fe5b046001019050808487028161405657fe5b049695505050505050565b6000600160801b82106140795760809190911c906040015b6801000000000000000082106140945760409190911c906020015b64010000000082106140ab5760209190911c906010015b6201000082106140c05760109190911c906008015b61010082106140d45760089190911c906004015b601082106140e75760049190911c906002015b60048210610a0957600101919050565b604080516060810182526000808252602082018190529181019190915290565b8035610a098161486d565b80358015158114610a0957600080fd5b600082601f830112614142578081fd5b81356001600160401b0381111561415557fe5b614168601f8201601f191660200161484a565b81815284602083860101111561417c578283fd5b816020850160208301379081016020019190915292915050565b803560028110610a0957600080fd5b6000602082840312156141b6578081fd5b81356118878161486d565b6000602082840312156141d2578081fd5b81516118878161486d565b600080604083850312156141ef578081fd5b82356141fa8161486d565b9150602083013561420a8161486d565b809150509250929050565b600080600060608486031215614229578081fd5b83356142348161486d565b925060208401356142448161486d565b929592945050506040919091013590565b600080600080600080600060e0888a03121561426f578283fd5b873561427a8161486d565b9650602088013561428a8161486d565b95506040880135945060608801359350608088013560ff811681146142ad578384fd5b9699959850939692959460a0840135945060c09093013592915050565b600080604083850312156142dc578182fd5b82356142e78161486d565b946020939093013593505050565b600060208284031215614306578081fd5b61188782614122565b600080600080600080600060e0888a031215614329578081fd5b87359650602088013561433b8161486d565b9550604088013561434b8161486d565b945060608801356001600160401b0380821115614366578283fd5b818a0191508a601f830112614379578283fd5b81358181111561438557fe5b602081026143956020820161484a565b80838252602082019150602086018f60208589010111156143b4578788fd5b8796505b848710156143d7578035835260019690960195602092830192016143b8565b50985050505060808a0135945060a08a0135935060c08a01359150808211156143fe578283fd5b5061440b8a828b01614132565b91505092959891949750929550565b60006020828403121561442b578081fd5b81356001600160e01b031981168114611887578182fd5b60008060408385031215614454578182fd5b823561445f8161486d565b915060208301356001600160401b03811115614479578182fd5b61448585828601614132565b9150509250929050565b6000606082840312156144a0578081fd5b604051606081018181106001600160401b03821117156144bc57fe5b6040526144c883614122565b815260208301356001600160781b03811681146144e3578283fd5b602082015260408301356001600160801b0381168114614501578283fd5b60408201529392505050565b600080600060608486031215614521578081fd5b83356001600160401b0380821115614537578283fd5b818601915061012080838903121561454d578384fd5b6145568161484a565b905061456183614196565b815261456f60208401614117565b602082015261458060408401614117565b6040820152606083013560608201526080830135608082015260a083013560a08201526145af60c08401614117565b60c08201526145c060e08401614117565b60e082015261010080840135838111156145d8578586fd5b6145e48a828701614132565b9183019190915250976020870135975060409096013595945050505050565b600060208284031215614614578081fd5b5035919050565b60006020828403121561462c578081fd5b5051919050565b60008060008060808587031215614648578182fd5b84519350602085015192506040850151915060608501516146688161486d565b939692955090935050565b6000815180845260208085019450808401835b838110156146a257815187529582019590820190600101614686565b509495945050505050565b60008151808452815b818110156146d2576020818501810151868301820152016146b6565b818111156146e35782602083870101525b50601f01601f19169290920160200192915050565b6000828483379101908152919050565b6001600160a01b0391909116815260200190565b6000602082526118876020830184614673565b6000604082526147426040830185614673565b8281036020840152611f968185614673565b901515815260200190565b92151583526020830191909152604082015260600190565b90815260200190565b6000838252604060208301526125fd60408301846146ad565b9182526001600160a01b0316602082015260400190565b60006020825261188760208301846146ad565b8151151581526020808301516001600160781b0316908201526040918201516001600160801b03169181019190915260600190565b905460ff811615158252600881901c6001600160781b0316602083015260801c604082015260600190565b6000838252604060208301526125fd6040830184614673565b60ff91909116815260200190565b6040518181016001600160401b038111828210171561486557fe5b604052919050565b6001600160a01b03811681146106c057600080fdfea26469706673582212203aea3ffdcd02b63a31fe61ecceb0923b4848abdac7be419114b7f1d325ba224864736f6c63430007060033","bytecodeSha1":"889ff9cb62709723f4d8299949b710f314360a61","compiler":{"evm_version":"berlin","optimizer":{"enabled":true,"runs":200},"version":"0.7.6+commit.7338295f"},"contractName":"Gyro3CLPPoolFactory","language":"Solidity","natspec":{"kind":"dev","methods":{"create((string,string,address[],uint256,uint256,address,address,(bool,uint120,uint128),address))":{"details":"Deploys a new `Gyro3CLPPool`."},"getCreationCode()":{"details":"Returns the creation code of the contract this factory creates."},"getCreationCodeContracts()":{"details":"Returns the two addresses where the creation code of the contract crated by this factory is stored."},"getPauseConfiguration()":{"details":"Returns the current `TemporarilyPausable` configuration that will be applied to Pools created by this factory. `pauseWindowDuration` will decrease over time until it reaches zero, at which point both it and `bufferPeriodDuration` will be zero forever, meaning deployed Pools will not be pausable."},"getVault()":{"details":"Returns the Vault's address."},"isPoolFromFactory(address)":{"details":"Returns true if `pool` was created by this factory."}},"version":1},"opcodes":"PUSH1 0x80 PUSH1 0x40 MSTORE CALLVALUE DUP1 ISZERO PUSH2 0x10 JUMPI PUSH1 0x0 DUP1 REVERT JUMPDEST POP PUSH1 0x4 CALLDATASIZE LT PUSH2 0x92 JUMPI PUSH1 0x0 CALLDATALOAD PUSH1 0xE0 SHR DUP1 PUSH4 0x2DA47C40 GT PUSH2 0x66 JUMPI DUP1 PUSH4 0x2DA47C40 EQ PUSH2 0xF3 JUMPI DUP1 PUSH4 0x45BE0BD4 EQ PUSH2 0x109 JUMPI DUP1 PUSH4 0x6634B753 EQ PUSH2 0x11E JUMPI DUP1 PUSH4 0x8D928AF8 EQ PUSH2 0x13E JUMPI DUP1 PUSH4 0xD1464686 EQ PUSH2 0x146 JUMPI PUSH2 0x92 JUMP JUMPDEST DUP1 PUSH3 0xC194DB EQ PUSH2 0x97 JUMPI DUP1 PUSH4 0xBC7B4C4 EQ PUSH2 0xB5 JUMPI DUP1 PUSH4 0x174481FA EQ PUSH2 0xCA JUMPI DUP1 PUSH4 0x286F6CF0 EQ PUSH2 0xE0 JUMPI JUMPDEST PUSH1 0x0 DUP1 REVERT JUMPDEST PUSH2 0x9F PUSH2 0x14E JUMP JUMPDEST PUSH1 0x40 MLOAD PUSH2 0xAC SWAP2 SWAP1 PUSH2 0x941 JUMP JUMPDEST PUSH1 0x40 MLOAD DUP1 SWAP2 SUB SWAP1 RETURN JUMPDEST PUSH2 0xBD PUSH2 0x16D JUMP JUMPDEST PUSH1 0x40 MLOAD PUSH2 0xAC SWAP2 SWAP1 PUSH2 0x908 JUMP JUMPDEST PUSH2 0xD2 PUSH2 0x191 JUMP JUMPDEST PUSH1 0x40 MLOAD PUSH2 0xAC SWAP3 SWAP2 SWAP1 PUSH2 0x91C JUMP JUMPDEST PUSH2 0xBD PUSH2 0xEE CALLDATASIZE PUSH1 0x4 PUSH2 0x732 JUMP JUMPDEST PUSH2 0x1D7 JUMP JUMPDEST PUSH2 0xFB PUSH2 0x273 JUMP JUMPDEST PUSH1 0x40 MLOAD PUSH2 0xAC SWAP3 SWAP2 SWAP1 PUSH2 0xA6E JUMP JUMPDEST PUSH2 0x111 PUSH2 0x2DD JUMP JUMPDEST PUSH1 0x40 MLOAD PUSH2 0xAC SWAP2 SWAP1 PUSH2 0xA65 JUMP JUMPDEST PUSH2 0x131 PUSH2 0x12C CALLDATASIZE PUSH1 0x4 PUSH2 0x70F JUMP JUMPDEST PUSH2 0x2E4 JUMP JUMPDEST PUSH1 0x40 MLOAD PUSH2 0xAC SWAP2 SWAP1 PUSH2 0x936 JUMP JUMPDEST PUSH2 0xBD PUSH2 0x302 JUMP JUMPDEST PUSH2 0x111 PUSH2 0x326 JUMP JUMPDEST PUSH1 0x60 PUSH2 0x168 PUSH1 0x40 MLOAD DUP1 PUSH1 0x20 ADD PUSH1 0x40 MSTORE DUP1 PUSH1 0x0 DUP2 MSTORE POP PUSH2 0x37F JUMP JUMPDEST SWAP1 POP SWAP1 JUMP JUMPDEST PUSH32 0x0 DUP2 JUMP JUMPDEST PUSH32 0x0 PUSH32 0x0 SWAP1 SWAP2 JUMP JUMPDEST PUSH1 0x0 DUP1 PUSH1 0x40 MLOAD DUP1 PUSH1 0xA0 ADD PUSH1 0x40 MSTORE DUP1 PUSH2 0x1ED PUSH2 0x302 JUMP JUMPDEST PUSH1 0x1 PUSH1 0x1 PUSH1 0xA0 SHL SUB AND DUP2 MSTORE PUSH1 0x20 ADD PUSH32 0x0 PUSH1 0x1 PUSH1 0x1 PUSH1 0xA0 SHL SUB AND DUP2 MSTORE PUSH1 0x20 ADD DUP5 DUP2 MSTORE PUSH1 0x20 ADD PUSH3 0x76A700 DUP2 MSTORE PUSH1 0x20 ADD PUSH3 0x278D00 DUP2 MSTORE POP SWAP1 POP PUSH2 0x26A DUP2 PUSH1 0x40 MLOAD PUSH1 0x20 ADD PUSH2 0x256 SWAP2 SWAP1 PUSH2 0x954 JUMP JUMPDEST PUSH1 0x40 MLOAD PUSH1 0x20 DUP2 DUP4 SUB SUB DUP2 MSTORE SWAP1 PUSH1 0x40 MSTORE PUSH2 0x458 JUMP JUMPDEST SWAP2 POP POP JUMPDEST SWAP2 SWAP1 POP JUMP JUMPDEST PUSH1 0x0 DUP1 TIMESTAMP PUSH32 0x0 DUP2 LT ISZERO PUSH2 0x2CF JUMPI DUP1 PUSH32 0x0 SUB SWAP3 POP PUSH3 0x278D00 SWAP2 POP PUSH2 0x2D8 JUMP JUMPDEST PUSH1 0x0 SWAP3 POP PUSH1 0x0 SWAP2 POP JUMPDEST POP SWAP1 SWAP2 JUMP JUMPDEST PUSH3 0x76A700 DUP2 JUMP JUMPDEST PUSH1 0x1 PUSH1 0x1 PUSH1 0xA0 SHL SUB AND PUSH1 0x0 SWAP1 DUP2 MSTORE PUSH1 0x20 DUP2 SWAP1 MSTORE PUSH1 0x40 SWAP1 KECCAK256 SLOAD PUSH1 0xFF AND SWAP1 JUMP JUMPDEST PUSH32 0x0 SWAP1 JUMP JUMPDEST PUSH3 0x278D00 DUP2 JUMP JUMPDEST DUP1 MLOAD PUSH32 0x602038038060206000396000F3FEFEFEFEFEFEFEFEFEFEFEFEFEFEFEFEFEFEFE DUP1 DUP4 MSTORE PUSH1 0x0 SWAP2 PUSH1 0x20 DUP2 ADD DUP5 DUP5 CREATE SWAP1 DUP5 MSTORE SWAP2 POP PUSH2 0x379 PUSH1 0x1 PUSH1 0x1 PUSH1 0xA0 SHL SUB DUP4 AND ISZERO ISZERO PUSH2 0x1AC PUSH2 0x4B8 JUMP JUMPDEST POP SWAP2 SWAP1 POP JUMP JUMPDEST DUP1 MLOAD PUSH1 0x40 DUP1 MLOAD PUSH32 0x0 PUSH32 0x0 DUP2 DUP2 ADD DUP6 DUP2 ADD DUP5 DUP2 ADD PUSH1 0x20 SWAP1 DUP2 ADD SWAP1 SWAP7 MSTORE DUP1 DUP6 MSTORE SWAP4 SWAP6 PUSH32 0x0 SWAP6 SWAP3 SWAP5 PUSH32 0x0 SWAP5 SWAP4 DUP9 ADD DUP7 PUSH1 0x0 DUP3 DUP11 EXTCODECOPY DUP5 PUSH1 0x0 DUP9 DUP4 ADD DUP9 EXTCODECOPY POP PUSH1 0x20 DUP10 DUP2 ADD SWAP1 DUP10 DUP6 ADD ADD PUSH2 0x44A DUP2 DUP4 DUP7 PUSH2 0x4CA JUMP JUMPDEST POP POP POP POP POP POP POP POP POP SWAP2 SWAP1 POP JUMP JUMPDEST PUSH1 0x0 DUP1 PUSH2 0x464 DUP4 PUSH2 0x508 JUMP JUMPDEST PUSH1 0x1 PUSH1 0x1 PUSH1 0xA0 SHL SUB DUP2 AND PUSH1 0x0 DUP2 DUP2 MSTORE PUSH1 0x20 DUP2 SWAP1 MSTORE PUSH1 0x40 DUP1 DUP3 KECCAK256 DUP1 SLOAD PUSH1 0xFF NOT AND PUSH1 0x1 OR SWAP1 SSTORE MLOAD SWAP3 SWAP4 POP SWAP1 SWAP2 PUSH32 0x83A48FBCFC991335314E74D0496AAB6A1987E992DDC85DDDBCC4D6DD6EF2E9FC SWAP2 SWAP1 LOG2 SWAP3 SWAP2 POP POP JUMP JUMPDEST DUP2 PUSH2 0x4C6 JUMPI PUSH2 0x4C6 DUP2 PUSH2 0x53B JUMP JUMPDEST POP POP JUMP JUMPDEST JUMPDEST PUSH1 0x20 DUP2 LT PUSH2 0x4EA JUMPI DUP2 MLOAD DUP4 MSTORE PUSH1 0x20 SWAP3 DUP4 ADD SWAP3 SWAP1 SWAP2 ADD SWAP1 PUSH1 0x1F NOT ADD PUSH2 0x4CB JUMP JUMPDEST SWAP1 MLOAD DUP3 MLOAD PUSH1 0x20 SWAP3 SWAP1 SWAP3 SUB PUSH2 0x100 EXP PUSH1 0x0 NOT ADD DUP1 NOT SWAP1 SWAP2 AND SWAP2 AND OR SWAP1 MSTORE JUMP JUMPDEST PUSH1 0x0 DUP1 PUSH2 0x514 DUP4 PUSH2 0x37F JUMP JUMPDEST SWAP1 POP PUSH1 0x0 DUP2 MLOAD PUSH1 0x20 DUP4 ADD PUSH1 0x0 CREATE SWAP1 POP PUSH1 0x1 PUSH1 0x1 PUSH1 0xA0 SHL SUB DUP2 AND PUSH2 0x26A JUMPI RETURNDATASIZE PUSH1 0x0 DUP1 RETURNDATACOPY RETURNDATASIZE PUSH1 0x0 REVERT JUMPDEST PUSH3 0x461BCD PUSH1 0xE5 SHL PUSH1 0x0 SWAP1 DUP2 MSTORE PUSH1 0x20 PUSH1 0x4 MSTORE PUSH1 0x7 PUSH1 0x24 MSTORE PUSH7 0x42414C23000030 PUSH1 0xA DUP1 DUP5 DIV DUP2 DUP2 MOD PUSH1 0x30 SWAP1 DUP2 ADD PUSH1 0x8 SHL SWAP6 DUP4 SWAP1 MOD SWAP6 SWAP1 SWAP6 ADD SWAP1 DUP3 SWAP1 DIV SWAP2 DUP3 MOD SWAP1 SWAP5 ADD PUSH1 0x10 SHL SWAP4 SWAP1 SWAP4 ADD ADD PUSH1 0xC8 SHL PUSH1 0x44 MSTORE PUSH1 0x64 SWAP1 REVERT JUMPDEST DUP1 CALLDATALOAD PUSH2 0x26E DUP2 PUSH2 0xAA0 JUMP JUMPDEST PUSH1 0x0 DUP3 PUSH1 0x1F DUP4 ADD SLT PUSH2 0x5A9 JUMPI DUP1 DUP2 REVERT JUMPDEST DUP2 CALLDATALOAD PUSH1 0x20 PUSH8 0xFFFFFFFFFFFFFFFF DUP3 GT ISZERO PUSH2 0x5BF JUMPI INVALID JUMPDEST DUP1 DUP3 MUL PUSH2 0x5CD DUP3 DUP3 ADD PUSH2 0xA7C JUMP JUMPDEST DUP4 DUP2 MSTORE DUP3 DUP2 ADD SWAP1 DUP7 DUP5 ADD DUP4 DUP9 ADD DUP6 ADD DUP10 LT ISZERO PUSH2 0x5E7 JUMPI DUP7 DUP8 REVERT JUMPDEST DUP7 SWAP4 POP JUMPDEST DUP6 DUP5 LT ISZERO PUSH2 0x612 JUMPI DUP1 CALLDATALOAD PUSH2 0x5FE DUP2 PUSH2 0xAA0 JUMP JUMPDEST DUP4 MSTORE PUSH1 0x1 SWAP4 SWAP1 SWAP4 ADD SWAP3 SWAP2 DUP5 ADD SWAP2 DUP5 ADD PUSH2 0x5EB JUMP JUMPDEST POP SWAP8 SWAP7 POP POP POP POP POP POP POP JUMP JUMPDEST PUSH1 0x0 DUP3 PUSH1 0x1F DUP4 ADD SLT PUSH2 0x62E JUMPI DUP1 DUP2 REVERT JUMPDEST DUP2 CALLDATALOAD PUSH8 0xFFFFFFFFFFFFFFFF DUP2 GT ISZERO PUSH2 0x642 JUMPI INVALID JUMPDEST PUSH2 0x655 PUSH1 0x1F DUP3 ADD PUSH1 0x1F NOT AND PUSH1 0x20 ADD PUSH2 0xA7C JUMP JUMPDEST DUP2 DUP2 MSTORE DUP5 PUSH1 0x20 DUP4 DUP7 ADD ADD GT ISZERO PUSH2 0x669 JUMPI DUP3 DUP4 REVERT JUMPDEST DUP2 PUSH1 0x20 DUP6 ADD PUSH1 0x20 DUP4 ADD CALLDATACOPY SWAP1 DUP2 ADD PUSH1 0x20 ADD SWAP2 SWAP1 SWAP2 MSTORE SWAP3 SWAP2 POP POP JUMP JUMPDEST PUSH1 0x0 PUSH1 0x60 DUP3 DUP5 SUB SLT ISZERO PUSH2 0x694 JUMPI DUP1 DUP2 REVERT JUMPDEST PUSH1 0x40 MLOAD PUSH1 0x60 DUP2 ADD DUP2 DUP2 LT PUSH8 0xFFFFFFFFFFFFFFFF DUP3 GT OR ISZERO PUSH2 0x6B1 JUMPI INVALID JUMPDEST PUSH1 0x40 MSTORE SWAP1 POP DUP1 DUP3 CALLDATALOAD DUP1 ISZERO ISZERO DUP2 EQ PUSH2 0x6C7 JUMPI PUSH1 0x0 DUP1 REVERT JUMPDEST DUP2 MSTORE PUSH1 0x20 DUP4 ADD CALLDATALOAD PUSH1 0x1 PUSH1 0x1 PUSH1 0x78 SHL SUB DUP2 AND DUP2 EQ PUSH2 0x6E3 JUMPI PUSH1 0x0 DUP1 REVERT JUMPDEST PUSH1 0x20 DUP3 ADD MSTORE PUSH1 0x40 DUP4 ADD CALLDATALOAD PUSH1 0x1 PUSH1 0x1 PUSH1 0x80 SHL SUB DUP2 AND DUP2 EQ PUSH2 0x702 JUMPI PUSH1 0x0 DUP1 REVERT JUMPDEST PUSH1 0x40 SWAP2 SWAP1 SWAP2 ADD MSTORE SWAP3 SWAP2 POP POP JUMP JUMPDEST PUSH1 0x0 PUSH1 0x20 DUP3 DUP5 SUB SLT ISZERO PUSH2 0x720 JUMPI DUP1 DUP2 REVERT JUMPDEST DUP2 CALLDATALOAD PUSH2 0x72B DUP2 PUSH2 0xAA0 JUMP JUMPDEST SWAP4 SWAP3 POP POP POP JUMP JUMPDEST PUSH1 0x0 PUSH1 0x20 DUP3 DUP5 SUB SLT ISZERO PUSH2 0x743 JUMPI DUP1 DUP2 REVERT JUMPDEST DUP2 CALLDATALOAD PUSH8 0xFFFFFFFFFFFFFFFF DUP1 DUP3 GT ISZERO PUSH2 0x75A JUMPI DUP3 DUP4 REVERT JUMPDEST SWAP1 DUP4 ADD SWAP1 PUSH2 0x160 DUP3 DUP7 SUB SLT ISZERO PUSH2 0x76E JUMPI DUP3 DUP4 REVERT JUMPDEST PUSH2 0x779 PUSH2 0x120 PUSH2 0xA7C JUMP JUMPDEST DUP3 CALLDATALOAD DUP3 DUP2 GT ISZERO PUSH2 0x787 JUMPI DUP5 DUP6 REVERT JUMPDEST PUSH2 0x793 DUP8 DUP3 DUP7 ADD PUSH2 0x61E JUMP JUMPDEST DUP3 MSTORE POP PUSH1 0x20 DUP4 ADD CALLDATALOAD DUP3 DUP2 GT ISZERO PUSH2 0x7A7 JUMPI DUP5 DUP6 REVERT JUMPDEST PUSH2 0x7B3 DUP8 DUP3 DUP7 ADD PUSH2 0x61E JUMP JUMPDEST PUSH1 0x20 DUP4 ADD MSTORE POP PUSH1 0x40 DUP4 ADD CALLDATALOAD DUP3 DUP2 GT ISZERO PUSH2 0x7CA JUMPI DUP5 DUP6 REVERT JUMPDEST PUSH2 0x7D6 DUP8 DUP3 DUP7 ADD PUSH2 0x599 JUMP JUMPDEST PUSH1 0x40 DUP4 ADD MSTORE POP PUSH1 0x60 DUP4 ADD CALLDATALOAD PUSH1 0x60 DUP3 ADD MSTORE PUSH1 0x80 DUP4 ADD CALLDATALOAD PUSH1 0x80 DUP3 ADD MSTORE PUSH2 0x7FC PUSH1 0xA0 DUP5 ADD PUSH2 0x58E JUMP JUMPDEST PUSH1 0xA0 DUP3 ADD MSTORE PUSH2 0x80D PUSH1 0xC0 DUP5 ADD PUSH2 0x58E JUMP JUMPDEST PUSH1 0xC0 DUP3 ADD MSTORE PUSH2 0x81F DUP7 PUSH1 0xE0 DUP6 ADD PUSH2 0x683 JUMP JUMPDEST PUSH1 0xE0 DUP3 ADD MSTORE PUSH2 0x831 PUSH2 0x140 DUP5 ADD PUSH2 0x58E JUMP JUMPDEST PUSH2 0x100 DUP3 ADD MSTORE SWAP6 SWAP5 POP POP POP POP POP JUMP JUMPDEST PUSH1 0x1 PUSH1 0x1 PUSH1 0xA0 SHL SUB AND SWAP1 MSTORE JUMP JUMPDEST PUSH1 0x0 DUP2 MLOAD DUP1 DUP5 MSTORE PUSH1 0x20 DUP1 DUP6 ADD SWAP5 POP DUP1 DUP5 ADD DUP4 JUMPDEST DUP4 DUP2 LT ISZERO PUSH2 0x885 JUMPI DUP2 MLOAD PUSH1 0x1 PUSH1 0x1 PUSH1 0xA0 SHL SUB AND DUP8 MSTORE SWAP6 DUP3 ADD SWAP6 SWAP1 DUP3 ADD SWAP1 PUSH1 0x1 ADD PUSH2 0x860 JUMP JUMPDEST POP SWAP5 SWAP6 SWAP5 POP POP POP POP POP JUMP JUMPDEST PUSH1 0x0 DUP2 MLOAD DUP1 DUP5 MSTORE DUP2 JUMPDEST DUP2 DUP2 LT ISZERO PUSH2 0x8B5 JUMPI PUSH1 0x20 DUP2 DUP6 ADD DUP2 ADD MLOAD DUP7 DUP4 ADD DUP3 ADD MSTORE ADD PUSH2 0x899 JUMP JUMPDEST DUP2 DUP2 GT ISZERO PUSH2 0x8C6 JUMPI DUP3 PUSH1 0x20 DUP4 DUP8 ADD ADD MSTORE JUMPDEST POP PUSH1 0x1F ADD PUSH1 0x1F NOT AND SWAP3 SWAP1 SWAP3 ADD PUSH1 0x20 ADD SWAP3 SWAP2 POP POP JUMP JUMPDEST DUP1 MLOAD ISZERO ISZERO DUP3 MSTORE PUSH1 0x20 DUP1 DUP3 ADD MLOAD PUSH1 0x1 PUSH1 0x1 PUSH1 0x78 SHL SUB AND SWAP1 DUP4 ADD MSTORE PUSH1 0x40 SWAP1 DUP2 ADD MLOAD PUSH1 0x1 PUSH1 0x1 PUSH1 0x80 SHL SUB AND SWAP2 ADD MSTORE JUMP JUMPDEST PUSH1 0x1 PUSH1 0x1 PUSH1 0xA0 SHL SUB SWAP2 SWAP1 SWAP2 AND DUP2 MSTORE PUSH1 0x20 ADD SWAP1 JUMP JUMPDEST PUSH1 0x1 PUSH1 0x1 PUSH1 0xA0 SHL SUB SWAP3 DUP4 AND DUP2 MSTORE SWAP2 AND PUSH1 0x20 DUP3 ADD MSTORE PUSH1 0x40 ADD SWAP1 JUMP JUMPDEST SWAP1 ISZERO ISZERO DUP2 MSTORE PUSH1 0x20 ADD SWAP1 JUMP JUMPDEST PUSH1 0x0 PUSH1 0x20 DUP3 MSTORE PUSH2 0x72B PUSH1 0x20 DUP4 ADD DUP5 PUSH2 0x890 JUMP JUMPDEST PUSH1 0x0 PUSH1 0x20 DUP3 MSTORE PUSH1 0x1 DUP1 PUSH1 0xA0 SHL SUB DUP1 DUP5 MLOAD AND PUSH1 0x20 DUP5 ADD MSTORE DUP1 PUSH1 0x20 DUP6 ADD MLOAD AND PUSH1 0x40 DUP5 ADD MSTORE POP PUSH1 0x40 DUP4 ADD MLOAD PUSH1 0xA0 PUSH1 0x60 DUP5 ADD MSTORE DUP1 MLOAD PUSH2 0x160 DUP1 PUSH1 0xC0 DUP7 ADD MSTORE PUSH2 0x99C PUSH2 0x220 DUP7 ADD DUP4 PUSH2 0x890 JUMP JUMPDEST SWAP2 POP PUSH1 0x20 DUP4 ADD MLOAD PUSH1 0xBF NOT DUP1 DUP8 DUP6 SUB ADD PUSH1 0xE0 DUP9 ADD MSTORE PUSH2 0x9BA DUP5 DUP4 PUSH2 0x890 JUMP JUMPDEST SWAP4 POP PUSH1 0x40 DUP6 ADD MLOAD SWAP2 POP PUSH2 0x100 DUP2 DUP9 DUP7 SUB ADD DUP2 DUP10 ADD MSTORE PUSH2 0x9D9 DUP6 DUP5 PUSH2 0x84D JUMP JUMPDEST SWAP5 POP PUSH1 0x60 DUP7 ADD MLOAD PUSH2 0x120 DUP10 ADD MSTORE PUSH1 0x80 DUP7 ADD MLOAD PUSH2 0x140 DUP10 ADD MSTORE PUSH1 0xA0 DUP7 ADD MLOAD SWAP3 POP PUSH2 0xA04 DUP5 DUP10 ADD DUP5 PUSH2 0x840 JUMP JUMPDEST PUSH1 0xC0 DUP7 ADD MLOAD SWAP4 POP PUSH2 0xA19 PUSH2 0x180 DUP10 ADD DUP6 PUSH2 0x840 JUMP JUMPDEST PUSH1 0xE0 DUP7 ADD MLOAD SWAP4 POP PUSH2 0xA2E PUSH2 0x1A0 DUP10 ADD DUP6 PUSH2 0x8DB JUMP JUMPDEST DUP1 DUP7 ADD MLOAD SWAP6 POP POP POP POP POP PUSH2 0xA46 PUSH2 0x200 DUP6 ADD DUP4 PUSH2 0x840 JUMP JUMPDEST PUSH1 0x60 DUP6 ADD MLOAD PUSH1 0x80 DUP6 ADD MSTORE PUSH1 0x80 DUP6 ADD MLOAD PUSH1 0xA0 DUP6 ADD MSTORE DUP1 SWAP3 POP POP POP SWAP3 SWAP2 POP POP JUMP JUMPDEST SWAP1 DUP2 MSTORE PUSH1 0x20 ADD SWAP1 JUMP JUMPDEST SWAP2 DUP3 MSTORE PUSH1 0x20 DUP3 ADD MSTORE PUSH1 0x40 ADD SWAP1 JUMP JUMPDEST PUSH1 0x40 MLOAD DUP2 DUP2 ADD PUSH8 0xFFFFFFFFFFFFFFFF DUP2 GT DUP3 DUP3 LT OR ISZERO PUSH2 0xA98 JUMPI INVALID JUMPDEST PUSH1 0x40 MSTORE SWAP2 SWAP1 POP JUMP JUMPDEST PUSH1 0x1 PUSH1 0x1 PUSH1 0xA0 SHL SUB DUP2 AND DUP2 EQ PUSH2 0xAB5 JUMPI PUSH1 0x0 DUP1 REVERT JUMPDEST POP JUMP INVALID LOG2 PUSH5 0x6970667358 0x22 SLT KECCAK256 ADDMOD PUSH16 0x394A3AE026F4F5B099D9D45E1E6BBD5C PUSH24 0xEED987716AAC5683D15E47BCCB64736F6C63430007060033 ","sha1":"b86fdb47241fd3683af6ac7f2849969df2a34cd1","source":"// SPDX-License-Identifier: GPL-3.0-or-later\n// This program is free software: you can redistribute it and/or modify\n// it under the terms of the GNU General Public License as published by\n// the Free Software Foundation, either version 3 of the License, or\n// (at your option) any later version.\n\n// This program is distributed in the hope that it will be useful,\n// but WITHOUT ANY WARRANTY; without even the implied warranty of\n// MERCHANTABILITY or FITNESS FOR A PARTICULAR PURPOSE.  See the\n// GNU General Public License for more details.\n\n// You should have received a copy of the GNU General Public License\n// along with this program.  If not, see <http://www.gnu.org/licenses/>.\n\npragma solidity 0.7.6;\npragma experimental ABIEncoderV2;\n\nimport \"@balancer-labs/v2-vault/contracts/interfaces/IVault.sol\";\n\nimport \"@balancer-labs/v2-pool-utils/contracts/factories/BasePoolSplitCodeFactory.sol\";\nimport \"@balancer-labs/v2-pool-utils/contracts/factories/FactoryWidePauseWindow.sol\";\n\nimport \"../../interfaces/ICappedLiquidity.sol\";\nimport \"../../interfaces/IGyro3CLPPoolFactory.sol\";\n\nimport \"./Gyro3CLPPool.sol\";\n\ncontract Gyro3CLPPoolFactory is IGyro3CLPPoolFactory, BasePoolSplitCodeFactory, FactoryWidePauseWindow {\n    address public immutable gyroConfigAddress;\n\n    uint256 public constant PAUSE_WINDOW_DURATION = 90 days;\n    uint256 public constant BUFFER_PERIOD_DURATION = 30 days;\n\n    constructor(IVault vault, address _gyroConfigAddress) BasePoolSplitCodeFactory(vault, type(Gyro3CLPPool).creationCode) {\n        gyroConfigAddress = _gyroConfigAddress;\n    }\n\n    /**\n     * @dev Deploys a new `Gyro3CLPPool`.\n     */\n    function create(Gyro3CLPPool.NewPoolConfigParams memory config) external override returns (address) {\n        Gyro3CLPPool.NewPoolParams memory params = Gyro3CLPPool.NewPoolParams({\n            vault: getVault(),\n            configAddress: gyroConfigAddress,\n            pauseWindowDuration: PAUSE_WINDOW_DURATION,\n            bufferPeriodDuration: BUFFER_PERIOD_DURATION,\n            config: config\n        });\n\n        return _create(abi.encode(params));\n    }\n}\n","sourcePath":"contracts/3clp/Gyro3CLPPoolFactory.sol","type":"contract","deployment":{"address":"0xfc2B39FD360547B29eDB7c13083a4a5532800Aae","chainid":"137","blockHeight":33047599}}