{"abi":[{"inputs":[{"components":[{"components":[{"internalType":"contract IVault","name":"vault","type":"address"},{"internalType":"string","name":"name","type":"string"},{"internalType":"string","name":"symbol","type":"string"},{"internalType":"contract IERC20","name":"token0","type":"address"},{"internalType":"contract IERC20","name":"token1","type":"address"},{"internalType":"uint256","name":"swapFeePercentage","type":"uint256"},{"internalType":"uint256","name":"pauseWindowDuration","type":"uint256"},{"internalType":"uint256","name":"bufferPeriodDuration","type":"uint256"},{"internalType":"address","name":"owner","type":"address"}],"internalType":"struct ExtensibleWeightedPool2Tokens.NewPoolParams","name":"baseParams","type":"tuple"},{"components":[{"internalType":"int256","name":"alpha","type":"int256"},{"internalType":"int256","name":"beta","type":"int256"},{"internalType":"int256","name":"c","type":"int256"},{"internalType":"int256","name":"s","type":"int256"},{"internalType":"int256","name":"lambda","type":"int256"}],"internalType":"struct GyroECLPMath.Params","name":"eclpParams","type":"tuple"},{"components":[{"components":[{"internalType":"int256","name":"x","type":"int256"},{"internalType":"int256","name":"y","type":"int256"}],"internalType":"struct GyroECLPMath.Vector2","name":"tauAlpha","type":"tuple"},{"components":[{"internalType":"int256","name":"x","type":"int256"},{"internalType":"int256","name":"y","type":"int256"}],"internalType":"struct GyroECLPMath.Vector2","name":"tauBeta","type":"tuple"},{"internalType":"int256","name":"u","type":"int256"},{"internalType":"int256","name":"v","type":"int256"},{"internalType":"int256","name":"w","type":"int256"},{"internalType":"int256","name":"z","type":"int256"},{"internalType":"int256","name":"dSq","type":"int256"}],"internalType":"struct GyroECLPMath.DerivedParams","name":"derivedEclpParams","type":"tuple"},{"internalType":"address","name":"rateProvider0","type":"address"},{"internalType":"address","name":"rateProvider1","type":"address"},{"internalType":"address","name":"capManager","type":"address"},{"components":[{"internalType":"bool","name":"capEnabled","type":"bool"},{"internalType":"uint120","name":"perAddressCap","type":"uint120"},{"internalType":"uint128","name":"globalCap","type":"uint128"}],"internalType":"struct ICappedLiquidity.CapParams","name":"capParams","type":"tuple"},{"internalType":"address","name":"pauseManager","type":"address"}],"internalType":"struct GyroECLPPool.GyroParams","name":"params","type":"tuple"},{"internalType":"address","name":"configAddress","type":"address"}],"stateMutability":"nonpayable","type":"constructor","name":"constructor"},{"anonymous":false,"inputs":[{"indexed":true,"internalType":"address","name":"owner","type":"address"},{"indexed":true,"internalType":"address","name":"spender","type":"address"},{"indexed":false,"internalType":"uint256","name":"value","type":"uint256"}],"name":"Approval","type":"event"},{"anonymous":false,"inputs":[{"indexed":false,"internalType":"address","name":"capManager","type":"address"}],"name":"CapManagerUpdated","type":"event"},{"anonymous":false,"inputs":[{"components":[{"internalType":"bool","name":"capEnabled","type":"bool"},{"internalType":"uint120","name":"perAddressCap","type":"uint120"},{"internalType":"uint128","name":"globalCap","type":"uint128"}],"indexed":false,"internalType":"struct ICappedLiquidity.CapParams","name":"params","type":"tuple"}],"name":"CapParamsUpdated","type":"event"},{"anonymous":false,"inputs":[{"indexed":false,"internalType":"bool","name":"derivedParamsValidated","type":"bool"}],"name":"ECLPDerivedParamsValidated","type":"event"},{"anonymous":false,"inputs":[{"indexed":false,"internalType":"bool","name":"paramsValidated","type":"bool"}],"name":"ECLPParamsValidated","type":"event"},{"anonymous":false,"inputs":[{"indexed":false,"internalType":"uint256","name":"invariantAfterJoin","type":"uint256"}],"name":"InvariantAterInitializeJoin","type":"event"},{"anonymous":false,"inputs":[{"indexed":false,"internalType":"uint256","name":"oldInvariant","type":"uint256"},{"indexed":false,"internalType":"uint256","name":"newInvariant","type":"uint256"}],"name":"InvariantOldAndNew","type":"event"},{"anonymous":false,"inputs":[{"indexed":false,"internalType":"address","name":"oldPauseManager","type":"address"},{"indexed":false,"internalType":"address","name":"newPauseManager","type":"address"}],"name":"PauseManagerChanged","type":"event"},{"anonymous":false,"inputs":[],"name":"PausedLocally","type":"event"},{"anonymous":false,"inputs":[{"indexed":false,"internalType":"bool","name":"paused","type":"bool"}],"name":"PausedStateChanged","type":"event"},{"anonymous":false,"inputs":[{"indexed":false,"internalType":"uint256","name":"swapFeePercentage","type":"uint256"}],"name":"SwapFeePercentageChanged","type":"event"},{"anonymous":false,"inputs":[{"indexed":false,"internalType":"uint256[]","name":"balances","type":"uint256[]"},{"components":[{"internalType":"int256","name":"x","type":"int256"},{"internalType":"int256","name":"y","type":"int256"}],"indexed":false,"internalType":"struct GyroECLPMath.Vector2","name":"invariant","type":"tuple"},{"indexed":false,"internalType":"uint256","name":"amount","type":"uint256"}],"name":"SwapParams","type":"event"},{"anonymous":false,"inputs":[{"indexed":true,"internalType":"address","name":"from","type":"address"},{"indexed":true,"internalType":"address","name":"to","type":"address"},{"indexed":false,"internalType":"uint256","name":"value","type":"uint256"}],"name":"Transfer","type":"event"},{"anonymous":false,"inputs":[],"name":"UnpausedLocally","type":"event"},{"inputs":[],"name":"DOMAIN_SEPARATOR","outputs":[{"internalType":"bytes32","name":"","type":"bytes32"}],"stateMutability":"view","type":"function"},{"inputs":[{"internalType":"address","name":"owner","type":"address"},{"internalType":"address","name":"spender","type":"address"}],"name":"allowance","outputs":[{"internalType":"uint256","name":"","type":"uint256"}],"stateMutability":"view","type":"function"},{"inputs":[{"internalType":"address","name":"spender","type":"address"},{"internalType":"uint256","name":"amount","type":"uint256"}],"name":"approve","outputs":[{"internalType":"bool","name":"","type":"bool"}],"stateMutability":"nonpayable","type":"function"},{"inputs":[{"internalType":"address","name":"account","type":"address"}],"name":"balanceOf","outputs":[{"internalType":"uint256","name":"","type":"uint256"}],"stateMutability":"view","type":"function"},{"inputs":[],"name":"capManager","outputs":[{"internalType":"address","name":"","type":"address"}],"stateMutability":"view","type":"function"},{"inputs":[],"name":"capParams","outputs":[{"components":[{"internalType":"bool","name":"capEnabled","type":"bool"},{"internalType":"uint120","name":"perAddressCap","type":"uint120"},{"internalType":"uint128","name":"globalCap","type":"uint128"}],"internalType":"struct ICappedLiquidity.CapParams","name":"","type":"tuple"}],"stateMutability":"view","type":"function"},{"inputs":[{"internalType":"address","name":"_pauseManager","type":"address"}],"name":"changePauseManager","outputs":[],"stateMutability":"nonpayable","type":"function"},{"inputs":[],"name":"decimals","outputs":[{"internalType":"uint8","name":"","type":"uint8"}],"stateMutability":"view","type":"function"},{"inputs":[{"internalType":"address","name":"spender","type":"address"},{"internalType":"uint256","name":"amount","type":"uint256"}],"name":"decreaseAllowance","outputs":[{"internalType":"bool","name":"","type":"bool"}],"stateMutability":"nonpayable","type":"function"},{"inputs":[{"internalType":"bytes4","name":"selector","type":"bytes4"}],"name":"getActionId","outputs":[{"internalType":"bytes32","name":"","type":"bytes32"}],"stateMutability":"view","type":"function"},{"inputs":[],"name":"getActualSupply","outputs":[{"internalType":"uint256","name":"","type":"uint256"}],"stateMutability":"view","type":"function"},{"inputs":[],"name":"getAuthorizer","outputs":[{"internalType":"contract IAuthorizer","name":"","type":"address"}],"stateMutability":"view","type":"function"},{"inputs":[],"name":"getECLPParams","outputs":[{"components":[{"internalType":"int256","name":"alpha","type":"int256"},{"internalType":"int256","name":"beta","type":"int256"},{"internalType":"int256","name":"c","type":"int256"},{"internalType":"int256","name":"s","type":"int256"},{"internalType":"int256","name":"lambda","type":"int256"}],"internalType":"struct GyroECLPMath.Params","name":"params","type":"tuple"},{"components":[{"components":[{"internalType":"int256","name":"x","type":"int256"},{"internalType":"int256","name":"y","type":"int256"}],"internalType":"struct GyroECLPMath.Vector2","name":"tauAlpha","type":"tuple"},{"components":[{"internalType":"int256","name":"x","type":"int256"},{"internalType":"int256","name":"y","type":"int256"}],"internalType":"struct GyroECLPMath.Vector2","name":"tauBeta","type":"tuple"},{"internalType":"int256","name":"u","type":"int256"},{"internalType":"int256","name":"v","type":"int256"},{"internalType":"int256","name":"w","type":"int256"},{"internalType":"int256","name":"z","type":"int256"},{"internalType":"int256","name":"dSq","type":"int256"}],"internalType":"struct GyroECLPMath.DerivedParams","name":"d","type":"tuple"}],"stateMutability":"view","type":"function"},{"inputs":[],"name":"getInvariant","outputs":[{"internalType":"uint256","name":"","type":"uint256"}],"stateMutability":"view","type":"function"},{"inputs":[],"name":"getInvariantDivActualSupply","outputs":[{"internalType":"uint256","name":"","type":"uint256"}],"stateMutability":"view","type":"function"},{"inputs":[],"name":"getLastInvariant","outputs":[{"internalType":"uint256","name":"","type":"uint256"}],"stateMutability":"view","type":"function"},{"inputs":[],"name":"getMiscData","outputs":[{"internalType":"int256","name":"logInvariant","type":"int256"},{"internalType":"int256","name":"logTotalSupply","type":"int256"},{"internalType":"uint256","name":"oracleSampleCreationTimestamp","type":"uint256"},{"internalType":"uint256","name":"oracleIndex","type":"uint256"},{"internalType":"bool","name":"oracleEnabled","type":"bool"},{"internalType":"uint256","name":"swapFeePercentage","type":"uint256"}],"stateMutability":"view","type":"function"},{"inputs":[],"name":"getNormalizedWeights","outputs":[{"internalType":"uint256[]","name":"","type":"uint256[]"}],"stateMutability":"view","type":"function"},{"inputs":[],"name":"getOwner","outputs":[{"internalType":"address","name":"","type":"address"}],"stateMutability":"view","type":"function"},{"inputs":[],"name":"getPausedState","outputs":[{"internalType":"bool","name":"paused","type":"bool"},{"internalType":"uint256","name":"pauseWindowEndTime","type":"uint256"},{"internalType":"uint256","name":"bufferPeriodEndTime","type":"uint256"}],"stateMutability":"view","type":"function"},{"inputs":[],"name":"getPoolId","outputs":[{"internalType":"bytes32","name":"","type":"bytes32"}],"stateMutability":"view","type":"function"},{"inputs":[],"name":"getPrice","outputs":[{"internalType":"uint256","name":"spotPrice","type":"uint256"}],"stateMutability":"view","type":"function"},{"inputs":[],"name":"getRate","outputs":[{"internalType":"uint256","name":"","type":"uint256"}],"stateMutability":"view","type":"function"},{"inputs":[],"name":"getSwapFeePercentage","outputs":[{"internalType":"uint256","name":"","type":"uint256"}],"stateMutability":"view","type":"function"},{"inputs":[],"name":"getTokenRates","outputs":[{"internalType":"uint256","name":"rate0","type":"uint256"},{"internalType":"uint256","name":"rate1","type":"uint256"}],"stateMutability":"view","type":"function"},{"inputs":[],"name":"getVault","outputs":[{"internalType":"contract IVault","name":"","type":"address"}],"stateMutability":"view","type":"function"},{"inputs":[],"name":"gyroConfig","outputs":[{"internalType":"contract IGyroConfig","name":"","type":"address"}],"stateMutability":"view","type":"function"},{"inputs":[{"internalType":"address","name":"spender","type":"address"},{"internalType":"uint256","name":"addedValue","type":"uint256"}],"name":"increaseAllowance","outputs":[{"internalType":"bool","name":"","type":"bool"}],"stateMutability":"nonpayable","type":"function"},{"inputs":[],"name":"name","outputs":[{"internalType":"string","name":"","type":"string"}],"stateMutability":"view","type":"function"},{"inputs":[{"internalType":"address","name":"owner","type":"address"}],"name":"nonces","outputs":[{"internalType":"uint256","name":"","type":"uint256"}],"stateMutability":"view","type":"function"},{"inputs":[{"internalType":"bytes32","name":"poolId","type":"bytes32"},{"internalType":"address","name":"sender","type":"address"},{"internalType":"address","name":"recipient","type":"address"},{"internalType":"uint256[]","name":"balances","type":"uint256[]"},{"internalType":"uint256","name":"lastChangeBlock","type":"uint256"},{"internalType":"uint256","name":"protocolSwapFeePercentage","type":"uint256"},{"internalType":"bytes","name":"userData","type":"bytes"}],"name":"onExitPool","outputs":[{"internalType":"uint256[]","name":"","type":"uint256[]"},{"internalType":"uint256[]","name":"","type":"uint256[]"}],"stateMutability":"nonpayable","type":"function"},{"inputs":[{"internalType":"bytes32","name":"poolId","type":"bytes32"},{"internalType":"address","name":"sender","type":"address"},{"internalType":"address","name":"recipient","type":"address"},{"internalType":"uint256[]","name":"balances","type":"uint256[]"},{"internalType":"uint256","name":"lastChangeBlock","type":"uint256"},{"internalType":"uint256","name":"protocolSwapFeePercentage","type":"uint256"},{"internalType":"bytes","name":"userData","type":"bytes"}],"name":"onJoinPool","outputs":[{"internalType":"uint256[]","name":"amountsIn","type":"uint256[]"},{"internalType":"uint256[]","name":"dueProtocolFeeAmounts","type":"uint256[]"}],"stateMutability":"nonpayable","type":"function"},{"inputs":[{"components":[{"internalType":"enum IVault.SwapKind","name":"kind","type":"uint8"},{"internalType":"contract IERC20","name":"tokenIn","type":"address"},{"internalType":"contract IERC20","name":"tokenOut","type":"address"},{"internalType":"uint256","name":"amount","type":"uint256"},{"internalType":"bytes32","name":"poolId","type":"bytes32"},{"internalType":"uint256","name":"lastChangeBlock","type":"uint256"},{"internalType":"address","name":"from","type":"address"},{"internalType":"address","name":"to","type":"address"},{"internalType":"bytes","name":"userData","type":"bytes"}],"internalType":"struct IPoolSwapStructs.SwapRequest","name":"request","type":"tuple"},{"internalType":"uint256","name":"balanceTokenIn","type":"uint256"},{"internalType":"uint256","name":"balanceTokenOut","type":"uint256"}],"name":"onSwap","outputs":[{"internalType":"uint256","name":"","type":"uint256"}],"stateMutability":"nonpayable","type":"function"},{"inputs":[],"name":"pause","outputs":[],"stateMutability":"nonpayable","type":"function"},{"inputs":[],"name":"pauseManager","outputs":[{"internalType":"address","name":"","type":"address"}],"stateMutability":"view","type":"function"},{"inputs":[{"internalType":"address","name":"owner","type":"address"},{"internalType":"address","name":"spender","type":"address"},{"internalType":"uint256","name":"value","type":"uint256"},{"internalType":"uint256","name":"deadline","type":"uint256"},{"internalType":"uint8","name":"v","type":"uint8"},{"internalType":"bytes32","name":"r","type":"bytes32"},{"internalType":"bytes32","name":"s","type":"bytes32"}],"name":"permit","outputs":[],"stateMutability":"nonpayable","type":"function"},{"inputs":[{"internalType":"bytes32","name":"poolId","type":"bytes32"},{"internalType":"address","name":"sender","type":"address"},{"internalType":"address","name":"recipient","type":"address"},{"internalType":"uint256[]","name":"balances","type":"uint256[]"},{"internalType":"uint256","name":"lastChangeBlock","type":"uint256"},{"internalType":"uint256","name":"protocolSwapFeePercentage","type":"uint256"},{"internalType":"bytes","name":"userData","type":"bytes"}],"name":"queryExit","outputs":[{"internalType":"uint256","name":"bptIn","type":"uint256"},{"internalType":"uint256[]","name":"amountsOut","type":"uint256[]"}],"stateMutability":"nonpayable","type":"function"},{"inputs":[{"internalType":"bytes32","name":"poolId","type":"bytes32"},{"internalType":"address","name":"sender","type":"address"},{"internalType":"address","name":"recipient","type":"address"},{"internalType":"uint256[]","name":"balances","type":"uint256[]"},{"internalType":"uint256","name":"lastChangeBlock","type":"uint256"},{"internalType":"uint256","name":"protocolSwapFeePercentage","type":"uint256"},{"internalType":"bytes","name":"userData","type":"bytes"}],"name":"queryJoin","outputs":[{"internalType":"uint256","name":"bptOut","type":"uint256"},{"internalType":"uint256[]","name":"amountsIn","type":"uint256[]"}],"stateMutability":"nonpayable","type":"function"},{"inputs":[],"name":"rateProvider0","outputs":[{"internalType":"contract IRateProvider","name":"","type":"address"}],"stateMutability":"view","type":"function"},{"inputs":[],"name":"rateProvider1","outputs":[{"internalType":"contract IRateProvider","name":"","type":"address"}],"stateMutability":"view","type":"function"},{"inputs":[{"internalType":"address","name":"_capManager","type":"address"}],"name":"setCapManager","outputs":[],"stateMutability":"nonpayable","type":"function"},{"inputs":[{"components":[{"internalType":"bool","name":"capEnabled","type":"bool"},{"internalType":"uint120","name":"perAddressCap","type":"uint120"},{"internalType":"uint128","name":"globalCap","type":"uint128"}],"internalType":"struct ICappedLiquidity.CapParams","name":"params","type":"tuple"}],"name":"setCapParams","outputs":[],"stateMutability":"nonpayable","type":"function"},{"inputs":[{"internalType":"bool","name":"paused","type":"bool"}],"name":"setPaused","outputs":[],"stateMutability":"nonpayable","type":"function"},{"inputs":[{"internalType":"uint256","name":"swapFeePercentage","type":"uint256"}],"name":"setSwapFeePercentage","outputs":[],"stateMutability":"nonpayable","type":"function"},{"inputs":[],"name":"symbol","outputs":[{"internalType":"string","name":"","type":"string"}],"stateMutability":"view","type":"function"},{"inputs":[],"name":"totalSupply","outputs":[{"internalType":"uint256","name":"","type":"uint256"}],"stateMutability":"view","type":"function"},{"inputs":[{"internalType":"address","name":"recipient","type":"address"},{"internalType":"uint256","name":"amount","type":"uint256"}],"name":"transfer","outputs":[{"internalType":"bool","name":"","type":"bool"}],"stateMutability":"nonpayable","type":"function"},{"inputs":[{"internalType":"address","name":"sender","type":"address"},{"internalType":"address","name":"recipient","type":"address"},{"internalType":"uint256","name":"amount","type":"uint256"}],"name":"transferFrom","outputs":[{"internalType":"bool","name":"","type":"bool"}],"stateMutability":"nonpayable","type":"function"},{"inputs":[],"name":"unpause","outputs":[],"stateMutability":"nonpayable","type":"function"}],"bytecode":"6104a06040527f6e71edae12b1b97f4d1f60370fef10105fa2faae0126114a169c64845d6126c9610120526706f05b59d3b20000610200819052610220526000610240523480156200005057600080fd5b506040516200605338038062006053833981016040819052620000739162000f8a565b8160e001518260a001518360c0015184600001518060c001518160e001518260200151836040015184600001518280604051806040016040528060018152602001603160f81b81525085858a6101000151336001600160a01b031660001b806080818152505050806001600160a01b031660a0816001600160a01b031660601b815250505081600390805190602001906200011092919062000b87565b5080516200012690600490602084019062000b87565b505060058054601260ff1990911617905550815160209283012060c052805191012060e052507f8b73c3c69bb8fe3d512ecc4cf759cc79239f7b179b0ffacaa9a75d522b39400f6101005260601b6001600160601b03191661014052506200019990506276a700831115610194620006ca565b620001ad62278d00821115610195620006ca565b42919091016101608190520161018052604080516002808252606082018352600092602083019080368337019050509050816060015181600081518110620001f157fe5b60200260200101906001600160a01b031690816001600160a01b0316815250508160800151816001815181106200022457fe5b60200260200101906001600160a01b031690816001600160a01b0316815250506200025a81620006df60201b62001a1e1760201c565b60a08201516200026a90620006eb565b81516040516309b2760f60e01b81526000916001600160a01b0316906309b2760f906200029d9060029060040162001176565b602060405180830381600087803b158015620002b857600080fd5b505af1158015620002cd573d6000803e3d6000fd5b505050506040513d601f19601f82011682018060405250810190620002f3919062000f71565b83516040805160028082526060820183529394506001600160a01b03909216926366a9c7d2928592879290602083019080368337019050506040518463ffffffff1660e01b81526004016200034b93929190620010dc565b600060405180830381600087803b1580156200036657600080fd5b505af11580156200037b573d6000803e3d6000fd5b5050506101a082905250606080840180516001600160601b031990831b81166101c052608086015190921b9091166101e05251620003b99062000774565b610260526080830151620003cd9062000774565b61028052505060408051808201909152600e81526d1b9bdd08185d5d1a1bdc9a5e995960921b602082015290506001600160a01b0383166200042d5760405162461bcd60e51b81526004016200042491906200118b565b60405180910390fd5b50600b80546001600160a01b0319166001600160a01b039384161790558051600a8054602084015160409094015160ff1990911692151592909217610100600160801b0319166101006001600160781b0390941693909302929092176001600160801b03908116600160801b9190921602179055620004b29082161515606962000822565b600c80546001600160a01b0319166001600160a01b03928316179055620004df9082161515607862000822565b620004f982602001516200083360201b62001a2c1760201c565b7ff468331437e1ec2fec64fc27f23a28b085a09e90f385338d4b58cb638607977760016040516200052b9190620010d1565b60405180910390a160208201516040808401519051636e70c2ef60e01b815273__GyroECLPMath__________________________92636e70c2ef926200057492600401620011c0565b60006040518083038186803b1580156200058d57600080fd5b505af4158015620005a2573d6000803e3d6000fd5b505050507f614fd1489cdee8181582fbbc1933d6870cd06c6f22d314b97a650ffa547c6ccd6001604051620005d89190620010d1565b60405180910390a160208281015180518183015160408084015160608086015160809687015161032052610300526102e0919091526102c0929092526102a09290925281860151805180519086015182870151805197015194830151838501518488015160a086015160c0909601516104405261042095909552610400949094526103e0939093526103c0929092526103a093909352610380949094526103609390935261034052600d80546001600160a01b0319166001600160a01b03949094169390931790925580830151811b6001600160601b031990811661046052919092015190911b1661048052620012b8565b81620006db57620006db816200091e565b5050565b80620006db8162000971565b6200070064e8d4a5100082101560cb620006ca565b6200071867016345785d8a000082111560ca620006ca565b6200073481600854620009fb60201b62001b091790919060201c565b6008556040517fa9ba3ffe0b6c366b81232caab38605a0699ad5398d6cce76f91ee809e322dafc906200076990839062001258565b60405180910390a150565b600080826001600160a01b031663313ce5676040518163ffffffff1660e01b815260040160206040518083038186803b158015620007b157600080fd5b505afa158015620007c6573d6000803e3d6000fd5b505050506040513d601f19601f82011682018060405250810190620007ec91906200109f565b60ff16905060006200080b60128362000a2160201b62001b171760201c565b600a0a670de0b6b3a764000002925050505b919050565b81620006db57620006db8162000a39565b620008628160600151600013158015620008595750670de0b6b3a7640000826060015113155b61016362000822565b620008908160400151600013158015620008595750670de0b6b3a76400008260400151131561016362000822565b604080518082018252606083015181529082015160208201526000620008b7828062000a4b565b9050620008e7670de0b6b3a763fc188212801590620008de5750670de0b6b3a76403e88213155b61016462000822565b6200091983608001516000131580156200091057506a52b7d2dcc80cd2e4000000846080015113155b61016862000822565b505050565b62461bcd60e51b6000908152602060045260076024526642414c23000030600a808404818106603090810160081b95839006959095019082900491820690940160101b939093010160c81b604452606490fd5b6002815110156200098257620009f8565b6000816000815181106200099257fe5b602002602001015190506000600190505b825181101562000919576000838281518110620009bc57fe5b60200260200101519050620009ed816001600160a01b0316846001600160a01b0316106065620006ca60201b60201c565b9150600101620009a3565b50565b600062000a1a8260568562000aa260201b62001b2d179092919060201c565b9392505050565b600062000a33838311156001620006ca565b50900390565b620009f8816223aca960e91b62000ab7565b600062000a1a62000a738360200151856020015162000b1860201b62001b431790919060201c565b8351855162000a8e9162000b18602090811b62001b4317901c565b62000b5960201b62001b7f1790919060201c565b6001600160401b03811b1992909216911b1790565b62461bcd60e51b600090815260206004526007602452600a808404818106603090810160081b958390069590950190829004918206850160101b01602363ffffff0060e086901c160160181b0190930160c81b60445260e882901c90606490fd5b600082820283158062000b3457508284828162000b3157fe5b05145b62000b475762000b4760006003620006ca565b670de0b6b3a764000090059392505050565b60008282018183121562000b705783811262000b75565b838112155b62000a1a5762000a1a600080620006ca565b828054600181600116156101000203166002900490600052602060002090601f01602090048101928262000bbf576000855562000c0a565b82601f1062000bda57805160ff191683800117855562000c0a565b8280016001018555821562000c0a579182015b8281111562000c0a57825182559160200191906001019062000bed565b5062000c1892915062000c1c565b5090565b5b8082111562000c18576000815560010162000c1d565b80516001600160a01b03811681146200081d57600080fd5b600082601f83011262000c5c578081fd5b81516001600160401b0381111562000c7057fe5b62000c85601f8201601f191660200162001261565b81815284602083860101111562000c9a578283fd5b62000cad82602083016020870162001285565b949350505050565b60006060828403121562000cc7578081fd5b604051606081016001600160401b038111828210171562000ce457fe5b80604052508091508251801515811462000cfd57600080fd5b815260208301516001600160781b038116811462000d1a57600080fd5b602082015260408301516001600160801b038116811462000d3a57600080fd5b6040919091015292915050565b6000610120828403121562000d5a578081fd5b60405160e081016001600160401b038111828210171562000d7757fe5b60405290508062000d89848462000f28565b815262000d9a846040850162000f28565b60208201526080830151604082015260a0830151606082015260c0830151608082015260e083015160a082015261010083015160c08201525092915050565b600061012080838503121562000ded578182fd5b62000df88162001261565b91505062000e068262000c33565b815260208201516001600160401b038082111562000e2357600080fd5b62000e318583860162000c4b565b6020840152604084015191508082111562000e4b57600080fd5b5062000e5a8482850162000c4b565b60408301525062000e6e6060830162000c33565b606082015262000e816080830162000c33565b608082015260a082015160a082015260c082015160c082015260e082015160e082015261010062000eb481840162000c33565b9082015292915050565b600060a0828403121562000ed0578081fd5b60405160a081016001600160401b038111828210171562000eed57fe5b806040525080915082518152602083015160208201526040830151604082015260608301516060820152608083015160808201525092915050565b60006040828403121562000f3a578081fd5b604080519081016001600160401b038111828210171562000f5757fe5b604052825181526020928301519281019290925250919050565b60006020828403121562000f83578081fd5b5051919050565b6000806040838503121562000f9d578081fd5b82516001600160401b038082111562000fb4578283fd5b908401906102c0828703121562000fc9578283fd5b62000fd661010062001261565b82518281111562000fe5578485fd5b62000ff38882860162000dd9565b82525062001005876020850162000ebe565b6020820152620010198760c0850162000d47565b60408201526200102d6101e0840162000c33565b606082015262001041610200840162000c33565b608082015262001055610220840162000c33565b60a08201526200106a87610240850162000cb5565b60c08201526200107e6102a0840162000c33565b60e08201529350620010969150506020840162000c33565b90509250929050565b600060208284031215620010b1578081fd5b815160ff8116811462000a1a578182fd5b80518252602090810151910152565b901515815260200190565b60006060820185835260206060818501528186518084526080860191508288019350845b81811015620011275784516001600160a01b03168352938301939183019160010162001100565b505084810360408601528551808252908201925081860190845b81811015620011685782516001600160a01b03168552938301939183019160010162001141565b509298975050505050505050565b60208101600383106200118557fe5b91905290565b6000602082528251806020840152620011ac81604085016020870162001285565b601f01601f19169190910160400192915050565b60006101c08201905083518252602084015160208301526040840151604083015260608401516060830152608084015160808301526200120560a083018451620010c2565b60208301516200121960e0840182620010c2565b5060408301516101208301526060830151610140830152608083015161016083015260a083015161018083015260c08301516101a08301529392505050565b90815260200190565b6040518181016001600160401b03811182821017156200127d57fe5b604052919050565b60005b83811015620012a257818101518382015260200162001288565b83811115620012b2576000848401525b50505050565b60805160a05160601c60c05160e05161010051610120516101405160601c61016051610180516101a0516101c05160601c6101e05160601c61020051610220516102405161026051610280516102a0516102c0516102e05161030051610320516103405161036051610380516103a0516103c0516103e0516104005161042051610440516104605160601c6104805160601c614bf06200146360003980610ad05280610bfa5280610c365280612a4f5280612a815280612bc9525080610b2b5280610b675280610fc4528061298252806129b45280612b7f5250806125975250806125bd5250806125e352508061260b52508061263052508061250452508061252952508061254c52508061257452508061243352508061245d5250806124875250806124b15250806124db525080612bec525080612ba252505080613bd5525080613bfc5250806113405280611387528061289952508061130052806113c7528061284d52508061082d525080611cf7525080611cd35250806111835250806117b1525080611e13525080611e55525080611e3452508061115f5250806110a45250614bf06000f3fe608060405234801561001057600080fd5b50600436106102bb5760003560e01c806374f3b0091161018257806395d89b41116100e9578063aaabadc5116100a2578063d505accf1161007c578063d505accf14610595578063d5c096c4146105a8578063dd62ed3e146105bb578063f89f27ed146105ce576102bb565b8063aaabadc51461057d578063abd13afe14610585578063c0ff1a151461058d576102bb565b806395d89b411461052c57806398d5fdca146105345780639b02cdde1461053c5780639d2c110c14610544578063a457c2d714610557578063a9059cbb1461056a576102bb565b80638456cb591161013b5780638456cb59146104e6578063851c1bb3146104ee578063876f303b1461050157806387ec681714610509578063893d20e81461051c5780638d928af814610524576102bb565b806374f3b0091461046e57806376e54a461461048f5780637be219a2146104a25780637ecebe00146104b85780638002df18146104cb578063828a7c34146104de576102bb565b80633aeae0d311610226578063623a2e75116101df578063623a2e751461042557806362ced0921461042d578063679aefce146104355780636d785a871461043d578063702ec0911461044557806370a082311461045b576102bb565b80633aeae0d3146103b05780633f4ba83a146103c557806344bbdb55146103cd5780634a6b0b15146103e257806355c67628146103fc5780636028bfd414610404576102bb565b806323b872dd1161027857806323b872dd14610352578063313ce567146103655780633644e5151461037a57806338e9922e1461038257806338fff2d014610395578063395093511461039d576102bb565b806306fdde03146102c0578063095ea7b3146102de5780630e608b30146102fe57806316c38b3c1461031357806318160ddd146103265780631c0de0511461033b575b600080fd5b6102c86105e3565b6040516102d59190614a03565b60405180910390f35b6102f16102ec3660046143fa565b610679565b6040516102d59190614996565b61031161030c3660046142d5565b610690565b005b610311610321366004614425565b610741565b61032e610755565b6040516102d591906149b9565b61034361075b565b6040516102d5939291906149a1565b6102f1610360366004614345565b610784565b61036d6107fa565b6040516102d59190614b4b565b61032e610803565b61031161039036600461470c565b610812565b61032e61082b565b6102f16103ab3660046143fa565b61084f565b6103b861088a565b6040516102d59190614a56565b6103116108d5565b6103d56109ca565b6040516102d5919061485a565b6103ea6109d9565b6040516102d5969594939291906149d9565b61032e610a34565b61041761041236600461443f565b610a41565b6040516102d5929190614b24565b61032e610a72565b6103d5610ace565b61032e610af2565b6103d5610b17565b61044d610b26565b6040516102d5929190614b3d565b61032e6104693660046142d5565b610ccb565b61048161047c36600461443f565b610cea565b6040516102d5929190614881565b61031161049d366004614596565b610d7a565b6104aa610ea1565b6040516102d5929190614ab6565b61032e6104c63660046142d5565b610ec1565b6103116104d93660046142d5565b610edc565b6103d5610fc2565b610311610fe6565b61032e6104fc36600461454b565b61109e565b61032e6110f7565b61041761051736600461443f565b611138565b6103d561115d565b6103d5611181565b6102c86111a5565b61032e611206565b61032e6112d1565b61032e610552366004614615565b6112d7565b6102f16105653660046143fa565b611676565b6102f16105783660046143fa565b6116b4565b6103d56116c1565b6103d56116cb565b61032e6116da565b6103116105a3366004614385565b611782565b6104816105b636600461443f565b6118f2565b61032e6105c936600461430d565b6119d7565b6105d6611a14565b6040516102d5919061486e565b60038054604080516020601f600260001961010060018816150201909516949094049384018190048102820181019092528281526060939092909183018282801561066f5780601f106106445761010080835404028352916020019161066f565b820191906000526020600020905b81548152906001019060200180831161065257829003601f168201915b5050505050905090565b6000610686338484611ba8565b5060015b92915050565b600b5460408051808201909152600e81526d1b9bdd08185d5d1a1bdc9a5e995960921b6020820152906001600160a01b031633146106ea5760405162461bcd60e51b81526004016106e19190614a03565b60405180910390fd5b50600b80546001600160a01b0319166001600160a01b0383161790556040517fb8fd9afc34c38fcd13b9a3b7646482eb1fddcefb40af2c70609972816eba32089061073690839061485a565b60405180910390a150565b610749611c0a565b61075281611c38565b50565b60025490565b6000806000610768611cb4565b159250610773611cd1565b915061077d611cf5565b9050909192565b60008061079185336119d7565b90506107b5336001600160a01b03871614806107ad5750838210155b61019e611d19565b6107c0858585611d27565b336001600160a01b038616148015906107db57506000198114155b156107ed576107ed8533858403611ba8565b60019150505b9392505050565b60055460ff1690565b600061080d611e0f565b905090565b61081a611c0a565b610822611ecd565b61075281611ee2565b7f000000000000000000000000000000000000000000000000000000000000000090565b3360008181526001602090815260408083206001600160a01b038716845290915281205490916106869185906108859086611f4b565b611ba8565b610892614194565b5060408051606081018252600a5460ff81161515825261010081046001600160781b03166020830152600160801b90046001600160801b03169181019190915290565b600c546040805180820190915260118152703737ba103830bab9b29036b0b730b3b2b960791b6020820152906001600160a01b031633146109945760405162461bcd60e51b81526004018080602001828103825283818151815260200191508051906020019080838360005b83811015610959578181015183820152602001610941565b50505050905090810190601f1680156109865780820380516001836020036101000a031916815260200191505b509250505060405180910390fd5b5061099f6000610749565b6040517f215385c8bfc731925ec8068d7baa50f6b6f34417cc7804f7273dc2c0b3db279090600090a1565b600d546001600160a01b031681565b600080600080600080600060085490506109f281611f5d565b96506109fd81611f69565b9550610a0881611f76565b9450610a1381611f83565b9350610a1e81611f90565b9250610a2981611f9d565b915050909192939495565b600061080d600854611f9d565b60006060610a5186516002611faa565b610a6689898989898989611fb76121256121a3565b97509795505050505050565b600080610a7d6116da565b90506000610a89610755565b9050600080610a9a600954856122b6565b50919350915060009050610ab882610ab2868661231f565b9061231f565b9050610ac48582612337565b9550505050505090565b7f000000000000000000000000000000000000000000000000000000000000000081565b600061080d610aff610755565b610b11610b0a6116da565b6002612391565b90612337565b600b546001600160a01b031681565b6000807f00000000000000000000000000000000000000000000000000000000000000006001600160a01b0316610b6557670de0b6b3a7640000610bf6565b7f00000000000000000000000000000000000000000000000000000000000000006001600160a01b031663679aefce6040518163ffffffff1660e01b815260040160206040518083038186803b158015610bbe57600080fd5b505afa158015610bd2573d6000803e3d6000fd5b505050506040513d601f19601f82011682018060405250810190610bf69190614724565b91507f00000000000000000000000000000000000000000000000000000000000000006001600160a01b0316610c3457670de0b6b3a7640000610cc5565b7f00000000000000000000000000000000000000000000000000000000000000006001600160a01b031663679aefce6040518163ffffffff1660e01b815260040160206040518083038186803b158015610c8d57600080fd5b505afa158015610ca1573d6000803e3d6000fd5b505050506040513d601f19601f82011682018060405250810190610cc59190614724565b90509091565b6001600160a01b0381166000908152602081905260409020545b919050565b60608088610d14610cf9611181565b6001600160a01b0316336001600160a01b03161460cd611d19565b610d29610d1f61082b565b82146101f4611d19565b610d32876123b5565b6000806000610d468d8d8d8d8d8d8d611fb7565b925092509250610d568c84612417565b610d5f82612125565b610d6881612125565b909c909b509950505050505050505050565b600b5460408051808201909152600e81526d1b9bdd08185d5d1a1bdc9a5e995960921b6020820152906001600160a01b03163314610dcb5760405162461bcd60e51b81526004016106e19190614a03565b50600a5460408051808201909152601081526f1c1bdbdb081a5cc81d5b98d85c1c195960821b60208201529060ff16610e175760405162461bcd60e51b81526004016106e19190614a03565b508051600a8054602084015160408086015160ff19909316941515949094176fffffffffffffffffffffffffffffff0019166101006001600160781b0390921691909102176001600160801b03908116600160801b919092160217815590517f2abf5970d7bc1a2b36eaae52dd2cc353edb0337c7284ef8a01973081b4e044249161073691614a8b565b610ea96141b4565b610eb16141e3565b610eb9612421565b915091509091565b6001600160a01b031660009081526006602052604090205490565b600c546040805180820190915260118152703737ba103830bab9b29036b0b730b3b2b960791b60208201526001600160a01b0390911690338214610f615760405162461bcd60e51b8152602060048201818152835160248401528351909283926044909101919085019080838360008315610959578181015183820152602001610941565b50600c80546001600160a01b0319166001600160a01b03848116918217909255604080519284168352602083019190915280517f1ffccd1fa96f4fb3415df8048a0fd107344e262d2d246c85105e2a3f8f3e81989281900390910190a15050565b7f000000000000000000000000000000000000000000000000000000000000000081565b600c546040805180820190915260118152703737ba103830bab9b29036b0b730b3b2b960791b6020820152906001600160a01b031633146110685760405162461bcd60e51b8152602060048201818152835160248401528351909283926044909101919085019080838360008315610959578181015183820152602001610941565b506110736001610749565b6040517f681eace576127d0553b224436a09801fb47d042942cbff59d7d4ff04d8fa03d790600090a1565b604080517f00000000000000000000000000000000000000000000000000000000000000006020808301919091526001600160e01b03198416828401528251602481840301815260449092019092528051910120919050565b600080611102610755565b905060008061111a6009546111156116da565b6122b6565b509193509150611130905081610ab2858561231f565b935050505090565b6000606061114886516002611faa565b610a66898989898989896126576127c66121a3565b7f000000000000000000000000000000000000000000000000000000000000000090565b7f000000000000000000000000000000000000000000000000000000000000000090565b60048054604080516020601f600260001961010060018816150201909516949094049384018190048102820181019092528281526060939092909183018282801561066f5780601f106106445761010080835404028352916020019161066f565b600080611211612828565b905060008061121e612421565b91509150600073__GyroECLPMath__________________________63d83ca8628585856040518463ffffffff1660e01b815260040161125f939291906148a6565b60206040518083038186803b15801561127757600080fd5b505af415801561128b573d6000803e3d6000fd5b505050506040513d601f19601f820116820180604052508101906112af9190614724565b90506112bd848285856128de565b94506112c88561297e565b94505050505090565b60095490565b60006112e1611ecd565b83608001516112f1610cf9611181565b6112fc610d1f61082b565b60007f00000000000000000000000000000000000000000000000000000000000000006001600160a01b031686602001516001600160a01b031614801561137857507f00000000000000000000000000000000000000000000000000000000000000006001600160a01b031686604001516001600160a01b0316145b1561138557506001611416565b7f00000000000000000000000000000000000000000000000000000000000000006001600160a01b031686602001516001600160a01b03161480156113ff57507f00000000000000000000000000000000000000000000000000000000000000006001600160a01b031686604001516001600160a01b0316145b1561140c57506000611416565b6114166079612b1e565b600061142182612b71565b9050600061142f8315612b71565b905061143b8783612c9e565b96506114478682612c9e565b95506000611456888886612caa565b9050600080611463612421565b9150915061146f61422c565b60008073__GyroECLPMath__________________________6378ace8578787876040518463ffffffff1660e01b81526004016114ad939291906148a6565b604080518083038186803b1580156114c457600080fd5b505af41580156114d8573d6000803e3d6000fd5b505050506040513d601f19601f820116820180604052508101906114fc9190614573565b6040805180820190915260029091028201815260208101919091529250600091506115249050565b8c51600181111561153157fe5b14156115dd57600061154f611544610a34565b60608f015190612d44565b905061157161156b828f60600151612d9990919063ffffffff16565b88612c9e565b60608e015260006115868e878b888888612daf565b90507f4e1d56f7310a8c32b2267f756b19ba65019b4890068ce114a25009abe54de5ba8684836040516115bb93929190614918565b60405180910390a16115cd8188612e52565b9a5050505050505050505061166e565b6115eb8c6060015186612c9e565b60608d015260006116008d868a878787612e5e565b90507f4e1d56f7310a8c32b2267f756b19ba65019b4890068ce114a25009abe54de5ba85838360405161163593929190614918565b60405180910390a16116478188612ea6565b905061166361165c611657610a34565b612eb2565b8290612ed8565b995050505050505050505b509392505050565b60008061168333856119d7565b905080831061169d5761169833856000611ba8565b6116aa565b6116aa3385858403611ba8565b5060019392505050565b6000610686338484611d27565b600061080d612f3e565b600c546001600160a01b031681565b6000806116e5612828565b90506000806116f2612421565b604051636c1e543160e11b8152919350915073__GyroECLPMath__________________________9063d83ca86290611732908690869086906004016148a6565b60206040518083038186803b15801561174a57600080fd5b505af415801561175e573d6000803e3d6000fd5b505050506040513d601f19601f820116820180604052508101906111309190614724565b6117908442111560d1611d19565b6001600160a01b0380881660008181526006602090815260408083205481517f00000000000000000000000000000000000000000000000000000000000000008185015280830195909552948b166060850152608084018a905260a0840185905260c08085018a90528151808603909101815260e0909401905282519201919091209061181c82612fb8565b9050600060018288888860405160008152602001604052604051808581526020018460ff1681526020018381526020018281526020019450505050506020604051602081039080840390855afa15801561187a573d6000803e3d6000fd5b5050604051601f19015191506118bc90506001600160a01b038216158015906118b457508b6001600160a01b0316826001600160a01b0316145b6101f8611d19565b6001600160a01b038b1660009081526006602052604090206001850190556118e58b8b8b611ba8565b5050505050505050505050565b60608088611901610cf9611181565b61190c610d1f61082b565b611914611ecd565b600061191e610755565b61198e5761192e8b8b8b88613004565b94509050611943620f424082101560cc611d19565b6119516000620f4240613194565b61196089620f42408303613194565b611969846127c6565b60408051600280825260608201835290916020830190803683370190505092506119c9565b611997886123b5565b6119a68b8b8b8b8b8b8b612657565b909550935090506119b78982613194565b6119c0846127c6565b6119c983612125565b505097509795505050505050565b60006119e1611181565b6001600160a01b0316826001600160a01b03161415611a03575060001961068a565b611a0d838361319e565b905061068a565b606061080d6131c9565b80611a2881613238565b5050565b611a588160600151600013158015611a505750670de0b6b3a7640000826060015113155b6101636132b1565b611a838160400151600013158015611a505750670de0b6b3a7640000826040015113156101636132b1565b604080518082018252606083015181529082015160208201526000611aa882806132bf565b9050611ad5670de0b6b3a763fc188212801590611acd5750670de0b6b3a76403e88213155b6101646132b1565b611b048360800151600013158015611afc57506a52b7d2dcc80cd2e4000000846080015113155b6101686132b1565b505050565b60006107f383836056611b2d565b6000611b27838311156001611d19565b50900390565b67ffffffffffffffff811b1992909216911b1790565b6000828202831580611b5d575082848281611b5a57fe5b05145b611b6d57611b6d60006003611d19565b670de0b6b3a764000090059392505050565b600082820181831215611b9457838112611b99565b838112155b6107f3576107f3600080611d19565b6001600160a01b03808416600081815260016020908152604080832094871680845294825291829020859055815185815291517f8c5be1e5ebec7d5bd14f71427d1e84f3dd0314c0f7b2291e5b200ac8c7c3b9259281900390910190a3505050565b6000611c216000356001600160e01b03191661109e565b9050610752611c3082336132f2565b610191611d19565b8015611c5857611c53611c49611cd1565b4210610193611d19565b611c6d565b611c6d611c63611cf5565b42106101a9611d19565b6007805482151560ff19909116811790915560408051918252517f9e3a5e37224532dea67b89face185703738a228a6e8a23dee546960180d3be649181900360200190a150565b6000611cbe611cf5565b42118061080d57505060075460ff161590565b7f000000000000000000000000000000000000000000000000000000000000000090565b7f000000000000000000000000000000000000000000000000000000000000000090565b81611a2857611a2881612b1e565b611d3e6001600160a01b0384161515610198611d19565b611d556001600160a01b0383161515610199611d19565b611d60838383611b04565b6001600160a01b038316600090815260208190526040902054611d8690826101a06133f4565b6001600160a01b038085166000908152602081905260408082209390935590841681522054611db59082611f4b565b6001600160a01b038084166000818152602081815260409182902094909455805185815290519193928716927fddf252ad1be2c89b69c2b068fc378daa952ba7f163c4a11628f55a4df523b3ef92918290030190a3505050565b60007f00000000000000000000000000000000000000000000000000000000000000007f00000000000000000000000000000000000000000000000000000000000000007f0000000000000000000000000000000000000000000000000000000000000000611e7c61340a565b3060405160200180868152602001858152602001848152602001838152602001826001600160a01b031681526020019550505050505060405160208183030381529060405280519060200120905090565b611ee0611ed8611cb4565b610192611d19565b565b611ef564e8d4a5100082101560cb611d19565b611f0b67016345785d8a000082111560ca611d19565b600854611f189082611b09565b6008556040517fa9ba3ffe0b6c366b81232caab38605a0699ad5398d6cce76f91ee809e322dafc906107369083906149b9565b60008282016107f38482101583611d19565b600061068a828261340e565b600061068a82601661340e565b600061068a82602c613435565b600061068a82604b61343f565b600061068a826055613447565b600061068a826056613451565b611a288183146067611d19565b6000606080600080611fc7612421565b91509150611fd3611cb4565b156120d857604051636c1e543160e11b815260009073__GyroECLPMath__________________________9063d83ca86290612016908d90879087906004016148a6565b60206040518083038186803b15801561202e57600080fd5b505af4158015612042573d6000803e3d6000fd5b505050506040513d601f19601f820116820180604052508101906120669190614724565b90506120718161345f565b61207b8a8861348c565b9096509450612094818761208d610755565b60006134d8565b60098190556040517fe1d39caf039c7dc6f364b1e29d1e67c4e330003a43f4991d50cf3e8840d95eac916120ca91849190614b3d565b60405180910390a1506120ee565b6120e2898761348c565b60001960095590955093505b6040805160028082526060820183528792879291906020830190803683370190505094509450945050509750975097945050505050565b61214c8160008151811061213557fe5b60200260200101516121476001612b71565b612337565b8160008151811061215957fe5b6020026020010181815250506121878160018151811061217557fe5b60200260200101516121476000612b71565b8160018151811061219457fe5b60200260200101818152505050565b333014612261576000306001600160a01b03166000366040516121c792919061484a565b6000604051808303816000865af19150503d8060008114612204576040519150601f19603f3d011682016040523d82523d6000602084013e612209565b606091505b50509050806000811461221857fe5b60046000803e6000516001600160e01b0319166343adbafb60e01b8114612243573d6000803e3d6000fd5b506020600460003e604060205260243d03602460403e601c3d016000f35b61226a866123b5565b6000806122808b8b8b8b8b8b8b8b63ffffffff16565b5091509150612292818463ffffffff16565b8051601f1982018390526343adbafb603f1983015260200260231982016044820181fd5b6000806000806000806000806122ca613530565b935093509350935083600014156122ef57600097508796509094509250612316915050565b6000806123068c8c6122ff610755565b89896136a2565b909a509850929650909450505050505b92959194509250565b6000828201838110156107f3576107f3600080611d19565b60008161234a5761234a60006004611d19565b826123575750600061068a565b670de0b6b3a76400008381029084828161236d57fe5b041461237f5761237f60006005611d19565b82818161238857fe5b04949350505050565b60008282026107f38415806123ae5750838583816123ab57fe5b04145b6003611d19565b6123dc816000815181106123c557fe5b60200260200101516123d76001612b71565b61373d565b816000815181106123e957fe5b6020026020010181815250506121878160018151811061240557fe5b60200260200101516123d76000612b71565b611a288282613776565b6124296141b4565b6124316141e3565b7f00000000000000000000000000000000000000000000000000000000000000006080808401919091527f00000000000000000000000000000000000000000000000000000000000000006060808501919091527f00000000000000000000000000000000000000000000000000000000000000006040808601919091527f00000000000000000000000000000000000000000000000000000000000000006020808701919091527f000000000000000000000000000000000000000000000000000000000000000086528451858201517f0000000000000000000000000000000000000000000000000000000000000000818401527f000000000000000000000000000000000000000000000000000000000000000090527f0000000000000000000000000000000000000000000000000000000000000000918101919091527f000000000000000000000000000000000000000000000000000000000000000090527f000000000000000000000000000000000000000000000000000000000000000060c08501527f000000000000000000000000000000000000000000000000000000000000000060a08501527f0000000000000000000000000000000000000000000000000000000000000000928401929092527f0000000000000000000000000000000000000000000000000000000000000000908301527f0000000000000000000000000000000000000000000000000000000000000000908201529091565b6000606080600080612667612421565b91509150600073__GyroECLPMath__________________________63d83ca8628b85856040518463ffffffff1660e01b81526004016126a8939291906148a6565b60206040518083038186803b1580156126c057600080fd5b505af41580156126d4573d6000803e3d6000fd5b505050506040513d601f19601f820116820180604052508101906126f89190614724565b90506127038161345f565b6000806127108c8a61382d565b600a54919350915060ff161561273a5761273a8261272d8f610ccb565b612735610755565b613867565b61274e8383612747610755565b60016134d8565b60098190556040517fe1d39caf039c7dc6f364b1e29d1e67c4e330003a43f4991d50cf3e8840d95eac9161278491869190614b3d565b60405180910390a16040805160028082526060820183528492849291906020830190803683370190505097509750975050505050509750975097945050505050565b6127ed816000815181106127d657fe5b60200260200101516127e86001612b71565b612ed8565b816000815181106127fa57fe5b6020026020010181815250506121878160018151811061281657fe5b60200260200101516127e86000612b71565b604080516002808252606080830184529260208301908036833701905050905061287b7f00000000000000000000000000000000000000000000000000000000000000006128766001612b71565b613979565b8160008151811061288857fe5b6020026020010181815250506128c27f00000000000000000000000000000000000000000000000000000000000000006128766000612b71565b816001815181106128cf57fe5b60200260200101818152505090565b600073__GyroECLPMath__________________________63c7fe78d086858561290689613a20565b6040518563ffffffff1660e01b815260040161292594939291906148d7565b60206040518083038186803b15801561293d57600080fd5b505af4158015612951573d6000803e3d6000fd5b505050506040513d601f19601f820116820180604052508101906129759190614724565b95945050505050565b60007f00000000000000000000000000000000000000000000000000000000000000006001600160a01b031615612a4d57612a4a7f00000000000000000000000000000000000000000000000000000000000000006001600160a01b031663679aefce6040518163ffffffff1660e01b815260040160206040518083038186803b158015612a0b57600080fd5b505afa158015612a1f573d6000803e3d6000fd5b505050506040513d601f19601f82011682018060405250810190612a439190614724565b839061373d565b91505b7f00000000000000000000000000000000000000000000000000000000000000006001600160a01b031615612b1a57612b177f00000000000000000000000000000000000000000000000000000000000000006001600160a01b031663679aefce6040518163ffffffff1660e01b815260040160206040518083038186803b158015612ad857600080fd5b505afa158015612aec573d6000803e3d6000fd5b505050506040513d601f19601f82011682018060405250810190612b109190614724565b8390612337565b91505b5090565b62461bcd60e51b6000908152602060045260076024526642414c23000030600a808404818106603090810160081b95839006959095019082900491820690940160101b939093010160c81b604452606490fd5b60008060008315612bc657507f000000000000000000000000000000000000000000000000000000000000000090507f0000000000000000000000000000000000000000000000000000000000000000612c0c565b507f000000000000000000000000000000000000000000000000000000000000000090507f00000000000000000000000000000000000000000000000000000000000000005b6001600160a01b038216156107f357612c96826001600160a01b031663679aefce6040518163ffffffff1660e01b815260040160206040518083038186803b158015612c5757600080fd5b505afa158015612c6b573d6000803e3d6000fd5b505050506040513d601f19601f82011682018060405250810190612c8f9190614724565b829061373d565b949350505050565b60006107f3838361373d565b60408051600280825260608083018452926020830190803683370190505090508115612d09578381600081518110612cde57fe5b6020026020010181815250508281600181518110612cf857fe5b6020026020010181815250506107f3565b8281600081518110612d1757fe5b6020026020010181815250508381600181518110612d3157fe5b6020026020010181815250509392505050565b6000828202831580612d5e575082848281612d5b57fe5b04145b612d6e57612d6e60006003611d19565b80612d7d57600091505061068a565b670de0b6b3a764000060001982015b0460010191505092915050565b600082821115611b2757611b2760006001611d19565b60608601516040516330ffa11b60e11b815260009173__GyroECLPMath__________________________916361ff423691612df7918a91908a908a908a908a90600401614948565b60206040518083038186803b158015612e0f57600080fd5b505af4158015612e23573d6000803e3d6000fd5b505050506040513d601f19601f82011682018060405250810190612e479190614724565b979650505050505050565b60006107f38383612337565b6060860151604051633b18ce7b60e21b815260009173__GyroECLPMath__________________________9163ec6339ec91612df7918a91908a908a908a908a90600401614948565b60006107f38383612ed8565b6000670de0b6b3a76400008210612eca57600061068a565b50670de0b6b3a76400000390565b600081612eeb57612eeb60006004611d19565b82612ef85750600061068a565b670de0b6b3a764000083810290848281612f0e57fe5b0414612f3257612f32670de0b6b3a7640000858381612f2957fe5b04146005611d19565b826001820381612d8c57fe5b6000612f48611181565b6001600160a01b031663aaabadc56040518163ffffffff1660e01b815260040160206040518083038186803b158015612f8057600080fd5b505afa158015612f94573d6000803e3d6000fd5b505050506040513d601f19601f8201168201806040525081019061080d91906142f1565b6000612fc2611e0f565b82604051602001808061190160f01b81525060020183815260200182815260200192505050604051602081830303815290604052805190602001209050919050565b60006060600061301384613a64565b905061302e600082600381111561302657fe5b1460ce611d19565b600061303985613a83565b905061304781516002611faa565b613050816123b5565b60008061305b612421565b91509150600073__GyroECLPMath__________________________63d83ca8628585856040518463ffffffff1660e01b815260040161309c939291906148a6565b60206040518083038186803b1580156130b457600080fd5b505af41580156130c8573d6000803e3d6000fd5b505050506040513d601f19601f820116820180604052508101906130ec9190614724565b90507faf65f1a72bf4f8bc48e8153858e1f7b307ce39c88361a677c0a79c2a1ae571ef8160405161311d91906149b9565b60405180910390a16000613133858386866128de565b9050600061317b613161838860008151811061314b57fe5b602002602001015161373d90919063ffffffff16565b8760018151811061316e57fe5b6020026020010151611f4b565b60099390935550909b939a509298505050505050505050565b611a288282613b37565b6001600160a01b03918216600090815260016020908152604080832093909416825291909152205490565b604080516002808252606080830184529260009291906020830190803683370190505090506131f86001613bcc565b8160008151811061320557fe5b60200260200101818152505061321b6000613bcc565b8160018151811061322857fe5b6020908102919091010152905090565b60028151101561324757610752565b60008160008151811061325657fe5b602002602001015190506000600190505b8251811015611b0457600083828151811061327e57fe5b602002602001015190506132a7816001600160a01b0316846001600160a01b0316106065611d19565b9150600101613267565b81611a2857611a2881613c20565b60006107f36132df83602001518560200151611b4390919063ffffffff16565b835185516132ec91611b43565b90611b7f565b600073ba1ba1ba1ba1ba1ba1ba1ba1ba1ba1ba1ba1ba1b61331161115d565b6001600160a01b03161415801561332c575061332c83613c30565b156133545761333961115d565b6001600160a01b0316336001600160a01b031614905061068a565b61335c612f3e565b6001600160a01b0316639be2a8848484306040518463ffffffff1660e01b815260040180848152602001836001600160a01b03168152602001826001600160a01b03168152602001935050505060206040518083038186803b1580156133c157600080fd5b505afa1580156133d5573d6000803e3d6000fd5b505050506040513d60208110156133eb57600080fd5b5051905061068a565b60006134038484111583611d19565b5050900390565b4690565b600082821c623fffff16621fffff81136134285780612c96565b623fffff19179392505050565b1c637fffffff1690565b1c6103ff1690565b1c60019081161490565b1c67ffffffffffffffff1690565b600080600080613471600954866122b6565b935093509350935061348584848484613c62565b5050505050565b60006060600061349b84613a64565b905060018160038111156134ab57fe5b14156134c5576134bb8585613c88565b90935091506134d0565b6134d0610150612b1e565b509250929050565b6000811561350a5760006134f6846134f08888612d44565b90612ed8565b9050613502868261231f565b915050612c96565b600061351a84610b11888861373d565b90506135268682612d99565b9695505050505050565b600d54600090819081908190613557906001600160a01b03163063045434c560e41b613cba565b600d54613575906001600160a01b03163063045434c560e41b613ce1565b600d546040516321f8a72160e01b81526001600160a01b03909116906321f8a721906135b5906c4759524f5f545245415355525960981b906004016149b9565b60206040518083038186803b1580156135cd57600080fd5b505afa1580156135e1573d6000803e3d6000fd5b505050506040513d601f19601f8201168201806040525081019061360591906142f1565b600d546040516321f8a72160e01b81526001600160a01b03909116906321f8a72190613644906b42414c5f545245415355525960a01b906004016149b9565b60206040518083038186803b15801561365c57600080fd5b505afa158015613670573d6000803e3d6000fd5b505050506040513d601f19601f8201168201806040525081019061369491906142f1565b935093509350935090919293565b6000808686116136b757506000905080613733565b60006136d7856136d16136ca8a8c612d99565b899061373d565b9061373d565b905060006136ef6136e8898b612d99565b879061373d565b905060006136fd8983612d99565b9050600061370b8483612337565b90506000613719888361373d565b905060006137278383612d99565b91975090955050505050505b9550959350505050565b600082820283158061375757508284828161375457fe5b04145b6137675761376760006003611d19565b670de0b6b3a764000081612388565b61378d6001600160a01b038316151561019b611d19565b61379982600083611b04565b6001600160a01b0382166000908152602081905260409020546137bf90826101a16133f4565b6001600160a01b0383166000908152602081905260409020556002546137e59082613d0f565b6002556040805182815290516000916001600160a01b038516917fddf252ad1be2c89b69c2b068fc378daa952ba7f163c4a11628f55a4df523b3ef9181900360200190a35050565b60006060600061383c84613a64565b9050600381600381111561384c57fe5b141561385c576134bb8585613d1d565b6134d0610136612b1e565b60408051606081018252600a5460ff81161515825261010081046001600160781b031660208301819052600160801b9091046001600160801b031692820192909252906138b4858561231f565b11156040518060400160405280601a81526020017f6f7665722061646472657373206c6971756964697479206361700000000000008152509061390a5760405162461bcd60e51b81526004016106e19190614a03565b5060408101516001600160801b0316613923858461231f565b11156040518060400160405280601981526020017f6f76657220676c6f62616c206c69717569646974792063617000000000000000815250906134855760405162461bcd60e51b81526004016106e19190614a03565b6000806000613986611181565b6001600160a01b031663b05f8e4861399c61082b565b876040518363ffffffff1660e01b81526004016139ba9291906149c2565b60806040518083038186803b1580156139d257600080fd5b505afa1580156139e6573d6000803e3d6000fd5b505050506040513d601f19601f82011682018060405250810190613a0a919061473c565b505081810194509092509050612975838561373d565b6000600160ff1b8210612b1a5760405162461bcd60e51b8152600401808060200182810382526028815260200180614b936028913960400191505060405180910390fd5b6000818060200190516020811015613a7b57600080fd5b505192915050565b6060818060200190516040811015613a9a57600080fd5b815160208301805160405192949293830192919084640100000000821115613ac157600080fd5b908301906020820185811115613ad657600080fd5b8251866020820283011164010000000082111715613af357600080fd5b82525081516020918201928201910280838360005b83811015613b20578181015183820152602001613b08565b505050509190910160405250929695505050505050565b613b4360008383611b04565b600254613b509082611f4b565b6002556001600160a01b038216600090815260208190526040902054613b769082611f4b565b6001600160a01b0383166000818152602081815260408083209490945583518581529351929391927fddf252ad1be2c89b69c2b068fc378daa952ba7f163c4a11628f55a4df523b3ef9281900390910190a35050565b600081613bf9577f000000000000000000000000000000000000000000000000000000000000000061068a565b507f0000000000000000000000000000000000000000000000000000000000000000919050565b610752816223aca960e91b613d42565b6000613c42631c74c91760e11b61109e565b82148061068a5750613c5a6350dd6ed960e01b61109e565b909114919050565b8315613c7257613c728285613194565b8215613c8257613c828184613194565b50505050565b600060606000613c9784613da3565b90506000613cad8683613ca8610755565b613dc5565b9196919550909350505050565b6000612c96847550524f544f434f4c5f535741505f4645455f5045524360501b8486613e4b565b6000612c96847f50524f544f434f4c5f4645455f4759524f5f504f5254494f4e000000000000008486613e4b565b60006107f3838360016133f4565b600060606000613d2c84613da3565b90506000613cad8683613d3d610755565b6140f8565b62461bcd60e51b600090815260206004526007602452600a808404818106603090810160081b958390069590950190829004918206850160101b01602363ffffff0060e086901c160160181b0190930160c81b60445260e882901c90606490fd5b6000818060200190516040811015613dba57600080fd5b506020015192915050565b6060835167ffffffffffffffff81118015613ddf57600080fd5b50604051908082528060200260200182016040528015613e09578160200160208202803683370190505b50905060005b845181101561166e57613e2c83610b118688858151811061314b57fe5b828281518110613e3857fe5b6020908102919091010152600101613e0f565b6040805160208082018690526001600160a01b03808516838501528351808403850181526060840180865281519184019190912063696eb37560e01b909152606484018190529351600094939189169263696eb3759260848082019391829003018186803b158015613ebc57600080fd5b505afa158015613ed0573d6000803e3d6000fd5b505050506040513d6020811015613ee657600080fd5b505115613f6657856001600160a01b031663bd02d0f5826040518263ffffffff1660e01b81526004018082815260200191505060206040518083038186803b158015613f3157600080fd5b505afa158015613f45573d6000803e3d6000fd5b505050506040513d6020811015613f5b57600080fd5b50519150612c969050565b6040805160208082018890528183018790528251808303840181526060830180855281519183019190912063696eb37560e01b9091526064830181905292516001600160a01b038a169263696eb375926084808301939192829003018186803b158015613fd257600080fd5b505afa158015613fe6573d6000803e3d6000fd5b505050506040513d6020811015613ffc57600080fd5b50511561407d57866001600160a01b031663bd02d0f5826040518263ffffffff1660e01b81526004018082815260200191505060206040518083038186803b15801561404757600080fd5b505afa15801561405b573d6000803e3d6000fd5b505050506040513d602081101561407157600080fd5b50519250612c96915050565b866001600160a01b031663bd02d0f5876040518263ffffffff1660e01b81526004018082815260200191505060206040518083038186803b1580156140c157600080fd5b505afa1580156140d5573d6000803e3d6000fd5b505050506040513d60208110156140eb57600080fd5b5051979650505050505050565b6060835167ffffffffffffffff8111801561411257600080fd5b5060405190808252806020026020018201604052801561413c578160200160208202803683370190505b50905060005b845181101561166e57614175836134f08688858151811061415f57fe5b6020026020010151612d4490919063ffffffff16565b82828151811061418157fe5b6020908102919091010152600101614142565b604080516060810182526000808252602082018190529181019190915290565b6040518060a0016040528060008152602001600081526020016000815260200160008152602001600081525090565b6040518060e001604052806141f661422c565b815260200161420361422c565b815260200160008152602001600081526020016000815260200160008152602001600081525090565b604051806040016040528060008152602001600081525090565b8035610ce581614b7d565b80358015158114610ce557600080fd5b600082601f830112614271578081fd5b813567ffffffffffffffff81111561428557fe5b614298601f8201601f1916602001614b59565b8181528460208386010111156142ac578283fd5b816020850160208301379081016020019190915292915050565b803560028110610ce557600080fd5b6000602082840312156142e6578081fd5b81356107f381614b7d565b600060208284031215614302578081fd5b81516107f381614b7d565b6000806040838503121561431f578081fd5b823561432a81614b7d565b9150602083013561433a81614b7d565b809150509250929050565b600080600060608486031215614359578081fd5b833561436481614b7d565b9250602084013561437481614b7d565b929592945050506040919091013590565b600080600080600080600060e0888a03121561439f578283fd5b87356143aa81614b7d565b965060208801356143ba81614b7d565b95506040880135945060608801359350608088013560ff811681146143dd578384fd5b9699959850939692959460a0840135945060c09093013592915050565b6000806040838503121561440c578182fd5b823561441781614b7d565b946020939093013593505050565b600060208284031215614436578081fd5b6107f382614251565b600080600080600080600060e0888a031215614459578081fd5b87359650602088013561446b81614b7d565b9550604088013561447b81614b7d565b9450606088013567ffffffffffffffff80821115614497578283fd5b818a0191508a601f8301126144aa578283fd5b8135818111156144b657fe5b602081026144c660208201614b59565b80838252602082019150602086018f60208589010111156144e5578788fd5b8796505b84871015614508578035835260019690960195602092830192016144e9565b50985050505060808a0135945060a08a0135935060c08a013591508082111561452f578283fd5b5061453c8a828b01614261565b91505092959891949750929550565b60006020828403121561455c578081fd5b81356001600160e01b0319811681146107f3578182fd5b60008060408385031215614585578182fd5b505080516020909101519092909150565b6000606082840312156145a7578081fd5b6040516060810181811067ffffffffffffffff821117156145c457fe5b6040526145d083614251565b815260208301356001600160781b03811681146145eb578283fd5b602082015260408301356001600160801b0381168114614609578283fd5b60408201529392505050565b600080600060608486031215614629578081fd5b833567ffffffffffffffff80821115614640578283fd5b8186019150610120808389031215614656578384fd5b61465f81614b59565b905061466a836142c6565b815261467860208401614246565b602082015261468960408401614246565b6040820152606083013560608201526080830135608082015260a083013560a08201526146b860c08401614246565b60c08201526146c960e08401614246565b60e082015261010080840135838111156146e1578586fd5b6146ed8a828701614261565b9183019190915250976020870135975060409096013595945050505050565b60006020828403121561471d578081fd5b5035919050565b600060208284031215614735578081fd5b5051919050565b60008060008060808587031215614751578182fd5b845193506020850151925060408501519150606085015161477181614b7d565b939692955090935050565b6000815180845260208085019450808401835b838110156147ab5781518752958201959082019060010161478f565b509495945050505050565b6147c182825161483b565b60208101516147d3604084018261483b565b5060408101516080830152606081015160a0830152608081015160c083015260a081015160e083015260c08101516101008301525050565b80518252602081015160208301526040810151604083015260608101516060830152608081015160808301525050565b80518252602090810151910152565b6000828483379101908152919050565b6001600160a01b0391909116815260200190565b6000602082526107f3602083018461477c565b600060408252614894604083018561477c565b8281036020840152612975818561477c565b60006101e08083526148ba8184018761477c565b9150506148ca602083018561480b565b612c9660c08301846147b6565b60006102008083526148eb8184018861477c565b9150506148fb602083018661480b565b61490860c08301856147b6565b826101e083015295945050505050565b60006080825261492b608083018661477c565b905061493a602083018561483b565b826060830152949350505050565b600061026080835261495c8184018a61477c565b915050866020830152851515604083015261497a606083018661480b565b6149886101008301856147b6565b612e4761022083018461483b565b901515815260200190565b92151583526020830191909152604082015260600190565b90815260200190565b9182526001600160a01b0316602082015260400190565b9586526020860194909452604085019290925260608401521515608083015260a082015260c00190565b6000602080835283518082850152825b81811015614a2f57858101830151858201604001528201614a13565b81811115614a405783604083870101525b50601f01601f1916929092016040019392505050565b8151151581526020808301516001600160781b0316908201526040918201516001600160801b03169181019190915260600190565b905460ff811615158252600881901c6001600160781b0316602083015260801c604082015260600190565b6101c08101614ac5828561480b565b614ad360a08301845161483b565b6020830151614ae560e084018261483b565b5060408301516101208301526060830151610140830152608083015161016083015260a083015161018083015260c08301516101a08301529392505050565b600083825260406020830152612c96604083018461477c565b918252602082015260400190565b60ff91909116815260200190565b60405181810167ffffffffffffffff81118282101715614b7557fe5b604052919050565b6001600160a01b038116811461075257600080fdfe53616665436173743a2076616c756520646f65736e27742066697420696e20616e20696e74323536a2646970667358221220353142bbbe1bcec84489d54cdac813c5a4e3d6b0e76ed9227a56bf76d66277da64736f6c63430007060033","bytecodeSha1":"94801e136a85ff667ca933aee224bd88a5c812eb","compiler":{"evm_version":"berlin","optimizer":{"enabled":true,"runs":200},"version":"0.7.6+commit.7338295f"},"contractName":"GyroECLPPool","deployedBytecode":"608060405234801561001057600080fd5b50600436106102bb5760003560e01c806374f3b0091161018257806395d89b41116100e9578063aaabadc5116100a2578063d505accf1161007c578063d505accf14610595578063d5c096c4146105a8578063dd62ed3e146105bb578063f89f27ed146105ce576102bb565b8063aaabadc51461057d578063abd13afe14610585578063c0ff1a151461058d576102bb565b806395d89b411461052c57806398d5fdca146105345780639b02cdde1461053c5780639d2c110c14610544578063a457c2d714610557578063a9059cbb1461056a576102bb565b80638456cb591161013b5780638456cb59146104e6578063851c1bb3146104ee578063876f303b1461050157806387ec681714610509578063893d20e81461051c5780638d928af814610524576102bb565b806374f3b0091461046e57806376e54a461461048f5780637be219a2146104a25780637ecebe00146104b85780638002df18146104cb578063828a7c34146104de576102bb565b80633aeae0d311610226578063623a2e75116101df578063623a2e751461042557806362ced0921461042d578063679aefce146104355780636d785a871461043d578063702ec0911461044557806370a082311461045b576102bb565b80633aeae0d3146103b05780633f4ba83a146103c557806344bbdb55146103cd5780634a6b0b15146103e257806355c67628146103fc5780636028bfd414610404576102bb565b806323b872dd1161027857806323b872dd14610352578063313ce567146103655780633644e5151461037a57806338e9922e1461038257806338fff2d014610395578063395093511461039d576102bb565b806306fdde03146102c0578063095ea7b3146102de5780630e608b30146102fe57806316c38b3c1461031357806318160ddd146103265780631c0de0511461033b575b600080fd5b6102c86105e3565b6040516102d59190614a03565b60405180910390f35b6102f16102ec3660046143fa565b610679565b6040516102d59190614996565b61031161030c3660046142d5565b610690565b005b610311610321366004614425565b610741565b61032e610755565b6040516102d591906149b9565b61034361075b565b6040516102d5939291906149a1565b6102f1610360366004614345565b610784565b61036d6107fa565b6040516102d59190614b4b565b61032e610803565b61031161039036600461470c565b610812565b61032e61082b565b6102f16103ab3660046143fa565b61084f565b6103b861088a565b6040516102d59190614a56565b6103116108d5565b6103d56109ca565b6040516102d5919061485a565b6103ea6109d9565b6040516102d5969594939291906149d9565b61032e610a34565b61041761041236600461443f565b610a41565b6040516102d5929190614b24565b61032e610a72565b6103d5610ace565b61032e610af2565b6103d5610b17565b61044d610b26565b6040516102d5929190614b3d565b61032e6104693660046142d5565b610ccb565b61048161047c36600461443f565b610cea565b6040516102d5929190614881565b61031161049d366004614596565b610d7a565b6104aa610ea1565b6040516102d5929190614ab6565b61032e6104c63660046142d5565b610ec1565b6103116104d93660046142d5565b610edc565b6103d5610fc2565b610311610fe6565b61032e6104fc36600461454b565b61109e565b61032e6110f7565b61041761051736600461443f565b611138565b6103d561115d565b6103d5611181565b6102c86111a5565b61032e611206565b61032e6112d1565b61032e610552366004614615565b6112d7565b6102f16105653660046143fa565b611676565b6102f16105783660046143fa565b6116b4565b6103d56116c1565b6103d56116cb565b61032e6116da565b6103116105a3366004614385565b611782565b6104816105b636600461443f565b6118f2565b61032e6105c936600461430d565b6119d7565b6105d6611a14565b6040516102d5919061486e565b60038054604080516020601f600260001961010060018816150201909516949094049384018190048102820181019092528281526060939092909183018282801561066f5780601f106106445761010080835404028352916020019161066f565b820191906000526020600020905b81548152906001019060200180831161065257829003601f168201915b5050505050905090565b6000610686338484611ba8565b5060015b92915050565b600b5460408051808201909152600e81526d1b9bdd08185d5d1a1bdc9a5e995960921b6020820152906001600160a01b031633146106ea5760405162461bcd60e51b81526004016106e19190614a03565b60405180910390fd5b50600b80546001600160a01b0319166001600160a01b0383161790556040517fb8fd9afc34c38fcd13b9a3b7646482eb1fddcefb40af2c70609972816eba32089061073690839061485a565b60405180910390a150565b610749611c0a565b61075281611c38565b50565b60025490565b6000806000610768611cb4565b159250610773611cd1565b915061077d611cf5565b9050909192565b60008061079185336119d7565b90506107b5336001600160a01b03871614806107ad5750838210155b61019e611d19565b6107c0858585611d27565b336001600160a01b038616148015906107db57506000198114155b156107ed576107ed8533858403611ba8565b60019150505b9392505050565b60055460ff1690565b600061080d611e0f565b905090565b61081a611c0a565b610822611ecd565b61075281611ee2565b7f000000000000000000000000000000000000000000000000000000000000000090565b3360008181526001602090815260408083206001600160a01b038716845290915281205490916106869185906108859086611f4b565b611ba8565b610892614194565b5060408051606081018252600a5460ff81161515825261010081046001600160781b03166020830152600160801b90046001600160801b03169181019190915290565b600c546040805180820190915260118152703737ba103830bab9b29036b0b730b3b2b960791b6020820152906001600160a01b031633146109945760405162461bcd60e51b81526004018080602001828103825283818151815260200191508051906020019080838360005b83811015610959578181015183820152602001610941565b50505050905090810190601f1680156109865780820380516001836020036101000a031916815260200191505b509250505060405180910390fd5b5061099f6000610749565b6040517f215385c8bfc731925ec8068d7baa50f6b6f34417cc7804f7273dc2c0b3db279090600090a1565b600d546001600160a01b031681565b600080600080600080600060085490506109f281611f5d565b96506109fd81611f69565b9550610a0881611f76565b9450610a1381611f83565b9350610a1e81611f90565b9250610a2981611f9d565b915050909192939495565b600061080d600854611f9d565b60006060610a5186516002611faa565b610a6689898989898989611fb76121256121a3565b97509795505050505050565b600080610a7d6116da565b90506000610a89610755565b9050600080610a9a600954856122b6565b50919350915060009050610ab882610ab2868661231f565b9061231f565b9050610ac48582612337565b9550505050505090565b7f000000000000000000000000000000000000000000000000000000000000000081565b600061080d610aff610755565b610b11610b0a6116da565b6002612391565b90612337565b600b546001600160a01b031681565b6000807f00000000000000000000000000000000000000000000000000000000000000006001600160a01b0316610b6557670de0b6b3a7640000610bf6565b7f00000000000000000000000000000000000000000000000000000000000000006001600160a01b031663679aefce6040518163ffffffff1660e01b815260040160206040518083038186803b158015610bbe57600080fd5b505afa158015610bd2573d6000803e3d6000fd5b505050506040513d601f19601f82011682018060405250810190610bf69190614724565b91507f00000000000000000000000000000000000000000000000000000000000000006001600160a01b0316610c3457670de0b6b3a7640000610cc5565b7f00000000000000000000000000000000000000000000000000000000000000006001600160a01b031663679aefce6040518163ffffffff1660e01b815260040160206040518083038186803b158015610c8d57600080fd5b505afa158015610ca1573d6000803e3d6000fd5b505050506040513d601f19601f82011682018060405250810190610cc59190614724565b90509091565b6001600160a01b0381166000908152602081905260409020545b919050565b60608088610d14610cf9611181565b6001600160a01b0316336001600160a01b03161460cd611d19565b610d29610d1f61082b565b82146101f4611d19565b610d32876123b5565b6000806000610d468d8d8d8d8d8d8d611fb7565b925092509250610d568c84612417565b610d5f82612125565b610d6881612125565b909c909b509950505050505050505050565b600b5460408051808201909152600e81526d1b9bdd08185d5d1a1bdc9a5e995960921b6020820152906001600160a01b03163314610dcb5760405162461bcd60e51b81526004016106e19190614a03565b50600a5460408051808201909152601081526f1c1bdbdb081a5cc81d5b98d85c1c195960821b60208201529060ff16610e175760405162461bcd60e51b81526004016106e19190614a03565b508051600a8054602084015160408086015160ff19909316941515949094176fffffffffffffffffffffffffffffff0019166101006001600160781b0390921691909102176001600160801b03908116600160801b919092160217815590517f2abf5970d7bc1a2b36eaae52dd2cc353edb0337c7284ef8a01973081b4e044249161073691614a8b565b610ea96141b4565b610eb16141e3565b610eb9612421565b915091509091565b6001600160a01b031660009081526006602052604090205490565b600c546040805180820190915260118152703737ba103830bab9b29036b0b730b3b2b960791b60208201526001600160a01b0390911690338214610f615760405162461bcd60e51b8152602060048201818152835160248401528351909283926044909101919085019080838360008315610959578181015183820152602001610941565b50600c80546001600160a01b0319166001600160a01b03848116918217909255604080519284168352602083019190915280517f1ffccd1fa96f4fb3415df8048a0fd107344e262d2d246c85105e2a3f8f3e81989281900390910190a15050565b7f000000000000000000000000000000000000000000000000000000000000000081565b600c546040805180820190915260118152703737ba103830bab9b29036b0b730b3b2b960791b6020820152906001600160a01b031633146110685760405162461bcd60e51b8152602060048201818152835160248401528351909283926044909101919085019080838360008315610959578181015183820152602001610941565b506110736001610749565b6040517f681eace576127d0553b224436a09801fb47d042942cbff59d7d4ff04d8fa03d790600090a1565b604080517f00000000000000000000000000000000000000000000000000000000000000006020808301919091526001600160e01b03198416828401528251602481840301815260449092019092528051910120919050565b600080611102610755565b905060008061111a6009546111156116da565b6122b6565b509193509150611130905081610ab2858561231f565b935050505090565b6000606061114886516002611faa565b610a66898989898989896126576127c66121a3565b7f000000000000000000000000000000000000000000000000000000000000000090565b7f000000000000000000000000000000000000000000000000000000000000000090565b60048054604080516020601f600260001961010060018816150201909516949094049384018190048102820181019092528281526060939092909183018282801561066f5780601f106106445761010080835404028352916020019161066f565b600080611211612828565b905060008061121e612421565b91509150600073__$4dfb88a4c975276bfeda73b9d8c1ea657b$__63d83ca8628585856040518463ffffffff1660e01b815260040161125f939291906148a6565b60206040518083038186803b15801561127757600080fd5b505af415801561128b573d6000803e3d6000fd5b505050506040513d601f19601f820116820180604052508101906112af9190614724565b90506112bd848285856128de565b94506112c88561297e565b94505050505090565b60095490565b60006112e1611ecd565b83608001516112f1610cf9611181565b6112fc610d1f61082b565b60007f00000000000000000000000000000000000000000000000000000000000000006001600160a01b031686602001516001600160a01b031614801561137857507f00000000000000000000000000000000000000000000000000000000000000006001600160a01b031686604001516001600160a01b0316145b1561138557506001611416565b7f00000000000000000000000000000000000000000000000000000000000000006001600160a01b031686602001516001600160a01b03161480156113ff57507f00000000000000000000000000000000000000000000000000000000000000006001600160a01b031686604001516001600160a01b0316145b1561140c57506000611416565b6114166079612b1e565b600061142182612b71565b9050600061142f8315612b71565b905061143b8783612c9e565b96506114478682612c9e565b95506000611456888886612caa565b9050600080611463612421565b9150915061146f61422c565b60008073__$4dfb88a4c975276bfeda73b9d8c1ea657b$__6378ace8578787876040518463ffffffff1660e01b81526004016114ad939291906148a6565b604080518083038186803b1580156114c457600080fd5b505af41580156114d8573d6000803e3d6000fd5b505050506040513d601f19601f820116820180604052508101906114fc9190614573565b6040805180820190915260029091028201815260208101919091529250600091506115249050565b8c51600181111561153157fe5b14156115dd57600061154f611544610a34565b60608f015190612d44565b905061157161156b828f60600151612d9990919063ffffffff16565b88612c9e565b60608e015260006115868e878b888888612daf565b90507f4e1d56f7310a8c32b2267f756b19ba65019b4890068ce114a25009abe54de5ba8684836040516115bb93929190614918565b60405180910390a16115cd8188612e52565b9a5050505050505050505061166e565b6115eb8c6060015186612c9e565b60608d015260006116008d868a878787612e5e565b90507f4e1d56f7310a8c32b2267f756b19ba65019b4890068ce114a25009abe54de5ba85838360405161163593929190614918565b60405180910390a16116478188612ea6565b905061166361165c611657610a34565b612eb2565b8290612ed8565b995050505050505050505b509392505050565b60008061168333856119d7565b905080831061169d5761169833856000611ba8565b6116aa565b6116aa3385858403611ba8565b5060019392505050565b6000610686338484611d27565b600061080d612f3e565b600c546001600160a01b031681565b6000806116e5612828565b90506000806116f2612421565b604051636c1e543160e11b8152919350915073__$4dfb88a4c975276bfeda73b9d8c1ea657b$__9063d83ca86290611732908690869086906004016148a6565b60206040518083038186803b15801561174a57600080fd5b505af415801561175e573d6000803e3d6000fd5b505050506040513d601f19601f820116820180604052508101906111309190614724565b6117908442111560d1611d19565b6001600160a01b0380881660008181526006602090815260408083205481517f00000000000000000000000000000000000000000000000000000000000000008185015280830195909552948b166060850152608084018a905260a0840185905260c08085018a90528151808603909101815260e0909401905282519201919091209061181c82612fb8565b9050600060018288888860405160008152602001604052604051808581526020018460ff1681526020018381526020018281526020019450505050506020604051602081039080840390855afa15801561187a573d6000803e3d6000fd5b5050604051601f19015191506118bc90506001600160a01b038216158015906118b457508b6001600160a01b0316826001600160a01b0316145b6101f8611d19565b6001600160a01b038b1660009081526006602052604090206001850190556118e58b8b8b611ba8565b5050505050505050505050565b60608088611901610cf9611181565b61190c610d1f61082b565b611914611ecd565b600061191e610755565b61198e5761192e8b8b8b88613004565b94509050611943620f424082101560cc611d19565b6119516000620f4240613194565b61196089620f42408303613194565b611969846127c6565b60408051600280825260608201835290916020830190803683370190505092506119c9565b611997886123b5565b6119a68b8b8b8b8b8b8b612657565b909550935090506119b78982613194565b6119c0846127c6565b6119c983612125565b505097509795505050505050565b60006119e1611181565b6001600160a01b0316826001600160a01b03161415611a03575060001961068a565b611a0d838361319e565b905061068a565b606061080d6131c9565b80611a2881613238565b5050565b611a588160600151600013158015611a505750670de0b6b3a7640000826060015113155b6101636132b1565b611a838160400151600013158015611a505750670de0b6b3a7640000826040015113156101636132b1565b604080518082018252606083015181529082015160208201526000611aa882806132bf565b9050611ad5670de0b6b3a763fc188212801590611acd5750670de0b6b3a76403e88213155b6101646132b1565b611b048360800151600013158015611afc57506a52b7d2dcc80cd2e4000000846080015113155b6101686132b1565b505050565b60006107f383836056611b2d565b6000611b27838311156001611d19565b50900390565b67ffffffffffffffff811b1992909216911b1790565b6000828202831580611b5d575082848281611b5a57fe5b05145b611b6d57611b6d60006003611d19565b670de0b6b3a764000090059392505050565b600082820181831215611b9457838112611b99565b838112155b6107f3576107f3600080611d19565b6001600160a01b03808416600081815260016020908152604080832094871680845294825291829020859055815185815291517f8c5be1e5ebec7d5bd14f71427d1e84f3dd0314c0f7b2291e5b200ac8c7c3b9259281900390910190a3505050565b6000611c216000356001600160e01b03191661109e565b9050610752611c3082336132f2565b610191611d19565b8015611c5857611c53611c49611cd1565b4210610193611d19565b611c6d565b611c6d611c63611cf5565b42106101a9611d19565b6007805482151560ff19909116811790915560408051918252517f9e3a5e37224532dea67b89face185703738a228a6e8a23dee546960180d3be649181900360200190a150565b6000611cbe611cf5565b42118061080d57505060075460ff161590565b7f000000000000000000000000000000000000000000000000000000000000000090565b7f000000000000000000000000000000000000000000000000000000000000000090565b81611a2857611a2881612b1e565b611d3e6001600160a01b0384161515610198611d19565b611d556001600160a01b0383161515610199611d19565b611d60838383611b04565b6001600160a01b038316600090815260208190526040902054611d8690826101a06133f4565b6001600160a01b038085166000908152602081905260408082209390935590841681522054611db59082611f4b565b6001600160a01b038084166000818152602081815260409182902094909455805185815290519193928716927fddf252ad1be2c89b69c2b068fc378daa952ba7f163c4a11628f55a4df523b3ef92918290030190a3505050565b60007f00000000000000000000000000000000000000000000000000000000000000007f00000000000000000000000000000000000000000000000000000000000000007f0000000000000000000000000000000000000000000000000000000000000000611e7c61340a565b3060405160200180868152602001858152602001848152602001838152602001826001600160a01b031681526020019550505050505060405160208183030381529060405280519060200120905090565b611ee0611ed8611cb4565b610192611d19565b565b611ef564e8d4a5100082101560cb611d19565b611f0b67016345785d8a000082111560ca611d19565b600854611f189082611b09565b6008556040517fa9ba3ffe0b6c366b81232caab38605a0699ad5398d6cce76f91ee809e322dafc906107369083906149b9565b60008282016107f38482101583611d19565b600061068a828261340e565b600061068a82601661340e565b600061068a82602c613435565b600061068a82604b61343f565b600061068a826055613447565b600061068a826056613451565b611a288183146067611d19565b6000606080600080611fc7612421565b91509150611fd3611cb4565b156120d857604051636c1e543160e11b815260009073__$4dfb88a4c975276bfeda73b9d8c1ea657b$__9063d83ca86290612016908d90879087906004016148a6565b60206040518083038186803b15801561202e57600080fd5b505af4158015612042573d6000803e3d6000fd5b505050506040513d601f19601f820116820180604052508101906120669190614724565b90506120718161345f565b61207b8a8861348c565b9096509450612094818761208d610755565b60006134d8565b60098190556040517fe1d39caf039c7dc6f364b1e29d1e67c4e330003a43f4991d50cf3e8840d95eac916120ca91849190614b3d565b60405180910390a1506120ee565b6120e2898761348c565b60001960095590955093505b6040805160028082526060820183528792879291906020830190803683370190505094509450945050509750975097945050505050565b61214c8160008151811061213557fe5b60200260200101516121476001612b71565b612337565b8160008151811061215957fe5b6020026020010181815250506121878160018151811061217557fe5b60200260200101516121476000612b71565b8160018151811061219457fe5b60200260200101818152505050565b333014612261576000306001600160a01b03166000366040516121c792919061484a565b6000604051808303816000865af19150503d8060008114612204576040519150601f19603f3d011682016040523d82523d6000602084013e612209565b606091505b50509050806000811461221857fe5b60046000803e6000516001600160e01b0319166343adbafb60e01b8114612243573d6000803e3d6000fd5b506020600460003e604060205260243d03602460403e601c3d016000f35b61226a866123b5565b6000806122808b8b8b8b8b8b8b8b63ffffffff16565b5091509150612292818463ffffffff16565b8051601f1982018390526343adbafb603f1983015260200260231982016044820181fd5b6000806000806000806000806122ca613530565b935093509350935083600014156122ef57600097508796509094509250612316915050565b6000806123068c8c6122ff610755565b89896136a2565b909a509850929650909450505050505b92959194509250565b6000828201838110156107f3576107f3600080611d19565b60008161234a5761234a60006004611d19565b826123575750600061068a565b670de0b6b3a76400008381029084828161236d57fe5b041461237f5761237f60006005611d19565b82818161238857fe5b04949350505050565b60008282026107f38415806123ae5750838583816123ab57fe5b04145b6003611d19565b6123dc816000815181106123c557fe5b60200260200101516123d76001612b71565b61373d565b816000815181106123e957fe5b6020026020010181815250506121878160018151811061240557fe5b60200260200101516123d76000612b71565b611a288282613776565b6124296141b4565b6124316141e3565b7f00000000000000000000000000000000000000000000000000000000000000006080808401919091527f00000000000000000000000000000000000000000000000000000000000000006060808501919091527f00000000000000000000000000000000000000000000000000000000000000006040808601919091527f00000000000000000000000000000000000000000000000000000000000000006020808701919091527f000000000000000000000000000000000000000000000000000000000000000086528451858201517f0000000000000000000000000000000000000000000000000000000000000000818401527f000000000000000000000000000000000000000000000000000000000000000090527f0000000000000000000000000000000000000000000000000000000000000000918101919091527f000000000000000000000000000000000000000000000000000000000000000090527f000000000000000000000000000000000000000000000000000000000000000060c08501527f000000000000000000000000000000000000000000000000000000000000000060a08501527f0000000000000000000000000000000000000000000000000000000000000000928401929092527f0000000000000000000000000000000000000000000000000000000000000000908301527f0000000000000000000000000000000000000000000000000000000000000000908201529091565b6000606080600080612667612421565b91509150600073__$4dfb88a4c975276bfeda73b9d8c1ea657b$__63d83ca8628b85856040518463ffffffff1660e01b81526004016126a8939291906148a6565b60206040518083038186803b1580156126c057600080fd5b505af41580156126d4573d6000803e3d6000fd5b505050506040513d601f19601f820116820180604052508101906126f89190614724565b90506127038161345f565b6000806127108c8a61382d565b600a54919350915060ff161561273a5761273a8261272d8f610ccb565b612735610755565b613867565b61274e8383612747610755565b60016134d8565b60098190556040517fe1d39caf039c7dc6f364b1e29d1e67c4e330003a43f4991d50cf3e8840d95eac9161278491869190614b3d565b60405180910390a16040805160028082526060820183528492849291906020830190803683370190505097509750975050505050509750975097945050505050565b6127ed816000815181106127d657fe5b60200260200101516127e86001612b71565b612ed8565b816000815181106127fa57fe5b6020026020010181815250506121878160018151811061281657fe5b60200260200101516127e86000612b71565b604080516002808252606080830184529260208301908036833701905050905061287b7f00000000000000000000000000000000000000000000000000000000000000006128766001612b71565b613979565b8160008151811061288857fe5b6020026020010181815250506128c27f00000000000000000000000000000000000000000000000000000000000000006128766000612b71565b816001815181106128cf57fe5b60200260200101818152505090565b600073__$4dfb88a4c975276bfeda73b9d8c1ea657b$__63c7fe78d086858561290689613a20565b6040518563ffffffff1660e01b815260040161292594939291906148d7565b60206040518083038186803b15801561293d57600080fd5b505af4158015612951573d6000803e3d6000fd5b505050506040513d601f19601f820116820180604052508101906129759190614724565b95945050505050565b60007f00000000000000000000000000000000000000000000000000000000000000006001600160a01b031615612a4d57612a4a7f00000000000000000000000000000000000000000000000000000000000000006001600160a01b031663679aefce6040518163ffffffff1660e01b815260040160206040518083038186803b158015612a0b57600080fd5b505afa158015612a1f573d6000803e3d6000fd5b505050506040513d601f19601f82011682018060405250810190612a439190614724565b839061373d565b91505b7f00000000000000000000000000000000000000000000000000000000000000006001600160a01b031615612b1a57612b177f00000000000000000000000000000000000000000000000000000000000000006001600160a01b031663679aefce6040518163ffffffff1660e01b815260040160206040518083038186803b158015612ad857600080fd5b505afa158015612aec573d6000803e3d6000fd5b505050506040513d601f19601f82011682018060405250810190612b109190614724565b8390612337565b91505b5090565b62461bcd60e51b6000908152602060045260076024526642414c23000030600a808404818106603090810160081b95839006959095019082900491820690940160101b939093010160c81b604452606490fd5b60008060008315612bc657507f000000000000000000000000000000000000000000000000000000000000000090507f0000000000000000000000000000000000000000000000000000000000000000612c0c565b507f000000000000000000000000000000000000000000000000000000000000000090507f00000000000000000000000000000000000000000000000000000000000000005b6001600160a01b038216156107f357612c96826001600160a01b031663679aefce6040518163ffffffff1660e01b815260040160206040518083038186803b158015612c5757600080fd5b505afa158015612c6b573d6000803e3d6000fd5b505050506040513d601f19601f82011682018060405250810190612c8f9190614724565b829061373d565b949350505050565b60006107f3838361373d565b60408051600280825260608083018452926020830190803683370190505090508115612d09578381600081518110612cde57fe5b6020026020010181815250508281600181518110612cf857fe5b6020026020010181815250506107f3565b8281600081518110612d1757fe5b6020026020010181815250508381600181518110612d3157fe5b6020026020010181815250509392505050565b6000828202831580612d5e575082848281612d5b57fe5b04145b612d6e57612d6e60006003611d19565b80612d7d57600091505061068a565b670de0b6b3a764000060001982015b0460010191505092915050565b600082821115611b2757611b2760006001611d19565b60608601516040516330ffa11b60e11b815260009173__$4dfb88a4c975276bfeda73b9d8c1ea657b$__916361ff423691612df7918a91908a908a908a908a90600401614948565b60206040518083038186803b158015612e0f57600080fd5b505af4158015612e23573d6000803e3d6000fd5b505050506040513d601f19601f82011682018060405250810190612e479190614724565b979650505050505050565b60006107f38383612337565b6060860151604051633b18ce7b60e21b815260009173__$4dfb88a4c975276bfeda73b9d8c1ea657b$__9163ec6339ec91612df7918a91908a908a908a908a90600401614948565b60006107f38383612ed8565b6000670de0b6b3a76400008210612eca57600061068a565b50670de0b6b3a76400000390565b600081612eeb57612eeb60006004611d19565b82612ef85750600061068a565b670de0b6b3a764000083810290848281612f0e57fe5b0414612f3257612f32670de0b6b3a7640000858381612f2957fe5b04146005611d19565b826001820381612d8c57fe5b6000612f48611181565b6001600160a01b031663aaabadc56040518163ffffffff1660e01b815260040160206040518083038186803b158015612f8057600080fd5b505afa158015612f94573d6000803e3d6000fd5b505050506040513d601f19601f8201168201806040525081019061080d91906142f1565b6000612fc2611e0f565b82604051602001808061190160f01b81525060020183815260200182815260200192505050604051602081830303815290604052805190602001209050919050565b60006060600061301384613a64565b905061302e600082600381111561302657fe5b1460ce611d19565b600061303985613a83565b905061304781516002611faa565b613050816123b5565b60008061305b612421565b91509150600073__$4dfb88a4c975276bfeda73b9d8c1ea657b$__63d83ca8628585856040518463ffffffff1660e01b815260040161309c939291906148a6565b60206040518083038186803b1580156130b457600080fd5b505af41580156130c8573d6000803e3d6000fd5b505050506040513d601f19601f820116820180604052508101906130ec9190614724565b90507faf65f1a72bf4f8bc48e8153858e1f7b307ce39c88361a677c0a79c2a1ae571ef8160405161311d91906149b9565b60405180910390a16000613133858386866128de565b9050600061317b613161838860008151811061314b57fe5b602002602001015161373d90919063ffffffff16565b8760018151811061316e57fe5b6020026020010151611f4b565b60099390935550909b939a509298505050505050505050565b611a288282613b37565b6001600160a01b03918216600090815260016020908152604080832093909416825291909152205490565b604080516002808252606080830184529260009291906020830190803683370190505090506131f86001613bcc565b8160008151811061320557fe5b60200260200101818152505061321b6000613bcc565b8160018151811061322857fe5b6020908102919091010152905090565b60028151101561324757610752565b60008160008151811061325657fe5b602002602001015190506000600190505b8251811015611b0457600083828151811061327e57fe5b602002602001015190506132a7816001600160a01b0316846001600160a01b0316106065611d19565b9150600101613267565b81611a2857611a2881613c20565b60006107f36132df83602001518560200151611b4390919063ffffffff16565b835185516132ec91611b43565b90611b7f565b600073ba1ba1ba1ba1ba1ba1ba1ba1ba1ba1ba1ba1ba1b61331161115d565b6001600160a01b03161415801561332c575061332c83613c30565b156133545761333961115d565b6001600160a01b0316336001600160a01b031614905061068a565b61335c612f3e565b6001600160a01b0316639be2a8848484306040518463ffffffff1660e01b815260040180848152602001836001600160a01b03168152602001826001600160a01b03168152602001935050505060206040518083038186803b1580156133c157600080fd5b505afa1580156133d5573d6000803e3d6000fd5b505050506040513d60208110156133eb57600080fd5b5051905061068a565b60006134038484111583611d19565b5050900390565b4690565b600082821c623fffff16621fffff81136134285780612c96565b623fffff19179392505050565b1c637fffffff1690565b1c6103ff1690565b1c60019081161490565b1c67ffffffffffffffff1690565b600080600080613471600954866122b6565b935093509350935061348584848484613c62565b5050505050565b60006060600061349b84613a64565b905060018160038111156134ab57fe5b14156134c5576134bb8585613c88565b90935091506134d0565b6134d0610150612b1e565b509250929050565b6000811561350a5760006134f6846134f08888612d44565b90612ed8565b9050613502868261231f565b915050612c96565b600061351a84610b11888861373d565b90506135268682612d99565b9695505050505050565b600d54600090819081908190613557906001600160a01b03163063045434c560e41b613cba565b600d54613575906001600160a01b03163063045434c560e41b613ce1565b600d546040516321f8a72160e01b81526001600160a01b03909116906321f8a721906135b5906c4759524f5f545245415355525960981b906004016149b9565b60206040518083038186803b1580156135cd57600080fd5b505afa1580156135e1573d6000803e3d6000fd5b505050506040513d601f19601f8201168201806040525081019061360591906142f1565b600d546040516321f8a72160e01b81526001600160a01b03909116906321f8a72190613644906b42414c5f545245415355525960a01b906004016149b9565b60206040518083038186803b15801561365c57600080fd5b505afa158015613670573d6000803e3d6000fd5b505050506040513d601f19601f8201168201806040525081019061369491906142f1565b935093509350935090919293565b6000808686116136b757506000905080613733565b60006136d7856136d16136ca8a8c612d99565b899061373d565b9061373d565b905060006136ef6136e8898b612d99565b879061373d565b905060006136fd8983612d99565b9050600061370b8483612337565b90506000613719888361373d565b905060006137278383612d99565b91975090955050505050505b9550959350505050565b600082820283158061375757508284828161375457fe5b04145b6137675761376760006003611d19565b670de0b6b3a764000081612388565b61378d6001600160a01b038316151561019b611d19565b61379982600083611b04565b6001600160a01b0382166000908152602081905260409020546137bf90826101a16133f4565b6001600160a01b0383166000908152602081905260409020556002546137e59082613d0f565b6002556040805182815290516000916001600160a01b038516917fddf252ad1be2c89b69c2b068fc378daa952ba7f163c4a11628f55a4df523b3ef9181900360200190a35050565b60006060600061383c84613a64565b9050600381600381111561384c57fe5b141561385c576134bb8585613d1d565b6134d0610136612b1e565b60408051606081018252600a5460ff81161515825261010081046001600160781b031660208301819052600160801b9091046001600160801b031692820192909252906138b4858561231f565b11156040518060400160405280601a81526020017f6f7665722061646472657373206c6971756964697479206361700000000000008152509061390a5760405162461bcd60e51b81526004016106e19190614a03565b5060408101516001600160801b0316613923858461231f565b11156040518060400160405280601981526020017f6f76657220676c6f62616c206c69717569646974792063617000000000000000815250906134855760405162461bcd60e51b81526004016106e19190614a03565b6000806000613986611181565b6001600160a01b031663b05f8e4861399c61082b565b876040518363ffffffff1660e01b81526004016139ba9291906149c2565b60806040518083038186803b1580156139d257600080fd5b505afa1580156139e6573d6000803e3d6000fd5b505050506040513d601f19601f82011682018060405250810190613a0a919061473c565b505081810194509092509050612975838561373d565b6000600160ff1b8210612b1a5760405162461bcd60e51b8152600401808060200182810382526028815260200180614b936028913960400191505060405180910390fd5b6000818060200190516020811015613a7b57600080fd5b505192915050565b6060818060200190516040811015613a9a57600080fd5b815160208301805160405192949293830192919084640100000000821115613ac157600080fd5b908301906020820185811115613ad657600080fd5b8251866020820283011164010000000082111715613af357600080fd5b82525081516020918201928201910280838360005b83811015613b20578181015183820152602001613b08565b505050509190910160405250929695505050505050565b613b4360008383611b04565b600254613b509082611f4b565b6002556001600160a01b038216600090815260208190526040902054613b769082611f4b565b6001600160a01b0383166000818152602081815260408083209490945583518581529351929391927fddf252ad1be2c89b69c2b068fc378daa952ba7f163c4a11628f55a4df523b3ef9281900390910190a35050565b600081613bf9577f000000000000000000000000000000000000000000000000000000000000000061068a565b507f0000000000000000000000000000000000000000000000000000000000000000919050565b610752816223aca960e91b613d42565b6000613c42631c74c91760e11b61109e565b82148061068a5750613c5a6350dd6ed960e01b61109e565b909114919050565b8315613c7257613c728285613194565b8215613c8257613c828184613194565b50505050565b600060606000613c9784613da3565b90506000613cad8683613ca8610755565b613dc5565b9196919550909350505050565b6000612c96847550524f544f434f4c5f535741505f4645455f5045524360501b8486613e4b565b6000612c96847f50524f544f434f4c5f4645455f4759524f5f504f5254494f4e000000000000008486613e4b565b60006107f3838360016133f4565b600060606000613d2c84613da3565b90506000613cad8683613d3d610755565b6140f8565b62461bcd60e51b600090815260206004526007602452600a808404818106603090810160081b958390069590950190829004918206850160101b01602363ffffff0060e086901c160160181b0190930160c81b60445260e882901c90606490fd5b6000818060200190516040811015613dba57600080fd5b506020015192915050565b6060835167ffffffffffffffff81118015613ddf57600080fd5b50604051908082528060200260200182016040528015613e09578160200160208202803683370190505b50905060005b845181101561166e57613e2c83610b118688858151811061314b57fe5b828281518110613e3857fe5b6020908102919091010152600101613e0f565b6040805160208082018690526001600160a01b03808516838501528351808403850181526060840180865281519184019190912063696eb37560e01b909152606484018190529351600094939189169263696eb3759260848082019391829003018186803b158015613ebc57600080fd5b505afa158015613ed0573d6000803e3d6000fd5b505050506040513d6020811015613ee657600080fd5b505115613f6657856001600160a01b031663bd02d0f5826040518263ffffffff1660e01b81526004018082815260200191505060206040518083038186803b158015613f3157600080fd5b505afa158015613f45573d6000803e3d6000fd5b505050506040513d6020811015613f5b57600080fd5b50519150612c969050565b6040805160208082018890528183018790528251808303840181526060830180855281519183019190912063696eb37560e01b9091526064830181905292516001600160a01b038a169263696eb375926084808301939192829003018186803b158015613fd257600080fd5b505afa158015613fe6573d6000803e3d6000fd5b505050506040513d6020811015613ffc57600080fd5b50511561407d57866001600160a01b031663bd02d0f5826040518263ffffffff1660e01b81526004018082815260200191505060206040518083038186803b15801561404757600080fd5b505afa15801561405b573d6000803e3d6000fd5b505050506040513d602081101561407157600080fd5b50519250612c96915050565b866001600160a01b031663bd02d0f5876040518263ffffffff1660e01b81526004018082815260200191505060206040518083038186803b1580156140c157600080fd5b505afa1580156140d5573d6000803e3d6000fd5b505050506040513d60208110156140eb57600080fd5b5051979650505050505050565b6060835167ffffffffffffffff8111801561411257600080fd5b5060405190808252806020026020018201604052801561413c578160200160208202803683370190505b50905060005b845181101561166e57614175836134f08688858151811061415f57fe5b6020026020010151612d4490919063ffffffff16565b82828151811061418157fe5b6020908102919091010152600101614142565b604080516060810182526000808252602082018190529181019190915290565b6040518060a0016040528060008152602001600081526020016000815260200160008152602001600081525090565b6040518060e001604052806141f661422c565b815260200161420361422c565b815260200160008152602001600081526020016000815260200160008152602001600081525090565b604051806040016040528060008152602001600081525090565b8035610ce581614b7d565b80358015158114610ce557600080fd5b600082601f830112614271578081fd5b813567ffffffffffffffff81111561428557fe5b614298601f8201601f1916602001614b59565b8181528460208386010111156142ac578283fd5b816020850160208301379081016020019190915292915050565b803560028110610ce557600080fd5b6000602082840312156142e6578081fd5b81356107f381614b7d565b600060208284031215614302578081fd5b81516107f381614b7d565b6000806040838503121561431f578081fd5b823561432a81614b7d565b9150602083013561433a81614b7d565b809150509250929050565b600080600060608486031215614359578081fd5b833561436481614b7d565b9250602084013561437481614b7d565b929592945050506040919091013590565b600080600080600080600060e0888a03121561439f578283fd5b87356143aa81614b7d565b965060208801356143ba81614b7d565b95506040880135945060608801359350608088013560ff811681146143dd578384fd5b9699959850939692959460a0840135945060c09093013592915050565b6000806040838503121561440c578182fd5b823561441781614b7d565b946020939093013593505050565b600060208284031215614436578081fd5b6107f382614251565b600080600080600080600060e0888a031215614459578081fd5b87359650602088013561446b81614b7d565b9550604088013561447b81614b7d565b9450606088013567ffffffffffffffff80821115614497578283fd5b818a0191508a601f8301126144aa578283fd5b8135818111156144b657fe5b602081026144c660208201614b59565b80838252602082019150602086018f60208589010111156144e5578788fd5b8796505b84871015614508578035835260019690960195602092830192016144e9565b50985050505060808a0135945060a08a0135935060c08a013591508082111561452f578283fd5b5061453c8a828b01614261565b91505092959891949750929550565b60006020828403121561455c578081fd5b81356001600160e01b0319811681146107f3578182fd5b60008060408385031215614585578182fd5b505080516020909101519092909150565b6000606082840312156145a7578081fd5b6040516060810181811067ffffffffffffffff821117156145c457fe5b6040526145d083614251565b815260208301356001600160781b03811681146145eb578283fd5b602082015260408301356001600160801b0381168114614609578283fd5b60408201529392505050565b600080600060608486031215614629578081fd5b833567ffffffffffffffff80821115614640578283fd5b8186019150610120808389031215614656578384fd5b61465f81614b59565b905061466a836142c6565b815261467860208401614246565b602082015261468960408401614246565b6040820152606083013560608201526080830135608082015260a083013560a08201526146b860c08401614246565b60c08201526146c960e08401614246565b60e082015261010080840135838111156146e1578586fd5b6146ed8a828701614261565b9183019190915250976020870135975060409096013595945050505050565b60006020828403121561471d578081fd5b5035919050565b600060208284031215614735578081fd5b5051919050565b60008060008060808587031215614751578182fd5b845193506020850151925060408501519150606085015161477181614b7d565b939692955090935050565b6000815180845260208085019450808401835b838110156147ab5781518752958201959082019060010161478f565b509495945050505050565b6147c182825161483b565b60208101516147d3604084018261483b565b5060408101516080830152606081015160a0830152608081015160c083015260a081015160e083015260c08101516101008301525050565b80518252602081015160208301526040810151604083015260608101516060830152608081015160808301525050565b80518252602090810151910152565b6000828483379101908152919050565b6001600160a01b0391909116815260200190565b6000602082526107f3602083018461477c565b600060408252614894604083018561477c565b8281036020840152612975818561477c565b60006101e08083526148ba8184018761477c565b9150506148ca602083018561480b565b612c9660c08301846147b6565b60006102008083526148eb8184018861477c565b9150506148fb602083018661480b565b61490860c08301856147b6565b826101e083015295945050505050565b60006080825261492b608083018661477c565b905061493a602083018561483b565b826060830152949350505050565b600061026080835261495c8184018a61477c565b915050866020830152851515604083015261497a606083018661480b565b6149886101008301856147b6565b612e4761022083018461483b565b901515815260200190565b92151583526020830191909152604082015260600190565b90815260200190565b9182526001600160a01b0316602082015260400190565b9586526020860194909452604085019290925260608401521515608083015260a082015260c00190565b6000602080835283518082850152825b81811015614a2f57858101830151858201604001528201614a13565b81811115614a405783604083870101525b50601f01601f1916929092016040019392505050565b8151151581526020808301516001600160781b0316908201526040918201516001600160801b03169181019190915260600190565b905460ff811615158252600881901c6001600160781b0316602083015260801c604082015260600190565b6101c08101614ac5828561480b565b614ad360a08301845161483b565b6020830151614ae560e084018261483b565b5060408301516101208301526060830151610140830152608083015161016083015260a083015161018083015260c08301516101a08301529392505050565b600083825260406020830152612c96604083018461477c565b918252602082015260400190565b60ff91909116815260200190565b60405181810167ffffffffffffffff81118282101715614b7557fe5b604052919050565b6001600160a01b038116811461075257600080fdfe53616665436173743a2076616c756520646f65736e27742066697420696e20616e20696e74323536a2646970667358221220353142bbbe1bcec84489d54cdac813c5a4e3d6b0e76ed9227a56bf76d66277da64736f6c63430007060033","language":"Solidity","natspec":{"kind":"dev","methods":{"DOMAIN_SEPARATOR()":{"details":"See {IERC20Permit-DOMAIN_SEPARATOR}."},"allowance(address,address)":{"details":"Override to grant the Vault infinite allowance, causing for Pool Tokens to not require approval. This is sound as the Vault already provides authorization mechanisms when initiation token transfers, which this contract inherits."},"approve(address,uint256)":{"details":"See {IERC20-approve}. Requirements: - `spender` cannot be the zero address."},"balanceOf(address)":{"details":"See {IERC20-balanceOf}."},"changePauseManager(address)":{"notice":"Changes the account that is allowed to pause a pool."},"decimals()":{"details":"Returns the number of decimals used to get its user representation. For example, if `decimals` equals `2`, a balance of `505` tokens should be displayed to a user as `5,05` (`505 / 10 ** 2`). Tokens usually opt for a value of 18, imitating the relationship between Ether and Wei. This is the value {ERC20} uses, unless {_setupDecimals} is called. NOTE: This information is only used for _display_ purposes: it in no way affects any of the arithmetic of the contract, including {IERC20-balanceOf} and {IERC20-transfer}."},"decreaseAllowance(address,uint256)":{"details":"Override to allow decreasing allowance by more than the current amount (setting it to zero)"},"getActionId(bytes4)":{"details":"Returns the action identifier associated with the external function described by `selector`."},"getActualSupply()":{"notice":"Effective BPT supply.  This is the same as `totalSupply()` but also accounts for the fact that the pool owes  protocol fees to the pool in the form of unminted LP shares created on the next join/exit,  diluting LPers. Thus, this is the totalSupply() that the next join/exit operation will see.  Equivalent to the respective function in, e.g., WeightedPool, see:  https://github.com/balancer/balancer-v2-monorepo/blob/master/pkg/pool-weighted/contracts/WeightedPool.sol#L325-L344"},"getInvariant()":{"details":"Returns the current value of the invariant. Note: This function is not used internally; it's public, not external, so we can override it cleanly."},"getInvariantDivActualSupply()":{"notice":"Equivalent to but more efficient than `getInvariant().divDown(getActualSupply())`."},"getMiscData()":{"details":"Only `swapFeePercentage` is non-trivial; everything else is 0/false because the oracle is not used. These variables are returned to keep the call signature compatible."},"getPausedState()":{"details":"Returns the current contract pause status, as well as the end times of the Pause Window and Buffer Period."},"getPrice()":{"notice":"Returns the current spot price of token0 quoted in units of token1. When rateProvider{0,1} is provided, the returned price corresponds to tokens *before* rate scaling."},"getRate()":{"details":"This function returns the appreciation of one BPT relative to the underlying tokens. This starts at 1 when the pool is created and grows over time"},"getTokenRates()":{"notice":"Convenience function to fetch the two rates used for scaling the two tokens, as of rateProvider{0,1}. Note that these rates do *not* contain scaling to account for differences in the number of decimals. The rates themselves are always 18-decimals."},"increaseAllowance(address,uint256)":{"details":"Atomically increases the allowance granted to `spender` by the caller. This is an alternative to {approve} that can be used as a mitigation for problems described in {IERC20-approve}. Emits an {Approval} event indicating the updated allowance. Requirements: - `spender` cannot be the zero address."},"name()":{"details":"Returns the name of the token."},"nonces(address)":{"details":"See {IERC20Permit-nonces}."},"onExitPool(bytes32,address,address,uint256[],uint256,uint256,bytes)":{"details":"Called by the Vault when a user calls `IVault.exitPool` to remove liquidity from this Pool. Returns how many tokens the Vault should deduct from the Pool's balances, as well as the amount of protocol fees the Pool owes to the Vault. The Vault will then take tokens from the Pool's balances and send them to `recipient`, as well as collect the reported amount in protocol fees, which the Pool should calculate based on `protocolSwapFeePercentage`. Protocol fees are charged on exit events to guarantee that users exiting the Pool have paid their share. `sender` is the account performing the exit (typically the pool shareholder), and `recipient` is the account to which the Vault will send the proceeds. `balances` contains the total token balances for each token the Pool registered in the Vault, in the same order that `IVault.getPoolTokens` would return. `lastChangeBlock` is the last block in which *any* of the Pool's registered tokens last changed its total balance. `userData` contains any pool-specific instructions needed to perform the calculations, such as the type of exit (e.g., proportional given an amount of pool shares, single-asset, multi-asset, etc.) Contracts implementing this function should check that the caller is indeed the Vault before performing any state-changing operations, such as burning pool shares."},"onJoinPool(bytes32,address,address,uint256[],uint256,uint256,bytes)":{"details":"Called by the Vault when a user calls `IVault.joinPool` to add liquidity to this Pool. Returns how many of each registered token the user should provide, as well as the amount of protocol fees the Pool owes to the Vault. The Vault will then take tokens from `sender` and add them to the Pool's balances, as well as collect the reported amount in protocol fees, which the pool should calculate based on `protocolSwapFeePercentage`. Protocol fees are reported and charged on join events so that the Pool is free of debt whenever new users join. `sender` is the account performing the join (from which tokens will be withdrawn), and `recipient` is the account designated to receive any benefits (typically pool shares). `balances` contains the total balances for each token the Pool registered in the Vault, in the same order that `IVault.getPoolTokens` would return. `lastChangeBlock` is the last block in which *any* of the Pool's registered tokens last changed its total balance. `userData` contains any pool-specific instructions needed to perform the calculations, such as the type of join (e.g., proportional given an amount of pool shares, single-asset, multi-asset, etc.) Contracts implementing this function should check that the caller is indeed the Vault before performing any state-changing operations, such as minting pool shares."},"pause()":{"notice":"Pauses the pool. Can only be called by the pause manager."},"permit(address,address,uint256,uint256,uint8,bytes32,bytes32)":{"details":"See {IERC20Permit-permit}."},"queryExit(bytes32,address,address,uint256[],uint256,uint256,bytes)":{"details":"Returns the amount of BPT that would be burned from `sender` if the `onExitPool` hook were called by the Vault with the same arguments, along with the number of tokens `recipient` would receive. This function is not meant to be called directly, but rather from a helper contract that fetches current Vault data, such as the protocol swap fee percentage and Pool balances. Like `IVault.queryBatchSwap`, this function is not view due to internal implementation details: the caller must explicitly use eth_call instead of eth_sendTransaction."},"queryJoin(bytes32,address,address,uint256[],uint256,uint256,bytes)":{"details":"Returns the amount of BPT that would be granted to `recipient` if the `onJoinPool` hook were called by the Vault with the same arguments, along with the number of tokens `sender` would have to supply. This function is not meant to be called directly, but rather from a helper contract that fetches current Vault data, such as the protocol swap fee percentage and Pool balances. Like `IVault.queryBatchSwap`, this function is not view due to internal implementation details: the caller must explicitly use eth_call instead of eth_sendTransaction."},"symbol()":{"details":"Returns the symbol of the token, usually a shorter version of the name."},"totalSupply()":{"details":"See {IERC20-totalSupply}."},"transfer(address,uint256)":{"details":"See {IERC20-transfer}. Requirements: - `recipient` cannot be the zero address. - the caller must have a balance of at least `amount`."},"transferFrom(address,address,uint256)":{"details":"Override to allow for 'infinite allowance' and let the token owner use `transferFrom` with no self-allowance"},"unpause()":{"notice":"Unpauses the pool. Can only be called by the pause manager."}},"stateVariables":{"_paramsAlpha":{"details":"Parameters of the ECLP pool"},"rateProvider0":{"details":"for rate scaling"}},"version":1},"opcodes":"PUSH1 0x80 PUSH1 0x40 MSTORE CALLVALUE DUP1 ISZERO PUSH2 0x10 JUMPI PUSH1 0x0 DUP1 REVERT JUMPDEST POP PUSH1 0x4 CALLDATASIZE LT PUSH2 0x2BB JUMPI PUSH1 0x0 CALLDATALOAD PUSH1 0xE0 SHR DUP1 PUSH4 0x74F3B009 GT PUSH2 0x182 JUMPI DUP1 PUSH4 0x95D89B41 GT PUSH2 0xE9 JUMPI DUP1 PUSH4 0xAAABADC5 GT PUSH2 0xA2 JUMPI DUP1 PUSH4 0xD505ACCF GT PUSH2 0x7C JUMPI DUP1 PUSH4 0xD505ACCF EQ PUSH2 0x595 JUMPI DUP1 PUSH4 0xD5C096C4 EQ PUSH2 0x5A8 JUMPI DUP1 PUSH4 0xDD62ED3E EQ PUSH2 0x5BB JUMPI DUP1 PUSH4 0xF89F27ED EQ PUSH2 0x5CE JUMPI PUSH2 0x2BB JUMP JUMPDEST DUP1 PUSH4 0xAAABADC5 EQ PUSH2 0x57D JUMPI DUP1 PUSH4 0xABD13AFE EQ PUSH2 0x585 JUMPI DUP1 PUSH4 0xC0FF1A15 EQ PUSH2 0x58D JUMPI PUSH2 0x2BB JUMP JUMPDEST DUP1 PUSH4 0x95D89B41 EQ PUSH2 0x52C JUMPI DUP1 PUSH4 0x98D5FDCA EQ PUSH2 0x534 JUMPI DUP1 PUSH4 0x9B02CDDE EQ PUSH2 0x53C JUMPI DUP1 PUSH4 0x9D2C110C EQ PUSH2 0x544 JUMPI DUP1 PUSH4 0xA457C2D7 EQ PUSH2 0x557 JUMPI DUP1 PUSH4 0xA9059CBB EQ PUSH2 0x56A JUMPI PUSH2 0x2BB JUMP JUMPDEST DUP1 PUSH4 0x8456CB59 GT PUSH2 0x13B JUMPI DUP1 PUSH4 0x8456CB59 EQ PUSH2 0x4E6 JUMPI DUP1 PUSH4 0x851C1BB3 EQ PUSH2 0x4EE JUMPI DUP1 PUSH4 0x876F303B EQ PUSH2 0x501 JUMPI DUP1 PUSH4 0x87EC6817 EQ PUSH2 0x509 JUMPI DUP1 PUSH4 0x893D20E8 EQ PUSH2 0x51C JUMPI DUP1 PUSH4 0x8D928AF8 EQ PUSH2 0x524 JUMPI PUSH2 0x2BB JUMP JUMPDEST DUP1 PUSH4 0x74F3B009 EQ PUSH2 0x46E JUMPI DUP1 PUSH4 0x76E54A46 EQ PUSH2 0x48F JUMPI DUP1 PUSH4 0x7BE219A2 EQ PUSH2 0x4A2 JUMPI DUP1 PUSH4 0x7ECEBE00 EQ PUSH2 0x4B8 JUMPI DUP1 PUSH4 0x8002DF18 EQ PUSH2 0x4CB JUMPI DUP1 PUSH4 0x828A7C34 EQ PUSH2 0x4DE JUMPI PUSH2 0x2BB JUMP JUMPDEST DUP1 PUSH4 0x3AEAE0D3 GT PUSH2 0x226 JUMPI DUP1 PUSH4 0x623A2E75 GT PUSH2 0x1DF JUMPI DUP1 PUSH4 0x623A2E75 EQ PUSH2 0x425 JUMPI DUP1 PUSH4 0x62CED092 EQ PUSH2 0x42D JUMPI DUP1 PUSH4 0x679AEFCE EQ PUSH2 0x435 JUMPI DUP1 PUSH4 0x6D785A87 EQ PUSH2 0x43D JUMPI DUP1 PUSH4 0x702EC091 EQ PUSH2 0x445 JUMPI DUP1 PUSH4 0x70A08231 EQ PUSH2 0x45B JUMPI PUSH2 0x2BB JUMP JUMPDEST DUP1 PUSH4 0x3AEAE0D3 EQ PUSH2 0x3B0 JUMPI DUP1 PUSH4 0x3F4BA83A EQ PUSH2 0x3C5 JUMPI DUP1 PUSH4 0x44BBDB55 EQ PUSH2 0x3CD JUMPI DUP1 PUSH4 0x4A6B0B15 EQ PUSH2 0x3E2 JUMPI DUP1 PUSH4 0x55C67628 EQ PUSH2 0x3FC JUMPI DUP1 PUSH4 0x6028BFD4 EQ PUSH2 0x404 JUMPI PUSH2 0x2BB JUMP JUMPDEST DUP1 PUSH4 0x23B872DD GT PUSH2 0x278 JUMPI DUP1 PUSH4 0x23B872DD EQ PUSH2 0x352 JUMPI DUP1 PUSH4 0x313CE567 EQ PUSH2 0x365 JUMPI DUP1 PUSH4 0x3644E515 EQ PUSH2 0x37A JUMPI DUP1 PUSH4 0x38E9922E EQ PUSH2 0x382 JUMPI DUP1 PUSH4 0x38FFF2D0 EQ PUSH2 0x395 JUMPI DUP1 PUSH4 0x39509351 EQ PUSH2 0x39D JUMPI PUSH2 0x2BB JUMP JUMPDEST DUP1 PUSH4 0x6FDDE03 EQ PUSH2 0x2C0 JUMPI DUP1 PUSH4 0x95EA7B3 EQ PUSH2 0x2DE JUMPI DUP1 PUSH4 0xE608B30 EQ PUSH2 0x2FE JUMPI DUP1 PUSH4 0x16C38B3C EQ PUSH2 0x313 JUMPI DUP1 PUSH4 0x18160DDD EQ PUSH2 0x326 JUMPI DUP1 PUSH4 0x1C0DE051 EQ PUSH2 0x33B JUMPI JUMPDEST PUSH1 0x0 DUP1 REVERT JUMPDEST PUSH2 0x2C8 PUSH2 0x5E3 JUMP JUMPDEST PUSH1 0x40 MLOAD PUSH2 0x2D5 SWAP2 SWAP1 PUSH2 0x4A03 JUMP JUMPDEST PUSH1 0x40 MLOAD DUP1 SWAP2 SUB SWAP1 RETURN JUMPDEST PUSH2 0x2F1 PUSH2 0x2EC CALLDATASIZE PUSH1 0x4 PUSH2 0x43FA JUMP JUMPDEST PUSH2 0x679 JUMP JUMPDEST PUSH1 0x40 MLOAD PUSH2 0x2D5 SWAP2 SWAP1 PUSH2 0x4996 JUMP JUMPDEST PUSH2 0x311 PUSH2 0x30C CALLDATASIZE PUSH1 0x4 PUSH2 0x42D5 JUMP JUMPDEST PUSH2 0x690 JUMP JUMPDEST STOP JUMPDEST PUSH2 0x311 PUSH2 0x321 CALLDATASIZE PUSH1 0x4 PUSH2 0x4425 JUMP JUMPDEST PUSH2 0x741 JUMP JUMPDEST PUSH2 0x32E PUSH2 0x755 JUMP JUMPDEST PUSH1 0x40 MLOAD PUSH2 0x2D5 SWAP2 SWAP1 PUSH2 0x49B9 JUMP JUMPDEST PUSH2 0x343 PUSH2 0x75B JUMP JUMPDEST PUSH1 0x40 MLOAD PUSH2 0x2D5 SWAP4 SWAP3 SWAP2 SWAP1 PUSH2 0x49A1 JUMP JUMPDEST PUSH2 0x2F1 PUSH2 0x360 CALLDATASIZE PUSH1 0x4 PUSH2 0x4345 JUMP JUMPDEST PUSH2 0x784 JUMP JUMPDEST PUSH2 0x36D PUSH2 0x7FA JUMP JUMPDEST PUSH1 0x40 MLOAD PUSH2 0x2D5 SWAP2 SWAP1 PUSH2 0x4B4B JUMP JUMPDEST PUSH2 0x32E PUSH2 0x803 JUMP JUMPDEST PUSH2 0x311 PUSH2 0x390 CALLDATASIZE PUSH1 0x4 PUSH2 0x470C JUMP JUMPDEST PUSH2 0x812 JUMP JUMPDEST PUSH2 0x32E PUSH2 0x82B JUMP JUMPDEST PUSH2 0x2F1 PUSH2 0x3AB CALLDATASIZE PUSH1 0x4 PUSH2 0x43FA JUMP JUMPDEST PUSH2 0x84F JUMP JUMPDEST PUSH2 0x3B8 PUSH2 0x88A JUMP JUMPDEST PUSH1 0x40 MLOAD PUSH2 0x2D5 SWAP2 SWAP1 PUSH2 0x4A56 JUMP JUMPDEST PUSH2 0x311 PUSH2 0x8D5 JUMP JUMPDEST PUSH2 0x3D5 PUSH2 0x9CA JUMP JUMPDEST PUSH1 0x40 MLOAD PUSH2 0x2D5 SWAP2 SWAP1 PUSH2 0x485A JUMP JUMPDEST PUSH2 0x3EA PUSH2 0x9D9 JUMP JUMPDEST PUSH1 0x40 MLOAD PUSH2 0x2D5 SWAP7 SWAP6 SWAP5 SWAP4 SWAP3 SWAP2 SWAP1 PUSH2 0x49D9 JUMP JUMPDEST PUSH2 0x32E PUSH2 0xA34 JUMP JUMPDEST PUSH2 0x417 PUSH2 0x412 CALLDATASIZE PUSH1 0x4 PUSH2 0x443F JUMP JUMPDEST PUSH2 0xA41 JUMP JUMPDEST PUSH1 0x40 MLOAD PUSH2 0x2D5 SWAP3 SWAP2 SWAP1 PUSH2 0x4B24 JUMP JUMPDEST PUSH2 0x32E PUSH2 0xA72 JUMP JUMPDEST PUSH2 0x3D5 PUSH2 0xACE JUMP JUMPDEST PUSH2 0x32E PUSH2 0xAF2 JUMP JUMPDEST PUSH2 0x3D5 PUSH2 0xB17 JUMP JUMPDEST PUSH2 0x44D PUSH2 0xB26 JUMP JUMPDEST PUSH1 0x40 MLOAD PUSH2 0x2D5 SWAP3 SWAP2 SWAP1 PUSH2 0x4B3D JUMP JUMPDEST PUSH2 0x32E PUSH2 0x469 CALLDATASIZE PUSH1 0x4 PUSH2 0x42D5 JUMP JUMPDEST PUSH2 0xCCB JUMP JUMPDEST PUSH2 0x481 PUSH2 0x47C CALLDATASIZE PUSH1 0x4 PUSH2 0x443F JUMP JUMPDEST PUSH2 0xCEA JUMP JUMPDEST PUSH1 0x40 MLOAD PUSH2 0x2D5 SWAP3 SWAP2 SWAP1 PUSH2 0x4881 JUMP JUMPDEST PUSH2 0x311 PUSH2 0x49D CALLDATASIZE PUSH1 0x4 PUSH2 0x4596 JUMP JUMPDEST PUSH2 0xD7A JUMP JUMPDEST PUSH2 0x4AA PUSH2 0xEA1 JUMP JUMPDEST PUSH1 0x40 MLOAD PUSH2 0x2D5 SWAP3 SWAP2 SWAP1 PUSH2 0x4AB6 JUMP JUMPDEST PUSH2 0x32E PUSH2 0x4C6 CALLDATASIZE PUSH1 0x4 PUSH2 0x42D5 JUMP JUMPDEST PUSH2 0xEC1 JUMP JUMPDEST PUSH2 0x311 PUSH2 0x4D9 CALLDATASIZE PUSH1 0x4 PUSH2 0x42D5 JUMP JUMPDEST PUSH2 0xEDC JUMP JUMPDEST PUSH2 0x3D5 PUSH2 0xFC2 JUMP JUMPDEST PUSH2 0x311 PUSH2 0xFE6 JUMP JUMPDEST PUSH2 0x32E PUSH2 0x4FC CALLDATASIZE PUSH1 0x4 PUSH2 0x454B JUMP JUMPDEST PUSH2 0x109E JUMP JUMPDEST PUSH2 0x32E PUSH2 0x10F7 JUMP JUMPDEST PUSH2 0x417 PUSH2 0x517 CALLDATASIZE PUSH1 0x4 PUSH2 0x443F JUMP JUMPDEST PUSH2 0x1138 JUMP JUMPDEST PUSH2 0x3D5 PUSH2 0x115D JUMP JUMPDEST PUSH2 0x3D5 PUSH2 0x1181 JUMP JUMPDEST PUSH2 0x2C8 PUSH2 0x11A5 JUMP JUMPDEST PUSH2 0x32E PUSH2 0x1206 JUMP JUMPDEST PUSH2 0x32E PUSH2 0x12D1 JUMP JUMPDEST PUSH2 0x32E PUSH2 0x552 CALLDATASIZE PUSH1 0x4 PUSH2 0x4615 JUMP JUMPDEST PUSH2 0x12D7 JUMP JUMPDEST PUSH2 0x2F1 PUSH2 0x565 CALLDATASIZE PUSH1 0x4 PUSH2 0x43FA JUMP JUMPDEST PUSH2 0x1676 JUMP JUMPDEST PUSH2 0x2F1 PUSH2 0x578 CALLDATASIZE PUSH1 0x4 PUSH2 0x43FA JUMP JUMPDEST PUSH2 0x16B4 JUMP JUMPDEST PUSH2 0x3D5 PUSH2 0x16C1 JUMP JUMPDEST PUSH2 0x3D5 PUSH2 0x16CB JUMP JUMPDEST PUSH2 0x32E PUSH2 0x16DA JUMP JUMPDEST PUSH2 0x311 PUSH2 0x5A3 CALLDATASIZE PUSH1 0x4 PUSH2 0x4385 JUMP JUMPDEST PUSH2 0x1782 JUMP JUMPDEST PUSH2 0x481 PUSH2 0x5B6 CALLDATASIZE PUSH1 0x4 PUSH2 0x443F JUMP JUMPDEST PUSH2 0x18F2 JUMP JUMPDEST PUSH2 0x32E PUSH2 0x5C9 CALLDATASIZE PUSH1 0x4 PUSH2 0x430D JUMP JUMPDEST PUSH2 0x19D7 JUMP JUMPDEST PUSH2 0x5D6 PUSH2 0x1A14 JUMP JUMPDEST PUSH1 0x40 MLOAD PUSH2 0x2D5 SWAP2 SWAP1 PUSH2 0x486E JUMP JUMPDEST PUSH1 0x3 DUP1 SLOAD PUSH1 0x40 DUP1 MLOAD PUSH1 0x20 PUSH1 0x1F PUSH1 0x2 PUSH1 0x0 NOT PUSH2 0x100 PUSH1 0x1 DUP9 AND ISZERO MUL ADD SWAP1 SWAP6 AND SWAP5 SWAP1 SWAP5 DIV SWAP4 DUP5 ADD DUP2 SWAP1 DIV DUP2 MUL DUP3 ADD DUP2 ADD SWAP1 SWAP3 MSTORE DUP3 DUP2 MSTORE PUSH1 0x60 SWAP4 SWAP1 SWAP3 SWAP1 SWAP2 DUP4 ADD DUP3 DUP3 DUP1 ISZERO PUSH2 0x66F JUMPI DUP1 PUSH1 0x1F LT PUSH2 0x644 JUMPI PUSH2 0x100 DUP1 DUP4 SLOAD DIV MUL DUP4 MSTORE SWAP2 PUSH1 0x20 ADD SWAP2 PUSH2 0x66F JUMP JUMPDEST DUP3 ADD SWAP2 SWAP1 PUSH1 0x0 MSTORE PUSH1 0x20 PUSH1 0x0 KECCAK256 SWAP1 JUMPDEST DUP2 SLOAD DUP2 MSTORE SWAP1 PUSH1 0x1 ADD SWAP1 PUSH1 0x20 ADD DUP1 DUP4 GT PUSH2 0x652 JUMPI DUP3 SWAP1 SUB PUSH1 0x1F AND DUP3 ADD SWAP2 JUMPDEST POP POP POP POP POP SWAP1 POP SWAP1 JUMP JUMPDEST PUSH1 0x0 PUSH2 0x686 CALLER DUP5 DUP5 PUSH2 0x1BA8 JUMP JUMPDEST POP PUSH1 0x1 JUMPDEST SWAP3 SWAP2 POP POP JUMP JUMPDEST PUSH1 0xB SLOAD PUSH1 0x40 DUP1 MLOAD DUP1 DUP3 ADD SWAP1 SWAP2 MSTORE PUSH1 0xE DUP2 MSTORE PUSH14 0x1B9BDD08185D5D1A1BDC9A5E9959 PUSH1 0x92 SHL PUSH1 0x20 DUP3 ADD MSTORE SWAP1 PUSH1 0x1 PUSH1 0x1 PUSH1 0xA0 SHL SUB AND CALLER EQ PUSH2 0x6EA JUMPI PUSH1 0x40 MLOAD PUSH3 0x461BCD PUSH1 0xE5 SHL DUP2 MSTORE PUSH1 0x4 ADD PUSH2 0x6E1 SWAP2 SWAP1 PUSH2 0x4A03 JUMP JUMPDEST PUSH1 0x40 MLOAD DUP1 SWAP2 SUB SWAP1 REVERT JUMPDEST POP PUSH1 0xB DUP1 SLOAD PUSH1 0x1 PUSH1 0x1 PUSH1 0xA0 SHL SUB NOT AND PUSH1 0x1 PUSH1 0x1 PUSH1 0xA0 SHL SUB DUP4 AND OR SWAP1 SSTORE PUSH1 0x40 MLOAD PUSH32 0xB8FD9AFC34C38FCD13B9A3B7646482EB1FDDCEFB40AF2C70609972816EBA3208 SWAP1 PUSH2 0x736 SWAP1 DUP4 SWAP1 PUSH2 0x485A JUMP JUMPDEST PUSH1 0x40 MLOAD DUP1 SWAP2 SUB SWAP1 LOG1 POP JUMP JUMPDEST PUSH2 0x749 PUSH2 0x1C0A JUMP JUMPDEST PUSH2 0x752 DUP2 PUSH2 0x1C38 JUMP JUMPDEST POP JUMP JUMPDEST PUSH1 0x2 SLOAD SWAP1 JUMP JUMPDEST PUSH1 0x0 DUP1 PUSH1 0x0 PUSH2 0x768 PUSH2 0x1CB4 JUMP JUMPDEST ISZERO SWAP3 POP PUSH2 0x773 PUSH2 0x1CD1 JUMP JUMPDEST SWAP2 POP PUSH2 0x77D PUSH2 0x1CF5 JUMP JUMPDEST SWAP1 POP SWAP1 SWAP2 SWAP3 JUMP JUMPDEST PUSH1 0x0 DUP1 PUSH2 0x791 DUP6 CALLER PUSH2 0x19D7 JUMP JUMPDEST SWAP1 POP PUSH2 0x7B5 CALLER PUSH1 0x1 PUSH1 0x1 PUSH1 0xA0 SHL SUB DUP8 AND EQ DUP1 PUSH2 0x7AD JUMPI POP DUP4 DUP3 LT ISZERO JUMPDEST PUSH2 0x19E PUSH2 0x1D19 JUMP JUMPDEST PUSH2 0x7C0 DUP6 DUP6 DUP6 PUSH2 0x1D27 JUMP JUMPDEST CALLER PUSH1 0x1 PUSH1 0x1 PUSH1 0xA0 SHL SUB DUP7 AND EQ DUP1 ISZERO SWAP1 PUSH2 0x7DB JUMPI POP PUSH1 0x0 NOT DUP2 EQ ISZERO JUMPDEST ISZERO PUSH2 0x7ED JUMPI PUSH2 0x7ED DUP6 CALLER DUP6 DUP5 SUB PUSH2 0x1BA8 JUMP JUMPDEST PUSH1 0x1 SWAP2 POP POP JUMPDEST SWAP4 SWAP3 POP POP POP JUMP JUMPDEST PUSH1 0x5 SLOAD PUSH1 0xFF AND SWAP1 JUMP JUMPDEST PUSH1 0x0 PUSH2 0x80D PUSH2 0x1E0F JUMP JUMPDEST SWAP1 POP SWAP1 JUMP JUMPDEST PUSH2 0x81A PUSH2 0x1C0A JUMP JUMPDEST PUSH2 0x822 PUSH2 0x1ECD JUMP JUMPDEST PUSH2 0x752 DUP2 PUSH2 0x1EE2 JUMP JUMPDEST PUSH32 0x0 SWAP1 JUMP JUMPDEST CALLER PUSH1 0x0 DUP2 DUP2 MSTORE PUSH1 0x1 PUSH1 0x20 SWAP1 DUP2 MSTORE PUSH1 0x40 DUP1 DUP4 KECCAK256 PUSH1 0x1 PUSH1 0x1 PUSH1 0xA0 SHL SUB DUP8 AND DUP5 MSTORE SWAP1 SWAP2 MSTORE DUP2 KECCAK256 SLOAD SWAP1 SWAP2 PUSH2 0x686 SWAP2 DUP6 SWAP1 PUSH2 0x885 SWAP1 DUP7 PUSH2 0x1F4B JUMP JUMPDEST PUSH2 0x1BA8 JUMP JUMPDEST PUSH2 0x892 PUSH2 0x4194 JUMP JUMPDEST POP PUSH1 0x40 DUP1 MLOAD PUSH1 0x60 DUP2 ADD DUP3 MSTORE PUSH1 0xA SLOAD PUSH1 0xFF DUP2 AND ISZERO ISZERO DUP3 MSTORE PUSH2 0x100 DUP2 DIV PUSH1 0x1 PUSH1 0x1 PUSH1 0x78 SHL SUB AND PUSH1 0x20 DUP4 ADD MSTORE PUSH1 0x1 PUSH1 0x80 SHL SWAP1 DIV PUSH1 0x1 PUSH1 0x1 PUSH1 0x80 SHL SUB AND SWAP2 DUP2 ADD SWAP2 SWAP1 SWAP2 MSTORE SWAP1 JUMP JUMPDEST PUSH1 0xC SLOAD PUSH1 0x40 DUP1 MLOAD DUP1 DUP3 ADD SWAP1 SWAP2 MSTORE PUSH1 0x11 DUP2 MSTORE PUSH17 0x3737BA103830BAB9B29036B0B730B3B2B9 PUSH1 0x79 SHL PUSH1 0x20 DUP3 ADD MSTORE SWAP1 PUSH1 0x1 PUSH1 0x1 PUSH1 0xA0 SHL SUB AND CALLER EQ PUSH2 0x994 JUMPI PUSH1 0x40 MLOAD PUSH3 0x461BCD PUSH1 0xE5 SHL DUP2 MSTORE PUSH1 0x4 ADD DUP1 DUP1 PUSH1 0x20 ADD DUP3 DUP2 SUB DUP3 MSTORE DUP4 DUP2 DUP2 MLOAD DUP2 MSTORE PUSH1 0x20 ADD SWAP2 POP DUP1 MLOAD SWAP1 PUSH1 0x20 ADD SWAP1 DUP1 DUP4 DUP4 PUSH1 0x0 JUMPDEST DUP4 DUP2 LT ISZERO PUSH2 0x959 JUMPI DUP2 DUP2 ADD MLOAD DUP4 DUP3 ADD MSTORE PUSH1 0x20 ADD PUSH2 0x941 JUMP JUMPDEST POP POP POP POP SWAP1 POP SWAP1 DUP2 ADD SWAP1 PUSH1 0x1F AND DUP1 ISZERO PUSH2 0x986 JUMPI DUP1 DUP3 SUB DUP1 MLOAD PUSH1 0x1 DUP4 PUSH1 0x20 SUB PUSH2 0x100 EXP SUB NOT AND DUP2 MSTORE PUSH1 0x20 ADD SWAP2 POP JUMPDEST POP SWAP3 POP POP POP PUSH1 0x40 MLOAD DUP1 SWAP2 SUB SWAP1 REVERT JUMPDEST POP PUSH2 0x99F PUSH1 0x0 PUSH2 0x749 JUMP JUMPDEST PUSH1 0x40 MLOAD PUSH32 0x215385C8BFC731925EC8068D7BAA50F6B6F34417CC7804F7273DC2C0B3DB2790 SWAP1 PUSH1 0x0 SWAP1 LOG1 JUMP JUMPDEST PUSH1 0xD SLOAD PUSH1 0x1 PUSH1 0x1 PUSH1 0xA0 SHL SUB AND DUP2 JUMP JUMPDEST PUSH1 0x0 DUP1 PUSH1 0x0 DUP1 PUSH1 0x0 DUP1 PUSH1 0x0 PUSH1 0x8 SLOAD SWAP1 POP PUSH2 0x9F2 DUP2 PUSH2 0x1F5D JUMP JUMPDEST SWAP7 POP PUSH2 0x9FD DUP2 PUSH2 0x1F69 JUMP JUMPDEST SWAP6 POP PUSH2 0xA08 DUP2 PUSH2 0x1F76 JUMP JUMPDEST SWAP5 POP PUSH2 0xA13 DUP2 PUSH2 0x1F83 JUMP JUMPDEST SWAP4 POP PUSH2 0xA1E DUP2 PUSH2 0x1F90 JUMP JUMPDEST SWAP3 POP PUSH2 0xA29 DUP2 PUSH2 0x1F9D JUMP JUMPDEST SWAP2 POP POP SWAP1 SWAP2 SWAP3 SWAP4 SWAP5 SWAP6 JUMP JUMPDEST PUSH1 0x0 PUSH2 0x80D PUSH1 0x8 SLOAD PUSH2 0x1F9D JUMP JUMPDEST PUSH1 0x0 PUSH1 0x60 PUSH2 0xA51 DUP7 MLOAD PUSH1 0x2 PUSH2 0x1FAA JUMP JUMPDEST PUSH2 0xA66 DUP10 DUP10 DUP10 DUP10 DUP10 DUP10 DUP10 PUSH2 0x1FB7 PUSH2 0x2125 PUSH2 0x21A3 JUMP JUMPDEST SWAP8 POP SWAP8 SWAP6 POP POP POP POP POP POP JUMP JUMPDEST PUSH1 0x0 DUP1 PUSH2 0xA7D PUSH2 0x16DA JUMP JUMPDEST SWAP1 POP PUSH1 0x0 PUSH2 0xA89 PUSH2 0x755 JUMP JUMPDEST SWAP1 POP PUSH1 0x0 DUP1 PUSH2 0xA9A PUSH1 0x9 SLOAD DUP6 PUSH2 0x22B6 JUMP JUMPDEST POP SWAP2 SWAP4 POP SWAP2 POP PUSH1 0x0 SWAP1 POP PUSH2 0xAB8 DUP3 PUSH2 0xAB2 DUP7 DUP7 PUSH2 0x231F JUMP JUMPDEST SWAP1 PUSH2 0x231F JUMP JUMPDEST SWAP1 POP PUSH2 0xAC4 DUP6 DUP3 PUSH2 0x2337 JUMP JUMPDEST SWAP6 POP POP POP POP POP POP SWAP1 JUMP JUMPDEST PUSH32 0x0 DUP2 JUMP JUMPDEST PUSH1 0x0 PUSH2 0x80D PUSH2 0xAFF PUSH2 0x755 JUMP JUMPDEST PUSH2 0xB11 PUSH2 0xB0A PUSH2 0x16DA JUMP JUMPDEST PUSH1 0x2 PUSH2 0x2391 JUMP JUMPDEST SWAP1 PUSH2 0x2337 JUMP JUMPDEST PUSH1 0xB SLOAD PUSH1 0x1 PUSH1 0x1 PUSH1 0xA0 SHL SUB AND DUP2 JUMP JUMPDEST PUSH1 0x0 DUP1 PUSH32 0x0 PUSH1 0x1 PUSH1 0x1 PUSH1 0xA0 SHL SUB AND PUSH2 0xB65 JUMPI PUSH8 0xDE0B6B3A7640000 PUSH2 0xBF6 JUMP JUMPDEST PUSH32 0x0 PUSH1 0x1 PUSH1 0x1 PUSH1 0xA0 SHL SUB AND PUSH4 0x679AEFCE PUSH1 0x40 MLOAD DUP2 PUSH4 0xFFFFFFFF AND PUSH1 0xE0 SHL DUP2 MSTORE PUSH1 0x4 ADD PUSH1 0x20 PUSH1 0x40 MLOAD DUP1 DUP4 SUB DUP2 DUP7 DUP1 EXTCODESIZE ISZERO DUP1 ISZERO PUSH2 0xBBE JUMPI PUSH1 0x0 DUP1 REVERT JUMPDEST POP GAS STATICCALL ISZERO DUP1 ISZERO PUSH2 0xBD2 JUMPI RETURNDATASIZE PUSH1 0x0 DUP1 RETURNDATACOPY RETURNDATASIZE PUSH1 0x0 REVERT JUMPDEST POP POP POP POP PUSH1 0x40 MLOAD RETURNDATASIZE PUSH1 0x1F NOT PUSH1 0x1F DUP3 ADD AND DUP3 ADD DUP1 PUSH1 0x40 MSTORE POP DUP2 ADD SWAP1 PUSH2 0xBF6 SWAP2 SWAP1 PUSH2 0x4724 JUMP JUMPDEST SWAP2 POP PUSH32 0x0 PUSH1 0x1 PUSH1 0x1 PUSH1 0xA0 SHL SUB AND PUSH2 0xC34 JUMPI PUSH8 0xDE0B6B3A7640000 PUSH2 0xCC5 JUMP JUMPDEST PUSH32 0x0 PUSH1 0x1 PUSH1 0x1 PUSH1 0xA0 SHL SUB AND PUSH4 0x679AEFCE PUSH1 0x40 MLOAD DUP2 PUSH4 0xFFFFFFFF AND PUSH1 0xE0 SHL DUP2 MSTORE PUSH1 0x4 ADD PUSH1 0x20 PUSH1 0x40 MLOAD DUP1 DUP4 SUB DUP2 DUP7 DUP1 EXTCODESIZE ISZERO DUP1 ISZERO PUSH2 0xC8D JUMPI PUSH1 0x0 DUP1 REVERT JUMPDEST POP GAS STATICCALL ISZERO DUP1 ISZERO PUSH2 0xCA1 JUMPI RETURNDATASIZE PUSH1 0x0 DUP1 RETURNDATACOPY RETURNDATASIZE PUSH1 0x0 REVERT JUMPDEST POP POP POP POP PUSH1 0x40 MLOAD RETURNDATASIZE PUSH1 0x1F NOT PUSH1 0x1F DUP3 ADD AND DUP3 ADD DUP1 PUSH1 0x40 MSTORE POP DUP2 ADD SWAP1 PUSH2 0xCC5 SWAP2 SWAP1 PUSH2 0x4724 JUMP JUMPDEST SWAP1 POP SWAP1 SWAP2 JUMP JUMPDEST PUSH1 0x1 PUSH1 0x1 PUSH1 0xA0 SHL SUB DUP2 AND PUSH1 0x0 SWAP1 DUP2 MSTORE PUSH1 0x20 DUP2 SWAP1 MSTORE PUSH1 0x40 SWAP1 KECCAK256 SLOAD JUMPDEST SWAP2 SWAP1 POP JUMP JUMPDEST PUSH1 0x60 DUP1 DUP9 PUSH2 0xD14 PUSH2 0xCF9 PUSH2 0x1181 JUMP JUMPDEST PUSH1 0x1 PUSH1 0x1 PUSH1 0xA0 SHL SUB AND CALLER PUSH1 0x1 PUSH1 0x1 PUSH1 0xA0 SHL SUB AND EQ PUSH1 0xCD PUSH2 0x1D19 JUMP JUMPDEST PUSH2 0xD29 PUSH2 0xD1F PUSH2 0x82B JUMP JUMPDEST DUP3 EQ PUSH2 0x1F4 PUSH2 0x1D19 JUMP JUMPDEST PUSH2 0xD32 DUP8 PUSH2 0x23B5 JUMP JUMPDEST PUSH1 0x0 DUP1 PUSH1 0x0 PUSH2 0xD46 DUP14 DUP14 DUP14 DUP14 DUP14 DUP14 DUP14 PUSH2 0x1FB7 JUMP JUMPDEST SWAP3 POP SWAP3 POP SWAP3 POP PUSH2 0xD56 DUP13 DUP5 PUSH2 0x2417 JUMP JUMPDEST PUSH2 0xD5F DUP3 PUSH2 0x2125 JUMP JUMPDEST PUSH2 0xD68 DUP2 PUSH2 0x2125 JUMP JUMPDEST SWAP1 SWAP13 SWAP1 SWAP12 POP SWAP10 POP POP POP POP POP POP POP POP POP POP JUMP JUMPDEST PUSH1 0xB SLOAD PUSH1 0x40 DUP1 MLOAD DUP1 DUP3 ADD SWAP1 SWAP2 MSTORE PUSH1 0xE DUP2 MSTORE PUSH14 0x1B9BDD08185D5D1A1BDC9A5E9959 PUSH1 0x92 SHL PUSH1 0x20 DUP3 ADD MSTORE SWAP1 PUSH1 0x1 PUSH1 0x1 PUSH1 0xA0 SHL SUB AND CALLER EQ PUSH2 0xDCB JUMPI PUSH1 0x40 MLOAD PUSH3 0x461BCD PUSH1 0xE5 SHL DUP2 MSTORE PUSH1 0x4 ADD PUSH2 0x6E1 SWAP2 SWAP1 PUSH2 0x4A03 JUMP JUMPDEST POP PUSH1 0xA SLOAD PUSH1 0x40 DUP1 MLOAD DUP1 DUP3 ADD SWAP1 SWAP2 MSTORE PUSH1 0x10 DUP2 MSTORE PUSH16 0x1C1BDBDB081A5CC81D5B98D85C1C1959 PUSH1 0x82 SHL PUSH1 0x20 DUP3 ADD MSTORE SWAP1 PUSH1 0xFF AND PUSH2 0xE17 JUMPI PUSH1 0x40 MLOAD PUSH3 0x461BCD PUSH1 0xE5 SHL DUP2 MSTORE PUSH1 0x4 ADD PUSH2 0x6E1 SWAP2 SWAP1 PUSH2 0x4A03 JUMP JUMPDEST POP DUP1 MLOAD PUSH1 0xA DUP1 SLOAD PUSH1 0x20 DUP5 ADD MLOAD PUSH1 0x40 DUP1 DUP7 ADD MLOAD PUSH1 0xFF NOT SWAP1 SWAP4 AND SWAP5 ISZERO ISZERO SWAP5 SWAP1 SWAP5 OR PUSH16 0xFFFFFFFFFFFFFFFFFFFFFFFFFFFFFF00 NOT AND PUSH2 0x100 PUSH1 0x1 PUSH1 0x1 PUSH1 0x78 SHL SUB SWAP1 SWAP3 AND SWAP2 SWAP1 SWAP2 MUL OR PUSH1 0x1 PUSH1 0x1 PUSH1 0x80 SHL SUB SWAP1 DUP2 AND PUSH1 0x1 PUSH1 0x80 SHL SWAP2 SWAP1 SWAP3 AND MUL OR DUP2 SSTORE SWAP1 MLOAD PUSH32 0x2ABF5970D7BC1A2B36EAAE52DD2CC353EDB0337C7284EF8A01973081B4E04424 SWAP2 PUSH2 0x736 SWAP2 PUSH2 0x4A8B JUMP JUMPDEST PUSH2 0xEA9 PUSH2 0x41B4 JUMP JUMPDEST PUSH2 0xEB1 PUSH2 0x41E3 JUMP JUMPDEST PUSH2 0xEB9 PUSH2 0x2421 JUMP JUMPDEST SWAP2 POP SWAP2 POP SWAP1 SWAP2 JUMP JUMPDEST PUSH1 0x1 PUSH1 0x1 PUSH1 0xA0 SHL SUB AND PUSH1 0x0 SWAP1 DUP2 MSTORE PUSH1 0x6 PUSH1 0x20 MSTORE PUSH1 0x40 SWAP1 KECCAK256 SLOAD SWAP1 JUMP JUMPDEST PUSH1 0xC SLOAD PUSH1 0x40 DUP1 MLOAD DUP1 DUP3 ADD SWAP1 SWAP2 MSTORE PUSH1 0x11 DUP2 MSTORE PUSH17 0x3737BA103830BAB9B29036B0B730B3B2B9 PUSH1 0x79 SHL PUSH1 0x20 DUP3 ADD MSTORE PUSH1 0x1 PUSH1 0x1 PUSH1 0xA0 SHL SUB SWAP1 SWAP2 AND SWAP1 CALLER DUP3 EQ PUSH2 0xF61 JUMPI PUSH1 0x40 MLOAD PUSH3 0x461BCD PUSH1 0xE5 SHL DUP2 MSTORE PUSH1 0x20 PUSH1 0x4 DUP3 ADD DUP2 DUP2 MSTORE DUP4 MLOAD PUSH1 0x24 DUP5 ADD MSTORE DUP4 MLOAD SWAP1 SWAP3 DUP4 SWAP3 PUSH1 0x44 SWAP1 SWAP2 ADD SWAP2 SWAP1 DUP6 ADD SWAP1 DUP1 DUP4 DUP4 PUSH1 0x0 DUP4 ISZERO PUSH2 0x959 JUMPI DUP2 DUP2 ADD MLOAD DUP4 DUP3 ADD MSTORE PUSH1 0x20 ADD PUSH2 0x941 JUMP JUMPDEST POP PUSH1 0xC DUP1 SLOAD PUSH1 0x1 PUSH1 0x1 PUSH1 0xA0 SHL SUB NOT AND PUSH1 0x1 PUSH1 0x1 PUSH1 0xA0 SHL SUB DUP5 DUP2 AND SWAP2 DUP3 OR SWAP1 SWAP3 SSTORE PUSH1 0x40 DUP1 MLOAD SWAP3 DUP5 AND DUP4 MSTORE PUSH1 0x20 DUP4 ADD SWAP2 SWAP1 SWAP2 MSTORE DUP1 MLOAD PUSH32 0x1FFCCD1FA96F4FB3415DF8048A0FD107344E262D2D246C85105E2A3F8F3E8198 SWAP3 DUP2 SWAP1 SUB SWAP1 SWAP2 ADD SWAP1 LOG1 POP POP JUMP JUMPDEST PUSH32 0x0 DUP2 JUMP JUMPDEST PUSH1 0xC SLOAD PUSH1 0x40 DUP1 MLOAD DUP1 DUP3 ADD SWAP1 SWAP2 MSTORE PUSH1 0x11 DUP2 MSTORE PUSH17 0x3737BA103830BAB9B29036B0B730B3B2B9 PUSH1 0x79 SHL PUSH1 0x20 DUP3 ADD MSTORE SWAP1 PUSH1 0x1 PUSH1 0x1 PUSH1 0xA0 SHL SUB AND CALLER EQ PUSH2 0x1068 JUMPI PUSH1 0x40 MLOAD PUSH3 0x461BCD PUSH1 0xE5 SHL DUP2 MSTORE PUSH1 0x20 PUSH1 0x4 DUP3 ADD DUP2 DUP2 MSTORE DUP4 MLOAD PUSH1 0x24 DUP5 ADD MSTORE DUP4 MLOAD SWAP1 SWAP3 DUP4 SWAP3 PUSH1 0x44 SWAP1 SWAP2 ADD SWAP2 SWAP1 DUP6 ADD SWAP1 DUP1 DUP4 DUP4 PUSH1 0x0 DUP4 ISZERO PUSH2 0x959 JUMPI DUP2 DUP2 ADD MLOAD DUP4 DUP3 ADD MSTORE PUSH1 0x20 ADD PUSH2 0x941 JUMP JUMPDEST POP PUSH2 0x1073 PUSH1 0x1 PUSH2 0x749 JUMP JUMPDEST PUSH1 0x40 MLOAD PUSH32 0x681EACE576127D0553B224436A09801FB47D042942CBFF59D7D4FF04D8FA03D7 SWAP1 PUSH1 0x0 SWAP1 LOG1 JUMP JUMPDEST PUSH1 0x40 DUP1 MLOAD PUSH32 0x0 PUSH1 0x20 DUP1 DUP4 ADD SWAP2 SWAP1 SWAP2 MSTORE PUSH1 0x1 PUSH1 0x1 PUSH1 0xE0 SHL SUB NOT DUP5 AND DUP3 DUP5 ADD MSTORE DUP3 MLOAD PUSH1 0x24 DUP2 DUP5 SUB ADD DUP2 MSTORE PUSH1 0x44 SWAP1 SWAP3 ADD SWAP1 SWAP3 MSTORE DUP1 MLOAD SWAP2 ADD KECCAK256 SWAP2 SWAP1 POP JUMP JUMPDEST PUSH1 0x0 DUP1 PUSH2 0x1102 PUSH2 0x755 JUMP JUMPDEST SWAP1 POP PUSH1 0x0 DUP1 PUSH2 0x111A PUSH1 0x9 SLOAD PUSH2 0x1115 PUSH2 0x16DA JUMP JUMPDEST PUSH2 0x22B6 JUMP JUMPDEST POP SWAP2 SWAP4 POP SWAP2 POP PUSH2 0x1130 SWAP1 POP DUP2 PUSH2 0xAB2 DUP6 DUP6 PUSH2 0x231F JUMP JUMPDEST SWAP4 POP POP POP POP SWAP1 JUMP JUMPDEST PUSH1 0x0 PUSH1 0x60 PUSH2 0x1148 DUP7 MLOAD PUSH1 0x2 PUSH2 0x1FAA JUMP JUMPDEST PUSH2 0xA66 DUP10 DUP10 DUP10 DUP10 DUP10 DUP10 DUP10 PUSH2 0x2657 PUSH2 0x27C6 PUSH2 0x21A3 JUMP JUMPDEST PUSH32 0x0 SWAP1 JUMP JUMPDEST PUSH32 0x0 SWAP1 JUMP JUMPDEST PUSH1 0x4 DUP1 SLOAD PUSH1 0x40 DUP1 MLOAD PUSH1 0x20 PUSH1 0x1F PUSH1 0x2 PUSH1 0x0 NOT PUSH2 0x100 PUSH1 0x1 DUP9 AND ISZERO MUL ADD SWAP1 SWAP6 AND SWAP5 SWAP1 SWAP5 DIV SWAP4 DUP5 ADD DUP2 SWAP1 DIV DUP2 MUL DUP3 ADD DUP2 ADD SWAP1 SWAP3 MSTORE DUP3 DUP2 MSTORE PUSH1 0x60 SWAP4 SWAP1 SWAP3 SWAP1 SWAP2 DUP4 ADD DUP3 DUP3 DUP1 ISZERO PUSH2 0x66F JUMPI DUP1 PUSH1 0x1F LT PUSH2 0x644 JUMPI PUSH2 0x100 DUP1 DUP4 SLOAD DIV MUL DUP4 MSTORE SWAP2 PUSH1 0x20 ADD SWAP2 PUSH2 0x66F JUMP JUMPDEST PUSH1 0x0 DUP1 PUSH2 0x1211 PUSH2 0x2828 JUMP JUMPDEST SWAP1 POP PUSH1 0x0 DUP1 PUSH2 0x121E PUSH2 0x2421 JUMP JUMPDEST SWAP2 POP SWAP2 POP PUSH1 0x0 PUSH20 0x0 PUSH4 0xD83CA862 DUP6 DUP6 DUP6 PUSH1 0x40 MLOAD DUP5 PUSH4 0xFFFFFFFF AND PUSH1 0xE0 SHL DUP2 MSTORE PUSH1 0x4 ADD PUSH2 0x125F SWAP4 SWAP3 SWAP2 SWAP1 PUSH2 0x48A6 JUMP JUMPDEST PUSH1 0x20 PUSH1 0x40 MLOAD DUP1 DUP4 SUB DUP2 DUP7 DUP1 EXTCODESIZE ISZERO DUP1 ISZERO PUSH2 0x1277 JUMPI PUSH1 0x0 DUP1 REVERT JUMPDEST POP GAS DELEGATECALL ISZERO DUP1 ISZERO PUSH2 0x128B JUMPI RETURNDATASIZE PUSH1 0x0 DUP1 RETURNDATACOPY RETURNDATASIZE PUSH1 0x0 REVERT JUMPDEST POP POP POP POP PUSH1 0x40 MLOAD RETURNDATASIZE PUSH1 0x1F NOT PUSH1 0x1F DUP3 ADD AND DUP3 ADD DUP1 PUSH1 0x40 MSTORE POP DUP2 ADD SWAP1 PUSH2 0x12AF SWAP2 SWAP1 PUSH2 0x4724 JUMP JUMPDEST SWAP1 POP PUSH2 0x12BD DUP5 DUP3 DUP6 DUP6 PUSH2 0x28DE JUMP JUMPDEST SWAP5 POP PUSH2 0x12C8 DUP6 PUSH2 0x297E JUMP JUMPDEST SWAP5 POP POP POP POP POP SWAP1 JUMP JUMPDEST PUSH1 0x9 SLOAD SWAP1 JUMP JUMPDEST PUSH1 0x0 PUSH2 0x12E1 PUSH2 0x1ECD JUMP JUMPDEST DUP4 PUSH1 0x80 ADD MLOAD PUSH2 0x12F1 PUSH2 0xCF9 PUSH2 0x1181 JUMP JUMPDEST PUSH2 0x12FC PUSH2 0xD1F PUSH2 0x82B JUMP JUMPDEST PUSH1 0x0 PUSH32 0x0 PUSH1 0x1 PUSH1 0x1 PUSH1 0xA0 SHL SUB AND DUP7 PUSH1 0x20 ADD MLOAD PUSH1 0x1 PUSH1 0x1 PUSH1 0xA0 SHL SUB AND EQ DUP1 ISZERO PUSH2 0x1378 JUMPI POP PUSH32 0x0 PUSH1 0x1 PUSH1 0x1 PUSH1 0xA0 SHL SUB AND DUP7 PUSH1 0x40 ADD MLOAD PUSH1 0x1 PUSH1 0x1 PUSH1 0xA0 SHL SUB AND EQ JUMPDEST ISZERO PUSH2 0x1385 JUMPI POP PUSH1 0x1 PUSH2 0x1416 JUMP JUMPDEST PUSH32 0x0 PUSH1 0x1 PUSH1 0x1 PUSH1 0xA0 SHL SUB AND DUP7 PUSH1 0x20 ADD MLOAD PUSH1 0x1 PUSH1 0x1 PUSH1 0xA0 SHL SUB AND EQ DUP1 ISZERO PUSH2 0x13FF JUMPI POP PUSH32 0x0 PUSH1 0x1 PUSH1 0x1 PUSH1 0xA0 SHL SUB AND DUP7 PUSH1 0x40 ADD MLOAD PUSH1 0x1 PUSH1 0x1 PUSH1 0xA0 SHL SUB AND EQ JUMPDEST ISZERO PUSH2 0x140C JUMPI POP PUSH1 0x0 PUSH2 0x1416 JUMP JUMPDEST PUSH2 0x1416 PUSH1 0x79 PUSH2 0x2B1E JUMP JUMPDEST PUSH1 0x0 PUSH2 0x1421 DUP3 PUSH2 0x2B71 JUMP JUMPDEST SWAP1 POP PUSH1 0x0 PUSH2 0x142F DUP4 ISZERO PUSH2 0x2B71 JUMP JUMPDEST SWAP1 POP PUSH2 0x143B DUP8 DUP4 PUSH2 0x2C9E JUMP JUMPDEST SWAP7 POP PUSH2 0x1447 DUP7 DUP3 PUSH2 0x2C9E JUMP JUMPDEST SWAP6 POP PUSH1 0x0 PUSH2 0x1456 DUP9 DUP9 DUP7 PUSH2 0x2CAA JUMP JUMPDEST SWAP1 POP PUSH1 0x0 DUP1 PUSH2 0x1463 PUSH2 0x2421 JUMP JUMPDEST SWAP2 POP SWAP2 POP PUSH2 0x146F PUSH2 0x422C JUMP JUMPDEST PUSH1 0x0 DUP1 PUSH20 0x0 PUSH4 0x78ACE857 DUP8 DUP8 DUP8 PUSH1 0x40 MLOAD DUP5 PUSH4 0xFFFFFFFF AND PUSH1 0xE0 SHL DUP2 MSTORE PUSH1 0x4 ADD PUSH2 0x14AD SWAP4 SWAP3 SWAP2 SWAP1 PUSH2 0x48A6 JUMP JUMPDEST PUSH1 0x40 DUP1 MLOAD DUP1 DUP4 SUB DUP2 DUP7 DUP1 EXTCODESIZE ISZERO DUP1 ISZERO PUSH2 0x14C4 JUMPI PUSH1 0x0 DUP1 REVERT JUMPDEST POP GAS DELEGATECALL ISZERO DUP1 ISZERO PUSH2 0x14D8 JUMPI RETURNDATASIZE PUSH1 0x0 DUP1 RETURNDATACOPY RETURNDATASIZE PUSH1 0x0 REVERT JUMPDEST POP POP POP POP PUSH1 0x40 MLOAD RETURNDATASIZE PUSH1 0x1F NOT PUSH1 0x1F DUP3 ADD AND DUP3 ADD DUP1 PUSH1 0x40 MSTORE POP DUP2 ADD SWAP1 PUSH2 0x14FC SWAP2 SWAP1 PUSH2 0x4573 JUMP JUMPDEST PUSH1 0x40 DUP1 MLOAD DUP1 DUP3 ADD SWAP1 SWAP2 MSTORE PUSH1 0x2 SWAP1 SWAP2 MUL DUP3 ADD DUP2 MSTORE PUSH1 0x20 DUP2 ADD SWAP2 SWAP1 SWAP2 MSTORE SWAP3 POP PUSH1 0x0 SWAP2 POP PUSH2 0x1524 SWAP1 POP JUMP JUMPDEST DUP13 MLOAD PUSH1 0x1 DUP2 GT ISZERO PUSH2 0x1531 JUMPI INVALID JUMPDEST EQ ISZERO PUSH2 0x15DD JUMPI PUSH1 0x0 PUSH2 0x154F PUSH2 0x1544 PUSH2 0xA34 JUMP JUMPDEST PUSH1 0x60 DUP16 ADD MLOAD SWAP1 PUSH2 0x2D44 JUMP JUMPDEST SWAP1 POP PUSH2 0x1571 PUSH2 0x156B DUP3 DUP16 PUSH1 0x60 ADD MLOAD PUSH2 0x2D99 SWAP1 SWAP2 SWAP1 PUSH4 0xFFFFFFFF AND JUMP JUMPDEST DUP9 PUSH2 0x2C9E JUMP JUMPDEST PUSH1 0x60 DUP15 ADD MSTORE PUSH1 0x0 PUSH2 0x1586 DUP15 DUP8 DUP12 DUP9 DUP9 DUP9 PUSH2 0x2DAF JUMP JUMPDEST SWAP1 POP PUSH32 0x4E1D56F7310A8C32B2267F756B19BA65019B4890068CE114A25009ABE54DE5BA DUP7 DUP5 DUP4 PUSH1 0x40 MLOAD PUSH2 0x15BB SWAP4 SWAP3 SWAP2 SWAP1 PUSH2 0x4918 JUMP JUMPDEST PUSH1 0x40 MLOAD DUP1 SWAP2 SUB SWAP1 LOG1 PUSH2 0x15CD DUP2 DUP9 PUSH2 0x2E52 JUMP JUMPDEST SWAP11 POP POP POP POP POP POP POP POP POP POP PUSH2 0x166E JUMP JUMPDEST PUSH2 0x15EB DUP13 PUSH1 0x60 ADD MLOAD DUP7 PUSH2 0x2C9E JUMP JUMPDEST PUSH1 0x60 DUP14 ADD MSTORE PUSH1 0x0 PUSH2 0x1600 DUP14 DUP7 DUP11 DUP8 DUP8 DUP8 PUSH2 0x2E5E JUMP JUMPDEST SWAP1 POP PUSH32 0x4E1D56F7310A8C32B2267F756B19BA65019B4890068CE114A25009ABE54DE5BA DUP6 DUP4 DUP4 PUSH1 0x40 MLOAD PUSH2 0x1635 SWAP4 SWAP3 SWAP2 SWAP1 PUSH2 0x4918 JUMP JUMPDEST PUSH1 0x40 MLOAD DUP1 SWAP2 SUB SWAP1 LOG1 PUSH2 0x1647 DUP2 DUP9 PUSH2 0x2EA6 JUMP JUMPDEST SWAP1 POP PUSH2 0x1663 PUSH2 0x165C PUSH2 0x1657 PUSH2 0xA34 JUMP JUMPDEST PUSH2 0x2EB2 JUMP JUMPDEST DUP3 SWAP1 PUSH2 0x2ED8 JUMP JUMPDEST SWAP10 POP POP POP POP POP POP POP POP POP JUMPDEST POP SWAP4 SWAP3 POP POP POP JUMP JUMPDEST PUSH1 0x0 DUP1 PUSH2 0x1683 CALLER DUP6 PUSH2 0x19D7 JUMP JUMPDEST SWAP1 POP DUP1 DUP4 LT PUSH2 0x169D JUMPI PUSH2 0x1698 CALLER DUP6 PUSH1 0x0 PUSH2 0x1BA8 JUMP JUMPDEST PUSH2 0x16AA JUMP JUMPDEST PUSH2 0x16AA CALLER DUP6 DUP6 DUP5 SUB PUSH2 0x1BA8 JUMP JUMPDEST POP PUSH1 0x1 SWAP4 SWAP3 POP POP POP JUMP JUMPDEST PUSH1 0x0 PUSH2 0x686 CALLER DUP5 DUP5 PUSH2 0x1D27 JUMP JUMPDEST PUSH1 0x0 PUSH2 0x80D PUSH2 0x2F3E JUMP JUMPDEST PUSH1 0xC SLOAD PUSH1 0x1 PUSH1 0x1 PUSH1 0xA0 SHL SUB AND DUP2 JUMP JUMPDEST PUSH1 0x0 DUP1 PUSH2 0x16E5 PUSH2 0x2828 JUMP JUMPDEST SWAP1 POP PUSH1 0x0 DUP1 PUSH2 0x16F2 PUSH2 0x2421 JUMP JUMPDEST PUSH1 0x40 MLOAD PUSH4 0x6C1E5431 PUSH1 0xE1 SHL DUP2 MSTORE SWAP2 SWAP4 POP SWAP2 POP PUSH20 0x0 SWAP1 PUSH4 0xD83CA862 SWAP1 PUSH2 0x1732 SWAP1 DUP7 SWAP1 DUP7 SWAP1 DUP7 SWAP1 PUSH1 0x4 ADD PUSH2 0x48A6 JUMP JUMPDEST PUSH1 0x20 PUSH1 0x40 MLOAD DUP1 DUP4 SUB DUP2 DUP7 DUP1 EXTCODESIZE ISZERO DUP1 ISZERO PUSH2 0x174A JUMPI PUSH1 0x0 DUP1 REVERT JUMPDEST POP GAS DELEGATECALL ISZERO DUP1 ISZERO PUSH2 0x175E JUMPI RETURNDATASIZE PUSH1 0x0 DUP1 RETURNDATACOPY RETURNDATASIZE PUSH1 0x0 REVERT JUMPDEST POP POP POP POP PUSH1 0x40 MLOAD RETURNDATASIZE PUSH1 0x1F NOT PUSH1 0x1F DUP3 ADD AND DUP3 ADD DUP1 PUSH1 0x40 MSTORE POP DUP2 ADD SWAP1 PUSH2 0x1130 SWAP2 SWAP1 PUSH2 0x4724 JUMP JUMPDEST PUSH2 0x1790 DUP5 TIMESTAMP GT ISZERO PUSH1 0xD1 PUSH2 0x1D19 JUMP JUMPDEST PUSH1 0x1 PUSH1 0x1 PUSH1 0xA0 SHL SUB DUP1 DUP9 AND PUSH1 0x0 DUP2 DUP2 MSTORE PUSH1 0x6 PUSH1 0x20 SWAP1 DUP2 MSTORE PUSH1 0x40 DUP1 DUP4 KECCAK256 SLOAD DUP2 MLOAD PUSH32 0x0 DUP2 DUP6 ADD MSTORE DUP1 DUP4 ADD SWAP6 SWAP1 SWAP6 MSTORE SWAP5 DUP12 AND PUSH1 0x60 DUP6 ADD MSTORE PUSH1 0x80 DUP5 ADD DUP11 SWAP1 MSTORE PUSH1 0xA0 DUP5 ADD DUP6 SWAP1 MSTORE PUSH1 0xC0 DUP1 DUP6 ADD DUP11 SWAP1 MSTORE DUP2 MLOAD DUP1 DUP7 SUB SWAP1 SWAP2 ADD DUP2 MSTORE PUSH1 0xE0 SWAP1 SWAP5 ADD SWAP1 MSTORE DUP3 MLOAD SWAP3 ADD SWAP2 SWAP1 SWAP2 KECCAK256 SWAP1 PUSH2 0x181C DUP3 PUSH2 0x2FB8 JUMP JUMPDEST SWAP1 POP PUSH1 0x0 PUSH1 0x1 DUP3 DUP9 DUP9 DUP9 PUSH1 0x40 MLOAD PUSH1 0x0 DUP2 MSTORE PUSH1 0x20 ADD PUSH1 0x40 MSTORE PUSH1 0x40 MLOAD DUP1 DUP6 DUP2 MSTORE PUSH1 0x20 ADD DUP5 PUSH1 0xFF AND DUP2 MSTORE PUSH1 0x20 ADD DUP4 DUP2 MSTORE PUSH1 0x20 ADD DUP3 DUP2 MSTORE PUSH1 0x20 ADD SWAP5 POP POP POP POP POP PUSH1 0x20 PUSH1 0x40 MLOAD PUSH1 0x20 DUP2 SUB SWAP1 DUP1 DUP5 SUB SWAP1 DUP6 GAS STATICCALL ISZERO DUP1 ISZERO PUSH2 0x187A JUMPI RETURNDATASIZE PUSH1 0x0 DUP1 RETURNDATACOPY RETURNDATASIZE PUSH1 0x0 REVERT JUMPDEST POP POP PUSH1 0x40 MLOAD PUSH1 0x1F NOT ADD MLOAD SWAP2 POP PUSH2 0x18BC SWAP1 POP PUSH1 0x1 PUSH1 0x1 PUSH1 0xA0 SHL SUB DUP3 AND ISZERO DUP1 ISZERO SWAP1 PUSH2 0x18B4 JUMPI POP DUP12 PUSH1 0x1 PUSH1 0x1 PUSH1 0xA0 SHL SUB AND DUP3 PUSH1 0x1 PUSH1 0x1 PUSH1 0xA0 SHL SUB AND EQ JUMPDEST PUSH2 0x1F8 PUSH2 0x1D19 JUMP JUMPDEST PUSH1 0x1 PUSH1 0x1 PUSH1 0xA0 SHL SUB DUP12 AND PUSH1 0x0 SWAP1 DUP2 MSTORE PUSH1 0x6 PUSH1 0x20 MSTORE PUSH1 0x40 SWAP1 KECCAK256 PUSH1 0x1 DUP6 ADD SWAP1 SSTORE PUSH2 0x18E5 DUP12 DUP12 DUP12 PUSH2 0x1BA8 JUMP JUMPDEST POP POP POP POP POP POP POP POP POP POP POP JUMP JUMPDEST PUSH1 0x60 DUP1 DUP9 PUSH2 0x1901 PUSH2 0xCF9 PUSH2 0x1181 JUMP JUMPDEST PUSH2 0x190C PUSH2 0xD1F PUSH2 0x82B JUMP JUMPDEST PUSH2 0x1914 PUSH2 0x1ECD JUMP JUMPDEST PUSH1 0x0 PUSH2 0x191E PUSH2 0x755 JUMP JUMPDEST PUSH2 0x198E JUMPI PUSH2 0x192E DUP12 DUP12 DUP12 DUP9 PUSH2 0x3004 JUMP JUMPDEST SWAP5 POP SWAP1 POP PUSH2 0x1943 PUSH3 0xF4240 DUP3 LT ISZERO PUSH1 0xCC PUSH2 0x1D19 JUMP JUMPDEST PUSH2 0x1951 PUSH1 0x0 PUSH3 0xF4240 PUSH2 0x3194 JUMP JUMPDEST PUSH2 0x1960 DUP10 PUSH3 0xF4240 DUP4 SUB PUSH2 0x3194 JUMP JUMPDEST PUSH2 0x1969 DUP5 PUSH2 0x27C6 JUMP JUMPDEST PUSH1 0x40 DUP1 MLOAD PUSH1 0x2 DUP1 DUP3 MSTORE PUSH1 0x60 DUP3 ADD DUP4 MSTORE SWAP1 SWAP2 PUSH1 0x20 DUP4 ADD SWAP1 DUP1 CALLDATASIZE DUP4 CALLDATACOPY ADD SWAP1 POP POP SWAP3 POP PUSH2 0x19C9 JUMP JUMPDEST PUSH2 0x1997 DUP9 PUSH2 0x23B5 JUMP JUMPDEST PUSH2 0x19A6 DUP12 DUP12 DUP12 DUP12 DUP12 DUP12 DUP12 PUSH2 0x2657 JUMP JUMPDEST SWAP1 SWAP6 POP SWAP4 POP SWAP1 POP PUSH2 0x19B7 DUP10 DUP3 PUSH2 0x3194 JUMP JUMPDEST PUSH2 0x19C0 DUP5 PUSH2 0x27C6 JUMP JUMPDEST PUSH2 0x19C9 DUP4 PUSH2 0x2125 JUMP JUMPDEST POP POP SWAP8 POP SWAP8 SWAP6 POP POP POP POP POP POP JUMP JUMPDEST PUSH1 0x0 PUSH2 0x19E1 PUSH2 0x1181 JUMP JUMPDEST PUSH1 0x1 PUSH1 0x1 PUSH1 0xA0 SHL SUB AND DUP3 PUSH1 0x1 PUSH1 0x1 PUSH1 0xA0 SHL SUB AND EQ ISZERO PUSH2 0x1A03 JUMPI POP PUSH1 0x0 NOT PUSH2 0x68A JUMP JUMPDEST PUSH2 0x1A0D DUP4 DUP4 PUSH2 0x319E JUMP JUMPDEST SWAP1 POP PUSH2 0x68A JUMP JUMPDEST PUSH1 0x60 PUSH2 0x80D PUSH2 0x31C9 JUMP JUMPDEST DUP1 PUSH2 0x1A28 DUP2 PUSH2 0x3238 JUMP JUMPDEST POP POP JUMP JUMPDEST PUSH2 0x1A58 DUP2 PUSH1 0x60 ADD MLOAD PUSH1 0x0 SGT ISZERO DUP1 ISZERO PUSH2 0x1A50 JUMPI POP PUSH8 0xDE0B6B3A7640000 DUP3 PUSH1 0x60 ADD MLOAD SGT ISZERO JUMPDEST PUSH2 0x163 PUSH2 0x32B1 JUMP JUMPDEST PUSH2 0x1A83 DUP2 PUSH1 0x40 ADD MLOAD PUSH1 0x0 SGT ISZERO DUP1 ISZERO PUSH2 0x1A50 JUMPI POP PUSH8 0xDE0B6B3A7640000 DUP3 PUSH1 0x40 ADD MLOAD SGT ISZERO PUSH2 0x163 PUSH2 0x32B1 JUMP JUMPDEST PUSH1 0x40 DUP1 MLOAD DUP1 DUP3 ADD DUP3 MSTORE PUSH1 0x60 DUP4 ADD MLOAD DUP2 MSTORE SWAP1 DUP3 ADD MLOAD PUSH1 0x20 DUP3 ADD MSTORE PUSH1 0x0 PUSH2 0x1AA8 DUP3 DUP1 PUSH2 0x32BF JUMP JUMPDEST SWAP1 POP PUSH2 0x1AD5 PUSH8 0xDE0B6B3A763FC18 DUP3 SLT DUP1 ISZERO SWAP1 PUSH2 0x1ACD JUMPI POP PUSH8 0xDE0B6B3A76403E8 DUP3 SGT ISZERO JUMPDEST PUSH2 0x164 PUSH2 0x32B1 JUMP JUMPDEST PUSH2 0x1B04 DUP4 PUSH1 0x80 ADD MLOAD PUSH1 0x0 SGT ISZERO DUP1 ISZERO PUSH2 0x1AFC JUMPI POP PUSH11 0x52B7D2DCC80CD2E4000000 DUP5 PUSH1 0x80 ADD MLOAD SGT ISZERO JUMPDEST PUSH2 0x168 PUSH2 0x32B1 JUMP JUMPDEST POP POP POP JUMP JUMPDEST PUSH1 0x0 PUSH2 0x7F3 DUP4 DUP4 PUSH1 0x56 PUSH2 0x1B2D JUMP JUMPDEST PUSH1 0x0 PUSH2 0x1B27 DUP4 DUP4 GT ISZERO PUSH1 0x1 PUSH2 0x1D19 JUMP JUMPDEST POP SWAP1 SUB SWAP1 JUMP JUMPDEST PUSH8 0xFFFFFFFFFFFFFFFF DUP2 SHL NOT SWAP3 SWAP1 SWAP3 AND SWAP2 SHL OR SWAP1 JUMP JUMPDEST PUSH1 0x0 DUP3 DUP3 MUL DUP4 ISZERO DUP1 PUSH2 0x1B5D JUMPI POP DUP3 DUP5 DUP3 DUP2 PUSH2 0x1B5A JUMPI INVALID JUMPDEST SDIV EQ JUMPDEST PUSH2 0x1B6D JUMPI PUSH2 0x1B6D PUSH1 0x0 PUSH1 0x3 PUSH2 0x1D19 JUMP JUMPDEST PUSH8 0xDE0B6B3A7640000 SWAP1 SDIV SWAP4 SWAP3 POP POP POP JUMP JUMPDEST PUSH1 0x0 DUP3 DUP3 ADD DUP2 DUP4 SLT ISZERO PUSH2 0x1B94 JUMPI DUP4 DUP2 SLT PUSH2 0x1B99 JUMP JUMPDEST DUP4 DUP2 SLT ISZERO JUMPDEST PUSH2 0x7F3 JUMPI PUSH2 0x7F3 PUSH1 0x0 DUP1 PUSH2 0x1D19 JUMP JUMPDEST PUSH1 0x1 PUSH1 0x1 PUSH1 0xA0 SHL SUB DUP1 DUP5 AND PUSH1 0x0 DUP2 DUP2 MSTORE PUSH1 0x1 PUSH1 0x20 SWAP1 DUP2 MSTORE PUSH1 0x40 DUP1 DUP4 KECCAK256 SWAP5 DUP8 AND DUP1 DUP5 MSTORE SWAP5 DUP3 MSTORE SWAP2 DUP3 SWAP1 KECCAK256 DUP6 SWAP1 SSTORE DUP2 MLOAD DUP6 DUP2 MSTORE SWAP2 MLOAD PUSH32 0x8C5BE1E5EBEC7D5BD14F71427D1E84F3DD0314C0F7B2291E5B200AC8C7C3B925 SWAP3 DUP2 SWAP1 SUB SWAP1 SWAP2 ADD SWAP1 LOG3 POP POP POP JUMP JUMPDEST PUSH1 0x0 PUSH2 0x1C21 PUSH1 0x0 CALLDATALOAD PUSH1 0x1 PUSH1 0x1 PUSH1 0xE0 SHL SUB NOT AND PUSH2 0x109E JUMP JUMPDEST SWAP1 POP PUSH2 0x752 PUSH2 0x1C30 DUP3 CALLER PUSH2 0x32F2 JUMP JUMPDEST PUSH2 0x191 PUSH2 0x1D19 JUMP JUMPDEST DUP1 ISZERO PUSH2 0x1C58 JUMPI PUSH2 0x1C53 PUSH2 0x1C49 PUSH2 0x1CD1 JUMP JUMPDEST TIMESTAMP LT PUSH2 0x193 PUSH2 0x1D19 JUMP JUMPDEST PUSH2 0x1C6D JUMP JUMPDEST PUSH2 0x1C6D PUSH2 0x1C63 PUSH2 0x1CF5 JUMP JUMPDEST TIMESTAMP LT PUSH2 0x1A9 PUSH2 0x1D19 JUMP JUMPDEST PUSH1 0x7 DUP1 SLOAD DUP3 ISZERO ISZERO PUSH1 0xFF NOT SWAP1 SWAP2 AND DUP2 OR SWAP1 SWAP2 SSTORE PUSH1 0x40 DUP1 MLOAD SWAP2 DUP3 MSTORE MLOAD PUSH32 0x9E3A5E37224532DEA67B89FACE185703738A228A6E8A23DEE546960180D3BE64 SWAP2 DUP2 SWAP1 SUB PUSH1 0x20 ADD SWAP1 LOG1 POP JUMP JUMPDEST PUSH1 0x0 PUSH2 0x1CBE PUSH2 0x1CF5 JUMP JUMPDEST TIMESTAMP GT DUP1 PUSH2 0x80D JUMPI POP POP PUSH1 0x7 SLOAD PUSH1 0xFF AND ISZERO SWAP1 JUMP JUMPDEST PUSH32 0x0 SWAP1 JUMP JUMPDEST PUSH32 0x0 SWAP1 JUMP JUMPDEST DUP2 PUSH2 0x1A28 JUMPI PUSH2 0x1A28 DUP2 PUSH2 0x2B1E JUMP JUMPDEST PUSH2 0x1D3E PUSH1 0x1 PUSH1 0x1 PUSH1 0xA0 SHL SUB DUP5 AND ISZERO ISZERO PUSH2 0x198 PUSH2 0x1D19 JUMP JUMPDEST PUSH2 0x1D55 PUSH1 0x1 PUSH1 0x1 PUSH1 0xA0 SHL SUB DUP4 AND ISZERO ISZERO PUSH2 0x199 PUSH2 0x1D19 JUMP JUMPDEST PUSH2 0x1D60 DUP4 DUP4 DUP4 PUSH2 0x1B04 JUMP JUMPDEST PUSH1 0x1 PUSH1 0x1 PUSH1 0xA0 SHL SUB DUP4 AND PUSH1 0x0 SWAP1 DUP2 MSTORE PUSH1 0x20 DUP2 SWAP1 MSTORE PUSH1 0x40 SWAP1 KECCAK256 SLOAD PUSH2 0x1D86 SWAP1 DUP3 PUSH2 0x1A0 PUSH2 0x33F4 JUMP JUMPDEST PUSH1 0x1 PUSH1 0x1 PUSH1 0xA0 SHL SUB DUP1 DUP6 AND PUSH1 0x0 SWAP1 DUP2 MSTORE PUSH1 0x20 DUP2 SWAP1 MSTORE PUSH1 0x40 DUP1 DUP3 KECCAK256 SWAP4 SWAP1 SWAP4 SSTORE SWAP1 DUP5 AND DUP2 MSTORE KECCAK256 SLOAD PUSH2 0x1DB5 SWAP1 DUP3 PUSH2 0x1F4B JUMP JUMPDEST PUSH1 0x1 PUSH1 0x1 PUSH1 0xA0 SHL SUB DUP1 DUP5 AND PUSH1 0x0 DUP2 DUP2 MSTORE PUSH1 0x20 DUP2 DUP2 MSTORE PUSH1 0x40 SWAP2 DUP3 SWAP1 KECCAK256 SWAP5 SWAP1 SWAP5 SSTORE DUP1 MLOAD DUP6 DUP2 MSTORE SWAP1 MLOAD SWAP2 SWAP4 SWAP3 DUP8 AND SWAP3 PUSH32 0xDDF252AD1BE2C89B69C2B068FC378DAA952BA7F163C4A11628F55A4DF523B3EF SWAP3 SWAP2 DUP3 SWAP1 SUB ADD SWAP1 LOG3 POP POP POP JUMP JUMPDEST PUSH1 0x0 PUSH32 0x0 PUSH32 0x0 PUSH32 0x0 PUSH2 0x1E7C PUSH2 0x340A JUMP JUMPDEST ADDRESS PUSH1 0x40 MLOAD PUSH1 0x20 ADD DUP1 DUP7 DUP2 MSTORE PUSH1 0x20 ADD DUP6 DUP2 MSTORE PUSH1 0x20 ADD DUP5 DUP2 MSTORE PUSH1 0x20 ADD DUP4 DUP2 MSTORE PUSH1 0x20 ADD DUP3 PUSH1 0x1 PUSH1 0x1 PUSH1 0xA0 SHL SUB AND DUP2 MSTORE PUSH1 0x20 ADD SWAP6 POP POP POP POP POP POP PUSH1 0x40 MLOAD PUSH1 0x20 DUP2 DUP4 SUB SUB DUP2 MSTORE SWAP1 PUSH1 0x40 MSTORE DUP1 MLOAD SWAP1 PUSH1 0x20 ADD KECCAK256 SWAP1 POP SWAP1 JUMP JUMPDEST PUSH2 0x1EE0 PUSH2 0x1ED8 PUSH2 0x1CB4 JUMP JUMPDEST PUSH2 0x192 PUSH2 0x1D19 JUMP JUMPDEST JUMP JUMPDEST PUSH2 0x1EF5 PUSH5 0xE8D4A51000 DUP3 LT ISZERO PUSH1 0xCB PUSH2 0x1D19 JUMP JUMPDEST PUSH2 0x1F0B PUSH8 0x16345785D8A0000 DUP3 GT ISZERO PUSH1 0xCA PUSH2 0x1D19 JUMP JUMPDEST PUSH1 0x8 SLOAD PUSH2 0x1F18 SWAP1 DUP3 PUSH2 0x1B09 JUMP JUMPDEST PUSH1 0x8 SSTORE PUSH1 0x40 MLOAD PUSH32 0xA9BA3FFE0B6C366B81232CAAB38605A0699AD5398D6CCE76F91EE809E322DAFC SWAP1 PUSH2 0x736 SWAP1 DUP4 SWAP1 PUSH2 0x49B9 JUMP JUMPDEST PUSH1 0x0 DUP3 DUP3 ADD PUSH2 0x7F3 DUP5 DUP3 LT ISZERO DUP4 PUSH2 0x1D19 JUMP JUMPDEST PUSH1 0x0 PUSH2 0x68A DUP3 DUP3 PUSH2 0x340E JUMP JUMPDEST PUSH1 0x0 PUSH2 0x68A DUP3 PUSH1 0x16 PUSH2 0x340E JUMP JUMPDEST PUSH1 0x0 PUSH2 0x68A DUP3 PUSH1 0x2C PUSH2 0x3435 JUMP JUMPDEST PUSH1 0x0 PUSH2 0x68A DUP3 PUSH1 0x4B PUSH2 0x343F JUMP JUMPDEST PUSH1 0x0 PUSH2 0x68A DUP3 PUSH1 0x55 PUSH2 0x3447 JUMP JUMPDEST PUSH1 0x0 PUSH2 0x68A DUP3 PUSH1 0x56 PUSH2 0x3451 JUMP JUMPDEST PUSH2 0x1A28 DUP2 DUP4 EQ PUSH1 0x67 PUSH2 0x1D19 JUMP JUMPDEST PUSH1 0x0 PUSH1 0x60 DUP1 PUSH1 0x0 DUP1 PUSH2 0x1FC7 PUSH2 0x2421 JUMP JUMPDEST SWAP2 POP SWAP2 POP PUSH2 0x1FD3 PUSH2 0x1CB4 JUMP JUMPDEST ISZERO PUSH2 0x20D8 JUMPI PUSH1 0x40 MLOAD PUSH4 0x6C1E5431 PUSH1 0xE1 SHL DUP2 MSTORE PUSH1 0x0 SWAP1 PUSH20 0x0 SWAP1 PUSH4 0xD83CA862 SWAP1 PUSH2 0x2016 SWAP1 DUP14 SWAP1 DUP8 SWAP1 DUP8 SWAP1 PUSH1 0x4 ADD PUSH2 0x48A6 JUMP JUMPDEST PUSH1 0x20 PUSH1 0x40 MLOAD DUP1 DUP4 SUB DUP2 DUP7 DUP1 EXTCODESIZE ISZERO DUP1 ISZERO PUSH2 0x202E JUMPI PUSH1 0x0 DUP1 REVERT JUMPDEST POP GAS DELEGATECALL ISZERO DUP1 ISZERO PUSH2 0x2042 JUMPI RETURNDATASIZE PUSH1 0x0 DUP1 RETURNDATACOPY RETURNDATASIZE PUSH1 0x0 REVERT JUMPDEST POP POP POP POP PUSH1 0x40 MLOAD RETURNDATASIZE PUSH1 0x1F NOT PUSH1 0x1F DUP3 ADD AND DUP3 ADD DUP1 PUSH1 0x40 MSTORE POP DUP2 ADD SWAP1 PUSH2 0x2066 SWAP2 SWAP1 PUSH2 0x4724 JUMP JUMPDEST SWAP1 POP PUSH2 0x2071 DUP2 PUSH2 0x345F JUMP JUMPDEST PUSH2 0x207B DUP11 DUP9 PUSH2 0x348C JUMP JUMPDEST SWAP1 SWAP7 POP SWAP5 POP PUSH2 0x2094 DUP2 DUP8 PUSH2 0x208D PUSH2 0x755 JUMP JUMPDEST PUSH1 0x0 PUSH2 0x34D8 JUMP JUMPDEST PUSH1 0x9 DUP2 SWAP1 SSTORE PUSH1 0x40 MLOAD PUSH32 0xE1D39CAF039C7DC6F364B1E29D1E67C4E330003A43F4991D50CF3E8840D95EAC SWAP2 PUSH2 0x20CA SWAP2 DUP5 SWAP2 SWAP1 PUSH2 0x4B3D JUMP JUMPDEST PUSH1 0x40 MLOAD DUP1 SWAP2 SUB SWAP1 LOG1 POP PUSH2 0x20EE JUMP JUMPDEST PUSH2 0x20E2 DUP10 DUP8 PUSH2 0x348C JUMP JUMPDEST PUSH1 0x0 NOT PUSH1 0x9 SSTORE SWAP1 SWAP6 POP SWAP4 POP JUMPDEST PUSH1 0x40 DUP1 MLOAD PUSH1 0x2 DUP1 DUP3 MSTORE PUSH1 0x60 DUP3 ADD DUP4 MSTORE DUP8 SWAP3 DUP8 SWAP3 SWAP2 SWAP1 PUSH1 0x20 DUP4 ADD SWAP1 DUP1 CALLDATASIZE DUP4 CALLDATACOPY ADD SWAP1 POP POP SWAP5 POP SWAP5 POP SWAP5 POP POP POP SWAP8 POP SWAP8 POP SWAP8 SWAP5 POP POP POP POP POP JUMP JUMPDEST PUSH2 0x214C DUP2 PUSH1 0x0 DUP2 MLOAD DUP2 LT PUSH2 0x2135 JUMPI INVALID JUMPDEST PUSH1 0x20 MUL PUSH1 0x20 ADD ADD MLOAD PUSH2 0x2147 PUSH1 0x1 PUSH2 0x2B71 JUMP JUMPDEST PUSH2 0x2337 JUMP JUMPDEST DUP2 PUSH1 0x0 DUP2 MLOAD DUP2 LT PUSH2 0x2159 JUMPI INVALID JUMPDEST PUSH1 0x20 MUL PUSH1 0x20 ADD ADD DUP2 DUP2 MSTORE POP POP PUSH2 0x2187 DUP2 PUSH1 0x1 DUP2 MLOAD DUP2 LT PUSH2 0x2175 JUMPI INVALID JUMPDEST PUSH1 0x20 MUL PUSH1 0x20 ADD ADD MLOAD PUSH2 0x2147 PUSH1 0x0 PUSH2 0x2B71 JUMP JUMPDEST DUP2 PUSH1 0x1 DUP2 MLOAD DUP2 LT PUSH2 0x2194 JUMPI INVALID JUMPDEST PUSH1 0x20 MUL PUSH1 0x20 ADD ADD DUP2 DUP2 MSTORE POP POP POP JUMP JUMPDEST CALLER ADDRESS EQ PUSH2 0x2261 JUMPI PUSH1 0x0 ADDRESS PUSH1 0x1 PUSH1 0x1 PUSH1 0xA0 SHL SUB AND PUSH1 0x0 CALLDATASIZE PUSH1 0x40 MLOAD PUSH2 0x21C7 SWAP3 SWAP2 SWAP1 PUSH2 0x484A JUMP JUMPDEST PUSH1 0x0 PUSH1 0x40 MLOAD DUP1 DUP4 SUB DUP2 PUSH1 0x0 DUP7 GAS CALL SWAP2 POP POP RETURNDATASIZE DUP1 PUSH1 0x0 DUP2 EQ PUSH2 0x2204 JUMPI PUSH1 0x40 MLOAD SWAP2 POP PUSH1 0x1F NOT PUSH1 0x3F RETURNDATASIZE ADD AND DUP3 ADD PUSH1 0x40 MSTORE RETURNDATASIZE DUP3 MSTORE RETURNDATASIZE PUSH1 0x0 PUSH1 0x20 DUP5 ADD RETURNDATACOPY PUSH2 0x2209 JUMP JUMPDEST PUSH1 0x60 SWAP2 POP JUMPDEST POP POP SWAP1 POP DUP1 PUSH1 0x0 DUP2 EQ PUSH2 0x2218 JUMPI INVALID JUMPDEST PUSH1 0x4 PUSH1 0x0 DUP1 RETURNDATACOPY PUSH1 0x0 MLOAD PUSH1 0x1 PUSH1 0x1 PUSH1 0xE0 SHL SUB NOT AND PUSH4 0x43ADBAFB PUSH1 0xE0 SHL DUP2 EQ PUSH2 0x2243 JUMPI RETURNDATASIZE PUSH1 0x0 DUP1 RETURNDATACOPY RETURNDATASIZE PUSH1 0x0 REVERT JUMPDEST POP PUSH1 0x20 PUSH1 0x4 PUSH1 0x0 RETURNDATACOPY PUSH1 0x40 PUSH1 0x20 MSTORE PUSH1 0x24 RETURNDATASIZE SUB PUSH1 0x24 PUSH1 0x40 RETURNDATACOPY PUSH1 0x1C RETURNDATASIZE ADD PUSH1 0x0 RETURN JUMPDEST PUSH2 0x226A DUP7 PUSH2 0x23B5 JUMP JUMPDEST PUSH1 0x0 DUP1 PUSH2 0x2280 DUP12 DUP12 DUP12 DUP12 DUP12 DUP12 DUP12 DUP12 PUSH4 0xFFFFFFFF AND JUMP JUMPDEST POP SWAP2 POP SWAP2 POP PUSH2 0x2292 DUP2 DUP5 PUSH4 0xFFFFFFFF AND JUMP JUMPDEST DUP1 MLOAD PUSH1 0x1F NOT DUP3 ADD DUP4 SWAP1 MSTORE PUSH4 0x43ADBAFB PUSH1 0x3F NOT DUP4 ADD MSTORE PUSH1 0x20 MUL PUSH1 0x23 NOT DUP3 ADD PUSH1 0x44 DUP3 ADD DUP2 REVERT JUMPDEST PUSH1 0x0 DUP1 PUSH1 0x0 DUP1 PUSH1 0x0 DUP1 PUSH1 0x0 DUP1 PUSH2 0x22CA PUSH2 0x3530 JUMP JUMPDEST SWAP4 POP SWAP4 POP SWAP4 POP SWAP4 POP DUP4 PUSH1 0x0 EQ ISZERO PUSH2 0x22EF JUMPI PUSH1 0x0 SWAP8 POP DUP8 SWAP7 POP SWAP1 SWAP5 POP SWAP3 POP PUSH2 0x2316 SWAP2 POP POP JUMP JUMPDEST PUSH1 0x0 DUP1 PUSH2 0x2306 DUP13 DUP13 PUSH2 0x22FF PUSH2 0x755 JUMP JUMPDEST DUP10 DUP10 PUSH2 0x36A2 JUMP JUMPDEST SWAP1 SWAP11 POP SWAP9 POP SWAP3 SWAP7 POP SWAP1 SWAP5 POP POP POP POP POP JUMPDEST SWAP3 SWAP6 SWAP2 SWAP5 POP SWAP3 POP JUMP JUMPDEST PUSH1 0x0 DUP3 DUP3 ADD DUP4 DUP2 LT ISZERO PUSH2 0x7F3 JUMPI PUSH2 0x7F3 PUSH1 0x0 DUP1 PUSH2 0x1D19 JUMP JUMPDEST PUSH1 0x0 DUP2 PUSH2 0x234A JUMPI PUSH2 0x234A PUSH1 0x0 PUSH1 0x4 PUSH2 0x1D19 JUMP JUMPDEST DUP3 PUSH2 0x2357 JUMPI POP PUSH1 0x0 PUSH2 0x68A JUMP JUMPDEST PUSH8 0xDE0B6B3A7640000 DUP4 DUP2 MUL SWAP1 DUP5 DUP3 DUP2 PUSH2 0x236D JUMPI INVALID JUMPDEST DIV EQ PUSH2 0x237F JUMPI PUSH2 0x237F PUSH1 0x0 PUSH1 0x5 PUSH2 0x1D19 JUMP JUMPDEST DUP3 DUP2 DUP2 PUSH2 0x2388 JUMPI INVALID JUMPDEST DIV SWAP5 SWAP4 POP POP POP POP JUMP JUMPDEST PUSH1 0x0 DUP3 DUP3 MUL PUSH2 0x7F3 DUP5 ISZERO DUP1 PUSH2 0x23AE JUMPI POP DUP4 DUP6 DUP4 DUP2 PUSH2 0x23AB JUMPI INVALID JUMPDEST DIV EQ JUMPDEST PUSH1 0x3 PUSH2 0x1D19 JUMP JUMPDEST PUSH2 0x23DC DUP2 PUSH1 0x0 DUP2 MLOAD DUP2 LT PUSH2 0x23C5 JUMPI INVALID JUMPDEST PUSH1 0x20 MUL PUSH1 0x20 ADD ADD MLOAD PUSH2 0x23D7 PUSH1 0x1 PUSH2 0x2B71 JUMP JUMPDEST PUSH2 0x373D JUMP JUMPDEST DUP2 PUSH1 0x0 DUP2 MLOAD DUP2 LT PUSH2 0x23E9 JUMPI INVALID JUMPDEST PUSH1 0x20 MUL PUSH1 0x20 ADD ADD DUP2 DUP2 MSTORE POP POP PUSH2 0x2187 DUP2 PUSH1 0x1 DUP2 MLOAD DUP2 LT PUSH2 0x2405 JUMPI INVALID JUMPDEST PUSH1 0x20 MUL PUSH1 0x20 ADD ADD MLOAD PUSH2 0x23D7 PUSH1 0x0 PUSH2 0x2B71 JUMP JUMPDEST PUSH2 0x1A28 DUP3 DUP3 PUSH2 0x3776 JUMP JUMPDEST PUSH2 0x2429 PUSH2 0x41B4 JUMP JUMPDEST PUSH2 0x2431 PUSH2 0x41E3 JUMP JUMPDEST PUSH32 0x0 PUSH1 0x80 DUP1 DUP5 ADD SWAP2 SWAP1 SWAP2 MSTORE PUSH32 0x0 PUSH1 0x60 DUP1 DUP6 ADD SWAP2 SWAP1 SWAP2 MSTORE PUSH32 0x0 PUSH1 0x40 DUP1 DUP7 ADD SWAP2 SWAP1 SWAP2 MSTORE PUSH32 0x0 PUSH1 0x20 DUP1 DUP8 ADD SWAP2 SWAP1 SWAP2 MSTORE PUSH32 0x0 DUP7 MSTORE DUP5 MLOAD DUP6 DUP3 ADD MLOAD PUSH32 0x0 DUP2 DUP5 ADD MSTORE PUSH32 0x0 SWAP1 MSTORE PUSH32 0x0 SWAP2 DUP2 ADD SWAP2 SWAP1 SWAP2 MSTORE PUSH32 0x0 SWAP1 MSTORE PUSH32 0x0 PUSH1 0xC0 DUP6 ADD MSTORE PUSH32 0x0 PUSH1 0xA0 DUP6 ADD MSTORE PUSH32 0x0 SWAP3 DUP5 ADD SWAP3 SWAP1 SWAP3 MSTORE PUSH32 0x0 SWAP1 DUP4 ADD MSTORE PUSH32 0x0 SWAP1 DUP3 ADD MSTORE SWAP1 SWAP2 JUMP JUMPDEST PUSH1 0x0 PUSH1 0x60 DUP1 PUSH1 0x0 DUP1 PUSH2 0x2667 PUSH2 0x2421 JUMP JUMPDEST SWAP2 POP SWAP2 POP PUSH1 0x0 PUSH20 0x0 PUSH4 0xD83CA862 DUP12 DUP6 DUP6 PUSH1 0x40 MLOAD DUP5 PUSH4 0xFFFFFFFF AND PUSH1 0xE0 SHL DUP2 MSTORE PUSH1 0x4 ADD PUSH2 0x26A8 SWAP4 SWAP3 SWAP2 SWAP1 PUSH2 0x48A6 JUMP JUMPDEST PUSH1 0x20 PUSH1 0x40 MLOAD DUP1 DUP4 SUB DUP2 DUP7 DUP1 EXTCODESIZE ISZERO DUP1 ISZERO PUSH2 0x26C0 JUMPI PUSH1 0x0 DUP1 REVERT JUMPDEST POP GAS DELEGATECALL ISZERO DUP1 ISZERO PUSH2 0x26D4 JUMPI RETURNDATASIZE PUSH1 0x0 DUP1 RETURNDATACOPY RETURNDATASIZE PUSH1 0x0 REVERT JUMPDEST POP POP POP POP PUSH1 0x40 MLOAD RETURNDATASIZE PUSH1 0x1F NOT PUSH1 0x1F DUP3 ADD AND DUP3 ADD DUP1 PUSH1 0x40 MSTORE POP DUP2 ADD SWAP1 PUSH2 0x26F8 SWAP2 SWAP1 PUSH2 0x4724 JUMP JUMPDEST SWAP1 POP PUSH2 0x2703 DUP2 PUSH2 0x345F JUMP JUMPDEST PUSH1 0x0 DUP1 PUSH2 0x2710 DUP13 DUP11 PUSH2 0x382D JUMP JUMPDEST PUSH1 0xA SLOAD SWAP2 SWAP4 POP SWAP2 POP PUSH1 0xFF AND ISZERO PUSH2 0x273A JUMPI PUSH2 0x273A DUP3 PUSH2 0x272D DUP16 PUSH2 0xCCB JUMP JUMPDEST PUSH2 0x2735 PUSH2 0x755 JUMP JUMPDEST PUSH2 0x3867 JUMP JUMPDEST PUSH2 0x274E DUP4 DUP4 PUSH2 0x2747 PUSH2 0x755 JUMP JUMPDEST PUSH1 0x1 PUSH2 0x34D8 JUMP JUMPDEST PUSH1 0x9 DUP2 SWAP1 SSTORE PUSH1 0x40 MLOAD PUSH32 0xE1D39CAF039C7DC6F364B1E29D1E67C4E330003A43F4991D50CF3E8840D95EAC SWAP2 PUSH2 0x2784 SWAP2 DUP7 SWAP2 SWAP1 PUSH2 0x4B3D JUMP JUMPDEST PUSH1 0x40 MLOAD DUP1 SWAP2 SUB SWAP1 LOG1 PUSH1 0x40 DUP1 MLOAD PUSH1 0x2 DUP1 DUP3 MSTORE PUSH1 0x60 DUP3 ADD DUP4 MSTORE DUP5 SWAP3 DUP5 SWAP3 SWAP2 SWAP1 PUSH1 0x20 DUP4 ADD SWAP1 DUP1 CALLDATASIZE DUP4 CALLDATACOPY ADD SWAP1 POP POP SWAP8 POP SWAP8 POP SWAP8 POP POP POP POP POP POP SWAP8 POP SWAP8 POP SWAP8 SWAP5 POP POP POP POP POP JUMP JUMPDEST PUSH2 0x27ED DUP2 PUSH1 0x0 DUP2 MLOAD DUP2 LT PUSH2 0x27D6 JUMPI INVALID JUMPDEST PUSH1 0x20 MUL PUSH1 0x20 ADD ADD MLOAD PUSH2 0x27E8 PUSH1 0x1 PUSH2 0x2B71 JUMP JUMPDEST PUSH2 0x2ED8 JUMP JUMPDEST DUP2 PUSH1 0x0 DUP2 MLOAD DUP2 LT PUSH2 0x27FA JUMPI INVALID JUMPDEST PUSH1 0x20 MUL PUSH1 0x20 ADD ADD DUP2 DUP2 MSTORE POP POP PUSH2 0x2187 DUP2 PUSH1 0x1 DUP2 MLOAD DUP2 LT PUSH2 0x2816 JUMPI INVALID JUMPDEST PUSH1 0x20 MUL PUSH1 0x20 ADD ADD MLOAD PUSH2 0x27E8 PUSH1 0x0 PUSH2 0x2B71 JUMP JUMPDEST PUSH1 0x40 DUP1 MLOAD PUSH1 0x2 DUP1 DUP3 MSTORE PUSH1 0x60 DUP1 DUP4 ADD DUP5 MSTORE SWAP3 PUSH1 0x20 DUP4 ADD SWAP1 DUP1 CALLDATASIZE DUP4 CALLDATACOPY ADD SWAP1 POP POP SWAP1 POP PUSH2 0x287B PUSH32 0x0 PUSH2 0x2876 PUSH1 0x1 PUSH2 0x2B71 JUMP JUMPDEST PUSH2 0x3979 JUMP JUMPDEST DUP2 PUSH1 0x0 DUP2 MLOAD DUP2 LT PUSH2 0x2888 JUMPI INVALID JUMPDEST PUSH1 0x20 MUL PUSH1 0x20 ADD ADD DUP2 DUP2 MSTORE POP POP PUSH2 0x28C2 PUSH32 0x0 PUSH2 0x2876 PUSH1 0x0 PUSH2 0x2B71 JUMP JUMPDEST DUP2 PUSH1 0x1 DUP2 MLOAD DUP2 LT PUSH2 0x28CF JUMPI INVALID JUMPDEST PUSH1 0x20 MUL PUSH1 0x20 ADD ADD DUP2 DUP2 MSTORE POP POP SWAP1 JUMP JUMPDEST PUSH1 0x0 PUSH20 0x0 PUSH4 0xC7FE78D0 DUP7 DUP6 DUP6 PUSH2 0x2906 DUP10 PUSH2 0x3A20 JUMP JUMPDEST PUSH1 0x40 MLOAD DUP6 PUSH4 0xFFFFFFFF AND PUSH1 0xE0 SHL DUP2 MSTORE PUSH1 0x4 ADD PUSH2 0x2925 SWAP5 SWAP4 SWAP3 SWAP2 SWAP1 PUSH2 0x48D7 JUMP JUMPDEST PUSH1 0x20 PUSH1 0x40 MLOAD DUP1 DUP4 SUB DUP2 DUP7 DUP1 EXTCODESIZE ISZERO DUP1 ISZERO PUSH2 0x293D JUMPI PUSH1 0x0 DUP1 REVERT JUMPDEST POP GAS DELEGATECALL ISZERO DUP1 ISZERO PUSH2 0x2951 JUMPI RETURNDATASIZE PUSH1 0x0 DUP1 RETURNDATACOPY RETURNDATASIZE PUSH1 0x0 REVERT JUMPDEST POP POP POP POP PUSH1 0x40 MLOAD RETURNDATASIZE PUSH1 0x1F NOT PUSH1 0x1F DUP3 ADD AND DUP3 ADD DUP1 PUSH1 0x40 MSTORE POP DUP2 ADD SWAP1 PUSH2 0x2975 SWAP2 SWAP1 PUSH2 0x4724 JUMP JUMPDEST SWAP6 SWAP5 POP POP POP POP POP JUMP JUMPDEST PUSH1 0x0 PUSH32 0x0 PUSH1 0x1 PUSH1 0x1 PUSH1 0xA0 SHL SUB AND ISZERO PUSH2 0x2A4D JUMPI PUSH2 0x2A4A PUSH32 0x0 PUSH1 0x1 PUSH1 0x1 PUSH1 0xA0 SHL SUB AND PUSH4 0x679AEFCE PUSH1 0x40 MLOAD DUP2 PUSH4 0xFFFFFFFF AND PUSH1 0xE0 SHL DUP2 MSTORE PUSH1 0x4 ADD PUSH1 0x20 PUSH1 0x40 MLOAD DUP1 DUP4 SUB DUP2 DUP7 DUP1 EXTCODESIZE ISZERO DUP1 ISZERO PUSH2 0x2A0B JUMPI PUSH1 0x0 DUP1 REVERT JUMPDEST POP GAS STATICCALL ISZERO DUP1 ISZERO PUSH2 0x2A1F JUMPI RETURNDATASIZE PUSH1 0x0 DUP1 RETURNDATACOPY RETURNDATASIZE PUSH1 0x0 REVERT JUMPDEST POP POP POP POP PUSH1 0x40 MLOAD RETURNDATASIZE PUSH1 0x1F NOT PUSH1 0x1F DUP3 ADD AND DUP3 ADD DUP1 PUSH1 0x40 MSTORE POP DUP2 ADD SWAP1 PUSH2 0x2A43 SWAP2 SWAP1 PUSH2 0x4724 JUMP JUMPDEST DUP4 SWAP1 PUSH2 0x373D JUMP JUMPDEST SWAP2 POP JUMPDEST PUSH32 0x0 PUSH1 0x1 PUSH1 0x1 PUSH1 0xA0 SHL SUB AND ISZERO PUSH2 0x2B1A JUMPI PUSH2 0x2B17 PUSH32 0x0 PUSH1 0x1 PUSH1 0x1 PUSH1 0xA0 SHL SUB AND PUSH4 0x679AEFCE PUSH1 0x40 MLOAD DUP2 PUSH4 0xFFFFFFFF AND PUSH1 0xE0 SHL DUP2 MSTORE PUSH1 0x4 ADD PUSH1 0x20 PUSH1 0x40 MLOAD DUP1 DUP4 SUB DUP2 DUP7 DUP1 EXTCODESIZE ISZERO DUP1 ISZERO PUSH2 0x2AD8 JUMPI PUSH1 0x0 DUP1 REVERT JUMPDEST POP GAS STATICCALL ISZERO DUP1 ISZERO PUSH2 0x2AEC JUMPI RETURNDATASIZE PUSH1 0x0 DUP1 RETURNDATACOPY RETURNDATASIZE PUSH1 0x0 REVERT JUMPDEST POP POP POP POP PUSH1 0x40 MLOAD RETURNDATASIZE PUSH1 0x1F NOT PUSH1 0x1F DUP3 ADD AND DUP3 ADD DUP1 PUSH1 0x40 MSTORE POP DUP2 ADD SWAP1 PUSH2 0x2B10 SWAP2 SWAP1 PUSH2 0x4724 JUMP JUMPDEST DUP4 SWAP1 PUSH2 0x2337 JUMP JUMPDEST SWAP2 POP JUMPDEST POP SWAP1 JUMP JUMPDEST PUSH3 0x461BCD PUSH1 0xE5 SHL PUSH1 0x0 SWAP1 DUP2 MSTORE PUSH1 0x20 PUSH1 0x4 MSTORE PUSH1 0x7 PUSH1 0x24 MSTORE PUSH7 0x42414C23000030 PUSH1 0xA DUP1 DUP5 DIV DUP2 DUP2 MOD PUSH1 0x30 SWAP1 DUP2 ADD PUSH1 0x8 SHL SWAP6 DUP4 SWAP1 MOD SWAP6 SWAP1 SWAP6 ADD SWAP1 DUP3 SWAP1 DIV SWAP2 DUP3 MOD SWAP1 SWAP5 ADD PUSH1 0x10 SHL SWAP4 SWAP1 SWAP4 ADD ADD PUSH1 0xC8 SHL PUSH1 0x44 MSTORE PUSH1 0x64 SWAP1 REVERT JUMPDEST PUSH1 0x0 DUP1 PUSH1 0x0 DUP4 ISZERO PUSH2 0x2BC6 JUMPI POP PUSH32 0x0 SWAP1 POP PUSH32 0x0 PUSH2 0x2C0C JUMP JUMPDEST POP PUSH32 0x0 SWAP1 POP PUSH32 0x0 JUMPDEST PUSH1 0x1 PUSH1 0x1 PUSH1 0xA0 SHL SUB DUP3 AND ISZERO PUSH2 0x7F3 JUMPI PUSH2 0x2C96 DUP3 PUSH1 0x1 PUSH1 0x1 PUSH1 0xA0 SHL SUB AND PUSH4 0x679AEFCE PUSH1 0x40 MLOAD DUP2 PUSH4 0xFFFFFFFF AND PUSH1 0xE0 SHL DUP2 MSTORE PUSH1 0x4 ADD PUSH1 0x20 PUSH1 0x40 MLOAD DUP1 DUP4 SUB DUP2 DUP7 DUP1 EXTCODESIZE ISZERO DUP1 ISZERO PUSH2 0x2C57 JUMPI PUSH1 0x0 DUP1 REVERT JUMPDEST POP GAS STATICCALL ISZERO DUP1 ISZERO PUSH2 0x2C6B JUMPI RETURNDATASIZE PUSH1 0x0 DUP1 RETURNDATACOPY RETURNDATASIZE PUSH1 0x0 REVERT JUMPDEST POP POP POP POP PUSH1 0x40 MLOAD RETURNDATASIZE PUSH1 0x1F NOT PUSH1 0x1F DUP3 ADD AND DUP3 ADD DUP1 PUSH1 0x40 MSTORE POP DUP2 ADD SWAP1 PUSH2 0x2C8F SWAP2 SWAP1 PUSH2 0x4724 JUMP JUMPDEST DUP3 SWAP1 PUSH2 0x373D JUMP JUMPDEST SWAP5 SWAP4 POP POP POP POP JUMP JUMPDEST PUSH1 0x0 PUSH2 0x7F3 DUP4 DUP4 PUSH2 0x373D JUMP JUMPDEST PUSH1 0x40 DUP1 MLOAD PUSH1 0x2 DUP1 DUP3 MSTORE PUSH1 0x60 DUP1 DUP4 ADD DUP5 MSTORE SWAP3 PUSH1 0x20 DUP4 ADD SWAP1 DUP1 CALLDATASIZE DUP4 CALLDATACOPY ADD SWAP1 POP POP SWAP1 POP DUP2 ISZERO PUSH2 0x2D09 JUMPI DUP4 DUP2 PUSH1 0x0 DUP2 MLOAD DUP2 LT PUSH2 0x2CDE JUMPI INVALID JUMPDEST PUSH1 0x20 MUL PUSH1 0x20 ADD ADD DUP2 DUP2 MSTORE POP POP DUP3 DUP2 PUSH1 0x1 DUP2 MLOAD DUP2 LT PUSH2 0x2CF8 JUMPI INVALID JUMPDEST PUSH1 0x20 MUL PUSH1 0x20 ADD ADD DUP2 DUP2 MSTORE POP POP PUSH2 0x7F3 JUMP JUMPDEST DUP3 DUP2 PUSH1 0x0 DUP2 MLOAD DUP2 LT PUSH2 0x2D17 JUMPI INVALID JUMPDEST PUSH1 0x20 MUL PUSH1 0x20 ADD ADD DUP2 DUP2 MSTORE POP POP DUP4 DUP2 PUSH1 0x1 DUP2 MLOAD DUP2 LT PUSH2 0x2D31 JUMPI INVALID JUMPDEST PUSH1 0x20 MUL PUSH1 0x20 ADD ADD DUP2 DUP2 MSTORE POP POP SWAP4 SWAP3 POP POP POP JUMP JUMPDEST PUSH1 0x0 DUP3 DUP3 MUL DUP4 ISZERO DUP1 PUSH2 0x2D5E JUMPI POP DUP3 DUP5 DUP3 DUP2 PUSH2 0x2D5B JUMPI INVALID JUMPDEST DIV EQ JUMPDEST PUSH2 0x2D6E JUMPI PUSH2 0x2D6E PUSH1 0x0 PUSH1 0x3 PUSH2 0x1D19 JUMP JUMPDEST DUP1 PUSH2 0x2D7D JUMPI PUSH1 0x0 SWAP2 POP POP PUSH2 0x68A JUMP JUMPDEST PUSH8 0xDE0B6B3A7640000 PUSH1 0x0 NOT DUP3 ADD JUMPDEST DIV PUSH1 0x1 ADD SWAP2 POP POP SWAP3 SWAP2 POP POP JUMP JUMPDEST PUSH1 0x0 DUP3 DUP3 GT ISZERO PUSH2 0x1B27 JUMPI PUSH2 0x1B27 PUSH1 0x0 PUSH1 0x1 PUSH2 0x1D19 JUMP JUMPDEST PUSH1 0x60 DUP7 ADD MLOAD PUSH1 0x40 MLOAD PUSH4 0x30FFA11B PUSH1 0xE1 SHL DUP2 MSTORE PUSH1 0x0 SWAP2 PUSH20 0x0 SWAP2 PUSH4 0x61FF4236 SWAP2 PUSH2 0x2DF7 SWAP2 DUP11 SWAP2 SWAP1 DUP11 SWAP1 DUP11 SWAP1 DUP11 SWAP1 DUP11 SWAP1 PUSH1 0x4 ADD PUSH2 0x4948 JUMP JUMPDEST PUSH1 0x20 PUSH1 0x40 MLOAD DUP1 DUP4 SUB DUP2 DUP7 DUP1 EXTCODESIZE ISZERO DUP1 ISZERO PUSH2 0x2E0F JUMPI PUSH1 0x0 DUP1 REVERT JUMPDEST POP GAS DELEGATECALL ISZERO DUP1 ISZERO PUSH2 0x2E23 JUMPI RETURNDATASIZE PUSH1 0x0 DUP1 RETURNDATACOPY RETURNDATASIZE PUSH1 0x0 REVERT JUMPDEST POP POP POP POP PUSH1 0x40 MLOAD RETURNDATASIZE PUSH1 0x1F NOT PUSH1 0x1F DUP3 ADD AND DUP3 ADD DUP1 PUSH1 0x40 MSTORE POP DUP2 ADD SWAP1 PUSH2 0x2E47 SWAP2 SWAP1 PUSH2 0x4724 JUMP JUMPDEST SWAP8 SWAP7 POP POP POP POP POP POP POP JUMP JUMPDEST PUSH1 0x0 PUSH2 0x7F3 DUP4 DUP4 PUSH2 0x2337 JUMP JUMPDEST PUSH1 0x60 DUP7 ADD MLOAD PUSH1 0x40 MLOAD PUSH4 0x3B18CE7B PUSH1 0xE2 SHL DUP2 MSTORE PUSH1 0x0 SWAP2 PUSH20 0x0 SWAP2 PUSH4 0xEC6339EC SWAP2 PUSH2 0x2DF7 SWAP2 DUP11 SWAP2 SWAP1 DUP11 SWAP1 DUP11 SWAP1 DUP11 SWAP1 DUP11 SWAP1 PUSH1 0x4 ADD PUSH2 0x4948 JUMP JUMPDEST PUSH1 0x0 PUSH2 0x7F3 DUP4 DUP4 PUSH2 0x2ED8 JUMP JUMPDEST PUSH1 0x0 PUSH8 0xDE0B6B3A7640000 DUP3 LT PUSH2 0x2ECA JUMPI PUSH1 0x0 PUSH2 0x68A JUMP JUMPDEST POP PUSH8 0xDE0B6B3A7640000 SUB SWAP1 JUMP JUMPDEST PUSH1 0x0 DUP2 PUSH2 0x2EEB JUMPI PUSH2 0x2EEB PUSH1 0x0 PUSH1 0x4 PUSH2 0x1D19 JUMP JUMPDEST DUP3 PUSH2 0x2EF8 JUMPI POP PUSH1 0x0 PUSH2 0x68A JUMP JUMPDEST PUSH8 0xDE0B6B3A7640000 DUP4 DUP2 MUL SWAP1 DUP5 DUP3 DUP2 PUSH2 0x2F0E JUMPI INVALID JUMPDEST DIV EQ PUSH2 0x2F32 JUMPI PUSH2 0x2F32 PUSH8 0xDE0B6B3A7640000 DUP6 DUP4 DUP2 PUSH2 0x2F29 JUMPI INVALID JUMPDEST DIV EQ PUSH1 0x5 PUSH2 0x1D19 JUMP JUMPDEST DUP3 PUSH1 0x1 DUP3 SUB DUP2 PUSH2 0x2D8C JUMPI INVALID JUMPDEST PUSH1 0x0 PUSH2 0x2F48 PUSH2 0x1181 JUMP JUMPDEST PUSH1 0x1 PUSH1 0x1 PUSH1 0xA0 SHL SUB AND PUSH4 0xAAABADC5 PUSH1 0x40 MLOAD DUP2 PUSH4 0xFFFFFFFF AND PUSH1 0xE0 SHL DUP2 MSTORE PUSH1 0x4 ADD PUSH1 0x20 PUSH1 0x40 MLOAD DUP1 DUP4 SUB DUP2 DUP7 DUP1 EXTCODESIZE ISZERO DUP1 ISZERO PUSH2 0x2F80 JUMPI PUSH1 0x0 DUP1 REVERT JUMPDEST POP GAS STATICCALL ISZERO DUP1 ISZERO PUSH2 0x2F94 JUMPI RETURNDATASIZE PUSH1 0x0 DUP1 RETURNDATACOPY RETURNDATASIZE PUSH1 0x0 REVERT JUMPDEST POP POP POP POP PUSH1 0x40 MLOAD RETURNDATASIZE PUSH1 0x1F NOT PUSH1 0x1F DUP3 ADD AND DUP3 ADD DUP1 PUSH1 0x40 MSTORE POP DUP2 ADD SWAP1 PUSH2 0x80D SWAP2 SWAP1 PUSH2 0x42F1 JUMP JUMPDEST PUSH1 0x0 PUSH2 0x2FC2 PUSH2 0x1E0F JUMP JUMPDEST DUP3 PUSH1 0x40 MLOAD PUSH1 0x20 ADD DUP1 DUP1 PUSH2 0x1901 PUSH1 0xF0 SHL DUP2 MSTORE POP PUSH1 0x2 ADD DUP4 DUP2 MSTORE PUSH1 0x20 ADD DUP3 DUP2 MSTORE PUSH1 0x20 ADD SWAP3 POP POP POP PUSH1 0x40 MLOAD PUSH1 0x20 DUP2 DUP4 SUB SUB DUP2 MSTORE SWAP1 PUSH1 0x40 MSTORE DUP1 MLOAD SWAP1 PUSH1 0x20 ADD KECCAK256 SWAP1 POP SWAP2 SWAP1 POP JUMP JUMPDEST PUSH1 0x0 PUSH1 0x60 PUSH1 0x0 PUSH2 0x3013 DUP5 PUSH2 0x3A64 JUMP JUMPDEST SWAP1 POP PUSH2 0x302E PUSH1 0x0 DUP3 PUSH1 0x3 DUP2 GT ISZERO PUSH2 0x3026 JUMPI INVALID JUMPDEST EQ PUSH1 0xCE PUSH2 0x1D19 JUMP JUMPDEST PUSH1 0x0 PUSH2 0x3039 DUP6 PUSH2 0x3A83 JUMP JUMPDEST SWAP1 POP PUSH2 0x3047 DUP2 MLOAD PUSH1 0x2 PUSH2 0x1FAA JUMP JUMPDEST PUSH2 0x3050 DUP2 PUSH2 0x23B5 JUMP JUMPDEST PUSH1 0x0 DUP1 PUSH2 0x305B PUSH2 0x2421 JUMP JUMPDEST SWAP2 POP SWAP2 POP PUSH1 0x0 PUSH20 0x0 PUSH4 0xD83CA862 DUP6 DUP6 DUP6 PUSH1 0x40 MLOAD DUP5 PUSH4 0xFFFFFFFF AND PUSH1 0xE0 SHL DUP2 MSTORE PUSH1 0x4 ADD PUSH2 0x309C SWAP4 SWAP3 SWAP2 SWAP1 PUSH2 0x48A6 JUMP JUMPDEST PUSH1 0x20 PUSH1 0x40 MLOAD DUP1 DUP4 SUB DUP2 DUP7 DUP1 EXTCODESIZE ISZERO DUP1 ISZERO PUSH2 0x30B4 JUMPI PUSH1 0x0 DUP1 REVERT JUMPDEST POP GAS DELEGATECALL ISZERO DUP1 ISZERO PUSH2 0x30C8 JUMPI RETURNDATASIZE PUSH1 0x0 DUP1 RETURNDATACOPY RETURNDATASIZE PUSH1 0x0 REVERT JUMPDEST POP POP POP POP PUSH1 0x40 MLOAD RETURNDATASIZE PUSH1 0x1F NOT PUSH1 0x1F DUP3 ADD AND DUP3 ADD DUP1 PUSH1 0x40 MSTORE POP DUP2 ADD SWAP1 PUSH2 0x30EC SWAP2 SWAP1 PUSH2 0x4724 JUMP JUMPDEST SWAP1 POP PUSH32 0xAF65F1A72BF4F8BC48E8153858E1F7B307CE39C88361A677C0A79C2A1AE571EF DUP2 PUSH1 0x40 MLOAD PUSH2 0x311D SWAP2 SWAP1 PUSH2 0x49B9 JUMP JUMPDEST PUSH1 0x40 MLOAD DUP1 SWAP2 SUB SWAP1 LOG1 PUSH1 0x0 PUSH2 0x3133 DUP6 DUP4 DUP7 DUP7 PUSH2 0x28DE JUMP JUMPDEST SWAP1 POP PUSH1 0x0 PUSH2 0x317B PUSH2 0x3161 DUP4 DUP9 PUSH1 0x0 DUP2 MLOAD DUP2 LT PUSH2 0x314B JUMPI INVALID JUMPDEST PUSH1 0x20 MUL PUSH1 0x20 ADD ADD MLOAD PUSH2 0x373D SWAP1 SWAP2 SWAP1 PUSH4 0xFFFFFFFF AND JUMP JUMPDEST DUP8 PUSH1 0x1 DUP2 MLOAD DUP2 LT PUSH2 0x316E JUMPI INVALID JUMPDEST PUSH1 0x20 MUL PUSH1 0x20 ADD ADD MLOAD PUSH2 0x1F4B JUMP JUMPDEST PUSH1 0x9 SWAP4 SWAP1 SWAP4 SSTORE POP SWAP1 SWAP12 SWAP4 SWAP11 POP SWAP3 SWAP9 POP POP POP POP POP POP POP POP POP JUMP JUMPDEST PUSH2 0x1A28 DUP3 DUP3 PUSH2 0x3B37 JUMP JUMPDEST PUSH1 0x1 PUSH1 0x1 PUSH1 0xA0 SHL SUB SWAP2 DUP3 AND PUSH1 0x0 SWAP1 DUP2 MSTORE PUSH1 0x1 PUSH1 0x20 SWAP1 DUP2 MSTORE PUSH1 0x40 DUP1 DUP4 KECCAK256 SWAP4 SWAP1 SWAP5 AND DUP3 MSTORE SWAP2 SWAP1 SWAP2 MSTORE KECCAK256 SLOAD SWAP1 JUMP JUMPDEST PUSH1 0x40 DUP1 MLOAD PUSH1 0x2 DUP1 DUP3 MSTORE PUSH1 0x60 DUP1 DUP4 ADD DUP5 MSTORE SWAP3 PUSH1 0x0 SWAP3 SWAP2 SWAP1 PUSH1 0x20 DUP4 ADD SWAP1 DUP1 CALLDATASIZE DUP4 CALLDATACOPY ADD SWAP1 POP POP SWAP1 POP PUSH2 0x31F8 PUSH1 0x1 PUSH2 0x3BCC JUMP JUMPDEST DUP2 PUSH1 0x0 DUP2 MLOAD DUP2 LT PUSH2 0x3205 JUMPI INVALID JUMPDEST PUSH1 0x20 MUL PUSH1 0x20 ADD ADD DUP2 DUP2 MSTORE POP POP PUSH2 0x321B PUSH1 0x0 PUSH2 0x3BCC JUMP JUMPDEST DUP2 PUSH1 0x1 DUP2 MLOAD DUP2 LT PUSH2 0x3228 JUMPI INVALID JUMPDEST PUSH1 0x20 SWAP1 DUP2 MUL SWAP2 SWAP1 SWAP2 ADD ADD MSTORE SWAP1 POP SWAP1 JUMP JUMPDEST PUSH1 0x2 DUP2 MLOAD LT ISZERO PUSH2 0x3247 JUMPI PUSH2 0x752 JUMP JUMPDEST PUSH1 0x0 DUP2 PUSH1 0x0 DUP2 MLOAD DUP2 LT PUSH2 0x3256 JUMPI INVALID JUMPDEST PUSH1 0x20 MUL PUSH1 0x20 ADD ADD MLOAD SWAP1 POP PUSH1 0x0 PUSH1 0x1 SWAP1 POP JUMPDEST DUP3 MLOAD DUP2 LT ISZERO PUSH2 0x1B04 JUMPI PUSH1 0x0 DUP4 DUP3 DUP2 MLOAD DUP2 LT PUSH2 0x327E JUMPI INVALID JUMPDEST PUSH1 0x20 MUL PUSH1 0x20 ADD ADD MLOAD SWAP1 POP PUSH2 0x32A7 DUP2 PUSH1 0x1 PUSH1 0x1 PUSH1 0xA0 SHL SUB AND DUP5 PUSH1 0x1 PUSH1 0x1 PUSH1 0xA0 SHL SUB AND LT PUSH1 0x65 PUSH2 0x1D19 JUMP JUMPDEST SWAP2 POP PUSH1 0x1 ADD PUSH2 0x3267 JUMP JUMPDEST DUP2 PUSH2 0x1A28 JUMPI PUSH2 0x1A28 DUP2 PUSH2 0x3C20 JUMP JUMPDEST PUSH1 0x0 PUSH2 0x7F3 PUSH2 0x32DF DUP4 PUSH1 0x20 ADD MLOAD DUP6 PUSH1 0x20 ADD MLOAD PUSH2 0x1B43 SWAP1 SWAP2 SWAP1 PUSH4 0xFFFFFFFF AND JUMP JUMPDEST DUP4 MLOAD DUP6 MLOAD PUSH2 0x32EC SWAP2 PUSH2 0x1B43 JUMP JUMPDEST SWAP1 PUSH2 0x1B7F JUMP JUMPDEST PUSH1 0x0 PUSH20 0xBA1BA1BA1BA1BA1BA1BA1BA1BA1BA1BA1BA1BA1B PUSH2 0x3311 PUSH2 0x115D JUMP JUMPDEST PUSH1 0x1 PUSH1 0x1 PUSH1 0xA0 SHL SUB AND EQ ISZERO DUP1 ISZERO PUSH2 0x332C JUMPI POP PUSH2 0x332C DUP4 PUSH2 0x3C30 JUMP JUMPDEST ISZERO PUSH2 0x3354 JUMPI PUSH2 0x3339 PUSH2 0x115D JUMP JUMPDEST PUSH1 0x1 PUSH1 0x1 PUSH1 0xA0 SHL SUB AND CALLER PUSH1 0x1 PUSH1 0x1 PUSH1 0xA0 SHL SUB AND EQ SWAP1 POP PUSH2 0x68A JUMP JUMPDEST PUSH2 0x335C PUSH2 0x2F3E JUMP JUMPDEST PUSH1 0x1 PUSH1 0x1 PUSH1 0xA0 SHL SUB AND PUSH4 0x9BE2A884 DUP5 DUP5 ADDRESS PUSH1 0x40 MLOAD DUP5 PUSH4 0xFFFFFFFF AND PUSH1 0xE0 SHL DUP2 MSTORE PUSH1 0x4 ADD DUP1 DUP5 DUP2 MSTORE PUSH1 0x20 ADD DUP4 PUSH1 0x1 PUSH1 0x1 PUSH1 0xA0 SHL SUB AND DUP2 MSTORE PUSH1 0x20 ADD DUP3 PUSH1 0x1 PUSH1 0x1 PUSH1 0xA0 SHL SUB AND DUP2 MSTORE PUSH1 0x20 ADD SWAP4 POP POP POP POP PUSH1 0x20 PUSH1 0x40 MLOAD DUP1 DUP4 SUB DUP2 DUP7 DUP1 EXTCODESIZE ISZERO DUP1 ISZERO PUSH2 0x33C1 JUMPI PUSH1 0x0 DUP1 REVERT JUMPDEST POP GAS STATICCALL ISZERO DUP1 ISZERO PUSH2 0x33D5 JUMPI RETURNDATASIZE PUSH1 0x0 DUP1 RETURNDATACOPY RETURNDATASIZE PUSH1 0x0 REVERT JUMPDEST POP POP POP POP PUSH1 0x40 MLOAD RETURNDATASIZE PUSH1 0x20 DUP2 LT ISZERO PUSH2 0x33EB JUMPI PUSH1 0x0 DUP1 REVERT JUMPDEST POP MLOAD SWAP1 POP PUSH2 0x68A JUMP JUMPDEST PUSH1 0x0 PUSH2 0x3403 DUP5 DUP5 GT ISZERO DUP4 PUSH2 0x1D19 JUMP JUMPDEST POP POP SWAP1 SUB SWAP1 JUMP JUMPDEST CHAINID SWAP1 JUMP JUMPDEST PUSH1 0x0 DUP3 DUP3 SHR PUSH3 0x3FFFFF AND PUSH3 0x1FFFFF DUP2 SGT PUSH2 0x3428 JUMPI DUP1 PUSH2 0x2C96 JUMP JUMPDEST PUSH3 0x3FFFFF NOT OR SWAP4 SWAP3 POP POP POP JUMP JUMPDEST SHR PUSH4 0x7FFFFFFF AND SWAP1 JUMP JUMPDEST SHR PUSH2 0x3FF AND SWAP1 JUMP JUMPDEST SHR PUSH1 0x1 SWAP1 DUP2 AND EQ SWAP1 JUMP JUMPDEST SHR PUSH8 0xFFFFFFFFFFFFFFFF AND SWAP1 JUMP JUMPDEST PUSH1 0x0 DUP1 PUSH1 0x0 DUP1 PUSH2 0x3471 PUSH1 0x9 SLOAD DUP7 PUSH2 0x22B6 JUMP JUMPDEST SWAP4 POP SWAP4 POP SWAP4 POP SWAP4 POP PUSH2 0x3485 DUP5 DUP5 DUP5 DUP5 PUSH2 0x3C62 JUMP JUMPDEST POP POP POP POP POP JUMP JUMPDEST PUSH1 0x0 PUSH1 0x60 PUSH1 0x0 PUSH2 0x349B DUP5 PUSH2 0x3A64 JUMP JUMPDEST SWAP1 POP PUSH1 0x1 DUP2 PUSH1 0x3 DUP2 GT ISZERO PUSH2 0x34AB JUMPI INVALID JUMPDEST EQ ISZERO PUSH2 0x34C5 JUMPI PUSH2 0x34BB DUP6 DUP6 PUSH2 0x3C88 JUMP JUMPDEST SWAP1 SWAP4 POP SWAP2 POP PUSH2 0x34D0 JUMP JUMPDEST PUSH2 0x34D0 PUSH2 0x150 PUSH2 0x2B1E JUMP JUMPDEST POP SWAP3 POP SWAP3 SWAP1 POP JUMP JUMPDEST PUSH1 0x0 DUP2 ISZERO PUSH2 0x350A JUMPI PUSH1 0x0 PUSH2 0x34F6 DUP5 PUSH2 0x34F0 DUP9 DUP9 PUSH2 0x2D44 JUMP JUMPDEST SWAP1 PUSH2 0x2ED8 JUMP JUMPDEST SWAP1 POP PUSH2 0x3502 DUP7 DUP3 PUSH2 0x231F JUMP JUMPDEST SWAP2 POP POP PUSH2 0x2C96 JUMP JUMPDEST PUSH1 0x0 PUSH2 0x351A DUP5 PUSH2 0xB11 DUP9 DUP9 PUSH2 0x373D JUMP JUMPDEST SWAP1 POP PUSH2 0x3526 DUP7 DUP3 PUSH2 0x2D99 JUMP JUMPDEST SWAP7 SWAP6 POP POP POP POP POP POP JUMP JUMPDEST PUSH1 0xD SLOAD PUSH1 0x0 SWAP1 DUP2 SWAP1 DUP2 SWAP1 DUP2 SWAP1 PUSH2 0x3557 SWAP1 PUSH1 0x1 PUSH1 0x1 PUSH1 0xA0 SHL SUB AND ADDRESS PUSH4 0x45434C5 PUSH1 0xE4 SHL PUSH2 0x3CBA JUMP JUMPDEST PUSH1 0xD SLOAD PUSH2 0x3575 SWAP1 PUSH1 0x1 PUSH1 0x1 PUSH1 0xA0 SHL SUB AND ADDRESS PUSH4 0x45434C5 PUSH1 0xE4 SHL PUSH2 0x3CE1 JUMP JUMPDEST PUSH1 0xD SLOAD PUSH1 0x40 MLOAD PUSH4 0x21F8A721 PUSH1 0xE0 SHL DUP2 MSTORE PUSH1 0x1 PUSH1 0x1 PUSH1 0xA0 SHL SUB SWAP1 SWAP2 AND SWAP1 PUSH4 0x21F8A721 SWAP1 PUSH2 0x35B5 SWAP1 PUSH13 0x4759524F5F5452454153555259 PUSH1 0x98 SHL SWAP1 PUSH1 0x4 ADD PUSH2 0x49B9 JUMP JUMPDEST PUSH1 0x20 PUSH1 0x40 MLOAD DUP1 DUP4 SUB DUP2 DUP7 DUP1 EXTCODESIZE ISZERO DUP1 ISZERO PUSH2 0x35CD JUMPI PUSH1 0x0 DUP1 REVERT JUMPDEST POP GAS STATICCALL ISZERO DUP1 ISZERO PUSH2 0x35E1 JUMPI RETURNDATASIZE PUSH1 0x0 DUP1 RETURNDATACOPY RETURNDATASIZE PUSH1 0x0 REVERT JUMPDEST POP POP POP POP PUSH1 0x40 MLOAD RETURNDATASIZE PUSH1 0x1F NOT PUSH1 0x1F DUP3 ADD AND DUP3 ADD DUP1 PUSH1 0x40 MSTORE POP DUP2 ADD SWAP1 PUSH2 0x3605 SWAP2 SWAP1 PUSH2 0x42F1 JUMP JUMPDEST PUSH1 0xD SLOAD PUSH1 0x40 MLOAD PUSH4 0x21F8A721 PUSH1 0xE0 SHL DUP2 MSTORE PUSH1 0x1 PUSH1 0x1 PUSH1 0xA0 SHL SUB SWAP1 SWAP2 AND SWAP1 PUSH4 0x21F8A721 SWAP1 PUSH2 0x3644 SWAP1 PUSH12 0x42414C5F5452454153555259 PUSH1 0xA0 SHL SWAP1 PUSH1 0x4 ADD PUSH2 0x49B9 JUMP JUMPDEST PUSH1 0x20 PUSH1 0x40 MLOAD DUP1 DUP4 SUB DUP2 DUP7 DUP1 EXTCODESIZE ISZERO DUP1 ISZERO PUSH2 0x365C JUMPI PUSH1 0x0 DUP1 REVERT JUMPDEST POP GAS STATICCALL ISZERO DUP1 ISZERO PUSH2 0x3670 JUMPI RETURNDATASIZE PUSH1 0x0 DUP1 RETURNDATACOPY RETURNDATASIZE PUSH1 0x0 REVERT JUMPDEST POP POP POP POP PUSH1 0x40 MLOAD RETURNDATASIZE PUSH1 0x1F NOT PUSH1 0x1F DUP3 ADD AND DUP3 ADD DUP1 PUSH1 0x40 MSTORE POP DUP2 ADD SWAP1 PUSH2 0x3694 SWAP2 SWAP1 PUSH2 0x42F1 JUMP JUMPDEST SWAP4 POP SWAP4 POP SWAP4 POP SWAP4 POP SWAP1 SWAP2 SWAP3 SWAP4 JUMP JUMPDEST PUSH1 0x0 DUP1 DUP7 DUP7 GT PUSH2 0x36B7 JUMPI POP PUSH1 0x0 SWAP1 POP DUP1 PUSH2 0x3733 JUMP JUMPDEST PUSH1 0x0 PUSH2 0x36D7 DUP6 PUSH2 0x36D1 PUSH2 0x36CA DUP11 DUP13 PUSH2 0x2D99 JUMP JUMPDEST DUP10 SWAP1 PUSH2 0x373D JUMP JUMPDEST SWAP1 PUSH2 0x373D JUMP JUMPDEST SWAP1 POP PUSH1 0x0 PUSH2 0x36EF PUSH2 0x36E8 DUP10 DUP12 PUSH2 0x2D99 JUMP JUMPDEST DUP8 SWAP1 PUSH2 0x373D JUMP JUMPDEST SWAP1 POP PUSH1 0x0 PUSH2 0x36FD DUP10 DUP4 PUSH2 0x2D99 JUMP JUMPDEST SWAP1 POP PUSH1 0x0 PUSH2 0x370B DUP5 DUP4 PUSH2 0x2337 JUMP JUMPDEST SWAP1 POP PUSH1 0x0 PUSH2 0x3719 DUP9 DUP4 PUSH2 0x373D JUMP JUMPDEST SWAP1 POP PUSH1 0x0 PUSH2 0x3727 DUP4 DUP4 PUSH2 0x2D99 JUMP JUMPDEST SWAP2 SWAP8 POP SWAP1 SWAP6 POP POP POP POP POP POP JUMPDEST SWAP6 POP SWAP6 SWAP4 POP POP POP POP JUMP JUMPDEST PUSH1 0x0 DUP3 DUP3 MUL DUP4 ISZERO DUP1 PUSH2 0x3757 JUMPI POP DUP3 DUP5 DUP3 DUP2 PUSH2 0x3754 JUMPI INVALID JUMPDEST DIV EQ JUMPDEST PUSH2 0x3767 JUMPI PUSH2 0x3767 PUSH1 0x0 PUSH1 0x3 PUSH2 0x1D19 JUMP JUMPDEST PUSH8 0xDE0B6B3A7640000 DUP2 PUSH2 0x2388 JUMP JUMPDEST PUSH2 0x378D PUSH1 0x1 PUSH1 0x1 PUSH1 0xA0 SHL SUB DUP4 AND ISZERO ISZERO PUSH2 0x19B PUSH2 0x1D19 JUMP JUMPDEST PUSH2 0x3799 DUP3 PUSH1 0x0 DUP4 PUSH2 0x1B04 JUMP JUMPDEST PUSH1 0x1 PUSH1 0x1 PUSH1 0xA0 SHL SUB DUP3 AND PUSH1 0x0 SWAP1 DUP2 MSTORE PUSH1 0x20 DUP2 SWAP1 MSTORE PUSH1 0x40 SWAP1 KECCAK256 SLOAD PUSH2 0x37BF SWAP1 DUP3 PUSH2 0x1A1 PUSH2 0x33F4 JUMP JUMPDEST PUSH1 0x1 PUSH1 0x1 PUSH1 0xA0 SHL SUB DUP4 AND PUSH1 0x0 SWAP1 DUP2 MSTORE PUSH1 0x20 DUP2 SWAP1 MSTORE PUSH1 0x40 SWAP1 KECCAK256 SSTORE PUSH1 0x2 SLOAD PUSH2 0x37E5 SWAP1 DUP3 PUSH2 0x3D0F JUMP JUMPDEST PUSH1 0x2 SSTORE PUSH1 0x40 DUP1 MLOAD DUP3 DUP2 MSTORE SWAP1 MLOAD PUSH1 0x0 SWAP2 PUSH1 0x1 PUSH1 0x1 PUSH1 0xA0 SHL SUB DUP6 AND SWAP2 PUSH32 0xDDF252AD1BE2C89B69C2B068FC378DAA952BA7F163C4A11628F55A4DF523B3EF SWAP2 DUP2 SWAP1 SUB PUSH1 0x20 ADD SWAP1 LOG3 POP POP JUMP JUMPDEST PUSH1 0x0 PUSH1 0x60 PUSH1 0x0 PUSH2 0x383C DUP5 PUSH2 0x3A64 JUMP JUMPDEST SWAP1 POP PUSH1 0x3 DUP2 PUSH1 0x3 DUP2 GT ISZERO PUSH2 0x384C JUMPI INVALID JUMPDEST EQ ISZERO PUSH2 0x385C JUMPI PUSH2 0x34BB DUP6 DUP6 PUSH2 0x3D1D JUMP JUMPDEST PUSH2 0x34D0 PUSH2 0x136 PUSH2 0x2B1E JUMP JUMPDEST PUSH1 0x40 DUP1 MLOAD PUSH1 0x60 DUP2 ADD DUP3 MSTORE PUSH1 0xA SLOAD PUSH1 0xFF DUP2 AND ISZERO ISZERO DUP3 MSTORE PUSH2 0x100 DUP2 DIV PUSH1 0x1 PUSH1 0x1 PUSH1 0x78 SHL SUB AND PUSH1 0x20 DUP4 ADD DUP2 SWAP1 MSTORE PUSH1 0x1 PUSH1 0x80 SHL SWAP1 SWAP2 DIV PUSH1 0x1 PUSH1 0x1 PUSH1 0x80 SHL SUB AND SWAP3 DUP3 ADD SWAP3 SWAP1 SWAP3 MSTORE SWAP1 PUSH2 0x38B4 DUP6 DUP6 PUSH2 0x231F JUMP JUMPDEST GT ISZERO PUSH1 0x40 MLOAD DUP1 PUSH1 0x40 ADD PUSH1 0x40 MSTORE DUP1 PUSH1 0x1A DUP2 MSTORE PUSH1 0x20 ADD PUSH32 0x6F7665722061646472657373206C697175696469747920636170000000000000 DUP2 MSTORE POP SWAP1 PUSH2 0x390A JUMPI PUSH1 0x40 MLOAD PUSH3 0x461BCD PUSH1 0xE5 SHL DUP2 MSTORE PUSH1 0x4 ADD PUSH2 0x6E1 SWAP2 SWAP1 PUSH2 0x4A03 JUMP JUMPDEST POP PUSH1 0x40 DUP2 ADD MLOAD PUSH1 0x1 PUSH1 0x1 PUSH1 0x80 SHL SUB AND PUSH2 0x3923 DUP6 DUP5 PUSH2 0x231F JUMP JUMPDEST GT ISZERO PUSH1 0x40 MLOAD DUP1 PUSH1 0x40 ADD PUSH1 0x40 MSTORE DUP1 PUSH1 0x19 DUP2 MSTORE PUSH1 0x20 ADD PUSH32 0x6F76657220676C6F62616C206C69717569646974792063617000000000000000 DUP2 MSTORE POP SWAP1 PUSH2 0x3485 JUMPI PUSH1 0x40 MLOAD PUSH3 0x461BCD PUSH1 0xE5 SHL DUP2 MSTORE PUSH1 0x4 ADD PUSH2 0x6E1 SWAP2 SWAP1 PUSH2 0x4A03 JUMP JUMPDEST PUSH1 0x0 DUP1 PUSH1 0x0 PUSH2 0x3986 PUSH2 0x1181 JUMP JUMPDEST PUSH1 0x1 PUSH1 0x1 PUSH1 0xA0 SHL SUB AND PUSH4 0xB05F8E48 PUSH2 0x399C PUSH2 0x82B JUMP JUMPDEST DUP8 PUSH1 0x40 MLOAD DUP4 PUSH4 0xFFFFFFFF AND PUSH1 0xE0 SHL DUP2 MSTORE PUSH1 0x4 ADD PUSH2 0x39BA SWAP3 SWAP2 SWAP1 PUSH2 0x49C2 JUMP JUMPDEST PUSH1 0x80 PUSH1 0x40 MLOAD DUP1 DUP4 SUB DUP2 DUP7 DUP1 EXTCODESIZE ISZERO DUP1 ISZERO PUSH2 0x39D2 JUMPI PUSH1 0x0 DUP1 REVERT JUMPDEST POP GAS STATICCALL ISZERO DUP1 ISZERO PUSH2 0x39E6 JUMPI RETURNDATASIZE PUSH1 0x0 DUP1 RETURNDATACOPY RETURNDATASIZE PUSH1 0x0 REVERT JUMPDEST POP POP POP POP PUSH1 0x40 MLOAD RETURNDATASIZE PUSH1 0x1F NOT PUSH1 0x1F DUP3 ADD AND DUP3 ADD DUP1 PUSH1 0x40 MSTORE POP DUP2 ADD SWAP1 PUSH2 0x3A0A SWAP2 SWAP1 PUSH2 0x473C JUMP JUMPDEST POP POP DUP2 DUP2 ADD SWAP5 POP SWAP1 SWAP3 POP SWAP1 POP PUSH2 0x2975 DUP4 DUP6 PUSH2 0x373D JUMP JUMPDEST PUSH1 0x0 PUSH1 0x1 PUSH1 0xFF SHL DUP3 LT PUSH2 0x2B1A JUMPI PUSH1 0x40 MLOAD PUSH3 0x461BCD PUSH1 0xE5 SHL DUP2 MSTORE PUSH1 0x4 ADD DUP1 DUP1 PUSH1 0x20 ADD DUP3 DUP2 SUB DUP3 MSTORE PUSH1 0x28 DUP2 MSTORE PUSH1 0x20 ADD DUP1 PUSH2 0x4B93 PUSH1 0x28 SWAP2 CODECOPY PUSH1 0x40 ADD SWAP2 POP POP PUSH1 0x40 MLOAD DUP1 SWAP2 SUB SWAP1 REVERT JUMPDEST PUSH1 0x0 DUP2 DUP1 PUSH1 0x20 ADD SWAP1 MLOAD PUSH1 0x20 DUP2 LT ISZERO PUSH2 0x3A7B JUMPI PUSH1 0x0 DUP1 REVERT JUMPDEST POP MLOAD SWAP3 SWAP2 POP POP JUMP JUMPDEST PUSH1 0x60 DUP2 DUP1 PUSH1 0x20 ADD SWAP1 MLOAD PUSH1 0x40 DUP2 LT ISZERO PUSH2 0x3A9A JUMPI PUSH1 0x0 DUP1 REVERT JUMPDEST DUP2 MLOAD PUSH1 0x20 DUP4 ADD DUP1 MLOAD PUSH1 0x40 MLOAD SWAP3 SWAP5 SWAP3 SWAP4 DUP4 ADD SWAP3 SWAP2 SWAP1 DUP5 PUSH5 0x100000000 DUP3 GT ISZERO PUSH2 0x3AC1 JUMPI PUSH1 0x0 DUP1 REVERT JUMPDEST SWAP1 DUP4 ADD SWAP1 PUSH1 0x20 DUP3 ADD DUP6 DUP2 GT ISZERO PUSH2 0x3AD6 JUMPI PUSH1 0x0 DUP1 REVERT JUMPDEST DUP3 MLOAD DUP7 PUSH1 0x20 DUP3 MUL DUP4 ADD GT PUSH5 0x100000000 DUP3 GT OR ISZERO PUSH2 0x3AF3 JUMPI PUSH1 0x0 DUP1 REVERT JUMPDEST DUP3 MSTORE POP DUP2 MLOAD PUSH1 0x20 SWAP2 DUP3 ADD SWAP3 DUP3 ADD SWAP2 MUL DUP1 DUP4 DUP4 PUSH1 0x0 JUMPDEST DUP4 DUP2 LT ISZERO PUSH2 0x3B20 JUMPI DUP2 DUP2 ADD MLOAD DUP4 DUP3 ADD MSTORE PUSH1 0x20 ADD PUSH2 0x3B08 JUMP JUMPDEST POP POP POP POP SWAP2 SWAP1 SWAP2 ADD PUSH1 0x40 MSTORE POP SWAP3 SWAP7 SWAP6 POP POP POP POP POP POP JUMP JUMPDEST PUSH2 0x3B43 PUSH1 0x0 DUP4 DUP4 PUSH2 0x1B04 JUMP JUMPDEST PUSH1 0x2 SLOAD PUSH2 0x3B50 SWAP1 DUP3 PUSH2 0x1F4B JUMP JUMPDEST PUSH1 0x2 SSTORE PUSH1 0x1 PUSH1 0x1 PUSH1 0xA0 SHL SUB DUP3 AND PUSH1 0x0 SWAP1 DUP2 MSTORE PUSH1 0x20 DUP2 SWAP1 MSTORE PUSH1 0x40 SWAP1 KECCAK256 SLOAD PUSH2 0x3B76 SWAP1 DUP3 PUSH2 0x1F4B JUMP JUMPDEST PUSH1 0x1 PUSH1 0x1 PUSH1 0xA0 SHL SUB DUP4 AND PUSH1 0x0 DUP2 DUP2 MSTORE PUSH1 0x20 DUP2 DUP2 MSTORE PUSH1 0x40 DUP1 DUP4 KECCAK256 SWAP5 SWAP1 SWAP5 SSTORE DUP4 MLOAD DUP6 DUP2 MSTORE SWAP4 MLOAD SWAP3 SWAP4 SWAP2 SWAP3 PUSH32 0xDDF252AD1BE2C89B69C2B068FC378DAA952BA7F163C4A11628F55A4DF523B3EF SWAP3 DUP2 SWAP1 SUB SWAP1 SWAP2 ADD SWAP1 LOG3 POP POP JUMP JUMPDEST PUSH1 0x0 DUP2 PUSH2 0x3BF9 JUMPI PUSH32 0x0 PUSH2 0x68A JUMP JUMPDEST POP PUSH32 0x0 SWAP2 SWAP1 POP JUMP JUMPDEST PUSH2 0x752 DUP2 PUSH3 0x23ACA9 PUSH1 0xE9 SHL PUSH2 0x3D42 JUMP JUMPDEST PUSH1 0x0 PUSH2 0x3C42 PUSH4 0x1C74C917 PUSH1 0xE1 SHL PUSH2 0x109E JUMP JUMPDEST DUP3 EQ DUP1 PUSH2 0x68A JUMPI POP PUSH2 0x3C5A PUSH4 0x50DD6ED9 PUSH1 0xE0 SHL PUSH2 0x109E JUMP JUMPDEST SWAP1 SWAP2 EQ SWAP2 SWAP1 POP JUMP JUMPDEST DUP4 ISZERO PUSH2 0x3C72 JUMPI PUSH2 0x3C72 DUP3 DUP6 PUSH2 0x3194 JUMP JUMPDEST DUP3 ISZERO PUSH2 0x3C82 JUMPI PUSH2 0x3C82 DUP2 DUP5 PUSH2 0x3194 JUMP JUMPDEST POP POP POP POP JUMP JUMPDEST PUSH1 0x0 PUSH1 0x60 PUSH1 0x0 PUSH2 0x3C97 DUP5 PUSH2 0x3DA3 JUMP JUMPDEST SWAP1 POP PUSH1 0x0 PUSH2 0x3CAD DUP7 DUP4 PUSH2 0x3CA8 PUSH2 0x755 JUMP JUMPDEST PUSH2 0x3DC5 JUMP JUMPDEST SWAP2 SWAP7 SWAP2 SWAP6 POP SWAP1 SWAP4 POP POP POP POP JUMP JUMPDEST PUSH1 0x0 PUSH2 0x2C96 DUP5 PUSH22 0x50524F544F434F4C5F535741505F4645455F50455243 PUSH1 0x50 SHL DUP5 DUP7 PUSH2 0x3E4B JUMP JUMPDEST PUSH1 0x0 PUSH2 0x2C96 DUP5 PUSH32 0x50524F544F434F4C5F4645455F4759524F5F504F5254494F4E00000000000000 DUP5 DUP7 PUSH2 0x3E4B JUMP JUMPDEST PUSH1 0x0 PUSH2 0x7F3 DUP4 DUP4 PUSH1 0x1 PUSH2 0x33F4 JUMP JUMPDEST PUSH1 0x0 PUSH1 0x60 PUSH1 0x0 PUSH2 0x3D2C DUP5 PUSH2 0x3DA3 JUMP JUMPDEST SWAP1 POP PUSH1 0x0 PUSH2 0x3CAD DUP7 DUP4 PUSH2 0x3D3D PUSH2 0x755 JUMP JUMPDEST PUSH2 0x40F8 JUMP JUMPDEST PUSH3 0x461BCD PUSH1 0xE5 SHL PUSH1 0x0 SWAP1 DUP2 MSTORE PUSH1 0x20 PUSH1 0x4 MSTORE PUSH1 0x7 PUSH1 0x24 MSTORE PUSH1 0xA DUP1 DUP5 DIV DUP2 DUP2 MOD PUSH1 0x30 SWAP1 DUP2 ADD PUSH1 0x8 SHL SWAP6 DUP4 SWAP1 MOD SWAP6 SWAP1 SWAP6 ADD SWAP1 DUP3 SWAP1 DIV SWAP2 DUP3 MOD DUP6 ADD PUSH1 0x10 SHL ADD PUSH1 0x23 PUSH4 0xFFFFFF00 PUSH1 0xE0 DUP7 SWAP1 SHR AND ADD PUSH1 0x18 SHL ADD SWAP1 SWAP4 ADD PUSH1 0xC8 SHL PUSH1 0x44 MSTORE PUSH1 0xE8 DUP3 SWAP1 SHR SWAP1 PUSH1 0x64 SWAP1 REVERT JUMPDEST PUSH1 0x0 DUP2 DUP1 PUSH1 0x20 ADD SWAP1 MLOAD PUSH1 0x40 DUP2 LT ISZERO PUSH2 0x3DBA JUMPI PUSH1 0x0 DUP1 REVERT JUMPDEST POP PUSH1 0x20 ADD MLOAD SWAP3 SWAP2 POP POP JUMP JUMPDEST PUSH1 0x60 DUP4 MLOAD PUSH8 0xFFFFFFFFFFFFFFFF DUP2 GT DUP1 ISZERO PUSH2 0x3DDF JUMPI PUSH1 0x0 DUP1 REVERT JUMPDEST POP PUSH1 0x40 MLOAD SWAP1 DUP1 DUP3 MSTORE DUP1 PUSH1 0x20 MUL PUSH1 0x20 ADD DUP3 ADD PUSH1 0x40 MSTORE DUP1 ISZERO PUSH2 0x3E09 JUMPI DUP2 PUSH1 0x20 ADD PUSH1 0x20 DUP3 MUL DUP1 CALLDATASIZE DUP4 CALLDATACOPY ADD SWAP1 POP JUMPDEST POP SWAP1 POP PUSH1 0x0 JUMPDEST DUP5 MLOAD DUP2 LT ISZERO PUSH2 0x166E JUMPI PUSH2 0x3E2C DUP4 PUSH2 0xB11 DUP7 DUP9 DUP6 DUP2 MLOAD DUP2 LT PUSH2 0x314B JUMPI INVALID JUMPDEST DUP3 DUP3 DUP2 MLOAD DUP2 LT PUSH2 0x3E38 JUMPI INVALID JUMPDEST PUSH1 0x20 SWAP1 DUP2 MUL SWAP2 SWAP1 SWAP2 ADD ADD MSTORE PUSH1 0x1 ADD PUSH2 0x3E0F JUMP JUMPDEST PUSH1 0x40 DUP1 MLOAD PUSH1 0x20 DUP1 DUP3 ADD DUP7 SWAP1 MSTORE PUSH1 0x1 PUSH1 0x1 PUSH1 0xA0 SHL SUB DUP1 DUP6 AND DUP4 DUP6 ADD MSTORE DUP4 MLOAD DUP1 DUP5 SUB DUP6 ADD DUP2 MSTORE PUSH1 0x60 DUP5 ADD DUP1 DUP7 MSTORE DUP2 MLOAD SWAP2 DUP5 ADD SWAP2 SWAP1 SWAP2 KECCAK256 PUSH4 0x696EB375 PUSH1 0xE0 SHL SWAP1 SWAP2 MSTORE PUSH1 0x64 DUP5 ADD DUP2 SWAP1 MSTORE SWAP4 MLOAD PUSH1 0x0 SWAP5 SWAP4 SWAP2 DUP10 AND SWAP3 PUSH4 0x696EB375 SWAP3 PUSH1 0x84 DUP1 DUP3 ADD SWAP4 SWAP2 DUP3 SWAP1 SUB ADD DUP2 DUP7 DUP1 EXTCODESIZE ISZERO DUP1 ISZERO PUSH2 0x3EBC JUMPI PUSH1 0x0 DUP1 REVERT JUMPDEST POP GAS STATICCALL ISZERO DUP1 ISZERO PUSH2 0x3ED0 JUMPI RETURNDATASIZE PUSH1 0x0 DUP1 RETURNDATACOPY RETURNDATASIZE PUSH1 0x0 REVERT JUMPDEST POP POP POP POP PUSH1 0x40 MLOAD RETURNDATASIZE PUSH1 0x20 DUP2 LT ISZERO PUSH2 0x3EE6 JUMPI PUSH1 0x0 DUP1 REVERT JUMPDEST POP MLOAD ISZERO PUSH2 0x3F66 JUMPI DUP6 PUSH1 0x1 PUSH1 0x1 PUSH1 0xA0 SHL SUB AND PUSH4 0xBD02D0F5 DUP3 PUSH1 0x40 MLOAD DUP3 PUSH4 0xFFFFFFFF AND PUSH1 0xE0 SHL DUP2 MSTORE PUSH1 0x4 ADD DUP1 DUP3 DUP2 MSTORE PUSH1 0x20 ADD SWAP2 POP POP PUSH1 0x20 PUSH1 0x40 MLOAD DUP1 DUP4 SUB DUP2 DUP7 DUP1 EXTCODESIZE ISZERO DUP1 ISZERO PUSH2 0x3F31 JUMPI PUSH1 0x0 DUP1 REVERT JUMPDEST POP GAS STATICCALL ISZERO DUP1 ISZERO PUSH2 0x3F45 JUMPI RETURNDATASIZE PUSH1 0x0 DUP1 RETURNDATACOPY RETURNDATASIZE PUSH1 0x0 REVERT JUMPDEST POP POP POP POP PUSH1 0x40 MLOAD RETURNDATASIZE PUSH1 0x20 DUP2 LT ISZERO PUSH2 0x3F5B JUMPI PUSH1 0x0 DUP1 REVERT JUMPDEST POP MLOAD SWAP2 POP PUSH2 0x2C96 SWAP1 POP JUMP JUMPDEST PUSH1 0x40 DUP1 MLOAD PUSH1 0x20 DUP1 DUP3 ADD DUP9 SWAP1 MSTORE DUP2 DUP4 ADD DUP8 SWAP1 MSTORE DUP3 MLOAD DUP1 DUP4 SUB DUP5 ADD DUP2 MSTORE PUSH1 0x60 DUP4 ADD DUP1 DUP6 MSTORE DUP2 MLOAD SWAP2 DUP4 ADD SWAP2 SWAP1 SWAP2 KECCAK256 PUSH4 0x696EB375 PUSH1 0xE0 SHL SWAP1 SWAP2 MSTORE PUSH1 0x64 DUP4 ADD DUP2 SWAP1 MSTORE SWAP3 MLOAD PUSH1 0x1 PUSH1 0x1 PUSH1 0xA0 SHL SUB DUP11 AND SWAP3 PUSH4 0x696EB375 SWAP3 PUSH1 0x84 DUP1 DUP4 ADD SWAP4 SWAP2 SWAP3 DUP3 SWAP1 SUB ADD DUP2 DUP7 DUP1 EXTCODESIZE ISZERO DUP1 ISZERO PUSH2 0x3FD2 JUMPI PUSH1 0x0 DUP1 REVERT JUMPDEST POP GAS STATICCALL ISZERO DUP1 ISZERO PUSH2 0x3FE6 JUMPI RETURNDATASIZE PUSH1 0x0 DUP1 RETURNDATACOPY RETURNDATASIZE PUSH1 0x0 REVERT JUMPDEST POP POP POP POP PUSH1 0x40 MLOAD RETURNDATASIZE PUSH1 0x20 DUP2 LT ISZERO PUSH2 0x3FFC JUMPI PUSH1 0x0 DUP1 REVERT JUMPDEST POP MLOAD ISZERO PUSH2 0x407D JUMPI DUP7 PUSH1 0x1 PUSH1 0x1 PUSH1 0xA0 SHL SUB AND PUSH4 0xBD02D0F5 DUP3 PUSH1 0x40 MLOAD DUP3 PUSH4 0xFFFFFFFF AND PUSH1 0xE0 SHL DUP2 MSTORE PUSH1 0x4 ADD DUP1 DUP3 DUP2 MSTORE PUSH1 0x20 ADD SWAP2 POP POP PUSH1 0x20 PUSH1 0x40 MLOAD DUP1 DUP4 SUB DUP2 DUP7 DUP1 EXTCODESIZE ISZERO DUP1 ISZERO PUSH2 0x4047 JUMPI PUSH1 0x0 DUP1 REVERT JUMPDEST POP GAS STATICCALL ISZERO DUP1 ISZERO PUSH2 0x405B JUMPI RETURNDATASIZE PUSH1 0x0 DUP1 RETURNDATACOPY RETURNDATASIZE PUSH1 0x0 REVERT JUMPDEST POP POP POP POP PUSH1 0x40 MLOAD RETURNDATASIZE PUSH1 0x20 DUP2 LT ISZERO PUSH2 0x4071 JUMPI PUSH1 0x0 DUP1 REVERT JUMPDEST POP MLOAD SWAP3 POP PUSH2 0x2C96 SWAP2 POP POP JUMP JUMPDEST DUP7 PUSH1 0x1 PUSH1 0x1 PUSH1 0xA0 SHL SUB AND PUSH4 0xBD02D0F5 DUP8 PUSH1 0x40 MLOAD DUP3 PUSH4 0xFFFFFFFF AND PUSH1 0xE0 SHL DUP2 MSTORE PUSH1 0x4 ADD DUP1 DUP3 DUP2 MSTORE PUSH1 0x20 ADD SWAP2 POP POP PUSH1 0x20 PUSH1 0x40 MLOAD DUP1 DUP4 SUB DUP2 DUP7 DUP1 EXTCODESIZE ISZERO DUP1 ISZERO PUSH2 0x40C1 JUMPI PUSH1 0x0 DUP1 REVERT JUMPDEST POP GAS STATICCALL ISZERO DUP1 ISZERO PUSH2 0x40D5 JUMPI RETURNDATASIZE PUSH1 0x0 DUP1 RETURNDATACOPY RETURNDATASIZE PUSH1 0x0 REVERT JUMPDEST POP POP POP POP PUSH1 0x40 MLOAD RETURNDATASIZE PUSH1 0x20 DUP2 LT ISZERO PUSH2 0x40EB JUMPI PUSH1 0x0 DUP1 REVERT JUMPDEST POP MLOAD SWAP8 SWAP7 POP POP POP POP POP POP POP JUMP JUMPDEST PUSH1 0x60 DUP4 MLOAD PUSH8 0xFFFFFFFFFFFFFFFF DUP2 GT DUP1 ISZERO PUSH2 0x4112 JUMPI PUSH1 0x0 DUP1 REVERT JUMPDEST POP PUSH1 0x40 MLOAD SWAP1 DUP1 DUP3 MSTORE DUP1 PUSH1 0x20 MUL PUSH1 0x20 ADD DUP3 ADD PUSH1 0x40 MSTORE DUP1 ISZERO PUSH2 0x413C JUMPI DUP2 PUSH1 0x20 ADD PUSH1 0x20 DUP3 MUL DUP1 CALLDATASIZE DUP4 CALLDATACOPY ADD SWAP1 POP JUMPDEST POP SWAP1 POP PUSH1 0x0 JUMPDEST DUP5 MLOAD DUP2 LT ISZERO PUSH2 0x166E JUMPI PUSH2 0x4175 DUP4 PUSH2 0x34F0 DUP7 DUP9 DUP6 DUP2 MLOAD DUP2 LT PUSH2 0x415F JUMPI INVALID JUMPDEST PUSH1 0x20 MUL PUSH1 0x20 ADD ADD MLOAD PUSH2 0x2D44 SWAP1 SWAP2 SWAP1 PUSH4 0xFFFFFFFF AND JUMP JUMPDEST DUP3 DUP3 DUP2 MLOAD DUP2 LT PUSH2 0x4181 JUMPI INVALID JUMPDEST PUSH1 0x20 SWAP1 DUP2 MUL SWAP2 SWAP1 SWAP2 ADD ADD MSTORE PUSH1 0x1 ADD PUSH2 0x4142 JUMP JUMPDEST PUSH1 0x40 DUP1 MLOAD PUSH1 0x60 DUP2 ADD DUP3 MSTORE PUSH1 0x0 DUP1 DUP3 MSTORE PUSH1 0x20 DUP3 ADD DUP2 SWAP1 MSTORE SWAP2 DUP2 ADD SWAP2 SWAP1 SWAP2 MSTORE SWAP1 JUMP JUMPDEST PUSH1 0x40 MLOAD DUP1 PUSH1 0xA0 ADD PUSH1 0x40 MSTORE DUP1 PUSH1 0x0 DUP2 MSTORE PUSH1 0x20 ADD PUSH1 0x0 DUP2 MSTORE PUSH1 0x20 ADD PUSH1 0x0 DUP2 MSTORE PUSH1 0x20 ADD PUSH1 0x0 DUP2 MSTORE PUSH1 0x20 ADD PUSH1 0x0 DUP2 MSTORE POP SWAP1 JUMP JUMPDEST PUSH1 0x40 MLOAD DUP1 PUSH1 0xE0 ADD PUSH1 0x40 MSTORE DUP1 PUSH2 0x41F6 PUSH2 0x422C JUMP JUMPDEST DUP2 MSTORE PUSH1 0x20 ADD PUSH2 0x4203 PUSH2 0x422C JUMP JUMPDEST DUP2 MSTORE PUSH1 0x20 ADD PUSH1 0x0 DUP2 MSTORE PUSH1 0x20 ADD PUSH1 0x0 DUP2 MSTORE PUSH1 0x20 ADD PUSH1 0x0 DUP2 MSTORE PUSH1 0x20 ADD PUSH1 0x0 DUP2 MSTORE PUSH1 0x20 ADD PUSH1 0x0 DUP2 MSTORE POP SWAP1 JUMP JUMPDEST PUSH1 0x40 MLOAD DUP1 PUSH1 0x40 ADD PUSH1 0x40 MSTORE DUP1 PUSH1 0x0 DUP2 MSTORE PUSH1 0x20 ADD PUSH1 0x0 DUP2 MSTORE POP SWAP1 JUMP JUMPDEST DUP1 CALLDATALOAD PUSH2 0xCE5 DUP2 PUSH2 0x4B7D JUMP JUMPDEST DUP1 CALLDATALOAD DUP1 ISZERO ISZERO DUP2 EQ PUSH2 0xCE5 JUMPI PUSH1 0x0 DUP1 REVERT JUMPDEST PUSH1 0x0 DUP3 PUSH1 0x1F DUP4 ADD SLT PUSH2 0x4271 JUMPI DUP1 DUP2 REVERT JUMPDEST DUP2 CALLDATALOAD PUSH8 0xFFFFFFFFFFFFFFFF DUP2 GT ISZERO PUSH2 0x4285 JUMPI INVALID JUMPDEST PUSH2 0x4298 PUSH1 0x1F DUP3 ADD PUSH1 0x1F NOT AND PUSH1 0x20 ADD PUSH2 0x4B59 JUMP JUMPDEST DUP2 DUP2 MSTORE DUP5 PUSH1 0x20 DUP4 DUP7 ADD ADD GT ISZERO PUSH2 0x42AC JUMPI DUP3 DUP4 REVERT JUMPDEST DUP2 PUSH1 0x20 DUP6 ADD PUSH1 0x20 DUP4 ADD CALLDATACOPY SWAP1 DUP2 ADD PUSH1 0x20 ADD SWAP2 SWAP1 SWAP2 MSTORE SWAP3 SWAP2 POP POP JUMP JUMPDEST DUP1 CALLDATALOAD PUSH1 0x2 DUP2 LT PUSH2 0xCE5 JUMPI PUSH1 0x0 DUP1 REVERT JUMPDEST PUSH1 0x0 PUSH1 0x20 DUP3 DUP5 SUB SLT ISZERO PUSH2 0x42E6 JUMPI DUP1 DUP2 REVERT JUMPDEST DUP2 CALLDATALOAD PUSH2 0x7F3 DUP2 PUSH2 0x4B7D JUMP JUMPDEST PUSH1 0x0 PUSH1 0x20 DUP3 DUP5 SUB SLT ISZERO PUSH2 0x4302 JUMPI DUP1 DUP2 REVERT JUMPDEST DUP2 MLOAD PUSH2 0x7F3 DUP2 PUSH2 0x4B7D JUMP JUMPDEST PUSH1 0x0 DUP1 PUSH1 0x40 DUP4 DUP6 SUB SLT ISZERO PUSH2 0x431F JUMPI DUP1 DUP2 REVERT JUMPDEST DUP3 CALLDATALOAD PUSH2 0x432A DUP2 PUSH2 0x4B7D JUMP JUMPDEST SWAP2 POP PUSH1 0x20 DUP4 ADD CALLDATALOAD PUSH2 0x433A DUP2 PUSH2 0x4B7D JUMP JUMPDEST DUP1 SWAP2 POP POP SWAP3 POP SWAP3 SWAP1 POP JUMP JUMPDEST PUSH1 0x0 DUP1 PUSH1 0x0 PUSH1 0x60 DUP5 DUP7 SUB SLT ISZERO PUSH2 0x4359 JUMPI DUP1 DUP2 REVERT JUMPDEST DUP4 CALLDATALOAD PUSH2 0x4364 DUP2 PUSH2 0x4B7D JUMP JUMPDEST SWAP3 POP PUSH1 0x20 DUP5 ADD CALLDATALOAD PUSH2 0x4374 DUP2 PUSH2 0x4B7D JUMP JUMPDEST SWAP3 SWAP6 SWAP3 SWAP5 POP POP POP PUSH1 0x40 SWAP2 SWAP1 SWAP2 ADD CALLDATALOAD SWAP1 JUMP JUMPDEST PUSH1 0x0 DUP1 PUSH1 0x0 DUP1 PUSH1 0x0 DUP1 PUSH1 0x0 PUSH1 0xE0 DUP9 DUP11 SUB SLT ISZERO PUSH2 0x439F JUMPI DUP3 DUP4 REVERT JUMPDEST DUP8 CALLDATALOAD PUSH2 0x43AA DUP2 PUSH2 0x4B7D JUMP JUMPDEST SWAP7 POP PUSH1 0x20 DUP9 ADD CALLDATALOAD PUSH2 0x43BA DUP2 PUSH2 0x4B7D JUMP JUMPDEST SWAP6 POP PUSH1 0x40 DUP9 ADD CALLDATALOAD SWAP5 POP PUSH1 0x60 DUP9 ADD CALLDATALOAD SWAP4 POP PUSH1 0x80 DUP9 ADD CALLDATALOAD PUSH1 0xFF DUP2 AND DUP2 EQ PUSH2 0x43DD JUMPI DUP4 DUP5 REVERT JUMPDEST SWAP7 SWAP10 SWAP6 SWAP9 POP SWAP4 SWAP7 SWAP3 SWAP6 SWAP5 PUSH1 0xA0 DUP5 ADD CALLDATALOAD SWAP5 POP PUSH1 0xC0 SWAP1 SWAP4 ADD CALLDATALOAD SWAP3 SWAP2 POP POP JUMP JUMPDEST PUSH1 0x0 DUP1 PUSH1 0x40 DUP4 DUP6 SUB SLT ISZERO PUSH2 0x440C JUMPI DUP2 DUP3 REVERT JUMPDEST DUP3 CALLDATALOAD PUSH2 0x4417 DUP2 PUSH2 0x4B7D JUMP JUMPDEST SWAP5 PUSH1 0x20 SWAP4 SWAP1 SWAP4 ADD CALLDATALOAD SWAP4 POP POP POP JUMP JUMPDEST PUSH1 0x0 PUSH1 0x20 DUP3 DUP5 SUB SLT ISZERO PUSH2 0x4436 JUMPI DUP1 DUP2 REVERT JUMPDEST PUSH2 0x7F3 DUP3 PUSH2 0x4251 JUMP JUMPDEST PUSH1 0x0 DUP1 PUSH1 0x0 DUP1 PUSH1 0x0 DUP1 PUSH1 0x0 PUSH1 0xE0 DUP9 DUP11 SUB SLT ISZERO PUSH2 0x4459 JUMPI DUP1 DUP2 REVERT JUMPDEST DUP8 CALLDATALOAD SWAP7 POP PUSH1 0x20 DUP9 ADD CALLDATALOAD PUSH2 0x446B DUP2 PUSH2 0x4B7D JUMP JUMPDEST SWAP6 POP PUSH1 0x40 DUP9 ADD CALLDATALOAD PUSH2 0x447B DUP2 PUSH2 0x4B7D JUMP JUMPDEST SWAP5 POP PUSH1 0x60 DUP9 ADD CALLDATALOAD PUSH8 0xFFFFFFFFFFFFFFFF DUP1 DUP3 GT ISZERO PUSH2 0x4497 JUMPI DUP3 DUP4 REVERT JUMPDEST DUP2 DUP11 ADD SWAP2 POP DUP11 PUSH1 0x1F DUP4 ADD SLT PUSH2 0x44AA JUMPI DUP3 DUP4 REVERT JUMPDEST DUP2 CALLDATALOAD DUP2 DUP2 GT ISZERO PUSH2 0x44B6 JUMPI INVALID JUMPDEST PUSH1 0x20 DUP2 MUL PUSH2 0x44C6 PUSH1 0x20 DUP3 ADD PUSH2 0x4B59 JUMP JUMPDEST DUP1 DUP4 DUP3 MSTORE PUSH1 0x20 DUP3 ADD SWAP2 POP PUSH1 0x20 DUP7 ADD DUP16 PUSH1 0x20 DUP6 DUP10 ADD ADD GT ISZERO PUSH2 0x44E5 JUMPI DUP8 DUP9 REVERT JUMPDEST DUP8 SWAP7 POP JUMPDEST DUP5 DUP8 LT ISZERO PUSH2 0x4508 JUMPI DUP1 CALLDATALOAD DUP4 MSTORE PUSH1 0x1 SWAP7 SWAP1 SWAP7 ADD SWAP6 PUSH1 0x20 SWAP3 DUP4 ADD SWAP3 ADD PUSH2 0x44E9 JUMP JUMPDEST POP SWAP9 POP POP POP POP PUSH1 0x80 DUP11 ADD CALLDATALOAD SWAP5 POP PUSH1 0xA0 DUP11 ADD CALLDATALOAD SWAP4 POP PUSH1 0xC0 DUP11 ADD CALLDATALOAD SWAP2 POP DUP1 DUP3 GT ISZERO PUSH2 0x452F JUMPI DUP3 DUP4 REVERT JUMPDEST POP PUSH2 0x453C DUP11 DUP3 DUP12 ADD PUSH2 0x4261 JUMP JUMPDEST SWAP2 POP POP SWAP3 SWAP6 SWAP9 SWAP2 SWAP5 SWAP8 POP SWAP3 SWAP6 POP JUMP JUMPDEST PUSH1 0x0 PUSH1 0x20 DUP3 DUP5 SUB SLT ISZERO PUSH2 0x455C JUMPI DUP1 DUP2 REVERT JUMPDEST DUP2 CALLDATALOAD PUSH1 0x1 PUSH1 0x1 PUSH1 0xE0 SHL SUB NOT DUP2 AND DUP2 EQ PUSH2 0x7F3 JUMPI DUP2 DUP3 REVERT JUMPDEST PUSH1 0x0 DUP1 PUSH1 0x40 DUP4 DUP6 SUB SLT ISZERO PUSH2 0x4585 JUMPI DUP2 DUP3 REVERT JUMPDEST POP POP DUP1 MLOAD PUSH1 0x20 SWAP1 SWAP2 ADD MLOAD SWAP1 SWAP3 SWAP1 SWAP2 POP JUMP JUMPDEST PUSH1 0x0 PUSH1 0x60 DUP3 DUP5 SUB SLT ISZERO PUSH2 0x45A7 JUMPI DUP1 DUP2 REVERT JUMPDEST PUSH1 0x40 MLOAD PUSH1 0x60 DUP2 ADD DUP2 DUP2 LT PUSH8 0xFFFFFFFFFFFFFFFF DUP3 GT OR ISZERO PUSH2 0x45C4 JUMPI INVALID JUMPDEST PUSH1 0x40 MSTORE PUSH2 0x45D0 DUP4 PUSH2 0x4251 JUMP JUMPDEST DUP2 MSTORE PUSH1 0x20 DUP4 ADD CALLDATALOAD PUSH1 0x1 PUSH1 0x1 PUSH1 0x78 SHL SUB DUP2 AND DUP2 EQ PUSH2 0x45EB JUMPI DUP3 DUP4 REVERT JUMPDEST PUSH1 0x20 DUP3 ADD MSTORE PUSH1 0x40 DUP4 ADD CALLDATALOAD PUSH1 0x1 PUSH1 0x1 PUSH1 0x80 SHL SUB DUP2 AND DUP2 EQ PUSH2 0x4609 JUMPI DUP3 DUP4 REVERT JUMPDEST PUSH1 0x40 DUP3 ADD MSTORE SWAP4 SWAP3 POP POP POP JUMP JUMPDEST PUSH1 0x0 DUP1 PUSH1 0x0 PUSH1 0x60 DUP5 DUP7 SUB SLT ISZERO PUSH2 0x4629 JUMPI DUP1 DUP2 REVERT JUMPDEST DUP4 CALLDATALOAD PUSH8 0xFFFFFFFFFFFFFFFF DUP1 DUP3 GT ISZERO PUSH2 0x4640 JUMPI DUP3 DUP4 REVERT JUMPDEST DUP2 DUP7 ADD SWAP2 POP PUSH2 0x120 DUP1 DUP4 DUP10 SUB SLT ISZERO PUSH2 0x4656 JUMPI DUP4 DUP5 REVERT JUMPDEST PUSH2 0x465F DUP2 PUSH2 0x4B59 JUMP JUMPDEST SWAP1 POP PUSH2 0x466A DUP4 PUSH2 0x42C6 JUMP JUMPDEST DUP2 MSTORE PUSH2 0x4678 PUSH1 0x20 DUP5 ADD PUSH2 0x4246 JUMP JUMPDEST PUSH1 0x20 DUP3 ADD MSTORE PUSH2 0x4689 PUSH1 0x40 DUP5 ADD PUSH2 0x4246 JUMP JUMPDEST PUSH1 0x40 DUP3 ADD MSTORE PUSH1 0x60 DUP4 ADD CALLDATALOAD PUSH1 0x60 DUP3 ADD MSTORE PUSH1 0x80 DUP4 ADD CALLDATALOAD PUSH1 0x80 DUP3 ADD MSTORE PUSH1 0xA0 DUP4 ADD CALLDATALOAD PUSH1 0xA0 DUP3 ADD MSTORE PUSH2 0x46B8 PUSH1 0xC0 DUP5 ADD PUSH2 0x4246 JUMP JUMPDEST PUSH1 0xC0 DUP3 ADD MSTORE PUSH2 0x46C9 PUSH1 0xE0 DUP5 ADD PUSH2 0x4246 JUMP JUMPDEST PUSH1 0xE0 DUP3 ADD MSTORE PUSH2 0x100 DUP1 DUP5 ADD CALLDATALOAD DUP4 DUP2 GT ISZERO PUSH2 0x46E1 JUMPI DUP6 DUP7 REVERT JUMPDEST PUSH2 0x46ED DUP11 DUP3 DUP8 ADD PUSH2 0x4261 JUMP JUMPDEST SWAP2 DUP4 ADD SWAP2 SWAP1 SWAP2 MSTORE POP SWAP8 PUSH1 0x20 DUP8 ADD CALLDATALOAD SWAP8 POP PUSH1 0x40 SWAP1 SWAP7 ADD CALLDATALOAD SWAP6 SWAP5 POP POP POP POP POP JUMP JUMPDEST PUSH1 0x0 PUSH1 0x20 DUP3 DUP5 SUB SLT ISZERO PUSH2 0x471D JUMPI DUP1 DUP2 REVERT JUMPDEST POP CALLDATALOAD SWAP2 SWAP1 POP JUMP JUMPDEST PUSH1 0x0 PUSH1 0x20 DUP3 DUP5 SUB SLT ISZERO PUSH2 0x4735 JUMPI DUP1 DUP2 REVERT JUMPDEST POP MLOAD SWAP2 SWAP1 POP JUMP JUMPDEST PUSH1 0x0 DUP1 PUSH1 0x0 DUP1 PUSH1 0x80 DUP6 DUP8 SUB SLT ISZERO PUSH2 0x4751 JUMPI DUP2 DUP3 REVERT JUMPDEST DUP5 MLOAD SWAP4 POP PUSH1 0x20 DUP6 ADD MLOAD SWAP3 POP PUSH1 0x40 DUP6 ADD MLOAD SWAP2 POP PUSH1 0x60 DUP6 ADD MLOAD PUSH2 0x4771 DUP2 PUSH2 0x4B7D JUMP JUMPDEST SWAP4 SWAP7 SWAP3 SWAP6 POP SWAP1 SWAP4 POP POP JUMP JUMPDEST PUSH1 0x0 DUP2 MLOAD DUP1 DUP5 MSTORE PUSH1 0x20 DUP1 DUP6 ADD SWAP5 POP DUP1 DUP5 ADD DUP4 JUMPDEST DUP4 DUP2 LT ISZERO PUSH2 0x47AB JUMPI DUP2 MLOAD DUP8 MSTORE SWAP6 DUP3 ADD SWAP6 SWAP1 DUP3 ADD SWAP1 PUSH1 0x1 ADD PUSH2 0x478F JUMP JUMPDEST POP SWAP5 SWAP6 SWAP5 POP POP POP POP POP JUMP JUMPDEST PUSH2 0x47C1 DUP3 DUP3 MLOAD PUSH2 0x483B JUMP JUMPDEST PUSH1 0x20 DUP2 ADD MLOAD PUSH2 0x47D3 PUSH1 0x40 DUP5 ADD DUP3 PUSH2 0x483B JUMP JUMPDEST POP PUSH1 0x40 DUP2 ADD MLOAD PUSH1 0x80 DUP4 ADD MSTORE PUSH1 0x60 DUP2 ADD MLOAD PUSH1 0xA0 DUP4 ADD MSTORE PUSH1 0x80 DUP2 ADD MLOAD PUSH1 0xC0 DUP4 ADD MSTORE PUSH1 0xA0 DUP2 ADD MLOAD PUSH1 0xE0 DUP4 ADD MSTORE PUSH1 0xC0 DUP2 ADD MLOAD PUSH2 0x100 DUP4 ADD MSTORE POP POP JUMP JUMPDEST DUP1 MLOAD DUP3 MSTORE PUSH1 0x20 DUP2 ADD MLOAD PUSH1 0x20 DUP4 ADD MSTORE PUSH1 0x40 DUP2 ADD MLOAD PUSH1 0x40 DUP4 ADD MSTORE PUSH1 0x60 DUP2 ADD MLOAD PUSH1 0x60 DUP4 ADD MSTORE PUSH1 0x80 DUP2 ADD MLOAD PUSH1 0x80 DUP4 ADD MSTORE POP POP JUMP JUMPDEST DUP1 MLOAD DUP3 MSTORE PUSH1 0x20 SWAP1 DUP2 ADD MLOAD SWAP2 ADD MSTORE JUMP JUMPDEST PUSH1 0x0 DUP3 DUP5 DUP4 CALLDATACOPY SWAP2 ADD SWAP1 DUP2 MSTORE SWAP2 SWAP1 POP JUMP JUMPDEST PUSH1 0x1 PUSH1 0x1 PUSH1 0xA0 SHL SUB SWAP2 SWAP1 SWAP2 AND DUP2 MSTORE PUSH1 0x20 ADD SWAP1 JUMP JUMPDEST PUSH1 0x0 PUSH1 0x20 DUP3 MSTORE PUSH2 0x7F3 PUSH1 0x20 DUP4 ADD DUP5 PUSH2 0x477C JUMP JUMPDEST PUSH1 0x0 PUSH1 0x40 DUP3 MSTORE PUSH2 0x4894 PUSH1 0x40 DUP4 ADD DUP6 PUSH2 0x477C JUMP JUMPDEST DUP3 DUP2 SUB PUSH1 0x20 DUP5 ADD MSTORE PUSH2 0x2975 DUP2 DUP6 PUSH2 0x477C JUMP JUMPDEST PUSH1 0x0 PUSH2 0x1E0 DUP1 DUP4 MSTORE PUSH2 0x48BA DUP2 DUP5 ADD DUP8 PUSH2 0x477C JUMP JUMPDEST SWAP2 POP POP PUSH2 0x48CA PUSH1 0x20 DUP4 ADD DUP6 PUSH2 0x480B JUMP JUMPDEST PUSH2 0x2C96 PUSH1 0xC0 DUP4 ADD DUP5 PUSH2 0x47B6 JUMP JUMPDEST PUSH1 0x0 PUSH2 0x200 DUP1 DUP4 MSTORE PUSH2 0x48EB DUP2 DUP5 ADD DUP9 PUSH2 0x477C JUMP JUMPDEST SWAP2 POP POP PUSH2 0x48FB PUSH1 0x20 DUP4 ADD DUP7 PUSH2 0x480B JUMP JUMPDEST PUSH2 0x4908 PUSH1 0xC0 DUP4 ADD DUP6 PUSH2 0x47B6 JUMP JUMPDEST DUP3 PUSH2 0x1E0 DUP4 ADD MSTORE SWAP6 SWAP5 POP POP POP POP POP JUMP JUMPDEST PUSH1 0x0 PUSH1 0x80 DUP3 MSTORE PUSH2 0x492B PUSH1 0x80 DUP4 ADD DUP7 PUSH2 0x477C JUMP JUMPDEST SWAP1 POP PUSH2 0x493A PUSH1 0x20 DUP4 ADD DUP6 PUSH2 0x483B JUMP JUMPDEST DUP3 PUSH1 0x60 DUP4 ADD MSTORE SWAP5 SWAP4 POP POP POP POP JUMP JUMPDEST PUSH1 0x0 PUSH2 0x260 DUP1 DUP4 MSTORE PUSH2 0x495C DUP2 DUP5 ADD DUP11 PUSH2 0x477C JUMP JUMPDEST SWAP2 POP POP DUP7 PUSH1 0x20 DUP4 ADD MSTORE DUP6 ISZERO ISZERO PUSH1 0x40 DUP4 ADD MSTORE PUSH2 0x497A PUSH1 0x60 DUP4 ADD DUP7 PUSH2 0x480B JUMP JUMPDEST PUSH2 0x4988 PUSH2 0x100 DUP4 ADD DUP6 PUSH2 0x47B6 JUMP JUMPDEST PUSH2 0x2E47 PUSH2 0x220 DUP4 ADD DUP5 PUSH2 0x483B JUMP JUMPDEST SWAP1 ISZERO ISZERO DUP2 MSTORE PUSH1 0x20 ADD SWAP1 JUMP JUMPDEST SWAP3 ISZERO ISZERO DUP4 MSTORE PUSH1 0x20 DUP4 ADD SWAP2 SWAP1 SWAP2 MSTORE PUSH1 0x40 DUP3 ADD MSTORE PUSH1 0x60 ADD SWAP1 JUMP JUMPDEST SWAP1 DUP2 MSTORE PUSH1 0x20 ADD SWAP1 JUMP JUMPDEST SWAP2 DUP3 MSTORE PUSH1 0x1 PUSH1 0x1 PUSH1 0xA0 SHL SUB AND PUSH1 0x20 DUP3 ADD MSTORE PUSH1 0x40 ADD SWAP1 JUMP JUMPDEST SWAP6 DUP7 MSTORE PUSH1 0x20 DUP7 ADD SWAP5 SWAP1 SWAP5 MSTORE PUSH1 0x40 DUP6 ADD SWAP3 SWAP1 SWAP3 MSTORE PUSH1 0x60 DUP5 ADD MSTORE ISZERO ISZERO PUSH1 0x80 DUP4 ADD MSTORE PUSH1 0xA0 DUP3 ADD MSTORE PUSH1 0xC0 ADD SWAP1 JUMP JUMPDEST PUSH1 0x0 PUSH1 0x20 DUP1 DUP4 MSTORE DUP4 MLOAD DUP1 DUP3 DUP6 ADD MSTORE DUP3 JUMPDEST DUP2 DUP2 LT ISZERO PUSH2 0x4A2F JUMPI DUP6 DUP2 ADD DUP4 ADD MLOAD DUP6 DUP3 ADD PUSH1 0x40 ADD MSTORE DUP3 ADD PUSH2 0x4A13 JUMP JUMPDEST DUP2 DUP2 GT ISZERO PUSH2 0x4A40 JUMPI DUP4 PUSH1 0x40 DUP4 DUP8 ADD ADD MSTORE JUMPDEST POP PUSH1 0x1F ADD PUSH1 0x1F NOT AND SWAP3 SWAP1 SWAP3 ADD PUSH1 0x40 ADD SWAP4 SWAP3 POP POP POP JUMP JUMPDEST DUP2 MLOAD ISZERO ISZERO DUP2 MSTORE PUSH1 0x20 DUP1 DUP4 ADD MLOAD PUSH1 0x1 PUSH1 0x1 PUSH1 0x78 SHL SUB AND SWAP1 DUP3 ADD MSTORE PUSH1 0x40 SWAP2 DUP3 ADD MLOAD PUSH1 0x1 PUSH1 0x1 PUSH1 0x80 SHL SUB AND SWAP2 DUP2 ADD SWAP2 SWAP1 SWAP2 MSTORE PUSH1 0x60 ADD SWAP1 JUMP JUMPDEST SWAP1 SLOAD PUSH1 0xFF DUP2 AND ISZERO ISZERO DUP3 MSTORE PUSH1 0x8 DUP2 SWAP1 SHR PUSH1 0x1 PUSH1 0x1 PUSH1 0x78 SHL SUB AND PUSH1 0x20 DUP4 ADD MSTORE PUSH1 0x80 SHR PUSH1 0x40 DUP3 ADD MSTORE PUSH1 0x60 ADD SWAP1 JUMP JUMPDEST PUSH2 0x1C0 DUP2 ADD PUSH2 0x4AC5 DUP3 DUP6 PUSH2 0x480B JUMP JUMPDEST PUSH2 0x4AD3 PUSH1 0xA0 DUP4 ADD DUP5 MLOAD PUSH2 0x483B JUMP JUMPDEST PUSH1 0x20 DUP4 ADD MLOAD PUSH2 0x4AE5 PUSH1 0xE0 DUP5 ADD DUP3 PUSH2 0x483B JUMP JUMPDEST POP PUSH1 0x40 DUP4 ADD MLOAD PUSH2 0x120 DUP4 ADD MSTORE PUSH1 0x60 DUP4 ADD MLOAD PUSH2 0x140 DUP4 ADD MSTORE PUSH1 0x80 DUP4 ADD MLOAD PUSH2 0x160 DUP4 ADD MSTORE PUSH1 0xA0 DUP4 ADD MLOAD PUSH2 0x180 DUP4 ADD MSTORE PUSH1 0xC0 DUP4 ADD MLOAD PUSH2 0x1A0 DUP4 ADD MSTORE SWAP4 SWAP3 POP POP POP JUMP JUMPDEST PUSH1 0x0 DUP4 DUP3 MSTORE PUSH1 0x40 PUSH1 0x20 DUP4 ADD MSTORE PUSH2 0x2C96 PUSH1 0x40 DUP4 ADD DUP5 PUSH2 0x477C JUMP JUMPDEST SWAP2 DUP3 MSTORE PUSH1 0x20 DUP3 ADD MSTORE PUSH1 0x40 ADD SWAP1 JUMP JUMPDEST PUSH1 0xFF SWAP2 SWAP1 SWAP2 AND DUP2 MSTORE PUSH1 0x20 ADD SWAP1 JUMP JUMPDEST PUSH1 0x40 MLOAD DUP2 DUP2 ADD PUSH8 0xFFFFFFFFFFFFFFFF DUP2 GT DUP3 DUP3 LT OR ISZERO PUSH2 0x4B75 JUMPI INVALID JUMPDEST PUSH1 0x40 MSTORE SWAP2 SWAP1 POP JUMP JUMPDEST PUSH1 0x1 PUSH1 0x1 PUSH1 0xA0 SHL SUB DUP2 AND DUP2 EQ PUSH2 0x752 JUMPI PUSH1 0x0 DUP1 REVERT INVALID MSTORE8 PUSH2 0x6665 NUMBER PUSH2 0x7374 GASPRICE KECCAK256 PUSH23 0x616C756520646F65736E27742066697420696E20616E20 PUSH10 0x6E74323536A264697066 PUSH20 0x58221220353142BBBE1BCEC84489D54CDAC813C5 LOG4 0xE3 0xD6 0xB0 0xE7 PUSH15 0xD9227A56BF76D66277DA64736F6C63 NUMBER STOP SMOD MOD STOP CALLER ","sha1":"a3dab8f67091da391ca41f9f933d366ec7534019","source":"// SPDX-License-Identifier: LicenseRef-Gyro-1.0\n// for information on licensing please see the README in the GitHub repository <https://github.com/gyrostable/concentrated-lps>.\n\npragma solidity 0.7.6;\npragma experimental ABIEncoderV2;\n\n// import \"@balancer-labs/v2-solidity-utils/contracts/math/FixedPoint.sol\";\nimport \"../../libraries/GyroFixedPoint.sol\";\n\nimport \"@balancer-labs/v2-pool-weighted/contracts/WeightedPoolUserDataHelpers.sol\";\nimport \"@balancer-labs/v2-pool-weighted/contracts/WeightedPool2TokensMiscData.sol\";\nimport \"@balancer-labs/v2-pool-utils/contracts/interfaces/IRateProvider.sol\";\n\nimport \"../../libraries/GyroConfigKeys.sol\";\nimport \"../../libraries/GyroConfigHelpers.sol\";\nimport \"../../libraries/GyroErrors.sol\";\nimport \"../../interfaces/IGyroConfig.sol\";\nimport \"../../libraries/GyroPoolMath.sol\";\n\nimport \"../ExtensibleWeightedPool2Tokens.sol\";\nimport \"./GyroECLPMath.sol\";\nimport \"../CappedLiquidity.sol\";\nimport \"../LocallyPausable.sol\";\n\ncontract GyroECLPPool is ExtensibleWeightedPool2Tokens, CappedLiquidity, LocallyPausable {\n    using GyroFixedPoint for uint256;\n    using WeightedPoolUserDataHelpers for bytes;\n    using WeightedPool2TokensMiscData for bytes32;\n    using SafeCast for int256;\n    using SafeCast for uint256;\n    using GyroConfigHelpers for IGyroConfig;\n\n    uint256 private constant _MINIMUM_BPT = 1e6;\n    bytes32 private constant POOL_TYPE = \"ECLP\";\n\n    /// @dev Parameters of the ECLP pool\n    int256 internal immutable _paramsAlpha;\n    int256 internal immutable _paramsBeta;\n    int256 internal immutable _paramsC;\n    int256 internal immutable _paramsS;\n    int256 internal immutable _paramsLambda;\n    int256 internal immutable _tauAlphaX;\n    int256 internal immutable _tauAlphaY;\n    int256 internal immutable _tauBetaX;\n    int256 internal immutable _tauBetaY;\n    int256 internal immutable _u;\n    int256 internal immutable _v;\n    int256 internal immutable _w;\n    int256 internal immutable _z;\n    int256 internal immutable _dSq;\n\n    IGyroConfig public gyroConfig;\n\n    /// @dev for rate scaling\n    IRateProvider public immutable rateProvider0;\n    IRateProvider public immutable rateProvider1;\n\n    struct GyroParams {\n        NewPoolParams baseParams;\n        GyroECLPMath.Params eclpParams;\n        GyroECLPMath.DerivedParams derivedEclpParams;\n        address rateProvider0;\n        address rateProvider1;\n        address capManager;\n        CapParams capParams;\n        address pauseManager;\n    }\n\n    event ECLPParamsValidated(bool paramsValidated);\n    event ECLPDerivedParamsValidated(bool derivedParamsValidated);\n\n    event InvariantAterInitializeJoin(uint256 invariantAfterJoin);\n    event InvariantOldAndNew(uint256 oldInvariant, uint256 newInvariant);\n\n    event SwapParams(uint256[] balances, GyroECLPMath.Vector2 invariant, uint256 amount);\n\n    constructor(GyroParams memory params, address configAddress)\n        ExtensibleWeightedPool2Tokens(params.baseParams)\n        CappedLiquidity(params.capManager, params.capParams)\n        LocallyPausable(params.pauseManager)\n    {\n        _grequire(configAddress != address(0x0), GyroECLPPoolErrors.ADDRESS_IS_ZERO_ADDRESS);\n\n        GyroECLPMath.validateParams(params.eclpParams);\n        emit ECLPParamsValidated(true);\n\n        GyroECLPMath.validateDerivedParamsLimits(params.eclpParams, params.derivedEclpParams);\n        emit ECLPDerivedParamsValidated(true);\n\n        (_paramsAlpha, _paramsBeta, _paramsC, _paramsS, _paramsLambda) = (\n            params.eclpParams.alpha,\n            params.eclpParams.beta,\n            params.eclpParams.c,\n            params.eclpParams.s,\n            params.eclpParams.lambda\n        );\n\n        (_tauAlphaX, _tauAlphaY, _tauBetaX, _tauBetaY, _u, _v, _w, _z, _dSq) = (\n            params.derivedEclpParams.tauAlpha.x,\n            params.derivedEclpParams.tauAlpha.y,\n            params.derivedEclpParams.tauBeta.x,\n            params.derivedEclpParams.tauBeta.y,\n            params.derivedEclpParams.u,\n            params.derivedEclpParams.v,\n            params.derivedEclpParams.w,\n            params.derivedEclpParams.z,\n            params.derivedEclpParams.dSq\n        );\n\n        gyroConfig = IGyroConfig(configAddress);\n\n        rateProvider0 = IRateProvider(params.rateProvider0);\n        rateProvider1 = IRateProvider(params.rateProvider1);\n    }\n\n    /** @dev reconstructs ECLP params structs from immutable arrays */\n    function reconstructECLPParams() internal view returns (GyroECLPMath.Params memory params, GyroECLPMath.DerivedParams memory d) {\n        (params.alpha, params.beta, params.c, params.s, params.lambda) = (_paramsAlpha, _paramsBeta, _paramsC, _paramsS, _paramsLambda);\n        (d.tauAlpha.x, d.tauAlpha.y, d.tauBeta.x, d.tauBeta.y) = (_tauAlphaX, _tauAlphaY, _tauBetaX, _tauBetaY);\n        (d.u, d.v, d.w, d.z, d.dSq) = (_u, _v, _w, _z, _dSq);\n    }\n\n    function getECLPParams() external view returns (GyroECLPMath.Params memory params, GyroECLPMath.DerivedParams memory d) {\n        return reconstructECLPParams();\n    }\n\n    /** @dev Reads the balance of a token from the balancer vault and returns the scaled amount. Smaller storage access\n     * compared to getVault().getPoolTokens().\n     * Copied from the 3CLP *except* that for the 2CLP, the scalingFactor is interpreted as a regular integer, not a\n     * FixedPoint number. This is an inconsistency between the base contracts.\n     */\n    function _getScaledTokenBalance(IERC20 token, uint256 scalingFactor) internal view returns (uint256 balance) {\n        // Signature of getPoolTokenInfo(): (pool id, token) -> (cash, managed, lastChangeBlock, assetManager)\n        // and total amount = cash + managed. See balancer repo, PoolTokens.sol and BalanceAllocation.sol\n        (uint256 cash, uint256 managed, , ) = getVault().getPoolTokenInfo(getPoolId(), token);\n        balance = cash + managed; // can't overflow, see BalanceAllocation.sol::total() in the Balancer repo.\n        balance = balance.mulDown(scalingFactor);\n    }\n\n    /** @dev Get all balances in the pool, scaled by the appropriate scaling factors, in a relatively gas-efficient way.\n     * Essentially copied from the 3CLP.\n     */\n    function _getAllBalances() internal view returns (uint256[] memory balances) {\n        // The below is more gas-efficient than the following line because the token slots don't have to be read in the\n        // vault.\n        // (, uint256[] memory balances, ) = getVault().getPoolTokens(getPoolId());\n        balances = new uint256[](2);\n        balances[0] = _getScaledTokenBalance(_token0, _scalingFactor(true));\n        balances[1] = _getScaledTokenBalance(_token1, _scalingFactor(false));\n        return balances;\n    }\n\n    /**\n     * @dev Returns the current value of the invariant.\n     * Note: This function is not used internally; it's public, not external, so we can override it cleanly.\n     */\n    function getInvariant() public view override returns (uint256) {\n        uint256[] memory balances = _getAllBalances();\n        (GyroECLPMath.Params memory eclpParams, GyroECLPMath.DerivedParams memory derivedECLPParams) = reconstructECLPParams();\n        return GyroECLPMath.calculateInvariant(balances, eclpParams, derivedECLPParams);\n    }\n\n    /** When rateProvider{0,1} is provided, this returns the *scaled* price, suitable to compare *rate scaled* balances.\n     *  To compare (decimal- but) not-rate-scaled balances, apply _adjustPrice() to the result.\n     */\n    function _getPrice(\n        uint256[] memory balances,\n        uint256 invariant,\n        GyroECLPMath.Params memory eclpParams,\n        GyroECLPMath.DerivedParams memory derivedECLPParams\n    ) internal view returns (uint256 spotPrice) {\n        spotPrice = GyroECLPMath.calcSpotPrice0in1(balances, eclpParams, derivedECLPParams, invariant.toInt256());\n    }\n\n    /** Returns the current spot price of token0 quoted in units of token1. When rateProvider{0,1} is provided, the\n     * returned price corresponds to tokens *before* rate scaling.\n     */\n    function getPrice() external view returns (uint256 spotPrice) {\n        uint256[] memory balances = _getAllBalances();\n        (GyroECLPMath.Params memory eclpParams, GyroECLPMath.DerivedParams memory derivedECLPParams) = reconstructECLPParams();\n        uint256 invariant = GyroECLPMath.calculateInvariant(balances, eclpParams, derivedECLPParams);\n        spotPrice = _getPrice(balances, invariant, eclpParams, derivedECLPParams);\n        spotPrice = _adjustPrice(spotPrice);\n    }\n\n    // Swap Hooks\n\n    function onSwap(\n        SwapRequest memory request,\n        uint256 balanceTokenIn,\n        uint256 balanceTokenOut\n    ) public virtual override whenNotPaused onlyVault(request.poolId) returns (uint256) {\n        bool tokenInIsToken0;\n\n        if (request.tokenIn == _token0 && request.tokenOut == _token1) {\n            tokenInIsToken0 = true;\n        } else if (request.tokenIn == _token1 && request.tokenOut == _token0) {\n            tokenInIsToken0 = false;\n        } else {\n            _revert(GyroECLPPoolErrors.TOKEN_IN_IS_NOT_TOKEN_0);\n        }\n\n        uint256 scalingFactorTokenIn = _scalingFactor(tokenInIsToken0);\n        uint256 scalingFactorTokenOut = _scalingFactor(!tokenInIsToken0);\n\n        // All token amounts are upscaled.\n        balanceTokenIn = _upscale(balanceTokenIn, scalingFactorTokenIn);\n        balanceTokenOut = _upscale(balanceTokenOut, scalingFactorTokenOut);\n\n        // We \"undo\" the pre-processing that the caller of onSwap() did: In contrast to other pools, we don't exploit\n        // symmetry here, and we identify the two tokens explicitly.\n        uint256[] memory balances = _balancesFromTokenInOut(balanceTokenIn, balanceTokenOut, tokenInIsToken0);\n\n        (GyroECLPMath.Params memory eclpParams, GyroECLPMath.DerivedParams memory derivedECLPParams) = reconstructECLPParams();\n        GyroECLPMath.Vector2 memory invariant;\n        {\n            (int256 currentInvariant, int256 invErr) = GyroECLPMath.calculateInvariantWithError(balances, eclpParams, derivedECLPParams);\n            // invariant = overestimate in x-component, underestimate in y-component\n            // No overflow in `+` due to constraints to the different values enforced in GyroECLPMath.\n            invariant = GyroECLPMath.Vector2(currentInvariant + 2 * invErr, currentInvariant);\n        }\n\n        if (request.kind == IVault.SwapKind.GIVEN_IN) {\n            // Fees are subtracted before scaling, to reduce the complexity of the rounding direction analysis.\n            // This is amount - fee amount, so we round up (favoring a higher fee amount).\n            uint256 feeAmount = request.amount.mulUp(getSwapFeePercentage());\n            request.amount = _upscale(request.amount.sub(feeAmount), scalingFactorTokenIn);\n\n            uint256 amountOut = _onSwapGivenIn(request, balances, tokenInIsToken0, eclpParams, derivedECLPParams, invariant);\n\n            emit SwapParams(balances, invariant, amountOut);\n\n            // amountOut tokens are exiting the Pool, so we round down.\n            return _downscaleDown(amountOut, scalingFactorTokenOut);\n        } else {\n            request.amount = _upscale(request.amount, scalingFactorTokenOut);\n\n            uint256 amountIn = _onSwapGivenOut(request, balances, tokenInIsToken0, eclpParams, derivedECLPParams, invariant);\n\n            emit SwapParams(balances, invariant, amountIn);\n\n            // amountIn tokens are entering the Pool, so we round up.\n            amountIn = _downscaleUp(amountIn, scalingFactorTokenIn);\n\n            // Fees are added after scaling happens, to reduce the complexity of the rounding direction analysis.\n            // This is amount + fee amount, so we round up (favoring a higher fee amount).\n            return amountIn.divUp(getSwapFeePercentage().complement());\n        }\n    }\n\n    function _onSwapGivenIn(\n        SwapRequest memory swapRequest,\n        uint256[] memory balances,\n        bool tokenInIsToken0,\n        GyroECLPMath.Params memory eclpParams,\n        GyroECLPMath.DerivedParams memory derivedECLPParams,\n        GyroECLPMath.Vector2 memory invariant\n    ) private pure returns (uint256) {\n        // Swaps are disabled while the contract is paused.\n        return GyroECLPMath.calcOutGivenIn(balances, swapRequest.amount, tokenInIsToken0, eclpParams, derivedECLPParams, invariant);\n    }\n\n    function _onSwapGivenOut(\n        SwapRequest memory swapRequest,\n        uint256[] memory balances,\n        bool tokenInIsToken0,\n        GyroECLPMath.Params memory eclpParams,\n        GyroECLPMath.DerivedParams memory derivedECLPParams,\n        GyroECLPMath.Vector2 memory invariant\n    ) private pure returns (uint256) {\n        // Swaps are disabled while the contract is paused.\n        return GyroECLPMath.calcInGivenOut(balances, swapRequest.amount, tokenInIsToken0, eclpParams, derivedECLPParams, invariant);\n    }\n\n    /**\n     * @dev Called when the Pool is joined for the first time; that is, when the BPT total supply is zero.\n     *\n     * Returns the amount of BPT to mint, and the token amounts the Pool will receive in return.\n     *\n     * Minted BPT will be sent to `recipient`, except for _MINIMUM_BPT, which will be deducted from this amount and sent\n     * to the zero address instead. This will cause that BPT to remain forever locked there, preventing total BTP from\n     * ever dropping below that value, and ensuring `_onInitializePool` can only be called once in the entire Pool's\n     * lifetime.\n     *\n     * The tokens granted to the Pool will be transferred from `sender`. These amounts are considered upscaled and will\n     * be downscaled (rounding up) before being returned to the Vault.\n     */\n    function _onInitializePool(\n        bytes32,\n        address,\n        address,\n        bytes memory userData\n    ) internal override returns (uint256, uint256[] memory) {\n        BaseWeightedPool.JoinKind kind = userData.joinKind();\n        _require(kind == BaseWeightedPool.JoinKind.INIT, Errors.UNINITIALIZED);\n\n        uint256[] memory amountsIn = userData.initialAmountsIn();\n        InputHelpers.ensureInputLengthMatch(amountsIn.length, 2);\n        _upscaleArray(amountsIn);\n\n        (GyroECLPMath.Params memory eclpParams, GyroECLPMath.DerivedParams memory derivedECLPParams) = reconstructECLPParams();\n        uint256 invariantAfterJoin = GyroECLPMath.calculateInvariant(amountsIn, eclpParams, derivedECLPParams);\n\n        emit InvariantAterInitializeJoin(invariantAfterJoin);\n\n        /* We initialize the number of BPT tokens such that one BPT token corresponds to one unit of token1 at the initialized pool price. This makes BPT tokens comparable across pools with different parameters. Note that the invariant does *not* have this property!\n         */\n        uint256 spotPrice = _getPrice(amountsIn, invariantAfterJoin, eclpParams, derivedECLPParams);\n        uint256 bptAmountOut = Math.add(amountsIn[0].mulDown(spotPrice), amountsIn[1]);\n\n        _lastInvariant = invariantAfterJoin;\n\n        return (bptAmountOut, amountsIn);\n    }\n\n    /**\n     * @dev Called whenever the Pool is joined after the first initialization join (see `_onInitializePool`).\n     *\n     * Returns the amount of BPT to mint, the token amounts that the Pool will receive in return, and the number of\n     * tokens to pay in protocol swap fees.\n     *\n     * Implementations of this function might choose to mutate the `balances` array to save gas (e.g. when\n     * performing intermediate calculations, such as subtraction of due protocol fees). This can be done safely.\n     *\n     * Minted BPT will be sent to `recipient`.\n     *\n     * The tokens granted to the Pool will be transferred from `sender`. These amounts are considered upscaled and will\n     * be downscaled (rounding up) before being returned to the Vault.\n     *\n     * Due protocol swap fees will be taken from the Pool's balance in the Vault (see `IBasePool.onJoinPool`). These\n     * amounts are considered upscaled and will be downscaled (rounding down) before being returned to the Vault.\n     *\n     * protocolSwapFeePercentage argument is intentionally unused as protocol fees are handled in a different way\n     */\n    function _onJoinPool(\n        bytes32,\n        address,\n        address recipient,\n        uint256[] memory balances,\n        uint256 lastChangeBlock,\n        uint256, //protocolSwapFeePercentage,\n        bytes memory userData\n    )\n        internal\n        override\n        returns (\n            uint256,\n            uint256[] memory,\n            uint256[] memory\n        )\n    {\n        // Due protocol swap fee amounts are computed by measuring the growth of the invariant between the previous join\n        // or exit event and now - the invariant's growth is due exclusively to swap fees. This avoids spending gas\n        // computing them on each individual swap\n        (GyroECLPMath.Params memory eclpParams, GyroECLPMath.DerivedParams memory derivedECLPParams) = reconstructECLPParams();\n        uint256 invariantBeforeAction = GyroECLPMath.calculateInvariant(balances, eclpParams, derivedECLPParams);\n\n        _distributeFees(invariantBeforeAction);\n\n        (uint256 bptAmountOut, uint256[] memory amountsIn) = _doJoin(balances, userData);\n\n        if (_capParams.capEnabled) {\n            _ensureCap(bptAmountOut, balanceOf(recipient), totalSupply());\n        }\n\n        // Since we pay fees in BPT, they have not changed the invariant and 'invariantBeforeAction' is still consistent with\n        // 'balances'. Therefore, we can use a simplified method to update the invariant that does not require a full\n        // re-computation.\n        // Note: Should this be changed in the future, we also need to reduce the invariant proportionally by the total\n        // protocol fee factor.\n        _lastInvariant = GyroPoolMath.liquidityInvariantUpdate(invariantBeforeAction, bptAmountOut, totalSupply(), true);\n\n        emit InvariantOldAndNew(invariantBeforeAction, _lastInvariant);\n\n        // returns a new uint256[](2) b/c Balancer vault is expecting a fee array, but fees paid in BPT instead\n        return (bptAmountOut, amountsIn, new uint256[](2));\n    }\n\n    function _doJoin(uint256[] memory balances, bytes memory userData) internal view returns (uint256 bptAmountOut, uint256[] memory amountsIn) {\n        BaseWeightedPool.JoinKind kind = userData.joinKind();\n\n        // We do NOT currently support unbalanced update, i.e., EXACT_TOKENS_IN_FOR_BPT_OUT or TOKEN_IN_FOR_EXACT_BPT_OUT\n        if (kind == BaseWeightedPool.JoinKind.ALL_TOKENS_IN_FOR_EXACT_BPT_OUT) {\n            (bptAmountOut, amountsIn) = _joinAllTokensInForExactBPTOut(balances, userData);\n        } else {\n            _revert(Errors.UNHANDLED_JOIN_KIND);\n        }\n    }\n\n    function _joinAllTokensInForExactBPTOut(uint256[] memory balances, bytes memory userData)\n        internal\n        view\n        override\n        returns (uint256, uint256[] memory)\n    {\n        uint256 bptAmountOut = userData.allTokensInForExactBptOut();\n        // Note that there is no maximum amountsIn parameter: this is handled by `IVault.joinPool`.\n\n        uint256[] memory amountsIn = GyroPoolMath._calcAllTokensInGivenExactBptOut(balances, bptAmountOut, totalSupply());\n\n        return (bptAmountOut, amountsIn);\n    }\n\n    /**\n     * @dev Called whenever the Pool is exited.\n     *\n     * Returns the amount of BPT to burn, the token amounts for each Pool token that the Pool will grant in return, and\n     * the number of tokens to pay in protocol swap fees.\n     *\n     * Implementations of this function might choose to mutate the `balances` array to save gas (e.g. when\n     * performing intermediate calculations, such as subtraction of due protocol fees). This can be done safely.\n     *\n     * BPT will be burnt from `sender`.\n     *\n     * The Pool will grant tokens to `recipient`. These amounts are considered upscaled and will be downscaled\n     * (rounding down) before being returned to the Vault.\n     *\n     * Due protocol swap fees will be taken from the Pool's balance in the Vault (see `IBasePool.onExitPool`). These\n     * amounts are considered upscaled and will be downscaled (rounding down) before being returned to the Vault.\n     *\n     * protocolSwapFeePercentage argument is intentionally unused as protocol fees are handled in a different way\n     */\n    function _onExitPool(\n        bytes32,\n        address,\n        address,\n        uint256[] memory balances,\n        uint256 lastChangeBlock,\n        uint256, // protocolSwapFeePercentage,\n        bytes memory userData\n    )\n        internal\n        override\n        returns (\n            uint256 bptAmountIn,\n            uint256[] memory amountsOut,\n            uint256[] memory dueProtocolFeeAmounts\n        )\n    {\n        // Exits are not completely disabled while the contract is paused: proportional exits (exact BPT in for tokens\n        // out) remain functional.\n        (GyroECLPMath.Params memory eclpParams, GyroECLPMath.DerivedParams memory derivedECLPParams) = reconstructECLPParams();\n\n        // Note: If the contract is paused, swap protocol fee amounts are not charged\n        // to avoid extra calculations and reduce the potential for errors.\n        if (_isNotPaused()) {\n            // Due protocol swap fee amounts are computed by measuring the growth of the invariant between the previous\n            // join or exit event and now - the invariant's growth is due exclusively to swap fees. This avoids\n            // spending gas calculating the fees on each individual swap.\n            uint256 invariantBeforeAction = GyroECLPMath.calculateInvariant(balances, eclpParams, derivedECLPParams);\n\n            _distributeFees(invariantBeforeAction);\n\n            (bptAmountIn, amountsOut) = _doExit(balances, userData);\n\n            // Since we pay fees in BPT, they have not changed the invariant and 'invariantBeforeAction' is still consistent with\n            // 'balances'. Therefore, we can use a simplified method to update the invariant that does not require a full\n            // re-computation.\n            // Note: Should this be changed in the future, we also need to reduce the invariant proportionally by the total\n            // protocol fee factor.\n            _lastInvariant = GyroPoolMath.liquidityInvariantUpdate(invariantBeforeAction, bptAmountIn, totalSupply(), false);\n\n            emit InvariantOldAndNew(invariantBeforeAction, _lastInvariant);\n        } else {\n            // Note: If the contract is paused, swap protocol fee amounts are not charged\n            // to avoid extra calculations and reduce the potential for errors.\n            (bptAmountIn, amountsOut) = _doExit(balances, userData);\n\n            // Invalidate _lastInvariant. We do not compute the invariant to make sure the pool is not locking\n            // up b/c numerical limits might be violated. Instead, we set the invariant such that any following\n            // (non-paused) join/exit will ignore and recompute it. (see GyroPoolMath._calcProtocolFees())\n            _lastInvariant = type(uint256).max;\n        }\n\n        // returns a new uint256[](2) b/c Balancer vault is expecting a fee array, but fees paid in BPT instead\n        return (bptAmountIn, amountsOut, new uint256[](2));\n    }\n\n    function _doExit(uint256[] memory balances, bytes memory userData) internal view returns (uint256 bptAmountIn, uint256[] memory amountsOut) {\n        BaseWeightedPool.ExitKind kind = userData.exitKind();\n\n        // We do NOT support unbalanced exit at the moment, i.e., EXACT_BPT_IN_FOR_ONE_TOKEN_OUT or\n        // BPT_IN_FOR_EXACT_TOKENS_OUT.\n        if (kind == BaseWeightedPool.ExitKind.EXACT_BPT_IN_FOR_TOKENS_OUT) {\n            (bptAmountIn, amountsOut) = _exitExactBPTInForTokensOut(balances, userData);\n        } else {\n            _revert(Errors.UNHANDLED_EXIT_KIND);\n        }\n    }\n\n    function _exitExactBPTInForTokensOut(uint256[] memory balances, bytes memory userData)\n        internal\n        view\n        override\n        returns (uint256, uint256[] memory)\n    {\n        // This exit function is the only one that is not disabled if the contract is paused: it remains unrestricted\n        // in an attempt to provide users with a mechanism to retrieve their tokens in case of an emergency.\n        // This particular exit function is the only one that remains available because it is the simplest one, and\n        // therefore the one with the lowest likelihood of errors.\n\n        uint256 bptAmountIn = userData.exactBptInForTokensOut();\n        // Note that there is no minimum amountOut parameter: this is handled by `IVault.exitPool`.\n\n        uint256[] memory amountsOut = GyroPoolMath._calcTokensOutGivenExactBptIn(balances, bptAmountIn, totalSupply());\n        return (bptAmountIn, amountsOut);\n    }\n\n    // Helpers.\n\n    function _balancesFromTokenInOut(\n        uint256 balanceTokenIn,\n        uint256 balanceTokenOut,\n        bool tokenInIsToken0\n    ) internal pure returns (uint256[] memory balances) {\n        balances = new uint256[](2);\n        if (tokenInIsToken0) {\n            balances[0] = balanceTokenIn;\n            balances[1] = balanceTokenOut;\n        } else {\n            balances[0] = balanceTokenOut;\n            balances[1] = balanceTokenIn;\n        }\n    }\n\n    // Fee helpers. These are exactly the same as in the Gyro2CLPPool.\n    // TODO prob about time to make a base class.\n\n    /**\n     * Note: This function is identical to that used in Gyro2CLPPool.sol\n     * @dev Computes and distributes fees between the Balancer and the Gyro treasury\n     * The fees are computed and distributed in BPT rather than using the\n     * Balancer regular distribution mechanism which would pay these in underlying\n     */\n\n    function _distributeFees(uint256 invariantBeforeAction) internal {\n        // calculate Protocol fees in BPT\n        // lastInvariant is the invariant logged at the end of the last liquidity update\n        // protocol fees are calculated on swap fees earned between liquidity updates\n        (uint256 gyroFees, uint256 balancerFees, address gyroTreasury, address balTreasury) = _getDueProtocolFeeAmounts(\n            _lastInvariant,\n            invariantBeforeAction\n        );\n\n        // Pay fees in BPT\n        _payFeesBpt(gyroFees, balancerFees, gyroTreasury, balTreasury);\n    }\n\n    /**\n     * Note: This function is identical to that used in Gyro2CLPPool.sol\n     * @dev this function overrides inherited function to make sure it is never used\n     */\n    function _getDueProtocolFeeAmounts(\n        uint256[] memory, // balances,\n        uint256[] memory, // normalizedWeights,\n        uint256, // previousInvariant,\n        uint256, // currentInvariant,\n        uint256 // protocolSwapFeePercentage\n    ) internal pure override returns (uint256[] memory) {\n        revert(\"Not implemented\");\n    }\n\n    /**\n     * @dev\n     * Note: This function is identical to that used in Gyro2CLPPool.sol.\n     * Calculates protocol fee amounts in BPT terms.\n     * protocolSwapFeePercentage is not used here b/c we take parameters from GyroConfig instead.\n     * Returns: BPT due to Gyro, BPT due to Balancer, receiving address for Gyro fees, receiving address for Balancer\n     * fees.\n     */\n    function _getDueProtocolFeeAmounts(uint256 previousInvariant, uint256 currentInvariant)\n        internal\n        view\n        returns (\n            uint256,\n            uint256,\n            address,\n            address\n        )\n    {\n        (uint256 protocolSwapFeePerc, uint256 protocolFeeGyroPortion, address gyroTreasury, address balTreasury) = _getFeesMetadata();\n\n        // Early return if the protocol swap fee percentage is zero, saving gas.\n        if (protocolSwapFeePerc == 0) {\n            return (0, 0, gyroTreasury, balTreasury);\n        }\n\n        // Calculate fees in BPT\n        (uint256 gyroFees, uint256 balancerFees) = GyroPoolMath._calcProtocolFees(\n            previousInvariant,\n            currentInvariant,\n            totalSupply(),\n            protocolSwapFeePerc,\n            protocolFeeGyroPortion\n        );\n\n        return (gyroFees, balancerFees, gyroTreasury, balTreasury);\n    }\n\n    // Note: This function is identical to that used in Gyro2CLPPool.sol\n    function _payFeesBpt(\n        uint256 gyroFees,\n        uint256 balancerFees,\n        address gyroTreasury,\n        address balTreasury\n    ) internal {\n        // Pay fees in BPT to gyro treasury\n        if (gyroFees > 0) {\n            _mintPoolTokens(gyroTreasury, gyroFees);\n        }\n        // Pay fees in BPT to bal treasury\n        if (balancerFees > 0) {\n            _mintPoolTokens(balTreasury, balancerFees);\n        }\n    }\n\n    // Note: This function is identical to that used in Gyro2CLPPool.sol\n    function _getFeesMetadata()\n        internal\n        view\n        returns (\n            uint256,\n            uint256,\n            address,\n            address\n        )\n    {\n        return (\n            gyroConfig.getSwapFeePercForPool(address(this), POOL_TYPE),\n            gyroConfig.getProtocolFeeGyroPortionForPool(address(this), POOL_TYPE),\n            gyroConfig.getAddress(GyroConfigKeys.GYRO_TREASURY_KEY),\n            gyroConfig.getAddress(GyroConfigKeys.BAL_TREASURY_KEY)\n        );\n    }\n\n    /** @notice Effective BPT supply.\n     *\n     *  This is the same as `totalSupply()` but also accounts for the fact that the pool owes\n     *  protocol fees to the pool in the form of unminted LP shares created on the next join/exit,\n     *  diluting LPers. Thus, this is the totalSupply() that the next join/exit operation will see.\n     *\n     *  Equivalent to the respective function in, e.g., WeightedPool, see:\n     *  https://github.com/balancer/balancer-v2-monorepo/blob/master/pkg/pool-weighted/contracts/WeightedPool.sol#L325-L344\n     */\n    function getActualSupply() external view returns (uint256) {\n        uint256 supply = totalSupply();\n        (uint256 gyroFees, uint256 balancerFees, , ) = _getDueProtocolFeeAmounts(_lastInvariant, getInvariant());\n        return supply.add(gyroFees).add(balancerFees);\n    }\n\n    /// @notice Equivalent to but more efficient than `getInvariant().divDown(getActualSupply())`.\n    function getInvariantDivActualSupply() external view returns (uint256) {\n        uint256 invariant = getInvariant();\n        uint256 supply = totalSupply();\n        (uint256 gyroFees, uint256 balancerFees, , ) = _getDueProtocolFeeAmounts(_lastInvariant, invariant);\n        uint256 actualSupply = supply.add(gyroFees).add(balancerFees);\n        return invariant.divDown(actualSupply);\n    }\n\n    function _setPausedState(bool paused) internal override {\n        _setPaused(paused);\n    }\n\n    // Rate scaling\n\n    function _scalingFactor(bool token0) internal view override returns (uint256) {\n        IRateProvider rateProvider;\n        uint256 scalingFactor;\n        if (token0) {\n            rateProvider = rateProvider0;\n            scalingFactor = _scalingFactor0;\n        } else {\n            rateProvider = rateProvider1;\n            scalingFactor = _scalingFactor1;\n        }\n        if (address(rateProvider) != address(0)) scalingFactor = scalingFactor.mulDown(rateProvider.getRate());\n        return scalingFactor;\n    }\n\n    function _adjustPrice(uint256 spotPrice) internal view override returns (uint256) {\n        if (address(rateProvider0) != address(0)) spotPrice = spotPrice.mulDown(rateProvider0.getRate());\n        if (address(rateProvider1) != address(0)) spotPrice = spotPrice.divDown(rateProvider1.getRate());\n        return spotPrice;\n    }\n\n    /// @notice Convenience function to fetch the two rates used for scaling the two tokens, as of rateProvider{0,1}.\n    /// Note that these rates do *not* contain scaling to account for differences in the number of decimals. The rates\n    /// themselves are always 18-decimals.\n    function getTokenRates() public view returns (uint256 rate0, uint256 rate1) {\n        rate0 = address(rateProvider0) != address(0) ? rateProvider0.getRate() : GyroFixedPoint.ONE;\n        rate1 = address(rateProvider1) != address(0) ? rateProvider1.getRate() : GyroFixedPoint.ONE;\n    }\n}\n","sourcePath":"contracts/eclp/GyroECLPPool.sol","type":"contract","deployment":{"address":"0x2C4A83f98D1CdBEEEc825FABaCd09c46e2dD3C57","chainid":"10","blockHeight":105963114}}