{"abi":[{"inputs":[{"components":[{"components":[{"internalType":"contract IVault","name":"vault","type":"address"},{"internalType":"string","name":"name","type":"string"},{"internalType":"string","name":"symbol","type":"string"},{"internalType":"contract IERC20","name":"token0","type":"address"},{"internalType":"contract IERC20","name":"token1","type":"address"},{"internalType":"uint256","name":"swapFeePercentage","type":"uint256"},{"internalType":"uint256","name":"pauseWindowDuration","type":"uint256"},{"internalType":"uint256","name":"bufferPeriodDuration","type":"uint256"},{"internalType":"address","name":"owner","type":"address"}],"internalType":"struct ExtensibleWeightedPool2Tokens.NewPoolParams","name":"baseParams","type":"tuple"},{"components":[{"internalType":"int256","name":"alpha","type":"int256"},{"internalType":"int256","name":"beta","type":"int256"},{"internalType":"int256","name":"c","type":"int256"},{"internalType":"int256","name":"s","type":"int256"},{"internalType":"int256","name":"lambda","type":"int256"}],"internalType":"struct GyroECLPMath.Params","name":"eclpParams","type":"tuple"},{"components":[{"components":[{"internalType":"int256","name":"x","type":"int256"},{"internalType":"int256","name":"y","type":"int256"}],"internalType":"struct GyroECLPMath.Vector2","name":"tauAlpha","type":"tuple"},{"components":[{"internalType":"int256","name":"x","type":"int256"},{"internalType":"int256","name":"y","type":"int256"}],"internalType":"struct GyroECLPMath.Vector2","name":"tauBeta","type":"tuple"},{"internalType":"int256","name":"u","type":"int256"},{"internalType":"int256","name":"v","type":"int256"},{"internalType":"int256","name":"w","type":"int256"},{"internalType":"int256","name":"z","type":"int256"},{"internalType":"int256","name":"dSq","type":"int256"}],"internalType":"struct GyroECLPMath.DerivedParams","name":"derivedEclpParams","type":"tuple"},{"internalType":"address","name":"rateProvider0","type":"address"},{"internalType":"address","name":"rateProvider1","type":"address"},{"internalType":"address","name":"capManager","type":"address"},{"components":[{"internalType":"bool","name":"capEnabled","type":"bool"},{"internalType":"uint120","name":"perAddressCap","type":"uint120"},{"internalType":"uint128","name":"globalCap","type":"uint128"}],"internalType":"struct ICappedLiquidity.CapParams","name":"capParams","type":"tuple"},{"internalType":"address","name":"pauseManager","type":"address"}],"internalType":"struct GyroECLPPool.GyroParams","name":"params","type":"tuple"},{"internalType":"address","name":"configAddress","type":"address"}],"stateMutability":"nonpayable","type":"constructor","name":"constructor"},{"anonymous":false,"inputs":[{"indexed":true,"internalType":"address","name":"owner","type":"address"},{"indexed":true,"internalType":"address","name":"spender","type":"address"},{"indexed":false,"internalType":"uint256","name":"value","type":"uint256"}],"name":"Approval","type":"event"},{"anonymous":false,"inputs":[{"indexed":false,"internalType":"address","name":"capManager","type":"address"}],"name":"CapManagerUpdated","type":"event"},{"anonymous":false,"inputs":[{"components":[{"internalType":"bool","name":"capEnabled","type":"bool"},{"internalType":"uint120","name":"perAddressCap","type":"uint120"},{"internalType":"uint128","name":"globalCap","type":"uint128"}],"indexed":false,"internalType":"struct ICappedLiquidity.CapParams","name":"params","type":"tuple"}],"name":"CapParamsUpdated","type":"event"},{"anonymous":false,"inputs":[{"indexed":false,"internalType":"bool","name":"derivedParamsValidated","type":"bool"}],"name":"ECLPDerivedParamsValidated","type":"event"},{"anonymous":false,"inputs":[{"indexed":false,"internalType":"bool","name":"paramsValidated","type":"bool"}],"name":"ECLPParamsValidated","type":"event"},{"anonymous":false,"inputs":[{"indexed":false,"internalType":"uint256","name":"invariantAfterJoin","type":"uint256"}],"name":"InvariantAterInitializeJoin","type":"event"},{"anonymous":false,"inputs":[{"indexed":false,"internalType":"uint256","name":"oldInvariant","type":"uint256"},{"indexed":false,"internalType":"uint256","name":"newInvariant","type":"uint256"}],"name":"InvariantOldAndNew","type":"event"},{"anonymous":false,"inputs":[{"indexed":false,"internalType":"address","name":"oldPauseManager","type":"address"},{"indexed":false,"internalType":"address","name":"newPauseManager","type":"address"}],"name":"PauseManagerChanged","type":"event"},{"anonymous":false,"inputs":[],"name":"PausedLocally","type":"event"},{"anonymous":false,"inputs":[{"indexed":false,"internalType":"bool","name":"paused","type":"bool"}],"name":"PausedStateChanged","type":"event"},{"anonymous":false,"inputs":[{"indexed":false,"internalType":"uint256","name":"swapFeePercentage","type":"uint256"}],"name":"SwapFeePercentageChanged","type":"event"},{"anonymous":false,"inputs":[{"indexed":false,"internalType":"uint256[]","name":"balances","type":"uint256[]"},{"components":[{"internalType":"int256","name":"x","type":"int256"},{"internalType":"int256","name":"y","type":"int256"}],"indexed":false,"internalType":"struct GyroECLPMath.Vector2","name":"invariant","type":"tuple"},{"indexed":false,"internalType":"uint256","name":"amount","type":"uint256"}],"name":"SwapParams","type":"event"},{"anonymous":false,"inputs":[{"indexed":true,"internalType":"address","name":"from","type":"address"},{"indexed":true,"internalType":"address","name":"to","type":"address"},{"indexed":false,"internalType":"uint256","name":"value","type":"uint256"}],"name":"Transfer","type":"event"},{"anonymous":false,"inputs":[],"name":"UnpausedLocally","type":"event"},{"inputs":[],"name":"DOMAIN_SEPARATOR","outputs":[{"internalType":"bytes32","name":"","type":"bytes32"}],"stateMutability":"view","type":"function"},{"inputs":[{"internalType":"address","name":"owner","type":"address"},{"internalType":"address","name":"spender","type":"address"}],"name":"allowance","outputs":[{"internalType":"uint256","name":"","type":"uint256"}],"stateMutability":"view","type":"function"},{"inputs":[{"internalType":"address","name":"spender","type":"address"},{"internalType":"uint256","name":"amount","type":"uint256"}],"name":"approve","outputs":[{"internalType":"bool","name":"","type":"bool"}],"stateMutability":"nonpayable","type":"function"},{"inputs":[{"internalType":"address","name":"account","type":"address"}],"name":"balanceOf","outputs":[{"internalType":"uint256","name":"","type":"uint256"}],"stateMutability":"view","type":"function"},{"inputs":[],"name":"capManager","outputs":[{"internalType":"address","name":"","type":"address"}],"stateMutability":"view","type":"function"},{"inputs":[],"name":"capParams","outputs":[{"components":[{"internalType":"bool","name":"capEnabled","type":"bool"},{"internalType":"uint120","name":"perAddressCap","type":"uint120"},{"internalType":"uint128","name":"globalCap","type":"uint128"}],"internalType":"struct ICappedLiquidity.CapParams","name":"","type":"tuple"}],"stateMutability":"view","type":"function"},{"inputs":[{"internalType":"address","name":"_pauseManager","type":"address"}],"name":"changePauseManager","outputs":[],"stateMutability":"nonpayable","type":"function"},{"inputs":[],"name":"decimals","outputs":[{"internalType":"uint8","name":"","type":"uint8"}],"stateMutability":"view","type":"function"},{"inputs":[{"internalType":"address","name":"spender","type":"address"},{"internalType":"uint256","name":"amount","type":"uint256"}],"name":"decreaseAllowance","outputs":[{"internalType":"bool","name":"","type":"bool"}],"stateMutability":"nonpayable","type":"function"},{"inputs":[{"internalType":"bytes4","name":"selector","type":"bytes4"}],"name":"getActionId","outputs":[{"internalType":"bytes32","name":"","type":"bytes32"}],"stateMutability":"view","type":"function"},{"inputs":[],"name":"getAuthorizer","outputs":[{"internalType":"contract IAuthorizer","name":"","type":"address"}],"stateMutability":"view","type":"function"},{"inputs":[],"name":"getECLPParams","outputs":[{"components":[{"internalType":"int256","name":"alpha","type":"int256"},{"internalType":"int256","name":"beta","type":"int256"},{"internalType":"int256","name":"c","type":"int256"},{"internalType":"int256","name":"s","type":"int256"},{"internalType":"int256","name":"lambda","type":"int256"}],"internalType":"struct GyroECLPMath.Params","name":"params","type":"tuple"},{"components":[{"components":[{"internalType":"int256","name":"x","type":"int256"},{"internalType":"int256","name":"y","type":"int256"}],"internalType":"struct GyroECLPMath.Vector2","name":"tauAlpha","type":"tuple"},{"components":[{"internalType":"int256","name":"x","type":"int256"},{"internalType":"int256","name":"y","type":"int256"}],"internalType":"struct GyroECLPMath.Vector2","name":"tauBeta","type":"tuple"},{"internalType":"int256","name":"u","type":"int256"},{"internalType":"int256","name":"v","type":"int256"},{"internalType":"int256","name":"w","type":"int256"},{"internalType":"int256","name":"z","type":"int256"},{"internalType":"int256","name":"dSq","type":"int256"}],"internalType":"struct GyroECLPMath.DerivedParams","name":"d","type":"tuple"}],"stateMutability":"view","type":"function"},{"inputs":[],"name":"getInvariant","outputs":[{"internalType":"uint256","name":"","type":"uint256"}],"stateMutability":"view","type":"function"},{"inputs":[],"name":"getLastInvariant","outputs":[{"internalType":"uint256","name":"","type":"uint256"}],"stateMutability":"view","type":"function"},{"inputs":[],"name":"getMiscData","outputs":[{"internalType":"int256","name":"logInvariant","type":"int256"},{"internalType":"int256","name":"logTotalSupply","type":"int256"},{"internalType":"uint256","name":"oracleSampleCreationTimestamp","type":"uint256"},{"internalType":"uint256","name":"oracleIndex","type":"uint256"},{"internalType":"bool","name":"oracleEnabled","type":"bool"},{"internalType":"uint256","name":"swapFeePercentage","type":"uint256"}],"stateMutability":"view","type":"function"},{"inputs":[],"name":"getNormalizedWeights","outputs":[{"internalType":"uint256[]","name":"","type":"uint256[]"}],"stateMutability":"view","type":"function"},{"inputs":[],"name":"getOwner","outputs":[{"internalType":"address","name":"","type":"address"}],"stateMutability":"view","type":"function"},{"inputs":[],"name":"getPausedState","outputs":[{"internalType":"bool","name":"paused","type":"bool"},{"internalType":"uint256","name":"pauseWindowEndTime","type":"uint256"},{"internalType":"uint256","name":"bufferPeriodEndTime","type":"uint256"}],"stateMutability":"view","type":"function"},{"inputs":[],"name":"getPoolId","outputs":[{"internalType":"bytes32","name":"","type":"bytes32"}],"stateMutability":"view","type":"function"},{"inputs":[],"name":"getPrice","outputs":[{"internalType":"uint256","name":"spotPrice","type":"uint256"}],"stateMutability":"view","type":"function"},{"inputs":[],"name":"getRate","outputs":[{"internalType":"uint256","name":"","type":"uint256"}],"stateMutability":"view","type":"function"},{"inputs":[],"name":"getSwapFeePercentage","outputs":[{"internalType":"uint256","name":"","type":"uint256"}],"stateMutability":"view","type":"function"},{"inputs":[],"name":"getTokenRates","outputs":[{"internalType":"uint256","name":"rate0","type":"uint256"},{"internalType":"uint256","name":"rate1","type":"uint256"}],"stateMutability":"view","type":"function"},{"inputs":[],"name":"getVault","outputs":[{"internalType":"contract IVault","name":"","type":"address"}],"stateMutability":"view","type":"function"},{"inputs":[],"name":"gyroConfig","outputs":[{"internalType":"contract IGyroConfig","name":"","type":"address"}],"stateMutability":"view","type":"function"},{"inputs":[{"internalType":"address","name":"spender","type":"address"},{"internalType":"uint256","name":"addedValue","type":"uint256"}],"name":"increaseAllowance","outputs":[{"internalType":"bool","name":"","type":"bool"}],"stateMutability":"nonpayable","type":"function"},{"inputs":[],"name":"name","outputs":[{"internalType":"string","name":"","type":"string"}],"stateMutability":"view","type":"function"},{"inputs":[{"internalType":"address","name":"owner","type":"address"}],"name":"nonces","outputs":[{"internalType":"uint256","name":"","type":"uint256"}],"stateMutability":"view","type":"function"},{"inputs":[{"internalType":"bytes32","name":"poolId","type":"bytes32"},{"internalType":"address","name":"sender","type":"address"},{"internalType":"address","name":"recipient","type":"address"},{"internalType":"uint256[]","name":"balances","type":"uint256[]"},{"internalType":"uint256","name":"lastChangeBlock","type":"uint256"},{"internalType":"uint256","name":"protocolSwapFeePercentage","type":"uint256"},{"internalType":"bytes","name":"userData","type":"bytes"}],"name":"onExitPool","outputs":[{"internalType":"uint256[]","name":"","type":"uint256[]"},{"internalType":"uint256[]","name":"","type":"uint256[]"}],"stateMutability":"nonpayable","type":"function"},{"inputs":[{"internalType":"bytes32","name":"poolId","type":"bytes32"},{"internalType":"address","name":"sender","type":"address"},{"internalType":"address","name":"recipient","type":"address"},{"internalType":"uint256[]","name":"balances","type":"uint256[]"},{"internalType":"uint256","name":"lastChangeBlock","type":"uint256"},{"internalType":"uint256","name":"protocolSwapFeePercentage","type":"uint256"},{"internalType":"bytes","name":"userData","type":"bytes"}],"name":"onJoinPool","outputs":[{"internalType":"uint256[]","name":"amountsIn","type":"uint256[]"},{"internalType":"uint256[]","name":"dueProtocolFeeAmounts","type":"uint256[]"}],"stateMutability":"nonpayable","type":"function"},{"inputs":[{"components":[{"internalType":"enum IVault.SwapKind","name":"kind","type":"uint8"},{"internalType":"contract IERC20","name":"tokenIn","type":"address"},{"internalType":"contract IERC20","name":"tokenOut","type":"address"},{"internalType":"uint256","name":"amount","type":"uint256"},{"internalType":"bytes32","name":"poolId","type":"bytes32"},{"internalType":"uint256","name":"lastChangeBlock","type":"uint256"},{"internalType":"address","name":"from","type":"address"},{"internalType":"address","name":"to","type":"address"},{"internalType":"bytes","name":"userData","type":"bytes"}],"internalType":"struct IPoolSwapStructs.SwapRequest","name":"request","type":"tuple"},{"internalType":"uint256","name":"balanceTokenIn","type":"uint256"},{"internalType":"uint256","name":"balanceTokenOut","type":"uint256"}],"name":"onSwap","outputs":[{"internalType":"uint256","name":"","type":"uint256"}],"stateMutability":"nonpayable","type":"function"},{"inputs":[],"name":"pause","outputs":[],"stateMutability":"nonpayable","type":"function"},{"inputs":[],"name":"pauseManager","outputs":[{"internalType":"address","name":"","type":"address"}],"stateMutability":"view","type":"function"},{"inputs":[{"internalType":"address","name":"owner","type":"address"},{"internalType":"address","name":"spender","type":"address"},{"internalType":"uint256","name":"value","type":"uint256"},{"internalType":"uint256","name":"deadline","type":"uint256"},{"internalType":"uint8","name":"v","type":"uint8"},{"internalType":"bytes32","name":"r","type":"bytes32"},{"internalType":"bytes32","name":"s","type":"bytes32"}],"name":"permit","outputs":[],"stateMutability":"nonpayable","type":"function"},{"inputs":[{"internalType":"bytes32","name":"poolId","type":"bytes32"},{"internalType":"address","name":"sender","type":"address"},{"internalType":"address","name":"recipient","type":"address"},{"internalType":"uint256[]","name":"balances","type":"uint256[]"},{"internalType":"uint256","name":"lastChangeBlock","type":"uint256"},{"internalType":"uint256","name":"protocolSwapFeePercentage","type":"uint256"},{"internalType":"bytes","name":"userData","type":"bytes"}],"name":"queryExit","outputs":[{"internalType":"uint256","name":"bptIn","type":"uint256"},{"internalType":"uint256[]","name":"amountsOut","type":"uint256[]"}],"stateMutability":"nonpayable","type":"function"},{"inputs":[{"internalType":"bytes32","name":"poolId","type":"bytes32"},{"internalType":"address","name":"sender","type":"address"},{"internalType":"address","name":"recipient","type":"address"},{"internalType":"uint256[]","name":"balances","type":"uint256[]"},{"internalType":"uint256","name":"lastChangeBlock","type":"uint256"},{"internalType":"uint256","name":"protocolSwapFeePercentage","type":"uint256"},{"internalType":"bytes","name":"userData","type":"bytes"}],"name":"queryJoin","outputs":[{"internalType":"uint256","name":"bptOut","type":"uint256"},{"internalType":"uint256[]","name":"amountsIn","type":"uint256[]"}],"stateMutability":"nonpayable","type":"function"},{"inputs":[],"name":"rateProvider0","outputs":[{"internalType":"contract IRateProvider","name":"","type":"address"}],"stateMutability":"view","type":"function"},{"inputs":[],"name":"rateProvider1","outputs":[{"internalType":"contract IRateProvider","name":"","type":"address"}],"stateMutability":"view","type":"function"},{"inputs":[{"internalType":"address","name":"_capManager","type":"address"}],"name":"setCapManager","outputs":[],"stateMutability":"nonpayable","type":"function"},{"inputs":[{"components":[{"internalType":"bool","name":"capEnabled","type":"bool"},{"internalType":"uint120","name":"perAddressCap","type":"uint120"},{"internalType":"uint128","name":"globalCap","type":"uint128"}],"internalType":"struct ICappedLiquidity.CapParams","name":"params","type":"tuple"}],"name":"setCapParams","outputs":[],"stateMutability":"nonpayable","type":"function"},{"inputs":[{"internalType":"bool","name":"paused","type":"bool"}],"name":"setPaused","outputs":[],"stateMutability":"nonpayable","type":"function"},{"inputs":[{"internalType":"uint256","name":"swapFeePercentage","type":"uint256"}],"name":"setSwapFeePercentage","outputs":[],"stateMutability":"nonpayable","type":"function"},{"inputs":[],"name":"symbol","outputs":[{"internalType":"string","name":"","type":"string"}],"stateMutability":"view","type":"function"},{"inputs":[],"name":"totalSupply","outputs":[{"internalType":"uint256","name":"","type":"uint256"}],"stateMutability":"view","type":"function"},{"inputs":[{"internalType":"address","name":"recipient","type":"address"},{"internalType":"uint256","name":"amount","type":"uint256"}],"name":"transfer","outputs":[{"internalType":"bool","name":"","type":"bool"}],"stateMutability":"nonpayable","type":"function"},{"inputs":[{"internalType":"address","name":"sender","type":"address"},{"internalType":"address","name":"recipient","type":"address"},{"internalType":"uint256","name":"amount","type":"uint256"}],"name":"transferFrom","outputs":[{"internalType":"bool","name":"","type":"bool"}],"stateMutability":"nonpayable","type":"function"},{"inputs":[],"name":"unpause","outputs":[],"stateMutability":"nonpayable","type":"function"}],"bytecode":"6104a06040527f6e71edae12b1b97f4d1f60370fef10105fa2faae0126114a169c64845d6126c9610120526706f05b59d3b20000610200819052610220526000610240523480156200005057600080fd5b5060405162005f8438038062005f84833981016040819052620000739162000f8a565b8160e001518260a001518360c0015184600001518060c001518160e001518260200151836040015184600001518280604051806040016040528060018152602001603160f81b81525085858a6101000151336001600160a01b031660001b806080818152505050806001600160a01b031660a0816001600160a01b031660601b815250505081600390805190602001906200011092919062000b87565b5080516200012690600490602084019062000b87565b505060058054601260ff1990911617905550815160209283012060c052805191012060e052507f8b73c3c69bb8fe3d512ecc4cf759cc79239f7b179b0ffacaa9a75d522b39400f6101005260601b6001600160601b03191661014052506200019990506276a700831115610194620006ca565b620001ad62278d00821115610195620006ca565b42919091016101608190520161018052604080516002808252606082018352600092602083019080368337019050509050816060015181600081518110620001f157fe5b60200260200101906001600160a01b031690816001600160a01b0316815250508160800151816001815181106200022457fe5b60200260200101906001600160a01b031690816001600160a01b0316815250506200025a81620006df60201b620019531760201c565b60a08201516200026a90620006eb565b81516040516309b2760f60e01b81526000916001600160a01b0316906309b2760f906200029d9060029060040162001176565b602060405180830381600087803b158015620002b857600080fd5b505af1158015620002cd573d6000803e3d6000fd5b505050506040513d601f19601f82011682018060405250810190620002f3919062000f71565b83516040805160028082526060820183529394506001600160a01b03909216926366a9c7d2928592879290602083019080368337019050506040518463ffffffff1660e01b81526004016200034b93929190620010dc565b600060405180830381600087803b1580156200036657600080fd5b505af11580156200037b573d6000803e3d6000fd5b5050506101a082905250606080840180516001600160601b031990831b81166101c052608086015190921b9091166101e05251620003b99062000774565b610260526080830151620003cd9062000774565b61028052505060408051808201909152600e81526d1b9bdd08185d5d1a1bdc9a5e995960921b602082015290506001600160a01b0383166200042d5760405162461bcd60e51b81526004016200042491906200118b565b60405180910390fd5b50600b80546001600160a01b0319166001600160a01b039384161790558051600a8054602084015160409094015160ff1990911692151592909217610100600160801b0319166101006001600160781b0390941693909302929092176001600160801b03908116600160801b9190921602179055620004b29082161515606962000822565b600c80546001600160a01b0319166001600160a01b03928316179055620004df9082161515607862000822565b620004f982602001516200083360201b620019611760201c565b7ff468331437e1ec2fec64fc27f23a28b085a09e90f385338d4b58cb638607977760016040516200052b9190620010d1565b60405180910390a160208201516040808401519051636e70c2ef60e01b815273__GyroECLPMath__________________________92636e70c2ef926200057492600401620011c0565b60006040518083038186803b1580156200058d57600080fd5b505af4158015620005a2573d6000803e3d6000fd5b505050507f614fd1489cdee8181582fbbc1933d6870cd06c6f22d314b97a650ffa547c6ccd6001604051620005d89190620010d1565b60405180910390a160208281015180518183015160408084015160608086015160809687015161032052610300526102e0919091526102c0929092526102a09290925281860151805180519086015182870151805197015194830151838501518488015160a086015160c0909601516104405261042095909552610400949094526103e0939093526103c0929092526103a093909352610380949094526103609390935261034052600d80546001600160a01b0319166001600160a01b03949094169390931790925580830151811b6001600160601b031990811661046052919092015190911b1661048052620012b8565b81620006db57620006db816200091e565b5050565b80620006db8162000971565b6200070064e8d4a5100082101560cb620006ca565b6200071867016345785d8a000082111560ca620006ca565b6200073481600854620009fb60201b62001a3e1790919060201c565b6008556040517fa9ba3ffe0b6c366b81232caab38605a0699ad5398d6cce76f91ee809e322dafc906200076990839062001258565b60405180910390a150565b600080826001600160a01b031663313ce5676040518163ffffffff1660e01b815260040160206040518083038186803b158015620007b157600080fd5b505afa158015620007c6573d6000803e3d6000fd5b505050506040513d601f19601f82011682018060405250810190620007ec91906200109f565b60ff16905060006200080b60128362000a2160201b62001a4c1760201c565b600a0a670de0b6b3a764000002925050505b919050565b81620006db57620006db8162000a39565b620008628160600151600013158015620008595750670de0b6b3a7640000826060015113155b61016362000822565b620008908160400151600013158015620008595750670de0b6b3a76400008260400151131561016362000822565b604080518082018252606083015181529082015160208201526000620008b7828062000a4b565b9050620008e7670de0b6b3a763fc188212801590620008de5750670de0b6b3a76403e88213155b61016462000822565b6200091983608001516000131580156200091057506a52b7d2dcc80cd2e4000000846080015113155b61016862000822565b505050565b62461bcd60e51b6000908152602060045260076024526642414c23000030600a808404818106603090810160081b95839006959095019082900491820690940160101b939093010160c81b604452606490fd5b6002815110156200098257620009f8565b6000816000815181106200099257fe5b602002602001015190506000600190505b825181101562000919576000838281518110620009bc57fe5b60200260200101519050620009ed816001600160a01b0316846001600160a01b0316106065620006ca60201b60201c565b9150600101620009a3565b50565b600062000a1a8260568562000aa260201b62001a62179092919060201c565b9392505050565b600062000a33838311156001620006ca565b50900390565b620009f8816223aca960e91b62000ab7565b600062000a1a62000a738360200151856020015162000b1860201b62001a781790919060201c565b8351855162000a8e9162000b18602090811b62001a7817901c565b62000b5960201b62001ab41790919060201c565b6001600160401b03811b1992909216911b1790565b62461bcd60e51b600090815260206004526007602452600a808404818106603090810160081b958390069590950190829004918206850160101b01602363ffffff0060e086901c160160181b0190930160c81b60445260e882901c90606490fd5b600082820283158062000b3457508284828162000b3157fe5b05145b62000b475762000b4760006003620006ca565b670de0b6b3a764000090059392505050565b60008282018183121562000b705783811262000b75565b838112155b62000a1a5762000a1a600080620006ca565b828054600181600116156101000203166002900490600052602060002090601f01602090048101928262000bbf576000855562000c0a565b82601f1062000bda57805160ff191683800117855562000c0a565b8280016001018555821562000c0a579182015b8281111562000c0a57825182559160200191906001019062000bed565b5062000c1892915062000c1c565b5090565b5b8082111562000c18576000815560010162000c1d565b80516001600160a01b03811681146200081d57600080fd5b600082601f83011262000c5c578081fd5b81516001600160401b0381111562000c7057fe5b62000c85601f8201601f191660200162001261565b81815284602083860101111562000c9a578283fd5b62000cad82602083016020870162001285565b949350505050565b60006060828403121562000cc7578081fd5b604051606081016001600160401b038111828210171562000ce457fe5b80604052508091508251801515811462000cfd57600080fd5b815260208301516001600160781b038116811462000d1a57600080fd5b602082015260408301516001600160801b038116811462000d3a57600080fd5b6040919091015292915050565b6000610120828403121562000d5a578081fd5b60405160e081016001600160401b038111828210171562000d7757fe5b60405290508062000d89848462000f28565b815262000d9a846040850162000f28565b60208201526080830151604082015260a0830151606082015260c0830151608082015260e083015160a082015261010083015160c08201525092915050565b600061012080838503121562000ded578182fd5b62000df88162001261565b91505062000e068262000c33565b815260208201516001600160401b038082111562000e2357600080fd5b62000e318583860162000c4b565b6020840152604084015191508082111562000e4b57600080fd5b5062000e5a8482850162000c4b565b60408301525062000e6e6060830162000c33565b606082015262000e816080830162000c33565b608082015260a082015160a082015260c082015160c082015260e082015160e082015261010062000eb481840162000c33565b9082015292915050565b600060a0828403121562000ed0578081fd5b60405160a081016001600160401b038111828210171562000eed57fe5b806040525080915082518152602083015160208201526040830151604082015260608301516060820152608083015160808201525092915050565b60006040828403121562000f3a578081fd5b604080519081016001600160401b038111828210171562000f5757fe5b604052825181526020928301519281019290925250919050565b60006020828403121562000f83578081fd5b5051919050565b6000806040838503121562000f9d578081fd5b82516001600160401b038082111562000fb4578283fd5b908401906102c0828703121562000fc9578283fd5b62000fd661010062001261565b82518281111562000fe5578485fd5b62000ff38882860162000dd9565b82525062001005876020850162000ebe565b6020820152620010198760c0850162000d47565b60408201526200102d6101e0840162000c33565b606082015262001041610200840162000c33565b608082015262001055610220840162000c33565b60a08201526200106a87610240850162000cb5565b60c08201526200107e6102a0840162000c33565b60e08201529350620010969150506020840162000c33565b90509250929050565b600060208284031215620010b1578081fd5b815160ff8116811462000a1a578182fd5b80518252602090810151910152565b901515815260200190565b60006060820185835260206060818501528186518084526080860191508288019350845b81811015620011275784516001600160a01b03168352938301939183019160010162001100565b505084810360408601528551808252908201925081860190845b81811015620011685782516001600160a01b03168552938301939183019160010162001141565b509298975050505050505050565b60208101600383106200118557fe5b91905290565b6000602082528251806020840152620011ac81604085016020870162001285565b601f01601f19169190910160400192915050565b60006101c08201905083518252602084015160208301526040840151604083015260608401516060830152608084015160808301526200120560a083018451620010c2565b60208301516200121960e0840182620010c2565b5060408301516101208301526060830151610140830152608083015161016083015260a083015161018083015260c08301516101a08301529392505050565b90815260200190565b6040518181016001600160401b03811182821017156200127d57fe5b604052919050565b60005b83811015620012a257818101518382015260200162001288565b83811115620012b2576000848401525b50505050565b60805160a05160601c60c05160e05161010051610120516101405160601c61016051610180516101a0516101c05160601c6101e05160601c61020051610220516102405161026051610280516102a0516102c0516102e05161030051610320516103405161036051610380516103a0516103c0516103e0516104005161042051610440516104605160601c6104805160601c614b216200146360003980610a3e5280610b685280610ba4528061290352806129355280612a7d525080610a995280610ad55280610f32528061283652806128685280612a3352508061244b5250806124715250806124975250806124bf5250806124e45250806123b85250806123dd5250806124005250806124285250806122e752508061231152508061233b52508061236552508061238f525080612aa0525080612a565250508061387c5250806138a352508061126d52806112b4528061274d52508061122d52806112f452806127015250806107f7525080611c2c525080611c085250806110b05250806116e6525080611d48525080611d8a525080611d6952508061108c5250806110125250614b216000f3fe608060405234801561001057600080fd5b50600436106102955760003560e01c806374f3b0091161016757806398d5fdca116100ce578063abd13afe11610087578063abd13afe1461054f578063c0ff1a1514610557578063d505accf1461055f578063d5c096c414610572578063dd62ed3e14610585578063f89f27ed1461059857610295565b806398d5fdca146104fe5780639b02cdde146105065780639d2c110c1461050e578063a457c2d714610521578063a9059cbb14610534578063aaabadc51461054757610295565b80638456cb59116101205780638456cb59146104b8578063851c1bb3146104c057806387ec6817146104d3578063893d20e8146104e65780638d928af8146104ee57806395d89b41146104f657610295565b806374f3b0091461044057806376e54a46146104615780637be219a2146104745780637ecebe001461048a5780638002df181461049d578063828a7c34146104b057610295565b8063395093511161020b5780636028bfd4116101c45780636028bfd4146103de57806362ced092146103ff578063679aefce146104075780636d785a871461040f578063702ec0911461041757806370a082311461042d57610295565b806339509351146103775780633aeae0d31461038a5780633f4ba83a1461039f57806344bbdb55146103a75780634a6b0b15146103bc57806355c67628146103d657610295565b80631c0de0511161025d5780631c0de0511461031557806323b872dd1461032c578063313ce5671461033f5780633644e5151461035457806338e9922e1461035c57806338fff2d01461036f57610295565b806306fdde031461029a578063095ea7b3146102b85780630e608b30146102d857806316c38b3c146102ed57806318160ddd14610300575b600080fd5b6102a26105ad565b6040516102af9190614934565b60405180910390f35b6102cb6102c636600461432b565b610643565b6040516102af91906148c7565b6102eb6102e6366004614206565b61065a565b005b6102eb6102fb366004614356565b61070b565b61030861071f565b6040516102af91906148ea565b61031d610725565b6040516102af939291906148d2565b6102cb61033a366004614276565b61074e565b6103476107c4565b6040516102af9190614a7c565b6103086107cd565b6102eb61036a36600461463d565b6107dc565b6103086107f5565b6102cb61038536600461432b565b610819565b610392610854565b6040516102af9190614987565b6102eb61089f565b6103af610994565b6040516102af919061478b565b6103c46109a3565b6040516102af9695949392919061490a565b6103086109fe565b6103f16103ec366004614370565b610a0b565b6040516102af929190614a55565b6103af610a3c565b610308610a60565b6103af610a85565b61041f610a94565b6040516102af929190614a6e565b61030861043b366004614206565b610c39565b61045361044e366004614370565b610c58565b6040516102af9291906147b2565b6102eb61046f3660046144c7565b610ce8565b61047c610e0f565b6040516102af9291906149e7565b610308610498366004614206565b610e2f565b6102eb6104ab366004614206565b610e4a565b6103af610f30565b6102eb610f54565b6103086104ce36600461447c565b61100c565b6103f16104e1366004614370565b611065565b6103af61108a565b6103af6110ae565b6102a26110d2565b610308611133565b6103086111fe565b61030861051c366004614546565b611204565b6102cb61052f36600461432b565b6115a3565b6102cb61054236600461432b565b6115e1565b6103af6115ee565b6103af6115f8565b610308611607565b6102eb61056d3660046142b6565b6116b7565b610453610580366004614370565b611827565b61030861059336600461423e565b61190c565b6105a0611949565b6040516102af919061479f565b60038054604080516020601f60026000196101006001881615020190951694909404938401819004810282018101909252828152606093909290918301828280156106395780601f1061060e57610100808354040283529160200191610639565b820191906000526020600020905b81548152906001019060200180831161061c57829003601f168201915b5050505050905090565b6000610650338484611add565b5060015b92915050565b600b5460408051808201909152600e81526d1b9bdd08185d5d1a1bdc9a5e995960921b6020820152906001600160a01b031633146106b45760405162461bcd60e51b81526004016106ab9190614934565b60405180910390fd5b50600b80546001600160a01b0319166001600160a01b0383161790556040517fb8fd9afc34c38fcd13b9a3b7646482eb1fddcefb40af2c70609972816eba32089061070090839061478b565b60405180910390a150565b610713611b3f565b61071c81611b6d565b50565b60025490565b6000806000610732611be9565b15925061073d611c06565b9150610747611c2a565b9050909192565b60008061075b853361190c565b905061077f336001600160a01b03871614806107775750838210155b61019e611c4e565b61078a858585611c5c565b336001600160a01b038616148015906107a557506000198114155b156107b7576107b78533858403611add565b60019150505b9392505050565b60055460ff1690565b60006107d7611d44565b905090565b6107e4611b3f565b6107ec611e02565b61071c81611e17565b7f000000000000000000000000000000000000000000000000000000000000000090565b3360008181526001602090815260408083206001600160a01b0387168452909152812054909161065091859061084f9086611e80565b611add565b61085c6140c5565b5060408051606081018252600a5460ff81161515825261010081046001600160781b03166020830152600160801b90046001600160801b03169181019190915290565b600c546040805180820190915260118152703737ba103830bab9b29036b0b730b3b2b960791b6020820152906001600160a01b0316331461095e5760405162461bcd60e51b81526004018080602001828103825283818151815260200191508051906020019080838360005b8381101561092357818101518382015260200161090b565b50505050905090810190601f1680156109505780820380516001836020036101000a031916815260200191505b509250505060405180910390fd5b506109696000610713565b6040517f215385c8bfc731925ec8068d7baa50f6b6f34417cc7804f7273dc2c0b3db279090600090a1565b600d546001600160a01b031681565b600080600080600080600060085490506109bc81611e92565b96506109c781611e9e565b95506109d281611eab565b94506109dd81611eb8565b93506109e881611ec5565b92506109f381611ed2565b915050909192939495565b60006107d7600854611ed2565b60006060610a1b86516002611edf565b610a3089898989898989611eec61205a6120d8565b97509795505050505050565b7f000000000000000000000000000000000000000000000000000000000000000081565b60006107d7610a6d61071f565b610a7f610a78611607565b60026121eb565b9061220f565b600b546001600160a01b031681565b6000807f00000000000000000000000000000000000000000000000000000000000000006001600160a01b0316610ad357670de0b6b3a7640000610b64565b7f00000000000000000000000000000000000000000000000000000000000000006001600160a01b031663679aefce6040518163ffffffff1660e01b815260040160206040518083038186803b158015610b2c57600080fd5b505afa158015610b40573d6000803e3d6000fd5b505050506040513d601f19601f82011682018060405250810190610b649190614655565b91507f00000000000000000000000000000000000000000000000000000000000000006001600160a01b0316610ba257670de0b6b3a7640000610c33565b7f00000000000000000000000000000000000000000000000000000000000000006001600160a01b031663679aefce6040518163ffffffff1660e01b815260040160206040518083038186803b158015610bfb57600080fd5b505afa158015610c0f573d6000803e3d6000fd5b505050506040513d601f19601f82011682018060405250810190610c339190614655565b90509091565b6001600160a01b0381166000908152602081905260409020545b919050565b60608088610c82610c676110ae565b6001600160a01b0316336001600160a01b03161460cd611c4e565b610c97610c8d6107f5565b82146101f4611c4e565b610ca087612269565b6000806000610cb48d8d8d8d8d8d8d611eec565b925092509250610cc48c846122cb565b610ccd8261205a565b610cd68161205a565b909c909b509950505050505050505050565b600b5460408051808201909152600e81526d1b9bdd08185d5d1a1bdc9a5e995960921b6020820152906001600160a01b03163314610d395760405162461bcd60e51b81526004016106ab9190614934565b50600a5460408051808201909152601081526f1c1bdbdb081a5cc81d5b98d85c1c195960821b60208201529060ff16610d855760405162461bcd60e51b81526004016106ab9190614934565b508051600a8054602084015160408086015160ff19909316941515949094176fffffffffffffffffffffffffffffff0019166101006001600160781b0390921691909102176001600160801b03908116600160801b919092160217815590517f2abf5970d7bc1a2b36eaae52dd2cc353edb0337c7284ef8a01973081b4e0442491610700916149bc565b610e176140e5565b610e1f614114565b610e276122d5565b915091509091565b6001600160a01b031660009081526006602052604090205490565b600c546040805180820190915260118152703737ba103830bab9b29036b0b730b3b2b960791b60208201526001600160a01b0390911690338214610ecf5760405162461bcd60e51b815260206004820181815283516024840152835190928392604490910191908501908083836000831561092357818101518382015260200161090b565b50600c80546001600160a01b0319166001600160a01b03848116918217909255604080519284168352602083019190915280517f1ffccd1fa96f4fb3415df8048a0fd107344e262d2d246c85105e2a3f8f3e81989281900390910190a15050565b7f000000000000000000000000000000000000000000000000000000000000000081565b600c546040805180820190915260118152703737ba103830bab9b29036b0b730b3b2b960791b6020820152906001600160a01b03163314610fd65760405162461bcd60e51b815260206004820181815283516024840152835190928392604490910191908501908083836000831561092357818101518382015260200161090b565b50610fe16001610713565b6040517f681eace576127d0553b224436a09801fb47d042942cbff59d7d4ff04d8fa03d790600090a1565b604080517f00000000000000000000000000000000000000000000000000000000000000006020808301919091526001600160e01b03198416828401528251602481840301815260449092019092528051910120919050565b6000606061107586516002611edf565b610a308989898989898961250b61267a6120d8565b7f000000000000000000000000000000000000000000000000000000000000000090565b7f000000000000000000000000000000000000000000000000000000000000000090565b60048054604080516020601f60026000196101006001881615020190951694909404938401819004810282018101909252828152606093909290918301828280156106395780601f1061060e57610100808354040283529160200191610639565b60008061113e6126dc565b905060008061114b6122d5565b91509150600073__GyroECLPMath__________________________63d83ca8628585856040518463ffffffff1660e01b815260040161118c939291906147d7565b60206040518083038186803b1580156111a457600080fd5b505af41580156111b8573d6000803e3d6000fd5b505050506040513d601f19601f820116820180604052508101906111dc9190614655565b90506111ea84828585612792565b94506111f585612832565b94505050505090565b60095490565b600061120e611e02565b836080015161121e610c676110ae565b611229610c8d6107f5565b60007f00000000000000000000000000000000000000000000000000000000000000006001600160a01b031686602001516001600160a01b03161480156112a557507f00000000000000000000000000000000000000000000000000000000000000006001600160a01b031686604001516001600160a01b0316145b156112b257506001611343565b7f00000000000000000000000000000000000000000000000000000000000000006001600160a01b031686602001516001600160a01b031614801561132c57507f00000000000000000000000000000000000000000000000000000000000000006001600160a01b031686604001516001600160a01b0316145b1561133957506000611343565b61134360796129d2565b600061134e82612a25565b9050600061135c8315612a25565b90506113688783612b52565b96506113748682612b52565b95506000611383888886612b5e565b90506000806113906122d5565b9150915061139c61415d565b60008073__GyroECLPMath__________________________6378ace8578787876040518463ffffffff1660e01b81526004016113da939291906147d7565b604080518083038186803b1580156113f157600080fd5b505af4158015611405573d6000803e3d6000fd5b505050506040513d601f19601f8201168201806040525081019061142991906144a4565b6040805180820190915260029091028201815260208101919091529250600091506114519050565b8c51600181111561145e57fe5b141561150a57600061147c6114716109fe565b60608f015190612bf8565b905061149e611498828f60600151612c4d90919063ffffffff16565b88612b52565b60608e015260006114b38e878b888888612c63565b90507f4e1d56f7310a8c32b2267f756b19ba65019b4890068ce114a25009abe54de5ba8684836040516114e893929190614849565b60405180910390a16114fa8188612d06565b9a5050505050505050505061159b565b6115188c6060015186612b52565b60608d0152600061152d8d868a878787612d12565b90507f4e1d56f7310a8c32b2267f756b19ba65019b4890068ce114a25009abe54de5ba85838360405161156293929190614849565b60405180910390a16115748188612d5a565b90506115906115896115846109fe565b612d66565b8290612d8c565b995050505050505050505b509392505050565b6000806115b0338561190c565b90508083106115ca576115c533856000611add565b6115d7565b6115d73385858403611add565b5060019392505050565b6000610650338484611c5c565b60006107d7612df2565b600c546001600160a01b031681565b6000806116126126dc565b905060008061161f6122d5565b604051636c1e543160e11b8152919350915073__GyroECLPMath__________________________9063d83ca8629061165f908690869086906004016147d7565b60206040518083038186803b15801561167757600080fd5b505af415801561168b573d6000803e3d6000fd5b505050506040513d601f19601f820116820180604052508101906116af9190614655565b935050505090565b6116c58442111560d1611c4e565b6001600160a01b0380881660008181526006602090815260408083205481517f00000000000000000000000000000000000000000000000000000000000000008185015280830195909552948b166060850152608084018a905260a0840185905260c08085018a90528151808603909101815260e0909401905282519201919091209061175182612e6c565b9050600060018288888860405160008152602001604052604051808581526020018460ff1681526020018381526020018281526020019450505050506020604051602081039080840390855afa1580156117af573d6000803e3d6000fd5b5050604051601f19015191506117f190506001600160a01b038216158015906117e957508b6001600160a01b0316826001600160a01b0316145b6101f8611c4e565b6001600160a01b038b16600090815260066020526040902060018501905561181a8b8b8b611add565b5050505050505050505050565b60608088611836610c676110ae565b611841610c8d6107f5565b611849611e02565b600061185361071f565b6118c3576118638b8b8b88612eb8565b94509050611878620f424082101560cc611c4e565b6118866000620f4240613048565b61189589620f42408303613048565b61189e8461267a565b60408051600280825260608201835290916020830190803683370190505092506118fe565b6118cc88612269565b6118db8b8b8b8b8b8b8b61250b565b909550935090506118ec8982613048565b6118f58461267a565b6118fe8361205a565b505097509795505050505050565b60006119166110ae565b6001600160a01b0316826001600160a01b031614156119385750600019610654565b6119428383613052565b9050610654565b60606107d761307d565b8061195d816130ec565b5050565b61198d81606001516000131580156119855750670de0b6b3a7640000826060015113155b610163613165565b6119b881604001516000131580156119855750670de0b6b3a764000082604001511315610163613165565b6040805180820182526060830151815290820151602082015260006119dd8280613173565b9050611a0a670de0b6b3a763fc188212801590611a025750670de0b6b3a76403e88213155b610164613165565b611a398360800151600013158015611a3157506a52b7d2dcc80cd2e4000000846080015113155b610168613165565b505050565b60006107bd83836056611a62565b6000611a5c838311156001611c4e565b50900390565b67ffffffffffffffff811b1992909216911b1790565b6000828202831580611a92575082848281611a8f57fe5b05145b611aa257611aa260006003611c4e565b670de0b6b3a764000090059392505050565b600082820181831215611ac957838112611ace565b838112155b6107bd576107bd600080611c4e565b6001600160a01b03808416600081815260016020908152604080832094871680845294825291829020859055815185815291517f8c5be1e5ebec7d5bd14f71427d1e84f3dd0314c0f7b2291e5b200ac8c7c3b9259281900390910190a3505050565b6000611b566000356001600160e01b03191661100c565b905061071c611b6582336131a6565b610191611c4e565b8015611b8d57611b88611b7e611c06565b4210610193611c4e565b611ba2565b611ba2611b98611c2a565b42106101a9611c4e565b6007805482151560ff19909116811790915560408051918252517f9e3a5e37224532dea67b89face185703738a228a6e8a23dee546960180d3be649181900360200190a150565b6000611bf3611c2a565b4211806107d757505060075460ff161590565b7f000000000000000000000000000000000000000000000000000000000000000090565b7f000000000000000000000000000000000000000000000000000000000000000090565b8161195d5761195d816129d2565b611c736001600160a01b0384161515610198611c4e565b611c8a6001600160a01b0383161515610199611c4e565b611c95838383611a39565b6001600160a01b038316600090815260208190526040902054611cbb90826101a06132a8565b6001600160a01b038085166000908152602081905260408082209390935590841681522054611cea9082611e80565b6001600160a01b038084166000818152602081815260409182902094909455805185815290519193928716927fddf252ad1be2c89b69c2b068fc378daa952ba7f163c4a11628f55a4df523b3ef92918290030190a3505050565b60007f00000000000000000000000000000000000000000000000000000000000000007f00000000000000000000000000000000000000000000000000000000000000007f0000000000000000000000000000000000000000000000000000000000000000611db16132be565b3060405160200180868152602001858152602001848152602001838152602001826001600160a01b031681526020019550505050505060405160208183030381529060405280519060200120905090565b611e15611e0d611be9565b610192611c4e565b565b611e2a64e8d4a5100082101560cb611c4e565b611e4067016345785d8a000082111560ca611c4e565b600854611e4d9082611a3e565b6008556040517fa9ba3ffe0b6c366b81232caab38605a0699ad5398d6cce76f91ee809e322dafc906107009083906148ea565b60008282016107bd8482101583611c4e565b600061065482826132c2565b60006106548260166132c2565b600061065482602c6132e9565b600061065482604b6132f3565b60006106548260556132fb565b6000610654826056613305565b61195d8183146067611c4e565b6000606080600080611efc6122d5565b91509150611f08611be9565b1561200d57604051636c1e543160e11b815260009073__GyroECLPMath__________________________9063d83ca86290611f4b908d90879087906004016147d7565b60206040518083038186803b158015611f6357600080fd5b505af4158015611f77573d6000803e3d6000fd5b505050506040513d601f19601f82011682018060405250810190611f9b9190614655565b9050611fa681613313565b611fb08a88613340565b9096509450611fc98187611fc261071f565b600061338c565b60098190556040517fe1d39caf039c7dc6f364b1e29d1e67c4e330003a43f4991d50cf3e8840d95eac91611fff91849190614a6e565b60405180910390a150612023565b6120178987613340565b60001960095590955093505b6040805160028082526060820183528792879291906020830190803683370190505094509450945050509750975097945050505050565b6120818160008151811061206a57fe5b602002602001015161207c6001612a25565b61220f565b8160008151811061208e57fe5b6020026020010181815250506120bc816001815181106120aa57fe5b602002602001015161207c6000612a25565b816001815181106120c957fe5b60200260200101818152505050565b333014612196576000306001600160a01b03166000366040516120fc92919061477b565b6000604051808303816000865af19150503d8060008114612139576040519150601f19603f3d011682016040523d82523d6000602084013e61213e565b606091505b50509050806000811461214d57fe5b60046000803e6000516001600160e01b0319166343adbafb60e01b8114612178573d6000803e3d6000fd5b506020600460003e604060205260243d03602460403e601c3d016000f35b61219f86612269565b6000806121b58b8b8b8b8b8b8b8b63ffffffff16565b50915091506121c7818463ffffffff16565b8051601f1982018390526343adbafb603f1983015260200260231982016044820181fd5b60008282026107bd84158061220857508385838161220557fe5b04145b6003611c4e565b6000816122225761222260006004611c4e565b8261222f57506000610654565b670de0b6b3a76400008381029084828161224557fe5b04146122575761225760006005611c4e565b82818161226057fe5b04949350505050565b6122908160008151811061227957fe5b602002602001015161228b6001612a25565b6133e4565b8160008151811061229d57fe5b6020026020010181815250506120bc816001815181106122b957fe5b602002602001015161228b6000612a25565b61195d828261341d565b6122dd6140e5565b6122e5614114565b7f00000000000000000000000000000000000000000000000000000000000000006080808401919091527f00000000000000000000000000000000000000000000000000000000000000006060808501919091527f00000000000000000000000000000000000000000000000000000000000000006040808601919091527f00000000000000000000000000000000000000000000000000000000000000006020808701919091527f000000000000000000000000000000000000000000000000000000000000000086528451858201517f0000000000000000000000000000000000000000000000000000000000000000818401527f000000000000000000000000000000000000000000000000000000000000000090527f0000000000000000000000000000000000000000000000000000000000000000918101919091527f000000000000000000000000000000000000000000000000000000000000000090527f000000000000000000000000000000000000000000000000000000000000000060c08501527f000000000000000000000000000000000000000000000000000000000000000060a08501527f0000000000000000000000000000000000000000000000000000000000000000928401929092527f0000000000000000000000000000000000000000000000000000000000000000908301527f0000000000000000000000000000000000000000000000000000000000000000908201529091565b600060608060008061251b6122d5565b91509150600073__GyroECLPMath__________________________63d83ca8628b85856040518463ffffffff1660e01b815260040161255c939291906147d7565b60206040518083038186803b15801561257457600080fd5b505af4158015612588573d6000803e3d6000fd5b505050506040513d601f19601f820116820180604052508101906125ac9190614655565b90506125b781613313565b6000806125c48c8a6134d4565b600a54919350915060ff16156125ee576125ee826125e18f610c39565b6125e961071f565b61350e565b61260283836125fb61071f565b600161338c565b60098190556040517fe1d39caf039c7dc6f364b1e29d1e67c4e330003a43f4991d50cf3e8840d95eac9161263891869190614a6e565b60405180910390a16040805160028082526060820183528492849291906020830190803683370190505097509750975050505050509750975097945050505050565b6126a18160008151811061268a57fe5b602002602001015161269c6001612a25565b612d8c565b816000815181106126ae57fe5b6020026020010181815250506120bc816001815181106126ca57fe5b602002602001015161269c6000612a25565b604080516002808252606080830184529260208301908036833701905050905061272f7f000000000000000000000000000000000000000000000000000000000000000061272a6001612a25565b613620565b8160008151811061273c57fe5b6020026020010181815250506127767f000000000000000000000000000000000000000000000000000000000000000061272a6000612a25565b8160018151811061278357fe5b60200260200101818152505090565b600073__GyroECLPMath__________________________63c7fe78d08685856127ba896136c7565b6040518563ffffffff1660e01b81526004016127d99493929190614808565b60206040518083038186803b1580156127f157600080fd5b505af4158015612805573d6000803e3d6000fd5b505050506040513d601f19601f820116820180604052508101906128299190614655565b95945050505050565b60007f00000000000000000000000000000000000000000000000000000000000000006001600160a01b031615612901576128fe7f00000000000000000000000000000000000000000000000000000000000000006001600160a01b031663679aefce6040518163ffffffff1660e01b815260040160206040518083038186803b1580156128bf57600080fd5b505afa1580156128d3573d6000803e3d6000fd5b505050506040513d601f19601f820116820180604052508101906128f79190614655565b83906133e4565b91505b7f00000000000000000000000000000000000000000000000000000000000000006001600160a01b0316156129ce576129cb7f00000000000000000000000000000000000000000000000000000000000000006001600160a01b031663679aefce6040518163ffffffff1660e01b815260040160206040518083038186803b15801561298c57600080fd5b505afa1580156129a0573d6000803e3d6000fd5b505050506040513d601f19601f820116820180604052508101906129c49190614655565b839061220f565b91505b5090565b62461bcd60e51b6000908152602060045260076024526642414c23000030600a808404818106603090810160081b95839006959095019082900491820690940160101b939093010160c81b604452606490fd5b60008060008315612a7a57507f000000000000000000000000000000000000000000000000000000000000000090507f0000000000000000000000000000000000000000000000000000000000000000612ac0565b507f000000000000000000000000000000000000000000000000000000000000000090507f00000000000000000000000000000000000000000000000000000000000000005b6001600160a01b038216156107bd57612b4a826001600160a01b031663679aefce6040518163ffffffff1660e01b815260040160206040518083038186803b158015612b0b57600080fd5b505afa158015612b1f573d6000803e3d6000fd5b505050506040513d601f19601f82011682018060405250810190612b439190614655565b82906133e4565b949350505050565b60006107bd83836133e4565b60408051600280825260608083018452926020830190803683370190505090508115612bbd578381600081518110612b9257fe5b6020026020010181815250508281600181518110612bac57fe5b6020026020010181815250506107bd565b8281600081518110612bcb57fe5b6020026020010181815250508381600181518110612be557fe5b6020026020010181815250509392505050565b6000828202831580612c12575082848281612c0f57fe5b04145b612c2257612c2260006003611c4e565b80612c31576000915050610654565b670de0b6b3a764000060001982015b0460010191505092915050565b600082821115611a5c57611a5c60006001611c4e565b60608601516040516330ffa11b60e11b815260009173__GyroECLPMath__________________________916361ff423691612cab918a91908a908a908a908a90600401614879565b60206040518083038186803b158015612cc357600080fd5b505af4158015612cd7573d6000803e3d6000fd5b505050506040513d601f19601f82011682018060405250810190612cfb9190614655565b979650505050505050565b60006107bd838361220f565b6060860151604051633b18ce7b60e21b815260009173__GyroECLPMath__________________________9163ec6339ec91612cab918a91908a908a908a908a90600401614879565b60006107bd8383612d8c565b6000670de0b6b3a76400008210612d7e576000610654565b50670de0b6b3a76400000390565b600081612d9f57612d9f60006004611c4e565b82612dac57506000610654565b670de0b6b3a764000083810290848281612dc257fe5b0414612de657612de6670de0b6b3a7640000858381612ddd57fe5b04146005611c4e565b826001820381612c4057fe5b6000612dfc6110ae565b6001600160a01b031663aaabadc56040518163ffffffff1660e01b815260040160206040518083038186803b158015612e3457600080fd5b505afa158015612e48573d6000803e3d6000fd5b505050506040513d601f19601f820116820180604052508101906107d79190614222565b6000612e76611d44565b82604051602001808061190160f01b81525060020183815260200182815260200192505050604051602081830303815290604052805190602001209050919050565b600060606000612ec78461370b565b9050612ee26000826003811115612eda57fe5b1460ce611c4e565b6000612eed8561372a565b9050612efb81516002611edf565b612f0481612269565b600080612f0f6122d5565b91509150600073__GyroECLPMath__________________________63d83ca8628585856040518463ffffffff1660e01b8152600401612f50939291906147d7565b60206040518083038186803b158015612f6857600080fd5b505af4158015612f7c573d6000803e3d6000fd5b505050506040513d601f19601f82011682018060405250810190612fa09190614655565b90507faf65f1a72bf4f8bc48e8153858e1f7b307ce39c88361a677c0a79c2a1ae571ef81604051612fd191906148ea565b60405180910390a16000612fe785838686612792565b9050600061302f6130158388600081518110612fff57fe5b60200260200101516133e490919063ffffffff16565b8760018151811061302257fe5b6020026020010151611e80565b60099390935550909b939a509298505050505050505050565b61195d82826137de565b6001600160a01b03918216600090815260016020908152604080832093909416825291909152205490565b604080516002808252606080830184529260009291906020830190803683370190505090506130ac6001613873565b816000815181106130b957fe5b6020026020010181815250506130cf6000613873565b816001815181106130dc57fe5b6020908102919091010152905090565b6002815110156130fb5761071c565b60008160008151811061310a57fe5b602002602001015190506000600190505b8251811015611a3957600083828151811061313257fe5b6020026020010151905061315b816001600160a01b0316846001600160a01b0316106065611c4e565b915060010161311b565b8161195d5761195d816138c7565b60006107bd61319383602001518560200151611a7890919063ffffffff16565b835185516131a091611a78565b90611ab4565b600073ba1ba1ba1ba1ba1ba1ba1ba1ba1ba1ba1ba1ba1b6131c561108a565b6001600160a01b0316141580156131e057506131e0836138d7565b15613208576131ed61108a565b6001600160a01b0316336001600160a01b0316149050610654565b613210612df2565b6001600160a01b0316639be2a8848484306040518463ffffffff1660e01b815260040180848152602001836001600160a01b03168152602001826001600160a01b03168152602001935050505060206040518083038186803b15801561327557600080fd5b505afa158015613289573d6000803e3d6000fd5b505050506040513d602081101561329f57600080fd5b50519050610654565b60006132b78484111583611c4e565b5050900390565b4690565b600082821c623fffff16621fffff81136132dc5780612b4a565b623fffff19179392505050565b1c637fffffff1690565b1c6103ff1690565b1c60019081161490565b1c67ffffffffffffffff1690565b60008060008061332560095486613909565b935093509350935061333984848484613972565b5050505050565b60006060600061334f8461370b565b9050600181600381111561335f57fe5b14156133795761336f8585613998565b9093509150613384565b6133846101506129d2565b509250929050565b600081156133be5760006133aa846133a48888612bf8565b90612d8c565b90506133b686826139ca565b915050612b4a565b60006133ce84610a7f88886133e4565b90506133da8682612c4d565b9695505050505050565b60008282028315806133fe5750828482816133fb57fe5b04145b61340e5761340e60006003611c4e565b670de0b6b3a764000081612260565b6134346001600160a01b038316151561019b611c4e565b61344082600083611a39565b6001600160a01b03821660009081526020819052604090205461346690826101a16132a8565b6001600160a01b03831660009081526020819052604090205560025461348c90826139e2565b6002556040805182815290516000916001600160a01b038516917fddf252ad1be2c89b69c2b068fc378daa952ba7f163c4a11628f55a4df523b3ef9181900360200190a35050565b6000606060006134e38461370b565b905060038160038111156134f357fe5b14156135035761336f85856139f0565b6133846101366129d2565b60408051606081018252600a5460ff81161515825261010081046001600160781b031660208301819052600160801b9091046001600160801b0316928201929092529061355b85856139ca565b11156040518060400160405280601a81526020017f6f7665722061646472657373206c697175696469747920636170000000000000815250906135b15760405162461bcd60e51b81526004016106ab9190614934565b5060408101516001600160801b03166135ca85846139ca565b11156040518060400160405280601981526020017f6f76657220676c6f62616c206c69717569646974792063617000000000000000815250906133395760405162461bcd60e51b81526004016106ab9190614934565b600080600061362d6110ae565b6001600160a01b031663b05f8e486136436107f5565b876040518363ffffffff1660e01b81526004016136619291906148f3565b60806040518083038186803b15801561367957600080fd5b505afa15801561368d573d6000803e3d6000fd5b505050506040513d601f19601f820116820180604052508101906136b1919061466d565b50508181019450909250905061282983856133e4565b6000600160ff1b82106129ce5760405162461bcd60e51b8152600401808060200182810382526028815260200180614ac46028913960400191505060405180910390fd5b600081806020019051602081101561372257600080fd5b505192915050565b606081806020019051604081101561374157600080fd5b81516020830180516040519294929383019291908464010000000082111561376857600080fd5b90830190602082018581111561377d57600080fd5b825186602082028301116401000000008211171561379a57600080fd5b82525081516020918201928201910280838360005b838110156137c75781810151838201526020016137af565b505050509190910160405250929695505050505050565b6137ea60008383611a39565b6002546137f79082611e80565b6002556001600160a01b03821660009081526020819052604090205461381d9082611e80565b6001600160a01b0383166000818152602081815260408083209490945583518581529351929391927fddf252ad1be2c89b69c2b068fc378daa952ba7f163c4a11628f55a4df523b3ef9281900390910190a35050565b6000816138a0577f0000000000000000000000000000000000000000000000000000000000000000610654565b507f0000000000000000000000000000000000000000000000000000000000000000919050565b61071c816223aca960e91b613a15565b60006138e9631c74c91760e11b61100c565b82148061065457506139016350dd6ed960e01b61100c565b909114919050565b60008060008060008060008061391d613a76565b9350935093509350836000141561394257600097508796509094509250613969915050565b6000806139598c8c61395261071f565b8989613be8565b909a509850929650909450505050505b92959194509250565b8315613982576139828285613048565b8215613992576139928184613048565b50505050565b6000606060006139a784613c83565b905060006139bd86836139b861071f565b613ca5565b9196919550909350505050565b6000828201838110156107bd576107bd600080611c4e565b60006107bd838360016132a8565b6000606060006139ff84613c83565b905060006139bd8683613a1061071f565b613d2b565b62461bcd60e51b600090815260206004526007602452600a808404818106603090810160081b958390069590950190829004918206850160101b01602363ffffff0060e086901c160160181b0190930160c81b60445260e882901c90606490fd5b600d54600090819081908190613a9d906001600160a01b03163063045434c560e41b613dc7565b600d54613abb906001600160a01b03163063045434c560e41b613dee565b600d546040516321f8a72160e01b81526001600160a01b03909116906321f8a72190613afb906c4759524f5f545245415355525960981b906004016148ea565b60206040518083038186803b158015613b1357600080fd5b505afa158015613b27573d6000803e3d6000fd5b505050506040513d601f19601f82011682018060405250810190613b4b9190614222565b600d546040516321f8a72160e01b81526001600160a01b03909116906321f8a72190613b8a906b42414c5f545245415355525960a01b906004016148ea565b60206040518083038186803b158015613ba257600080fd5b505afa158015613bb6573d6000803e3d6000fd5b505050506040513d601f19601f82011682018060405250810190613bda9190614222565b935093509350935090919293565b600080868611613bfd57506000905080613c79565b6000613c1d85613c17613c108a8c612c4d565b89906133e4565b906133e4565b90506000613c35613c2e898b612c4d565b87906133e4565b90506000613c438983612c4d565b90506000613c51848361220f565b90506000613c5f88836133e4565b90506000613c6d8383612c4d565b91975090955050505050505b9550959350505050565b6000818060200190516040811015613c9a57600080fd5b506020015192915050565b6060835167ffffffffffffffff81118015613cbf57600080fd5b50604051908082528060200260200182016040528015613ce9578160200160208202803683370190505b50905060005b845181101561159b57613d0c83610a7f86888581518110612fff57fe5b828281518110613d1857fe5b6020908102919091010152600101613cef565b6060835167ffffffffffffffff81118015613d4557600080fd5b50604051908082528060200260200182016040528015613d6f578160200160208202803683370190505b50905060005b845181101561159b57613da8836133a486888581518110613d9257fe5b6020026020010151612bf890919063ffffffff16565b828281518110613db457fe5b6020908102919091010152600101613d75565b6000612b4a847550524f544f434f4c5f535741505f4645455f5045524360501b8486613e18565b6000612b4a847f50524f544f434f4c5f4645455f4759524f5f504f5254494f4e0000000000000084865b6040805160208082018690526001600160a01b03808516838501528351808403850181526060840180865281519184019190912063696eb37560e01b909152606484018190529351600094939189169263696eb3759260848082019391829003018186803b158015613e8957600080fd5b505afa158015613e9d573d6000803e3d6000fd5b505050506040513d6020811015613eb357600080fd5b505115613f3357856001600160a01b031663bd02d0f5826040518263ffffffff1660e01b81526004018082815260200191505060206040518083038186803b158015613efe57600080fd5b505afa158015613f12573d6000803e3d6000fd5b505050506040513d6020811015613f2857600080fd5b50519150612b4a9050565b6040805160208082018890528183018790528251808303840181526060830180855281519183019190912063696eb37560e01b9091526064830181905292516001600160a01b038a169263696eb375926084808301939192829003018186803b158015613f9f57600080fd5b505afa158015613fb3573d6000803e3d6000fd5b505050506040513d6020811015613fc957600080fd5b50511561404a57866001600160a01b031663bd02d0f5826040518263ffffffff1660e01b81526004018082815260200191505060206040518083038186803b15801561401457600080fd5b505afa158015614028573d6000803e3d6000fd5b505050506040513d602081101561403e57600080fd5b50519250612b4a915050565b866001600160a01b031663bd02d0f5876040518263ffffffff1660e01b81526004018082815260200191505060206040518083038186803b15801561408e57600080fd5b505afa1580156140a2573d6000803e3d6000fd5b505050506040513d60208110156140b857600080fd5b5051979650505050505050565b604080516060810182526000808252602082018190529181019190915290565b6040518060a0016040528060008152602001600081526020016000815260200160008152602001600081525090565b6040518060e0016040528061412761415d565b815260200161413461415d565b815260200160008152602001600081526020016000815260200160008152602001600081525090565b604051806040016040528060008152602001600081525090565b8035610c5381614aae565b80358015158114610c5357600080fd5b600082601f8301126141a2578081fd5b813567ffffffffffffffff8111156141b657fe5b6141c9601f8201601f1916602001614a8a565b8181528460208386010111156141dd578283fd5b816020850160208301379081016020019190915292915050565b803560028110610c5357600080fd5b600060208284031215614217578081fd5b81356107bd81614aae565b600060208284031215614233578081fd5b81516107bd81614aae565b60008060408385031215614250578081fd5b823561425b81614aae565b9150602083013561426b81614aae565b809150509250929050565b60008060006060848603121561428a578081fd5b833561429581614aae565b925060208401356142a581614aae565b929592945050506040919091013590565b600080600080600080600060e0888a0312156142d0578283fd5b87356142db81614aae565b965060208801356142eb81614aae565b95506040880135945060608801359350608088013560ff8116811461430e578384fd5b9699959850939692959460a0840135945060c09093013592915050565b6000806040838503121561433d578182fd5b823561434881614aae565b946020939093013593505050565b600060208284031215614367578081fd5b6107bd82614182565b600080600080600080600060e0888a03121561438a578081fd5b87359650602088013561439c81614aae565b955060408801356143ac81614aae565b9450606088013567ffffffffffffffff808211156143c8578283fd5b818a0191508a601f8301126143db578283fd5b8135818111156143e757fe5b602081026143f760208201614a8a565b80838252602082019150602086018f6020858901011115614416578788fd5b8796505b848710156144395780358352600196909601956020928301920161441a565b50985050505060808a0135945060a08a0135935060c08a0135915080821115614460578283fd5b5061446d8a828b01614192565b91505092959891949750929550565b60006020828403121561448d578081fd5b81356001600160e01b0319811681146107bd578182fd5b600080604083850312156144b6578182fd5b505080516020909101519092909150565b6000606082840312156144d8578081fd5b6040516060810181811067ffffffffffffffff821117156144f557fe5b60405261450183614182565b815260208301356001600160781b038116811461451c578283fd5b602082015260408301356001600160801b038116811461453a578283fd5b60408201529392505050565b60008060006060848603121561455a578081fd5b833567ffffffffffffffff80821115614571578283fd5b8186019150610120808389031215614587578384fd5b61459081614a8a565b905061459b836141f7565b81526145a960208401614177565b60208201526145ba60408401614177565b6040820152606083013560608201526080830135608082015260a083013560a08201526145e960c08401614177565b60c08201526145fa60e08401614177565b60e08201526101008084013583811115614612578586fd5b61461e8a828701614192565b9183019190915250976020870135975060409096013595945050505050565b60006020828403121561464e578081fd5b5035919050565b600060208284031215614666578081fd5b5051919050565b60008060008060808587031215614682578182fd5b84519350602085015192506040850151915060608501516146a281614aae565b939692955090935050565b6000815180845260208085019450808401835b838110156146dc578151875295820195908201906001016146c0565b509495945050505050565b6146f282825161476c565b6020810151614704604084018261476c565b5060408101516080830152606081015160a0830152608081015160c083015260a081015160e083015260c08101516101008301525050565b80518252602081015160208301526040810151604083015260608101516060830152608081015160808301525050565b80518252602090810151910152565b6000828483379101908152919050565b6001600160a01b0391909116815260200190565b6000602082526107bd60208301846146ad565b6000604082526147c560408301856146ad565b828103602084015261282981856146ad565b60006101e08083526147eb818401876146ad565b9150506147fb602083018561473c565b612b4a60c08301846146e7565b600061020080835261481c818401886146ad565b91505061482c602083018661473c565b61483960c08301856146e7565b826101e083015295945050505050565b60006080825261485c60808301866146ad565b905061486b602083018561476c565b826060830152949350505050565b600061026080835261488d8184018a6146ad565b91505086602083015285151560408301526148ab606083018661473c565b6148b96101008301856146e7565b612cfb61022083018461476c565b901515815260200190565b92151583526020830191909152604082015260600190565b90815260200190565b9182526001600160a01b0316602082015260400190565b9586526020860194909452604085019290925260608401521515608083015260a082015260c00190565b6000602080835283518082850152825b8181101561496057858101830151858201604001528201614944565b818111156149715783604083870101525b50601f01601f1916929092016040019392505050565b8151151581526020808301516001600160781b0316908201526040918201516001600160801b03169181019190915260600190565b905460ff811615158252600881901c6001600160781b0316602083015260801c604082015260600190565b6101c081016149f6828561473c565b614a0460a08301845161476c565b6020830151614a1660e084018261476c565b5060408301516101208301526060830151610140830152608083015161016083015260a083015161018083015260c08301516101a08301529392505050565b600083825260406020830152612b4a60408301846146ad565b918252602082015260400190565b60ff91909116815260200190565b60405181810167ffffffffffffffff81118282101715614aa657fe5b604052919050565b6001600160a01b038116811461071c57600080fdfe53616665436173743a2076616c756520646f65736e27742066697420696e20616e20696e74323536a2646970667358221220999fef009da62723b072b897f17d92e552b561930adc5b825699c76d9b823e5a64736f6c63430007060033","bytecodeSha1":"8f0220859b610575798a83c5b7b9554089ca62fc","compiler":{"evm_version":"berlin","optimizer":{"enabled":true,"runs":200},"version":"0.7.6+commit.7338295f"},"contractName":"GyroECLPPool","deployedBytecode":"608060405234801561001057600080fd5b50600436106102955760003560e01c806374f3b0091161016757806398d5fdca116100ce578063abd13afe11610087578063abd13afe1461054f578063c0ff1a1514610557578063d505accf1461055f578063d5c096c414610572578063dd62ed3e14610585578063f89f27ed1461059857610295565b806398d5fdca146104fe5780639b02cdde146105065780639d2c110c1461050e578063a457c2d714610521578063a9059cbb14610534578063aaabadc51461054757610295565b80638456cb59116101205780638456cb59146104b8578063851c1bb3146104c057806387ec6817146104d3578063893d20e8146104e65780638d928af8146104ee57806395d89b41146104f657610295565b806374f3b0091461044057806376e54a46146104615780637be219a2146104745780637ecebe001461048a5780638002df181461049d578063828a7c34146104b057610295565b8063395093511161020b5780636028bfd4116101c45780636028bfd4146103de57806362ced092146103ff578063679aefce146104075780636d785a871461040f578063702ec0911461041757806370a082311461042d57610295565b806339509351146103775780633aeae0d31461038a5780633f4ba83a1461039f57806344bbdb55146103a75780634a6b0b15146103bc57806355c67628146103d657610295565b80631c0de0511161025d5780631c0de0511461031557806323b872dd1461032c578063313ce5671461033f5780633644e5151461035457806338e9922e1461035c57806338fff2d01461036f57610295565b806306fdde031461029a578063095ea7b3146102b85780630e608b30146102d857806316c38b3c146102ed57806318160ddd14610300575b600080fd5b6102a26105ad565b6040516102af9190614934565b60405180910390f35b6102cb6102c636600461432b565b610643565b6040516102af91906148c7565b6102eb6102e6366004614206565b61065a565b005b6102eb6102fb366004614356565b61070b565b61030861071f565b6040516102af91906148ea565b61031d610725565b6040516102af939291906148d2565b6102cb61033a366004614276565b61074e565b6103476107c4565b6040516102af9190614a7c565b6103086107cd565b6102eb61036a36600461463d565b6107dc565b6103086107f5565b6102cb61038536600461432b565b610819565b610392610854565b6040516102af9190614987565b6102eb61089f565b6103af610994565b6040516102af919061478b565b6103c46109a3565b6040516102af9695949392919061490a565b6103086109fe565b6103f16103ec366004614370565b610a0b565b6040516102af929190614a55565b6103af610a3c565b610308610a60565b6103af610a85565b61041f610a94565b6040516102af929190614a6e565b61030861043b366004614206565b610c39565b61045361044e366004614370565b610c58565b6040516102af9291906147b2565b6102eb61046f3660046144c7565b610ce8565b61047c610e0f565b6040516102af9291906149e7565b610308610498366004614206565b610e2f565b6102eb6104ab366004614206565b610e4a565b6103af610f30565b6102eb610f54565b6103086104ce36600461447c565b61100c565b6103f16104e1366004614370565b611065565b6103af61108a565b6103af6110ae565b6102a26110d2565b610308611133565b6103086111fe565b61030861051c366004614546565b611204565b6102cb61052f36600461432b565b6115a3565b6102cb61054236600461432b565b6115e1565b6103af6115ee565b6103af6115f8565b610308611607565b6102eb61056d3660046142b6565b6116b7565b610453610580366004614370565b611827565b61030861059336600461423e565b61190c565b6105a0611949565b6040516102af919061479f565b60038054604080516020601f60026000196101006001881615020190951694909404938401819004810282018101909252828152606093909290918301828280156106395780601f1061060e57610100808354040283529160200191610639565b820191906000526020600020905b81548152906001019060200180831161061c57829003601f168201915b5050505050905090565b6000610650338484611add565b5060015b92915050565b600b5460408051808201909152600e81526d1b9bdd08185d5d1a1bdc9a5e995960921b6020820152906001600160a01b031633146106b45760405162461bcd60e51b81526004016106ab9190614934565b60405180910390fd5b50600b80546001600160a01b0319166001600160a01b0383161790556040517fb8fd9afc34c38fcd13b9a3b7646482eb1fddcefb40af2c70609972816eba32089061070090839061478b565b60405180910390a150565b610713611b3f565b61071c81611b6d565b50565b60025490565b6000806000610732611be9565b15925061073d611c06565b9150610747611c2a565b9050909192565b60008061075b853361190c565b905061077f336001600160a01b03871614806107775750838210155b61019e611c4e565b61078a858585611c5c565b336001600160a01b038616148015906107a557506000198114155b156107b7576107b78533858403611add565b60019150505b9392505050565b60055460ff1690565b60006107d7611d44565b905090565b6107e4611b3f565b6107ec611e02565b61071c81611e17565b7f000000000000000000000000000000000000000000000000000000000000000090565b3360008181526001602090815260408083206001600160a01b0387168452909152812054909161065091859061084f9086611e80565b611add565b61085c6140c5565b5060408051606081018252600a5460ff81161515825261010081046001600160781b03166020830152600160801b90046001600160801b03169181019190915290565b600c546040805180820190915260118152703737ba103830bab9b29036b0b730b3b2b960791b6020820152906001600160a01b0316331461095e5760405162461bcd60e51b81526004018080602001828103825283818151815260200191508051906020019080838360005b8381101561092357818101518382015260200161090b565b50505050905090810190601f1680156109505780820380516001836020036101000a031916815260200191505b509250505060405180910390fd5b506109696000610713565b6040517f215385c8bfc731925ec8068d7baa50f6b6f34417cc7804f7273dc2c0b3db279090600090a1565b600d546001600160a01b031681565b600080600080600080600060085490506109bc81611e92565b96506109c781611e9e565b95506109d281611eab565b94506109dd81611eb8565b93506109e881611ec5565b92506109f381611ed2565b915050909192939495565b60006107d7600854611ed2565b60006060610a1b86516002611edf565b610a3089898989898989611eec61205a6120d8565b97509795505050505050565b7f000000000000000000000000000000000000000000000000000000000000000081565b60006107d7610a6d61071f565b610a7f610a78611607565b60026121eb565b9061220f565b600b546001600160a01b031681565b6000807f00000000000000000000000000000000000000000000000000000000000000006001600160a01b0316610ad357670de0b6b3a7640000610b64565b7f00000000000000000000000000000000000000000000000000000000000000006001600160a01b031663679aefce6040518163ffffffff1660e01b815260040160206040518083038186803b158015610b2c57600080fd5b505afa158015610b40573d6000803e3d6000fd5b505050506040513d601f19601f82011682018060405250810190610b649190614655565b91507f00000000000000000000000000000000000000000000000000000000000000006001600160a01b0316610ba257670de0b6b3a7640000610c33565b7f00000000000000000000000000000000000000000000000000000000000000006001600160a01b031663679aefce6040518163ffffffff1660e01b815260040160206040518083038186803b158015610bfb57600080fd5b505afa158015610c0f573d6000803e3d6000fd5b505050506040513d601f19601f82011682018060405250810190610c339190614655565b90509091565b6001600160a01b0381166000908152602081905260409020545b919050565b60608088610c82610c676110ae565b6001600160a01b0316336001600160a01b03161460cd611c4e565b610c97610c8d6107f5565b82146101f4611c4e565b610ca087612269565b6000806000610cb48d8d8d8d8d8d8d611eec565b925092509250610cc48c846122cb565b610ccd8261205a565b610cd68161205a565b909c909b509950505050505050505050565b600b5460408051808201909152600e81526d1b9bdd08185d5d1a1bdc9a5e995960921b6020820152906001600160a01b03163314610d395760405162461bcd60e51b81526004016106ab9190614934565b50600a5460408051808201909152601081526f1c1bdbdb081a5cc81d5b98d85c1c195960821b60208201529060ff16610d855760405162461bcd60e51b81526004016106ab9190614934565b508051600a8054602084015160408086015160ff19909316941515949094176fffffffffffffffffffffffffffffff0019166101006001600160781b0390921691909102176001600160801b03908116600160801b919092160217815590517f2abf5970d7bc1a2b36eaae52dd2cc353edb0337c7284ef8a01973081b4e0442491610700916149bc565b610e176140e5565b610e1f614114565b610e276122d5565b915091509091565b6001600160a01b031660009081526006602052604090205490565b600c546040805180820190915260118152703737ba103830bab9b29036b0b730b3b2b960791b60208201526001600160a01b0390911690338214610ecf5760405162461bcd60e51b815260206004820181815283516024840152835190928392604490910191908501908083836000831561092357818101518382015260200161090b565b50600c80546001600160a01b0319166001600160a01b03848116918217909255604080519284168352602083019190915280517f1ffccd1fa96f4fb3415df8048a0fd107344e262d2d246c85105e2a3f8f3e81989281900390910190a15050565b7f000000000000000000000000000000000000000000000000000000000000000081565b600c546040805180820190915260118152703737ba103830bab9b29036b0b730b3b2b960791b6020820152906001600160a01b03163314610fd65760405162461bcd60e51b815260206004820181815283516024840152835190928392604490910191908501908083836000831561092357818101518382015260200161090b565b50610fe16001610713565b6040517f681eace576127d0553b224436a09801fb47d042942cbff59d7d4ff04d8fa03d790600090a1565b604080517f00000000000000000000000000000000000000000000000000000000000000006020808301919091526001600160e01b03198416828401528251602481840301815260449092019092528051910120919050565b6000606061107586516002611edf565b610a308989898989898961250b61267a6120d8565b7f000000000000000000000000000000000000000000000000000000000000000090565b7f000000000000000000000000000000000000000000000000000000000000000090565b60048054604080516020601f60026000196101006001881615020190951694909404938401819004810282018101909252828152606093909290918301828280156106395780601f1061060e57610100808354040283529160200191610639565b60008061113e6126dc565b905060008061114b6122d5565b91509150600073__$4dfb88a4c975276bfeda73b9d8c1ea657b$__63d83ca8628585856040518463ffffffff1660e01b815260040161118c939291906147d7565b60206040518083038186803b1580156111a457600080fd5b505af41580156111b8573d6000803e3d6000fd5b505050506040513d601f19601f820116820180604052508101906111dc9190614655565b90506111ea84828585612792565b94506111f585612832565b94505050505090565b60095490565b600061120e611e02565b836080015161121e610c676110ae565b611229610c8d6107f5565b60007f00000000000000000000000000000000000000000000000000000000000000006001600160a01b031686602001516001600160a01b03161480156112a557507f00000000000000000000000000000000000000000000000000000000000000006001600160a01b031686604001516001600160a01b0316145b156112b257506001611343565b7f00000000000000000000000000000000000000000000000000000000000000006001600160a01b031686602001516001600160a01b031614801561132c57507f00000000000000000000000000000000000000000000000000000000000000006001600160a01b031686604001516001600160a01b0316145b1561133957506000611343565b61134360796129d2565b600061134e82612a25565b9050600061135c8315612a25565b90506113688783612b52565b96506113748682612b52565b95506000611383888886612b5e565b90506000806113906122d5565b9150915061139c61415d565b60008073__$4dfb88a4c975276bfeda73b9d8c1ea657b$__6378ace8578787876040518463ffffffff1660e01b81526004016113da939291906147d7565b604080518083038186803b1580156113f157600080fd5b505af4158015611405573d6000803e3d6000fd5b505050506040513d601f19601f8201168201806040525081019061142991906144a4565b6040805180820190915260029091028201815260208101919091529250600091506114519050565b8c51600181111561145e57fe5b141561150a57600061147c6114716109fe565b60608f015190612bf8565b905061149e611498828f60600151612c4d90919063ffffffff16565b88612b52565b60608e015260006114b38e878b888888612c63565b90507f4e1d56f7310a8c32b2267f756b19ba65019b4890068ce114a25009abe54de5ba8684836040516114e893929190614849565b60405180910390a16114fa8188612d06565b9a5050505050505050505061159b565b6115188c6060015186612b52565b60608d0152600061152d8d868a878787612d12565b90507f4e1d56f7310a8c32b2267f756b19ba65019b4890068ce114a25009abe54de5ba85838360405161156293929190614849565b60405180910390a16115748188612d5a565b90506115906115896115846109fe565b612d66565b8290612d8c565b995050505050505050505b509392505050565b6000806115b0338561190c565b90508083106115ca576115c533856000611add565b6115d7565b6115d73385858403611add565b5060019392505050565b6000610650338484611c5c565b60006107d7612df2565b600c546001600160a01b031681565b6000806116126126dc565b905060008061161f6122d5565b604051636c1e543160e11b8152919350915073__$4dfb88a4c975276bfeda73b9d8c1ea657b$__9063d83ca8629061165f908690869086906004016147d7565b60206040518083038186803b15801561167757600080fd5b505af415801561168b573d6000803e3d6000fd5b505050506040513d601f19601f820116820180604052508101906116af9190614655565b935050505090565b6116c58442111560d1611c4e565b6001600160a01b0380881660008181526006602090815260408083205481517f00000000000000000000000000000000000000000000000000000000000000008185015280830195909552948b166060850152608084018a905260a0840185905260c08085018a90528151808603909101815260e0909401905282519201919091209061175182612e6c565b9050600060018288888860405160008152602001604052604051808581526020018460ff1681526020018381526020018281526020019450505050506020604051602081039080840390855afa1580156117af573d6000803e3d6000fd5b5050604051601f19015191506117f190506001600160a01b038216158015906117e957508b6001600160a01b0316826001600160a01b0316145b6101f8611c4e565b6001600160a01b038b16600090815260066020526040902060018501905561181a8b8b8b611add565b5050505050505050505050565b60608088611836610c676110ae565b611841610c8d6107f5565b611849611e02565b600061185361071f565b6118c3576118638b8b8b88612eb8565b94509050611878620f424082101560cc611c4e565b6118866000620f4240613048565b61189589620f42408303613048565b61189e8461267a565b60408051600280825260608201835290916020830190803683370190505092506118fe565b6118cc88612269565b6118db8b8b8b8b8b8b8b61250b565b909550935090506118ec8982613048565b6118f58461267a565b6118fe8361205a565b505097509795505050505050565b60006119166110ae565b6001600160a01b0316826001600160a01b031614156119385750600019610654565b6119428383613052565b9050610654565b60606107d761307d565b8061195d816130ec565b5050565b61198d81606001516000131580156119855750670de0b6b3a7640000826060015113155b610163613165565b6119b881604001516000131580156119855750670de0b6b3a764000082604001511315610163613165565b6040805180820182526060830151815290820151602082015260006119dd8280613173565b9050611a0a670de0b6b3a763fc188212801590611a025750670de0b6b3a76403e88213155b610164613165565b611a398360800151600013158015611a3157506a52b7d2dcc80cd2e4000000846080015113155b610168613165565b505050565b60006107bd83836056611a62565b6000611a5c838311156001611c4e565b50900390565b67ffffffffffffffff811b1992909216911b1790565b6000828202831580611a92575082848281611a8f57fe5b05145b611aa257611aa260006003611c4e565b670de0b6b3a764000090059392505050565b600082820181831215611ac957838112611ace565b838112155b6107bd576107bd600080611c4e565b6001600160a01b03808416600081815260016020908152604080832094871680845294825291829020859055815185815291517f8c5be1e5ebec7d5bd14f71427d1e84f3dd0314c0f7b2291e5b200ac8c7c3b9259281900390910190a3505050565b6000611b566000356001600160e01b03191661100c565b905061071c611b6582336131a6565b610191611c4e565b8015611b8d57611b88611b7e611c06565b4210610193611c4e565b611ba2565b611ba2611b98611c2a565b42106101a9611c4e565b6007805482151560ff19909116811790915560408051918252517f9e3a5e37224532dea67b89face185703738a228a6e8a23dee546960180d3be649181900360200190a150565b6000611bf3611c2a565b4211806107d757505060075460ff161590565b7f000000000000000000000000000000000000000000000000000000000000000090565b7f000000000000000000000000000000000000000000000000000000000000000090565b8161195d5761195d816129d2565b611c736001600160a01b0384161515610198611c4e565b611c8a6001600160a01b0383161515610199611c4e565b611c95838383611a39565b6001600160a01b038316600090815260208190526040902054611cbb90826101a06132a8565b6001600160a01b038085166000908152602081905260408082209390935590841681522054611cea9082611e80565b6001600160a01b038084166000818152602081815260409182902094909455805185815290519193928716927fddf252ad1be2c89b69c2b068fc378daa952ba7f163c4a11628f55a4df523b3ef92918290030190a3505050565b60007f00000000000000000000000000000000000000000000000000000000000000007f00000000000000000000000000000000000000000000000000000000000000007f0000000000000000000000000000000000000000000000000000000000000000611db16132be565b3060405160200180868152602001858152602001848152602001838152602001826001600160a01b031681526020019550505050505060405160208183030381529060405280519060200120905090565b611e15611e0d611be9565b610192611c4e565b565b611e2a64e8d4a5100082101560cb611c4e565b611e4067016345785d8a000082111560ca611c4e565b600854611e4d9082611a3e565b6008556040517fa9ba3ffe0b6c366b81232caab38605a0699ad5398d6cce76f91ee809e322dafc906107009083906148ea565b60008282016107bd8482101583611c4e565b600061065482826132c2565b60006106548260166132c2565b600061065482602c6132e9565b600061065482604b6132f3565b60006106548260556132fb565b6000610654826056613305565b61195d8183146067611c4e565b6000606080600080611efc6122d5565b91509150611f08611be9565b1561200d57604051636c1e543160e11b815260009073__$4dfb88a4c975276bfeda73b9d8c1ea657b$__9063d83ca86290611f4b908d90879087906004016147d7565b60206040518083038186803b158015611f6357600080fd5b505af4158015611f77573d6000803e3d6000fd5b505050506040513d601f19601f82011682018060405250810190611f9b9190614655565b9050611fa681613313565b611fb08a88613340565b9096509450611fc98187611fc261071f565b600061338c565b60098190556040517fe1d39caf039c7dc6f364b1e29d1e67c4e330003a43f4991d50cf3e8840d95eac91611fff91849190614a6e565b60405180910390a150612023565b6120178987613340565b60001960095590955093505b6040805160028082526060820183528792879291906020830190803683370190505094509450945050509750975097945050505050565b6120818160008151811061206a57fe5b602002602001015161207c6001612a25565b61220f565b8160008151811061208e57fe5b6020026020010181815250506120bc816001815181106120aa57fe5b602002602001015161207c6000612a25565b816001815181106120c957fe5b60200260200101818152505050565b333014612196576000306001600160a01b03166000366040516120fc92919061477b565b6000604051808303816000865af19150503d8060008114612139576040519150601f19603f3d011682016040523d82523d6000602084013e61213e565b606091505b50509050806000811461214d57fe5b60046000803e6000516001600160e01b0319166343adbafb60e01b8114612178573d6000803e3d6000fd5b506020600460003e604060205260243d03602460403e601c3d016000f35b61219f86612269565b6000806121b58b8b8b8b8b8b8b8b63ffffffff16565b50915091506121c7818463ffffffff16565b8051601f1982018390526343adbafb603f1983015260200260231982016044820181fd5b60008282026107bd84158061220857508385838161220557fe5b04145b6003611c4e565b6000816122225761222260006004611c4e565b8261222f57506000610654565b670de0b6b3a76400008381029084828161224557fe5b04146122575761225760006005611c4e565b82818161226057fe5b04949350505050565b6122908160008151811061227957fe5b602002602001015161228b6001612a25565b6133e4565b8160008151811061229d57fe5b6020026020010181815250506120bc816001815181106122b957fe5b602002602001015161228b6000612a25565b61195d828261341d565b6122dd6140e5565b6122e5614114565b7f00000000000000000000000000000000000000000000000000000000000000006080808401919091527f00000000000000000000000000000000000000000000000000000000000000006060808501919091527f00000000000000000000000000000000000000000000000000000000000000006040808601919091527f00000000000000000000000000000000000000000000000000000000000000006020808701919091527f000000000000000000000000000000000000000000000000000000000000000086528451858201517f0000000000000000000000000000000000000000000000000000000000000000818401527f000000000000000000000000000000000000000000000000000000000000000090527f0000000000000000000000000000000000000000000000000000000000000000918101919091527f000000000000000000000000000000000000000000000000000000000000000090527f000000000000000000000000000000000000000000000000000000000000000060c08501527f000000000000000000000000000000000000000000000000000000000000000060a08501527f0000000000000000000000000000000000000000000000000000000000000000928401929092527f0000000000000000000000000000000000000000000000000000000000000000908301527f0000000000000000000000000000000000000000000000000000000000000000908201529091565b600060608060008061251b6122d5565b91509150600073__$4dfb88a4c975276bfeda73b9d8c1ea657b$__63d83ca8628b85856040518463ffffffff1660e01b815260040161255c939291906147d7565b60206040518083038186803b15801561257457600080fd5b505af4158015612588573d6000803e3d6000fd5b505050506040513d601f19601f820116820180604052508101906125ac9190614655565b90506125b781613313565b6000806125c48c8a6134d4565b600a54919350915060ff16156125ee576125ee826125e18f610c39565b6125e961071f565b61350e565b61260283836125fb61071f565b600161338c565b60098190556040517fe1d39caf039c7dc6f364b1e29d1e67c4e330003a43f4991d50cf3e8840d95eac9161263891869190614a6e565b60405180910390a16040805160028082526060820183528492849291906020830190803683370190505097509750975050505050509750975097945050505050565b6126a18160008151811061268a57fe5b602002602001015161269c6001612a25565b612d8c565b816000815181106126ae57fe5b6020026020010181815250506120bc816001815181106126ca57fe5b602002602001015161269c6000612a25565b604080516002808252606080830184529260208301908036833701905050905061272f7f000000000000000000000000000000000000000000000000000000000000000061272a6001612a25565b613620565b8160008151811061273c57fe5b6020026020010181815250506127767f000000000000000000000000000000000000000000000000000000000000000061272a6000612a25565b8160018151811061278357fe5b60200260200101818152505090565b600073__$4dfb88a4c975276bfeda73b9d8c1ea657b$__63c7fe78d08685856127ba896136c7565b6040518563ffffffff1660e01b81526004016127d99493929190614808565b60206040518083038186803b1580156127f157600080fd5b505af4158015612805573d6000803e3d6000fd5b505050506040513d601f19601f820116820180604052508101906128299190614655565b95945050505050565b60007f00000000000000000000000000000000000000000000000000000000000000006001600160a01b031615612901576128fe7f00000000000000000000000000000000000000000000000000000000000000006001600160a01b031663679aefce6040518163ffffffff1660e01b815260040160206040518083038186803b1580156128bf57600080fd5b505afa1580156128d3573d6000803e3d6000fd5b505050506040513d601f19601f820116820180604052508101906128f79190614655565b83906133e4565b91505b7f00000000000000000000000000000000000000000000000000000000000000006001600160a01b0316156129ce576129cb7f00000000000000000000000000000000000000000000000000000000000000006001600160a01b031663679aefce6040518163ffffffff1660e01b815260040160206040518083038186803b15801561298c57600080fd5b505afa1580156129a0573d6000803e3d6000fd5b505050506040513d601f19601f820116820180604052508101906129c49190614655565b839061220f565b91505b5090565b62461bcd60e51b6000908152602060045260076024526642414c23000030600a808404818106603090810160081b95839006959095019082900491820690940160101b939093010160c81b604452606490fd5b60008060008315612a7a57507f000000000000000000000000000000000000000000000000000000000000000090507f0000000000000000000000000000000000000000000000000000000000000000612ac0565b507f000000000000000000000000000000000000000000000000000000000000000090507f00000000000000000000000000000000000000000000000000000000000000005b6001600160a01b038216156107bd57612b4a826001600160a01b031663679aefce6040518163ffffffff1660e01b815260040160206040518083038186803b158015612b0b57600080fd5b505afa158015612b1f573d6000803e3d6000fd5b505050506040513d601f19601f82011682018060405250810190612b439190614655565b82906133e4565b949350505050565b60006107bd83836133e4565b60408051600280825260608083018452926020830190803683370190505090508115612bbd578381600081518110612b9257fe5b6020026020010181815250508281600181518110612bac57fe5b6020026020010181815250506107bd565b8281600081518110612bcb57fe5b6020026020010181815250508381600181518110612be557fe5b6020026020010181815250509392505050565b6000828202831580612c12575082848281612c0f57fe5b04145b612c2257612c2260006003611c4e565b80612c31576000915050610654565b670de0b6b3a764000060001982015b0460010191505092915050565b600082821115611a5c57611a5c60006001611c4e565b60608601516040516330ffa11b60e11b815260009173__$4dfb88a4c975276bfeda73b9d8c1ea657b$__916361ff423691612cab918a91908a908a908a908a90600401614879565b60206040518083038186803b158015612cc357600080fd5b505af4158015612cd7573d6000803e3d6000fd5b505050506040513d601f19601f82011682018060405250810190612cfb9190614655565b979650505050505050565b60006107bd838361220f565b6060860151604051633b18ce7b60e21b815260009173__$4dfb88a4c975276bfeda73b9d8c1ea657b$__9163ec6339ec91612cab918a91908a908a908a908a90600401614879565b60006107bd8383612d8c565b6000670de0b6b3a76400008210612d7e576000610654565b50670de0b6b3a76400000390565b600081612d9f57612d9f60006004611c4e565b82612dac57506000610654565b670de0b6b3a764000083810290848281612dc257fe5b0414612de657612de6670de0b6b3a7640000858381612ddd57fe5b04146005611c4e565b826001820381612c4057fe5b6000612dfc6110ae565b6001600160a01b031663aaabadc56040518163ffffffff1660e01b815260040160206040518083038186803b158015612e3457600080fd5b505afa158015612e48573d6000803e3d6000fd5b505050506040513d601f19601f820116820180604052508101906107d79190614222565b6000612e76611d44565b82604051602001808061190160f01b81525060020183815260200182815260200192505050604051602081830303815290604052805190602001209050919050565b600060606000612ec78461370b565b9050612ee26000826003811115612eda57fe5b1460ce611c4e565b6000612eed8561372a565b9050612efb81516002611edf565b612f0481612269565b600080612f0f6122d5565b91509150600073__$4dfb88a4c975276bfeda73b9d8c1ea657b$__63d83ca8628585856040518463ffffffff1660e01b8152600401612f50939291906147d7565b60206040518083038186803b158015612f6857600080fd5b505af4158015612f7c573d6000803e3d6000fd5b505050506040513d601f19601f82011682018060405250810190612fa09190614655565b90507faf65f1a72bf4f8bc48e8153858e1f7b307ce39c88361a677c0a79c2a1ae571ef81604051612fd191906148ea565b60405180910390a16000612fe785838686612792565b9050600061302f6130158388600081518110612fff57fe5b60200260200101516133e490919063ffffffff16565b8760018151811061302257fe5b6020026020010151611e80565b60099390935550909b939a509298505050505050505050565b61195d82826137de565b6001600160a01b03918216600090815260016020908152604080832093909416825291909152205490565b604080516002808252606080830184529260009291906020830190803683370190505090506130ac6001613873565b816000815181106130b957fe5b6020026020010181815250506130cf6000613873565b816001815181106130dc57fe5b6020908102919091010152905090565b6002815110156130fb5761071c565b60008160008151811061310a57fe5b602002602001015190506000600190505b8251811015611a3957600083828151811061313257fe5b6020026020010151905061315b816001600160a01b0316846001600160a01b0316106065611c4e565b915060010161311b565b8161195d5761195d816138c7565b60006107bd61319383602001518560200151611a7890919063ffffffff16565b835185516131a091611a78565b90611ab4565b600073ba1ba1ba1ba1ba1ba1ba1ba1ba1ba1ba1ba1ba1b6131c561108a565b6001600160a01b0316141580156131e057506131e0836138d7565b15613208576131ed61108a565b6001600160a01b0316336001600160a01b0316149050610654565b613210612df2565b6001600160a01b0316639be2a8848484306040518463ffffffff1660e01b815260040180848152602001836001600160a01b03168152602001826001600160a01b03168152602001935050505060206040518083038186803b15801561327557600080fd5b505afa158015613289573d6000803e3d6000fd5b505050506040513d602081101561329f57600080fd5b50519050610654565b60006132b78484111583611c4e565b5050900390565b4690565b600082821c623fffff16621fffff81136132dc5780612b4a565b623fffff19179392505050565b1c637fffffff1690565b1c6103ff1690565b1c60019081161490565b1c67ffffffffffffffff1690565b60008060008061332560095486613909565b935093509350935061333984848484613972565b5050505050565b60006060600061334f8461370b565b9050600181600381111561335f57fe5b14156133795761336f8585613998565b9093509150613384565b6133846101506129d2565b509250929050565b600081156133be5760006133aa846133a48888612bf8565b90612d8c565b90506133b686826139ca565b915050612b4a565b60006133ce84610a7f88886133e4565b90506133da8682612c4d565b9695505050505050565b60008282028315806133fe5750828482816133fb57fe5b04145b61340e5761340e60006003611c4e565b670de0b6b3a764000081612260565b6134346001600160a01b038316151561019b611c4e565b61344082600083611a39565b6001600160a01b03821660009081526020819052604090205461346690826101a16132a8565b6001600160a01b03831660009081526020819052604090205560025461348c90826139e2565b6002556040805182815290516000916001600160a01b038516917fddf252ad1be2c89b69c2b068fc378daa952ba7f163c4a11628f55a4df523b3ef9181900360200190a35050565b6000606060006134e38461370b565b905060038160038111156134f357fe5b14156135035761336f85856139f0565b6133846101366129d2565b60408051606081018252600a5460ff81161515825261010081046001600160781b031660208301819052600160801b9091046001600160801b0316928201929092529061355b85856139ca565b11156040518060400160405280601a81526020017f6f7665722061646472657373206c697175696469747920636170000000000000815250906135b15760405162461bcd60e51b81526004016106ab9190614934565b5060408101516001600160801b03166135ca85846139ca565b11156040518060400160405280601981526020017f6f76657220676c6f62616c206c69717569646974792063617000000000000000815250906133395760405162461bcd60e51b81526004016106ab9190614934565b600080600061362d6110ae565b6001600160a01b031663b05f8e486136436107f5565b876040518363ffffffff1660e01b81526004016136619291906148f3565b60806040518083038186803b15801561367957600080fd5b505afa15801561368d573d6000803e3d6000fd5b505050506040513d601f19601f820116820180604052508101906136b1919061466d565b50508181019450909250905061282983856133e4565b6000600160ff1b82106129ce5760405162461bcd60e51b8152600401808060200182810382526028815260200180614ac46028913960400191505060405180910390fd5b600081806020019051602081101561372257600080fd5b505192915050565b606081806020019051604081101561374157600080fd5b81516020830180516040519294929383019291908464010000000082111561376857600080fd5b90830190602082018581111561377d57600080fd5b825186602082028301116401000000008211171561379a57600080fd5b82525081516020918201928201910280838360005b838110156137c75781810151838201526020016137af565b505050509190910160405250929695505050505050565b6137ea60008383611a39565b6002546137f79082611e80565b6002556001600160a01b03821660009081526020819052604090205461381d9082611e80565b6001600160a01b0383166000818152602081815260408083209490945583518581529351929391927fddf252ad1be2c89b69c2b068fc378daa952ba7f163c4a11628f55a4df523b3ef9281900390910190a35050565b6000816138a0577f0000000000000000000000000000000000000000000000000000000000000000610654565b507f0000000000000000000000000000000000000000000000000000000000000000919050565b61071c816223aca960e91b613a15565b60006138e9631c74c91760e11b61100c565b82148061065457506139016350dd6ed960e01b61100c565b909114919050565b60008060008060008060008061391d613a76565b9350935093509350836000141561394257600097508796509094509250613969915050565b6000806139598c8c61395261071f565b8989613be8565b909a509850929650909450505050505b92959194509250565b8315613982576139828285613048565b8215613992576139928184613048565b50505050565b6000606060006139a784613c83565b905060006139bd86836139b861071f565b613ca5565b9196919550909350505050565b6000828201838110156107bd576107bd600080611c4e565b60006107bd838360016132a8565b6000606060006139ff84613c83565b905060006139bd8683613a1061071f565b613d2b565b62461bcd60e51b600090815260206004526007602452600a808404818106603090810160081b958390069590950190829004918206850160101b01602363ffffff0060e086901c160160181b0190930160c81b60445260e882901c90606490fd5b600d54600090819081908190613a9d906001600160a01b03163063045434c560e41b613dc7565b600d54613abb906001600160a01b03163063045434c560e41b613dee565b600d546040516321f8a72160e01b81526001600160a01b03909116906321f8a72190613afb906c4759524f5f545245415355525960981b906004016148ea565b60206040518083038186803b158015613b1357600080fd5b505afa158015613b27573d6000803e3d6000fd5b505050506040513d601f19601f82011682018060405250810190613b4b9190614222565b600d546040516321f8a72160e01b81526001600160a01b03909116906321f8a72190613b8a906b42414c5f545245415355525960a01b906004016148ea565b60206040518083038186803b158015613ba257600080fd5b505afa158015613bb6573d6000803e3d6000fd5b505050506040513d601f19601f82011682018060405250810190613bda9190614222565b935093509350935090919293565b600080868611613bfd57506000905080613c79565b6000613c1d85613c17613c108a8c612c4d565b89906133e4565b906133e4565b90506000613c35613c2e898b612c4d565b87906133e4565b90506000613c438983612c4d565b90506000613c51848361220f565b90506000613c5f88836133e4565b90506000613c6d8383612c4d565b91975090955050505050505b9550959350505050565b6000818060200190516040811015613c9a57600080fd5b506020015192915050565b6060835167ffffffffffffffff81118015613cbf57600080fd5b50604051908082528060200260200182016040528015613ce9578160200160208202803683370190505b50905060005b845181101561159b57613d0c83610a7f86888581518110612fff57fe5b828281518110613d1857fe5b6020908102919091010152600101613cef565b6060835167ffffffffffffffff81118015613d4557600080fd5b50604051908082528060200260200182016040528015613d6f578160200160208202803683370190505b50905060005b845181101561159b57613da8836133a486888581518110613d9257fe5b6020026020010151612bf890919063ffffffff16565b828281518110613db457fe5b6020908102919091010152600101613d75565b6000612b4a847550524f544f434f4c5f535741505f4645455f5045524360501b8486613e18565b6000612b4a847f50524f544f434f4c5f4645455f4759524f5f504f5254494f4e0000000000000084865b6040805160208082018690526001600160a01b03808516838501528351808403850181526060840180865281519184019190912063696eb37560e01b909152606484018190529351600094939189169263696eb3759260848082019391829003018186803b158015613e8957600080fd5b505afa158015613e9d573d6000803e3d6000fd5b505050506040513d6020811015613eb357600080fd5b505115613f3357856001600160a01b031663bd02d0f5826040518263ffffffff1660e01b81526004018082815260200191505060206040518083038186803b158015613efe57600080fd5b505afa158015613f12573d6000803e3d6000fd5b505050506040513d6020811015613f2857600080fd5b50519150612b4a9050565b6040805160208082018890528183018790528251808303840181526060830180855281519183019190912063696eb37560e01b9091526064830181905292516001600160a01b038a169263696eb375926084808301939192829003018186803b158015613f9f57600080fd5b505afa158015613fb3573d6000803e3d6000fd5b505050506040513d6020811015613fc957600080fd5b50511561404a57866001600160a01b031663bd02d0f5826040518263ffffffff1660e01b81526004018082815260200191505060206040518083038186803b15801561401457600080fd5b505afa158015614028573d6000803e3d6000fd5b505050506040513d602081101561403e57600080fd5b50519250612b4a915050565b866001600160a01b031663bd02d0f5876040518263ffffffff1660e01b81526004018082815260200191505060206040518083038186803b15801561408e57600080fd5b505afa1580156140a2573d6000803e3d6000fd5b505050506040513d60208110156140b857600080fd5b5051979650505050505050565b604080516060810182526000808252602082018190529181019190915290565b6040518060a0016040528060008152602001600081526020016000815260200160008152602001600081525090565b6040518060e0016040528061412761415d565b815260200161413461415d565b815260200160008152602001600081526020016000815260200160008152602001600081525090565b604051806040016040528060008152602001600081525090565b8035610c5381614aae565b80358015158114610c5357600080fd5b600082601f8301126141a2578081fd5b813567ffffffffffffffff8111156141b657fe5b6141c9601f8201601f1916602001614a8a565b8181528460208386010111156141dd578283fd5b816020850160208301379081016020019190915292915050565b803560028110610c5357600080fd5b600060208284031215614217578081fd5b81356107bd81614aae565b600060208284031215614233578081fd5b81516107bd81614aae565b60008060408385031215614250578081fd5b823561425b81614aae565b9150602083013561426b81614aae565b809150509250929050565b60008060006060848603121561428a578081fd5b833561429581614aae565b925060208401356142a581614aae565b929592945050506040919091013590565b600080600080600080600060e0888a0312156142d0578283fd5b87356142db81614aae565b965060208801356142eb81614aae565b95506040880135945060608801359350608088013560ff8116811461430e578384fd5b9699959850939692959460a0840135945060c09093013592915050565b6000806040838503121561433d578182fd5b823561434881614aae565b946020939093013593505050565b600060208284031215614367578081fd5b6107bd82614182565b600080600080600080600060e0888a03121561438a578081fd5b87359650602088013561439c81614aae565b955060408801356143ac81614aae565b9450606088013567ffffffffffffffff808211156143c8578283fd5b818a0191508a601f8301126143db578283fd5b8135818111156143e757fe5b602081026143f760208201614a8a565b80838252602082019150602086018f6020858901011115614416578788fd5b8796505b848710156144395780358352600196909601956020928301920161441a565b50985050505060808a0135945060a08a0135935060c08a0135915080821115614460578283fd5b5061446d8a828b01614192565b91505092959891949750929550565b60006020828403121561448d578081fd5b81356001600160e01b0319811681146107bd578182fd5b600080604083850312156144b6578182fd5b505080516020909101519092909150565b6000606082840312156144d8578081fd5b6040516060810181811067ffffffffffffffff821117156144f557fe5b60405261450183614182565b815260208301356001600160781b038116811461451c578283fd5b602082015260408301356001600160801b038116811461453a578283fd5b60408201529392505050565b60008060006060848603121561455a578081fd5b833567ffffffffffffffff80821115614571578283fd5b8186019150610120808389031215614587578384fd5b61459081614a8a565b905061459b836141f7565b81526145a960208401614177565b60208201526145ba60408401614177565b6040820152606083013560608201526080830135608082015260a083013560a08201526145e960c08401614177565b60c08201526145fa60e08401614177565b60e08201526101008084013583811115614612578586fd5b61461e8a828701614192565b9183019190915250976020870135975060409096013595945050505050565b60006020828403121561464e578081fd5b5035919050565b600060208284031215614666578081fd5b5051919050565b60008060008060808587031215614682578182fd5b84519350602085015192506040850151915060608501516146a281614aae565b939692955090935050565b6000815180845260208085019450808401835b838110156146dc578151875295820195908201906001016146c0565b509495945050505050565b6146f282825161476c565b6020810151614704604084018261476c565b5060408101516080830152606081015160a0830152608081015160c083015260a081015160e083015260c08101516101008301525050565b80518252602081015160208301526040810151604083015260608101516060830152608081015160808301525050565b80518252602090810151910152565b6000828483379101908152919050565b6001600160a01b0391909116815260200190565b6000602082526107bd60208301846146ad565b6000604082526147c560408301856146ad565b828103602084015261282981856146ad565b60006101e08083526147eb818401876146ad565b9150506147fb602083018561473c565b612b4a60c08301846146e7565b600061020080835261481c818401886146ad565b91505061482c602083018661473c565b61483960c08301856146e7565b826101e083015295945050505050565b60006080825261485c60808301866146ad565b905061486b602083018561476c565b826060830152949350505050565b600061026080835261488d8184018a6146ad565b91505086602083015285151560408301526148ab606083018661473c565b6148b96101008301856146e7565b612cfb61022083018461476c565b901515815260200190565b92151583526020830191909152604082015260600190565b90815260200190565b9182526001600160a01b0316602082015260400190565b9586526020860194909452604085019290925260608401521515608083015260a082015260c00190565b6000602080835283518082850152825b8181101561496057858101830151858201604001528201614944565b818111156149715783604083870101525b50601f01601f1916929092016040019392505050565b8151151581526020808301516001600160781b0316908201526040918201516001600160801b03169181019190915260600190565b905460ff811615158252600881901c6001600160781b0316602083015260801c604082015260600190565b6101c081016149f6828561473c565b614a0460a08301845161476c565b6020830151614a1660e084018261476c565b5060408301516101208301526060830151610140830152608083015161016083015260a083015161018083015260c08301516101a08301529392505050565b600083825260406020830152612b4a60408301846146ad565b918252602082015260400190565b60ff91909116815260200190565b60405181810167ffffffffffffffff81118282101715614aa657fe5b604052919050565b6001600160a01b038116811461071c57600080fdfe53616665436173743a2076616c756520646f65736e27742066697420696e20616e20696e74323536a2646970667358221220999fef009da62723b072b897f17d92e552b561930adc5b825699c76d9b823e5a64736f6c63430007060033","language":"Solidity","natspec":{"kind":"dev","methods":{"DOMAIN_SEPARATOR()":{"details":"See {IERC20Permit-DOMAIN_SEPARATOR}."},"allowance(address,address)":{"details":"Override to grant the Vault infinite allowance, causing for Pool Tokens to not require approval. This is sound as the Vault already provides authorization mechanisms when initiation token transfers, which this contract inherits."},"approve(address,uint256)":{"details":"See {IERC20-approve}. Requirements: - `spender` cannot be the zero address."},"balanceOf(address)":{"details":"See {IERC20-balanceOf}."},"changePauseManager(address)":{"notice":"Changes the account that is allowed to pause a pool."},"decimals()":{"details":"Returns the number of decimals used to get its user representation. For example, if `decimals` equals `2`, a balance of `505` tokens should be displayed to a user as `5,05` (`505 / 10 ** 2`). Tokens usually opt for a value of 18, imitating the relationship between Ether and Wei. This is the value {ERC20} uses, unless {_setupDecimals} is called. NOTE: This information is only used for _display_ purposes: it in no way affects any of the arithmetic of the contract, including {IERC20-balanceOf} and {IERC20-transfer}."},"decreaseAllowance(address,uint256)":{"details":"Override to allow decreasing allowance by more than the current amount (setting it to zero)"},"getActionId(bytes4)":{"details":"Returns the action identifier associated with the external function described by `selector`."},"getInvariant()":{"details":"Returns the current value of the invariant. Note: This function is not used internally; it's public, not external, so we can override it cleanly."},"getMiscData()":{"details":"Only `swapFeePercentage` is non-trivial; everything else is 0/false because the oracle is not used. These variables are returned to keep the call signature compatible."},"getPausedState()":{"details":"Returns the current contract pause status, as well as the end times of the Pause Window and Buffer Period."},"getPrice()":{"notice":"Returns the current spot price of token0 quoted in units of token1. When rateProvider{0,1} is provided, the returned price corresponds to tokens *before* rate scaling."},"getRate()":{"details":"This function returns the appreciation of one BPT relative to the underlying tokens. This starts at 1 when the pool is created and grows over time"},"getTokenRates()":{"notice":"Convenience function to fetch the two rates used for scaling the two tokens, as of rateProvider{0,1}. Note that these rates do *not* contain scaling to account for differences in the number of decimals. The rates themselves are always 18-decimals."},"increaseAllowance(address,uint256)":{"details":"Atomically increases the allowance granted to `spender` by the caller. This is an alternative to {approve} that can be used as a mitigation for problems described in {IERC20-approve}. Emits an {Approval} event indicating the updated allowance. Requirements: - `spender` cannot be the zero address."},"name()":{"details":"Returns the name of the token."},"nonces(address)":{"details":"See {IERC20Permit-nonces}."},"onExitPool(bytes32,address,address,uint256[],uint256,uint256,bytes)":{"details":"Called by the Vault when a user calls `IVault.exitPool` to remove liquidity from this Pool. Returns how many tokens the Vault should deduct from the Pool's balances, as well as the amount of protocol fees the Pool owes to the Vault. The Vault will then take tokens from the Pool's balances and send them to `recipient`, as well as collect the reported amount in protocol fees, which the Pool should calculate based on `protocolSwapFeePercentage`. Protocol fees are charged on exit events to guarantee that users exiting the Pool have paid their share. `sender` is the account performing the exit (typically the pool shareholder), and `recipient` is the account to which the Vault will send the proceeds. `balances` contains the total token balances for each token the Pool registered in the Vault, in the same order that `IVault.getPoolTokens` would return. `lastChangeBlock` is the last block in which *any* of the Pool's registered tokens last changed its total balance. `userData` contains any pool-specific instructions needed to perform the calculations, such as the type of exit (e.g., proportional given an amount of pool shares, single-asset, multi-asset, etc.) Contracts implementing this function should check that the caller is indeed the Vault before performing any state-changing operations, such as burning pool shares."},"onJoinPool(bytes32,address,address,uint256[],uint256,uint256,bytes)":{"details":"Called by the Vault when a user calls `IVault.joinPool` to add liquidity to this Pool. Returns how many of each registered token the user should provide, as well as the amount of protocol fees the Pool owes to the Vault. The Vault will then take tokens from `sender` and add them to the Pool's balances, as well as collect the reported amount in protocol fees, which the pool should calculate based on `protocolSwapFeePercentage`. Protocol fees are reported and charged on join events so that the Pool is free of debt whenever new users join. `sender` is the account performing the join (from which tokens will be withdrawn), and `recipient` is the account designated to receive any benefits (typically pool shares). `balances` contains the total balances for each token the Pool registered in the Vault, in the same order that `IVault.getPoolTokens` would return. `lastChangeBlock` is the last block in which *any* of the Pool's registered tokens last changed its total balance. `userData` contains any pool-specific instructions needed to perform the calculations, such as the type of join (e.g., proportional given an amount of pool shares, single-asset, multi-asset, etc.) Contracts implementing this function should check that the caller is indeed the Vault before performing any state-changing operations, such as minting pool shares."},"pause()":{"notice":"Pauses the pool. Can only be called by the pause manager."},"permit(address,address,uint256,uint256,uint8,bytes32,bytes32)":{"details":"See {IERC20Permit-permit}."},"queryExit(bytes32,address,address,uint256[],uint256,uint256,bytes)":{"details":"Returns the amount of BPT that would be burned from `sender` if the `onExitPool` hook were called by the Vault with the same arguments, along with the number of tokens `recipient` would receive. This function is not meant to be called directly, but rather from a helper contract that fetches current Vault data, such as the protocol swap fee percentage and Pool balances. Like `IVault.queryBatchSwap`, this function is not view due to internal implementation details: the caller must explicitly use eth_call instead of eth_sendTransaction."},"queryJoin(bytes32,address,address,uint256[],uint256,uint256,bytes)":{"details":"Returns the amount of BPT that would be granted to `recipient` if the `onJoinPool` hook were called by the Vault with the same arguments, along with the number of tokens `sender` would have to supply. This function is not meant to be called directly, but rather from a helper contract that fetches current Vault data, such as the protocol swap fee percentage and Pool balances. Like `IVault.queryBatchSwap`, this function is not view due to internal implementation details: the caller must explicitly use eth_call instead of eth_sendTransaction."},"symbol()":{"details":"Returns the symbol of the token, usually a shorter version of the name."},"totalSupply()":{"details":"See {IERC20-totalSupply}."},"transfer(address,uint256)":{"details":"See {IERC20-transfer}. Requirements: - `recipient` cannot be the zero address. - the caller must have a balance of at least `amount`."},"transferFrom(address,address,uint256)":{"details":"Override to allow for 'infinite allowance' and let the token owner use `transferFrom` with no self-allowance"},"unpause()":{"notice":"Unpauses the pool. Can only be called by the pause manager."}},"stateVariables":{"_paramsAlpha":{"details":"Parameters of the ECLP pool"},"rateProvider0":{"details":"for rate scaling"}},"version":1},"opcodes":"PUSH1 0x80 PUSH1 0x40 MSTORE CALLVALUE DUP1 ISZERO PUSH2 0x10 JUMPI PUSH1 0x0 DUP1 REVERT JUMPDEST POP PUSH1 0x4 CALLDATASIZE LT PUSH2 0x295 JUMPI PUSH1 0x0 CALLDATALOAD PUSH1 0xE0 SHR DUP1 PUSH4 0x74F3B009 GT PUSH2 0x167 JUMPI DUP1 PUSH4 0x98D5FDCA GT PUSH2 0xCE JUMPI DUP1 PUSH4 0xABD13AFE GT PUSH2 0x87 JUMPI DUP1 PUSH4 0xABD13AFE EQ PUSH2 0x54F JUMPI DUP1 PUSH4 0xC0FF1A15 EQ PUSH2 0x557 JUMPI DUP1 PUSH4 0xD505ACCF EQ PUSH2 0x55F JUMPI DUP1 PUSH4 0xD5C096C4 EQ PUSH2 0x572 JUMPI DUP1 PUSH4 0xDD62ED3E EQ PUSH2 0x585 JUMPI DUP1 PUSH4 0xF89F27ED EQ PUSH2 0x598 JUMPI PUSH2 0x295 JUMP JUMPDEST DUP1 PUSH4 0x98D5FDCA EQ PUSH2 0x4FE JUMPI DUP1 PUSH4 0x9B02CDDE EQ PUSH2 0x506 JUMPI DUP1 PUSH4 0x9D2C110C EQ PUSH2 0x50E JUMPI DUP1 PUSH4 0xA457C2D7 EQ PUSH2 0x521 JUMPI DUP1 PUSH4 0xA9059CBB EQ PUSH2 0x534 JUMPI DUP1 PUSH4 0xAAABADC5 EQ PUSH2 0x547 JUMPI PUSH2 0x295 JUMP JUMPDEST DUP1 PUSH4 0x8456CB59 GT PUSH2 0x120 JUMPI DUP1 PUSH4 0x8456CB59 EQ PUSH2 0x4B8 JUMPI DUP1 PUSH4 0x851C1BB3 EQ PUSH2 0x4C0 JUMPI DUP1 PUSH4 0x87EC6817 EQ PUSH2 0x4D3 JUMPI DUP1 PUSH4 0x893D20E8 EQ PUSH2 0x4E6 JUMPI DUP1 PUSH4 0x8D928AF8 EQ PUSH2 0x4EE JUMPI DUP1 PUSH4 0x95D89B41 EQ PUSH2 0x4F6 JUMPI PUSH2 0x295 JUMP JUMPDEST DUP1 PUSH4 0x74F3B009 EQ PUSH2 0x440 JUMPI DUP1 PUSH4 0x76E54A46 EQ PUSH2 0x461 JUMPI DUP1 PUSH4 0x7BE219A2 EQ PUSH2 0x474 JUMPI DUP1 PUSH4 0x7ECEBE00 EQ PUSH2 0x48A JUMPI DUP1 PUSH4 0x8002DF18 EQ PUSH2 0x49D JUMPI DUP1 PUSH4 0x828A7C34 EQ PUSH2 0x4B0 JUMPI PUSH2 0x295 JUMP JUMPDEST DUP1 PUSH4 0x39509351 GT PUSH2 0x20B JUMPI DUP1 PUSH4 0x6028BFD4 GT PUSH2 0x1C4 JUMPI DUP1 PUSH4 0x6028BFD4 EQ PUSH2 0x3DE JUMPI DUP1 PUSH4 0x62CED092 EQ PUSH2 0x3FF JUMPI DUP1 PUSH4 0x679AEFCE EQ PUSH2 0x407 JUMPI DUP1 PUSH4 0x6D785A87 EQ PUSH2 0x40F JUMPI DUP1 PUSH4 0x702EC091 EQ PUSH2 0x417 JUMPI DUP1 PUSH4 0x70A08231 EQ PUSH2 0x42D JUMPI PUSH2 0x295 JUMP JUMPDEST DUP1 PUSH4 0x39509351 EQ PUSH2 0x377 JUMPI DUP1 PUSH4 0x3AEAE0D3 EQ PUSH2 0x38A JUMPI DUP1 PUSH4 0x3F4BA83A EQ PUSH2 0x39F JUMPI DUP1 PUSH4 0x44BBDB55 EQ PUSH2 0x3A7 JUMPI DUP1 PUSH4 0x4A6B0B15 EQ PUSH2 0x3BC JUMPI DUP1 PUSH4 0x55C67628 EQ PUSH2 0x3D6 JUMPI PUSH2 0x295 JUMP JUMPDEST DUP1 PUSH4 0x1C0DE051 GT PUSH2 0x25D JUMPI DUP1 PUSH4 0x1C0DE051 EQ PUSH2 0x315 JUMPI DUP1 PUSH4 0x23B872DD EQ PUSH2 0x32C JUMPI DUP1 PUSH4 0x313CE567 EQ PUSH2 0x33F JUMPI DUP1 PUSH4 0x3644E515 EQ PUSH2 0x354 JUMPI DUP1 PUSH4 0x38E9922E EQ PUSH2 0x35C JUMPI DUP1 PUSH4 0x38FFF2D0 EQ PUSH2 0x36F JUMPI PUSH2 0x295 JUMP JUMPDEST DUP1 PUSH4 0x6FDDE03 EQ PUSH2 0x29A JUMPI DUP1 PUSH4 0x95EA7B3 EQ PUSH2 0x2B8 JUMPI DUP1 PUSH4 0xE608B30 EQ PUSH2 0x2D8 JUMPI DUP1 PUSH4 0x16C38B3C EQ PUSH2 0x2ED JUMPI DUP1 PUSH4 0x18160DDD EQ PUSH2 0x300 JUMPI JUMPDEST PUSH1 0x0 DUP1 REVERT JUMPDEST PUSH2 0x2A2 PUSH2 0x5AD JUMP JUMPDEST PUSH1 0x40 MLOAD PUSH2 0x2AF SWAP2 SWAP1 PUSH2 0x4934 JUMP JUMPDEST PUSH1 0x40 MLOAD DUP1 SWAP2 SUB SWAP1 RETURN JUMPDEST PUSH2 0x2CB PUSH2 0x2C6 CALLDATASIZE PUSH1 0x4 PUSH2 0x432B JUMP JUMPDEST PUSH2 0x643 JUMP JUMPDEST PUSH1 0x40 MLOAD PUSH2 0x2AF SWAP2 SWAP1 PUSH2 0x48C7 JUMP JUMPDEST PUSH2 0x2EB PUSH2 0x2E6 CALLDATASIZE PUSH1 0x4 PUSH2 0x4206 JUMP JUMPDEST PUSH2 0x65A JUMP JUMPDEST STOP JUMPDEST PUSH2 0x2EB PUSH2 0x2FB CALLDATASIZE PUSH1 0x4 PUSH2 0x4356 JUMP JUMPDEST PUSH2 0x70B JUMP JUMPDEST PUSH2 0x308 PUSH2 0x71F JUMP JUMPDEST PUSH1 0x40 MLOAD PUSH2 0x2AF SWAP2 SWAP1 PUSH2 0x48EA JUMP JUMPDEST PUSH2 0x31D PUSH2 0x725 JUMP JUMPDEST PUSH1 0x40 MLOAD PUSH2 0x2AF SWAP4 SWAP3 SWAP2 SWAP1 PUSH2 0x48D2 JUMP JUMPDEST PUSH2 0x2CB PUSH2 0x33A CALLDATASIZE PUSH1 0x4 PUSH2 0x4276 JUMP JUMPDEST PUSH2 0x74E JUMP JUMPDEST PUSH2 0x347 PUSH2 0x7C4 JUMP JUMPDEST PUSH1 0x40 MLOAD PUSH2 0x2AF SWAP2 SWAP1 PUSH2 0x4A7C JUMP JUMPDEST PUSH2 0x308 PUSH2 0x7CD JUMP JUMPDEST PUSH2 0x2EB PUSH2 0x36A CALLDATASIZE PUSH1 0x4 PUSH2 0x463D JUMP JUMPDEST PUSH2 0x7DC JUMP JUMPDEST PUSH2 0x308 PUSH2 0x7F5 JUMP JUMPDEST PUSH2 0x2CB PUSH2 0x385 CALLDATASIZE PUSH1 0x4 PUSH2 0x432B JUMP JUMPDEST PUSH2 0x819 JUMP JUMPDEST PUSH2 0x392 PUSH2 0x854 JUMP JUMPDEST PUSH1 0x40 MLOAD PUSH2 0x2AF SWAP2 SWAP1 PUSH2 0x4987 JUMP JUMPDEST PUSH2 0x2EB PUSH2 0x89F JUMP JUMPDEST PUSH2 0x3AF PUSH2 0x994 JUMP JUMPDEST PUSH1 0x40 MLOAD PUSH2 0x2AF SWAP2 SWAP1 PUSH2 0x478B JUMP JUMPDEST PUSH2 0x3C4 PUSH2 0x9A3 JUMP JUMPDEST PUSH1 0x40 MLOAD PUSH2 0x2AF SWAP7 SWAP6 SWAP5 SWAP4 SWAP3 SWAP2 SWAP1 PUSH2 0x490A JUMP JUMPDEST PUSH2 0x308 PUSH2 0x9FE JUMP JUMPDEST PUSH2 0x3F1 PUSH2 0x3EC CALLDATASIZE PUSH1 0x4 PUSH2 0x4370 JUMP JUMPDEST PUSH2 0xA0B JUMP JUMPDEST PUSH1 0x40 MLOAD PUSH2 0x2AF SWAP3 SWAP2 SWAP1 PUSH2 0x4A55 JUMP JUMPDEST PUSH2 0x3AF PUSH2 0xA3C JUMP JUMPDEST PUSH2 0x308 PUSH2 0xA60 JUMP JUMPDEST PUSH2 0x3AF PUSH2 0xA85 JUMP JUMPDEST PUSH2 0x41F PUSH2 0xA94 JUMP JUMPDEST PUSH1 0x40 MLOAD PUSH2 0x2AF SWAP3 SWAP2 SWAP1 PUSH2 0x4A6E JUMP JUMPDEST PUSH2 0x308 PUSH2 0x43B CALLDATASIZE PUSH1 0x4 PUSH2 0x4206 JUMP JUMPDEST PUSH2 0xC39 JUMP JUMPDEST PUSH2 0x453 PUSH2 0x44E CALLDATASIZE PUSH1 0x4 PUSH2 0x4370 JUMP JUMPDEST PUSH2 0xC58 JUMP JUMPDEST PUSH1 0x40 MLOAD PUSH2 0x2AF SWAP3 SWAP2 SWAP1 PUSH2 0x47B2 JUMP JUMPDEST PUSH2 0x2EB PUSH2 0x46F CALLDATASIZE PUSH1 0x4 PUSH2 0x44C7 JUMP JUMPDEST PUSH2 0xCE8 JUMP JUMPDEST PUSH2 0x47C PUSH2 0xE0F JUMP JUMPDEST PUSH1 0x40 MLOAD PUSH2 0x2AF SWAP3 SWAP2 SWAP1 PUSH2 0x49E7 JUMP JUMPDEST PUSH2 0x308 PUSH2 0x498 CALLDATASIZE PUSH1 0x4 PUSH2 0x4206 JUMP JUMPDEST PUSH2 0xE2F JUMP JUMPDEST PUSH2 0x2EB PUSH2 0x4AB CALLDATASIZE PUSH1 0x4 PUSH2 0x4206 JUMP JUMPDEST PUSH2 0xE4A JUMP JUMPDEST PUSH2 0x3AF PUSH2 0xF30 JUMP JUMPDEST PUSH2 0x2EB PUSH2 0xF54 JUMP JUMPDEST PUSH2 0x308 PUSH2 0x4CE CALLDATASIZE PUSH1 0x4 PUSH2 0x447C JUMP JUMPDEST PUSH2 0x100C JUMP JUMPDEST PUSH2 0x3F1 PUSH2 0x4E1 CALLDATASIZE PUSH1 0x4 PUSH2 0x4370 JUMP JUMPDEST PUSH2 0x1065 JUMP JUMPDEST PUSH2 0x3AF PUSH2 0x108A JUMP JUMPDEST PUSH2 0x3AF PUSH2 0x10AE JUMP JUMPDEST PUSH2 0x2A2 PUSH2 0x10D2 JUMP JUMPDEST PUSH2 0x308 PUSH2 0x1133 JUMP JUMPDEST PUSH2 0x308 PUSH2 0x11FE JUMP JUMPDEST PUSH2 0x308 PUSH2 0x51C CALLDATASIZE PUSH1 0x4 PUSH2 0x4546 JUMP JUMPDEST PUSH2 0x1204 JUMP JUMPDEST PUSH2 0x2CB PUSH2 0x52F CALLDATASIZE PUSH1 0x4 PUSH2 0x432B JUMP JUMPDEST PUSH2 0x15A3 JUMP JUMPDEST PUSH2 0x2CB PUSH2 0x542 CALLDATASIZE PUSH1 0x4 PUSH2 0x432B JUMP JUMPDEST PUSH2 0x15E1 JUMP JUMPDEST PUSH2 0x3AF PUSH2 0x15EE JUMP JUMPDEST PUSH2 0x3AF PUSH2 0x15F8 JUMP JUMPDEST PUSH2 0x308 PUSH2 0x1607 JUMP JUMPDEST PUSH2 0x2EB PUSH2 0x56D CALLDATASIZE PUSH1 0x4 PUSH2 0x42B6 JUMP JUMPDEST PUSH2 0x16B7 JUMP JUMPDEST PUSH2 0x453 PUSH2 0x580 CALLDATASIZE PUSH1 0x4 PUSH2 0x4370 JUMP JUMPDEST PUSH2 0x1827 JUMP JUMPDEST PUSH2 0x308 PUSH2 0x593 CALLDATASIZE PUSH1 0x4 PUSH2 0x423E JUMP JUMPDEST PUSH2 0x190C JUMP JUMPDEST PUSH2 0x5A0 PUSH2 0x1949 JUMP JUMPDEST PUSH1 0x40 MLOAD PUSH2 0x2AF SWAP2 SWAP1 PUSH2 0x479F JUMP JUMPDEST PUSH1 0x3 DUP1 SLOAD PUSH1 0x40 DUP1 MLOAD PUSH1 0x20 PUSH1 0x1F PUSH1 0x2 PUSH1 0x0 NOT PUSH2 0x100 PUSH1 0x1 DUP9 AND ISZERO MUL ADD SWAP1 SWAP6 AND SWAP5 SWAP1 SWAP5 DIV SWAP4 DUP5 ADD DUP2 SWAP1 DIV DUP2 MUL DUP3 ADD DUP2 ADD SWAP1 SWAP3 MSTORE DUP3 DUP2 MSTORE PUSH1 0x60 SWAP4 SWAP1 SWAP3 SWAP1 SWAP2 DUP4 ADD DUP3 DUP3 DUP1 ISZERO PUSH2 0x639 JUMPI DUP1 PUSH1 0x1F LT PUSH2 0x60E JUMPI PUSH2 0x100 DUP1 DUP4 SLOAD DIV MUL DUP4 MSTORE SWAP2 PUSH1 0x20 ADD SWAP2 PUSH2 0x639 JUMP JUMPDEST DUP3 ADD SWAP2 SWAP1 PUSH1 0x0 MSTORE PUSH1 0x20 PUSH1 0x0 KECCAK256 SWAP1 JUMPDEST DUP2 SLOAD DUP2 MSTORE SWAP1 PUSH1 0x1 ADD SWAP1 PUSH1 0x20 ADD DUP1 DUP4 GT PUSH2 0x61C JUMPI DUP3 SWAP1 SUB PUSH1 0x1F AND DUP3 ADD SWAP2 JUMPDEST POP POP POP POP POP SWAP1 POP SWAP1 JUMP JUMPDEST PUSH1 0x0 PUSH2 0x650 CALLER DUP5 DUP5 PUSH2 0x1ADD JUMP JUMPDEST POP PUSH1 0x1 JUMPDEST SWAP3 SWAP2 POP POP JUMP JUMPDEST PUSH1 0xB SLOAD PUSH1 0x40 DUP1 MLOAD DUP1 DUP3 ADD SWAP1 SWAP2 MSTORE PUSH1 0xE DUP2 MSTORE PUSH14 0x1B9BDD08185D5D1A1BDC9A5E9959 PUSH1 0x92 SHL PUSH1 0x20 DUP3 ADD MSTORE SWAP1 PUSH1 0x1 PUSH1 0x1 PUSH1 0xA0 SHL SUB AND CALLER EQ PUSH2 0x6B4 JUMPI PUSH1 0x40 MLOAD PUSH3 0x461BCD PUSH1 0xE5 SHL DUP2 MSTORE PUSH1 0x4 ADD PUSH2 0x6AB SWAP2 SWAP1 PUSH2 0x4934 JUMP JUMPDEST PUSH1 0x40 MLOAD DUP1 SWAP2 SUB SWAP1 REVERT JUMPDEST POP PUSH1 0xB DUP1 SLOAD PUSH1 0x1 PUSH1 0x1 PUSH1 0xA0 SHL SUB NOT AND PUSH1 0x1 PUSH1 0x1 PUSH1 0xA0 SHL SUB DUP4 AND OR SWAP1 SSTORE PUSH1 0x40 MLOAD PUSH32 0xB8FD9AFC34C38FCD13B9A3B7646482EB1FDDCEFB40AF2C70609972816EBA3208 SWAP1 PUSH2 0x700 SWAP1 DUP4 SWAP1 PUSH2 0x478B JUMP JUMPDEST PUSH1 0x40 MLOAD DUP1 SWAP2 SUB SWAP1 LOG1 POP JUMP JUMPDEST PUSH2 0x713 PUSH2 0x1B3F JUMP JUMPDEST PUSH2 0x71C DUP2 PUSH2 0x1B6D JUMP JUMPDEST POP JUMP JUMPDEST PUSH1 0x2 SLOAD SWAP1 JUMP JUMPDEST PUSH1 0x0 DUP1 PUSH1 0x0 PUSH2 0x732 PUSH2 0x1BE9 JUMP JUMPDEST ISZERO SWAP3 POP PUSH2 0x73D PUSH2 0x1C06 JUMP JUMPDEST SWAP2 POP PUSH2 0x747 PUSH2 0x1C2A JUMP JUMPDEST SWAP1 POP SWAP1 SWAP2 SWAP3 JUMP JUMPDEST PUSH1 0x0 DUP1 PUSH2 0x75B DUP6 CALLER PUSH2 0x190C JUMP JUMPDEST SWAP1 POP PUSH2 0x77F CALLER PUSH1 0x1 PUSH1 0x1 PUSH1 0xA0 SHL SUB DUP8 AND EQ DUP1 PUSH2 0x777 JUMPI POP DUP4 DUP3 LT ISZERO JUMPDEST PUSH2 0x19E PUSH2 0x1C4E JUMP JUMPDEST PUSH2 0x78A DUP6 DUP6 DUP6 PUSH2 0x1C5C JUMP JUMPDEST CALLER PUSH1 0x1 PUSH1 0x1 PUSH1 0xA0 SHL SUB DUP7 AND EQ DUP1 ISZERO SWAP1 PUSH2 0x7A5 JUMPI POP PUSH1 0x0 NOT DUP2 EQ ISZERO JUMPDEST ISZERO PUSH2 0x7B7 JUMPI PUSH2 0x7B7 DUP6 CALLER DUP6 DUP5 SUB PUSH2 0x1ADD JUMP JUMPDEST PUSH1 0x1 SWAP2 POP POP JUMPDEST SWAP4 SWAP3 POP POP POP JUMP JUMPDEST PUSH1 0x5 SLOAD PUSH1 0xFF AND SWAP1 JUMP JUMPDEST PUSH1 0x0 PUSH2 0x7D7 PUSH2 0x1D44 JUMP JUMPDEST SWAP1 POP SWAP1 JUMP JUMPDEST PUSH2 0x7E4 PUSH2 0x1B3F JUMP JUMPDEST PUSH2 0x7EC PUSH2 0x1E02 JUMP JUMPDEST PUSH2 0x71C DUP2 PUSH2 0x1E17 JUMP JUMPDEST PUSH32 0x0 SWAP1 JUMP JUMPDEST CALLER PUSH1 0x0 DUP2 DUP2 MSTORE PUSH1 0x1 PUSH1 0x20 SWAP1 DUP2 MSTORE PUSH1 0x40 DUP1 DUP4 KECCAK256 PUSH1 0x1 PUSH1 0x1 PUSH1 0xA0 SHL SUB DUP8 AND DUP5 MSTORE SWAP1 SWAP2 MSTORE DUP2 KECCAK256 SLOAD SWAP1 SWAP2 PUSH2 0x650 SWAP2 DUP6 SWAP1 PUSH2 0x84F SWAP1 DUP7 PUSH2 0x1E80 JUMP JUMPDEST PUSH2 0x1ADD JUMP JUMPDEST PUSH2 0x85C PUSH2 0x40C5 JUMP JUMPDEST POP PUSH1 0x40 DUP1 MLOAD PUSH1 0x60 DUP2 ADD DUP3 MSTORE PUSH1 0xA SLOAD PUSH1 0xFF DUP2 AND ISZERO ISZERO DUP3 MSTORE PUSH2 0x100 DUP2 DIV PUSH1 0x1 PUSH1 0x1 PUSH1 0x78 SHL SUB AND PUSH1 0x20 DUP4 ADD MSTORE PUSH1 0x1 PUSH1 0x80 SHL SWAP1 DIV PUSH1 0x1 PUSH1 0x1 PUSH1 0x80 SHL SUB AND SWAP2 DUP2 ADD SWAP2 SWAP1 SWAP2 MSTORE SWAP1 JUMP JUMPDEST PUSH1 0xC SLOAD PUSH1 0x40 DUP1 MLOAD DUP1 DUP3 ADD SWAP1 SWAP2 MSTORE PUSH1 0x11 DUP2 MSTORE PUSH17 0x3737BA103830BAB9B29036B0B730B3B2B9 PUSH1 0x79 SHL PUSH1 0x20 DUP3 ADD MSTORE SWAP1 PUSH1 0x1 PUSH1 0x1 PUSH1 0xA0 SHL SUB AND CALLER EQ PUSH2 0x95E JUMPI PUSH1 0x40 MLOAD PUSH3 0x461BCD PUSH1 0xE5 SHL DUP2 MSTORE PUSH1 0x4 ADD DUP1 DUP1 PUSH1 0x20 ADD DUP3 DUP2 SUB DUP3 MSTORE DUP4 DUP2 DUP2 MLOAD DUP2 MSTORE PUSH1 0x20 ADD SWAP2 POP DUP1 MLOAD SWAP1 PUSH1 0x20 ADD SWAP1 DUP1 DUP4 DUP4 PUSH1 0x0 JUMPDEST DUP4 DUP2 LT ISZERO PUSH2 0x923 JUMPI DUP2 DUP2 ADD MLOAD DUP4 DUP3 ADD MSTORE PUSH1 0x20 ADD PUSH2 0x90B JUMP JUMPDEST POP POP POP POP SWAP1 POP SWAP1 DUP2 ADD SWAP1 PUSH1 0x1F AND DUP1 ISZERO PUSH2 0x950 JUMPI DUP1 DUP3 SUB DUP1 MLOAD PUSH1 0x1 DUP4 PUSH1 0x20 SUB PUSH2 0x100 EXP SUB NOT AND DUP2 MSTORE PUSH1 0x20 ADD SWAP2 POP JUMPDEST POP SWAP3 POP POP POP PUSH1 0x40 MLOAD DUP1 SWAP2 SUB SWAP1 REVERT JUMPDEST POP PUSH2 0x969 PUSH1 0x0 PUSH2 0x713 JUMP JUMPDEST PUSH1 0x40 MLOAD PUSH32 0x215385C8BFC731925EC8068D7BAA50F6B6F34417CC7804F7273DC2C0B3DB2790 SWAP1 PUSH1 0x0 SWAP1 LOG1 JUMP JUMPDEST PUSH1 0xD SLOAD PUSH1 0x1 PUSH1 0x1 PUSH1 0xA0 SHL SUB AND DUP2 JUMP JUMPDEST PUSH1 0x0 DUP1 PUSH1 0x0 DUP1 PUSH1 0x0 DUP1 PUSH1 0x0 PUSH1 0x8 SLOAD SWAP1 POP PUSH2 0x9BC DUP2 PUSH2 0x1E92 JUMP JUMPDEST SWAP7 POP PUSH2 0x9C7 DUP2 PUSH2 0x1E9E JUMP JUMPDEST SWAP6 POP PUSH2 0x9D2 DUP2 PUSH2 0x1EAB JUMP JUMPDEST SWAP5 POP PUSH2 0x9DD DUP2 PUSH2 0x1EB8 JUMP JUMPDEST SWAP4 POP PUSH2 0x9E8 DUP2 PUSH2 0x1EC5 JUMP JUMPDEST SWAP3 POP PUSH2 0x9F3 DUP2 PUSH2 0x1ED2 JUMP JUMPDEST SWAP2 POP POP SWAP1 SWAP2 SWAP3 SWAP4 SWAP5 SWAP6 JUMP JUMPDEST PUSH1 0x0 PUSH2 0x7D7 PUSH1 0x8 SLOAD PUSH2 0x1ED2 JUMP JUMPDEST PUSH1 0x0 PUSH1 0x60 PUSH2 0xA1B DUP7 MLOAD PUSH1 0x2 PUSH2 0x1EDF JUMP JUMPDEST PUSH2 0xA30 DUP10 DUP10 DUP10 DUP10 DUP10 DUP10 DUP10 PUSH2 0x1EEC PUSH2 0x205A PUSH2 0x20D8 JUMP JUMPDEST SWAP8 POP SWAP8 SWAP6 POP POP POP POP POP POP JUMP JUMPDEST PUSH32 0x0 DUP2 JUMP JUMPDEST PUSH1 0x0 PUSH2 0x7D7 PUSH2 0xA6D PUSH2 0x71F JUMP JUMPDEST PUSH2 0xA7F PUSH2 0xA78 PUSH2 0x1607 JUMP JUMPDEST PUSH1 0x2 PUSH2 0x21EB JUMP JUMPDEST SWAP1 PUSH2 0x220F JUMP JUMPDEST PUSH1 0xB SLOAD PUSH1 0x1 PUSH1 0x1 PUSH1 0xA0 SHL SUB AND DUP2 JUMP JUMPDEST PUSH1 0x0 DUP1 PUSH32 0x0 PUSH1 0x1 PUSH1 0x1 PUSH1 0xA0 SHL SUB AND PUSH2 0xAD3 JUMPI PUSH8 0xDE0B6B3A7640000 PUSH2 0xB64 JUMP JUMPDEST PUSH32 0x0 PUSH1 0x1 PUSH1 0x1 PUSH1 0xA0 SHL SUB AND PUSH4 0x679AEFCE PUSH1 0x40 MLOAD DUP2 PUSH4 0xFFFFFFFF AND PUSH1 0xE0 SHL DUP2 MSTORE PUSH1 0x4 ADD PUSH1 0x20 PUSH1 0x40 MLOAD DUP1 DUP4 SUB DUP2 DUP7 DUP1 EXTCODESIZE ISZERO DUP1 ISZERO PUSH2 0xB2C JUMPI PUSH1 0x0 DUP1 REVERT JUMPDEST POP GAS STATICCALL ISZERO DUP1 ISZERO PUSH2 0xB40 JUMPI RETURNDATASIZE PUSH1 0x0 DUP1 RETURNDATACOPY RETURNDATASIZE PUSH1 0x0 REVERT JUMPDEST POP POP POP POP PUSH1 0x40 MLOAD RETURNDATASIZE PUSH1 0x1F NOT PUSH1 0x1F DUP3 ADD AND DUP3 ADD DUP1 PUSH1 0x40 MSTORE POP DUP2 ADD SWAP1 PUSH2 0xB64 SWAP2 SWAP1 PUSH2 0x4655 JUMP JUMPDEST SWAP2 POP PUSH32 0x0 PUSH1 0x1 PUSH1 0x1 PUSH1 0xA0 SHL SUB AND PUSH2 0xBA2 JUMPI PUSH8 0xDE0B6B3A7640000 PUSH2 0xC33 JUMP JUMPDEST PUSH32 0x0 PUSH1 0x1 PUSH1 0x1 PUSH1 0xA0 SHL SUB AND PUSH4 0x679AEFCE PUSH1 0x40 MLOAD DUP2 PUSH4 0xFFFFFFFF AND PUSH1 0xE0 SHL DUP2 MSTORE PUSH1 0x4 ADD PUSH1 0x20 PUSH1 0x40 MLOAD DUP1 DUP4 SUB DUP2 DUP7 DUP1 EXTCODESIZE ISZERO DUP1 ISZERO PUSH2 0xBFB JUMPI PUSH1 0x0 DUP1 REVERT JUMPDEST POP GAS STATICCALL ISZERO DUP1 ISZERO PUSH2 0xC0F JUMPI RETURNDATASIZE PUSH1 0x0 DUP1 RETURNDATACOPY RETURNDATASIZE PUSH1 0x0 REVERT JUMPDEST POP POP POP POP PUSH1 0x40 MLOAD RETURNDATASIZE PUSH1 0x1F NOT PUSH1 0x1F DUP3 ADD AND DUP3 ADD DUP1 PUSH1 0x40 MSTORE POP DUP2 ADD SWAP1 PUSH2 0xC33 SWAP2 SWAP1 PUSH2 0x4655 JUMP JUMPDEST SWAP1 POP SWAP1 SWAP2 JUMP JUMPDEST PUSH1 0x1 PUSH1 0x1 PUSH1 0xA0 SHL SUB DUP2 AND PUSH1 0x0 SWAP1 DUP2 MSTORE PUSH1 0x20 DUP2 SWAP1 MSTORE PUSH1 0x40 SWAP1 KECCAK256 SLOAD JUMPDEST SWAP2 SWAP1 POP JUMP JUMPDEST PUSH1 0x60 DUP1 DUP9 PUSH2 0xC82 PUSH2 0xC67 PUSH2 0x10AE JUMP JUMPDEST PUSH1 0x1 PUSH1 0x1 PUSH1 0xA0 SHL SUB AND CALLER PUSH1 0x1 PUSH1 0x1 PUSH1 0xA0 SHL SUB AND EQ PUSH1 0xCD PUSH2 0x1C4E JUMP JUMPDEST PUSH2 0xC97 PUSH2 0xC8D PUSH2 0x7F5 JUMP JUMPDEST DUP3 EQ PUSH2 0x1F4 PUSH2 0x1C4E JUMP JUMPDEST PUSH2 0xCA0 DUP8 PUSH2 0x2269 JUMP JUMPDEST PUSH1 0x0 DUP1 PUSH1 0x0 PUSH2 0xCB4 DUP14 DUP14 DUP14 DUP14 DUP14 DUP14 DUP14 PUSH2 0x1EEC JUMP JUMPDEST SWAP3 POP SWAP3 POP SWAP3 POP PUSH2 0xCC4 DUP13 DUP5 PUSH2 0x22CB JUMP JUMPDEST PUSH2 0xCCD DUP3 PUSH2 0x205A JUMP JUMPDEST PUSH2 0xCD6 DUP2 PUSH2 0x205A JUMP JUMPDEST SWAP1 SWAP13 SWAP1 SWAP12 POP SWAP10 POP POP POP POP POP POP POP POP POP POP JUMP JUMPDEST PUSH1 0xB SLOAD PUSH1 0x40 DUP1 MLOAD DUP1 DUP3 ADD SWAP1 SWAP2 MSTORE PUSH1 0xE DUP2 MSTORE PUSH14 0x1B9BDD08185D5D1A1BDC9A5E9959 PUSH1 0x92 SHL PUSH1 0x20 DUP3 ADD MSTORE SWAP1 PUSH1 0x1 PUSH1 0x1 PUSH1 0xA0 SHL SUB AND CALLER EQ PUSH2 0xD39 JUMPI PUSH1 0x40 MLOAD PUSH3 0x461BCD PUSH1 0xE5 SHL DUP2 MSTORE PUSH1 0x4 ADD PUSH2 0x6AB SWAP2 SWAP1 PUSH2 0x4934 JUMP JUMPDEST POP PUSH1 0xA SLOAD PUSH1 0x40 DUP1 MLOAD DUP1 DUP3 ADD SWAP1 SWAP2 MSTORE PUSH1 0x10 DUP2 MSTORE PUSH16 0x1C1BDBDB081A5CC81D5B98D85C1C1959 PUSH1 0x82 SHL PUSH1 0x20 DUP3 ADD MSTORE SWAP1 PUSH1 0xFF AND PUSH2 0xD85 JUMPI PUSH1 0x40 MLOAD PUSH3 0x461BCD PUSH1 0xE5 SHL DUP2 MSTORE PUSH1 0x4 ADD PUSH2 0x6AB SWAP2 SWAP1 PUSH2 0x4934 JUMP JUMPDEST POP DUP1 MLOAD PUSH1 0xA DUP1 SLOAD PUSH1 0x20 DUP5 ADD MLOAD PUSH1 0x40 DUP1 DUP7 ADD MLOAD PUSH1 0xFF NOT SWAP1 SWAP4 AND SWAP5 ISZERO ISZERO SWAP5 SWAP1 SWAP5 OR PUSH16 0xFFFFFFFFFFFFFFFFFFFFFFFFFFFFFF00 NOT AND PUSH2 0x100 PUSH1 0x1 PUSH1 0x1 PUSH1 0x78 SHL SUB SWAP1 SWAP3 AND SWAP2 SWAP1 SWAP2 MUL OR PUSH1 0x1 PUSH1 0x1 PUSH1 0x80 SHL SUB SWAP1 DUP2 AND PUSH1 0x1 PUSH1 0x80 SHL SWAP2 SWAP1 SWAP3 AND MUL OR DUP2 SSTORE SWAP1 MLOAD PUSH32 0x2ABF5970D7BC1A2B36EAAE52DD2CC353EDB0337C7284EF8A01973081B4E04424 SWAP2 PUSH2 0x700 SWAP2 PUSH2 0x49BC JUMP JUMPDEST PUSH2 0xE17 PUSH2 0x40E5 JUMP JUMPDEST PUSH2 0xE1F PUSH2 0x4114 JUMP JUMPDEST PUSH2 0xE27 PUSH2 0x22D5 JUMP JUMPDEST SWAP2 POP SWAP2 POP SWAP1 SWAP2 JUMP JUMPDEST PUSH1 0x1 PUSH1 0x1 PUSH1 0xA0 SHL SUB AND PUSH1 0x0 SWAP1 DUP2 MSTORE PUSH1 0x6 PUSH1 0x20 MSTORE PUSH1 0x40 SWAP1 KECCAK256 SLOAD SWAP1 JUMP JUMPDEST PUSH1 0xC SLOAD PUSH1 0x40 DUP1 MLOAD DUP1 DUP3 ADD SWAP1 SWAP2 MSTORE PUSH1 0x11 DUP2 MSTORE PUSH17 0x3737BA103830BAB9B29036B0B730B3B2B9 PUSH1 0x79 SHL PUSH1 0x20 DUP3 ADD MSTORE PUSH1 0x1 PUSH1 0x1 PUSH1 0xA0 SHL SUB SWAP1 SWAP2 AND SWAP1 CALLER DUP3 EQ PUSH2 0xECF JUMPI PUSH1 0x40 MLOAD PUSH3 0x461BCD PUSH1 0xE5 SHL DUP2 MSTORE PUSH1 0x20 PUSH1 0x4 DUP3 ADD DUP2 DUP2 MSTORE DUP4 MLOAD PUSH1 0x24 DUP5 ADD MSTORE DUP4 MLOAD SWAP1 SWAP3 DUP4 SWAP3 PUSH1 0x44 SWAP1 SWAP2 ADD SWAP2 SWAP1 DUP6 ADD SWAP1 DUP1 DUP4 DUP4 PUSH1 0x0 DUP4 ISZERO PUSH2 0x923 JUMPI DUP2 DUP2 ADD MLOAD DUP4 DUP3 ADD MSTORE PUSH1 0x20 ADD PUSH2 0x90B JUMP JUMPDEST POP PUSH1 0xC DUP1 SLOAD PUSH1 0x1 PUSH1 0x1 PUSH1 0xA0 SHL SUB NOT AND PUSH1 0x1 PUSH1 0x1 PUSH1 0xA0 SHL SUB DUP5 DUP2 AND SWAP2 DUP3 OR SWAP1 SWAP3 SSTORE PUSH1 0x40 DUP1 MLOAD SWAP3 DUP5 AND DUP4 MSTORE PUSH1 0x20 DUP4 ADD SWAP2 SWAP1 SWAP2 MSTORE DUP1 MLOAD PUSH32 0x1FFCCD1FA96F4FB3415DF8048A0FD107344E262D2D246C85105E2A3F8F3E8198 SWAP3 DUP2 SWAP1 SUB SWAP1 SWAP2 ADD SWAP1 LOG1 POP POP JUMP JUMPDEST PUSH32 0x0 DUP2 JUMP JUMPDEST PUSH1 0xC SLOAD PUSH1 0x40 DUP1 MLOAD DUP1 DUP3 ADD SWAP1 SWAP2 MSTORE PUSH1 0x11 DUP2 MSTORE PUSH17 0x3737BA103830BAB9B29036B0B730B3B2B9 PUSH1 0x79 SHL PUSH1 0x20 DUP3 ADD MSTORE SWAP1 PUSH1 0x1 PUSH1 0x1 PUSH1 0xA0 SHL SUB AND CALLER EQ PUSH2 0xFD6 JUMPI PUSH1 0x40 MLOAD PUSH3 0x461BCD PUSH1 0xE5 SHL DUP2 MSTORE PUSH1 0x20 PUSH1 0x4 DUP3 ADD DUP2 DUP2 MSTORE DUP4 MLOAD PUSH1 0x24 DUP5 ADD MSTORE DUP4 MLOAD SWAP1 SWAP3 DUP4 SWAP3 PUSH1 0x44 SWAP1 SWAP2 ADD SWAP2 SWAP1 DUP6 ADD SWAP1 DUP1 DUP4 DUP4 PUSH1 0x0 DUP4 ISZERO PUSH2 0x923 JUMPI DUP2 DUP2 ADD MLOAD DUP4 DUP3 ADD MSTORE PUSH1 0x20 ADD PUSH2 0x90B JUMP JUMPDEST POP PUSH2 0xFE1 PUSH1 0x1 PUSH2 0x713 JUMP JUMPDEST PUSH1 0x40 MLOAD PUSH32 0x681EACE576127D0553B224436A09801FB47D042942CBFF59D7D4FF04D8FA03D7 SWAP1 PUSH1 0x0 SWAP1 LOG1 JUMP JUMPDEST PUSH1 0x40 DUP1 MLOAD PUSH32 0x0 PUSH1 0x20 DUP1 DUP4 ADD SWAP2 SWAP1 SWAP2 MSTORE PUSH1 0x1 PUSH1 0x1 PUSH1 0xE0 SHL SUB NOT DUP5 AND DUP3 DUP5 ADD MSTORE DUP3 MLOAD PUSH1 0x24 DUP2 DUP5 SUB ADD DUP2 MSTORE PUSH1 0x44 SWAP1 SWAP3 ADD SWAP1 SWAP3 MSTORE DUP1 MLOAD SWAP2 ADD KECCAK256 SWAP2 SWAP1 POP JUMP JUMPDEST PUSH1 0x0 PUSH1 0x60 PUSH2 0x1075 DUP7 MLOAD PUSH1 0x2 PUSH2 0x1EDF JUMP JUMPDEST PUSH2 0xA30 DUP10 DUP10 DUP10 DUP10 DUP10 DUP10 DUP10 PUSH2 0x250B PUSH2 0x267A PUSH2 0x20D8 JUMP JUMPDEST PUSH32 0x0 SWAP1 JUMP JUMPDEST PUSH32 0x0 SWAP1 JUMP JUMPDEST PUSH1 0x4 DUP1 SLOAD PUSH1 0x40 DUP1 MLOAD PUSH1 0x20 PUSH1 0x1F PUSH1 0x2 PUSH1 0x0 NOT PUSH2 0x100 PUSH1 0x1 DUP9 AND ISZERO MUL ADD SWAP1 SWAP6 AND SWAP5 SWAP1 SWAP5 DIV SWAP4 DUP5 ADD DUP2 SWAP1 DIV DUP2 MUL DUP3 ADD DUP2 ADD SWAP1 SWAP3 MSTORE DUP3 DUP2 MSTORE PUSH1 0x60 SWAP4 SWAP1 SWAP3 SWAP1 SWAP2 DUP4 ADD DUP3 DUP3 DUP1 ISZERO PUSH2 0x639 JUMPI DUP1 PUSH1 0x1F LT PUSH2 0x60E JUMPI PUSH2 0x100 DUP1 DUP4 SLOAD DIV MUL DUP4 MSTORE SWAP2 PUSH1 0x20 ADD SWAP2 PUSH2 0x639 JUMP JUMPDEST PUSH1 0x0 DUP1 PUSH2 0x113E PUSH2 0x26DC JUMP JUMPDEST SWAP1 POP PUSH1 0x0 DUP1 PUSH2 0x114B PUSH2 0x22D5 JUMP JUMPDEST SWAP2 POP SWAP2 POP PUSH1 0x0 PUSH20 0x0 PUSH4 0xD83CA862 DUP6 DUP6 DUP6 PUSH1 0x40 MLOAD DUP5 PUSH4 0xFFFFFFFF AND PUSH1 0xE0 SHL DUP2 MSTORE PUSH1 0x4 ADD PUSH2 0x118C SWAP4 SWAP3 SWAP2 SWAP1 PUSH2 0x47D7 JUMP JUMPDEST PUSH1 0x20 PUSH1 0x40 MLOAD DUP1 DUP4 SUB DUP2 DUP7 DUP1 EXTCODESIZE ISZERO DUP1 ISZERO PUSH2 0x11A4 JUMPI PUSH1 0x0 DUP1 REVERT JUMPDEST POP GAS DELEGATECALL ISZERO DUP1 ISZERO PUSH2 0x11B8 JUMPI RETURNDATASIZE PUSH1 0x0 DUP1 RETURNDATACOPY RETURNDATASIZE PUSH1 0x0 REVERT JUMPDEST POP POP POP POP PUSH1 0x40 MLOAD RETURNDATASIZE PUSH1 0x1F NOT PUSH1 0x1F DUP3 ADD AND DUP3 ADD DUP1 PUSH1 0x40 MSTORE POP DUP2 ADD SWAP1 PUSH2 0x11DC SWAP2 SWAP1 PUSH2 0x4655 JUMP JUMPDEST SWAP1 POP PUSH2 0x11EA DUP5 DUP3 DUP6 DUP6 PUSH2 0x2792 JUMP JUMPDEST SWAP5 POP PUSH2 0x11F5 DUP6 PUSH2 0x2832 JUMP JUMPDEST SWAP5 POP POP POP POP POP SWAP1 JUMP JUMPDEST PUSH1 0x9 SLOAD SWAP1 JUMP JUMPDEST PUSH1 0x0 PUSH2 0x120E PUSH2 0x1E02 JUMP JUMPDEST DUP4 PUSH1 0x80 ADD MLOAD PUSH2 0x121E PUSH2 0xC67 PUSH2 0x10AE JUMP JUMPDEST PUSH2 0x1229 PUSH2 0xC8D PUSH2 0x7F5 JUMP JUMPDEST PUSH1 0x0 PUSH32 0x0 PUSH1 0x1 PUSH1 0x1 PUSH1 0xA0 SHL SUB AND DUP7 PUSH1 0x20 ADD MLOAD PUSH1 0x1 PUSH1 0x1 PUSH1 0xA0 SHL SUB AND EQ DUP1 ISZERO PUSH2 0x12A5 JUMPI POP PUSH32 0x0 PUSH1 0x1 PUSH1 0x1 PUSH1 0xA0 SHL SUB AND DUP7 PUSH1 0x40 ADD MLOAD PUSH1 0x1 PUSH1 0x1 PUSH1 0xA0 SHL SUB AND EQ JUMPDEST ISZERO PUSH2 0x12B2 JUMPI POP PUSH1 0x1 PUSH2 0x1343 JUMP JUMPDEST PUSH32 0x0 PUSH1 0x1 PUSH1 0x1 PUSH1 0xA0 SHL SUB AND DUP7 PUSH1 0x20 ADD MLOAD PUSH1 0x1 PUSH1 0x1 PUSH1 0xA0 SHL SUB AND EQ DUP1 ISZERO PUSH2 0x132C JUMPI POP PUSH32 0x0 PUSH1 0x1 PUSH1 0x1 PUSH1 0xA0 SHL SUB AND DUP7 PUSH1 0x40 ADD MLOAD PUSH1 0x1 PUSH1 0x1 PUSH1 0xA0 SHL SUB AND EQ JUMPDEST ISZERO PUSH2 0x1339 JUMPI POP PUSH1 0x0 PUSH2 0x1343 JUMP JUMPDEST PUSH2 0x1343 PUSH1 0x79 PUSH2 0x29D2 JUMP JUMPDEST PUSH1 0x0 PUSH2 0x134E DUP3 PUSH2 0x2A25 JUMP JUMPDEST SWAP1 POP PUSH1 0x0 PUSH2 0x135C DUP4 ISZERO PUSH2 0x2A25 JUMP JUMPDEST SWAP1 POP PUSH2 0x1368 DUP8 DUP4 PUSH2 0x2B52 JUMP JUMPDEST SWAP7 POP PUSH2 0x1374 DUP7 DUP3 PUSH2 0x2B52 JUMP JUMPDEST SWAP6 POP PUSH1 0x0 PUSH2 0x1383 DUP9 DUP9 DUP7 PUSH2 0x2B5E JUMP JUMPDEST SWAP1 POP PUSH1 0x0 DUP1 PUSH2 0x1390 PUSH2 0x22D5 JUMP JUMPDEST SWAP2 POP SWAP2 POP PUSH2 0x139C PUSH2 0x415D JUMP JUMPDEST PUSH1 0x0 DUP1 PUSH20 0x0 PUSH4 0x78ACE857 DUP8 DUP8 DUP8 PUSH1 0x40 MLOAD DUP5 PUSH4 0xFFFFFFFF AND PUSH1 0xE0 SHL DUP2 MSTORE PUSH1 0x4 ADD PUSH2 0x13DA SWAP4 SWAP3 SWAP2 SWAP1 PUSH2 0x47D7 JUMP JUMPDEST PUSH1 0x40 DUP1 MLOAD DUP1 DUP4 SUB DUP2 DUP7 DUP1 EXTCODESIZE ISZERO DUP1 ISZERO PUSH2 0x13F1 JUMPI PUSH1 0x0 DUP1 REVERT JUMPDEST POP GAS DELEGATECALL ISZERO DUP1 ISZERO PUSH2 0x1405 JUMPI RETURNDATASIZE PUSH1 0x0 DUP1 RETURNDATACOPY RETURNDATASIZE PUSH1 0x0 REVERT JUMPDEST POP POP POP POP PUSH1 0x40 MLOAD RETURNDATASIZE PUSH1 0x1F NOT PUSH1 0x1F DUP3 ADD AND DUP3 ADD DUP1 PUSH1 0x40 MSTORE POP DUP2 ADD SWAP1 PUSH2 0x1429 SWAP2 SWAP1 PUSH2 0x44A4 JUMP JUMPDEST PUSH1 0x40 DUP1 MLOAD DUP1 DUP3 ADD SWAP1 SWAP2 MSTORE PUSH1 0x2 SWAP1 SWAP2 MUL DUP3 ADD DUP2 MSTORE PUSH1 0x20 DUP2 ADD SWAP2 SWAP1 SWAP2 MSTORE SWAP3 POP PUSH1 0x0 SWAP2 POP PUSH2 0x1451 SWAP1 POP JUMP JUMPDEST DUP13 MLOAD PUSH1 0x1 DUP2 GT ISZERO PUSH2 0x145E JUMPI INVALID JUMPDEST EQ ISZERO PUSH2 0x150A JUMPI PUSH1 0x0 PUSH2 0x147C PUSH2 0x1471 PUSH2 0x9FE JUMP JUMPDEST PUSH1 0x60 DUP16 ADD MLOAD SWAP1 PUSH2 0x2BF8 JUMP JUMPDEST SWAP1 POP PUSH2 0x149E PUSH2 0x1498 DUP3 DUP16 PUSH1 0x60 ADD MLOAD PUSH2 0x2C4D SWAP1 SWAP2 SWAP1 PUSH4 0xFFFFFFFF AND JUMP JUMPDEST DUP9 PUSH2 0x2B52 JUMP JUMPDEST PUSH1 0x60 DUP15 ADD MSTORE PUSH1 0x0 PUSH2 0x14B3 DUP15 DUP8 DUP12 DUP9 DUP9 DUP9 PUSH2 0x2C63 JUMP JUMPDEST SWAP1 POP PUSH32 0x4E1D56F7310A8C32B2267F756B19BA65019B4890068CE114A25009ABE54DE5BA DUP7 DUP5 DUP4 PUSH1 0x40 MLOAD PUSH2 0x14E8 SWAP4 SWAP3 SWAP2 SWAP1 PUSH2 0x4849 JUMP JUMPDEST PUSH1 0x40 MLOAD DUP1 SWAP2 SUB SWAP1 LOG1 PUSH2 0x14FA DUP2 DUP9 PUSH2 0x2D06 JUMP JUMPDEST SWAP11 POP POP POP POP POP POP POP POP POP POP PUSH2 0x159B JUMP JUMPDEST PUSH2 0x1518 DUP13 PUSH1 0x60 ADD MLOAD DUP7 PUSH2 0x2B52 JUMP JUMPDEST PUSH1 0x60 DUP14 ADD MSTORE PUSH1 0x0 PUSH2 0x152D DUP14 DUP7 DUP11 DUP8 DUP8 DUP8 PUSH2 0x2D12 JUMP JUMPDEST SWAP1 POP PUSH32 0x4E1D56F7310A8C32B2267F756B19BA65019B4890068CE114A25009ABE54DE5BA DUP6 DUP4 DUP4 PUSH1 0x40 MLOAD PUSH2 0x1562 SWAP4 SWAP3 SWAP2 SWAP1 PUSH2 0x4849 JUMP JUMPDEST PUSH1 0x40 MLOAD DUP1 SWAP2 SUB SWAP1 LOG1 PUSH2 0x1574 DUP2 DUP9 PUSH2 0x2D5A JUMP JUMPDEST SWAP1 POP PUSH2 0x1590 PUSH2 0x1589 PUSH2 0x1584 PUSH2 0x9FE JUMP JUMPDEST PUSH2 0x2D66 JUMP JUMPDEST DUP3 SWAP1 PUSH2 0x2D8C JUMP JUMPDEST SWAP10 POP POP POP POP POP POP POP POP POP JUMPDEST POP SWAP4 SWAP3 POP POP POP JUMP JUMPDEST PUSH1 0x0 DUP1 PUSH2 0x15B0 CALLER DUP6 PUSH2 0x190C JUMP JUMPDEST SWAP1 POP DUP1 DUP4 LT PUSH2 0x15CA JUMPI PUSH2 0x15C5 CALLER DUP6 PUSH1 0x0 PUSH2 0x1ADD JUMP JUMPDEST PUSH2 0x15D7 JUMP JUMPDEST PUSH2 0x15D7 CALLER DUP6 DUP6 DUP5 SUB PUSH2 0x1ADD JUMP JUMPDEST POP PUSH1 0x1 SWAP4 SWAP3 POP POP POP JUMP JUMPDEST PUSH1 0x0 PUSH2 0x650 CALLER DUP5 DUP5 PUSH2 0x1C5C JUMP JUMPDEST PUSH1 0x0 PUSH2 0x7D7 PUSH2 0x2DF2 JUMP JUMPDEST PUSH1 0xC SLOAD PUSH1 0x1 PUSH1 0x1 PUSH1 0xA0 SHL SUB AND DUP2 JUMP JUMPDEST PUSH1 0x0 DUP1 PUSH2 0x1612 PUSH2 0x26DC JUMP JUMPDEST SWAP1 POP PUSH1 0x0 DUP1 PUSH2 0x161F PUSH2 0x22D5 JUMP JUMPDEST PUSH1 0x40 MLOAD PUSH4 0x6C1E5431 PUSH1 0xE1 SHL DUP2 MSTORE SWAP2 SWAP4 POP SWAP2 POP PUSH20 0x0 SWAP1 PUSH4 0xD83CA862 SWAP1 PUSH2 0x165F SWAP1 DUP7 SWAP1 DUP7 SWAP1 DUP7 SWAP1 PUSH1 0x4 ADD PUSH2 0x47D7 JUMP JUMPDEST PUSH1 0x20 PUSH1 0x40 MLOAD DUP1 DUP4 SUB DUP2 DUP7 DUP1 EXTCODESIZE ISZERO DUP1 ISZERO PUSH2 0x1677 JUMPI PUSH1 0x0 DUP1 REVERT JUMPDEST POP GAS DELEGATECALL ISZERO DUP1 ISZERO PUSH2 0x168B JUMPI RETURNDATASIZE PUSH1 0x0 DUP1 RETURNDATACOPY RETURNDATASIZE PUSH1 0x0 REVERT JUMPDEST POP POP POP POP PUSH1 0x40 MLOAD RETURNDATASIZE PUSH1 0x1F NOT PUSH1 0x1F DUP3 ADD AND DUP3 ADD DUP1 PUSH1 0x40 MSTORE POP DUP2 ADD SWAP1 PUSH2 0x16AF SWAP2 SWAP1 PUSH2 0x4655 JUMP JUMPDEST SWAP4 POP POP POP POP SWAP1 JUMP JUMPDEST PUSH2 0x16C5 DUP5 TIMESTAMP GT ISZERO PUSH1 0xD1 PUSH2 0x1C4E JUMP JUMPDEST PUSH1 0x1 PUSH1 0x1 PUSH1 0xA0 SHL SUB DUP1 DUP9 AND PUSH1 0x0 DUP2 DUP2 MSTORE PUSH1 0x6 PUSH1 0x20 SWAP1 DUP2 MSTORE PUSH1 0x40 DUP1 DUP4 KECCAK256 SLOAD DUP2 MLOAD PUSH32 0x0 DUP2 DUP6 ADD MSTORE DUP1 DUP4 ADD SWAP6 SWAP1 SWAP6 MSTORE SWAP5 DUP12 AND PUSH1 0x60 DUP6 ADD MSTORE PUSH1 0x80 DUP5 ADD DUP11 SWAP1 MSTORE PUSH1 0xA0 DUP5 ADD DUP6 SWAP1 MSTORE PUSH1 0xC0 DUP1 DUP6 ADD DUP11 SWAP1 MSTORE DUP2 MLOAD DUP1 DUP7 SUB SWAP1 SWAP2 ADD DUP2 MSTORE PUSH1 0xE0 SWAP1 SWAP5 ADD SWAP1 MSTORE DUP3 MLOAD SWAP3 ADD SWAP2 SWAP1 SWAP2 KECCAK256 SWAP1 PUSH2 0x1751 DUP3 PUSH2 0x2E6C JUMP JUMPDEST SWAP1 POP PUSH1 0x0 PUSH1 0x1 DUP3 DUP9 DUP9 DUP9 PUSH1 0x40 MLOAD PUSH1 0x0 DUP2 MSTORE PUSH1 0x20 ADD PUSH1 0x40 MSTORE PUSH1 0x40 MLOAD DUP1 DUP6 DUP2 MSTORE PUSH1 0x20 ADD DUP5 PUSH1 0xFF AND DUP2 MSTORE PUSH1 0x20 ADD DUP4 DUP2 MSTORE PUSH1 0x20 ADD DUP3 DUP2 MSTORE PUSH1 0x20 ADD SWAP5 POP POP POP POP POP PUSH1 0x20 PUSH1 0x40 MLOAD PUSH1 0x20 DUP2 SUB SWAP1 DUP1 DUP5 SUB SWAP1 DUP6 GAS STATICCALL ISZERO DUP1 ISZERO PUSH2 0x17AF JUMPI RETURNDATASIZE PUSH1 0x0 DUP1 RETURNDATACOPY RETURNDATASIZE PUSH1 0x0 REVERT JUMPDEST POP POP PUSH1 0x40 MLOAD PUSH1 0x1F NOT ADD MLOAD SWAP2 POP PUSH2 0x17F1 SWAP1 POP PUSH1 0x1 PUSH1 0x1 PUSH1 0xA0 SHL SUB DUP3 AND ISZERO DUP1 ISZERO SWAP1 PUSH2 0x17E9 JUMPI POP DUP12 PUSH1 0x1 PUSH1 0x1 PUSH1 0xA0 SHL SUB AND DUP3 PUSH1 0x1 PUSH1 0x1 PUSH1 0xA0 SHL SUB AND EQ JUMPDEST PUSH2 0x1F8 PUSH2 0x1C4E JUMP JUMPDEST PUSH1 0x1 PUSH1 0x1 PUSH1 0xA0 SHL SUB DUP12 AND PUSH1 0x0 SWAP1 DUP2 MSTORE PUSH1 0x6 PUSH1 0x20 MSTORE PUSH1 0x40 SWAP1 KECCAK256 PUSH1 0x1 DUP6 ADD SWAP1 SSTORE PUSH2 0x181A DUP12 DUP12 DUP12 PUSH2 0x1ADD JUMP JUMPDEST POP POP POP POP POP POP POP POP POP POP POP JUMP JUMPDEST PUSH1 0x60 DUP1 DUP9 PUSH2 0x1836 PUSH2 0xC67 PUSH2 0x10AE JUMP JUMPDEST PUSH2 0x1841 PUSH2 0xC8D PUSH2 0x7F5 JUMP JUMPDEST PUSH2 0x1849 PUSH2 0x1E02 JUMP JUMPDEST PUSH1 0x0 PUSH2 0x1853 PUSH2 0x71F JUMP JUMPDEST PUSH2 0x18C3 JUMPI PUSH2 0x1863 DUP12 DUP12 DUP12 DUP9 PUSH2 0x2EB8 JUMP JUMPDEST SWAP5 POP SWAP1 POP PUSH2 0x1878 PUSH3 0xF4240 DUP3 LT ISZERO PUSH1 0xCC PUSH2 0x1C4E JUMP JUMPDEST PUSH2 0x1886 PUSH1 0x0 PUSH3 0xF4240 PUSH2 0x3048 JUMP JUMPDEST PUSH2 0x1895 DUP10 PUSH3 0xF4240 DUP4 SUB PUSH2 0x3048 JUMP JUMPDEST PUSH2 0x189E DUP5 PUSH2 0x267A JUMP JUMPDEST PUSH1 0x40 DUP1 MLOAD PUSH1 0x2 DUP1 DUP3 MSTORE PUSH1 0x60 DUP3 ADD DUP4 MSTORE SWAP1 SWAP2 PUSH1 0x20 DUP4 ADD SWAP1 DUP1 CALLDATASIZE DUP4 CALLDATACOPY ADD SWAP1 POP POP SWAP3 POP PUSH2 0x18FE JUMP JUMPDEST PUSH2 0x18CC DUP9 PUSH2 0x2269 JUMP JUMPDEST PUSH2 0x18DB DUP12 DUP12 DUP12 DUP12 DUP12 DUP12 DUP12 PUSH2 0x250B JUMP JUMPDEST SWAP1 SWAP6 POP SWAP4 POP SWAP1 POP PUSH2 0x18EC DUP10 DUP3 PUSH2 0x3048 JUMP JUMPDEST PUSH2 0x18F5 DUP5 PUSH2 0x267A JUMP JUMPDEST PUSH2 0x18FE DUP4 PUSH2 0x205A JUMP JUMPDEST POP POP SWAP8 POP SWAP8 SWAP6 POP POP POP POP POP POP JUMP JUMPDEST PUSH1 0x0 PUSH2 0x1916 PUSH2 0x10AE JUMP JUMPDEST PUSH1 0x1 PUSH1 0x1 PUSH1 0xA0 SHL SUB AND DUP3 PUSH1 0x1 PUSH1 0x1 PUSH1 0xA0 SHL SUB AND EQ ISZERO PUSH2 0x1938 JUMPI POP PUSH1 0x0 NOT PUSH2 0x654 JUMP JUMPDEST PUSH2 0x1942 DUP4 DUP4 PUSH2 0x3052 JUMP JUMPDEST SWAP1 POP PUSH2 0x654 JUMP JUMPDEST PUSH1 0x60 PUSH2 0x7D7 PUSH2 0x307D JUMP JUMPDEST DUP1 PUSH2 0x195D DUP2 PUSH2 0x30EC JUMP JUMPDEST POP POP JUMP JUMPDEST PUSH2 0x198D DUP2 PUSH1 0x60 ADD MLOAD PUSH1 0x0 SGT ISZERO DUP1 ISZERO PUSH2 0x1985 JUMPI POP PUSH8 0xDE0B6B3A7640000 DUP3 PUSH1 0x60 ADD MLOAD SGT ISZERO JUMPDEST PUSH2 0x163 PUSH2 0x3165 JUMP JUMPDEST PUSH2 0x19B8 DUP2 PUSH1 0x40 ADD MLOAD PUSH1 0x0 SGT ISZERO DUP1 ISZERO PUSH2 0x1985 JUMPI POP PUSH8 0xDE0B6B3A7640000 DUP3 PUSH1 0x40 ADD MLOAD SGT ISZERO PUSH2 0x163 PUSH2 0x3165 JUMP JUMPDEST PUSH1 0x40 DUP1 MLOAD DUP1 DUP3 ADD DUP3 MSTORE PUSH1 0x60 DUP4 ADD MLOAD DUP2 MSTORE SWAP1 DUP3 ADD MLOAD PUSH1 0x20 DUP3 ADD MSTORE PUSH1 0x0 PUSH2 0x19DD DUP3 DUP1 PUSH2 0x3173 JUMP JUMPDEST SWAP1 POP PUSH2 0x1A0A PUSH8 0xDE0B6B3A763FC18 DUP3 SLT DUP1 ISZERO SWAP1 PUSH2 0x1A02 JUMPI POP PUSH8 0xDE0B6B3A76403E8 DUP3 SGT ISZERO JUMPDEST PUSH2 0x164 PUSH2 0x3165 JUMP JUMPDEST PUSH2 0x1A39 DUP4 PUSH1 0x80 ADD MLOAD PUSH1 0x0 SGT ISZERO DUP1 ISZERO PUSH2 0x1A31 JUMPI POP PUSH11 0x52B7D2DCC80CD2E4000000 DUP5 PUSH1 0x80 ADD MLOAD SGT ISZERO JUMPDEST PUSH2 0x168 PUSH2 0x3165 JUMP JUMPDEST POP POP POP JUMP JUMPDEST PUSH1 0x0 PUSH2 0x7BD DUP4 DUP4 PUSH1 0x56 PUSH2 0x1A62 JUMP JUMPDEST PUSH1 0x0 PUSH2 0x1A5C DUP4 DUP4 GT ISZERO PUSH1 0x1 PUSH2 0x1C4E JUMP JUMPDEST POP SWAP1 SUB SWAP1 JUMP JUMPDEST PUSH8 0xFFFFFFFFFFFFFFFF DUP2 SHL NOT SWAP3 SWAP1 SWAP3 AND SWAP2 SHL OR SWAP1 JUMP JUMPDEST PUSH1 0x0 DUP3 DUP3 MUL DUP4 ISZERO DUP1 PUSH2 0x1A92 JUMPI POP DUP3 DUP5 DUP3 DUP2 PUSH2 0x1A8F JUMPI INVALID JUMPDEST SDIV EQ JUMPDEST PUSH2 0x1AA2 JUMPI PUSH2 0x1AA2 PUSH1 0x0 PUSH1 0x3 PUSH2 0x1C4E JUMP JUMPDEST PUSH8 0xDE0B6B3A7640000 SWAP1 SDIV SWAP4 SWAP3 POP POP POP JUMP JUMPDEST PUSH1 0x0 DUP3 DUP3 ADD DUP2 DUP4 SLT ISZERO PUSH2 0x1AC9 JUMPI DUP4 DUP2 SLT PUSH2 0x1ACE JUMP JUMPDEST DUP4 DUP2 SLT ISZERO JUMPDEST PUSH2 0x7BD JUMPI PUSH2 0x7BD PUSH1 0x0 DUP1 PUSH2 0x1C4E JUMP JUMPDEST PUSH1 0x1 PUSH1 0x1 PUSH1 0xA0 SHL SUB DUP1 DUP5 AND PUSH1 0x0 DUP2 DUP2 MSTORE PUSH1 0x1 PUSH1 0x20 SWAP1 DUP2 MSTORE PUSH1 0x40 DUP1 DUP4 KECCAK256 SWAP5 DUP8 AND DUP1 DUP5 MSTORE SWAP5 DUP3 MSTORE SWAP2 DUP3 SWAP1 KECCAK256 DUP6 SWAP1 SSTORE DUP2 MLOAD DUP6 DUP2 MSTORE SWAP2 MLOAD PUSH32 0x8C5BE1E5EBEC7D5BD14F71427D1E84F3DD0314C0F7B2291E5B200AC8C7C3B925 SWAP3 DUP2 SWAP1 SUB SWAP1 SWAP2 ADD SWAP1 LOG3 POP POP POP JUMP JUMPDEST PUSH1 0x0 PUSH2 0x1B56 PUSH1 0x0 CALLDATALOAD PUSH1 0x1 PUSH1 0x1 PUSH1 0xE0 SHL SUB NOT AND PUSH2 0x100C JUMP JUMPDEST SWAP1 POP PUSH2 0x71C PUSH2 0x1B65 DUP3 CALLER PUSH2 0x31A6 JUMP JUMPDEST PUSH2 0x191 PUSH2 0x1C4E JUMP JUMPDEST DUP1 ISZERO PUSH2 0x1B8D JUMPI PUSH2 0x1B88 PUSH2 0x1B7E PUSH2 0x1C06 JUMP JUMPDEST TIMESTAMP LT PUSH2 0x193 PUSH2 0x1C4E JUMP JUMPDEST PUSH2 0x1BA2 JUMP JUMPDEST PUSH2 0x1BA2 PUSH2 0x1B98 PUSH2 0x1C2A JUMP JUMPDEST TIMESTAMP LT PUSH2 0x1A9 PUSH2 0x1C4E JUMP JUMPDEST PUSH1 0x7 DUP1 SLOAD DUP3 ISZERO ISZERO PUSH1 0xFF NOT SWAP1 SWAP2 AND DUP2 OR SWAP1 SWAP2 SSTORE PUSH1 0x40 DUP1 MLOAD SWAP2 DUP3 MSTORE MLOAD PUSH32 0x9E3A5E37224532DEA67B89FACE185703738A228A6E8A23DEE546960180D3BE64 SWAP2 DUP2 SWAP1 SUB PUSH1 0x20 ADD SWAP1 LOG1 POP JUMP JUMPDEST PUSH1 0x0 PUSH2 0x1BF3 PUSH2 0x1C2A JUMP JUMPDEST TIMESTAMP GT DUP1 PUSH2 0x7D7 JUMPI POP POP PUSH1 0x7 SLOAD PUSH1 0xFF AND ISZERO SWAP1 JUMP JUMPDEST PUSH32 0x0 SWAP1 JUMP JUMPDEST PUSH32 0x0 SWAP1 JUMP JUMPDEST DUP2 PUSH2 0x195D JUMPI PUSH2 0x195D DUP2 PUSH2 0x29D2 JUMP JUMPDEST PUSH2 0x1C73 PUSH1 0x1 PUSH1 0x1 PUSH1 0xA0 SHL SUB DUP5 AND ISZERO ISZERO PUSH2 0x198 PUSH2 0x1C4E JUMP JUMPDEST PUSH2 0x1C8A PUSH1 0x1 PUSH1 0x1 PUSH1 0xA0 SHL SUB DUP4 AND ISZERO ISZERO PUSH2 0x199 PUSH2 0x1C4E JUMP JUMPDEST PUSH2 0x1C95 DUP4 DUP4 DUP4 PUSH2 0x1A39 JUMP JUMPDEST PUSH1 0x1 PUSH1 0x1 PUSH1 0xA0 SHL SUB DUP4 AND PUSH1 0x0 SWAP1 DUP2 MSTORE PUSH1 0x20 DUP2 SWAP1 MSTORE PUSH1 0x40 SWAP1 KECCAK256 SLOAD PUSH2 0x1CBB SWAP1 DUP3 PUSH2 0x1A0 PUSH2 0x32A8 JUMP JUMPDEST PUSH1 0x1 PUSH1 0x1 PUSH1 0xA0 SHL SUB DUP1 DUP6 AND PUSH1 0x0 SWAP1 DUP2 MSTORE PUSH1 0x20 DUP2 SWAP1 MSTORE PUSH1 0x40 DUP1 DUP3 KECCAK256 SWAP4 SWAP1 SWAP4 SSTORE SWAP1 DUP5 AND DUP2 MSTORE KECCAK256 SLOAD PUSH2 0x1CEA SWAP1 DUP3 PUSH2 0x1E80 JUMP JUMPDEST PUSH1 0x1 PUSH1 0x1 PUSH1 0xA0 SHL SUB DUP1 DUP5 AND PUSH1 0x0 DUP2 DUP2 MSTORE PUSH1 0x20 DUP2 DUP2 MSTORE PUSH1 0x40 SWAP2 DUP3 SWAP1 KECCAK256 SWAP5 SWAP1 SWAP5 SSTORE DUP1 MLOAD DUP6 DUP2 MSTORE SWAP1 MLOAD SWAP2 SWAP4 SWAP3 DUP8 AND SWAP3 PUSH32 0xDDF252AD1BE2C89B69C2B068FC378DAA952BA7F163C4A11628F55A4DF523B3EF SWAP3 SWAP2 DUP3 SWAP1 SUB ADD SWAP1 LOG3 POP POP POP JUMP JUMPDEST PUSH1 0x0 PUSH32 0x0 PUSH32 0x0 PUSH32 0x0 PUSH2 0x1DB1 PUSH2 0x32BE JUMP JUMPDEST ADDRESS PUSH1 0x40 MLOAD PUSH1 0x20 ADD DUP1 DUP7 DUP2 MSTORE PUSH1 0x20 ADD DUP6 DUP2 MSTORE PUSH1 0x20 ADD DUP5 DUP2 MSTORE PUSH1 0x20 ADD DUP4 DUP2 MSTORE PUSH1 0x20 ADD DUP3 PUSH1 0x1 PUSH1 0x1 PUSH1 0xA0 SHL SUB AND DUP2 MSTORE PUSH1 0x20 ADD SWAP6 POP POP POP POP POP POP PUSH1 0x40 MLOAD PUSH1 0x20 DUP2 DUP4 SUB SUB DUP2 MSTORE SWAP1 PUSH1 0x40 MSTORE DUP1 MLOAD SWAP1 PUSH1 0x20 ADD KECCAK256 SWAP1 POP SWAP1 JUMP JUMPDEST PUSH2 0x1E15 PUSH2 0x1E0D PUSH2 0x1BE9 JUMP JUMPDEST PUSH2 0x192 PUSH2 0x1C4E JUMP JUMPDEST JUMP JUMPDEST PUSH2 0x1E2A PUSH5 0xE8D4A51000 DUP3 LT ISZERO PUSH1 0xCB PUSH2 0x1C4E JUMP JUMPDEST PUSH2 0x1E40 PUSH8 0x16345785D8A0000 DUP3 GT ISZERO PUSH1 0xCA PUSH2 0x1C4E JUMP JUMPDEST PUSH1 0x8 SLOAD PUSH2 0x1E4D SWAP1 DUP3 PUSH2 0x1A3E JUMP JUMPDEST PUSH1 0x8 SSTORE PUSH1 0x40 MLOAD PUSH32 0xA9BA3FFE0B6C366B81232CAAB38605A0699AD5398D6CCE76F91EE809E322DAFC SWAP1 PUSH2 0x700 SWAP1 DUP4 SWAP1 PUSH2 0x48EA JUMP JUMPDEST PUSH1 0x0 DUP3 DUP3 ADD PUSH2 0x7BD DUP5 DUP3 LT ISZERO DUP4 PUSH2 0x1C4E JUMP JUMPDEST PUSH1 0x0 PUSH2 0x654 DUP3 DUP3 PUSH2 0x32C2 JUMP JUMPDEST PUSH1 0x0 PUSH2 0x654 DUP3 PUSH1 0x16 PUSH2 0x32C2 JUMP JUMPDEST PUSH1 0x0 PUSH2 0x654 DUP3 PUSH1 0x2C PUSH2 0x32E9 JUMP JUMPDEST PUSH1 0x0 PUSH2 0x654 DUP3 PUSH1 0x4B PUSH2 0x32F3 JUMP JUMPDEST PUSH1 0x0 PUSH2 0x654 DUP3 PUSH1 0x55 PUSH2 0x32FB JUMP JUMPDEST PUSH1 0x0 PUSH2 0x654 DUP3 PUSH1 0x56 PUSH2 0x3305 JUMP JUMPDEST PUSH2 0x195D DUP2 DUP4 EQ PUSH1 0x67 PUSH2 0x1C4E JUMP JUMPDEST PUSH1 0x0 PUSH1 0x60 DUP1 PUSH1 0x0 DUP1 PUSH2 0x1EFC PUSH2 0x22D5 JUMP JUMPDEST SWAP2 POP SWAP2 POP PUSH2 0x1F08 PUSH2 0x1BE9 JUMP JUMPDEST ISZERO PUSH2 0x200D JUMPI PUSH1 0x40 MLOAD PUSH4 0x6C1E5431 PUSH1 0xE1 SHL DUP2 MSTORE PUSH1 0x0 SWAP1 PUSH20 0x0 SWAP1 PUSH4 0xD83CA862 SWAP1 PUSH2 0x1F4B SWAP1 DUP14 SWAP1 DUP8 SWAP1 DUP8 SWAP1 PUSH1 0x4 ADD PUSH2 0x47D7 JUMP JUMPDEST PUSH1 0x20 PUSH1 0x40 MLOAD DUP1 DUP4 SUB DUP2 DUP7 DUP1 EXTCODESIZE ISZERO DUP1 ISZERO PUSH2 0x1F63 JUMPI PUSH1 0x0 DUP1 REVERT JUMPDEST POP GAS DELEGATECALL ISZERO DUP1 ISZERO PUSH2 0x1F77 JUMPI RETURNDATASIZE PUSH1 0x0 DUP1 RETURNDATACOPY RETURNDATASIZE PUSH1 0x0 REVERT JUMPDEST POP POP POP POP PUSH1 0x40 MLOAD RETURNDATASIZE PUSH1 0x1F NOT PUSH1 0x1F DUP3 ADD AND DUP3 ADD DUP1 PUSH1 0x40 MSTORE POP DUP2 ADD SWAP1 PUSH2 0x1F9B SWAP2 SWAP1 PUSH2 0x4655 JUMP JUMPDEST SWAP1 POP PUSH2 0x1FA6 DUP2 PUSH2 0x3313 JUMP JUMPDEST PUSH2 0x1FB0 DUP11 DUP9 PUSH2 0x3340 JUMP JUMPDEST SWAP1 SWAP7 POP SWAP5 POP PUSH2 0x1FC9 DUP2 DUP8 PUSH2 0x1FC2 PUSH2 0x71F JUMP JUMPDEST PUSH1 0x0 PUSH2 0x338C JUMP JUMPDEST PUSH1 0x9 DUP2 SWAP1 SSTORE PUSH1 0x40 MLOAD PUSH32 0xE1D39CAF039C7DC6F364B1E29D1E67C4E330003A43F4991D50CF3E8840D95EAC SWAP2 PUSH2 0x1FFF SWAP2 DUP5 SWAP2 SWAP1 PUSH2 0x4A6E JUMP JUMPDEST PUSH1 0x40 MLOAD DUP1 SWAP2 SUB SWAP1 LOG1 POP PUSH2 0x2023 JUMP JUMPDEST PUSH2 0x2017 DUP10 DUP8 PUSH2 0x3340 JUMP JUMPDEST PUSH1 0x0 NOT PUSH1 0x9 SSTORE SWAP1 SWAP6 POP SWAP4 POP JUMPDEST PUSH1 0x40 DUP1 MLOAD PUSH1 0x2 DUP1 DUP3 MSTORE PUSH1 0x60 DUP3 ADD DUP4 MSTORE DUP8 SWAP3 DUP8 SWAP3 SWAP2 SWAP1 PUSH1 0x20 DUP4 ADD SWAP1 DUP1 CALLDATASIZE DUP4 CALLDATACOPY ADD SWAP1 POP POP SWAP5 POP SWAP5 POP SWAP5 POP POP POP SWAP8 POP SWAP8 POP SWAP8 SWAP5 POP POP POP POP POP JUMP JUMPDEST PUSH2 0x2081 DUP2 PUSH1 0x0 DUP2 MLOAD DUP2 LT PUSH2 0x206A JUMPI INVALID JUMPDEST PUSH1 0x20 MUL PUSH1 0x20 ADD ADD MLOAD PUSH2 0x207C PUSH1 0x1 PUSH2 0x2A25 JUMP JUMPDEST PUSH2 0x220F JUMP JUMPDEST DUP2 PUSH1 0x0 DUP2 MLOAD DUP2 LT PUSH2 0x208E JUMPI INVALID JUMPDEST PUSH1 0x20 MUL PUSH1 0x20 ADD ADD DUP2 DUP2 MSTORE POP POP PUSH2 0x20BC DUP2 PUSH1 0x1 DUP2 MLOAD DUP2 LT PUSH2 0x20AA JUMPI INVALID JUMPDEST PUSH1 0x20 MUL PUSH1 0x20 ADD ADD MLOAD PUSH2 0x207C PUSH1 0x0 PUSH2 0x2A25 JUMP JUMPDEST DUP2 PUSH1 0x1 DUP2 MLOAD DUP2 LT PUSH2 0x20C9 JUMPI INVALID JUMPDEST PUSH1 0x20 MUL PUSH1 0x20 ADD ADD DUP2 DUP2 MSTORE POP POP POP JUMP JUMPDEST CALLER ADDRESS EQ PUSH2 0x2196 JUMPI PUSH1 0x0 ADDRESS PUSH1 0x1 PUSH1 0x1 PUSH1 0xA0 SHL SUB AND PUSH1 0x0 CALLDATASIZE PUSH1 0x40 MLOAD PUSH2 0x20FC SWAP3 SWAP2 SWAP1 PUSH2 0x477B JUMP JUMPDEST PUSH1 0x0 PUSH1 0x40 MLOAD DUP1 DUP4 SUB DUP2 PUSH1 0x0 DUP7 GAS CALL SWAP2 POP POP RETURNDATASIZE DUP1 PUSH1 0x0 DUP2 EQ PUSH2 0x2139 JUMPI PUSH1 0x40 MLOAD SWAP2 POP PUSH1 0x1F NOT PUSH1 0x3F RETURNDATASIZE ADD AND DUP3 ADD PUSH1 0x40 MSTORE RETURNDATASIZE DUP3 MSTORE RETURNDATASIZE PUSH1 0x0 PUSH1 0x20 DUP5 ADD RETURNDATACOPY PUSH2 0x213E JUMP JUMPDEST PUSH1 0x60 SWAP2 POP JUMPDEST POP POP SWAP1 POP DUP1 PUSH1 0x0 DUP2 EQ PUSH2 0x214D JUMPI INVALID JUMPDEST PUSH1 0x4 PUSH1 0x0 DUP1 RETURNDATACOPY PUSH1 0x0 MLOAD PUSH1 0x1 PUSH1 0x1 PUSH1 0xE0 SHL SUB NOT AND PUSH4 0x43ADBAFB PUSH1 0xE0 SHL DUP2 EQ PUSH2 0x2178 JUMPI RETURNDATASIZE PUSH1 0x0 DUP1 RETURNDATACOPY RETURNDATASIZE PUSH1 0x0 REVERT JUMPDEST POP PUSH1 0x20 PUSH1 0x4 PUSH1 0x0 RETURNDATACOPY PUSH1 0x40 PUSH1 0x20 MSTORE PUSH1 0x24 RETURNDATASIZE SUB PUSH1 0x24 PUSH1 0x40 RETURNDATACOPY PUSH1 0x1C RETURNDATASIZE ADD PUSH1 0x0 RETURN JUMPDEST PUSH2 0x219F DUP7 PUSH2 0x2269 JUMP JUMPDEST PUSH1 0x0 DUP1 PUSH2 0x21B5 DUP12 DUP12 DUP12 DUP12 DUP12 DUP12 DUP12 DUP12 PUSH4 0xFFFFFFFF AND JUMP JUMPDEST POP SWAP2 POP SWAP2 POP PUSH2 0x21C7 DUP2 DUP5 PUSH4 0xFFFFFFFF AND JUMP JUMPDEST DUP1 MLOAD PUSH1 0x1F NOT DUP3 ADD DUP4 SWAP1 MSTORE PUSH4 0x43ADBAFB PUSH1 0x3F NOT DUP4 ADD MSTORE PUSH1 0x20 MUL PUSH1 0x23 NOT DUP3 ADD PUSH1 0x44 DUP3 ADD DUP2 REVERT JUMPDEST PUSH1 0x0 DUP3 DUP3 MUL PUSH2 0x7BD DUP5 ISZERO DUP1 PUSH2 0x2208 JUMPI POP DUP4 DUP6 DUP4 DUP2 PUSH2 0x2205 JUMPI INVALID JUMPDEST DIV EQ JUMPDEST PUSH1 0x3 PUSH2 0x1C4E JUMP JUMPDEST PUSH1 0x0 DUP2 PUSH2 0x2222 JUMPI PUSH2 0x2222 PUSH1 0x0 PUSH1 0x4 PUSH2 0x1C4E JUMP JUMPDEST DUP3 PUSH2 0x222F JUMPI POP PUSH1 0x0 PUSH2 0x654 JUMP JUMPDEST PUSH8 0xDE0B6B3A7640000 DUP4 DUP2 MUL SWAP1 DUP5 DUP3 DUP2 PUSH2 0x2245 JUMPI INVALID JUMPDEST DIV EQ PUSH2 0x2257 JUMPI PUSH2 0x2257 PUSH1 0x0 PUSH1 0x5 PUSH2 0x1C4E JUMP JUMPDEST DUP3 DUP2 DUP2 PUSH2 0x2260 JUMPI INVALID JUMPDEST DIV SWAP5 SWAP4 POP POP POP POP JUMP JUMPDEST PUSH2 0x2290 DUP2 PUSH1 0x0 DUP2 MLOAD DUP2 LT PUSH2 0x2279 JUMPI INVALID JUMPDEST PUSH1 0x20 MUL PUSH1 0x20 ADD ADD MLOAD PUSH2 0x228B PUSH1 0x1 PUSH2 0x2A25 JUMP JUMPDEST PUSH2 0x33E4 JUMP JUMPDEST DUP2 PUSH1 0x0 DUP2 MLOAD DUP2 LT PUSH2 0x229D JUMPI INVALID JUMPDEST PUSH1 0x20 MUL PUSH1 0x20 ADD ADD DUP2 DUP2 MSTORE POP POP PUSH2 0x20BC DUP2 PUSH1 0x1 DUP2 MLOAD DUP2 LT PUSH2 0x22B9 JUMPI INVALID JUMPDEST PUSH1 0x20 MUL PUSH1 0x20 ADD ADD MLOAD PUSH2 0x228B PUSH1 0x0 PUSH2 0x2A25 JUMP JUMPDEST PUSH2 0x195D DUP3 DUP3 PUSH2 0x341D JUMP JUMPDEST PUSH2 0x22DD PUSH2 0x40E5 JUMP JUMPDEST PUSH2 0x22E5 PUSH2 0x4114 JUMP JUMPDEST PUSH32 0x0 PUSH1 0x80 DUP1 DUP5 ADD SWAP2 SWAP1 SWAP2 MSTORE PUSH32 0x0 PUSH1 0x60 DUP1 DUP6 ADD SWAP2 SWAP1 SWAP2 MSTORE PUSH32 0x0 PUSH1 0x40 DUP1 DUP7 ADD SWAP2 SWAP1 SWAP2 MSTORE PUSH32 0x0 PUSH1 0x20 DUP1 DUP8 ADD SWAP2 SWAP1 SWAP2 MSTORE PUSH32 0x0 DUP7 MSTORE DUP5 MLOAD DUP6 DUP3 ADD MLOAD PUSH32 0x0 DUP2 DUP5 ADD MSTORE PUSH32 0x0 SWAP1 MSTORE PUSH32 0x0 SWAP2 DUP2 ADD SWAP2 SWAP1 SWAP2 MSTORE PUSH32 0x0 SWAP1 MSTORE PUSH32 0x0 PUSH1 0xC0 DUP6 ADD MSTORE PUSH32 0x0 PUSH1 0xA0 DUP6 ADD MSTORE PUSH32 0x0 SWAP3 DUP5 ADD SWAP3 SWAP1 SWAP3 MSTORE PUSH32 0x0 SWAP1 DUP4 ADD MSTORE PUSH32 0x0 SWAP1 DUP3 ADD MSTORE SWAP1 SWAP2 JUMP JUMPDEST PUSH1 0x0 PUSH1 0x60 DUP1 PUSH1 0x0 DUP1 PUSH2 0x251B PUSH2 0x22D5 JUMP JUMPDEST SWAP2 POP SWAP2 POP PUSH1 0x0 PUSH20 0x0 PUSH4 0xD83CA862 DUP12 DUP6 DUP6 PUSH1 0x40 MLOAD DUP5 PUSH4 0xFFFFFFFF AND PUSH1 0xE0 SHL DUP2 MSTORE PUSH1 0x4 ADD PUSH2 0x255C SWAP4 SWAP3 SWAP2 SWAP1 PUSH2 0x47D7 JUMP JUMPDEST PUSH1 0x20 PUSH1 0x40 MLOAD DUP1 DUP4 SUB DUP2 DUP7 DUP1 EXTCODESIZE ISZERO DUP1 ISZERO PUSH2 0x2574 JUMPI PUSH1 0x0 DUP1 REVERT JUMPDEST POP GAS DELEGATECALL ISZERO DUP1 ISZERO PUSH2 0x2588 JUMPI RETURNDATASIZE PUSH1 0x0 DUP1 RETURNDATACOPY RETURNDATASIZE PUSH1 0x0 REVERT JUMPDEST POP POP POP POP PUSH1 0x40 MLOAD RETURNDATASIZE PUSH1 0x1F NOT PUSH1 0x1F DUP3 ADD AND DUP3 ADD DUP1 PUSH1 0x40 MSTORE POP DUP2 ADD SWAP1 PUSH2 0x25AC SWAP2 SWAP1 PUSH2 0x4655 JUMP JUMPDEST SWAP1 POP PUSH2 0x25B7 DUP2 PUSH2 0x3313 JUMP JUMPDEST PUSH1 0x0 DUP1 PUSH2 0x25C4 DUP13 DUP11 PUSH2 0x34D4 JUMP JUMPDEST PUSH1 0xA SLOAD SWAP2 SWAP4 POP SWAP2 POP PUSH1 0xFF AND ISZERO PUSH2 0x25EE JUMPI PUSH2 0x25EE DUP3 PUSH2 0x25E1 DUP16 PUSH2 0xC39 JUMP JUMPDEST PUSH2 0x25E9 PUSH2 0x71F JUMP JUMPDEST PUSH2 0x350E JUMP JUMPDEST PUSH2 0x2602 DUP4 DUP4 PUSH2 0x25FB PUSH2 0x71F JUMP JUMPDEST PUSH1 0x1 PUSH2 0x338C JUMP JUMPDEST PUSH1 0x9 DUP2 SWAP1 SSTORE PUSH1 0x40 MLOAD PUSH32 0xE1D39CAF039C7DC6F364B1E29D1E67C4E330003A43F4991D50CF3E8840D95EAC SWAP2 PUSH2 0x2638 SWAP2 DUP7 SWAP2 SWAP1 PUSH2 0x4A6E JUMP JUMPDEST PUSH1 0x40 MLOAD DUP1 SWAP2 SUB SWAP1 LOG1 PUSH1 0x40 DUP1 MLOAD PUSH1 0x2 DUP1 DUP3 MSTORE PUSH1 0x60 DUP3 ADD DUP4 MSTORE DUP5 SWAP3 DUP5 SWAP3 SWAP2 SWAP1 PUSH1 0x20 DUP4 ADD SWAP1 DUP1 CALLDATASIZE DUP4 CALLDATACOPY ADD SWAP1 POP POP SWAP8 POP SWAP8 POP SWAP8 POP POP POP POP POP POP SWAP8 POP SWAP8 POP SWAP8 SWAP5 POP POP POP POP POP JUMP JUMPDEST PUSH2 0x26A1 DUP2 PUSH1 0x0 DUP2 MLOAD DUP2 LT PUSH2 0x268A JUMPI INVALID JUMPDEST PUSH1 0x20 MUL PUSH1 0x20 ADD ADD MLOAD PUSH2 0x269C PUSH1 0x1 PUSH2 0x2A25 JUMP JUMPDEST PUSH2 0x2D8C JUMP JUMPDEST DUP2 PUSH1 0x0 DUP2 MLOAD DUP2 LT PUSH2 0x26AE JUMPI INVALID JUMPDEST PUSH1 0x20 MUL PUSH1 0x20 ADD ADD DUP2 DUP2 MSTORE POP POP PUSH2 0x20BC DUP2 PUSH1 0x1 DUP2 MLOAD DUP2 LT PUSH2 0x26CA JUMPI INVALID JUMPDEST PUSH1 0x20 MUL PUSH1 0x20 ADD ADD MLOAD PUSH2 0x269C PUSH1 0x0 PUSH2 0x2A25 JUMP JUMPDEST PUSH1 0x40 DUP1 MLOAD PUSH1 0x2 DUP1 DUP3 MSTORE PUSH1 0x60 DUP1 DUP4 ADD DUP5 MSTORE SWAP3 PUSH1 0x20 DUP4 ADD SWAP1 DUP1 CALLDATASIZE DUP4 CALLDATACOPY ADD SWAP1 POP POP SWAP1 POP PUSH2 0x272F PUSH32 0x0 PUSH2 0x272A PUSH1 0x1 PUSH2 0x2A25 JUMP JUMPDEST PUSH2 0x3620 JUMP JUMPDEST DUP2 PUSH1 0x0 DUP2 MLOAD DUP2 LT PUSH2 0x273C JUMPI INVALID JUMPDEST PUSH1 0x20 MUL PUSH1 0x20 ADD ADD DUP2 DUP2 MSTORE POP POP PUSH2 0x2776 PUSH32 0x0 PUSH2 0x272A PUSH1 0x0 PUSH2 0x2A25 JUMP JUMPDEST DUP2 PUSH1 0x1 DUP2 MLOAD DUP2 LT PUSH2 0x2783 JUMPI INVALID JUMPDEST PUSH1 0x20 MUL PUSH1 0x20 ADD ADD DUP2 DUP2 MSTORE POP POP SWAP1 JUMP JUMPDEST PUSH1 0x0 PUSH20 0x0 PUSH4 0xC7FE78D0 DUP7 DUP6 DUP6 PUSH2 0x27BA DUP10 PUSH2 0x36C7 JUMP JUMPDEST PUSH1 0x40 MLOAD DUP6 PUSH4 0xFFFFFFFF AND PUSH1 0xE0 SHL DUP2 MSTORE PUSH1 0x4 ADD PUSH2 0x27D9 SWAP5 SWAP4 SWAP3 SWAP2 SWAP1 PUSH2 0x4808 JUMP JUMPDEST PUSH1 0x20 PUSH1 0x40 MLOAD DUP1 DUP4 SUB DUP2 DUP7 DUP1 EXTCODESIZE ISZERO DUP1 ISZERO PUSH2 0x27F1 JUMPI PUSH1 0x0 DUP1 REVERT JUMPDEST POP GAS DELEGATECALL ISZERO DUP1 ISZERO PUSH2 0x2805 JUMPI RETURNDATASIZE PUSH1 0x0 DUP1 RETURNDATACOPY RETURNDATASIZE PUSH1 0x0 REVERT JUMPDEST POP POP POP POP PUSH1 0x40 MLOAD RETURNDATASIZE PUSH1 0x1F NOT PUSH1 0x1F DUP3 ADD AND DUP3 ADD DUP1 PUSH1 0x40 MSTORE POP DUP2 ADD SWAP1 PUSH2 0x2829 SWAP2 SWAP1 PUSH2 0x4655 JUMP JUMPDEST SWAP6 SWAP5 POP POP POP POP POP JUMP JUMPDEST PUSH1 0x0 PUSH32 0x0 PUSH1 0x1 PUSH1 0x1 PUSH1 0xA0 SHL SUB AND ISZERO PUSH2 0x2901 JUMPI PUSH2 0x28FE PUSH32 0x0 PUSH1 0x1 PUSH1 0x1 PUSH1 0xA0 SHL SUB AND PUSH4 0x679AEFCE PUSH1 0x40 MLOAD DUP2 PUSH4 0xFFFFFFFF AND PUSH1 0xE0 SHL DUP2 MSTORE PUSH1 0x4 ADD PUSH1 0x20 PUSH1 0x40 MLOAD DUP1 DUP4 SUB DUP2 DUP7 DUP1 EXTCODESIZE ISZERO DUP1 ISZERO PUSH2 0x28BF JUMPI PUSH1 0x0 DUP1 REVERT JUMPDEST POP GAS STATICCALL ISZERO DUP1 ISZERO PUSH2 0x28D3 JUMPI RETURNDATASIZE PUSH1 0x0 DUP1 RETURNDATACOPY RETURNDATASIZE PUSH1 0x0 REVERT JUMPDEST POP POP POP POP PUSH1 0x40 MLOAD RETURNDATASIZE PUSH1 0x1F NOT PUSH1 0x1F DUP3 ADD AND DUP3 ADD DUP1 PUSH1 0x40 MSTORE POP DUP2 ADD SWAP1 PUSH2 0x28F7 SWAP2 SWAP1 PUSH2 0x4655 JUMP JUMPDEST DUP4 SWAP1 PUSH2 0x33E4 JUMP JUMPDEST SWAP2 POP JUMPDEST PUSH32 0x0 PUSH1 0x1 PUSH1 0x1 PUSH1 0xA0 SHL SUB AND ISZERO PUSH2 0x29CE JUMPI PUSH2 0x29CB PUSH32 0x0 PUSH1 0x1 PUSH1 0x1 PUSH1 0xA0 SHL SUB AND PUSH4 0x679AEFCE PUSH1 0x40 MLOAD DUP2 PUSH4 0xFFFFFFFF AND PUSH1 0xE0 SHL DUP2 MSTORE PUSH1 0x4 ADD PUSH1 0x20 PUSH1 0x40 MLOAD DUP1 DUP4 SUB DUP2 DUP7 DUP1 EXTCODESIZE ISZERO DUP1 ISZERO PUSH2 0x298C JUMPI PUSH1 0x0 DUP1 REVERT JUMPDEST POP GAS STATICCALL ISZERO DUP1 ISZERO PUSH2 0x29A0 JUMPI RETURNDATASIZE PUSH1 0x0 DUP1 RETURNDATACOPY RETURNDATASIZE PUSH1 0x0 REVERT JUMPDEST POP POP POP POP PUSH1 0x40 MLOAD RETURNDATASIZE PUSH1 0x1F NOT PUSH1 0x1F DUP3 ADD AND DUP3 ADD DUP1 PUSH1 0x40 MSTORE POP DUP2 ADD SWAP1 PUSH2 0x29C4 SWAP2 SWAP1 PUSH2 0x4655 JUMP JUMPDEST DUP4 SWAP1 PUSH2 0x220F JUMP JUMPDEST SWAP2 POP JUMPDEST POP SWAP1 JUMP JUMPDEST PUSH3 0x461BCD PUSH1 0xE5 SHL PUSH1 0x0 SWAP1 DUP2 MSTORE PUSH1 0x20 PUSH1 0x4 MSTORE PUSH1 0x7 PUSH1 0x24 MSTORE PUSH7 0x42414C23000030 PUSH1 0xA DUP1 DUP5 DIV DUP2 DUP2 MOD PUSH1 0x30 SWAP1 DUP2 ADD PUSH1 0x8 SHL SWAP6 DUP4 SWAP1 MOD SWAP6 SWAP1 SWAP6 ADD SWAP1 DUP3 SWAP1 DIV SWAP2 DUP3 MOD SWAP1 SWAP5 ADD PUSH1 0x10 SHL SWAP4 SWAP1 SWAP4 ADD ADD PUSH1 0xC8 SHL PUSH1 0x44 MSTORE PUSH1 0x64 SWAP1 REVERT JUMPDEST PUSH1 0x0 DUP1 PUSH1 0x0 DUP4 ISZERO PUSH2 0x2A7A JUMPI POP PUSH32 0x0 SWAP1 POP PUSH32 0x0 PUSH2 0x2AC0 JUMP JUMPDEST POP PUSH32 0x0 SWAP1 POP PUSH32 0x0 JUMPDEST PUSH1 0x1 PUSH1 0x1 PUSH1 0xA0 SHL SUB DUP3 AND ISZERO PUSH2 0x7BD JUMPI PUSH2 0x2B4A DUP3 PUSH1 0x1 PUSH1 0x1 PUSH1 0xA0 SHL SUB AND PUSH4 0x679AEFCE PUSH1 0x40 MLOAD DUP2 PUSH4 0xFFFFFFFF AND PUSH1 0xE0 SHL DUP2 MSTORE PUSH1 0x4 ADD PUSH1 0x20 PUSH1 0x40 MLOAD DUP1 DUP4 SUB DUP2 DUP7 DUP1 EXTCODESIZE ISZERO DUP1 ISZERO PUSH2 0x2B0B JUMPI PUSH1 0x0 DUP1 REVERT JUMPDEST POP GAS STATICCALL ISZERO DUP1 ISZERO PUSH2 0x2B1F JUMPI RETURNDATASIZE PUSH1 0x0 DUP1 RETURNDATACOPY RETURNDATASIZE PUSH1 0x0 REVERT JUMPDEST POP POP POP POP PUSH1 0x40 MLOAD RETURNDATASIZE PUSH1 0x1F NOT PUSH1 0x1F DUP3 ADD AND DUP3 ADD DUP1 PUSH1 0x40 MSTORE POP DUP2 ADD SWAP1 PUSH2 0x2B43 SWAP2 SWAP1 PUSH2 0x4655 JUMP JUMPDEST DUP3 SWAP1 PUSH2 0x33E4 JUMP JUMPDEST SWAP5 SWAP4 POP POP POP POP JUMP JUMPDEST PUSH1 0x0 PUSH2 0x7BD DUP4 DUP4 PUSH2 0x33E4 JUMP JUMPDEST PUSH1 0x40 DUP1 MLOAD PUSH1 0x2 DUP1 DUP3 MSTORE PUSH1 0x60 DUP1 DUP4 ADD DUP5 MSTORE SWAP3 PUSH1 0x20 DUP4 ADD SWAP1 DUP1 CALLDATASIZE DUP4 CALLDATACOPY ADD SWAP1 POP POP SWAP1 POP DUP2 ISZERO PUSH2 0x2BBD JUMPI DUP4 DUP2 PUSH1 0x0 DUP2 MLOAD DUP2 LT PUSH2 0x2B92 JUMPI INVALID JUMPDEST PUSH1 0x20 MUL PUSH1 0x20 ADD ADD DUP2 DUP2 MSTORE POP POP DUP3 DUP2 PUSH1 0x1 DUP2 MLOAD DUP2 LT PUSH2 0x2BAC JUMPI INVALID JUMPDEST PUSH1 0x20 MUL PUSH1 0x20 ADD ADD DUP2 DUP2 MSTORE POP POP PUSH2 0x7BD JUMP JUMPDEST DUP3 DUP2 PUSH1 0x0 DUP2 MLOAD DUP2 LT PUSH2 0x2BCB JUMPI INVALID JUMPDEST PUSH1 0x20 MUL PUSH1 0x20 ADD ADD DUP2 DUP2 MSTORE POP POP DUP4 DUP2 PUSH1 0x1 DUP2 MLOAD DUP2 LT PUSH2 0x2BE5 JUMPI INVALID JUMPDEST PUSH1 0x20 MUL PUSH1 0x20 ADD ADD DUP2 DUP2 MSTORE POP POP SWAP4 SWAP3 POP POP POP JUMP JUMPDEST PUSH1 0x0 DUP3 DUP3 MUL DUP4 ISZERO DUP1 PUSH2 0x2C12 JUMPI POP DUP3 DUP5 DUP3 DUP2 PUSH2 0x2C0F JUMPI INVALID JUMPDEST DIV EQ JUMPDEST PUSH2 0x2C22 JUMPI PUSH2 0x2C22 PUSH1 0x0 PUSH1 0x3 PUSH2 0x1C4E JUMP JUMPDEST DUP1 PUSH2 0x2C31 JUMPI PUSH1 0x0 SWAP2 POP POP PUSH2 0x654 JUMP JUMPDEST PUSH8 0xDE0B6B3A7640000 PUSH1 0x0 NOT DUP3 ADD JUMPDEST DIV PUSH1 0x1 ADD SWAP2 POP POP SWAP3 SWAP2 POP POP JUMP JUMPDEST PUSH1 0x0 DUP3 DUP3 GT ISZERO PUSH2 0x1A5C JUMPI PUSH2 0x1A5C PUSH1 0x0 PUSH1 0x1 PUSH2 0x1C4E JUMP JUMPDEST PUSH1 0x60 DUP7 ADD MLOAD PUSH1 0x40 MLOAD PUSH4 0x30FFA11B PUSH1 0xE1 SHL DUP2 MSTORE PUSH1 0x0 SWAP2 PUSH20 0x0 SWAP2 PUSH4 0x61FF4236 SWAP2 PUSH2 0x2CAB SWAP2 DUP11 SWAP2 SWAP1 DUP11 SWAP1 DUP11 SWAP1 DUP11 SWAP1 DUP11 SWAP1 PUSH1 0x4 ADD PUSH2 0x4879 JUMP JUMPDEST PUSH1 0x20 PUSH1 0x40 MLOAD DUP1 DUP4 SUB DUP2 DUP7 DUP1 EXTCODESIZE ISZERO DUP1 ISZERO PUSH2 0x2CC3 JUMPI PUSH1 0x0 DUP1 REVERT JUMPDEST POP GAS DELEGATECALL ISZERO DUP1 ISZERO PUSH2 0x2CD7 JUMPI RETURNDATASIZE PUSH1 0x0 DUP1 RETURNDATACOPY RETURNDATASIZE PUSH1 0x0 REVERT JUMPDEST POP POP POP POP PUSH1 0x40 MLOAD RETURNDATASIZE PUSH1 0x1F NOT PUSH1 0x1F DUP3 ADD AND DUP3 ADD DUP1 PUSH1 0x40 MSTORE POP DUP2 ADD SWAP1 PUSH2 0x2CFB SWAP2 SWAP1 PUSH2 0x4655 JUMP JUMPDEST SWAP8 SWAP7 POP POP POP POP POP POP POP JUMP JUMPDEST PUSH1 0x0 PUSH2 0x7BD DUP4 DUP4 PUSH2 0x220F JUMP JUMPDEST PUSH1 0x60 DUP7 ADD MLOAD PUSH1 0x40 MLOAD PUSH4 0x3B18CE7B PUSH1 0xE2 SHL DUP2 MSTORE PUSH1 0x0 SWAP2 PUSH20 0x0 SWAP2 PUSH4 0xEC6339EC SWAP2 PUSH2 0x2CAB SWAP2 DUP11 SWAP2 SWAP1 DUP11 SWAP1 DUP11 SWAP1 DUP11 SWAP1 DUP11 SWAP1 PUSH1 0x4 ADD PUSH2 0x4879 JUMP JUMPDEST PUSH1 0x0 PUSH2 0x7BD DUP4 DUP4 PUSH2 0x2D8C JUMP JUMPDEST PUSH1 0x0 PUSH8 0xDE0B6B3A7640000 DUP3 LT PUSH2 0x2D7E JUMPI PUSH1 0x0 PUSH2 0x654 JUMP JUMPDEST POP PUSH8 0xDE0B6B3A7640000 SUB SWAP1 JUMP JUMPDEST PUSH1 0x0 DUP2 PUSH2 0x2D9F JUMPI PUSH2 0x2D9F PUSH1 0x0 PUSH1 0x4 PUSH2 0x1C4E JUMP JUMPDEST DUP3 PUSH2 0x2DAC JUMPI POP PUSH1 0x0 PUSH2 0x654 JUMP JUMPDEST PUSH8 0xDE0B6B3A7640000 DUP4 DUP2 MUL SWAP1 DUP5 DUP3 DUP2 PUSH2 0x2DC2 JUMPI INVALID JUMPDEST DIV EQ PUSH2 0x2DE6 JUMPI PUSH2 0x2DE6 PUSH8 0xDE0B6B3A7640000 DUP6 DUP4 DUP2 PUSH2 0x2DDD JUMPI INVALID JUMPDEST DIV EQ PUSH1 0x5 PUSH2 0x1C4E JUMP JUMPDEST DUP3 PUSH1 0x1 DUP3 SUB DUP2 PUSH2 0x2C40 JUMPI INVALID JUMPDEST PUSH1 0x0 PUSH2 0x2DFC PUSH2 0x10AE JUMP JUMPDEST PUSH1 0x1 PUSH1 0x1 PUSH1 0xA0 SHL SUB AND PUSH4 0xAAABADC5 PUSH1 0x40 MLOAD DUP2 PUSH4 0xFFFFFFFF AND PUSH1 0xE0 SHL DUP2 MSTORE PUSH1 0x4 ADD PUSH1 0x20 PUSH1 0x40 MLOAD DUP1 DUP4 SUB DUP2 DUP7 DUP1 EXTCODESIZE ISZERO DUP1 ISZERO PUSH2 0x2E34 JUMPI PUSH1 0x0 DUP1 REVERT JUMPDEST POP GAS STATICCALL ISZERO DUP1 ISZERO PUSH2 0x2E48 JUMPI RETURNDATASIZE PUSH1 0x0 DUP1 RETURNDATACOPY RETURNDATASIZE PUSH1 0x0 REVERT JUMPDEST POP POP POP POP PUSH1 0x40 MLOAD RETURNDATASIZE PUSH1 0x1F NOT PUSH1 0x1F DUP3 ADD AND DUP3 ADD DUP1 PUSH1 0x40 MSTORE POP DUP2 ADD SWAP1 PUSH2 0x7D7 SWAP2 SWAP1 PUSH2 0x4222 JUMP JUMPDEST PUSH1 0x0 PUSH2 0x2E76 PUSH2 0x1D44 JUMP JUMPDEST DUP3 PUSH1 0x40 MLOAD PUSH1 0x20 ADD DUP1 DUP1 PUSH2 0x1901 PUSH1 0xF0 SHL DUP2 MSTORE POP PUSH1 0x2 ADD DUP4 DUP2 MSTORE PUSH1 0x20 ADD DUP3 DUP2 MSTORE PUSH1 0x20 ADD SWAP3 POP POP POP PUSH1 0x40 MLOAD PUSH1 0x20 DUP2 DUP4 SUB SUB DUP2 MSTORE SWAP1 PUSH1 0x40 MSTORE DUP1 MLOAD SWAP1 PUSH1 0x20 ADD KECCAK256 SWAP1 POP SWAP2 SWAP1 POP JUMP JUMPDEST PUSH1 0x0 PUSH1 0x60 PUSH1 0x0 PUSH2 0x2EC7 DUP5 PUSH2 0x370B JUMP JUMPDEST SWAP1 POP PUSH2 0x2EE2 PUSH1 0x0 DUP3 PUSH1 0x3 DUP2 GT ISZERO PUSH2 0x2EDA JUMPI INVALID JUMPDEST EQ PUSH1 0xCE PUSH2 0x1C4E JUMP JUMPDEST PUSH1 0x0 PUSH2 0x2EED DUP6 PUSH2 0x372A JUMP JUMPDEST SWAP1 POP PUSH2 0x2EFB DUP2 MLOAD PUSH1 0x2 PUSH2 0x1EDF JUMP JUMPDEST PUSH2 0x2F04 DUP2 PUSH2 0x2269 JUMP JUMPDEST PUSH1 0x0 DUP1 PUSH2 0x2F0F PUSH2 0x22D5 JUMP JUMPDEST SWAP2 POP SWAP2 POP PUSH1 0x0 PUSH20 0x0 PUSH4 0xD83CA862 DUP6 DUP6 DUP6 PUSH1 0x40 MLOAD DUP5 PUSH4 0xFFFFFFFF AND PUSH1 0xE0 SHL DUP2 MSTORE PUSH1 0x4 ADD PUSH2 0x2F50 SWAP4 SWAP3 SWAP2 SWAP1 PUSH2 0x47D7 JUMP JUMPDEST PUSH1 0x20 PUSH1 0x40 MLOAD DUP1 DUP4 SUB DUP2 DUP7 DUP1 EXTCODESIZE ISZERO DUP1 ISZERO PUSH2 0x2F68 JUMPI PUSH1 0x0 DUP1 REVERT JUMPDEST POP GAS DELEGATECALL ISZERO DUP1 ISZERO PUSH2 0x2F7C JUMPI RETURNDATASIZE PUSH1 0x0 DUP1 RETURNDATACOPY RETURNDATASIZE PUSH1 0x0 REVERT JUMPDEST POP POP POP POP PUSH1 0x40 MLOAD RETURNDATASIZE PUSH1 0x1F NOT PUSH1 0x1F DUP3 ADD AND DUP3 ADD DUP1 PUSH1 0x40 MSTORE POP DUP2 ADD SWAP1 PUSH2 0x2FA0 SWAP2 SWAP1 PUSH2 0x4655 JUMP JUMPDEST SWAP1 POP PUSH32 0xAF65F1A72BF4F8BC48E8153858E1F7B307CE39C88361A677C0A79C2A1AE571EF DUP2 PUSH1 0x40 MLOAD PUSH2 0x2FD1 SWAP2 SWAP1 PUSH2 0x48EA JUMP JUMPDEST PUSH1 0x40 MLOAD DUP1 SWAP2 SUB SWAP1 LOG1 PUSH1 0x0 PUSH2 0x2FE7 DUP6 DUP4 DUP7 DUP7 PUSH2 0x2792 JUMP JUMPDEST SWAP1 POP PUSH1 0x0 PUSH2 0x302F PUSH2 0x3015 DUP4 DUP9 PUSH1 0x0 DUP2 MLOAD DUP2 LT PUSH2 0x2FFF JUMPI INVALID JUMPDEST PUSH1 0x20 MUL PUSH1 0x20 ADD ADD MLOAD PUSH2 0x33E4 SWAP1 SWAP2 SWAP1 PUSH4 0xFFFFFFFF AND JUMP JUMPDEST DUP8 PUSH1 0x1 DUP2 MLOAD DUP2 LT PUSH2 0x3022 JUMPI INVALID JUMPDEST PUSH1 0x20 MUL PUSH1 0x20 ADD ADD MLOAD PUSH2 0x1E80 JUMP JUMPDEST PUSH1 0x9 SWAP4 SWAP1 SWAP4 SSTORE POP SWAP1 SWAP12 SWAP4 SWAP11 POP SWAP3 SWAP9 POP POP POP POP POP POP POP POP POP JUMP JUMPDEST PUSH2 0x195D DUP3 DUP3 PUSH2 0x37DE JUMP JUMPDEST PUSH1 0x1 PUSH1 0x1 PUSH1 0xA0 SHL SUB SWAP2 DUP3 AND PUSH1 0x0 SWAP1 DUP2 MSTORE PUSH1 0x1 PUSH1 0x20 SWAP1 DUP2 MSTORE PUSH1 0x40 DUP1 DUP4 KECCAK256 SWAP4 SWAP1 SWAP5 AND DUP3 MSTORE SWAP2 SWAP1 SWAP2 MSTORE KECCAK256 SLOAD SWAP1 JUMP JUMPDEST PUSH1 0x40 DUP1 MLOAD PUSH1 0x2 DUP1 DUP3 MSTORE PUSH1 0x60 DUP1 DUP4 ADD DUP5 MSTORE SWAP3 PUSH1 0x0 SWAP3 SWAP2 SWAP1 PUSH1 0x20 DUP4 ADD SWAP1 DUP1 CALLDATASIZE DUP4 CALLDATACOPY ADD SWAP1 POP POP SWAP1 POP PUSH2 0x30AC PUSH1 0x1 PUSH2 0x3873 JUMP JUMPDEST DUP2 PUSH1 0x0 DUP2 MLOAD DUP2 LT PUSH2 0x30B9 JUMPI INVALID JUMPDEST PUSH1 0x20 MUL PUSH1 0x20 ADD ADD DUP2 DUP2 MSTORE POP POP PUSH2 0x30CF PUSH1 0x0 PUSH2 0x3873 JUMP JUMPDEST DUP2 PUSH1 0x1 DUP2 MLOAD DUP2 LT PUSH2 0x30DC JUMPI INVALID JUMPDEST PUSH1 0x20 SWAP1 DUP2 MUL SWAP2 SWAP1 SWAP2 ADD ADD MSTORE SWAP1 POP SWAP1 JUMP JUMPDEST PUSH1 0x2 DUP2 MLOAD LT ISZERO PUSH2 0x30FB JUMPI PUSH2 0x71C JUMP JUMPDEST PUSH1 0x0 DUP2 PUSH1 0x0 DUP2 MLOAD DUP2 LT PUSH2 0x310A JUMPI INVALID JUMPDEST PUSH1 0x20 MUL PUSH1 0x20 ADD ADD MLOAD SWAP1 POP PUSH1 0x0 PUSH1 0x1 SWAP1 POP JUMPDEST DUP3 MLOAD DUP2 LT ISZERO PUSH2 0x1A39 JUMPI PUSH1 0x0 DUP4 DUP3 DUP2 MLOAD DUP2 LT PUSH2 0x3132 JUMPI INVALID JUMPDEST PUSH1 0x20 MUL PUSH1 0x20 ADD ADD MLOAD SWAP1 POP PUSH2 0x315B DUP2 PUSH1 0x1 PUSH1 0x1 PUSH1 0xA0 SHL SUB AND DUP5 PUSH1 0x1 PUSH1 0x1 PUSH1 0xA0 SHL SUB AND LT PUSH1 0x65 PUSH2 0x1C4E JUMP JUMPDEST SWAP2 POP PUSH1 0x1 ADD PUSH2 0x311B JUMP JUMPDEST DUP2 PUSH2 0x195D JUMPI PUSH2 0x195D DUP2 PUSH2 0x38C7 JUMP JUMPDEST PUSH1 0x0 PUSH2 0x7BD PUSH2 0x3193 DUP4 PUSH1 0x20 ADD MLOAD DUP6 PUSH1 0x20 ADD MLOAD PUSH2 0x1A78 SWAP1 SWAP2 SWAP1 PUSH4 0xFFFFFFFF AND JUMP JUMPDEST DUP4 MLOAD DUP6 MLOAD PUSH2 0x31A0 SWAP2 PUSH2 0x1A78 JUMP JUMPDEST SWAP1 PUSH2 0x1AB4 JUMP JUMPDEST PUSH1 0x0 PUSH20 0xBA1BA1BA1BA1BA1BA1BA1BA1BA1BA1BA1BA1BA1B PUSH2 0x31C5 PUSH2 0x108A JUMP JUMPDEST PUSH1 0x1 PUSH1 0x1 PUSH1 0xA0 SHL SUB AND EQ ISZERO DUP1 ISZERO PUSH2 0x31E0 JUMPI POP PUSH2 0x31E0 DUP4 PUSH2 0x38D7 JUMP JUMPDEST ISZERO PUSH2 0x3208 JUMPI PUSH2 0x31ED PUSH2 0x108A JUMP JUMPDEST PUSH1 0x1 PUSH1 0x1 PUSH1 0xA0 SHL SUB AND CALLER PUSH1 0x1 PUSH1 0x1 PUSH1 0xA0 SHL SUB AND EQ SWAP1 POP PUSH2 0x654 JUMP JUMPDEST PUSH2 0x3210 PUSH2 0x2DF2 JUMP JUMPDEST PUSH1 0x1 PUSH1 0x1 PUSH1 0xA0 SHL SUB AND PUSH4 0x9BE2A884 DUP5 DUP5 ADDRESS PUSH1 0x40 MLOAD DUP5 PUSH4 0xFFFFFFFF AND PUSH1 0xE0 SHL DUP2 MSTORE PUSH1 0x4 ADD DUP1 DUP5 DUP2 MSTORE PUSH1 0x20 ADD DUP4 PUSH1 0x1 PUSH1 0x1 PUSH1 0xA0 SHL SUB AND DUP2 MSTORE PUSH1 0x20 ADD DUP3 PUSH1 0x1 PUSH1 0x1 PUSH1 0xA0 SHL SUB AND DUP2 MSTORE PUSH1 0x20 ADD SWAP4 POP POP POP POP PUSH1 0x20 PUSH1 0x40 MLOAD DUP1 DUP4 SUB DUP2 DUP7 DUP1 EXTCODESIZE ISZERO DUP1 ISZERO PUSH2 0x3275 JUMPI PUSH1 0x0 DUP1 REVERT JUMPDEST POP GAS STATICCALL ISZERO DUP1 ISZERO PUSH2 0x3289 JUMPI RETURNDATASIZE PUSH1 0x0 DUP1 RETURNDATACOPY RETURNDATASIZE PUSH1 0x0 REVERT JUMPDEST POP POP POP POP PUSH1 0x40 MLOAD RETURNDATASIZE PUSH1 0x20 DUP2 LT ISZERO PUSH2 0x329F JUMPI PUSH1 0x0 DUP1 REVERT JUMPDEST POP MLOAD SWAP1 POP PUSH2 0x654 JUMP JUMPDEST PUSH1 0x0 PUSH2 0x32B7 DUP5 DUP5 GT ISZERO DUP4 PUSH2 0x1C4E JUMP JUMPDEST POP POP SWAP1 SUB SWAP1 JUMP JUMPDEST CHAINID SWAP1 JUMP JUMPDEST PUSH1 0x0 DUP3 DUP3 SHR PUSH3 0x3FFFFF AND PUSH3 0x1FFFFF DUP2 SGT PUSH2 0x32DC JUMPI DUP1 PUSH2 0x2B4A JUMP JUMPDEST PUSH3 0x3FFFFF NOT OR SWAP4 SWAP3 POP POP POP JUMP JUMPDEST SHR PUSH4 0x7FFFFFFF AND SWAP1 JUMP JUMPDEST SHR PUSH2 0x3FF AND SWAP1 JUMP JUMPDEST SHR PUSH1 0x1 SWAP1 DUP2 AND EQ SWAP1 JUMP JUMPDEST SHR PUSH8 0xFFFFFFFFFFFFFFFF AND SWAP1 JUMP JUMPDEST PUSH1 0x0 DUP1 PUSH1 0x0 DUP1 PUSH2 0x3325 PUSH1 0x9 SLOAD DUP7 PUSH2 0x3909 JUMP JUMPDEST SWAP4 POP SWAP4 POP SWAP4 POP SWAP4 POP PUSH2 0x3339 DUP5 DUP5 DUP5 DUP5 PUSH2 0x3972 JUMP JUMPDEST POP POP POP POP POP JUMP JUMPDEST PUSH1 0x0 PUSH1 0x60 PUSH1 0x0 PUSH2 0x334F DUP5 PUSH2 0x370B JUMP JUMPDEST SWAP1 POP PUSH1 0x1 DUP2 PUSH1 0x3 DUP2 GT ISZERO PUSH2 0x335F JUMPI INVALID JUMPDEST EQ ISZERO PUSH2 0x3379 JUMPI PUSH2 0x336F DUP6 DUP6 PUSH2 0x3998 JUMP JUMPDEST SWAP1 SWAP4 POP SWAP2 POP PUSH2 0x3384 JUMP JUMPDEST PUSH2 0x3384 PUSH2 0x150 PUSH2 0x29D2 JUMP JUMPDEST POP SWAP3 POP SWAP3 SWAP1 POP JUMP JUMPDEST PUSH1 0x0 DUP2 ISZERO PUSH2 0x33BE JUMPI PUSH1 0x0 PUSH2 0x33AA DUP5 PUSH2 0x33A4 DUP9 DUP9 PUSH2 0x2BF8 JUMP JUMPDEST SWAP1 PUSH2 0x2D8C JUMP JUMPDEST SWAP1 POP PUSH2 0x33B6 DUP7 DUP3 PUSH2 0x39CA JUMP JUMPDEST SWAP2 POP POP PUSH2 0x2B4A JUMP JUMPDEST PUSH1 0x0 PUSH2 0x33CE DUP5 PUSH2 0xA7F DUP9 DUP9 PUSH2 0x33E4 JUMP JUMPDEST SWAP1 POP PUSH2 0x33DA DUP7 DUP3 PUSH2 0x2C4D JUMP JUMPDEST SWAP7 SWAP6 POP POP POP POP POP POP JUMP JUMPDEST PUSH1 0x0 DUP3 DUP3 MUL DUP4 ISZERO DUP1 PUSH2 0x33FE JUMPI POP DUP3 DUP5 DUP3 DUP2 PUSH2 0x33FB JUMPI INVALID JUMPDEST DIV EQ JUMPDEST PUSH2 0x340E JUMPI PUSH2 0x340E PUSH1 0x0 PUSH1 0x3 PUSH2 0x1C4E JUMP JUMPDEST PUSH8 0xDE0B6B3A7640000 DUP2 PUSH2 0x2260 JUMP JUMPDEST PUSH2 0x3434 PUSH1 0x1 PUSH1 0x1 PUSH1 0xA0 SHL SUB DUP4 AND ISZERO ISZERO PUSH2 0x19B PUSH2 0x1C4E JUMP JUMPDEST PUSH2 0x3440 DUP3 PUSH1 0x0 DUP4 PUSH2 0x1A39 JUMP JUMPDEST PUSH1 0x1 PUSH1 0x1 PUSH1 0xA0 SHL SUB DUP3 AND PUSH1 0x0 SWAP1 DUP2 MSTORE PUSH1 0x20 DUP2 SWAP1 MSTORE PUSH1 0x40 SWAP1 KECCAK256 SLOAD PUSH2 0x3466 SWAP1 DUP3 PUSH2 0x1A1 PUSH2 0x32A8 JUMP JUMPDEST PUSH1 0x1 PUSH1 0x1 PUSH1 0xA0 SHL SUB DUP4 AND PUSH1 0x0 SWAP1 DUP2 MSTORE PUSH1 0x20 DUP2 SWAP1 MSTORE PUSH1 0x40 SWAP1 KECCAK256 SSTORE PUSH1 0x2 SLOAD PUSH2 0x348C SWAP1 DUP3 PUSH2 0x39E2 JUMP JUMPDEST PUSH1 0x2 SSTORE PUSH1 0x40 DUP1 MLOAD DUP3 DUP2 MSTORE SWAP1 MLOAD PUSH1 0x0 SWAP2 PUSH1 0x1 PUSH1 0x1 PUSH1 0xA0 SHL SUB DUP6 AND SWAP2 PUSH32 0xDDF252AD1BE2C89B69C2B068FC378DAA952BA7F163C4A11628F55A4DF523B3EF SWAP2 DUP2 SWAP1 SUB PUSH1 0x20 ADD SWAP1 LOG3 POP POP JUMP JUMPDEST PUSH1 0x0 PUSH1 0x60 PUSH1 0x0 PUSH2 0x34E3 DUP5 PUSH2 0x370B JUMP JUMPDEST SWAP1 POP PUSH1 0x3 DUP2 PUSH1 0x3 DUP2 GT ISZERO PUSH2 0x34F3 JUMPI INVALID JUMPDEST EQ ISZERO PUSH2 0x3503 JUMPI PUSH2 0x336F DUP6 DUP6 PUSH2 0x39F0 JUMP JUMPDEST PUSH2 0x3384 PUSH2 0x136 PUSH2 0x29D2 JUMP JUMPDEST PUSH1 0x40 DUP1 MLOAD PUSH1 0x60 DUP2 ADD DUP3 MSTORE PUSH1 0xA SLOAD PUSH1 0xFF DUP2 AND ISZERO ISZERO DUP3 MSTORE PUSH2 0x100 DUP2 DIV PUSH1 0x1 PUSH1 0x1 PUSH1 0x78 SHL SUB AND PUSH1 0x20 DUP4 ADD DUP2 SWAP1 MSTORE PUSH1 0x1 PUSH1 0x80 SHL SWAP1 SWAP2 DIV PUSH1 0x1 PUSH1 0x1 PUSH1 0x80 SHL SUB AND SWAP3 DUP3 ADD SWAP3 SWAP1 SWAP3 MSTORE SWAP1 PUSH2 0x355B DUP6 DUP6 PUSH2 0x39CA JUMP JUMPDEST GT ISZERO PUSH1 0x40 MLOAD DUP1 PUSH1 0x40 ADD PUSH1 0x40 MSTORE DUP1 PUSH1 0x1A DUP2 MSTORE PUSH1 0x20 ADD PUSH32 0x6F7665722061646472657373206C697175696469747920636170000000000000 DUP2 MSTORE POP SWAP1 PUSH2 0x35B1 JUMPI PUSH1 0x40 MLOAD PUSH3 0x461BCD PUSH1 0xE5 SHL DUP2 MSTORE PUSH1 0x4 ADD PUSH2 0x6AB SWAP2 SWAP1 PUSH2 0x4934 JUMP JUMPDEST POP PUSH1 0x40 DUP2 ADD MLOAD PUSH1 0x1 PUSH1 0x1 PUSH1 0x80 SHL SUB AND PUSH2 0x35CA DUP6 DUP5 PUSH2 0x39CA JUMP JUMPDEST GT ISZERO PUSH1 0x40 MLOAD DUP1 PUSH1 0x40 ADD PUSH1 0x40 MSTORE DUP1 PUSH1 0x19 DUP2 MSTORE PUSH1 0x20 ADD PUSH32 0x6F76657220676C6F62616C206C69717569646974792063617000000000000000 DUP2 MSTORE POP SWAP1 PUSH2 0x3339 JUMPI PUSH1 0x40 MLOAD PUSH3 0x461BCD PUSH1 0xE5 SHL DUP2 MSTORE PUSH1 0x4 ADD PUSH2 0x6AB SWAP2 SWAP1 PUSH2 0x4934 JUMP JUMPDEST PUSH1 0x0 DUP1 PUSH1 0x0 PUSH2 0x362D PUSH2 0x10AE JUMP JUMPDEST PUSH1 0x1 PUSH1 0x1 PUSH1 0xA0 SHL SUB AND PUSH4 0xB05F8E48 PUSH2 0x3643 PUSH2 0x7F5 JUMP JUMPDEST DUP8 PUSH1 0x40 MLOAD DUP4 PUSH4 0xFFFFFFFF AND PUSH1 0xE0 SHL DUP2 MSTORE PUSH1 0x4 ADD PUSH2 0x3661 SWAP3 SWAP2 SWAP1 PUSH2 0x48F3 JUMP JUMPDEST PUSH1 0x80 PUSH1 0x40 MLOAD DUP1 DUP4 SUB DUP2 DUP7 DUP1 EXTCODESIZE ISZERO DUP1 ISZERO PUSH2 0x3679 JUMPI PUSH1 0x0 DUP1 REVERT JUMPDEST POP GAS STATICCALL ISZERO DUP1 ISZERO PUSH2 0x368D JUMPI RETURNDATASIZE PUSH1 0x0 DUP1 RETURNDATACOPY RETURNDATASIZE PUSH1 0x0 REVERT JUMPDEST POP POP POP POP PUSH1 0x40 MLOAD RETURNDATASIZE PUSH1 0x1F NOT PUSH1 0x1F DUP3 ADD AND DUP3 ADD DUP1 PUSH1 0x40 MSTORE POP DUP2 ADD SWAP1 PUSH2 0x36B1 SWAP2 SWAP1 PUSH2 0x466D JUMP JUMPDEST POP POP DUP2 DUP2 ADD SWAP5 POP SWAP1 SWAP3 POP SWAP1 POP PUSH2 0x2829 DUP4 DUP6 PUSH2 0x33E4 JUMP JUMPDEST PUSH1 0x0 PUSH1 0x1 PUSH1 0xFF SHL DUP3 LT PUSH2 0x29CE JUMPI PUSH1 0x40 MLOAD PUSH3 0x461BCD PUSH1 0xE5 SHL DUP2 MSTORE PUSH1 0x4 ADD DUP1 DUP1 PUSH1 0x20 ADD DUP3 DUP2 SUB DUP3 MSTORE PUSH1 0x28 DUP2 MSTORE PUSH1 0x20 ADD DUP1 PUSH2 0x4AC4 PUSH1 0x28 SWAP2 CODECOPY PUSH1 0x40 ADD SWAP2 POP POP PUSH1 0x40 MLOAD DUP1 SWAP2 SUB SWAP1 REVERT JUMPDEST PUSH1 0x0 DUP2 DUP1 PUSH1 0x20 ADD SWAP1 MLOAD PUSH1 0x20 DUP2 LT ISZERO PUSH2 0x3722 JUMPI PUSH1 0x0 DUP1 REVERT JUMPDEST POP MLOAD SWAP3 SWAP2 POP POP JUMP JUMPDEST PUSH1 0x60 DUP2 DUP1 PUSH1 0x20 ADD SWAP1 MLOAD PUSH1 0x40 DUP2 LT ISZERO PUSH2 0x3741 JUMPI PUSH1 0x0 DUP1 REVERT JUMPDEST DUP2 MLOAD PUSH1 0x20 DUP4 ADD DUP1 MLOAD PUSH1 0x40 MLOAD SWAP3 SWAP5 SWAP3 SWAP4 DUP4 ADD SWAP3 SWAP2 SWAP1 DUP5 PUSH5 0x100000000 DUP3 GT ISZERO PUSH2 0x3768 JUMPI PUSH1 0x0 DUP1 REVERT JUMPDEST SWAP1 DUP4 ADD SWAP1 PUSH1 0x20 DUP3 ADD DUP6 DUP2 GT ISZERO PUSH2 0x377D JUMPI PUSH1 0x0 DUP1 REVERT JUMPDEST DUP3 MLOAD DUP7 PUSH1 0x20 DUP3 MUL DUP4 ADD GT PUSH5 0x100000000 DUP3 GT OR ISZERO PUSH2 0x379A JUMPI PUSH1 0x0 DUP1 REVERT JUMPDEST DUP3 MSTORE POP DUP2 MLOAD PUSH1 0x20 SWAP2 DUP3 ADD SWAP3 DUP3 ADD SWAP2 MUL DUP1 DUP4 DUP4 PUSH1 0x0 JUMPDEST DUP4 DUP2 LT ISZERO PUSH2 0x37C7 JUMPI DUP2 DUP2 ADD MLOAD DUP4 DUP3 ADD MSTORE PUSH1 0x20 ADD PUSH2 0x37AF JUMP JUMPDEST POP POP POP POP SWAP2 SWAP1 SWAP2 ADD PUSH1 0x40 MSTORE POP SWAP3 SWAP7 SWAP6 POP POP POP POP POP POP JUMP JUMPDEST PUSH2 0x37EA PUSH1 0x0 DUP4 DUP4 PUSH2 0x1A39 JUMP JUMPDEST PUSH1 0x2 SLOAD PUSH2 0x37F7 SWAP1 DUP3 PUSH2 0x1E80 JUMP JUMPDEST PUSH1 0x2 SSTORE PUSH1 0x1 PUSH1 0x1 PUSH1 0xA0 SHL SUB DUP3 AND PUSH1 0x0 SWAP1 DUP2 MSTORE PUSH1 0x20 DUP2 SWAP1 MSTORE PUSH1 0x40 SWAP1 KECCAK256 SLOAD PUSH2 0x381D SWAP1 DUP3 PUSH2 0x1E80 JUMP JUMPDEST PUSH1 0x1 PUSH1 0x1 PUSH1 0xA0 SHL SUB DUP4 AND PUSH1 0x0 DUP2 DUP2 MSTORE PUSH1 0x20 DUP2 DUP2 MSTORE PUSH1 0x40 DUP1 DUP4 KECCAK256 SWAP5 SWAP1 SWAP5 SSTORE DUP4 MLOAD DUP6 DUP2 MSTORE SWAP4 MLOAD SWAP3 SWAP4 SWAP2 SWAP3 PUSH32 0xDDF252AD1BE2C89B69C2B068FC378DAA952BA7F163C4A11628F55A4DF523B3EF SWAP3 DUP2 SWAP1 SUB SWAP1 SWAP2 ADD SWAP1 LOG3 POP POP JUMP JUMPDEST PUSH1 0x0 DUP2 PUSH2 0x38A0 JUMPI PUSH32 0x0 PUSH2 0x654 JUMP JUMPDEST POP PUSH32 0x0 SWAP2 SWAP1 POP JUMP JUMPDEST PUSH2 0x71C DUP2 PUSH3 0x23ACA9 PUSH1 0xE9 SHL PUSH2 0x3A15 JUMP JUMPDEST PUSH1 0x0 PUSH2 0x38E9 PUSH4 0x1C74C917 PUSH1 0xE1 SHL PUSH2 0x100C JUMP JUMPDEST DUP3 EQ DUP1 PUSH2 0x654 JUMPI POP PUSH2 0x3901 PUSH4 0x50DD6ED9 PUSH1 0xE0 SHL PUSH2 0x100C JUMP JUMPDEST SWAP1 SWAP2 EQ SWAP2 SWAP1 POP JUMP JUMPDEST PUSH1 0x0 DUP1 PUSH1 0x0 DUP1 PUSH1 0x0 DUP1 PUSH1 0x0 DUP1 PUSH2 0x391D PUSH2 0x3A76 JUMP JUMPDEST SWAP4 POP SWAP4 POP SWAP4 POP SWAP4 POP DUP4 PUSH1 0x0 EQ ISZERO PUSH2 0x3942 JUMPI PUSH1 0x0 SWAP8 POP DUP8 SWAP7 POP SWAP1 SWAP5 POP SWAP3 POP PUSH2 0x3969 SWAP2 POP POP JUMP JUMPDEST PUSH1 0x0 DUP1 PUSH2 0x3959 DUP13 DUP13 PUSH2 0x3952 PUSH2 0x71F JUMP JUMPDEST DUP10 DUP10 PUSH2 0x3BE8 JUMP JUMPDEST SWAP1 SWAP11 POP SWAP9 POP SWAP3 SWAP7 POP SWAP1 SWAP5 POP POP POP POP POP JUMPDEST SWAP3 SWAP6 SWAP2 SWAP5 POP SWAP3 POP JUMP JUMPDEST DUP4 ISZERO PUSH2 0x3982 JUMPI PUSH2 0x3982 DUP3 DUP6 PUSH2 0x3048 JUMP JUMPDEST DUP3 ISZERO PUSH2 0x3992 JUMPI PUSH2 0x3992 DUP2 DUP5 PUSH2 0x3048 JUMP JUMPDEST POP POP POP POP JUMP JUMPDEST PUSH1 0x0 PUSH1 0x60 PUSH1 0x0 PUSH2 0x39A7 DUP5 PUSH2 0x3C83 JUMP JUMPDEST SWAP1 POP PUSH1 0x0 PUSH2 0x39BD DUP7 DUP4 PUSH2 0x39B8 PUSH2 0x71F JUMP JUMPDEST PUSH2 0x3CA5 JUMP JUMPDEST SWAP2 SWAP7 SWAP2 SWAP6 POP SWAP1 SWAP4 POP POP POP POP JUMP JUMPDEST PUSH1 0x0 DUP3 DUP3 ADD DUP4 DUP2 LT ISZERO PUSH2 0x7BD JUMPI PUSH2 0x7BD PUSH1 0x0 DUP1 PUSH2 0x1C4E JUMP JUMPDEST PUSH1 0x0 PUSH2 0x7BD DUP4 DUP4 PUSH1 0x1 PUSH2 0x32A8 JUMP JUMPDEST PUSH1 0x0 PUSH1 0x60 PUSH1 0x0 PUSH2 0x39FF DUP5 PUSH2 0x3C83 JUMP JUMPDEST SWAP1 POP PUSH1 0x0 PUSH2 0x39BD DUP7 DUP4 PUSH2 0x3A10 PUSH2 0x71F JUMP JUMPDEST PUSH2 0x3D2B JUMP JUMPDEST PUSH3 0x461BCD PUSH1 0xE5 SHL PUSH1 0x0 SWAP1 DUP2 MSTORE PUSH1 0x20 PUSH1 0x4 MSTORE PUSH1 0x7 PUSH1 0x24 MSTORE PUSH1 0xA DUP1 DUP5 DIV DUP2 DUP2 MOD PUSH1 0x30 SWAP1 DUP2 ADD PUSH1 0x8 SHL SWAP6 DUP4 SWAP1 MOD SWAP6 SWAP1 SWAP6 ADD SWAP1 DUP3 SWAP1 DIV SWAP2 DUP3 MOD DUP6 ADD PUSH1 0x10 SHL ADD PUSH1 0x23 PUSH4 0xFFFFFF00 PUSH1 0xE0 DUP7 SWAP1 SHR AND ADD PUSH1 0x18 SHL ADD SWAP1 SWAP4 ADD PUSH1 0xC8 SHL PUSH1 0x44 MSTORE PUSH1 0xE8 DUP3 SWAP1 SHR SWAP1 PUSH1 0x64 SWAP1 REVERT JUMPDEST PUSH1 0xD SLOAD PUSH1 0x0 SWAP1 DUP2 SWAP1 DUP2 SWAP1 DUP2 SWAP1 PUSH2 0x3A9D SWAP1 PUSH1 0x1 PUSH1 0x1 PUSH1 0xA0 SHL SUB AND ADDRESS PUSH4 0x45434C5 PUSH1 0xE4 SHL PUSH2 0x3DC7 JUMP JUMPDEST PUSH1 0xD SLOAD PUSH2 0x3ABB SWAP1 PUSH1 0x1 PUSH1 0x1 PUSH1 0xA0 SHL SUB AND ADDRESS PUSH4 0x45434C5 PUSH1 0xE4 SHL PUSH2 0x3DEE JUMP JUMPDEST PUSH1 0xD SLOAD PUSH1 0x40 MLOAD PUSH4 0x21F8A721 PUSH1 0xE0 SHL DUP2 MSTORE PUSH1 0x1 PUSH1 0x1 PUSH1 0xA0 SHL SUB SWAP1 SWAP2 AND SWAP1 PUSH4 0x21F8A721 SWAP1 PUSH2 0x3AFB SWAP1 PUSH13 0x4759524F5F5452454153555259 PUSH1 0x98 SHL SWAP1 PUSH1 0x4 ADD PUSH2 0x48EA JUMP JUMPDEST PUSH1 0x20 PUSH1 0x40 MLOAD DUP1 DUP4 SUB DUP2 DUP7 DUP1 EXTCODESIZE ISZERO DUP1 ISZERO PUSH2 0x3B13 JUMPI PUSH1 0x0 DUP1 REVERT JUMPDEST POP GAS STATICCALL ISZERO DUP1 ISZERO PUSH2 0x3B27 JUMPI RETURNDATASIZE PUSH1 0x0 DUP1 RETURNDATACOPY RETURNDATASIZE PUSH1 0x0 REVERT JUMPDEST POP POP POP POP PUSH1 0x40 MLOAD RETURNDATASIZE PUSH1 0x1F NOT PUSH1 0x1F DUP3 ADD AND DUP3 ADD DUP1 PUSH1 0x40 MSTORE POP DUP2 ADD SWAP1 PUSH2 0x3B4B SWAP2 SWAP1 PUSH2 0x4222 JUMP JUMPDEST PUSH1 0xD SLOAD PUSH1 0x40 MLOAD PUSH4 0x21F8A721 PUSH1 0xE0 SHL DUP2 MSTORE PUSH1 0x1 PUSH1 0x1 PUSH1 0xA0 SHL SUB SWAP1 SWAP2 AND SWAP1 PUSH4 0x21F8A721 SWAP1 PUSH2 0x3B8A SWAP1 PUSH12 0x42414C5F5452454153555259 PUSH1 0xA0 SHL SWAP1 PUSH1 0x4 ADD PUSH2 0x48EA JUMP JUMPDEST PUSH1 0x20 PUSH1 0x40 MLOAD DUP1 DUP4 SUB DUP2 DUP7 DUP1 EXTCODESIZE ISZERO DUP1 ISZERO PUSH2 0x3BA2 JUMPI PUSH1 0x0 DUP1 REVERT JUMPDEST POP GAS STATICCALL ISZERO DUP1 ISZERO PUSH2 0x3BB6 JUMPI RETURNDATASIZE PUSH1 0x0 DUP1 RETURNDATACOPY RETURNDATASIZE PUSH1 0x0 REVERT JUMPDEST POP POP POP POP PUSH1 0x40 MLOAD RETURNDATASIZE PUSH1 0x1F NOT PUSH1 0x1F DUP3 ADD AND DUP3 ADD DUP1 PUSH1 0x40 MSTORE POP DUP2 ADD SWAP1 PUSH2 0x3BDA SWAP2 SWAP1 PUSH2 0x4222 JUMP JUMPDEST SWAP4 POP SWAP4 POP SWAP4 POP SWAP4 POP SWAP1 SWAP2 SWAP3 SWAP4 JUMP JUMPDEST PUSH1 0x0 DUP1 DUP7 DUP7 GT PUSH2 0x3BFD JUMPI POP PUSH1 0x0 SWAP1 POP DUP1 PUSH2 0x3C79 JUMP JUMPDEST PUSH1 0x0 PUSH2 0x3C1D DUP6 PUSH2 0x3C17 PUSH2 0x3C10 DUP11 DUP13 PUSH2 0x2C4D JUMP JUMPDEST DUP10 SWAP1 PUSH2 0x33E4 JUMP JUMPDEST SWAP1 PUSH2 0x33E4 JUMP JUMPDEST SWAP1 POP PUSH1 0x0 PUSH2 0x3C35 PUSH2 0x3C2E DUP10 DUP12 PUSH2 0x2C4D JUMP JUMPDEST DUP8 SWAP1 PUSH2 0x33E4 JUMP JUMPDEST SWAP1 POP PUSH1 0x0 PUSH2 0x3C43 DUP10 DUP4 PUSH2 0x2C4D JUMP JUMPDEST SWAP1 POP PUSH1 0x0 PUSH2 0x3C51 DUP5 DUP4 PUSH2 0x220F JUMP JUMPDEST SWAP1 POP PUSH1 0x0 PUSH2 0x3C5F DUP9 DUP4 PUSH2 0x33E4 JUMP JUMPDEST SWAP1 POP PUSH1 0x0 PUSH2 0x3C6D DUP4 DUP4 PUSH2 0x2C4D JUMP JUMPDEST SWAP2 SWAP8 POP SWAP1 SWAP6 POP POP POP POP POP POP JUMPDEST SWAP6 POP SWAP6 SWAP4 POP POP POP POP JUMP JUMPDEST PUSH1 0x0 DUP2 DUP1 PUSH1 0x20 ADD SWAP1 MLOAD PUSH1 0x40 DUP2 LT ISZERO PUSH2 0x3C9A JUMPI PUSH1 0x0 DUP1 REVERT JUMPDEST POP PUSH1 0x20 ADD MLOAD SWAP3 SWAP2 POP POP JUMP JUMPDEST PUSH1 0x60 DUP4 MLOAD PUSH8 0xFFFFFFFFFFFFFFFF DUP2 GT DUP1 ISZERO PUSH2 0x3CBF JUMPI PUSH1 0x0 DUP1 REVERT JUMPDEST POP PUSH1 0x40 MLOAD SWAP1 DUP1 DUP3 MSTORE DUP1 PUSH1 0x20 MUL PUSH1 0x20 ADD DUP3 ADD PUSH1 0x40 MSTORE DUP1 ISZERO PUSH2 0x3CE9 JUMPI DUP2 PUSH1 0x20 ADD PUSH1 0x20 DUP3 MUL DUP1 CALLDATASIZE DUP4 CALLDATACOPY ADD SWAP1 POP JUMPDEST POP SWAP1 POP PUSH1 0x0 JUMPDEST DUP5 MLOAD DUP2 LT ISZERO PUSH2 0x159B JUMPI PUSH2 0x3D0C DUP4 PUSH2 0xA7F DUP7 DUP9 DUP6 DUP2 MLOAD DUP2 LT PUSH2 0x2FFF JUMPI INVALID JUMPDEST DUP3 DUP3 DUP2 MLOAD DUP2 LT PUSH2 0x3D18 JUMPI INVALID JUMPDEST PUSH1 0x20 SWAP1 DUP2 MUL SWAP2 SWAP1 SWAP2 ADD ADD MSTORE PUSH1 0x1 ADD PUSH2 0x3CEF JUMP JUMPDEST PUSH1 0x60 DUP4 MLOAD PUSH8 0xFFFFFFFFFFFFFFFF DUP2 GT DUP1 ISZERO PUSH2 0x3D45 JUMPI PUSH1 0x0 DUP1 REVERT JUMPDEST POP PUSH1 0x40 MLOAD SWAP1 DUP1 DUP3 MSTORE DUP1 PUSH1 0x20 MUL PUSH1 0x20 ADD DUP3 ADD PUSH1 0x40 MSTORE DUP1 ISZERO PUSH2 0x3D6F JUMPI DUP2 PUSH1 0x20 ADD PUSH1 0x20 DUP3 MUL DUP1 CALLDATASIZE DUP4 CALLDATACOPY ADD SWAP1 POP JUMPDEST POP SWAP1 POP PUSH1 0x0 JUMPDEST DUP5 MLOAD DUP2 LT ISZERO PUSH2 0x159B JUMPI PUSH2 0x3DA8 DUP4 PUSH2 0x33A4 DUP7 DUP9 DUP6 DUP2 MLOAD DUP2 LT PUSH2 0x3D92 JUMPI INVALID JUMPDEST PUSH1 0x20 MUL PUSH1 0x20 ADD ADD MLOAD PUSH2 0x2BF8 SWAP1 SWAP2 SWAP1 PUSH4 0xFFFFFFFF AND JUMP JUMPDEST DUP3 DUP3 DUP2 MLOAD DUP2 LT PUSH2 0x3DB4 JUMPI INVALID JUMPDEST PUSH1 0x20 SWAP1 DUP2 MUL SWAP2 SWAP1 SWAP2 ADD ADD MSTORE PUSH1 0x1 ADD PUSH2 0x3D75 JUMP JUMPDEST PUSH1 0x0 PUSH2 0x2B4A DUP5 PUSH22 0x50524F544F434F4C5F535741505F4645455F50455243 PUSH1 0x50 SHL DUP5 DUP7 PUSH2 0x3E18 JUMP JUMPDEST PUSH1 0x0 PUSH2 0x2B4A DUP5 PUSH32 0x50524F544F434F4C5F4645455F4759524F5F504F5254494F4E00000000000000 DUP5 DUP7 JUMPDEST PUSH1 0x40 DUP1 MLOAD PUSH1 0x20 DUP1 DUP3 ADD DUP7 SWAP1 MSTORE PUSH1 0x1 PUSH1 0x1 PUSH1 0xA0 SHL SUB DUP1 DUP6 AND DUP4 DUP6 ADD MSTORE DUP4 MLOAD DUP1 DUP5 SUB DUP6 ADD DUP2 MSTORE PUSH1 0x60 DUP5 ADD DUP1 DUP7 MSTORE DUP2 MLOAD SWAP2 DUP5 ADD SWAP2 SWAP1 SWAP2 KECCAK256 PUSH4 0x696EB375 PUSH1 0xE0 SHL SWAP1 SWAP2 MSTORE PUSH1 0x64 DUP5 ADD DUP2 SWAP1 MSTORE SWAP4 MLOAD PUSH1 0x0 SWAP5 SWAP4 SWAP2 DUP10 AND SWAP3 PUSH4 0x696EB375 SWAP3 PUSH1 0x84 DUP1 DUP3 ADD SWAP4 SWAP2 DUP3 SWAP1 SUB ADD DUP2 DUP7 DUP1 EXTCODESIZE ISZERO DUP1 ISZERO PUSH2 0x3E89 JUMPI PUSH1 0x0 DUP1 REVERT JUMPDEST POP GAS STATICCALL ISZERO DUP1 ISZERO PUSH2 0x3E9D JUMPI RETURNDATASIZE PUSH1 0x0 DUP1 RETURNDATACOPY RETURNDATASIZE PUSH1 0x0 REVERT JUMPDEST POP POP POP POP PUSH1 0x40 MLOAD RETURNDATASIZE PUSH1 0x20 DUP2 LT ISZERO PUSH2 0x3EB3 JUMPI PUSH1 0x0 DUP1 REVERT JUMPDEST POP MLOAD ISZERO PUSH2 0x3F33 JUMPI DUP6 PUSH1 0x1 PUSH1 0x1 PUSH1 0xA0 SHL SUB AND PUSH4 0xBD02D0F5 DUP3 PUSH1 0x40 MLOAD DUP3 PUSH4 0xFFFFFFFF AND PUSH1 0xE0 SHL DUP2 MSTORE PUSH1 0x4 ADD DUP1 DUP3 DUP2 MSTORE PUSH1 0x20 ADD SWAP2 POP POP PUSH1 0x20 PUSH1 0x40 MLOAD DUP1 DUP4 SUB DUP2 DUP7 DUP1 EXTCODESIZE ISZERO DUP1 ISZERO PUSH2 0x3EFE JUMPI PUSH1 0x0 DUP1 REVERT JUMPDEST POP GAS STATICCALL ISZERO DUP1 ISZERO PUSH2 0x3F12 JUMPI RETURNDATASIZE PUSH1 0x0 DUP1 RETURNDATACOPY RETURNDATASIZE PUSH1 0x0 REVERT JUMPDEST POP POP POP POP PUSH1 0x40 MLOAD RETURNDATASIZE PUSH1 0x20 DUP2 LT ISZERO PUSH2 0x3F28 JUMPI PUSH1 0x0 DUP1 REVERT JUMPDEST POP MLOAD SWAP2 POP PUSH2 0x2B4A SWAP1 POP JUMP JUMPDEST PUSH1 0x40 DUP1 MLOAD PUSH1 0x20 DUP1 DUP3 ADD DUP9 SWAP1 MSTORE DUP2 DUP4 ADD DUP8 SWAP1 MSTORE DUP3 MLOAD DUP1 DUP4 SUB DUP5 ADD DUP2 MSTORE PUSH1 0x60 DUP4 ADD DUP1 DUP6 MSTORE DUP2 MLOAD SWAP2 DUP4 ADD SWAP2 SWAP1 SWAP2 KECCAK256 PUSH4 0x696EB375 PUSH1 0xE0 SHL SWAP1 SWAP2 MSTORE PUSH1 0x64 DUP4 ADD DUP2 SWAP1 MSTORE SWAP3 MLOAD PUSH1 0x1 PUSH1 0x1 PUSH1 0xA0 SHL SUB DUP11 AND SWAP3 PUSH4 0x696EB375 SWAP3 PUSH1 0x84 DUP1 DUP4 ADD SWAP4 SWAP2 SWAP3 DUP3 SWAP1 SUB ADD DUP2 DUP7 DUP1 EXTCODESIZE ISZERO DUP1 ISZERO PUSH2 0x3F9F JUMPI PUSH1 0x0 DUP1 REVERT JUMPDEST POP GAS STATICCALL ISZERO DUP1 ISZERO PUSH2 0x3FB3 JUMPI RETURNDATASIZE PUSH1 0x0 DUP1 RETURNDATACOPY RETURNDATASIZE PUSH1 0x0 REVERT JUMPDEST POP POP POP POP PUSH1 0x40 MLOAD RETURNDATASIZE PUSH1 0x20 DUP2 LT ISZERO PUSH2 0x3FC9 JUMPI PUSH1 0x0 DUP1 REVERT JUMPDEST POP MLOAD ISZERO PUSH2 0x404A JUMPI DUP7 PUSH1 0x1 PUSH1 0x1 PUSH1 0xA0 SHL SUB AND PUSH4 0xBD02D0F5 DUP3 PUSH1 0x40 MLOAD DUP3 PUSH4 0xFFFFFFFF AND PUSH1 0xE0 SHL DUP2 MSTORE PUSH1 0x4 ADD DUP1 DUP3 DUP2 MSTORE PUSH1 0x20 ADD SWAP2 POP POP PUSH1 0x20 PUSH1 0x40 MLOAD DUP1 DUP4 SUB DUP2 DUP7 DUP1 EXTCODESIZE ISZERO DUP1 ISZERO PUSH2 0x4014 JUMPI PUSH1 0x0 DUP1 REVERT JUMPDEST POP GAS STATICCALL ISZERO DUP1 ISZERO PUSH2 0x4028 JUMPI RETURNDATASIZE PUSH1 0x0 DUP1 RETURNDATACOPY RETURNDATASIZE PUSH1 0x0 REVERT JUMPDEST POP POP POP POP PUSH1 0x40 MLOAD RETURNDATASIZE PUSH1 0x20 DUP2 LT ISZERO PUSH2 0x403E JUMPI PUSH1 0x0 DUP1 REVERT JUMPDEST POP MLOAD SWAP3 POP PUSH2 0x2B4A SWAP2 POP POP JUMP JUMPDEST DUP7 PUSH1 0x1 PUSH1 0x1 PUSH1 0xA0 SHL SUB AND PUSH4 0xBD02D0F5 DUP8 PUSH1 0x40 MLOAD DUP3 PUSH4 0xFFFFFFFF AND PUSH1 0xE0 SHL DUP2 MSTORE PUSH1 0x4 ADD DUP1 DUP3 DUP2 MSTORE PUSH1 0x20 ADD SWAP2 POP POP PUSH1 0x20 PUSH1 0x40 MLOAD DUP1 DUP4 SUB DUP2 DUP7 DUP1 EXTCODESIZE ISZERO DUP1 ISZERO PUSH2 0x408E JUMPI PUSH1 0x0 DUP1 REVERT JUMPDEST POP GAS STATICCALL ISZERO DUP1 ISZERO PUSH2 0x40A2 JUMPI RETURNDATASIZE PUSH1 0x0 DUP1 RETURNDATACOPY RETURNDATASIZE PUSH1 0x0 REVERT JUMPDEST POP POP POP POP PUSH1 0x40 MLOAD RETURNDATASIZE PUSH1 0x20 DUP2 LT ISZERO PUSH2 0x40B8 JUMPI PUSH1 0x0 DUP1 REVERT JUMPDEST POP MLOAD SWAP8 SWAP7 POP POP POP POP POP POP POP JUMP JUMPDEST PUSH1 0x40 DUP1 MLOAD PUSH1 0x60 DUP2 ADD DUP3 MSTORE PUSH1 0x0 DUP1 DUP3 MSTORE PUSH1 0x20 DUP3 ADD DUP2 SWAP1 MSTORE SWAP2 DUP2 ADD SWAP2 SWAP1 SWAP2 MSTORE SWAP1 JUMP JUMPDEST PUSH1 0x40 MLOAD DUP1 PUSH1 0xA0 ADD PUSH1 0x40 MSTORE DUP1 PUSH1 0x0 DUP2 MSTORE PUSH1 0x20 ADD PUSH1 0x0 DUP2 MSTORE PUSH1 0x20 ADD PUSH1 0x0 DUP2 MSTORE PUSH1 0x20 ADD PUSH1 0x0 DUP2 MSTORE PUSH1 0x20 ADD PUSH1 0x0 DUP2 MSTORE POP SWAP1 JUMP JUMPDEST PUSH1 0x40 MLOAD DUP1 PUSH1 0xE0 ADD PUSH1 0x40 MSTORE DUP1 PUSH2 0x4127 PUSH2 0x415D JUMP JUMPDEST DUP2 MSTORE PUSH1 0x20 ADD PUSH2 0x4134 PUSH2 0x415D JUMP JUMPDEST DUP2 MSTORE PUSH1 0x20 ADD PUSH1 0x0 DUP2 MSTORE PUSH1 0x20 ADD PUSH1 0x0 DUP2 MSTORE PUSH1 0x20 ADD PUSH1 0x0 DUP2 MSTORE PUSH1 0x20 ADD PUSH1 0x0 DUP2 MSTORE PUSH1 0x20 ADD PUSH1 0x0 DUP2 MSTORE POP SWAP1 JUMP JUMPDEST PUSH1 0x40 MLOAD DUP1 PUSH1 0x40 ADD PUSH1 0x40 MSTORE DUP1 PUSH1 0x0 DUP2 MSTORE PUSH1 0x20 ADD PUSH1 0x0 DUP2 MSTORE POP SWAP1 JUMP JUMPDEST DUP1 CALLDATALOAD PUSH2 0xC53 DUP2 PUSH2 0x4AAE JUMP JUMPDEST DUP1 CALLDATALOAD DUP1 ISZERO ISZERO DUP2 EQ PUSH2 0xC53 JUMPI PUSH1 0x0 DUP1 REVERT JUMPDEST PUSH1 0x0 DUP3 PUSH1 0x1F DUP4 ADD SLT PUSH2 0x41A2 JUMPI DUP1 DUP2 REVERT JUMPDEST DUP2 CALLDATALOAD PUSH8 0xFFFFFFFFFFFFFFFF DUP2 GT ISZERO PUSH2 0x41B6 JUMPI INVALID JUMPDEST PUSH2 0x41C9 PUSH1 0x1F DUP3 ADD PUSH1 0x1F NOT AND PUSH1 0x20 ADD PUSH2 0x4A8A JUMP JUMPDEST DUP2 DUP2 MSTORE DUP5 PUSH1 0x20 DUP4 DUP7 ADD ADD GT ISZERO PUSH2 0x41DD JUMPI DUP3 DUP4 REVERT JUMPDEST DUP2 PUSH1 0x20 DUP6 ADD PUSH1 0x20 DUP4 ADD CALLDATACOPY SWAP1 DUP2 ADD PUSH1 0x20 ADD SWAP2 SWAP1 SWAP2 MSTORE SWAP3 SWAP2 POP POP JUMP JUMPDEST DUP1 CALLDATALOAD PUSH1 0x2 DUP2 LT PUSH2 0xC53 JUMPI PUSH1 0x0 DUP1 REVERT JUMPDEST PUSH1 0x0 PUSH1 0x20 DUP3 DUP5 SUB SLT ISZERO PUSH2 0x4217 JUMPI DUP1 DUP2 REVERT JUMPDEST DUP2 CALLDATALOAD PUSH2 0x7BD DUP2 PUSH2 0x4AAE JUMP JUMPDEST PUSH1 0x0 PUSH1 0x20 DUP3 DUP5 SUB SLT ISZERO PUSH2 0x4233 JUMPI DUP1 DUP2 REVERT JUMPDEST DUP2 MLOAD PUSH2 0x7BD DUP2 PUSH2 0x4AAE JUMP JUMPDEST PUSH1 0x0 DUP1 PUSH1 0x40 DUP4 DUP6 SUB SLT ISZERO PUSH2 0x4250 JUMPI DUP1 DUP2 REVERT JUMPDEST DUP3 CALLDATALOAD PUSH2 0x425B DUP2 PUSH2 0x4AAE JUMP JUMPDEST SWAP2 POP PUSH1 0x20 DUP4 ADD CALLDATALOAD PUSH2 0x426B DUP2 PUSH2 0x4AAE JUMP JUMPDEST DUP1 SWAP2 POP POP SWAP3 POP SWAP3 SWAP1 POP JUMP JUMPDEST PUSH1 0x0 DUP1 PUSH1 0x0 PUSH1 0x60 DUP5 DUP7 SUB SLT ISZERO PUSH2 0x428A JUMPI DUP1 DUP2 REVERT JUMPDEST DUP4 CALLDATALOAD PUSH2 0x4295 DUP2 PUSH2 0x4AAE JUMP JUMPDEST SWAP3 POP PUSH1 0x20 DUP5 ADD CALLDATALOAD PUSH2 0x42A5 DUP2 PUSH2 0x4AAE JUMP JUMPDEST SWAP3 SWAP6 SWAP3 SWAP5 POP POP POP PUSH1 0x40 SWAP2 SWAP1 SWAP2 ADD CALLDATALOAD SWAP1 JUMP JUMPDEST PUSH1 0x0 DUP1 PUSH1 0x0 DUP1 PUSH1 0x0 DUP1 PUSH1 0x0 PUSH1 0xE0 DUP9 DUP11 SUB SLT ISZERO PUSH2 0x42D0 JUMPI DUP3 DUP4 REVERT JUMPDEST DUP8 CALLDATALOAD PUSH2 0x42DB DUP2 PUSH2 0x4AAE JUMP JUMPDEST SWAP7 POP PUSH1 0x20 DUP9 ADD CALLDATALOAD PUSH2 0x42EB DUP2 PUSH2 0x4AAE JUMP JUMPDEST SWAP6 POP PUSH1 0x40 DUP9 ADD CALLDATALOAD SWAP5 POP PUSH1 0x60 DUP9 ADD CALLDATALOAD SWAP4 POP PUSH1 0x80 DUP9 ADD CALLDATALOAD PUSH1 0xFF DUP2 AND DUP2 EQ PUSH2 0x430E JUMPI DUP4 DUP5 REVERT JUMPDEST SWAP7 SWAP10 SWAP6 SWAP9 POP SWAP4 SWAP7 SWAP3 SWAP6 SWAP5 PUSH1 0xA0 DUP5 ADD CALLDATALOAD SWAP5 POP PUSH1 0xC0 SWAP1 SWAP4 ADD CALLDATALOAD SWAP3 SWAP2 POP POP JUMP JUMPDEST PUSH1 0x0 DUP1 PUSH1 0x40 DUP4 DUP6 SUB SLT ISZERO PUSH2 0x433D JUMPI DUP2 DUP3 REVERT JUMPDEST DUP3 CALLDATALOAD PUSH2 0x4348 DUP2 PUSH2 0x4AAE JUMP JUMPDEST SWAP5 PUSH1 0x20 SWAP4 SWAP1 SWAP4 ADD CALLDATALOAD SWAP4 POP POP POP JUMP JUMPDEST PUSH1 0x0 PUSH1 0x20 DUP3 DUP5 SUB SLT ISZERO PUSH2 0x4367 JUMPI DUP1 DUP2 REVERT JUMPDEST PUSH2 0x7BD DUP3 PUSH2 0x4182 JUMP JUMPDEST PUSH1 0x0 DUP1 PUSH1 0x0 DUP1 PUSH1 0x0 DUP1 PUSH1 0x0 PUSH1 0xE0 DUP9 DUP11 SUB SLT ISZERO PUSH2 0x438A JUMPI DUP1 DUP2 REVERT JUMPDEST DUP8 CALLDATALOAD SWAP7 POP PUSH1 0x20 DUP9 ADD CALLDATALOAD PUSH2 0x439C DUP2 PUSH2 0x4AAE JUMP JUMPDEST SWAP6 POP PUSH1 0x40 DUP9 ADD CALLDATALOAD PUSH2 0x43AC DUP2 PUSH2 0x4AAE JUMP JUMPDEST SWAP5 POP PUSH1 0x60 DUP9 ADD CALLDATALOAD PUSH8 0xFFFFFFFFFFFFFFFF DUP1 DUP3 GT ISZERO PUSH2 0x43C8 JUMPI DUP3 DUP4 REVERT JUMPDEST DUP2 DUP11 ADD SWAP2 POP DUP11 PUSH1 0x1F DUP4 ADD SLT PUSH2 0x43DB JUMPI DUP3 DUP4 REVERT JUMPDEST DUP2 CALLDATALOAD DUP2 DUP2 GT ISZERO PUSH2 0x43E7 JUMPI INVALID JUMPDEST PUSH1 0x20 DUP2 MUL PUSH2 0x43F7 PUSH1 0x20 DUP3 ADD PUSH2 0x4A8A JUMP JUMPDEST DUP1 DUP4 DUP3 MSTORE PUSH1 0x20 DUP3 ADD SWAP2 POP PUSH1 0x20 DUP7 ADD DUP16 PUSH1 0x20 DUP6 DUP10 ADD ADD GT ISZERO PUSH2 0x4416 JUMPI DUP8 DUP9 REVERT JUMPDEST DUP8 SWAP7 POP JUMPDEST DUP5 DUP8 LT ISZERO PUSH2 0x4439 JUMPI DUP1 CALLDATALOAD DUP4 MSTORE PUSH1 0x1 SWAP7 SWAP1 SWAP7 ADD SWAP6 PUSH1 0x20 SWAP3 DUP4 ADD SWAP3 ADD PUSH2 0x441A JUMP JUMPDEST POP SWAP9 POP POP POP POP PUSH1 0x80 DUP11 ADD CALLDATALOAD SWAP5 POP PUSH1 0xA0 DUP11 ADD CALLDATALOAD SWAP4 POP PUSH1 0xC0 DUP11 ADD CALLDATALOAD SWAP2 POP DUP1 DUP3 GT ISZERO PUSH2 0x4460 JUMPI DUP3 DUP4 REVERT JUMPDEST POP PUSH2 0x446D DUP11 DUP3 DUP12 ADD PUSH2 0x4192 JUMP JUMPDEST SWAP2 POP POP SWAP3 SWAP6 SWAP9 SWAP2 SWAP5 SWAP8 POP SWAP3 SWAP6 POP JUMP JUMPDEST PUSH1 0x0 PUSH1 0x20 DUP3 DUP5 SUB SLT ISZERO PUSH2 0x448D JUMPI DUP1 DUP2 REVERT JUMPDEST DUP2 CALLDATALOAD PUSH1 0x1 PUSH1 0x1 PUSH1 0xE0 SHL SUB NOT DUP2 AND DUP2 EQ PUSH2 0x7BD JUMPI DUP2 DUP3 REVERT JUMPDEST PUSH1 0x0 DUP1 PUSH1 0x40 DUP4 DUP6 SUB SLT ISZERO PUSH2 0x44B6 JUMPI DUP2 DUP3 REVERT JUMPDEST POP POP DUP1 MLOAD PUSH1 0x20 SWAP1 SWAP2 ADD MLOAD SWAP1 SWAP3 SWAP1 SWAP2 POP JUMP JUMPDEST PUSH1 0x0 PUSH1 0x60 DUP3 DUP5 SUB SLT ISZERO PUSH2 0x44D8 JUMPI DUP1 DUP2 REVERT JUMPDEST PUSH1 0x40 MLOAD PUSH1 0x60 DUP2 ADD DUP2 DUP2 LT PUSH8 0xFFFFFFFFFFFFFFFF DUP3 GT OR ISZERO PUSH2 0x44F5 JUMPI INVALID JUMPDEST PUSH1 0x40 MSTORE PUSH2 0x4501 DUP4 PUSH2 0x4182 JUMP JUMPDEST DUP2 MSTORE PUSH1 0x20 DUP4 ADD CALLDATALOAD PUSH1 0x1 PUSH1 0x1 PUSH1 0x78 SHL SUB DUP2 AND DUP2 EQ PUSH2 0x451C JUMPI DUP3 DUP4 REVERT JUMPDEST PUSH1 0x20 DUP3 ADD MSTORE PUSH1 0x40 DUP4 ADD CALLDATALOAD PUSH1 0x1 PUSH1 0x1 PUSH1 0x80 SHL SUB DUP2 AND DUP2 EQ PUSH2 0x453A JUMPI DUP3 DUP4 REVERT JUMPDEST PUSH1 0x40 DUP3 ADD MSTORE SWAP4 SWAP3 POP POP POP JUMP JUMPDEST PUSH1 0x0 DUP1 PUSH1 0x0 PUSH1 0x60 DUP5 DUP7 SUB SLT ISZERO PUSH2 0x455A JUMPI DUP1 DUP2 REVERT JUMPDEST DUP4 CALLDATALOAD PUSH8 0xFFFFFFFFFFFFFFFF DUP1 DUP3 GT ISZERO PUSH2 0x4571 JUMPI DUP3 DUP4 REVERT JUMPDEST DUP2 DUP7 ADD SWAP2 POP PUSH2 0x120 DUP1 DUP4 DUP10 SUB SLT ISZERO PUSH2 0x4587 JUMPI DUP4 DUP5 REVERT JUMPDEST PUSH2 0x4590 DUP2 PUSH2 0x4A8A JUMP JUMPDEST SWAP1 POP PUSH2 0x459B DUP4 PUSH2 0x41F7 JUMP JUMPDEST DUP2 MSTORE PUSH2 0x45A9 PUSH1 0x20 DUP5 ADD PUSH2 0x4177 JUMP JUMPDEST PUSH1 0x20 DUP3 ADD MSTORE PUSH2 0x45BA PUSH1 0x40 DUP5 ADD PUSH2 0x4177 JUMP JUMPDEST PUSH1 0x40 DUP3 ADD MSTORE PUSH1 0x60 DUP4 ADD CALLDATALOAD PUSH1 0x60 DUP3 ADD MSTORE PUSH1 0x80 DUP4 ADD CALLDATALOAD PUSH1 0x80 DUP3 ADD MSTORE PUSH1 0xA0 DUP4 ADD CALLDATALOAD PUSH1 0xA0 DUP3 ADD MSTORE PUSH2 0x45E9 PUSH1 0xC0 DUP5 ADD PUSH2 0x4177 JUMP JUMPDEST PUSH1 0xC0 DUP3 ADD MSTORE PUSH2 0x45FA PUSH1 0xE0 DUP5 ADD PUSH2 0x4177 JUMP JUMPDEST PUSH1 0xE0 DUP3 ADD MSTORE PUSH2 0x100 DUP1 DUP5 ADD CALLDATALOAD DUP4 DUP2 GT ISZERO PUSH2 0x4612 JUMPI DUP6 DUP7 REVERT JUMPDEST PUSH2 0x461E DUP11 DUP3 DUP8 ADD PUSH2 0x4192 JUMP JUMPDEST SWAP2 DUP4 ADD SWAP2 SWAP1 SWAP2 MSTORE POP SWAP8 PUSH1 0x20 DUP8 ADD CALLDATALOAD SWAP8 POP PUSH1 0x40 SWAP1 SWAP7 ADD CALLDATALOAD SWAP6 SWAP5 POP POP POP POP POP JUMP JUMPDEST PUSH1 0x0 PUSH1 0x20 DUP3 DUP5 SUB SLT ISZERO PUSH2 0x464E JUMPI DUP1 DUP2 REVERT JUMPDEST POP CALLDATALOAD SWAP2 SWAP1 POP JUMP JUMPDEST PUSH1 0x0 PUSH1 0x20 DUP3 DUP5 SUB SLT ISZERO PUSH2 0x4666 JUMPI DUP1 DUP2 REVERT JUMPDEST POP MLOAD SWAP2 SWAP1 POP JUMP JUMPDEST PUSH1 0x0 DUP1 PUSH1 0x0 DUP1 PUSH1 0x80 DUP6 DUP8 SUB SLT ISZERO PUSH2 0x4682 JUMPI DUP2 DUP3 REVERT JUMPDEST DUP5 MLOAD SWAP4 POP PUSH1 0x20 DUP6 ADD MLOAD SWAP3 POP PUSH1 0x40 DUP6 ADD MLOAD SWAP2 POP PUSH1 0x60 DUP6 ADD MLOAD PUSH2 0x46A2 DUP2 PUSH2 0x4AAE JUMP JUMPDEST SWAP4 SWAP7 SWAP3 SWAP6 POP SWAP1 SWAP4 POP POP JUMP JUMPDEST PUSH1 0x0 DUP2 MLOAD DUP1 DUP5 MSTORE PUSH1 0x20 DUP1 DUP6 ADD SWAP5 POP DUP1 DUP5 ADD DUP4 JUMPDEST DUP4 DUP2 LT ISZERO PUSH2 0x46DC JUMPI DUP2 MLOAD DUP8 MSTORE SWAP6 DUP3 ADD SWAP6 SWAP1 DUP3 ADD SWAP1 PUSH1 0x1 ADD PUSH2 0x46C0 JUMP JUMPDEST POP SWAP5 SWAP6 SWAP5 POP POP POP POP POP JUMP JUMPDEST PUSH2 0x46F2 DUP3 DUP3 MLOAD PUSH2 0x476C JUMP JUMPDEST PUSH1 0x20 DUP2 ADD MLOAD PUSH2 0x4704 PUSH1 0x40 DUP5 ADD DUP3 PUSH2 0x476C JUMP JUMPDEST POP PUSH1 0x40 DUP2 ADD MLOAD PUSH1 0x80 DUP4 ADD MSTORE PUSH1 0x60 DUP2 ADD MLOAD PUSH1 0xA0 DUP4 ADD MSTORE PUSH1 0x80 DUP2 ADD MLOAD PUSH1 0xC0 DUP4 ADD MSTORE PUSH1 0xA0 DUP2 ADD MLOAD PUSH1 0xE0 DUP4 ADD MSTORE PUSH1 0xC0 DUP2 ADD MLOAD PUSH2 0x100 DUP4 ADD MSTORE POP POP JUMP JUMPDEST DUP1 MLOAD DUP3 MSTORE PUSH1 0x20 DUP2 ADD MLOAD PUSH1 0x20 DUP4 ADD MSTORE PUSH1 0x40 DUP2 ADD MLOAD PUSH1 0x40 DUP4 ADD MSTORE PUSH1 0x60 DUP2 ADD MLOAD PUSH1 0x60 DUP4 ADD MSTORE PUSH1 0x80 DUP2 ADD MLOAD PUSH1 0x80 DUP4 ADD MSTORE POP POP JUMP JUMPDEST DUP1 MLOAD DUP3 MSTORE PUSH1 0x20 SWAP1 DUP2 ADD MLOAD SWAP2 ADD MSTORE JUMP JUMPDEST PUSH1 0x0 DUP3 DUP5 DUP4 CALLDATACOPY SWAP2 ADD SWAP1 DUP2 MSTORE SWAP2 SWAP1 POP JUMP JUMPDEST PUSH1 0x1 PUSH1 0x1 PUSH1 0xA0 SHL SUB SWAP2 SWAP1 SWAP2 AND DUP2 MSTORE PUSH1 0x20 ADD SWAP1 JUMP JUMPDEST PUSH1 0x0 PUSH1 0x20 DUP3 MSTORE PUSH2 0x7BD PUSH1 0x20 DUP4 ADD DUP5 PUSH2 0x46AD JUMP JUMPDEST PUSH1 0x0 PUSH1 0x40 DUP3 MSTORE PUSH2 0x47C5 PUSH1 0x40 DUP4 ADD DUP6 PUSH2 0x46AD JUMP JUMPDEST DUP3 DUP2 SUB PUSH1 0x20 DUP5 ADD MSTORE PUSH2 0x2829 DUP2 DUP6 PUSH2 0x46AD JUMP JUMPDEST PUSH1 0x0 PUSH2 0x1E0 DUP1 DUP4 MSTORE PUSH2 0x47EB DUP2 DUP5 ADD DUP8 PUSH2 0x46AD JUMP JUMPDEST SWAP2 POP POP PUSH2 0x47FB PUSH1 0x20 DUP4 ADD DUP6 PUSH2 0x473C JUMP JUMPDEST PUSH2 0x2B4A PUSH1 0xC0 DUP4 ADD DUP5 PUSH2 0x46E7 JUMP JUMPDEST PUSH1 0x0 PUSH2 0x200 DUP1 DUP4 MSTORE PUSH2 0x481C DUP2 DUP5 ADD DUP9 PUSH2 0x46AD JUMP JUMPDEST SWAP2 POP POP PUSH2 0x482C PUSH1 0x20 DUP4 ADD DUP7 PUSH2 0x473C JUMP JUMPDEST PUSH2 0x4839 PUSH1 0xC0 DUP4 ADD DUP6 PUSH2 0x46E7 JUMP JUMPDEST DUP3 PUSH2 0x1E0 DUP4 ADD MSTORE SWAP6 SWAP5 POP POP POP POP POP JUMP JUMPDEST PUSH1 0x0 PUSH1 0x80 DUP3 MSTORE PUSH2 0x485C PUSH1 0x80 DUP4 ADD DUP7 PUSH2 0x46AD JUMP JUMPDEST SWAP1 POP PUSH2 0x486B PUSH1 0x20 DUP4 ADD DUP6 PUSH2 0x476C JUMP JUMPDEST DUP3 PUSH1 0x60 DUP4 ADD MSTORE SWAP5 SWAP4 POP POP POP POP JUMP JUMPDEST PUSH1 0x0 PUSH2 0x260 DUP1 DUP4 MSTORE PUSH2 0x488D DUP2 DUP5 ADD DUP11 PUSH2 0x46AD JUMP JUMPDEST SWAP2 POP POP DUP7 PUSH1 0x20 DUP4 ADD MSTORE DUP6 ISZERO ISZERO PUSH1 0x40 DUP4 ADD MSTORE PUSH2 0x48AB PUSH1 0x60 DUP4 ADD DUP7 PUSH2 0x473C JUMP JUMPDEST PUSH2 0x48B9 PUSH2 0x100 DUP4 ADD DUP6 PUSH2 0x46E7 JUMP JUMPDEST PUSH2 0x2CFB PUSH2 0x220 DUP4 ADD DUP5 PUSH2 0x476C JUMP JUMPDEST SWAP1 ISZERO ISZERO DUP2 MSTORE PUSH1 0x20 ADD SWAP1 JUMP JUMPDEST SWAP3 ISZERO ISZERO DUP4 MSTORE PUSH1 0x20 DUP4 ADD SWAP2 SWAP1 SWAP2 MSTORE PUSH1 0x40 DUP3 ADD MSTORE PUSH1 0x60 ADD SWAP1 JUMP JUMPDEST SWAP1 DUP2 MSTORE PUSH1 0x20 ADD SWAP1 JUMP JUMPDEST SWAP2 DUP3 MSTORE PUSH1 0x1 PUSH1 0x1 PUSH1 0xA0 SHL SUB AND PUSH1 0x20 DUP3 ADD MSTORE PUSH1 0x40 ADD SWAP1 JUMP JUMPDEST SWAP6 DUP7 MSTORE PUSH1 0x20 DUP7 ADD SWAP5 SWAP1 SWAP5 MSTORE PUSH1 0x40 DUP6 ADD SWAP3 SWAP1 SWAP3 MSTORE PUSH1 0x60 DUP5 ADD MSTORE ISZERO ISZERO PUSH1 0x80 DUP4 ADD MSTORE PUSH1 0xA0 DUP3 ADD MSTORE PUSH1 0xC0 ADD SWAP1 JUMP JUMPDEST PUSH1 0x0 PUSH1 0x20 DUP1 DUP4 MSTORE DUP4 MLOAD DUP1 DUP3 DUP6 ADD MSTORE DUP3 JUMPDEST DUP2 DUP2 LT ISZERO PUSH2 0x4960 JUMPI DUP6 DUP2 ADD DUP4 ADD MLOAD DUP6 DUP3 ADD PUSH1 0x40 ADD MSTORE DUP3 ADD PUSH2 0x4944 JUMP JUMPDEST DUP2 DUP2 GT ISZERO PUSH2 0x4971 JUMPI DUP4 PUSH1 0x40 DUP4 DUP8 ADD ADD MSTORE JUMPDEST POP PUSH1 0x1F ADD PUSH1 0x1F NOT AND SWAP3 SWAP1 SWAP3 ADD PUSH1 0x40 ADD SWAP4 SWAP3 POP POP POP JUMP JUMPDEST DUP2 MLOAD ISZERO ISZERO DUP2 MSTORE PUSH1 0x20 DUP1 DUP4 ADD MLOAD PUSH1 0x1 PUSH1 0x1 PUSH1 0x78 SHL SUB AND SWAP1 DUP3 ADD MSTORE PUSH1 0x40 SWAP2 DUP3 ADD MLOAD PUSH1 0x1 PUSH1 0x1 PUSH1 0x80 SHL SUB AND SWAP2 DUP2 ADD SWAP2 SWAP1 SWAP2 MSTORE PUSH1 0x60 ADD SWAP1 JUMP JUMPDEST SWAP1 SLOAD PUSH1 0xFF DUP2 AND ISZERO ISZERO DUP3 MSTORE PUSH1 0x8 DUP2 SWAP1 SHR PUSH1 0x1 PUSH1 0x1 PUSH1 0x78 SHL SUB AND PUSH1 0x20 DUP4 ADD MSTORE PUSH1 0x80 SHR PUSH1 0x40 DUP3 ADD MSTORE PUSH1 0x60 ADD SWAP1 JUMP JUMPDEST PUSH2 0x1C0 DUP2 ADD PUSH2 0x49F6 DUP3 DUP6 PUSH2 0x473C JUMP JUMPDEST PUSH2 0x4A04 PUSH1 0xA0 DUP4 ADD DUP5 MLOAD PUSH2 0x476C JUMP JUMPDEST PUSH1 0x20 DUP4 ADD MLOAD PUSH2 0x4A16 PUSH1 0xE0 DUP5 ADD DUP3 PUSH2 0x476C JUMP JUMPDEST POP PUSH1 0x40 DUP4 ADD MLOAD PUSH2 0x120 DUP4 ADD MSTORE PUSH1 0x60 DUP4 ADD MLOAD PUSH2 0x140 DUP4 ADD MSTORE PUSH1 0x80 DUP4 ADD MLOAD PUSH2 0x160 DUP4 ADD MSTORE PUSH1 0xA0 DUP4 ADD MLOAD PUSH2 0x180 DUP4 ADD MSTORE PUSH1 0xC0 DUP4 ADD MLOAD PUSH2 0x1A0 DUP4 ADD MSTORE SWAP4 SWAP3 POP POP POP JUMP JUMPDEST PUSH1 0x0 DUP4 DUP3 MSTORE PUSH1 0x40 PUSH1 0x20 DUP4 ADD MSTORE PUSH2 0x2B4A PUSH1 0x40 DUP4 ADD DUP5 PUSH2 0x46AD JUMP JUMPDEST SWAP2 DUP3 MSTORE PUSH1 0x20 DUP3 ADD MSTORE PUSH1 0x40 ADD SWAP1 JUMP JUMPDEST PUSH1 0xFF SWAP2 SWAP1 SWAP2 AND DUP2 MSTORE PUSH1 0x20 ADD SWAP1 JUMP JUMPDEST PUSH1 0x40 MLOAD DUP2 DUP2 ADD PUSH8 0xFFFFFFFFFFFFFFFF DUP2 GT DUP3 DUP3 LT OR ISZERO PUSH2 0x4AA6 JUMPI INVALID JUMPDEST PUSH1 0x40 MSTORE SWAP2 SWAP1 POP JUMP JUMPDEST PUSH1 0x1 PUSH1 0x1 PUSH1 0xA0 SHL SUB DUP2 AND DUP2 EQ PUSH2 0x71C JUMPI PUSH1 0x0 DUP1 REVERT INVALID MSTORE8 PUSH2 0x6665 NUMBER PUSH2 0x7374 GASPRICE KECCAK256 PUSH23 0x616C756520646F65736E27742066697420696E20616E20 PUSH10 0x6E74323536A264697066 PUSH20 0x58221220999FEF009DA62723B072B897F17D92E5 MSTORE 0xB5 PUSH2 0x930A 0xDC JUMPDEST DUP3 JUMP SWAP10 0xC7 PUSH14 0x9B823E5A64736F6C634300070600 CALLER ","sha1":"ca0ad5907241b72cf1dc542c88823503ec6989cb","source":"// SPDX-License-Identifier: LicenseRef-Gyro-1.0\n// for information on licensing please see the README in the GitHub repository <https://github.com/gyrostable/concentrated-lps>.\n\npragma solidity 0.7.6;\npragma experimental ABIEncoderV2;\n\n// import \"@balancer-labs/v2-solidity-utils/contracts/math/FixedPoint.sol\";\nimport \"../../libraries/GyroFixedPoint.sol\";\n\nimport \"@balancer-labs/v2-pool-weighted/contracts/WeightedPoolUserDataHelpers.sol\";\nimport \"@balancer-labs/v2-pool-weighted/contracts/WeightedPool2TokensMiscData.sol\";\nimport \"@balancer-labs/v2-pool-utils/contracts/interfaces/IRateProvider.sol\";\n\nimport \"../../libraries/GyroConfigKeys.sol\";\nimport \"../../libraries/GyroConfigHelpers.sol\";\nimport \"../../libraries/GyroErrors.sol\";\nimport \"../../interfaces/IGyroConfig.sol\";\nimport \"../../libraries/GyroPoolMath.sol\";\n\nimport \"../ExtensibleWeightedPool2Tokens.sol\";\nimport \"./GyroECLPMath.sol\";\nimport \"../CappedLiquidity.sol\";\nimport \"../LocallyPausable.sol\";\n\ncontract GyroECLPPool is ExtensibleWeightedPool2Tokens, CappedLiquidity, LocallyPausable {\n    using GyroFixedPoint for uint256;\n    using WeightedPoolUserDataHelpers for bytes;\n    using WeightedPool2TokensMiscData for bytes32;\n    using SafeCast for int256;\n    using SafeCast for uint256;\n    using GyroConfigHelpers for IGyroConfig;\n\n    uint256 private constant _MINIMUM_BPT = 1e6;\n    bytes32 private constant POOL_TYPE = \"ECLP\";\n\n    /// @dev Parameters of the ECLP pool\n    int256 internal immutable _paramsAlpha;\n    int256 internal immutable _paramsBeta;\n    int256 internal immutable _paramsC;\n    int256 internal immutable _paramsS;\n    int256 internal immutable _paramsLambda;\n    int256 internal immutable _tauAlphaX;\n    int256 internal immutable _tauAlphaY;\n    int256 internal immutable _tauBetaX;\n    int256 internal immutable _tauBetaY;\n    int256 internal immutable _u;\n    int256 internal immutable _v;\n    int256 internal immutable _w;\n    int256 internal immutable _z;\n    int256 internal immutable _dSq;\n\n    IGyroConfig public gyroConfig;\n\n    /// @dev for rate scaling\n    IRateProvider public immutable rateProvider0;\n    IRateProvider public immutable rateProvider1;\n\n    struct GyroParams {\n        NewPoolParams baseParams;\n        GyroECLPMath.Params eclpParams;\n        GyroECLPMath.DerivedParams derivedEclpParams;\n        address rateProvider0;\n        address rateProvider1;\n        address capManager;\n        CapParams capParams;\n        address pauseManager;\n    }\n\n    event ECLPParamsValidated(bool paramsValidated);\n    event ECLPDerivedParamsValidated(bool derivedParamsValidated);\n\n    event InvariantAterInitializeJoin(uint256 invariantAfterJoin);\n    event InvariantOldAndNew(uint256 oldInvariant, uint256 newInvariant);\n\n    event SwapParams(uint256[] balances, GyroECLPMath.Vector2 invariant, uint256 amount);\n\n    constructor(GyroParams memory params, address configAddress)\n        ExtensibleWeightedPool2Tokens(params.baseParams)\n        CappedLiquidity(params.capManager, params.capParams)\n        LocallyPausable(params.pauseManager)\n    {\n        _grequire(configAddress != address(0x0), GyroECLPPoolErrors.ADDRESS_IS_ZERO_ADDRESS);\n\n        GyroECLPMath.validateParams(params.eclpParams);\n        emit ECLPParamsValidated(true);\n\n        GyroECLPMath.validateDerivedParamsLimits(params.eclpParams, params.derivedEclpParams);\n        emit ECLPDerivedParamsValidated(true);\n\n        (_paramsAlpha, _paramsBeta, _paramsC, _paramsS, _paramsLambda) = (\n            params.eclpParams.alpha,\n            params.eclpParams.beta,\n            params.eclpParams.c,\n            params.eclpParams.s,\n            params.eclpParams.lambda\n        );\n\n        (_tauAlphaX, _tauAlphaY, _tauBetaX, _tauBetaY, _u, _v, _w, _z, _dSq) = (\n            params.derivedEclpParams.tauAlpha.x,\n            params.derivedEclpParams.tauAlpha.y,\n            params.derivedEclpParams.tauBeta.x,\n            params.derivedEclpParams.tauBeta.y,\n            params.derivedEclpParams.u,\n            params.derivedEclpParams.v,\n            params.derivedEclpParams.w,\n            params.derivedEclpParams.z,\n            params.derivedEclpParams.dSq\n        );\n\n        gyroConfig = IGyroConfig(configAddress);\n\n        rateProvider0 = IRateProvider(params.rateProvider0);\n        rateProvider1 = IRateProvider(params.rateProvider1);\n    }\n\n    /** @dev reconstructs ECLP params structs from immutable arrays */\n    function reconstructECLPParams() internal view returns (GyroECLPMath.Params memory params, GyroECLPMath.DerivedParams memory d) {\n        (params.alpha, params.beta, params.c, params.s, params.lambda) = (_paramsAlpha, _paramsBeta, _paramsC, _paramsS, _paramsLambda);\n        (d.tauAlpha.x, d.tauAlpha.y, d.tauBeta.x, d.tauBeta.y) = (_tauAlphaX, _tauAlphaY, _tauBetaX, _tauBetaY);\n        (d.u, d.v, d.w, d.z, d.dSq) = (_u, _v, _w, _z, _dSq);\n    }\n\n    function getECLPParams() external view returns (GyroECLPMath.Params memory params, GyroECLPMath.DerivedParams memory d) {\n        return reconstructECLPParams();\n    }\n\n    /** @dev Reads the balance of a token from the balancer vault and returns the scaled amount. Smaller storage access\n     * compared to getVault().getPoolTokens().\n     * Copied from the 3CLP *except* that for the 2CLP, the scalingFactor is interpreted as a regular integer, not a\n     * FixedPoint number. This is an inconsistency between the base contracts.\n     */\n    function _getScaledTokenBalance(IERC20 token, uint256 scalingFactor) internal view returns (uint256 balance) {\n        // Signature of getPoolTokenInfo(): (pool id, token) -> (cash, managed, lastChangeBlock, assetManager)\n        // and total amount = cash + managed. See balancer repo, PoolTokens.sol and BalanceAllocation.sol\n        (uint256 cash, uint256 managed, , ) = getVault().getPoolTokenInfo(getPoolId(), token);\n        balance = cash + managed; // can't overflow, see BalanceAllocation.sol::total() in the Balancer repo.\n        balance = balance.mulDown(scalingFactor);\n    }\n\n    /** @dev Get all balances in the pool, scaled by the appropriate scaling factors, in a relatively gas-efficient way.\n     * Essentially copied from the 3CLP.\n     */\n    function _getAllBalances() internal view returns (uint256[] memory balances) {\n        // The below is more gas-efficient than the following line because the token slots don't have to be read in the\n        // vault.\n        // (, uint256[] memory balances, ) = getVault().getPoolTokens(getPoolId());\n        balances = new uint256[](2);\n        balances[0] = _getScaledTokenBalance(_token0, _scalingFactor(true));\n        balances[1] = _getScaledTokenBalance(_token1, _scalingFactor(false));\n        return balances;\n    }\n\n    /**\n     * @dev Returns the current value of the invariant.\n     * Note: This function is not used internally; it's public, not external, so we can override it cleanly.\n     */\n    function getInvariant() public view override returns (uint256) {\n        uint256[] memory balances = _getAllBalances();\n        (GyroECLPMath.Params memory eclpParams, GyroECLPMath.DerivedParams memory derivedECLPParams) = reconstructECLPParams();\n        return GyroECLPMath.calculateInvariant(balances, eclpParams, derivedECLPParams);\n    }\n\n    /** When rateProvider{0,1} is provided, this returns the *scaled* price, suitable to compare *rate scaled* balances.\n     *  To compare (decimal- but) not-rate-scaled balances, apply _adjustPrice() to the result.\n     */\n    function _getPrice(\n        uint256[] memory balances,\n        uint256 invariant,\n        GyroECLPMath.Params memory eclpParams,\n        GyroECLPMath.DerivedParams memory derivedECLPParams\n    ) internal view returns (uint256 spotPrice) {\n        spotPrice = GyroECLPMath.calcSpotPrice0in1(balances, eclpParams, derivedECLPParams, invariant.toInt256());\n    }\n\n    /** Returns the current spot price of token0 quoted in units of token1. When rateProvider{0,1} is provided, the\n     * returned price corresponds to tokens *before* rate scaling.\n     */\n    function getPrice() external view returns (uint256 spotPrice) {\n        uint256[] memory balances = _getAllBalances();\n        (GyroECLPMath.Params memory eclpParams, GyroECLPMath.DerivedParams memory derivedECLPParams) = reconstructECLPParams();\n        uint256 invariant = GyroECLPMath.calculateInvariant(balances, eclpParams, derivedECLPParams);\n        spotPrice = _getPrice(balances, invariant, eclpParams, derivedECLPParams);\n        spotPrice = _adjustPrice(spotPrice);\n    }\n\n    // Swap Hooks\n\n    function onSwap(\n        SwapRequest memory request,\n        uint256 balanceTokenIn,\n        uint256 balanceTokenOut\n    ) public virtual override whenNotPaused onlyVault(request.poolId) returns (uint256) {\n        bool tokenInIsToken0;\n\n        if (request.tokenIn == _token0 && request.tokenOut == _token1) {\n            tokenInIsToken0 = true;\n        } else if (request.tokenIn == _token1 && request.tokenOut == _token0) {\n            tokenInIsToken0 = false;\n        } else {\n            _revert(GyroECLPPoolErrors.TOKEN_IN_IS_NOT_TOKEN_0);\n        }\n\n        uint256 scalingFactorTokenIn = _scalingFactor(tokenInIsToken0);\n        uint256 scalingFactorTokenOut = _scalingFactor(!tokenInIsToken0);\n\n        // All token amounts are upscaled.\n        balanceTokenIn = _upscale(balanceTokenIn, scalingFactorTokenIn);\n        balanceTokenOut = _upscale(balanceTokenOut, scalingFactorTokenOut);\n\n        // We \"undo\" the pre-processing that the caller of onSwap() did: In contrast to other pools, we don't exploit\n        // symmetry here, and we identify the two tokens explicitly.\n        uint256[] memory balances = _balancesFromTokenInOut(balanceTokenIn, balanceTokenOut, tokenInIsToken0);\n\n        (GyroECLPMath.Params memory eclpParams, GyroECLPMath.DerivedParams memory derivedECLPParams) = reconstructECLPParams();\n        GyroECLPMath.Vector2 memory invariant;\n        {\n            (int256 currentInvariant, int256 invErr) = GyroECLPMath.calculateInvariantWithError(balances, eclpParams, derivedECLPParams);\n            // invariant = overestimate in x-component, underestimate in y-component\n            // No overflow in `+` due to constraints to the different values enforced in GyroECLPMath.\n            invariant = GyroECLPMath.Vector2(currentInvariant + 2 * invErr, currentInvariant);\n        }\n\n        if (request.kind == IVault.SwapKind.GIVEN_IN) {\n            // Fees are subtracted before scaling, to reduce the complexity of the rounding direction analysis.\n            // This is amount - fee amount, so we round up (favoring a higher fee amount).\n            uint256 feeAmount = request.amount.mulUp(getSwapFeePercentage());\n            request.amount = _upscale(request.amount.sub(feeAmount), scalingFactorTokenIn);\n\n            uint256 amountOut = _onSwapGivenIn(request, balances, tokenInIsToken0, eclpParams, derivedECLPParams, invariant);\n\n            emit SwapParams(balances, invariant, amountOut);\n\n            // amountOut tokens are exiting the Pool, so we round down.\n            return _downscaleDown(amountOut, scalingFactorTokenOut);\n        } else {\n            request.amount = _upscale(request.amount, scalingFactorTokenOut);\n\n            uint256 amountIn = _onSwapGivenOut(request, balances, tokenInIsToken0, eclpParams, derivedECLPParams, invariant);\n\n            emit SwapParams(balances, invariant, amountIn);\n\n            // amountIn tokens are entering the Pool, so we round up.\n            amountIn = _downscaleUp(amountIn, scalingFactorTokenIn);\n\n            // Fees are added after scaling happens, to reduce the complexity of the rounding direction analysis.\n            // This is amount + fee amount, so we round up (favoring a higher fee amount).\n            return amountIn.divUp(getSwapFeePercentage().complement());\n        }\n    }\n\n    function _onSwapGivenIn(\n        SwapRequest memory swapRequest,\n        uint256[] memory balances,\n        bool tokenInIsToken0,\n        GyroECLPMath.Params memory eclpParams,\n        GyroECLPMath.DerivedParams memory derivedECLPParams,\n        GyroECLPMath.Vector2 memory invariant\n    ) private pure returns (uint256) {\n        // Swaps are disabled while the contract is paused.\n        return GyroECLPMath.calcOutGivenIn(balances, swapRequest.amount, tokenInIsToken0, eclpParams, derivedECLPParams, invariant);\n    }\n\n    function _onSwapGivenOut(\n        SwapRequest memory swapRequest,\n        uint256[] memory balances,\n        bool tokenInIsToken0,\n        GyroECLPMath.Params memory eclpParams,\n        GyroECLPMath.DerivedParams memory derivedECLPParams,\n        GyroECLPMath.Vector2 memory invariant\n    ) private pure returns (uint256) {\n        // Swaps are disabled while the contract is paused.\n        return GyroECLPMath.calcInGivenOut(balances, swapRequest.amount, tokenInIsToken0, eclpParams, derivedECLPParams, invariant);\n    }\n\n    /**\n     * @dev Called when the Pool is joined for the first time; that is, when the BPT total supply is zero.\n     *\n     * Returns the amount of BPT to mint, and the token amounts the Pool will receive in return.\n     *\n     * Minted BPT will be sent to `recipient`, except for _MINIMUM_BPT, which will be deducted from this amount and sent\n     * to the zero address instead. This will cause that BPT to remain forever locked there, preventing total BTP from\n     * ever dropping below that value, and ensuring `_onInitializePool` can only be called once in the entire Pool's\n     * lifetime.\n     *\n     * The tokens granted to the Pool will be transferred from `sender`. These amounts are considered upscaled and will\n     * be downscaled (rounding up) before being returned to the Vault.\n     */\n    function _onInitializePool(\n        bytes32,\n        address,\n        address,\n        bytes memory userData\n    ) internal override returns (uint256, uint256[] memory) {\n        BaseWeightedPool.JoinKind kind = userData.joinKind();\n        _require(kind == BaseWeightedPool.JoinKind.INIT, Errors.UNINITIALIZED);\n\n        uint256[] memory amountsIn = userData.initialAmountsIn();\n        InputHelpers.ensureInputLengthMatch(amountsIn.length, 2);\n        _upscaleArray(amountsIn);\n\n        (GyroECLPMath.Params memory eclpParams, GyroECLPMath.DerivedParams memory derivedECLPParams) = reconstructECLPParams();\n        uint256 invariantAfterJoin = GyroECLPMath.calculateInvariant(amountsIn, eclpParams, derivedECLPParams);\n\n        emit InvariantAterInitializeJoin(invariantAfterJoin);\n\n        /* We initialize the number of BPT tokens such that one BPT token corresponds to one unit of token1 at the initialized pool price. This makes BPT tokens comparable across pools with different parameters. Note that the invariant does *not* have this property!\n         */\n        uint256 spotPrice = _getPrice(amountsIn, invariantAfterJoin, eclpParams, derivedECLPParams);\n        uint256 bptAmountOut = Math.add(amountsIn[0].mulDown(spotPrice), amountsIn[1]);\n\n        _lastInvariant = invariantAfterJoin;\n\n        return (bptAmountOut, amountsIn);\n    }\n\n    /**\n     * @dev Called whenever the Pool is joined after the first initialization join (see `_onInitializePool`).\n     *\n     * Returns the amount of BPT to mint, the token amounts that the Pool will receive in return, and the number of\n     * tokens to pay in protocol swap fees.\n     *\n     * Implementations of this function might choose to mutate the `balances` array to save gas (e.g. when\n     * performing intermediate calculations, such as subtraction of due protocol fees). This can be done safely.\n     *\n     * Minted BPT will be sent to `recipient`.\n     *\n     * The tokens granted to the Pool will be transferred from `sender`. These amounts are considered upscaled and will\n     * be downscaled (rounding up) before being returned to the Vault.\n     *\n     * Due protocol swap fees will be taken from the Pool's balance in the Vault (see `IBasePool.onJoinPool`). These\n     * amounts are considered upscaled and will be downscaled (rounding down) before being returned to the Vault.\n     *\n     * protocolSwapFeePercentage argument is intentionally unused as protocol fees are handled in a different way\n     */\n    function _onJoinPool(\n        bytes32,\n        address,\n        address recipient,\n        uint256[] memory balances,\n        uint256 lastChangeBlock,\n        uint256, //protocolSwapFeePercentage,\n        bytes memory userData\n    )\n        internal\n        override\n        returns (\n            uint256,\n            uint256[] memory,\n            uint256[] memory\n        )\n    {\n        // Due protocol swap fee amounts are computed by measuring the growth of the invariant between the previous join\n        // or exit event and now - the invariant's growth is due exclusively to swap fees. This avoids spending gas\n        // computing them on each individual swap\n        (GyroECLPMath.Params memory eclpParams, GyroECLPMath.DerivedParams memory derivedECLPParams) = reconstructECLPParams();\n        uint256 invariantBeforeAction = GyroECLPMath.calculateInvariant(balances, eclpParams, derivedECLPParams);\n\n        _distributeFees(invariantBeforeAction);\n\n        (uint256 bptAmountOut, uint256[] memory amountsIn) = _doJoin(balances, userData);\n\n        if (_capParams.capEnabled) {\n            _ensureCap(bptAmountOut, balanceOf(recipient), totalSupply());\n        }\n\n        // Since we pay fees in BPT, they have not changed the invariant and 'invariantBeforeAction' is still consistent with\n        // 'balances'. Therefore, we can use a simplified method to update the invariant that does not require a full\n        // re-computation.\n        // Note: Should this be changed in the future, we also need to reduce the invariant proportionally by the total\n        // protocol fee factor.\n        _lastInvariant = GyroPoolMath.liquidityInvariantUpdate(invariantBeforeAction, bptAmountOut, totalSupply(), true);\n\n        emit InvariantOldAndNew(invariantBeforeAction, _lastInvariant);\n\n        // returns a new uint256[](2) b/c Balancer vault is expecting a fee array, but fees paid in BPT instead\n        return (bptAmountOut, amountsIn, new uint256[](2));\n    }\n\n    function _doJoin(uint256[] memory balances, bytes memory userData) internal view returns (uint256 bptAmountOut, uint256[] memory amountsIn) {\n        BaseWeightedPool.JoinKind kind = userData.joinKind();\n\n        // We do NOT currently support unbalanced update, i.e., EXACT_TOKENS_IN_FOR_BPT_OUT or TOKEN_IN_FOR_EXACT_BPT_OUT\n        if (kind == BaseWeightedPool.JoinKind.ALL_TOKENS_IN_FOR_EXACT_BPT_OUT) {\n            (bptAmountOut, amountsIn) = _joinAllTokensInForExactBPTOut(balances, userData);\n        } else {\n            _revert(Errors.UNHANDLED_JOIN_KIND);\n        }\n    }\n\n    function _joinAllTokensInForExactBPTOut(uint256[] memory balances, bytes memory userData)\n        internal\n        view\n        override\n        returns (uint256, uint256[] memory)\n    {\n        uint256 bptAmountOut = userData.allTokensInForExactBptOut();\n        // Note that there is no maximum amountsIn parameter: this is handled by `IVault.joinPool`.\n\n        uint256[] memory amountsIn = GyroPoolMath._calcAllTokensInGivenExactBptOut(balances, bptAmountOut, totalSupply());\n\n        return (bptAmountOut, amountsIn);\n    }\n\n    /**\n     * @dev Called whenever the Pool is exited.\n     *\n     * Returns the amount of BPT to burn, the token amounts for each Pool token that the Pool will grant in return, and\n     * the number of tokens to pay in protocol swap fees.\n     *\n     * Implementations of this function might choose to mutate the `balances` array to save gas (e.g. when\n     * performing intermediate calculations, such as subtraction of due protocol fees). This can be done safely.\n     *\n     * BPT will be burnt from `sender`.\n     *\n     * The Pool will grant tokens to `recipient`. These amounts are considered upscaled and will be downscaled\n     * (rounding down) before being returned to the Vault.\n     *\n     * Due protocol swap fees will be taken from the Pool's balance in the Vault (see `IBasePool.onExitPool`). These\n     * amounts are considered upscaled and will be downscaled (rounding down) before being returned to the Vault.\n     *\n     * protocolSwapFeePercentage argument is intentionally unused as protocol fees are handled in a different way\n     */\n    function _onExitPool(\n        bytes32,\n        address,\n        address,\n        uint256[] memory balances,\n        uint256 lastChangeBlock,\n        uint256, // protocolSwapFeePercentage,\n        bytes memory userData\n    )\n        internal\n        override\n        returns (\n            uint256 bptAmountIn,\n            uint256[] memory amountsOut,\n            uint256[] memory dueProtocolFeeAmounts\n        )\n    {\n        // Exits are not completely disabled while the contract is paused: proportional exits (exact BPT in for tokens\n        // out) remain functional.\n        (GyroECLPMath.Params memory eclpParams, GyroECLPMath.DerivedParams memory derivedECLPParams) = reconstructECLPParams();\n\n        // Note: If the contract is paused, swap protocol fee amounts are not charged\n        // to avoid extra calculations and reduce the potential for errors.\n        if (_isNotPaused()) {\n            // Due protocol swap fee amounts are computed by measuring the growth of the invariant between the previous\n            // join or exit event and now - the invariant's growth is due exclusively to swap fees. This avoids\n            // spending gas calculating the fees on each individual swap.\n            uint256 invariantBeforeAction = GyroECLPMath.calculateInvariant(balances, eclpParams, derivedECLPParams);\n\n            _distributeFees(invariantBeforeAction);\n\n            (bptAmountIn, amountsOut) = _doExit(balances, userData);\n\n            // Since we pay fees in BPT, they have not changed the invariant and 'invariantBeforeAction' is still consistent with\n            // 'balances'. Therefore, we can use a simplified method to update the invariant that does not require a full\n            // re-computation.\n            // Note: Should this be changed in the future, we also need to reduce the invariant proportionally by the total\n            // protocol fee factor.\n            _lastInvariant = GyroPoolMath.liquidityInvariantUpdate(invariantBeforeAction, bptAmountIn, totalSupply(), false);\n\n            emit InvariantOldAndNew(invariantBeforeAction, _lastInvariant);\n        } else {\n            // Note: If the contract is paused, swap protocol fee amounts are not charged\n            // to avoid extra calculations and reduce the potential for errors.\n            (bptAmountIn, amountsOut) = _doExit(balances, userData);\n\n            // Invalidate _lastInvariant. We do not compute the invariant to make sure the pool is not locking\n            // up b/c numerical limits might be violated. Instead, we set the invariant such that any following\n            // (non-paused) join/exit will ignore and recompute it. (see GyroPoolMath._calcProtocolFees())\n            _lastInvariant = type(uint256).max;\n        }\n\n        // returns a new uint256[](2) b/c Balancer vault is expecting a fee array, but fees paid in BPT instead\n        return (bptAmountIn, amountsOut, new uint256[](2));\n    }\n\n    function _doExit(uint256[] memory balances, bytes memory userData) internal view returns (uint256 bptAmountIn, uint256[] memory amountsOut) {\n        BaseWeightedPool.ExitKind kind = userData.exitKind();\n\n        // We do NOT support unbalanced exit at the moment, i.e., EXACT_BPT_IN_FOR_ONE_TOKEN_OUT or\n        // BPT_IN_FOR_EXACT_TOKENS_OUT.\n        if (kind == BaseWeightedPool.ExitKind.EXACT_BPT_IN_FOR_TOKENS_OUT) {\n            (bptAmountIn, amountsOut) = _exitExactBPTInForTokensOut(balances, userData);\n        } else {\n            _revert(Errors.UNHANDLED_EXIT_KIND);\n        }\n    }\n\n    function _exitExactBPTInForTokensOut(uint256[] memory balances, bytes memory userData)\n        internal\n        view\n        override\n        returns (uint256, uint256[] memory)\n    {\n        // This exit function is the only one that is not disabled if the contract is paused: it remains unrestricted\n        // in an attempt to provide users with a mechanism to retrieve their tokens in case of an emergency.\n        // This particular exit function is the only one that remains available because it is the simplest one, and\n        // therefore the one with the lowest likelihood of errors.\n\n        uint256 bptAmountIn = userData.exactBptInForTokensOut();\n        // Note that there is no minimum amountOut parameter: this is handled by `IVault.exitPool`.\n\n        uint256[] memory amountsOut = GyroPoolMath._calcTokensOutGivenExactBptIn(balances, bptAmountIn, totalSupply());\n        return (bptAmountIn, amountsOut);\n    }\n\n    // Helpers.\n\n    function _balancesFromTokenInOut(\n        uint256 balanceTokenIn,\n        uint256 balanceTokenOut,\n        bool tokenInIsToken0\n    ) internal pure returns (uint256[] memory balances) {\n        balances = new uint256[](2);\n        if (tokenInIsToken0) {\n            balances[0] = balanceTokenIn;\n            balances[1] = balanceTokenOut;\n        } else {\n            balances[0] = balanceTokenOut;\n            balances[1] = balanceTokenIn;\n        }\n    }\n\n    // Fee helpers. These are exactly the same as in the Gyro2CLPPool.\n    // TODO prob about time to make a base class.\n\n    /**\n     * Note: This function is identical to that used in Gyro2CLPPool.sol\n     * @dev Computes and distributes fees between the Balancer and the Gyro treasury\n     * The fees are computed and distributed in BPT rather than using the\n     * Balancer regular distribution mechanism which would pay these in underlying\n     */\n\n    function _distributeFees(uint256 invariantBeforeAction) internal {\n        // calculate Protocol fees in BPT\n        // lastInvariant is the invariant logged at the end of the last liquidity update\n        // protocol fees are calculated on swap fees earned between liquidity updates\n        (uint256 gyroFees, uint256 balancerFees, address gyroTreasury, address balTreasury) = _getDueProtocolFeeAmounts(\n            _lastInvariant,\n            invariantBeforeAction\n        );\n\n        // Pay fees in BPT\n        _payFeesBpt(gyroFees, balancerFees, gyroTreasury, balTreasury);\n    }\n\n    /**\n     * Note: This function is identical to that used in Gyro2CLPPool.sol\n     * @dev this function overrides inherited function to make sure it is never used\n     */\n    function _getDueProtocolFeeAmounts(\n        uint256[] memory, // balances,\n        uint256[] memory, // normalizedWeights,\n        uint256, // previousInvariant,\n        uint256, // currentInvariant,\n        uint256 // protocolSwapFeePercentage\n    ) internal pure override returns (uint256[] memory) {\n        revert(\"Not implemented\");\n    }\n\n    /**\n     * @dev\n     * Note: This function is identical to that used in Gyro2CLPPool.sol.\n     * Calculates protocol fee amounts in BPT terms.\n     * protocolSwapFeePercentage is not used here b/c we take parameters from GyroConfig instead.\n     * Returns: BPT due to Gyro, BPT due to Balancer, receiving address for Gyro fees, receiving address for Balancer\n     * fees.\n     */\n    function _getDueProtocolFeeAmounts(uint256 previousInvariant, uint256 currentInvariant)\n        internal\n        view\n        returns (\n            uint256,\n            uint256,\n            address,\n            address\n        )\n    {\n        (uint256 protocolSwapFeePerc, uint256 protocolFeeGyroPortion, address gyroTreasury, address balTreasury) = _getFeesMetadata();\n\n        // Early return if the protocol swap fee percentage is zero, saving gas.\n        if (protocolSwapFeePerc == 0) {\n            return (0, 0, gyroTreasury, balTreasury);\n        }\n\n        // Calculate fees in BPT\n        (uint256 gyroFees, uint256 balancerFees) = GyroPoolMath._calcProtocolFees(\n            previousInvariant,\n            currentInvariant,\n            totalSupply(),\n            protocolSwapFeePerc,\n            protocolFeeGyroPortion\n        );\n\n        return (gyroFees, balancerFees, gyroTreasury, balTreasury);\n    }\n\n    // Note: This function is identical to that used in Gyro2CLPPool.sol\n    function _payFeesBpt(\n        uint256 gyroFees,\n        uint256 balancerFees,\n        address gyroTreasury,\n        address balTreasury\n    ) internal {\n        // Pay fees in BPT to gyro treasury\n        if (gyroFees > 0) {\n            _mintPoolTokens(gyroTreasury, gyroFees);\n        }\n        // Pay fees in BPT to bal treasury\n        if (balancerFees > 0) {\n            _mintPoolTokens(balTreasury, balancerFees);\n        }\n    }\n\n    // Note: This function is identical to that used in Gyro2CLPPool.sol\n    function _getFeesMetadata()\n        internal\n        view\n        returns (\n            uint256,\n            uint256,\n            address,\n            address\n        )\n    {\n        return (\n            gyroConfig.getSwapFeePercForPool(address(this), POOL_TYPE),\n            gyroConfig.getProtocolFeeGyroPortionForPool(address(this), POOL_TYPE),\n            gyroConfig.getAddress(GyroConfigKeys.GYRO_TREASURY_KEY),\n            gyroConfig.getAddress(GyroConfigKeys.BAL_TREASURY_KEY)\n        );\n    }\n\n    function _setPausedState(bool paused) internal override {\n        _setPaused(paused);\n    }\n\n    // Rate scaling\n\n    function _scalingFactor(bool token0) internal view override returns (uint256) {\n        IRateProvider rateProvider;\n        uint256 scalingFactor;\n        if (token0) {\n            rateProvider = rateProvider0;\n            scalingFactor = _scalingFactor0;\n        } else {\n            rateProvider = rateProvider1;\n            scalingFactor = _scalingFactor1;\n        }\n        if (address(rateProvider) != address(0)) scalingFactor = scalingFactor.mulDown(rateProvider.getRate());\n        return scalingFactor;\n    }\n\n    function _adjustPrice(uint256 spotPrice) internal view override returns (uint256) {\n        if (address(rateProvider0) != address(0)) spotPrice = spotPrice.mulDown(rateProvider0.getRate());\n        if (address(rateProvider1) != address(0)) spotPrice = spotPrice.divDown(rateProvider1.getRate());\n        return spotPrice;\n    }\n\n    /// @notice Convenience function to fetch the two rates used for scaling the two tokens, as of rateProvider{0,1}.\n    /// Note that these rates do *not* contain scaling to account for differences in the number of decimals. The rates\n    /// themselves are always 18-decimals.\n    function getTokenRates() public view returns (uint256 rate0, uint256 rate1) {\n        rate0 = address(rateProvider0) != address(0) ? rateProvider0.getRate() : GyroFixedPoint.ONE;\n        rate1 = address(rateProvider1) != address(0) ? rateProvider1.getRate() : GyroFixedPoint.ONE;\n    }\n}\n","sourcePath":"contracts/eclp/GyroECLPPool.sol","type":"contract","deployment":{"address":"0x58910d5bd045a20A37dE147f8ACEa75B2d881f61","chainid":"10","blockHeight":100548766}}